{
  "_format": "hh-sol-artifact-1",
  "contractName": "HealthRecordCore",
  "sourceName": "contracts/HealthRecordCore.sol",
  "abi": [
    {
      "inputs": [
        {
          "internalType": "address",
          "name": "_memberRoleManager",
          "type": "address"
        }
      ],
      "stateMutability": "nonpayable",
      "type": "constructor"
    },
    {
      "anonymous": false,
      "inputs": [
        {
          "indexed": true,
          "internalType": "string",
          "name": "permissionHash",
          "type": "string"
        },
        {
          "indexed": true,
          "internalType": "address",
          "name": "sharer",
          "type": "address"
        },
        {
          "indexed": true,
          "internalType": "address",
          "name": "receiver",
          "type": "address"
        },
        {
          "indexed": false,
          "internalType": "string",
          "name": "recordId",
          "type": "string"
        },
        {
          "indexed": false,
          "internalType": "uint256",
          "name": "timestamp",
          "type": "uint256"
        }
      ],
      "name": "AccessGranted",
      "type": "event"
    },
    {
      "anonymous": false,
      "inputs": [
        {
          "indexed": true,
          "internalType": "string",
          "name": "permissionHash",
          "type": "string"
        },
        {
          "indexed": true,
          "internalType": "address",
          "name": "sharer",
          "type": "address"
        },
        {
          "indexed": true,
          "internalType": "address",
          "name": "receiver",
          "type": "address"
        },
        {
          "indexed": false,
          "internalType": "string",
          "name": "recordId",
          "type": "string"
        },
        {
          "indexed": false,
          "internalType": "uint256",
          "name": "timestamp",
          "type": "uint256"
        }
      ],
      "name": "AccessRevoked",
      "type": "event"
    },
    {
      "anonymous": false,
      "inputs": [
        {
          "indexed": true,
          "internalType": "address",
          "name": "oldAdmin",
          "type": "address"
        },
        {
          "indexed": true,
          "internalType": "address",
          "name": "newAdmin",
          "type": "address"
        },
        {
          "indexed": false,
          "internalType": "uint256",
          "name": "timestamp",
          "type": "uint256"
        }
      ],
      "name": "AdminTransferred",
      "type": "event"
    },
    {
      "anonymous": false,
      "inputs": [
        {
          "indexed": true,
          "internalType": "string",
          "name": "recordHash",
          "type": "string"
        },
        {
          "indexed": true,
          "internalType": "address",
          "name": "reviewer",
          "type": "address"
        },
        {
          "indexed": false,
          "internalType": "enum HealthRecordCore.DisputeSeverity",
          "name": "oldSeverity",
          "type": "uint8"
        },
        {
          "indexed": false,
          "internalType": "enum HealthRecordCore.DisputeSeverity",
          "name": "newSeverity",
          "type": "uint8"
        },
        {
          "indexed": false,
          "internalType": "enum HealthRecordCore.DisputeCulpability",
          "name": "oldCulpability",
          "type": "uint8"
        },
        {
          "indexed": false,
          "internalType": "enum HealthRecordCore.DisputeCulpability",
          "name": "newCulpability",
          "type": "uint8"
        },
        {
          "indexed": false,
          "internalType": "uint256",
          "name": "timestamp",
          "type": "uint256"
        }
      ],
      "name": "DisputeModification",
      "type": "event"
    },
    {
      "anonymous": false,
      "inputs": [
        {
          "indexed": true,
          "internalType": "string",
          "name": "recordHash",
          "type": "string"
        },
        {
          "indexed": true,
          "internalType": "address",
          "name": "reactor",
          "type": "address"
        },
        {
          "indexed": true,
          "internalType": "address",
          "name": "reviewer",
          "type": "address"
        },
        {
          "indexed": false,
          "internalType": "bool",
          "name": "supportsDispute",
          "type": "bool"
        },
        {
          "indexed": false,
          "internalType": "uint256",
          "name": "timestamp",
          "type": "uint256"
        }
      ],
      "name": "DisputeReaction",
      "type": "event"
    },
    {
      "anonymous": false,
      "inputs": [
        {
          "indexed": true,
          "internalType": "string",
          "name": "recordId",
          "type": "string"
        },
        {
          "indexed": true,
          "internalType": "string",
          "name": "recordHash",
          "type": "string"
        },
        {
          "indexed": true,
          "internalType": "address",
          "name": "subject",
          "type": "address"
        },
        {
          "indexed": false,
          "internalType": "address",
          "name": "createdBy",
          "type": "address"
        },
        {
          "indexed": false,
          "internalType": "uint256",
          "name": "timestamp",
          "type": "uint256"
        }
      ],
      "name": "RecordAnchored",
      "type": "event"
    },
    {
      "anonymous": false,
      "inputs": [
        {
          "indexed": true,
          "internalType": "string",
          "name": "recordId",
          "type": "string"
        },
        {
          "indexed": true,
          "internalType": "string",
          "name": "recordHash",
          "type": "string"
        },
        {
          "indexed": true,
          "internalType": "address",
          "name": "reviewer",
          "type": "address"
        },
        {
          "indexed": false,
          "internalType": "enum HealthRecordCore.ReviewType",
          "name": "reviewType",
          "type": "uint8"
        },
        {
          "indexed": false,
          "internalType": "enum HealthRecordCore.DisputeSeverity",
          "name": "severity",
          "type": "uint8"
        },
        {
          "indexed": false,
          "internalType": "enum HealthRecordCore.DisputeCulpability",
          "name": "culpability",
          "type": "uint8"
        },
        {
          "indexed": false,
          "internalType": "uint256",
          "name": "timestamp",
          "type": "uint256"
        }
      ],
      "name": "RecordReviewed",
      "type": "event"
    },
    {
      "anonymous": false,
      "inputs": [
        {
          "indexed": true,
          "internalType": "string",
          "name": "recordHash",
          "type": "string"
        },
        {
          "indexed": true,
          "internalType": "address",
          "name": "reviewer",
          "type": "address"
        },
        {
          "indexed": false,
          "internalType": "enum HealthRecordCore.ReviewType",
          "name": "reviewType",
          "type": "uint8"
        },
        {
          "indexed": false,
          "internalType": "uint256",
          "name": "timestamp",
          "type": "uint256"
        }
      ],
      "name": "ReviewRetracted",
      "type": "event"
    },
    {
      "inputs": [
        {
          "internalType": "string",
          "name": "",
          "type": "string"
        }
      ],
      "name": "accessPermissions",
      "outputs": [
        {
          "internalType": "string",
          "name": "permissionHash",
          "type": "string"
        },
        {
          "internalType": "address",
          "name": "sharer",
          "type": "address"
        },
        {
          "internalType": "address",
          "name": "receiver",
          "type": "address"
        },
        {
          "internalType": "string",
          "name": "recordId",
          "type": "string"
        },
        {
          "internalType": "uint256",
          "name": "grantedAt",
          "type": "uint256"
        },
        {
          "internalType": "uint256",
          "name": "revokedAt",
          "type": "uint256"
        },
        {
          "internalType": "bool",
          "name": "isActive",
          "type": "bool"
        },
        {
          "internalType": "bool",
          "name": "exists",
          "type": "bool"
        }
      ],
      "stateMutability": "view",
      "type": "function"
    },
    {
      "inputs": [],
      "name": "admin",
      "outputs": [
        {
          "internalType": "address",
          "name": "",
          "type": "address"
        }
      ],
      "stateMutability": "view",
      "type": "function"
    },
    {
      "inputs": [
        {
          "internalType": "string",
          "name": "recordHash",
          "type": "string"
        },
        {
          "internalType": "string",
          "name": "recordId",
          "type": "string"
        },
        {
          "internalType": "address",
          "name": "subject",
          "type": "address"
        }
      ],
      "name": "anchorRecord",
      "outputs": [],
      "stateMutability": "nonpayable",
      "type": "function"
    },
    {
      "inputs": [
        {
          "internalType": "string",
          "name": "",
          "type": "string"
        }
      ],
      "name": "anchoredRecords",
      "outputs": [
        {
          "internalType": "string",
          "name": "recordHash",
          "type": "string"
        },
        {
          "internalType": "string",
          "name": "recordId",
          "type": "string"
        },
        {
          "internalType": "address",
          "name": "subject",
          "type": "address"
        },
        {
          "internalType": "uint256",
          "name": "createdAt",
          "type": "uint256"
        },
        {
          "internalType": "address",
          "name": "createdBy",
          "type": "address"
        },
        {
          "internalType": "bool",
          "name": "exists",
          "type": "bool"
        }
      ],
      "stateMutability": "view",
      "type": "function"
    },
    {
      "inputs": [
        {
          "internalType": "string",
          "name": "permissionHash",
          "type": "string"
        }
      ],
      "name": "checkAccess",
      "outputs": [
        {
          "internalType": "bool",
          "name": "isActive",
          "type": "bool"
        },
        {
          "internalType": "address",
          "name": "sharer",
          "type": "address"
        },
        {
          "internalType": "address",
          "name": "receiver",
          "type": "address"
        },
        {
          "internalType": "string",
          "name": "recordId",
          "type": "string"
        },
        {
          "internalType": "uint256",
          "name": "grantedAt",
          "type": "uint256"
        },
        {
          "internalType": "uint256",
          "name": "revokedAt",
          "type": "uint256"
        }
      ],
      "stateMutability": "view",
      "type": "function"
    },
    {
      "inputs": [
        {
          "internalType": "string",
          "name": "",
          "type": "string"
        },
        {
          "internalType": "address",
          "name": "",
          "type": "address"
        },
        {
          "internalType": "uint256",
          "name": "",
          "type": "uint256"
        }
      ],
      "name": "disputeReactions",
      "outputs": [
        {
          "internalType": "address",
          "name": "reactor",
          "type": "address"
        },
        {
          "internalType": "bool",
          "name": "supportsDispute",
          "type": "bool"
        },
        {
          "internalType": "uint256",
          "name": "timestamp",
          "type": "uint256"
        }
      ],
      "stateMutability": "view",
      "type": "function"
    },
    {
      "inputs": [
        {
          "internalType": "string",
          "name": "recordHash",
          "type": "string"
        },
        {
          "internalType": "uint8",
          "name": "severity",
          "type": "uint8"
        },
        {
          "internalType": "uint8",
          "name": "culpability",
          "type": "uint8"
        },
        {
          "internalType": "string",
          "name": "notes",
          "type": "string"
        }
      ],
      "name": "disputeRecord",
      "outputs": [],
      "stateMutability": "nonpayable",
      "type": "function"
    },
    {
      "inputs": [
        {
          "internalType": "address",
          "name": "",
          "type": "address"
        },
        {
          "internalType": "uint256",
          "name": "",
          "type": "uint256"
        }
      ],
      "name": "disputesByUser",
      "outputs": [
        {
          "internalType": "string",
          "name": "",
          "type": "string"
        }
      ],
      "stateMutability": "view",
      "type": "function"
    },
    {
      "inputs": [
        {
          "internalType": "string",
          "name": "recordHash",
          "type": "string"
        }
      ],
      "name": "getAnchoredRecord",
      "outputs": [
        {
          "internalType": "string",
          "name": "recordId",
          "type": "string"
        },
        {
          "internalType": "address",
          "name": "subject",
          "type": "address"
        },
        {
          "internalType": "uint256",
          "name": "createdAt",
          "type": "uint256"
        },
        {
          "internalType": "address",
          "name": "createdBy",
          "type": "address"
        },
        {
          "internalType": "bool",
          "name": "exists",
          "type": "bool"
        }
      ],
      "stateMutability": "view",
      "type": "function"
    },
    {
      "inputs": [
        {
          "internalType": "string",
          "name": "recordHash",
          "type": "string"
        },
        {
          "internalType": "address",
          "name": "disputer",
          "type": "address"
        }
      ],
      "name": "getDisputeReactionStats",
      "outputs": [
        {
          "internalType": "uint256",
          "name": "supportsCount",
          "type": "uint256"
        },
        {
          "internalType": "uint256",
          "name": "opposesCount",
          "type": "uint256"
        }
      ],
      "stateMutability": "view",
      "type": "function"
    },
    {
      "inputs": [
        {
          "internalType": "string",
          "name": "recordHash",
          "type": "string"
        },
        {
          "internalType": "address",
          "name": "disputer",
          "type": "address"
        }
      ],
      "name": "getDisputeReactions",
      "outputs": [
        {
          "components": [
            {
              "internalType": "address",
              "name": "reactor",
              "type": "address"
            },
            {
              "internalType": "bool",
              "name": "supportsDispute",
              "type": "bool"
            },
            {
              "internalType": "uint256",
              "name": "timestamp",
              "type": "uint256"
            }
          ],
          "internalType": "struct HealthRecordCore.Reaction[]",
          "name": "",
          "type": "tuple[]"
        }
      ],
      "stateMutability": "view",
      "type": "function"
    },
    {
      "inputs": [
        {
          "internalType": "string",
          "name": "recordId",
          "type": "string"
        }
      ],
      "name": "getHashesByRecordId",
      "outputs": [
        {
          "internalType": "string[]",
          "name": "",
          "type": "string[]"
        }
      ],
      "stateMutability": "view",
      "type": "function"
    },
    {
      "inputs": [
        {
          "internalType": "address",
          "name": "receiver",
          "type": "address"
        }
      ],
      "name": "getPermissionsByReceiver",
      "outputs": [
        {
          "internalType": "string[]",
          "name": "",
          "type": "string[]"
        }
      ],
      "stateMutability": "view",
      "type": "function"
    },
    {
      "inputs": [
        {
          "internalType": "address",
          "name": "sharer",
          "type": "address"
        }
      ],
      "name": "getPermissionsBySharer",
      "outputs": [
        {
          "internalType": "string[]",
          "name": "",
          "type": "string[]"
        }
      ],
      "stateMutability": "view",
      "type": "function"
    },
    {
      "inputs": [
        {
          "internalType": "string",
          "name": "recordHash",
          "type": "string"
        }
      ],
      "name": "getRecordSubject",
      "outputs": [
        {
          "internalType": "address",
          "name": "",
          "type": "address"
        }
      ],
      "stateMutability": "view",
      "type": "function"
    },
    {
      "inputs": [
        {
          "internalType": "address",
          "name": "subject",
          "type": "address"
        }
      ],
      "name": "getRecordsAboutSubject",
      "outputs": [
        {
          "internalType": "string[]",
          "name": "",
          "type": "string[]"
        }
      ],
      "stateMutability": "view",
      "type": "function"
    },
    {
      "inputs": [
        {
          "internalType": "string",
          "name": "recordHash",
          "type": "string"
        }
      ],
      "name": "getReviewStats",
      "outputs": [
        {
          "internalType": "uint256",
          "name": "activeVerifications",
          "type": "uint256"
        },
        {
          "internalType": "uint256",
          "name": "activeDisputes",
          "type": "uint256"
        },
        {
          "internalType": "uint256",
          "name": "retractedCount",
          "type": "uint256"
        }
      ],
      "stateMutability": "view",
      "type": "function"
    },
    {
      "inputs": [
        {
          "internalType": "string",
          "name": "recordHash",
          "type": "string"
        }
      ],
      "name": "getReviews",
      "outputs": [
        {
          "components": [
            {
              "internalType": "address",
              "name": "reviewer",
              "type": "address"
            },
            {
              "internalType": "enum HealthRecordCore.ReviewType",
              "name": "reviewType",
              "type": "uint8"
            },
            {
              "internalType": "enum HealthRecordCore.DisputeSeverity",
              "name": "severity",
              "type": "uint8"
            },
            {
              "internalType": "enum HealthRecordCore.DisputeCulpability",
              "name": "culpability",
              "type": "uint8"
            },
            {
              "internalType": "uint256",
              "name": "timestamp",
              "type": "uint256"
            },
            {
              "internalType": "string",
              "name": "notes",
              "type": "string"
            },
            {
              "internalType": "bool",
              "name": "isActive",
              "type": "bool"
            }
          ],
          "internalType": "struct HealthRecordCore.Review[]",
          "name": "",
          "type": "tuple[]"
        }
      ],
      "stateMutability": "view",
      "type": "function"
    },
    {
      "inputs": [
        {
          "internalType": "address",
          "name": "sharer",
          "type": "address"
        }
      ],
      "name": "getSharerStats",
      "outputs": [
        {
          "internalType": "uint256",
          "name": "total",
          "type": "uint256"
        },
        {
          "internalType": "uint256",
          "name": "active",
          "type": "uint256"
        }
      ],
      "stateMutability": "view",
      "type": "function"
    },
    {
      "inputs": [],
      "name": "getTotalPermissions",
      "outputs": [
        {
          "internalType": "uint256",
          "name": "",
          "type": "uint256"
        }
      ],
      "stateMutability": "view",
      "type": "function"
    },
    {
      "inputs": [],
      "name": "getTotalStats",
      "outputs": [
        {
          "internalType": "uint256",
          "name": "totalAnchored",
          "type": "uint256"
        },
        {
          "internalType": "uint256",
          "name": "totalReviewCount",
          "type": "uint256"
        },
        {
          "internalType": "uint256",
          "name": "totalPermissionCount",
          "type": "uint256"
        }
      ],
      "stateMutability": "view",
      "type": "function"
    },
    {
      "inputs": [
        {
          "internalType": "address",
          "name": "user",
          "type": "address"
        }
      ],
      "name": "getUserDisputes",
      "outputs": [
        {
          "internalType": "string[]",
          "name": "",
          "type": "string[]"
        }
      ],
      "stateMutability": "view",
      "type": "function"
    },
    {
      "inputs": [
        {
          "internalType": "string",
          "name": "recordHash",
          "type": "string"
        },
        {
          "internalType": "address",
          "name": "user",
          "type": "address"
        }
      ],
      "name": "getUserReview",
      "outputs": [
        {
          "internalType": "bool",
          "name": "exists",
          "type": "bool"
        },
        {
          "internalType": "enum HealthRecordCore.ReviewType",
          "name": "reviewType",
          "type": "uint8"
        },
        {
          "internalType": "uint256",
          "name": "timestamp",
          "type": "uint256"
        },
        {
          "internalType": "string",
          "name": "notes",
          "type": "string"
        },
        {
          "internalType": "bool",
          "name": "isActive",
          "type": "bool"
        }
      ],
      "stateMutability": "view",
      "type": "function"
    },
    {
      "inputs": [
        {
          "internalType": "address",
          "name": "user",
          "type": "address"
        }
      ],
      "name": "getUserReviewHistory",
      "outputs": [
        {
          "internalType": "uint256",
          "name": "totalVerifications",
          "type": "uint256"
        },
        {
          "internalType": "uint256",
          "name": "totalDisputes",
          "type": "uint256"
        }
      ],
      "stateMutability": "view",
      "type": "function"
    },
    {
      "inputs": [
        {
          "internalType": "address",
          "name": "user",
          "type": "address"
        }
      ],
      "name": "getUserVerifications",
      "outputs": [
        {
          "internalType": "string[]",
          "name": "",
          "type": "string[]"
        }
      ],
      "stateMutability": "view",
      "type": "function"
    },
    {
      "inputs": [
        {
          "internalType": "string",
          "name": "permissionHash",
          "type": "string"
        },
        {
          "internalType": "string",
          "name": "recordId",
          "type": "string"
        },
        {
          "internalType": "address",
          "name": "receiver",
          "type": "address"
        }
      ],
      "name": "grantAccess",
      "outputs": [],
      "stateMutability": "nonpayable",
      "type": "function"
    },
    {
      "inputs": [
        {
          "internalType": "string",
          "name": "",
          "type": "string"
        },
        {
          "internalType": "address",
          "name": "",
          "type": "address"
        },
        {
          "internalType": "address",
          "name": "",
          "type": "address"
        }
      ],
      "name": "hasReactedToDispute",
      "outputs": [
        {
          "internalType": "bool",
          "name": "",
          "type": "bool"
        }
      ],
      "stateMutability": "view",
      "type": "function"
    },
    {
      "inputs": [
        {
          "internalType": "string",
          "name": "",
          "type": "string"
        },
        {
          "internalType": "address",
          "name": "",
          "type": "address"
        }
      ],
      "name": "hasReviewed",
      "outputs": [
        {
          "internalType": "bool",
          "name": "",
          "type": "bool"
        }
      ],
      "stateMutability": "view",
      "type": "function"
    },
    {
      "inputs": [
        {
          "internalType": "string",
          "name": "recordHash",
          "type": "string"
        },
        {
          "internalType": "address",
          "name": "user",
          "type": "address"
        }
      ],
      "name": "isSubject",
      "outputs": [
        {
          "internalType": "bool",
          "name": "",
          "type": "bool"
        }
      ],
      "stateMutability": "view",
      "type": "function"
    },
    {
      "inputs": [],
      "name": "memberRoleManager",
      "outputs": [
        {
          "internalType": "contract MemberRoleManagerInterface",
          "name": "",
          "type": "address"
        }
      ],
      "stateMutability": "view",
      "type": "function"
    },
    {
      "inputs": [
        {
          "internalType": "string",
          "name": "recordHash",
          "type": "string"
        },
        {
          "internalType": "uint8",
          "name": "newSeverity",
          "type": "uint8"
        },
        {
          "internalType": "uint8",
          "name": "newCulpability",
          "type": "uint8"
        }
      ],
      "name": "modifyDispute",
      "outputs": [],
      "stateMutability": "nonpayable",
      "type": "function"
    },
    {
      "inputs": [
        {
          "internalType": "address",
          "name": "",
          "type": "address"
        },
        {
          "internalType": "uint256",
          "name": "",
          "type": "uint256"
        }
      ],
      "name": "permissionsByReceiver",
      "outputs": [
        {
          "internalType": "string",
          "name": "",
          "type": "string"
        }
      ],
      "stateMutability": "view",
      "type": "function"
    },
    {
      "inputs": [
        {
          "internalType": "address",
          "name": "",
          "type": "address"
        },
        {
          "internalType": "uint256",
          "name": "",
          "type": "uint256"
        }
      ],
      "name": "permissionsBySharer",
      "outputs": [
        {
          "internalType": "string",
          "name": "",
          "type": "string"
        }
      ],
      "stateMutability": "view",
      "type": "function"
    },
    {
      "inputs": [
        {
          "internalType": "string",
          "name": "recordHash",
          "type": "string"
        },
        {
          "internalType": "address",
          "name": "disputer",
          "type": "address"
        },
        {
          "internalType": "bool",
          "name": "supportsDispute",
          "type": "bool"
        }
      ],
      "name": "reactToDispute",
      "outputs": [],
      "stateMutability": "nonpayable",
      "type": "function"
    },
    {
      "inputs": [
        {
          "internalType": "string",
          "name": "",
          "type": "string"
        },
        {
          "internalType": "uint256",
          "name": "",
          "type": "uint256"
        }
      ],
      "name": "recordHashesByRecordId",
      "outputs": [
        {
          "internalType": "string",
          "name": "",
          "type": "string"
        }
      ],
      "stateMutability": "view",
      "type": "function"
    },
    {
      "inputs": [
        {
          "internalType": "string",
          "name": "",
          "type": "string"
        },
        {
          "internalType": "uint256",
          "name": "",
          "type": "uint256"
        }
      ],
      "name": "recordReviews",
      "outputs": [
        {
          "internalType": "address",
          "name": "reviewer",
          "type": "address"
        },
        {
          "internalType": "enum HealthRecordCore.ReviewType",
          "name": "reviewType",
          "type": "uint8"
        },
        {
          "internalType": "enum HealthRecordCore.DisputeSeverity",
          "name": "severity",
          "type": "uint8"
        },
        {
          "internalType": "enum HealthRecordCore.DisputeCulpability",
          "name": "culpability",
          "type": "uint8"
        },
        {
          "internalType": "uint256",
          "name": "timestamp",
          "type": "uint256"
        },
        {
          "internalType": "string",
          "name": "notes",
          "type": "string"
        },
        {
          "internalType": "bool",
          "name": "isActive",
          "type": "bool"
        }
      ],
      "stateMutability": "view",
      "type": "function"
    },
    {
      "inputs": [
        {
          "internalType": "address",
          "name": "",
          "type": "address"
        },
        {
          "internalType": "uint256",
          "name": "",
          "type": "uint256"
        }
      ],
      "name": "recordsAboutSubject",
      "outputs": [
        {
          "internalType": "string",
          "name": "",
          "type": "string"
        }
      ],
      "stateMutability": "view",
      "type": "function"
    },
    {
      "inputs": [
        {
          "internalType": "string",
          "name": "recordHash",
          "type": "string"
        }
      ],
      "name": "retractReview",
      "outputs": [],
      "stateMutability": "nonpayable",
      "type": "function"
    },
    {
      "inputs": [
        {
          "internalType": "string",
          "name": "permissionHash",
          "type": "string"
        }
      ],
      "name": "revokeAccess",
      "outputs": [],
      "stateMutability": "nonpayable",
      "type": "function"
    },
    {
      "inputs": [
        {
          "internalType": "address",
          "name": "_memberRoleManager",
          "type": "address"
        }
      ],
      "name": "setMemberRoleManager",
      "outputs": [],
      "stateMutability": "nonpayable",
      "type": "function"
    },
    {
      "inputs": [],
      "name": "totalAnchoredRecords",
      "outputs": [
        {
          "internalType": "uint256",
          "name": "",
          "type": "uint256"
        }
      ],
      "stateMutability": "view",
      "type": "function"
    },
    {
      "inputs": [],
      "name": "totalPermissions",
      "outputs": [
        {
          "internalType": "uint256",
          "name": "",
          "type": "uint256"
        }
      ],
      "stateMutability": "view",
      "type": "function"
    },
    {
      "inputs": [],
      "name": "totalReviews",
      "outputs": [
        {
          "internalType": "uint256",
          "name": "",
          "type": "uint256"
        }
      ],
      "stateMutability": "view",
      "type": "function"
    },
    {
      "inputs": [
        {
          "internalType": "address",
          "name": "newAdmin",
          "type": "address"
        }
      ],
      "name": "transferAdmin",
      "outputs": [],
      "stateMutability": "nonpayable",
      "type": "function"
    },
    {
      "inputs": [
        {
          "internalType": "string",
          "name": "",
          "type": "string"
        },
        {
          "internalType": "address",
          "name": "",
          "type": "address"
        }
      ],
      "name": "userReviewIndex",
      "outputs": [
        {
          "internalType": "uint256",
          "name": "",
          "type": "uint256"
        }
      ],
      "stateMutability": "view",
      "type": "function"
    },
    {
      "inputs": [
        {
          "internalType": "address",
          "name": "",
          "type": "address"
        },
        {
          "internalType": "uint256",
          "name": "",
          "type": "uint256"
        }
      ],
      "name": "verificationsByUser",
      "outputs": [
        {
          "internalType": "string",
          "name": "",
          "type": "string"
        }
      ],
      "stateMutability": "view",
      "type": "function"
    },
    {
      "inputs": [
        {
          "internalType": "string",
          "name": "recordHash",
          "type": "string"
        },
        {
          "internalType": "string",
          "name": "notes",
          "type": "string"
        }
      ],
      "name": "verifyRecord",
      "outputs": [],
      "stateMutability": "nonpayable",
      "type": "function"
    }
  ],
  "bytecode": "0x608034620000d857601f62003e4638819003918201601f19168301916001600160401b03831184841017620000dd57808492602094604052833981010312620000d857516001600160a01b03811690819003620000d8578015620000895760018060a01b03199081600054161760005533906001541617600155604051613d529081620000f48239f35b60405162461bcd60e51b815260206004820152602160248201527f496e76616c6964204d656d626572526f6c654d616e61676572206164647265736044820152607360f81b6064820152608490fd5b600080fd5b634e487b7160e01b600052604160045260246000fdfe6080604052600436101561001257600080fd5b60e0600035811c908163036351701461321957816310a0e88a14612f855781631469fab714612ef65781631537070314612ecd5781631655408d14612dbb57816319c6195314612a9f5781631af43c91146126045781631cf8cbe8146125e6578163291c2b16146125975781632978465d1461243a5781632ec1ca8a1461236f578163328c5aa11461238d578163378115341461236f5781633935b07614611fca5781633a77956814611f7d5781633aaaaf8814611ea75781633cfbc7cb14611d985781633de2e8e9146119895781633ecd54be1461183857816347580b56146117eb5781636b032610146116f957816375829def1461167e5781637ea79e9c146115c457816380fcd8171461158357816381c86b33146114ea5781638625d3841461144f57816386564c8e1461140857816386c097f714611379578163889a7eee146112a75781639e90e34a14610dea578163a065361114610d9d578163a5a6958e14610d47578163ad6f028114610c73578163b10e4a0b14610ab2578163b5d3bc05146109dc578163bed6e79e1461098f578163bfb0a55b14610900578163c542ef4014610871578163dd0bc0821461081a578163e0f3e86e146107de578163e2367890146107c0578163e589425e1461075a578163f25b7f45146106cb578163f6cc55f9146105b657508063f851a4401461058d578063fb310c591461025f5763fc5cbf1d1461022457600080fd5b3461025a57600036600319011261025a5760095460115460055460408051938452602084019290925290820152606090f35b0390f35b600080fd5b3461025a5760208060031936011261025a576004356001600160401b03811161025a57610290903690600401613486565b60405190805160ff6006858401926102a981878661343e565b850194868160029788815203019020015460081c16156105485760ff6006604051868186516102d981838961343e565b8101888152030190200154161561051157600192936040519183516102ff81858461343e565b830192868452858060a01b03958184889383970301902001541633036104cc5760036103a6836103b693600660405183818d8c5161033e81848961343e565b820190815203019020019860ff19998a815416905560405160058a5161036581848761343e565b8201918d8352858142940301902001558a60405184818c5161038881838961343e565b81018481520301902001541699604051809481938b5192839161343e565b82019081520301902001936137f0565b9260405192604084526000958254926103ce846132c0565b93846040880152606092600182169182600014610485575050600114610423575b50505050907f24303533397c7c9c44f2c956200064d35c3459320ddcc9efeea95e384763bceb9142908201528033940390a4005b909396506000528560002092866000945b84861061047157505050509082016060019390507f24303533397c7c9c44f2c956200064d35c3459320ddcc9efeea95e384763bceb8680806103ef565b805487870184015294019387908301610434565b92509250507f24303533397c7c9c44f2c956200064d35c3459320ddcc9efeea95e384763bceb9594975060609392501682840152151560051b8201019390918680806103ef565b60405162461bcd60e51b815260048101839052601a60248201527f4f6e6c7920746865207368617265722063616e207265766f6b650000000000006044820152606490fd5b60405162461bcd60e51b815260048101859052600f60248201526e105b1c9958591e481c995d9bdad959608a1b6044820152606490fd5b60405162461bcd60e51b815260048101859052601960248201527f5065726d697373696f6e20646f6573206e6f74206578697374000000000000006044820152606490fd5b3461025a57600036600319011261025a576001546040516001600160a01b039091168152602090f35b3461025a57602036600319011261025a576004356001600160401b03811161025a5760206105eb6105fe923690600401613486565b816040519382858094519384920161343e565b810160028152030190209060405161061581613330565b61061e83613388565b815260018301546001600160a01b0390811660208301908152600285015482166040840190815294916106bc91908061065960038601613388565b9283606088015260048601549687608082015260066005880154978860a084015201549860ff808b1615159a8b60c085015260081c161515910152511696511660405196879687526020870152604086015260c0606086015260c0850190613461565b91608084015260a08301520390f35b3461025a5760208060031936011261025a576001600160a01b036106ed613266565b1660005260046020526040600020805461070681613810565b916107146040519384613367565b81835260208301906000526020600020936000915b83831061073e576040518061025687826134fc565b600182819261074c89613388565b815201960192019194610729565b3461025a57602061078261076d3661363e565b9290816040519382858094519384920161343e565b8101600881520301902090815481101561025a576107a66107ac9161025693613292565b9061342d565b604051918291602083526020830190613461565b3461025a57600036600319011261025a576020601154604051908152f35b3461025a5760206107f161076d36613560565b8101600c8152030190209060018060a01b03166000526020526020604060002054604051908152f35b3461025a57602036600319011261025a57610833613266565b6001546001600160a01b03919061084d9083163314613b9c565b16610859811515613bd5565b6001600160601b0360a01b6000541617600055600080f35b3461025a5760208060031936011261025a576001600160a01b03610893613266565b166000526007602052604060002080546108ac81613810565b916108ba6040519384613367565b81835260208301906000526020600020936000915b8383106108e4576040518061025687826134fc565b60018281926108f289613388565b8152019601920191946108cf565b3461025a5760208060031936011261025a576001600160a01b03610922613266565b1660005260106020526040600020805461093b81613810565b916109496040519384613367565b81835260208301906000526020600020936000915b838310610973576040518061025687826134fc565b600182819261098189613388565b81520196019201919461095e565b3461025a57604036600319011261025a576109a8613266565b6001600160a01b0316600090815260046020526040902080546024359081101561025a576107a66107ac9161025693613292565b3461025a57602036600319011261025a576004356001600160401b03811161025a57610a1460206105eb610a99933690600401613486565b81016006815203019020604051610a2a81613315565b610a3382613388565b815260a0610a4360018401613388565b92836020840152600180831b0390816002820154169384604082015260ff6004600384015493846060850152015493841693846080840152851c161515938491015260405195869560a0875260a0870190613461565b9360208601526040850152606084015260808301520390f35b3461025a5760208060031936011261025a576004356001600160401b03811161025a57610ae3903690600401613486565b90604051825190828181860193610afb81838761343e565b8101600b81520301902033600052825260ff6040600020541615610c375760405182818551610b2b81838761343e565b8101600c815203019020336000528252610b6560406000205460405184818751610b5681838961343e565b8101600a81520301902061366f565b5090600382019081549160ff831615610bfe5791610b9d85610bc3959360ff9586198095169055604051809381928b5192839161343e565b8101600b81520301902033600052855260406000209081541690555460a01c16926137f0565b90610bd160405180946135fb565b42908301527f6bc31bfb9ff73229da0fa40a8ab549b0579fa1a8aa5097d6c42c758ad695618260403393a3005b60405162461bcd60e51b8152600481018690526011602482015270105b1c9958591e481c995d1c9858dd1959607a1b6044820152606490fd5b60405162461bcd60e51b8152600481018390526014602482015273139bc81c995d9a595dc81d1bc81c995d1c9858dd60621b6044820152606490fd5b3461025a5760208060031936011261025a576004356001600160401b03811161025a57610ca4903690600401613486565b6040519060ff6004825193858181860196610cc081838a61343e565b81016006815203019020015460a01c1615610d0a57600290610cea6040519384925192839161343e565b82019160068352838160018060a01b039403019020015416604051908152f35b60405162461bcd60e51b8152600481018490526015602482015274149958dbdc9908191bd95cc81b9bdd08195e1a5cdd605a1b6044820152606490fd5b3461025a57610d91610d61610d5b36613560565b90613c13565b929491610d7b6040519687961515875260208701906135fb565b604085015260a0606085015260a0840190613461565b90151560808301520390f35b3461025a57604036600319011261025a57610db6613266565b6001600160a01b0316600090815260076020526040902080546024359081101561025a576107a66107ac9161025693613292565b3461025a57606036600319011261025a576004356001600160401b03811161025a57610e1a903690600401613486565b610e2261327c565b906044359081151580920361025a576000546040516345ecd02f60e01b8152336004820152602092916001600160a01b03908116916024919085818481875afa80156111f157610e7a9160009161128a575b50613b45565b60405192610eae60ff60048751968981818b0199610e9981838d61343e565b81016006815203019020015460a01c1661368b565b8160405187818851610ec181838b61343e565b8101600b81520301902098169788600052865260ff60406000205416156112465760405186818751610ef481838a61343e565b8101600c815203019020886000528652610f28610f2260406000205460405189818a51610b5681838d61343e565b50613abf565b868101516002811015611231576001036111fd57610f9991610f5060c089930151151561375c565b6040518751610f7b9160019185908290610f6b81838e61343e565b8101600681520301902001613388565b906040518080958194630286b6ab60e31b8352339060048401613883565b03915afa80156111f157610fb5916000916111c4575b506138ab565b8633146111825760405185818651610fce81838961343e565b8101600e815203019020876000528552604060002033600052855260ff6040600020541661113e576040518581865161100881838961343e565b8101600d8152030190208760005285526040600020906040519061102b826132fa565b338252868201918883526040810193428552805490600160401b821015611129579061105c91600182018155613622565b9590956111155750518454925160ff60a01b90151560a01b166001600160a81b0319909316911660ff60a01b1916171782556110e193926110b19286926001905191015560405180938192865192839161343e565b8101600e81520301902085600052835260406000203360005283526040600020600160ff198254161790556137f0565b9060405192835242908301527fad3ed72ffd0de1372034654a13d68aaf09e3980d9fd90226d703b6ce84bec0d860403393a4005b634e487b7160e01b60005260006004526000fd5b86634e487b7160e01b60005260416004526000fd5b60405162461bcd60e51b815260048101869052601f818401527f416c7265616479207265616374656420746f20746869732064697370757465006044820152606490fd5b606482866040519162461bcd60e51b83528160048401528201527f43616e6e6f7420726561637420746f20796f7572206f776e20646973707574656044820152fd5b6111e49150873d89116111ea575b6111dc8183613367565b810190613827565b89610faf565b503d6111d2565b6040513d6000823e3d90fd5b60405162461bcd60e51b815260048101889052600d818601526c4e6f742061206469737075746560981b6044820152606490fd5b84634e487b7160e01b60005260216004526000fd5b60405162461bcd60e51b815260048101879052601c818501527f4e6f20646973707574652066726f6d20746869732061646472657373000000006044820152606490fd5b6112a19150873d89116111ea576111dc8183613367565b89610e74565b3461025a576020906112d06112bb3661363e565b9390816040519382858094519384920161343e565b8101600a815203019020805483101561025a5761135a926112f09161366f565b509061136d82549260018101549260ff600361130e60028501613388565b930154169360405196879660018060a01b03811688526113376020890160ff8360a01c166135fb565b61134a6040890160ff8360a81c16613608565b60ff606089019160b01c16613615565b60808601528060a0860152840190613461565b90151560c08301520390f35b3461025a5760208060031936011261025a576001600160a01b0361139b613266565b166000526003602052604060002080546113b481613810565b916113c26040519384613367565b81835260208301906000526020600020936000915b8383106113ec576040518061025687826134fc565b60018281926113fa89613388565b8152019601920191946113d7565b3461025a57602036600319011261025a576001600160a01b03611429613266565b16600052600f602052604080600020546010602052816000205482519182526020820152f35b3461025a57606036600319011261025a576004356001600160401b03811161025a5761147f903690600401613486565b61148761327c565b6001600160a01b03604435818116939084900361025a5760206114b791816040519382858094519384920161343e565b8101600e8152030190209116600052602052604060002090600052602052602060ff604060002054166040519015158152f35b3461025a5760208060031936011261025a576004356001600160401b03811161025a57816105eb61151f923690600401613486565b81016008815203019020805461153481613810565b916115426040519384613367565b8183526000908152838120938084015b838310611567576040518061025687826134fc565b600182819261157589613388565b815201960192019194611552565b3461025a57602061159661076d36613560565b8101600b8152030190209060018060a01b0316600052602052602060ff604060002054166040519015158152f35b3461025a57602036600319011261025a576004356001600160401b03811161025a576115fc60206105eb61164f933690600401613486565b8101600681520301902061160f81613388565b9060ff61161e60018301613388565b60018060a01b03806002850154169361165d600460038301549201549360405198899860c08a5260c08a0190613461565b9088820360208a0152613461565b94604087015260608601528116608085015260a01c16151560a08301520390f35b3461025a57602036600319011261025a57611697613266565b6001546001600160a01b03808216926116b1338514613b9c565b1680926116bf821515613bd5565b7f38df5fa0f7fef0d515ca1f5388cb5790ac5885d5fca8d05d9f943e563c33a4b36020604051428152a36001600160a01b03191617600155005b3461025a5760208060031936011261025a57611713613266565b6001600160a01b031660009081526003825260409020805461173481613810565b916117426040519384613367565b8183526000908152838120848085015b8484106117cd57508451600086815b81518110156117be5760ff60066117908761177c8587613b88565b51816040519382858094519384920161343e565b810160028152030190200154166117aa575b600101611761565b916117b6600191613a82565b9290506117a2565b50506040928351928352820152f35b60019182916117db85613388565b8152019201920191908590611752565b3461025a57604036600319011261025a57611804613266565b6001600160a01b03166000908152600f6020526040902080546024359081101561025a576107a66107ac9161025693613292565b3461025a5760208060031936011261025a576004356001600160401b03811161025a57611869903690600401613486565b6000809261188781600094816040519382858094519384920161343e565b8101600a815203019020805461189c81613810565b916118aa6040519384613367565b8183526000908152838120848085015b84841061196a5750505050506000925b81518410156119525760c06118df8584613b88565b5101511561193f57826118f28584613b88565b5101516002811015611929576119165761190d600191613a82565b935b01926118ca565b9294611923600191613a82565b9561190f565b634e487b7160e01b600052602160045260246000fd5b929361194c600191613a82565b9461190f565b60408051918252602082018790528101859052606090f35b60019160049161197985613abf565b81520192019201919085906118ba565b3461025a57604036600319011261025a576001600160401b0360043581811161025a576119ba903690600401613486565b602491823590811161025a576119d4903690600401613486565b60005460405163cb261a0360e01b81523360048201526020946001600160a01b0392831693929186818381885afa80156111f157611a1a91600091611d7b575b5061383f565b60405191611a3960ff60048851958a81818c0198610e9981838c61343e565b611a50600160405189818a51610f6b81838b61343e565b94876040518092630286b6ab60e31b82528180611a71338c60048401613883565b03915afa80156111f157611a8c91600091611d6457506138ab565b60405187818851611a9e81838961343e565b8101600b81520301902033600052875260ff60406000205416611d205760405187818851611acd81838961343e565b8101600a815203019020549360405188818951611aeb81838a61343e565b8101600a8152030190209160405193611b038561334c565b338552898501600081526040860160008152606087019160008352608088019442865260a0890196875260c089019760018952805490600160401b8210156111295790611b559160018201815561366f565b999099611d0b575116885491816001600160601b0360a01b8416178a55516002811015611cf6576001600160a81b03199092161760a09190911b60ff60a01b16178755516004811015611ce157611bac90876137a8565b51906006821015611ccd5750898996611c028760038498611bec8e99611ccb9e99611bdc611c459a600f9f6137cc565b5160018601555160028501613943565b51151591019060ff801983541691151516179055565b60405182818a51611c1481838761343e565b8101600b8152030190203360005282526040600020600160ff19825416179055604051809381928a5192839161343e565b8101600c815203019020336000528352604060002055611c66601154613a82565b601155611c7b611c75856137f0565b916137f0565b6040519160008352600084840152600060408401524260608401527f7113f0bf6c156de91047bc1021122f5e7103953f26c0628fdc1910ea15794b5860803394a433600052526040600020613a55565b005b634e487b7160e01b60009081526021600452fd5b82634e487b7160e01b60005260216004526000fd5b85634e487b7160e01b60005260216004526000fd5b85634e487b7160e01b60005260006004526000fd5b60405162461bcd60e51b815260048101889052601c818401527f416c72656164792072657669657765642074686973207265636f7264000000006044820152606490fd5b6111e49150893d8b116111ea576111dc8183613367565b611d929150883d8a116111ea576111dc8183613367565b88611a14565b3461025a57611da636613560565b6000806040518481809651611dc1816020998a80960161343e565b8101600d81520301902060018060a01b0380941660005284526040600020805490611deb82613810565b94611df96040519687613367565b828652600091825286822090878088015b858510611e69575087600087895b8351831015611e5b5784611e2c8486613b88565b51015115611e4857611e3f600191613a82565b925b0191611e18565b9190611e55600191613a82565b91611e41565b604091858351928352820152f35b600191600291604051611e7b816132fa565b60ff8754878116835260a01c161515838201528487015460408201528152019301930192918890611e0a565b3461025a57602036600319011261025a57600435906001600160401b03821161025a57611ee060206105eb611f42943690600401613486565b81016002815203019020611ef381613388565b9160ff60018060a01b0392836001820154169360028201541690611f5a611f1c60038301613388565b9560048301549660066005850154940154946040519a8b9a610100808d528c0190613461565b9260208b015260408a015288820360608a0152613461565b94608087015260a0860152818116151560c086015260081c161515908301520390f35b3461025a57604036600319011261025a57611f96613266565b6001600160a01b0316600090815260036020526040902080546024359081101561025a576107a66107ac9161025693613292565b3461025a57611fd8366135a1565b6000546040516345ecd02f60e01b81523360048201526001600160a01b03956020959390929091908716908681602481855afa80156111f157612022916000916123585750613b45565b856040518092630286b6ab60e31b82528180612042338b60048401613883565b03915afa80156111f15761205d9160009161233b57506138ab565b8251156122f6578590612072855115156138f7565b169485156122b15733861461226c576040519060ff600685519388818189019661209d81838a61343e565b81016002815203019020015460081c1661222757604051906120be82613330565b848252868201338152604083018981526060840190888252608085019242845260a08601946000865260c087019860018a52870197600189528c8b6040518093819251809261210c9261343e565b8101600281520301902096516121229088613943565b8060018801925116916001600160601b0360a01b9283825416179055600287019251169082541617905551600384019061215b91613943565b5160048301555160058201556006019151151561218490839060ff801983541691151516179055565b51151581549060081b61ff00169061ff0019161790553360005260038352806040600020906121b291613a55565b8360005260048352806040600020906121ca91613a55565b6005546121d690613a82565b6005556121e2906137f0565b906040519060408252604082016121f891613461565b924290820152803393037f4e9b2250dc310298285671060eeb083837adb673cedb4fcff8837a53196e885f91a4005b60405162461bcd60e51b815260048101879052601960248201527f5065726d697373696f6e20616c726561647920657869737473000000000000006044820152606490fd5b60405162461bcd60e51b815260048101869052601a60248201527f43616e6e6f74207368617265207769746820796f757273656c660000000000006044820152606490fd5b60405162461bcd60e51b815260048101869052601f60248201527f526563656976657220616464726573732063616e6e6f74206265207a65726f006044820152606490fd5b60405162461bcd60e51b815260048101869052601f60248201527f5065726d697373696f6e20686173682063616e6e6f7420626520656d707479006044820152606490fd5b6123529150873d89116111ea576111dc8183613367565b88610faf565b6112a19150883d8a116111ea576111dc8183613367565b3461025a57600036600319011261025a576020600554604051908152f35b3461025a57606036600319011261025a576004356001600160401b03811161025a576123bd903690600401613486565b6123c561327c565b6123e1602060443593816040519382858094519384920161343e565b8101600d81520301902060018060a01b038092166000526020526040600020805483101561025a5760609261241591613622565b5060ff6001825492015491604051938116845260a01c16151560208301526040820152f35b3461025a5760208060031936011261025a576004356001600160401b03811161025a57816105eb61246f923690600401613486565b8101600a81520301902080549161248583613810565b926124936040519485613367565b8084528184018093600052826000206000915b8383106125745750505050604051928184019082855251809152604084019160408260051b86010193926000965b8388106124e15786860387f35b90919293948380600192603f198a8203018652885190848060a01b03825116815261251283830151848301906135fb565b61252460408301516040830190613608565b61253660608084015190830190613615565b6080808301519082015261255760a087818501519184015287830190613461565b9160c08091015115159101529701930197019690939291936124d4565b600485600192612586859a989a613abf565b8152019201920191909593956124a6565b3461025a5760206125a736613560565b90826125bc604051928381519384920161343e565b600690820190815281900383019020600201546040516001600160a01b0392831691909216148152f35b3461025a57600036600319011261025a576020600954604051908152f35b3461025a57608036600319011261025a576001600160401b0360043581811161025a57612635903690600401613486565b61263d6134dc565b6126456134ec565b9260643590811161025a5761265e903690600401613486565b9260018060a01b036000541660405163cb261a0360e01b8152336004820152602081602481855afa80156111f15761269d91600091612a80575061383f565b600160ff8416101580612a72575b6126b4906136cd565b600160ff8316101580612a64575b6126cb90613710565b600460ff8416101561192957600660ff831610156119295761270160ff600460405160208181610e998b8381519384920161343e565b61271b60016040516020818851610f6b8183858d0161343e565b9060206040518092630286b6ab60e31b8252818061273d338860048401613883565b03915afa80156111f15761275891600091612a4557506138ab565b604051602081865161276d8183858b0161343e565b8101600b8152030190203360005260205260ff60406000205416612a005760405160208186516127a08183858b0161343e565b8101600a8152030190205460405160208187516127c08183858c0161343e565b8101600a815203019020604051966127d78861334c565b338852600160208901526127f160ff871660408a01613aa7565b61280160ff861660608a01613ab3565b42608089015260a0880152600160c08801528054600160401b8110156129ea576128309160018201815561366f565b6129d45760018060a01b03875116815490806001600160601b0360a01b831617835560208901516002811015611929576001600160a81b03199092161760a09190911b60ff60a01b16178155604087015160048110156119295761289490826137a8565b606087015190600682101561192957600360c0611ccb996128b86128ea95856137cc565b608081015160018501556128d360a082015160028601613943565b0151151591019060ff801983541691151516179055565b60405160208187516128ff8183858c0161343e565b8101600b815203019020336000526020526040600020600160ff1982541617905560405160208187516129358183858c0161343e565b8101600c81520301902033600052602052604060002055612957601154613a82565b60115561299561296f612969866137f0565b926137f0565b92612988604051956001875260ff602088019116613608565b60ff604086019116613615565b4260608401527f7113f0bf6c156de91047bc1021122f5e7103953f26c0628fdc1910ea15794b5860803394a43360005260106020526040600020613a55565b634e487b7160e01b600052600060045260246000fd5b634e487b7160e01b600052604160045260246000fd5b60405162461bcd60e51b815260206004820152601c60248201527f416c72656164792072657669657765642074686973207265636f7264000000006044820152606490fd5b612a5e915060203d6020116111ea576111dc8183613367565b87610faf565b50600560ff831611156126c2565b50600360ff841611156126ab565b612a99915060203d6020116111ea576111dc8183613367565b87611a14565b3461025a57612aad366135a1565b60005460405163cb261a0360e01b81523360048201526001600160a01b03946020949390929091908616908581602481855afa80156111f157612af791600091612da4575061383f565b846040518092630286b6ab60e31b82528180612b17338a60048401613883565b03915afa80156111f157612b3291600091612d8d57506138ab565b815115612d51578490612b47845115156138f7565b16938415612d0c576040519060ff6004845193878181880196612b6b81838a61343e565b81016006815203019020015460a01c16612ccf57612cba83612c6a6040947f4420e8451168941fa9021d087369875d12307cd926ed71885aee174e86c46fda968a612cc09660048b8d612c1e8c5192612bc384613315565b8784528284019081528d8401968752612c14612c026060860194428652608087019b338d5260a088019b60018d5260405193849283925192839161343e565b81016006815203019020945185613943565b5160018401613943565b8360028301955116946001600160601b0360a01b9586825416179055516003820155019351169083541617825551151581549060ff60a01b90151560a01b169060ff60a01b1916179055565b8760005260078752612c7f8185600020613a55565b612ca7818551898181612c988c8381519384920161343e565b81016008815203019020613a55565b612cb2600954613a82565b6009556137f0565b936137f0565b938151903382524290820152a4005b60405162461bcd60e51b815260048101869052601560248201527412185cda08185b1c9958591e48185b98da1bdc9959605a1b6044820152606490fd5b60405162461bcd60e51b815260048101859052601e60248201527f5375626a6563742063616e6e6f74206265207a65726f206164647265737300006044820152606490fd5b60405162461bcd60e51b8152600481018590526014602482015273486173682063616e6e6f7420626520656d70747960601b6044820152606490fd5b612a5e9150863d88116111ea576111dc8183613367565b611d929150873d89116111ea576111dc8183613367565b3461025a57612dc936613560565b906040518181809351612de2816020968780960161343e565b8101600d81520301902060018060a01b0380931660005281526040600020805491612e0c83613810565b92612e1a6040519485613367565b8084528184018093600052826000206000915b838310612e8b575050505060405192818401908285525180915260408401929160005b828110612e5d5785850386f35b8351805188168652808301511515868401526040908101519086015260609094019392810192600101612e50565b600285600192604099979951612ea0816132fa565b60ff86548d8116835260a01c16151583820152848601546040820152815201920192019190959395612e2d565b3461025a57600036600319011261025a576000546040516001600160a01b039091168152602090f35b3461025a5760208060031936011261025a576001600160a01b03612f18613266565b16600052600f60205260406000208054612f3181613810565b91612f3f6040519384613367565b81835260208301906000526020600020936000915b838310612f69576040518061025687826134fc565b6001828192612f7789613388565b815201960192019194612f54565b3461025a57606036600319011261025a576004356001600160401b03811161025a57612fb5903690600401613486565b612fbd6134dc565b90612fc66134ec565b906040519080519160209461300186840194612fe381858861343e565b8301600681526004848960ff96879403019020015460a01c1661368b565b6040518681855161301381838a61343e565b8101600b8152030190203360005286528160406000205416156131ca5781806130a09216956001871015806131bf575b61304c906136cd565b16936001851015806131b4575b61306290613710565b6040518781865161307481838761343e565b8101600c815203019020336000528752610b56876040600020549260405180938192895192839161343e565b506130b08260038301541661375c565b805494828660a01c1660028110156119295760010361316f576004811015611929576130dc90826137a8565b600684101561192957613100816130f961314196613133946137cc565b54936137f0565b946131246040519761311789868560a81c16613608565b8801848660a81c16613608565b82604088019160b01c16613615565b606085019160b01c16613615565b4260808301527f4a326d2e0f3bd3557b127d6a5d9cf92f3b9038184c6f20da297b638bbe8bd83360a03393a3005b60405162461bcd60e51b815260048101889052601760248201527f526576696577206973206e6f74206120646973707574650000000000000000006044820152606490fd5b506005851115613059565b506003871115613043565b60405162461bcd60e51b815260048101879052602160248201527f5573657220686173206e6f20726576696577206f6e2074686973207265636f726044820152601960fa1b6064820152608490fd5b3461025a57604036600319011261025a57613232613266565b6001600160a01b0316600090815260106020526040902080546024359081101561025a576107a66107ac9161025693613292565b600435906001600160a01b038216820361025a57565b602435906001600160a01b038216820361025a57565b80548210156132aa5760005260206000200190600090565b634e487b7160e01b600052603260045260246000fd5b90600182811c921680156132f0575b60208310146132da57565b634e487b7160e01b600052602260045260246000fd5b91607f16916132cf565b606081019081106001600160401b038211176129ea57604052565b60c081019081106001600160401b038211176129ea57604052565b61010081019081106001600160401b038211176129ea57604052565b60e081019081106001600160401b038211176129ea57604052565b90601f801991011681019081106001600160401b038211176129ea57604052565b9060405191826000825461339b816132c0565b9081845260209460019160018116908160001461340b57506001146133cc575b5050506133ca92500383613367565b565b600090815285812095935091905b8183106133f35750506133ca93508201013880806133bb565b855488840185015294850194879450918301916133da565b925050506133ca94925060ff191682840152151560051b8201013880806133bb565b906129d45761343b90613388565b90565b60005b8381106134515750506000910152565b8181015183820152602001613441565b9060209161347a8151809281855285808601910161343e565b601f01601f1916010190565b81601f8201121561025a578035906001600160401b0382116129ea57604051926134ba601f8401601f191660200185613367565b8284526020838301011161025a57816000926020809301838601378301015290565b6024359060ff8216820361025a57565b6044359060ff8216820361025a57565b6020808201906020835283518092526040830192602060408460051b8301019501936000915b8483106135325750505050505090565b9091929394958480613550600193603f198682030187528a51613461565b9801930193019194939290613522565b604060031982011261025a57600435906001600160401b03821161025a5761358a91600401613486565b906024356001600160a01b038116810361025a5790565b90606060031983011261025a576001600160401b0360043581811161025a57836135cd91600401613486565b9260243591821161025a576135e491600401613486565b906044356001600160a01b038116810361025a5790565b9060028210156119295752565b9060048210156119295752565b9060068210156119295752565b80548210156132aa5760005260206000209060011b0190600090565b604060031982011261025a57600435906001600160401b03821161025a5761366891600401613486565b9060243590565b80548210156132aa5760005260206000209060021b0190600090565b1561369257565b60405162461bcd60e51b8152602060048201526013602482015272149958dbdc99081b9bdd08185b98da1bdc9959606a1b6044820152606490fd5b156136d457565b60405162461bcd60e51b81526020600482015260146024820152735365766572697479206d75737420626520312d3360601b6044820152606490fd5b1561371757565b60405162461bcd60e51b815260206004820152601760248201527f43756c706162696c697479206d75737420626520312d350000000000000000006044820152606490fd5b1561376357565b60405162461bcd60e51b815260206004820152601a60248201527f4469737075746520686173206265656e207265747261637465640000000000006044820152606490fd5b90600481101561192957815460ff60a81b191660a89190911b60ff60a81b16179055565b90600681101561192957815460ff60b01b191660b09190911b60ff60b01b16179055565b6138089060206040519282848094519384920161343e565b810103902090565b6001600160401b0381116129ea5760051b60200190565b9081602091031261025a5751801515810361025a5790565b1561384657565b60405162461bcd60e51b81526020600482015260156024820152742737ba1030903b32b934b334b2b21036b2b6b132b960591b6044820152606490fd5b9061389b602091949394604084526040840190613461565b6001600160a01b03909416910152565b156138b257565b60405162461bcd60e51b815260206004820152601860248201527f4e6f2061636365737320746f2074686973207265636f726400000000000000006044820152606490fd5b156138fe57565b60405162461bcd60e51b815260206004820152601960248201527f5265636f72642049442063616e6e6f7420626520656d707479000000000000006044820152606490fd5b91909182516001600160401b0381116129ea5761396082546132c0565b601f8111613a0b575b50602080601f83116001146139a657508192939460009261399b575b50508160011b916000199060031b1c1916179055565b015190503880613985565b90601f19831695846000526020600020926000905b8882106139f3575050836001959697106139da575b505050811b019055565b015160001960f88460031b161c191690553880806139d0565b806001859682949686015181550195019301906139bb565b6000836000526020600020601f840160051c81019260208510613a4b575b601f0160051c01915b828110613a40575050613969565b818155600101613a32565b9092508290613a29565b8054600160401b8110156129ea57613a7291600182018155613292565b9190916129d4576133ca91613943565b6000198114613a915760010190565b634e487b7160e01b600052601160045260246000fd5b60048210156119295752565b60068210156119295752565b90604051613acc8161334c565b82546001600160a01b03811682529092839160a081901c60ff1660028110156119295760c092613b2060ff80946003946020890152613b13828260a81c1660408a01613aa7565b60b01c1660608701613ab3565b60018101546080860152613b3660028201613388565b60a08601520154161515910152565b15613b4c57565b60405162461bcd60e51b81526020600482015260146024820152732737ba1030b71030b1ba34bb329036b2b6b132b960611b6044820152606490fd5b80518210156132aa5760209160051b010190565b15613ba357565b60405162461bcd60e51b815260206004820152600a60248201526927b7363c9030b236b4b760b11b6044820152606490fd5b15613bdc57565b60405162461bcd60e51b815260206004820152600f60248201526e496e76616c6964206164647265737360881b6044820152606490fd5b9190916040805191805190602093848181840194613c3281838861343e565b600b908201908152030190206001600160a01b0390961660008181529685528387205460ff1615613cde5784610f22938593610b5693613c9f975184818451613c7c81838961343e565b8101600c815203019020908b528352848a2054945193849283925192839161343e565b90810151926002841015613cca575060808101519160c060a083015192015115159060019493929190565b634e487b7160e01b81526021600452602490fd5b505081518594859485949193508201906001600160401b03821183831017613d0857528281529190565b634e487b7160e01b85526041600452602485fdfea2646970667358221220ad604f7818d08c488a3e5f05eb8dfe27a078d282de8961d9c2bc20f3a2325f9464736f6c63430008170033",
  "linkReferences": {},
  "deployedLinkReferences": {}
}