{
  "_format": "hh-sol-artifact-1",
  "contractName": "HealthRecordCore",
  "sourceName": "contracts/HealthRecordCore.sol",
  "abi": [
    {
      "inputs": [
        {
          "internalType": "address",
          "name": "_memberRoleManager",
          "type": "address"
        }
      ],
      "stateMutability": "nonpayable",
      "type": "constructor"
    },
    {
      "anonymous": false,
      "inputs": [
        {
          "indexed": true,
          "internalType": "address",
          "name": "oldAdmin",
          "type": "address"
        },
        {
          "indexed": true,
          "internalType": "address",
          "name": "newAdmin",
          "type": "address"
        },
        {
          "indexed": false,
          "internalType": "uint256",
          "name": "timestamp",
          "type": "uint256"
        }
      ],
      "name": "AdminTransferred",
      "type": "event"
    },
    {
      "anonymous": false,
      "inputs": [
        {
          "indexed": true,
          "internalType": "string",
          "name": "recordHash",
          "type": "string"
        },
        {
          "indexed": true,
          "internalType": "bytes32",
          "name": "disputerIdHash",
          "type": "bytes32"
        },
        {
          "indexed": false,
          "internalType": "enum HealthRecordCore.DisputeSeverity",
          "name": "oldSeverity",
          "type": "uint8"
        },
        {
          "indexed": false,
          "internalType": "enum HealthRecordCore.DisputeSeverity",
          "name": "newSeverity",
          "type": "uint8"
        },
        {
          "indexed": false,
          "internalType": "enum HealthRecordCore.DisputeCulpability",
          "name": "oldCulpability",
          "type": "uint8"
        },
        {
          "indexed": false,
          "internalType": "enum HealthRecordCore.DisputeCulpability",
          "name": "newCulpability",
          "type": "uint8"
        },
        {
          "indexed": false,
          "internalType": "uint256",
          "name": "timestamp",
          "type": "uint256"
        }
      ],
      "name": "DisputeModification",
      "type": "event"
    },
    {
      "anonymous": false,
      "inputs": [
        {
          "indexed": true,
          "internalType": "string",
          "name": "recordHash",
          "type": "string"
        },
        {
          "indexed": true,
          "internalType": "bytes32",
          "name": "reactorIdHash",
          "type": "bytes32"
        },
        {
          "indexed": true,
          "internalType": "bytes32",
          "name": "disputerIdHash",
          "type": "bytes32"
        },
        {
          "indexed": false,
          "internalType": "bool",
          "name": "supportsDispute",
          "type": "bool"
        },
        {
          "indexed": false,
          "internalType": "uint256",
          "name": "timestamp",
          "type": "uint256"
        }
      ],
      "name": "DisputeReaction",
      "type": "event"
    },
    {
      "anonymous": false,
      "inputs": [
        {
          "indexed": true,
          "internalType": "string",
          "name": "recordHash",
          "type": "string"
        },
        {
          "indexed": true,
          "internalType": "bytes32",
          "name": "disputerIdHash",
          "type": "bytes32"
        },
        {
          "indexed": false,
          "internalType": "uint256",
          "name": "timestamp",
          "type": "uint256"
        }
      ],
      "name": "DisputeRetracted",
      "type": "event"
    },
    {
      "anonymous": false,
      "inputs": [
        {
          "indexed": true,
          "internalType": "string",
          "name": "recordHash",
          "type": "string"
        },
        {
          "indexed": true,
          "internalType": "bytes32",
          "name": "reactorIdHash",
          "type": "bytes32"
        },
        {
          "indexed": true,
          "internalType": "bytes32",
          "name": "disputerIdHash",
          "type": "bytes32"
        },
        {
          "indexed": false,
          "internalType": "bool",
          "name": "oldSupport",
          "type": "bool"
        },
        {
          "indexed": false,
          "internalType": "bool",
          "name": "newSupport",
          "type": "bool"
        },
        {
          "indexed": false,
          "internalType": "uint256",
          "name": "timestamp",
          "type": "uint256"
        }
      ],
      "name": "ReactionModified",
      "type": "event"
    },
    {
      "anonymous": false,
      "inputs": [
        {
          "indexed": true,
          "internalType": "string",
          "name": "recordHash",
          "type": "string"
        },
        {
          "indexed": true,
          "internalType": "bytes32",
          "name": "reactorIdHash",
          "type": "bytes32"
        },
        {
          "indexed": true,
          "internalType": "bytes32",
          "name": "disputerIdHash",
          "type": "bytes32"
        },
        {
          "indexed": false,
          "internalType": "uint256",
          "name": "timestamp",
          "type": "uint256"
        }
      ],
      "name": "ReactionRetracted",
      "type": "event"
    },
    {
      "anonymous": false,
      "inputs": [
        {
          "indexed": true,
          "internalType": "string",
          "name": "recordId",
          "type": "string"
        },
        {
          "indexed": true,
          "internalType": "string",
          "name": "recordHash",
          "type": "string"
        },
        {
          "indexed": true,
          "internalType": "bytes32",
          "name": "subjectIdHash",
          "type": "bytes32"
        },
        {
          "indexed": false,
          "internalType": "uint256",
          "name": "timestamp",
          "type": "uint256"
        }
      ],
      "name": "RecordAnchored",
      "type": "event"
    },
    {
      "anonymous": false,
      "inputs": [
        {
          "indexed": true,
          "internalType": "string",
          "name": "recordHash",
          "type": "string"
        },
        {
          "indexed": true,
          "internalType": "string",
          "name": "recordId",
          "type": "string"
        },
        {
          "indexed": true,
          "internalType": "bytes32",
          "name": "disputerIdHash",
          "type": "bytes32"
        },
        {
          "indexed": false,
          "internalType": "enum HealthRecordCore.DisputeSeverity",
          "name": "severity",
          "type": "uint8"
        },
        {
          "indexed": false,
          "internalType": "enum HealthRecordCore.DisputeCulpability",
          "name": "culpability",
          "type": "uint8"
        },
        {
          "indexed": false,
          "internalType": "uint256",
          "name": "timestamp",
          "type": "uint256"
        }
      ],
      "name": "RecordDisputed",
      "type": "event"
    },
    {
      "anonymous": false,
      "inputs": [
        {
          "indexed": true,
          "internalType": "string",
          "name": "recordId",
          "type": "string"
        },
        {
          "indexed": true,
          "internalType": "string",
          "name": "newHash",
          "type": "string"
        },
        {
          "indexed": false,
          "internalType": "bytes32",
          "name": "addedBy",
          "type": "bytes32"
        },
        {
          "indexed": false,
          "internalType": "uint256",
          "name": "timestamp",
          "type": "uint256"
        }
      ],
      "name": "RecordHashAdded",
      "type": "event"
    },
    {
      "anonymous": false,
      "inputs": [
        {
          "indexed": true,
          "internalType": "string",
          "name": "recordId",
          "type": "string"
        },
        {
          "indexed": true,
          "internalType": "bytes32",
          "name": "subjectIdHash",
          "type": "bytes32"
        },
        {
          "indexed": false,
          "internalType": "uint256",
          "name": "timestamp",
          "type": "uint256"
        }
      ],
      "name": "RecordReanchored",
      "type": "event"
    },
    {
      "anonymous": false,
      "inputs": [
        {
          "indexed": true,
          "internalType": "string",
          "name": "recordId",
          "type": "string"
        },
        {
          "indexed": true,
          "internalType": "bytes32",
          "name": "subjectIdHash",
          "type": "bytes32"
        },
        {
          "indexed": false,
          "internalType": "uint256",
          "name": "timestamp",
          "type": "uint256"
        }
      ],
      "name": "RecordUnanchored",
      "type": "event"
    },
    {
      "anonymous": false,
      "inputs": [
        {
          "indexed": true,
          "internalType": "string",
          "name": "recordHash",
          "type": "string"
        },
        {
          "indexed": true,
          "internalType": "string",
          "name": "recordId",
          "type": "string"
        },
        {
          "indexed": true,
          "internalType": "bytes32",
          "name": "verifierIdHash",
          "type": "bytes32"
        },
        {
          "indexed": false,
          "internalType": "enum HealthRecordCore.VerificationLevel",
          "name": "level",
          "type": "uint8"
        },
        {
          "indexed": false,
          "internalType": "uint256",
          "name": "timestamp",
          "type": "uint256"
        }
      ],
      "name": "RecordVerified",
      "type": "event"
    },
    {
      "anonymous": false,
      "inputs": [
        {
          "indexed": true,
          "internalType": "bytes32",
          "name": "subjectIdHash",
          "type": "bytes32"
        },
        {
          "indexed": true,
          "internalType": "string",
          "name": "recordId",
          "type": "string"
        },
        {
          "indexed": true,
          "internalType": "string",
          "name": "noteHash",
          "type": "string"
        },
        {
          "indexed": false,
          "internalType": "uint256",
          "name": "flagIndex",
          "type": "uint256"
        },
        {
          "indexed": false,
          "internalType": "uint256",
          "name": "timestamp",
          "type": "uint256"
        }
      ],
      "name": "UnacceptedUpdateFlagged",
      "type": "event"
    },
    {
      "anonymous": false,
      "inputs": [
        {
          "indexed": true,
          "internalType": "bytes32",
          "name": "subjectIdHash",
          "type": "bytes32"
        },
        {
          "indexed": true,
          "internalType": "uint256",
          "name": "flagIndex",
          "type": "uint256"
        },
        {
          "indexed": false,
          "internalType": "enum HealthRecordCore.ResolutionType",
          "name": "resolution",
          "type": "uint8"
        },
        {
          "indexed": false,
          "internalType": "uint256",
          "name": "timestamp",
          "type": "uint256"
        }
      ],
      "name": "UnacceptedUpdateResolved",
      "type": "event"
    },
    {
      "anonymous": false,
      "inputs": [
        {
          "indexed": true,
          "internalType": "string",
          "name": "recordHash",
          "type": "string"
        },
        {
          "indexed": true,
          "internalType": "bytes32",
          "name": "verifierIdHash",
          "type": "bytes32"
        },
        {
          "indexed": false,
          "internalType": "enum HealthRecordCore.VerificationLevel",
          "name": "oldLevel",
          "type": "uint8"
        },
        {
          "indexed": false,
          "internalType": "enum HealthRecordCore.VerificationLevel",
          "name": "newLevel",
          "type": "uint8"
        },
        {
          "indexed": false,
          "internalType": "uint256",
          "name": "timestamp",
          "type": "uint256"
        }
      ],
      "name": "VerificationLevelModified",
      "type": "event"
    },
    {
      "anonymous": false,
      "inputs": [
        {
          "indexed": true,
          "internalType": "string",
          "name": "recordHash",
          "type": "string"
        },
        {
          "indexed": true,
          "internalType": "bytes32",
          "name": "verifierIdHash",
          "type": "bytes32"
        },
        {
          "indexed": false,
          "internalType": "uint256",
          "name": "timestamp",
          "type": "uint256"
        }
      ],
      "name": "VerificationRetracted",
      "type": "event"
    },
    {
      "inputs": [
        {
          "internalType": "bytes32",
          "name": "",
          "type": "bytes32"
        }
      ],
      "name": "activeUnacceptedFlagCount",
      "outputs": [
        {
          "internalType": "uint256",
          "name": "",
          "type": "uint256"
        }
      ],
      "stateMutability": "view",
      "type": "function"
    },
    {
      "inputs": [
        {
          "internalType": "string",
          "name": "recordId",
          "type": "string"
        },
        {
          "internalType": "string",
          "name": "newHash",
          "type": "string"
        }
      ],
      "name": "addRecordHash",
      "outputs": [],
      "stateMutability": "nonpayable",
      "type": "function"
    },
    {
      "inputs": [],
      "name": "admin",
      "outputs": [
        {
          "internalType": "address",
          "name": "",
          "type": "address"
        }
      ],
      "stateMutability": "view",
      "type": "function"
    },
    {
      "inputs": [
        {
          "internalType": "string",
          "name": "recordId",
          "type": "string"
        },
        {
          "internalType": "string",
          "name": "recordHash",
          "type": "string"
        }
      ],
      "name": "anchorRecord",
      "outputs": [],
      "stateMutability": "nonpayable",
      "type": "function"
    },
    {
      "inputs": [
        {
          "internalType": "string",
          "name": "",
          "type": "string"
        },
        {
          "internalType": "bytes32",
          "name": "",
          "type": "bytes32"
        }
      ],
      "name": "disputeIndex",
      "outputs": [
        {
          "internalType": "uint256",
          "name": "",
          "type": "uint256"
        }
      ],
      "stateMutability": "view",
      "type": "function"
    },
    {
      "inputs": [
        {
          "internalType": "string",
          "name": "",
          "type": "string"
        },
        {
          "internalType": "bytes32",
          "name": "",
          "type": "bytes32"
        },
        {
          "internalType": "uint256",
          "name": "",
          "type": "uint256"
        }
      ],
      "name": "disputeReactions",
      "outputs": [
        {
          "internalType": "bytes32",
          "name": "reactorIdHash",
          "type": "bytes32"
        },
        {
          "internalType": "bool",
          "name": "supportsDispute",
          "type": "bool"
        },
        {
          "internalType": "uint256",
          "name": "timestamp",
          "type": "uint256"
        },
        {
          "internalType": "bool",
          "name": "isActive",
          "type": "bool"
        }
      ],
      "stateMutability": "view",
      "type": "function"
    },
    {
      "inputs": [
        {
          "internalType": "string",
          "name": "recordId",
          "type": "string"
        },
        {
          "internalType": "string",
          "name": "recordHash",
          "type": "string"
        },
        {
          "internalType": "uint8",
          "name": "severity",
          "type": "uint8"
        },
        {
          "internalType": "uint8",
          "name": "culpability",
          "type": "uint8"
        },
        {
          "internalType": "string",
          "name": "notes",
          "type": "string"
        }
      ],
      "name": "disputeRecord",
      "outputs": [],
      "stateMutability": "nonpayable",
      "type": "function"
    },
    {
      "inputs": [
        {
          "internalType": "string",
          "name": "",
          "type": "string"
        },
        {
          "internalType": "uint256",
          "name": "",
          "type": "uint256"
        }
      ],
      "name": "disputes",
      "outputs": [
        {
          "internalType": "bytes32",
          "name": "disputerIdHash",
          "type": "bytes32"
        },
        {
          "internalType": "string",
          "name": "recordId",
          "type": "string"
        },
        {
          "internalType": "enum HealthRecordCore.DisputeSeverity",
          "name": "severity",
          "type": "uint8"
        },
        {
          "internalType": "enum HealthRecordCore.DisputeCulpability",
          "name": "culpability",
          "type": "uint8"
        },
        {
          "internalType": "string",
          "name": "notes",
          "type": "string"
        },
        {
          "internalType": "uint256",
          "name": "createdAt",
          "type": "uint256"
        },
        {
          "internalType": "bool",
          "name": "isActive",
          "type": "bool"
        }
      ],
      "stateMutability": "view",
      "type": "function"
    },
    {
      "inputs": [
        {
          "internalType": "bytes32",
          "name": "",
          "type": "bytes32"
        },
        {
          "internalType": "uint256",
          "name": "",
          "type": "uint256"
        }
      ],
      "name": "disputesByUser",
      "outputs": [
        {
          "internalType": "string",
          "name": "",
          "type": "string"
        }
      ],
      "stateMutability": "view",
      "type": "function"
    },
    {
      "inputs": [
        {
          "internalType": "string",
          "name": "recordHash",
          "type": "string"
        }
      ],
      "name": "doesHashExist",
      "outputs": [
        {
          "internalType": "bool",
          "name": "",
          "type": "bool"
        }
      ],
      "stateMutability": "view",
      "type": "function"
    },
    {
      "inputs": [
        {
          "internalType": "bytes32",
          "name": "subjectIdHash",
          "type": "bytes32"
        },
        {
          "internalType": "string",
          "name": "recordId",
          "type": "string"
        },
        {
          "internalType": "string",
          "name": "noteHash",
          "type": "string"
        }
      ],
      "name": "flagUnacceptedUpdate",
      "outputs": [],
      "stateMutability": "nonpayable",
      "type": "function"
    },
    {
      "inputs": [
        {
          "internalType": "string",
          "name": "recordId",
          "type": "string"
        }
      ],
      "name": "getActiveRecordSubjects",
      "outputs": [
        {
          "internalType": "bytes32[]",
          "name": "",
          "type": "bytes32[]"
        }
      ],
      "stateMutability": "view",
      "type": "function"
    },
    {
      "inputs": [
        {
          "internalType": "bytes32",
          "name": "subjectIdHash",
          "type": "bytes32"
        }
      ],
      "name": "getActiveUnacceptedFlagCount",
      "outputs": [
        {
          "internalType": "uint256",
          "name": "",
          "type": "uint256"
        }
      ],
      "stateMutability": "view",
      "type": "function"
    },
    {
      "inputs": [
        {
          "internalType": "string",
          "name": "recordHash",
          "type": "string"
        },
        {
          "internalType": "bytes32",
          "name": "disputerIdHash",
          "type": "bytes32"
        }
      ],
      "name": "getDisputeReactions",
      "outputs": [
        {
          "components": [
            {
              "internalType": "bytes32",
              "name": "reactorIdHash",
              "type": "bytes32"
            },
            {
              "internalType": "bool",
              "name": "supportsDispute",
              "type": "bool"
            },
            {
              "internalType": "uint256",
              "name": "timestamp",
              "type": "uint256"
            },
            {
              "internalType": "bool",
              "name": "isActive",
              "type": "bool"
            }
          ],
          "internalType": "struct HealthRecordCore.Reaction[]",
          "name": "",
          "type": "tuple[]"
        }
      ],
      "stateMutability": "view",
      "type": "function"
    },
    {
      "inputs": [
        {
          "internalType": "string",
          "name": "recordHash",
          "type": "string"
        }
      ],
      "name": "getDisputeStats",
      "outputs": [
        {
          "internalType": "uint256",
          "name": "total",
          "type": "uint256"
        },
        {
          "internalType": "uint256",
          "name": "active",
          "type": "uint256"
        }
      ],
      "stateMutability": "view",
      "type": "function"
    },
    {
      "inputs": [
        {
          "internalType": "string",
          "name": "recordHash",
          "type": "string"
        }
      ],
      "name": "getDisputeStatsBySeverity",
      "outputs": [
        {
          "internalType": "uint256",
          "name": "total",
          "type": "uint256"
        },
        {
          "internalType": "uint256",
          "name": "active",
          "type": "uint256"
        },
        {
          "internalType": "uint256",
          "name": "negligibleCount",
          "type": "uint256"
        },
        {
          "internalType": "uint256",
          "name": "moderateCount",
          "type": "uint256"
        },
        {
          "internalType": "uint256",
          "name": "majorCount",
          "type": "uint256"
        }
      ],
      "stateMutability": "view",
      "type": "function"
    },
    {
      "inputs": [
        {
          "internalType": "string",
          "name": "recordHash",
          "type": "string"
        }
      ],
      "name": "getDisputes",
      "outputs": [
        {
          "components": [
            {
              "internalType": "bytes32",
              "name": "disputerIdHash",
              "type": "bytes32"
            },
            {
              "internalType": "string",
              "name": "recordId",
              "type": "string"
            },
            {
              "internalType": "enum HealthRecordCore.DisputeSeverity",
              "name": "severity",
              "type": "uint8"
            },
            {
              "internalType": "enum HealthRecordCore.DisputeCulpability",
              "name": "culpability",
              "type": "uint8"
            },
            {
              "internalType": "string",
              "name": "notes",
              "type": "string"
            },
            {
              "internalType": "uint256",
              "name": "createdAt",
              "type": "uint256"
            },
            {
              "internalType": "bool",
              "name": "isActive",
              "type": "bool"
            }
          ],
          "internalType": "struct HealthRecordCore.Dispute[]",
          "name": "",
          "type": "tuple[]"
        }
      ],
      "stateMutability": "view",
      "type": "function"
    },
    {
      "inputs": [
        {
          "internalType": "string",
          "name": "recordHash",
          "type": "string"
        },
        {
          "internalType": "bytes32",
          "name": "disputerIdHash",
          "type": "bytes32"
        }
      ],
      "name": "getReactionStats",
      "outputs": [
        {
          "internalType": "uint256",
          "name": "totalReactions",
          "type": "uint256"
        },
        {
          "internalType": "uint256",
          "name": "activeSupports",
          "type": "uint256"
        },
        {
          "internalType": "uint256",
          "name": "activeOpposes",
          "type": "uint256"
        }
      ],
      "stateMutability": "view",
      "type": "function"
    },
    {
      "inputs": [
        {
          "internalType": "string",
          "name": "recordHash",
          "type": "string"
        }
      ],
      "name": "getRecordHashReviewSummary",
      "outputs": [
        {
          "internalType": "uint256",
          "name": "activeVerifications",
          "type": "uint256"
        },
        {
          "internalType": "uint256",
          "name": "activeDisputes",
          "type": "uint256"
        },
        {
          "internalType": "uint256",
          "name": "verificationCount",
          "type": "uint256"
        },
        {
          "internalType": "uint256",
          "name": "disputeCount",
          "type": "uint256"
        }
      ],
      "stateMutability": "view",
      "type": "function"
    },
    {
      "inputs": [
        {
          "internalType": "string",
          "name": "recordHash",
          "type": "string"
        }
      ],
      "name": "getRecordIdForHash",
      "outputs": [
        {
          "internalType": "string",
          "name": "",
          "type": "string"
        }
      ],
      "stateMutability": "view",
      "type": "function"
    },
    {
      "inputs": [
        {
          "internalType": "string",
          "name": "recordId",
          "type": "string"
        }
      ],
      "name": "getRecordSubjects",
      "outputs": [
        {
          "internalType": "bytes32[]",
          "name": "",
          "type": "bytes32[]"
        }
      ],
      "stateMutability": "view",
      "type": "function"
    },
    {
      "inputs": [
        {
          "internalType": "string",
          "name": "recordId",
          "type": "string"
        }
      ],
      "name": "getRecordVersionHistory",
      "outputs": [
        {
          "internalType": "string[]",
          "name": "",
          "type": "string[]"
        }
      ],
      "stateMutability": "view",
      "type": "function"
    },
    {
      "inputs": [
        {
          "internalType": "bytes32",
          "name": "userIdHash",
          "type": "bytes32"
        }
      ],
      "name": "getSubjectMedicalHistory",
      "outputs": [
        {
          "internalType": "string[]",
          "name": "",
          "type": "string[]"
        }
      ],
      "stateMutability": "view",
      "type": "function"
    },
    {
      "inputs": [
        {
          "internalType": "string",
          "name": "recordId",
          "type": "string"
        }
      ],
      "name": "getSubjectStats",
      "outputs": [
        {
          "internalType": "uint256",
          "name": "total",
          "type": "uint256"
        },
        {
          "internalType": "uint256",
          "name": "active",
          "type": "uint256"
        }
      ],
      "stateMutability": "view",
      "type": "function"
    },
    {
      "inputs": [],
      "name": "getTotalAnchoredRecords",
      "outputs": [
        {
          "internalType": "uint256",
          "name": "",
          "type": "uint256"
        }
      ],
      "stateMutability": "view",
      "type": "function"
    },
    {
      "inputs": [],
      "name": "getTotalReviewStats",
      "outputs": [
        {
          "internalType": "uint256",
          "name": "verificationCount",
          "type": "uint256"
        },
        {
          "internalType": "uint256",
          "name": "disputeCount",
          "type": "uint256"
        }
      ],
      "stateMutability": "view",
      "type": "function"
    },
    {
      "inputs": [],
      "name": "getTotalUnacceptedFlagStats",
      "outputs": [
        {
          "internalType": "uint256",
          "name": "",
          "type": "uint256"
        }
      ],
      "stateMutability": "view",
      "type": "function"
    },
    {
      "inputs": [
        {
          "internalType": "bytes32",
          "name": "subjectIdHash",
          "type": "bytes32"
        },
        {
          "internalType": "uint256",
          "name": "flagIndex",
          "type": "uint256"
        }
      ],
      "name": "getUnacceptedUpdateFlag",
      "outputs": [
        {
          "internalType": "string",
          "name": "recordId",
          "type": "string"
        },
        {
          "internalType": "string",
          "name": "noteHash",
          "type": "string"
        },
        {
          "internalType": "uint256",
          "name": "createdAt",
          "type": "uint256"
        },
        {
          "internalType": "enum HealthRecordCore.ResolutionType",
          "name": "resolution",
          "type": "uint8"
        },
        {
          "internalType": "uint256",
          "name": "resolvedAt",
          "type": "uint256"
        },
        {
          "internalType": "bool",
          "name": "isActive",
          "type": "bool"
        }
      ],
      "stateMutability": "view",
      "type": "function"
    },
    {
      "inputs": [
        {
          "internalType": "bytes32",
          "name": "subjectIdHash",
          "type": "bytes32"
        }
      ],
      "name": "getUnacceptedUpdateFlags",
      "outputs": [
        {
          "components": [
            {
              "internalType": "string",
              "name": "recordId",
              "type": "string"
            },
            {
              "internalType": "string",
              "name": "noteHash",
              "type": "string"
            },
            {
              "internalType": "uint256",
              "name": "createdAt",
              "type": "uint256"
            },
            {
              "internalType": "enum HealthRecordCore.ResolutionType",
              "name": "resolution",
              "type": "uint8"
            },
            {
              "internalType": "uint256",
              "name": "resolvedAt",
              "type": "uint256"
            },
            {
              "internalType": "bool",
              "name": "isActive",
              "type": "bool"
            }
          ],
          "internalType": "struct HealthRecordCore.UnacceptedUpdateFlag[]",
          "name": "",
          "type": "tuple[]"
        }
      ],
      "stateMutability": "view",
      "type": "function"
    },
    {
      "inputs": [
        {
          "internalType": "string",
          "name": "recordHash",
          "type": "string"
        },
        {
          "internalType": "bytes32",
          "name": "userIdHash",
          "type": "bytes32"
        }
      ],
      "name": "getUserDispute",
      "outputs": [
        {
          "internalType": "bool",
          "name": "exists",
          "type": "bool"
        },
        {
          "internalType": "string",
          "name": "recordId",
          "type": "string"
        },
        {
          "internalType": "enum HealthRecordCore.DisputeSeverity",
          "name": "severity",
          "type": "uint8"
        },
        {
          "internalType": "enum HealthRecordCore.DisputeCulpability",
          "name": "culpability",
          "type": "uint8"
        },
        {
          "internalType": "string",
          "name": "notes",
          "type": "string"
        },
        {
          "internalType": "uint256",
          "name": "createdAt",
          "type": "uint256"
        },
        {
          "internalType": "bool",
          "name": "isActive",
          "type": "bool"
        }
      ],
      "stateMutability": "view",
      "type": "function"
    },
    {
      "inputs": [
        {
          "internalType": "bytes32",
          "name": "userIdHash",
          "type": "bytes32"
        }
      ],
      "name": "getUserDisputes",
      "outputs": [
        {
          "internalType": "string[]",
          "name": "",
          "type": "string[]"
        }
      ],
      "stateMutability": "view",
      "type": "function"
    },
    {
      "inputs": [
        {
          "internalType": "string",
          "name": "recordHash",
          "type": "string"
        },
        {
          "internalType": "bytes32",
          "name": "disputerIdHash",
          "type": "bytes32"
        },
        {
          "internalType": "bytes32",
          "name": "reactorIdHash",
          "type": "bytes32"
        }
      ],
      "name": "getUserReaction",
      "outputs": [
        {
          "internalType": "bool",
          "name": "exists",
          "type": "bool"
        },
        {
          "internalType": "bool",
          "name": "supportsDispute",
          "type": "bool"
        },
        {
          "internalType": "uint256",
          "name": "timestamp",
          "type": "uint256"
        },
        {
          "internalType": "bool",
          "name": "isActive",
          "type": "bool"
        }
      ],
      "stateMutability": "view",
      "type": "function"
    },
    {
      "inputs": [
        {
          "internalType": "bytes32",
          "name": "userIdHash",
          "type": "bytes32"
        }
      ],
      "name": "getUserReviewHistory",
      "outputs": [
        {
          "internalType": "uint256",
          "name": "userVerifications",
          "type": "uint256"
        },
        {
          "internalType": "uint256",
          "name": "userDisputes",
          "type": "uint256"
        }
      ],
      "stateMutability": "view",
      "type": "function"
    },
    {
      "inputs": [
        {
          "internalType": "string",
          "name": "recordHash",
          "type": "string"
        },
        {
          "internalType": "bytes32",
          "name": "userIdHash",
          "type": "bytes32"
        }
      ],
      "name": "getUserVerification",
      "outputs": [
        {
          "internalType": "bool",
          "name": "exists",
          "type": "bool"
        },
        {
          "internalType": "string",
          "name": "recordId",
          "type": "string"
        },
        {
          "internalType": "enum HealthRecordCore.VerificationLevel",
          "name": "level",
          "type": "uint8"
        },
        {
          "internalType": "uint256",
          "name": "createdAt",
          "type": "uint256"
        },
        {
          "internalType": "bool",
          "name": "isActive",
          "type": "bool"
        }
      ],
      "stateMutability": "view",
      "type": "function"
    },
    {
      "inputs": [
        {
          "internalType": "bytes32",
          "name": "userIdHash",
          "type": "bytes32"
        }
      ],
      "name": "getUserVerifications",
      "outputs": [
        {
          "internalType": "string[]",
          "name": "",
          "type": "string[]"
        }
      ],
      "stateMutability": "view",
      "type": "function"
    },
    {
      "inputs": [
        {
          "internalType": "string",
          "name": "recordHash",
          "type": "string"
        }
      ],
      "name": "getVerificationStats",
      "outputs": [
        {
          "internalType": "uint256",
          "name": "total",
          "type": "uint256"
        },
        {
          "internalType": "uint256",
          "name": "active",
          "type": "uint256"
        }
      ],
      "stateMutability": "view",
      "type": "function"
    },
    {
      "inputs": [
        {
          "internalType": "string",
          "name": "recordHash",
          "type": "string"
        }
      ],
      "name": "getVerificationStatsByLevel",
      "outputs": [
        {
          "internalType": "uint256",
          "name": "total",
          "type": "uint256"
        },
        {
          "internalType": "uint256",
          "name": "active",
          "type": "uint256"
        },
        {
          "internalType": "uint256",
          "name": "provenanceCount",
          "type": "uint256"
        },
        {
          "internalType": "uint256",
          "name": "contentCount",
          "type": "uint256"
        },
        {
          "internalType": "uint256",
          "name": "fullCount",
          "type": "uint256"
        }
      ],
      "stateMutability": "view",
      "type": "function"
    },
    {
      "inputs": [
        {
          "internalType": "string",
          "name": "recordHash",
          "type": "string"
        }
      ],
      "name": "getVerifications",
      "outputs": [
        {
          "components": [
            {
              "internalType": "bytes32",
              "name": "verifierIdHash",
              "type": "bytes32"
            },
            {
              "internalType": "string",
              "name": "recordId",
              "type": "string"
            },
            {
              "internalType": "enum HealthRecordCore.VerificationLevel",
              "name": "level",
              "type": "uint8"
            },
            {
              "internalType": "uint256",
              "name": "createdAt",
              "type": "uint256"
            },
            {
              "internalType": "bool",
              "name": "isActive",
              "type": "bool"
            }
          ],
          "internalType": "struct HealthRecordCore.Verification[]",
          "name": "",
          "type": "tuple[]"
        }
      ],
      "stateMutability": "view",
      "type": "function"
    },
    {
      "inputs": [
        {
          "internalType": "string",
          "name": "recordId",
          "type": "string"
        }
      ],
      "name": "getVersionCount",
      "outputs": [
        {
          "internalType": "uint256",
          "name": "",
          "type": "uint256"
        }
      ],
      "stateMutability": "view",
      "type": "function"
    },
    {
      "inputs": [
        {
          "internalType": "bytes32",
          "name": "subjectIdHash",
          "type": "bytes32"
        }
      ],
      "name": "hasActiveUnacceptedFlags",
      "outputs": [
        {
          "internalType": "bool",
          "name": "",
          "type": "bool"
        }
      ],
      "stateMutability": "view",
      "type": "function"
    },
    {
      "inputs": [
        {
          "internalType": "string",
          "name": "",
          "type": "string"
        },
        {
          "internalType": "bytes32",
          "name": "",
          "type": "bytes32"
        }
      ],
      "name": "hasDisputed",
      "outputs": [
        {
          "internalType": "bool",
          "name": "",
          "type": "bool"
        }
      ],
      "stateMutability": "view",
      "type": "function"
    },
    {
      "inputs": [
        {
          "internalType": "string",
          "name": "",
          "type": "string"
        },
        {
          "internalType": "bytes32",
          "name": "",
          "type": "bytes32"
        },
        {
          "internalType": "bytes32",
          "name": "",
          "type": "bytes32"
        }
      ],
      "name": "hasReactedToDispute",
      "outputs": [
        {
          "internalType": "bool",
          "name": "",
          "type": "bool"
        }
      ],
      "stateMutability": "view",
      "type": "function"
    },
    {
      "inputs": [
        {
          "internalType": "string",
          "name": "recordHash",
          "type": "string"
        },
        {
          "internalType": "bytes32",
          "name": "userIdHash",
          "type": "bytes32"
        }
      ],
      "name": "hasUserDisputed",
      "outputs": [
        {
          "internalType": "bool",
          "name": "",
          "type": "bool"
        }
      ],
      "stateMutability": "view",
      "type": "function"
    },
    {
      "inputs": [
        {
          "internalType": "string",
          "name": "recordHash",
          "type": "string"
        },
        {
          "internalType": "bytes32",
          "name": "disputerIdHash",
          "type": "bytes32"
        },
        {
          "internalType": "bytes32",
          "name": "reactorIdHash",
          "type": "bytes32"
        }
      ],
      "name": "hasUserReacted",
      "outputs": [
        {
          "internalType": "bool",
          "name": "",
          "type": "bool"
        }
      ],
      "stateMutability": "view",
      "type": "function"
    },
    {
      "inputs": [
        {
          "internalType": "string",
          "name": "recordHash",
          "type": "string"
        },
        {
          "internalType": "bytes32",
          "name": "userIdHash",
          "type": "bytes32"
        }
      ],
      "name": "hasUserVerified",
      "outputs": [
        {
          "internalType": "bool",
          "name": "",
          "type": "bool"
        }
      ],
      "stateMutability": "view",
      "type": "function"
    },
    {
      "inputs": [
        {
          "internalType": "string",
          "name": "",
          "type": "string"
        },
        {
          "internalType": "bytes32",
          "name": "",
          "type": "bytes32"
        }
      ],
      "name": "hasVerified",
      "outputs": [
        {
          "internalType": "bool",
          "name": "",
          "type": "bool"
        }
      ],
      "stateMutability": "view",
      "type": "function"
    },
    {
      "inputs": [
        {
          "internalType": "string",
          "name": "",
          "type": "string"
        }
      ],
      "name": "hashExists",
      "outputs": [
        {
          "internalType": "bool",
          "name": "",
          "type": "bool"
        }
      ],
      "stateMutability": "view",
      "type": "function"
    },
    {
      "inputs": [
        {
          "internalType": "string",
          "name": "recordId",
          "type": "string"
        },
        {
          "internalType": "bytes32",
          "name": "userIdHash",
          "type": "bytes32"
        }
      ],
      "name": "isActiveSubject",
      "outputs": [
        {
          "internalType": "bool",
          "name": "",
          "type": "bool"
        }
      ],
      "stateMutability": "view",
      "type": "function"
    },
    {
      "inputs": [
        {
          "internalType": "string",
          "name": "recordId",
          "type": "string"
        },
        {
          "internalType": "bytes32",
          "name": "userIdHash",
          "type": "bytes32"
        }
      ],
      "name": "isSubject",
      "outputs": [
        {
          "internalType": "bool",
          "name": "",
          "type": "bool"
        }
      ],
      "stateMutability": "view",
      "type": "function"
    },
    {
      "inputs": [
        {
          "internalType": "string",
          "name": "",
          "type": "string"
        },
        {
          "internalType": "bytes32",
          "name": "",
          "type": "bytes32"
        }
      ],
      "name": "isSubjectActive",
      "outputs": [
        {
          "internalType": "bool",
          "name": "",
          "type": "bool"
        }
      ],
      "stateMutability": "view",
      "type": "function"
    },
    {
      "inputs": [
        {
          "internalType": "string",
          "name": "",
          "type": "string"
        },
        {
          "internalType": "bytes32",
          "name": "",
          "type": "bytes32"
        }
      ],
      "name": "isSubjectOfRecord",
      "outputs": [
        {
          "internalType": "bool",
          "name": "",
          "type": "bool"
        }
      ],
      "stateMutability": "view",
      "type": "function"
    },
    {
      "inputs": [],
      "name": "memberRoleManager",
      "outputs": [
        {
          "internalType": "contract MemberRoleManagerInterface",
          "name": "",
          "type": "address"
        }
      ],
      "stateMutability": "view",
      "type": "function"
    },
    {
      "inputs": [
        {
          "internalType": "string",
          "name": "recordHash",
          "type": "string"
        },
        {
          "internalType": "uint8",
          "name": "newSeverity",
          "type": "uint8"
        },
        {
          "internalType": "uint8",
          "name": "newCulpability",
          "type": "uint8"
        }
      ],
      "name": "modifyDispute",
      "outputs": [],
      "stateMutability": "nonpayable",
      "type": "function"
    },
    {
      "inputs": [
        {
          "internalType": "string",
          "name": "recordHash",
          "type": "string"
        },
        {
          "internalType": "bytes32",
          "name": "disputerIdHash",
          "type": "bytes32"
        },
        {
          "internalType": "bool",
          "name": "newSupport",
          "type": "bool"
        }
      ],
      "name": "modifyReaction",
      "outputs": [],
      "stateMutability": "nonpayable",
      "type": "function"
    },
    {
      "inputs": [
        {
          "internalType": "string",
          "name": "recordHash",
          "type": "string"
        },
        {
          "internalType": "uint8",
          "name": "newLevel",
          "type": "uint8"
        }
      ],
      "name": "modifyVerificationLevel",
      "outputs": [],
      "stateMutability": "nonpayable",
      "type": "function"
    },
    {
      "inputs": [
        {
          "internalType": "string",
          "name": "recordHash",
          "type": "string"
        },
        {
          "internalType": "bytes32",
          "name": "disputerIdHash",
          "type": "bytes32"
        },
        {
          "internalType": "bool",
          "name": "supportsDispute",
          "type": "bool"
        }
      ],
      "name": "reactToDispute",
      "outputs": [],
      "stateMutability": "nonpayable",
      "type": "function"
    },
    {
      "inputs": [
        {
          "internalType": "string",
          "name": "",
          "type": "string"
        },
        {
          "internalType": "bytes32",
          "name": "",
          "type": "bytes32"
        },
        {
          "internalType": "bytes32",
          "name": "",
          "type": "bytes32"
        }
      ],
      "name": "reactionIndex",
      "outputs": [
        {
          "internalType": "uint256",
          "name": "",
          "type": "uint256"
        }
      ],
      "stateMutability": "view",
      "type": "function"
    },
    {
      "inputs": [
        {
          "internalType": "string",
          "name": "recordId",
          "type": "string"
        }
      ],
      "name": "reanchorRecord",
      "outputs": [],
      "stateMutability": "nonpayable",
      "type": "function"
    },
    {
      "inputs": [
        {
          "internalType": "string",
          "name": "",
          "type": "string"
        }
      ],
      "name": "recordIdForHash",
      "outputs": [
        {
          "internalType": "string",
          "name": "",
          "type": "string"
        }
      ],
      "stateMutability": "view",
      "type": "function"
    },
    {
      "inputs": [
        {
          "internalType": "string",
          "name": "",
          "type": "string"
        },
        {
          "internalType": "uint256",
          "name": "",
          "type": "uint256"
        }
      ],
      "name": "recordSubjects",
      "outputs": [
        {
          "internalType": "bytes32",
          "name": "",
          "type": "bytes32"
        }
      ],
      "stateMutability": "view",
      "type": "function"
    },
    {
      "inputs": [
        {
          "internalType": "string",
          "name": "",
          "type": "string"
        },
        {
          "internalType": "uint256",
          "name": "",
          "type": "uint256"
        }
      ],
      "name": "recordVersionHistory",
      "outputs": [
        {
          "internalType": "string",
          "name": "",
          "type": "string"
        }
      ],
      "stateMutability": "view",
      "type": "function"
    },
    {
      "inputs": [
        {
          "internalType": "bytes32",
          "name": "subjectIdHash",
          "type": "bytes32"
        },
        {
          "internalType": "uint256",
          "name": "flagIndex",
          "type": "uint256"
        },
        {
          "internalType": "enum HealthRecordCore.ResolutionType",
          "name": "resolution",
          "type": "uint8"
        }
      ],
      "name": "resolveUnacceptedUpdate",
      "outputs": [],
      "stateMutability": "nonpayable",
      "type": "function"
    },
    {
      "inputs": [
        {
          "internalType": "string",
          "name": "recordHash",
          "type": "string"
        }
      ],
      "name": "retractDispute",
      "outputs": [],
      "stateMutability": "nonpayable",
      "type": "function"
    },
    {
      "inputs": [
        {
          "internalType": "string",
          "name": "recordHash",
          "type": "string"
        },
        {
          "internalType": "bytes32",
          "name": "disputerIdHash",
          "type": "bytes32"
        }
      ],
      "name": "retractReaction",
      "outputs": [],
      "stateMutability": "nonpayable",
      "type": "function"
    },
    {
      "inputs": [
        {
          "internalType": "string",
          "name": "recordHash",
          "type": "string"
        }
      ],
      "name": "retractVerification",
      "outputs": [],
      "stateMutability": "nonpayable",
      "type": "function"
    },
    {
      "inputs": [
        {
          "internalType": "address",
          "name": "_memberRoleManager",
          "type": "address"
        }
      ],
      "name": "setMemberRoleManager",
      "outputs": [],
      "stateMutability": "nonpayable",
      "type": "function"
    },
    {
      "inputs": [
        {
          "internalType": "bytes32",
          "name": "",
          "type": "bytes32"
        },
        {
          "internalType": "uint256",
          "name": "",
          "type": "uint256"
        }
      ],
      "name": "subjectMedicalHistory",
      "outputs": [
        {
          "internalType": "string",
          "name": "",
          "type": "string"
        }
      ],
      "stateMutability": "view",
      "type": "function"
    },
    {
      "inputs": [],
      "name": "totalAnchoredRecords",
      "outputs": [
        {
          "internalType": "uint256",
          "name": "",
          "type": "uint256"
        }
      ],
      "stateMutability": "view",
      "type": "function"
    },
    {
      "inputs": [],
      "name": "totalDisputes",
      "outputs": [
        {
          "internalType": "uint256",
          "name": "",
          "type": "uint256"
        }
      ],
      "stateMutability": "view",
      "type": "function"
    },
    {
      "inputs": [],
      "name": "totalUnacceptedFlags",
      "outputs": [
        {
          "internalType": "uint256",
          "name": "",
          "type": "uint256"
        }
      ],
      "stateMutability": "view",
      "type": "function"
    },
    {
      "inputs": [],
      "name": "totalVerifications",
      "outputs": [
        {
          "internalType": "uint256",
          "name": "",
          "type": "uint256"
        }
      ],
      "stateMutability": "view",
      "type": "function"
    },
    {
      "inputs": [
        {
          "internalType": "address",
          "name": "newAdmin",
          "type": "address"
        }
      ],
      "name": "transferAdmin",
      "outputs": [],
      "stateMutability": "nonpayable",
      "type": "function"
    },
    {
      "inputs": [
        {
          "internalType": "bytes32",
          "name": "",
          "type": "bytes32"
        },
        {
          "internalType": "uint256",
          "name": "",
          "type": "uint256"
        }
      ],
      "name": "unacceptedUpdateFlags",
      "outputs": [
        {
          "internalType": "string",
          "name": "recordId",
          "type": "string"
        },
        {
          "internalType": "string",
          "name": "noteHash",
          "type": "string"
        },
        {
          "internalType": "uint256",
          "name": "createdAt",
          "type": "uint256"
        },
        {
          "internalType": "enum HealthRecordCore.ResolutionType",
          "name": "resolution",
          "type": "uint8"
        },
        {
          "internalType": "uint256",
          "name": "resolvedAt",
          "type": "uint256"
        },
        {
          "internalType": "bool",
          "name": "isActive",
          "type": "bool"
        }
      ],
      "stateMutability": "view",
      "type": "function"
    },
    {
      "inputs": [
        {
          "internalType": "string",
          "name": "recordId",
          "type": "string"
        }
      ],
      "name": "unanchorRecord",
      "outputs": [],
      "stateMutability": "nonpayable",
      "type": "function"
    },
    {
      "inputs": [
        {
          "internalType": "string",
          "name": "",
          "type": "string"
        },
        {
          "internalType": "bytes32",
          "name": "",
          "type": "bytes32"
        }
      ],
      "name": "verificationIndex",
      "outputs": [
        {
          "internalType": "uint256",
          "name": "",
          "type": "uint256"
        }
      ],
      "stateMutability": "view",
      "type": "function"
    },
    {
      "inputs": [
        {
          "internalType": "string",
          "name": "",
          "type": "string"
        },
        {
          "internalType": "uint256",
          "name": "",
          "type": "uint256"
        }
      ],
      "name": "verifications",
      "outputs": [
        {
          "internalType": "bytes32",
          "name": "verifierIdHash",
          "type": "bytes32"
        },
        {
          "internalType": "string",
          "name": "recordId",
          "type": "string"
        },
        {
          "internalType": "enum HealthRecordCore.VerificationLevel",
          "name": "level",
          "type": "uint8"
        },
        {
          "internalType": "uint256",
          "name": "createdAt",
          "type": "uint256"
        },
        {
          "internalType": "bool",
          "name": "isActive",
          "type": "bool"
        }
      ],
      "stateMutability": "view",
      "type": "function"
    },
    {
      "inputs": [
        {
          "internalType": "bytes32",
          "name": "",
          "type": "bytes32"
        },
        {
          "internalType": "uint256",
          "name": "",
          "type": "uint256"
        }
      ],
      "name": "verificationsByUser",
      "outputs": [
        {
          "internalType": "string",
          "name": "",
          "type": "string"
        }
      ],
      "stateMutability": "view",
      "type": "function"
    },
    {
      "inputs": [
        {
          "internalType": "string",
          "name": "recordId",
          "type": "string"
        },
        {
          "internalType": "string",
          "name": "recordHash",
          "type": "string"
        },
        {
          "internalType": "uint8",
          "name": "level",
          "type": "uint8"
        }
      ],
      "name": "verifyRecord",
      "outputs": [],
      "stateMutability": "nonpayable",
      "type": "function"
    }
  ],
  "bytecode": "0x608034620000d857601f62005b4338819003918201601f19168301916001600160401b03831184841017620000dd57808492602094604052833981010312620000d857516001600160a01b03811690819003620000d8578015620000895760018060a01b03199081600054161760005533906001541617600155604051615a4f9081620000f48239f35b60405162461bcd60e51b815260206004820152602160248201527f496e76616c6964204d656d626572526f6c654d616e61676572206164647265736044820152607360f81b6064820152608490fd5b600080fd5b634e487b7160e01b600052604160045260246000fdfe6080604052600436101561001257600080fd5b60e0600035811c9081623297e41461144057816301b4147d1461165157816305f5943914611dab5781630fbab50a146148b257816310a0e88a146148eb57816313bf57f4146148b2578163153707031461488957816319bfe5f2146148505781631a6b3d2a146148175781631aacda881461468a5781631b7cabb71461457a5781631cf8cbe8146114225781631e59607a146145555781631ec50c0e1461451e57816321d9caaa14614458578163223c3bb91461440f578163249dda2e146111dc57816325db354d146143db5781632a4e0476146142265781632cb2c1e9146140845781632e6df69814613fd55781632fa8db0414613ea1578163315ca5ba14613e08578163339a0aec14613d2157816335c4c20314613ac9578163365348e914613a7f5781633f132dc114613841578163400f8d06146137ad5781634294e2ff146135ec5781634b7c908a146134665781635203cbed1461308f578163533acffd14612beb5781635a18672e1461297a5781635d12da50146129465781635d28a342146129185781636018200d14612822578163629be2b6146126c75781636eb7457f146126325781637286b6f91461252257816375829def146124a457816382953131146122d8578163883080af14611ef95781638da1d36914611e675781638e3ccbcf14611e0c5781639871e51014611dab57816398909e2214610d71578163a5f2d1d114611af9578163ac90c14014611adb578163ac92433614611241578163adcee10214611aa5578163b0c7363c14611a65578163b27bb4d514611a2f578163b48ac4d2146117a9578163b5e6b7a214611759578163c18cf8d2146116e8578163c282f4ab146116a8578163c5e4ccc41461168a578163c6bd157214611651578163c7695bab146115d0578163ca1e910a1461150f57508063d08c800d1461148e578063d411ff2814611440578063d46e082f14611422578063d4f7a4651461125f578063d5ba54e714611241578063d5be300114611208578063dbc7b842146111dc578063dd0bc0821461117e578063e08f1ac3146110f9578063e2aae6e014610dce578063e3de756314610d71578063f251f8e414610c47578063f3ac2bea14610bb6578063f5e7f9f414610acd578063f7c0d033146108f6578063f851a440146108cd578063f9f70c4a146108965763fd328f581461037857600080fd5b346108155760a0366003190112610815576001600160401b03600435818111610815576103a9903690600401614c00565b906024918235828111610815576103c4903690600401614c00565b6103cc614cba565b906064359360ff8516850361081557608435908111610815576103f3903690600401614c00565b6000546040516345ecd02f60e01b81523360048201526001600160a01b03909116906020818981855afa80156108225761043591600091610877575b50615437565b604051630286b6ab60e31b81529060208280610455338a6004840161547a565b0381845afa908115610822576104776020928a9460009161084a575b506154a2565b61048387511515615693565b61048f855115156156df565b600160ff871610158061083c575b6104a690615053565b600160ff891610158061082e575b6104bd90615096565b60405162b0c80960e01b815233600482015298899182905afa968715610822576000976107e9575b506104f18715156150e2565b60405160208185516105068183858a01614c87565b8101600e8152030190208760005260205260ff604060002054166107a55760405160208185516105398183858a01614c87565b8101600d8152030190205491604051602081865161055a8183858b01614c87565b8101600d8152030190209161057160ff8716614cef565b600660ff89161015610767576040519161058a83614ba9565b898352602083019388855260408401906105a660ff8a16614cef565b60ff8916825260608501926105be60ff8d168561539d565b60808601524260a0860152600160c0860152805490600160401b82101561079057906105ef91600182018155615037565b95909561077b579061060c61061f92865188555160018801615527565b5161061681614cef565b60028601615172565b5190600682101561076757506060947f1e9fc3a602c7b16a7098c5ba783b4f9d40508e6aa83fc4a05853c485261f12bc96946106a285600560c061073c9761067061073698600261075e9c0161518a565b610681608082015160038601615527565b60a081015160048501550151151591019060ff801983541691151516179055565b60405160208184516106b78183858901614c87565b8101600e8152030190208b6000526020526040600020600160ff1982541617905560405160208184516106ed8183858901614c87565b8101600f8152030190208b600052602052604060002055601660205261071781604060002061576b565b61072260185461538e565b60185561073160ff8616614cef565b6151a9565b956151a9565b9560ff6040519361074e828216614cef565b16835260ff602084019116614f27565b426040820152a4005b634e487b7160e01b60009081526021600452fd5b83634e487b7160e01b60005260006004526000fd5b84634e487b7160e01b60005260416004526000fd5b606490601a6040519162461bcd60e51b8352602060048401528201527f416c7265616479206469737075746564207468697320686173680000000000006044820152fd5b9096506020813d60201161081a575b8161080560209383614bdf565b81010312610815575195386104e5565b600080fd5b3d91506107f8565b6040513d6000823e3d90fd5b50600560ff891611156104b4565b50600360ff8716111561049d565b61086a9150843d8611610870575b6108628183614bdf565b81019061541f565b38610471565b503d610858565b610890915060203d602011610870576108628183614bdf565b3861042f565b346108155760806108af6108a936615002565b91615941565b91604051931515845215156020840152604083015215156060820152f35b34610815576000366003190112610815576001546040516001600160a01b039091168152602090f35b346108155760208060031936011261081557600435906001600160401b0382116108155761092a6024923690600401614c00565b60005460405162b0c80960e01b815233600482015293839185919082906001600160a01b03165afa92831561082257600093610a9e575b5061096d8315156150e2565b604051815190838181850193610984818387614c87565b8101600b81520301902084600052835260ff6040600020541615610a59577f94748c1a380e215f3ba9de3f49d5c0a47c8bff6c16301f5f153e2429032722f0916004610a40610a4f93604051878186516109df818387614c87565b8101600c815203019020886000528752610a178760406000205492610a2f60ff87610a26878b87604051809251610a1781838c614c87565b8101600a815203019020614fe6565b500154166152e8565b604051809381928951928391614c87565b5001805460ff191690556151a9565b91604051428152a3005b60405162461bcd60e51b815260048101849052601a60248201527f4e6f20766572696669636174696f6e20746f20726574726163740000000000006044820152606490fd5b9092508181813d8311610ac6575b610ab68183614bdf565b8101031261081557519183610961565b503d610aac565b3461081557610adb36614c56565b6040518281809451610af38160209788809601614c87565b810160108152030190209060005281526040600020908154610b1481615328565b90610b226040519283614bdf565b8082528282018094600052836000206000915b838310610b995760408051878152865181890181905289928201908960005b828110610b615784840385f35b855180518552808301511515858401526040808201519086015260609081015115159085015294810194608090930192600101610b54565b600486600192610ba88561533f565b815201920192019190610b35565b3461081557610bc436614c56565b90604051918151926020938185809381870193610be2818387614c87565b8101600381520301902083600052825260ff604060002054169384610c0e575b82856040519015158152f35b610c25939450604051938492839251928391614c87565b8101600581520301902090600052815260ff6040600020541682828180610c02565b34610815576020806003193601126108155760043560005260138152604060002090815491610c7583615328565b92610c836040519485614bdf565b8084528284018092600052836000206000915b838310610d4e5750505050604051918083019381845251809452604083019360408160051b85010192916000955b828710610cd15785850386f35b909192938280600192603f19898203018552875190610d0c610cfc60c0845190808552840190614cca565b8484015183820386850152614cca565b9160408101516040830152610d2960608083015190840190614f4a565b6080808201519083015260a08091015115159101529601920196019592919092610cc4565b600686600192610d60859a999a615798565b815201920192019190959495610c96565b3461081557610d9c6020610d8436615002565b93918360409492945193828580945193849201614c87565b8101601181520301902090600052602052604060002090600052602052602060ff604060002054166040519015158152f35b3461081557610ddc36614fa3565b6000546040516345ecd02f60e01b815233600482015260209360249290916001600160a01b039091169085818581855afa801561082257610e24916000916110dc5750615437565b60405163a0ca13c360e01b8152858180610e4233876004840161547a565b0381855afa908115610822576000916110bf575b50156110855783511561104a5760405190825191868181860194610e7b818388614c87565b810160028152030190205415611010576040519060ff8651928881818a0195610ea5818389614c87565b810160088152030190205416610fd65786906040519586809262b0c80960e01b82523360048301525afa9384156108225786928691600096610f9f575b5093610f7184610f9194610f61610f8b95610f527f60d9fff893391026daade2734b45ecb2fb8ae1f0187ea2b39018ee8bdc94390a9b9960409b610f42898e51848180610f338c8b51928391614c87565b81016006815203019020615527565b8c51809381928b51928391614c87565b8101600781520301902061576b565b8751809381928c51928391614c87565b81016008815203019020600160ff198254161790556151a9565b946151a9565b9482519182524290820152a3005b955092905084813d8311610fcf575b610fb88183614bdf565b810103126108155792519285918590610f71610ee2565b503d610fae565b60405162461bcd60e51b815260048101889052601381870152724861736820616c72656164792065786973747360681b6044820152606490fd5b60405162461bcd60e51b81526004810187905260138186015272149958dbdc99081b9bdd08185b98da1bdc9959606a1b6044820152606490fd5b60405162461bcd60e51b81526004810186905260148185015273486173682063616e6e6f7420626520656d70747960601b6044820152606490fd5b60405162461bcd60e51b8152600481018690526013818501527227b7363c9037bbb732b91037b91030b236b4b760691b6044820152606490fd5b6110d69150863d8811610870576108628183614bdf565b86610e56565b6110f39150873d8911610870576108628183614bdf565b8761042f565b34610815576020806003193601126108155760043560005260156020526040600020805461112681615328565b916111346040519384614bdf565b81835260208301906000526020600020936000915b838310611162576040518061115e8782614e85565b0390f35b600182819261117089614d61565b815201960192019194611149565b34610815576020366003190112610815576004356001600160a01b0381811691829003610815576111b4906001541633146154ee565b6111bf811515615800565b6bffffffffffffffffffffffff60a01b6000541617600055600080f35b346108155760203660031901126108155760043560005260146020526020604060002054604051908152f35b34610815576020366003190112610815576004356000526015602052604080600020546016602052816000205482519182526020820152f35b34610815576000366003190112610815576020601954604051908152f35b3461081557602080600319360112610815576004356001600160401b03811161081557611290903690600401614c00565b9060008091604051818551918181818901946112ad818388614c87565b8101600a8152030190209586546112c381615328565b976112d1604051998a614bdf565b8189526000908152838120848a015b8383106113fd57505050509161130192604051938492839251928391614c87565b8101600d81520301902092835461131781615328565b946113256040519687614bdf565b8186526000908152838120848088015b8484106113de57505050505084519084519460005b875181101561138357608061135f828a61537a565b51015161136f575b60010161134a565b9461137b60019161538e565b959050611367565b50848660005b83518110156113c25760c061139e828661537a565b5101516113ae575b600101611389565b936113ba60019161538e565b9490506113a6565b6080838388888b60405194855284015260408301526060820152f35b6001916006916113ed856153a9565b8152019201920191908590611335565b81929394956005916114106001946151c9565b815201920192019091869493926112e0565b34610815576000366003190112610815576020600954604051908152f35b3461081557602061146861145336614c56565b92908160405193828580945193849201614c87565b8101600e81520301902090600052602052602060ff604060002054166040519015158152f35b3461081557602080600319360112610815576004356000526016602052604060002080546114bb81615328565b916114c96040519384614bdf565b81835260208301906000526020600020936000915b8383106114f3576040518061115e8782614e85565b600182819261150189614d61565b8152019601920191946114de565b3461081557602061152261145336614c56565b8101600d8152030190209081548110156108155761153f91615037565b5080549061154f60018201614d61565b6115bf600283015460ff8116906115b261156b60038701614d61565b9161159360ff600560048a015499015416966040519a8b9a8b528060208c01528a0190614cca565b9361159d81614cef565b604089015260ff606089019160081c16614f27565b8582036080870152614cca565b9160a0840152151560c08301520390f35b3461081557602080600319360112610815576004356000526004602052604060002080546115fd81615328565b9161160b6040519384614bdf565b81835260208301906000526020600020936000915b838310611635576040518061115e8782614e85565b600182819261164389614d61565b815201960192019194611620565b3461081557602061166461145336614c56565b8101600381520301902090600052602052602060ff604060002054166040519015158152f35b34610815576000366003190112610815576020601854604051908152f35b346108155760206116bb61145336614c56565b810160028152030190208054821015610815576020916116da91614cf9565b90546040519160031b1c8152f35b34610815576116f636614f34565b90600052601360205260406000209081548110156108155761171791615037565b5061172181614d61565b61115e61173060018401614d61565b9260028101549060ff60038201541660ff60056004840154930154169260405196879687614f57565b346108155761176736614f34565b90600052601560205260406000209081548110156108155761178f6117959161115e93614cf9565b90614e06565b604051918291602083526020830190614cca565b3461081557602080600319360112610815576004356001600160401b038111610815576117da903690600401614c00565b6000546040516345ecd02f60e01b81523360048201526001600160a01b039091169291908281602481875afa80156108225761181d91600091611a125750615437565b604051630286b6ab60e31b81529282848061183c33866004840161547a565b0381845afa9081156108225761185d84926024966000916119f557506154a2565b60405162b0c80960e01b815233600482015294859182905afa928315610822576000936119c6575b506118918315156150e2565b6040518151908381818501936118a8818387614c87565b8101600381520301902084600052835260ff604060002054161561198b57604051838184516118d8818387614c87565b8101600581520301902084600052835260ff60406000205416611955577f08f30cbe91e0ca2a9f89c7c4a38baaa3fdd002bf05e8d40e1ca69945d06a49019161193084610a4f93604051809381928651928391614c87565b810160058152030190208560005284526040600020600160ff198254161790556151a9565b60405162461bcd60e51b815260048101849052600e60248201526d416c72656164792061637469766560901b6044820152606490fd5b60405162461bcd60e51b815260048101849052601360248201527215d85cc81b995d995c8818481cdd589a9958dd606a1b6044820152606490fd5b9092508181813d83116119ee575b6119de8183614bdf565b8101031261081557519183611885565b503d6119d4565b611a0c9150843d8611610870576108628183614bdf565b87610471565b611a299150843d8611610870576108628183614bdf565b8561042f565b3461081557611a3d36614f34565b90600052600460205260406000209081548110156108155761178f6117959161115e93614cf9565b3461081557611a786020610d8436615002565b81016012815203019020906000526020526040600020906000526020526020604060002054604051908152f35b3461081557611ab336614f34565b90600052601660205260406000209081548110156108155761178f6117959161115e93614cf9565b34610815576000366003190112610815576020601754604051908152f35b34610815576040366003190112610815576004356001600160401b03811161081557611b29903690600401614c00565b60ff611b33614caa565b1690600182101580611da0575b611b499061572b565b60005460405162b0c80960e01b815233600482015292602092918390859060249082906001600160a01b03165afa93841561082257600094611d71575b50611b928415156150e2565b604051825190848181860193611ba9818387614c87565b8101600b81520301902085600052845260ff6040600020541615611d2c57611c099060405185818651611bdd818387614c87565b8101600c815203019020866000528552610a178560406000205492604051809381928951928391614c87565b5060ff60048201541615611ce7576002019160ff83541692611c2a83614cef565b611c3383614cef565b611c3c84614cef565b828414611cad5791611c887f334f52bdf9b484290889b34fb83ad64bff4dd1b7028a24d048a3a85537b53ff99492611c7f83606096611c7a82614cef565b615172565b61073183614cef565b9460405192611c9681614cef565b8352611ca182614cef565b820152426040820152a3005b60405162461bcd60e51b8152600481018690526012602482015271105b1c9958591e481d1a1a5cc81b195d995b60721b6044820152606490fd5b60405162461bcd60e51b815260048101859052601f60248201527f566572696669636174696f6e20686173206265656e20726574726163746564006044820152606490fd5b60405162461bcd60e51b815260048101859052601960248201527f4e6f20766572696669636174696f6e20746f206d6f64696679000000000000006044820152606490fd5b9093508281813d8311611d99575b611d898183614bdf565b8101031261081557519284611b86565b503d611d7f565b506003821115611b40565b34610815576020366003190112610815576004356001600160401b0381116108155760ff611df66020611de381943690600401614c00565b8160405193828580945193849201614c87565b8101600881520301902054166040519015158152f35b34610815576115b2611e4e6115bf611e2c611e2636614c56565b9061583e565b969598929193946040989198519a8b9a15158b528060208c01528a0190614cca565b93611e5881614cef565b60408901526060880190614f27565b34610815576020611e7a61145336614c56565b8101600a81520301902090815481101561081557611e9791614fe6565b508054611ea660018301614d61565b9160ff6002820154169060ff600460038301549201541690611eda604051958695865260a0602087015260a0860190614cca565b92611ee481614cef565b60408501526060840152151560808301520390f35b3461081557611f0736614fa3565b6000546040516345ecd02f60e01b81523360048201526001600160a01b0390911692602092918381602481885afa801561082257611f4c916000916122bb5750615437565b604051630286b6ab60e31b815293838580611f6b33866004840161547a565b0381845afa90811561082257611f8c859260249760009161229e57506154a2565b611f9883511515615693565b611fa4845115156156df565b60405162b0c80960e01b815233600482015295869182905afa9384156108225760009461226f575b50611fd88415156150e2565b60405190805191848181840194611ff0818388614c87565b8101600381520301902085600052845260ff6040600020541661221a576040518481835161201f818388614c87565b81016002815203019020541561215c575b60405184818351612042818388614c87565b8101600281520301902090815490600160401b821015612146577f1cdc47600aa970e2d8c3bfa9885daefc5e052ea8a6a10471ab3dbbc77ad2138d936120948361213c95600161213696018155614cf9565b81549060031b908a821b91600019901b1916179055604051878184516120bb818387614c87565b810160038152030190208860005287526120f38760406000209260ff1993600185825416179055604051809381928751928391614c87565b8101600581520301902088600052875260016040600020918254161790556004865261212381604060002061576b565b61212e60095461538e565b6009556151a9565b926151a9565b92604051428152a4005b634e487b7160e01b600052604160045260246000fd5b60405160ff845191868181880194612175818388614c87565b8101600881520301902054166121e157846121c7916121a08460405184818a51610f33818389614c87565b6121b68660405184818851610f5281838d614c87565b604051809381928851928391614c87565b81016008815203019020600160ff19825416179055612030565b60405162461bcd60e51b815260048101869052601160248201527012185cda08185b1c9958591e481d5cd959607a1b6044820152606490fd5b60405162461bcd60e51b815260048101859052602760248201527f5265636f726420616c726561647920616e63686f72656420746f2074686973206044820152661cdd589a9958dd60ca1b6064820152608490fd5b9093508281813d8311612297575b6122878183614bdf565b8101031261081557519284611fcc565b503d61227d565b6122b59150843d8611610870576108628183614bdf565b88610471565b6122d29150853d8711610870576108628183614bdf565b8661042f565b3461081557602080600319360112610815576004356001600160401b03811161081557612309903690600401614c00565b9060009160008061232a846000948160405193828580945193849201614c87565b8101600a81520301902080549061234082615328565b9561234e6040519788614bdf565b82875260009182528082208188015b84841061248757505050505083519360005b815181101561245d576080612384828461537a565b510151612394575b60010161236f565b929561239f9061538e565b95600160406123ae868561537a565b5101516123ba81614cef565b6123c381614cef565b036123dc576123d360019161538e565b935b905061238c565b9291600260406123ec858561537a565b5101516123f881614cef565b61240181614cef565b036124175761241160019161538e565b926123d5565b9160036040612426838561537a565b51015161243281614cef565b61243b81614cef565b14612449575b6001906123d5565b9361245560019161538e565b949050612441565b5050604080519485526020850195909552938301526060820192909252608081019190915260a090f35b600583600192612496856151c9565b81520192019301929061235d565b34610815576020366003190112610815576004356001600160a01b038181169182900361081557816001549182166124dd8133146154ee565b6124e8821515615800565b7f38df5fa0f7fef0d515ca1f5388cb5790ac5885d5fca8d05d9f943e563c33a4b36020604051428152a36001600160a01b03191617600155005b3461081557602080600319360112610815576004356001600160401b03811161081557612553903690600401614c00565b600060405182519084818186019361256c818387614c87565b8101600281520301902090604051808387829554938481520190600052876000209260005b8982821061261c575050506125a892500383614bdf565b81519360005b835181101561260d57604051878184516125c9818389614c87565b810160058152030190206125dd828661537a565b51600052875260ff604060002054166125f9575b6001016125ae565b9361260560019161538e565b9490506125f1565b60408686898351928352820152f35b8554845260019586019588955093019201612591565b346108155761267861267261264636614f34565b908060005260136020526126606040600020548310615651565b60005260136020526040600020615037565b50615798565b8051602082015191604081015160608201519160058310156126b15761115e9260a0608083015192015115159260405196879687614f57565b634e487b7160e01b600052602160045260246000fd5b3461081557602080600319360112610815576004356001600160401b0381116108155781611de36126fc923690600401614c00565b8101600d81520301902080549161271283615328565b926127206040519485614bdf565b8084528184018093600052826000206000915b8383106127ff5750505050604051928184019082855251809152604084019160408260051b86010193926000965b83881061276e5786860387f35b90919293948380600192603f198a8203018652885190815181526127d86127a084840151888685015288840190614cca565b60408401516127ae81614cef565b60408401526127c560608086015190850190614f27565b6080808501519084830390850152614cca565b9160a0808201519083015260c0809101511515910152970193019701969093929193612761565b600685600192612811859a989a6153a9565b815201920192019190959395612733565b3461081557602080600319360112610815576004356001600160401b03811161081557612853903690600401614c00565b9061286e816000938160405193828580945193849201614c87565b8101600d81520301902091825461288481615328565b936128926040519586614bdf565b8185526000908152838120848087015b8484106128f957878287825160005b84518110156128ea5760c06128c6828761537a565b5101516128d6575b6001016128b1565b916128e260019161538e565b9290506128ce565b50906040928351928352820152f35b600191600691612908856153a9565b81520192019201919085906128a2565b3461081557602036600319011261081557600435600052601460205260206040600020541515604051908152f35b3461081557602061295961145336614c56565b8101600c815203019020906000526020526020604060002054604051908152f35b346108155761298836614ee9565b60005460405162b0c80960e01b8152336004820152929360209290918390859060249082906001600160a01b03165afa93841561082257600094612bbc575b506129d38415156150e2565b6040518251908481818601936129ea818387614c87565b81016011815203019020866000528452604060002085600052845260ff6040600020541615612b7f57612a7a9060405185818651612a29818387614c87565b810160128152030190208760005285526040600020866000528552612a608560406000205492604051809381928951928391614c87565b810160108152030190208760005285526040600020614e69565b509160ff60038401541615612b3a57600183019260ff8454169280151593151594848614612b00579260609492612ae2612aed937f83316b3299ea5a7386901a45e5d604103b0c75a2d3ff829a25e4a6d645c6b7f398969060ff801983541691151516179055565b6002429101556151a9565b94604051928352820152426040820152a4005b60405162461bcd60e51b8152600481018890526012602482015271416c726561647920746869732076616c756560701b6044820152606490fd5b60405162461bcd60e51b815260048101859052601b60248201527f5265616374696f6e20686173206265656e2072657472616374656400000000006044820152606490fd5b60405162461bcd60e51b81526004810185905260156024820152744e6f207265616374696f6e20746f206d6f6469667960581b6044820152606490fd5b9093508281813d8311612be4575b612bd48183614bdf565b81010312610815575192856129c7565b503d612bca565b3461081557612bf936614ee9565b6000546040516345ecd02f60e01b81523360048201529293602493602093926001600160a01b03169084818781855afa801561082257612c40916000916130725750615437565b60405190825191858181860194612c58818388614c87565b8101600e81520301902087600052855260ff604060002054161561302e5790612cf79160405186818651612c8d818388614c87565b8101600f8152030190208860005286526040600020549086612cdb6001612cd485612cc585898c604051938492839251928391614c87565b8101600d815203019020615037565b5001614d61565b60405180968192630286b6ab60e31b835233906004840161547a565b0381845afa90811561082257612d1788928a9660009161301157506154a2565b60405162b0c80960e01b815233600482015298899182905afa96871561082257600097612fe2575b50612d4b8715156150e2565b878714612fa05760405186818651612d64818388614c87565b81016011815203019020886000528652604060002087600052865260ff60406000205416612f6a5760ff6005612da9612db2936040518a818a51612cc581838c614c87565b50015416615126565b60405185818551612dc4818387614c87565b810160108152030190208760005285526040600020549160405186818651612ded818388614c87565b810160108152030190208860005286526040600020604051612e0e81614b8e565b888152878101961515968781526040820191428352606081019360018552805490600160401b821015612f555790612e4b91600182018155614e69565b959095612f41575094612ec56040989560037fa63d8144c55fb5ca0cbcbeeea8e1b365cc113f4ab5aab289db2285d783e6b7669b9996612f0f96612ea98f97612f339c518655511515600186019060ff801983541691151516179055565b51600284015551151591019060ff801983541691151516179055565b875182818751612ed6818387614c87565b810160118152030190208c6000528252876000208b600052825287600020600160ff198254161790558751809381928751928391614c87565b810160128152030190208960005287528460002088600052875284600020556151a9565b9382519182524290820152a4005b634e487b7160e01b60005260006004526000fd5b86634e487b7160e01b60005260416004526000fd5b60405162461bcd60e51b815260048101879052600f818501526e105b1c9958591e481c995858dd1959608a1b6044820152606490fd5b606483876040519162461bcd60e51b83528160048401528201527f43616e6e6f7420726561637420746f20796f7572206f776e20646973707574656044820152fd5b9096508581813d831161300a575b612ffa8183614bdf565b8101031261081557519588612d3f565b503d612ff0565b6130289150843d8611610870576108628183614bdf565b8c610471565b60405162461bcd60e51b8152600481018690526019818801527f4e6f20646973707574652066726f6d20746869732075736572000000000000006044820152606490fd5b6130899150863d8811610870576108628183614bdf565b8861042f565b34610815576060366003190112610815576001600160401b03600435818111610815576130c0903690600401614c00565b6024918235908111610815576130da903690600401614c00565b906130e3614cba565b6000546040516345ecd02f60e01b81523360048201526020946001600160a01b03909216929085818881875afa8015610822576131279160009161344f5750615437565b604051630286b6ab60e31b815285818061314533896004840161547a565b0381875afa801561082257879261316760ff92899460009161343257506154a2565b61317387511515615693565b61317f855115156156df565b1693600185101580613427575b6131959061572b565b60405162b0c80960e01b815233600482015297889182905afa958615610822576000966133f8575b506131c98615156150e2565b6040518251908681818601936131e0818387614c87565b8101600b81520301902087600052865260ff604060002054166133b4576040518681855161320f818387614c87565b8101600a81520301902054916040518781865161322d818388614c87565b8101600a81520301902061324086614cef565b60405161324c81614b73565b898152888101888152604082019061326389614cef565b8882526060830192428452608081019460018652805490600160401b82101561339f579061329691600182018155614fe6565b969096612f4157509561330b610f8b96600460409b978f95976132ef7f5ddcec906a8edfb96c9cf15f08c0fe50115a5547ef76ab3a944ed41acf127d019f9d999861060c61334b9a6133889f5188555160018801615527565b51600384015551151591019060ff801983541691151516179055565b88518281875161331c818387614c87565b8101600b8152030190208d600052825288600020600160ff198254161790558851809381928751928391614c87565b8101600c8152030190208a6000528952856000205560158852613371818660002061576b565b61337c60175461538e565b60175561073184614cef565b9482519161339581614cef565b82524290820152a4005b87634e487b7160e01b60005260416004526000fd5b60405162461bcd60e51b815260048101879052601a818401527f416c7265616479207665726966696564207468697320686173680000000000006044820152606490fd5b9095508481813d8311613420575b6134108183614bdf565b81010312610815575194866131bd565b503d613406565b50600385111561318c565b6134499150853d8711610870576108628183614bdf565b8b610471565b6130899150873d8911610870576108628183614bdf565b346108155760603660031901126108155760243560043560443560058110156108155761349e60018060a01b036001541633146154ee565b816000526020601381526134b86040600020548510615651565b81156135a85782600052601381526134d4846040600020615037565b50600581019060ff8254161561356b576134f18460038301615639565b60044291015560ff19815416905582600052601481526040600020918254918215613555577fd27cfed75349d7c1712793c75b771f2a7dd4689406c4d8fdc93b4194b422eb359360409360001901905561354d83518093614f4a565b4290820152a3005b634e487b7160e01b600052601160045260246000fd5b60405162461bcd60e51b8152600481018490526015602482015274119b1859c8185b1c9958591e481c995cdbdb1d9959605a1b6044820152606490fd5b6064906040519062461bcd60e51b82526004820152601c60248201527f4d7573742070726f76696465207265736f6c7574696f6e2074797065000000006044820152fd5b34610815576135fa36614c56565b60005460405162b0c80960e01b815233600482015291926020918290849060249082906001600160a01b03165afa9283156108225760009361377e575b506136438315156150e2565b60405181519083818185019361365a818387614c87565b81016011815203019020856000528352604060002084600052835260ff6040600020541615613740577fbe97907321aa6637529c6e0bd464af27ddb95fadc266661a0a9c0b693acaa2ba916003610a4061373693604051878186516136c0818387614c87565b81016012815203019020896000528752604060002088600052875261371c8760406000205492604051828189516136f8818387614c87565b810160108152030190208c6000528252610a2f60ff87610a26876040600020614e69565b810160108152030190208960005287526040600020614e69565b91604051428152a4005b60405162461bcd60e51b8152600481018490526016602482015275139bc81c995858dd1a5bdb881d1bc81c995d1c9858dd60521b6044820152606490fd5b9092508181813d83116137a6575b6137968183614bdf565b8101031261081557519184613637565b503d61378c565b3461081557602080600319360112610815576004356001600160401b0381116108155781611de36137e2923690600401614c00565b8101600281520301902090604051908181845491828152019360005281600020916000905b82821061382a5761115e8561381e81890382614bdf565b60405191829182614e2d565b835486529485019460019384019390910190613807565b346108155760603660031901126108155760246001600160401b03600435823582811161081557613876903690600401614c00565b916044359081116108155761388f903690600401614c00565b916138a560018060a01b036001541633146154ee565b8115613a3b578251156139f757816000526013602052604060002093845494604051916138d183614b58565b83835260208301908682526040840142815260608501906000825260808601936000855260a087019560018752600160401b8c1015610790578b61391a91600182018155615037565b9790976139e2579061393061393a925189615527565b5160018801615527565b516002860155519060058210156107675750936139a78460056139d395610f8b9561398b7fdc620035e382d2354e94af4ee86406f06a6bc23c13499543d7ad5ee77af524049a600360409b01615639565b51600484015551151591019060ff801983541691151516179055565b856000526014602052836000206139be815461538e565b90556139cb60195461538e565b6019556151a9565b948151908152426020820152a4005b84634e487b7160e01b60005260006004526000fd5b60405162461bcd60e51b8152602060048201526019818601527f4e6f746520686173682063616e6e6f7420626520656d707479000000000000006044820152606490fd5b60405162461bcd60e51b815260206004820152601f818601527f5375626a65637420494420686173682063616e6e6f7420626520656d707479006044820152606490fd5b34610815576020366003190112610815576004356001600160401b03811161081557611795613aba6020611de361115e943690600401614c00565b81016006815203019020614d61565b3461081557602080600319360112610815576004356001600160401b03811161081557613afa903690600401614c00565b6000546040516345ecd02f60e01b81523360048201526001600160a01b039091169291908281602481875afa801561082257613b3d91600091611a125750615437565b604051630286b6ab60e31b815292828480613b5c33866004840161547a565b0381845afa90811561082257613b7d84926024966000916119f557506154a2565b60405162b0c80960e01b815233600482015294859182905afa92831561082257600093613cf2575b50613bb18315156150e2565b604051815190838181850193613bc8818387614c87565b8101600381520301902084600052835260ff6040600020541615613cad5760405183818451613bf8818387614c87565b8101600581520301902084600052835260ff6040600020541615613c73577f6394e07ba017d68c6017a8d8fd8ade9c44dd70fd18b290e2d74db2b691ac99fb91613c5184610a4f93604051809381928651928391614c87565b81016005815203019020856000528452604060002060ff1981541690556151a9565b60405162461bcd60e51b8152600481018490526012602482015271105b1c9958591e481d5b985b98da1bdc995960721b6044820152606490fd5b60405162461bcd60e51b815260048101849052601c60248201527f4e6f742061207375626a656374206f662074686973207265636f7264000000006044820152606490fd5b9092508181813d8311613d1a575b613d0a8183614bdf565b8101031261081557519183613ba5565b503d613d00565b3461081557602080600319360112610815576004356001600160401b03811161081557613d52903690600401614c00565b90613d6d816000938160405193828580945193849201614c87565b8101600a815203019020918254613d8381615328565b93613d916040519586614bdf565b8185526000908152838120848087015b848410613de957878287825160005b84518110156128ea576080613dc5828761537a565b510151613dd5575b600101613db0565b91613de160019161538e565b929050613dcd565b600191600591613df8856151c9565b8152019201920191908590613da1565b3461081557602080600319360112610815576004356001600160401b0381116108155781611de3613e3d923690600401614c00565b810160078152030190208054613e5281615328565b91613e606040519384614bdf565b8183526000908152838120938084015b838310613e85576040518061115e8782614e85565b6001828192613e9389614d61565b815201960192019194613e70565b3461081557602080600319360112610815576004356001600160401b0381116108155781611de3613ed6923690600401614c00565b8101600a81520301902090815491613eed83615328565b92613efb6040519485614bdf565b8084528284018092600052836000206000915b838310613fb25750505050604051918083019381845251809452604083019360408160051b85010192916000955b828710613f495785850386f35b909192938280600192603f19898203018552875190613f7960a08351835284840151908086850152830190614cca565b916040810151613f8881614cef565b60408301526060808201519083015260808091015115159101529601920196019592919092613f3c565b600586600192613fc4859a999a6151c9565b815201920192019190959495613f0e565b34610815576060366003190112610815576004356001600160401b03811161081557614005903690600401614c00565b6140216020604435928160405193828580945193849201614c87565b81016010815203019020602435600052602052604060002080548210156108155760809161404e91614e69565b5080549060ff6001820154169060ff60036002830154920154169160405193845215156020840152604083015215156060820152f35b3461081557602080600319360112610815576004356001600160401b038111610815576140b5903690600401614c00565b906000916000806140d6846000948160405193828580945193849201614c87565b8101600d8152030190208054906140ec82615328565b956140fa6040519788614bdf565b82875260009182528082208188015b84841061420957505050505083519360005b815181101561245d5760c0614130828461537a565b510151614140575b60010161411b565b929561414b9061538e565b956001604061415a868561537a565b51015161416681614cef565b61416f81614cef565b036141885761417f60019161538e565b935b9050614138565b929160026040614198858561537a565b5101516141a481614cef565b6141ad81614cef565b036141c3576141bd60019161538e565b92614181565b91600360406141d2838561537a565b5101516141de81614cef565b6141e781614cef565b146141f5575b600190614181565b9361420160019161538e565b9490506141ed565b600683600192614218856153a9565b815201920193019290614109565b3461081557602080600319360112610815576004356001600160401b03811161081557614257903690600401614c00565b9060405190825191818181860194614270818388614c87565b81016002815203019020604051808284829454938481520190600052846000209260005b868282106143c5575050506142ab92500382614bdf565b60009160005b825181101561431057604051828188516142cc81838b614c87565b810160058152030190206142e0828561537a565b51600052825260ff604060002054166142fc575b6001016142b1565b9261430860019161538e565b9390506142f4565b509392919361431e85615328565b9461432c6040519687614bdf565b80865261433b601f1991615328565b01368287013760009260005b83518110156143b75760019060405184818951614365818389614c87565b81016005815203019020614379828761537a565b51600052845260ff60406000205416614393575b01614347565b61439d818661537a565b516143b16143aa8861538e565b978a61537a565b5261438d565b6040518061115e8982614e2d565b8554845260019586019587955093019201614294565b346108155760206143ee61145336614c56565b8101600f815203019020906000526020526020604060002054604051908152f35b34610815576020366003190112610815576004356001600160401b038111610815576144456020611de381933690600401614c00565b8101600781520301902054604051908152f35b3461081557602080600319360112610815576004356001600160401b03811161081557614489903690600401614c00565b6040519060ff8151928481818501956144a3818389614c87565b810160088152030190205416156144e357826144ce92613aba92604051938492839251928391614c87565b9061115e604051928284938452830190614cca565b60405162461bcd60e51b815260048101849052601360248201527212185cda08191bd95cc81b9bdd08195e1a5cdd606a1b6044820152606490fd5b3461081557602061453161145336614c56565b810160078152030190209081548110156108155761178f6117959161115e93614cf9565b3461081557600036600319011261081557604060175460185482519182526020820152f35b346108155761458836614c56565b6000809160405184818096516145a4816020998a809601614c87565b8101601081520301902090600052835260406000209182546145c581615328565b936145d36040519586614bdf565b8185526000908152858120868087015b84841061466b57505050505082519260005b815181101561465557606061460a828461537a565b51015161461a575b6001016145f5565b9285614626858461537a565b510151156146425761463960019161538e565b935b9050614612565b929161464f60019161538e565b9261463b565b5050906060936040519384528301526040820152f35b60019160049161467a8561533f565b81520192019201919087906145e3565b346108155760208060031936011261081557600435906001600160401b038211610815576146be6024923690600401614c00565b60005460405162b0c80960e01b815233600482015293839185919082906001600160a01b03165afa928315610822576000936147e8575b506147018315156150e2565b604051815190838181850193614718818387614c87565b8101600e81520301902084600052835260ff60406000205416156147ab577f7180e7a407de506e94dc4620f97c3af6aaf73726be177cf5a2118a83ea08e09a916005610a40610a4f9360405187818651614773818387614c87565b8101600f815203019020886000528752612cc58760406000205492610a2f60ff87610a26878b87604051809251612cc581838c614c87565b60405162461bcd60e51b8152600481018490526015602482015274139bc8191a5cdc1d5d19481d1bc81c995d1c9858dd605a1b6044820152606490fd5b9092508181813d8311614810575b6148008183614bdf565b81010312610815575191836146f5565b503d6147f6565b3461081557602061482a61145336614c56565b8101600581520301902090600052602052602060ff604060002054166040519015158152f35b346108155761486761486136614c56565b9061521c565b90611eda6040959495519586951515865260a0602087015260a0860190614cca565b34610815576000366003190112610815576000546040516001600160a01b039091168152602090f35b346108155760206148c561145336614c56565b8101600b81520301902090600052602052602060ff604060002054166040519015158152f35b34610815576060366003190112610815576004356001600160401b0381116108155761491b903690600401614c00565b614923614caa565b61492b614cba565b9060ff8080921692600184101580614b4d575b61494790615053565b1690600182101580614b42575b61495d90615096565b60005460405162b0c80960e01b815233600482015294602094918590879060249082906001600160a01b03165afa95861561082257600096614b13575b506149a68615156150e2565b6040518151908681818501936149bd818387614c87565b8101600e815203019020876000528652836040600020541615614ad757614a1e600291604051888186516149f2818387614c87565b8101600f815203019020896000528852612cc58860406000205492604051809381928951928391614c87565b50614a2e85600583015416615126565b0190815493614a4981861694614a4381614cef565b84615172565b60068610156126b157614ac060a09584614a877f5395fbd4f789f9b64d364b4f7ed8200e8d2a75a219f64da159998cb161fdab1899614ace9761518a565b5493614a95848616916151a9565b9960405197614aa381614cef565b8852614aae82614cef565b87015282604087019160081c16614f27565b606084019160081c16614f27565b426080820152a3005b60405162461bcd60e51b81526004810187905260146024820152734e6f206469737075746520746f206d6f6469667960601b6044820152606490fd5b9095508481813d8311614b3b575b614b2b8183614bdf565b810103126108155751948661499a565b503d614b21565b506005821115614954565b50600384111561493e565b60c081019081106001600160401b0382111761214657604052565b60a081019081106001600160401b0382111761214657604052565b608081019081106001600160401b0382111761214657604052565b60e081019081106001600160401b0382111761214657604052565b602081019081106001600160401b0382111761214657604052565b90601f801991011681019081106001600160401b0382111761214657604052565b81601f82011215610815578035906001600160401b0382116121465760405192614c34601f8401601f191660200185614bdf565b8284526020838301011161081557816000926020809301838601378301015290565b604060031982011261081557600435906001600160401b03821161081557614c8091600401614c00565b9060243590565b60005b838110614c9a5750506000910152565b8181015183820152602001614c8a565b6024359060ff8216820361081557565b6044359060ff8216820361081557565b90602091614ce381518092818552858086019101614c87565b601f01601f1916010190565b600411156126b157565b8054821015614d115760005260206000200190600090565b634e487b7160e01b600052603260045260246000fd5b90600182811c92168015614d57575b6020831014614d4157565b634e487b7160e01b600052602260045260246000fd5b91607f1691614d36565b90604051918260008254614d7481614d27565b90818452602094600191600181169081600014614de45750600114614da5575b505050614da392500383614bdf565b565b600090815285812095935091905b818310614dcc575050614da39350820101388080614d94565b85548884018501529485019487945091830191614db3565b92505050614da394925060ff191682840152151560051b820101388080614d94565b90614e1757614e1490614d61565b90565b634e487b7160e01b600052600060045260246000fd5b602090602060408183019282815285518094520193019160005b828110614e55575050505090565b835185529381019392810192600101614e47565b8054821015614d115760005260206000209060021b0190600090565b6020808201906020835283518092526040830192602060408460051b8301019501936000915b848310614ebb5750505050505090565b9091929394958480614ed9600193603f198682030187528a51614cca565b9801930193019194939290614eab565b606060031982011261081557600435906001600160401b03821161081557614f1391600401614c00565b906024359060443580151581036108155790565b9060068210156126b15752565b6040906003190112610815576004359060243590565b9060058210156126b15752565b949193614f8760a095614f79614f97949a99969a60c08a5260c08a0190614cca565b9088820360208a0152614cca565b9760408701526060860190614f4a565b60808401521515910152565b906040600319830112610815576001600160401b036004358181116108155783614fcf91600401614c00565b9260243591821161081557614e1491600401614c00565b8054821015614d11576000526005602060002091020190600090565b606060031982011261081557600435906001600160401b0382116108155761502c91600401614c00565b906024359060443590565b8054821015614d11576000526006602060002091020190600090565b1561505a57565b60405162461bcd60e51b81526020600482015260146024820152735365766572697479206d75737420626520312d3360601b6044820152606490fd5b1561509d57565b60405162461bcd60e51b815260206004820152601760248201527f43756c706162696c697479206d75737420626520312d350000000000000000006044820152606490fd5b156150e957565b60405162461bcd60e51b815260206004820152601560248201527415d85b1b195d081b9bdd081c9959da5cdd195c9959605a1b6044820152606490fd5b1561512d57565b60405162461bcd60e51b815260206004820152601a60248201527f4469737075746520686173206265656e207265747261637465640000000000006044820152606490fd5b9061517c81614cef565b60ff80198354169116179055565b9060068110156126b15761ff0082549160081b169061ff001916179055565b6151c190602060405192828480945193849201614c87565b810103902090565b906040516151d681614b73565b608060ff60048395805485526151ee60018201614d61565b60208601528260028201541661520381614cef565b6040860152600381015460608601520154161515910152565b91906040928351918482519160209485818187019561523c818389614c87565b8101600b81520301902090600091818352865260ff8383205416156152cb5761529d9383610a179388936152a39896518581895161527b81838a614c87565b8101600c81520301902090825284522054938951938492839251928391614c87565b506151c9565b9081015192810151916152b583614cef565b6080606083015192015115159060019493929190565b509493505050508192516152de81614bc4565b8281529180918190565b156152ef57565b60405162461bcd60e51b8152602060048201526011602482015270105b1c9958591e481c995d1c9858dd1959607a1b6044820152606490fd5b6001600160401b0381116121465760051b60200190565b9060405161534c81614b8e565b606060ff60038395805485528260018201541615156020860152600281015460408601520154161515910152565b8051821015614d115760209160051b010190565b60001981146135555760010190565b60068210156126b15752565b906040516153b681614ba9565b60c060ff60058395805485526153ce60018201614d61565b60208601526153fa8360028301548181166153e881614cef565b604089015260081c166060870161539d565b61540660038201614d61565b6080860152600481015460a08601520154161515910152565b90816020910312610815575180151581036108155790565b1561543e57565b60405162461bcd60e51b81526020600482015260146024820152732737ba1030b71030b1ba34bb329036b2b6b132b960611b6044820152606490fd5b90615492602091949394604084526040840190614cca565b6001600160a01b03909416910152565b156154a957565b60405162461bcd60e51b815260206004820152601860248201527f4e6f2061636365737320746f2074686973207265636f726400000000000000006044820152606490fd5b156154f557565b60405162461bcd60e51b815260206004820152600a60248201526927b7363c9030b236b4b760b11b6044820152606490fd5b91909182516001600160401b038111612146576155448254614d27565b601f81116155ef575b50602080601f831160011461558a57508192939460009261557f575b50508160011b916000199060031b1c1916179055565b015190503880615569565b90601f19831695846000526020600020926000905b8882106155d7575050836001959697106155be575b505050811b019055565b015160001960f88460031b161c191690553880806155b4565b8060018596829496860151815501950193019061559f565b6000836000526020600020601f840160051c8101926020851061562f575b601f0160051c01915b82811061562457505061554d565b818155600101615616565b909250829061560d565b9060058110156126b15760ff80198354169116179055565b1561565857565b60405162461bcd60e51b8152602060048201526013602482015272119b1859c8191bd95cc81b9bdd08195e1a5cdd606a1b6044820152606490fd5b1561569a57565b60405162461bcd60e51b815260206004820152601960248201527f5265636f72642049442063616e6e6f7420626520656d707479000000000000006044820152606490fd5b156156e657565b60405162461bcd60e51b815260206004820152601b60248201527f5265636f726420686173682063616e6e6f7420626520656d70747900000000006044820152606490fd5b1561573257565b60405162461bcd60e51b81526020600482015260116024820152704c6576656c206d75737420626520312d3360781b6044820152606490fd5b8054600160401b8110156121465761578891600182018155614cf9565b919091614e1757614da391615527565b906040516157a581614b58565b80926157b081614d61565b82526157be60018201614d61565b60208301526002810154604083015260ff6003820154169060058210156126b157600560ff9160a0936060860152600481015460808601520154161515910152565b1561580757565b60405162461bcd60e51b815260206004820152600f60248201526e496e76616c6964206164647265737360881b6044820152606490fd5b90604092835192805160209485818185019361585b818387614c87565b8101600e81520301902093600094818652865260ff8786205416156159165791612cc5866158bc936158c2958a5183818751615898818388614c87565b8101600f815203019020908952825289882054938a51938492839251928391614c87565b506153a9565b9283015193830151926158d484614cef565b6060810151926006841015615902575060808101519160c060a0830151920151151590600196959493929190565b634e487b7160e01b81526021600452602490fd5b50505091508092805161592881614bc4565b828152928280925161593981614bc4565b818152918190565b929091926040938451938251602095868181870193615961818387614c87565b81016011815203019020926000938385528752878420818552875260ff888520541615615a0a576159f2936159ec936159d789606098958c95865183818a516159ab818388614c87565b810160128152030190208587528352868620908652825285852054968651938492839251928391614c87565b81016010815203019020908252885220614e69565b5061533f565b92830151151593830151920151151590600193929190565b5050509350509050818091819056fea26469706673582212201842cf423b2c03e26b27b7c7a88d82509b8f305aeac3520e8d2e7a0d45bf138364736f6c63430008170033",
  "linkReferences": {},
  "deployedLinkReferences": {}
}