{
  "_format": "hh-sol-artifact-1",
  "contractName": "HealthRecordCore",
  "sourceName": "contracts/HealthRecordCore.sol",
  "abi": [
    {
      "inputs": [
        {
          "internalType": "address",
          "name": "_memberRoleManager",
          "type": "address"
        }
      ],
      "stateMutability": "nonpayable",
      "type": "constructor"
    },
    {
      "anonymous": false,
      "inputs": [
        {
          "indexed": true,
          "internalType": "string",
          "name": "permissionHash",
          "type": "string"
        },
        {
          "indexed": true,
          "internalType": "address",
          "name": "sharer",
          "type": "address"
        },
        {
          "indexed": true,
          "internalType": "address",
          "name": "receiver",
          "type": "address"
        },
        {
          "indexed": false,
          "internalType": "string",
          "name": "recordId",
          "type": "string"
        },
        {
          "indexed": false,
          "internalType": "uint256",
          "name": "timestamp",
          "type": "uint256"
        }
      ],
      "name": "AccessGranted",
      "type": "event"
    },
    {
      "anonymous": false,
      "inputs": [
        {
          "indexed": true,
          "internalType": "string",
          "name": "permissionHash",
          "type": "string"
        },
        {
          "indexed": true,
          "internalType": "address",
          "name": "sharer",
          "type": "address"
        },
        {
          "indexed": true,
          "internalType": "address",
          "name": "receiver",
          "type": "address"
        },
        {
          "indexed": false,
          "internalType": "string",
          "name": "recordId",
          "type": "string"
        },
        {
          "indexed": false,
          "internalType": "uint256",
          "name": "timestamp",
          "type": "uint256"
        }
      ],
      "name": "AccessRevoked",
      "type": "event"
    },
    {
      "anonymous": false,
      "inputs": [
        {
          "indexed": true,
          "internalType": "address",
          "name": "oldAdmin",
          "type": "address"
        },
        {
          "indexed": true,
          "internalType": "address",
          "name": "newAdmin",
          "type": "address"
        },
        {
          "indexed": false,
          "internalType": "uint256",
          "name": "timestamp",
          "type": "uint256"
        }
      ],
      "name": "AdminTransferred",
      "type": "event"
    },
    {
      "anonymous": false,
      "inputs": [
        {
          "indexed": true,
          "internalType": "string",
          "name": "recordHash",
          "type": "string"
        },
        {
          "indexed": true,
          "internalType": "address",
          "name": "reviewer",
          "type": "address"
        },
        {
          "indexed": false,
          "internalType": "enum HealthRecordCore.DisputeSeverity",
          "name": "oldSeverity",
          "type": "uint8"
        },
        {
          "indexed": false,
          "internalType": "enum HealthRecordCore.DisputeSeverity",
          "name": "newSeverity",
          "type": "uint8"
        },
        {
          "indexed": false,
          "internalType": "enum HealthRecordCore.DisputeCulpability",
          "name": "oldCulpability",
          "type": "uint8"
        },
        {
          "indexed": false,
          "internalType": "enum HealthRecordCore.DisputeCulpability",
          "name": "newCulpability",
          "type": "uint8"
        },
        {
          "indexed": false,
          "internalType": "uint256",
          "name": "timestamp",
          "type": "uint256"
        }
      ],
      "name": "DisputeModification",
      "type": "event"
    },
    {
      "anonymous": false,
      "inputs": [
        {
          "indexed": true,
          "internalType": "string",
          "name": "recordHash",
          "type": "string"
        },
        {
          "indexed": true,
          "internalType": "address",
          "name": "reactor",
          "type": "address"
        },
        {
          "indexed": true,
          "internalType": "address",
          "name": "reviewer",
          "type": "address"
        },
        {
          "indexed": false,
          "internalType": "bool",
          "name": "supportsDispute",
          "type": "bool"
        },
        {
          "indexed": false,
          "internalType": "uint256",
          "name": "timestamp",
          "type": "uint256"
        }
      ],
      "name": "DisputeReaction",
      "type": "event"
    },
    {
      "anonymous": false,
      "inputs": [
        {
          "indexed": true,
          "internalType": "string",
          "name": "recordId",
          "type": "string"
        },
        {
          "indexed": true,
          "internalType": "string",
          "name": "recordHash",
          "type": "string"
        },
        {
          "indexed": true,
          "internalType": "address",
          "name": "subject",
          "type": "address"
        },
        {
          "indexed": false,
          "internalType": "address",
          "name": "createdBy",
          "type": "address"
        },
        {
          "indexed": false,
          "internalType": "uint256",
          "name": "timestamp",
          "type": "uint256"
        }
      ],
      "name": "RecordAnchored",
      "type": "event"
    },
    {
      "anonymous": false,
      "inputs": [
        {
          "indexed": true,
          "internalType": "string",
          "name": "recordId",
          "type": "string"
        },
        {
          "indexed": true,
          "internalType": "string",
          "name": "recordHash",
          "type": "string"
        },
        {
          "indexed": true,
          "internalType": "address",
          "name": "reviewer",
          "type": "address"
        },
        {
          "indexed": false,
          "internalType": "enum HealthRecordCore.ReviewType",
          "name": "reviewType",
          "type": "uint8"
        },
        {
          "indexed": false,
          "internalType": "enum HealthRecordCore.DisputeSeverity",
          "name": "severity",
          "type": "uint8"
        },
        {
          "indexed": false,
          "internalType": "enum HealthRecordCore.DisputeCulpability",
          "name": "culpability",
          "type": "uint8"
        },
        {
          "indexed": false,
          "internalType": "uint256",
          "name": "timestamp",
          "type": "uint256"
        }
      ],
      "name": "RecordReviewed",
      "type": "event"
    },
    {
      "anonymous": false,
      "inputs": [
        {
          "indexed": true,
          "internalType": "string",
          "name": "recordHash",
          "type": "string"
        },
        {
          "indexed": true,
          "internalType": "address",
          "name": "reviewer",
          "type": "address"
        },
        {
          "indexed": false,
          "internalType": "enum HealthRecordCore.ReviewType",
          "name": "reviewType",
          "type": "uint8"
        },
        {
          "indexed": false,
          "internalType": "uint256",
          "name": "timestamp",
          "type": "uint256"
        }
      ],
      "name": "ReviewRetracted",
      "type": "event"
    },
    {
      "inputs": [
        {
          "internalType": "string",
          "name": "",
          "type": "string"
        }
      ],
      "name": "accessPermissions",
      "outputs": [
        {
          "internalType": "string",
          "name": "permissionHash",
          "type": "string"
        },
        {
          "internalType": "address",
          "name": "sharer",
          "type": "address"
        },
        {
          "internalType": "address",
          "name": "receiver",
          "type": "address"
        },
        {
          "internalType": "string",
          "name": "recordId",
          "type": "string"
        },
        {
          "internalType": "uint256",
          "name": "grantedAt",
          "type": "uint256"
        },
        {
          "internalType": "uint256",
          "name": "revokedAt",
          "type": "uint256"
        },
        {
          "internalType": "bool",
          "name": "isActive",
          "type": "bool"
        },
        {
          "internalType": "bool",
          "name": "exists",
          "type": "bool"
        }
      ],
      "stateMutability": "view",
      "type": "function"
    },
    {
      "inputs": [],
      "name": "admin",
      "outputs": [
        {
          "internalType": "address",
          "name": "",
          "type": "address"
        }
      ],
      "stateMutability": "view",
      "type": "function"
    },
    {
      "inputs": [
        {
          "internalType": "string",
          "name": "recordHash",
          "type": "string"
        },
        {
          "internalType": "string",
          "name": "recordId",
          "type": "string"
        },
        {
          "internalType": "address",
          "name": "subject",
          "type": "address"
        }
      ],
      "name": "anchorRecord",
      "outputs": [],
      "stateMutability": "nonpayable",
      "type": "function"
    },
    {
      "inputs": [
        {
          "internalType": "string",
          "name": "",
          "type": "string"
        }
      ],
      "name": "anchoredRecords",
      "outputs": [
        {
          "internalType": "string",
          "name": "recordHash",
          "type": "string"
        },
        {
          "internalType": "string",
          "name": "recordId",
          "type": "string"
        },
        {
          "internalType": "address",
          "name": "subject",
          "type": "address"
        },
        {
          "internalType": "uint256",
          "name": "createdAt",
          "type": "uint256"
        },
        {
          "internalType": "address",
          "name": "createdBy",
          "type": "address"
        },
        {
          "internalType": "bool",
          "name": "exists",
          "type": "bool"
        }
      ],
      "stateMutability": "view",
      "type": "function"
    },
    {
      "inputs": [
        {
          "internalType": "string",
          "name": "permissionHash",
          "type": "string"
        }
      ],
      "name": "checkAccess",
      "outputs": [
        {
          "internalType": "bool",
          "name": "isActive",
          "type": "bool"
        },
        {
          "internalType": "address",
          "name": "sharer",
          "type": "address"
        },
        {
          "internalType": "address",
          "name": "receiver",
          "type": "address"
        },
        {
          "internalType": "string",
          "name": "recordId",
          "type": "string"
        },
        {
          "internalType": "uint256",
          "name": "grantedAt",
          "type": "uint256"
        },
        {
          "internalType": "uint256",
          "name": "revokedAt",
          "type": "uint256"
        }
      ],
      "stateMutability": "view",
      "type": "function"
    },
    {
      "inputs": [
        {
          "internalType": "string",
          "name": "",
          "type": "string"
        },
        {
          "internalType": "address",
          "name": "",
          "type": "address"
        },
        {
          "internalType": "uint256",
          "name": "",
          "type": "uint256"
        }
      ],
      "name": "disputeReactions",
      "outputs": [
        {
          "internalType": "address",
          "name": "reactor",
          "type": "address"
        },
        {
          "internalType": "bool",
          "name": "supportsDispute",
          "type": "bool"
        },
        {
          "internalType": "uint256",
          "name": "timestamp",
          "type": "uint256"
        }
      ],
      "stateMutability": "view",
      "type": "function"
    },
    {
      "inputs": [
        {
          "internalType": "string",
          "name": "recordHash",
          "type": "string"
        },
        {
          "internalType": "uint8",
          "name": "severity",
          "type": "uint8"
        },
        {
          "internalType": "uint8",
          "name": "culpability",
          "type": "uint8"
        },
        {
          "internalType": "string",
          "name": "notes",
          "type": "string"
        }
      ],
      "name": "disputeRecord",
      "outputs": [],
      "stateMutability": "nonpayable",
      "type": "function"
    },
    {
      "inputs": [
        {
          "internalType": "address",
          "name": "",
          "type": "address"
        },
        {
          "internalType": "uint256",
          "name": "",
          "type": "uint256"
        }
      ],
      "name": "disputesByUser",
      "outputs": [
        {
          "internalType": "string",
          "name": "",
          "type": "string"
        }
      ],
      "stateMutability": "view",
      "type": "function"
    },
    {
      "inputs": [
        {
          "internalType": "string",
          "name": "recordHash",
          "type": "string"
        }
      ],
      "name": "getAnchoredRecord",
      "outputs": [
        {
          "internalType": "string",
          "name": "recordId",
          "type": "string"
        },
        {
          "internalType": "address",
          "name": "subject",
          "type": "address"
        },
        {
          "internalType": "uint256",
          "name": "createdAt",
          "type": "uint256"
        },
        {
          "internalType": "address",
          "name": "createdBy",
          "type": "address"
        },
        {
          "internalType": "bool",
          "name": "exists",
          "type": "bool"
        }
      ],
      "stateMutability": "view",
      "type": "function"
    },
    {
      "inputs": [
        {
          "internalType": "string",
          "name": "recordHash",
          "type": "string"
        },
        {
          "internalType": "address",
          "name": "disputer",
          "type": "address"
        }
      ],
      "name": "getDisputeReactionStats",
      "outputs": [
        {
          "internalType": "uint256",
          "name": "supportsCount",
          "type": "uint256"
        },
        {
          "internalType": "uint256",
          "name": "opposesCount",
          "type": "uint256"
        }
      ],
      "stateMutability": "view",
      "type": "function"
    },
    {
      "inputs": [
        {
          "internalType": "string",
          "name": "recordHash",
          "type": "string"
        },
        {
          "internalType": "address",
          "name": "disputer",
          "type": "address"
        }
      ],
      "name": "getDisputeReactions",
      "outputs": [
        {
          "components": [
            {
              "internalType": "address",
              "name": "reactor",
              "type": "address"
            },
            {
              "internalType": "bool",
              "name": "supportsDispute",
              "type": "bool"
            },
            {
              "internalType": "uint256",
              "name": "timestamp",
              "type": "uint256"
            }
          ],
          "internalType": "struct HealthRecordCore.Reaction[]",
          "name": "",
          "type": "tuple[]"
        }
      ],
      "stateMutability": "view",
      "type": "function"
    },
    {
      "inputs": [
        {
          "internalType": "string",
          "name": "recordId",
          "type": "string"
        }
      ],
      "name": "getHashesByRecordId",
      "outputs": [
        {
          "internalType": "string[]",
          "name": "",
          "type": "string[]"
        }
      ],
      "stateMutability": "view",
      "type": "function"
    },
    {
      "inputs": [
        {
          "internalType": "address",
          "name": "receiver",
          "type": "address"
        }
      ],
      "name": "getPermissionsByReceiver",
      "outputs": [
        {
          "internalType": "string[]",
          "name": "",
          "type": "string[]"
        }
      ],
      "stateMutability": "view",
      "type": "function"
    },
    {
      "inputs": [
        {
          "internalType": "address",
          "name": "sharer",
          "type": "address"
        }
      ],
      "name": "getPermissionsBySharer",
      "outputs": [
        {
          "internalType": "string[]",
          "name": "",
          "type": "string[]"
        }
      ],
      "stateMutability": "view",
      "type": "function"
    },
    {
      "inputs": [
        {
          "internalType": "string",
          "name": "recordHash",
          "type": "string"
        }
      ],
      "name": "getRecordSubject",
      "outputs": [
        {
          "internalType": "address",
          "name": "",
          "type": "address"
        }
      ],
      "stateMutability": "view",
      "type": "function"
    },
    {
      "inputs": [
        {
          "internalType": "address",
          "name": "subject",
          "type": "address"
        }
      ],
      "name": "getRecordsAboutSubject",
      "outputs": [
        {
          "internalType": "string[]",
          "name": "",
          "type": "string[]"
        }
      ],
      "stateMutability": "view",
      "type": "function"
    },
    {
      "inputs": [
        {
          "internalType": "string",
          "name": "recordHash",
          "type": "string"
        }
      ],
      "name": "getReviewStats",
      "outputs": [
        {
          "internalType": "uint256",
          "name": "activeVerifications",
          "type": "uint256"
        },
        {
          "internalType": "uint256",
          "name": "activeDisputes",
          "type": "uint256"
        },
        {
          "internalType": "uint256",
          "name": "retractedCount",
          "type": "uint256"
        }
      ],
      "stateMutability": "view",
      "type": "function"
    },
    {
      "inputs": [
        {
          "internalType": "string",
          "name": "recordHash",
          "type": "string"
        }
      ],
      "name": "getReviews",
      "outputs": [
        {
          "components": [
            {
              "internalType": "address",
              "name": "reviewer",
              "type": "address"
            },
            {
              "internalType": "enum HealthRecordCore.ReviewType",
              "name": "reviewType",
              "type": "uint8"
            },
            {
              "internalType": "enum HealthRecordCore.DisputeSeverity",
              "name": "severity",
              "type": "uint8"
            },
            {
              "internalType": "enum HealthRecordCore.DisputeCulpability",
              "name": "culpability",
              "type": "uint8"
            },
            {
              "internalType": "uint256",
              "name": "timestamp",
              "type": "uint256"
            },
            {
              "internalType": "string",
              "name": "notes",
              "type": "string"
            },
            {
              "internalType": "bool",
              "name": "isActive",
              "type": "bool"
            }
          ],
          "internalType": "struct HealthRecordCore.Review[]",
          "name": "",
          "type": "tuple[]"
        }
      ],
      "stateMutability": "view",
      "type": "function"
    },
    {
      "inputs": [
        {
          "internalType": "address",
          "name": "sharer",
          "type": "address"
        }
      ],
      "name": "getSharerStats",
      "outputs": [
        {
          "internalType": "uint256",
          "name": "total",
          "type": "uint256"
        },
        {
          "internalType": "uint256",
          "name": "active",
          "type": "uint256"
        }
      ],
      "stateMutability": "view",
      "type": "function"
    },
    {
      "inputs": [],
      "name": "getTotalPermissions",
      "outputs": [
        {
          "internalType": "uint256",
          "name": "",
          "type": "uint256"
        }
      ],
      "stateMutability": "view",
      "type": "function"
    },
    {
      "inputs": [],
      "name": "getTotalStats",
      "outputs": [
        {
          "internalType": "uint256",
          "name": "totalAnchored",
          "type": "uint256"
        },
        {
          "internalType": "uint256",
          "name": "totalReviewCount",
          "type": "uint256"
        },
        {
          "internalType": "uint256",
          "name": "totalPermissionCount",
          "type": "uint256"
        }
      ],
      "stateMutability": "view",
      "type": "function"
    },
    {
      "inputs": [
        {
          "internalType": "address",
          "name": "user",
          "type": "address"
        }
      ],
      "name": "getUserDisputes",
      "outputs": [
        {
          "internalType": "string[]",
          "name": "",
          "type": "string[]"
        }
      ],
      "stateMutability": "view",
      "type": "function"
    },
    {
      "inputs": [
        {
          "internalType": "string",
          "name": "recordHash",
          "type": "string"
        },
        {
          "internalType": "address",
          "name": "user",
          "type": "address"
        }
      ],
      "name": "getUserReview",
      "outputs": [
        {
          "internalType": "bool",
          "name": "exists",
          "type": "bool"
        },
        {
          "internalType": "enum HealthRecordCore.ReviewType",
          "name": "reviewType",
          "type": "uint8"
        },
        {
          "internalType": "uint256",
          "name": "timestamp",
          "type": "uint256"
        },
        {
          "internalType": "string",
          "name": "notes",
          "type": "string"
        },
        {
          "internalType": "bool",
          "name": "isActive",
          "type": "bool"
        }
      ],
      "stateMutability": "view",
      "type": "function"
    },
    {
      "inputs": [
        {
          "internalType": "address",
          "name": "user",
          "type": "address"
        }
      ],
      "name": "getUserReviewHistory",
      "outputs": [
        {
          "internalType": "uint256",
          "name": "totalVerifications",
          "type": "uint256"
        },
        {
          "internalType": "uint256",
          "name": "totalDisputes",
          "type": "uint256"
        }
      ],
      "stateMutability": "view",
      "type": "function"
    },
    {
      "inputs": [
        {
          "internalType": "address",
          "name": "user",
          "type": "address"
        }
      ],
      "name": "getUserVerifications",
      "outputs": [
        {
          "internalType": "string[]",
          "name": "",
          "type": "string[]"
        }
      ],
      "stateMutability": "view",
      "type": "function"
    },
    {
      "inputs": [
        {
          "internalType": "string",
          "name": "permissionHash",
          "type": "string"
        },
        {
          "internalType": "string",
          "name": "recordId",
          "type": "string"
        },
        {
          "internalType": "address",
          "name": "receiver",
          "type": "address"
        }
      ],
      "name": "grantAccess",
      "outputs": [],
      "stateMutability": "nonpayable",
      "type": "function"
    },
    {
      "inputs": [
        {
          "internalType": "string",
          "name": "",
          "type": "string"
        },
        {
          "internalType": "address",
          "name": "",
          "type": "address"
        },
        {
          "internalType": "address",
          "name": "",
          "type": "address"
        }
      ],
      "name": "hasReactedToDispute",
      "outputs": [
        {
          "internalType": "bool",
          "name": "",
          "type": "bool"
        }
      ],
      "stateMutability": "view",
      "type": "function"
    },
    {
      "inputs": [
        {
          "internalType": "string",
          "name": "",
          "type": "string"
        },
        {
          "internalType": "address",
          "name": "",
          "type": "address"
        }
      ],
      "name": "hasReviewed",
      "outputs": [
        {
          "internalType": "bool",
          "name": "",
          "type": "bool"
        }
      ],
      "stateMutability": "view",
      "type": "function"
    },
    {
      "inputs": [
        {
          "internalType": "string",
          "name": "recordHash",
          "type": "string"
        },
        {
          "internalType": "address",
          "name": "user",
          "type": "address"
        }
      ],
      "name": "isSubject",
      "outputs": [
        {
          "internalType": "bool",
          "name": "",
          "type": "bool"
        }
      ],
      "stateMutability": "view",
      "type": "function"
    },
    {
      "inputs": [],
      "name": "memberRoleManager",
      "outputs": [
        {
          "internalType": "contract MemberRoleManagerInterface",
          "name": "",
          "type": "address"
        }
      ],
      "stateMutability": "view",
      "type": "function"
    },
    {
      "inputs": [
        {
          "internalType": "string",
          "name": "recordHash",
          "type": "string"
        },
        {
          "internalType": "uint8",
          "name": "newSeverity",
          "type": "uint8"
        },
        {
          "internalType": "uint8",
          "name": "newCulpability",
          "type": "uint8"
        }
      ],
      "name": "modifyDispute",
      "outputs": [],
      "stateMutability": "nonpayable",
      "type": "function"
    },
    {
      "inputs": [
        {
          "internalType": "address",
          "name": "",
          "type": "address"
        },
        {
          "internalType": "uint256",
          "name": "",
          "type": "uint256"
        }
      ],
      "name": "permissionsByReceiver",
      "outputs": [
        {
          "internalType": "string",
          "name": "",
          "type": "string"
        }
      ],
      "stateMutability": "view",
      "type": "function"
    },
    {
      "inputs": [
        {
          "internalType": "address",
          "name": "",
          "type": "address"
        },
        {
          "internalType": "uint256",
          "name": "",
          "type": "uint256"
        }
      ],
      "name": "permissionsBySharer",
      "outputs": [
        {
          "internalType": "string",
          "name": "",
          "type": "string"
        }
      ],
      "stateMutability": "view",
      "type": "function"
    },
    {
      "inputs": [
        {
          "internalType": "string",
          "name": "recordHash",
          "type": "string"
        },
        {
          "internalType": "address",
          "name": "disputer",
          "type": "address"
        },
        {
          "internalType": "bool",
          "name": "supportsDispute",
          "type": "bool"
        }
      ],
      "name": "reactToDispute",
      "outputs": [],
      "stateMutability": "nonpayable",
      "type": "function"
    },
    {
      "inputs": [
        {
          "internalType": "string",
          "name": "",
          "type": "string"
        },
        {
          "internalType": "uint256",
          "name": "",
          "type": "uint256"
        }
      ],
      "name": "recordHashesByRecordId",
      "outputs": [
        {
          "internalType": "string",
          "name": "",
          "type": "string"
        }
      ],
      "stateMutability": "view",
      "type": "function"
    },
    {
      "inputs": [
        {
          "internalType": "string",
          "name": "",
          "type": "string"
        },
        {
          "internalType": "uint256",
          "name": "",
          "type": "uint256"
        }
      ],
      "name": "recordReviews",
      "outputs": [
        {
          "internalType": "address",
          "name": "reviewer",
          "type": "address"
        },
        {
          "internalType": "enum HealthRecordCore.ReviewType",
          "name": "reviewType",
          "type": "uint8"
        },
        {
          "internalType": "enum HealthRecordCore.DisputeSeverity",
          "name": "severity",
          "type": "uint8"
        },
        {
          "internalType": "enum HealthRecordCore.DisputeCulpability",
          "name": "culpability",
          "type": "uint8"
        },
        {
          "internalType": "uint256",
          "name": "timestamp",
          "type": "uint256"
        },
        {
          "internalType": "string",
          "name": "notes",
          "type": "string"
        },
        {
          "internalType": "bool",
          "name": "isActive",
          "type": "bool"
        }
      ],
      "stateMutability": "view",
      "type": "function"
    },
    {
      "inputs": [
        {
          "internalType": "address",
          "name": "",
          "type": "address"
        },
        {
          "internalType": "uint256",
          "name": "",
          "type": "uint256"
        }
      ],
      "name": "recordsAboutSubject",
      "outputs": [
        {
          "internalType": "string",
          "name": "",
          "type": "string"
        }
      ],
      "stateMutability": "view",
      "type": "function"
    },
    {
      "inputs": [
        {
          "internalType": "string",
          "name": "recordHash",
          "type": "string"
        }
      ],
      "name": "retractReview",
      "outputs": [],
      "stateMutability": "nonpayable",
      "type": "function"
    },
    {
      "inputs": [
        {
          "internalType": "string",
          "name": "permissionHash",
          "type": "string"
        }
      ],
      "name": "revokeAccess",
      "outputs": [],
      "stateMutability": "nonpayable",
      "type": "function"
    },
    {
      "inputs": [
        {
          "internalType": "address",
          "name": "_memberRoleManager",
          "type": "address"
        }
      ],
      "name": "setMemberRoleManager",
      "outputs": [],
      "stateMutability": "nonpayable",
      "type": "function"
    },
    {
      "inputs": [],
      "name": "totalAnchoredRecords",
      "outputs": [
        {
          "internalType": "uint256",
          "name": "",
          "type": "uint256"
        }
      ],
      "stateMutability": "view",
      "type": "function"
    },
    {
      "inputs": [],
      "name": "totalPermissions",
      "outputs": [
        {
          "internalType": "uint256",
          "name": "",
          "type": "uint256"
        }
      ],
      "stateMutability": "view",
      "type": "function"
    },
    {
      "inputs": [],
      "name": "totalReviews",
      "outputs": [
        {
          "internalType": "uint256",
          "name": "",
          "type": "uint256"
        }
      ],
      "stateMutability": "view",
      "type": "function"
    },
    {
      "inputs": [
        {
          "internalType": "address",
          "name": "newAdmin",
          "type": "address"
        }
      ],
      "name": "transferAdmin",
      "outputs": [],
      "stateMutability": "nonpayable",
      "type": "function"
    },
    {
      "inputs": [
        {
          "internalType": "string",
          "name": "",
          "type": "string"
        },
        {
          "internalType": "address",
          "name": "",
          "type": "address"
        }
      ],
      "name": "userReviewIndex",
      "outputs": [
        {
          "internalType": "uint256",
          "name": "",
          "type": "uint256"
        }
      ],
      "stateMutability": "view",
      "type": "function"
    },
    {
      "inputs": [
        {
          "internalType": "address",
          "name": "",
          "type": "address"
        },
        {
          "internalType": "uint256",
          "name": "",
          "type": "uint256"
        }
      ],
      "name": "verificationsByUser",
      "outputs": [
        {
          "internalType": "string",
          "name": "",
          "type": "string"
        }
      ],
      "stateMutability": "view",
      "type": "function"
    },
    {
      "inputs": [
        {
          "internalType": "string",
          "name": "recordHash",
          "type": "string"
        },
        {
          "internalType": "string",
          "name": "notes",
          "type": "string"
        }
      ],
      "name": "verifyRecord",
      "outputs": [],
      "stateMutability": "nonpayable",
      "type": "function"
    }
  ],
  "bytecode": "0x60806040523480156200001157600080fd5b50604051620050ac380380620050ac8339810160408190526200003491620000c8565b6001600160a01b038116620000995760405162461bcd60e51b815260206004820152602160248201527f496e76616c6964204d656d626572526f6c654d616e61676572206164647265736044820152607360f81b606482015260840160405180910390fd5b600080546001600160a01b039092166001600160a01b03199283161790556001805490911633179055620000fa565b600060208284031215620000db57600080fd5b81516001600160a01b0381168114620000f357600080fd5b9392505050565b614fa2806200010a6000396000f3fe608060405234801561001057600080fd5b50600436106102955760003560e01c806380fcd81711610167578063bed6e79e116100ce578063e589425e11610087578063e589425e14610748578063f25b7f451461075b578063f6cc55f91461076e578063f851a44014610793578063fb310c59146107a6578063fc5cbf1d146107b957600080fd5b8063bed6e79e146106b8578063bfb0a55b146106cb578063c542ef40146106de578063dd0bc082146106f1578063e0f3e86e14610704578063e23678901461073f57600080fd5b80639e90e34a116101205780639e90e34a14610624578063a065361114610637578063a5a6958e1461064a578063ad6f02811461066e578063b10e4a0b14610681578063b5d3bc051461069457600080fd5b806380fcd8171461052057806381c86b331461055e5780638625d3841461057157806386564c8e146105b557806386c097f7146105eb578063889a7eee146105fe57600080fd5b8063328c5aa11161020b5780633de2e8e9116101c45780633de2e8e9146104815780633ecd54be1461049457806347580b56146104c25780636b032610146104d557806375829def146104e85780637ea79e9c146104fb57600080fd5b8063328c5aa1146103cc57806337811534146104045780633935b0761461040c5780633a7795681461041f5780633aaaaf88146104325780633cfbc7cb1461045957600080fd5b806319c619531161025d57806319c61953146103435780631af43c91146103565780631cf8cbe814610369578063291c2b16146103805780632978465d146103a35780632ec1ca8a146103c357600080fd5b8063036351701461029a57806310a0e88a146102c35780631469fab7146102d857806315370703146102f85780631655408d14610323575b600080fd5b6102ad6102a83660046142ba565b6107c7565b6040516102ba9190614334565b60405180910390f35b6102d66102d1366004614402565b610880565b005b6102eb6102e6366004614460565b610c46565b6040516102ba919061447b565b60005461030b906001600160a01b031681565b6040516001600160a01b0390911681526020016102ba565b6103366103313660046144df565b610d35565b6040516102ba919061452d565b6102d6610351366004614591565b610dea565b6102d66103643660046145fc565b61122c565b61037260095481565b6040519081526020016102ba565b61039361038e3660046144df565b6113d3565b60405190151581526020016102ba565b6103b66103b1366004614681565b611414565b6040516102ba9190614708565b61037260055481565b6103df6103da3660046147de565b6115e8565b604080516001600160a01b0390941684529115156020840152908201526060016102ba565b600554610372565b6102d661041a366004614591565b611650565b6102ad61042d3660046142ba565b611b26565b610445610440366004614681565b611b42565b6040516102ba989796959493929190614835565b61046c6104673660046144df565b611cb7565b604080519283526020830191909152016102ba565b6102d661048f36600461489e565b611dc9565b6104a76104a2366004614681565b611e8e565b604080519384526020840192909252908201526060016102ba565b6102ad6104d03660046142ba565b612114565b61046c6104e3366004614460565b612130565b6102d66104f6366004614460565b61228f565b61050e610509366004614681565b612384565b6040516102ba96959493929190614902565b61039361052e3660046144df565b8151602081840181018051600b825292820194820194909420919093529091526000908152604090205460ff1681565b6102eb61056c366004614681565b6124e7565b61039361057f36600461495c565b8251602081850181018051600e825292820195820195909520919094528352600091825260408083209093528152205460ff1681565b61046c6105c3366004614460565b6001600160a01b03166000908152600f60209081526040808320546010909252909120549091565b6102eb6105f9366004614460565b6125d3565b61061161060c3660046149b1565b6126b7565b6040516102ba97969594939291906149f6565b6102d6610632366004614a6c565b6127c3565b6102ad6106453660046142ba565b612f2a565b61065d6106583660046144df565b612f46565b6040516102ba959493929190614ace565b61030b61067c366004614681565b6131bc565b6102d661068f366004614681565b613262565b6106a76106a2366004614681565b61343f565b6040516102ba959493929190614b10565b6102ad6106c63660046142ba565b613609565b6102eb6106d9366004614460565b613625565b6102eb6106ec366004614460565b613709565b6102d66106ff366004614460565b6137ed565b6103726107123660046144df565b8151602081840181018051600c825292820194820194909420919093529091526000908152604090205481565b61037260115481565b6102ad6107563660046149b1565b61389e565b6102eb610769366004614460565b6138c9565b61078161077c366004614681565b6139ad565b6040516102ba96959493929190614b56565b60015461030b906001600160a01b031681565b6102d66107b4366004614681565b613b9c565b6009546011546005546104a7565b601060205281600052604060002081815481106107e357600080fd5b906000526020600020016000915091505080546107ff90614b9f565b80601f016020809104026020016040519081016040528092919081815260200182805461082b90614b9f565b80156108785780601f1061084d57610100808354040283529160200191610878565b820191906000526020600020905b81548152906001019060200180831161085b57829003601f168201915b505050505081565b6006836040516108909190614bd9565b9081526040519081900360200190206004015460ff600160a01b909104166108d35760405162461bcd60e51b81526004016108ca90614bf5565b60405180910390fd5b600b836040516108e39190614bd9565b9081526040805160209281900383019020336000908152925290205460ff166109585760405162461bcd60e51b815260206004820152602160248201527f5573657220686173206e6f20726576696577206f6e2074686973207265636f726044820152601960fa1b60648201526084016108ca565b60018260ff1610158015610970575060038260ff1611155b6109b35760405162461bcd60e51b81526020600482015260146024820152735365766572697479206d75737420626520312d3360601b60448201526064016108ca565b60018160ff16101580156109cb575060058160ff1611155b610a115760405162461bcd60e51b815260206004820152601760248201527643756c706162696c697479206d75737420626520312d3560481b60448201526064016108ca565b6000600c84604051610a239190614bd9565b90815260408051602092819003830181203360009081529352908220549250600a90610a50908790614bd9565b90815260200160405180910390208281548110610a6f57610a6f614c22565b60009182526020909120600490910201600381015490915060ff16610ad65760405162461bcd60e51b815260206004820152601a60248201527f4469737075746520686173206265656e2072657472616374656400000000000060448201526064016108ca565b60018154600160a01b900460ff166001811115610af557610af56146be565b14610b425760405162461bcd60e51b815260206004820152601760248201527f526576696577206973206e6f742061206469737075746500000000000000000060448201526064016108ca565b805460ff600160a81b8204811691600160b01b900481169086166003811115610b6d57610b6d6146be565b8354849060ff60a81b1916600160a81b836003811115610b8f57610b8f6146be565b02179055508460ff166005811115610ba957610ba96146be565b8354849060ff60b01b1916600160b01b836005811115610bcb57610bcb6146be565b02179055506040513390610be0908990614bd9565b604051908190038120855490917f4a326d2e0f3bd3557b127d6a5d9cf92f3b9038184c6f20da297b638bbe8bd83391610c3591879160ff600160a81b82048116928992600160b01b9004909116904290614c38565b60405180910390a350505050505050565b6001600160a01b0381166000908152600f60209081526040808320805482518185028101850190935280835260609492939192909184015b82821015610d2a578382906000526020600020018054610c9d90614b9f565b80601f0160208091040260200160405190810160405280929190818152602001828054610cc990614b9f565b8015610d165780601f10610ceb57610100808354040283529160200191610d16565b820191906000526020600020905b815481529060010190602001808311610cf957829003601f168201915b505050505081526020019060010190610c7e565b505050509050919050565b6060600d83604051610d479190614bd9565b9081526040805191829003602090810183206001600160a01b0386166000908152908252828120805480840286018401909452838552929184015b82821015610dde576000848152602090819020604080516060810182526002860290920180546001600160a01b0381168452600160a01b900460ff16151583850152600190810154918301919091529083529092019101610d82565b50505050905092915050565b60005460405163cb261a0360e01b81523360048201526001600160a01b039091169063cb261a0390602401602060405180830381865afa158015610e32573d6000803e3d6000fd5b505050506040513d601f19601f82011682018060405250810190610e569190614c7d565b610e725760405162461bcd60e51b81526004016108ca90614c9a565b600054604051630286b6ab60e31b815283916001600160a01b031690631435b55890610ea49084903390600401614cc9565b602060405180830381865afa158015610ec1573d6000803e3d6000fd5b505050506040513d601f19601f82011682018060405250810190610ee59190614c7d565b610f015760405162461bcd60e51b81526004016108ca90614cf3565b6000845111610f495760405162461bcd60e51b8152602060048201526014602482015273486173682063616e6e6f7420626520656d70747960601b60448201526064016108ca565b6000835111610f965760405162461bcd60e51b81526020600482015260196024820152785265636f72642049442063616e6e6f7420626520656d70747960381b60448201526064016108ca565b6001600160a01b038216610fec5760405162461bcd60e51b815260206004820152601e60248201527f5375626a6563742063616e6e6f74206265207a65726f2061646472657373000060448201526064016108ca565b600684604051610ffc9190614bd9565b9081526040519081900360200190206004015460ff600160a01b909104161561105f5760405162461bcd60e51b815260206004820152601560248201527412185cda08185b1c9958591e48185b98da1bdc9959605a1b60448201526064016108ca565b6040805160c081018252858152602081018590526001600160a01b03841681830152426060820152336080820152600160a082015290516006906110a4908790614bd9565b908152604051908190036020019020815181906110c19082614d7a565b50602082015160018201906110d69082614d7a565b506040828101516002830180546001600160a01b039283166001600160a01b03199091161790556060840151600384015560808401516004909301805460a0909501511515600160a01b026001600160a81b031990951693821693909317939093179091559083166000908152600760209081529181208054600181018255908252919020016111668582614d7a565b506008836040516111779190614bd9565b9081526040516020918190038201902080546001810182556000918252919020016111a28582614d7a565b50600980549060006111b383614e3a565b9190505550816001600160a01b0316836040516111d09190614bd9565b6040518091039020856040516111e69190614bd9565b60408051918290038220338352426020840152917f4420e8451168941fa9021d087369875d12307cd926ed71885aee174e86c46fda91015b60405180910390a450505050565b60005460405163cb261a0360e01b81523360048201526001600160a01b039091169063cb261a0390602401602060405180830381865afa158015611274573d6000803e3d6000fd5b505050506040513d601f19601f820116820180604052508101906112989190614c7d565b6112b45760405162461bcd60e51b81526004016108ca90614c9a565b60018360ff16101580156112cc575060038360ff1611155b61130f5760405162461bcd60e51b81526020600482015260146024820152735365766572697479206d75737420626520312d3360601b60448201526064016108ca565b60018260ff1610158015611327575060058260ff1611155b61136d5760405162461bcd60e51b815260206004820152601760248201527643756c706162696c697479206d75737420626520312d3560481b60448201526064016108ca565b6113a3848260018660ff166003811115611389576113896146be565b8660ff16600581111561139e5761139e6146be565b613df4565b336000908152601060209081526040822080546001810182559083529120016113cc8582614d7a565b5050505050565b6000816001600160a01b03166006846040516113ef9190614bd9565b908152604051908190036020019020600201546001600160a01b031614905092915050565b6060600a826040516114269190614bd9565b9081526020016040518091039020805480602002602001604051908101604052809291908181526020016000905b82821015610d2a5760008481526020908190206040805160e081019091526004850290910180546001600160a01b03811683529192909190830190600160a01b900460ff1660018111156114aa576114aa6146be565b60018111156114bb576114bb6146be565b81528154602090910190600160a81b900460ff1660038111156114e0576114e06146be565b60038111156114f1576114f16146be565b81528154602090910190600160b01b900460ff166005811115611516576115166146be565b6005811115611527576115276146be565b81526020016001820154815260200160028201805461154590614b9f565b80601f016020809104026020016040519081016040528092919081815260200182805461157190614b9f565b80156115be5780601f10611593576101008083540402835291602001916115be565b820191906000526020600020905b8154815290600101906020018083116115a157829003601f168201915b50505091835250506003919091015460ff1615156020918201529082526001929092019101611454565b8251602081850181018051600d8252928201828701209290525260008281526040902080548290811061161a57600080fd5b6000918252602090912060029091020180546001909101546001600160a01b0382169450600160a01b90910460ff169250905083565b6000546040516345ecd02f60e01b81523360048201526001600160a01b03909116906345ecd02f90602401602060405180830381865afa158015611698573d6000803e3d6000fd5b505050506040513d601f19601f820116820180604052508101906116bc9190614c7d565b6116ff5760405162461bcd60e51b81526020600482015260146024820152732737ba1030b71030b1ba34bb329036b2b6b132b960611b60448201526064016108ca565b600054604051630286b6ab60e31b815283916001600160a01b031690631435b558906117319084903390600401614cc9565b602060405180830381865afa15801561174e573d6000803e3d6000fd5b505050506040513d601f19601f820116820180604052508101906117729190614c7d565b61178e5760405162461bcd60e51b81526004016108ca90614cf3565b60008451116117df5760405162461bcd60e51b815260206004820152601f60248201527f5065726d697373696f6e20686173682063616e6e6f7420626520656d7074790060448201526064016108ca565b600083511161182c5760405162461bcd60e51b81526020600482015260196024820152785265636f72642049442063616e6e6f7420626520656d70747960381b60448201526064016108ca565b6001600160a01b0382166118825760405162461bcd60e51b815260206004820152601f60248201527f526563656976657220616464726573732063616e6e6f74206265207a65726f0060448201526064016108ca565b336001600160a01b038316036118da5760405162461bcd60e51b815260206004820152601a60248201527f43616e6e6f74207368617265207769746820796f757273656c6600000000000060448201526064016108ca565b6002846040516118ea9190614bd9565b9081526040519081900360200190206006015460ff61010090910416156119535760405162461bcd60e51b815260206004820152601960248201527f5065726d697373696f6e20616c7265616479206578697374730000000000000060448201526064016108ca565b60408051610100810182528581523360208201526001600160a01b0384168183015260608101859052426080820152600060a0820152600160c0820181905260e082015290516002906119a7908790614bd9565b908152604051908190036020019020815181906119c49082614d7a565b5060208201516001820180546001600160a01b039283166001600160a01b031991821617909155604084015160028401805491909316911617905560608201516003820190611a139082614d7a565b506080820151600482015560a0820151600582015560c08201516006909101805460e09093015115156101000261ff00199215159290921661ffff199093169290921717905533600090815260036020908152604082208054600181018255908352912001611a828582614d7a565b506001600160a01b038216600090815260046020908152604082208054600181018255908352912001611ab58582614d7a565b5060058054906000611ac683614e3a565b9190505550816001600160a01b0316336001600160a01b031685604051611aed9190614bd9565b60405180910390207f4e9b2250dc310298285671060eeb083837adb673cedb4fcff8837a53196e885f864260405161121e929190614e61565b600360205281600052604060002081815481106107e357600080fd5b8051602081830181018051600282529282019190930120915280548190611b6890614b9f565b80601f0160208091040260200160405190810160405280929190818152602001828054611b9490614b9f565b8015611be15780601f10611bb657610100808354040283529160200191611be1565b820191906000526020600020905b815481529060010190602001808311611bc457829003601f168201915b5050506001840154600285015460038601805495966001600160a01b0393841696929093169450919250611c1490614b9f565b80601f0160208091040260200160405190810160405280929190818152602001828054611c4090614b9f565b8015611c8d5780601f10611c6257610100808354040283529160200191611c8d565b820191906000526020600020905b815481529060010190602001808311611c7057829003601f168201915b50505050600483015460058401546006909401549293909290915060ff8082169161010090041688565b6000806000600d85604051611ccc9190614bd9565b9081526040805191829003602090810183206001600160a01b0388166000908152908252828120805480840286018401909452838552929184015b82821015611d63576000848152602090819020604080516060810182526002860290920180546001600160a01b0381168452600160a01b900460ff16151583850152600190810154918301919091529083529092019101611d07565b50505050905060005b8151811015611dc057818181518110611d8757611d87614c22565b60200260200101516020015115611daa5783611da281614e3a565b945050611db8565b82611db481614e3a565b9350505b600101611d6c565b50509250929050565b60005460405163cb261a0360e01b81523360048201526001600160a01b039091169063cb261a0390602401602060405180830381865afa158015611e11573d6000803e3d6000fd5b505050506040513d601f19601f82011682018060405250810190611e359190614c7d565b611e515760405162461bcd60e51b81526004016108ca90614c9a565b611e6082826000806000613df4565b336000908152600f6020908152604082208054600181018255908352912001611e898382614d7a565b505050565b600080600080600a85604051611ea49190614bd9565b9081526020016040518091039020805480602002602001604051908101604052809291908181526020016000905b828210156120665760008481526020908190206040805160e081019091526004850290910180546001600160a01b03811683529192909190830190600160a01b900460ff166001811115611f2857611f286146be565b6001811115611f3957611f396146be565b81528154602090910190600160a81b900460ff166003811115611f5e57611f5e6146be565b6003811115611f6f57611f6f6146be565b81528154602090910190600160b01b900460ff166005811115611f9457611f946146be565b6005811115611fa557611fa56146be565b815260200160018201548152602001600282018054611fc390614b9f565b80601f0160208091040260200160405190810160405280929190818152602001828054611fef90614b9f565b801561203c5780601f106120115761010080835404028352916020019161203c565b820191906000526020600020905b81548152906001019060200180831161201f57829003601f168201915b50505091835250506003919091015460ff1615156020918201529082526001929092019101611ed2565b50505050905060005b815181101561210b5781818151811061208a5761208a614c22565b602002602001015160c00151156120f55760008282815181106120af576120af614c22565b60200260200101516020015160018111156120cc576120cc6146be565b036120e357846120db81614e3a565b955050612103565b836120ed81614e3a565b945050612103565b826120ff81614e3a565b9350505b60010161206f565b50509193909250565b600f60205281600052604060002081815481106107e357600080fd5b6001600160a01b0381166000908152600360209081526040808320805482518185028101850190935280835284938493929190849084015b8282101561221457838290600052602060002001805461218790614b9f565b80601f01602080910402602001604051908101604052809291908181526020018280546121b390614b9f565b80156122005780601f106121d557610100808354040283529160200191612200565b820191906000526020600020905b8154815290600101906020018083116121e357829003601f168201915b505050505081526020019060010190612168565b505050509050805192506000915060005b815181101561228857600282828151811061224257612242614c22565b60200260200101516040516122579190614bd9565b9081526040519081900360200190206006015460ff1615612280578261227c81614e3a565b9350505b600101612225565b5050915091565b6001546001600160a01b031633146122d65760405162461bcd60e51b815260206004820152600a60248201526927b7363c9030b236b4b760b11b60448201526064016108ca565b6001600160a01b03811661231e5760405162461bcd60e51b815260206004820152600f60248201526e496e76616c6964206164647265737360881b60448201526064016108ca565b6001546040514281526001600160a01b038381169216907f38df5fa0f7fef0d515ca1f5388cb5790ac5885d5fca8d05d9f943e563c33a4b39060200160405180910390a3600180546001600160a01b0319166001600160a01b0392909216919091179055565b80516020818301810180516006825292820191909301209152805481906123aa90614b9f565b80601f01602080910402602001604051908101604052809291908181526020018280546123d690614b9f565b80156124235780601f106123f857610100808354040283529160200191612423565b820191906000526020600020905b81548152906001019060200180831161240657829003601f168201915b50505050509080600101805461243890614b9f565b80601f016020809104026020016040519081016040528092919081815260200182805461246490614b9f565b80156124b15780601f10612486576101008083540402835291602001916124b1565b820191906000526020600020905b81548152906001019060200180831161249457829003601f168201915b505050506002830154600384015460049094015492936001600160a01b039182169390925090811690600160a01b900460ff1686565b60606008826040516124f99190614bd9565b9081526020016040518091039020805480602002602001604051908101604052809291908181526020016000905b82821015610d2a57838290600052602060002001805461254690614b9f565b80601f016020809104026020016040519081016040528092919081815260200182805461257290614b9f565b80156125bf5780601f10612594576101008083540402835291602001916125bf565b820191906000526020600020905b8154815290600101906020018083116125a257829003601f168201915b505050505081526020019060010190612527565b6001600160a01b0381166000908152600360209081526040808320805482518185028101850190935280835260609492939192909184015b82821015610d2a57838290600052602060002001805461262a90614b9f565b80601f016020809104026020016040519081016040528092919081815260200182805461265690614b9f565b80156126a35780601f10612678576101008083540402835291602001916126a3565b820191906000526020600020905b81548152906001019060200180831161268657829003601f168201915b50505050508152602001906001019061260b565b8151602081840181018051600a8252928201918501919091209190528054829081106126e257600080fd5b60009182526020909120600490910201805460018201546002830180546001600160a01b038416965060ff600160a01b850481169650600160a81b8504811695600160b01b9095041693919061273790614b9f565b80601f016020809104026020016040519081016040528092919081815260200182805461276390614b9f565b80156127b05780601f10612785576101008083540402835291602001916127b0565b820191906000526020600020905b81548152906001019060200180831161279357829003601f168201915b5050506003909301549192505060ff1687565b6000546040516345ecd02f60e01b81523360048201526001600160a01b03909116906345ecd02f90602401602060405180830381865afa15801561280b573d6000803e3d6000fd5b505050506040513d601f19601f8201168201806040525081019061282f9190614c7d565b6128725760405162461bcd60e51b81526020600482015260146024820152732737ba1030b71030b1ba34bb329036b2b6b132b960611b60448201526064016108ca565b6006836040516128829190614bd9565b9081526040519081900360200190206004015460ff600160a01b909104166128bc5760405162461bcd60e51b81526004016108ca90614bf5565b600b836040516128cc9190614bd9565b90815260408051602092819003830190206001600160a01b0385166000908152925290205460ff166129405760405162461bcd60e51b815260206004820152601c60248201527f4e6f20646973707574652066726f6d207468697320616464726573730000000060448201526064016108ca565b6000600c846040516129529190614bd9565b90815260408051602092819003830181206001600160a01b03871660009081529352908220549250600a90612988908790614bd9565b908152602001604051809103902082815481106129a7576129a7614c22565b60009182526020918290206040805160e0810190915260049092020180546001600160a01b0381168352919290919083019060ff600160a01b9091041660018111156129f5576129f56146be565b6001811115612a0657612a066146be565b81528154602090910190600160a81b900460ff166003811115612a2b57612a2b6146be565b6003811115612a3c57612a3c6146be565b81528154602090910190600160b01b900460ff166005811115612a6157612a616146be565b6005811115612a7257612a726146be565b815260200160018201548152602001600282018054612a9090614b9f565b80601f0160208091040260200160405190810160405280929190818152602001828054612abc90614b9f565b8015612b095780601f10612ade57610100808354040283529160200191612b09565b820191906000526020600020905b815481529060010190602001808311612aec57829003601f168201915b50505091835250506003919091015460ff1615156020909101529050600181602001516001811115612b3d57612b3d6146be565b14612b7a5760405162461bcd60e51b815260206004820152600d60248201526c4e6f742061206469737075746560981b60448201526064016108ca565b8060c00151612bcb5760405162461bcd60e51b815260206004820152601a60248201527f4469737075746520686173206265656e2072657472616374656400000000000060448201526064016108ca565b6000600686604051612bdd9190614bd9565b90815260200160405180910390206001018054612bf990614b9f565b80601f0160208091040260200160405190810160405280929190818152602001828054612c2590614b9f565b8015612c725780601f10612c4757610100808354040283529160200191612c72565b820191906000526020600020905b815481529060010190602001808311612c5557829003601f168201915b5050600054604051630286b6ab60e31b81529495506001600160a01b031693631435b5589350612caa92508591503390600401614cc9565b602060405180830381865afa158015612cc7573d6000803e3d6000fd5b505050506040513d601f19601f82011682018060405250810190612ceb9190614c7d565b612d075760405162461bcd60e51b81526004016108ca90614cf3565b6001600160a01b0385163303612d5f5760405162461bcd60e51b815260206004820181905260248201527f43616e6e6f7420726561637420746f20796f7572206f776e206469737075746560448201526064016108ca565b600e86604051612d6f9190614bd9565b90815260408051602092819003830190206001600160a01b038816600090815290835281812033825290925290205460ff1615612dee5760405162461bcd60e51b815260206004820152601f60248201527f416c7265616479207265616374656420746f207468697320646973707574650060448201526064016108ca565b600d86604051612dfe9190614bd9565b9081526040805191829003602090810183206001600160a01b03808a166000908152918352838220606086018552338652891515868501908152428787019081528254600181810185559386529590942096516002909502909601805496511515600160a01b026001600160a81b03199097169490921693909317949094178455519281019290925551600e90612e96908990614bd9565b90815260408051602092819003830181206001600160a01b038a166000818152918552838220338084529552929020805460ff19169415159490941790935591612ee1908990614bd9565b604080519182900382208815158352426020840152917fad3ed72ffd0de1372034654a13d68aaf09e3980d9fd90226d703b6ce84bec0d8910160405180910390a4505050505050565b600760205281600052604060002081815481106107e357600080fd5b600080600060606000600b87604051612f5f9190614bd9565b90815260408051602092819003830190206001600160a01b0389166000908152925290205460ff16612fab575050604080516020810190915260008082529350839250829150816131b2565b6000600c88604051612fbd9190614bd9565b90815260408051602092819003830181206001600160a01b038b1660009081529352908220549250600a90612ff3908b90614bd9565b9081526020016040518091039020828154811061301257613012614c22565b60009182526020918290206040805160e0810190915260049092020180546001600160a01b0381168352919290919083019060ff600160a01b909104166001811115613060576130606146be565b6001811115613071576130716146be565b81528154602090910190600160a81b900460ff166003811115613096576130966146be565b60038111156130a7576130a76146be565b81528154602090910190600160b01b900460ff1660058111156130cc576130cc6146be565b60058111156130dd576130dd6146be565b8152602001600182015481526020016002820180546130fb90614b9f565b80601f016020809104026020016040519081016040528092919081815260200182805461312790614b9f565b80156131745780601f1061314957610100808354040283529160200191613174565b820191906000526020600020905b81548152906001019060200180831161315757829003601f168201915b50505091835250506003919091015460ff161515602091820152810151608082015160a083015160c09093015160019a509198509650909450925050505b9295509295909350565b60006006826040516131ce9190614bd9565b9081526040519081900360200190206004015460ff600160a01b909104166132305760405162461bcd60e51b8152602060048201526015602482015274149958dbdc9908191bd95cc81b9bdd08195e1a5cdd605a1b60448201526064016108ca565b6006826040516132409190614bd9565b908152604051908190036020019020600201546001600160a01b031692915050565b600b816040516132729190614bd9565b9081526040805160209281900383019020336000908152925290205460ff166132d45760405162461bcd60e51b8152602060048201526014602482015273139bc81c995d9a595dc81d1bc81c995d1c9858dd60621b60448201526064016108ca565b6000600c826040516132e69190614bd9565b90815260408051602092819003830181203360009081529352908220549250600a90613313908590614bd9565b9081526020016040518091039020828154811061333257613332614c22565b60009182526020909120600490910201600381015490915060ff1661338d5760405162461bcd60e51b8152602060048201526011602482015270105b1c9958591e481c995d1c9858dd1959607a1b60448201526064016108ca565b60038101805460ff19169055604051600090600b906133ad908690614bd9565b90815260408051602092819003830181203360008181529190945291909120805460ff191693151593909317909255906133e8908590614bd9565b60405180910390207f6bc31bfb9ff73229da0fa40a8ab549b0579fa1a8aa5097d6c42c758ad69561828360000160149054906101000a900460ff1642604051613432929190614e83565b60405180910390a3505050565b606060008060008060006006876040516134599190614bd9565b90815260200160405180910390206040518060c001604052908160008201805461348290614b9f565b80601f01602080910402602001604051908101604052809291908181526020018280546134ae90614b9f565b80156134fb5780601f106134d0576101008083540402835291602001916134fb565b820191906000526020600020905b8154815290600101906020018083116134de57829003601f168201915b5050505050815260200160018201805461351490614b9f565b80601f016020809104026020016040519081016040528092919081815260200182805461354090614b9f565b801561358d5780601f106135625761010080835404028352916020019161358d565b820191906000526020600020905b81548152906001019060200180831161357057829003601f168201915b505050918352505060028201546001600160a01b039081166020808401919091526003840154604080850191909152600490940154918216606080850191909152600160a01b90920460ff16151560809384015284015192840151908401519184015160a090940151929b909a50909850919650945092505050565b600460205281600052604060002081815481106107e357600080fd5b6001600160a01b0381166000908152601060209081526040808320805482518185028101850190935280835260609492939192909184015b82821015610d2a57838290600052602060002001805461367c90614b9f565b80601f01602080910402602001604051908101604052809291908181526020018280546136a890614b9f565b80156136f55780601f106136ca576101008083540402835291602001916136f5565b820191906000526020600020905b8154815290600101906020018083116136d857829003601f168201915b50505050508152602001906001019061365d565b6001600160a01b0381166000908152600760209081526040808320805482518185028101850190935280835260609492939192909184015b82821015610d2a57838290600052602060002001805461376090614b9f565b80601f016020809104026020016040519081016040528092919081815260200182805461378c90614b9f565b80156137d95780601f106137ae576101008083540402835291602001916137d9565b820191906000526020600020905b8154815290600101906020018083116137bc57829003601f168201915b505050505081526020019060010190613741565b6001546001600160a01b031633146138345760405162461bcd60e51b815260206004820152600a60248201526927b7363c9030b236b4b760b11b60448201526064016108ca565b6001600160a01b03811661387c5760405162461bcd60e51b815260206004820152600f60248201526e496e76616c6964206164647265737360881b60448201526064016108ca565b600080546001600160a01b0319166001600160a01b0392909216919091179055565b815160208184018101805160088252928201918501919091209190528054829081106107e357600080fd5b6001600160a01b0381166000908152600460209081526040808320805482518185028101850190935280835260609492939192909184015b82821015610d2a57838290600052602060002001805461392090614b9f565b80601f016020809104026020016040519081016040528092919081815260200182805461394c90614b9f565b80156139995780601f1061396e57610100808354040283529160200191613999565b820191906000526020600020905b81548152906001019060200180831161397c57829003601f168201915b505050505081526020019060010190613901565b6000806000606060008060006002886040516139c99190614bd9565b9081526020016040518091039020604051806101000160405290816000820180546139f390614b9f565b80601f0160208091040260200160405190810160405280929190818152602001828054613a1f90614b9f565b8015613a6c5780601f10613a4157610100808354040283529160200191613a6c565b820191906000526020600020905b815481529060010190602001808311613a4f57829003601f168201915b505050918352505060018201546001600160a01b0390811660208301526002830154166040820152600382018054606090920191613aa990614b9f565b80601f0160208091040260200160405190810160405280929190818152602001828054613ad590614b9f565b8015613b225780601f10613af757610100808354040283529160200191613b22565b820191906000526020600020905b815481529060010190602001808311613b0557829003601f168201915b50505091835250506004820154602080830191909152600583015460408084019190915260069093015460ff808216151560608086019190915261010090920416151560809384015260c08501519185015193850151908501519285015160a090950151919d939c509a5090985091965090945092505050565b600281604051613bac9190614bd9565b9081526040519081900360200190206006015460ff61010090910416613c145760405162461bcd60e51b815260206004820152601960248201527f5065726d697373696f6e20646f6573206e6f742065786973740000000000000060448201526064016108ca565b600281604051613c249190614bd9565b9081526040519081900360200190206006015460ff16613c785760405162461bcd60e51b815260206004820152600f60248201526e105b1c9958591e481c995d9bdad959608a1b60448201526064016108ca565b336001600160a01b0316600282604051613c929190614bd9565b908152604051908190036020019020600101546001600160a01b031614613cfb5760405162461bcd60e51b815260206004820152601a60248201527f4f6e6c7920746865207368617265722063616e207265766f6b6500000000000060448201526064016108ca565b6000600282604051613d0d9190614bd9565b908152604051908190036020018120600601805492151560ff19909316929092179091554290600290613d41908490614bd9565b908152602001604051809103902060050181905550600281604051613d669190614bd9565b908152604051908190036020018120600201546001600160a01b0316903390613d90908490614bd9565b60405180910390207f24303533397c7c9c44f2c956200064d35c3459320ddcc9efeea95e384763bceb600285604051613dc99190614bd9565b908152602001604051809103902060030142604051613de9929190614e9e565b60405180910390a450565b600685604051613e049190614bd9565b9081526040519081900360200190206004015460ff600160a01b90910416613e3e5760405162461bcd60e51b81526004016108ca90614bf5565b6000600686604051613e509190614bd9565b90815260200160405180910390206001018054613e6c90614b9f565b80601f0160208091040260200160405190810160405280929190818152602001828054613e9890614b9f565b8015613ee55780601f10613eba57610100808354040283529160200191613ee5565b820191906000526020600020905b815481529060010190602001808311613ec857829003601f168201915b5050600054604051630286b6ab60e31b81529495506001600160a01b031693631435b5589350613f1d92508591503390600401614cc9565b602060405180830381865afa158015613f3a573d6000803e3d6000fd5b505050506040513d601f19601f82011682018060405250810190613f5e9190614c7d565b613f7a5760405162461bcd60e51b81526004016108ca90614cf3565b600b86604051613f8a9190614bd9565b9081526040805160209281900383019020336000908152925290205460ff1615613ff65760405162461bcd60e51b815260206004820152601c60248201527f416c72656164792072657669657765642074686973207265636f72640000000060448201526064016108ca565b6000600a876040516140089190614bd9565b908152604051908190036020018120549150600a90614028908990614bd9565b90815260200160405180910390206040518060e00160405280336001600160a01b03168152602001876001811115614062576140626146be565b8152602001866003811115614079576140796146be565b8152602001856005811115614090576140906146be565b815242602080830191909152604082018a90526001606090920182905283548083018555600094855293819020835160049095020180546001600160a01b031981166001600160a01b03909616958617825591840151939490939284926001600160a81b03191690911790600160a01b908490811115614112576141126146be565b021790555060408201518154829060ff60a81b1916600160a81b83600381111561413e5761413e6146be565b021790555060608201518154829060ff60b01b1916600160b01b83600581111561416a5761416a6146be565b02179055506080820151600182015560a0820151600282019061418d9082614d7a565b5060c091909101516003909101805460ff1916911515919091179055604051600190600b906141bd908a90614bd9565b908152604080516020928190038301812033600090815293529120805460ff1916921515929092179091558190600c906141f8908a90614bd9565b90815260408051602092819003830190203360009081529252812091909155601180549161422583614e3a565b9091555050604051339061423a908490614bd9565b6040518091039020886040516142509190614bd9565b60405180910390207f7113f0bf6c156de91047bc1021122f5e7103953f26c0628fdc1910ea15794b588888884260405161428d9493929190614f35565b60405180910390a450505050505050565b80356001600160a01b03811681146142b557600080fd5b919050565b600080604083850312156142cd57600080fd5b6142d68361429e565b946020939093013593505050565b60005b838110156142ff5781810151838201526020016142e7565b50506000910152565b600081518084526143208160208601602086016142e4565b601f01601f19169290920160200192915050565b6020815260006143476020830184614308565b9392505050565b634e487b7160e01b600052604160045260246000fd5b600082601f83011261437557600080fd5b813567ffffffffffffffff808211156143905761439061434e565b604051601f8301601f19908116603f011681019082821181831017156143b8576143b861434e565b816040528381528660208588010111156143d157600080fd5b836020870160208301376000602085830101528094505050505092915050565b803560ff811681146142b557600080fd5b60008060006060848603121561441757600080fd5b833567ffffffffffffffff81111561442e57600080fd5b61443a86828701614364565b935050614449602085016143f1565b9150614457604085016143f1565b90509250925092565b60006020828403121561447257600080fd5b6143478261429e565b600060208083016020845280855180835260408601915060408160051b87010192506020870160005b828110156144d257603f198886030184526144c0858351614308565b945092850192908501906001016144a4565b5092979650505050505050565b600080604083850312156144f257600080fd5b823567ffffffffffffffff81111561450957600080fd5b61451585828601614364565b9250506145246020840161429e565b90509250929050565b602080825282518282018190526000919060409081850190868401855b8281101561458457815180516001600160a01b0316855286810151151587860152850151858501526060909301929085019060010161454a565b5091979650505050505050565b6000806000606084860312156145a657600080fd5b833567ffffffffffffffff808211156145be57600080fd5b6145ca87838801614364565b945060208601359150808211156145e057600080fd5b506145ed86828701614364565b9250506144576040850161429e565b6000806000806080858703121561461257600080fd5b843567ffffffffffffffff8082111561462a57600080fd5b61463688838901614364565b9550614644602088016143f1565b9450614652604088016143f1565b9350606087013591508082111561466857600080fd5b5061467587828801614364565b91505092959194509250565b60006020828403121561469357600080fd5b813567ffffffffffffffff8111156146aa57600080fd5b6146b684828501614364565b949350505050565b634e487b7160e01b600052602160045260246000fd5b600281106146e4576146e46146be565b9052565b600481106146e4576146e46146be565b600681106146e4576146e46146be565b600060208083018184528085518083526040925060408601915060408160051b87010184880160005b838110156147d057888303603f19018552815180516001600160a01b031684528781015160e0906147648a8701826146d4565b5087820151614775898701826146e8565b50606080830151614788828801826146f8565b5050608080830151818701525060a08083015182828801526147ac83880182614308565b60c09485015115159790940196909652505094870194925090860190600101614731565b509098975050505050505050565b6000806000606084860312156147f357600080fd5b833567ffffffffffffffff81111561480a57600080fd5b61481686828701614364565b9350506148256020850161429e565b9150604084013590509250925092565b60006101008083526148498184018c614308565b6001600160a01b038b811660208601528a166040850152838103606085015290506148748189614308565b6080840197909752505060a081019390935290151560c0830152151560e090910152949350505050565b600080604083850312156148b157600080fd5b823567ffffffffffffffff808211156148c957600080fd5b6148d586838701614364565b935060208501359150808211156148eb57600080fd5b506148f885828601614364565b9150509250929050565b60c08152600061491560c0830189614308565b82810360208401526149278189614308565b6001600160a01b0397881660408501526060840196909652505091909316608082015291151560a09092019190915292915050565b60008060006060848603121561497157600080fd5b833567ffffffffffffffff81111561498857600080fd5b61499486828701614364565b9350506149a36020850161429e565b91506144576040850161429e565b600080604083850312156149c457600080fd5b823567ffffffffffffffff8111156149db57600080fd5b6149e785828601614364565b95602094909401359450505050565b6001600160a01b0388168152614a0f60208201886146d4565b614a1c60408201876146e8565b614a2960608201866146f8565b83608082015260e060a08201526000614a4560e0830185614308565b905082151560c083015298975050505050505050565b8015158114614a6957600080fd5b50565b600080600060608486031215614a8157600080fd5b833567ffffffffffffffff811115614a9857600080fd5b614aa486828701614364565b935050614ab36020850161429e565b91506040840135614ac381614a5b565b809150509250925092565b8515158152614ae060208201866146d4565b83604082015260a060608201526000614afc60a0830185614308565b905082151560808301529695505050505050565b60a081526000614b2360a0830188614308565b6001600160a01b039687166020840152604083019590955250919093166060820152911515608090920191909152919050565b86151581526001600160a01b0386811660208301528516604082015260c060608201819052600090614b8a90830186614308565b60808301949094525060a00152949350505050565b600181811c90821680614bb357607f821691505b602082108103614bd357634e487b7160e01b600052602260045260246000fd5b50919050565b60008251614beb8184602087016142e4565b9190910192915050565b602080825260139082015272149958dbdc99081b9bdd08185b98da1bdc9959606a1b604082015260600190565b634e487b7160e01b600052603260045260246000fd5b60a08101614c4682886146e8565b614c5360208301876146e8565b614c6060408301866146f8565b614c6d60608301856146f8565b8260808301529695505050505050565b600060208284031215614c8f57600080fd5b815161434781614a5b565b6020808252601590820152742737ba1030903b32b934b334b2b21036b2b6b132b960591b604082015260600190565b604081526000614cdc6040830185614308565b905060018060a01b03831660208301529392505050565b60208082526018908201527f4e6f2061636365737320746f2074686973207265636f72640000000000000000604082015260600190565b601f821115611e89576000816000526020600020601f850160051c81016020861015614d535750805b601f850160051c820191505b81811015614d7257828155600101614d5f565b505050505050565b815167ffffffffffffffff811115614d9457614d9461434e565b614da881614da28454614b9f565b84614d2a565b602080601f831160018114614ddd5760008415614dc55750858301515b600019600386901b1c1916600185901b178555614d72565b600085815260208120601f198616915b82811015614e0c57888601518255948401946001909101908401614ded565b5085821015614e2a5787850151600019600388901b60f8161c191681555b5050505050600190811b01905550565b600060018201614e5a57634e487b7160e01b600052601160045260246000fd5b5060010190565b604081526000614e746040830185614308565b90508260208301529392505050565b60408101614e9182856146d4565b8260208301529392505050565b604081526000808454614eb081614b9f565b8060408601526060600180841660008114614ed25760018114614eee57614f20565b60ff1985166060890152606084151560051b8901019550614f20565b8960005260208060002060005b86811015614f165781548b8201870152908401908201614efb565b8a01606001975050505b50505050506020929092019290925292915050565b60808101614f4382876146d4565b614f5060208301866146e8565b614f5d60408301856146f8565b8260608301529594505050505056fea2646970667358221220468f14a90c87ec4979288d9117653989fa919e7b9ebf9d032484a5ba339bfde064736f6c63430008170033",
  "linkReferences": {},
  "deployedLinkReferences": {}
}