{
  "_format": "hh-sol-artifact-1",
  "contractName": "HealthRecordCore",
  "sourceName": "contracts/HealthRecordCore.sol",
  "abi": [
    {
      "inputs": [
        {
          "internalType": "address",
          "name": "_memberRoleManager",
          "type": "address"
        }
      ],
      "stateMutability": "nonpayable",
      "type": "constructor"
    },
    {
      "anonymous": false,
      "inputs": [
        {
          "indexed": true,
          "internalType": "address",
          "name": "oldAdmin",
          "type": "address"
        },
        {
          "indexed": true,
          "internalType": "address",
          "name": "newAdmin",
          "type": "address"
        },
        {
          "indexed": false,
          "internalType": "uint256",
          "name": "timestamp",
          "type": "uint256"
        }
      ],
      "name": "AdminTransferred",
      "type": "event"
    },
    {
      "anonymous": false,
      "inputs": [
        {
          "indexed": true,
          "internalType": "string",
          "name": "recordHash",
          "type": "string"
        },
        {
          "indexed": true,
          "internalType": "bytes32",
          "name": "disputerIdHash",
          "type": "bytes32"
        },
        {
          "indexed": false,
          "internalType": "enum HealthRecordCore.DisputeSeverity",
          "name": "oldSeverity",
          "type": "uint8"
        },
        {
          "indexed": false,
          "internalType": "enum HealthRecordCore.DisputeSeverity",
          "name": "newSeverity",
          "type": "uint8"
        },
        {
          "indexed": false,
          "internalType": "enum HealthRecordCore.DisputeCulpability",
          "name": "oldCulpability",
          "type": "uint8"
        },
        {
          "indexed": false,
          "internalType": "enum HealthRecordCore.DisputeCulpability",
          "name": "newCulpability",
          "type": "uint8"
        },
        {
          "indexed": false,
          "internalType": "uint256",
          "name": "timestamp",
          "type": "uint256"
        }
      ],
      "name": "DisputeModification",
      "type": "event"
    },
    {
      "anonymous": false,
      "inputs": [
        {
          "indexed": true,
          "internalType": "string",
          "name": "recordHash",
          "type": "string"
        },
        {
          "indexed": true,
          "internalType": "bytes32",
          "name": "reactorIdHash",
          "type": "bytes32"
        },
        {
          "indexed": true,
          "internalType": "bytes32",
          "name": "disputerIdHash",
          "type": "bytes32"
        },
        {
          "indexed": false,
          "internalType": "bool",
          "name": "supportsDispute",
          "type": "bool"
        },
        {
          "indexed": false,
          "internalType": "uint256",
          "name": "timestamp",
          "type": "uint256"
        }
      ],
      "name": "DisputeReaction",
      "type": "event"
    },
    {
      "anonymous": false,
      "inputs": [
        {
          "indexed": true,
          "internalType": "string",
          "name": "recordHash",
          "type": "string"
        },
        {
          "indexed": true,
          "internalType": "bytes32",
          "name": "disputerIdHash",
          "type": "bytes32"
        },
        {
          "indexed": false,
          "internalType": "uint256",
          "name": "timestamp",
          "type": "uint256"
        }
      ],
      "name": "DisputeRetracted",
      "type": "event"
    },
    {
      "anonymous": false,
      "inputs": [
        {
          "indexed": true,
          "internalType": "string",
          "name": "recordHash",
          "type": "string"
        },
        {
          "indexed": true,
          "internalType": "bytes32",
          "name": "reactorIdHash",
          "type": "bytes32"
        },
        {
          "indexed": true,
          "internalType": "bytes32",
          "name": "disputerIdHash",
          "type": "bytes32"
        },
        {
          "indexed": false,
          "internalType": "bool",
          "name": "oldSupport",
          "type": "bool"
        },
        {
          "indexed": false,
          "internalType": "bool",
          "name": "newSupport",
          "type": "bool"
        },
        {
          "indexed": false,
          "internalType": "uint256",
          "name": "timestamp",
          "type": "uint256"
        }
      ],
      "name": "ReactionModified",
      "type": "event"
    },
    {
      "anonymous": false,
      "inputs": [
        {
          "indexed": true,
          "internalType": "string",
          "name": "recordHash",
          "type": "string"
        },
        {
          "indexed": true,
          "internalType": "bytes32",
          "name": "reactorIdHash",
          "type": "bytes32"
        },
        {
          "indexed": true,
          "internalType": "bytes32",
          "name": "disputerIdHash",
          "type": "bytes32"
        },
        {
          "indexed": false,
          "internalType": "uint256",
          "name": "timestamp",
          "type": "uint256"
        }
      ],
      "name": "ReactionRetracted",
      "type": "event"
    },
    {
      "anonymous": false,
      "inputs": [
        {
          "indexed": true,
          "internalType": "string",
          "name": "recordId",
          "type": "string"
        },
        {
          "indexed": true,
          "internalType": "string",
          "name": "recordHash",
          "type": "string"
        },
        {
          "indexed": true,
          "internalType": "bytes32",
          "name": "subjectIdHash",
          "type": "bytes32"
        },
        {
          "indexed": false,
          "internalType": "uint256",
          "name": "timestamp",
          "type": "uint256"
        }
      ],
      "name": "RecordAnchored",
      "type": "event"
    },
    {
      "anonymous": false,
      "inputs": [
        {
          "indexed": true,
          "internalType": "string",
          "name": "recordHash",
          "type": "string"
        },
        {
          "indexed": true,
          "internalType": "string",
          "name": "recordId",
          "type": "string"
        },
        {
          "indexed": true,
          "internalType": "bytes32",
          "name": "disputerIdHash",
          "type": "bytes32"
        },
        {
          "indexed": false,
          "internalType": "enum HealthRecordCore.DisputeSeverity",
          "name": "severity",
          "type": "uint8"
        },
        {
          "indexed": false,
          "internalType": "enum HealthRecordCore.DisputeCulpability",
          "name": "culpability",
          "type": "uint8"
        },
        {
          "indexed": false,
          "internalType": "uint256",
          "name": "timestamp",
          "type": "uint256"
        }
      ],
      "name": "RecordDisputed",
      "type": "event"
    },
    {
      "anonymous": false,
      "inputs": [
        {
          "indexed": true,
          "internalType": "string",
          "name": "recordId",
          "type": "string"
        },
        {
          "indexed": true,
          "internalType": "string",
          "name": "newHash",
          "type": "string"
        },
        {
          "indexed": false,
          "internalType": "bytes32",
          "name": "addedBy",
          "type": "bytes32"
        },
        {
          "indexed": false,
          "internalType": "uint256",
          "name": "timestamp",
          "type": "uint256"
        }
      ],
      "name": "RecordHashAdded",
      "type": "event"
    },
    {
      "anonymous": false,
      "inputs": [
        {
          "indexed": true,
          "internalType": "string",
          "name": "recordId",
          "type": "string"
        },
        {
          "indexed": true,
          "internalType": "string",
          "name": "recordHash",
          "type": "string"
        },
        {
          "indexed": false,
          "internalType": "uint256",
          "name": "timestamp",
          "type": "uint256"
        }
      ],
      "name": "RecordHashRetracted",
      "type": "event"
    },
    {
      "anonymous": false,
      "inputs": [
        {
          "indexed": true,
          "internalType": "string",
          "name": "recordId",
          "type": "string"
        },
        {
          "indexed": true,
          "internalType": "bytes32",
          "name": "subjectIdHash",
          "type": "bytes32"
        },
        {
          "indexed": false,
          "internalType": "uint256",
          "name": "timestamp",
          "type": "uint256"
        }
      ],
      "name": "RecordReanchored",
      "type": "event"
    },
    {
      "anonymous": false,
      "inputs": [
        {
          "indexed": true,
          "internalType": "string",
          "name": "recordId",
          "type": "string"
        },
        {
          "indexed": true,
          "internalType": "bytes32",
          "name": "subjectIdHash",
          "type": "bytes32"
        },
        {
          "indexed": false,
          "internalType": "uint256",
          "name": "timestamp",
          "type": "uint256"
        }
      ],
      "name": "RecordUnanchored",
      "type": "event"
    },
    {
      "anonymous": false,
      "inputs": [
        {
          "indexed": true,
          "internalType": "string",
          "name": "recordHash",
          "type": "string"
        },
        {
          "indexed": true,
          "internalType": "string",
          "name": "recordId",
          "type": "string"
        },
        {
          "indexed": true,
          "internalType": "bytes32",
          "name": "verifierIdHash",
          "type": "bytes32"
        },
        {
          "indexed": false,
          "internalType": "enum HealthRecordCore.VerificationLevel",
          "name": "level",
          "type": "uint8"
        },
        {
          "indexed": false,
          "internalType": "uint256",
          "name": "timestamp",
          "type": "uint256"
        }
      ],
      "name": "RecordVerified",
      "type": "event"
    },
    {
      "anonymous": false,
      "inputs": [
        {
          "indexed": true,
          "internalType": "bytes32",
          "name": "subjectIdHash",
          "type": "bytes32"
        },
        {
          "indexed": true,
          "internalType": "string",
          "name": "recordId",
          "type": "string"
        },
        {
          "indexed": true,
          "internalType": "string",
          "name": "noteHash",
          "type": "string"
        },
        {
          "indexed": false,
          "internalType": "uint256",
          "name": "flagIndex",
          "type": "uint256"
        },
        {
          "indexed": false,
          "internalType": "uint256",
          "name": "timestamp",
          "type": "uint256"
        }
      ],
      "name": "UnacceptedUpdateFlagged",
      "type": "event"
    },
    {
      "anonymous": false,
      "inputs": [
        {
          "indexed": true,
          "internalType": "bytes32",
          "name": "subjectIdHash",
          "type": "bytes32"
        },
        {
          "indexed": true,
          "internalType": "uint256",
          "name": "flagIndex",
          "type": "uint256"
        },
        {
          "indexed": false,
          "internalType": "enum HealthRecordCore.ResolutionType",
          "name": "resolution",
          "type": "uint8"
        },
        {
          "indexed": false,
          "internalType": "uint256",
          "name": "timestamp",
          "type": "uint256"
        }
      ],
      "name": "UnacceptedUpdateResolved",
      "type": "event"
    },
    {
      "anonymous": false,
      "inputs": [
        {
          "indexed": true,
          "internalType": "string",
          "name": "recordHash",
          "type": "string"
        },
        {
          "indexed": true,
          "internalType": "bytes32",
          "name": "verifierIdHash",
          "type": "bytes32"
        },
        {
          "indexed": false,
          "internalType": "enum HealthRecordCore.VerificationLevel",
          "name": "oldLevel",
          "type": "uint8"
        },
        {
          "indexed": false,
          "internalType": "enum HealthRecordCore.VerificationLevel",
          "name": "newLevel",
          "type": "uint8"
        },
        {
          "indexed": false,
          "internalType": "uint256",
          "name": "timestamp",
          "type": "uint256"
        }
      ],
      "name": "VerificationLevelModified",
      "type": "event"
    },
    {
      "anonymous": false,
      "inputs": [
        {
          "indexed": true,
          "internalType": "string",
          "name": "recordHash",
          "type": "string"
        },
        {
          "indexed": true,
          "internalType": "bytes32",
          "name": "verifierIdHash",
          "type": "bytes32"
        },
        {
          "indexed": false,
          "internalType": "uint256",
          "name": "timestamp",
          "type": "uint256"
        }
      ],
      "name": "VerificationRetracted",
      "type": "event"
    },
    {
      "inputs": [
        {
          "internalType": "bytes32",
          "name": "",
          "type": "bytes32"
        }
      ],
      "name": "activeUnacceptedFlagCount",
      "outputs": [
        {
          "internalType": "uint256",
          "name": "",
          "type": "uint256"
        }
      ],
      "stateMutability": "view",
      "type": "function"
    },
    {
      "inputs": [
        {
          "internalType": "string",
          "name": "recordId",
          "type": "string"
        },
        {
          "internalType": "string",
          "name": "newHash",
          "type": "string"
        }
      ],
      "name": "addRecordHash",
      "outputs": [],
      "stateMutability": "nonpayable",
      "type": "function"
    },
    {
      "inputs": [],
      "name": "admin",
      "outputs": [
        {
          "internalType": "address",
          "name": "",
          "type": "address"
        }
      ],
      "stateMutability": "view",
      "type": "function"
    },
    {
      "inputs": [
        {
          "internalType": "string",
          "name": "recordId",
          "type": "string"
        },
        {
          "internalType": "string",
          "name": "recordHash",
          "type": "string"
        }
      ],
      "name": "anchorRecord",
      "outputs": [],
      "stateMutability": "nonpayable",
      "type": "function"
    },
    {
      "inputs": [
        {
          "internalType": "string",
          "name": "",
          "type": "string"
        },
        {
          "internalType": "bytes32",
          "name": "",
          "type": "bytes32"
        }
      ],
      "name": "currentlyDisputed",
      "outputs": [
        {
          "internalType": "bool",
          "name": "",
          "type": "bool"
        }
      ],
      "stateMutability": "view",
      "type": "function"
    },
    {
      "inputs": [
        {
          "internalType": "string",
          "name": "",
          "type": "string"
        },
        {
          "internalType": "bytes32",
          "name": "",
          "type": "bytes32"
        },
        {
          "internalType": "bytes32",
          "name": "",
          "type": "bytes32"
        }
      ],
      "name": "currentlyReacted",
      "outputs": [
        {
          "internalType": "bool",
          "name": "",
          "type": "bool"
        }
      ],
      "stateMutability": "view",
      "type": "function"
    },
    {
      "inputs": [
        {
          "internalType": "string",
          "name": "",
          "type": "string"
        },
        {
          "internalType": "bytes32",
          "name": "",
          "type": "bytes32"
        }
      ],
      "name": "currentlyVerified",
      "outputs": [
        {
          "internalType": "bool",
          "name": "",
          "type": "bool"
        }
      ],
      "stateMutability": "view",
      "type": "function"
    },
    {
      "inputs": [
        {
          "internalType": "string",
          "name": "",
          "type": "string"
        },
        {
          "internalType": "bytes32",
          "name": "",
          "type": "bytes32"
        }
      ],
      "name": "disputeIndex",
      "outputs": [
        {
          "internalType": "uint256",
          "name": "",
          "type": "uint256"
        }
      ],
      "stateMutability": "view",
      "type": "function"
    },
    {
      "inputs": [
        {
          "internalType": "string",
          "name": "",
          "type": "string"
        },
        {
          "internalType": "bytes32",
          "name": "",
          "type": "bytes32"
        },
        {
          "internalType": "uint256",
          "name": "",
          "type": "uint256"
        }
      ],
      "name": "disputeReactions",
      "outputs": [
        {
          "internalType": "bytes32",
          "name": "reactorIdHash",
          "type": "bytes32"
        },
        {
          "internalType": "bool",
          "name": "supportsDispute",
          "type": "bool"
        },
        {
          "internalType": "uint256",
          "name": "timestamp",
          "type": "uint256"
        },
        {
          "internalType": "bool",
          "name": "isActive",
          "type": "bool"
        }
      ],
      "stateMutability": "view",
      "type": "function"
    },
    {
      "inputs": [
        {
          "internalType": "string",
          "name": "recordId",
          "type": "string"
        },
        {
          "internalType": "string",
          "name": "recordHash",
          "type": "string"
        },
        {
          "internalType": "uint8",
          "name": "severity",
          "type": "uint8"
        },
        {
          "internalType": "uint8",
          "name": "culpability",
          "type": "uint8"
        },
        {
          "internalType": "string",
          "name": "notes",
          "type": "string"
        }
      ],
      "name": "disputeRecord",
      "outputs": [],
      "stateMutability": "nonpayable",
      "type": "function"
    },
    {
      "inputs": [
        {
          "internalType": "string",
          "name": "",
          "type": "string"
        },
        {
          "internalType": "uint256",
          "name": "",
          "type": "uint256"
        }
      ],
      "name": "disputes",
      "outputs": [
        {
          "internalType": "bytes32",
          "name": "disputerIdHash",
          "type": "bytes32"
        },
        {
          "internalType": "string",
          "name": "recordId",
          "type": "string"
        },
        {
          "internalType": "enum HealthRecordCore.DisputeSeverity",
          "name": "severity",
          "type": "uint8"
        },
        {
          "internalType": "enum HealthRecordCore.DisputeCulpability",
          "name": "culpability",
          "type": "uint8"
        },
        {
          "internalType": "string",
          "name": "notes",
          "type": "string"
        },
        {
          "internalType": "uint256",
          "name": "createdAt",
          "type": "uint256"
        },
        {
          "internalType": "bool",
          "name": "isActive",
          "type": "bool"
        }
      ],
      "stateMutability": "view",
      "type": "function"
    },
    {
      "inputs": [
        {
          "internalType": "bytes32",
          "name": "",
          "type": "bytes32"
        },
        {
          "internalType": "uint256",
          "name": "",
          "type": "uint256"
        }
      ],
      "name": "disputesByUser",
      "outputs": [
        {
          "internalType": "string",
          "name": "",
          "type": "string"
        }
      ],
      "stateMutability": "view",
      "type": "function"
    },
    {
      "inputs": [
        {
          "internalType": "string",
          "name": "recordHash",
          "type": "string"
        }
      ],
      "name": "doesHashExist",
      "outputs": [
        {
          "internalType": "bool",
          "name": "",
          "type": "bool"
        }
      ],
      "stateMutability": "view",
      "type": "function"
    },
    {
      "inputs": [
        {
          "internalType": "bytes32",
          "name": "subjectIdHash",
          "type": "bytes32"
        },
        {
          "internalType": "string",
          "name": "recordId",
          "type": "string"
        },
        {
          "internalType": "string",
          "name": "noteHash",
          "type": "string"
        }
      ],
      "name": "flagUnacceptedUpdate",
      "outputs": [],
      "stateMutability": "nonpayable",
      "type": "function"
    },
    {
      "inputs": [
        {
          "internalType": "string",
          "name": "recordId",
          "type": "string"
        }
      ],
      "name": "getActiveRecordSubjects",
      "outputs": [
        {
          "internalType": "bytes32[]",
          "name": "",
          "type": "bytes32[]"
        }
      ],
      "stateMutability": "view",
      "type": "function"
    },
    {
      "inputs": [
        {
          "internalType": "bytes32",
          "name": "userIdHash",
          "type": "bytes32"
        }
      ],
      "name": "getActiveSubjectMedicalHistory",
      "outputs": [
        {
          "internalType": "string[]",
          "name": "",
          "type": "string[]"
        }
      ],
      "stateMutability": "view",
      "type": "function"
    },
    {
      "inputs": [
        {
          "internalType": "bytes32",
          "name": "subjectIdHash",
          "type": "bytes32"
        }
      ],
      "name": "getActiveUnacceptedFlagCount",
      "outputs": [
        {
          "internalType": "uint256",
          "name": "",
          "type": "uint256"
        }
      ],
      "stateMutability": "view",
      "type": "function"
    },
    {
      "inputs": [
        {
          "internalType": "string",
          "name": "recordHash",
          "type": "string"
        },
        {
          "internalType": "bytes32",
          "name": "disputerIdHash",
          "type": "bytes32"
        }
      ],
      "name": "getDisputeReactions",
      "outputs": [
        {
          "components": [
            {
              "internalType": "bytes32",
              "name": "reactorIdHash",
              "type": "bytes32"
            },
            {
              "internalType": "bool",
              "name": "supportsDispute",
              "type": "bool"
            },
            {
              "internalType": "uint256",
              "name": "timestamp",
              "type": "uint256"
            },
            {
              "internalType": "bool",
              "name": "isActive",
              "type": "bool"
            }
          ],
          "internalType": "struct HealthRecordCore.Reaction[]",
          "name": "",
          "type": "tuple[]"
        }
      ],
      "stateMutability": "view",
      "type": "function"
    },
    {
      "inputs": [
        {
          "internalType": "string",
          "name": "recordHash",
          "type": "string"
        }
      ],
      "name": "getDisputeStats",
      "outputs": [
        {
          "internalType": "uint256",
          "name": "total",
          "type": "uint256"
        },
        {
          "internalType": "uint256",
          "name": "active",
          "type": "uint256"
        }
      ],
      "stateMutability": "view",
      "type": "function"
    },
    {
      "inputs": [
        {
          "internalType": "string",
          "name": "recordHash",
          "type": "string"
        }
      ],
      "name": "getDisputeStatsBySeverity",
      "outputs": [
        {
          "internalType": "uint256",
          "name": "total",
          "type": "uint256"
        },
        {
          "internalType": "uint256",
          "name": "active",
          "type": "uint256"
        },
        {
          "internalType": "uint256",
          "name": "negligibleCount",
          "type": "uint256"
        },
        {
          "internalType": "uint256",
          "name": "moderateCount",
          "type": "uint256"
        },
        {
          "internalType": "uint256",
          "name": "majorCount",
          "type": "uint256"
        }
      ],
      "stateMutability": "view",
      "type": "function"
    },
    {
      "inputs": [
        {
          "internalType": "string",
          "name": "recordHash",
          "type": "string"
        }
      ],
      "name": "getDisputes",
      "outputs": [
        {
          "components": [
            {
              "internalType": "bytes32",
              "name": "disputerIdHash",
              "type": "bytes32"
            },
            {
              "internalType": "string",
              "name": "recordId",
              "type": "string"
            },
            {
              "internalType": "enum HealthRecordCore.DisputeSeverity",
              "name": "severity",
              "type": "uint8"
            },
            {
              "internalType": "enum HealthRecordCore.DisputeCulpability",
              "name": "culpability",
              "type": "uint8"
            },
            {
              "internalType": "string",
              "name": "notes",
              "type": "string"
            },
            {
              "internalType": "uint256",
              "name": "createdAt",
              "type": "uint256"
            },
            {
              "internalType": "bool",
              "name": "isActive",
              "type": "bool"
            }
          ],
          "internalType": "struct HealthRecordCore.Dispute[]",
          "name": "",
          "type": "tuple[]"
        }
      ],
      "stateMutability": "view",
      "type": "function"
    },
    {
      "inputs": [
        {
          "internalType": "string",
          "name": "recordHash",
          "type": "string"
        },
        {
          "internalType": "bytes32",
          "name": "disputerIdHash",
          "type": "bytes32"
        }
      ],
      "name": "getReactionStats",
      "outputs": [
        {
          "internalType": "uint256",
          "name": "totalReactions",
          "type": "uint256"
        },
        {
          "internalType": "uint256",
          "name": "activeSupports",
          "type": "uint256"
        },
        {
          "internalType": "uint256",
          "name": "activeOpposes",
          "type": "uint256"
        }
      ],
      "stateMutability": "view",
      "type": "function"
    },
    {
      "inputs": [
        {
          "internalType": "string",
          "name": "recordHash",
          "type": "string"
        }
      ],
      "name": "getRecordHashReviewSummary",
      "outputs": [
        {
          "internalType": "uint256",
          "name": "activeVerifications",
          "type": "uint256"
        },
        {
          "internalType": "uint256",
          "name": "activeDisputes",
          "type": "uint256"
        },
        {
          "internalType": "uint256",
          "name": "verificationCount",
          "type": "uint256"
        },
        {
          "internalType": "uint256",
          "name": "disputeCount",
          "type": "uint256"
        }
      ],
      "stateMutability": "view",
      "type": "function"
    },
    {
      "inputs": [
        {
          "internalType": "string",
          "name": "recordHash",
          "type": "string"
        }
      ],
      "name": "getRecordIdForHash",
      "outputs": [
        {
          "internalType": "string",
          "name": "",
          "type": "string"
        }
      ],
      "stateMutability": "view",
      "type": "function"
    },
    {
      "inputs": [
        {
          "internalType": "string",
          "name": "recordId",
          "type": "string"
        }
      ],
      "name": "getRecordSubjects",
      "outputs": [
        {
          "internalType": "bytes32[]",
          "name": "",
          "type": "bytes32[]"
        }
      ],
      "stateMutability": "view",
      "type": "function"
    },
    {
      "inputs": [
        {
          "internalType": "string",
          "name": "recordId",
          "type": "string"
        }
      ],
      "name": "getRecordVersionHistory",
      "outputs": [
        {
          "internalType": "string[]",
          "name": "",
          "type": "string[]"
        }
      ],
      "stateMutability": "view",
      "type": "function"
    },
    {
      "inputs": [
        {
          "internalType": "bytes32",
          "name": "userIdHash",
          "type": "bytes32"
        }
      ],
      "name": "getSubjectMedicalHistory",
      "outputs": [
        {
          "internalType": "string[]",
          "name": "",
          "type": "string[]"
        }
      ],
      "stateMutability": "view",
      "type": "function"
    },
    {
      "inputs": [
        {
          "internalType": "string",
          "name": "recordId",
          "type": "string"
        }
      ],
      "name": "getSubjectStats",
      "outputs": [
        {
          "internalType": "uint256",
          "name": "total",
          "type": "uint256"
        },
        {
          "internalType": "uint256",
          "name": "active",
          "type": "uint256"
        }
      ],
      "stateMutability": "view",
      "type": "function"
    },
    {
      "inputs": [],
      "name": "getTotalAnchoredRecords",
      "outputs": [
        {
          "internalType": "uint256",
          "name": "",
          "type": "uint256"
        }
      ],
      "stateMutability": "view",
      "type": "function"
    },
    {
      "inputs": [],
      "name": "getTotalReviewStats",
      "outputs": [
        {
          "internalType": "uint256",
          "name": "verificationCount",
          "type": "uint256"
        },
        {
          "internalType": "uint256",
          "name": "disputeCount",
          "type": "uint256"
        }
      ],
      "stateMutability": "view",
      "type": "function"
    },
    {
      "inputs": [],
      "name": "getTotalUnacceptedFlagStats",
      "outputs": [
        {
          "internalType": "uint256",
          "name": "",
          "type": "uint256"
        }
      ],
      "stateMutability": "view",
      "type": "function"
    },
    {
      "inputs": [
        {
          "internalType": "bytes32",
          "name": "subjectIdHash",
          "type": "bytes32"
        },
        {
          "internalType": "uint256",
          "name": "flagIndex",
          "type": "uint256"
        }
      ],
      "name": "getUnacceptedUpdateFlag",
      "outputs": [
        {
          "internalType": "string",
          "name": "recordId",
          "type": "string"
        },
        {
          "internalType": "string",
          "name": "noteHash",
          "type": "string"
        },
        {
          "internalType": "uint256",
          "name": "createdAt",
          "type": "uint256"
        },
        {
          "internalType": "enum HealthRecordCore.ResolutionType",
          "name": "resolution",
          "type": "uint8"
        },
        {
          "internalType": "uint256",
          "name": "resolvedAt",
          "type": "uint256"
        },
        {
          "internalType": "bool",
          "name": "isActive",
          "type": "bool"
        }
      ],
      "stateMutability": "view",
      "type": "function"
    },
    {
      "inputs": [
        {
          "internalType": "bytes32",
          "name": "subjectIdHash",
          "type": "bytes32"
        }
      ],
      "name": "getUnacceptedUpdateFlags",
      "outputs": [
        {
          "components": [
            {
              "internalType": "string",
              "name": "recordId",
              "type": "string"
            },
            {
              "internalType": "string",
              "name": "noteHash",
              "type": "string"
            },
            {
              "internalType": "uint256",
              "name": "createdAt",
              "type": "uint256"
            },
            {
              "internalType": "enum HealthRecordCore.ResolutionType",
              "name": "resolution",
              "type": "uint8"
            },
            {
              "internalType": "uint256",
              "name": "resolvedAt",
              "type": "uint256"
            },
            {
              "internalType": "bool",
              "name": "isActive",
              "type": "bool"
            }
          ],
          "internalType": "struct HealthRecordCore.UnacceptedUpdateFlag[]",
          "name": "",
          "type": "tuple[]"
        }
      ],
      "stateMutability": "view",
      "type": "function"
    },
    {
      "inputs": [
        {
          "internalType": "string",
          "name": "recordHash",
          "type": "string"
        },
        {
          "internalType": "bytes32",
          "name": "userIdHash",
          "type": "bytes32"
        }
      ],
      "name": "getUserDispute",
      "outputs": [
        {
          "internalType": "bool",
          "name": "exists",
          "type": "bool"
        },
        {
          "internalType": "string",
          "name": "recordId",
          "type": "string"
        },
        {
          "internalType": "enum HealthRecordCore.DisputeSeverity",
          "name": "severity",
          "type": "uint8"
        },
        {
          "internalType": "enum HealthRecordCore.DisputeCulpability",
          "name": "culpability",
          "type": "uint8"
        },
        {
          "internalType": "string",
          "name": "notes",
          "type": "string"
        },
        {
          "internalType": "uint256",
          "name": "createdAt",
          "type": "uint256"
        },
        {
          "internalType": "bool",
          "name": "isActive",
          "type": "bool"
        }
      ],
      "stateMutability": "view",
      "type": "function"
    },
    {
      "inputs": [
        {
          "internalType": "bytes32",
          "name": "userIdHash",
          "type": "bytes32"
        }
      ],
      "name": "getUserDisputes",
      "outputs": [
        {
          "internalType": "string[]",
          "name": "",
          "type": "string[]"
        }
      ],
      "stateMutability": "view",
      "type": "function"
    },
    {
      "inputs": [
        {
          "internalType": "string",
          "name": "recordHash",
          "type": "string"
        },
        {
          "internalType": "bytes32",
          "name": "disputerIdHash",
          "type": "bytes32"
        },
        {
          "internalType": "bytes32",
          "name": "reactorIdHash",
          "type": "bytes32"
        }
      ],
      "name": "getUserReaction",
      "outputs": [
        {
          "internalType": "bool",
          "name": "exists",
          "type": "bool"
        },
        {
          "internalType": "bool",
          "name": "supportsDispute",
          "type": "bool"
        },
        {
          "internalType": "uint256",
          "name": "timestamp",
          "type": "uint256"
        },
        {
          "internalType": "bool",
          "name": "isActive",
          "type": "bool"
        }
      ],
      "stateMutability": "view",
      "type": "function"
    },
    {
      "inputs": [
        {
          "internalType": "bytes32",
          "name": "userIdHash",
          "type": "bytes32"
        }
      ],
      "name": "getUserReviewHistory",
      "outputs": [
        {
          "internalType": "uint256",
          "name": "userVerifications",
          "type": "uint256"
        },
        {
          "internalType": "uint256",
          "name": "userDisputes",
          "type": "uint256"
        }
      ],
      "stateMutability": "view",
      "type": "function"
    },
    {
      "inputs": [
        {
          "internalType": "string",
          "name": "recordHash",
          "type": "string"
        },
        {
          "internalType": "bytes32",
          "name": "userIdHash",
          "type": "bytes32"
        }
      ],
      "name": "getUserVerification",
      "outputs": [
        {
          "internalType": "bool",
          "name": "exists",
          "type": "bool"
        },
        {
          "internalType": "string",
          "name": "recordId",
          "type": "string"
        },
        {
          "internalType": "enum HealthRecordCore.VerificationLevel",
          "name": "level",
          "type": "uint8"
        },
        {
          "internalType": "uint256",
          "name": "createdAt",
          "type": "uint256"
        },
        {
          "internalType": "bool",
          "name": "isActive",
          "type": "bool"
        }
      ],
      "stateMutability": "view",
      "type": "function"
    },
    {
      "inputs": [
        {
          "internalType": "bytes32",
          "name": "userIdHash",
          "type": "bytes32"
        }
      ],
      "name": "getUserVerifications",
      "outputs": [
        {
          "internalType": "string[]",
          "name": "",
          "type": "string[]"
        }
      ],
      "stateMutability": "view",
      "type": "function"
    },
    {
      "inputs": [
        {
          "internalType": "string",
          "name": "recordHash",
          "type": "string"
        }
      ],
      "name": "getVerificationStats",
      "outputs": [
        {
          "internalType": "uint256",
          "name": "total",
          "type": "uint256"
        },
        {
          "internalType": "uint256",
          "name": "active",
          "type": "uint256"
        }
      ],
      "stateMutability": "view",
      "type": "function"
    },
    {
      "inputs": [
        {
          "internalType": "string",
          "name": "recordHash",
          "type": "string"
        }
      ],
      "name": "getVerificationStatsByLevel",
      "outputs": [
        {
          "internalType": "uint256",
          "name": "total",
          "type": "uint256"
        },
        {
          "internalType": "uint256",
          "name": "active",
          "type": "uint256"
        },
        {
          "internalType": "uint256",
          "name": "provenanceCount",
          "type": "uint256"
        },
        {
          "internalType": "uint256",
          "name": "contentCount",
          "type": "uint256"
        },
        {
          "internalType": "uint256",
          "name": "fullCount",
          "type": "uint256"
        }
      ],
      "stateMutability": "view",
      "type": "function"
    },
    {
      "inputs": [
        {
          "internalType": "string",
          "name": "recordHash",
          "type": "string"
        }
      ],
      "name": "getVerifications",
      "outputs": [
        {
          "components": [
            {
              "internalType": "bytes32",
              "name": "verifierIdHash",
              "type": "bytes32"
            },
            {
              "internalType": "string",
              "name": "recordId",
              "type": "string"
            },
            {
              "internalType": "enum HealthRecordCore.VerificationLevel",
              "name": "level",
              "type": "uint8"
            },
            {
              "internalType": "uint256",
              "name": "createdAt",
              "type": "uint256"
            },
            {
              "internalType": "bool",
              "name": "isActive",
              "type": "bool"
            }
          ],
          "internalType": "struct HealthRecordCore.Verification[]",
          "name": "",
          "type": "tuple[]"
        }
      ],
      "stateMutability": "view",
      "type": "function"
    },
    {
      "inputs": [
        {
          "internalType": "string",
          "name": "recordId",
          "type": "string"
        }
      ],
      "name": "getVersionCount",
      "outputs": [
        {
          "internalType": "uint256",
          "name": "",
          "type": "uint256"
        }
      ],
      "stateMutability": "view",
      "type": "function"
    },
    {
      "inputs": [
        {
          "internalType": "bytes32",
          "name": "subjectIdHash",
          "type": "bytes32"
        }
      ],
      "name": "hasActiveUnacceptedFlags",
      "outputs": [
        {
          "internalType": "bool",
          "name": "",
          "type": "bool"
        }
      ],
      "stateMutability": "view",
      "type": "function"
    },
    {
      "inputs": [
        {
          "internalType": "string",
          "name": "recordHash",
          "type": "string"
        },
        {
          "internalType": "bytes32",
          "name": "userIdHash",
          "type": "bytes32"
        }
      ],
      "name": "hasUserDisputed",
      "outputs": [
        {
          "internalType": "bool",
          "name": "",
          "type": "bool"
        }
      ],
      "stateMutability": "view",
      "type": "function"
    },
    {
      "inputs": [
        {
          "internalType": "string",
          "name": "recordHash",
          "type": "string"
        },
        {
          "internalType": "bytes32",
          "name": "disputerIdHash",
          "type": "bytes32"
        },
        {
          "internalType": "bytes32",
          "name": "reactorIdHash",
          "type": "bytes32"
        }
      ],
      "name": "hasUserReacted",
      "outputs": [
        {
          "internalType": "bool",
          "name": "",
          "type": "bool"
        }
      ],
      "stateMutability": "view",
      "type": "function"
    },
    {
      "inputs": [
        {
          "internalType": "string",
          "name": "recordHash",
          "type": "string"
        },
        {
          "internalType": "bytes32",
          "name": "userIdHash",
          "type": "bytes32"
        }
      ],
      "name": "hasUserVerified",
      "outputs": [
        {
          "internalType": "bool",
          "name": "",
          "type": "bool"
        }
      ],
      "stateMutability": "view",
      "type": "function"
    },
    {
      "inputs": [
        {
          "internalType": "string",
          "name": "recordId",
          "type": "string"
        },
        {
          "internalType": "bytes32",
          "name": "userIdHash",
          "type": "bytes32"
        }
      ],
      "name": "isActiveSubject",
      "outputs": [
        {
          "internalType": "bool",
          "name": "",
          "type": "bool"
        }
      ],
      "stateMutability": "view",
      "type": "function"
    },
    {
      "inputs": [
        {
          "internalType": "string",
          "name": "",
          "type": "string"
        }
      ],
      "name": "isHashActive",
      "outputs": [
        {
          "internalType": "bool",
          "name": "",
          "type": "bool"
        }
      ],
      "stateMutability": "view",
      "type": "function"
    },
    {
      "inputs": [
        {
          "internalType": "string",
          "name": "recordId",
          "type": "string"
        },
        {
          "internalType": "bytes32",
          "name": "userIdHash",
          "type": "bytes32"
        }
      ],
      "name": "isSubject",
      "outputs": [
        {
          "internalType": "bool",
          "name": "",
          "type": "bool"
        }
      ],
      "stateMutability": "view",
      "type": "function"
    },
    {
      "inputs": [
        {
          "internalType": "string",
          "name": "",
          "type": "string"
        },
        {
          "internalType": "bytes32",
          "name": "",
          "type": "bytes32"
        }
      ],
      "name": "isSubjectActive",
      "outputs": [
        {
          "internalType": "bool",
          "name": "",
          "type": "bool"
        }
      ],
      "stateMutability": "view",
      "type": "function"
    },
    {
      "inputs": [
        {
          "internalType": "string",
          "name": "",
          "type": "string"
        },
        {
          "internalType": "bytes32",
          "name": "",
          "type": "bytes32"
        }
      ],
      "name": "isSubjectOfRecord",
      "outputs": [
        {
          "internalType": "bool",
          "name": "",
          "type": "bool"
        }
      ],
      "stateMutability": "view",
      "type": "function"
    },
    {
      "inputs": [],
      "name": "memberRoleManager",
      "outputs": [
        {
          "internalType": "contract MemberRoleManagerInterface",
          "name": "",
          "type": "address"
        }
      ],
      "stateMutability": "view",
      "type": "function"
    },
    {
      "inputs": [
        {
          "internalType": "string",
          "name": "recordHash",
          "type": "string"
        },
        {
          "internalType": "uint8",
          "name": "newSeverity",
          "type": "uint8"
        },
        {
          "internalType": "uint8",
          "name": "newCulpability",
          "type": "uint8"
        }
      ],
      "name": "modifyDispute",
      "outputs": [],
      "stateMutability": "nonpayable",
      "type": "function"
    },
    {
      "inputs": [
        {
          "internalType": "string",
          "name": "recordHash",
          "type": "string"
        },
        {
          "internalType": "bytes32",
          "name": "disputerIdHash",
          "type": "bytes32"
        },
        {
          "internalType": "bool",
          "name": "newSupport",
          "type": "bool"
        }
      ],
      "name": "modifyReaction",
      "outputs": [],
      "stateMutability": "nonpayable",
      "type": "function"
    },
    {
      "inputs": [
        {
          "internalType": "string",
          "name": "recordHash",
          "type": "string"
        },
        {
          "internalType": "uint8",
          "name": "newLevel",
          "type": "uint8"
        }
      ],
      "name": "modifyVerificationLevel",
      "outputs": [],
      "stateMutability": "nonpayable",
      "type": "function"
    },
    {
      "inputs": [
        {
          "internalType": "string",
          "name": "recordHash",
          "type": "string"
        },
        {
          "internalType": "bytes32",
          "name": "disputerIdHash",
          "type": "bytes32"
        },
        {
          "internalType": "bool",
          "name": "supportsDispute",
          "type": "bool"
        }
      ],
      "name": "reactToDispute",
      "outputs": [],
      "stateMutability": "nonpayable",
      "type": "function"
    },
    {
      "inputs": [
        {
          "internalType": "string",
          "name": "",
          "type": "string"
        },
        {
          "internalType": "bytes32",
          "name": "",
          "type": "bytes32"
        },
        {
          "internalType": "bytes32",
          "name": "",
          "type": "bytes32"
        }
      ],
      "name": "reactionIndex",
      "outputs": [
        {
          "internalType": "uint256",
          "name": "",
          "type": "uint256"
        }
      ],
      "stateMutability": "view",
      "type": "function"
    },
    {
      "inputs": [
        {
          "internalType": "string",
          "name": "recordId",
          "type": "string"
        }
      ],
      "name": "reanchorRecord",
      "outputs": [],
      "stateMutability": "nonpayable",
      "type": "function"
    },
    {
      "inputs": [
        {
          "internalType": "string",
          "name": "",
          "type": "string"
        }
      ],
      "name": "recordIdForHash",
      "outputs": [
        {
          "internalType": "string",
          "name": "",
          "type": "string"
        }
      ],
      "stateMutability": "view",
      "type": "function"
    },
    {
      "inputs": [
        {
          "internalType": "string",
          "name": "",
          "type": "string"
        },
        {
          "internalType": "uint256",
          "name": "",
          "type": "uint256"
        }
      ],
      "name": "recordSubjects",
      "outputs": [
        {
          "internalType": "bytes32",
          "name": "",
          "type": "bytes32"
        }
      ],
      "stateMutability": "view",
      "type": "function"
    },
    {
      "inputs": [
        {
          "internalType": "string",
          "name": "",
          "type": "string"
        },
        {
          "internalType": "uint256",
          "name": "",
          "type": "uint256"
        }
      ],
      "name": "recordVersionHistory",
      "outputs": [
        {
          "internalType": "string",
          "name": "",
          "type": "string"
        }
      ],
      "stateMutability": "view",
      "type": "function"
    },
    {
      "inputs": [
        {
          "internalType": "bytes32",
          "name": "subjectIdHash",
          "type": "bytes32"
        },
        {
          "internalType": "uint256",
          "name": "flagIndex",
          "type": "uint256"
        },
        {
          "internalType": "enum HealthRecordCore.ResolutionType",
          "name": "resolution",
          "type": "uint8"
        }
      ],
      "name": "resolveUnacceptedUpdate",
      "outputs": [],
      "stateMutability": "nonpayable",
      "type": "function"
    },
    {
      "inputs": [
        {
          "internalType": "string",
          "name": "recordHash",
          "type": "string"
        }
      ],
      "name": "retractDispute",
      "outputs": [],
      "stateMutability": "nonpayable",
      "type": "function"
    },
    {
      "inputs": [
        {
          "internalType": "string",
          "name": "recordHash",
          "type": "string"
        },
        {
          "internalType": "bytes32",
          "name": "disputerIdHash",
          "type": "bytes32"
        }
      ],
      "name": "retractReaction",
      "outputs": [],
      "stateMutability": "nonpayable",
      "type": "function"
    },
    {
      "inputs": [
        {
          "internalType": "string",
          "name": "recordId",
          "type": "string"
        },
        {
          "internalType": "string",
          "name": "recordHash",
          "type": "string"
        }
      ],
      "name": "retractRecordHash",
      "outputs": [],
      "stateMutability": "nonpayable",
      "type": "function"
    },
    {
      "inputs": [
        {
          "internalType": "string",
          "name": "recordHash",
          "type": "string"
        }
      ],
      "name": "retractVerification",
      "outputs": [],
      "stateMutability": "nonpayable",
      "type": "function"
    },
    {
      "inputs": [
        {
          "internalType": "address",
          "name": "_memberRoleManager",
          "type": "address"
        }
      ],
      "name": "setMemberRoleManager",
      "outputs": [],
      "stateMutability": "nonpayable",
      "type": "function"
    },
    {
      "inputs": [
        {
          "internalType": "bytes32",
          "name": "",
          "type": "bytes32"
        },
        {
          "internalType": "uint256",
          "name": "",
          "type": "uint256"
        }
      ],
      "name": "subjectMedicalHistory",
      "outputs": [
        {
          "internalType": "string",
          "name": "",
          "type": "string"
        }
      ],
      "stateMutability": "view",
      "type": "function"
    },
    {
      "inputs": [],
      "name": "totalAnchoredRecords",
      "outputs": [
        {
          "internalType": "uint256",
          "name": "",
          "type": "uint256"
        }
      ],
      "stateMutability": "view",
      "type": "function"
    },
    {
      "inputs": [],
      "name": "totalDisputes",
      "outputs": [
        {
          "internalType": "uint256",
          "name": "",
          "type": "uint256"
        }
      ],
      "stateMutability": "view",
      "type": "function"
    },
    {
      "inputs": [],
      "name": "totalUnacceptedFlags",
      "outputs": [
        {
          "internalType": "uint256",
          "name": "",
          "type": "uint256"
        }
      ],
      "stateMutability": "view",
      "type": "function"
    },
    {
      "inputs": [],
      "name": "totalVerifications",
      "outputs": [
        {
          "internalType": "uint256",
          "name": "",
          "type": "uint256"
        }
      ],
      "stateMutability": "view",
      "type": "function"
    },
    {
      "inputs": [
        {
          "internalType": "address",
          "name": "newAdmin",
          "type": "address"
        }
      ],
      "name": "transferAdmin",
      "outputs": [],
      "stateMutability": "nonpayable",
      "type": "function"
    },
    {
      "inputs": [
        {
          "internalType": "bytes32",
          "name": "",
          "type": "bytes32"
        },
        {
          "internalType": "uint256",
          "name": "",
          "type": "uint256"
        }
      ],
      "name": "unacceptedUpdateFlags",
      "outputs": [
        {
          "internalType": "string",
          "name": "recordId",
          "type": "string"
        },
        {
          "internalType": "string",
          "name": "noteHash",
          "type": "string"
        },
        {
          "internalType": "uint256",
          "name": "createdAt",
          "type": "uint256"
        },
        {
          "internalType": "enum HealthRecordCore.ResolutionType",
          "name": "resolution",
          "type": "uint8"
        },
        {
          "internalType": "uint256",
          "name": "resolvedAt",
          "type": "uint256"
        },
        {
          "internalType": "bool",
          "name": "isActive",
          "type": "bool"
        }
      ],
      "stateMutability": "view",
      "type": "function"
    },
    {
      "inputs": [
        {
          "internalType": "string",
          "name": "recordId",
          "type": "string"
        }
      ],
      "name": "unanchorRecord",
      "outputs": [],
      "stateMutability": "nonpayable",
      "type": "function"
    },
    {
      "inputs": [
        {
          "internalType": "string",
          "name": "",
          "type": "string"
        },
        {
          "internalType": "bytes32",
          "name": "",
          "type": "bytes32"
        }
      ],
      "name": "verificationIndex",
      "outputs": [
        {
          "internalType": "uint256",
          "name": "",
          "type": "uint256"
        }
      ],
      "stateMutability": "view",
      "type": "function"
    },
    {
      "inputs": [
        {
          "internalType": "string",
          "name": "",
          "type": "string"
        },
        {
          "internalType": "uint256",
          "name": "",
          "type": "uint256"
        }
      ],
      "name": "verifications",
      "outputs": [
        {
          "internalType": "bytes32",
          "name": "verifierIdHash",
          "type": "bytes32"
        },
        {
          "internalType": "string",
          "name": "recordId",
          "type": "string"
        },
        {
          "internalType": "enum HealthRecordCore.VerificationLevel",
          "name": "level",
          "type": "uint8"
        },
        {
          "internalType": "uint256",
          "name": "createdAt",
          "type": "uint256"
        },
        {
          "internalType": "bool",
          "name": "isActive",
          "type": "bool"
        }
      ],
      "stateMutability": "view",
      "type": "function"
    },
    {
      "inputs": [
        {
          "internalType": "bytes32",
          "name": "",
          "type": "bytes32"
        },
        {
          "internalType": "uint256",
          "name": "",
          "type": "uint256"
        }
      ],
      "name": "verificationsByUser",
      "outputs": [
        {
          "internalType": "string",
          "name": "",
          "type": "string"
        }
      ],
      "stateMutability": "view",
      "type": "function"
    },
    {
      "inputs": [
        {
          "internalType": "string",
          "name": "recordId",
          "type": "string"
        },
        {
          "internalType": "string",
          "name": "recordHash",
          "type": "string"
        },
        {
          "internalType": "uint8",
          "name": "level",
          "type": "uint8"
        }
      ],
      "name": "verifyRecord",
      "outputs": [],
      "stateMutability": "nonpayable",
      "type": "function"
    }
  ],
  "bytecode": "0x608034620000d857601f6200633c38819003918201601f19168301916001600160401b03831184841017620000dd57808492602094604052833981010312620000d857516001600160a01b03811690819003620000d8578015620000895760018060a01b031990816000541617600055339060015416176001556040516162489081620000f48239f35b60405162461bcd60e51b815260206004820152602160248201527f496e76616c6964204d656d626572526f6c654d616e61676572206164647265736044820152607360f81b6064820152608490fd5b600080fd5b634e487b7160e01b600052604160045260246000fdfe6080604052600436101561001257600080fd5b60e0600035811c9081623297e41461524c57816301b4147d14611b1f57816305f5943914613e2b5781630a36148b1461524c5781630fbab50a14612a5357816310a0e88a14614fd85781631537070314614fb157816319bfe5f214614f785781631a6b3d2a14614f3f5781631aacda8814614d765781631b7cabb714614c665781631cf8cbe8146119025781631e59607a14614c415781631ec50c0e14614c0a57816321d9caaa14614b37578163223c3bb914614aed578163249dda2e146116bb57816325db354d14614ab95781632a4e0476146149035781632cb2c1e9146147605781632e6df698146146b05781632fa8db041461457b578163315ca5ba146144d9578163339a0aec146143f157816335c4c20314614193578163365348e9146141545781633f132dc114613f0f578163400f8d0614613e7a578163411ab58414613e2b5781634294e2ff14613c2a5781634b7c908a14613a9c5781634f893ed6146122c35781635203cbed146136c2578163533acffd146132045781635a18672e14612f855781635d12da5014612f515781635d28a34214612f235781636018200d14612e2c578163629be2b614612cbd5781636eb7457f14612c285781637286b6f914612b1757816375829def14612a8c57816380027ff614612a535781638295313114612886578163883080af146123fd5781638da1d369146123635781638e3ccbcf1461230857816398909e22146122c3578163a5f2d1d11461200a578163ac90c14014611fec578163ac92433614611720578163adcee10214611fb6578163b0c7363c14611f5e578163b27bb4d514611f28578163b48ac4d214611c8e578163b5e6b7a214611c3e578163c18cf8d214611bb6578163c282f4ab14611b76578163c5e4ccc414611b58578163c6bd157214611b1f578163c7695bab14611a96578163ca1e910a146119a957508063d08c800d14611920578063d46e082f14611902578063d4f7a4651461173e578063d5ba54e714611720578063d5be3001146116e7578063dbc7b842146116bb578063dd0bc08214611658578063e08f1ac3146115cf578063e11c45b7146111ee578063e2aae6e014610f51578063f251f8e414610e27578063f3ac2bea14610d96578063f5e7f9f414610cad578063f7c0d03314610aa4578063f851a44014610a7d578063f860a3a2146108e5578063f9f70c4a146108ae5763fd328f581461038e57600080fd5b3461082d5760a036600319011261082d5767ffffffffffffffff60043581811161082d576103c0903690600401615349565b90602491823582811161082d576103db903690600401615349565b6103e361542b565b906064359360ff8516850361082d5760843590811161082d5761040a903690600401615349565b6001600160a01b03600054166040516345ecd02f60e01b81523360048201526020818981855afa801561083a576104499160009161088f575b50615bd7565b60405190630286b6ab60e31b825260208280610469338a60048401615c22565b0381845afa90811561083a5761048b6020928a94600091610862575b50615c49565b61049787511515615e5f565b6104a385511515615eaa565b600160ff8716101580610854575b6104ba906157c2565b600160ff8916101580610846575b6104d19061580d565b6040519889809262b0c80960e01b82523360048301525afa96871561083a57600097610801575b50610504871515615858565b60405160208185516105198183858a016153d2565b8101600e8152030190208760005260205260ff604060002054166107bd57604051602081855161054c8183858a016153d2565b8101600d8152030190205491604051602081865161056d8183858b016153d2565b8101600d8152030190209161058460ff8716615460565b600660ff8916101561077f576040519161059d836152ef565b898352602083019388855260408401906105b960ff8a16615460565b60ff8916825260608501926105d160ff8d1685615b2d565b60808601524260a0860152600160c0860152805490680100000000000000008210156107a85790610607916001820181556157a6565b959095610793579061062461063792865188555160018801615cf6565b5161062e81615460565b600286016158ee565b5190600682101561077f57506060947f1e9fc3a602c7b16a7098c5ba783b4f9d40508e6aa83fc4a05853c485261f12bc96946106ba85600560c06107549761068861074e9860026107769c01615906565b610699608082015160038601615cf6565b60a081015160048501550151151591019060ff801983541691151516179055565b60405160208184516106cf81838589016153d2565b8101600e8152030190208b6000526020526040600020600160ff19825416179055604051602081845161070581838589016153d2565b8101600f8152030190208b600052602052604060002055601660205261072f816040600020615f40565b61073a601854615b1e565b60185561074960ff8616615460565b615925565b95615925565b9560ff60405193610766828216615460565b16835260ff6020840191166156ca565b426040820152a4005b634e487b7160e01b60005260216004526000fd5b83634e487b7160e01b60005260006004526000fd5b84634e487b7160e01b60005260416004526000fd5b606490601a6040519162461bcd60e51b8352602060048401528201527f416c7265616479206469737075746564207468697320686173680000000000006044820152fd5b9096506020813d602011610832575b8161081d60209383615327565b8101031261082d575195386104f8565b600080fd5b3d9150610810565b6040513d6000823e3d90fd5b50600560ff891611156104c8565b50600360ff871611156104b1565b6108829150843d8611610888575b61087a8183615327565b810190615bbf565b38610485565b503d610870565b6108a8915060203d6020116108885761087a8183615327565b38610443565b3461082d5760806108c76108c136615655565b9161613a565b91604051931515845215156020840152604083015215156060820152f35b3461082d5760208060031936011261082d576004358060005260048252604060002090815461091381615ab7565b926109216040519485615327565b8184526000908152848120858086015b848410610a50575085600086815b835181101561098b5761095b6109558286615b0a565b516153f5565b82600052855260ff60406000205416610977575b60010161093f565b91610983600191615b1e565b92905061096f565b509161099682615ab7565b916109a46040519384615327565b8083526109b3601f1991615ab7565b018460005b828110610a415750505060009060005b8151811015610a2f576109de6109558284615b0a565b85600052865260ff604060002054166109fa575b6001016109c8565b91610a27600191610a0b8585615b0a565b51610a168288615b0a565b52610a218187615b0a565b50615b1e565b9290506109f2565b60405180610a3d86826155f1565b0390f35b606085820183015281016109b8565b6001918291604051610a6d81610a6681896154d2565b0382615327565b8152019201920191908690610931565b3461082d57600036600319011261082d5760206001600160a01b0360015416604051908152f35b3461082d5760208060031936011261082d576004359067ffffffffffffffff821161082d57610ad96024923690600401615349565b816001600160a01b03600054166040519485809262b0c80960e01b82523360048301525afa92831561083a57600093610c7e575b50610b19831515615858565b604051815190838181850193610b308183876153d2565b8101600b81520301902084600052835260ff6040600020541615610c3a577f94748c1a380e215f3ba9de3f49d5c0a47c8bff6c16301f5f153e2429032722f091610c309160405185818451610b868183876153d2565b8101600c815203019020866000528552610c10856004610bf284610be060ff84610bd78a610bc8896040600020549788936040519384928392519283916153d2565b8101600a81520301902061578a565b50015416615a6c565b60405184818951610bc881838c6153d2565b50019260ff19938481541690556040518093819287519283916153d2565b8101600b8152030190208660005285526040600020908154169055615925565b91604051428152a3005b6064836040519062461bcd60e51b82526004820152601a60248201527f4e6f20766572696669636174696f6e20746f20726574726163740000000000006044820152fd5b9092508181813d8311610ca6575b610c968183615327565b8101031261082d57519183610b0d565b503d610c8c565b3461082d57610cbb366153a0565b6040518281809451610cd381602097888096016153d2565b810160108152030190209060005281526040600020908154610cf481615ab7565b90610d026040519283615327565b8082528282018094600052836000206000915b838310610d795760408051878152865181890181905289928201908960005b828110610d415784840385f35b855180518552808301511515858401526040808201519086015260609081015115159085015294810194608090930192600101610d34565b600486600192610d8885615acf565b815201920192019190610d15565b3461082d57610da4366153a0565b90604051918151926020938185809381870193610dc28183876153d2565b8101600381520301902083600052825260ff604060002054169384610dee575b82856040519015158152f35b610e059394506040519384928392519283916153d2565b8101600581520301902090600052815260ff6040600020541682828180610de2565b3461082d5760208060031936011261082d5760043560005260138152604060002090815491610e5583615ab7565b92610e636040519485615327565b8084528284018092600052836000206000915b838310610f2e5750505050604051918083019381845251809452604083019360408160051b85010192916000955b828710610eb15785850386f35b909192938280600192603f19898203018552875190610eec610edc60c084519080855284019061543b565b848401518382038685015261543b565b9160408101516040830152610f09606080830151908401906156ed565b6080808201519083015260a08091015115159101529601920196019592919092610ea4565b600686600192610f40859a999a615f74565b815201920192019190959495610e76565b3461082d57610f5f36615746565b6001600160a01b036000541691604051926345ecd02f60e01b84523360048501526020938481602481855afa801561083a57610fa2916000916111d15750615bd7565b604051630286b6ab60e31b8152848180610fc0338760048401615c22565b0381855afa801561083a57610fdc916000916111b45750615c49565b60405190611007845192868181880195610ff78183896153d2565b8101600681520301902054615498565b6111705783511561112c57846024916040519283809262b0c80960e01b82523360048301525afa91821561083a5785916000936110f9575b506110e5846110cb846110eb946110957f60d9fff893391026daade2734b45ecb2fb8ae1f0187ea2b39018ee8bdc94390a998b60409a998b518092516110868183896153d2565b81016006815203019020615cf6565b6110bb8a8951848188516110ac8183858d016153d2565b81016007815203019020615f40565b8751809381928c519283916153d2565b81016008815203019020600160ff19825416179055615925565b94615925565b9482519182524290820152a3005b92509082813d8111611125575b6111108183615327565b8101031261082d5790519084906110e561103f565b503d611106565b6064856040519062461bcd60e51b82526004820152601460248201527f486173682063616e6e6f7420626520656d7074790000000000000000000000006044820152fd5b6064856040519062461bcd60e51b82526004820152601e60248201527f4861736820616c726561647920626f756e6420746f2061207265636f726400006044820152fd5b6111cb9150863d88116108885761087a8183615327565b86610485565b6111e89150863d88116108885761087a8183615327565b86610443565b3461082d576111fc36615746565b6001600160a01b036000541691604051926345ecd02f60e01b84523360048501526020938481602481855afa801561083a5761123f916000916111d15750615bd7565b8360405180927fa0ca13c30000000000000000000000000000000000000000000000000000000082528180611278338860048401615c22565b03915afa90811561083a576000916115b2575b501561156e5760405191610a666112c58251948681818601976112af81838b6153d2565b81016006815203019020604051928380926154d2565b848151910120918051928582019384200361152a576040519082516112eb8184886153d2565b82019261130960ff6008946008875289818398030190205416615a6c565b611321876000966040518093819287519283916153d2565b8101600781520301902091825461133781615ab7565b936113456040519586615327565b81855260009081528981208a8087015b84841061150457505050505060005b83518110156113bc57856113908a61137c8488615b0a565b5181604051938285809451938492016153d2565b81018981520301902054166113a8575b600101611364565b956113b4600191615b1e565b9690506113a0565b8883838a60018b111561149a5761144d7f10883978dc4137be2c21cf3c3827329d1303377374a52fe00a7b5a98c25d883c9261142b866114539460405182818a516114088183876153d2565b8101600881520301902060ff198154169055604051809381928a519283916153d2565b8101600681520301902061143f8154615498565b908161145d575b5050615925565b92615925565b92604051428152a3005b81601f600093116001146114755750555b8680611446565b908083918252611493601f8b8420940160051c840160018501615cdf565b555561146e565b6084846040519062461bcd60e51b82526004820152603260248201527f43616e6e6f74207265747261637420746865206c61737420616374697665207660448201527f657273696f6e206f662061207265636f726400000000000000000000000000006064820152fd5b600191829160405161151a81610a6681896154d2565b8152019201920191908b90611355565b6064856040519062461bcd60e51b82526004820152601460248201527f486173682d5265636f7264206d69736d617463680000000000000000000000006044820152fd5b6064836040519062461bcd60e51b82526004820152601360248201527f4f6e6c79206f776e6572206f722061646d696e000000000000000000000000006044820152fd5b6115c99150843d86116108885761087a8183615327565b8461128b565b3461082d5760208060031936011261082d576004356000526015602052604060002080546115fc81615ab7565b9161160a6040519384615327565b81835260208301906000526020600020936000915b8383106116345760405180610a3d87826155f1565b600182819260405161164a81610a66818d6154d2565b81520196019201919461161f565b3461082d57602036600319011261082d576004356001600160a01b0380821680920361082d5761168d90600154163314615c94565b611698811515615fec565b73ffffffffffffffffffffffffffffffffffffffff196000541617600055600080f35b3461082d57602036600319011261082d5760043560005260146020526020604060002054604051908152f35b3461082d57602036600319011261082d576004356000526015602052604080600020546016602052816000205482519182526020820152f35b3461082d57600036600319011261082d576020601954604051908152f35b3461082d5760208060031936011261082d5760043567ffffffffffffffff811161082d57611770903690600401615349565b90600080916040518185519181818189019461178d8183886153d2565b8101600a8152030190209586546117a381615ab7565b976117b1604051998a615327565b8189526000908152838120848a015b8383106118dd5750505050916117e1926040519384928392519283916153d2565b8101600d8152030190209283546117f781615ab7565b946118056040519687615327565b8186526000908152838120848088015b8484106118be57505050505084519084519460005b875181101561186357608061183f828a615b0a565b51015161184f575b60010161182a565b9461185b600191615b1e565b959050611847565b50848660005b83518110156118a25760c061187e8286615b0a565b51015161188e575b600101611869565b9361189a600191615b1e565b949050611886565b6080838388888b60405194855284015260408301526060820152f35b6001916006916118cd85615b39565b8152019201920191908590611815565b81929394956005916118f0600194615945565b815201920192019091869493926117c0565b3461082d57600036600319011261082d576020600954604051908152f35b3461082d5760208060031936011261082d5760043560005260166020526040600020805461194d81615ab7565b9161195b6040519384615327565b81835260208301906000526020600020936000915b8383106119855760405180610a3d87826155f1565b600182819260405161199b81610a66818d6154d2565b815201960192019194611970565b3461082d5760206119d16119bc366153a0565b929081604051938285809451938492016153d2565b8101600d81520301902090815481101561082d576119ee916157a6565b50805490604051611a0681610a6681600186016154d2565b611a85600283015460ff811690611a7860405191611a3283611a2b8160038b016154d2565b0384615327565b611a5960ff600560048a015499015416966040519a8b9a8b528060208c01528a019061543b565b93611a6381615460565b604089015260ff606089019160081c166156ca565b858203608087015261543b565b9160a0840152151560c08301520390f35b3461082d5760208060031936011261082d57600435600052600460205260406000208054611ac381615ab7565b91611ad16040519384615327565b81835260208301906000526020600020936000915b838310611afb5760405180610a3d87826155f1565b6001828192604051611b1181610a66818d6154d2565b815201960192019194611ae6565b3461082d576020611b326119bc366153a0565b8101600381520301902090600052602052602060ff604060002054166040519015158152f35b3461082d57600036600319011261082d576020601854604051908152f35b3461082d576020611b896119bc366153a0565b81016002815203019020805482101561082d57602091611ba89161546a565b90546040519160031b1c8152f35b3461082d57611bc4366156d7565b906000526013602052604060002090815481101561082d57611be5916157a6565b50604051611bf781610a6681856154d2565b610a3d60405192611c1684611c0f81600185016154d2565b0385615327565b60028101549060ff60038201541660ff600560048401549301541692604051968796876156fa565b3461082d57611c4c366156d7565b906000526015602052604060002090815481101561082d57611c74611c7a91610a3d9361546a565b90615568565b60405191829160208352602083019061543b565b3461082d5760208060031936011261082d5760043567ffffffffffffffff811161082d57611cc0903690600401615349565b906001600160a01b0360005416916040516345ecd02f60e01b81523360048201528281602481875afa801561083a57611d0091600091611f0b5750615bd7565b60405192630286b6ab60e31b8452828480611d1f338660048401615c22565b0381845afa90811561083a57611d408492602496600091611eee5750615c49565b6040519485809262b0c80960e01b82523360048301525afa92831561083a57600093611ebf575b50611d73831515615858565b604051815190838181850193611d8a8183876153d2565b8101600381520301902084600052835260ff6040600020541615611e7b5760405183818451611dba8183876153d2565b8101600581520301902084600052835260ff60406000205416611e37577f08f30cbe91e0ca2a9f89c7c4a38baaa3fdd002bf05e8d40e1ca69945d06a490191611e1284610c30936040518093819286519283916153d2565b810160058152030190208560005284526040600020600160ff19825416179055615925565b6064836040519062461bcd60e51b82526004820152600e60248201527f416c7265616479206163746976650000000000000000000000000000000000006044820152fd5b6064836040519062461bcd60e51b82526004820152601360248201527f576173206e657665722061207375626a656374000000000000000000000000006044820152fd5b9092508181813d8311611ee7575b611ed78183615327565b8101031261082d57519183611d67565b503d611ecd565b611f059150843d86116108885761087a8183615327565b87610485565b611f229150843d86116108885761087a8183615327565b85610443565b3461082d57611f36366156d7565b906000526004602052604060002090815481101561082d57611c74611c7a91610a3d9361546a565b3461082d57611f896020611f7136615655565b939183604094929451938285809451938492016153d2565b81016012815203019020906000526020526040600020906000526020526020604060002054604051908152f35b3461082d57611fc4366156d7565b906000526016602052604060002090815481101561082d57611c74611c7a91610a3d9361546a565b3461082d57600036600319011261082d576020601754604051908152f35b3461082d57604036600319011261082d5760043567ffffffffffffffff811161082d5761203b903690600401615349565b60ff61204561541b565b16906001821015806122b8575b61205b90615ef5565b6001600160a01b03600054169060405192839262b0c80960e01b845233600485015283602460209586935afa93841561083a57600094612289575b506120a2841515615858565b6040518251908481818601936120b98183876153d2565b8101600b81520301902085600052845260ff60406000205416156122455761211990604051858186516120ed8183876153d2565b8101600c815203019020866000528552610bc885604060002054926040518093819289519283916153d2565b5060ff60048201541615612201576002019160ff8354169261213a83615460565b61214383615460565b61214c84615460565b8284146121bd57916121987f334f52bdf9b484290889b34fb83ad64bff4dd1b7028a24d048a3a85537b53ff9949261218f8360609661218a82615460565b6158ee565b61074983615460565b94604051926121a681615460565b83526121b182615460565b820152426040820152a3005b6064856040519062461bcd60e51b82526004820152601260248201527f416c72656164792074686973206c6576656c00000000000000000000000000006044820152fd5b6064846040519062461bcd60e51b82526004820152601f60248201527f566572696669636174696f6e20686173206265656e20726574726163746564006044820152fd5b6064846040519062461bcd60e51b82526004820152601960248201527f4e6f20766572696669636174696f6e20746f206d6f64696679000000000000006044820152fd5b9093508281813d83116122b1575b6122a18183615327565b8101031261082d57519284612096565b503d612297565b506003821115612052565b3461082d576122d66020611f7136615655565b8101601181520301902090600052602052604060002090600052602052602060ff604060002054166040519015158152f35b3461082d57611a7861234a611a85612328612322366153a0565b90616037565b969598929193946040989198519a8b9a15158b528060208c01528a019061543b565b9361235481615460565b604089015260608801906156ca565b3461082d5760206123766119bc366153a0565b8101600a81520301902090815481101561082d576123939161578a565b508054604051916123ab83611a2b81600185016154d2565b60ff6002820154169060ff6004600383015492015416906123de604051958695865260a0602087015260a086019061543b565b926123e881615460565b60408501526060840152151560808301520390f35b3461082d5761240b36615746565b6001600160a01b036000541690604051926345ecd02f60e01b845233600485015260209260249484818781855afa801561083a57612450916000916128695750615bd7565b60405190630286b6ab60e31b825284828061246f338760048401615c22565b0381845afa90811561083a5761248f8692889460009161284c5750615c49565b61249b84511515615e5f565b6124a785511515615eaa565b6040519687809262b0c80960e01b82523360048301525afa94851561083a5760009561281d575b506124da851515615858565b604051908251918581818601946124f28183886153d2565b8101600381520301902086600052855260ff604060002054166127b457604051858185516125218183886153d2565b81016002815203019020541561265c575b604051858185516125448183886153d2565b810160028152030190208054916801000000000000000083101561264857509261263e9261259c837f1cdc47600aa970e2d8c3bfa9885daefc5e052ea8a6a10471ab3dbbc77ad2138d96600161144d9601815561546a565b81549060031b908a821b91600019901b1916179055604051878184516125c38183876153d2565b810160038152030190208860005287526125fb8760406000209260ff19936001858254161790556040518093819287519283916153d2565b8101600581520301902088600052875260016040600020918254161790556004865261262b816040600020615f40565b612636600954615b1e565b600955615925565b92604051428152a4005b634e487b7160e01b60005260416004526000fd5b61268f6040516126968651918881818a01946126798183886153d2565b81016006815203019020604051938480926154d2565b0383615327565b8151156126ef5750858151910120835183201461253257606490856040519162461bcd60e51b83528160048401528201527f486173682062656c6f6e677320746f20646966666572656e74207265636f72646044820152fd5b905060ff604051878188516127058183886153d2565b8101600881520301902054166127715785612757916127308660405184818b516110868183896153d2565b6127468760405184818a516110ac81838d6153d2565b6040518093819289519283916153d2565b81016008815203019020600160ff19825416179055612532565b6064866011846040519262461bcd60e51b845260048401528201527f4861736820616c726561647920757365640000000000000000000000000000006044820152fd5b8460276084926040519262461bcd60e51b845260048401528201527f5265636f726420616c726561647920616e63686f72656420746f20746869732060448201527f7375626a656374000000000000000000000000000000000000000000000000006064820152fd5b9094508381813d8311612845575b6128358183615327565b8101031261082d575193856124ce565b503d61282b565b6128639150843d86116108885761087a8183615327565b89610485565b6128809150863d88116108885761087a8183615327565b87610443565b3461082d5760208060031936011261082d5760043567ffffffffffffffff811161082d576128b8903690600401615349565b906000916000806128d98460009481604051938285809451938492016153d2565b8101600a8152030190208054906128ef82615ab7565b956128fd6040519788615327565b82875260009182528082208188015b848410612a3657505050505083519360005b8151811015612a0c5760806129338284615b0a565b510151612943575b60010161291e565b929561294e90615b1e565b956001604061295d8685615b0a565b51015161296981615460565b61297281615460565b0361298b57612982600191615b1e565b935b905061293b565b92916002604061299b8585615b0a565b5101516129a781615460565b6129b081615460565b036129c6576129c0600191615b1e565b92612984565b91600360406129d58385615b0a565b5101516129e181615460565b6129ea81615460565b146129f8575b600190612984565b93612a04600191615b1e565b9490506129f0565b5050604080519485526020850195909552938301526060820192909252608081019190915260a090f35b600583600192612a4585615945565b81520192019301929061290c565b3461082d576020612a666119bc366153a0565b8101600b81520301902090600052602052602060ff604060002054166040519015158152f35b3461082d57602036600319011261082d576004356001600160a01b0380821680920361082d5773ffffffffffffffffffffffffffffffffffffffff199082600154918216612adb813314615c94565b612ae6821515615fec565b7f38df5fa0f7fef0d515ca1f5388cb5790ac5885d5fca8d05d9f943e563c33a4b36020604051428152a31617600155005b3461082d5760208060031936011261082d5760043567ffffffffffffffff811161082d57612b49903690600401615349565b6000604051825190848181860193612b628183876153d2565b8101600281520301902090604051808387829554938481520190600052876000209260005b89828210612c1257505050612b9e92500383615327565b81519360005b8351811015612c035760405187818451612bbf8183896153d2565b81016005815203019020612bd38286615b0a565b51600052875260ff60406000205416612bef575b600101612ba4565b93612bfb600191615b1e565b949050612be7565b60408686898351928352820152f35b8554845260019586019588955093019201612b87565b3461082d57612c6e612c68612c3c366156d7565b90806000526013602052612c566040600020548310615e14565b600052601360205260406000206157a6565b50615f74565b805160208201519160408101516060820151916005831015612ca757610a3d9260a06080830151920151151592604051968796876156fa565b634e487b7160e01b600052602160045260246000fd5b3461082d5760208060031936011261082d5760043567ffffffffffffffff811161082d5781612cf3612d06923690600401615349565b81604051938285809451938492016153d2565b8101600d815203019020805491612d1c83615ab7565b92612d2a6040519485615327565b8084528184018093600052826000206000915b838310612e095750505050604051928184019082855251809152604084019160408260051b86010193926000965b838810612d785786860387f35b90919293948380600192603f198a820301865288519081518152612de2612daa8484015188868501528884019061543b565b6040840151612db881615460565b6040840152612dcf606080860151908501906156ca565b608080850151908483039085015261543b565b9160a0808201519083015260c0809101511515910152970193019701969093929193612d6b565b600685600192612e1b859a989a615b39565b815201920192019190959395612d3d565b3461082d5760208060031936011261082d5760043567ffffffffffffffff811161082d57612e5e903690600401615349565b90612e798160009381604051938285809451938492016153d2565b8101600d815203019020918254612e8f81615ab7565b93612e9d6040519586615327565b8185526000908152838120848087015b848410612f0457878287825160005b8451811015612ef55760c0612ed18287615b0a565b510151612ee1575b600101612ebc565b91612eed600191615b1e565b929050612ed9565b50906040928351928352820152f35b600191600691612f1385615b39565b8152019201920191908590612ead565b3461082d57602036600319011261082d57600435600052601460205260206040600020541515604051908152f35b3461082d576020612f646119bc366153a0565b8101600c815203019020906000526020526020604060002054604051908152f35b3461082d57612f933661568b565b90916001600160a01b03600054169060405192839262b0c80960e01b845233600485015283602460209586935afa93841561083a576000946131d5575b50612fdc841515615858565b604051825190848181860193612ff38183876153d2565b81016011815203019020866000528452604060002085600052845260ff60406000205416156131915761308390604051858186516130328183876153d2565b81016012815203019020876000528552604060002086600052855261306985604060002054926040518093819289519283916153d2565b8101601081520301902087600052855260406000206155d5565b509160ff6003840154161561314d57600183019260ff84541692801515931515948486146131095792606094926130eb6130f6937f83316b3299ea5a7386901a45e5d604103b0c75a2d3ff829a25e4a6d645c6b7f398969060ff801983541691151516179055565b600242910155615925565b94604051928352820152426040820152a4005b6064876040519062461bcd60e51b82526004820152601260248201527f416c726561647920746869732076616c756500000000000000000000000000006044820152fd5b6064846040519062461bcd60e51b82526004820152601b60248201527f5265616374696f6e20686173206265656e2072657472616374656400000000006044820152fd5b6064846040519062461bcd60e51b82526004820152601560248201527f4e6f207265616374696f6e20746f206d6f6469667900000000000000000000006044820152fd5b9093508281813d83116131fd575b6131ed8183615327565b8101031261082d57519285612fd0565b503d6131e3565b3461082d576132123661568b565b6000546040516345ecd02f60e01b81523360048201529293602493602093926001600160a01b03169084818781855afa801561083a57613259916000916136a55750615bd7565b604051908251918581818601946132718183886153d2565b8101600e81520301902087600052855260ff6040600020541615613662579061331a91604051868186516132a68183886153d2565b8101600f815203019020886000528652604060002054908660016132fe6132ed856132de85898c6040519384928392519283916153d2565b8101600d8152030190206157a6565b50610a6660405180948193016154d2565b60405180968192630286b6ab60e31b8352339060048401615c22565b0381845afa90811561083a5761333a88928a966000916136455750615c49565b6040519889809262b0c80960e01b82523360048301525afa96871561083a57600097613616575b5061336d871515615858565b8787146135d457604051868186516133868183886153d2565b81016011815203019020886000528652604060002087600052865260ff604060002054166135915760ff60056133cb6133d4936040518a818a516132de81838c6153d2565b500154166158a3565b604051858185516133e68183876153d2565b81016010815203019020876000528552604060002054916040518681865161340f8183886153d2565b810160108152030190208860005286526040600020604051613430816152d3565b8881528781019615159687815260408201914283526060810193600185528054906801000000000000000082101561357c5790613472916001820181556155d5565b9590956135685750946134ec6040989560037fa63d8144c55fb5ca0cbcbeeea8e1b365cc113f4ab5aab289db2285d783e6b7669b9996613536966134d08f9761355a9c518655511515600186019060ff801983541691151516179055565b51600284015551151591019060ff801983541691151516179055565b8751828187516134fd8183876153d2565b810160118152030190208c6000528252876000208b600052825287600020600160ff1982541617905587518093819287519283916153d2565b81016012815203019020896000528752846000208860005287528460002055615925565b9382519182524290820152a4005b634e487b7160e01b60005260006004526000fd5b86634e487b7160e01b60005260416004526000fd5b606486600f856040519262461bcd60e51b845260048401528201527f416c7265616479207265616374656400000000000000000000000000000000006044820152fd5b606483876040519162461bcd60e51b83528160048401528201527f43616e6e6f7420726561637420746f20796f7572206f776e20646973707574656044820152fd5b9096508581813d831161363e575b61362e8183615327565b8101031261082d57519588613361565b503d613624565b61365c9150843d86116108885761087a8183615327565b8c610485565b6064856019886040519262461bcd60e51b845260048401528201527f4e6f20646973707574652066726f6d20746869732075736572000000000000006044820152fd5b6136bc9150863d88116108885761087a8183615327565b88610443565b3461082d57606036600319011261082d5767ffffffffffffffff60043581811161082d576136f4903690600401615349565b602491823590811161082d5761370e903690600401615349565b9061371761542b565b916001600160a01b036000541690604051936345ecd02f60e01b855233600486015260209485818881875afa801561083a5761375a91600091613a855750615bd7565b604051630286b6ab60e31b8152858180613778338960048401615c22565b0381875afa801561083a57879261379a60ff928994600091613a685750615c49565b6137a687511515615e5f565b6137b285511515615eaa565b1693600185101580613a5d575b6137c890615ef5565b6040519788809262b0c80960e01b82523360048301525afa95861561083a57600096613a2e575b506137fb861515615858565b6040518251908681818601936138128183876153d2565b8101600b81520301902087600052865260ff604060002054166139eb57604051868185516138418183876153d2565b8101600a81520301902054916040518781865161385f8183886153d2565b8101600a81520301902061387286615460565b60405161387e816152b7565b898152888101888152604082019061389589615460565b8882526060830192428452608081019460018652805490680100000000000000008210156139d657906138cd9160018201815561578a565b9690966135685750956139426110e596600460409b978f95976139267f5ddcec906a8edfb96c9cf15f08c0fe50115a5547ef76ab3a944ed41acf127d019f9d99986106246139829a6139bf9f5188555160018801615cf6565b51600384015551151591019060ff801983541691151516179055565b8851828187516139538183876153d2565b8101600b8152030190208d600052825288600020600160ff1982541617905588518093819287519283916153d2565b8101600c8152030190208a60005289528560002055601588526139a88186600020615f40565b6139b3601754615b1e565b60175561074984615460565b948251916139cc81615460565b82524290820152a4005b87634e487b7160e01b60005260416004526000fd5b606486601a846040519262461bcd60e51b845260048401528201527f416c7265616479207665726966696564207468697320686173680000000000006044820152fd5b9095508481813d8311613a56575b613a468183615327565b8101031261082d575194866137ef565b503d613a3c565b5060038511156137bf565b613a7f9150853d87116108885761087a8183615327565b8b610485565b6136bc9150873d89116108885761087a8183615327565b3461082d57606036600319011261082d57602435600435604435600581101561082d57613ad56001600160a01b03600154163314615c94565b81600052602060138152613aef6040600020548510615e14565b8115613be6578260005260138152613b0b8460406000206157a6565b50600581019060ff82541615613ba257613b288460038301615dfc565b60044291015560ff19815416905582600052601481526040600020918254918215613b8c577fd27cfed75349d7c1712793c75b771f2a7dd4689406c4d8fdc93b4194b422eb3593604093600019019055613b84835180936156ed565b4290820152a3005b634e487b7160e01b600052601160045260246000fd5b6064836040519062461bcd60e51b82526004820152601560248201527f466c616720616c7265616479207265736f6c76656400000000000000000000006044820152fd5b6064906040519062461bcd60e51b82526004820152601c60248201527f4d7573742070726f76696465207265736f6c7574696f6e2074797065000000006044820152fd5b3461082d57613c38366153a0565b906001600160a01b036000541660405191829162b0c80960e01b835233600484015282602460209485935afa92831561083a57600093613dfc575b50613c7f831515615858565b604051815190838181850193613c968183876153d2565b81016011815203019020856000528352604060002084600052835260ff6040600020541615613db8577fbe97907321aa6637529c6e0bd464af27ddb95fadc266661a0a9c0b693acaa2ba91613dae9160405185818451613cf78183876153d2565b810160128152030190208760005285526040600020866000528552613d83856003610bf260406000205460405184818951613d3381838c6153d2565b810160108152030190208c6000528452613d5760ff84610bd78460406000206155d5565b60405184818951613d6981838c6153d2565b810160108152030190208c600052845260406000206155d5565b8101601181520301902087600052855260406000208660005285526040600020908154169055615925565b91604051428152a4005b6064836040519062461bcd60e51b82526004820152601660248201527f4e6f207265616374696f6e20746f2072657472616374000000000000000000006044820152fd5b9092508181813d8311613e24575b613e148183615327565b8101031261082d57519184613c73565b503d613e0a565b3461082d57602036600319011261082d5760043567ffffffffffffffff811161082d5760ff613e646020612cf381943690600401615349565b8101600881520301902054166040519015158152f35b3461082d5760208060031936011261082d5760043567ffffffffffffffff811161082d5781612cf3613eb0923690600401615349565b8101600281520301902090604051908181845491828152019360005281600020916000905b828210613ef857610a3d85613eec81890382615327565b60405191829182615599565b835486529485019460019384019390910190613ed5565b3461082d57606036600319011261082d57602467ffffffffffffffff600435823582811161082d57613f45903690600401615349565b9160443590811161082d57613f5e903690600401615349565b91613f756001600160a01b03600154163314615c94565b8115614110578251156140cc5781600052601360205260406000209384549460405191613fa183615285565b83835260208301908682526040840142815260608501906000825260808601936000855260a087019560018752680100000000000000008c10156107a8578b613fef916001820181556157a6565b9790976140b7579061400561400f925189615cf6565b5160018801615cf6565b5160028601555190600582101561077f57509361407c8460056140a8956110e5956140607fdc620035e382d2354e94af4ee86406f06a6bc23c13499543d7ad5ee77af524049a600360409b01615dfc565b51600484015551151591019060ff801983541691151516179055565b856000526014602052836000206140938154615b1e565b90556140a0601954615b1e565b601955615925565b948151908152426020820152a4005b84634e487b7160e01b60005260006004526000fd5b60648460196040519162461bcd60e51b8352602060048401528201527f4e6f746520686173682063616e6e6f7420626520656d707479000000000000006044820152fd5b606484601f6040519162461bcd60e51b8352602060048401528201527f5375626a65637420494420686173682063616e6e6f7420626520656d707479006044820152fd5b3461082d57602036600319011261082d5760043567ffffffffffffffff811161082d57610a66611c7a6112af6020612cf3610a3d953690600401615349565b3461082d5760208060031936011261082d5760043567ffffffffffffffff811161082d576141c5903690600401615349565b906001600160a01b0360005416916040516345ecd02f60e01b81523360048201528281602481875afa801561083a5761420591600091611f0b5750615bd7565b60405192630286b6ab60e31b8452828480614224338660048401615c22565b0381845afa90811561083a576142458492602496600091611eee5750615c49565b6040519485809262b0c80960e01b82523360048301525afa92831561083a576000936143c2575b50614278831515615858565b60405181519083818185019361428f8183876153d2565b8101600381520301902084600052835260ff604060002054161561437e57604051838184516142bf8183876153d2565b8101600581520301902084600052835260ff604060002054161561433a577f6394e07ba017d68c6017a8d8fd8ade9c44dd70fd18b290e2d74db2b691ac99fb9161431884610c30936040518093819286519283916153d2565b81016005815203019020856000528452604060002060ff198154169055615925565b6064836040519062461bcd60e51b82526004820152601260248201527f416c726561647920756e616e63686f72656400000000000000000000000000006044820152fd5b6064836040519062461bcd60e51b82526004820152601c60248201527f4e6f742061207375626a656374206f662074686973207265636f7264000000006044820152fd5b9092508181813d83116143ea575b6143da8183615327565b8101031261082d5751918361426c565b503d6143d0565b3461082d5760208060031936011261082d5760043567ffffffffffffffff811161082d57614423903690600401615349565b9061443e8160009381604051938285809451938492016153d2565b8101600a81520301902091825461445481615ab7565b936144626040519586615327565b8185526000908152838120848087015b8484106144ba57878287825160005b8451811015612ef55760806144968287615b0a565b5101516144a6575b600101614481565b916144b2600191615b1e565b92905061449e565b6001916005916144c985615945565b8152019201920191908590614472565b3461082d5760208060031936011261082d5760043567ffffffffffffffff811161082d5781612cf361450f923690600401615349565b81016007815203019020805461452481615ab7565b916145326040519384615327565b8183526000908152838120938084015b8383106145575760405180610a3d87826155f1565b600182819260405161456d81610a66818d6154d2565b815201960192019194614542565b3461082d5760208060031936011261082d5760043567ffffffffffffffff811161082d5781612cf36145b1923690600401615349565b8101600a815203019020908154916145c883615ab7565b926145d66040519485615327565b8084528284018092600052836000206000915b83831061468d5750505050604051918083019381845251809452604083019360408160051b85010192916000955b8287106146245785850386f35b909192938280600192603f1989820301855287519061465460a0835183528484015190808685015283019061543b565b91604081015161466381615460565b60408301526060808201519083015260808091015115159101529601920196019592919092614617565b60058660019261469f859a999a615945565b8152019201920191909594956145e9565b3461082d57606036600319011261082d5760043567ffffffffffffffff811161082d576146e1903690600401615349565b6146fd60206044359281604051938285809451938492016153d2565b810160108152030190206024356000526020526040600020805482101561082d5760809161472a916155d5565b5080549060ff6001820154169060ff60036002830154920154169160405193845215156020840152604083015215156060820152f35b3461082d5760208060031936011261082d5760043567ffffffffffffffff811161082d57614792903690600401615349565b906000916000806147b38460009481604051938285809451938492016153d2565b8101600d8152030190208054906147c982615ab7565b956147d76040519788615327565b82875260009182528082208188015b8484106148e657505050505083519360005b8151811015612a0c5760c061480d8284615b0a565b51015161481d575b6001016147f8565b929561482890615b1e565b95600160406148378685615b0a565b51015161484381615460565b61484c81615460565b036148655761485c600191615b1e565b935b9050614815565b9291600260406148758585615b0a565b51015161488181615460565b61488a81615460565b036148a05761489a600191615b1e565b9261485e565b91600360406148af8385615b0a565b5101516148bb81615460565b6148c481615460565b146148d2575b60019061485e565b936148de600191615b1e565b9490506148ca565b6006836001926148f585615b39565b8152019201930192906147e6565b3461082d5760208060031936011261082d5760043567ffffffffffffffff811161082d57614935903690600401615349565b906040519082519181818186019461494e8183886153d2565b81016002815203019020604051808284829454938481520190600052846000209260005b86828210614aa35750505061498992500382615327565b60009160005b82518110156149ee57604051828188516149aa81838b6153d2565b810160058152030190206149be8285615b0a565b51600052825260ff604060002054166149da575b60010161498f565b926149e6600191615b1e565b9390506149d2565b50939291936149fc85615ab7565b94614a0a6040519687615327565b808652614a19601f1991615ab7565b01368287013760009260005b8351811015614a955760019060405184818951614a438183896153d2565b81016005815203019020614a578287615b0a565b51600052845260ff60406000205416614a71575b01614a25565b614a7b8186615b0a565b51614a8f614a8888615b1e565b978a615b0a565b52614a6b565b60405180610a3d8982615599565b8554845260019586019587955093019201614972565b3461082d576020614acc6119bc366153a0565b8101600f815203019020906000526020526020604060002054604051908152f35b3461082d57602036600319011261082d5760043567ffffffffffffffff811161082d57614b246020612cf381933690600401615349565b8101600781520301902054604051908152f35b3461082d5760208060031936011261082d5760043567ffffffffffffffff811161082d57614b69903690600401615349565b906040519160ff815193838181850196614b8481838a6153d2565b81016008815203019020541615614bc6576126798261268f94614bb2936040519384928392519283916153d2565b610a3d60405192828493845283019061543b565b6064826040519062461bcd60e51b82526004820152601360248201527f4861736820646f6573206e6f74206578697374000000000000000000000000006044820152fd5b3461082d576020614c1d6119bc366153a0565b8101600781520301902090815481101561082d57611c74611c7a91610a3d9361546a565b3461082d57600036600319011261082d57604060175460185482519182526020820152f35b3461082d57614c74366153a0565b600080916040518481809651614c90816020998a8096016153d2565b810160108152030190209060005283526040600020918254614cb181615ab7565b93614cbf6040519586615327565b8185526000908152858120868087015b848410614d5757505050505082519260005b8151811015614d41576060614cf68284615b0a565b510151614d06575b600101614ce1565b9285614d128584615b0a565b51015115614d2e57614d25600191615b1e565b935b9050614cfe565b9291614d3b600191615b1e565b92614d27565b5050906060936040519384528301526040820152f35b600191600491614d6685615acf565b8152019201920191908790614ccf565b3461082d5760208060031936011261082d576004359067ffffffffffffffff821161082d57614dab6024923690600401615349565b816001600160a01b03600054166040519485809262b0c80960e01b82523360048301525afa92831561083a57600093614f10575b50614deb831515615858565b604051815190838181850193614e028183876153d2565b8101600e81520301902084600052835260ff6040600020541615614ecc577f7180e7a407de506e94dc4620f97c3af6aaf73726be177cf5a2118a83ea08e09a91610c309160405185818451614e588183876153d2565b8101600f815203019020866000528552614eac856005610bf284614e9a60ff84610bd78a6132de896040600020549788936040519384928392519283916153d2565b604051848189516132de81838c6153d2565b8101600e8152030190208660005285526040600020908154169055615925565b6064836040519062461bcd60e51b82526004820152601560248201527f4e6f206469737075746520746f207265747261637400000000000000000000006044820152fd5b9092508181813d8311614f38575b614f288183615327565b8101031261082d57519183614ddf565b503d614f1e565b3461082d576020614f526119bc366153a0565b8101600581520301902090600052602052602060ff604060002054166040519015158152f35b3461082d57614f8f614f89366153a0565b906159a0565b906123de6040959495519586951515865260a0602087015260a086019061543b565b3461082d57600036600319011261082d5760206001600160a01b0360005416604051908152f35b3461082d57606036600319011261082d5760043567ffffffffffffffff811161082d57615009903690600401615349565b61501161541b565b61501961542b565b9060ff8080921692600184101580615241575b615035906157c2565b1690600182101580615236575b61504b9061580d565b6001600160a01b03600054169260405194859462b0c80960e01b865233600487015285602460209788935afa95861561083a57600096615207575b50615092861515615858565b6040518151908681818501936150a98183876153d2565b8101600e8152030190208760005286528360406000205416156151c35761510a600291604051888186516150de8183876153d2565b8101600f8152030190208960005288526132de88604060002054926040518093819289519283916153d2565b5061511a856005830154166158a3565b01908154936151358186169461512f81615460565b846158ee565b6006861015612ca7576151ac60a095846151737f5395fbd4f789f9b64d364b4f7ed8200e8d2a75a219f64da159998cb161fdab18996151ba97615906565b549361518184861691615925565b996040519761518f81615460565b885261519a82615460565b87015282604087019160081c166156ca565b606084019160081c166156ca565b426080820152a3005b6064866040519062461bcd60e51b82526004820152601460248201527f4e6f206469737075746520746f206d6f646966790000000000000000000000006044820152fd5b9095508481813d831161522f575b61521f8183615327565b8101031261082d57519486615086565b503d615215565b506005821115615042565b50600384111561502c565b3461082d57602061525f6119bc366153a0565b8101600e81520301902090600052602052602060ff604060002054166040519015158152f35b60c0810190811067ffffffffffffffff8211176152a157604052565b634e487b7160e01b600052604160045260246000fd5b60a0810190811067ffffffffffffffff8211176152a157604052565b6080810190811067ffffffffffffffff8211176152a157604052565b60e0810190811067ffffffffffffffff8211176152a157604052565b6020810190811067ffffffffffffffff8211176152a157604052565b90601f8019910116810190811067ffffffffffffffff8211176152a157604052565b81601f8201121561082d5780359067ffffffffffffffff82116152a1576040519261537e601f8401601f191660200185615327565b8284526020838301011161082d57816000926020809301838601378301015290565b604060031982011261082d576004359067ffffffffffffffff821161082d576153cb91600401615349565b9060243590565b60005b8381106153e55750506000910152565b81810151838201526020016153d5565b602061540e9181604051938285809451938492016153d2565b8101600581520301902090565b6024359060ff8216820361082d57565b6044359060ff8216820361082d57565b90602091615454815180928185528580860191016153d2565b601f01601f1916010190565b60041115612ca757565b80548210156154825760005260206000200190600090565b634e487b7160e01b600052603260045260246000fd5b90600182811c921680156154c8575b60208310146154b257565b634e487b7160e01b600052602260045260246000fd5b91607f16916154a7565b8054600093926154e182615498565b918282526020936001916001811690816000146155495750600114615508575b5050505050565b90939495506000929192528360002092846000945b83861061553557505050500101903880808080615501565b80548587018301529401938590820161551d565b60ff19168685015250505090151560051b010191503880808080615501565b9061558357615580610a6691604051928380926154d2565b90565b634e487b7160e01b600052600060045260246000fd5b602090602060408183019282815285518094520193019160005b8281106155c1575050505090565b8351855293810193928101926001016155b3565b80548210156154825760005260206000209060021b0190600090565b6020808201906020835283518092526040830192602060408460051b8301019501936000915b8483106156275750505050505090565b9091929394958480615645600193603f198682030187528a5161543b565b9801930193019194939290615617565b606060031982011261082d576004359067ffffffffffffffff821161082d5761568091600401615349565b906024359060443590565b606060031982011261082d576004359067ffffffffffffffff821161082d576156b691600401615349565b9060243590604435801515810361082d5790565b906006821015612ca75752565b604090600319011261082d576004359060243590565b906005821015612ca75752565b94919361572a60a09561571c61573a949a99969a60c08a5260c08a019061543b565b9088820360208a015261543b565b97604087015260608601906156ed565b60808401521515910152565b90604060031983011261082d5767ffffffffffffffff60043581811161082d578361577391600401615349565b9260243591821161082d5761558091600401615349565b8054821015615482576000526005602060002091020190600090565b8054821015615482576000526006602060002091020190600090565b156157c957565b606460405162461bcd60e51b815260206004820152601460248201527f5365766572697479206d75737420626520312d330000000000000000000000006044820152fd5b1561581457565b606460405162461bcd60e51b815260206004820152601760248201527f43756c706162696c697479206d75737420626520312d350000000000000000006044820152fd5b1561585f57565b606460405162461bcd60e51b815260206004820152601560248201527f57616c6c6574206e6f74207265676973746572656400000000000000000000006044820152fd5b156158aa57565b606460405162461bcd60e51b815260206004820152601a60248201527f4469737075746520686173206265656e207265747261637465640000000000006044820152fd5b906158f881615460565b60ff80198354169116179055565b906006811015612ca75761ff0082549160081b169061ff001916179055565b61593d906020604051928284809451938492016153d2565b810103902090565b90604051615952816152b7565b608060ff600483958054855260405161597281610a6681600186016154d2565b60208601528260028201541661598781615460565b6040860152600381015460608601520154161515910152565b9190604092835191848251916020948581818701956159c08183896153d2565b8101600b81520301902090600091818352865260ff838320541615615a4f57615a219383610bc8938893615a27989651858189516159ff81838a6153d2565b8101600c815203019020908252845220549389519384928392519283916153d2565b50615945565b908101519281015191615a3983615460565b6080606083015192015115159060019493929190565b50949350505050819251615a628161530b565b8281529180918190565b15615a7357565b606460405162461bcd60e51b815260206004820152601160248201527f416c7265616479207265747261637465640000000000000000000000000000006044820152fd5b67ffffffffffffffff81116152a15760051b60200190565b90604051615adc816152d3565b606060ff60038395805485528260018201541615156020860152600281015460408601520154161515910152565b80518210156154825760209160051b010190565b6000198114613b8c5760010190565b6006821015612ca75752565b90604051615b46816152ef565b60c060ff6005839580548552604051615b6681610a6681600186016154d2565b6020860152615b92836002830154818116615b8081615460565b604089015260081c1660608701615b2d565b604051615ba681610a6681600386016154d2565b6080860152600481015460a08601520154161515910152565b9081602091031261082d5751801515810361082d5790565b15615bde57565b606460405162461bcd60e51b815260206004820152601460248201527f4e6f7420616e20616374697665206d656d6265720000000000000000000000006044820152fd5b906001600160a01b03615c4260209295949560408552604085019061543b565b9416910152565b15615c5057565b606460405162461bcd60e51b815260206004820152601860248201527f4e6f2061636365737320746f2074686973207265636f726400000000000000006044820152fd5b15615c9b57565b606460405162461bcd60e51b815260206004820152600a60248201527f4f6e6c792061646d696e000000000000000000000000000000000000000000006044820152fd5b818110615cea575050565b60008155600101615cdf565b919091825167ffffffffffffffff81116152a157615d148254615498565b601f8111615dbf575b50602080601f8311600114615d5a575081929394600092615d4f575b50508160011b916000199060031b1c1916179055565b015190503880615d39565b90601f19831695846000526020600020926000905b888210615da757505083600195969710615d8e575b505050811b019055565b015160001960f88460031b161c19169055388080615d84565b80600185968294968601518155019501930190615d6f565b615dec90836000526020600020601f840160051c81019160208510615df2575b601f0160051c0190615cdf565b38615d1d565b9091508190615ddf565b906005811015612ca75760ff80198354169116179055565b15615e1b57565b606460405162461bcd60e51b815260206004820152601360248201527f466c616720646f6573206e6f74206578697374000000000000000000000000006044820152fd5b15615e6657565b606460405162461bcd60e51b815260206004820152601960248201527f5265636f72642049442063616e6e6f7420626520656d707479000000000000006044820152fd5b15615eb157565b606460405162461bcd60e51b815260206004820152601b60248201527f5265636f726420686173682063616e6e6f7420626520656d70747900000000006044820152fd5b15615efc57565b606460405162461bcd60e51b815260206004820152601160248201527f4c6576656c206d75737420626520312d330000000000000000000000000000006044820152fd5b8054680100000000000000008110156152a157615f629160018201815561546a565b91909161558357615f7291615cf6565b565b90604051615f8181615285565b8092604051615f9481610a6681856154d2565b8252604051615faa81610a6681600186016154d2565b60208301526002810154604083015260ff600382015416906005821015612ca757600560ff9160a0936060860152600481015460808601520154161515910152565b15615ff357565b606460405162461bcd60e51b815260206004820152600f60248201527f496e76616c6964206164647265737300000000000000000000000000000000006044820152fd5b9060409283519280516020948581818501936160548183876153d2565b8101600e81520301902093600094818652865260ff87862054161561610f57916132de866160b5936160bb958a51838187516160918183886153d2565b8101600f815203019020908952825289882054938a519384928392519283916153d2565b50615b39565b9283015193830151926160cd84615460565b60608101519260068410156160fb575060808101519160c060a0830151920151151590600196959493929190565b80634e487b7160e01b602492526021600452fd5b5050509150809280516161218161530b565b82815292828092516161328161530b565b818152918190565b92909192604093845193825160209586818187019361615a8183876153d2565b81016011815203019020926000938385528752878420818552875260ff888520541615616203576161eb936161e5936161d089606098958c95865183818a516161a48183886153d2565b8101601281520301902085875283528686209086528252858520549686519384928392519283916153d2565b810160108152030190209082528852206155d5565b50615acf565b92830151151593830151920151151590600193929190565b5050509350509050818091819056fea2646970667358221220db9d24a7d3d8a5b82269ad5522707228f8c5eb754be5e5396f7e62d999ccdbe064736f6c63430008170033",
  "linkReferences": {},
  "deployedLinkReferences": {}
}