{
  "_format": "hh-sol-artifact-1",
  "contractName": "HealthRecordCore",
  "sourceName": "contracts/HealthRecordCore.sol",
  "abi": [
    {
      "inputs": [],
      "stateMutability": "nonpayable",
      "type": "constructor"
    },
    {
      "inputs": [
        {
          "internalType": "address",
          "name": "target",
          "type": "address"
        }
      ],
      "name": "AddressEmptyCode",
      "type": "error"
    },
    {
      "inputs": [
        {
          "internalType": "address",
          "name": "implementation",
          "type": "address"
        }
      ],
      "name": "ERC1967InvalidImplementation",
      "type": "error"
    },
    {
      "inputs": [],
      "name": "ERC1967NonPayable",
      "type": "error"
    },
    {
      "inputs": [],
      "name": "FailedInnerCall",
      "type": "error"
    },
    {
      "inputs": [],
      "name": "InvalidInitialization",
      "type": "error"
    },
    {
      "inputs": [],
      "name": "NotInitializing",
      "type": "error"
    },
    {
      "inputs": [],
      "name": "UUPSUnauthorizedCallContext",
      "type": "error"
    },
    {
      "inputs": [
        {
          "internalType": "bytes32",
          "name": "slot",
          "type": "bytes32"
        }
      ],
      "name": "UUPSUnsupportedProxiableUUID",
      "type": "error"
    },
    {
      "anonymous": false,
      "inputs": [
        {
          "indexed": true,
          "internalType": "address",
          "name": "oldAdmin",
          "type": "address"
        },
        {
          "indexed": true,
          "internalType": "address",
          "name": "newAdmin",
          "type": "address"
        },
        {
          "indexed": false,
          "internalType": "uint256",
          "name": "timestamp",
          "type": "uint256"
        }
      ],
      "name": "AdminTransferred",
      "type": "event"
    },
    {
      "anonymous": false,
      "inputs": [
        {
          "indexed": true,
          "internalType": "string",
          "name": "recordHash",
          "type": "string"
        },
        {
          "indexed": true,
          "internalType": "bytes32",
          "name": "disputerIdHash",
          "type": "bytes32"
        },
        {
          "indexed": false,
          "internalType": "enum HealthRecordCore.DisputeSeverity",
          "name": "oldSeverity",
          "type": "uint8"
        },
        {
          "indexed": false,
          "internalType": "enum HealthRecordCore.DisputeSeverity",
          "name": "newSeverity",
          "type": "uint8"
        },
        {
          "indexed": false,
          "internalType": "enum HealthRecordCore.DisputeCulpability",
          "name": "oldCulpability",
          "type": "uint8"
        },
        {
          "indexed": false,
          "internalType": "enum HealthRecordCore.DisputeCulpability",
          "name": "newCulpability",
          "type": "uint8"
        },
        {
          "indexed": false,
          "internalType": "uint256",
          "name": "timestamp",
          "type": "uint256"
        }
      ],
      "name": "DisputeModification",
      "type": "event"
    },
    {
      "anonymous": false,
      "inputs": [
        {
          "indexed": true,
          "internalType": "string",
          "name": "recordHash",
          "type": "string"
        },
        {
          "indexed": true,
          "internalType": "bytes32",
          "name": "reactorIdHash",
          "type": "bytes32"
        },
        {
          "indexed": true,
          "internalType": "bytes32",
          "name": "disputerIdHash",
          "type": "bytes32"
        },
        {
          "indexed": false,
          "internalType": "bool",
          "name": "supportsDispute",
          "type": "bool"
        },
        {
          "indexed": false,
          "internalType": "uint256",
          "name": "timestamp",
          "type": "uint256"
        }
      ],
      "name": "DisputeReaction",
      "type": "event"
    },
    {
      "anonymous": false,
      "inputs": [
        {
          "indexed": true,
          "internalType": "string",
          "name": "recordHash",
          "type": "string"
        },
        {
          "indexed": true,
          "internalType": "bytes32",
          "name": "disputerIdHash",
          "type": "bytes32"
        },
        {
          "indexed": false,
          "internalType": "uint256",
          "name": "timestamp",
          "type": "uint256"
        }
      ],
      "name": "DisputeRetracted",
      "type": "event"
    },
    {
      "anonymous": false,
      "inputs": [
        {
          "indexed": false,
          "internalType": "uint64",
          "name": "version",
          "type": "uint64"
        }
      ],
      "name": "Initialized",
      "type": "event"
    },
    {
      "anonymous": false,
      "inputs": [
        {
          "indexed": true,
          "internalType": "string",
          "name": "recordHash",
          "type": "string"
        },
        {
          "indexed": true,
          "internalType": "bytes32",
          "name": "reactorIdHash",
          "type": "bytes32"
        },
        {
          "indexed": true,
          "internalType": "bytes32",
          "name": "disputerIdHash",
          "type": "bytes32"
        },
        {
          "indexed": false,
          "internalType": "bool",
          "name": "oldSupport",
          "type": "bool"
        },
        {
          "indexed": false,
          "internalType": "bool",
          "name": "newSupport",
          "type": "bool"
        },
        {
          "indexed": false,
          "internalType": "uint256",
          "name": "timestamp",
          "type": "uint256"
        }
      ],
      "name": "ReactionModified",
      "type": "event"
    },
    {
      "anonymous": false,
      "inputs": [
        {
          "indexed": true,
          "internalType": "string",
          "name": "recordHash",
          "type": "string"
        },
        {
          "indexed": true,
          "internalType": "bytes32",
          "name": "reactorIdHash",
          "type": "bytes32"
        },
        {
          "indexed": true,
          "internalType": "bytes32",
          "name": "disputerIdHash",
          "type": "bytes32"
        },
        {
          "indexed": false,
          "internalType": "uint256",
          "name": "timestamp",
          "type": "uint256"
        }
      ],
      "name": "ReactionRetracted",
      "type": "event"
    },
    {
      "anonymous": false,
      "inputs": [
        {
          "indexed": true,
          "internalType": "string",
          "name": "recordId",
          "type": "string"
        },
        {
          "indexed": true,
          "internalType": "string",
          "name": "recordHash",
          "type": "string"
        },
        {
          "indexed": true,
          "internalType": "bytes32",
          "name": "subjectIdHash",
          "type": "bytes32"
        },
        {
          "indexed": false,
          "internalType": "uint256",
          "name": "timestamp",
          "type": "uint256"
        }
      ],
      "name": "RecordAnchored",
      "type": "event"
    },
    {
      "anonymous": false,
      "inputs": [
        {
          "indexed": true,
          "internalType": "string",
          "name": "recordHash",
          "type": "string"
        },
        {
          "indexed": true,
          "internalType": "string",
          "name": "recordId",
          "type": "string"
        },
        {
          "indexed": true,
          "internalType": "bytes32",
          "name": "disputerIdHash",
          "type": "bytes32"
        },
        {
          "indexed": false,
          "internalType": "enum HealthRecordCore.DisputeSeverity",
          "name": "severity",
          "type": "uint8"
        },
        {
          "indexed": false,
          "internalType": "enum HealthRecordCore.DisputeCulpability",
          "name": "culpability",
          "type": "uint8"
        },
        {
          "indexed": false,
          "internalType": "uint256",
          "name": "timestamp",
          "type": "uint256"
        }
      ],
      "name": "RecordDisputed",
      "type": "event"
    },
    {
      "anonymous": false,
      "inputs": [
        {
          "indexed": true,
          "internalType": "string",
          "name": "recordId",
          "type": "string"
        },
        {
          "indexed": true,
          "internalType": "string",
          "name": "newHash",
          "type": "string"
        },
        {
          "indexed": false,
          "internalType": "bytes32",
          "name": "addedBy",
          "type": "bytes32"
        },
        {
          "indexed": false,
          "internalType": "uint256",
          "name": "timestamp",
          "type": "uint256"
        }
      ],
      "name": "RecordHashAdded",
      "type": "event"
    },
    {
      "anonymous": false,
      "inputs": [
        {
          "indexed": true,
          "internalType": "string",
          "name": "recordId",
          "type": "string"
        },
        {
          "indexed": true,
          "internalType": "string",
          "name": "recordHash",
          "type": "string"
        },
        {
          "indexed": false,
          "internalType": "uint256",
          "name": "timestamp",
          "type": "uint256"
        }
      ],
      "name": "RecordHashRetracted",
      "type": "event"
    },
    {
      "anonymous": false,
      "inputs": [
        {
          "indexed": true,
          "internalType": "string",
          "name": "recordId",
          "type": "string"
        },
        {
          "indexed": true,
          "internalType": "bytes32",
          "name": "subjectIdHash",
          "type": "bytes32"
        },
        {
          "indexed": false,
          "internalType": "uint256",
          "name": "timestamp",
          "type": "uint256"
        }
      ],
      "name": "RecordReanchored",
      "type": "event"
    },
    {
      "anonymous": false,
      "inputs": [
        {
          "indexed": true,
          "internalType": "string",
          "name": "recordId",
          "type": "string"
        },
        {
          "indexed": true,
          "internalType": "bytes32",
          "name": "subjectIdHash",
          "type": "bytes32"
        },
        {
          "indexed": false,
          "internalType": "uint256",
          "name": "timestamp",
          "type": "uint256"
        }
      ],
      "name": "RecordUnanchored",
      "type": "event"
    },
    {
      "anonymous": false,
      "inputs": [
        {
          "indexed": true,
          "internalType": "string",
          "name": "recordHash",
          "type": "string"
        },
        {
          "indexed": true,
          "internalType": "string",
          "name": "recordId",
          "type": "string"
        },
        {
          "indexed": true,
          "internalType": "bytes32",
          "name": "verifierIdHash",
          "type": "bytes32"
        },
        {
          "indexed": false,
          "internalType": "enum HealthRecordCore.VerificationLevel",
          "name": "level",
          "type": "uint8"
        },
        {
          "indexed": false,
          "internalType": "uint256",
          "name": "timestamp",
          "type": "uint256"
        }
      ],
      "name": "RecordVerified",
      "type": "event"
    },
    {
      "anonymous": false,
      "inputs": [
        {
          "indexed": true,
          "internalType": "bytes32",
          "name": "subjectIdHash",
          "type": "bytes32"
        },
        {
          "indexed": true,
          "internalType": "string",
          "name": "recordId",
          "type": "string"
        },
        {
          "indexed": true,
          "internalType": "string",
          "name": "noteHash",
          "type": "string"
        },
        {
          "indexed": false,
          "internalType": "uint256",
          "name": "flagIndex",
          "type": "uint256"
        },
        {
          "indexed": false,
          "internalType": "uint256",
          "name": "timestamp",
          "type": "uint256"
        }
      ],
      "name": "UnacceptedUpdateFlagged",
      "type": "event"
    },
    {
      "anonymous": false,
      "inputs": [
        {
          "indexed": true,
          "internalType": "bytes32",
          "name": "subjectIdHash",
          "type": "bytes32"
        },
        {
          "indexed": true,
          "internalType": "uint256",
          "name": "flagIndex",
          "type": "uint256"
        },
        {
          "indexed": false,
          "internalType": "enum HealthRecordCore.ResolutionType",
          "name": "resolution",
          "type": "uint8"
        },
        {
          "indexed": false,
          "internalType": "uint256",
          "name": "timestamp",
          "type": "uint256"
        }
      ],
      "name": "UnacceptedUpdateResolved",
      "type": "event"
    },
    {
      "anonymous": false,
      "inputs": [
        {
          "indexed": true,
          "internalType": "address",
          "name": "implementation",
          "type": "address"
        }
      ],
      "name": "Upgraded",
      "type": "event"
    },
    {
      "anonymous": false,
      "inputs": [
        {
          "indexed": true,
          "internalType": "string",
          "name": "recordHash",
          "type": "string"
        },
        {
          "indexed": true,
          "internalType": "bytes32",
          "name": "verifierIdHash",
          "type": "bytes32"
        },
        {
          "indexed": false,
          "internalType": "enum HealthRecordCore.VerificationLevel",
          "name": "oldLevel",
          "type": "uint8"
        },
        {
          "indexed": false,
          "internalType": "enum HealthRecordCore.VerificationLevel",
          "name": "newLevel",
          "type": "uint8"
        },
        {
          "indexed": false,
          "internalType": "uint256",
          "name": "timestamp",
          "type": "uint256"
        }
      ],
      "name": "VerificationLevelModified",
      "type": "event"
    },
    {
      "anonymous": false,
      "inputs": [
        {
          "indexed": true,
          "internalType": "string",
          "name": "recordHash",
          "type": "string"
        },
        {
          "indexed": true,
          "internalType": "bytes32",
          "name": "verifierIdHash",
          "type": "bytes32"
        },
        {
          "indexed": false,
          "internalType": "uint256",
          "name": "timestamp",
          "type": "uint256"
        }
      ],
      "name": "VerificationRetracted",
      "type": "event"
    },
    {
      "inputs": [],
      "name": "UPGRADE_INTERFACE_VERSION",
      "outputs": [
        {
          "internalType": "string",
          "name": "",
          "type": "string"
        }
      ],
      "stateMutability": "view",
      "type": "function"
    },
    {
      "inputs": [
        {
          "internalType": "bytes32",
          "name": "",
          "type": "bytes32"
        }
      ],
      "name": "activeUnacceptedFlagCount",
      "outputs": [
        {
          "internalType": "uint256",
          "name": "",
          "type": "uint256"
        }
      ],
      "stateMutability": "view",
      "type": "function"
    },
    {
      "inputs": [
        {
          "internalType": "string",
          "name": "recordId",
          "type": "string"
        },
        {
          "internalType": "string",
          "name": "newHash",
          "type": "string"
        }
      ],
      "name": "addRecordHash",
      "outputs": [],
      "stateMutability": "nonpayable",
      "type": "function"
    },
    {
      "inputs": [],
      "name": "admin",
      "outputs": [
        {
          "internalType": "address",
          "name": "",
          "type": "address"
        }
      ],
      "stateMutability": "view",
      "type": "function"
    },
    {
      "inputs": [
        {
          "internalType": "string",
          "name": "recordId",
          "type": "string"
        },
        {
          "internalType": "string",
          "name": "recordHash",
          "type": "string"
        }
      ],
      "name": "anchorRecord",
      "outputs": [],
      "stateMutability": "nonpayable",
      "type": "function"
    },
    {
      "inputs": [
        {
          "internalType": "string",
          "name": "",
          "type": "string"
        },
        {
          "internalType": "bytes32",
          "name": "",
          "type": "bytes32"
        }
      ],
      "name": "currentlyDisputed",
      "outputs": [
        {
          "internalType": "bool",
          "name": "",
          "type": "bool"
        }
      ],
      "stateMutability": "view",
      "type": "function"
    },
    {
      "inputs": [
        {
          "internalType": "string",
          "name": "",
          "type": "string"
        },
        {
          "internalType": "bytes32",
          "name": "",
          "type": "bytes32"
        },
        {
          "internalType": "bytes32",
          "name": "",
          "type": "bytes32"
        }
      ],
      "name": "currentlyReacted",
      "outputs": [
        {
          "internalType": "bool",
          "name": "",
          "type": "bool"
        }
      ],
      "stateMutability": "view",
      "type": "function"
    },
    {
      "inputs": [
        {
          "internalType": "string",
          "name": "",
          "type": "string"
        },
        {
          "internalType": "bytes32",
          "name": "",
          "type": "bytes32"
        }
      ],
      "name": "currentlyVerified",
      "outputs": [
        {
          "internalType": "bool",
          "name": "",
          "type": "bool"
        }
      ],
      "stateMutability": "view",
      "type": "function"
    },
    {
      "inputs": [
        {
          "internalType": "string",
          "name": "",
          "type": "string"
        },
        {
          "internalType": "bytes32",
          "name": "",
          "type": "bytes32"
        }
      ],
      "name": "disputeIndex",
      "outputs": [
        {
          "internalType": "uint256",
          "name": "",
          "type": "uint256"
        }
      ],
      "stateMutability": "view",
      "type": "function"
    },
    {
      "inputs": [
        {
          "internalType": "string",
          "name": "",
          "type": "string"
        },
        {
          "internalType": "bytes32",
          "name": "",
          "type": "bytes32"
        },
        {
          "internalType": "uint256",
          "name": "",
          "type": "uint256"
        }
      ],
      "name": "disputeReactions",
      "outputs": [
        {
          "internalType": "bytes32",
          "name": "reactorIdHash",
          "type": "bytes32"
        },
        {
          "internalType": "bool",
          "name": "supportsDispute",
          "type": "bool"
        },
        {
          "internalType": "uint256",
          "name": "timestamp",
          "type": "uint256"
        },
        {
          "internalType": "bool",
          "name": "isActive",
          "type": "bool"
        }
      ],
      "stateMutability": "view",
      "type": "function"
    },
    {
      "inputs": [
        {
          "internalType": "string",
          "name": "recordId",
          "type": "string"
        },
        {
          "internalType": "string",
          "name": "recordHash",
          "type": "string"
        },
        {
          "internalType": "uint8",
          "name": "severity",
          "type": "uint8"
        },
        {
          "internalType": "uint8",
          "name": "culpability",
          "type": "uint8"
        },
        {
          "internalType": "string",
          "name": "notes",
          "type": "string"
        }
      ],
      "name": "disputeRecord",
      "outputs": [],
      "stateMutability": "nonpayable",
      "type": "function"
    },
    {
      "inputs": [
        {
          "internalType": "string",
          "name": "",
          "type": "string"
        },
        {
          "internalType": "uint256",
          "name": "",
          "type": "uint256"
        }
      ],
      "name": "disputes",
      "outputs": [
        {
          "internalType": "bytes32",
          "name": "disputerIdHash",
          "type": "bytes32"
        },
        {
          "internalType": "string",
          "name": "recordId",
          "type": "string"
        },
        {
          "internalType": "enum HealthRecordCore.DisputeSeverity",
          "name": "severity",
          "type": "uint8"
        },
        {
          "internalType": "enum HealthRecordCore.DisputeCulpability",
          "name": "culpability",
          "type": "uint8"
        },
        {
          "internalType": "string",
          "name": "notes",
          "type": "string"
        },
        {
          "internalType": "uint256",
          "name": "createdAt",
          "type": "uint256"
        },
        {
          "internalType": "bool",
          "name": "isActive",
          "type": "bool"
        }
      ],
      "stateMutability": "view",
      "type": "function"
    },
    {
      "inputs": [
        {
          "internalType": "bytes32",
          "name": "",
          "type": "bytes32"
        },
        {
          "internalType": "uint256",
          "name": "",
          "type": "uint256"
        }
      ],
      "name": "disputesByUser",
      "outputs": [
        {
          "internalType": "string",
          "name": "",
          "type": "string"
        }
      ],
      "stateMutability": "view",
      "type": "function"
    },
    {
      "inputs": [
        {
          "internalType": "string",
          "name": "recordHash",
          "type": "string"
        }
      ],
      "name": "doesHashExist",
      "outputs": [
        {
          "internalType": "bool",
          "name": "",
          "type": "bool"
        }
      ],
      "stateMutability": "view",
      "type": "function"
    },
    {
      "inputs": [
        {
          "internalType": "bytes32",
          "name": "subjectIdHash",
          "type": "bytes32"
        },
        {
          "internalType": "string",
          "name": "recordId",
          "type": "string"
        },
        {
          "internalType": "string",
          "name": "noteHash",
          "type": "string"
        }
      ],
      "name": "flagUnacceptedUpdate",
      "outputs": [],
      "stateMutability": "nonpayable",
      "type": "function"
    },
    {
      "inputs": [
        {
          "internalType": "string",
          "name": "recordId",
          "type": "string"
        }
      ],
      "name": "getActiveRecordSubjects",
      "outputs": [
        {
          "internalType": "bytes32[]",
          "name": "",
          "type": "bytes32[]"
        }
      ],
      "stateMutability": "view",
      "type": "function"
    },
    {
      "inputs": [
        {
          "internalType": "bytes32",
          "name": "subjectIdHash",
          "type": "bytes32"
        }
      ],
      "name": "getActiveUnacceptedFlagCount",
      "outputs": [
        {
          "internalType": "uint256",
          "name": "",
          "type": "uint256"
        }
      ],
      "stateMutability": "view",
      "type": "function"
    },
    {
      "inputs": [
        {
          "internalType": "string",
          "name": "recordHash",
          "type": "string"
        },
        {
          "internalType": "bytes32",
          "name": "disputerIdHash",
          "type": "bytes32"
        }
      ],
      "name": "getDisputeReactions",
      "outputs": [
        {
          "components": [
            {
              "internalType": "bytes32",
              "name": "reactorIdHash",
              "type": "bytes32"
            },
            {
              "internalType": "bool",
              "name": "supportsDispute",
              "type": "bool"
            },
            {
              "internalType": "uint256",
              "name": "timestamp",
              "type": "uint256"
            },
            {
              "internalType": "bool",
              "name": "isActive",
              "type": "bool"
            }
          ],
          "internalType": "struct HealthRecordCore.Reaction[]",
          "name": "",
          "type": "tuple[]"
        }
      ],
      "stateMutability": "view",
      "type": "function"
    },
    {
      "inputs": [
        {
          "internalType": "string",
          "name": "recordHash",
          "type": "string"
        }
      ],
      "name": "getDisputeStats",
      "outputs": [
        {
          "internalType": "uint256",
          "name": "total",
          "type": "uint256"
        },
        {
          "internalType": "uint256",
          "name": "active",
          "type": "uint256"
        }
      ],
      "stateMutability": "view",
      "type": "function"
    },
    {
      "inputs": [
        {
          "internalType": "string",
          "name": "recordHash",
          "type": "string"
        }
      ],
      "name": "getDisputes",
      "outputs": [
        {
          "components": [
            {
              "internalType": "bytes32",
              "name": "disputerIdHash",
              "type": "bytes32"
            },
            {
              "internalType": "string",
              "name": "recordId",
              "type": "string"
            },
            {
              "internalType": "enum HealthRecordCore.DisputeSeverity",
              "name": "severity",
              "type": "uint8"
            },
            {
              "internalType": "enum HealthRecordCore.DisputeCulpability",
              "name": "culpability",
              "type": "uint8"
            },
            {
              "internalType": "string",
              "name": "notes",
              "type": "string"
            },
            {
              "internalType": "uint256",
              "name": "createdAt",
              "type": "uint256"
            },
            {
              "internalType": "bool",
              "name": "isActive",
              "type": "bool"
            }
          ],
          "internalType": "struct HealthRecordCore.Dispute[]",
          "name": "",
          "type": "tuple[]"
        }
      ],
      "stateMutability": "view",
      "type": "function"
    },
    {
      "inputs": [
        {
          "internalType": "string",
          "name": "recordHash",
          "type": "string"
        },
        {
          "internalType": "bytes32",
          "name": "disputerIdHash",
          "type": "bytes32"
        }
      ],
      "name": "getReactionStats",
      "outputs": [
        {
          "internalType": "uint256",
          "name": "totalReactions",
          "type": "uint256"
        },
        {
          "internalType": "uint256",
          "name": "activeSupports",
          "type": "uint256"
        },
        {
          "internalType": "uint256",
          "name": "activeOpposes",
          "type": "uint256"
        }
      ],
      "stateMutability": "view",
      "type": "function"
    },
    {
      "inputs": [
        {
          "internalType": "string",
          "name": "recordHash",
          "type": "string"
        }
      ],
      "name": "getRecordIdForHash",
      "outputs": [
        {
          "internalType": "string",
          "name": "",
          "type": "string"
        }
      ],
      "stateMutability": "view",
      "type": "function"
    },
    {
      "inputs": [
        {
          "internalType": "string",
          "name": "recordId",
          "type": "string"
        }
      ],
      "name": "getRecordSubjects",
      "outputs": [
        {
          "internalType": "bytes32[]",
          "name": "",
          "type": "bytes32[]"
        }
      ],
      "stateMutability": "view",
      "type": "function"
    },
    {
      "inputs": [
        {
          "internalType": "string",
          "name": "recordId",
          "type": "string"
        }
      ],
      "name": "getRecordVersionHistory",
      "outputs": [
        {
          "internalType": "string[]",
          "name": "",
          "type": "string[]"
        }
      ],
      "stateMutability": "view",
      "type": "function"
    },
    {
      "inputs": [
        {
          "internalType": "bytes32",
          "name": "userIdHash",
          "type": "bytes32"
        }
      ],
      "name": "getSubjectMedicalHistory",
      "outputs": [
        {
          "internalType": "string[]",
          "name": "",
          "type": "string[]"
        }
      ],
      "stateMutability": "view",
      "type": "function"
    },
    {
      "inputs": [
        {
          "internalType": "string",
          "name": "recordId",
          "type": "string"
        }
      ],
      "name": "getSubjectStats",
      "outputs": [
        {
          "internalType": "uint256",
          "name": "total",
          "type": "uint256"
        },
        {
          "internalType": "uint256",
          "name": "active",
          "type": "uint256"
        }
      ],
      "stateMutability": "view",
      "type": "function"
    },
    {
      "inputs": [],
      "name": "getTotalAnchoredRecords",
      "outputs": [
        {
          "internalType": "uint256",
          "name": "",
          "type": "uint256"
        }
      ],
      "stateMutability": "view",
      "type": "function"
    },
    {
      "inputs": [
        {
          "internalType": "bytes32",
          "name": "subjectIdHash",
          "type": "bytes32"
        },
        {
          "internalType": "uint256",
          "name": "flagIndex",
          "type": "uint256"
        }
      ],
      "name": "getUnacceptedUpdateFlag",
      "outputs": [
        {
          "internalType": "string",
          "name": "recordId",
          "type": "string"
        },
        {
          "internalType": "string",
          "name": "noteHash",
          "type": "string"
        },
        {
          "internalType": "uint256",
          "name": "createdAt",
          "type": "uint256"
        },
        {
          "internalType": "enum HealthRecordCore.ResolutionType",
          "name": "resolution",
          "type": "uint8"
        },
        {
          "internalType": "uint256",
          "name": "resolvedAt",
          "type": "uint256"
        },
        {
          "internalType": "bool",
          "name": "isActive",
          "type": "bool"
        }
      ],
      "stateMutability": "view",
      "type": "function"
    },
    {
      "inputs": [
        {
          "internalType": "bytes32",
          "name": "subjectIdHash",
          "type": "bytes32"
        }
      ],
      "name": "getUnacceptedUpdateFlags",
      "outputs": [
        {
          "components": [
            {
              "internalType": "string",
              "name": "recordId",
              "type": "string"
            },
            {
              "internalType": "string",
              "name": "noteHash",
              "type": "string"
            },
            {
              "internalType": "uint256",
              "name": "createdAt",
              "type": "uint256"
            },
            {
              "internalType": "enum HealthRecordCore.ResolutionType",
              "name": "resolution",
              "type": "uint8"
            },
            {
              "internalType": "uint256",
              "name": "resolvedAt",
              "type": "uint256"
            },
            {
              "internalType": "bool",
              "name": "isActive",
              "type": "bool"
            }
          ],
          "internalType": "struct HealthRecordCore.UnacceptedUpdateFlag[]",
          "name": "",
          "type": "tuple[]"
        }
      ],
      "stateMutability": "view",
      "type": "function"
    },
    {
      "inputs": [
        {
          "internalType": "string",
          "name": "recordHash",
          "type": "string"
        },
        {
          "internalType": "bytes32",
          "name": "userIdHash",
          "type": "bytes32"
        }
      ],
      "name": "getUserDispute",
      "outputs": [
        {
          "internalType": "bool",
          "name": "exists",
          "type": "bool"
        },
        {
          "internalType": "string",
          "name": "recordId",
          "type": "string"
        },
        {
          "internalType": "enum HealthRecordCore.DisputeSeverity",
          "name": "severity",
          "type": "uint8"
        },
        {
          "internalType": "enum HealthRecordCore.DisputeCulpability",
          "name": "culpability",
          "type": "uint8"
        },
        {
          "internalType": "string",
          "name": "notes",
          "type": "string"
        },
        {
          "internalType": "uint256",
          "name": "createdAt",
          "type": "uint256"
        },
        {
          "internalType": "bool",
          "name": "isActive",
          "type": "bool"
        }
      ],
      "stateMutability": "view",
      "type": "function"
    },
    {
      "inputs": [
        {
          "internalType": "bytes32",
          "name": "userIdHash",
          "type": "bytes32"
        }
      ],
      "name": "getUserDisputes",
      "outputs": [
        {
          "internalType": "string[]",
          "name": "",
          "type": "string[]"
        }
      ],
      "stateMutability": "view",
      "type": "function"
    },
    {
      "inputs": [
        {
          "internalType": "string",
          "name": "recordHash",
          "type": "string"
        },
        {
          "internalType": "bytes32",
          "name": "disputerIdHash",
          "type": "bytes32"
        },
        {
          "internalType": "bytes32",
          "name": "reactorIdHash",
          "type": "bytes32"
        }
      ],
      "name": "getUserReaction",
      "outputs": [
        {
          "internalType": "bool",
          "name": "exists",
          "type": "bool"
        },
        {
          "internalType": "bool",
          "name": "supportsDispute",
          "type": "bool"
        },
        {
          "internalType": "uint256",
          "name": "timestamp",
          "type": "uint256"
        },
        {
          "internalType": "bool",
          "name": "isActive",
          "type": "bool"
        }
      ],
      "stateMutability": "view",
      "type": "function"
    },
    {
      "inputs": [
        {
          "internalType": "string",
          "name": "recordHash",
          "type": "string"
        },
        {
          "internalType": "bytes32",
          "name": "userIdHash",
          "type": "bytes32"
        }
      ],
      "name": "getUserVerification",
      "outputs": [
        {
          "internalType": "bool",
          "name": "exists",
          "type": "bool"
        },
        {
          "internalType": "string",
          "name": "recordId",
          "type": "string"
        },
        {
          "internalType": "enum HealthRecordCore.VerificationLevel",
          "name": "level",
          "type": "uint8"
        },
        {
          "internalType": "uint256",
          "name": "createdAt",
          "type": "uint256"
        },
        {
          "internalType": "bool",
          "name": "isActive",
          "type": "bool"
        }
      ],
      "stateMutability": "view",
      "type": "function"
    },
    {
      "inputs": [
        {
          "internalType": "bytes32",
          "name": "userIdHash",
          "type": "bytes32"
        }
      ],
      "name": "getUserVerifications",
      "outputs": [
        {
          "internalType": "string[]",
          "name": "",
          "type": "string[]"
        }
      ],
      "stateMutability": "view",
      "type": "function"
    },
    {
      "inputs": [
        {
          "internalType": "string",
          "name": "recordHash",
          "type": "string"
        }
      ],
      "name": "getVerificationStats",
      "outputs": [
        {
          "internalType": "uint256",
          "name": "total",
          "type": "uint256"
        },
        {
          "internalType": "uint256",
          "name": "active",
          "type": "uint256"
        }
      ],
      "stateMutability": "view",
      "type": "function"
    },
    {
      "inputs": [
        {
          "internalType": "string",
          "name": "recordHash",
          "type": "string"
        }
      ],
      "name": "getVerifications",
      "outputs": [
        {
          "components": [
            {
              "internalType": "bytes32",
              "name": "verifierIdHash",
              "type": "bytes32"
            },
            {
              "internalType": "string",
              "name": "recordId",
              "type": "string"
            },
            {
              "internalType": "enum HealthRecordCore.VerificationLevel",
              "name": "level",
              "type": "uint8"
            },
            {
              "internalType": "uint256",
              "name": "createdAt",
              "type": "uint256"
            },
            {
              "internalType": "bool",
              "name": "isActive",
              "type": "bool"
            }
          ],
          "internalType": "struct HealthRecordCore.Verification[]",
          "name": "",
          "type": "tuple[]"
        }
      ],
      "stateMutability": "view",
      "type": "function"
    },
    {
      "inputs": [
        {
          "internalType": "string",
          "name": "recordId",
          "type": "string"
        }
      ],
      "name": "getVersionCount",
      "outputs": [
        {
          "internalType": "uint256",
          "name": "",
          "type": "uint256"
        }
      ],
      "stateMutability": "view",
      "type": "function"
    },
    {
      "inputs": [
        {
          "internalType": "bytes32",
          "name": "subjectIdHash",
          "type": "bytes32"
        }
      ],
      "name": "hasActiveUnacceptedFlags",
      "outputs": [
        {
          "internalType": "bool",
          "name": "",
          "type": "bool"
        }
      ],
      "stateMutability": "view",
      "type": "function"
    },
    {
      "inputs": [
        {
          "internalType": "string",
          "name": "recordHash",
          "type": "string"
        },
        {
          "internalType": "bytes32",
          "name": "userIdHash",
          "type": "bytes32"
        }
      ],
      "name": "hasUserDisputed",
      "outputs": [
        {
          "internalType": "bool",
          "name": "",
          "type": "bool"
        }
      ],
      "stateMutability": "view",
      "type": "function"
    },
    {
      "inputs": [
        {
          "internalType": "string",
          "name": "recordHash",
          "type": "string"
        },
        {
          "internalType": "bytes32",
          "name": "disputerIdHash",
          "type": "bytes32"
        },
        {
          "internalType": "bytes32",
          "name": "reactorIdHash",
          "type": "bytes32"
        }
      ],
      "name": "hasUserReacted",
      "outputs": [
        {
          "internalType": "bool",
          "name": "",
          "type": "bool"
        }
      ],
      "stateMutability": "view",
      "type": "function"
    },
    {
      "inputs": [
        {
          "internalType": "string",
          "name": "recordHash",
          "type": "string"
        },
        {
          "internalType": "bytes32",
          "name": "userIdHash",
          "type": "bytes32"
        }
      ],
      "name": "hasUserVerified",
      "outputs": [
        {
          "internalType": "bool",
          "name": "",
          "type": "bool"
        }
      ],
      "stateMutability": "view",
      "type": "function"
    },
    {
      "inputs": [
        {
          "internalType": "address",
          "name": "_memberRoleManager",
          "type": "address"
        }
      ],
      "name": "initialize",
      "outputs": [],
      "stateMutability": "nonpayable",
      "type": "function"
    },
    {
      "inputs": [
        {
          "internalType": "string",
          "name": "recordId",
          "type": "string"
        },
        {
          "internalType": "bytes32",
          "name": "userIdHash",
          "type": "bytes32"
        }
      ],
      "name": "isActiveSubject",
      "outputs": [
        {
          "internalType": "bool",
          "name": "",
          "type": "bool"
        }
      ],
      "stateMutability": "view",
      "type": "function"
    },
    {
      "inputs": [
        {
          "internalType": "string",
          "name": "",
          "type": "string"
        }
      ],
      "name": "isHashActive",
      "outputs": [
        {
          "internalType": "bool",
          "name": "",
          "type": "bool"
        }
      ],
      "stateMutability": "view",
      "type": "function"
    },
    {
      "inputs": [
        {
          "internalType": "string",
          "name": "recordId",
          "type": "string"
        },
        {
          "internalType": "bytes32",
          "name": "userIdHash",
          "type": "bytes32"
        }
      ],
      "name": "isSubject",
      "outputs": [
        {
          "internalType": "bool",
          "name": "",
          "type": "bool"
        }
      ],
      "stateMutability": "view",
      "type": "function"
    },
    {
      "inputs": [
        {
          "internalType": "string",
          "name": "",
          "type": "string"
        },
        {
          "internalType": "bytes32",
          "name": "",
          "type": "bytes32"
        }
      ],
      "name": "isSubjectActive",
      "outputs": [
        {
          "internalType": "bool",
          "name": "",
          "type": "bool"
        }
      ],
      "stateMutability": "view",
      "type": "function"
    },
    {
      "inputs": [
        {
          "internalType": "string",
          "name": "",
          "type": "string"
        },
        {
          "internalType": "bytes32",
          "name": "",
          "type": "bytes32"
        }
      ],
      "name": "isSubjectOfRecord",
      "outputs": [
        {
          "internalType": "bool",
          "name": "",
          "type": "bool"
        }
      ],
      "stateMutability": "view",
      "type": "function"
    },
    {
      "inputs": [],
      "name": "memberRoleManager",
      "outputs": [
        {
          "internalType": "contract MemberRoleManagerInterface",
          "name": "",
          "type": "address"
        }
      ],
      "stateMutability": "view",
      "type": "function"
    },
    {
      "inputs": [
        {
          "internalType": "string",
          "name": "recordHash",
          "type": "string"
        },
        {
          "internalType": "uint8",
          "name": "newSeverity",
          "type": "uint8"
        },
        {
          "internalType": "uint8",
          "name": "newCulpability",
          "type": "uint8"
        }
      ],
      "name": "modifyDispute",
      "outputs": [],
      "stateMutability": "nonpayable",
      "type": "function"
    },
    {
      "inputs": [
        {
          "internalType": "string",
          "name": "recordHash",
          "type": "string"
        },
        {
          "internalType": "bytes32",
          "name": "disputerIdHash",
          "type": "bytes32"
        },
        {
          "internalType": "bool",
          "name": "newSupport",
          "type": "bool"
        }
      ],
      "name": "modifyReaction",
      "outputs": [],
      "stateMutability": "nonpayable",
      "type": "function"
    },
    {
      "inputs": [
        {
          "internalType": "string",
          "name": "recordHash",
          "type": "string"
        },
        {
          "internalType": "uint8",
          "name": "newLevel",
          "type": "uint8"
        }
      ],
      "name": "modifyVerificationLevel",
      "outputs": [],
      "stateMutability": "nonpayable",
      "type": "function"
    },
    {
      "inputs": [],
      "name": "proxiableUUID",
      "outputs": [
        {
          "internalType": "bytes32",
          "name": "",
          "type": "bytes32"
        }
      ],
      "stateMutability": "view",
      "type": "function"
    },
    {
      "inputs": [
        {
          "internalType": "string",
          "name": "recordHash",
          "type": "string"
        },
        {
          "internalType": "bytes32",
          "name": "disputerIdHash",
          "type": "bytes32"
        },
        {
          "internalType": "bool",
          "name": "supportsDispute",
          "type": "bool"
        }
      ],
      "name": "reactToDispute",
      "outputs": [],
      "stateMutability": "nonpayable",
      "type": "function"
    },
    {
      "inputs": [
        {
          "internalType": "string",
          "name": "",
          "type": "string"
        },
        {
          "internalType": "bytes32",
          "name": "",
          "type": "bytes32"
        },
        {
          "internalType": "bytes32",
          "name": "",
          "type": "bytes32"
        }
      ],
      "name": "reactionIndex",
      "outputs": [
        {
          "internalType": "uint256",
          "name": "",
          "type": "uint256"
        }
      ],
      "stateMutability": "view",
      "type": "function"
    },
    {
      "inputs": [
        {
          "internalType": "string",
          "name": "recordId",
          "type": "string"
        }
      ],
      "name": "reanchorRecord",
      "outputs": [],
      "stateMutability": "nonpayable",
      "type": "function"
    },
    {
      "inputs": [
        {
          "internalType": "string",
          "name": "",
          "type": "string"
        }
      ],
      "name": "recordIdForHash",
      "outputs": [
        {
          "internalType": "string",
          "name": "",
          "type": "string"
        }
      ],
      "stateMutability": "view",
      "type": "function"
    },
    {
      "inputs": [
        {
          "internalType": "string",
          "name": "",
          "type": "string"
        },
        {
          "internalType": "uint256",
          "name": "",
          "type": "uint256"
        }
      ],
      "name": "recordSubjects",
      "outputs": [
        {
          "internalType": "bytes32",
          "name": "",
          "type": "bytes32"
        }
      ],
      "stateMutability": "view",
      "type": "function"
    },
    {
      "inputs": [
        {
          "internalType": "string",
          "name": "",
          "type": "string"
        },
        {
          "internalType": "uint256",
          "name": "",
          "type": "uint256"
        }
      ],
      "name": "recordVersionHistory",
      "outputs": [
        {
          "internalType": "string",
          "name": "",
          "type": "string"
        }
      ],
      "stateMutability": "view",
      "type": "function"
    },
    {
      "inputs": [
        {
          "internalType": "bytes32",
          "name": "subjectIdHash",
          "type": "bytes32"
        },
        {
          "internalType": "uint256",
          "name": "flagIndex",
          "type": "uint256"
        },
        {
          "internalType": "enum HealthRecordCore.ResolutionType",
          "name": "resolution",
          "type": "uint8"
        }
      ],
      "name": "resolveUnacceptedUpdate",
      "outputs": [],
      "stateMutability": "nonpayable",
      "type": "function"
    },
    {
      "inputs": [
        {
          "internalType": "string",
          "name": "recordHash",
          "type": "string"
        }
      ],
      "name": "retractDispute",
      "outputs": [],
      "stateMutability": "nonpayable",
      "type": "function"
    },
    {
      "inputs": [
        {
          "internalType": "string",
          "name": "recordHash",
          "type": "string"
        },
        {
          "internalType": "bytes32",
          "name": "disputerIdHash",
          "type": "bytes32"
        }
      ],
      "name": "retractReaction",
      "outputs": [],
      "stateMutability": "nonpayable",
      "type": "function"
    },
    {
      "inputs": [
        {
          "internalType": "string",
          "name": "recordId",
          "type": "string"
        },
        {
          "internalType": "string",
          "name": "recordHash",
          "type": "string"
        }
      ],
      "name": "retractRecordHash",
      "outputs": [],
      "stateMutability": "nonpayable",
      "type": "function"
    },
    {
      "inputs": [
        {
          "internalType": "string",
          "name": "recordHash",
          "type": "string"
        }
      ],
      "name": "retractVerification",
      "outputs": [],
      "stateMutability": "nonpayable",
      "type": "function"
    },
    {
      "inputs": [
        {
          "internalType": "address",
          "name": "_memberRoleManager",
          "type": "address"
        }
      ],
      "name": "setMemberRoleManager",
      "outputs": [],
      "stateMutability": "nonpayable",
      "type": "function"
    },
    {
      "inputs": [
        {
          "internalType": "bytes32",
          "name": "",
          "type": "bytes32"
        },
        {
          "internalType": "uint256",
          "name": "",
          "type": "uint256"
        }
      ],
      "name": "subjectMedicalHistory",
      "outputs": [
        {
          "internalType": "string",
          "name": "",
          "type": "string"
        }
      ],
      "stateMutability": "view",
      "type": "function"
    },
    {
      "inputs": [],
      "name": "totalAnchoredRecords",
      "outputs": [
        {
          "internalType": "uint256",
          "name": "",
          "type": "uint256"
        }
      ],
      "stateMutability": "view",
      "type": "function"
    },
    {
      "inputs": [],
      "name": "totalDisputes",
      "outputs": [
        {
          "internalType": "uint256",
          "name": "",
          "type": "uint256"
        }
      ],
      "stateMutability": "view",
      "type": "function"
    },
    {
      "inputs": [],
      "name": "totalUnacceptedFlags",
      "outputs": [
        {
          "internalType": "uint256",
          "name": "",
          "type": "uint256"
        }
      ],
      "stateMutability": "view",
      "type": "function"
    },
    {
      "inputs": [],
      "name": "totalVerifications",
      "outputs": [
        {
          "internalType": "uint256",
          "name": "",
          "type": "uint256"
        }
      ],
      "stateMutability": "view",
      "type": "function"
    },
    {
      "inputs": [
        {
          "internalType": "address",
          "name": "newAdmin",
          "type": "address"
        }
      ],
      "name": "transferAdmin",
      "outputs": [],
      "stateMutability": "nonpayable",
      "type": "function"
    },
    {
      "inputs": [
        {
          "internalType": "bytes32",
          "name": "",
          "type": "bytes32"
        },
        {
          "internalType": "uint256",
          "name": "",
          "type": "uint256"
        }
      ],
      "name": "unacceptedUpdateFlags",
      "outputs": [
        {
          "internalType": "string",
          "name": "recordId",
          "type": "string"
        },
        {
          "internalType": "string",
          "name": "noteHash",
          "type": "string"
        },
        {
          "internalType": "uint256",
          "name": "createdAt",
          "type": "uint256"
        },
        {
          "internalType": "enum HealthRecordCore.ResolutionType",
          "name": "resolution",
          "type": "uint8"
        },
        {
          "internalType": "uint256",
          "name": "resolvedAt",
          "type": "uint256"
        },
        {
          "internalType": "bool",
          "name": "isActive",
          "type": "bool"
        }
      ],
      "stateMutability": "view",
      "type": "function"
    },
    {
      "inputs": [
        {
          "internalType": "string",
          "name": "recordId",
          "type": "string"
        }
      ],
      "name": "unanchorRecord",
      "outputs": [],
      "stateMutability": "nonpayable",
      "type": "function"
    },
    {
      "inputs": [
        {
          "internalType": "address",
          "name": "newImplementation",
          "type": "address"
        },
        {
          "internalType": "bytes",
          "name": "data",
          "type": "bytes"
        }
      ],
      "name": "upgradeToAndCall",
      "outputs": [],
      "stateMutability": "payable",
      "type": "function"
    },
    {
      "inputs": [
        {
          "internalType": "string",
          "name": "",
          "type": "string"
        },
        {
          "internalType": "bytes32",
          "name": "",
          "type": "bytes32"
        }
      ],
      "name": "verificationIndex",
      "outputs": [
        {
          "internalType": "uint256",
          "name": "",
          "type": "uint256"
        }
      ],
      "stateMutability": "view",
      "type": "function"
    },
    {
      "inputs": [
        {
          "internalType": "string",
          "name": "",
          "type": "string"
        },
        {
          "internalType": "uint256",
          "name": "",
          "type": "uint256"
        }
      ],
      "name": "verifications",
      "outputs": [
        {
          "internalType": "bytes32",
          "name": "verifierIdHash",
          "type": "bytes32"
        },
        {
          "internalType": "string",
          "name": "recordId",
          "type": "string"
        },
        {
          "internalType": "enum HealthRecordCore.VerificationLevel",
          "name": "level",
          "type": "uint8"
        },
        {
          "internalType": "uint256",
          "name": "createdAt",
          "type": "uint256"
        },
        {
          "internalType": "bool",
          "name": "isActive",
          "type": "bool"
        }
      ],
      "stateMutability": "view",
      "type": "function"
    },
    {
      "inputs": [
        {
          "internalType": "bytes32",
          "name": "",
          "type": "bytes32"
        },
        {
          "internalType": "uint256",
          "name": "",
          "type": "uint256"
        }
      ],
      "name": "verificationsByUser",
      "outputs": [
        {
          "internalType": "string",
          "name": "",
          "type": "string"
        }
      ],
      "stateMutability": "view",
      "type": "function"
    },
    {
      "inputs": [
        {
          "internalType": "string",
          "name": "recordId",
          "type": "string"
        },
        {
          "internalType": "string",
          "name": "recordHash",
          "type": "string"
        },
        {
          "internalType": "uint8",
          "name": "level",
          "type": "uint8"
        }
      ],
      "name": "verifyRecord",
      "outputs": [],
      "stateMutability": "nonpayable",
      "type": "function"
    }
  ],
  "bytecode": "0x60a08060405234620000d157306080527ff0c57e16840df040f15088dc2f81fe391c3923bec73e23a9662efc9c229c6a009081549060ff8260401c16620000c257506001600160401b036002600160401b0319828216016200007c575b604051615ef09081620000d782396080518181816132d701526137670152f35b6001600160401b031990911681179091556040519081527fc7f505b2f371ae2175ee4913f4499e1f2633a7b5936321eed1cdaeb6115181d290602090a13880806200005c565b63f92ee8a960e01b8152600490fd5b600080fdfe6080604052600436101561001257600080fd5b60e0600035811c9081623297e414614f0157816301b4147d1461171757816305f5943914613cd25781630a36148b14614f015781630fbab50a1461268657816310a0e88a14614c945781631537070314614c6b57816319bfe5f214614c325781631a6b3d2a14614bf95781631aacda8814614a355781631b7cabb7146149255781631cf8cbe8146114fa5781631ec50c0e146148ee57816321d9caaa14614825578163223c3bb9146147dc578163249dda2e146114ce57816325db354d146147a85781632a4e0476146145f35781632e6df698146145445781632fa8db0414614410578163315ca5ba1461436f578163339a0aec1461428857816335c4c20314614030578163365348e914613ff25781633f132dc114613db4578163400f8d0614613d20578163411ab58414613cd25781634294e2ff14613ad55781634b7c908a1461394f5781634f1ef286146137185781634f893ed6146120e45781635203cbed1461334157816352d1902d146132c4578163533acffd14612e165781635a18672e14612ba55781635d12da5014612b715781635d28a34214612b435781636018200d14612a4d578163629be2b6146128df5781636eb7457f1461284a5781637286b6f91461273a57816375829def146126bf57816380027ff614612686578163883080af1461221e5781638da1d369146121845781638e3ccbcf1461212957816398909e22146120e4578163a5f2d1d114611e32578163ac90c14014611e14578163ac92433614611df6578163ad3cb1cc14611d88578163adcee10214611d52578163b0c7363c14611cfa578163b27bb4d514611cc4578163b48ac4d214611a3e578163b5e6b7a2146119ee578163c18cf8d214611966578163c282f4ab14611926578163c4d66de81461176e578163c5e4ccc414611750578163c6bd157214611717578163c7695bab1461168e578163ca1e910a146115a157508063d08c800d14611518578063d46e082f146114fa578063dbc7b842146114ce578063dd0bc08214611472578063e08f1ac3146113e5578063e11c45b714611031578063e2aae6e014610d9b578063f251f8e414610c71578063f3ac2bea14610be0578063f5e7f9f414610af7578063f7c0d033146108eb578063f851a440146108c2578063f9f70c4a1461088b5763fd328f581461036d57600080fd5b3461080a5760a036600319011261080a576001600160401b0360043581811161080a5761039e903690600401615034565b90602491823582811161080a576103b9903690600401615034565b6103c16150b6565b906064359360ff8516850361080a5760843590811161080a576103e8903690600401615034565b6000546040516345ecd02f60e01b81523360048201526001600160a01b03909116906020818981855afa80156108175761042a9160009161086c575b506157c7565b604051630286b6ab60e31b8152906020828061044a338a6004840161580a565b0381845afa9081156108175761046c6020928a9460009161083f575b50615832565b61047887511515615a2d565b61048485511515615a79565b600160ff8716101580610831575b61049b9061545d565b600160ff8916101580610823575b6104b2906154a0565b60405162b0c80960e01b815233600482015298899182905afa968715610817576000976107de575b506104e68715156154ec565b60405160208185516104fb8183858a01615083565b8101600e8152030190208760005260205260ff6040600020541661079a57604051602081855161052e8183858a01615083565b8101600d8152030190205491604051602081865161054f8183858b01615083565b8101600d8152030190209161056660ff87166150eb565b600660ff8916101561075c576040519161057f83614f8b565b8983526020830193888552604084019061059b60ff8a166150eb565b60ff8916825260608501926105b360ff8d1685615b34565b60808601524260a0860152600160c0860152805490600160401b82101561078557906105e491600182018155615441565b9590956107705790610601610614928651885551600188016158ce565b5161060b816150eb565b6002860161557c565b5190600682101561075c57506060947f1e9fc3a602c7b16a7098c5ba783b4f9d40508e6aa83fc4a05853c485261f12bc969461069785600560c06107319761066561072b9860026107539c01615594565b6106766080820151600386016158ce565b60a081015160048501550151151591019060ff801983541691151516179055565b60405160208184516106ac8183858901615083565b8101600e8152030190208b6000526020526040600020600160ff1982541617905560405160208184516106e28183858901615083565b8101600f8152030190208b600052602052604060002055601660205261070c816040600020615b05565b6107176018546157a0565b60185561072660ff86166150eb565b6155b3565b956155b3565b9560ff604051936107438282166150eb565b16835260ff602084019116615366565b426040820152a4005b634e487b7160e01b60009081526021600452fd5b83634e487b7160e01b60005260006004526000fd5b84634e487b7160e01b60005260416004526000fd5b606490601a6040519162461bcd60e51b8352602060048401528201527f416c7265616479206469737075746564207468697320686173680000000000006044820152fd5b9096506020813d60201161080f575b816107fa60209383614fc1565b8101031261080a575195386104da565b600080fd5b3d91506107ed565b6040513d6000823e3d90fd5b50600560ff891611156104a9565b50600360ff87161115610492565b61085f9150843d8611610865575b6108578183614fc1565b8101906157af565b38610466565b503d61084d565b610885915060203d602011610865576108578183614fc1565b38610424565b3461080a5760806108a461089e366152f3565b91615d7f565b91604051931515845215156020840152604083015215156060820152f35b3461080a57600036600319011261080a576001546040516001600160a01b039091168152602090f35b3461080a5760208060031936011261080a57600435906001600160401b03821161080a5761091f6024923690600401615034565b60005460405162b0c80960e01b815233600482015293839185919082906001600160a01b03165afa92831561081757600093610ac8575b506109628315156154ec565b604051815190838181850193610979818387615083565b8101600b81520301902084600052835260ff6040600020541615610a83577f94748c1a380e215f3ba9de3f49d5c0a47c8bff6c16301f5f153e2429032722f091610a7991604051858184516109cf818387615083565b8101600c815203019020866000528552610a59856004610a3b84610a2960ff84610a208a610a1189604060002054978893604051938492839251928391615083565b8101600a815203019020615425565b500154166156fa565b60405184818951610a1181838c615083565b50019260ff1993848154169055604051809381928751928391615083565b8101600b81520301902086600052855260406000209081541690556155b3565b91604051428152a3005b60405162461bcd60e51b815260048101849052601a60248201527f4e6f20766572696669636174696f6e20746f20726574726163740000000000006044820152606490fd5b9092508181813d8311610af0575b610ae08183614fc1565b8101031261080a57519183610956565b503d610ad6565b3461080a57610b0536615052565b6040518281809451610b1d8160209788809601615083565b810160108152030190209060005281526040600020908154610b3e8161573a565b90610b4c6040519283614fc1565b8082528282018094600052836000206000915b838310610bc35760408051878152865181890181905289928201908960005b828110610b8b5784840385f35b855180518552808301511515858401526040808201519086015260609081015115159085015294810194608090930192600101610b7e565b600486600192610bd285615751565b815201920192019190610b5f565b3461080a57610bee36615052565b90604051918151926020938185809381870193610c0c818387615083565b8101600381520301902083600052825260ff604060002054169384610c38575b82856040519015158152f35b610c4f939450604051938492839251928391615083565b8101600581520301902090600052815260ff6040600020541682828180610c2c565b3461080a5760208060031936011261080a5760043560005260138152604060002090815491610c9f8361573a565b92610cad6040519485614fc1565b8084528284018092600052836000206000915b838310610d785750505050604051918083019381845251809452604083019360408160051b85010192916000955b828710610cfb5785850386f35b909192938280600192603f19898203018552875190610d36610d2660c08451908085528401906150c6565b84840151838203868501526150c6565b9160408101516040830152610d5360608083015190840190615389565b6080808201519083015260a08091015115159101529601920196019592919092610cee565b600686600192610d8a859a999a615bc6565b815201920192019190959495610cc0565b3461080a57610da9366153e2565b6000546040516345ecd02f60e01b8152336004820152602093916001600160a01b0316908481602481855afa801561081757610dec9160009161101457506157c7565b604051630286b6ab60e31b8152848180610e0a33876004840161580a565b0381855afa801561081757610e2691600091610ff75750615832565b60405190610e51845192868181880195610e41818389615083565b8101600681520301902054615123565b610fb257835115610f7657846024916040519283809262b0c80960e01b82523360048301525afa918215610817578591600093610f43575b50610f2f84610f1584610f3594610edf7f60d9fff893391026daade2734b45ecb2fb8ae1f0187ea2b39018ee8bdc94390a998b60409a998b51809251610ed0818389615083565b810160068152030190206158ce565b610f058a895184818851610ef68183858d01615083565b81016007815203019020615b05565b8751809381928c51928391615083565b81016008815203019020600160ff198254161790556155b3565b946155b3565b9482519182524290820152a3005b92509082813d8111610f6f575b610f5a8183614fc1565b8101031261080a579051908490610f2f610e89565b503d610f50565b60405162461bcd60e51b8152600481018690526014602482015273486173682063616e6e6f7420626520656d70747960601b6044820152606490fd5b60405162461bcd60e51b815260048101869052601e60248201527f4861736820616c726561647920626f756e6420746f2061207265636f726400006044820152606490fd5b61100e9150863d8811610865576108578183614fc1565b86610466565b61102b9150863d8811610865576108578183614fc1565b86610424565b3461080a5761103f366153e2565b6000546040516345ecd02f60e01b8152336004820152602093916001600160a01b0316908481602481855afa8015610817576110829160009161101457506157c7565b83604051809263a0ca13c360e01b825281806110a233886004840161580a565b03915afa908115610817576000916113c8575b501561138d57604051916110ef6110f68251948681818601976110d981838b615083565b810160068152030190206040519283809261515d565b0382614fc1565b84815191012091805192858201938420036113515760405190825161111c818488615083565b82019261113a60ff60089460088752898183980301902054166156fa565b61115287600096604051809381928751928391615083565b810160078152030190209182546111688161573a565b936111766040519586614fc1565b81855260009081528981208a8087015b84841061132b57505050505060005b83518110156111ed57856111c18a6111ad848861578c565b518160405193828580945193849201615083565b81018981520301902054166111d9575b600101611195565b956111e56001916157a0565b9690506111d1565b8883838a60018b11156112cb5761127e7f10883978dc4137be2c21cf3c3827329d1303377374a52fe00a7b5a98c25d883c9261125c866112849460405182818a51611239818387615083565b8101600881520301902060ff198154169055604051809381928a51928391615083565b810160068152030190206112708154615123565b908161128e575b50506155b3565b926155b3565b92604051428152a3005b81601f600093116001146112a65750555b8680611277565b9080839182526112c4601f8b8420940160051c8401600185016158b7565b555561129f565b60405162461bcd60e51b815260048101859052603260248201527f43616e6e6f74207265747261637420746865206c617374206163746976652076604482015271195c9cda5bdb881bd98818481c9958dbdc9960721b6064820152608490fd5b6001918291604051611341816110ef818961515d565b8152019201920191908b90611186565b60405162461bcd60e51b8152600481018690526014602482015273090c2e6d05aa4cac6dee4c840dad2e6dac2e8c6d60631b6044820152606490fd5b60405162461bcd60e51b815260048101849052601360248201527227b7363c9037bbb732b91037b91030b236b4b760691b6044820152606490fd5b6113df9150843d8611610865576108578183614fc1565b846110b5565b3461080a5760208060031936011261080a576004356000526015602052604060002080546114128161573a565b916114206040519384614fc1565b81835260208301906000526020600020936000915b83831061144e576040518061144a8782615279565b0390f35b6001828192604051611464816110ef818d61515d565b815201960192019194611435565b3461080a57602036600319011261080a5761148b6152dd565b6001546001600160a01b0391906114a5908316331461587e565b166114b1811515615c3e565b6bffffffffffffffffffffffff60a01b6000541617600055600080f35b3461080a57602036600319011261080a5760043560005260146020526020604060002054604051908152f35b3461080a57600036600319011261080a576020600954604051908152f35b3461080a5760208060031936011261080a576004356000526016602052604060002080546115458161573a565b916115536040519384614fc1565b81835260208301906000526020600020936000915b83831061157d576040518061144a8782615279565b6001828192604051611593816110ef818d61515d565b815201960192019194611568565b3461080a5760206115c96115b436615052565b92908160405193828580945193849201615083565b8101600d81520301902090815481101561080a576115e691615441565b508054906040516115fe816110ef816001860161515d565b61167d600283015460ff8116906116706040519161162a836116238160038b0161515d565b0384614fc1565b61165160ff600560048a015499015416966040519a8b9a8b528060208c01528a01906150c6565b9361165b816150eb565b604089015260ff606089019160081c16615366565b85820360808701526150c6565b9160a0840152151560c08301520390f35b3461080a5760208060031936011261080a576004356000526004602052604060002080546116bb8161573a565b916116c96040519384614fc1565b81835260208301906000526020600020936000915b8383106116f3576040518061144a8782615279565b6001828192604051611709816110ef818d61515d565b8152019601920191946116de565b3461080a57602061172a6115b436615052565b8101600381520301902090600052602052602060ff604060002054166040519015158152f35b3461080a57600036600319011261080a576020601854604051908152f35b3461080a57602036600319011261080a576117876152dd565b7ff0c57e16840df040f15088dc2f81fe391c3923bec73e23a9662efc9c229c6a0090815460ff8160401c1615906001600160401b0381168015908161191e575b6001149081611914575b15908161190b575b506118f95767ffffffffffffffff1981166001178455816118da575b5082549160ff8360401c16156118c8576001600160a01b03168015611879576bffffffffffffffffffffffff60a01b908160005416176000553390600154161760015561183e57005b68ff0000000000000000191690557fc7f505b2f371ae2175ee4913f4499e1f2633a7b5936321eed1cdaeb6115181d2602060405160018152a1005b60405162461bcd60e51b815260206004820152602160248201527f496e76616c6964204d656d626572526f6c654d616e61676572206164647265736044820152607360f81b6064820152608490fd5b604051631afcd79f60e31b8152600490fd5b68ffffffffffffffffff191668010000000000000001178355836117f5565b60405163f92ee8a960e01b8152600490fd5b905015856117d9565b303b1591506117d1565b8391506117c7565b3461080a5760206119396115b436615052565b81016002815203019020805482101561080a57602091611958916150f5565b90546040519160031b1c8152f35b3461080a5761197436615373565b906000526013602052604060002090815481101561080a5761199591615441565b506040516119a7816110ef818561515d565b61144a604051926119c6846119bf816001850161515d565b0385614fc1565b60028101549060ff60038201541660ff60056004840154930154169260405196879687615396565b3461080a576119fc36615373565b906000526015602052604060002090815481101561080a57611a24611a2a9161144a936150f5565b906151f3565b6040519182916020835260208301906150c6565b3461080a5760208060031936011261080a576004356001600160401b03811161080a57611a6f903690600401615034565b6000546040516345ecd02f60e01b81523360048201526001600160a01b039091169291908281602481875afa801561081757611ab291600091611ca757506157c7565b604051630286b6ab60e31b815292828480611ad133866004840161580a565b0381845afa90811561081757611af28492602496600091611c8a5750615832565b60405162b0c80960e01b815233600482015294859182905afa92831561081757600093611c5b575b50611b268315156154ec565b604051815190838181850193611b3d818387615083565b8101600381520301902084600052835260ff6040600020541615611c205760405183818451611b6d818387615083565b8101600581520301902084600052835260ff60406000205416611bea577f08f30cbe91e0ca2a9f89c7c4a38baaa3fdd002bf05e8d40e1ca69945d06a490191611bc584610a7993604051809381928651928391615083565b810160058152030190208560005284526040600020600160ff198254161790556155b3565b60405162461bcd60e51b815260048101849052600e60248201526d416c72656164792061637469766560901b6044820152606490fd5b60405162461bcd60e51b815260048101849052601360248201527215d85cc81b995d995c8818481cdd589a9958dd606a1b6044820152606490fd5b9092508181813d8311611c83575b611c738183614fc1565b8101031261080a57519183611b1a565b503d611c69565b611ca19150843d8611610865576108578183614fc1565b87610466565b611cbe9150843d8611610865576108578183614fc1565b85610424565b3461080a57611cd236615373565b906000526004602052604060002090815481101561080a57611a24611a2a9161144a936150f5565b3461080a57611d256020611d0d366152f3565b93918360409492945193828580945193849201615083565b81016012815203019020906000526020526040600020906000526020526020604060002054604051908152f35b3461080a57611d6036615373565b906000526016602052604060002090815481101561080a57611a24611a2a9161144a936150f5565b3461080a57600036600319011261080a5760405160408101908082106001600160401b03831117611de05761144a9160405260058152640352e302e360dc1b60208201526040519182916020835260208301906150c6565b634e487b7160e01b600052604160045260246000fd5b3461080a57600036600319011261080a576020601954604051908152f35b3461080a57600036600319011261080a576020601754604051908152f35b3461080a57604036600319011261080a576004356001600160401b03811161080a57611e62903690600401615034565b60ff611e6c6150a6565b16906001821015806120d9575b611e8290615ac5565b60005460405162b0c80960e01b815233600482015292602092918390859060249082906001600160a01b03165afa938415610817576000946120aa575b50611ecb8415156154ec565b604051825190848181860193611ee2818387615083565b8101600b81520301902085600052845260ff604060002054161561206557611f429060405185818651611f16818387615083565b8101600c815203019020866000528552610a118560406000205492604051809381928951928391615083565b5060ff60048201541615612020576002019160ff83541692611f63836150eb565b611f6c836150eb565b611f75846150eb565b828414611fe65791611fc17f334f52bdf9b484290889b34fb83ad64bff4dd1b7028a24d048a3a85537b53ff99492611fb883606096611fb3826150eb565b61557c565b610726836150eb565b9460405192611fcf816150eb565b8352611fda826150eb565b820152426040820152a3005b60405162461bcd60e51b8152600481018690526012602482015271105b1c9958591e481d1a1a5cc81b195d995b60721b6044820152606490fd5b60405162461bcd60e51b815260048101859052601f60248201527f566572696669636174696f6e20686173206265656e20726574726163746564006044820152606490fd5b60405162461bcd60e51b815260048101859052601960248201527f4e6f20766572696669636174696f6e20746f206d6f64696679000000000000006044820152606490fd5b9093508281813d83116120d2575b6120c28183614fc1565b8101031261080a57519284611ebf565b503d6120b8565b506003821115611e79565b3461080a576120f76020611d0d366152f3565b8101601181520301902090600052602052604060002090600052602052602060ff604060002054166040519015158152f35b3461080a5761167061216b61167d61214961214336615052565b90615c7c565b969598929193946040989198519a8b9a15158b528060208c01528a01906150c6565b93612175816150eb565b60408901526060880190615366565b3461080a5760206121976115b436615052565b8101600a81520301902090815481101561080a576121b491615425565b508054604051916121cc83611623816001850161515d565b60ff6002820154169060ff6004600383015492015416906121ff604051958695865260a0602087015260a08601906150c6565b92612209816150eb565b60408501526060840152151560808301520390f35b3461080a5761222c366153e2565b6000546040516345ecd02f60e01b81523360048201526024936020939290916001600160a01b039091169084818781855afa8015610817576122759160009161266957506157c7565b604051630286b6ab60e31b81529084828061229433876004840161580a565b0381845afa908115610817576122b48692889460009161264c5750615832565b6122c084511515615a2d565b6122cc85511515615a79565b60405162b0c80960e01b815233600482015296879182905afa9485156108175760009561261d575b506123008515156154ec565b60405190825191858181860194612318818388615083565b8101600381520301902086600052855260ff604060002054166125ca5760405185818551612347818388615083565b81016002815203019020541561247d575b6040518581855161236a818388615083565b81016002815203019020805491600160401b83101561246957509261245f926123bd837f1cdc47600aa970e2d8c3bfa9885daefc5e052ea8a6a10471ab3dbbc77ad2138d96600161127e960181556150f5565b81549060031b908a821b91600019901b1916179055604051878184516123e4818387615083565b8101600381520301902088600052875261241c8760406000209260ff1993600185825416179055604051809381928751928391615083565b8101600581520301902088600052875260016040600020918254161790556004865261244c816040600020615b05565b6124576009546157a0565b6009556155b3565b92604051428152a4005b634e487b7160e01b60009081526041600452fd5b6124b06040516124b78651918881818a019461249a818388615083565b810160068152030190206040519384809261515d565b0383614fc1565b8151156125105750858151910120835183201461235857606490856040519162461bcd60e51b83528160048401528201527f486173682062656c6f6e677320746f20646966666572656e74207265636f72646044820152fd5b905060ff60405187818851612526818388615083565b8101600881520301902054166125925785612578916125518660405184818b51610ed0818389615083565b6125678760405184818a51610ef681838d615083565b604051809381928951928391615083565b81016008815203019020600160ff19825416179055612358565b60405162461bcd60e51b8152600481018790526011818401527012185cda08185b1c9958591e481d5cd959607a1b6044820152606490fd5b8460276084926040519262461bcd60e51b845260048401528201527f5265636f726420616c726561647920616e63686f72656420746f2074686973206044820152661cdd589a9958dd60ca1b6064820152fd5b9094508381813d8311612645575b6126358183614fc1565b8101031261080a575193856122f4565b503d61262b565b6126639150843d8611610865576108578183614fc1565b89610466565b6126809150863d8811610865576108578183614fc1565b87610424565b3461080a5760206126996115b436615052565b8101600b81520301902090600052602052602060ff604060002054166040519015158152f35b3461080a57602036600319011261080a576126d86152dd565b6001546001600160a01b03808216926126f233851461587e565b168092612700821515615c3e565b7f38df5fa0f7fef0d515ca1f5388cb5790ac5885d5fca8d05d9f943e563c33a4b36020604051428152a36001600160a01b03191617600155005b3461080a5760208060031936011261080a576004356001600160401b03811161080a5761276b903690600401615034565b6000604051825190848181860193612784818387615083565b8101600281520301902090604051808387829554938481520190600052876000209260005b89828210612834575050506127c092500383614fc1565b81519360005b835181101561282557604051878184516127e1818389615083565b810160058152030190206127f5828661578c565b51600052875260ff60406000205416612811575b6001016127c6565b9361281d6001916157a0565b949050612809565b60408686898351928352820152f35b85548452600195860195889550930192016127a9565b3461080a5761289061288a61285e36615373565b9080600052601360205261287860406000205483106159eb565b60005260136020526040600020615441565b50615bc6565b8051602082015191604081015160608201519160058310156128c95761144a9260a0608083015192015115159260405196879687615396565b634e487b7160e01b600052602160045260246000fd5b3461080a5760208060031936011261080a576004356001600160401b03811161080a5781612914612927923690600401615034565b8160405193828580945193849201615083565b8101600d81520301902080549161293d8361573a565b9261294b6040519485614fc1565b8084528184018093600052826000206000915b838310612a2a5750505050604051928184019082855251809152604084019160408260051b86010193926000965b8388106129995786860387f35b90919293948380600192603f198a820301865288519081518152612a036129cb848401518886850152888401906150c6565b60408401516129d9816150eb565b60408401526129f060608086015190850190615366565b60808085015190848303908501526150c6565b9160a0808201519083015260c080910151151591015297019301970196909392919361298c565b600685600192612a3c859a989a615b40565b81520192019201919095939561295e565b3461080a5760208060031936011261080a576004356001600160401b03811161080a57612a7e903690600401615034565b90612a99816000938160405193828580945193849201615083565b8101600d815203019020918254612aaf8161573a565b93612abd6040519586614fc1565b8185526000908152838120848087015b848410612b2457878287825160005b8451811015612b155760c0612af1828761578c565b510151612b01575b600101612adc565b91612b0d6001916157a0565b929050612af9565b50906040928351928352820152f35b600191600691612b3385615b40565b8152019201920191908590612acd565b3461080a57602036600319011261080a57600435600052601460205260206040600020541515604051908152f35b3461080a576020612b846115b436615052565b8101600c815203019020906000526020526020604060002054604051908152f35b3461080a57612bb336615328565b60005460405162b0c80960e01b8152336004820152929360209290918390859060249082906001600160a01b03165afa93841561081757600094612de7575b50612bfe8415156154ec565b604051825190848181860193612c15818387615083565b81016011815203019020866000528452604060002085600052845260ff6040600020541615612daa57612ca59060405185818651612c54818387615083565b810160128152030190208760005285526040600020866000528552612c8b8560406000205492604051809381928951928391615083565b81016010815203019020876000528552604060002061525d565b509160ff60038401541615612d6557600183019260ff8454169280151593151594848614612d2b579260609492612d0d612d18937f83316b3299ea5a7386901a45e5d604103b0c75a2d3ff829a25e4a6d645c6b7f398969060ff801983541691151516179055565b6002429101556155b3565b94604051928352820152426040820152a4005b60405162461bcd60e51b8152600481018890526012602482015271416c726561647920746869732076616c756560701b6044820152606490fd5b60405162461bcd60e51b815260048101859052601b60248201527f5265616374696f6e20686173206265656e2072657472616374656400000000006044820152606490fd5b60405162461bcd60e51b81526004810185905260156024820152744e6f207265616374696f6e20746f206d6f6469667960581b6044820152606490fd5b9093508281813d8311612e0f575b612dff8183614fc1565b8101031261080a57519285612bf2565b503d612df5565b3461080a57612e2436615328565b6000546040516345ecd02f60e01b81523360048201529293602493602093926001600160a01b03169084818781855afa801561081757612e6b916000916132a757506157c7565b60405190825191858181860194612e83818388615083565b8101600e81520301902087600052855260ff60406000205416156132635790612f2c9160405186818651612eb8818388615083565b8101600f81520301902088600052865260406000205490866001612f10612eff85612ef085898c604051938492839251928391615083565b8101600d815203019020615441565b506110ef604051809481930161515d565b60405180968192630286b6ab60e31b835233906004840161580a565b0381845afa90811561081757612f4c88928a966000916132465750615832565b60405162b0c80960e01b815233600482015298899182905afa96871561081757600097613217575b50612f808715156154ec565b8787146131d55760405186818651612f99818388615083565b81016011815203019020886000528652604060002087600052865260ff6040600020541661319f5760ff6005612fde612fe7936040518a818a51612ef081838c615083565b50015416615530565b60405185818551612ff9818387615083565b810160108152030190208760005285526040600020549160405186818651613022818388615083565b81016010815203019020886000528652604060002060405161304381614f70565b888152878101961515968781526040820191428352606081019360018552805490600160401b82101561318a57906130809160018201815561525d565b9590956131765750946130fa6040989560037fa63d8144c55fb5ca0cbcbeeea8e1b365cc113f4ab5aab289db2285d783e6b7669b9996613144966130de8f976131689c518655511515600186019060ff801983541691151516179055565b51600284015551151591019060ff801983541691151516179055565b87518281875161310b818387615083565b810160118152030190208c6000528252876000208b600052825287600020600160ff198254161790558751809381928751928391615083565b810160128152030190208960005287528460002088600052875284600020556155b3565b9382519182524290820152a4005b634e487b7160e01b60005260006004526000fd5b86634e487b7160e01b60005260416004526000fd5b60405162461bcd60e51b815260048101879052600f818501526e105b1c9958591e481c995858dd1959608a1b6044820152606490fd5b606483876040519162461bcd60e51b83528160048401528201527f43616e6e6f7420726561637420746f20796f7572206f776e20646973707574656044820152fd5b9096508581813d831161323f575b61322f8183614fc1565b8101031261080a57519588612f74565b503d613225565b61325d9150843d8611610865576108578183614fc1565b8c610466565b60405162461bcd60e51b8152600481018690526019818801527f4e6f20646973707574652066726f6d20746869732075736572000000000000006044820152606490fd5b6132be9150863d8811610865576108578183614fc1565b88610424565b3461080a57600036600319011261080a577f00000000000000000000000000000000000000000000000000000000000000006001600160a01b0316300361332f5760206040517f360894a13ba1a3210667c828492db98dca3e2076cc3735a920a3ca505d382bbc8152f35b60405163703e46dd60e11b8152600490fd5b3461080a57606036600319011261080a576001600160401b0360043581811161080a57613372903690600401615034565b602491823590811161080a5761338c903690600401615034565b906133956150b6565b6000546040516345ecd02f60e01b81523360048201526020946001600160a01b03909216929085818881875afa8015610817576133d99160009161370157506157c7565b604051630286b6ab60e31b81528581806133f733896004840161580a565b0381875afa801561081757879261341960ff9289946000916136e45750615832565b61342587511515615a2d565b61343185511515615a79565b16936001851015806136d9575b61344790615ac5565b60405162b0c80960e01b815233600482015297889182905afa958615610817576000966136aa575b5061347b8615156154ec565b604051825190868181860193613492818387615083565b8101600b81520301902087600052865260ff6040600020541661366657604051868185516134c1818387615083565b8101600a8152030190205491604051878186516134df818388615083565b8101600a8152030190206134f2866150eb565b6040516134fe81614f55565b8981528881018881526040820190613515896150eb565b8882526060830192428452608081019460018652805490600160401b821015613651579061354891600182018155615425565b9690966131765750956135bd610f2f96600460409b978f95976135a17f5ddcec906a8edfb96c9cf15f08c0fe50115a5547ef76ab3a944ed41acf127d019f9d99986106016135fd9a61363a9f51885551600188016158ce565b51600384015551151591019060ff801983541691151516179055565b8851828187516135ce818387615083565b8101600b8152030190208d600052825288600020600160ff198254161790558851809381928751928391615083565b8101600c8152030190208a60005289528560002055601588526136238186600020615b05565b61362e6017546157a0565b601755610726846150eb565b94825191613647816150eb565b82524290820152a4005b87634e487b7160e01b60005260416004526000fd5b60405162461bcd60e51b815260048101879052601a818401527f416c7265616479207665726966696564207468697320686173680000000000006044820152606490fd5b9095508481813d83116136d2575b6136c28183614fc1565b8101031261080a5751948661346f565b503d6136b8565b50600385111561343e565b6136fb9150853d8711610865576108578183614fc1565b8b610466565b6132be9150873d8911610865576108578183614fc1565b604036600319011261080a5761372c6152dd565b6024356001600160401b03811161080a573660238201121561080a5761375c903690602481600401359101614ffd565b906001600160a01b037f00000000000000000000000000000000000000000000000000000000000000008116308114908115613921575b5061332f576137a78160015416331461587e565b6040516352d1902d60e01b8152908216916020918281600481875afa600091816138f2575b506137ea57604051634c9c8ce360e01b815260048101859052602490fd5b9284937f360894a13ba1a3210667c828492db98dca3e2076cc3735a920a3ca505d382bbc908181036138da5750823b156138c15780546001600160a01b03191682179055604051907fbc7cd75a20ee27fd9adebab32041f755214dbc6bffa90cc0225b39da2e5c2d3b600080a28351156138a75750600080848461389c96519101845af4903d1561389e573d61387f81614fe2565b9061388d6040519283614fc1565b8152600081943d92013e615e57565b005b60609250615e57565b92505050346138b257005b63b398979f60e01b8152600490fd5b604051634c9c8ce360e01b815260048101839052602490fd5b60249060405190632a87526960e21b82526004820152fd5b9091508381813d831161391a575b61390a8183614fc1565b8101031261080a575190866137cc565b503d613900565b9050817f360894a13ba1a3210667c828492db98dca3e2076cc3735a920a3ca505d382bbc5416141584613793565b3461080a57606036600319011261080a57602435600435604435600581101561080a5761398760018060a01b0360015416331461587e565b816000526020601381526139a160406000205485106159eb565b8115613a915782600052601381526139bd846040600020615441565b50600581019060ff82541615613a54576139da84600383016159d3565b60044291015560ff19815416905582600052601481526040600020918254918215613a3e577fd27cfed75349d7c1712793c75b771f2a7dd4689406c4d8fdc93b4194b422eb3593604093600019019055613a3683518093615389565b4290820152a3005b634e487b7160e01b600052601160045260246000fd5b60405162461bcd60e51b8152600481018490526015602482015274119b1859c8185b1c9958591e481c995cdbdb1d9959605a1b6044820152606490fd5b6064906040519062461bcd60e51b82526004820152601c60248201527f4d7573742070726f76696465207265736f6c7574696f6e2074797065000000006044820152fd5b3461080a57613ae336615052565b60005460405162b0c80960e01b815233600482015291926020918290849060249082906001600160a01b03165afa92831561081757600093613ca3575b50613b2c8315156154ec565b604051815190838181850193613b43818387615083565b81016011815203019020856000528352604060002084600052835260ff6040600020541615613c65577fbe97907321aa6637529c6e0bd464af27ddb95fadc266661a0a9c0b693acaa2ba91613c5b9160405185818451613ba4818387615083565b810160128152030190208760005285526040600020866000528552613c30856003610a3b60406000205460405184818951613be081838c615083565b810160108152030190208c6000528452613c0460ff84610a2084604060002061525d565b60405184818951613c1681838c615083565b810160108152030190208c6000528452604060002061525d565b81016011815203019020876000528552604060002086600052855260406000209081541690556155b3565b91604051428152a4005b60405162461bcd60e51b8152600481018490526016602482015275139bc81c995858dd1a5bdb881d1bc81c995d1c9858dd60521b6044820152606490fd5b9092508181813d8311613ccb575b613cbb8183614fc1565b8101031261080a57519184613b20565b503d613cb1565b3461080a57602036600319011261080a576004356001600160401b03811161080a5760ff613d0a602061291481943690600401615034565b8101600881520301902054166040519015158152f35b3461080a5760208060031936011261080a576004356001600160401b03811161080a5781612914613d55923690600401615034565b8101600281520301902090604051908181845491828152019360005281600020916000905b828210613d9d5761144a85613d9181890382614fc1565b60405191829182615221565b835486529485019460019384019390910190613d7a565b3461080a57606036600319011261080a5760246001600160401b03600435823582811161080a57613de9903690600401615034565b9160443590811161080a57613e02903690600401615034565b91613e1860018060a01b0360015416331461587e565b8115613fae57825115613f6a5781600052601360205260406000209384549460405191613e4483614f3a565b83835260208301908682526040840142815260608501906000825260808601936000855260a087019560018752600160401b8c1015610785578b613e8d91600182018155615441565b979097613f555790613ea3613ead9251896158ce565b51600188016158ce565b5160028601555190600582101561075c575093613f1a846005613f4695610f2f95613efe7fdc620035e382d2354e94af4ee86406f06a6bc23c13499543d7ad5ee77af524049a600360409b016159d3565b51600484015551151591019060ff801983541691151516179055565b85600052601460205283600020613f3181546157a0565b9055613f3e6019546157a0565b6019556155b3565b948151908152426020820152a4005b84634e487b7160e01b60005260006004526000fd5b60405162461bcd60e51b8152602060048201526019818601527f4e6f746520686173682063616e6e6f7420626520656d707479000000000000006044820152606490fd5b60405162461bcd60e51b815260206004820152601f818601527f5375626a65637420494420686173682063616e6e6f7420626520656d707479006044820152606490fd5b3461080a57602036600319011261080a576004356001600160401b03811161080a576110ef611a2a6110d9602061291461144a953690600401615034565b3461080a5760208060031936011261080a576004356001600160401b03811161080a57614061903690600401615034565b6000546040516345ecd02f60e01b81523360048201526001600160a01b039091169291908281602481875afa8015610817576140a491600091611ca757506157c7565b604051630286b6ab60e31b8152928284806140c333866004840161580a565b0381845afa908115610817576140e48492602496600091611c8a5750615832565b60405162b0c80960e01b815233600482015294859182905afa92831561081757600093614259575b506141188315156154ec565b60405181519083818185019361412f818387615083565b8101600381520301902084600052835260ff6040600020541615614214576040518381845161415f818387615083565b8101600581520301902084600052835260ff60406000205416156141da577f6394e07ba017d68c6017a8d8fd8ade9c44dd70fd18b290e2d74db2b691ac99fb916141b884610a7993604051809381928651928391615083565b81016005815203019020856000528452604060002060ff1981541690556155b3565b60405162461bcd60e51b8152600481018490526012602482015271105b1c9958591e481d5b985b98da1bdc995960721b6044820152606490fd5b60405162461bcd60e51b815260048101849052601c60248201527f4e6f742061207375626a656374206f662074686973207265636f7264000000006044820152606490fd5b9092508181813d8311614281575b6142718183614fc1565b8101031261080a5751918361410c565b503d614267565b3461080a5760208060031936011261080a576004356001600160401b03811161080a576142b9903690600401615034565b906142d4816000938160405193828580945193849201615083565b8101600a8152030190209182546142ea8161573a565b936142f86040519586614fc1565b8185526000908152838120848087015b84841061435057878287825160005b8451811015612b1557608061432c828761578c565b51015161433c575b600101614317565b916143486001916157a0565b929050614334565b60019160059161435f856155d3565b8152019201920191908590614308565b3461080a5760208060031936011261080a576004356001600160401b03811161080a57816129146143a4923690600401615034565b8101600781520301902080546143b98161573a565b916143c76040519384614fc1565b8183526000908152838120938084015b8383106143ec576040518061144a8782615279565b6001828192604051614402816110ef818d61515d565b8152019601920191946143d7565b3461080a5760208060031936011261080a576004356001600160401b03811161080a5781612914614445923690600401615034565b8101600a8152030190209081549161445c8361573a565b9261446a6040519485614fc1565b8084528284018092600052836000206000915b8383106145215750505050604051918083019381845251809452604083019360408160051b85010192916000955b8287106144b85785850386f35b909192938280600192603f198982030185528751906144e860a083518352848401519080868501528301906150c6565b9160408101516144f7816150eb565b604083015260608082015190830152608080910151151591015296019201960195929190926144ab565b600586600192614533859a999a6155d3565b81520192019201919095949561447d565b3461080a57606036600319011261080a576004356001600160401b03811161080a57614574903690600401615034565b6145906020604435928160405193828580945193849201615083565b810160108152030190206024356000526020526040600020805482101561080a576080916145bd9161525d565b5080549060ff6001820154169060ff60036002830154920154169160405193845215156020840152604083015215156060820152f35b3461080a5760208060031936011261080a576004356001600160401b03811161080a57614624903690600401615034565b906040519082519181818186019461463d818388615083565b81016002815203019020604051808284829454938481520190600052846000209260005b868282106147925750505061467892500382614fc1565b60009160005b82518110156146dd576040518281885161469981838b615083565b810160058152030190206146ad828561578c565b51600052825260ff604060002054166146c9575b60010161467e565b926146d56001916157a0565b9390506146c1565b50939291936146eb8561573a565b946146f96040519687614fc1565b808652614708601f199161573a565b01368287013760009260005b83518110156147845760019060405184818951614732818389615083565b81016005815203019020614746828761578c565b51600052845260ff60406000205416614760575b01614714565b61476a818661578c565b5161477e614777886157a0565b978a61578c565b5261475a565b6040518061144a8982615221565b8554845260019586019587955093019201614661565b3461080a5760206147bb6115b436615052565b8101600f815203019020906000526020526020604060002054604051908152f35b3461080a57602036600319011261080a576004356001600160401b03811161080a57614812602061291481933690600401615034565b8101600781520301902054604051908152f35b3461080a5760208060031936011261080a576004356001600160401b03811161080a57614856903690600401615034565b906040519160ff81519383818185019661487181838a615083565b810160088152030190205416156148b35761249a826124b09461489f93604051938492839251928391615083565b61144a6040519282849384528301906150c6565b60405162461bcd60e51b815260048101839052601360248201527212185cda08191bd95cc81b9bdd08195e1a5cdd606a1b6044820152606490fd5b3461080a5760206149016115b436615052565b8101600781520301902090815481101561080a57611a24611a2a9161144a936150f5565b3461080a5761493336615052565b60008091604051848180965161494f816020998a809601615083565b8101601081520301902090600052835260406000209182546149708161573a565b9361497e6040519586614fc1565b8185526000908152858120868087015b848410614a1657505050505082519260005b8151811015614a005760606149b5828461578c565b5101516149c5575b6001016149a0565b92856149d1858461578c565b510151156149ed576149e46001916157a0565b935b90506149bd565b92916149fa6001916157a0565b926149e6565b5050906060936040519384528301526040820152f35b600191600491614a2585615751565b815201920192019190879061498e565b3461080a5760208060031936011261080a57600435906001600160401b03821161080a57614a696024923690600401615034565b60005460405162b0c80960e01b815233600482015293839185919082906001600160a01b03165afa92831561081757600093614bca575b50614aac8315156154ec565b604051815190838181850193614ac3818387615083565b8101600e81520301902084600052835260ff6040600020541615614b8d577f7180e7a407de506e94dc4620f97c3af6aaf73726be177cf5a2118a83ea08e09a91610a799160405185818451614b19818387615083565b8101600f815203019020866000528552614b6d856005610a3b84614b5b60ff84610a208a612ef089604060002054978893604051938492839251928391615083565b60405184818951612ef081838c615083565b8101600e81520301902086600052855260406000209081541690556155b3565b60405162461bcd60e51b8152600481018490526015602482015274139bc8191a5cdc1d5d19481d1bc81c995d1c9858dd605a1b6044820152606490fd5b9092508181813d8311614bf2575b614be28183614fc1565b8101031261080a57519183614aa0565b503d614bd8565b3461080a576020614c0c6115b436615052565b8101600581520301902090600052602052602060ff604060002054166040519015158152f35b3461080a57614c49614c4336615052565b9061562e565b906121ff6040959495519586951515865260a0602087015260a08601906150c6565b3461080a57600036600319011261080a576000546040516001600160a01b039091168152602090f35b3461080a57606036600319011261080a576004356001600160401b03811161080a57614cc4903690600401615034565b614ccc6150a6565b614cd46150b6565b9060ff8080921692600184101580614ef6575b614cf09061545d565b1690600182101580614eeb575b614d06906154a0565b60005460405162b0c80960e01b815233600482015294602094918590879060249082906001600160a01b03165afa95861561081757600096614ebc575b50614d4f8615156154ec565b604051815190868181850193614d66818387615083565b8101600e815203019020876000528652836040600020541615614e8057614dc760029160405188818651614d9b818387615083565b8101600f815203019020896000528852612ef08860406000205492604051809381928951928391615083565b50614dd785600583015416615530565b0190815493614df281861694614dec816150eb565b8461557c565b60068610156128c957614e6960a09584614e307f5395fbd4f789f9b64d364b4f7ed8200e8d2a75a219f64da159998cb161fdab1899614e7797615594565b5493614e3e848616916155b3565b9960405197614e4c816150eb565b8852614e57826150eb565b87015282604087019160081c16615366565b606084019160081c16615366565b426080820152a3005b60405162461bcd60e51b81526004810187905260146024820152734e6f206469737075746520746f206d6f6469667960601b6044820152606490fd5b9095508481813d8311614ee4575b614ed48183614fc1565b8101031261080a57519486614d43565b503d614eca565b506005821115614cfd565b506003841115614ce7565b3461080a576020614f146115b436615052565b8101600e81520301902090600052602052602060ff604060002054166040519015158152f35b60c081019081106001600160401b03821117611de057604052565b60a081019081106001600160401b03821117611de057604052565b608081019081106001600160401b03821117611de057604052565b60e081019081106001600160401b03821117611de057604052565b602081019081106001600160401b03821117611de057604052565b90601f801991011681019081106001600160401b03821117611de057604052565b6001600160401b038111611de057601f01601f191660200190565b92919261500982614fe2565b916150176040519384614fc1565b82948184528183011161080a578281602093846000960137010152565b9080601f8301121561080a5781602061504f93359101614ffd565b90565b604060031982011261080a57600435906001600160401b03821161080a5761507c91600401615034565b9060243590565b60005b8381106150965750506000910152565b8181015183820152602001615086565b6024359060ff8216820361080a57565b6044359060ff8216820361080a57565b906020916150df81518092818552858086019101615083565b601f01601f1916010190565b600411156128c957565b805482101561510d5760005260206000200190600090565b634e487b7160e01b600052603260045260246000fd5b90600182811c92168015615153575b602083101461513d57565b634e487b7160e01b600052602260045260246000fd5b91607f1691615132565b80546000939261516c82615123565b918282526020936001916001811690816000146151d45750600114615193575b5050505050565b90939495506000929192528360002092846000945b8386106151c05750505050010190388080808061518c565b8054858701830152940193859082016151a8565b60ff19168685015250505090151560051b01019150388080808061518c565b9061520b5761504f6110ef916040519283809261515d565b634e487b7160e01b600052600060045260246000fd5b602090602060408183019282815285518094520193019160005b828110615249575050505090565b83518552938101939281019260010161523b565b805482101561510d5760005260206000209060021b0190600090565b6020808201906020835283518092526040830192602060408460051b8301019501936000915b8483106152af5750505050505090565b90919293949584806152cd600193603f198682030187528a516150c6565b980193019301919493929061529f565b600435906001600160a01b038216820361080a57565b606060031982011261080a57600435906001600160401b03821161080a5761531d91600401615034565b906024359060443590565b606060031982011261080a57600435906001600160401b03821161080a5761535291600401615034565b9060243590604435801515810361080a5790565b9060068210156128c95752565b604090600319011261080a576004359060243590565b9060058210156128c95752565b9491936153c660a0956153b86153d6949a99969a60c08a5260c08a01906150c6565b9088820360208a01526150c6565b9760408701526060860190615389565b60808401521515910152565b90604060031983011261080a576001600160401b0360043581811161080a578361540e91600401615034565b9260243591821161080a5761504f91600401615034565b805482101561510d576000526005602060002091020190600090565b805482101561510d576000526006602060002091020190600090565b1561546457565b60405162461bcd60e51b81526020600482015260146024820152735365766572697479206d75737420626520312d3360601b6044820152606490fd5b156154a757565b60405162461bcd60e51b815260206004820152601760248201527f43756c706162696c697479206d75737420626520312d350000000000000000006044820152606490fd5b156154f357565b60405162461bcd60e51b815260206004820152601560248201527415d85b1b195d081b9bdd081c9959da5cdd195c9959605a1b6044820152606490fd5b1561553757565b60405162461bcd60e51b815260206004820152601a60248201527f4469737075746520686173206265656e207265747261637465640000000000006044820152606490fd5b90615586816150eb565b60ff80198354169116179055565b9060068110156128c95761ff0082549160081b169061ff001916179055565b6155cb90602060405192828480945193849201615083565b810103902090565b906040516155e081614f55565b608060ff6004839580548552604051615600816110ef816001860161515d565b602086015282600282015416615615816150eb565b6040860152600381015460608601520154161515910152565b91906040928351918482519160209485818187019561564e818389615083565b8101600b81520301902090600091818352865260ff8383205416156156dd576156af9383610a119388936156b59896518581895161568d81838a615083565b8101600c81520301902090825284522054938951938492839251928391615083565b506155d3565b9081015192810151916156c7836150eb565b6080606083015192015115159060019493929190565b509493505050508192516156f081614fa6565b8281529180918190565b1561570157565b60405162461bcd60e51b8152602060048201526011602482015270105b1c9958591e481c995d1c9858dd1959607a1b6044820152606490fd5b6001600160401b038111611de05760051b60200190565b9060405161575e81614f70565b606060ff60038395805485528260018201541615156020860152600281015460408601520154161515910152565b805182101561510d5760209160051b010190565b6000198114613a3e5760010190565b9081602091031261080a5751801515810361080a5790565b156157ce57565b60405162461bcd60e51b81526020600482015260146024820152732737ba1030b71030b1ba34bb329036b2b6b132b960611b6044820152606490fd5b906158226020919493946040845260408401906150c6565b6001600160a01b03909416910152565b1561583957565b60405162461bcd60e51b815260206004820152601860248201527f4e6f2061636365737320746f2074686973207265636f726400000000000000006044820152606490fd5b1561588557565b60405162461bcd60e51b815260206004820152600a60248201526927b7363c9030b236b4b760b11b6044820152606490fd5b8181106158c2575050565b600081556001016158b7565b91909182516001600160401b038111611de0576158eb8254615123565b601f8111615996575b50602080601f8311600114615931575081929394600092615926575b50508160011b916000199060031b1c1916179055565b015190503880615910565b90601f19831695846000526020600020926000905b88821061597e57505083600195969710615965575b505050811b019055565b015160001960f88460031b161c1916905538808061595b565b80600185968294968601518155019501930190615946565b6159c390836000526020600020601f840160051c810191602085106159c9575b601f0160051c01906158b7565b386158f4565b90915081906159b6565b9060058110156128c95760ff80198354169116179055565b156159f257565b60405162461bcd60e51b8152602060048201526013602482015272119b1859c8191bd95cc81b9bdd08195e1a5cdd606a1b6044820152606490fd5b15615a3457565b60405162461bcd60e51b815260206004820152601960248201527f5265636f72642049442063616e6e6f7420626520656d707479000000000000006044820152606490fd5b15615a8057565b60405162461bcd60e51b815260206004820152601b60248201527f5265636f726420686173682063616e6e6f7420626520656d70747900000000006044820152606490fd5b15615acc57565b60405162461bcd60e51b81526020600482015260116024820152704c6576656c206d75737420626520312d3360781b6044820152606490fd5b8054600160401b811015611de057615b22916001820181556150f5565b91909161520b57615b32916158ce565b565b60068210156128c95752565b90604051615b4d81614f8b565b60c060ff6005839580548552604051615b6d816110ef816001860161515d565b6020860152615b99836002830154818116615b87816150eb565b604089015260081c1660608701615b34565b604051615bad816110ef816003860161515d565b6080860152600481015460a08601520154161515910152565b90604051615bd381614f3a565b8092604051615be6816110ef818561515d565b8252604051615bfc816110ef816001860161515d565b60208301526002810154604083015260ff6003820154169060058210156128c957600560ff9160a0936060860152600481015460808601520154161515910152565b15615c4557565b60405162461bcd60e51b815260206004820152600f60248201526e496e76616c6964206164647265737360881b6044820152606490fd5b906040928351928051602094858181850193615c99818387615083565b8101600e81520301902093600094818652865260ff878620541615615d545791612ef086615cfa93615d00958a5183818751615cd6818388615083565b8101600f815203019020908952825289882054938a51938492839251928391615083565b50615b40565b928301519383015192615d12846150eb565b6060810151926006841015615d40575060808101519160c060a0830151920151151590600196959493929190565b634e487b7160e01b81526021600452602490fd5b505050915080928051615d6681614fa6565b8281529282809251615d7781614fa6565b818152918190565b929091926040938451938251602095868181870193615d9f818387615083565b81016011815203019020926000938385528752878420818552875260ff888520541615615e4857615e3093615e2a93615e1589606098958c95865183818a51615de9818388615083565b810160128152030190208587528352868620908652825285852054968651938492839251928391615083565b8101601081520301902090825288522061525d565b50615751565b92830151151593830151920151151590600193929190565b50505093505090508180918190565b90615e7e5750805115615e6c57805190602001fd5b604051630a12f52160e11b8152600490fd5b81511580615eb1575b615e8f575090565b604051639996b31560e01b81526001600160a01b039091166004820152602490fd5b50803b15615e8756fea26469706673582212204efd033c2912849a08daee11db16c39564eda5b11182af0f5396330f8be0ac4264736f6c63430008170033",
  "linkReferences": {},
  "deployedLinkReferences": {}
}