{"contracts/HealthRecordCore.sol":{"HealthRecordCore":{"abi":[{"inputs":[{"internalType":"address","name":"_memberRoleManager","type":"address"}],"stateMutability":"nonpayable","type":"constructor"},{"anonymous":false,"inputs":[{"indexed":true,"internalType":"string","name":"permissionHash","type":"string"},{"indexed":true,"internalType":"address","name":"sharer","type":"address"},{"indexed":true,"internalType":"address","name":"receiver","type":"address"},{"indexed":false,"internalType":"string","name":"recordId","type":"string"},{"indexed":false,"internalType":"uint256","name":"timestamp","type":"uint256"}],"name":"AccessGranted","type":"event"},{"anonymous":false,"inputs":[{"indexed":true,"internalType":"string","name":"permissionHash","type":"string"},{"indexed":true,"internalType":"address","name":"sharer","type":"address"},{"indexed":true,"internalType":"address","name":"receiver","type":"address"},{"indexed":false,"internalType":"string","name":"recordId","type":"string"},{"indexed":false,"internalType":"uint256","name":"timestamp","type":"uint256"}],"name":"AccessRevoked","type":"event"},{"anonymous":false,"inputs":[{"indexed":true,"internalType":"address","name":"oldAdmin","type":"address"},{"indexed":true,"internalType":"address","name":"newAdmin","type":"address"},{"indexed":false,"internalType":"uint256","name":"timestamp","type":"uint256"}],"name":"AdminTransferred","type":"event"},{"anonymous":false,"inputs":[{"indexed":true,"internalType":"string","name":"recordHash","type":"string"},{"indexed":true,"internalType":"address","name":"reviewer","type":"address"},{"indexed":false,"internalType":"enum HealthRecordCore.DisputeSeverity","name":"oldSeverity","type":"uint8"},{"indexed":false,"internalType":"enum HealthRecordCore.DisputeSeverity","name":"newSeverity","type":"uint8"},{"indexed":false,"internalType":"enum HealthRecordCore.DisputeCulpability","name":"oldCulpability","type":"uint8"},{"indexed":false,"internalType":"enum HealthRecordCore.DisputeCulpability","name":"newCulpability","type":"uint8"},{"indexed":false,"internalType":"uint256","name":"timestamp","type":"uint256"}],"name":"DisputeModification","type":"event"},{"anonymous":false,"inputs":[{"indexed":true,"internalType":"string","name":"recordHash","type":"string"},{"indexed":true,"internalType":"address","name":"reactor","type":"address"},{"indexed":true,"internalType":"address","name":"reviewer","type":"address"},{"indexed":false,"internalType":"bool","name":"supportsDispute","type":"bool"},{"indexed":false,"internalType":"uint256","name":"timestamp","type":"uint256"}],"name":"DisputeReaction","type":"event"},{"anonymous":false,"inputs":[{"indexed":true,"internalType":"string","name":"recordId","type":"string"},{"indexed":true,"internalType":"string","name":"recordHash","type":"string"},{"indexed":true,"internalType":"address","name":"subject","type":"address"},{"indexed":false,"internalType":"address","name":"createdBy","type":"address"},{"indexed":false,"internalType":"uint256","name":"timestamp","type":"uint256"}],"name":"RecordAnchored","type":"event"},{"anonymous":false,"inputs":[{"indexed":true,"internalType":"string","name":"recordId","type":"string"},{"indexed":true,"internalType":"string","name":"recordHash","type":"string"},{"indexed":true,"internalType":"address","name":"reviewer","type":"address"},{"indexed":false,"internalType":"enum HealthRecordCore.ReviewType","name":"reviewType","type":"uint8"},{"indexed":false,"internalType":"enum HealthRecordCore.DisputeSeverity","name":"severity","type":"uint8"},{"indexed":false,"internalType":"enum HealthRecordCore.DisputeCulpability","name":"culpability","type":"uint8"},{"indexed":false,"internalType":"uint256","name":"timestamp","type":"uint256"}],"name":"RecordReviewed","type":"event"},{"anonymous":false,"inputs":[{"indexed":true,"internalType":"string","name":"recordHash","type":"string"},{"indexed":true,"internalType":"address","name":"reviewer","type":"address"},{"indexed":false,"internalType":"enum HealthRecordCore.ReviewType","name":"reviewType","type":"uint8"},{"indexed":false,"internalType":"uint256","name":"timestamp","type":"uint256"}],"name":"ReviewRetracted","type":"event"},{"inputs":[{"internalType":"string","name":"","type":"string"}],"name":"accessPermissions","outputs":[{"internalType":"string","name":"permissionHash","type":"string"},{"internalType":"address","name":"sharer","type":"address"},{"internalType":"address","name":"receiver","type":"address"},{"internalType":"string","name":"recordId","type":"string"},{"internalType":"uint256","name":"grantedAt","type":"uint256"},{"internalType":"uint256","name":"revokedAt","type":"uint256"},{"internalType":"bool","name":"isActive","type":"bool"},{"internalType":"bool","name":"exists","type":"bool"}],"stateMutability":"view","type":"function"},{"inputs":[],"name":"admin","outputs":[{"internalType":"address","name":"","type":"address"}],"stateMutability":"view","type":"function"},{"inputs":[{"internalType":"string","name":"recordHash","type":"string"},{"internalType":"string","name":"recordId","type":"string"},{"internalType":"address","name":"subject","type":"address"}],"name":"anchorRecord","outputs":[],"stateMutability":"nonpayable","type":"function"},{"inputs":[{"internalType":"string","name":"","type":"string"}],"name":"anchoredRecords","outputs":[{"internalType":"string","name":"recordHash","type":"string"},{"internalType":"string","name":"recordId","type":"string"},{"internalType":"address","name":"subject","type":"address"},{"internalType":"uint256","name":"createdAt","type":"uint256"},{"internalType":"address","name":"createdBy","type":"address"},{"internalType":"bool","name":"exists","type":"bool"}],"stateMutability":"view","type":"function"},{"inputs":[{"internalType":"string","name":"permissionHash","type":"string"}],"name":"checkAccess","outputs":[{"internalType":"bool","name":"isActive","type":"bool"},{"internalType":"address","name":"sharer","type":"address"},{"internalType":"address","name":"receiver","type":"address"},{"internalType":"string","name":"recordId","type":"string"},{"internalType":"uint256","name":"grantedAt","type":"uint256"},{"internalType":"uint256","name":"revokedAt","type":"uint256"}],"stateMutability":"view","type":"function"},{"inputs":[{"internalType":"string","name":"","type":"string"},{"internalType":"address","name":"","type":"address"},{"internalType":"uint256","name":"","type":"uint256"}],"name":"disputeReactions","outputs":[{"internalType":"address","name":"reactor","type":"address"},{"internalType":"bool","name":"supportsDispute","type":"bool"},{"internalType":"uint256","name":"timestamp","type":"uint256"}],"stateMutability":"view","type":"function"},{"inputs":[{"internalType":"string","name":"recordHash","type":"string"},{"internalType":"uint8","name":"severity","type":"uint8"},{"internalType":"uint8","name":"culpability","type":"uint8"},{"internalType":"string","name":"notes","type":"string"}],"name":"disputeRecord","outputs":[],"stateMutability":"nonpayable","type":"function"},{"inputs":[{"internalType":"address","name":"","type":"address"},{"internalType":"uint256","name":"","type":"uint256"}],"name":"disputesByUser","outputs":[{"internalType":"string","name":"","type":"string"}],"stateMutability":"view","type":"function"},{"inputs":[{"internalType":"string","name":"recordHash","type":"string"}],"name":"getAnchoredRecord","outputs":[{"internalType":"string","name":"recordId","type":"string"},{"internalType":"address","name":"subject","type":"address"},{"internalType":"uint256","name":"createdAt","type":"uint256"},{"internalType":"address","name":"createdBy","type":"address"},{"internalType":"bool","name":"exists","type":"bool"}],"stateMutability":"view","type":"function"},{"inputs":[{"internalType":"string","name":"recordHash","type":"string"},{"internalType":"address","name":"disputer","type":"address"}],"name":"getDisputeReactionStats","outputs":[{"internalType":"uint256","name":"supportsCount","type":"uint256"},{"internalType":"uint256","name":"opposesCount","type":"uint256"}],"stateMutability":"view","type":"function"},{"inputs":[{"internalType":"string","name":"recordHash","type":"string"},{"internalType":"address","name":"disputer","type":"address"}],"name":"getDisputeReactions","outputs":[{"components":[{"internalType":"address","name":"reactor","type":"address"},{"internalType":"bool","name":"supportsDispute","type":"bool"},{"internalType":"uint256","name":"timestamp","type":"uint256"}],"internalType":"struct HealthRecordCore.Reaction[]","name":"","type":"tuple[]"}],"stateMutability":"view","type":"function"},{"inputs":[{"internalType":"string","name":"recordId","type":"string"}],"name":"getHashesByRecordId","outputs":[{"internalType":"string[]","name":"","type":"string[]"}],"stateMutability":"view","type":"function"},{"inputs":[{"internalType":"address","name":"receiver","type":"address"}],"name":"getPermissionsByReceiver","outputs":[{"internalType":"string[]","name":"","type":"string[]"}],"stateMutability":"view","type":"function"},{"inputs":[{"internalType":"address","name":"sharer","type":"address"}],"name":"getPermissionsBySharer","outputs":[{"internalType":"string[]","name":"","type":"string[]"}],"stateMutability":"view","type":"function"},{"inputs":[{"internalType":"string","name":"recordHash","type":"string"}],"name":"getRecordSubject","outputs":[{"internalType":"address","name":"","type":"address"}],"stateMutability":"view","type":"function"},{"inputs":[{"internalType":"address","name":"subject","type":"address"}],"name":"getRecordsAboutSubject","outputs":[{"internalType":"string[]","name":"","type":"string[]"}],"stateMutability":"view","type":"function"},{"inputs":[{"internalType":"string","name":"recordHash","type":"string"}],"name":"getReviewStats","outputs":[{"internalType":"uint256","name":"activeVerifications","type":"uint256"},{"internalType":"uint256","name":"activeDisputes","type":"uint256"},{"internalType":"uint256","name":"retractedCount","type":"uint256"}],"stateMutability":"view","type":"function"},{"inputs":[{"internalType":"string","name":"recordHash","type":"string"}],"name":"getReviews","outputs":[{"components":[{"internalType":"address","name":"reviewer","type":"address"},{"internalType":"enum HealthRecordCore.ReviewType","name":"reviewType","type":"uint8"},{"internalType":"enum HealthRecordCore.DisputeSeverity","name":"severity","type":"uint8"},{"internalType":"enum HealthRecordCore.DisputeCulpability","name":"culpability","type":"uint8"},{"internalType":"uint256","name":"timestamp","type":"uint256"},{"internalType":"string","name":"notes","type":"string"},{"internalType":"bool","name":"isActive","type":"bool"}],"internalType":"struct HealthRecordCore.Review[]","name":"","type":"tuple[]"}],"stateMutability":"view","type":"function"},{"inputs":[{"internalType":"address","name":"sharer","type":"address"}],"name":"getSharerStats","outputs":[{"internalType":"uint256","name":"total","type":"uint256"},{"internalType":"uint256","name":"active","type":"uint256"}],"stateMutability":"view","type":"function"},{"inputs":[],"name":"getTotalPermissions","outputs":[{"internalType":"uint256","name":"","type":"uint256"}],"stateMutability":"view","type":"function"},{"inputs":[],"name":"getTotalStats","outputs":[{"internalType":"uint256","name":"totalAnchored","type":"uint256"},{"internalType":"uint256","name":"totalReviewCount","type":"uint256"},{"internalType":"uint256","name":"totalPermissionCount","type":"uint256"}],"stateMutability":"view","type":"function"},{"inputs":[{"internalType":"address","name":"user","type":"address"}],"name":"getUserDisputes","outputs":[{"internalType":"string[]","name":"","type":"string[]"}],"stateMutability":"view","type":"function"},{"inputs":[{"internalType":"string","name":"recordHash","type":"string"},{"internalType":"address","name":"user","type":"address"}],"name":"getUserReview","outputs":[{"internalType":"bool","name":"exists","type":"bool"},{"internalType":"enum HealthRecordCore.ReviewType","name":"reviewType","type":"uint8"},{"internalType":"uint256","name":"timestamp","type":"uint256"},{"internalType":"string","name":"notes","type":"string"},{"internalType":"bool","name":"isActive","type":"bool"}],"stateMutability":"view","type":"function"},{"inputs":[{"internalType":"address","name":"user","type":"address"}],"name":"getUserReviewHistory","outputs":[{"internalType":"uint256","name":"totalVerifications","type":"uint256"},{"internalType":"uint256","name":"totalDisputes","type":"uint256"}],"stateMutability":"view","type":"function"},{"inputs":[{"internalType":"address","name":"user","type":"address"}],"name":"getUserVerifications","outputs":[{"internalType":"string[]","name":"","type":"string[]"}],"stateMutability":"view","type":"function"},{"inputs":[{"internalType":"string","name":"permissionHash","type":"string"},{"internalType":"string","name":"recordId","type":"string"},{"internalType":"address","name":"receiver","type":"address"}],"name":"grantAccess","outputs":[],"stateMutability":"nonpayable","type":"function"},{"inputs":[{"internalType":"string","name":"","type":"string"},{"internalType":"address","name":"","type":"address"},{"internalType":"address","name":"","type":"address"}],"name":"hasReactedToDispute","outputs":[{"internalType":"bool","name":"","type":"bool"}],"stateMutability":"view","type":"function"},{"inputs":[{"internalType":"string","name":"","type":"string"},{"internalType":"address","name":"","type":"address"}],"name":"hasReviewed","outputs":[{"internalType":"bool","name":"","type":"bool"}],"stateMutability":"view","type":"function"},{"inputs":[{"internalType":"string","name":"recordHash","type":"string"},{"internalType":"address","name":"user","type":"address"}],"name":"isSubject","outputs":[{"internalType":"bool","name":"","type":"bool"}],"stateMutability":"view","type":"function"},{"inputs":[],"name":"memberRoleManager","outputs":[{"internalType":"contract MemberRoleManagerInterface","name":"","type":"address"}],"stateMutability":"view","type":"function"},{"inputs":[{"internalType":"string","name":"recordHash","type":"string"},{"internalType":"uint8","name":"newSeverity","type":"uint8"},{"internalType":"uint8","name":"newCulpability","type":"uint8"}],"name":"modifyDispute","outputs":[],"stateMutability":"nonpayable","type":"function"},{"inputs":[{"internalType":"address","name":"","type":"address"},{"internalType":"uint256","name":"","type":"uint256"}],"name":"permissionsByReceiver","outputs":[{"internalType":"string","name":"","type":"string"}],"stateMutability":"view","type":"function"},{"inputs":[{"internalType":"address","name":"","type":"address"},{"internalType":"uint256","name":"","type":"uint256"}],"name":"permissionsBySharer","outputs":[{"internalType":"string","name":"","type":"string"}],"stateMutability":"view","type":"function"},{"inputs":[{"internalType":"string","name":"recordHash","type":"string"},{"internalType":"address","name":"disputer","type":"address"},{"internalType":"bool","name":"supportsDispute","type":"bool"}],"name":"reactToDispute","outputs":[],"stateMutability":"nonpayable","type":"function"},{"inputs":[{"internalType":"string","name":"","type":"string"},{"internalType":"uint256","name":"","type":"uint256"}],"name":"recordHashesByRecordId","outputs":[{"internalType":"string","name":"","type":"string"}],"stateMutability":"view","type":"function"},{"inputs":[{"internalType":"string","name":"","type":"string"},{"internalType":"uint256","name":"","type":"uint256"}],"name":"recordReviews","outputs":[{"internalType":"address","name":"reviewer","type":"address"},{"internalType":"enum HealthRecordCore.ReviewType","name":"reviewType","type":"uint8"},{"internalType":"enum HealthRecordCore.DisputeSeverity","name":"severity","type":"uint8"},{"internalType":"enum HealthRecordCore.DisputeCulpability","name":"culpability","type":"uint8"},{"internalType":"uint256","name":"timestamp","type":"uint256"},{"internalType":"string","name":"notes","type":"string"},{"internalType":"bool","name":"isActive","type":"bool"}],"stateMutability":"view","type":"function"},{"inputs":[{"internalType":"address","name":"","type":"address"},{"internalType":"uint256","name":"","type":"uint256"}],"name":"recordsAboutSubject","outputs":[{"internalType":"string","name":"","type":"string"}],"stateMutability":"view","type":"function"},{"inputs":[{"internalType":"string","name":"recordHash","type":"string"}],"name":"retractReview","outputs":[],"stateMutability":"nonpayable","type":"function"},{"inputs":[{"internalType":"string","name":"permissionHash","type":"string"}],"name":"revokeAccess","outputs":[],"stateMutability":"nonpayable","type":"function"},{"inputs":[{"internalType":"address","name":"_memberRoleManager","type":"address"}],"name":"setMemberRoleManager","outputs":[],"stateMutability":"nonpayable","type":"function"},{"inputs":[],"name":"totalAnchoredRecords","outputs":[{"internalType":"uint256","name":"","type":"uint256"}],"stateMutability":"view","type":"function"},{"inputs":[],"name":"totalPermissions","outputs":[{"internalType":"uint256","name":"","type":"uint256"}],"stateMutability":"view","type":"function"},{"inputs":[],"name":"totalReviews","outputs":[{"internalType":"uint256","name":"","type":"uint256"}],"stateMutability":"view","type":"function"},{"inputs":[{"internalType":"address","name":"newAdmin","type":"address"}],"name":"transferAdmin","outputs":[],"stateMutability":"nonpayable","type":"function"},{"inputs":[{"internalType":"string","name":"","type":"string"},{"internalType":"address","name":"","type":"address"}],"name":"userReviewIndex","outputs":[{"internalType":"uint256","name":"","type":"uint256"}],"stateMutability":"view","type":"function"},{"inputs":[{"internalType":"address","name":"","type":"address"},{"internalType":"uint256","name":"","type":"uint256"}],"name":"verificationsByUser","outputs":[{"internalType":"string","name":"","type":"string"}],"stateMutability":"view","type":"function"},{"inputs":[{"internalType":"string","name":"recordHash","type":"string"},{"internalType":"string","name":"notes","type":"string"}],"name":"verifyRecord","outputs":[],"stateMutability":"nonpayable","type":"function"}],"evm":{"bytecode":{"linkReferences":{},"object":"60806040523480156200001157600080fd5b50604051620050ac380380620050ac8339810160408190526200003491620000c8565b6001600160a01b038116620000995760405162461bcd60e51b815260206004820152602160248201527f496e76616c6964204d656d626572526f6c654d616e61676572206164647265736044820152607360f81b606482015260840160405180910390fd5b600080546001600160a01b039092166001600160a01b03199283161790556001805490911633179055620000fa565b600060208284031215620000db57600080fd5b81516001600160a01b0381168114620000f357600080fd5b9392505050565b614fa2806200010a6000396000f3fe608060405234801561001057600080fd5b50600436106102955760003560e01c806380fcd81711610167578063bed6e79e116100ce578063e589425e11610087578063e589425e14610748578063f25b7f451461075b578063f6cc55f91461076e578063f851a44014610793578063fb310c59146107a6578063fc5cbf1d146107b957600080fd5b8063bed6e79e146106b8578063bfb0a55b146106cb578063c542ef40146106de578063dd0bc082146106f1578063e0f3e86e14610704578063e23678901461073f57600080fd5b80639e90e34a116101205780639e90e34a14610624578063a065361114610637578063a5a6958e1461064a578063ad6f02811461066e578063b10e4a0b14610681578063b5d3bc051461069457600080fd5b806380fcd8171461052057806381c86b331461055e5780638625d3841461057157806386564c8e146105b557806386c097f7146105eb578063889a7eee146105fe57600080fd5b8063328c5aa11161020b5780633de2e8e9116101c45780633de2e8e9146104815780633ecd54be1461049457806347580b56146104c25780636b032610146104d557806375829def146104e85780637ea79e9c146104fb57600080fd5b8063328c5aa1146103cc57806337811534146104045780633935b0761461040c5780633a7795681461041f5780633aaaaf88146104325780633cfbc7cb1461045957600080fd5b806319c619531161025d57806319c61953146103435780631af43c91146103565780631cf8cbe814610369578063291c2b16146103805780632978465d146103a35780632ec1ca8a146103c357600080fd5b8063036351701461029a57806310a0e88a146102c35780631469fab7146102d857806315370703146102f85780631655408d14610323575b600080fd5b6102ad6102a83660046142ba565b6107c7565b6040516102ba9190614334565b60405180910390f35b6102d66102d1366004614402565b610880565b005b6102eb6102e6366004614460565b610c46565b6040516102ba919061447b565b60005461030b906001600160a01b031681565b6040516001600160a01b0390911681526020016102ba565b6103366103313660046144df565b610d35565b6040516102ba919061452d565b6102d6610351366004614591565b610dea565b6102d66103643660046145fc565b61122c565b61037260095481565b6040519081526020016102ba565b61039361038e3660046144df565b6113d3565b60405190151581526020016102ba565b6103b66103b1366004614681565b611414565b6040516102ba9190614708565b61037260055481565b6103df6103da3660046147de565b6115e8565b604080516001600160a01b0390941684529115156020840152908201526060016102ba565b600554610372565b6102d661041a366004614591565b611650565b6102ad61042d3660046142ba565b611b26565b610445610440366004614681565b611b42565b6040516102ba989796959493929190614835565b61046c6104673660046144df565b611cb7565b604080519283526020830191909152016102ba565b6102d661048f36600461489e565b611dc9565b6104a76104a2366004614681565b611e8e565b604080519384526020840192909252908201526060016102ba565b6102ad6104d03660046142ba565b612114565b61046c6104e3366004614460565b612130565b6102d66104f6366004614460565b61228f565b61050e610509366004614681565b612384565b6040516102ba96959493929190614902565b61039361052e3660046144df565b8151602081840181018051600b825292820194820194909420919093529091526000908152604090205460ff1681565b6102eb61056c366004614681565b6124e7565b61039361057f36600461495c565b8251602081850181018051600e825292820195820195909520919094528352600091825260408083209093528152205460ff1681565b61046c6105c3366004614460565b6001600160a01b03166000908152600f60209081526040808320546010909252909120549091565b6102eb6105f9366004614460565b6125d3565b61061161060c3660046149b1565b6126b7565b6040516102ba97969594939291906149f6565b6102d6610632366004614a6c565b6127c3565b6102ad6106453660046142ba565b612f2a565b61065d6106583660046144df565b612f46565b6040516102ba959493929190614ace565b61030b61067c366004614681565b6131bc565b6102d661068f366004614681565b613262565b6106a76106a2366004614681565b61343f565b6040516102ba959493929190614b10565b6102ad6106c63660046142ba565b613609565b6102eb6106d9366004614460565b613625565b6102eb6106ec366004614460565b613709565b6102d66106ff366004614460565b6137ed565b6103726107123660046144df565b8151602081840181018051600c825292820194820194909420919093529091526000908152604090205481565b61037260115481565b6102ad6107563660046149b1565b61389e565b6102eb610769366004614460565b6138c9565b61078161077c366004614681565b6139ad565b6040516102ba96959493929190614b56565b60015461030b906001600160a01b031681565b6102d66107b4366004614681565b613b9c565b6009546011546005546104a7565b601060205281600052604060002081815481106107e357600080fd5b906000526020600020016000915091505080546107ff90614b9f565b80601f016020809104026020016040519081016040528092919081815260200182805461082b90614b9f565b80156108785780601f1061084d57610100808354040283529160200191610878565b820191906000526020600020905b81548152906001019060200180831161085b57829003601f168201915b505050505081565b6006836040516108909190614bd9565b9081526040519081900360200190206004015460ff600160a01b909104166108d35760405162461bcd60e51b81526004016108ca90614bf5565b60405180910390fd5b600b836040516108e39190614bd9565b9081526040805160209281900383019020336000908152925290205460ff166109585760405162461bcd60e51b815260206004820152602160248201527f5573657220686173206e6f20726576696577206f6e2074686973207265636f726044820152601960fa1b60648201526084016108ca565b60018260ff1610158015610970575060038260ff1611155b6109b35760405162461bcd60e51b81526020600482015260146024820152735365766572697479206d75737420626520312d3360601b60448201526064016108ca565b60018160ff16101580156109cb575060058160ff1611155b610a115760405162461bcd60e51b815260206004820152601760248201527643756c706162696c697479206d75737420626520312d3560481b60448201526064016108ca565b6000600c84604051610a239190614bd9565b90815260408051602092819003830181203360009081529352908220549250600a90610a50908790614bd9565b90815260200160405180910390208281548110610a6f57610a6f614c22565b60009182526020909120600490910201600381015490915060ff16610ad65760405162461bcd60e51b815260206004820152601a60248201527f4469737075746520686173206265656e2072657472616374656400000000000060448201526064016108ca565b60018154600160a01b900460ff166001811115610af557610af56146be565b14610b425760405162461bcd60e51b815260206004820152601760248201527f526576696577206973206e6f742061206469737075746500000000000000000060448201526064016108ca565b805460ff600160a81b8204811691600160b01b900481169086166003811115610b6d57610b6d6146be565b8354849060ff60a81b1916600160a81b836003811115610b8f57610b8f6146be565b02179055508460ff166005811115610ba957610ba96146be565b8354849060ff60b01b1916600160b01b836005811115610bcb57610bcb6146be565b02179055506040513390610be0908990614bd9565b604051908190038120855490917f4a326d2e0f3bd3557b127d6a5d9cf92f3b9038184c6f20da297b638bbe8bd83391610c3591879160ff600160a81b82048116928992600160b01b9004909116904290614c38565b60405180910390a350505050505050565b6001600160a01b0381166000908152600f60209081526040808320805482518185028101850190935280835260609492939192909184015b82821015610d2a578382906000526020600020018054610c9d90614b9f565b80601f0160208091040260200160405190810160405280929190818152602001828054610cc990614b9f565b8015610d165780601f10610ceb57610100808354040283529160200191610d16565b820191906000526020600020905b815481529060010190602001808311610cf957829003601f168201915b505050505081526020019060010190610c7e565b505050509050919050565b6060600d83604051610d479190614bd9565b9081526040805191829003602090810183206001600160a01b0386166000908152908252828120805480840286018401909452838552929184015b82821015610dde576000848152602090819020604080516060810182526002860290920180546001600160a01b0381168452600160a01b900460ff16151583850152600190810154918301919091529083529092019101610d82565b50505050905092915050565b60005460405163cb261a0360e01b81523360048201526001600160a01b039091169063cb261a0390602401602060405180830381865afa158015610e32573d6000803e3d6000fd5b505050506040513d601f19601f82011682018060405250810190610e569190614c7d565b610e725760405162461bcd60e51b81526004016108ca90614c9a565b600054604051630286b6ab60e31b815283916001600160a01b031690631435b55890610ea49084903390600401614cc9565b602060405180830381865afa158015610ec1573d6000803e3d6000fd5b505050506040513d601f19601f82011682018060405250810190610ee59190614c7d565b610f015760405162461bcd60e51b81526004016108ca90614cf3565b6000845111610f495760405162461bcd60e51b8152602060048201526014602482015273486173682063616e6e6f7420626520656d70747960601b60448201526064016108ca565b6000835111610f965760405162461bcd60e51b81526020600482015260196024820152785265636f72642049442063616e6e6f7420626520656d70747960381b60448201526064016108ca565b6001600160a01b038216610fec5760405162461bcd60e51b815260206004820152601e60248201527f5375626a6563742063616e6e6f74206265207a65726f2061646472657373000060448201526064016108ca565b600684604051610ffc9190614bd9565b9081526040519081900360200190206004015460ff600160a01b909104161561105f5760405162461bcd60e51b815260206004820152601560248201527412185cda08185b1c9958591e48185b98da1bdc9959605a1b60448201526064016108ca565b6040805160c081018252858152602081018590526001600160a01b03841681830152426060820152336080820152600160a082015290516006906110a4908790614bd9565b908152604051908190036020019020815181906110c19082614d7a565b50602082015160018201906110d69082614d7a565b506040828101516002830180546001600160a01b039283166001600160a01b03199091161790556060840151600384015560808401516004909301805460a0909501511515600160a01b026001600160a81b031990951693821693909317939093179091559083166000908152600760209081529181208054600181018255908252919020016111668582614d7a565b506008836040516111779190614bd9565b9081526040516020918190038201902080546001810182556000918252919020016111a28582614d7a565b50600980549060006111b383614e3a565b9190505550816001600160a01b0316836040516111d09190614bd9565b6040518091039020856040516111e69190614bd9565b60408051918290038220338352426020840152917f4420e8451168941fa9021d087369875d12307cd926ed71885aee174e86c46fda91015b60405180910390a450505050565b60005460405163cb261a0360e01b81523360048201526001600160a01b039091169063cb261a0390602401602060405180830381865afa158015611274573d6000803e3d6000fd5b505050506040513d601f19601f820116820180604052508101906112989190614c7d565b6112b45760405162461bcd60e51b81526004016108ca90614c9a565b60018360ff16101580156112cc575060038360ff1611155b61130f5760405162461bcd60e51b81526020600482015260146024820152735365766572697479206d75737420626520312d3360601b60448201526064016108ca565b60018260ff1610158015611327575060058260ff1611155b61136d5760405162461bcd60e51b815260206004820152601760248201527643756c706162696c697479206d75737420626520312d3560481b60448201526064016108ca565b6113a3848260018660ff166003811115611389576113896146be565b8660ff16600581111561139e5761139e6146be565b613df4565b336000908152601060209081526040822080546001810182559083529120016113cc8582614d7a565b5050505050565b6000816001600160a01b03166006846040516113ef9190614bd9565b908152604051908190036020019020600201546001600160a01b031614905092915050565b6060600a826040516114269190614bd9565b9081526020016040518091039020805480602002602001604051908101604052809291908181526020016000905b82821015610d2a5760008481526020908190206040805160e081019091526004850290910180546001600160a01b03811683529192909190830190600160a01b900460ff1660018111156114aa576114aa6146be565b60018111156114bb576114bb6146be565b81528154602090910190600160a81b900460ff1660038111156114e0576114e06146be565b60038111156114f1576114f16146be565b81528154602090910190600160b01b900460ff166005811115611516576115166146be565b6005811115611527576115276146be565b81526020016001820154815260200160028201805461154590614b9f565b80601f016020809104026020016040519081016040528092919081815260200182805461157190614b9f565b80156115be5780601f10611593576101008083540402835291602001916115be565b820191906000526020600020905b8154815290600101906020018083116115a157829003601f168201915b50505091835250506003919091015460ff1615156020918201529082526001929092019101611454565b8251602081850181018051600d8252928201828701209290525260008281526040902080548290811061161a57600080fd5b6000918252602090912060029091020180546001909101546001600160a01b0382169450600160a01b90910460ff169250905083565b6000546040516345ecd02f60e01b81523360048201526001600160a01b03909116906345ecd02f90602401602060405180830381865afa158015611698573d6000803e3d6000fd5b505050506040513d601f19601f820116820180604052508101906116bc9190614c7d565b6116ff5760405162461bcd60e51b81526020600482015260146024820152732737ba1030b71030b1ba34bb329036b2b6b132b960611b60448201526064016108ca565b600054604051630286b6ab60e31b815283916001600160a01b031690631435b558906117319084903390600401614cc9565b602060405180830381865afa15801561174e573d6000803e3d6000fd5b505050506040513d601f19601f820116820180604052508101906117729190614c7d565b61178e5760405162461bcd60e51b81526004016108ca90614cf3565b60008451116117df5760405162461bcd60e51b815260206004820152601f60248201527f5065726d697373696f6e20686173682063616e6e6f7420626520656d7074790060448201526064016108ca565b600083511161182c5760405162461bcd60e51b81526020600482015260196024820152785265636f72642049442063616e6e6f7420626520656d70747960381b60448201526064016108ca565b6001600160a01b0382166118825760405162461bcd60e51b815260206004820152601f60248201527f526563656976657220616464726573732063616e6e6f74206265207a65726f0060448201526064016108ca565b336001600160a01b038316036118da5760405162461bcd60e51b815260206004820152601a60248201527f43616e6e6f74207368617265207769746820796f757273656c6600000000000060448201526064016108ca565b6002846040516118ea9190614bd9565b9081526040519081900360200190206006015460ff61010090910416156119535760405162461bcd60e51b815260206004820152601960248201527f5065726d697373696f6e20616c7265616479206578697374730000000000000060448201526064016108ca565b60408051610100810182528581523360208201526001600160a01b0384168183015260608101859052426080820152600060a0820152600160c0820181905260e082015290516002906119a7908790614bd9565b908152604051908190036020019020815181906119c49082614d7a565b5060208201516001820180546001600160a01b039283166001600160a01b031991821617909155604084015160028401805491909316911617905560608201516003820190611a139082614d7a565b506080820151600482015560a0820151600582015560c08201516006909101805460e09093015115156101000261ff00199215159290921661ffff199093169290921717905533600090815260036020908152604082208054600181018255908352912001611a828582614d7a565b506001600160a01b038216600090815260046020908152604082208054600181018255908352912001611ab58582614d7a565b5060058054906000611ac683614e3a565b9190505550816001600160a01b0316336001600160a01b031685604051611aed9190614bd9565b60405180910390207f4e9b2250dc310298285671060eeb083837adb673cedb4fcff8837a53196e885f864260405161121e929190614e61565b600360205281600052604060002081815481106107e357600080fd5b8051602081830181018051600282529282019190930120915280548190611b6890614b9f565b80601f0160208091040260200160405190810160405280929190818152602001828054611b9490614b9f565b8015611be15780601f10611bb657610100808354040283529160200191611be1565b820191906000526020600020905b815481529060010190602001808311611bc457829003601f168201915b5050506001840154600285015460038601805495966001600160a01b0393841696929093169450919250611c1490614b9f565b80601f0160208091040260200160405190810160405280929190818152602001828054611c4090614b9f565b8015611c8d5780601f10611c6257610100808354040283529160200191611c8d565b820191906000526020600020905b815481529060010190602001808311611c7057829003601f168201915b50505050600483015460058401546006909401549293909290915060ff8082169161010090041688565b6000806000600d85604051611ccc9190614bd9565b9081526040805191829003602090810183206001600160a01b0388166000908152908252828120805480840286018401909452838552929184015b82821015611d63576000848152602090819020604080516060810182526002860290920180546001600160a01b0381168452600160a01b900460ff16151583850152600190810154918301919091529083529092019101611d07565b50505050905060005b8151811015611dc057818181518110611d8757611d87614c22565b60200260200101516020015115611daa5783611da281614e3a565b945050611db8565b82611db481614e3a565b9350505b600101611d6c565b50509250929050565b60005460405163cb261a0360e01b81523360048201526001600160a01b039091169063cb261a0390602401602060405180830381865afa158015611e11573d6000803e3d6000fd5b505050506040513d601f19601f82011682018060405250810190611e359190614c7d565b611e515760405162461bcd60e51b81526004016108ca90614c9a565b611e6082826000806000613df4565b336000908152600f6020908152604082208054600181018255908352912001611e898382614d7a565b505050565b600080600080600a85604051611ea49190614bd9565b9081526020016040518091039020805480602002602001604051908101604052809291908181526020016000905b828210156120665760008481526020908190206040805160e081019091526004850290910180546001600160a01b03811683529192909190830190600160a01b900460ff166001811115611f2857611f286146be565b6001811115611f3957611f396146be565b81528154602090910190600160a81b900460ff166003811115611f5e57611f5e6146be565b6003811115611f6f57611f6f6146be565b81528154602090910190600160b01b900460ff166005811115611f9457611f946146be565b6005811115611fa557611fa56146be565b815260200160018201548152602001600282018054611fc390614b9f565b80601f0160208091040260200160405190810160405280929190818152602001828054611fef90614b9f565b801561203c5780601f106120115761010080835404028352916020019161203c565b820191906000526020600020905b81548152906001019060200180831161201f57829003601f168201915b50505091835250506003919091015460ff1615156020918201529082526001929092019101611ed2565b50505050905060005b815181101561210b5781818151811061208a5761208a614c22565b602002602001015160c00151156120f55760008282815181106120af576120af614c22565b60200260200101516020015160018111156120cc576120cc6146be565b036120e357846120db81614e3a565b955050612103565b836120ed81614e3a565b945050612103565b826120ff81614e3a565b9350505b60010161206f565b50509193909250565b600f60205281600052604060002081815481106107e357600080fd5b6001600160a01b0381166000908152600360209081526040808320805482518185028101850190935280835284938493929190849084015b8282101561221457838290600052602060002001805461218790614b9f565b80601f01602080910402602001604051908101604052809291908181526020018280546121b390614b9f565b80156122005780601f106121d557610100808354040283529160200191612200565b820191906000526020600020905b8154815290600101906020018083116121e357829003601f168201915b505050505081526020019060010190612168565b505050509050805192506000915060005b815181101561228857600282828151811061224257612242614c22565b60200260200101516040516122579190614bd9565b9081526040519081900360200190206006015460ff1615612280578261227c81614e3a565b9350505b600101612225565b5050915091565b6001546001600160a01b031633146122d65760405162461bcd60e51b815260206004820152600a60248201526927b7363c9030b236b4b760b11b60448201526064016108ca565b6001600160a01b03811661231e5760405162461bcd60e51b815260206004820152600f60248201526e496e76616c6964206164647265737360881b60448201526064016108ca565b6001546040514281526001600160a01b038381169216907f38df5fa0f7fef0d515ca1f5388cb5790ac5885d5fca8d05d9f943e563c33a4b39060200160405180910390a3600180546001600160a01b0319166001600160a01b0392909216919091179055565b80516020818301810180516006825292820191909301209152805481906123aa90614b9f565b80601f01602080910402602001604051908101604052809291908181526020018280546123d690614b9f565b80156124235780601f106123f857610100808354040283529160200191612423565b820191906000526020600020905b81548152906001019060200180831161240657829003601f168201915b50505050509080600101805461243890614b9f565b80601f016020809104026020016040519081016040528092919081815260200182805461246490614b9f565b80156124b15780601f10612486576101008083540402835291602001916124b1565b820191906000526020600020905b81548152906001019060200180831161249457829003601f168201915b505050506002830154600384015460049094015492936001600160a01b039182169390925090811690600160a01b900460ff1686565b60606008826040516124f99190614bd9565b9081526020016040518091039020805480602002602001604051908101604052809291908181526020016000905b82821015610d2a57838290600052602060002001805461254690614b9f565b80601f016020809104026020016040519081016040528092919081815260200182805461257290614b9f565b80156125bf5780601f10612594576101008083540402835291602001916125bf565b820191906000526020600020905b8154815290600101906020018083116125a257829003601f168201915b505050505081526020019060010190612527565b6001600160a01b0381166000908152600360209081526040808320805482518185028101850190935280835260609492939192909184015b82821015610d2a57838290600052602060002001805461262a90614b9f565b80601f016020809104026020016040519081016040528092919081815260200182805461265690614b9f565b80156126a35780601f10612678576101008083540402835291602001916126a3565b820191906000526020600020905b81548152906001019060200180831161268657829003601f168201915b50505050508152602001906001019061260b565b8151602081840181018051600a8252928201918501919091209190528054829081106126e257600080fd5b60009182526020909120600490910201805460018201546002830180546001600160a01b038416965060ff600160a01b850481169650600160a81b8504811695600160b01b9095041693919061273790614b9f565b80601f016020809104026020016040519081016040528092919081815260200182805461276390614b9f565b80156127b05780601f10612785576101008083540402835291602001916127b0565b820191906000526020600020905b81548152906001019060200180831161279357829003601f168201915b5050506003909301549192505060ff1687565b6000546040516345ecd02f60e01b81523360048201526001600160a01b03909116906345ecd02f90602401602060405180830381865afa15801561280b573d6000803e3d6000fd5b505050506040513d601f19601f8201168201806040525081019061282f9190614c7d565b6128725760405162461bcd60e51b81526020600482015260146024820152732737ba1030b71030b1ba34bb329036b2b6b132b960611b60448201526064016108ca565b6006836040516128829190614bd9565b9081526040519081900360200190206004015460ff600160a01b909104166128bc5760405162461bcd60e51b81526004016108ca90614bf5565b600b836040516128cc9190614bd9565b90815260408051602092819003830190206001600160a01b0385166000908152925290205460ff166129405760405162461bcd60e51b815260206004820152601c60248201527f4e6f20646973707574652066726f6d207468697320616464726573730000000060448201526064016108ca565b6000600c846040516129529190614bd9565b90815260408051602092819003830181206001600160a01b03871660009081529352908220549250600a90612988908790614bd9565b908152602001604051809103902082815481106129a7576129a7614c22565b60009182526020918290206040805160e0810190915260049092020180546001600160a01b0381168352919290919083019060ff600160a01b9091041660018111156129f5576129f56146be565b6001811115612a0657612a066146be565b81528154602090910190600160a81b900460ff166003811115612a2b57612a2b6146be565b6003811115612a3c57612a3c6146be565b81528154602090910190600160b01b900460ff166005811115612a6157612a616146be565b6005811115612a7257612a726146be565b815260200160018201548152602001600282018054612a9090614b9f565b80601f0160208091040260200160405190810160405280929190818152602001828054612abc90614b9f565b8015612b095780601f10612ade57610100808354040283529160200191612b09565b820191906000526020600020905b815481529060010190602001808311612aec57829003601f168201915b50505091835250506003919091015460ff1615156020909101529050600181602001516001811115612b3d57612b3d6146be565b14612b7a5760405162461bcd60e51b815260206004820152600d60248201526c4e6f742061206469737075746560981b60448201526064016108ca565b8060c00151612bcb5760405162461bcd60e51b815260206004820152601a60248201527f4469737075746520686173206265656e2072657472616374656400000000000060448201526064016108ca565b6000600686604051612bdd9190614bd9565b90815260200160405180910390206001018054612bf990614b9f565b80601f0160208091040260200160405190810160405280929190818152602001828054612c2590614b9f565b8015612c725780601f10612c4757610100808354040283529160200191612c72565b820191906000526020600020905b815481529060010190602001808311612c5557829003601f168201915b5050600054604051630286b6ab60e31b81529495506001600160a01b031693631435b5589350612caa92508591503390600401614cc9565b602060405180830381865afa158015612cc7573d6000803e3d6000fd5b505050506040513d601f19601f82011682018060405250810190612ceb9190614c7d565b612d075760405162461bcd60e51b81526004016108ca90614cf3565b6001600160a01b0385163303612d5f5760405162461bcd60e51b815260206004820181905260248201527f43616e6e6f7420726561637420746f20796f7572206f776e206469737075746560448201526064016108ca565b600e86604051612d6f9190614bd9565b90815260408051602092819003830190206001600160a01b038816600090815290835281812033825290925290205460ff1615612dee5760405162461bcd60e51b815260206004820152601f60248201527f416c7265616479207265616374656420746f207468697320646973707574650060448201526064016108ca565b600d86604051612dfe9190614bd9565b9081526040805191829003602090810183206001600160a01b03808a166000908152918352838220606086018552338652891515868501908152428787019081528254600181810185559386529590942096516002909502909601805496511515600160a01b026001600160a81b03199097169490921693909317949094178455519281019290925551600e90612e96908990614bd9565b90815260408051602092819003830181206001600160a01b038a166000818152918552838220338084529552929020805460ff19169415159490941790935591612ee1908990614bd9565b604080519182900382208815158352426020840152917fad3ed72ffd0de1372034654a13d68aaf09e3980d9fd90226d703b6ce84bec0d8910160405180910390a4505050505050565b600760205281600052604060002081815481106107e357600080fd5b600080600060606000600b87604051612f5f9190614bd9565b90815260408051602092819003830190206001600160a01b0389166000908152925290205460ff16612fab575050604080516020810190915260008082529350839250829150816131b2565b6000600c88604051612fbd9190614bd9565b90815260408051602092819003830181206001600160a01b038b1660009081529352908220549250600a90612ff3908b90614bd9565b9081526020016040518091039020828154811061301257613012614c22565b60009182526020918290206040805160e0810190915260049092020180546001600160a01b0381168352919290919083019060ff600160a01b909104166001811115613060576130606146be565b6001811115613071576130716146be565b81528154602090910190600160a81b900460ff166003811115613096576130966146be565b60038111156130a7576130a76146be565b81528154602090910190600160b01b900460ff1660058111156130cc576130cc6146be565b60058111156130dd576130dd6146be565b8152602001600182015481526020016002820180546130fb90614b9f565b80601f016020809104026020016040519081016040528092919081815260200182805461312790614b9f565b80156131745780601f1061314957610100808354040283529160200191613174565b820191906000526020600020905b81548152906001019060200180831161315757829003601f168201915b50505091835250506003919091015460ff161515602091820152810151608082015160a083015160c09093015160019a509198509650909450925050505b9295509295909350565b60006006826040516131ce9190614bd9565b9081526040519081900360200190206004015460ff600160a01b909104166132305760405162461bcd60e51b8152602060048201526015602482015274149958dbdc9908191bd95cc81b9bdd08195e1a5cdd605a1b60448201526064016108ca565b6006826040516132409190614bd9565b908152604051908190036020019020600201546001600160a01b031692915050565b600b816040516132729190614bd9565b9081526040805160209281900383019020336000908152925290205460ff166132d45760405162461bcd60e51b8152602060048201526014602482015273139bc81c995d9a595dc81d1bc81c995d1c9858dd60621b60448201526064016108ca565b6000600c826040516132e69190614bd9565b90815260408051602092819003830181203360009081529352908220549250600a90613313908590614bd9565b9081526020016040518091039020828154811061333257613332614c22565b60009182526020909120600490910201600381015490915060ff1661338d5760405162461bcd60e51b8152602060048201526011602482015270105b1c9958591e481c995d1c9858dd1959607a1b60448201526064016108ca565b60038101805460ff19169055604051600090600b906133ad908690614bd9565b90815260408051602092819003830181203360008181529190945291909120805460ff191693151593909317909255906133e8908590614bd9565b60405180910390207f6bc31bfb9ff73229da0fa40a8ab549b0579fa1a8aa5097d6c42c758ad69561828360000160149054906101000a900460ff1642604051613432929190614e83565b60405180910390a3505050565b606060008060008060006006876040516134599190614bd9565b90815260200160405180910390206040518060c001604052908160008201805461348290614b9f565b80601f01602080910402602001604051908101604052809291908181526020018280546134ae90614b9f565b80156134fb5780601f106134d0576101008083540402835291602001916134fb565b820191906000526020600020905b8154815290600101906020018083116134de57829003601f168201915b5050505050815260200160018201805461351490614b9f565b80601f016020809104026020016040519081016040528092919081815260200182805461354090614b9f565b801561358d5780601f106135625761010080835404028352916020019161358d565b820191906000526020600020905b81548152906001019060200180831161357057829003601f168201915b505050918352505060028201546001600160a01b039081166020808401919091526003840154604080850191909152600490940154918216606080850191909152600160a01b90920460ff16151560809384015284015192840151908401519184015160a090940151929b909a50909850919650945092505050565b600460205281600052604060002081815481106107e357600080fd5b6001600160a01b0381166000908152601060209081526040808320805482518185028101850190935280835260609492939192909184015b82821015610d2a57838290600052602060002001805461367c90614b9f565b80601f01602080910402602001604051908101604052809291908181526020018280546136a890614b9f565b80156136f55780601f106136ca576101008083540402835291602001916136f5565b820191906000526020600020905b8154815290600101906020018083116136d857829003601f168201915b50505050508152602001906001019061365d565b6001600160a01b0381166000908152600760209081526040808320805482518185028101850190935280835260609492939192909184015b82821015610d2a57838290600052602060002001805461376090614b9f565b80601f016020809104026020016040519081016040528092919081815260200182805461378c90614b9f565b80156137d95780601f106137ae576101008083540402835291602001916137d9565b820191906000526020600020905b8154815290600101906020018083116137bc57829003601f168201915b505050505081526020019060010190613741565b6001546001600160a01b031633146138345760405162461bcd60e51b815260206004820152600a60248201526927b7363c9030b236b4b760b11b60448201526064016108ca565b6001600160a01b03811661387c5760405162461bcd60e51b815260206004820152600f60248201526e496e76616c6964206164647265737360881b60448201526064016108ca565b600080546001600160a01b0319166001600160a01b0392909216919091179055565b815160208184018101805160088252928201918501919091209190528054829081106107e357600080fd5b6001600160a01b0381166000908152600460209081526040808320805482518185028101850190935280835260609492939192909184015b82821015610d2a57838290600052602060002001805461392090614b9f565b80601f016020809104026020016040519081016040528092919081815260200182805461394c90614b9f565b80156139995780601f1061396e57610100808354040283529160200191613999565b820191906000526020600020905b81548152906001019060200180831161397c57829003601f168201915b505050505081526020019060010190613901565b6000806000606060008060006002886040516139c99190614bd9565b9081526020016040518091039020604051806101000160405290816000820180546139f390614b9f565b80601f0160208091040260200160405190810160405280929190818152602001828054613a1f90614b9f565b8015613a6c5780601f10613a4157610100808354040283529160200191613a6c565b820191906000526020600020905b815481529060010190602001808311613a4f57829003601f168201915b505050918352505060018201546001600160a01b0390811660208301526002830154166040820152600382018054606090920191613aa990614b9f565b80601f0160208091040260200160405190810160405280929190818152602001828054613ad590614b9f565b8015613b225780601f10613af757610100808354040283529160200191613b22565b820191906000526020600020905b815481529060010190602001808311613b0557829003601f168201915b50505091835250506004820154602080830191909152600583015460408084019190915260069093015460ff808216151560608086019190915261010090920416151560809384015260c08501519185015193850151908501519285015160a090950151919d939c509a5090985091965090945092505050565b600281604051613bac9190614bd9565b9081526040519081900360200190206006015460ff61010090910416613c145760405162461bcd60e51b815260206004820152601960248201527f5065726d697373696f6e20646f6573206e6f742065786973740000000000000060448201526064016108ca565b600281604051613c249190614bd9565b9081526040519081900360200190206006015460ff16613c785760405162461bcd60e51b815260206004820152600f60248201526e105b1c9958591e481c995d9bdad959608a1b60448201526064016108ca565b336001600160a01b0316600282604051613c929190614bd9565b908152604051908190036020019020600101546001600160a01b031614613cfb5760405162461bcd60e51b815260206004820152601a60248201527f4f6e6c7920746865207368617265722063616e207265766f6b6500000000000060448201526064016108ca565b6000600282604051613d0d9190614bd9565b908152604051908190036020018120600601805492151560ff19909316929092179091554290600290613d41908490614bd9565b908152602001604051809103902060050181905550600281604051613d669190614bd9565b908152604051908190036020018120600201546001600160a01b0316903390613d90908490614bd9565b60405180910390207f24303533397c7c9c44f2c956200064d35c3459320ddcc9efeea95e384763bceb600285604051613dc99190614bd9565b908152602001604051809103902060030142604051613de9929190614e9e565b60405180910390a450565b600685604051613e049190614bd9565b9081526040519081900360200190206004015460ff600160a01b90910416613e3e5760405162461bcd60e51b81526004016108ca90614bf5565b6000600686604051613e509190614bd9565b90815260200160405180910390206001018054613e6c90614b9f565b80601f0160208091040260200160405190810160405280929190818152602001828054613e9890614b9f565b8015613ee55780601f10613eba57610100808354040283529160200191613ee5565b820191906000526020600020905b815481529060010190602001808311613ec857829003601f168201915b5050600054604051630286b6ab60e31b81529495506001600160a01b031693631435b5589350613f1d92508591503390600401614cc9565b602060405180830381865afa158015613f3a573d6000803e3d6000fd5b505050506040513d601f19601f82011682018060405250810190613f5e9190614c7d565b613f7a5760405162461bcd60e51b81526004016108ca90614cf3565b600b86604051613f8a9190614bd9565b9081526040805160209281900383019020336000908152925290205460ff1615613ff65760405162461bcd60e51b815260206004820152601c60248201527f416c72656164792072657669657765642074686973207265636f72640000000060448201526064016108ca565b6000600a876040516140089190614bd9565b908152604051908190036020018120549150600a90614028908990614bd9565b90815260200160405180910390206040518060e00160405280336001600160a01b03168152602001876001811115614062576140626146be565b8152602001866003811115614079576140796146be565b8152602001856005811115614090576140906146be565b815242602080830191909152604082018a90526001606090920182905283548083018555600094855293819020835160049095020180546001600160a01b031981166001600160a01b03909616958617825591840151939490939284926001600160a81b03191690911790600160a01b908490811115614112576141126146be565b021790555060408201518154829060ff60a81b1916600160a81b83600381111561413e5761413e6146be565b021790555060608201518154829060ff60b01b1916600160b01b83600581111561416a5761416a6146be565b02179055506080820151600182015560a0820151600282019061418d9082614d7a565b5060c091909101516003909101805460ff1916911515919091179055604051600190600b906141bd908a90614bd9565b908152604080516020928190038301812033600090815293529120805460ff1916921515929092179091558190600c906141f8908a90614bd9565b90815260408051602092819003830190203360009081529252812091909155601180549161422583614e3a565b9091555050604051339061423a908490614bd9565b6040518091039020886040516142509190614bd9565b60405180910390207f7113f0bf6c156de91047bc1021122f5e7103953f26c0628fdc1910ea15794b588888884260405161428d9493929190614f35565b60405180910390a450505050505050565b80356001600160a01b03811681146142b557600080fd5b919050565b600080604083850312156142cd57600080fd5b6142d68361429e565b946020939093013593505050565b60005b838110156142ff5781810151838201526020016142e7565b50506000910152565b600081518084526143208160208601602086016142e4565b601f01601f19169290920160200192915050565b6020815260006143476020830184614308565b9392505050565b634e487b7160e01b600052604160045260246000fd5b600082601f83011261437557600080fd5b813567ffffffffffffffff808211156143905761439061434e565b604051601f8301601f19908116603f011681019082821181831017156143b8576143b861434e565b816040528381528660208588010111156143d157600080fd5b836020870160208301376000602085830101528094505050505092915050565b803560ff811681146142b557600080fd5b60008060006060848603121561441757600080fd5b833567ffffffffffffffff81111561442e57600080fd5b61443a86828701614364565b935050614449602085016143f1565b9150614457604085016143f1565b90509250925092565b60006020828403121561447257600080fd5b6143478261429e565b600060208083016020845280855180835260408601915060408160051b87010192506020870160005b828110156144d257603f198886030184526144c0858351614308565b945092850192908501906001016144a4565b5092979650505050505050565b600080604083850312156144f257600080fd5b823567ffffffffffffffff81111561450957600080fd5b61451585828601614364565b9250506145246020840161429e565b90509250929050565b602080825282518282018190526000919060409081850190868401855b8281101561458457815180516001600160a01b0316855286810151151587860152850151858501526060909301929085019060010161454a565b5091979650505050505050565b6000806000606084860312156145a657600080fd5b833567ffffffffffffffff808211156145be57600080fd5b6145ca87838801614364565b945060208601359150808211156145e057600080fd5b506145ed86828701614364565b9250506144576040850161429e565b6000806000806080858703121561461257600080fd5b843567ffffffffffffffff8082111561462a57600080fd5b61463688838901614364565b9550614644602088016143f1565b9450614652604088016143f1565b9350606087013591508082111561466857600080fd5b5061467587828801614364565b91505092959194509250565b60006020828403121561469357600080fd5b813567ffffffffffffffff8111156146aa57600080fd5b6146b684828501614364565b949350505050565b634e487b7160e01b600052602160045260246000fd5b600281106146e4576146e46146be565b9052565b600481106146e4576146e46146be565b600681106146e4576146e46146be565b600060208083018184528085518083526040925060408601915060408160051b87010184880160005b838110156147d057888303603f19018552815180516001600160a01b031684528781015160e0906147648a8701826146d4565b5087820151614775898701826146e8565b50606080830151614788828801826146f8565b5050608080830151818701525060a08083015182828801526147ac83880182614308565b60c09485015115159790940196909652505094870194925090860190600101614731565b509098975050505050505050565b6000806000606084860312156147f357600080fd5b833567ffffffffffffffff81111561480a57600080fd5b61481686828701614364565b9350506148256020850161429e565b9150604084013590509250925092565b60006101008083526148498184018c614308565b6001600160a01b038b811660208601528a166040850152838103606085015290506148748189614308565b6080840197909752505060a081019390935290151560c0830152151560e090910152949350505050565b600080604083850312156148b157600080fd5b823567ffffffffffffffff808211156148c957600080fd5b6148d586838701614364565b935060208501359150808211156148eb57600080fd5b506148f885828601614364565b9150509250929050565b60c08152600061491560c0830189614308565b82810360208401526149278189614308565b6001600160a01b0397881660408501526060840196909652505091909316608082015291151560a09092019190915292915050565b60008060006060848603121561497157600080fd5b833567ffffffffffffffff81111561498857600080fd5b61499486828701614364565b9350506149a36020850161429e565b91506144576040850161429e565b600080604083850312156149c457600080fd5b823567ffffffffffffffff8111156149db57600080fd5b6149e785828601614364565b95602094909401359450505050565b6001600160a01b0388168152614a0f60208201886146d4565b614a1c60408201876146e8565b614a2960608201866146f8565b83608082015260e060a08201526000614a4560e0830185614308565b905082151560c083015298975050505050505050565b8015158114614a6957600080fd5b50565b600080600060608486031215614a8157600080fd5b833567ffffffffffffffff811115614a9857600080fd5b614aa486828701614364565b935050614ab36020850161429e565b91506040840135614ac381614a5b565b809150509250925092565b8515158152614ae060208201866146d4565b83604082015260a060608201526000614afc60a0830185614308565b905082151560808301529695505050505050565b60a081526000614b2360a0830188614308565b6001600160a01b039687166020840152604083019590955250919093166060820152911515608090920191909152919050565b86151581526001600160a01b0386811660208301528516604082015260c060608201819052600090614b8a90830186614308565b60808301949094525060a00152949350505050565b600181811c90821680614bb357607f821691505b602082108103614bd357634e487b7160e01b600052602260045260246000fd5b50919050565b60008251614beb8184602087016142e4565b9190910192915050565b602080825260139082015272149958dbdc99081b9bdd08185b98da1bdc9959606a1b604082015260600190565b634e487b7160e01b600052603260045260246000fd5b60a08101614c4682886146e8565b614c5360208301876146e8565b614c6060408301866146f8565b614c6d60608301856146f8565b8260808301529695505050505050565b600060208284031215614c8f57600080fd5b815161434781614a5b565b6020808252601590820152742737ba1030903b32b934b334b2b21036b2b6b132b960591b604082015260600190565b604081526000614cdc6040830185614308565b905060018060a01b03831660208301529392505050565b60208082526018908201527f4e6f2061636365737320746f2074686973207265636f72640000000000000000604082015260600190565b601f821115611e89576000816000526020600020601f850160051c81016020861015614d535750805b601f850160051c820191505b81811015614d7257828155600101614d5f565b505050505050565b815167ffffffffffffffff811115614d9457614d9461434e565b614da881614da28454614b9f565b84614d2a565b602080601f831160018114614ddd5760008415614dc55750858301515b600019600386901b1c1916600185901b178555614d72565b600085815260208120601f198616915b82811015614e0c57888601518255948401946001909101908401614ded565b5085821015614e2a5787850151600019600388901b60f8161c191681555b5050505050600190811b01905550565b600060018201614e5a57634e487b7160e01b600052601160045260246000fd5b5060010190565b604081526000614e746040830185614308565b90508260208301529392505050565b60408101614e9182856146d4565b8260208301529392505050565b604081526000808454614eb081614b9f565b8060408601526060600180841660008114614ed25760018114614eee57614f20565b60ff1985166060890152606084151560051b8901019550614f20565b8960005260208060002060005b86811015614f165781548b8201870152908401908201614efb565b8a01606001975050505b50505050506020929092019290925292915050565b60808101614f4382876146d4565b614f5060208301866146e8565b614f5d60408301856146f8565b8260608301529594505050505056fea2646970667358221220468f14a90c87ec4979288d9117653989fa919e7b9ebf9d032484a5ba339bfde064736f6c63430008170033","opcodes":"PUSH1 0x80 PUSH1 0x40 MSTORE CALLVALUE DUP1 ISZERO PUSH3 0x11 JUMPI PUSH1 0x0 DUP1 REVERT JUMPDEST POP PUSH1 0x40 MLOAD PUSH3 0x50AC CODESIZE SUB DUP1 PUSH3 0x50AC DUP4 CODECOPY DUP2 ADD PUSH1 0x40 DUP2 SWAP1 MSTORE PUSH3 0x34 SWAP2 PUSH3 0xC8 JUMP JUMPDEST PUSH1 0x1 PUSH1 0x1 PUSH1 0xA0 SHL SUB DUP2 AND PUSH3 0x99 JUMPI PUSH1 0x40 MLOAD PUSH3 0x461BCD PUSH1 0xE5 SHL DUP2 MSTORE PUSH1 0x20 PUSH1 0x4 DUP3 ADD MSTORE PUSH1 0x21 PUSH1 0x24 DUP3 ADD MSTORE PUSH32 0x496E76616C6964204D656D626572526F6C654D616E6167657220616464726573 PUSH1 0x44 DUP3 ADD MSTORE PUSH1 0x73 PUSH1 0xF8 SHL PUSH1 0x64 DUP3 ADD MSTORE PUSH1 0x84 ADD PUSH1 0x40 MLOAD DUP1 SWAP2 SUB SWAP1 REVERT JUMPDEST PUSH1 0x0 DUP1 SLOAD PUSH1 0x1 PUSH1 0x1 PUSH1 0xA0 SHL SUB SWAP1 SWAP3 AND PUSH1 0x1 PUSH1 0x1 PUSH1 0xA0 SHL SUB NOT SWAP3 DUP4 AND OR SWAP1 SSTORE PUSH1 0x1 DUP1 SLOAD SWAP1 SWAP2 AND CALLER OR SWAP1 SSTORE PUSH3 0xFA JUMP JUMPDEST PUSH1 0x0 PUSH1 0x20 DUP3 DUP5 SUB SLT ISZERO PUSH3 0xDB JUMPI PUSH1 0x0 DUP1 REVERT JUMPDEST DUP2 MLOAD PUSH1 0x1 PUSH1 0x1 PUSH1 0xA0 SHL SUB DUP2 AND DUP2 EQ PUSH3 0xF3 JUMPI PUSH1 0x0 DUP1 REVERT JUMPDEST SWAP4 SWAP3 POP POP POP JUMP JUMPDEST PUSH2 0x4FA2 DUP1 PUSH3 0x10A PUSH1 0x0 CODECOPY PUSH1 0x0 RETURN INVALID PUSH1 0x80 PUSH1 0x40 MSTORE CALLVALUE DUP1 ISZERO PUSH2 0x10 JUMPI PUSH1 0x0 DUP1 REVERT JUMPDEST POP PUSH1 0x4 CALLDATASIZE LT PUSH2 0x295 JUMPI PUSH1 0x0 CALLDATALOAD PUSH1 0xE0 SHR DUP1 PUSH4 0x80FCD817 GT PUSH2 0x167 JUMPI DUP1 PUSH4 0xBED6E79E GT PUSH2 0xCE JUMPI DUP1 PUSH4 0xE589425E GT PUSH2 0x87 JUMPI DUP1 PUSH4 0xE589425E EQ PUSH2 0x748 JUMPI DUP1 PUSH4 0xF25B7F45 EQ PUSH2 0x75B JUMPI DUP1 PUSH4 0xF6CC55F9 EQ PUSH2 0x76E JUMPI DUP1 PUSH4 0xF851A440 EQ PUSH2 0x793 JUMPI DUP1 PUSH4 0xFB310C59 EQ PUSH2 0x7A6 JUMPI DUP1 PUSH4 0xFC5CBF1D EQ PUSH2 0x7B9 JUMPI PUSH1 0x0 DUP1 REVERT JUMPDEST DUP1 PUSH4 0xBED6E79E EQ PUSH2 0x6B8 JUMPI DUP1 PUSH4 0xBFB0A55B EQ PUSH2 0x6CB JUMPI DUP1 PUSH4 0xC542EF40 EQ PUSH2 0x6DE JUMPI DUP1 PUSH4 0xDD0BC082 EQ PUSH2 0x6F1 JUMPI DUP1 PUSH4 0xE0F3E86E EQ PUSH2 0x704 JUMPI DUP1 PUSH4 0xE2367890 EQ PUSH2 0x73F JUMPI PUSH1 0x0 DUP1 REVERT JUMPDEST DUP1 PUSH4 0x9E90E34A GT PUSH2 0x120 JUMPI DUP1 PUSH4 0x9E90E34A EQ PUSH2 0x624 JUMPI DUP1 PUSH4 0xA0653611 EQ PUSH2 0x637 JUMPI DUP1 PUSH4 0xA5A6958E EQ PUSH2 0x64A JUMPI DUP1 PUSH4 0xAD6F0281 EQ PUSH2 0x66E JUMPI DUP1 PUSH4 0xB10E4A0B EQ PUSH2 0x681 JUMPI DUP1 PUSH4 0xB5D3BC05 EQ PUSH2 0x694 JUMPI PUSH1 0x0 DUP1 REVERT JUMPDEST DUP1 PUSH4 0x80FCD817 EQ PUSH2 0x520 JUMPI DUP1 PUSH4 0x81C86B33 EQ PUSH2 0x55E JUMPI DUP1 PUSH4 0x8625D384 EQ PUSH2 0x571 JUMPI DUP1 PUSH4 0x86564C8E EQ PUSH2 0x5B5 JUMPI DUP1 PUSH4 0x86C097F7 EQ PUSH2 0x5EB JUMPI DUP1 PUSH4 0x889A7EEE EQ PUSH2 0x5FE JUMPI PUSH1 0x0 DUP1 REVERT JUMPDEST DUP1 PUSH4 0x328C5AA1 GT PUSH2 0x20B JUMPI DUP1 PUSH4 0x3DE2E8E9 GT PUSH2 0x1C4 JUMPI DUP1 PUSH4 0x3DE2E8E9 EQ PUSH2 0x481 JUMPI DUP1 PUSH4 0x3ECD54BE EQ PUSH2 0x494 JUMPI DUP1 PUSH4 0x47580B56 EQ PUSH2 0x4C2 JUMPI DUP1 PUSH4 0x6B032610 EQ PUSH2 0x4D5 JUMPI DUP1 PUSH4 0x75829DEF EQ PUSH2 0x4E8 JUMPI DUP1 PUSH4 0x7EA79E9C EQ PUSH2 0x4FB JUMPI PUSH1 0x0 DUP1 REVERT JUMPDEST DUP1 PUSH4 0x328C5AA1 EQ PUSH2 0x3CC JUMPI DUP1 PUSH4 0x37811534 EQ PUSH2 0x404 JUMPI DUP1 PUSH4 0x3935B076 EQ PUSH2 0x40C JUMPI DUP1 PUSH4 0x3A779568 EQ PUSH2 0x41F JUMPI DUP1 PUSH4 0x3AAAAF88 EQ PUSH2 0x432 JUMPI DUP1 PUSH4 0x3CFBC7CB EQ PUSH2 0x459 JUMPI PUSH1 0x0 DUP1 REVERT JUMPDEST DUP1 PUSH4 0x19C61953 GT PUSH2 0x25D JUMPI DUP1 PUSH4 0x19C61953 EQ PUSH2 0x343 JUMPI DUP1 PUSH4 0x1AF43C91 EQ PUSH2 0x356 JUMPI DUP1 PUSH4 0x1CF8CBE8 EQ PUSH2 0x369 JUMPI DUP1 PUSH4 0x291C2B16 EQ PUSH2 0x380 JUMPI DUP1 PUSH4 0x2978465D EQ PUSH2 0x3A3 JUMPI DUP1 PUSH4 0x2EC1CA8A EQ PUSH2 0x3C3 JUMPI PUSH1 0x0 DUP1 REVERT JUMPDEST DUP1 PUSH4 0x3635170 EQ PUSH2 0x29A JUMPI DUP1 PUSH4 0x10A0E88A EQ PUSH2 0x2C3 JUMPI DUP1 PUSH4 0x1469FAB7 EQ PUSH2 0x2D8 JUMPI DUP1 PUSH4 0x15370703 EQ PUSH2 0x2F8 JUMPI DUP1 PUSH4 0x1655408D EQ PUSH2 0x323 JUMPI JUMPDEST PUSH1 0x0 DUP1 REVERT JUMPDEST PUSH2 0x2AD PUSH2 0x2A8 CALLDATASIZE PUSH1 0x4 PUSH2 0x42BA JUMP JUMPDEST PUSH2 0x7C7 JUMP JUMPDEST PUSH1 0x40 MLOAD PUSH2 0x2BA SWAP2 SWAP1 PUSH2 0x4334 JUMP JUMPDEST PUSH1 0x40 MLOAD DUP1 SWAP2 SUB SWAP1 RETURN JUMPDEST PUSH2 0x2D6 PUSH2 0x2D1 CALLDATASIZE PUSH1 0x4 PUSH2 0x4402 JUMP JUMPDEST PUSH2 0x880 JUMP JUMPDEST STOP JUMPDEST PUSH2 0x2EB PUSH2 0x2E6 CALLDATASIZE PUSH1 0x4 PUSH2 0x4460 JUMP JUMPDEST PUSH2 0xC46 JUMP JUMPDEST PUSH1 0x40 MLOAD PUSH2 0x2BA SWAP2 SWAP1 PUSH2 0x447B JUMP JUMPDEST PUSH1 0x0 SLOAD PUSH2 0x30B SWAP1 PUSH1 0x1 PUSH1 0x1 PUSH1 0xA0 SHL SUB AND DUP2 JUMP JUMPDEST PUSH1 0x40 MLOAD PUSH1 0x1 PUSH1 0x1 PUSH1 0xA0 SHL SUB SWAP1 SWAP2 AND DUP2 MSTORE PUSH1 0x20 ADD PUSH2 0x2BA JUMP JUMPDEST PUSH2 0x336 PUSH2 0x331 CALLDATASIZE PUSH1 0x4 PUSH2 0x44DF JUMP JUMPDEST PUSH2 0xD35 JUMP JUMPDEST PUSH1 0x40 MLOAD PUSH2 0x2BA SWAP2 SWAP1 PUSH2 0x452D JUMP JUMPDEST PUSH2 0x2D6 PUSH2 0x351 CALLDATASIZE PUSH1 0x4 PUSH2 0x4591 JUMP JUMPDEST PUSH2 0xDEA JUMP JUMPDEST PUSH2 0x2D6 PUSH2 0x364 CALLDATASIZE PUSH1 0x4 PUSH2 0x45FC JUMP JUMPDEST PUSH2 0x122C JUMP JUMPDEST PUSH2 0x372 PUSH1 0x9 SLOAD DUP2 JUMP JUMPDEST PUSH1 0x40 MLOAD SWAP1 DUP2 MSTORE PUSH1 0x20 ADD PUSH2 0x2BA JUMP JUMPDEST PUSH2 0x393 PUSH2 0x38E CALLDATASIZE PUSH1 0x4 PUSH2 0x44DF JUMP JUMPDEST PUSH2 0x13D3 JUMP JUMPDEST PUSH1 0x40 MLOAD SWAP1 ISZERO ISZERO DUP2 MSTORE PUSH1 0x20 ADD PUSH2 0x2BA JUMP JUMPDEST PUSH2 0x3B6 PUSH2 0x3B1 CALLDATASIZE PUSH1 0x4 PUSH2 0x4681 JUMP JUMPDEST PUSH2 0x1414 JUMP JUMPDEST PUSH1 0x40 MLOAD PUSH2 0x2BA SWAP2 SWAP1 PUSH2 0x4708 JUMP JUMPDEST PUSH2 0x372 PUSH1 0x5 SLOAD DUP2 JUMP JUMPDEST PUSH2 0x3DF PUSH2 0x3DA CALLDATASIZE PUSH1 0x4 PUSH2 0x47DE JUMP JUMPDEST PUSH2 0x15E8 JUMP JUMPDEST PUSH1 0x40 DUP1 MLOAD PUSH1 0x1 PUSH1 0x1 PUSH1 0xA0 SHL SUB SWAP1 SWAP5 AND DUP5 MSTORE SWAP2 ISZERO ISZERO PUSH1 0x20 DUP5 ADD MSTORE SWAP1 DUP3 ADD MSTORE PUSH1 0x60 ADD PUSH2 0x2BA JUMP JUMPDEST PUSH1 0x5 SLOAD PUSH2 0x372 JUMP JUMPDEST PUSH2 0x2D6 PUSH2 0x41A CALLDATASIZE PUSH1 0x4 PUSH2 0x4591 JUMP JUMPDEST PUSH2 0x1650 JUMP JUMPDEST PUSH2 0x2AD PUSH2 0x42D CALLDATASIZE PUSH1 0x4 PUSH2 0x42BA JUMP JUMPDEST PUSH2 0x1B26 JUMP JUMPDEST PUSH2 0x445 PUSH2 0x440 CALLDATASIZE PUSH1 0x4 PUSH2 0x4681 JUMP JUMPDEST PUSH2 0x1B42 JUMP JUMPDEST PUSH1 0x40 MLOAD PUSH2 0x2BA SWAP9 SWAP8 SWAP7 SWAP6 SWAP5 SWAP4 SWAP3 SWAP2 SWAP1 PUSH2 0x4835 JUMP JUMPDEST PUSH2 0x46C PUSH2 0x467 CALLDATASIZE PUSH1 0x4 PUSH2 0x44DF JUMP JUMPDEST PUSH2 0x1CB7 JUMP JUMPDEST PUSH1 0x40 DUP1 MLOAD SWAP3 DUP4 MSTORE PUSH1 0x20 DUP4 ADD SWAP2 SWAP1 SWAP2 MSTORE ADD PUSH2 0x2BA JUMP JUMPDEST PUSH2 0x2D6 PUSH2 0x48F CALLDATASIZE PUSH1 0x4 PUSH2 0x489E JUMP JUMPDEST PUSH2 0x1DC9 JUMP JUMPDEST PUSH2 0x4A7 PUSH2 0x4A2 CALLDATASIZE PUSH1 0x4 PUSH2 0x4681 JUMP JUMPDEST PUSH2 0x1E8E JUMP JUMPDEST PUSH1 0x40 DUP1 MLOAD SWAP4 DUP5 MSTORE PUSH1 0x20 DUP5 ADD SWAP3 SWAP1 SWAP3 MSTORE SWAP1 DUP3 ADD MSTORE PUSH1 0x60 ADD PUSH2 0x2BA JUMP JUMPDEST PUSH2 0x2AD PUSH2 0x4D0 CALLDATASIZE PUSH1 0x4 PUSH2 0x42BA JUMP JUMPDEST PUSH2 0x2114 JUMP JUMPDEST PUSH2 0x46C PUSH2 0x4E3 CALLDATASIZE PUSH1 0x4 PUSH2 0x4460 JUMP JUMPDEST PUSH2 0x2130 JUMP JUMPDEST PUSH2 0x2D6 PUSH2 0x4F6 CALLDATASIZE PUSH1 0x4 PUSH2 0x4460 JUMP JUMPDEST PUSH2 0x228F JUMP JUMPDEST PUSH2 0x50E PUSH2 0x509 CALLDATASIZE PUSH1 0x4 PUSH2 0x4681 JUMP JUMPDEST PUSH2 0x2384 JUMP JUMPDEST PUSH1 0x40 MLOAD PUSH2 0x2BA SWAP7 SWAP6 SWAP5 SWAP4 SWAP3 SWAP2 SWAP1 PUSH2 0x4902 JUMP JUMPDEST PUSH2 0x393 PUSH2 0x52E CALLDATASIZE PUSH1 0x4 PUSH2 0x44DF JUMP JUMPDEST DUP2 MLOAD PUSH1 0x20 DUP2 DUP5 ADD DUP2 ADD DUP1 MLOAD PUSH1 0xB DUP3 MSTORE SWAP3 DUP3 ADD SWAP5 DUP3 ADD SWAP5 SWAP1 SWAP5 KECCAK256 SWAP2 SWAP1 SWAP4 MSTORE SWAP1 SWAP2 MSTORE PUSH1 0x0 SWAP1 DUP2 MSTORE PUSH1 0x40 SWAP1 KECCAK256 SLOAD PUSH1 0xFF AND DUP2 JUMP JUMPDEST PUSH2 0x2EB PUSH2 0x56C CALLDATASIZE PUSH1 0x4 PUSH2 0x4681 JUMP JUMPDEST PUSH2 0x24E7 JUMP JUMPDEST PUSH2 0x393 PUSH2 0x57F CALLDATASIZE PUSH1 0x4 PUSH2 0x495C JUMP JUMPDEST DUP3 MLOAD PUSH1 0x20 DUP2 DUP6 ADD DUP2 ADD DUP1 MLOAD PUSH1 0xE DUP3 MSTORE SWAP3 DUP3 ADD SWAP6 DUP3 ADD SWAP6 SWAP1 SWAP6 KECCAK256 SWAP2 SWAP1 SWAP5 MSTORE DUP4 MSTORE PUSH1 0x0 SWAP2 DUP3 MSTORE PUSH1 0x40 DUP1 DUP4 KECCAK256 SWAP1 SWAP4 MSTORE DUP2 MSTORE KECCAK256 SLOAD PUSH1 0xFF AND DUP2 JUMP JUMPDEST PUSH2 0x46C PUSH2 0x5C3 CALLDATASIZE PUSH1 0x4 PUSH2 0x4460 JUMP JUMPDEST PUSH1 0x1 PUSH1 0x1 PUSH1 0xA0 SHL SUB AND PUSH1 0x0 SWAP1 DUP2 MSTORE PUSH1 0xF PUSH1 0x20 SWAP1 DUP2 MSTORE PUSH1 0x40 DUP1 DUP4 KECCAK256 SLOAD PUSH1 0x10 SWAP1 SWAP3 MSTORE SWAP1 SWAP2 KECCAK256 SLOAD SWAP1 SWAP2 JUMP JUMPDEST PUSH2 0x2EB PUSH2 0x5F9 CALLDATASIZE PUSH1 0x4 PUSH2 0x4460 JUMP JUMPDEST PUSH2 0x25D3 JUMP JUMPDEST PUSH2 0x611 PUSH2 0x60C CALLDATASIZE PUSH1 0x4 PUSH2 0x49B1 JUMP JUMPDEST PUSH2 0x26B7 JUMP JUMPDEST PUSH1 0x40 MLOAD PUSH2 0x2BA SWAP8 SWAP7 SWAP6 SWAP5 SWAP4 SWAP3 SWAP2 SWAP1 PUSH2 0x49F6 JUMP JUMPDEST PUSH2 0x2D6 PUSH2 0x632 CALLDATASIZE PUSH1 0x4 PUSH2 0x4A6C JUMP JUMPDEST PUSH2 0x27C3 JUMP JUMPDEST PUSH2 0x2AD PUSH2 0x645 CALLDATASIZE PUSH1 0x4 PUSH2 0x42BA JUMP JUMPDEST PUSH2 0x2F2A JUMP JUMPDEST PUSH2 0x65D PUSH2 0x658 CALLDATASIZE PUSH1 0x4 PUSH2 0x44DF JUMP JUMPDEST PUSH2 0x2F46 JUMP JUMPDEST PUSH1 0x40 MLOAD PUSH2 0x2BA SWAP6 SWAP5 SWAP4 SWAP3 SWAP2 SWAP1 PUSH2 0x4ACE JUMP JUMPDEST PUSH2 0x30B PUSH2 0x67C CALLDATASIZE PUSH1 0x4 PUSH2 0x4681 JUMP JUMPDEST PUSH2 0x31BC JUMP JUMPDEST PUSH2 0x2D6 PUSH2 0x68F CALLDATASIZE PUSH1 0x4 PUSH2 0x4681 JUMP JUMPDEST PUSH2 0x3262 JUMP JUMPDEST PUSH2 0x6A7 PUSH2 0x6A2 CALLDATASIZE PUSH1 0x4 PUSH2 0x4681 JUMP JUMPDEST PUSH2 0x343F JUMP JUMPDEST PUSH1 0x40 MLOAD PUSH2 0x2BA SWAP6 SWAP5 SWAP4 SWAP3 SWAP2 SWAP1 PUSH2 0x4B10 JUMP JUMPDEST PUSH2 0x2AD PUSH2 0x6C6 CALLDATASIZE PUSH1 0x4 PUSH2 0x42BA JUMP JUMPDEST PUSH2 0x3609 JUMP JUMPDEST PUSH2 0x2EB PUSH2 0x6D9 CALLDATASIZE PUSH1 0x4 PUSH2 0x4460 JUMP JUMPDEST PUSH2 0x3625 JUMP JUMPDEST PUSH2 0x2EB PUSH2 0x6EC CALLDATASIZE PUSH1 0x4 PUSH2 0x4460 JUMP JUMPDEST PUSH2 0x3709 JUMP JUMPDEST PUSH2 0x2D6 PUSH2 0x6FF CALLDATASIZE PUSH1 0x4 PUSH2 0x4460 JUMP JUMPDEST PUSH2 0x37ED JUMP JUMPDEST PUSH2 0x372 PUSH2 0x712 CALLDATASIZE PUSH1 0x4 PUSH2 0x44DF JUMP JUMPDEST DUP2 MLOAD PUSH1 0x20 DUP2 DUP5 ADD DUP2 ADD DUP1 MLOAD PUSH1 0xC DUP3 MSTORE SWAP3 DUP3 ADD SWAP5 DUP3 ADD SWAP5 SWAP1 SWAP5 KECCAK256 SWAP2 SWAP1 SWAP4 MSTORE SWAP1 SWAP2 MSTORE PUSH1 0x0 SWAP1 DUP2 MSTORE PUSH1 0x40 SWAP1 KECCAK256 SLOAD DUP2 JUMP JUMPDEST PUSH2 0x372 PUSH1 0x11 SLOAD DUP2 JUMP JUMPDEST PUSH2 0x2AD PUSH2 0x756 CALLDATASIZE PUSH1 0x4 PUSH2 0x49B1 JUMP JUMPDEST PUSH2 0x389E JUMP JUMPDEST PUSH2 0x2EB PUSH2 0x769 CALLDATASIZE PUSH1 0x4 PUSH2 0x4460 JUMP JUMPDEST PUSH2 0x38C9 JUMP JUMPDEST PUSH2 0x781 PUSH2 0x77C CALLDATASIZE PUSH1 0x4 PUSH2 0x4681 JUMP JUMPDEST PUSH2 0x39AD JUMP JUMPDEST PUSH1 0x40 MLOAD PUSH2 0x2BA SWAP7 SWAP6 SWAP5 SWAP4 SWAP3 SWAP2 SWAP1 PUSH2 0x4B56 JUMP JUMPDEST PUSH1 0x1 SLOAD PUSH2 0x30B SWAP1 PUSH1 0x1 PUSH1 0x1 PUSH1 0xA0 SHL SUB AND DUP2 JUMP JUMPDEST PUSH2 0x2D6 PUSH2 0x7B4 CALLDATASIZE PUSH1 0x4 PUSH2 0x4681 JUMP JUMPDEST PUSH2 0x3B9C JUMP JUMPDEST PUSH1 0x9 SLOAD PUSH1 0x11 SLOAD PUSH1 0x5 SLOAD PUSH2 0x4A7 JUMP JUMPDEST PUSH1 0x10 PUSH1 0x20 MSTORE DUP2 PUSH1 0x0 MSTORE PUSH1 0x40 PUSH1 0x0 KECCAK256 DUP2 DUP2 SLOAD DUP2 LT PUSH2 0x7E3 JUMPI PUSH1 0x0 DUP1 REVERT JUMPDEST SWAP1 PUSH1 0x0 MSTORE PUSH1 0x20 PUSH1 0x0 KECCAK256 ADD PUSH1 0x0 SWAP2 POP SWAP2 POP POP DUP1 SLOAD PUSH2 0x7FF SWAP1 PUSH2 0x4B9F JUMP JUMPDEST DUP1 PUSH1 0x1F ADD PUSH1 0x20 DUP1 SWAP2 DIV MUL PUSH1 0x20 ADD PUSH1 0x40 MLOAD SWAP1 DUP2 ADD PUSH1 0x40 MSTORE DUP1 SWAP3 SWAP2 SWAP1 DUP2 DUP2 MSTORE PUSH1 0x20 ADD DUP3 DUP1 SLOAD PUSH2 0x82B SWAP1 PUSH2 0x4B9F JUMP JUMPDEST DUP1 ISZERO PUSH2 0x878 JUMPI DUP1 PUSH1 0x1F LT PUSH2 0x84D JUMPI PUSH2 0x100 DUP1 DUP4 SLOAD DIV MUL DUP4 MSTORE SWAP2 PUSH1 0x20 ADD SWAP2 PUSH2 0x878 JUMP JUMPDEST DUP3 ADD SWAP2 SWAP1 PUSH1 0x0 MSTORE PUSH1 0x20 PUSH1 0x0 KECCAK256 SWAP1 JUMPDEST DUP2 SLOAD DUP2 MSTORE SWAP1 PUSH1 0x1 ADD SWAP1 PUSH1 0x20 ADD DUP1 DUP4 GT PUSH2 0x85B JUMPI DUP3 SWAP1 SUB PUSH1 0x1F AND DUP3 ADD SWAP2 JUMPDEST POP POP POP POP POP DUP2 JUMP JUMPDEST PUSH1 0x6 DUP4 PUSH1 0x40 MLOAD PUSH2 0x890 SWAP2 SWAP1 PUSH2 0x4BD9 JUMP JUMPDEST SWAP1 DUP2 MSTORE PUSH1 0x40 MLOAD SWAP1 DUP2 SWAP1 SUB PUSH1 0x20 ADD SWAP1 KECCAK256 PUSH1 0x4 ADD SLOAD PUSH1 0xFF PUSH1 0x1 PUSH1 0xA0 SHL SWAP1 SWAP2 DIV AND PUSH2 0x8D3 JUMPI PUSH1 0x40 MLOAD PUSH3 0x461BCD PUSH1 0xE5 SHL DUP2 MSTORE PUSH1 0x4 ADD PUSH2 0x8CA SWAP1 PUSH2 0x4BF5 JUMP JUMPDEST PUSH1 0x40 MLOAD DUP1 SWAP2 SUB SWAP1 REVERT JUMPDEST PUSH1 0xB DUP4 PUSH1 0x40 MLOAD PUSH2 0x8E3 SWAP2 SWAP1 PUSH2 0x4BD9 JUMP JUMPDEST SWAP1 DUP2 MSTORE PUSH1 0x40 DUP1 MLOAD PUSH1 0x20 SWAP3 DUP2 SWAP1 SUB DUP4 ADD SWAP1 KECCAK256 CALLER PUSH1 0x0 SWAP1 DUP2 MSTORE SWAP3 MSTORE SWAP1 KECCAK256 SLOAD PUSH1 0xFF AND PUSH2 0x958 JUMPI PUSH1 0x40 MLOAD PUSH3 0x461BCD PUSH1 0xE5 SHL DUP2 MSTORE PUSH1 0x20 PUSH1 0x4 DUP3 ADD MSTORE PUSH1 0x21 PUSH1 0x24 DUP3 ADD MSTORE PUSH32 0x5573657220686173206E6F20726576696577206F6E2074686973207265636F72 PUSH1 0x44 DUP3 ADD MSTORE PUSH1 0x19 PUSH1 0xFA SHL PUSH1 0x64 DUP3 ADD MSTORE PUSH1 0x84 ADD PUSH2 0x8CA JUMP JUMPDEST PUSH1 0x1 DUP3 PUSH1 0xFF AND LT ISZERO DUP1 ISZERO PUSH2 0x970 JUMPI POP PUSH1 0x3 DUP3 PUSH1 0xFF AND GT ISZERO JUMPDEST PUSH2 0x9B3 JUMPI PUSH1 0x40 MLOAD PUSH3 0x461BCD PUSH1 0xE5 SHL DUP2 MSTORE PUSH1 0x20 PUSH1 0x4 DUP3 ADD MSTORE PUSH1 0x14 PUSH1 0x24 DUP3 ADD MSTORE PUSH20 0x5365766572697479206D75737420626520312D33 PUSH1 0x60 SHL PUSH1 0x44 DUP3 ADD MSTORE PUSH1 0x64 ADD PUSH2 0x8CA JUMP JUMPDEST PUSH1 0x1 DUP2 PUSH1 0xFF AND LT ISZERO DUP1 ISZERO PUSH2 0x9CB JUMPI POP PUSH1 0x5 DUP2 PUSH1 0xFF AND GT ISZERO JUMPDEST PUSH2 0xA11 JUMPI PUSH1 0x40 MLOAD PUSH3 0x461BCD PUSH1 0xE5 SHL DUP2 MSTORE PUSH1 0x20 PUSH1 0x4 DUP3 ADD MSTORE PUSH1 0x17 PUSH1 0x24 DUP3 ADD MSTORE PUSH23 0x43756C706162696C697479206D75737420626520312D35 PUSH1 0x48 SHL PUSH1 0x44 DUP3 ADD MSTORE PUSH1 0x64 ADD PUSH2 0x8CA JUMP JUMPDEST PUSH1 0x0 PUSH1 0xC DUP5 PUSH1 0x40 MLOAD PUSH2 0xA23 SWAP2 SWAP1 PUSH2 0x4BD9 JUMP JUMPDEST SWAP1 DUP2 MSTORE PUSH1 0x40 DUP1 MLOAD PUSH1 0x20 SWAP3 DUP2 SWAP1 SUB DUP4 ADD DUP2 KECCAK256 CALLER PUSH1 0x0 SWAP1 DUP2 MSTORE SWAP4 MSTORE SWAP1 DUP3 KECCAK256 SLOAD SWAP3 POP PUSH1 0xA SWAP1 PUSH2 0xA50 SWAP1 DUP8 SWAP1 PUSH2 0x4BD9 JUMP JUMPDEST SWAP1 DUP2 MSTORE PUSH1 0x20 ADD PUSH1 0x40 MLOAD DUP1 SWAP2 SUB SWAP1 KECCAK256 DUP3 DUP2 SLOAD DUP2 LT PUSH2 0xA6F JUMPI PUSH2 0xA6F PUSH2 0x4C22 JUMP JUMPDEST PUSH1 0x0 SWAP2 DUP3 MSTORE PUSH1 0x20 SWAP1 SWAP2 KECCAK256 PUSH1 0x4 SWAP1 SWAP2 MUL ADD PUSH1 0x3 DUP2 ADD SLOAD SWAP1 SWAP2 POP PUSH1 0xFF AND PUSH2 0xAD6 JUMPI PUSH1 0x40 MLOAD PUSH3 0x461BCD PUSH1 0xE5 SHL DUP2 MSTORE PUSH1 0x20 PUSH1 0x4 DUP3 ADD MSTORE PUSH1 0x1A PUSH1 0x24 DUP3 ADD MSTORE PUSH32 0x4469737075746520686173206265656E20726574726163746564000000000000 PUSH1 0x44 DUP3 ADD MSTORE PUSH1 0x64 ADD PUSH2 0x8CA JUMP JUMPDEST PUSH1 0x1 DUP2 SLOAD PUSH1 0x1 PUSH1 0xA0 SHL SWAP1 DIV PUSH1 0xFF AND PUSH1 0x1 DUP2 GT ISZERO PUSH2 0xAF5 JUMPI PUSH2 0xAF5 PUSH2 0x46BE JUMP JUMPDEST EQ PUSH2 0xB42 JUMPI PUSH1 0x40 MLOAD PUSH3 0x461BCD PUSH1 0xE5 SHL DUP2 MSTORE PUSH1 0x20 PUSH1 0x4 DUP3 ADD MSTORE PUSH1 0x17 PUSH1 0x24 DUP3 ADD MSTORE PUSH32 0x526576696577206973206E6F7420612064697370757465000000000000000000 PUSH1 0x44 DUP3 ADD MSTORE PUSH1 0x64 ADD PUSH2 0x8CA JUMP JUMPDEST DUP1 SLOAD PUSH1 0xFF PUSH1 0x1 PUSH1 0xA8 SHL DUP3 DIV DUP2 AND SWAP2 PUSH1 0x1 PUSH1 0xB0 SHL SWAP1 DIV DUP2 AND SWAP1 DUP7 AND PUSH1 0x3 DUP2 GT ISZERO PUSH2 0xB6D JUMPI PUSH2 0xB6D PUSH2 0x46BE JUMP JUMPDEST DUP4 SLOAD DUP5 SWAP1 PUSH1 0xFF PUSH1 0xA8 SHL NOT AND PUSH1 0x1 PUSH1 0xA8 SHL DUP4 PUSH1 0x3 DUP2 GT ISZERO PUSH2 0xB8F JUMPI PUSH2 0xB8F PUSH2 0x46BE JUMP JUMPDEST MUL OR SWAP1 SSTORE POP DUP5 PUSH1 0xFF AND PUSH1 0x5 DUP2 GT ISZERO PUSH2 0xBA9 JUMPI PUSH2 0xBA9 PUSH2 0x46BE JUMP JUMPDEST DUP4 SLOAD DUP5 SWAP1 PUSH1 0xFF PUSH1 0xB0 SHL NOT AND PUSH1 0x1 PUSH1 0xB0 SHL DUP4 PUSH1 0x5 DUP2 GT ISZERO PUSH2 0xBCB JUMPI PUSH2 0xBCB PUSH2 0x46BE JUMP JUMPDEST MUL OR SWAP1 SSTORE POP PUSH1 0x40 MLOAD CALLER SWAP1 PUSH2 0xBE0 SWAP1 DUP10 SWAP1 PUSH2 0x4BD9 JUMP JUMPDEST PUSH1 0x40 MLOAD SWAP1 DUP2 SWAP1 SUB DUP2 KECCAK256 DUP6 SLOAD SWAP1 SWAP2 PUSH32 0x4A326D2E0F3BD3557B127D6A5D9CF92F3B9038184C6F20DA297B638BBE8BD833 SWAP2 PUSH2 0xC35 SWAP2 DUP8 SWAP2 PUSH1 0xFF PUSH1 0x1 PUSH1 0xA8 SHL DUP3 DIV DUP2 AND SWAP3 DUP10 SWAP3 PUSH1 0x1 PUSH1 0xB0 SHL SWAP1 DIV SWAP1 SWAP2 AND SWAP1 TIMESTAMP SWAP1 PUSH2 0x4C38 JUMP JUMPDEST PUSH1 0x40 MLOAD DUP1 SWAP2 SUB SWAP1 LOG3 POP POP POP POP POP POP POP JUMP JUMPDEST PUSH1 0x1 PUSH1 0x1 PUSH1 0xA0 SHL SUB DUP2 AND PUSH1 0x0 SWAP1 DUP2 MSTORE PUSH1 0xF PUSH1 0x20 SWAP1 DUP2 MSTORE PUSH1 0x40 DUP1 DUP4 KECCAK256 DUP1 SLOAD DUP3 MLOAD DUP2 DUP6 MUL DUP2 ADD DUP6 ADD SWAP1 SWAP4 MSTORE DUP1 DUP4 MSTORE PUSH1 0x60 SWAP5 SWAP3 SWAP4 SWAP2 SWAP3 SWAP1 SWAP2 DUP5 ADD JUMPDEST DUP3 DUP3 LT ISZERO PUSH2 0xD2A JUMPI DUP4 DUP3 SWAP1 PUSH1 0x0 MSTORE PUSH1 0x20 PUSH1 0x0 KECCAK256 ADD DUP1 SLOAD PUSH2 0xC9D SWAP1 PUSH2 0x4B9F JUMP JUMPDEST DUP1 PUSH1 0x1F ADD PUSH1 0x20 DUP1 SWAP2 DIV MUL PUSH1 0x20 ADD PUSH1 0x40 MLOAD SWAP1 DUP2 ADD PUSH1 0x40 MSTORE DUP1 SWAP3 SWAP2 SWAP1 DUP2 DUP2 MSTORE PUSH1 0x20 ADD DUP3 DUP1 SLOAD PUSH2 0xCC9 SWAP1 PUSH2 0x4B9F JUMP JUMPDEST DUP1 ISZERO PUSH2 0xD16 JUMPI DUP1 PUSH1 0x1F LT PUSH2 0xCEB JUMPI PUSH2 0x100 DUP1 DUP4 SLOAD DIV MUL DUP4 MSTORE SWAP2 PUSH1 0x20 ADD SWAP2 PUSH2 0xD16 JUMP JUMPDEST DUP3 ADD SWAP2 SWAP1 PUSH1 0x0 MSTORE PUSH1 0x20 PUSH1 0x0 KECCAK256 SWAP1 JUMPDEST DUP2 SLOAD DUP2 MSTORE SWAP1 PUSH1 0x1 ADD SWAP1 PUSH1 0x20 ADD DUP1 DUP4 GT PUSH2 0xCF9 JUMPI DUP3 SWAP1 SUB PUSH1 0x1F AND DUP3 ADD SWAP2 JUMPDEST POP POP POP POP POP DUP2 MSTORE PUSH1 0x20 ADD SWAP1 PUSH1 0x1 ADD SWAP1 PUSH2 0xC7E JUMP JUMPDEST POP POP POP POP SWAP1 POP SWAP2 SWAP1 POP JUMP JUMPDEST PUSH1 0x60 PUSH1 0xD DUP4 PUSH1 0x40 MLOAD PUSH2 0xD47 SWAP2 SWAP1 PUSH2 0x4BD9 JUMP JUMPDEST SWAP1 DUP2 MSTORE PUSH1 0x40 DUP1 MLOAD SWAP2 DUP3 SWAP1 SUB PUSH1 0x20 SWAP1 DUP2 ADD DUP4 KECCAK256 PUSH1 0x1 PUSH1 0x1 PUSH1 0xA0 SHL SUB DUP7 AND PUSH1 0x0 SWAP1 DUP2 MSTORE SWAP1 DUP3 MSTORE DUP3 DUP2 KECCAK256 DUP1 SLOAD DUP1 DUP5 MUL DUP7 ADD DUP5 ADD SWAP1 SWAP5 MSTORE DUP4 DUP6 MSTORE SWAP3 SWAP2 DUP5 ADD JUMPDEST DUP3 DUP3 LT ISZERO PUSH2 0xDDE JUMPI PUSH1 0x0 DUP5 DUP2 MSTORE PUSH1 0x20 SWAP1 DUP2 SWAP1 KECCAK256 PUSH1 0x40 DUP1 MLOAD PUSH1 0x60 DUP2 ADD DUP3 MSTORE PUSH1 0x2 DUP7 MUL SWAP1 SWAP3 ADD DUP1 SLOAD PUSH1 0x1 PUSH1 0x1 PUSH1 0xA0 SHL SUB DUP2 AND DUP5 MSTORE PUSH1 0x1 PUSH1 0xA0 SHL SWAP1 DIV PUSH1 0xFF AND ISZERO ISZERO DUP4 DUP6 ADD MSTORE PUSH1 0x1 SWAP1 DUP2 ADD SLOAD SWAP2 DUP4 ADD SWAP2 SWAP1 SWAP2 MSTORE SWAP1 DUP4 MSTORE SWAP1 SWAP3 ADD SWAP2 ADD PUSH2 0xD82 JUMP JUMPDEST POP POP POP POP SWAP1 POP SWAP3 SWAP2 POP POP JUMP JUMPDEST PUSH1 0x0 SLOAD PUSH1 0x40 MLOAD PUSH4 0xCB261A03 PUSH1 0xE0 SHL DUP2 MSTORE CALLER PUSH1 0x4 DUP3 ADD MSTORE PUSH1 0x1 PUSH1 0x1 PUSH1 0xA0 SHL SUB SWAP1 SWAP2 AND SWAP1 PUSH4 0xCB261A03 SWAP1 PUSH1 0x24 ADD PUSH1 0x20 PUSH1 0x40 MLOAD DUP1 DUP4 SUB DUP2 DUP7 GAS STATICCALL ISZERO DUP1 ISZERO PUSH2 0xE32 JUMPI RETURNDATASIZE PUSH1 0x0 DUP1 RETURNDATACOPY RETURNDATASIZE PUSH1 0x0 REVERT JUMPDEST POP POP POP POP PUSH1 0x40 MLOAD RETURNDATASIZE PUSH1 0x1F NOT PUSH1 0x1F DUP3 ADD AND DUP3 ADD DUP1 PUSH1 0x40 MSTORE POP DUP2 ADD SWAP1 PUSH2 0xE56 SWAP2 SWAP1 PUSH2 0x4C7D JUMP JUMPDEST PUSH2 0xE72 JUMPI PUSH1 0x40 MLOAD PUSH3 0x461BCD PUSH1 0xE5 SHL DUP2 MSTORE PUSH1 0x4 ADD PUSH2 0x8CA SWAP1 PUSH2 0x4C9A JUMP JUMPDEST PUSH1 0x0 SLOAD PUSH1 0x40 MLOAD PUSH4 0x286B6AB PUSH1 0xE3 SHL DUP2 MSTORE DUP4 SWAP2 PUSH1 0x1 PUSH1 0x1 PUSH1 0xA0 SHL SUB AND SWAP1 PUSH4 0x1435B558 SWAP1 PUSH2 0xEA4 SWAP1 DUP5 SWAP1 CALLER SWAP1 PUSH1 0x4 ADD PUSH2 0x4CC9 JUMP JUMPDEST PUSH1 0x20 PUSH1 0x40 MLOAD DUP1 DUP4 SUB DUP2 DUP7 GAS STATICCALL ISZERO DUP1 ISZERO PUSH2 0xEC1 JUMPI RETURNDATASIZE PUSH1 0x0 DUP1 RETURNDATACOPY RETURNDATASIZE PUSH1 0x0 REVERT JUMPDEST POP POP POP POP PUSH1 0x40 MLOAD RETURNDATASIZE PUSH1 0x1F NOT PUSH1 0x1F DUP3 ADD AND DUP3 ADD DUP1 PUSH1 0x40 MSTORE POP DUP2 ADD SWAP1 PUSH2 0xEE5 SWAP2 SWAP1 PUSH2 0x4C7D JUMP JUMPDEST PUSH2 0xF01 JUMPI PUSH1 0x40 MLOAD PUSH3 0x461BCD PUSH1 0xE5 SHL DUP2 MSTORE PUSH1 0x4 ADD PUSH2 0x8CA SWAP1 PUSH2 0x4CF3 JUMP JUMPDEST PUSH1 0x0 DUP5 MLOAD GT PUSH2 0xF49 JUMPI PUSH1 0x40 MLOAD PUSH3 0x461BCD PUSH1 0xE5 SHL DUP2 MSTORE PUSH1 0x20 PUSH1 0x4 DUP3 ADD MSTORE PUSH1 0x14 PUSH1 0x24 DUP3 ADD MSTORE PUSH20 0x486173682063616E6E6F7420626520656D707479 PUSH1 0x60 SHL PUSH1 0x44 DUP3 ADD MSTORE PUSH1 0x64 ADD PUSH2 0x8CA JUMP JUMPDEST PUSH1 0x0 DUP4 MLOAD GT PUSH2 0xF96 JUMPI PUSH1 0x40 MLOAD PUSH3 0x461BCD PUSH1 0xE5 SHL DUP2 MSTORE PUSH1 0x20 PUSH1 0x4 DUP3 ADD MSTORE PUSH1 0x19 PUSH1 0x24 DUP3 ADD MSTORE PUSH25 0x5265636F72642049442063616E6E6F7420626520656D707479 PUSH1 0x38 SHL PUSH1 0x44 DUP3 ADD MSTORE PUSH1 0x64 ADD PUSH2 0x8CA JUMP JUMPDEST PUSH1 0x1 PUSH1 0x1 PUSH1 0xA0 SHL SUB DUP3 AND PUSH2 0xFEC JUMPI PUSH1 0x40 MLOAD PUSH3 0x461BCD PUSH1 0xE5 SHL DUP2 MSTORE PUSH1 0x20 PUSH1 0x4 DUP3 ADD MSTORE PUSH1 0x1E PUSH1 0x24 DUP3 ADD MSTORE PUSH32 0x5375626A6563742063616E6E6F74206265207A65726F20616464726573730000 PUSH1 0x44 DUP3 ADD MSTORE PUSH1 0x64 ADD PUSH2 0x8CA JUMP JUMPDEST PUSH1 0x6 DUP5 PUSH1 0x40 MLOAD PUSH2 0xFFC SWAP2 SWAP1 PUSH2 0x4BD9 JUMP JUMPDEST SWAP1 DUP2 MSTORE PUSH1 0x40 MLOAD SWAP1 DUP2 SWAP1 SUB PUSH1 0x20 ADD SWAP1 KECCAK256 PUSH1 0x4 ADD SLOAD PUSH1 0xFF PUSH1 0x1 PUSH1 0xA0 SHL SWAP1 SWAP2 DIV AND ISZERO PUSH2 0x105F JUMPI PUSH1 0x40 MLOAD PUSH3 0x461BCD PUSH1 0xE5 SHL DUP2 MSTORE PUSH1 0x20 PUSH1 0x4 DUP3 ADD MSTORE PUSH1 0x15 PUSH1 0x24 DUP3 ADD MSTORE PUSH21 0x12185CDA08185B1C9958591E48185B98DA1BDC9959 PUSH1 0x5A SHL PUSH1 0x44 DUP3 ADD MSTORE PUSH1 0x64 ADD PUSH2 0x8CA JUMP JUMPDEST PUSH1 0x40 DUP1 MLOAD PUSH1 0xC0 DUP2 ADD DUP3 MSTORE DUP6 DUP2 MSTORE PUSH1 0x20 DUP2 ADD DUP6 SWAP1 MSTORE PUSH1 0x1 PUSH1 0x1 PUSH1 0xA0 SHL SUB DUP5 AND DUP2 DUP4 ADD MSTORE TIMESTAMP PUSH1 0x60 DUP3 ADD MSTORE CALLER PUSH1 0x80 DUP3 ADD MSTORE PUSH1 0x1 PUSH1 0xA0 DUP3 ADD MSTORE SWAP1 MLOAD PUSH1 0x6 SWAP1 PUSH2 0x10A4 SWAP1 DUP8 SWAP1 PUSH2 0x4BD9 JUMP JUMPDEST SWAP1 DUP2 MSTORE PUSH1 0x40 MLOAD SWAP1 DUP2 SWAP1 SUB PUSH1 0x20 ADD SWAP1 KECCAK256 DUP2 MLOAD DUP2 SWAP1 PUSH2 0x10C1 SWAP1 DUP3 PUSH2 0x4D7A JUMP JUMPDEST POP PUSH1 0x20 DUP3 ADD MLOAD PUSH1 0x1 DUP3 ADD SWAP1 PUSH2 0x10D6 SWAP1 DUP3 PUSH2 0x4D7A JUMP JUMPDEST POP PUSH1 0x40 DUP3 DUP2 ADD MLOAD PUSH1 0x2 DUP4 ADD DUP1 SLOAD PUSH1 0x1 PUSH1 0x1 PUSH1 0xA0 SHL SUB SWAP3 DUP4 AND PUSH1 0x1 PUSH1 0x1 PUSH1 0xA0 SHL SUB NOT SWAP1 SWAP2 AND OR SWAP1 SSTORE PUSH1 0x60 DUP5 ADD MLOAD PUSH1 0x3 DUP5 ADD SSTORE PUSH1 0x80 DUP5 ADD MLOAD PUSH1 0x4 SWAP1 SWAP4 ADD DUP1 SLOAD PUSH1 0xA0 SWAP1 SWAP6 ADD MLOAD ISZERO ISZERO PUSH1 0x1 PUSH1 0xA0 SHL MUL PUSH1 0x1 PUSH1 0x1 PUSH1 0xA8 SHL SUB NOT SWAP1 SWAP6 AND SWAP4 DUP3 AND SWAP4 SWAP1 SWAP4 OR SWAP4 SWAP1 SWAP4 OR SWAP1 SWAP2 SSTORE SWAP1 DUP4 AND PUSH1 0x0 SWAP1 DUP2 MSTORE PUSH1 0x7 PUSH1 0x20 SWAP1 DUP2 MSTORE SWAP2 DUP2 KECCAK256 DUP1 SLOAD PUSH1 0x1 DUP2 ADD DUP3 SSTORE SWAP1 DUP3 MSTORE SWAP2 SWAP1 KECCAK256 ADD PUSH2 0x1166 DUP6 DUP3 PUSH2 0x4D7A JUMP JUMPDEST POP PUSH1 0x8 DUP4 PUSH1 0x40 MLOAD PUSH2 0x1177 SWAP2 SWAP1 PUSH2 0x4BD9 JUMP JUMPDEST SWAP1 DUP2 MSTORE PUSH1 0x40 MLOAD PUSH1 0x20 SWAP2 DUP2 SWAP1 SUB DUP3 ADD SWAP1 KECCAK256 DUP1 SLOAD PUSH1 0x1 DUP2 ADD DUP3 SSTORE PUSH1 0x0 SWAP2 DUP3 MSTORE SWAP2 SWAP1 KECCAK256 ADD PUSH2 0x11A2 DUP6 DUP3 PUSH2 0x4D7A JUMP JUMPDEST POP PUSH1 0x9 DUP1 SLOAD SWAP1 PUSH1 0x0 PUSH2 0x11B3 DUP4 PUSH2 0x4E3A JUMP JUMPDEST SWAP2 SWAP1 POP SSTORE POP DUP2 PUSH1 0x1 PUSH1 0x1 PUSH1 0xA0 SHL SUB AND DUP4 PUSH1 0x40 MLOAD PUSH2 0x11D0 SWAP2 SWAP1 PUSH2 0x4BD9 JUMP JUMPDEST PUSH1 0x40 MLOAD DUP1 SWAP2 SUB SWAP1 KECCAK256 DUP6 PUSH1 0x40 MLOAD PUSH2 0x11E6 SWAP2 SWAP1 PUSH2 0x4BD9 JUMP JUMPDEST PUSH1 0x40 DUP1 MLOAD SWAP2 DUP3 SWAP1 SUB DUP3 KECCAK256 CALLER DUP4 MSTORE TIMESTAMP PUSH1 0x20 DUP5 ADD MSTORE SWAP2 PUSH32 0x4420E8451168941FA9021D087369875D12307CD926ED71885AEE174E86C46FDA SWAP2 ADD JUMPDEST PUSH1 0x40 MLOAD DUP1 SWAP2 SUB SWAP1 LOG4 POP POP POP POP JUMP JUMPDEST PUSH1 0x0 SLOAD PUSH1 0x40 MLOAD PUSH4 0xCB261A03 PUSH1 0xE0 SHL DUP2 MSTORE CALLER PUSH1 0x4 DUP3 ADD MSTORE PUSH1 0x1 PUSH1 0x1 PUSH1 0xA0 SHL SUB SWAP1 SWAP2 AND SWAP1 PUSH4 0xCB261A03 SWAP1 PUSH1 0x24 ADD PUSH1 0x20 PUSH1 0x40 MLOAD DUP1 DUP4 SUB DUP2 DUP7 GAS STATICCALL ISZERO DUP1 ISZERO PUSH2 0x1274 JUMPI RETURNDATASIZE PUSH1 0x0 DUP1 RETURNDATACOPY RETURNDATASIZE PUSH1 0x0 REVERT JUMPDEST POP POP POP POP PUSH1 0x40 MLOAD RETURNDATASIZE PUSH1 0x1F NOT PUSH1 0x1F DUP3 ADD AND DUP3 ADD DUP1 PUSH1 0x40 MSTORE POP DUP2 ADD SWAP1 PUSH2 0x1298 SWAP2 SWAP1 PUSH2 0x4C7D JUMP JUMPDEST PUSH2 0x12B4 JUMPI PUSH1 0x40 MLOAD PUSH3 0x461BCD PUSH1 0xE5 SHL DUP2 MSTORE PUSH1 0x4 ADD PUSH2 0x8CA SWAP1 PUSH2 0x4C9A JUMP JUMPDEST PUSH1 0x1 DUP4 PUSH1 0xFF AND LT ISZERO DUP1 ISZERO PUSH2 0x12CC JUMPI POP PUSH1 0x3 DUP4 PUSH1 0xFF AND GT ISZERO JUMPDEST PUSH2 0x130F JUMPI PUSH1 0x40 MLOAD PUSH3 0x461BCD PUSH1 0xE5 SHL DUP2 MSTORE PUSH1 0x20 PUSH1 0x4 DUP3 ADD MSTORE PUSH1 0x14 PUSH1 0x24 DUP3 ADD MSTORE PUSH20 0x5365766572697479206D75737420626520312D33 PUSH1 0x60 SHL PUSH1 0x44 DUP3 ADD MSTORE PUSH1 0x64 ADD PUSH2 0x8CA JUMP JUMPDEST PUSH1 0x1 DUP3 PUSH1 0xFF AND LT ISZERO DUP1 ISZERO PUSH2 0x1327 JUMPI POP PUSH1 0x5 DUP3 PUSH1 0xFF AND GT ISZERO JUMPDEST PUSH2 0x136D JUMPI PUSH1 0x40 MLOAD PUSH3 0x461BCD PUSH1 0xE5 SHL DUP2 MSTORE PUSH1 0x20 PUSH1 0x4 DUP3 ADD MSTORE PUSH1 0x17 PUSH1 0x24 DUP3 ADD MSTORE PUSH23 0x43756C706162696C697479206D75737420626520312D35 PUSH1 0x48 SHL PUSH1 0x44 DUP3 ADD MSTORE PUSH1 0x64 ADD PUSH2 0x8CA JUMP JUMPDEST PUSH2 0x13A3 DUP5 DUP3 PUSH1 0x1 DUP7 PUSH1 0xFF AND PUSH1 0x3 DUP2 GT ISZERO PUSH2 0x1389 JUMPI PUSH2 0x1389 PUSH2 0x46BE JUMP JUMPDEST DUP7 PUSH1 0xFF AND PUSH1 0x5 DUP2 GT ISZERO PUSH2 0x139E JUMPI PUSH2 0x139E PUSH2 0x46BE JUMP JUMPDEST PUSH2 0x3DF4 JUMP JUMPDEST CALLER PUSH1 0x0 SWAP1 DUP2 MSTORE PUSH1 0x10 PUSH1 0x20 SWAP1 DUP2 MSTORE PUSH1 0x40 DUP3 KECCAK256 DUP1 SLOAD PUSH1 0x1 DUP2 ADD DUP3 SSTORE SWAP1 DUP4 MSTORE SWAP2 KECCAK256 ADD PUSH2 0x13CC DUP6 DUP3 PUSH2 0x4D7A JUMP JUMPDEST POP POP POP POP POP JUMP JUMPDEST PUSH1 0x0 DUP2 PUSH1 0x1 PUSH1 0x1 PUSH1 0xA0 SHL SUB AND PUSH1 0x6 DUP5 PUSH1 0x40 MLOAD PUSH2 0x13EF SWAP2 SWAP1 PUSH2 0x4BD9 JUMP JUMPDEST SWAP1 DUP2 MSTORE PUSH1 0x40 MLOAD SWAP1 DUP2 SWAP1 SUB PUSH1 0x20 ADD SWAP1 KECCAK256 PUSH1 0x2 ADD SLOAD PUSH1 0x1 PUSH1 0x1 PUSH1 0xA0 SHL SUB AND EQ SWAP1 POP SWAP3 SWAP2 POP POP JUMP JUMPDEST PUSH1 0x60 PUSH1 0xA DUP3 PUSH1 0x40 MLOAD PUSH2 0x1426 SWAP2 SWAP1 PUSH2 0x4BD9 JUMP JUMPDEST SWAP1 DUP2 MSTORE PUSH1 0x20 ADD PUSH1 0x40 MLOAD DUP1 SWAP2 SUB SWAP1 KECCAK256 DUP1 SLOAD DUP1 PUSH1 0x20 MUL PUSH1 0x20 ADD PUSH1 0x40 MLOAD SWAP1 DUP2 ADD PUSH1 0x40 MSTORE DUP1 SWAP3 SWAP2 SWAP1 DUP2 DUP2 MSTORE PUSH1 0x20 ADD PUSH1 0x0 SWAP1 JUMPDEST DUP3 DUP3 LT ISZERO PUSH2 0xD2A JUMPI PUSH1 0x0 DUP5 DUP2 MSTORE PUSH1 0x20 SWAP1 DUP2 SWAP1 KECCAK256 PUSH1 0x40 DUP1 MLOAD PUSH1 0xE0 DUP2 ADD SWAP1 SWAP2 MSTORE PUSH1 0x4 DUP6 MUL SWAP1 SWAP2 ADD DUP1 SLOAD PUSH1 0x1 PUSH1 0x1 PUSH1 0xA0 SHL SUB DUP2 AND DUP4 MSTORE SWAP2 SWAP3 SWAP1 SWAP2 SWAP1 DUP4 ADD SWAP1 PUSH1 0x1 PUSH1 0xA0 SHL SWAP1 DIV PUSH1 0xFF AND PUSH1 0x1 DUP2 GT ISZERO PUSH2 0x14AA JUMPI PUSH2 0x14AA PUSH2 0x46BE JUMP JUMPDEST PUSH1 0x1 DUP2 GT ISZERO PUSH2 0x14BB JUMPI PUSH2 0x14BB PUSH2 0x46BE JUMP JUMPDEST DUP2 MSTORE DUP2 SLOAD PUSH1 0x20 SWAP1 SWAP2 ADD SWAP1 PUSH1 0x1 PUSH1 0xA8 SHL SWAP1 DIV PUSH1 0xFF AND PUSH1 0x3 DUP2 GT ISZERO PUSH2 0x14E0 JUMPI PUSH2 0x14E0 PUSH2 0x46BE JUMP JUMPDEST PUSH1 0x3 DUP2 GT ISZERO PUSH2 0x14F1 JUMPI PUSH2 0x14F1 PUSH2 0x46BE JUMP JUMPDEST DUP2 MSTORE DUP2 SLOAD PUSH1 0x20 SWAP1 SWAP2 ADD SWAP1 PUSH1 0x1 PUSH1 0xB0 SHL SWAP1 DIV PUSH1 0xFF AND PUSH1 0x5 DUP2 GT ISZERO PUSH2 0x1516 JUMPI PUSH2 0x1516 PUSH2 0x46BE JUMP JUMPDEST PUSH1 0x5 DUP2 GT ISZERO PUSH2 0x1527 JUMPI PUSH2 0x1527 PUSH2 0x46BE JUMP JUMPDEST DUP2 MSTORE PUSH1 0x20 ADD PUSH1 0x1 DUP3 ADD SLOAD DUP2 MSTORE PUSH1 0x20 ADD PUSH1 0x2 DUP3 ADD DUP1 SLOAD PUSH2 0x1545 SWAP1 PUSH2 0x4B9F JUMP JUMPDEST DUP1 PUSH1 0x1F ADD PUSH1 0x20 DUP1 SWAP2 DIV MUL PUSH1 0x20 ADD PUSH1 0x40 MLOAD SWAP1 DUP2 ADD PUSH1 0x40 MSTORE DUP1 SWAP3 SWAP2 SWAP1 DUP2 DUP2 MSTORE PUSH1 0x20 ADD DUP3 DUP1 SLOAD PUSH2 0x1571 SWAP1 PUSH2 0x4B9F JUMP JUMPDEST DUP1 ISZERO PUSH2 0x15BE JUMPI DUP1 PUSH1 0x1F LT PUSH2 0x1593 JUMPI PUSH2 0x100 DUP1 DUP4 SLOAD DIV MUL DUP4 MSTORE SWAP2 PUSH1 0x20 ADD SWAP2 PUSH2 0x15BE JUMP JUMPDEST DUP3 ADD SWAP2 SWAP1 PUSH1 0x0 MSTORE PUSH1 0x20 PUSH1 0x0 KECCAK256 SWAP1 JUMPDEST DUP2 SLOAD DUP2 MSTORE SWAP1 PUSH1 0x1 ADD SWAP1 PUSH1 0x20 ADD DUP1 DUP4 GT PUSH2 0x15A1 JUMPI DUP3 SWAP1 SUB PUSH1 0x1F AND DUP3 ADD SWAP2 JUMPDEST POP POP POP SWAP2 DUP4 MSTORE POP POP PUSH1 0x3 SWAP2 SWAP1 SWAP2 ADD SLOAD PUSH1 0xFF AND ISZERO ISZERO PUSH1 0x20 SWAP2 DUP3 ADD MSTORE SWAP1 DUP3 MSTORE PUSH1 0x1 SWAP3 SWAP1 SWAP3 ADD SWAP2 ADD PUSH2 0x1454 JUMP JUMPDEST DUP3 MLOAD PUSH1 0x20 DUP2 DUP6 ADD DUP2 ADD DUP1 MLOAD PUSH1 0xD DUP3 MSTORE SWAP3 DUP3 ADD DUP3 DUP8 ADD KECCAK256 SWAP3 SWAP1 MSTORE MSTORE PUSH1 0x0 DUP3 DUP2 MSTORE PUSH1 0x40 SWAP1 KECCAK256 DUP1 SLOAD DUP3 SWAP1 DUP2 LT PUSH2 0x161A JUMPI PUSH1 0x0 DUP1 REVERT JUMPDEST PUSH1 0x0 SWAP2 DUP3 MSTORE PUSH1 0x20 SWAP1 SWAP2 KECCAK256 PUSH1 0x2 SWAP1 SWAP2 MUL ADD DUP1 SLOAD PUSH1 0x1 SWAP1 SWAP2 ADD SLOAD PUSH1 0x1 PUSH1 0x1 PUSH1 0xA0 SHL SUB DUP3 AND SWAP5 POP PUSH1 0x1 PUSH1 0xA0 SHL SWAP1 SWAP2 DIV PUSH1 0xFF AND SWAP3 POP SWAP1 POP DUP4 JUMP JUMPDEST PUSH1 0x0 SLOAD PUSH1 0x40 MLOAD PUSH4 0x45ECD02F PUSH1 0xE0 SHL DUP2 MSTORE CALLER PUSH1 0x4 DUP3 ADD MSTORE PUSH1 0x1 PUSH1 0x1 PUSH1 0xA0 SHL SUB SWAP1 SWAP2 AND SWAP1 PUSH4 0x45ECD02F SWAP1 PUSH1 0x24 ADD PUSH1 0x20 PUSH1 0x40 MLOAD DUP1 DUP4 SUB DUP2 DUP7 GAS STATICCALL ISZERO DUP1 ISZERO PUSH2 0x1698 JUMPI RETURNDATASIZE PUSH1 0x0 DUP1 RETURNDATACOPY RETURNDATASIZE PUSH1 0x0 REVERT JUMPDEST POP POP POP POP PUSH1 0x40 MLOAD RETURNDATASIZE PUSH1 0x1F NOT PUSH1 0x1F DUP3 ADD AND DUP3 ADD DUP1 PUSH1 0x40 MSTORE POP DUP2 ADD SWAP1 PUSH2 0x16BC SWAP2 SWAP1 PUSH2 0x4C7D JUMP JUMPDEST PUSH2 0x16FF JUMPI PUSH1 0x40 MLOAD PUSH3 0x461BCD PUSH1 0xE5 SHL DUP2 MSTORE PUSH1 0x20 PUSH1 0x4 DUP3 ADD MSTORE PUSH1 0x14 PUSH1 0x24 DUP3 ADD MSTORE PUSH20 0x2737BA1030B71030B1BA34BB329036B2B6B132B9 PUSH1 0x61 SHL PUSH1 0x44 DUP3 ADD MSTORE PUSH1 0x64 ADD PUSH2 0x8CA JUMP JUMPDEST PUSH1 0x0 SLOAD PUSH1 0x40 MLOAD PUSH4 0x286B6AB PUSH1 0xE3 SHL DUP2 MSTORE DUP4 SWAP2 PUSH1 0x1 PUSH1 0x1 PUSH1 0xA0 SHL SUB AND SWAP1 PUSH4 0x1435B558 SWAP1 PUSH2 0x1731 SWAP1 DUP5 SWAP1 CALLER SWAP1 PUSH1 0x4 ADD PUSH2 0x4CC9 JUMP JUMPDEST PUSH1 0x20 PUSH1 0x40 MLOAD DUP1 DUP4 SUB DUP2 DUP7 GAS STATICCALL ISZERO DUP1 ISZERO PUSH2 0x174E JUMPI RETURNDATASIZE PUSH1 0x0 DUP1 RETURNDATACOPY RETURNDATASIZE PUSH1 0x0 REVERT JUMPDEST POP POP POP POP PUSH1 0x40 MLOAD RETURNDATASIZE PUSH1 0x1F NOT PUSH1 0x1F DUP3 ADD AND DUP3 ADD DUP1 PUSH1 0x40 MSTORE POP DUP2 ADD SWAP1 PUSH2 0x1772 SWAP2 SWAP1 PUSH2 0x4C7D JUMP JUMPDEST PUSH2 0x178E JUMPI PUSH1 0x40 MLOAD PUSH3 0x461BCD PUSH1 0xE5 SHL DUP2 MSTORE PUSH1 0x4 ADD PUSH2 0x8CA SWAP1 PUSH2 0x4CF3 JUMP JUMPDEST PUSH1 0x0 DUP5 MLOAD GT PUSH2 0x17DF JUMPI PUSH1 0x40 MLOAD PUSH3 0x461BCD PUSH1 0xE5 SHL DUP2 MSTORE PUSH1 0x20 PUSH1 0x4 DUP3 ADD MSTORE PUSH1 0x1F PUSH1 0x24 DUP3 ADD MSTORE PUSH32 0x5065726D697373696F6E20686173682063616E6E6F7420626520656D70747900 PUSH1 0x44 DUP3 ADD MSTORE PUSH1 0x64 ADD PUSH2 0x8CA JUMP JUMPDEST PUSH1 0x0 DUP4 MLOAD GT PUSH2 0x182C JUMPI PUSH1 0x40 MLOAD PUSH3 0x461BCD PUSH1 0xE5 SHL DUP2 MSTORE PUSH1 0x20 PUSH1 0x4 DUP3 ADD MSTORE PUSH1 0x19 PUSH1 0x24 DUP3 ADD MSTORE PUSH25 0x5265636F72642049442063616E6E6F7420626520656D707479 PUSH1 0x38 SHL PUSH1 0x44 DUP3 ADD MSTORE PUSH1 0x64 ADD PUSH2 0x8CA JUMP JUMPDEST PUSH1 0x1 PUSH1 0x1 PUSH1 0xA0 SHL SUB DUP3 AND PUSH2 0x1882 JUMPI PUSH1 0x40 MLOAD PUSH3 0x461BCD PUSH1 0xE5 SHL DUP2 MSTORE PUSH1 0x20 PUSH1 0x4 DUP3 ADD MSTORE PUSH1 0x1F PUSH1 0x24 DUP3 ADD MSTORE PUSH32 0x526563656976657220616464726573732063616E6E6F74206265207A65726F00 PUSH1 0x44 DUP3 ADD MSTORE PUSH1 0x64 ADD PUSH2 0x8CA JUMP JUMPDEST CALLER PUSH1 0x1 PUSH1 0x1 PUSH1 0xA0 SHL SUB DUP4 AND SUB PUSH2 0x18DA JUMPI PUSH1 0x40 MLOAD PUSH3 0x461BCD PUSH1 0xE5 SHL DUP2 MSTORE PUSH1 0x20 PUSH1 0x4 DUP3 ADD MSTORE PUSH1 0x1A PUSH1 0x24 DUP3 ADD MSTORE PUSH32 0x43616E6E6F74207368617265207769746820796F757273656C66000000000000 PUSH1 0x44 DUP3 ADD MSTORE PUSH1 0x64 ADD PUSH2 0x8CA JUMP JUMPDEST PUSH1 0x2 DUP5 PUSH1 0x40 MLOAD PUSH2 0x18EA SWAP2 SWAP1 PUSH2 0x4BD9 JUMP JUMPDEST SWAP1 DUP2 MSTORE PUSH1 0x40 MLOAD SWAP1 DUP2 SWAP1 SUB PUSH1 0x20 ADD SWAP1 KECCAK256 PUSH1 0x6 ADD SLOAD PUSH1 0xFF PUSH2 0x100 SWAP1 SWAP2 DIV AND ISZERO PUSH2 0x1953 JUMPI PUSH1 0x40 MLOAD PUSH3 0x461BCD PUSH1 0xE5 SHL DUP2 MSTORE PUSH1 0x20 PUSH1 0x4 DUP3 ADD MSTORE PUSH1 0x19 PUSH1 0x24 DUP3 ADD MSTORE PUSH32 0x5065726D697373696F6E20616C72656164792065786973747300000000000000 PUSH1 0x44 DUP3 ADD MSTORE PUSH1 0x64 ADD PUSH2 0x8CA JUMP JUMPDEST PUSH1 0x40 DUP1 MLOAD PUSH2 0x100 DUP2 ADD DUP3 MSTORE DUP6 DUP2 MSTORE CALLER PUSH1 0x20 DUP3 ADD MSTORE PUSH1 0x1 PUSH1 0x1 PUSH1 0xA0 SHL SUB DUP5 AND DUP2 DUP4 ADD MSTORE PUSH1 0x60 DUP2 ADD DUP6 SWAP1 MSTORE TIMESTAMP PUSH1 0x80 DUP3 ADD MSTORE PUSH1 0x0 PUSH1 0xA0 DUP3 ADD MSTORE PUSH1 0x1 PUSH1 0xC0 DUP3 ADD DUP2 SWAP1 MSTORE PUSH1 0xE0 DUP3 ADD MSTORE SWAP1 MLOAD PUSH1 0x2 SWAP1 PUSH2 0x19A7 SWAP1 DUP8 SWAP1 PUSH2 0x4BD9 JUMP JUMPDEST SWAP1 DUP2 MSTORE PUSH1 0x40 MLOAD SWAP1 DUP2 SWAP1 SUB PUSH1 0x20 ADD SWAP1 KECCAK256 DUP2 MLOAD DUP2 SWAP1 PUSH2 0x19C4 SWAP1 DUP3 PUSH2 0x4D7A JUMP JUMPDEST POP PUSH1 0x20 DUP3 ADD MLOAD PUSH1 0x1 DUP3 ADD DUP1 SLOAD PUSH1 0x1 PUSH1 0x1 PUSH1 0xA0 SHL SUB SWAP3 DUP4 AND PUSH1 0x1 PUSH1 0x1 PUSH1 0xA0 SHL SUB NOT SWAP2 DUP3 AND OR SWAP1 SWAP2 SSTORE PUSH1 0x40 DUP5 ADD MLOAD PUSH1 0x2 DUP5 ADD DUP1 SLOAD SWAP2 SWAP1 SWAP4 AND SWAP2 AND OR SWAP1 SSTORE PUSH1 0x60 DUP3 ADD MLOAD PUSH1 0x3 DUP3 ADD SWAP1 PUSH2 0x1A13 SWAP1 DUP3 PUSH2 0x4D7A JUMP JUMPDEST POP PUSH1 0x80 DUP3 ADD MLOAD PUSH1 0x4 DUP3 ADD SSTORE PUSH1 0xA0 DUP3 ADD MLOAD PUSH1 0x5 DUP3 ADD SSTORE PUSH1 0xC0 DUP3 ADD MLOAD PUSH1 0x6 SWAP1 SWAP2 ADD DUP1 SLOAD PUSH1 0xE0 SWAP1 SWAP4 ADD MLOAD ISZERO ISZERO PUSH2 0x100 MUL PUSH2 0xFF00 NOT SWAP3 ISZERO ISZERO SWAP3 SWAP1 SWAP3 AND PUSH2 0xFFFF NOT SWAP1 SWAP4 AND SWAP3 SWAP1 SWAP3 OR OR SWAP1 SSTORE CALLER PUSH1 0x0 SWAP1 DUP2 MSTORE PUSH1 0x3 PUSH1 0x20 SWAP1 DUP2 MSTORE PUSH1 0x40 DUP3 KECCAK256 DUP1 SLOAD PUSH1 0x1 DUP2 ADD DUP3 SSTORE SWAP1 DUP4 MSTORE SWAP2 KECCAK256 ADD PUSH2 0x1A82 DUP6 DUP3 PUSH2 0x4D7A JUMP JUMPDEST POP PUSH1 0x1 PUSH1 0x1 PUSH1 0xA0 SHL SUB DUP3 AND PUSH1 0x0 SWAP1 DUP2 MSTORE PUSH1 0x4 PUSH1 0x20 SWAP1 DUP2 MSTORE PUSH1 0x40 DUP3 KECCAK256 DUP1 SLOAD PUSH1 0x1 DUP2 ADD DUP3 SSTORE SWAP1 DUP4 MSTORE SWAP2 KECCAK256 ADD PUSH2 0x1AB5 DUP6 DUP3 PUSH2 0x4D7A JUMP JUMPDEST POP PUSH1 0x5 DUP1 SLOAD SWAP1 PUSH1 0x0 PUSH2 0x1AC6 DUP4 PUSH2 0x4E3A JUMP JUMPDEST SWAP2 SWAP1 POP SSTORE POP DUP2 PUSH1 0x1 PUSH1 0x1 PUSH1 0xA0 SHL SUB AND CALLER PUSH1 0x1 PUSH1 0x1 PUSH1 0xA0 SHL SUB AND DUP6 PUSH1 0x40 MLOAD PUSH2 0x1AED SWAP2 SWAP1 PUSH2 0x4BD9 JUMP JUMPDEST PUSH1 0x40 MLOAD DUP1 SWAP2 SUB SWAP1 KECCAK256 PUSH32 0x4E9B2250DC310298285671060EEB083837ADB673CEDB4FCFF8837A53196E885F DUP7 TIMESTAMP PUSH1 0x40 MLOAD PUSH2 0x121E SWAP3 SWAP2 SWAP1 PUSH2 0x4E61 JUMP JUMPDEST PUSH1 0x3 PUSH1 0x20 MSTORE DUP2 PUSH1 0x0 MSTORE PUSH1 0x40 PUSH1 0x0 KECCAK256 DUP2 DUP2 SLOAD DUP2 LT PUSH2 0x7E3 JUMPI PUSH1 0x0 DUP1 REVERT JUMPDEST DUP1 MLOAD PUSH1 0x20 DUP2 DUP4 ADD DUP2 ADD DUP1 MLOAD PUSH1 0x2 DUP3 MSTORE SWAP3 DUP3 ADD SWAP2 SWAP1 SWAP4 ADD KECCAK256 SWAP2 MSTORE DUP1 SLOAD DUP2 SWAP1 PUSH2 0x1B68 SWAP1 PUSH2 0x4B9F JUMP JUMPDEST DUP1 PUSH1 0x1F ADD PUSH1 0x20 DUP1 SWAP2 DIV MUL PUSH1 0x20 ADD PUSH1 0x40 MLOAD SWAP1 DUP2 ADD PUSH1 0x40 MSTORE DUP1 SWAP3 SWAP2 SWAP1 DUP2 DUP2 MSTORE PUSH1 0x20 ADD DUP3 DUP1 SLOAD PUSH2 0x1B94 SWAP1 PUSH2 0x4B9F JUMP JUMPDEST DUP1 ISZERO PUSH2 0x1BE1 JUMPI DUP1 PUSH1 0x1F LT PUSH2 0x1BB6 JUMPI PUSH2 0x100 DUP1 DUP4 SLOAD DIV MUL DUP4 MSTORE SWAP2 PUSH1 0x20 ADD SWAP2 PUSH2 0x1BE1 JUMP JUMPDEST DUP3 ADD SWAP2 SWAP1 PUSH1 0x0 MSTORE PUSH1 0x20 PUSH1 0x0 KECCAK256 SWAP1 JUMPDEST DUP2 SLOAD DUP2 MSTORE SWAP1 PUSH1 0x1 ADD SWAP1 PUSH1 0x20 ADD DUP1 DUP4 GT PUSH2 0x1BC4 JUMPI DUP3 SWAP1 SUB PUSH1 0x1F AND DUP3 ADD SWAP2 JUMPDEST POP POP POP PUSH1 0x1 DUP5 ADD SLOAD PUSH1 0x2 DUP6 ADD SLOAD PUSH1 0x3 DUP7 ADD DUP1 SLOAD SWAP6 SWAP7 PUSH1 0x1 PUSH1 0x1 PUSH1 0xA0 SHL SUB SWAP4 DUP5 AND SWAP7 SWAP3 SWAP1 SWAP4 AND SWAP5 POP SWAP2 SWAP3 POP PUSH2 0x1C14 SWAP1 PUSH2 0x4B9F JUMP JUMPDEST DUP1 PUSH1 0x1F ADD PUSH1 0x20 DUP1 SWAP2 DIV MUL PUSH1 0x20 ADD PUSH1 0x40 MLOAD SWAP1 DUP2 ADD PUSH1 0x40 MSTORE DUP1 SWAP3 SWAP2 SWAP1 DUP2 DUP2 MSTORE PUSH1 0x20 ADD DUP3 DUP1 SLOAD PUSH2 0x1C40 SWAP1 PUSH2 0x4B9F JUMP JUMPDEST DUP1 ISZERO PUSH2 0x1C8D JUMPI DUP1 PUSH1 0x1F LT PUSH2 0x1C62 JUMPI PUSH2 0x100 DUP1 DUP4 SLOAD DIV MUL DUP4 MSTORE SWAP2 PUSH1 0x20 ADD SWAP2 PUSH2 0x1C8D JUMP JUMPDEST DUP3 ADD SWAP2 SWAP1 PUSH1 0x0 MSTORE PUSH1 0x20 PUSH1 0x0 KECCAK256 SWAP1 JUMPDEST DUP2 SLOAD DUP2 MSTORE SWAP1 PUSH1 0x1 ADD SWAP1 PUSH1 0x20 ADD DUP1 DUP4 GT PUSH2 0x1C70 JUMPI DUP3 SWAP1 SUB PUSH1 0x1F AND DUP3 ADD SWAP2 JUMPDEST POP POP POP POP PUSH1 0x4 DUP4 ADD SLOAD PUSH1 0x5 DUP5 ADD SLOAD PUSH1 0x6 SWAP1 SWAP5 ADD SLOAD SWAP3 SWAP4 SWAP1 SWAP3 SWAP1 SWAP2 POP PUSH1 0xFF DUP1 DUP3 AND SWAP2 PUSH2 0x100 SWAP1 DIV AND DUP9 JUMP JUMPDEST PUSH1 0x0 DUP1 PUSH1 0x0 PUSH1 0xD DUP6 PUSH1 0x40 MLOAD PUSH2 0x1CCC SWAP2 SWAP1 PUSH2 0x4BD9 JUMP JUMPDEST SWAP1 DUP2 MSTORE PUSH1 0x40 DUP1 MLOAD SWAP2 DUP3 SWAP1 SUB PUSH1 0x20 SWAP1 DUP2 ADD DUP4 KECCAK256 PUSH1 0x1 PUSH1 0x1 PUSH1 0xA0 SHL SUB DUP9 AND PUSH1 0x0 SWAP1 DUP2 MSTORE SWAP1 DUP3 MSTORE DUP3 DUP2 KECCAK256 DUP1 SLOAD DUP1 DUP5 MUL DUP7 ADD DUP5 ADD SWAP1 SWAP5 MSTORE DUP4 DUP6 MSTORE SWAP3 SWAP2 DUP5 ADD JUMPDEST DUP3 DUP3 LT ISZERO PUSH2 0x1D63 JUMPI PUSH1 0x0 DUP5 DUP2 MSTORE PUSH1 0x20 SWAP1 DUP2 SWAP1 KECCAK256 PUSH1 0x40 DUP1 MLOAD PUSH1 0x60 DUP2 ADD DUP3 MSTORE PUSH1 0x2 DUP7 MUL SWAP1 SWAP3 ADD DUP1 SLOAD PUSH1 0x1 PUSH1 0x1 PUSH1 0xA0 SHL SUB DUP2 AND DUP5 MSTORE PUSH1 0x1 PUSH1 0xA0 SHL SWAP1 DIV PUSH1 0xFF AND ISZERO ISZERO DUP4 DUP6 ADD MSTORE PUSH1 0x1 SWAP1 DUP2 ADD SLOAD SWAP2 DUP4 ADD SWAP2 SWAP1 SWAP2 MSTORE SWAP1 DUP4 MSTORE SWAP1 SWAP3 ADD SWAP2 ADD PUSH2 0x1D07 JUMP JUMPDEST POP POP POP POP SWAP1 POP PUSH1 0x0 JUMPDEST DUP2 MLOAD DUP2 LT ISZERO PUSH2 0x1DC0 JUMPI DUP2 DUP2 DUP2 MLOAD DUP2 LT PUSH2 0x1D87 JUMPI PUSH2 0x1D87 PUSH2 0x4C22 JUMP JUMPDEST PUSH1 0x20 MUL PUSH1 0x20 ADD ADD MLOAD PUSH1 0x20 ADD MLOAD ISZERO PUSH2 0x1DAA JUMPI DUP4 PUSH2 0x1DA2 DUP2 PUSH2 0x4E3A JUMP JUMPDEST SWAP5 POP POP PUSH2 0x1DB8 JUMP JUMPDEST DUP3 PUSH2 0x1DB4 DUP2 PUSH2 0x4E3A JUMP JUMPDEST SWAP4 POP POP JUMPDEST PUSH1 0x1 ADD PUSH2 0x1D6C JUMP JUMPDEST POP POP SWAP3 POP SWAP3 SWAP1 POP JUMP JUMPDEST PUSH1 0x0 SLOAD PUSH1 0x40 MLOAD PUSH4 0xCB261A03 PUSH1 0xE0 SHL DUP2 MSTORE CALLER PUSH1 0x4 DUP3 ADD MSTORE PUSH1 0x1 PUSH1 0x1 PUSH1 0xA0 SHL SUB SWAP1 SWAP2 AND SWAP1 PUSH4 0xCB261A03 SWAP1 PUSH1 0x24 ADD PUSH1 0x20 PUSH1 0x40 MLOAD DUP1 DUP4 SUB DUP2 DUP7 GAS STATICCALL ISZERO DUP1 ISZERO PUSH2 0x1E11 JUMPI RETURNDATASIZE PUSH1 0x0 DUP1 RETURNDATACOPY RETURNDATASIZE PUSH1 0x0 REVERT JUMPDEST POP POP POP POP PUSH1 0x40 MLOAD RETURNDATASIZE PUSH1 0x1F NOT PUSH1 0x1F DUP3 ADD AND DUP3 ADD DUP1 PUSH1 0x40 MSTORE POP DUP2 ADD SWAP1 PUSH2 0x1E35 SWAP2 SWAP1 PUSH2 0x4C7D JUMP JUMPDEST PUSH2 0x1E51 JUMPI PUSH1 0x40 MLOAD PUSH3 0x461BCD PUSH1 0xE5 SHL DUP2 MSTORE PUSH1 0x4 ADD PUSH2 0x8CA SWAP1 PUSH2 0x4C9A JUMP JUMPDEST PUSH2 0x1E60 DUP3 DUP3 PUSH1 0x0 DUP1 PUSH1 0x0 PUSH2 0x3DF4 JUMP JUMPDEST CALLER PUSH1 0x0 SWAP1 DUP2 MSTORE PUSH1 0xF PUSH1 0x20 SWAP1 DUP2 MSTORE PUSH1 0x40 DUP3 KECCAK256 DUP1 SLOAD PUSH1 0x1 DUP2 ADD DUP3 SSTORE SWAP1 DUP4 MSTORE SWAP2 KECCAK256 ADD PUSH2 0x1E89 DUP4 DUP3 PUSH2 0x4D7A JUMP JUMPDEST POP POP POP JUMP JUMPDEST PUSH1 0x0 DUP1 PUSH1 0x0 DUP1 PUSH1 0xA DUP6 PUSH1 0x40 MLOAD PUSH2 0x1EA4 SWAP2 SWAP1 PUSH2 0x4BD9 JUMP JUMPDEST SWAP1 DUP2 MSTORE PUSH1 0x20 ADD PUSH1 0x40 MLOAD DUP1 SWAP2 SUB SWAP1 KECCAK256 DUP1 SLOAD DUP1 PUSH1 0x20 MUL PUSH1 0x20 ADD PUSH1 0x40 MLOAD SWAP1 DUP2 ADD PUSH1 0x40 MSTORE DUP1 SWAP3 SWAP2 SWAP1 DUP2 DUP2 MSTORE PUSH1 0x20 ADD PUSH1 0x0 SWAP1 JUMPDEST DUP3 DUP3 LT ISZERO PUSH2 0x2066 JUMPI PUSH1 0x0 DUP5 DUP2 MSTORE PUSH1 0x20 SWAP1 DUP2 SWAP1 KECCAK256 PUSH1 0x40 DUP1 MLOAD PUSH1 0xE0 DUP2 ADD SWAP1 SWAP2 MSTORE PUSH1 0x4 DUP6 MUL SWAP1 SWAP2 ADD DUP1 SLOAD PUSH1 0x1 PUSH1 0x1 PUSH1 0xA0 SHL SUB DUP2 AND DUP4 MSTORE SWAP2 SWAP3 SWAP1 SWAP2 SWAP1 DUP4 ADD SWAP1 PUSH1 0x1 PUSH1 0xA0 SHL SWAP1 DIV PUSH1 0xFF AND PUSH1 0x1 DUP2 GT ISZERO PUSH2 0x1F28 JUMPI PUSH2 0x1F28 PUSH2 0x46BE JUMP JUMPDEST PUSH1 0x1 DUP2 GT ISZERO PUSH2 0x1F39 JUMPI PUSH2 0x1F39 PUSH2 0x46BE JUMP JUMPDEST DUP2 MSTORE DUP2 SLOAD PUSH1 0x20 SWAP1 SWAP2 ADD SWAP1 PUSH1 0x1 PUSH1 0xA8 SHL SWAP1 DIV PUSH1 0xFF AND PUSH1 0x3 DUP2 GT ISZERO PUSH2 0x1F5E JUMPI PUSH2 0x1F5E PUSH2 0x46BE JUMP JUMPDEST PUSH1 0x3 DUP2 GT ISZERO PUSH2 0x1F6F JUMPI PUSH2 0x1F6F PUSH2 0x46BE JUMP JUMPDEST DUP2 MSTORE DUP2 SLOAD PUSH1 0x20 SWAP1 SWAP2 ADD SWAP1 PUSH1 0x1 PUSH1 0xB0 SHL SWAP1 DIV PUSH1 0xFF AND PUSH1 0x5 DUP2 GT ISZERO PUSH2 0x1F94 JUMPI PUSH2 0x1F94 PUSH2 0x46BE JUMP JUMPDEST PUSH1 0x5 DUP2 GT ISZERO PUSH2 0x1FA5 JUMPI PUSH2 0x1FA5 PUSH2 0x46BE JUMP JUMPDEST DUP2 MSTORE PUSH1 0x20 ADD PUSH1 0x1 DUP3 ADD SLOAD DUP2 MSTORE PUSH1 0x20 ADD PUSH1 0x2 DUP3 ADD DUP1 SLOAD PUSH2 0x1FC3 SWAP1 PUSH2 0x4B9F JUMP JUMPDEST DUP1 PUSH1 0x1F ADD PUSH1 0x20 DUP1 SWAP2 DIV MUL PUSH1 0x20 ADD PUSH1 0x40 MLOAD SWAP1 DUP2 ADD PUSH1 0x40 MSTORE DUP1 SWAP3 SWAP2 SWAP1 DUP2 DUP2 MSTORE PUSH1 0x20 ADD DUP3 DUP1 SLOAD PUSH2 0x1FEF SWAP1 PUSH2 0x4B9F JUMP JUMPDEST DUP1 ISZERO PUSH2 0x203C JUMPI DUP1 PUSH1 0x1F LT PUSH2 0x2011 JUMPI PUSH2 0x100 DUP1 DUP4 SLOAD DIV MUL DUP4 MSTORE SWAP2 PUSH1 0x20 ADD SWAP2 PUSH2 0x203C JUMP JUMPDEST DUP3 ADD SWAP2 SWAP1 PUSH1 0x0 MSTORE PUSH1 0x20 PUSH1 0x0 KECCAK256 SWAP1 JUMPDEST DUP2 SLOAD DUP2 MSTORE SWAP1 PUSH1 0x1 ADD SWAP1 PUSH1 0x20 ADD DUP1 DUP4 GT PUSH2 0x201F JUMPI DUP3 SWAP1 SUB PUSH1 0x1F AND DUP3 ADD SWAP2 JUMPDEST POP POP POP SWAP2 DUP4 MSTORE POP POP PUSH1 0x3 SWAP2 SWAP1 SWAP2 ADD SLOAD PUSH1 0xFF AND ISZERO ISZERO PUSH1 0x20 SWAP2 DUP3 ADD MSTORE SWAP1 DUP3 MSTORE PUSH1 0x1 SWAP3 SWAP1 SWAP3 ADD SWAP2 ADD PUSH2 0x1ED2 JUMP JUMPDEST POP POP POP POP SWAP1 POP PUSH1 0x0 JUMPDEST DUP2 MLOAD DUP2 LT ISZERO PUSH2 0x210B JUMPI DUP2 DUP2 DUP2 MLOAD DUP2 LT PUSH2 0x208A JUMPI PUSH2 0x208A PUSH2 0x4C22 JUMP JUMPDEST PUSH1 0x20 MUL PUSH1 0x20 ADD ADD MLOAD PUSH1 0xC0 ADD MLOAD ISZERO PUSH2 0x20F5 JUMPI PUSH1 0x0 DUP3 DUP3 DUP2 MLOAD DUP2 LT PUSH2 0x20AF JUMPI PUSH2 0x20AF PUSH2 0x4C22 JUMP JUMPDEST PUSH1 0x20 MUL PUSH1 0x20 ADD ADD MLOAD PUSH1 0x20 ADD MLOAD PUSH1 0x1 DUP2 GT ISZERO PUSH2 0x20CC JUMPI PUSH2 0x20CC PUSH2 0x46BE JUMP JUMPDEST SUB PUSH2 0x20E3 JUMPI DUP5 PUSH2 0x20DB DUP2 PUSH2 0x4E3A JUMP JUMPDEST SWAP6 POP POP PUSH2 0x2103 JUMP JUMPDEST DUP4 PUSH2 0x20ED DUP2 PUSH2 0x4E3A JUMP JUMPDEST SWAP5 POP POP PUSH2 0x2103 JUMP JUMPDEST DUP3 PUSH2 0x20FF DUP2 PUSH2 0x4E3A JUMP JUMPDEST SWAP4 POP POP JUMPDEST PUSH1 0x1 ADD PUSH2 0x206F JUMP JUMPDEST POP POP SWAP2 SWAP4 SWAP1 SWAP3 POP JUMP JUMPDEST PUSH1 0xF PUSH1 0x20 MSTORE DUP2 PUSH1 0x0 MSTORE PUSH1 0x40 PUSH1 0x0 KECCAK256 DUP2 DUP2 SLOAD DUP2 LT PUSH2 0x7E3 JUMPI PUSH1 0x0 DUP1 REVERT JUMPDEST PUSH1 0x1 PUSH1 0x1 PUSH1 0xA0 SHL SUB DUP2 AND PUSH1 0x0 SWAP1 DUP2 MSTORE PUSH1 0x3 PUSH1 0x20 SWAP1 DUP2 MSTORE PUSH1 0x40 DUP1 DUP4 KECCAK256 DUP1 SLOAD DUP3 MLOAD DUP2 DUP6 MUL DUP2 ADD DUP6 ADD SWAP1 SWAP4 MSTORE DUP1 DUP4 MSTORE DUP5 SWAP4 DUP5 SWAP4 SWAP3 SWAP2 SWAP1 DUP5 SWAP1 DUP5 ADD JUMPDEST DUP3 DUP3 LT ISZERO PUSH2 0x2214 JUMPI DUP4 DUP3 SWAP1 PUSH1 0x0 MSTORE PUSH1 0x20 PUSH1 0x0 KECCAK256 ADD DUP1 SLOAD PUSH2 0x2187 SWAP1 PUSH2 0x4B9F JUMP JUMPDEST DUP1 PUSH1 0x1F ADD PUSH1 0x20 DUP1 SWAP2 DIV MUL PUSH1 0x20 ADD PUSH1 0x40 MLOAD SWAP1 DUP2 ADD PUSH1 0x40 MSTORE DUP1 SWAP3 SWAP2 SWAP1 DUP2 DUP2 MSTORE PUSH1 0x20 ADD DUP3 DUP1 SLOAD PUSH2 0x21B3 SWAP1 PUSH2 0x4B9F JUMP JUMPDEST DUP1 ISZERO PUSH2 0x2200 JUMPI DUP1 PUSH1 0x1F LT PUSH2 0x21D5 JUMPI PUSH2 0x100 DUP1 DUP4 SLOAD DIV MUL DUP4 MSTORE SWAP2 PUSH1 0x20 ADD SWAP2 PUSH2 0x2200 JUMP JUMPDEST DUP3 ADD SWAP2 SWAP1 PUSH1 0x0 MSTORE PUSH1 0x20 PUSH1 0x0 KECCAK256 SWAP1 JUMPDEST DUP2 SLOAD DUP2 MSTORE SWAP1 PUSH1 0x1 ADD SWAP1 PUSH1 0x20 ADD DUP1 DUP4 GT PUSH2 0x21E3 JUMPI DUP3 SWAP1 SUB PUSH1 0x1F AND DUP3 ADD SWAP2 JUMPDEST POP POP POP POP POP DUP2 MSTORE PUSH1 0x20 ADD SWAP1 PUSH1 0x1 ADD SWAP1 PUSH2 0x2168 JUMP JUMPDEST POP POP POP POP SWAP1 POP DUP1 MLOAD SWAP3 POP PUSH1 0x0 SWAP2 POP PUSH1 0x0 JUMPDEST DUP2 MLOAD DUP2 LT ISZERO PUSH2 0x2288 JUMPI PUSH1 0x2 DUP3 DUP3 DUP2 MLOAD DUP2 LT PUSH2 0x2242 JUMPI PUSH2 0x2242 PUSH2 0x4C22 JUMP JUMPDEST PUSH1 0x20 MUL PUSH1 0x20 ADD ADD MLOAD PUSH1 0x40 MLOAD PUSH2 0x2257 SWAP2 SWAP1 PUSH2 0x4BD9 JUMP JUMPDEST SWAP1 DUP2 MSTORE PUSH1 0x40 MLOAD SWAP1 DUP2 SWAP1 SUB PUSH1 0x20 ADD SWAP1 KECCAK256 PUSH1 0x6 ADD SLOAD PUSH1 0xFF AND ISZERO PUSH2 0x2280 JUMPI DUP3 PUSH2 0x227C DUP2 PUSH2 0x4E3A JUMP JUMPDEST SWAP4 POP POP JUMPDEST PUSH1 0x1 ADD PUSH2 0x2225 JUMP JUMPDEST POP POP SWAP2 POP SWAP2 JUMP JUMPDEST PUSH1 0x1 SLOAD PUSH1 0x1 PUSH1 0x1 PUSH1 0xA0 SHL SUB AND CALLER EQ PUSH2 0x22D6 JUMPI PUSH1 0x40 MLOAD PUSH3 0x461BCD PUSH1 0xE5 SHL DUP2 MSTORE PUSH1 0x20 PUSH1 0x4 DUP3 ADD MSTORE PUSH1 0xA PUSH1 0x24 DUP3 ADD MSTORE PUSH10 0x27B7363C9030B236B4B7 PUSH1 0xB1 SHL PUSH1 0x44 DUP3 ADD MSTORE PUSH1 0x64 ADD PUSH2 0x8CA JUMP JUMPDEST PUSH1 0x1 PUSH1 0x1 PUSH1 0xA0 SHL SUB DUP2 AND PUSH2 0x231E JUMPI PUSH1 0x40 MLOAD PUSH3 0x461BCD PUSH1 0xE5 SHL DUP2 MSTORE PUSH1 0x20 PUSH1 0x4 DUP3 ADD MSTORE PUSH1 0xF PUSH1 0x24 DUP3 ADD MSTORE PUSH15 0x496E76616C69642061646472657373 PUSH1 0x88 SHL PUSH1 0x44 DUP3 ADD MSTORE PUSH1 0x64 ADD PUSH2 0x8CA JUMP JUMPDEST PUSH1 0x1 SLOAD PUSH1 0x40 MLOAD TIMESTAMP DUP2 MSTORE PUSH1 0x1 PUSH1 0x1 PUSH1 0xA0 SHL SUB DUP4 DUP2 AND SWAP3 AND SWAP1 PUSH32 0x38DF5FA0F7FEF0D515CA1F5388CB5790AC5885D5FCA8D05D9F943E563C33A4B3 SWAP1 PUSH1 0x20 ADD PUSH1 0x40 MLOAD DUP1 SWAP2 SUB SWAP1 LOG3 PUSH1 0x1 DUP1 SLOAD PUSH1 0x1 PUSH1 0x1 PUSH1 0xA0 SHL SUB NOT AND PUSH1 0x1 PUSH1 0x1 PUSH1 0xA0 SHL SUB SWAP3 SWAP1 SWAP3 AND SWAP2 SWAP1 SWAP2 OR SWAP1 SSTORE JUMP JUMPDEST DUP1 MLOAD PUSH1 0x20 DUP2 DUP4 ADD DUP2 ADD DUP1 MLOAD PUSH1 0x6 DUP3 MSTORE SWAP3 DUP3 ADD SWAP2 SWAP1 SWAP4 ADD KECCAK256 SWAP2 MSTORE DUP1 SLOAD DUP2 SWAP1 PUSH2 0x23AA SWAP1 PUSH2 0x4B9F JUMP JUMPDEST DUP1 PUSH1 0x1F ADD PUSH1 0x20 DUP1 SWAP2 DIV MUL PUSH1 0x20 ADD PUSH1 0x40 MLOAD SWAP1 DUP2 ADD PUSH1 0x40 MSTORE DUP1 SWAP3 SWAP2 SWAP1 DUP2 DUP2 MSTORE PUSH1 0x20 ADD DUP3 DUP1 SLOAD PUSH2 0x23D6 SWAP1 PUSH2 0x4B9F JUMP JUMPDEST DUP1 ISZERO PUSH2 0x2423 JUMPI DUP1 PUSH1 0x1F LT PUSH2 0x23F8 JUMPI PUSH2 0x100 DUP1 DUP4 SLOAD DIV MUL DUP4 MSTORE SWAP2 PUSH1 0x20 ADD SWAP2 PUSH2 0x2423 JUMP JUMPDEST DUP3 ADD SWAP2 SWAP1 PUSH1 0x0 MSTORE PUSH1 0x20 PUSH1 0x0 KECCAK256 SWAP1 JUMPDEST DUP2 SLOAD DUP2 MSTORE SWAP1 PUSH1 0x1 ADD SWAP1 PUSH1 0x20 ADD DUP1 DUP4 GT PUSH2 0x2406 JUMPI DUP3 SWAP1 SUB PUSH1 0x1F AND DUP3 ADD SWAP2 JUMPDEST POP POP POP POP POP SWAP1 DUP1 PUSH1 0x1 ADD DUP1 SLOAD PUSH2 0x2438 SWAP1 PUSH2 0x4B9F JUMP JUMPDEST DUP1 PUSH1 0x1F ADD PUSH1 0x20 DUP1 SWAP2 DIV MUL PUSH1 0x20 ADD PUSH1 0x40 MLOAD SWAP1 DUP2 ADD PUSH1 0x40 MSTORE DUP1 SWAP3 SWAP2 SWAP1 DUP2 DUP2 MSTORE PUSH1 0x20 ADD DUP3 DUP1 SLOAD PUSH2 0x2464 SWAP1 PUSH2 0x4B9F JUMP JUMPDEST DUP1 ISZERO PUSH2 0x24B1 JUMPI DUP1 PUSH1 0x1F LT PUSH2 0x2486 JUMPI PUSH2 0x100 DUP1 DUP4 SLOAD DIV MUL DUP4 MSTORE SWAP2 PUSH1 0x20 ADD SWAP2 PUSH2 0x24B1 JUMP JUMPDEST DUP3 ADD SWAP2 SWAP1 PUSH1 0x0 MSTORE PUSH1 0x20 PUSH1 0x0 KECCAK256 SWAP1 JUMPDEST DUP2 SLOAD DUP2 MSTORE SWAP1 PUSH1 0x1 ADD SWAP1 PUSH1 0x20 ADD DUP1 DUP4 GT PUSH2 0x2494 JUMPI DUP3 SWAP1 SUB PUSH1 0x1F AND DUP3 ADD SWAP2 JUMPDEST POP POP POP POP PUSH1 0x2 DUP4 ADD SLOAD PUSH1 0x3 DUP5 ADD SLOAD PUSH1 0x4 SWAP1 SWAP5 ADD SLOAD SWAP3 SWAP4 PUSH1 0x1 PUSH1 0x1 PUSH1 0xA0 SHL SUB SWAP2 DUP3 AND SWAP4 SWAP1 SWAP3 POP SWAP1 DUP2 AND SWAP1 PUSH1 0x1 PUSH1 0xA0 SHL SWAP1 DIV PUSH1 0xFF AND DUP7 JUMP JUMPDEST PUSH1 0x60 PUSH1 0x8 DUP3 PUSH1 0x40 MLOAD PUSH2 0x24F9 SWAP2 SWAP1 PUSH2 0x4BD9 JUMP JUMPDEST SWAP1 DUP2 MSTORE PUSH1 0x20 ADD PUSH1 0x40 MLOAD DUP1 SWAP2 SUB SWAP1 KECCAK256 DUP1 SLOAD DUP1 PUSH1 0x20 MUL PUSH1 0x20 ADD PUSH1 0x40 MLOAD SWAP1 DUP2 ADD PUSH1 0x40 MSTORE DUP1 SWAP3 SWAP2 SWAP1 DUP2 DUP2 MSTORE PUSH1 0x20 ADD PUSH1 0x0 SWAP1 JUMPDEST DUP3 DUP3 LT ISZERO PUSH2 0xD2A JUMPI DUP4 DUP3 SWAP1 PUSH1 0x0 MSTORE PUSH1 0x20 PUSH1 0x0 KECCAK256 ADD DUP1 SLOAD PUSH2 0x2546 SWAP1 PUSH2 0x4B9F JUMP JUMPDEST DUP1 PUSH1 0x1F ADD PUSH1 0x20 DUP1 SWAP2 DIV MUL PUSH1 0x20 ADD PUSH1 0x40 MLOAD SWAP1 DUP2 ADD PUSH1 0x40 MSTORE DUP1 SWAP3 SWAP2 SWAP1 DUP2 DUP2 MSTORE PUSH1 0x20 ADD DUP3 DUP1 SLOAD PUSH2 0x2572 SWAP1 PUSH2 0x4B9F JUMP JUMPDEST DUP1 ISZERO PUSH2 0x25BF JUMPI DUP1 PUSH1 0x1F LT PUSH2 0x2594 JUMPI PUSH2 0x100 DUP1 DUP4 SLOAD DIV MUL DUP4 MSTORE SWAP2 PUSH1 0x20 ADD SWAP2 PUSH2 0x25BF JUMP JUMPDEST DUP3 ADD SWAP2 SWAP1 PUSH1 0x0 MSTORE PUSH1 0x20 PUSH1 0x0 KECCAK256 SWAP1 JUMPDEST DUP2 SLOAD DUP2 MSTORE SWAP1 PUSH1 0x1 ADD SWAP1 PUSH1 0x20 ADD DUP1 DUP4 GT PUSH2 0x25A2 JUMPI DUP3 SWAP1 SUB PUSH1 0x1F AND DUP3 ADD SWAP2 JUMPDEST POP POP POP POP POP DUP2 MSTORE PUSH1 0x20 ADD SWAP1 PUSH1 0x1 ADD SWAP1 PUSH2 0x2527 JUMP JUMPDEST PUSH1 0x1 PUSH1 0x1 PUSH1 0xA0 SHL SUB DUP2 AND PUSH1 0x0 SWAP1 DUP2 MSTORE PUSH1 0x3 PUSH1 0x20 SWAP1 DUP2 MSTORE PUSH1 0x40 DUP1 DUP4 KECCAK256 DUP1 SLOAD DUP3 MLOAD DUP2 DUP6 MUL DUP2 ADD DUP6 ADD SWAP1 SWAP4 MSTORE DUP1 DUP4 MSTORE PUSH1 0x60 SWAP5 SWAP3 SWAP4 SWAP2 SWAP3 SWAP1 SWAP2 DUP5 ADD JUMPDEST DUP3 DUP3 LT ISZERO PUSH2 0xD2A JUMPI DUP4 DUP3 SWAP1 PUSH1 0x0 MSTORE PUSH1 0x20 PUSH1 0x0 KECCAK256 ADD DUP1 SLOAD PUSH2 0x262A SWAP1 PUSH2 0x4B9F JUMP JUMPDEST DUP1 PUSH1 0x1F ADD PUSH1 0x20 DUP1 SWAP2 DIV MUL PUSH1 0x20 ADD PUSH1 0x40 MLOAD SWAP1 DUP2 ADD PUSH1 0x40 MSTORE DUP1 SWAP3 SWAP2 SWAP1 DUP2 DUP2 MSTORE PUSH1 0x20 ADD DUP3 DUP1 SLOAD PUSH2 0x2656 SWAP1 PUSH2 0x4B9F JUMP JUMPDEST DUP1 ISZERO PUSH2 0x26A3 JUMPI DUP1 PUSH1 0x1F LT PUSH2 0x2678 JUMPI PUSH2 0x100 DUP1 DUP4 SLOAD DIV MUL DUP4 MSTORE SWAP2 PUSH1 0x20 ADD SWAP2 PUSH2 0x26A3 JUMP JUMPDEST DUP3 ADD SWAP2 SWAP1 PUSH1 0x0 MSTORE PUSH1 0x20 PUSH1 0x0 KECCAK256 SWAP1 JUMPDEST DUP2 SLOAD DUP2 MSTORE SWAP1 PUSH1 0x1 ADD SWAP1 PUSH1 0x20 ADD DUP1 DUP4 GT PUSH2 0x2686 JUMPI DUP3 SWAP1 SUB PUSH1 0x1F AND DUP3 ADD SWAP2 JUMPDEST POP POP POP POP POP DUP2 MSTORE PUSH1 0x20 ADD SWAP1 PUSH1 0x1 ADD SWAP1 PUSH2 0x260B JUMP JUMPDEST DUP2 MLOAD PUSH1 0x20 DUP2 DUP5 ADD DUP2 ADD DUP1 MLOAD PUSH1 0xA DUP3 MSTORE SWAP3 DUP3 ADD SWAP2 DUP6 ADD SWAP2 SWAP1 SWAP2 KECCAK256 SWAP2 SWAP1 MSTORE DUP1 SLOAD DUP3 SWAP1 DUP2 LT PUSH2 0x26E2 JUMPI PUSH1 0x0 DUP1 REVERT JUMPDEST PUSH1 0x0 SWAP2 DUP3 MSTORE PUSH1 0x20 SWAP1 SWAP2 KECCAK256 PUSH1 0x4 SWAP1 SWAP2 MUL ADD DUP1 SLOAD PUSH1 0x1 DUP3 ADD SLOAD PUSH1 0x2 DUP4 ADD DUP1 SLOAD PUSH1 0x1 PUSH1 0x1 PUSH1 0xA0 SHL SUB DUP5 AND SWAP7 POP PUSH1 0xFF PUSH1 0x1 PUSH1 0xA0 SHL DUP6 DIV DUP2 AND SWAP7 POP PUSH1 0x1 PUSH1 0xA8 SHL DUP6 DIV DUP2 AND SWAP6 PUSH1 0x1 PUSH1 0xB0 SHL SWAP1 SWAP6 DIV AND SWAP4 SWAP2 SWAP1 PUSH2 0x2737 SWAP1 PUSH2 0x4B9F JUMP JUMPDEST DUP1 PUSH1 0x1F ADD PUSH1 0x20 DUP1 SWAP2 DIV MUL PUSH1 0x20 ADD PUSH1 0x40 MLOAD SWAP1 DUP2 ADD PUSH1 0x40 MSTORE DUP1 SWAP3 SWAP2 SWAP1 DUP2 DUP2 MSTORE PUSH1 0x20 ADD DUP3 DUP1 SLOAD PUSH2 0x2763 SWAP1 PUSH2 0x4B9F JUMP JUMPDEST DUP1 ISZERO PUSH2 0x27B0 JUMPI DUP1 PUSH1 0x1F LT PUSH2 0x2785 JUMPI PUSH2 0x100 DUP1 DUP4 SLOAD DIV MUL DUP4 MSTORE SWAP2 PUSH1 0x20 ADD SWAP2 PUSH2 0x27B0 JUMP JUMPDEST DUP3 ADD SWAP2 SWAP1 PUSH1 0x0 MSTORE PUSH1 0x20 PUSH1 0x0 KECCAK256 SWAP1 JUMPDEST DUP2 SLOAD DUP2 MSTORE SWAP1 PUSH1 0x1 ADD SWAP1 PUSH1 0x20 ADD DUP1 DUP4 GT PUSH2 0x2793 JUMPI DUP3 SWAP1 SUB PUSH1 0x1F AND DUP3 ADD SWAP2 JUMPDEST POP POP POP PUSH1 0x3 SWAP1 SWAP4 ADD SLOAD SWAP2 SWAP3 POP POP PUSH1 0xFF AND DUP8 JUMP JUMPDEST PUSH1 0x0 SLOAD PUSH1 0x40 MLOAD PUSH4 0x45ECD02F PUSH1 0xE0 SHL DUP2 MSTORE CALLER PUSH1 0x4 DUP3 ADD MSTORE PUSH1 0x1 PUSH1 0x1 PUSH1 0xA0 SHL SUB SWAP1 SWAP2 AND SWAP1 PUSH4 0x45ECD02F SWAP1 PUSH1 0x24 ADD PUSH1 0x20 PUSH1 0x40 MLOAD DUP1 DUP4 SUB DUP2 DUP7 GAS STATICCALL ISZERO DUP1 ISZERO PUSH2 0x280B JUMPI RETURNDATASIZE PUSH1 0x0 DUP1 RETURNDATACOPY RETURNDATASIZE PUSH1 0x0 REVERT JUMPDEST POP POP POP POP PUSH1 0x40 MLOAD RETURNDATASIZE PUSH1 0x1F NOT PUSH1 0x1F DUP3 ADD AND DUP3 ADD DUP1 PUSH1 0x40 MSTORE POP DUP2 ADD SWAP1 PUSH2 0x282F SWAP2 SWAP1 PUSH2 0x4C7D JUMP JUMPDEST PUSH2 0x2872 JUMPI PUSH1 0x40 MLOAD PUSH3 0x461BCD PUSH1 0xE5 SHL DUP2 MSTORE PUSH1 0x20 PUSH1 0x4 DUP3 ADD MSTORE PUSH1 0x14 PUSH1 0x24 DUP3 ADD MSTORE PUSH20 0x2737BA1030B71030B1BA34BB329036B2B6B132B9 PUSH1 0x61 SHL PUSH1 0x44 DUP3 ADD MSTORE PUSH1 0x64 ADD PUSH2 0x8CA JUMP JUMPDEST PUSH1 0x6 DUP4 PUSH1 0x40 MLOAD PUSH2 0x2882 SWAP2 SWAP1 PUSH2 0x4BD9 JUMP JUMPDEST SWAP1 DUP2 MSTORE PUSH1 0x40 MLOAD SWAP1 DUP2 SWAP1 SUB PUSH1 0x20 ADD SWAP1 KECCAK256 PUSH1 0x4 ADD SLOAD PUSH1 0xFF PUSH1 0x1 PUSH1 0xA0 SHL SWAP1 SWAP2 DIV AND PUSH2 0x28BC JUMPI PUSH1 0x40 MLOAD PUSH3 0x461BCD PUSH1 0xE5 SHL DUP2 MSTORE PUSH1 0x4 ADD PUSH2 0x8CA SWAP1 PUSH2 0x4BF5 JUMP JUMPDEST PUSH1 0xB DUP4 PUSH1 0x40 MLOAD PUSH2 0x28CC SWAP2 SWAP1 PUSH2 0x4BD9 JUMP JUMPDEST SWAP1 DUP2 MSTORE PUSH1 0x40 DUP1 MLOAD PUSH1 0x20 SWAP3 DUP2 SWAP1 SUB DUP4 ADD SWAP1 KECCAK256 PUSH1 0x1 PUSH1 0x1 PUSH1 0xA0 SHL SUB DUP6 AND PUSH1 0x0 SWAP1 DUP2 MSTORE SWAP3 MSTORE SWAP1 KECCAK256 SLOAD PUSH1 0xFF AND PUSH2 0x2940 JUMPI PUSH1 0x40 MLOAD PUSH3 0x461BCD PUSH1 0xE5 SHL DUP2 MSTORE PUSH1 0x20 PUSH1 0x4 DUP3 ADD MSTORE PUSH1 0x1C PUSH1 0x24 DUP3 ADD MSTORE PUSH32 0x4E6F20646973707574652066726F6D2074686973206164647265737300000000 PUSH1 0x44 DUP3 ADD MSTORE PUSH1 0x64 ADD PUSH2 0x8CA JUMP JUMPDEST PUSH1 0x0 PUSH1 0xC DUP5 PUSH1 0x40 MLOAD PUSH2 0x2952 SWAP2 SWAP1 PUSH2 0x4BD9 JUMP JUMPDEST SWAP1 DUP2 MSTORE PUSH1 0x40 DUP1 MLOAD PUSH1 0x20 SWAP3 DUP2 SWAP1 SUB DUP4 ADD DUP2 KECCAK256 PUSH1 0x1 PUSH1 0x1 PUSH1 0xA0 SHL SUB DUP8 AND PUSH1 0x0 SWAP1 DUP2 MSTORE SWAP4 MSTORE SWAP1 DUP3 KECCAK256 SLOAD SWAP3 POP PUSH1 0xA SWAP1 PUSH2 0x2988 SWAP1 DUP8 SWAP1 PUSH2 0x4BD9 JUMP JUMPDEST SWAP1 DUP2 MSTORE PUSH1 0x20 ADD PUSH1 0x40 MLOAD DUP1 SWAP2 SUB SWAP1 KECCAK256 DUP3 DUP2 SLOAD DUP2 LT PUSH2 0x29A7 JUMPI PUSH2 0x29A7 PUSH2 0x4C22 JUMP JUMPDEST PUSH1 0x0 SWAP2 DUP3 MSTORE PUSH1 0x20 SWAP2 DUP3 SWAP1 KECCAK256 PUSH1 0x40 DUP1 MLOAD PUSH1 0xE0 DUP2 ADD SWAP1 SWAP2 MSTORE PUSH1 0x4 SWAP1 SWAP3 MUL ADD DUP1 SLOAD PUSH1 0x1 PUSH1 0x1 PUSH1 0xA0 SHL SUB DUP2 AND DUP4 MSTORE SWAP2 SWAP3 SWAP1 SWAP2 SWAP1 DUP4 ADD SWAP1 PUSH1 0xFF PUSH1 0x1 PUSH1 0xA0 SHL SWAP1 SWAP2 DIV AND PUSH1 0x1 DUP2 GT ISZERO PUSH2 0x29F5 JUMPI PUSH2 0x29F5 PUSH2 0x46BE JUMP JUMPDEST PUSH1 0x1 DUP2 GT ISZERO PUSH2 0x2A06 JUMPI PUSH2 0x2A06 PUSH2 0x46BE JUMP JUMPDEST DUP2 MSTORE DUP2 SLOAD PUSH1 0x20 SWAP1 SWAP2 ADD SWAP1 PUSH1 0x1 PUSH1 0xA8 SHL SWAP1 DIV PUSH1 0xFF AND PUSH1 0x3 DUP2 GT ISZERO PUSH2 0x2A2B JUMPI PUSH2 0x2A2B PUSH2 0x46BE JUMP JUMPDEST PUSH1 0x3 DUP2 GT ISZERO PUSH2 0x2A3C JUMPI PUSH2 0x2A3C PUSH2 0x46BE JUMP JUMPDEST DUP2 MSTORE DUP2 SLOAD PUSH1 0x20 SWAP1 SWAP2 ADD SWAP1 PUSH1 0x1 PUSH1 0xB0 SHL SWAP1 DIV PUSH1 0xFF AND PUSH1 0x5 DUP2 GT ISZERO PUSH2 0x2A61 JUMPI PUSH2 0x2A61 PUSH2 0x46BE JUMP JUMPDEST PUSH1 0x5 DUP2 GT ISZERO PUSH2 0x2A72 JUMPI PUSH2 0x2A72 PUSH2 0x46BE JUMP JUMPDEST DUP2 MSTORE PUSH1 0x20 ADD PUSH1 0x1 DUP3 ADD SLOAD DUP2 MSTORE PUSH1 0x20 ADD PUSH1 0x2 DUP3 ADD DUP1 SLOAD PUSH2 0x2A90 SWAP1 PUSH2 0x4B9F JUMP JUMPDEST DUP1 PUSH1 0x1F ADD PUSH1 0x20 DUP1 SWAP2 DIV MUL PUSH1 0x20 ADD PUSH1 0x40 MLOAD SWAP1 DUP2 ADD PUSH1 0x40 MSTORE DUP1 SWAP3 SWAP2 SWAP1 DUP2 DUP2 MSTORE PUSH1 0x20 ADD DUP3 DUP1 SLOAD PUSH2 0x2ABC SWAP1 PUSH2 0x4B9F JUMP JUMPDEST DUP1 ISZERO PUSH2 0x2B09 JUMPI DUP1 PUSH1 0x1F LT PUSH2 0x2ADE JUMPI PUSH2 0x100 DUP1 DUP4 SLOAD DIV MUL DUP4 MSTORE SWAP2 PUSH1 0x20 ADD SWAP2 PUSH2 0x2B09 JUMP JUMPDEST DUP3 ADD SWAP2 SWAP1 PUSH1 0x0 MSTORE PUSH1 0x20 PUSH1 0x0 KECCAK256 SWAP1 JUMPDEST DUP2 SLOAD DUP2 MSTORE SWAP1 PUSH1 0x1 ADD SWAP1 PUSH1 0x20 ADD DUP1 DUP4 GT PUSH2 0x2AEC JUMPI DUP3 SWAP1 SUB PUSH1 0x1F AND DUP3 ADD SWAP2 JUMPDEST POP POP POP SWAP2 DUP4 MSTORE POP POP PUSH1 0x3 SWAP2 SWAP1 SWAP2 ADD SLOAD PUSH1 0xFF AND ISZERO ISZERO PUSH1 0x20 SWAP1 SWAP2 ADD MSTORE SWAP1 POP PUSH1 0x1 DUP2 PUSH1 0x20 ADD MLOAD PUSH1 0x1 DUP2 GT ISZERO PUSH2 0x2B3D JUMPI PUSH2 0x2B3D PUSH2 0x46BE JUMP JUMPDEST EQ PUSH2 0x2B7A JUMPI PUSH1 0x40 MLOAD PUSH3 0x461BCD PUSH1 0xE5 SHL DUP2 MSTORE PUSH1 0x20 PUSH1 0x4 DUP3 ADD MSTORE PUSH1 0xD PUSH1 0x24 DUP3 ADD MSTORE PUSH13 0x4E6F7420612064697370757465 PUSH1 0x98 SHL PUSH1 0x44 DUP3 ADD MSTORE PUSH1 0x64 ADD PUSH2 0x8CA JUMP JUMPDEST DUP1 PUSH1 0xC0 ADD MLOAD PUSH2 0x2BCB JUMPI PUSH1 0x40 MLOAD PUSH3 0x461BCD PUSH1 0xE5 SHL DUP2 MSTORE PUSH1 0x20 PUSH1 0x4 DUP3 ADD MSTORE PUSH1 0x1A PUSH1 0x24 DUP3 ADD MSTORE PUSH32 0x4469737075746520686173206265656E20726574726163746564000000000000 PUSH1 0x44 DUP3 ADD MSTORE PUSH1 0x64 ADD PUSH2 0x8CA JUMP JUMPDEST PUSH1 0x0 PUSH1 0x6 DUP7 PUSH1 0x40 MLOAD PUSH2 0x2BDD SWAP2 SWAP1 PUSH2 0x4BD9 JUMP JUMPDEST SWAP1 DUP2 MSTORE PUSH1 0x20 ADD PUSH1 0x40 MLOAD DUP1 SWAP2 SUB SWAP1 KECCAK256 PUSH1 0x1 ADD DUP1 SLOAD PUSH2 0x2BF9 SWAP1 PUSH2 0x4B9F JUMP JUMPDEST DUP1 PUSH1 0x1F ADD PUSH1 0x20 DUP1 SWAP2 DIV MUL PUSH1 0x20 ADD PUSH1 0x40 MLOAD SWAP1 DUP2 ADD PUSH1 0x40 MSTORE DUP1 SWAP3 SWAP2 SWAP1 DUP2 DUP2 MSTORE PUSH1 0x20 ADD DUP3 DUP1 SLOAD PUSH2 0x2C25 SWAP1 PUSH2 0x4B9F JUMP JUMPDEST DUP1 ISZERO PUSH2 0x2C72 JUMPI DUP1 PUSH1 0x1F LT PUSH2 0x2C47 JUMPI PUSH2 0x100 DUP1 DUP4 SLOAD DIV MUL DUP4 MSTORE SWAP2 PUSH1 0x20 ADD SWAP2 PUSH2 0x2C72 JUMP JUMPDEST DUP3 ADD SWAP2 SWAP1 PUSH1 0x0 MSTORE PUSH1 0x20 PUSH1 0x0 KECCAK256 SWAP1 JUMPDEST DUP2 SLOAD DUP2 MSTORE SWAP1 PUSH1 0x1 ADD SWAP1 PUSH1 0x20 ADD DUP1 DUP4 GT PUSH2 0x2C55 JUMPI DUP3 SWAP1 SUB PUSH1 0x1F AND DUP3 ADD SWAP2 JUMPDEST POP POP PUSH1 0x0 SLOAD PUSH1 0x40 MLOAD PUSH4 0x286B6AB PUSH1 0xE3 SHL DUP2 MSTORE SWAP5 SWAP6 POP PUSH1 0x1 PUSH1 0x1 PUSH1 0xA0 SHL SUB AND SWAP4 PUSH4 0x1435B558 SWAP4 POP PUSH2 0x2CAA SWAP3 POP DUP6 SWAP2 POP CALLER SWAP1 PUSH1 0x4 ADD PUSH2 0x4CC9 JUMP JUMPDEST PUSH1 0x20 PUSH1 0x40 MLOAD DUP1 DUP4 SUB DUP2 DUP7 GAS STATICCALL ISZERO DUP1 ISZERO PUSH2 0x2CC7 JUMPI RETURNDATASIZE PUSH1 0x0 DUP1 RETURNDATACOPY RETURNDATASIZE PUSH1 0x0 REVERT JUMPDEST POP POP POP POP PUSH1 0x40 MLOAD RETURNDATASIZE PUSH1 0x1F NOT PUSH1 0x1F DUP3 ADD AND DUP3 ADD DUP1 PUSH1 0x40 MSTORE POP DUP2 ADD SWAP1 PUSH2 0x2CEB SWAP2 SWAP1 PUSH2 0x4C7D JUMP JUMPDEST PUSH2 0x2D07 JUMPI PUSH1 0x40 MLOAD PUSH3 0x461BCD PUSH1 0xE5 SHL DUP2 MSTORE PUSH1 0x4 ADD PUSH2 0x8CA SWAP1 PUSH2 0x4CF3 JUMP JUMPDEST PUSH1 0x1 PUSH1 0x1 PUSH1 0xA0 SHL SUB DUP6 AND CALLER SUB PUSH2 0x2D5F JUMPI PUSH1 0x40 MLOAD PUSH3 0x461BCD PUSH1 0xE5 SHL DUP2 MSTORE PUSH1 0x20 PUSH1 0x4 DUP3 ADD DUP2 SWAP1 MSTORE PUSH1 0x24 DUP3 ADD MSTORE PUSH32 0x43616E6E6F7420726561637420746F20796F7572206F776E2064697370757465 PUSH1 0x44 DUP3 ADD MSTORE PUSH1 0x64 ADD PUSH2 0x8CA JUMP JUMPDEST PUSH1 0xE DUP7 PUSH1 0x40 MLOAD PUSH2 0x2D6F SWAP2 SWAP1 PUSH2 0x4BD9 JUMP JUMPDEST SWAP1 DUP2 MSTORE PUSH1 0x40 DUP1 MLOAD PUSH1 0x20 SWAP3 DUP2 SWAP1 SUB DUP4 ADD SWAP1 KECCAK256 PUSH1 0x1 PUSH1 0x1 PUSH1 0xA0 SHL SUB DUP9 AND PUSH1 0x0 SWAP1 DUP2 MSTORE SWAP1 DUP4 MSTORE DUP2 DUP2 KECCAK256 CALLER DUP3 MSTORE SWAP1 SWAP3 MSTORE SWAP1 KECCAK256 SLOAD PUSH1 0xFF AND ISZERO PUSH2 0x2DEE JUMPI PUSH1 0x40 MLOAD PUSH3 0x461BCD PUSH1 0xE5 SHL DUP2 MSTORE PUSH1 0x20 PUSH1 0x4 DUP3 ADD MSTORE PUSH1 0x1F PUSH1 0x24 DUP3 ADD MSTORE PUSH32 0x416C7265616479207265616374656420746F2074686973206469737075746500 PUSH1 0x44 DUP3 ADD MSTORE PUSH1 0x64 ADD PUSH2 0x8CA JUMP JUMPDEST PUSH1 0xD DUP7 PUSH1 0x40 MLOAD PUSH2 0x2DFE SWAP2 SWAP1 PUSH2 0x4BD9 JUMP JUMPDEST SWAP1 DUP2 MSTORE PUSH1 0x40 DUP1 MLOAD SWAP2 DUP3 SWAP1 SUB PUSH1 0x20 SWAP1 DUP2 ADD DUP4 KECCAK256 PUSH1 0x1 PUSH1 0x1 PUSH1 0xA0 SHL SUB DUP1 DUP11 AND PUSH1 0x0 SWAP1 DUP2 MSTORE SWAP2 DUP4 MSTORE DUP4 DUP3 KECCAK256 PUSH1 0x60 DUP7 ADD DUP6 MSTORE CALLER DUP7 MSTORE DUP10 ISZERO ISZERO DUP7 DUP6 ADD SWAP1 DUP2 MSTORE TIMESTAMP DUP8 DUP8 ADD SWAP1 DUP2 MSTORE DUP3 SLOAD PUSH1 0x1 DUP2 DUP2 ADD DUP6 SSTORE SWAP4 DUP7 MSTORE SWAP6 SWAP1 SWAP5 KECCAK256 SWAP7 MLOAD PUSH1 0x2 SWAP1 SWAP6 MUL SWAP1 SWAP7 ADD DUP1 SLOAD SWAP7 MLOAD ISZERO ISZERO PUSH1 0x1 PUSH1 0xA0 SHL MUL PUSH1 0x1 PUSH1 0x1 PUSH1 0xA8 SHL SUB NOT SWAP1 SWAP8 AND SWAP5 SWAP1 SWAP3 AND SWAP4 SWAP1 SWAP4 OR SWAP5 SWAP1 SWAP5 OR DUP5 SSTORE MLOAD SWAP3 DUP2 ADD SWAP3 SWAP1 SWAP3 SSTORE MLOAD PUSH1 0xE SWAP1 PUSH2 0x2E96 SWAP1 DUP10 SWAP1 PUSH2 0x4BD9 JUMP JUMPDEST SWAP1 DUP2 MSTORE PUSH1 0x40 DUP1 MLOAD PUSH1 0x20 SWAP3 DUP2 SWAP1 SUB DUP4 ADD DUP2 KECCAK256 PUSH1 0x1 PUSH1 0x1 PUSH1 0xA0 SHL SUB DUP11 AND PUSH1 0x0 DUP2 DUP2 MSTORE SWAP2 DUP6 MSTORE DUP4 DUP3 KECCAK256 CALLER DUP1 DUP5 MSTORE SWAP6 MSTORE SWAP3 SWAP1 KECCAK256 DUP1 SLOAD PUSH1 0xFF NOT AND SWAP5 ISZERO ISZERO SWAP5 SWAP1 SWAP5 OR SWAP1 SWAP4 SSTORE SWAP2 PUSH2 0x2EE1 SWAP1 DUP10 SWAP1 PUSH2 0x4BD9 JUMP JUMPDEST PUSH1 0x40 DUP1 MLOAD SWAP2 DUP3 SWAP1 SUB DUP3 KECCAK256 DUP9 ISZERO ISZERO DUP4 MSTORE TIMESTAMP PUSH1 0x20 DUP5 ADD MSTORE SWAP2 PUSH32 0xAD3ED72FFD0DE1372034654A13D68AAF09E3980D9FD90226D703B6CE84BEC0D8 SWAP2 ADD PUSH1 0x40 MLOAD DUP1 SWAP2 SUB SWAP1 LOG4 POP POP POP POP POP POP JUMP JUMPDEST PUSH1 0x7 PUSH1 0x20 MSTORE DUP2 PUSH1 0x0 MSTORE PUSH1 0x40 PUSH1 0x0 KECCAK256 DUP2 DUP2 SLOAD DUP2 LT PUSH2 0x7E3 JUMPI PUSH1 0x0 DUP1 REVERT JUMPDEST PUSH1 0x0 DUP1 PUSH1 0x0 PUSH1 0x60 PUSH1 0x0 PUSH1 0xB DUP8 PUSH1 0x40 MLOAD PUSH2 0x2F5F SWAP2 SWAP1 PUSH2 0x4BD9 JUMP JUMPDEST SWAP1 DUP2 MSTORE PUSH1 0x40 DUP1 MLOAD PUSH1 0x20 SWAP3 DUP2 SWAP1 SUB DUP4 ADD SWAP1 KECCAK256 PUSH1 0x1 PUSH1 0x1 PUSH1 0xA0 SHL SUB DUP10 AND PUSH1 0x0 SWAP1 DUP2 MSTORE SWAP3 MSTORE SWAP1 KECCAK256 SLOAD PUSH1 0xFF AND PUSH2 0x2FAB JUMPI POP POP PUSH1 0x40 DUP1 MLOAD PUSH1 0x20 DUP2 ADD SWAP1 SWAP2 MSTORE PUSH1 0x0 DUP1 DUP3 MSTORE SWAP4 POP DUP4 SWAP3 POP DUP3 SWAP2 POP DUP2 PUSH2 0x31B2 JUMP JUMPDEST PUSH1 0x0 PUSH1 0xC DUP9 PUSH1 0x40 MLOAD PUSH2 0x2FBD SWAP2 SWAP1 PUSH2 0x4BD9 JUMP JUMPDEST SWAP1 DUP2 MSTORE PUSH1 0x40 DUP1 MLOAD PUSH1 0x20 SWAP3 DUP2 SWAP1 SUB DUP4 ADD DUP2 KECCAK256 PUSH1 0x1 PUSH1 0x1 PUSH1 0xA0 SHL SUB DUP12 AND PUSH1 0x0 SWAP1 DUP2 MSTORE SWAP4 MSTORE SWAP1 DUP3 KECCAK256 SLOAD SWAP3 POP PUSH1 0xA SWAP1 PUSH2 0x2FF3 SWAP1 DUP12 SWAP1 PUSH2 0x4BD9 JUMP JUMPDEST SWAP1 DUP2 MSTORE PUSH1 0x20 ADD PUSH1 0x40 MLOAD DUP1 SWAP2 SUB SWAP1 KECCAK256 DUP3 DUP2 SLOAD DUP2 LT PUSH2 0x3012 JUMPI PUSH2 0x3012 PUSH2 0x4C22 JUMP JUMPDEST PUSH1 0x0 SWAP2 DUP3 MSTORE PUSH1 0x20 SWAP2 DUP3 SWAP1 KECCAK256 PUSH1 0x40 DUP1 MLOAD PUSH1 0xE0 DUP2 ADD SWAP1 SWAP2 MSTORE PUSH1 0x4 SWAP1 SWAP3 MUL ADD DUP1 SLOAD PUSH1 0x1 PUSH1 0x1 PUSH1 0xA0 SHL SUB DUP2 AND DUP4 MSTORE SWAP2 SWAP3 SWAP1 SWAP2 SWAP1 DUP4 ADD SWAP1 PUSH1 0xFF PUSH1 0x1 PUSH1 0xA0 SHL SWAP1 SWAP2 DIV AND PUSH1 0x1 DUP2 GT ISZERO PUSH2 0x3060 JUMPI PUSH2 0x3060 PUSH2 0x46BE JUMP JUMPDEST PUSH1 0x1 DUP2 GT ISZERO PUSH2 0x3071 JUMPI PUSH2 0x3071 PUSH2 0x46BE JUMP JUMPDEST DUP2 MSTORE DUP2 SLOAD PUSH1 0x20 SWAP1 SWAP2 ADD SWAP1 PUSH1 0x1 PUSH1 0xA8 SHL SWAP1 DIV PUSH1 0xFF AND PUSH1 0x3 DUP2 GT ISZERO PUSH2 0x3096 JUMPI PUSH2 0x3096 PUSH2 0x46BE JUMP JUMPDEST PUSH1 0x3 DUP2 GT ISZERO PUSH2 0x30A7 JUMPI PUSH2 0x30A7 PUSH2 0x46BE JUMP JUMPDEST DUP2 MSTORE DUP2 SLOAD PUSH1 0x20 SWAP1 SWAP2 ADD SWAP1 PUSH1 0x1 PUSH1 0xB0 SHL SWAP1 DIV PUSH1 0xFF AND PUSH1 0x5 DUP2 GT ISZERO PUSH2 0x30CC JUMPI PUSH2 0x30CC PUSH2 0x46BE JUMP JUMPDEST PUSH1 0x5 DUP2 GT ISZERO PUSH2 0x30DD JUMPI PUSH2 0x30DD PUSH2 0x46BE JUMP JUMPDEST DUP2 MSTORE PUSH1 0x20 ADD PUSH1 0x1 DUP3 ADD SLOAD DUP2 MSTORE PUSH1 0x20 ADD PUSH1 0x2 DUP3 ADD DUP1 SLOAD PUSH2 0x30FB SWAP1 PUSH2 0x4B9F JUMP JUMPDEST DUP1 PUSH1 0x1F ADD PUSH1 0x20 DUP1 SWAP2 DIV MUL PUSH1 0x20 ADD PUSH1 0x40 MLOAD SWAP1 DUP2 ADD PUSH1 0x40 MSTORE DUP1 SWAP3 SWAP2 SWAP1 DUP2 DUP2 MSTORE PUSH1 0x20 ADD DUP3 DUP1 SLOAD PUSH2 0x3127 SWAP1 PUSH2 0x4B9F JUMP JUMPDEST DUP1 ISZERO PUSH2 0x3174 JUMPI DUP1 PUSH1 0x1F LT PUSH2 0x3149 JUMPI PUSH2 0x100 DUP1 DUP4 SLOAD DIV MUL DUP4 MSTORE SWAP2 PUSH1 0x20 ADD SWAP2 PUSH2 0x3174 JUMP JUMPDEST DUP3 ADD SWAP2 SWAP1 PUSH1 0x0 MSTORE PUSH1 0x20 PUSH1 0x0 KECCAK256 SWAP1 JUMPDEST DUP2 SLOAD DUP2 MSTORE SWAP1 PUSH1 0x1 ADD SWAP1 PUSH1 0x20 ADD DUP1 DUP4 GT PUSH2 0x3157 JUMPI DUP3 SWAP1 SUB PUSH1 0x1F AND DUP3 ADD SWAP2 JUMPDEST POP POP POP SWAP2 DUP4 MSTORE POP POP PUSH1 0x3 SWAP2 SWAP1 SWAP2 ADD SLOAD PUSH1 0xFF AND ISZERO ISZERO PUSH1 0x20 SWAP2 DUP3 ADD MSTORE DUP2 ADD MLOAD PUSH1 0x80 DUP3 ADD MLOAD PUSH1 0xA0 DUP4 ADD MLOAD PUSH1 0xC0 SWAP1 SWAP4 ADD MLOAD PUSH1 0x1 SWAP11 POP SWAP2 SWAP9 POP SWAP7 POP SWAP1 SWAP5 POP SWAP3 POP POP POP JUMPDEST SWAP3 SWAP6 POP SWAP3 SWAP6 SWAP1 SWAP4 POP JUMP JUMPDEST PUSH1 0x0 PUSH1 0x6 DUP3 PUSH1 0x40 MLOAD PUSH2 0x31CE SWAP2 SWAP1 PUSH2 0x4BD9 JUMP JUMPDEST SWAP1 DUP2 MSTORE PUSH1 0x40 MLOAD SWAP1 DUP2 SWAP1 SUB PUSH1 0x20 ADD SWAP1 KECCAK256 PUSH1 0x4 ADD SLOAD PUSH1 0xFF PUSH1 0x1 PUSH1 0xA0 SHL SWAP1 SWAP2 DIV AND PUSH2 0x3230 JUMPI PUSH1 0x40 MLOAD PUSH3 0x461BCD PUSH1 0xE5 SHL DUP2 MSTORE PUSH1 0x20 PUSH1 0x4 DUP3 ADD MSTORE PUSH1 0x15 PUSH1 0x24 DUP3 ADD MSTORE PUSH21 0x149958DBDC9908191BD95CC81B9BDD08195E1A5CDD PUSH1 0x5A SHL PUSH1 0x44 DUP3 ADD MSTORE PUSH1 0x64 ADD PUSH2 0x8CA JUMP JUMPDEST PUSH1 0x6 DUP3 PUSH1 0x40 MLOAD PUSH2 0x3240 SWAP2 SWAP1 PUSH2 0x4BD9 JUMP JUMPDEST SWAP1 DUP2 MSTORE PUSH1 0x40 MLOAD SWAP1 DUP2 SWAP1 SUB PUSH1 0x20 ADD SWAP1 KECCAK256 PUSH1 0x2 ADD SLOAD PUSH1 0x1 PUSH1 0x1 PUSH1 0xA0 SHL SUB AND SWAP3 SWAP2 POP POP JUMP JUMPDEST PUSH1 0xB DUP2 PUSH1 0x40 MLOAD PUSH2 0x3272 SWAP2 SWAP1 PUSH2 0x4BD9 JUMP JUMPDEST SWAP1 DUP2 MSTORE PUSH1 0x40 DUP1 MLOAD PUSH1 0x20 SWAP3 DUP2 SWAP1 SUB DUP4 ADD SWAP1 KECCAK256 CALLER PUSH1 0x0 SWAP1 DUP2 MSTORE SWAP3 MSTORE SWAP1 KECCAK256 SLOAD PUSH1 0xFF AND PUSH2 0x32D4 JUMPI PUSH1 0x40 MLOAD PUSH3 0x461BCD PUSH1 0xE5 SHL DUP2 MSTORE PUSH1 0x20 PUSH1 0x4 DUP3 ADD MSTORE PUSH1 0x14 PUSH1 0x24 DUP3 ADD MSTORE PUSH20 0x139BC81C995D9A595DC81D1BC81C995D1C9858DD PUSH1 0x62 SHL PUSH1 0x44 DUP3 ADD MSTORE PUSH1 0x64 ADD PUSH2 0x8CA JUMP JUMPDEST PUSH1 0x0 PUSH1 0xC DUP3 PUSH1 0x40 MLOAD PUSH2 0x32E6 SWAP2 SWAP1 PUSH2 0x4BD9 JUMP JUMPDEST SWAP1 DUP2 MSTORE PUSH1 0x40 DUP1 MLOAD PUSH1 0x20 SWAP3 DUP2 SWAP1 SUB DUP4 ADD DUP2 KECCAK256 CALLER PUSH1 0x0 SWAP1 DUP2 MSTORE SWAP4 MSTORE SWAP1 DUP3 KECCAK256 SLOAD SWAP3 POP PUSH1 0xA SWAP1 PUSH2 0x3313 SWAP1 DUP6 SWAP1 PUSH2 0x4BD9 JUMP JUMPDEST SWAP1 DUP2 MSTORE PUSH1 0x20 ADD PUSH1 0x40 MLOAD DUP1 SWAP2 SUB SWAP1 KECCAK256 DUP3 DUP2 SLOAD DUP2 LT PUSH2 0x3332 JUMPI PUSH2 0x3332 PUSH2 0x4C22 JUMP JUMPDEST PUSH1 0x0 SWAP2 DUP3 MSTORE PUSH1 0x20 SWAP1 SWAP2 KECCAK256 PUSH1 0x4 SWAP1 SWAP2 MUL ADD PUSH1 0x3 DUP2 ADD SLOAD SWAP1 SWAP2 POP PUSH1 0xFF AND PUSH2 0x338D JUMPI PUSH1 0x40 MLOAD PUSH3 0x461BCD PUSH1 0xE5 SHL DUP2 MSTORE PUSH1 0x20 PUSH1 0x4 DUP3 ADD MSTORE PUSH1 0x11 PUSH1 0x24 DUP3 ADD MSTORE PUSH17 0x105B1C9958591E481C995D1C9858DD1959 PUSH1 0x7A SHL PUSH1 0x44 DUP3 ADD MSTORE PUSH1 0x64 ADD PUSH2 0x8CA JUMP JUMPDEST PUSH1 0x3 DUP2 ADD DUP1 SLOAD PUSH1 0xFF NOT AND SWAP1 SSTORE PUSH1 0x40 MLOAD PUSH1 0x0 SWAP1 PUSH1 0xB SWAP1 PUSH2 0x33AD SWAP1 DUP7 SWAP1 PUSH2 0x4BD9 JUMP JUMPDEST SWAP1 DUP2 MSTORE PUSH1 0x40 DUP1 MLOAD PUSH1 0x20 SWAP3 DUP2 SWAP1 SUB DUP4 ADD DUP2 KECCAK256 CALLER PUSH1 0x0 DUP2 DUP2 MSTORE SWAP2 SWAP1 SWAP5 MSTORE SWAP2 SWAP1 SWAP2 KECCAK256 DUP1 SLOAD PUSH1 0xFF NOT AND SWAP4 ISZERO ISZERO SWAP4 SWAP1 SWAP4 OR SWAP1 SWAP3 SSTORE SWAP1 PUSH2 0x33E8 SWAP1 DUP6 SWAP1 PUSH2 0x4BD9 JUMP JUMPDEST PUSH1 0x40 MLOAD DUP1 SWAP2 SUB SWAP1 KECCAK256 PUSH32 0x6BC31BFB9FF73229DA0FA40A8AB549B0579FA1A8AA5097D6C42C758AD6956182 DUP4 PUSH1 0x0 ADD PUSH1 0x14 SWAP1 SLOAD SWAP1 PUSH2 0x100 EXP SWAP1 DIV PUSH1 0xFF AND TIMESTAMP PUSH1 0x40 MLOAD PUSH2 0x3432 SWAP3 SWAP2 SWAP1 PUSH2 0x4E83 JUMP JUMPDEST PUSH1 0x40 MLOAD DUP1 SWAP2 SUB SWAP1 LOG3 POP POP POP JUMP JUMPDEST PUSH1 0x60 PUSH1 0x0 DUP1 PUSH1 0x0 DUP1 PUSH1 0x0 PUSH1 0x6 DUP8 PUSH1 0x40 MLOAD PUSH2 0x3459 SWAP2 SWAP1 PUSH2 0x4BD9 JUMP JUMPDEST SWAP1 DUP2 MSTORE PUSH1 0x20 ADD PUSH1 0x40 MLOAD DUP1 SWAP2 SUB SWAP1 KECCAK256 PUSH1 0x40 MLOAD DUP1 PUSH1 0xC0 ADD PUSH1 0x40 MSTORE SWAP1 DUP2 PUSH1 0x0 DUP3 ADD DUP1 SLOAD PUSH2 0x3482 SWAP1 PUSH2 0x4B9F JUMP JUMPDEST DUP1 PUSH1 0x1F ADD PUSH1 0x20 DUP1 SWAP2 DIV MUL PUSH1 0x20 ADD PUSH1 0x40 MLOAD SWAP1 DUP2 ADD PUSH1 0x40 MSTORE DUP1 SWAP3 SWAP2 SWAP1 DUP2 DUP2 MSTORE PUSH1 0x20 ADD DUP3 DUP1 SLOAD PUSH2 0x34AE SWAP1 PUSH2 0x4B9F JUMP JUMPDEST DUP1 ISZERO PUSH2 0x34FB JUMPI DUP1 PUSH1 0x1F LT PUSH2 0x34D0 JUMPI PUSH2 0x100 DUP1 DUP4 SLOAD DIV MUL DUP4 MSTORE SWAP2 PUSH1 0x20 ADD SWAP2 PUSH2 0x34FB JUMP JUMPDEST DUP3 ADD SWAP2 SWAP1 PUSH1 0x0 MSTORE PUSH1 0x20 PUSH1 0x0 KECCAK256 SWAP1 JUMPDEST DUP2 SLOAD DUP2 MSTORE SWAP1 PUSH1 0x1 ADD SWAP1 PUSH1 0x20 ADD DUP1 DUP4 GT PUSH2 0x34DE JUMPI DUP3 SWAP1 SUB PUSH1 0x1F AND DUP3 ADD SWAP2 JUMPDEST POP POP POP POP POP DUP2 MSTORE PUSH1 0x20 ADD PUSH1 0x1 DUP3 ADD DUP1 SLOAD PUSH2 0x3514 SWAP1 PUSH2 0x4B9F JUMP JUMPDEST DUP1 PUSH1 0x1F ADD PUSH1 0x20 DUP1 SWAP2 DIV MUL PUSH1 0x20 ADD PUSH1 0x40 MLOAD SWAP1 DUP2 ADD PUSH1 0x40 MSTORE DUP1 SWAP3 SWAP2 SWAP1 DUP2 DUP2 MSTORE PUSH1 0x20 ADD DUP3 DUP1 SLOAD PUSH2 0x3540 SWAP1 PUSH2 0x4B9F JUMP JUMPDEST DUP1 ISZERO PUSH2 0x358D JUMPI DUP1 PUSH1 0x1F LT PUSH2 0x3562 JUMPI PUSH2 0x100 DUP1 DUP4 SLOAD DIV MUL DUP4 MSTORE SWAP2 PUSH1 0x20 ADD SWAP2 PUSH2 0x358D JUMP JUMPDEST DUP3 ADD SWAP2 SWAP1 PUSH1 0x0 MSTORE PUSH1 0x20 PUSH1 0x0 KECCAK256 SWAP1 JUMPDEST DUP2 SLOAD DUP2 MSTORE SWAP1 PUSH1 0x1 ADD SWAP1 PUSH1 0x20 ADD DUP1 DUP4 GT PUSH2 0x3570 JUMPI DUP3 SWAP1 SUB PUSH1 0x1F AND DUP3 ADD SWAP2 JUMPDEST POP POP POP SWAP2 DUP4 MSTORE POP POP PUSH1 0x2 DUP3 ADD SLOAD PUSH1 0x1 PUSH1 0x1 PUSH1 0xA0 SHL SUB SWAP1 DUP2 AND PUSH1 0x20 DUP1 DUP5 ADD SWAP2 SWAP1 SWAP2 MSTORE PUSH1 0x3 DUP5 ADD SLOAD PUSH1 0x40 DUP1 DUP6 ADD SWAP2 SWAP1 SWAP2 MSTORE PUSH1 0x4 SWAP1 SWAP5 ADD SLOAD SWAP2 DUP3 AND PUSH1 0x60 DUP1 DUP6 ADD SWAP2 SWAP1 SWAP2 MSTORE PUSH1 0x1 PUSH1 0xA0 SHL SWAP1 SWAP3 DIV PUSH1 0xFF AND ISZERO ISZERO PUSH1 0x80 SWAP4 DUP5 ADD MSTORE DUP5 ADD MLOAD SWAP3 DUP5 ADD MLOAD SWAP1 DUP5 ADD MLOAD SWAP2 DUP5 ADD MLOAD PUSH1 0xA0 SWAP1 SWAP5 ADD MLOAD SWAP3 SWAP12 SWAP1 SWAP11 POP SWAP1 SWAP9 POP SWAP2 SWAP7 POP SWAP5 POP SWAP3 POP POP POP JUMP JUMPDEST PUSH1 0x4 PUSH1 0x20 MSTORE DUP2 PUSH1 0x0 MSTORE PUSH1 0x40 PUSH1 0x0 KECCAK256 DUP2 DUP2 SLOAD DUP2 LT PUSH2 0x7E3 JUMPI PUSH1 0x0 DUP1 REVERT JUMPDEST PUSH1 0x1 PUSH1 0x1 PUSH1 0xA0 SHL SUB DUP2 AND PUSH1 0x0 SWAP1 DUP2 MSTORE PUSH1 0x10 PUSH1 0x20 SWAP1 DUP2 MSTORE PUSH1 0x40 DUP1 DUP4 KECCAK256 DUP1 SLOAD DUP3 MLOAD DUP2 DUP6 MUL DUP2 ADD DUP6 ADD SWAP1 SWAP4 MSTORE DUP1 DUP4 MSTORE PUSH1 0x60 SWAP5 SWAP3 SWAP4 SWAP2 SWAP3 SWAP1 SWAP2 DUP5 ADD JUMPDEST DUP3 DUP3 LT ISZERO PUSH2 0xD2A JUMPI DUP4 DUP3 SWAP1 PUSH1 0x0 MSTORE PUSH1 0x20 PUSH1 0x0 KECCAK256 ADD DUP1 SLOAD PUSH2 0x367C SWAP1 PUSH2 0x4B9F JUMP JUMPDEST DUP1 PUSH1 0x1F ADD PUSH1 0x20 DUP1 SWAP2 DIV MUL PUSH1 0x20 ADD PUSH1 0x40 MLOAD SWAP1 DUP2 ADD PUSH1 0x40 MSTORE DUP1 SWAP3 SWAP2 SWAP1 DUP2 DUP2 MSTORE PUSH1 0x20 ADD DUP3 DUP1 SLOAD PUSH2 0x36A8 SWAP1 PUSH2 0x4B9F JUMP JUMPDEST DUP1 ISZERO PUSH2 0x36F5 JUMPI DUP1 PUSH1 0x1F LT PUSH2 0x36CA JUMPI PUSH2 0x100 DUP1 DUP4 SLOAD DIV MUL DUP4 MSTORE SWAP2 PUSH1 0x20 ADD SWAP2 PUSH2 0x36F5 JUMP JUMPDEST DUP3 ADD SWAP2 SWAP1 PUSH1 0x0 MSTORE PUSH1 0x20 PUSH1 0x0 KECCAK256 SWAP1 JUMPDEST DUP2 SLOAD DUP2 MSTORE SWAP1 PUSH1 0x1 ADD SWAP1 PUSH1 0x20 ADD DUP1 DUP4 GT PUSH2 0x36D8 JUMPI DUP3 SWAP1 SUB PUSH1 0x1F AND DUP3 ADD SWAP2 JUMPDEST POP POP POP POP POP DUP2 MSTORE PUSH1 0x20 ADD SWAP1 PUSH1 0x1 ADD SWAP1 PUSH2 0x365D JUMP JUMPDEST PUSH1 0x1 PUSH1 0x1 PUSH1 0xA0 SHL SUB DUP2 AND PUSH1 0x0 SWAP1 DUP2 MSTORE PUSH1 0x7 PUSH1 0x20 SWAP1 DUP2 MSTORE PUSH1 0x40 DUP1 DUP4 KECCAK256 DUP1 SLOAD DUP3 MLOAD DUP2 DUP6 MUL DUP2 ADD DUP6 ADD SWAP1 SWAP4 MSTORE DUP1 DUP4 MSTORE PUSH1 0x60 SWAP5 SWAP3 SWAP4 SWAP2 SWAP3 SWAP1 SWAP2 DUP5 ADD JUMPDEST DUP3 DUP3 LT ISZERO PUSH2 0xD2A JUMPI DUP4 DUP3 SWAP1 PUSH1 0x0 MSTORE PUSH1 0x20 PUSH1 0x0 KECCAK256 ADD DUP1 SLOAD PUSH2 0x3760 SWAP1 PUSH2 0x4B9F JUMP JUMPDEST DUP1 PUSH1 0x1F ADD PUSH1 0x20 DUP1 SWAP2 DIV MUL PUSH1 0x20 ADD PUSH1 0x40 MLOAD SWAP1 DUP2 ADD PUSH1 0x40 MSTORE DUP1 SWAP3 SWAP2 SWAP1 DUP2 DUP2 MSTORE PUSH1 0x20 ADD DUP3 DUP1 SLOAD PUSH2 0x378C SWAP1 PUSH2 0x4B9F JUMP JUMPDEST DUP1 ISZERO PUSH2 0x37D9 JUMPI DUP1 PUSH1 0x1F LT PUSH2 0x37AE JUMPI PUSH2 0x100 DUP1 DUP4 SLOAD DIV MUL DUP4 MSTORE SWAP2 PUSH1 0x20 ADD SWAP2 PUSH2 0x37D9 JUMP JUMPDEST DUP3 ADD SWAP2 SWAP1 PUSH1 0x0 MSTORE PUSH1 0x20 PUSH1 0x0 KECCAK256 SWAP1 JUMPDEST DUP2 SLOAD DUP2 MSTORE SWAP1 PUSH1 0x1 ADD SWAP1 PUSH1 0x20 ADD DUP1 DUP4 GT PUSH2 0x37BC JUMPI DUP3 SWAP1 SUB PUSH1 0x1F AND DUP3 ADD SWAP2 JUMPDEST POP POP POP POP POP DUP2 MSTORE PUSH1 0x20 ADD SWAP1 PUSH1 0x1 ADD SWAP1 PUSH2 0x3741 JUMP JUMPDEST PUSH1 0x1 SLOAD PUSH1 0x1 PUSH1 0x1 PUSH1 0xA0 SHL SUB AND CALLER EQ PUSH2 0x3834 JUMPI PUSH1 0x40 MLOAD PUSH3 0x461BCD PUSH1 0xE5 SHL DUP2 MSTORE PUSH1 0x20 PUSH1 0x4 DUP3 ADD MSTORE PUSH1 0xA PUSH1 0x24 DUP3 ADD MSTORE PUSH10 0x27B7363C9030B236B4B7 PUSH1 0xB1 SHL PUSH1 0x44 DUP3 ADD MSTORE PUSH1 0x64 ADD PUSH2 0x8CA JUMP JUMPDEST PUSH1 0x1 PUSH1 0x1 PUSH1 0xA0 SHL SUB DUP2 AND PUSH2 0x387C JUMPI PUSH1 0x40 MLOAD PUSH3 0x461BCD PUSH1 0xE5 SHL DUP2 MSTORE PUSH1 0x20 PUSH1 0x4 DUP3 ADD MSTORE PUSH1 0xF PUSH1 0x24 DUP3 ADD MSTORE PUSH15 0x496E76616C69642061646472657373 PUSH1 0x88 SHL PUSH1 0x44 DUP3 ADD MSTORE PUSH1 0x64 ADD PUSH2 0x8CA JUMP JUMPDEST PUSH1 0x0 DUP1 SLOAD PUSH1 0x1 PUSH1 0x1 PUSH1 0xA0 SHL SUB NOT AND PUSH1 0x1 PUSH1 0x1 PUSH1 0xA0 SHL SUB SWAP3 SWAP1 SWAP3 AND SWAP2 SWAP1 SWAP2 OR SWAP1 SSTORE JUMP JUMPDEST DUP2 MLOAD PUSH1 0x20 DUP2 DUP5 ADD DUP2 ADD DUP1 MLOAD PUSH1 0x8 DUP3 MSTORE SWAP3 DUP3 ADD SWAP2 DUP6 ADD SWAP2 SWAP1 SWAP2 KECCAK256 SWAP2 SWAP1 MSTORE DUP1 SLOAD DUP3 SWAP1 DUP2 LT PUSH2 0x7E3 JUMPI PUSH1 0x0 DUP1 REVERT JUMPDEST PUSH1 0x1 PUSH1 0x1 PUSH1 0xA0 SHL SUB DUP2 AND PUSH1 0x0 SWAP1 DUP2 MSTORE PUSH1 0x4 PUSH1 0x20 SWAP1 DUP2 MSTORE PUSH1 0x40 DUP1 DUP4 KECCAK256 DUP1 SLOAD DUP3 MLOAD DUP2 DUP6 MUL DUP2 ADD DUP6 ADD SWAP1 SWAP4 MSTORE DUP1 DUP4 MSTORE PUSH1 0x60 SWAP5 SWAP3 SWAP4 SWAP2 SWAP3 SWAP1 SWAP2 DUP5 ADD JUMPDEST DUP3 DUP3 LT ISZERO PUSH2 0xD2A JUMPI DUP4 DUP3 SWAP1 PUSH1 0x0 MSTORE PUSH1 0x20 PUSH1 0x0 KECCAK256 ADD DUP1 SLOAD PUSH2 0x3920 SWAP1 PUSH2 0x4B9F JUMP JUMPDEST DUP1 PUSH1 0x1F ADD PUSH1 0x20 DUP1 SWAP2 DIV MUL PUSH1 0x20 ADD PUSH1 0x40 MLOAD SWAP1 DUP2 ADD PUSH1 0x40 MSTORE DUP1 SWAP3 SWAP2 SWAP1 DUP2 DUP2 MSTORE PUSH1 0x20 ADD DUP3 DUP1 SLOAD PUSH2 0x394C SWAP1 PUSH2 0x4B9F JUMP JUMPDEST DUP1 ISZERO PUSH2 0x3999 JUMPI DUP1 PUSH1 0x1F LT PUSH2 0x396E JUMPI PUSH2 0x100 DUP1 DUP4 SLOAD DIV MUL DUP4 MSTORE SWAP2 PUSH1 0x20 ADD SWAP2 PUSH2 0x3999 JUMP JUMPDEST DUP3 ADD SWAP2 SWAP1 PUSH1 0x0 MSTORE PUSH1 0x20 PUSH1 0x0 KECCAK256 SWAP1 JUMPDEST DUP2 SLOAD DUP2 MSTORE SWAP1 PUSH1 0x1 ADD SWAP1 PUSH1 0x20 ADD DUP1 DUP4 GT PUSH2 0x397C JUMPI DUP3 SWAP1 SUB PUSH1 0x1F AND DUP3 ADD SWAP2 JUMPDEST POP POP POP POP POP DUP2 MSTORE PUSH1 0x20 ADD SWAP1 PUSH1 0x1 ADD SWAP1 PUSH2 0x3901 JUMP JUMPDEST PUSH1 0x0 DUP1 PUSH1 0x0 PUSH1 0x60 PUSH1 0x0 DUP1 PUSH1 0x0 PUSH1 0x2 DUP9 PUSH1 0x40 MLOAD PUSH2 0x39C9 SWAP2 SWAP1 PUSH2 0x4BD9 JUMP JUMPDEST SWAP1 DUP2 MSTORE PUSH1 0x20 ADD PUSH1 0x40 MLOAD DUP1 SWAP2 SUB SWAP1 KECCAK256 PUSH1 0x40 MLOAD DUP1 PUSH2 0x100 ADD PUSH1 0x40 MSTORE SWAP1 DUP2 PUSH1 0x0 DUP3 ADD DUP1 SLOAD PUSH2 0x39F3 SWAP1 PUSH2 0x4B9F JUMP JUMPDEST DUP1 PUSH1 0x1F ADD PUSH1 0x20 DUP1 SWAP2 DIV MUL PUSH1 0x20 ADD PUSH1 0x40 MLOAD SWAP1 DUP2 ADD PUSH1 0x40 MSTORE DUP1 SWAP3 SWAP2 SWAP1 DUP2 DUP2 MSTORE PUSH1 0x20 ADD DUP3 DUP1 SLOAD PUSH2 0x3A1F SWAP1 PUSH2 0x4B9F JUMP JUMPDEST DUP1 ISZERO PUSH2 0x3A6C JUMPI DUP1 PUSH1 0x1F LT PUSH2 0x3A41 JUMPI PUSH2 0x100 DUP1 DUP4 SLOAD DIV MUL DUP4 MSTORE SWAP2 PUSH1 0x20 ADD SWAP2 PUSH2 0x3A6C JUMP JUMPDEST DUP3 ADD SWAP2 SWAP1 PUSH1 0x0 MSTORE PUSH1 0x20 PUSH1 0x0 KECCAK256 SWAP1 JUMPDEST DUP2 SLOAD DUP2 MSTORE SWAP1 PUSH1 0x1 ADD SWAP1 PUSH1 0x20 ADD DUP1 DUP4 GT PUSH2 0x3A4F JUMPI DUP3 SWAP1 SUB PUSH1 0x1F AND DUP3 ADD SWAP2 JUMPDEST POP POP POP SWAP2 DUP4 MSTORE POP POP PUSH1 0x1 DUP3 ADD SLOAD PUSH1 0x1 PUSH1 0x1 PUSH1 0xA0 SHL SUB SWAP1 DUP2 AND PUSH1 0x20 DUP4 ADD MSTORE PUSH1 0x2 DUP4 ADD SLOAD AND PUSH1 0x40 DUP3 ADD MSTORE PUSH1 0x3 DUP3 ADD DUP1 SLOAD PUSH1 0x60 SWAP1 SWAP3 ADD SWAP2 PUSH2 0x3AA9 SWAP1 PUSH2 0x4B9F JUMP JUMPDEST DUP1 PUSH1 0x1F ADD PUSH1 0x20 DUP1 SWAP2 DIV MUL PUSH1 0x20 ADD PUSH1 0x40 MLOAD SWAP1 DUP2 ADD PUSH1 0x40 MSTORE DUP1 SWAP3 SWAP2 SWAP1 DUP2 DUP2 MSTORE PUSH1 0x20 ADD DUP3 DUP1 SLOAD PUSH2 0x3AD5 SWAP1 PUSH2 0x4B9F JUMP JUMPDEST DUP1 ISZERO PUSH2 0x3B22 JUMPI DUP1 PUSH1 0x1F LT PUSH2 0x3AF7 JUMPI PUSH2 0x100 DUP1 DUP4 SLOAD DIV MUL DUP4 MSTORE SWAP2 PUSH1 0x20 ADD SWAP2 PUSH2 0x3B22 JUMP JUMPDEST DUP3 ADD SWAP2 SWAP1 PUSH1 0x0 MSTORE PUSH1 0x20 PUSH1 0x0 KECCAK256 SWAP1 JUMPDEST DUP2 SLOAD DUP2 MSTORE SWAP1 PUSH1 0x1 ADD SWAP1 PUSH1 0x20 ADD DUP1 DUP4 GT PUSH2 0x3B05 JUMPI DUP3 SWAP1 SUB PUSH1 0x1F AND DUP3 ADD SWAP2 JUMPDEST POP POP POP SWAP2 DUP4 MSTORE POP POP PUSH1 0x4 DUP3 ADD SLOAD PUSH1 0x20 DUP1 DUP4 ADD SWAP2 SWAP1 SWAP2 MSTORE PUSH1 0x5 DUP4 ADD SLOAD PUSH1 0x40 DUP1 DUP5 ADD SWAP2 SWAP1 SWAP2 MSTORE PUSH1 0x6 SWAP1 SWAP4 ADD SLOAD PUSH1 0xFF DUP1 DUP3 AND ISZERO ISZERO PUSH1 0x60 DUP1 DUP7 ADD SWAP2 SWAP1 SWAP2 MSTORE PUSH2 0x100 SWAP1 SWAP3 DIV AND ISZERO ISZERO PUSH1 0x80 SWAP4 DUP5 ADD MSTORE PUSH1 0xC0 DUP6 ADD MLOAD SWAP2 DUP6 ADD MLOAD SWAP4 DUP6 ADD MLOAD SWAP1 DUP6 ADD MLOAD SWAP3 DUP6 ADD MLOAD PUSH1 0xA0 SWAP1 SWAP6 ADD MLOAD SWAP2 SWAP14 SWAP4 SWAP13 POP SWAP11 POP SWAP1 SWAP9 POP SWAP2 SWAP7 POP SWAP1 SWAP5 POP SWAP3 POP POP POP JUMP JUMPDEST PUSH1 0x2 DUP2 PUSH1 0x40 MLOAD PUSH2 0x3BAC SWAP2 SWAP1 PUSH2 0x4BD9 JUMP JUMPDEST SWAP1 DUP2 MSTORE PUSH1 0x40 MLOAD SWAP1 DUP2 SWAP1 SUB PUSH1 0x20 ADD SWAP1 KECCAK256 PUSH1 0x6 ADD SLOAD PUSH1 0xFF PUSH2 0x100 SWAP1 SWAP2 DIV AND PUSH2 0x3C14 JUMPI PUSH1 0x40 MLOAD PUSH3 0x461BCD PUSH1 0xE5 SHL DUP2 MSTORE PUSH1 0x20 PUSH1 0x4 DUP3 ADD MSTORE PUSH1 0x19 PUSH1 0x24 DUP3 ADD MSTORE PUSH32 0x5065726D697373696F6E20646F6573206E6F7420657869737400000000000000 PUSH1 0x44 DUP3 ADD MSTORE PUSH1 0x64 ADD PUSH2 0x8CA JUMP JUMPDEST PUSH1 0x2 DUP2 PUSH1 0x40 MLOAD PUSH2 0x3C24 SWAP2 SWAP1 PUSH2 0x4BD9 JUMP JUMPDEST SWAP1 DUP2 MSTORE PUSH1 0x40 MLOAD SWAP1 DUP2 SWAP1 SUB PUSH1 0x20 ADD SWAP1 KECCAK256 PUSH1 0x6 ADD SLOAD PUSH1 0xFF AND PUSH2 0x3C78 JUMPI PUSH1 0x40 MLOAD PUSH3 0x461BCD PUSH1 0xE5 SHL DUP2 MSTORE PUSH1 0x20 PUSH1 0x4 DUP3 ADD MSTORE PUSH1 0xF PUSH1 0x24 DUP3 ADD MSTORE PUSH15 0x105B1C9958591E481C995D9BDAD959 PUSH1 0x8A SHL PUSH1 0x44 DUP3 ADD MSTORE PUSH1 0x64 ADD PUSH2 0x8CA JUMP JUMPDEST CALLER PUSH1 0x1 PUSH1 0x1 PUSH1 0xA0 SHL SUB AND PUSH1 0x2 DUP3 PUSH1 0x40 MLOAD PUSH2 0x3C92 SWAP2 SWAP1 PUSH2 0x4BD9 JUMP JUMPDEST SWAP1 DUP2 MSTORE PUSH1 0x40 MLOAD SWAP1 DUP2 SWAP1 SUB PUSH1 0x20 ADD SWAP1 KECCAK256 PUSH1 0x1 ADD SLOAD PUSH1 0x1 PUSH1 0x1 PUSH1 0xA0 SHL SUB AND EQ PUSH2 0x3CFB JUMPI PUSH1 0x40 MLOAD PUSH3 0x461BCD PUSH1 0xE5 SHL DUP2 MSTORE PUSH1 0x20 PUSH1 0x4 DUP3 ADD MSTORE PUSH1 0x1A PUSH1 0x24 DUP3 ADD MSTORE PUSH32 0x4F6E6C7920746865207368617265722063616E207265766F6B65000000000000 PUSH1 0x44 DUP3 ADD MSTORE PUSH1 0x64 ADD PUSH2 0x8CA JUMP JUMPDEST PUSH1 0x0 PUSH1 0x2 DUP3 PUSH1 0x40 MLOAD PUSH2 0x3D0D SWAP2 SWAP1 PUSH2 0x4BD9 JUMP JUMPDEST SWAP1 DUP2 MSTORE PUSH1 0x40 MLOAD SWAP1 DUP2 SWAP1 SUB PUSH1 0x20 ADD DUP2 KECCAK256 PUSH1 0x6 ADD DUP1 SLOAD SWAP3 ISZERO ISZERO PUSH1 0xFF NOT SWAP1 SWAP4 AND SWAP3 SWAP1 SWAP3 OR SWAP1 SWAP2 SSTORE TIMESTAMP SWAP1 PUSH1 0x2 SWAP1 PUSH2 0x3D41 SWAP1 DUP5 SWAP1 PUSH2 0x4BD9 JUMP JUMPDEST SWAP1 DUP2 MSTORE PUSH1 0x20 ADD PUSH1 0x40 MLOAD DUP1 SWAP2 SUB SWAP1 KECCAK256 PUSH1 0x5 ADD DUP2 SWAP1 SSTORE POP PUSH1 0x2 DUP2 PUSH1 0x40 MLOAD PUSH2 0x3D66 SWAP2 SWAP1 PUSH2 0x4BD9 JUMP JUMPDEST SWAP1 DUP2 MSTORE PUSH1 0x40 MLOAD SWAP1 DUP2 SWAP1 SUB PUSH1 0x20 ADD DUP2 KECCAK256 PUSH1 0x2 ADD SLOAD PUSH1 0x1 PUSH1 0x1 PUSH1 0xA0 SHL SUB AND SWAP1 CALLER SWAP1 PUSH2 0x3D90 SWAP1 DUP5 SWAP1 PUSH2 0x4BD9 JUMP JUMPDEST PUSH1 0x40 MLOAD DUP1 SWAP2 SUB SWAP1 KECCAK256 PUSH32 0x24303533397C7C9C44F2C956200064D35C3459320DDCC9EFEEA95E384763BCEB PUSH1 0x2 DUP6 PUSH1 0x40 MLOAD PUSH2 0x3DC9 SWAP2 SWAP1 PUSH2 0x4BD9 JUMP JUMPDEST SWAP1 DUP2 MSTORE PUSH1 0x20 ADD PUSH1 0x40 MLOAD DUP1 SWAP2 SUB SWAP1 KECCAK256 PUSH1 0x3 ADD TIMESTAMP PUSH1 0x40 MLOAD PUSH2 0x3DE9 SWAP3 SWAP2 SWAP1 PUSH2 0x4E9E JUMP JUMPDEST PUSH1 0x40 MLOAD DUP1 SWAP2 SUB SWAP1 LOG4 POP JUMP JUMPDEST PUSH1 0x6 DUP6 PUSH1 0x40 MLOAD PUSH2 0x3E04 SWAP2 SWAP1 PUSH2 0x4BD9 JUMP JUMPDEST SWAP1 DUP2 MSTORE PUSH1 0x40 MLOAD SWAP1 DUP2 SWAP1 SUB PUSH1 0x20 ADD SWAP1 KECCAK256 PUSH1 0x4 ADD SLOAD PUSH1 0xFF PUSH1 0x1 PUSH1 0xA0 SHL SWAP1 SWAP2 DIV AND PUSH2 0x3E3E JUMPI PUSH1 0x40 MLOAD PUSH3 0x461BCD PUSH1 0xE5 SHL DUP2 MSTORE PUSH1 0x4 ADD PUSH2 0x8CA SWAP1 PUSH2 0x4BF5 JUMP JUMPDEST PUSH1 0x0 PUSH1 0x6 DUP7 PUSH1 0x40 MLOAD PUSH2 0x3E50 SWAP2 SWAP1 PUSH2 0x4BD9 JUMP JUMPDEST SWAP1 DUP2 MSTORE PUSH1 0x20 ADD PUSH1 0x40 MLOAD DUP1 SWAP2 SUB SWAP1 KECCAK256 PUSH1 0x1 ADD DUP1 SLOAD PUSH2 0x3E6C SWAP1 PUSH2 0x4B9F JUMP JUMPDEST DUP1 PUSH1 0x1F ADD PUSH1 0x20 DUP1 SWAP2 DIV MUL PUSH1 0x20 ADD PUSH1 0x40 MLOAD SWAP1 DUP2 ADD PUSH1 0x40 MSTORE DUP1 SWAP3 SWAP2 SWAP1 DUP2 DUP2 MSTORE PUSH1 0x20 ADD DUP3 DUP1 SLOAD PUSH2 0x3E98 SWAP1 PUSH2 0x4B9F JUMP JUMPDEST DUP1 ISZERO PUSH2 0x3EE5 JUMPI DUP1 PUSH1 0x1F LT PUSH2 0x3EBA JUMPI PUSH2 0x100 DUP1 DUP4 SLOAD DIV MUL DUP4 MSTORE SWAP2 PUSH1 0x20 ADD SWAP2 PUSH2 0x3EE5 JUMP JUMPDEST DUP3 ADD SWAP2 SWAP1 PUSH1 0x0 MSTORE PUSH1 0x20 PUSH1 0x0 KECCAK256 SWAP1 JUMPDEST DUP2 SLOAD DUP2 MSTORE SWAP1 PUSH1 0x1 ADD SWAP1 PUSH1 0x20 ADD DUP1 DUP4 GT PUSH2 0x3EC8 JUMPI DUP3 SWAP1 SUB PUSH1 0x1F AND DUP3 ADD SWAP2 JUMPDEST POP POP PUSH1 0x0 SLOAD PUSH1 0x40 MLOAD PUSH4 0x286B6AB PUSH1 0xE3 SHL DUP2 MSTORE SWAP5 SWAP6 POP PUSH1 0x1 PUSH1 0x1 PUSH1 0xA0 SHL SUB AND SWAP4 PUSH4 0x1435B558 SWAP4 POP PUSH2 0x3F1D SWAP3 POP DUP6 SWAP2 POP CALLER SWAP1 PUSH1 0x4 ADD PUSH2 0x4CC9 JUMP JUMPDEST PUSH1 0x20 PUSH1 0x40 MLOAD DUP1 DUP4 SUB DUP2 DUP7 GAS STATICCALL ISZERO DUP1 ISZERO PUSH2 0x3F3A JUMPI RETURNDATASIZE PUSH1 0x0 DUP1 RETURNDATACOPY RETURNDATASIZE PUSH1 0x0 REVERT JUMPDEST POP POP POP POP PUSH1 0x40 MLOAD RETURNDATASIZE PUSH1 0x1F NOT PUSH1 0x1F DUP3 ADD AND DUP3 ADD DUP1 PUSH1 0x40 MSTORE POP DUP2 ADD SWAP1 PUSH2 0x3F5E SWAP2 SWAP1 PUSH2 0x4C7D JUMP JUMPDEST PUSH2 0x3F7A JUMPI PUSH1 0x40 MLOAD PUSH3 0x461BCD PUSH1 0xE5 SHL DUP2 MSTORE PUSH1 0x4 ADD PUSH2 0x8CA SWAP1 PUSH2 0x4CF3 JUMP JUMPDEST PUSH1 0xB DUP7 PUSH1 0x40 MLOAD PUSH2 0x3F8A SWAP2 SWAP1 PUSH2 0x4BD9 JUMP JUMPDEST SWAP1 DUP2 MSTORE PUSH1 0x40 DUP1 MLOAD PUSH1 0x20 SWAP3 DUP2 SWAP1 SUB DUP4 ADD SWAP1 KECCAK256 CALLER PUSH1 0x0 SWAP1 DUP2 MSTORE SWAP3 MSTORE SWAP1 KECCAK256 SLOAD PUSH1 0xFF AND ISZERO PUSH2 0x3FF6 JUMPI PUSH1 0x40 MLOAD PUSH3 0x461BCD PUSH1 0xE5 SHL DUP2 MSTORE PUSH1 0x20 PUSH1 0x4 DUP3 ADD MSTORE PUSH1 0x1C PUSH1 0x24 DUP3 ADD MSTORE PUSH32 0x416C72656164792072657669657765642074686973207265636F726400000000 PUSH1 0x44 DUP3 ADD MSTORE PUSH1 0x64 ADD PUSH2 0x8CA JUMP JUMPDEST PUSH1 0x0 PUSH1 0xA DUP8 PUSH1 0x40 MLOAD PUSH2 0x4008 SWAP2 SWAP1 PUSH2 0x4BD9 JUMP JUMPDEST SWAP1 DUP2 MSTORE PUSH1 0x40 MLOAD SWAP1 DUP2 SWAP1 SUB PUSH1 0x20 ADD DUP2 KECCAK256 SLOAD SWAP2 POP PUSH1 0xA SWAP1 PUSH2 0x4028 SWAP1 DUP10 SWAP1 PUSH2 0x4BD9 JUMP JUMPDEST SWAP1 DUP2 MSTORE PUSH1 0x20 ADD PUSH1 0x40 MLOAD DUP1 SWAP2 SUB SWAP1 KECCAK256 PUSH1 0x40 MLOAD DUP1 PUSH1 0xE0 ADD PUSH1 0x40 MSTORE DUP1 CALLER PUSH1 0x1 PUSH1 0x1 PUSH1 0xA0 SHL SUB AND DUP2 MSTORE PUSH1 0x20 ADD DUP8 PUSH1 0x1 DUP2 GT ISZERO PUSH2 0x4062 JUMPI PUSH2 0x4062 PUSH2 0x46BE JUMP JUMPDEST DUP2 MSTORE PUSH1 0x20 ADD DUP7 PUSH1 0x3 DUP2 GT ISZERO PUSH2 0x4079 JUMPI PUSH2 0x4079 PUSH2 0x46BE JUMP JUMPDEST DUP2 MSTORE PUSH1 0x20 ADD DUP6 PUSH1 0x5 DUP2 GT ISZERO PUSH2 0x4090 JUMPI PUSH2 0x4090 PUSH2 0x46BE JUMP JUMPDEST DUP2 MSTORE TIMESTAMP PUSH1 0x20 DUP1 DUP4 ADD SWAP2 SWAP1 SWAP2 MSTORE PUSH1 0x40 DUP3 ADD DUP11 SWAP1 MSTORE PUSH1 0x1 PUSH1 0x60 SWAP1 SWAP3 ADD DUP3 SWAP1 MSTORE DUP4 SLOAD DUP1 DUP4 ADD DUP6 SSTORE PUSH1 0x0 SWAP5 DUP6 MSTORE SWAP4 DUP2 SWAP1 KECCAK256 DUP4 MLOAD PUSH1 0x4 SWAP1 SWAP6 MUL ADD DUP1 SLOAD PUSH1 0x1 PUSH1 0x1 PUSH1 0xA0 SHL SUB NOT DUP2 AND PUSH1 0x1 PUSH1 0x1 PUSH1 0xA0 SHL SUB SWAP1 SWAP7 AND SWAP6 DUP7 OR DUP3 SSTORE SWAP2 DUP5 ADD MLOAD SWAP4 SWAP5 SWAP1 SWAP4 SWAP3 DUP5 SWAP3 PUSH1 0x1 PUSH1 0x1 PUSH1 0xA8 SHL SUB NOT AND SWAP1 SWAP2 OR SWAP1 PUSH1 0x1 PUSH1 0xA0 SHL SWAP1 DUP5 SWAP1 DUP2 GT ISZERO PUSH2 0x4112 JUMPI PUSH2 0x4112 PUSH2 0x46BE JUMP JUMPDEST MUL OR SWAP1 SSTORE POP PUSH1 0x40 DUP3 ADD MLOAD DUP2 SLOAD DUP3 SWAP1 PUSH1 0xFF PUSH1 0xA8 SHL NOT AND PUSH1 0x1 PUSH1 0xA8 SHL DUP4 PUSH1 0x3 DUP2 GT ISZERO PUSH2 0x413E JUMPI PUSH2 0x413E PUSH2 0x46BE JUMP JUMPDEST MUL OR SWAP1 SSTORE POP PUSH1 0x60 DUP3 ADD MLOAD DUP2 SLOAD DUP3 SWAP1 PUSH1 0xFF PUSH1 0xB0 SHL NOT AND PUSH1 0x1 PUSH1 0xB0 SHL DUP4 PUSH1 0x5 DUP2 GT ISZERO PUSH2 0x416A JUMPI PUSH2 0x416A PUSH2 0x46BE JUMP JUMPDEST MUL OR SWAP1 SSTORE POP PUSH1 0x80 DUP3 ADD MLOAD PUSH1 0x1 DUP3 ADD SSTORE PUSH1 0xA0 DUP3 ADD MLOAD PUSH1 0x2 DUP3 ADD SWAP1 PUSH2 0x418D SWAP1 DUP3 PUSH2 0x4D7A JUMP JUMPDEST POP PUSH1 0xC0 SWAP2 SWAP1 SWAP2 ADD MLOAD PUSH1 0x3 SWAP1 SWAP2 ADD DUP1 SLOAD PUSH1 0xFF NOT AND SWAP2 ISZERO ISZERO SWAP2 SWAP1 SWAP2 OR SWAP1 SSTORE PUSH1 0x40 MLOAD PUSH1 0x1 SWAP1 PUSH1 0xB SWAP1 PUSH2 0x41BD SWAP1 DUP11 SWAP1 PUSH2 0x4BD9 JUMP JUMPDEST SWAP1 DUP2 MSTORE PUSH1 0x40 DUP1 MLOAD PUSH1 0x20 SWAP3 DUP2 SWAP1 SUB DUP4 ADD DUP2 KECCAK256 CALLER PUSH1 0x0 SWAP1 DUP2 MSTORE SWAP4 MSTORE SWAP2 KECCAK256 DUP1 SLOAD PUSH1 0xFF NOT AND SWAP3 ISZERO ISZERO SWAP3 SWAP1 SWAP3 OR SWAP1 SWAP2 SSTORE DUP2 SWAP1 PUSH1 0xC SWAP1 PUSH2 0x41F8 SWAP1 DUP11 SWAP1 PUSH2 0x4BD9 JUMP JUMPDEST SWAP1 DUP2 MSTORE PUSH1 0x40 DUP1 MLOAD PUSH1 0x20 SWAP3 DUP2 SWAP1 SUB DUP4 ADD SWAP1 KECCAK256 CALLER PUSH1 0x0 SWAP1 DUP2 MSTORE SWAP3 MSTORE DUP2 KECCAK256 SWAP2 SWAP1 SWAP2 SSTORE PUSH1 0x11 DUP1 SLOAD SWAP2 PUSH2 0x4225 DUP4 PUSH2 0x4E3A JUMP JUMPDEST SWAP1 SWAP2 SSTORE POP POP PUSH1 0x40 MLOAD CALLER SWAP1 PUSH2 0x423A SWAP1 DUP5 SWAP1 PUSH2 0x4BD9 JUMP JUMPDEST PUSH1 0x40 MLOAD DUP1 SWAP2 SUB SWAP1 KECCAK256 DUP9 PUSH1 0x40 MLOAD PUSH2 0x4250 SWAP2 SWAP1 PUSH2 0x4BD9 JUMP JUMPDEST PUSH1 0x40 MLOAD DUP1 SWAP2 SUB SWAP1 KECCAK256 PUSH32 0x7113F0BF6C156DE91047BC1021122F5E7103953F26C0628FDC1910EA15794B58 DUP9 DUP9 DUP9 TIMESTAMP PUSH1 0x40 MLOAD PUSH2 0x428D SWAP5 SWAP4 SWAP3 SWAP2 SWAP1 PUSH2 0x4F35 JUMP JUMPDEST PUSH1 0x40 MLOAD DUP1 SWAP2 SUB SWAP1 LOG4 POP POP POP POP POP POP POP JUMP JUMPDEST DUP1 CALLDATALOAD PUSH1 0x1 PUSH1 0x1 PUSH1 0xA0 SHL SUB DUP2 AND DUP2 EQ PUSH2 0x42B5 JUMPI PUSH1 0x0 DUP1 REVERT JUMPDEST SWAP2 SWAP1 POP JUMP JUMPDEST PUSH1 0x0 DUP1 PUSH1 0x40 DUP4 DUP6 SUB SLT ISZERO PUSH2 0x42CD JUMPI PUSH1 0x0 DUP1 REVERT JUMPDEST PUSH2 0x42D6 DUP4 PUSH2 0x429E JUMP JUMPDEST SWAP5 PUSH1 0x20 SWAP4 SWAP1 SWAP4 ADD CALLDATALOAD SWAP4 POP POP POP JUMP JUMPDEST PUSH1 0x0 JUMPDEST DUP4 DUP2 LT ISZERO PUSH2 0x42FF JUMPI DUP2 DUP2 ADD MLOAD DUP4 DUP3 ADD MSTORE PUSH1 0x20 ADD PUSH2 0x42E7 JUMP JUMPDEST POP POP PUSH1 0x0 SWAP2 ADD MSTORE JUMP JUMPDEST PUSH1 0x0 DUP2 MLOAD DUP1 DUP5 MSTORE PUSH2 0x4320 DUP2 PUSH1 0x20 DUP7 ADD PUSH1 0x20 DUP7 ADD PUSH2 0x42E4 JUMP JUMPDEST PUSH1 0x1F ADD PUSH1 0x1F NOT AND SWAP3 SWAP1 SWAP3 ADD PUSH1 0x20 ADD SWAP3 SWAP2 POP POP JUMP JUMPDEST PUSH1 0x20 DUP2 MSTORE PUSH1 0x0 PUSH2 0x4347 PUSH1 0x20 DUP4 ADD DUP5 PUSH2 0x4308 JUMP JUMPDEST SWAP4 SWAP3 POP POP POP JUMP JUMPDEST PUSH4 0x4E487B71 PUSH1 0xE0 SHL PUSH1 0x0 MSTORE PUSH1 0x41 PUSH1 0x4 MSTORE PUSH1 0x24 PUSH1 0x0 REVERT JUMPDEST PUSH1 0x0 DUP3 PUSH1 0x1F DUP4 ADD SLT PUSH2 0x4375 JUMPI PUSH1 0x0 DUP1 REVERT JUMPDEST DUP2 CALLDATALOAD PUSH8 0xFFFFFFFFFFFFFFFF DUP1 DUP3 GT ISZERO PUSH2 0x4390 JUMPI PUSH2 0x4390 PUSH2 0x434E JUMP JUMPDEST PUSH1 0x40 MLOAD PUSH1 0x1F DUP4 ADD PUSH1 0x1F NOT SWAP1 DUP2 AND PUSH1 0x3F ADD AND DUP2 ADD SWAP1 DUP3 DUP3 GT DUP2 DUP4 LT OR ISZERO PUSH2 0x43B8 JUMPI PUSH2 0x43B8 PUSH2 0x434E JUMP JUMPDEST DUP2 PUSH1 0x40 MSTORE DUP4 DUP2 MSTORE DUP7 PUSH1 0x20 DUP6 DUP9 ADD ADD GT ISZERO PUSH2 0x43D1 JUMPI PUSH1 0x0 DUP1 REVERT JUMPDEST DUP4 PUSH1 0x20 DUP8 ADD PUSH1 0x20 DUP4 ADD CALLDATACOPY PUSH1 0x0 PUSH1 0x20 DUP6 DUP4 ADD ADD MSTORE DUP1 SWAP5 POP POP POP POP POP SWAP3 SWAP2 POP POP JUMP JUMPDEST DUP1 CALLDATALOAD PUSH1 0xFF DUP2 AND DUP2 EQ PUSH2 0x42B5 JUMPI PUSH1 0x0 DUP1 REVERT JUMPDEST PUSH1 0x0 DUP1 PUSH1 0x0 PUSH1 0x60 DUP5 DUP7 SUB SLT ISZERO PUSH2 0x4417 JUMPI PUSH1 0x0 DUP1 REVERT JUMPDEST DUP4 CALLDATALOAD PUSH8 0xFFFFFFFFFFFFFFFF DUP2 GT ISZERO PUSH2 0x442E JUMPI PUSH1 0x0 DUP1 REVERT JUMPDEST PUSH2 0x443A DUP7 DUP3 DUP8 ADD PUSH2 0x4364 JUMP JUMPDEST SWAP4 POP POP PUSH2 0x4449 PUSH1 0x20 DUP6 ADD PUSH2 0x43F1 JUMP JUMPDEST SWAP2 POP PUSH2 0x4457 PUSH1 0x40 DUP6 ADD PUSH2 0x43F1 JUMP JUMPDEST SWAP1 POP SWAP3 POP SWAP3 POP SWAP3 JUMP JUMPDEST PUSH1 0x0 PUSH1 0x20 DUP3 DUP5 SUB SLT ISZERO PUSH2 0x4472 JUMPI PUSH1 0x0 DUP1 REVERT JUMPDEST PUSH2 0x4347 DUP3 PUSH2 0x429E JUMP JUMPDEST PUSH1 0x0 PUSH1 0x20 DUP1 DUP4 ADD PUSH1 0x20 DUP5 MSTORE DUP1 DUP6 MLOAD DUP1 DUP4 MSTORE PUSH1 0x40 DUP7 ADD SWAP2 POP PUSH1 0x40 DUP2 PUSH1 0x5 SHL DUP8 ADD ADD SWAP3 POP PUSH1 0x20 DUP8 ADD PUSH1 0x0 JUMPDEST DUP3 DUP2 LT ISZERO PUSH2 0x44D2 JUMPI PUSH1 0x3F NOT DUP9 DUP7 SUB ADD DUP5 MSTORE PUSH2 0x44C0 DUP6 DUP4 MLOAD PUSH2 0x4308 JUMP JUMPDEST SWAP5 POP SWAP3 DUP6 ADD SWAP3 SWAP1 DUP6 ADD SWAP1 PUSH1 0x1 ADD PUSH2 0x44A4 JUMP JUMPDEST POP SWAP3 SWAP8 SWAP7 POP POP POP POP POP POP POP JUMP JUMPDEST PUSH1 0x0 DUP1 PUSH1 0x40 DUP4 DUP6 SUB SLT ISZERO PUSH2 0x44F2 JUMPI PUSH1 0x0 DUP1 REVERT JUMPDEST DUP3 CALLDATALOAD PUSH8 0xFFFFFFFFFFFFFFFF DUP2 GT ISZERO PUSH2 0x4509 JUMPI PUSH1 0x0 DUP1 REVERT JUMPDEST PUSH2 0x4515 DUP6 DUP3 DUP7 ADD PUSH2 0x4364 JUMP JUMPDEST SWAP3 POP POP PUSH2 0x4524 PUSH1 0x20 DUP5 ADD PUSH2 0x429E JUMP JUMPDEST SWAP1 POP SWAP3 POP SWAP3 SWAP1 POP JUMP JUMPDEST PUSH1 0x20 DUP1 DUP3 MSTORE DUP3 MLOAD DUP3 DUP3 ADD DUP2 SWAP1 MSTORE PUSH1 0x0 SWAP2 SWAP1 PUSH1 0x40 SWAP1 DUP2 DUP6 ADD SWAP1 DUP7 DUP5 ADD DUP6 JUMPDEST DUP3 DUP2 LT ISZERO PUSH2 0x4584 JUMPI DUP2 MLOAD DUP1 MLOAD PUSH1 0x1 PUSH1 0x1 PUSH1 0xA0 SHL SUB AND DUP6 MSTORE DUP7 DUP2 ADD MLOAD ISZERO ISZERO DUP8 DUP7 ADD MSTORE DUP6 ADD MLOAD DUP6 DUP6 ADD MSTORE PUSH1 0x60 SWAP1 SWAP4 ADD SWAP3 SWAP1 DUP6 ADD SWAP1 PUSH1 0x1 ADD PUSH2 0x454A JUMP JUMPDEST POP SWAP2 SWAP8 SWAP7 POP POP POP POP POP POP POP JUMP JUMPDEST PUSH1 0x0 DUP1 PUSH1 0x0 PUSH1 0x60 DUP5 DUP7 SUB SLT ISZERO PUSH2 0x45A6 JUMPI PUSH1 0x0 DUP1 REVERT JUMPDEST DUP4 CALLDATALOAD PUSH8 0xFFFFFFFFFFFFFFFF DUP1 DUP3 GT ISZERO PUSH2 0x45BE JUMPI PUSH1 0x0 DUP1 REVERT JUMPDEST PUSH2 0x45CA DUP8 DUP4 DUP9 ADD PUSH2 0x4364 JUMP JUMPDEST SWAP5 POP PUSH1 0x20 DUP7 ADD CALLDATALOAD SWAP2 POP DUP1 DUP3 GT ISZERO PUSH2 0x45E0 JUMPI PUSH1 0x0 DUP1 REVERT JUMPDEST POP PUSH2 0x45ED DUP7 DUP3 DUP8 ADD PUSH2 0x4364 JUMP JUMPDEST SWAP3 POP POP PUSH2 0x4457 PUSH1 0x40 DUP6 ADD PUSH2 0x429E JUMP JUMPDEST PUSH1 0x0 DUP1 PUSH1 0x0 DUP1 PUSH1 0x80 DUP6 DUP8 SUB SLT ISZERO PUSH2 0x4612 JUMPI PUSH1 0x0 DUP1 REVERT JUMPDEST DUP5 CALLDATALOAD PUSH8 0xFFFFFFFFFFFFFFFF DUP1 DUP3 GT ISZERO PUSH2 0x462A JUMPI PUSH1 0x0 DUP1 REVERT JUMPDEST PUSH2 0x4636 DUP9 DUP4 DUP10 ADD PUSH2 0x4364 JUMP JUMPDEST SWAP6 POP PUSH2 0x4644 PUSH1 0x20 DUP9 ADD PUSH2 0x43F1 JUMP JUMPDEST SWAP5 POP PUSH2 0x4652 PUSH1 0x40 DUP9 ADD PUSH2 0x43F1 JUMP JUMPDEST SWAP4 POP PUSH1 0x60 DUP8 ADD CALLDATALOAD SWAP2 POP DUP1 DUP3 GT ISZERO PUSH2 0x4668 JUMPI PUSH1 0x0 DUP1 REVERT JUMPDEST POP PUSH2 0x4675 DUP8 DUP3 DUP9 ADD PUSH2 0x4364 JUMP JUMPDEST SWAP2 POP POP SWAP3 SWAP6 SWAP2 SWAP5 POP SWAP3 POP JUMP JUMPDEST PUSH1 0x0 PUSH1 0x20 DUP3 DUP5 SUB SLT ISZERO PUSH2 0x4693 JUMPI PUSH1 0x0 DUP1 REVERT JUMPDEST DUP2 CALLDATALOAD PUSH8 0xFFFFFFFFFFFFFFFF DUP2 GT ISZERO PUSH2 0x46AA JUMPI PUSH1 0x0 DUP1 REVERT JUMPDEST PUSH2 0x46B6 DUP5 DUP3 DUP6 ADD PUSH2 0x4364 JUMP JUMPDEST SWAP5 SWAP4 POP POP POP POP JUMP JUMPDEST PUSH4 0x4E487B71 PUSH1 0xE0 SHL PUSH1 0x0 MSTORE PUSH1 0x21 PUSH1 0x4 MSTORE PUSH1 0x24 PUSH1 0x0 REVERT JUMPDEST PUSH1 0x2 DUP2 LT PUSH2 0x46E4 JUMPI PUSH2 0x46E4 PUSH2 0x46BE JUMP JUMPDEST SWAP1 MSTORE JUMP JUMPDEST PUSH1 0x4 DUP2 LT PUSH2 0x46E4 JUMPI PUSH2 0x46E4 PUSH2 0x46BE JUMP JUMPDEST PUSH1 0x6 DUP2 LT PUSH2 0x46E4 JUMPI PUSH2 0x46E4 PUSH2 0x46BE JUMP JUMPDEST PUSH1 0x0 PUSH1 0x20 DUP1 DUP4 ADD DUP2 DUP5 MSTORE DUP1 DUP6 MLOAD DUP1 DUP4 MSTORE PUSH1 0x40 SWAP3 POP PUSH1 0x40 DUP7 ADD SWAP2 POP PUSH1 0x40 DUP2 PUSH1 0x5 SHL DUP8 ADD ADD DUP5 DUP9 ADD PUSH1 0x0 JUMPDEST DUP4 DUP2 LT ISZERO PUSH2 0x47D0 JUMPI DUP9 DUP4 SUB PUSH1 0x3F NOT ADD DUP6 MSTORE DUP2 MLOAD DUP1 MLOAD PUSH1 0x1 PUSH1 0x1 PUSH1 0xA0 SHL SUB AND DUP5 MSTORE DUP8 DUP2 ADD MLOAD PUSH1 0xE0 SWAP1 PUSH2 0x4764 DUP11 DUP8 ADD DUP3 PUSH2 0x46D4 JUMP JUMPDEST POP DUP8 DUP3 ADD MLOAD PUSH2 0x4775 DUP10 DUP8 ADD DUP3 PUSH2 0x46E8 JUMP JUMPDEST POP PUSH1 0x60 DUP1 DUP4 ADD MLOAD PUSH2 0x4788 DUP3 DUP9 ADD DUP3 PUSH2 0x46F8 JUMP JUMPDEST POP POP PUSH1 0x80 DUP1 DUP4 ADD MLOAD DUP2 DUP8 ADD MSTORE POP PUSH1 0xA0 DUP1 DUP4 ADD MLOAD DUP3 DUP3 DUP9 ADD MSTORE PUSH2 0x47AC DUP4 DUP9 ADD DUP3 PUSH2 0x4308 JUMP JUMPDEST PUSH1 0xC0 SWAP5 DUP6 ADD MLOAD ISZERO ISZERO SWAP8 SWAP1 SWAP5 ADD SWAP7 SWAP1 SWAP7 MSTORE POP POP SWAP5 DUP8 ADD SWAP5 SWAP3 POP SWAP1 DUP7 ADD SWAP1 PUSH1 0x1 ADD PUSH2 0x4731 JUMP JUMPDEST POP SWAP1 SWAP9 SWAP8 POP POP POP POP POP POP POP POP JUMP JUMPDEST PUSH1 0x0 DUP1 PUSH1 0x0 PUSH1 0x60 DUP5 DUP7 SUB SLT ISZERO PUSH2 0x47F3 JUMPI PUSH1 0x0 DUP1 REVERT JUMPDEST DUP4 CALLDATALOAD PUSH8 0xFFFFFFFFFFFFFFFF DUP2 GT ISZERO PUSH2 0x480A JUMPI PUSH1 0x0 DUP1 REVERT JUMPDEST PUSH2 0x4816 DUP7 DUP3 DUP8 ADD PUSH2 0x4364 JUMP JUMPDEST SWAP4 POP POP PUSH2 0x4825 PUSH1 0x20 DUP6 ADD PUSH2 0x429E JUMP JUMPDEST SWAP2 POP PUSH1 0x40 DUP5 ADD CALLDATALOAD SWAP1 POP SWAP3 POP SWAP3 POP SWAP3 JUMP JUMPDEST PUSH1 0x0 PUSH2 0x100 DUP1 DUP4 MSTORE PUSH2 0x4849 DUP2 DUP5 ADD DUP13 PUSH2 0x4308 JUMP JUMPDEST PUSH1 0x1 PUSH1 0x1 PUSH1 0xA0 SHL SUB DUP12 DUP2 AND PUSH1 0x20 DUP7 ADD MSTORE DUP11 AND PUSH1 0x40 DUP6 ADD MSTORE DUP4 DUP2 SUB PUSH1 0x60 DUP6 ADD MSTORE SWAP1 POP PUSH2 0x4874 DUP2 DUP10 PUSH2 0x4308 JUMP JUMPDEST PUSH1 0x80 DUP5 ADD SWAP8 SWAP1 SWAP8 MSTORE POP POP PUSH1 0xA0 DUP2 ADD SWAP4 SWAP1 SWAP4 MSTORE SWAP1 ISZERO ISZERO PUSH1 0xC0 DUP4 ADD MSTORE ISZERO ISZERO PUSH1 0xE0 SWAP1 SWAP2 ADD MSTORE SWAP5 SWAP4 POP POP POP POP JUMP JUMPDEST PUSH1 0x0 DUP1 PUSH1 0x40 DUP4 DUP6 SUB SLT ISZERO PUSH2 0x48B1 JUMPI PUSH1 0x0 DUP1 REVERT JUMPDEST DUP3 CALLDATALOAD PUSH8 0xFFFFFFFFFFFFFFFF DUP1 DUP3 GT ISZERO PUSH2 0x48C9 JUMPI PUSH1 0x0 DUP1 REVERT JUMPDEST PUSH2 0x48D5 DUP7 DUP4 DUP8 ADD PUSH2 0x4364 JUMP JUMPDEST SWAP4 POP PUSH1 0x20 DUP6 ADD CALLDATALOAD SWAP2 POP DUP1 DUP3 GT ISZERO PUSH2 0x48EB JUMPI PUSH1 0x0 DUP1 REVERT JUMPDEST POP PUSH2 0x48F8 DUP6 DUP3 DUP7 ADD PUSH2 0x4364 JUMP JUMPDEST SWAP2 POP POP SWAP3 POP SWAP3 SWAP1 POP JUMP JUMPDEST PUSH1 0xC0 DUP2 MSTORE PUSH1 0x0 PUSH2 0x4915 PUSH1 0xC0 DUP4 ADD DUP10 PUSH2 0x4308 JUMP JUMPDEST DUP3 DUP2 SUB PUSH1 0x20 DUP5 ADD MSTORE PUSH2 0x4927 DUP2 DUP10 PUSH2 0x4308 JUMP JUMPDEST PUSH1 0x1 PUSH1 0x1 PUSH1 0xA0 SHL SUB SWAP8 DUP9 AND PUSH1 0x40 DUP6 ADD MSTORE PUSH1 0x60 DUP5 ADD SWAP7 SWAP1 SWAP7 MSTORE POP POP SWAP2 SWAP1 SWAP4 AND PUSH1 0x80 DUP3 ADD MSTORE SWAP2 ISZERO ISZERO PUSH1 0xA0 SWAP1 SWAP3 ADD SWAP2 SWAP1 SWAP2 MSTORE SWAP3 SWAP2 POP POP JUMP JUMPDEST PUSH1 0x0 DUP1 PUSH1 0x0 PUSH1 0x60 DUP5 DUP7 SUB SLT ISZERO PUSH2 0x4971 JUMPI PUSH1 0x0 DUP1 REVERT JUMPDEST DUP4 CALLDATALOAD PUSH8 0xFFFFFFFFFFFFFFFF DUP2 GT ISZERO PUSH2 0x4988 JUMPI PUSH1 0x0 DUP1 REVERT JUMPDEST PUSH2 0x4994 DUP7 DUP3 DUP8 ADD PUSH2 0x4364 JUMP JUMPDEST SWAP4 POP POP PUSH2 0x49A3 PUSH1 0x20 DUP6 ADD PUSH2 0x429E JUMP JUMPDEST SWAP2 POP PUSH2 0x4457 PUSH1 0x40 DUP6 ADD PUSH2 0x429E JUMP JUMPDEST PUSH1 0x0 DUP1 PUSH1 0x40 DUP4 DUP6 SUB SLT ISZERO PUSH2 0x49C4 JUMPI PUSH1 0x0 DUP1 REVERT JUMPDEST DUP3 CALLDATALOAD PUSH8 0xFFFFFFFFFFFFFFFF DUP2 GT ISZERO PUSH2 0x49DB JUMPI PUSH1 0x0 DUP1 REVERT JUMPDEST PUSH2 0x49E7 DUP6 DUP3 DUP7 ADD PUSH2 0x4364 JUMP JUMPDEST SWAP6 PUSH1 0x20 SWAP5 SWAP1 SWAP5 ADD CALLDATALOAD SWAP5 POP POP POP POP JUMP JUMPDEST PUSH1 0x1 PUSH1 0x1 PUSH1 0xA0 SHL SUB DUP9 AND DUP2 MSTORE PUSH2 0x4A0F PUSH1 0x20 DUP3 ADD DUP9 PUSH2 0x46D4 JUMP JUMPDEST PUSH2 0x4A1C PUSH1 0x40 DUP3 ADD DUP8 PUSH2 0x46E8 JUMP JUMPDEST PUSH2 0x4A29 PUSH1 0x60 DUP3 ADD DUP7 PUSH2 0x46F8 JUMP JUMPDEST DUP4 PUSH1 0x80 DUP3 ADD MSTORE PUSH1 0xE0 PUSH1 0xA0 DUP3 ADD MSTORE PUSH1 0x0 PUSH2 0x4A45 PUSH1 0xE0 DUP4 ADD DUP6 PUSH2 0x4308 JUMP JUMPDEST SWAP1 POP DUP3 ISZERO ISZERO PUSH1 0xC0 DUP4 ADD MSTORE SWAP9 SWAP8 POP POP POP POP POP POP POP POP JUMP JUMPDEST DUP1 ISZERO ISZERO DUP2 EQ PUSH2 0x4A69 JUMPI PUSH1 0x0 DUP1 REVERT JUMPDEST POP JUMP JUMPDEST PUSH1 0x0 DUP1 PUSH1 0x0 PUSH1 0x60 DUP5 DUP7 SUB SLT ISZERO PUSH2 0x4A81 JUMPI PUSH1 0x0 DUP1 REVERT JUMPDEST DUP4 CALLDATALOAD PUSH8 0xFFFFFFFFFFFFFFFF DUP2 GT ISZERO PUSH2 0x4A98 JUMPI PUSH1 0x0 DUP1 REVERT JUMPDEST PUSH2 0x4AA4 DUP7 DUP3 DUP8 ADD PUSH2 0x4364 JUMP JUMPDEST SWAP4 POP POP PUSH2 0x4AB3 PUSH1 0x20 DUP6 ADD PUSH2 0x429E JUMP JUMPDEST SWAP2 POP PUSH1 0x40 DUP5 ADD CALLDATALOAD PUSH2 0x4AC3 DUP2 PUSH2 0x4A5B JUMP JUMPDEST DUP1 SWAP2 POP POP SWAP3 POP SWAP3 POP SWAP3 JUMP JUMPDEST DUP6 ISZERO ISZERO DUP2 MSTORE PUSH2 0x4AE0 PUSH1 0x20 DUP3 ADD DUP7 PUSH2 0x46D4 JUMP JUMPDEST DUP4 PUSH1 0x40 DUP3 ADD MSTORE PUSH1 0xA0 PUSH1 0x60 DUP3 ADD MSTORE PUSH1 0x0 PUSH2 0x4AFC PUSH1 0xA0 DUP4 ADD DUP6 PUSH2 0x4308 JUMP JUMPDEST SWAP1 POP DUP3 ISZERO ISZERO PUSH1 0x80 DUP4 ADD MSTORE SWAP7 SWAP6 POP POP POP POP POP POP JUMP JUMPDEST PUSH1 0xA0 DUP2 MSTORE PUSH1 0x0 PUSH2 0x4B23 PUSH1 0xA0 DUP4 ADD DUP9 PUSH2 0x4308 JUMP JUMPDEST PUSH1 0x1 PUSH1 0x1 PUSH1 0xA0 SHL SUB SWAP7 DUP8 AND PUSH1 0x20 DUP5 ADD MSTORE PUSH1 0x40 DUP4 ADD SWAP6 SWAP1 SWAP6 MSTORE POP SWAP2 SWAP1 SWAP4 AND PUSH1 0x60 DUP3 ADD MSTORE SWAP2 ISZERO ISZERO PUSH1 0x80 SWAP1 SWAP3 ADD SWAP2 SWAP1 SWAP2 MSTORE SWAP2 SWAP1 POP JUMP JUMPDEST DUP7 ISZERO ISZERO DUP2 MSTORE PUSH1 0x1 PUSH1 0x1 PUSH1 0xA0 SHL SUB DUP7 DUP2 AND PUSH1 0x20 DUP4 ADD MSTORE DUP6 AND PUSH1 0x40 DUP3 ADD MSTORE PUSH1 0xC0 PUSH1 0x60 DUP3 ADD DUP2 SWAP1 MSTORE PUSH1 0x0 SWAP1 PUSH2 0x4B8A SWAP1 DUP4 ADD DUP7 PUSH2 0x4308 JUMP JUMPDEST PUSH1 0x80 DUP4 ADD SWAP5 SWAP1 SWAP5 MSTORE POP PUSH1 0xA0 ADD MSTORE SWAP5 SWAP4 POP POP POP POP JUMP JUMPDEST PUSH1 0x1 DUP2 DUP2 SHR SWAP1 DUP3 AND DUP1 PUSH2 0x4BB3 JUMPI PUSH1 0x7F DUP3 AND SWAP2 POP JUMPDEST PUSH1 0x20 DUP3 LT DUP2 SUB PUSH2 0x4BD3 JUMPI PUSH4 0x4E487B71 PUSH1 0xE0 SHL PUSH1 0x0 MSTORE PUSH1 0x22 PUSH1 0x4 MSTORE PUSH1 0x24 PUSH1 0x0 REVERT JUMPDEST POP SWAP2 SWAP1 POP JUMP JUMPDEST PUSH1 0x0 DUP3 MLOAD PUSH2 0x4BEB DUP2 DUP5 PUSH1 0x20 DUP8 ADD PUSH2 0x42E4 JUMP JUMPDEST SWAP2 SWAP1 SWAP2 ADD SWAP3 SWAP2 POP POP JUMP JUMPDEST PUSH1 0x20 DUP1 DUP3 MSTORE PUSH1 0x13 SWAP1 DUP3 ADD MSTORE PUSH19 0x149958DBDC99081B9BDD08185B98DA1BDC9959 PUSH1 0x6A SHL PUSH1 0x40 DUP3 ADD MSTORE PUSH1 0x60 ADD SWAP1 JUMP JUMPDEST PUSH4 0x4E487B71 PUSH1 0xE0 SHL PUSH1 0x0 MSTORE PUSH1 0x32 PUSH1 0x4 MSTORE PUSH1 0x24 PUSH1 0x0 REVERT JUMPDEST PUSH1 0xA0 DUP2 ADD PUSH2 0x4C46 DUP3 DUP9 PUSH2 0x46E8 JUMP JUMPDEST PUSH2 0x4C53 PUSH1 0x20 DUP4 ADD DUP8 PUSH2 0x46E8 JUMP JUMPDEST PUSH2 0x4C60 PUSH1 0x40 DUP4 ADD DUP7 PUSH2 0x46F8 JUMP JUMPDEST PUSH2 0x4C6D PUSH1 0x60 DUP4 ADD DUP6 PUSH2 0x46F8 JUMP JUMPDEST DUP3 PUSH1 0x80 DUP4 ADD MSTORE SWAP7 SWAP6 POP POP POP POP POP POP JUMP JUMPDEST PUSH1 0x0 PUSH1 0x20 DUP3 DUP5 SUB SLT ISZERO PUSH2 0x4C8F JUMPI PUSH1 0x0 DUP1 REVERT JUMPDEST DUP2 MLOAD PUSH2 0x4347 DUP2 PUSH2 0x4A5B JUMP JUMPDEST PUSH1 0x20 DUP1 DUP3 MSTORE PUSH1 0x15 SWAP1 DUP3 ADD MSTORE PUSH21 0x2737BA1030903B32B934B334B2B21036B2B6B132B9 PUSH1 0x59 SHL PUSH1 0x40 DUP3 ADD MSTORE PUSH1 0x60 ADD SWAP1 JUMP JUMPDEST PUSH1 0x40 DUP2 MSTORE PUSH1 0x0 PUSH2 0x4CDC PUSH1 0x40 DUP4 ADD DUP6 PUSH2 0x4308 JUMP JUMPDEST SWAP1 POP PUSH1 0x1 DUP1 PUSH1 0xA0 SHL SUB DUP4 AND PUSH1 0x20 DUP4 ADD MSTORE SWAP4 SWAP3 POP POP POP JUMP JUMPDEST PUSH1 0x20 DUP1 DUP3 MSTORE PUSH1 0x18 SWAP1 DUP3 ADD MSTORE PUSH32 0x4E6F2061636365737320746F2074686973207265636F72640000000000000000 PUSH1 0x40 DUP3 ADD MSTORE PUSH1 0x60 ADD SWAP1 JUMP JUMPDEST PUSH1 0x1F DUP3 GT ISZERO PUSH2 0x1E89 JUMPI PUSH1 0x0 DUP2 PUSH1 0x0 MSTORE PUSH1 0x20 PUSH1 0x0 KECCAK256 PUSH1 0x1F DUP6 ADD PUSH1 0x5 SHR DUP2 ADD PUSH1 0x20 DUP7 LT ISZERO PUSH2 0x4D53 JUMPI POP DUP1 JUMPDEST PUSH1 0x1F DUP6 ADD PUSH1 0x5 SHR DUP3 ADD SWAP2 POP JUMPDEST DUP2 DUP2 LT ISZERO PUSH2 0x4D72 JUMPI DUP3 DUP2 SSTORE PUSH1 0x1 ADD PUSH2 0x4D5F JUMP JUMPDEST POP POP POP POP POP POP JUMP JUMPDEST DUP2 MLOAD PUSH8 0xFFFFFFFFFFFFFFFF DUP2 GT ISZERO PUSH2 0x4D94 JUMPI PUSH2 0x4D94 PUSH2 0x434E JUMP JUMPDEST PUSH2 0x4DA8 DUP2 PUSH2 0x4DA2 DUP5 SLOAD PUSH2 0x4B9F JUMP JUMPDEST DUP5 PUSH2 0x4D2A JUMP JUMPDEST PUSH1 0x20 DUP1 PUSH1 0x1F DUP4 GT PUSH1 0x1 DUP2 EQ PUSH2 0x4DDD JUMPI PUSH1 0x0 DUP5 ISZERO PUSH2 0x4DC5 JUMPI POP DUP6 DUP4 ADD MLOAD JUMPDEST PUSH1 0x0 NOT PUSH1 0x3 DUP7 SWAP1 SHL SHR NOT AND PUSH1 0x1 DUP6 SWAP1 SHL OR DUP6 SSTORE PUSH2 0x4D72 JUMP JUMPDEST PUSH1 0x0 DUP6 DUP2 MSTORE PUSH1 0x20 DUP2 KECCAK256 PUSH1 0x1F NOT DUP7 AND SWAP2 JUMPDEST DUP3 DUP2 LT ISZERO PUSH2 0x4E0C JUMPI DUP9 DUP7 ADD MLOAD DUP3 SSTORE SWAP5 DUP5 ADD SWAP5 PUSH1 0x1 SWAP1 SWAP2 ADD SWAP1 DUP5 ADD PUSH2 0x4DED JUMP JUMPDEST POP DUP6 DUP3 LT ISZERO PUSH2 0x4E2A JUMPI DUP8 DUP6 ADD MLOAD PUSH1 0x0 NOT PUSH1 0x3 DUP9 SWAP1 SHL PUSH1 0xF8 AND SHR NOT AND DUP2 SSTORE JUMPDEST POP POP POP POP POP PUSH1 0x1 SWAP1 DUP2 SHL ADD SWAP1 SSTORE POP JUMP JUMPDEST PUSH1 0x0 PUSH1 0x1 DUP3 ADD PUSH2 0x4E5A JUMPI PUSH4 0x4E487B71 PUSH1 0xE0 SHL PUSH1 0x0 MSTORE PUSH1 0x11 PUSH1 0x4 MSTORE PUSH1 0x24 PUSH1 0x0 REVERT JUMPDEST POP PUSH1 0x1 ADD SWAP1 JUMP JUMPDEST PUSH1 0x40 DUP2 MSTORE PUSH1 0x0 PUSH2 0x4E74 PUSH1 0x40 DUP4 ADD DUP6 PUSH2 0x4308 JUMP JUMPDEST SWAP1 POP DUP3 PUSH1 0x20 DUP4 ADD MSTORE SWAP4 SWAP3 POP POP POP JUMP JUMPDEST PUSH1 0x40 DUP2 ADD PUSH2 0x4E91 DUP3 DUP6 PUSH2 0x46D4 JUMP JUMPDEST DUP3 PUSH1 0x20 DUP4 ADD MSTORE SWAP4 SWAP3 POP POP POP JUMP JUMPDEST PUSH1 0x40 DUP2 MSTORE PUSH1 0x0 DUP1 DUP5 SLOAD PUSH2 0x4EB0 DUP2 PUSH2 0x4B9F JUMP JUMPDEST DUP1 PUSH1 0x40 DUP7 ADD MSTORE PUSH1 0x60 PUSH1 0x1 DUP1 DUP5 AND PUSH1 0x0 DUP2 EQ PUSH2 0x4ED2 JUMPI PUSH1 0x1 DUP2 EQ PUSH2 0x4EEE JUMPI PUSH2 0x4F20 JUMP JUMPDEST PUSH1 0xFF NOT DUP6 AND PUSH1 0x60 DUP10 ADD MSTORE PUSH1 0x60 DUP5 ISZERO ISZERO PUSH1 0x5 SHL DUP10 ADD ADD SWAP6 POP PUSH2 0x4F20 JUMP JUMPDEST DUP10 PUSH1 0x0 MSTORE PUSH1 0x20 DUP1 PUSH1 0x0 KECCAK256 PUSH1 0x0 JUMPDEST DUP7 DUP2 LT ISZERO PUSH2 0x4F16 JUMPI DUP2 SLOAD DUP12 DUP3 ADD DUP8 ADD MSTORE SWAP1 DUP5 ADD SWAP1 DUP3 ADD PUSH2 0x4EFB JUMP JUMPDEST DUP11 ADD PUSH1 0x60 ADD SWAP8 POP POP POP JUMPDEST POP POP POP POP POP PUSH1 0x20 SWAP3 SWAP1 SWAP3 ADD SWAP3 SWAP1 SWAP3 MSTORE SWAP3 SWAP2 POP POP JUMP JUMPDEST PUSH1 0x80 DUP2 ADD PUSH2 0x4F43 DUP3 DUP8 PUSH2 0x46D4 JUMP JUMPDEST PUSH2 0x4F50 PUSH1 0x20 DUP4 ADD DUP7 PUSH2 0x46E8 JUMP JUMPDEST PUSH2 0x4F5D PUSH1 0x40 DUP4 ADD DUP6 PUSH2 0x46F8 JUMP JUMPDEST DUP3 PUSH1 0x60 DUP4 ADD MSTORE SWAP6 SWAP5 POP POP POP POP POP JUMP INVALID LOG2 PUSH5 0x6970667358 0x22 SLT KECCAK256 CHAINID DUP16 EQ 0xA9 0xC DUP8 0xEC 0x49 PUSH26 0x288D9117653989FA919E7B9EBF9D032484A5BA339BFDE064736F PUSH13 0x63430008170033000000000000 "},"methodIdentifiers":{"accessPermissions(string)":"3aaaaf88","admin()":"f851a440","anchorRecord(string,string,address)":"19c61953","anchoredRecords(string)":"7ea79e9c","checkAccess(string)":"f6cc55f9","disputeReactions(string,address,uint256)":"328c5aa1","disputeRecord(string,uint8,uint8,string)":"1af43c91","disputesByUser(address,uint256)":"03635170","getAnchoredRecord(string)":"b5d3bc05","getDisputeReactionStats(string,address)":"3cfbc7cb","getDisputeReactions(string,address)":"1655408d","getHashesByRecordId(string)":"81c86b33","getPermissionsByReceiver(address)":"f25b7f45","getPermissionsBySharer(address)":"86c097f7","getRecordSubject(string)":"ad6f0281","getRecordsAboutSubject(address)":"c542ef40","getReviewStats(string)":"3ecd54be","getReviews(string)":"2978465d","getSharerStats(address)":"6b032610","getTotalPermissions()":"37811534","getTotalStats()":"fc5cbf1d","getUserDisputes(address)":"bfb0a55b","getUserReview(string,address)":"a5a6958e","getUserReviewHistory(address)":"86564c8e","getUserVerifications(address)":"1469fab7","grantAccess(string,string,address)":"3935b076","hasReactedToDispute(string,address,address)":"8625d384","hasReviewed(string,address)":"80fcd817","isSubject(string,address)":"291c2b16","memberRoleManager()":"15370703","modifyDispute(string,uint8,uint8)":"10a0e88a","permissionsByReceiver(address,uint256)":"bed6e79e","permissionsBySharer(address,uint256)":"3a779568","reactToDispute(string,address,bool)":"9e90e34a","recordHashesByRecordId(string,uint256)":"e589425e","recordReviews(string,uint256)":"889a7eee","recordsAboutSubject(address,uint256)":"a0653611","retractReview(string)":"b10e4a0b","revokeAccess(string)":"fb310c59","setMemberRoleManager(address)":"dd0bc082","totalAnchoredRecords()":"1cf8cbe8","totalPermissions()":"2ec1ca8a","totalReviews()":"e2367890","transferAdmin(address)":"75829def","userReviewIndex(string,address)":"e0f3e86e","verificationsByUser(address,uint256)":"47580b56","verifyRecord(string,string)":"3de2e8e9"}}}}}