{"contracts/MemberRoleManager.sol":{"MemberRoleManager":{"abi":[{"inputs":[],"stateMutability":"nonpayable","type":"constructor"},{"inputs":[{"internalType":"address","name":"target","type":"address"}],"name":"AddressEmptyCode","type":"error"},{"inputs":[{"internalType":"address","name":"implementation","type":"address"}],"name":"ERC1967InvalidImplementation","type":"error"},{"inputs":[],"name":"ERC1967NonPayable","type":"error"},{"inputs":[],"name":"FailedInnerCall","type":"error"},{"inputs":[],"name":"InvalidInitialization","type":"error"},{"inputs":[],"name":"NotInitializing","type":"error"},{"inputs":[],"name":"UUPSUnauthorizedCallContext","type":"error"},{"inputs":[{"internalType":"bytes32","name":"slot","type":"bytes32"}],"name":"UUPSUnsupportedProxiableUUID","type":"error"},{"anonymous":false,"inputs":[{"indexed":true,"internalType":"address","name":"oldAdmin","type":"address"},{"indexed":true,"internalType":"address","name":"newAdmin","type":"address"},{"indexed":false,"internalType":"uint256","name":"timestamp","type":"uint256"}],"name":"AdminTransferred","type":"event"},{"anonymous":false,"inputs":[{"indexed":false,"internalType":"uint64","name":"version","type":"uint64"}],"name":"Initialized","type":"event"},{"anonymous":false,"inputs":[{"indexed":true,"internalType":"address","name":"wallet","type":"address"},{"indexed":true,"internalType":"bytes32","name":"userIdHash","type":"bytes32"},{"indexed":false,"internalType":"uint256","name":"timestamp","type":"uint256"}],"name":"MemberRegistered","type":"event"},{"anonymous":false,"inputs":[{"indexed":true,"internalType":"bytes32","name":"userIdHash","type":"bytes32"},{"indexed":false,"internalType":"enum MemberRoleManager.MemberStatus","name":"oldStatus","type":"uint8"},{"indexed":false,"internalType":"enum MemberRoleManager.MemberStatus","name":"newStatus","type":"uint8"},{"indexed":true,"internalType":"address","name":"changedBy","type":"address"},{"indexed":false,"internalType":"uint256","name":"timestamp","type":"uint256"}],"name":"MemberStatusChanged","type":"event"},{"anonymous":false,"inputs":[{"indexed":true,"internalType":"string","name":"recordId","type":"string"},{"indexed":true,"internalType":"bytes32","name":"userIdHash","type":"bytes32"},{"indexed":false,"internalType":"uint256","name":"timestamp","type":"uint256"}],"name":"OwnershipVoluntarilyLeft","type":"event"},{"anonymous":false,"inputs":[{"indexed":true,"internalType":"string","name":"recordId","type":"string"},{"indexed":true,"internalType":"bytes32","name":"targetIdHash","type":"bytes32"},{"indexed":false,"internalType":"string","name":"oldRole","type":"string"},{"indexed":false,"internalType":"string","name":"newRole","type":"string"},{"indexed":true,"internalType":"bytes32","name":"userIdHash","type":"bytes32"},{"indexed":false,"internalType":"uint256","name":"timestamp","type":"uint256"}],"name":"RoleChanged","type":"event"},{"anonymous":false,"inputs":[{"indexed":true,"internalType":"string","name":"recordId","type":"string"},{"indexed":true,"internalType":"bytes32","name":"targetIdHash","type":"bytes32"},{"indexed":false,"internalType":"string","name":"role","type":"string"},{"indexed":true,"internalType":"bytes32","name":"userIdHash","type":"bytes32"},{"indexed":false,"internalType":"uint256","name":"timestamp","type":"uint256"}],"name":"RoleGranted","type":"event"},{"anonymous":false,"inputs":[{"indexed":true,"internalType":"string","name":"recordId","type":"string"},{"indexed":true,"internalType":"bytes32","name":"targetIdHash","type":"bytes32"},{"indexed":false,"internalType":"string","name":"role","type":"string"},{"indexed":true,"internalType":"bytes32","name":"userIdHash","type":"bytes32"},{"indexed":false,"internalType":"uint256","name":"timestamp","type":"uint256"}],"name":"RoleRevoked","type":"event"},{"anonymous":false,"inputs":[{"indexed":true,"internalType":"address","name":"implementation","type":"address"}],"name":"Upgraded","type":"event"},{"anonymous":false,"inputs":[{"indexed":true,"internalType":"address","name":"wallet","type":"address"},{"indexed":true,"internalType":"bytes32","name":"userIdHash","type":"bytes32"},{"indexed":false,"internalType":"uint256","name":"timestamp","type":"uint256"}],"name":"WalletLinked","type":"event"},{"inputs":[],"name":"UPGRADE_INTERFACE_VERSION","outputs":[{"internalType":"string","name":"","type":"string"}],"stateMutability":"view","type":"function"},{"inputs":[{"internalType":"address","name":"wallet","type":"address"},{"internalType":"bytes32","name":"userIdHash","type":"bytes32"}],"name":"addMember","outputs":[],"stateMutability":"nonpayable","type":"function"},{"inputs":[],"name":"admin","outputs":[{"internalType":"address","name":"","type":"address"}],"stateMutability":"view","type":"function"},{"inputs":[{"internalType":"string","name":"","type":"string"},{"internalType":"uint256","name":"","type":"uint256"}],"name":"adminsByRecord","outputs":[{"internalType":"bytes32","name":"","type":"bytes32"}],"stateMutability":"view","type":"function"},{"inputs":[{"internalType":"string","name":"recordId","type":"string"},{"internalType":"address","name":"targetWallet","type":"address"},{"internalType":"string","name":"newRole","type":"string"}],"name":"changeRole","outputs":[],"stateMutability":"nonpayable","type":"function"},{"inputs":[{"internalType":"address","name":"wallet","type":"address"}],"name":"deactivateWallet","outputs":[],"stateMutability":"nonpayable","type":"function"},{"inputs":[],"name":"getAllUsers","outputs":[{"internalType":"bytes32[]","name":"","type":"bytes32[]"}],"stateMutability":"view","type":"function"},{"inputs":[{"internalType":"string","name":"recordId","type":"string"}],"name":"getRecordAdmins","outputs":[{"internalType":"bytes32[]","name":"","type":"bytes32[]"}],"stateMutability":"view","type":"function"},{"inputs":[{"internalType":"string","name":"recordId","type":"string"}],"name":"getRecordOwners","outputs":[{"internalType":"bytes32[]","name":"","type":"bytes32[]"}],"stateMutability":"view","type":"function"},{"inputs":[{"internalType":"string","name":"recordId","type":"string"}],"name":"getRecordRoleStats","outputs":[{"internalType":"uint256","name":"ownerCount","type":"uint256"},{"internalType":"uint256","name":"adminCount","type":"uint256"},{"internalType":"uint256","name":"viewerCount","type":"uint256"}],"stateMutability":"view","type":"function"},{"inputs":[{"internalType":"string","name":"recordId","type":"string"}],"name":"getRecordViewers","outputs":[{"internalType":"bytes32[]","name":"","type":"bytes32[]"}],"stateMutability":"view","type":"function"},{"inputs":[{"internalType":"bytes32","name":"userIdHash","type":"bytes32"}],"name":"getRecordsByUser","outputs":[{"internalType":"string[]","name":"","type":"string[]"}],"stateMutability":"view","type":"function"},{"inputs":[{"internalType":"string","name":"recordId","type":"string"},{"internalType":"address","name":"wallet","type":"address"}],"name":"getRoleDetails","outputs":[{"internalType":"string","name":"role","type":"string"},{"internalType":"bool","name":"isActive","type":"bool"}],"stateMutability":"view","type":"function"},{"inputs":[{"internalType":"string","name":"recordId","type":"string"},{"internalType":"bytes32","name":"userIdHash","type":"bytes32"}],"name":"getRoleDetailsByUser","outputs":[{"internalType":"string","name":"role","type":"string"},{"internalType":"bool","name":"isActive","type":"bool"}],"stateMutability":"view","type":"function"},{"inputs":[],"name":"getTotalRoles","outputs":[{"internalType":"uint256","name":"","type":"uint256"}],"stateMutability":"view","type":"function"},{"inputs":[],"name":"getTotalUsers","outputs":[{"internalType":"uint256","name":"","type":"uint256"}],"stateMutability":"view","type":"function"},{"inputs":[{"internalType":"address","name":"wallet","type":"address"}],"name":"getUserForWallet","outputs":[{"internalType":"bytes32","name":"","type":"bytes32"}],"stateMutability":"view","type":"function"},{"inputs":[{"internalType":"bytes32","name":"userIdHash","type":"bytes32"}],"name":"getUserStatus","outputs":[{"internalType":"enum MemberRoleManager.MemberStatus","name":"status","type":"uint8"}],"stateMutability":"view","type":"function"},{"inputs":[{"internalType":"bytes32","name":"userIdHash","type":"bytes32"}],"name":"getWalletsForUser","outputs":[{"internalType":"address[]","name":"","type":"address[]"}],"stateMutability":"view","type":"function"},{"inputs":[{"internalType":"string","name":"recordId","type":"string"},{"internalType":"address","name":"targetWallet","type":"address"},{"internalType":"string","name":"role","type":"string"}],"name":"grantRole","outputs":[],"stateMutability":"nonpayable","type":"function"},{"inputs":[{"internalType":"string","name":"recordId","type":"string"},{"internalType":"address","name":"wallet","type":"address"}],"name":"hasActiveRole","outputs":[{"internalType":"bool","name":"","type":"bool"}],"stateMutability":"view","type":"function"},{"inputs":[{"internalType":"string","name":"recordId","type":"string"},{"internalType":"address","name":"wallet","type":"address"},{"internalType":"string","name":"role","type":"string"}],"name":"hasRole","outputs":[{"internalType":"bool","name":"","type":"bool"}],"stateMutability":"view","type":"function"},{"inputs":[],"name":"initialize","outputs":[],"stateMutability":"nonpayable","type":"function"},{"inputs":[{"internalType":"string","name":"recordId","type":"string"},{"internalType":"address","name":"targetWallet","type":"address"},{"internalType":"string","name":"role","type":"string"}],"name":"initializeRecordRole","outputs":[],"stateMutability":"nonpayable","type":"function"},{"inputs":[{"internalType":"address","name":"wallet","type":"address"}],"name":"isActiveMember","outputs":[{"internalType":"bool","name":"","type":"bool"}],"stateMutability":"view","type":"function"},{"inputs":[{"internalType":"string","name":"recordId","type":"string"},{"internalType":"address","name":"wallet","type":"address"}],"name":"isOwnerOrAdmin","outputs":[{"internalType":"bool","name":"","type":"bool"}],"stateMutability":"view","type":"function"},{"inputs":[{"internalType":"address","name":"wallet","type":"address"}],"name":"isVerifiedMember","outputs":[{"internalType":"bool","name":"","type":"bool"}],"stateMutability":"view","type":"function"},{"inputs":[{"internalType":"address","name":"wallet","type":"address"}],"name":"isVerifiedProvider","outputs":[{"internalType":"bool","name":"","type":"bool"}],"stateMutability":"view","type":"function"},{"inputs":[{"internalType":"string","name":"","type":"string"},{"internalType":"uint256","name":"","type":"uint256"}],"name":"ownersByRecord","outputs":[{"internalType":"bytes32","name":"","type":"bytes32"}],"stateMutability":"view","type":"function"},{"inputs":[],"name":"proxiableUUID","outputs":[{"internalType":"bytes32","name":"","type":"bytes32"}],"stateMutability":"view","type":"function"},{"inputs":[{"internalType":"address","name":"wallet","type":"address"}],"name":"reactivateWallet","outputs":[],"stateMutability":"nonpayable","type":"function"},{"inputs":[{"internalType":"bytes32","name":"","type":"bytes32"}],"name":"recordRoles","outputs":[{"internalType":"string","name":"role","type":"string"},{"internalType":"bool","name":"isActive","type":"bool"}],"stateMutability":"view","type":"function"},{"inputs":[{"internalType":"bytes32","name":"","type":"bytes32"},{"internalType":"uint256","name":"","type":"uint256"}],"name":"recordsByUser","outputs":[{"internalType":"string","name":"","type":"string"}],"stateMutability":"view","type":"function"},{"inputs":[{"internalType":"string","name":"recordId","type":"string"},{"internalType":"address","name":"targetWallet","type":"address"}],"name":"revokeRole","outputs":[],"stateMutability":"nonpayable","type":"function"},{"inputs":[{"internalType":"bytes32","name":"userIdHash","type":"bytes32"},{"internalType":"enum MemberRoleManager.MemberStatus","name":"newStatus","type":"uint8"}],"name":"setUserStatus","outputs":[],"stateMutability":"nonpayable","type":"function"},{"inputs":[],"name":"totalRoles","outputs":[{"internalType":"uint256","name":"","type":"uint256"}],"stateMutability":"view","type":"function"},{"inputs":[],"name":"totalUsers","outputs":[{"internalType":"uint256","name":"","type":"uint256"}],"stateMutability":"view","type":"function"},{"inputs":[{"internalType":"address","name":"newAdmin","type":"address"}],"name":"transferAdmin","outputs":[],"stateMutability":"nonpayable","type":"function"},{"inputs":[{"internalType":"address","name":"newImplementation","type":"address"},{"internalType":"bytes","name":"data","type":"bytes"}],"name":"upgradeToAndCall","outputs":[],"stateMutability":"payable","type":"function"},{"inputs":[{"internalType":"uint256","name":"","type":"uint256"}],"name":"userList","outputs":[{"internalType":"bytes32","name":"","type":"bytes32"}],"stateMutability":"view","type":"function"},{"inputs":[{"internalType":"bytes32","name":"","type":"bytes32"}],"name":"userStatus","outputs":[{"internalType":"enum MemberRoleManager.MemberStatus","name":"","type":"uint8"}],"stateMutability":"view","type":"function"},{"inputs":[{"internalType":"bytes32","name":"","type":"bytes32"},{"internalType":"uint256","name":"","type":"uint256"}],"name":"userWallets","outputs":[{"internalType":"address","name":"","type":"address"}],"stateMutability":"view","type":"function"},{"inputs":[{"internalType":"string","name":"","type":"string"},{"internalType":"uint256","name":"","type":"uint256"}],"name":"viewersByRecord","outputs":[{"internalType":"bytes32","name":"","type":"bytes32"}],"stateMutability":"view","type":"function"},{"inputs":[{"internalType":"string","name":"recordId","type":"string"}],"name":"voluntarilyLeaveOwnership","outputs":[],"stateMutability":"nonpayable","type":"function"},{"inputs":[{"internalType":"address","name":"","type":"address"}],"name":"wallets","outputs":[{"internalType":"bytes32","name":"userIdHash","type":"bytes32"},{"internalType":"bool","name":"isWalletActive","type":"bool"}],"stateMutability":"view","type":"function"}],"evm":{"bytecode":{"linkReferences":{},"object":"60a08060405234620000d157306080527ff0c57e16840df040f15088dc2f81fe391c3923bec73e23a9662efc9c229c6a009081549060ff8260401c16620000c257506001600160401b036002600160401b0319828216016200007c575b6040516136509081620000d78239608051818181611a7e0152611bcb0152f35b6001600160401b031990911681179091556040519081527fc7f505b2f371ae2175ee4913f4499e1f2633a7b5936321eed1cdaeb6115181d290602090a13880806200005c565b63f92ee8a960e01b8152600490fd5b600080fdfe608060408181526004918236101561001657600080fd5b600090813560e01c908162b0c809146125fe575080630b3ffd1d1461253f5780631435b558146125235780631a95aca51461249c578063259ed80e1461247657806333105592146124385780633575c391146121825780633dd1e8fc146120fb57806341d8bde31461205857806345ecd02f1461203257806349df720814611dc25780634b6feb7c1461153c5780634f1ef28614611b7b578063510b300314611ae257806352d1902d14611a6a5780636544b05b1461197b5780636b4bed97146102ae578063731f21a01461160957806375829def1461155b578063790e118c1461153c5780638129fc1c146113fe57806389b08f11146113b75780639443cd801461136e57806396207e0214611207578063970ee5b9146111d05780639be572f614610cad5780639f4216e814611183578063a0ca13c314611167578063ad3cb1cc14611122578063b55aefcc146110eb578063bb0f86d514611034578063bb20b17214610ccc578063bff1f9e114610cad578063cabdd23f14610c91578063cb261a0314610c62578063d12a776814610bb1578063daa9dc2314610633578063e2842d79146105b2578063e965bfb714610559578063eb2bbf251461052f578063ed8d7b371461035e578063ee4e5828146102e0578063f29e007b146102ae578063f851a440146102825763fa7a6bcc1461021257600080fd5b3461027f576102203661294d565b908252600a602052828220805482101561027b579061023e91612963565b9390936102695761026583610252866127c6565b905191829160208352602083019061288e565b0390f35b634e487b7160e01b8252819052602490fd5b8280fd5b80fd5b5090346102aa57816003193601126102aa57905490516001600160a01b039091168152602090f35b5080fd5b50913461027b57602036600319011261027b5760ff826020946102de93358152600286522054169151809261292a565bf35b50913461027b578160031936011261027b5780356001600160401b03811161035a576020936103226103196102659486943691016126f1565b60243590613258565b815260068552209180516103358161264d565b60ff6001610342866127c6565b958684520154161515948591015251928392836128b3565b8380fd5b5091903461027b5760208060031936011261035a5782356001600160401b03811161052b5761039090369085016126f1565b61039c81511515612a86565b3385526001825282852054936103ba6103b3612cab565b8684613293565b156104dc5783516103f88460018551938281818901966103db81838a61286b565b81016007815203019020541192875180938192885192839161286b565b8101600881520301902054151581156104d4575b501561047757509061046e82610443867f3bb3693064733b9a7d6d41bee69f302fcbefbe827ea4011400530c9ba9cb49c395613258565b61045561044e612cab565b88846132f3565b875260068352848720600101805460ff19169055612cf5565b9251428152a380f35b835162461bcd60e51b8152908101839052603160248201527f43616e6e6f74206c65617665206173206c617374206f776e65722077697468206044820152706e6f2061646d696e6973747261746f727360781b6064820152608490fd5b90503861040c565b835162461bcd60e51b8152908101839052602360248201527f596f7520617265206e6f7420616e206f776e6572206f662074686973207265636044820152621bdc9960ea1b6064820152608490fd5b8480fd5b5090346102aa576102659061054c6105463661270f565b90612dfb565b92909151928392836128b3565b5090346102aa5760209161058361056f36612991565b94908185519382858094519384920161286b565b8101600881520301902090815484101561027f57506020926105a491612963565b91905490519160031b1c8152f35b5090346102aa57816003193601126102aa578051918284549081815260208091019583527f8a35acfbc15ff81a39ae7d344fd709f28e8600b4aa8c65c6b64bfe7fe36bd19b92905b82821061061c576102658686610612828b038361267e565b5191829182612750565b8354875295860195600193840193909101906105fa565b50913461027b57610643366128d3565b91929061065761065233612f61565b612d67565b61066384511515612a86565b6001600160a01b031693610678851515612bbb565b61068961068484612f09565b612b17565b3386526020600181528187205495875281872054946106a9861515612c07565b845182860120936106ba8783613258565b808a52600684526106d360ff6001878d20015416612c53565b8952600683526106e4848a206127c6565b94855184870120818114610b6e576106fa612cab565b8581519101208114610af95785519184519286818188019561071d81838961286b565b810160078152030190205415918b831561075261074261073b612cab565b848b613293565b9261074b612ccc565b908a613293565b9061075b612cab565b8051908b0120850361095557156108f85750156108b7575b61077b612ccc565b8781519101201490816108a0575b506107fe575b505050916107f27fea2c9ebe68919ddf880b3221d8d508d908163d0973e8b79df108f5d110d0c63394926107d1856107cc8b8a8c6107e59a6130dc565b612cf5565b96835195869560608752606087019061288e565b918583039086015261288e565b9042908301520390a480f35b610809575b8061078f565b61082084600192875180938192885192839161286b565b810160088152030190205411156108375780610803565b835162461bcd60e51b8152908101839052603960248201527f43616e6e6f742064656d6f746520746865206c6173742061646d696e6973747260448201527f61746f72207768656e206e6f206f776e657220657869737473000000000000006064820152608490fd5b90506108aa612daa565b8681519101201438610789565b60648588808b519262461bcd60e51b845283015260248201527f4f6e6c79206f776e6572732063616e2070726f6d6f746520746f206f776e65726044820152fd5b905061077357875162461bcd60e51b8152808601889052602b60248201527f4f6e6c792061646d696e6973747261746f72732063616e2070726f6d6f74652060448201526a3334b939ba1037bbb732b960a91b6064820152608490fd5b61095d612ccc565b8051908b012085036109d5575081156109cd575b5061077357875162461bcd60e51b8152808601889052603b60248201526000805160206135fb83398151915260448201527f616e2070726f6d6f746520746f2061646d696e6973747261746f7200000000006064820152608490fd5b905038610971565b6109dd612daa565b8a815191012085146109f2575b505050610773565b15610a9f578115610a88575b5015610a0d575b3880806109ea565b875162461bcd60e51b8152808601889052604960248201527f4f6e6c79206f776e6572732063616e2064656d6f7465206f74686572732e204160448201527f646d696e6973747261746f72732063616e206f6e6c792064656d6f746520746860648201526832b6b9b2b63b32b99760b91b608482015260a490fd5b905080610a96575b386109fe565b508a8c14610a90565b9050610a0557875162461bcd60e51b8152808601889052602860248201527f4f6e6c792061646d696e6973747261746f72732063616e2064656d6f7465207460448201526737903b34b2bbb2b960c11b6064820152608490fd5b855162461bcd60e51b8152808401869052604360248201527f4f776e6572732063616e6e6f742062652064656d6f7465642e204f776e65722060448201527f6d75737420766f6c756e746172696c792072656d6f7665207468656d73656c7660648201526232b99760e91b608482015260a490fd5b855162461bcd60e51b8152808401869052601c60248201527f54617267657420616c726561647920686173207468697320726f6c65000000006044820152606490fd5b5082903461027f57602091826003193601126102aa5792919235815260038352818120908251808584549182815201908194845286842090845b818110610c455750505081610c0191038261267e565b83519485948186019282875251809352850193925b828110610c2557505050500390f35b83516001600160a01b031685528695509381019392810192600101610c16565b82546001600160a01b031684529288019260019283019201610beb565b5090346102aa5760203660031901126102aa57602090610c88610c83612632565b6133bb565b90519015158152f35b5090346102aa57602090610c88610ca7366128d3565b91612dcc565b5090346102aa57816003193601126102aa576020906005549051908152f35b5082346102aa57610cdc366128d3565b919290610ceb61065233612f61565b610cf784511515612a86565b6001600160a01b031692610d0c841515612bbb565b610d1861068484612f09565b33855260209160018352868620549486528686205492610d39841515612c07565b845181860120610d498785613258565b88526006825260ff60018a8a2001541615610ff357885182818651610d718183858b0161286b565b8101600781520301902054151590610d91610d8a612cab565b8987613293565b91610da4610d9d612ccc565b8a88613293565b91610dad612cab565b8051908601208103610eee575015610e94575015610e52575b610dd08484613258565b87526006815260ff6001898920015416610df4575050610df19495506130dc565b80f35b875162461bcd60e51b815291820152603360248201527f54617267657420616c726561647920686173206120726f6c652e2055736520636044820152721a185b99d9549bdb194a0a481a5b9cdd195859606a1b606482015260849150fd5b875162461bcd60e51b815291820181905260248201527f4f6e6c79206f776e6572732063616e206772616e74206f776e657220726f6c65604482015260649150fd5b9050610dc657875162461bcd60e51b815291820152602960248201527f4f6e6c792061646d696e6973747261746f72732063616e206772616e742066696044820152683939ba1037bbb732b960b91b606482015260849150fd5b9050610ef8612ccc565b8051908501208103610f6f57508115610f67575b50610dc657875162461bcd60e51b815291820152603b60248201526000805160206135fb83398151915260448201527f616e206772616e742061646d696e6973747261746f7220726f6c650000000000606482015260849150fd5b905089610f0c565b610f77612daa565b84815191012014610f8a575b5050610dc6565b8115610feb575b5015610f9e578880610f83565b875162461bcd60e51b815291820152603460248201526000805160206135fb833981519152604482015273616e206772616e742076696577657220726f6c6560601b606482015260849150fd5b905089610f91565b60648383808c519262461bcd60e51b845283015260248201527f596f752068617665206e6f20726f6c6520666f722074686973207265636f72646044820152fd5b5091903461027b57602036600319011261027b57611050612632565b83546001600160a01b03919061106990831633146129c2565b16808452600192836020526110828386205415156129fb565b8185528360205260ff848487200154166110b057508352602082905282208101805460ff1916909117905580f35b606490602084519162461bcd60e51b8352820152601560248201527457616c6c657420616c72656164792061637469766560581b6044820152fd5b5090346102aa5760209161110161056f36612991565b8101600981520301902090815484101561027f57506020926105a491612963565b5090346102aa57816003193601126102aa578051610265916111438261264d565b60058252640352e302e360dc1b60208301525191829160208352602083019061288e565b5090346102aa57602090610c8861117d3661270f565b90612d15565b50913461027b57602036600319011261027b57803590805482101561035a57602093527f8a35acfbc15ff81a39ae7d344fd709f28e8600b4aa8c65c6b64bfe7fe36bd19b01549051908152f35b5090346102aa576020916111e661056f36612991565b8101600781520301902090815484101561027f57506020926105a491612963565b5091903461027b578060031936011261027b57813590602435600581101561052b5761123d60018060a01b0386541633146129c2565b82855260206002815260ff8387205416600581101561135b5715611323578386526002815260ff8387205416946005861015611310578286146112d95750906112ab918487526002815283872060ff1981541660ff84161790556112a38451809761292a565b85019061292a565b42908301527ff6277c6ee46649823db9a5c531db3112b4340c67179cae1932ba3420dcc37cc760603393a380f35b60649184519162461bcd60e51b83528201526013602482015272416c726561647920746869732073746174757360681b6044820152fd5b634e487b7160e01b875260219052602486fd5b8460649184519162461bcd60e51b83528201526013602482015272155cd95c881b9bdd081c9959da5cdd195c9959606a1b6044820152fd5b634e487b7160e01b875260218652602487fd5b5090346102aa5761137e3661294d565b92908152600360205281812090815484101561027f57506020926113a191612963565b60018060a01b0391549060031b1c169051908152f35b5090346102aa5760203660031901126102aa579081906001600160a01b036113dd612632565b16815260016020522060ff6001825492015416825191825215156020820152f35b50913461027b578260031936011261027b577ff0c57e16840df040f15088dc2f81fe391c3923bec73e23a9662efc9c229c6a0091825460ff81831c1615906001600160401b03811680159081611534575b600114908161152a575b159081611521575b506115125767ffffffffffffffff1981166001178555816114f3575b5083549260ff84841c16156114e5575084546001600160a01b031916331785556114a5578380f35b7fc7f505b2f371ae2175ee4913f4499e1f2633a7b5936321eed1cdaeb6115181d29260209268ff0000000000000000191690555160018152a13880808380f35b8251631afcd79f60e31b8152fd5b68ffffffffffffffffff1916680100000000000000011784553861147d565b50505163f92ee8a960e01b8152fd5b90501538611461565b303b159150611459565b83915061144f565b5090346102aa57816003193601126102aa57602090600b549051908152f35b5091903461027b57602036600319011261027b57611577612632565b8354916001600160a01b03808416926115913385146129c2565b169384156115d55750907f38df5fa0f7fef0d515ca1f5388cb5790ac5885d5fca8d05d9f943e563c33a4b36020859351428152a36001600160a01b03191617815580f35b6020606492519162461bcd60e51b8352820152600f60248201526e496e76616c6964206164647265737360881b6044820152fd5b5091903461027b5761161a3661270f565b611628829392511515612a86565b6001600160a01b03169261163d841515612bbb565b3385526020916001835280862054948652808620549361165e851515612c07565b6116688582613258565b8088526006855261168160ff6001858b20015416612c53565b808852600685526116938389206127c6565b938451868601206116a2612cab565b8781519101208114611904578789036117ee575b6116be612ccc565b8781519101201461172b575b5081611717916116fe86897f938e21a28464db5f9b9e24d1a58e038899de364f69dba20c154ee6fd4cd86def9897966132f3565b895260068652828920600101805460ff19169055612cf5565b936107f2825193838594855284019061288e565b83516117648760018651938281818a019661174781838a61286b565b81016008815203019020541192875180938192895192839161286b565b8101600781520301902054151581156117e6575b506116ca57835162461bcd60e51b8152908101869052603960248201527f43616e6e6f74207265766f6b65206c6173742061646d696e6973747261746f7260448201527f20776974686f757420616e206f776e65722070726573656e74000000000000006064820152608490fd5b905038611778565b6118006117f9612cab565b8a86613293565b80156118f3575b156118aa576118176117f9612cab565b15611822575b6116b6565b61182a612ccc565b87815191012081036116b6578451878186516118498183858b0161286b565b81016007815203019020541561181d57845162461bcd60e51b8152808301889052602560248201527f4f6e6c79206f776e6572732063616e207265766f6b652061646d696e6973747260448201526461746f727360d81b6064820152608490fd5b845162461bcd60e51b8152808301889052602f60248201526000805160206135fb83398151915260448201526e616e207265766f6b6520726f6c657360881b6064820152608490fd5b506118ff6117f9612ccc565b611807565b845162461bcd60e51b8152808301889052604560248201527f4f776e6572732063616e6e6f74206265207265766f6b65642e204f776e65722060448201527f6d7573742075736520766f6c756e746172696c794c656176654f776e6572736860648201526434b814149760d91b608482015260a490fd5b5082346102aa576020908160031936011261027b5780358352600a8252838320918254916001600160401b038311611a57575092908451906119c2858260051b018361267e565b8082528482018094845285842084915b838310611a3357505050508451938085019181865251809252858501958260051b8601019392955b828710611a075785850386f35b909192938280611a23600193603f198a8203018652885161288e565b96019201960195929190926119fa565b6001888192611a45859b98999b6127c6565b815201920192019190969493966119d2565b634e487b7160e01b855260419052602484fd5b503461027f578060031936011261027f57507f00000000000000000000000000000000000000000000000000000000000000006001600160a01b03163003611ad557602090517f360894a13ba1a3210667c828492db98dca3e2076cc3735a920a3ca505d382bbc8152f35b5163703e46dd60e11b8152fd5b5091903461027b576020918260031936011261035a578035906001600160401b03821161052b57611b1a8491611b2c933691016126f1565b8184519382858094519384920161286b565b810160098152030190209281518093808654928381520195835280832092905b828210611b64576102658686610612828b038361267e565b835487529586019560019384019390910190611b4c565b5091908060031936011261027b57611b91612632565b906024356001600160401b03811161052b573660238201121561052b57611bc190369060248187013591016126ba565b6001600160a01b037f00000000000000000000000000000000000000000000000000000000000000008116308114908115611d94575b50611d8457611c0a8187541633146129c2565b82516352d1902d60e01b81529084169360209182818881895afa889181611d51575b50611c48578451634c9c8ce360e01b8152808801879052602490fd5b7f360894a13ba1a3210667c828492db98dca3e2076cc3735a920a3ca505d382bbc96929591939690818103611d3b5750833b15611d245780546001600160a01b0319168217905583518792917fbc7cd75a20ee27fd9adebab32041f755214dbc6bffa90cc0225b39da2e5c2d3b8480a2865115611d07575050808585611cf997519101845af4913d15611cfd573d611ceb611ce28261269f565b9251928361267e565b81528581943d92013e613577565b5080f35b5060609250613577565b9450945050505034611d1857505080f35b63b398979f60e01b8152fd5b8451634c9c8ce360e01b8152808401839052602490fd5b83602491875191632a87526960e21b8352820152fd5b9091508381813d8311611d7d575b611d69818361267e565b81010312611d7957519038611c2c565b8880fd5b503d611d5f565b825163703e46dd60e11b81528590fd5b9050817f360894a13ba1a3210667c828492db98dca3e2076cc3735a920a3ca505d382bbc5416141538611bf7565b50913461027b578160031936011261027b57611ddc612632565b9160249081359360018060a01b038091611dfa8289541633146129c2565b1693611e07851515612ad2565b8515611ff95784875260019360209480865284892054611fb757611e5c8551611e2f8161264d565b898152828882018181528a8d52818a52888d209251835551151591019060ff801983541691151516179055565b87895260038652848920938454600160401b9586821015611fa55790611e86918482018155612963565b819291549060031b918a831b921b19161790558789526002865260ff858a2054166005811015611f9357611f645787895260028652848920600260ff19825416179055825493841015611f52578301808355831015611f4157507f39d132591ee0696de49ab564e4a90e430c006561917db731a2a614dd2d245591939291869188527f8a35acfbc15ff81a39ae7d344fd709f28e8600b4aa8c65c6b64bfe7fe36bd19b0155611f36600554612b96565b60055551428152a380f35b634e487b7160e01b88526032825287fd5b50634e487b7160e01b88526041825287fd5b50505050907f1cc138f50384be7770a8e4a34eecaa0d0c718bfaa1641af49db32532e4a5b9109151428152a380f35b634e487b7160e01b8a5260218452828afd5b634e487b7160e01b8c5260418652848cfd5b845162461bcd60e51b81528084018790526019818401527f57616c6c657420616c72656164792072656769737465726564000000000000006044820152606490fd5b606490601485602086519362461bcd60e51b855284015282015273092dcecc2d8d2c840eae6cae440928840d0c2e6d60631b6044820152fd5b5090346102aa5760203660031901126102aa57602090610c88612053612632565b612f61565b503461027f576020908160031936011261027f578335906001600160401b03821161027f575060609361208d913691016126f1565b918051926120e2838251958181818601986120a981838c61286b565b8101600781520301902054958451828186516120c681838761286b565b810160088152030190205493855193849283925192839161286b565b8101600981520301902054928251948552840152820152f35b5091903461027b576020918260031936011261035a578035906001600160401b03821161052b57611b1a8491612133933691016126f1565b810160088152030190209281518093808654928381520195835280832092905b82821061216b576102658686610612828b038361267e565b835487529586019560019384019390910190612153565b5082346102aa57612192366128d3565b9092919460018060a01b036121ab8187541633146129c2565b6121b787511515612a86565b84166121c4811515612ad2565b6121d061068484612f09565b8552602092600184526121ec82872054956120538715156129fb565b156123f7578151848851918181818c019461220881838861286b565b81016007815203019020541591826123cf575b50501561238e5761222c8588613258565b8087526006855286856122918660018785209561227b8961224c896127c6565b97600660ff868b51159c015416988351976122668961264d565b88528088019587875283525220935184612fca565b51151591019060ff801983541691151516179055565b61234f57506122a184878a613414565b6122c2575b50906000805160206135db833981519152916117178697612cf5565b95848652600a8452818620805490600160401b82101561233c57906122ec91600182018155612963565b61232a57869750816123126000805160206135db83398151915295949361171793612fca565b61231d600b54612b96565b600b5597505090916122a6565b634e487b7160e01b8752868852602487fd5b634e487b7160e01b885260418952602488fd5b9697939594925050508451818601209084519085012003612372575b5050505080f35b6123806123859483836132f3565b613414565b8180808061236b565b83606492519162461bcd60e51b8352820152601a60248201527f5265636f726420616c726561647920696e697469616c697a65640000000000006044820152fd5b6123e492508451809381928c5192839161286b565b810160088152030190205415848961221b565b83606492519162461bcd60e51b8352820152601860248201527f4d75737420626520616e20616374697665206d656d62657200000000000000006044820152fd5b50913461027b57602036600319011261027b5791819235815260066020522061026560ff6001612467846127c6565b930154169251928392836128b3565b5090346102aa5760203660031901126102aa57602090610c88612497612632565b612e98565b5091903461027b576020918260031936011261035a578035906001600160401b03821161052b57611b1a84916124d4933691016126f1565b810160078152030190209281518093808654928381520195835280832092905b82821061250c576102658686610612828b038361267e565b8354875295860195600193840193909101906124f4565b5090346102aa57602090610c886125393661270f565b90612a3f565b50913461027b57602036600319011261027b5761255a612632565b83546001600160a01b03919061257390831633146129c2565b1690818452600160205261258b8385205415156129fb565b818452600160205260ff6001848620015416156125bb575082526001602081905290822001805460ff1916905580f35b606490602084519162461bcd60e51b8352820152601760248201527f57616c6c657420616c726561647920696e6163746976650000000000000000006044820152fd5b9050823461027b57602036600319011261027b576020926001600160a01b03612625612632565b1681526001845220548152f35b600435906001600160a01b038216820361264857565b600080fd5b604081019081106001600160401b0382111761266857604052565b634e487b7160e01b600052604160045260246000fd5b90601f801991011681019081106001600160401b0382111761266857604052565b6001600160401b03811161266857601f01601f191660200190565b9291926126c68261269f565b916126d4604051938461267e565b829481845281830111612648578281602093846000960137010152565b9080601f830112156126485781602061270c933591016126ba565b90565b604060031982011261264857600435906001600160401b03821161264857612739916004016126f1565b906024356001600160a01b03811681036126485790565b602090602060408183019282815285518094520193019160005b828110612778575050505090565b83518552938101939281019260010161276a565b90600182811c921680156127bc575b60208310146127a657565b634e487b7160e01b600052602260045260246000fd5b91607f169161279b565b906040519182600082546127d98161278c565b90818452602094600191600181169081600014612849575060011461280a575b5050506128089250038361267e565b565b600090815285812095935091905b81831061283157505061280893508201013880806127f9565b85548884018501529485019487945091830191612818565b9250505061280894925060ff191682840152151560051b8201013880806127f9565b60005b83811061287e5750506000910152565b818101518382015260200161286e565b906020916128a78151809281855285808601910161286b565b601f01601f1916010190565b906128cb60209194939460408452604084019061288e565b931515910152565b6060600319820112612648576001600160401b039160043583811161264857826128ff916004016126f1565b926024356001600160a01b038116810361264857926044359182116126485761270c916004016126f1565b9060058210156129375752565b634e487b7160e01b600052602160045260246000fd5b6040906003190112612648576004359060243590565b805482101561297b5760005260206000200190600090565b634e487b7160e01b600052603260045260246000fd5b604060031982011261264857600435906001600160401b038211612648576129bb916004016126f1565b9060243590565b156129c957565b60405162461bcd60e51b815260206004820152600a60248201526927b7363c9030b236b4b760b11b6044820152606490fd5b15612a0257565b60405162461bcd60e51b815260206004820152601560248201527415d85b1b195d081b9bdd081c9959da5cdd195c9959605a1b6044820152606490fd5b6001600160a01b039091166000908152600160205260409020548015612a7f57612a6891613258565b600052600660205260ff6001604060002001541690565b5050600090565b15612a8d57565b60405162461bcd60e51b815260206004820152601960248201527f5265636f72642049442063616e6e6f7420626520656d707479000000000000006044820152606490fd5b15612ad957565b60405162461bcd60e51b8152602060048201526016602482015275496e76616c69642077616c6c6574206164647265737360501b6044820152606490fd5b15612b1e57565b60405162461bcd60e51b8152602060048201526013602482015272496e76616c696420726f6c6520737472696e6760681b6044820152606490fd5b805490600160401b8210156126685781612b7b916001612b9294018155612963565b819391549060031b91821b91600019901b19161790565b9055565b6000198114612ba55760010190565b634e487b7160e01b600052601160045260246000fd5b15612bc257565b60405162461bcd60e51b815260206004820152601d60248201527f57616c6c657420616464726573732063616e6e6f74206265207a65726f0000006044820152606490fd5b15612c0e57565b60405162461bcd60e51b815260206004820152601c60248201527f5461726765742077616c6c6574206e6f742072656769737465726564000000006044820152606490fd5b15612c5a57565b60405162461bcd60e51b815260206004820152602360248201527f54617267657420646f6573206e6f74206861766520616e2061637469766520726044820152626f6c6560e81b6064820152608490fd5b60405190612cb88261264d565b600582526437bbb732b960d91b6020830152565b60405190612cd98261264d565b600d82526c30b236b4b734b9ba3930ba37b960991b6020830152565b612d0d9060206040519282848094519384920161286b565b810103902090565b6001600160a01b03909116600090815260016020526040902054908115612a7f57612d48612d41612cab565b8383613293565b918215612d5457505090565b61270c9250612d61612ccc565b91613293565b15612d6e57565b60405162461bcd60e51b81526020600482015260146024820152732737ba1030b71030b1ba34bb329036b2b6b132b960611b6044820152606490fd5b60405190612db78261264d565b60068252653b34b2bbb2b960d11b6020830152565b919060018060a01b031660005260016020526040600020548015612df35761270c92613293565b505050600090565b6001600160a01b039091166000908152600160205260408120549092918115612e5f5792612e2d604092602095613258565b81526006845220604051612e408161264d565b60ff6001612e4d846127c6565b93848452015416151593849101529190565b5050604051602081018181106001600160401b03821117612e84576040528281529190565b634e487b7160e01b84526041600452602484fd5b6001600160a01b031660009081526001602052604081208054908115908115612ef9575b50612ef5578152600260205260ff604082205416906005821015612ee1575060041490565b634e487b7160e01b81526021600452602490fd5b5090565b60ff915060010154161538612ebc565b60208151910120612f18612cab565b602081519101208114908115612f48575b8115612f33575090565b9050612f3d612daa565b602081519101201490565b9050612f52612ccc565b60208151910120811490612f29565b6001600160a01b031660009081526001602052604081208054908115908115612fba575b50612ef5578152600260205260ff604082205416906005821015612ee1575060018114159081612fb3575090565b9050151590565b60ff915060010154161538612f85565b91909182516001600160401b03811161266857612fe7825461278c565b601f8111613092575b50602080601f831160011461302d575081929394600092613022575b50508160011b916000199060031b1c1916179055565b01519050388061300c565b90601f19831695846000526020600020926000905b88821061307a57505083600195969710613061575b505050811b019055565b015160001960f88460031b161c19169055388080613057565b80600185968294968601518155019501930190613042565b6000836000526020600020601f840160051c810192602085106130d2575b601f0160051c01915b8281106130c7575050612ff0565b8181556001016130b9565b90925082906130b0565b90916130e88383613258565b6000928184526020936006855260409283822090613105826127c6565b9061314160ff6001845115950154169160018851916131238361264d565b8a83528b830190828252885260068c5261227b8a8920935184612fca565b61321f5750613151858885613414565b613190575b50906131716000805160206135db8339815191529392612cf5565b93613185825193838594855284019061288e565b9042908301520390a4565b858152600a8552828120805490600160401b82101561320b57906131b991600182018155612963565b9190916131f75750816131e06000805160206135db83398151915295949361317193612fca565b6131eb600b54612b96565b600b5591929350613156565b634e487b7160e01b81526004819052602490fd5b634e487b7160e01b83526041600452602483fd5b9750505091939290508451818601209084519085012003613241575b50505050565b61238061324f9483836132f3565b3880808061323b565b9061328d6040805180936020613277818401978881519384920161286b565b820190602082015203602081018452018261267e565b51902090565b602092916132a091613258565b6000526006825260406000206040516132b88161264d565b60ff60016132c5846127c6565b9384845201541615159384910152826132dd57505090565b9091506020815191012090602081519101201490565b8251602080940120613303612cab565b805190850120810361333a57508261332b91612808946040519382858094519384920161286b565b810160078152030190206134dc565b613342612ccc565b805190850120810361337957508261336a91612808946040519382858094519384920161286b565b810160088152030190206134dc565b613381612daa565b8481519101201461339157505050565b826133ac91612808946040519382858094519384920161286b565b810160098152030190206134dc565b6001600160a01b031660009081526001602052604081208054908115908115613404575b50612ef5578152600260205260ff604082205416906005821015612ee1575060031490565b60ff9150600101541615386133df565b8251602080940120613424612cab565b805190850120810361345b57508261344c91612808946040519382858094519384920161286b565b81016007815203019020612b59565b613463612ccc565b805190850120810361349a57508261348b91612808946040519382858094519384920161286b565b81016008815203019020612b59565b6134a2612daa565b848151910120146134b257505050565b826134cd91612808946040519382858094519384920161286b565b81016009815203019020612b59565b60005b8154908181101561323b5783916134f68285612963565b959054600396871b1c1461351057509092506001016134df565b6000199250828101908111612ba557612b7b61352f61353c9286612963565b905490871b1c9285612963565b905581548015613561578101926135538484612963565b81939154921b1b1916905555565b634e487b7160e01b600052603160045260246000fd5b9061359e575080511561358c57805190602001fd5b604051630a12f52160e11b8152600490fd5b815115806135d1575b6135af575090565b604051639996b31560e01b81526001600160a01b039091166004820152602490fd5b50803b156135a756fe2a27f0a20e4df4738f3a8e2449b014d439e7ce0a97ee5860771c25cbafa1cfeb4f6e6c79206f776e65727320616e642061646d696e6973747261746f72732063a2646970667358221220da45537cb85a94095ff8351c0f64d445798794a47bca7dfc0e78966026ea637264736f6c63430008170033","opcodes":"PUSH1 0xA0 DUP1 PUSH1 0x40 MSTORE CALLVALUE PUSH3 0xD1 JUMPI ADDRESS PUSH1 0x80 MSTORE PUSH32 0xF0C57E16840DF040F15088DC2F81FE391C3923BEC73E23A9662EFC9C229C6A00 SWAP1 DUP2 SLOAD SWAP1 PUSH1 0xFF DUP3 PUSH1 0x40 SHR AND PUSH3 0xC2 JUMPI POP PUSH1 0x1 PUSH1 0x1 PUSH1 0x40 SHL SUB PUSH1 0x2 PUSH1 0x1 PUSH1 0x40 SHL SUB NOT DUP3 DUP3 AND ADD PUSH3 0x7C JUMPI JUMPDEST PUSH1 0x40 MLOAD PUSH2 0x3650 SWAP1 DUP2 PUSH3 0xD7 DUP3 CODECOPY PUSH1 0x80 MLOAD DUP2 DUP2 DUP2 PUSH2 0x1A7E ADD MSTORE PUSH2 0x1BCB ADD MSTORE RETURN JUMPDEST PUSH1 0x1 PUSH1 0x1 PUSH1 0x40 SHL SUB NOT SWAP1 SWAP2 AND DUP2 OR SWAP1 SWAP2 SSTORE PUSH1 0x40 MLOAD SWAP1 DUP2 MSTORE PUSH32 0xC7F505B2F371AE2175EE4913F4499E1F2633A7B5936321EED1CDAEB6115181D2 SWAP1 PUSH1 0x20 SWAP1 LOG1 CODESIZE DUP1 DUP1 PUSH3 0x5C JUMP JUMPDEST PUSH4 0xF92EE8A9 PUSH1 0xE0 SHL DUP2 MSTORE PUSH1 0x4 SWAP1 REVERT JUMPDEST PUSH1 0x0 DUP1 REVERT INVALID PUSH1 0x80 PUSH1 0x40 DUP2 DUP2 MSTORE PUSH1 0x4 SWAP2 DUP3 CALLDATASIZE LT ISZERO PUSH2 0x16 JUMPI PUSH1 0x0 DUP1 REVERT JUMPDEST PUSH1 0x0 SWAP1 DUP2 CALLDATALOAD PUSH1 0xE0 SHR SWAP1 DUP2 PUSH3 0xB0C809 EQ PUSH2 0x25FE JUMPI POP DUP1 PUSH4 0xB3FFD1D EQ PUSH2 0x253F JUMPI DUP1 PUSH4 0x1435B558 EQ PUSH2 0x2523 JUMPI DUP1 PUSH4 0x1A95ACA5 EQ PUSH2 0x249C JUMPI DUP1 PUSH4 0x259ED80E EQ PUSH2 0x2476 JUMPI DUP1 PUSH4 0x33105592 EQ PUSH2 0x2438 JUMPI DUP1 PUSH4 0x3575C391 EQ PUSH2 0x2182 JUMPI DUP1 PUSH4 0x3DD1E8FC EQ PUSH2 0x20FB JUMPI DUP1 PUSH4 0x41D8BDE3 EQ PUSH2 0x2058 JUMPI DUP1 PUSH4 0x45ECD02F EQ PUSH2 0x2032 JUMPI DUP1 PUSH4 0x49DF7208 EQ PUSH2 0x1DC2 JUMPI DUP1 PUSH4 0x4B6FEB7C EQ PUSH2 0x153C JUMPI DUP1 PUSH4 0x4F1EF286 EQ PUSH2 0x1B7B JUMPI DUP1 PUSH4 0x510B3003 EQ PUSH2 0x1AE2 JUMPI DUP1 PUSH4 0x52D1902D EQ PUSH2 0x1A6A JUMPI DUP1 PUSH4 0x6544B05B EQ PUSH2 0x197B JUMPI DUP1 PUSH4 0x6B4BED97 EQ PUSH2 0x2AE JUMPI DUP1 PUSH4 0x731F21A0 EQ PUSH2 0x1609 JUMPI DUP1 PUSH4 0x75829DEF EQ PUSH2 0x155B JUMPI DUP1 PUSH4 0x790E118C EQ PUSH2 0x153C JUMPI DUP1 PUSH4 0x8129FC1C EQ PUSH2 0x13FE JUMPI DUP1 PUSH4 0x89B08F11 EQ PUSH2 0x13B7 JUMPI DUP1 PUSH4 0x9443CD80 EQ PUSH2 0x136E JUMPI DUP1 PUSH4 0x96207E02 EQ PUSH2 0x1207 JUMPI DUP1 PUSH4 0x970EE5B9 EQ PUSH2 0x11D0 JUMPI DUP1 PUSH4 0x9BE572F6 EQ PUSH2 0xCAD JUMPI DUP1 PUSH4 0x9F4216E8 EQ PUSH2 0x1183 JUMPI DUP1 PUSH4 0xA0CA13C3 EQ PUSH2 0x1167 JUMPI DUP1 PUSH4 0xAD3CB1CC EQ PUSH2 0x1122 JUMPI DUP1 PUSH4 0xB55AEFCC EQ PUSH2 0x10EB JUMPI DUP1 PUSH4 0xBB0F86D5 EQ PUSH2 0x1034 JUMPI DUP1 PUSH4 0xBB20B172 EQ PUSH2 0xCCC JUMPI DUP1 PUSH4 0xBFF1F9E1 EQ PUSH2 0xCAD JUMPI DUP1 PUSH4 0xCABDD23F EQ PUSH2 0xC91 JUMPI DUP1 PUSH4 0xCB261A03 EQ PUSH2 0xC62 JUMPI DUP1 PUSH4 0xD12A7768 EQ PUSH2 0xBB1 JUMPI DUP1 PUSH4 0xDAA9DC23 EQ PUSH2 0x633 JUMPI DUP1 PUSH4 0xE2842D79 EQ PUSH2 0x5B2 JUMPI DUP1 PUSH4 0xE965BFB7 EQ PUSH2 0x559 JUMPI DUP1 PUSH4 0xEB2BBF25 EQ PUSH2 0x52F JUMPI DUP1 PUSH4 0xED8D7B37 EQ PUSH2 0x35E JUMPI DUP1 PUSH4 0xEE4E5828 EQ PUSH2 0x2E0 JUMPI DUP1 PUSH4 0xF29E007B EQ PUSH2 0x2AE JUMPI DUP1 PUSH4 0xF851A440 EQ PUSH2 0x282 JUMPI PUSH4 0xFA7A6BCC EQ PUSH2 0x212 JUMPI PUSH1 0x0 DUP1 REVERT JUMPDEST CALLVALUE PUSH2 0x27F JUMPI PUSH2 0x220 CALLDATASIZE PUSH2 0x294D JUMP JUMPDEST SWAP1 DUP3 MSTORE PUSH1 0xA PUSH1 0x20 MSTORE DUP3 DUP3 KECCAK256 DUP1 SLOAD DUP3 LT ISZERO PUSH2 0x27B JUMPI SWAP1 PUSH2 0x23E SWAP2 PUSH2 0x2963 JUMP JUMPDEST SWAP4 SWAP1 SWAP4 PUSH2 0x269 JUMPI PUSH2 0x265 DUP4 PUSH2 0x252 DUP7 PUSH2 0x27C6 JUMP JUMPDEST SWAP1 MLOAD SWAP2 DUP3 SWAP2 PUSH1 0x20 DUP4 MSTORE PUSH1 0x20 DUP4 ADD SWAP1 PUSH2 0x288E JUMP JUMPDEST SUB SWAP1 RETURN JUMPDEST PUSH4 0x4E487B71 PUSH1 0xE0 SHL DUP3 MSTORE DUP2 SWAP1 MSTORE PUSH1 0x24 SWAP1 REVERT JUMPDEST DUP3 DUP1 REVERT JUMPDEST DUP1 REVERT JUMPDEST POP SWAP1 CALLVALUE PUSH2 0x2AA JUMPI DUP2 PUSH1 0x3 NOT CALLDATASIZE ADD SLT PUSH2 0x2AA JUMPI SWAP1 SLOAD SWAP1 MLOAD PUSH1 0x1 PUSH1 0x1 PUSH1 0xA0 SHL SUB SWAP1 SWAP2 AND DUP2 MSTORE PUSH1 0x20 SWAP1 RETURN JUMPDEST POP DUP1 REVERT JUMPDEST POP SWAP2 CALLVALUE PUSH2 0x27B JUMPI PUSH1 0x20 CALLDATASIZE PUSH1 0x3 NOT ADD SLT PUSH2 0x27B JUMPI PUSH1 0xFF DUP3 PUSH1 0x20 SWAP5 PUSH2 0x2DE SWAP4 CALLDATALOAD DUP2 MSTORE PUSH1 0x2 DUP7 MSTORE KECCAK256 SLOAD AND SWAP2 MLOAD DUP1 SWAP3 PUSH2 0x292A JUMP JUMPDEST RETURN JUMPDEST POP SWAP2 CALLVALUE PUSH2 0x27B JUMPI DUP2 PUSH1 0x3 NOT CALLDATASIZE ADD SLT PUSH2 0x27B JUMPI DUP1 CALLDATALOAD PUSH1 0x1 PUSH1 0x1 PUSH1 0x40 SHL SUB DUP2 GT PUSH2 0x35A JUMPI PUSH1 0x20 SWAP4 PUSH2 0x322 PUSH2 0x319 PUSH2 0x265 SWAP5 DUP7 SWAP5 CALLDATASIZE SWAP2 ADD PUSH2 0x26F1 JUMP JUMPDEST PUSH1 0x24 CALLDATALOAD SWAP1 PUSH2 0x3258 JUMP JUMPDEST DUP2 MSTORE PUSH1 0x6 DUP6 MSTORE KECCAK256 SWAP2 DUP1 MLOAD PUSH2 0x335 DUP2 PUSH2 0x264D JUMP JUMPDEST PUSH1 0xFF PUSH1 0x1 PUSH2 0x342 DUP7 PUSH2 0x27C6 JUMP JUMPDEST SWAP6 DUP7 DUP5 MSTORE ADD SLOAD AND ISZERO ISZERO SWAP5 DUP6 SWAP2 ADD MSTORE MLOAD SWAP3 DUP4 SWAP3 DUP4 PUSH2 0x28B3 JUMP JUMPDEST DUP4 DUP1 REVERT JUMPDEST POP SWAP2 SWAP1 CALLVALUE PUSH2 0x27B JUMPI PUSH1 0x20 DUP1 PUSH1 0x3 NOT CALLDATASIZE ADD SLT PUSH2 0x35A JUMPI DUP3 CALLDATALOAD PUSH1 0x1 PUSH1 0x1 PUSH1 0x40 SHL SUB DUP2 GT PUSH2 0x52B JUMPI PUSH2 0x390 SWAP1 CALLDATASIZE SWAP1 DUP6 ADD PUSH2 0x26F1 JUMP JUMPDEST PUSH2 0x39C DUP2 MLOAD ISZERO ISZERO PUSH2 0x2A86 JUMP JUMPDEST CALLER DUP6 MSTORE PUSH1 0x1 DUP3 MSTORE DUP3 DUP6 KECCAK256 SLOAD SWAP4 PUSH2 0x3BA PUSH2 0x3B3 PUSH2 0x2CAB JUMP JUMPDEST DUP7 DUP5 PUSH2 0x3293 JUMP JUMPDEST ISZERO PUSH2 0x4DC JUMPI DUP4 MLOAD PUSH2 0x3F8 DUP5 PUSH1 0x1 DUP6 MLOAD SWAP4 DUP3 DUP2 DUP2 DUP10 ADD SWAP7 PUSH2 0x3DB DUP2 DUP4 DUP11 PUSH2 0x286B JUMP JUMPDEST DUP2 ADD PUSH1 0x7 DUP2 MSTORE SUB ADD SWAP1 KECCAK256 SLOAD GT SWAP3 DUP8 MLOAD DUP1 SWAP4 DUP2 SWAP3 DUP9 MLOAD SWAP3 DUP4 SWAP2 PUSH2 0x286B JUMP JUMPDEST DUP2 ADD PUSH1 0x8 DUP2 MSTORE SUB ADD SWAP1 KECCAK256 SLOAD ISZERO ISZERO DUP2 ISZERO PUSH2 0x4D4 JUMPI JUMPDEST POP ISZERO PUSH2 0x477 JUMPI POP SWAP1 PUSH2 0x46E DUP3 PUSH2 0x443 DUP7 PUSH32 0x3BB3693064733B9A7D6D41BEE69F302FCBEFBE827EA4011400530C9BA9CB49C3 SWAP6 PUSH2 0x3258 JUMP JUMPDEST PUSH2 0x455 PUSH2 0x44E PUSH2 0x2CAB JUMP JUMPDEST DUP9 DUP5 PUSH2 0x32F3 JUMP JUMPDEST DUP8 MSTORE PUSH1 0x6 DUP4 MSTORE DUP5 DUP8 KECCAK256 PUSH1 0x1 ADD DUP1 SLOAD PUSH1 0xFF NOT AND SWAP1 SSTORE PUSH2 0x2CF5 JUMP JUMPDEST SWAP3 MLOAD TIMESTAMP DUP2 MSTORE LOG3 DUP1 RETURN JUMPDEST DUP4 MLOAD PUSH3 0x461BCD PUSH1 0xE5 SHL DUP2 MSTORE SWAP1 DUP2 ADD DUP4 SWAP1 MSTORE PUSH1 0x31 PUSH1 0x24 DUP3 ADD MSTORE PUSH32 0x43616E6E6F74206C65617665206173206C617374206F776E6572207769746820 PUSH1 0x44 DUP3 ADD MSTORE PUSH17 0x6E6F2061646D696E6973747261746F7273 PUSH1 0x78 SHL PUSH1 0x64 DUP3 ADD MSTORE PUSH1 0x84 SWAP1 REVERT JUMPDEST SWAP1 POP CODESIZE PUSH2 0x40C JUMP JUMPDEST DUP4 MLOAD PUSH3 0x461BCD PUSH1 0xE5 SHL DUP2 MSTORE SWAP1 DUP2 ADD DUP4 SWAP1 MSTORE PUSH1 0x23 PUSH1 0x24 DUP3 ADD MSTORE PUSH32 0x596F7520617265206E6F7420616E206F776E6572206F66207468697320726563 PUSH1 0x44 DUP3 ADD MSTORE PUSH3 0x1BDC99 PUSH1 0xEA SHL PUSH1 0x64 DUP3 ADD MSTORE PUSH1 0x84 SWAP1 REVERT JUMPDEST DUP5 DUP1 REVERT JUMPDEST POP SWAP1 CALLVALUE PUSH2 0x2AA JUMPI PUSH2 0x265 SWAP1 PUSH2 0x54C PUSH2 0x546 CALLDATASIZE PUSH2 0x270F JUMP JUMPDEST SWAP1 PUSH2 0x2DFB JUMP JUMPDEST SWAP3 SWAP1 SWAP2 MLOAD SWAP3 DUP4 SWAP3 DUP4 PUSH2 0x28B3 JUMP JUMPDEST POP SWAP1 CALLVALUE PUSH2 0x2AA JUMPI PUSH1 0x20 SWAP2 PUSH2 0x583 PUSH2 0x56F CALLDATASIZE PUSH2 0x2991 JUMP JUMPDEST SWAP5 SWAP1 DUP2 DUP6 MLOAD SWAP4 DUP3 DUP6 DUP1 SWAP5 MLOAD SWAP4 DUP5 SWAP3 ADD PUSH2 0x286B JUMP JUMPDEST DUP2 ADD PUSH1 0x8 DUP2 MSTORE SUB ADD SWAP1 KECCAK256 SWAP1 DUP2 SLOAD DUP5 LT ISZERO PUSH2 0x27F JUMPI POP PUSH1 0x20 SWAP3 PUSH2 0x5A4 SWAP2 PUSH2 0x2963 JUMP JUMPDEST SWAP2 SWAP1 SLOAD SWAP1 MLOAD SWAP2 PUSH1 0x3 SHL SHR DUP2 MSTORE RETURN JUMPDEST POP SWAP1 CALLVALUE PUSH2 0x2AA JUMPI DUP2 PUSH1 0x3 NOT CALLDATASIZE ADD SLT PUSH2 0x2AA JUMPI DUP1 MLOAD SWAP2 DUP3 DUP5 SLOAD SWAP1 DUP2 DUP2 MSTORE PUSH1 0x20 DUP1 SWAP2 ADD SWAP6 DUP4 MSTORE PUSH32 0x8A35ACFBC15FF81A39AE7D344FD709F28E8600B4AA8C65C6B64BFE7FE36BD19B SWAP3 SWAP1 JUMPDEST DUP3 DUP3 LT PUSH2 0x61C JUMPI PUSH2 0x265 DUP7 DUP7 PUSH2 0x612 DUP3 DUP12 SUB DUP4 PUSH2 0x267E JUMP JUMPDEST MLOAD SWAP2 DUP3 SWAP2 DUP3 PUSH2 0x2750 JUMP JUMPDEST DUP4 SLOAD DUP8 MSTORE SWAP6 DUP7 ADD SWAP6 PUSH1 0x1 SWAP4 DUP5 ADD SWAP4 SWAP1 SWAP2 ADD SWAP1 PUSH2 0x5FA JUMP JUMPDEST POP SWAP2 CALLVALUE PUSH2 0x27B JUMPI PUSH2 0x643 CALLDATASIZE PUSH2 0x28D3 JUMP JUMPDEST SWAP2 SWAP3 SWAP1 PUSH2 0x657 PUSH2 0x652 CALLER PUSH2 0x2F61 JUMP JUMPDEST PUSH2 0x2D67 JUMP JUMPDEST PUSH2 0x663 DUP5 MLOAD ISZERO ISZERO PUSH2 0x2A86 JUMP JUMPDEST PUSH1 0x1 PUSH1 0x1 PUSH1 0xA0 SHL SUB AND SWAP4 PUSH2 0x678 DUP6 ISZERO ISZERO PUSH2 0x2BBB JUMP JUMPDEST PUSH2 0x689 PUSH2 0x684 DUP5 PUSH2 0x2F09 JUMP JUMPDEST PUSH2 0x2B17 JUMP JUMPDEST CALLER DUP7 MSTORE PUSH1 0x20 PUSH1 0x1 DUP2 MSTORE DUP2 DUP8 KECCAK256 SLOAD SWAP6 DUP8 MSTORE DUP2 DUP8 KECCAK256 SLOAD SWAP5 PUSH2 0x6A9 DUP7 ISZERO ISZERO PUSH2 0x2C07 JUMP JUMPDEST DUP5 MLOAD DUP3 DUP7 ADD KECCAK256 SWAP4 PUSH2 0x6BA DUP8 DUP4 PUSH2 0x3258 JUMP JUMPDEST DUP1 DUP11 MSTORE PUSH1 0x6 DUP5 MSTORE PUSH2 0x6D3 PUSH1 0xFF PUSH1 0x1 DUP8 DUP14 KECCAK256 ADD SLOAD AND PUSH2 0x2C53 JUMP JUMPDEST DUP10 MSTORE PUSH1 0x6 DUP4 MSTORE PUSH2 0x6E4 DUP5 DUP11 KECCAK256 PUSH2 0x27C6 JUMP JUMPDEST SWAP5 DUP6 MLOAD DUP5 DUP8 ADD KECCAK256 DUP2 DUP2 EQ PUSH2 0xB6E JUMPI PUSH2 0x6FA PUSH2 0x2CAB JUMP JUMPDEST DUP6 DUP2 MLOAD SWAP2 ADD KECCAK256 DUP2 EQ PUSH2 0xAF9 JUMPI DUP6 MLOAD SWAP2 DUP5 MLOAD SWAP3 DUP7 DUP2 DUP2 DUP9 ADD SWAP6 PUSH2 0x71D DUP2 DUP4 DUP10 PUSH2 0x286B JUMP JUMPDEST DUP2 ADD PUSH1 0x7 DUP2 MSTORE SUB ADD SWAP1 KECCAK256 SLOAD ISZERO SWAP2 DUP12 DUP4 ISZERO PUSH2 0x752 PUSH2 0x742 PUSH2 0x73B PUSH2 0x2CAB JUMP JUMPDEST DUP5 DUP12 PUSH2 0x3293 JUMP JUMPDEST SWAP3 PUSH2 0x74B PUSH2 0x2CCC JUMP JUMPDEST SWAP1 DUP11 PUSH2 0x3293 JUMP JUMPDEST SWAP1 PUSH2 0x75B PUSH2 0x2CAB JUMP JUMPDEST DUP1 MLOAD SWAP1 DUP12 ADD KECCAK256 DUP6 SUB PUSH2 0x955 JUMPI ISZERO PUSH2 0x8F8 JUMPI POP ISZERO PUSH2 0x8B7 JUMPI JUMPDEST PUSH2 0x77B PUSH2 0x2CCC JUMP JUMPDEST DUP8 DUP2 MLOAD SWAP2 ADD KECCAK256 EQ SWAP1 DUP2 PUSH2 0x8A0 JUMPI JUMPDEST POP PUSH2 0x7FE JUMPI JUMPDEST POP POP POP SWAP2 PUSH2 0x7F2 PUSH32 0xEA2C9EBE68919DDF880B3221D8D508D908163D0973E8B79DF108F5D110D0C633 SWAP5 SWAP3 PUSH2 0x7D1 DUP6 PUSH2 0x7CC DUP12 DUP11 DUP13 PUSH2 0x7E5 SWAP11 PUSH2 0x30DC JUMP JUMPDEST PUSH2 0x2CF5 JUMP JUMPDEST SWAP7 DUP4 MLOAD SWAP6 DUP7 SWAP6 PUSH1 0x60 DUP8 MSTORE PUSH1 0x60 DUP8 ADD SWAP1 PUSH2 0x288E JUMP JUMPDEST SWAP2 DUP6 DUP4 SUB SWAP1 DUP7 ADD MSTORE PUSH2 0x288E JUMP JUMPDEST SWAP1 TIMESTAMP SWAP1 DUP4 ADD MSTORE SUB SWAP1 LOG4 DUP1 RETURN JUMPDEST PUSH2 0x809 JUMPI JUMPDEST DUP1 PUSH2 0x78F JUMP JUMPDEST PUSH2 0x820 DUP5 PUSH1 0x1 SWAP3 DUP8 MLOAD DUP1 SWAP4 DUP2 SWAP3 DUP9 MLOAD SWAP3 DUP4 SWAP2 PUSH2 0x286B JUMP JUMPDEST DUP2 ADD PUSH1 0x8 DUP2 MSTORE SUB ADD SWAP1 KECCAK256 SLOAD GT ISZERO PUSH2 0x837 JUMPI DUP1 PUSH2 0x803 JUMP JUMPDEST DUP4 MLOAD PUSH3 0x461BCD PUSH1 0xE5 SHL DUP2 MSTORE SWAP1 DUP2 ADD DUP4 SWAP1 MSTORE PUSH1 0x39 PUSH1 0x24 DUP3 ADD MSTORE PUSH32 0x43616E6E6F742064656D6F746520746865206C6173742061646D696E69737472 PUSH1 0x44 DUP3 ADD MSTORE PUSH32 0x61746F72207768656E206E6F206F776E65722065786973747300000000000000 PUSH1 0x64 DUP3 ADD MSTORE PUSH1 0x84 SWAP1 REVERT JUMPDEST SWAP1 POP PUSH2 0x8AA PUSH2 0x2DAA JUMP JUMPDEST DUP7 DUP2 MLOAD SWAP2 ADD KECCAK256 EQ CODESIZE PUSH2 0x789 JUMP JUMPDEST PUSH1 0x64 DUP6 DUP9 DUP1 DUP12 MLOAD SWAP3 PUSH3 0x461BCD PUSH1 0xE5 SHL DUP5 MSTORE DUP4 ADD MSTORE PUSH1 0x24 DUP3 ADD MSTORE PUSH32 0x4F6E6C79206F776E6572732063616E2070726F6D6F746520746F206F776E6572 PUSH1 0x44 DUP3 ADD MSTORE REVERT JUMPDEST SWAP1 POP PUSH2 0x773 JUMPI DUP8 MLOAD PUSH3 0x461BCD PUSH1 0xE5 SHL DUP2 MSTORE DUP1 DUP7 ADD DUP9 SWAP1 MSTORE PUSH1 0x2B PUSH1 0x24 DUP3 ADD MSTORE PUSH32 0x4F6E6C792061646D696E6973747261746F72732063616E2070726F6D6F746520 PUSH1 0x44 DUP3 ADD MSTORE PUSH11 0x3334B939BA1037BBB732B9 PUSH1 0xA9 SHL PUSH1 0x64 DUP3 ADD MSTORE PUSH1 0x84 SWAP1 REVERT JUMPDEST PUSH2 0x95D PUSH2 0x2CCC JUMP JUMPDEST DUP1 MLOAD SWAP1 DUP12 ADD KECCAK256 DUP6 SUB PUSH2 0x9D5 JUMPI POP DUP2 ISZERO PUSH2 0x9CD JUMPI JUMPDEST POP PUSH2 0x773 JUMPI DUP8 MLOAD PUSH3 0x461BCD PUSH1 0xE5 SHL DUP2 MSTORE DUP1 DUP7 ADD DUP9 SWAP1 MSTORE PUSH1 0x3B PUSH1 0x24 DUP3 ADD MSTORE PUSH1 0x0 DUP1 MLOAD PUSH1 0x20 PUSH2 0x35FB DUP4 CODECOPY DUP2 MLOAD SWAP2 MSTORE PUSH1 0x44 DUP3 ADD MSTORE PUSH32 0x616E2070726F6D6F746520746F2061646D696E6973747261746F720000000000 PUSH1 0x64 DUP3 ADD MSTORE PUSH1 0x84 SWAP1 REVERT JUMPDEST SWAP1 POP CODESIZE PUSH2 0x971 JUMP JUMPDEST PUSH2 0x9DD PUSH2 0x2DAA JUMP JUMPDEST DUP11 DUP2 MLOAD SWAP2 ADD KECCAK256 DUP6 EQ PUSH2 0x9F2 JUMPI JUMPDEST POP POP POP PUSH2 0x773 JUMP JUMPDEST ISZERO PUSH2 0xA9F JUMPI DUP2 ISZERO PUSH2 0xA88 JUMPI JUMPDEST POP ISZERO PUSH2 0xA0D JUMPI JUMPDEST CODESIZE DUP1 DUP1 PUSH2 0x9EA JUMP JUMPDEST DUP8 MLOAD PUSH3 0x461BCD PUSH1 0xE5 SHL DUP2 MSTORE DUP1 DUP7 ADD DUP9 SWAP1 MSTORE PUSH1 0x49 PUSH1 0x24 DUP3 ADD MSTORE PUSH32 0x4F6E6C79206F776E6572732063616E2064656D6F7465206F74686572732E2041 PUSH1 0x44 DUP3 ADD MSTORE PUSH32 0x646D696E6973747261746F72732063616E206F6E6C792064656D6F7465207468 PUSH1 0x64 DUP3 ADD MSTORE PUSH9 0x32B6B9B2B63B32B997 PUSH1 0xB9 SHL PUSH1 0x84 DUP3 ADD MSTORE PUSH1 0xA4 SWAP1 REVERT JUMPDEST SWAP1 POP DUP1 PUSH2 0xA96 JUMPI JUMPDEST CODESIZE PUSH2 0x9FE JUMP JUMPDEST POP DUP11 DUP13 EQ PUSH2 0xA90 JUMP JUMPDEST SWAP1 POP PUSH2 0xA05 JUMPI DUP8 MLOAD PUSH3 0x461BCD PUSH1 0xE5 SHL DUP2 MSTORE DUP1 DUP7 ADD DUP9 SWAP1 MSTORE PUSH1 0x28 PUSH1 0x24 DUP3 ADD MSTORE PUSH32 0x4F6E6C792061646D696E6973747261746F72732063616E2064656D6F74652074 PUSH1 0x44 DUP3 ADD MSTORE PUSH8 0x37903B34B2BBB2B9 PUSH1 0xC1 SHL PUSH1 0x64 DUP3 ADD MSTORE PUSH1 0x84 SWAP1 REVERT JUMPDEST DUP6 MLOAD PUSH3 0x461BCD PUSH1 0xE5 SHL DUP2 MSTORE DUP1 DUP5 ADD DUP7 SWAP1 MSTORE PUSH1 0x43 PUSH1 0x24 DUP3 ADD MSTORE PUSH32 0x4F776E6572732063616E6E6F742062652064656D6F7465642E204F776E657220 PUSH1 0x44 DUP3 ADD MSTORE PUSH32 0x6D75737420766F6C756E746172696C792072656D6F7665207468656D73656C76 PUSH1 0x64 DUP3 ADD MSTORE PUSH3 0x32B997 PUSH1 0xE9 SHL PUSH1 0x84 DUP3 ADD MSTORE PUSH1 0xA4 SWAP1 REVERT JUMPDEST DUP6 MLOAD PUSH3 0x461BCD PUSH1 0xE5 SHL DUP2 MSTORE DUP1 DUP5 ADD DUP7 SWAP1 MSTORE PUSH1 0x1C PUSH1 0x24 DUP3 ADD MSTORE PUSH32 0x54617267657420616C726561647920686173207468697320726F6C6500000000 PUSH1 0x44 DUP3 ADD MSTORE PUSH1 0x64 SWAP1 REVERT JUMPDEST POP DUP3 SWAP1 CALLVALUE PUSH2 0x27F JUMPI PUSH1 0x20 SWAP2 DUP3 PUSH1 0x3 NOT CALLDATASIZE ADD SLT PUSH2 0x2AA JUMPI SWAP3 SWAP2 SWAP3 CALLDATALOAD DUP2 MSTORE PUSH1 0x3 DUP4 MSTORE DUP2 DUP2 KECCAK256 SWAP1 DUP3 MLOAD DUP1 DUP6 DUP5 SLOAD SWAP2 DUP3 DUP2 MSTORE ADD SWAP1 DUP2 SWAP5 DUP5 MSTORE DUP7 DUP5 KECCAK256 SWAP1 DUP5 JUMPDEST DUP2 DUP2 LT PUSH2 0xC45 JUMPI POP POP POP DUP2 PUSH2 0xC01 SWAP2 SUB DUP3 PUSH2 0x267E JUMP JUMPDEST DUP4 MLOAD SWAP5 DUP6 SWAP5 DUP2 DUP7 ADD SWAP3 DUP3 DUP8 MSTORE MLOAD DUP1 SWAP4 MSTORE DUP6 ADD SWAP4 SWAP3 JUMPDEST DUP3 DUP2 LT PUSH2 0xC25 JUMPI POP POP POP POP SUB SWAP1 RETURN JUMPDEST DUP4 MLOAD PUSH1 0x1 PUSH1 0x1 PUSH1 0xA0 SHL SUB AND DUP6 MSTORE DUP7 SWAP6 POP SWAP4 DUP2 ADD SWAP4 SWAP3 DUP2 ADD SWAP3 PUSH1 0x1 ADD PUSH2 0xC16 JUMP JUMPDEST DUP3 SLOAD PUSH1 0x1 PUSH1 0x1 PUSH1 0xA0 SHL SUB AND DUP5 MSTORE SWAP3 DUP9 ADD SWAP3 PUSH1 0x1 SWAP3 DUP4 ADD SWAP3 ADD PUSH2 0xBEB JUMP JUMPDEST POP SWAP1 CALLVALUE PUSH2 0x2AA JUMPI PUSH1 0x20 CALLDATASIZE PUSH1 0x3 NOT ADD SLT PUSH2 0x2AA JUMPI PUSH1 0x20 SWAP1 PUSH2 0xC88 PUSH2 0xC83 PUSH2 0x2632 JUMP JUMPDEST PUSH2 0x33BB JUMP JUMPDEST SWAP1 MLOAD SWAP1 ISZERO ISZERO DUP2 MSTORE RETURN JUMPDEST POP SWAP1 CALLVALUE PUSH2 0x2AA JUMPI PUSH1 0x20 SWAP1 PUSH2 0xC88 PUSH2 0xCA7 CALLDATASIZE PUSH2 0x28D3 JUMP JUMPDEST SWAP2 PUSH2 0x2DCC JUMP JUMPDEST POP SWAP1 CALLVALUE PUSH2 0x2AA JUMPI DUP2 PUSH1 0x3 NOT CALLDATASIZE ADD SLT PUSH2 0x2AA JUMPI PUSH1 0x20 SWAP1 PUSH1 0x5 SLOAD SWAP1 MLOAD SWAP1 DUP2 MSTORE RETURN JUMPDEST POP DUP3 CALLVALUE PUSH2 0x2AA JUMPI PUSH2 0xCDC CALLDATASIZE PUSH2 0x28D3 JUMP JUMPDEST SWAP2 SWAP3 SWAP1 PUSH2 0xCEB PUSH2 0x652 CALLER PUSH2 0x2F61 JUMP JUMPDEST PUSH2 0xCF7 DUP5 MLOAD ISZERO ISZERO PUSH2 0x2A86 JUMP JUMPDEST PUSH1 0x1 PUSH1 0x1 PUSH1 0xA0 SHL SUB AND SWAP3 PUSH2 0xD0C DUP5 ISZERO ISZERO PUSH2 0x2BBB JUMP JUMPDEST PUSH2 0xD18 PUSH2 0x684 DUP5 PUSH2 0x2F09 JUMP JUMPDEST CALLER DUP6 MSTORE PUSH1 0x20 SWAP2 PUSH1 0x1 DUP4 MSTORE DUP7 DUP7 KECCAK256 SLOAD SWAP5 DUP7 MSTORE DUP7 DUP7 KECCAK256 SLOAD SWAP3 PUSH2 0xD39 DUP5 ISZERO ISZERO PUSH2 0x2C07 JUMP JUMPDEST DUP5 MLOAD DUP2 DUP7 ADD KECCAK256 PUSH2 0xD49 DUP8 DUP6 PUSH2 0x3258 JUMP JUMPDEST DUP9 MSTORE PUSH1 0x6 DUP3 MSTORE PUSH1 0xFF PUSH1 0x1 DUP11 DUP11 KECCAK256 ADD SLOAD AND ISZERO PUSH2 0xFF3 JUMPI DUP9 MLOAD DUP3 DUP2 DUP7 MLOAD PUSH2 0xD71 DUP2 DUP4 DUP6 DUP12 ADD PUSH2 0x286B JUMP JUMPDEST DUP2 ADD PUSH1 0x7 DUP2 MSTORE SUB ADD SWAP1 KECCAK256 SLOAD ISZERO ISZERO SWAP1 PUSH2 0xD91 PUSH2 0xD8A PUSH2 0x2CAB JUMP JUMPDEST DUP10 DUP8 PUSH2 0x3293 JUMP JUMPDEST SWAP2 PUSH2 0xDA4 PUSH2 0xD9D PUSH2 0x2CCC JUMP JUMPDEST DUP11 DUP9 PUSH2 0x3293 JUMP JUMPDEST SWAP2 PUSH2 0xDAD PUSH2 0x2CAB JUMP JUMPDEST DUP1 MLOAD SWAP1 DUP7 ADD KECCAK256 DUP2 SUB PUSH2 0xEEE JUMPI POP ISZERO PUSH2 0xE94 JUMPI POP ISZERO PUSH2 0xE52 JUMPI JUMPDEST PUSH2 0xDD0 DUP5 DUP5 PUSH2 0x3258 JUMP JUMPDEST DUP8 MSTORE PUSH1 0x6 DUP2 MSTORE PUSH1 0xFF PUSH1 0x1 DUP10 DUP10 KECCAK256 ADD SLOAD AND PUSH2 0xDF4 JUMPI POP POP PUSH2 0xDF1 SWAP5 SWAP6 POP PUSH2 0x30DC JUMP JUMPDEST DUP1 RETURN JUMPDEST DUP8 MLOAD PUSH3 0x461BCD PUSH1 0xE5 SHL DUP2 MSTORE SWAP2 DUP3 ADD MSTORE PUSH1 0x33 PUSH1 0x24 DUP3 ADD MSTORE PUSH32 0x54617267657420616C726561647920686173206120726F6C652E205573652063 PUSH1 0x44 DUP3 ADD MSTORE PUSH19 0x1A185B99D9549BDB194A0A481A5B9CDD195859 PUSH1 0x6A SHL PUSH1 0x64 DUP3 ADD MSTORE PUSH1 0x84 SWAP2 POP REVERT JUMPDEST DUP8 MLOAD PUSH3 0x461BCD PUSH1 0xE5 SHL DUP2 MSTORE SWAP2 DUP3 ADD DUP2 SWAP1 MSTORE PUSH1 0x24 DUP3 ADD MSTORE PUSH32 0x4F6E6C79206F776E6572732063616E206772616E74206F776E657220726F6C65 PUSH1 0x44 DUP3 ADD MSTORE PUSH1 0x64 SWAP2 POP REVERT JUMPDEST SWAP1 POP PUSH2 0xDC6 JUMPI DUP8 MLOAD PUSH3 0x461BCD PUSH1 0xE5 SHL DUP2 MSTORE SWAP2 DUP3 ADD MSTORE PUSH1 0x29 PUSH1 0x24 DUP3 ADD MSTORE PUSH32 0x4F6E6C792061646D696E6973747261746F72732063616E206772616E74206669 PUSH1 0x44 DUP3 ADD MSTORE PUSH9 0x3939BA1037BBB732B9 PUSH1 0xB9 SHL PUSH1 0x64 DUP3 ADD MSTORE PUSH1 0x84 SWAP2 POP REVERT JUMPDEST SWAP1 POP PUSH2 0xEF8 PUSH2 0x2CCC JUMP JUMPDEST DUP1 MLOAD SWAP1 DUP6 ADD KECCAK256 DUP2 SUB PUSH2 0xF6F JUMPI POP DUP2 ISZERO PUSH2 0xF67 JUMPI JUMPDEST POP PUSH2 0xDC6 JUMPI DUP8 MLOAD PUSH3 0x461BCD PUSH1 0xE5 SHL DUP2 MSTORE SWAP2 DUP3 ADD MSTORE PUSH1 0x3B PUSH1 0x24 DUP3 ADD MSTORE PUSH1 0x0 DUP1 MLOAD PUSH1 0x20 PUSH2 0x35FB DUP4 CODECOPY DUP2 MLOAD SWAP2 MSTORE PUSH1 0x44 DUP3 ADD MSTORE PUSH32 0x616E206772616E742061646D696E6973747261746F7220726F6C650000000000 PUSH1 0x64 DUP3 ADD MSTORE PUSH1 0x84 SWAP2 POP REVERT JUMPDEST SWAP1 POP DUP10 PUSH2 0xF0C JUMP JUMPDEST PUSH2 0xF77 PUSH2 0x2DAA JUMP JUMPDEST DUP5 DUP2 MLOAD SWAP2 ADD KECCAK256 EQ PUSH2 0xF8A JUMPI JUMPDEST POP POP PUSH2 0xDC6 JUMP JUMPDEST DUP2 ISZERO PUSH2 0xFEB JUMPI JUMPDEST POP ISZERO PUSH2 0xF9E JUMPI DUP9 DUP1 PUSH2 0xF83 JUMP JUMPDEST DUP8 MLOAD PUSH3 0x461BCD PUSH1 0xE5 SHL DUP2 MSTORE SWAP2 DUP3 ADD MSTORE PUSH1 0x34 PUSH1 0x24 DUP3 ADD MSTORE PUSH1 0x0 DUP1 MLOAD PUSH1 0x20 PUSH2 0x35FB DUP4 CODECOPY DUP2 MLOAD SWAP2 MSTORE PUSH1 0x44 DUP3 ADD MSTORE PUSH20 0x616E206772616E742076696577657220726F6C65 PUSH1 0x60 SHL PUSH1 0x64 DUP3 ADD MSTORE PUSH1 0x84 SWAP2 POP REVERT JUMPDEST SWAP1 POP DUP10 PUSH2 0xF91 JUMP JUMPDEST PUSH1 0x64 DUP4 DUP4 DUP1 DUP13 MLOAD SWAP3 PUSH3 0x461BCD PUSH1 0xE5 SHL DUP5 MSTORE DUP4 ADD MSTORE PUSH1 0x24 DUP3 ADD MSTORE PUSH32 0x596F752068617665206E6F20726F6C6520666F722074686973207265636F7264 PUSH1 0x44 DUP3 ADD MSTORE REVERT JUMPDEST POP SWAP2 SWAP1 CALLVALUE PUSH2 0x27B JUMPI PUSH1 0x20 CALLDATASIZE PUSH1 0x3 NOT ADD SLT PUSH2 0x27B JUMPI PUSH2 0x1050 PUSH2 0x2632 JUMP JUMPDEST DUP4 SLOAD PUSH1 0x1 PUSH1 0x1 PUSH1 0xA0 SHL SUB SWAP2 SWAP1 PUSH2 0x1069 SWAP1 DUP4 AND CALLER EQ PUSH2 0x29C2 JUMP JUMPDEST AND DUP1 DUP5 MSTORE PUSH1 0x1 SWAP3 DUP4 PUSH1 0x20 MSTORE PUSH2 0x1082 DUP4 DUP7 KECCAK256 SLOAD ISZERO ISZERO PUSH2 0x29FB JUMP JUMPDEST DUP2 DUP6 MSTORE DUP4 PUSH1 0x20 MSTORE PUSH1 0xFF DUP5 DUP5 DUP8 KECCAK256 ADD SLOAD AND PUSH2 0x10B0 JUMPI POP DUP4 MSTORE PUSH1 0x20 DUP3 SWAP1 MSTORE DUP3 KECCAK256 DUP2 ADD DUP1 SLOAD PUSH1 0xFF NOT AND SWAP1 SWAP2 OR SWAP1 SSTORE DUP1 RETURN JUMPDEST PUSH1 0x64 SWAP1 PUSH1 0x20 DUP5 MLOAD SWAP2 PUSH3 0x461BCD PUSH1 0xE5 SHL DUP4 MSTORE DUP3 ADD MSTORE PUSH1 0x15 PUSH1 0x24 DUP3 ADD MSTORE PUSH21 0x57616C6C657420616C726561647920616374697665 PUSH1 0x58 SHL PUSH1 0x44 DUP3 ADD MSTORE REVERT JUMPDEST POP SWAP1 CALLVALUE PUSH2 0x2AA JUMPI PUSH1 0x20 SWAP2 PUSH2 0x1101 PUSH2 0x56F CALLDATASIZE PUSH2 0x2991 JUMP JUMPDEST DUP2 ADD PUSH1 0x9 DUP2 MSTORE SUB ADD SWAP1 KECCAK256 SWAP1 DUP2 SLOAD DUP5 LT ISZERO PUSH2 0x27F JUMPI POP PUSH1 0x20 SWAP3 PUSH2 0x5A4 SWAP2 PUSH2 0x2963 JUMP JUMPDEST POP SWAP1 CALLVALUE PUSH2 0x2AA JUMPI DUP2 PUSH1 0x3 NOT CALLDATASIZE ADD SLT PUSH2 0x2AA JUMPI DUP1 MLOAD PUSH2 0x265 SWAP2 PUSH2 0x1143 DUP3 PUSH2 0x264D JUMP JUMPDEST PUSH1 0x5 DUP3 MSTORE PUSH5 0x352E302E3 PUSH1 0xDC SHL PUSH1 0x20 DUP4 ADD MSTORE MLOAD SWAP2 DUP3 SWAP2 PUSH1 0x20 DUP4 MSTORE PUSH1 0x20 DUP4 ADD SWAP1 PUSH2 0x288E JUMP JUMPDEST POP SWAP1 CALLVALUE PUSH2 0x2AA JUMPI PUSH1 0x20 SWAP1 PUSH2 0xC88 PUSH2 0x117D CALLDATASIZE PUSH2 0x270F JUMP JUMPDEST SWAP1 PUSH2 0x2D15 JUMP JUMPDEST POP SWAP2 CALLVALUE PUSH2 0x27B JUMPI PUSH1 0x20 CALLDATASIZE PUSH1 0x3 NOT ADD SLT PUSH2 0x27B JUMPI DUP1 CALLDATALOAD SWAP1 DUP1 SLOAD DUP3 LT ISZERO PUSH2 0x35A JUMPI PUSH1 0x20 SWAP4 MSTORE PUSH32 0x8A35ACFBC15FF81A39AE7D344FD709F28E8600B4AA8C65C6B64BFE7FE36BD19B ADD SLOAD SWAP1 MLOAD SWAP1 DUP2 MSTORE RETURN JUMPDEST POP SWAP1 CALLVALUE PUSH2 0x2AA JUMPI PUSH1 0x20 SWAP2 PUSH2 0x11E6 PUSH2 0x56F CALLDATASIZE PUSH2 0x2991 JUMP JUMPDEST DUP2 ADD PUSH1 0x7 DUP2 MSTORE SUB ADD SWAP1 KECCAK256 SWAP1 DUP2 SLOAD DUP5 LT ISZERO PUSH2 0x27F JUMPI POP PUSH1 0x20 SWAP3 PUSH2 0x5A4 SWAP2 PUSH2 0x2963 JUMP JUMPDEST POP SWAP2 SWAP1 CALLVALUE PUSH2 0x27B JUMPI DUP1 PUSH1 0x3 NOT CALLDATASIZE ADD SLT PUSH2 0x27B JUMPI DUP2 CALLDATALOAD SWAP1 PUSH1 0x24 CALLDATALOAD PUSH1 0x5 DUP2 LT ISZERO PUSH2 0x52B JUMPI PUSH2 0x123D PUSH1 0x1 DUP1 PUSH1 0xA0 SHL SUB DUP7 SLOAD AND CALLER EQ PUSH2 0x29C2 JUMP JUMPDEST DUP3 DUP6 MSTORE PUSH1 0x20 PUSH1 0x2 DUP2 MSTORE PUSH1 0xFF DUP4 DUP8 KECCAK256 SLOAD AND PUSH1 0x5 DUP2 LT ISZERO PUSH2 0x135B JUMPI ISZERO PUSH2 0x1323 JUMPI DUP4 DUP7 MSTORE PUSH1 0x2 DUP2 MSTORE PUSH1 0xFF DUP4 DUP8 KECCAK256 SLOAD AND SWAP5 PUSH1 0x5 DUP7 LT ISZERO PUSH2 0x1310 JUMPI DUP3 DUP7 EQ PUSH2 0x12D9 JUMPI POP SWAP1 PUSH2 0x12AB SWAP2 DUP5 DUP8 MSTORE PUSH1 0x2 DUP2 MSTORE DUP4 DUP8 KECCAK256 PUSH1 0xFF NOT DUP2 SLOAD AND PUSH1 0xFF DUP5 AND OR SWAP1 SSTORE PUSH2 0x12A3 DUP5 MLOAD DUP1 SWAP8 PUSH2 0x292A JUMP JUMPDEST DUP6 ADD SWAP1 PUSH2 0x292A JUMP JUMPDEST TIMESTAMP SWAP1 DUP4 ADD MSTORE PUSH32 0xF6277C6EE46649823DB9A5C531DB3112B4340C67179CAE1932BA3420DCC37CC7 PUSH1 0x60 CALLER SWAP4 LOG3 DUP1 RETURN JUMPDEST PUSH1 0x64 SWAP2 DUP5 MLOAD SWAP2 PUSH3 0x461BCD PUSH1 0xE5 SHL DUP4 MSTORE DUP3 ADD MSTORE PUSH1 0x13 PUSH1 0x24 DUP3 ADD MSTORE PUSH19 0x416C7265616479207468697320737461747573 PUSH1 0x68 SHL PUSH1 0x44 DUP3 ADD MSTORE REVERT JUMPDEST PUSH4 0x4E487B71 PUSH1 0xE0 SHL DUP8 MSTORE PUSH1 0x21 SWAP1 MSTORE PUSH1 0x24 DUP7 REVERT JUMPDEST DUP5 PUSH1 0x64 SWAP2 DUP5 MLOAD SWAP2 PUSH3 0x461BCD PUSH1 0xE5 SHL DUP4 MSTORE DUP3 ADD MSTORE PUSH1 0x13 PUSH1 0x24 DUP3 ADD MSTORE PUSH19 0x155CD95C881B9BDD081C9959DA5CDD195C9959 PUSH1 0x6A SHL PUSH1 0x44 DUP3 ADD MSTORE REVERT JUMPDEST PUSH4 0x4E487B71 PUSH1 0xE0 SHL DUP8 MSTORE PUSH1 0x21 DUP7 MSTORE PUSH1 0x24 DUP8 REVERT JUMPDEST POP SWAP1 CALLVALUE PUSH2 0x2AA JUMPI PUSH2 0x137E CALLDATASIZE PUSH2 0x294D JUMP JUMPDEST SWAP3 SWAP1 DUP2 MSTORE PUSH1 0x3 PUSH1 0x20 MSTORE DUP2 DUP2 KECCAK256 SWAP1 DUP2 SLOAD DUP5 LT ISZERO PUSH2 0x27F JUMPI POP PUSH1 0x20 SWAP3 PUSH2 0x13A1 SWAP2 PUSH2 0x2963 JUMP JUMPDEST PUSH1 0x1 DUP1 PUSH1 0xA0 SHL SUB SWAP2 SLOAD SWAP1 PUSH1 0x3 SHL SHR AND SWAP1 MLOAD SWAP1 DUP2 MSTORE RETURN JUMPDEST POP SWAP1 CALLVALUE PUSH2 0x2AA JUMPI PUSH1 0x20 CALLDATASIZE PUSH1 0x3 NOT ADD SLT PUSH2 0x2AA JUMPI SWAP1 DUP2 SWAP1 PUSH1 0x1 PUSH1 0x1 PUSH1 0xA0 SHL SUB PUSH2 0x13DD PUSH2 0x2632 JUMP JUMPDEST AND DUP2 MSTORE PUSH1 0x1 PUSH1 0x20 MSTORE KECCAK256 PUSH1 0xFF PUSH1 0x1 DUP3 SLOAD SWAP3 ADD SLOAD AND DUP3 MLOAD SWAP2 DUP3 MSTORE ISZERO ISZERO PUSH1 0x20 DUP3 ADD MSTORE RETURN JUMPDEST POP SWAP2 CALLVALUE PUSH2 0x27B JUMPI DUP3 PUSH1 0x3 NOT CALLDATASIZE ADD SLT PUSH2 0x27B JUMPI PUSH32 0xF0C57E16840DF040F15088DC2F81FE391C3923BEC73E23A9662EFC9C229C6A00 SWAP2 DUP3 SLOAD PUSH1 0xFF DUP2 DUP4 SHR AND ISZERO SWAP1 PUSH1 0x1 PUSH1 0x1 PUSH1 0x40 SHL SUB DUP2 AND DUP1 ISZERO SWAP1 DUP2 PUSH2 0x1534 JUMPI JUMPDEST PUSH1 0x1 EQ SWAP1 DUP2 PUSH2 0x152A JUMPI JUMPDEST ISZERO SWAP1 DUP2 PUSH2 0x1521 JUMPI JUMPDEST POP PUSH2 0x1512 JUMPI PUSH8 0xFFFFFFFFFFFFFFFF NOT DUP2 AND PUSH1 0x1 OR DUP6 SSTORE DUP2 PUSH2 0x14F3 JUMPI JUMPDEST POP DUP4 SLOAD SWAP3 PUSH1 0xFF DUP5 DUP5 SHR AND ISZERO PUSH2 0x14E5 JUMPI POP DUP5 SLOAD PUSH1 0x1 PUSH1 0x1 PUSH1 0xA0 SHL SUB NOT AND CALLER OR DUP6 SSTORE PUSH2 0x14A5 JUMPI DUP4 DUP1 RETURN JUMPDEST PUSH32 0xC7F505B2F371AE2175EE4913F4499E1F2633A7B5936321EED1CDAEB6115181D2 SWAP3 PUSH1 0x20 SWAP3 PUSH9 0xFF0000000000000000 NOT AND SWAP1 SSTORE MLOAD PUSH1 0x1 DUP2 MSTORE LOG1 CODESIZE DUP1 DUP1 DUP4 DUP1 RETURN JUMPDEST DUP3 MLOAD PUSH4 0x1AFCD79F PUSH1 0xE3 SHL DUP2 MSTORE REVERT JUMPDEST PUSH9 0xFFFFFFFFFFFFFFFFFF NOT AND PUSH9 0x10000000000000001 OR DUP5 SSTORE CODESIZE PUSH2 0x147D JUMP JUMPDEST POP POP MLOAD PUSH4 0xF92EE8A9 PUSH1 0xE0 SHL DUP2 MSTORE REVERT JUMPDEST SWAP1 POP ISZERO CODESIZE PUSH2 0x1461 JUMP JUMPDEST ADDRESS EXTCODESIZE ISZERO SWAP2 POP PUSH2 0x1459 JUMP JUMPDEST DUP4 SWAP2 POP PUSH2 0x144F JUMP JUMPDEST POP SWAP1 CALLVALUE PUSH2 0x2AA JUMPI DUP2 PUSH1 0x3 NOT CALLDATASIZE ADD SLT PUSH2 0x2AA JUMPI PUSH1 0x20 SWAP1 PUSH1 0xB SLOAD SWAP1 MLOAD SWAP1 DUP2 MSTORE RETURN JUMPDEST POP SWAP2 SWAP1 CALLVALUE PUSH2 0x27B JUMPI PUSH1 0x20 CALLDATASIZE PUSH1 0x3 NOT ADD SLT PUSH2 0x27B JUMPI PUSH2 0x1577 PUSH2 0x2632 JUMP JUMPDEST DUP4 SLOAD SWAP2 PUSH1 0x1 PUSH1 0x1 PUSH1 0xA0 SHL SUB DUP1 DUP5 AND SWAP3 PUSH2 0x1591 CALLER DUP6 EQ PUSH2 0x29C2 JUMP JUMPDEST AND SWAP4 DUP5 ISZERO PUSH2 0x15D5 JUMPI POP SWAP1 PUSH32 0x38DF5FA0F7FEF0D515CA1F5388CB5790AC5885D5FCA8D05D9F943E563C33A4B3 PUSH1 0x20 DUP6 SWAP4 MLOAD TIMESTAMP DUP2 MSTORE LOG3 PUSH1 0x1 PUSH1 0x1 PUSH1 0xA0 SHL SUB NOT AND OR DUP2 SSTORE DUP1 RETURN JUMPDEST PUSH1 0x20 PUSH1 0x64 SWAP3 MLOAD SWAP2 PUSH3 0x461BCD PUSH1 0xE5 SHL DUP4 MSTORE DUP3 ADD MSTORE PUSH1 0xF PUSH1 0x24 DUP3 ADD MSTORE PUSH15 0x496E76616C69642061646472657373 PUSH1 0x88 SHL PUSH1 0x44 DUP3 ADD MSTORE REVERT JUMPDEST POP SWAP2 SWAP1 CALLVALUE PUSH2 0x27B JUMPI PUSH2 0x161A CALLDATASIZE PUSH2 0x270F JUMP JUMPDEST PUSH2 0x1628 DUP3 SWAP4 SWAP3 MLOAD ISZERO ISZERO PUSH2 0x2A86 JUMP JUMPDEST PUSH1 0x1 PUSH1 0x1 PUSH1 0xA0 SHL SUB AND SWAP3 PUSH2 0x163D DUP5 ISZERO ISZERO PUSH2 0x2BBB JUMP JUMPDEST CALLER DUP6 MSTORE PUSH1 0x20 SWAP2 PUSH1 0x1 DUP4 MSTORE DUP1 DUP7 KECCAK256 SLOAD SWAP5 DUP7 MSTORE DUP1 DUP7 KECCAK256 SLOAD SWAP4 PUSH2 0x165E DUP6 ISZERO ISZERO PUSH2 0x2C07 JUMP JUMPDEST PUSH2 0x1668 DUP6 DUP3 PUSH2 0x3258 JUMP JUMPDEST DUP1 DUP9 MSTORE PUSH1 0x6 DUP6 MSTORE PUSH2 0x1681 PUSH1 0xFF PUSH1 0x1 DUP6 DUP12 KECCAK256 ADD SLOAD AND PUSH2 0x2C53 JUMP JUMPDEST DUP1 DUP9 MSTORE PUSH1 0x6 DUP6 MSTORE PUSH2 0x1693 DUP4 DUP10 KECCAK256 PUSH2 0x27C6 JUMP JUMPDEST SWAP4 DUP5 MLOAD DUP7 DUP7 ADD KECCAK256 PUSH2 0x16A2 PUSH2 0x2CAB JUMP JUMPDEST DUP8 DUP2 MLOAD SWAP2 ADD KECCAK256 DUP2 EQ PUSH2 0x1904 JUMPI DUP8 DUP10 SUB PUSH2 0x17EE JUMPI JUMPDEST PUSH2 0x16BE PUSH2 0x2CCC JUMP JUMPDEST DUP8 DUP2 MLOAD SWAP2 ADD KECCAK256 EQ PUSH2 0x172B JUMPI JUMPDEST POP DUP2 PUSH2 0x1717 SWAP2 PUSH2 0x16FE DUP7 DUP10 PUSH32 0x938E21A28464DB5F9B9E24D1A58E038899DE364F69DBA20C154EE6FD4CD86DEF SWAP9 SWAP8 SWAP7 PUSH2 0x32F3 JUMP JUMPDEST DUP10 MSTORE PUSH1 0x6 DUP7 MSTORE DUP3 DUP10 KECCAK256 PUSH1 0x1 ADD DUP1 SLOAD PUSH1 0xFF NOT AND SWAP1 SSTORE PUSH2 0x2CF5 JUMP JUMPDEST SWAP4 PUSH2 0x7F2 DUP3 MLOAD SWAP4 DUP4 DUP6 SWAP5 DUP6 MSTORE DUP5 ADD SWAP1 PUSH2 0x288E JUMP JUMPDEST DUP4 MLOAD PUSH2 0x1764 DUP8 PUSH1 0x1 DUP7 MLOAD SWAP4 DUP3 DUP2 DUP2 DUP11 ADD SWAP7 PUSH2 0x1747 DUP2 DUP4 DUP11 PUSH2 0x286B JUMP JUMPDEST DUP2 ADD PUSH1 0x8 DUP2 MSTORE SUB ADD SWAP1 KECCAK256 SLOAD GT SWAP3 DUP8 MLOAD DUP1 SWAP4 DUP2 SWAP3 DUP10 MLOAD SWAP3 DUP4 SWAP2 PUSH2 0x286B JUMP JUMPDEST DUP2 ADD PUSH1 0x7 DUP2 MSTORE SUB ADD SWAP1 KECCAK256 SLOAD ISZERO ISZERO DUP2 ISZERO PUSH2 0x17E6 JUMPI JUMPDEST POP PUSH2 0x16CA JUMPI DUP4 MLOAD PUSH3 0x461BCD PUSH1 0xE5 SHL DUP2 MSTORE SWAP1 DUP2 ADD DUP7 SWAP1 MSTORE PUSH1 0x39 PUSH1 0x24 DUP3 ADD MSTORE PUSH32 0x43616E6E6F74207265766F6B65206C6173742061646D696E6973747261746F72 PUSH1 0x44 DUP3 ADD MSTORE PUSH32 0x20776974686F757420616E206F776E65722070726573656E7400000000000000 PUSH1 0x64 DUP3 ADD MSTORE PUSH1 0x84 SWAP1 REVERT JUMPDEST SWAP1 POP CODESIZE PUSH2 0x1778 JUMP JUMPDEST PUSH2 0x1800 PUSH2 0x17F9 PUSH2 0x2CAB JUMP JUMPDEST DUP11 DUP7 PUSH2 0x3293 JUMP JUMPDEST DUP1 ISZERO PUSH2 0x18F3 JUMPI JUMPDEST ISZERO PUSH2 0x18AA JUMPI PUSH2 0x1817 PUSH2 0x17F9 PUSH2 0x2CAB JUMP JUMPDEST ISZERO PUSH2 0x1822 JUMPI JUMPDEST PUSH2 0x16B6 JUMP JUMPDEST PUSH2 0x182A PUSH2 0x2CCC JUMP JUMPDEST DUP8 DUP2 MLOAD SWAP2 ADD KECCAK256 DUP2 SUB PUSH2 0x16B6 JUMPI DUP5 MLOAD DUP8 DUP2 DUP7 MLOAD PUSH2 0x1849 DUP2 DUP4 DUP6 DUP12 ADD PUSH2 0x286B JUMP JUMPDEST DUP2 ADD PUSH1 0x7 DUP2 MSTORE SUB ADD SWAP1 KECCAK256 SLOAD ISZERO PUSH2 0x181D JUMPI DUP5 MLOAD PUSH3 0x461BCD PUSH1 0xE5 SHL DUP2 MSTORE DUP1 DUP4 ADD DUP9 SWAP1 MSTORE PUSH1 0x25 PUSH1 0x24 DUP3 ADD MSTORE PUSH32 0x4F6E6C79206F776E6572732063616E207265766F6B652061646D696E69737472 PUSH1 0x44 DUP3 ADD MSTORE PUSH5 0x61746F7273 PUSH1 0xD8 SHL PUSH1 0x64 DUP3 ADD MSTORE PUSH1 0x84 SWAP1 REVERT JUMPDEST DUP5 MLOAD PUSH3 0x461BCD PUSH1 0xE5 SHL DUP2 MSTORE DUP1 DUP4 ADD DUP9 SWAP1 MSTORE PUSH1 0x2F PUSH1 0x24 DUP3 ADD MSTORE PUSH1 0x0 DUP1 MLOAD PUSH1 0x20 PUSH2 0x35FB DUP4 CODECOPY DUP2 MLOAD SWAP2 MSTORE PUSH1 0x44 DUP3 ADD MSTORE PUSH15 0x616E207265766F6B6520726F6C6573 PUSH1 0x88 SHL PUSH1 0x64 DUP3 ADD MSTORE PUSH1 0x84 SWAP1 REVERT JUMPDEST POP PUSH2 0x18FF PUSH2 0x17F9 PUSH2 0x2CCC JUMP JUMPDEST PUSH2 0x1807 JUMP JUMPDEST DUP5 MLOAD PUSH3 0x461BCD PUSH1 0xE5 SHL DUP2 MSTORE DUP1 DUP4 ADD DUP9 SWAP1 MSTORE PUSH1 0x45 PUSH1 0x24 DUP3 ADD MSTORE PUSH32 0x4F776E6572732063616E6E6F74206265207265766F6B65642E204F776E657220 PUSH1 0x44 DUP3 ADD MSTORE PUSH32 0x6D7573742075736520766F6C756E746172696C794C656176654F776E65727368 PUSH1 0x64 DUP3 ADD MSTORE PUSH5 0x34B8141497 PUSH1 0xD9 SHL PUSH1 0x84 DUP3 ADD MSTORE PUSH1 0xA4 SWAP1 REVERT JUMPDEST POP DUP3 CALLVALUE PUSH2 0x2AA JUMPI PUSH1 0x20 SWAP1 DUP2 PUSH1 0x3 NOT CALLDATASIZE ADD SLT PUSH2 0x27B JUMPI DUP1 CALLDATALOAD DUP4 MSTORE PUSH1 0xA DUP3 MSTORE DUP4 DUP4 KECCAK256 SWAP2 DUP3 SLOAD SWAP2 PUSH1 0x1 PUSH1 0x1 PUSH1 0x40 SHL SUB DUP4 GT PUSH2 0x1A57 JUMPI POP SWAP3 SWAP1 DUP5 MLOAD SWAP1 PUSH2 0x19C2 DUP6 DUP3 PUSH1 0x5 SHL ADD DUP4 PUSH2 0x267E JUMP JUMPDEST DUP1 DUP3 MSTORE DUP5 DUP3 ADD DUP1 SWAP5 DUP5 MSTORE DUP6 DUP5 KECCAK256 DUP5 SWAP2 JUMPDEST DUP4 DUP4 LT PUSH2 0x1A33 JUMPI POP POP POP POP DUP5 MLOAD SWAP4 DUP1 DUP6 ADD SWAP2 DUP2 DUP7 MSTORE MLOAD DUP1 SWAP3 MSTORE DUP6 DUP6 ADD SWAP6 DUP3 PUSH1 0x5 SHL DUP7 ADD ADD SWAP4 SWAP3 SWAP6 JUMPDEST DUP3 DUP8 LT PUSH2 0x1A07 JUMPI DUP6 DUP6 SUB DUP7 RETURN JUMPDEST SWAP1 SWAP2 SWAP3 SWAP4 DUP3 DUP1 PUSH2 0x1A23 PUSH1 0x1 SWAP4 PUSH1 0x3F NOT DUP11 DUP3 SUB ADD DUP7 MSTORE DUP9 MLOAD PUSH2 0x288E JUMP JUMPDEST SWAP7 ADD SWAP3 ADD SWAP7 ADD SWAP6 SWAP3 SWAP2 SWAP1 SWAP3 PUSH2 0x19FA JUMP JUMPDEST PUSH1 0x1 DUP9 DUP2 SWAP3 PUSH2 0x1A45 DUP6 SWAP12 SWAP9 SWAP10 SWAP12 PUSH2 0x27C6 JUMP JUMPDEST DUP2 MSTORE ADD SWAP3 ADD SWAP3 ADD SWAP2 SWAP1 SWAP7 SWAP5 SWAP4 SWAP7 PUSH2 0x19D2 JUMP JUMPDEST PUSH4 0x4E487B71 PUSH1 0xE0 SHL DUP6 MSTORE PUSH1 0x41 SWAP1 MSTORE PUSH1 0x24 DUP5 REVERT JUMPDEST POP CALLVALUE PUSH2 0x27F JUMPI DUP1 PUSH1 0x3 NOT CALLDATASIZE ADD SLT PUSH2 0x27F JUMPI POP PUSH32 0x0 PUSH1 0x1 PUSH1 0x1 PUSH1 0xA0 SHL SUB AND ADDRESS SUB PUSH2 0x1AD5 JUMPI PUSH1 0x20 SWAP1 MLOAD PUSH32 0x360894A13BA1A3210667C828492DB98DCA3E2076CC3735A920A3CA505D382BBC DUP2 MSTORE RETURN JUMPDEST MLOAD PUSH4 0x703E46DD PUSH1 0xE1 SHL DUP2 MSTORE REVERT JUMPDEST POP SWAP2 SWAP1 CALLVALUE PUSH2 0x27B JUMPI PUSH1 0x20 SWAP2 DUP3 PUSH1 0x3 NOT CALLDATASIZE ADD SLT PUSH2 0x35A JUMPI DUP1 CALLDATALOAD SWAP1 PUSH1 0x1 PUSH1 0x1 PUSH1 0x40 SHL SUB DUP3 GT PUSH2 0x52B JUMPI PUSH2 0x1B1A DUP5 SWAP2 PUSH2 0x1B2C SWAP4 CALLDATASIZE SWAP2 ADD PUSH2 0x26F1 JUMP JUMPDEST DUP2 DUP5 MLOAD SWAP4 DUP3 DUP6 DUP1 SWAP5 MLOAD SWAP4 DUP5 SWAP3 ADD PUSH2 0x286B JUMP JUMPDEST DUP2 ADD PUSH1 0x9 DUP2 MSTORE SUB ADD SWAP1 KECCAK256 SWAP3 DUP2 MLOAD DUP1 SWAP4 DUP1 DUP7 SLOAD SWAP3 DUP4 DUP2 MSTORE ADD SWAP6 DUP4 MSTORE DUP1 DUP4 KECCAK256 SWAP3 SWAP1 JUMPDEST DUP3 DUP3 LT PUSH2 0x1B64 JUMPI PUSH2 0x265 DUP7 DUP7 PUSH2 0x612 DUP3 DUP12 SUB DUP4 PUSH2 0x267E JUMP JUMPDEST DUP4 SLOAD DUP8 MSTORE SWAP6 DUP7 ADD SWAP6 PUSH1 0x1 SWAP4 DUP5 ADD SWAP4 SWAP1 SWAP2 ADD SWAP1 PUSH2 0x1B4C JUMP JUMPDEST POP SWAP2 SWAP1 DUP1 PUSH1 0x3 NOT CALLDATASIZE ADD SLT PUSH2 0x27B JUMPI PUSH2 0x1B91 PUSH2 0x2632 JUMP JUMPDEST SWAP1 PUSH1 0x24 CALLDATALOAD PUSH1 0x1 PUSH1 0x1 PUSH1 0x40 SHL SUB DUP2 GT PUSH2 0x52B JUMPI CALLDATASIZE PUSH1 0x23 DUP3 ADD SLT ISZERO PUSH2 0x52B JUMPI PUSH2 0x1BC1 SWAP1 CALLDATASIZE SWAP1 PUSH1 0x24 DUP2 DUP8 ADD CALLDATALOAD SWAP2 ADD PUSH2 0x26BA JUMP JUMPDEST PUSH1 0x1 PUSH1 0x1 PUSH1 0xA0 SHL SUB PUSH32 0x0 DUP2 AND ADDRESS DUP2 EQ SWAP1 DUP2 ISZERO PUSH2 0x1D94 JUMPI JUMPDEST POP PUSH2 0x1D84 JUMPI PUSH2 0x1C0A DUP2 DUP8 SLOAD AND CALLER EQ PUSH2 0x29C2 JUMP JUMPDEST DUP3 MLOAD PUSH4 0x52D1902D PUSH1 0xE0 SHL DUP2 MSTORE SWAP1 DUP5 AND SWAP4 PUSH1 0x20 SWAP2 DUP3 DUP2 DUP9 DUP2 DUP10 GAS STATICCALL DUP9 SWAP2 DUP2 PUSH2 0x1D51 JUMPI JUMPDEST POP PUSH2 0x1C48 JUMPI DUP5 MLOAD PUSH4 0x4C9C8CE3 PUSH1 0xE0 SHL DUP2 MSTORE DUP1 DUP9 ADD DUP8 SWAP1 MSTORE PUSH1 0x24 SWAP1 REVERT JUMPDEST PUSH32 0x360894A13BA1A3210667C828492DB98DCA3E2076CC3735A920A3CA505D382BBC SWAP7 SWAP3 SWAP6 SWAP2 SWAP4 SWAP7 SWAP1 DUP2 DUP2 SUB PUSH2 0x1D3B JUMPI POP DUP4 EXTCODESIZE ISZERO PUSH2 0x1D24 JUMPI DUP1 SLOAD PUSH1 0x1 PUSH1 0x1 PUSH1 0xA0 SHL SUB NOT AND DUP3 OR SWAP1 SSTORE DUP4 MLOAD DUP8 SWAP3 SWAP2 PUSH32 0xBC7CD75A20EE27FD9ADEBAB32041F755214DBC6BFFA90CC0225B39DA2E5C2D3B DUP5 DUP1 LOG2 DUP7 MLOAD ISZERO PUSH2 0x1D07 JUMPI POP POP DUP1 DUP6 DUP6 PUSH2 0x1CF9 SWAP8 MLOAD SWAP2 ADD DUP5 GAS DELEGATECALL SWAP2 RETURNDATASIZE ISZERO PUSH2 0x1CFD JUMPI RETURNDATASIZE PUSH2 0x1CEB PUSH2 0x1CE2 DUP3 PUSH2 0x269F JUMP JUMPDEST SWAP3 MLOAD SWAP3 DUP4 PUSH2 0x267E JUMP JUMPDEST DUP2 MSTORE DUP6 DUP2 SWAP5 RETURNDATASIZE SWAP3 ADD RETURNDATACOPY PUSH2 0x3577 JUMP JUMPDEST POP DUP1 RETURN JUMPDEST POP PUSH1 0x60 SWAP3 POP PUSH2 0x3577 JUMP JUMPDEST SWAP5 POP SWAP5 POP POP POP POP CALLVALUE PUSH2 0x1D18 JUMPI POP POP DUP1 RETURN JUMPDEST PUSH4 0xB398979F PUSH1 0xE0 SHL DUP2 MSTORE REVERT JUMPDEST DUP5 MLOAD PUSH4 0x4C9C8CE3 PUSH1 0xE0 SHL DUP2 MSTORE DUP1 DUP5 ADD DUP4 SWAP1 MSTORE PUSH1 0x24 SWAP1 REVERT JUMPDEST DUP4 PUSH1 0x24 SWAP2 DUP8 MLOAD SWAP2 PUSH4 0x2A875269 PUSH1 0xE2 SHL DUP4 MSTORE DUP3 ADD MSTORE REVERT JUMPDEST SWAP1 SWAP2 POP DUP4 DUP2 DUP2 RETURNDATASIZE DUP4 GT PUSH2 0x1D7D JUMPI JUMPDEST PUSH2 0x1D69 DUP2 DUP4 PUSH2 0x267E JUMP JUMPDEST DUP2 ADD SUB SLT PUSH2 0x1D79 JUMPI MLOAD SWAP1 CODESIZE PUSH2 0x1C2C JUMP JUMPDEST DUP9 DUP1 REVERT JUMPDEST POP RETURNDATASIZE PUSH2 0x1D5F JUMP JUMPDEST DUP3 MLOAD PUSH4 0x703E46DD PUSH1 0xE1 SHL DUP2 MSTORE DUP6 SWAP1 REVERT JUMPDEST SWAP1 POP DUP2 PUSH32 0x360894A13BA1A3210667C828492DB98DCA3E2076CC3735A920A3CA505D382BBC SLOAD AND EQ ISZERO CODESIZE PUSH2 0x1BF7 JUMP JUMPDEST POP SWAP2 CALLVALUE PUSH2 0x27B JUMPI DUP2 PUSH1 0x3 NOT CALLDATASIZE ADD SLT PUSH2 0x27B JUMPI PUSH2 0x1DDC PUSH2 0x2632 JUMP JUMPDEST SWAP2 PUSH1 0x24 SWAP1 DUP2 CALLDATALOAD SWAP4 PUSH1 0x1 DUP1 PUSH1 0xA0 SHL SUB DUP1 SWAP2 PUSH2 0x1DFA DUP3 DUP10 SLOAD AND CALLER EQ PUSH2 0x29C2 JUMP JUMPDEST AND SWAP4 PUSH2 0x1E07 DUP6 ISZERO ISZERO PUSH2 0x2AD2 JUMP JUMPDEST DUP6 ISZERO PUSH2 0x1FF9 JUMPI DUP5 DUP8 MSTORE PUSH1 0x1 SWAP4 PUSH1 0x20 SWAP5 DUP1 DUP7 MSTORE DUP5 DUP10 KECCAK256 SLOAD PUSH2 0x1FB7 JUMPI PUSH2 0x1E5C DUP6 MLOAD PUSH2 0x1E2F DUP2 PUSH2 0x264D JUMP JUMPDEST DUP10 DUP2 MSTORE DUP3 DUP9 DUP3 ADD DUP2 DUP2 MSTORE DUP11 DUP14 MSTORE DUP2 DUP11 MSTORE DUP9 DUP14 KECCAK256 SWAP3 MLOAD DUP4 SSTORE MLOAD ISZERO ISZERO SWAP2 ADD SWAP1 PUSH1 0xFF DUP1 NOT DUP4 SLOAD AND SWAP2 ISZERO ISZERO AND OR SWAP1 SSTORE JUMP JUMPDEST DUP8 DUP10 MSTORE PUSH1 0x3 DUP7 MSTORE DUP5 DUP10 KECCAK256 SWAP4 DUP5 SLOAD PUSH1 0x1 PUSH1 0x40 SHL SWAP6 DUP7 DUP3 LT ISZERO PUSH2 0x1FA5 JUMPI SWAP1 PUSH2 0x1E86 SWAP2 DUP5 DUP3 ADD DUP2 SSTORE PUSH2 0x2963 JUMP JUMPDEST DUP2 SWAP3 SWAP2 SLOAD SWAP1 PUSH1 0x3 SHL SWAP2 DUP11 DUP4 SHL SWAP3 SHL NOT AND OR SWAP1 SSTORE DUP8 DUP10 MSTORE PUSH1 0x2 DUP7 MSTORE PUSH1 0xFF DUP6 DUP11 KECCAK256 SLOAD AND PUSH1 0x5 DUP2 LT ISZERO PUSH2 0x1F93 JUMPI PUSH2 0x1F64 JUMPI DUP8 DUP10 MSTORE PUSH1 0x2 DUP7 MSTORE DUP5 DUP10 KECCAK256 PUSH1 0x2 PUSH1 0xFF NOT DUP3 SLOAD AND OR SWAP1 SSTORE DUP3 SLOAD SWAP4 DUP5 LT ISZERO PUSH2 0x1F52 JUMPI DUP4 ADD DUP1 DUP4 SSTORE DUP4 LT ISZERO PUSH2 0x1F41 JUMPI POP PUSH32 0x39D132591EE0696DE49AB564E4A90E430C006561917DB731A2A614DD2D245591 SWAP4 SWAP3 SWAP2 DUP7 SWAP2 DUP9 MSTORE PUSH32 0x8A35ACFBC15FF81A39AE7D344FD709F28E8600B4AA8C65C6B64BFE7FE36BD19B ADD SSTORE PUSH2 0x1F36 PUSH1 0x5 SLOAD PUSH2 0x2B96 JUMP JUMPDEST PUSH1 0x5 SSTORE MLOAD TIMESTAMP DUP2 MSTORE LOG3 DUP1 RETURN JUMPDEST PUSH4 0x4E487B71 PUSH1 0xE0 SHL DUP9 MSTORE PUSH1 0x32 DUP3 MSTORE DUP8 REVERT JUMPDEST POP PUSH4 0x4E487B71 PUSH1 0xE0 SHL DUP9 MSTORE PUSH1 0x41 DUP3 MSTORE DUP8 REVERT JUMPDEST POP POP POP POP SWAP1 PUSH32 0x1CC138F50384BE7770A8E4A34EECAA0D0C718BFAA1641AF49DB32532E4A5B910 SWAP2 MLOAD TIMESTAMP DUP2 MSTORE LOG3 DUP1 RETURN JUMPDEST PUSH4 0x4E487B71 PUSH1 0xE0 SHL DUP11 MSTORE PUSH1 0x21 DUP5 MSTORE DUP3 DUP11 REVERT JUMPDEST PUSH4 0x4E487B71 PUSH1 0xE0 SHL DUP13 MSTORE PUSH1 0x41 DUP7 MSTORE DUP5 DUP13 REVERT JUMPDEST DUP5 MLOAD PUSH3 0x461BCD PUSH1 0xE5 SHL DUP2 MSTORE DUP1 DUP5 ADD DUP8 SWAP1 MSTORE PUSH1 0x19 DUP2 DUP5 ADD MSTORE PUSH32 0x57616C6C657420616C7265616479207265676973746572656400000000000000 PUSH1 0x44 DUP3 ADD MSTORE PUSH1 0x64 SWAP1 REVERT JUMPDEST PUSH1 0x64 SWAP1 PUSH1 0x14 DUP6 PUSH1 0x20 DUP7 MLOAD SWAP4 PUSH3 0x461BCD PUSH1 0xE5 SHL DUP6 MSTORE DUP5 ADD MSTORE DUP3 ADD MSTORE PUSH20 0x92DCECC2D8D2C840EAE6CAE440928840D0C2E6D PUSH1 0x63 SHL PUSH1 0x44 DUP3 ADD MSTORE REVERT JUMPDEST POP SWAP1 CALLVALUE PUSH2 0x2AA JUMPI PUSH1 0x20 CALLDATASIZE PUSH1 0x3 NOT ADD SLT PUSH2 0x2AA JUMPI PUSH1 0x20 SWAP1 PUSH2 0xC88 PUSH2 0x2053 PUSH2 0x2632 JUMP JUMPDEST PUSH2 0x2F61 JUMP JUMPDEST POP CALLVALUE PUSH2 0x27F JUMPI PUSH1 0x20 SWAP1 DUP2 PUSH1 0x3 NOT CALLDATASIZE ADD SLT PUSH2 0x27F JUMPI DUP4 CALLDATALOAD SWAP1 PUSH1 0x1 PUSH1 0x1 PUSH1 0x40 SHL SUB DUP3 GT PUSH2 0x27F JUMPI POP PUSH1 0x60 SWAP4 PUSH2 0x208D SWAP2 CALLDATASIZE SWAP2 ADD PUSH2 0x26F1 JUMP JUMPDEST SWAP2 DUP1 MLOAD SWAP3 PUSH2 0x20E2 DUP4 DUP3 MLOAD SWAP6 DUP2 DUP2 DUP2 DUP7 ADD SWAP9 PUSH2 0x20A9 DUP2 DUP4 DUP13 PUSH2 0x286B JUMP JUMPDEST DUP2 ADD PUSH1 0x7 DUP2 MSTORE SUB ADD SWAP1 KECCAK256 SLOAD SWAP6 DUP5 MLOAD DUP3 DUP2 DUP7 MLOAD PUSH2 0x20C6 DUP2 DUP4 DUP8 PUSH2 0x286B JUMP JUMPDEST DUP2 ADD PUSH1 0x8 DUP2 MSTORE SUB ADD SWAP1 KECCAK256 SLOAD SWAP4 DUP6 MLOAD SWAP4 DUP5 SWAP3 DUP4 SWAP3 MLOAD SWAP3 DUP4 SWAP2 PUSH2 0x286B JUMP JUMPDEST DUP2 ADD PUSH1 0x9 DUP2 MSTORE SUB ADD SWAP1 KECCAK256 SLOAD SWAP3 DUP3 MLOAD SWAP5 DUP6 MSTORE DUP5 ADD MSTORE DUP3 ADD MSTORE RETURN JUMPDEST POP SWAP2 SWAP1 CALLVALUE PUSH2 0x27B JUMPI PUSH1 0x20 SWAP2 DUP3 PUSH1 0x3 NOT CALLDATASIZE ADD SLT PUSH2 0x35A JUMPI DUP1 CALLDATALOAD SWAP1 PUSH1 0x1 PUSH1 0x1 PUSH1 0x40 SHL SUB DUP3 GT PUSH2 0x52B JUMPI PUSH2 0x1B1A DUP5 SWAP2 PUSH2 0x2133 SWAP4 CALLDATASIZE SWAP2 ADD PUSH2 0x26F1 JUMP JUMPDEST DUP2 ADD PUSH1 0x8 DUP2 MSTORE SUB ADD SWAP1 KECCAK256 SWAP3 DUP2 MLOAD DUP1 SWAP4 DUP1 DUP7 SLOAD SWAP3 DUP4 DUP2 MSTORE ADD SWAP6 DUP4 MSTORE DUP1 DUP4 KECCAK256 SWAP3 SWAP1 JUMPDEST DUP3 DUP3 LT PUSH2 0x216B JUMPI PUSH2 0x265 DUP7 DUP7 PUSH2 0x612 DUP3 DUP12 SUB DUP4 PUSH2 0x267E JUMP JUMPDEST DUP4 SLOAD DUP8 MSTORE SWAP6 DUP7 ADD SWAP6 PUSH1 0x1 SWAP4 DUP5 ADD SWAP4 SWAP1 SWAP2 ADD SWAP1 PUSH2 0x2153 JUMP JUMPDEST POP DUP3 CALLVALUE PUSH2 0x2AA JUMPI PUSH2 0x2192 CALLDATASIZE PUSH2 0x28D3 JUMP JUMPDEST SWAP1 SWAP3 SWAP2 SWAP5 PUSH1 0x1 DUP1 PUSH1 0xA0 SHL SUB PUSH2 0x21AB DUP2 DUP8 SLOAD AND CALLER EQ PUSH2 0x29C2 JUMP JUMPDEST PUSH2 0x21B7 DUP8 MLOAD ISZERO ISZERO PUSH2 0x2A86 JUMP JUMPDEST DUP5 AND PUSH2 0x21C4 DUP2 ISZERO ISZERO PUSH2 0x2AD2 JUMP JUMPDEST PUSH2 0x21D0 PUSH2 0x684 DUP5 PUSH2 0x2F09 JUMP JUMPDEST DUP6 MSTORE PUSH1 0x20 SWAP3 PUSH1 0x1 DUP5 MSTORE PUSH2 0x21EC DUP3 DUP8 KECCAK256 SLOAD SWAP6 PUSH2 0x2053 DUP8 ISZERO ISZERO PUSH2 0x29FB JUMP JUMPDEST ISZERO PUSH2 0x23F7 JUMPI DUP2 MLOAD DUP5 DUP9 MLOAD SWAP2 DUP2 DUP2 DUP2 DUP13 ADD SWAP5 PUSH2 0x2208 DUP2 DUP4 DUP9 PUSH2 0x286B JUMP JUMPDEST DUP2 ADD PUSH1 0x7 DUP2 MSTORE SUB ADD SWAP1 KECCAK256 SLOAD ISZERO SWAP2 DUP3 PUSH2 0x23CF JUMPI JUMPDEST POP POP ISZERO PUSH2 0x238E JUMPI PUSH2 0x222C DUP6 DUP9 PUSH2 0x3258 JUMP JUMPDEST DUP1 DUP8 MSTORE PUSH1 0x6 DUP6 MSTORE DUP7 DUP6 PUSH2 0x2291 DUP7 PUSH1 0x1 DUP8 DUP6 KECCAK256 SWAP6 PUSH2 0x227B DUP10 PUSH2 0x224C DUP10 PUSH2 0x27C6 JUMP JUMPDEST SWAP8 PUSH1 0x6 PUSH1 0xFF DUP7 DUP12 MLOAD ISZERO SWAP13 ADD SLOAD AND SWAP9 DUP4 MLOAD SWAP8 PUSH2 0x2266 DUP10 PUSH2 0x264D JUMP JUMPDEST DUP9 MSTORE DUP1 DUP9 ADD SWAP6 DUP8 DUP8 MSTORE DUP4 MSTORE MSTORE KECCAK256 SWAP4 MLOAD DUP5 PUSH2 0x2FCA JUMP JUMPDEST MLOAD ISZERO ISZERO SWAP2 ADD SWAP1 PUSH1 0xFF DUP1 NOT DUP4 SLOAD AND SWAP2 ISZERO ISZERO AND OR SWAP1 SSTORE JUMP JUMPDEST PUSH2 0x234F JUMPI POP PUSH2 0x22A1 DUP5 DUP8 DUP11 PUSH2 0x3414 JUMP JUMPDEST PUSH2 0x22C2 JUMPI JUMPDEST POP SWAP1 PUSH1 0x0 DUP1 MLOAD PUSH1 0x20 PUSH2 0x35DB DUP4 CODECOPY DUP2 MLOAD SWAP2 MSTORE SWAP2 PUSH2 0x1717 DUP7 SWAP8 PUSH2 0x2CF5 JUMP JUMPDEST SWAP6 DUP5 DUP7 MSTORE PUSH1 0xA DUP5 MSTORE DUP2 DUP7 KECCAK256 DUP1 SLOAD SWAP1 PUSH1 0x1 PUSH1 0x40 SHL DUP3 LT ISZERO PUSH2 0x233C JUMPI SWAP1 PUSH2 0x22EC SWAP2 PUSH1 0x1 DUP3 ADD DUP2 SSTORE PUSH2 0x2963 JUMP JUMPDEST PUSH2 0x232A JUMPI DUP7 SWAP8 POP DUP2 PUSH2 0x2312 PUSH1 0x0 DUP1 MLOAD PUSH1 0x20 PUSH2 0x35DB DUP4 CODECOPY DUP2 MLOAD SWAP2 MSTORE SWAP6 SWAP5 SWAP4 PUSH2 0x1717 SWAP4 PUSH2 0x2FCA JUMP JUMPDEST PUSH2 0x231D PUSH1 0xB SLOAD PUSH2 0x2B96 JUMP JUMPDEST PUSH1 0xB SSTORE SWAP8 POP POP SWAP1 SWAP2 PUSH2 0x22A6 JUMP JUMPDEST PUSH4 0x4E487B71 PUSH1 0xE0 SHL DUP8 MSTORE DUP7 DUP9 MSTORE PUSH1 0x24 DUP8 REVERT JUMPDEST PUSH4 0x4E487B71 PUSH1 0xE0 SHL DUP9 MSTORE PUSH1 0x41 DUP10 MSTORE PUSH1 0x24 DUP9 REVERT JUMPDEST SWAP7 SWAP8 SWAP4 SWAP6 SWAP5 SWAP3 POP POP POP DUP5 MLOAD DUP2 DUP7 ADD KECCAK256 SWAP1 DUP5 MLOAD SWAP1 DUP6 ADD KECCAK256 SUB PUSH2 0x2372 JUMPI JUMPDEST POP POP POP POP DUP1 RETURN JUMPDEST PUSH2 0x2380 PUSH2 0x2385 SWAP5 DUP4 DUP4 PUSH2 0x32F3 JUMP JUMPDEST PUSH2 0x3414 JUMP JUMPDEST DUP2 DUP1 DUP1 DUP1 PUSH2 0x236B JUMP JUMPDEST DUP4 PUSH1 0x64 SWAP3 MLOAD SWAP2 PUSH3 0x461BCD PUSH1 0xE5 SHL DUP4 MSTORE DUP3 ADD MSTORE PUSH1 0x1A PUSH1 0x24 DUP3 ADD MSTORE PUSH32 0x5265636F726420616C726561647920696E697469616C697A6564000000000000 PUSH1 0x44 DUP3 ADD MSTORE REVERT JUMPDEST PUSH2 0x23E4 SWAP3 POP DUP5 MLOAD DUP1 SWAP4 DUP2 SWAP3 DUP13 MLOAD SWAP3 DUP4 SWAP2 PUSH2 0x286B JUMP JUMPDEST DUP2 ADD PUSH1 0x8 DUP2 MSTORE SUB ADD SWAP1 KECCAK256 SLOAD ISZERO DUP5 DUP10 PUSH2 0x221B JUMP JUMPDEST DUP4 PUSH1 0x64 SWAP3 MLOAD SWAP2 PUSH3 0x461BCD PUSH1 0xE5 SHL DUP4 MSTORE DUP3 ADD MSTORE PUSH1 0x18 PUSH1 0x24 DUP3 ADD MSTORE PUSH32 0x4D75737420626520616E20616374697665206D656D6265720000000000000000 PUSH1 0x44 DUP3 ADD MSTORE REVERT JUMPDEST POP SWAP2 CALLVALUE PUSH2 0x27B JUMPI PUSH1 0x20 CALLDATASIZE PUSH1 0x3 NOT ADD SLT PUSH2 0x27B JUMPI SWAP2 DUP2 SWAP3 CALLDATALOAD DUP2 MSTORE PUSH1 0x6 PUSH1 0x20 MSTORE KECCAK256 PUSH2 0x265 PUSH1 0xFF PUSH1 0x1 PUSH2 0x2467 DUP5 PUSH2 0x27C6 JUMP JUMPDEST SWAP4 ADD SLOAD AND SWAP3 MLOAD SWAP3 DUP4 SWAP3 DUP4 PUSH2 0x28B3 JUMP JUMPDEST POP SWAP1 CALLVALUE PUSH2 0x2AA JUMPI PUSH1 0x20 CALLDATASIZE PUSH1 0x3 NOT ADD SLT PUSH2 0x2AA JUMPI PUSH1 0x20 SWAP1 PUSH2 0xC88 PUSH2 0x2497 PUSH2 0x2632 JUMP JUMPDEST PUSH2 0x2E98 JUMP JUMPDEST POP SWAP2 SWAP1 CALLVALUE PUSH2 0x27B JUMPI PUSH1 0x20 SWAP2 DUP3 PUSH1 0x3 NOT CALLDATASIZE ADD SLT PUSH2 0x35A JUMPI DUP1 CALLDATALOAD SWAP1 PUSH1 0x1 PUSH1 0x1 PUSH1 0x40 SHL SUB DUP3 GT PUSH2 0x52B JUMPI PUSH2 0x1B1A DUP5 SWAP2 PUSH2 0x24D4 SWAP4 CALLDATASIZE SWAP2 ADD PUSH2 0x26F1 JUMP JUMPDEST DUP2 ADD PUSH1 0x7 DUP2 MSTORE SUB ADD SWAP1 KECCAK256 SWAP3 DUP2 MLOAD DUP1 SWAP4 DUP1 DUP7 SLOAD SWAP3 DUP4 DUP2 MSTORE ADD SWAP6 DUP4 MSTORE DUP1 DUP4 KECCAK256 SWAP3 SWAP1 JUMPDEST DUP3 DUP3 LT PUSH2 0x250C JUMPI PUSH2 0x265 DUP7 DUP7 PUSH2 0x612 DUP3 DUP12 SUB DUP4 PUSH2 0x267E JUMP JUMPDEST DUP4 SLOAD DUP8 MSTORE SWAP6 DUP7 ADD SWAP6 PUSH1 0x1 SWAP4 DUP5 ADD SWAP4 SWAP1 SWAP2 ADD SWAP1 PUSH2 0x24F4 JUMP JUMPDEST POP SWAP1 CALLVALUE PUSH2 0x2AA JUMPI PUSH1 0x20 SWAP1 PUSH2 0xC88 PUSH2 0x2539 CALLDATASIZE PUSH2 0x270F JUMP JUMPDEST SWAP1 PUSH2 0x2A3F JUMP JUMPDEST POP SWAP2 CALLVALUE PUSH2 0x27B JUMPI PUSH1 0x20 CALLDATASIZE PUSH1 0x3 NOT ADD SLT PUSH2 0x27B JUMPI PUSH2 0x255A PUSH2 0x2632 JUMP JUMPDEST DUP4 SLOAD PUSH1 0x1 PUSH1 0x1 PUSH1 0xA0 SHL SUB SWAP2 SWAP1 PUSH2 0x2573 SWAP1 DUP4 AND CALLER EQ PUSH2 0x29C2 JUMP JUMPDEST AND SWAP1 DUP2 DUP5 MSTORE PUSH1 0x1 PUSH1 0x20 MSTORE PUSH2 0x258B DUP4 DUP6 KECCAK256 SLOAD ISZERO ISZERO PUSH2 0x29FB JUMP JUMPDEST DUP2 DUP5 MSTORE PUSH1 0x1 PUSH1 0x20 MSTORE PUSH1 0xFF PUSH1 0x1 DUP5 DUP7 KECCAK256 ADD SLOAD AND ISZERO PUSH2 0x25BB JUMPI POP DUP3 MSTORE PUSH1 0x1 PUSH1 0x20 DUP2 SWAP1 MSTORE SWAP1 DUP3 KECCAK256 ADD DUP1 SLOAD PUSH1 0xFF NOT AND SWAP1 SSTORE DUP1 RETURN JUMPDEST PUSH1 0x64 SWAP1 PUSH1 0x20 DUP5 MLOAD SWAP2 PUSH3 0x461BCD PUSH1 0xE5 SHL DUP4 MSTORE DUP3 ADD MSTORE PUSH1 0x17 PUSH1 0x24 DUP3 ADD MSTORE PUSH32 0x57616C6C657420616C726561647920696E616374697665000000000000000000 PUSH1 0x44 DUP3 ADD MSTORE REVERT JUMPDEST SWAP1 POP DUP3 CALLVALUE PUSH2 0x27B JUMPI PUSH1 0x20 CALLDATASIZE PUSH1 0x3 NOT ADD SLT PUSH2 0x27B JUMPI PUSH1 0x20 SWAP3 PUSH1 0x1 PUSH1 0x1 PUSH1 0xA0 SHL SUB PUSH2 0x2625 PUSH2 0x2632 JUMP JUMPDEST AND DUP2 MSTORE PUSH1 0x1 DUP5 MSTORE KECCAK256 SLOAD DUP2 MSTORE RETURN JUMPDEST PUSH1 0x4 CALLDATALOAD SWAP1 PUSH1 0x1 PUSH1 0x1 PUSH1 0xA0 SHL SUB DUP3 AND DUP3 SUB PUSH2 0x2648 JUMPI JUMP JUMPDEST PUSH1 0x0 DUP1 REVERT JUMPDEST PUSH1 0x40 DUP2 ADD SWAP1 DUP2 LT PUSH1 0x1 PUSH1 0x1 PUSH1 0x40 SHL SUB DUP3 GT OR PUSH2 0x2668 JUMPI PUSH1 0x40 MSTORE JUMP JUMPDEST PUSH4 0x4E487B71 PUSH1 0xE0 SHL PUSH1 0x0 MSTORE PUSH1 0x41 PUSH1 0x4 MSTORE PUSH1 0x24 PUSH1 0x0 REVERT JUMPDEST SWAP1 PUSH1 0x1F DUP1 NOT SWAP2 ADD AND DUP2 ADD SWAP1 DUP2 LT PUSH1 0x1 PUSH1 0x1 PUSH1 0x40 SHL SUB DUP3 GT OR PUSH2 0x2668 JUMPI PUSH1 0x40 MSTORE JUMP JUMPDEST PUSH1 0x1 PUSH1 0x1 PUSH1 0x40 SHL SUB DUP2 GT PUSH2 0x2668 JUMPI PUSH1 0x1F ADD PUSH1 0x1F NOT AND PUSH1 0x20 ADD SWAP1 JUMP JUMPDEST SWAP3 SWAP2 SWAP3 PUSH2 0x26C6 DUP3 PUSH2 0x269F JUMP JUMPDEST SWAP2 PUSH2 0x26D4 PUSH1 0x40 MLOAD SWAP4 DUP5 PUSH2 0x267E JUMP JUMPDEST DUP3 SWAP5 DUP2 DUP5 MSTORE DUP2 DUP4 ADD GT PUSH2 0x2648 JUMPI DUP3 DUP2 PUSH1 0x20 SWAP4 DUP5 PUSH1 0x0 SWAP7 ADD CALLDATACOPY ADD ADD MSTORE JUMP JUMPDEST SWAP1 DUP1 PUSH1 0x1F DUP4 ADD SLT ISZERO PUSH2 0x2648 JUMPI DUP2 PUSH1 0x20 PUSH2 0x270C SWAP4 CALLDATALOAD SWAP2 ADD PUSH2 0x26BA JUMP JUMPDEST SWAP1 JUMP JUMPDEST PUSH1 0x40 PUSH1 0x3 NOT DUP3 ADD SLT PUSH2 0x2648 JUMPI PUSH1 0x4 CALLDATALOAD SWAP1 PUSH1 0x1 PUSH1 0x1 PUSH1 0x40 SHL SUB DUP3 GT PUSH2 0x2648 JUMPI PUSH2 0x2739 SWAP2 PUSH1 0x4 ADD PUSH2 0x26F1 JUMP JUMPDEST SWAP1 PUSH1 0x24 CALLDATALOAD PUSH1 0x1 PUSH1 0x1 PUSH1 0xA0 SHL SUB DUP2 AND DUP2 SUB PUSH2 0x2648 JUMPI SWAP1 JUMP JUMPDEST PUSH1 0x20 SWAP1 PUSH1 0x20 PUSH1 0x40 DUP2 DUP4 ADD SWAP3 DUP3 DUP2 MSTORE DUP6 MLOAD DUP1 SWAP5 MSTORE ADD SWAP4 ADD SWAP2 PUSH1 0x0 JUMPDEST DUP3 DUP2 LT PUSH2 0x2778 JUMPI POP POP POP POP SWAP1 JUMP JUMPDEST DUP4 MLOAD DUP6 MSTORE SWAP4 DUP2 ADD SWAP4 SWAP3 DUP2 ADD SWAP3 PUSH1 0x1 ADD PUSH2 0x276A JUMP JUMPDEST SWAP1 PUSH1 0x1 DUP3 DUP2 SHR SWAP3 AND DUP1 ISZERO PUSH2 0x27BC JUMPI JUMPDEST PUSH1 0x20 DUP4 LT EQ PUSH2 0x27A6 JUMPI JUMP JUMPDEST PUSH4 0x4E487B71 PUSH1 0xE0 SHL PUSH1 0x0 MSTORE PUSH1 0x22 PUSH1 0x4 MSTORE PUSH1 0x24 PUSH1 0x0 REVERT JUMPDEST SWAP2 PUSH1 0x7F AND SWAP2 PUSH2 0x279B JUMP JUMPDEST SWAP1 PUSH1 0x40 MLOAD SWAP2 DUP3 PUSH1 0x0 DUP3 SLOAD PUSH2 0x27D9 DUP2 PUSH2 0x278C JUMP JUMPDEST SWAP1 DUP2 DUP5 MSTORE PUSH1 0x20 SWAP5 PUSH1 0x1 SWAP2 PUSH1 0x1 DUP2 AND SWAP1 DUP2 PUSH1 0x0 EQ PUSH2 0x2849 JUMPI POP PUSH1 0x1 EQ PUSH2 0x280A JUMPI JUMPDEST POP POP POP PUSH2 0x2808 SWAP3 POP SUB DUP4 PUSH2 0x267E JUMP JUMPDEST JUMP JUMPDEST PUSH1 0x0 SWAP1 DUP2 MSTORE DUP6 DUP2 KECCAK256 SWAP6 SWAP4 POP SWAP2 SWAP1 JUMPDEST DUP2 DUP4 LT PUSH2 0x2831 JUMPI POP POP PUSH2 0x2808 SWAP4 POP DUP3 ADD ADD CODESIZE DUP1 DUP1 PUSH2 0x27F9 JUMP JUMPDEST DUP6 SLOAD DUP9 DUP5 ADD DUP6 ADD MSTORE SWAP5 DUP6 ADD SWAP5 DUP8 SWAP5 POP SWAP2 DUP4 ADD SWAP2 PUSH2 0x2818 JUMP JUMPDEST SWAP3 POP POP POP PUSH2 0x2808 SWAP5 SWAP3 POP PUSH1 0xFF NOT AND DUP3 DUP5 ADD MSTORE ISZERO ISZERO PUSH1 0x5 SHL DUP3 ADD ADD CODESIZE DUP1 DUP1 PUSH2 0x27F9 JUMP JUMPDEST PUSH1 0x0 JUMPDEST DUP4 DUP2 LT PUSH2 0x287E JUMPI POP POP PUSH1 0x0 SWAP2 ADD MSTORE JUMP JUMPDEST DUP2 DUP2 ADD MLOAD DUP4 DUP3 ADD MSTORE PUSH1 0x20 ADD PUSH2 0x286E JUMP JUMPDEST SWAP1 PUSH1 0x20 SWAP2 PUSH2 0x28A7 DUP2 MLOAD DUP1 SWAP3 DUP2 DUP6 MSTORE DUP6 DUP1 DUP7 ADD SWAP2 ADD PUSH2 0x286B JUMP JUMPDEST PUSH1 0x1F ADD PUSH1 0x1F NOT AND ADD ADD SWAP1 JUMP JUMPDEST SWAP1 PUSH2 0x28CB PUSH1 0x20 SWAP2 SWAP5 SWAP4 SWAP5 PUSH1 0x40 DUP5 MSTORE PUSH1 0x40 DUP5 ADD SWAP1 PUSH2 0x288E JUMP JUMPDEST SWAP4 ISZERO ISZERO SWAP2 ADD MSTORE JUMP JUMPDEST PUSH1 0x60 PUSH1 0x3 NOT DUP3 ADD SLT PUSH2 0x2648 JUMPI PUSH1 0x1 PUSH1 0x1 PUSH1 0x40 SHL SUB SWAP2 PUSH1 0x4 CALLDATALOAD DUP4 DUP2 GT PUSH2 0x2648 JUMPI DUP3 PUSH2 0x28FF SWAP2 PUSH1 0x4 ADD PUSH2 0x26F1 JUMP JUMPDEST SWAP3 PUSH1 0x24 CALLDATALOAD PUSH1 0x1 PUSH1 0x1 PUSH1 0xA0 SHL SUB DUP2 AND DUP2 SUB PUSH2 0x2648 JUMPI SWAP3 PUSH1 0x44 CALLDATALOAD SWAP2 DUP3 GT PUSH2 0x2648 JUMPI PUSH2 0x270C SWAP2 PUSH1 0x4 ADD PUSH2 0x26F1 JUMP JUMPDEST SWAP1 PUSH1 0x5 DUP3 LT ISZERO PUSH2 0x2937 JUMPI MSTORE JUMP JUMPDEST PUSH4 0x4E487B71 PUSH1 0xE0 SHL PUSH1 0x0 MSTORE PUSH1 0x21 PUSH1 0x4 MSTORE PUSH1 0x24 PUSH1 0x0 REVERT JUMPDEST PUSH1 0x40 SWAP1 PUSH1 0x3 NOT ADD SLT PUSH2 0x2648 JUMPI PUSH1 0x4 CALLDATALOAD SWAP1 PUSH1 0x24 CALLDATALOAD SWAP1 JUMP JUMPDEST DUP1 SLOAD DUP3 LT ISZERO PUSH2 0x297B JUMPI PUSH1 0x0 MSTORE PUSH1 0x20 PUSH1 0x0 KECCAK256 ADD SWAP1 PUSH1 0x0 SWAP1 JUMP JUMPDEST PUSH4 0x4E487B71 PUSH1 0xE0 SHL PUSH1 0x0 MSTORE PUSH1 0x32 PUSH1 0x4 MSTORE PUSH1 0x24 PUSH1 0x0 REVERT JUMPDEST PUSH1 0x40 PUSH1 0x3 NOT DUP3 ADD SLT PUSH2 0x2648 JUMPI PUSH1 0x4 CALLDATALOAD SWAP1 PUSH1 0x1 PUSH1 0x1 PUSH1 0x40 SHL SUB DUP3 GT PUSH2 0x2648 JUMPI PUSH2 0x29BB SWAP2 PUSH1 0x4 ADD PUSH2 0x26F1 JUMP JUMPDEST SWAP1 PUSH1 0x24 CALLDATALOAD SWAP1 JUMP JUMPDEST ISZERO PUSH2 0x29C9 JUMPI JUMP JUMPDEST PUSH1 0x40 MLOAD PUSH3 0x461BCD PUSH1 0xE5 SHL DUP2 MSTORE PUSH1 0x20 PUSH1 0x4 DUP3 ADD MSTORE PUSH1 0xA PUSH1 0x24 DUP3 ADD MSTORE PUSH10 0x27B7363C9030B236B4B7 PUSH1 0xB1 SHL PUSH1 0x44 DUP3 ADD MSTORE PUSH1 0x64 SWAP1 REVERT JUMPDEST ISZERO PUSH2 0x2A02 JUMPI JUMP JUMPDEST PUSH1 0x40 MLOAD PUSH3 0x461BCD PUSH1 0xE5 SHL DUP2 MSTORE PUSH1 0x20 PUSH1 0x4 DUP3 ADD MSTORE PUSH1 0x15 PUSH1 0x24 DUP3 ADD MSTORE PUSH21 0x15D85B1B195D081B9BDD081C9959DA5CDD195C9959 PUSH1 0x5A SHL PUSH1 0x44 DUP3 ADD MSTORE PUSH1 0x64 SWAP1 REVERT JUMPDEST PUSH1 0x1 PUSH1 0x1 PUSH1 0xA0 SHL SUB SWAP1 SWAP2 AND PUSH1 0x0 SWAP1 DUP2 MSTORE PUSH1 0x1 PUSH1 0x20 MSTORE PUSH1 0x40 SWAP1 KECCAK256 SLOAD DUP1 ISZERO PUSH2 0x2A7F JUMPI PUSH2 0x2A68 SWAP2 PUSH2 0x3258 JUMP JUMPDEST PUSH1 0x0 MSTORE PUSH1 0x6 PUSH1 0x20 MSTORE PUSH1 0xFF PUSH1 0x1 PUSH1 0x40 PUSH1 0x0 KECCAK256 ADD SLOAD AND SWAP1 JUMP JUMPDEST POP POP PUSH1 0x0 SWAP1 JUMP JUMPDEST ISZERO PUSH2 0x2A8D JUMPI JUMP JUMPDEST PUSH1 0x40 MLOAD PUSH3 0x461BCD PUSH1 0xE5 SHL DUP2 MSTORE PUSH1 0x20 PUSH1 0x4 DUP3 ADD MSTORE PUSH1 0x19 PUSH1 0x24 DUP3 ADD MSTORE PUSH32 0x5265636F72642049442063616E6E6F7420626520656D70747900000000000000 PUSH1 0x44 DUP3 ADD MSTORE PUSH1 0x64 SWAP1 REVERT JUMPDEST ISZERO PUSH2 0x2AD9 JUMPI JUMP JUMPDEST PUSH1 0x40 MLOAD PUSH3 0x461BCD PUSH1 0xE5 SHL DUP2 MSTORE PUSH1 0x20 PUSH1 0x4 DUP3 ADD MSTORE PUSH1 0x16 PUSH1 0x24 DUP3 ADD MSTORE PUSH22 0x496E76616C69642077616C6C65742061646472657373 PUSH1 0x50 SHL PUSH1 0x44 DUP3 ADD MSTORE PUSH1 0x64 SWAP1 REVERT JUMPDEST ISZERO PUSH2 0x2B1E JUMPI JUMP JUMPDEST PUSH1 0x40 MLOAD PUSH3 0x461BCD PUSH1 0xE5 SHL DUP2 MSTORE PUSH1 0x20 PUSH1 0x4 DUP3 ADD MSTORE PUSH1 0x13 PUSH1 0x24 DUP3 ADD MSTORE PUSH19 0x496E76616C696420726F6C6520737472696E67 PUSH1 0x68 SHL PUSH1 0x44 DUP3 ADD MSTORE PUSH1 0x64 SWAP1 REVERT JUMPDEST DUP1 SLOAD SWAP1 PUSH1 0x1 PUSH1 0x40 SHL DUP3 LT ISZERO PUSH2 0x2668 JUMPI DUP2 PUSH2 0x2B7B SWAP2 PUSH1 0x1 PUSH2 0x2B92 SWAP5 ADD DUP2 SSTORE PUSH2 0x2963 JUMP JUMPDEST DUP2 SWAP4 SWAP2 SLOAD SWAP1 PUSH1 0x3 SHL SWAP2 DUP3 SHL SWAP2 PUSH1 0x0 NOT SWAP1 SHL NOT AND OR SWAP1 JUMP JUMPDEST SWAP1 SSTORE JUMP JUMPDEST PUSH1 0x0 NOT DUP2 EQ PUSH2 0x2BA5 JUMPI PUSH1 0x1 ADD SWAP1 JUMP JUMPDEST PUSH4 0x4E487B71 PUSH1 0xE0 SHL PUSH1 0x0 MSTORE PUSH1 0x11 PUSH1 0x4 MSTORE PUSH1 0x24 PUSH1 0x0 REVERT JUMPDEST ISZERO PUSH2 0x2BC2 JUMPI JUMP JUMPDEST PUSH1 0x40 MLOAD PUSH3 0x461BCD PUSH1 0xE5 SHL DUP2 MSTORE PUSH1 0x20 PUSH1 0x4 DUP3 ADD MSTORE PUSH1 0x1D PUSH1 0x24 DUP3 ADD MSTORE PUSH32 0x57616C6C657420616464726573732063616E6E6F74206265207A65726F000000 PUSH1 0x44 DUP3 ADD MSTORE PUSH1 0x64 SWAP1 REVERT JUMPDEST ISZERO PUSH2 0x2C0E JUMPI JUMP JUMPDEST PUSH1 0x40 MLOAD PUSH3 0x461BCD PUSH1 0xE5 SHL DUP2 MSTORE PUSH1 0x20 PUSH1 0x4 DUP3 ADD MSTORE PUSH1 0x1C PUSH1 0x24 DUP3 ADD MSTORE PUSH32 0x5461726765742077616C6C6574206E6F74207265676973746572656400000000 PUSH1 0x44 DUP3 ADD MSTORE PUSH1 0x64 SWAP1 REVERT JUMPDEST ISZERO PUSH2 0x2C5A JUMPI JUMP JUMPDEST PUSH1 0x40 MLOAD PUSH3 0x461BCD PUSH1 0xE5 SHL DUP2 MSTORE PUSH1 0x20 PUSH1 0x4 DUP3 ADD MSTORE PUSH1 0x23 PUSH1 0x24 DUP3 ADD MSTORE PUSH32 0x54617267657420646F6573206E6F74206861766520616E206163746976652072 PUSH1 0x44 DUP3 ADD MSTORE PUSH3 0x6F6C65 PUSH1 0xE8 SHL PUSH1 0x64 DUP3 ADD MSTORE PUSH1 0x84 SWAP1 REVERT JUMPDEST PUSH1 0x40 MLOAD SWAP1 PUSH2 0x2CB8 DUP3 PUSH2 0x264D JUMP JUMPDEST PUSH1 0x5 DUP3 MSTORE PUSH5 0x37BBB732B9 PUSH1 0xD9 SHL PUSH1 0x20 DUP4 ADD MSTORE JUMP JUMPDEST PUSH1 0x40 MLOAD SWAP1 PUSH2 0x2CD9 DUP3 PUSH2 0x264D JUMP JUMPDEST PUSH1 0xD DUP3 MSTORE PUSH13 0x30B236B4B734B9BA3930BA37B9 PUSH1 0x99 SHL PUSH1 0x20 DUP4 ADD MSTORE JUMP JUMPDEST PUSH2 0x2D0D SWAP1 PUSH1 0x20 PUSH1 0x40 MLOAD SWAP3 DUP3 DUP5 DUP1 SWAP5 MLOAD SWAP4 DUP5 SWAP3 ADD PUSH2 0x286B JUMP JUMPDEST DUP2 ADD SUB SWAP1 KECCAK256 SWAP1 JUMP JUMPDEST PUSH1 0x1 PUSH1 0x1 PUSH1 0xA0 SHL SUB SWAP1 SWAP2 AND PUSH1 0x0 SWAP1 DUP2 MSTORE PUSH1 0x1 PUSH1 0x20 MSTORE PUSH1 0x40 SWAP1 KECCAK256 SLOAD SWAP1 DUP2 ISZERO PUSH2 0x2A7F JUMPI PUSH2 0x2D48 PUSH2 0x2D41 PUSH2 0x2CAB JUMP JUMPDEST DUP4 DUP4 PUSH2 0x3293 JUMP JUMPDEST SWAP2 DUP3 ISZERO PUSH2 0x2D54 JUMPI POP POP SWAP1 JUMP JUMPDEST PUSH2 0x270C SWAP3 POP PUSH2 0x2D61 PUSH2 0x2CCC JUMP JUMPDEST SWAP2 PUSH2 0x3293 JUMP JUMPDEST ISZERO PUSH2 0x2D6E JUMPI JUMP JUMPDEST PUSH1 0x40 MLOAD PUSH3 0x461BCD PUSH1 0xE5 SHL DUP2 MSTORE PUSH1 0x20 PUSH1 0x4 DUP3 ADD MSTORE PUSH1 0x14 PUSH1 0x24 DUP3 ADD MSTORE PUSH20 0x2737BA1030B71030B1BA34BB329036B2B6B132B9 PUSH1 0x61 SHL PUSH1 0x44 DUP3 ADD MSTORE PUSH1 0x64 SWAP1 REVERT JUMPDEST PUSH1 0x40 MLOAD SWAP1 PUSH2 0x2DB7 DUP3 PUSH2 0x264D JUMP JUMPDEST PUSH1 0x6 DUP3 MSTORE PUSH6 0x3B34B2BBB2B9 PUSH1 0xD1 SHL PUSH1 0x20 DUP4 ADD MSTORE JUMP JUMPDEST SWAP2 SWAP1 PUSH1 0x1 DUP1 PUSH1 0xA0 SHL SUB AND PUSH1 0x0 MSTORE PUSH1 0x1 PUSH1 0x20 MSTORE PUSH1 0x40 PUSH1 0x0 KECCAK256 SLOAD DUP1 ISZERO PUSH2 0x2DF3 JUMPI PUSH2 0x270C SWAP3 PUSH2 0x3293 JUMP JUMPDEST POP POP POP PUSH1 0x0 SWAP1 JUMP JUMPDEST PUSH1 0x1 PUSH1 0x1 PUSH1 0xA0 SHL SUB SWAP1 SWAP2 AND PUSH1 0x0 SWAP1 DUP2 MSTORE PUSH1 0x1 PUSH1 0x20 MSTORE PUSH1 0x40 DUP2 KECCAK256 SLOAD SWAP1 SWAP3 SWAP2 DUP2 ISZERO PUSH2 0x2E5F JUMPI SWAP3 PUSH2 0x2E2D PUSH1 0x40 SWAP3 PUSH1 0x20 SWAP6 PUSH2 0x3258 JUMP JUMPDEST DUP2 MSTORE PUSH1 0x6 DUP5 MSTORE KECCAK256 PUSH1 0x40 MLOAD PUSH2 0x2E40 DUP2 PUSH2 0x264D JUMP JUMPDEST PUSH1 0xFF PUSH1 0x1 PUSH2 0x2E4D DUP5 PUSH2 0x27C6 JUMP JUMPDEST SWAP4 DUP5 DUP5 MSTORE ADD SLOAD AND ISZERO ISZERO SWAP4 DUP5 SWAP2 ADD MSTORE SWAP2 SWAP1 JUMP JUMPDEST POP POP PUSH1 0x40 MLOAD PUSH1 0x20 DUP2 ADD DUP2 DUP2 LT PUSH1 0x1 PUSH1 0x1 PUSH1 0x40 SHL SUB DUP3 GT OR PUSH2 0x2E84 JUMPI PUSH1 0x40 MSTORE DUP3 DUP2 MSTORE SWAP2 SWAP1 JUMP JUMPDEST PUSH4 0x4E487B71 PUSH1 0xE0 SHL DUP5 MSTORE PUSH1 0x41 PUSH1 0x4 MSTORE PUSH1 0x24 DUP5 REVERT JUMPDEST PUSH1 0x1 PUSH1 0x1 PUSH1 0xA0 SHL SUB AND PUSH1 0x0 SWAP1 DUP2 MSTORE PUSH1 0x1 PUSH1 0x20 MSTORE PUSH1 0x40 DUP2 KECCAK256 DUP1 SLOAD SWAP1 DUP2 ISZERO SWAP1 DUP2 ISZERO PUSH2 0x2EF9 JUMPI JUMPDEST POP PUSH2 0x2EF5 JUMPI DUP2 MSTORE PUSH1 0x2 PUSH1 0x20 MSTORE PUSH1 0xFF PUSH1 0x40 DUP3 KECCAK256 SLOAD AND SWAP1 PUSH1 0x5 DUP3 LT ISZERO PUSH2 0x2EE1 JUMPI POP PUSH1 0x4 EQ SWAP1 JUMP JUMPDEST PUSH4 0x4E487B71 PUSH1 0xE0 SHL DUP2 MSTORE PUSH1 0x21 PUSH1 0x4 MSTORE PUSH1 0x24 SWAP1 REVERT JUMPDEST POP SWAP1 JUMP JUMPDEST PUSH1 0xFF SWAP2 POP PUSH1 0x1 ADD SLOAD AND ISZERO CODESIZE PUSH2 0x2EBC JUMP JUMPDEST PUSH1 0x20 DUP2 MLOAD SWAP2 ADD KECCAK256 PUSH2 0x2F18 PUSH2 0x2CAB JUMP JUMPDEST PUSH1 0x20 DUP2 MLOAD SWAP2 ADD KECCAK256 DUP2 EQ SWAP1 DUP2 ISZERO PUSH2 0x2F48 JUMPI JUMPDEST DUP2 ISZERO PUSH2 0x2F33 JUMPI POP SWAP1 JUMP JUMPDEST SWAP1 POP PUSH2 0x2F3D PUSH2 0x2DAA JUMP JUMPDEST PUSH1 0x20 DUP2 MLOAD SWAP2 ADD KECCAK256 EQ SWAP1 JUMP JUMPDEST SWAP1 POP PUSH2 0x2F52 PUSH2 0x2CCC JUMP JUMPDEST PUSH1 0x20 DUP2 MLOAD SWAP2 ADD KECCAK256 DUP2 EQ SWAP1 PUSH2 0x2F29 JUMP JUMPDEST PUSH1 0x1 PUSH1 0x1 PUSH1 0xA0 SHL SUB AND PUSH1 0x0 SWAP1 DUP2 MSTORE PUSH1 0x1 PUSH1 0x20 MSTORE PUSH1 0x40 DUP2 KECCAK256 DUP1 SLOAD SWAP1 DUP2 ISZERO SWAP1 DUP2 ISZERO PUSH2 0x2FBA JUMPI JUMPDEST POP PUSH2 0x2EF5 JUMPI DUP2 MSTORE PUSH1 0x2 PUSH1 0x20 MSTORE PUSH1 0xFF PUSH1 0x40 DUP3 KECCAK256 SLOAD AND SWAP1 PUSH1 0x5 DUP3 LT ISZERO PUSH2 0x2EE1 JUMPI POP PUSH1 0x1 DUP2 EQ ISZERO SWAP1 DUP2 PUSH2 0x2FB3 JUMPI POP SWAP1 JUMP JUMPDEST SWAP1 POP ISZERO ISZERO SWAP1 JUMP JUMPDEST PUSH1 0xFF SWAP2 POP PUSH1 0x1 ADD SLOAD AND ISZERO CODESIZE PUSH2 0x2F85 JUMP JUMPDEST SWAP2 SWAP1 SWAP2 DUP3 MLOAD PUSH1 0x1 PUSH1 0x1 PUSH1 0x40 SHL SUB DUP2 GT PUSH2 0x2668 JUMPI PUSH2 0x2FE7 DUP3 SLOAD PUSH2 0x278C JUMP JUMPDEST PUSH1 0x1F DUP2 GT PUSH2 0x3092 JUMPI JUMPDEST POP PUSH1 0x20 DUP1 PUSH1 0x1F DUP4 GT PUSH1 0x1 EQ PUSH2 0x302D JUMPI POP DUP2 SWAP3 SWAP4 SWAP5 PUSH1 0x0 SWAP3 PUSH2 0x3022 JUMPI JUMPDEST POP POP DUP2 PUSH1 0x1 SHL SWAP2 PUSH1 0x0 NOT SWAP1 PUSH1 0x3 SHL SHR NOT AND OR SWAP1 SSTORE JUMP JUMPDEST ADD MLOAD SWAP1 POP CODESIZE DUP1 PUSH2 0x300C JUMP JUMPDEST SWAP1 PUSH1 0x1F NOT DUP4 AND SWAP6 DUP5 PUSH1 0x0 MSTORE PUSH1 0x20 PUSH1 0x0 KECCAK256 SWAP3 PUSH1 0x0 SWAP1 JUMPDEST DUP9 DUP3 LT PUSH2 0x307A JUMPI POP POP DUP4 PUSH1 0x1 SWAP6 SWAP7 SWAP8 LT PUSH2 0x3061 JUMPI JUMPDEST POP POP POP DUP2 SHL ADD SWAP1 SSTORE JUMP JUMPDEST ADD MLOAD PUSH1 0x0 NOT PUSH1 0xF8 DUP5 PUSH1 0x3 SHL AND SHR NOT AND SWAP1 SSTORE CODESIZE DUP1 DUP1 PUSH2 0x3057 JUMP JUMPDEST DUP1 PUSH1 0x1 DUP6 SWAP7 DUP3 SWAP5 SWAP7 DUP7 ADD MLOAD DUP2 SSTORE ADD SWAP6 ADD SWAP4 ADD SWAP1 PUSH2 0x3042 JUMP JUMPDEST PUSH1 0x0 DUP4 PUSH1 0x0 MSTORE PUSH1 0x20 PUSH1 0x0 KECCAK256 PUSH1 0x1F DUP5 ADD PUSH1 0x5 SHR DUP2 ADD SWAP3 PUSH1 0x20 DUP6 LT PUSH2 0x30D2 JUMPI JUMPDEST PUSH1 0x1F ADD PUSH1 0x5 SHR ADD SWAP2 JUMPDEST DUP3 DUP2 LT PUSH2 0x30C7 JUMPI POP POP PUSH2 0x2FF0 JUMP JUMPDEST DUP2 DUP2 SSTORE PUSH1 0x1 ADD PUSH2 0x30B9 JUMP JUMPDEST SWAP1 SWAP3 POP DUP3 SWAP1 PUSH2 0x30B0 JUMP JUMPDEST SWAP1 SWAP2 PUSH2 0x30E8 DUP4 DUP4 PUSH2 0x3258 JUMP JUMPDEST PUSH1 0x0 SWAP3 DUP2 DUP5 MSTORE PUSH1 0x20 SWAP4 PUSH1 0x6 DUP6 MSTORE PUSH1 0x40 SWAP3 DUP4 DUP3 KECCAK256 SWAP1 PUSH2 0x3105 DUP3 PUSH2 0x27C6 JUMP JUMPDEST SWAP1 PUSH2 0x3141 PUSH1 0xFF PUSH1 0x1 DUP5 MLOAD ISZERO SWAP6 ADD SLOAD AND SWAP2 PUSH1 0x1 DUP9 MLOAD SWAP2 PUSH2 0x3123 DUP4 PUSH2 0x264D JUMP JUMPDEST DUP11 DUP4 MSTORE DUP12 DUP4 ADD SWAP1 DUP3 DUP3 MSTORE DUP9 MSTORE PUSH1 0x6 DUP13 MSTORE PUSH2 0x227B DUP11 DUP10 KECCAK256 SWAP4 MLOAD DUP5 PUSH2 0x2FCA JUMP JUMPDEST PUSH2 0x321F JUMPI POP PUSH2 0x3151 DUP6 DUP9 DUP6 PUSH2 0x3414 JUMP JUMPDEST PUSH2 0x3190 JUMPI JUMPDEST POP SWAP1 PUSH2 0x3171 PUSH1 0x0 DUP1 MLOAD PUSH1 0x20 PUSH2 0x35DB DUP4 CODECOPY DUP2 MLOAD SWAP2 MSTORE SWAP4 SWAP3 PUSH2 0x2CF5 JUMP JUMPDEST SWAP4 PUSH2 0x3185 DUP3 MLOAD SWAP4 DUP4 DUP6 SWAP5 DUP6 MSTORE DUP5 ADD SWAP1 PUSH2 0x288E JUMP JUMPDEST SWAP1 TIMESTAMP SWAP1 DUP4 ADD MSTORE SUB SWAP1 LOG4 JUMP JUMPDEST DUP6 DUP2 MSTORE PUSH1 0xA DUP6 MSTORE DUP3 DUP2 KECCAK256 DUP1 SLOAD SWAP1 PUSH1 0x1 PUSH1 0x40 SHL DUP3 LT ISZERO PUSH2 0x320B JUMPI SWAP1 PUSH2 0x31B9 SWAP2 PUSH1 0x1 DUP3 ADD DUP2 SSTORE PUSH2 0x2963 JUMP JUMPDEST SWAP2 SWAP1 SWAP2 PUSH2 0x31F7 JUMPI POP DUP2 PUSH2 0x31E0 PUSH1 0x0 DUP1 MLOAD PUSH1 0x20 PUSH2 0x35DB DUP4 CODECOPY DUP2 MLOAD SWAP2 MSTORE SWAP6 SWAP5 SWAP4 PUSH2 0x3171 SWAP4 PUSH2 0x2FCA JUMP JUMPDEST PUSH2 0x31EB PUSH1 0xB SLOAD PUSH2 0x2B96 JUMP JUMPDEST PUSH1 0xB SSTORE SWAP2 SWAP3 SWAP4 POP PUSH2 0x3156 JUMP JUMPDEST PUSH4 0x4E487B71 PUSH1 0xE0 SHL DUP2 MSTORE PUSH1 0x4 DUP2 SWAP1 MSTORE PUSH1 0x24 SWAP1 REVERT JUMPDEST PUSH4 0x4E487B71 PUSH1 0xE0 SHL DUP4 MSTORE PUSH1 0x41 PUSH1 0x4 MSTORE PUSH1 0x24 DUP4 REVERT JUMPDEST SWAP8 POP POP POP SWAP2 SWAP4 SWAP3 SWAP1 POP DUP5 MLOAD DUP2 DUP7 ADD KECCAK256 SWAP1 DUP5 MLOAD SWAP1 DUP6 ADD KECCAK256 SUB PUSH2 0x3241 JUMPI JUMPDEST POP POP POP POP JUMP JUMPDEST PUSH2 0x2380 PUSH2 0x324F SWAP5 DUP4 DUP4 PUSH2 0x32F3 JUMP JUMPDEST CODESIZE DUP1 DUP1 DUP1 PUSH2 0x323B JUMP JUMPDEST SWAP1 PUSH2 0x328D PUSH1 0x40 DUP1 MLOAD DUP1 SWAP4 PUSH1 0x20 PUSH2 0x3277 DUP2 DUP5 ADD SWAP8 DUP9 DUP2 MLOAD SWAP4 DUP5 SWAP3 ADD PUSH2 0x286B JUMP JUMPDEST DUP3 ADD SWAP1 PUSH1 0x20 DUP3 ADD MSTORE SUB PUSH1 0x20 DUP2 ADD DUP5 MSTORE ADD DUP3 PUSH2 0x267E JUMP JUMPDEST MLOAD SWAP1 KECCAK256 SWAP1 JUMP JUMPDEST PUSH1 0x20 SWAP3 SWAP2 PUSH2 0x32A0 SWAP2 PUSH2 0x3258 JUMP JUMPDEST PUSH1 0x0 MSTORE PUSH1 0x6 DUP3 MSTORE PUSH1 0x40 PUSH1 0x0 KECCAK256 PUSH1 0x40 MLOAD PUSH2 0x32B8 DUP2 PUSH2 0x264D JUMP JUMPDEST PUSH1 0xFF PUSH1 0x1 PUSH2 0x32C5 DUP5 PUSH2 0x27C6 JUMP JUMPDEST SWAP4 DUP5 DUP5 MSTORE ADD SLOAD AND ISZERO ISZERO SWAP4 DUP5 SWAP2 ADD MSTORE DUP3 PUSH2 0x32DD JUMPI POP POP SWAP1 JUMP JUMPDEST SWAP1 SWAP2 POP PUSH1 0x20 DUP2 MLOAD SWAP2 ADD KECCAK256 SWAP1 PUSH1 0x20 DUP2 MLOAD SWAP2 ADD KECCAK256 EQ SWAP1 JUMP JUMPDEST DUP3 MLOAD PUSH1 0x20 DUP1 SWAP5 ADD KECCAK256 PUSH2 0x3303 PUSH2 0x2CAB JUMP JUMPDEST DUP1 MLOAD SWAP1 DUP6 ADD KECCAK256 DUP2 SUB PUSH2 0x333A JUMPI POP DUP3 PUSH2 0x332B SWAP2 PUSH2 0x2808 SWAP5 PUSH1 0x40 MLOAD SWAP4 DUP3 DUP6 DUP1 SWAP5 MLOAD SWAP4 DUP5 SWAP3 ADD PUSH2 0x286B JUMP JUMPDEST DUP2 ADD PUSH1 0x7 DUP2 MSTORE SUB ADD SWAP1 KECCAK256 PUSH2 0x34DC JUMP JUMPDEST PUSH2 0x3342 PUSH2 0x2CCC JUMP JUMPDEST DUP1 MLOAD SWAP1 DUP6 ADD KECCAK256 DUP2 SUB PUSH2 0x3379 JUMPI POP DUP3 PUSH2 0x336A SWAP2 PUSH2 0x2808 SWAP5 PUSH1 0x40 MLOAD SWAP4 DUP3 DUP6 DUP1 SWAP5 MLOAD SWAP4 DUP5 SWAP3 ADD PUSH2 0x286B JUMP JUMPDEST DUP2 ADD PUSH1 0x8 DUP2 MSTORE SUB ADD SWAP1 KECCAK256 PUSH2 0x34DC JUMP JUMPDEST PUSH2 0x3381 PUSH2 0x2DAA JUMP JUMPDEST DUP5 DUP2 MLOAD SWAP2 ADD KECCAK256 EQ PUSH2 0x3391 JUMPI POP POP POP JUMP JUMPDEST DUP3 PUSH2 0x33AC SWAP2 PUSH2 0x2808 SWAP5 PUSH1 0x40 MLOAD SWAP4 DUP3 DUP6 DUP1 SWAP5 MLOAD SWAP4 DUP5 SWAP3 ADD PUSH2 0x286B JUMP JUMPDEST DUP2 ADD PUSH1 0x9 DUP2 MSTORE SUB ADD SWAP1 KECCAK256 PUSH2 0x34DC JUMP JUMPDEST PUSH1 0x1 PUSH1 0x1 PUSH1 0xA0 SHL SUB AND PUSH1 0x0 SWAP1 DUP2 MSTORE PUSH1 0x1 PUSH1 0x20 MSTORE PUSH1 0x40 DUP2 KECCAK256 DUP1 SLOAD SWAP1 DUP2 ISZERO SWAP1 DUP2 ISZERO PUSH2 0x3404 JUMPI JUMPDEST POP PUSH2 0x2EF5 JUMPI DUP2 MSTORE PUSH1 0x2 PUSH1 0x20 MSTORE PUSH1 0xFF PUSH1 0x40 DUP3 KECCAK256 SLOAD AND SWAP1 PUSH1 0x5 DUP3 LT ISZERO PUSH2 0x2EE1 JUMPI POP PUSH1 0x3 EQ SWAP1 JUMP JUMPDEST PUSH1 0xFF SWAP2 POP PUSH1 0x1 ADD SLOAD AND ISZERO CODESIZE PUSH2 0x33DF JUMP JUMPDEST DUP3 MLOAD PUSH1 0x20 DUP1 SWAP5 ADD KECCAK256 PUSH2 0x3424 PUSH2 0x2CAB JUMP JUMPDEST DUP1 MLOAD SWAP1 DUP6 ADD KECCAK256 DUP2 SUB PUSH2 0x345B JUMPI POP DUP3 PUSH2 0x344C SWAP2 PUSH2 0x2808 SWAP5 PUSH1 0x40 MLOAD SWAP4 DUP3 DUP6 DUP1 SWAP5 MLOAD SWAP4 DUP5 SWAP3 ADD PUSH2 0x286B JUMP JUMPDEST DUP2 ADD PUSH1 0x7 DUP2 MSTORE SUB ADD SWAP1 KECCAK256 PUSH2 0x2B59 JUMP JUMPDEST PUSH2 0x3463 PUSH2 0x2CCC JUMP JUMPDEST DUP1 MLOAD SWAP1 DUP6 ADD KECCAK256 DUP2 SUB PUSH2 0x349A JUMPI POP DUP3 PUSH2 0x348B SWAP2 PUSH2 0x2808 SWAP5 PUSH1 0x40 MLOAD SWAP4 DUP3 DUP6 DUP1 SWAP5 MLOAD SWAP4 DUP5 SWAP3 ADD PUSH2 0x286B JUMP JUMPDEST DUP2 ADD PUSH1 0x8 DUP2 MSTORE SUB ADD SWAP1 KECCAK256 PUSH2 0x2B59 JUMP JUMPDEST PUSH2 0x34A2 PUSH2 0x2DAA JUMP JUMPDEST DUP5 DUP2 MLOAD SWAP2 ADD KECCAK256 EQ PUSH2 0x34B2 JUMPI POP POP POP JUMP JUMPDEST DUP3 PUSH2 0x34CD SWAP2 PUSH2 0x2808 SWAP5 PUSH1 0x40 MLOAD SWAP4 DUP3 DUP6 DUP1 SWAP5 MLOAD SWAP4 DUP5 SWAP3 ADD PUSH2 0x286B JUMP JUMPDEST DUP2 ADD PUSH1 0x9 DUP2 MSTORE SUB ADD SWAP1 KECCAK256 PUSH2 0x2B59 JUMP JUMPDEST PUSH1 0x0 JUMPDEST DUP2 SLOAD SWAP1 DUP2 DUP2 LT ISZERO PUSH2 0x323B JUMPI DUP4 SWAP2 PUSH2 0x34F6 DUP3 DUP6 PUSH2 0x2963 JUMP JUMPDEST SWAP6 SWAP1 SLOAD PUSH1 0x3 SWAP7 DUP8 SHL SHR EQ PUSH2 0x3510 JUMPI POP SWAP1 SWAP3 POP PUSH1 0x1 ADD PUSH2 0x34DF JUMP JUMPDEST PUSH1 0x0 NOT SWAP3 POP DUP3 DUP2 ADD SWAP1 DUP2 GT PUSH2 0x2BA5 JUMPI PUSH2 0x2B7B PUSH2 0x352F PUSH2 0x353C SWAP3 DUP7 PUSH2 0x2963 JUMP JUMPDEST SWAP1 SLOAD SWAP1 DUP8 SHL SHR SWAP3 DUP6 PUSH2 0x2963 JUMP JUMPDEST SWAP1 SSTORE DUP2 SLOAD DUP1 ISZERO PUSH2 0x3561 JUMPI DUP2 ADD SWAP3 PUSH2 0x3553 DUP5 DUP5 PUSH2 0x2963 JUMP JUMPDEST DUP2 SWAP4 SWAP2 SLOAD SWAP3 SHL SHL NOT AND SWAP1 SSTORE SSTORE JUMP JUMPDEST PUSH4 0x4E487B71 PUSH1 0xE0 SHL PUSH1 0x0 MSTORE PUSH1 0x31 PUSH1 0x4 MSTORE PUSH1 0x24 PUSH1 0x0 REVERT JUMPDEST SWAP1 PUSH2 0x359E JUMPI POP DUP1 MLOAD ISZERO PUSH2 0x358C JUMPI DUP1 MLOAD SWAP1 PUSH1 0x20 ADD REVERT JUMPDEST PUSH1 0x40 MLOAD PUSH4 0xA12F521 PUSH1 0xE1 SHL DUP2 MSTORE PUSH1 0x4 SWAP1 REVERT JUMPDEST DUP2 MLOAD ISZERO DUP1 PUSH2 0x35D1 JUMPI JUMPDEST PUSH2 0x35AF JUMPI POP SWAP1 JUMP JUMPDEST PUSH1 0x40 MLOAD PUSH4 0x9996B315 PUSH1 0xE0 SHL DUP2 MSTORE PUSH1 0x1 PUSH1 0x1 PUSH1 0xA0 SHL SUB SWAP1 SWAP2 AND PUSH1 0x4 DUP3 ADD MSTORE PUSH1 0x24 SWAP1 REVERT JUMPDEST POP DUP1 EXTCODESIZE ISZERO PUSH2 0x35A7 JUMP INVALID 0x2A 0x27 CREATE LOG2 0xE 0x4D DELEGATECALL PUSH20 0x8F3A8E2449B014D439E7CE0A97EE5860771C25CB 0xAF LOG1 0xCF 0xEB 0x4F PUSH15 0x6C79206F776E65727320616E642061 PUSH5 0x6D696E6973 PUSH21 0x7261746F72732063A2646970667358221220DA4553 PUSH29 0xB85A94095FF8351C0F64D445798794A47BCA7DFC0E78966026EA637264 PUSH20 0x6F6C634300081700330000000000000000000000 "},"methodIdentifiers":{"UPGRADE_INTERFACE_VERSION()":"ad3cb1cc","addMember(address,bytes32)":"49df7208","admin()":"f851a440","adminsByRecord(string,uint256)":"e965bfb7","changeRole(string,address,string)":"daa9dc23","deactivateWallet(address)":"0b3ffd1d","getAllUsers()":"e2842d79","getRecordAdmins(string)":"3dd1e8fc","getRecordOwners(string)":"1a95aca5","getRecordRoleStats(string)":"41d8bde3","getRecordViewers(string)":"510b3003","getRecordsByUser(bytes32)":"6544b05b","getRoleDetails(string,address)":"eb2bbf25","getRoleDetailsByUser(string,bytes32)":"ee4e5828","getTotalRoles()":"4b6feb7c","getTotalUsers()":"9be572f6","getUserForWallet(address)":"00b0c809","getUserStatus(bytes32)":"f29e007b","getWalletsForUser(bytes32)":"d12a7768","grantRole(string,address,string)":"bb20b172","hasActiveRole(string,address)":"1435b558","hasRole(string,address,string)":"cabdd23f","initialize()":"8129fc1c","initializeRecordRole(string,address,string)":"3575c391","isActiveMember(address)":"45ecd02f","isOwnerOrAdmin(string,address)":"a0ca13c3","isVerifiedMember(address)":"cb261a03","isVerifiedProvider(address)":"259ed80e","ownersByRecord(string,uint256)":"970ee5b9","proxiableUUID()":"52d1902d","reactivateWallet(address)":"bb0f86d5","recordRoles(bytes32)":"33105592","recordsByUser(bytes32,uint256)":"fa7a6bcc","revokeRole(string,address)":"731f21a0","setUserStatus(bytes32,uint8)":"96207e02","totalRoles()":"790e118c","totalUsers()":"bff1f9e1","transferAdmin(address)":"75829def","upgradeToAndCall(address,bytes)":"4f1ef286","userList(uint256)":"9f4216e8","userStatus(bytes32)":"6b4bed97","userWallets(bytes32,uint256)":"9443cd80","viewersByRecord(string,uint256)":"b55aefcc","voluntarilyLeaveOwnership(string)":"ed8d7b37","wallets(address)":"89b08f11"}},"storageLayout":{"storage":[{"astId":8010,"contract":"contracts/MemberRoleManager.sol:MemberRoleManager","label":"admin","offset":0,"slot":"0","type":"t_address"},{"astId":8174,"contract":"contracts/MemberRoleManager.sol:MemberRoleManager","label":"wallets","offset":0,"slot":"1","type":"t_mapping(t_address,t_struct(UserInfo)8169_storage)"},{"astId":8179,"contract":"contracts/MemberRoleManager.sol:MemberRoleManager","label":"userStatus","offset":0,"slot":"2","type":"t_mapping(t_bytes32,t_enum(MemberStatus)8134)"},{"astId":8184,"contract":"contracts/MemberRoleManager.sol:MemberRoleManager","label":"userWallets","offset":0,"slot":"3","type":"t_mapping(t_bytes32,t_array(t_address)dyn_storage)"},{"astId":8187,"contract":"contracts/MemberRoleManager.sol:MemberRoleManager","label":"userList","offset":0,"slot":"4","type":"t_array(t_bytes32)dyn_storage"},{"astId":8189,"contract":"contracts/MemberRoleManager.sol:MemberRoleManager","label":"totalUsers","offset":0,"slot":"5","type":"t_uint256"},{"astId":8695,"contract":"contracts/MemberRoleManager.sol:MemberRoleManager","label":"recordRoles","offset":0,"slot":"6","type":"t_mapping(t_bytes32,t_struct(RecordRole)8690_storage)"},{"astId":8700,"contract":"contracts/MemberRoleManager.sol:MemberRoleManager","label":"ownersByRecord","offset":0,"slot":"7","type":"t_mapping(t_string_memory_ptr,t_array(t_bytes32)dyn_storage)"},{"astId":8705,"contract":"contracts/MemberRoleManager.sol:MemberRoleManager","label":"adminsByRecord","offset":0,"slot":"8","type":"t_mapping(t_string_memory_ptr,t_array(t_bytes32)dyn_storage)"},{"astId":8710,"contract":"contracts/MemberRoleManager.sol:MemberRoleManager","label":"viewersByRecord","offset":0,"slot":"9","type":"t_mapping(t_string_memory_ptr,t_array(t_bytes32)dyn_storage)"},{"astId":8715,"contract":"contracts/MemberRoleManager.sol:MemberRoleManager","label":"recordsByUser","offset":0,"slot":"10","type":"t_mapping(t_bytes32,t_array(t_string_storage)dyn_storage)"},{"astId":8717,"contract":"contracts/MemberRoleManager.sol:MemberRoleManager","label":"totalRoles","offset":0,"slot":"11","type":"t_uint256"}],"types":{"t_address":{"encoding":"inplace","label":"address","numberOfBytes":"20"},"t_array(t_address)dyn_storage":{"base":"t_address","encoding":"dynamic_array","label":"address[]","numberOfBytes":"32"},"t_array(t_bytes32)dyn_storage":{"base":"t_bytes32","encoding":"dynamic_array","label":"bytes32[]","numberOfBytes":"32"},"t_array(t_string_storage)dyn_storage":{"base":"t_string_storage","encoding":"dynamic_array","label":"string[]","numberOfBytes":"32"},"t_bool":{"encoding":"inplace","label":"bool","numberOfBytes":"1"},"t_bytes32":{"encoding":"inplace","label":"bytes32","numberOfBytes":"32"},"t_enum(MemberStatus)8134":{"encoding":"inplace","label":"enum MemberRoleManager.MemberStatus","numberOfBytes":"1"},"t_mapping(t_address,t_struct(UserInfo)8169_storage)":{"encoding":"mapping","key":"t_address","label":"mapping(address => struct MemberRoleManager.UserInfo)","numberOfBytes":"32","value":"t_struct(UserInfo)8169_storage"},"t_mapping(t_bytes32,t_array(t_address)dyn_storage)":{"encoding":"mapping","key":"t_bytes32","label":"mapping(bytes32 => address[])","numberOfBytes":"32","value":"t_array(t_address)dyn_storage"},"t_mapping(t_bytes32,t_array(t_string_storage)dyn_storage)":{"encoding":"mapping","key":"t_bytes32","label":"mapping(bytes32 => string[])","numberOfBytes":"32","value":"t_array(t_string_storage)dyn_storage"},"t_mapping(t_bytes32,t_enum(MemberStatus)8134)":{"encoding":"mapping","key":"t_bytes32","label":"mapping(bytes32 => enum MemberRoleManager.MemberStatus)","numberOfBytes":"32","value":"t_enum(MemberStatus)8134"},"t_mapping(t_bytes32,t_struct(RecordRole)8690_storage)":{"encoding":"mapping","key":"t_bytes32","label":"mapping(bytes32 => struct MemberRoleManager.RecordRole)","numberOfBytes":"32","value":"t_struct(RecordRole)8690_storage"},"t_mapping(t_string_memory_ptr,t_array(t_bytes32)dyn_storage)":{"encoding":"mapping","key":"t_string_memory_ptr","label":"mapping(string => bytes32[])","numberOfBytes":"32","value":"t_array(t_bytes32)dyn_storage"},"t_string_memory_ptr":{"encoding":"bytes","label":"string","numberOfBytes":"32"},"t_string_storage":{"encoding":"bytes","label":"string","numberOfBytes":"32"},"t_struct(RecordRole)8690_storage":{"encoding":"inplace","label":"struct MemberRoleManager.RecordRole","members":[{"astId":8687,"contract":"contracts/MemberRoleManager.sol:MemberRoleManager","label":"role","offset":0,"slot":"0","type":"t_string_storage"},{"astId":8689,"contract":"contracts/MemberRoleManager.sol:MemberRoleManager","label":"isActive","offset":0,"slot":"1","type":"t_bool"}],"numberOfBytes":"64"},"t_struct(UserInfo)8169_storage":{"encoding":"inplace","label":"struct MemberRoleManager.UserInfo","members":[{"astId":8166,"contract":"contracts/MemberRoleManager.sol:MemberRoleManager","label":"userIdHash","offset":0,"slot":"0","type":"t_bytes32"},{"astId":8168,"contract":"contracts/MemberRoleManager.sol:MemberRoleManager","label":"isWalletActive","offset":0,"slot":"1","type":"t_bool"}],"numberOfBytes":"64"},"t_uint256":{"encoding":"inplace","label":"uint256","numberOfBytes":"32"}}}}}}