{"contracts/HealthRecordCore.sol":{"HealthRecordCore":{"abi":[{"inputs":[],"stateMutability":"nonpayable","type":"constructor"},{"inputs":[{"internalType":"address","name":"target","type":"address"}],"name":"AddressEmptyCode","type":"error"},{"inputs":[{"internalType":"address","name":"implementation","type":"address"}],"name":"ERC1967InvalidImplementation","type":"error"},{"inputs":[],"name":"ERC1967NonPayable","type":"error"},{"inputs":[],"name":"FailedInnerCall","type":"error"},{"inputs":[],"name":"InvalidInitialization","type":"error"},{"inputs":[],"name":"NotInitializing","type":"error"},{"inputs":[],"name":"UUPSUnauthorizedCallContext","type":"error"},{"inputs":[{"internalType":"bytes32","name":"slot","type":"bytes32"}],"name":"UUPSUnsupportedProxiableUUID","type":"error"},{"anonymous":false,"inputs":[{"indexed":true,"internalType":"address","name":"oldAdmin","type":"address"},{"indexed":true,"internalType":"address","name":"newAdmin","type":"address"},{"indexed":false,"internalType":"uint256","name":"timestamp","type":"uint256"}],"name":"AdminTransferred","type":"event"},{"anonymous":false,"inputs":[{"indexed":true,"internalType":"string","name":"recordHash","type":"string"},{"indexed":true,"internalType":"bytes32","name":"disputerIdHash","type":"bytes32"},{"indexed":false,"internalType":"enum HealthRecordCore.DisputeSeverity","name":"oldSeverity","type":"uint8"},{"indexed":false,"internalType":"enum HealthRecordCore.DisputeSeverity","name":"newSeverity","type":"uint8"},{"indexed":false,"internalType":"enum HealthRecordCore.DisputeCulpability","name":"oldCulpability","type":"uint8"},{"indexed":false,"internalType":"enum HealthRecordCore.DisputeCulpability","name":"newCulpability","type":"uint8"},{"indexed":false,"internalType":"uint256","name":"timestamp","type":"uint256"}],"name":"DisputeModification","type":"event"},{"anonymous":false,"inputs":[{"indexed":true,"internalType":"string","name":"recordHash","type":"string"},{"indexed":true,"internalType":"bytes32","name":"reactorIdHash","type":"bytes32"},{"indexed":true,"internalType":"bytes32","name":"disputerIdHash","type":"bytes32"},{"indexed":false,"internalType":"bool","name":"supportsDispute","type":"bool"},{"indexed":false,"internalType":"uint256","name":"timestamp","type":"uint256"}],"name":"DisputeReaction","type":"event"},{"anonymous":false,"inputs":[{"indexed":true,"internalType":"string","name":"recordHash","type":"string"},{"indexed":true,"internalType":"bytes32","name":"disputerIdHash","type":"bytes32"},{"indexed":false,"internalType":"uint256","name":"timestamp","type":"uint256"}],"name":"DisputeRetracted","type":"event"},{"anonymous":false,"inputs":[{"indexed":false,"internalType":"uint64","name":"version","type":"uint64"}],"name":"Initialized","type":"event"},{"anonymous":false,"inputs":[{"indexed":true,"internalType":"string","name":"recordHash","type":"string"},{"indexed":true,"internalType":"bytes32","name":"reactorIdHash","type":"bytes32"},{"indexed":true,"internalType":"bytes32","name":"disputerIdHash","type":"bytes32"},{"indexed":false,"internalType":"bool","name":"oldSupport","type":"bool"},{"indexed":false,"internalType":"bool","name":"newSupport","type":"bool"},{"indexed":false,"internalType":"uint256","name":"timestamp","type":"uint256"}],"name":"ReactionModified","type":"event"},{"anonymous":false,"inputs":[{"indexed":true,"internalType":"string","name":"recordHash","type":"string"},{"indexed":true,"internalType":"bytes32","name":"reactorIdHash","type":"bytes32"},{"indexed":true,"internalType":"bytes32","name":"disputerIdHash","type":"bytes32"},{"indexed":false,"internalType":"uint256","name":"timestamp","type":"uint256"}],"name":"ReactionRetracted","type":"event"},{"anonymous":false,"inputs":[{"indexed":true,"internalType":"string","name":"recordId","type":"string"},{"indexed":true,"internalType":"string","name":"recordHash","type":"string"},{"indexed":true,"internalType":"bytes32","name":"subjectIdHash","type":"bytes32"},{"indexed":false,"internalType":"uint256","name":"timestamp","type":"uint256"}],"name":"RecordAnchored","type":"event"},{"anonymous":false,"inputs":[{"indexed":true,"internalType":"string","name":"recordHash","type":"string"},{"indexed":true,"internalType":"string","name":"recordId","type":"string"},{"indexed":true,"internalType":"bytes32","name":"disputerIdHash","type":"bytes32"},{"indexed":false,"internalType":"enum HealthRecordCore.DisputeSeverity","name":"severity","type":"uint8"},{"indexed":false,"internalType":"enum HealthRecordCore.DisputeCulpability","name":"culpability","type":"uint8"},{"indexed":false,"internalType":"uint256","name":"timestamp","type":"uint256"}],"name":"RecordDisputed","type":"event"},{"anonymous":false,"inputs":[{"indexed":true,"internalType":"string","name":"recordId","type":"string"},{"indexed":true,"internalType":"string","name":"newHash","type":"string"},{"indexed":false,"internalType":"bytes32","name":"addedBy","type":"bytes32"},{"indexed":false,"internalType":"uint256","name":"timestamp","type":"uint256"}],"name":"RecordHashAdded","type":"event"},{"anonymous":false,"inputs":[{"indexed":true,"internalType":"string","name":"recordId","type":"string"},{"indexed":true,"internalType":"string","name":"recordHash","type":"string"},{"indexed":false,"internalType":"uint256","name":"timestamp","type":"uint256"}],"name":"RecordHashRetracted","type":"event"},{"anonymous":false,"inputs":[{"indexed":true,"internalType":"string","name":"recordId","type":"string"},{"indexed":true,"internalType":"bytes32","name":"subjectIdHash","type":"bytes32"},{"indexed":false,"internalType":"uint256","name":"timestamp","type":"uint256"}],"name":"RecordReanchored","type":"event"},{"anonymous":false,"inputs":[{"indexed":true,"internalType":"string","name":"recordId","type":"string"},{"indexed":true,"internalType":"bytes32","name":"subjectIdHash","type":"bytes32"},{"indexed":false,"internalType":"uint256","name":"timestamp","type":"uint256"}],"name":"RecordUnanchored","type":"event"},{"anonymous":false,"inputs":[{"indexed":true,"internalType":"string","name":"recordHash","type":"string"},{"indexed":true,"internalType":"string","name":"recordId","type":"string"},{"indexed":true,"internalType":"bytes32","name":"verifierIdHash","type":"bytes32"},{"indexed":false,"internalType":"enum HealthRecordCore.VerificationLevel","name":"level","type":"uint8"},{"indexed":false,"internalType":"uint256","name":"timestamp","type":"uint256"}],"name":"RecordVerified","type":"event"},{"anonymous":false,"inputs":[{"indexed":true,"internalType":"bytes32","name":"subjectIdHash","type":"bytes32"},{"indexed":true,"internalType":"string","name":"recordId","type":"string"},{"indexed":true,"internalType":"string","name":"noteHash","type":"string"},{"indexed":false,"internalType":"uint256","name":"flagIndex","type":"uint256"},{"indexed":false,"internalType":"uint256","name":"timestamp","type":"uint256"}],"name":"UnacceptedUpdateFlagged","type":"event"},{"anonymous":false,"inputs":[{"indexed":true,"internalType":"bytes32","name":"subjectIdHash","type":"bytes32"},{"indexed":true,"internalType":"uint256","name":"flagIndex","type":"uint256"},{"indexed":false,"internalType":"enum HealthRecordCore.ResolutionType","name":"resolution","type":"uint8"},{"indexed":false,"internalType":"uint256","name":"timestamp","type":"uint256"}],"name":"UnacceptedUpdateResolved","type":"event"},{"anonymous":false,"inputs":[{"indexed":true,"internalType":"address","name":"implementation","type":"address"}],"name":"Upgraded","type":"event"},{"anonymous":false,"inputs":[{"indexed":true,"internalType":"string","name":"recordHash","type":"string"},{"indexed":true,"internalType":"bytes32","name":"verifierIdHash","type":"bytes32"},{"indexed":false,"internalType":"enum HealthRecordCore.VerificationLevel","name":"oldLevel","type":"uint8"},{"indexed":false,"internalType":"enum HealthRecordCore.VerificationLevel","name":"newLevel","type":"uint8"},{"indexed":false,"internalType":"uint256","name":"timestamp","type":"uint256"}],"name":"VerificationLevelModified","type":"event"},{"anonymous":false,"inputs":[{"indexed":true,"internalType":"string","name":"recordHash","type":"string"},{"indexed":true,"internalType":"bytes32","name":"verifierIdHash","type":"bytes32"},{"indexed":false,"internalType":"uint256","name":"timestamp","type":"uint256"}],"name":"VerificationRetracted","type":"event"},{"inputs":[],"name":"UPGRADE_INTERFACE_VERSION","outputs":[{"internalType":"string","name":"","type":"string"}],"stateMutability":"view","type":"function"},{"inputs":[{"internalType":"bytes32","name":"","type":"bytes32"}],"name":"activeUnacceptedFlagCount","outputs":[{"internalType":"uint256","name":"","type":"uint256"}],"stateMutability":"view","type":"function"},{"inputs":[{"internalType":"string","name":"recordId","type":"string"},{"internalType":"string","name":"newHash","type":"string"}],"name":"addRecordHash","outputs":[],"stateMutability":"nonpayable","type":"function"},{"inputs":[],"name":"admin","outputs":[{"internalType":"address","name":"","type":"address"}],"stateMutability":"view","type":"function"},{"inputs":[{"internalType":"string","name":"recordId","type":"string"},{"internalType":"string","name":"recordHash","type":"string"}],"name":"anchorRecord","outputs":[],"stateMutability":"nonpayable","type":"function"},{"inputs":[{"internalType":"string","name":"","type":"string"},{"internalType":"bytes32","name":"","type":"bytes32"}],"name":"currentlyDisputed","outputs":[{"internalType":"bool","name":"","type":"bool"}],"stateMutability":"view","type":"function"},{"inputs":[{"internalType":"string","name":"","type":"string"},{"internalType":"bytes32","name":"","type":"bytes32"},{"internalType":"bytes32","name":"","type":"bytes32"}],"name":"currentlyReacted","outputs":[{"internalType":"bool","name":"","type":"bool"}],"stateMutability":"view","type":"function"},{"inputs":[{"internalType":"string","name":"","type":"string"},{"internalType":"bytes32","name":"","type":"bytes32"}],"name":"currentlyVerified","outputs":[{"internalType":"bool","name":"","type":"bool"}],"stateMutability":"view","type":"function"},{"inputs":[{"internalType":"string","name":"","type":"string"},{"internalType":"bytes32","name":"","type":"bytes32"}],"name":"disputeIndex","outputs":[{"internalType":"uint256","name":"","type":"uint256"}],"stateMutability":"view","type":"function"},{"inputs":[{"internalType":"string","name":"","type":"string"},{"internalType":"bytes32","name":"","type":"bytes32"},{"internalType":"uint256","name":"","type":"uint256"}],"name":"disputeReactions","outputs":[{"internalType":"bytes32","name":"reactorIdHash","type":"bytes32"},{"internalType":"bool","name":"supportsDispute","type":"bool"},{"internalType":"uint256","name":"timestamp","type":"uint256"},{"internalType":"bool","name":"isActive","type":"bool"}],"stateMutability":"view","type":"function"},{"inputs":[{"internalType":"string","name":"recordId","type":"string"},{"internalType":"string","name":"recordHash","type":"string"},{"internalType":"uint8","name":"severity","type":"uint8"},{"internalType":"uint8","name":"culpability","type":"uint8"},{"internalType":"string","name":"notes","type":"string"}],"name":"disputeRecord","outputs":[],"stateMutability":"nonpayable","type":"function"},{"inputs":[{"internalType":"string","name":"","type":"string"},{"internalType":"uint256","name":"","type":"uint256"}],"name":"disputes","outputs":[{"internalType":"bytes32","name":"disputerIdHash","type":"bytes32"},{"internalType":"string","name":"recordId","type":"string"},{"internalType":"enum HealthRecordCore.DisputeSeverity","name":"severity","type":"uint8"},{"internalType":"enum HealthRecordCore.DisputeCulpability","name":"culpability","type":"uint8"},{"internalType":"string","name":"notes","type":"string"},{"internalType":"uint256","name":"createdAt","type":"uint256"},{"internalType":"bool","name":"isActive","type":"bool"}],"stateMutability":"view","type":"function"},{"inputs":[{"internalType":"bytes32","name":"","type":"bytes32"},{"internalType":"uint256","name":"","type":"uint256"}],"name":"disputesByUser","outputs":[{"internalType":"string","name":"","type":"string"}],"stateMutability":"view","type":"function"},{"inputs":[{"internalType":"string","name":"recordHash","type":"string"}],"name":"doesHashExist","outputs":[{"internalType":"bool","name":"","type":"bool"}],"stateMutability":"view","type":"function"},{"inputs":[{"internalType":"bytes32","name":"subjectIdHash","type":"bytes32"},{"internalType":"string","name":"recordId","type":"string"},{"internalType":"string","name":"noteHash","type":"string"}],"name":"flagUnacceptedUpdate","outputs":[],"stateMutability":"nonpayable","type":"function"},{"inputs":[{"internalType":"string","name":"recordId","type":"string"}],"name":"getActiveRecordSubjects","outputs":[{"internalType":"bytes32[]","name":"","type":"bytes32[]"}],"stateMutability":"view","type":"function"},{"inputs":[{"internalType":"bytes32","name":"subjectIdHash","type":"bytes32"}],"name":"getActiveUnacceptedFlagCount","outputs":[{"internalType":"uint256","name":"","type":"uint256"}],"stateMutability":"view","type":"function"},{"inputs":[{"internalType":"string","name":"recordHash","type":"string"},{"internalType":"bytes32","name":"disputerIdHash","type":"bytes32"}],"name":"getDisputeReactions","outputs":[{"components":[{"internalType":"bytes32","name":"reactorIdHash","type":"bytes32"},{"internalType":"bool","name":"supportsDispute","type":"bool"},{"internalType":"uint256","name":"timestamp","type":"uint256"},{"internalType":"bool","name":"isActive","type":"bool"}],"internalType":"struct HealthRecordCore.Reaction[]","name":"","type":"tuple[]"}],"stateMutability":"view","type":"function"},{"inputs":[{"internalType":"string","name":"recordHash","type":"string"}],"name":"getDisputeStats","outputs":[{"internalType":"uint256","name":"total","type":"uint256"},{"internalType":"uint256","name":"active","type":"uint256"}],"stateMutability":"view","type":"function"},{"inputs":[{"internalType":"string","name":"recordHash","type":"string"}],"name":"getDisputes","outputs":[{"components":[{"internalType":"bytes32","name":"disputerIdHash","type":"bytes32"},{"internalType":"string","name":"recordId","type":"string"},{"internalType":"enum HealthRecordCore.DisputeSeverity","name":"severity","type":"uint8"},{"internalType":"enum HealthRecordCore.DisputeCulpability","name":"culpability","type":"uint8"},{"internalType":"string","name":"notes","type":"string"},{"internalType":"uint256","name":"createdAt","type":"uint256"},{"internalType":"bool","name":"isActive","type":"bool"}],"internalType":"struct HealthRecordCore.Dispute[]","name":"","type":"tuple[]"}],"stateMutability":"view","type":"function"},{"inputs":[{"internalType":"string","name":"recordHash","type":"string"},{"internalType":"bytes32","name":"disputerIdHash","type":"bytes32"}],"name":"getReactionStats","outputs":[{"internalType":"uint256","name":"totalReactions","type":"uint256"},{"internalType":"uint256","name":"activeSupports","type":"uint256"},{"internalType":"uint256","name":"activeOpposes","type":"uint256"}],"stateMutability":"view","type":"function"},{"inputs":[{"internalType":"string","name":"recordHash","type":"string"}],"name":"getRecordIdForHash","outputs":[{"internalType":"string","name":"","type":"string"}],"stateMutability":"view","type":"function"},{"inputs":[{"internalType":"string","name":"recordId","type":"string"}],"name":"getRecordSubjects","outputs":[{"internalType":"bytes32[]","name":"","type":"bytes32[]"}],"stateMutability":"view","type":"function"},{"inputs":[{"internalType":"string","name":"recordId","type":"string"}],"name":"getRecordVersionHistory","outputs":[{"internalType":"string[]","name":"","type":"string[]"}],"stateMutability":"view","type":"function"},{"inputs":[{"internalType":"bytes32","name":"userIdHash","type":"bytes32"}],"name":"getSubjectMedicalHistory","outputs":[{"internalType":"string[]","name":"","type":"string[]"}],"stateMutability":"view","type":"function"},{"inputs":[{"internalType":"string","name":"recordId","type":"string"}],"name":"getSubjectStats","outputs":[{"internalType":"uint256","name":"total","type":"uint256"},{"internalType":"uint256","name":"active","type":"uint256"}],"stateMutability":"view","type":"function"},{"inputs":[],"name":"getTotalAnchoredRecords","outputs":[{"internalType":"uint256","name":"","type":"uint256"}],"stateMutability":"view","type":"function"},{"inputs":[{"internalType":"bytes32","name":"subjectIdHash","type":"bytes32"},{"internalType":"uint256","name":"flagIndex","type":"uint256"}],"name":"getUnacceptedUpdateFlag","outputs":[{"internalType":"string","name":"recordId","type":"string"},{"internalType":"string","name":"noteHash","type":"string"},{"internalType":"uint256","name":"createdAt","type":"uint256"},{"internalType":"enum HealthRecordCore.ResolutionType","name":"resolution","type":"uint8"},{"internalType":"uint256","name":"resolvedAt","type":"uint256"},{"internalType":"bool","name":"isActive","type":"bool"}],"stateMutability":"view","type":"function"},{"inputs":[{"internalType":"bytes32","name":"subjectIdHash","type":"bytes32"}],"name":"getUnacceptedUpdateFlags","outputs":[{"components":[{"internalType":"string","name":"recordId","type":"string"},{"internalType":"string","name":"noteHash","type":"string"},{"internalType":"uint256","name":"createdAt","type":"uint256"},{"internalType":"enum HealthRecordCore.ResolutionType","name":"resolution","type":"uint8"},{"internalType":"uint256","name":"resolvedAt","type":"uint256"},{"internalType":"bool","name":"isActive","type":"bool"}],"internalType":"struct HealthRecordCore.UnacceptedUpdateFlag[]","name":"","type":"tuple[]"}],"stateMutability":"view","type":"function"},{"inputs":[{"internalType":"string","name":"recordHash","type":"string"},{"internalType":"bytes32","name":"userIdHash","type":"bytes32"}],"name":"getUserDispute","outputs":[{"internalType":"bool","name":"exists","type":"bool"},{"internalType":"string","name":"recordId","type":"string"},{"internalType":"enum HealthRecordCore.DisputeSeverity","name":"severity","type":"uint8"},{"internalType":"enum HealthRecordCore.DisputeCulpability","name":"culpability","type":"uint8"},{"internalType":"string","name":"notes","type":"string"},{"internalType":"uint256","name":"createdAt","type":"uint256"},{"internalType":"bool","name":"isActive","type":"bool"}],"stateMutability":"view","type":"function"},{"inputs":[{"internalType":"bytes32","name":"userIdHash","type":"bytes32"}],"name":"getUserDisputes","outputs":[{"internalType":"string[]","name":"","type":"string[]"}],"stateMutability":"view","type":"function"},{"inputs":[{"internalType":"string","name":"recordHash","type":"string"},{"internalType":"bytes32","name":"disputerIdHash","type":"bytes32"},{"internalType":"bytes32","name":"reactorIdHash","type":"bytes32"}],"name":"getUserReaction","outputs":[{"internalType":"bool","name":"exists","type":"bool"},{"internalType":"bool","name":"supportsDispute","type":"bool"},{"internalType":"uint256","name":"timestamp","type":"uint256"},{"internalType":"bool","name":"isActive","type":"bool"}],"stateMutability":"view","type":"function"},{"inputs":[{"internalType":"string","name":"recordHash","type":"string"},{"internalType":"bytes32","name":"userIdHash","type":"bytes32"}],"name":"getUserVerification","outputs":[{"internalType":"bool","name":"exists","type":"bool"},{"internalType":"string","name":"recordId","type":"string"},{"internalType":"enum HealthRecordCore.VerificationLevel","name":"level","type":"uint8"},{"internalType":"uint256","name":"createdAt","type":"uint256"},{"internalType":"bool","name":"isActive","type":"bool"}],"stateMutability":"view","type":"function"},{"inputs":[{"internalType":"bytes32","name":"userIdHash","type":"bytes32"}],"name":"getUserVerifications","outputs":[{"internalType":"string[]","name":"","type":"string[]"}],"stateMutability":"view","type":"function"},{"inputs":[{"internalType":"string","name":"recordHash","type":"string"}],"name":"getVerificationStats","outputs":[{"internalType":"uint256","name":"total","type":"uint256"},{"internalType":"uint256","name":"active","type":"uint256"}],"stateMutability":"view","type":"function"},{"inputs":[{"internalType":"string","name":"recordHash","type":"string"}],"name":"getVerifications","outputs":[{"components":[{"internalType":"bytes32","name":"verifierIdHash","type":"bytes32"},{"internalType":"string","name":"recordId","type":"string"},{"internalType":"enum HealthRecordCore.VerificationLevel","name":"level","type":"uint8"},{"internalType":"uint256","name":"createdAt","type":"uint256"},{"internalType":"bool","name":"isActive","type":"bool"}],"internalType":"struct HealthRecordCore.Verification[]","name":"","type":"tuple[]"}],"stateMutability":"view","type":"function"},{"inputs":[{"internalType":"string","name":"recordId","type":"string"}],"name":"getVersionCount","outputs":[{"internalType":"uint256","name":"","type":"uint256"}],"stateMutability":"view","type":"function"},{"inputs":[{"internalType":"bytes32","name":"subjectIdHash","type":"bytes32"}],"name":"hasActiveUnacceptedFlags","outputs":[{"internalType":"bool","name":"","type":"bool"}],"stateMutability":"view","type":"function"},{"inputs":[{"internalType":"string","name":"recordHash","type":"string"},{"internalType":"bytes32","name":"userIdHash","type":"bytes32"}],"name":"hasUserDisputed","outputs":[{"internalType":"bool","name":"","type":"bool"}],"stateMutability":"view","type":"function"},{"inputs":[{"internalType":"string","name":"recordHash","type":"string"},{"internalType":"bytes32","name":"disputerIdHash","type":"bytes32"},{"internalType":"bytes32","name":"reactorIdHash","type":"bytes32"}],"name":"hasUserReacted","outputs":[{"internalType":"bool","name":"","type":"bool"}],"stateMutability":"view","type":"function"},{"inputs":[{"internalType":"string","name":"recordHash","type":"string"},{"internalType":"bytes32","name":"userIdHash","type":"bytes32"}],"name":"hasUserVerified","outputs":[{"internalType":"bool","name":"","type":"bool"}],"stateMutability":"view","type":"function"},{"inputs":[{"internalType":"address","name":"_memberRoleManager","type":"address"}],"name":"initialize","outputs":[],"stateMutability":"nonpayable","type":"function"},{"inputs":[{"internalType":"string","name":"recordId","type":"string"},{"internalType":"bytes32","name":"userIdHash","type":"bytes32"}],"name":"isActiveSubject","outputs":[{"internalType":"bool","name":"","type":"bool"}],"stateMutability":"view","type":"function"},{"inputs":[{"internalType":"string","name":"","type":"string"}],"name":"isHashActive","outputs":[{"internalType":"bool","name":"","type":"bool"}],"stateMutability":"view","type":"function"},{"inputs":[{"internalType":"string","name":"recordId","type":"string"},{"internalType":"bytes32","name":"userIdHash","type":"bytes32"}],"name":"isSubject","outputs":[{"internalType":"bool","name":"","type":"bool"}],"stateMutability":"view","type":"function"},{"inputs":[{"internalType":"string","name":"","type":"string"},{"internalType":"bytes32","name":"","type":"bytes32"}],"name":"isSubjectActive","outputs":[{"internalType":"bool","name":"","type":"bool"}],"stateMutability":"view","type":"function"},{"inputs":[{"internalType":"string","name":"","type":"string"},{"internalType":"bytes32","name":"","type":"bytes32"}],"name":"isSubjectOfRecord","outputs":[{"internalType":"bool","name":"","type":"bool"}],"stateMutability":"view","type":"function"},{"inputs":[],"name":"memberRoleManager","outputs":[{"internalType":"contract MemberRoleManagerInterface","name":"","type":"address"}],"stateMutability":"view","type":"function"},{"inputs":[{"internalType":"string","name":"recordHash","type":"string"},{"internalType":"uint8","name":"newSeverity","type":"uint8"},{"internalType":"uint8","name":"newCulpability","type":"uint8"}],"name":"modifyDispute","outputs":[],"stateMutability":"nonpayable","type":"function"},{"inputs":[{"internalType":"string","name":"recordHash","type":"string"},{"internalType":"bytes32","name":"disputerIdHash","type":"bytes32"},{"internalType":"bool","name":"newSupport","type":"bool"}],"name":"modifyReaction","outputs":[],"stateMutability":"nonpayable","type":"function"},{"inputs":[{"internalType":"string","name":"recordHash","type":"string"},{"internalType":"uint8","name":"newLevel","type":"uint8"}],"name":"modifyVerificationLevel","outputs":[],"stateMutability":"nonpayable","type":"function"},{"inputs":[],"name":"proxiableUUID","outputs":[{"internalType":"bytes32","name":"","type":"bytes32"}],"stateMutability":"view","type":"function"},{"inputs":[{"internalType":"string","name":"recordHash","type":"string"},{"internalType":"bytes32","name":"disputerIdHash","type":"bytes32"},{"internalType":"bool","name":"supportsDispute","type":"bool"}],"name":"reactToDispute","outputs":[],"stateMutability":"nonpayable","type":"function"},{"inputs":[{"internalType":"string","name":"","type":"string"},{"internalType":"bytes32","name":"","type":"bytes32"},{"internalType":"bytes32","name":"","type":"bytes32"}],"name":"reactionIndex","outputs":[{"internalType":"uint256","name":"","type":"uint256"}],"stateMutability":"view","type":"function"},{"inputs":[{"internalType":"string","name":"recordId","type":"string"}],"name":"reanchorRecord","outputs":[],"stateMutability":"nonpayable","type":"function"},{"inputs":[{"internalType":"string","name":"","type":"string"}],"name":"recordIdForHash","outputs":[{"internalType":"string","name":"","type":"string"}],"stateMutability":"view","type":"function"},{"inputs":[{"internalType":"string","name":"","type":"string"},{"internalType":"uint256","name":"","type":"uint256"}],"name":"recordSubjects","outputs":[{"internalType":"bytes32","name":"","type":"bytes32"}],"stateMutability":"view","type":"function"},{"inputs":[{"internalType":"string","name":"","type":"string"},{"internalType":"uint256","name":"","type":"uint256"}],"name":"recordVersionHistory","outputs":[{"internalType":"string","name":"","type":"string"}],"stateMutability":"view","type":"function"},{"inputs":[{"internalType":"bytes32","name":"subjectIdHash","type":"bytes32"},{"internalType":"uint256","name":"flagIndex","type":"uint256"},{"internalType":"enum HealthRecordCore.ResolutionType","name":"resolution","type":"uint8"}],"name":"resolveUnacceptedUpdate","outputs":[],"stateMutability":"nonpayable","type":"function"},{"inputs":[{"internalType":"string","name":"recordHash","type":"string"}],"name":"retractDispute","outputs":[],"stateMutability":"nonpayable","type":"function"},{"inputs":[{"internalType":"string","name":"recordHash","type":"string"},{"internalType":"bytes32","name":"disputerIdHash","type":"bytes32"}],"name":"retractReaction","outputs":[],"stateMutability":"nonpayable","type":"function"},{"inputs":[{"internalType":"string","name":"recordId","type":"string"},{"internalType":"string","name":"recordHash","type":"string"}],"name":"retractRecordHash","outputs":[],"stateMutability":"nonpayable","type":"function"},{"inputs":[{"internalType":"string","name":"recordHash","type":"string"}],"name":"retractVerification","outputs":[],"stateMutability":"nonpayable","type":"function"},{"inputs":[{"internalType":"address","name":"_memberRoleManager","type":"address"}],"name":"setMemberRoleManager","outputs":[],"stateMutability":"nonpayable","type":"function"},{"inputs":[{"internalType":"bytes32","name":"","type":"bytes32"},{"internalType":"uint256","name":"","type":"uint256"}],"name":"subjectMedicalHistory","outputs":[{"internalType":"string","name":"","type":"string"}],"stateMutability":"view","type":"function"},{"inputs":[],"name":"totalAnchoredRecords","outputs":[{"internalType":"uint256","name":"","type":"uint256"}],"stateMutability":"view","type":"function"},{"inputs":[],"name":"totalDisputes","outputs":[{"internalType":"uint256","name":"","type":"uint256"}],"stateMutability":"view","type":"function"},{"inputs":[],"name":"totalUnacceptedFlags","outputs":[{"internalType":"uint256","name":"","type":"uint256"}],"stateMutability":"view","type":"function"},{"inputs":[],"name":"totalVerifications","outputs":[{"internalType":"uint256","name":"","type":"uint256"}],"stateMutability":"view","type":"function"},{"inputs":[{"internalType":"address","name":"newAdmin","type":"address"}],"name":"transferAdmin","outputs":[],"stateMutability":"nonpayable","type":"function"},{"inputs":[{"internalType":"bytes32","name":"","type":"bytes32"},{"internalType":"uint256","name":"","type":"uint256"}],"name":"unacceptedUpdateFlags","outputs":[{"internalType":"string","name":"recordId","type":"string"},{"internalType":"string","name":"noteHash","type":"string"},{"internalType":"uint256","name":"createdAt","type":"uint256"},{"internalType":"enum HealthRecordCore.ResolutionType","name":"resolution","type":"uint8"},{"internalType":"uint256","name":"resolvedAt","type":"uint256"},{"internalType":"bool","name":"isActive","type":"bool"}],"stateMutability":"view","type":"function"},{"inputs":[{"internalType":"string","name":"recordId","type":"string"}],"name":"unanchorRecord","outputs":[],"stateMutability":"nonpayable","type":"function"},{"inputs":[{"internalType":"address","name":"newImplementation","type":"address"},{"internalType":"bytes","name":"data","type":"bytes"}],"name":"upgradeToAndCall","outputs":[],"stateMutability":"payable","type":"function"},{"inputs":[{"internalType":"string","name":"","type":"string"},{"internalType":"bytes32","name":"","type":"bytes32"}],"name":"verificationIndex","outputs":[{"internalType":"uint256","name":"","type":"uint256"}],"stateMutability":"view","type":"function"},{"inputs":[{"internalType":"string","name":"","type":"string"},{"internalType":"uint256","name":"","type":"uint256"}],"name":"verifications","outputs":[{"internalType":"bytes32","name":"verifierIdHash","type":"bytes32"},{"internalType":"string","name":"recordId","type":"string"},{"internalType":"enum HealthRecordCore.VerificationLevel","name":"level","type":"uint8"},{"internalType":"uint256","name":"createdAt","type":"uint256"},{"internalType":"bool","name":"isActive","type":"bool"}],"stateMutability":"view","type":"function"},{"inputs":[{"internalType":"bytes32","name":"","type":"bytes32"},{"internalType":"uint256","name":"","type":"uint256"}],"name":"verificationsByUser","outputs":[{"internalType":"string","name":"","type":"string"}],"stateMutability":"view","type":"function"},{"inputs":[{"internalType":"string","name":"recordId","type":"string"},{"internalType":"string","name":"recordHash","type":"string"},{"internalType":"uint8","name":"level","type":"uint8"}],"name":"verifyRecord","outputs":[],"stateMutability":"nonpayable","type":"function"}],"evm":{"bytecode":{"linkReferences":{},"object":"60a08060405234620000d157306080527ff0c57e16840df040f15088dc2f81fe391c3923bec73e23a9662efc9c229c6a009081549060ff8260401c16620000c257506001600160401b036002600160401b0319828216016200007c575b604051615ef09081620000d782396080518181816132d701526137670152f35b6001600160401b031990911681179091556040519081527fc7f505b2f371ae2175ee4913f4499e1f2633a7b5936321eed1cdaeb6115181d290602090a13880806200005c565b63f92ee8a960e01b8152600490fd5b600080fdfe6080604052600436101561001257600080fd5b60e0600035811c9081623297e414614f0157816301b4147d1461171757816305f5943914613cd25781630a36148b14614f015781630fbab50a1461268657816310a0e88a14614c945781631537070314614c6b57816319bfe5f214614c325781631a6b3d2a14614bf95781631aacda8814614a355781631b7cabb7146149255781631cf8cbe8146114fa5781631ec50c0e146148ee57816321d9caaa14614825578163223c3bb9146147dc578163249dda2e146114ce57816325db354d146147a85781632a4e0476146145f35781632e6df698146145445781632fa8db0414614410578163315ca5ba1461436f578163339a0aec1461428857816335c4c20314614030578163365348e914613ff25781633f132dc114613db4578163400f8d0614613d20578163411ab58414613cd25781634294e2ff14613ad55781634b7c908a1461394f5781634f1ef286146137185781634f893ed6146120e45781635203cbed1461334157816352d1902d146132c4578163533acffd14612e165781635a18672e14612ba55781635d12da5014612b715781635d28a34214612b435781636018200d14612a4d578163629be2b6146128df5781636eb7457f1461284a5781637286b6f91461273a57816375829def146126bf57816380027ff614612686578163883080af1461221e5781638da1d369146121845781638e3ccbcf1461212957816398909e22146120e4578163a5f2d1d114611e32578163ac90c14014611e14578163ac92433614611df6578163ad3cb1cc14611d88578163adcee10214611d52578163b0c7363c14611cfa578163b27bb4d514611cc4578163b48ac4d214611a3e578163b5e6b7a2146119ee578163c18cf8d214611966578163c282f4ab14611926578163c4d66de81461176e578163c5e4ccc414611750578163c6bd157214611717578163c7695bab1461168e578163ca1e910a146115a157508063d08c800d14611518578063d46e082f146114fa578063dbc7b842146114ce578063dd0bc08214611472578063e08f1ac3146113e5578063e11c45b714611031578063e2aae6e014610d9b578063f251f8e414610c71578063f3ac2bea14610be0578063f5e7f9f414610af7578063f7c0d033146108eb578063f851a440146108c2578063f9f70c4a1461088b5763fd328f581461036d57600080fd5b3461080a5760a036600319011261080a576001600160401b0360043581811161080a5761039e903690600401615034565b90602491823582811161080a576103b9903690600401615034565b6103c16150b6565b906064359360ff8516850361080a5760843590811161080a576103e8903690600401615034565b6000546040516345ecd02f60e01b81523360048201526001600160a01b03909116906020818981855afa80156108175761042a9160009161086c575b506157c7565b604051630286b6ab60e31b8152906020828061044a338a6004840161580a565b0381845afa9081156108175761046c6020928a9460009161083f575b50615832565b61047887511515615a2d565b61048485511515615a79565b600160ff8716101580610831575b61049b9061545d565b600160ff8916101580610823575b6104b2906154a0565b60405162b0c80960e01b815233600482015298899182905afa968715610817576000976107de575b506104e68715156154ec565b60405160208185516104fb8183858a01615083565b8101600e8152030190208760005260205260ff6040600020541661079a57604051602081855161052e8183858a01615083565b8101600d8152030190205491604051602081865161054f8183858b01615083565b8101600d8152030190209161056660ff87166150eb565b600660ff8916101561075c576040519161057f83614f8b565b8983526020830193888552604084019061059b60ff8a166150eb565b60ff8916825260608501926105b360ff8d1685615b34565b60808601524260a0860152600160c0860152805490600160401b82101561078557906105e491600182018155615441565b9590956107705790610601610614928651885551600188016158ce565b5161060b816150eb565b6002860161557c565b5190600682101561075c57506060947f1e9fc3a602c7b16a7098c5ba783b4f9d40508e6aa83fc4a05853c485261f12bc969461069785600560c06107319761066561072b9860026107539c01615594565b6106766080820151600386016158ce565b60a081015160048501550151151591019060ff801983541691151516179055565b60405160208184516106ac8183858901615083565b8101600e8152030190208b6000526020526040600020600160ff1982541617905560405160208184516106e28183858901615083565b8101600f8152030190208b600052602052604060002055601660205261070c816040600020615b05565b6107176018546157a0565b60185561072660ff86166150eb565b6155b3565b956155b3565b9560ff604051936107438282166150eb565b16835260ff602084019116615366565b426040820152a4005b634e487b7160e01b60009081526021600452fd5b83634e487b7160e01b60005260006004526000fd5b84634e487b7160e01b60005260416004526000fd5b606490601a6040519162461bcd60e51b8352602060048401528201527f416c7265616479206469737075746564207468697320686173680000000000006044820152fd5b9096506020813d60201161080f575b816107fa60209383614fc1565b8101031261080a575195386104da565b600080fd5b3d91506107ed565b6040513d6000823e3d90fd5b50600560ff891611156104a9565b50600360ff87161115610492565b61085f9150843d8611610865575b6108578183614fc1565b8101906157af565b38610466565b503d61084d565b610885915060203d602011610865576108578183614fc1565b38610424565b3461080a5760806108a461089e366152f3565b91615d7f565b91604051931515845215156020840152604083015215156060820152f35b3461080a57600036600319011261080a576001546040516001600160a01b039091168152602090f35b3461080a5760208060031936011261080a57600435906001600160401b03821161080a5761091f6024923690600401615034565b60005460405162b0c80960e01b815233600482015293839185919082906001600160a01b03165afa92831561081757600093610ac8575b506109628315156154ec565b604051815190838181850193610979818387615083565b8101600b81520301902084600052835260ff6040600020541615610a83577f94748c1a380e215f3ba9de3f49d5c0a47c8bff6c16301f5f153e2429032722f091610a7991604051858184516109cf818387615083565b8101600c815203019020866000528552610a59856004610a3b84610a2960ff84610a208a610a1189604060002054978893604051938492839251928391615083565b8101600a815203019020615425565b500154166156fa565b60405184818951610a1181838c615083565b50019260ff1993848154169055604051809381928751928391615083565b8101600b81520301902086600052855260406000209081541690556155b3565b91604051428152a3005b60405162461bcd60e51b815260048101849052601a60248201527f4e6f20766572696669636174696f6e20746f20726574726163740000000000006044820152606490fd5b9092508181813d8311610af0575b610ae08183614fc1565b8101031261080a57519183610956565b503d610ad6565b3461080a57610b0536615052565b6040518281809451610b1d8160209788809601615083565b810160108152030190209060005281526040600020908154610b3e8161573a565b90610b4c6040519283614fc1565b8082528282018094600052836000206000915b838310610bc35760408051878152865181890181905289928201908960005b828110610b8b5784840385f35b855180518552808301511515858401526040808201519086015260609081015115159085015294810194608090930192600101610b7e565b600486600192610bd285615751565b815201920192019190610b5f565b3461080a57610bee36615052565b90604051918151926020938185809381870193610c0c818387615083565b8101600381520301902083600052825260ff604060002054169384610c38575b82856040519015158152f35b610c4f939450604051938492839251928391615083565b8101600581520301902090600052815260ff6040600020541682828180610c2c565b3461080a5760208060031936011261080a5760043560005260138152604060002090815491610c9f8361573a565b92610cad6040519485614fc1565b8084528284018092600052836000206000915b838310610d785750505050604051918083019381845251809452604083019360408160051b85010192916000955b828710610cfb5785850386f35b909192938280600192603f19898203018552875190610d36610d2660c08451908085528401906150c6565b84840151838203868501526150c6565b9160408101516040830152610d5360608083015190840190615389565b6080808201519083015260a08091015115159101529601920196019592919092610cee565b600686600192610d8a859a999a615bc6565b815201920192019190959495610cc0565b3461080a57610da9366153e2565b6000546040516345ecd02f60e01b8152336004820152602093916001600160a01b0316908481602481855afa801561081757610dec9160009161101457506157c7565b604051630286b6ab60e31b8152848180610e0a33876004840161580a565b0381855afa801561081757610e2691600091610ff75750615832565b60405190610e51845192868181880195610e41818389615083565b8101600681520301902054615123565b610fb257835115610f7657846024916040519283809262b0c80960e01b82523360048301525afa918215610817578591600093610f43575b50610f2f84610f1584610f3594610edf7f60d9fff893391026daade2734b45ecb2fb8ae1f0187ea2b39018ee8bdc94390a998b60409a998b51809251610ed0818389615083565b810160068152030190206158ce565b610f058a895184818851610ef68183858d01615083565b81016007815203019020615b05565b8751809381928c51928391615083565b81016008815203019020600160ff198254161790556155b3565b946155b3565b9482519182524290820152a3005b92509082813d8111610f6f575b610f5a8183614fc1565b8101031261080a579051908490610f2f610e89565b503d610f50565b60405162461bcd60e51b8152600481018690526014602482015273486173682063616e6e6f7420626520656d70747960601b6044820152606490fd5b60405162461bcd60e51b815260048101869052601e60248201527f4861736820616c726561647920626f756e6420746f2061207265636f726400006044820152606490fd5b61100e9150863d8811610865576108578183614fc1565b86610466565b61102b9150863d8811610865576108578183614fc1565b86610424565b3461080a5761103f366153e2565b6000546040516345ecd02f60e01b8152336004820152602093916001600160a01b0316908481602481855afa8015610817576110829160009161101457506157c7565b83604051809263a0ca13c360e01b825281806110a233886004840161580a565b03915afa908115610817576000916113c8575b501561138d57604051916110ef6110f68251948681818601976110d981838b615083565b810160068152030190206040519283809261515d565b0382614fc1565b84815191012091805192858201938420036113515760405190825161111c818488615083565b82019261113a60ff60089460088752898183980301902054166156fa565b61115287600096604051809381928751928391615083565b810160078152030190209182546111688161573a565b936111766040519586614fc1565b81855260009081528981208a8087015b84841061132b57505050505060005b83518110156111ed57856111c18a6111ad848861578c565b518160405193828580945193849201615083565b81018981520301902054166111d9575b600101611195565b956111e56001916157a0565b9690506111d1565b8883838a60018b11156112cb5761127e7f10883978dc4137be2c21cf3c3827329d1303377374a52fe00a7b5a98c25d883c9261125c866112849460405182818a51611239818387615083565b8101600881520301902060ff198154169055604051809381928a51928391615083565b810160068152030190206112708154615123565b908161128e575b50506155b3565b926155b3565b92604051428152a3005b81601f600093116001146112a65750555b8680611277565b9080839182526112c4601f8b8420940160051c8401600185016158b7565b555561129f565b60405162461bcd60e51b815260048101859052603260248201527f43616e6e6f74207265747261637420746865206c617374206163746976652076604482015271195c9cda5bdb881bd98818481c9958dbdc9960721b6064820152608490fd5b6001918291604051611341816110ef818961515d565b8152019201920191908b90611186565b60405162461bcd60e51b8152600481018690526014602482015273090c2e6d05aa4cac6dee4c840dad2e6dac2e8c6d60631b6044820152606490fd5b60405162461bcd60e51b815260048101849052601360248201527227b7363c9037bbb732b91037b91030b236b4b760691b6044820152606490fd5b6113df9150843d8611610865576108578183614fc1565b846110b5565b3461080a5760208060031936011261080a576004356000526015602052604060002080546114128161573a565b916114206040519384614fc1565b81835260208301906000526020600020936000915b83831061144e576040518061144a8782615279565b0390f35b6001828192604051611464816110ef818d61515d565b815201960192019194611435565b3461080a57602036600319011261080a5761148b6152dd565b6001546001600160a01b0391906114a5908316331461587e565b166114b1811515615c3e565b6bffffffffffffffffffffffff60a01b6000541617600055600080f35b3461080a57602036600319011261080a5760043560005260146020526020604060002054604051908152f35b3461080a57600036600319011261080a576020600954604051908152f35b3461080a5760208060031936011261080a576004356000526016602052604060002080546115458161573a565b916115536040519384614fc1565b81835260208301906000526020600020936000915b83831061157d576040518061144a8782615279565b6001828192604051611593816110ef818d61515d565b815201960192019194611568565b3461080a5760206115c96115b436615052565b92908160405193828580945193849201615083565b8101600d81520301902090815481101561080a576115e691615441565b508054906040516115fe816110ef816001860161515d565b61167d600283015460ff8116906116706040519161162a836116238160038b0161515d565b0384614fc1565b61165160ff600560048a015499015416966040519a8b9a8b528060208c01528a01906150c6565b9361165b816150eb565b604089015260ff606089019160081c16615366565b85820360808701526150c6565b9160a0840152151560c08301520390f35b3461080a5760208060031936011261080a576004356000526004602052604060002080546116bb8161573a565b916116c96040519384614fc1565b81835260208301906000526020600020936000915b8383106116f3576040518061144a8782615279565b6001828192604051611709816110ef818d61515d565b8152019601920191946116de565b3461080a57602061172a6115b436615052565b8101600381520301902090600052602052602060ff604060002054166040519015158152f35b3461080a57600036600319011261080a576020601854604051908152f35b3461080a57602036600319011261080a576117876152dd565b7ff0c57e16840df040f15088dc2f81fe391c3923bec73e23a9662efc9c229c6a0090815460ff8160401c1615906001600160401b0381168015908161191e575b6001149081611914575b15908161190b575b506118f95767ffffffffffffffff1981166001178455816118da575b5082549160ff8360401c16156118c8576001600160a01b03168015611879576bffffffffffffffffffffffff60a01b908160005416176000553390600154161760015561183e57005b68ff0000000000000000191690557fc7f505b2f371ae2175ee4913f4499e1f2633a7b5936321eed1cdaeb6115181d2602060405160018152a1005b60405162461bcd60e51b815260206004820152602160248201527f496e76616c6964204d656d626572526f6c654d616e61676572206164647265736044820152607360f81b6064820152608490fd5b604051631afcd79f60e31b8152600490fd5b68ffffffffffffffffff191668010000000000000001178355836117f5565b60405163f92ee8a960e01b8152600490fd5b905015856117d9565b303b1591506117d1565b8391506117c7565b3461080a5760206119396115b436615052565b81016002815203019020805482101561080a57602091611958916150f5565b90546040519160031b1c8152f35b3461080a5761197436615373565b906000526013602052604060002090815481101561080a5761199591615441565b506040516119a7816110ef818561515d565b61144a604051926119c6846119bf816001850161515d565b0385614fc1565b60028101549060ff60038201541660ff60056004840154930154169260405196879687615396565b3461080a576119fc36615373565b906000526015602052604060002090815481101561080a57611a24611a2a9161144a936150f5565b906151f3565b6040519182916020835260208301906150c6565b3461080a5760208060031936011261080a576004356001600160401b03811161080a57611a6f903690600401615034565b6000546040516345ecd02f60e01b81523360048201526001600160a01b039091169291908281602481875afa801561081757611ab291600091611ca757506157c7565b604051630286b6ab60e31b815292828480611ad133866004840161580a565b0381845afa90811561081757611af28492602496600091611c8a5750615832565b60405162b0c80960e01b815233600482015294859182905afa92831561081757600093611c5b575b50611b268315156154ec565b604051815190838181850193611b3d818387615083565b8101600381520301902084600052835260ff6040600020541615611c205760405183818451611b6d818387615083565b8101600581520301902084600052835260ff60406000205416611bea577f08f30cbe91e0ca2a9f89c7c4a38baaa3fdd002bf05e8d40e1ca69945d06a490191611bc584610a7993604051809381928651928391615083565b810160058152030190208560005284526040600020600160ff198254161790556155b3565b60405162461bcd60e51b815260048101849052600e60248201526d416c72656164792061637469766560901b6044820152606490fd5b60405162461bcd60e51b815260048101849052601360248201527215d85cc81b995d995c8818481cdd589a9958dd606a1b6044820152606490fd5b9092508181813d8311611c83575b611c738183614fc1565b8101031261080a57519183611b1a565b503d611c69565b611ca19150843d8611610865576108578183614fc1565b87610466565b611cbe9150843d8611610865576108578183614fc1565b85610424565b3461080a57611cd236615373565b906000526004602052604060002090815481101561080a57611a24611a2a9161144a936150f5565b3461080a57611d256020611d0d366152f3565b93918360409492945193828580945193849201615083565b81016012815203019020906000526020526040600020906000526020526020604060002054604051908152f35b3461080a57611d6036615373565b906000526016602052604060002090815481101561080a57611a24611a2a9161144a936150f5565b3461080a57600036600319011261080a5760405160408101908082106001600160401b03831117611de05761144a9160405260058152640352e302e360dc1b60208201526040519182916020835260208301906150c6565b634e487b7160e01b600052604160045260246000fd5b3461080a57600036600319011261080a576020601954604051908152f35b3461080a57600036600319011261080a576020601754604051908152f35b3461080a57604036600319011261080a576004356001600160401b03811161080a57611e62903690600401615034565b60ff611e6c6150a6565b16906001821015806120d9575b611e8290615ac5565b60005460405162b0c80960e01b815233600482015292602092918390859060249082906001600160a01b03165afa938415610817576000946120aa575b50611ecb8415156154ec565b604051825190848181860193611ee2818387615083565b8101600b81520301902085600052845260ff604060002054161561206557611f429060405185818651611f16818387615083565b8101600c815203019020866000528552610a118560406000205492604051809381928951928391615083565b5060ff60048201541615612020576002019160ff83541692611f63836150eb565b611f6c836150eb565b611f75846150eb565b828414611fe65791611fc17f334f52bdf9b484290889b34fb83ad64bff4dd1b7028a24d048a3a85537b53ff99492611fb883606096611fb3826150eb565b61557c565b610726836150eb565b9460405192611fcf816150eb565b8352611fda826150eb565b820152426040820152a3005b60405162461bcd60e51b8152600481018690526012602482015271105b1c9958591e481d1a1a5cc81b195d995b60721b6044820152606490fd5b60405162461bcd60e51b815260048101859052601f60248201527f566572696669636174696f6e20686173206265656e20726574726163746564006044820152606490fd5b60405162461bcd60e51b815260048101859052601960248201527f4e6f20766572696669636174696f6e20746f206d6f64696679000000000000006044820152606490fd5b9093508281813d83116120d2575b6120c28183614fc1565b8101031261080a57519284611ebf565b503d6120b8565b506003821115611e79565b3461080a576120f76020611d0d366152f3565b8101601181520301902090600052602052604060002090600052602052602060ff604060002054166040519015158152f35b3461080a5761167061216b61167d61214961214336615052565b90615c7c565b969598929193946040989198519a8b9a15158b528060208c01528a01906150c6565b93612175816150eb565b60408901526060880190615366565b3461080a5760206121976115b436615052565b8101600a81520301902090815481101561080a576121b491615425565b508054604051916121cc83611623816001850161515d565b60ff6002820154169060ff6004600383015492015416906121ff604051958695865260a0602087015260a08601906150c6565b92612209816150eb565b60408501526060840152151560808301520390f35b3461080a5761222c366153e2565b6000546040516345ecd02f60e01b81523360048201526024936020939290916001600160a01b039091169084818781855afa8015610817576122759160009161266957506157c7565b604051630286b6ab60e31b81529084828061229433876004840161580a565b0381845afa908115610817576122b48692889460009161264c5750615832565b6122c084511515615a2d565b6122cc85511515615a79565b60405162b0c80960e01b815233600482015296879182905afa9485156108175760009561261d575b506123008515156154ec565b60405190825191858181860194612318818388615083565b8101600381520301902086600052855260ff604060002054166125ca5760405185818551612347818388615083565b81016002815203019020541561247d575b6040518581855161236a818388615083565b81016002815203019020805491600160401b83101561246957509261245f926123bd837f1cdc47600aa970e2d8c3bfa9885daefc5e052ea8a6a10471ab3dbbc77ad2138d96600161127e960181556150f5565b81549060031b908a821b91600019901b1916179055604051878184516123e4818387615083565b8101600381520301902088600052875261241c8760406000209260ff1993600185825416179055604051809381928751928391615083565b8101600581520301902088600052875260016040600020918254161790556004865261244c816040600020615b05565b6124576009546157a0565b6009556155b3565b92604051428152a4005b634e487b7160e01b60009081526041600452fd5b6124b06040516124b78651918881818a019461249a818388615083565b810160068152030190206040519384809261515d565b0383614fc1565b8151156125105750858151910120835183201461235857606490856040519162461bcd60e51b83528160048401528201527f486173682062656c6f6e677320746f20646966666572656e74207265636f72646044820152fd5b905060ff60405187818851612526818388615083565b8101600881520301902054166125925785612578916125518660405184818b51610ed0818389615083565b6125678760405184818a51610ef681838d615083565b604051809381928951928391615083565b81016008815203019020600160ff19825416179055612358565b60405162461bcd60e51b8152600481018790526011818401527012185cda08185b1c9958591e481d5cd959607a1b6044820152606490fd5b8460276084926040519262461bcd60e51b845260048401528201527f5265636f726420616c726561647920616e63686f72656420746f2074686973206044820152661cdd589a9958dd60ca1b6064820152fd5b9094508381813d8311612645575b6126358183614fc1565b8101031261080a575193856122f4565b503d61262b565b6126639150843d8611610865576108578183614fc1565b89610466565b6126809150863d8811610865576108578183614fc1565b87610424565b3461080a5760206126996115b436615052565b8101600b81520301902090600052602052602060ff604060002054166040519015158152f35b3461080a57602036600319011261080a576126d86152dd565b6001546001600160a01b03808216926126f233851461587e565b168092612700821515615c3e565b7f38df5fa0f7fef0d515ca1f5388cb5790ac5885d5fca8d05d9f943e563c33a4b36020604051428152a36001600160a01b03191617600155005b3461080a5760208060031936011261080a576004356001600160401b03811161080a5761276b903690600401615034565b6000604051825190848181860193612784818387615083565b8101600281520301902090604051808387829554938481520190600052876000209260005b89828210612834575050506127c092500383614fc1565b81519360005b835181101561282557604051878184516127e1818389615083565b810160058152030190206127f5828661578c565b51600052875260ff60406000205416612811575b6001016127c6565b9361281d6001916157a0565b949050612809565b60408686898351928352820152f35b85548452600195860195889550930192016127a9565b3461080a5761289061288a61285e36615373565b9080600052601360205261287860406000205483106159eb565b60005260136020526040600020615441565b50615bc6565b8051602082015191604081015160608201519160058310156128c95761144a9260a0608083015192015115159260405196879687615396565b634e487b7160e01b600052602160045260246000fd5b3461080a5760208060031936011261080a576004356001600160401b03811161080a5781612914612927923690600401615034565b8160405193828580945193849201615083565b8101600d81520301902080549161293d8361573a565b9261294b6040519485614fc1565b8084528184018093600052826000206000915b838310612a2a5750505050604051928184019082855251809152604084019160408260051b86010193926000965b8388106129995786860387f35b90919293948380600192603f198a820301865288519081518152612a036129cb848401518886850152888401906150c6565b60408401516129d9816150eb565b60408401526129f060608086015190850190615366565b60808085015190848303908501526150c6565b9160a0808201519083015260c080910151151591015297019301970196909392919361298c565b600685600192612a3c859a989a615b40565b81520192019201919095939561295e565b3461080a5760208060031936011261080a576004356001600160401b03811161080a57612a7e903690600401615034565b90612a99816000938160405193828580945193849201615083565b8101600d815203019020918254612aaf8161573a565b93612abd6040519586614fc1565b8185526000908152838120848087015b848410612b2457878287825160005b8451811015612b155760c0612af1828761578c565b510151612b01575b600101612adc565b91612b0d6001916157a0565b929050612af9565b50906040928351928352820152f35b600191600691612b3385615b40565b8152019201920191908590612acd565b3461080a57602036600319011261080a57600435600052601460205260206040600020541515604051908152f35b3461080a576020612b846115b436615052565b8101600c815203019020906000526020526020604060002054604051908152f35b3461080a57612bb336615328565b60005460405162b0c80960e01b8152336004820152929360209290918390859060249082906001600160a01b03165afa93841561081757600094612de7575b50612bfe8415156154ec565b604051825190848181860193612c15818387615083565b81016011815203019020866000528452604060002085600052845260ff6040600020541615612daa57612ca59060405185818651612c54818387615083565b810160128152030190208760005285526040600020866000528552612c8b8560406000205492604051809381928951928391615083565b81016010815203019020876000528552604060002061525d565b509160ff60038401541615612d6557600183019260ff8454169280151593151594848614612d2b579260609492612d0d612d18937f83316b3299ea5a7386901a45e5d604103b0c75a2d3ff829a25e4a6d645c6b7f398969060ff801983541691151516179055565b6002429101556155b3565b94604051928352820152426040820152a4005b60405162461bcd60e51b8152600481018890526012602482015271416c726561647920746869732076616c756560701b6044820152606490fd5b60405162461bcd60e51b815260048101859052601b60248201527f5265616374696f6e20686173206265656e2072657472616374656400000000006044820152606490fd5b60405162461bcd60e51b81526004810185905260156024820152744e6f207265616374696f6e20746f206d6f6469667960581b6044820152606490fd5b9093508281813d8311612e0f575b612dff8183614fc1565b8101031261080a57519285612bf2565b503d612df5565b3461080a57612e2436615328565b6000546040516345ecd02f60e01b81523360048201529293602493602093926001600160a01b03169084818781855afa801561081757612e6b916000916132a757506157c7565b60405190825191858181860194612e83818388615083565b8101600e81520301902087600052855260ff60406000205416156132635790612f2c9160405186818651612eb8818388615083565b8101600f81520301902088600052865260406000205490866001612f10612eff85612ef085898c604051938492839251928391615083565b8101600d815203019020615441565b506110ef604051809481930161515d565b60405180968192630286b6ab60e31b835233906004840161580a565b0381845afa90811561081757612f4c88928a966000916132465750615832565b60405162b0c80960e01b815233600482015298899182905afa96871561081757600097613217575b50612f808715156154ec565b8787146131d55760405186818651612f99818388615083565b81016011815203019020886000528652604060002087600052865260ff6040600020541661319f5760ff6005612fde612fe7936040518a818a51612ef081838c615083565b50015416615530565b60405185818551612ff9818387615083565b810160108152030190208760005285526040600020549160405186818651613022818388615083565b81016010815203019020886000528652604060002060405161304381614f70565b888152878101961515968781526040820191428352606081019360018552805490600160401b82101561318a57906130809160018201815561525d565b9590956131765750946130fa6040989560037fa63d8144c55fb5ca0cbcbeeea8e1b365cc113f4ab5aab289db2285d783e6b7669b9996613144966130de8f976131689c518655511515600186019060ff801983541691151516179055565b51600284015551151591019060ff801983541691151516179055565b87518281875161310b818387615083565b810160118152030190208c6000528252876000208b600052825287600020600160ff198254161790558751809381928751928391615083565b810160128152030190208960005287528460002088600052875284600020556155b3565b9382519182524290820152a4005b634e487b7160e01b60005260006004526000fd5b86634e487b7160e01b60005260416004526000fd5b60405162461bcd60e51b815260048101879052600f818501526e105b1c9958591e481c995858dd1959608a1b6044820152606490fd5b606483876040519162461bcd60e51b83528160048401528201527f43616e6e6f7420726561637420746f20796f7572206f776e20646973707574656044820152fd5b9096508581813d831161323f575b61322f8183614fc1565b8101031261080a57519588612f74565b503d613225565b61325d9150843d8611610865576108578183614fc1565b8c610466565b60405162461bcd60e51b8152600481018690526019818801527f4e6f20646973707574652066726f6d20746869732075736572000000000000006044820152606490fd5b6132be9150863d8811610865576108578183614fc1565b88610424565b3461080a57600036600319011261080a577f00000000000000000000000000000000000000000000000000000000000000006001600160a01b0316300361332f5760206040517f360894a13ba1a3210667c828492db98dca3e2076cc3735a920a3ca505d382bbc8152f35b60405163703e46dd60e11b8152600490fd5b3461080a57606036600319011261080a576001600160401b0360043581811161080a57613372903690600401615034565b602491823590811161080a5761338c903690600401615034565b906133956150b6565b6000546040516345ecd02f60e01b81523360048201526020946001600160a01b03909216929085818881875afa8015610817576133d99160009161370157506157c7565b604051630286b6ab60e31b81528581806133f733896004840161580a565b0381875afa801561081757879261341960ff9289946000916136e45750615832565b61342587511515615a2d565b61343185511515615a79565b16936001851015806136d9575b61344790615ac5565b60405162b0c80960e01b815233600482015297889182905afa958615610817576000966136aa575b5061347b8615156154ec565b604051825190868181860193613492818387615083565b8101600b81520301902087600052865260ff6040600020541661366657604051868185516134c1818387615083565b8101600a8152030190205491604051878186516134df818388615083565b8101600a8152030190206134f2866150eb565b6040516134fe81614f55565b8981528881018881526040820190613515896150eb565b8882526060830192428452608081019460018652805490600160401b821015613651579061354891600182018155615425565b9690966131765750956135bd610f2f96600460409b978f95976135a17f5ddcec906a8edfb96c9cf15f08c0fe50115a5547ef76ab3a944ed41acf127d019f9d99986106016135fd9a61363a9f51885551600188016158ce565b51600384015551151591019060ff801983541691151516179055565b8851828187516135ce818387615083565b8101600b8152030190208d600052825288600020600160ff198254161790558851809381928751928391615083565b8101600c8152030190208a60005289528560002055601588526136238186600020615b05565b61362e6017546157a0565b601755610726846150eb565b94825191613647816150eb565b82524290820152a4005b87634e487b7160e01b60005260416004526000fd5b60405162461bcd60e51b815260048101879052601a818401527f416c7265616479207665726966696564207468697320686173680000000000006044820152606490fd5b9095508481813d83116136d2575b6136c28183614fc1565b8101031261080a5751948661346f565b503d6136b8565b50600385111561343e565b6136fb9150853d8711610865576108578183614fc1565b8b610466565b6132be9150873d8911610865576108578183614fc1565b604036600319011261080a5761372c6152dd565b6024356001600160401b03811161080a573660238201121561080a5761375c903690602481600401359101614ffd565b906001600160a01b037f00000000000000000000000000000000000000000000000000000000000000008116308114908115613921575b5061332f576137a78160015416331461587e565b6040516352d1902d60e01b8152908216916020918281600481875afa600091816138f2575b506137ea57604051634c9c8ce360e01b815260048101859052602490fd5b9284937f360894a13ba1a3210667c828492db98dca3e2076cc3735a920a3ca505d382bbc908181036138da5750823b156138c15780546001600160a01b03191682179055604051907fbc7cd75a20ee27fd9adebab32041f755214dbc6bffa90cc0225b39da2e5c2d3b600080a28351156138a75750600080848461389c96519101845af4903d1561389e573d61387f81614fe2565b9061388d6040519283614fc1565b8152600081943d92013e615e57565b005b60609250615e57565b92505050346138b257005b63b398979f60e01b8152600490fd5b604051634c9c8ce360e01b815260048101839052602490fd5b60249060405190632a87526960e21b82526004820152fd5b9091508381813d831161391a575b61390a8183614fc1565b8101031261080a575190866137cc565b503d613900565b9050817f360894a13ba1a3210667c828492db98dca3e2076cc3735a920a3ca505d382bbc5416141584613793565b3461080a57606036600319011261080a57602435600435604435600581101561080a5761398760018060a01b0360015416331461587e565b816000526020601381526139a160406000205485106159eb565b8115613a915782600052601381526139bd846040600020615441565b50600581019060ff82541615613a54576139da84600383016159d3565b60044291015560ff19815416905582600052601481526040600020918254918215613a3e577fd27cfed75349d7c1712793c75b771f2a7dd4689406c4d8fdc93b4194b422eb3593604093600019019055613a3683518093615389565b4290820152a3005b634e487b7160e01b600052601160045260246000fd5b60405162461bcd60e51b8152600481018490526015602482015274119b1859c8185b1c9958591e481c995cdbdb1d9959605a1b6044820152606490fd5b6064906040519062461bcd60e51b82526004820152601c60248201527f4d7573742070726f76696465207265736f6c7574696f6e2074797065000000006044820152fd5b3461080a57613ae336615052565b60005460405162b0c80960e01b815233600482015291926020918290849060249082906001600160a01b03165afa92831561081757600093613ca3575b50613b2c8315156154ec565b604051815190838181850193613b43818387615083565b81016011815203019020856000528352604060002084600052835260ff6040600020541615613c65577fbe97907321aa6637529c6e0bd464af27ddb95fadc266661a0a9c0b693acaa2ba91613c5b9160405185818451613ba4818387615083565b810160128152030190208760005285526040600020866000528552613c30856003610a3b60406000205460405184818951613be081838c615083565b810160108152030190208c6000528452613c0460ff84610a2084604060002061525d565b60405184818951613c1681838c615083565b810160108152030190208c6000528452604060002061525d565b81016011815203019020876000528552604060002086600052855260406000209081541690556155b3565b91604051428152a4005b60405162461bcd60e51b8152600481018490526016602482015275139bc81c995858dd1a5bdb881d1bc81c995d1c9858dd60521b6044820152606490fd5b9092508181813d8311613ccb575b613cbb8183614fc1565b8101031261080a57519184613b20565b503d613cb1565b3461080a57602036600319011261080a576004356001600160401b03811161080a5760ff613d0a602061291481943690600401615034565b8101600881520301902054166040519015158152f35b3461080a5760208060031936011261080a576004356001600160401b03811161080a5781612914613d55923690600401615034565b8101600281520301902090604051908181845491828152019360005281600020916000905b828210613d9d5761144a85613d9181890382614fc1565b60405191829182615221565b835486529485019460019384019390910190613d7a565b3461080a57606036600319011261080a5760246001600160401b03600435823582811161080a57613de9903690600401615034565b9160443590811161080a57613e02903690600401615034565b91613e1860018060a01b0360015416331461587e565b8115613fae57825115613f6a5781600052601360205260406000209384549460405191613e4483614f3a565b83835260208301908682526040840142815260608501906000825260808601936000855260a087019560018752600160401b8c1015610785578b613e8d91600182018155615441565b979097613f555790613ea3613ead9251896158ce565b51600188016158ce565b5160028601555190600582101561075c575093613f1a846005613f4695610f2f95613efe7fdc620035e382d2354e94af4ee86406f06a6bc23c13499543d7ad5ee77af524049a600360409b016159d3565b51600484015551151591019060ff801983541691151516179055565b85600052601460205283600020613f3181546157a0565b9055613f3e6019546157a0565b6019556155b3565b948151908152426020820152a4005b84634e487b7160e01b60005260006004526000fd5b60405162461bcd60e51b8152602060048201526019818601527f4e6f746520686173682063616e6e6f7420626520656d707479000000000000006044820152606490fd5b60405162461bcd60e51b815260206004820152601f818601527f5375626a65637420494420686173682063616e6e6f7420626520656d707479006044820152606490fd5b3461080a57602036600319011261080a576004356001600160401b03811161080a576110ef611a2a6110d9602061291461144a953690600401615034565b3461080a5760208060031936011261080a576004356001600160401b03811161080a57614061903690600401615034565b6000546040516345ecd02f60e01b81523360048201526001600160a01b039091169291908281602481875afa8015610817576140a491600091611ca757506157c7565b604051630286b6ab60e31b8152928284806140c333866004840161580a565b0381845afa908115610817576140e48492602496600091611c8a5750615832565b60405162b0c80960e01b815233600482015294859182905afa92831561081757600093614259575b506141188315156154ec565b60405181519083818185019361412f818387615083565b8101600381520301902084600052835260ff6040600020541615614214576040518381845161415f818387615083565b8101600581520301902084600052835260ff60406000205416156141da577f6394e07ba017d68c6017a8d8fd8ade9c44dd70fd18b290e2d74db2b691ac99fb916141b884610a7993604051809381928651928391615083565b81016005815203019020856000528452604060002060ff1981541690556155b3565b60405162461bcd60e51b8152600481018490526012602482015271105b1c9958591e481d5b985b98da1bdc995960721b6044820152606490fd5b60405162461bcd60e51b815260048101849052601c60248201527f4e6f742061207375626a656374206f662074686973207265636f7264000000006044820152606490fd5b9092508181813d8311614281575b6142718183614fc1565b8101031261080a5751918361410c565b503d614267565b3461080a5760208060031936011261080a576004356001600160401b03811161080a576142b9903690600401615034565b906142d4816000938160405193828580945193849201615083565b8101600a8152030190209182546142ea8161573a565b936142f86040519586614fc1565b8185526000908152838120848087015b84841061435057878287825160005b8451811015612b1557608061432c828761578c565b51015161433c575b600101614317565b916143486001916157a0565b929050614334565b60019160059161435f856155d3565b8152019201920191908590614308565b3461080a5760208060031936011261080a576004356001600160401b03811161080a57816129146143a4923690600401615034565b8101600781520301902080546143b98161573a565b916143c76040519384614fc1565b8183526000908152838120938084015b8383106143ec576040518061144a8782615279565b6001828192604051614402816110ef818d61515d565b8152019601920191946143d7565b3461080a5760208060031936011261080a576004356001600160401b03811161080a5781612914614445923690600401615034565b8101600a8152030190209081549161445c8361573a565b9261446a6040519485614fc1565b8084528284018092600052836000206000915b8383106145215750505050604051918083019381845251809452604083019360408160051b85010192916000955b8287106144b85785850386f35b909192938280600192603f198982030185528751906144e860a083518352848401519080868501528301906150c6565b9160408101516144f7816150eb565b604083015260608082015190830152608080910151151591015296019201960195929190926144ab565b600586600192614533859a999a6155d3565b81520192019201919095949561447d565b3461080a57606036600319011261080a576004356001600160401b03811161080a57614574903690600401615034565b6145906020604435928160405193828580945193849201615083565b810160108152030190206024356000526020526040600020805482101561080a576080916145bd9161525d565b5080549060ff6001820154169060ff60036002830154920154169160405193845215156020840152604083015215156060820152f35b3461080a5760208060031936011261080a576004356001600160401b03811161080a57614624903690600401615034565b906040519082519181818186019461463d818388615083565b81016002815203019020604051808284829454938481520190600052846000209260005b868282106147925750505061467892500382614fc1565b60009160005b82518110156146dd576040518281885161469981838b615083565b810160058152030190206146ad828561578c565b51600052825260ff604060002054166146c9575b60010161467e565b926146d56001916157a0565b9390506146c1565b50939291936146eb8561573a565b946146f96040519687614fc1565b808652614708601f199161573a565b01368287013760009260005b83518110156147845760019060405184818951614732818389615083565b81016005815203019020614746828761578c565b51600052845260ff60406000205416614760575b01614714565b61476a818661578c565b5161477e614777886157a0565b978a61578c565b5261475a565b6040518061144a8982615221565b8554845260019586019587955093019201614661565b3461080a5760206147bb6115b436615052565b8101600f815203019020906000526020526020604060002054604051908152f35b3461080a57602036600319011261080a576004356001600160401b03811161080a57614812602061291481933690600401615034565b8101600781520301902054604051908152f35b3461080a5760208060031936011261080a576004356001600160401b03811161080a57614856903690600401615034565b906040519160ff81519383818185019661487181838a615083565b810160088152030190205416156148b35761249a826124b09461489f93604051938492839251928391615083565b61144a6040519282849384528301906150c6565b60405162461bcd60e51b815260048101839052601360248201527212185cda08191bd95cc81b9bdd08195e1a5cdd606a1b6044820152606490fd5b3461080a5760206149016115b436615052565b8101600781520301902090815481101561080a57611a24611a2a9161144a936150f5565b3461080a5761493336615052565b60008091604051848180965161494f816020998a809601615083565b8101601081520301902090600052835260406000209182546149708161573a565b9361497e6040519586614fc1565b8185526000908152858120868087015b848410614a1657505050505082519260005b8151811015614a005760606149b5828461578c565b5101516149c5575b6001016149a0565b92856149d1858461578c565b510151156149ed576149e46001916157a0565b935b90506149bd565b92916149fa6001916157a0565b926149e6565b5050906060936040519384528301526040820152f35b600191600491614a2585615751565b815201920192019190879061498e565b3461080a5760208060031936011261080a57600435906001600160401b03821161080a57614a696024923690600401615034565b60005460405162b0c80960e01b815233600482015293839185919082906001600160a01b03165afa92831561081757600093614bca575b50614aac8315156154ec565b604051815190838181850193614ac3818387615083565b8101600e81520301902084600052835260ff6040600020541615614b8d577f7180e7a407de506e94dc4620f97c3af6aaf73726be177cf5a2118a83ea08e09a91610a799160405185818451614b19818387615083565b8101600f815203019020866000528552614b6d856005610a3b84614b5b60ff84610a208a612ef089604060002054978893604051938492839251928391615083565b60405184818951612ef081838c615083565b8101600e81520301902086600052855260406000209081541690556155b3565b60405162461bcd60e51b8152600481018490526015602482015274139bc8191a5cdc1d5d19481d1bc81c995d1c9858dd605a1b6044820152606490fd5b9092508181813d8311614bf2575b614be28183614fc1565b8101031261080a57519183614aa0565b503d614bd8565b3461080a576020614c0c6115b436615052565b8101600581520301902090600052602052602060ff604060002054166040519015158152f35b3461080a57614c49614c4336615052565b9061562e565b906121ff6040959495519586951515865260a0602087015260a08601906150c6565b3461080a57600036600319011261080a576000546040516001600160a01b039091168152602090f35b3461080a57606036600319011261080a576004356001600160401b03811161080a57614cc4903690600401615034565b614ccc6150a6565b614cd46150b6565b9060ff8080921692600184101580614ef6575b614cf09061545d565b1690600182101580614eeb575b614d06906154a0565b60005460405162b0c80960e01b815233600482015294602094918590879060249082906001600160a01b03165afa95861561081757600096614ebc575b50614d4f8615156154ec565b604051815190868181850193614d66818387615083565b8101600e815203019020876000528652836040600020541615614e8057614dc760029160405188818651614d9b818387615083565b8101600f815203019020896000528852612ef08860406000205492604051809381928951928391615083565b50614dd785600583015416615530565b0190815493614df281861694614dec816150eb565b8461557c565b60068610156128c957614e6960a09584614e307f5395fbd4f789f9b64d364b4f7ed8200e8d2a75a219f64da159998cb161fdab1899614e7797615594565b5493614e3e848616916155b3565b9960405197614e4c816150eb565b8852614e57826150eb565b87015282604087019160081c16615366565b606084019160081c16615366565b426080820152a3005b60405162461bcd60e51b81526004810187905260146024820152734e6f206469737075746520746f206d6f6469667960601b6044820152606490fd5b9095508481813d8311614ee4575b614ed48183614fc1565b8101031261080a57519486614d43565b503d614eca565b506005821115614cfd565b506003841115614ce7565b3461080a576020614f146115b436615052565b8101600e81520301902090600052602052602060ff604060002054166040519015158152f35b60c081019081106001600160401b03821117611de057604052565b60a081019081106001600160401b03821117611de057604052565b608081019081106001600160401b03821117611de057604052565b60e081019081106001600160401b03821117611de057604052565b602081019081106001600160401b03821117611de057604052565b90601f801991011681019081106001600160401b03821117611de057604052565b6001600160401b038111611de057601f01601f191660200190565b92919261500982614fe2565b916150176040519384614fc1565b82948184528183011161080a578281602093846000960137010152565b9080601f8301121561080a5781602061504f93359101614ffd565b90565b604060031982011261080a57600435906001600160401b03821161080a5761507c91600401615034565b9060243590565b60005b8381106150965750506000910152565b8181015183820152602001615086565b6024359060ff8216820361080a57565b6044359060ff8216820361080a57565b906020916150df81518092818552858086019101615083565b601f01601f1916010190565b600411156128c957565b805482101561510d5760005260206000200190600090565b634e487b7160e01b600052603260045260246000fd5b90600182811c92168015615153575b602083101461513d57565b634e487b7160e01b600052602260045260246000fd5b91607f1691615132565b80546000939261516c82615123565b918282526020936001916001811690816000146151d45750600114615193575b5050505050565b90939495506000929192528360002092846000945b8386106151c05750505050010190388080808061518c565b8054858701830152940193859082016151a8565b60ff19168685015250505090151560051b01019150388080808061518c565b9061520b5761504f6110ef916040519283809261515d565b634e487b7160e01b600052600060045260246000fd5b602090602060408183019282815285518094520193019160005b828110615249575050505090565b83518552938101939281019260010161523b565b805482101561510d5760005260206000209060021b0190600090565b6020808201906020835283518092526040830192602060408460051b8301019501936000915b8483106152af5750505050505090565b90919293949584806152cd600193603f198682030187528a516150c6565b980193019301919493929061529f565b600435906001600160a01b038216820361080a57565b606060031982011261080a57600435906001600160401b03821161080a5761531d91600401615034565b906024359060443590565b606060031982011261080a57600435906001600160401b03821161080a5761535291600401615034565b9060243590604435801515810361080a5790565b9060068210156128c95752565b604090600319011261080a576004359060243590565b9060058210156128c95752565b9491936153c660a0956153b86153d6949a99969a60c08a5260c08a01906150c6565b9088820360208a01526150c6565b9760408701526060860190615389565b60808401521515910152565b90604060031983011261080a576001600160401b0360043581811161080a578361540e91600401615034565b9260243591821161080a5761504f91600401615034565b805482101561510d576000526005602060002091020190600090565b805482101561510d576000526006602060002091020190600090565b1561546457565b60405162461bcd60e51b81526020600482015260146024820152735365766572697479206d75737420626520312d3360601b6044820152606490fd5b156154a757565b60405162461bcd60e51b815260206004820152601760248201527f43756c706162696c697479206d75737420626520312d350000000000000000006044820152606490fd5b156154f357565b60405162461bcd60e51b815260206004820152601560248201527415d85b1b195d081b9bdd081c9959da5cdd195c9959605a1b6044820152606490fd5b1561553757565b60405162461bcd60e51b815260206004820152601a60248201527f4469737075746520686173206265656e207265747261637465640000000000006044820152606490fd5b90615586816150eb565b60ff80198354169116179055565b9060068110156128c95761ff0082549160081b169061ff001916179055565b6155cb90602060405192828480945193849201615083565b810103902090565b906040516155e081614f55565b608060ff6004839580548552604051615600816110ef816001860161515d565b602086015282600282015416615615816150eb565b6040860152600381015460608601520154161515910152565b91906040928351918482519160209485818187019561564e818389615083565b8101600b81520301902090600091818352865260ff8383205416156156dd576156af9383610a119388936156b59896518581895161568d81838a615083565b8101600c81520301902090825284522054938951938492839251928391615083565b506155d3565b9081015192810151916156c7836150eb565b6080606083015192015115159060019493929190565b509493505050508192516156f081614fa6565b8281529180918190565b1561570157565b60405162461bcd60e51b8152602060048201526011602482015270105b1c9958591e481c995d1c9858dd1959607a1b6044820152606490fd5b6001600160401b038111611de05760051b60200190565b9060405161575e81614f70565b606060ff60038395805485528260018201541615156020860152600281015460408601520154161515910152565b805182101561510d5760209160051b010190565b6000198114613a3e5760010190565b9081602091031261080a5751801515810361080a5790565b156157ce57565b60405162461bcd60e51b81526020600482015260146024820152732737ba1030b71030b1ba34bb329036b2b6b132b960611b6044820152606490fd5b906158226020919493946040845260408401906150c6565b6001600160a01b03909416910152565b1561583957565b60405162461bcd60e51b815260206004820152601860248201527f4e6f2061636365737320746f2074686973207265636f726400000000000000006044820152606490fd5b1561588557565b60405162461bcd60e51b815260206004820152600a60248201526927b7363c9030b236b4b760b11b6044820152606490fd5b8181106158c2575050565b600081556001016158b7565b91909182516001600160401b038111611de0576158eb8254615123565b601f8111615996575b50602080601f8311600114615931575081929394600092615926575b50508160011b916000199060031b1c1916179055565b015190503880615910565b90601f19831695846000526020600020926000905b88821061597e57505083600195969710615965575b505050811b019055565b015160001960f88460031b161c1916905538808061595b565b80600185968294968601518155019501930190615946565b6159c390836000526020600020601f840160051c810191602085106159c9575b601f0160051c01906158b7565b386158f4565b90915081906159b6565b9060058110156128c95760ff80198354169116179055565b156159f257565b60405162461bcd60e51b8152602060048201526013602482015272119b1859c8191bd95cc81b9bdd08195e1a5cdd606a1b6044820152606490fd5b15615a3457565b60405162461bcd60e51b815260206004820152601960248201527f5265636f72642049442063616e6e6f7420626520656d707479000000000000006044820152606490fd5b15615a8057565b60405162461bcd60e51b815260206004820152601b60248201527f5265636f726420686173682063616e6e6f7420626520656d70747900000000006044820152606490fd5b15615acc57565b60405162461bcd60e51b81526020600482015260116024820152704c6576656c206d75737420626520312d3360781b6044820152606490fd5b8054600160401b811015611de057615b22916001820181556150f5565b91909161520b57615b32916158ce565b565b60068210156128c95752565b90604051615b4d81614f8b565b60c060ff6005839580548552604051615b6d816110ef816001860161515d565b6020860152615b99836002830154818116615b87816150eb565b604089015260081c1660608701615b34565b604051615bad816110ef816003860161515d565b6080860152600481015460a08601520154161515910152565b90604051615bd381614f3a565b8092604051615be6816110ef818561515d565b8252604051615bfc816110ef816001860161515d565b60208301526002810154604083015260ff6003820154169060058210156128c957600560ff9160a0936060860152600481015460808601520154161515910152565b15615c4557565b60405162461bcd60e51b815260206004820152600f60248201526e496e76616c6964206164647265737360881b6044820152606490fd5b906040928351928051602094858181850193615c99818387615083565b8101600e81520301902093600094818652865260ff878620541615615d545791612ef086615cfa93615d00958a5183818751615cd6818388615083565b8101600f815203019020908952825289882054938a51938492839251928391615083565b50615b40565b928301519383015192615d12846150eb565b6060810151926006841015615d40575060808101519160c060a0830151920151151590600196959493929190565b634e487b7160e01b81526021600452602490fd5b505050915080928051615d6681614fa6565b8281529282809251615d7781614fa6565b818152918190565b929091926040938451938251602095868181870193615d9f818387615083565b81016011815203019020926000938385528752878420818552875260ff888520541615615e4857615e3093615e2a93615e1589606098958c95865183818a51615de9818388615083565b810160128152030190208587528352868620908652825285852054968651938492839251928391615083565b8101601081520301902090825288522061525d565b50615751565b92830151151593830151920151151590600193929190565b50505093505090508180918190565b90615e7e5750805115615e6c57805190602001fd5b604051630a12f52160e11b8152600490fd5b81511580615eb1575b615e8f575090565b604051639996b31560e01b81526001600160a01b039091166004820152602490fd5b50803b15615e8756fea26469706673582212204efd033c2912849a08daee11db16c39564eda5b11182af0f5396330f8be0ac4264736f6c63430008170033","opcodes":"PUSH1 0xA0 DUP1 PUSH1 0x40 MSTORE CALLVALUE PUSH3 0xD1 JUMPI ADDRESS PUSH1 0x80 MSTORE PUSH32 0xF0C57E16840DF040F15088DC2F81FE391C3923BEC73E23A9662EFC9C229C6A00 SWAP1 DUP2 SLOAD SWAP1 PUSH1 0xFF DUP3 PUSH1 0x40 SHR AND PUSH3 0xC2 JUMPI POP PUSH1 0x1 PUSH1 0x1 PUSH1 0x40 SHL SUB PUSH1 0x2 PUSH1 0x1 PUSH1 0x40 SHL SUB NOT DUP3 DUP3 AND ADD PUSH3 0x7C JUMPI JUMPDEST PUSH1 0x40 MLOAD PUSH2 0x5EF0 SWAP1 DUP2 PUSH3 0xD7 DUP3 CODECOPY PUSH1 0x80 MLOAD DUP2 DUP2 DUP2 PUSH2 0x32D7 ADD MSTORE PUSH2 0x3767 ADD MSTORE RETURN JUMPDEST PUSH1 0x1 PUSH1 0x1 PUSH1 0x40 SHL SUB NOT SWAP1 SWAP2 AND DUP2 OR SWAP1 SWAP2 SSTORE PUSH1 0x40 MLOAD SWAP1 DUP2 MSTORE PUSH32 0xC7F505B2F371AE2175EE4913F4499E1F2633A7B5936321EED1CDAEB6115181D2 SWAP1 PUSH1 0x20 SWAP1 LOG1 CODESIZE DUP1 DUP1 PUSH3 0x5C JUMP JUMPDEST PUSH4 0xF92EE8A9 PUSH1 0xE0 SHL DUP2 MSTORE PUSH1 0x4 SWAP1 REVERT JUMPDEST PUSH1 0x0 DUP1 REVERT INVALID PUSH1 0x80 PUSH1 0x40 MSTORE PUSH1 0x4 CALLDATASIZE LT ISZERO PUSH2 0x12 JUMPI PUSH1 0x0 DUP1 REVERT JUMPDEST PUSH1 0xE0 PUSH1 0x0 CALLDATALOAD DUP2 SHR SWAP1 DUP2 PUSH3 0x3297E4 EQ PUSH2 0x4F01 JUMPI DUP2 PUSH4 0x1B4147D EQ PUSH2 0x1717 JUMPI DUP2 PUSH4 0x5F59439 EQ PUSH2 0x3CD2 JUMPI DUP2 PUSH4 0xA36148B EQ PUSH2 0x4F01 JUMPI DUP2 PUSH4 0xFBAB50A EQ PUSH2 0x2686 JUMPI DUP2 PUSH4 0x10A0E88A EQ PUSH2 0x4C94 JUMPI DUP2 PUSH4 0x15370703 EQ PUSH2 0x4C6B JUMPI DUP2 PUSH4 0x19BFE5F2 EQ PUSH2 0x4C32 JUMPI DUP2 PUSH4 0x1A6B3D2A EQ PUSH2 0x4BF9 JUMPI DUP2 PUSH4 0x1AACDA88 EQ PUSH2 0x4A35 JUMPI DUP2 PUSH4 0x1B7CABB7 EQ PUSH2 0x4925 JUMPI DUP2 PUSH4 0x1CF8CBE8 EQ PUSH2 0x14FA JUMPI DUP2 PUSH4 0x1EC50C0E EQ PUSH2 0x48EE JUMPI DUP2 PUSH4 0x21D9CAAA EQ PUSH2 0x4825 JUMPI DUP2 PUSH4 0x223C3BB9 EQ PUSH2 0x47DC JUMPI DUP2 PUSH4 0x249DDA2E EQ PUSH2 0x14CE JUMPI DUP2 PUSH4 0x25DB354D EQ PUSH2 0x47A8 JUMPI DUP2 PUSH4 0x2A4E0476 EQ PUSH2 0x45F3 JUMPI DUP2 PUSH4 0x2E6DF698 EQ PUSH2 0x4544 JUMPI DUP2 PUSH4 0x2FA8DB04 EQ PUSH2 0x4410 JUMPI DUP2 PUSH4 0x315CA5BA EQ PUSH2 0x436F JUMPI DUP2 PUSH4 0x339A0AEC EQ PUSH2 0x4288 JUMPI DUP2 PUSH4 0x35C4C203 EQ PUSH2 0x4030 JUMPI DUP2 PUSH4 0x365348E9 EQ PUSH2 0x3FF2 JUMPI DUP2 PUSH4 0x3F132DC1 EQ PUSH2 0x3DB4 JUMPI DUP2 PUSH4 0x400F8D06 EQ PUSH2 0x3D20 JUMPI DUP2 PUSH4 0x411AB584 EQ PUSH2 0x3CD2 JUMPI DUP2 PUSH4 0x4294E2FF EQ PUSH2 0x3AD5 JUMPI DUP2 PUSH4 0x4B7C908A EQ PUSH2 0x394F JUMPI DUP2 PUSH4 0x4F1EF286 EQ PUSH2 0x3718 JUMPI DUP2 PUSH4 0x4F893ED6 EQ PUSH2 0x20E4 JUMPI DUP2 PUSH4 0x5203CBED EQ PUSH2 0x3341 JUMPI DUP2 PUSH4 0x52D1902D EQ PUSH2 0x32C4 JUMPI DUP2 PUSH4 0x533ACFFD EQ PUSH2 0x2E16 JUMPI DUP2 PUSH4 0x5A18672E EQ PUSH2 0x2BA5 JUMPI DUP2 PUSH4 0x5D12DA50 EQ PUSH2 0x2B71 JUMPI DUP2 PUSH4 0x5D28A342 EQ PUSH2 0x2B43 JUMPI DUP2 PUSH4 0x6018200D EQ PUSH2 0x2A4D JUMPI DUP2 PUSH4 0x629BE2B6 EQ PUSH2 0x28DF JUMPI DUP2 PUSH4 0x6EB7457F EQ PUSH2 0x284A JUMPI DUP2 PUSH4 0x7286B6F9 EQ PUSH2 0x273A JUMPI DUP2 PUSH4 0x75829DEF EQ PUSH2 0x26BF JUMPI DUP2 PUSH4 0x80027FF6 EQ PUSH2 0x2686 JUMPI DUP2 PUSH4 0x883080AF EQ PUSH2 0x221E JUMPI DUP2 PUSH4 0x8DA1D369 EQ PUSH2 0x2184 JUMPI DUP2 PUSH4 0x8E3CCBCF EQ PUSH2 0x2129 JUMPI DUP2 PUSH4 0x98909E22 EQ PUSH2 0x20E4 JUMPI DUP2 PUSH4 0xA5F2D1D1 EQ PUSH2 0x1E32 JUMPI DUP2 PUSH4 0xAC90C140 EQ PUSH2 0x1E14 JUMPI DUP2 PUSH4 0xAC924336 EQ PUSH2 0x1DF6 JUMPI DUP2 PUSH4 0xAD3CB1CC EQ PUSH2 0x1D88 JUMPI DUP2 PUSH4 0xADCEE102 EQ PUSH2 0x1D52 JUMPI DUP2 PUSH4 0xB0C7363C EQ PUSH2 0x1CFA JUMPI DUP2 PUSH4 0xB27BB4D5 EQ PUSH2 0x1CC4 JUMPI DUP2 PUSH4 0xB48AC4D2 EQ PUSH2 0x1A3E JUMPI DUP2 PUSH4 0xB5E6B7A2 EQ PUSH2 0x19EE JUMPI DUP2 PUSH4 0xC18CF8D2 EQ PUSH2 0x1966 JUMPI DUP2 PUSH4 0xC282F4AB EQ PUSH2 0x1926 JUMPI DUP2 PUSH4 0xC4D66DE8 EQ PUSH2 0x176E JUMPI DUP2 PUSH4 0xC5E4CCC4 EQ PUSH2 0x1750 JUMPI DUP2 PUSH4 0xC6BD1572 EQ PUSH2 0x1717 JUMPI DUP2 PUSH4 0xC7695BAB EQ PUSH2 0x168E JUMPI DUP2 PUSH4 0xCA1E910A EQ PUSH2 0x15A1 JUMPI POP DUP1 PUSH4 0xD08C800D EQ PUSH2 0x1518 JUMPI DUP1 PUSH4 0xD46E082F EQ PUSH2 0x14FA JUMPI DUP1 PUSH4 0xDBC7B842 EQ PUSH2 0x14CE JUMPI DUP1 PUSH4 0xDD0BC082 EQ PUSH2 0x1472 JUMPI DUP1 PUSH4 0xE08F1AC3 EQ PUSH2 0x13E5 JUMPI DUP1 PUSH4 0xE11C45B7 EQ PUSH2 0x1031 JUMPI DUP1 PUSH4 0xE2AAE6E0 EQ PUSH2 0xD9B JUMPI DUP1 PUSH4 0xF251F8E4 EQ PUSH2 0xC71 JUMPI DUP1 PUSH4 0xF3AC2BEA EQ PUSH2 0xBE0 JUMPI DUP1 PUSH4 0xF5E7F9F4 EQ PUSH2 0xAF7 JUMPI DUP1 PUSH4 0xF7C0D033 EQ PUSH2 0x8EB JUMPI DUP1 PUSH4 0xF851A440 EQ PUSH2 0x8C2 JUMPI DUP1 PUSH4 0xF9F70C4A EQ PUSH2 0x88B JUMPI PUSH4 0xFD328F58 EQ PUSH2 0x36D JUMPI PUSH1 0x0 DUP1 REVERT JUMPDEST CALLVALUE PUSH2 0x80A JUMPI PUSH1 0xA0 CALLDATASIZE PUSH1 0x3 NOT ADD SLT PUSH2 0x80A JUMPI PUSH1 0x1 PUSH1 0x1 PUSH1 0x40 SHL SUB PUSH1 0x4 CALLDATALOAD DUP2 DUP2 GT PUSH2 0x80A JUMPI PUSH2 0x39E SWAP1 CALLDATASIZE SWAP1 PUSH1 0x4 ADD PUSH2 0x5034 JUMP JUMPDEST SWAP1 PUSH1 0x24 SWAP2 DUP3 CALLDATALOAD DUP3 DUP2 GT PUSH2 0x80A JUMPI PUSH2 0x3B9 SWAP1 CALLDATASIZE SWAP1 PUSH1 0x4 ADD PUSH2 0x5034 JUMP JUMPDEST PUSH2 0x3C1 PUSH2 0x50B6 JUMP JUMPDEST SWAP1 PUSH1 0x64 CALLDATALOAD SWAP4 PUSH1 0xFF DUP6 AND DUP6 SUB PUSH2 0x80A JUMPI PUSH1 0x84 CALLDATALOAD SWAP1 DUP2 GT PUSH2 0x80A JUMPI PUSH2 0x3E8 SWAP1 CALLDATASIZE SWAP1 PUSH1 0x4 ADD PUSH2 0x5034 JUMP JUMPDEST PUSH1 0x0 SLOAD PUSH1 0x40 MLOAD PUSH4 0x45ECD02F PUSH1 0xE0 SHL DUP2 MSTORE CALLER PUSH1 0x4 DUP3 ADD MSTORE PUSH1 0x1 PUSH1 0x1 PUSH1 0xA0 SHL SUB SWAP1 SWAP2 AND SWAP1 PUSH1 0x20 DUP2 DUP10 DUP2 DUP6 GAS STATICCALL DUP1 ISZERO PUSH2 0x817 JUMPI PUSH2 0x42A SWAP2 PUSH1 0x0 SWAP2 PUSH2 0x86C JUMPI JUMPDEST POP PUSH2 0x57C7 JUMP JUMPDEST PUSH1 0x40 MLOAD PUSH4 0x286B6AB PUSH1 0xE3 SHL DUP2 MSTORE SWAP1 PUSH1 0x20 DUP3 DUP1 PUSH2 0x44A CALLER DUP11 PUSH1 0x4 DUP5 ADD PUSH2 0x580A JUMP JUMPDEST SUB DUP2 DUP5 GAS STATICCALL SWAP1 DUP2 ISZERO PUSH2 0x817 JUMPI PUSH2 0x46C PUSH1 0x20 SWAP3 DUP11 SWAP5 PUSH1 0x0 SWAP2 PUSH2 0x83F JUMPI JUMPDEST POP PUSH2 0x5832 JUMP JUMPDEST PUSH2 0x478 DUP8 MLOAD ISZERO ISZERO PUSH2 0x5A2D JUMP JUMPDEST PUSH2 0x484 DUP6 MLOAD ISZERO ISZERO PUSH2 0x5A79 JUMP JUMPDEST PUSH1 0x1 PUSH1 0xFF DUP8 AND LT ISZERO DUP1 PUSH2 0x831 JUMPI JUMPDEST PUSH2 0x49B SWAP1 PUSH2 0x545D JUMP JUMPDEST PUSH1 0x1 PUSH1 0xFF DUP10 AND LT ISZERO DUP1 PUSH2 0x823 JUMPI JUMPDEST PUSH2 0x4B2 SWAP1 PUSH2 0x54A0 JUMP JUMPDEST PUSH1 0x40 MLOAD PUSH3 0xB0C809 PUSH1 0xE0 SHL DUP2 MSTORE CALLER PUSH1 0x4 DUP3 ADD MSTORE SWAP9 DUP10 SWAP2 DUP3 SWAP1 GAS STATICCALL SWAP7 DUP8 ISZERO PUSH2 0x817 JUMPI PUSH1 0x0 SWAP8 PUSH2 0x7DE JUMPI JUMPDEST POP PUSH2 0x4E6 DUP8 ISZERO ISZERO PUSH2 0x54EC JUMP JUMPDEST PUSH1 0x40 MLOAD PUSH1 0x20 DUP2 DUP6 MLOAD PUSH2 0x4FB DUP2 DUP4 DUP6 DUP11 ADD PUSH2 0x5083 JUMP JUMPDEST DUP2 ADD PUSH1 0xE DUP2 MSTORE SUB ADD SWAP1 KECCAK256 DUP8 PUSH1 0x0 MSTORE PUSH1 0x20 MSTORE PUSH1 0xFF PUSH1 0x40 PUSH1 0x0 KECCAK256 SLOAD AND PUSH2 0x79A JUMPI PUSH1 0x40 MLOAD PUSH1 0x20 DUP2 DUP6 MLOAD PUSH2 0x52E DUP2 DUP4 DUP6 DUP11 ADD PUSH2 0x5083 JUMP JUMPDEST DUP2 ADD PUSH1 0xD DUP2 MSTORE SUB ADD SWAP1 KECCAK256 SLOAD SWAP2 PUSH1 0x40 MLOAD PUSH1 0x20 DUP2 DUP7 MLOAD PUSH2 0x54F DUP2 DUP4 DUP6 DUP12 ADD PUSH2 0x5083 JUMP JUMPDEST DUP2 ADD PUSH1 0xD DUP2 MSTORE SUB ADD SWAP1 KECCAK256 SWAP2 PUSH2 0x566 PUSH1 0xFF DUP8 AND PUSH2 0x50EB JUMP JUMPDEST PUSH1 0x6 PUSH1 0xFF DUP10 AND LT ISZERO PUSH2 0x75C JUMPI PUSH1 0x40 MLOAD SWAP2 PUSH2 0x57F DUP4 PUSH2 0x4F8B JUMP JUMPDEST DUP10 DUP4 MSTORE PUSH1 0x20 DUP4 ADD SWAP4 DUP9 DUP6 MSTORE PUSH1 0x40 DUP5 ADD SWAP1 PUSH2 0x59B PUSH1 0xFF DUP11 AND PUSH2 0x50EB JUMP JUMPDEST PUSH1 0xFF DUP10 AND DUP3 MSTORE PUSH1 0x60 DUP6 ADD SWAP3 PUSH2 0x5B3 PUSH1 0xFF DUP14 AND DUP6 PUSH2 0x5B34 JUMP JUMPDEST PUSH1 0x80 DUP7 ADD MSTORE TIMESTAMP PUSH1 0xA0 DUP7 ADD MSTORE PUSH1 0x1 PUSH1 0xC0 DUP7 ADD MSTORE DUP1 SLOAD SWAP1 PUSH1 0x1 PUSH1 0x40 SHL DUP3 LT ISZERO PUSH2 0x785 JUMPI SWAP1 PUSH2 0x5E4 SWAP2 PUSH1 0x1 DUP3 ADD DUP2 SSTORE PUSH2 0x5441 JUMP JUMPDEST SWAP6 SWAP1 SWAP6 PUSH2 0x770 JUMPI SWAP1 PUSH2 0x601 PUSH2 0x614 SWAP3 DUP7 MLOAD DUP9 SSTORE MLOAD PUSH1 0x1 DUP9 ADD PUSH2 0x58CE JUMP JUMPDEST MLOAD PUSH2 0x60B DUP2 PUSH2 0x50EB JUMP JUMPDEST PUSH1 0x2 DUP7 ADD PUSH2 0x557C JUMP JUMPDEST MLOAD SWAP1 PUSH1 0x6 DUP3 LT ISZERO PUSH2 0x75C JUMPI POP PUSH1 0x60 SWAP5 PUSH32 0x1E9FC3A602C7B16A7098C5BA783B4F9D40508E6AA83FC4A05853C485261F12BC SWAP7 SWAP5 PUSH2 0x697 DUP6 PUSH1 0x5 PUSH1 0xC0 PUSH2 0x731 SWAP8 PUSH2 0x665 PUSH2 0x72B SWAP9 PUSH1 0x2 PUSH2 0x753 SWAP13 ADD PUSH2 0x5594 JUMP JUMPDEST PUSH2 0x676 PUSH1 0x80 DUP3 ADD MLOAD PUSH1 0x3 DUP7 ADD PUSH2 0x58CE JUMP JUMPDEST PUSH1 0xA0 DUP2 ADD MLOAD PUSH1 0x4 DUP6 ADD SSTORE ADD MLOAD ISZERO ISZERO SWAP2 ADD SWAP1 PUSH1 0xFF DUP1 NOT DUP4 SLOAD AND SWAP2 ISZERO ISZERO AND OR SWAP1 SSTORE JUMP JUMPDEST PUSH1 0x40 MLOAD PUSH1 0x20 DUP2 DUP5 MLOAD PUSH2 0x6AC DUP2 DUP4 DUP6 DUP10 ADD PUSH2 0x5083 JUMP JUMPDEST DUP2 ADD PUSH1 0xE DUP2 MSTORE SUB ADD SWAP1 KECCAK256 DUP12 PUSH1 0x0 MSTORE PUSH1 0x20 MSTORE PUSH1 0x40 PUSH1 0x0 KECCAK256 PUSH1 0x1 PUSH1 0xFF NOT DUP3 SLOAD AND OR SWAP1 SSTORE PUSH1 0x40 MLOAD PUSH1 0x20 DUP2 DUP5 MLOAD PUSH2 0x6E2 DUP2 DUP4 DUP6 DUP10 ADD PUSH2 0x5083 JUMP JUMPDEST DUP2 ADD PUSH1 0xF DUP2 MSTORE SUB ADD SWAP1 KECCAK256 DUP12 PUSH1 0x0 MSTORE PUSH1 0x20 MSTORE PUSH1 0x40 PUSH1 0x0 KECCAK256 SSTORE PUSH1 0x16 PUSH1 0x20 MSTORE PUSH2 0x70C DUP2 PUSH1 0x40 PUSH1 0x0 KECCAK256 PUSH2 0x5B05 JUMP JUMPDEST PUSH2 0x717 PUSH1 0x18 SLOAD PUSH2 0x57A0 JUMP JUMPDEST PUSH1 0x18 SSTORE PUSH2 0x726 PUSH1 0xFF DUP7 AND PUSH2 0x50EB JUMP JUMPDEST PUSH2 0x55B3 JUMP JUMPDEST SWAP6 PUSH2 0x55B3 JUMP JUMPDEST SWAP6 PUSH1 0xFF PUSH1 0x40 MLOAD SWAP4 PUSH2 0x743 DUP3 DUP3 AND PUSH2 0x50EB JUMP JUMPDEST AND DUP4 MSTORE PUSH1 0xFF PUSH1 0x20 DUP5 ADD SWAP2 AND PUSH2 0x5366 JUMP JUMPDEST TIMESTAMP PUSH1 0x40 DUP3 ADD MSTORE LOG4 STOP JUMPDEST PUSH4 0x4E487B71 PUSH1 0xE0 SHL PUSH1 0x0 SWAP1 DUP2 MSTORE PUSH1 0x21 PUSH1 0x4 MSTORE REVERT JUMPDEST DUP4 PUSH4 0x4E487B71 PUSH1 0xE0 SHL PUSH1 0x0 MSTORE PUSH1 0x0 PUSH1 0x4 MSTORE PUSH1 0x0 REVERT JUMPDEST DUP5 PUSH4 0x4E487B71 PUSH1 0xE0 SHL PUSH1 0x0 MSTORE PUSH1 0x41 PUSH1 0x4 MSTORE PUSH1 0x0 REVERT JUMPDEST PUSH1 0x64 SWAP1 PUSH1 0x1A PUSH1 0x40 MLOAD SWAP2 PUSH3 0x461BCD PUSH1 0xE5 SHL DUP4 MSTORE PUSH1 0x20 PUSH1 0x4 DUP5 ADD MSTORE DUP3 ADD MSTORE PUSH32 0x416C726561647920646973707574656420746869732068617368000000000000 PUSH1 0x44 DUP3 ADD MSTORE REVERT JUMPDEST SWAP1 SWAP7 POP PUSH1 0x20 DUP2 RETURNDATASIZE PUSH1 0x20 GT PUSH2 0x80F JUMPI JUMPDEST DUP2 PUSH2 0x7FA PUSH1 0x20 SWAP4 DUP4 PUSH2 0x4FC1 JUMP JUMPDEST DUP2 ADD SUB SLT PUSH2 0x80A JUMPI MLOAD SWAP6 CODESIZE PUSH2 0x4DA JUMP JUMPDEST PUSH1 0x0 DUP1 REVERT JUMPDEST RETURNDATASIZE SWAP2 POP PUSH2 0x7ED JUMP JUMPDEST PUSH1 0x40 MLOAD RETURNDATASIZE PUSH1 0x0 DUP3 RETURNDATACOPY RETURNDATASIZE SWAP1 REVERT JUMPDEST POP PUSH1 0x5 PUSH1 0xFF DUP10 AND GT ISZERO PUSH2 0x4A9 JUMP JUMPDEST POP PUSH1 0x3 PUSH1 0xFF DUP8 AND GT ISZERO PUSH2 0x492 JUMP JUMPDEST PUSH2 0x85F SWAP2 POP DUP5 RETURNDATASIZE DUP7 GT PUSH2 0x865 JUMPI JUMPDEST PUSH2 0x857 DUP2 DUP4 PUSH2 0x4FC1 JUMP JUMPDEST DUP2 ADD SWAP1 PUSH2 0x57AF JUMP JUMPDEST CODESIZE PUSH2 0x466 JUMP JUMPDEST POP RETURNDATASIZE PUSH2 0x84D JUMP JUMPDEST PUSH2 0x885 SWAP2 POP PUSH1 0x20 RETURNDATASIZE PUSH1 0x20 GT PUSH2 0x865 JUMPI PUSH2 0x857 DUP2 DUP4 PUSH2 0x4FC1 JUMP JUMPDEST CODESIZE PUSH2 0x424 JUMP JUMPDEST CALLVALUE PUSH2 0x80A JUMPI PUSH1 0x80 PUSH2 0x8A4 PUSH2 0x89E CALLDATASIZE PUSH2 0x52F3 JUMP JUMPDEST SWAP2 PUSH2 0x5D7F JUMP JUMPDEST SWAP2 PUSH1 0x40 MLOAD SWAP4 ISZERO ISZERO DUP5 MSTORE ISZERO ISZERO PUSH1 0x20 DUP5 ADD MSTORE PUSH1 0x40 DUP4 ADD MSTORE ISZERO ISZERO PUSH1 0x60 DUP3 ADD MSTORE RETURN JUMPDEST CALLVALUE PUSH2 0x80A JUMPI PUSH1 0x0 CALLDATASIZE PUSH1 0x3 NOT ADD SLT PUSH2 0x80A JUMPI PUSH1 0x1 SLOAD PUSH1 0x40 MLOAD PUSH1 0x1 PUSH1 0x1 PUSH1 0xA0 SHL SUB SWAP1 SWAP2 AND DUP2 MSTORE PUSH1 0x20 SWAP1 RETURN JUMPDEST CALLVALUE PUSH2 0x80A JUMPI PUSH1 0x20 DUP1 PUSH1 0x3 NOT CALLDATASIZE ADD SLT PUSH2 0x80A JUMPI PUSH1 0x4 CALLDATALOAD SWAP1 PUSH1 0x1 PUSH1 0x1 PUSH1 0x40 SHL SUB DUP3 GT PUSH2 0x80A JUMPI PUSH2 0x91F PUSH1 0x24 SWAP3 CALLDATASIZE SWAP1 PUSH1 0x4 ADD PUSH2 0x5034 JUMP JUMPDEST PUSH1 0x0 SLOAD PUSH1 0x40 MLOAD PUSH3 0xB0C809 PUSH1 0xE0 SHL DUP2 MSTORE CALLER PUSH1 0x4 DUP3 ADD MSTORE SWAP4 DUP4 SWAP2 DUP6 SWAP2 SWAP1 DUP3 SWAP1 PUSH1 0x1 PUSH1 0x1 PUSH1 0xA0 SHL SUB AND GAS STATICCALL SWAP3 DUP4 ISZERO PUSH2 0x817 JUMPI PUSH1 0x0 SWAP4 PUSH2 0xAC8 JUMPI JUMPDEST POP PUSH2 0x962 DUP4 ISZERO ISZERO PUSH2 0x54EC JUMP JUMPDEST PUSH1 0x40 MLOAD DUP2 MLOAD SWAP1 DUP4 DUP2 DUP2 DUP6 ADD SWAP4 PUSH2 0x979 DUP2 DUP4 DUP8 PUSH2 0x5083 JUMP JUMPDEST DUP2 ADD PUSH1 0xB DUP2 MSTORE SUB ADD SWAP1 KECCAK256 DUP5 PUSH1 0x0 MSTORE DUP4 MSTORE PUSH1 0xFF PUSH1 0x40 PUSH1 0x0 KECCAK256 SLOAD AND ISZERO PUSH2 0xA83 JUMPI PUSH32 0x94748C1A380E215F3BA9DE3F49D5C0A47C8BFF6C16301F5F153E2429032722F0 SWAP2 PUSH2 0xA79 SWAP2 PUSH1 0x40 MLOAD DUP6 DUP2 DUP5 MLOAD PUSH2 0x9CF DUP2 DUP4 DUP8 PUSH2 0x5083 JUMP JUMPDEST DUP2 ADD PUSH1 0xC DUP2 MSTORE SUB ADD SWAP1 KECCAK256 DUP7 PUSH1 0x0 MSTORE DUP6 MSTORE PUSH2 0xA59 DUP6 PUSH1 0x4 PUSH2 0xA3B DUP5 PUSH2 0xA29 PUSH1 0xFF DUP5 PUSH2 0xA20 DUP11 PUSH2 0xA11 DUP10 PUSH1 0x40 PUSH1 0x0 KECCAK256 SLOAD SWAP8 DUP9 SWAP4 PUSH1 0x40 MLOAD SWAP4 DUP5 SWAP3 DUP4 SWAP3 MLOAD SWAP3 DUP4 SWAP2 PUSH2 0x5083 JUMP JUMPDEST DUP2 ADD PUSH1 0xA DUP2 MSTORE SUB ADD SWAP1 KECCAK256 PUSH2 0x5425 JUMP JUMPDEST POP ADD SLOAD AND PUSH2 0x56FA JUMP JUMPDEST PUSH1 0x40 MLOAD DUP5 DUP2 DUP10 MLOAD PUSH2 0xA11 DUP2 DUP4 DUP13 PUSH2 0x5083 JUMP JUMPDEST POP ADD SWAP3 PUSH1 0xFF NOT SWAP4 DUP5 DUP2 SLOAD AND SWAP1 SSTORE PUSH1 0x40 MLOAD DUP1 SWAP4 DUP2 SWAP3 DUP8 MLOAD SWAP3 DUP4 SWAP2 PUSH2 0x5083 JUMP JUMPDEST DUP2 ADD PUSH1 0xB DUP2 MSTORE SUB ADD SWAP1 KECCAK256 DUP7 PUSH1 0x0 MSTORE DUP6 MSTORE PUSH1 0x40 PUSH1 0x0 KECCAK256 SWAP1 DUP2 SLOAD AND SWAP1 SSTORE PUSH2 0x55B3 JUMP JUMPDEST SWAP2 PUSH1 0x40 MLOAD TIMESTAMP DUP2 MSTORE LOG3 STOP JUMPDEST PUSH1 0x40 MLOAD PUSH3 0x461BCD PUSH1 0xE5 SHL DUP2 MSTORE PUSH1 0x4 DUP2 ADD DUP5 SWAP1 MSTORE PUSH1 0x1A PUSH1 0x24 DUP3 ADD MSTORE PUSH32 0x4E6F20766572696669636174696F6E20746F2072657472616374000000000000 PUSH1 0x44 DUP3 ADD MSTORE PUSH1 0x64 SWAP1 REVERT JUMPDEST SWAP1 SWAP3 POP DUP2 DUP2 DUP2 RETURNDATASIZE DUP4 GT PUSH2 0xAF0 JUMPI JUMPDEST PUSH2 0xAE0 DUP2 DUP4 PUSH2 0x4FC1 JUMP JUMPDEST DUP2 ADD SUB SLT PUSH2 0x80A JUMPI MLOAD SWAP2 DUP4 PUSH2 0x956 JUMP JUMPDEST POP RETURNDATASIZE PUSH2 0xAD6 JUMP JUMPDEST CALLVALUE PUSH2 0x80A JUMPI PUSH2 0xB05 CALLDATASIZE PUSH2 0x5052 JUMP JUMPDEST PUSH1 0x40 MLOAD DUP3 DUP2 DUP1 SWAP5 MLOAD PUSH2 0xB1D DUP2 PUSH1 0x20 SWAP8 DUP9 DUP1 SWAP7 ADD PUSH2 0x5083 JUMP JUMPDEST DUP2 ADD PUSH1 0x10 DUP2 MSTORE SUB ADD SWAP1 KECCAK256 SWAP1 PUSH1 0x0 MSTORE DUP2 MSTORE PUSH1 0x40 PUSH1 0x0 KECCAK256 SWAP1 DUP2 SLOAD PUSH2 0xB3E DUP2 PUSH2 0x573A JUMP JUMPDEST SWAP1 PUSH2 0xB4C PUSH1 0x40 MLOAD SWAP3 DUP4 PUSH2 0x4FC1 JUMP JUMPDEST DUP1 DUP3 MSTORE DUP3 DUP3 ADD DUP1 SWAP5 PUSH1 0x0 MSTORE DUP4 PUSH1 0x0 KECCAK256 PUSH1 0x0 SWAP2 JUMPDEST DUP4 DUP4 LT PUSH2 0xBC3 JUMPI PUSH1 0x40 DUP1 MLOAD DUP8 DUP2 MSTORE DUP7 MLOAD DUP2 DUP10 ADD DUP2 SWAP1 MSTORE DUP10 SWAP3 DUP3 ADD SWAP1 DUP10 PUSH1 0x0 JUMPDEST DUP3 DUP2 LT PUSH2 0xB8B JUMPI DUP5 DUP5 SUB DUP6 RETURN JUMPDEST DUP6 MLOAD DUP1 MLOAD DUP6 MSTORE DUP1 DUP4 ADD MLOAD ISZERO ISZERO DUP6 DUP5 ADD MSTORE PUSH1 0x40 DUP1 DUP3 ADD MLOAD SWAP1 DUP7 ADD MSTORE PUSH1 0x60 SWAP1 DUP2 ADD MLOAD ISZERO ISZERO SWAP1 DUP6 ADD MSTORE SWAP5 DUP2 ADD SWAP5 PUSH1 0x80 SWAP1 SWAP4 ADD SWAP3 PUSH1 0x1 ADD PUSH2 0xB7E JUMP JUMPDEST PUSH1 0x4 DUP7 PUSH1 0x1 SWAP3 PUSH2 0xBD2 DUP6 PUSH2 0x5751 JUMP JUMPDEST DUP2 MSTORE ADD SWAP3 ADD SWAP3 ADD SWAP2 SWAP1 PUSH2 0xB5F JUMP JUMPDEST CALLVALUE PUSH2 0x80A JUMPI PUSH2 0xBEE CALLDATASIZE PUSH2 0x5052 JUMP JUMPDEST SWAP1 PUSH1 0x40 MLOAD SWAP2 DUP2 MLOAD SWAP3 PUSH1 0x20 SWAP4 DUP2 DUP6 DUP1 SWAP4 DUP2 DUP8 ADD SWAP4 PUSH2 0xC0C DUP2 DUP4 DUP8 PUSH2 0x5083 JUMP JUMPDEST DUP2 ADD PUSH1 0x3 DUP2 MSTORE SUB ADD SWAP1 KECCAK256 DUP4 PUSH1 0x0 MSTORE DUP3 MSTORE PUSH1 0xFF PUSH1 0x40 PUSH1 0x0 KECCAK256 SLOAD AND SWAP4 DUP5 PUSH2 0xC38 JUMPI JUMPDEST DUP3 DUP6 PUSH1 0x40 MLOAD SWAP1 ISZERO ISZERO DUP2 MSTORE RETURN JUMPDEST PUSH2 0xC4F SWAP4 SWAP5 POP PUSH1 0x40 MLOAD SWAP4 DUP5 SWAP3 DUP4 SWAP3 MLOAD SWAP3 DUP4 SWAP2 PUSH2 0x5083 JUMP JUMPDEST DUP2 ADD PUSH1 0x5 DUP2 MSTORE SUB ADD SWAP1 KECCAK256 SWAP1 PUSH1 0x0 MSTORE DUP2 MSTORE PUSH1 0xFF PUSH1 0x40 PUSH1 0x0 KECCAK256 SLOAD AND DUP3 DUP3 DUP2 DUP1 PUSH2 0xC2C JUMP JUMPDEST CALLVALUE PUSH2 0x80A JUMPI PUSH1 0x20 DUP1 PUSH1 0x3 NOT CALLDATASIZE ADD SLT PUSH2 0x80A JUMPI PUSH1 0x4 CALLDATALOAD PUSH1 0x0 MSTORE PUSH1 0x13 DUP2 MSTORE PUSH1 0x40 PUSH1 0x0 KECCAK256 SWAP1 DUP2 SLOAD SWAP2 PUSH2 0xC9F DUP4 PUSH2 0x573A JUMP JUMPDEST SWAP3 PUSH2 0xCAD PUSH1 0x40 MLOAD SWAP5 DUP6 PUSH2 0x4FC1 JUMP JUMPDEST DUP1 DUP5 MSTORE DUP3 DUP5 ADD DUP1 SWAP3 PUSH1 0x0 MSTORE DUP4 PUSH1 0x0 KECCAK256 PUSH1 0x0 SWAP2 JUMPDEST DUP4 DUP4 LT PUSH2 0xD78 JUMPI POP POP POP POP PUSH1 0x40 MLOAD SWAP2 DUP1 DUP4 ADD SWAP4 DUP2 DUP5 MSTORE MLOAD DUP1 SWAP5 MSTORE PUSH1 0x40 DUP4 ADD SWAP4 PUSH1 0x40 DUP2 PUSH1 0x5 SHL DUP6 ADD ADD SWAP3 SWAP2 PUSH1 0x0 SWAP6 JUMPDEST DUP3 DUP8 LT PUSH2 0xCFB JUMPI DUP6 DUP6 SUB DUP7 RETURN JUMPDEST SWAP1 SWAP2 SWAP3 SWAP4 DUP3 DUP1 PUSH1 0x1 SWAP3 PUSH1 0x3F NOT DUP10 DUP3 SUB ADD DUP6 MSTORE DUP8 MLOAD SWAP1 PUSH2 0xD36 PUSH2 0xD26 PUSH1 0xC0 DUP5 MLOAD SWAP1 DUP1 DUP6 MSTORE DUP5 ADD SWAP1 PUSH2 0x50C6 JUMP JUMPDEST DUP5 DUP5 ADD MLOAD DUP4 DUP3 SUB DUP7 DUP6 ADD MSTORE PUSH2 0x50C6 JUMP JUMPDEST SWAP2 PUSH1 0x40 DUP2 ADD MLOAD PUSH1 0x40 DUP4 ADD MSTORE PUSH2 0xD53 PUSH1 0x60 DUP1 DUP4 ADD MLOAD SWAP1 DUP5 ADD SWAP1 PUSH2 0x5389 JUMP JUMPDEST PUSH1 0x80 DUP1 DUP3 ADD MLOAD SWAP1 DUP4 ADD MSTORE PUSH1 0xA0 DUP1 SWAP2 ADD MLOAD ISZERO ISZERO SWAP2 ADD MSTORE SWAP7 ADD SWAP3 ADD SWAP7 ADD SWAP6 SWAP3 SWAP2 SWAP1 SWAP3 PUSH2 0xCEE JUMP JUMPDEST PUSH1 0x6 DUP7 PUSH1 0x1 SWAP3 PUSH2 0xD8A DUP6 SWAP11 SWAP10 SWAP11 PUSH2 0x5BC6 JUMP JUMPDEST DUP2 MSTORE ADD SWAP3 ADD SWAP3 ADD SWAP2 SWAP1 SWAP6 SWAP5 SWAP6 PUSH2 0xCC0 JUMP JUMPDEST CALLVALUE PUSH2 0x80A JUMPI PUSH2 0xDA9 CALLDATASIZE PUSH2 0x53E2 JUMP JUMPDEST PUSH1 0x0 SLOAD PUSH1 0x40 MLOAD PUSH4 0x45ECD02F PUSH1 0xE0 SHL DUP2 MSTORE CALLER PUSH1 0x4 DUP3 ADD MSTORE PUSH1 0x20 SWAP4 SWAP2 PUSH1 0x1 PUSH1 0x1 PUSH1 0xA0 SHL SUB AND SWAP1 DUP5 DUP2 PUSH1 0x24 DUP2 DUP6 GAS STATICCALL DUP1 ISZERO PUSH2 0x817 JUMPI PUSH2 0xDEC SWAP2 PUSH1 0x0 SWAP2 PUSH2 0x1014 JUMPI POP PUSH2 0x57C7 JUMP JUMPDEST PUSH1 0x40 MLOAD PUSH4 0x286B6AB PUSH1 0xE3 SHL DUP2 MSTORE DUP5 DUP2 DUP1 PUSH2 0xE0A CALLER DUP8 PUSH1 0x4 DUP5 ADD PUSH2 0x580A JUMP JUMPDEST SUB DUP2 DUP6 GAS STATICCALL DUP1 ISZERO PUSH2 0x817 JUMPI PUSH2 0xE26 SWAP2 PUSH1 0x0 SWAP2 PUSH2 0xFF7 JUMPI POP PUSH2 0x5832 JUMP JUMPDEST PUSH1 0x40 MLOAD SWAP1 PUSH2 0xE51 DUP5 MLOAD SWAP3 DUP7 DUP2 DUP2 DUP9 ADD SWAP6 PUSH2 0xE41 DUP2 DUP4 DUP10 PUSH2 0x5083 JUMP JUMPDEST DUP2 ADD PUSH1 0x6 DUP2 MSTORE SUB ADD SWAP1 KECCAK256 SLOAD PUSH2 0x5123 JUMP JUMPDEST PUSH2 0xFB2 JUMPI DUP4 MLOAD ISZERO PUSH2 0xF76 JUMPI DUP5 PUSH1 0x24 SWAP2 PUSH1 0x40 MLOAD SWAP3 DUP4 DUP1 SWAP3 PUSH3 0xB0C809 PUSH1 0xE0 SHL DUP3 MSTORE CALLER PUSH1 0x4 DUP4 ADD MSTORE GAS STATICCALL SWAP2 DUP3 ISZERO PUSH2 0x817 JUMPI DUP6 SWAP2 PUSH1 0x0 SWAP4 PUSH2 0xF43 JUMPI JUMPDEST POP PUSH2 0xF2F DUP5 PUSH2 0xF15 DUP5 PUSH2 0xF35 SWAP5 PUSH2 0xEDF PUSH32 0x60D9FFF893391026DAADE2734B45ECB2FB8AE1F0187EA2B39018EE8BDC94390A SWAP10 DUP12 PUSH1 0x40 SWAP11 SWAP10 DUP12 MLOAD DUP1 SWAP3 MLOAD PUSH2 0xED0 DUP2 DUP4 DUP10 PUSH2 0x5083 JUMP JUMPDEST DUP2 ADD PUSH1 0x6 DUP2 MSTORE SUB ADD SWAP1 KECCAK256 PUSH2 0x58CE JUMP JUMPDEST PUSH2 0xF05 DUP11 DUP10 MLOAD DUP5 DUP2 DUP9 MLOAD PUSH2 0xEF6 DUP2 DUP4 DUP6 DUP14 ADD PUSH2 0x5083 JUMP JUMPDEST DUP2 ADD PUSH1 0x7 DUP2 MSTORE SUB ADD SWAP1 KECCAK256 PUSH2 0x5B05 JUMP JUMPDEST DUP8 MLOAD DUP1 SWAP4 DUP2 SWAP3 DUP13 MLOAD SWAP3 DUP4 SWAP2 PUSH2 0x5083 JUMP JUMPDEST DUP2 ADD PUSH1 0x8 DUP2 MSTORE SUB ADD SWAP1 KECCAK256 PUSH1 0x1 PUSH1 0xFF NOT DUP3 SLOAD AND OR SWAP1 SSTORE PUSH2 0x55B3 JUMP JUMPDEST SWAP5 PUSH2 0x55B3 JUMP JUMPDEST SWAP5 DUP3 MLOAD SWAP2 DUP3 MSTORE TIMESTAMP SWAP1 DUP3 ADD MSTORE LOG3 STOP JUMPDEST SWAP3 POP SWAP1 DUP3 DUP2 RETURNDATASIZE DUP2 GT PUSH2 0xF6F JUMPI JUMPDEST PUSH2 0xF5A DUP2 DUP4 PUSH2 0x4FC1 JUMP JUMPDEST DUP2 ADD SUB SLT PUSH2 0x80A JUMPI SWAP1 MLOAD SWAP1 DUP5 SWAP1 PUSH2 0xF2F PUSH2 0xE89 JUMP JUMPDEST POP RETURNDATASIZE PUSH2 0xF50 JUMP JUMPDEST PUSH1 0x40 MLOAD PUSH3 0x461BCD PUSH1 0xE5 SHL DUP2 MSTORE PUSH1 0x4 DUP2 ADD DUP7 SWAP1 MSTORE PUSH1 0x14 PUSH1 0x24 DUP3 ADD MSTORE PUSH20 0x486173682063616E6E6F7420626520656D707479 PUSH1 0x60 SHL PUSH1 0x44 DUP3 ADD MSTORE PUSH1 0x64 SWAP1 REVERT JUMPDEST PUSH1 0x40 MLOAD PUSH3 0x461BCD PUSH1 0xE5 SHL DUP2 MSTORE PUSH1 0x4 DUP2 ADD DUP7 SWAP1 MSTORE PUSH1 0x1E PUSH1 0x24 DUP3 ADD MSTORE PUSH32 0x4861736820616C726561647920626F756E6420746F2061207265636F72640000 PUSH1 0x44 DUP3 ADD MSTORE PUSH1 0x64 SWAP1 REVERT JUMPDEST PUSH2 0x100E SWAP2 POP DUP7 RETURNDATASIZE DUP9 GT PUSH2 0x865 JUMPI PUSH2 0x857 DUP2 DUP4 PUSH2 0x4FC1 JUMP JUMPDEST DUP7 PUSH2 0x466 JUMP JUMPDEST PUSH2 0x102B SWAP2 POP DUP7 RETURNDATASIZE DUP9 GT PUSH2 0x865 JUMPI PUSH2 0x857 DUP2 DUP4 PUSH2 0x4FC1 JUMP JUMPDEST DUP7 PUSH2 0x424 JUMP JUMPDEST CALLVALUE PUSH2 0x80A JUMPI PUSH2 0x103F CALLDATASIZE PUSH2 0x53E2 JUMP JUMPDEST PUSH1 0x0 SLOAD PUSH1 0x40 MLOAD PUSH4 0x45ECD02F PUSH1 0xE0 SHL DUP2 MSTORE CALLER PUSH1 0x4 DUP3 ADD MSTORE PUSH1 0x20 SWAP4 SWAP2 PUSH1 0x1 PUSH1 0x1 PUSH1 0xA0 SHL SUB AND SWAP1 DUP5 DUP2 PUSH1 0x24 DUP2 DUP6 GAS STATICCALL DUP1 ISZERO PUSH2 0x817 JUMPI PUSH2 0x1082 SWAP2 PUSH1 0x0 SWAP2 PUSH2 0x1014 JUMPI POP PUSH2 0x57C7 JUMP JUMPDEST DUP4 PUSH1 0x40 MLOAD DUP1 SWAP3 PUSH4 0xA0CA13C3 PUSH1 0xE0 SHL DUP3 MSTORE DUP2 DUP1 PUSH2 0x10A2 CALLER DUP9 PUSH1 0x4 DUP5 ADD PUSH2 0x580A JUMP JUMPDEST SUB SWAP2 GAS STATICCALL SWAP1 DUP2 ISZERO PUSH2 0x817 JUMPI PUSH1 0x0 SWAP2 PUSH2 0x13C8 JUMPI JUMPDEST POP ISZERO PUSH2 0x138D JUMPI PUSH1 0x40 MLOAD SWAP2 PUSH2 0x10EF PUSH2 0x10F6 DUP3 MLOAD SWAP5 DUP7 DUP2 DUP2 DUP7 ADD SWAP8 PUSH2 0x10D9 DUP2 DUP4 DUP12 PUSH2 0x5083 JUMP JUMPDEST DUP2 ADD PUSH1 0x6 DUP2 MSTORE SUB ADD SWAP1 KECCAK256 PUSH1 0x40 MLOAD SWAP3 DUP4 DUP1 SWAP3 PUSH2 0x515D JUMP JUMPDEST SUB DUP3 PUSH2 0x4FC1 JUMP JUMPDEST DUP5 DUP2 MLOAD SWAP2 ADD KECCAK256 SWAP2 DUP1 MLOAD SWAP3 DUP6 DUP3 ADD SWAP4 DUP5 KECCAK256 SUB PUSH2 0x1351 JUMPI PUSH1 0x40 MLOAD SWAP1 DUP3 MLOAD PUSH2 0x111C DUP2 DUP5 DUP9 PUSH2 0x5083 JUMP JUMPDEST DUP3 ADD SWAP3 PUSH2 0x113A PUSH1 0xFF PUSH1 0x8 SWAP5 PUSH1 0x8 DUP8 MSTORE DUP10 DUP2 DUP4 SWAP9 SUB ADD SWAP1 KECCAK256 SLOAD AND PUSH2 0x56FA JUMP JUMPDEST PUSH2 0x1152 DUP8 PUSH1 0x0 SWAP7 PUSH1 0x40 MLOAD DUP1 SWAP4 DUP2 SWAP3 DUP8 MLOAD SWAP3 DUP4 SWAP2 PUSH2 0x5083 JUMP JUMPDEST DUP2 ADD PUSH1 0x7 DUP2 MSTORE SUB ADD SWAP1 KECCAK256 SWAP2 DUP3 SLOAD PUSH2 0x1168 DUP2 PUSH2 0x573A JUMP JUMPDEST SWAP4 PUSH2 0x1176 PUSH1 0x40 MLOAD SWAP6 DUP7 PUSH2 0x4FC1 JUMP JUMPDEST DUP2 DUP6 MSTORE PUSH1 0x0 SWAP1 DUP2 MSTORE DUP10 DUP2 KECCAK256 DUP11 DUP1 DUP8 ADD JUMPDEST DUP5 DUP5 LT PUSH2 0x132B JUMPI POP POP POP POP POP PUSH1 0x0 JUMPDEST DUP4 MLOAD DUP2 LT ISZERO PUSH2 0x11ED JUMPI DUP6 PUSH2 0x11C1 DUP11 PUSH2 0x11AD DUP5 DUP9 PUSH2 0x578C JUMP JUMPDEST MLOAD DUP2 PUSH1 0x40 MLOAD SWAP4 DUP3 DUP6 DUP1 SWAP5 MLOAD SWAP4 DUP5 SWAP3 ADD PUSH2 0x5083 JUMP JUMPDEST DUP2 ADD DUP10 DUP2 MSTORE SUB ADD SWAP1 KECCAK256 SLOAD AND PUSH2 0x11D9 JUMPI JUMPDEST PUSH1 0x1 ADD PUSH2 0x1195 JUMP JUMPDEST SWAP6 PUSH2 0x11E5 PUSH1 0x1 SWAP2 PUSH2 0x57A0 JUMP JUMPDEST SWAP7 SWAP1 POP PUSH2 0x11D1 JUMP JUMPDEST DUP9 DUP4 DUP4 DUP11 PUSH1 0x1 DUP12 GT ISZERO PUSH2 0x12CB JUMPI PUSH2 0x127E PUSH32 0x10883978DC4137BE2C21CF3C3827329D1303377374A52FE00A7B5A98C25D883C SWAP3 PUSH2 0x125C DUP7 PUSH2 0x1284 SWAP5 PUSH1 0x40 MLOAD DUP3 DUP2 DUP11 MLOAD PUSH2 0x1239 DUP2 DUP4 DUP8 PUSH2 0x5083 JUMP JUMPDEST DUP2 ADD PUSH1 0x8 DUP2 MSTORE SUB ADD SWAP1 KECCAK256 PUSH1 0xFF NOT DUP2 SLOAD AND SWAP1 SSTORE PUSH1 0x40 MLOAD DUP1 SWAP4 DUP2 SWAP3 DUP11 MLOAD SWAP3 DUP4 SWAP2 PUSH2 0x5083 JUMP JUMPDEST DUP2 ADD PUSH1 0x6 DUP2 MSTORE SUB ADD SWAP1 KECCAK256 PUSH2 0x1270 DUP2 SLOAD PUSH2 0x5123 JUMP JUMPDEST SWAP1 DUP2 PUSH2 0x128E JUMPI JUMPDEST POP POP PUSH2 0x55B3 JUMP JUMPDEST SWAP3 PUSH2 0x55B3 JUMP JUMPDEST SWAP3 PUSH1 0x40 MLOAD TIMESTAMP DUP2 MSTORE LOG3 STOP JUMPDEST DUP2 PUSH1 0x1F PUSH1 0x0 SWAP4 GT PUSH1 0x1 EQ PUSH2 0x12A6 JUMPI POP SSTORE JUMPDEST DUP7 DUP1 PUSH2 0x1277 JUMP JUMPDEST SWAP1 DUP1 DUP4 SWAP2 DUP3 MSTORE PUSH2 0x12C4 PUSH1 0x1F DUP12 DUP5 KECCAK256 SWAP5 ADD PUSH1 0x5 SHR DUP5 ADD PUSH1 0x1 DUP6 ADD PUSH2 0x58B7 JUMP JUMPDEST SSTORE SSTORE PUSH2 0x129F JUMP JUMPDEST PUSH1 0x40 MLOAD PUSH3 0x461BCD PUSH1 0xE5 SHL DUP2 MSTORE PUSH1 0x4 DUP2 ADD DUP6 SWAP1 MSTORE PUSH1 0x32 PUSH1 0x24 DUP3 ADD MSTORE PUSH32 0x43616E6E6F74207265747261637420746865206C617374206163746976652076 PUSH1 0x44 DUP3 ADD MSTORE PUSH18 0x195C9CDA5BDB881BD98818481C9958DBDC99 PUSH1 0x72 SHL PUSH1 0x64 DUP3 ADD MSTORE PUSH1 0x84 SWAP1 REVERT JUMPDEST PUSH1 0x1 SWAP2 DUP3 SWAP2 PUSH1 0x40 MLOAD PUSH2 0x1341 DUP2 PUSH2 0x10EF DUP2 DUP10 PUSH2 0x515D JUMP JUMPDEST DUP2 MSTORE ADD SWAP3 ADD SWAP3 ADD SWAP2 SWAP1 DUP12 SWAP1 PUSH2 0x1186 JUMP JUMPDEST PUSH1 0x40 MLOAD PUSH3 0x461BCD PUSH1 0xE5 SHL DUP2 MSTORE PUSH1 0x4 DUP2 ADD DUP7 SWAP1 MSTORE PUSH1 0x14 PUSH1 0x24 DUP3 ADD MSTORE PUSH20 0x90C2E6D05AA4CAC6DEE4C840DAD2E6DAC2E8C6D PUSH1 0x63 SHL PUSH1 0x44 DUP3 ADD MSTORE PUSH1 0x64 SWAP1 REVERT JUMPDEST PUSH1 0x40 MLOAD PUSH3 0x461BCD PUSH1 0xE5 SHL DUP2 MSTORE PUSH1 0x4 DUP2 ADD DUP5 SWAP1 MSTORE PUSH1 0x13 PUSH1 0x24 DUP3 ADD MSTORE PUSH19 0x27B7363C9037BBB732B91037B91030B236B4B7 PUSH1 0x69 SHL PUSH1 0x44 DUP3 ADD MSTORE PUSH1 0x64 SWAP1 REVERT JUMPDEST PUSH2 0x13DF SWAP2 POP DUP5 RETURNDATASIZE DUP7 GT PUSH2 0x865 JUMPI PUSH2 0x857 DUP2 DUP4 PUSH2 0x4FC1 JUMP JUMPDEST DUP5 PUSH2 0x10B5 JUMP JUMPDEST CALLVALUE PUSH2 0x80A JUMPI PUSH1 0x20 DUP1 PUSH1 0x3 NOT CALLDATASIZE ADD SLT PUSH2 0x80A JUMPI PUSH1 0x4 CALLDATALOAD PUSH1 0x0 MSTORE PUSH1 0x15 PUSH1 0x20 MSTORE PUSH1 0x40 PUSH1 0x0 KECCAK256 DUP1 SLOAD PUSH2 0x1412 DUP2 PUSH2 0x573A JUMP JUMPDEST SWAP2 PUSH2 0x1420 PUSH1 0x40 MLOAD SWAP4 DUP5 PUSH2 0x4FC1 JUMP JUMPDEST DUP2 DUP4 MSTORE PUSH1 0x20 DUP4 ADD SWAP1 PUSH1 0x0 MSTORE PUSH1 0x20 PUSH1 0x0 KECCAK256 SWAP4 PUSH1 0x0 SWAP2 JUMPDEST DUP4 DUP4 LT PUSH2 0x144E JUMPI PUSH1 0x40 MLOAD DUP1 PUSH2 0x144A DUP8 DUP3 PUSH2 0x5279 JUMP JUMPDEST SUB SWAP1 RETURN JUMPDEST PUSH1 0x1 DUP3 DUP2 SWAP3 PUSH1 0x40 MLOAD PUSH2 0x1464 DUP2 PUSH2 0x10EF DUP2 DUP14 PUSH2 0x515D JUMP JUMPDEST DUP2 MSTORE ADD SWAP7 ADD SWAP3 ADD SWAP2 SWAP5 PUSH2 0x1435 JUMP JUMPDEST CALLVALUE PUSH2 0x80A JUMPI PUSH1 0x20 CALLDATASIZE PUSH1 0x3 NOT ADD SLT PUSH2 0x80A JUMPI PUSH2 0x148B PUSH2 0x52DD JUMP JUMPDEST PUSH1 0x1 SLOAD PUSH1 0x1 PUSH1 0x1 PUSH1 0xA0 SHL SUB SWAP2 SWAP1 PUSH2 0x14A5 SWAP1 DUP4 AND CALLER EQ PUSH2 0x587E JUMP JUMPDEST AND PUSH2 0x14B1 DUP2 ISZERO ISZERO PUSH2 0x5C3E JUMP JUMPDEST PUSH12 0xFFFFFFFFFFFFFFFFFFFFFFFF PUSH1 0xA0 SHL PUSH1 0x0 SLOAD AND OR PUSH1 0x0 SSTORE PUSH1 0x0 DUP1 RETURN JUMPDEST CALLVALUE PUSH2 0x80A JUMPI PUSH1 0x20 CALLDATASIZE PUSH1 0x3 NOT ADD SLT PUSH2 0x80A JUMPI PUSH1 0x4 CALLDATALOAD PUSH1 0x0 MSTORE PUSH1 0x14 PUSH1 0x20 MSTORE PUSH1 0x20 PUSH1 0x40 PUSH1 0x0 KECCAK256 SLOAD PUSH1 0x40 MLOAD SWAP1 DUP2 MSTORE RETURN JUMPDEST CALLVALUE PUSH2 0x80A JUMPI PUSH1 0x0 CALLDATASIZE PUSH1 0x3 NOT ADD SLT PUSH2 0x80A JUMPI PUSH1 0x20 PUSH1 0x9 SLOAD PUSH1 0x40 MLOAD SWAP1 DUP2 MSTORE RETURN JUMPDEST CALLVALUE PUSH2 0x80A JUMPI PUSH1 0x20 DUP1 PUSH1 0x3 NOT CALLDATASIZE ADD SLT PUSH2 0x80A JUMPI PUSH1 0x4 CALLDATALOAD PUSH1 0x0 MSTORE PUSH1 0x16 PUSH1 0x20 MSTORE PUSH1 0x40 PUSH1 0x0 KECCAK256 DUP1 SLOAD PUSH2 0x1545 DUP2 PUSH2 0x573A JUMP JUMPDEST SWAP2 PUSH2 0x1553 PUSH1 0x40 MLOAD SWAP4 DUP5 PUSH2 0x4FC1 JUMP JUMPDEST DUP2 DUP4 MSTORE PUSH1 0x20 DUP4 ADD SWAP1 PUSH1 0x0 MSTORE PUSH1 0x20 PUSH1 0x0 KECCAK256 SWAP4 PUSH1 0x0 SWAP2 JUMPDEST DUP4 DUP4 LT PUSH2 0x157D JUMPI PUSH1 0x40 MLOAD DUP1 PUSH2 0x144A DUP8 DUP3 PUSH2 0x5279 JUMP JUMPDEST PUSH1 0x1 DUP3 DUP2 SWAP3 PUSH1 0x40 MLOAD PUSH2 0x1593 DUP2 PUSH2 0x10EF DUP2 DUP14 PUSH2 0x515D JUMP JUMPDEST DUP2 MSTORE ADD SWAP7 ADD SWAP3 ADD SWAP2 SWAP5 PUSH2 0x1568 JUMP JUMPDEST CALLVALUE PUSH2 0x80A JUMPI PUSH1 0x20 PUSH2 0x15C9 PUSH2 0x15B4 CALLDATASIZE PUSH2 0x5052 JUMP JUMPDEST SWAP3 SWAP1 DUP2 PUSH1 0x40 MLOAD SWAP4 DUP3 DUP6 DUP1 SWAP5 MLOAD SWAP4 DUP5 SWAP3 ADD PUSH2 0x5083 JUMP JUMPDEST DUP2 ADD PUSH1 0xD DUP2 MSTORE SUB ADD SWAP1 KECCAK256 SWAP1 DUP2 SLOAD DUP2 LT ISZERO PUSH2 0x80A JUMPI PUSH2 0x15E6 SWAP2 PUSH2 0x5441 JUMP JUMPDEST POP DUP1 SLOAD SWAP1 PUSH1 0x40 MLOAD PUSH2 0x15FE DUP2 PUSH2 0x10EF DUP2 PUSH1 0x1 DUP7 ADD PUSH2 0x515D JUMP JUMPDEST PUSH2 0x167D PUSH1 0x2 DUP4 ADD SLOAD PUSH1 0xFF DUP2 AND SWAP1 PUSH2 0x1670 PUSH1 0x40 MLOAD SWAP2 PUSH2 0x162A DUP4 PUSH2 0x1623 DUP2 PUSH1 0x3 DUP12 ADD PUSH2 0x515D JUMP JUMPDEST SUB DUP5 PUSH2 0x4FC1 JUMP JUMPDEST PUSH2 0x1651 PUSH1 0xFF PUSH1 0x5 PUSH1 0x4 DUP11 ADD SLOAD SWAP10 ADD SLOAD AND SWAP7 PUSH1 0x40 MLOAD SWAP11 DUP12 SWAP11 DUP12 MSTORE DUP1 PUSH1 0x20 DUP13 ADD MSTORE DUP11 ADD SWAP1 PUSH2 0x50C6 JUMP JUMPDEST SWAP4 PUSH2 0x165B DUP2 PUSH2 0x50EB JUMP JUMPDEST PUSH1 0x40 DUP10 ADD MSTORE PUSH1 0xFF PUSH1 0x60 DUP10 ADD SWAP2 PUSH1 0x8 SHR AND PUSH2 0x5366 JUMP JUMPDEST DUP6 DUP3 SUB PUSH1 0x80 DUP8 ADD MSTORE PUSH2 0x50C6 JUMP JUMPDEST SWAP2 PUSH1 0xA0 DUP5 ADD MSTORE ISZERO ISZERO PUSH1 0xC0 DUP4 ADD MSTORE SUB SWAP1 RETURN JUMPDEST CALLVALUE PUSH2 0x80A JUMPI PUSH1 0x20 DUP1 PUSH1 0x3 NOT CALLDATASIZE ADD SLT PUSH2 0x80A JUMPI PUSH1 0x4 CALLDATALOAD PUSH1 0x0 MSTORE PUSH1 0x4 PUSH1 0x20 MSTORE PUSH1 0x40 PUSH1 0x0 KECCAK256 DUP1 SLOAD PUSH2 0x16BB DUP2 PUSH2 0x573A JUMP JUMPDEST SWAP2 PUSH2 0x16C9 PUSH1 0x40 MLOAD SWAP4 DUP5 PUSH2 0x4FC1 JUMP JUMPDEST DUP2 DUP4 MSTORE PUSH1 0x20 DUP4 ADD SWAP1 PUSH1 0x0 MSTORE PUSH1 0x20 PUSH1 0x0 KECCAK256 SWAP4 PUSH1 0x0 SWAP2 JUMPDEST DUP4 DUP4 LT PUSH2 0x16F3 JUMPI PUSH1 0x40 MLOAD DUP1 PUSH2 0x144A DUP8 DUP3 PUSH2 0x5279 JUMP JUMPDEST PUSH1 0x1 DUP3 DUP2 SWAP3 PUSH1 0x40 MLOAD PUSH2 0x1709 DUP2 PUSH2 0x10EF DUP2 DUP14 PUSH2 0x515D JUMP JUMPDEST DUP2 MSTORE ADD SWAP7 ADD SWAP3 ADD SWAP2 SWAP5 PUSH2 0x16DE JUMP JUMPDEST CALLVALUE PUSH2 0x80A JUMPI PUSH1 0x20 PUSH2 0x172A PUSH2 0x15B4 CALLDATASIZE PUSH2 0x5052 JUMP JUMPDEST DUP2 ADD PUSH1 0x3 DUP2 MSTORE SUB ADD SWAP1 KECCAK256 SWAP1 PUSH1 0x0 MSTORE PUSH1 0x20 MSTORE PUSH1 0x20 PUSH1 0xFF PUSH1 0x40 PUSH1 0x0 KECCAK256 SLOAD AND PUSH1 0x40 MLOAD SWAP1 ISZERO ISZERO DUP2 MSTORE RETURN JUMPDEST CALLVALUE PUSH2 0x80A JUMPI PUSH1 0x0 CALLDATASIZE PUSH1 0x3 NOT ADD SLT PUSH2 0x80A JUMPI PUSH1 0x20 PUSH1 0x18 SLOAD PUSH1 0x40 MLOAD SWAP1 DUP2 MSTORE RETURN JUMPDEST CALLVALUE PUSH2 0x80A JUMPI PUSH1 0x20 CALLDATASIZE PUSH1 0x3 NOT ADD SLT PUSH2 0x80A JUMPI PUSH2 0x1787 PUSH2 0x52DD JUMP JUMPDEST PUSH32 0xF0C57E16840DF040F15088DC2F81FE391C3923BEC73E23A9662EFC9C229C6A00 SWAP1 DUP2 SLOAD PUSH1 0xFF DUP2 PUSH1 0x40 SHR AND ISZERO SWAP1 PUSH1 0x1 PUSH1 0x1 PUSH1 0x40 SHL SUB DUP2 AND DUP1 ISZERO SWAP1 DUP2 PUSH2 0x191E JUMPI JUMPDEST PUSH1 0x1 EQ SWAP1 DUP2 PUSH2 0x1914 JUMPI JUMPDEST ISZERO SWAP1 DUP2 PUSH2 0x190B JUMPI JUMPDEST POP PUSH2 0x18F9 JUMPI PUSH8 0xFFFFFFFFFFFFFFFF NOT DUP2 AND PUSH1 0x1 OR DUP5 SSTORE DUP2 PUSH2 0x18DA JUMPI JUMPDEST POP DUP3 SLOAD SWAP2 PUSH1 0xFF DUP4 PUSH1 0x40 SHR AND ISZERO PUSH2 0x18C8 JUMPI PUSH1 0x1 PUSH1 0x1 PUSH1 0xA0 SHL SUB AND DUP1 ISZERO PUSH2 0x1879 JUMPI PUSH12 0xFFFFFFFFFFFFFFFFFFFFFFFF PUSH1 0xA0 SHL SWAP1 DUP2 PUSH1 0x0 SLOAD AND OR PUSH1 0x0 SSTORE CALLER SWAP1 PUSH1 0x1 SLOAD AND OR PUSH1 0x1 SSTORE PUSH2 0x183E JUMPI STOP JUMPDEST PUSH9 0xFF0000000000000000 NOT AND SWAP1 SSTORE PUSH32 0xC7F505B2F371AE2175EE4913F4499E1F2633A7B5936321EED1CDAEB6115181D2 PUSH1 0x20 PUSH1 0x40 MLOAD PUSH1 0x1 DUP2 MSTORE LOG1 STOP JUMPDEST PUSH1 0x40 MLOAD PUSH3 0x461BCD PUSH1 0xE5 SHL DUP2 MSTORE PUSH1 0x20 PUSH1 0x4 DUP3 ADD MSTORE PUSH1 0x21 PUSH1 0x24 DUP3 ADD MSTORE PUSH32 0x496E76616C6964204D656D626572526F6C654D616E6167657220616464726573 PUSH1 0x44 DUP3 ADD MSTORE PUSH1 0x73 PUSH1 0xF8 SHL PUSH1 0x64 DUP3 ADD MSTORE PUSH1 0x84 SWAP1 REVERT JUMPDEST PUSH1 0x40 MLOAD PUSH4 0x1AFCD79F PUSH1 0xE3 SHL DUP2 MSTORE PUSH1 0x4 SWAP1 REVERT JUMPDEST PUSH9 0xFFFFFFFFFFFFFFFFFF NOT AND PUSH9 0x10000000000000001 OR DUP4 SSTORE DUP4 PUSH2 0x17F5 JUMP JUMPDEST PUSH1 0x40 MLOAD PUSH4 0xF92EE8A9 PUSH1 0xE0 SHL DUP2 MSTORE PUSH1 0x4 SWAP1 REVERT JUMPDEST SWAP1 POP ISZERO DUP6 PUSH2 0x17D9 JUMP JUMPDEST ADDRESS EXTCODESIZE ISZERO SWAP2 POP PUSH2 0x17D1 JUMP JUMPDEST DUP4 SWAP2 POP PUSH2 0x17C7 JUMP JUMPDEST CALLVALUE PUSH2 0x80A JUMPI PUSH1 0x20 PUSH2 0x1939 PUSH2 0x15B4 CALLDATASIZE PUSH2 0x5052 JUMP JUMPDEST DUP2 ADD PUSH1 0x2 DUP2 MSTORE SUB ADD SWAP1 KECCAK256 DUP1 SLOAD DUP3 LT ISZERO PUSH2 0x80A JUMPI PUSH1 0x20 SWAP2 PUSH2 0x1958 SWAP2 PUSH2 0x50F5 JUMP JUMPDEST SWAP1 SLOAD PUSH1 0x40 MLOAD SWAP2 PUSH1 0x3 SHL SHR DUP2 MSTORE RETURN JUMPDEST CALLVALUE PUSH2 0x80A JUMPI PUSH2 0x1974 CALLDATASIZE PUSH2 0x5373 JUMP JUMPDEST SWAP1 PUSH1 0x0 MSTORE PUSH1 0x13 PUSH1 0x20 MSTORE PUSH1 0x40 PUSH1 0x0 KECCAK256 SWAP1 DUP2 SLOAD DUP2 LT ISZERO PUSH2 0x80A JUMPI PUSH2 0x1995 SWAP2 PUSH2 0x5441 JUMP JUMPDEST POP PUSH1 0x40 MLOAD PUSH2 0x19A7 DUP2 PUSH2 0x10EF DUP2 DUP6 PUSH2 0x515D JUMP JUMPDEST PUSH2 0x144A PUSH1 0x40 MLOAD SWAP3 PUSH2 0x19C6 DUP5 PUSH2 0x19BF DUP2 PUSH1 0x1 DUP6 ADD PUSH2 0x515D JUMP JUMPDEST SUB DUP6 PUSH2 0x4FC1 JUMP JUMPDEST PUSH1 0x2 DUP2 ADD SLOAD SWAP1 PUSH1 0xFF PUSH1 0x3 DUP3 ADD SLOAD AND PUSH1 0xFF PUSH1 0x5 PUSH1 0x4 DUP5 ADD SLOAD SWAP4 ADD SLOAD AND SWAP3 PUSH1 0x40 MLOAD SWAP7 DUP8 SWAP7 DUP8 PUSH2 0x5396 JUMP JUMPDEST CALLVALUE PUSH2 0x80A JUMPI PUSH2 0x19FC CALLDATASIZE PUSH2 0x5373 JUMP JUMPDEST SWAP1 PUSH1 0x0 MSTORE PUSH1 0x15 PUSH1 0x20 MSTORE PUSH1 0x40 PUSH1 0x0 KECCAK256 SWAP1 DUP2 SLOAD DUP2 LT ISZERO PUSH2 0x80A JUMPI PUSH2 0x1A24 PUSH2 0x1A2A SWAP2 PUSH2 0x144A SWAP4 PUSH2 0x50F5 JUMP JUMPDEST SWAP1 PUSH2 0x51F3 JUMP JUMPDEST PUSH1 0x40 MLOAD SWAP2 DUP3 SWAP2 PUSH1 0x20 DUP4 MSTORE PUSH1 0x20 DUP4 ADD SWAP1 PUSH2 0x50C6 JUMP JUMPDEST CALLVALUE PUSH2 0x80A JUMPI PUSH1 0x20 DUP1 PUSH1 0x3 NOT CALLDATASIZE ADD SLT PUSH2 0x80A JUMPI PUSH1 0x4 CALLDATALOAD PUSH1 0x1 PUSH1 0x1 PUSH1 0x40 SHL SUB DUP2 GT PUSH2 0x80A JUMPI PUSH2 0x1A6F SWAP1 CALLDATASIZE SWAP1 PUSH1 0x4 ADD PUSH2 0x5034 JUMP JUMPDEST PUSH1 0x0 SLOAD PUSH1 0x40 MLOAD PUSH4 0x45ECD02F PUSH1 0xE0 SHL DUP2 MSTORE CALLER PUSH1 0x4 DUP3 ADD MSTORE PUSH1 0x1 PUSH1 0x1 PUSH1 0xA0 SHL SUB SWAP1 SWAP2 AND SWAP3 SWAP2 SWAP1 DUP3 DUP2 PUSH1 0x24 DUP2 DUP8 GAS STATICCALL DUP1 ISZERO PUSH2 0x817 JUMPI PUSH2 0x1AB2 SWAP2 PUSH1 0x0 SWAP2 PUSH2 0x1CA7 JUMPI POP PUSH2 0x57C7 JUMP JUMPDEST PUSH1 0x40 MLOAD PUSH4 0x286B6AB PUSH1 0xE3 SHL DUP2 MSTORE SWAP3 DUP3 DUP5 DUP1 PUSH2 0x1AD1 CALLER DUP7 PUSH1 0x4 DUP5 ADD PUSH2 0x580A JUMP JUMPDEST SUB DUP2 DUP5 GAS STATICCALL SWAP1 DUP2 ISZERO PUSH2 0x817 JUMPI PUSH2 0x1AF2 DUP5 SWAP3 PUSH1 0x24 SWAP7 PUSH1 0x0 SWAP2 PUSH2 0x1C8A JUMPI POP PUSH2 0x5832 JUMP JUMPDEST PUSH1 0x40 MLOAD PUSH3 0xB0C809 PUSH1 0xE0 SHL DUP2 MSTORE CALLER PUSH1 0x4 DUP3 ADD MSTORE SWAP5 DUP6 SWAP2 DUP3 SWAP1 GAS STATICCALL SWAP3 DUP4 ISZERO PUSH2 0x817 JUMPI PUSH1 0x0 SWAP4 PUSH2 0x1C5B JUMPI JUMPDEST POP PUSH2 0x1B26 DUP4 ISZERO ISZERO PUSH2 0x54EC JUMP JUMPDEST PUSH1 0x40 MLOAD DUP2 MLOAD SWAP1 DUP4 DUP2 DUP2 DUP6 ADD SWAP4 PUSH2 0x1B3D DUP2 DUP4 DUP8 PUSH2 0x5083 JUMP JUMPDEST DUP2 ADD PUSH1 0x3 DUP2 MSTORE SUB ADD SWAP1 KECCAK256 DUP5 PUSH1 0x0 MSTORE DUP4 MSTORE PUSH1 0xFF PUSH1 0x40 PUSH1 0x0 KECCAK256 SLOAD AND ISZERO PUSH2 0x1C20 JUMPI PUSH1 0x40 MLOAD DUP4 DUP2 DUP5 MLOAD PUSH2 0x1B6D DUP2 DUP4 DUP8 PUSH2 0x5083 JUMP JUMPDEST DUP2 ADD PUSH1 0x5 DUP2 MSTORE SUB ADD SWAP1 KECCAK256 DUP5 PUSH1 0x0 MSTORE DUP4 MSTORE PUSH1 0xFF PUSH1 0x40 PUSH1 0x0 KECCAK256 SLOAD AND PUSH2 0x1BEA JUMPI PUSH32 0x8F30CBE91E0CA2A9F89C7C4A38BAAA3FDD002BF05E8D40E1CA69945D06A4901 SWAP2 PUSH2 0x1BC5 DUP5 PUSH2 0xA79 SWAP4 PUSH1 0x40 MLOAD DUP1 SWAP4 DUP2 SWAP3 DUP7 MLOAD SWAP3 DUP4 SWAP2 PUSH2 0x5083 JUMP JUMPDEST DUP2 ADD PUSH1 0x5 DUP2 MSTORE SUB ADD SWAP1 KECCAK256 DUP6 PUSH1 0x0 MSTORE DUP5 MSTORE PUSH1 0x40 PUSH1 0x0 KECCAK256 PUSH1 0x1 PUSH1 0xFF NOT DUP3 SLOAD AND OR SWAP1 SSTORE PUSH2 0x55B3 JUMP JUMPDEST PUSH1 0x40 MLOAD PUSH3 0x461BCD PUSH1 0xE5 SHL DUP2 MSTORE PUSH1 0x4 DUP2 ADD DUP5 SWAP1 MSTORE PUSH1 0xE PUSH1 0x24 DUP3 ADD MSTORE PUSH14 0x416C726561647920616374697665 PUSH1 0x90 SHL PUSH1 0x44 DUP3 ADD MSTORE PUSH1 0x64 SWAP1 REVERT JUMPDEST PUSH1 0x40 MLOAD PUSH3 0x461BCD PUSH1 0xE5 SHL DUP2 MSTORE PUSH1 0x4 DUP2 ADD DUP5 SWAP1 MSTORE PUSH1 0x13 PUSH1 0x24 DUP3 ADD MSTORE PUSH19 0x15D85CC81B995D995C8818481CDD589A9958DD PUSH1 0x6A SHL PUSH1 0x44 DUP3 ADD MSTORE PUSH1 0x64 SWAP1 REVERT JUMPDEST SWAP1 SWAP3 POP DUP2 DUP2 DUP2 RETURNDATASIZE DUP4 GT PUSH2 0x1C83 JUMPI JUMPDEST PUSH2 0x1C73 DUP2 DUP4 PUSH2 0x4FC1 JUMP JUMPDEST DUP2 ADD SUB SLT PUSH2 0x80A JUMPI MLOAD SWAP2 DUP4 PUSH2 0x1B1A JUMP JUMPDEST POP RETURNDATASIZE PUSH2 0x1C69 JUMP JUMPDEST PUSH2 0x1CA1 SWAP2 POP DUP5 RETURNDATASIZE DUP7 GT PUSH2 0x865 JUMPI PUSH2 0x857 DUP2 DUP4 PUSH2 0x4FC1 JUMP JUMPDEST DUP8 PUSH2 0x466 JUMP JUMPDEST PUSH2 0x1CBE SWAP2 POP DUP5 RETURNDATASIZE DUP7 GT PUSH2 0x865 JUMPI PUSH2 0x857 DUP2 DUP4 PUSH2 0x4FC1 JUMP JUMPDEST DUP6 PUSH2 0x424 JUMP JUMPDEST CALLVALUE PUSH2 0x80A JUMPI PUSH2 0x1CD2 CALLDATASIZE PUSH2 0x5373 JUMP JUMPDEST SWAP1 PUSH1 0x0 MSTORE PUSH1 0x4 PUSH1 0x20 MSTORE PUSH1 0x40 PUSH1 0x0 KECCAK256 SWAP1 DUP2 SLOAD DUP2 LT ISZERO PUSH2 0x80A JUMPI PUSH2 0x1A24 PUSH2 0x1A2A SWAP2 PUSH2 0x144A SWAP4 PUSH2 0x50F5 JUMP JUMPDEST CALLVALUE PUSH2 0x80A JUMPI PUSH2 0x1D25 PUSH1 0x20 PUSH2 0x1D0D CALLDATASIZE PUSH2 0x52F3 JUMP JUMPDEST SWAP4 SWAP2 DUP4 PUSH1 0x40 SWAP5 SWAP3 SWAP5 MLOAD SWAP4 DUP3 DUP6 DUP1 SWAP5 MLOAD SWAP4 DUP5 SWAP3 ADD PUSH2 0x5083 JUMP JUMPDEST DUP2 ADD PUSH1 0x12 DUP2 MSTORE SUB ADD SWAP1 KECCAK256 SWAP1 PUSH1 0x0 MSTORE PUSH1 0x20 MSTORE PUSH1 0x40 PUSH1 0x0 KECCAK256 SWAP1 PUSH1 0x0 MSTORE PUSH1 0x20 MSTORE PUSH1 0x20 PUSH1 0x40 PUSH1 0x0 KECCAK256 SLOAD PUSH1 0x40 MLOAD SWAP1 DUP2 MSTORE RETURN JUMPDEST CALLVALUE PUSH2 0x80A JUMPI PUSH2 0x1D60 CALLDATASIZE PUSH2 0x5373 JUMP JUMPDEST SWAP1 PUSH1 0x0 MSTORE PUSH1 0x16 PUSH1 0x20 MSTORE PUSH1 0x40 PUSH1 0x0 KECCAK256 SWAP1 DUP2 SLOAD DUP2 LT ISZERO PUSH2 0x80A JUMPI PUSH2 0x1A24 PUSH2 0x1A2A SWAP2 PUSH2 0x144A SWAP4 PUSH2 0x50F5 JUMP JUMPDEST CALLVALUE PUSH2 0x80A JUMPI PUSH1 0x0 CALLDATASIZE PUSH1 0x3 NOT ADD SLT PUSH2 0x80A JUMPI PUSH1 0x40 MLOAD PUSH1 0x40 DUP2 ADD SWAP1 DUP1 DUP3 LT PUSH1 0x1 PUSH1 0x1 PUSH1 0x40 SHL SUB DUP4 GT OR PUSH2 0x1DE0 JUMPI PUSH2 0x144A SWAP2 PUSH1 0x40 MSTORE PUSH1 0x5 DUP2 MSTORE PUSH5 0x352E302E3 PUSH1 0xDC SHL PUSH1 0x20 DUP3 ADD MSTORE PUSH1 0x40 MLOAD SWAP2 DUP3 SWAP2 PUSH1 0x20 DUP4 MSTORE PUSH1 0x20 DUP4 ADD SWAP1 PUSH2 0x50C6 JUMP JUMPDEST PUSH4 0x4E487B71 PUSH1 0xE0 SHL PUSH1 0x0 MSTORE PUSH1 0x41 PUSH1 0x4 MSTORE PUSH1 0x24 PUSH1 0x0 REVERT JUMPDEST CALLVALUE PUSH2 0x80A JUMPI PUSH1 0x0 CALLDATASIZE PUSH1 0x3 NOT ADD SLT PUSH2 0x80A JUMPI PUSH1 0x20 PUSH1 0x19 SLOAD PUSH1 0x40 MLOAD SWAP1 DUP2 MSTORE RETURN JUMPDEST CALLVALUE PUSH2 0x80A JUMPI PUSH1 0x0 CALLDATASIZE PUSH1 0x3 NOT ADD SLT PUSH2 0x80A JUMPI PUSH1 0x20 PUSH1 0x17 SLOAD PUSH1 0x40 MLOAD SWAP1 DUP2 MSTORE RETURN JUMPDEST CALLVALUE PUSH2 0x80A JUMPI PUSH1 0x40 CALLDATASIZE PUSH1 0x3 NOT ADD SLT PUSH2 0x80A JUMPI PUSH1 0x4 CALLDATALOAD PUSH1 0x1 PUSH1 0x1 PUSH1 0x40 SHL SUB DUP2 GT PUSH2 0x80A JUMPI PUSH2 0x1E62 SWAP1 CALLDATASIZE SWAP1 PUSH1 0x4 ADD PUSH2 0x5034 JUMP JUMPDEST PUSH1 0xFF PUSH2 0x1E6C PUSH2 0x50A6 JUMP JUMPDEST AND SWAP1 PUSH1 0x1 DUP3 LT ISZERO DUP1 PUSH2 0x20D9 JUMPI JUMPDEST PUSH2 0x1E82 SWAP1 PUSH2 0x5AC5 JUMP JUMPDEST PUSH1 0x0 SLOAD PUSH1 0x40 MLOAD PUSH3 0xB0C809 PUSH1 0xE0 SHL DUP2 MSTORE CALLER PUSH1 0x4 DUP3 ADD MSTORE SWAP3 PUSH1 0x20 SWAP3 SWAP2 DUP4 SWAP1 DUP6 SWAP1 PUSH1 0x24 SWAP1 DUP3 SWAP1 PUSH1 0x1 PUSH1 0x1 PUSH1 0xA0 SHL SUB AND GAS STATICCALL SWAP4 DUP5 ISZERO PUSH2 0x817 JUMPI PUSH1 0x0 SWAP5 PUSH2 0x20AA JUMPI JUMPDEST POP PUSH2 0x1ECB DUP5 ISZERO ISZERO PUSH2 0x54EC JUMP JUMPDEST PUSH1 0x40 MLOAD DUP3 MLOAD SWAP1 DUP5 DUP2 DUP2 DUP7 ADD SWAP4 PUSH2 0x1EE2 DUP2 DUP4 DUP8 PUSH2 0x5083 JUMP JUMPDEST DUP2 ADD PUSH1 0xB DUP2 MSTORE SUB ADD SWAP1 KECCAK256 DUP6 PUSH1 0x0 MSTORE DUP5 MSTORE PUSH1 0xFF PUSH1 0x40 PUSH1 0x0 KECCAK256 SLOAD AND ISZERO PUSH2 0x2065 JUMPI PUSH2 0x1F42 SWAP1 PUSH1 0x40 MLOAD DUP6 DUP2 DUP7 MLOAD PUSH2 0x1F16 DUP2 DUP4 DUP8 PUSH2 0x5083 JUMP JUMPDEST DUP2 ADD PUSH1 0xC DUP2 MSTORE SUB ADD SWAP1 KECCAK256 DUP7 PUSH1 0x0 MSTORE DUP6 MSTORE PUSH2 0xA11 DUP6 PUSH1 0x40 PUSH1 0x0 KECCAK256 SLOAD SWAP3 PUSH1 0x40 MLOAD DUP1 SWAP4 DUP2 SWAP3 DUP10 MLOAD SWAP3 DUP4 SWAP2 PUSH2 0x5083 JUMP JUMPDEST POP PUSH1 0xFF PUSH1 0x4 DUP3 ADD SLOAD AND ISZERO PUSH2 0x2020 JUMPI PUSH1 0x2 ADD SWAP2 PUSH1 0xFF DUP4 SLOAD AND SWAP3 PUSH2 0x1F63 DUP4 PUSH2 0x50EB JUMP JUMPDEST PUSH2 0x1F6C DUP4 PUSH2 0x50EB JUMP JUMPDEST PUSH2 0x1F75 DUP5 PUSH2 0x50EB JUMP JUMPDEST DUP3 DUP5 EQ PUSH2 0x1FE6 JUMPI SWAP2 PUSH2 0x1FC1 PUSH32 0x334F52BDF9B484290889B34FB83AD64BFF4DD1B7028A24D048A3A85537B53FF9 SWAP5 SWAP3 PUSH2 0x1FB8 DUP4 PUSH1 0x60 SWAP7 PUSH2 0x1FB3 DUP3 PUSH2 0x50EB JUMP JUMPDEST PUSH2 0x557C JUMP JUMPDEST PUSH2 0x726 DUP4 PUSH2 0x50EB JUMP JUMPDEST SWAP5 PUSH1 0x40 MLOAD SWAP3 PUSH2 0x1FCF DUP2 PUSH2 0x50EB JUMP JUMPDEST DUP4 MSTORE PUSH2 0x1FDA DUP3 PUSH2 0x50EB JUMP JUMPDEST DUP3 ADD MSTORE TIMESTAMP PUSH1 0x40 DUP3 ADD MSTORE LOG3 STOP JUMPDEST PUSH1 0x40 MLOAD PUSH3 0x461BCD PUSH1 0xE5 SHL DUP2 MSTORE PUSH1 0x4 DUP2 ADD DUP7 SWAP1 MSTORE PUSH1 0x12 PUSH1 0x24 DUP3 ADD MSTORE PUSH18 0x105B1C9958591E481D1A1A5CC81B195D995B PUSH1 0x72 SHL PUSH1 0x44 DUP3 ADD MSTORE PUSH1 0x64 SWAP1 REVERT JUMPDEST PUSH1 0x40 MLOAD PUSH3 0x461BCD PUSH1 0xE5 SHL DUP2 MSTORE PUSH1 0x4 DUP2 ADD DUP6 SWAP1 MSTORE PUSH1 0x1F PUSH1 0x24 DUP3 ADD MSTORE PUSH32 0x566572696669636174696F6E20686173206265656E2072657472616374656400 PUSH1 0x44 DUP3 ADD MSTORE PUSH1 0x64 SWAP1 REVERT JUMPDEST PUSH1 0x40 MLOAD PUSH3 0x461BCD PUSH1 0xE5 SHL DUP2 MSTORE PUSH1 0x4 DUP2 ADD DUP6 SWAP1 MSTORE PUSH1 0x19 PUSH1 0x24 DUP3 ADD MSTORE PUSH32 0x4E6F20766572696669636174696F6E20746F206D6F6469667900000000000000 PUSH1 0x44 DUP3 ADD MSTORE PUSH1 0x64 SWAP1 REVERT JUMPDEST SWAP1 SWAP4 POP DUP3 DUP2 DUP2 RETURNDATASIZE DUP4 GT PUSH2 0x20D2 JUMPI JUMPDEST PUSH2 0x20C2 DUP2 DUP4 PUSH2 0x4FC1 JUMP JUMPDEST DUP2 ADD SUB SLT PUSH2 0x80A JUMPI MLOAD SWAP3 DUP5 PUSH2 0x1EBF JUMP JUMPDEST POP RETURNDATASIZE PUSH2 0x20B8 JUMP JUMPDEST POP PUSH1 0x3 DUP3 GT ISZERO PUSH2 0x1E79 JUMP JUMPDEST CALLVALUE PUSH2 0x80A JUMPI PUSH2 0x20F7 PUSH1 0x20 PUSH2 0x1D0D CALLDATASIZE PUSH2 0x52F3 JUMP JUMPDEST DUP2 ADD PUSH1 0x11 DUP2 MSTORE SUB ADD SWAP1 KECCAK256 SWAP1 PUSH1 0x0 MSTORE PUSH1 0x20 MSTORE PUSH1 0x40 PUSH1 0x0 KECCAK256 SWAP1 PUSH1 0x0 MSTORE PUSH1 0x20 MSTORE PUSH1 0x20 PUSH1 0xFF PUSH1 0x40 PUSH1 0x0 KECCAK256 SLOAD AND PUSH1 0x40 MLOAD SWAP1 ISZERO ISZERO DUP2 MSTORE RETURN JUMPDEST CALLVALUE PUSH2 0x80A JUMPI PUSH2 0x1670 PUSH2 0x216B PUSH2 0x167D PUSH2 0x2149 PUSH2 0x2143 CALLDATASIZE PUSH2 0x5052 JUMP JUMPDEST SWAP1 PUSH2 0x5C7C JUMP JUMPDEST SWAP7 SWAP6 SWAP9 SWAP3 SWAP2 SWAP4 SWAP5 PUSH1 0x40 SWAP9 SWAP2 SWAP9 MLOAD SWAP11 DUP12 SWAP11 ISZERO ISZERO DUP12 MSTORE DUP1 PUSH1 0x20 DUP13 ADD MSTORE DUP11 ADD SWAP1 PUSH2 0x50C6 JUMP JUMPDEST SWAP4 PUSH2 0x2175 DUP2 PUSH2 0x50EB JUMP JUMPDEST PUSH1 0x40 DUP10 ADD MSTORE PUSH1 0x60 DUP9 ADD SWAP1 PUSH2 0x5366 JUMP JUMPDEST CALLVALUE PUSH2 0x80A JUMPI PUSH1 0x20 PUSH2 0x2197 PUSH2 0x15B4 CALLDATASIZE PUSH2 0x5052 JUMP JUMPDEST DUP2 ADD PUSH1 0xA DUP2 MSTORE SUB ADD SWAP1 KECCAK256 SWAP1 DUP2 SLOAD DUP2 LT ISZERO PUSH2 0x80A JUMPI PUSH2 0x21B4 SWAP2 PUSH2 0x5425 JUMP JUMPDEST POP DUP1 SLOAD PUSH1 0x40 MLOAD SWAP2 PUSH2 0x21CC DUP4 PUSH2 0x1623 DUP2 PUSH1 0x1 DUP6 ADD PUSH2 0x515D JUMP JUMPDEST PUSH1 0xFF PUSH1 0x2 DUP3 ADD SLOAD AND SWAP1 PUSH1 0xFF PUSH1 0x4 PUSH1 0x3 DUP4 ADD SLOAD SWAP3 ADD SLOAD AND SWAP1 PUSH2 0x21FF PUSH1 0x40 MLOAD SWAP6 DUP7 SWAP6 DUP7 MSTORE PUSH1 0xA0 PUSH1 0x20 DUP8 ADD MSTORE PUSH1 0xA0 DUP7 ADD SWAP1 PUSH2 0x50C6 JUMP JUMPDEST SWAP3 PUSH2 0x2209 DUP2 PUSH2 0x50EB JUMP JUMPDEST PUSH1 0x40 DUP6 ADD MSTORE PUSH1 0x60 DUP5 ADD MSTORE ISZERO ISZERO PUSH1 0x80 DUP4 ADD MSTORE SUB SWAP1 RETURN JUMPDEST CALLVALUE PUSH2 0x80A JUMPI PUSH2 0x222C CALLDATASIZE PUSH2 0x53E2 JUMP JUMPDEST PUSH1 0x0 SLOAD PUSH1 0x40 MLOAD PUSH4 0x45ECD02F PUSH1 0xE0 SHL DUP2 MSTORE CALLER PUSH1 0x4 DUP3 ADD MSTORE PUSH1 0x24 SWAP4 PUSH1 0x20 SWAP4 SWAP3 SWAP1 SWAP2 PUSH1 0x1 PUSH1 0x1 PUSH1 0xA0 SHL SUB SWAP1 SWAP2 AND SWAP1 DUP5 DUP2 DUP8 DUP2 DUP6 GAS STATICCALL DUP1 ISZERO PUSH2 0x817 JUMPI PUSH2 0x2275 SWAP2 PUSH1 0x0 SWAP2 PUSH2 0x2669 JUMPI POP PUSH2 0x57C7 JUMP JUMPDEST PUSH1 0x40 MLOAD PUSH4 0x286B6AB PUSH1 0xE3 SHL DUP2 MSTORE SWAP1 DUP5 DUP3 DUP1 PUSH2 0x2294 CALLER DUP8 PUSH1 0x4 DUP5 ADD PUSH2 0x580A JUMP JUMPDEST SUB DUP2 DUP5 GAS STATICCALL SWAP1 DUP2 ISZERO PUSH2 0x817 JUMPI PUSH2 0x22B4 DUP7 SWAP3 DUP9 SWAP5 PUSH1 0x0 SWAP2 PUSH2 0x264C JUMPI POP PUSH2 0x5832 JUMP JUMPDEST PUSH2 0x22C0 DUP5 MLOAD ISZERO ISZERO PUSH2 0x5A2D JUMP JUMPDEST PUSH2 0x22CC DUP6 MLOAD ISZERO ISZERO PUSH2 0x5A79 JUMP JUMPDEST PUSH1 0x40 MLOAD PUSH3 0xB0C809 PUSH1 0xE0 SHL DUP2 MSTORE CALLER PUSH1 0x4 DUP3 ADD MSTORE SWAP7 DUP8 SWAP2 DUP3 SWAP1 GAS STATICCALL SWAP5 DUP6 ISZERO PUSH2 0x817 JUMPI PUSH1 0x0 SWAP6 PUSH2 0x261D JUMPI JUMPDEST POP PUSH2 0x2300 DUP6 ISZERO ISZERO PUSH2 0x54EC JUMP JUMPDEST PUSH1 0x40 MLOAD SWAP1 DUP3 MLOAD SWAP2 DUP6 DUP2 DUP2 DUP7 ADD SWAP5 PUSH2 0x2318 DUP2 DUP4 DUP9 PUSH2 0x5083 JUMP JUMPDEST DUP2 ADD PUSH1 0x3 DUP2 MSTORE SUB ADD SWAP1 KECCAK256 DUP7 PUSH1 0x0 MSTORE DUP6 MSTORE PUSH1 0xFF PUSH1 0x40 PUSH1 0x0 KECCAK256 SLOAD AND PUSH2 0x25CA JUMPI PUSH1 0x40 MLOAD DUP6 DUP2 DUP6 MLOAD PUSH2 0x2347 DUP2 DUP4 DUP9 PUSH2 0x5083 JUMP JUMPDEST DUP2 ADD PUSH1 0x2 DUP2 MSTORE SUB ADD SWAP1 KECCAK256 SLOAD ISZERO PUSH2 0x247D JUMPI JUMPDEST PUSH1 0x40 MLOAD DUP6 DUP2 DUP6 MLOAD PUSH2 0x236A DUP2 DUP4 DUP9 PUSH2 0x5083 JUMP JUMPDEST DUP2 ADD PUSH1 0x2 DUP2 MSTORE SUB ADD SWAP1 KECCAK256 DUP1 SLOAD SWAP2 PUSH1 0x1 PUSH1 0x40 SHL DUP4 LT ISZERO PUSH2 0x2469 JUMPI POP SWAP3 PUSH2 0x245F SWAP3 PUSH2 0x23BD DUP4 PUSH32 0x1CDC47600AA970E2D8C3BFA9885DAEFC5E052EA8A6A10471AB3DBBC77AD2138D SWAP7 PUSH1 0x1 PUSH2 0x127E SWAP7 ADD DUP2 SSTORE PUSH2 0x50F5 JUMP JUMPDEST DUP2 SLOAD SWAP1 PUSH1 0x3 SHL SWAP1 DUP11 DUP3 SHL SWAP2 PUSH1 0x0 NOT SWAP1 SHL NOT AND OR SWAP1 SSTORE PUSH1 0x40 MLOAD DUP8 DUP2 DUP5 MLOAD PUSH2 0x23E4 DUP2 DUP4 DUP8 PUSH2 0x5083 JUMP JUMPDEST DUP2 ADD PUSH1 0x3 DUP2 MSTORE SUB ADD SWAP1 KECCAK256 DUP9 PUSH1 0x0 MSTORE DUP8 MSTORE PUSH2 0x241C DUP8 PUSH1 0x40 PUSH1 0x0 KECCAK256 SWAP3 PUSH1 0xFF NOT SWAP4 PUSH1 0x1 DUP6 DUP3 SLOAD AND OR SWAP1 SSTORE PUSH1 0x40 MLOAD DUP1 SWAP4 DUP2 SWAP3 DUP8 MLOAD SWAP3 DUP4 SWAP2 PUSH2 0x5083 JUMP JUMPDEST DUP2 ADD PUSH1 0x5 DUP2 MSTORE SUB ADD SWAP1 KECCAK256 DUP9 PUSH1 0x0 MSTORE DUP8 MSTORE PUSH1 0x1 PUSH1 0x40 PUSH1 0x0 KECCAK256 SWAP2 DUP3 SLOAD AND OR SWAP1 SSTORE PUSH1 0x4 DUP7 MSTORE PUSH2 0x244C DUP2 PUSH1 0x40 PUSH1 0x0 KECCAK256 PUSH2 0x5B05 JUMP JUMPDEST PUSH2 0x2457 PUSH1 0x9 SLOAD PUSH2 0x57A0 JUMP JUMPDEST PUSH1 0x9 SSTORE PUSH2 0x55B3 JUMP JUMPDEST SWAP3 PUSH1 0x40 MLOAD TIMESTAMP DUP2 MSTORE LOG4 STOP JUMPDEST PUSH4 0x4E487B71 PUSH1 0xE0 SHL PUSH1 0x0 SWAP1 DUP2 MSTORE PUSH1 0x41 PUSH1 0x4 MSTORE REVERT JUMPDEST PUSH2 0x24B0 PUSH1 0x40 MLOAD PUSH2 0x24B7 DUP7 MLOAD SWAP2 DUP9 DUP2 DUP2 DUP11 ADD SWAP5 PUSH2 0x249A DUP2 DUP4 DUP9 PUSH2 0x5083 JUMP JUMPDEST DUP2 ADD PUSH1 0x6 DUP2 MSTORE SUB ADD SWAP1 KECCAK256 PUSH1 0x40 MLOAD SWAP4 DUP5 DUP1 SWAP3 PUSH2 0x515D JUMP JUMPDEST SUB DUP4 PUSH2 0x4FC1 JUMP JUMPDEST DUP2 MLOAD ISZERO PUSH2 0x2510 JUMPI POP DUP6 DUP2 MLOAD SWAP2 ADD KECCAK256 DUP4 MLOAD DUP4 KECCAK256 EQ PUSH2 0x2358 JUMPI PUSH1 0x64 SWAP1 DUP6 PUSH1 0x40 MLOAD SWAP2 PUSH3 0x461BCD PUSH1 0xE5 SHL DUP4 MSTORE DUP2 PUSH1 0x4 DUP5 ADD MSTORE DUP3 ADD MSTORE PUSH32 0x486173682062656C6F6E677320746F20646966666572656E74207265636F7264 PUSH1 0x44 DUP3 ADD MSTORE REVERT JUMPDEST SWAP1 POP PUSH1 0xFF PUSH1 0x40 MLOAD DUP8 DUP2 DUP9 MLOAD PUSH2 0x2526 DUP2 DUP4 DUP9 PUSH2 0x5083 JUMP JUMPDEST DUP2 ADD PUSH1 0x8 DUP2 MSTORE SUB ADD SWAP1 KECCAK256 SLOAD AND PUSH2 0x2592 JUMPI DUP6 PUSH2 0x2578 SWAP2 PUSH2 0x2551 DUP7 PUSH1 0x40 MLOAD DUP5 DUP2 DUP12 MLOAD PUSH2 0xED0 DUP2 DUP4 DUP10 PUSH2 0x5083 JUMP JUMPDEST PUSH2 0x2567 DUP8 PUSH1 0x40 MLOAD DUP5 DUP2 DUP11 MLOAD PUSH2 0xEF6 DUP2 DUP4 DUP14 PUSH2 0x5083 JUMP JUMPDEST PUSH1 0x40 MLOAD DUP1 SWAP4 DUP2 SWAP3 DUP10 MLOAD SWAP3 DUP4 SWAP2 PUSH2 0x5083 JUMP JUMPDEST DUP2 ADD PUSH1 0x8 DUP2 MSTORE SUB ADD SWAP1 KECCAK256 PUSH1 0x1 PUSH1 0xFF NOT DUP3 SLOAD AND OR SWAP1 SSTORE PUSH2 0x2358 JUMP JUMPDEST PUSH1 0x40 MLOAD PUSH3 0x461BCD PUSH1 0xE5 SHL DUP2 MSTORE PUSH1 0x4 DUP2 ADD DUP8 SWAP1 MSTORE PUSH1 0x11 DUP2 DUP5 ADD MSTORE PUSH17 0x12185CDA08185B1C9958591E481D5CD959 PUSH1 0x7A SHL PUSH1 0x44 DUP3 ADD MSTORE PUSH1 0x64 SWAP1 REVERT JUMPDEST DUP5 PUSH1 0x27 PUSH1 0x84 SWAP3 PUSH1 0x40 MLOAD SWAP3 PUSH3 0x461BCD PUSH1 0xE5 SHL DUP5 MSTORE PUSH1 0x4 DUP5 ADD MSTORE DUP3 ADD MSTORE PUSH32 0x5265636F726420616C726561647920616E63686F72656420746F207468697320 PUSH1 0x44 DUP3 ADD MSTORE PUSH7 0x1CDD589A9958DD PUSH1 0xCA SHL PUSH1 0x64 DUP3 ADD MSTORE REVERT JUMPDEST SWAP1 SWAP5 POP DUP4 DUP2 DUP2 RETURNDATASIZE DUP4 GT PUSH2 0x2645 JUMPI JUMPDEST PUSH2 0x2635 DUP2 DUP4 PUSH2 0x4FC1 JUMP JUMPDEST DUP2 ADD SUB SLT PUSH2 0x80A JUMPI MLOAD SWAP4 DUP6 PUSH2 0x22F4 JUMP JUMPDEST POP RETURNDATASIZE PUSH2 0x262B JUMP JUMPDEST PUSH2 0x2663 SWAP2 POP DUP5 RETURNDATASIZE DUP7 GT PUSH2 0x865 JUMPI PUSH2 0x857 DUP2 DUP4 PUSH2 0x4FC1 JUMP JUMPDEST DUP10 PUSH2 0x466 JUMP JUMPDEST PUSH2 0x2680 SWAP2 POP DUP7 RETURNDATASIZE DUP9 GT PUSH2 0x865 JUMPI PUSH2 0x857 DUP2 DUP4 PUSH2 0x4FC1 JUMP JUMPDEST DUP8 PUSH2 0x424 JUMP JUMPDEST CALLVALUE PUSH2 0x80A JUMPI PUSH1 0x20 PUSH2 0x2699 PUSH2 0x15B4 CALLDATASIZE PUSH2 0x5052 JUMP JUMPDEST DUP2 ADD PUSH1 0xB DUP2 MSTORE SUB ADD SWAP1 KECCAK256 SWAP1 PUSH1 0x0 MSTORE PUSH1 0x20 MSTORE PUSH1 0x20 PUSH1 0xFF PUSH1 0x40 PUSH1 0x0 KECCAK256 SLOAD AND PUSH1 0x40 MLOAD SWAP1 ISZERO ISZERO DUP2 MSTORE RETURN JUMPDEST CALLVALUE PUSH2 0x80A JUMPI PUSH1 0x20 CALLDATASIZE PUSH1 0x3 NOT ADD SLT PUSH2 0x80A JUMPI PUSH2 0x26D8 PUSH2 0x52DD JUMP JUMPDEST PUSH1 0x1 SLOAD PUSH1 0x1 PUSH1 0x1 PUSH1 0xA0 SHL SUB DUP1 DUP3 AND SWAP3 PUSH2 0x26F2 CALLER DUP6 EQ PUSH2 0x587E JUMP JUMPDEST AND DUP1 SWAP3 PUSH2 0x2700 DUP3 ISZERO ISZERO PUSH2 0x5C3E JUMP JUMPDEST PUSH32 0x38DF5FA0F7FEF0D515CA1F5388CB5790AC5885D5FCA8D05D9F943E563C33A4B3 PUSH1 0x20 PUSH1 0x40 MLOAD TIMESTAMP DUP2 MSTORE LOG3 PUSH1 0x1 PUSH1 0x1 PUSH1 0xA0 SHL SUB NOT AND OR PUSH1 0x1 SSTORE STOP JUMPDEST CALLVALUE PUSH2 0x80A JUMPI PUSH1 0x20 DUP1 PUSH1 0x3 NOT CALLDATASIZE ADD SLT PUSH2 0x80A JUMPI PUSH1 0x4 CALLDATALOAD PUSH1 0x1 PUSH1 0x1 PUSH1 0x40 SHL SUB DUP2 GT PUSH2 0x80A JUMPI PUSH2 0x276B SWAP1 CALLDATASIZE SWAP1 PUSH1 0x4 ADD PUSH2 0x5034 JUMP JUMPDEST PUSH1 0x0 PUSH1 0x40 MLOAD DUP3 MLOAD SWAP1 DUP5 DUP2 DUP2 DUP7 ADD SWAP4 PUSH2 0x2784 DUP2 DUP4 DUP8 PUSH2 0x5083 JUMP JUMPDEST DUP2 ADD PUSH1 0x2 DUP2 MSTORE SUB ADD SWAP1 KECCAK256 SWAP1 PUSH1 0x40 MLOAD DUP1 DUP4 DUP8 DUP3 SWAP6 SLOAD SWAP4 DUP5 DUP2 MSTORE ADD SWAP1 PUSH1 0x0 MSTORE DUP8 PUSH1 0x0 KECCAK256 SWAP3 PUSH1 0x0 JUMPDEST DUP10 DUP3 DUP3 LT PUSH2 0x2834 JUMPI POP POP POP PUSH2 0x27C0 SWAP3 POP SUB DUP4 PUSH2 0x4FC1 JUMP JUMPDEST DUP2 MLOAD SWAP4 PUSH1 0x0 JUMPDEST DUP4 MLOAD DUP2 LT ISZERO PUSH2 0x2825 JUMPI PUSH1 0x40 MLOAD DUP8 DUP2 DUP5 MLOAD PUSH2 0x27E1 DUP2 DUP4 DUP10 PUSH2 0x5083 JUMP JUMPDEST DUP2 ADD PUSH1 0x5 DUP2 MSTORE SUB ADD SWAP1 KECCAK256 PUSH2 0x27F5 DUP3 DUP7 PUSH2 0x578C JUMP JUMPDEST MLOAD PUSH1 0x0 MSTORE DUP8 MSTORE PUSH1 0xFF PUSH1 0x40 PUSH1 0x0 KECCAK256 SLOAD AND PUSH2 0x2811 JUMPI JUMPDEST PUSH1 0x1 ADD PUSH2 0x27C6 JUMP JUMPDEST SWAP4 PUSH2 0x281D PUSH1 0x1 SWAP2 PUSH2 0x57A0 JUMP JUMPDEST SWAP5 SWAP1 POP PUSH2 0x2809 JUMP JUMPDEST PUSH1 0x40 DUP7 DUP7 DUP10 DUP4 MLOAD SWAP3 DUP4 MSTORE DUP3 ADD MSTORE RETURN JUMPDEST DUP6 SLOAD DUP5 MSTORE PUSH1 0x1 SWAP6 DUP7 ADD SWAP6 DUP9 SWAP6 POP SWAP4 ADD SWAP3 ADD PUSH2 0x27A9 JUMP JUMPDEST CALLVALUE PUSH2 0x80A JUMPI PUSH2 0x2890 PUSH2 0x288A PUSH2 0x285E CALLDATASIZE PUSH2 0x5373 JUMP JUMPDEST SWAP1 DUP1 PUSH1 0x0 MSTORE PUSH1 0x13 PUSH1 0x20 MSTORE PUSH2 0x2878 PUSH1 0x40 PUSH1 0x0 KECCAK256 SLOAD DUP4 LT PUSH2 0x59EB JUMP JUMPDEST PUSH1 0x0 MSTORE PUSH1 0x13 PUSH1 0x20 MSTORE PUSH1 0x40 PUSH1 0x0 KECCAK256 PUSH2 0x5441 JUMP JUMPDEST POP PUSH2 0x5BC6 JUMP JUMPDEST DUP1 MLOAD PUSH1 0x20 DUP3 ADD MLOAD SWAP2 PUSH1 0x40 DUP2 ADD MLOAD PUSH1 0x60 DUP3 ADD MLOAD SWAP2 PUSH1 0x5 DUP4 LT ISZERO PUSH2 0x28C9 JUMPI PUSH2 0x144A SWAP3 PUSH1 0xA0 PUSH1 0x80 DUP4 ADD MLOAD SWAP3 ADD MLOAD ISZERO ISZERO SWAP3 PUSH1 0x40 MLOAD SWAP7 DUP8 SWAP7 DUP8 PUSH2 0x5396 JUMP JUMPDEST PUSH4 0x4E487B71 PUSH1 0xE0 SHL PUSH1 0x0 MSTORE PUSH1 0x21 PUSH1 0x4 MSTORE PUSH1 0x24 PUSH1 0x0 REVERT JUMPDEST CALLVALUE PUSH2 0x80A JUMPI PUSH1 0x20 DUP1 PUSH1 0x3 NOT CALLDATASIZE ADD SLT PUSH2 0x80A JUMPI PUSH1 0x4 CALLDATALOAD PUSH1 0x1 PUSH1 0x1 PUSH1 0x40 SHL SUB DUP2 GT PUSH2 0x80A JUMPI DUP2 PUSH2 0x2914 PUSH2 0x2927 SWAP3 CALLDATASIZE SWAP1 PUSH1 0x4 ADD PUSH2 0x5034 JUMP JUMPDEST DUP2 PUSH1 0x40 MLOAD SWAP4 DUP3 DUP6 DUP1 SWAP5 MLOAD SWAP4 DUP5 SWAP3 ADD PUSH2 0x5083 JUMP JUMPDEST DUP2 ADD PUSH1 0xD DUP2 MSTORE SUB ADD SWAP1 KECCAK256 DUP1 SLOAD SWAP2 PUSH2 0x293D DUP4 PUSH2 0x573A JUMP JUMPDEST SWAP3 PUSH2 0x294B PUSH1 0x40 MLOAD SWAP5 DUP6 PUSH2 0x4FC1 JUMP JUMPDEST DUP1 DUP5 MSTORE DUP2 DUP5 ADD DUP1 SWAP4 PUSH1 0x0 MSTORE DUP3 PUSH1 0x0 KECCAK256 PUSH1 0x0 SWAP2 JUMPDEST DUP4 DUP4 LT PUSH2 0x2A2A JUMPI POP POP POP POP PUSH1 0x40 MLOAD SWAP3 DUP2 DUP5 ADD SWAP1 DUP3 DUP6 MSTORE MLOAD DUP1 SWAP2 MSTORE PUSH1 0x40 DUP5 ADD SWAP2 PUSH1 0x40 DUP3 PUSH1 0x5 SHL DUP7 ADD ADD SWAP4 SWAP3 PUSH1 0x0 SWAP7 JUMPDEST DUP4 DUP9 LT PUSH2 0x2999 JUMPI DUP7 DUP7 SUB DUP8 RETURN JUMPDEST SWAP1 SWAP2 SWAP3 SWAP4 SWAP5 DUP4 DUP1 PUSH1 0x1 SWAP3 PUSH1 0x3F NOT DUP11 DUP3 SUB ADD DUP7 MSTORE DUP9 MLOAD SWAP1 DUP2 MLOAD DUP2 MSTORE PUSH2 0x2A03 PUSH2 0x29CB DUP5 DUP5 ADD MLOAD DUP9 DUP7 DUP6 ADD MSTORE DUP9 DUP5 ADD SWAP1 PUSH2 0x50C6 JUMP JUMPDEST PUSH1 0x40 DUP5 ADD MLOAD PUSH2 0x29D9 DUP2 PUSH2 0x50EB JUMP JUMPDEST PUSH1 0x40 DUP5 ADD MSTORE PUSH2 0x29F0 PUSH1 0x60 DUP1 DUP7 ADD MLOAD SWAP1 DUP6 ADD SWAP1 PUSH2 0x5366 JUMP JUMPDEST PUSH1 0x80 DUP1 DUP6 ADD MLOAD SWAP1 DUP5 DUP4 SUB SWAP1 DUP6 ADD MSTORE PUSH2 0x50C6 JUMP JUMPDEST SWAP2 PUSH1 0xA0 DUP1 DUP3 ADD MLOAD SWAP1 DUP4 ADD MSTORE PUSH1 0xC0 DUP1 SWAP2 ADD MLOAD ISZERO ISZERO SWAP2 ADD MSTORE SWAP8 ADD SWAP4 ADD SWAP8 ADD SWAP7 SWAP1 SWAP4 SWAP3 SWAP2 SWAP4 PUSH2 0x298C JUMP JUMPDEST PUSH1 0x6 DUP6 PUSH1 0x1 SWAP3 PUSH2 0x2A3C DUP6 SWAP11 SWAP9 SWAP11 PUSH2 0x5B40 JUMP JUMPDEST DUP2 MSTORE ADD SWAP3 ADD SWAP3 ADD SWAP2 SWAP1 SWAP6 SWAP4 SWAP6 PUSH2 0x295E JUMP JUMPDEST CALLVALUE PUSH2 0x80A JUMPI PUSH1 0x20 DUP1 PUSH1 0x3 NOT CALLDATASIZE ADD SLT PUSH2 0x80A JUMPI PUSH1 0x4 CALLDATALOAD PUSH1 0x1 PUSH1 0x1 PUSH1 0x40 SHL SUB DUP2 GT PUSH2 0x80A JUMPI PUSH2 0x2A7E SWAP1 CALLDATASIZE SWAP1 PUSH1 0x4 ADD PUSH2 0x5034 JUMP JUMPDEST SWAP1 PUSH2 0x2A99 DUP2 PUSH1 0x0 SWAP4 DUP2 PUSH1 0x40 MLOAD SWAP4 DUP3 DUP6 DUP1 SWAP5 MLOAD SWAP4 DUP5 SWAP3 ADD PUSH2 0x5083 JUMP JUMPDEST DUP2 ADD PUSH1 0xD DUP2 MSTORE SUB ADD SWAP1 KECCAK256 SWAP2 DUP3 SLOAD PUSH2 0x2AAF DUP2 PUSH2 0x573A JUMP JUMPDEST SWAP4 PUSH2 0x2ABD PUSH1 0x40 MLOAD SWAP6 DUP7 PUSH2 0x4FC1 JUMP JUMPDEST DUP2 DUP6 MSTORE PUSH1 0x0 SWAP1 DUP2 MSTORE DUP4 DUP2 KECCAK256 DUP5 DUP1 DUP8 ADD JUMPDEST DUP5 DUP5 LT PUSH2 0x2B24 JUMPI DUP8 DUP3 DUP8 DUP3 MLOAD PUSH1 0x0 JUMPDEST DUP5 MLOAD DUP2 LT ISZERO PUSH2 0x2B15 JUMPI PUSH1 0xC0 PUSH2 0x2AF1 DUP3 DUP8 PUSH2 0x578C JUMP JUMPDEST MLOAD ADD MLOAD PUSH2 0x2B01 JUMPI JUMPDEST PUSH1 0x1 ADD PUSH2 0x2ADC JUMP JUMPDEST SWAP2 PUSH2 0x2B0D PUSH1 0x1 SWAP2 PUSH2 0x57A0 JUMP JUMPDEST SWAP3 SWAP1 POP PUSH2 0x2AF9 JUMP JUMPDEST POP SWAP1 PUSH1 0x40 SWAP3 DUP4 MLOAD SWAP3 DUP4 MSTORE DUP3 ADD MSTORE RETURN JUMPDEST PUSH1 0x1 SWAP2 PUSH1 0x6 SWAP2 PUSH2 0x2B33 DUP6 PUSH2 0x5B40 JUMP JUMPDEST DUP2 MSTORE ADD SWAP3 ADD SWAP3 ADD SWAP2 SWAP1 DUP6 SWAP1 PUSH2 0x2ACD JUMP JUMPDEST CALLVALUE PUSH2 0x80A JUMPI PUSH1 0x20 CALLDATASIZE PUSH1 0x3 NOT ADD SLT PUSH2 0x80A JUMPI PUSH1 0x4 CALLDATALOAD PUSH1 0x0 MSTORE PUSH1 0x14 PUSH1 0x20 MSTORE PUSH1 0x20 PUSH1 0x40 PUSH1 0x0 KECCAK256 SLOAD ISZERO ISZERO PUSH1 0x40 MLOAD SWAP1 DUP2 MSTORE RETURN JUMPDEST CALLVALUE PUSH2 0x80A JUMPI PUSH1 0x20 PUSH2 0x2B84 PUSH2 0x15B4 CALLDATASIZE PUSH2 0x5052 JUMP JUMPDEST DUP2 ADD PUSH1 0xC DUP2 MSTORE SUB ADD SWAP1 KECCAK256 SWAP1 PUSH1 0x0 MSTORE PUSH1 0x20 MSTORE PUSH1 0x20 PUSH1 0x40 PUSH1 0x0 KECCAK256 SLOAD PUSH1 0x40 MLOAD SWAP1 DUP2 MSTORE RETURN JUMPDEST CALLVALUE PUSH2 0x80A JUMPI PUSH2 0x2BB3 CALLDATASIZE PUSH2 0x5328 JUMP JUMPDEST PUSH1 0x0 SLOAD PUSH1 0x40 MLOAD PUSH3 0xB0C809 PUSH1 0xE0 SHL DUP2 MSTORE CALLER PUSH1 0x4 DUP3 ADD MSTORE SWAP3 SWAP4 PUSH1 0x20 SWAP3 SWAP1 SWAP2 DUP4 SWAP1 DUP6 SWAP1 PUSH1 0x24 SWAP1 DUP3 SWAP1 PUSH1 0x1 PUSH1 0x1 PUSH1 0xA0 SHL SUB AND GAS STATICCALL SWAP4 DUP5 ISZERO PUSH2 0x817 JUMPI PUSH1 0x0 SWAP5 PUSH2 0x2DE7 JUMPI JUMPDEST POP PUSH2 0x2BFE DUP5 ISZERO ISZERO PUSH2 0x54EC JUMP JUMPDEST PUSH1 0x40 MLOAD DUP3 MLOAD SWAP1 DUP5 DUP2 DUP2 DUP7 ADD SWAP4 PUSH2 0x2C15 DUP2 DUP4 DUP8 PUSH2 0x5083 JUMP JUMPDEST DUP2 ADD PUSH1 0x11 DUP2 MSTORE SUB ADD SWAP1 KECCAK256 DUP7 PUSH1 0x0 MSTORE DUP5 MSTORE PUSH1 0x40 PUSH1 0x0 KECCAK256 DUP6 PUSH1 0x0 MSTORE DUP5 MSTORE PUSH1 0xFF PUSH1 0x40 PUSH1 0x0 KECCAK256 SLOAD AND ISZERO PUSH2 0x2DAA JUMPI PUSH2 0x2CA5 SWAP1 PUSH1 0x40 MLOAD DUP6 DUP2 DUP7 MLOAD PUSH2 0x2C54 DUP2 DUP4 DUP8 PUSH2 0x5083 JUMP JUMPDEST DUP2 ADD PUSH1 0x12 DUP2 MSTORE SUB ADD SWAP1 KECCAK256 DUP8 PUSH1 0x0 MSTORE DUP6 MSTORE PUSH1 0x40 PUSH1 0x0 KECCAK256 DUP7 PUSH1 0x0 MSTORE DUP6 MSTORE PUSH2 0x2C8B DUP6 PUSH1 0x40 PUSH1 0x0 KECCAK256 SLOAD SWAP3 PUSH1 0x40 MLOAD DUP1 SWAP4 DUP2 SWAP3 DUP10 MLOAD SWAP3 DUP4 SWAP2 PUSH2 0x5083 JUMP JUMPDEST DUP2 ADD PUSH1 0x10 DUP2 MSTORE SUB ADD SWAP1 KECCAK256 DUP8 PUSH1 0x0 MSTORE DUP6 MSTORE PUSH1 0x40 PUSH1 0x0 KECCAK256 PUSH2 0x525D JUMP JUMPDEST POP SWAP2 PUSH1 0xFF PUSH1 0x3 DUP5 ADD SLOAD AND ISZERO PUSH2 0x2D65 JUMPI PUSH1 0x1 DUP4 ADD SWAP3 PUSH1 0xFF DUP5 SLOAD AND SWAP3 DUP1 ISZERO ISZERO SWAP4 ISZERO ISZERO SWAP5 DUP5 DUP7 EQ PUSH2 0x2D2B JUMPI SWAP3 PUSH1 0x60 SWAP5 SWAP3 PUSH2 0x2D0D PUSH2 0x2D18 SWAP4 PUSH32 0x83316B3299EA5A7386901A45E5D604103B0C75A2D3FF829A25E4A6D645C6B7F3 SWAP9 SWAP7 SWAP1 PUSH1 0xFF DUP1 NOT DUP4 SLOAD AND SWAP2 ISZERO ISZERO AND OR SWAP1 SSTORE JUMP JUMPDEST PUSH1 0x2 TIMESTAMP SWAP2 ADD SSTORE PUSH2 0x55B3 JUMP JUMPDEST SWAP5 PUSH1 0x40 MLOAD SWAP3 DUP4 MSTORE DUP3 ADD MSTORE TIMESTAMP PUSH1 0x40 DUP3 ADD MSTORE LOG4 STOP JUMPDEST PUSH1 0x40 MLOAD PUSH3 0x461BCD PUSH1 0xE5 SHL DUP2 MSTORE PUSH1 0x4 DUP2 ADD DUP9 SWAP1 MSTORE PUSH1 0x12 PUSH1 0x24 DUP3 ADD MSTORE PUSH18 0x416C726561647920746869732076616C7565 PUSH1 0x70 SHL PUSH1 0x44 DUP3 ADD MSTORE PUSH1 0x64 SWAP1 REVERT JUMPDEST PUSH1 0x40 MLOAD PUSH3 0x461BCD PUSH1 0xE5 SHL DUP2 MSTORE PUSH1 0x4 DUP2 ADD DUP6 SWAP1 MSTORE PUSH1 0x1B PUSH1 0x24 DUP3 ADD MSTORE PUSH32 0x5265616374696F6E20686173206265656E207265747261637465640000000000 PUSH1 0x44 DUP3 ADD MSTORE PUSH1 0x64 SWAP1 REVERT JUMPDEST PUSH1 0x40 MLOAD PUSH3 0x461BCD PUSH1 0xE5 SHL DUP2 MSTORE PUSH1 0x4 DUP2 ADD DUP6 SWAP1 MSTORE PUSH1 0x15 PUSH1 0x24 DUP3 ADD MSTORE PUSH21 0x4E6F207265616374696F6E20746F206D6F64696679 PUSH1 0x58 SHL PUSH1 0x44 DUP3 ADD MSTORE PUSH1 0x64 SWAP1 REVERT JUMPDEST SWAP1 SWAP4 POP DUP3 DUP2 DUP2 RETURNDATASIZE DUP4 GT PUSH2 0x2E0F JUMPI JUMPDEST PUSH2 0x2DFF DUP2 DUP4 PUSH2 0x4FC1 JUMP JUMPDEST DUP2 ADD SUB SLT PUSH2 0x80A JUMPI MLOAD SWAP3 DUP6 PUSH2 0x2BF2 JUMP JUMPDEST POP RETURNDATASIZE PUSH2 0x2DF5 JUMP JUMPDEST CALLVALUE PUSH2 0x80A JUMPI PUSH2 0x2E24 CALLDATASIZE PUSH2 0x5328 JUMP JUMPDEST PUSH1 0x0 SLOAD PUSH1 0x40 MLOAD PUSH4 0x45ECD02F PUSH1 0xE0 SHL DUP2 MSTORE CALLER PUSH1 0x4 DUP3 ADD MSTORE SWAP3 SWAP4 PUSH1 0x24 SWAP4 PUSH1 0x20 SWAP4 SWAP3 PUSH1 0x1 PUSH1 0x1 PUSH1 0xA0 SHL SUB AND SWAP1 DUP5 DUP2 DUP8 DUP2 DUP6 GAS STATICCALL DUP1 ISZERO PUSH2 0x817 JUMPI PUSH2 0x2E6B SWAP2 PUSH1 0x0 SWAP2 PUSH2 0x32A7 JUMPI POP PUSH2 0x57C7 JUMP JUMPDEST PUSH1 0x40 MLOAD SWAP1 DUP3 MLOAD SWAP2 DUP6 DUP2 DUP2 DUP7 ADD SWAP5 PUSH2 0x2E83 DUP2 DUP4 DUP9 PUSH2 0x5083 JUMP JUMPDEST DUP2 ADD PUSH1 0xE DUP2 MSTORE SUB ADD SWAP1 KECCAK256 DUP8 PUSH1 0x0 MSTORE DUP6 MSTORE PUSH1 0xFF PUSH1 0x40 PUSH1 0x0 KECCAK256 SLOAD AND ISZERO PUSH2 0x3263 JUMPI SWAP1 PUSH2 0x2F2C SWAP2 PUSH1 0x40 MLOAD DUP7 DUP2 DUP7 MLOAD PUSH2 0x2EB8 DUP2 DUP4 DUP9 PUSH2 0x5083 JUMP JUMPDEST DUP2 ADD PUSH1 0xF DUP2 MSTORE SUB ADD SWAP1 KECCAK256 DUP9 PUSH1 0x0 MSTORE DUP7 MSTORE PUSH1 0x40 PUSH1 0x0 KECCAK256 SLOAD SWAP1 DUP7 PUSH1 0x1 PUSH2 0x2F10 PUSH2 0x2EFF DUP6 PUSH2 0x2EF0 DUP6 DUP10 DUP13 PUSH1 0x40 MLOAD SWAP4 DUP5 SWAP3 DUP4 SWAP3 MLOAD SWAP3 DUP4 SWAP2 PUSH2 0x5083 JUMP JUMPDEST DUP2 ADD PUSH1 0xD DUP2 MSTORE SUB ADD SWAP1 KECCAK256 PUSH2 0x5441 JUMP JUMPDEST POP PUSH2 0x10EF PUSH1 0x40 MLOAD DUP1 SWAP5 DUP2 SWAP4 ADD PUSH2 0x515D JUMP JUMPDEST PUSH1 0x40 MLOAD DUP1 SWAP7 DUP2 SWAP3 PUSH4 0x286B6AB PUSH1 0xE3 SHL DUP4 MSTORE CALLER SWAP1 PUSH1 0x4 DUP5 ADD PUSH2 0x580A JUMP JUMPDEST SUB DUP2 DUP5 GAS STATICCALL SWAP1 DUP2 ISZERO PUSH2 0x817 JUMPI PUSH2 0x2F4C DUP9 SWAP3 DUP11 SWAP7 PUSH1 0x0 SWAP2 PUSH2 0x3246 JUMPI POP PUSH2 0x5832 JUMP JUMPDEST PUSH1 0x40 MLOAD PUSH3 0xB0C809 PUSH1 0xE0 SHL DUP2 MSTORE CALLER PUSH1 0x4 DUP3 ADD MSTORE SWAP9 DUP10 SWAP2 DUP3 SWAP1 GAS STATICCALL SWAP7 DUP8 ISZERO PUSH2 0x817 JUMPI PUSH1 0x0 SWAP8 PUSH2 0x3217 JUMPI JUMPDEST POP PUSH2 0x2F80 DUP8 ISZERO ISZERO PUSH2 0x54EC JUMP JUMPDEST DUP8 DUP8 EQ PUSH2 0x31D5 JUMPI PUSH1 0x40 MLOAD DUP7 DUP2 DUP7 MLOAD PUSH2 0x2F99 DUP2 DUP4 DUP9 PUSH2 0x5083 JUMP JUMPDEST DUP2 ADD PUSH1 0x11 DUP2 MSTORE SUB ADD SWAP1 KECCAK256 DUP9 PUSH1 0x0 MSTORE DUP7 MSTORE PUSH1 0x40 PUSH1 0x0 KECCAK256 DUP8 PUSH1 0x0 MSTORE DUP7 MSTORE PUSH1 0xFF PUSH1 0x40 PUSH1 0x0 KECCAK256 SLOAD AND PUSH2 0x319F JUMPI PUSH1 0xFF PUSH1 0x5 PUSH2 0x2FDE PUSH2 0x2FE7 SWAP4 PUSH1 0x40 MLOAD DUP11 DUP2 DUP11 MLOAD PUSH2 0x2EF0 DUP2 DUP4 DUP13 PUSH2 0x5083 JUMP JUMPDEST POP ADD SLOAD AND PUSH2 0x5530 JUMP JUMPDEST PUSH1 0x40 MLOAD DUP6 DUP2 DUP6 MLOAD PUSH2 0x2FF9 DUP2 DUP4 DUP8 PUSH2 0x5083 JUMP JUMPDEST DUP2 ADD PUSH1 0x10 DUP2 MSTORE SUB ADD SWAP1 KECCAK256 DUP8 PUSH1 0x0 MSTORE DUP6 MSTORE PUSH1 0x40 PUSH1 0x0 KECCAK256 SLOAD SWAP2 PUSH1 0x40 MLOAD DUP7 DUP2 DUP7 MLOAD PUSH2 0x3022 DUP2 DUP4 DUP9 PUSH2 0x5083 JUMP JUMPDEST DUP2 ADD PUSH1 0x10 DUP2 MSTORE SUB ADD SWAP1 KECCAK256 DUP9 PUSH1 0x0 MSTORE DUP7 MSTORE PUSH1 0x40 PUSH1 0x0 KECCAK256 PUSH1 0x40 MLOAD PUSH2 0x3043 DUP2 PUSH2 0x4F70 JUMP JUMPDEST DUP9 DUP2 MSTORE DUP8 DUP2 ADD SWAP7 ISZERO ISZERO SWAP7 DUP8 DUP2 MSTORE PUSH1 0x40 DUP3 ADD SWAP2 TIMESTAMP DUP4 MSTORE PUSH1 0x60 DUP2 ADD SWAP4 PUSH1 0x1 DUP6 MSTORE DUP1 SLOAD SWAP1 PUSH1 0x1 PUSH1 0x40 SHL DUP3 LT ISZERO PUSH2 0x318A JUMPI SWAP1 PUSH2 0x3080 SWAP2 PUSH1 0x1 DUP3 ADD DUP2 SSTORE PUSH2 0x525D JUMP JUMPDEST SWAP6 SWAP1 SWAP6 PUSH2 0x3176 JUMPI POP SWAP5 PUSH2 0x30FA PUSH1 0x40 SWAP9 SWAP6 PUSH1 0x3 PUSH32 0xA63D8144C55FB5CA0CBCBEEEA8E1B365CC113F4AB5AAB289DB2285D783E6B766 SWAP12 SWAP10 SWAP7 PUSH2 0x3144 SWAP7 PUSH2 0x30DE DUP16 SWAP8 PUSH2 0x3168 SWAP13 MLOAD DUP7 SSTORE MLOAD ISZERO ISZERO PUSH1 0x1 DUP7 ADD SWAP1 PUSH1 0xFF DUP1 NOT DUP4 SLOAD AND SWAP2 ISZERO ISZERO AND OR SWAP1 SSTORE JUMP JUMPDEST MLOAD PUSH1 0x2 DUP5 ADD SSTORE MLOAD ISZERO ISZERO SWAP2 ADD SWAP1 PUSH1 0xFF DUP1 NOT DUP4 SLOAD AND SWAP2 ISZERO ISZERO AND OR SWAP1 SSTORE JUMP JUMPDEST DUP8 MLOAD DUP3 DUP2 DUP8 MLOAD PUSH2 0x310B DUP2 DUP4 DUP8 PUSH2 0x5083 JUMP JUMPDEST DUP2 ADD PUSH1 0x11 DUP2 MSTORE SUB ADD SWAP1 KECCAK256 DUP13 PUSH1 0x0 MSTORE DUP3 MSTORE DUP8 PUSH1 0x0 KECCAK256 DUP12 PUSH1 0x0 MSTORE DUP3 MSTORE DUP8 PUSH1 0x0 KECCAK256 PUSH1 0x1 PUSH1 0xFF NOT DUP3 SLOAD AND OR SWAP1 SSTORE DUP8 MLOAD DUP1 SWAP4 DUP2 SWAP3 DUP8 MLOAD SWAP3 DUP4 SWAP2 PUSH2 0x5083 JUMP JUMPDEST DUP2 ADD PUSH1 0x12 DUP2 MSTORE SUB ADD SWAP1 KECCAK256 DUP10 PUSH1 0x0 MSTORE DUP8 MSTORE DUP5 PUSH1 0x0 KECCAK256 DUP9 PUSH1 0x0 MSTORE DUP8 MSTORE DUP5 PUSH1 0x0 KECCAK256 SSTORE PUSH2 0x55B3 JUMP JUMPDEST SWAP4 DUP3 MLOAD SWAP2 DUP3 MSTORE TIMESTAMP SWAP1 DUP3 ADD MSTORE LOG4 STOP JUMPDEST PUSH4 0x4E487B71 PUSH1 0xE0 SHL PUSH1 0x0 MSTORE PUSH1 0x0 PUSH1 0x4 MSTORE PUSH1 0x0 REVERT JUMPDEST DUP7 PUSH4 0x4E487B71 PUSH1 0xE0 SHL PUSH1 0x0 MSTORE PUSH1 0x41 PUSH1 0x4 MSTORE PUSH1 0x0 REVERT JUMPDEST PUSH1 0x40 MLOAD PUSH3 0x461BCD PUSH1 0xE5 SHL DUP2 MSTORE PUSH1 0x4 DUP2 ADD DUP8 SWAP1 MSTORE PUSH1 0xF DUP2 DUP6 ADD MSTORE PUSH15 0x105B1C9958591E481C995858DD1959 PUSH1 0x8A SHL PUSH1 0x44 DUP3 ADD MSTORE PUSH1 0x64 SWAP1 REVERT JUMPDEST PUSH1 0x64 DUP4 DUP8 PUSH1 0x40 MLOAD SWAP2 PUSH3 0x461BCD PUSH1 0xE5 SHL DUP4 MSTORE DUP2 PUSH1 0x4 DUP5 ADD MSTORE DUP3 ADD MSTORE PUSH32 0x43616E6E6F7420726561637420746F20796F7572206F776E2064697370757465 PUSH1 0x44 DUP3 ADD MSTORE REVERT JUMPDEST SWAP1 SWAP7 POP DUP6 DUP2 DUP2 RETURNDATASIZE DUP4 GT PUSH2 0x323F JUMPI JUMPDEST PUSH2 0x322F DUP2 DUP4 PUSH2 0x4FC1 JUMP JUMPDEST DUP2 ADD SUB SLT PUSH2 0x80A JUMPI MLOAD SWAP6 DUP9 PUSH2 0x2F74 JUMP JUMPDEST POP RETURNDATASIZE PUSH2 0x3225 JUMP JUMPDEST PUSH2 0x325D SWAP2 POP DUP5 RETURNDATASIZE DUP7 GT PUSH2 0x865 JUMPI PUSH2 0x857 DUP2 DUP4 PUSH2 0x4FC1 JUMP JUMPDEST DUP13 PUSH2 0x466 JUMP JUMPDEST PUSH1 0x40 MLOAD PUSH3 0x461BCD PUSH1 0xE5 SHL DUP2 MSTORE PUSH1 0x4 DUP2 ADD DUP7 SWAP1 MSTORE PUSH1 0x19 DUP2 DUP9 ADD MSTORE PUSH32 0x4E6F20646973707574652066726F6D2074686973207573657200000000000000 PUSH1 0x44 DUP3 ADD MSTORE PUSH1 0x64 SWAP1 REVERT JUMPDEST PUSH2 0x32BE SWAP2 POP DUP7 RETURNDATASIZE DUP9 GT PUSH2 0x865 JUMPI PUSH2 0x857 DUP2 DUP4 PUSH2 0x4FC1 JUMP JUMPDEST DUP9 PUSH2 0x424 JUMP JUMPDEST CALLVALUE PUSH2 0x80A JUMPI PUSH1 0x0 CALLDATASIZE PUSH1 0x3 NOT ADD SLT PUSH2 0x80A JUMPI PUSH32 0x0 PUSH1 0x1 PUSH1 0x1 PUSH1 0xA0 SHL SUB AND ADDRESS SUB PUSH2 0x332F JUMPI PUSH1 0x20 PUSH1 0x40 MLOAD PUSH32 0x360894A13BA1A3210667C828492DB98DCA3E2076CC3735A920A3CA505D382BBC DUP2 MSTORE RETURN JUMPDEST PUSH1 0x40 MLOAD PUSH4 0x703E46DD PUSH1 0xE1 SHL DUP2 MSTORE PUSH1 0x4 SWAP1 REVERT JUMPDEST CALLVALUE PUSH2 0x80A JUMPI PUSH1 0x60 CALLDATASIZE PUSH1 0x3 NOT ADD SLT PUSH2 0x80A JUMPI PUSH1 0x1 PUSH1 0x1 PUSH1 0x40 SHL SUB PUSH1 0x4 CALLDATALOAD DUP2 DUP2 GT PUSH2 0x80A JUMPI PUSH2 0x3372 SWAP1 CALLDATASIZE SWAP1 PUSH1 0x4 ADD PUSH2 0x5034 JUMP JUMPDEST PUSH1 0x24 SWAP2 DUP3 CALLDATALOAD SWAP1 DUP2 GT PUSH2 0x80A JUMPI PUSH2 0x338C SWAP1 CALLDATASIZE SWAP1 PUSH1 0x4 ADD PUSH2 0x5034 JUMP JUMPDEST SWAP1 PUSH2 0x3395 PUSH2 0x50B6 JUMP JUMPDEST PUSH1 0x0 SLOAD PUSH1 0x40 MLOAD PUSH4 0x45ECD02F PUSH1 0xE0 SHL DUP2 MSTORE CALLER PUSH1 0x4 DUP3 ADD MSTORE PUSH1 0x20 SWAP5 PUSH1 0x1 PUSH1 0x1 PUSH1 0xA0 SHL SUB SWAP1 SWAP3 AND SWAP3 SWAP1 DUP6 DUP2 DUP9 DUP2 DUP8 GAS STATICCALL DUP1 ISZERO PUSH2 0x817 JUMPI PUSH2 0x33D9 SWAP2 PUSH1 0x0 SWAP2 PUSH2 0x3701 JUMPI POP PUSH2 0x57C7 JUMP JUMPDEST PUSH1 0x40 MLOAD PUSH4 0x286B6AB PUSH1 0xE3 SHL DUP2 MSTORE DUP6 DUP2 DUP1 PUSH2 0x33F7 CALLER DUP10 PUSH1 0x4 DUP5 ADD PUSH2 0x580A JUMP JUMPDEST SUB DUP2 DUP8 GAS STATICCALL DUP1 ISZERO PUSH2 0x817 JUMPI DUP8 SWAP3 PUSH2 0x3419 PUSH1 0xFF SWAP3 DUP10 SWAP5 PUSH1 0x0 SWAP2 PUSH2 0x36E4 JUMPI POP PUSH2 0x5832 JUMP JUMPDEST PUSH2 0x3425 DUP8 MLOAD ISZERO ISZERO PUSH2 0x5A2D JUMP JUMPDEST PUSH2 0x3431 DUP6 MLOAD ISZERO ISZERO PUSH2 0x5A79 JUMP JUMPDEST AND SWAP4 PUSH1 0x1 DUP6 LT ISZERO DUP1 PUSH2 0x36D9 JUMPI JUMPDEST PUSH2 0x3447 SWAP1 PUSH2 0x5AC5 JUMP JUMPDEST PUSH1 0x40 MLOAD PUSH3 0xB0C809 PUSH1 0xE0 SHL DUP2 MSTORE CALLER PUSH1 0x4 DUP3 ADD MSTORE SWAP8 DUP9 SWAP2 DUP3 SWAP1 GAS STATICCALL SWAP6 DUP7 ISZERO PUSH2 0x817 JUMPI PUSH1 0x0 SWAP7 PUSH2 0x36AA JUMPI JUMPDEST POP PUSH2 0x347B DUP7 ISZERO ISZERO PUSH2 0x54EC JUMP JUMPDEST PUSH1 0x40 MLOAD DUP3 MLOAD SWAP1 DUP7 DUP2 DUP2 DUP7 ADD SWAP4 PUSH2 0x3492 DUP2 DUP4 DUP8 PUSH2 0x5083 JUMP JUMPDEST DUP2 ADD PUSH1 0xB DUP2 MSTORE SUB ADD SWAP1 KECCAK256 DUP8 PUSH1 0x0 MSTORE DUP7 MSTORE PUSH1 0xFF PUSH1 0x40 PUSH1 0x0 KECCAK256 SLOAD AND PUSH2 0x3666 JUMPI PUSH1 0x40 MLOAD DUP7 DUP2 DUP6 MLOAD PUSH2 0x34C1 DUP2 DUP4 DUP8 PUSH2 0x5083 JUMP JUMPDEST DUP2 ADD PUSH1 0xA DUP2 MSTORE SUB ADD SWAP1 KECCAK256 SLOAD SWAP2 PUSH1 0x40 MLOAD DUP8 DUP2 DUP7 MLOAD PUSH2 0x34DF DUP2 DUP4 DUP9 PUSH2 0x5083 JUMP JUMPDEST DUP2 ADD PUSH1 0xA DUP2 MSTORE SUB ADD SWAP1 KECCAK256 PUSH2 0x34F2 DUP7 PUSH2 0x50EB JUMP JUMPDEST PUSH1 0x40 MLOAD PUSH2 0x34FE DUP2 PUSH2 0x4F55 JUMP JUMPDEST DUP10 DUP2 MSTORE DUP9 DUP2 ADD DUP9 DUP2 MSTORE PUSH1 0x40 DUP3 ADD SWAP1 PUSH2 0x3515 DUP10 PUSH2 0x50EB JUMP JUMPDEST DUP9 DUP3 MSTORE PUSH1 0x60 DUP4 ADD SWAP3 TIMESTAMP DUP5 MSTORE PUSH1 0x80 DUP2 ADD SWAP5 PUSH1 0x1 DUP7 MSTORE DUP1 SLOAD SWAP1 PUSH1 0x1 PUSH1 0x40 SHL DUP3 LT ISZERO PUSH2 0x3651 JUMPI SWAP1 PUSH2 0x3548 SWAP2 PUSH1 0x1 DUP3 ADD DUP2 SSTORE PUSH2 0x5425 JUMP JUMPDEST SWAP7 SWAP1 SWAP7 PUSH2 0x3176 JUMPI POP SWAP6 PUSH2 0x35BD PUSH2 0xF2F SWAP7 PUSH1 0x4 PUSH1 0x40 SWAP12 SWAP8 DUP16 SWAP6 SWAP8 PUSH2 0x35A1 PUSH32 0x5DDCEC906A8EDFB96C9CF15F08C0FE50115A5547EF76AB3A944ED41ACF127D01 SWAP16 SWAP14 SWAP10 SWAP9 PUSH2 0x601 PUSH2 0x35FD SWAP11 PUSH2 0x363A SWAP16 MLOAD DUP9 SSTORE MLOAD PUSH1 0x1 DUP9 ADD PUSH2 0x58CE JUMP JUMPDEST MLOAD PUSH1 0x3 DUP5 ADD SSTORE MLOAD ISZERO ISZERO SWAP2 ADD SWAP1 PUSH1 0xFF DUP1 NOT DUP4 SLOAD AND SWAP2 ISZERO ISZERO AND OR SWAP1 SSTORE JUMP JUMPDEST DUP9 MLOAD DUP3 DUP2 DUP8 MLOAD PUSH2 0x35CE DUP2 DUP4 DUP8 PUSH2 0x5083 JUMP JUMPDEST DUP2 ADD PUSH1 0xB DUP2 MSTORE SUB ADD SWAP1 KECCAK256 DUP14 PUSH1 0x0 MSTORE DUP3 MSTORE DUP9 PUSH1 0x0 KECCAK256 PUSH1 0x1 PUSH1 0xFF NOT DUP3 SLOAD AND OR SWAP1 SSTORE DUP9 MLOAD DUP1 SWAP4 DUP2 SWAP3 DUP8 MLOAD SWAP3 DUP4 SWAP2 PUSH2 0x5083 JUMP JUMPDEST DUP2 ADD PUSH1 0xC DUP2 MSTORE SUB ADD SWAP1 KECCAK256 DUP11 PUSH1 0x0 MSTORE DUP10 MSTORE DUP6 PUSH1 0x0 KECCAK256 SSTORE PUSH1 0x15 DUP9 MSTORE PUSH2 0x3623 DUP2 DUP7 PUSH1 0x0 KECCAK256 PUSH2 0x5B05 JUMP JUMPDEST PUSH2 0x362E PUSH1 0x17 SLOAD PUSH2 0x57A0 JUMP JUMPDEST PUSH1 0x17 SSTORE PUSH2 0x726 DUP5 PUSH2 0x50EB JUMP JUMPDEST SWAP5 DUP3 MLOAD SWAP2 PUSH2 0x3647 DUP2 PUSH2 0x50EB JUMP JUMPDEST DUP3 MSTORE TIMESTAMP SWAP1 DUP3 ADD MSTORE LOG4 STOP JUMPDEST DUP8 PUSH4 0x4E487B71 PUSH1 0xE0 SHL PUSH1 0x0 MSTORE PUSH1 0x41 PUSH1 0x4 MSTORE PUSH1 0x0 REVERT JUMPDEST PUSH1 0x40 MLOAD PUSH3 0x461BCD PUSH1 0xE5 SHL DUP2 MSTORE PUSH1 0x4 DUP2 ADD DUP8 SWAP1 MSTORE PUSH1 0x1A DUP2 DUP5 ADD MSTORE PUSH32 0x416C726561647920766572696669656420746869732068617368000000000000 PUSH1 0x44 DUP3 ADD MSTORE PUSH1 0x64 SWAP1 REVERT JUMPDEST SWAP1 SWAP6 POP DUP5 DUP2 DUP2 RETURNDATASIZE DUP4 GT PUSH2 0x36D2 JUMPI JUMPDEST PUSH2 0x36C2 DUP2 DUP4 PUSH2 0x4FC1 JUMP JUMPDEST DUP2 ADD SUB SLT PUSH2 0x80A JUMPI MLOAD SWAP5 DUP7 PUSH2 0x346F JUMP JUMPDEST POP RETURNDATASIZE PUSH2 0x36B8 JUMP JUMPDEST POP PUSH1 0x3 DUP6 GT ISZERO PUSH2 0x343E JUMP JUMPDEST PUSH2 0x36FB SWAP2 POP DUP6 RETURNDATASIZE DUP8 GT PUSH2 0x865 JUMPI PUSH2 0x857 DUP2 DUP4 PUSH2 0x4FC1 JUMP JUMPDEST DUP12 PUSH2 0x466 JUMP JUMPDEST PUSH2 0x32BE SWAP2 POP DUP8 RETURNDATASIZE DUP10 GT PUSH2 0x865 JUMPI PUSH2 0x857 DUP2 DUP4 PUSH2 0x4FC1 JUMP JUMPDEST PUSH1 0x40 CALLDATASIZE PUSH1 0x3 NOT ADD SLT PUSH2 0x80A JUMPI PUSH2 0x372C PUSH2 0x52DD JUMP JUMPDEST PUSH1 0x24 CALLDATALOAD PUSH1 0x1 PUSH1 0x1 PUSH1 0x40 SHL SUB DUP2 GT PUSH2 0x80A JUMPI CALLDATASIZE PUSH1 0x23 DUP3 ADD SLT ISZERO PUSH2 0x80A JUMPI PUSH2 0x375C SWAP1 CALLDATASIZE SWAP1 PUSH1 0x24 DUP2 PUSH1 0x4 ADD CALLDATALOAD SWAP2 ADD PUSH2 0x4FFD JUMP JUMPDEST SWAP1 PUSH1 0x1 PUSH1 0x1 PUSH1 0xA0 SHL SUB PUSH32 0x0 DUP2 AND ADDRESS DUP2 EQ SWAP1 DUP2 ISZERO PUSH2 0x3921 JUMPI JUMPDEST POP PUSH2 0x332F JUMPI PUSH2 0x37A7 DUP2 PUSH1 0x1 SLOAD AND CALLER EQ PUSH2 0x587E JUMP JUMPDEST PUSH1 0x40 MLOAD PUSH4 0x52D1902D PUSH1 0xE0 SHL DUP2 MSTORE SWAP1 DUP3 AND SWAP2 PUSH1 0x20 SWAP2 DUP3 DUP2 PUSH1 0x4 DUP2 DUP8 GAS STATICCALL PUSH1 0x0 SWAP2 DUP2 PUSH2 0x38F2 JUMPI JUMPDEST POP PUSH2 0x37EA JUMPI PUSH1 0x40 MLOAD PUSH4 0x4C9C8CE3 PUSH1 0xE0 SHL DUP2 MSTORE PUSH1 0x4 DUP2 ADD DUP6 SWAP1 MSTORE PUSH1 0x24 SWAP1 REVERT JUMPDEST SWAP3 DUP5 SWAP4 PUSH32 0x360894A13BA1A3210667C828492DB98DCA3E2076CC3735A920A3CA505D382BBC SWAP1 DUP2 DUP2 SUB PUSH2 0x38DA JUMPI POP DUP3 EXTCODESIZE ISZERO PUSH2 0x38C1 JUMPI DUP1 SLOAD PUSH1 0x1 PUSH1 0x1 PUSH1 0xA0 SHL SUB NOT AND DUP3 OR SWAP1 SSTORE PUSH1 0x40 MLOAD SWAP1 PUSH32 0xBC7CD75A20EE27FD9ADEBAB32041F755214DBC6BFFA90CC0225B39DA2E5C2D3B PUSH1 0x0 DUP1 LOG2 DUP4 MLOAD ISZERO PUSH2 0x38A7 JUMPI POP PUSH1 0x0 DUP1 DUP5 DUP5 PUSH2 0x389C SWAP7 MLOAD SWAP2 ADD DUP5 GAS DELEGATECALL SWAP1 RETURNDATASIZE ISZERO PUSH2 0x389E JUMPI RETURNDATASIZE PUSH2 0x387F DUP2 PUSH2 0x4FE2 JUMP JUMPDEST SWAP1 PUSH2 0x388D PUSH1 0x40 MLOAD SWAP3 DUP4 PUSH2 0x4FC1 JUMP JUMPDEST DUP2 MSTORE PUSH1 0x0 DUP2 SWAP5 RETURNDATASIZE SWAP3 ADD RETURNDATACOPY PUSH2 0x5E57 JUMP JUMPDEST STOP JUMPDEST PUSH1 0x60 SWAP3 POP PUSH2 0x5E57 JUMP JUMPDEST SWAP3 POP POP POP CALLVALUE PUSH2 0x38B2 JUMPI STOP JUMPDEST PUSH4 0xB398979F PUSH1 0xE0 SHL DUP2 MSTORE PUSH1 0x4 SWAP1 REVERT JUMPDEST PUSH1 0x40 MLOAD PUSH4 0x4C9C8CE3 PUSH1 0xE0 SHL DUP2 MSTORE PUSH1 0x4 DUP2 ADD DUP4 SWAP1 MSTORE PUSH1 0x24 SWAP1 REVERT JUMPDEST PUSH1 0x24 SWAP1 PUSH1 0x40 MLOAD SWAP1 PUSH4 0x2A875269 PUSH1 0xE2 SHL DUP3 MSTORE PUSH1 0x4 DUP3 ADD MSTORE REVERT JUMPDEST SWAP1 SWAP2 POP DUP4 DUP2 DUP2 RETURNDATASIZE DUP4 GT PUSH2 0x391A JUMPI JUMPDEST PUSH2 0x390A DUP2 DUP4 PUSH2 0x4FC1 JUMP JUMPDEST DUP2 ADD SUB SLT PUSH2 0x80A JUMPI MLOAD SWAP1 DUP7 PUSH2 0x37CC JUMP JUMPDEST POP RETURNDATASIZE PUSH2 0x3900 JUMP JUMPDEST SWAP1 POP DUP2 PUSH32 0x360894A13BA1A3210667C828492DB98DCA3E2076CC3735A920A3CA505D382BBC SLOAD AND EQ ISZERO DUP5 PUSH2 0x3793 JUMP JUMPDEST CALLVALUE PUSH2 0x80A JUMPI PUSH1 0x60 CALLDATASIZE PUSH1 0x3 NOT ADD SLT PUSH2 0x80A JUMPI PUSH1 0x24 CALLDATALOAD PUSH1 0x4 CALLDATALOAD PUSH1 0x44 CALLDATALOAD PUSH1 0x5 DUP2 LT ISZERO PUSH2 0x80A JUMPI PUSH2 0x3987 PUSH1 0x1 DUP1 PUSH1 0xA0 SHL SUB PUSH1 0x1 SLOAD AND CALLER EQ PUSH2 0x587E JUMP JUMPDEST DUP2 PUSH1 0x0 MSTORE PUSH1 0x20 PUSH1 0x13 DUP2 MSTORE PUSH2 0x39A1 PUSH1 0x40 PUSH1 0x0 KECCAK256 SLOAD DUP6 LT PUSH2 0x59EB JUMP JUMPDEST DUP2 ISZERO PUSH2 0x3A91 JUMPI DUP3 PUSH1 0x0 MSTORE PUSH1 0x13 DUP2 MSTORE PUSH2 0x39BD DUP5 PUSH1 0x40 PUSH1 0x0 KECCAK256 PUSH2 0x5441 JUMP JUMPDEST POP PUSH1 0x5 DUP2 ADD SWAP1 PUSH1 0xFF DUP3 SLOAD AND ISZERO PUSH2 0x3A54 JUMPI PUSH2 0x39DA DUP5 PUSH1 0x3 DUP4 ADD PUSH2 0x59D3 JUMP JUMPDEST PUSH1 0x4 TIMESTAMP SWAP2 ADD SSTORE PUSH1 0xFF NOT DUP2 SLOAD AND SWAP1 SSTORE DUP3 PUSH1 0x0 MSTORE PUSH1 0x14 DUP2 MSTORE PUSH1 0x40 PUSH1 0x0 KECCAK256 SWAP2 DUP3 SLOAD SWAP2 DUP3 ISZERO PUSH2 0x3A3E JUMPI PUSH32 0xD27CFED75349D7C1712793C75B771F2A7DD4689406C4D8FDC93B4194B422EB35 SWAP4 PUSH1 0x40 SWAP4 PUSH1 0x0 NOT ADD SWAP1 SSTORE PUSH2 0x3A36 DUP4 MLOAD DUP1 SWAP4 PUSH2 0x5389 JUMP JUMPDEST TIMESTAMP SWAP1 DUP3 ADD MSTORE LOG3 STOP JUMPDEST PUSH4 0x4E487B71 PUSH1 0xE0 SHL PUSH1 0x0 MSTORE PUSH1 0x11 PUSH1 0x4 MSTORE PUSH1 0x24 PUSH1 0x0 REVERT JUMPDEST PUSH1 0x40 MLOAD PUSH3 0x461BCD PUSH1 0xE5 SHL DUP2 MSTORE PUSH1 0x4 DUP2 ADD DUP5 SWAP1 MSTORE PUSH1 0x15 PUSH1 0x24 DUP3 ADD MSTORE PUSH21 0x119B1859C8185B1C9958591E481C995CDBDB1D9959 PUSH1 0x5A SHL PUSH1 0x44 DUP3 ADD MSTORE PUSH1 0x64 SWAP1 REVERT JUMPDEST PUSH1 0x64 SWAP1 PUSH1 0x40 MLOAD SWAP1 PUSH3 0x461BCD PUSH1 0xE5 SHL DUP3 MSTORE PUSH1 0x4 DUP3 ADD MSTORE PUSH1 0x1C PUSH1 0x24 DUP3 ADD MSTORE PUSH32 0x4D7573742070726F76696465207265736F6C7574696F6E207479706500000000 PUSH1 0x44 DUP3 ADD MSTORE REVERT JUMPDEST CALLVALUE PUSH2 0x80A JUMPI PUSH2 0x3AE3 CALLDATASIZE PUSH2 0x5052 JUMP JUMPDEST PUSH1 0x0 SLOAD PUSH1 0x40 MLOAD PUSH3 0xB0C809 PUSH1 0xE0 SHL DUP2 MSTORE CALLER PUSH1 0x4 DUP3 ADD MSTORE SWAP2 SWAP3 PUSH1 0x20 SWAP2 DUP3 SWAP1 DUP5 SWAP1 PUSH1 0x24 SWAP1 DUP3 SWAP1 PUSH1 0x1 PUSH1 0x1 PUSH1 0xA0 SHL SUB AND GAS STATICCALL SWAP3 DUP4 ISZERO PUSH2 0x817 JUMPI PUSH1 0x0 SWAP4 PUSH2 0x3CA3 JUMPI JUMPDEST POP PUSH2 0x3B2C DUP4 ISZERO ISZERO PUSH2 0x54EC JUMP JUMPDEST PUSH1 0x40 MLOAD DUP2 MLOAD SWAP1 DUP4 DUP2 DUP2 DUP6 ADD SWAP4 PUSH2 0x3B43 DUP2 DUP4 DUP8 PUSH2 0x5083 JUMP JUMPDEST DUP2 ADD PUSH1 0x11 DUP2 MSTORE SUB ADD SWAP1 KECCAK256 DUP6 PUSH1 0x0 MSTORE DUP4 MSTORE PUSH1 0x40 PUSH1 0x0 KECCAK256 DUP5 PUSH1 0x0 MSTORE DUP4 MSTORE PUSH1 0xFF PUSH1 0x40 PUSH1 0x0 KECCAK256 SLOAD AND ISZERO PUSH2 0x3C65 JUMPI PUSH32 0xBE97907321AA6637529C6E0BD464AF27DDB95FADC266661A0A9C0B693ACAA2BA SWAP2 PUSH2 0x3C5B SWAP2 PUSH1 0x40 MLOAD DUP6 DUP2 DUP5 MLOAD PUSH2 0x3BA4 DUP2 DUP4 DUP8 PUSH2 0x5083 JUMP JUMPDEST DUP2 ADD PUSH1 0x12 DUP2 MSTORE SUB ADD SWAP1 KECCAK256 DUP8 PUSH1 0x0 MSTORE DUP6 MSTORE PUSH1 0x40 PUSH1 0x0 KECCAK256 DUP7 PUSH1 0x0 MSTORE DUP6 MSTORE PUSH2 0x3C30 DUP6 PUSH1 0x3 PUSH2 0xA3B PUSH1 0x40 PUSH1 0x0 KECCAK256 SLOAD PUSH1 0x40 MLOAD DUP5 DUP2 DUP10 MLOAD PUSH2 0x3BE0 DUP2 DUP4 DUP13 PUSH2 0x5083 JUMP JUMPDEST DUP2 ADD PUSH1 0x10 DUP2 MSTORE SUB ADD SWAP1 KECCAK256 DUP13 PUSH1 0x0 MSTORE DUP5 MSTORE PUSH2 0x3C04 PUSH1 0xFF DUP5 PUSH2 0xA20 DUP5 PUSH1 0x40 PUSH1 0x0 KECCAK256 PUSH2 0x525D JUMP JUMPDEST PUSH1 0x40 MLOAD DUP5 DUP2 DUP10 MLOAD PUSH2 0x3C16 DUP2 DUP4 DUP13 PUSH2 0x5083 JUMP JUMPDEST DUP2 ADD PUSH1 0x10 DUP2 MSTORE SUB ADD SWAP1 KECCAK256 DUP13 PUSH1 0x0 MSTORE DUP5 MSTORE PUSH1 0x40 PUSH1 0x0 KECCAK256 PUSH2 0x525D JUMP JUMPDEST DUP2 ADD PUSH1 0x11 DUP2 MSTORE SUB ADD SWAP1 KECCAK256 DUP8 PUSH1 0x0 MSTORE DUP6 MSTORE PUSH1 0x40 PUSH1 0x0 KECCAK256 DUP7 PUSH1 0x0 MSTORE DUP6 MSTORE PUSH1 0x40 PUSH1 0x0 KECCAK256 SWAP1 DUP2 SLOAD AND SWAP1 SSTORE PUSH2 0x55B3 JUMP JUMPDEST SWAP2 PUSH1 0x40 MLOAD TIMESTAMP DUP2 MSTORE LOG4 STOP JUMPDEST PUSH1 0x40 MLOAD PUSH3 0x461BCD PUSH1 0xE5 SHL DUP2 MSTORE PUSH1 0x4 DUP2 ADD DUP5 SWAP1 MSTORE PUSH1 0x16 PUSH1 0x24 DUP3 ADD MSTORE PUSH22 0x139BC81C995858DD1A5BDB881D1BC81C995D1C9858DD PUSH1 0x52 SHL PUSH1 0x44 DUP3 ADD MSTORE PUSH1 0x64 SWAP1 REVERT JUMPDEST SWAP1 SWAP3 POP DUP2 DUP2 DUP2 RETURNDATASIZE DUP4 GT PUSH2 0x3CCB JUMPI JUMPDEST PUSH2 0x3CBB DUP2 DUP4 PUSH2 0x4FC1 JUMP JUMPDEST DUP2 ADD SUB SLT PUSH2 0x80A JUMPI MLOAD SWAP2 DUP5 PUSH2 0x3B20 JUMP JUMPDEST POP RETURNDATASIZE PUSH2 0x3CB1 JUMP JUMPDEST CALLVALUE PUSH2 0x80A JUMPI PUSH1 0x20 CALLDATASIZE PUSH1 0x3 NOT ADD SLT PUSH2 0x80A JUMPI PUSH1 0x4 CALLDATALOAD PUSH1 0x1 PUSH1 0x1 PUSH1 0x40 SHL SUB DUP2 GT PUSH2 0x80A JUMPI PUSH1 0xFF PUSH2 0x3D0A PUSH1 0x20 PUSH2 0x2914 DUP2 SWAP5 CALLDATASIZE SWAP1 PUSH1 0x4 ADD PUSH2 0x5034 JUMP JUMPDEST DUP2 ADD PUSH1 0x8 DUP2 MSTORE SUB ADD SWAP1 KECCAK256 SLOAD AND PUSH1 0x40 MLOAD SWAP1 ISZERO ISZERO DUP2 MSTORE RETURN JUMPDEST CALLVALUE PUSH2 0x80A JUMPI PUSH1 0x20 DUP1 PUSH1 0x3 NOT CALLDATASIZE ADD SLT PUSH2 0x80A JUMPI PUSH1 0x4 CALLDATALOAD PUSH1 0x1 PUSH1 0x1 PUSH1 0x40 SHL SUB DUP2 GT PUSH2 0x80A JUMPI DUP2 PUSH2 0x2914 PUSH2 0x3D55 SWAP3 CALLDATASIZE SWAP1 PUSH1 0x4 ADD PUSH2 0x5034 JUMP JUMPDEST DUP2 ADD PUSH1 0x2 DUP2 MSTORE SUB ADD SWAP1 KECCAK256 SWAP1 PUSH1 0x40 MLOAD SWAP1 DUP2 DUP2 DUP5 SLOAD SWAP2 DUP3 DUP2 MSTORE ADD SWAP4 PUSH1 0x0 MSTORE DUP2 PUSH1 0x0 KECCAK256 SWAP2 PUSH1 0x0 SWAP1 JUMPDEST DUP3 DUP3 LT PUSH2 0x3D9D JUMPI PUSH2 0x144A DUP6 PUSH2 0x3D91 DUP2 DUP10 SUB DUP3 PUSH2 0x4FC1 JUMP JUMPDEST PUSH1 0x40 MLOAD SWAP2 DUP3 SWAP2 DUP3 PUSH2 0x5221 JUMP JUMPDEST DUP4 SLOAD DUP7 MSTORE SWAP5 DUP6 ADD SWAP5 PUSH1 0x1 SWAP4 DUP5 ADD SWAP4 SWAP1 SWAP2 ADD SWAP1 PUSH2 0x3D7A JUMP JUMPDEST CALLVALUE PUSH2 0x80A JUMPI PUSH1 0x60 CALLDATASIZE PUSH1 0x3 NOT ADD SLT PUSH2 0x80A JUMPI PUSH1 0x24 PUSH1 0x1 PUSH1 0x1 PUSH1 0x40 SHL SUB PUSH1 0x4 CALLDATALOAD DUP3 CALLDATALOAD DUP3 DUP2 GT PUSH2 0x80A JUMPI PUSH2 0x3DE9 SWAP1 CALLDATASIZE SWAP1 PUSH1 0x4 ADD PUSH2 0x5034 JUMP JUMPDEST SWAP2 PUSH1 0x44 CALLDATALOAD SWAP1 DUP2 GT PUSH2 0x80A JUMPI PUSH2 0x3E02 SWAP1 CALLDATASIZE SWAP1 PUSH1 0x4 ADD PUSH2 0x5034 JUMP JUMPDEST SWAP2 PUSH2 0x3E18 PUSH1 0x1 DUP1 PUSH1 0xA0 SHL SUB PUSH1 0x1 SLOAD AND CALLER EQ PUSH2 0x587E JUMP JUMPDEST DUP2 ISZERO PUSH2 0x3FAE JUMPI DUP3 MLOAD ISZERO PUSH2 0x3F6A JUMPI DUP2 PUSH1 0x0 MSTORE PUSH1 0x13 PUSH1 0x20 MSTORE PUSH1 0x40 PUSH1 0x0 KECCAK256 SWAP4 DUP5 SLOAD SWAP5 PUSH1 0x40 MLOAD SWAP2 PUSH2 0x3E44 DUP4 PUSH2 0x4F3A JUMP JUMPDEST DUP4 DUP4 MSTORE PUSH1 0x20 DUP4 ADD SWAP1 DUP7 DUP3 MSTORE PUSH1 0x40 DUP5 ADD TIMESTAMP DUP2 MSTORE PUSH1 0x60 DUP6 ADD SWAP1 PUSH1 0x0 DUP3 MSTORE PUSH1 0x80 DUP7 ADD SWAP4 PUSH1 0x0 DUP6 MSTORE PUSH1 0xA0 DUP8 ADD SWAP6 PUSH1 0x1 DUP8 MSTORE PUSH1 0x1 PUSH1 0x40 SHL DUP13 LT ISZERO PUSH2 0x785 JUMPI DUP12 PUSH2 0x3E8D SWAP2 PUSH1 0x1 DUP3 ADD DUP2 SSTORE PUSH2 0x5441 JUMP JUMPDEST SWAP8 SWAP1 SWAP8 PUSH2 0x3F55 JUMPI SWAP1 PUSH2 0x3EA3 PUSH2 0x3EAD SWAP3 MLOAD DUP10 PUSH2 0x58CE JUMP JUMPDEST MLOAD PUSH1 0x1 DUP9 ADD PUSH2 0x58CE JUMP JUMPDEST MLOAD PUSH1 0x2 DUP7 ADD SSTORE MLOAD SWAP1 PUSH1 0x5 DUP3 LT ISZERO PUSH2 0x75C JUMPI POP SWAP4 PUSH2 0x3F1A DUP5 PUSH1 0x5 PUSH2 0x3F46 SWAP6 PUSH2 0xF2F SWAP6 PUSH2 0x3EFE PUSH32 0xDC620035E382D2354E94AF4EE86406F06A6BC23C13499543D7AD5EE77AF52404 SWAP11 PUSH1 0x3 PUSH1 0x40 SWAP12 ADD PUSH2 0x59D3 JUMP JUMPDEST MLOAD PUSH1 0x4 DUP5 ADD SSTORE MLOAD ISZERO ISZERO SWAP2 ADD SWAP1 PUSH1 0xFF DUP1 NOT DUP4 SLOAD AND SWAP2 ISZERO ISZERO AND OR SWAP1 SSTORE JUMP JUMPDEST DUP6 PUSH1 0x0 MSTORE PUSH1 0x14 PUSH1 0x20 MSTORE DUP4 PUSH1 0x0 KECCAK256 PUSH2 0x3F31 DUP2 SLOAD PUSH2 0x57A0 JUMP JUMPDEST SWAP1 SSTORE PUSH2 0x3F3E PUSH1 0x19 SLOAD PUSH2 0x57A0 JUMP JUMPDEST PUSH1 0x19 SSTORE PUSH2 0x55B3 JUMP JUMPDEST SWAP5 DUP2 MLOAD SWAP1 DUP2 MSTORE TIMESTAMP PUSH1 0x20 DUP3 ADD MSTORE LOG4 STOP JUMPDEST DUP5 PUSH4 0x4E487B71 PUSH1 0xE0 SHL PUSH1 0x0 MSTORE PUSH1 0x0 PUSH1 0x4 MSTORE PUSH1 0x0 REVERT JUMPDEST PUSH1 0x40 MLOAD PUSH3 0x461BCD PUSH1 0xE5 SHL DUP2 MSTORE PUSH1 0x20 PUSH1 0x4 DUP3 ADD MSTORE PUSH1 0x19 DUP2 DUP7 ADD MSTORE PUSH32 0x4E6F746520686173682063616E6E6F7420626520656D70747900000000000000 PUSH1 0x44 DUP3 ADD MSTORE PUSH1 0x64 SWAP1 REVERT JUMPDEST PUSH1 0x40 MLOAD PUSH3 0x461BCD PUSH1 0xE5 SHL DUP2 MSTORE PUSH1 0x20 PUSH1 0x4 DUP3 ADD MSTORE PUSH1 0x1F DUP2 DUP7 ADD MSTORE PUSH32 0x5375626A65637420494420686173682063616E6E6F7420626520656D70747900 PUSH1 0x44 DUP3 ADD MSTORE PUSH1 0x64 SWAP1 REVERT JUMPDEST CALLVALUE PUSH2 0x80A JUMPI PUSH1 0x20 CALLDATASIZE PUSH1 0x3 NOT ADD SLT PUSH2 0x80A JUMPI PUSH1 0x4 CALLDATALOAD PUSH1 0x1 PUSH1 0x1 PUSH1 0x40 SHL SUB DUP2 GT PUSH2 0x80A JUMPI PUSH2 0x10EF PUSH2 0x1A2A PUSH2 0x10D9 PUSH1 0x20 PUSH2 0x2914 PUSH2 0x144A SWAP6 CALLDATASIZE SWAP1 PUSH1 0x4 ADD PUSH2 0x5034 JUMP JUMPDEST CALLVALUE PUSH2 0x80A JUMPI PUSH1 0x20 DUP1 PUSH1 0x3 NOT CALLDATASIZE ADD SLT PUSH2 0x80A JUMPI PUSH1 0x4 CALLDATALOAD PUSH1 0x1 PUSH1 0x1 PUSH1 0x40 SHL SUB DUP2 GT PUSH2 0x80A JUMPI PUSH2 0x4061 SWAP1 CALLDATASIZE SWAP1 PUSH1 0x4 ADD PUSH2 0x5034 JUMP JUMPDEST PUSH1 0x0 SLOAD PUSH1 0x40 MLOAD PUSH4 0x45ECD02F PUSH1 0xE0 SHL DUP2 MSTORE CALLER PUSH1 0x4 DUP3 ADD MSTORE PUSH1 0x1 PUSH1 0x1 PUSH1 0xA0 SHL SUB SWAP1 SWAP2 AND SWAP3 SWAP2 SWAP1 DUP3 DUP2 PUSH1 0x24 DUP2 DUP8 GAS STATICCALL DUP1 ISZERO PUSH2 0x817 JUMPI PUSH2 0x40A4 SWAP2 PUSH1 0x0 SWAP2 PUSH2 0x1CA7 JUMPI POP PUSH2 0x57C7 JUMP JUMPDEST PUSH1 0x40 MLOAD PUSH4 0x286B6AB PUSH1 0xE3 SHL DUP2 MSTORE SWAP3 DUP3 DUP5 DUP1 PUSH2 0x40C3 CALLER DUP7 PUSH1 0x4 DUP5 ADD PUSH2 0x580A JUMP JUMPDEST SUB DUP2 DUP5 GAS STATICCALL SWAP1 DUP2 ISZERO PUSH2 0x817 JUMPI PUSH2 0x40E4 DUP5 SWAP3 PUSH1 0x24 SWAP7 PUSH1 0x0 SWAP2 PUSH2 0x1C8A JUMPI POP PUSH2 0x5832 JUMP JUMPDEST PUSH1 0x40 MLOAD PUSH3 0xB0C809 PUSH1 0xE0 SHL DUP2 MSTORE CALLER PUSH1 0x4 DUP3 ADD MSTORE SWAP5 DUP6 SWAP2 DUP3 SWAP1 GAS STATICCALL SWAP3 DUP4 ISZERO PUSH2 0x817 JUMPI PUSH1 0x0 SWAP4 PUSH2 0x4259 JUMPI JUMPDEST POP PUSH2 0x4118 DUP4 ISZERO ISZERO PUSH2 0x54EC JUMP JUMPDEST PUSH1 0x40 MLOAD DUP2 MLOAD SWAP1 DUP4 DUP2 DUP2 DUP6 ADD SWAP4 PUSH2 0x412F DUP2 DUP4 DUP8 PUSH2 0x5083 JUMP JUMPDEST DUP2 ADD PUSH1 0x3 DUP2 MSTORE SUB ADD SWAP1 KECCAK256 DUP5 PUSH1 0x0 MSTORE DUP4 MSTORE PUSH1 0xFF PUSH1 0x40 PUSH1 0x0 KECCAK256 SLOAD AND ISZERO PUSH2 0x4214 JUMPI PUSH1 0x40 MLOAD DUP4 DUP2 DUP5 MLOAD PUSH2 0x415F DUP2 DUP4 DUP8 PUSH2 0x5083 JUMP JUMPDEST DUP2 ADD PUSH1 0x5 DUP2 MSTORE SUB ADD SWAP1 KECCAK256 DUP5 PUSH1 0x0 MSTORE DUP4 MSTORE PUSH1 0xFF PUSH1 0x40 PUSH1 0x0 KECCAK256 SLOAD AND ISZERO PUSH2 0x41DA JUMPI PUSH32 0x6394E07BA017D68C6017A8D8FD8ADE9C44DD70FD18B290E2D74DB2B691AC99FB SWAP2 PUSH2 0x41B8 DUP5 PUSH2 0xA79 SWAP4 PUSH1 0x40 MLOAD DUP1 SWAP4 DUP2 SWAP3 DUP7 MLOAD SWAP3 DUP4 SWAP2 PUSH2 0x5083 JUMP JUMPDEST DUP2 ADD PUSH1 0x5 DUP2 MSTORE SUB ADD SWAP1 KECCAK256 DUP6 PUSH1 0x0 MSTORE DUP5 MSTORE PUSH1 0x40 PUSH1 0x0 KECCAK256 PUSH1 0xFF NOT DUP2 SLOAD AND SWAP1 SSTORE PUSH2 0x55B3 JUMP JUMPDEST PUSH1 0x40 MLOAD PUSH3 0x461BCD PUSH1 0xE5 SHL DUP2 MSTORE PUSH1 0x4 DUP2 ADD DUP5 SWAP1 MSTORE PUSH1 0x12 PUSH1 0x24 DUP3 ADD MSTORE PUSH18 0x105B1C9958591E481D5B985B98DA1BDC9959 PUSH1 0x72 SHL PUSH1 0x44 DUP3 ADD MSTORE PUSH1 0x64 SWAP1 REVERT JUMPDEST PUSH1 0x40 MLOAD PUSH3 0x461BCD PUSH1 0xE5 SHL DUP2 MSTORE PUSH1 0x4 DUP2 ADD DUP5 SWAP1 MSTORE PUSH1 0x1C PUSH1 0x24 DUP3 ADD MSTORE PUSH32 0x4E6F742061207375626A656374206F662074686973207265636F726400000000 PUSH1 0x44 DUP3 ADD MSTORE PUSH1 0x64 SWAP1 REVERT JUMPDEST SWAP1 SWAP3 POP DUP2 DUP2 DUP2 RETURNDATASIZE DUP4 GT PUSH2 0x4281 JUMPI JUMPDEST PUSH2 0x4271 DUP2 DUP4 PUSH2 0x4FC1 JUMP JUMPDEST DUP2 ADD SUB SLT PUSH2 0x80A JUMPI MLOAD SWAP2 DUP4 PUSH2 0x410C JUMP JUMPDEST POP RETURNDATASIZE PUSH2 0x4267 JUMP JUMPDEST CALLVALUE PUSH2 0x80A JUMPI PUSH1 0x20 DUP1 PUSH1 0x3 NOT CALLDATASIZE ADD SLT PUSH2 0x80A JUMPI PUSH1 0x4 CALLDATALOAD PUSH1 0x1 PUSH1 0x1 PUSH1 0x40 SHL SUB DUP2 GT PUSH2 0x80A JUMPI PUSH2 0x42B9 SWAP1 CALLDATASIZE SWAP1 PUSH1 0x4 ADD PUSH2 0x5034 JUMP JUMPDEST SWAP1 PUSH2 0x42D4 DUP2 PUSH1 0x0 SWAP4 DUP2 PUSH1 0x40 MLOAD SWAP4 DUP3 DUP6 DUP1 SWAP5 MLOAD SWAP4 DUP5 SWAP3 ADD PUSH2 0x5083 JUMP JUMPDEST DUP2 ADD PUSH1 0xA DUP2 MSTORE SUB ADD SWAP1 KECCAK256 SWAP2 DUP3 SLOAD PUSH2 0x42EA DUP2 PUSH2 0x573A JUMP JUMPDEST SWAP4 PUSH2 0x42F8 PUSH1 0x40 MLOAD SWAP6 DUP7 PUSH2 0x4FC1 JUMP JUMPDEST DUP2 DUP6 MSTORE PUSH1 0x0 SWAP1 DUP2 MSTORE DUP4 DUP2 KECCAK256 DUP5 DUP1 DUP8 ADD JUMPDEST DUP5 DUP5 LT PUSH2 0x4350 JUMPI DUP8 DUP3 DUP8 DUP3 MLOAD PUSH1 0x0 JUMPDEST DUP5 MLOAD DUP2 LT ISZERO PUSH2 0x2B15 JUMPI PUSH1 0x80 PUSH2 0x432C DUP3 DUP8 PUSH2 0x578C JUMP JUMPDEST MLOAD ADD MLOAD PUSH2 0x433C JUMPI JUMPDEST PUSH1 0x1 ADD PUSH2 0x4317 JUMP JUMPDEST SWAP2 PUSH2 0x4348 PUSH1 0x1 SWAP2 PUSH2 0x57A0 JUMP JUMPDEST SWAP3 SWAP1 POP PUSH2 0x4334 JUMP JUMPDEST PUSH1 0x1 SWAP2 PUSH1 0x5 SWAP2 PUSH2 0x435F DUP6 PUSH2 0x55D3 JUMP JUMPDEST DUP2 MSTORE ADD SWAP3 ADD SWAP3 ADD SWAP2 SWAP1 DUP6 SWAP1 PUSH2 0x4308 JUMP JUMPDEST CALLVALUE PUSH2 0x80A JUMPI PUSH1 0x20 DUP1 PUSH1 0x3 NOT CALLDATASIZE ADD SLT PUSH2 0x80A JUMPI PUSH1 0x4 CALLDATALOAD PUSH1 0x1 PUSH1 0x1 PUSH1 0x40 SHL SUB DUP2 GT PUSH2 0x80A JUMPI DUP2 PUSH2 0x2914 PUSH2 0x43A4 SWAP3 CALLDATASIZE SWAP1 PUSH1 0x4 ADD PUSH2 0x5034 JUMP JUMPDEST DUP2 ADD PUSH1 0x7 DUP2 MSTORE SUB ADD SWAP1 KECCAK256 DUP1 SLOAD PUSH2 0x43B9 DUP2 PUSH2 0x573A JUMP JUMPDEST SWAP2 PUSH2 0x43C7 PUSH1 0x40 MLOAD SWAP4 DUP5 PUSH2 0x4FC1 JUMP JUMPDEST DUP2 DUP4 MSTORE PUSH1 0x0 SWAP1 DUP2 MSTORE DUP4 DUP2 KECCAK256 SWAP4 DUP1 DUP5 ADD JUMPDEST DUP4 DUP4 LT PUSH2 0x43EC JUMPI PUSH1 0x40 MLOAD DUP1 PUSH2 0x144A DUP8 DUP3 PUSH2 0x5279 JUMP JUMPDEST PUSH1 0x1 DUP3 DUP2 SWAP3 PUSH1 0x40 MLOAD PUSH2 0x4402 DUP2 PUSH2 0x10EF DUP2 DUP14 PUSH2 0x515D JUMP JUMPDEST DUP2 MSTORE ADD SWAP7 ADD SWAP3 ADD SWAP2 SWAP5 PUSH2 0x43D7 JUMP JUMPDEST CALLVALUE PUSH2 0x80A JUMPI PUSH1 0x20 DUP1 PUSH1 0x3 NOT CALLDATASIZE ADD SLT PUSH2 0x80A JUMPI PUSH1 0x4 CALLDATALOAD PUSH1 0x1 PUSH1 0x1 PUSH1 0x40 SHL SUB DUP2 GT PUSH2 0x80A JUMPI DUP2 PUSH2 0x2914 PUSH2 0x4445 SWAP3 CALLDATASIZE SWAP1 PUSH1 0x4 ADD PUSH2 0x5034 JUMP JUMPDEST DUP2 ADD PUSH1 0xA DUP2 MSTORE SUB ADD SWAP1 KECCAK256 SWAP1 DUP2 SLOAD SWAP2 PUSH2 0x445C DUP4 PUSH2 0x573A JUMP JUMPDEST SWAP3 PUSH2 0x446A PUSH1 0x40 MLOAD SWAP5 DUP6 PUSH2 0x4FC1 JUMP JUMPDEST DUP1 DUP5 MSTORE DUP3 DUP5 ADD DUP1 SWAP3 PUSH1 0x0 MSTORE DUP4 PUSH1 0x0 KECCAK256 PUSH1 0x0 SWAP2 JUMPDEST DUP4 DUP4 LT PUSH2 0x4521 JUMPI POP POP POP POP PUSH1 0x40 MLOAD SWAP2 DUP1 DUP4 ADD SWAP4 DUP2 DUP5 MSTORE MLOAD DUP1 SWAP5 MSTORE PUSH1 0x40 DUP4 ADD SWAP4 PUSH1 0x40 DUP2 PUSH1 0x5 SHL DUP6 ADD ADD SWAP3 SWAP2 PUSH1 0x0 SWAP6 JUMPDEST DUP3 DUP8 LT PUSH2 0x44B8 JUMPI DUP6 DUP6 SUB DUP7 RETURN JUMPDEST SWAP1 SWAP2 SWAP3 SWAP4 DUP3 DUP1 PUSH1 0x1 SWAP3 PUSH1 0x3F NOT DUP10 DUP3 SUB ADD DUP6 MSTORE DUP8 MLOAD SWAP1 PUSH2 0x44E8 PUSH1 0xA0 DUP4 MLOAD DUP4 MSTORE DUP5 DUP5 ADD MLOAD SWAP1 DUP1 DUP7 DUP6 ADD MSTORE DUP4 ADD SWAP1 PUSH2 0x50C6 JUMP JUMPDEST SWAP2 PUSH1 0x40 DUP2 ADD MLOAD PUSH2 0x44F7 DUP2 PUSH2 0x50EB JUMP JUMPDEST PUSH1 0x40 DUP4 ADD MSTORE PUSH1 0x60 DUP1 DUP3 ADD MLOAD SWAP1 DUP4 ADD MSTORE PUSH1 0x80 DUP1 SWAP2 ADD MLOAD ISZERO ISZERO SWAP2 ADD MSTORE SWAP7 ADD SWAP3 ADD SWAP7 ADD SWAP6 SWAP3 SWAP2 SWAP1 SWAP3 PUSH2 0x44AB JUMP JUMPDEST PUSH1 0x5 DUP7 PUSH1 0x1 SWAP3 PUSH2 0x4533 DUP6 SWAP11 SWAP10 SWAP11 PUSH2 0x55D3 JUMP JUMPDEST DUP2 MSTORE ADD SWAP3 ADD SWAP3 ADD SWAP2 SWAP1 SWAP6 SWAP5 SWAP6 PUSH2 0x447D JUMP JUMPDEST CALLVALUE PUSH2 0x80A JUMPI PUSH1 0x60 CALLDATASIZE PUSH1 0x3 NOT ADD SLT PUSH2 0x80A JUMPI PUSH1 0x4 CALLDATALOAD PUSH1 0x1 PUSH1 0x1 PUSH1 0x40 SHL SUB DUP2 GT PUSH2 0x80A JUMPI PUSH2 0x4574 SWAP1 CALLDATASIZE SWAP1 PUSH1 0x4 ADD PUSH2 0x5034 JUMP JUMPDEST PUSH2 0x4590 PUSH1 0x20 PUSH1 0x44 CALLDATALOAD SWAP3 DUP2 PUSH1 0x40 MLOAD SWAP4 DUP3 DUP6 DUP1 SWAP5 MLOAD SWAP4 DUP5 SWAP3 ADD PUSH2 0x5083 JUMP JUMPDEST DUP2 ADD PUSH1 0x10 DUP2 MSTORE SUB ADD SWAP1 KECCAK256 PUSH1 0x24 CALLDATALOAD PUSH1 0x0 MSTORE PUSH1 0x20 MSTORE PUSH1 0x40 PUSH1 0x0 KECCAK256 DUP1 SLOAD DUP3 LT ISZERO PUSH2 0x80A JUMPI PUSH1 0x80 SWAP2 PUSH2 0x45BD SWAP2 PUSH2 0x525D JUMP JUMPDEST POP DUP1 SLOAD SWAP1 PUSH1 0xFF PUSH1 0x1 DUP3 ADD SLOAD AND SWAP1 PUSH1 0xFF PUSH1 0x3 PUSH1 0x2 DUP4 ADD SLOAD SWAP3 ADD SLOAD AND SWAP2 PUSH1 0x40 MLOAD SWAP4 DUP5 MSTORE ISZERO ISZERO PUSH1 0x20 DUP5 ADD MSTORE PUSH1 0x40 DUP4 ADD MSTORE ISZERO ISZERO PUSH1 0x60 DUP3 ADD MSTORE RETURN JUMPDEST CALLVALUE PUSH2 0x80A JUMPI PUSH1 0x20 DUP1 PUSH1 0x3 NOT CALLDATASIZE ADD SLT PUSH2 0x80A JUMPI PUSH1 0x4 CALLDATALOAD PUSH1 0x1 PUSH1 0x1 PUSH1 0x40 SHL SUB DUP2 GT PUSH2 0x80A JUMPI PUSH2 0x4624 SWAP1 CALLDATASIZE SWAP1 PUSH1 0x4 ADD PUSH2 0x5034 JUMP JUMPDEST SWAP1 PUSH1 0x40 MLOAD SWAP1 DUP3 MLOAD SWAP2 DUP2 DUP2 DUP2 DUP7 ADD SWAP5 PUSH2 0x463D DUP2 DUP4 DUP9 PUSH2 0x5083 JUMP JUMPDEST DUP2 ADD PUSH1 0x2 DUP2 MSTORE SUB ADD SWAP1 KECCAK256 PUSH1 0x40 MLOAD DUP1 DUP3 DUP5 DUP3 SWAP5 SLOAD SWAP4 DUP5 DUP2 MSTORE ADD SWAP1 PUSH1 0x0 MSTORE DUP5 PUSH1 0x0 KECCAK256 SWAP3 PUSH1 0x0 JUMPDEST DUP7 DUP3 DUP3 LT PUSH2 0x4792 JUMPI POP POP POP PUSH2 0x4678 SWAP3 POP SUB DUP3 PUSH2 0x4FC1 JUMP JUMPDEST PUSH1 0x0 SWAP2 PUSH1 0x0 JUMPDEST DUP3 MLOAD DUP2 LT ISZERO PUSH2 0x46DD JUMPI PUSH1 0x40 MLOAD DUP3 DUP2 DUP9 MLOAD PUSH2 0x4699 DUP2 DUP4 DUP12 PUSH2 0x5083 JUMP JUMPDEST DUP2 ADD PUSH1 0x5 DUP2 MSTORE SUB ADD SWAP1 KECCAK256 PUSH2 0x46AD DUP3 DUP6 PUSH2 0x578C JUMP JUMPDEST MLOAD PUSH1 0x0 MSTORE DUP3 MSTORE PUSH1 0xFF PUSH1 0x40 PUSH1 0x0 KECCAK256 SLOAD AND PUSH2 0x46C9 JUMPI JUMPDEST PUSH1 0x1 ADD PUSH2 0x467E JUMP JUMPDEST SWAP3 PUSH2 0x46D5 PUSH1 0x1 SWAP2 PUSH2 0x57A0 JUMP JUMPDEST SWAP4 SWAP1 POP PUSH2 0x46C1 JUMP JUMPDEST POP SWAP4 SWAP3 SWAP2 SWAP4 PUSH2 0x46EB DUP6 PUSH2 0x573A JUMP JUMPDEST SWAP5 PUSH2 0x46F9 PUSH1 0x40 MLOAD SWAP7 DUP8 PUSH2 0x4FC1 JUMP JUMPDEST DUP1 DUP7 MSTORE PUSH2 0x4708 PUSH1 0x1F NOT SWAP2 PUSH2 0x573A JUMP JUMPDEST ADD CALLDATASIZE DUP3 DUP8 ADD CALLDATACOPY PUSH1 0x0 SWAP3 PUSH1 0x0 JUMPDEST DUP4 MLOAD DUP2 LT ISZERO PUSH2 0x4784 JUMPI PUSH1 0x1 SWAP1 PUSH1 0x40 MLOAD DUP5 DUP2 DUP10 MLOAD PUSH2 0x4732 DUP2 DUP4 DUP10 PUSH2 0x5083 JUMP JUMPDEST DUP2 ADD PUSH1 0x5 DUP2 MSTORE SUB ADD SWAP1 KECCAK256 PUSH2 0x4746 DUP3 DUP8 PUSH2 0x578C JUMP JUMPDEST MLOAD PUSH1 0x0 MSTORE DUP5 MSTORE PUSH1 0xFF PUSH1 0x40 PUSH1 0x0 KECCAK256 SLOAD AND PUSH2 0x4760 JUMPI JUMPDEST ADD PUSH2 0x4714 JUMP JUMPDEST PUSH2 0x476A DUP2 DUP7 PUSH2 0x578C JUMP JUMPDEST MLOAD PUSH2 0x477E PUSH2 0x4777 DUP9 PUSH2 0x57A0 JUMP JUMPDEST SWAP8 DUP11 PUSH2 0x578C JUMP JUMPDEST MSTORE PUSH2 0x475A JUMP JUMPDEST PUSH1 0x40 MLOAD DUP1 PUSH2 0x144A DUP10 DUP3 PUSH2 0x5221 JUMP JUMPDEST DUP6 SLOAD DUP5 MSTORE PUSH1 0x1 SWAP6 DUP7 ADD SWAP6 DUP8 SWAP6 POP SWAP4 ADD SWAP3 ADD PUSH2 0x4661 JUMP JUMPDEST CALLVALUE PUSH2 0x80A JUMPI PUSH1 0x20 PUSH2 0x47BB PUSH2 0x15B4 CALLDATASIZE PUSH2 0x5052 JUMP JUMPDEST DUP2 ADD PUSH1 0xF DUP2 MSTORE SUB ADD SWAP1 KECCAK256 SWAP1 PUSH1 0x0 MSTORE PUSH1 0x20 MSTORE PUSH1 0x20 PUSH1 0x40 PUSH1 0x0 KECCAK256 SLOAD PUSH1 0x40 MLOAD SWAP1 DUP2 MSTORE RETURN JUMPDEST CALLVALUE PUSH2 0x80A JUMPI PUSH1 0x20 CALLDATASIZE PUSH1 0x3 NOT ADD SLT PUSH2 0x80A JUMPI PUSH1 0x4 CALLDATALOAD PUSH1 0x1 PUSH1 0x1 PUSH1 0x40 SHL SUB DUP2 GT PUSH2 0x80A JUMPI PUSH2 0x4812 PUSH1 0x20 PUSH2 0x2914 DUP2 SWAP4 CALLDATASIZE SWAP1 PUSH1 0x4 ADD PUSH2 0x5034 JUMP JUMPDEST DUP2 ADD PUSH1 0x7 DUP2 MSTORE SUB ADD SWAP1 KECCAK256 SLOAD PUSH1 0x40 MLOAD SWAP1 DUP2 MSTORE RETURN JUMPDEST CALLVALUE PUSH2 0x80A JUMPI PUSH1 0x20 DUP1 PUSH1 0x3 NOT CALLDATASIZE ADD SLT PUSH2 0x80A JUMPI PUSH1 0x4 CALLDATALOAD PUSH1 0x1 PUSH1 0x1 PUSH1 0x40 SHL SUB DUP2 GT PUSH2 0x80A JUMPI PUSH2 0x4856 SWAP1 CALLDATASIZE SWAP1 PUSH1 0x4 ADD PUSH2 0x5034 JUMP JUMPDEST SWAP1 PUSH1 0x40 MLOAD SWAP2 PUSH1 0xFF DUP2 MLOAD SWAP4 DUP4 DUP2 DUP2 DUP6 ADD SWAP7 PUSH2 0x4871 DUP2 DUP4 DUP11 PUSH2 0x5083 JUMP JUMPDEST DUP2 ADD PUSH1 0x8 DUP2 MSTORE SUB ADD SWAP1 KECCAK256 SLOAD AND ISZERO PUSH2 0x48B3 JUMPI PUSH2 0x249A DUP3 PUSH2 0x24B0 SWAP5 PUSH2 0x489F SWAP4 PUSH1 0x40 MLOAD SWAP4 DUP5 SWAP3 DUP4 SWAP3 MLOAD SWAP3 DUP4 SWAP2 PUSH2 0x5083 JUMP JUMPDEST PUSH2 0x144A PUSH1 0x40 MLOAD SWAP3 DUP3 DUP5 SWAP4 DUP5 MSTORE DUP4 ADD SWAP1 PUSH2 0x50C6 JUMP JUMPDEST PUSH1 0x40 MLOAD PUSH3 0x461BCD PUSH1 0xE5 SHL DUP2 MSTORE PUSH1 0x4 DUP2 ADD DUP4 SWAP1 MSTORE PUSH1 0x13 PUSH1 0x24 DUP3 ADD MSTORE PUSH19 0x12185CDA08191BD95CC81B9BDD08195E1A5CDD PUSH1 0x6A SHL PUSH1 0x44 DUP3 ADD MSTORE PUSH1 0x64 SWAP1 REVERT JUMPDEST CALLVALUE PUSH2 0x80A JUMPI PUSH1 0x20 PUSH2 0x4901 PUSH2 0x15B4 CALLDATASIZE PUSH2 0x5052 JUMP JUMPDEST DUP2 ADD PUSH1 0x7 DUP2 MSTORE SUB ADD SWAP1 KECCAK256 SWAP1 DUP2 SLOAD DUP2 LT ISZERO PUSH2 0x80A JUMPI PUSH2 0x1A24 PUSH2 0x1A2A SWAP2 PUSH2 0x144A SWAP4 PUSH2 0x50F5 JUMP JUMPDEST CALLVALUE PUSH2 0x80A JUMPI PUSH2 0x4933 CALLDATASIZE PUSH2 0x5052 JUMP JUMPDEST PUSH1 0x0 DUP1 SWAP2 PUSH1 0x40 MLOAD DUP5 DUP2 DUP1 SWAP7 MLOAD PUSH2 0x494F DUP2 PUSH1 0x20 SWAP10 DUP11 DUP1 SWAP7 ADD PUSH2 0x5083 JUMP JUMPDEST DUP2 ADD PUSH1 0x10 DUP2 MSTORE SUB ADD SWAP1 KECCAK256 SWAP1 PUSH1 0x0 MSTORE DUP4 MSTORE PUSH1 0x40 PUSH1 0x0 KECCAK256 SWAP2 DUP3 SLOAD PUSH2 0x4970 DUP2 PUSH2 0x573A JUMP JUMPDEST SWAP4 PUSH2 0x497E PUSH1 0x40 MLOAD SWAP6 DUP7 PUSH2 0x4FC1 JUMP JUMPDEST DUP2 DUP6 MSTORE PUSH1 0x0 SWAP1 DUP2 MSTORE DUP6 DUP2 KECCAK256 DUP7 DUP1 DUP8 ADD JUMPDEST DUP5 DUP5 LT PUSH2 0x4A16 JUMPI POP POP POP POP POP DUP3 MLOAD SWAP3 PUSH1 0x0 JUMPDEST DUP2 MLOAD DUP2 LT ISZERO PUSH2 0x4A00 JUMPI PUSH1 0x60 PUSH2 0x49B5 DUP3 DUP5 PUSH2 0x578C JUMP JUMPDEST MLOAD ADD MLOAD PUSH2 0x49C5 JUMPI JUMPDEST PUSH1 0x1 ADD PUSH2 0x49A0 JUMP JUMPDEST SWAP3 DUP6 PUSH2 0x49D1 DUP6 DUP5 PUSH2 0x578C JUMP JUMPDEST MLOAD ADD MLOAD ISZERO PUSH2 0x49ED JUMPI PUSH2 0x49E4 PUSH1 0x1 SWAP2 PUSH2 0x57A0 JUMP JUMPDEST SWAP4 JUMPDEST SWAP1 POP PUSH2 0x49BD JUMP JUMPDEST SWAP3 SWAP2 PUSH2 0x49FA PUSH1 0x1 SWAP2 PUSH2 0x57A0 JUMP JUMPDEST SWAP3 PUSH2 0x49E6 JUMP JUMPDEST POP POP SWAP1 PUSH1 0x60 SWAP4 PUSH1 0x40 MLOAD SWAP4 DUP5 MSTORE DUP4 ADD MSTORE PUSH1 0x40 DUP3 ADD MSTORE RETURN JUMPDEST PUSH1 0x1 SWAP2 PUSH1 0x4 SWAP2 PUSH2 0x4A25 DUP6 PUSH2 0x5751 JUMP JUMPDEST DUP2 MSTORE ADD SWAP3 ADD SWAP3 ADD SWAP2 SWAP1 DUP8 SWAP1 PUSH2 0x498E JUMP JUMPDEST CALLVALUE PUSH2 0x80A JUMPI PUSH1 0x20 DUP1 PUSH1 0x3 NOT CALLDATASIZE ADD SLT PUSH2 0x80A JUMPI PUSH1 0x4 CALLDATALOAD SWAP1 PUSH1 0x1 PUSH1 0x1 PUSH1 0x40 SHL SUB DUP3 GT PUSH2 0x80A JUMPI PUSH2 0x4A69 PUSH1 0x24 SWAP3 CALLDATASIZE SWAP1 PUSH1 0x4 ADD PUSH2 0x5034 JUMP JUMPDEST PUSH1 0x0 SLOAD PUSH1 0x40 MLOAD PUSH3 0xB0C809 PUSH1 0xE0 SHL DUP2 MSTORE CALLER PUSH1 0x4 DUP3 ADD MSTORE SWAP4 DUP4 SWAP2 DUP6 SWAP2 SWAP1 DUP3 SWAP1 PUSH1 0x1 PUSH1 0x1 PUSH1 0xA0 SHL SUB AND GAS STATICCALL SWAP3 DUP4 ISZERO PUSH2 0x817 JUMPI PUSH1 0x0 SWAP4 PUSH2 0x4BCA JUMPI JUMPDEST POP PUSH2 0x4AAC DUP4 ISZERO ISZERO PUSH2 0x54EC JUMP JUMPDEST PUSH1 0x40 MLOAD DUP2 MLOAD SWAP1 DUP4 DUP2 DUP2 DUP6 ADD SWAP4 PUSH2 0x4AC3 DUP2 DUP4 DUP8 PUSH2 0x5083 JUMP JUMPDEST DUP2 ADD PUSH1 0xE DUP2 MSTORE SUB ADD SWAP1 KECCAK256 DUP5 PUSH1 0x0 MSTORE DUP4 MSTORE PUSH1 0xFF PUSH1 0x40 PUSH1 0x0 KECCAK256 SLOAD AND ISZERO PUSH2 0x4B8D JUMPI PUSH32 0x7180E7A407DE506E94DC4620F97C3AF6AAF73726BE177CF5A2118A83EA08E09A SWAP2 PUSH2 0xA79 SWAP2 PUSH1 0x40 MLOAD DUP6 DUP2 DUP5 MLOAD PUSH2 0x4B19 DUP2 DUP4 DUP8 PUSH2 0x5083 JUMP JUMPDEST DUP2 ADD PUSH1 0xF DUP2 MSTORE SUB ADD SWAP1 KECCAK256 DUP7 PUSH1 0x0 MSTORE DUP6 MSTORE PUSH2 0x4B6D DUP6 PUSH1 0x5 PUSH2 0xA3B DUP5 PUSH2 0x4B5B PUSH1 0xFF DUP5 PUSH2 0xA20 DUP11 PUSH2 0x2EF0 DUP10 PUSH1 0x40 PUSH1 0x0 KECCAK256 SLOAD SWAP8 DUP9 SWAP4 PUSH1 0x40 MLOAD SWAP4 DUP5 SWAP3 DUP4 SWAP3 MLOAD SWAP3 DUP4 SWAP2 PUSH2 0x5083 JUMP JUMPDEST PUSH1 0x40 MLOAD DUP5 DUP2 DUP10 MLOAD PUSH2 0x2EF0 DUP2 DUP4 DUP13 PUSH2 0x5083 JUMP JUMPDEST DUP2 ADD PUSH1 0xE DUP2 MSTORE SUB ADD SWAP1 KECCAK256 DUP7 PUSH1 0x0 MSTORE DUP6 MSTORE PUSH1 0x40 PUSH1 0x0 KECCAK256 SWAP1 DUP2 SLOAD AND SWAP1 SSTORE PUSH2 0x55B3 JUMP JUMPDEST PUSH1 0x40 MLOAD PUSH3 0x461BCD PUSH1 0xE5 SHL DUP2 MSTORE PUSH1 0x4 DUP2 ADD DUP5 SWAP1 MSTORE PUSH1 0x15 PUSH1 0x24 DUP3 ADD MSTORE PUSH21 0x139BC8191A5CDC1D5D19481D1BC81C995D1C9858DD PUSH1 0x5A SHL PUSH1 0x44 DUP3 ADD MSTORE PUSH1 0x64 SWAP1 REVERT JUMPDEST SWAP1 SWAP3 POP DUP2 DUP2 DUP2 RETURNDATASIZE DUP4 GT PUSH2 0x4BF2 JUMPI JUMPDEST PUSH2 0x4BE2 DUP2 DUP4 PUSH2 0x4FC1 JUMP JUMPDEST DUP2 ADD SUB SLT PUSH2 0x80A JUMPI MLOAD SWAP2 DUP4 PUSH2 0x4AA0 JUMP JUMPDEST POP RETURNDATASIZE PUSH2 0x4BD8 JUMP JUMPDEST CALLVALUE PUSH2 0x80A JUMPI PUSH1 0x20 PUSH2 0x4C0C PUSH2 0x15B4 CALLDATASIZE PUSH2 0x5052 JUMP JUMPDEST DUP2 ADD PUSH1 0x5 DUP2 MSTORE SUB ADD SWAP1 KECCAK256 SWAP1 PUSH1 0x0 MSTORE PUSH1 0x20 MSTORE PUSH1 0x20 PUSH1 0xFF PUSH1 0x40 PUSH1 0x0 KECCAK256 SLOAD AND PUSH1 0x40 MLOAD SWAP1 ISZERO ISZERO DUP2 MSTORE RETURN JUMPDEST CALLVALUE PUSH2 0x80A JUMPI PUSH2 0x4C49 PUSH2 0x4C43 CALLDATASIZE PUSH2 0x5052 JUMP JUMPDEST SWAP1 PUSH2 0x562E JUMP JUMPDEST SWAP1 PUSH2 0x21FF PUSH1 0x40 SWAP6 SWAP5 SWAP6 MLOAD SWAP6 DUP7 SWAP6 ISZERO ISZERO DUP7 MSTORE PUSH1 0xA0 PUSH1 0x20 DUP8 ADD MSTORE PUSH1 0xA0 DUP7 ADD SWAP1 PUSH2 0x50C6 JUMP JUMPDEST CALLVALUE PUSH2 0x80A JUMPI PUSH1 0x0 CALLDATASIZE PUSH1 0x3 NOT ADD SLT PUSH2 0x80A JUMPI PUSH1 0x0 SLOAD PUSH1 0x40 MLOAD PUSH1 0x1 PUSH1 0x1 PUSH1 0xA0 SHL SUB SWAP1 SWAP2 AND DUP2 MSTORE PUSH1 0x20 SWAP1 RETURN JUMPDEST CALLVALUE PUSH2 0x80A JUMPI PUSH1 0x60 CALLDATASIZE PUSH1 0x3 NOT ADD SLT PUSH2 0x80A JUMPI PUSH1 0x4 CALLDATALOAD PUSH1 0x1 PUSH1 0x1 PUSH1 0x40 SHL SUB DUP2 GT PUSH2 0x80A JUMPI PUSH2 0x4CC4 SWAP1 CALLDATASIZE SWAP1 PUSH1 0x4 ADD PUSH2 0x5034 JUMP JUMPDEST PUSH2 0x4CCC PUSH2 0x50A6 JUMP JUMPDEST PUSH2 0x4CD4 PUSH2 0x50B6 JUMP JUMPDEST SWAP1 PUSH1 0xFF DUP1 DUP1 SWAP3 AND SWAP3 PUSH1 0x1 DUP5 LT ISZERO DUP1 PUSH2 0x4EF6 JUMPI JUMPDEST PUSH2 0x4CF0 SWAP1 PUSH2 0x545D JUMP JUMPDEST AND SWAP1 PUSH1 0x1 DUP3 LT ISZERO DUP1 PUSH2 0x4EEB JUMPI JUMPDEST PUSH2 0x4D06 SWAP1 PUSH2 0x54A0 JUMP JUMPDEST PUSH1 0x0 SLOAD PUSH1 0x40 MLOAD PUSH3 0xB0C809 PUSH1 0xE0 SHL DUP2 MSTORE CALLER PUSH1 0x4 DUP3 ADD MSTORE SWAP5 PUSH1 0x20 SWAP5 SWAP2 DUP6 SWAP1 DUP8 SWAP1 PUSH1 0x24 SWAP1 DUP3 SWAP1 PUSH1 0x1 PUSH1 0x1 PUSH1 0xA0 SHL SUB AND GAS STATICCALL SWAP6 DUP7 ISZERO PUSH2 0x817 JUMPI PUSH1 0x0 SWAP7 PUSH2 0x4EBC JUMPI JUMPDEST POP PUSH2 0x4D4F DUP7 ISZERO ISZERO PUSH2 0x54EC JUMP JUMPDEST PUSH1 0x40 MLOAD DUP2 MLOAD SWAP1 DUP7 DUP2 DUP2 DUP6 ADD SWAP4 PUSH2 0x4D66 DUP2 DUP4 DUP8 PUSH2 0x5083 JUMP JUMPDEST DUP2 ADD PUSH1 0xE DUP2 MSTORE SUB ADD SWAP1 KECCAK256 DUP8 PUSH1 0x0 MSTORE DUP7 MSTORE DUP4 PUSH1 0x40 PUSH1 0x0 KECCAK256 SLOAD AND ISZERO PUSH2 0x4E80 JUMPI PUSH2 0x4DC7 PUSH1 0x2 SWAP2 PUSH1 0x40 MLOAD DUP9 DUP2 DUP7 MLOAD PUSH2 0x4D9B DUP2 DUP4 DUP8 PUSH2 0x5083 JUMP JUMPDEST DUP2 ADD PUSH1 0xF DUP2 MSTORE SUB ADD SWAP1 KECCAK256 DUP10 PUSH1 0x0 MSTORE DUP9 MSTORE PUSH2 0x2EF0 DUP9 PUSH1 0x40 PUSH1 0x0 KECCAK256 SLOAD SWAP3 PUSH1 0x40 MLOAD DUP1 SWAP4 DUP2 SWAP3 DUP10 MLOAD SWAP3 DUP4 SWAP2 PUSH2 0x5083 JUMP JUMPDEST POP PUSH2 0x4DD7 DUP6 PUSH1 0x5 DUP4 ADD SLOAD AND PUSH2 0x5530 JUMP JUMPDEST ADD SWAP1 DUP2 SLOAD SWAP4 PUSH2 0x4DF2 DUP2 DUP7 AND SWAP5 PUSH2 0x4DEC DUP2 PUSH2 0x50EB JUMP JUMPDEST DUP5 PUSH2 0x557C JUMP JUMPDEST PUSH1 0x6 DUP7 LT ISZERO PUSH2 0x28C9 JUMPI PUSH2 0x4E69 PUSH1 0xA0 SWAP6 DUP5 PUSH2 0x4E30 PUSH32 0x5395FBD4F789F9B64D364B4F7ED8200E8D2A75A219F64DA159998CB161FDAB18 SWAP10 PUSH2 0x4E77 SWAP8 PUSH2 0x5594 JUMP JUMPDEST SLOAD SWAP4 PUSH2 0x4E3E DUP5 DUP7 AND SWAP2 PUSH2 0x55B3 JUMP JUMPDEST SWAP10 PUSH1 0x40 MLOAD SWAP8 PUSH2 0x4E4C DUP2 PUSH2 0x50EB JUMP JUMPDEST DUP9 MSTORE PUSH2 0x4E57 DUP3 PUSH2 0x50EB JUMP JUMPDEST DUP8 ADD MSTORE DUP3 PUSH1 0x40 DUP8 ADD SWAP2 PUSH1 0x8 SHR AND PUSH2 0x5366 JUMP JUMPDEST PUSH1 0x60 DUP5 ADD SWAP2 PUSH1 0x8 SHR AND PUSH2 0x5366 JUMP JUMPDEST TIMESTAMP PUSH1 0x80 DUP3 ADD MSTORE LOG3 STOP JUMPDEST PUSH1 0x40 MLOAD PUSH3 0x461BCD PUSH1 0xE5 SHL DUP2 MSTORE PUSH1 0x4 DUP2 ADD DUP8 SWAP1 MSTORE PUSH1 0x14 PUSH1 0x24 DUP3 ADD MSTORE PUSH20 0x4E6F206469737075746520746F206D6F64696679 PUSH1 0x60 SHL PUSH1 0x44 DUP3 ADD MSTORE PUSH1 0x64 SWAP1 REVERT JUMPDEST SWAP1 SWAP6 POP DUP5 DUP2 DUP2 RETURNDATASIZE DUP4 GT PUSH2 0x4EE4 JUMPI JUMPDEST PUSH2 0x4ED4 DUP2 DUP4 PUSH2 0x4FC1 JUMP JUMPDEST DUP2 ADD SUB SLT PUSH2 0x80A JUMPI MLOAD SWAP5 DUP7 PUSH2 0x4D43 JUMP JUMPDEST POP RETURNDATASIZE PUSH2 0x4ECA JUMP JUMPDEST POP PUSH1 0x5 DUP3 GT ISZERO PUSH2 0x4CFD JUMP JUMPDEST POP PUSH1 0x3 DUP5 GT ISZERO PUSH2 0x4CE7 JUMP JUMPDEST CALLVALUE PUSH2 0x80A JUMPI PUSH1 0x20 PUSH2 0x4F14 PUSH2 0x15B4 CALLDATASIZE PUSH2 0x5052 JUMP JUMPDEST DUP2 ADD PUSH1 0xE DUP2 MSTORE SUB ADD SWAP1 KECCAK256 SWAP1 PUSH1 0x0 MSTORE PUSH1 0x20 MSTORE PUSH1 0x20 PUSH1 0xFF PUSH1 0x40 PUSH1 0x0 KECCAK256 SLOAD AND PUSH1 0x40 MLOAD SWAP1 ISZERO ISZERO DUP2 MSTORE RETURN JUMPDEST PUSH1 0xC0 DUP2 ADD SWAP1 DUP2 LT PUSH1 0x1 PUSH1 0x1 PUSH1 0x40 SHL SUB DUP3 GT OR PUSH2 0x1DE0 JUMPI PUSH1 0x40 MSTORE JUMP JUMPDEST PUSH1 0xA0 DUP2 ADD SWAP1 DUP2 LT PUSH1 0x1 PUSH1 0x1 PUSH1 0x40 SHL SUB DUP3 GT OR PUSH2 0x1DE0 JUMPI PUSH1 0x40 MSTORE JUMP JUMPDEST PUSH1 0x80 DUP2 ADD SWAP1 DUP2 LT PUSH1 0x1 PUSH1 0x1 PUSH1 0x40 SHL SUB DUP3 GT OR PUSH2 0x1DE0 JUMPI PUSH1 0x40 MSTORE JUMP JUMPDEST PUSH1 0xE0 DUP2 ADD SWAP1 DUP2 LT PUSH1 0x1 PUSH1 0x1 PUSH1 0x40 SHL SUB DUP3 GT OR PUSH2 0x1DE0 JUMPI PUSH1 0x40 MSTORE JUMP JUMPDEST PUSH1 0x20 DUP2 ADD SWAP1 DUP2 LT PUSH1 0x1 PUSH1 0x1 PUSH1 0x40 SHL SUB DUP3 GT OR PUSH2 0x1DE0 JUMPI PUSH1 0x40 MSTORE JUMP JUMPDEST SWAP1 PUSH1 0x1F DUP1 NOT SWAP2 ADD AND DUP2 ADD SWAP1 DUP2 LT PUSH1 0x1 PUSH1 0x1 PUSH1 0x40 SHL SUB DUP3 GT OR PUSH2 0x1DE0 JUMPI PUSH1 0x40 MSTORE JUMP JUMPDEST PUSH1 0x1 PUSH1 0x1 PUSH1 0x40 SHL SUB DUP2 GT PUSH2 0x1DE0 JUMPI PUSH1 0x1F ADD PUSH1 0x1F NOT AND PUSH1 0x20 ADD SWAP1 JUMP JUMPDEST SWAP3 SWAP2 SWAP3 PUSH2 0x5009 DUP3 PUSH2 0x4FE2 JUMP JUMPDEST SWAP2 PUSH2 0x5017 PUSH1 0x40 MLOAD SWAP4 DUP5 PUSH2 0x4FC1 JUMP JUMPDEST DUP3 SWAP5 DUP2 DUP5 MSTORE DUP2 DUP4 ADD GT PUSH2 0x80A JUMPI DUP3 DUP2 PUSH1 0x20 SWAP4 DUP5 PUSH1 0x0 SWAP7 ADD CALLDATACOPY ADD ADD MSTORE JUMP JUMPDEST SWAP1 DUP1 PUSH1 0x1F DUP4 ADD SLT ISZERO PUSH2 0x80A JUMPI DUP2 PUSH1 0x20 PUSH2 0x504F SWAP4 CALLDATALOAD SWAP2 ADD PUSH2 0x4FFD JUMP JUMPDEST SWAP1 JUMP JUMPDEST PUSH1 0x40 PUSH1 0x3 NOT DUP3 ADD SLT PUSH2 0x80A JUMPI PUSH1 0x4 CALLDATALOAD SWAP1 PUSH1 0x1 PUSH1 0x1 PUSH1 0x40 SHL SUB DUP3 GT PUSH2 0x80A JUMPI PUSH2 0x507C SWAP2 PUSH1 0x4 ADD PUSH2 0x5034 JUMP JUMPDEST SWAP1 PUSH1 0x24 CALLDATALOAD SWAP1 JUMP JUMPDEST PUSH1 0x0 JUMPDEST DUP4 DUP2 LT PUSH2 0x5096 JUMPI POP POP PUSH1 0x0 SWAP2 ADD MSTORE JUMP JUMPDEST DUP2 DUP2 ADD MLOAD DUP4 DUP3 ADD MSTORE PUSH1 0x20 ADD PUSH2 0x5086 JUMP JUMPDEST PUSH1 0x24 CALLDATALOAD SWAP1 PUSH1 0xFF DUP3 AND DUP3 SUB PUSH2 0x80A JUMPI JUMP JUMPDEST PUSH1 0x44 CALLDATALOAD SWAP1 PUSH1 0xFF DUP3 AND DUP3 SUB PUSH2 0x80A JUMPI JUMP JUMPDEST SWAP1 PUSH1 0x20 SWAP2 PUSH2 0x50DF DUP2 MLOAD DUP1 SWAP3 DUP2 DUP6 MSTORE DUP6 DUP1 DUP7 ADD SWAP2 ADD PUSH2 0x5083 JUMP JUMPDEST PUSH1 0x1F ADD PUSH1 0x1F NOT AND ADD ADD SWAP1 JUMP JUMPDEST PUSH1 0x4 GT ISZERO PUSH2 0x28C9 JUMPI JUMP JUMPDEST DUP1 SLOAD DUP3 LT ISZERO PUSH2 0x510D JUMPI PUSH1 0x0 MSTORE PUSH1 0x20 PUSH1 0x0 KECCAK256 ADD SWAP1 PUSH1 0x0 SWAP1 JUMP JUMPDEST PUSH4 0x4E487B71 PUSH1 0xE0 SHL PUSH1 0x0 MSTORE PUSH1 0x32 PUSH1 0x4 MSTORE PUSH1 0x24 PUSH1 0x0 REVERT JUMPDEST SWAP1 PUSH1 0x1 DUP3 DUP2 SHR SWAP3 AND DUP1 ISZERO PUSH2 0x5153 JUMPI JUMPDEST PUSH1 0x20 DUP4 LT EQ PUSH2 0x513D JUMPI JUMP JUMPDEST PUSH4 0x4E487B71 PUSH1 0xE0 SHL PUSH1 0x0 MSTORE PUSH1 0x22 PUSH1 0x4 MSTORE PUSH1 0x24 PUSH1 0x0 REVERT JUMPDEST SWAP2 PUSH1 0x7F AND SWAP2 PUSH2 0x5132 JUMP JUMPDEST DUP1 SLOAD PUSH1 0x0 SWAP4 SWAP3 PUSH2 0x516C DUP3 PUSH2 0x5123 JUMP JUMPDEST SWAP2 DUP3 DUP3 MSTORE PUSH1 0x20 SWAP4 PUSH1 0x1 SWAP2 PUSH1 0x1 DUP2 AND SWAP1 DUP2 PUSH1 0x0 EQ PUSH2 0x51D4 JUMPI POP PUSH1 0x1 EQ PUSH2 0x5193 JUMPI JUMPDEST POP POP POP POP POP JUMP JUMPDEST SWAP1 SWAP4 SWAP5 SWAP6 POP PUSH1 0x0 SWAP3 SWAP2 SWAP3 MSTORE DUP4 PUSH1 0x0 KECCAK256 SWAP3 DUP5 PUSH1 0x0 SWAP5 JUMPDEST DUP4 DUP7 LT PUSH2 0x51C0 JUMPI POP POP POP POP ADD ADD SWAP1 CODESIZE DUP1 DUP1 DUP1 DUP1 PUSH2 0x518C JUMP JUMPDEST DUP1 SLOAD DUP6 DUP8 ADD DUP4 ADD MSTORE SWAP5 ADD SWAP4 DUP6 SWAP1 DUP3 ADD PUSH2 0x51A8 JUMP JUMPDEST PUSH1 0xFF NOT AND DUP7 DUP6 ADD MSTORE POP POP POP SWAP1 ISZERO ISZERO PUSH1 0x5 SHL ADD ADD SWAP2 POP CODESIZE DUP1 DUP1 DUP1 DUP1 PUSH2 0x518C JUMP JUMPDEST SWAP1 PUSH2 0x520B JUMPI PUSH2 0x504F PUSH2 0x10EF SWAP2 PUSH1 0x40 MLOAD SWAP3 DUP4 DUP1 SWAP3 PUSH2 0x515D JUMP JUMPDEST PUSH4 0x4E487B71 PUSH1 0xE0 SHL PUSH1 0x0 MSTORE PUSH1 0x0 PUSH1 0x4 MSTORE PUSH1 0x24 PUSH1 0x0 REVERT JUMPDEST PUSH1 0x20 SWAP1 PUSH1 0x20 PUSH1 0x40 DUP2 DUP4 ADD SWAP3 DUP3 DUP2 MSTORE DUP6 MLOAD DUP1 SWAP5 MSTORE ADD SWAP4 ADD SWAP2 PUSH1 0x0 JUMPDEST DUP3 DUP2 LT PUSH2 0x5249 JUMPI POP POP POP POP SWAP1 JUMP JUMPDEST DUP4 MLOAD DUP6 MSTORE SWAP4 DUP2 ADD SWAP4 SWAP3 DUP2 ADD SWAP3 PUSH1 0x1 ADD PUSH2 0x523B JUMP JUMPDEST DUP1 SLOAD DUP3 LT ISZERO PUSH2 0x510D JUMPI PUSH1 0x0 MSTORE PUSH1 0x20 PUSH1 0x0 KECCAK256 SWAP1 PUSH1 0x2 SHL ADD SWAP1 PUSH1 0x0 SWAP1 JUMP JUMPDEST PUSH1 0x20 DUP1 DUP3 ADD SWAP1 PUSH1 0x20 DUP4 MSTORE DUP4 MLOAD DUP1 SWAP3 MSTORE PUSH1 0x40 DUP4 ADD SWAP3 PUSH1 0x20 PUSH1 0x40 DUP5 PUSH1 0x5 SHL DUP4 ADD ADD SWAP6 ADD SWAP4 PUSH1 0x0 SWAP2 JUMPDEST DUP5 DUP4 LT PUSH2 0x52AF JUMPI POP POP POP POP POP POP SWAP1 JUMP JUMPDEST SWAP1 SWAP2 SWAP3 SWAP4 SWAP5 SWAP6 DUP5 DUP1 PUSH2 0x52CD PUSH1 0x1 SWAP4 PUSH1 0x3F NOT DUP7 DUP3 SUB ADD DUP8 MSTORE DUP11 MLOAD PUSH2 0x50C6 JUMP JUMPDEST SWAP9 ADD SWAP4 ADD SWAP4 ADD SWAP2 SWAP5 SWAP4 SWAP3 SWAP1 PUSH2 0x529F JUMP JUMPDEST PUSH1 0x4 CALLDATALOAD SWAP1 PUSH1 0x1 PUSH1 0x1 PUSH1 0xA0 SHL SUB DUP3 AND DUP3 SUB PUSH2 0x80A JUMPI JUMP JUMPDEST PUSH1 0x60 PUSH1 0x3 NOT DUP3 ADD SLT PUSH2 0x80A JUMPI PUSH1 0x4 CALLDATALOAD SWAP1 PUSH1 0x1 PUSH1 0x1 PUSH1 0x40 SHL SUB DUP3 GT PUSH2 0x80A JUMPI PUSH2 0x531D SWAP2 PUSH1 0x4 ADD PUSH2 0x5034 JUMP JUMPDEST SWAP1 PUSH1 0x24 CALLDATALOAD SWAP1 PUSH1 0x44 CALLDATALOAD SWAP1 JUMP JUMPDEST PUSH1 0x60 PUSH1 0x3 NOT DUP3 ADD SLT PUSH2 0x80A JUMPI PUSH1 0x4 CALLDATALOAD SWAP1 PUSH1 0x1 PUSH1 0x1 PUSH1 0x40 SHL SUB DUP3 GT PUSH2 0x80A JUMPI PUSH2 0x5352 SWAP2 PUSH1 0x4 ADD PUSH2 0x5034 JUMP JUMPDEST SWAP1 PUSH1 0x24 CALLDATALOAD SWAP1 PUSH1 0x44 CALLDATALOAD DUP1 ISZERO ISZERO DUP2 SUB PUSH2 0x80A JUMPI SWAP1 JUMP JUMPDEST SWAP1 PUSH1 0x6 DUP3 LT ISZERO PUSH2 0x28C9 JUMPI MSTORE JUMP JUMPDEST PUSH1 0x40 SWAP1 PUSH1 0x3 NOT ADD SLT PUSH2 0x80A JUMPI PUSH1 0x4 CALLDATALOAD SWAP1 PUSH1 0x24 CALLDATALOAD SWAP1 JUMP JUMPDEST SWAP1 PUSH1 0x5 DUP3 LT ISZERO PUSH2 0x28C9 JUMPI MSTORE JUMP JUMPDEST SWAP5 SWAP2 SWAP4 PUSH2 0x53C6 PUSH1 0xA0 SWAP6 PUSH2 0x53B8 PUSH2 0x53D6 SWAP5 SWAP11 SWAP10 SWAP7 SWAP11 PUSH1 0xC0 DUP11 MSTORE PUSH1 0xC0 DUP11 ADD SWAP1 PUSH2 0x50C6 JUMP JUMPDEST SWAP1 DUP9 DUP3 SUB PUSH1 0x20 DUP11 ADD MSTORE PUSH2 0x50C6 JUMP JUMPDEST SWAP8 PUSH1 0x40 DUP8 ADD MSTORE PUSH1 0x60 DUP7 ADD SWAP1 PUSH2 0x5389 JUMP JUMPDEST PUSH1 0x80 DUP5 ADD MSTORE ISZERO ISZERO SWAP2 ADD MSTORE JUMP JUMPDEST SWAP1 PUSH1 0x40 PUSH1 0x3 NOT DUP4 ADD SLT PUSH2 0x80A JUMPI PUSH1 0x1 PUSH1 0x1 PUSH1 0x40 SHL SUB PUSH1 0x4 CALLDATALOAD DUP2 DUP2 GT PUSH2 0x80A JUMPI DUP4 PUSH2 0x540E SWAP2 PUSH1 0x4 ADD PUSH2 0x5034 JUMP JUMPDEST SWAP3 PUSH1 0x24 CALLDATALOAD SWAP2 DUP3 GT PUSH2 0x80A JUMPI PUSH2 0x504F SWAP2 PUSH1 0x4 ADD PUSH2 0x5034 JUMP JUMPDEST DUP1 SLOAD DUP3 LT ISZERO PUSH2 0x510D JUMPI PUSH1 0x0 MSTORE PUSH1 0x5 PUSH1 0x20 PUSH1 0x0 KECCAK256 SWAP2 MUL ADD SWAP1 PUSH1 0x0 SWAP1 JUMP JUMPDEST DUP1 SLOAD DUP3 LT ISZERO PUSH2 0x510D JUMPI PUSH1 0x0 MSTORE PUSH1 0x6 PUSH1 0x20 PUSH1 0x0 KECCAK256 SWAP2 MUL ADD SWAP1 PUSH1 0x0 SWAP1 JUMP JUMPDEST ISZERO PUSH2 0x5464 JUMPI JUMP JUMPDEST PUSH1 0x40 MLOAD PUSH3 0x461BCD PUSH1 0xE5 SHL DUP2 MSTORE PUSH1 0x20 PUSH1 0x4 DUP3 ADD MSTORE PUSH1 0x14 PUSH1 0x24 DUP3 ADD MSTORE PUSH20 0x5365766572697479206D75737420626520312D33 PUSH1 0x60 SHL PUSH1 0x44 DUP3 ADD MSTORE PUSH1 0x64 SWAP1 REVERT JUMPDEST ISZERO PUSH2 0x54A7 JUMPI JUMP JUMPDEST PUSH1 0x40 MLOAD PUSH3 0x461BCD PUSH1 0xE5 SHL DUP2 MSTORE PUSH1 0x20 PUSH1 0x4 DUP3 ADD MSTORE PUSH1 0x17 PUSH1 0x24 DUP3 ADD MSTORE PUSH32 0x43756C706162696C697479206D75737420626520312D35000000000000000000 PUSH1 0x44 DUP3 ADD MSTORE PUSH1 0x64 SWAP1 REVERT JUMPDEST ISZERO PUSH2 0x54F3 JUMPI JUMP JUMPDEST PUSH1 0x40 MLOAD PUSH3 0x461BCD PUSH1 0xE5 SHL DUP2 MSTORE PUSH1 0x20 PUSH1 0x4 DUP3 ADD MSTORE PUSH1 0x15 PUSH1 0x24 DUP3 ADD MSTORE PUSH21 0x15D85B1B195D081B9BDD081C9959DA5CDD195C9959 PUSH1 0x5A SHL PUSH1 0x44 DUP3 ADD MSTORE PUSH1 0x64 SWAP1 REVERT JUMPDEST ISZERO PUSH2 0x5537 JUMPI JUMP JUMPDEST PUSH1 0x40 MLOAD PUSH3 0x461BCD PUSH1 0xE5 SHL DUP2 MSTORE PUSH1 0x20 PUSH1 0x4 DUP3 ADD MSTORE PUSH1 0x1A PUSH1 0x24 DUP3 ADD MSTORE PUSH32 0x4469737075746520686173206265656E20726574726163746564000000000000 PUSH1 0x44 DUP3 ADD MSTORE PUSH1 0x64 SWAP1 REVERT JUMPDEST SWAP1 PUSH2 0x5586 DUP2 PUSH2 0x50EB JUMP JUMPDEST PUSH1 0xFF DUP1 NOT DUP4 SLOAD AND SWAP2 AND OR SWAP1 SSTORE JUMP JUMPDEST SWAP1 PUSH1 0x6 DUP2 LT ISZERO PUSH2 0x28C9 JUMPI PUSH2 0xFF00 DUP3 SLOAD SWAP2 PUSH1 0x8 SHL AND SWAP1 PUSH2 0xFF00 NOT AND OR SWAP1 SSTORE JUMP JUMPDEST PUSH2 0x55CB SWAP1 PUSH1 0x20 PUSH1 0x40 MLOAD SWAP3 DUP3 DUP5 DUP1 SWAP5 MLOAD SWAP4 DUP5 SWAP3 ADD PUSH2 0x5083 JUMP JUMPDEST DUP2 ADD SUB SWAP1 KECCAK256 SWAP1 JUMP JUMPDEST SWAP1 PUSH1 0x40 MLOAD PUSH2 0x55E0 DUP2 PUSH2 0x4F55 JUMP JUMPDEST PUSH1 0x80 PUSH1 0xFF PUSH1 0x4 DUP4 SWAP6 DUP1 SLOAD DUP6 MSTORE PUSH1 0x40 MLOAD PUSH2 0x5600 DUP2 PUSH2 0x10EF DUP2 PUSH1 0x1 DUP7 ADD PUSH2 0x515D JUMP JUMPDEST PUSH1 0x20 DUP7 ADD MSTORE DUP3 PUSH1 0x2 DUP3 ADD SLOAD AND PUSH2 0x5615 DUP2 PUSH2 0x50EB JUMP JUMPDEST PUSH1 0x40 DUP7 ADD MSTORE PUSH1 0x3 DUP2 ADD SLOAD PUSH1 0x60 DUP7 ADD MSTORE ADD SLOAD AND ISZERO ISZERO SWAP2 ADD MSTORE JUMP JUMPDEST SWAP2 SWAP1 PUSH1 0x40 SWAP3 DUP4 MLOAD SWAP2 DUP5 DUP3 MLOAD SWAP2 PUSH1 0x20 SWAP5 DUP6 DUP2 DUP2 DUP8 ADD SWAP6 PUSH2 0x564E DUP2 DUP4 DUP10 PUSH2 0x5083 JUMP JUMPDEST DUP2 ADD PUSH1 0xB DUP2 MSTORE SUB ADD SWAP1 KECCAK256 SWAP1 PUSH1 0x0 SWAP2 DUP2 DUP4 MSTORE DUP7 MSTORE PUSH1 0xFF DUP4 DUP4 KECCAK256 SLOAD AND ISZERO PUSH2 0x56DD JUMPI PUSH2 0x56AF SWAP4 DUP4 PUSH2 0xA11 SWAP4 DUP9 SWAP4 PUSH2 0x56B5 SWAP9 SWAP7 MLOAD DUP6 DUP2 DUP10 MLOAD PUSH2 0x568D DUP2 DUP4 DUP11 PUSH2 0x5083 JUMP JUMPDEST DUP2 ADD PUSH1 0xC DUP2 MSTORE SUB ADD SWAP1 KECCAK256 SWAP1 DUP3 MSTORE DUP5 MSTORE KECCAK256 SLOAD SWAP4 DUP10 MLOAD SWAP4 DUP5 SWAP3 DUP4 SWAP3 MLOAD SWAP3 DUP4 SWAP2 PUSH2 0x5083 JUMP JUMPDEST POP PUSH2 0x55D3 JUMP JUMPDEST SWAP1 DUP2 ADD MLOAD SWAP3 DUP2 ADD MLOAD SWAP2 PUSH2 0x56C7 DUP4 PUSH2 0x50EB JUMP JUMPDEST PUSH1 0x80 PUSH1 0x60 DUP4 ADD MLOAD SWAP3 ADD MLOAD ISZERO ISZERO SWAP1 PUSH1 0x1 SWAP5 SWAP4 SWAP3 SWAP2 SWAP1 JUMP JUMPDEST POP SWAP5 SWAP4 POP POP POP POP DUP2 SWAP3 MLOAD PUSH2 0x56F0 DUP2 PUSH2 0x4FA6 JUMP JUMPDEST DUP3 DUP2 MSTORE SWAP2 DUP1 SWAP2 DUP2 SWAP1 JUMP JUMPDEST ISZERO PUSH2 0x5701 JUMPI JUMP JUMPDEST PUSH1 0x40 MLOAD PUSH3 0x461BCD PUSH1 0xE5 SHL DUP2 MSTORE PUSH1 0x20 PUSH1 0x4 DUP3 ADD MSTORE PUSH1 0x11 PUSH1 0x24 DUP3 ADD MSTORE PUSH17 0x105B1C9958591E481C995D1C9858DD1959 PUSH1 0x7A SHL PUSH1 0x44 DUP3 ADD MSTORE PUSH1 0x64 SWAP1 REVERT JUMPDEST PUSH1 0x1 PUSH1 0x1 PUSH1 0x40 SHL SUB DUP2 GT PUSH2 0x1DE0 JUMPI PUSH1 0x5 SHL PUSH1 0x20 ADD SWAP1 JUMP JUMPDEST SWAP1 PUSH1 0x40 MLOAD PUSH2 0x575E DUP2 PUSH2 0x4F70 JUMP JUMPDEST PUSH1 0x60 PUSH1 0xFF PUSH1 0x3 DUP4 SWAP6 DUP1 SLOAD DUP6 MSTORE DUP3 PUSH1 0x1 DUP3 ADD SLOAD AND ISZERO ISZERO PUSH1 0x20 DUP7 ADD MSTORE PUSH1 0x2 DUP2 ADD SLOAD PUSH1 0x40 DUP7 ADD MSTORE ADD SLOAD AND ISZERO ISZERO SWAP2 ADD MSTORE JUMP JUMPDEST DUP1 MLOAD DUP3 LT ISZERO PUSH2 0x510D JUMPI PUSH1 0x20 SWAP2 PUSH1 0x5 SHL ADD ADD SWAP1 JUMP JUMPDEST PUSH1 0x0 NOT DUP2 EQ PUSH2 0x3A3E JUMPI PUSH1 0x1 ADD SWAP1 JUMP JUMPDEST SWAP1 DUP2 PUSH1 0x20 SWAP2 SUB SLT PUSH2 0x80A JUMPI MLOAD DUP1 ISZERO ISZERO DUP2 SUB PUSH2 0x80A JUMPI SWAP1 JUMP JUMPDEST ISZERO PUSH2 0x57CE JUMPI JUMP JUMPDEST PUSH1 0x40 MLOAD PUSH3 0x461BCD PUSH1 0xE5 SHL DUP2 MSTORE PUSH1 0x20 PUSH1 0x4 DUP3 ADD MSTORE PUSH1 0x14 PUSH1 0x24 DUP3 ADD MSTORE PUSH20 0x2737BA1030B71030B1BA34BB329036B2B6B132B9 PUSH1 0x61 SHL PUSH1 0x44 DUP3 ADD MSTORE PUSH1 0x64 SWAP1 REVERT JUMPDEST SWAP1 PUSH2 0x5822 PUSH1 0x20 SWAP2 SWAP5 SWAP4 SWAP5 PUSH1 0x40 DUP5 MSTORE PUSH1 0x40 DUP5 ADD SWAP1 PUSH2 0x50C6 JUMP JUMPDEST PUSH1 0x1 PUSH1 0x1 PUSH1 0xA0 SHL SUB SWAP1 SWAP5 AND SWAP2 ADD MSTORE JUMP JUMPDEST ISZERO PUSH2 0x5839 JUMPI JUMP JUMPDEST PUSH1 0x40 MLOAD PUSH3 0x461BCD PUSH1 0xE5 SHL DUP2 MSTORE PUSH1 0x20 PUSH1 0x4 DUP3 ADD MSTORE PUSH1 0x18 PUSH1 0x24 DUP3 ADD MSTORE PUSH32 0x4E6F2061636365737320746F2074686973207265636F72640000000000000000 PUSH1 0x44 DUP3 ADD MSTORE PUSH1 0x64 SWAP1 REVERT JUMPDEST ISZERO PUSH2 0x5885 JUMPI JUMP JUMPDEST PUSH1 0x40 MLOAD PUSH3 0x461BCD PUSH1 0xE5 SHL DUP2 MSTORE PUSH1 0x20 PUSH1 0x4 DUP3 ADD MSTORE PUSH1 0xA PUSH1 0x24 DUP3 ADD MSTORE PUSH10 0x27B7363C9030B236B4B7 PUSH1 0xB1 SHL PUSH1 0x44 DUP3 ADD MSTORE PUSH1 0x64 SWAP1 REVERT JUMPDEST DUP2 DUP2 LT PUSH2 0x58C2 JUMPI POP POP JUMP JUMPDEST PUSH1 0x0 DUP2 SSTORE PUSH1 0x1 ADD PUSH2 0x58B7 JUMP JUMPDEST SWAP2 SWAP1 SWAP2 DUP3 MLOAD PUSH1 0x1 PUSH1 0x1 PUSH1 0x40 SHL SUB DUP2 GT PUSH2 0x1DE0 JUMPI PUSH2 0x58EB DUP3 SLOAD PUSH2 0x5123 JUMP JUMPDEST PUSH1 0x1F DUP2 GT PUSH2 0x5996 JUMPI JUMPDEST POP PUSH1 0x20 DUP1 PUSH1 0x1F DUP4 GT PUSH1 0x1 EQ PUSH2 0x5931 JUMPI POP DUP2 SWAP3 SWAP4 SWAP5 PUSH1 0x0 SWAP3 PUSH2 0x5926 JUMPI JUMPDEST POP POP DUP2 PUSH1 0x1 SHL SWAP2 PUSH1 0x0 NOT SWAP1 PUSH1 0x3 SHL SHR NOT AND OR SWAP1 SSTORE JUMP JUMPDEST ADD MLOAD SWAP1 POP CODESIZE DUP1 PUSH2 0x5910 JUMP JUMPDEST SWAP1 PUSH1 0x1F NOT DUP4 AND SWAP6 DUP5 PUSH1 0x0 MSTORE PUSH1 0x20 PUSH1 0x0 KECCAK256 SWAP3 PUSH1 0x0 SWAP1 JUMPDEST DUP9 DUP3 LT PUSH2 0x597E JUMPI POP POP DUP4 PUSH1 0x1 SWAP6 SWAP7 SWAP8 LT PUSH2 0x5965 JUMPI JUMPDEST POP POP POP DUP2 SHL ADD SWAP1 SSTORE JUMP JUMPDEST ADD MLOAD PUSH1 0x0 NOT PUSH1 0xF8 DUP5 PUSH1 0x3 SHL AND SHR NOT AND SWAP1 SSTORE CODESIZE DUP1 DUP1 PUSH2 0x595B JUMP JUMPDEST DUP1 PUSH1 0x1 DUP6 SWAP7 DUP3 SWAP5 SWAP7 DUP7 ADD MLOAD DUP2 SSTORE ADD SWAP6 ADD SWAP4 ADD SWAP1 PUSH2 0x5946 JUMP JUMPDEST PUSH2 0x59C3 SWAP1 DUP4 PUSH1 0x0 MSTORE PUSH1 0x20 PUSH1 0x0 KECCAK256 PUSH1 0x1F DUP5 ADD PUSH1 0x5 SHR DUP2 ADD SWAP2 PUSH1 0x20 DUP6 LT PUSH2 0x59C9 JUMPI JUMPDEST PUSH1 0x1F ADD PUSH1 0x5 SHR ADD SWAP1 PUSH2 0x58B7 JUMP JUMPDEST CODESIZE PUSH2 0x58F4 JUMP JUMPDEST SWAP1 SWAP2 POP DUP2 SWAP1 PUSH2 0x59B6 JUMP JUMPDEST SWAP1 PUSH1 0x5 DUP2 LT ISZERO PUSH2 0x28C9 JUMPI PUSH1 0xFF DUP1 NOT DUP4 SLOAD AND SWAP2 AND OR SWAP1 SSTORE JUMP JUMPDEST ISZERO PUSH2 0x59F2 JUMPI JUMP JUMPDEST PUSH1 0x40 MLOAD PUSH3 0x461BCD PUSH1 0xE5 SHL DUP2 MSTORE PUSH1 0x20 PUSH1 0x4 DUP3 ADD MSTORE PUSH1 0x13 PUSH1 0x24 DUP3 ADD MSTORE PUSH19 0x119B1859C8191BD95CC81B9BDD08195E1A5CDD PUSH1 0x6A SHL PUSH1 0x44 DUP3 ADD MSTORE PUSH1 0x64 SWAP1 REVERT JUMPDEST ISZERO PUSH2 0x5A34 JUMPI JUMP JUMPDEST PUSH1 0x40 MLOAD PUSH3 0x461BCD PUSH1 0xE5 SHL DUP2 MSTORE PUSH1 0x20 PUSH1 0x4 DUP3 ADD MSTORE PUSH1 0x19 PUSH1 0x24 DUP3 ADD MSTORE PUSH32 0x5265636F72642049442063616E6E6F7420626520656D70747900000000000000 PUSH1 0x44 DUP3 ADD MSTORE PUSH1 0x64 SWAP1 REVERT JUMPDEST ISZERO PUSH2 0x5A80 JUMPI JUMP JUMPDEST PUSH1 0x40 MLOAD PUSH3 0x461BCD PUSH1 0xE5 SHL DUP2 MSTORE PUSH1 0x20 PUSH1 0x4 DUP3 ADD MSTORE PUSH1 0x1B PUSH1 0x24 DUP3 ADD MSTORE PUSH32 0x5265636F726420686173682063616E6E6F7420626520656D7074790000000000 PUSH1 0x44 DUP3 ADD MSTORE PUSH1 0x64 SWAP1 REVERT JUMPDEST ISZERO PUSH2 0x5ACC JUMPI JUMP JUMPDEST PUSH1 0x40 MLOAD PUSH3 0x461BCD PUSH1 0xE5 SHL DUP2 MSTORE PUSH1 0x20 PUSH1 0x4 DUP3 ADD MSTORE PUSH1 0x11 PUSH1 0x24 DUP3 ADD MSTORE PUSH17 0x4C6576656C206D75737420626520312D33 PUSH1 0x78 SHL PUSH1 0x44 DUP3 ADD MSTORE PUSH1 0x64 SWAP1 REVERT JUMPDEST DUP1 SLOAD PUSH1 0x1 PUSH1 0x40 SHL DUP2 LT ISZERO PUSH2 0x1DE0 JUMPI PUSH2 0x5B22 SWAP2 PUSH1 0x1 DUP3 ADD DUP2 SSTORE PUSH2 0x50F5 JUMP JUMPDEST SWAP2 SWAP1 SWAP2 PUSH2 0x520B JUMPI PUSH2 0x5B32 SWAP2 PUSH2 0x58CE JUMP JUMPDEST JUMP JUMPDEST PUSH1 0x6 DUP3 LT ISZERO PUSH2 0x28C9 JUMPI MSTORE JUMP JUMPDEST SWAP1 PUSH1 0x40 MLOAD PUSH2 0x5B4D DUP2 PUSH2 0x4F8B JUMP JUMPDEST PUSH1 0xC0 PUSH1 0xFF PUSH1 0x5 DUP4 SWAP6 DUP1 SLOAD DUP6 MSTORE PUSH1 0x40 MLOAD PUSH2 0x5B6D DUP2 PUSH2 0x10EF DUP2 PUSH1 0x1 DUP7 ADD PUSH2 0x515D JUMP JUMPDEST PUSH1 0x20 DUP7 ADD MSTORE PUSH2 0x5B99 DUP4 PUSH1 0x2 DUP4 ADD SLOAD DUP2 DUP2 AND PUSH2 0x5B87 DUP2 PUSH2 0x50EB JUMP JUMPDEST PUSH1 0x40 DUP10 ADD MSTORE PUSH1 0x8 SHR AND PUSH1 0x60 DUP8 ADD PUSH2 0x5B34 JUMP JUMPDEST PUSH1 0x40 MLOAD PUSH2 0x5BAD DUP2 PUSH2 0x10EF DUP2 PUSH1 0x3 DUP7 ADD PUSH2 0x515D JUMP JUMPDEST PUSH1 0x80 DUP7 ADD MSTORE PUSH1 0x4 DUP2 ADD SLOAD PUSH1 0xA0 DUP7 ADD MSTORE ADD SLOAD AND ISZERO ISZERO SWAP2 ADD MSTORE JUMP JUMPDEST SWAP1 PUSH1 0x40 MLOAD PUSH2 0x5BD3 DUP2 PUSH2 0x4F3A JUMP JUMPDEST DUP1 SWAP3 PUSH1 0x40 MLOAD PUSH2 0x5BE6 DUP2 PUSH2 0x10EF DUP2 DUP6 PUSH2 0x515D JUMP JUMPDEST DUP3 MSTORE PUSH1 0x40 MLOAD PUSH2 0x5BFC DUP2 PUSH2 0x10EF DUP2 PUSH1 0x1 DUP7 ADD PUSH2 0x515D JUMP JUMPDEST PUSH1 0x20 DUP4 ADD MSTORE PUSH1 0x2 DUP2 ADD SLOAD PUSH1 0x40 DUP4 ADD MSTORE PUSH1 0xFF PUSH1 0x3 DUP3 ADD SLOAD AND SWAP1 PUSH1 0x5 DUP3 LT ISZERO PUSH2 0x28C9 JUMPI PUSH1 0x5 PUSH1 0xFF SWAP2 PUSH1 0xA0 SWAP4 PUSH1 0x60 DUP7 ADD MSTORE PUSH1 0x4 DUP2 ADD SLOAD PUSH1 0x80 DUP7 ADD MSTORE ADD SLOAD AND ISZERO ISZERO SWAP2 ADD MSTORE JUMP JUMPDEST ISZERO PUSH2 0x5C45 JUMPI JUMP JUMPDEST PUSH1 0x40 MLOAD PUSH3 0x461BCD PUSH1 0xE5 SHL DUP2 MSTORE PUSH1 0x20 PUSH1 0x4 DUP3 ADD MSTORE PUSH1 0xF PUSH1 0x24 DUP3 ADD MSTORE PUSH15 0x496E76616C69642061646472657373 PUSH1 0x88 SHL PUSH1 0x44 DUP3 ADD MSTORE PUSH1 0x64 SWAP1 REVERT JUMPDEST SWAP1 PUSH1 0x40 SWAP3 DUP4 MLOAD SWAP3 DUP1 MLOAD PUSH1 0x20 SWAP5 DUP6 DUP2 DUP2 DUP6 ADD SWAP4 PUSH2 0x5C99 DUP2 DUP4 DUP8 PUSH2 0x5083 JUMP JUMPDEST DUP2 ADD PUSH1 0xE DUP2 MSTORE SUB ADD SWAP1 KECCAK256 SWAP4 PUSH1 0x0 SWAP5 DUP2 DUP7 MSTORE DUP7 MSTORE PUSH1 0xFF DUP8 DUP7 KECCAK256 SLOAD AND ISZERO PUSH2 0x5D54 JUMPI SWAP2 PUSH2 0x2EF0 DUP7 PUSH2 0x5CFA SWAP4 PUSH2 0x5D00 SWAP6 DUP11 MLOAD DUP4 DUP2 DUP8 MLOAD PUSH2 0x5CD6 DUP2 DUP4 DUP9 PUSH2 0x5083 JUMP JUMPDEST DUP2 ADD PUSH1 0xF DUP2 MSTORE SUB ADD SWAP1 KECCAK256 SWAP1 DUP10 MSTORE DUP3 MSTORE DUP10 DUP9 KECCAK256 SLOAD SWAP4 DUP11 MLOAD SWAP4 DUP5 SWAP3 DUP4 SWAP3 MLOAD SWAP3 DUP4 SWAP2 PUSH2 0x5083 JUMP JUMPDEST POP PUSH2 0x5B40 JUMP JUMPDEST SWAP3 DUP4 ADD MLOAD SWAP4 DUP4 ADD MLOAD SWAP3 PUSH2 0x5D12 DUP5 PUSH2 0x50EB JUMP JUMPDEST PUSH1 0x60 DUP2 ADD MLOAD SWAP3 PUSH1 0x6 DUP5 LT ISZERO PUSH2 0x5D40 JUMPI POP PUSH1 0x80 DUP2 ADD MLOAD SWAP2 PUSH1 0xC0 PUSH1 0xA0 DUP4 ADD MLOAD SWAP3 ADD MLOAD ISZERO ISZERO SWAP1 PUSH1 0x1 SWAP7 SWAP6 SWAP5 SWAP4 SWAP3 SWAP2 SWAP1 JUMP JUMPDEST PUSH4 0x4E487B71 PUSH1 0xE0 SHL DUP2 MSTORE PUSH1 0x21 PUSH1 0x4 MSTORE PUSH1 0x24 SWAP1 REVERT JUMPDEST POP POP POP SWAP2 POP DUP1 SWAP3 DUP1 MLOAD PUSH2 0x5D66 DUP2 PUSH2 0x4FA6 JUMP JUMPDEST DUP3 DUP2 MSTORE SWAP3 DUP3 DUP1 SWAP3 MLOAD PUSH2 0x5D77 DUP2 PUSH2 0x4FA6 JUMP JUMPDEST DUP2 DUP2 MSTORE SWAP2 DUP2 SWAP1 JUMP JUMPDEST SWAP3 SWAP1 SWAP2 SWAP3 PUSH1 0x40 SWAP4 DUP5 MLOAD SWAP4 DUP3 MLOAD PUSH1 0x20 SWAP6 DUP7 DUP2 DUP2 DUP8 ADD SWAP4 PUSH2 0x5D9F DUP2 DUP4 DUP8 PUSH2 0x5083 JUMP JUMPDEST DUP2 ADD PUSH1 0x11 DUP2 MSTORE SUB ADD SWAP1 KECCAK256 SWAP3 PUSH1 0x0 SWAP4 DUP4 DUP6 MSTORE DUP8 MSTORE DUP8 DUP5 KECCAK256 DUP2 DUP6 MSTORE DUP8 MSTORE PUSH1 0xFF DUP9 DUP6 KECCAK256 SLOAD AND ISZERO PUSH2 0x5E48 JUMPI PUSH2 0x5E30 SWAP4 PUSH2 0x5E2A SWAP4 PUSH2 0x5E15 DUP10 PUSH1 0x60 SWAP9 SWAP6 DUP13 SWAP6 DUP7 MLOAD DUP4 DUP2 DUP11 MLOAD PUSH2 0x5DE9 DUP2 DUP4 DUP9 PUSH2 0x5083 JUMP JUMPDEST DUP2 ADD PUSH1 0x12 DUP2 MSTORE SUB ADD SWAP1 KECCAK256 DUP6 DUP8 MSTORE DUP4 MSTORE DUP7 DUP7 KECCAK256 SWAP1 DUP7 MSTORE DUP3 MSTORE DUP6 DUP6 KECCAK256 SLOAD SWAP7 DUP7 MLOAD SWAP4 DUP5 SWAP3 DUP4 SWAP3 MLOAD SWAP3 DUP4 SWAP2 PUSH2 0x5083 JUMP JUMPDEST DUP2 ADD PUSH1 0x10 DUP2 MSTORE SUB ADD SWAP1 KECCAK256 SWAP1 DUP3 MSTORE DUP9 MSTORE KECCAK256 PUSH2 0x525D JUMP JUMPDEST POP PUSH2 0x5751 JUMP JUMPDEST SWAP3 DUP4 ADD MLOAD ISZERO ISZERO SWAP4 DUP4 ADD MLOAD SWAP3 ADD MLOAD ISZERO ISZERO SWAP1 PUSH1 0x1 SWAP4 SWAP3 SWAP2 SWAP1 JUMP JUMPDEST POP POP POP SWAP4 POP POP SWAP1 POP DUP2 DUP1 SWAP2 DUP2 SWAP1 JUMP JUMPDEST SWAP1 PUSH2 0x5E7E JUMPI POP DUP1 MLOAD ISZERO PUSH2 0x5E6C JUMPI DUP1 MLOAD SWAP1 PUSH1 0x20 ADD REVERT JUMPDEST PUSH1 0x40 MLOAD PUSH4 0xA12F521 PUSH1 0xE1 SHL DUP2 MSTORE PUSH1 0x4 SWAP1 REVERT JUMPDEST DUP2 MLOAD ISZERO DUP1 PUSH2 0x5EB1 JUMPI JUMPDEST PUSH2 0x5E8F JUMPI POP SWAP1 JUMP JUMPDEST PUSH1 0x40 MLOAD PUSH4 0x9996B315 PUSH1 0xE0 SHL DUP2 MSTORE PUSH1 0x1 PUSH1 0x1 PUSH1 0xA0 SHL SUB SWAP1 SWAP2 AND PUSH1 0x4 DUP3 ADD MSTORE PUSH1 0x24 SWAP1 REVERT JUMPDEST POP DUP1 EXTCODESIZE ISZERO PUSH2 0x5E87 JUMP INVALID LOG2 PUSH5 0x6970667358 0x22 SLT KECCAK256 0x4E REVERT SUB EXTCODECOPY 0x29 SLT DUP5 SWAP11 ADDMOD 0xDA 0xEE GT 0xDB AND 0xC3 SWAP6 PUSH5 0xEDA5B11182 0xAF 0xF MSTORE8 SWAP7 CALLER 0xF DUP12 0xE0 0xAC TIMESTAMP PUSH5 0x736F6C6343 STOP ADDMOD OR STOP CALLER "},"methodIdentifiers":{"UPGRADE_INTERFACE_VERSION()":"ad3cb1cc","activeUnacceptedFlagCount(bytes32)":"dbc7b842","addRecordHash(string,string)":"e2aae6e0","admin()":"f851a440","anchorRecord(string,string)":"883080af","currentlyDisputed(string,bytes32)":"0a36148b","currentlyReacted(string,bytes32,bytes32)":"4f893ed6","currentlyVerified(string,bytes32)":"80027ff6","disputeIndex(string,bytes32)":"25db354d","disputeReactions(string,bytes32,uint256)":"2e6df698","disputeRecord(string,string,uint8,uint8,string)":"fd328f58","disputes(string,uint256)":"ca1e910a","disputesByUser(bytes32,uint256)":"adcee102","doesHashExist(string)":"05f59439","flagUnacceptedUpdate(bytes32,string,string)":"3f132dc1","getActiveRecordSubjects(string)":"2a4e0476","getActiveUnacceptedFlagCount(bytes32)":"249dda2e","getDisputeReactions(string,bytes32)":"f5e7f9f4","getDisputeStats(string)":"6018200d","getDisputes(string)":"629be2b6","getReactionStats(string,bytes32)":"1b7cabb7","getRecordIdForHash(string)":"21d9caaa","getRecordSubjects(string)":"400f8d06","getRecordVersionHistory(string)":"315ca5ba","getSubjectMedicalHistory(bytes32)":"c7695bab","getSubjectStats(string)":"7286b6f9","getTotalAnchoredRecords()":"d46e082f","getUnacceptedUpdateFlag(bytes32,uint256)":"6eb7457f","getUnacceptedUpdateFlags(bytes32)":"f251f8e4","getUserDispute(string,bytes32)":"8e3ccbcf","getUserDisputes(bytes32)":"d08c800d","getUserReaction(string,bytes32,bytes32)":"f9f70c4a","getUserVerification(string,bytes32)":"19bfe5f2","getUserVerifications(bytes32)":"e08f1ac3","getVerificationStats(string)":"339a0aec","getVerifications(string)":"2fa8db04","getVersionCount(string)":"223c3bb9","hasActiveUnacceptedFlags(bytes32)":"5d28a342","hasUserDisputed(string,bytes32)":"003297e4","hasUserReacted(string,bytes32,bytes32)":"98909e22","hasUserVerified(string,bytes32)":"0fbab50a","initialize(address)":"c4d66de8","isActiveSubject(string,bytes32)":"f3ac2bea","isHashActive(string)":"411ab584","isSubject(string,bytes32)":"c6bd1572","isSubjectActive(string,bytes32)":"1a6b3d2a","isSubjectOfRecord(string,bytes32)":"01b4147d","memberRoleManager()":"15370703","modifyDispute(string,uint8,uint8)":"10a0e88a","modifyReaction(string,bytes32,bool)":"5a18672e","modifyVerificationLevel(string,uint8)":"a5f2d1d1","proxiableUUID()":"52d1902d","reactToDispute(string,bytes32,bool)":"533acffd","reactionIndex(string,bytes32,bytes32)":"b0c7363c","reanchorRecord(string)":"b48ac4d2","recordIdForHash(string)":"365348e9","recordSubjects(string,uint256)":"c282f4ab","recordVersionHistory(string,uint256)":"1ec50c0e","resolveUnacceptedUpdate(bytes32,uint256,uint8)":"4b7c908a","retractDispute(string)":"1aacda88","retractReaction(string,bytes32)":"4294e2ff","retractRecordHash(string,string)":"e11c45b7","retractVerification(string)":"f7c0d033","setMemberRoleManager(address)":"dd0bc082","subjectMedicalHistory(bytes32,uint256)":"b27bb4d5","totalAnchoredRecords()":"1cf8cbe8","totalDisputes()":"c5e4ccc4","totalUnacceptedFlags()":"ac924336","totalVerifications()":"ac90c140","transferAdmin(address)":"75829def","unacceptedUpdateFlags(bytes32,uint256)":"c18cf8d2","unanchorRecord(string)":"35c4c203","upgradeToAndCall(address,bytes)":"4f1ef286","verificationIndex(string,bytes32)":"5d12da50","verifications(string,uint256)":"8da1d369","verificationsByUser(bytes32,uint256)":"b5e6b7a2","verifyRecord(string,string,uint8)":"5203cbed"}},"storageLayout":{"storage":[{"astId":4815,"contract":"contracts/HealthRecordCore.sol:HealthRecordCore","label":"memberRoleManager","offset":0,"slot":"0","type":"t_contract(MemberRoleManagerInterface)4807"},{"astId":4817,"contract":"contracts/HealthRecordCore.sol:HealthRecordCore","label":"admin","offset":0,"slot":"1","type":"t_address"},{"astId":5066,"contract":"contracts/HealthRecordCore.sol:HealthRecordCore","label":"recordSubjects","offset":0,"slot":"2","type":"t_mapping(t_string_memory_ptr,t_array(t_bytes32)dyn_storage)"},{"astId":5072,"contract":"contracts/HealthRecordCore.sol:HealthRecordCore","label":"isSubjectOfRecord","offset":0,"slot":"3","type":"t_mapping(t_string_memory_ptr,t_mapping(t_bytes32,t_bool))"},{"astId":5077,"contract":"contracts/HealthRecordCore.sol:HealthRecordCore","label":"subjectMedicalHistory","offset":0,"slot":"4","type":"t_mapping(t_bytes32,t_array(t_string_storage)dyn_storage)"},{"astId":5083,"contract":"contracts/HealthRecordCore.sol:HealthRecordCore","label":"isSubjectActive","offset":0,"slot":"5","type":"t_mapping(t_string_memory_ptr,t_mapping(t_bytes32,t_bool))"},{"astId":5087,"contract":"contracts/HealthRecordCore.sol:HealthRecordCore","label":"recordIdForHash","offset":0,"slot":"6","type":"t_mapping(t_string_memory_ptr,t_string_storage)"},{"astId":5092,"contract":"contracts/HealthRecordCore.sol:HealthRecordCore","label":"recordVersionHistory","offset":0,"slot":"7","type":"t_mapping(t_string_memory_ptr,t_array(t_string_storage)dyn_storage)"},{"astId":5096,"contract":"contracts/HealthRecordCore.sol:HealthRecordCore","label":"isHashActive","offset":0,"slot":"8","type":"t_mapping(t_string_memory_ptr,t_bool)"},{"astId":5098,"contract":"contracts/HealthRecordCore.sol:HealthRecordCore","label":"totalAnchoredRecords","offset":0,"slot":"9","type":"t_uint256"},{"astId":6083,"contract":"contracts/HealthRecordCore.sol:HealthRecordCore","label":"verifications","offset":0,"slot":"10","type":"t_mapping(t_string_memory_ptr,t_array(t_struct(Verification)6037_storage)dyn_storage)"},{"astId":6089,"contract":"contracts/HealthRecordCore.sol:HealthRecordCore","label":"currentlyVerified","offset":0,"slot":"11","type":"t_mapping(t_string_memory_ptr,t_mapping(t_bytes32,t_bool))"},{"astId":6095,"contract":"contracts/HealthRecordCore.sol:HealthRecordCore","label":"verificationIndex","offset":0,"slot":"12","type":"t_mapping(t_string_memory_ptr,t_mapping(t_bytes32,t_uint256))"},{"astId":6101,"contract":"contracts/HealthRecordCore.sol:HealthRecordCore","label":"disputes","offset":0,"slot":"13","type":"t_mapping(t_string_memory_ptr,t_array(t_struct(Dispute)6054_storage)dyn_storage)"},{"astId":6107,"contract":"contracts/HealthRecordCore.sol:HealthRecordCore","label":"currentlyDisputed","offset":0,"slot":"14","type":"t_mapping(t_string_memory_ptr,t_mapping(t_bytes32,t_bool))"},{"astId":6113,"contract":"contracts/HealthRecordCore.sol:HealthRecordCore","label":"disputeIndex","offset":0,"slot":"15","type":"t_mapping(t_string_memory_ptr,t_mapping(t_bytes32,t_uint256))"},{"astId":6121,"contract":"contracts/HealthRecordCore.sol:HealthRecordCore","label":"disputeReactions","offset":0,"slot":"16","type":"t_mapping(t_string_memory_ptr,t_mapping(t_bytes32,t_array(t_struct(Reaction)6063_storage)dyn_storage))"},{"astId":6129,"contract":"contracts/HealthRecordCore.sol:HealthRecordCore","label":"currentlyReacted","offset":0,"slot":"17","type":"t_mapping(t_string_memory_ptr,t_mapping(t_bytes32,t_mapping(t_bytes32,t_bool)))"},{"astId":6137,"contract":"contracts/HealthRecordCore.sol:HealthRecordCore","label":"reactionIndex","offset":0,"slot":"18","type":"t_mapping(t_string_memory_ptr,t_mapping(t_bytes32,t_mapping(t_bytes32,t_uint256)))"},{"astId":6143,"contract":"contracts/HealthRecordCore.sol:HealthRecordCore","label":"unacceptedUpdateFlags","offset":0,"slot":"19","type":"t_mapping(t_bytes32,t_array(t_struct(UnacceptedUpdateFlag)6077_storage)dyn_storage)"},{"astId":6147,"contract":"contracts/HealthRecordCore.sol:HealthRecordCore","label":"activeUnacceptedFlagCount","offset":0,"slot":"20","type":"t_mapping(t_bytes32,t_uint256)"},{"astId":6152,"contract":"contracts/HealthRecordCore.sol:HealthRecordCore","label":"verificationsByUser","offset":0,"slot":"21","type":"t_mapping(t_bytes32,t_array(t_string_storage)dyn_storage)"},{"astId":6157,"contract":"contracts/HealthRecordCore.sol:HealthRecordCore","label":"disputesByUser","offset":0,"slot":"22","type":"t_mapping(t_bytes32,t_array(t_string_storage)dyn_storage)"},{"astId":6159,"contract":"contracts/HealthRecordCore.sol:HealthRecordCore","label":"totalVerifications","offset":0,"slot":"23","type":"t_uint256"},{"astId":6161,"contract":"contracts/HealthRecordCore.sol:HealthRecordCore","label":"totalDisputes","offset":0,"slot":"24","type":"t_uint256"},{"astId":6163,"contract":"contracts/HealthRecordCore.sol:HealthRecordCore","label":"totalUnacceptedFlags","offset":0,"slot":"25","type":"t_uint256"}],"types":{"t_address":{"encoding":"inplace","label":"address","numberOfBytes":"20"},"t_array(t_bytes32)dyn_storage":{"base":"t_bytes32","encoding":"dynamic_array","label":"bytes32[]","numberOfBytes":"32"},"t_array(t_string_storage)dyn_storage":{"base":"t_string_storage","encoding":"dynamic_array","label":"string[]","numberOfBytes":"32"},"t_array(t_struct(Dispute)6054_storage)dyn_storage":{"base":"t_struct(Dispute)6054_storage","encoding":"dynamic_array","label":"struct HealthRecordCore.Dispute[]","numberOfBytes":"32"},"t_array(t_struct(Reaction)6063_storage)dyn_storage":{"base":"t_struct(Reaction)6063_storage","encoding":"dynamic_array","label":"struct HealthRecordCore.Reaction[]","numberOfBytes":"32"},"t_array(t_struct(UnacceptedUpdateFlag)6077_storage)dyn_storage":{"base":"t_struct(UnacceptedUpdateFlag)6077_storage","encoding":"dynamic_array","label":"struct HealthRecordCore.UnacceptedUpdateFlag[]","numberOfBytes":"32"},"t_array(t_struct(Verification)6037_storage)dyn_storage":{"base":"t_struct(Verification)6037_storage","encoding":"dynamic_array","label":"struct HealthRecordCore.Verification[]","numberOfBytes":"32"},"t_bool":{"encoding":"inplace","label":"bool","numberOfBytes":"1"},"t_bytes32":{"encoding":"inplace","label":"bytes32","numberOfBytes":"32"},"t_contract(MemberRoleManagerInterface)4807":{"encoding":"inplace","label":"contract MemberRoleManagerInterface","numberOfBytes":"20"},"t_enum(DisputeCulpability)6019":{"encoding":"inplace","label":"enum HealthRecordCore.DisputeCulpability","numberOfBytes":"1"},"t_enum(DisputeSeverity)6012":{"encoding":"inplace","label":"enum HealthRecordCore.DisputeSeverity","numberOfBytes":"1"},"t_enum(ResolutionType)6025":{"encoding":"inplace","label":"enum HealthRecordCore.ResolutionType","numberOfBytes":"1"},"t_enum(VerificationLevel)6007":{"encoding":"inplace","label":"enum HealthRecordCore.VerificationLevel","numberOfBytes":"1"},"t_mapping(t_bytes32,t_array(t_string_storage)dyn_storage)":{"encoding":"mapping","key":"t_bytes32","label":"mapping(bytes32 => string[])","numberOfBytes":"32","value":"t_array(t_string_storage)dyn_storage"},"t_mapping(t_bytes32,t_array(t_struct(Reaction)6063_storage)dyn_storage)":{"encoding":"mapping","key":"t_bytes32","label":"mapping(bytes32 => struct HealthRecordCore.Reaction[])","numberOfBytes":"32","value":"t_array(t_struct(Reaction)6063_storage)dyn_storage"},"t_mapping(t_bytes32,t_array(t_struct(UnacceptedUpdateFlag)6077_storage)dyn_storage)":{"encoding":"mapping","key":"t_bytes32","label":"mapping(bytes32 => struct HealthRecordCore.UnacceptedUpdateFlag[])","numberOfBytes":"32","value":"t_array(t_struct(UnacceptedUpdateFlag)6077_storage)dyn_storage"},"t_mapping(t_bytes32,t_bool)":{"encoding":"mapping","key":"t_bytes32","label":"mapping(bytes32 => bool)","numberOfBytes":"32","value":"t_bool"},"t_mapping(t_bytes32,t_mapping(t_bytes32,t_bool))":{"encoding":"mapping","key":"t_bytes32","label":"mapping(bytes32 => mapping(bytes32 => bool))","numberOfBytes":"32","value":"t_mapping(t_bytes32,t_bool)"},"t_mapping(t_bytes32,t_mapping(t_bytes32,t_uint256))":{"encoding":"mapping","key":"t_bytes32","label":"mapping(bytes32 => mapping(bytes32 => uint256))","numberOfBytes":"32","value":"t_mapping(t_bytes32,t_uint256)"},"t_mapping(t_bytes32,t_uint256)":{"encoding":"mapping","key":"t_bytes32","label":"mapping(bytes32 => uint256)","numberOfBytes":"32","value":"t_uint256"},"t_mapping(t_string_memory_ptr,t_array(t_bytes32)dyn_storage)":{"encoding":"mapping","key":"t_string_memory_ptr","label":"mapping(string => bytes32[])","numberOfBytes":"32","value":"t_array(t_bytes32)dyn_storage"},"t_mapping(t_string_memory_ptr,t_array(t_string_storage)dyn_storage)":{"encoding":"mapping","key":"t_string_memory_ptr","label":"mapping(string => string[])","numberOfBytes":"32","value":"t_array(t_string_storage)dyn_storage"},"t_mapping(t_string_memory_ptr,t_array(t_struct(Dispute)6054_storage)dyn_storage)":{"encoding":"mapping","key":"t_string_memory_ptr","label":"mapping(string => struct HealthRecordCore.Dispute[])","numberOfBytes":"32","value":"t_array(t_struct(Dispute)6054_storage)dyn_storage"},"t_mapping(t_string_memory_ptr,t_array(t_struct(Verification)6037_storage)dyn_storage)":{"encoding":"mapping","key":"t_string_memory_ptr","label":"mapping(string => struct HealthRecordCore.Verification[])","numberOfBytes":"32","value":"t_array(t_struct(Verification)6037_storage)dyn_storage"},"t_mapping(t_string_memory_ptr,t_bool)":{"encoding":"mapping","key":"t_string_memory_ptr","label":"mapping(string => bool)","numberOfBytes":"32","value":"t_bool"},"t_mapping(t_string_memory_ptr,t_mapping(t_bytes32,t_array(t_struct(Reaction)6063_storage)dyn_storage))":{"encoding":"mapping","key":"t_string_memory_ptr","label":"mapping(string => mapping(bytes32 => struct HealthRecordCore.Reaction[]))","numberOfBytes":"32","value":"t_mapping(t_bytes32,t_array(t_struct(Reaction)6063_storage)dyn_storage)"},"t_mapping(t_string_memory_ptr,t_mapping(t_bytes32,t_bool))":{"encoding":"mapping","key":"t_string_memory_ptr","label":"mapping(string => mapping(bytes32 => bool))","numberOfBytes":"32","value":"t_mapping(t_bytes32,t_bool)"},"t_mapping(t_string_memory_ptr,t_mapping(t_bytes32,t_mapping(t_bytes32,t_bool)))":{"encoding":"mapping","key":"t_string_memory_ptr","label":"mapping(string => mapping(bytes32 => mapping(bytes32 => bool)))","numberOfBytes":"32","value":"t_mapping(t_bytes32,t_mapping(t_bytes32,t_bool))"},"t_mapping(t_string_memory_ptr,t_mapping(t_bytes32,t_mapping(t_bytes32,t_uint256)))":{"encoding":"mapping","key":"t_string_memory_ptr","label":"mapping(string => mapping(bytes32 => mapping(bytes32 => uint256)))","numberOfBytes":"32","value":"t_mapping(t_bytes32,t_mapping(t_bytes32,t_uint256))"},"t_mapping(t_string_memory_ptr,t_mapping(t_bytes32,t_uint256))":{"encoding":"mapping","key":"t_string_memory_ptr","label":"mapping(string => mapping(bytes32 => uint256))","numberOfBytes":"32","value":"t_mapping(t_bytes32,t_uint256)"},"t_mapping(t_string_memory_ptr,t_string_storage)":{"encoding":"mapping","key":"t_string_memory_ptr","label":"mapping(string => string)","numberOfBytes":"32","value":"t_string_storage"},"t_string_memory_ptr":{"encoding":"bytes","label":"string","numberOfBytes":"32"},"t_string_storage":{"encoding":"bytes","label":"string","numberOfBytes":"32"},"t_struct(Dispute)6054_storage":{"encoding":"inplace","label":"struct HealthRecordCore.Dispute","members":[{"astId":6039,"contract":"contracts/HealthRecordCore.sol:HealthRecordCore","label":"disputerIdHash","offset":0,"slot":"0","type":"t_bytes32"},{"astId":6041,"contract":"contracts/HealthRecordCore.sol:HealthRecordCore","label":"recordId","offset":0,"slot":"1","type":"t_string_storage"},{"astId":6044,"contract":"contracts/HealthRecordCore.sol:HealthRecordCore","label":"severity","offset":0,"slot":"2","type":"t_enum(DisputeSeverity)6012"},{"astId":6047,"contract":"contracts/HealthRecordCore.sol:HealthRecordCore","label":"culpability","offset":1,"slot":"2","type":"t_enum(DisputeCulpability)6019"},{"astId":6049,"contract":"contracts/HealthRecordCore.sol:HealthRecordCore","label":"notes","offset":0,"slot":"3","type":"t_string_storage"},{"astId":6051,"contract":"contracts/HealthRecordCore.sol:HealthRecordCore","label":"createdAt","offset":0,"slot":"4","type":"t_uint256"},{"astId":6053,"contract":"contracts/HealthRecordCore.sol:HealthRecordCore","label":"isActive","offset":0,"slot":"5","type":"t_bool"}],"numberOfBytes":"192"},"t_struct(Reaction)6063_storage":{"encoding":"inplace","label":"struct HealthRecordCore.Reaction","members":[{"astId":6056,"contract":"contracts/HealthRecordCore.sol:HealthRecordCore","label":"reactorIdHash","offset":0,"slot":"0","type":"t_bytes32"},{"astId":6058,"contract":"contracts/HealthRecordCore.sol:HealthRecordCore","label":"supportsDispute","offset":0,"slot":"1","type":"t_bool"},{"astId":6060,"contract":"contracts/HealthRecordCore.sol:HealthRecordCore","label":"timestamp","offset":0,"slot":"2","type":"t_uint256"},{"astId":6062,"contract":"contracts/HealthRecordCore.sol:HealthRecordCore","label":"isActive","offset":0,"slot":"3","type":"t_bool"}],"numberOfBytes":"128"},"t_struct(UnacceptedUpdateFlag)6077_storage":{"encoding":"inplace","label":"struct HealthRecordCore.UnacceptedUpdateFlag","members":[{"astId":6065,"contract":"contracts/HealthRecordCore.sol:HealthRecordCore","label":"recordId","offset":0,"slot":"0","type":"t_string_storage"},{"astId":6067,"contract":"contracts/HealthRecordCore.sol:HealthRecordCore","label":"noteHash","offset":0,"slot":"1","type":"t_string_storage"},{"astId":6069,"contract":"contracts/HealthRecordCore.sol:HealthRecordCore","label":"createdAt","offset":0,"slot":"2","type":"t_uint256"},{"astId":6072,"contract":"contracts/HealthRecordCore.sol:HealthRecordCore","label":"resolution","offset":0,"slot":"3","type":"t_enum(ResolutionType)6025"},{"astId":6074,"contract":"contracts/HealthRecordCore.sol:HealthRecordCore","label":"resolvedAt","offset":0,"slot":"4","type":"t_uint256"},{"astId":6076,"contract":"contracts/HealthRecordCore.sol:HealthRecordCore","label":"isActive","offset":0,"slot":"5","type":"t_bool"}],"numberOfBytes":"192"},"t_struct(Verification)6037_storage":{"encoding":"inplace","label":"struct HealthRecordCore.Verification","members":[{"astId":6027,"contract":"contracts/HealthRecordCore.sol:HealthRecordCore","label":"verifierIdHash","offset":0,"slot":"0","type":"t_bytes32"},{"astId":6029,"contract":"contracts/HealthRecordCore.sol:HealthRecordCore","label":"recordId","offset":0,"slot":"1","type":"t_string_storage"},{"astId":6032,"contract":"contracts/HealthRecordCore.sol:HealthRecordCore","label":"level","offset":0,"slot":"2","type":"t_enum(VerificationLevel)6007"},{"astId":6034,"contract":"contracts/HealthRecordCore.sol:HealthRecordCore","label":"createdAt","offset":0,"slot":"3","type":"t_uint256"},{"astId":6036,"contract":"contracts/HealthRecordCore.sol:HealthRecordCore","label":"isActive","offset":0,"slot":"4","type":"t_bool"}],"numberOfBytes":"160"},"t_uint256":{"encoding":"inplace","label":"uint256","numberOfBytes":"32"}}}}}}