{"contracts/MemberRoleManager.sol":{"MemberRoleManager":{"abi":[{"inputs":[],"stateMutability":"nonpayable","type":"constructor"},{"inputs":[{"internalType":"address","name":"target","type":"address"}],"name":"AddressEmptyCode","type":"error"},{"inputs":[{"internalType":"address","name":"implementation","type":"address"}],"name":"ERC1967InvalidImplementation","type":"error"},{"inputs":[],"name":"ERC1967NonPayable","type":"error"},{"inputs":[],"name":"FailedInnerCall","type":"error"},{"inputs":[],"name":"InvalidInitialization","type":"error"},{"inputs":[],"name":"NotInitializing","type":"error"},{"inputs":[],"name":"UUPSUnauthorizedCallContext","type":"error"},{"inputs":[{"internalType":"bytes32","name":"slot","type":"bytes32"}],"name":"UUPSUnsupportedProxiableUUID","type":"error"},{"anonymous":false,"inputs":[{"indexed":true,"internalType":"address","name":"oldAdmin","type":"address"},{"indexed":true,"internalType":"address","name":"newAdmin","type":"address"},{"indexed":false,"internalType":"uint256","name":"timestamp","type":"uint256"}],"name":"AdminTransferred","type":"event"},{"anonymous":false,"inputs":[{"indexed":true,"internalType":"address","name":"newAddress","type":"address"},{"indexed":false,"internalType":"uint256","name":"timestamp","type":"uint256"}],"name":"HealthRecordCoreUpdated","type":"event"},{"anonymous":false,"inputs":[{"indexed":false,"internalType":"uint64","name":"version","type":"uint64"}],"name":"Initialized","type":"event"},{"anonymous":false,"inputs":[{"indexed":true,"internalType":"address","name":"wallet","type":"address"},{"indexed":true,"internalType":"bytes32","name":"userIdHash","type":"bytes32"},{"indexed":false,"internalType":"uint256","name":"timestamp","type":"uint256"}],"name":"MemberRegistered","type":"event"},{"anonymous":false,"inputs":[{"indexed":true,"internalType":"bytes32","name":"userIdHash","type":"bytes32"},{"indexed":false,"internalType":"enum MemberRoleManager.MemberStatus","name":"oldStatus","type":"uint8"},{"indexed":false,"internalType":"enum MemberRoleManager.MemberStatus","name":"newStatus","type":"uint8"},{"indexed":true,"internalType":"address","name":"changedBy","type":"address"},{"indexed":false,"internalType":"uint256","name":"timestamp","type":"uint256"}],"name":"MemberStatusChanged","type":"event"},{"anonymous":false,"inputs":[{"indexed":true,"internalType":"string","name":"recordId","type":"string"},{"indexed":true,"internalType":"bytes32","name":"userIdHash","type":"bytes32"},{"indexed":false,"internalType":"uint256","name":"timestamp","type":"uint256"}],"name":"OwnershipVoluntarilyLeft","type":"event"},{"anonymous":false,"inputs":[{"indexed":true,"internalType":"string","name":"recordId","type":"string"},{"indexed":true,"internalType":"bytes32","name":"targetIdHash","type":"bytes32"},{"indexed":false,"internalType":"string","name":"oldRole","type":"string"},{"indexed":false,"internalType":"string","name":"newRole","type":"string"},{"indexed":true,"internalType":"bytes32","name":"userIdHash","type":"bytes32"},{"indexed":false,"internalType":"uint256","name":"timestamp","type":"uint256"}],"name":"RoleChanged","type":"event"},{"anonymous":false,"inputs":[{"indexed":true,"internalType":"string","name":"recordId","type":"string"},{"indexed":true,"internalType":"bytes32","name":"targetIdHash","type":"bytes32"},{"indexed":false,"internalType":"string","name":"role","type":"string"},{"indexed":true,"internalType":"bytes32","name":"userIdHash","type":"bytes32"},{"indexed":false,"internalType":"uint256","name":"timestamp","type":"uint256"}],"name":"RoleGranted","type":"event"},{"anonymous":false,"inputs":[{"indexed":true,"internalType":"string","name":"recordId","type":"string"},{"indexed":true,"internalType":"bytes32","name":"targetIdHash","type":"bytes32"},{"indexed":false,"internalType":"string","name":"role","type":"string"},{"indexed":true,"internalType":"bytes32","name":"userIdHash","type":"bytes32"},{"indexed":false,"internalType":"uint256","name":"timestamp","type":"uint256"}],"name":"RoleRevoked","type":"event"},{"anonymous":false,"inputs":[{"indexed":true,"internalType":"address","name":"implementation","type":"address"}],"name":"Upgraded","type":"event"},{"anonymous":false,"inputs":[{"indexed":true,"internalType":"address","name":"wallet","type":"address"},{"indexed":true,"internalType":"bytes32","name":"userIdHash","type":"bytes32"},{"indexed":false,"internalType":"uint256","name":"timestamp","type":"uint256"}],"name":"WalletLinked","type":"event"},{"inputs":[],"name":"UPGRADE_INTERFACE_VERSION","outputs":[{"internalType":"string","name":"","type":"string"}],"stateMutability":"view","type":"function"},{"inputs":[{"internalType":"address","name":"wallet","type":"address"},{"internalType":"bytes32","name":"userIdHash","type":"bytes32"}],"name":"addMember","outputs":[],"stateMutability":"nonpayable","type":"function"},{"inputs":[],"name":"admin","outputs":[{"internalType":"address","name":"","type":"address"}],"stateMutability":"view","type":"function"},{"inputs":[{"internalType":"string","name":"","type":"string"},{"internalType":"uint256","name":"","type":"uint256"}],"name":"adminsByRecord","outputs":[{"internalType":"bytes32","name":"","type":"bytes32"}],"stateMutability":"view","type":"function"},{"inputs":[{"internalType":"string","name":"recordId","type":"string"},{"internalType":"address","name":"targetWallet","type":"address"},{"internalType":"string","name":"newRole","type":"string"}],"name":"changeRole","outputs":[],"stateMutability":"nonpayable","type":"function"},{"inputs":[{"internalType":"address","name":"wallet","type":"address"}],"name":"deactivateWallet","outputs":[],"stateMutability":"nonpayable","type":"function"},{"inputs":[],"name":"getAllUsers","outputs":[{"internalType":"bytes32[]","name":"","type":"bytes32[]"}],"stateMutability":"view","type":"function"},{"inputs":[],"name":"getHealthRecordCore","outputs":[{"internalType":"address","name":"","type":"address"}],"stateMutability":"view","type":"function"},{"inputs":[{"internalType":"string","name":"recordId","type":"string"}],"name":"getRecordAdmins","outputs":[{"internalType":"bytes32[]","name":"","type":"bytes32[]"}],"stateMutability":"view","type":"function"},{"inputs":[{"internalType":"string","name":"recordId","type":"string"}],"name":"getRecordOwners","outputs":[{"internalType":"bytes32[]","name":"","type":"bytes32[]"}],"stateMutability":"view","type":"function"},{"inputs":[{"internalType":"string","name":"recordId","type":"string"}],"name":"getRecordRoleStats","outputs":[{"internalType":"uint256","name":"ownerCount","type":"uint256"},{"internalType":"uint256","name":"adminCount","type":"uint256"},{"internalType":"uint256","name":"viewerCount","type":"uint256"}],"stateMutability":"view","type":"function"},{"inputs":[{"internalType":"string","name":"recordId","type":"string"}],"name":"getRecordViewers","outputs":[{"internalType":"bytes32[]","name":"","type":"bytes32[]"}],"stateMutability":"view","type":"function"},{"inputs":[{"internalType":"bytes32","name":"userIdHash","type":"bytes32"}],"name":"getRecordsByUser","outputs":[{"internalType":"string[]","name":"","type":"string[]"}],"stateMutability":"view","type":"function"},{"inputs":[{"internalType":"string","name":"recordId","type":"string"},{"internalType":"address","name":"wallet","type":"address"}],"name":"getRoleDetails","outputs":[{"internalType":"string","name":"role","type":"string"},{"internalType":"bool","name":"isActive","type":"bool"}],"stateMutability":"view","type":"function"},{"inputs":[{"internalType":"string","name":"recordId","type":"string"},{"internalType":"bytes32","name":"userIdHash","type":"bytes32"}],"name":"getRoleDetailsByUser","outputs":[{"internalType":"string","name":"role","type":"string"},{"internalType":"bool","name":"isActive","type":"bool"}],"stateMutability":"view","type":"function"},{"inputs":[{"internalType":"string","name":"recordId","type":"string"},{"internalType":"bytes32","name":"userIdHash","type":"bytes32"}],"name":"getRoleGranter","outputs":[{"internalType":"bytes32","name":"","type":"bytes32"}],"stateMutability":"view","type":"function"},{"inputs":[],"name":"getTotalRoles","outputs":[{"internalType":"uint256","name":"","type":"uint256"}],"stateMutability":"view","type":"function"},{"inputs":[],"name":"getTotalUsers","outputs":[{"internalType":"uint256","name":"","type":"uint256"}],"stateMutability":"view","type":"function"},{"inputs":[{"internalType":"address","name":"wallet","type":"address"}],"name":"getUserForWallet","outputs":[{"internalType":"bytes32","name":"","type":"bytes32"}],"stateMutability":"view","type":"function"},{"inputs":[{"internalType":"bytes32","name":"userIdHash","type":"bytes32"}],"name":"getUserStatus","outputs":[{"internalType":"enum MemberRoleManager.MemberStatus","name":"status","type":"uint8"}],"stateMutability":"view","type":"function"},{"inputs":[{"internalType":"bytes32","name":"userIdHash","type":"bytes32"}],"name":"getWalletsForUser","outputs":[{"internalType":"address[]","name":"","type":"address[]"}],"stateMutability":"view","type":"function"},{"inputs":[{"internalType":"string","name":"recordId","type":"string"},{"internalType":"address","name":"targetWallet","type":"address"},{"internalType":"string","name":"role","type":"string"}],"name":"grantRole","outputs":[],"stateMutability":"nonpayable","type":"function"},{"inputs":[{"internalType":"string","name":"recordId","type":"string"},{"internalType":"address","name":"wallet","type":"address"}],"name":"hasActiveRole","outputs":[{"internalType":"bool","name":"","type":"bool"}],"stateMutability":"view","type":"function"},{"inputs":[{"internalType":"string","name":"recordId","type":"string"},{"internalType":"address","name":"wallet","type":"address"},{"internalType":"string","name":"role","type":"string"}],"name":"hasRole","outputs":[{"internalType":"bool","name":"","type":"bool"}],"stateMutability":"view","type":"function"},{"inputs":[],"name":"healthRecordCore","outputs":[{"internalType":"contract HealthRecordCoreInterface","name":"","type":"address"}],"stateMutability":"view","type":"function"},{"inputs":[],"name":"initialize","outputs":[],"stateMutability":"nonpayable","type":"function"},{"inputs":[{"internalType":"string","name":"recordId","type":"string"},{"internalType":"address","name":"targetWallet","type":"address"},{"internalType":"string","name":"role","type":"string"}],"name":"initializeRecordRole","outputs":[],"stateMutability":"nonpayable","type":"function"},{"inputs":[{"internalType":"address","name":"wallet","type":"address"}],"name":"isActiveMember","outputs":[{"internalType":"bool","name":"","type":"bool"}],"stateMutability":"view","type":"function"},{"inputs":[{"internalType":"string","name":"recordId","type":"string"},{"internalType":"bytes32","name":"userIdHash","type":"bytes32"}],"name":"isActiveSubject","outputs":[{"internalType":"bool","name":"","type":"bool"}],"stateMutability":"view","type":"function"},{"inputs":[{"internalType":"string","name":"recordId","type":"string"},{"internalType":"address","name":"wallet","type":"address"}],"name":"isOwnerOrAdmin","outputs":[{"internalType":"bool","name":"","type":"bool"}],"stateMutability":"view","type":"function"},{"inputs":[{"internalType":"address","name":"wallet","type":"address"}],"name":"isVerifiedMember","outputs":[{"internalType":"bool","name":"","type":"bool"}],"stateMutability":"view","type":"function"},{"inputs":[{"internalType":"address","name":"wallet","type":"address"}],"name":"isVerifiedProvider","outputs":[{"internalType":"bool","name":"","type":"bool"}],"stateMutability":"view","type":"function"},{"inputs":[{"internalType":"string","name":"","type":"string"},{"internalType":"uint256","name":"","type":"uint256"}],"name":"ownersByRecord","outputs":[{"internalType":"bytes32","name":"","type":"bytes32"}],"stateMutability":"view","type":"function"},{"inputs":[],"name":"proxiableUUID","outputs":[{"internalType":"bytes32","name":"","type":"bytes32"}],"stateMutability":"view","type":"function"},{"inputs":[{"internalType":"address","name":"wallet","type":"address"}],"name":"reactivateWallet","outputs":[],"stateMutability":"nonpayable","type":"function"},{"inputs":[{"internalType":"bytes32","name":"","type":"bytes32"}],"name":"recordRoles","outputs":[{"internalType":"string","name":"role","type":"string"},{"internalType":"bool","name":"isActive","type":"bool"}],"stateMutability":"view","type":"function"},{"inputs":[{"internalType":"bytes32","name":"","type":"bytes32"},{"internalType":"uint256","name":"","type":"uint256"}],"name":"recordsByUser","outputs":[{"internalType":"string","name":"","type":"string"}],"stateMutability":"view","type":"function"},{"inputs":[{"internalType":"string","name":"recordId","type":"string"},{"internalType":"address","name":"targetWallet","type":"address"}],"name":"revokeRole","outputs":[],"stateMutability":"nonpayable","type":"function"},{"inputs":[{"internalType":"bytes32","name":"","type":"bytes32"}],"name":"roleGrantedBy","outputs":[{"internalType":"bytes32","name":"","type":"bytes32"}],"stateMutability":"view","type":"function"},{"inputs":[{"internalType":"address","name":"_healthRecordCore","type":"address"}],"name":"setHealthRecordCore","outputs":[],"stateMutability":"nonpayable","type":"function"},{"inputs":[{"internalType":"bytes32","name":"userIdHash","type":"bytes32"},{"internalType":"enum MemberRoleManager.MemberStatus","name":"newStatus","type":"uint8"}],"name":"setUserStatus","outputs":[],"stateMutability":"nonpayable","type":"function"},{"inputs":[],"name":"totalRoles","outputs":[{"internalType":"uint256","name":"","type":"uint256"}],"stateMutability":"view","type":"function"},{"inputs":[],"name":"totalUsers","outputs":[{"internalType":"uint256","name":"","type":"uint256"}],"stateMutability":"view","type":"function"},{"inputs":[{"internalType":"address","name":"newAdmin","type":"address"}],"name":"transferAdmin","outputs":[],"stateMutability":"nonpayable","type":"function"},{"inputs":[{"internalType":"address","name":"newImplementation","type":"address"},{"internalType":"bytes","name":"data","type":"bytes"}],"name":"upgradeToAndCall","outputs":[],"stateMutability":"payable","type":"function"},{"inputs":[{"internalType":"uint256","name":"","type":"uint256"}],"name":"userList","outputs":[{"internalType":"bytes32","name":"","type":"bytes32"}],"stateMutability":"view","type":"function"},{"inputs":[{"internalType":"bytes32","name":"","type":"bytes32"}],"name":"userStatus","outputs":[{"internalType":"enum MemberRoleManager.MemberStatus","name":"","type":"uint8"}],"stateMutability":"view","type":"function"},{"inputs":[{"internalType":"bytes32","name":"","type":"bytes32"},{"internalType":"uint256","name":"","type":"uint256"}],"name":"userWallets","outputs":[{"internalType":"address","name":"","type":"address"}],"stateMutability":"view","type":"function"},{"inputs":[{"internalType":"string","name":"","type":"string"},{"internalType":"uint256","name":"","type":"uint256"}],"name":"viewersByRecord","outputs":[{"internalType":"bytes32","name":"","type":"bytes32"}],"stateMutability":"view","type":"function"},{"inputs":[{"internalType":"string","name":"recordId","type":"string"}],"name":"voluntarilyLeaveOwnership","outputs":[],"stateMutability":"nonpayable","type":"function"},{"inputs":[{"internalType":"address","name":"","type":"address"}],"name":"wallets","outputs":[{"internalType":"bytes32","name":"userIdHash","type":"bytes32"},{"internalType":"bool","name":"isWalletActive","type":"bool"}],"stateMutability":"view","type":"function"}],"evm":{"bytecode":{"linkReferences":{},"object":"60a08060405234620000d157306080527ff0c57e16840df040f15088dc2f81fe391c3923bec73e23a9662efc9c229c6a009081549060ff8260401c16620000c257506001600160401b036002600160401b0319828216016200007c575b604051613a409081620000d78239608051818181611d9c0152611ee90152f35b6001600160401b031990911681179091556040519081527fc7f505b2f371ae2175ee4913f4499e1f2633a7b5936321eed1cdaeb6115181d290602090a13880806200005c565b63f92ee8a960e01b8152600490fd5b600080fdfe608060408181526004918236101561001657600080fd5b600090813560e01c908162b0c8091461292d575080630b3ffd1d1461286e5780631435b558146128525780631a95aca5146127cb578063259ed80e146127a557806333105592146127675780633575c391146124a05780633dd1e8fc1461241957806341d8bde31461237657806345ecd02f1461235057806349df7208146120e05780634b6feb7c146117945780634f1ef28614611e99578063510b300314611e0057806352d1902d14611d88578063562c788e146106005780636544b05b14611c99578063679084e914611c735780636b4bed9714610315578063731f21a01461183357806375829def146117b3578063790e118c146117945780638129fc1c1461165657806389b08f111461160f5780639443cd80146115c657806396207e021461145f578063970ee5b9146114285780639be572f614610dd35780639f4216e8146113db578063a0ca13c3146113bf578063ad3cb1cc1461137a578063b55aefcc14611343578063bb0f86d51461128c578063bb20b17214610df2578063bff1f9e114610dd3578063c715582314610d55578063cabdd23f14610d39578063cb261a0314610d13578063cda06c6e14610ceb578063d12a776814610c3a578063daa9dc23146106aa578063e2842d7914610629578063e94ed25714610600578063e965bfb7146105a7578063eb2bbf251461057d578063ed8d7b371461039f578063ee4e582814610347578063f29e007b14610315578063f3ac2bea146102f0578063f851a440146102c45763fa7a6bcc1461025457600080fd5b346102c15761026236612cc8565b908252600a60205282822080548210156102bd579061028091612cde565b9390936102ab576102a78361029486612b10565b9051918291602083526020830190612bd8565b0390f35b634e487b7160e01b8252819052602490fd5b8280fd5b80fd5b5090346102ec57816003193601126102ec57905490516001600160a01b039091168152602090f35b5080fd5b5090346102ec5760209061030c61030636612c74565b9061372d565b90519015158152f35b5091346102bd5760203660031901126102bd5760ff82602094610345933581526002865220541691518092612ca5565bf35b5090346102ec576102a78160209361036761036136612c74565b906135ca565b8152600685522091805161037a8161297c565b60ff600161038786612b10565b95868452015416151594859101525192839283612bfd565b509190346102bd576020806003193601126105795782356001600160401b038111610575576103d19036908501612a3b565b6103dd81511515612dd0565b3385526001825282852054936103fb6103f4612ff5565b8684613605565b1561052657835161043984600185519382818189019661041c81838a612bb5565b810160078152030190205411928751809381928851928391612bb5565b81016008815203019020541515811561051e575b50156104c15750906104b882610484867f3bb3693064733b9a7d6d41bee69f302fcbefbe827ea4011400530c9ba9cb49c3956135ca565b61049661048f612ff5565b8884613665565b87526006835260018588200160ff198154169055600d83528685812055613061565b9251428152a380f35b835162461bcd60e51b8152908101839052603160248201527f43616e6e6f74206c65617665206173206c617374206f776e65722077697468206044820152706e6f2061646d696e6973747261746f727360781b6064820152608490fd5b90503861044d565b835162461bcd60e51b8152908101839052602360248201527f596f7520617265206e6f7420616e206f776e6572206f662074686973207265636044820152621bdc9960ea1b6064820152608490fd5b8480fd5b8380fd5b5090346102ec576102a79061059a61059436612a59565b90613183565b9290915192839283612bfd565b5090346102ec576020916105d16105bd36612c74565b949081855193828580945193849201612bb5565b810160088152030190209081548410156102c157506020926105f291612cde565b91905490519160031b1c8152f35b5090346102ec57816003193601126102ec57600c5490516001600160a01b039091168152602090f35b5090346102ec57816003193601126102ec578051918284549081815260208091019583527f8a35acfbc15ff81a39ae7d344fd709f28e8600b4aa8c65c6b64bfe7fe36bd19b92905b828210610693576102a78686610689828b03836129c8565b5191829182612a9a565b835487529586019560019384019390910190610671565b5091346102bd576106ba36612c1d565b9192906106ce6106c9336132c5565b613111565b6106da84511515612dd0565b6001600160a01b0316936106ef851515612f05565b6107006106fb8461326d565b612e61565b338652602060018152818720549587528187205494610720861515612f51565b8451828601209361073187836135ca565b808a526006845261074a60ff6001878d20015416612f9d565b89526006835261075b848a20612b10565b94855184870120818114610bf757610771612ff5565b8581519101208114610b8257855191845192868181880195610794818389612bb5565b810160078152030190205415918b83156107c96107b96107b2612ff5565b848b613605565b926107c2613016565b908a613605565b906107d2612ff5565b8051908b012085036109cc571561096f57501561092e575b6107f2613016565b878151910120149081610917575b50610875575b505050916108697fea2c9ebe68919ddf880b3221d8d508d908163d0973e8b79df108f5d110d0c6339492610848856108438b8a8c61085c9a613440565b613061565b968351958695606087526060870190612bd8565b9185830390860152612bd8565b9042908301520390a480f35b610880575b80610806565b610897846001928751809381928851928391612bb5565b810160088152030190205411156108ae578061087a565b835162461bcd60e51b8152908101839052603960248201527f43616e6e6f742064656d6f746520746865206c6173742061646d696e6973747260448201527f61746f72207768656e206e6f206f776e657220657869737473000000000000006064820152608490fd5b905061092161303f565b8681519101201438610800565b60648588808b519262461bcd60e51b845283015260248201527f4f6e6c79206f776e6572732063616e2070726f6d6f746520746f206f776e65726044820152fd5b90506107ea57875162461bcd60e51b8152808601889052602b60248201527f4f6e6c792061646d696e6973747261746f72732063616e2070726f6d6f74652060448201526a3334b939ba1037bbb732b960a91b6064820152608490fd5b6109d4613016565b8051908b01208503610a5e57508115610a56575b506107ea57875162461bcd60e51b8152808601889052603b60248201527f4f6e6c79206f776e65727320616e642061646d696e6973747261746f7273206360448201527f616e2070726f6d6f746520746f2061646d696e6973747261746f7200000000006064820152608490fd5b9050386109e8565b610a6661303f565b8a81519101208514610a7b575b5050506107ea565b15610b28578115610b11575b5015610a96575b388080610a73565b875162461bcd60e51b8152808601889052604960248201527f4f6e6c79206f776e6572732063616e2064656d6f7465206f74686572732e204160448201527f646d696e6973747261746f72732063616e206f6e6c792064656d6f746520746860648201526832b6b9b2b63b32b99760b91b608482015260a490fd5b905080610b1f575b38610a87565b508a8c14610b19565b9050610a8e57875162461bcd60e51b8152808601889052602860248201527f4f6e6c792061646d696e6973747261746f72732063616e2064656d6f7465207460448201526737903b34b2bbb2b960c11b6064820152608490fd5b855162461bcd60e51b8152808401869052604360248201527f4f776e6572732063616e6e6f742062652064656d6f7465642e204f776e65722060448201527f6d75737420766f6c756e746172696c792072656d6f7665207468656d73656c7660648201526232b99760e91b608482015260a490fd5b855162461bcd60e51b8152808401869052601c60248201527f54617267657420616c726561647920686173207468697320726f6c65000000006044820152606490fd5b508290346102c157602091826003193601126102ec5792919235815260038352818120908251808584549182815201908194845286842090845b818110610cce5750505081610c8a9103826129c8565b83519485948186019282875251809352850193925b828110610cae57505050500390f35b83516001600160a01b031685528695509381019392810192600101610c9f565b82546001600160a01b031684529288019260019283019201610c74565b5091346102bd5760203660031901126102bd576020928291358152600d845220549051908152f35b5090346102ec5760203660031901126102ec5760209061030c610d34612961565b6137cb565b5090346102ec5760209061030c610d4f36612c1d565b91613154565b5090346102ec5760203660031901126102ec577fce59ad7d6dabe8a7533ed7d9bd07d276a046ac7ac9a8e8e8971da4b81104a28b6020610d93612961565b84546001600160a01b039190610dac9083163314612d0c565b1692610db9841515613081565b600c80546001600160a01b0319168517905551428152a280f35b5090346102ec57816003193601126102ec576020906005549051908152f35b5082346102ec57610e0236612c1d565b919290610e116106c9336132c5565b610e1d84511515612dd0565b6001600160a01b031692610e32841515612f05565b610e3e6106fb8461326d565b33855260209160018352868620549486528686205492610e5f841515612f51565b845181860120610e6f87856135ca565b88526006825260ff60018a8a200154161561124b57885182818651610e978183858b01612bb5565b8101600781520301902054151590610eb7610eb0612ff5565b8987613605565b91610eca610ec3613016565b8a88613605565b91610ed58a8861372d565b90610ede612ff5565b805190870120810361102057505015610fc6575015610f84575b610f0284846135ca565b87526006815260ff6001898920015416610f26575050610f23949550613440565b80f35b875162461bcd60e51b815291820152603360248201527f54617267657420616c726561647920686173206120726f6c652e2055736520636044820152721a185b99d9549bdb194a0a481a5b9cdd195859606a1b606482015260849150fd5b875162461bcd60e51b815291820181905260248201527f4f6e6c79206f776e6572732063616e206772616e74206f776e657220726f6c65604482015260649150fd5b9050610ef857875162461bcd60e51b815291820152602960248201527f4f6e6c792061646d696e6973747261746f72732063616e206772616e742066696044820152683939ba1037bbb732b960b91b606482015260849150fd5b90915061102b613016565b80519086012081036110b557505081156110ad575b50610ef857875162461bcd60e51b815291820152603b60248201527f4f6e6c79206f776e65727320616e642061646d696e6973747261746f7273206360448201527f616e206772616e742061646d696e6973747261746f7220726f6c650000000000606482015260849150fd5b905089611040565b6110c093919361303f565b858151910120146110d4575b505050610ef8565b80159081611244575b801561123d575b156111d457826111cc575b50816111c3575b50611104575b8880806110cc565b61110e86846135ca565b87526006815287872060ff60018a51926111278461297c565b61113081612b10565b8452015416158015838301526111af57515b516110fc57875162461bcd60e51b815291820152603c60248201527f5375626a656374206d757374206861766520616e2061637469766520726f6c6560448201527f20746f206772616e7420766965776572207065726d697373696f6e7300000000606482015260849150fd5b5087516111bb816129ad565b878152611142565b905015896110f6565b91508a6110ef565b8a5162461bcd60e51b8152808601859052603e60248201527f4f6e6c79206f776e6572732c2061646d696e6973747261746f72732c206f722060448201527f7375626a656374732063616e206772616e742076696577657220726f6c6500006064820152608490fd5b50826110e4565b50816110dd565b60648383808c519262461bcd60e51b845283015260248201527f596f752068617665206e6f20726f6c6520666f722074686973207265636f72646044820152fd5b509190346102bd5760203660031901126102bd576112a8612961565b83546001600160a01b0391906112c19083163314612d0c565b16808452600192836020526112da838620541515612d45565b8185528360205260ff8484872001541661130857508352602082905282208101805460ff1916909117905580f35b606490602084519162461bcd60e51b8352820152601560248201527457616c6c657420616c72656164792061637469766560581b6044820152fd5b5090346102ec576020916113596105bd36612c74565b810160098152030190209081548410156102c157506020926105f291612cde565b5090346102ec57816003193601126102ec5780516102a79161139b8261297c565b60058252640352e302e360dc1b602083015251918291602083526020830190612bd8565b5090346102ec5760209061030c6113d536612a59565b906130bf565b5091346102bd5760203660031901126102bd57803590805482101561057957602093527f8a35acfbc15ff81a39ae7d344fd709f28e8600b4aa8c65c6b64bfe7fe36bd19b01549051908152f35b5090346102ec5760209161143e6105bd36612c74565b810160078152030190209081548410156102c157506020926105f291612cde565b509190346102bd57806003193601126102bd5781359060243560058110156105755761149560018060a01b038654163314612d0c565b82855260206002815260ff838720541660058110156115b3571561157b578386526002815260ff838720541694600586101561156857828614611531575090611503918487526002815283872060ff1981541660ff84161790556114fb84518097612ca5565b850190612ca5565b42908301527ff6277c6ee46649823db9a5c531db3112b4340c67179cae1932ba3420dcc37cc760603393a380f35b60649184519162461bcd60e51b83528201526013602482015272416c726561647920746869732073746174757360681b6044820152fd5b634e487b7160e01b875260219052602486fd5b8460649184519162461bcd60e51b83528201526013602482015272155cd95c881b9bdd081c9959da5cdd195c9959606a1b6044820152fd5b634e487b7160e01b875260218652602487fd5b5090346102ec576115d636612cc8565b9290815260036020528181209081548410156102c157506020926115f991612cde565b60018060a01b0391549060031b1c169051908152f35b5090346102ec5760203660031901126102ec579081906001600160a01b03611635612961565b16815260016020522060ff6001825492015416825191825215156020820152f35b5091346102bd57826003193601126102bd577ff0c57e16840df040f15088dc2f81fe391c3923bec73e23a9662efc9c229c6a0091825460ff81831c1615906001600160401b0381168015908161178c575b6001149081611782575b159081611779575b5061176a5767ffffffffffffffff19811660011785558161174b575b5083549260ff84841c161561173d575084546001600160a01b031916331785556116fd578380f35b7fc7f505b2f371ae2175ee4913f4499e1f2633a7b5936321eed1cdaeb6115181d29260209268ff0000000000000000191690555160018152a13880808380f35b8251631afcd79f60e31b8152fd5b68ffffffffffffffffff191668010000000000000001178455386116d5565b50505163f92ee8a960e01b8152fd5b905015386116b9565b303b1591506116b1565b8391506116a7565b5090346102ec57816003193601126102ec57602090600b549051908152f35b5090346102ec5760203660031901126102ec576020906117d1612961565b835491906001600160a01b03808416917f38df5fa0f7fef0d515ca1f5388cb5790ac5885d5fca8d05d9f943e563c33a4b3919061180f338514612d0c565b1694859361181e851515613081565b51428152a36001600160a01b03191617815580f35b509190346102bd5761184436612a59565b611852829392511515612dd0565b6001600160a01b031692611867841515612f05565b33855260209160018352808620549486528086205493611888851515612f51565b61189285826135ca565b808852600685526118ab60ff6001858b20015416612f9d565b808852600685526118bd838920612b10565b938451868601206118cc612ff5565b8781519101208114611bfc57878903611a21575b6118e8613016565b8781519101201461195e575b508161194a9161192886897f938e21a28464db5f9b9e24d1a58e038899de364f69dba20c154ee6fd4cd86def989796613665565b8952600686526001838a200160ff198154169055600d86528883812055613061565b936108698251938385948552840190612bd8565b83516119978760018651938281818a019661197a81838a612bb5565b810160088152030190205411928751809381928951928391612bb5565b810160078152030190205415158115611a19575b506118f457835162461bcd60e51b8152908101869052603960248201527f43616e6e6f74207265766f6b65206c6173742061646d696e6973747261746f7260448201527f20776974686f757420616e206f776e65722070726573656e74000000000000006064820152608490fd5b9050386119ab565b611a33611a2c612ff5565b8a86613605565b611a45611a3e613016565b8b87613605565b848c52600d89528a878d20541490611a5b61303f565b8051908b01208403611afb578215611af3575b508115611aeb575b5015611a82575b6118e0565b845162461bcd60e51b8152808301889052603e60248201527f4f6e6c79206f776e6572732c2061646d696e6973747261746f72732c206f722060448201527f746865206772616e7465722063616e207265766f6b65207669657765727300006064820152608490fd5b905038611a76565b915038611a6e565b821592915082611bf4575b5015611b9957156118e057611b19613016565b8781519101208103611a7d57845187818651611b388183858b01612bb5565b810160078152030190205415611a7d57845162461bcd60e51b8152808301889052602560248201527f4f6e6c79206f776e6572732063616e207265766f6b652061646d696e6973747260448201526461746f727360d81b6064820152608490fd5b855162461bcd60e51b8152808401899052602f60248201527f4f6e6c79206f776e65727320616e642061646d696e6973747261746f7273206360448201526e616e207265766f6b6520726f6c657360881b6064820152608490fd5b905038611b06565b845162461bcd60e51b8152808301889052604560248201527f4f776e6572732063616e6e6f74206265207265766f6b65642e204f776e65722060448201527f6d7573742075736520766f6c756e746172696c794c656176654f776e6572736860648201526434b814149760d91b608482015260a490fd5b5090346102ec5780602092611c8a61036136612c74565b8152600d845220549051908152f35b5082346102ec57602090816003193601126102bd5780358352600a8252838320918254916001600160401b038311611d7557509290845190611ce0858260051b01836129c8565b8082528482018094845285842084915b838310611d5157505050508451938085019181865251809252858501958260051b8601019392955b828710611d255785850386f35b909192938280611d41600193603f198a82030186528851612bd8565b9601920196019592919092611d18565b6001888192611d63859b98999b612b10565b81520192019201919096949396611cf0565b634e487b7160e01b855260419052602484fd5b50346102c157806003193601126102c157507f00000000000000000000000000000000000000000000000000000000000000006001600160a01b03163003611df357602090517f360894a13ba1a3210667c828492db98dca3e2076cc3735a920a3ca505d382bbc8152f35b5163703e46dd60e11b8152fd5b509190346102bd5760209182600319360112610579578035906001600160401b03821161057557611e388491611e4a93369101612a3b565b81845193828580945193849201612bb5565b810160098152030190209281518093808654928381520195835280832092905b828210611e82576102a78686610689828b03836129c8565b835487529586019560019384019390910190611e6a565b509190806003193601126102bd57611eaf612961565b906024356001600160401b038111610575573660238201121561057557611edf9036906024818701359101612a04565b6001600160a01b037f000000000000000000000000000000000000000000000000000000000000000081163081149081156120b2575b506120a257611f28818754163314612d0c565b82516352d1902d60e01b81529084169360209182818881895afa88918161206f575b50611f66578451634c9c8ce360e01b8152808801879052602490fd5b7f360894a13ba1a3210667c828492db98dca3e2076cc3735a920a3ca505d382bbc969295919396908181036120595750833b156120425780546001600160a01b0319168217905583518792917fbc7cd75a20ee27fd9adebab32041f755214dbc6bffa90cc0225b39da2e5c2d3b8480a286511561202557505080858561201797519101845af4913d1561201b573d612009612000826129e9565b925192836129c8565b81528581943d92013e613987565b5080f35b5060609250613987565b945094505050503461203657505080f35b63b398979f60e01b8152fd5b8451634c9c8ce360e01b8152808401839052602490fd5b83602491875191632a87526960e21b8352820152fd5b9091508381813d831161209b575b61208781836129c8565b8101031261209757519038611f4a565b8880fd5b503d61207d565b825163703e46dd60e11b81528590fd5b9050817f360894a13ba1a3210667c828492db98dca3e2076cc3735a920a3ca505d382bbc5416141538611f15565b5091346102bd57816003193601126102bd576120fa612961565b9160249081359360018060a01b038091612118828954163314612d0c565b1693612125851515612e1c565b851561231757848752600193602094808652848920546122d55761217a855161214d8161297c565b898152828882018181528a8d52818a52888d209251835551151591019060ff801983541691151516179055565b87895260038652848920938454600160401b95868210156122c357906121a4918482018155612cde565b819291549060031b918a831b921b19161790558789526002865260ff858a20541660058110156122b1576122825787895260028652848920600260ff1982541617905582549384101561227057830180835583101561225f57507f39d132591ee0696de49ab564e4a90e430c006561917db731a2a614dd2d245591939291869188527f8a35acfbc15ff81a39ae7d344fd709f28e8600b4aa8c65c6b64bfe7fe36bd19b0155612254600554612ee0565b60055551428152a380f35b634e487b7160e01b88526032825287fd5b50634e487b7160e01b88526041825287fd5b50505050907f1cc138f50384be7770a8e4a34eecaa0d0c718bfaa1641af49db32532e4a5b9109151428152a380f35b634e487b7160e01b8a5260218452828afd5b634e487b7160e01b8c5260418652848cfd5b845162461bcd60e51b81528084018790526019818401527f57616c6c657420616c72656164792072656769737465726564000000000000006044820152606490fd5b606490601485602086519362461bcd60e51b855284015282015273092dcecc2d8d2c840eae6cae440928840d0c2e6d60631b6044820152fd5b5090346102ec5760203660031901126102ec5760209061030c612371612961565b6132c5565b50346102c157602090816003193601126102c1578335906001600160401b0382116102c157506060936123ab91369101612a3b565b91805192612400838251958181818601986123c781838c612bb5565b8101600781520301902054958451828186516123e4818387612bb5565b8101600881520301902054938551938492839251928391612bb5565b8101600981520301902054928251948552840152820152f35b509190346102bd5760209182600319360112610579578035906001600160401b03821161057557611e38849161245193369101612a3b565b810160088152030190209281518093808654928381520195835280832092905b828210612489576102a78686610689828b03836129c8565b835487529586019560019384019390910190612471565b5082346102ec576124b036612c1d565b9092919460018060a01b036124c9818754163314612d0c565b6124d587511515612dd0565b84166124e2811515612e1c565b6124ee6106fb8461326d565b85526020926001845261250a8287205495612371871515612d45565b15612726578151848851918181818c0194612526818388612bb5565b81016007815203019020541591826126fe575b5050156126bd5761254a85886135ca565b808752600685528287209061255e82612b10565b9060ff600183511594015416906125b18a60018a61259b8a8051946125828661297c565b8d8652600684870194868652898352522093518461332e565b51151591019060ff801983541691151516179055565b8952600d875288858120551560001461267e57506125d084878a613824565b6125f1575b50906000805160206139eb8339815191529161194a8697613061565b95848652600a8452818620805490600160401b82101561266b579061261b91600182018155612cde565b61265957869750816126416000805160206139eb83398151915295949361194a9361332e565b61264c600b54612ee0565b600b5597505090916125d5565b634e487b7160e01b8752868852602487fd5b634e487b7160e01b885260418952602488fd5b96979395949250505084518186012090845190850120036126a1575b5050505080f35b6126af6126b4948383613665565b613824565b8180808061269a565b83606492519162461bcd60e51b8352820152601a60248201527f5265636f726420616c726561647920696e697469616c697a65640000000000006044820152fd5b61271392508451809381928c51928391612bb5565b8101600881520301902054158489612539565b83606492519162461bcd60e51b8352820152601860248201527f4d75737420626520616e20616374697665206d656d62657200000000000000006044820152fd5b5091346102bd5760203660031901126102bd579181923581526006602052206102a760ff600161279684612b10565b93015416925192839283612bfd565b5090346102ec5760203660031901126102ec5760209061030c6127c6612961565b6131fc565b509190346102bd5760209182600319360112610579578035906001600160401b03821161057557611e38849161280393369101612a3b565b810160078152030190209281518093808654928381520195835280832092905b82821061283b576102a78686610689828b03836129c8565b835487529586019560019384019390910190612823565b5090346102ec5760209061030c61286836612a59565b90612d89565b5091346102bd5760203660031901126102bd57612889612961565b83546001600160a01b0391906128a29083163314612d0c565b169081845260016020526128ba838520541515612d45565b818452600160205260ff6001848620015416156128ea575082526001602081905290822001805460ff1916905580f35b606490602084519162461bcd60e51b8352820152601760248201527f57616c6c657420616c726561647920696e6163746976650000000000000000006044820152fd5b905082346102bd5760203660031901126102bd576020926001600160a01b03612954612961565b1681526001845220548152f35b600435906001600160a01b038216820361297757565b600080fd5b604081019081106001600160401b0382111761299757604052565b634e487b7160e01b600052604160045260246000fd5b602081019081106001600160401b0382111761299757604052565b90601f801991011681019081106001600160401b0382111761299757604052565b6001600160401b03811161299757601f01601f191660200190565b929192612a10826129e9565b91612a1e60405193846129c8565b829481845281830111612977578281602093846000960137010152565b9080601f8301121561297757816020612a5693359101612a04565b90565b604060031982011261297757600435906001600160401b03821161297757612a8391600401612a3b565b906024356001600160a01b03811681036129775790565b602090602060408183019282815285518094520193019160005b828110612ac2575050505090565b835185529381019392810192600101612ab4565b90600182811c92168015612b06575b6020831014612af057565b634e487b7160e01b600052602260045260246000fd5b91607f1691612ae5565b90604051918260008254612b2381612ad6565b90818452602094600191600181169081600014612b935750600114612b54575b505050612b52925003836129c8565b565b600090815285812095935091905b818310612b7b575050612b529350820101388080612b43565b85548884018501529485019487945091830191612b62565b92505050612b5294925060ff191682840152151560051b820101388080612b43565b60005b838110612bc85750506000910152565b8181015183820152602001612bb8565b90602091612bf181518092818552858086019101612bb5565b601f01601f1916010190565b90612c15602091949394604084526040840190612bd8565b931515910152565b6060600319820112612977576001600160401b03916004358381116129775782612c4991600401612a3b565b926024356001600160a01b0381168103612977579260443591821161297757612a5691600401612a3b565b604060031982011261297757600435906001600160401b03821161297757612c9e91600401612a3b565b9060243590565b906005821015612cb25752565b634e487b7160e01b600052602160045260246000fd5b6040906003190112612977576004359060243590565b8054821015612cf65760005260206000200190600090565b634e487b7160e01b600052603260045260246000fd5b15612d1357565b60405162461bcd60e51b815260206004820152600a60248201526927b7363c9030b236b4b760b11b6044820152606490fd5b15612d4c57565b60405162461bcd60e51b815260206004820152601560248201527415d85b1b195d081b9bdd081c9959da5cdd195c9959605a1b6044820152606490fd5b6001600160a01b039091166000908152600160205260409020548015612dc957612db2916135ca565b600052600660205260ff6001604060002001541690565b5050600090565b15612dd757565b60405162461bcd60e51b815260206004820152601960248201527f5265636f72642049442063616e6e6f7420626520656d707479000000000000006044820152606490fd5b15612e2357565b60405162461bcd60e51b8152602060048201526016602482015275496e76616c69642077616c6c6574206164647265737360501b6044820152606490fd5b15612e6857565b60405162461bcd60e51b8152602060048201526013602482015272496e76616c696420726f6c6520737472696e6760681b6044820152606490fd5b805490600160401b8210156129975781612ec5916001612edc94018155612cde565b819391549060031b91821b91600019901b19161790565b9055565b6000198114612eef5760010190565b634e487b7160e01b600052601160045260246000fd5b15612f0c57565b60405162461bcd60e51b815260206004820152601d60248201527f57616c6c657420616464726573732063616e6e6f74206265207a65726f0000006044820152606490fd5b15612f5857565b60405162461bcd60e51b815260206004820152601c60248201527f5461726765742077616c6c6574206e6f742072656769737465726564000000006044820152606490fd5b15612fa457565b60405162461bcd60e51b815260206004820152602360248201527f54617267657420646f6573206e6f74206861766520616e2061637469766520726044820152626f6c6560e81b6064820152608490fd5b604051906130028261297c565b600582526437bbb732b960d91b6020830152565b604051906130238261297c565b600d82526c30b236b4b734b9ba3930ba37b960991b6020830152565b6040519061304c8261297c565b60068252653b34b2bbb2b960d11b6020830152565b61307990602060405192828480945193849201612bb5565b810103902090565b1561308857565b60405162461bcd60e51b815260206004820152600f60248201526e496e76616c6964206164647265737360881b6044820152606490fd5b6001600160a01b03909116600090815260016020526040902054908115612dc9576130f26130eb612ff5565b8383613605565b9182156130fe57505090565b612a56925061310b613016565b91613605565b1561311857565b60405162461bcd60e51b81526020600482015260146024820152732737ba1030b71030b1ba34bb329036b2b6b132b960611b6044820152606490fd5b919060018060a01b03166000526001602052604060002054801561317b57612a5692613605565b505050600090565b6001600160a01b0390911660009081526001602052604081205490929181156131e757926131b56040926020956135ca565b815260068452206040516131c88161297c565b60ff60016131d584612b10565b93848452015416151593849101529190565b50506040516131f5816129ad565b8281529190565b6001600160a01b03166000908152600160205260408120805490811590811561325d575b50613259578152600260205260ff604082205416906005821015613245575060041490565b634e487b7160e01b81526021600452602490fd5b5090565b60ff915060010154161538613220565b6020815191012061327c612ff5565b6020815191012081149081156132ac575b8115613297575090565b90506132a161303f565b602081519101201490565b90506132b6613016565b6020815191012081149061328d565b6001600160a01b03166000908152600160205260408120805490811590811561331e575b50613259578152600260205260ff604082205416906005821015613245575060018114159081613317575090565b9050151590565b60ff9150600101541615386132e9565b91909182516001600160401b0381116129975761334b8254612ad6565b601f81116133f6575b50602080601f8311600114613391575081929394600092613386575b50508160011b916000199060031b1c1916179055565b015190503880613370565b90601f19831695846000526020600020926000905b8882106133de575050836001959697106133c5575b505050811b019055565b015160001960f88460031b161c191690553880806133bb565b806001859682949686015181550195019301906133a6565b6000836000526020600020601f840160051c81019260208510613436575b601f0160051c01915b82811061342b575050613354565b81815560010161341d565b9092508290613414565b909161344c83836135ca565b600092818452602093600685526040928382209061346982612b10565b9060ff600183511594015416906134a487516134848161297c565b89815260018b820181815284895260068d5261259b8b8a2093518461332e565b8452600d885289868520551560001461359157506134c3858885613824565b613502575b50906134e36000805160206139eb8339815191529392613061565b936134f78251938385948552840190612bd8565b9042908301520390a4565b858152600a8552828120805490600160401b82101561357d579061352b91600182018155612cde565b9190916135695750816135526000805160206139eb8339815191529594936134e39361332e565b61355d600b54612ee0565b600b55919293506134c8565b634e487b7160e01b81526004819052602490fd5b634e487b7160e01b83526041600452602483fd5b97505050919392905084518186012090845190850120036135b3575b50505050565b6126af6135c1948383613665565b388080806135ad565b906135ff60408051809360206135e98184019788815193849201612bb5565b82019060208201520360208101845201826129c8565b51902090565b60209291613612916135ca565b60005260068252604060002060405161362a8161297c565b60ff600161363784612b10565b93848452015416151593849101528261364f57505090565b9091506020815191012090602081519101201490565b8251602080940120613675612ff5565b80519085012081036136ac57508261369d91612b529460405193828580945193849201612bb5565b810160078152030190206138ec565b6136b4613016565b80519085012081036136eb5750826136dc91612b529460405193828580945193849201612bb5565b810160088152030190206138ec565b6136f361303f565b8481519101201461370357505050565b8261371e91612b529460405193828580945193849201612bb5565b810160098152030190206138ec565b600c546001600160a01b031690811561317b5760209161376b916040518095819482936379d615f560e11b8452604060048501526044840190612bd8565b90602483015203915afa9081156137bf57600091613787575090565b6020813d6020116137b7575b816137a0602093836129c8565b810103126102ec57519081151582036102c1575090565b3d9150613793565b6040513d6000823e3d90fd5b6001600160a01b031660009081526001602052604081208054908115908115613814575b50613259578152600260205260ff604082205416906005821015613245575060031490565b60ff9150600101541615386137ef565b8251602080940120613834612ff5565b805190850120810361386b57508261385c91612b529460405193828580945193849201612bb5565b81016007815203019020612ea3565b613873613016565b80519085012081036138aa57508261389b91612b529460405193828580945193849201612bb5565b81016008815203019020612ea3565b6138b261303f565b848151910120146138c257505050565b826138dd91612b529460405193828580945193849201612bb5565b81016009815203019020612ea3565b60005b815490818110156135ad5783916139068285612cde565b959054600396871b1c1461392057509092506001016138ef565b6000199250828101908111612eef57612ec561393f61394c9286612cde565b905490871b1c9285612cde565b905581548015613971578101926139638484612cde565b81939154921b1b1916905555565b634e487b7160e01b600052603160045260246000fd5b906139ae575080511561399c57805190602001fd5b604051630a12f52160e11b8152600490fd5b815115806139e1575b6139bf575090565b604051639996b31560e01b81526001600160a01b039091166004820152602490fd5b50803b156139b756fe2a27f0a20e4df4738f3a8e2449b014d439e7ce0a97ee5860771c25cbafa1cfeba26469706673582212206663e6d836f7c9a777281dcb8e766571329bc9fb6f8349d8aa0da8f6b7bb3f1164736f6c63430008170033","opcodes":"PUSH1 0xA0 DUP1 PUSH1 0x40 MSTORE CALLVALUE PUSH3 0xD1 JUMPI ADDRESS PUSH1 0x80 MSTORE PUSH32 0xF0C57E16840DF040F15088DC2F81FE391C3923BEC73E23A9662EFC9C229C6A00 SWAP1 DUP2 SLOAD SWAP1 PUSH1 0xFF DUP3 PUSH1 0x40 SHR AND PUSH3 0xC2 JUMPI POP PUSH1 0x1 PUSH1 0x1 PUSH1 0x40 SHL SUB PUSH1 0x2 PUSH1 0x1 PUSH1 0x40 SHL SUB NOT DUP3 DUP3 AND ADD PUSH3 0x7C JUMPI JUMPDEST PUSH1 0x40 MLOAD PUSH2 0x3A40 SWAP1 DUP2 PUSH3 0xD7 DUP3 CODECOPY PUSH1 0x80 MLOAD DUP2 DUP2 DUP2 PUSH2 0x1D9C ADD MSTORE PUSH2 0x1EE9 ADD MSTORE RETURN JUMPDEST PUSH1 0x1 PUSH1 0x1 PUSH1 0x40 SHL SUB NOT SWAP1 SWAP2 AND DUP2 OR SWAP1 SWAP2 SSTORE PUSH1 0x40 MLOAD SWAP1 DUP2 MSTORE PUSH32 0xC7F505B2F371AE2175EE4913F4499E1F2633A7B5936321EED1CDAEB6115181D2 SWAP1 PUSH1 0x20 SWAP1 LOG1 CODESIZE DUP1 DUP1 PUSH3 0x5C JUMP JUMPDEST PUSH4 0xF92EE8A9 PUSH1 0xE0 SHL DUP2 MSTORE PUSH1 0x4 SWAP1 REVERT JUMPDEST PUSH1 0x0 DUP1 REVERT INVALID PUSH1 0x80 PUSH1 0x40 DUP2 DUP2 MSTORE PUSH1 0x4 SWAP2 DUP3 CALLDATASIZE LT ISZERO PUSH2 0x16 JUMPI PUSH1 0x0 DUP1 REVERT JUMPDEST PUSH1 0x0 SWAP1 DUP2 CALLDATALOAD PUSH1 0xE0 SHR SWAP1 DUP2 PUSH3 0xB0C809 EQ PUSH2 0x292D JUMPI POP DUP1 PUSH4 0xB3FFD1D EQ PUSH2 0x286E JUMPI DUP1 PUSH4 0x1435B558 EQ PUSH2 0x2852 JUMPI DUP1 PUSH4 0x1A95ACA5 EQ PUSH2 0x27CB JUMPI DUP1 PUSH4 0x259ED80E EQ PUSH2 0x27A5 JUMPI DUP1 PUSH4 0x33105592 EQ PUSH2 0x2767 JUMPI DUP1 PUSH4 0x3575C391 EQ PUSH2 0x24A0 JUMPI DUP1 PUSH4 0x3DD1E8FC EQ PUSH2 0x2419 JUMPI DUP1 PUSH4 0x41D8BDE3 EQ PUSH2 0x2376 JUMPI DUP1 PUSH4 0x45ECD02F EQ PUSH2 0x2350 JUMPI DUP1 PUSH4 0x49DF7208 EQ PUSH2 0x20E0 JUMPI DUP1 PUSH4 0x4B6FEB7C EQ PUSH2 0x1794 JUMPI DUP1 PUSH4 0x4F1EF286 EQ PUSH2 0x1E99 JUMPI DUP1 PUSH4 0x510B3003 EQ PUSH2 0x1E00 JUMPI DUP1 PUSH4 0x52D1902D EQ PUSH2 0x1D88 JUMPI DUP1 PUSH4 0x562C788E EQ PUSH2 0x600 JUMPI DUP1 PUSH4 0x6544B05B EQ PUSH2 0x1C99 JUMPI DUP1 PUSH4 0x679084E9 EQ PUSH2 0x1C73 JUMPI DUP1 PUSH4 0x6B4BED97 EQ PUSH2 0x315 JUMPI DUP1 PUSH4 0x731F21A0 EQ PUSH2 0x1833 JUMPI DUP1 PUSH4 0x75829DEF EQ PUSH2 0x17B3 JUMPI DUP1 PUSH4 0x790E118C EQ PUSH2 0x1794 JUMPI DUP1 PUSH4 0x8129FC1C EQ PUSH2 0x1656 JUMPI DUP1 PUSH4 0x89B08F11 EQ PUSH2 0x160F JUMPI DUP1 PUSH4 0x9443CD80 EQ PUSH2 0x15C6 JUMPI DUP1 PUSH4 0x96207E02 EQ PUSH2 0x145F JUMPI DUP1 PUSH4 0x970EE5B9 EQ PUSH2 0x1428 JUMPI DUP1 PUSH4 0x9BE572F6 EQ PUSH2 0xDD3 JUMPI DUP1 PUSH4 0x9F4216E8 EQ PUSH2 0x13DB JUMPI DUP1 PUSH4 0xA0CA13C3 EQ PUSH2 0x13BF JUMPI DUP1 PUSH4 0xAD3CB1CC EQ PUSH2 0x137A JUMPI DUP1 PUSH4 0xB55AEFCC EQ PUSH2 0x1343 JUMPI DUP1 PUSH4 0xBB0F86D5 EQ PUSH2 0x128C JUMPI DUP1 PUSH4 0xBB20B172 EQ PUSH2 0xDF2 JUMPI DUP1 PUSH4 0xBFF1F9E1 EQ PUSH2 0xDD3 JUMPI DUP1 PUSH4 0xC7155823 EQ PUSH2 0xD55 JUMPI DUP1 PUSH4 0xCABDD23F EQ PUSH2 0xD39 JUMPI DUP1 PUSH4 0xCB261A03 EQ PUSH2 0xD13 JUMPI DUP1 PUSH4 0xCDA06C6E EQ PUSH2 0xCEB JUMPI DUP1 PUSH4 0xD12A7768 EQ PUSH2 0xC3A JUMPI DUP1 PUSH4 0xDAA9DC23 EQ PUSH2 0x6AA JUMPI DUP1 PUSH4 0xE2842D79 EQ PUSH2 0x629 JUMPI DUP1 PUSH4 0xE94ED257 EQ PUSH2 0x600 JUMPI DUP1 PUSH4 0xE965BFB7 EQ PUSH2 0x5A7 JUMPI DUP1 PUSH4 0xEB2BBF25 EQ PUSH2 0x57D JUMPI DUP1 PUSH4 0xED8D7B37 EQ PUSH2 0x39F JUMPI DUP1 PUSH4 0xEE4E5828 EQ PUSH2 0x347 JUMPI DUP1 PUSH4 0xF29E007B EQ PUSH2 0x315 JUMPI DUP1 PUSH4 0xF3AC2BEA EQ PUSH2 0x2F0 JUMPI DUP1 PUSH4 0xF851A440 EQ PUSH2 0x2C4 JUMPI PUSH4 0xFA7A6BCC EQ PUSH2 0x254 JUMPI PUSH1 0x0 DUP1 REVERT JUMPDEST CALLVALUE PUSH2 0x2C1 JUMPI PUSH2 0x262 CALLDATASIZE PUSH2 0x2CC8 JUMP JUMPDEST SWAP1 DUP3 MSTORE PUSH1 0xA PUSH1 0x20 MSTORE DUP3 DUP3 KECCAK256 DUP1 SLOAD DUP3 LT ISZERO PUSH2 0x2BD JUMPI SWAP1 PUSH2 0x280 SWAP2 PUSH2 0x2CDE JUMP JUMPDEST SWAP4 SWAP1 SWAP4 PUSH2 0x2AB JUMPI PUSH2 0x2A7 DUP4 PUSH2 0x294 DUP7 PUSH2 0x2B10 JUMP JUMPDEST SWAP1 MLOAD SWAP2 DUP3 SWAP2 PUSH1 0x20 DUP4 MSTORE PUSH1 0x20 DUP4 ADD SWAP1 PUSH2 0x2BD8 JUMP JUMPDEST SUB SWAP1 RETURN JUMPDEST PUSH4 0x4E487B71 PUSH1 0xE0 SHL DUP3 MSTORE DUP2 SWAP1 MSTORE PUSH1 0x24 SWAP1 REVERT JUMPDEST DUP3 DUP1 REVERT JUMPDEST DUP1 REVERT JUMPDEST POP SWAP1 CALLVALUE PUSH2 0x2EC JUMPI DUP2 PUSH1 0x3 NOT CALLDATASIZE ADD SLT PUSH2 0x2EC JUMPI SWAP1 SLOAD SWAP1 MLOAD PUSH1 0x1 PUSH1 0x1 PUSH1 0xA0 SHL SUB SWAP1 SWAP2 AND DUP2 MSTORE PUSH1 0x20 SWAP1 RETURN JUMPDEST POP DUP1 REVERT JUMPDEST POP SWAP1 CALLVALUE PUSH2 0x2EC JUMPI PUSH1 0x20 SWAP1 PUSH2 0x30C PUSH2 0x306 CALLDATASIZE PUSH2 0x2C74 JUMP JUMPDEST SWAP1 PUSH2 0x372D JUMP JUMPDEST SWAP1 MLOAD SWAP1 ISZERO ISZERO DUP2 MSTORE RETURN JUMPDEST POP SWAP2 CALLVALUE PUSH2 0x2BD JUMPI PUSH1 0x20 CALLDATASIZE PUSH1 0x3 NOT ADD SLT PUSH2 0x2BD JUMPI PUSH1 0xFF DUP3 PUSH1 0x20 SWAP5 PUSH2 0x345 SWAP4 CALLDATALOAD DUP2 MSTORE PUSH1 0x2 DUP7 MSTORE KECCAK256 SLOAD AND SWAP2 MLOAD DUP1 SWAP3 PUSH2 0x2CA5 JUMP JUMPDEST RETURN JUMPDEST POP SWAP1 CALLVALUE PUSH2 0x2EC JUMPI PUSH2 0x2A7 DUP2 PUSH1 0x20 SWAP4 PUSH2 0x367 PUSH2 0x361 CALLDATASIZE PUSH2 0x2C74 JUMP JUMPDEST SWAP1 PUSH2 0x35CA JUMP JUMPDEST DUP2 MSTORE PUSH1 0x6 DUP6 MSTORE KECCAK256 SWAP2 DUP1 MLOAD PUSH2 0x37A DUP2 PUSH2 0x297C JUMP JUMPDEST PUSH1 0xFF PUSH1 0x1 PUSH2 0x387 DUP7 PUSH2 0x2B10 JUMP JUMPDEST SWAP6 DUP7 DUP5 MSTORE ADD SLOAD AND ISZERO ISZERO SWAP5 DUP6 SWAP2 ADD MSTORE MLOAD SWAP3 DUP4 SWAP3 DUP4 PUSH2 0x2BFD JUMP JUMPDEST POP SWAP2 SWAP1 CALLVALUE PUSH2 0x2BD JUMPI PUSH1 0x20 DUP1 PUSH1 0x3 NOT CALLDATASIZE ADD SLT PUSH2 0x579 JUMPI DUP3 CALLDATALOAD PUSH1 0x1 PUSH1 0x1 PUSH1 0x40 SHL SUB DUP2 GT PUSH2 0x575 JUMPI PUSH2 0x3D1 SWAP1 CALLDATASIZE SWAP1 DUP6 ADD PUSH2 0x2A3B JUMP JUMPDEST PUSH2 0x3DD DUP2 MLOAD ISZERO ISZERO PUSH2 0x2DD0 JUMP JUMPDEST CALLER DUP6 MSTORE PUSH1 0x1 DUP3 MSTORE DUP3 DUP6 KECCAK256 SLOAD SWAP4 PUSH2 0x3FB PUSH2 0x3F4 PUSH2 0x2FF5 JUMP JUMPDEST DUP7 DUP5 PUSH2 0x3605 JUMP JUMPDEST ISZERO PUSH2 0x526 JUMPI DUP4 MLOAD PUSH2 0x439 DUP5 PUSH1 0x1 DUP6 MLOAD SWAP4 DUP3 DUP2 DUP2 DUP10 ADD SWAP7 PUSH2 0x41C DUP2 DUP4 DUP11 PUSH2 0x2BB5 JUMP JUMPDEST DUP2 ADD PUSH1 0x7 DUP2 MSTORE SUB ADD SWAP1 KECCAK256 SLOAD GT SWAP3 DUP8 MLOAD DUP1 SWAP4 DUP2 SWAP3 DUP9 MLOAD SWAP3 DUP4 SWAP2 PUSH2 0x2BB5 JUMP JUMPDEST DUP2 ADD PUSH1 0x8 DUP2 MSTORE SUB ADD SWAP1 KECCAK256 SLOAD ISZERO ISZERO DUP2 ISZERO PUSH2 0x51E JUMPI JUMPDEST POP ISZERO PUSH2 0x4C1 JUMPI POP SWAP1 PUSH2 0x4B8 DUP3 PUSH2 0x484 DUP7 PUSH32 0x3BB3693064733B9A7D6D41BEE69F302FCBEFBE827EA4011400530C9BA9CB49C3 SWAP6 PUSH2 0x35CA JUMP JUMPDEST PUSH2 0x496 PUSH2 0x48F PUSH2 0x2FF5 JUMP JUMPDEST DUP9 DUP5 PUSH2 0x3665 JUMP JUMPDEST DUP8 MSTORE PUSH1 0x6 DUP4 MSTORE PUSH1 0x1 DUP6 DUP9 KECCAK256 ADD PUSH1 0xFF NOT DUP2 SLOAD AND SWAP1 SSTORE PUSH1 0xD DUP4 MSTORE DUP7 DUP6 DUP2 KECCAK256 SSTORE PUSH2 0x3061 JUMP JUMPDEST SWAP3 MLOAD TIMESTAMP DUP2 MSTORE LOG3 DUP1 RETURN JUMPDEST DUP4 MLOAD PUSH3 0x461BCD PUSH1 0xE5 SHL DUP2 MSTORE SWAP1 DUP2 ADD DUP4 SWAP1 MSTORE PUSH1 0x31 PUSH1 0x24 DUP3 ADD MSTORE PUSH32 0x43616E6E6F74206C65617665206173206C617374206F776E6572207769746820 PUSH1 0x44 DUP3 ADD MSTORE PUSH17 0x6E6F2061646D696E6973747261746F7273 PUSH1 0x78 SHL PUSH1 0x64 DUP3 ADD MSTORE PUSH1 0x84 SWAP1 REVERT JUMPDEST SWAP1 POP CODESIZE PUSH2 0x44D JUMP JUMPDEST DUP4 MLOAD PUSH3 0x461BCD PUSH1 0xE5 SHL DUP2 MSTORE SWAP1 DUP2 ADD DUP4 SWAP1 MSTORE PUSH1 0x23 PUSH1 0x24 DUP3 ADD MSTORE PUSH32 0x596F7520617265206E6F7420616E206F776E6572206F66207468697320726563 PUSH1 0x44 DUP3 ADD MSTORE PUSH3 0x1BDC99 PUSH1 0xEA SHL PUSH1 0x64 DUP3 ADD MSTORE PUSH1 0x84 SWAP1 REVERT JUMPDEST DUP5 DUP1 REVERT JUMPDEST DUP4 DUP1 REVERT JUMPDEST POP SWAP1 CALLVALUE PUSH2 0x2EC JUMPI PUSH2 0x2A7 SWAP1 PUSH2 0x59A PUSH2 0x594 CALLDATASIZE PUSH2 0x2A59 JUMP JUMPDEST SWAP1 PUSH2 0x3183 JUMP JUMPDEST SWAP3 SWAP1 SWAP2 MLOAD SWAP3 DUP4 SWAP3 DUP4 PUSH2 0x2BFD JUMP JUMPDEST POP SWAP1 CALLVALUE PUSH2 0x2EC JUMPI PUSH1 0x20 SWAP2 PUSH2 0x5D1 PUSH2 0x5BD CALLDATASIZE PUSH2 0x2C74 JUMP JUMPDEST SWAP5 SWAP1 DUP2 DUP6 MLOAD SWAP4 DUP3 DUP6 DUP1 SWAP5 MLOAD SWAP4 DUP5 SWAP3 ADD PUSH2 0x2BB5 JUMP JUMPDEST DUP2 ADD PUSH1 0x8 DUP2 MSTORE SUB ADD SWAP1 KECCAK256 SWAP1 DUP2 SLOAD DUP5 LT ISZERO PUSH2 0x2C1 JUMPI POP PUSH1 0x20 SWAP3 PUSH2 0x5F2 SWAP2 PUSH2 0x2CDE JUMP JUMPDEST SWAP2 SWAP1 SLOAD SWAP1 MLOAD SWAP2 PUSH1 0x3 SHL SHR DUP2 MSTORE RETURN JUMPDEST POP SWAP1 CALLVALUE PUSH2 0x2EC JUMPI DUP2 PUSH1 0x3 NOT CALLDATASIZE ADD SLT PUSH2 0x2EC JUMPI PUSH1 0xC SLOAD SWAP1 MLOAD PUSH1 0x1 PUSH1 0x1 PUSH1 0xA0 SHL SUB SWAP1 SWAP2 AND DUP2 MSTORE PUSH1 0x20 SWAP1 RETURN JUMPDEST POP SWAP1 CALLVALUE PUSH2 0x2EC JUMPI DUP2 PUSH1 0x3 NOT CALLDATASIZE ADD SLT PUSH2 0x2EC JUMPI DUP1 MLOAD SWAP2 DUP3 DUP5 SLOAD SWAP1 DUP2 DUP2 MSTORE PUSH1 0x20 DUP1 SWAP2 ADD SWAP6 DUP4 MSTORE PUSH32 0x8A35ACFBC15FF81A39AE7D344FD709F28E8600B4AA8C65C6B64BFE7FE36BD19B SWAP3 SWAP1 JUMPDEST DUP3 DUP3 LT PUSH2 0x693 JUMPI PUSH2 0x2A7 DUP7 DUP7 PUSH2 0x689 DUP3 DUP12 SUB DUP4 PUSH2 0x29C8 JUMP JUMPDEST MLOAD SWAP2 DUP3 SWAP2 DUP3 PUSH2 0x2A9A JUMP JUMPDEST DUP4 SLOAD DUP8 MSTORE SWAP6 DUP7 ADD SWAP6 PUSH1 0x1 SWAP4 DUP5 ADD SWAP4 SWAP1 SWAP2 ADD SWAP1 PUSH2 0x671 JUMP JUMPDEST POP SWAP2 CALLVALUE PUSH2 0x2BD JUMPI PUSH2 0x6BA CALLDATASIZE PUSH2 0x2C1D JUMP JUMPDEST SWAP2 SWAP3 SWAP1 PUSH2 0x6CE PUSH2 0x6C9 CALLER PUSH2 0x32C5 JUMP JUMPDEST PUSH2 0x3111 JUMP JUMPDEST PUSH2 0x6DA DUP5 MLOAD ISZERO ISZERO PUSH2 0x2DD0 JUMP JUMPDEST PUSH1 0x1 PUSH1 0x1 PUSH1 0xA0 SHL SUB AND SWAP4 PUSH2 0x6EF DUP6 ISZERO ISZERO PUSH2 0x2F05 JUMP JUMPDEST PUSH2 0x700 PUSH2 0x6FB DUP5 PUSH2 0x326D JUMP JUMPDEST PUSH2 0x2E61 JUMP JUMPDEST CALLER DUP7 MSTORE PUSH1 0x20 PUSH1 0x1 DUP2 MSTORE DUP2 DUP8 KECCAK256 SLOAD SWAP6 DUP8 MSTORE DUP2 DUP8 KECCAK256 SLOAD SWAP5 PUSH2 0x720 DUP7 ISZERO ISZERO PUSH2 0x2F51 JUMP JUMPDEST DUP5 MLOAD DUP3 DUP7 ADD KECCAK256 SWAP4 PUSH2 0x731 DUP8 DUP4 PUSH2 0x35CA JUMP JUMPDEST DUP1 DUP11 MSTORE PUSH1 0x6 DUP5 MSTORE PUSH2 0x74A PUSH1 0xFF PUSH1 0x1 DUP8 DUP14 KECCAK256 ADD SLOAD AND PUSH2 0x2F9D JUMP JUMPDEST DUP10 MSTORE PUSH1 0x6 DUP4 MSTORE PUSH2 0x75B DUP5 DUP11 KECCAK256 PUSH2 0x2B10 JUMP JUMPDEST SWAP5 DUP6 MLOAD DUP5 DUP8 ADD KECCAK256 DUP2 DUP2 EQ PUSH2 0xBF7 JUMPI PUSH2 0x771 PUSH2 0x2FF5 JUMP JUMPDEST DUP6 DUP2 MLOAD SWAP2 ADD KECCAK256 DUP2 EQ PUSH2 0xB82 JUMPI DUP6 MLOAD SWAP2 DUP5 MLOAD SWAP3 DUP7 DUP2 DUP2 DUP9 ADD SWAP6 PUSH2 0x794 DUP2 DUP4 DUP10 PUSH2 0x2BB5 JUMP JUMPDEST DUP2 ADD PUSH1 0x7 DUP2 MSTORE SUB ADD SWAP1 KECCAK256 SLOAD ISZERO SWAP2 DUP12 DUP4 ISZERO PUSH2 0x7C9 PUSH2 0x7B9 PUSH2 0x7B2 PUSH2 0x2FF5 JUMP JUMPDEST DUP5 DUP12 PUSH2 0x3605 JUMP JUMPDEST SWAP3 PUSH2 0x7C2 PUSH2 0x3016 JUMP JUMPDEST SWAP1 DUP11 PUSH2 0x3605 JUMP JUMPDEST SWAP1 PUSH2 0x7D2 PUSH2 0x2FF5 JUMP JUMPDEST DUP1 MLOAD SWAP1 DUP12 ADD KECCAK256 DUP6 SUB PUSH2 0x9CC JUMPI ISZERO PUSH2 0x96F JUMPI POP ISZERO PUSH2 0x92E JUMPI JUMPDEST PUSH2 0x7F2 PUSH2 0x3016 JUMP JUMPDEST DUP8 DUP2 MLOAD SWAP2 ADD KECCAK256 EQ SWAP1 DUP2 PUSH2 0x917 JUMPI JUMPDEST POP PUSH2 0x875 JUMPI JUMPDEST POP POP POP SWAP2 PUSH2 0x869 PUSH32 0xEA2C9EBE68919DDF880B3221D8D508D908163D0973E8B79DF108F5D110D0C633 SWAP5 SWAP3 PUSH2 0x848 DUP6 PUSH2 0x843 DUP12 DUP11 DUP13 PUSH2 0x85C SWAP11 PUSH2 0x3440 JUMP JUMPDEST PUSH2 0x3061 JUMP JUMPDEST SWAP7 DUP4 MLOAD SWAP6 DUP7 SWAP6 PUSH1 0x60 DUP8 MSTORE PUSH1 0x60 DUP8 ADD SWAP1 PUSH2 0x2BD8 JUMP JUMPDEST SWAP2 DUP6 DUP4 SUB SWAP1 DUP7 ADD MSTORE PUSH2 0x2BD8 JUMP JUMPDEST SWAP1 TIMESTAMP SWAP1 DUP4 ADD MSTORE SUB SWAP1 LOG4 DUP1 RETURN JUMPDEST PUSH2 0x880 JUMPI JUMPDEST DUP1 PUSH2 0x806 JUMP JUMPDEST PUSH2 0x897 DUP5 PUSH1 0x1 SWAP3 DUP8 MLOAD DUP1 SWAP4 DUP2 SWAP3 DUP9 MLOAD SWAP3 DUP4 SWAP2 PUSH2 0x2BB5 JUMP JUMPDEST DUP2 ADD PUSH1 0x8 DUP2 MSTORE SUB ADD SWAP1 KECCAK256 SLOAD GT ISZERO PUSH2 0x8AE JUMPI DUP1 PUSH2 0x87A JUMP JUMPDEST DUP4 MLOAD PUSH3 0x461BCD PUSH1 0xE5 SHL DUP2 MSTORE SWAP1 DUP2 ADD DUP4 SWAP1 MSTORE PUSH1 0x39 PUSH1 0x24 DUP3 ADD MSTORE PUSH32 0x43616E6E6F742064656D6F746520746865206C6173742061646D696E69737472 PUSH1 0x44 DUP3 ADD MSTORE PUSH32 0x61746F72207768656E206E6F206F776E65722065786973747300000000000000 PUSH1 0x64 DUP3 ADD MSTORE PUSH1 0x84 SWAP1 REVERT JUMPDEST SWAP1 POP PUSH2 0x921 PUSH2 0x303F JUMP JUMPDEST DUP7 DUP2 MLOAD SWAP2 ADD KECCAK256 EQ CODESIZE PUSH2 0x800 JUMP JUMPDEST PUSH1 0x64 DUP6 DUP9 DUP1 DUP12 MLOAD SWAP3 PUSH3 0x461BCD PUSH1 0xE5 SHL DUP5 MSTORE DUP4 ADD MSTORE PUSH1 0x24 DUP3 ADD MSTORE PUSH32 0x4F6E6C79206F776E6572732063616E2070726F6D6F746520746F206F776E6572 PUSH1 0x44 DUP3 ADD MSTORE REVERT JUMPDEST SWAP1 POP PUSH2 0x7EA JUMPI DUP8 MLOAD PUSH3 0x461BCD PUSH1 0xE5 SHL DUP2 MSTORE DUP1 DUP7 ADD DUP9 SWAP1 MSTORE PUSH1 0x2B PUSH1 0x24 DUP3 ADD MSTORE PUSH32 0x4F6E6C792061646D696E6973747261746F72732063616E2070726F6D6F746520 PUSH1 0x44 DUP3 ADD MSTORE PUSH11 0x3334B939BA1037BBB732B9 PUSH1 0xA9 SHL PUSH1 0x64 DUP3 ADD MSTORE PUSH1 0x84 SWAP1 REVERT JUMPDEST PUSH2 0x9D4 PUSH2 0x3016 JUMP JUMPDEST DUP1 MLOAD SWAP1 DUP12 ADD KECCAK256 DUP6 SUB PUSH2 0xA5E JUMPI POP DUP2 ISZERO PUSH2 0xA56 JUMPI JUMPDEST POP PUSH2 0x7EA JUMPI DUP8 MLOAD PUSH3 0x461BCD PUSH1 0xE5 SHL DUP2 MSTORE DUP1 DUP7 ADD DUP9 SWAP1 MSTORE PUSH1 0x3B PUSH1 0x24 DUP3 ADD MSTORE PUSH32 0x4F6E6C79206F776E65727320616E642061646D696E6973747261746F72732063 PUSH1 0x44 DUP3 ADD MSTORE PUSH32 0x616E2070726F6D6F746520746F2061646D696E6973747261746F720000000000 PUSH1 0x64 DUP3 ADD MSTORE PUSH1 0x84 SWAP1 REVERT JUMPDEST SWAP1 POP CODESIZE PUSH2 0x9E8 JUMP JUMPDEST PUSH2 0xA66 PUSH2 0x303F JUMP JUMPDEST DUP11 DUP2 MLOAD SWAP2 ADD KECCAK256 DUP6 EQ PUSH2 0xA7B JUMPI JUMPDEST POP POP POP PUSH2 0x7EA JUMP JUMPDEST ISZERO PUSH2 0xB28 JUMPI DUP2 ISZERO PUSH2 0xB11 JUMPI JUMPDEST POP ISZERO PUSH2 0xA96 JUMPI JUMPDEST CODESIZE DUP1 DUP1 PUSH2 0xA73 JUMP JUMPDEST DUP8 MLOAD PUSH3 0x461BCD PUSH1 0xE5 SHL DUP2 MSTORE DUP1 DUP7 ADD DUP9 SWAP1 MSTORE PUSH1 0x49 PUSH1 0x24 DUP3 ADD MSTORE PUSH32 0x4F6E6C79206F776E6572732063616E2064656D6F7465206F74686572732E2041 PUSH1 0x44 DUP3 ADD MSTORE PUSH32 0x646D696E6973747261746F72732063616E206F6E6C792064656D6F7465207468 PUSH1 0x64 DUP3 ADD MSTORE PUSH9 0x32B6B9B2B63B32B997 PUSH1 0xB9 SHL PUSH1 0x84 DUP3 ADD MSTORE PUSH1 0xA4 SWAP1 REVERT JUMPDEST SWAP1 POP DUP1 PUSH2 0xB1F JUMPI JUMPDEST CODESIZE PUSH2 0xA87 JUMP JUMPDEST POP DUP11 DUP13 EQ PUSH2 0xB19 JUMP JUMPDEST SWAP1 POP PUSH2 0xA8E JUMPI DUP8 MLOAD PUSH3 0x461BCD PUSH1 0xE5 SHL DUP2 MSTORE DUP1 DUP7 ADD DUP9 SWAP1 MSTORE PUSH1 0x28 PUSH1 0x24 DUP3 ADD MSTORE PUSH32 0x4F6E6C792061646D696E6973747261746F72732063616E2064656D6F74652074 PUSH1 0x44 DUP3 ADD MSTORE PUSH8 0x37903B34B2BBB2B9 PUSH1 0xC1 SHL PUSH1 0x64 DUP3 ADD MSTORE PUSH1 0x84 SWAP1 REVERT JUMPDEST DUP6 MLOAD PUSH3 0x461BCD PUSH1 0xE5 SHL DUP2 MSTORE DUP1 DUP5 ADD DUP7 SWAP1 MSTORE PUSH1 0x43 PUSH1 0x24 DUP3 ADD MSTORE PUSH32 0x4F776E6572732063616E6E6F742062652064656D6F7465642E204F776E657220 PUSH1 0x44 DUP3 ADD MSTORE PUSH32 0x6D75737420766F6C756E746172696C792072656D6F7665207468656D73656C76 PUSH1 0x64 DUP3 ADD MSTORE PUSH3 0x32B997 PUSH1 0xE9 SHL PUSH1 0x84 DUP3 ADD MSTORE PUSH1 0xA4 SWAP1 REVERT JUMPDEST DUP6 MLOAD PUSH3 0x461BCD PUSH1 0xE5 SHL DUP2 MSTORE DUP1 DUP5 ADD DUP7 SWAP1 MSTORE PUSH1 0x1C PUSH1 0x24 DUP3 ADD MSTORE PUSH32 0x54617267657420616C726561647920686173207468697320726F6C6500000000 PUSH1 0x44 DUP3 ADD MSTORE PUSH1 0x64 SWAP1 REVERT JUMPDEST POP DUP3 SWAP1 CALLVALUE PUSH2 0x2C1 JUMPI PUSH1 0x20 SWAP2 DUP3 PUSH1 0x3 NOT CALLDATASIZE ADD SLT PUSH2 0x2EC JUMPI SWAP3 SWAP2 SWAP3 CALLDATALOAD DUP2 MSTORE PUSH1 0x3 DUP4 MSTORE DUP2 DUP2 KECCAK256 SWAP1 DUP3 MLOAD DUP1 DUP6 DUP5 SLOAD SWAP2 DUP3 DUP2 MSTORE ADD SWAP1 DUP2 SWAP5 DUP5 MSTORE DUP7 DUP5 KECCAK256 SWAP1 DUP5 JUMPDEST DUP2 DUP2 LT PUSH2 0xCCE JUMPI POP POP POP DUP2 PUSH2 0xC8A SWAP2 SUB DUP3 PUSH2 0x29C8 JUMP JUMPDEST DUP4 MLOAD SWAP5 DUP6 SWAP5 DUP2 DUP7 ADD SWAP3 DUP3 DUP8 MSTORE MLOAD DUP1 SWAP4 MSTORE DUP6 ADD SWAP4 SWAP3 JUMPDEST DUP3 DUP2 LT PUSH2 0xCAE JUMPI POP POP POP POP SUB SWAP1 RETURN JUMPDEST DUP4 MLOAD PUSH1 0x1 PUSH1 0x1 PUSH1 0xA0 SHL SUB AND DUP6 MSTORE DUP7 SWAP6 POP SWAP4 DUP2 ADD SWAP4 SWAP3 DUP2 ADD SWAP3 PUSH1 0x1 ADD PUSH2 0xC9F JUMP JUMPDEST DUP3 SLOAD PUSH1 0x1 PUSH1 0x1 PUSH1 0xA0 SHL SUB AND DUP5 MSTORE SWAP3 DUP9 ADD SWAP3 PUSH1 0x1 SWAP3 DUP4 ADD SWAP3 ADD PUSH2 0xC74 JUMP JUMPDEST POP SWAP2 CALLVALUE PUSH2 0x2BD JUMPI PUSH1 0x20 CALLDATASIZE PUSH1 0x3 NOT ADD SLT PUSH2 0x2BD JUMPI PUSH1 0x20 SWAP3 DUP3 SWAP2 CALLDATALOAD DUP2 MSTORE PUSH1 0xD DUP5 MSTORE KECCAK256 SLOAD SWAP1 MLOAD SWAP1 DUP2 MSTORE RETURN JUMPDEST POP SWAP1 CALLVALUE PUSH2 0x2EC JUMPI PUSH1 0x20 CALLDATASIZE PUSH1 0x3 NOT ADD SLT PUSH2 0x2EC JUMPI PUSH1 0x20 SWAP1 PUSH2 0x30C PUSH2 0xD34 PUSH2 0x2961 JUMP JUMPDEST PUSH2 0x37CB JUMP JUMPDEST POP SWAP1 CALLVALUE PUSH2 0x2EC JUMPI PUSH1 0x20 SWAP1 PUSH2 0x30C PUSH2 0xD4F CALLDATASIZE PUSH2 0x2C1D JUMP JUMPDEST SWAP2 PUSH2 0x3154 JUMP JUMPDEST POP SWAP1 CALLVALUE PUSH2 0x2EC JUMPI PUSH1 0x20 CALLDATASIZE PUSH1 0x3 NOT ADD SLT PUSH2 0x2EC JUMPI PUSH32 0xCE59AD7D6DABE8A7533ED7D9BD07D276A046AC7AC9A8E8E8971DA4B81104A28B PUSH1 0x20 PUSH2 0xD93 PUSH2 0x2961 JUMP JUMPDEST DUP5 SLOAD PUSH1 0x1 PUSH1 0x1 PUSH1 0xA0 SHL SUB SWAP2 SWAP1 PUSH2 0xDAC SWAP1 DUP4 AND CALLER EQ PUSH2 0x2D0C JUMP JUMPDEST AND SWAP3 PUSH2 0xDB9 DUP5 ISZERO ISZERO PUSH2 0x3081 JUMP JUMPDEST PUSH1 0xC DUP1 SLOAD PUSH1 0x1 PUSH1 0x1 PUSH1 0xA0 SHL SUB NOT AND DUP6 OR SWAP1 SSTORE MLOAD TIMESTAMP DUP2 MSTORE LOG2 DUP1 RETURN JUMPDEST POP SWAP1 CALLVALUE PUSH2 0x2EC JUMPI DUP2 PUSH1 0x3 NOT CALLDATASIZE ADD SLT PUSH2 0x2EC JUMPI PUSH1 0x20 SWAP1 PUSH1 0x5 SLOAD SWAP1 MLOAD SWAP1 DUP2 MSTORE RETURN JUMPDEST POP DUP3 CALLVALUE PUSH2 0x2EC JUMPI PUSH2 0xE02 CALLDATASIZE PUSH2 0x2C1D JUMP JUMPDEST SWAP2 SWAP3 SWAP1 PUSH2 0xE11 PUSH2 0x6C9 CALLER PUSH2 0x32C5 JUMP JUMPDEST PUSH2 0xE1D DUP5 MLOAD ISZERO ISZERO PUSH2 0x2DD0 JUMP JUMPDEST PUSH1 0x1 PUSH1 0x1 PUSH1 0xA0 SHL SUB AND SWAP3 PUSH2 0xE32 DUP5 ISZERO ISZERO PUSH2 0x2F05 JUMP JUMPDEST PUSH2 0xE3E PUSH2 0x6FB DUP5 PUSH2 0x326D JUMP JUMPDEST CALLER DUP6 MSTORE PUSH1 0x20 SWAP2 PUSH1 0x1 DUP4 MSTORE DUP7 DUP7 KECCAK256 SLOAD SWAP5 DUP7 MSTORE DUP7 DUP7 KECCAK256 SLOAD SWAP3 PUSH2 0xE5F DUP5 ISZERO ISZERO PUSH2 0x2F51 JUMP JUMPDEST DUP5 MLOAD DUP2 DUP7 ADD KECCAK256 PUSH2 0xE6F DUP8 DUP6 PUSH2 0x35CA JUMP JUMPDEST DUP9 MSTORE PUSH1 0x6 DUP3 MSTORE PUSH1 0xFF PUSH1 0x1 DUP11 DUP11 KECCAK256 ADD SLOAD AND ISZERO PUSH2 0x124B JUMPI DUP9 MLOAD DUP3 DUP2 DUP7 MLOAD PUSH2 0xE97 DUP2 DUP4 DUP6 DUP12 ADD PUSH2 0x2BB5 JUMP JUMPDEST DUP2 ADD PUSH1 0x7 DUP2 MSTORE SUB ADD SWAP1 KECCAK256 SLOAD ISZERO ISZERO SWAP1 PUSH2 0xEB7 PUSH2 0xEB0 PUSH2 0x2FF5 JUMP JUMPDEST DUP10 DUP8 PUSH2 0x3605 JUMP JUMPDEST SWAP2 PUSH2 0xECA PUSH2 0xEC3 PUSH2 0x3016 JUMP JUMPDEST DUP11 DUP9 PUSH2 0x3605 JUMP JUMPDEST SWAP2 PUSH2 0xED5 DUP11 DUP9 PUSH2 0x372D JUMP JUMPDEST SWAP1 PUSH2 0xEDE PUSH2 0x2FF5 JUMP JUMPDEST DUP1 MLOAD SWAP1 DUP8 ADD KECCAK256 DUP2 SUB PUSH2 0x1020 JUMPI POP POP ISZERO PUSH2 0xFC6 JUMPI POP ISZERO PUSH2 0xF84 JUMPI JUMPDEST PUSH2 0xF02 DUP5 DUP5 PUSH2 0x35CA JUMP JUMPDEST DUP8 MSTORE PUSH1 0x6 DUP2 MSTORE PUSH1 0xFF PUSH1 0x1 DUP10 DUP10 KECCAK256 ADD SLOAD AND PUSH2 0xF26 JUMPI POP POP PUSH2 0xF23 SWAP5 SWAP6 POP PUSH2 0x3440 JUMP JUMPDEST DUP1 RETURN JUMPDEST DUP8 MLOAD PUSH3 0x461BCD PUSH1 0xE5 SHL DUP2 MSTORE SWAP2 DUP3 ADD MSTORE PUSH1 0x33 PUSH1 0x24 DUP3 ADD MSTORE PUSH32 0x54617267657420616C726561647920686173206120726F6C652E205573652063 PUSH1 0x44 DUP3 ADD MSTORE PUSH19 0x1A185B99D9549BDB194A0A481A5B9CDD195859 PUSH1 0x6A SHL PUSH1 0x64 DUP3 ADD MSTORE PUSH1 0x84 SWAP2 POP REVERT JUMPDEST DUP8 MLOAD PUSH3 0x461BCD PUSH1 0xE5 SHL DUP2 MSTORE SWAP2 DUP3 ADD DUP2 SWAP1 MSTORE PUSH1 0x24 DUP3 ADD MSTORE PUSH32 0x4F6E6C79206F776E6572732063616E206772616E74206F776E657220726F6C65 PUSH1 0x44 DUP3 ADD MSTORE PUSH1 0x64 SWAP2 POP REVERT JUMPDEST SWAP1 POP PUSH2 0xEF8 JUMPI DUP8 MLOAD PUSH3 0x461BCD PUSH1 0xE5 SHL DUP2 MSTORE SWAP2 DUP3 ADD MSTORE PUSH1 0x29 PUSH1 0x24 DUP3 ADD MSTORE PUSH32 0x4F6E6C792061646D696E6973747261746F72732063616E206772616E74206669 PUSH1 0x44 DUP3 ADD MSTORE PUSH9 0x3939BA1037BBB732B9 PUSH1 0xB9 SHL PUSH1 0x64 DUP3 ADD MSTORE PUSH1 0x84 SWAP2 POP REVERT JUMPDEST SWAP1 SWAP2 POP PUSH2 0x102B PUSH2 0x3016 JUMP JUMPDEST DUP1 MLOAD SWAP1 DUP7 ADD KECCAK256 DUP2 SUB PUSH2 0x10B5 JUMPI POP POP DUP2 ISZERO PUSH2 0x10AD JUMPI JUMPDEST POP PUSH2 0xEF8 JUMPI DUP8 MLOAD PUSH3 0x461BCD PUSH1 0xE5 SHL DUP2 MSTORE SWAP2 DUP3 ADD MSTORE PUSH1 0x3B PUSH1 0x24 DUP3 ADD MSTORE PUSH32 0x4F6E6C79206F776E65727320616E642061646D696E6973747261746F72732063 PUSH1 0x44 DUP3 ADD MSTORE PUSH32 0x616E206772616E742061646D696E6973747261746F7220726F6C650000000000 PUSH1 0x64 DUP3 ADD MSTORE PUSH1 0x84 SWAP2 POP REVERT JUMPDEST SWAP1 POP DUP10 PUSH2 0x1040 JUMP JUMPDEST PUSH2 0x10C0 SWAP4 SWAP2 SWAP4 PUSH2 0x303F JUMP JUMPDEST DUP6 DUP2 MLOAD SWAP2 ADD KECCAK256 EQ PUSH2 0x10D4 JUMPI JUMPDEST POP POP POP PUSH2 0xEF8 JUMP JUMPDEST DUP1 ISZERO SWAP1 DUP2 PUSH2 0x1244 JUMPI JUMPDEST DUP1 ISZERO PUSH2 0x123D JUMPI JUMPDEST ISZERO PUSH2 0x11D4 JUMPI DUP3 PUSH2 0x11CC JUMPI JUMPDEST POP DUP2 PUSH2 0x11C3 JUMPI JUMPDEST POP PUSH2 0x1104 JUMPI JUMPDEST DUP9 DUP1 DUP1 PUSH2 0x10CC JUMP JUMPDEST PUSH2 0x110E DUP7 DUP5 PUSH2 0x35CA JUMP JUMPDEST DUP8 MSTORE PUSH1 0x6 DUP2 MSTORE DUP8 DUP8 KECCAK256 PUSH1 0xFF PUSH1 0x1 DUP11 MLOAD SWAP3 PUSH2 0x1127 DUP5 PUSH2 0x297C JUMP JUMPDEST PUSH2 0x1130 DUP2 PUSH2 0x2B10 JUMP JUMPDEST DUP5 MSTORE ADD SLOAD AND ISZERO DUP1 ISZERO DUP4 DUP4 ADD MSTORE PUSH2 0x11AF JUMPI MLOAD JUMPDEST MLOAD PUSH2 0x10FC JUMPI DUP8 MLOAD PUSH3 0x461BCD PUSH1 0xE5 SHL DUP2 MSTORE SWAP2 DUP3 ADD MSTORE PUSH1 0x3C PUSH1 0x24 DUP3 ADD MSTORE PUSH32 0x5375626A656374206D757374206861766520616E2061637469766520726F6C65 PUSH1 0x44 DUP3 ADD MSTORE PUSH32 0x20746F206772616E7420766965776572207065726D697373696F6E7300000000 PUSH1 0x64 DUP3 ADD MSTORE PUSH1 0x84 SWAP2 POP REVERT JUMPDEST POP DUP8 MLOAD PUSH2 0x11BB DUP2 PUSH2 0x29AD JUMP JUMPDEST DUP8 DUP2 MSTORE PUSH2 0x1142 JUMP JUMPDEST SWAP1 POP ISZERO DUP10 PUSH2 0x10F6 JUMP JUMPDEST SWAP2 POP DUP11 PUSH2 0x10EF JUMP JUMPDEST DUP11 MLOAD PUSH3 0x461BCD PUSH1 0xE5 SHL DUP2 MSTORE DUP1 DUP7 ADD DUP6 SWAP1 MSTORE PUSH1 0x3E PUSH1 0x24 DUP3 ADD MSTORE PUSH32 0x4F6E6C79206F776E6572732C2061646D696E6973747261746F72732C206F7220 PUSH1 0x44 DUP3 ADD MSTORE PUSH32 0x7375626A656374732063616E206772616E742076696577657220726F6C650000 PUSH1 0x64 DUP3 ADD MSTORE PUSH1 0x84 SWAP1 REVERT JUMPDEST POP DUP3 PUSH2 0x10E4 JUMP JUMPDEST POP DUP2 PUSH2 0x10DD JUMP JUMPDEST PUSH1 0x64 DUP4 DUP4 DUP1 DUP13 MLOAD SWAP3 PUSH3 0x461BCD PUSH1 0xE5 SHL DUP5 MSTORE DUP4 ADD MSTORE PUSH1 0x24 DUP3 ADD MSTORE PUSH32 0x596F752068617665206E6F20726F6C6520666F722074686973207265636F7264 PUSH1 0x44 DUP3 ADD MSTORE REVERT JUMPDEST POP SWAP2 SWAP1 CALLVALUE PUSH2 0x2BD JUMPI PUSH1 0x20 CALLDATASIZE PUSH1 0x3 NOT ADD SLT PUSH2 0x2BD JUMPI PUSH2 0x12A8 PUSH2 0x2961 JUMP JUMPDEST DUP4 SLOAD PUSH1 0x1 PUSH1 0x1 PUSH1 0xA0 SHL SUB SWAP2 SWAP1 PUSH2 0x12C1 SWAP1 DUP4 AND CALLER EQ PUSH2 0x2D0C JUMP JUMPDEST AND DUP1 DUP5 MSTORE PUSH1 0x1 SWAP3 DUP4 PUSH1 0x20 MSTORE PUSH2 0x12DA DUP4 DUP7 KECCAK256 SLOAD ISZERO ISZERO PUSH2 0x2D45 JUMP JUMPDEST DUP2 DUP6 MSTORE DUP4 PUSH1 0x20 MSTORE PUSH1 0xFF DUP5 DUP5 DUP8 KECCAK256 ADD SLOAD AND PUSH2 0x1308 JUMPI POP DUP4 MSTORE PUSH1 0x20 DUP3 SWAP1 MSTORE DUP3 KECCAK256 DUP2 ADD DUP1 SLOAD PUSH1 0xFF NOT AND SWAP1 SWAP2 OR SWAP1 SSTORE DUP1 RETURN JUMPDEST PUSH1 0x64 SWAP1 PUSH1 0x20 DUP5 MLOAD SWAP2 PUSH3 0x461BCD PUSH1 0xE5 SHL DUP4 MSTORE DUP3 ADD MSTORE PUSH1 0x15 PUSH1 0x24 DUP3 ADD MSTORE PUSH21 0x57616C6C657420616C726561647920616374697665 PUSH1 0x58 SHL PUSH1 0x44 DUP3 ADD MSTORE REVERT JUMPDEST POP SWAP1 CALLVALUE PUSH2 0x2EC JUMPI PUSH1 0x20 SWAP2 PUSH2 0x1359 PUSH2 0x5BD CALLDATASIZE PUSH2 0x2C74 JUMP JUMPDEST DUP2 ADD PUSH1 0x9 DUP2 MSTORE SUB ADD SWAP1 KECCAK256 SWAP1 DUP2 SLOAD DUP5 LT ISZERO PUSH2 0x2C1 JUMPI POP PUSH1 0x20 SWAP3 PUSH2 0x5F2 SWAP2 PUSH2 0x2CDE JUMP JUMPDEST POP SWAP1 CALLVALUE PUSH2 0x2EC JUMPI DUP2 PUSH1 0x3 NOT CALLDATASIZE ADD SLT PUSH2 0x2EC JUMPI DUP1 MLOAD PUSH2 0x2A7 SWAP2 PUSH2 0x139B DUP3 PUSH2 0x297C JUMP JUMPDEST PUSH1 0x5 DUP3 MSTORE PUSH5 0x352E302E3 PUSH1 0xDC SHL PUSH1 0x20 DUP4 ADD MSTORE MLOAD SWAP2 DUP3 SWAP2 PUSH1 0x20 DUP4 MSTORE PUSH1 0x20 DUP4 ADD SWAP1 PUSH2 0x2BD8 JUMP JUMPDEST POP SWAP1 CALLVALUE PUSH2 0x2EC JUMPI PUSH1 0x20 SWAP1 PUSH2 0x30C PUSH2 0x13D5 CALLDATASIZE PUSH2 0x2A59 JUMP JUMPDEST SWAP1 PUSH2 0x30BF JUMP JUMPDEST POP SWAP2 CALLVALUE PUSH2 0x2BD JUMPI PUSH1 0x20 CALLDATASIZE PUSH1 0x3 NOT ADD SLT PUSH2 0x2BD JUMPI DUP1 CALLDATALOAD SWAP1 DUP1 SLOAD DUP3 LT ISZERO PUSH2 0x579 JUMPI PUSH1 0x20 SWAP4 MSTORE PUSH32 0x8A35ACFBC15FF81A39AE7D344FD709F28E8600B4AA8C65C6B64BFE7FE36BD19B ADD SLOAD SWAP1 MLOAD SWAP1 DUP2 MSTORE RETURN JUMPDEST POP SWAP1 CALLVALUE PUSH2 0x2EC JUMPI PUSH1 0x20 SWAP2 PUSH2 0x143E PUSH2 0x5BD CALLDATASIZE PUSH2 0x2C74 JUMP JUMPDEST DUP2 ADD PUSH1 0x7 DUP2 MSTORE SUB ADD SWAP1 KECCAK256 SWAP1 DUP2 SLOAD DUP5 LT ISZERO PUSH2 0x2C1 JUMPI POP PUSH1 0x20 SWAP3 PUSH2 0x5F2 SWAP2 PUSH2 0x2CDE JUMP JUMPDEST POP SWAP2 SWAP1 CALLVALUE PUSH2 0x2BD JUMPI DUP1 PUSH1 0x3 NOT CALLDATASIZE ADD SLT PUSH2 0x2BD JUMPI DUP2 CALLDATALOAD SWAP1 PUSH1 0x24 CALLDATALOAD PUSH1 0x5 DUP2 LT ISZERO PUSH2 0x575 JUMPI PUSH2 0x1495 PUSH1 0x1 DUP1 PUSH1 0xA0 SHL SUB DUP7 SLOAD AND CALLER EQ PUSH2 0x2D0C JUMP JUMPDEST DUP3 DUP6 MSTORE PUSH1 0x20 PUSH1 0x2 DUP2 MSTORE PUSH1 0xFF DUP4 DUP8 KECCAK256 SLOAD AND PUSH1 0x5 DUP2 LT ISZERO PUSH2 0x15B3 JUMPI ISZERO PUSH2 0x157B JUMPI DUP4 DUP7 MSTORE PUSH1 0x2 DUP2 MSTORE PUSH1 0xFF DUP4 DUP8 KECCAK256 SLOAD AND SWAP5 PUSH1 0x5 DUP7 LT ISZERO PUSH2 0x1568 JUMPI DUP3 DUP7 EQ PUSH2 0x1531 JUMPI POP SWAP1 PUSH2 0x1503 SWAP2 DUP5 DUP8 MSTORE PUSH1 0x2 DUP2 MSTORE DUP4 DUP8 KECCAK256 PUSH1 0xFF NOT DUP2 SLOAD AND PUSH1 0xFF DUP5 AND OR SWAP1 SSTORE PUSH2 0x14FB DUP5 MLOAD DUP1 SWAP8 PUSH2 0x2CA5 JUMP JUMPDEST DUP6 ADD SWAP1 PUSH2 0x2CA5 JUMP JUMPDEST TIMESTAMP SWAP1 DUP4 ADD MSTORE PUSH32 0xF6277C6EE46649823DB9A5C531DB3112B4340C67179CAE1932BA3420DCC37CC7 PUSH1 0x60 CALLER SWAP4 LOG3 DUP1 RETURN JUMPDEST PUSH1 0x64 SWAP2 DUP5 MLOAD SWAP2 PUSH3 0x461BCD PUSH1 0xE5 SHL DUP4 MSTORE DUP3 ADD MSTORE PUSH1 0x13 PUSH1 0x24 DUP3 ADD MSTORE PUSH19 0x416C7265616479207468697320737461747573 PUSH1 0x68 SHL PUSH1 0x44 DUP3 ADD MSTORE REVERT JUMPDEST PUSH4 0x4E487B71 PUSH1 0xE0 SHL DUP8 MSTORE PUSH1 0x21 SWAP1 MSTORE PUSH1 0x24 DUP7 REVERT JUMPDEST DUP5 PUSH1 0x64 SWAP2 DUP5 MLOAD SWAP2 PUSH3 0x461BCD PUSH1 0xE5 SHL DUP4 MSTORE DUP3 ADD MSTORE PUSH1 0x13 PUSH1 0x24 DUP3 ADD MSTORE PUSH19 0x155CD95C881B9BDD081C9959DA5CDD195C9959 PUSH1 0x6A SHL PUSH1 0x44 DUP3 ADD MSTORE REVERT JUMPDEST PUSH4 0x4E487B71 PUSH1 0xE0 SHL DUP8 MSTORE PUSH1 0x21 DUP7 MSTORE PUSH1 0x24 DUP8 REVERT JUMPDEST POP SWAP1 CALLVALUE PUSH2 0x2EC JUMPI PUSH2 0x15D6 CALLDATASIZE PUSH2 0x2CC8 JUMP JUMPDEST SWAP3 SWAP1 DUP2 MSTORE PUSH1 0x3 PUSH1 0x20 MSTORE DUP2 DUP2 KECCAK256 SWAP1 DUP2 SLOAD DUP5 LT ISZERO PUSH2 0x2C1 JUMPI POP PUSH1 0x20 SWAP3 PUSH2 0x15F9 SWAP2 PUSH2 0x2CDE JUMP JUMPDEST PUSH1 0x1 DUP1 PUSH1 0xA0 SHL SUB SWAP2 SLOAD SWAP1 PUSH1 0x3 SHL SHR AND SWAP1 MLOAD SWAP1 DUP2 MSTORE RETURN JUMPDEST POP SWAP1 CALLVALUE PUSH2 0x2EC JUMPI PUSH1 0x20 CALLDATASIZE PUSH1 0x3 NOT ADD SLT PUSH2 0x2EC JUMPI SWAP1 DUP2 SWAP1 PUSH1 0x1 PUSH1 0x1 PUSH1 0xA0 SHL SUB PUSH2 0x1635 PUSH2 0x2961 JUMP JUMPDEST AND DUP2 MSTORE PUSH1 0x1 PUSH1 0x20 MSTORE KECCAK256 PUSH1 0xFF PUSH1 0x1 DUP3 SLOAD SWAP3 ADD SLOAD AND DUP3 MLOAD SWAP2 DUP3 MSTORE ISZERO ISZERO PUSH1 0x20 DUP3 ADD MSTORE RETURN JUMPDEST POP SWAP2 CALLVALUE PUSH2 0x2BD JUMPI DUP3 PUSH1 0x3 NOT CALLDATASIZE ADD SLT PUSH2 0x2BD JUMPI PUSH32 0xF0C57E16840DF040F15088DC2F81FE391C3923BEC73E23A9662EFC9C229C6A00 SWAP2 DUP3 SLOAD PUSH1 0xFF DUP2 DUP4 SHR AND ISZERO SWAP1 PUSH1 0x1 PUSH1 0x1 PUSH1 0x40 SHL SUB DUP2 AND DUP1 ISZERO SWAP1 DUP2 PUSH2 0x178C JUMPI JUMPDEST PUSH1 0x1 EQ SWAP1 DUP2 PUSH2 0x1782 JUMPI JUMPDEST ISZERO SWAP1 DUP2 PUSH2 0x1779 JUMPI JUMPDEST POP PUSH2 0x176A JUMPI PUSH8 0xFFFFFFFFFFFFFFFF NOT DUP2 AND PUSH1 0x1 OR DUP6 SSTORE DUP2 PUSH2 0x174B JUMPI JUMPDEST POP DUP4 SLOAD SWAP3 PUSH1 0xFF DUP5 DUP5 SHR AND ISZERO PUSH2 0x173D JUMPI POP DUP5 SLOAD PUSH1 0x1 PUSH1 0x1 PUSH1 0xA0 SHL SUB NOT AND CALLER OR DUP6 SSTORE PUSH2 0x16FD JUMPI DUP4 DUP1 RETURN JUMPDEST PUSH32 0xC7F505B2F371AE2175EE4913F4499E1F2633A7B5936321EED1CDAEB6115181D2 SWAP3 PUSH1 0x20 SWAP3 PUSH9 0xFF0000000000000000 NOT AND SWAP1 SSTORE MLOAD PUSH1 0x1 DUP2 MSTORE LOG1 CODESIZE DUP1 DUP1 DUP4 DUP1 RETURN JUMPDEST DUP3 MLOAD PUSH4 0x1AFCD79F PUSH1 0xE3 SHL DUP2 MSTORE REVERT JUMPDEST PUSH9 0xFFFFFFFFFFFFFFFFFF NOT AND PUSH9 0x10000000000000001 OR DUP5 SSTORE CODESIZE PUSH2 0x16D5 JUMP JUMPDEST POP POP MLOAD PUSH4 0xF92EE8A9 PUSH1 0xE0 SHL DUP2 MSTORE REVERT JUMPDEST SWAP1 POP ISZERO CODESIZE PUSH2 0x16B9 JUMP JUMPDEST ADDRESS EXTCODESIZE ISZERO SWAP2 POP PUSH2 0x16B1 JUMP JUMPDEST DUP4 SWAP2 POP PUSH2 0x16A7 JUMP JUMPDEST POP SWAP1 CALLVALUE PUSH2 0x2EC JUMPI DUP2 PUSH1 0x3 NOT CALLDATASIZE ADD SLT PUSH2 0x2EC JUMPI PUSH1 0x20 SWAP1 PUSH1 0xB SLOAD SWAP1 MLOAD SWAP1 DUP2 MSTORE RETURN JUMPDEST POP SWAP1 CALLVALUE PUSH2 0x2EC JUMPI PUSH1 0x20 CALLDATASIZE PUSH1 0x3 NOT ADD SLT PUSH2 0x2EC JUMPI PUSH1 0x20 SWAP1 PUSH2 0x17D1 PUSH2 0x2961 JUMP JUMPDEST DUP4 SLOAD SWAP2 SWAP1 PUSH1 0x1 PUSH1 0x1 PUSH1 0xA0 SHL SUB DUP1 DUP5 AND SWAP2 PUSH32 0x38DF5FA0F7FEF0D515CA1F5388CB5790AC5885D5FCA8D05D9F943E563C33A4B3 SWAP2 SWAP1 PUSH2 0x180F CALLER DUP6 EQ PUSH2 0x2D0C JUMP JUMPDEST AND SWAP5 DUP6 SWAP4 PUSH2 0x181E DUP6 ISZERO ISZERO PUSH2 0x3081 JUMP JUMPDEST MLOAD TIMESTAMP DUP2 MSTORE LOG3 PUSH1 0x1 PUSH1 0x1 PUSH1 0xA0 SHL SUB NOT AND OR DUP2 SSTORE DUP1 RETURN JUMPDEST POP SWAP2 SWAP1 CALLVALUE PUSH2 0x2BD JUMPI PUSH2 0x1844 CALLDATASIZE PUSH2 0x2A59 JUMP JUMPDEST PUSH2 0x1852 DUP3 SWAP4 SWAP3 MLOAD ISZERO ISZERO PUSH2 0x2DD0 JUMP JUMPDEST PUSH1 0x1 PUSH1 0x1 PUSH1 0xA0 SHL SUB AND SWAP3 PUSH2 0x1867 DUP5 ISZERO ISZERO PUSH2 0x2F05 JUMP JUMPDEST CALLER DUP6 MSTORE PUSH1 0x20 SWAP2 PUSH1 0x1 DUP4 MSTORE DUP1 DUP7 KECCAK256 SLOAD SWAP5 DUP7 MSTORE DUP1 DUP7 KECCAK256 SLOAD SWAP4 PUSH2 0x1888 DUP6 ISZERO ISZERO PUSH2 0x2F51 JUMP JUMPDEST PUSH2 0x1892 DUP6 DUP3 PUSH2 0x35CA JUMP JUMPDEST DUP1 DUP9 MSTORE PUSH1 0x6 DUP6 MSTORE PUSH2 0x18AB PUSH1 0xFF PUSH1 0x1 DUP6 DUP12 KECCAK256 ADD SLOAD AND PUSH2 0x2F9D JUMP JUMPDEST DUP1 DUP9 MSTORE PUSH1 0x6 DUP6 MSTORE PUSH2 0x18BD DUP4 DUP10 KECCAK256 PUSH2 0x2B10 JUMP JUMPDEST SWAP4 DUP5 MLOAD DUP7 DUP7 ADD KECCAK256 PUSH2 0x18CC PUSH2 0x2FF5 JUMP JUMPDEST DUP8 DUP2 MLOAD SWAP2 ADD KECCAK256 DUP2 EQ PUSH2 0x1BFC JUMPI DUP8 DUP10 SUB PUSH2 0x1A21 JUMPI JUMPDEST PUSH2 0x18E8 PUSH2 0x3016 JUMP JUMPDEST DUP8 DUP2 MLOAD SWAP2 ADD KECCAK256 EQ PUSH2 0x195E JUMPI JUMPDEST POP DUP2 PUSH2 0x194A SWAP2 PUSH2 0x1928 DUP7 DUP10 PUSH32 0x938E21A28464DB5F9B9E24D1A58E038899DE364F69DBA20C154EE6FD4CD86DEF SWAP9 SWAP8 SWAP7 PUSH2 0x3665 JUMP JUMPDEST DUP10 MSTORE PUSH1 0x6 DUP7 MSTORE PUSH1 0x1 DUP4 DUP11 KECCAK256 ADD PUSH1 0xFF NOT DUP2 SLOAD AND SWAP1 SSTORE PUSH1 0xD DUP7 MSTORE DUP9 DUP4 DUP2 KECCAK256 SSTORE PUSH2 0x3061 JUMP JUMPDEST SWAP4 PUSH2 0x869 DUP3 MLOAD SWAP4 DUP4 DUP6 SWAP5 DUP6 MSTORE DUP5 ADD SWAP1 PUSH2 0x2BD8 JUMP JUMPDEST DUP4 MLOAD PUSH2 0x1997 DUP8 PUSH1 0x1 DUP7 MLOAD SWAP4 DUP3 DUP2 DUP2 DUP11 ADD SWAP7 PUSH2 0x197A DUP2 DUP4 DUP11 PUSH2 0x2BB5 JUMP JUMPDEST DUP2 ADD PUSH1 0x8 DUP2 MSTORE SUB ADD SWAP1 KECCAK256 SLOAD GT SWAP3 DUP8 MLOAD DUP1 SWAP4 DUP2 SWAP3 DUP10 MLOAD SWAP3 DUP4 SWAP2 PUSH2 0x2BB5 JUMP JUMPDEST DUP2 ADD PUSH1 0x7 DUP2 MSTORE SUB ADD SWAP1 KECCAK256 SLOAD ISZERO ISZERO DUP2 ISZERO PUSH2 0x1A19 JUMPI JUMPDEST POP PUSH2 0x18F4 JUMPI DUP4 MLOAD PUSH3 0x461BCD PUSH1 0xE5 SHL DUP2 MSTORE SWAP1 DUP2 ADD DUP7 SWAP1 MSTORE PUSH1 0x39 PUSH1 0x24 DUP3 ADD MSTORE PUSH32 0x43616E6E6F74207265766F6B65206C6173742061646D696E6973747261746F72 PUSH1 0x44 DUP3 ADD MSTORE PUSH32 0x20776974686F757420616E206F776E65722070726573656E7400000000000000 PUSH1 0x64 DUP3 ADD MSTORE PUSH1 0x84 SWAP1 REVERT JUMPDEST SWAP1 POP CODESIZE PUSH2 0x19AB JUMP JUMPDEST PUSH2 0x1A33 PUSH2 0x1A2C PUSH2 0x2FF5 JUMP JUMPDEST DUP11 DUP7 PUSH2 0x3605 JUMP JUMPDEST PUSH2 0x1A45 PUSH2 0x1A3E PUSH2 0x3016 JUMP JUMPDEST DUP12 DUP8 PUSH2 0x3605 JUMP JUMPDEST DUP5 DUP13 MSTORE PUSH1 0xD DUP10 MSTORE DUP11 DUP8 DUP14 KECCAK256 SLOAD EQ SWAP1 PUSH2 0x1A5B PUSH2 0x303F JUMP JUMPDEST DUP1 MLOAD SWAP1 DUP12 ADD KECCAK256 DUP5 SUB PUSH2 0x1AFB JUMPI DUP3 ISZERO PUSH2 0x1AF3 JUMPI JUMPDEST POP DUP2 ISZERO PUSH2 0x1AEB JUMPI JUMPDEST POP ISZERO PUSH2 0x1A82 JUMPI JUMPDEST PUSH2 0x18E0 JUMP JUMPDEST DUP5 MLOAD PUSH3 0x461BCD PUSH1 0xE5 SHL DUP2 MSTORE DUP1 DUP4 ADD DUP9 SWAP1 MSTORE PUSH1 0x3E PUSH1 0x24 DUP3 ADD MSTORE PUSH32 0x4F6E6C79206F776E6572732C2061646D696E6973747261746F72732C206F7220 PUSH1 0x44 DUP3 ADD MSTORE PUSH32 0x746865206772616E7465722063616E207265766F6B6520766965776572730000 PUSH1 0x64 DUP3 ADD MSTORE PUSH1 0x84 SWAP1 REVERT JUMPDEST SWAP1 POP CODESIZE PUSH2 0x1A76 JUMP JUMPDEST SWAP2 POP CODESIZE PUSH2 0x1A6E JUMP JUMPDEST DUP3 ISZERO SWAP3 SWAP2 POP DUP3 PUSH2 0x1BF4 JUMPI JUMPDEST POP ISZERO PUSH2 0x1B99 JUMPI ISZERO PUSH2 0x18E0 JUMPI PUSH2 0x1B19 PUSH2 0x3016 JUMP JUMPDEST DUP8 DUP2 MLOAD SWAP2 ADD KECCAK256 DUP2 SUB PUSH2 0x1A7D JUMPI DUP5 MLOAD DUP8 DUP2 DUP7 MLOAD PUSH2 0x1B38 DUP2 DUP4 DUP6 DUP12 ADD PUSH2 0x2BB5 JUMP JUMPDEST DUP2 ADD PUSH1 0x7 DUP2 MSTORE SUB ADD SWAP1 KECCAK256 SLOAD ISZERO PUSH2 0x1A7D JUMPI DUP5 MLOAD PUSH3 0x461BCD PUSH1 0xE5 SHL DUP2 MSTORE DUP1 DUP4 ADD DUP9 SWAP1 MSTORE PUSH1 0x25 PUSH1 0x24 DUP3 ADD MSTORE PUSH32 0x4F6E6C79206F776E6572732063616E207265766F6B652061646D696E69737472 PUSH1 0x44 DUP3 ADD MSTORE PUSH5 0x61746F7273 PUSH1 0xD8 SHL PUSH1 0x64 DUP3 ADD MSTORE PUSH1 0x84 SWAP1 REVERT JUMPDEST DUP6 MLOAD PUSH3 0x461BCD PUSH1 0xE5 SHL DUP2 MSTORE DUP1 DUP5 ADD DUP10 SWAP1 MSTORE PUSH1 0x2F PUSH1 0x24 DUP3 ADD MSTORE PUSH32 0x4F6E6C79206F776E65727320616E642061646D696E6973747261746F72732063 PUSH1 0x44 DUP3 ADD MSTORE PUSH15 0x616E207265766F6B6520726F6C6573 PUSH1 0x88 SHL PUSH1 0x64 DUP3 ADD MSTORE PUSH1 0x84 SWAP1 REVERT JUMPDEST SWAP1 POP CODESIZE PUSH2 0x1B06 JUMP JUMPDEST DUP5 MLOAD PUSH3 0x461BCD PUSH1 0xE5 SHL DUP2 MSTORE DUP1 DUP4 ADD DUP9 SWAP1 MSTORE PUSH1 0x45 PUSH1 0x24 DUP3 ADD MSTORE PUSH32 0x4F776E6572732063616E6E6F74206265207265766F6B65642E204F776E657220 PUSH1 0x44 DUP3 ADD MSTORE PUSH32 0x6D7573742075736520766F6C756E746172696C794C656176654F776E65727368 PUSH1 0x64 DUP3 ADD MSTORE PUSH5 0x34B8141497 PUSH1 0xD9 SHL PUSH1 0x84 DUP3 ADD MSTORE PUSH1 0xA4 SWAP1 REVERT JUMPDEST POP SWAP1 CALLVALUE PUSH2 0x2EC JUMPI DUP1 PUSH1 0x20 SWAP3 PUSH2 0x1C8A PUSH2 0x361 CALLDATASIZE PUSH2 0x2C74 JUMP JUMPDEST DUP2 MSTORE PUSH1 0xD DUP5 MSTORE KECCAK256 SLOAD SWAP1 MLOAD SWAP1 DUP2 MSTORE RETURN JUMPDEST POP DUP3 CALLVALUE PUSH2 0x2EC JUMPI PUSH1 0x20 SWAP1 DUP2 PUSH1 0x3 NOT CALLDATASIZE ADD SLT PUSH2 0x2BD JUMPI DUP1 CALLDATALOAD DUP4 MSTORE PUSH1 0xA DUP3 MSTORE DUP4 DUP4 KECCAK256 SWAP2 DUP3 SLOAD SWAP2 PUSH1 0x1 PUSH1 0x1 PUSH1 0x40 SHL SUB DUP4 GT PUSH2 0x1D75 JUMPI POP SWAP3 SWAP1 DUP5 MLOAD SWAP1 PUSH2 0x1CE0 DUP6 DUP3 PUSH1 0x5 SHL ADD DUP4 PUSH2 0x29C8 JUMP JUMPDEST DUP1 DUP3 MSTORE DUP5 DUP3 ADD DUP1 SWAP5 DUP5 MSTORE DUP6 DUP5 KECCAK256 DUP5 SWAP2 JUMPDEST DUP4 DUP4 LT PUSH2 0x1D51 JUMPI POP POP POP POP DUP5 MLOAD SWAP4 DUP1 DUP6 ADD SWAP2 DUP2 DUP7 MSTORE MLOAD DUP1 SWAP3 MSTORE DUP6 DUP6 ADD SWAP6 DUP3 PUSH1 0x5 SHL DUP7 ADD ADD SWAP4 SWAP3 SWAP6 JUMPDEST DUP3 DUP8 LT PUSH2 0x1D25 JUMPI DUP6 DUP6 SUB DUP7 RETURN JUMPDEST SWAP1 SWAP2 SWAP3 SWAP4 DUP3 DUP1 PUSH2 0x1D41 PUSH1 0x1 SWAP4 PUSH1 0x3F NOT DUP11 DUP3 SUB ADD DUP7 MSTORE DUP9 MLOAD PUSH2 0x2BD8 JUMP JUMPDEST SWAP7 ADD SWAP3 ADD SWAP7 ADD SWAP6 SWAP3 SWAP2 SWAP1 SWAP3 PUSH2 0x1D18 JUMP JUMPDEST PUSH1 0x1 DUP9 DUP2 SWAP3 PUSH2 0x1D63 DUP6 SWAP12 SWAP9 SWAP10 SWAP12 PUSH2 0x2B10 JUMP JUMPDEST DUP2 MSTORE ADD SWAP3 ADD SWAP3 ADD SWAP2 SWAP1 SWAP7 SWAP5 SWAP4 SWAP7 PUSH2 0x1CF0 JUMP JUMPDEST PUSH4 0x4E487B71 PUSH1 0xE0 SHL DUP6 MSTORE PUSH1 0x41 SWAP1 MSTORE PUSH1 0x24 DUP5 REVERT JUMPDEST POP CALLVALUE PUSH2 0x2C1 JUMPI DUP1 PUSH1 0x3 NOT CALLDATASIZE ADD SLT PUSH2 0x2C1 JUMPI POP PUSH32 0x0 PUSH1 0x1 PUSH1 0x1 PUSH1 0xA0 SHL SUB AND ADDRESS SUB PUSH2 0x1DF3 JUMPI PUSH1 0x20 SWAP1 MLOAD PUSH32 0x360894A13BA1A3210667C828492DB98DCA3E2076CC3735A920A3CA505D382BBC DUP2 MSTORE RETURN JUMPDEST MLOAD PUSH4 0x703E46DD PUSH1 0xE1 SHL DUP2 MSTORE REVERT JUMPDEST POP SWAP2 SWAP1 CALLVALUE PUSH2 0x2BD JUMPI PUSH1 0x20 SWAP2 DUP3 PUSH1 0x3 NOT CALLDATASIZE ADD SLT PUSH2 0x579 JUMPI DUP1 CALLDATALOAD SWAP1 PUSH1 0x1 PUSH1 0x1 PUSH1 0x40 SHL SUB DUP3 GT PUSH2 0x575 JUMPI PUSH2 0x1E38 DUP5 SWAP2 PUSH2 0x1E4A SWAP4 CALLDATASIZE SWAP2 ADD PUSH2 0x2A3B JUMP JUMPDEST DUP2 DUP5 MLOAD SWAP4 DUP3 DUP6 DUP1 SWAP5 MLOAD SWAP4 DUP5 SWAP3 ADD PUSH2 0x2BB5 JUMP JUMPDEST DUP2 ADD PUSH1 0x9 DUP2 MSTORE SUB ADD SWAP1 KECCAK256 SWAP3 DUP2 MLOAD DUP1 SWAP4 DUP1 DUP7 SLOAD SWAP3 DUP4 DUP2 MSTORE ADD SWAP6 DUP4 MSTORE DUP1 DUP4 KECCAK256 SWAP3 SWAP1 JUMPDEST DUP3 DUP3 LT PUSH2 0x1E82 JUMPI PUSH2 0x2A7 DUP7 DUP7 PUSH2 0x689 DUP3 DUP12 SUB DUP4 PUSH2 0x29C8 JUMP JUMPDEST DUP4 SLOAD DUP8 MSTORE SWAP6 DUP7 ADD SWAP6 PUSH1 0x1 SWAP4 DUP5 ADD SWAP4 SWAP1 SWAP2 ADD SWAP1 PUSH2 0x1E6A JUMP JUMPDEST POP SWAP2 SWAP1 DUP1 PUSH1 0x3 NOT CALLDATASIZE ADD SLT PUSH2 0x2BD JUMPI PUSH2 0x1EAF PUSH2 0x2961 JUMP JUMPDEST SWAP1 PUSH1 0x24 CALLDATALOAD PUSH1 0x1 PUSH1 0x1 PUSH1 0x40 SHL SUB DUP2 GT PUSH2 0x575 JUMPI CALLDATASIZE PUSH1 0x23 DUP3 ADD SLT ISZERO PUSH2 0x575 JUMPI PUSH2 0x1EDF SWAP1 CALLDATASIZE SWAP1 PUSH1 0x24 DUP2 DUP8 ADD CALLDATALOAD SWAP2 ADD PUSH2 0x2A04 JUMP JUMPDEST PUSH1 0x1 PUSH1 0x1 PUSH1 0xA0 SHL SUB PUSH32 0x0 DUP2 AND ADDRESS DUP2 EQ SWAP1 DUP2 ISZERO PUSH2 0x20B2 JUMPI JUMPDEST POP PUSH2 0x20A2 JUMPI PUSH2 0x1F28 DUP2 DUP8 SLOAD AND CALLER EQ PUSH2 0x2D0C JUMP JUMPDEST DUP3 MLOAD PUSH4 0x52D1902D PUSH1 0xE0 SHL DUP2 MSTORE SWAP1 DUP5 AND SWAP4 PUSH1 0x20 SWAP2 DUP3 DUP2 DUP9 DUP2 DUP10 GAS STATICCALL DUP9 SWAP2 DUP2 PUSH2 0x206F JUMPI JUMPDEST POP PUSH2 0x1F66 JUMPI DUP5 MLOAD PUSH4 0x4C9C8CE3 PUSH1 0xE0 SHL DUP2 MSTORE DUP1 DUP9 ADD DUP8 SWAP1 MSTORE PUSH1 0x24 SWAP1 REVERT JUMPDEST PUSH32 0x360894A13BA1A3210667C828492DB98DCA3E2076CC3735A920A3CA505D382BBC SWAP7 SWAP3 SWAP6 SWAP2 SWAP4 SWAP7 SWAP1 DUP2 DUP2 SUB PUSH2 0x2059 JUMPI POP DUP4 EXTCODESIZE ISZERO PUSH2 0x2042 JUMPI DUP1 SLOAD PUSH1 0x1 PUSH1 0x1 PUSH1 0xA0 SHL SUB NOT AND DUP3 OR SWAP1 SSTORE DUP4 MLOAD DUP8 SWAP3 SWAP2 PUSH32 0xBC7CD75A20EE27FD9ADEBAB32041F755214DBC6BFFA90CC0225B39DA2E5C2D3B DUP5 DUP1 LOG2 DUP7 MLOAD ISZERO PUSH2 0x2025 JUMPI POP POP DUP1 DUP6 DUP6 PUSH2 0x2017 SWAP8 MLOAD SWAP2 ADD DUP5 GAS DELEGATECALL SWAP2 RETURNDATASIZE ISZERO PUSH2 0x201B JUMPI RETURNDATASIZE PUSH2 0x2009 PUSH2 0x2000 DUP3 PUSH2 0x29E9 JUMP JUMPDEST SWAP3 MLOAD SWAP3 DUP4 PUSH2 0x29C8 JUMP JUMPDEST DUP2 MSTORE DUP6 DUP2 SWAP5 RETURNDATASIZE SWAP3 ADD RETURNDATACOPY PUSH2 0x3987 JUMP JUMPDEST POP DUP1 RETURN JUMPDEST POP PUSH1 0x60 SWAP3 POP PUSH2 0x3987 JUMP JUMPDEST SWAP5 POP SWAP5 POP POP POP POP CALLVALUE PUSH2 0x2036 JUMPI POP POP DUP1 RETURN JUMPDEST PUSH4 0xB398979F PUSH1 0xE0 SHL DUP2 MSTORE REVERT JUMPDEST DUP5 MLOAD PUSH4 0x4C9C8CE3 PUSH1 0xE0 SHL DUP2 MSTORE DUP1 DUP5 ADD DUP4 SWAP1 MSTORE PUSH1 0x24 SWAP1 REVERT JUMPDEST DUP4 PUSH1 0x24 SWAP2 DUP8 MLOAD SWAP2 PUSH4 0x2A875269 PUSH1 0xE2 SHL DUP4 MSTORE DUP3 ADD MSTORE REVERT JUMPDEST SWAP1 SWAP2 POP DUP4 DUP2 DUP2 RETURNDATASIZE DUP4 GT PUSH2 0x209B JUMPI JUMPDEST PUSH2 0x2087 DUP2 DUP4 PUSH2 0x29C8 JUMP JUMPDEST DUP2 ADD SUB SLT PUSH2 0x2097 JUMPI MLOAD SWAP1 CODESIZE PUSH2 0x1F4A JUMP JUMPDEST DUP9 DUP1 REVERT JUMPDEST POP RETURNDATASIZE PUSH2 0x207D JUMP JUMPDEST DUP3 MLOAD PUSH4 0x703E46DD PUSH1 0xE1 SHL DUP2 MSTORE DUP6 SWAP1 REVERT JUMPDEST SWAP1 POP DUP2 PUSH32 0x360894A13BA1A3210667C828492DB98DCA3E2076CC3735A920A3CA505D382BBC SLOAD AND EQ ISZERO CODESIZE PUSH2 0x1F15 JUMP JUMPDEST POP SWAP2 CALLVALUE PUSH2 0x2BD JUMPI DUP2 PUSH1 0x3 NOT CALLDATASIZE ADD SLT PUSH2 0x2BD JUMPI PUSH2 0x20FA PUSH2 0x2961 JUMP JUMPDEST SWAP2 PUSH1 0x24 SWAP1 DUP2 CALLDATALOAD SWAP4 PUSH1 0x1 DUP1 PUSH1 0xA0 SHL SUB DUP1 SWAP2 PUSH2 0x2118 DUP3 DUP10 SLOAD AND CALLER EQ PUSH2 0x2D0C JUMP JUMPDEST AND SWAP4 PUSH2 0x2125 DUP6 ISZERO ISZERO PUSH2 0x2E1C JUMP JUMPDEST DUP6 ISZERO PUSH2 0x2317 JUMPI DUP5 DUP8 MSTORE PUSH1 0x1 SWAP4 PUSH1 0x20 SWAP5 DUP1 DUP7 MSTORE DUP5 DUP10 KECCAK256 SLOAD PUSH2 0x22D5 JUMPI PUSH2 0x217A DUP6 MLOAD PUSH2 0x214D DUP2 PUSH2 0x297C JUMP JUMPDEST DUP10 DUP2 MSTORE DUP3 DUP9 DUP3 ADD DUP2 DUP2 MSTORE DUP11 DUP14 MSTORE DUP2 DUP11 MSTORE DUP9 DUP14 KECCAK256 SWAP3 MLOAD DUP4 SSTORE MLOAD ISZERO ISZERO SWAP2 ADD SWAP1 PUSH1 0xFF DUP1 NOT DUP4 SLOAD AND SWAP2 ISZERO ISZERO AND OR SWAP1 SSTORE JUMP JUMPDEST DUP8 DUP10 MSTORE PUSH1 0x3 DUP7 MSTORE DUP5 DUP10 KECCAK256 SWAP4 DUP5 SLOAD PUSH1 0x1 PUSH1 0x40 SHL SWAP6 DUP7 DUP3 LT ISZERO PUSH2 0x22C3 JUMPI SWAP1 PUSH2 0x21A4 SWAP2 DUP5 DUP3 ADD DUP2 SSTORE PUSH2 0x2CDE JUMP JUMPDEST DUP2 SWAP3 SWAP2 SLOAD SWAP1 PUSH1 0x3 SHL SWAP2 DUP11 DUP4 SHL SWAP3 SHL NOT AND OR SWAP1 SSTORE DUP8 DUP10 MSTORE PUSH1 0x2 DUP7 MSTORE PUSH1 0xFF DUP6 DUP11 KECCAK256 SLOAD AND PUSH1 0x5 DUP2 LT ISZERO PUSH2 0x22B1 JUMPI PUSH2 0x2282 JUMPI DUP8 DUP10 MSTORE PUSH1 0x2 DUP7 MSTORE DUP5 DUP10 KECCAK256 PUSH1 0x2 PUSH1 0xFF NOT DUP3 SLOAD AND OR SWAP1 SSTORE DUP3 SLOAD SWAP4 DUP5 LT ISZERO PUSH2 0x2270 JUMPI DUP4 ADD DUP1 DUP4 SSTORE DUP4 LT ISZERO PUSH2 0x225F JUMPI POP PUSH32 0x39D132591EE0696DE49AB564E4A90E430C006561917DB731A2A614DD2D245591 SWAP4 SWAP3 SWAP2 DUP7 SWAP2 DUP9 MSTORE PUSH32 0x8A35ACFBC15FF81A39AE7D344FD709F28E8600B4AA8C65C6B64BFE7FE36BD19B ADD SSTORE PUSH2 0x2254 PUSH1 0x5 SLOAD PUSH2 0x2EE0 JUMP JUMPDEST PUSH1 0x5 SSTORE MLOAD TIMESTAMP DUP2 MSTORE LOG3 DUP1 RETURN JUMPDEST PUSH4 0x4E487B71 PUSH1 0xE0 SHL DUP9 MSTORE PUSH1 0x32 DUP3 MSTORE DUP8 REVERT JUMPDEST POP PUSH4 0x4E487B71 PUSH1 0xE0 SHL DUP9 MSTORE PUSH1 0x41 DUP3 MSTORE DUP8 REVERT JUMPDEST POP POP POP POP SWAP1 PUSH32 0x1CC138F50384BE7770A8E4A34EECAA0D0C718BFAA1641AF49DB32532E4A5B910 SWAP2 MLOAD TIMESTAMP DUP2 MSTORE LOG3 DUP1 RETURN JUMPDEST PUSH4 0x4E487B71 PUSH1 0xE0 SHL DUP11 MSTORE PUSH1 0x21 DUP5 MSTORE DUP3 DUP11 REVERT JUMPDEST PUSH4 0x4E487B71 PUSH1 0xE0 SHL DUP13 MSTORE PUSH1 0x41 DUP7 MSTORE DUP5 DUP13 REVERT JUMPDEST DUP5 MLOAD PUSH3 0x461BCD PUSH1 0xE5 SHL DUP2 MSTORE DUP1 DUP5 ADD DUP8 SWAP1 MSTORE PUSH1 0x19 DUP2 DUP5 ADD MSTORE PUSH32 0x57616C6C657420616C7265616479207265676973746572656400000000000000 PUSH1 0x44 DUP3 ADD MSTORE PUSH1 0x64 SWAP1 REVERT JUMPDEST PUSH1 0x64 SWAP1 PUSH1 0x14 DUP6 PUSH1 0x20 DUP7 MLOAD SWAP4 PUSH3 0x461BCD PUSH1 0xE5 SHL DUP6 MSTORE DUP5 ADD MSTORE DUP3 ADD MSTORE PUSH20 0x92DCECC2D8D2C840EAE6CAE440928840D0C2E6D PUSH1 0x63 SHL PUSH1 0x44 DUP3 ADD MSTORE REVERT JUMPDEST POP SWAP1 CALLVALUE PUSH2 0x2EC JUMPI PUSH1 0x20 CALLDATASIZE PUSH1 0x3 NOT ADD SLT PUSH2 0x2EC JUMPI PUSH1 0x20 SWAP1 PUSH2 0x30C PUSH2 0x2371 PUSH2 0x2961 JUMP JUMPDEST PUSH2 0x32C5 JUMP JUMPDEST POP CALLVALUE PUSH2 0x2C1 JUMPI PUSH1 0x20 SWAP1 DUP2 PUSH1 0x3 NOT CALLDATASIZE ADD SLT PUSH2 0x2C1 JUMPI DUP4 CALLDATALOAD SWAP1 PUSH1 0x1 PUSH1 0x1 PUSH1 0x40 SHL SUB DUP3 GT PUSH2 0x2C1 JUMPI POP PUSH1 0x60 SWAP4 PUSH2 0x23AB SWAP2 CALLDATASIZE SWAP2 ADD PUSH2 0x2A3B JUMP JUMPDEST SWAP2 DUP1 MLOAD SWAP3 PUSH2 0x2400 DUP4 DUP3 MLOAD SWAP6 DUP2 DUP2 DUP2 DUP7 ADD SWAP9 PUSH2 0x23C7 DUP2 DUP4 DUP13 PUSH2 0x2BB5 JUMP JUMPDEST DUP2 ADD PUSH1 0x7 DUP2 MSTORE SUB ADD SWAP1 KECCAK256 SLOAD SWAP6 DUP5 MLOAD DUP3 DUP2 DUP7 MLOAD PUSH2 0x23E4 DUP2 DUP4 DUP8 PUSH2 0x2BB5 JUMP JUMPDEST DUP2 ADD PUSH1 0x8 DUP2 MSTORE SUB ADD SWAP1 KECCAK256 SLOAD SWAP4 DUP6 MLOAD SWAP4 DUP5 SWAP3 DUP4 SWAP3 MLOAD SWAP3 DUP4 SWAP2 PUSH2 0x2BB5 JUMP JUMPDEST DUP2 ADD PUSH1 0x9 DUP2 MSTORE SUB ADD SWAP1 KECCAK256 SLOAD SWAP3 DUP3 MLOAD SWAP5 DUP6 MSTORE DUP5 ADD MSTORE DUP3 ADD MSTORE RETURN JUMPDEST POP SWAP2 SWAP1 CALLVALUE PUSH2 0x2BD JUMPI PUSH1 0x20 SWAP2 DUP3 PUSH1 0x3 NOT CALLDATASIZE ADD SLT PUSH2 0x579 JUMPI DUP1 CALLDATALOAD SWAP1 PUSH1 0x1 PUSH1 0x1 PUSH1 0x40 SHL SUB DUP3 GT PUSH2 0x575 JUMPI PUSH2 0x1E38 DUP5 SWAP2 PUSH2 0x2451 SWAP4 CALLDATASIZE SWAP2 ADD PUSH2 0x2A3B JUMP JUMPDEST DUP2 ADD PUSH1 0x8 DUP2 MSTORE SUB ADD SWAP1 KECCAK256 SWAP3 DUP2 MLOAD DUP1 SWAP4 DUP1 DUP7 SLOAD SWAP3 DUP4 DUP2 MSTORE ADD SWAP6 DUP4 MSTORE DUP1 DUP4 KECCAK256 SWAP3 SWAP1 JUMPDEST DUP3 DUP3 LT PUSH2 0x2489 JUMPI PUSH2 0x2A7 DUP7 DUP7 PUSH2 0x689 DUP3 DUP12 SUB DUP4 PUSH2 0x29C8 JUMP JUMPDEST DUP4 SLOAD DUP8 MSTORE SWAP6 DUP7 ADD SWAP6 PUSH1 0x1 SWAP4 DUP5 ADD SWAP4 SWAP1 SWAP2 ADD SWAP1 PUSH2 0x2471 JUMP JUMPDEST POP DUP3 CALLVALUE PUSH2 0x2EC JUMPI PUSH2 0x24B0 CALLDATASIZE PUSH2 0x2C1D JUMP JUMPDEST SWAP1 SWAP3 SWAP2 SWAP5 PUSH1 0x1 DUP1 PUSH1 0xA0 SHL SUB PUSH2 0x24C9 DUP2 DUP8 SLOAD AND CALLER EQ PUSH2 0x2D0C JUMP JUMPDEST PUSH2 0x24D5 DUP8 MLOAD ISZERO ISZERO PUSH2 0x2DD0 JUMP JUMPDEST DUP5 AND PUSH2 0x24E2 DUP2 ISZERO ISZERO PUSH2 0x2E1C JUMP JUMPDEST PUSH2 0x24EE PUSH2 0x6FB DUP5 PUSH2 0x326D JUMP JUMPDEST DUP6 MSTORE PUSH1 0x20 SWAP3 PUSH1 0x1 DUP5 MSTORE PUSH2 0x250A DUP3 DUP8 KECCAK256 SLOAD SWAP6 PUSH2 0x2371 DUP8 ISZERO ISZERO PUSH2 0x2D45 JUMP JUMPDEST ISZERO PUSH2 0x2726 JUMPI DUP2 MLOAD DUP5 DUP9 MLOAD SWAP2 DUP2 DUP2 DUP2 DUP13 ADD SWAP5 PUSH2 0x2526 DUP2 DUP4 DUP9 PUSH2 0x2BB5 JUMP JUMPDEST DUP2 ADD PUSH1 0x7 DUP2 MSTORE SUB ADD SWAP1 KECCAK256 SLOAD ISZERO SWAP2 DUP3 PUSH2 0x26FE JUMPI JUMPDEST POP POP ISZERO PUSH2 0x26BD JUMPI PUSH2 0x254A DUP6 DUP9 PUSH2 0x35CA JUMP JUMPDEST DUP1 DUP8 MSTORE PUSH1 0x6 DUP6 MSTORE DUP3 DUP8 KECCAK256 SWAP1 PUSH2 0x255E DUP3 PUSH2 0x2B10 JUMP JUMPDEST SWAP1 PUSH1 0xFF PUSH1 0x1 DUP4 MLOAD ISZERO SWAP5 ADD SLOAD AND SWAP1 PUSH2 0x25B1 DUP11 PUSH1 0x1 DUP11 PUSH2 0x259B DUP11 DUP1 MLOAD SWAP5 PUSH2 0x2582 DUP7 PUSH2 0x297C JUMP JUMPDEST DUP14 DUP7 MSTORE PUSH1 0x6 DUP5 DUP8 ADD SWAP5 DUP7 DUP7 MSTORE DUP10 DUP4 MSTORE MSTORE KECCAK256 SWAP4 MLOAD DUP5 PUSH2 0x332E JUMP JUMPDEST MLOAD ISZERO ISZERO SWAP2 ADD SWAP1 PUSH1 0xFF DUP1 NOT DUP4 SLOAD AND SWAP2 ISZERO ISZERO AND OR SWAP1 SSTORE JUMP JUMPDEST DUP10 MSTORE PUSH1 0xD DUP8 MSTORE DUP9 DUP6 DUP2 KECCAK256 SSTORE ISZERO PUSH1 0x0 EQ PUSH2 0x267E JUMPI POP PUSH2 0x25D0 DUP5 DUP8 DUP11 PUSH2 0x3824 JUMP JUMPDEST PUSH2 0x25F1 JUMPI JUMPDEST POP SWAP1 PUSH1 0x0 DUP1 MLOAD PUSH1 0x20 PUSH2 0x39EB DUP4 CODECOPY DUP2 MLOAD SWAP2 MSTORE SWAP2 PUSH2 0x194A DUP7 SWAP8 PUSH2 0x3061 JUMP JUMPDEST SWAP6 DUP5 DUP7 MSTORE PUSH1 0xA DUP5 MSTORE DUP2 DUP7 KECCAK256 DUP1 SLOAD SWAP1 PUSH1 0x1 PUSH1 0x40 SHL DUP3 LT ISZERO PUSH2 0x266B JUMPI SWAP1 PUSH2 0x261B SWAP2 PUSH1 0x1 DUP3 ADD DUP2 SSTORE PUSH2 0x2CDE JUMP JUMPDEST PUSH2 0x2659 JUMPI DUP7 SWAP8 POP DUP2 PUSH2 0x2641 PUSH1 0x0 DUP1 MLOAD PUSH1 0x20 PUSH2 0x39EB DUP4 CODECOPY DUP2 MLOAD SWAP2 MSTORE SWAP6 SWAP5 SWAP4 PUSH2 0x194A SWAP4 PUSH2 0x332E JUMP JUMPDEST PUSH2 0x264C PUSH1 0xB SLOAD PUSH2 0x2EE0 JUMP JUMPDEST PUSH1 0xB SSTORE SWAP8 POP POP SWAP1 SWAP2 PUSH2 0x25D5 JUMP JUMPDEST PUSH4 0x4E487B71 PUSH1 0xE0 SHL DUP8 MSTORE DUP7 DUP9 MSTORE PUSH1 0x24 DUP8 REVERT JUMPDEST PUSH4 0x4E487B71 PUSH1 0xE0 SHL DUP9 MSTORE PUSH1 0x41 DUP10 MSTORE PUSH1 0x24 DUP9 REVERT JUMPDEST SWAP7 SWAP8 SWAP4 SWAP6 SWAP5 SWAP3 POP POP POP DUP5 MLOAD DUP2 DUP7 ADD KECCAK256 SWAP1 DUP5 MLOAD SWAP1 DUP6 ADD KECCAK256 SUB PUSH2 0x26A1 JUMPI JUMPDEST POP POP POP POP DUP1 RETURN JUMPDEST PUSH2 0x26AF PUSH2 0x26B4 SWAP5 DUP4 DUP4 PUSH2 0x3665 JUMP JUMPDEST PUSH2 0x3824 JUMP JUMPDEST DUP2 DUP1 DUP1 DUP1 PUSH2 0x269A JUMP JUMPDEST DUP4 PUSH1 0x64 SWAP3 MLOAD SWAP2 PUSH3 0x461BCD PUSH1 0xE5 SHL DUP4 MSTORE DUP3 ADD MSTORE PUSH1 0x1A PUSH1 0x24 DUP3 ADD MSTORE PUSH32 0x5265636F726420616C726561647920696E697469616C697A6564000000000000 PUSH1 0x44 DUP3 ADD MSTORE REVERT JUMPDEST PUSH2 0x2713 SWAP3 POP DUP5 MLOAD DUP1 SWAP4 DUP2 SWAP3 DUP13 MLOAD SWAP3 DUP4 SWAP2 PUSH2 0x2BB5 JUMP JUMPDEST DUP2 ADD PUSH1 0x8 DUP2 MSTORE SUB ADD SWAP1 KECCAK256 SLOAD ISZERO DUP5 DUP10 PUSH2 0x2539 JUMP JUMPDEST DUP4 PUSH1 0x64 SWAP3 MLOAD SWAP2 PUSH3 0x461BCD PUSH1 0xE5 SHL DUP4 MSTORE DUP3 ADD MSTORE PUSH1 0x18 PUSH1 0x24 DUP3 ADD MSTORE PUSH32 0x4D75737420626520616E20616374697665206D656D6265720000000000000000 PUSH1 0x44 DUP3 ADD MSTORE REVERT JUMPDEST POP SWAP2 CALLVALUE PUSH2 0x2BD JUMPI PUSH1 0x20 CALLDATASIZE PUSH1 0x3 NOT ADD SLT PUSH2 0x2BD JUMPI SWAP2 DUP2 SWAP3 CALLDATALOAD DUP2 MSTORE PUSH1 0x6 PUSH1 0x20 MSTORE KECCAK256 PUSH2 0x2A7 PUSH1 0xFF PUSH1 0x1 PUSH2 0x2796 DUP5 PUSH2 0x2B10 JUMP JUMPDEST SWAP4 ADD SLOAD AND SWAP3 MLOAD SWAP3 DUP4 SWAP3 DUP4 PUSH2 0x2BFD JUMP JUMPDEST POP SWAP1 CALLVALUE PUSH2 0x2EC JUMPI PUSH1 0x20 CALLDATASIZE PUSH1 0x3 NOT ADD SLT PUSH2 0x2EC JUMPI PUSH1 0x20 SWAP1 PUSH2 0x30C PUSH2 0x27C6 PUSH2 0x2961 JUMP JUMPDEST PUSH2 0x31FC JUMP JUMPDEST POP SWAP2 SWAP1 CALLVALUE PUSH2 0x2BD JUMPI PUSH1 0x20 SWAP2 DUP3 PUSH1 0x3 NOT CALLDATASIZE ADD SLT PUSH2 0x579 JUMPI DUP1 CALLDATALOAD SWAP1 PUSH1 0x1 PUSH1 0x1 PUSH1 0x40 SHL SUB DUP3 GT PUSH2 0x575 JUMPI PUSH2 0x1E38 DUP5 SWAP2 PUSH2 0x2803 SWAP4 CALLDATASIZE SWAP2 ADD PUSH2 0x2A3B JUMP JUMPDEST DUP2 ADD PUSH1 0x7 DUP2 MSTORE SUB ADD SWAP1 KECCAK256 SWAP3 DUP2 MLOAD DUP1 SWAP4 DUP1 DUP7 SLOAD SWAP3 DUP4 DUP2 MSTORE ADD SWAP6 DUP4 MSTORE DUP1 DUP4 KECCAK256 SWAP3 SWAP1 JUMPDEST DUP3 DUP3 LT PUSH2 0x283B JUMPI PUSH2 0x2A7 DUP7 DUP7 PUSH2 0x689 DUP3 DUP12 SUB DUP4 PUSH2 0x29C8 JUMP JUMPDEST DUP4 SLOAD DUP8 MSTORE SWAP6 DUP7 ADD SWAP6 PUSH1 0x1 SWAP4 DUP5 ADD SWAP4 SWAP1 SWAP2 ADD SWAP1 PUSH2 0x2823 JUMP JUMPDEST POP SWAP1 CALLVALUE PUSH2 0x2EC JUMPI PUSH1 0x20 SWAP1 PUSH2 0x30C PUSH2 0x2868 CALLDATASIZE PUSH2 0x2A59 JUMP JUMPDEST SWAP1 PUSH2 0x2D89 JUMP JUMPDEST POP SWAP2 CALLVALUE PUSH2 0x2BD JUMPI PUSH1 0x20 CALLDATASIZE PUSH1 0x3 NOT ADD SLT PUSH2 0x2BD JUMPI PUSH2 0x2889 PUSH2 0x2961 JUMP JUMPDEST DUP4 SLOAD PUSH1 0x1 PUSH1 0x1 PUSH1 0xA0 SHL SUB SWAP2 SWAP1 PUSH2 0x28A2 SWAP1 DUP4 AND CALLER EQ PUSH2 0x2D0C JUMP JUMPDEST AND SWAP1 DUP2 DUP5 MSTORE PUSH1 0x1 PUSH1 0x20 MSTORE PUSH2 0x28BA DUP4 DUP6 KECCAK256 SLOAD ISZERO ISZERO PUSH2 0x2D45 JUMP JUMPDEST DUP2 DUP5 MSTORE PUSH1 0x1 PUSH1 0x20 MSTORE PUSH1 0xFF PUSH1 0x1 DUP5 DUP7 KECCAK256 ADD SLOAD AND ISZERO PUSH2 0x28EA JUMPI POP DUP3 MSTORE PUSH1 0x1 PUSH1 0x20 DUP2 SWAP1 MSTORE SWAP1 DUP3 KECCAK256 ADD DUP1 SLOAD PUSH1 0xFF NOT AND SWAP1 SSTORE DUP1 RETURN JUMPDEST PUSH1 0x64 SWAP1 PUSH1 0x20 DUP5 MLOAD SWAP2 PUSH3 0x461BCD PUSH1 0xE5 SHL DUP4 MSTORE DUP3 ADD MSTORE PUSH1 0x17 PUSH1 0x24 DUP3 ADD MSTORE PUSH32 0x57616C6C657420616C726561647920696E616374697665000000000000000000 PUSH1 0x44 DUP3 ADD MSTORE REVERT JUMPDEST SWAP1 POP DUP3 CALLVALUE PUSH2 0x2BD JUMPI PUSH1 0x20 CALLDATASIZE PUSH1 0x3 NOT ADD SLT PUSH2 0x2BD JUMPI PUSH1 0x20 SWAP3 PUSH1 0x1 PUSH1 0x1 PUSH1 0xA0 SHL SUB PUSH2 0x2954 PUSH2 0x2961 JUMP JUMPDEST AND DUP2 MSTORE PUSH1 0x1 DUP5 MSTORE KECCAK256 SLOAD DUP2 MSTORE RETURN JUMPDEST PUSH1 0x4 CALLDATALOAD SWAP1 PUSH1 0x1 PUSH1 0x1 PUSH1 0xA0 SHL SUB DUP3 AND DUP3 SUB PUSH2 0x2977 JUMPI JUMP JUMPDEST PUSH1 0x0 DUP1 REVERT JUMPDEST PUSH1 0x40 DUP2 ADD SWAP1 DUP2 LT PUSH1 0x1 PUSH1 0x1 PUSH1 0x40 SHL SUB DUP3 GT OR PUSH2 0x2997 JUMPI PUSH1 0x40 MSTORE JUMP JUMPDEST PUSH4 0x4E487B71 PUSH1 0xE0 SHL PUSH1 0x0 MSTORE PUSH1 0x41 PUSH1 0x4 MSTORE PUSH1 0x24 PUSH1 0x0 REVERT JUMPDEST PUSH1 0x20 DUP2 ADD SWAP1 DUP2 LT PUSH1 0x1 PUSH1 0x1 PUSH1 0x40 SHL SUB DUP3 GT OR PUSH2 0x2997 JUMPI PUSH1 0x40 MSTORE JUMP JUMPDEST SWAP1 PUSH1 0x1F DUP1 NOT SWAP2 ADD AND DUP2 ADD SWAP1 DUP2 LT PUSH1 0x1 PUSH1 0x1 PUSH1 0x40 SHL SUB DUP3 GT OR PUSH2 0x2997 JUMPI PUSH1 0x40 MSTORE JUMP JUMPDEST PUSH1 0x1 PUSH1 0x1 PUSH1 0x40 SHL SUB DUP2 GT PUSH2 0x2997 JUMPI PUSH1 0x1F ADD PUSH1 0x1F NOT AND PUSH1 0x20 ADD SWAP1 JUMP JUMPDEST SWAP3 SWAP2 SWAP3 PUSH2 0x2A10 DUP3 PUSH2 0x29E9 JUMP JUMPDEST SWAP2 PUSH2 0x2A1E PUSH1 0x40 MLOAD SWAP4 DUP5 PUSH2 0x29C8 JUMP JUMPDEST DUP3 SWAP5 DUP2 DUP5 MSTORE DUP2 DUP4 ADD GT PUSH2 0x2977 JUMPI DUP3 DUP2 PUSH1 0x20 SWAP4 DUP5 PUSH1 0x0 SWAP7 ADD CALLDATACOPY ADD ADD MSTORE JUMP JUMPDEST SWAP1 DUP1 PUSH1 0x1F DUP4 ADD SLT ISZERO PUSH2 0x2977 JUMPI DUP2 PUSH1 0x20 PUSH2 0x2A56 SWAP4 CALLDATALOAD SWAP2 ADD PUSH2 0x2A04 JUMP JUMPDEST SWAP1 JUMP JUMPDEST PUSH1 0x40 PUSH1 0x3 NOT DUP3 ADD SLT PUSH2 0x2977 JUMPI PUSH1 0x4 CALLDATALOAD SWAP1 PUSH1 0x1 PUSH1 0x1 PUSH1 0x40 SHL SUB DUP3 GT PUSH2 0x2977 JUMPI PUSH2 0x2A83 SWAP2 PUSH1 0x4 ADD PUSH2 0x2A3B JUMP JUMPDEST SWAP1 PUSH1 0x24 CALLDATALOAD PUSH1 0x1 PUSH1 0x1 PUSH1 0xA0 SHL SUB DUP2 AND DUP2 SUB PUSH2 0x2977 JUMPI SWAP1 JUMP JUMPDEST PUSH1 0x20 SWAP1 PUSH1 0x20 PUSH1 0x40 DUP2 DUP4 ADD SWAP3 DUP3 DUP2 MSTORE DUP6 MLOAD DUP1 SWAP5 MSTORE ADD SWAP4 ADD SWAP2 PUSH1 0x0 JUMPDEST DUP3 DUP2 LT PUSH2 0x2AC2 JUMPI POP POP POP POP SWAP1 JUMP JUMPDEST DUP4 MLOAD DUP6 MSTORE SWAP4 DUP2 ADD SWAP4 SWAP3 DUP2 ADD SWAP3 PUSH1 0x1 ADD PUSH2 0x2AB4 JUMP JUMPDEST SWAP1 PUSH1 0x1 DUP3 DUP2 SHR SWAP3 AND DUP1 ISZERO PUSH2 0x2B06 JUMPI JUMPDEST PUSH1 0x20 DUP4 LT EQ PUSH2 0x2AF0 JUMPI JUMP JUMPDEST PUSH4 0x4E487B71 PUSH1 0xE0 SHL PUSH1 0x0 MSTORE PUSH1 0x22 PUSH1 0x4 MSTORE PUSH1 0x24 PUSH1 0x0 REVERT JUMPDEST SWAP2 PUSH1 0x7F AND SWAP2 PUSH2 0x2AE5 JUMP JUMPDEST SWAP1 PUSH1 0x40 MLOAD SWAP2 DUP3 PUSH1 0x0 DUP3 SLOAD PUSH2 0x2B23 DUP2 PUSH2 0x2AD6 JUMP JUMPDEST SWAP1 DUP2 DUP5 MSTORE PUSH1 0x20 SWAP5 PUSH1 0x1 SWAP2 PUSH1 0x1 DUP2 AND SWAP1 DUP2 PUSH1 0x0 EQ PUSH2 0x2B93 JUMPI POP PUSH1 0x1 EQ PUSH2 0x2B54 JUMPI JUMPDEST POP POP POP PUSH2 0x2B52 SWAP3 POP SUB DUP4 PUSH2 0x29C8 JUMP JUMPDEST JUMP JUMPDEST PUSH1 0x0 SWAP1 DUP2 MSTORE DUP6 DUP2 KECCAK256 SWAP6 SWAP4 POP SWAP2 SWAP1 JUMPDEST DUP2 DUP4 LT PUSH2 0x2B7B JUMPI POP POP PUSH2 0x2B52 SWAP4 POP DUP3 ADD ADD CODESIZE DUP1 DUP1 PUSH2 0x2B43 JUMP JUMPDEST DUP6 SLOAD DUP9 DUP5 ADD DUP6 ADD MSTORE SWAP5 DUP6 ADD SWAP5 DUP8 SWAP5 POP SWAP2 DUP4 ADD SWAP2 PUSH2 0x2B62 JUMP JUMPDEST SWAP3 POP POP POP PUSH2 0x2B52 SWAP5 SWAP3 POP PUSH1 0xFF NOT AND DUP3 DUP5 ADD MSTORE ISZERO ISZERO PUSH1 0x5 SHL DUP3 ADD ADD CODESIZE DUP1 DUP1 PUSH2 0x2B43 JUMP JUMPDEST PUSH1 0x0 JUMPDEST DUP4 DUP2 LT PUSH2 0x2BC8 JUMPI POP POP PUSH1 0x0 SWAP2 ADD MSTORE JUMP JUMPDEST DUP2 DUP2 ADD MLOAD DUP4 DUP3 ADD MSTORE PUSH1 0x20 ADD PUSH2 0x2BB8 JUMP JUMPDEST SWAP1 PUSH1 0x20 SWAP2 PUSH2 0x2BF1 DUP2 MLOAD DUP1 SWAP3 DUP2 DUP6 MSTORE DUP6 DUP1 DUP7 ADD SWAP2 ADD PUSH2 0x2BB5 JUMP JUMPDEST PUSH1 0x1F ADD PUSH1 0x1F NOT AND ADD ADD SWAP1 JUMP JUMPDEST SWAP1 PUSH2 0x2C15 PUSH1 0x20 SWAP2 SWAP5 SWAP4 SWAP5 PUSH1 0x40 DUP5 MSTORE PUSH1 0x40 DUP5 ADD SWAP1 PUSH2 0x2BD8 JUMP JUMPDEST SWAP4 ISZERO ISZERO SWAP2 ADD MSTORE JUMP JUMPDEST PUSH1 0x60 PUSH1 0x3 NOT DUP3 ADD SLT PUSH2 0x2977 JUMPI PUSH1 0x1 PUSH1 0x1 PUSH1 0x40 SHL SUB SWAP2 PUSH1 0x4 CALLDATALOAD DUP4 DUP2 GT PUSH2 0x2977 JUMPI DUP3 PUSH2 0x2C49 SWAP2 PUSH1 0x4 ADD PUSH2 0x2A3B JUMP JUMPDEST SWAP3 PUSH1 0x24 CALLDATALOAD PUSH1 0x1 PUSH1 0x1 PUSH1 0xA0 SHL SUB DUP2 AND DUP2 SUB PUSH2 0x2977 JUMPI SWAP3 PUSH1 0x44 CALLDATALOAD SWAP2 DUP3 GT PUSH2 0x2977 JUMPI PUSH2 0x2A56 SWAP2 PUSH1 0x4 ADD PUSH2 0x2A3B JUMP JUMPDEST PUSH1 0x40 PUSH1 0x3 NOT DUP3 ADD SLT PUSH2 0x2977 JUMPI PUSH1 0x4 CALLDATALOAD SWAP1 PUSH1 0x1 PUSH1 0x1 PUSH1 0x40 SHL SUB DUP3 GT PUSH2 0x2977 JUMPI PUSH2 0x2C9E SWAP2 PUSH1 0x4 ADD PUSH2 0x2A3B JUMP JUMPDEST SWAP1 PUSH1 0x24 CALLDATALOAD SWAP1 JUMP JUMPDEST SWAP1 PUSH1 0x5 DUP3 LT ISZERO PUSH2 0x2CB2 JUMPI MSTORE JUMP JUMPDEST PUSH4 0x4E487B71 PUSH1 0xE0 SHL PUSH1 0x0 MSTORE PUSH1 0x21 PUSH1 0x4 MSTORE PUSH1 0x24 PUSH1 0x0 REVERT JUMPDEST PUSH1 0x40 SWAP1 PUSH1 0x3 NOT ADD SLT PUSH2 0x2977 JUMPI PUSH1 0x4 CALLDATALOAD SWAP1 PUSH1 0x24 CALLDATALOAD SWAP1 JUMP JUMPDEST DUP1 SLOAD DUP3 LT ISZERO PUSH2 0x2CF6 JUMPI PUSH1 0x0 MSTORE PUSH1 0x20 PUSH1 0x0 KECCAK256 ADD SWAP1 PUSH1 0x0 SWAP1 JUMP JUMPDEST PUSH4 0x4E487B71 PUSH1 0xE0 SHL PUSH1 0x0 MSTORE PUSH1 0x32 PUSH1 0x4 MSTORE PUSH1 0x24 PUSH1 0x0 REVERT JUMPDEST ISZERO PUSH2 0x2D13 JUMPI JUMP JUMPDEST PUSH1 0x40 MLOAD PUSH3 0x461BCD PUSH1 0xE5 SHL DUP2 MSTORE PUSH1 0x20 PUSH1 0x4 DUP3 ADD MSTORE PUSH1 0xA PUSH1 0x24 DUP3 ADD MSTORE PUSH10 0x27B7363C9030B236B4B7 PUSH1 0xB1 SHL PUSH1 0x44 DUP3 ADD MSTORE PUSH1 0x64 SWAP1 REVERT JUMPDEST ISZERO PUSH2 0x2D4C JUMPI JUMP JUMPDEST PUSH1 0x40 MLOAD PUSH3 0x461BCD PUSH1 0xE5 SHL DUP2 MSTORE PUSH1 0x20 PUSH1 0x4 DUP3 ADD MSTORE PUSH1 0x15 PUSH1 0x24 DUP3 ADD MSTORE PUSH21 0x15D85B1B195D081B9BDD081C9959DA5CDD195C9959 PUSH1 0x5A SHL PUSH1 0x44 DUP3 ADD MSTORE PUSH1 0x64 SWAP1 REVERT JUMPDEST PUSH1 0x1 PUSH1 0x1 PUSH1 0xA0 SHL SUB SWAP1 SWAP2 AND PUSH1 0x0 SWAP1 DUP2 MSTORE PUSH1 0x1 PUSH1 0x20 MSTORE PUSH1 0x40 SWAP1 KECCAK256 SLOAD DUP1 ISZERO PUSH2 0x2DC9 JUMPI PUSH2 0x2DB2 SWAP2 PUSH2 0x35CA JUMP JUMPDEST PUSH1 0x0 MSTORE PUSH1 0x6 PUSH1 0x20 MSTORE PUSH1 0xFF PUSH1 0x1 PUSH1 0x40 PUSH1 0x0 KECCAK256 ADD SLOAD AND SWAP1 JUMP JUMPDEST POP POP PUSH1 0x0 SWAP1 JUMP JUMPDEST ISZERO PUSH2 0x2DD7 JUMPI JUMP JUMPDEST PUSH1 0x40 MLOAD PUSH3 0x461BCD PUSH1 0xE5 SHL DUP2 MSTORE PUSH1 0x20 PUSH1 0x4 DUP3 ADD MSTORE PUSH1 0x19 PUSH1 0x24 DUP3 ADD MSTORE PUSH32 0x5265636F72642049442063616E6E6F7420626520656D70747900000000000000 PUSH1 0x44 DUP3 ADD MSTORE PUSH1 0x64 SWAP1 REVERT JUMPDEST ISZERO PUSH2 0x2E23 JUMPI JUMP JUMPDEST PUSH1 0x40 MLOAD PUSH3 0x461BCD PUSH1 0xE5 SHL DUP2 MSTORE PUSH1 0x20 PUSH1 0x4 DUP3 ADD MSTORE PUSH1 0x16 PUSH1 0x24 DUP3 ADD MSTORE PUSH22 0x496E76616C69642077616C6C65742061646472657373 PUSH1 0x50 SHL PUSH1 0x44 DUP3 ADD MSTORE PUSH1 0x64 SWAP1 REVERT JUMPDEST ISZERO PUSH2 0x2E68 JUMPI JUMP JUMPDEST PUSH1 0x40 MLOAD PUSH3 0x461BCD PUSH1 0xE5 SHL DUP2 MSTORE PUSH1 0x20 PUSH1 0x4 DUP3 ADD MSTORE PUSH1 0x13 PUSH1 0x24 DUP3 ADD MSTORE PUSH19 0x496E76616C696420726F6C6520737472696E67 PUSH1 0x68 SHL PUSH1 0x44 DUP3 ADD MSTORE PUSH1 0x64 SWAP1 REVERT JUMPDEST DUP1 SLOAD SWAP1 PUSH1 0x1 PUSH1 0x40 SHL DUP3 LT ISZERO PUSH2 0x2997 JUMPI DUP2 PUSH2 0x2EC5 SWAP2 PUSH1 0x1 PUSH2 0x2EDC SWAP5 ADD DUP2 SSTORE PUSH2 0x2CDE JUMP JUMPDEST DUP2 SWAP4 SWAP2 SLOAD SWAP1 PUSH1 0x3 SHL SWAP2 DUP3 SHL SWAP2 PUSH1 0x0 NOT SWAP1 SHL NOT AND OR SWAP1 JUMP JUMPDEST SWAP1 SSTORE JUMP JUMPDEST PUSH1 0x0 NOT DUP2 EQ PUSH2 0x2EEF JUMPI PUSH1 0x1 ADD SWAP1 JUMP JUMPDEST PUSH4 0x4E487B71 PUSH1 0xE0 SHL PUSH1 0x0 MSTORE PUSH1 0x11 PUSH1 0x4 MSTORE PUSH1 0x24 PUSH1 0x0 REVERT JUMPDEST ISZERO PUSH2 0x2F0C JUMPI JUMP JUMPDEST PUSH1 0x40 MLOAD PUSH3 0x461BCD PUSH1 0xE5 SHL DUP2 MSTORE PUSH1 0x20 PUSH1 0x4 DUP3 ADD MSTORE PUSH1 0x1D PUSH1 0x24 DUP3 ADD MSTORE PUSH32 0x57616C6C657420616464726573732063616E6E6F74206265207A65726F000000 PUSH1 0x44 DUP3 ADD MSTORE PUSH1 0x64 SWAP1 REVERT JUMPDEST ISZERO PUSH2 0x2F58 JUMPI JUMP JUMPDEST PUSH1 0x40 MLOAD PUSH3 0x461BCD PUSH1 0xE5 SHL DUP2 MSTORE PUSH1 0x20 PUSH1 0x4 DUP3 ADD MSTORE PUSH1 0x1C PUSH1 0x24 DUP3 ADD MSTORE PUSH32 0x5461726765742077616C6C6574206E6F74207265676973746572656400000000 PUSH1 0x44 DUP3 ADD MSTORE PUSH1 0x64 SWAP1 REVERT JUMPDEST ISZERO PUSH2 0x2FA4 JUMPI JUMP JUMPDEST PUSH1 0x40 MLOAD PUSH3 0x461BCD PUSH1 0xE5 SHL DUP2 MSTORE PUSH1 0x20 PUSH1 0x4 DUP3 ADD MSTORE PUSH1 0x23 PUSH1 0x24 DUP3 ADD MSTORE PUSH32 0x54617267657420646F6573206E6F74206861766520616E206163746976652072 PUSH1 0x44 DUP3 ADD MSTORE PUSH3 0x6F6C65 PUSH1 0xE8 SHL PUSH1 0x64 DUP3 ADD MSTORE PUSH1 0x84 SWAP1 REVERT JUMPDEST PUSH1 0x40 MLOAD SWAP1 PUSH2 0x3002 DUP3 PUSH2 0x297C JUMP JUMPDEST PUSH1 0x5 DUP3 MSTORE PUSH5 0x37BBB732B9 PUSH1 0xD9 SHL PUSH1 0x20 DUP4 ADD MSTORE JUMP JUMPDEST PUSH1 0x40 MLOAD SWAP1 PUSH2 0x3023 DUP3 PUSH2 0x297C JUMP JUMPDEST PUSH1 0xD DUP3 MSTORE PUSH13 0x30B236B4B734B9BA3930BA37B9 PUSH1 0x99 SHL PUSH1 0x20 DUP4 ADD MSTORE JUMP JUMPDEST PUSH1 0x40 MLOAD SWAP1 PUSH2 0x304C DUP3 PUSH2 0x297C JUMP JUMPDEST PUSH1 0x6 DUP3 MSTORE PUSH6 0x3B34B2BBB2B9 PUSH1 0xD1 SHL PUSH1 0x20 DUP4 ADD MSTORE JUMP JUMPDEST PUSH2 0x3079 SWAP1 PUSH1 0x20 PUSH1 0x40 MLOAD SWAP3 DUP3 DUP5 DUP1 SWAP5 MLOAD SWAP4 DUP5 SWAP3 ADD PUSH2 0x2BB5 JUMP JUMPDEST DUP2 ADD SUB SWAP1 KECCAK256 SWAP1 JUMP JUMPDEST ISZERO PUSH2 0x3088 JUMPI JUMP JUMPDEST PUSH1 0x40 MLOAD PUSH3 0x461BCD PUSH1 0xE5 SHL DUP2 MSTORE PUSH1 0x20 PUSH1 0x4 DUP3 ADD MSTORE PUSH1 0xF PUSH1 0x24 DUP3 ADD MSTORE PUSH15 0x496E76616C69642061646472657373 PUSH1 0x88 SHL PUSH1 0x44 DUP3 ADD MSTORE PUSH1 0x64 SWAP1 REVERT JUMPDEST PUSH1 0x1 PUSH1 0x1 PUSH1 0xA0 SHL SUB SWAP1 SWAP2 AND PUSH1 0x0 SWAP1 DUP2 MSTORE PUSH1 0x1 PUSH1 0x20 MSTORE PUSH1 0x40 SWAP1 KECCAK256 SLOAD SWAP1 DUP2 ISZERO PUSH2 0x2DC9 JUMPI PUSH2 0x30F2 PUSH2 0x30EB PUSH2 0x2FF5 JUMP JUMPDEST DUP4 DUP4 PUSH2 0x3605 JUMP JUMPDEST SWAP2 DUP3 ISZERO PUSH2 0x30FE JUMPI POP POP SWAP1 JUMP JUMPDEST PUSH2 0x2A56 SWAP3 POP PUSH2 0x310B PUSH2 0x3016 JUMP JUMPDEST SWAP2 PUSH2 0x3605 JUMP JUMPDEST ISZERO PUSH2 0x3118 JUMPI JUMP JUMPDEST PUSH1 0x40 MLOAD PUSH3 0x461BCD PUSH1 0xE5 SHL DUP2 MSTORE PUSH1 0x20 PUSH1 0x4 DUP3 ADD MSTORE PUSH1 0x14 PUSH1 0x24 DUP3 ADD MSTORE PUSH20 0x2737BA1030B71030B1BA34BB329036B2B6B132B9 PUSH1 0x61 SHL PUSH1 0x44 DUP3 ADD MSTORE PUSH1 0x64 SWAP1 REVERT JUMPDEST SWAP2 SWAP1 PUSH1 0x1 DUP1 PUSH1 0xA0 SHL SUB AND PUSH1 0x0 MSTORE PUSH1 0x1 PUSH1 0x20 MSTORE PUSH1 0x40 PUSH1 0x0 KECCAK256 SLOAD DUP1 ISZERO PUSH2 0x317B JUMPI PUSH2 0x2A56 SWAP3 PUSH2 0x3605 JUMP JUMPDEST POP POP POP PUSH1 0x0 SWAP1 JUMP JUMPDEST PUSH1 0x1 PUSH1 0x1 PUSH1 0xA0 SHL SUB SWAP1 SWAP2 AND PUSH1 0x0 SWAP1 DUP2 MSTORE PUSH1 0x1 PUSH1 0x20 MSTORE PUSH1 0x40 DUP2 KECCAK256 SLOAD SWAP1 SWAP3 SWAP2 DUP2 ISZERO PUSH2 0x31E7 JUMPI SWAP3 PUSH2 0x31B5 PUSH1 0x40 SWAP3 PUSH1 0x20 SWAP6 PUSH2 0x35CA JUMP JUMPDEST DUP2 MSTORE PUSH1 0x6 DUP5 MSTORE KECCAK256 PUSH1 0x40 MLOAD PUSH2 0x31C8 DUP2 PUSH2 0x297C JUMP JUMPDEST PUSH1 0xFF PUSH1 0x1 PUSH2 0x31D5 DUP5 PUSH2 0x2B10 JUMP JUMPDEST SWAP4 DUP5 DUP5 MSTORE ADD SLOAD AND ISZERO ISZERO SWAP4 DUP5 SWAP2 ADD MSTORE SWAP2 SWAP1 JUMP JUMPDEST POP POP PUSH1 0x40 MLOAD PUSH2 0x31F5 DUP2 PUSH2 0x29AD JUMP JUMPDEST DUP3 DUP2 MSTORE SWAP2 SWAP1 JUMP JUMPDEST PUSH1 0x1 PUSH1 0x1 PUSH1 0xA0 SHL SUB AND PUSH1 0x0 SWAP1 DUP2 MSTORE PUSH1 0x1 PUSH1 0x20 MSTORE PUSH1 0x40 DUP2 KECCAK256 DUP1 SLOAD SWAP1 DUP2 ISZERO SWAP1 DUP2 ISZERO PUSH2 0x325D JUMPI JUMPDEST POP PUSH2 0x3259 JUMPI DUP2 MSTORE PUSH1 0x2 PUSH1 0x20 MSTORE PUSH1 0xFF PUSH1 0x40 DUP3 KECCAK256 SLOAD AND SWAP1 PUSH1 0x5 DUP3 LT ISZERO PUSH2 0x3245 JUMPI POP PUSH1 0x4 EQ SWAP1 JUMP JUMPDEST PUSH4 0x4E487B71 PUSH1 0xE0 SHL DUP2 MSTORE PUSH1 0x21 PUSH1 0x4 MSTORE PUSH1 0x24 SWAP1 REVERT JUMPDEST POP SWAP1 JUMP JUMPDEST PUSH1 0xFF SWAP2 POP PUSH1 0x1 ADD SLOAD AND ISZERO CODESIZE PUSH2 0x3220 JUMP JUMPDEST PUSH1 0x20 DUP2 MLOAD SWAP2 ADD KECCAK256 PUSH2 0x327C PUSH2 0x2FF5 JUMP JUMPDEST PUSH1 0x20 DUP2 MLOAD SWAP2 ADD KECCAK256 DUP2 EQ SWAP1 DUP2 ISZERO PUSH2 0x32AC JUMPI JUMPDEST DUP2 ISZERO PUSH2 0x3297 JUMPI POP SWAP1 JUMP JUMPDEST SWAP1 POP PUSH2 0x32A1 PUSH2 0x303F JUMP JUMPDEST PUSH1 0x20 DUP2 MLOAD SWAP2 ADD KECCAK256 EQ SWAP1 JUMP JUMPDEST SWAP1 POP PUSH2 0x32B6 PUSH2 0x3016 JUMP JUMPDEST PUSH1 0x20 DUP2 MLOAD SWAP2 ADD KECCAK256 DUP2 EQ SWAP1 PUSH2 0x328D JUMP JUMPDEST PUSH1 0x1 PUSH1 0x1 PUSH1 0xA0 SHL SUB AND PUSH1 0x0 SWAP1 DUP2 MSTORE PUSH1 0x1 PUSH1 0x20 MSTORE PUSH1 0x40 DUP2 KECCAK256 DUP1 SLOAD SWAP1 DUP2 ISZERO SWAP1 DUP2 ISZERO PUSH2 0x331E JUMPI JUMPDEST POP PUSH2 0x3259 JUMPI DUP2 MSTORE PUSH1 0x2 PUSH1 0x20 MSTORE PUSH1 0xFF PUSH1 0x40 DUP3 KECCAK256 SLOAD AND SWAP1 PUSH1 0x5 DUP3 LT ISZERO PUSH2 0x3245 JUMPI POP PUSH1 0x1 DUP2 EQ ISZERO SWAP1 DUP2 PUSH2 0x3317 JUMPI POP SWAP1 JUMP JUMPDEST SWAP1 POP ISZERO ISZERO SWAP1 JUMP JUMPDEST PUSH1 0xFF SWAP2 POP PUSH1 0x1 ADD SLOAD AND ISZERO CODESIZE PUSH2 0x32E9 JUMP JUMPDEST SWAP2 SWAP1 SWAP2 DUP3 MLOAD PUSH1 0x1 PUSH1 0x1 PUSH1 0x40 SHL SUB DUP2 GT PUSH2 0x2997 JUMPI PUSH2 0x334B DUP3 SLOAD PUSH2 0x2AD6 JUMP JUMPDEST PUSH1 0x1F DUP2 GT PUSH2 0x33F6 JUMPI JUMPDEST POP PUSH1 0x20 DUP1 PUSH1 0x1F DUP4 GT PUSH1 0x1 EQ PUSH2 0x3391 JUMPI POP DUP2 SWAP3 SWAP4 SWAP5 PUSH1 0x0 SWAP3 PUSH2 0x3386 JUMPI JUMPDEST POP POP DUP2 PUSH1 0x1 SHL SWAP2 PUSH1 0x0 NOT SWAP1 PUSH1 0x3 SHL SHR NOT AND OR SWAP1 SSTORE JUMP JUMPDEST ADD MLOAD SWAP1 POP CODESIZE DUP1 PUSH2 0x3370 JUMP JUMPDEST SWAP1 PUSH1 0x1F NOT DUP4 AND SWAP6 DUP5 PUSH1 0x0 MSTORE PUSH1 0x20 PUSH1 0x0 KECCAK256 SWAP3 PUSH1 0x0 SWAP1 JUMPDEST DUP9 DUP3 LT PUSH2 0x33DE JUMPI POP POP DUP4 PUSH1 0x1 SWAP6 SWAP7 SWAP8 LT PUSH2 0x33C5 JUMPI JUMPDEST POP POP POP DUP2 SHL ADD SWAP1 SSTORE JUMP JUMPDEST ADD MLOAD PUSH1 0x0 NOT PUSH1 0xF8 DUP5 PUSH1 0x3 SHL AND SHR NOT AND SWAP1 SSTORE CODESIZE DUP1 DUP1 PUSH2 0x33BB JUMP JUMPDEST DUP1 PUSH1 0x1 DUP6 SWAP7 DUP3 SWAP5 SWAP7 DUP7 ADD MLOAD DUP2 SSTORE ADD SWAP6 ADD SWAP4 ADD SWAP1 PUSH2 0x33A6 JUMP JUMPDEST PUSH1 0x0 DUP4 PUSH1 0x0 MSTORE PUSH1 0x20 PUSH1 0x0 KECCAK256 PUSH1 0x1F DUP5 ADD PUSH1 0x5 SHR DUP2 ADD SWAP3 PUSH1 0x20 DUP6 LT PUSH2 0x3436 JUMPI JUMPDEST PUSH1 0x1F ADD PUSH1 0x5 SHR ADD SWAP2 JUMPDEST DUP3 DUP2 LT PUSH2 0x342B JUMPI POP POP PUSH2 0x3354 JUMP JUMPDEST DUP2 DUP2 SSTORE PUSH1 0x1 ADD PUSH2 0x341D JUMP JUMPDEST SWAP1 SWAP3 POP DUP3 SWAP1 PUSH2 0x3414 JUMP JUMPDEST SWAP1 SWAP2 PUSH2 0x344C DUP4 DUP4 PUSH2 0x35CA JUMP JUMPDEST PUSH1 0x0 SWAP3 DUP2 DUP5 MSTORE PUSH1 0x20 SWAP4 PUSH1 0x6 DUP6 MSTORE PUSH1 0x40 SWAP3 DUP4 DUP3 KECCAK256 SWAP1 PUSH2 0x3469 DUP3 PUSH2 0x2B10 JUMP JUMPDEST SWAP1 PUSH1 0xFF PUSH1 0x1 DUP4 MLOAD ISZERO SWAP5 ADD SLOAD AND SWAP1 PUSH2 0x34A4 DUP8 MLOAD PUSH2 0x3484 DUP2 PUSH2 0x297C JUMP JUMPDEST DUP10 DUP2 MSTORE PUSH1 0x1 DUP12 DUP3 ADD DUP2 DUP2 MSTORE DUP5 DUP10 MSTORE PUSH1 0x6 DUP14 MSTORE PUSH2 0x259B DUP12 DUP11 KECCAK256 SWAP4 MLOAD DUP5 PUSH2 0x332E JUMP JUMPDEST DUP5 MSTORE PUSH1 0xD DUP9 MSTORE DUP10 DUP7 DUP6 KECCAK256 SSTORE ISZERO PUSH1 0x0 EQ PUSH2 0x3591 JUMPI POP PUSH2 0x34C3 DUP6 DUP9 DUP6 PUSH2 0x3824 JUMP JUMPDEST PUSH2 0x3502 JUMPI JUMPDEST POP SWAP1 PUSH2 0x34E3 PUSH1 0x0 DUP1 MLOAD PUSH1 0x20 PUSH2 0x39EB DUP4 CODECOPY DUP2 MLOAD SWAP2 MSTORE SWAP4 SWAP3 PUSH2 0x3061 JUMP JUMPDEST SWAP4 PUSH2 0x34F7 DUP3 MLOAD SWAP4 DUP4 DUP6 SWAP5 DUP6 MSTORE DUP5 ADD SWAP1 PUSH2 0x2BD8 JUMP JUMPDEST SWAP1 TIMESTAMP SWAP1 DUP4 ADD MSTORE SUB SWAP1 LOG4 JUMP JUMPDEST DUP6 DUP2 MSTORE PUSH1 0xA DUP6 MSTORE DUP3 DUP2 KECCAK256 DUP1 SLOAD SWAP1 PUSH1 0x1 PUSH1 0x40 SHL DUP3 LT ISZERO PUSH2 0x357D JUMPI SWAP1 PUSH2 0x352B SWAP2 PUSH1 0x1 DUP3 ADD DUP2 SSTORE PUSH2 0x2CDE JUMP JUMPDEST SWAP2 SWAP1 SWAP2 PUSH2 0x3569 JUMPI POP DUP2 PUSH2 0x3552 PUSH1 0x0 DUP1 MLOAD PUSH1 0x20 PUSH2 0x39EB DUP4 CODECOPY DUP2 MLOAD SWAP2 MSTORE SWAP6 SWAP5 SWAP4 PUSH2 0x34E3 SWAP4 PUSH2 0x332E JUMP JUMPDEST PUSH2 0x355D PUSH1 0xB SLOAD PUSH2 0x2EE0 JUMP JUMPDEST PUSH1 0xB SSTORE SWAP2 SWAP3 SWAP4 POP PUSH2 0x34C8 JUMP JUMPDEST PUSH4 0x4E487B71 PUSH1 0xE0 SHL DUP2 MSTORE PUSH1 0x4 DUP2 SWAP1 MSTORE PUSH1 0x24 SWAP1 REVERT JUMPDEST PUSH4 0x4E487B71 PUSH1 0xE0 SHL DUP4 MSTORE PUSH1 0x41 PUSH1 0x4 MSTORE PUSH1 0x24 DUP4 REVERT JUMPDEST SWAP8 POP POP POP SWAP2 SWAP4 SWAP3 SWAP1 POP DUP5 MLOAD DUP2 DUP7 ADD KECCAK256 SWAP1 DUP5 MLOAD SWAP1 DUP6 ADD KECCAK256 SUB PUSH2 0x35B3 JUMPI JUMPDEST POP POP POP POP JUMP JUMPDEST PUSH2 0x26AF PUSH2 0x35C1 SWAP5 DUP4 DUP4 PUSH2 0x3665 JUMP JUMPDEST CODESIZE DUP1 DUP1 DUP1 PUSH2 0x35AD JUMP JUMPDEST SWAP1 PUSH2 0x35FF PUSH1 0x40 DUP1 MLOAD DUP1 SWAP4 PUSH1 0x20 PUSH2 0x35E9 DUP2 DUP5 ADD SWAP8 DUP9 DUP2 MLOAD SWAP4 DUP5 SWAP3 ADD PUSH2 0x2BB5 JUMP JUMPDEST DUP3 ADD SWAP1 PUSH1 0x20 DUP3 ADD MSTORE SUB PUSH1 0x20 DUP2 ADD DUP5 MSTORE ADD DUP3 PUSH2 0x29C8 JUMP JUMPDEST MLOAD SWAP1 KECCAK256 SWAP1 JUMP JUMPDEST PUSH1 0x20 SWAP3 SWAP2 PUSH2 0x3612 SWAP2 PUSH2 0x35CA JUMP JUMPDEST PUSH1 0x0 MSTORE PUSH1 0x6 DUP3 MSTORE PUSH1 0x40 PUSH1 0x0 KECCAK256 PUSH1 0x40 MLOAD PUSH2 0x362A DUP2 PUSH2 0x297C JUMP JUMPDEST PUSH1 0xFF PUSH1 0x1 PUSH2 0x3637 DUP5 PUSH2 0x2B10 JUMP JUMPDEST SWAP4 DUP5 DUP5 MSTORE ADD SLOAD AND ISZERO ISZERO SWAP4 DUP5 SWAP2 ADD MSTORE DUP3 PUSH2 0x364F JUMPI POP POP SWAP1 JUMP JUMPDEST SWAP1 SWAP2 POP PUSH1 0x20 DUP2 MLOAD SWAP2 ADD KECCAK256 SWAP1 PUSH1 0x20 DUP2 MLOAD SWAP2 ADD KECCAK256 EQ SWAP1 JUMP JUMPDEST DUP3 MLOAD PUSH1 0x20 DUP1 SWAP5 ADD KECCAK256 PUSH2 0x3675 PUSH2 0x2FF5 JUMP JUMPDEST DUP1 MLOAD SWAP1 DUP6 ADD KECCAK256 DUP2 SUB PUSH2 0x36AC JUMPI POP DUP3 PUSH2 0x369D SWAP2 PUSH2 0x2B52 SWAP5 PUSH1 0x40 MLOAD SWAP4 DUP3 DUP6 DUP1 SWAP5 MLOAD SWAP4 DUP5 SWAP3 ADD PUSH2 0x2BB5 JUMP JUMPDEST DUP2 ADD PUSH1 0x7 DUP2 MSTORE SUB ADD SWAP1 KECCAK256 PUSH2 0x38EC JUMP JUMPDEST PUSH2 0x36B4 PUSH2 0x3016 JUMP JUMPDEST DUP1 MLOAD SWAP1 DUP6 ADD KECCAK256 DUP2 SUB PUSH2 0x36EB JUMPI POP DUP3 PUSH2 0x36DC SWAP2 PUSH2 0x2B52 SWAP5 PUSH1 0x40 MLOAD SWAP4 DUP3 DUP6 DUP1 SWAP5 MLOAD SWAP4 DUP5 SWAP3 ADD PUSH2 0x2BB5 JUMP JUMPDEST DUP2 ADD PUSH1 0x8 DUP2 MSTORE SUB ADD SWAP1 KECCAK256 PUSH2 0x38EC JUMP JUMPDEST PUSH2 0x36F3 PUSH2 0x303F JUMP JUMPDEST DUP5 DUP2 MLOAD SWAP2 ADD KECCAK256 EQ PUSH2 0x3703 JUMPI POP POP POP JUMP JUMPDEST DUP3 PUSH2 0x371E SWAP2 PUSH2 0x2B52 SWAP5 PUSH1 0x40 MLOAD SWAP4 DUP3 DUP6 DUP1 SWAP5 MLOAD SWAP4 DUP5 SWAP3 ADD PUSH2 0x2BB5 JUMP JUMPDEST DUP2 ADD PUSH1 0x9 DUP2 MSTORE SUB ADD SWAP1 KECCAK256 PUSH2 0x38EC JUMP JUMPDEST PUSH1 0xC SLOAD PUSH1 0x1 PUSH1 0x1 PUSH1 0xA0 SHL SUB AND SWAP1 DUP2 ISZERO PUSH2 0x317B JUMPI PUSH1 0x20 SWAP2 PUSH2 0x376B SWAP2 PUSH1 0x40 MLOAD DUP1 SWAP6 DUP2 SWAP5 DUP3 SWAP4 PUSH4 0x79D615F5 PUSH1 0xE1 SHL DUP5 MSTORE PUSH1 0x40 PUSH1 0x4 DUP6 ADD MSTORE PUSH1 0x44 DUP5 ADD SWAP1 PUSH2 0x2BD8 JUMP JUMPDEST SWAP1 PUSH1 0x24 DUP4 ADD MSTORE SUB SWAP2 GAS STATICCALL SWAP1 DUP2 ISZERO PUSH2 0x37BF JUMPI PUSH1 0x0 SWAP2 PUSH2 0x3787 JUMPI POP SWAP1 JUMP JUMPDEST PUSH1 0x20 DUP2 RETURNDATASIZE PUSH1 0x20 GT PUSH2 0x37B7 JUMPI JUMPDEST DUP2 PUSH2 0x37A0 PUSH1 0x20 SWAP4 DUP4 PUSH2 0x29C8 JUMP JUMPDEST DUP2 ADD SUB SLT PUSH2 0x2EC JUMPI MLOAD SWAP1 DUP2 ISZERO ISZERO DUP3 SUB PUSH2 0x2C1 JUMPI POP SWAP1 JUMP JUMPDEST RETURNDATASIZE SWAP2 POP PUSH2 0x3793 JUMP JUMPDEST PUSH1 0x40 MLOAD RETURNDATASIZE PUSH1 0x0 DUP3 RETURNDATACOPY RETURNDATASIZE SWAP1 REVERT JUMPDEST PUSH1 0x1 PUSH1 0x1 PUSH1 0xA0 SHL SUB AND PUSH1 0x0 SWAP1 DUP2 MSTORE PUSH1 0x1 PUSH1 0x20 MSTORE PUSH1 0x40 DUP2 KECCAK256 DUP1 SLOAD SWAP1 DUP2 ISZERO SWAP1 DUP2 ISZERO PUSH2 0x3814 JUMPI JUMPDEST POP PUSH2 0x3259 JUMPI DUP2 MSTORE PUSH1 0x2 PUSH1 0x20 MSTORE PUSH1 0xFF PUSH1 0x40 DUP3 KECCAK256 SLOAD AND SWAP1 PUSH1 0x5 DUP3 LT ISZERO PUSH2 0x3245 JUMPI POP PUSH1 0x3 EQ SWAP1 JUMP JUMPDEST PUSH1 0xFF SWAP2 POP PUSH1 0x1 ADD SLOAD AND ISZERO CODESIZE PUSH2 0x37EF JUMP JUMPDEST DUP3 MLOAD PUSH1 0x20 DUP1 SWAP5 ADD KECCAK256 PUSH2 0x3834 PUSH2 0x2FF5 JUMP JUMPDEST DUP1 MLOAD SWAP1 DUP6 ADD KECCAK256 DUP2 SUB PUSH2 0x386B JUMPI POP DUP3 PUSH2 0x385C SWAP2 PUSH2 0x2B52 SWAP5 PUSH1 0x40 MLOAD SWAP4 DUP3 DUP6 DUP1 SWAP5 MLOAD SWAP4 DUP5 SWAP3 ADD PUSH2 0x2BB5 JUMP JUMPDEST DUP2 ADD PUSH1 0x7 DUP2 MSTORE SUB ADD SWAP1 KECCAK256 PUSH2 0x2EA3 JUMP JUMPDEST PUSH2 0x3873 PUSH2 0x3016 JUMP JUMPDEST DUP1 MLOAD SWAP1 DUP6 ADD KECCAK256 DUP2 SUB PUSH2 0x38AA JUMPI POP DUP3 PUSH2 0x389B SWAP2 PUSH2 0x2B52 SWAP5 PUSH1 0x40 MLOAD SWAP4 DUP3 DUP6 DUP1 SWAP5 MLOAD SWAP4 DUP5 SWAP3 ADD PUSH2 0x2BB5 JUMP JUMPDEST DUP2 ADD PUSH1 0x8 DUP2 MSTORE SUB ADD SWAP1 KECCAK256 PUSH2 0x2EA3 JUMP JUMPDEST PUSH2 0x38B2 PUSH2 0x303F JUMP JUMPDEST DUP5 DUP2 MLOAD SWAP2 ADD KECCAK256 EQ PUSH2 0x38C2 JUMPI POP POP POP JUMP JUMPDEST DUP3 PUSH2 0x38DD SWAP2 PUSH2 0x2B52 SWAP5 PUSH1 0x40 MLOAD SWAP4 DUP3 DUP6 DUP1 SWAP5 MLOAD SWAP4 DUP5 SWAP3 ADD PUSH2 0x2BB5 JUMP JUMPDEST DUP2 ADD PUSH1 0x9 DUP2 MSTORE SUB ADD SWAP1 KECCAK256 PUSH2 0x2EA3 JUMP JUMPDEST PUSH1 0x0 JUMPDEST DUP2 SLOAD SWAP1 DUP2 DUP2 LT ISZERO PUSH2 0x35AD JUMPI DUP4 SWAP2 PUSH2 0x3906 DUP3 DUP6 PUSH2 0x2CDE JUMP JUMPDEST SWAP6 SWAP1 SLOAD PUSH1 0x3 SWAP7 DUP8 SHL SHR EQ PUSH2 0x3920 JUMPI POP SWAP1 SWAP3 POP PUSH1 0x1 ADD PUSH2 0x38EF JUMP JUMPDEST PUSH1 0x0 NOT SWAP3 POP DUP3 DUP2 ADD SWAP1 DUP2 GT PUSH2 0x2EEF JUMPI PUSH2 0x2EC5 PUSH2 0x393F PUSH2 0x394C SWAP3 DUP7 PUSH2 0x2CDE JUMP JUMPDEST SWAP1 SLOAD SWAP1 DUP8 SHL SHR SWAP3 DUP6 PUSH2 0x2CDE JUMP JUMPDEST SWAP1 SSTORE DUP2 SLOAD DUP1 ISZERO PUSH2 0x3971 JUMPI DUP2 ADD SWAP3 PUSH2 0x3963 DUP5 DUP5 PUSH2 0x2CDE JUMP JUMPDEST DUP2 SWAP4 SWAP2 SLOAD SWAP3 SHL SHL NOT AND SWAP1 SSTORE SSTORE JUMP JUMPDEST PUSH4 0x4E487B71 PUSH1 0xE0 SHL PUSH1 0x0 MSTORE PUSH1 0x31 PUSH1 0x4 MSTORE PUSH1 0x24 PUSH1 0x0 REVERT JUMPDEST SWAP1 PUSH2 0x39AE JUMPI POP DUP1 MLOAD ISZERO PUSH2 0x399C JUMPI DUP1 MLOAD SWAP1 PUSH1 0x20 ADD REVERT JUMPDEST PUSH1 0x40 MLOAD PUSH4 0xA12F521 PUSH1 0xE1 SHL DUP2 MSTORE PUSH1 0x4 SWAP1 REVERT JUMPDEST DUP2 MLOAD ISZERO DUP1 PUSH2 0x39E1 JUMPI JUMPDEST PUSH2 0x39BF JUMPI POP SWAP1 JUMP JUMPDEST PUSH1 0x40 MLOAD PUSH4 0x9996B315 PUSH1 0xE0 SHL DUP2 MSTORE PUSH1 0x1 PUSH1 0x1 PUSH1 0xA0 SHL SUB SWAP1 SWAP2 AND PUSH1 0x4 DUP3 ADD MSTORE PUSH1 0x24 SWAP1 REVERT JUMPDEST POP DUP1 EXTCODESIZE ISZERO PUSH2 0x39B7 JUMP INVALID 0x2A 0x27 CREATE LOG2 0xE 0x4D DELEGATECALL PUSH20 0x8F3A8E2449B014D439E7CE0A97EE5860771C25CB 0xAF LOG1 0xCF 0xEB LOG2 PUSH5 0x6970667358 0x22 SLT KECCAK256 PUSH7 0x63E6D836F7C9A7 PUSH24 0x281DCB8E766571329BC9FB6F8349D8AA0DA8F6B7BB3F1164 PUSH20 0x6F6C634300081700330000000000000000000000 "},"methodIdentifiers":{"UPGRADE_INTERFACE_VERSION()":"ad3cb1cc","addMember(address,bytes32)":"49df7208","admin()":"f851a440","adminsByRecord(string,uint256)":"e965bfb7","changeRole(string,address,string)":"daa9dc23","deactivateWallet(address)":"0b3ffd1d","getAllUsers()":"e2842d79","getHealthRecordCore()":"e94ed257","getRecordAdmins(string)":"3dd1e8fc","getRecordOwners(string)":"1a95aca5","getRecordRoleStats(string)":"41d8bde3","getRecordViewers(string)":"510b3003","getRecordsByUser(bytes32)":"6544b05b","getRoleDetails(string,address)":"eb2bbf25","getRoleDetailsByUser(string,bytes32)":"ee4e5828","getRoleGranter(string,bytes32)":"679084e9","getTotalRoles()":"4b6feb7c","getTotalUsers()":"9be572f6","getUserForWallet(address)":"00b0c809","getUserStatus(bytes32)":"f29e007b","getWalletsForUser(bytes32)":"d12a7768","grantRole(string,address,string)":"bb20b172","hasActiveRole(string,address)":"1435b558","hasRole(string,address,string)":"cabdd23f","healthRecordCore()":"562c788e","initialize()":"8129fc1c","initializeRecordRole(string,address,string)":"3575c391","isActiveMember(address)":"45ecd02f","isActiveSubject(string,bytes32)":"f3ac2bea","isOwnerOrAdmin(string,address)":"a0ca13c3","isVerifiedMember(address)":"cb261a03","isVerifiedProvider(address)":"259ed80e","ownersByRecord(string,uint256)":"970ee5b9","proxiableUUID()":"52d1902d","reactivateWallet(address)":"bb0f86d5","recordRoles(bytes32)":"33105592","recordsByUser(bytes32,uint256)":"fa7a6bcc","revokeRole(string,address)":"731f21a0","roleGrantedBy(bytes32)":"cda06c6e","setHealthRecordCore(address)":"c7155823","setUserStatus(bytes32,uint8)":"96207e02","totalRoles()":"790e118c","totalUsers()":"bff1f9e1","transferAdmin(address)":"75829def","upgradeToAndCall(address,bytes)":"4f1ef286","userList(uint256)":"9f4216e8","userStatus(bytes32)":"6b4bed97","userWallets(bytes32,uint256)":"9443cd80","viewersByRecord(string,uint256)":"b55aefcc","voluntarilyLeaveOwnership(string)":"ed8d7b37","wallets(address)":"89b08f11"}},"storageLayout":{"storage":[{"astId":1218,"contract":"contracts/MemberRoleManager.sol:MemberRoleManager","label":"admin","offset":0,"slot":"0","type":"t_address"},{"astId":1413,"contract":"contracts/MemberRoleManager.sol:MemberRoleManager","label":"wallets","offset":0,"slot":"1","type":"t_mapping(t_address,t_struct(UserInfo)1408_storage)"},{"astId":1418,"contract":"contracts/MemberRoleManager.sol:MemberRoleManager","label":"userStatus","offset":0,"slot":"2","type":"t_mapping(t_bytes32,t_enum(MemberStatus)1373)"},{"astId":1423,"contract":"contracts/MemberRoleManager.sol:MemberRoleManager","label":"userWallets","offset":0,"slot":"3","type":"t_mapping(t_bytes32,t_array(t_address)dyn_storage)"},{"astId":1426,"contract":"contracts/MemberRoleManager.sol:MemberRoleManager","label":"userList","offset":0,"slot":"4","type":"t_array(t_bytes32)dyn_storage"},{"astId":1428,"contract":"contracts/MemberRoleManager.sol:MemberRoleManager","label":"totalUsers","offset":0,"slot":"5","type":"t_uint256"},{"astId":1940,"contract":"contracts/MemberRoleManager.sol:MemberRoleManager","label":"recordRoles","offset":0,"slot":"6","type":"t_mapping(t_bytes32,t_struct(RecordRole)1935_storage)"},{"astId":1945,"contract":"contracts/MemberRoleManager.sol:MemberRoleManager","label":"ownersByRecord","offset":0,"slot":"7","type":"t_mapping(t_string_memory_ptr,t_array(t_bytes32)dyn_storage)"},{"astId":1950,"contract":"contracts/MemberRoleManager.sol:MemberRoleManager","label":"adminsByRecord","offset":0,"slot":"8","type":"t_mapping(t_string_memory_ptr,t_array(t_bytes32)dyn_storage)"},{"astId":1955,"contract":"contracts/MemberRoleManager.sol:MemberRoleManager","label":"viewersByRecord","offset":0,"slot":"9","type":"t_mapping(t_string_memory_ptr,t_array(t_bytes32)dyn_storage)"},{"astId":1960,"contract":"contracts/MemberRoleManager.sol:MemberRoleManager","label":"recordsByUser","offset":0,"slot":"10","type":"t_mapping(t_bytes32,t_array(t_string_storage)dyn_storage)"},{"astId":1962,"contract":"contracts/MemberRoleManager.sol:MemberRoleManager","label":"totalRoles","offset":0,"slot":"11","type":"t_uint256"},{"astId":1965,"contract":"contracts/MemberRoleManager.sol:MemberRoleManager","label":"healthRecordCore","offset":0,"slot":"12","type":"t_contract(HealthRecordCoreInterface)1209"},{"astId":1969,"contract":"contracts/MemberRoleManager.sol:MemberRoleManager","label":"roleGrantedBy","offset":0,"slot":"13","type":"t_mapping(t_bytes32,t_bytes32)"}],"types":{"t_address":{"encoding":"inplace","label":"address","numberOfBytes":"20"},"t_array(t_address)dyn_storage":{"base":"t_address","encoding":"dynamic_array","label":"address[]","numberOfBytes":"32"},"t_array(t_bytes32)dyn_storage":{"base":"t_bytes32","encoding":"dynamic_array","label":"bytes32[]","numberOfBytes":"32"},"t_array(t_string_storage)dyn_storage":{"base":"t_string_storage","encoding":"dynamic_array","label":"string[]","numberOfBytes":"32"},"t_bool":{"encoding":"inplace","label":"bool","numberOfBytes":"1"},"t_bytes32":{"encoding":"inplace","label":"bytes32","numberOfBytes":"32"},"t_contract(HealthRecordCoreInterface)1209":{"encoding":"inplace","label":"contract HealthRecordCoreInterface","numberOfBytes":"20"},"t_enum(MemberStatus)1373":{"encoding":"inplace","label":"enum MemberRoleManager.MemberStatus","numberOfBytes":"1"},"t_mapping(t_address,t_struct(UserInfo)1408_storage)":{"encoding":"mapping","key":"t_address","label":"mapping(address => struct MemberRoleManager.UserInfo)","numberOfBytes":"32","value":"t_struct(UserInfo)1408_storage"},"t_mapping(t_bytes32,t_array(t_address)dyn_storage)":{"encoding":"mapping","key":"t_bytes32","label":"mapping(bytes32 => address[])","numberOfBytes":"32","value":"t_array(t_address)dyn_storage"},"t_mapping(t_bytes32,t_array(t_string_storage)dyn_storage)":{"encoding":"mapping","key":"t_bytes32","label":"mapping(bytes32 => string[])","numberOfBytes":"32","value":"t_array(t_string_storage)dyn_storage"},"t_mapping(t_bytes32,t_bytes32)":{"encoding":"mapping","key":"t_bytes32","label":"mapping(bytes32 => bytes32)","numberOfBytes":"32","value":"t_bytes32"},"t_mapping(t_bytes32,t_enum(MemberStatus)1373)":{"encoding":"mapping","key":"t_bytes32","label":"mapping(bytes32 => enum MemberRoleManager.MemberStatus)","numberOfBytes":"32","value":"t_enum(MemberStatus)1373"},"t_mapping(t_bytes32,t_struct(RecordRole)1935_storage)":{"encoding":"mapping","key":"t_bytes32","label":"mapping(bytes32 => struct MemberRoleManager.RecordRole)","numberOfBytes":"32","value":"t_struct(RecordRole)1935_storage"},"t_mapping(t_string_memory_ptr,t_array(t_bytes32)dyn_storage)":{"encoding":"mapping","key":"t_string_memory_ptr","label":"mapping(string => bytes32[])","numberOfBytes":"32","value":"t_array(t_bytes32)dyn_storage"},"t_string_memory_ptr":{"encoding":"bytes","label":"string","numberOfBytes":"32"},"t_string_storage":{"encoding":"bytes","label":"string","numberOfBytes":"32"},"t_struct(RecordRole)1935_storage":{"encoding":"inplace","label":"struct MemberRoleManager.RecordRole","members":[{"astId":1932,"contract":"contracts/MemberRoleManager.sol:MemberRoleManager","label":"role","offset":0,"slot":"0","type":"t_string_storage"},{"astId":1934,"contract":"contracts/MemberRoleManager.sol:MemberRoleManager","label":"isActive","offset":0,"slot":"1","type":"t_bool"}],"numberOfBytes":"64"},"t_struct(UserInfo)1408_storage":{"encoding":"inplace","label":"struct MemberRoleManager.UserInfo","members":[{"astId":1405,"contract":"contracts/MemberRoleManager.sol:MemberRoleManager","label":"userIdHash","offset":0,"slot":"0","type":"t_bytes32"},{"astId":1407,"contract":"contracts/MemberRoleManager.sol:MemberRoleManager","label":"isWalletActive","offset":0,"slot":"1","type":"t_bool"}],"numberOfBytes":"64"},"t_uint256":{"encoding":"inplace","label":"uint256","numberOfBytes":"32"}}}}}}