{"contracts/HealthRecordVerification.sol":{"HealthRecordVerification":{"abi":[{"inputs":[],"stateMutability":"nonpayable","type":"constructor"},{"anonymous":false,"inputs":[{"indexed":true,"internalType":"string","name":"permissionHash","type":"string"},{"indexed":true,"internalType":"address","name":"sharer","type":"address"},{"indexed":true,"internalType":"address","name":"receiver","type":"address"},{"indexed":false,"internalType":"string","name":"recordId","type":"string"},{"indexed":false,"internalType":"uint256","name":"timestamp","type":"uint256"}],"name":"AccessGranted","type":"event"},{"anonymous":false,"inputs":[{"indexed":true,"internalType":"string","name":"permissionHash","type":"string"},{"indexed":true,"internalType":"address","name":"sharer","type":"address"},{"indexed":true,"internalType":"address","name":"receiver","type":"address"},{"indexed":false,"internalType":"string","name":"recordId","type":"string"},{"indexed":false,"internalType":"uint256","name":"timestamp","type":"uint256"}],"name":"AccessRevoked","type":"event"},{"anonymous":false,"inputs":[{"indexed":true,"internalType":"address","name":"oldAdmin","type":"address"},{"indexed":true,"internalType":"address","name":"newAdmin","type":"address"},{"indexed":false,"internalType":"uint256","name":"timestamp","type":"uint256"}],"name":"AdminTransferred","type":"event"},{"anonymous":false,"inputs":[{"indexed":true,"internalType":"string","name":"recordHash","type":"string"},{"indexed":true,"internalType":"address","name":"reviewer","type":"address"},{"indexed":false,"internalType":"enum HealthRecordVerification.DisputeSeverity","name":"oldSeverity","type":"uint8"},{"indexed":false,"internalType":"enum HealthRecordVerification.DisputeSeverity","name":"newSeverity","type":"uint8"},{"indexed":false,"internalType":"enum HealthRecordVerification.DisputeCulpability","name":"oldCulpability","type":"uint8"},{"indexed":false,"internalType":"enum HealthRecordVerification.DisputeCulpability","name":"newCulpability","type":"uint8"},{"indexed":false,"internalType":"uint256","name":"timestamp","type":"uint256"}],"name":"DisputeModification","type":"event"},{"anonymous":false,"inputs":[{"indexed":true,"internalType":"string","name":"recordHash","type":"string"},{"indexed":true,"internalType":"address","name":"reactor","type":"address"},{"indexed":true,"internalType":"address","name":"reviewer","type":"address"},{"indexed":false,"internalType":"bool","name":"supportsDispute","type":"bool"},{"indexed":false,"internalType":"uint256","name":"timestamp","type":"uint256"}],"name":"DisputeReaction","type":"event"},{"anonymous":false,"inputs":[{"indexed":true,"internalType":"address","name":"userWalletAddress","type":"address"},{"indexed":true,"internalType":"bytes32","name":"userIdHash","type":"bytes32"},{"indexed":false,"internalType":"uint256","name":"timestamp","type":"uint256"}],"name":"MemberRegistered","type":"event"},{"anonymous":false,"inputs":[{"indexed":true,"internalType":"address","name":"userAddress","type":"address"},{"indexed":false,"internalType":"enum HealthRecordVerification.MemberStatus","name":"oldStatus","type":"uint8"},{"indexed":false,"internalType":"enum HealthRecordVerification.MemberStatus","name":"newStatus","type":"uint8"},{"indexed":true,"internalType":"address","name":"changedBy","type":"address"},{"indexed":false,"internalType":"uint256","name":"timestamp","type":"uint256"}],"name":"MemberStatusChanged","type":"event"},{"anonymous":false,"inputs":[{"indexed":true,"internalType":"string","name":"recordId","type":"string"},{"indexed":true,"internalType":"address","name":"owner","type":"address"},{"indexed":false,"internalType":"uint256","name":"timestamp","type":"uint256"}],"name":"OwnerVoluntarilyLeft","type":"event"},{"anonymous":false,"inputs":[{"indexed":true,"internalType":"string","name":"recordId","type":"string"},{"indexed":true,"internalType":"string","name":"recordHash","type":"string"},{"indexed":true,"internalType":"address","name":"subject","type":"address"},{"indexed":false,"internalType":"address","name":"createdBy","type":"address"},{"indexed":false,"internalType":"uint256","name":"timestamp","type":"uint256"}],"name":"RecordAnchored","type":"event"},{"anonymous":false,"inputs":[{"indexed":true,"internalType":"string","name":"recordId","type":"string"},{"indexed":true,"internalType":"string","name":"recordHash","type":"string"},{"indexed":true,"internalType":"address","name":"reviewer","type":"address"},{"indexed":false,"internalType":"enum HealthRecordVerification.ReviewType","name":"reviewType","type":"uint8"},{"indexed":false,"internalType":"enum HealthRecordVerification.DisputeSeverity","name":"severity","type":"uint8"},{"indexed":false,"internalType":"enum HealthRecordVerification.DisputeCulpability","name":"culpability","type":"uint8"},{"indexed":false,"internalType":"uint256","name":"timestamp","type":"uint256"}],"name":"RecordReviewed","type":"event"},{"anonymous":false,"inputs":[{"indexed":true,"internalType":"string","name":"recordHash","type":"string"},{"indexed":true,"internalType":"address","name":"reviewer","type":"address"},{"indexed":false,"internalType":"enum HealthRecordVerification.ReviewType","name":"reviewType","type":"uint8"},{"indexed":false,"internalType":"uint256","name":"timestamp","type":"uint256"}],"name":"ReviewRetracted","type":"event"},{"anonymous":false,"inputs":[{"indexed":true,"internalType":"string","name":"recordId","type":"string"},{"indexed":true,"internalType":"address","name":"user","type":"address"},{"indexed":false,"internalType":"string","name":"oldRole","type":"string"},{"indexed":false,"internalType":"string","name":"newRole","type":"string"},{"indexed":true,"internalType":"address","name":"changedBy","type":"address"},{"indexed":false,"internalType":"uint256","name":"timestamp","type":"uint256"}],"name":"RoleChanged","type":"event"},{"anonymous":false,"inputs":[{"indexed":true,"internalType":"string","name":"recordId","type":"string"},{"indexed":true,"internalType":"address","name":"user","type":"address"},{"indexed":false,"internalType":"string","name":"role","type":"string"},{"indexed":true,"internalType":"address","name":"grantedBy","type":"address"},{"indexed":false,"internalType":"uint256","name":"timestamp","type":"uint256"}],"name":"RoleGranted","type":"event"},{"anonymous":false,"inputs":[{"indexed":true,"internalType":"string","name":"recordId","type":"string"},{"indexed":true,"internalType":"address","name":"user","type":"address"},{"indexed":false,"internalType":"string","name":"role","type":"string"},{"indexed":true,"internalType":"address","name":"revokedBy","type":"address"},{"indexed":false,"internalType":"uint256","name":"timestamp","type":"uint256"}],"name":"RoleRevoked","type":"event"},{"inputs":[{"internalType":"string","name":"","type":"string"}],"name":"accessPermissions","outputs":[{"internalType":"string","name":"permissionHash","type":"string"},{"internalType":"address","name":"sharer","type":"address"},{"internalType":"address","name":"receiver","type":"address"},{"internalType":"string","name":"recordId","type":"string"},{"internalType":"uint256","name":"grantedAt","type":"uint256"},{"internalType":"uint256","name":"revokedAt","type":"uint256"},{"internalType":"bool","name":"isActive","type":"bool"},{"internalType":"bool","name":"exists","type":"bool"}],"stateMutability":"view","type":"function"},{"inputs":[{"internalType":"address","name":"userWallet","type":"address"},{"internalType":"bytes32","name":"userIdHash","type":"bytes32"}],"name":"addMember","outputs":[],"stateMutability":"nonpayable","type":"function"},{"inputs":[],"name":"admin","outputs":[{"internalType":"address","name":"","type":"address"}],"stateMutability":"view","type":"function"},{"inputs":[{"internalType":"string","name":"","type":"string"},{"internalType":"uint256","name":"","type":"uint256"}],"name":"adminsByRecord","outputs":[{"internalType":"address","name":"","type":"address"}],"stateMutability":"view","type":"function"},{"inputs":[{"internalType":"string","name":"recordHash","type":"string"},{"internalType":"string","name":"recordId","type":"string"},{"internalType":"address","name":"subject","type":"address"}],"name":"anchorRecord","outputs":[],"stateMutability":"nonpayable","type":"function"},{"inputs":[{"internalType":"string","name":"","type":"string"}],"name":"anchoredRecords","outputs":[{"internalType":"string","name":"recordHash","type":"string"},{"internalType":"string","name":"recordId","type":"string"},{"internalType":"address","name":"subject","type":"address"},{"internalType":"uint256","name":"createdAt","type":"uint256"},{"internalType":"address","name":"createdBy","type":"address"},{"internalType":"bool","name":"exists","type":"bool"}],"stateMutability":"view","type":"function"},{"inputs":[{"internalType":"string","name":"recordId","type":"string"},{"internalType":"address","name":"user","type":"address"},{"internalType":"string","name":"newRole","type":"string"}],"name":"changeRole","outputs":[],"stateMutability":"nonpayable","type":"function"},{"inputs":[{"internalType":"string","name":"permissionHash","type":"string"}],"name":"checkAccess","outputs":[{"internalType":"bool","name":"isActive","type":"bool"},{"internalType":"address","name":"sharer","type":"address"},{"internalType":"address","name":"receiver","type":"address"},{"internalType":"string","name":"recordId","type":"string"},{"internalType":"uint256","name":"grantedAt","type":"uint256"},{"internalType":"uint256","name":"revokedAt","type":"uint256"}],"stateMutability":"view","type":"function"},{"inputs":[{"internalType":"string","name":"","type":"string"},{"internalType":"address","name":"","type":"address"},{"internalType":"uint256","name":"","type":"uint256"}],"name":"disputeReactions","outputs":[{"internalType":"address","name":"reactor","type":"address"},{"internalType":"bool","name":"supportsDispute","type":"bool"},{"internalType":"uint256","name":"timestamp","type":"uint256"}],"stateMutability":"view","type":"function"},{"inputs":[{"internalType":"string","name":"recordHash","type":"string"},{"internalType":"uint8","name":"severity","type":"uint8"},{"internalType":"uint8","name":"culpability","type":"uint8"},{"internalType":"string","name":"notes","type":"string"}],"name":"disputeRecord","outputs":[],"stateMutability":"nonpayable","type":"function"},{"inputs":[{"internalType":"address","name":"","type":"address"},{"internalType":"uint256","name":"","type":"uint256"}],"name":"disputesByUser","outputs":[{"internalType":"string","name":"","type":"string"}],"stateMutability":"view","type":"function"},{"inputs":[{"internalType":"string","name":"recordHash","type":"string"}],"name":"getAnchoredRecord","outputs":[{"internalType":"string","name":"recordId","type":"string"},{"internalType":"address","name":"subject","type":"address"},{"internalType":"uint256","name":"createdAt","type":"uint256"},{"internalType":"address","name":"createdBy","type":"address"},{"internalType":"bool","name":"exists","type":"bool"}],"stateMutability":"view","type":"function"},{"inputs":[{"internalType":"string","name":"recordHash","type":"string"},{"internalType":"address","name":"disputer","type":"address"}],"name":"getDisputeReactionStats","outputs":[{"internalType":"uint256","name":"supportsCount","type":"uint256"},{"internalType":"uint256","name":"opposesCount","type":"uint256"}],"stateMutability":"view","type":"function"},{"inputs":[{"internalType":"string","name":"recordHash","type":"string"},{"internalType":"address","name":"disputer","type":"address"}],"name":"getDisputeReactions","outputs":[{"components":[{"internalType":"address","name":"reactor","type":"address"},{"internalType":"bool","name":"supportsDispute","type":"bool"},{"internalType":"uint256","name":"timestamp","type":"uint256"}],"internalType":"struct HealthRecordVerification.Reaction[]","name":"","type":"tuple[]"}],"stateMutability":"view","type":"function"},{"inputs":[{"internalType":"string","name":"recordId","type":"string"}],"name":"getHashesByRecordId","outputs":[{"internalType":"string[]","name":"","type":"string[]"}],"stateMutability":"view","type":"function"},{"inputs":[{"internalType":"address","name":"user","type":"address"}],"name":"getMember","outputs":[{"internalType":"bytes32","name":"userIdHash","type":"bytes32"},{"internalType":"enum HealthRecordVerification.MemberStatus","name":"status","type":"uint8"},{"internalType":"uint256","name":"joinedAt","type":"uint256"}],"stateMutability":"view","type":"function"},{"inputs":[{"internalType":"address","name":"receiver","type":"address"}],"name":"getPermissionsByReceiver","outputs":[{"internalType":"string[]","name":"","type":"string[]"}],"stateMutability":"view","type":"function"},{"inputs":[{"internalType":"address","name":"sharer","type":"address"}],"name":"getPermissionsBySharer","outputs":[{"internalType":"string[]","name":"","type":"string[]"}],"stateMutability":"view","type":"function"},{"inputs":[{"internalType":"string","name":"recordId","type":"string"}],"name":"getRecordAdmins","outputs":[{"internalType":"address[]","name":"","type":"address[]"}],"stateMutability":"view","type":"function"},{"inputs":[{"internalType":"string","name":"recordId","type":"string"}],"name":"getRecordOwners","outputs":[{"internalType":"address[]","name":"","type":"address[]"}],"stateMutability":"view","type":"function"},{"inputs":[{"internalType":"string","name":"recordId","type":"string"}],"name":"getRecordRoleStats","outputs":[{"internalType":"uint256","name":"ownerCount","type":"uint256"},{"internalType":"uint256","name":"adminCount","type":"uint256"},{"internalType":"uint256","name":"viewerCount","type":"uint256"}],"stateMutability":"view","type":"function"},{"inputs":[{"internalType":"string","name":"recordHash","type":"string"}],"name":"getRecordSubject","outputs":[{"internalType":"address","name":"","type":"address"}],"stateMutability":"view","type":"function"},{"inputs":[{"internalType":"string","name":"recordId","type":"string"}],"name":"getRecordViewers","outputs":[{"internalType":"address[]","name":"","type":"address[]"}],"stateMutability":"view","type":"function"},{"inputs":[{"internalType":"address","name":"subject","type":"address"}],"name":"getRecordsAboutSubject","outputs":[{"internalType":"string[]","name":"","type":"string[]"}],"stateMutability":"view","type":"function"},{"inputs":[{"internalType":"address","name":"user","type":"address"}],"name":"getRecordsByUser","outputs":[{"internalType":"string[]","name":"","type":"string[]"}],"stateMutability":"view","type":"function"},{"inputs":[{"internalType":"string","name":"recordHash","type":"string"}],"name":"getReviewStats","outputs":[{"internalType":"uint256","name":"activeVerifications","type":"uint256"},{"internalType":"uint256","name":"activeDisputes","type":"uint256"},{"internalType":"uint256","name":"retractedCount","type":"uint256"}],"stateMutability":"view","type":"function"},{"inputs":[{"internalType":"string","name":"recordHash","type":"string"}],"name":"getReviews","outputs":[{"components":[{"internalType":"address","name":"reviewer","type":"address"},{"internalType":"enum HealthRecordVerification.ReviewType","name":"reviewType","type":"uint8"},{"internalType":"enum HealthRecordVerification.DisputeSeverity","name":"severity","type":"uint8"},{"internalType":"enum HealthRecordVerification.DisputeCulpability","name":"culpability","type":"uint8"},{"internalType":"uint256","name":"timestamp","type":"uint256"},{"internalType":"string","name":"notes","type":"string"},{"internalType":"bool","name":"isActive","type":"bool"}],"internalType":"struct HealthRecordVerification.Review[]","name":"","type":"tuple[]"}],"stateMutability":"view","type":"function"},{"inputs":[{"internalType":"string","name":"recordId","type":"string"},{"internalType":"address","name":"user","type":"address"}],"name":"getRoleDetails","outputs":[{"internalType":"string","name":"role","type":"string"},{"internalType":"uint256","name":"grantedAt","type":"uint256"},{"internalType":"uint256","name":"lastModified","type":"uint256"},{"internalType":"address","name":"grantedBy","type":"address"},{"internalType":"bool","name":"isActive","type":"bool"}],"stateMutability":"view","type":"function"},{"inputs":[{"internalType":"address","name":"sharer","type":"address"}],"name":"getSharerStats","outputs":[{"internalType":"uint256","name":"total","type":"uint256"},{"internalType":"uint256","name":"active","type":"uint256"}],"stateMutability":"view","type":"function"},{"inputs":[],"name":"getTotalPermissions","outputs":[{"internalType":"uint256","name":"","type":"uint256"}],"stateMutability":"view","type":"function"},{"inputs":[],"name":"getTotalRoles","outputs":[{"internalType":"uint256","name":"","type":"uint256"}],"stateMutability":"view","type":"function"},{"inputs":[],"name":"getTotalStats","outputs":[{"internalType":"uint256","name":"totalAnchored","type":"uint256"},{"internalType":"uint256","name":"totalReviewCount","type":"uint256"}],"stateMutability":"view","type":"function"},{"inputs":[{"internalType":"address","name":"user","type":"address"}],"name":"getUserAttestationHistory","outputs":[{"internalType":"uint256","name":"totalVerifications","type":"uint256"},{"internalType":"uint256","name":"totalDisputes","type":"uint256"}],"stateMutability":"view","type":"function"},{"inputs":[{"internalType":"address","name":"user","type":"address"}],"name":"getUserDisputes","outputs":[{"internalType":"string[]","name":"","type":"string[]"}],"stateMutability":"view","type":"function"},{"inputs":[{"internalType":"string","name":"recordHash","type":"string"},{"internalType":"address","name":"user","type":"address"}],"name":"getUserReview","outputs":[{"internalType":"bool","name":"exists","type":"bool"},{"internalType":"enum HealthRecordVerification.ReviewType","name":"reviewType","type":"uint8"},{"internalType":"uint256","name":"timestamp","type":"uint256"},{"internalType":"string","name":"notes","type":"string"},{"internalType":"bool","name":"isActive","type":"bool"}],"stateMutability":"view","type":"function"},{"inputs":[{"internalType":"address","name":"user","type":"address"}],"name":"getUserVerifications","outputs":[{"internalType":"string[]","name":"","type":"string[]"}],"stateMutability":"view","type":"function"},{"inputs":[{"internalType":"bytes32","name":"userIdHash","type":"bytes32"}],"name":"getWalletByUserIdHash","outputs":[{"internalType":"address","name":"","type":"address"}],"stateMutability":"view","type":"function"},{"inputs":[{"internalType":"string","name":"permissionHash","type":"string"},{"internalType":"string","name":"recordId","type":"string"},{"internalType":"address","name":"receiver","type":"address"}],"name":"grantAccess","outputs":[],"stateMutability":"nonpayable","type":"function"},{"inputs":[{"internalType":"string","name":"recordId","type":"string"},{"internalType":"address","name":"user","type":"address"},{"internalType":"string","name":"role","type":"string"}],"name":"grantRole","outputs":[],"stateMutability":"nonpayable","type":"function"},{"inputs":[{"internalType":"string","name":"","type":"string"},{"internalType":"address","name":"","type":"address"},{"internalType":"address","name":"","type":"address"}],"name":"hasReactedToDispute","outputs":[{"internalType":"bool","name":"","type":"bool"}],"stateMutability":"view","type":"function"},{"inputs":[{"internalType":"string","name":"","type":"string"},{"internalType":"address","name":"","type":"address"}],"name":"hasReviewed","outputs":[{"internalType":"bool","name":"","type":"bool"}],"stateMutability":"view","type":"function"},{"inputs":[{"internalType":"string","name":"recordId","type":"string"},{"internalType":"address","name":"user","type":"address"},{"internalType":"string","name":"role","type":"string"}],"name":"hasRole","outputs":[{"internalType":"bool","name":"","type":"bool"}],"stateMutability":"view","type":"function"},{"inputs":[{"internalType":"string","name":"recordId","type":"string"},{"internalType":"address","name":"firstAdmin","type":"address"}],"name":"initializeRecordRole","outputs":[],"stateMutability":"nonpayable","type":"function"},{"inputs":[{"internalType":"address","name":"user","type":"address"}],"name":"isActiveMember","outputs":[{"internalType":"bool","name":"","type":"bool"}],"stateMutability":"view","type":"function"},{"inputs":[{"internalType":"string","name":"recordId","type":"string"},{"internalType":"address","name":"user","type":"address"}],"name":"isOwnerOrAdmin","outputs":[{"internalType":"bool","name":"","type":"bool"}],"stateMutability":"view","type":"function"},{"inputs":[{"internalType":"string","name":"recordHash","type":"string"},{"internalType":"address","name":"user","type":"address"}],"name":"isSubject","outputs":[{"internalType":"bool","name":"","type":"bool"}],"stateMutability":"view","type":"function"},{"inputs":[{"internalType":"address","name":"","type":"address"}],"name":"members","outputs":[{"internalType":"address","name":"userWalletAddress","type":"address"},{"internalType":"bytes32","name":"userIdhash","type":"bytes32"},{"internalType":"enum HealthRecordVerification.MemberStatus","name":"status","type":"uint8"},{"internalType":"uint256","name":"joinedAt","type":"uint256"}],"stateMutability":"view","type":"function"},{"inputs":[{"internalType":"string","name":"recordHash","type":"string"},{"internalType":"uint8","name":"newSeverity","type":"uint8"},{"internalType":"uint8","name":"newCulpability","type":"uint8"}],"name":"modifyDispute","outputs":[],"stateMutability":"nonpayable","type":"function"},{"inputs":[{"internalType":"string","name":"","type":"string"},{"internalType":"uint256","name":"","type":"uint256"}],"name":"ownersByRecord","outputs":[{"internalType":"address","name":"","type":"address"}],"stateMutability":"view","type":"function"},{"inputs":[{"internalType":"address","name":"","type":"address"},{"internalType":"uint256","name":"","type":"uint256"}],"name":"permissionsByReceiver","outputs":[{"internalType":"string","name":"","type":"string"}],"stateMutability":"view","type":"function"},{"inputs":[{"internalType":"address","name":"","type":"address"},{"internalType":"uint256","name":"","type":"uint256"}],"name":"permissionsBySharer","outputs":[{"internalType":"string","name":"","type":"string"}],"stateMutability":"view","type":"function"},{"inputs":[{"internalType":"string","name":"recordHash","type":"string"},{"internalType":"address","name":"disputer","type":"address"},{"internalType":"bool","name":"supportsDispute","type":"bool"}],"name":"reactToDispute","outputs":[],"stateMutability":"nonpayable","type":"function"},{"inputs":[{"internalType":"string","name":"","type":"string"},{"internalType":"uint256","name":"","type":"uint256"}],"name":"recordHashesByRecordId","outputs":[{"internalType":"string","name":"","type":"string"}],"stateMutability":"view","type":"function"},{"inputs":[{"internalType":"string","name":"","type":"string"},{"internalType":"uint256","name":"","type":"uint256"}],"name":"recordReviews","outputs":[{"internalType":"address","name":"reviewer","type":"address"},{"internalType":"enum HealthRecordVerification.ReviewType","name":"reviewType","type":"uint8"},{"internalType":"enum HealthRecordVerification.DisputeSeverity","name":"severity","type":"uint8"},{"internalType":"enum HealthRecordVerification.DisputeCulpability","name":"culpability","type":"uint8"},{"internalType":"uint256","name":"timestamp","type":"uint256"},{"internalType":"string","name":"notes","type":"string"},{"internalType":"bool","name":"isActive","type":"bool"}],"stateMutability":"view","type":"function"},{"inputs":[{"internalType":"bytes32","name":"","type":"bytes32"}],"name":"recordRoles","outputs":[{"internalType":"string","name":"recordId","type":"string"},{"internalType":"address","name":"user","type":"address"},{"internalType":"string","name":"role","type":"string"},{"internalType":"uint256","name":"grantedAt","type":"uint256"},{"internalType":"uint256","name":"lastModified","type":"uint256"},{"internalType":"address","name":"grantedBy","type":"address"},{"internalType":"bool","name":"isActive","type":"bool"}],"stateMutability":"view","type":"function"},{"inputs":[{"internalType":"address","name":"","type":"address"},{"internalType":"uint256","name":"","type":"uint256"}],"name":"recordsAboutSubject","outputs":[{"internalType":"string","name":"","type":"string"}],"stateMutability":"view","type":"function"},{"inputs":[{"internalType":"address","name":"","type":"address"},{"internalType":"uint256","name":"","type":"uint256"}],"name":"recordsByUser","outputs":[{"internalType":"string","name":"","type":"string"}],"stateMutability":"view","type":"function"},{"inputs":[{"internalType":"string","name":"recordHash","type":"string"}],"name":"retractReview","outputs":[],"stateMutability":"nonpayable","type":"function"},{"inputs":[{"internalType":"string","name":"permissionHash","type":"string"}],"name":"revokeAccess","outputs":[],"stateMutability":"nonpayable","type":"function"},{"inputs":[{"internalType":"string","name":"recordId","type":"string"},{"internalType":"address","name":"user","type":"address"}],"name":"revokeRole","outputs":[],"stateMutability":"nonpayable","type":"function"},{"inputs":[{"internalType":"address","name":"userWallet","type":"address"},{"internalType":"enum HealthRecordVerification.MemberStatus","name":"newStatus","type":"uint8"}],"name":"setMemberStatus","outputs":[],"stateMutability":"nonpayable","type":"function"},{"inputs":[],"name":"totalAnchoredRecords","outputs":[{"internalType":"uint256","name":"","type":"uint256"}],"stateMutability":"view","type":"function"},{"inputs":[],"name":"totalMembers","outputs":[{"internalType":"uint256","name":"","type":"uint256"}],"stateMutability":"view","type":"function"},{"inputs":[],"name":"totalPermissions","outputs":[{"internalType":"uint256","name":"","type":"uint256"}],"stateMutability":"view","type":"function"},{"inputs":[],"name":"totalReviews","outputs":[{"internalType":"uint256","name":"","type":"uint256"}],"stateMutability":"view","type":"function"},{"inputs":[],"name":"totalRoles","outputs":[{"internalType":"uint256","name":"","type":"uint256"}],"stateMutability":"view","type":"function"},{"inputs":[{"internalType":"address","name":"newAdmin","type":"address"}],"name":"transferAdmin","outputs":[],"stateMutability":"nonpayable","type":"function"},{"inputs":[{"internalType":"bytes32","name":"","type":"bytes32"}],"name":"userIdHashToAddress","outputs":[{"internalType":"address","name":"","type":"address"}],"stateMutability":"view","type":"function"},{"inputs":[{"internalType":"string","name":"","type":"string"},{"internalType":"address","name":"","type":"address"}],"name":"userReviewIndex","outputs":[{"internalType":"uint256","name":"","type":"uint256"}],"stateMutability":"view","type":"function"},{"inputs":[{"internalType":"address","name":"","type":"address"},{"internalType":"uint256","name":"","type":"uint256"}],"name":"verificationsByUser","outputs":[{"internalType":"string","name":"","type":"string"}],"stateMutability":"view","type":"function"},{"inputs":[{"internalType":"string","name":"recordHash","type":"string"},{"internalType":"string","name":"notes","type":"string"}],"name":"verifyRecord","outputs":[],"stateMutability":"nonpayable","type":"function"},{"inputs":[{"internalType":"string","name":"","type":"string"},{"internalType":"uint256","name":"","type":"uint256"}],"name":"viewersByRecord","outputs":[{"internalType":"address","name":"","type":"address"}],"stateMutability":"view","type":"function"},{"inputs":[{"internalType":"string","name":"recordId","type":"string"}],"name":"voluntarilyRemoveOwnOwnership","outputs":[],"stateMutability":"nonpayable","type":"function"}],"evm":{"bytecode":{"linkReferences":{},"object":"608060405234801561001057600080fd5b50600080546001600160a01b03191633179055617f3780620000336000396000f3fe608060405234801561001057600080fd5b50600436106104335760003560e01c806375829def11610236578063b10e4a0b1161013b578063e0f3e86e116100c3578063f25b7f4511610087578063f25b7f4514610b76578063f6cc55f914610b89578063f851a44014610bae578063fb310c5914610bc1578063fc5cbf1d14610bd457600080fd5b8063e0f3e86e14610ae8578063e236789014610b23578063e589425e14610b2c578063e965bfb714610b3f578063eb2bbf2514610b5257600080fd5b8063bed6e79e1161010a578063bed6e79e14610a89578063bfb0a55b14610a9c578063c542ef4014610aaf578063cabdd23f14610ac2578063daa9dc2314610ad557600080fd5b8063b10e4a0b14610a2c578063b55aefcc14610a3f578063b5d3bc0514610a52578063bb20b17214610a7657600080fd5b8063889a7eee116101be578063a06536111161018d578063a0653611146109bc578063a0ca13c3146109cf578063a5a6958e146109e2578063aa85bf3f14610a06578063ad6f028114610a1957600080fd5b8063889a7eee146109475780639020666b1461096d578063970ee5b9146109965780639e90e34a146109a957600080fd5b80637ea79e9c116102055780637ea79e9c1461087a57806380fcd8171461089f57806381c86b33146108dd5780638625d384146108f057806386c097f71461093457600080fd5b806375829def1461084257806376e92559146108555780637798e7801461085e578063790e118c1461087157600080fd5b8063378115341161033c57806345ecd02f116102c4578063510b300311610293578063510b3003146107e357806357ac40c3146107f65780636b032610146108095780636e7157431461081c578063731f21a01461082f57600080fd5b806345ecd02f146107a257806347580b56146107b557806349df7208146107c85780634b6feb7c146107db57600080fd5b80633cfbc7cb1161030b5780633cfbc7cb146107285780633dd1e8fc1461073b5780633de2e8e91461074e5780633ecd54be1461076157806341d8bde31461078f57600080fd5b806337811534146106d35780633935b076146106db5780633a779568146106ee5780633aaaaf881461070157600080fd5b80631af43c91116103bf5780632978465d1161038e5780632978465d1461062a5780632ada25961461064a5780632ec1ca8a1461066c578063328c5aa11461067557806333105592146106ad57600080fd5b80631af43c91146105925780631cf8cbe8146105a55780631eb4bb87146105bc578063291c2b161461060757600080fd5b806310a0e88a1161040657806310a0e88a1461050a5780631469fab71461051f5780631655408d1461053f57806319c619531461055f5780631a95aca51461057257600080fd5b8063036351701461043857806308ae4b0c1461046157806309012a86146104b65780630c6de840146104f7575b600080fd5b61044b610446366004616e67565b610bdf565b6040516104589190616ee1565b60405180910390f35b6104a661046f366004616ef4565b600160208190526000918252604090912080549181015460028201546003909201546001600160a01b0390931692909160ff169084565b6040516104589493929190616f39565b6104df6104c4366004616f6c565b6000908152600260205260409020546001600160a01b031690565b6040516001600160a01b039091168152602001610458565b61044b610505366004616e67565b610c98565b61051d610518366004617038565b610cb4565b005b61053261052d366004616ef4565b611080565b6040516104589190617095565b61055261054d3660046170f7565b61116f565b6040516104589190617144565b61051d61056d3660046171a8565b611225565b610585610580366004617212565b611589565b6040516104589190617246565b61051d6105a0366004617293565b611603565b6105ae60115481565b604051908152602001610458565b6105f26105ca366004616ef4565b6001600160a01b03166000908152601760209081526040808320546018909252909120549091565b60408051928352602083019190915201610458565b61061a6106153660046170f7565b6116c4565b6040519015158152602001610458565b61063d610638366004617212565b611705565b6040516104589190617347565b61065d610658366004616ef4565b6118d9565b6040516104589392919061741b565b6105ae600d5481565b61068861068336600461743d565b611972565b604080516001600160a01b039094168452911515602084015290820152606001610458565b6106c06106bb366004616f6c565b6119da565b6040516104589796959493929190617493565b600d546105ae565b61051d6106e93660046171a8565b611b44565b61044b6106fc366004616e67565b611ebd565b61071461070f366004617212565b611ed9565b6040516104589897969594939291906174f3565b6105f26107363660046170f7565b61204e565b610585610749366004617212565b61216a565b61051d61075c36600461755c565b61217c565b61077461076f366004617212565b6121b9565b60408051938452602084019290925290820152606001610458565b61077461079d366004617212565b612449565b61061a6107b0366004616ef4565b6124ba565b61044b6107c3366004616e67565b6124f6565b61051d6107d6366004616e67565b612512565b6009546105ae565b6105856107f1366004617212565b61275c565b610532610804366004616ef4565b61276e565b6105f2610817366004616ef4565b612852565b61051d61082a3660046175bf565b6129bb565b61051d61083d3660046170f7565b612b69565b61051d610850366004616ef4565b613156565b6105ae60035481565b61051d61086c3660046170f7565b61322e565b6105ae60095481565b61088d610888366004617212565b6133e1565b604051610458969594939291906175fa565b61061a6108ad3660046170f7565b81516020818401810180516013825292820194820194909420919093529091526000908152604090205460ff1681565b6105326108eb366004617212565b613544565b61061a6108fe366004617654565b82516020818501810180516016825292820195820195909520919094528352600091825260408083209093528152205460ff1681565b610532610942366004616ef4565b613630565b61095a6109553660046176a8565b613714565b60405161045897969594939291906176ec565b6104df61097b366004616f6c565b6002602052600090815260409020546001600160a01b031681565b6104df6109a43660046176a8565b613820565b61051d6109b7366004617751565b613867565b61044b6109ca366004616e67565b613eec565b61061a6109dd3660046170f7565b613f08565b6109f56109f03660046170f7565b613f1b565b6040516104589594939291906177b7565b61051d610a14366004617212565b614191565b6104df610a27366004617212565b6143c4565b61051d610a3a366004617212565b61446a565b6104df610a4d3660046176a8565b61463a565b610a65610a60366004617212565b614665565b6040516104589594939291906177f9565b61051d610a8436600461783f565b61482f565b61044b610a97366004616e67565b614f54565b610532610aaa366004616ef4565b614f70565b610532610abd366004616ef4565b615054565b61061a610ad036600461783f565b615138565b61051d610ae336600461783f565b61514d565b6105ae610af63660046170f7565b81516020818401810180516014825292820194820194909420919093529091526000908152604090205481565b6105ae60195481565b61044b610b3a3660046176a8565b615af7565b6104df610b4d3660046176a8565b615b22565b610b65610b603660046170f7565b615b4d565b6040516104589594939291906178b2565b610532610b84366004616ef4565b615d4b565b610b9c610b97366004617212565b615e2f565b604051610458969594939291906178f4565b6000546104df906001600160a01b031681565b61051d610bcf366004617212565b61601e565b6011546019546105f2565b60186020528160005260406000208181548110610bfb57600080fd5b90600052602060002001600091509150508054610c179061793d565b80601f0160208091040260200160405190810160405280929190818152602001828054610c439061793d565b8015610c905780601f10610c6557610100808354040283529160200191610c90565b820191906000526020600020905b815481529060010190602001808311610c7357829003601f168201915b505050505081565b60086020528160005260406000208181548110610bfb57600080fd5b600e83604051610cc49190617977565b9081526040519081900360200190206004015460ff600160a01b90910416610d075760405162461bcd60e51b8152600401610cfe90617993565b60405180910390fd5b601383604051610d179190617977565b9081526040805160209281900383019020336000908152925290205460ff16610d8c5760405162461bcd60e51b815260206004820152602160248201527f5573657220686173206e6f20726576696577206f6e2074686973207265636f726044820152601960fa1b6064820152608401610cfe565b60018260ff1610158015610da4575060038260ff1611155b610de75760405162461bcd60e51b81526020600482015260146024820152735365766572697479206d75737420626520312d3360601b6044820152606401610cfe565b60018160ff1610158015610dff575060058160ff1611155b610e4b5760405162461bcd60e51b815260206004820152601760248201527f43756c706162696c697479206d75737420626520312d350000000000000000006044820152606401610cfe565b6000601484604051610e5d9190617977565b90815260408051602092819003830181203360009081529352908220549250601290610e8a908790617977565b90815260200160405180910390208281548110610ea957610ea96179c0565b60009182526020909120600490910201600381015490915060ff16610f105760405162461bcd60e51b815260206004820152601a60248201527f4469737075746520686173206265656e207265747261637465640000000000006044820152606401610cfe565b60018154600160a01b900460ff166001811115610f2f57610f2f616f0f565b14610f7c5760405162461bcd60e51b815260206004820152601760248201527f526576696577206973206e6f74206120646973707574650000000000000000006044820152606401610cfe565b805460ff600160a81b8204811691600160b01b900481169086166003811115610fa757610fa7616f0f565b8354849060ff60a81b1916600160a81b836003811115610fc957610fc9616f0f565b02179055508460ff166005811115610fe357610fe3616f0f565b8354849060ff60b01b1916600160b01b83600581111561100557611005616f0f565b0217905550604051339061101a908990617977565b604051908190038120855490917f4a326d2e0f3bd3557b127d6a5d9cf92f3b9038184c6f20da297b638bbe8bd8339161106f91879160ff600160a81b82048116928992600160b01b90049091169042906179d6565b60405180910390a350505050505050565b6001600160a01b0381166000908152601760209081526040808320805482518185028101850190935280835260609492939192909184015b828210156111645783829060005260206000200180546110d79061793d565b80601f01602080910402602001604051908101604052809291908181526020018280546111039061793d565b80156111505780601f1061112557610100808354040283529160200191611150565b820191906000526020600020905b81548152906001019060200180831161113357829003601f168201915b5050505050815260200190600101906110b8565b505050509050919050565b60606015836040516111819190617977565b9081526040805191829003602090810183206001600160a01b0386166000908152908252828120805480840286018401909452838552929184015b82821015611218576000848152602090819020604080516060810182526002860290920180546001600160a01b0381168452600160a01b900460ff161515838501526001908101549183019190915290835290920191016111bc565b5050505090505b92915050565b600083511161126d5760405162461bcd60e51b8152602060048201526014602482015273486173682063616e6e6f7420626520656d70747960601b6044820152606401610cfe565b600082511161128e5760405162461bcd60e51b8152600401610cfe90617a1b565b6001600160a01b0381166112e45760405162461bcd60e51b815260206004820152601e60248201527f5375626a6563742063616e6e6f74206265207a65726f206164647265737300006044820152606401610cfe565b600e836040516112f49190617977565b9081526040519081900360200190206004015460ff600160a01b90910416156113575760405162461bcd60e51b815260206004820152601560248201527412185cda08185b1c9958591e48185b98da1bdc9959605a1b6044820152606401610cfe565b6000823360405160200161136c929190617a52565b60408051808303601f19018152918152815160209283012060008181526004909352912060050154909150600160a01b900460ff166113bd5760405162461bcd60e51b8152600401610cfe90617a89565b6040805160c081018252858152602081018590526001600160a01b03841681830152426060820152336080820152600160a08201529051600e90611402908790617977565b9081526040519081900360200190208151819061141f9082617b0e565b50602082015160018201906114349082617b0e565b506040828101516002830180546001600160a01b039283166001600160a01b03199091161790556060840151600384015560808401516004909301805460a0909501511515600160a01b026001600160a81b031990951693821693909317939093179091559083166000908152600f60209081529181208054600181018255908252919020016114c48582617b0e565b506010836040516114d59190617977565b9081526040516020918190038201902080546001810182556000918252919020016115008582617b0e565b506011805490600061151183617be3565b9190505550816001600160a01b03168360405161152e9190617977565b6040518091039020856040516115449190617977565b60408051918290038220338352426020840152917f4420e8451168941fa9021d087369875d12307cd926ed71885aee174e86c46fda910160405180910390a450505050565b606060058260405161159b9190617977565b90815260408051918290036020908101832080548083028501830190935282845291908301828280156115f757602002820191906000526020600020905b81546001600160a01b031681526001909101906020018083116115d9575b50505050509050919050565b60018360ff161015801561161b575060058360ff1611155b61165e5760405162461bcd60e51b81526020600482015260146024820152735365766572697479206d75737420626520312d3560601b6044820152606401610cfe565b611694848260018660ff16600381111561167a5761167a616f0f565b8660ff16600581111561168f5761168f616f0f565b6161f3565b336000908152601860209081526040822080546001810182559083529120016116bd8582617b0e565b5050505050565b6000816001600160a01b0316600e846040516116e09190617977565b908152604051908190036020019020600201546001600160a01b031614905092915050565b60606012826040516117179190617977565b9081526020016040518091039020805480602002602001604051908101604052809291908181526020016000905b828210156111645760008481526020908190206040805160e081019091526004850290910180546001600160a01b03811683529192909190830190600160a01b900460ff16600181111561179b5761179b616f0f565b60018111156117ac576117ac616f0f565b81528154602090910190600160a81b900460ff1660038111156117d1576117d1616f0f565b60038111156117e2576117e2616f0f565b81528154602090910190600160b01b900460ff16600581111561180757611807616f0f565b600581111561181857611818616f0f565b8152602001600182015481526020016002820180546118369061793d565b80601f01602080910402602001604051908101604052809291908181526020018280546118629061793d565b80156118af5780601f10611884576101008083540402835291602001916118af565b820191906000526020600020905b81548152906001019060200180831161189257829003601f168201915b50505091835250506003919091015460ff1615156020918201529082526001929092019101611745565b6001600160a01b038082166000908152600160208181526040808420815160808101835281549096168652928301549185019190915260028083015493948594859485949293909284019160ff169081111561193757611937616f0f565b600281111561194857611948616f0f565b81526003919091015460209182015281015160408201516060909201519097919650945092505050565b82516020818501810180516015825292820182870120929052526000828152604090208054829081106119a457600080fd5b6000918252602090912060029091020180546001909101546001600160a01b0382169450600160a01b90910460ff169250905083565b6004602052600090815260409020805481906119f59061793d565b80601f0160208091040260200160405190810160405280929190818152602001828054611a219061793d565b8015611a6e5780601f10611a4357610100808354040283529160200191611a6e565b820191906000526020600020905b815481529060010190602001808311611a5157829003601f168201915b505050600184015460028501805494956001600160a01b03909216949193509150611a989061793d565b80601f0160208091040260200160405190810160405280929190818152602001828054611ac49061793d565b8015611b115780601f10611ae657610100808354040283529160200191611b11565b820191906000526020600020905b815481529060010190602001808311611af457829003601f168201915b5050505060038301546004840154600590940154929390929091506001600160a01b03811690600160a01b900460ff1687565b6000835111611b955760405162461bcd60e51b815260206004820152601f60248201527f5065726d697373696f6e20686173682063616e6e6f7420626520656d707479006044820152606401610cfe565b6000825111611bb65760405162461bcd60e51b8152600401610cfe90617a1b565b6001600160a01b038116611c0c5760405162461bcd60e51b815260206004820152601f60248201527f526563656976657220616464726573732063616e6e6f74206265207a65726f006044820152606401610cfe565b336001600160a01b03821603611c645760405162461bcd60e51b815260206004820152601a60248201527f43616e6e6f74207368617265207769746820796f757273656c660000000000006044820152606401610cfe565b600a83604051611c749190617977565b9081526040519081900360200190206006015460ff6101009091041615611cdd5760405162461bcd60e51b815260206004820152601960248201527f5065726d697373696f6e20616c726561647920657869737473000000000000006044820152606401610cfe565b60408051610100810182528481523360208201526001600160a01b0383168183015260608101849052426080820152600060a0820152600160c0820181905260e08201529051600a90611d31908690617977565b90815260405190819003602001902081518190611d4e9082617b0e565b5060208201516001820180546001600160a01b039283166001600160a01b031991821617909155604084015160028401805491909316911617905560608201516003820190611d9d9082617b0e565b506080820151600482015560a0820151600582015560c08201516006909101805460e09093015115156101000261ff00199215159290921661ffff1990931692909217179055336000908152600b6020908152604082208054600181018255908352912001611e0c8482617b0e565b506001600160a01b0381166000908152600c6020908152604082208054600181018255908352912001611e3f8482617b0e565b50600d8054906000611e5083617be3565b9190505550806001600160a01b0316336001600160a01b031684604051611e779190617977565b60405180910390207f4e9b2250dc310298285671060eeb083837adb673cedb4fcff8837a53196e885f8542604051611eb0929190617bfc565b60405180910390a4505050565b600b6020528160005260406000208181548110610bfb57600080fd5b8051602081830181018051600a82529282019190930120915280548190611eff9061793d565b80601f0160208091040260200160405190810160405280929190818152602001828054611f2b9061793d565b8015611f785780601f10611f4d57610100808354040283529160200191611f78565b820191906000526020600020905b815481529060010190602001808311611f5b57829003601f168201915b5050506001840154600285015460038601805495966001600160a01b0393841696929093169450919250611fab9061793d565b80601f0160208091040260200160405190810160405280929190818152602001828054611fd79061793d565b80156120245780601f10611ff957610100808354040283529160200191612024565b820191906000526020600020905b81548152906001019060200180831161200757829003601f168201915b50505050600483015460058401546006909401549293909290915060ff8082169161010090041688565b60008060006015856040516120639190617977565b9081526040805191829003602090810183206001600160a01b0388166000908152908252828120805480840286018401909452838552929184015b828210156120fa576000848152602090819020604080516060810182526002860290920180546001600160a01b0381168452600160a01b900460ff1615158385015260019081015491830191909152908352909201910161209e565b50505050905060005b81518110156121615781818151811061211e5761211e6179c0565b60200260200101516020015115612141578361213981617be3565b94505061214f565b8261214b81617be3565b9350505b8061215981617be3565b915050612103565b50509250929050565b606060068260405161159b9190617977565b61218b828260008060006161f3565b336000908152601760209081526040822080546001810182559083529120016121b48382617b0e565b505050565b6000806000806012856040516121cf9190617977565b9081526020016040518091039020805480602002602001604051908101604052809291908181526020016000905b828210156123915760008481526020908190206040805160e081019091526004850290910180546001600160a01b03811683529192909190830190600160a01b900460ff16600181111561225357612253616f0f565b600181111561226457612264616f0f565b81528154602090910190600160a81b900460ff16600381111561228957612289616f0f565b600381111561229a5761229a616f0f565b81528154602090910190600160b01b900460ff1660058111156122bf576122bf616f0f565b60058111156122d0576122d0616f0f565b8152602001600182015481526020016002820180546122ee9061793d565b80601f016020809104026020016040519081016040528092919081815260200182805461231a9061793d565b80156123675780601f1061233c57610100808354040283529160200191612367565b820191906000526020600020905b81548152906001019060200180831161234a57829003601f168201915b50505091835250506003919091015460ff16151560209182015290825260019290920191016121fd565b50505050905060005b8151811015612440578181815181106123b5576123b56179c0565b602002602001015160c00151156124205760008282815181106123da576123da6179c0565b60200260200101516020015160018111156123f7576123f7616f0f565b0361240e578461240681617be3565b95505061242e565b8361241881617be3565b94505061242e565b8261242a81617be3565b9350505b8061243881617be3565b91505061239a565b50509193909250565b600080600060058460405161245e9190617977565b908152604051908190036020018120549060069061247d908790617977565b908152604051908190036020018120549060079061249c908890617977565b90815260405190819003602001902054919450925090509193909250565b600060016001600160a01b038316600090815260016020526040902060029081015460ff16908111156124ef576124ef616f0f565b1492915050565b60176020528160005260406000208181548110610bfb57600080fd5b6000546001600160a01b0316331461253c5760405162461bcd60e51b8152600401610cfe90617c1e565b6001600160a01b03821661258b5760405162461bcd60e51b8152602060048201526016602482015275496e76616c69642077616c6c6574206164647265737360501b6044820152606401610cfe565b6001600160a01b038216600090815260016020526040902060030154156125e75760405162461bcd60e51b815260206004820152601060248201526f20b63932b0b23c90309036b2b6b132b960811b6044820152606401610cfe565b6000818152600260205260409020546001600160a01b03161561264c5760405162461bcd60e51b815260206004820152601a60248201527f5573657220494420616c726561647920726567697374657265640000000000006044820152606401610cfe565b604080516080810182526001600160a01b038481168083526020808401868152600185870181815242606088015260009485529281905295909220845181546001600160a01b03191694169390931783559051828501555160028083018054949593949293909260ff19169184908111156126c9576126c9616f0f565b021790555060609190910151600391820155600082815260026020526040812080546001600160a01b0319166001600160a01b0386161790558154919061270f83617be3565b919050555080826001600160a01b03167f39d132591ee0696de49ab564e4a90e430c006561917db731a2a614dd2d2455914260405161275091815260200190565b60405180910390a35050565b606060078260405161159b9190617977565b6001600160a01b0381166000908152600860209081526040808320805482518185028101850190935280835260609492939192909184015b828210156111645783829060005260206000200180546127c59061793d565b80601f01602080910402602001604051908101604052809291908181526020018280546127f19061793d565b801561283e5780601f106128135761010080835404028352916020019161283e565b820191906000526020600020905b81548152906001019060200180831161282157829003601f168201915b5050505050815260200190600101906127a6565b6001600160a01b0381166000908152600b60209081526040808320805482518185028101850190935280835284938493929190849084015b828210156129365783829060005260206000200180546128a99061793d565b80601f01602080910402602001604051908101604052809291908181526020018280546128d59061793d565b80156129225780601f106128f757610100808354040283529160200191612922565b820191906000526020600020905b81548152906001019060200180831161290557829003601f168201915b50505050508152602001906001019061288a565b505050509050805192506000915060005b81518110156129b457600a828281518110612964576129646179c0565b60200260200101516040516129799190617977565b9081526040519081900360200190206006015460ff16156129a2578261299e81617be3565b9350505b806129ac81617be3565b915050612947565b5050915091565b6000546001600160a01b031633146129e55760405162461bcd60e51b8152600401610cfe90617c1e565b6001600160a01b0382166000908152600160205260408120600301549003612a3e5760405162461bcd60e51b815260206004820152600c60248201526b2737ba10309036b2b6b132b960a11b6044820152606401610cfe565b6001600160a01b038216600090815260016020526040902060029081015460ff16908290811115612a7157612a71616f0f565b816002811115612a8357612a83616f0f565b03612ac65760405162461bcd60e51b8152602060048201526013602482015272416c726561647920746869732073746174757360681b6044820152606401610cfe565b8160016000856001600160a01b03166001600160a01b0316815260200190815260200160002060020160006101000a81548160ff02191690836002811115612b1057612b10616f0f565b0217905550336001600160a01b0316836001600160a01b03167f08df6fe77900a7f74a03489f6be278308324a06574c9d8a65c1dae5381c3881d838542604051612b5c93929190617c42565b60405180910390a3505050565b6000825111612b8a5760405162461bcd60e51b8152600401610cfe90617a1b565b6001600160a01b038116612bb05760405162461bcd60e51b8152600401610cfe90617c5d565b60008282604051602001612bc5929190617a52565b6040516020818303038152906040528051906020012090506000600460008381526020019081526020016000206040518060e0016040529081600082018054612c0d9061793d565b80601f0160208091040260200160405190810160405280929190818152602001828054612c399061793d565b8015612c865780601f10612c5b57610100808354040283529160200191612c86565b820191906000526020600020905b815481529060010190602001808311612c6957829003601f168201915b505050918352505060018201546001600160a01b03166020820152600282018054604090920191612cb69061793d565b80601f0160208091040260200160405190810160405280929190818152602001828054612ce29061793d565b8015612d2f5780601f10612d0457610100808354040283529160200191612d2f565b820191906000526020600020905b815481529060010190602001808311612d1257829003601f168201915b505050918352505060038201546020820152600482015460408201526005909101546001600160a01b0381166060830152600160a01b900460ff16151560809091015260c0810151909150612d965760405162461bcd60e51b8152600401610cfe90617c94565b60408082015180516020808301919091208351808501909452600584526437bbb732b960d91b939091019290925290600080516020617ea28339815191528101612e5a5760405162461bcd60e51b815260206004820152604960248201527f4f776e6572732063616e6e6f74206265207265766f6b65642e204f776e65722060448201527f6d7573742075736520766f6c756e746172696c7952656d6f76654f776e4f776e60648201526832b939b434b814149760b91b608482015260a401610cfe565b336001600160a01b0386161480612fbc57612e758733616676565b612ec75760405162461bcd60e51b815260206004820152602f6024820152600080516020617e6283398151915260448201526e616e207265766f6b6520726f6c657360881b6064820152608401610cfe565b6000612ef188336040518060400160405280600581526020016437bbb732b960d91b8152506166d2565b905080612fba5760408051808201909152600d81526c30b236b4b734b9ba3930ba37b960991b602090910152600080516020617ec283398151915283148015612fb85760008060058b604051612f479190617977565b908152604051908190036020019020541190508015612fb65760405162461bcd60e51b815260206004820152602560248201527f4f6e6c79206f776e6572732063616e207265766f6b652061646d696e6973747260448201526461746f727360d81b6064820152608401610cfe565b505b505b505b60408051808201909152600d81526c30b236b4b734b9ba3930ba37b960991b602090910152600080516020617ee283398151915282016130c3576000600160068960405161300a9190617977565b90815260200160405180910390208054905011905060008060058a6040516130329190617977565b90815260405190819003602001902054119050818061304e5750805b6130c05760405162461bcd60e51b815260206004820152603960248201527f43616e6e6f74207265766f6b65206c6173742061646d696e6973747261746f7260448201527f20776974686f757420616e206f776e65722070726573656e74000000000000006064820152608401610cfe565b50505b6130ce8787856168c4565b60008581526004602081905260409182902060058101805460ff60a01b19169055429101555133906001600160a01b0388169061310c908a90617977565b60405180910390207f4a3687fcb71d47fa2e61f904671324e749c46ad50a2236d66943ab0ab659bbb38642604051613145929190617bfc565b60405180910390a450505050505050565b6000546001600160a01b031633146131805760405162461bcd60e51b8152600401610cfe90617c1e565b6001600160a01b0381166131c85760405162461bcd60e51b815260206004820152600f60248201526e496e76616c6964206164647265737360881b6044820152606401610cfe565b6000546040514281526001600160a01b038381169216907f38df5fa0f7fef0d515ca1f5388cb5790ac5885d5fca8d05d9f943e563c33a4b39060200160405180910390a3600080546001600160a01b0319166001600160a01b0392909216919091179055565b6000546001600160a01b031633146132585760405162461bcd60e51b8152600401610cfe90617c1e565b60008251116132795760405162461bcd60e51b8152600401610cfe90617a1b565b6001600160a01b0381166132c15760405162461bcd60e51b815260206004820152600f60248201526e496e76616c6964206164647265737360881b6044820152606401610cfe565b6132ca816124ba565b6133165760405162461bcd60e51b815260206004820152601860248201527f4d75737420626520616e20616374697665206d656d62657200000000000000006044820152606401610cfe565b6005826040516133269190617977565b90815260405190819003602001902054158015613360575060068260405161334e9190617977565b90815260405190819003602001902054155b6133ac5760405162461bcd60e51b815260206004820152601a60248201527f5265636f726420616c726561647920696e697469616c697a65640000000000006044820152606401610cfe565b6133dd82826040518060400160405280600d81526020016c30b236b4b734b9ba3930ba37b960991b815250336169c6565b5050565b8051602081830181018051600e825292820191909301209152805481906134079061793d565b80601f01602080910402602001604051908101604052809291908181526020018280546134339061793d565b80156134805780601f1061345557610100808354040283529160200191613480565b820191906000526020600020905b81548152906001019060200180831161346357829003601f168201915b5050505050908060010180546134959061793d565b80601f01602080910402602001604051908101604052809291908181526020018280546134c19061793d565b801561350e5780601f106134e35761010080835404028352916020019161350e565b820191906000526020600020905b8154815290600101906020018083116134f157829003601f168201915b505050506002830154600384015460049094015492936001600160a01b039182169390925090811690600160a01b900460ff1686565b60606010826040516135569190617977565b9081526020016040518091039020805480602002602001604051908101604052809291908181526020016000905b828210156111645783829060005260206000200180546135a39061793d565b80601f01602080910402602001604051908101604052809291908181526020018280546135cf9061793d565b801561361c5780601f106135f15761010080835404028352916020019161361c565b820191906000526020600020905b8154815290600101906020018083116135ff57829003601f168201915b505050505081526020019060010190613584565b6001600160a01b0381166000908152600b60209081526040808320805482518185028101850190935280835260609492939192909184015b828210156111645783829060005260206000200180546136879061793d565b80601f01602080910402602001604051908101604052809291908181526020018280546136b39061793d565b80156137005780601f106136d557610100808354040283529160200191613700565b820191906000526020600020905b8154815290600101906020018083116136e357829003601f168201915b505050505081526020019060010190613668565b8151602081840181018051601282529282019185019190912091905280548290811061373f57600080fd5b60009182526020909120600490910201805460018201546002830180546001600160a01b038416965060ff600160a01b850481169650600160a81b8504811695600160b01b909504169391906137949061793d565b80601f01602080910402602001604051908101604052809291908181526020018280546137c09061793d565b801561380d5780601f106137e25761010080835404028352916020019161380d565b820191906000526020600020905b8154815290600101906020018083116137f057829003601f168201915b5050506003909301549192505060ff1687565b8151602081840181018051600582529282019185019190912091905280548290811061384b57600080fd5b6000918252602090912001546001600160a01b03169150829050565b600e836040516138779190617977565b9081526040519081900360200190206004015460ff600160a01b909104166138b15760405162461bcd60e51b8152600401610cfe90617993565b6013836040516138c19190617977565b90815260408051602092819003830190206001600160a01b0385166000908152925290205460ff166139355760405162461bcd60e51b815260206004820152601c60248201527f4e6f20646973707574652066726f6d20746869732061646472657373000000006044820152606401610cfe565b60006014846040516139479190617977565b90815260408051602092819003830181206001600160a01b0387166000908152935290822054925060129061397d908790617977565b9081526020016040518091039020828154811061399c5761399c6179c0565b60009182526020918290206040805160e0810190915260049092020180546001600160a01b0381168352919290919083019060ff600160a01b9091041660018111156139ea576139ea616f0f565b60018111156139fb576139fb616f0f565b81528154602090910190600160a81b900460ff166003811115613a2057613a20616f0f565b6003811115613a3157613a31616f0f565b81528154602090910190600160b01b900460ff166005811115613a5657613a56616f0f565b6005811115613a6757613a67616f0f565b815260200160018201548152602001600282018054613a859061793d565b80601f0160208091040260200160405190810160405280929190818152602001828054613ab19061793d565b8015613afe5780601f10613ad357610100808354040283529160200191613afe565b820191906000526020600020905b815481529060010190602001808311613ae157829003601f168201915b50505091835250506003919091015460ff1615156020909101529050600181602001516001811115613b3257613b32616f0f565b14613b6f5760405162461bcd60e51b815260206004820152600d60248201526c4e6f742061206469737075746560981b6044820152606401610cfe565b8060c00151613bc05760405162461bcd60e51b815260206004820152601a60248201527f4469737075746520686173206265656e207265747261637465640000000000006044820152606401610cfe565b6000600e86604051613bd29190617977565b90815260200160405180910390206001018054613bee9061793d565b80601f0160208091040260200160405190810160405280929190818152602001828054613c1a9061793d565b8015613c675780601f10613c3c57610100808354040283529160200191613c67565b820191906000526020600020905b815481529060010190602001808311613c4a57829003601f168201915b5050505050905060008133604051602001613c83929190617a52565b60408051808303601f19018152918152815160209283012060008181526004909352912060050154909150600160a01b900460ff16613cd45760405162461bcd60e51b8152600401610cfe90617a89565b6001600160a01b0386163303613d2c5760405162461bcd60e51b815260206004820181905260248201527f43616e6e6f7420726561637420746f20796f7572206f776e20646973707574656044820152606401610cfe565b601687604051613d3c9190617977565b90815260408051602092819003830190206001600160a01b038916600090815290835281812033825290925290205460ff1615613dbb5760405162461bcd60e51b815260206004820152601f60248201527f416c7265616479207265616374656420746f20746869732064697370757465006044820152606401610cfe565b601587604051613dcb9190617977565b9081526040805191829003602090810183206001600160a01b03808b1660009081529183528382206060860185523386528a1515868501908152428787019081528254600181810185559386529590942096516002909502909601805496511515600160a01b026001600160a81b03199097169490921693909317949094178455519281019290925551601690613e63908a90617977565b90815260408051602092819003830181206001600160a01b038b166000818152918552838220338084529552929020805460ff19169415159490941790935591613eae908a90617977565b604080519182900382208915158352426020840152917fad3ed72ffd0de1372034654a13d68aaf09e3980d9fd90226d703b6ce84bec0d89101613145565b600f6020528160005260406000208181548110610bfb57600080fd5b6000613f148383616676565b9392505050565b600080600060606000601387604051613f349190617977565b90815260408051602092819003830190206001600160a01b0389166000908152925290205460ff16613f8057505060408051602081019091526000808252935083925082915081614187565b6000601488604051613f929190617977565b90815260408051602092819003830181206001600160a01b038b1660009081529352908220549250601290613fc8908b90617977565b90815260200160405180910390208281548110613fe757613fe76179c0565b60009182526020918290206040805160e0810190915260049092020180546001600160a01b0381168352919290919083019060ff600160a01b90910416600181111561403557614035616f0f565b600181111561404657614046616f0f565b81528154602090910190600160a81b900460ff16600381111561406b5761406b616f0f565b600381111561407c5761407c616f0f565b81528154602090910190600160b01b900460ff1660058111156140a1576140a1616f0f565b60058111156140b2576140b2616f0f565b8152602001600182015481526020016002820180546140d09061793d565b80601f01602080910402602001604051908101604052809291908181526020018280546140fc9061793d565b80156141495780601f1061411e57610100808354040283529160200191614149565b820191906000526020600020905b81548152906001019060200180831161412c57829003601f168201915b50505091835250506003919091015460ff161515602091820152810151608082015160a083015160c09093015160019a509198509650909450925050505b9295509295909350565b60008151116141b25760405162461bcd60e51b8152600401610cfe90617a1b565b6141da81336040518060400160405280600581526020016437bbb732b960d91b8152506166d2565b6142325760405162461bcd60e51b815260206004820152602360248201527f596f7520617265206e6f7420616e206f776e6572206f662074686973207265636044820152621bdc9960ea1b6064820152608401610cfe565b600060016005836040516142469190617977565b90815260200160405180910390208054905011905060008060068460405161426e9190617977565b90815260405190819003602001902054119050818061428a5750805b6142fc5760405162461bcd60e51b815260206004820152603b60248201527f43616e6e6f742072656d6f766520796f757273656c66206173206c617374206f60448201527f776e65722077697468206e6f2061646d696e6973747261746f727300000000006064820152608401610cfe565b60008333604051602001614311929190617a52565b60405160208183030381529060405280519060200120905061435184336040518060400160405280600581526020016437bbb732b960d91b8152506168c4565b60008181526004602081905260409182902060058101805460ff60a01b1916905542910155513390614384908690617977565b604051908190038120428252907fcf5e8e3b738fc92454ce623ca55f54d14fdd7beea3859deb72f5171ad234092d9060200160405180910390a350505050565b6000600e826040516143d69190617977565b9081526040519081900360200190206004015460ff600160a01b909104166144385760405162461bcd60e51b8152602060048201526015602482015274149958dbdc9908191bd95cc81b9bdd08195e1a5cdd605a1b6044820152606401610cfe565b600e826040516144489190617977565b908152604051908190036020019020600201546001600160a01b031692915050565b60138160405161447a9190617977565b9081526040805160209281900383019020336000908152925290205460ff166144dc5760405162461bcd60e51b8152602060048201526014602482015273139bc81c995d9a595dc81d1bc81c995d1c9858dd60621b6044820152606401610cfe565b60006014826040516144ee9190617977565b9081526040805160209281900383018120336000908152935290822054925060129061451b908590617977565b9081526020016040518091039020828154811061453a5761453a6179c0565b60009182526020909120600490910201600381015490915060ff166145955760405162461bcd60e51b8152602060048201526011602482015270105b1c9958591e481c995d1c9858dd1959607a1b6044820152606401610cfe565b60038101805460ff191690556040516000906013906145b5908690617977565b90815260408051602092819003830181203360008181529190945291909120805460ff191693151593909317909255906145f0908590617977565b60405180910390207f6bc31bfb9ff73229da0fa40a8ab549b0579fa1a8aa5097d6c42c758ad69561828360000160149054906101000a900460ff1642604051612b5c929190617cd5565b8151602081840181018051600782529282019185019190912091905280548290811061384b57600080fd5b60606000806000806000600e8760405161467f9190617977565b90815260200160405180910390206040518060c00160405290816000820180546146a89061793d565b80601f01602080910402602001604051908101604052809291908181526020018280546146d49061793d565b80156147215780601f106146f657610100808354040283529160200191614721565b820191906000526020600020905b81548152906001019060200180831161470457829003601f168201915b5050505050815260200160018201805461473a9061793d565b80601f01602080910402602001604051908101604052809291908181526020018280546147669061793d565b80156147b35780601f10614788576101008083540402835291602001916147b3565b820191906000526020600020905b81548152906001019060200180831161479657829003601f168201915b505050918352505060028201546001600160a01b039081166020808401919091526003840154604080850191909152600490940154918216606080850191909152600160a01b90920460ff16151560809384015284015192840151908401519184015160a090940151929b909a50909850919650945092505050565b33600090815260016020526040812060029081015460ff169081111561485757614857616f0f565b0361489b5760405162461bcd60e51b81526020600482015260146024820152732737ba1030b71030b1ba34bb329036b2b6b132b960611b6044820152606401610cfe565b60008351116148bc5760405162461bcd60e51b8152600401610cfe90617a1b565b6001600160a01b0382166148e25760405162461bcd60e51b8152600401610cfe90617c5d565b805160208083019190912060408051808201909152600581526437bbb732b960d91b9201919091527f02016836a56b71f0d02689e69e326f4f4c1b9057164ef592671cf0d37c8040c081148061496a575060408051808201909152600d81526c30b236b4b734b9ba3930ba37b960991b602090910152600080516020617ec283398151915281145b806149b257506040805180820190915260068152653b34b2bbb2b960d11b6020909101527f120310a1203e5851b63a4d0b2c5643d3fba07783d2b04d7222298a1ed22e1e0d81145b6149ce5760405162461bcd60e51b8152600401610cfe90617cf0565b600084336040516020016149e3929190617a52565b6040516020818303038152906040528051906020012090506000600460008381526020019081526020016000206040518060e0016040529081600082018054614a2b9061793d565b80601f0160208091040260200160405190810160405280929190818152602001828054614a579061793d565b8015614aa45780601f10614a7957610100808354040283529160200191614aa4565b820191906000526020600020905b815481529060010190602001808311614a8757829003601f168201915b505050918352505060018201546001600160a01b03166020820152600282018054604090920191614ad49061793d565b80601f0160208091040260200160405190810160405280929190818152602001828054614b009061793d565b8015614b4d5780601f10614b2257610100808354040283529160200191614b4d565b820191906000526020600020905b815481529060010190602001808311614b3057829003601f168201915b505050918352505060038201546020820152600482015460408201526005909101546001600160a01b0381166060830152600160a01b900460ff16151560809091015260c0810151909150614be45760405162461bcd60e51b815260206004820181905260248201527f596f752068617665206e6f20726f6c6520666f722074686973207265636f72646044820152606401610cfe565b600080600588604051614bf79190617977565b9081526020016040518091039020805490501190506000614c3688336040518060400160405280600581526020016437bbb732b960d91b8152506166d2565b90506000614c6a89336040518060400160405280600d81526020016c30b236b4b734b9ba3930ba37b960991b8152506166d2565b60408051808201909152600581526437bbb732b960d91b6020909101529050600080516020617ea28339815191528601614d55578215614cf65781614cf15760405162461bcd60e51b815260206004820181905260248201527f4f6e6c79206f776e6572732063616e206772616e74206f776e657220726f6c656044820152606401610cfe565b614e8b565b80614cf15760405162461bcd60e51b815260206004820152602960248201527f4f6e6c792061646d696e6973747261746f72732063616e206772616e742066696044820152683939ba1037bbb732b960b91b6064820152608401610cfe565b60408051808201909152600d81526c30b236b4b734b9ba3930ba37b960991b602090910152600080516020617ee28339815191528601614df8578180614d985750805b614cf15760405162461bcd60e51b815260206004820152603b6024820152600080516020617e6283398151915260448201527f616e206772616e742061646d696e6973747261746f7220726f6c6500000000006064820152608401610cfe565b6040805180820190915260068152653b34b2bbb2b960d11b602090910152600080516020617e828339815191528601614e8b578180614e345750805b614e8b5760405162461bcd60e51b81526020600482015260346024820152600080516020617e62833981519152604482015273616e206772616e742076696577657220726f6c6560601b6064820152608401610cfe565b60008989604051602001614ea0929190617a52565b60408051808303601f19018152918152815160209283012060008181526004909352912060050154909150600160a01b900460ff1615614f3c5760405162461bcd60e51b815260206004820152603160248201527f5573657220616c726561647920686173206120726f6c652e20557365206368616044820152701b99d9549bdb194a0a481a5b9cdd195859607a1b6064820152608401610cfe565b614f488a8a8a336169c6565b50505050505050505050565b600c6020528160005260406000208181548110610bfb57600080fd5b6001600160a01b0381166000908152601860209081526040808320805482518185028101850190935280835260609492939192909184015b82821015611164578382906000526020600020018054614fc79061793d565b80601f0160208091040260200160405190810160405280929190818152602001828054614ff39061793d565b80156150405780601f1061501557610100808354040283529160200191615040565b820191906000526020600020905b81548152906001019060200180831161502357829003601f168201915b505050505081526020019060010190614fa8565b6001600160a01b0381166000908152600f60209081526040808320805482518185028101850190935280835260609492939192909184015b828210156111645783829060005260206000200180546150ab9061793d565b80601f01602080910402602001604051908101604052809291908181526020018280546150d79061793d565b80156151245780601f106150f957610100808354040283529160200191615124565b820191906000526020600020905b81548152906001019060200180831161510757829003601f168201915b50505050508152602001906001019061508c565b60006151458484846166d2565b949350505050565b33600090815260016020526040812060029081015460ff169081111561517557615175616f0f565b036151b95760405162461bcd60e51b81526020600482015260146024820152732737ba1030b71030b1ba34bb329036b2b6b132b960611b6044820152606401610cfe565b60008351116151da5760405162461bcd60e51b8152600401610cfe90617a1b565b6001600160a01b0382166152005760405162461bcd60e51b8152600401610cfe90617c5d565b805160208083019190912060408051808201909152600581526437bbb732b960d91b9201919091527f02016836a56b71f0d02689e69e326f4f4c1b9057164ef592671cf0d37c8040c0811480615288575060408051808201909152600d81526c30b236b4b734b9ba3930ba37b960991b602090910152600080516020617ec283398151915281145b806152d057506040805180820190915260068152653b34b2bbb2b960d11b6020909101527f120310a1203e5851b63a4d0b2c5643d3fba07783d2b04d7222298a1ed22e1e0d81145b6152ec5760405162461bcd60e51b8152600401610cfe90617cf0565b60008484604051602001615301929190617a52565b6040516020818303038152906040528051906020012090506000600460008381526020019081526020016000206040518060e00160405290816000820180546153499061793d565b80601f01602080910402602001604051908101604052809291908181526020018280546153759061793d565b80156153c25780601f10615397576101008083540402835291602001916153c2565b820191906000526020600020905b8154815290600101906020018083116153a557829003601f168201915b505050918352505060018201546001600160a01b031660208201526002820180546040909201916153f29061793d565b80601f016020809104026020016040519081016040528092919081815260200182805461541e9061793d565b801561546b5780601f106154405761010080835404028352916020019161546b565b820191906000526020600020905b81548152906001019060200180831161544e57829003601f168201915b505050918352505060038201546020820152600482015460408201526005909101546001600160a01b0381166060830152600160a01b900460ff16151560809091015260c08101519091506154d25760405162461bcd60e51b8152600401610cfe90617c94565b60408101518051602082012084810361552d5760405162461bcd60e51b815260206004820152601a60248201527f5573657220616c726561647920686173207468697320726f6c650000000000006044820152606401610cfe565b60408051808201909152600581526437bbb732b960d91b602090910152600080516020617ea283398151915281016155d95760405162461bcd60e51b815260206004820152604360248201527f4f776e6572732063616e6e6f742062652064656d6f7465642e204f776e65722060448201527f6d75737420766f6c756e746172696c792072656d6f7665207468656d73656c7660648201526232b99760e91b608482015260a401610cfe565b60008060058a6040516155ec9190617977565b908152602001604051809103902080549050119050600061562b8a336040518060400160405280600581526020016437bbb732b960d91b8152506166d2565b9050600061565f8b336040518060400160405280600d81526020016c30b236b4b734b9ba3930ba37b960991b8152506166d2565b60408051808201909152600581526437bbb732b960d91b6020909101529050336001600160a01b038b1614600080516020617ea283398151915289016157585783156156f757826156f25760405162461bcd60e51b815260206004820181905260248201527f4f6e6c79206f776e6572732063616e2070726f6d6f746520746f206f776e65726044820152606401610cfe565b615927565b816156f25760405162461bcd60e51b815260206004820152602b60248201527f4f6e6c792061646d696e6973747261746f72732063616e2070726f6d6f74652060448201526a3334b939ba1037bbb732b960a91b6064820152608401610cfe565b60408051808201909152600d81526c30b236b4b734b9ba3930ba37b960991b602090910152600080516020617ee283398151915289016157fb57828061579b5750815b6156f25760405162461bcd60e51b815260206004820152603b6024820152600080516020617e6283398151915260448201527f616e2070726f6d6f746520746f2061646d696e6973747261746f7200000000006064820152608401610cfe565b6040805180820190915260068152653b34b2bbb2b960d11b602090910152600080516020617e8283398151915289016159275783156158c957828061584557508180156158455750805b6156f25760405162461bcd60e51b815260206004820152604960248201527f4f6e6c79206f776e6572732063616e2064656d6f7465206f74686572732e204160448201527f646d696e6973747261746f72732063616e206f6e6c792064656d6f746520746860648201526832b6b9b2b63b32b99760b91b608482015260a401610cfe565b816159275760405162461bcd60e51b815260206004820152602860248201527f4f6e6c792061646d696e6973747261746f72732063616e2064656d6f7465207460448201526737903b34b2bbb2b960c11b6064820152608401610cfe565b60408051808201909152600d81526c30b236b4b734b9ba3930ba37b960991b602090910152600080516020617ec2833981519152851480156159a657506040805180820190915260068152653b34b2bbb2b960d11b6020909101527f120310a1203e5851b63a4d0b2c5643d3fba07783d2b04d7222298a1ed22e1e0d89145b15615a455783615a4557600160068d6040516159c29190617977565b9081526040519081900360200190205411615a455760405162461bcd60e51b815260206004820152603960248201527f43616e6e6f742064656d6f746520746865206c6173742061646d696e6973747260448201527f61746f72207768656e206e6f206f776e657220657869737473000000000000006064820152608401610cfe565b615a508c8c886168c4565b615a5b8c8c8c616be5565b6000888152600460205260409020600201615a768b82617b0e565b50600088815260046020819052604091829020429101555133906001600160a01b038d1690615aa6908f90617977565b60405180910390207fa9b92b2b183a6569cac9b7675bea182897aa18a7ca2a6fb370a6f5825633961c898e42604051615ae193929190617d46565b60405180910390a4505050505050505050505050565b81516020818401810180516010825292820191850191909120919052805482908110610bfb57600080fd5b8151602081840181018051600682529282019185019190912091905280548290811061384b57600080fd5b606060008060008060008787604051602001615b6a929190617a52565b6040516020818303038152906040528051906020012090506000600460008381526020019081526020016000206040518060e0016040529081600082018054615bb29061793d565b80601f0160208091040260200160405190810160405280929190818152602001828054615bde9061793d565b8015615c2b5780601f10615c0057610100808354040283529160200191615c2b565b820191906000526020600020905b815481529060010190602001808311615c0e57829003601f168201915b505050918352505060018201546001600160a01b03166020820152600282018054604090920191615c5b9061793d565b80601f0160208091040260200160405190810160405280929190818152602001828054615c879061793d565b8015615cd45780601f10615ca957610100808354040283529160200191615cd4565b820191906000526020600020905b815481529060010190602001808311615cb757829003601f168201915b50505091835250506003820154602082015260048201546040808301919091526005909201546001600160a01b038116606080840191909152600160a01b90910460ff16151560809283015291830151918301519083015160a084015160c090940151929d919c509a509198509650945050505050565b6001600160a01b0381166000908152600c60209081526040808320805482518185028101850190935280835260609492939192909184015b82821015611164578382906000526020600020018054615da29061793d565b80601f0160208091040260200160405190810160405280929190818152602001828054615dce9061793d565b8015615e1b5780601f10615df057610100808354040283529160200191615e1b565b820191906000526020600020905b815481529060010190602001808311615dfe57829003601f168201915b505050505081526020019060010190615d83565b600080600060606000806000600a88604051615e4b9190617977565b908152602001604051809103902060405180610100016040529081600082018054615e759061793d565b80601f0160208091040260200160405190810160405280929190818152602001828054615ea19061793d565b8015615eee5780601f10615ec357610100808354040283529160200191615eee565b820191906000526020600020905b815481529060010190602001808311615ed157829003601f168201915b505050918352505060018201546001600160a01b0390811660208301526002830154166040820152600382018054606090920191615f2b9061793d565b80601f0160208091040260200160405190810160405280929190818152602001828054615f579061793d565b8015615fa45780601f10615f7957610100808354040283529160200191615fa4565b820191906000526020600020905b815481529060010190602001808311615f8757829003601f168201915b50505091835250506004820154602080830191909152600583015460408084019190915260069093015460ff808216151560608086019190915261010090920416151560809384015260c08501519185015193850151908501519285015160a090950151919d939c509a5090985091965090945092505050565b600a8160405161602e9190617977565b9081526040519081900360200190206006015460ff610100909104166160965760405162461bcd60e51b815260206004820152601960248201527f5065726d697373696f6e20646f6573206e6f74206578697374000000000000006044820152606401610cfe565b600a816040516160a69190617977565b9081526040519081900360200190206006015460ff166160fa5760405162461bcd60e51b815260206004820152600f60248201526e105b1c9958591e481c995d9bdad959608a1b6044820152606401610cfe565b6000600a8260405161610c9190617977565b908152604051908190036020018120600601805492151560ff19909316929092179091554290600a90616140908490617977565b908152602001604051809103902060050181905550600a816040516161659190617977565b908152604051908190036020018120600201546001600160a01b031690339061618f908490617977565b60405180910390207f24303533397c7c9c44f2c956200064d35c3459320ddcc9efeea95e384763bceb600a856040516161c89190617977565b9081526020016040518091039020600301426040516161e8929190617d7c565b60405180910390a450565b600e856040516162039190617977565b9081526040519081900360200190206004015460ff600160a01b9091041661623d5760405162461bcd60e51b8152600401610cfe90617993565b6000600e8660405161624f9190617977565b9081526020016040518091039020600101805461626b9061793d565b80601f01602080910402602001604051908101604052809291908181526020018280546162979061793d565b80156162e45780601f106162b9576101008083540402835291602001916162e4565b820191906000526020600020905b8154815290600101906020018083116162c757829003601f168201915b5050505050905060008133604051602001616300929190617a52565b60408051808303601f19018152918152815160209283012060008181526004909352912060050154909150600160a01b900460ff166163515760405162461bcd60e51b8152600401610cfe90617a89565b6013876040516163619190617977565b9081526040805160209281900383019020336000908152925290205460ff16156163cd5760405162461bcd60e51b815260206004820152601c60248201527f416c72656164792072657669657765642074686973207265636f7264000000006044820152606401610cfe565b60006012886040516163df9190617977565b9081526040519081900360200181205491506012906163ff908a90617977565b90815260200160405180910390206040518060e00160405280336001600160a01b0316815260200188600181111561643957616439616f0f565b815260200187600381111561645057616450616f0f565b815260200186600581111561646757616467616f0f565b815242602080830191909152604082018b90526001606090920182905283548083018555600094855293819020835160049095020180546001600160a01b031981166001600160a01b03909616958617825591840151939490939284926001600160a81b03191690911790600160a01b9084908111156164e9576164e9616f0f565b021790555060408201518154829060ff60a81b1916600160a81b83600381111561651557616515616f0f565b021790555060608201518154829060ff60b01b1916600160b01b83600581111561654157616541616f0f565b02179055506080820151600182015560a082015160028201906165649082617b0e565b5060c091909101516003909101805460ff1916911515919091179055604051600190601390616594908b90617977565b908152604080516020928190038301812033600090815293529120805460ff19169215159290921790915581906014906165cf908b90617977565b9081526040805160209281900383019020336000908152925281209190915560198054916165fc83617be3565b90915550506040513390616611908590617977565b6040518091039020896040516166279190617977565b60405180910390207f7113f0bf6c156de91047bc1021122f5e7103953f26c0628fdc1910ea15794b58898989426040516166649493929190617e10565b60405180910390a45050505050505050565b60006166a083836040518060400160405280600581526020016437bbb732b960d91b8152506166d2565b80613f145750613f1483836040518060400160405280600d81526020016c30b236b4b734b9ba3930ba37b960991b8152505b60008084846040516020016166e8929190617a52565b6040516020818303038152906040528051906020012090506000600460008381526020019081526020016000206040518060e00160405290816000820180546167309061793d565b80601f016020809104026020016040519081016040528092919081815260200182805461675c9061793d565b80156167a95780601f1061677e576101008083540402835291602001916167a9565b820191906000526020600020905b81548152906001019060200180831161678c57829003601f168201915b505050918352505060018201546001600160a01b031660208201526002820180546040909201916167d99061793d565b80601f01602080910402602001604051908101604052809291908181526020018280546168059061793d565b80156168525780601f1061682757610100808354040283529160200191616852565b820191906000526020600020905b81548152906001019060200180831161683557829003601f168201915b505050918352505060038201546020820152600482015460408201526005909101546001600160a01b0381166060830152600160a01b900460ff16151560809091015260c081015190915080156168ba57508380519060200120816040015180519060200120145b9695505050505050565b805160208083019190912060408051808201909152600581526437bbb732b960d91b920191909152600080516020617ea2833981519152810161692d576169286005856040516169149190617977565b908152602001604051809103902084616d42565b6169c0565b60408051808201909152600d81526c30b236b4b734b9ba3930ba37b960991b602090910152600080516020617ee2833981519152810161697a576169286006856040516169149190617977565b6040805180820190915260068152653b34b2bbb2b960d11b602090910152600080516020617e8283398151915281016169c0576169c06007856040516169149190617977565b50505050565b600084846040516020016169db929190617a52565b60408051808303601f1901815282825280516020918201206000818152600483528390206005015460e0850184528985526001600160a01b03891692850192909252918301869052909250600160a01b900460ff16906060810182616a405742616a53565b6000848152600460205260409020600301545b8152426020808301919091526001600160a01b0386166040808401919091526001606090930192909252600085815260049091522081518190616a969082617b0e565b5060208201516001820180546001600160a01b0319166001600160a01b0390921691909117905560408201516002820190616ad19082617b0e565b50606082015160038201556080820151600482015560a08201516005909101805460c0909301511515600160a01b026001600160a81b03199093166001600160a01b039092169190911791909117905580616b7a57616b31868686616be5565b6001600160a01b038516600090815260086020908152604082208054600181018255908352912001616b638782617b0e565b5060098054906000616b7483617be3565b91905055505b826001600160a01b0316856001600160a01b031687604051616b9c9190617977565b60405180910390207fb11bb86c7a250ec130229577f2dfa0480d10122b9b1c02fb81df81959f1a79118742604051616bd5929190617bfc565b60405180910390a4505050505050565b805160208083019190912060408051808201909152600581526437bbb732b960d91b920191909152600080516020617ea28339815191528101616c7157600584604051616c329190617977565b90815260405160209181900382019020805460018101825560009182529190200180546001600160a01b0319166001600160a01b0385161790556169c0565b60408051808201909152600d81526c30b236b4b734b9ba3930ba37b960991b602090910152600080516020617ee28339815191528101616cbb57600684604051616c329190617977565b6040805180820190915260068152653b34b2bbb2b960d11b602090910152600080516020617e8283398151915281016169c057600784604051616cfe9190617977565b908152604051908190036020908101909120805460018101825560009182529190200180546001600160a01b0385166001600160a01b031990911617905550505050565b60005b82548110156121b457816001600160a01b0316838281548110616d6a57616d6a6179c0565b6000918252602090912001546001600160a01b031603616e395782548390616d9490600190617e38565b81548110616da457616da46179c0565b9060005260206000200160009054906101000a90046001600160a01b0316838281548110616dd457616dd46179c0565b9060005260206000200160006101000a8154816001600160a01b0302191690836001600160a01b0316021790555082805480616e1257616e12617e4b565b600082815260209020810160001990810180546001600160a01b0319169055019055505050565b80616e4381617be3565b915050616d45565b80356001600160a01b0381168114616e6257600080fd5b919050565b60008060408385031215616e7a57600080fd5b616e8383616e4b565b946020939093013593505050565b60005b83811015616eac578181015183820152602001616e94565b50506000910152565b60008151808452616ecd816020860160208601616e91565b601f01601f19169290920160200192915050565b602081526000613f146020830184616eb5565b600060208284031215616f0657600080fd5b613f1482616e4b565b634e487b7160e01b600052602160045260246000fd5b60038110616f3557616f35616f0f565b9052565b6001600160a01b03851681526020810184905260808101616f5d6040830185616f25565b82606083015295945050505050565b600060208284031215616f7e57600080fd5b5035919050565b634e487b7160e01b600052604160045260246000fd5b600082601f830112616fac57600080fd5b81356001600160401b0380821115616fc657616fc6616f85565b604051601f8301601f19908116603f01168101908282118183101715616fee57616fee616f85565b8160405283815286602085880101111561700757600080fd5b836020870160208301376000602085830101528094505050505092915050565b803560ff81168114616e6257600080fd5b60008060006060848603121561704d57600080fd5b83356001600160401b0381111561706357600080fd5b61706f86828701616f9b565b93505061707e60208501617027565b915061708c60408501617027565b90509250925092565b6000602080830181845280855180835260408601915060408160051b870101925083870160005b828110156170ea57603f198886030184526170d8858351616eb5565b945092850192908501906001016170bc565b5092979650505050505050565b6000806040838503121561710a57600080fd5b82356001600160401b0381111561712057600080fd5b61712c85828601616f9b565b92505061713b60208401616e4b565b90509250929050565b602080825282518282018190526000919060409081850190868401855b8281101561719b57815180516001600160a01b03168552868101511515878601528501518585015260609093019290850190600101617161565b5091979650505050505050565b6000806000606084860312156171bd57600080fd5b83356001600160401b03808211156171d457600080fd5b6171e087838801616f9b565b945060208601359150808211156171f657600080fd5b5061720386828701616f9b565b92505061708c60408501616e4b565b60006020828403121561722457600080fd5b81356001600160401b0381111561723a57600080fd5b61514584828501616f9b565b6020808252825182820181905260009190848201906040850190845b818110156172875783516001600160a01b031683529284019291840191600101617262565b50909695505050505050565b600080600080608085870312156172a957600080fd5b84356001600160401b03808211156172c057600080fd5b6172cc88838901616f9b565b95506172da60208801617027565b94506172e860408801617027565b935060608701359150808211156172fe57600080fd5b5061730b87828801616f9b565b91505092959194509250565b60028110616f3557616f35616f0f565b60048110616f3557616f35616f0f565b60068110616f3557616f35616f0f565b60006020808301818452808551808352604092508286019150828160051b87010184880160005b8381101561740d57888303603f19018552815180516001600160a01b031684528781015160e0906173a18a870182617317565b50878201516173b289870182617327565b506060808301516173c582880182617337565b5050608080830151818701525060a08083015182828801526173e983880182616eb5565b60c0948501511515979094019690965250509487019492509086019060010161736e565b509098975050505050505050565b8381526060810161742f6020830185616f25565b826040830152949350505050565b60008060006060848603121561745257600080fd5b83356001600160401b0381111561746857600080fd5b61747486828701616f9b565b93505061748360208501616e4b565b9150604084013590509250925092565b60e0815260006174a660e083018a616eb5565b6001600160a01b03898116602085015283820360408501526174c8828a616eb5565b6060850198909852608084019690965250509190921660a082015290151560c0909101529392505050565b60006101008083526175078184018c616eb5565b6001600160a01b038b811660208601528a166040850152838103606085015290506175328189616eb5565b6080840197909752505060a081019390935290151560c0830152151560e090910152949350505050565b6000806040838503121561756f57600080fd5b82356001600160401b038082111561758657600080fd5b61759286838701616f9b565b935060208501359150808211156175a857600080fd5b506175b585828601616f9b565b9150509250929050565b600080604083850312156175d257600080fd5b6175db83616e4b565b91506020830135600381106175ef57600080fd5b809150509250929050565b60c08152600061760d60c0830189616eb5565b828103602084015261761f8189616eb5565b6001600160a01b0397881660408501526060840196909652505091909316608082015291151560a09092019190915292915050565b60008060006060848603121561766957600080fd5b83356001600160401b0381111561767f57600080fd5b61768b86828701616f9b565b93505061769a60208501616e4b565b915061708c60408501616e4b565b600080604083850312156176bb57600080fd5b82356001600160401b038111156176d157600080fd5b6176dd85828601616f9b565b95602094909401359450505050565b6001600160a01b03881681526177056020820188617317565b6177126040820187617327565b61771f6060820186617337565b83608082015260e060a0820152600061773b60e0830185616eb5565b905082151560c083015298975050505050505050565b60008060006060848603121561776657600080fd5b83356001600160401b0381111561777c57600080fd5b61778886828701616f9b565b93505061779760208501616e4b565b9150604084013580151581146177ac57600080fd5b809150509250925092565b85151581526177c96020820186617317565b83604082015260a0606082015260006177e560a0830185616eb5565b905082151560808301529695505050505050565b60a08152600061780c60a0830188616eb5565b6001600160a01b039687166020840152604083019590955250919093166060820152911515608090920191909152919050565b60008060006060848603121561785457600080fd5b83356001600160401b038082111561786b57600080fd5b61787787838801616f9b565b945061788560208701616e4b565b9350604086013591508082111561789b57600080fd5b506178a886828701616f9b565b9150509250925092565b60a0815260006178c560a0830188616eb5565b60208301969096525060408101939093526001600160a01b039190911660608301521515608090910152919050565b86151581526001600160a01b0386811660208301528516604082015260c06060820181905260009061792890830186616eb5565b60808301949094525060a00152949350505050565b600181811c9082168061795157607f821691505b60208210810361797157634e487b7160e01b600052602260045260246000fd5b50919050565b60008251617989818460208701616e91565b9190910192915050565b602080825260139082015272149958dbdc99081b9bdd08185b98da1bdc9959606a1b604082015260600190565b634e487b7160e01b600052603260045260246000fd5b60a081016179e48288617327565b6179f16020830187617327565b6179fe6040830186617337565b617a0b6060830185617337565b8260808301529695505050505050565b60208082526019908201527f5265636f72642049442063616e6e6f7420626520656d70747900000000000000604082015260600190565b60008351617a64818460208801616e91565b60609390931b6bffffffffffffffffffffffff19169190920190815260140192915050565b60208082526018908201527f4e6f2061636365737320746f2074686973207265636f72640000000000000000604082015260600190565b601f8211156121b457600081815260208120601f850160051c81016020861015617ae75750805b601f850160051c820191505b81811015617b0657828155600101617af3565b505050505050565b81516001600160401b03811115617b2757617b27616f85565b617b3b81617b35845461793d565b84617ac0565b602080601f831160018114617b705760008415617b585750858301515b600019600386901b1c1916600185901b178555617b06565b600085815260208120601f198616915b82811015617b9f57888601518255948401946001909101908401617b80565b5085821015617bbd5787850151600019600388901b60f8161c191681555b5050505050600190811b01905550565b634e487b7160e01b600052601160045260246000fd5b600060018201617bf557617bf5617bcd565b5060010190565b604081526000617c0f6040830185616eb5565b90508260208301529392505050565b6020808252600a908201526927b7363c9030b236b4b760b11b604082015260600190565b60608101617c508286616f25565b61742f6020830185616f25565b6020808252601b908201527f5573657220616464726573732063616e6e6f74206265207a65726f0000000000604082015260600190565b60208082526021908201527f5573657220646f6573206e6f74206861766520616e2061637469766520726f6c6040820152606560f81b606082015260800190565b60408101617ce38285617317565b8260208301529392505050565b60208082526036908201527f496e76616c696420726f6c652e204d7573742062653a206f776e65722c20616460408201527536b4b734b9ba3930ba37b9161037b9103b34b2bbb2b960511b606082015260800190565b606081526000617d596060830186616eb5565b8281036020840152617d6b8186616eb5565b915050826040830152949350505050565b604081526000808454617d8e8161793d565b8060408601526060600180841660008114617db05760018114617dca57617dfb565b60ff1985168884015283151560051b880183019550617dfb565b8960005260208060002060005b86811015617df25781548b8201870152908401908201617dd7565b8a018501975050505b50505050506020929092019290925292915050565b60808101617e1e8287617317565b617e2b6020830186617327565b616f5d6040830185617337565b8181038181111561121f5761121f617bcd565b634e487b7160e01b600052603160045260246000fdfe4f6e6c79206f776e65727320616e642061646d696e6973747261746f72732063edfcef5edfc1a7ae49c5b2f4d3a9bc2c045f887c2d4fb28dddd675e12dd1e1f3fdfe97c95a948e0f2fd9761961cd90b0b3e46fa8e9b10a6d98e30f2c837fbf40b9f092e3b1ecc5f16749a6a275c159ead9cf216a95a0b902d2f260f98f91b9a0460f6d1c4e133a0e98b6595d8a3ea6152630de956a5f46fd2d0d9f06706e4660a26469706673582212206e06c6a0c8de0d03b69bc07fd4ebfbf49b57043b151457e21296d977bc96f2dc64736f6c63430008130033","opcodes":"PUSH1 0x80 PUSH1 0x40 MSTORE CALLVALUE DUP1 ISZERO PUSH2 0x10 JUMPI PUSH1 0x0 DUP1 REVERT JUMPDEST POP PUSH1 0x0 DUP1 SLOAD PUSH1 0x1 PUSH1 0x1 PUSH1 0xA0 SHL SUB NOT AND CALLER OR SWAP1 SSTORE PUSH2 0x7F37 DUP1 PUSH3 0x33 PUSH1 0x0 CODECOPY PUSH1 0x0 RETURN INVALID PUSH1 0x80 PUSH1 0x40 MSTORE CALLVALUE DUP1 ISZERO PUSH2 0x10 JUMPI PUSH1 0x0 DUP1 REVERT JUMPDEST POP PUSH1 0x4 CALLDATASIZE LT PUSH2 0x433 JUMPI PUSH1 0x0 CALLDATALOAD PUSH1 0xE0 SHR DUP1 PUSH4 0x75829DEF GT PUSH2 0x236 JUMPI DUP1 PUSH4 0xB10E4A0B GT PUSH2 0x13B JUMPI DUP1 PUSH4 0xE0F3E86E GT PUSH2 0xC3 JUMPI DUP1 PUSH4 0xF25B7F45 GT PUSH2 0x87 JUMPI DUP1 PUSH4 0xF25B7F45 EQ PUSH2 0xB76 JUMPI DUP1 PUSH4 0xF6CC55F9 EQ PUSH2 0xB89 JUMPI DUP1 PUSH4 0xF851A440 EQ PUSH2 0xBAE JUMPI DUP1 PUSH4 0xFB310C59 EQ PUSH2 0xBC1 JUMPI DUP1 PUSH4 0xFC5CBF1D EQ PUSH2 0xBD4 JUMPI PUSH1 0x0 DUP1 REVERT JUMPDEST DUP1 PUSH4 0xE0F3E86E EQ PUSH2 0xAE8 JUMPI DUP1 PUSH4 0xE2367890 EQ PUSH2 0xB23 JUMPI DUP1 PUSH4 0xE589425E EQ PUSH2 0xB2C JUMPI DUP1 PUSH4 0xE965BFB7 EQ PUSH2 0xB3F JUMPI DUP1 PUSH4 0xEB2BBF25 EQ PUSH2 0xB52 JUMPI PUSH1 0x0 DUP1 REVERT JUMPDEST DUP1 PUSH4 0xBED6E79E GT PUSH2 0x10A JUMPI DUP1 PUSH4 0xBED6E79E EQ PUSH2 0xA89 JUMPI DUP1 PUSH4 0xBFB0A55B EQ PUSH2 0xA9C JUMPI DUP1 PUSH4 0xC542EF40 EQ PUSH2 0xAAF JUMPI DUP1 PUSH4 0xCABDD23F EQ PUSH2 0xAC2 JUMPI DUP1 PUSH4 0xDAA9DC23 EQ PUSH2 0xAD5 JUMPI PUSH1 0x0 DUP1 REVERT JUMPDEST DUP1 PUSH4 0xB10E4A0B EQ PUSH2 0xA2C JUMPI DUP1 PUSH4 0xB55AEFCC EQ PUSH2 0xA3F JUMPI DUP1 PUSH4 0xB5D3BC05 EQ PUSH2 0xA52 JUMPI DUP1 PUSH4 0xBB20B172 EQ PUSH2 0xA76 JUMPI PUSH1 0x0 DUP1 REVERT JUMPDEST DUP1 PUSH4 0x889A7EEE GT PUSH2 0x1BE JUMPI DUP1 PUSH4 0xA0653611 GT PUSH2 0x18D JUMPI DUP1 PUSH4 0xA0653611 EQ PUSH2 0x9BC JUMPI DUP1 PUSH4 0xA0CA13C3 EQ PUSH2 0x9CF JUMPI DUP1 PUSH4 0xA5A6958E EQ PUSH2 0x9E2 JUMPI DUP1 PUSH4 0xAA85BF3F EQ PUSH2 0xA06 JUMPI DUP1 PUSH4 0xAD6F0281 EQ PUSH2 0xA19 JUMPI PUSH1 0x0 DUP1 REVERT JUMPDEST DUP1 PUSH4 0x889A7EEE EQ PUSH2 0x947 JUMPI DUP1 PUSH4 0x9020666B EQ PUSH2 0x96D JUMPI DUP1 PUSH4 0x970EE5B9 EQ PUSH2 0x996 JUMPI DUP1 PUSH4 0x9E90E34A EQ PUSH2 0x9A9 JUMPI PUSH1 0x0 DUP1 REVERT JUMPDEST DUP1 PUSH4 0x7EA79E9C GT PUSH2 0x205 JUMPI DUP1 PUSH4 0x7EA79E9C EQ PUSH2 0x87A JUMPI DUP1 PUSH4 0x80FCD817 EQ PUSH2 0x89F JUMPI DUP1 PUSH4 0x81C86B33 EQ PUSH2 0x8DD JUMPI DUP1 PUSH4 0x8625D384 EQ PUSH2 0x8F0 JUMPI DUP1 PUSH4 0x86C097F7 EQ PUSH2 0x934 JUMPI PUSH1 0x0 DUP1 REVERT JUMPDEST DUP1 PUSH4 0x75829DEF EQ PUSH2 0x842 JUMPI DUP1 PUSH4 0x76E92559 EQ PUSH2 0x855 JUMPI DUP1 PUSH4 0x7798E780 EQ PUSH2 0x85E JUMPI DUP1 PUSH4 0x790E118C EQ PUSH2 0x871 JUMPI PUSH1 0x0 DUP1 REVERT JUMPDEST DUP1 PUSH4 0x37811534 GT PUSH2 0x33C JUMPI DUP1 PUSH4 0x45ECD02F GT PUSH2 0x2C4 JUMPI DUP1 PUSH4 0x510B3003 GT PUSH2 0x293 JUMPI DUP1 PUSH4 0x510B3003 EQ PUSH2 0x7E3 JUMPI DUP1 PUSH4 0x57AC40C3 EQ PUSH2 0x7F6 JUMPI DUP1 PUSH4 0x6B032610 EQ PUSH2 0x809 JUMPI DUP1 PUSH4 0x6E715743 EQ PUSH2 0x81C JUMPI DUP1 PUSH4 0x731F21A0 EQ PUSH2 0x82F JUMPI PUSH1 0x0 DUP1 REVERT JUMPDEST DUP1 PUSH4 0x45ECD02F EQ PUSH2 0x7A2 JUMPI DUP1 PUSH4 0x47580B56 EQ PUSH2 0x7B5 JUMPI DUP1 PUSH4 0x49DF7208 EQ PUSH2 0x7C8 JUMPI DUP1 PUSH4 0x4B6FEB7C EQ PUSH2 0x7DB JUMPI PUSH1 0x0 DUP1 REVERT JUMPDEST DUP1 PUSH4 0x3CFBC7CB GT PUSH2 0x30B JUMPI DUP1 PUSH4 0x3CFBC7CB EQ PUSH2 0x728 JUMPI DUP1 PUSH4 0x3DD1E8FC EQ PUSH2 0x73B JUMPI DUP1 PUSH4 0x3DE2E8E9 EQ PUSH2 0x74E JUMPI DUP1 PUSH4 0x3ECD54BE EQ PUSH2 0x761 JUMPI DUP1 PUSH4 0x41D8BDE3 EQ PUSH2 0x78F JUMPI PUSH1 0x0 DUP1 REVERT JUMPDEST DUP1 PUSH4 0x37811534 EQ PUSH2 0x6D3 JUMPI DUP1 PUSH4 0x3935B076 EQ PUSH2 0x6DB JUMPI DUP1 PUSH4 0x3A779568 EQ PUSH2 0x6EE JUMPI DUP1 PUSH4 0x3AAAAF88 EQ PUSH2 0x701 JUMPI PUSH1 0x0 DUP1 REVERT JUMPDEST DUP1 PUSH4 0x1AF43C91 GT PUSH2 0x3BF JUMPI DUP1 PUSH4 0x2978465D GT PUSH2 0x38E JUMPI DUP1 PUSH4 0x2978465D EQ PUSH2 0x62A JUMPI DUP1 PUSH4 0x2ADA2596 EQ PUSH2 0x64A JUMPI DUP1 PUSH4 0x2EC1CA8A EQ PUSH2 0x66C JUMPI DUP1 PUSH4 0x328C5AA1 EQ PUSH2 0x675 JUMPI DUP1 PUSH4 0x33105592 EQ PUSH2 0x6AD JUMPI PUSH1 0x0 DUP1 REVERT JUMPDEST DUP1 PUSH4 0x1AF43C91 EQ PUSH2 0x592 JUMPI DUP1 PUSH4 0x1CF8CBE8 EQ PUSH2 0x5A5 JUMPI DUP1 PUSH4 0x1EB4BB87 EQ PUSH2 0x5BC JUMPI DUP1 PUSH4 0x291C2B16 EQ PUSH2 0x607 JUMPI PUSH1 0x0 DUP1 REVERT JUMPDEST DUP1 PUSH4 0x10A0E88A GT PUSH2 0x406 JUMPI DUP1 PUSH4 0x10A0E88A EQ PUSH2 0x50A JUMPI DUP1 PUSH4 0x1469FAB7 EQ PUSH2 0x51F JUMPI DUP1 PUSH4 0x1655408D EQ PUSH2 0x53F JUMPI DUP1 PUSH4 0x19C61953 EQ PUSH2 0x55F JUMPI DUP1 PUSH4 0x1A95ACA5 EQ PUSH2 0x572 JUMPI PUSH1 0x0 DUP1 REVERT JUMPDEST DUP1 PUSH4 0x3635170 EQ PUSH2 0x438 JUMPI DUP1 PUSH4 0x8AE4B0C EQ PUSH2 0x461 JUMPI DUP1 PUSH4 0x9012A86 EQ PUSH2 0x4B6 JUMPI DUP1 PUSH4 0xC6DE840 EQ PUSH2 0x4F7 JUMPI JUMPDEST PUSH1 0x0 DUP1 REVERT JUMPDEST PUSH2 0x44B PUSH2 0x446 CALLDATASIZE PUSH1 0x4 PUSH2 0x6E67 JUMP JUMPDEST PUSH2 0xBDF JUMP JUMPDEST PUSH1 0x40 MLOAD PUSH2 0x458 SWAP2 SWAP1 PUSH2 0x6EE1 JUMP JUMPDEST PUSH1 0x40 MLOAD DUP1 SWAP2 SUB SWAP1 RETURN JUMPDEST PUSH2 0x4A6 PUSH2 0x46F CALLDATASIZE PUSH1 0x4 PUSH2 0x6EF4 JUMP JUMPDEST PUSH1 0x1 PUSH1 0x20 DUP2 SWAP1 MSTORE PUSH1 0x0 SWAP2 DUP3 MSTORE PUSH1 0x40 SWAP1 SWAP2 KECCAK256 DUP1 SLOAD SWAP2 DUP2 ADD SLOAD PUSH1 0x2 DUP3 ADD SLOAD PUSH1 0x3 SWAP1 SWAP3 ADD SLOAD PUSH1 0x1 PUSH1 0x1 PUSH1 0xA0 SHL SUB SWAP1 SWAP4 AND SWAP3 SWAP1 SWAP2 PUSH1 0xFF AND SWAP1 DUP5 JUMP JUMPDEST PUSH1 0x40 MLOAD PUSH2 0x458 SWAP5 SWAP4 SWAP3 SWAP2 SWAP1 PUSH2 0x6F39 JUMP JUMPDEST PUSH2 0x4DF PUSH2 0x4C4 CALLDATASIZE PUSH1 0x4 PUSH2 0x6F6C JUMP JUMPDEST PUSH1 0x0 SWAP1 DUP2 MSTORE PUSH1 0x2 PUSH1 0x20 MSTORE PUSH1 0x40 SWAP1 KECCAK256 SLOAD PUSH1 0x1 PUSH1 0x1 PUSH1 0xA0 SHL SUB AND SWAP1 JUMP JUMPDEST PUSH1 0x40 MLOAD PUSH1 0x1 PUSH1 0x1 PUSH1 0xA0 SHL SUB SWAP1 SWAP2 AND DUP2 MSTORE PUSH1 0x20 ADD PUSH2 0x458 JUMP JUMPDEST PUSH2 0x44B PUSH2 0x505 CALLDATASIZE PUSH1 0x4 PUSH2 0x6E67 JUMP JUMPDEST PUSH2 0xC98 JUMP JUMPDEST PUSH2 0x51D PUSH2 0x518 CALLDATASIZE PUSH1 0x4 PUSH2 0x7038 JUMP JUMPDEST PUSH2 0xCB4 JUMP JUMPDEST STOP JUMPDEST PUSH2 0x532 PUSH2 0x52D CALLDATASIZE PUSH1 0x4 PUSH2 0x6EF4 JUMP JUMPDEST PUSH2 0x1080 JUMP JUMPDEST PUSH1 0x40 MLOAD PUSH2 0x458 SWAP2 SWAP1 PUSH2 0x7095 JUMP JUMPDEST PUSH2 0x552 PUSH2 0x54D CALLDATASIZE PUSH1 0x4 PUSH2 0x70F7 JUMP JUMPDEST PUSH2 0x116F JUMP JUMPDEST PUSH1 0x40 MLOAD PUSH2 0x458 SWAP2 SWAP1 PUSH2 0x7144 JUMP JUMPDEST PUSH2 0x51D PUSH2 0x56D CALLDATASIZE PUSH1 0x4 PUSH2 0x71A8 JUMP JUMPDEST PUSH2 0x1225 JUMP JUMPDEST PUSH2 0x585 PUSH2 0x580 CALLDATASIZE PUSH1 0x4 PUSH2 0x7212 JUMP JUMPDEST PUSH2 0x1589 JUMP JUMPDEST PUSH1 0x40 MLOAD PUSH2 0x458 SWAP2 SWAP1 PUSH2 0x7246 JUMP JUMPDEST PUSH2 0x51D PUSH2 0x5A0 CALLDATASIZE PUSH1 0x4 PUSH2 0x7293 JUMP JUMPDEST PUSH2 0x1603 JUMP JUMPDEST PUSH2 0x5AE PUSH1 0x11 SLOAD DUP2 JUMP JUMPDEST PUSH1 0x40 MLOAD SWAP1 DUP2 MSTORE PUSH1 0x20 ADD PUSH2 0x458 JUMP JUMPDEST PUSH2 0x5F2 PUSH2 0x5CA CALLDATASIZE PUSH1 0x4 PUSH2 0x6EF4 JUMP JUMPDEST PUSH1 0x1 PUSH1 0x1 PUSH1 0xA0 SHL SUB AND PUSH1 0x0 SWAP1 DUP2 MSTORE PUSH1 0x17 PUSH1 0x20 SWAP1 DUP2 MSTORE PUSH1 0x40 DUP1 DUP4 KECCAK256 SLOAD PUSH1 0x18 SWAP1 SWAP3 MSTORE SWAP1 SWAP2 KECCAK256 SLOAD SWAP1 SWAP2 JUMP JUMPDEST PUSH1 0x40 DUP1 MLOAD SWAP3 DUP4 MSTORE PUSH1 0x20 DUP4 ADD SWAP2 SWAP1 SWAP2 MSTORE ADD PUSH2 0x458 JUMP JUMPDEST PUSH2 0x61A PUSH2 0x615 CALLDATASIZE PUSH1 0x4 PUSH2 0x70F7 JUMP JUMPDEST PUSH2 0x16C4 JUMP JUMPDEST PUSH1 0x40 MLOAD SWAP1 ISZERO ISZERO DUP2 MSTORE PUSH1 0x20 ADD PUSH2 0x458 JUMP JUMPDEST PUSH2 0x63D PUSH2 0x638 CALLDATASIZE PUSH1 0x4 PUSH2 0x7212 JUMP JUMPDEST PUSH2 0x1705 JUMP JUMPDEST PUSH1 0x40 MLOAD PUSH2 0x458 SWAP2 SWAP1 PUSH2 0x7347 JUMP JUMPDEST PUSH2 0x65D PUSH2 0x658 CALLDATASIZE PUSH1 0x4 PUSH2 0x6EF4 JUMP JUMPDEST PUSH2 0x18D9 JUMP JUMPDEST PUSH1 0x40 MLOAD PUSH2 0x458 SWAP4 SWAP3 SWAP2 SWAP1 PUSH2 0x741B JUMP JUMPDEST PUSH2 0x5AE PUSH1 0xD SLOAD DUP2 JUMP JUMPDEST PUSH2 0x688 PUSH2 0x683 CALLDATASIZE PUSH1 0x4 PUSH2 0x743D JUMP JUMPDEST PUSH2 0x1972 JUMP JUMPDEST PUSH1 0x40 DUP1 MLOAD PUSH1 0x1 PUSH1 0x1 PUSH1 0xA0 SHL SUB SWAP1 SWAP5 AND DUP5 MSTORE SWAP2 ISZERO ISZERO PUSH1 0x20 DUP5 ADD MSTORE SWAP1 DUP3 ADD MSTORE PUSH1 0x60 ADD PUSH2 0x458 JUMP JUMPDEST PUSH2 0x6C0 PUSH2 0x6BB CALLDATASIZE PUSH1 0x4 PUSH2 0x6F6C JUMP JUMPDEST PUSH2 0x19DA JUMP JUMPDEST PUSH1 0x40 MLOAD PUSH2 0x458 SWAP8 SWAP7 SWAP6 SWAP5 SWAP4 SWAP3 SWAP2 SWAP1 PUSH2 0x7493 JUMP JUMPDEST PUSH1 0xD SLOAD PUSH2 0x5AE JUMP JUMPDEST PUSH2 0x51D PUSH2 0x6E9 CALLDATASIZE PUSH1 0x4 PUSH2 0x71A8 JUMP JUMPDEST PUSH2 0x1B44 JUMP JUMPDEST PUSH2 0x44B PUSH2 0x6FC CALLDATASIZE PUSH1 0x4 PUSH2 0x6E67 JUMP JUMPDEST PUSH2 0x1EBD JUMP JUMPDEST PUSH2 0x714 PUSH2 0x70F CALLDATASIZE PUSH1 0x4 PUSH2 0x7212 JUMP JUMPDEST PUSH2 0x1ED9 JUMP JUMPDEST PUSH1 0x40 MLOAD PUSH2 0x458 SWAP9 SWAP8 SWAP7 SWAP6 SWAP5 SWAP4 SWAP3 SWAP2 SWAP1 PUSH2 0x74F3 JUMP JUMPDEST PUSH2 0x5F2 PUSH2 0x736 CALLDATASIZE PUSH1 0x4 PUSH2 0x70F7 JUMP JUMPDEST PUSH2 0x204E JUMP JUMPDEST PUSH2 0x585 PUSH2 0x749 CALLDATASIZE PUSH1 0x4 PUSH2 0x7212 JUMP JUMPDEST PUSH2 0x216A JUMP JUMPDEST PUSH2 0x51D PUSH2 0x75C CALLDATASIZE PUSH1 0x4 PUSH2 0x755C JUMP JUMPDEST PUSH2 0x217C JUMP JUMPDEST PUSH2 0x774 PUSH2 0x76F CALLDATASIZE PUSH1 0x4 PUSH2 0x7212 JUMP JUMPDEST PUSH2 0x21B9 JUMP JUMPDEST PUSH1 0x40 DUP1 MLOAD SWAP4 DUP5 MSTORE PUSH1 0x20 DUP5 ADD SWAP3 SWAP1 SWAP3 MSTORE SWAP1 DUP3 ADD MSTORE PUSH1 0x60 ADD PUSH2 0x458 JUMP JUMPDEST PUSH2 0x774 PUSH2 0x79D CALLDATASIZE PUSH1 0x4 PUSH2 0x7212 JUMP JUMPDEST PUSH2 0x2449 JUMP JUMPDEST PUSH2 0x61A PUSH2 0x7B0 CALLDATASIZE PUSH1 0x4 PUSH2 0x6EF4 JUMP JUMPDEST PUSH2 0x24BA JUMP JUMPDEST PUSH2 0x44B PUSH2 0x7C3 CALLDATASIZE PUSH1 0x4 PUSH2 0x6E67 JUMP JUMPDEST PUSH2 0x24F6 JUMP JUMPDEST PUSH2 0x51D PUSH2 0x7D6 CALLDATASIZE PUSH1 0x4 PUSH2 0x6E67 JUMP JUMPDEST PUSH2 0x2512 JUMP JUMPDEST PUSH1 0x9 SLOAD PUSH2 0x5AE JUMP JUMPDEST PUSH2 0x585 PUSH2 0x7F1 CALLDATASIZE PUSH1 0x4 PUSH2 0x7212 JUMP JUMPDEST PUSH2 0x275C JUMP JUMPDEST PUSH2 0x532 PUSH2 0x804 CALLDATASIZE PUSH1 0x4 PUSH2 0x6EF4 JUMP JUMPDEST PUSH2 0x276E JUMP JUMPDEST PUSH2 0x5F2 PUSH2 0x817 CALLDATASIZE PUSH1 0x4 PUSH2 0x6EF4 JUMP JUMPDEST PUSH2 0x2852 JUMP JUMPDEST PUSH2 0x51D PUSH2 0x82A CALLDATASIZE PUSH1 0x4 PUSH2 0x75BF JUMP JUMPDEST PUSH2 0x29BB JUMP JUMPDEST PUSH2 0x51D PUSH2 0x83D CALLDATASIZE PUSH1 0x4 PUSH2 0x70F7 JUMP JUMPDEST PUSH2 0x2B69 JUMP JUMPDEST PUSH2 0x51D PUSH2 0x850 CALLDATASIZE PUSH1 0x4 PUSH2 0x6EF4 JUMP JUMPDEST PUSH2 0x3156 JUMP JUMPDEST PUSH2 0x5AE PUSH1 0x3 SLOAD DUP2 JUMP JUMPDEST PUSH2 0x51D PUSH2 0x86C CALLDATASIZE PUSH1 0x4 PUSH2 0x70F7 JUMP JUMPDEST PUSH2 0x322E JUMP JUMPDEST PUSH2 0x5AE PUSH1 0x9 SLOAD DUP2 JUMP JUMPDEST PUSH2 0x88D PUSH2 0x888 CALLDATASIZE PUSH1 0x4 PUSH2 0x7212 JUMP JUMPDEST PUSH2 0x33E1 JUMP JUMPDEST PUSH1 0x40 MLOAD PUSH2 0x458 SWAP7 SWAP6 SWAP5 SWAP4 SWAP3 SWAP2 SWAP1 PUSH2 0x75FA JUMP JUMPDEST PUSH2 0x61A PUSH2 0x8AD CALLDATASIZE PUSH1 0x4 PUSH2 0x70F7 JUMP JUMPDEST DUP2 MLOAD PUSH1 0x20 DUP2 DUP5 ADD DUP2 ADD DUP1 MLOAD PUSH1 0x13 DUP3 MSTORE SWAP3 DUP3 ADD SWAP5 DUP3 ADD SWAP5 SWAP1 SWAP5 KECCAK256 SWAP2 SWAP1 SWAP4 MSTORE SWAP1 SWAP2 MSTORE PUSH1 0x0 SWAP1 DUP2 MSTORE PUSH1 0x40 SWAP1 KECCAK256 SLOAD PUSH1 0xFF AND DUP2 JUMP JUMPDEST PUSH2 0x532 PUSH2 0x8EB CALLDATASIZE PUSH1 0x4 PUSH2 0x7212 JUMP JUMPDEST PUSH2 0x3544 JUMP JUMPDEST PUSH2 0x61A PUSH2 0x8FE CALLDATASIZE PUSH1 0x4 PUSH2 0x7654 JUMP JUMPDEST DUP3 MLOAD PUSH1 0x20 DUP2 DUP6 ADD DUP2 ADD DUP1 MLOAD PUSH1 0x16 DUP3 MSTORE SWAP3 DUP3 ADD SWAP6 DUP3 ADD SWAP6 SWAP1 SWAP6 KECCAK256 SWAP2 SWAP1 SWAP5 MSTORE DUP4 MSTORE PUSH1 0x0 SWAP2 DUP3 MSTORE PUSH1 0x40 DUP1 DUP4 KECCAK256 SWAP1 SWAP4 MSTORE DUP2 MSTORE KECCAK256 SLOAD PUSH1 0xFF AND DUP2 JUMP JUMPDEST PUSH2 0x532 PUSH2 0x942 CALLDATASIZE PUSH1 0x4 PUSH2 0x6EF4 JUMP JUMPDEST PUSH2 0x3630 JUMP JUMPDEST PUSH2 0x95A PUSH2 0x955 CALLDATASIZE PUSH1 0x4 PUSH2 0x76A8 JUMP JUMPDEST PUSH2 0x3714 JUMP JUMPDEST PUSH1 0x40 MLOAD PUSH2 0x458 SWAP8 SWAP7 SWAP6 SWAP5 SWAP4 SWAP3 SWAP2 SWAP1 PUSH2 0x76EC JUMP JUMPDEST PUSH2 0x4DF PUSH2 0x97B CALLDATASIZE PUSH1 0x4 PUSH2 0x6F6C JUMP JUMPDEST PUSH1 0x2 PUSH1 0x20 MSTORE PUSH1 0x0 SWAP1 DUP2 MSTORE PUSH1 0x40 SWAP1 KECCAK256 SLOAD PUSH1 0x1 PUSH1 0x1 PUSH1 0xA0 SHL SUB AND DUP2 JUMP JUMPDEST PUSH2 0x4DF PUSH2 0x9A4 CALLDATASIZE PUSH1 0x4 PUSH2 0x76A8 JUMP JUMPDEST PUSH2 0x3820 JUMP JUMPDEST PUSH2 0x51D PUSH2 0x9B7 CALLDATASIZE PUSH1 0x4 PUSH2 0x7751 JUMP JUMPDEST PUSH2 0x3867 JUMP JUMPDEST PUSH2 0x44B PUSH2 0x9CA CALLDATASIZE PUSH1 0x4 PUSH2 0x6E67 JUMP JUMPDEST PUSH2 0x3EEC JUMP JUMPDEST PUSH2 0x61A PUSH2 0x9DD CALLDATASIZE PUSH1 0x4 PUSH2 0x70F7 JUMP JUMPDEST PUSH2 0x3F08 JUMP JUMPDEST PUSH2 0x9F5 PUSH2 0x9F0 CALLDATASIZE PUSH1 0x4 PUSH2 0x70F7 JUMP JUMPDEST PUSH2 0x3F1B JUMP JUMPDEST PUSH1 0x40 MLOAD PUSH2 0x458 SWAP6 SWAP5 SWAP4 SWAP3 SWAP2 SWAP1 PUSH2 0x77B7 JUMP JUMPDEST PUSH2 0x51D PUSH2 0xA14 CALLDATASIZE PUSH1 0x4 PUSH2 0x7212 JUMP JUMPDEST PUSH2 0x4191 JUMP JUMPDEST PUSH2 0x4DF PUSH2 0xA27 CALLDATASIZE PUSH1 0x4 PUSH2 0x7212 JUMP JUMPDEST PUSH2 0x43C4 JUMP JUMPDEST PUSH2 0x51D PUSH2 0xA3A CALLDATASIZE PUSH1 0x4 PUSH2 0x7212 JUMP JUMPDEST PUSH2 0x446A JUMP JUMPDEST PUSH2 0x4DF PUSH2 0xA4D CALLDATASIZE PUSH1 0x4 PUSH2 0x76A8 JUMP JUMPDEST PUSH2 0x463A JUMP JUMPDEST PUSH2 0xA65 PUSH2 0xA60 CALLDATASIZE PUSH1 0x4 PUSH2 0x7212 JUMP JUMPDEST PUSH2 0x4665 JUMP JUMPDEST PUSH1 0x40 MLOAD PUSH2 0x458 SWAP6 SWAP5 SWAP4 SWAP3 SWAP2 SWAP1 PUSH2 0x77F9 JUMP JUMPDEST PUSH2 0x51D PUSH2 0xA84 CALLDATASIZE PUSH1 0x4 PUSH2 0x783F JUMP JUMPDEST PUSH2 0x482F JUMP JUMPDEST PUSH2 0x44B PUSH2 0xA97 CALLDATASIZE PUSH1 0x4 PUSH2 0x6E67 JUMP JUMPDEST PUSH2 0x4F54 JUMP JUMPDEST PUSH2 0x532 PUSH2 0xAAA CALLDATASIZE PUSH1 0x4 PUSH2 0x6EF4 JUMP JUMPDEST PUSH2 0x4F70 JUMP JUMPDEST PUSH2 0x532 PUSH2 0xABD CALLDATASIZE PUSH1 0x4 PUSH2 0x6EF4 JUMP JUMPDEST PUSH2 0x5054 JUMP JUMPDEST PUSH2 0x61A PUSH2 0xAD0 CALLDATASIZE PUSH1 0x4 PUSH2 0x783F JUMP JUMPDEST PUSH2 0x5138 JUMP JUMPDEST PUSH2 0x51D PUSH2 0xAE3 CALLDATASIZE PUSH1 0x4 PUSH2 0x783F JUMP JUMPDEST PUSH2 0x514D JUMP JUMPDEST PUSH2 0x5AE PUSH2 0xAF6 CALLDATASIZE PUSH1 0x4 PUSH2 0x70F7 JUMP JUMPDEST DUP2 MLOAD PUSH1 0x20 DUP2 DUP5 ADD DUP2 ADD DUP1 MLOAD PUSH1 0x14 DUP3 MSTORE SWAP3 DUP3 ADD SWAP5 DUP3 ADD SWAP5 SWAP1 SWAP5 KECCAK256 SWAP2 SWAP1 SWAP4 MSTORE SWAP1 SWAP2 MSTORE PUSH1 0x0 SWAP1 DUP2 MSTORE PUSH1 0x40 SWAP1 KECCAK256 SLOAD DUP2 JUMP JUMPDEST PUSH2 0x5AE PUSH1 0x19 SLOAD DUP2 JUMP JUMPDEST PUSH2 0x44B PUSH2 0xB3A CALLDATASIZE PUSH1 0x4 PUSH2 0x76A8 JUMP JUMPDEST PUSH2 0x5AF7 JUMP JUMPDEST PUSH2 0x4DF PUSH2 0xB4D CALLDATASIZE PUSH1 0x4 PUSH2 0x76A8 JUMP JUMPDEST PUSH2 0x5B22 JUMP JUMPDEST PUSH2 0xB65 PUSH2 0xB60 CALLDATASIZE PUSH1 0x4 PUSH2 0x70F7 JUMP JUMPDEST PUSH2 0x5B4D JUMP JUMPDEST PUSH1 0x40 MLOAD PUSH2 0x458 SWAP6 SWAP5 SWAP4 SWAP3 SWAP2 SWAP1 PUSH2 0x78B2 JUMP JUMPDEST PUSH2 0x532 PUSH2 0xB84 CALLDATASIZE PUSH1 0x4 PUSH2 0x6EF4 JUMP JUMPDEST PUSH2 0x5D4B JUMP JUMPDEST PUSH2 0xB9C PUSH2 0xB97 CALLDATASIZE PUSH1 0x4 PUSH2 0x7212 JUMP JUMPDEST PUSH2 0x5E2F JUMP JUMPDEST PUSH1 0x40 MLOAD PUSH2 0x458 SWAP7 SWAP6 SWAP5 SWAP4 SWAP3 SWAP2 SWAP1 PUSH2 0x78F4 JUMP JUMPDEST PUSH1 0x0 SLOAD PUSH2 0x4DF SWAP1 PUSH1 0x1 PUSH1 0x1 PUSH1 0xA0 SHL SUB AND DUP2 JUMP JUMPDEST PUSH2 0x51D PUSH2 0xBCF CALLDATASIZE PUSH1 0x4 PUSH2 0x7212 JUMP JUMPDEST PUSH2 0x601E JUMP JUMPDEST PUSH1 0x11 SLOAD PUSH1 0x19 SLOAD PUSH2 0x5F2 JUMP JUMPDEST PUSH1 0x18 PUSH1 0x20 MSTORE DUP2 PUSH1 0x0 MSTORE PUSH1 0x40 PUSH1 0x0 KECCAK256 DUP2 DUP2 SLOAD DUP2 LT PUSH2 0xBFB JUMPI PUSH1 0x0 DUP1 REVERT JUMPDEST SWAP1 PUSH1 0x0 MSTORE PUSH1 0x20 PUSH1 0x0 KECCAK256 ADD PUSH1 0x0 SWAP2 POP SWAP2 POP POP DUP1 SLOAD PUSH2 0xC17 SWAP1 PUSH2 0x793D JUMP JUMPDEST DUP1 PUSH1 0x1F ADD PUSH1 0x20 DUP1 SWAP2 DIV MUL PUSH1 0x20 ADD PUSH1 0x40 MLOAD SWAP1 DUP2 ADD PUSH1 0x40 MSTORE DUP1 SWAP3 SWAP2 SWAP1 DUP2 DUP2 MSTORE PUSH1 0x20 ADD DUP3 DUP1 SLOAD PUSH2 0xC43 SWAP1 PUSH2 0x793D JUMP JUMPDEST DUP1 ISZERO PUSH2 0xC90 JUMPI DUP1 PUSH1 0x1F LT PUSH2 0xC65 JUMPI PUSH2 0x100 DUP1 DUP4 SLOAD DIV MUL DUP4 MSTORE SWAP2 PUSH1 0x20 ADD SWAP2 PUSH2 0xC90 JUMP JUMPDEST DUP3 ADD SWAP2 SWAP1 PUSH1 0x0 MSTORE PUSH1 0x20 PUSH1 0x0 KECCAK256 SWAP1 JUMPDEST DUP2 SLOAD DUP2 MSTORE SWAP1 PUSH1 0x1 ADD SWAP1 PUSH1 0x20 ADD DUP1 DUP4 GT PUSH2 0xC73 JUMPI DUP3 SWAP1 SUB PUSH1 0x1F AND DUP3 ADD SWAP2 JUMPDEST POP POP POP POP POP DUP2 JUMP JUMPDEST PUSH1 0x8 PUSH1 0x20 MSTORE DUP2 PUSH1 0x0 MSTORE PUSH1 0x40 PUSH1 0x0 KECCAK256 DUP2 DUP2 SLOAD DUP2 LT PUSH2 0xBFB JUMPI PUSH1 0x0 DUP1 REVERT JUMPDEST PUSH1 0xE DUP4 PUSH1 0x40 MLOAD PUSH2 0xCC4 SWAP2 SWAP1 PUSH2 0x7977 JUMP JUMPDEST SWAP1 DUP2 MSTORE PUSH1 0x40 MLOAD SWAP1 DUP2 SWAP1 SUB PUSH1 0x20 ADD SWAP1 KECCAK256 PUSH1 0x4 ADD SLOAD PUSH1 0xFF PUSH1 0x1 PUSH1 0xA0 SHL SWAP1 SWAP2 DIV AND PUSH2 0xD07 JUMPI PUSH1 0x40 MLOAD PUSH3 0x461BCD PUSH1 0xE5 SHL DUP2 MSTORE PUSH1 0x4 ADD PUSH2 0xCFE SWAP1 PUSH2 0x7993 JUMP JUMPDEST PUSH1 0x40 MLOAD DUP1 SWAP2 SUB SWAP1 REVERT JUMPDEST PUSH1 0x13 DUP4 PUSH1 0x40 MLOAD PUSH2 0xD17 SWAP2 SWAP1 PUSH2 0x7977 JUMP JUMPDEST SWAP1 DUP2 MSTORE PUSH1 0x40 DUP1 MLOAD PUSH1 0x20 SWAP3 DUP2 SWAP1 SUB DUP4 ADD SWAP1 KECCAK256 CALLER PUSH1 0x0 SWAP1 DUP2 MSTORE SWAP3 MSTORE SWAP1 KECCAK256 SLOAD PUSH1 0xFF AND PUSH2 0xD8C JUMPI PUSH1 0x40 MLOAD PUSH3 0x461BCD PUSH1 0xE5 SHL DUP2 MSTORE PUSH1 0x20 PUSH1 0x4 DUP3 ADD MSTORE PUSH1 0x21 PUSH1 0x24 DUP3 ADD MSTORE PUSH32 0x5573657220686173206E6F20726576696577206F6E2074686973207265636F72 PUSH1 0x44 DUP3 ADD MSTORE PUSH1 0x19 PUSH1 0xFA SHL PUSH1 0x64 DUP3 ADD MSTORE PUSH1 0x84 ADD PUSH2 0xCFE JUMP JUMPDEST PUSH1 0x1 DUP3 PUSH1 0xFF AND LT ISZERO DUP1 ISZERO PUSH2 0xDA4 JUMPI POP PUSH1 0x3 DUP3 PUSH1 0xFF AND GT ISZERO JUMPDEST PUSH2 0xDE7 JUMPI PUSH1 0x40 MLOAD PUSH3 0x461BCD PUSH1 0xE5 SHL DUP2 MSTORE PUSH1 0x20 PUSH1 0x4 DUP3 ADD MSTORE PUSH1 0x14 PUSH1 0x24 DUP3 ADD MSTORE PUSH20 0x5365766572697479206D75737420626520312D33 PUSH1 0x60 SHL PUSH1 0x44 DUP3 ADD MSTORE PUSH1 0x64 ADD PUSH2 0xCFE JUMP JUMPDEST PUSH1 0x1 DUP2 PUSH1 0xFF AND LT ISZERO DUP1 ISZERO PUSH2 0xDFF JUMPI POP PUSH1 0x5 DUP2 PUSH1 0xFF AND GT ISZERO JUMPDEST PUSH2 0xE4B JUMPI PUSH1 0x40 MLOAD PUSH3 0x461BCD PUSH1 0xE5 SHL DUP2 MSTORE PUSH1 0x20 PUSH1 0x4 DUP3 ADD MSTORE PUSH1 0x17 PUSH1 0x24 DUP3 ADD MSTORE PUSH32 0x43756C706162696C697479206D75737420626520312D35000000000000000000 PUSH1 0x44 DUP3 ADD MSTORE PUSH1 0x64 ADD PUSH2 0xCFE JUMP JUMPDEST PUSH1 0x0 PUSH1 0x14 DUP5 PUSH1 0x40 MLOAD PUSH2 0xE5D SWAP2 SWAP1 PUSH2 0x7977 JUMP JUMPDEST SWAP1 DUP2 MSTORE PUSH1 0x40 DUP1 MLOAD PUSH1 0x20 SWAP3 DUP2 SWAP1 SUB DUP4 ADD DUP2 KECCAK256 CALLER PUSH1 0x0 SWAP1 DUP2 MSTORE SWAP4 MSTORE SWAP1 DUP3 KECCAK256 SLOAD SWAP3 POP PUSH1 0x12 SWAP1 PUSH2 0xE8A SWAP1 DUP8 SWAP1 PUSH2 0x7977 JUMP JUMPDEST SWAP1 DUP2 MSTORE PUSH1 0x20 ADD PUSH1 0x40 MLOAD DUP1 SWAP2 SUB SWAP1 KECCAK256 DUP3 DUP2 SLOAD DUP2 LT PUSH2 0xEA9 JUMPI PUSH2 0xEA9 PUSH2 0x79C0 JUMP JUMPDEST PUSH1 0x0 SWAP2 DUP3 MSTORE PUSH1 0x20 SWAP1 SWAP2 KECCAK256 PUSH1 0x4 SWAP1 SWAP2 MUL ADD PUSH1 0x3 DUP2 ADD SLOAD SWAP1 SWAP2 POP PUSH1 0xFF AND PUSH2 0xF10 JUMPI PUSH1 0x40 MLOAD PUSH3 0x461BCD PUSH1 0xE5 SHL DUP2 MSTORE PUSH1 0x20 PUSH1 0x4 DUP3 ADD MSTORE PUSH1 0x1A PUSH1 0x24 DUP3 ADD MSTORE PUSH32 0x4469737075746520686173206265656E20726574726163746564000000000000 PUSH1 0x44 DUP3 ADD MSTORE PUSH1 0x64 ADD PUSH2 0xCFE JUMP JUMPDEST PUSH1 0x1 DUP2 SLOAD PUSH1 0x1 PUSH1 0xA0 SHL SWAP1 DIV PUSH1 0xFF AND PUSH1 0x1 DUP2 GT ISZERO PUSH2 0xF2F JUMPI PUSH2 0xF2F PUSH2 0x6F0F JUMP JUMPDEST EQ PUSH2 0xF7C JUMPI PUSH1 0x40 MLOAD PUSH3 0x461BCD PUSH1 0xE5 SHL DUP2 MSTORE PUSH1 0x20 PUSH1 0x4 DUP3 ADD MSTORE PUSH1 0x17 PUSH1 0x24 DUP3 ADD MSTORE PUSH32 0x526576696577206973206E6F7420612064697370757465000000000000000000 PUSH1 0x44 DUP3 ADD MSTORE PUSH1 0x64 ADD PUSH2 0xCFE JUMP JUMPDEST DUP1 SLOAD PUSH1 0xFF PUSH1 0x1 PUSH1 0xA8 SHL DUP3 DIV DUP2 AND SWAP2 PUSH1 0x1 PUSH1 0xB0 SHL SWAP1 DIV DUP2 AND SWAP1 DUP7 AND PUSH1 0x3 DUP2 GT ISZERO PUSH2 0xFA7 JUMPI PUSH2 0xFA7 PUSH2 0x6F0F JUMP JUMPDEST DUP4 SLOAD DUP5 SWAP1 PUSH1 0xFF PUSH1 0xA8 SHL NOT AND PUSH1 0x1 PUSH1 0xA8 SHL DUP4 PUSH1 0x3 DUP2 GT ISZERO PUSH2 0xFC9 JUMPI PUSH2 0xFC9 PUSH2 0x6F0F JUMP JUMPDEST MUL OR SWAP1 SSTORE POP DUP5 PUSH1 0xFF AND PUSH1 0x5 DUP2 GT ISZERO PUSH2 0xFE3 JUMPI PUSH2 0xFE3 PUSH2 0x6F0F JUMP JUMPDEST DUP4 SLOAD DUP5 SWAP1 PUSH1 0xFF PUSH1 0xB0 SHL NOT AND PUSH1 0x1 PUSH1 0xB0 SHL DUP4 PUSH1 0x5 DUP2 GT ISZERO PUSH2 0x1005 JUMPI PUSH2 0x1005 PUSH2 0x6F0F JUMP JUMPDEST MUL OR SWAP1 SSTORE POP PUSH1 0x40 MLOAD CALLER SWAP1 PUSH2 0x101A SWAP1 DUP10 SWAP1 PUSH2 0x7977 JUMP JUMPDEST PUSH1 0x40 MLOAD SWAP1 DUP2 SWAP1 SUB DUP2 KECCAK256 DUP6 SLOAD SWAP1 SWAP2 PUSH32 0x4A326D2E0F3BD3557B127D6A5D9CF92F3B9038184C6F20DA297B638BBE8BD833 SWAP2 PUSH2 0x106F SWAP2 DUP8 SWAP2 PUSH1 0xFF PUSH1 0x1 PUSH1 0xA8 SHL DUP3 DIV DUP2 AND SWAP3 DUP10 SWAP3 PUSH1 0x1 PUSH1 0xB0 SHL SWAP1 DIV SWAP1 SWAP2 AND SWAP1 TIMESTAMP SWAP1 PUSH2 0x79D6 JUMP JUMPDEST PUSH1 0x40 MLOAD DUP1 SWAP2 SUB SWAP1 LOG3 POP POP POP POP POP POP POP JUMP JUMPDEST PUSH1 0x1 PUSH1 0x1 PUSH1 0xA0 SHL SUB DUP2 AND PUSH1 0x0 SWAP1 DUP2 MSTORE PUSH1 0x17 PUSH1 0x20 SWAP1 DUP2 MSTORE PUSH1 0x40 DUP1 DUP4 KECCAK256 DUP1 SLOAD DUP3 MLOAD DUP2 DUP6 MUL DUP2 ADD DUP6 ADD SWAP1 SWAP4 MSTORE DUP1 DUP4 MSTORE PUSH1 0x60 SWAP5 SWAP3 SWAP4 SWAP2 SWAP3 SWAP1 SWAP2 DUP5 ADD JUMPDEST DUP3 DUP3 LT ISZERO PUSH2 0x1164 JUMPI DUP4 DUP3 SWAP1 PUSH1 0x0 MSTORE PUSH1 0x20 PUSH1 0x0 KECCAK256 ADD DUP1 SLOAD PUSH2 0x10D7 SWAP1 PUSH2 0x793D JUMP JUMPDEST DUP1 PUSH1 0x1F ADD PUSH1 0x20 DUP1 SWAP2 DIV MUL PUSH1 0x20 ADD PUSH1 0x40 MLOAD SWAP1 DUP2 ADD PUSH1 0x40 MSTORE DUP1 SWAP3 SWAP2 SWAP1 DUP2 DUP2 MSTORE PUSH1 0x20 ADD DUP3 DUP1 SLOAD PUSH2 0x1103 SWAP1 PUSH2 0x793D JUMP JUMPDEST DUP1 ISZERO PUSH2 0x1150 JUMPI DUP1 PUSH1 0x1F LT PUSH2 0x1125 JUMPI PUSH2 0x100 DUP1 DUP4 SLOAD DIV MUL DUP4 MSTORE SWAP2 PUSH1 0x20 ADD SWAP2 PUSH2 0x1150 JUMP JUMPDEST DUP3 ADD SWAP2 SWAP1 PUSH1 0x0 MSTORE PUSH1 0x20 PUSH1 0x0 KECCAK256 SWAP1 JUMPDEST DUP2 SLOAD DUP2 MSTORE SWAP1 PUSH1 0x1 ADD SWAP1 PUSH1 0x20 ADD DUP1 DUP4 GT PUSH2 0x1133 JUMPI DUP3 SWAP1 SUB PUSH1 0x1F AND DUP3 ADD SWAP2 JUMPDEST POP POP POP POP POP DUP2 MSTORE PUSH1 0x20 ADD SWAP1 PUSH1 0x1 ADD SWAP1 PUSH2 0x10B8 JUMP JUMPDEST POP POP POP POP SWAP1 POP SWAP2 SWAP1 POP JUMP JUMPDEST PUSH1 0x60 PUSH1 0x15 DUP4 PUSH1 0x40 MLOAD PUSH2 0x1181 SWAP2 SWAP1 PUSH2 0x7977 JUMP JUMPDEST SWAP1 DUP2 MSTORE PUSH1 0x40 DUP1 MLOAD SWAP2 DUP3 SWAP1 SUB PUSH1 0x20 SWAP1 DUP2 ADD DUP4 KECCAK256 PUSH1 0x1 PUSH1 0x1 PUSH1 0xA0 SHL SUB DUP7 AND PUSH1 0x0 SWAP1 DUP2 MSTORE SWAP1 DUP3 MSTORE DUP3 DUP2 KECCAK256 DUP1 SLOAD DUP1 DUP5 MUL DUP7 ADD DUP5 ADD SWAP1 SWAP5 MSTORE DUP4 DUP6 MSTORE SWAP3 SWAP2 DUP5 ADD JUMPDEST DUP3 DUP3 LT ISZERO PUSH2 0x1218 JUMPI PUSH1 0x0 DUP5 DUP2 MSTORE PUSH1 0x20 SWAP1 DUP2 SWAP1 KECCAK256 PUSH1 0x40 DUP1 MLOAD PUSH1 0x60 DUP2 ADD DUP3 MSTORE PUSH1 0x2 DUP7 MUL SWAP1 SWAP3 ADD DUP1 SLOAD PUSH1 0x1 PUSH1 0x1 PUSH1 0xA0 SHL SUB DUP2 AND DUP5 MSTORE PUSH1 0x1 PUSH1 0xA0 SHL SWAP1 DIV PUSH1 0xFF AND ISZERO ISZERO DUP4 DUP6 ADD MSTORE PUSH1 0x1 SWAP1 DUP2 ADD SLOAD SWAP2 DUP4 ADD SWAP2 SWAP1 SWAP2 MSTORE SWAP1 DUP4 MSTORE SWAP1 SWAP3 ADD SWAP2 ADD PUSH2 0x11BC JUMP JUMPDEST POP POP POP POP SWAP1 POP JUMPDEST SWAP3 SWAP2 POP POP JUMP JUMPDEST PUSH1 0x0 DUP4 MLOAD GT PUSH2 0x126D JUMPI PUSH1 0x40 MLOAD PUSH3 0x461BCD PUSH1 0xE5 SHL DUP2 MSTORE PUSH1 0x20 PUSH1 0x4 DUP3 ADD MSTORE PUSH1 0x14 PUSH1 0x24 DUP3 ADD MSTORE PUSH20 0x486173682063616E6E6F7420626520656D707479 PUSH1 0x60 SHL PUSH1 0x44 DUP3 ADD MSTORE PUSH1 0x64 ADD PUSH2 0xCFE JUMP JUMPDEST PUSH1 0x0 DUP3 MLOAD GT PUSH2 0x128E JUMPI PUSH1 0x40 MLOAD PUSH3 0x461BCD PUSH1 0xE5 SHL DUP2 MSTORE PUSH1 0x4 ADD PUSH2 0xCFE SWAP1 PUSH2 0x7A1B JUMP JUMPDEST PUSH1 0x1 PUSH1 0x1 PUSH1 0xA0 SHL SUB DUP2 AND PUSH2 0x12E4 JUMPI PUSH1 0x40 MLOAD PUSH3 0x461BCD PUSH1 0xE5 SHL DUP2 MSTORE PUSH1 0x20 PUSH1 0x4 DUP3 ADD MSTORE PUSH1 0x1E PUSH1 0x24 DUP3 ADD MSTORE PUSH32 0x5375626A6563742063616E6E6F74206265207A65726F20616464726573730000 PUSH1 0x44 DUP3 ADD MSTORE PUSH1 0x64 ADD PUSH2 0xCFE JUMP JUMPDEST PUSH1 0xE DUP4 PUSH1 0x40 MLOAD PUSH2 0x12F4 SWAP2 SWAP1 PUSH2 0x7977 JUMP JUMPDEST SWAP1 DUP2 MSTORE PUSH1 0x40 MLOAD SWAP1 DUP2 SWAP1 SUB PUSH1 0x20 ADD SWAP1 KECCAK256 PUSH1 0x4 ADD SLOAD PUSH1 0xFF PUSH1 0x1 PUSH1 0xA0 SHL SWAP1 SWAP2 DIV AND ISZERO PUSH2 0x1357 JUMPI PUSH1 0x40 MLOAD PUSH3 0x461BCD PUSH1 0xE5 SHL DUP2 MSTORE PUSH1 0x20 PUSH1 0x4 DUP3 ADD MSTORE PUSH1 0x15 PUSH1 0x24 DUP3 ADD MSTORE PUSH21 0x12185CDA08185B1C9958591E48185B98DA1BDC9959 PUSH1 0x5A SHL PUSH1 0x44 DUP3 ADD MSTORE PUSH1 0x64 ADD PUSH2 0xCFE JUMP JUMPDEST PUSH1 0x0 DUP3 CALLER PUSH1 0x40 MLOAD PUSH1 0x20 ADD PUSH2 0x136C SWAP3 SWAP2 SWAP1 PUSH2 0x7A52 JUMP JUMPDEST PUSH1 0x40 DUP1 MLOAD DUP1 DUP4 SUB PUSH1 0x1F NOT ADD DUP2 MSTORE SWAP2 DUP2 MSTORE DUP2 MLOAD PUSH1 0x20 SWAP3 DUP4 ADD KECCAK256 PUSH1 0x0 DUP2 DUP2 MSTORE PUSH1 0x4 SWAP1 SWAP4 MSTORE SWAP2 KECCAK256 PUSH1 0x5 ADD SLOAD SWAP1 SWAP2 POP PUSH1 0x1 PUSH1 0xA0 SHL SWAP1 DIV PUSH1 0xFF AND PUSH2 0x13BD JUMPI PUSH1 0x40 MLOAD PUSH3 0x461BCD PUSH1 0xE5 SHL DUP2 MSTORE PUSH1 0x4 ADD PUSH2 0xCFE SWAP1 PUSH2 0x7A89 JUMP JUMPDEST PUSH1 0x40 DUP1 MLOAD PUSH1 0xC0 DUP2 ADD DUP3 MSTORE DUP6 DUP2 MSTORE PUSH1 0x20 DUP2 ADD DUP6 SWAP1 MSTORE PUSH1 0x1 PUSH1 0x1 PUSH1 0xA0 SHL SUB DUP5 AND DUP2 DUP4 ADD MSTORE TIMESTAMP PUSH1 0x60 DUP3 ADD MSTORE CALLER PUSH1 0x80 DUP3 ADD MSTORE PUSH1 0x1 PUSH1 0xA0 DUP3 ADD MSTORE SWAP1 MLOAD PUSH1 0xE SWAP1 PUSH2 0x1402 SWAP1 DUP8 SWAP1 PUSH2 0x7977 JUMP JUMPDEST SWAP1 DUP2 MSTORE PUSH1 0x40 MLOAD SWAP1 DUP2 SWAP1 SUB PUSH1 0x20 ADD SWAP1 KECCAK256 DUP2 MLOAD DUP2 SWAP1 PUSH2 0x141F SWAP1 DUP3 PUSH2 0x7B0E JUMP JUMPDEST POP PUSH1 0x20 DUP3 ADD MLOAD PUSH1 0x1 DUP3 ADD SWAP1 PUSH2 0x1434 SWAP1 DUP3 PUSH2 0x7B0E JUMP JUMPDEST POP PUSH1 0x40 DUP3 DUP2 ADD MLOAD PUSH1 0x2 DUP4 ADD DUP1 SLOAD PUSH1 0x1 PUSH1 0x1 PUSH1 0xA0 SHL SUB SWAP3 DUP4 AND PUSH1 0x1 PUSH1 0x1 PUSH1 0xA0 SHL SUB NOT SWAP1 SWAP2 AND OR SWAP1 SSTORE PUSH1 0x60 DUP5 ADD MLOAD PUSH1 0x3 DUP5 ADD SSTORE PUSH1 0x80 DUP5 ADD MLOAD PUSH1 0x4 SWAP1 SWAP4 ADD DUP1 SLOAD PUSH1 0xA0 SWAP1 SWAP6 ADD MLOAD ISZERO ISZERO PUSH1 0x1 PUSH1 0xA0 SHL MUL PUSH1 0x1 PUSH1 0x1 PUSH1 0xA8 SHL SUB NOT SWAP1 SWAP6 AND SWAP4 DUP3 AND SWAP4 SWAP1 SWAP4 OR SWAP4 SWAP1 SWAP4 OR SWAP1 SWAP2 SSTORE SWAP1 DUP4 AND PUSH1 0x0 SWAP1 DUP2 MSTORE PUSH1 0xF PUSH1 0x20 SWAP1 DUP2 MSTORE SWAP2 DUP2 KECCAK256 DUP1 SLOAD PUSH1 0x1 DUP2 ADD DUP3 SSTORE SWAP1 DUP3 MSTORE SWAP2 SWAP1 KECCAK256 ADD PUSH2 0x14C4 DUP6 DUP3 PUSH2 0x7B0E JUMP JUMPDEST POP PUSH1 0x10 DUP4 PUSH1 0x40 MLOAD PUSH2 0x14D5 SWAP2 SWAP1 PUSH2 0x7977 JUMP JUMPDEST SWAP1 DUP2 MSTORE PUSH1 0x40 MLOAD PUSH1 0x20 SWAP2 DUP2 SWAP1 SUB DUP3 ADD SWAP1 KECCAK256 DUP1 SLOAD PUSH1 0x1 DUP2 ADD DUP3 SSTORE PUSH1 0x0 SWAP2 DUP3 MSTORE SWAP2 SWAP1 KECCAK256 ADD PUSH2 0x1500 DUP6 DUP3 PUSH2 0x7B0E JUMP JUMPDEST POP PUSH1 0x11 DUP1 SLOAD SWAP1 PUSH1 0x0 PUSH2 0x1511 DUP4 PUSH2 0x7BE3 JUMP JUMPDEST SWAP2 SWAP1 POP SSTORE POP DUP2 PUSH1 0x1 PUSH1 0x1 PUSH1 0xA0 SHL SUB AND DUP4 PUSH1 0x40 MLOAD PUSH2 0x152E SWAP2 SWAP1 PUSH2 0x7977 JUMP JUMPDEST PUSH1 0x40 MLOAD DUP1 SWAP2 SUB SWAP1 KECCAK256 DUP6 PUSH1 0x40 MLOAD PUSH2 0x1544 SWAP2 SWAP1 PUSH2 0x7977 JUMP JUMPDEST PUSH1 0x40 DUP1 MLOAD SWAP2 DUP3 SWAP1 SUB DUP3 KECCAK256 CALLER DUP4 MSTORE TIMESTAMP PUSH1 0x20 DUP5 ADD MSTORE SWAP2 PUSH32 0x4420E8451168941FA9021D087369875D12307CD926ED71885AEE174E86C46FDA SWAP2 ADD PUSH1 0x40 MLOAD DUP1 SWAP2 SUB SWAP1 LOG4 POP POP POP POP JUMP JUMPDEST PUSH1 0x60 PUSH1 0x5 DUP3 PUSH1 0x40 MLOAD PUSH2 0x159B SWAP2 SWAP1 PUSH2 0x7977 JUMP JUMPDEST SWAP1 DUP2 MSTORE PUSH1 0x40 DUP1 MLOAD SWAP2 DUP3 SWAP1 SUB PUSH1 0x20 SWAP1 DUP2 ADD DUP4 KECCAK256 DUP1 SLOAD DUP1 DUP4 MUL DUP6 ADD DUP4 ADD SWAP1 SWAP4 MSTORE DUP3 DUP5 MSTORE SWAP2 SWAP1 DUP4 ADD DUP3 DUP3 DUP1 ISZERO PUSH2 0x15F7 JUMPI PUSH1 0x20 MUL DUP3 ADD SWAP2 SWAP1 PUSH1 0x0 MSTORE PUSH1 0x20 PUSH1 0x0 KECCAK256 SWAP1 JUMPDEST DUP2 SLOAD PUSH1 0x1 PUSH1 0x1 PUSH1 0xA0 SHL SUB AND DUP2 MSTORE PUSH1 0x1 SWAP1 SWAP2 ADD SWAP1 PUSH1 0x20 ADD DUP1 DUP4 GT PUSH2 0x15D9 JUMPI JUMPDEST POP POP POP POP POP SWAP1 POP SWAP2 SWAP1 POP JUMP JUMPDEST PUSH1 0x1 DUP4 PUSH1 0xFF AND LT ISZERO DUP1 ISZERO PUSH2 0x161B JUMPI POP PUSH1 0x5 DUP4 PUSH1 0xFF AND GT ISZERO JUMPDEST PUSH2 0x165E JUMPI PUSH1 0x40 MLOAD PUSH3 0x461BCD PUSH1 0xE5 SHL DUP2 MSTORE PUSH1 0x20 PUSH1 0x4 DUP3 ADD MSTORE PUSH1 0x14 PUSH1 0x24 DUP3 ADD MSTORE PUSH20 0x5365766572697479206D75737420626520312D35 PUSH1 0x60 SHL PUSH1 0x44 DUP3 ADD MSTORE PUSH1 0x64 ADD PUSH2 0xCFE JUMP JUMPDEST PUSH2 0x1694 DUP5 DUP3 PUSH1 0x1 DUP7 PUSH1 0xFF AND PUSH1 0x3 DUP2 GT ISZERO PUSH2 0x167A JUMPI PUSH2 0x167A PUSH2 0x6F0F JUMP JUMPDEST DUP7 PUSH1 0xFF AND PUSH1 0x5 DUP2 GT ISZERO PUSH2 0x168F JUMPI PUSH2 0x168F PUSH2 0x6F0F JUMP JUMPDEST PUSH2 0x61F3 JUMP JUMPDEST CALLER PUSH1 0x0 SWAP1 DUP2 MSTORE PUSH1 0x18 PUSH1 0x20 SWAP1 DUP2 MSTORE PUSH1 0x40 DUP3 KECCAK256 DUP1 SLOAD PUSH1 0x1 DUP2 ADD DUP3 SSTORE SWAP1 DUP4 MSTORE SWAP2 KECCAK256 ADD PUSH2 0x16BD DUP6 DUP3 PUSH2 0x7B0E JUMP JUMPDEST POP POP POP POP POP JUMP JUMPDEST PUSH1 0x0 DUP2 PUSH1 0x1 PUSH1 0x1 PUSH1 0xA0 SHL SUB AND PUSH1 0xE DUP5 PUSH1 0x40 MLOAD PUSH2 0x16E0 SWAP2 SWAP1 PUSH2 0x7977 JUMP JUMPDEST SWAP1 DUP2 MSTORE PUSH1 0x40 MLOAD SWAP1 DUP2 SWAP1 SUB PUSH1 0x20 ADD SWAP1 KECCAK256 PUSH1 0x2 ADD SLOAD PUSH1 0x1 PUSH1 0x1 PUSH1 0xA0 SHL SUB AND EQ SWAP1 POP SWAP3 SWAP2 POP POP JUMP JUMPDEST PUSH1 0x60 PUSH1 0x12 DUP3 PUSH1 0x40 MLOAD PUSH2 0x1717 SWAP2 SWAP1 PUSH2 0x7977 JUMP JUMPDEST SWAP1 DUP2 MSTORE PUSH1 0x20 ADD PUSH1 0x40 MLOAD DUP1 SWAP2 SUB SWAP1 KECCAK256 DUP1 SLOAD DUP1 PUSH1 0x20 MUL PUSH1 0x20 ADD PUSH1 0x40 MLOAD SWAP1 DUP2 ADD PUSH1 0x40 MSTORE DUP1 SWAP3 SWAP2 SWAP1 DUP2 DUP2 MSTORE PUSH1 0x20 ADD PUSH1 0x0 SWAP1 JUMPDEST DUP3 DUP3 LT ISZERO PUSH2 0x1164 JUMPI PUSH1 0x0 DUP5 DUP2 MSTORE PUSH1 0x20 SWAP1 DUP2 SWAP1 KECCAK256 PUSH1 0x40 DUP1 MLOAD PUSH1 0xE0 DUP2 ADD SWAP1 SWAP2 MSTORE PUSH1 0x4 DUP6 MUL SWAP1 SWAP2 ADD DUP1 SLOAD PUSH1 0x1 PUSH1 0x1 PUSH1 0xA0 SHL SUB DUP2 AND DUP4 MSTORE SWAP2 SWAP3 SWAP1 SWAP2 SWAP1 DUP4 ADD SWAP1 PUSH1 0x1 PUSH1 0xA0 SHL SWAP1 DIV PUSH1 0xFF AND PUSH1 0x1 DUP2 GT ISZERO PUSH2 0x179B JUMPI PUSH2 0x179B PUSH2 0x6F0F JUMP JUMPDEST PUSH1 0x1 DUP2 GT ISZERO PUSH2 0x17AC JUMPI PUSH2 0x17AC PUSH2 0x6F0F JUMP JUMPDEST DUP2 MSTORE DUP2 SLOAD PUSH1 0x20 SWAP1 SWAP2 ADD SWAP1 PUSH1 0x1 PUSH1 0xA8 SHL SWAP1 DIV PUSH1 0xFF AND PUSH1 0x3 DUP2 GT ISZERO PUSH2 0x17D1 JUMPI PUSH2 0x17D1 PUSH2 0x6F0F JUMP JUMPDEST PUSH1 0x3 DUP2 GT ISZERO PUSH2 0x17E2 JUMPI PUSH2 0x17E2 PUSH2 0x6F0F JUMP JUMPDEST DUP2 MSTORE DUP2 SLOAD PUSH1 0x20 SWAP1 SWAP2 ADD SWAP1 PUSH1 0x1 PUSH1 0xB0 SHL SWAP1 DIV PUSH1 0xFF AND PUSH1 0x5 DUP2 GT ISZERO PUSH2 0x1807 JUMPI PUSH2 0x1807 PUSH2 0x6F0F JUMP JUMPDEST PUSH1 0x5 DUP2 GT ISZERO PUSH2 0x1818 JUMPI PUSH2 0x1818 PUSH2 0x6F0F JUMP JUMPDEST DUP2 MSTORE PUSH1 0x20 ADD PUSH1 0x1 DUP3 ADD SLOAD DUP2 MSTORE PUSH1 0x20 ADD PUSH1 0x2 DUP3 ADD DUP1 SLOAD PUSH2 0x1836 SWAP1 PUSH2 0x793D JUMP JUMPDEST DUP1 PUSH1 0x1F ADD PUSH1 0x20 DUP1 SWAP2 DIV MUL PUSH1 0x20 ADD PUSH1 0x40 MLOAD SWAP1 DUP2 ADD PUSH1 0x40 MSTORE DUP1 SWAP3 SWAP2 SWAP1 DUP2 DUP2 MSTORE PUSH1 0x20 ADD DUP3 DUP1 SLOAD PUSH2 0x1862 SWAP1 PUSH2 0x793D JUMP JUMPDEST DUP1 ISZERO PUSH2 0x18AF JUMPI DUP1 PUSH1 0x1F LT PUSH2 0x1884 JUMPI PUSH2 0x100 DUP1 DUP4 SLOAD DIV MUL DUP4 MSTORE SWAP2 PUSH1 0x20 ADD SWAP2 PUSH2 0x18AF JUMP JUMPDEST DUP3 ADD SWAP2 SWAP1 PUSH1 0x0 MSTORE PUSH1 0x20 PUSH1 0x0 KECCAK256 SWAP1 JUMPDEST DUP2 SLOAD DUP2 MSTORE SWAP1 PUSH1 0x1 ADD SWAP1 PUSH1 0x20 ADD DUP1 DUP4 GT PUSH2 0x1892 JUMPI DUP3 SWAP1 SUB PUSH1 0x1F AND DUP3 ADD SWAP2 JUMPDEST POP POP POP SWAP2 DUP4 MSTORE POP POP PUSH1 0x3 SWAP2 SWAP1 SWAP2 ADD SLOAD PUSH1 0xFF AND ISZERO ISZERO PUSH1 0x20 SWAP2 DUP3 ADD MSTORE SWAP1 DUP3 MSTORE PUSH1 0x1 SWAP3 SWAP1 SWAP3 ADD SWAP2 ADD PUSH2 0x1745 JUMP JUMPDEST PUSH1 0x1 PUSH1 0x1 PUSH1 0xA0 SHL SUB DUP1 DUP3 AND PUSH1 0x0 SWAP1 DUP2 MSTORE PUSH1 0x1 PUSH1 0x20 DUP2 DUP2 MSTORE PUSH1 0x40 DUP1 DUP5 KECCAK256 DUP2 MLOAD PUSH1 0x80 DUP2 ADD DUP4 MSTORE DUP2 SLOAD SWAP1 SWAP7 AND DUP7 MSTORE SWAP3 DUP4 ADD SLOAD SWAP2 DUP6 ADD SWAP2 SWAP1 SWAP2 MSTORE PUSH1 0x2 DUP1 DUP4 ADD SLOAD SWAP4 SWAP5 DUP6 SWAP5 DUP6 SWAP5 DUP6 SWAP5 SWAP3 SWAP4 SWAP1 SWAP3 DUP5 ADD SWAP2 PUSH1 0xFF AND SWAP1 DUP2 GT ISZERO PUSH2 0x1937 JUMPI PUSH2 0x1937 PUSH2 0x6F0F JUMP JUMPDEST PUSH1 0x2 DUP2 GT ISZERO PUSH2 0x1948 JUMPI PUSH2 0x1948 PUSH2 0x6F0F JUMP JUMPDEST DUP2 MSTORE PUSH1 0x3 SWAP2 SWAP1 SWAP2 ADD SLOAD PUSH1 0x20 SWAP2 DUP3 ADD MSTORE DUP2 ADD MLOAD PUSH1 0x40 DUP3 ADD MLOAD PUSH1 0x60 SWAP1 SWAP3 ADD MLOAD SWAP1 SWAP8 SWAP2 SWAP7 POP SWAP5 POP SWAP3 POP POP POP JUMP JUMPDEST DUP3 MLOAD PUSH1 0x20 DUP2 DUP6 ADD DUP2 ADD DUP1 MLOAD PUSH1 0x15 DUP3 MSTORE SWAP3 DUP3 ADD DUP3 DUP8 ADD KECCAK256 SWAP3 SWAP1 MSTORE MSTORE PUSH1 0x0 DUP3 DUP2 MSTORE PUSH1 0x40 SWAP1 KECCAK256 DUP1 SLOAD DUP3 SWAP1 DUP2 LT PUSH2 0x19A4 JUMPI PUSH1 0x0 DUP1 REVERT JUMPDEST PUSH1 0x0 SWAP2 DUP3 MSTORE PUSH1 0x20 SWAP1 SWAP2 KECCAK256 PUSH1 0x2 SWAP1 SWAP2 MUL ADD DUP1 SLOAD PUSH1 0x1 SWAP1 SWAP2 ADD SLOAD PUSH1 0x1 PUSH1 0x1 PUSH1 0xA0 SHL SUB DUP3 AND SWAP5 POP PUSH1 0x1 PUSH1 0xA0 SHL SWAP1 SWAP2 DIV PUSH1 0xFF AND SWAP3 POP SWAP1 POP DUP4 JUMP JUMPDEST PUSH1 0x4 PUSH1 0x20 MSTORE PUSH1 0x0 SWAP1 DUP2 MSTORE PUSH1 0x40 SWAP1 KECCAK256 DUP1 SLOAD DUP2 SWAP1 PUSH2 0x19F5 SWAP1 PUSH2 0x793D JUMP JUMPDEST DUP1 PUSH1 0x1F ADD PUSH1 0x20 DUP1 SWAP2 DIV MUL PUSH1 0x20 ADD PUSH1 0x40 MLOAD SWAP1 DUP2 ADD PUSH1 0x40 MSTORE DUP1 SWAP3 SWAP2 SWAP1 DUP2 DUP2 MSTORE PUSH1 0x20 ADD DUP3 DUP1 SLOAD PUSH2 0x1A21 SWAP1 PUSH2 0x793D JUMP JUMPDEST DUP1 ISZERO PUSH2 0x1A6E JUMPI DUP1 PUSH1 0x1F LT PUSH2 0x1A43 JUMPI PUSH2 0x100 DUP1 DUP4 SLOAD DIV MUL DUP4 MSTORE SWAP2 PUSH1 0x20 ADD SWAP2 PUSH2 0x1A6E JUMP JUMPDEST DUP3 ADD SWAP2 SWAP1 PUSH1 0x0 MSTORE PUSH1 0x20 PUSH1 0x0 KECCAK256 SWAP1 JUMPDEST DUP2 SLOAD DUP2 MSTORE SWAP1 PUSH1 0x1 ADD SWAP1 PUSH1 0x20 ADD DUP1 DUP4 GT PUSH2 0x1A51 JUMPI DUP3 SWAP1 SUB PUSH1 0x1F AND DUP3 ADD SWAP2 JUMPDEST POP POP POP PUSH1 0x1 DUP5 ADD SLOAD PUSH1 0x2 DUP6 ADD DUP1 SLOAD SWAP5 SWAP6 PUSH1 0x1 PUSH1 0x1 PUSH1 0xA0 SHL SUB SWAP1 SWAP3 AND SWAP5 SWAP2 SWAP4 POP SWAP2 POP PUSH2 0x1A98 SWAP1 PUSH2 0x793D JUMP JUMPDEST DUP1 PUSH1 0x1F ADD PUSH1 0x20 DUP1 SWAP2 DIV MUL PUSH1 0x20 ADD PUSH1 0x40 MLOAD SWAP1 DUP2 ADD PUSH1 0x40 MSTORE DUP1 SWAP3 SWAP2 SWAP1 DUP2 DUP2 MSTORE PUSH1 0x20 ADD DUP3 DUP1 SLOAD PUSH2 0x1AC4 SWAP1 PUSH2 0x793D JUMP JUMPDEST DUP1 ISZERO PUSH2 0x1B11 JUMPI DUP1 PUSH1 0x1F LT PUSH2 0x1AE6 JUMPI PUSH2 0x100 DUP1 DUP4 SLOAD DIV MUL DUP4 MSTORE SWAP2 PUSH1 0x20 ADD SWAP2 PUSH2 0x1B11 JUMP JUMPDEST DUP3 ADD SWAP2 SWAP1 PUSH1 0x0 MSTORE PUSH1 0x20 PUSH1 0x0 KECCAK256 SWAP1 JUMPDEST DUP2 SLOAD DUP2 MSTORE SWAP1 PUSH1 0x1 ADD SWAP1 PUSH1 0x20 ADD DUP1 DUP4 GT PUSH2 0x1AF4 JUMPI DUP3 SWAP1 SUB PUSH1 0x1F AND DUP3 ADD SWAP2 JUMPDEST POP POP POP POP PUSH1 0x3 DUP4 ADD SLOAD PUSH1 0x4 DUP5 ADD SLOAD PUSH1 0x5 SWAP1 SWAP5 ADD SLOAD SWAP3 SWAP4 SWAP1 SWAP3 SWAP1 SWAP2 POP PUSH1 0x1 PUSH1 0x1 PUSH1 0xA0 SHL SUB DUP2 AND SWAP1 PUSH1 0x1 PUSH1 0xA0 SHL SWAP1 DIV PUSH1 0xFF AND DUP8 JUMP JUMPDEST PUSH1 0x0 DUP4 MLOAD GT PUSH2 0x1B95 JUMPI PUSH1 0x40 MLOAD PUSH3 0x461BCD PUSH1 0xE5 SHL DUP2 MSTORE PUSH1 0x20 PUSH1 0x4 DUP3 ADD MSTORE PUSH1 0x1F PUSH1 0x24 DUP3 ADD MSTORE PUSH32 0x5065726D697373696F6E20686173682063616E6E6F7420626520656D70747900 PUSH1 0x44 DUP3 ADD MSTORE PUSH1 0x64 ADD PUSH2 0xCFE JUMP JUMPDEST PUSH1 0x0 DUP3 MLOAD GT PUSH2 0x1BB6 JUMPI PUSH1 0x40 MLOAD PUSH3 0x461BCD PUSH1 0xE5 SHL DUP2 MSTORE PUSH1 0x4 ADD PUSH2 0xCFE SWAP1 PUSH2 0x7A1B JUMP JUMPDEST PUSH1 0x1 PUSH1 0x1 PUSH1 0xA0 SHL SUB DUP2 AND PUSH2 0x1C0C JUMPI PUSH1 0x40 MLOAD PUSH3 0x461BCD PUSH1 0xE5 SHL DUP2 MSTORE PUSH1 0x20 PUSH1 0x4 DUP3 ADD MSTORE PUSH1 0x1F PUSH1 0x24 DUP3 ADD MSTORE PUSH32 0x526563656976657220616464726573732063616E6E6F74206265207A65726F00 PUSH1 0x44 DUP3 ADD MSTORE PUSH1 0x64 ADD PUSH2 0xCFE JUMP JUMPDEST CALLER PUSH1 0x1 PUSH1 0x1 PUSH1 0xA0 SHL SUB DUP3 AND SUB PUSH2 0x1C64 JUMPI PUSH1 0x40 MLOAD PUSH3 0x461BCD PUSH1 0xE5 SHL DUP2 MSTORE PUSH1 0x20 PUSH1 0x4 DUP3 ADD MSTORE PUSH1 0x1A PUSH1 0x24 DUP3 ADD MSTORE PUSH32 0x43616E6E6F74207368617265207769746820796F757273656C66000000000000 PUSH1 0x44 DUP3 ADD MSTORE PUSH1 0x64 ADD PUSH2 0xCFE JUMP JUMPDEST PUSH1 0xA DUP4 PUSH1 0x40 MLOAD PUSH2 0x1C74 SWAP2 SWAP1 PUSH2 0x7977 JUMP JUMPDEST SWAP1 DUP2 MSTORE PUSH1 0x40 MLOAD SWAP1 DUP2 SWAP1 SUB PUSH1 0x20 ADD SWAP1 KECCAK256 PUSH1 0x6 ADD SLOAD PUSH1 0xFF PUSH2 0x100 SWAP1 SWAP2 DIV AND ISZERO PUSH2 0x1CDD JUMPI PUSH1 0x40 MLOAD PUSH3 0x461BCD PUSH1 0xE5 SHL DUP2 MSTORE PUSH1 0x20 PUSH1 0x4 DUP3 ADD MSTORE PUSH1 0x19 PUSH1 0x24 DUP3 ADD MSTORE PUSH32 0x5065726D697373696F6E20616C72656164792065786973747300000000000000 PUSH1 0x44 DUP3 ADD MSTORE PUSH1 0x64 ADD PUSH2 0xCFE JUMP JUMPDEST PUSH1 0x40 DUP1 MLOAD PUSH2 0x100 DUP2 ADD DUP3 MSTORE DUP5 DUP2 MSTORE CALLER PUSH1 0x20 DUP3 ADD MSTORE PUSH1 0x1 PUSH1 0x1 PUSH1 0xA0 SHL SUB DUP4 AND DUP2 DUP4 ADD MSTORE PUSH1 0x60 DUP2 ADD DUP5 SWAP1 MSTORE TIMESTAMP PUSH1 0x80 DUP3 ADD MSTORE PUSH1 0x0 PUSH1 0xA0 DUP3 ADD MSTORE PUSH1 0x1 PUSH1 0xC0 DUP3 ADD DUP2 SWAP1 MSTORE PUSH1 0xE0 DUP3 ADD MSTORE SWAP1 MLOAD PUSH1 0xA SWAP1 PUSH2 0x1D31 SWAP1 DUP7 SWAP1 PUSH2 0x7977 JUMP JUMPDEST SWAP1 DUP2 MSTORE PUSH1 0x40 MLOAD SWAP1 DUP2 SWAP1 SUB PUSH1 0x20 ADD SWAP1 KECCAK256 DUP2 MLOAD DUP2 SWAP1 PUSH2 0x1D4E SWAP1 DUP3 PUSH2 0x7B0E JUMP JUMPDEST POP PUSH1 0x20 DUP3 ADD MLOAD PUSH1 0x1 DUP3 ADD DUP1 SLOAD PUSH1 0x1 PUSH1 0x1 PUSH1 0xA0 SHL SUB SWAP3 DUP4 AND PUSH1 0x1 PUSH1 0x1 PUSH1 0xA0 SHL SUB NOT SWAP2 DUP3 AND OR SWAP1 SWAP2 SSTORE PUSH1 0x40 DUP5 ADD MLOAD PUSH1 0x2 DUP5 ADD DUP1 SLOAD SWAP2 SWAP1 SWAP4 AND SWAP2 AND OR SWAP1 SSTORE PUSH1 0x60 DUP3 ADD MLOAD PUSH1 0x3 DUP3 ADD SWAP1 PUSH2 0x1D9D SWAP1 DUP3 PUSH2 0x7B0E JUMP JUMPDEST POP PUSH1 0x80 DUP3 ADD MLOAD PUSH1 0x4 DUP3 ADD SSTORE PUSH1 0xA0 DUP3 ADD MLOAD PUSH1 0x5 DUP3 ADD SSTORE PUSH1 0xC0 DUP3 ADD MLOAD PUSH1 0x6 SWAP1 SWAP2 ADD DUP1 SLOAD PUSH1 0xE0 SWAP1 SWAP4 ADD MLOAD ISZERO ISZERO PUSH2 0x100 MUL PUSH2 0xFF00 NOT SWAP3 ISZERO ISZERO SWAP3 SWAP1 SWAP3 AND PUSH2 0xFFFF NOT SWAP1 SWAP4 AND SWAP3 SWAP1 SWAP3 OR OR SWAP1 SSTORE CALLER PUSH1 0x0 SWAP1 DUP2 MSTORE PUSH1 0xB PUSH1 0x20 SWAP1 DUP2 MSTORE PUSH1 0x40 DUP3 KECCAK256 DUP1 SLOAD PUSH1 0x1 DUP2 ADD DUP3 SSTORE SWAP1 DUP4 MSTORE SWAP2 KECCAK256 ADD PUSH2 0x1E0C DUP5 DUP3 PUSH2 0x7B0E JUMP JUMPDEST POP PUSH1 0x1 PUSH1 0x1 PUSH1 0xA0 SHL SUB DUP2 AND PUSH1 0x0 SWAP1 DUP2 MSTORE PUSH1 0xC PUSH1 0x20 SWAP1 DUP2 MSTORE PUSH1 0x40 DUP3 KECCAK256 DUP1 SLOAD PUSH1 0x1 DUP2 ADD DUP3 SSTORE SWAP1 DUP4 MSTORE SWAP2 KECCAK256 ADD PUSH2 0x1E3F DUP5 DUP3 PUSH2 0x7B0E JUMP JUMPDEST POP PUSH1 0xD DUP1 SLOAD SWAP1 PUSH1 0x0 PUSH2 0x1E50 DUP4 PUSH2 0x7BE3 JUMP JUMPDEST SWAP2 SWAP1 POP SSTORE POP DUP1 PUSH1 0x1 PUSH1 0x1 PUSH1 0xA0 SHL SUB AND CALLER PUSH1 0x1 PUSH1 0x1 PUSH1 0xA0 SHL SUB AND DUP5 PUSH1 0x40 MLOAD PUSH2 0x1E77 SWAP2 SWAP1 PUSH2 0x7977 JUMP JUMPDEST PUSH1 0x40 MLOAD DUP1 SWAP2 SUB SWAP1 KECCAK256 PUSH32 0x4E9B2250DC310298285671060EEB083837ADB673CEDB4FCFF8837A53196E885F DUP6 TIMESTAMP PUSH1 0x40 MLOAD PUSH2 0x1EB0 SWAP3 SWAP2 SWAP1 PUSH2 0x7BFC JUMP JUMPDEST PUSH1 0x40 MLOAD DUP1 SWAP2 SUB SWAP1 LOG4 POP POP POP JUMP JUMPDEST PUSH1 0xB PUSH1 0x20 MSTORE DUP2 PUSH1 0x0 MSTORE PUSH1 0x40 PUSH1 0x0 KECCAK256 DUP2 DUP2 SLOAD DUP2 LT PUSH2 0xBFB JUMPI PUSH1 0x0 DUP1 REVERT JUMPDEST DUP1 MLOAD PUSH1 0x20 DUP2 DUP4 ADD DUP2 ADD DUP1 MLOAD PUSH1 0xA DUP3 MSTORE SWAP3 DUP3 ADD SWAP2 SWAP1 SWAP4 ADD KECCAK256 SWAP2 MSTORE DUP1 SLOAD DUP2 SWAP1 PUSH2 0x1EFF SWAP1 PUSH2 0x793D JUMP JUMPDEST DUP1 PUSH1 0x1F ADD PUSH1 0x20 DUP1 SWAP2 DIV MUL PUSH1 0x20 ADD PUSH1 0x40 MLOAD SWAP1 DUP2 ADD PUSH1 0x40 MSTORE DUP1 SWAP3 SWAP2 SWAP1 DUP2 DUP2 MSTORE PUSH1 0x20 ADD DUP3 DUP1 SLOAD PUSH2 0x1F2B SWAP1 PUSH2 0x793D JUMP JUMPDEST DUP1 ISZERO PUSH2 0x1F78 JUMPI DUP1 PUSH1 0x1F LT PUSH2 0x1F4D JUMPI PUSH2 0x100 DUP1 DUP4 SLOAD DIV MUL DUP4 MSTORE SWAP2 PUSH1 0x20 ADD SWAP2 PUSH2 0x1F78 JUMP JUMPDEST DUP3 ADD SWAP2 SWAP1 PUSH1 0x0 MSTORE PUSH1 0x20 PUSH1 0x0 KECCAK256 SWAP1 JUMPDEST DUP2 SLOAD DUP2 MSTORE SWAP1 PUSH1 0x1 ADD SWAP1 PUSH1 0x20 ADD DUP1 DUP4 GT PUSH2 0x1F5B JUMPI DUP3 SWAP1 SUB PUSH1 0x1F AND DUP3 ADD SWAP2 JUMPDEST POP POP POP PUSH1 0x1 DUP5 ADD SLOAD PUSH1 0x2 DUP6 ADD SLOAD PUSH1 0x3 DUP7 ADD DUP1 SLOAD SWAP6 SWAP7 PUSH1 0x1 PUSH1 0x1 PUSH1 0xA0 SHL SUB SWAP4 DUP5 AND SWAP7 SWAP3 SWAP1 SWAP4 AND SWAP5 POP SWAP2 SWAP3 POP PUSH2 0x1FAB SWAP1 PUSH2 0x793D JUMP JUMPDEST DUP1 PUSH1 0x1F ADD PUSH1 0x20 DUP1 SWAP2 DIV MUL PUSH1 0x20 ADD PUSH1 0x40 MLOAD SWAP1 DUP2 ADD PUSH1 0x40 MSTORE DUP1 SWAP3 SWAP2 SWAP1 DUP2 DUP2 MSTORE PUSH1 0x20 ADD DUP3 DUP1 SLOAD PUSH2 0x1FD7 SWAP1 PUSH2 0x793D JUMP JUMPDEST DUP1 ISZERO PUSH2 0x2024 JUMPI DUP1 PUSH1 0x1F LT PUSH2 0x1FF9 JUMPI PUSH2 0x100 DUP1 DUP4 SLOAD DIV MUL DUP4 MSTORE SWAP2 PUSH1 0x20 ADD SWAP2 PUSH2 0x2024 JUMP JUMPDEST DUP3 ADD SWAP2 SWAP1 PUSH1 0x0 MSTORE PUSH1 0x20 PUSH1 0x0 KECCAK256 SWAP1 JUMPDEST DUP2 SLOAD DUP2 MSTORE SWAP1 PUSH1 0x1 ADD SWAP1 PUSH1 0x20 ADD DUP1 DUP4 GT PUSH2 0x2007 JUMPI DUP3 SWAP1 SUB PUSH1 0x1F AND DUP3 ADD SWAP2 JUMPDEST POP POP POP POP PUSH1 0x4 DUP4 ADD SLOAD PUSH1 0x5 DUP5 ADD SLOAD PUSH1 0x6 SWAP1 SWAP5 ADD SLOAD SWAP3 SWAP4 SWAP1 SWAP3 SWAP1 SWAP2 POP PUSH1 0xFF DUP1 DUP3 AND SWAP2 PUSH2 0x100 SWAP1 DIV AND DUP9 JUMP JUMPDEST PUSH1 0x0 DUP1 PUSH1 0x0 PUSH1 0x15 DUP6 PUSH1 0x40 MLOAD PUSH2 0x2063 SWAP2 SWAP1 PUSH2 0x7977 JUMP JUMPDEST SWAP1 DUP2 MSTORE PUSH1 0x40 DUP1 MLOAD SWAP2 DUP3 SWAP1 SUB PUSH1 0x20 SWAP1 DUP2 ADD DUP4 KECCAK256 PUSH1 0x1 PUSH1 0x1 PUSH1 0xA0 SHL SUB DUP9 AND PUSH1 0x0 SWAP1 DUP2 MSTORE SWAP1 DUP3 MSTORE DUP3 DUP2 KECCAK256 DUP1 SLOAD DUP1 DUP5 MUL DUP7 ADD DUP5 ADD SWAP1 SWAP5 MSTORE DUP4 DUP6 MSTORE SWAP3 SWAP2 DUP5 ADD JUMPDEST DUP3 DUP3 LT ISZERO PUSH2 0x20FA JUMPI PUSH1 0x0 DUP5 DUP2 MSTORE PUSH1 0x20 SWAP1 DUP2 SWAP1 KECCAK256 PUSH1 0x40 DUP1 MLOAD PUSH1 0x60 DUP2 ADD DUP3 MSTORE PUSH1 0x2 DUP7 MUL SWAP1 SWAP3 ADD DUP1 SLOAD PUSH1 0x1 PUSH1 0x1 PUSH1 0xA0 SHL SUB DUP2 AND DUP5 MSTORE PUSH1 0x1 PUSH1 0xA0 SHL SWAP1 DIV PUSH1 0xFF AND ISZERO ISZERO DUP4 DUP6 ADD MSTORE PUSH1 0x1 SWAP1 DUP2 ADD SLOAD SWAP2 DUP4 ADD SWAP2 SWAP1 SWAP2 MSTORE SWAP1 DUP4 MSTORE SWAP1 SWAP3 ADD SWAP2 ADD PUSH2 0x209E JUMP JUMPDEST POP POP POP POP SWAP1 POP PUSH1 0x0 JUMPDEST DUP2 MLOAD DUP2 LT ISZERO PUSH2 0x2161 JUMPI DUP2 DUP2 DUP2 MLOAD DUP2 LT PUSH2 0x211E JUMPI PUSH2 0x211E PUSH2 0x79C0 JUMP JUMPDEST PUSH1 0x20 MUL PUSH1 0x20 ADD ADD MLOAD PUSH1 0x20 ADD MLOAD ISZERO PUSH2 0x2141 JUMPI DUP4 PUSH2 0x2139 DUP2 PUSH2 0x7BE3 JUMP JUMPDEST SWAP5 POP POP PUSH2 0x214F JUMP JUMPDEST DUP3 PUSH2 0x214B DUP2 PUSH2 0x7BE3 JUMP JUMPDEST SWAP4 POP POP JUMPDEST DUP1 PUSH2 0x2159 DUP2 PUSH2 0x7BE3 JUMP JUMPDEST SWAP2 POP POP PUSH2 0x2103 JUMP JUMPDEST POP POP SWAP3 POP SWAP3 SWAP1 POP JUMP JUMPDEST PUSH1 0x60 PUSH1 0x6 DUP3 PUSH1 0x40 MLOAD PUSH2 0x159B SWAP2 SWAP1 PUSH2 0x7977 JUMP JUMPDEST PUSH2 0x218B DUP3 DUP3 PUSH1 0x0 DUP1 PUSH1 0x0 PUSH2 0x61F3 JUMP JUMPDEST CALLER PUSH1 0x0 SWAP1 DUP2 MSTORE PUSH1 0x17 PUSH1 0x20 SWAP1 DUP2 MSTORE PUSH1 0x40 DUP3 KECCAK256 DUP1 SLOAD PUSH1 0x1 DUP2 ADD DUP3 SSTORE SWAP1 DUP4 MSTORE SWAP2 KECCAK256 ADD PUSH2 0x21B4 DUP4 DUP3 PUSH2 0x7B0E JUMP JUMPDEST POP POP POP JUMP JUMPDEST PUSH1 0x0 DUP1 PUSH1 0x0 DUP1 PUSH1 0x12 DUP6 PUSH1 0x40 MLOAD PUSH2 0x21CF SWAP2 SWAP1 PUSH2 0x7977 JUMP JUMPDEST SWAP1 DUP2 MSTORE PUSH1 0x20 ADD PUSH1 0x40 MLOAD DUP1 SWAP2 SUB SWAP1 KECCAK256 DUP1 SLOAD DUP1 PUSH1 0x20 MUL PUSH1 0x20 ADD PUSH1 0x40 MLOAD SWAP1 DUP2 ADD PUSH1 0x40 MSTORE DUP1 SWAP3 SWAP2 SWAP1 DUP2 DUP2 MSTORE PUSH1 0x20 ADD PUSH1 0x0 SWAP1 JUMPDEST DUP3 DUP3 LT ISZERO PUSH2 0x2391 JUMPI PUSH1 0x0 DUP5 DUP2 MSTORE PUSH1 0x20 SWAP1 DUP2 SWAP1 KECCAK256 PUSH1 0x40 DUP1 MLOAD PUSH1 0xE0 DUP2 ADD SWAP1 SWAP2 MSTORE PUSH1 0x4 DUP6 MUL SWAP1 SWAP2 ADD DUP1 SLOAD PUSH1 0x1 PUSH1 0x1 PUSH1 0xA0 SHL SUB DUP2 AND DUP4 MSTORE SWAP2 SWAP3 SWAP1 SWAP2 SWAP1 DUP4 ADD SWAP1 PUSH1 0x1 PUSH1 0xA0 SHL SWAP1 DIV PUSH1 0xFF AND PUSH1 0x1 DUP2 GT ISZERO PUSH2 0x2253 JUMPI PUSH2 0x2253 PUSH2 0x6F0F JUMP JUMPDEST PUSH1 0x1 DUP2 GT ISZERO PUSH2 0x2264 JUMPI PUSH2 0x2264 PUSH2 0x6F0F JUMP JUMPDEST DUP2 MSTORE DUP2 SLOAD PUSH1 0x20 SWAP1 SWAP2 ADD SWAP1 PUSH1 0x1 PUSH1 0xA8 SHL SWAP1 DIV PUSH1 0xFF AND PUSH1 0x3 DUP2 GT ISZERO PUSH2 0x2289 JUMPI PUSH2 0x2289 PUSH2 0x6F0F JUMP JUMPDEST PUSH1 0x3 DUP2 GT ISZERO PUSH2 0x229A JUMPI PUSH2 0x229A PUSH2 0x6F0F JUMP JUMPDEST DUP2 MSTORE DUP2 SLOAD PUSH1 0x20 SWAP1 SWAP2 ADD SWAP1 PUSH1 0x1 PUSH1 0xB0 SHL SWAP1 DIV PUSH1 0xFF AND PUSH1 0x5 DUP2 GT ISZERO PUSH2 0x22BF JUMPI PUSH2 0x22BF PUSH2 0x6F0F JUMP JUMPDEST PUSH1 0x5 DUP2 GT ISZERO PUSH2 0x22D0 JUMPI PUSH2 0x22D0 PUSH2 0x6F0F JUMP JUMPDEST DUP2 MSTORE PUSH1 0x20 ADD PUSH1 0x1 DUP3 ADD SLOAD DUP2 MSTORE PUSH1 0x20 ADD PUSH1 0x2 DUP3 ADD DUP1 SLOAD PUSH2 0x22EE SWAP1 PUSH2 0x793D JUMP JUMPDEST DUP1 PUSH1 0x1F ADD PUSH1 0x20 DUP1 SWAP2 DIV MUL PUSH1 0x20 ADD PUSH1 0x40 MLOAD SWAP1 DUP2 ADD PUSH1 0x40 MSTORE DUP1 SWAP3 SWAP2 SWAP1 DUP2 DUP2 MSTORE PUSH1 0x20 ADD DUP3 DUP1 SLOAD PUSH2 0x231A SWAP1 PUSH2 0x793D JUMP JUMPDEST DUP1 ISZERO PUSH2 0x2367 JUMPI DUP1 PUSH1 0x1F LT PUSH2 0x233C JUMPI PUSH2 0x100 DUP1 DUP4 SLOAD DIV MUL DUP4 MSTORE SWAP2 PUSH1 0x20 ADD SWAP2 PUSH2 0x2367 JUMP JUMPDEST DUP3 ADD SWAP2 SWAP1 PUSH1 0x0 MSTORE PUSH1 0x20 PUSH1 0x0 KECCAK256 SWAP1 JUMPDEST DUP2 SLOAD DUP2 MSTORE SWAP1 PUSH1 0x1 ADD SWAP1 PUSH1 0x20 ADD DUP1 DUP4 GT PUSH2 0x234A JUMPI DUP3 SWAP1 SUB PUSH1 0x1F AND DUP3 ADD SWAP2 JUMPDEST POP POP POP SWAP2 DUP4 MSTORE POP POP PUSH1 0x3 SWAP2 SWAP1 SWAP2 ADD SLOAD PUSH1 0xFF AND ISZERO ISZERO PUSH1 0x20 SWAP2 DUP3 ADD MSTORE SWAP1 DUP3 MSTORE PUSH1 0x1 SWAP3 SWAP1 SWAP3 ADD SWAP2 ADD PUSH2 0x21FD JUMP JUMPDEST POP POP POP POP SWAP1 POP PUSH1 0x0 JUMPDEST DUP2 MLOAD DUP2 LT ISZERO PUSH2 0x2440 JUMPI DUP2 DUP2 DUP2 MLOAD DUP2 LT PUSH2 0x23B5 JUMPI PUSH2 0x23B5 PUSH2 0x79C0 JUMP JUMPDEST PUSH1 0x20 MUL PUSH1 0x20 ADD ADD MLOAD PUSH1 0xC0 ADD MLOAD ISZERO PUSH2 0x2420 JUMPI PUSH1 0x0 DUP3 DUP3 DUP2 MLOAD DUP2 LT PUSH2 0x23DA JUMPI PUSH2 0x23DA PUSH2 0x79C0 JUMP JUMPDEST PUSH1 0x20 MUL PUSH1 0x20 ADD ADD MLOAD PUSH1 0x20 ADD MLOAD PUSH1 0x1 DUP2 GT ISZERO PUSH2 0x23F7 JUMPI PUSH2 0x23F7 PUSH2 0x6F0F JUMP JUMPDEST SUB PUSH2 0x240E JUMPI DUP5 PUSH2 0x2406 DUP2 PUSH2 0x7BE3 JUMP JUMPDEST SWAP6 POP POP PUSH2 0x242E JUMP JUMPDEST DUP4 PUSH2 0x2418 DUP2 PUSH2 0x7BE3 JUMP JUMPDEST SWAP5 POP POP PUSH2 0x242E JUMP JUMPDEST DUP3 PUSH2 0x242A DUP2 PUSH2 0x7BE3 JUMP JUMPDEST SWAP4 POP POP JUMPDEST DUP1 PUSH2 0x2438 DUP2 PUSH2 0x7BE3 JUMP JUMPDEST SWAP2 POP POP PUSH2 0x239A JUMP JUMPDEST POP POP SWAP2 SWAP4 SWAP1 SWAP3 POP JUMP JUMPDEST PUSH1 0x0 DUP1 PUSH1 0x0 PUSH1 0x5 DUP5 PUSH1 0x40 MLOAD PUSH2 0x245E SWAP2 SWAP1 PUSH2 0x7977 JUMP JUMPDEST SWAP1 DUP2 MSTORE PUSH1 0x40 MLOAD SWAP1 DUP2 SWAP1 SUB PUSH1 0x20 ADD DUP2 KECCAK256 SLOAD SWAP1 PUSH1 0x6 SWAP1 PUSH2 0x247D SWAP1 DUP8 SWAP1 PUSH2 0x7977 JUMP JUMPDEST SWAP1 DUP2 MSTORE PUSH1 0x40 MLOAD SWAP1 DUP2 SWAP1 SUB PUSH1 0x20 ADD DUP2 KECCAK256 SLOAD SWAP1 PUSH1 0x7 SWAP1 PUSH2 0x249C SWAP1 DUP9 SWAP1 PUSH2 0x7977 JUMP JUMPDEST SWAP1 DUP2 MSTORE PUSH1 0x40 MLOAD SWAP1 DUP2 SWAP1 SUB PUSH1 0x20 ADD SWAP1 KECCAK256 SLOAD SWAP2 SWAP5 POP SWAP3 POP SWAP1 POP SWAP2 SWAP4 SWAP1 SWAP3 POP JUMP JUMPDEST PUSH1 0x0 PUSH1 0x1 PUSH1 0x1 PUSH1 0x1 PUSH1 0xA0 SHL SUB DUP4 AND PUSH1 0x0 SWAP1 DUP2 MSTORE PUSH1 0x1 PUSH1 0x20 MSTORE PUSH1 0x40 SWAP1 KECCAK256 PUSH1 0x2 SWAP1 DUP2 ADD SLOAD PUSH1 0xFF AND SWAP1 DUP2 GT ISZERO PUSH2 0x24EF JUMPI PUSH2 0x24EF PUSH2 0x6F0F JUMP JUMPDEST EQ SWAP3 SWAP2 POP POP JUMP JUMPDEST PUSH1 0x17 PUSH1 0x20 MSTORE DUP2 PUSH1 0x0 MSTORE PUSH1 0x40 PUSH1 0x0 KECCAK256 DUP2 DUP2 SLOAD DUP2 LT PUSH2 0xBFB JUMPI PUSH1 0x0 DUP1 REVERT JUMPDEST PUSH1 0x0 SLOAD PUSH1 0x1 PUSH1 0x1 PUSH1 0xA0 SHL SUB AND CALLER EQ PUSH2 0x253C JUMPI PUSH1 0x40 MLOAD PUSH3 0x461BCD PUSH1 0xE5 SHL DUP2 MSTORE PUSH1 0x4 ADD PUSH2 0xCFE SWAP1 PUSH2 0x7C1E JUMP JUMPDEST PUSH1 0x1 PUSH1 0x1 PUSH1 0xA0 SHL SUB DUP3 AND PUSH2 0x258B JUMPI PUSH1 0x40 MLOAD PUSH3 0x461BCD PUSH1 0xE5 SHL DUP2 MSTORE PUSH1 0x20 PUSH1 0x4 DUP3 ADD MSTORE PUSH1 0x16 PUSH1 0x24 DUP3 ADD MSTORE PUSH22 0x496E76616C69642077616C6C65742061646472657373 PUSH1 0x50 SHL PUSH1 0x44 DUP3 ADD MSTORE PUSH1 0x64 ADD PUSH2 0xCFE JUMP JUMPDEST PUSH1 0x1 PUSH1 0x1 PUSH1 0xA0 SHL SUB DUP3 AND PUSH1 0x0 SWAP1 DUP2 MSTORE PUSH1 0x1 PUSH1 0x20 MSTORE PUSH1 0x40 SWAP1 KECCAK256 PUSH1 0x3 ADD SLOAD ISZERO PUSH2 0x25E7 JUMPI PUSH1 0x40 MLOAD PUSH3 0x461BCD PUSH1 0xE5 SHL DUP2 MSTORE PUSH1 0x20 PUSH1 0x4 DUP3 ADD MSTORE PUSH1 0x10 PUSH1 0x24 DUP3 ADD MSTORE PUSH16 0x20B63932B0B23C90309036B2B6B132B9 PUSH1 0x81 SHL PUSH1 0x44 DUP3 ADD MSTORE PUSH1 0x64 ADD PUSH2 0xCFE JUMP JUMPDEST PUSH1 0x0 DUP2 DUP2 MSTORE PUSH1 0x2 PUSH1 0x20 MSTORE PUSH1 0x40 SWAP1 KECCAK256 SLOAD PUSH1 0x1 PUSH1 0x1 PUSH1 0xA0 SHL SUB AND ISZERO PUSH2 0x264C JUMPI PUSH1 0x40 MLOAD PUSH3 0x461BCD PUSH1 0xE5 SHL DUP2 MSTORE PUSH1 0x20 PUSH1 0x4 DUP3 ADD MSTORE PUSH1 0x1A PUSH1 0x24 DUP3 ADD MSTORE PUSH32 0x5573657220494420616C72656164792072656769737465726564000000000000 PUSH1 0x44 DUP3 ADD MSTORE PUSH1 0x64 ADD PUSH2 0xCFE JUMP JUMPDEST PUSH1 0x40 DUP1 MLOAD PUSH1 0x80 DUP2 ADD DUP3 MSTORE PUSH1 0x1 PUSH1 0x1 PUSH1 0xA0 SHL SUB DUP5 DUP2 AND DUP1 DUP4 MSTORE PUSH1 0x20 DUP1 DUP5 ADD DUP7 DUP2 MSTORE PUSH1 0x1 DUP6 DUP8 ADD DUP2 DUP2 MSTORE TIMESTAMP PUSH1 0x60 DUP9 ADD MSTORE PUSH1 0x0 SWAP5 DUP6 MSTORE SWAP3 DUP2 SWAP1 MSTORE SWAP6 SWAP1 SWAP3 KECCAK256 DUP5 MLOAD DUP2 SLOAD PUSH1 0x1 PUSH1 0x1 PUSH1 0xA0 SHL SUB NOT AND SWAP5 AND SWAP4 SWAP1 SWAP4 OR DUP4 SSTORE SWAP1 MLOAD DUP3 DUP6 ADD SSTORE MLOAD PUSH1 0x2 DUP1 DUP4 ADD DUP1 SLOAD SWAP5 SWAP6 SWAP4 SWAP5 SWAP3 SWAP4 SWAP1 SWAP3 PUSH1 0xFF NOT AND SWAP2 DUP5 SWAP1 DUP2 GT ISZERO PUSH2 0x26C9 JUMPI PUSH2 0x26C9 PUSH2 0x6F0F JUMP JUMPDEST MUL OR SWAP1 SSTORE POP PUSH1 0x60 SWAP2 SWAP1 SWAP2 ADD MLOAD PUSH1 0x3 SWAP2 DUP3 ADD SSTORE PUSH1 0x0 DUP3 DUP2 MSTORE PUSH1 0x2 PUSH1 0x20 MSTORE PUSH1 0x40 DUP2 KECCAK256 DUP1 SLOAD PUSH1 0x1 PUSH1 0x1 PUSH1 0xA0 SHL SUB NOT AND PUSH1 0x1 PUSH1 0x1 PUSH1 0xA0 SHL SUB DUP7 AND OR SWAP1 SSTORE DUP2 SLOAD SWAP2 SWAP1 PUSH2 0x270F DUP4 PUSH2 0x7BE3 JUMP JUMPDEST SWAP2 SWAP1 POP SSTORE POP DUP1 DUP3 PUSH1 0x1 PUSH1 0x1 PUSH1 0xA0 SHL SUB AND PUSH32 0x39D132591EE0696DE49AB564E4A90E430C006561917DB731A2A614DD2D245591 TIMESTAMP PUSH1 0x40 MLOAD PUSH2 0x2750 SWAP2 DUP2 MSTORE PUSH1 0x20 ADD SWAP1 JUMP JUMPDEST PUSH1 0x40 MLOAD DUP1 SWAP2 SUB SWAP1 LOG3 POP POP JUMP JUMPDEST PUSH1 0x60 PUSH1 0x7 DUP3 PUSH1 0x40 MLOAD PUSH2 0x159B SWAP2 SWAP1 PUSH2 0x7977 JUMP JUMPDEST PUSH1 0x1 PUSH1 0x1 PUSH1 0xA0 SHL SUB DUP2 AND PUSH1 0x0 SWAP1 DUP2 MSTORE PUSH1 0x8 PUSH1 0x20 SWAP1 DUP2 MSTORE PUSH1 0x40 DUP1 DUP4 KECCAK256 DUP1 SLOAD DUP3 MLOAD DUP2 DUP6 MUL DUP2 ADD DUP6 ADD SWAP1 SWAP4 MSTORE DUP1 DUP4 MSTORE PUSH1 0x60 SWAP5 SWAP3 SWAP4 SWAP2 SWAP3 SWAP1 SWAP2 DUP5 ADD JUMPDEST DUP3 DUP3 LT ISZERO PUSH2 0x1164 JUMPI DUP4 DUP3 SWAP1 PUSH1 0x0 MSTORE PUSH1 0x20 PUSH1 0x0 KECCAK256 ADD DUP1 SLOAD PUSH2 0x27C5 SWAP1 PUSH2 0x793D JUMP JUMPDEST DUP1 PUSH1 0x1F ADD PUSH1 0x20 DUP1 SWAP2 DIV MUL PUSH1 0x20 ADD PUSH1 0x40 MLOAD SWAP1 DUP2 ADD PUSH1 0x40 MSTORE DUP1 SWAP3 SWAP2 SWAP1 DUP2 DUP2 MSTORE PUSH1 0x20 ADD DUP3 DUP1 SLOAD PUSH2 0x27F1 SWAP1 PUSH2 0x793D JUMP JUMPDEST DUP1 ISZERO PUSH2 0x283E JUMPI DUP1 PUSH1 0x1F LT PUSH2 0x2813 JUMPI PUSH2 0x100 DUP1 DUP4 SLOAD DIV MUL DUP4 MSTORE SWAP2 PUSH1 0x20 ADD SWAP2 PUSH2 0x283E JUMP JUMPDEST DUP3 ADD SWAP2 SWAP1 PUSH1 0x0 MSTORE PUSH1 0x20 PUSH1 0x0 KECCAK256 SWAP1 JUMPDEST DUP2 SLOAD DUP2 MSTORE SWAP1 PUSH1 0x1 ADD SWAP1 PUSH1 0x20 ADD DUP1 DUP4 GT PUSH2 0x2821 JUMPI DUP3 SWAP1 SUB PUSH1 0x1F AND DUP3 ADD SWAP2 JUMPDEST POP POP POP POP POP DUP2 MSTORE PUSH1 0x20 ADD SWAP1 PUSH1 0x1 ADD SWAP1 PUSH2 0x27A6 JUMP JUMPDEST PUSH1 0x1 PUSH1 0x1 PUSH1 0xA0 SHL SUB DUP2 AND PUSH1 0x0 SWAP1 DUP2 MSTORE PUSH1 0xB PUSH1 0x20 SWAP1 DUP2 MSTORE PUSH1 0x40 DUP1 DUP4 KECCAK256 DUP1 SLOAD DUP3 MLOAD DUP2 DUP6 MUL DUP2 ADD DUP6 ADD SWAP1 SWAP4 MSTORE DUP1 DUP4 MSTORE DUP5 SWAP4 DUP5 SWAP4 SWAP3 SWAP2 SWAP1 DUP5 SWAP1 DUP5 ADD JUMPDEST DUP3 DUP3 LT ISZERO PUSH2 0x2936 JUMPI DUP4 DUP3 SWAP1 PUSH1 0x0 MSTORE PUSH1 0x20 PUSH1 0x0 KECCAK256 ADD DUP1 SLOAD PUSH2 0x28A9 SWAP1 PUSH2 0x793D JUMP JUMPDEST DUP1 PUSH1 0x1F ADD PUSH1 0x20 DUP1 SWAP2 DIV MUL PUSH1 0x20 ADD PUSH1 0x40 MLOAD SWAP1 DUP2 ADD PUSH1 0x40 MSTORE DUP1 SWAP3 SWAP2 SWAP1 DUP2 DUP2 MSTORE PUSH1 0x20 ADD DUP3 DUP1 SLOAD PUSH2 0x28D5 SWAP1 PUSH2 0x793D JUMP JUMPDEST DUP1 ISZERO PUSH2 0x2922 JUMPI DUP1 PUSH1 0x1F LT PUSH2 0x28F7 JUMPI PUSH2 0x100 DUP1 DUP4 SLOAD DIV MUL DUP4 MSTORE SWAP2 PUSH1 0x20 ADD SWAP2 PUSH2 0x2922 JUMP JUMPDEST DUP3 ADD SWAP2 SWAP1 PUSH1 0x0 MSTORE PUSH1 0x20 PUSH1 0x0 KECCAK256 SWAP1 JUMPDEST DUP2 SLOAD DUP2 MSTORE SWAP1 PUSH1 0x1 ADD SWAP1 PUSH1 0x20 ADD DUP1 DUP4 GT PUSH2 0x2905 JUMPI DUP3 SWAP1 SUB PUSH1 0x1F AND DUP3 ADD SWAP2 JUMPDEST POP POP POP POP POP DUP2 MSTORE PUSH1 0x20 ADD SWAP1 PUSH1 0x1 ADD SWAP1 PUSH2 0x288A JUMP JUMPDEST POP POP POP POP SWAP1 POP DUP1 MLOAD SWAP3 POP PUSH1 0x0 SWAP2 POP PUSH1 0x0 JUMPDEST DUP2 MLOAD DUP2 LT ISZERO PUSH2 0x29B4 JUMPI PUSH1 0xA DUP3 DUP3 DUP2 MLOAD DUP2 LT PUSH2 0x2964 JUMPI PUSH2 0x2964 PUSH2 0x79C0 JUMP JUMPDEST PUSH1 0x20 MUL PUSH1 0x20 ADD ADD MLOAD PUSH1 0x40 MLOAD PUSH2 0x2979 SWAP2 SWAP1 PUSH2 0x7977 JUMP JUMPDEST SWAP1 DUP2 MSTORE PUSH1 0x40 MLOAD SWAP1 DUP2 SWAP1 SUB PUSH1 0x20 ADD SWAP1 KECCAK256 PUSH1 0x6 ADD SLOAD PUSH1 0xFF AND ISZERO PUSH2 0x29A2 JUMPI DUP3 PUSH2 0x299E DUP2 PUSH2 0x7BE3 JUMP JUMPDEST SWAP4 POP POP JUMPDEST DUP1 PUSH2 0x29AC DUP2 PUSH2 0x7BE3 JUMP JUMPDEST SWAP2 POP POP PUSH2 0x2947 JUMP JUMPDEST POP POP SWAP2 POP SWAP2 JUMP JUMPDEST PUSH1 0x0 SLOAD PUSH1 0x1 PUSH1 0x1 PUSH1 0xA0 SHL SUB AND CALLER EQ PUSH2 0x29E5 JUMPI PUSH1 0x40 MLOAD PUSH3 0x461BCD PUSH1 0xE5 SHL DUP2 MSTORE PUSH1 0x4 ADD PUSH2 0xCFE SWAP1 PUSH2 0x7C1E JUMP JUMPDEST PUSH1 0x1 PUSH1 0x1 PUSH1 0xA0 SHL SUB DUP3 AND PUSH1 0x0 SWAP1 DUP2 MSTORE PUSH1 0x1 PUSH1 0x20 MSTORE PUSH1 0x40 DUP2 KECCAK256 PUSH1 0x3 ADD SLOAD SWAP1 SUB PUSH2 0x2A3E JUMPI PUSH1 0x40 MLOAD PUSH3 0x461BCD PUSH1 0xE5 SHL DUP2 MSTORE PUSH1 0x20 PUSH1 0x4 DUP3 ADD MSTORE PUSH1 0xC PUSH1 0x24 DUP3 ADD MSTORE PUSH12 0x2737BA10309036B2B6B132B9 PUSH1 0xA1 SHL PUSH1 0x44 DUP3 ADD MSTORE PUSH1 0x64 ADD PUSH2 0xCFE JUMP JUMPDEST PUSH1 0x1 PUSH1 0x1 PUSH1 0xA0 SHL SUB DUP3 AND PUSH1 0x0 SWAP1 DUP2 MSTORE PUSH1 0x1 PUSH1 0x20 MSTORE PUSH1 0x40 SWAP1 KECCAK256 PUSH1 0x2 SWAP1 DUP2 ADD SLOAD PUSH1 0xFF AND SWAP1 DUP3 SWAP1 DUP2 GT ISZERO PUSH2 0x2A71 JUMPI PUSH2 0x2A71 PUSH2 0x6F0F JUMP JUMPDEST DUP2 PUSH1 0x2 DUP2 GT ISZERO PUSH2 0x2A83 JUMPI PUSH2 0x2A83 PUSH2 0x6F0F JUMP JUMPDEST SUB PUSH2 0x2AC6 JUMPI PUSH1 0x40 MLOAD PUSH3 0x461BCD PUSH1 0xE5 SHL DUP2 MSTORE PUSH1 0x20 PUSH1 0x4 DUP3 ADD MSTORE PUSH1 0x13 PUSH1 0x24 DUP3 ADD MSTORE PUSH19 0x416C7265616479207468697320737461747573 PUSH1 0x68 SHL PUSH1 0x44 DUP3 ADD MSTORE PUSH1 0x64 ADD PUSH2 0xCFE JUMP JUMPDEST DUP2 PUSH1 0x1 PUSH1 0x0 DUP6 PUSH1 0x1 PUSH1 0x1 PUSH1 0xA0 SHL SUB AND PUSH1 0x1 PUSH1 0x1 PUSH1 0xA0 SHL SUB AND DUP2 MSTORE PUSH1 0x20 ADD SWAP1 DUP2 MSTORE PUSH1 0x20 ADD PUSH1 0x0 KECCAK256 PUSH1 0x2 ADD PUSH1 0x0 PUSH2 0x100 EXP DUP2 SLOAD DUP2 PUSH1 0xFF MUL NOT AND SWAP1 DUP4 PUSH1 0x2 DUP2 GT ISZERO PUSH2 0x2B10 JUMPI PUSH2 0x2B10 PUSH2 0x6F0F JUMP JUMPDEST MUL OR SWAP1 SSTORE POP CALLER PUSH1 0x1 PUSH1 0x1 PUSH1 0xA0 SHL SUB AND DUP4 PUSH1 0x1 PUSH1 0x1 PUSH1 0xA0 SHL SUB AND PUSH32 0x8DF6FE77900A7F74A03489F6BE278308324A06574C9D8A65C1DAE5381C3881D DUP4 DUP6 TIMESTAMP PUSH1 0x40 MLOAD PUSH2 0x2B5C SWAP4 SWAP3 SWAP2 SWAP1 PUSH2 0x7C42 JUMP JUMPDEST PUSH1 0x40 MLOAD DUP1 SWAP2 SUB SWAP1 LOG3 POP POP POP JUMP JUMPDEST PUSH1 0x0 DUP3 MLOAD GT PUSH2 0x2B8A JUMPI PUSH1 0x40 MLOAD PUSH3 0x461BCD PUSH1 0xE5 SHL DUP2 MSTORE PUSH1 0x4 ADD PUSH2 0xCFE SWAP1 PUSH2 0x7A1B JUMP JUMPDEST PUSH1 0x1 PUSH1 0x1 PUSH1 0xA0 SHL SUB DUP2 AND PUSH2 0x2BB0 JUMPI PUSH1 0x40 MLOAD PUSH3 0x461BCD PUSH1 0xE5 SHL DUP2 MSTORE PUSH1 0x4 ADD PUSH2 0xCFE SWAP1 PUSH2 0x7C5D JUMP JUMPDEST PUSH1 0x0 DUP3 DUP3 PUSH1 0x40 MLOAD PUSH1 0x20 ADD PUSH2 0x2BC5 SWAP3 SWAP2 SWAP1 PUSH2 0x7A52 JUMP JUMPDEST PUSH1 0x40 MLOAD PUSH1 0x20 DUP2 DUP4 SUB SUB DUP2 MSTORE SWAP1 PUSH1 0x40 MSTORE DUP1 MLOAD SWAP1 PUSH1 0x20 ADD KECCAK256 SWAP1 POP PUSH1 0x0 PUSH1 0x4 PUSH1 0x0 DUP4 DUP2 MSTORE PUSH1 0x20 ADD SWAP1 DUP2 MSTORE PUSH1 0x20 ADD PUSH1 0x0 KECCAK256 PUSH1 0x40 MLOAD DUP1 PUSH1 0xE0 ADD PUSH1 0x40 MSTORE SWAP1 DUP2 PUSH1 0x0 DUP3 ADD DUP1 SLOAD PUSH2 0x2C0D SWAP1 PUSH2 0x793D JUMP JUMPDEST DUP1 PUSH1 0x1F ADD PUSH1 0x20 DUP1 SWAP2 DIV MUL PUSH1 0x20 ADD PUSH1 0x40 MLOAD SWAP1 DUP2 ADD PUSH1 0x40 MSTORE DUP1 SWAP3 SWAP2 SWAP1 DUP2 DUP2 MSTORE PUSH1 0x20 ADD DUP3 DUP1 SLOAD PUSH2 0x2C39 SWAP1 PUSH2 0x793D JUMP JUMPDEST DUP1 ISZERO PUSH2 0x2C86 JUMPI DUP1 PUSH1 0x1F LT PUSH2 0x2C5B JUMPI PUSH2 0x100 DUP1 DUP4 SLOAD DIV MUL DUP4 MSTORE SWAP2 PUSH1 0x20 ADD SWAP2 PUSH2 0x2C86 JUMP JUMPDEST DUP3 ADD SWAP2 SWAP1 PUSH1 0x0 MSTORE PUSH1 0x20 PUSH1 0x0 KECCAK256 SWAP1 JUMPDEST DUP2 SLOAD DUP2 MSTORE SWAP1 PUSH1 0x1 ADD SWAP1 PUSH1 0x20 ADD DUP1 DUP4 GT PUSH2 0x2C69 JUMPI DUP3 SWAP1 SUB PUSH1 0x1F AND DUP3 ADD SWAP2 JUMPDEST POP POP POP SWAP2 DUP4 MSTORE POP POP PUSH1 0x1 DUP3 ADD SLOAD PUSH1 0x1 PUSH1 0x1 PUSH1 0xA0 SHL SUB AND PUSH1 0x20 DUP3 ADD MSTORE PUSH1 0x2 DUP3 ADD DUP1 SLOAD PUSH1 0x40 SWAP1 SWAP3 ADD SWAP2 PUSH2 0x2CB6 SWAP1 PUSH2 0x793D JUMP JUMPDEST DUP1 PUSH1 0x1F ADD PUSH1 0x20 DUP1 SWAP2 DIV MUL PUSH1 0x20 ADD PUSH1 0x40 MLOAD SWAP1 DUP2 ADD PUSH1 0x40 MSTORE DUP1 SWAP3 SWAP2 SWAP1 DUP2 DUP2 MSTORE PUSH1 0x20 ADD DUP3 DUP1 SLOAD PUSH2 0x2CE2 SWAP1 PUSH2 0x793D JUMP JUMPDEST DUP1 ISZERO PUSH2 0x2D2F JUMPI DUP1 PUSH1 0x1F LT PUSH2 0x2D04 JUMPI PUSH2 0x100 DUP1 DUP4 SLOAD DIV MUL DUP4 MSTORE SWAP2 PUSH1 0x20 ADD SWAP2 PUSH2 0x2D2F JUMP JUMPDEST DUP3 ADD SWAP2 SWAP1 PUSH1 0x0 MSTORE PUSH1 0x20 PUSH1 0x0 KECCAK256 SWAP1 JUMPDEST DUP2 SLOAD DUP2 MSTORE SWAP1 PUSH1 0x1 ADD SWAP1 PUSH1 0x20 ADD DUP1 DUP4 GT PUSH2 0x2D12 JUMPI DUP3 SWAP1 SUB PUSH1 0x1F AND DUP3 ADD SWAP2 JUMPDEST POP POP POP SWAP2 DUP4 MSTORE POP POP PUSH1 0x3 DUP3 ADD SLOAD PUSH1 0x20 DUP3 ADD MSTORE PUSH1 0x4 DUP3 ADD SLOAD PUSH1 0x40 DUP3 ADD MSTORE PUSH1 0x5 SWAP1 SWAP2 ADD SLOAD PUSH1 0x1 PUSH1 0x1 PUSH1 0xA0 SHL SUB DUP2 AND PUSH1 0x60 DUP4 ADD MSTORE PUSH1 0x1 PUSH1 0xA0 SHL SWAP1 DIV PUSH1 0xFF AND ISZERO ISZERO PUSH1 0x80 SWAP1 SWAP2 ADD MSTORE PUSH1 0xC0 DUP2 ADD MLOAD SWAP1 SWAP2 POP PUSH2 0x2D96 JUMPI PUSH1 0x40 MLOAD PUSH3 0x461BCD PUSH1 0xE5 SHL DUP2 MSTORE PUSH1 0x4 ADD PUSH2 0xCFE SWAP1 PUSH2 0x7C94 JUMP JUMPDEST PUSH1 0x40 DUP1 DUP3 ADD MLOAD DUP1 MLOAD PUSH1 0x20 DUP1 DUP4 ADD SWAP2 SWAP1 SWAP2 KECCAK256 DUP4 MLOAD DUP1 DUP6 ADD SWAP1 SWAP5 MSTORE PUSH1 0x5 DUP5 MSTORE PUSH5 0x37BBB732B9 PUSH1 0xD9 SHL SWAP4 SWAP1 SWAP2 ADD SWAP3 SWAP1 SWAP3 MSTORE SWAP1 PUSH1 0x0 DUP1 MLOAD PUSH1 0x20 PUSH2 0x7EA2 DUP4 CODECOPY DUP2 MLOAD SWAP2 MSTORE DUP2 ADD PUSH2 0x2E5A JUMPI PUSH1 0x40 MLOAD PUSH3 0x461BCD PUSH1 0xE5 SHL DUP2 MSTORE PUSH1 0x20 PUSH1 0x4 DUP3 ADD MSTORE PUSH1 0x49 PUSH1 0x24 DUP3 ADD MSTORE PUSH32 0x4F776E6572732063616E6E6F74206265207265766F6B65642E204F776E657220 PUSH1 0x44 DUP3 ADD MSTORE PUSH32 0x6D7573742075736520766F6C756E746172696C7952656D6F76654F776E4F776E PUSH1 0x64 DUP3 ADD MSTORE PUSH9 0x32B939B434B8141497 PUSH1 0xB9 SHL PUSH1 0x84 DUP3 ADD MSTORE PUSH1 0xA4 ADD PUSH2 0xCFE JUMP JUMPDEST CALLER PUSH1 0x1 PUSH1 0x1 PUSH1 0xA0 SHL SUB DUP7 AND EQ DUP1 PUSH2 0x2FBC JUMPI PUSH2 0x2E75 DUP8 CALLER PUSH2 0x6676 JUMP JUMPDEST PUSH2 0x2EC7 JUMPI PUSH1 0x40 MLOAD PUSH3 0x461BCD PUSH1 0xE5 SHL DUP2 MSTORE PUSH1 0x20 PUSH1 0x4 DUP3 ADD MSTORE PUSH1 0x2F PUSH1 0x24 DUP3 ADD MSTORE PUSH1 0x0 DUP1 MLOAD PUSH1 0x20 PUSH2 0x7E62 DUP4 CODECOPY DUP2 MLOAD SWAP2 MSTORE PUSH1 0x44 DUP3 ADD MSTORE PUSH15 0x616E207265766F6B6520726F6C6573 PUSH1 0x88 SHL PUSH1 0x64 DUP3 ADD MSTORE PUSH1 0x84 ADD PUSH2 0xCFE JUMP JUMPDEST PUSH1 0x0 PUSH2 0x2EF1 DUP9 CALLER PUSH1 0x40 MLOAD DUP1 PUSH1 0x40 ADD PUSH1 0x40 MSTORE DUP1 PUSH1 0x5 DUP2 MSTORE PUSH1 0x20 ADD PUSH5 0x37BBB732B9 PUSH1 0xD9 SHL DUP2 MSTORE POP PUSH2 0x66D2 JUMP JUMPDEST SWAP1 POP DUP1 PUSH2 0x2FBA JUMPI PUSH1 0x40 DUP1 MLOAD DUP1 DUP3 ADD SWAP1 SWAP2 MSTORE PUSH1 0xD DUP2 MSTORE PUSH13 0x30B236B4B734B9BA3930BA37B9 PUSH1 0x99 SHL PUSH1 0x20 SWAP1 SWAP2 ADD MSTORE PUSH1 0x0 DUP1 MLOAD PUSH1 0x20 PUSH2 0x7EC2 DUP4 CODECOPY DUP2 MLOAD SWAP2 MSTORE DUP4 EQ DUP1 ISZERO PUSH2 0x2FB8 JUMPI PUSH1 0x0 DUP1 PUSH1 0x5 DUP12 PUSH1 0x40 MLOAD PUSH2 0x2F47 SWAP2 SWAP1 PUSH2 0x7977 JUMP JUMPDEST SWAP1 DUP2 MSTORE PUSH1 0x40 MLOAD SWAP1 DUP2 SWAP1 SUB PUSH1 0x20 ADD SWAP1 KECCAK256 SLOAD GT SWAP1 POP DUP1 ISZERO PUSH2 0x2FB6 JUMPI PUSH1 0x40 MLOAD PUSH3 0x461BCD PUSH1 0xE5 SHL DUP2 MSTORE PUSH1 0x20 PUSH1 0x4 DUP3 ADD MSTORE PUSH1 0x25 PUSH1 0x24 DUP3 ADD MSTORE PUSH32 0x4F6E6C79206F776E6572732063616E207265766F6B652061646D696E69737472 PUSH1 0x44 DUP3 ADD MSTORE PUSH5 0x61746F7273 PUSH1 0xD8 SHL PUSH1 0x64 DUP3 ADD MSTORE PUSH1 0x84 ADD PUSH2 0xCFE JUMP JUMPDEST POP JUMPDEST POP JUMPDEST POP JUMPDEST PUSH1 0x40 DUP1 MLOAD DUP1 DUP3 ADD SWAP1 SWAP2 MSTORE PUSH1 0xD DUP2 MSTORE PUSH13 0x30B236B4B734B9BA3930BA37B9 PUSH1 0x99 SHL PUSH1 0x20 SWAP1 SWAP2 ADD MSTORE PUSH1 0x0 DUP1 MLOAD PUSH1 0x20 PUSH2 0x7EE2 DUP4 CODECOPY DUP2 MLOAD SWAP2 MSTORE DUP3 ADD PUSH2 0x30C3 JUMPI PUSH1 0x0 PUSH1 0x1 PUSH1 0x6 DUP10 PUSH1 0x40 MLOAD PUSH2 0x300A SWAP2 SWAP1 PUSH2 0x7977 JUMP JUMPDEST SWAP1 DUP2 MSTORE PUSH1 0x20 ADD PUSH1 0x40 MLOAD DUP1 SWAP2 SUB SWAP1 KECCAK256 DUP1 SLOAD SWAP1 POP GT SWAP1 POP PUSH1 0x0 DUP1 PUSH1 0x5 DUP11 PUSH1 0x40 MLOAD PUSH2 0x3032 SWAP2 SWAP1 PUSH2 0x7977 JUMP JUMPDEST SWAP1 DUP2 MSTORE PUSH1 0x40 MLOAD SWAP1 DUP2 SWAP1 SUB PUSH1 0x20 ADD SWAP1 KECCAK256 SLOAD GT SWAP1 POP DUP2 DUP1 PUSH2 0x304E JUMPI POP DUP1 JUMPDEST PUSH2 0x30C0 JUMPI PUSH1 0x40 MLOAD PUSH3 0x461BCD PUSH1 0xE5 SHL DUP2 MSTORE PUSH1 0x20 PUSH1 0x4 DUP3 ADD MSTORE PUSH1 0x39 PUSH1 0x24 DUP3 ADD MSTORE PUSH32 0x43616E6E6F74207265766F6B65206C6173742061646D696E6973747261746F72 PUSH1 0x44 DUP3 ADD MSTORE PUSH32 0x20776974686F757420616E206F776E65722070726573656E7400000000000000 PUSH1 0x64 DUP3 ADD MSTORE PUSH1 0x84 ADD PUSH2 0xCFE JUMP JUMPDEST POP POP JUMPDEST PUSH2 0x30CE DUP8 DUP8 DUP6 PUSH2 0x68C4 JUMP JUMPDEST PUSH1 0x0 DUP6 DUP2 MSTORE PUSH1 0x4 PUSH1 0x20 DUP2 SWAP1 MSTORE PUSH1 0x40 SWAP2 DUP3 SWAP1 KECCAK256 PUSH1 0x5 DUP2 ADD DUP1 SLOAD PUSH1 0xFF PUSH1 0xA0 SHL NOT AND SWAP1 SSTORE TIMESTAMP SWAP2 ADD SSTORE MLOAD CALLER SWAP1 PUSH1 0x1 PUSH1 0x1 PUSH1 0xA0 SHL SUB DUP9 AND SWAP1 PUSH2 0x310C SWAP1 DUP11 SWAP1 PUSH2 0x7977 JUMP JUMPDEST PUSH1 0x40 MLOAD DUP1 SWAP2 SUB SWAP1 KECCAK256 PUSH32 0x4A3687FCB71D47FA2E61F904671324E749C46AD50A2236D66943AB0AB659BBB3 DUP7 TIMESTAMP PUSH1 0x40 MLOAD PUSH2 0x3145 SWAP3 SWAP2 SWAP1 PUSH2 0x7BFC JUMP JUMPDEST PUSH1 0x40 MLOAD DUP1 SWAP2 SUB SWAP1 LOG4 POP POP POP POP POP POP POP JUMP JUMPDEST PUSH1 0x0 SLOAD PUSH1 0x1 PUSH1 0x1 PUSH1 0xA0 SHL SUB AND CALLER EQ PUSH2 0x3180 JUMPI PUSH1 0x40 MLOAD PUSH3 0x461BCD PUSH1 0xE5 SHL DUP2 MSTORE PUSH1 0x4 ADD PUSH2 0xCFE SWAP1 PUSH2 0x7C1E JUMP JUMPDEST PUSH1 0x1 PUSH1 0x1 PUSH1 0xA0 SHL SUB DUP2 AND PUSH2 0x31C8 JUMPI PUSH1 0x40 MLOAD PUSH3 0x461BCD PUSH1 0xE5 SHL DUP2 MSTORE PUSH1 0x20 PUSH1 0x4 DUP3 ADD MSTORE PUSH1 0xF PUSH1 0x24 DUP3 ADD MSTORE PUSH15 0x496E76616C69642061646472657373 PUSH1 0x88 SHL PUSH1 0x44 DUP3 ADD MSTORE PUSH1 0x64 ADD PUSH2 0xCFE JUMP JUMPDEST PUSH1 0x0 SLOAD PUSH1 0x40 MLOAD TIMESTAMP DUP2 MSTORE PUSH1 0x1 PUSH1 0x1 PUSH1 0xA0 SHL SUB DUP4 DUP2 AND SWAP3 AND SWAP1 PUSH32 0x38DF5FA0F7FEF0D515CA1F5388CB5790AC5885D5FCA8D05D9F943E563C33A4B3 SWAP1 PUSH1 0x20 ADD PUSH1 0x40 MLOAD DUP1 SWAP2 SUB SWAP1 LOG3 PUSH1 0x0 DUP1 SLOAD PUSH1 0x1 PUSH1 0x1 PUSH1 0xA0 SHL SUB NOT AND PUSH1 0x1 PUSH1 0x1 PUSH1 0xA0 SHL SUB SWAP3 SWAP1 SWAP3 AND SWAP2 SWAP1 SWAP2 OR SWAP1 SSTORE JUMP JUMPDEST PUSH1 0x0 SLOAD PUSH1 0x1 PUSH1 0x1 PUSH1 0xA0 SHL SUB AND CALLER EQ PUSH2 0x3258 JUMPI PUSH1 0x40 MLOAD PUSH3 0x461BCD PUSH1 0xE5 SHL DUP2 MSTORE PUSH1 0x4 ADD PUSH2 0xCFE SWAP1 PUSH2 0x7C1E JUMP JUMPDEST PUSH1 0x0 DUP3 MLOAD GT PUSH2 0x3279 JUMPI PUSH1 0x40 MLOAD PUSH3 0x461BCD PUSH1 0xE5 SHL DUP2 MSTORE PUSH1 0x4 ADD PUSH2 0xCFE SWAP1 PUSH2 0x7A1B JUMP JUMPDEST PUSH1 0x1 PUSH1 0x1 PUSH1 0xA0 SHL SUB DUP2 AND PUSH2 0x32C1 JUMPI PUSH1 0x40 MLOAD PUSH3 0x461BCD PUSH1 0xE5 SHL DUP2 MSTORE PUSH1 0x20 PUSH1 0x4 DUP3 ADD MSTORE PUSH1 0xF PUSH1 0x24 DUP3 ADD MSTORE PUSH15 0x496E76616C69642061646472657373 PUSH1 0x88 SHL PUSH1 0x44 DUP3 ADD MSTORE PUSH1 0x64 ADD PUSH2 0xCFE JUMP JUMPDEST PUSH2 0x32CA DUP2 PUSH2 0x24BA JUMP JUMPDEST PUSH2 0x3316 JUMPI PUSH1 0x40 MLOAD PUSH3 0x461BCD PUSH1 0xE5 SHL DUP2 MSTORE PUSH1 0x20 PUSH1 0x4 DUP3 ADD MSTORE PUSH1 0x18 PUSH1 0x24 DUP3 ADD MSTORE PUSH32 0x4D75737420626520616E20616374697665206D656D6265720000000000000000 PUSH1 0x44 DUP3 ADD MSTORE PUSH1 0x64 ADD PUSH2 0xCFE JUMP JUMPDEST PUSH1 0x5 DUP3 PUSH1 0x40 MLOAD PUSH2 0x3326 SWAP2 SWAP1 PUSH2 0x7977 JUMP JUMPDEST SWAP1 DUP2 MSTORE PUSH1 0x40 MLOAD SWAP1 DUP2 SWAP1 SUB PUSH1 0x20 ADD SWAP1 KECCAK256 SLOAD ISZERO DUP1 ISZERO PUSH2 0x3360 JUMPI POP PUSH1 0x6 DUP3 PUSH1 0x40 MLOAD PUSH2 0x334E SWAP2 SWAP1 PUSH2 0x7977 JUMP JUMPDEST SWAP1 DUP2 MSTORE PUSH1 0x40 MLOAD SWAP1 DUP2 SWAP1 SUB PUSH1 0x20 ADD SWAP1 KECCAK256 SLOAD ISZERO JUMPDEST PUSH2 0x33AC JUMPI PUSH1 0x40 MLOAD PUSH3 0x461BCD PUSH1 0xE5 SHL DUP2 MSTORE PUSH1 0x20 PUSH1 0x4 DUP3 ADD MSTORE PUSH1 0x1A PUSH1 0x24 DUP3 ADD MSTORE PUSH32 0x5265636F726420616C726561647920696E697469616C697A6564000000000000 PUSH1 0x44 DUP3 ADD MSTORE PUSH1 0x64 ADD PUSH2 0xCFE JUMP JUMPDEST PUSH2 0x33DD DUP3 DUP3 PUSH1 0x40 MLOAD DUP1 PUSH1 0x40 ADD PUSH1 0x40 MSTORE DUP1 PUSH1 0xD DUP2 MSTORE PUSH1 0x20 ADD PUSH13 0x30B236B4B734B9BA3930BA37B9 PUSH1 0x99 SHL DUP2 MSTORE POP CALLER PUSH2 0x69C6 JUMP JUMPDEST POP POP JUMP JUMPDEST DUP1 MLOAD PUSH1 0x20 DUP2 DUP4 ADD DUP2 ADD DUP1 MLOAD PUSH1 0xE DUP3 MSTORE SWAP3 DUP3 ADD SWAP2 SWAP1 SWAP4 ADD KECCAK256 SWAP2 MSTORE DUP1 SLOAD DUP2 SWAP1 PUSH2 0x3407 SWAP1 PUSH2 0x793D JUMP JUMPDEST DUP1 PUSH1 0x1F ADD PUSH1 0x20 DUP1 SWAP2 DIV MUL PUSH1 0x20 ADD PUSH1 0x40 MLOAD SWAP1 DUP2 ADD PUSH1 0x40 MSTORE DUP1 SWAP3 SWAP2 SWAP1 DUP2 DUP2 MSTORE PUSH1 0x20 ADD DUP3 DUP1 SLOAD PUSH2 0x3433 SWAP1 PUSH2 0x793D JUMP JUMPDEST DUP1 ISZERO PUSH2 0x3480 JUMPI DUP1 PUSH1 0x1F LT PUSH2 0x3455 JUMPI PUSH2 0x100 DUP1 DUP4 SLOAD DIV MUL DUP4 MSTORE SWAP2 PUSH1 0x20 ADD SWAP2 PUSH2 0x3480 JUMP JUMPDEST DUP3 ADD SWAP2 SWAP1 PUSH1 0x0 MSTORE PUSH1 0x20 PUSH1 0x0 KECCAK256 SWAP1 JUMPDEST DUP2 SLOAD DUP2 MSTORE SWAP1 PUSH1 0x1 ADD SWAP1 PUSH1 0x20 ADD DUP1 DUP4 GT PUSH2 0x3463 JUMPI DUP3 SWAP1 SUB PUSH1 0x1F AND DUP3 ADD SWAP2 JUMPDEST POP POP POP POP POP SWAP1 DUP1 PUSH1 0x1 ADD DUP1 SLOAD PUSH2 0x3495 SWAP1 PUSH2 0x793D JUMP JUMPDEST DUP1 PUSH1 0x1F ADD PUSH1 0x20 DUP1 SWAP2 DIV MUL PUSH1 0x20 ADD PUSH1 0x40 MLOAD SWAP1 DUP2 ADD PUSH1 0x40 MSTORE DUP1 SWAP3 SWAP2 SWAP1 DUP2 DUP2 MSTORE PUSH1 0x20 ADD DUP3 DUP1 SLOAD PUSH2 0x34C1 SWAP1 PUSH2 0x793D JUMP JUMPDEST DUP1 ISZERO PUSH2 0x350E JUMPI DUP1 PUSH1 0x1F LT PUSH2 0x34E3 JUMPI PUSH2 0x100 DUP1 DUP4 SLOAD DIV MUL DUP4 MSTORE SWAP2 PUSH1 0x20 ADD SWAP2 PUSH2 0x350E JUMP JUMPDEST DUP3 ADD SWAP2 SWAP1 PUSH1 0x0 MSTORE PUSH1 0x20 PUSH1 0x0 KECCAK256 SWAP1 JUMPDEST DUP2 SLOAD DUP2 MSTORE SWAP1 PUSH1 0x1 ADD SWAP1 PUSH1 0x20 ADD DUP1 DUP4 GT PUSH2 0x34F1 JUMPI DUP3 SWAP1 SUB PUSH1 0x1F AND DUP3 ADD SWAP2 JUMPDEST POP POP POP POP PUSH1 0x2 DUP4 ADD SLOAD PUSH1 0x3 DUP5 ADD SLOAD PUSH1 0x4 SWAP1 SWAP5 ADD SLOAD SWAP3 SWAP4 PUSH1 0x1 PUSH1 0x1 PUSH1 0xA0 SHL SUB SWAP2 DUP3 AND SWAP4 SWAP1 SWAP3 POP SWAP1 DUP2 AND SWAP1 PUSH1 0x1 PUSH1 0xA0 SHL SWAP1 DIV PUSH1 0xFF AND DUP7 JUMP JUMPDEST PUSH1 0x60 PUSH1 0x10 DUP3 PUSH1 0x40 MLOAD PUSH2 0x3556 SWAP2 SWAP1 PUSH2 0x7977 JUMP JUMPDEST SWAP1 DUP2 MSTORE PUSH1 0x20 ADD PUSH1 0x40 MLOAD DUP1 SWAP2 SUB SWAP1 KECCAK256 DUP1 SLOAD DUP1 PUSH1 0x20 MUL PUSH1 0x20 ADD PUSH1 0x40 MLOAD SWAP1 DUP2 ADD PUSH1 0x40 MSTORE DUP1 SWAP3 SWAP2 SWAP1 DUP2 DUP2 MSTORE PUSH1 0x20 ADD PUSH1 0x0 SWAP1 JUMPDEST DUP3 DUP3 LT ISZERO PUSH2 0x1164 JUMPI DUP4 DUP3 SWAP1 PUSH1 0x0 MSTORE PUSH1 0x20 PUSH1 0x0 KECCAK256 ADD DUP1 SLOAD PUSH2 0x35A3 SWAP1 PUSH2 0x793D JUMP JUMPDEST DUP1 PUSH1 0x1F ADD PUSH1 0x20 DUP1 SWAP2 DIV MUL PUSH1 0x20 ADD PUSH1 0x40 MLOAD SWAP1 DUP2 ADD PUSH1 0x40 MSTORE DUP1 SWAP3 SWAP2 SWAP1 DUP2 DUP2 MSTORE PUSH1 0x20 ADD DUP3 DUP1 SLOAD PUSH2 0x35CF SWAP1 PUSH2 0x793D JUMP JUMPDEST DUP1 ISZERO PUSH2 0x361C JUMPI DUP1 PUSH1 0x1F LT PUSH2 0x35F1 JUMPI PUSH2 0x100 DUP1 DUP4 SLOAD DIV MUL DUP4 MSTORE SWAP2 PUSH1 0x20 ADD SWAP2 PUSH2 0x361C JUMP JUMPDEST DUP3 ADD SWAP2 SWAP1 PUSH1 0x0 MSTORE PUSH1 0x20 PUSH1 0x0 KECCAK256 SWAP1 JUMPDEST DUP2 SLOAD DUP2 MSTORE SWAP1 PUSH1 0x1 ADD SWAP1 PUSH1 0x20 ADD DUP1 DUP4 GT PUSH2 0x35FF JUMPI DUP3 SWAP1 SUB PUSH1 0x1F AND DUP3 ADD SWAP2 JUMPDEST POP POP POP POP POP DUP2 MSTORE PUSH1 0x20 ADD SWAP1 PUSH1 0x1 ADD SWAP1 PUSH2 0x3584 JUMP JUMPDEST PUSH1 0x1 PUSH1 0x1 PUSH1 0xA0 SHL SUB DUP2 AND PUSH1 0x0 SWAP1 DUP2 MSTORE PUSH1 0xB PUSH1 0x20 SWAP1 DUP2 MSTORE PUSH1 0x40 DUP1 DUP4 KECCAK256 DUP1 SLOAD DUP3 MLOAD DUP2 DUP6 MUL DUP2 ADD DUP6 ADD SWAP1 SWAP4 MSTORE DUP1 DUP4 MSTORE PUSH1 0x60 SWAP5 SWAP3 SWAP4 SWAP2 SWAP3 SWAP1 SWAP2 DUP5 ADD JUMPDEST DUP3 DUP3 LT ISZERO PUSH2 0x1164 JUMPI DUP4 DUP3 SWAP1 PUSH1 0x0 MSTORE PUSH1 0x20 PUSH1 0x0 KECCAK256 ADD DUP1 SLOAD PUSH2 0x3687 SWAP1 PUSH2 0x793D JUMP JUMPDEST DUP1 PUSH1 0x1F ADD PUSH1 0x20 DUP1 SWAP2 DIV MUL PUSH1 0x20 ADD PUSH1 0x40 MLOAD SWAP1 DUP2 ADD PUSH1 0x40 MSTORE DUP1 SWAP3 SWAP2 SWAP1 DUP2 DUP2 MSTORE PUSH1 0x20 ADD DUP3 DUP1 SLOAD PUSH2 0x36B3 SWAP1 PUSH2 0x793D JUMP JUMPDEST DUP1 ISZERO PUSH2 0x3700 JUMPI DUP1 PUSH1 0x1F LT PUSH2 0x36D5 JUMPI PUSH2 0x100 DUP1 DUP4 SLOAD DIV MUL DUP4 MSTORE SWAP2 PUSH1 0x20 ADD SWAP2 PUSH2 0x3700 JUMP JUMPDEST DUP3 ADD SWAP2 SWAP1 PUSH1 0x0 MSTORE PUSH1 0x20 PUSH1 0x0 KECCAK256 SWAP1 JUMPDEST DUP2 SLOAD DUP2 MSTORE SWAP1 PUSH1 0x1 ADD SWAP1 PUSH1 0x20 ADD DUP1 DUP4 GT PUSH2 0x36E3 JUMPI DUP3 SWAP1 SUB PUSH1 0x1F AND DUP3 ADD SWAP2 JUMPDEST POP POP POP POP POP DUP2 MSTORE PUSH1 0x20 ADD SWAP1 PUSH1 0x1 ADD SWAP1 PUSH2 0x3668 JUMP JUMPDEST DUP2 MLOAD PUSH1 0x20 DUP2 DUP5 ADD DUP2 ADD DUP1 MLOAD PUSH1 0x12 DUP3 MSTORE SWAP3 DUP3 ADD SWAP2 DUP6 ADD SWAP2 SWAP1 SWAP2 KECCAK256 SWAP2 SWAP1 MSTORE DUP1 SLOAD DUP3 SWAP1 DUP2 LT PUSH2 0x373F JUMPI PUSH1 0x0 DUP1 REVERT JUMPDEST PUSH1 0x0 SWAP2 DUP3 MSTORE PUSH1 0x20 SWAP1 SWAP2 KECCAK256 PUSH1 0x4 SWAP1 SWAP2 MUL ADD DUP1 SLOAD PUSH1 0x1 DUP3 ADD SLOAD PUSH1 0x2 DUP4 ADD DUP1 SLOAD PUSH1 0x1 PUSH1 0x1 PUSH1 0xA0 SHL SUB DUP5 AND SWAP7 POP PUSH1 0xFF PUSH1 0x1 PUSH1 0xA0 SHL DUP6 DIV DUP2 AND SWAP7 POP PUSH1 0x1 PUSH1 0xA8 SHL DUP6 DIV DUP2 AND SWAP6 PUSH1 0x1 PUSH1 0xB0 SHL SWAP1 SWAP6 DIV AND SWAP4 SWAP2 SWAP1 PUSH2 0x3794 SWAP1 PUSH2 0x793D JUMP JUMPDEST DUP1 PUSH1 0x1F ADD PUSH1 0x20 DUP1 SWAP2 DIV MUL PUSH1 0x20 ADD PUSH1 0x40 MLOAD SWAP1 DUP2 ADD PUSH1 0x40 MSTORE DUP1 SWAP3 SWAP2 SWAP1 DUP2 DUP2 MSTORE PUSH1 0x20 ADD DUP3 DUP1 SLOAD PUSH2 0x37C0 SWAP1 PUSH2 0x793D JUMP JUMPDEST DUP1 ISZERO PUSH2 0x380D JUMPI DUP1 PUSH1 0x1F LT PUSH2 0x37E2 JUMPI PUSH2 0x100 DUP1 DUP4 SLOAD DIV MUL DUP4 MSTORE SWAP2 PUSH1 0x20 ADD SWAP2 PUSH2 0x380D JUMP JUMPDEST DUP3 ADD SWAP2 SWAP1 PUSH1 0x0 MSTORE PUSH1 0x20 PUSH1 0x0 KECCAK256 SWAP1 JUMPDEST DUP2 SLOAD DUP2 MSTORE SWAP1 PUSH1 0x1 ADD SWAP1 PUSH1 0x20 ADD DUP1 DUP4 GT PUSH2 0x37F0 JUMPI DUP3 SWAP1 SUB PUSH1 0x1F AND DUP3 ADD SWAP2 JUMPDEST POP POP POP PUSH1 0x3 SWAP1 SWAP4 ADD SLOAD SWAP2 SWAP3 POP POP PUSH1 0xFF AND DUP8 JUMP JUMPDEST DUP2 MLOAD PUSH1 0x20 DUP2 DUP5 ADD DUP2 ADD DUP1 MLOAD PUSH1 0x5 DUP3 MSTORE SWAP3 DUP3 ADD SWAP2 DUP6 ADD SWAP2 SWAP1 SWAP2 KECCAK256 SWAP2 SWAP1 MSTORE DUP1 SLOAD DUP3 SWAP1 DUP2 LT PUSH2 0x384B JUMPI PUSH1 0x0 DUP1 REVERT JUMPDEST PUSH1 0x0 SWAP2 DUP3 MSTORE PUSH1 0x20 SWAP1 SWAP2 KECCAK256 ADD SLOAD PUSH1 0x1 PUSH1 0x1 PUSH1 0xA0 SHL SUB AND SWAP2 POP DUP3 SWAP1 POP JUMP JUMPDEST PUSH1 0xE DUP4 PUSH1 0x40 MLOAD PUSH2 0x3877 SWAP2 SWAP1 PUSH2 0x7977 JUMP JUMPDEST SWAP1 DUP2 MSTORE PUSH1 0x40 MLOAD SWAP1 DUP2 SWAP1 SUB PUSH1 0x20 ADD SWAP1 KECCAK256 PUSH1 0x4 ADD SLOAD PUSH1 0xFF PUSH1 0x1 PUSH1 0xA0 SHL SWAP1 SWAP2 DIV AND PUSH2 0x38B1 JUMPI PUSH1 0x40 MLOAD PUSH3 0x461BCD PUSH1 0xE5 SHL DUP2 MSTORE PUSH1 0x4 ADD PUSH2 0xCFE SWAP1 PUSH2 0x7993 JUMP JUMPDEST PUSH1 0x13 DUP4 PUSH1 0x40 MLOAD PUSH2 0x38C1 SWAP2 SWAP1 PUSH2 0x7977 JUMP JUMPDEST SWAP1 DUP2 MSTORE PUSH1 0x40 DUP1 MLOAD PUSH1 0x20 SWAP3 DUP2 SWAP1 SUB DUP4 ADD SWAP1 KECCAK256 PUSH1 0x1 PUSH1 0x1 PUSH1 0xA0 SHL SUB DUP6 AND PUSH1 0x0 SWAP1 DUP2 MSTORE SWAP3 MSTORE SWAP1 KECCAK256 SLOAD PUSH1 0xFF AND PUSH2 0x3935 JUMPI PUSH1 0x40 MLOAD PUSH3 0x461BCD PUSH1 0xE5 SHL DUP2 MSTORE PUSH1 0x20 PUSH1 0x4 DUP3 ADD MSTORE PUSH1 0x1C PUSH1 0x24 DUP3 ADD MSTORE PUSH32 0x4E6F20646973707574652066726F6D2074686973206164647265737300000000 PUSH1 0x44 DUP3 ADD MSTORE PUSH1 0x64 ADD PUSH2 0xCFE JUMP JUMPDEST PUSH1 0x0 PUSH1 0x14 DUP5 PUSH1 0x40 MLOAD PUSH2 0x3947 SWAP2 SWAP1 PUSH2 0x7977 JUMP JUMPDEST SWAP1 DUP2 MSTORE PUSH1 0x40 DUP1 MLOAD PUSH1 0x20 SWAP3 DUP2 SWAP1 SUB DUP4 ADD DUP2 KECCAK256 PUSH1 0x1 PUSH1 0x1 PUSH1 0xA0 SHL SUB DUP8 AND PUSH1 0x0 SWAP1 DUP2 MSTORE SWAP4 MSTORE SWAP1 DUP3 KECCAK256 SLOAD SWAP3 POP PUSH1 0x12 SWAP1 PUSH2 0x397D SWAP1 DUP8 SWAP1 PUSH2 0x7977 JUMP JUMPDEST SWAP1 DUP2 MSTORE PUSH1 0x20 ADD PUSH1 0x40 MLOAD DUP1 SWAP2 SUB SWAP1 KECCAK256 DUP3 DUP2 SLOAD DUP2 LT PUSH2 0x399C JUMPI PUSH2 0x399C PUSH2 0x79C0 JUMP JUMPDEST PUSH1 0x0 SWAP2 DUP3 MSTORE PUSH1 0x20 SWAP2 DUP3 SWAP1 KECCAK256 PUSH1 0x40 DUP1 MLOAD PUSH1 0xE0 DUP2 ADD SWAP1 SWAP2 MSTORE PUSH1 0x4 SWAP1 SWAP3 MUL ADD DUP1 SLOAD PUSH1 0x1 PUSH1 0x1 PUSH1 0xA0 SHL SUB DUP2 AND DUP4 MSTORE SWAP2 SWAP3 SWAP1 SWAP2 SWAP1 DUP4 ADD SWAP1 PUSH1 0xFF PUSH1 0x1 PUSH1 0xA0 SHL SWAP1 SWAP2 DIV AND PUSH1 0x1 DUP2 GT ISZERO PUSH2 0x39EA JUMPI PUSH2 0x39EA PUSH2 0x6F0F JUMP JUMPDEST PUSH1 0x1 DUP2 GT ISZERO PUSH2 0x39FB JUMPI PUSH2 0x39FB PUSH2 0x6F0F JUMP JUMPDEST DUP2 MSTORE DUP2 SLOAD PUSH1 0x20 SWAP1 SWAP2 ADD SWAP1 PUSH1 0x1 PUSH1 0xA8 SHL SWAP1 DIV PUSH1 0xFF AND PUSH1 0x3 DUP2 GT ISZERO PUSH2 0x3A20 JUMPI PUSH2 0x3A20 PUSH2 0x6F0F JUMP JUMPDEST PUSH1 0x3 DUP2 GT ISZERO PUSH2 0x3A31 JUMPI PUSH2 0x3A31 PUSH2 0x6F0F JUMP JUMPDEST DUP2 MSTORE DUP2 SLOAD PUSH1 0x20 SWAP1 SWAP2 ADD SWAP1 PUSH1 0x1 PUSH1 0xB0 SHL SWAP1 DIV PUSH1 0xFF AND PUSH1 0x5 DUP2 GT ISZERO PUSH2 0x3A56 JUMPI PUSH2 0x3A56 PUSH2 0x6F0F JUMP JUMPDEST PUSH1 0x5 DUP2 GT ISZERO PUSH2 0x3A67 JUMPI PUSH2 0x3A67 PUSH2 0x6F0F JUMP JUMPDEST DUP2 MSTORE PUSH1 0x20 ADD PUSH1 0x1 DUP3 ADD SLOAD DUP2 MSTORE PUSH1 0x20 ADD PUSH1 0x2 DUP3 ADD DUP1 SLOAD PUSH2 0x3A85 SWAP1 PUSH2 0x793D JUMP JUMPDEST DUP1 PUSH1 0x1F ADD PUSH1 0x20 DUP1 SWAP2 DIV MUL PUSH1 0x20 ADD PUSH1 0x40 MLOAD SWAP1 DUP2 ADD PUSH1 0x40 MSTORE DUP1 SWAP3 SWAP2 SWAP1 DUP2 DUP2 MSTORE PUSH1 0x20 ADD DUP3 DUP1 SLOAD PUSH2 0x3AB1 SWAP1 PUSH2 0x793D JUMP JUMPDEST DUP1 ISZERO PUSH2 0x3AFE JUMPI DUP1 PUSH1 0x1F LT PUSH2 0x3AD3 JUMPI PUSH2 0x100 DUP1 DUP4 SLOAD DIV MUL DUP4 MSTORE SWAP2 PUSH1 0x20 ADD SWAP2 PUSH2 0x3AFE JUMP JUMPDEST DUP3 ADD SWAP2 SWAP1 PUSH1 0x0 MSTORE PUSH1 0x20 PUSH1 0x0 KECCAK256 SWAP1 JUMPDEST DUP2 SLOAD DUP2 MSTORE SWAP1 PUSH1 0x1 ADD SWAP1 PUSH1 0x20 ADD DUP1 DUP4 GT PUSH2 0x3AE1 JUMPI DUP3 SWAP1 SUB PUSH1 0x1F AND DUP3 ADD SWAP2 JUMPDEST POP POP POP SWAP2 DUP4 MSTORE POP POP PUSH1 0x3 SWAP2 SWAP1 SWAP2 ADD SLOAD PUSH1 0xFF AND ISZERO ISZERO PUSH1 0x20 SWAP1 SWAP2 ADD MSTORE SWAP1 POP PUSH1 0x1 DUP2 PUSH1 0x20 ADD MLOAD PUSH1 0x1 DUP2 GT ISZERO PUSH2 0x3B32 JUMPI PUSH2 0x3B32 PUSH2 0x6F0F JUMP JUMPDEST EQ PUSH2 0x3B6F JUMPI PUSH1 0x40 MLOAD PUSH3 0x461BCD PUSH1 0xE5 SHL DUP2 MSTORE PUSH1 0x20 PUSH1 0x4 DUP3 ADD MSTORE PUSH1 0xD PUSH1 0x24 DUP3 ADD MSTORE PUSH13 0x4E6F7420612064697370757465 PUSH1 0x98 SHL PUSH1 0x44 DUP3 ADD MSTORE PUSH1 0x64 ADD PUSH2 0xCFE JUMP JUMPDEST DUP1 PUSH1 0xC0 ADD MLOAD PUSH2 0x3BC0 JUMPI PUSH1 0x40 MLOAD PUSH3 0x461BCD PUSH1 0xE5 SHL DUP2 MSTORE PUSH1 0x20 PUSH1 0x4 DUP3 ADD MSTORE PUSH1 0x1A PUSH1 0x24 DUP3 ADD MSTORE PUSH32 0x4469737075746520686173206265656E20726574726163746564000000000000 PUSH1 0x44 DUP3 ADD MSTORE PUSH1 0x64 ADD PUSH2 0xCFE JUMP JUMPDEST PUSH1 0x0 PUSH1 0xE DUP7 PUSH1 0x40 MLOAD PUSH2 0x3BD2 SWAP2 SWAP1 PUSH2 0x7977 JUMP JUMPDEST SWAP1 DUP2 MSTORE PUSH1 0x20 ADD PUSH1 0x40 MLOAD DUP1 SWAP2 SUB SWAP1 KECCAK256 PUSH1 0x1 ADD DUP1 SLOAD PUSH2 0x3BEE SWAP1 PUSH2 0x793D JUMP JUMPDEST DUP1 PUSH1 0x1F ADD PUSH1 0x20 DUP1 SWAP2 DIV MUL PUSH1 0x20 ADD PUSH1 0x40 MLOAD SWAP1 DUP2 ADD PUSH1 0x40 MSTORE DUP1 SWAP3 SWAP2 SWAP1 DUP2 DUP2 MSTORE PUSH1 0x20 ADD DUP3 DUP1 SLOAD PUSH2 0x3C1A SWAP1 PUSH2 0x793D JUMP JUMPDEST DUP1 ISZERO PUSH2 0x3C67 JUMPI DUP1 PUSH1 0x1F LT PUSH2 0x3C3C JUMPI PUSH2 0x100 DUP1 DUP4 SLOAD DIV MUL DUP4 MSTORE SWAP2 PUSH1 0x20 ADD SWAP2 PUSH2 0x3C67 JUMP JUMPDEST DUP3 ADD SWAP2 SWAP1 PUSH1 0x0 MSTORE PUSH1 0x20 PUSH1 0x0 KECCAK256 SWAP1 JUMPDEST DUP2 SLOAD DUP2 MSTORE SWAP1 PUSH1 0x1 ADD SWAP1 PUSH1 0x20 ADD DUP1 DUP4 GT PUSH2 0x3C4A JUMPI DUP3 SWAP1 SUB PUSH1 0x1F AND DUP3 ADD SWAP2 JUMPDEST POP POP POP POP POP SWAP1 POP PUSH1 0x0 DUP2 CALLER PUSH1 0x40 MLOAD PUSH1 0x20 ADD PUSH2 0x3C83 SWAP3 SWAP2 SWAP1 PUSH2 0x7A52 JUMP JUMPDEST PUSH1 0x40 DUP1 MLOAD DUP1 DUP4 SUB PUSH1 0x1F NOT ADD DUP2 MSTORE SWAP2 DUP2 MSTORE DUP2 MLOAD PUSH1 0x20 SWAP3 DUP4 ADD KECCAK256 PUSH1 0x0 DUP2 DUP2 MSTORE PUSH1 0x4 SWAP1 SWAP4 MSTORE SWAP2 KECCAK256 PUSH1 0x5 ADD SLOAD SWAP1 SWAP2 POP PUSH1 0x1 PUSH1 0xA0 SHL SWAP1 DIV PUSH1 0xFF AND PUSH2 0x3CD4 JUMPI PUSH1 0x40 MLOAD PUSH3 0x461BCD PUSH1 0xE5 SHL DUP2 MSTORE PUSH1 0x4 ADD PUSH2 0xCFE SWAP1 PUSH2 0x7A89 JUMP JUMPDEST PUSH1 0x1 PUSH1 0x1 PUSH1 0xA0 SHL SUB DUP7 AND CALLER SUB PUSH2 0x3D2C JUMPI PUSH1 0x40 MLOAD PUSH3 0x461BCD PUSH1 0xE5 SHL DUP2 MSTORE PUSH1 0x20 PUSH1 0x4 DUP3 ADD DUP2 SWAP1 MSTORE PUSH1 0x24 DUP3 ADD MSTORE PUSH32 0x43616E6E6F7420726561637420746F20796F7572206F776E2064697370757465 PUSH1 0x44 DUP3 ADD MSTORE PUSH1 0x64 ADD PUSH2 0xCFE JUMP JUMPDEST PUSH1 0x16 DUP8 PUSH1 0x40 MLOAD PUSH2 0x3D3C SWAP2 SWAP1 PUSH2 0x7977 JUMP JUMPDEST SWAP1 DUP2 MSTORE PUSH1 0x40 DUP1 MLOAD PUSH1 0x20 SWAP3 DUP2 SWAP1 SUB DUP4 ADD SWAP1 KECCAK256 PUSH1 0x1 PUSH1 0x1 PUSH1 0xA0 SHL SUB DUP10 AND PUSH1 0x0 SWAP1 DUP2 MSTORE SWAP1 DUP4 MSTORE DUP2 DUP2 KECCAK256 CALLER DUP3 MSTORE SWAP1 SWAP3 MSTORE SWAP1 KECCAK256 SLOAD PUSH1 0xFF AND ISZERO PUSH2 0x3DBB JUMPI PUSH1 0x40 MLOAD PUSH3 0x461BCD PUSH1 0xE5 SHL DUP2 MSTORE PUSH1 0x20 PUSH1 0x4 DUP3 ADD MSTORE PUSH1 0x1F PUSH1 0x24 DUP3 ADD MSTORE PUSH32 0x416C7265616479207265616374656420746F2074686973206469737075746500 PUSH1 0x44 DUP3 ADD MSTORE PUSH1 0x64 ADD PUSH2 0xCFE JUMP JUMPDEST PUSH1 0x15 DUP8 PUSH1 0x40 MLOAD PUSH2 0x3DCB SWAP2 SWAP1 PUSH2 0x7977 JUMP JUMPDEST SWAP1 DUP2 MSTORE PUSH1 0x40 DUP1 MLOAD SWAP2 DUP3 SWAP1 SUB PUSH1 0x20 SWAP1 DUP2 ADD DUP4 KECCAK256 PUSH1 0x1 PUSH1 0x1 PUSH1 0xA0 SHL SUB DUP1 DUP12 AND PUSH1 0x0 SWAP1 DUP2 MSTORE SWAP2 DUP4 MSTORE DUP4 DUP3 KECCAK256 PUSH1 0x60 DUP7 ADD DUP6 MSTORE CALLER DUP7 MSTORE DUP11 ISZERO ISZERO DUP7 DUP6 ADD SWAP1 DUP2 MSTORE TIMESTAMP DUP8 DUP8 ADD SWAP1 DUP2 MSTORE DUP3 SLOAD PUSH1 0x1 DUP2 DUP2 ADD DUP6 SSTORE SWAP4 DUP7 MSTORE SWAP6 SWAP1 SWAP5 KECCAK256 SWAP7 MLOAD PUSH1 0x2 SWAP1 SWAP6 MUL SWAP1 SWAP7 ADD DUP1 SLOAD SWAP7 MLOAD ISZERO ISZERO PUSH1 0x1 PUSH1 0xA0 SHL MUL PUSH1 0x1 PUSH1 0x1 PUSH1 0xA8 SHL SUB NOT SWAP1 SWAP8 AND SWAP5 SWAP1 SWAP3 AND SWAP4 SWAP1 SWAP4 OR SWAP5 SWAP1 SWAP5 OR DUP5 SSTORE MLOAD SWAP3 DUP2 ADD SWAP3 SWAP1 SWAP3 SSTORE MLOAD PUSH1 0x16 SWAP1 PUSH2 0x3E63 SWAP1 DUP11 SWAP1 PUSH2 0x7977 JUMP JUMPDEST SWAP1 DUP2 MSTORE PUSH1 0x40 DUP1 MLOAD PUSH1 0x20 SWAP3 DUP2 SWAP1 SUB DUP4 ADD DUP2 KECCAK256 PUSH1 0x1 PUSH1 0x1 PUSH1 0xA0 SHL SUB DUP12 AND PUSH1 0x0 DUP2 DUP2 MSTORE SWAP2 DUP6 MSTORE DUP4 DUP3 KECCAK256 CALLER DUP1 DUP5 MSTORE SWAP6 MSTORE SWAP3 SWAP1 KECCAK256 DUP1 SLOAD PUSH1 0xFF NOT AND SWAP5 ISZERO ISZERO SWAP5 SWAP1 SWAP5 OR SWAP1 SWAP4 SSTORE SWAP2 PUSH2 0x3EAE SWAP1 DUP11 SWAP1 PUSH2 0x7977 JUMP JUMPDEST PUSH1 0x40 DUP1 MLOAD SWAP2 DUP3 SWAP1 SUB DUP3 KECCAK256 DUP10 ISZERO ISZERO DUP4 MSTORE TIMESTAMP PUSH1 0x20 DUP5 ADD MSTORE SWAP2 PUSH32 0xAD3ED72FFD0DE1372034654A13D68AAF09E3980D9FD90226D703B6CE84BEC0D8 SWAP2 ADD PUSH2 0x3145 JUMP JUMPDEST PUSH1 0xF PUSH1 0x20 MSTORE DUP2 PUSH1 0x0 MSTORE PUSH1 0x40 PUSH1 0x0 KECCAK256 DUP2 DUP2 SLOAD DUP2 LT PUSH2 0xBFB JUMPI PUSH1 0x0 DUP1 REVERT JUMPDEST PUSH1 0x0 PUSH2 0x3F14 DUP4 DUP4 PUSH2 0x6676 JUMP JUMPDEST SWAP4 SWAP3 POP POP POP JUMP JUMPDEST PUSH1 0x0 DUP1 PUSH1 0x0 PUSH1 0x60 PUSH1 0x0 PUSH1 0x13 DUP8 PUSH1 0x40 MLOAD PUSH2 0x3F34 SWAP2 SWAP1 PUSH2 0x7977 JUMP JUMPDEST SWAP1 DUP2 MSTORE PUSH1 0x40 DUP1 MLOAD PUSH1 0x20 SWAP3 DUP2 SWAP1 SUB DUP4 ADD SWAP1 KECCAK256 PUSH1 0x1 PUSH1 0x1 PUSH1 0xA0 SHL SUB DUP10 AND PUSH1 0x0 SWAP1 DUP2 MSTORE SWAP3 MSTORE SWAP1 KECCAK256 SLOAD PUSH1 0xFF AND PUSH2 0x3F80 JUMPI POP POP PUSH1 0x40 DUP1 MLOAD PUSH1 0x20 DUP2 ADD SWAP1 SWAP2 MSTORE PUSH1 0x0 DUP1 DUP3 MSTORE SWAP4 POP DUP4 SWAP3 POP DUP3 SWAP2 POP DUP2 PUSH2 0x4187 JUMP JUMPDEST PUSH1 0x0 PUSH1 0x14 DUP9 PUSH1 0x40 MLOAD PUSH2 0x3F92 SWAP2 SWAP1 PUSH2 0x7977 JUMP JUMPDEST SWAP1 DUP2 MSTORE PUSH1 0x40 DUP1 MLOAD PUSH1 0x20 SWAP3 DUP2 SWAP1 SUB DUP4 ADD DUP2 KECCAK256 PUSH1 0x1 PUSH1 0x1 PUSH1 0xA0 SHL SUB DUP12 AND PUSH1 0x0 SWAP1 DUP2 MSTORE SWAP4 MSTORE SWAP1 DUP3 KECCAK256 SLOAD SWAP3 POP PUSH1 0x12 SWAP1 PUSH2 0x3FC8 SWAP1 DUP12 SWAP1 PUSH2 0x7977 JUMP JUMPDEST SWAP1 DUP2 MSTORE PUSH1 0x20 ADD PUSH1 0x40 MLOAD DUP1 SWAP2 SUB SWAP1 KECCAK256 DUP3 DUP2 SLOAD DUP2 LT PUSH2 0x3FE7 JUMPI PUSH2 0x3FE7 PUSH2 0x79C0 JUMP JUMPDEST PUSH1 0x0 SWAP2 DUP3 MSTORE PUSH1 0x20 SWAP2 DUP3 SWAP1 KECCAK256 PUSH1 0x40 DUP1 MLOAD PUSH1 0xE0 DUP2 ADD SWAP1 SWAP2 MSTORE PUSH1 0x4 SWAP1 SWAP3 MUL ADD DUP1 SLOAD PUSH1 0x1 PUSH1 0x1 PUSH1 0xA0 SHL SUB DUP2 AND DUP4 MSTORE SWAP2 SWAP3 SWAP1 SWAP2 SWAP1 DUP4 ADD SWAP1 PUSH1 0xFF PUSH1 0x1 PUSH1 0xA0 SHL SWAP1 SWAP2 DIV AND PUSH1 0x1 DUP2 GT ISZERO PUSH2 0x4035 JUMPI PUSH2 0x4035 PUSH2 0x6F0F JUMP JUMPDEST PUSH1 0x1 DUP2 GT ISZERO PUSH2 0x4046 JUMPI PUSH2 0x4046 PUSH2 0x6F0F JUMP JUMPDEST DUP2 MSTORE DUP2 SLOAD PUSH1 0x20 SWAP1 SWAP2 ADD SWAP1 PUSH1 0x1 PUSH1 0xA8 SHL SWAP1 DIV PUSH1 0xFF AND PUSH1 0x3 DUP2 GT ISZERO PUSH2 0x406B JUMPI PUSH2 0x406B PUSH2 0x6F0F JUMP JUMPDEST PUSH1 0x3 DUP2 GT ISZERO PUSH2 0x407C JUMPI PUSH2 0x407C PUSH2 0x6F0F JUMP JUMPDEST DUP2 MSTORE DUP2 SLOAD PUSH1 0x20 SWAP1 SWAP2 ADD SWAP1 PUSH1 0x1 PUSH1 0xB0 SHL SWAP1 DIV PUSH1 0xFF AND PUSH1 0x5 DUP2 GT ISZERO PUSH2 0x40A1 JUMPI PUSH2 0x40A1 PUSH2 0x6F0F JUMP JUMPDEST PUSH1 0x5 DUP2 GT ISZERO PUSH2 0x40B2 JUMPI PUSH2 0x40B2 PUSH2 0x6F0F JUMP JUMPDEST DUP2 MSTORE PUSH1 0x20 ADD PUSH1 0x1 DUP3 ADD SLOAD DUP2 MSTORE PUSH1 0x20 ADD PUSH1 0x2 DUP3 ADD DUP1 SLOAD PUSH2 0x40D0 SWAP1 PUSH2 0x793D JUMP JUMPDEST DUP1 PUSH1 0x1F ADD PUSH1 0x20 DUP1 SWAP2 DIV MUL PUSH1 0x20 ADD PUSH1 0x40 MLOAD SWAP1 DUP2 ADD PUSH1 0x40 MSTORE DUP1 SWAP3 SWAP2 SWAP1 DUP2 DUP2 MSTORE PUSH1 0x20 ADD DUP3 DUP1 SLOAD PUSH2 0x40FC SWAP1 PUSH2 0x793D JUMP JUMPDEST DUP1 ISZERO PUSH2 0x4149 JUMPI DUP1 PUSH1 0x1F LT PUSH2 0x411E JUMPI PUSH2 0x100 DUP1 DUP4 SLOAD DIV MUL DUP4 MSTORE SWAP2 PUSH1 0x20 ADD SWAP2 PUSH2 0x4149 JUMP JUMPDEST DUP3 ADD SWAP2 SWAP1 PUSH1 0x0 MSTORE PUSH1 0x20 PUSH1 0x0 KECCAK256 SWAP1 JUMPDEST DUP2 SLOAD DUP2 MSTORE SWAP1 PUSH1 0x1 ADD SWAP1 PUSH1 0x20 ADD DUP1 DUP4 GT PUSH2 0x412C JUMPI DUP3 SWAP1 SUB PUSH1 0x1F AND DUP3 ADD SWAP2 JUMPDEST POP POP POP SWAP2 DUP4 MSTORE POP POP PUSH1 0x3 SWAP2 SWAP1 SWAP2 ADD SLOAD PUSH1 0xFF AND ISZERO ISZERO PUSH1 0x20 SWAP2 DUP3 ADD MSTORE DUP2 ADD MLOAD PUSH1 0x80 DUP3 ADD MLOAD PUSH1 0xA0 DUP4 ADD MLOAD PUSH1 0xC0 SWAP1 SWAP4 ADD MLOAD PUSH1 0x1 SWAP11 POP SWAP2 SWAP9 POP SWAP7 POP SWAP1 SWAP5 POP SWAP3 POP POP POP JUMPDEST SWAP3 SWAP6 POP SWAP3 SWAP6 SWAP1 SWAP4 POP JUMP JUMPDEST PUSH1 0x0 DUP2 MLOAD GT PUSH2 0x41B2 JUMPI PUSH1 0x40 MLOAD PUSH3 0x461BCD PUSH1 0xE5 SHL DUP2 MSTORE PUSH1 0x4 ADD PUSH2 0xCFE SWAP1 PUSH2 0x7A1B JUMP JUMPDEST PUSH2 0x41DA DUP2 CALLER PUSH1 0x40 MLOAD DUP1 PUSH1 0x40 ADD PUSH1 0x40 MSTORE DUP1 PUSH1 0x5 DUP2 MSTORE PUSH1 0x20 ADD PUSH5 0x37BBB732B9 PUSH1 0xD9 SHL DUP2 MSTORE POP PUSH2 0x66D2 JUMP JUMPDEST PUSH2 0x4232 JUMPI PUSH1 0x40 MLOAD PUSH3 0x461BCD PUSH1 0xE5 SHL DUP2 MSTORE PUSH1 0x20 PUSH1 0x4 DUP3 ADD MSTORE PUSH1 0x23 PUSH1 0x24 DUP3 ADD MSTORE PUSH32 0x596F7520617265206E6F7420616E206F776E6572206F66207468697320726563 PUSH1 0x44 DUP3 ADD MSTORE PUSH3 0x1BDC99 PUSH1 0xEA SHL PUSH1 0x64 DUP3 ADD MSTORE PUSH1 0x84 ADD PUSH2 0xCFE JUMP JUMPDEST PUSH1 0x0 PUSH1 0x1 PUSH1 0x5 DUP4 PUSH1 0x40 MLOAD PUSH2 0x4246 SWAP2 SWAP1 PUSH2 0x7977 JUMP JUMPDEST SWAP1 DUP2 MSTORE PUSH1 0x20 ADD PUSH1 0x40 MLOAD DUP1 SWAP2 SUB SWAP1 KECCAK256 DUP1 SLOAD SWAP1 POP GT SWAP1 POP PUSH1 0x0 DUP1 PUSH1 0x6 DUP5 PUSH1 0x40 MLOAD PUSH2 0x426E SWAP2 SWAP1 PUSH2 0x7977 JUMP JUMPDEST SWAP1 DUP2 MSTORE PUSH1 0x40 MLOAD SWAP1 DUP2 SWAP1 SUB PUSH1 0x20 ADD SWAP1 KECCAK256 SLOAD GT SWAP1 POP DUP2 DUP1 PUSH2 0x428A JUMPI POP DUP1 JUMPDEST PUSH2 0x42FC JUMPI PUSH1 0x40 MLOAD PUSH3 0x461BCD PUSH1 0xE5 SHL DUP2 MSTORE PUSH1 0x20 PUSH1 0x4 DUP3 ADD MSTORE PUSH1 0x3B PUSH1 0x24 DUP3 ADD MSTORE PUSH32 0x43616E6E6F742072656D6F766520796F757273656C66206173206C617374206F PUSH1 0x44 DUP3 ADD MSTORE PUSH32 0x776E65722077697468206E6F2061646D696E6973747261746F72730000000000 PUSH1 0x64 DUP3 ADD MSTORE PUSH1 0x84 ADD PUSH2 0xCFE JUMP JUMPDEST PUSH1 0x0 DUP4 CALLER PUSH1 0x40 MLOAD PUSH1 0x20 ADD PUSH2 0x4311 SWAP3 SWAP2 SWAP1 PUSH2 0x7A52 JUMP JUMPDEST PUSH1 0x40 MLOAD PUSH1 0x20 DUP2 DUP4 SUB SUB DUP2 MSTORE SWAP1 PUSH1 0x40 MSTORE DUP1 MLOAD SWAP1 PUSH1 0x20 ADD KECCAK256 SWAP1 POP PUSH2 0x4351 DUP5 CALLER PUSH1 0x40 MLOAD DUP1 PUSH1 0x40 ADD PUSH1 0x40 MSTORE DUP1 PUSH1 0x5 DUP2 MSTORE PUSH1 0x20 ADD PUSH5 0x37BBB732B9 PUSH1 0xD9 SHL DUP2 MSTORE POP PUSH2 0x68C4 JUMP JUMPDEST PUSH1 0x0 DUP2 DUP2 MSTORE PUSH1 0x4 PUSH1 0x20 DUP2 SWAP1 MSTORE PUSH1 0x40 SWAP2 DUP3 SWAP1 KECCAK256 PUSH1 0x5 DUP2 ADD DUP1 SLOAD PUSH1 0xFF PUSH1 0xA0 SHL NOT AND SWAP1 SSTORE TIMESTAMP SWAP2 ADD SSTORE MLOAD CALLER SWAP1 PUSH2 0x4384 SWAP1 DUP7 SWAP1 PUSH2 0x7977 JUMP JUMPDEST PUSH1 0x40 MLOAD SWAP1 DUP2 SWAP1 SUB DUP2 KECCAK256 TIMESTAMP DUP3 MSTORE SWAP1 PUSH32 0xCF5E8E3B738FC92454CE623CA55F54D14FDD7BEEA3859DEB72F5171AD234092D SWAP1 PUSH1 0x20 ADD PUSH1 0x40 MLOAD DUP1 SWAP2 SUB SWAP1 LOG3 POP POP POP POP JUMP JUMPDEST PUSH1 0x0 PUSH1 0xE DUP3 PUSH1 0x40 MLOAD PUSH2 0x43D6 SWAP2 SWAP1 PUSH2 0x7977 JUMP JUMPDEST SWAP1 DUP2 MSTORE PUSH1 0x40 MLOAD SWAP1 DUP2 SWAP1 SUB PUSH1 0x20 ADD SWAP1 KECCAK256 PUSH1 0x4 ADD SLOAD PUSH1 0xFF PUSH1 0x1 PUSH1 0xA0 SHL SWAP1 SWAP2 DIV AND PUSH2 0x4438 JUMPI PUSH1 0x40 MLOAD PUSH3 0x461BCD PUSH1 0xE5 SHL DUP2 MSTORE PUSH1 0x20 PUSH1 0x4 DUP3 ADD MSTORE PUSH1 0x15 PUSH1 0x24 DUP3 ADD MSTORE PUSH21 0x149958DBDC9908191BD95CC81B9BDD08195E1A5CDD PUSH1 0x5A SHL PUSH1 0x44 DUP3 ADD MSTORE PUSH1 0x64 ADD PUSH2 0xCFE JUMP JUMPDEST PUSH1 0xE DUP3 PUSH1 0x40 MLOAD PUSH2 0x4448 SWAP2 SWAP1 PUSH2 0x7977 JUMP JUMPDEST SWAP1 DUP2 MSTORE PUSH1 0x40 MLOAD SWAP1 DUP2 SWAP1 SUB PUSH1 0x20 ADD SWAP1 KECCAK256 PUSH1 0x2 ADD SLOAD PUSH1 0x1 PUSH1 0x1 PUSH1 0xA0 SHL SUB AND SWAP3 SWAP2 POP POP JUMP JUMPDEST PUSH1 0x13 DUP2 PUSH1 0x40 MLOAD PUSH2 0x447A SWAP2 SWAP1 PUSH2 0x7977 JUMP JUMPDEST SWAP1 DUP2 MSTORE PUSH1 0x40 DUP1 MLOAD PUSH1 0x20 SWAP3 DUP2 SWAP1 SUB DUP4 ADD SWAP1 KECCAK256 CALLER PUSH1 0x0 SWAP1 DUP2 MSTORE SWAP3 MSTORE SWAP1 KECCAK256 SLOAD PUSH1 0xFF AND PUSH2 0x44DC JUMPI PUSH1 0x40 MLOAD PUSH3 0x461BCD PUSH1 0xE5 SHL DUP2 MSTORE PUSH1 0x20 PUSH1 0x4 DUP3 ADD MSTORE PUSH1 0x14 PUSH1 0x24 DUP3 ADD MSTORE PUSH20 0x139BC81C995D9A595DC81D1BC81C995D1C9858DD PUSH1 0x62 SHL PUSH1 0x44 DUP3 ADD MSTORE PUSH1 0x64 ADD PUSH2 0xCFE JUMP JUMPDEST PUSH1 0x0 PUSH1 0x14 DUP3 PUSH1 0x40 MLOAD PUSH2 0x44EE SWAP2 SWAP1 PUSH2 0x7977 JUMP JUMPDEST SWAP1 DUP2 MSTORE PUSH1 0x40 DUP1 MLOAD PUSH1 0x20 SWAP3 DUP2 SWAP1 SUB DUP4 ADD DUP2 KECCAK256 CALLER PUSH1 0x0 SWAP1 DUP2 MSTORE SWAP4 MSTORE SWAP1 DUP3 KECCAK256 SLOAD SWAP3 POP PUSH1 0x12 SWAP1 PUSH2 0x451B SWAP1 DUP6 SWAP1 PUSH2 0x7977 JUMP JUMPDEST SWAP1 DUP2 MSTORE PUSH1 0x20 ADD PUSH1 0x40 MLOAD DUP1 SWAP2 SUB SWAP1 KECCAK256 DUP3 DUP2 SLOAD DUP2 LT PUSH2 0x453A JUMPI PUSH2 0x453A PUSH2 0x79C0 JUMP JUMPDEST PUSH1 0x0 SWAP2 DUP3 MSTORE PUSH1 0x20 SWAP1 SWAP2 KECCAK256 PUSH1 0x4 SWAP1 SWAP2 MUL ADD PUSH1 0x3 DUP2 ADD SLOAD SWAP1 SWAP2 POP PUSH1 0xFF AND PUSH2 0x4595 JUMPI PUSH1 0x40 MLOAD PUSH3 0x461BCD PUSH1 0xE5 SHL DUP2 MSTORE PUSH1 0x20 PUSH1 0x4 DUP3 ADD MSTORE PUSH1 0x11 PUSH1 0x24 DUP3 ADD MSTORE PUSH17 0x105B1C9958591E481C995D1C9858DD1959 PUSH1 0x7A SHL PUSH1 0x44 DUP3 ADD MSTORE PUSH1 0x64 ADD PUSH2 0xCFE JUMP JUMPDEST PUSH1 0x3 DUP2 ADD DUP1 SLOAD PUSH1 0xFF NOT AND SWAP1 SSTORE PUSH1 0x40 MLOAD PUSH1 0x0 SWAP1 PUSH1 0x13 SWAP1 PUSH2 0x45B5 SWAP1 DUP7 SWAP1 PUSH2 0x7977 JUMP JUMPDEST SWAP1 DUP2 MSTORE PUSH1 0x40 DUP1 MLOAD PUSH1 0x20 SWAP3 DUP2 SWAP1 SUB DUP4 ADD DUP2 KECCAK256 CALLER PUSH1 0x0 DUP2 DUP2 MSTORE SWAP2 SWAP1 SWAP5 MSTORE SWAP2 SWAP1 SWAP2 KECCAK256 DUP1 SLOAD PUSH1 0xFF NOT AND SWAP4 ISZERO ISZERO SWAP4 SWAP1 SWAP4 OR SWAP1 SWAP3 SSTORE SWAP1 PUSH2 0x45F0 SWAP1 DUP6 SWAP1 PUSH2 0x7977 JUMP JUMPDEST PUSH1 0x40 MLOAD DUP1 SWAP2 SUB SWAP1 KECCAK256 PUSH32 0x6BC31BFB9FF73229DA0FA40A8AB549B0579FA1A8AA5097D6C42C758AD6956182 DUP4 PUSH1 0x0 ADD PUSH1 0x14 SWAP1 SLOAD SWAP1 PUSH2 0x100 EXP SWAP1 DIV PUSH1 0xFF AND TIMESTAMP PUSH1 0x40 MLOAD PUSH2 0x2B5C SWAP3 SWAP2 SWAP1 PUSH2 0x7CD5 JUMP JUMPDEST DUP2 MLOAD PUSH1 0x20 DUP2 DUP5 ADD DUP2 ADD DUP1 MLOAD PUSH1 0x7 DUP3 MSTORE SWAP3 DUP3 ADD SWAP2 DUP6 ADD SWAP2 SWAP1 SWAP2 KECCAK256 SWAP2 SWAP1 MSTORE DUP1 SLOAD DUP3 SWAP1 DUP2 LT PUSH2 0x384B JUMPI PUSH1 0x0 DUP1 REVERT JUMPDEST PUSH1 0x60 PUSH1 0x0 DUP1 PUSH1 0x0 DUP1 PUSH1 0x0 PUSH1 0xE DUP8 PUSH1 0x40 MLOAD PUSH2 0x467F SWAP2 SWAP1 PUSH2 0x7977 JUMP JUMPDEST SWAP1 DUP2 MSTORE PUSH1 0x20 ADD PUSH1 0x40 MLOAD DUP1 SWAP2 SUB SWAP1 KECCAK256 PUSH1 0x40 MLOAD DUP1 PUSH1 0xC0 ADD PUSH1 0x40 MSTORE SWAP1 DUP2 PUSH1 0x0 DUP3 ADD DUP1 SLOAD PUSH2 0x46A8 SWAP1 PUSH2 0x793D JUMP JUMPDEST DUP1 PUSH1 0x1F ADD PUSH1 0x20 DUP1 SWAP2 DIV MUL PUSH1 0x20 ADD PUSH1 0x40 MLOAD SWAP1 DUP2 ADD PUSH1 0x40 MSTORE DUP1 SWAP3 SWAP2 SWAP1 DUP2 DUP2 MSTORE PUSH1 0x20 ADD DUP3 DUP1 SLOAD PUSH2 0x46D4 SWAP1 PUSH2 0x793D JUMP JUMPDEST DUP1 ISZERO PUSH2 0x4721 JUMPI DUP1 PUSH1 0x1F LT PUSH2 0x46F6 JUMPI PUSH2 0x100 DUP1 DUP4 SLOAD DIV MUL DUP4 MSTORE SWAP2 PUSH1 0x20 ADD SWAP2 PUSH2 0x4721 JUMP JUMPDEST DUP3 ADD SWAP2 SWAP1 PUSH1 0x0 MSTORE PUSH1 0x20 PUSH1 0x0 KECCAK256 SWAP1 JUMPDEST DUP2 SLOAD DUP2 MSTORE SWAP1 PUSH1 0x1 ADD SWAP1 PUSH1 0x20 ADD DUP1 DUP4 GT PUSH2 0x4704 JUMPI DUP3 SWAP1 SUB PUSH1 0x1F AND DUP3 ADD SWAP2 JUMPDEST POP POP POP POP POP DUP2 MSTORE PUSH1 0x20 ADD PUSH1 0x1 DUP3 ADD DUP1 SLOAD PUSH2 0x473A SWAP1 PUSH2 0x793D JUMP JUMPDEST DUP1 PUSH1 0x1F ADD PUSH1 0x20 DUP1 SWAP2 DIV MUL PUSH1 0x20 ADD PUSH1 0x40 MLOAD SWAP1 DUP2 ADD PUSH1 0x40 MSTORE DUP1 SWAP3 SWAP2 SWAP1 DUP2 DUP2 MSTORE PUSH1 0x20 ADD DUP3 DUP1 SLOAD PUSH2 0x4766 SWAP1 PUSH2 0x793D JUMP JUMPDEST DUP1 ISZERO PUSH2 0x47B3 JUMPI DUP1 PUSH1 0x1F LT PUSH2 0x4788 JUMPI PUSH2 0x100 DUP1 DUP4 SLOAD DIV MUL DUP4 MSTORE SWAP2 PUSH1 0x20 ADD SWAP2 PUSH2 0x47B3 JUMP JUMPDEST DUP3 ADD SWAP2 SWAP1 PUSH1 0x0 MSTORE PUSH1 0x20 PUSH1 0x0 KECCAK256 SWAP1 JUMPDEST DUP2 SLOAD DUP2 MSTORE SWAP1 PUSH1 0x1 ADD SWAP1 PUSH1 0x20 ADD DUP1 DUP4 GT PUSH2 0x4796 JUMPI DUP3 SWAP1 SUB PUSH1 0x1F AND DUP3 ADD SWAP2 JUMPDEST POP POP POP SWAP2 DUP4 MSTORE POP POP PUSH1 0x2 DUP3 ADD SLOAD PUSH1 0x1 PUSH1 0x1 PUSH1 0xA0 SHL SUB SWAP1 DUP2 AND PUSH1 0x20 DUP1 DUP5 ADD SWAP2 SWAP1 SWAP2 MSTORE PUSH1 0x3 DUP5 ADD SLOAD PUSH1 0x40 DUP1 DUP6 ADD SWAP2 SWAP1 SWAP2 MSTORE PUSH1 0x4 SWAP1 SWAP5 ADD SLOAD SWAP2 DUP3 AND PUSH1 0x60 DUP1 DUP6 ADD SWAP2 SWAP1 SWAP2 MSTORE PUSH1 0x1 PUSH1 0xA0 SHL SWAP1 SWAP3 DIV PUSH1 0xFF AND ISZERO ISZERO PUSH1 0x80 SWAP4 DUP5 ADD MSTORE DUP5 ADD MLOAD SWAP3 DUP5 ADD MLOAD SWAP1 DUP5 ADD MLOAD SWAP2 DUP5 ADD MLOAD PUSH1 0xA0 SWAP1 SWAP5 ADD MLOAD SWAP3 SWAP12 SWAP1 SWAP11 POP SWAP1 SWAP9 POP SWAP2 SWAP7 POP SWAP5 POP SWAP3 POP POP POP JUMP JUMPDEST CALLER PUSH1 0x0 SWAP1 DUP2 MSTORE PUSH1 0x1 PUSH1 0x20 MSTORE PUSH1 0x40 DUP2 KECCAK256 PUSH1 0x2 SWAP1 DUP2 ADD SLOAD PUSH1 0xFF AND SWAP1 DUP2 GT ISZERO PUSH2 0x4857 JUMPI PUSH2 0x4857 PUSH2 0x6F0F JUMP JUMPDEST SUB PUSH2 0x489B JUMPI PUSH1 0x40 MLOAD PUSH3 0x461BCD PUSH1 0xE5 SHL DUP2 MSTORE PUSH1 0x20 PUSH1 0x4 DUP3 ADD MSTORE PUSH1 0x14 PUSH1 0x24 DUP3 ADD MSTORE PUSH20 0x2737BA1030B71030B1BA34BB329036B2B6B132B9 PUSH1 0x61 SHL PUSH1 0x44 DUP3 ADD MSTORE PUSH1 0x64 ADD PUSH2 0xCFE JUMP JUMPDEST PUSH1 0x0 DUP4 MLOAD GT PUSH2 0x48BC JUMPI PUSH1 0x40 MLOAD PUSH3 0x461BCD PUSH1 0xE5 SHL DUP2 MSTORE PUSH1 0x4 ADD PUSH2 0xCFE SWAP1 PUSH2 0x7A1B JUMP JUMPDEST PUSH1 0x1 PUSH1 0x1 PUSH1 0xA0 SHL SUB DUP3 AND PUSH2 0x48E2 JUMPI PUSH1 0x40 MLOAD PUSH3 0x461BCD PUSH1 0xE5 SHL DUP2 MSTORE PUSH1 0x4 ADD PUSH2 0xCFE SWAP1 PUSH2 0x7C5D JUMP JUMPDEST DUP1 MLOAD PUSH1 0x20 DUP1 DUP4 ADD SWAP2 SWAP1 SWAP2 KECCAK256 PUSH1 0x40 DUP1 MLOAD DUP1 DUP3 ADD SWAP1 SWAP2 MSTORE PUSH1 0x5 DUP2 MSTORE PUSH5 0x37BBB732B9 PUSH1 0xD9 SHL SWAP3 ADD SWAP2 SWAP1 SWAP2 MSTORE PUSH32 0x2016836A56B71F0D02689E69E326F4F4C1B9057164EF592671CF0D37C8040C0 DUP2 EQ DUP1 PUSH2 0x496A JUMPI POP PUSH1 0x40 DUP1 MLOAD DUP1 DUP3 ADD SWAP1 SWAP2 MSTORE PUSH1 0xD DUP2 MSTORE PUSH13 0x30B236B4B734B9BA3930BA37B9 PUSH1 0x99 SHL PUSH1 0x20 SWAP1 SWAP2 ADD MSTORE PUSH1 0x0 DUP1 MLOAD PUSH1 0x20 PUSH2 0x7EC2 DUP4 CODECOPY DUP2 MLOAD SWAP2 MSTORE DUP2 EQ JUMPDEST DUP1 PUSH2 0x49B2 JUMPI POP PUSH1 0x40 DUP1 MLOAD DUP1 DUP3 ADD SWAP1 SWAP2 MSTORE PUSH1 0x6 DUP2 MSTORE PUSH6 0x3B34B2BBB2B9 PUSH1 0xD1 SHL PUSH1 0x20 SWAP1 SWAP2 ADD MSTORE PUSH32 0x120310A1203E5851B63A4D0B2C5643D3FBA07783D2B04D7222298A1ED22E1E0D DUP2 EQ JUMPDEST PUSH2 0x49CE JUMPI PUSH1 0x40 MLOAD PUSH3 0x461BCD PUSH1 0xE5 SHL DUP2 MSTORE PUSH1 0x4 ADD PUSH2 0xCFE SWAP1 PUSH2 0x7CF0 JUMP JUMPDEST PUSH1 0x0 DUP5 CALLER PUSH1 0x40 MLOAD PUSH1 0x20 ADD PUSH2 0x49E3 SWAP3 SWAP2 SWAP1 PUSH2 0x7A52 JUMP JUMPDEST PUSH1 0x40 MLOAD PUSH1 0x20 DUP2 DUP4 SUB SUB DUP2 MSTORE SWAP1 PUSH1 0x40 MSTORE DUP1 MLOAD SWAP1 PUSH1 0x20 ADD KECCAK256 SWAP1 POP PUSH1 0x0 PUSH1 0x4 PUSH1 0x0 DUP4 DUP2 MSTORE PUSH1 0x20 ADD SWAP1 DUP2 MSTORE PUSH1 0x20 ADD PUSH1 0x0 KECCAK256 PUSH1 0x40 MLOAD DUP1 PUSH1 0xE0 ADD PUSH1 0x40 MSTORE SWAP1 DUP2 PUSH1 0x0 DUP3 ADD DUP1 SLOAD PUSH2 0x4A2B SWAP1 PUSH2 0x793D JUMP JUMPDEST DUP1 PUSH1 0x1F ADD PUSH1 0x20 DUP1 SWAP2 DIV MUL PUSH1 0x20 ADD PUSH1 0x40 MLOAD SWAP1 DUP2 ADD PUSH1 0x40 MSTORE DUP1 SWAP3 SWAP2 SWAP1 DUP2 DUP2 MSTORE PUSH1 0x20 ADD DUP3 DUP1 SLOAD PUSH2 0x4A57 SWAP1 PUSH2 0x793D JUMP JUMPDEST DUP1 ISZERO PUSH2 0x4AA4 JUMPI DUP1 PUSH1 0x1F LT PUSH2 0x4A79 JUMPI PUSH2 0x100 DUP1 DUP4 SLOAD DIV MUL DUP4 MSTORE SWAP2 PUSH1 0x20 ADD SWAP2 PUSH2 0x4AA4 JUMP JUMPDEST DUP3 ADD SWAP2 SWAP1 PUSH1 0x0 MSTORE PUSH1 0x20 PUSH1 0x0 KECCAK256 SWAP1 JUMPDEST DUP2 SLOAD DUP2 MSTORE SWAP1 PUSH1 0x1 ADD SWAP1 PUSH1 0x20 ADD DUP1 DUP4 GT PUSH2 0x4A87 JUMPI DUP3 SWAP1 SUB PUSH1 0x1F AND DUP3 ADD SWAP2 JUMPDEST POP POP POP SWAP2 DUP4 MSTORE POP POP PUSH1 0x1 DUP3 ADD SLOAD PUSH1 0x1 PUSH1 0x1 PUSH1 0xA0 SHL SUB AND PUSH1 0x20 DUP3 ADD MSTORE PUSH1 0x2 DUP3 ADD DUP1 SLOAD PUSH1 0x40 SWAP1 SWAP3 ADD SWAP2 PUSH2 0x4AD4 SWAP1 PUSH2 0x793D JUMP JUMPDEST DUP1 PUSH1 0x1F ADD PUSH1 0x20 DUP1 SWAP2 DIV MUL PUSH1 0x20 ADD PUSH1 0x40 MLOAD SWAP1 DUP2 ADD PUSH1 0x40 MSTORE DUP1 SWAP3 SWAP2 SWAP1 DUP2 DUP2 MSTORE PUSH1 0x20 ADD DUP3 DUP1 SLOAD PUSH2 0x4B00 SWAP1 PUSH2 0x793D JUMP JUMPDEST DUP1 ISZERO PUSH2 0x4B4D JUMPI DUP1 PUSH1 0x1F LT PUSH2 0x4B22 JUMPI PUSH2 0x100 DUP1 DUP4 SLOAD DIV MUL DUP4 MSTORE SWAP2 PUSH1 0x20 ADD SWAP2 PUSH2 0x4B4D JUMP JUMPDEST DUP3 ADD SWAP2 SWAP1 PUSH1 0x0 MSTORE PUSH1 0x20 PUSH1 0x0 KECCAK256 SWAP1 JUMPDEST DUP2 SLOAD DUP2 MSTORE SWAP1 PUSH1 0x1 ADD SWAP1 PUSH1 0x20 ADD DUP1 DUP4 GT PUSH2 0x4B30 JUMPI DUP3 SWAP1 SUB PUSH1 0x1F AND DUP3 ADD SWAP2 JUMPDEST POP POP POP SWAP2 DUP4 MSTORE POP POP PUSH1 0x3 DUP3 ADD SLOAD PUSH1 0x20 DUP3 ADD MSTORE PUSH1 0x4 DUP3 ADD SLOAD PUSH1 0x40 DUP3 ADD MSTORE PUSH1 0x5 SWAP1 SWAP2 ADD SLOAD PUSH1 0x1 PUSH1 0x1 PUSH1 0xA0 SHL SUB DUP2 AND PUSH1 0x60 DUP4 ADD MSTORE PUSH1 0x1 PUSH1 0xA0 SHL SWAP1 DIV PUSH1 0xFF AND ISZERO ISZERO PUSH1 0x80 SWAP1 SWAP2 ADD MSTORE PUSH1 0xC0 DUP2 ADD MLOAD SWAP1 SWAP2 POP PUSH2 0x4BE4 JUMPI PUSH1 0x40 MLOAD PUSH3 0x461BCD PUSH1 0xE5 SHL DUP2 MSTORE PUSH1 0x20 PUSH1 0x4 DUP3 ADD DUP2 SWAP1 MSTORE PUSH1 0x24 DUP3 ADD MSTORE PUSH32 0x596F752068617665206E6F20726F6C6520666F722074686973207265636F7264 PUSH1 0x44 DUP3 ADD MSTORE PUSH1 0x64 ADD PUSH2 0xCFE JUMP JUMPDEST PUSH1 0x0 DUP1 PUSH1 0x5 DUP9 PUSH1 0x40 MLOAD PUSH2 0x4BF7 SWAP2 SWAP1 PUSH2 0x7977 JUMP JUMPDEST SWAP1 DUP2 MSTORE PUSH1 0x20 ADD PUSH1 0x40 MLOAD DUP1 SWAP2 SUB SWAP1 KECCAK256 DUP1 SLOAD SWAP1 POP GT SWAP1 POP PUSH1 0x0 PUSH2 0x4C36 DUP9 CALLER PUSH1 0x40 MLOAD DUP1 PUSH1 0x40 ADD PUSH1 0x40 MSTORE DUP1 PUSH1 0x5 DUP2 MSTORE PUSH1 0x20 ADD PUSH5 0x37BBB732B9 PUSH1 0xD9 SHL DUP2 MSTORE POP PUSH2 0x66D2 JUMP JUMPDEST SWAP1 POP PUSH1 0x0 PUSH2 0x4C6A DUP10 CALLER PUSH1 0x40 MLOAD DUP1 PUSH1 0x40 ADD PUSH1 0x40 MSTORE DUP1 PUSH1 0xD DUP2 MSTORE PUSH1 0x20 ADD PUSH13 0x30B236B4B734B9BA3930BA37B9 PUSH1 0x99 SHL DUP2 MSTORE POP PUSH2 0x66D2 JUMP JUMPDEST PUSH1 0x40 DUP1 MLOAD DUP1 DUP3 ADD SWAP1 SWAP2 MSTORE PUSH1 0x5 DUP2 MSTORE PUSH5 0x37BBB732B9 PUSH1 0xD9 SHL PUSH1 0x20 SWAP1 SWAP2 ADD MSTORE SWAP1 POP PUSH1 0x0 DUP1 MLOAD PUSH1 0x20 PUSH2 0x7EA2 DUP4 CODECOPY DUP2 MLOAD SWAP2 MSTORE DUP7 ADD PUSH2 0x4D55 JUMPI DUP3 ISZERO PUSH2 0x4CF6 JUMPI DUP2 PUSH2 0x4CF1 JUMPI PUSH1 0x40 MLOAD PUSH3 0x461BCD PUSH1 0xE5 SHL DUP2 MSTORE PUSH1 0x20 PUSH1 0x4 DUP3 ADD DUP2 SWAP1 MSTORE PUSH1 0x24 DUP3 ADD MSTORE PUSH32 0x4F6E6C79206F776E6572732063616E206772616E74206F776E657220726F6C65 PUSH1 0x44 DUP3 ADD MSTORE PUSH1 0x64 ADD PUSH2 0xCFE JUMP JUMPDEST PUSH2 0x4E8B JUMP JUMPDEST DUP1 PUSH2 0x4CF1 JUMPI PUSH1 0x40 MLOAD PUSH3 0x461BCD PUSH1 0xE5 SHL DUP2 MSTORE PUSH1 0x20 PUSH1 0x4 DUP3 ADD MSTORE PUSH1 0x29 PUSH1 0x24 DUP3 ADD MSTORE PUSH32 0x4F6E6C792061646D696E6973747261746F72732063616E206772616E74206669 PUSH1 0x44 DUP3 ADD MSTORE PUSH9 0x3939BA1037BBB732B9 PUSH1 0xB9 SHL PUSH1 0x64 DUP3 ADD MSTORE PUSH1 0x84 ADD PUSH2 0xCFE JUMP JUMPDEST PUSH1 0x40 DUP1 MLOAD DUP1 DUP3 ADD SWAP1 SWAP2 MSTORE PUSH1 0xD DUP2 MSTORE PUSH13 0x30B236B4B734B9BA3930BA37B9 PUSH1 0x99 SHL PUSH1 0x20 SWAP1 SWAP2 ADD MSTORE PUSH1 0x0 DUP1 MLOAD PUSH1 0x20 PUSH2 0x7EE2 DUP4 CODECOPY DUP2 MLOAD SWAP2 MSTORE DUP7 ADD PUSH2 0x4DF8 JUMPI DUP2 DUP1 PUSH2 0x4D98 JUMPI POP DUP1 JUMPDEST PUSH2 0x4CF1 JUMPI PUSH1 0x40 MLOAD PUSH3 0x461BCD PUSH1 0xE5 SHL DUP2 MSTORE PUSH1 0x20 PUSH1 0x4 DUP3 ADD MSTORE PUSH1 0x3B PUSH1 0x24 DUP3 ADD MSTORE PUSH1 0x0 DUP1 MLOAD PUSH1 0x20 PUSH2 0x7E62 DUP4 CODECOPY DUP2 MLOAD SWAP2 MSTORE PUSH1 0x44 DUP3 ADD MSTORE PUSH32 0x616E206772616E742061646D696E6973747261746F7220726F6C650000000000 PUSH1 0x64 DUP3 ADD MSTORE PUSH1 0x84 ADD PUSH2 0xCFE JUMP JUMPDEST PUSH1 0x40 DUP1 MLOAD DUP1 DUP3 ADD SWAP1 SWAP2 MSTORE PUSH1 0x6 DUP2 MSTORE PUSH6 0x3B34B2BBB2B9 PUSH1 0xD1 SHL PUSH1 0x20 SWAP1 SWAP2 ADD MSTORE PUSH1 0x0 DUP1 MLOAD PUSH1 0x20 PUSH2 0x7E82 DUP4 CODECOPY DUP2 MLOAD SWAP2 MSTORE DUP7 ADD PUSH2 0x4E8B JUMPI DUP2 DUP1 PUSH2 0x4E34 JUMPI POP DUP1 JUMPDEST PUSH2 0x4E8B JUMPI PUSH1 0x40 MLOAD PUSH3 0x461BCD PUSH1 0xE5 SHL DUP2 MSTORE PUSH1 0x20 PUSH1 0x4 DUP3 ADD MSTORE PUSH1 0x34 PUSH1 0x24 DUP3 ADD MSTORE PUSH1 0x0 DUP1 MLOAD PUSH1 0x20 PUSH2 0x7E62 DUP4 CODECOPY DUP2 MLOAD SWAP2 MSTORE PUSH1 0x44 DUP3 ADD MSTORE PUSH20 0x616E206772616E742076696577657220726F6C65 PUSH1 0x60 SHL PUSH1 0x64 DUP3 ADD MSTORE PUSH1 0x84 ADD PUSH2 0xCFE JUMP JUMPDEST PUSH1 0x0 DUP10 DUP10 PUSH1 0x40 MLOAD PUSH1 0x20 ADD PUSH2 0x4EA0 SWAP3 SWAP2 SWAP1 PUSH2 0x7A52 JUMP JUMPDEST PUSH1 0x40 DUP1 MLOAD DUP1 DUP4 SUB PUSH1 0x1F NOT ADD DUP2 MSTORE SWAP2 DUP2 MSTORE DUP2 MLOAD PUSH1 0x20 SWAP3 DUP4 ADD KECCAK256 PUSH1 0x0 DUP2 DUP2 MSTORE PUSH1 0x4 SWAP1 SWAP4 MSTORE SWAP2 KECCAK256 PUSH1 0x5 ADD SLOAD SWAP1 SWAP2 POP PUSH1 0x1 PUSH1 0xA0 SHL SWAP1 DIV PUSH1 0xFF AND ISZERO PUSH2 0x4F3C JUMPI PUSH1 0x40 MLOAD PUSH3 0x461BCD PUSH1 0xE5 SHL DUP2 MSTORE PUSH1 0x20 PUSH1 0x4 DUP3 ADD MSTORE PUSH1 0x31 PUSH1 0x24 DUP3 ADD MSTORE PUSH32 0x5573657220616C726561647920686173206120726F6C652E2055736520636861 PUSH1 0x44 DUP3 ADD MSTORE PUSH17 0x1B99D9549BDB194A0A481A5B9CDD195859 PUSH1 0x7A SHL PUSH1 0x64 DUP3 ADD MSTORE PUSH1 0x84 ADD PUSH2 0xCFE JUMP JUMPDEST PUSH2 0x4F48 DUP11 DUP11 DUP11 CALLER PUSH2 0x69C6 JUMP JUMPDEST POP POP POP POP POP POP POP POP POP POP JUMP JUMPDEST PUSH1 0xC PUSH1 0x20 MSTORE DUP2 PUSH1 0x0 MSTORE PUSH1 0x40 PUSH1 0x0 KECCAK256 DUP2 DUP2 SLOAD DUP2 LT PUSH2 0xBFB JUMPI PUSH1 0x0 DUP1 REVERT JUMPDEST PUSH1 0x1 PUSH1 0x1 PUSH1 0xA0 SHL SUB DUP2 AND PUSH1 0x0 SWAP1 DUP2 MSTORE PUSH1 0x18 PUSH1 0x20 SWAP1 DUP2 MSTORE PUSH1 0x40 DUP1 DUP4 KECCAK256 DUP1 SLOAD DUP3 MLOAD DUP2 DUP6 MUL DUP2 ADD DUP6 ADD SWAP1 SWAP4 MSTORE DUP1 DUP4 MSTORE PUSH1 0x60 SWAP5 SWAP3 SWAP4 SWAP2 SWAP3 SWAP1 SWAP2 DUP5 ADD JUMPDEST DUP3 DUP3 LT ISZERO PUSH2 0x1164 JUMPI DUP4 DUP3 SWAP1 PUSH1 0x0 MSTORE PUSH1 0x20 PUSH1 0x0 KECCAK256 ADD DUP1 SLOAD PUSH2 0x4FC7 SWAP1 PUSH2 0x793D JUMP JUMPDEST DUP1 PUSH1 0x1F ADD PUSH1 0x20 DUP1 SWAP2 DIV MUL PUSH1 0x20 ADD PUSH1 0x40 MLOAD SWAP1 DUP2 ADD PUSH1 0x40 MSTORE DUP1 SWAP3 SWAP2 SWAP1 DUP2 DUP2 MSTORE PUSH1 0x20 ADD DUP3 DUP1 SLOAD PUSH2 0x4FF3 SWAP1 PUSH2 0x793D JUMP JUMPDEST DUP1 ISZERO PUSH2 0x5040 JUMPI DUP1 PUSH1 0x1F LT PUSH2 0x5015 JUMPI PUSH2 0x100 DUP1 DUP4 SLOAD DIV MUL DUP4 MSTORE SWAP2 PUSH1 0x20 ADD SWAP2 PUSH2 0x5040 JUMP JUMPDEST DUP3 ADD SWAP2 SWAP1 PUSH1 0x0 MSTORE PUSH1 0x20 PUSH1 0x0 KECCAK256 SWAP1 JUMPDEST DUP2 SLOAD DUP2 MSTORE SWAP1 PUSH1 0x1 ADD SWAP1 PUSH1 0x20 ADD DUP1 DUP4 GT PUSH2 0x5023 JUMPI DUP3 SWAP1 SUB PUSH1 0x1F AND DUP3 ADD SWAP2 JUMPDEST POP POP POP POP POP DUP2 MSTORE PUSH1 0x20 ADD SWAP1 PUSH1 0x1 ADD SWAP1 PUSH2 0x4FA8 JUMP JUMPDEST PUSH1 0x1 PUSH1 0x1 PUSH1 0xA0 SHL SUB DUP2 AND PUSH1 0x0 SWAP1 DUP2 MSTORE PUSH1 0xF PUSH1 0x20 SWAP1 DUP2 MSTORE PUSH1 0x40 DUP1 DUP4 KECCAK256 DUP1 SLOAD DUP3 MLOAD DUP2 DUP6 MUL DUP2 ADD DUP6 ADD SWAP1 SWAP4 MSTORE DUP1 DUP4 MSTORE PUSH1 0x60 SWAP5 SWAP3 SWAP4 SWAP2 SWAP3 SWAP1 SWAP2 DUP5 ADD JUMPDEST DUP3 DUP3 LT ISZERO PUSH2 0x1164 JUMPI DUP4 DUP3 SWAP1 PUSH1 0x0 MSTORE PUSH1 0x20 PUSH1 0x0 KECCAK256 ADD DUP1 SLOAD PUSH2 0x50AB SWAP1 PUSH2 0x793D JUMP JUMPDEST DUP1 PUSH1 0x1F ADD PUSH1 0x20 DUP1 SWAP2 DIV MUL PUSH1 0x20 ADD PUSH1 0x40 MLOAD SWAP1 DUP2 ADD PUSH1 0x40 MSTORE DUP1 SWAP3 SWAP2 SWAP1 DUP2 DUP2 MSTORE PUSH1 0x20 ADD DUP3 DUP1 SLOAD PUSH2 0x50D7 SWAP1 PUSH2 0x793D JUMP JUMPDEST DUP1 ISZERO PUSH2 0x5124 JUMPI DUP1 PUSH1 0x1F LT PUSH2 0x50F9 JUMPI PUSH2 0x100 DUP1 DUP4 SLOAD DIV MUL DUP4 MSTORE SWAP2 PUSH1 0x20 ADD SWAP2 PUSH2 0x5124 JUMP JUMPDEST DUP3 ADD SWAP2 SWAP1 PUSH1 0x0 MSTORE PUSH1 0x20 PUSH1 0x0 KECCAK256 SWAP1 JUMPDEST DUP2 SLOAD DUP2 MSTORE SWAP1 PUSH1 0x1 ADD SWAP1 PUSH1 0x20 ADD DUP1 DUP4 GT PUSH2 0x5107 JUMPI DUP3 SWAP1 SUB PUSH1 0x1F AND DUP3 ADD SWAP2 JUMPDEST POP POP POP POP POP DUP2 MSTORE PUSH1 0x20 ADD SWAP1 PUSH1 0x1 ADD SWAP1 PUSH2 0x508C JUMP JUMPDEST PUSH1 0x0 PUSH2 0x5145 DUP5 DUP5 DUP5 PUSH2 0x66D2 JUMP JUMPDEST SWAP5 SWAP4 POP POP POP POP JUMP JUMPDEST CALLER PUSH1 0x0 SWAP1 DUP2 MSTORE PUSH1 0x1 PUSH1 0x20 MSTORE PUSH1 0x40 DUP2 KECCAK256 PUSH1 0x2 SWAP1 DUP2 ADD SLOAD PUSH1 0xFF AND SWAP1 DUP2 GT ISZERO PUSH2 0x5175 JUMPI PUSH2 0x5175 PUSH2 0x6F0F JUMP JUMPDEST SUB PUSH2 0x51B9 JUMPI PUSH1 0x40 MLOAD PUSH3 0x461BCD PUSH1 0xE5 SHL DUP2 MSTORE PUSH1 0x20 PUSH1 0x4 DUP3 ADD MSTORE PUSH1 0x14 PUSH1 0x24 DUP3 ADD MSTORE PUSH20 0x2737BA1030B71030B1BA34BB329036B2B6B132B9 PUSH1 0x61 SHL PUSH1 0x44 DUP3 ADD MSTORE PUSH1 0x64 ADD PUSH2 0xCFE JUMP JUMPDEST PUSH1 0x0 DUP4 MLOAD GT PUSH2 0x51DA JUMPI PUSH1 0x40 MLOAD PUSH3 0x461BCD PUSH1 0xE5 SHL DUP2 MSTORE PUSH1 0x4 ADD PUSH2 0xCFE SWAP1 PUSH2 0x7A1B JUMP JUMPDEST PUSH1 0x1 PUSH1 0x1 PUSH1 0xA0 SHL SUB DUP3 AND PUSH2 0x5200 JUMPI PUSH1 0x40 MLOAD PUSH3 0x461BCD PUSH1 0xE5 SHL DUP2 MSTORE PUSH1 0x4 ADD PUSH2 0xCFE SWAP1 PUSH2 0x7C5D JUMP JUMPDEST DUP1 MLOAD PUSH1 0x20 DUP1 DUP4 ADD SWAP2 SWAP1 SWAP2 KECCAK256 PUSH1 0x40 DUP1 MLOAD DUP1 DUP3 ADD SWAP1 SWAP2 MSTORE PUSH1 0x5 DUP2 MSTORE PUSH5 0x37BBB732B9 PUSH1 0xD9 SHL SWAP3 ADD SWAP2 SWAP1 SWAP2 MSTORE PUSH32 0x2016836A56B71F0D02689E69E326F4F4C1B9057164EF592671CF0D37C8040C0 DUP2 EQ DUP1 PUSH2 0x5288 JUMPI POP PUSH1 0x40 DUP1 MLOAD DUP1 DUP3 ADD SWAP1 SWAP2 MSTORE PUSH1 0xD DUP2 MSTORE PUSH13 0x30B236B4B734B9BA3930BA37B9 PUSH1 0x99 SHL PUSH1 0x20 SWAP1 SWAP2 ADD MSTORE PUSH1 0x0 DUP1 MLOAD PUSH1 0x20 PUSH2 0x7EC2 DUP4 CODECOPY DUP2 MLOAD SWAP2 MSTORE DUP2 EQ JUMPDEST DUP1 PUSH2 0x52D0 JUMPI POP PUSH1 0x40 DUP1 MLOAD DUP1 DUP3 ADD SWAP1 SWAP2 MSTORE PUSH1 0x6 DUP2 MSTORE PUSH6 0x3B34B2BBB2B9 PUSH1 0xD1 SHL PUSH1 0x20 SWAP1 SWAP2 ADD MSTORE PUSH32 0x120310A1203E5851B63A4D0B2C5643D3FBA07783D2B04D7222298A1ED22E1E0D DUP2 EQ JUMPDEST PUSH2 0x52EC JUMPI PUSH1 0x40 MLOAD PUSH3 0x461BCD PUSH1 0xE5 SHL DUP2 MSTORE PUSH1 0x4 ADD PUSH2 0xCFE SWAP1 PUSH2 0x7CF0 JUMP JUMPDEST PUSH1 0x0 DUP5 DUP5 PUSH1 0x40 MLOAD PUSH1 0x20 ADD PUSH2 0x5301 SWAP3 SWAP2 SWAP1 PUSH2 0x7A52 JUMP JUMPDEST PUSH1 0x40 MLOAD PUSH1 0x20 DUP2 DUP4 SUB SUB DUP2 MSTORE SWAP1 PUSH1 0x40 MSTORE DUP1 MLOAD SWAP1 PUSH1 0x20 ADD KECCAK256 SWAP1 POP PUSH1 0x0 PUSH1 0x4 PUSH1 0x0 DUP4 DUP2 MSTORE PUSH1 0x20 ADD SWAP1 DUP2 MSTORE PUSH1 0x20 ADD PUSH1 0x0 KECCAK256 PUSH1 0x40 MLOAD DUP1 PUSH1 0xE0 ADD PUSH1 0x40 MSTORE SWAP1 DUP2 PUSH1 0x0 DUP3 ADD DUP1 SLOAD PUSH2 0x5349 SWAP1 PUSH2 0x793D JUMP JUMPDEST DUP1 PUSH1 0x1F ADD PUSH1 0x20 DUP1 SWAP2 DIV MUL PUSH1 0x20 ADD PUSH1 0x40 MLOAD SWAP1 DUP2 ADD PUSH1 0x40 MSTORE DUP1 SWAP3 SWAP2 SWAP1 DUP2 DUP2 MSTORE PUSH1 0x20 ADD DUP3 DUP1 SLOAD PUSH2 0x5375 SWAP1 PUSH2 0x793D JUMP JUMPDEST DUP1 ISZERO PUSH2 0x53C2 JUMPI DUP1 PUSH1 0x1F LT PUSH2 0x5397 JUMPI PUSH2 0x100 DUP1 DUP4 SLOAD DIV MUL DUP4 MSTORE SWAP2 PUSH1 0x20 ADD SWAP2 PUSH2 0x53C2 JUMP JUMPDEST DUP3 ADD SWAP2 SWAP1 PUSH1 0x0 MSTORE PUSH1 0x20 PUSH1 0x0 KECCAK256 SWAP1 JUMPDEST DUP2 SLOAD DUP2 MSTORE SWAP1 PUSH1 0x1 ADD SWAP1 PUSH1 0x20 ADD DUP1 DUP4 GT PUSH2 0x53A5 JUMPI DUP3 SWAP1 SUB PUSH1 0x1F AND DUP3 ADD SWAP2 JUMPDEST POP POP POP SWAP2 DUP4 MSTORE POP POP PUSH1 0x1 DUP3 ADD SLOAD PUSH1 0x1 PUSH1 0x1 PUSH1 0xA0 SHL SUB AND PUSH1 0x20 DUP3 ADD MSTORE PUSH1 0x2 DUP3 ADD DUP1 SLOAD PUSH1 0x40 SWAP1 SWAP3 ADD SWAP2 PUSH2 0x53F2 SWAP1 PUSH2 0x793D JUMP JUMPDEST DUP1 PUSH1 0x1F ADD PUSH1 0x20 DUP1 SWAP2 DIV MUL PUSH1 0x20 ADD PUSH1 0x40 MLOAD SWAP1 DUP2 ADD PUSH1 0x40 MSTORE DUP1 SWAP3 SWAP2 SWAP1 DUP2 DUP2 MSTORE PUSH1 0x20 ADD DUP3 DUP1 SLOAD PUSH2 0x541E SWAP1 PUSH2 0x793D JUMP JUMPDEST DUP1 ISZERO PUSH2 0x546B JUMPI DUP1 PUSH1 0x1F LT PUSH2 0x5440 JUMPI PUSH2 0x100 DUP1 DUP4 SLOAD DIV MUL DUP4 MSTORE SWAP2 PUSH1 0x20 ADD SWAP2 PUSH2 0x546B JUMP JUMPDEST DUP3 ADD SWAP2 SWAP1 PUSH1 0x0 MSTORE PUSH1 0x20 PUSH1 0x0 KECCAK256 SWAP1 JUMPDEST DUP2 SLOAD DUP2 MSTORE SWAP1 PUSH1 0x1 ADD SWAP1 PUSH1 0x20 ADD DUP1 DUP4 GT PUSH2 0x544E JUMPI DUP3 SWAP1 SUB PUSH1 0x1F AND DUP3 ADD SWAP2 JUMPDEST POP POP POP SWAP2 DUP4 MSTORE POP POP PUSH1 0x3 DUP3 ADD SLOAD PUSH1 0x20 DUP3 ADD MSTORE PUSH1 0x4 DUP3 ADD SLOAD PUSH1 0x40 DUP3 ADD MSTORE PUSH1 0x5 SWAP1 SWAP2 ADD SLOAD PUSH1 0x1 PUSH1 0x1 PUSH1 0xA0 SHL SUB DUP2 AND PUSH1 0x60 DUP4 ADD MSTORE PUSH1 0x1 PUSH1 0xA0 SHL SWAP1 DIV PUSH1 0xFF AND ISZERO ISZERO PUSH1 0x80 SWAP1 SWAP2 ADD MSTORE PUSH1 0xC0 DUP2 ADD MLOAD SWAP1 SWAP2 POP PUSH2 0x54D2 JUMPI PUSH1 0x40 MLOAD PUSH3 0x461BCD PUSH1 0xE5 SHL DUP2 MSTORE PUSH1 0x4 ADD PUSH2 0xCFE SWAP1 PUSH2 0x7C94 JUMP JUMPDEST PUSH1 0x40 DUP2 ADD MLOAD DUP1 MLOAD PUSH1 0x20 DUP3 ADD KECCAK256 DUP5 DUP2 SUB PUSH2 0x552D JUMPI PUSH1 0x40 MLOAD PUSH3 0x461BCD PUSH1 0xE5 SHL DUP2 MSTORE PUSH1 0x20 PUSH1 0x4 DUP3 ADD MSTORE PUSH1 0x1A PUSH1 0x24 DUP3 ADD MSTORE PUSH32 0x5573657220616C726561647920686173207468697320726F6C65000000000000 PUSH1 0x44 DUP3 ADD MSTORE PUSH1 0x64 ADD PUSH2 0xCFE JUMP JUMPDEST PUSH1 0x40 DUP1 MLOAD DUP1 DUP3 ADD SWAP1 SWAP2 MSTORE PUSH1 0x5 DUP2 MSTORE PUSH5 0x37BBB732B9 PUSH1 0xD9 SHL PUSH1 0x20 SWAP1 SWAP2 ADD MSTORE PUSH1 0x0 DUP1 MLOAD PUSH1 0x20 PUSH2 0x7EA2 DUP4 CODECOPY DUP2 MLOAD SWAP2 MSTORE DUP2 ADD PUSH2 0x55D9 JUMPI PUSH1 0x40 MLOAD PUSH3 0x461BCD PUSH1 0xE5 SHL DUP2 MSTORE PUSH1 0x20 PUSH1 0x4 DUP3 ADD MSTORE PUSH1 0x43 PUSH1 0x24 DUP3 ADD MSTORE PUSH32 0x4F776E6572732063616E6E6F742062652064656D6F7465642E204F776E657220 PUSH1 0x44 DUP3 ADD MSTORE PUSH32 0x6D75737420766F6C756E746172696C792072656D6F7665207468656D73656C76 PUSH1 0x64 DUP3 ADD MSTORE PUSH3 0x32B997 PUSH1 0xE9 SHL PUSH1 0x84 DUP3 ADD MSTORE PUSH1 0xA4 ADD PUSH2 0xCFE JUMP JUMPDEST PUSH1 0x0 DUP1 PUSH1 0x5 DUP11 PUSH1 0x40 MLOAD PUSH2 0x55EC SWAP2 SWAP1 PUSH2 0x7977 JUMP JUMPDEST SWAP1 DUP2 MSTORE PUSH1 0x20 ADD PUSH1 0x40 MLOAD DUP1 SWAP2 SUB SWAP1 KECCAK256 DUP1 SLOAD SWAP1 POP GT SWAP1 POP PUSH1 0x0 PUSH2 0x562B DUP11 CALLER PUSH1 0x40 MLOAD DUP1 PUSH1 0x40 ADD PUSH1 0x40 MSTORE DUP1 PUSH1 0x5 DUP2 MSTORE PUSH1 0x20 ADD PUSH5 0x37BBB732B9 PUSH1 0xD9 SHL DUP2 MSTORE POP PUSH2 0x66D2 JUMP JUMPDEST SWAP1 POP PUSH1 0x0 PUSH2 0x565F DUP12 CALLER PUSH1 0x40 MLOAD DUP1 PUSH1 0x40 ADD PUSH1 0x40 MSTORE DUP1 PUSH1 0xD DUP2 MSTORE PUSH1 0x20 ADD PUSH13 0x30B236B4B734B9BA3930BA37B9 PUSH1 0x99 SHL DUP2 MSTORE POP PUSH2 0x66D2 JUMP JUMPDEST PUSH1 0x40 DUP1 MLOAD DUP1 DUP3 ADD SWAP1 SWAP2 MSTORE PUSH1 0x5 DUP2 MSTORE PUSH5 0x37BBB732B9 PUSH1 0xD9 SHL PUSH1 0x20 SWAP1 SWAP2 ADD MSTORE SWAP1 POP CALLER PUSH1 0x1 PUSH1 0x1 PUSH1 0xA0 SHL SUB DUP12 AND EQ PUSH1 0x0 DUP1 MLOAD PUSH1 0x20 PUSH2 0x7EA2 DUP4 CODECOPY DUP2 MLOAD SWAP2 MSTORE DUP10 ADD PUSH2 0x5758 JUMPI DUP4 ISZERO PUSH2 0x56F7 JUMPI DUP3 PUSH2 0x56F2 JUMPI PUSH1 0x40 MLOAD PUSH3 0x461BCD PUSH1 0xE5 SHL DUP2 MSTORE PUSH1 0x20 PUSH1 0x4 DUP3 ADD DUP2 SWAP1 MSTORE PUSH1 0x24 DUP3 ADD MSTORE PUSH32 0x4F6E6C79206F776E6572732063616E2070726F6D6F746520746F206F776E6572 PUSH1 0x44 DUP3 ADD MSTORE PUSH1 0x64 ADD PUSH2 0xCFE JUMP JUMPDEST PUSH2 0x5927 JUMP JUMPDEST DUP2 PUSH2 0x56F2 JUMPI PUSH1 0x40 MLOAD PUSH3 0x461BCD PUSH1 0xE5 SHL DUP2 MSTORE PUSH1 0x20 PUSH1 0x4 DUP3 ADD MSTORE PUSH1 0x2B PUSH1 0x24 DUP3 ADD MSTORE PUSH32 0x4F6E6C792061646D696E6973747261746F72732063616E2070726F6D6F746520 PUSH1 0x44 DUP3 ADD MSTORE PUSH11 0x3334B939BA1037BBB732B9 PUSH1 0xA9 SHL PUSH1 0x64 DUP3 ADD MSTORE PUSH1 0x84 ADD PUSH2 0xCFE JUMP JUMPDEST PUSH1 0x40 DUP1 MLOAD DUP1 DUP3 ADD SWAP1 SWAP2 MSTORE PUSH1 0xD DUP2 MSTORE PUSH13 0x30B236B4B734B9BA3930BA37B9 PUSH1 0x99 SHL PUSH1 0x20 SWAP1 SWAP2 ADD MSTORE PUSH1 0x0 DUP1 MLOAD PUSH1 0x20 PUSH2 0x7EE2 DUP4 CODECOPY DUP2 MLOAD SWAP2 MSTORE DUP10 ADD PUSH2 0x57FB JUMPI DUP3 DUP1 PUSH2 0x579B JUMPI POP DUP2 JUMPDEST PUSH2 0x56F2 JUMPI PUSH1 0x40 MLOAD PUSH3 0x461BCD PUSH1 0xE5 SHL DUP2 MSTORE PUSH1 0x20 PUSH1 0x4 DUP3 ADD MSTORE PUSH1 0x3B PUSH1 0x24 DUP3 ADD MSTORE PUSH1 0x0 DUP1 MLOAD PUSH1 0x20 PUSH2 0x7E62 DUP4 CODECOPY DUP2 MLOAD SWAP2 MSTORE PUSH1 0x44 DUP3 ADD MSTORE PUSH32 0x616E2070726F6D6F746520746F2061646D696E6973747261746F720000000000 PUSH1 0x64 DUP3 ADD MSTORE PUSH1 0x84 ADD PUSH2 0xCFE JUMP JUMPDEST PUSH1 0x40 DUP1 MLOAD DUP1 DUP3 ADD SWAP1 SWAP2 MSTORE PUSH1 0x6 DUP2 MSTORE PUSH6 0x3B34B2BBB2B9 PUSH1 0xD1 SHL PUSH1 0x20 SWAP1 SWAP2 ADD MSTORE PUSH1 0x0 DUP1 MLOAD PUSH1 0x20 PUSH2 0x7E82 DUP4 CODECOPY DUP2 MLOAD SWAP2 MSTORE DUP10 ADD PUSH2 0x5927 JUMPI DUP4 ISZERO PUSH2 0x58C9 JUMPI DUP3 DUP1 PUSH2 0x5845 JUMPI POP DUP2 DUP1 ISZERO PUSH2 0x5845 JUMPI POP DUP1 JUMPDEST PUSH2 0x56F2 JUMPI PUSH1 0x40 MLOAD PUSH3 0x461BCD PUSH1 0xE5 SHL DUP2 MSTORE PUSH1 0x20 PUSH1 0x4 DUP3 ADD MSTORE PUSH1 0x49 PUSH1 0x24 DUP3 ADD MSTORE PUSH32 0x4F6E6C79206F776E6572732063616E2064656D6F7465206F74686572732E2041 PUSH1 0x44 DUP3 ADD MSTORE PUSH32 0x646D696E6973747261746F72732063616E206F6E6C792064656D6F7465207468 PUSH1 0x64 DUP3 ADD MSTORE PUSH9 0x32B6B9B2B63B32B997 PUSH1 0xB9 SHL PUSH1 0x84 DUP3 ADD MSTORE PUSH1 0xA4 ADD PUSH2 0xCFE JUMP JUMPDEST DUP2 PUSH2 0x5927 JUMPI PUSH1 0x40 MLOAD PUSH3 0x461BCD PUSH1 0xE5 SHL DUP2 MSTORE PUSH1 0x20 PUSH1 0x4 DUP3 ADD MSTORE PUSH1 0x28 PUSH1 0x24 DUP3 ADD MSTORE PUSH32 0x4F6E6C792061646D696E6973747261746F72732063616E2064656D6F74652074 PUSH1 0x44 DUP3 ADD MSTORE PUSH8 0x37903B34B2BBB2B9 PUSH1 0xC1 SHL PUSH1 0x64 DUP3 ADD MSTORE PUSH1 0x84 ADD PUSH2 0xCFE JUMP JUMPDEST PUSH1 0x40 DUP1 MLOAD DUP1 DUP3 ADD SWAP1 SWAP2 MSTORE PUSH1 0xD DUP2 MSTORE PUSH13 0x30B236B4B734B9BA3930BA37B9 PUSH1 0x99 SHL PUSH1 0x20 SWAP1 SWAP2 ADD MSTORE PUSH1 0x0 DUP1 MLOAD PUSH1 0x20 PUSH2 0x7EC2 DUP4 CODECOPY DUP2 MLOAD SWAP2 MSTORE DUP6 EQ DUP1 ISZERO PUSH2 0x59A6 JUMPI POP PUSH1 0x40 DUP1 MLOAD DUP1 DUP3 ADD SWAP1 SWAP2 MSTORE PUSH1 0x6 DUP2 MSTORE PUSH6 0x3B34B2BBB2B9 PUSH1 0xD1 SHL PUSH1 0x20 SWAP1 SWAP2 ADD MSTORE PUSH32 0x120310A1203E5851B63A4D0B2C5643D3FBA07783D2B04D7222298A1ED22E1E0D DUP10 EQ JUMPDEST ISZERO PUSH2 0x5A45 JUMPI DUP4 PUSH2 0x5A45 JUMPI PUSH1 0x1 PUSH1 0x6 DUP14 PUSH1 0x40 MLOAD PUSH2 0x59C2 SWAP2 SWAP1 PUSH2 0x7977 JUMP JUMPDEST SWAP1 DUP2 MSTORE PUSH1 0x40 MLOAD SWAP1 DUP2 SWAP1 SUB PUSH1 0x20 ADD SWAP1 KECCAK256 SLOAD GT PUSH2 0x5A45 JUMPI PUSH1 0x40 MLOAD PUSH3 0x461BCD PUSH1 0xE5 SHL DUP2 MSTORE PUSH1 0x20 PUSH1 0x4 DUP3 ADD MSTORE PUSH1 0x39 PUSH1 0x24 DUP3 ADD MSTORE PUSH32 0x43616E6E6F742064656D6F746520746865206C6173742061646D696E69737472 PUSH1 0x44 DUP3 ADD MSTORE PUSH32 0x61746F72207768656E206E6F206F776E65722065786973747300000000000000 PUSH1 0x64 DUP3 ADD MSTORE PUSH1 0x84 ADD PUSH2 0xCFE JUMP JUMPDEST PUSH2 0x5A50 DUP13 DUP13 DUP9 PUSH2 0x68C4 JUMP JUMPDEST PUSH2 0x5A5B DUP13 DUP13 DUP13 PUSH2 0x6BE5 JUMP JUMPDEST PUSH1 0x0 DUP9 DUP2 MSTORE PUSH1 0x4 PUSH1 0x20 MSTORE PUSH1 0x40 SWAP1 KECCAK256 PUSH1 0x2 ADD PUSH2 0x5A76 DUP12 DUP3 PUSH2 0x7B0E JUMP JUMPDEST POP PUSH1 0x0 DUP9 DUP2 MSTORE PUSH1 0x4 PUSH1 0x20 DUP2 SWAP1 MSTORE PUSH1 0x40 SWAP2 DUP3 SWAP1 KECCAK256 TIMESTAMP SWAP2 ADD SSTORE MLOAD CALLER SWAP1 PUSH1 0x1 PUSH1 0x1 PUSH1 0xA0 SHL SUB DUP14 AND SWAP1 PUSH2 0x5AA6 SWAP1 DUP16 SWAP1 PUSH2 0x7977 JUMP JUMPDEST PUSH1 0x40 MLOAD DUP1 SWAP2 SUB SWAP1 KECCAK256 PUSH32 0xA9B92B2B183A6569CAC9B7675BEA182897AA18A7CA2A6FB370A6F5825633961C DUP10 DUP15 TIMESTAMP PUSH1 0x40 MLOAD PUSH2 0x5AE1 SWAP4 SWAP3 SWAP2 SWAP1 PUSH2 0x7D46 JUMP JUMPDEST PUSH1 0x40 MLOAD DUP1 SWAP2 SUB SWAP1 LOG4 POP POP POP POP POP POP POP POP POP POP POP POP JUMP JUMPDEST DUP2 MLOAD PUSH1 0x20 DUP2 DUP5 ADD DUP2 ADD DUP1 MLOAD PUSH1 0x10 DUP3 MSTORE SWAP3 DUP3 ADD SWAP2 DUP6 ADD SWAP2 SWAP1 SWAP2 KECCAK256 SWAP2 SWAP1 MSTORE DUP1 SLOAD DUP3 SWAP1 DUP2 LT PUSH2 0xBFB JUMPI PUSH1 0x0 DUP1 REVERT JUMPDEST DUP2 MLOAD PUSH1 0x20 DUP2 DUP5 ADD DUP2 ADD DUP1 MLOAD PUSH1 0x6 DUP3 MSTORE SWAP3 DUP3 ADD SWAP2 DUP6 ADD SWAP2 SWAP1 SWAP2 KECCAK256 SWAP2 SWAP1 MSTORE DUP1 SLOAD DUP3 SWAP1 DUP2 LT PUSH2 0x384B JUMPI PUSH1 0x0 DUP1 REVERT JUMPDEST PUSH1 0x60 PUSH1 0x0 DUP1 PUSH1 0x0 DUP1 PUSH1 0x0 DUP8 DUP8 PUSH1 0x40 MLOAD PUSH1 0x20 ADD PUSH2 0x5B6A SWAP3 SWAP2 SWAP1 PUSH2 0x7A52 JUMP JUMPDEST PUSH1 0x40 MLOAD PUSH1 0x20 DUP2 DUP4 SUB SUB DUP2 MSTORE SWAP1 PUSH1 0x40 MSTORE DUP1 MLOAD SWAP1 PUSH1 0x20 ADD KECCAK256 SWAP1 POP PUSH1 0x0 PUSH1 0x4 PUSH1 0x0 DUP4 DUP2 MSTORE PUSH1 0x20 ADD SWAP1 DUP2 MSTORE PUSH1 0x20 ADD PUSH1 0x0 KECCAK256 PUSH1 0x40 MLOAD DUP1 PUSH1 0xE0 ADD PUSH1 0x40 MSTORE SWAP1 DUP2 PUSH1 0x0 DUP3 ADD DUP1 SLOAD PUSH2 0x5BB2 SWAP1 PUSH2 0x793D JUMP JUMPDEST DUP1 PUSH1 0x1F ADD PUSH1 0x20 DUP1 SWAP2 DIV MUL PUSH1 0x20 ADD PUSH1 0x40 MLOAD SWAP1 DUP2 ADD PUSH1 0x40 MSTORE DUP1 SWAP3 SWAP2 SWAP1 DUP2 DUP2 MSTORE PUSH1 0x20 ADD DUP3 DUP1 SLOAD PUSH2 0x5BDE SWAP1 PUSH2 0x793D JUMP JUMPDEST DUP1 ISZERO PUSH2 0x5C2B JUMPI DUP1 PUSH1 0x1F LT PUSH2 0x5C00 JUMPI PUSH2 0x100 DUP1 DUP4 SLOAD DIV MUL DUP4 MSTORE SWAP2 PUSH1 0x20 ADD SWAP2 PUSH2 0x5C2B JUMP JUMPDEST DUP3 ADD SWAP2 SWAP1 PUSH1 0x0 MSTORE PUSH1 0x20 PUSH1 0x0 KECCAK256 SWAP1 JUMPDEST DUP2 SLOAD DUP2 MSTORE SWAP1 PUSH1 0x1 ADD SWAP1 PUSH1 0x20 ADD DUP1 DUP4 GT PUSH2 0x5C0E JUMPI DUP3 SWAP1 SUB PUSH1 0x1F AND DUP3 ADD SWAP2 JUMPDEST POP POP POP SWAP2 DUP4 MSTORE POP POP PUSH1 0x1 DUP3 ADD SLOAD PUSH1 0x1 PUSH1 0x1 PUSH1 0xA0 SHL SUB AND PUSH1 0x20 DUP3 ADD MSTORE PUSH1 0x2 DUP3 ADD DUP1 SLOAD PUSH1 0x40 SWAP1 SWAP3 ADD SWAP2 PUSH2 0x5C5B SWAP1 PUSH2 0x793D JUMP JUMPDEST DUP1 PUSH1 0x1F ADD PUSH1 0x20 DUP1 SWAP2 DIV MUL PUSH1 0x20 ADD PUSH1 0x40 MLOAD SWAP1 DUP2 ADD PUSH1 0x40 MSTORE DUP1 SWAP3 SWAP2 SWAP1 DUP2 DUP2 MSTORE PUSH1 0x20 ADD DUP3 DUP1 SLOAD PUSH2 0x5C87 SWAP1 PUSH2 0x793D JUMP JUMPDEST DUP1 ISZERO PUSH2 0x5CD4 JUMPI DUP1 PUSH1 0x1F LT PUSH2 0x5CA9 JUMPI PUSH2 0x100 DUP1 DUP4 SLOAD DIV MUL DUP4 MSTORE SWAP2 PUSH1 0x20 ADD SWAP2 PUSH2 0x5CD4 JUMP JUMPDEST DUP3 ADD SWAP2 SWAP1 PUSH1 0x0 MSTORE PUSH1 0x20 PUSH1 0x0 KECCAK256 SWAP1 JUMPDEST DUP2 SLOAD DUP2 MSTORE SWAP1 PUSH1 0x1 ADD SWAP1 PUSH1 0x20 ADD DUP1 DUP4 GT PUSH2 0x5CB7 JUMPI DUP3 SWAP1 SUB PUSH1 0x1F AND DUP3 ADD SWAP2 JUMPDEST POP POP POP SWAP2 DUP4 MSTORE POP POP PUSH1 0x3 DUP3 ADD SLOAD PUSH1 0x20 DUP3 ADD MSTORE PUSH1 0x4 DUP3 ADD SLOAD PUSH1 0x40 DUP1 DUP4 ADD SWAP2 SWAP1 SWAP2 MSTORE PUSH1 0x5 SWAP1 SWAP3 ADD SLOAD PUSH1 0x1 PUSH1 0x1 PUSH1 0xA0 SHL SUB DUP2 AND PUSH1 0x60 DUP1 DUP5 ADD SWAP2 SWAP1 SWAP2 MSTORE PUSH1 0x1 PUSH1 0xA0 SHL SWAP1 SWAP2 DIV PUSH1 0xFF AND ISZERO ISZERO PUSH1 0x80 SWAP3 DUP4 ADD MSTORE SWAP2 DUP4 ADD MLOAD SWAP2 DUP4 ADD MLOAD SWAP1 DUP4 ADD MLOAD PUSH1 0xA0 DUP5 ADD MLOAD PUSH1 0xC0 SWAP1 SWAP5 ADD MLOAD SWAP3 SWAP14 SWAP2 SWAP13 POP SWAP11 POP SWAP2 SWAP9 POP SWAP7 POP SWAP5 POP POP POP POP POP JUMP JUMPDEST PUSH1 0x1 PUSH1 0x1 PUSH1 0xA0 SHL SUB DUP2 AND PUSH1 0x0 SWAP1 DUP2 MSTORE PUSH1 0xC PUSH1 0x20 SWAP1 DUP2 MSTORE PUSH1 0x40 DUP1 DUP4 KECCAK256 DUP1 SLOAD DUP3 MLOAD DUP2 DUP6 MUL DUP2 ADD DUP6 ADD SWAP1 SWAP4 MSTORE DUP1 DUP4 MSTORE PUSH1 0x60 SWAP5 SWAP3 SWAP4 SWAP2 SWAP3 SWAP1 SWAP2 DUP5 ADD JUMPDEST DUP3 DUP3 LT ISZERO PUSH2 0x1164 JUMPI DUP4 DUP3 SWAP1 PUSH1 0x0 MSTORE PUSH1 0x20 PUSH1 0x0 KECCAK256 ADD DUP1 SLOAD PUSH2 0x5DA2 SWAP1 PUSH2 0x793D JUMP JUMPDEST DUP1 PUSH1 0x1F ADD PUSH1 0x20 DUP1 SWAP2 DIV MUL PUSH1 0x20 ADD PUSH1 0x40 MLOAD SWAP1 DUP2 ADD PUSH1 0x40 MSTORE DUP1 SWAP3 SWAP2 SWAP1 DUP2 DUP2 MSTORE PUSH1 0x20 ADD DUP3 DUP1 SLOAD PUSH2 0x5DCE SWAP1 PUSH2 0x793D JUMP JUMPDEST DUP1 ISZERO PUSH2 0x5E1B JUMPI DUP1 PUSH1 0x1F LT PUSH2 0x5DF0 JUMPI PUSH2 0x100 DUP1 DUP4 SLOAD DIV MUL DUP4 MSTORE SWAP2 PUSH1 0x20 ADD SWAP2 PUSH2 0x5E1B JUMP JUMPDEST DUP3 ADD SWAP2 SWAP1 PUSH1 0x0 MSTORE PUSH1 0x20 PUSH1 0x0 KECCAK256 SWAP1 JUMPDEST DUP2 SLOAD DUP2 MSTORE SWAP1 PUSH1 0x1 ADD SWAP1 PUSH1 0x20 ADD DUP1 DUP4 GT PUSH2 0x5DFE JUMPI DUP3 SWAP1 SUB PUSH1 0x1F AND DUP3 ADD SWAP2 JUMPDEST POP POP POP POP POP DUP2 MSTORE PUSH1 0x20 ADD SWAP1 PUSH1 0x1 ADD SWAP1 PUSH2 0x5D83 JUMP JUMPDEST PUSH1 0x0 DUP1 PUSH1 0x0 PUSH1 0x60 PUSH1 0x0 DUP1 PUSH1 0x0 PUSH1 0xA DUP9 PUSH1 0x40 MLOAD PUSH2 0x5E4B SWAP2 SWAP1 PUSH2 0x7977 JUMP JUMPDEST SWAP1 DUP2 MSTORE PUSH1 0x20 ADD PUSH1 0x40 MLOAD DUP1 SWAP2 SUB SWAP1 KECCAK256 PUSH1 0x40 MLOAD DUP1 PUSH2 0x100 ADD PUSH1 0x40 MSTORE SWAP1 DUP2 PUSH1 0x0 DUP3 ADD DUP1 SLOAD PUSH2 0x5E75 SWAP1 PUSH2 0x793D JUMP JUMPDEST DUP1 PUSH1 0x1F ADD PUSH1 0x20 DUP1 SWAP2 DIV MUL PUSH1 0x20 ADD PUSH1 0x40 MLOAD SWAP1 DUP2 ADD PUSH1 0x40 MSTORE DUP1 SWAP3 SWAP2 SWAP1 DUP2 DUP2 MSTORE PUSH1 0x20 ADD DUP3 DUP1 SLOAD PUSH2 0x5EA1 SWAP1 PUSH2 0x793D JUMP JUMPDEST DUP1 ISZERO PUSH2 0x5EEE JUMPI DUP1 PUSH1 0x1F LT PUSH2 0x5EC3 JUMPI PUSH2 0x100 DUP1 DUP4 SLOAD DIV MUL DUP4 MSTORE SWAP2 PUSH1 0x20 ADD SWAP2 PUSH2 0x5EEE JUMP JUMPDEST DUP3 ADD SWAP2 SWAP1 PUSH1 0x0 MSTORE PUSH1 0x20 PUSH1 0x0 KECCAK256 SWAP1 JUMPDEST DUP2 SLOAD DUP2 MSTORE SWAP1 PUSH1 0x1 ADD SWAP1 PUSH1 0x20 ADD DUP1 DUP4 GT PUSH2 0x5ED1 JUMPI DUP3 SWAP1 SUB PUSH1 0x1F AND DUP3 ADD SWAP2 JUMPDEST POP POP POP SWAP2 DUP4 MSTORE POP POP PUSH1 0x1 DUP3 ADD SLOAD PUSH1 0x1 PUSH1 0x1 PUSH1 0xA0 SHL SUB SWAP1 DUP2 AND PUSH1 0x20 DUP4 ADD MSTORE PUSH1 0x2 DUP4 ADD SLOAD AND PUSH1 0x40 DUP3 ADD MSTORE PUSH1 0x3 DUP3 ADD DUP1 SLOAD PUSH1 0x60 SWAP1 SWAP3 ADD SWAP2 PUSH2 0x5F2B SWAP1 PUSH2 0x793D JUMP JUMPDEST DUP1 PUSH1 0x1F ADD PUSH1 0x20 DUP1 SWAP2 DIV MUL PUSH1 0x20 ADD PUSH1 0x40 MLOAD SWAP1 DUP2 ADD PUSH1 0x40 MSTORE DUP1 SWAP3 SWAP2 SWAP1 DUP2 DUP2 MSTORE PUSH1 0x20 ADD DUP3 DUP1 SLOAD PUSH2 0x5F57 SWAP1 PUSH2 0x793D JUMP JUMPDEST DUP1 ISZERO PUSH2 0x5FA4 JUMPI DUP1 PUSH1 0x1F LT PUSH2 0x5F79 JUMPI PUSH2 0x100 DUP1 DUP4 SLOAD DIV MUL DUP4 MSTORE SWAP2 PUSH1 0x20 ADD SWAP2 PUSH2 0x5FA4 JUMP JUMPDEST DUP3 ADD SWAP2 SWAP1 PUSH1 0x0 MSTORE PUSH1 0x20 PUSH1 0x0 KECCAK256 SWAP1 JUMPDEST DUP2 SLOAD DUP2 MSTORE SWAP1 PUSH1 0x1 ADD SWAP1 PUSH1 0x20 ADD DUP1 DUP4 GT PUSH2 0x5F87 JUMPI DUP3 SWAP1 SUB PUSH1 0x1F AND DUP3 ADD SWAP2 JUMPDEST POP POP POP SWAP2 DUP4 MSTORE POP POP PUSH1 0x4 DUP3 ADD SLOAD PUSH1 0x20 DUP1 DUP4 ADD SWAP2 SWAP1 SWAP2 MSTORE PUSH1 0x5 DUP4 ADD SLOAD PUSH1 0x40 DUP1 DUP5 ADD SWAP2 SWAP1 SWAP2 MSTORE PUSH1 0x6 SWAP1 SWAP4 ADD SLOAD PUSH1 0xFF DUP1 DUP3 AND ISZERO ISZERO PUSH1 0x60 DUP1 DUP7 ADD SWAP2 SWAP1 SWAP2 MSTORE PUSH2 0x100 SWAP1 SWAP3 DIV AND ISZERO ISZERO PUSH1 0x80 SWAP4 DUP5 ADD MSTORE PUSH1 0xC0 DUP6 ADD MLOAD SWAP2 DUP6 ADD MLOAD SWAP4 DUP6 ADD MLOAD SWAP1 DUP6 ADD MLOAD SWAP3 DUP6 ADD MLOAD PUSH1 0xA0 SWAP1 SWAP6 ADD MLOAD SWAP2 SWAP14 SWAP4 SWAP13 POP SWAP11 POP SWAP1 SWAP9 POP SWAP2 SWAP7 POP SWAP1 SWAP5 POP SWAP3 POP POP POP JUMP JUMPDEST PUSH1 0xA DUP2 PUSH1 0x40 MLOAD PUSH2 0x602E SWAP2 SWAP1 PUSH2 0x7977 JUMP JUMPDEST SWAP1 DUP2 MSTORE PUSH1 0x40 MLOAD SWAP1 DUP2 SWAP1 SUB PUSH1 0x20 ADD SWAP1 KECCAK256 PUSH1 0x6 ADD SLOAD PUSH1 0xFF PUSH2 0x100 SWAP1 SWAP2 DIV AND PUSH2 0x6096 JUMPI PUSH1 0x40 MLOAD PUSH3 0x461BCD PUSH1 0xE5 SHL DUP2 MSTORE PUSH1 0x20 PUSH1 0x4 DUP3 ADD MSTORE PUSH1 0x19 PUSH1 0x24 DUP3 ADD MSTORE PUSH32 0x5065726D697373696F6E20646F6573206E6F7420657869737400000000000000 PUSH1 0x44 DUP3 ADD MSTORE PUSH1 0x64 ADD PUSH2 0xCFE JUMP JUMPDEST PUSH1 0xA DUP2 PUSH1 0x40 MLOAD PUSH2 0x60A6 SWAP2 SWAP1 PUSH2 0x7977 JUMP JUMPDEST SWAP1 DUP2 MSTORE PUSH1 0x40 MLOAD SWAP1 DUP2 SWAP1 SUB PUSH1 0x20 ADD SWAP1 KECCAK256 PUSH1 0x6 ADD SLOAD PUSH1 0xFF AND PUSH2 0x60FA JUMPI PUSH1 0x40 MLOAD PUSH3 0x461BCD PUSH1 0xE5 SHL DUP2 MSTORE PUSH1 0x20 PUSH1 0x4 DUP3 ADD MSTORE PUSH1 0xF PUSH1 0x24 DUP3 ADD MSTORE PUSH15 0x105B1C9958591E481C995D9BDAD959 PUSH1 0x8A SHL PUSH1 0x44 DUP3 ADD MSTORE PUSH1 0x64 ADD PUSH2 0xCFE JUMP JUMPDEST PUSH1 0x0 PUSH1 0xA DUP3 PUSH1 0x40 MLOAD PUSH2 0x610C SWAP2 SWAP1 PUSH2 0x7977 JUMP JUMPDEST SWAP1 DUP2 MSTORE PUSH1 0x40 MLOAD SWAP1 DUP2 SWAP1 SUB PUSH1 0x20 ADD DUP2 KECCAK256 PUSH1 0x6 ADD DUP1 SLOAD SWAP3 ISZERO ISZERO PUSH1 0xFF NOT SWAP1 SWAP4 AND SWAP3 SWAP1 SWAP3 OR SWAP1 SWAP2 SSTORE TIMESTAMP SWAP1 PUSH1 0xA SWAP1 PUSH2 0x6140 SWAP1 DUP5 SWAP1 PUSH2 0x7977 JUMP JUMPDEST SWAP1 DUP2 MSTORE PUSH1 0x20 ADD PUSH1 0x40 MLOAD DUP1 SWAP2 SUB SWAP1 KECCAK256 PUSH1 0x5 ADD DUP2 SWAP1 SSTORE POP PUSH1 0xA DUP2 PUSH1 0x40 MLOAD PUSH2 0x6165 SWAP2 SWAP1 PUSH2 0x7977 JUMP JUMPDEST SWAP1 DUP2 MSTORE PUSH1 0x40 MLOAD SWAP1 DUP2 SWAP1 SUB PUSH1 0x20 ADD DUP2 KECCAK256 PUSH1 0x2 ADD SLOAD PUSH1 0x1 PUSH1 0x1 PUSH1 0xA0 SHL SUB AND SWAP1 CALLER SWAP1 PUSH2 0x618F SWAP1 DUP5 SWAP1 PUSH2 0x7977 JUMP JUMPDEST PUSH1 0x40 MLOAD DUP1 SWAP2 SUB SWAP1 KECCAK256 PUSH32 0x24303533397C7C9C44F2C956200064D35C3459320DDCC9EFEEA95E384763BCEB PUSH1 0xA DUP6 PUSH1 0x40 MLOAD PUSH2 0x61C8 SWAP2 SWAP1 PUSH2 0x7977 JUMP JUMPDEST SWAP1 DUP2 MSTORE PUSH1 0x20 ADD PUSH1 0x40 MLOAD DUP1 SWAP2 SUB SWAP1 KECCAK256 PUSH1 0x3 ADD TIMESTAMP PUSH1 0x40 MLOAD PUSH2 0x61E8 SWAP3 SWAP2 SWAP1 PUSH2 0x7D7C JUMP JUMPDEST PUSH1 0x40 MLOAD DUP1 SWAP2 SUB SWAP1 LOG4 POP JUMP JUMPDEST PUSH1 0xE DUP6 PUSH1 0x40 MLOAD PUSH2 0x6203 SWAP2 SWAP1 PUSH2 0x7977 JUMP JUMPDEST SWAP1 DUP2 MSTORE PUSH1 0x40 MLOAD SWAP1 DUP2 SWAP1 SUB PUSH1 0x20 ADD SWAP1 KECCAK256 PUSH1 0x4 ADD SLOAD PUSH1 0xFF PUSH1 0x1 PUSH1 0xA0 SHL SWAP1 SWAP2 DIV AND PUSH2 0x623D JUMPI PUSH1 0x40 MLOAD PUSH3 0x461BCD PUSH1 0xE5 SHL DUP2 MSTORE PUSH1 0x4 ADD PUSH2 0xCFE SWAP1 PUSH2 0x7993 JUMP JUMPDEST PUSH1 0x0 PUSH1 0xE DUP7 PUSH1 0x40 MLOAD PUSH2 0x624F SWAP2 SWAP1 PUSH2 0x7977 JUMP JUMPDEST SWAP1 DUP2 MSTORE PUSH1 0x20 ADD PUSH1 0x40 MLOAD DUP1 SWAP2 SUB SWAP1 KECCAK256 PUSH1 0x1 ADD DUP1 SLOAD PUSH2 0x626B SWAP1 PUSH2 0x793D JUMP JUMPDEST DUP1 PUSH1 0x1F ADD PUSH1 0x20 DUP1 SWAP2 DIV MUL PUSH1 0x20 ADD PUSH1 0x40 MLOAD SWAP1 DUP2 ADD PUSH1 0x40 MSTORE DUP1 SWAP3 SWAP2 SWAP1 DUP2 DUP2 MSTORE PUSH1 0x20 ADD DUP3 DUP1 SLOAD PUSH2 0x6297 SWAP1 PUSH2 0x793D JUMP JUMPDEST DUP1 ISZERO PUSH2 0x62E4 JUMPI DUP1 PUSH1 0x1F LT PUSH2 0x62B9 JUMPI PUSH2 0x100 DUP1 DUP4 SLOAD DIV MUL DUP4 MSTORE SWAP2 PUSH1 0x20 ADD SWAP2 PUSH2 0x62E4 JUMP JUMPDEST DUP3 ADD SWAP2 SWAP1 PUSH1 0x0 MSTORE PUSH1 0x20 PUSH1 0x0 KECCAK256 SWAP1 JUMPDEST DUP2 SLOAD DUP2 MSTORE SWAP1 PUSH1 0x1 ADD SWAP1 PUSH1 0x20 ADD DUP1 DUP4 GT PUSH2 0x62C7 JUMPI DUP3 SWAP1 SUB PUSH1 0x1F AND DUP3 ADD SWAP2 JUMPDEST POP POP POP POP POP SWAP1 POP PUSH1 0x0 DUP2 CALLER PUSH1 0x40 MLOAD PUSH1 0x20 ADD PUSH2 0x6300 SWAP3 SWAP2 SWAP1 PUSH2 0x7A52 JUMP JUMPDEST PUSH1 0x40 DUP1 MLOAD DUP1 DUP4 SUB PUSH1 0x1F NOT ADD DUP2 MSTORE SWAP2 DUP2 MSTORE DUP2 MLOAD PUSH1 0x20 SWAP3 DUP4 ADD KECCAK256 PUSH1 0x0 DUP2 DUP2 MSTORE PUSH1 0x4 SWAP1 SWAP4 MSTORE SWAP2 KECCAK256 PUSH1 0x5 ADD SLOAD SWAP1 SWAP2 POP PUSH1 0x1 PUSH1 0xA0 SHL SWAP1 DIV PUSH1 0xFF AND PUSH2 0x6351 JUMPI PUSH1 0x40 MLOAD PUSH3 0x461BCD PUSH1 0xE5 SHL DUP2 MSTORE PUSH1 0x4 ADD PUSH2 0xCFE SWAP1 PUSH2 0x7A89 JUMP JUMPDEST PUSH1 0x13 DUP8 PUSH1 0x40 MLOAD PUSH2 0x6361 SWAP2 SWAP1 PUSH2 0x7977 JUMP JUMPDEST SWAP1 DUP2 MSTORE PUSH1 0x40 DUP1 MLOAD PUSH1 0x20 SWAP3 DUP2 SWAP1 SUB DUP4 ADD SWAP1 KECCAK256 CALLER PUSH1 0x0 SWAP1 DUP2 MSTORE SWAP3 MSTORE SWAP1 KECCAK256 SLOAD PUSH1 0xFF AND ISZERO PUSH2 0x63CD JUMPI PUSH1 0x40 MLOAD PUSH3 0x461BCD PUSH1 0xE5 SHL DUP2 MSTORE PUSH1 0x20 PUSH1 0x4 DUP3 ADD MSTORE PUSH1 0x1C PUSH1 0x24 DUP3 ADD MSTORE PUSH32 0x416C72656164792072657669657765642074686973207265636F726400000000 PUSH1 0x44 DUP3 ADD MSTORE PUSH1 0x64 ADD PUSH2 0xCFE JUMP JUMPDEST PUSH1 0x0 PUSH1 0x12 DUP9 PUSH1 0x40 MLOAD PUSH2 0x63DF SWAP2 SWAP1 PUSH2 0x7977 JUMP JUMPDEST SWAP1 DUP2 MSTORE PUSH1 0x40 MLOAD SWAP1 DUP2 SWAP1 SUB PUSH1 0x20 ADD DUP2 KECCAK256 SLOAD SWAP2 POP PUSH1 0x12 SWAP1 PUSH2 0x63FF SWAP1 DUP11 SWAP1 PUSH2 0x7977 JUMP JUMPDEST SWAP1 DUP2 MSTORE PUSH1 0x20 ADD PUSH1 0x40 MLOAD DUP1 SWAP2 SUB SWAP1 KECCAK256 PUSH1 0x40 MLOAD DUP1 PUSH1 0xE0 ADD PUSH1 0x40 MSTORE DUP1 CALLER PUSH1 0x1 PUSH1 0x1 PUSH1 0xA0 SHL SUB AND DUP2 MSTORE PUSH1 0x20 ADD DUP9 PUSH1 0x1 DUP2 GT ISZERO PUSH2 0x6439 JUMPI PUSH2 0x6439 PUSH2 0x6F0F JUMP JUMPDEST DUP2 MSTORE PUSH1 0x20 ADD DUP8 PUSH1 0x3 DUP2 GT ISZERO PUSH2 0x6450 JUMPI PUSH2 0x6450 PUSH2 0x6F0F JUMP JUMPDEST DUP2 MSTORE PUSH1 0x20 ADD DUP7 PUSH1 0x5 DUP2 GT ISZERO PUSH2 0x6467 JUMPI PUSH2 0x6467 PUSH2 0x6F0F JUMP JUMPDEST DUP2 MSTORE TIMESTAMP PUSH1 0x20 DUP1 DUP4 ADD SWAP2 SWAP1 SWAP2 MSTORE PUSH1 0x40 DUP3 ADD DUP12 SWAP1 MSTORE PUSH1 0x1 PUSH1 0x60 SWAP1 SWAP3 ADD DUP3 SWAP1 MSTORE DUP4 SLOAD DUP1 DUP4 ADD DUP6 SSTORE PUSH1 0x0 SWAP5 DUP6 MSTORE SWAP4 DUP2 SWAP1 KECCAK256 DUP4 MLOAD PUSH1 0x4 SWAP1 SWAP6 MUL ADD DUP1 SLOAD PUSH1 0x1 PUSH1 0x1 PUSH1 0xA0 SHL SUB NOT DUP2 AND PUSH1 0x1 PUSH1 0x1 PUSH1 0xA0 SHL SUB SWAP1 SWAP7 AND SWAP6 DUP7 OR DUP3 SSTORE SWAP2 DUP5 ADD MLOAD SWAP4 SWAP5 SWAP1 SWAP4 SWAP3 DUP5 SWAP3 PUSH1 0x1 PUSH1 0x1 PUSH1 0xA8 SHL SUB NOT AND SWAP1 SWAP2 OR SWAP1 PUSH1 0x1 PUSH1 0xA0 SHL SWAP1 DUP5 SWAP1 DUP2 GT ISZERO PUSH2 0x64E9 JUMPI PUSH2 0x64E9 PUSH2 0x6F0F JUMP JUMPDEST MUL OR SWAP1 SSTORE POP PUSH1 0x40 DUP3 ADD MLOAD DUP2 SLOAD DUP3 SWAP1 PUSH1 0xFF PUSH1 0xA8 SHL NOT AND PUSH1 0x1 PUSH1 0xA8 SHL DUP4 PUSH1 0x3 DUP2 GT ISZERO PUSH2 0x6515 JUMPI PUSH2 0x6515 PUSH2 0x6F0F JUMP JUMPDEST MUL OR SWAP1 SSTORE POP PUSH1 0x60 DUP3 ADD MLOAD DUP2 SLOAD DUP3 SWAP1 PUSH1 0xFF PUSH1 0xB0 SHL NOT AND PUSH1 0x1 PUSH1 0xB0 SHL DUP4 PUSH1 0x5 DUP2 GT ISZERO PUSH2 0x6541 JUMPI PUSH2 0x6541 PUSH2 0x6F0F JUMP JUMPDEST MUL OR SWAP1 SSTORE POP PUSH1 0x80 DUP3 ADD MLOAD PUSH1 0x1 DUP3 ADD SSTORE PUSH1 0xA0 DUP3 ADD MLOAD PUSH1 0x2 DUP3 ADD SWAP1 PUSH2 0x6564 SWAP1 DUP3 PUSH2 0x7B0E JUMP JUMPDEST POP PUSH1 0xC0 SWAP2 SWAP1 SWAP2 ADD MLOAD PUSH1 0x3 SWAP1 SWAP2 ADD DUP1 SLOAD PUSH1 0xFF NOT AND SWAP2 ISZERO ISZERO SWAP2 SWAP1 SWAP2 OR SWAP1 SSTORE PUSH1 0x40 MLOAD PUSH1 0x1 SWAP1 PUSH1 0x13 SWAP1 PUSH2 0x6594 SWAP1 DUP12 SWAP1 PUSH2 0x7977 JUMP JUMPDEST SWAP1 DUP2 MSTORE PUSH1 0x40 DUP1 MLOAD PUSH1 0x20 SWAP3 DUP2 SWAP1 SUB DUP4 ADD DUP2 KECCAK256 CALLER PUSH1 0x0 SWAP1 DUP2 MSTORE SWAP4 MSTORE SWAP2 KECCAK256 DUP1 SLOAD PUSH1 0xFF NOT AND SWAP3 ISZERO ISZERO SWAP3 SWAP1 SWAP3 OR SWAP1 SWAP2 SSTORE DUP2 SWAP1 PUSH1 0x14 SWAP1 PUSH2 0x65CF SWAP1 DUP12 SWAP1 PUSH2 0x7977 JUMP JUMPDEST SWAP1 DUP2 MSTORE PUSH1 0x40 DUP1 MLOAD PUSH1 0x20 SWAP3 DUP2 SWAP1 SUB DUP4 ADD SWAP1 KECCAK256 CALLER PUSH1 0x0 SWAP1 DUP2 MSTORE SWAP3 MSTORE DUP2 KECCAK256 SWAP2 SWAP1 SWAP2 SSTORE PUSH1 0x19 DUP1 SLOAD SWAP2 PUSH2 0x65FC DUP4 PUSH2 0x7BE3 JUMP JUMPDEST SWAP1 SWAP2 SSTORE POP POP PUSH1 0x40 MLOAD CALLER SWAP1 PUSH2 0x6611 SWAP1 DUP6 SWAP1 PUSH2 0x7977 JUMP JUMPDEST PUSH1 0x40 MLOAD DUP1 SWAP2 SUB SWAP1 KECCAK256 DUP10 PUSH1 0x40 MLOAD PUSH2 0x6627 SWAP2 SWAP1 PUSH2 0x7977 JUMP JUMPDEST PUSH1 0x40 MLOAD DUP1 SWAP2 SUB SWAP1 KECCAK256 PUSH32 0x7113F0BF6C156DE91047BC1021122F5E7103953F26C0628FDC1910EA15794B58 DUP10 DUP10 DUP10 TIMESTAMP PUSH1 0x40 MLOAD PUSH2 0x6664 SWAP5 SWAP4 SWAP3 SWAP2 SWAP1 PUSH2 0x7E10 JUMP JUMPDEST PUSH1 0x40 MLOAD DUP1 SWAP2 SUB SWAP1 LOG4 POP POP POP POP POP POP POP POP JUMP JUMPDEST PUSH1 0x0 PUSH2 0x66A0 DUP4 DUP4 PUSH1 0x40 MLOAD DUP1 PUSH1 0x40 ADD PUSH1 0x40 MSTORE DUP1 PUSH1 0x5 DUP2 MSTORE PUSH1 0x20 ADD PUSH5 0x37BBB732B9 PUSH1 0xD9 SHL DUP2 MSTORE POP PUSH2 0x66D2 JUMP JUMPDEST DUP1 PUSH2 0x3F14 JUMPI POP PUSH2 0x3F14 DUP4 DUP4 PUSH1 0x40 MLOAD DUP1 PUSH1 0x40 ADD PUSH1 0x40 MSTORE DUP1 PUSH1 0xD DUP2 MSTORE PUSH1 0x20 ADD PUSH13 0x30B236B4B734B9BA3930BA37B9 PUSH1 0x99 SHL DUP2 MSTORE POP JUMPDEST PUSH1 0x0 DUP1 DUP5 DUP5 PUSH1 0x40 MLOAD PUSH1 0x20 ADD PUSH2 0x66E8 SWAP3 SWAP2 SWAP1 PUSH2 0x7A52 JUMP JUMPDEST PUSH1 0x40 MLOAD PUSH1 0x20 DUP2 DUP4 SUB SUB DUP2 MSTORE SWAP1 PUSH1 0x40 MSTORE DUP1 MLOAD SWAP1 PUSH1 0x20 ADD KECCAK256 SWAP1 POP PUSH1 0x0 PUSH1 0x4 PUSH1 0x0 DUP4 DUP2 MSTORE PUSH1 0x20 ADD SWAP1 DUP2 MSTORE PUSH1 0x20 ADD PUSH1 0x0 KECCAK256 PUSH1 0x40 MLOAD DUP1 PUSH1 0xE0 ADD PUSH1 0x40 MSTORE SWAP1 DUP2 PUSH1 0x0 DUP3 ADD DUP1 SLOAD PUSH2 0x6730 SWAP1 PUSH2 0x793D JUMP JUMPDEST DUP1 PUSH1 0x1F ADD PUSH1 0x20 DUP1 SWAP2 DIV MUL PUSH1 0x20 ADD PUSH1 0x40 MLOAD SWAP1 DUP2 ADD PUSH1 0x40 MSTORE DUP1 SWAP3 SWAP2 SWAP1 DUP2 DUP2 MSTORE PUSH1 0x20 ADD DUP3 DUP1 SLOAD PUSH2 0x675C SWAP1 PUSH2 0x793D JUMP JUMPDEST DUP1 ISZERO PUSH2 0x67A9 JUMPI DUP1 PUSH1 0x1F LT PUSH2 0x677E JUMPI PUSH2 0x100 DUP1 DUP4 SLOAD DIV MUL DUP4 MSTORE SWAP2 PUSH1 0x20 ADD SWAP2 PUSH2 0x67A9 JUMP JUMPDEST DUP3 ADD SWAP2 SWAP1 PUSH1 0x0 MSTORE PUSH1 0x20 PUSH1 0x0 KECCAK256 SWAP1 JUMPDEST DUP2 SLOAD DUP2 MSTORE SWAP1 PUSH1 0x1 ADD SWAP1 PUSH1 0x20 ADD DUP1 DUP4 GT PUSH2 0x678C JUMPI DUP3 SWAP1 SUB PUSH1 0x1F AND DUP3 ADD SWAP2 JUMPDEST POP POP POP SWAP2 DUP4 MSTORE POP POP PUSH1 0x1 DUP3 ADD SLOAD PUSH1 0x1 PUSH1 0x1 PUSH1 0xA0 SHL SUB AND PUSH1 0x20 DUP3 ADD MSTORE PUSH1 0x2 DUP3 ADD DUP1 SLOAD PUSH1 0x40 SWAP1 SWAP3 ADD SWAP2 PUSH2 0x67D9 SWAP1 PUSH2 0x793D JUMP JUMPDEST DUP1 PUSH1 0x1F ADD PUSH1 0x20 DUP1 SWAP2 DIV MUL PUSH1 0x20 ADD PUSH1 0x40 MLOAD SWAP1 DUP2 ADD PUSH1 0x40 MSTORE DUP1 SWAP3 SWAP2 SWAP1 DUP2 DUP2 MSTORE PUSH1 0x20 ADD DUP3 DUP1 SLOAD PUSH2 0x6805 SWAP1 PUSH2 0x793D JUMP JUMPDEST DUP1 ISZERO PUSH2 0x6852 JUMPI DUP1 PUSH1 0x1F LT PUSH2 0x6827 JUMPI PUSH2 0x100 DUP1 DUP4 SLOAD DIV MUL DUP4 MSTORE SWAP2 PUSH1 0x20 ADD SWAP2 PUSH2 0x6852 JUMP JUMPDEST DUP3 ADD SWAP2 SWAP1 PUSH1 0x0 MSTORE PUSH1 0x20 PUSH1 0x0 KECCAK256 SWAP1 JUMPDEST DUP2 SLOAD DUP2 MSTORE SWAP1 PUSH1 0x1 ADD SWAP1 PUSH1 0x20 ADD DUP1 DUP4 GT PUSH2 0x6835 JUMPI DUP3 SWAP1 SUB PUSH1 0x1F AND DUP3 ADD SWAP2 JUMPDEST POP POP POP SWAP2 DUP4 MSTORE POP POP PUSH1 0x3 DUP3 ADD SLOAD PUSH1 0x20 DUP3 ADD MSTORE PUSH1 0x4 DUP3 ADD SLOAD PUSH1 0x40 DUP3 ADD MSTORE PUSH1 0x5 SWAP1 SWAP2 ADD SLOAD PUSH1 0x1 PUSH1 0x1 PUSH1 0xA0 SHL SUB DUP2 AND PUSH1 0x60 DUP4 ADD MSTORE PUSH1 0x1 PUSH1 0xA0 SHL SWAP1 DIV PUSH1 0xFF AND ISZERO ISZERO PUSH1 0x80 SWAP1 SWAP2 ADD MSTORE PUSH1 0xC0 DUP2 ADD MLOAD SWAP1 SWAP2 POP DUP1 ISZERO PUSH2 0x68BA JUMPI POP DUP4 DUP1 MLOAD SWAP1 PUSH1 0x20 ADD KECCAK256 DUP2 PUSH1 0x40 ADD MLOAD DUP1 MLOAD SWAP1 PUSH1 0x20 ADD KECCAK256 EQ JUMPDEST SWAP7 SWAP6 POP POP POP POP POP POP JUMP JUMPDEST DUP1 MLOAD PUSH1 0x20 DUP1 DUP4 ADD SWAP2 SWAP1 SWAP2 KECCAK256 PUSH1 0x40 DUP1 MLOAD DUP1 DUP3 ADD SWAP1 SWAP2 MSTORE PUSH1 0x5 DUP2 MSTORE PUSH5 0x37BBB732B9 PUSH1 0xD9 SHL SWAP3 ADD SWAP2 SWAP1 SWAP2 MSTORE PUSH1 0x0 DUP1 MLOAD PUSH1 0x20 PUSH2 0x7EA2 DUP4 CODECOPY DUP2 MLOAD SWAP2 MSTORE DUP2 ADD PUSH2 0x692D JUMPI PUSH2 0x6928 PUSH1 0x5 DUP6 PUSH1 0x40 MLOAD PUSH2 0x6914 SWAP2 SWAP1 PUSH2 0x7977 JUMP JUMPDEST SWAP1 DUP2 MSTORE PUSH1 0x20 ADD PUSH1 0x40 MLOAD DUP1 SWAP2 SUB SWAP1 KECCAK256 DUP5 PUSH2 0x6D42 JUMP JUMPDEST PUSH2 0x69C0 JUMP JUMPDEST PUSH1 0x40 DUP1 MLOAD DUP1 DUP3 ADD SWAP1 SWAP2 MSTORE PUSH1 0xD DUP2 MSTORE PUSH13 0x30B236B4B734B9BA3930BA37B9 PUSH1 0x99 SHL PUSH1 0x20 SWAP1 SWAP2 ADD MSTORE PUSH1 0x0 DUP1 MLOAD PUSH1 0x20 PUSH2 0x7EE2 DUP4 CODECOPY DUP2 MLOAD SWAP2 MSTORE DUP2 ADD PUSH2 0x697A JUMPI PUSH2 0x6928 PUSH1 0x6 DUP6 PUSH1 0x40 MLOAD PUSH2 0x6914 SWAP2 SWAP1 PUSH2 0x7977 JUMP JUMPDEST PUSH1 0x40 DUP1 MLOAD DUP1 DUP3 ADD SWAP1 SWAP2 MSTORE PUSH1 0x6 DUP2 MSTORE PUSH6 0x3B34B2BBB2B9 PUSH1 0xD1 SHL PUSH1 0x20 SWAP1 SWAP2 ADD MSTORE PUSH1 0x0 DUP1 MLOAD PUSH1 0x20 PUSH2 0x7E82 DUP4 CODECOPY DUP2 MLOAD SWAP2 MSTORE DUP2 ADD PUSH2 0x69C0 JUMPI PUSH2 0x69C0 PUSH1 0x7 DUP6 PUSH1 0x40 MLOAD PUSH2 0x6914 SWAP2 SWAP1 PUSH2 0x7977 JUMP JUMPDEST POP POP POP POP JUMP JUMPDEST PUSH1 0x0 DUP5 DUP5 PUSH1 0x40 MLOAD PUSH1 0x20 ADD PUSH2 0x69DB SWAP3 SWAP2 SWAP1 PUSH2 0x7A52 JUMP JUMPDEST PUSH1 0x40 DUP1 MLOAD DUP1 DUP4 SUB PUSH1 0x1F NOT ADD DUP2 MSTORE DUP3 DUP3 MSTORE DUP1 MLOAD PUSH1 0x20 SWAP2 DUP3 ADD KECCAK256 PUSH1 0x0 DUP2 DUP2 MSTORE PUSH1 0x4 DUP4 MSTORE DUP4 SWAP1 KECCAK256 PUSH1 0x5 ADD SLOAD PUSH1 0xE0 DUP6 ADD DUP5 MSTORE DUP10 DUP6 MSTORE PUSH1 0x1 PUSH1 0x1 PUSH1 0xA0 SHL SUB DUP10 AND SWAP3 DUP6 ADD SWAP3 SWAP1 SWAP3 MSTORE SWAP2 DUP4 ADD DUP7 SWAP1 MSTORE SWAP1 SWAP3 POP PUSH1 0x1 PUSH1 0xA0 SHL SWAP1 DIV PUSH1 0xFF AND SWAP1 PUSH1 0x60 DUP2 ADD DUP3 PUSH2 0x6A40 JUMPI TIMESTAMP PUSH2 0x6A53 JUMP JUMPDEST PUSH1 0x0 DUP5 DUP2 MSTORE PUSH1 0x4 PUSH1 0x20 MSTORE PUSH1 0x40 SWAP1 KECCAK256 PUSH1 0x3 ADD SLOAD JUMPDEST DUP2 MSTORE TIMESTAMP PUSH1 0x20 DUP1 DUP4 ADD SWAP2 SWAP1 SWAP2 MSTORE PUSH1 0x1 PUSH1 0x1 PUSH1 0xA0 SHL SUB DUP7 AND PUSH1 0x40 DUP1 DUP5 ADD SWAP2 SWAP1 SWAP2 MSTORE PUSH1 0x1 PUSH1 0x60 SWAP1 SWAP4 ADD SWAP3 SWAP1 SWAP3 MSTORE PUSH1 0x0 DUP6 DUP2 MSTORE PUSH1 0x4 SWAP1 SWAP2 MSTORE KECCAK256 DUP2 MLOAD DUP2 SWAP1 PUSH2 0x6A96 SWAP1 DUP3 PUSH2 0x7B0E JUMP JUMPDEST POP PUSH1 0x20 DUP3 ADD MLOAD PUSH1 0x1 DUP3 ADD DUP1 SLOAD PUSH1 0x1 PUSH1 0x1 PUSH1 0xA0 SHL SUB NOT AND PUSH1 0x1 PUSH1 0x1 PUSH1 0xA0 SHL SUB SWAP1 SWAP3 AND SWAP2 SWAP1 SWAP2 OR SWAP1 SSTORE PUSH1 0x40 DUP3 ADD MLOAD PUSH1 0x2 DUP3 ADD SWAP1 PUSH2 0x6AD1 SWAP1 DUP3 PUSH2 0x7B0E JUMP JUMPDEST POP PUSH1 0x60 DUP3 ADD MLOAD PUSH1 0x3 DUP3 ADD SSTORE PUSH1 0x80 DUP3 ADD MLOAD PUSH1 0x4 DUP3 ADD SSTORE PUSH1 0xA0 DUP3 ADD MLOAD PUSH1 0x5 SWAP1 SWAP2 ADD DUP1 SLOAD PUSH1 0xC0 SWAP1 SWAP4 ADD MLOAD ISZERO ISZERO PUSH1 0x1 PUSH1 0xA0 SHL MUL PUSH1 0x1 PUSH1 0x1 PUSH1 0xA8 SHL SUB NOT SWAP1 SWAP4 AND PUSH1 0x1 PUSH1 0x1 PUSH1 0xA0 SHL SUB SWAP1 SWAP3 AND SWAP2 SWAP1 SWAP2 OR SWAP2 SWAP1 SWAP2 OR SWAP1 SSTORE DUP1 PUSH2 0x6B7A JUMPI PUSH2 0x6B31 DUP7 DUP7 DUP7 PUSH2 0x6BE5 JUMP JUMPDEST PUSH1 0x1 PUSH1 0x1 PUSH1 0xA0 SHL SUB DUP6 AND PUSH1 0x0 SWAP1 DUP2 MSTORE PUSH1 0x8 PUSH1 0x20 SWAP1 DUP2 MSTORE PUSH1 0x40 DUP3 KECCAK256 DUP1 SLOAD PUSH1 0x1 DUP2 ADD DUP3 SSTORE SWAP1 DUP4 MSTORE SWAP2 KECCAK256 ADD PUSH2 0x6B63 DUP8 DUP3 PUSH2 0x7B0E JUMP JUMPDEST POP PUSH1 0x9 DUP1 SLOAD SWAP1 PUSH1 0x0 PUSH2 0x6B74 DUP4 PUSH2 0x7BE3 JUMP JUMPDEST SWAP2 SWAP1 POP SSTORE POP JUMPDEST DUP3 PUSH1 0x1 PUSH1 0x1 PUSH1 0xA0 SHL SUB AND DUP6 PUSH1 0x1 PUSH1 0x1 PUSH1 0xA0 SHL SUB AND DUP8 PUSH1 0x40 MLOAD PUSH2 0x6B9C SWAP2 SWAP1 PUSH2 0x7977 JUMP JUMPDEST PUSH1 0x40 MLOAD DUP1 SWAP2 SUB SWAP1 KECCAK256 PUSH32 0xB11BB86C7A250EC130229577F2DFA0480D10122B9B1C02FB81DF81959F1A7911 DUP8 TIMESTAMP PUSH1 0x40 MLOAD PUSH2 0x6BD5 SWAP3 SWAP2 SWAP1 PUSH2 0x7BFC JUMP JUMPDEST PUSH1 0x40 MLOAD DUP1 SWAP2 SUB SWAP1 LOG4 POP POP POP POP POP POP JUMP JUMPDEST DUP1 MLOAD PUSH1 0x20 DUP1 DUP4 ADD SWAP2 SWAP1 SWAP2 KECCAK256 PUSH1 0x40 DUP1 MLOAD DUP1 DUP3 ADD SWAP1 SWAP2 MSTORE PUSH1 0x5 DUP2 MSTORE PUSH5 0x37BBB732B9 PUSH1 0xD9 SHL SWAP3 ADD SWAP2 SWAP1 SWAP2 MSTORE PUSH1 0x0 DUP1 MLOAD PUSH1 0x20 PUSH2 0x7EA2 DUP4 CODECOPY DUP2 MLOAD SWAP2 MSTORE DUP2 ADD PUSH2 0x6C71 JUMPI PUSH1 0x5 DUP5 PUSH1 0x40 MLOAD PUSH2 0x6C32 SWAP2 SWAP1 PUSH2 0x7977 JUMP JUMPDEST SWAP1 DUP2 MSTORE PUSH1 0x40 MLOAD PUSH1 0x20 SWAP2 DUP2 SWAP1 SUB DUP3 ADD SWAP1 KECCAK256 DUP1 SLOAD PUSH1 0x1 DUP2 ADD DUP3 SSTORE PUSH1 0x0 SWAP2 DUP3 MSTORE SWAP2 SWAP1 KECCAK256 ADD DUP1 SLOAD PUSH1 0x1 PUSH1 0x1 PUSH1 0xA0 SHL SUB NOT AND PUSH1 0x1 PUSH1 0x1 PUSH1 0xA0 SHL SUB DUP6 AND OR SWAP1 SSTORE PUSH2 0x69C0 JUMP JUMPDEST PUSH1 0x40 DUP1 MLOAD DUP1 DUP3 ADD SWAP1 SWAP2 MSTORE PUSH1 0xD DUP2 MSTORE PUSH13 0x30B236B4B734B9BA3930BA37B9 PUSH1 0x99 SHL PUSH1 0x20 SWAP1 SWAP2 ADD MSTORE PUSH1 0x0 DUP1 MLOAD PUSH1 0x20 PUSH2 0x7EE2 DUP4 CODECOPY DUP2 MLOAD SWAP2 MSTORE DUP2 ADD PUSH2 0x6CBB JUMPI PUSH1 0x6 DUP5 PUSH1 0x40 MLOAD PUSH2 0x6C32 SWAP2 SWAP1 PUSH2 0x7977 JUMP JUMPDEST PUSH1 0x40 DUP1 MLOAD DUP1 DUP3 ADD SWAP1 SWAP2 MSTORE PUSH1 0x6 DUP2 MSTORE PUSH6 0x3B34B2BBB2B9 PUSH1 0xD1 SHL PUSH1 0x20 SWAP1 SWAP2 ADD MSTORE PUSH1 0x0 DUP1 MLOAD PUSH1 0x20 PUSH2 0x7E82 DUP4 CODECOPY DUP2 MLOAD SWAP2 MSTORE DUP2 ADD PUSH2 0x69C0 JUMPI PUSH1 0x7 DUP5 PUSH1 0x40 MLOAD PUSH2 0x6CFE SWAP2 SWAP1 PUSH2 0x7977 JUMP JUMPDEST SWAP1 DUP2 MSTORE PUSH1 0x40 MLOAD SWAP1 DUP2 SWAP1 SUB PUSH1 0x20 SWAP1 DUP2 ADD SWAP1 SWAP2 KECCAK256 DUP1 SLOAD PUSH1 0x1 DUP2 ADD DUP3 SSTORE PUSH1 0x0 SWAP2 DUP3 MSTORE SWAP2 SWAP1 KECCAK256 ADD DUP1 SLOAD PUSH1 0x1 PUSH1 0x1 PUSH1 0xA0 SHL SUB DUP6 AND PUSH1 0x1 PUSH1 0x1 PUSH1 0xA0 SHL SUB NOT SWAP1 SWAP2 AND OR SWAP1 SSTORE POP POP POP POP JUMP JUMPDEST PUSH1 0x0 JUMPDEST DUP3 SLOAD DUP2 LT ISZERO PUSH2 0x21B4 JUMPI DUP2 PUSH1 0x1 PUSH1 0x1 PUSH1 0xA0 SHL SUB AND DUP4 DUP3 DUP2 SLOAD DUP2 LT PUSH2 0x6D6A JUMPI PUSH2 0x6D6A PUSH2 0x79C0 JUMP JUMPDEST PUSH1 0x0 SWAP2 DUP3 MSTORE PUSH1 0x20 SWAP1 SWAP2 KECCAK256 ADD SLOAD PUSH1 0x1 PUSH1 0x1 PUSH1 0xA0 SHL SUB AND SUB PUSH2 0x6E39 JUMPI DUP3 SLOAD DUP4 SWAP1 PUSH2 0x6D94 SWAP1 PUSH1 0x1 SWAP1 PUSH2 0x7E38 JUMP JUMPDEST DUP2 SLOAD DUP2 LT PUSH2 0x6DA4 JUMPI PUSH2 0x6DA4 PUSH2 0x79C0 JUMP JUMPDEST SWAP1 PUSH1 0x0 MSTORE PUSH1 0x20 PUSH1 0x0 KECCAK256 ADD PUSH1 0x0 SWAP1 SLOAD SWAP1 PUSH2 0x100 EXP SWAP1 DIV PUSH1 0x1 PUSH1 0x1 PUSH1 0xA0 SHL SUB AND DUP4 DUP3 DUP2 SLOAD DUP2 LT PUSH2 0x6DD4 JUMPI PUSH2 0x6DD4 PUSH2 0x79C0 JUMP JUMPDEST SWAP1 PUSH1 0x0 MSTORE PUSH1 0x20 PUSH1 0x0 KECCAK256 ADD PUSH1 0x0 PUSH2 0x100 EXP DUP2 SLOAD DUP2 PUSH1 0x1 PUSH1 0x1 PUSH1 0xA0 SHL SUB MUL NOT AND SWAP1 DUP4 PUSH1 0x1 PUSH1 0x1 PUSH1 0xA0 SHL SUB AND MUL OR SWAP1 SSTORE POP DUP3 DUP1 SLOAD DUP1 PUSH2 0x6E12 JUMPI PUSH2 0x6E12 PUSH2 0x7E4B JUMP JUMPDEST PUSH1 0x0 DUP3 DUP2 MSTORE PUSH1 0x20 SWAP1 KECCAK256 DUP2 ADD PUSH1 0x0 NOT SWAP1 DUP2 ADD DUP1 SLOAD PUSH1 0x1 PUSH1 0x1 PUSH1 0xA0 SHL SUB NOT AND SWAP1 SSTORE ADD SWAP1 SSTORE POP POP POP JUMP JUMPDEST DUP1 PUSH2 0x6E43 DUP2 PUSH2 0x7BE3 JUMP JUMPDEST SWAP2 POP POP PUSH2 0x6D45 JUMP JUMPDEST DUP1 CALLDATALOAD PUSH1 0x1 PUSH1 0x1 PUSH1 0xA0 SHL SUB DUP2 AND DUP2 EQ PUSH2 0x6E62 JUMPI PUSH1 0x0 DUP1 REVERT JUMPDEST SWAP2 SWAP1 POP JUMP JUMPDEST PUSH1 0x0 DUP1 PUSH1 0x40 DUP4 DUP6 SUB SLT ISZERO PUSH2 0x6E7A JUMPI PUSH1 0x0 DUP1 REVERT JUMPDEST PUSH2 0x6E83 DUP4 PUSH2 0x6E4B JUMP JUMPDEST SWAP5 PUSH1 0x20 SWAP4 SWAP1 SWAP4 ADD CALLDATALOAD SWAP4 POP POP POP JUMP JUMPDEST PUSH1 0x0 JUMPDEST DUP4 DUP2 LT ISZERO PUSH2 0x6EAC JUMPI DUP2 DUP2 ADD MLOAD DUP4 DUP3 ADD MSTORE PUSH1 0x20 ADD PUSH2 0x6E94 JUMP JUMPDEST POP POP PUSH1 0x0 SWAP2 ADD MSTORE JUMP JUMPDEST PUSH1 0x0 DUP2 MLOAD DUP1 DUP5 MSTORE PUSH2 0x6ECD DUP2 PUSH1 0x20 DUP7 ADD PUSH1 0x20 DUP7 ADD PUSH2 0x6E91 JUMP JUMPDEST PUSH1 0x1F ADD PUSH1 0x1F NOT AND SWAP3 SWAP1 SWAP3 ADD PUSH1 0x20 ADD SWAP3 SWAP2 POP POP JUMP JUMPDEST PUSH1 0x20 DUP2 MSTORE PUSH1 0x0 PUSH2 0x3F14 PUSH1 0x20 DUP4 ADD DUP5 PUSH2 0x6EB5 JUMP JUMPDEST PUSH1 0x0 PUSH1 0x20 DUP3 DUP5 SUB SLT ISZERO PUSH2 0x6F06 JUMPI PUSH1 0x0 DUP1 REVERT JUMPDEST PUSH2 0x3F14 DUP3 PUSH2 0x6E4B JUMP JUMPDEST PUSH4 0x4E487B71 PUSH1 0xE0 SHL PUSH1 0x0 MSTORE PUSH1 0x21 PUSH1 0x4 MSTORE PUSH1 0x24 PUSH1 0x0 REVERT JUMPDEST PUSH1 0x3 DUP2 LT PUSH2 0x6F35 JUMPI PUSH2 0x6F35 PUSH2 0x6F0F JUMP JUMPDEST SWAP1 MSTORE JUMP JUMPDEST PUSH1 0x1 PUSH1 0x1 PUSH1 0xA0 SHL SUB DUP6 AND DUP2 MSTORE PUSH1 0x20 DUP2 ADD DUP5 SWAP1 MSTORE PUSH1 0x80 DUP2 ADD PUSH2 0x6F5D PUSH1 0x40 DUP4 ADD DUP6 PUSH2 0x6F25 JUMP JUMPDEST DUP3 PUSH1 0x60 DUP4 ADD MSTORE SWAP6 SWAP5 POP POP POP POP POP JUMP JUMPDEST PUSH1 0x0 PUSH1 0x20 DUP3 DUP5 SUB SLT ISZERO PUSH2 0x6F7E JUMPI PUSH1 0x0 DUP1 REVERT JUMPDEST POP CALLDATALOAD SWAP2 SWAP1 POP JUMP JUMPDEST PUSH4 0x4E487B71 PUSH1 0xE0 SHL PUSH1 0x0 MSTORE PUSH1 0x41 PUSH1 0x4 MSTORE PUSH1 0x24 PUSH1 0x0 REVERT JUMPDEST PUSH1 0x0 DUP3 PUSH1 0x1F DUP4 ADD SLT PUSH2 0x6FAC JUMPI PUSH1 0x0 DUP1 REVERT JUMPDEST DUP2 CALLDATALOAD PUSH1 0x1 PUSH1 0x1 PUSH1 0x40 SHL SUB DUP1 DUP3 GT ISZERO PUSH2 0x6FC6 JUMPI PUSH2 0x6FC6 PUSH2 0x6F85 JUMP JUMPDEST PUSH1 0x40 MLOAD PUSH1 0x1F DUP4 ADD PUSH1 0x1F NOT SWAP1 DUP2 AND PUSH1 0x3F ADD AND DUP2 ADD SWAP1 DUP3 DUP3 GT DUP2 DUP4 LT OR ISZERO PUSH2 0x6FEE JUMPI PUSH2 0x6FEE PUSH2 0x6F85 JUMP JUMPDEST DUP2 PUSH1 0x40 MSTORE DUP4 DUP2 MSTORE DUP7 PUSH1 0x20 DUP6 DUP9 ADD ADD GT ISZERO PUSH2 0x7007 JUMPI PUSH1 0x0 DUP1 REVERT JUMPDEST DUP4 PUSH1 0x20 DUP8 ADD PUSH1 0x20 DUP4 ADD CALLDATACOPY PUSH1 0x0 PUSH1 0x20 DUP6 DUP4 ADD ADD MSTORE DUP1 SWAP5 POP POP POP POP POP SWAP3 SWAP2 POP POP JUMP JUMPDEST DUP1 CALLDATALOAD PUSH1 0xFF DUP2 AND DUP2 EQ PUSH2 0x6E62 JUMPI PUSH1 0x0 DUP1 REVERT JUMPDEST PUSH1 0x0 DUP1 PUSH1 0x0 PUSH1 0x60 DUP5 DUP7 SUB SLT ISZERO PUSH2 0x704D JUMPI PUSH1 0x0 DUP1 REVERT JUMPDEST DUP4 CALLDATALOAD PUSH1 0x1 PUSH1 0x1 PUSH1 0x40 SHL SUB DUP2 GT ISZERO PUSH2 0x7063 JUMPI PUSH1 0x0 DUP1 REVERT JUMPDEST PUSH2 0x706F DUP7 DUP3 DUP8 ADD PUSH2 0x6F9B JUMP JUMPDEST SWAP4 POP POP PUSH2 0x707E PUSH1 0x20 DUP6 ADD PUSH2 0x7027 JUMP JUMPDEST SWAP2 POP PUSH2 0x708C PUSH1 0x40 DUP6 ADD PUSH2 0x7027 JUMP JUMPDEST SWAP1 POP SWAP3 POP SWAP3 POP SWAP3 JUMP JUMPDEST PUSH1 0x0 PUSH1 0x20 DUP1 DUP4 ADD DUP2 DUP5 MSTORE DUP1 DUP6 MLOAD DUP1 DUP4 MSTORE PUSH1 0x40 DUP7 ADD SWAP2 POP PUSH1 0x40 DUP2 PUSH1 0x5 SHL DUP8 ADD ADD SWAP3 POP DUP4 DUP8 ADD PUSH1 0x0 JUMPDEST DUP3 DUP2 LT ISZERO PUSH2 0x70EA JUMPI PUSH1 0x3F NOT DUP9 DUP7 SUB ADD DUP5 MSTORE PUSH2 0x70D8 DUP6 DUP4 MLOAD PUSH2 0x6EB5 JUMP JUMPDEST SWAP5 POP SWAP3 DUP6 ADD SWAP3 SWAP1 DUP6 ADD SWAP1 PUSH1 0x1 ADD PUSH2 0x70BC JUMP JUMPDEST POP SWAP3 SWAP8 SWAP7 POP POP POP POP POP POP POP JUMP JUMPDEST PUSH1 0x0 DUP1 PUSH1 0x40 DUP4 DUP6 SUB SLT ISZERO PUSH2 0x710A JUMPI PUSH1 0x0 DUP1 REVERT JUMPDEST DUP3 CALLDATALOAD PUSH1 0x1 PUSH1 0x1 PUSH1 0x40 SHL SUB DUP2 GT ISZERO PUSH2 0x7120 JUMPI PUSH1 0x0 DUP1 REVERT JUMPDEST PUSH2 0x712C DUP6 DUP3 DUP7 ADD PUSH2 0x6F9B JUMP JUMPDEST SWAP3 POP POP PUSH2 0x713B PUSH1 0x20 DUP5 ADD PUSH2 0x6E4B JUMP JUMPDEST SWAP1 POP SWAP3 POP SWAP3 SWAP1 POP JUMP JUMPDEST PUSH1 0x20 DUP1 DUP3 MSTORE DUP3 MLOAD DUP3 DUP3 ADD DUP2 SWAP1 MSTORE PUSH1 0x0 SWAP2 SWAP1 PUSH1 0x40 SWAP1 DUP2 DUP6 ADD SWAP1 DUP7 DUP5 ADD DUP6 JUMPDEST DUP3 DUP2 LT ISZERO PUSH2 0x719B JUMPI DUP2 MLOAD DUP1 MLOAD PUSH1 0x1 PUSH1 0x1 PUSH1 0xA0 SHL SUB AND DUP6 MSTORE DUP7 DUP2 ADD MLOAD ISZERO ISZERO DUP8 DUP7 ADD MSTORE DUP6 ADD MLOAD DUP6 DUP6 ADD MSTORE PUSH1 0x60 SWAP1 SWAP4 ADD SWAP3 SWAP1 DUP6 ADD SWAP1 PUSH1 0x1 ADD PUSH2 0x7161 JUMP JUMPDEST POP SWAP2 SWAP8 SWAP7 POP POP POP POP POP POP POP JUMP JUMPDEST PUSH1 0x0 DUP1 PUSH1 0x0 PUSH1 0x60 DUP5 DUP7 SUB SLT ISZERO PUSH2 0x71BD JUMPI PUSH1 0x0 DUP1 REVERT JUMPDEST DUP4 CALLDATALOAD PUSH1 0x1 PUSH1 0x1 PUSH1 0x40 SHL SUB DUP1 DUP3 GT ISZERO PUSH2 0x71D4 JUMPI PUSH1 0x0 DUP1 REVERT JUMPDEST PUSH2 0x71E0 DUP8 DUP4 DUP9 ADD PUSH2 0x6F9B JUMP JUMPDEST SWAP5 POP PUSH1 0x20 DUP7 ADD CALLDATALOAD SWAP2 POP DUP1 DUP3 GT ISZERO PUSH2 0x71F6 JUMPI PUSH1 0x0 DUP1 REVERT JUMPDEST POP PUSH2 0x7203 DUP7 DUP3 DUP8 ADD PUSH2 0x6F9B JUMP JUMPDEST SWAP3 POP POP PUSH2 0x708C PUSH1 0x40 DUP6 ADD PUSH2 0x6E4B JUMP JUMPDEST PUSH1 0x0 PUSH1 0x20 DUP3 DUP5 SUB SLT ISZERO PUSH2 0x7224 JUMPI PUSH1 0x0 DUP1 REVERT JUMPDEST DUP2 CALLDATALOAD PUSH1 0x1 PUSH1 0x1 PUSH1 0x40 SHL SUB DUP2 GT ISZERO PUSH2 0x723A JUMPI PUSH1 0x0 DUP1 REVERT JUMPDEST PUSH2 0x5145 DUP5 DUP3 DUP6 ADD PUSH2 0x6F9B JUMP JUMPDEST PUSH1 0x20 DUP1 DUP3 MSTORE DUP3 MLOAD DUP3 DUP3 ADD DUP2 SWAP1 MSTORE PUSH1 0x0 SWAP2 SWAP1 DUP5 DUP3 ADD SWAP1 PUSH1 0x40 DUP6 ADD SWAP1 DUP5 JUMPDEST DUP2 DUP2 LT ISZERO PUSH2 0x7287 JUMPI DUP4 MLOAD PUSH1 0x1 PUSH1 0x1 PUSH1 0xA0 SHL SUB AND DUP4 MSTORE SWAP3 DUP5 ADD SWAP3 SWAP2 DUP5 ADD SWAP2 PUSH1 0x1 ADD PUSH2 0x7262 JUMP JUMPDEST POP SWAP1 SWAP7 SWAP6 POP POP POP POP POP POP JUMP JUMPDEST PUSH1 0x0 DUP1 PUSH1 0x0 DUP1 PUSH1 0x80 DUP6 DUP8 SUB SLT ISZERO PUSH2 0x72A9 JUMPI PUSH1 0x0 DUP1 REVERT JUMPDEST DUP5 CALLDATALOAD PUSH1 0x1 PUSH1 0x1 PUSH1 0x40 SHL SUB DUP1 DUP3 GT ISZERO PUSH2 0x72C0 JUMPI PUSH1 0x0 DUP1 REVERT JUMPDEST PUSH2 0x72CC DUP9 DUP4 DUP10 ADD PUSH2 0x6F9B JUMP JUMPDEST SWAP6 POP PUSH2 0x72DA PUSH1 0x20 DUP9 ADD PUSH2 0x7027 JUMP JUMPDEST SWAP5 POP PUSH2 0x72E8 PUSH1 0x40 DUP9 ADD PUSH2 0x7027 JUMP JUMPDEST SWAP4 POP PUSH1 0x60 DUP8 ADD CALLDATALOAD SWAP2 POP DUP1 DUP3 GT ISZERO PUSH2 0x72FE JUMPI PUSH1 0x0 DUP1 REVERT JUMPDEST POP PUSH2 0x730B DUP8 DUP3 DUP9 ADD PUSH2 0x6F9B JUMP JUMPDEST SWAP2 POP POP SWAP3 SWAP6 SWAP2 SWAP5 POP SWAP3 POP JUMP JUMPDEST PUSH1 0x2 DUP2 LT PUSH2 0x6F35 JUMPI PUSH2 0x6F35 PUSH2 0x6F0F JUMP JUMPDEST PUSH1 0x4 DUP2 LT PUSH2 0x6F35 JUMPI PUSH2 0x6F35 PUSH2 0x6F0F JUMP JUMPDEST PUSH1 0x6 DUP2 LT PUSH2 0x6F35 JUMPI PUSH2 0x6F35 PUSH2 0x6F0F JUMP JUMPDEST PUSH1 0x0 PUSH1 0x20 DUP1 DUP4 ADD DUP2 DUP5 MSTORE DUP1 DUP6 MLOAD DUP1 DUP4 MSTORE PUSH1 0x40 SWAP3 POP DUP3 DUP7 ADD SWAP2 POP DUP3 DUP2 PUSH1 0x5 SHL DUP8 ADD ADD DUP5 DUP9 ADD PUSH1 0x0 JUMPDEST DUP4 DUP2 LT ISZERO PUSH2 0x740D JUMPI DUP9 DUP4 SUB PUSH1 0x3F NOT ADD DUP6 MSTORE DUP2 MLOAD DUP1 MLOAD PUSH1 0x1 PUSH1 0x1 PUSH1 0xA0 SHL SUB AND DUP5 MSTORE DUP8 DUP2 ADD MLOAD PUSH1 0xE0 SWAP1 PUSH2 0x73A1 DUP11 DUP8 ADD DUP3 PUSH2 0x7317 JUMP JUMPDEST POP DUP8 DUP3 ADD MLOAD PUSH2 0x73B2 DUP10 DUP8 ADD DUP3 PUSH2 0x7327 JUMP JUMPDEST POP PUSH1 0x60 DUP1 DUP4 ADD MLOAD PUSH2 0x73C5 DUP3 DUP9 ADD DUP3 PUSH2 0x7337 JUMP JUMPDEST POP POP PUSH1 0x80 DUP1 DUP4 ADD MLOAD DUP2 DUP8 ADD MSTORE POP PUSH1 0xA0 DUP1 DUP4 ADD MLOAD DUP3 DUP3 DUP9 ADD MSTORE PUSH2 0x73E9 DUP4 DUP9 ADD DUP3 PUSH2 0x6EB5 JUMP JUMPDEST PUSH1 0xC0 SWAP5 DUP6 ADD MLOAD ISZERO ISZERO SWAP8 SWAP1 SWAP5 ADD SWAP7 SWAP1 SWAP7 MSTORE POP POP SWAP5 DUP8 ADD SWAP5 SWAP3 POP SWAP1 DUP7 ADD SWAP1 PUSH1 0x1 ADD PUSH2 0x736E JUMP JUMPDEST POP SWAP1 SWAP9 SWAP8 POP POP POP POP POP POP POP POP JUMP JUMPDEST DUP4 DUP2 MSTORE PUSH1 0x60 DUP2 ADD PUSH2 0x742F PUSH1 0x20 DUP4 ADD DUP6 PUSH2 0x6F25 JUMP JUMPDEST DUP3 PUSH1 0x40 DUP4 ADD MSTORE SWAP5 SWAP4 POP POP POP POP JUMP JUMPDEST PUSH1 0x0 DUP1 PUSH1 0x0 PUSH1 0x60 DUP5 DUP7 SUB SLT ISZERO PUSH2 0x7452 JUMPI PUSH1 0x0 DUP1 REVERT JUMPDEST DUP4 CALLDATALOAD PUSH1 0x1 PUSH1 0x1 PUSH1 0x40 SHL SUB DUP2 GT ISZERO PUSH2 0x7468 JUMPI PUSH1 0x0 DUP1 REVERT JUMPDEST PUSH2 0x7474 DUP7 DUP3 DUP8 ADD PUSH2 0x6F9B JUMP JUMPDEST SWAP4 POP POP PUSH2 0x7483 PUSH1 0x20 DUP6 ADD PUSH2 0x6E4B JUMP JUMPDEST SWAP2 POP PUSH1 0x40 DUP5 ADD CALLDATALOAD SWAP1 POP SWAP3 POP SWAP3 POP SWAP3 JUMP JUMPDEST PUSH1 0xE0 DUP2 MSTORE PUSH1 0x0 PUSH2 0x74A6 PUSH1 0xE0 DUP4 ADD DUP11 PUSH2 0x6EB5 JUMP JUMPDEST PUSH1 0x1 PUSH1 0x1 PUSH1 0xA0 SHL SUB DUP10 DUP2 AND PUSH1 0x20 DUP6 ADD MSTORE DUP4 DUP3 SUB PUSH1 0x40 DUP6 ADD MSTORE PUSH2 0x74C8 DUP3 DUP11 PUSH2 0x6EB5 JUMP JUMPDEST PUSH1 0x60 DUP6 ADD SWAP9 SWAP1 SWAP9 MSTORE PUSH1 0x80 DUP5 ADD SWAP7 SWAP1 SWAP7 MSTORE POP POP SWAP2 SWAP1 SWAP3 AND PUSH1 0xA0 DUP3 ADD MSTORE SWAP1 ISZERO ISZERO PUSH1 0xC0 SWAP1 SWAP2 ADD MSTORE SWAP4 SWAP3 POP POP POP JUMP JUMPDEST PUSH1 0x0 PUSH2 0x100 DUP1 DUP4 MSTORE PUSH2 0x7507 DUP2 DUP5 ADD DUP13 PUSH2 0x6EB5 JUMP JUMPDEST PUSH1 0x1 PUSH1 0x1 PUSH1 0xA0 SHL SUB DUP12 DUP2 AND PUSH1 0x20 DUP7 ADD MSTORE DUP11 AND PUSH1 0x40 DUP6 ADD MSTORE DUP4 DUP2 SUB PUSH1 0x60 DUP6 ADD MSTORE SWAP1 POP PUSH2 0x7532 DUP2 DUP10 PUSH2 0x6EB5 JUMP JUMPDEST PUSH1 0x80 DUP5 ADD SWAP8 SWAP1 SWAP8 MSTORE POP POP PUSH1 0xA0 DUP2 ADD SWAP4 SWAP1 SWAP4 MSTORE SWAP1 ISZERO ISZERO PUSH1 0xC0 DUP4 ADD MSTORE ISZERO ISZERO PUSH1 0xE0 SWAP1 SWAP2 ADD MSTORE SWAP5 SWAP4 POP POP POP POP JUMP JUMPDEST PUSH1 0x0 DUP1 PUSH1 0x40 DUP4 DUP6 SUB SLT ISZERO PUSH2 0x756F JUMPI PUSH1 0x0 DUP1 REVERT JUMPDEST DUP3 CALLDATALOAD PUSH1 0x1 PUSH1 0x1 PUSH1 0x40 SHL SUB DUP1 DUP3 GT ISZERO PUSH2 0x7586 JUMPI PUSH1 0x0 DUP1 REVERT JUMPDEST PUSH2 0x7592 DUP7 DUP4 DUP8 ADD PUSH2 0x6F9B JUMP JUMPDEST SWAP4 POP PUSH1 0x20 DUP6 ADD CALLDATALOAD SWAP2 POP DUP1 DUP3 GT ISZERO PUSH2 0x75A8 JUMPI PUSH1 0x0 DUP1 REVERT JUMPDEST POP PUSH2 0x75B5 DUP6 DUP3 DUP7 ADD PUSH2 0x6F9B JUMP JUMPDEST SWAP2 POP POP SWAP3 POP SWAP3 SWAP1 POP JUMP JUMPDEST PUSH1 0x0 DUP1 PUSH1 0x40 DUP4 DUP6 SUB SLT ISZERO PUSH2 0x75D2 JUMPI PUSH1 0x0 DUP1 REVERT JUMPDEST PUSH2 0x75DB DUP4 PUSH2 0x6E4B JUMP JUMPDEST SWAP2 POP PUSH1 0x20 DUP4 ADD CALLDATALOAD PUSH1 0x3 DUP2 LT PUSH2 0x75EF JUMPI PUSH1 0x0 DUP1 REVERT JUMPDEST DUP1 SWAP2 POP POP SWAP3 POP SWAP3 SWAP1 POP JUMP JUMPDEST PUSH1 0xC0 DUP2 MSTORE PUSH1 0x0 PUSH2 0x760D PUSH1 0xC0 DUP4 ADD DUP10 PUSH2 0x6EB5 JUMP JUMPDEST DUP3 DUP2 SUB PUSH1 0x20 DUP5 ADD MSTORE PUSH2 0x761F DUP2 DUP10 PUSH2 0x6EB5 JUMP JUMPDEST PUSH1 0x1 PUSH1 0x1 PUSH1 0xA0 SHL SUB SWAP8 DUP9 AND PUSH1 0x40 DUP6 ADD MSTORE PUSH1 0x60 DUP5 ADD SWAP7 SWAP1 SWAP7 MSTORE POP POP SWAP2 SWAP1 SWAP4 AND PUSH1 0x80 DUP3 ADD MSTORE SWAP2 ISZERO ISZERO PUSH1 0xA0 SWAP1 SWAP3 ADD SWAP2 SWAP1 SWAP2 MSTORE SWAP3 SWAP2 POP POP JUMP JUMPDEST PUSH1 0x0 DUP1 PUSH1 0x0 PUSH1 0x60 DUP5 DUP7 SUB SLT ISZERO PUSH2 0x7669 JUMPI PUSH1 0x0 DUP1 REVERT JUMPDEST DUP4 CALLDATALOAD PUSH1 0x1 PUSH1 0x1 PUSH1 0x40 SHL SUB DUP2 GT ISZERO PUSH2 0x767F JUMPI PUSH1 0x0 DUP1 REVERT JUMPDEST PUSH2 0x768B DUP7 DUP3 DUP8 ADD PUSH2 0x6F9B JUMP JUMPDEST SWAP4 POP POP PUSH2 0x769A PUSH1 0x20 DUP6 ADD PUSH2 0x6E4B JUMP JUMPDEST SWAP2 POP PUSH2 0x708C PUSH1 0x40 DUP6 ADD PUSH2 0x6E4B JUMP JUMPDEST PUSH1 0x0 DUP1 PUSH1 0x40 DUP4 DUP6 SUB SLT ISZERO PUSH2 0x76BB JUMPI PUSH1 0x0 DUP1 REVERT JUMPDEST DUP3 CALLDATALOAD PUSH1 0x1 PUSH1 0x1 PUSH1 0x40 SHL SUB DUP2 GT ISZERO PUSH2 0x76D1 JUMPI PUSH1 0x0 DUP1 REVERT JUMPDEST PUSH2 0x76DD DUP6 DUP3 DUP7 ADD PUSH2 0x6F9B JUMP JUMPDEST SWAP6 PUSH1 0x20 SWAP5 SWAP1 SWAP5 ADD CALLDATALOAD SWAP5 POP POP POP POP JUMP JUMPDEST PUSH1 0x1 PUSH1 0x1 PUSH1 0xA0 SHL SUB DUP9 AND DUP2 MSTORE PUSH2 0x7705 PUSH1 0x20 DUP3 ADD DUP9 PUSH2 0x7317 JUMP JUMPDEST PUSH2 0x7712 PUSH1 0x40 DUP3 ADD DUP8 PUSH2 0x7327 JUMP JUMPDEST PUSH2 0x771F PUSH1 0x60 DUP3 ADD DUP7 PUSH2 0x7337 JUMP JUMPDEST DUP4 PUSH1 0x80 DUP3 ADD MSTORE PUSH1 0xE0 PUSH1 0xA0 DUP3 ADD MSTORE PUSH1 0x0 PUSH2 0x773B PUSH1 0xE0 DUP4 ADD DUP6 PUSH2 0x6EB5 JUMP JUMPDEST SWAP1 POP DUP3 ISZERO ISZERO PUSH1 0xC0 DUP4 ADD MSTORE SWAP9 SWAP8 POP POP POP POP POP POP POP POP JUMP JUMPDEST PUSH1 0x0 DUP1 PUSH1 0x0 PUSH1 0x60 DUP5 DUP7 SUB SLT ISZERO PUSH2 0x7766 JUMPI PUSH1 0x0 DUP1 REVERT JUMPDEST DUP4 CALLDATALOAD PUSH1 0x1 PUSH1 0x1 PUSH1 0x40 SHL SUB DUP2 GT ISZERO PUSH2 0x777C JUMPI PUSH1 0x0 DUP1 REVERT JUMPDEST PUSH2 0x7788 DUP7 DUP3 DUP8 ADD PUSH2 0x6F9B JUMP JUMPDEST SWAP4 POP POP PUSH2 0x7797 PUSH1 0x20 DUP6 ADD PUSH2 0x6E4B JUMP JUMPDEST SWAP2 POP PUSH1 0x40 DUP5 ADD CALLDATALOAD DUP1 ISZERO ISZERO DUP2 EQ PUSH2 0x77AC JUMPI PUSH1 0x0 DUP1 REVERT JUMPDEST DUP1 SWAP2 POP POP SWAP3 POP SWAP3 POP SWAP3 JUMP JUMPDEST DUP6 ISZERO ISZERO DUP2 MSTORE PUSH2 0x77C9 PUSH1 0x20 DUP3 ADD DUP7 PUSH2 0x7317 JUMP JUMPDEST DUP4 PUSH1 0x40 DUP3 ADD MSTORE PUSH1 0xA0 PUSH1 0x60 DUP3 ADD MSTORE PUSH1 0x0 PUSH2 0x77E5 PUSH1 0xA0 DUP4 ADD DUP6 PUSH2 0x6EB5 JUMP JUMPDEST SWAP1 POP DUP3 ISZERO ISZERO PUSH1 0x80 DUP4 ADD MSTORE SWAP7 SWAP6 POP POP POP POP POP POP JUMP JUMPDEST PUSH1 0xA0 DUP2 MSTORE PUSH1 0x0 PUSH2 0x780C PUSH1 0xA0 DUP4 ADD DUP9 PUSH2 0x6EB5 JUMP JUMPDEST PUSH1 0x1 PUSH1 0x1 PUSH1 0xA0 SHL SUB SWAP7 DUP8 AND PUSH1 0x20 DUP5 ADD MSTORE PUSH1 0x40 DUP4 ADD SWAP6 SWAP1 SWAP6 MSTORE POP SWAP2 SWAP1 SWAP4 AND PUSH1 0x60 DUP3 ADD MSTORE SWAP2 ISZERO ISZERO PUSH1 0x80 SWAP1 SWAP3 ADD SWAP2 SWAP1 SWAP2 MSTORE SWAP2 SWAP1 POP JUMP JUMPDEST PUSH1 0x0 DUP1 PUSH1 0x0 PUSH1 0x60 DUP5 DUP7 SUB SLT ISZERO PUSH2 0x7854 JUMPI PUSH1 0x0 DUP1 REVERT JUMPDEST DUP4 CALLDATALOAD PUSH1 0x1 PUSH1 0x1 PUSH1 0x40 SHL SUB DUP1 DUP3 GT ISZERO PUSH2 0x786B JUMPI PUSH1 0x0 DUP1 REVERT JUMPDEST PUSH2 0x7877 DUP8 DUP4 DUP9 ADD PUSH2 0x6F9B JUMP JUMPDEST SWAP5 POP PUSH2 0x7885 PUSH1 0x20 DUP8 ADD PUSH2 0x6E4B JUMP JUMPDEST SWAP4 POP PUSH1 0x40 DUP7 ADD CALLDATALOAD SWAP2 POP DUP1 DUP3 GT ISZERO PUSH2 0x789B JUMPI PUSH1 0x0 DUP1 REVERT JUMPDEST POP PUSH2 0x78A8 DUP7 DUP3 DUP8 ADD PUSH2 0x6F9B JUMP JUMPDEST SWAP2 POP POP SWAP3 POP SWAP3 POP SWAP3 JUMP JUMPDEST PUSH1 0xA0 DUP2 MSTORE PUSH1 0x0 PUSH2 0x78C5 PUSH1 0xA0 DUP4 ADD DUP9 PUSH2 0x6EB5 JUMP JUMPDEST PUSH1 0x20 DUP4 ADD SWAP7 SWAP1 SWAP7 MSTORE POP PUSH1 0x40 DUP2 ADD SWAP4 SWAP1 SWAP4 MSTORE PUSH1 0x1 PUSH1 0x1 PUSH1 0xA0 SHL SUB SWAP2 SWAP1 SWAP2 AND PUSH1 0x60 DUP4 ADD MSTORE ISZERO ISZERO PUSH1 0x80 SWAP1 SWAP2 ADD MSTORE SWAP2 SWAP1 POP JUMP JUMPDEST DUP7 ISZERO ISZERO DUP2 MSTORE PUSH1 0x1 PUSH1 0x1 PUSH1 0xA0 SHL SUB DUP7 DUP2 AND PUSH1 0x20 DUP4 ADD MSTORE DUP6 AND PUSH1 0x40 DUP3 ADD MSTORE PUSH1 0xC0 PUSH1 0x60 DUP3 ADD DUP2 SWAP1 MSTORE PUSH1 0x0 SWAP1 PUSH2 0x7928 SWAP1 DUP4 ADD DUP7 PUSH2 0x6EB5 JUMP JUMPDEST PUSH1 0x80 DUP4 ADD SWAP5 SWAP1 SWAP5 MSTORE POP PUSH1 0xA0 ADD MSTORE SWAP5 SWAP4 POP POP POP POP JUMP JUMPDEST PUSH1 0x1 DUP2 DUP2 SHR SWAP1 DUP3 AND DUP1 PUSH2 0x7951 JUMPI PUSH1 0x7F DUP3 AND SWAP2 POP JUMPDEST PUSH1 0x20 DUP3 LT DUP2 SUB PUSH2 0x7971 JUMPI PUSH4 0x4E487B71 PUSH1 0xE0 SHL PUSH1 0x0 MSTORE PUSH1 0x22 PUSH1 0x4 MSTORE PUSH1 0x24 PUSH1 0x0 REVERT JUMPDEST POP SWAP2 SWAP1 POP JUMP JUMPDEST PUSH1 0x0 DUP3 MLOAD PUSH2 0x7989 DUP2 DUP5 PUSH1 0x20 DUP8 ADD PUSH2 0x6E91 JUMP JUMPDEST SWAP2 SWAP1 SWAP2 ADD SWAP3 SWAP2 POP POP JUMP JUMPDEST PUSH1 0x20 DUP1 DUP3 MSTORE PUSH1 0x13 SWAP1 DUP3 ADD MSTORE PUSH19 0x149958DBDC99081B9BDD08185B98DA1BDC9959 PUSH1 0x6A SHL PUSH1 0x40 DUP3 ADD MSTORE PUSH1 0x60 ADD SWAP1 JUMP JUMPDEST PUSH4 0x4E487B71 PUSH1 0xE0 SHL PUSH1 0x0 MSTORE PUSH1 0x32 PUSH1 0x4 MSTORE PUSH1 0x24 PUSH1 0x0 REVERT JUMPDEST PUSH1 0xA0 DUP2 ADD PUSH2 0x79E4 DUP3 DUP9 PUSH2 0x7327 JUMP JUMPDEST PUSH2 0x79F1 PUSH1 0x20 DUP4 ADD DUP8 PUSH2 0x7327 JUMP JUMPDEST PUSH2 0x79FE PUSH1 0x40 DUP4 ADD DUP7 PUSH2 0x7337 JUMP JUMPDEST PUSH2 0x7A0B PUSH1 0x60 DUP4 ADD DUP6 PUSH2 0x7337 JUMP JUMPDEST DUP3 PUSH1 0x80 DUP4 ADD MSTORE SWAP7 SWAP6 POP POP POP POP POP POP JUMP JUMPDEST PUSH1 0x20 DUP1 DUP3 MSTORE PUSH1 0x19 SWAP1 DUP3 ADD MSTORE PUSH32 0x5265636F72642049442063616E6E6F7420626520656D70747900000000000000 PUSH1 0x40 DUP3 ADD MSTORE PUSH1 0x60 ADD SWAP1 JUMP JUMPDEST PUSH1 0x0 DUP4 MLOAD PUSH2 0x7A64 DUP2 DUP5 PUSH1 0x20 DUP9 ADD PUSH2 0x6E91 JUMP JUMPDEST PUSH1 0x60 SWAP4 SWAP1 SWAP4 SHL PUSH12 0xFFFFFFFFFFFFFFFFFFFFFFFF NOT AND SWAP2 SWAP1 SWAP3 ADD SWAP1 DUP2 MSTORE PUSH1 0x14 ADD SWAP3 SWAP2 POP POP JUMP JUMPDEST PUSH1 0x20 DUP1 DUP3 MSTORE PUSH1 0x18 SWAP1 DUP3 ADD MSTORE PUSH32 0x4E6F2061636365737320746F2074686973207265636F72640000000000000000 PUSH1 0x40 DUP3 ADD MSTORE PUSH1 0x60 ADD SWAP1 JUMP JUMPDEST PUSH1 0x1F DUP3 GT ISZERO PUSH2 0x21B4 JUMPI PUSH1 0x0 DUP2 DUP2 MSTORE PUSH1 0x20 DUP2 KECCAK256 PUSH1 0x1F DUP6 ADD PUSH1 0x5 SHR DUP2 ADD PUSH1 0x20 DUP7 LT ISZERO PUSH2 0x7AE7 JUMPI POP DUP1 JUMPDEST PUSH1 0x1F DUP6 ADD PUSH1 0x5 SHR DUP3 ADD SWAP2 POP JUMPDEST DUP2 DUP2 LT ISZERO PUSH2 0x7B06 JUMPI DUP3 DUP2 SSTORE PUSH1 0x1 ADD PUSH2 0x7AF3 JUMP JUMPDEST POP POP POP POP POP POP JUMP JUMPDEST DUP2 MLOAD PUSH1 0x1 PUSH1 0x1 PUSH1 0x40 SHL SUB DUP2 GT ISZERO PUSH2 0x7B27 JUMPI PUSH2 0x7B27 PUSH2 0x6F85 JUMP JUMPDEST PUSH2 0x7B3B DUP2 PUSH2 0x7B35 DUP5 SLOAD PUSH2 0x793D JUMP JUMPDEST DUP5 PUSH2 0x7AC0 JUMP JUMPDEST PUSH1 0x20 DUP1 PUSH1 0x1F DUP4 GT PUSH1 0x1 DUP2 EQ PUSH2 0x7B70 JUMPI PUSH1 0x0 DUP5 ISZERO PUSH2 0x7B58 JUMPI POP DUP6 DUP4 ADD MLOAD JUMPDEST PUSH1 0x0 NOT PUSH1 0x3 DUP7 SWAP1 SHL SHR NOT AND PUSH1 0x1 DUP6 SWAP1 SHL OR DUP6 SSTORE PUSH2 0x7B06 JUMP JUMPDEST PUSH1 0x0 DUP6 DUP2 MSTORE PUSH1 0x20 DUP2 KECCAK256 PUSH1 0x1F NOT DUP7 AND SWAP2 JUMPDEST DUP3 DUP2 LT ISZERO PUSH2 0x7B9F JUMPI DUP9 DUP7 ADD MLOAD DUP3 SSTORE SWAP5 DUP5 ADD SWAP5 PUSH1 0x1 SWAP1 SWAP2 ADD SWAP1 DUP5 ADD PUSH2 0x7B80 JUMP JUMPDEST POP DUP6 DUP3 LT ISZERO PUSH2 0x7BBD JUMPI DUP8 DUP6 ADD MLOAD PUSH1 0x0 NOT PUSH1 0x3 DUP9 SWAP1 SHL PUSH1 0xF8 AND SHR NOT AND DUP2 SSTORE JUMPDEST POP POP POP POP POP PUSH1 0x1 SWAP1 DUP2 SHL ADD SWAP1 SSTORE POP JUMP JUMPDEST PUSH4 0x4E487B71 PUSH1 0xE0 SHL PUSH1 0x0 MSTORE PUSH1 0x11 PUSH1 0x4 MSTORE PUSH1 0x24 PUSH1 0x0 REVERT JUMPDEST PUSH1 0x0 PUSH1 0x1 DUP3 ADD PUSH2 0x7BF5 JUMPI PUSH2 0x7BF5 PUSH2 0x7BCD JUMP JUMPDEST POP PUSH1 0x1 ADD SWAP1 JUMP JUMPDEST PUSH1 0x40 DUP2 MSTORE PUSH1 0x0 PUSH2 0x7C0F PUSH1 0x40 DUP4 ADD DUP6 PUSH2 0x6EB5 JUMP JUMPDEST SWAP1 POP DUP3 PUSH1 0x20 DUP4 ADD MSTORE SWAP4 SWAP3 POP POP POP JUMP JUMPDEST PUSH1 0x20 DUP1 DUP3 MSTORE PUSH1 0xA SWAP1 DUP3 ADD MSTORE PUSH10 0x27B7363C9030B236B4B7 PUSH1 0xB1 SHL PUSH1 0x40 DUP3 ADD MSTORE PUSH1 0x60 ADD SWAP1 JUMP JUMPDEST PUSH1 0x60 DUP2 ADD PUSH2 0x7C50 DUP3 DUP7 PUSH2 0x6F25 JUMP JUMPDEST PUSH2 0x742F PUSH1 0x20 DUP4 ADD DUP6 PUSH2 0x6F25 JUMP JUMPDEST PUSH1 0x20 DUP1 DUP3 MSTORE PUSH1 0x1B SWAP1 DUP3 ADD MSTORE PUSH32 0x5573657220616464726573732063616E6E6F74206265207A65726F0000000000 PUSH1 0x40 DUP3 ADD MSTORE PUSH1 0x60 ADD SWAP1 JUMP JUMPDEST PUSH1 0x20 DUP1 DUP3 MSTORE PUSH1 0x21 SWAP1 DUP3 ADD MSTORE PUSH32 0x5573657220646F6573206E6F74206861766520616E2061637469766520726F6C PUSH1 0x40 DUP3 ADD MSTORE PUSH1 0x65 PUSH1 0xF8 SHL PUSH1 0x60 DUP3 ADD MSTORE PUSH1 0x80 ADD SWAP1 JUMP JUMPDEST PUSH1 0x40 DUP2 ADD PUSH2 0x7CE3 DUP3 DUP6 PUSH2 0x7317 JUMP JUMPDEST DUP3 PUSH1 0x20 DUP4 ADD MSTORE SWAP4 SWAP3 POP POP POP JUMP JUMPDEST PUSH1 0x20 DUP1 DUP3 MSTORE PUSH1 0x36 SWAP1 DUP3 ADD MSTORE PUSH32 0x496E76616C696420726F6C652E204D7573742062653A206F776E65722C206164 PUSH1 0x40 DUP3 ADD MSTORE PUSH22 0x36B4B734B9BA3930BA37B9161037B9103B34B2BBB2B9 PUSH1 0x51 SHL PUSH1 0x60 DUP3 ADD MSTORE PUSH1 0x80 ADD SWAP1 JUMP JUMPDEST PUSH1 0x60 DUP2 MSTORE PUSH1 0x0 PUSH2 0x7D59 PUSH1 0x60 DUP4 ADD DUP7 PUSH2 0x6EB5 JUMP JUMPDEST DUP3 DUP2 SUB PUSH1 0x20 DUP5 ADD MSTORE PUSH2 0x7D6B DUP2 DUP7 PUSH2 0x6EB5 JUMP JUMPDEST SWAP2 POP POP DUP3 PUSH1 0x40 DUP4 ADD MSTORE SWAP5 SWAP4 POP POP POP POP JUMP JUMPDEST PUSH1 0x40 DUP2 MSTORE PUSH1 0x0 DUP1 DUP5 SLOAD PUSH2 0x7D8E DUP2 PUSH2 0x793D JUMP JUMPDEST DUP1 PUSH1 0x40 DUP7 ADD MSTORE PUSH1 0x60 PUSH1 0x1 DUP1 DUP5 AND PUSH1 0x0 DUP2 EQ PUSH2 0x7DB0 JUMPI PUSH1 0x1 DUP2 EQ PUSH2 0x7DCA JUMPI PUSH2 0x7DFB JUMP JUMPDEST PUSH1 0xFF NOT DUP6 AND DUP9 DUP5 ADD MSTORE DUP4 ISZERO ISZERO PUSH1 0x5 SHL DUP9 ADD DUP4 ADD SWAP6 POP PUSH2 0x7DFB JUMP JUMPDEST DUP10 PUSH1 0x0 MSTORE PUSH1 0x20 DUP1 PUSH1 0x0 KECCAK256 PUSH1 0x0 JUMPDEST DUP7 DUP2 LT ISZERO PUSH2 0x7DF2 JUMPI DUP2 SLOAD DUP12 DUP3 ADD DUP8 ADD MSTORE SWAP1 DUP5 ADD SWAP1 DUP3 ADD PUSH2 0x7DD7 JUMP JUMPDEST DUP11 ADD DUP6 ADD SWAP8 POP POP POP JUMPDEST POP POP POP POP POP PUSH1 0x20 SWAP3 SWAP1 SWAP3 ADD SWAP3 SWAP1 SWAP3 MSTORE SWAP3 SWAP2 POP POP JUMP JUMPDEST PUSH1 0x80 DUP2 ADD PUSH2 0x7E1E DUP3 DUP8 PUSH2 0x7317 JUMP JUMPDEST PUSH2 0x7E2B PUSH1 0x20 DUP4 ADD DUP7 PUSH2 0x7327 JUMP JUMPDEST PUSH2 0x6F5D PUSH1 0x40 DUP4 ADD DUP6 PUSH2 0x7337 JUMP JUMPDEST DUP2 DUP2 SUB DUP2 DUP2 GT ISZERO PUSH2 0x121F JUMPI PUSH2 0x121F PUSH2 0x7BCD JUMP JUMPDEST PUSH4 0x4E487B71 PUSH1 0xE0 SHL PUSH1 0x0 MSTORE PUSH1 0x31 PUSH1 0x4 MSTORE PUSH1 0x24 PUSH1 0x0 REVERT INVALID 0x4F PUSH15 0x6C79206F776E65727320616E642061 PUSH5 0x6D696E6973 PUSH21 0x7261746F72732063EDFCEF5EDFC1A7AE49C5B2F4D3 0xA9 0xBC 0x2C DIV 0x5F DUP9 PUSH29 0x2D4FB28DDDD675E12DD1E1F3FDFE97C95A948E0F2FD9761961CD90B0B3 0xE4 PUSH16 0xA8E9B10A6D98E30F2C837FBF40B9F092 0xE3 0xB1 0xEC 0xC5 CALL PUSH8 0x49A6A275C159EAD9 0xCF 0x21 PUSH11 0x95A0B902D2F260F98F91B9 LOG0 CHAINID 0xF PUSH14 0x1C4E133A0E98B6595D8A3EA61526 ADDRESS 0xDE SWAP6 PUSH11 0x5F46FD2D0D9F06706E4660 LOG2 PUSH5 0x6970667358 0x22 SLT KECCAK256 PUSH15 0x6C6A0C8DE0D03B69BC07FD4EBFBF4 SWAP12 JUMPI DIV EXTCODESIZE ISZERO EQ JUMPI 0xE2 SLT SWAP7 0xD9 PUSH24 0xBC96F2DC64736F6C63430008130033000000000000000000 "},"methodIdentifiers":{"accessPermissions(string)":"3aaaaf88","addMember(address,bytes32)":"49df7208","admin()":"f851a440","adminsByRecord(string,uint256)":"e965bfb7","anchorRecord(string,string,address)":"19c61953","anchoredRecords(string)":"7ea79e9c","changeRole(string,address,string)":"daa9dc23","checkAccess(string)":"f6cc55f9","disputeReactions(string,address,uint256)":"328c5aa1","disputeRecord(string,uint8,uint8,string)":"1af43c91","disputesByUser(address,uint256)":"03635170","getAnchoredRecord(string)":"b5d3bc05","getDisputeReactionStats(string,address)":"3cfbc7cb","getDisputeReactions(string,address)":"1655408d","getHashesByRecordId(string)":"81c86b33","getMember(address)":"2ada2596","getPermissionsByReceiver(address)":"f25b7f45","getPermissionsBySharer(address)":"86c097f7","getRecordAdmins(string)":"3dd1e8fc","getRecordOwners(string)":"1a95aca5","getRecordRoleStats(string)":"41d8bde3","getRecordSubject(string)":"ad6f0281","getRecordViewers(string)":"510b3003","getRecordsAboutSubject(address)":"c542ef40","getRecordsByUser(address)":"57ac40c3","getReviewStats(string)":"3ecd54be","getReviews(string)":"2978465d","getRoleDetails(string,address)":"eb2bbf25","getSharerStats(address)":"6b032610","getTotalPermissions()":"37811534","getTotalRoles()":"4b6feb7c","getTotalStats()":"fc5cbf1d","getUserAttestationHistory(address)":"1eb4bb87","getUserDisputes(address)":"bfb0a55b","getUserReview(string,address)":"a5a6958e","getUserVerifications(address)":"1469fab7","getWalletByUserIdHash(bytes32)":"09012a86","grantAccess(string,string,address)":"3935b076","grantRole(string,address,string)":"bb20b172","hasReactedToDispute(string,address,address)":"8625d384","hasReviewed(string,address)":"80fcd817","hasRole(string,address,string)":"cabdd23f","initializeRecordRole(string,address)":"7798e780","isActiveMember(address)":"45ecd02f","isOwnerOrAdmin(string,address)":"a0ca13c3","isSubject(string,address)":"291c2b16","members(address)":"08ae4b0c","modifyDispute(string,uint8,uint8)":"10a0e88a","ownersByRecord(string,uint256)":"970ee5b9","permissionsByReceiver(address,uint256)":"bed6e79e","permissionsBySharer(address,uint256)":"3a779568","reactToDispute(string,address,bool)":"9e90e34a","recordHashesByRecordId(string,uint256)":"e589425e","recordReviews(string,uint256)":"889a7eee","recordRoles(bytes32)":"33105592","recordsAboutSubject(address,uint256)":"a0653611","recordsByUser(address,uint256)":"0c6de840","retractReview(string)":"b10e4a0b","revokeAccess(string)":"fb310c59","revokeRole(string,address)":"731f21a0","setMemberStatus(address,uint8)":"6e715743","totalAnchoredRecords()":"1cf8cbe8","totalMembers()":"76e92559","totalPermissions()":"2ec1ca8a","totalReviews()":"e2367890","totalRoles()":"790e118c","transferAdmin(address)":"75829def","userIdHashToAddress(bytes32)":"9020666b","userReviewIndex(string,address)":"e0f3e86e","verificationsByUser(address,uint256)":"47580b56","verifyRecord(string,string)":"3de2e8e9","viewersByRecord(string,uint256)":"b55aefcc","voluntarilyRemoveOwnOwnership(string)":"aa85bf3f"}}}}}