{"contracts/HealthRecordCore.sol":{"HealthRecordCore":{"abi":[{"inputs":[{"internalType":"address","name":"_memberRoleManager","type":"address"}],"stateMutability":"nonpayable","type":"constructor"},{"anonymous":false,"inputs":[{"indexed":true,"internalType":"address","name":"oldAdmin","type":"address"},{"indexed":true,"internalType":"address","name":"newAdmin","type":"address"},{"indexed":false,"internalType":"uint256","name":"timestamp","type":"uint256"}],"name":"AdminTransferred","type":"event"},{"anonymous":false,"inputs":[{"indexed":true,"internalType":"string","name":"recordHash","type":"string"},{"indexed":true,"internalType":"bytes32","name":"disputerIdHash","type":"bytes32"},{"indexed":false,"internalType":"enum HealthRecordCore.DisputeSeverity","name":"oldSeverity","type":"uint8"},{"indexed":false,"internalType":"enum HealthRecordCore.DisputeSeverity","name":"newSeverity","type":"uint8"},{"indexed":false,"internalType":"enum HealthRecordCore.DisputeCulpability","name":"oldCulpability","type":"uint8"},{"indexed":false,"internalType":"enum HealthRecordCore.DisputeCulpability","name":"newCulpability","type":"uint8"},{"indexed":false,"internalType":"uint256","name":"timestamp","type":"uint256"}],"name":"DisputeModification","type":"event"},{"anonymous":false,"inputs":[{"indexed":true,"internalType":"string","name":"recordHash","type":"string"},{"indexed":true,"internalType":"bytes32","name":"reactorIdHash","type":"bytes32"},{"indexed":true,"internalType":"bytes32","name":"disputerIdHash","type":"bytes32"},{"indexed":false,"internalType":"bool","name":"supportsDispute","type":"bool"},{"indexed":false,"internalType":"uint256","name":"timestamp","type":"uint256"}],"name":"DisputeReaction","type":"event"},{"anonymous":false,"inputs":[{"indexed":true,"internalType":"string","name":"recordHash","type":"string"},{"indexed":true,"internalType":"bytes32","name":"disputerIdHash","type":"bytes32"},{"indexed":false,"internalType":"uint256","name":"timestamp","type":"uint256"}],"name":"DisputeRetracted","type":"event"},{"anonymous":false,"inputs":[{"indexed":true,"internalType":"string","name":"recordHash","type":"string"},{"indexed":true,"internalType":"bytes32","name":"reactorIdHash","type":"bytes32"},{"indexed":true,"internalType":"bytes32","name":"disputerIdHash","type":"bytes32"},{"indexed":false,"internalType":"bool","name":"oldSupport","type":"bool"},{"indexed":false,"internalType":"bool","name":"newSupport","type":"bool"},{"indexed":false,"internalType":"uint256","name":"timestamp","type":"uint256"}],"name":"ReactionModified","type":"event"},{"anonymous":false,"inputs":[{"indexed":true,"internalType":"string","name":"recordHash","type":"string"},{"indexed":true,"internalType":"bytes32","name":"reactorIdHash","type":"bytes32"},{"indexed":true,"internalType":"bytes32","name":"disputerIdHash","type":"bytes32"},{"indexed":false,"internalType":"uint256","name":"timestamp","type":"uint256"}],"name":"ReactionRetracted","type":"event"},{"anonymous":false,"inputs":[{"indexed":true,"internalType":"string","name":"recordId","type":"string"},{"indexed":true,"internalType":"string","name":"recordHash","type":"string"},{"indexed":true,"internalType":"bytes32","name":"subjectIdHash","type":"bytes32"},{"indexed":false,"internalType":"uint256","name":"timestamp","type":"uint256"}],"name":"RecordAnchored","type":"event"},{"anonymous":false,"inputs":[{"indexed":true,"internalType":"string","name":"recordHash","type":"string"},{"indexed":true,"internalType":"string","name":"recordId","type":"string"},{"indexed":true,"internalType":"bytes32","name":"disputerIdHash","type":"bytes32"},{"indexed":false,"internalType":"enum HealthRecordCore.DisputeSeverity","name":"severity","type":"uint8"},{"indexed":false,"internalType":"enum HealthRecordCore.DisputeCulpability","name":"culpability","type":"uint8"},{"indexed":false,"internalType":"uint256","name":"timestamp","type":"uint256"}],"name":"RecordDisputed","type":"event"},{"anonymous":false,"inputs":[{"indexed":true,"internalType":"string","name":"recordId","type":"string"},{"indexed":true,"internalType":"string","name":"newHash","type":"string"},{"indexed":false,"internalType":"bytes32","name":"addedBy","type":"bytes32"},{"indexed":false,"internalType":"uint256","name":"timestamp","type":"uint256"}],"name":"RecordHashAdded","type":"event"},{"anonymous":false,"inputs":[{"indexed":true,"internalType":"string","name":"recordId","type":"string"},{"indexed":true,"internalType":"string","name":"recordHash","type":"string"},{"indexed":false,"internalType":"uint256","name":"timestamp","type":"uint256"}],"name":"RecordHashRetracted","type":"event"},{"anonymous":false,"inputs":[{"indexed":true,"internalType":"string","name":"recordId","type":"string"},{"indexed":true,"internalType":"bytes32","name":"subjectIdHash","type":"bytes32"},{"indexed":false,"internalType":"uint256","name":"timestamp","type":"uint256"}],"name":"RecordReanchored","type":"event"},{"anonymous":false,"inputs":[{"indexed":true,"internalType":"string","name":"recordId","type":"string"},{"indexed":true,"internalType":"bytes32","name":"subjectIdHash","type":"bytes32"},{"indexed":false,"internalType":"uint256","name":"timestamp","type":"uint256"}],"name":"RecordUnanchored","type":"event"},{"anonymous":false,"inputs":[{"indexed":true,"internalType":"string","name":"recordHash","type":"string"},{"indexed":true,"internalType":"string","name":"recordId","type":"string"},{"indexed":true,"internalType":"bytes32","name":"verifierIdHash","type":"bytes32"},{"indexed":false,"internalType":"enum HealthRecordCore.VerificationLevel","name":"level","type":"uint8"},{"indexed":false,"internalType":"uint256","name":"timestamp","type":"uint256"}],"name":"RecordVerified","type":"event"},{"anonymous":false,"inputs":[{"indexed":true,"internalType":"bytes32","name":"subjectIdHash","type":"bytes32"},{"indexed":true,"internalType":"string","name":"recordId","type":"string"},{"indexed":true,"internalType":"string","name":"noteHash","type":"string"},{"indexed":false,"internalType":"uint256","name":"flagIndex","type":"uint256"},{"indexed":false,"internalType":"uint256","name":"timestamp","type":"uint256"}],"name":"UnacceptedUpdateFlagged","type":"event"},{"anonymous":false,"inputs":[{"indexed":true,"internalType":"bytes32","name":"subjectIdHash","type":"bytes32"},{"indexed":true,"internalType":"uint256","name":"flagIndex","type":"uint256"},{"indexed":false,"internalType":"enum HealthRecordCore.ResolutionType","name":"resolution","type":"uint8"},{"indexed":false,"internalType":"uint256","name":"timestamp","type":"uint256"}],"name":"UnacceptedUpdateResolved","type":"event"},{"anonymous":false,"inputs":[{"indexed":true,"internalType":"string","name":"recordHash","type":"string"},{"indexed":true,"internalType":"bytes32","name":"verifierIdHash","type":"bytes32"},{"indexed":false,"internalType":"enum HealthRecordCore.VerificationLevel","name":"oldLevel","type":"uint8"},{"indexed":false,"internalType":"enum HealthRecordCore.VerificationLevel","name":"newLevel","type":"uint8"},{"indexed":false,"internalType":"uint256","name":"timestamp","type":"uint256"}],"name":"VerificationLevelModified","type":"event"},{"anonymous":false,"inputs":[{"indexed":true,"internalType":"string","name":"recordHash","type":"string"},{"indexed":true,"internalType":"bytes32","name":"verifierIdHash","type":"bytes32"},{"indexed":false,"internalType":"uint256","name":"timestamp","type":"uint256"}],"name":"VerificationRetracted","type":"event"},{"inputs":[{"internalType":"bytes32","name":"","type":"bytes32"}],"name":"activeUnacceptedFlagCount","outputs":[{"internalType":"uint256","name":"","type":"uint256"}],"stateMutability":"view","type":"function"},{"inputs":[{"internalType":"string","name":"recordId","type":"string"},{"internalType":"string","name":"newHash","type":"string"}],"name":"addRecordHash","outputs":[],"stateMutability":"nonpayable","type":"function"},{"inputs":[],"name":"admin","outputs":[{"internalType":"address","name":"","type":"address"}],"stateMutability":"view","type":"function"},{"inputs":[{"internalType":"string","name":"recordId","type":"string"},{"internalType":"string","name":"recordHash","type":"string"}],"name":"anchorRecord","outputs":[],"stateMutability":"nonpayable","type":"function"},{"inputs":[{"internalType":"string","name":"","type":"string"},{"internalType":"bytes32","name":"","type":"bytes32"}],"name":"currentlyDisputed","outputs":[{"internalType":"bool","name":"","type":"bool"}],"stateMutability":"view","type":"function"},{"inputs":[{"internalType":"string","name":"","type":"string"},{"internalType":"bytes32","name":"","type":"bytes32"},{"internalType":"bytes32","name":"","type":"bytes32"}],"name":"currentlyReacted","outputs":[{"internalType":"bool","name":"","type":"bool"}],"stateMutability":"view","type":"function"},{"inputs":[{"internalType":"string","name":"","type":"string"},{"internalType":"bytes32","name":"","type":"bytes32"}],"name":"currentlyVerified","outputs":[{"internalType":"bool","name":"","type":"bool"}],"stateMutability":"view","type":"function"},{"inputs":[{"internalType":"string","name":"","type":"string"},{"internalType":"bytes32","name":"","type":"bytes32"}],"name":"disputeIndex","outputs":[{"internalType":"uint256","name":"","type":"uint256"}],"stateMutability":"view","type":"function"},{"inputs":[{"internalType":"string","name":"","type":"string"},{"internalType":"bytes32","name":"","type":"bytes32"},{"internalType":"uint256","name":"","type":"uint256"}],"name":"disputeReactions","outputs":[{"internalType":"bytes32","name":"reactorIdHash","type":"bytes32"},{"internalType":"bool","name":"supportsDispute","type":"bool"},{"internalType":"uint256","name":"timestamp","type":"uint256"},{"internalType":"bool","name":"isActive","type":"bool"}],"stateMutability":"view","type":"function"},{"inputs":[{"internalType":"string","name":"recordId","type":"string"},{"internalType":"string","name":"recordHash","type":"string"},{"internalType":"uint8","name":"severity","type":"uint8"},{"internalType":"uint8","name":"culpability","type":"uint8"},{"internalType":"string","name":"notes","type":"string"}],"name":"disputeRecord","outputs":[],"stateMutability":"nonpayable","type":"function"},{"inputs":[{"internalType":"string","name":"","type":"string"},{"internalType":"uint256","name":"","type":"uint256"}],"name":"disputes","outputs":[{"internalType":"bytes32","name":"disputerIdHash","type":"bytes32"},{"internalType":"string","name":"recordId","type":"string"},{"internalType":"enum HealthRecordCore.DisputeSeverity","name":"severity","type":"uint8"},{"internalType":"enum HealthRecordCore.DisputeCulpability","name":"culpability","type":"uint8"},{"internalType":"string","name":"notes","type":"string"},{"internalType":"uint256","name":"createdAt","type":"uint256"},{"internalType":"bool","name":"isActive","type":"bool"}],"stateMutability":"view","type":"function"},{"inputs":[{"internalType":"bytes32","name":"","type":"bytes32"},{"internalType":"uint256","name":"","type":"uint256"}],"name":"disputesByUser","outputs":[{"internalType":"string","name":"","type":"string"}],"stateMutability":"view","type":"function"},{"inputs":[{"internalType":"string","name":"recordHash","type":"string"}],"name":"doesHashExist","outputs":[{"internalType":"bool","name":"","type":"bool"}],"stateMutability":"view","type":"function"},{"inputs":[{"internalType":"bytes32","name":"subjectIdHash","type":"bytes32"},{"internalType":"string","name":"recordId","type":"string"},{"internalType":"string","name":"noteHash","type":"string"}],"name":"flagUnacceptedUpdate","outputs":[],"stateMutability":"nonpayable","type":"function"},{"inputs":[{"internalType":"string","name":"recordId","type":"string"}],"name":"getActiveRecordSubjects","outputs":[{"internalType":"bytes32[]","name":"","type":"bytes32[]"}],"stateMutability":"view","type":"function"},{"inputs":[{"internalType":"bytes32","name":"userIdHash","type":"bytes32"}],"name":"getActiveSubjectMedicalHistory","outputs":[{"internalType":"string[]","name":"","type":"string[]"}],"stateMutability":"view","type":"function"},{"inputs":[{"internalType":"bytes32","name":"subjectIdHash","type":"bytes32"}],"name":"getActiveUnacceptedFlagCount","outputs":[{"internalType":"uint256","name":"","type":"uint256"}],"stateMutability":"view","type":"function"},{"inputs":[{"internalType":"string","name":"recordHash","type":"string"},{"internalType":"bytes32","name":"disputerIdHash","type":"bytes32"}],"name":"getDisputeReactions","outputs":[{"components":[{"internalType":"bytes32","name":"reactorIdHash","type":"bytes32"},{"internalType":"bool","name":"supportsDispute","type":"bool"},{"internalType":"uint256","name":"timestamp","type":"uint256"},{"internalType":"bool","name":"isActive","type":"bool"}],"internalType":"struct HealthRecordCore.Reaction[]","name":"","type":"tuple[]"}],"stateMutability":"view","type":"function"},{"inputs":[{"internalType":"string","name":"recordHash","type":"string"}],"name":"getDisputeStats","outputs":[{"internalType":"uint256","name":"total","type":"uint256"},{"internalType":"uint256","name":"active","type":"uint256"}],"stateMutability":"view","type":"function"},{"inputs":[{"internalType":"string","name":"recordHash","type":"string"}],"name":"getDisputeStatsBySeverity","outputs":[{"internalType":"uint256","name":"total","type":"uint256"},{"internalType":"uint256","name":"active","type":"uint256"},{"internalType":"uint256","name":"negligibleCount","type":"uint256"},{"internalType":"uint256","name":"moderateCount","type":"uint256"},{"internalType":"uint256","name":"majorCount","type":"uint256"}],"stateMutability":"view","type":"function"},{"inputs":[{"internalType":"string","name":"recordHash","type":"string"}],"name":"getDisputes","outputs":[{"components":[{"internalType":"bytes32","name":"disputerIdHash","type":"bytes32"},{"internalType":"string","name":"recordId","type":"string"},{"internalType":"enum HealthRecordCore.DisputeSeverity","name":"severity","type":"uint8"},{"internalType":"enum HealthRecordCore.DisputeCulpability","name":"culpability","type":"uint8"},{"internalType":"string","name":"notes","type":"string"},{"internalType":"uint256","name":"createdAt","type":"uint256"},{"internalType":"bool","name":"isActive","type":"bool"}],"internalType":"struct HealthRecordCore.Dispute[]","name":"","type":"tuple[]"}],"stateMutability":"view","type":"function"},{"inputs":[{"internalType":"string","name":"recordHash","type":"string"},{"internalType":"bytes32","name":"disputerIdHash","type":"bytes32"}],"name":"getReactionStats","outputs":[{"internalType":"uint256","name":"totalReactions","type":"uint256"},{"internalType":"uint256","name":"activeSupports","type":"uint256"},{"internalType":"uint256","name":"activeOpposes","type":"uint256"}],"stateMutability":"view","type":"function"},{"inputs":[{"internalType":"string","name":"recordHash","type":"string"}],"name":"getRecordHashReviewSummary","outputs":[{"internalType":"uint256","name":"activeVerifications","type":"uint256"},{"internalType":"uint256","name":"activeDisputes","type":"uint256"},{"internalType":"uint256","name":"verificationCount","type":"uint256"},{"internalType":"uint256","name":"disputeCount","type":"uint256"}],"stateMutability":"view","type":"function"},{"inputs":[{"internalType":"string","name":"recordHash","type":"string"}],"name":"getRecordIdForHash","outputs":[{"internalType":"string","name":"","type":"string"}],"stateMutability":"view","type":"function"},{"inputs":[{"internalType":"string","name":"recordId","type":"string"}],"name":"getRecordSubjects","outputs":[{"internalType":"bytes32[]","name":"","type":"bytes32[]"}],"stateMutability":"view","type":"function"},{"inputs":[{"internalType":"string","name":"recordId","type":"string"}],"name":"getRecordVersionHistory","outputs":[{"internalType":"string[]","name":"","type":"string[]"}],"stateMutability":"view","type":"function"},{"inputs":[{"internalType":"bytes32","name":"userIdHash","type":"bytes32"}],"name":"getSubjectMedicalHistory","outputs":[{"internalType":"string[]","name":"","type":"string[]"}],"stateMutability":"view","type":"function"},{"inputs":[{"internalType":"string","name":"recordId","type":"string"}],"name":"getSubjectStats","outputs":[{"internalType":"uint256","name":"total","type":"uint256"},{"internalType":"uint256","name":"active","type":"uint256"}],"stateMutability":"view","type":"function"},{"inputs":[],"name":"getTotalAnchoredRecords","outputs":[{"internalType":"uint256","name":"","type":"uint256"}],"stateMutability":"view","type":"function"},{"inputs":[],"name":"getTotalReviewStats","outputs":[{"internalType":"uint256","name":"verificationCount","type":"uint256"},{"internalType":"uint256","name":"disputeCount","type":"uint256"}],"stateMutability":"view","type":"function"},{"inputs":[],"name":"getTotalUnacceptedFlagStats","outputs":[{"internalType":"uint256","name":"","type":"uint256"}],"stateMutability":"view","type":"function"},{"inputs":[{"internalType":"bytes32","name":"subjectIdHash","type":"bytes32"},{"internalType":"uint256","name":"flagIndex","type":"uint256"}],"name":"getUnacceptedUpdateFlag","outputs":[{"internalType":"string","name":"recordId","type":"string"},{"internalType":"string","name":"noteHash","type":"string"},{"internalType":"uint256","name":"createdAt","type":"uint256"},{"internalType":"enum HealthRecordCore.ResolutionType","name":"resolution","type":"uint8"},{"internalType":"uint256","name":"resolvedAt","type":"uint256"},{"internalType":"bool","name":"isActive","type":"bool"}],"stateMutability":"view","type":"function"},{"inputs":[{"internalType":"bytes32","name":"subjectIdHash","type":"bytes32"}],"name":"getUnacceptedUpdateFlags","outputs":[{"components":[{"internalType":"string","name":"recordId","type":"string"},{"internalType":"string","name":"noteHash","type":"string"},{"internalType":"uint256","name":"createdAt","type":"uint256"},{"internalType":"enum HealthRecordCore.ResolutionType","name":"resolution","type":"uint8"},{"internalType":"uint256","name":"resolvedAt","type":"uint256"},{"internalType":"bool","name":"isActive","type":"bool"}],"internalType":"struct HealthRecordCore.UnacceptedUpdateFlag[]","name":"","type":"tuple[]"}],"stateMutability":"view","type":"function"},{"inputs":[{"internalType":"string","name":"recordHash","type":"string"},{"internalType":"bytes32","name":"userIdHash","type":"bytes32"}],"name":"getUserDispute","outputs":[{"internalType":"bool","name":"exists","type":"bool"},{"internalType":"string","name":"recordId","type":"string"},{"internalType":"enum HealthRecordCore.DisputeSeverity","name":"severity","type":"uint8"},{"internalType":"enum HealthRecordCore.DisputeCulpability","name":"culpability","type":"uint8"},{"internalType":"string","name":"notes","type":"string"},{"internalType":"uint256","name":"createdAt","type":"uint256"},{"internalType":"bool","name":"isActive","type":"bool"}],"stateMutability":"view","type":"function"},{"inputs":[{"internalType":"bytes32","name":"userIdHash","type":"bytes32"}],"name":"getUserDisputes","outputs":[{"internalType":"string[]","name":"","type":"string[]"}],"stateMutability":"view","type":"function"},{"inputs":[{"internalType":"string","name":"recordHash","type":"string"},{"internalType":"bytes32","name":"disputerIdHash","type":"bytes32"},{"internalType":"bytes32","name":"reactorIdHash","type":"bytes32"}],"name":"getUserReaction","outputs":[{"internalType":"bool","name":"exists","type":"bool"},{"internalType":"bool","name":"supportsDispute","type":"bool"},{"internalType":"uint256","name":"timestamp","type":"uint256"},{"internalType":"bool","name":"isActive","type":"bool"}],"stateMutability":"view","type":"function"},{"inputs":[{"internalType":"bytes32","name":"userIdHash","type":"bytes32"}],"name":"getUserReviewHistory","outputs":[{"internalType":"uint256","name":"userVerifications","type":"uint256"},{"internalType":"uint256","name":"userDisputes","type":"uint256"}],"stateMutability":"view","type":"function"},{"inputs":[{"internalType":"string","name":"recordHash","type":"string"},{"internalType":"bytes32","name":"userIdHash","type":"bytes32"}],"name":"getUserVerification","outputs":[{"internalType":"bool","name":"exists","type":"bool"},{"internalType":"string","name":"recordId","type":"string"},{"internalType":"enum HealthRecordCore.VerificationLevel","name":"level","type":"uint8"},{"internalType":"uint256","name":"createdAt","type":"uint256"},{"internalType":"bool","name":"isActive","type":"bool"}],"stateMutability":"view","type":"function"},{"inputs":[{"internalType":"bytes32","name":"userIdHash","type":"bytes32"}],"name":"getUserVerifications","outputs":[{"internalType":"string[]","name":"","type":"string[]"}],"stateMutability":"view","type":"function"},{"inputs":[{"internalType":"string","name":"recordHash","type":"string"}],"name":"getVerificationStats","outputs":[{"internalType":"uint256","name":"total","type":"uint256"},{"internalType":"uint256","name":"active","type":"uint256"}],"stateMutability":"view","type":"function"},{"inputs":[{"internalType":"string","name":"recordHash","type":"string"}],"name":"getVerificationStatsByLevel","outputs":[{"internalType":"uint256","name":"total","type":"uint256"},{"internalType":"uint256","name":"active","type":"uint256"},{"internalType":"uint256","name":"provenanceCount","type":"uint256"},{"internalType":"uint256","name":"contentCount","type":"uint256"},{"internalType":"uint256","name":"fullCount","type":"uint256"}],"stateMutability":"view","type":"function"},{"inputs":[{"internalType":"string","name":"recordHash","type":"string"}],"name":"getVerifications","outputs":[{"components":[{"internalType":"bytes32","name":"verifierIdHash","type":"bytes32"},{"internalType":"string","name":"recordId","type":"string"},{"internalType":"enum HealthRecordCore.VerificationLevel","name":"level","type":"uint8"},{"internalType":"uint256","name":"createdAt","type":"uint256"},{"internalType":"bool","name":"isActive","type":"bool"}],"internalType":"struct HealthRecordCore.Verification[]","name":"","type":"tuple[]"}],"stateMutability":"view","type":"function"},{"inputs":[{"internalType":"string","name":"recordId","type":"string"}],"name":"getVersionCount","outputs":[{"internalType":"uint256","name":"","type":"uint256"}],"stateMutability":"view","type":"function"},{"inputs":[{"internalType":"bytes32","name":"subjectIdHash","type":"bytes32"}],"name":"hasActiveUnacceptedFlags","outputs":[{"internalType":"bool","name":"","type":"bool"}],"stateMutability":"view","type":"function"},{"inputs":[{"internalType":"string","name":"recordHash","type":"string"},{"internalType":"bytes32","name":"userIdHash","type":"bytes32"}],"name":"hasUserDisputed","outputs":[{"internalType":"bool","name":"","type":"bool"}],"stateMutability":"view","type":"function"},{"inputs":[{"internalType":"string","name":"recordHash","type":"string"},{"internalType":"bytes32","name":"disputerIdHash","type":"bytes32"},{"internalType":"bytes32","name":"reactorIdHash","type":"bytes32"}],"name":"hasUserReacted","outputs":[{"internalType":"bool","name":"","type":"bool"}],"stateMutability":"view","type":"function"},{"inputs":[{"internalType":"string","name":"recordHash","type":"string"},{"internalType":"bytes32","name":"userIdHash","type":"bytes32"}],"name":"hasUserVerified","outputs":[{"internalType":"bool","name":"","type":"bool"}],"stateMutability":"view","type":"function"},{"inputs":[{"internalType":"string","name":"recordId","type":"string"},{"internalType":"bytes32","name":"userIdHash","type":"bytes32"}],"name":"isActiveSubject","outputs":[{"internalType":"bool","name":"","type":"bool"}],"stateMutability":"view","type":"function"},{"inputs":[{"internalType":"string","name":"","type":"string"}],"name":"isHashActive","outputs":[{"internalType":"bool","name":"","type":"bool"}],"stateMutability":"view","type":"function"},{"inputs":[{"internalType":"string","name":"recordId","type":"string"},{"internalType":"bytes32","name":"userIdHash","type":"bytes32"}],"name":"isSubject","outputs":[{"internalType":"bool","name":"","type":"bool"}],"stateMutability":"view","type":"function"},{"inputs":[{"internalType":"string","name":"","type":"string"},{"internalType":"bytes32","name":"","type":"bytes32"}],"name":"isSubjectActive","outputs":[{"internalType":"bool","name":"","type":"bool"}],"stateMutability":"view","type":"function"},{"inputs":[{"internalType":"string","name":"","type":"string"},{"internalType":"bytes32","name":"","type":"bytes32"}],"name":"isSubjectOfRecord","outputs":[{"internalType":"bool","name":"","type":"bool"}],"stateMutability":"view","type":"function"},{"inputs":[],"name":"memberRoleManager","outputs":[{"internalType":"contract MemberRoleManagerInterface","name":"","type":"address"}],"stateMutability":"view","type":"function"},{"inputs":[{"internalType":"string","name":"recordHash","type":"string"},{"internalType":"uint8","name":"newSeverity","type":"uint8"},{"internalType":"uint8","name":"newCulpability","type":"uint8"}],"name":"modifyDispute","outputs":[],"stateMutability":"nonpayable","type":"function"},{"inputs":[{"internalType":"string","name":"recordHash","type":"string"},{"internalType":"bytes32","name":"disputerIdHash","type":"bytes32"},{"internalType":"bool","name":"newSupport","type":"bool"}],"name":"modifyReaction","outputs":[],"stateMutability":"nonpayable","type":"function"},{"inputs":[{"internalType":"string","name":"recordHash","type":"string"},{"internalType":"uint8","name":"newLevel","type":"uint8"}],"name":"modifyVerificationLevel","outputs":[],"stateMutability":"nonpayable","type":"function"},{"inputs":[{"internalType":"string","name":"recordHash","type":"string"},{"internalType":"bytes32","name":"disputerIdHash","type":"bytes32"},{"internalType":"bool","name":"supportsDispute","type":"bool"}],"name":"reactToDispute","outputs":[],"stateMutability":"nonpayable","type":"function"},{"inputs":[{"internalType":"string","name":"","type":"string"},{"internalType":"bytes32","name":"","type":"bytes32"},{"internalType":"bytes32","name":"","type":"bytes32"}],"name":"reactionIndex","outputs":[{"internalType":"uint256","name":"","type":"uint256"}],"stateMutability":"view","type":"function"},{"inputs":[{"internalType":"string","name":"recordId","type":"string"}],"name":"reanchorRecord","outputs":[],"stateMutability":"nonpayable","type":"function"},{"inputs":[{"internalType":"string","name":"","type":"string"}],"name":"recordIdForHash","outputs":[{"internalType":"string","name":"","type":"string"}],"stateMutability":"view","type":"function"},{"inputs":[{"internalType":"string","name":"","type":"string"},{"internalType":"uint256","name":"","type":"uint256"}],"name":"recordSubjects","outputs":[{"internalType":"bytes32","name":"","type":"bytes32"}],"stateMutability":"view","type":"function"},{"inputs":[{"internalType":"string","name":"","type":"string"},{"internalType":"uint256","name":"","type":"uint256"}],"name":"recordVersionHistory","outputs":[{"internalType":"string","name":"","type":"string"}],"stateMutability":"view","type":"function"},{"inputs":[{"internalType":"bytes32","name":"subjectIdHash","type":"bytes32"},{"internalType":"uint256","name":"flagIndex","type":"uint256"},{"internalType":"enum HealthRecordCore.ResolutionType","name":"resolution","type":"uint8"}],"name":"resolveUnacceptedUpdate","outputs":[],"stateMutability":"nonpayable","type":"function"},{"inputs":[{"internalType":"string","name":"recordHash","type":"string"}],"name":"retractDispute","outputs":[],"stateMutability":"nonpayable","type":"function"},{"inputs":[{"internalType":"string","name":"recordHash","type":"string"},{"internalType":"bytes32","name":"disputerIdHash","type":"bytes32"}],"name":"retractReaction","outputs":[],"stateMutability":"nonpayable","type":"function"},{"inputs":[{"internalType":"string","name":"recordId","type":"string"},{"internalType":"string","name":"recordHash","type":"string"}],"name":"retractRecordHash","outputs":[],"stateMutability":"nonpayable","type":"function"},{"inputs":[{"internalType":"string","name":"recordHash","type":"string"}],"name":"retractVerification","outputs":[],"stateMutability":"nonpayable","type":"function"},{"inputs":[{"internalType":"address","name":"_memberRoleManager","type":"address"}],"name":"setMemberRoleManager","outputs":[],"stateMutability":"nonpayable","type":"function"},{"inputs":[{"internalType":"bytes32","name":"","type":"bytes32"},{"internalType":"uint256","name":"","type":"uint256"}],"name":"subjectMedicalHistory","outputs":[{"internalType":"string","name":"","type":"string"}],"stateMutability":"view","type":"function"},{"inputs":[],"name":"totalAnchoredRecords","outputs":[{"internalType":"uint256","name":"","type":"uint256"}],"stateMutability":"view","type":"function"},{"inputs":[],"name":"totalDisputes","outputs":[{"internalType":"uint256","name":"","type":"uint256"}],"stateMutability":"view","type":"function"},{"inputs":[],"name":"totalUnacceptedFlags","outputs":[{"internalType":"uint256","name":"","type":"uint256"}],"stateMutability":"view","type":"function"},{"inputs":[],"name":"totalVerifications","outputs":[{"internalType":"uint256","name":"","type":"uint256"}],"stateMutability":"view","type":"function"},{"inputs":[{"internalType":"address","name":"newAdmin","type":"address"}],"name":"transferAdmin","outputs":[],"stateMutability":"nonpayable","type":"function"},{"inputs":[{"internalType":"bytes32","name":"","type":"bytes32"},{"internalType":"uint256","name":"","type":"uint256"}],"name":"unacceptedUpdateFlags","outputs":[{"internalType":"string","name":"recordId","type":"string"},{"internalType":"string","name":"noteHash","type":"string"},{"internalType":"uint256","name":"createdAt","type":"uint256"},{"internalType":"enum HealthRecordCore.ResolutionType","name":"resolution","type":"uint8"},{"internalType":"uint256","name":"resolvedAt","type":"uint256"},{"internalType":"bool","name":"isActive","type":"bool"}],"stateMutability":"view","type":"function"},{"inputs":[{"internalType":"string","name":"recordId","type":"string"}],"name":"unanchorRecord","outputs":[],"stateMutability":"nonpayable","type":"function"},{"inputs":[{"internalType":"string","name":"","type":"string"},{"internalType":"bytes32","name":"","type":"bytes32"}],"name":"verificationIndex","outputs":[{"internalType":"uint256","name":"","type":"uint256"}],"stateMutability":"view","type":"function"},{"inputs":[{"internalType":"string","name":"","type":"string"},{"internalType":"uint256","name":"","type":"uint256"}],"name":"verifications","outputs":[{"internalType":"bytes32","name":"verifierIdHash","type":"bytes32"},{"internalType":"string","name":"recordId","type":"string"},{"internalType":"enum HealthRecordCore.VerificationLevel","name":"level","type":"uint8"},{"internalType":"uint256","name":"createdAt","type":"uint256"},{"internalType":"bool","name":"isActive","type":"bool"}],"stateMutability":"view","type":"function"},{"inputs":[{"internalType":"bytes32","name":"","type":"bytes32"},{"internalType":"uint256","name":"","type":"uint256"}],"name":"verificationsByUser","outputs":[{"internalType":"string","name":"","type":"string"}],"stateMutability":"view","type":"function"},{"inputs":[{"internalType":"string","name":"recordId","type":"string"},{"internalType":"string","name":"recordHash","type":"string"},{"internalType":"uint8","name":"level","type":"uint8"}],"name":"verifyRecord","outputs":[],"stateMutability":"nonpayable","type":"function"}],"evm":{"bytecode":{"linkReferences":{},"object":"608034620000d857601f6200633c38819003918201601f19168301916001600160401b03831184841017620000dd57808492602094604052833981010312620000d857516001600160a01b03811690819003620000d8578015620000895760018060a01b031990816000541617600055339060015416176001556040516162489081620000f48239f35b60405162461bcd60e51b815260206004820152602160248201527f496e76616c6964204d656d626572526f6c654d616e61676572206164647265736044820152607360f81b6064820152608490fd5b600080fd5b634e487b7160e01b600052604160045260246000fdfe6080604052600436101561001257600080fd5b60e0600035811c9081623297e41461524c57816301b4147d14611b1f57816305f5943914613e2b5781630a36148b1461524c5781630fbab50a14612a5357816310a0e88a14614fd85781631537070314614fb157816319bfe5f214614f785781631a6b3d2a14614f3f5781631aacda8814614d765781631b7cabb714614c665781631cf8cbe8146119025781631e59607a14614c415781631ec50c0e14614c0a57816321d9caaa14614b37578163223c3bb914614aed578163249dda2e146116bb57816325db354d14614ab95781632a4e0476146149035781632cb2c1e9146147605781632e6df698146146b05781632fa8db041461457b578163315ca5ba146144d9578163339a0aec146143f157816335c4c20314614193578163365348e9146141545781633f132dc114613f0f578163400f8d0614613e7a578163411ab58414613e2b5781634294e2ff14613c2a5781634b7c908a14613a9c5781634f893ed6146122c35781635203cbed146136c2578163533acffd146132045781635a18672e14612f855781635d12da5014612f515781635d28a34214612f235781636018200d14612e2c578163629be2b614612cbd5781636eb7457f14612c285781637286b6f914612b1757816375829def14612a8c57816380027ff614612a535781638295313114612886578163883080af146123fd5781638da1d369146123635781638e3ccbcf1461230857816398909e22146122c3578163a5f2d1d11461200a578163ac90c14014611fec578163ac92433614611720578163adcee10214611fb6578163b0c7363c14611f5e578163b27bb4d514611f28578163b48ac4d214611c8e578163b5e6b7a214611c3e578163c18cf8d214611bb6578163c282f4ab14611b76578163c5e4ccc414611b58578163c6bd157214611b1f578163c7695bab14611a96578163ca1e910a146119a957508063d08c800d14611920578063d46e082f14611902578063d4f7a4651461173e578063d5ba54e714611720578063d5be3001146116e7578063dbc7b842146116bb578063dd0bc08214611658578063e08f1ac3146115cf578063e11c45b7146111ee578063e2aae6e014610f51578063f251f8e414610e27578063f3ac2bea14610d96578063f5e7f9f414610cad578063f7c0d03314610aa4578063f851a44014610a7d578063f860a3a2146108e5578063f9f70c4a146108ae5763fd328f581461038e57600080fd5b3461082d5760a036600319011261082d5767ffffffffffffffff60043581811161082d576103c0903690600401615349565b90602491823582811161082d576103db903690600401615349565b6103e361542b565b906064359360ff8516850361082d5760843590811161082d5761040a903690600401615349565b6001600160a01b03600054166040516345ecd02f60e01b81523360048201526020818981855afa801561083a576104499160009161088f575b50615bd7565b60405190630286b6ab60e31b825260208280610469338a60048401615c22565b0381845afa90811561083a5761048b6020928a94600091610862575b50615c49565b61049787511515615e5f565b6104a385511515615eaa565b600160ff8716101580610854575b6104ba906157c2565b600160ff8916101580610846575b6104d19061580d565b6040519889809262b0c80960e01b82523360048301525afa96871561083a57600097610801575b50610504871515615858565b60405160208185516105198183858a016153d2565b8101600e8152030190208760005260205260ff604060002054166107bd57604051602081855161054c8183858a016153d2565b8101600d8152030190205491604051602081865161056d8183858b016153d2565b8101600d8152030190209161058460ff8716615460565b600660ff8916101561077f576040519161059d836152ef565b898352602083019388855260408401906105b960ff8a16615460565b60ff8916825260608501926105d160ff8d1685615b2d565b60808601524260a0860152600160c0860152805490680100000000000000008210156107a85790610607916001820181556157a6565b959095610793579061062461063792865188555160018801615cf6565b5161062e81615460565b600286016158ee565b5190600682101561077f57506060947f1e9fc3a602c7b16a7098c5ba783b4f9d40508e6aa83fc4a05853c485261f12bc96946106ba85600560c06107549761068861074e9860026107769c01615906565b610699608082015160038601615cf6565b60a081015160048501550151151591019060ff801983541691151516179055565b60405160208184516106cf81838589016153d2565b8101600e8152030190208b6000526020526040600020600160ff19825416179055604051602081845161070581838589016153d2565b8101600f8152030190208b600052602052604060002055601660205261072f816040600020615f40565b61073a601854615b1e565b60185561074960ff8616615460565b615925565b95615925565b9560ff60405193610766828216615460565b16835260ff6020840191166156ca565b426040820152a4005b634e487b7160e01b60005260216004526000fd5b83634e487b7160e01b60005260006004526000fd5b84634e487b7160e01b60005260416004526000fd5b606490601a6040519162461bcd60e51b8352602060048401528201527f416c7265616479206469737075746564207468697320686173680000000000006044820152fd5b9096506020813d602011610832575b8161081d60209383615327565b8101031261082d575195386104f8565b600080fd5b3d9150610810565b6040513d6000823e3d90fd5b50600560ff891611156104c8565b50600360ff871611156104b1565b6108829150843d8611610888575b61087a8183615327565b810190615bbf565b38610485565b503d610870565b6108a8915060203d6020116108885761087a8183615327565b38610443565b3461082d5760806108c76108c136615655565b9161613a565b91604051931515845215156020840152604083015215156060820152f35b3461082d5760208060031936011261082d576004358060005260048252604060002090815461091381615ab7565b926109216040519485615327565b8184526000908152848120858086015b848410610a50575085600086815b835181101561098b5761095b6109558286615b0a565b516153f5565b82600052855260ff60406000205416610977575b60010161093f565b91610983600191615b1e565b92905061096f565b509161099682615ab7565b916109a46040519384615327565b8083526109b3601f1991615ab7565b018460005b828110610a415750505060009060005b8151811015610a2f576109de6109558284615b0a565b85600052865260ff604060002054166109fa575b6001016109c8565b91610a27600191610a0b8585615b0a565b51610a168288615b0a565b52610a218187615b0a565b50615b1e565b9290506109f2565b60405180610a3d86826155f1565b0390f35b606085820183015281016109b8565b6001918291604051610a6d81610a6681896154d2565b0382615327565b8152019201920191908690610931565b3461082d57600036600319011261082d5760206001600160a01b0360015416604051908152f35b3461082d5760208060031936011261082d576004359067ffffffffffffffff821161082d57610ad96024923690600401615349565b816001600160a01b03600054166040519485809262b0c80960e01b82523360048301525afa92831561083a57600093610c7e575b50610b19831515615858565b604051815190838181850193610b308183876153d2565b8101600b81520301902084600052835260ff6040600020541615610c3a577f94748c1a380e215f3ba9de3f49d5c0a47c8bff6c16301f5f153e2429032722f091610c309160405185818451610b868183876153d2565b8101600c815203019020866000528552610c10856004610bf284610be060ff84610bd78a610bc8896040600020549788936040519384928392519283916153d2565b8101600a81520301902061578a565b50015416615a6c565b60405184818951610bc881838c6153d2565b50019260ff19938481541690556040518093819287519283916153d2565b8101600b8152030190208660005285526040600020908154169055615925565b91604051428152a3005b6064836040519062461bcd60e51b82526004820152601a60248201527f4e6f20766572696669636174696f6e20746f20726574726163740000000000006044820152fd5b9092508181813d8311610ca6575b610c968183615327565b8101031261082d57519183610b0d565b503d610c8c565b3461082d57610cbb366153a0565b6040518281809451610cd381602097888096016153d2565b810160108152030190209060005281526040600020908154610cf481615ab7565b90610d026040519283615327565b8082528282018094600052836000206000915b838310610d795760408051878152865181890181905289928201908960005b828110610d415784840385f35b855180518552808301511515858401526040808201519086015260609081015115159085015294810194608090930192600101610d34565b600486600192610d8885615acf565b815201920192019190610d15565b3461082d57610da4366153a0565b90604051918151926020938185809381870193610dc28183876153d2565b8101600381520301902083600052825260ff604060002054169384610dee575b82856040519015158152f35b610e059394506040519384928392519283916153d2565b8101600581520301902090600052815260ff6040600020541682828180610de2565b3461082d5760208060031936011261082d5760043560005260138152604060002090815491610e5583615ab7565b92610e636040519485615327565b8084528284018092600052836000206000915b838310610f2e5750505050604051918083019381845251809452604083019360408160051b85010192916000955b828710610eb15785850386f35b909192938280600192603f19898203018552875190610eec610edc60c084519080855284019061543b565b848401518382038685015261543b565b9160408101516040830152610f09606080830151908401906156ed565b6080808201519083015260a08091015115159101529601920196019592919092610ea4565b600686600192610f40859a999a615f74565b815201920192019190959495610e76565b3461082d57610f5f36615746565b6001600160a01b036000541691604051926345ecd02f60e01b84523360048501526020938481602481855afa801561083a57610fa2916000916111d15750615bd7565b604051630286b6ab60e31b8152848180610fc0338760048401615c22565b0381855afa801561083a57610fdc916000916111b45750615c49565b60405190611007845192868181880195610ff78183896153d2565b8101600681520301902054615498565b6111705783511561112c57846024916040519283809262b0c80960e01b82523360048301525afa91821561083a5785916000936110f9575b506110e5846110cb846110eb946110957f60d9fff893391026daade2734b45ecb2fb8ae1f0187ea2b39018ee8bdc94390a998b60409a998b518092516110868183896153d2565b81016006815203019020615cf6565b6110bb8a8951848188516110ac8183858d016153d2565b81016007815203019020615f40565b8751809381928c519283916153d2565b81016008815203019020600160ff19825416179055615925565b94615925565b9482519182524290820152a3005b92509082813d8111611125575b6111108183615327565b8101031261082d5790519084906110e561103f565b503d611106565b6064856040519062461bcd60e51b82526004820152601460248201527f486173682063616e6e6f7420626520656d7074790000000000000000000000006044820152fd5b6064856040519062461bcd60e51b82526004820152601e60248201527f4861736820616c726561647920626f756e6420746f2061207265636f726400006044820152fd5b6111cb9150863d88116108885761087a8183615327565b86610485565b6111e89150863d88116108885761087a8183615327565b86610443565b3461082d576111fc36615746565b6001600160a01b036000541691604051926345ecd02f60e01b84523360048501526020938481602481855afa801561083a5761123f916000916111d15750615bd7565b8360405180927fa0ca13c30000000000000000000000000000000000000000000000000000000082528180611278338860048401615c22565b03915afa90811561083a576000916115b2575b501561156e5760405191610a666112c58251948681818601976112af81838b6153d2565b81016006815203019020604051928380926154d2565b848151910120918051928582019384200361152a576040519082516112eb8184886153d2565b82019261130960ff6008946008875289818398030190205416615a6c565b611321876000966040518093819287519283916153d2565b8101600781520301902091825461133781615ab7565b936113456040519586615327565b81855260009081528981208a8087015b84841061150457505050505060005b83518110156113bc57856113908a61137c8488615b0a565b5181604051938285809451938492016153d2565b81018981520301902054166113a8575b600101611364565b956113b4600191615b1e565b9690506113a0565b8883838a60018b111561149a5761144d7f10883978dc4137be2c21cf3c3827329d1303377374a52fe00a7b5a98c25d883c9261142b866114539460405182818a516114088183876153d2565b8101600881520301902060ff198154169055604051809381928a519283916153d2565b8101600681520301902061143f8154615498565b908161145d575b5050615925565b92615925565b92604051428152a3005b81601f600093116001146114755750555b8680611446565b908083918252611493601f8b8420940160051c840160018501615cdf565b555561146e565b6084846040519062461bcd60e51b82526004820152603260248201527f43616e6e6f74207265747261637420746865206c61737420616374697665207660448201527f657273696f6e206f662061207265636f726400000000000000000000000000006064820152fd5b600191829160405161151a81610a6681896154d2565b8152019201920191908b90611355565b6064856040519062461bcd60e51b82526004820152601460248201527f486173682d5265636f7264206d69736d617463680000000000000000000000006044820152fd5b6064836040519062461bcd60e51b82526004820152601360248201527f4f6e6c79206f776e6572206f722061646d696e000000000000000000000000006044820152fd5b6115c99150843d86116108885761087a8183615327565b8461128b565b3461082d5760208060031936011261082d576004356000526015602052604060002080546115fc81615ab7565b9161160a6040519384615327565b81835260208301906000526020600020936000915b8383106116345760405180610a3d87826155f1565b600182819260405161164a81610a66818d6154d2565b81520196019201919461161f565b3461082d57602036600319011261082d576004356001600160a01b0380821680920361082d5761168d90600154163314615c94565b611698811515615fec565b73ffffffffffffffffffffffffffffffffffffffff196000541617600055600080f35b3461082d57602036600319011261082d5760043560005260146020526020604060002054604051908152f35b3461082d57602036600319011261082d576004356000526015602052604080600020546016602052816000205482519182526020820152f35b3461082d57600036600319011261082d576020601954604051908152f35b3461082d5760208060031936011261082d5760043567ffffffffffffffff811161082d57611770903690600401615349565b90600080916040518185519181818189019461178d8183886153d2565b8101600a8152030190209586546117a381615ab7565b976117b1604051998a615327565b8189526000908152838120848a015b8383106118dd5750505050916117e1926040519384928392519283916153d2565b8101600d8152030190209283546117f781615ab7565b946118056040519687615327565b8186526000908152838120848088015b8484106118be57505050505084519084519460005b875181101561186357608061183f828a615b0a565b51015161184f575b60010161182a565b9461185b600191615b1e565b959050611847565b50848660005b83518110156118a25760c061187e8286615b0a565b51015161188e575b600101611869565b9361189a600191615b1e565b949050611886565b6080838388888b60405194855284015260408301526060820152f35b6001916006916118cd85615b39565b8152019201920191908590611815565b81929394956005916118f0600194615945565b815201920192019091869493926117c0565b3461082d57600036600319011261082d576020600954604051908152f35b3461082d5760208060031936011261082d5760043560005260166020526040600020805461194d81615ab7565b9161195b6040519384615327565b81835260208301906000526020600020936000915b8383106119855760405180610a3d87826155f1565b600182819260405161199b81610a66818d6154d2565b815201960192019194611970565b3461082d5760206119d16119bc366153a0565b929081604051938285809451938492016153d2565b8101600d81520301902090815481101561082d576119ee916157a6565b50805490604051611a0681610a6681600186016154d2565b611a85600283015460ff811690611a7860405191611a3283611a2b8160038b016154d2565b0384615327565b611a5960ff600560048a015499015416966040519a8b9a8b528060208c01528a019061543b565b93611a6381615460565b604089015260ff606089019160081c166156ca565b858203608087015261543b565b9160a0840152151560c08301520390f35b3461082d5760208060031936011261082d57600435600052600460205260406000208054611ac381615ab7565b91611ad16040519384615327565b81835260208301906000526020600020936000915b838310611afb5760405180610a3d87826155f1565b6001828192604051611b1181610a66818d6154d2565b815201960192019194611ae6565b3461082d576020611b326119bc366153a0565b8101600381520301902090600052602052602060ff604060002054166040519015158152f35b3461082d57600036600319011261082d576020601854604051908152f35b3461082d576020611b896119bc366153a0565b81016002815203019020805482101561082d57602091611ba89161546a565b90546040519160031b1c8152f35b3461082d57611bc4366156d7565b906000526013602052604060002090815481101561082d57611be5916157a6565b50604051611bf781610a6681856154d2565b610a3d60405192611c1684611c0f81600185016154d2565b0385615327565b60028101549060ff60038201541660ff600560048401549301541692604051968796876156fa565b3461082d57611c4c366156d7565b906000526015602052604060002090815481101561082d57611c74611c7a91610a3d9361546a565b90615568565b60405191829160208352602083019061543b565b3461082d5760208060031936011261082d5760043567ffffffffffffffff811161082d57611cc0903690600401615349565b906001600160a01b0360005416916040516345ecd02f60e01b81523360048201528281602481875afa801561083a57611d0091600091611f0b5750615bd7565b60405192630286b6ab60e31b8452828480611d1f338660048401615c22565b0381845afa90811561083a57611d408492602496600091611eee5750615c49565b6040519485809262b0c80960e01b82523360048301525afa92831561083a57600093611ebf575b50611d73831515615858565b604051815190838181850193611d8a8183876153d2565b8101600381520301902084600052835260ff6040600020541615611e7b5760405183818451611dba8183876153d2565b8101600581520301902084600052835260ff60406000205416611e37577f08f30cbe91e0ca2a9f89c7c4a38baaa3fdd002bf05e8d40e1ca69945d06a490191611e1284610c30936040518093819286519283916153d2565b810160058152030190208560005284526040600020600160ff19825416179055615925565b6064836040519062461bcd60e51b82526004820152600e60248201527f416c7265616479206163746976650000000000000000000000000000000000006044820152fd5b6064836040519062461bcd60e51b82526004820152601360248201527f576173206e657665722061207375626a656374000000000000000000000000006044820152fd5b9092508181813d8311611ee7575b611ed78183615327565b8101031261082d57519183611d67565b503d611ecd565b611f059150843d86116108885761087a8183615327565b87610485565b611f229150843d86116108885761087a8183615327565b85610443565b3461082d57611f36366156d7565b906000526004602052604060002090815481101561082d57611c74611c7a91610a3d9361546a565b3461082d57611f896020611f7136615655565b939183604094929451938285809451938492016153d2565b81016012815203019020906000526020526040600020906000526020526020604060002054604051908152f35b3461082d57611fc4366156d7565b906000526016602052604060002090815481101561082d57611c74611c7a91610a3d9361546a565b3461082d57600036600319011261082d576020601754604051908152f35b3461082d57604036600319011261082d5760043567ffffffffffffffff811161082d5761203b903690600401615349565b60ff61204561541b565b16906001821015806122b8575b61205b90615ef5565b6001600160a01b03600054169060405192839262b0c80960e01b845233600485015283602460209586935afa93841561083a57600094612289575b506120a2841515615858565b6040518251908481818601936120b98183876153d2565b8101600b81520301902085600052845260ff60406000205416156122455761211990604051858186516120ed8183876153d2565b8101600c815203019020866000528552610bc885604060002054926040518093819289519283916153d2565b5060ff60048201541615612201576002019160ff8354169261213a83615460565b61214383615460565b61214c84615460565b8284146121bd57916121987f334f52bdf9b484290889b34fb83ad64bff4dd1b7028a24d048a3a85537b53ff9949261218f8360609661218a82615460565b6158ee565b61074983615460565b94604051926121a681615460565b83526121b182615460565b820152426040820152a3005b6064856040519062461bcd60e51b82526004820152601260248201527f416c72656164792074686973206c6576656c00000000000000000000000000006044820152fd5b6064846040519062461bcd60e51b82526004820152601f60248201527f566572696669636174696f6e20686173206265656e20726574726163746564006044820152fd5b6064846040519062461bcd60e51b82526004820152601960248201527f4e6f20766572696669636174696f6e20746f206d6f64696679000000000000006044820152fd5b9093508281813d83116122b1575b6122a18183615327565b8101031261082d57519284612096565b503d612297565b506003821115612052565b3461082d576122d66020611f7136615655565b8101601181520301902090600052602052604060002090600052602052602060ff604060002054166040519015158152f35b3461082d57611a7861234a611a85612328612322366153a0565b90616037565b969598929193946040989198519a8b9a15158b528060208c01528a019061543b565b9361235481615460565b604089015260608801906156ca565b3461082d5760206123766119bc366153a0565b8101600a81520301902090815481101561082d576123939161578a565b508054604051916123ab83611a2b81600185016154d2565b60ff6002820154169060ff6004600383015492015416906123de604051958695865260a0602087015260a086019061543b565b926123e881615460565b60408501526060840152151560808301520390f35b3461082d5761240b36615746565b6001600160a01b036000541690604051926345ecd02f60e01b845233600485015260209260249484818781855afa801561083a57612450916000916128695750615bd7565b60405190630286b6ab60e31b825284828061246f338760048401615c22565b0381845afa90811561083a5761248f8692889460009161284c5750615c49565b61249b84511515615e5f565b6124a785511515615eaa565b6040519687809262b0c80960e01b82523360048301525afa94851561083a5760009561281d575b506124da851515615858565b604051908251918581818601946124f28183886153d2565b8101600381520301902086600052855260ff604060002054166127b457604051858185516125218183886153d2565b81016002815203019020541561265c575b604051858185516125448183886153d2565b810160028152030190208054916801000000000000000083101561264857509261263e9261259c837f1cdc47600aa970e2d8c3bfa9885daefc5e052ea8a6a10471ab3dbbc77ad2138d96600161144d9601815561546a565b81549060031b908a821b91600019901b1916179055604051878184516125c38183876153d2565b810160038152030190208860005287526125fb8760406000209260ff19936001858254161790556040518093819287519283916153d2565b8101600581520301902088600052875260016040600020918254161790556004865261262b816040600020615f40565b612636600954615b1e565b600955615925565b92604051428152a4005b634e487b7160e01b60005260416004526000fd5b61268f6040516126968651918881818a01946126798183886153d2565b81016006815203019020604051938480926154d2565b0383615327565b8151156126ef5750858151910120835183201461253257606490856040519162461bcd60e51b83528160048401528201527f486173682062656c6f6e677320746f20646966666572656e74207265636f72646044820152fd5b905060ff604051878188516127058183886153d2565b8101600881520301902054166127715785612757916127308660405184818b516110868183896153d2565b6127468760405184818a516110ac81838d6153d2565b6040518093819289519283916153d2565b81016008815203019020600160ff19825416179055612532565b6064866011846040519262461bcd60e51b845260048401528201527f4861736820616c726561647920757365640000000000000000000000000000006044820152fd5b8460276084926040519262461bcd60e51b845260048401528201527f5265636f726420616c726561647920616e63686f72656420746f20746869732060448201527f7375626a656374000000000000000000000000000000000000000000000000006064820152fd5b9094508381813d8311612845575b6128358183615327565b8101031261082d575193856124ce565b503d61282b565b6128639150843d86116108885761087a8183615327565b89610485565b6128809150863d88116108885761087a8183615327565b87610443565b3461082d5760208060031936011261082d5760043567ffffffffffffffff811161082d576128b8903690600401615349565b906000916000806128d98460009481604051938285809451938492016153d2565b8101600a8152030190208054906128ef82615ab7565b956128fd6040519788615327565b82875260009182528082208188015b848410612a3657505050505083519360005b8151811015612a0c5760806129338284615b0a565b510151612943575b60010161291e565b929561294e90615b1e565b956001604061295d8685615b0a565b51015161296981615460565b61297281615460565b0361298b57612982600191615b1e565b935b905061293b565b92916002604061299b8585615b0a565b5101516129a781615460565b6129b081615460565b036129c6576129c0600191615b1e565b92612984565b91600360406129d58385615b0a565b5101516129e181615460565b6129ea81615460565b146129f8575b600190612984565b93612a04600191615b1e565b9490506129f0565b5050604080519485526020850195909552938301526060820192909252608081019190915260a090f35b600583600192612a4585615945565b81520192019301929061290c565b3461082d576020612a666119bc366153a0565b8101600b81520301902090600052602052602060ff604060002054166040519015158152f35b3461082d57602036600319011261082d576004356001600160a01b0380821680920361082d5773ffffffffffffffffffffffffffffffffffffffff199082600154918216612adb813314615c94565b612ae6821515615fec565b7f38df5fa0f7fef0d515ca1f5388cb5790ac5885d5fca8d05d9f943e563c33a4b36020604051428152a31617600155005b3461082d5760208060031936011261082d5760043567ffffffffffffffff811161082d57612b49903690600401615349565b6000604051825190848181860193612b628183876153d2565b8101600281520301902090604051808387829554938481520190600052876000209260005b89828210612c1257505050612b9e92500383615327565b81519360005b8351811015612c035760405187818451612bbf8183896153d2565b81016005815203019020612bd38286615b0a565b51600052875260ff60406000205416612bef575b600101612ba4565b93612bfb600191615b1e565b949050612be7565b60408686898351928352820152f35b8554845260019586019588955093019201612b87565b3461082d57612c6e612c68612c3c366156d7565b90806000526013602052612c566040600020548310615e14565b600052601360205260406000206157a6565b50615f74565b805160208201519160408101516060820151916005831015612ca757610a3d9260a06080830151920151151592604051968796876156fa565b634e487b7160e01b600052602160045260246000fd5b3461082d5760208060031936011261082d5760043567ffffffffffffffff811161082d5781612cf3612d06923690600401615349565b81604051938285809451938492016153d2565b8101600d815203019020805491612d1c83615ab7565b92612d2a6040519485615327565b8084528184018093600052826000206000915b838310612e095750505050604051928184019082855251809152604084019160408260051b86010193926000965b838810612d785786860387f35b90919293948380600192603f198a820301865288519081518152612de2612daa8484015188868501528884019061543b565b6040840151612db881615460565b6040840152612dcf606080860151908501906156ca565b608080850151908483039085015261543b565b9160a0808201519083015260c0809101511515910152970193019701969093929193612d6b565b600685600192612e1b859a989a615b39565b815201920192019190959395612d3d565b3461082d5760208060031936011261082d5760043567ffffffffffffffff811161082d57612e5e903690600401615349565b90612e798160009381604051938285809451938492016153d2565b8101600d815203019020918254612e8f81615ab7565b93612e9d6040519586615327565b8185526000908152838120848087015b848410612f0457878287825160005b8451811015612ef55760c0612ed18287615b0a565b510151612ee1575b600101612ebc565b91612eed600191615b1e565b929050612ed9565b50906040928351928352820152f35b600191600691612f1385615b39565b8152019201920191908590612ead565b3461082d57602036600319011261082d57600435600052601460205260206040600020541515604051908152f35b3461082d576020612f646119bc366153a0565b8101600c815203019020906000526020526020604060002054604051908152f35b3461082d57612f933661568b565b90916001600160a01b03600054169060405192839262b0c80960e01b845233600485015283602460209586935afa93841561083a576000946131d5575b50612fdc841515615858565b604051825190848181860193612ff38183876153d2565b81016011815203019020866000528452604060002085600052845260ff60406000205416156131915761308390604051858186516130328183876153d2565b81016012815203019020876000528552604060002086600052855261306985604060002054926040518093819289519283916153d2565b8101601081520301902087600052855260406000206155d5565b509160ff6003840154161561314d57600183019260ff84541692801515931515948486146131095792606094926130eb6130f6937f83316b3299ea5a7386901a45e5d604103b0c75a2d3ff829a25e4a6d645c6b7f398969060ff801983541691151516179055565b600242910155615925565b94604051928352820152426040820152a4005b6064876040519062461bcd60e51b82526004820152601260248201527f416c726561647920746869732076616c756500000000000000000000000000006044820152fd5b6064846040519062461bcd60e51b82526004820152601b60248201527f5265616374696f6e20686173206265656e2072657472616374656400000000006044820152fd5b6064846040519062461bcd60e51b82526004820152601560248201527f4e6f207265616374696f6e20746f206d6f6469667900000000000000000000006044820152fd5b9093508281813d83116131fd575b6131ed8183615327565b8101031261082d57519285612fd0565b503d6131e3565b3461082d576132123661568b565b6000546040516345ecd02f60e01b81523360048201529293602493602093926001600160a01b03169084818781855afa801561083a57613259916000916136a55750615bd7565b604051908251918581818601946132718183886153d2565b8101600e81520301902087600052855260ff6040600020541615613662579061331a91604051868186516132a68183886153d2565b8101600f815203019020886000528652604060002054908660016132fe6132ed856132de85898c6040519384928392519283916153d2565b8101600d8152030190206157a6565b50610a6660405180948193016154d2565b60405180968192630286b6ab60e31b8352339060048401615c22565b0381845afa90811561083a5761333a88928a966000916136455750615c49565b6040519889809262b0c80960e01b82523360048301525afa96871561083a57600097613616575b5061336d871515615858565b8787146135d457604051868186516133868183886153d2565b81016011815203019020886000528652604060002087600052865260ff604060002054166135915760ff60056133cb6133d4936040518a818a516132de81838c6153d2565b500154166158a3565b604051858185516133e68183876153d2565b81016010815203019020876000528552604060002054916040518681865161340f8183886153d2565b810160108152030190208860005286526040600020604051613430816152d3565b8881528781019615159687815260408201914283526060810193600185528054906801000000000000000082101561357c5790613472916001820181556155d5565b9590956135685750946134ec6040989560037fa63d8144c55fb5ca0cbcbeeea8e1b365cc113f4ab5aab289db2285d783e6b7669b9996613536966134d08f9761355a9c518655511515600186019060ff801983541691151516179055565b51600284015551151591019060ff801983541691151516179055565b8751828187516134fd8183876153d2565b810160118152030190208c6000528252876000208b600052825287600020600160ff1982541617905587518093819287519283916153d2565b81016012815203019020896000528752846000208860005287528460002055615925565b9382519182524290820152a4005b634e487b7160e01b60005260006004526000fd5b86634e487b7160e01b60005260416004526000fd5b606486600f856040519262461bcd60e51b845260048401528201527f416c7265616479207265616374656400000000000000000000000000000000006044820152fd5b606483876040519162461bcd60e51b83528160048401528201527f43616e6e6f7420726561637420746f20796f7572206f776e20646973707574656044820152fd5b9096508581813d831161363e575b61362e8183615327565b8101031261082d57519588613361565b503d613624565b61365c9150843d86116108885761087a8183615327565b8c610485565b6064856019886040519262461bcd60e51b845260048401528201527f4e6f20646973707574652066726f6d20746869732075736572000000000000006044820152fd5b6136bc9150863d88116108885761087a8183615327565b88610443565b3461082d57606036600319011261082d5767ffffffffffffffff60043581811161082d576136f4903690600401615349565b602491823590811161082d5761370e903690600401615349565b9061371761542b565b916001600160a01b036000541690604051936345ecd02f60e01b855233600486015260209485818881875afa801561083a5761375a91600091613a855750615bd7565b604051630286b6ab60e31b8152858180613778338960048401615c22565b0381875afa801561083a57879261379a60ff928994600091613a685750615c49565b6137a687511515615e5f565b6137b285511515615eaa565b1693600185101580613a5d575b6137c890615ef5565b6040519788809262b0c80960e01b82523360048301525afa95861561083a57600096613a2e575b506137fb861515615858565b6040518251908681818601936138128183876153d2565b8101600b81520301902087600052865260ff604060002054166139eb57604051868185516138418183876153d2565b8101600a81520301902054916040518781865161385f8183886153d2565b8101600a81520301902061387286615460565b60405161387e816152b7565b898152888101888152604082019061389589615460565b8882526060830192428452608081019460018652805490680100000000000000008210156139d657906138cd9160018201815561578a565b9690966135685750956139426110e596600460409b978f95976139267f5ddcec906a8edfb96c9cf15f08c0fe50115a5547ef76ab3a944ed41acf127d019f9d99986106246139829a6139bf9f5188555160018801615cf6565b51600384015551151591019060ff801983541691151516179055565b8851828187516139538183876153d2565b8101600b8152030190208d600052825288600020600160ff1982541617905588518093819287519283916153d2565b8101600c8152030190208a60005289528560002055601588526139a88186600020615f40565b6139b3601754615b1e565b60175561074984615460565b948251916139cc81615460565b82524290820152a4005b87634e487b7160e01b60005260416004526000fd5b606486601a846040519262461bcd60e51b845260048401528201527f416c7265616479207665726966696564207468697320686173680000000000006044820152fd5b9095508481813d8311613a56575b613a468183615327565b8101031261082d575194866137ef565b503d613a3c565b5060038511156137bf565b613a7f9150853d87116108885761087a8183615327565b8b610485565b6136bc9150873d89116108885761087a8183615327565b3461082d57606036600319011261082d57602435600435604435600581101561082d57613ad56001600160a01b03600154163314615c94565b81600052602060138152613aef6040600020548510615e14565b8115613be6578260005260138152613b0b8460406000206157a6565b50600581019060ff82541615613ba257613b288460038301615dfc565b60044291015560ff19815416905582600052601481526040600020918254918215613b8c577fd27cfed75349d7c1712793c75b771f2a7dd4689406c4d8fdc93b4194b422eb3593604093600019019055613b84835180936156ed565b4290820152a3005b634e487b7160e01b600052601160045260246000fd5b6064836040519062461bcd60e51b82526004820152601560248201527f466c616720616c7265616479207265736f6c76656400000000000000000000006044820152fd5b6064906040519062461bcd60e51b82526004820152601c60248201527f4d7573742070726f76696465207265736f6c7574696f6e2074797065000000006044820152fd5b3461082d57613c38366153a0565b906001600160a01b036000541660405191829162b0c80960e01b835233600484015282602460209485935afa92831561083a57600093613dfc575b50613c7f831515615858565b604051815190838181850193613c968183876153d2565b81016011815203019020856000528352604060002084600052835260ff6040600020541615613db8577fbe97907321aa6637529c6e0bd464af27ddb95fadc266661a0a9c0b693acaa2ba91613dae9160405185818451613cf78183876153d2565b810160128152030190208760005285526040600020866000528552613d83856003610bf260406000205460405184818951613d3381838c6153d2565b810160108152030190208c6000528452613d5760ff84610bd78460406000206155d5565b60405184818951613d6981838c6153d2565b810160108152030190208c600052845260406000206155d5565b8101601181520301902087600052855260406000208660005285526040600020908154169055615925565b91604051428152a4005b6064836040519062461bcd60e51b82526004820152601660248201527f4e6f207265616374696f6e20746f2072657472616374000000000000000000006044820152fd5b9092508181813d8311613e24575b613e148183615327565b8101031261082d57519184613c73565b503d613e0a565b3461082d57602036600319011261082d5760043567ffffffffffffffff811161082d5760ff613e646020612cf381943690600401615349565b8101600881520301902054166040519015158152f35b3461082d5760208060031936011261082d5760043567ffffffffffffffff811161082d5781612cf3613eb0923690600401615349565b8101600281520301902090604051908181845491828152019360005281600020916000905b828210613ef857610a3d85613eec81890382615327565b60405191829182615599565b835486529485019460019384019390910190613ed5565b3461082d57606036600319011261082d57602467ffffffffffffffff600435823582811161082d57613f45903690600401615349565b9160443590811161082d57613f5e903690600401615349565b91613f756001600160a01b03600154163314615c94565b8115614110578251156140cc5781600052601360205260406000209384549460405191613fa183615285565b83835260208301908682526040840142815260608501906000825260808601936000855260a087019560018752680100000000000000008c10156107a8578b613fef916001820181556157a6565b9790976140b7579061400561400f925189615cf6565b5160018801615cf6565b5160028601555190600582101561077f57509361407c8460056140a8956110e5956140607fdc620035e382d2354e94af4ee86406f06a6bc23c13499543d7ad5ee77af524049a600360409b01615dfc565b51600484015551151591019060ff801983541691151516179055565b856000526014602052836000206140938154615b1e565b90556140a0601954615b1e565b601955615925565b948151908152426020820152a4005b84634e487b7160e01b60005260006004526000fd5b60648460196040519162461bcd60e51b8352602060048401528201527f4e6f746520686173682063616e6e6f7420626520656d707479000000000000006044820152fd5b606484601f6040519162461bcd60e51b8352602060048401528201527f5375626a65637420494420686173682063616e6e6f7420626520656d707479006044820152fd5b3461082d57602036600319011261082d5760043567ffffffffffffffff811161082d57610a66611c7a6112af6020612cf3610a3d953690600401615349565b3461082d5760208060031936011261082d5760043567ffffffffffffffff811161082d576141c5903690600401615349565b906001600160a01b0360005416916040516345ecd02f60e01b81523360048201528281602481875afa801561083a5761420591600091611f0b5750615bd7565b60405192630286b6ab60e31b8452828480614224338660048401615c22565b0381845afa90811561083a576142458492602496600091611eee5750615c49565b6040519485809262b0c80960e01b82523360048301525afa92831561083a576000936143c2575b50614278831515615858565b60405181519083818185019361428f8183876153d2565b8101600381520301902084600052835260ff604060002054161561437e57604051838184516142bf8183876153d2565b8101600581520301902084600052835260ff604060002054161561433a577f6394e07ba017d68c6017a8d8fd8ade9c44dd70fd18b290e2d74db2b691ac99fb9161431884610c30936040518093819286519283916153d2565b81016005815203019020856000528452604060002060ff198154169055615925565b6064836040519062461bcd60e51b82526004820152601260248201527f416c726561647920756e616e63686f72656400000000000000000000000000006044820152fd5b6064836040519062461bcd60e51b82526004820152601c60248201527f4e6f742061207375626a656374206f662074686973207265636f7264000000006044820152fd5b9092508181813d83116143ea575b6143da8183615327565b8101031261082d5751918361426c565b503d6143d0565b3461082d5760208060031936011261082d5760043567ffffffffffffffff811161082d57614423903690600401615349565b9061443e8160009381604051938285809451938492016153d2565b8101600a81520301902091825461445481615ab7565b936144626040519586615327565b8185526000908152838120848087015b8484106144ba57878287825160005b8451811015612ef55760806144968287615b0a565b5101516144a6575b600101614481565b916144b2600191615b1e565b92905061449e565b6001916005916144c985615945565b8152019201920191908590614472565b3461082d5760208060031936011261082d5760043567ffffffffffffffff811161082d5781612cf361450f923690600401615349565b81016007815203019020805461452481615ab7565b916145326040519384615327565b8183526000908152838120938084015b8383106145575760405180610a3d87826155f1565b600182819260405161456d81610a66818d6154d2565b815201960192019194614542565b3461082d5760208060031936011261082d5760043567ffffffffffffffff811161082d5781612cf36145b1923690600401615349565b8101600a815203019020908154916145c883615ab7565b926145d66040519485615327565b8084528284018092600052836000206000915b83831061468d5750505050604051918083019381845251809452604083019360408160051b85010192916000955b8287106146245785850386f35b909192938280600192603f1989820301855287519061465460a0835183528484015190808685015283019061543b565b91604081015161466381615460565b60408301526060808201519083015260808091015115159101529601920196019592919092614617565b60058660019261469f859a999a615945565b8152019201920191909594956145e9565b3461082d57606036600319011261082d5760043567ffffffffffffffff811161082d576146e1903690600401615349565b6146fd60206044359281604051938285809451938492016153d2565b810160108152030190206024356000526020526040600020805482101561082d5760809161472a916155d5565b5080549060ff6001820154169060ff60036002830154920154169160405193845215156020840152604083015215156060820152f35b3461082d5760208060031936011261082d5760043567ffffffffffffffff811161082d57614792903690600401615349565b906000916000806147b38460009481604051938285809451938492016153d2565b8101600d8152030190208054906147c982615ab7565b956147d76040519788615327565b82875260009182528082208188015b8484106148e657505050505083519360005b8151811015612a0c5760c061480d8284615b0a565b51015161481d575b6001016147f8565b929561482890615b1e565b95600160406148378685615b0a565b51015161484381615460565b61484c81615460565b036148655761485c600191615b1e565b935b9050614815565b9291600260406148758585615b0a565b51015161488181615460565b61488a81615460565b036148a05761489a600191615b1e565b9261485e565b91600360406148af8385615b0a565b5101516148bb81615460565b6148c481615460565b146148d2575b60019061485e565b936148de600191615b1e565b9490506148ca565b6006836001926148f585615b39565b8152019201930192906147e6565b3461082d5760208060031936011261082d5760043567ffffffffffffffff811161082d57614935903690600401615349565b906040519082519181818186019461494e8183886153d2565b81016002815203019020604051808284829454938481520190600052846000209260005b86828210614aa35750505061498992500382615327565b60009160005b82518110156149ee57604051828188516149aa81838b6153d2565b810160058152030190206149be8285615b0a565b51600052825260ff604060002054166149da575b60010161498f565b926149e6600191615b1e565b9390506149d2565b50939291936149fc85615ab7565b94614a0a6040519687615327565b808652614a19601f1991615ab7565b01368287013760009260005b8351811015614a955760019060405184818951614a438183896153d2565b81016005815203019020614a578287615b0a565b51600052845260ff60406000205416614a71575b01614a25565b614a7b8186615b0a565b51614a8f614a8888615b1e565b978a615b0a565b52614a6b565b60405180610a3d8982615599565b8554845260019586019587955093019201614972565b3461082d576020614acc6119bc366153a0565b8101600f815203019020906000526020526020604060002054604051908152f35b3461082d57602036600319011261082d5760043567ffffffffffffffff811161082d57614b246020612cf381933690600401615349565b8101600781520301902054604051908152f35b3461082d5760208060031936011261082d5760043567ffffffffffffffff811161082d57614b69903690600401615349565b906040519160ff815193838181850196614b8481838a6153d2565b81016008815203019020541615614bc6576126798261268f94614bb2936040519384928392519283916153d2565b610a3d60405192828493845283019061543b565b6064826040519062461bcd60e51b82526004820152601360248201527f4861736820646f6573206e6f74206578697374000000000000000000000000006044820152fd5b3461082d576020614c1d6119bc366153a0565b8101600781520301902090815481101561082d57611c74611c7a91610a3d9361546a565b3461082d57600036600319011261082d57604060175460185482519182526020820152f35b3461082d57614c74366153a0565b600080916040518481809651614c90816020998a8096016153d2565b810160108152030190209060005283526040600020918254614cb181615ab7565b93614cbf6040519586615327565b8185526000908152858120868087015b848410614d5757505050505082519260005b8151811015614d41576060614cf68284615b0a565b510151614d06575b600101614ce1565b9285614d128584615b0a565b51015115614d2e57614d25600191615b1e565b935b9050614cfe565b9291614d3b600191615b1e565b92614d27565b5050906060936040519384528301526040820152f35b600191600491614d6685615acf565b8152019201920191908790614ccf565b3461082d5760208060031936011261082d576004359067ffffffffffffffff821161082d57614dab6024923690600401615349565b816001600160a01b03600054166040519485809262b0c80960e01b82523360048301525afa92831561083a57600093614f10575b50614deb831515615858565b604051815190838181850193614e028183876153d2565b8101600e81520301902084600052835260ff6040600020541615614ecc577f7180e7a407de506e94dc4620f97c3af6aaf73726be177cf5a2118a83ea08e09a91610c309160405185818451614e588183876153d2565b8101600f815203019020866000528552614eac856005610bf284614e9a60ff84610bd78a6132de896040600020549788936040519384928392519283916153d2565b604051848189516132de81838c6153d2565b8101600e8152030190208660005285526040600020908154169055615925565b6064836040519062461bcd60e51b82526004820152601560248201527f4e6f206469737075746520746f207265747261637400000000000000000000006044820152fd5b9092508181813d8311614f38575b614f288183615327565b8101031261082d57519183614ddf565b503d614f1e565b3461082d576020614f526119bc366153a0565b8101600581520301902090600052602052602060ff604060002054166040519015158152f35b3461082d57614f8f614f89366153a0565b906159a0565b906123de6040959495519586951515865260a0602087015260a086019061543b565b3461082d57600036600319011261082d5760206001600160a01b0360005416604051908152f35b3461082d57606036600319011261082d5760043567ffffffffffffffff811161082d57615009903690600401615349565b61501161541b565b61501961542b565b9060ff8080921692600184101580615241575b615035906157c2565b1690600182101580615236575b61504b9061580d565b6001600160a01b03600054169260405194859462b0c80960e01b865233600487015285602460209788935afa95861561083a57600096615207575b50615092861515615858565b6040518151908681818501936150a98183876153d2565b8101600e8152030190208760005286528360406000205416156151c35761510a600291604051888186516150de8183876153d2565b8101600f8152030190208960005288526132de88604060002054926040518093819289519283916153d2565b5061511a856005830154166158a3565b01908154936151358186169461512f81615460565b846158ee565b6006861015612ca7576151ac60a095846151737f5395fbd4f789f9b64d364b4f7ed8200e8d2a75a219f64da159998cb161fdab18996151ba97615906565b549361518184861691615925565b996040519761518f81615460565b885261519a82615460565b87015282604087019160081c166156ca565b606084019160081c166156ca565b426080820152a3005b6064866040519062461bcd60e51b82526004820152601460248201527f4e6f206469737075746520746f206d6f646966790000000000000000000000006044820152fd5b9095508481813d831161522f575b61521f8183615327565b8101031261082d57519486615086565b503d615215565b506005821115615042565b50600384111561502c565b3461082d57602061525f6119bc366153a0565b8101600e81520301902090600052602052602060ff604060002054166040519015158152f35b60c0810190811067ffffffffffffffff8211176152a157604052565b634e487b7160e01b600052604160045260246000fd5b60a0810190811067ffffffffffffffff8211176152a157604052565b6080810190811067ffffffffffffffff8211176152a157604052565b60e0810190811067ffffffffffffffff8211176152a157604052565b6020810190811067ffffffffffffffff8211176152a157604052565b90601f8019910116810190811067ffffffffffffffff8211176152a157604052565b81601f8201121561082d5780359067ffffffffffffffff82116152a1576040519261537e601f8401601f191660200185615327565b8284526020838301011161082d57816000926020809301838601378301015290565b604060031982011261082d576004359067ffffffffffffffff821161082d576153cb91600401615349565b9060243590565b60005b8381106153e55750506000910152565b81810151838201526020016153d5565b602061540e9181604051938285809451938492016153d2565b8101600581520301902090565b6024359060ff8216820361082d57565b6044359060ff8216820361082d57565b90602091615454815180928185528580860191016153d2565b601f01601f1916010190565b60041115612ca757565b80548210156154825760005260206000200190600090565b634e487b7160e01b600052603260045260246000fd5b90600182811c921680156154c8575b60208310146154b257565b634e487b7160e01b600052602260045260246000fd5b91607f16916154a7565b8054600093926154e182615498565b918282526020936001916001811690816000146155495750600114615508575b5050505050565b90939495506000929192528360002092846000945b83861061553557505050500101903880808080615501565b80548587018301529401938590820161551d565b60ff19168685015250505090151560051b010191503880808080615501565b9061558357615580610a6691604051928380926154d2565b90565b634e487b7160e01b600052600060045260246000fd5b602090602060408183019282815285518094520193019160005b8281106155c1575050505090565b8351855293810193928101926001016155b3565b80548210156154825760005260206000209060021b0190600090565b6020808201906020835283518092526040830192602060408460051b8301019501936000915b8483106156275750505050505090565b9091929394958480615645600193603f198682030187528a5161543b565b9801930193019194939290615617565b606060031982011261082d576004359067ffffffffffffffff821161082d5761568091600401615349565b906024359060443590565b606060031982011261082d576004359067ffffffffffffffff821161082d576156b691600401615349565b9060243590604435801515810361082d5790565b906006821015612ca75752565b604090600319011261082d576004359060243590565b906005821015612ca75752565b94919361572a60a09561571c61573a949a99969a60c08a5260c08a019061543b565b9088820360208a015261543b565b97604087015260608601906156ed565b60808401521515910152565b90604060031983011261082d5767ffffffffffffffff60043581811161082d578361577391600401615349565b9260243591821161082d5761558091600401615349565b8054821015615482576000526005602060002091020190600090565b8054821015615482576000526006602060002091020190600090565b156157c957565b606460405162461bcd60e51b815260206004820152601460248201527f5365766572697479206d75737420626520312d330000000000000000000000006044820152fd5b1561581457565b606460405162461bcd60e51b815260206004820152601760248201527f43756c706162696c697479206d75737420626520312d350000000000000000006044820152fd5b1561585f57565b606460405162461bcd60e51b815260206004820152601560248201527f57616c6c6574206e6f74207265676973746572656400000000000000000000006044820152fd5b156158aa57565b606460405162461bcd60e51b815260206004820152601a60248201527f4469737075746520686173206265656e207265747261637465640000000000006044820152fd5b906158f881615460565b60ff80198354169116179055565b906006811015612ca75761ff0082549160081b169061ff001916179055565b61593d906020604051928284809451938492016153d2565b810103902090565b90604051615952816152b7565b608060ff600483958054855260405161597281610a6681600186016154d2565b60208601528260028201541661598781615460565b6040860152600381015460608601520154161515910152565b9190604092835191848251916020948581818701956159c08183896153d2565b8101600b81520301902090600091818352865260ff838320541615615a4f57615a219383610bc8938893615a27989651858189516159ff81838a6153d2565b8101600c815203019020908252845220549389519384928392519283916153d2565b50615945565b908101519281015191615a3983615460565b6080606083015192015115159060019493929190565b50949350505050819251615a628161530b565b8281529180918190565b15615a7357565b606460405162461bcd60e51b815260206004820152601160248201527f416c7265616479207265747261637465640000000000000000000000000000006044820152fd5b67ffffffffffffffff81116152a15760051b60200190565b90604051615adc816152d3565b606060ff60038395805485528260018201541615156020860152600281015460408601520154161515910152565b80518210156154825760209160051b010190565b6000198114613b8c5760010190565b6006821015612ca75752565b90604051615b46816152ef565b60c060ff6005839580548552604051615b6681610a6681600186016154d2565b6020860152615b92836002830154818116615b8081615460565b604089015260081c1660608701615b2d565b604051615ba681610a6681600386016154d2565b6080860152600481015460a08601520154161515910152565b9081602091031261082d5751801515810361082d5790565b15615bde57565b606460405162461bcd60e51b815260206004820152601460248201527f4e6f7420616e20616374697665206d656d6265720000000000000000000000006044820152fd5b906001600160a01b03615c4260209295949560408552604085019061543b565b9416910152565b15615c5057565b606460405162461bcd60e51b815260206004820152601860248201527f4e6f2061636365737320746f2074686973207265636f726400000000000000006044820152fd5b15615c9b57565b606460405162461bcd60e51b815260206004820152600a60248201527f4f6e6c792061646d696e000000000000000000000000000000000000000000006044820152fd5b818110615cea575050565b60008155600101615cdf565b919091825167ffffffffffffffff81116152a157615d148254615498565b601f8111615dbf575b50602080601f8311600114615d5a575081929394600092615d4f575b50508160011b916000199060031b1c1916179055565b015190503880615d39565b90601f19831695846000526020600020926000905b888210615da757505083600195969710615d8e575b505050811b019055565b015160001960f88460031b161c19169055388080615d84565b80600185968294968601518155019501930190615d6f565b615dec90836000526020600020601f840160051c81019160208510615df2575b601f0160051c0190615cdf565b38615d1d565b9091508190615ddf565b906005811015612ca75760ff80198354169116179055565b15615e1b57565b606460405162461bcd60e51b815260206004820152601360248201527f466c616720646f6573206e6f74206578697374000000000000000000000000006044820152fd5b15615e6657565b606460405162461bcd60e51b815260206004820152601960248201527f5265636f72642049442063616e6e6f7420626520656d707479000000000000006044820152fd5b15615eb157565b606460405162461bcd60e51b815260206004820152601b60248201527f5265636f726420686173682063616e6e6f7420626520656d70747900000000006044820152fd5b15615efc57565b606460405162461bcd60e51b815260206004820152601160248201527f4c6576656c206d75737420626520312d330000000000000000000000000000006044820152fd5b8054680100000000000000008110156152a157615f629160018201815561546a565b91909161558357615f7291615cf6565b565b90604051615f8181615285565b8092604051615f9481610a6681856154d2565b8252604051615faa81610a6681600186016154d2565b60208301526002810154604083015260ff600382015416906005821015612ca757600560ff9160a0936060860152600481015460808601520154161515910152565b15615ff357565b606460405162461bcd60e51b815260206004820152600f60248201527f496e76616c6964206164647265737300000000000000000000000000000000006044820152fd5b9060409283519280516020948581818501936160548183876153d2565b8101600e81520301902093600094818652865260ff87862054161561610f57916132de866160b5936160bb958a51838187516160918183886153d2565b8101600f815203019020908952825289882054938a519384928392519283916153d2565b50615b39565b9283015193830151926160cd84615460565b60608101519260068410156160fb575060808101519160c060a0830151920151151590600196959493929190565b80634e487b7160e01b602492526021600452fd5b5050509150809280516161218161530b565b82815292828092516161328161530b565b818152918190565b92909192604093845193825160209586818187019361615a8183876153d2565b81016011815203019020926000938385528752878420818552875260ff888520541615616203576161eb936161e5936161d089606098958c95865183818a516161a48183886153d2565b8101601281520301902085875283528686209086528252858520549686519384928392519283916153d2565b810160108152030190209082528852206155d5565b50615acf565b92830151151593830151920151151590600193929190565b5050509350509050818091819056fea2646970667358221220db9d24a7d3d8a5b82269ad5522707228f8c5eb754be5e5396f7e62d999ccdbe064736f6c63430008170033","opcodes":"PUSH1 0x80 CALLVALUE PUSH3 0xD8 JUMPI PUSH1 0x1F PUSH3 0x633C CODESIZE DUP2 SWAP1 SUB SWAP2 DUP3 ADD PUSH1 0x1F NOT AND DUP4 ADD SWAP2 PUSH1 0x1 PUSH1 0x1 PUSH1 0x40 SHL SUB DUP4 GT DUP5 DUP5 LT OR PUSH3 0xDD JUMPI DUP1 DUP5 SWAP3 PUSH1 0x20 SWAP5 PUSH1 0x40 MSTORE DUP4 CODECOPY DUP2 ADD SUB SLT PUSH3 0xD8 JUMPI MLOAD PUSH1 0x1 PUSH1 0x1 PUSH1 0xA0 SHL SUB DUP2 AND SWAP1 DUP2 SWAP1 SUB PUSH3 0xD8 JUMPI DUP1 ISZERO PUSH3 0x89 JUMPI PUSH1 0x1 DUP1 PUSH1 0xA0 SHL SUB NOT SWAP1 DUP2 PUSH1 0x0 SLOAD AND OR PUSH1 0x0 SSTORE CALLER SWAP1 PUSH1 0x1 SLOAD AND OR PUSH1 0x1 SSTORE PUSH1 0x40 MLOAD PUSH2 0x6248 SWAP1 DUP2 PUSH3 0xF4 DUP3 CODECOPY RETURN JUMPDEST PUSH1 0x40 MLOAD PUSH3 0x461BCD PUSH1 0xE5 SHL DUP2 MSTORE PUSH1 0x20 PUSH1 0x4 DUP3 ADD MSTORE PUSH1 0x21 PUSH1 0x24 DUP3 ADD MSTORE PUSH32 0x496E76616C6964204D656D626572526F6C654D616E6167657220616464726573 PUSH1 0x44 DUP3 ADD MSTORE PUSH1 0x73 PUSH1 0xF8 SHL PUSH1 0x64 DUP3 ADD MSTORE PUSH1 0x84 SWAP1 REVERT JUMPDEST PUSH1 0x0 DUP1 REVERT JUMPDEST PUSH4 0x4E487B71 PUSH1 0xE0 SHL PUSH1 0x0 MSTORE PUSH1 0x41 PUSH1 0x4 MSTORE PUSH1 0x24 PUSH1 0x0 REVERT INVALID PUSH1 0x80 PUSH1 0x40 MSTORE PUSH1 0x4 CALLDATASIZE LT ISZERO PUSH2 0x12 JUMPI PUSH1 0x0 DUP1 REVERT JUMPDEST PUSH1 0xE0 PUSH1 0x0 CALLDATALOAD DUP2 SHR SWAP1 DUP2 PUSH3 0x3297E4 EQ PUSH2 0x524C JUMPI DUP2 PUSH4 0x1B4147D EQ PUSH2 0x1B1F JUMPI DUP2 PUSH4 0x5F59439 EQ PUSH2 0x3E2B JUMPI DUP2 PUSH4 0xA36148B EQ PUSH2 0x524C JUMPI DUP2 PUSH4 0xFBAB50A EQ PUSH2 0x2A53 JUMPI DUP2 PUSH4 0x10A0E88A EQ PUSH2 0x4FD8 JUMPI DUP2 PUSH4 0x15370703 EQ PUSH2 0x4FB1 JUMPI DUP2 PUSH4 0x19BFE5F2 EQ PUSH2 0x4F78 JUMPI DUP2 PUSH4 0x1A6B3D2A EQ PUSH2 0x4F3F JUMPI DUP2 PUSH4 0x1AACDA88 EQ PUSH2 0x4D76 JUMPI DUP2 PUSH4 0x1B7CABB7 EQ PUSH2 0x4C66 JUMPI DUP2 PUSH4 0x1CF8CBE8 EQ PUSH2 0x1902 JUMPI DUP2 PUSH4 0x1E59607A EQ PUSH2 0x4C41 JUMPI DUP2 PUSH4 0x1EC50C0E EQ PUSH2 0x4C0A JUMPI DUP2 PUSH4 0x21D9CAAA EQ PUSH2 0x4B37 JUMPI DUP2 PUSH4 0x223C3BB9 EQ PUSH2 0x4AED JUMPI DUP2 PUSH4 0x249DDA2E EQ PUSH2 0x16BB JUMPI DUP2 PUSH4 0x25DB354D EQ PUSH2 0x4AB9 JUMPI DUP2 PUSH4 0x2A4E0476 EQ PUSH2 0x4903 JUMPI DUP2 PUSH4 0x2CB2C1E9 EQ PUSH2 0x4760 JUMPI DUP2 PUSH4 0x2E6DF698 EQ PUSH2 0x46B0 JUMPI DUP2 PUSH4 0x2FA8DB04 EQ PUSH2 0x457B JUMPI DUP2 PUSH4 0x315CA5BA EQ PUSH2 0x44D9 JUMPI DUP2 PUSH4 0x339A0AEC EQ PUSH2 0x43F1 JUMPI DUP2 PUSH4 0x35C4C203 EQ PUSH2 0x4193 JUMPI DUP2 PUSH4 0x365348E9 EQ PUSH2 0x4154 JUMPI DUP2 PUSH4 0x3F132DC1 EQ PUSH2 0x3F0F JUMPI DUP2 PUSH4 0x400F8D06 EQ PUSH2 0x3E7A JUMPI DUP2 PUSH4 0x411AB584 EQ PUSH2 0x3E2B JUMPI DUP2 PUSH4 0x4294E2FF EQ PUSH2 0x3C2A JUMPI DUP2 PUSH4 0x4B7C908A EQ PUSH2 0x3A9C JUMPI DUP2 PUSH4 0x4F893ED6 EQ PUSH2 0x22C3 JUMPI DUP2 PUSH4 0x5203CBED EQ PUSH2 0x36C2 JUMPI DUP2 PUSH4 0x533ACFFD EQ PUSH2 0x3204 JUMPI DUP2 PUSH4 0x5A18672E EQ PUSH2 0x2F85 JUMPI DUP2 PUSH4 0x5D12DA50 EQ PUSH2 0x2F51 JUMPI DUP2 PUSH4 0x5D28A342 EQ PUSH2 0x2F23 JUMPI DUP2 PUSH4 0x6018200D EQ PUSH2 0x2E2C JUMPI DUP2 PUSH4 0x629BE2B6 EQ PUSH2 0x2CBD JUMPI DUP2 PUSH4 0x6EB7457F EQ PUSH2 0x2C28 JUMPI DUP2 PUSH4 0x7286B6F9 EQ PUSH2 0x2B17 JUMPI DUP2 PUSH4 0x75829DEF EQ PUSH2 0x2A8C JUMPI DUP2 PUSH4 0x80027FF6 EQ PUSH2 0x2A53 JUMPI DUP2 PUSH4 0x82953131 EQ PUSH2 0x2886 JUMPI DUP2 PUSH4 0x883080AF EQ PUSH2 0x23FD JUMPI DUP2 PUSH4 0x8DA1D369 EQ PUSH2 0x2363 JUMPI DUP2 PUSH4 0x8E3CCBCF EQ PUSH2 0x2308 JUMPI DUP2 PUSH4 0x98909E22 EQ PUSH2 0x22C3 JUMPI DUP2 PUSH4 0xA5F2D1D1 EQ PUSH2 0x200A JUMPI DUP2 PUSH4 0xAC90C140 EQ PUSH2 0x1FEC JUMPI DUP2 PUSH4 0xAC924336 EQ PUSH2 0x1720 JUMPI DUP2 PUSH4 0xADCEE102 EQ PUSH2 0x1FB6 JUMPI DUP2 PUSH4 0xB0C7363C EQ PUSH2 0x1F5E JUMPI DUP2 PUSH4 0xB27BB4D5 EQ PUSH2 0x1F28 JUMPI DUP2 PUSH4 0xB48AC4D2 EQ PUSH2 0x1C8E JUMPI DUP2 PUSH4 0xB5E6B7A2 EQ PUSH2 0x1C3E JUMPI DUP2 PUSH4 0xC18CF8D2 EQ PUSH2 0x1BB6 JUMPI DUP2 PUSH4 0xC282F4AB EQ PUSH2 0x1B76 JUMPI DUP2 PUSH4 0xC5E4CCC4 EQ PUSH2 0x1B58 JUMPI DUP2 PUSH4 0xC6BD1572 EQ PUSH2 0x1B1F JUMPI DUP2 PUSH4 0xC7695BAB EQ PUSH2 0x1A96 JUMPI DUP2 PUSH4 0xCA1E910A EQ PUSH2 0x19A9 JUMPI POP DUP1 PUSH4 0xD08C800D EQ PUSH2 0x1920 JUMPI DUP1 PUSH4 0xD46E082F EQ PUSH2 0x1902 JUMPI DUP1 PUSH4 0xD4F7A465 EQ PUSH2 0x173E JUMPI DUP1 PUSH4 0xD5BA54E7 EQ PUSH2 0x1720 JUMPI DUP1 PUSH4 0xD5BE3001 EQ PUSH2 0x16E7 JUMPI DUP1 PUSH4 0xDBC7B842 EQ PUSH2 0x16BB JUMPI DUP1 PUSH4 0xDD0BC082 EQ PUSH2 0x1658 JUMPI DUP1 PUSH4 0xE08F1AC3 EQ PUSH2 0x15CF JUMPI DUP1 PUSH4 0xE11C45B7 EQ PUSH2 0x11EE JUMPI DUP1 PUSH4 0xE2AAE6E0 EQ PUSH2 0xF51 JUMPI DUP1 PUSH4 0xF251F8E4 EQ PUSH2 0xE27 JUMPI DUP1 PUSH4 0xF3AC2BEA EQ PUSH2 0xD96 JUMPI DUP1 PUSH4 0xF5E7F9F4 EQ PUSH2 0xCAD JUMPI DUP1 PUSH4 0xF7C0D033 EQ PUSH2 0xAA4 JUMPI DUP1 PUSH4 0xF851A440 EQ PUSH2 0xA7D JUMPI DUP1 PUSH4 0xF860A3A2 EQ PUSH2 0x8E5 JUMPI DUP1 PUSH4 0xF9F70C4A EQ PUSH2 0x8AE JUMPI PUSH4 0xFD328F58 EQ PUSH2 0x38E JUMPI PUSH1 0x0 DUP1 REVERT JUMPDEST CALLVALUE PUSH2 0x82D JUMPI PUSH1 0xA0 CALLDATASIZE PUSH1 0x3 NOT ADD SLT PUSH2 0x82D JUMPI PUSH8 0xFFFFFFFFFFFFFFFF PUSH1 0x4 CALLDATALOAD DUP2 DUP2 GT PUSH2 0x82D JUMPI PUSH2 0x3C0 SWAP1 CALLDATASIZE SWAP1 PUSH1 0x4 ADD PUSH2 0x5349 JUMP JUMPDEST SWAP1 PUSH1 0x24 SWAP2 DUP3 CALLDATALOAD DUP3 DUP2 GT PUSH2 0x82D JUMPI PUSH2 0x3DB SWAP1 CALLDATASIZE SWAP1 PUSH1 0x4 ADD PUSH2 0x5349 JUMP JUMPDEST PUSH2 0x3E3 PUSH2 0x542B JUMP JUMPDEST SWAP1 PUSH1 0x64 CALLDATALOAD SWAP4 PUSH1 0xFF DUP6 AND DUP6 SUB PUSH2 0x82D JUMPI PUSH1 0x84 CALLDATALOAD SWAP1 DUP2 GT PUSH2 0x82D JUMPI PUSH2 0x40A SWAP1 CALLDATASIZE SWAP1 PUSH1 0x4 ADD PUSH2 0x5349 JUMP JUMPDEST PUSH1 0x1 PUSH1 0x1 PUSH1 0xA0 SHL SUB PUSH1 0x0 SLOAD AND PUSH1 0x40 MLOAD PUSH4 0x45ECD02F PUSH1 0xE0 SHL DUP2 MSTORE CALLER PUSH1 0x4 DUP3 ADD MSTORE PUSH1 0x20 DUP2 DUP10 DUP2 DUP6 GAS STATICCALL DUP1 ISZERO PUSH2 0x83A JUMPI PUSH2 0x449 SWAP2 PUSH1 0x0 SWAP2 PUSH2 0x88F JUMPI JUMPDEST POP PUSH2 0x5BD7 JUMP JUMPDEST PUSH1 0x40 MLOAD SWAP1 PUSH4 0x286B6AB PUSH1 0xE3 SHL DUP3 MSTORE PUSH1 0x20 DUP3 DUP1 PUSH2 0x469 CALLER DUP11 PUSH1 0x4 DUP5 ADD PUSH2 0x5C22 JUMP JUMPDEST SUB DUP2 DUP5 GAS STATICCALL SWAP1 DUP2 ISZERO PUSH2 0x83A JUMPI PUSH2 0x48B PUSH1 0x20 SWAP3 DUP11 SWAP5 PUSH1 0x0 SWAP2 PUSH2 0x862 JUMPI JUMPDEST POP PUSH2 0x5C49 JUMP JUMPDEST PUSH2 0x497 DUP8 MLOAD ISZERO ISZERO PUSH2 0x5E5F JUMP JUMPDEST PUSH2 0x4A3 DUP6 MLOAD ISZERO ISZERO PUSH2 0x5EAA JUMP JUMPDEST PUSH1 0x1 PUSH1 0xFF DUP8 AND LT ISZERO DUP1 PUSH2 0x854 JUMPI JUMPDEST PUSH2 0x4BA SWAP1 PUSH2 0x57C2 JUMP JUMPDEST PUSH1 0x1 PUSH1 0xFF DUP10 AND LT ISZERO DUP1 PUSH2 0x846 JUMPI JUMPDEST PUSH2 0x4D1 SWAP1 PUSH2 0x580D JUMP JUMPDEST PUSH1 0x40 MLOAD SWAP9 DUP10 DUP1 SWAP3 PUSH3 0xB0C809 PUSH1 0xE0 SHL DUP3 MSTORE CALLER PUSH1 0x4 DUP4 ADD MSTORE GAS STATICCALL SWAP7 DUP8 ISZERO PUSH2 0x83A JUMPI PUSH1 0x0 SWAP8 PUSH2 0x801 JUMPI JUMPDEST POP PUSH2 0x504 DUP8 ISZERO ISZERO PUSH2 0x5858 JUMP JUMPDEST PUSH1 0x40 MLOAD PUSH1 0x20 DUP2 DUP6 MLOAD PUSH2 0x519 DUP2 DUP4 DUP6 DUP11 ADD PUSH2 0x53D2 JUMP JUMPDEST DUP2 ADD PUSH1 0xE DUP2 MSTORE SUB ADD SWAP1 KECCAK256 DUP8 PUSH1 0x0 MSTORE PUSH1 0x20 MSTORE PUSH1 0xFF PUSH1 0x40 PUSH1 0x0 KECCAK256 SLOAD AND PUSH2 0x7BD JUMPI PUSH1 0x40 MLOAD PUSH1 0x20 DUP2 DUP6 MLOAD PUSH2 0x54C DUP2 DUP4 DUP6 DUP11 ADD PUSH2 0x53D2 JUMP JUMPDEST DUP2 ADD PUSH1 0xD DUP2 MSTORE SUB ADD SWAP1 KECCAK256 SLOAD SWAP2 PUSH1 0x40 MLOAD PUSH1 0x20 DUP2 DUP7 MLOAD PUSH2 0x56D DUP2 DUP4 DUP6 DUP12 ADD PUSH2 0x53D2 JUMP JUMPDEST DUP2 ADD PUSH1 0xD DUP2 MSTORE SUB ADD SWAP1 KECCAK256 SWAP2 PUSH2 0x584 PUSH1 0xFF DUP8 AND PUSH2 0x5460 JUMP JUMPDEST PUSH1 0x6 PUSH1 0xFF DUP10 AND LT ISZERO PUSH2 0x77F JUMPI PUSH1 0x40 MLOAD SWAP2 PUSH2 0x59D DUP4 PUSH2 0x52EF JUMP JUMPDEST DUP10 DUP4 MSTORE PUSH1 0x20 DUP4 ADD SWAP4 DUP9 DUP6 MSTORE PUSH1 0x40 DUP5 ADD SWAP1 PUSH2 0x5B9 PUSH1 0xFF DUP11 AND PUSH2 0x5460 JUMP JUMPDEST PUSH1 0xFF DUP10 AND DUP3 MSTORE PUSH1 0x60 DUP6 ADD SWAP3 PUSH2 0x5D1 PUSH1 0xFF DUP14 AND DUP6 PUSH2 0x5B2D JUMP JUMPDEST PUSH1 0x80 DUP7 ADD MSTORE TIMESTAMP PUSH1 0xA0 DUP7 ADD MSTORE PUSH1 0x1 PUSH1 0xC0 DUP7 ADD MSTORE DUP1 SLOAD SWAP1 PUSH9 0x10000000000000000 DUP3 LT ISZERO PUSH2 0x7A8 JUMPI SWAP1 PUSH2 0x607 SWAP2 PUSH1 0x1 DUP3 ADD DUP2 SSTORE PUSH2 0x57A6 JUMP JUMPDEST SWAP6 SWAP1 SWAP6 PUSH2 0x793 JUMPI SWAP1 PUSH2 0x624 PUSH2 0x637 SWAP3 DUP7 MLOAD DUP9 SSTORE MLOAD PUSH1 0x1 DUP9 ADD PUSH2 0x5CF6 JUMP JUMPDEST MLOAD PUSH2 0x62E DUP2 PUSH2 0x5460 JUMP JUMPDEST PUSH1 0x2 DUP7 ADD PUSH2 0x58EE JUMP JUMPDEST MLOAD SWAP1 PUSH1 0x6 DUP3 LT ISZERO PUSH2 0x77F JUMPI POP PUSH1 0x60 SWAP5 PUSH32 0x1E9FC3A602C7B16A7098C5BA783B4F9D40508E6AA83FC4A05853C485261F12BC SWAP7 SWAP5 PUSH2 0x6BA DUP6 PUSH1 0x5 PUSH1 0xC0 PUSH2 0x754 SWAP8 PUSH2 0x688 PUSH2 0x74E SWAP9 PUSH1 0x2 PUSH2 0x776 SWAP13 ADD PUSH2 0x5906 JUMP JUMPDEST PUSH2 0x699 PUSH1 0x80 DUP3 ADD MLOAD PUSH1 0x3 DUP7 ADD PUSH2 0x5CF6 JUMP JUMPDEST PUSH1 0xA0 DUP2 ADD MLOAD PUSH1 0x4 DUP6 ADD SSTORE ADD MLOAD ISZERO ISZERO SWAP2 ADD SWAP1 PUSH1 0xFF DUP1 NOT DUP4 SLOAD AND SWAP2 ISZERO ISZERO AND OR SWAP1 SSTORE JUMP JUMPDEST PUSH1 0x40 MLOAD PUSH1 0x20 DUP2 DUP5 MLOAD PUSH2 0x6CF DUP2 DUP4 DUP6 DUP10 ADD PUSH2 0x53D2 JUMP JUMPDEST DUP2 ADD PUSH1 0xE DUP2 MSTORE SUB ADD SWAP1 KECCAK256 DUP12 PUSH1 0x0 MSTORE PUSH1 0x20 MSTORE PUSH1 0x40 PUSH1 0x0 KECCAK256 PUSH1 0x1 PUSH1 0xFF NOT DUP3 SLOAD AND OR SWAP1 SSTORE PUSH1 0x40 MLOAD PUSH1 0x20 DUP2 DUP5 MLOAD PUSH2 0x705 DUP2 DUP4 DUP6 DUP10 ADD PUSH2 0x53D2 JUMP JUMPDEST DUP2 ADD PUSH1 0xF DUP2 MSTORE SUB ADD SWAP1 KECCAK256 DUP12 PUSH1 0x0 MSTORE PUSH1 0x20 MSTORE PUSH1 0x40 PUSH1 0x0 KECCAK256 SSTORE PUSH1 0x16 PUSH1 0x20 MSTORE PUSH2 0x72F DUP2 PUSH1 0x40 PUSH1 0x0 KECCAK256 PUSH2 0x5F40 JUMP JUMPDEST PUSH2 0x73A PUSH1 0x18 SLOAD PUSH2 0x5B1E JUMP JUMPDEST PUSH1 0x18 SSTORE PUSH2 0x749 PUSH1 0xFF DUP7 AND PUSH2 0x5460 JUMP JUMPDEST PUSH2 0x5925 JUMP JUMPDEST SWAP6 PUSH2 0x5925 JUMP JUMPDEST SWAP6 PUSH1 0xFF PUSH1 0x40 MLOAD SWAP4 PUSH2 0x766 DUP3 DUP3 AND PUSH2 0x5460 JUMP JUMPDEST AND DUP4 MSTORE PUSH1 0xFF PUSH1 0x20 DUP5 ADD SWAP2 AND PUSH2 0x56CA JUMP JUMPDEST TIMESTAMP PUSH1 0x40 DUP3 ADD MSTORE LOG4 STOP JUMPDEST PUSH4 0x4E487B71 PUSH1 0xE0 SHL PUSH1 0x0 MSTORE PUSH1 0x21 PUSH1 0x4 MSTORE PUSH1 0x0 REVERT JUMPDEST DUP4 PUSH4 0x4E487B71 PUSH1 0xE0 SHL PUSH1 0x0 MSTORE PUSH1 0x0 PUSH1 0x4 MSTORE PUSH1 0x0 REVERT JUMPDEST DUP5 PUSH4 0x4E487B71 PUSH1 0xE0 SHL PUSH1 0x0 MSTORE PUSH1 0x41 PUSH1 0x4 MSTORE PUSH1 0x0 REVERT JUMPDEST PUSH1 0x64 SWAP1 PUSH1 0x1A PUSH1 0x40 MLOAD SWAP2 PUSH3 0x461BCD PUSH1 0xE5 SHL DUP4 MSTORE PUSH1 0x20 PUSH1 0x4 DUP5 ADD MSTORE DUP3 ADD MSTORE PUSH32 0x416C726561647920646973707574656420746869732068617368000000000000 PUSH1 0x44 DUP3 ADD MSTORE REVERT JUMPDEST SWAP1 SWAP7 POP PUSH1 0x20 DUP2 RETURNDATASIZE PUSH1 0x20 GT PUSH2 0x832 JUMPI JUMPDEST DUP2 PUSH2 0x81D PUSH1 0x20 SWAP4 DUP4 PUSH2 0x5327 JUMP JUMPDEST DUP2 ADD SUB SLT PUSH2 0x82D JUMPI MLOAD SWAP6 CODESIZE PUSH2 0x4F8 JUMP JUMPDEST PUSH1 0x0 DUP1 REVERT JUMPDEST RETURNDATASIZE SWAP2 POP PUSH2 0x810 JUMP JUMPDEST PUSH1 0x40 MLOAD RETURNDATASIZE PUSH1 0x0 DUP3 RETURNDATACOPY RETURNDATASIZE SWAP1 REVERT JUMPDEST POP PUSH1 0x5 PUSH1 0xFF DUP10 AND GT ISZERO PUSH2 0x4C8 JUMP JUMPDEST POP PUSH1 0x3 PUSH1 0xFF DUP8 AND GT ISZERO PUSH2 0x4B1 JUMP JUMPDEST PUSH2 0x882 SWAP2 POP DUP5 RETURNDATASIZE DUP7 GT PUSH2 0x888 JUMPI JUMPDEST PUSH2 0x87A DUP2 DUP4 PUSH2 0x5327 JUMP JUMPDEST DUP2 ADD SWAP1 PUSH2 0x5BBF JUMP JUMPDEST CODESIZE PUSH2 0x485 JUMP JUMPDEST POP RETURNDATASIZE PUSH2 0x870 JUMP JUMPDEST PUSH2 0x8A8 SWAP2 POP PUSH1 0x20 RETURNDATASIZE PUSH1 0x20 GT PUSH2 0x888 JUMPI PUSH2 0x87A DUP2 DUP4 PUSH2 0x5327 JUMP JUMPDEST CODESIZE PUSH2 0x443 JUMP JUMPDEST CALLVALUE PUSH2 0x82D JUMPI PUSH1 0x80 PUSH2 0x8C7 PUSH2 0x8C1 CALLDATASIZE PUSH2 0x5655 JUMP JUMPDEST SWAP2 PUSH2 0x613A JUMP JUMPDEST SWAP2 PUSH1 0x40 MLOAD SWAP4 ISZERO ISZERO DUP5 MSTORE ISZERO ISZERO PUSH1 0x20 DUP5 ADD MSTORE PUSH1 0x40 DUP4 ADD MSTORE ISZERO ISZERO PUSH1 0x60 DUP3 ADD MSTORE RETURN JUMPDEST CALLVALUE PUSH2 0x82D JUMPI PUSH1 0x20 DUP1 PUSH1 0x3 NOT CALLDATASIZE ADD SLT PUSH2 0x82D JUMPI PUSH1 0x4 CALLDATALOAD DUP1 PUSH1 0x0 MSTORE PUSH1 0x4 DUP3 MSTORE PUSH1 0x40 PUSH1 0x0 KECCAK256 SWAP1 DUP2 SLOAD PUSH2 0x913 DUP2 PUSH2 0x5AB7 JUMP JUMPDEST SWAP3 PUSH2 0x921 PUSH1 0x40 MLOAD SWAP5 DUP6 PUSH2 0x5327 JUMP JUMPDEST DUP2 DUP5 MSTORE PUSH1 0x0 SWAP1 DUP2 MSTORE DUP5 DUP2 KECCAK256 DUP6 DUP1 DUP7 ADD JUMPDEST DUP5 DUP5 LT PUSH2 0xA50 JUMPI POP DUP6 PUSH1 0x0 DUP7 DUP2 JUMPDEST DUP4 MLOAD DUP2 LT ISZERO PUSH2 0x98B JUMPI PUSH2 0x95B PUSH2 0x955 DUP3 DUP7 PUSH2 0x5B0A JUMP JUMPDEST MLOAD PUSH2 0x53F5 JUMP JUMPDEST DUP3 PUSH1 0x0 MSTORE DUP6 MSTORE PUSH1 0xFF PUSH1 0x40 PUSH1 0x0 KECCAK256 SLOAD AND PUSH2 0x977 JUMPI JUMPDEST PUSH1 0x1 ADD PUSH2 0x93F JUMP JUMPDEST SWAP2 PUSH2 0x983 PUSH1 0x1 SWAP2 PUSH2 0x5B1E JUMP JUMPDEST SWAP3 SWAP1 POP PUSH2 0x96F JUMP JUMPDEST POP SWAP2 PUSH2 0x996 DUP3 PUSH2 0x5AB7 JUMP JUMPDEST SWAP2 PUSH2 0x9A4 PUSH1 0x40 MLOAD SWAP4 DUP5 PUSH2 0x5327 JUMP JUMPDEST DUP1 DUP4 MSTORE PUSH2 0x9B3 PUSH1 0x1F NOT SWAP2 PUSH2 0x5AB7 JUMP JUMPDEST ADD DUP5 PUSH1 0x0 JUMPDEST DUP3 DUP2 LT PUSH2 0xA41 JUMPI POP POP POP PUSH1 0x0 SWAP1 PUSH1 0x0 JUMPDEST DUP2 MLOAD DUP2 LT ISZERO PUSH2 0xA2F JUMPI PUSH2 0x9DE PUSH2 0x955 DUP3 DUP5 PUSH2 0x5B0A JUMP JUMPDEST DUP6 PUSH1 0x0 MSTORE DUP7 MSTORE PUSH1 0xFF PUSH1 0x40 PUSH1 0x0 KECCAK256 SLOAD AND PUSH2 0x9FA JUMPI JUMPDEST PUSH1 0x1 ADD PUSH2 0x9C8 JUMP JUMPDEST SWAP2 PUSH2 0xA27 PUSH1 0x1 SWAP2 PUSH2 0xA0B DUP6 DUP6 PUSH2 0x5B0A JUMP JUMPDEST MLOAD PUSH2 0xA16 DUP3 DUP9 PUSH2 0x5B0A JUMP JUMPDEST MSTORE PUSH2 0xA21 DUP2 DUP8 PUSH2 0x5B0A JUMP JUMPDEST POP PUSH2 0x5B1E JUMP JUMPDEST SWAP3 SWAP1 POP PUSH2 0x9F2 JUMP JUMPDEST PUSH1 0x40 MLOAD DUP1 PUSH2 0xA3D DUP7 DUP3 PUSH2 0x55F1 JUMP JUMPDEST SUB SWAP1 RETURN JUMPDEST PUSH1 0x60 DUP6 DUP3 ADD DUP4 ADD MSTORE DUP2 ADD PUSH2 0x9B8 JUMP JUMPDEST PUSH1 0x1 SWAP2 DUP3 SWAP2 PUSH1 0x40 MLOAD PUSH2 0xA6D DUP2 PUSH2 0xA66 DUP2 DUP10 PUSH2 0x54D2 JUMP JUMPDEST SUB DUP3 PUSH2 0x5327 JUMP JUMPDEST DUP2 MSTORE ADD SWAP3 ADD SWAP3 ADD SWAP2 SWAP1 DUP7 SWAP1 PUSH2 0x931 JUMP JUMPDEST CALLVALUE PUSH2 0x82D JUMPI PUSH1 0x0 CALLDATASIZE PUSH1 0x3 NOT ADD SLT PUSH2 0x82D JUMPI PUSH1 0x20 PUSH1 0x1 PUSH1 0x1 PUSH1 0xA0 SHL SUB PUSH1 0x1 SLOAD AND PUSH1 0x40 MLOAD SWAP1 DUP2 MSTORE RETURN JUMPDEST CALLVALUE PUSH2 0x82D JUMPI PUSH1 0x20 DUP1 PUSH1 0x3 NOT CALLDATASIZE ADD SLT PUSH2 0x82D JUMPI PUSH1 0x4 CALLDATALOAD SWAP1 PUSH8 0xFFFFFFFFFFFFFFFF DUP3 GT PUSH2 0x82D JUMPI PUSH2 0xAD9 PUSH1 0x24 SWAP3 CALLDATASIZE SWAP1 PUSH1 0x4 ADD PUSH2 0x5349 JUMP JUMPDEST DUP2 PUSH1 0x1 PUSH1 0x1 PUSH1 0xA0 SHL SUB PUSH1 0x0 SLOAD AND PUSH1 0x40 MLOAD SWAP5 DUP6 DUP1 SWAP3 PUSH3 0xB0C809 PUSH1 0xE0 SHL DUP3 MSTORE CALLER PUSH1 0x4 DUP4 ADD MSTORE GAS STATICCALL SWAP3 DUP4 ISZERO PUSH2 0x83A JUMPI PUSH1 0x0 SWAP4 PUSH2 0xC7E JUMPI JUMPDEST POP PUSH2 0xB19 DUP4 ISZERO ISZERO PUSH2 0x5858 JUMP JUMPDEST PUSH1 0x40 MLOAD DUP2 MLOAD SWAP1 DUP4 DUP2 DUP2 DUP6 ADD SWAP4 PUSH2 0xB30 DUP2 DUP4 DUP8 PUSH2 0x53D2 JUMP JUMPDEST DUP2 ADD PUSH1 0xB DUP2 MSTORE SUB ADD SWAP1 KECCAK256 DUP5 PUSH1 0x0 MSTORE DUP4 MSTORE PUSH1 0xFF PUSH1 0x40 PUSH1 0x0 KECCAK256 SLOAD AND ISZERO PUSH2 0xC3A JUMPI PUSH32 0x94748C1A380E215F3BA9DE3F49D5C0A47C8BFF6C16301F5F153E2429032722F0 SWAP2 PUSH2 0xC30 SWAP2 PUSH1 0x40 MLOAD DUP6 DUP2 DUP5 MLOAD PUSH2 0xB86 DUP2 DUP4 DUP8 PUSH2 0x53D2 JUMP JUMPDEST DUP2 ADD PUSH1 0xC DUP2 MSTORE SUB ADD SWAP1 KECCAK256 DUP7 PUSH1 0x0 MSTORE DUP6 MSTORE PUSH2 0xC10 DUP6 PUSH1 0x4 PUSH2 0xBF2 DUP5 PUSH2 0xBE0 PUSH1 0xFF DUP5 PUSH2 0xBD7 DUP11 PUSH2 0xBC8 DUP10 PUSH1 0x40 PUSH1 0x0 KECCAK256 SLOAD SWAP8 DUP9 SWAP4 PUSH1 0x40 MLOAD SWAP4 DUP5 SWAP3 DUP4 SWAP3 MLOAD SWAP3 DUP4 SWAP2 PUSH2 0x53D2 JUMP JUMPDEST DUP2 ADD PUSH1 0xA DUP2 MSTORE SUB ADD SWAP1 KECCAK256 PUSH2 0x578A JUMP JUMPDEST POP ADD SLOAD AND PUSH2 0x5A6C JUMP JUMPDEST PUSH1 0x40 MLOAD DUP5 DUP2 DUP10 MLOAD PUSH2 0xBC8 DUP2 DUP4 DUP13 PUSH2 0x53D2 JUMP JUMPDEST POP ADD SWAP3 PUSH1 0xFF NOT SWAP4 DUP5 DUP2 SLOAD AND SWAP1 SSTORE PUSH1 0x40 MLOAD DUP1 SWAP4 DUP2 SWAP3 DUP8 MLOAD SWAP3 DUP4 SWAP2 PUSH2 0x53D2 JUMP JUMPDEST DUP2 ADD PUSH1 0xB DUP2 MSTORE SUB ADD SWAP1 KECCAK256 DUP7 PUSH1 0x0 MSTORE DUP6 MSTORE PUSH1 0x40 PUSH1 0x0 KECCAK256 SWAP1 DUP2 SLOAD AND SWAP1 SSTORE PUSH2 0x5925 JUMP JUMPDEST SWAP2 PUSH1 0x40 MLOAD TIMESTAMP DUP2 MSTORE LOG3 STOP JUMPDEST PUSH1 0x64 DUP4 PUSH1 0x40 MLOAD SWAP1 PUSH3 0x461BCD PUSH1 0xE5 SHL DUP3 MSTORE PUSH1 0x4 DUP3 ADD MSTORE PUSH1 0x1A PUSH1 0x24 DUP3 ADD MSTORE PUSH32 0x4E6F20766572696669636174696F6E20746F2072657472616374000000000000 PUSH1 0x44 DUP3 ADD MSTORE REVERT JUMPDEST SWAP1 SWAP3 POP DUP2 DUP2 DUP2 RETURNDATASIZE DUP4 GT PUSH2 0xCA6 JUMPI JUMPDEST PUSH2 0xC96 DUP2 DUP4 PUSH2 0x5327 JUMP JUMPDEST DUP2 ADD SUB SLT PUSH2 0x82D JUMPI MLOAD SWAP2 DUP4 PUSH2 0xB0D JUMP JUMPDEST POP RETURNDATASIZE PUSH2 0xC8C JUMP JUMPDEST CALLVALUE PUSH2 0x82D JUMPI PUSH2 0xCBB CALLDATASIZE PUSH2 0x53A0 JUMP JUMPDEST PUSH1 0x40 MLOAD DUP3 DUP2 DUP1 SWAP5 MLOAD PUSH2 0xCD3 DUP2 PUSH1 0x20 SWAP8 DUP9 DUP1 SWAP7 ADD PUSH2 0x53D2 JUMP JUMPDEST DUP2 ADD PUSH1 0x10 DUP2 MSTORE SUB ADD SWAP1 KECCAK256 SWAP1 PUSH1 0x0 MSTORE DUP2 MSTORE PUSH1 0x40 PUSH1 0x0 KECCAK256 SWAP1 DUP2 SLOAD PUSH2 0xCF4 DUP2 PUSH2 0x5AB7 JUMP JUMPDEST SWAP1 PUSH2 0xD02 PUSH1 0x40 MLOAD SWAP3 DUP4 PUSH2 0x5327 JUMP JUMPDEST DUP1 DUP3 MSTORE DUP3 DUP3 ADD DUP1 SWAP5 PUSH1 0x0 MSTORE DUP4 PUSH1 0x0 KECCAK256 PUSH1 0x0 SWAP2 JUMPDEST DUP4 DUP4 LT PUSH2 0xD79 JUMPI PUSH1 0x40 DUP1 MLOAD DUP8 DUP2 MSTORE DUP7 MLOAD DUP2 DUP10 ADD DUP2 SWAP1 MSTORE DUP10 SWAP3 DUP3 ADD SWAP1 DUP10 PUSH1 0x0 JUMPDEST DUP3 DUP2 LT PUSH2 0xD41 JUMPI DUP5 DUP5 SUB DUP6 RETURN JUMPDEST DUP6 MLOAD DUP1 MLOAD DUP6 MSTORE DUP1 DUP4 ADD MLOAD ISZERO ISZERO DUP6 DUP5 ADD MSTORE PUSH1 0x40 DUP1 DUP3 ADD MLOAD SWAP1 DUP7 ADD MSTORE PUSH1 0x60 SWAP1 DUP2 ADD MLOAD ISZERO ISZERO SWAP1 DUP6 ADD MSTORE SWAP5 DUP2 ADD SWAP5 PUSH1 0x80 SWAP1 SWAP4 ADD SWAP3 PUSH1 0x1 ADD PUSH2 0xD34 JUMP JUMPDEST PUSH1 0x4 DUP7 PUSH1 0x1 SWAP3 PUSH2 0xD88 DUP6 PUSH2 0x5ACF JUMP JUMPDEST DUP2 MSTORE ADD SWAP3 ADD SWAP3 ADD SWAP2 SWAP1 PUSH2 0xD15 JUMP JUMPDEST CALLVALUE PUSH2 0x82D JUMPI PUSH2 0xDA4 CALLDATASIZE PUSH2 0x53A0 JUMP JUMPDEST SWAP1 PUSH1 0x40 MLOAD SWAP2 DUP2 MLOAD SWAP3 PUSH1 0x20 SWAP4 DUP2 DUP6 DUP1 SWAP4 DUP2 DUP8 ADD SWAP4 PUSH2 0xDC2 DUP2 DUP4 DUP8 PUSH2 0x53D2 JUMP JUMPDEST DUP2 ADD PUSH1 0x3 DUP2 MSTORE SUB ADD SWAP1 KECCAK256 DUP4 PUSH1 0x0 MSTORE DUP3 MSTORE PUSH1 0xFF PUSH1 0x40 PUSH1 0x0 KECCAK256 SLOAD AND SWAP4 DUP5 PUSH2 0xDEE JUMPI JUMPDEST DUP3 DUP6 PUSH1 0x40 MLOAD SWAP1 ISZERO ISZERO DUP2 MSTORE RETURN JUMPDEST PUSH2 0xE05 SWAP4 SWAP5 POP PUSH1 0x40 MLOAD SWAP4 DUP5 SWAP3 DUP4 SWAP3 MLOAD SWAP3 DUP4 SWAP2 PUSH2 0x53D2 JUMP JUMPDEST DUP2 ADD PUSH1 0x5 DUP2 MSTORE SUB ADD SWAP1 KECCAK256 SWAP1 PUSH1 0x0 MSTORE DUP2 MSTORE PUSH1 0xFF PUSH1 0x40 PUSH1 0x0 KECCAK256 SLOAD AND DUP3 DUP3 DUP2 DUP1 PUSH2 0xDE2 JUMP JUMPDEST CALLVALUE PUSH2 0x82D JUMPI PUSH1 0x20 DUP1 PUSH1 0x3 NOT CALLDATASIZE ADD SLT PUSH2 0x82D JUMPI PUSH1 0x4 CALLDATALOAD PUSH1 0x0 MSTORE PUSH1 0x13 DUP2 MSTORE PUSH1 0x40 PUSH1 0x0 KECCAK256 SWAP1 DUP2 SLOAD SWAP2 PUSH2 0xE55 DUP4 PUSH2 0x5AB7 JUMP JUMPDEST SWAP3 PUSH2 0xE63 PUSH1 0x40 MLOAD SWAP5 DUP6 PUSH2 0x5327 JUMP JUMPDEST DUP1 DUP5 MSTORE DUP3 DUP5 ADD DUP1 SWAP3 PUSH1 0x0 MSTORE DUP4 PUSH1 0x0 KECCAK256 PUSH1 0x0 SWAP2 JUMPDEST DUP4 DUP4 LT PUSH2 0xF2E JUMPI POP POP POP POP PUSH1 0x40 MLOAD SWAP2 DUP1 DUP4 ADD SWAP4 DUP2 DUP5 MSTORE MLOAD DUP1 SWAP5 MSTORE PUSH1 0x40 DUP4 ADD SWAP4 PUSH1 0x40 DUP2 PUSH1 0x5 SHL DUP6 ADD ADD SWAP3 SWAP2 PUSH1 0x0 SWAP6 JUMPDEST DUP3 DUP8 LT PUSH2 0xEB1 JUMPI DUP6 DUP6 SUB DUP7 RETURN JUMPDEST SWAP1 SWAP2 SWAP3 SWAP4 DUP3 DUP1 PUSH1 0x1 SWAP3 PUSH1 0x3F NOT DUP10 DUP3 SUB ADD DUP6 MSTORE DUP8 MLOAD SWAP1 PUSH2 0xEEC PUSH2 0xEDC PUSH1 0xC0 DUP5 MLOAD SWAP1 DUP1 DUP6 MSTORE DUP5 ADD SWAP1 PUSH2 0x543B JUMP JUMPDEST DUP5 DUP5 ADD MLOAD DUP4 DUP3 SUB DUP7 DUP6 ADD MSTORE PUSH2 0x543B JUMP JUMPDEST SWAP2 PUSH1 0x40 DUP2 ADD MLOAD PUSH1 0x40 DUP4 ADD MSTORE PUSH2 0xF09 PUSH1 0x60 DUP1 DUP4 ADD MLOAD SWAP1 DUP5 ADD SWAP1 PUSH2 0x56ED JUMP JUMPDEST PUSH1 0x80 DUP1 DUP3 ADD MLOAD SWAP1 DUP4 ADD MSTORE PUSH1 0xA0 DUP1 SWAP2 ADD MLOAD ISZERO ISZERO SWAP2 ADD MSTORE SWAP7 ADD SWAP3 ADD SWAP7 ADD SWAP6 SWAP3 SWAP2 SWAP1 SWAP3 PUSH2 0xEA4 JUMP JUMPDEST PUSH1 0x6 DUP7 PUSH1 0x1 SWAP3 PUSH2 0xF40 DUP6 SWAP11 SWAP10 SWAP11 PUSH2 0x5F74 JUMP JUMPDEST DUP2 MSTORE ADD SWAP3 ADD SWAP3 ADD SWAP2 SWAP1 SWAP6 SWAP5 SWAP6 PUSH2 0xE76 JUMP JUMPDEST CALLVALUE PUSH2 0x82D JUMPI PUSH2 0xF5F CALLDATASIZE PUSH2 0x5746 JUMP JUMPDEST PUSH1 0x1 PUSH1 0x1 PUSH1 0xA0 SHL SUB PUSH1 0x0 SLOAD AND SWAP2 PUSH1 0x40 MLOAD SWAP3 PUSH4 0x45ECD02F PUSH1 0xE0 SHL DUP5 MSTORE CALLER PUSH1 0x4 DUP6 ADD MSTORE PUSH1 0x20 SWAP4 DUP5 DUP2 PUSH1 0x24 DUP2 DUP6 GAS STATICCALL DUP1 ISZERO PUSH2 0x83A JUMPI PUSH2 0xFA2 SWAP2 PUSH1 0x0 SWAP2 PUSH2 0x11D1 JUMPI POP PUSH2 0x5BD7 JUMP JUMPDEST PUSH1 0x40 MLOAD PUSH4 0x286B6AB PUSH1 0xE3 SHL DUP2 MSTORE DUP5 DUP2 DUP1 PUSH2 0xFC0 CALLER DUP8 PUSH1 0x4 DUP5 ADD PUSH2 0x5C22 JUMP JUMPDEST SUB DUP2 DUP6 GAS STATICCALL DUP1 ISZERO PUSH2 0x83A JUMPI PUSH2 0xFDC SWAP2 PUSH1 0x0 SWAP2 PUSH2 0x11B4 JUMPI POP PUSH2 0x5C49 JUMP JUMPDEST PUSH1 0x40 MLOAD SWAP1 PUSH2 0x1007 DUP5 MLOAD SWAP3 DUP7 DUP2 DUP2 DUP9 ADD SWAP6 PUSH2 0xFF7 DUP2 DUP4 DUP10 PUSH2 0x53D2 JUMP JUMPDEST DUP2 ADD PUSH1 0x6 DUP2 MSTORE SUB ADD SWAP1 KECCAK256 SLOAD PUSH2 0x5498 JUMP JUMPDEST PUSH2 0x1170 JUMPI DUP4 MLOAD ISZERO PUSH2 0x112C JUMPI DUP5 PUSH1 0x24 SWAP2 PUSH1 0x40 MLOAD SWAP3 DUP4 DUP1 SWAP3 PUSH3 0xB0C809 PUSH1 0xE0 SHL DUP3 MSTORE CALLER PUSH1 0x4 DUP4 ADD MSTORE GAS STATICCALL SWAP2 DUP3 ISZERO PUSH2 0x83A JUMPI DUP6 SWAP2 PUSH1 0x0 SWAP4 PUSH2 0x10F9 JUMPI JUMPDEST POP PUSH2 0x10E5 DUP5 PUSH2 0x10CB DUP5 PUSH2 0x10EB SWAP5 PUSH2 0x1095 PUSH32 0x60D9FFF893391026DAADE2734B45ECB2FB8AE1F0187EA2B39018EE8BDC94390A SWAP10 DUP12 PUSH1 0x40 SWAP11 SWAP10 DUP12 MLOAD DUP1 SWAP3 MLOAD PUSH2 0x1086 DUP2 DUP4 DUP10 PUSH2 0x53D2 JUMP JUMPDEST DUP2 ADD PUSH1 0x6 DUP2 MSTORE SUB ADD SWAP1 KECCAK256 PUSH2 0x5CF6 JUMP JUMPDEST PUSH2 0x10BB DUP11 DUP10 MLOAD DUP5 DUP2 DUP9 MLOAD PUSH2 0x10AC DUP2 DUP4 DUP6 DUP14 ADD PUSH2 0x53D2 JUMP JUMPDEST DUP2 ADD PUSH1 0x7 DUP2 MSTORE SUB ADD SWAP1 KECCAK256 PUSH2 0x5F40 JUMP JUMPDEST DUP8 MLOAD DUP1 SWAP4 DUP2 SWAP3 DUP13 MLOAD SWAP3 DUP4 SWAP2 PUSH2 0x53D2 JUMP JUMPDEST DUP2 ADD PUSH1 0x8 DUP2 MSTORE SUB ADD SWAP1 KECCAK256 PUSH1 0x1 PUSH1 0xFF NOT DUP3 SLOAD AND OR SWAP1 SSTORE PUSH2 0x5925 JUMP JUMPDEST SWAP5 PUSH2 0x5925 JUMP JUMPDEST SWAP5 DUP3 MLOAD SWAP2 DUP3 MSTORE TIMESTAMP SWAP1 DUP3 ADD MSTORE LOG3 STOP JUMPDEST SWAP3 POP SWAP1 DUP3 DUP2 RETURNDATASIZE DUP2 GT PUSH2 0x1125 JUMPI JUMPDEST PUSH2 0x1110 DUP2 DUP4 PUSH2 0x5327 JUMP JUMPDEST DUP2 ADD SUB SLT PUSH2 0x82D JUMPI SWAP1 MLOAD SWAP1 DUP5 SWAP1 PUSH2 0x10E5 PUSH2 0x103F JUMP JUMPDEST POP RETURNDATASIZE PUSH2 0x1106 JUMP JUMPDEST PUSH1 0x64 DUP6 PUSH1 0x40 MLOAD SWAP1 PUSH3 0x461BCD PUSH1 0xE5 SHL DUP3 MSTORE PUSH1 0x4 DUP3 ADD MSTORE PUSH1 0x14 PUSH1 0x24 DUP3 ADD MSTORE PUSH32 0x486173682063616E6E6F7420626520656D707479000000000000000000000000 PUSH1 0x44 DUP3 ADD MSTORE REVERT JUMPDEST PUSH1 0x64 DUP6 PUSH1 0x40 MLOAD SWAP1 PUSH3 0x461BCD PUSH1 0xE5 SHL DUP3 MSTORE PUSH1 0x4 DUP3 ADD MSTORE PUSH1 0x1E PUSH1 0x24 DUP3 ADD MSTORE PUSH32 0x4861736820616C726561647920626F756E6420746F2061207265636F72640000 PUSH1 0x44 DUP3 ADD MSTORE REVERT JUMPDEST PUSH2 0x11CB SWAP2 POP DUP7 RETURNDATASIZE DUP9 GT PUSH2 0x888 JUMPI PUSH2 0x87A DUP2 DUP4 PUSH2 0x5327 JUMP JUMPDEST DUP7 PUSH2 0x485 JUMP JUMPDEST PUSH2 0x11E8 SWAP2 POP DUP7 RETURNDATASIZE DUP9 GT PUSH2 0x888 JUMPI PUSH2 0x87A DUP2 DUP4 PUSH2 0x5327 JUMP JUMPDEST DUP7 PUSH2 0x443 JUMP JUMPDEST CALLVALUE PUSH2 0x82D JUMPI PUSH2 0x11FC CALLDATASIZE PUSH2 0x5746 JUMP JUMPDEST PUSH1 0x1 PUSH1 0x1 PUSH1 0xA0 SHL SUB PUSH1 0x0 SLOAD AND SWAP2 PUSH1 0x40 MLOAD SWAP3 PUSH4 0x45ECD02F PUSH1 0xE0 SHL DUP5 MSTORE CALLER PUSH1 0x4 DUP6 ADD MSTORE PUSH1 0x20 SWAP4 DUP5 DUP2 PUSH1 0x24 DUP2 DUP6 GAS STATICCALL DUP1 ISZERO PUSH2 0x83A JUMPI PUSH2 0x123F SWAP2 PUSH1 0x0 SWAP2 PUSH2 0x11D1 JUMPI POP PUSH2 0x5BD7 JUMP JUMPDEST DUP4 PUSH1 0x40 MLOAD DUP1 SWAP3 PUSH32 0xA0CA13C300000000000000000000000000000000000000000000000000000000 DUP3 MSTORE DUP2 DUP1 PUSH2 0x1278 CALLER DUP9 PUSH1 0x4 DUP5 ADD PUSH2 0x5C22 JUMP JUMPDEST SUB SWAP2 GAS STATICCALL SWAP1 DUP2 ISZERO PUSH2 0x83A JUMPI PUSH1 0x0 SWAP2 PUSH2 0x15B2 JUMPI JUMPDEST POP ISZERO PUSH2 0x156E JUMPI PUSH1 0x40 MLOAD SWAP2 PUSH2 0xA66 PUSH2 0x12C5 DUP3 MLOAD SWAP5 DUP7 DUP2 DUP2 DUP7 ADD SWAP8 PUSH2 0x12AF DUP2 DUP4 DUP12 PUSH2 0x53D2 JUMP JUMPDEST DUP2 ADD PUSH1 0x6 DUP2 MSTORE SUB ADD SWAP1 KECCAK256 PUSH1 0x40 MLOAD SWAP3 DUP4 DUP1 SWAP3 PUSH2 0x54D2 JUMP JUMPDEST DUP5 DUP2 MLOAD SWAP2 ADD KECCAK256 SWAP2 DUP1 MLOAD SWAP3 DUP6 DUP3 ADD SWAP4 DUP5 KECCAK256 SUB PUSH2 0x152A JUMPI PUSH1 0x40 MLOAD SWAP1 DUP3 MLOAD PUSH2 0x12EB DUP2 DUP5 DUP9 PUSH2 0x53D2 JUMP JUMPDEST DUP3 ADD SWAP3 PUSH2 0x1309 PUSH1 0xFF PUSH1 0x8 SWAP5 PUSH1 0x8 DUP8 MSTORE DUP10 DUP2 DUP4 SWAP9 SUB ADD SWAP1 KECCAK256 SLOAD AND PUSH2 0x5A6C JUMP JUMPDEST PUSH2 0x1321 DUP8 PUSH1 0x0 SWAP7 PUSH1 0x40 MLOAD DUP1 SWAP4 DUP2 SWAP3 DUP8 MLOAD SWAP3 DUP4 SWAP2 PUSH2 0x53D2 JUMP JUMPDEST DUP2 ADD PUSH1 0x7 DUP2 MSTORE SUB ADD SWAP1 KECCAK256 SWAP2 DUP3 SLOAD PUSH2 0x1337 DUP2 PUSH2 0x5AB7 JUMP JUMPDEST SWAP4 PUSH2 0x1345 PUSH1 0x40 MLOAD SWAP6 DUP7 PUSH2 0x5327 JUMP JUMPDEST DUP2 DUP6 MSTORE PUSH1 0x0 SWAP1 DUP2 MSTORE DUP10 DUP2 KECCAK256 DUP11 DUP1 DUP8 ADD JUMPDEST DUP5 DUP5 LT PUSH2 0x1504 JUMPI POP POP POP POP POP PUSH1 0x0 JUMPDEST DUP4 MLOAD DUP2 LT ISZERO PUSH2 0x13BC JUMPI DUP6 PUSH2 0x1390 DUP11 PUSH2 0x137C DUP5 DUP9 PUSH2 0x5B0A JUMP JUMPDEST MLOAD DUP2 PUSH1 0x40 MLOAD SWAP4 DUP3 DUP6 DUP1 SWAP5 MLOAD SWAP4 DUP5 SWAP3 ADD PUSH2 0x53D2 JUMP JUMPDEST DUP2 ADD DUP10 DUP2 MSTORE SUB ADD SWAP1 KECCAK256 SLOAD AND PUSH2 0x13A8 JUMPI JUMPDEST PUSH1 0x1 ADD PUSH2 0x1364 JUMP JUMPDEST SWAP6 PUSH2 0x13B4 PUSH1 0x1 SWAP2 PUSH2 0x5B1E JUMP JUMPDEST SWAP7 SWAP1 POP PUSH2 0x13A0 JUMP JUMPDEST DUP9 DUP4 DUP4 DUP11 PUSH1 0x1 DUP12 GT ISZERO PUSH2 0x149A JUMPI PUSH2 0x144D PUSH32 0x10883978DC4137BE2C21CF3C3827329D1303377374A52FE00A7B5A98C25D883C SWAP3 PUSH2 0x142B DUP7 PUSH2 0x1453 SWAP5 PUSH1 0x40 MLOAD DUP3 DUP2 DUP11 MLOAD PUSH2 0x1408 DUP2 DUP4 DUP8 PUSH2 0x53D2 JUMP JUMPDEST DUP2 ADD PUSH1 0x8 DUP2 MSTORE SUB ADD SWAP1 KECCAK256 PUSH1 0xFF NOT DUP2 SLOAD AND SWAP1 SSTORE PUSH1 0x40 MLOAD DUP1 SWAP4 DUP2 SWAP3 DUP11 MLOAD SWAP3 DUP4 SWAP2 PUSH2 0x53D2 JUMP JUMPDEST DUP2 ADD PUSH1 0x6 DUP2 MSTORE SUB ADD SWAP1 KECCAK256 PUSH2 0x143F DUP2 SLOAD PUSH2 0x5498 JUMP JUMPDEST SWAP1 DUP2 PUSH2 0x145D JUMPI JUMPDEST POP POP PUSH2 0x5925 JUMP JUMPDEST SWAP3 PUSH2 0x5925 JUMP JUMPDEST SWAP3 PUSH1 0x40 MLOAD TIMESTAMP DUP2 MSTORE LOG3 STOP JUMPDEST DUP2 PUSH1 0x1F PUSH1 0x0 SWAP4 GT PUSH1 0x1 EQ PUSH2 0x1475 JUMPI POP SSTORE JUMPDEST DUP7 DUP1 PUSH2 0x1446 JUMP JUMPDEST SWAP1 DUP1 DUP4 SWAP2 DUP3 MSTORE PUSH2 0x1493 PUSH1 0x1F DUP12 DUP5 KECCAK256 SWAP5 ADD PUSH1 0x5 SHR DUP5 ADD PUSH1 0x1 DUP6 ADD PUSH2 0x5CDF JUMP JUMPDEST SSTORE SSTORE PUSH2 0x146E JUMP JUMPDEST PUSH1 0x84 DUP5 PUSH1 0x40 MLOAD SWAP1 PUSH3 0x461BCD PUSH1 0xE5 SHL DUP3 MSTORE PUSH1 0x4 DUP3 ADD MSTORE PUSH1 0x32 PUSH1 0x24 DUP3 ADD MSTORE PUSH32 0x43616E6E6F74207265747261637420746865206C617374206163746976652076 PUSH1 0x44 DUP3 ADD MSTORE PUSH32 0x657273696F6E206F662061207265636F72640000000000000000000000000000 PUSH1 0x64 DUP3 ADD MSTORE REVERT JUMPDEST PUSH1 0x1 SWAP2 DUP3 SWAP2 PUSH1 0x40 MLOAD PUSH2 0x151A DUP2 PUSH2 0xA66 DUP2 DUP10 PUSH2 0x54D2 JUMP JUMPDEST DUP2 MSTORE ADD SWAP3 ADD SWAP3 ADD SWAP2 SWAP1 DUP12 SWAP1 PUSH2 0x1355 JUMP JUMPDEST PUSH1 0x64 DUP6 PUSH1 0x40 MLOAD SWAP1 PUSH3 0x461BCD PUSH1 0xE5 SHL DUP3 MSTORE PUSH1 0x4 DUP3 ADD MSTORE PUSH1 0x14 PUSH1 0x24 DUP3 ADD MSTORE PUSH32 0x486173682D5265636F7264206D69736D61746368000000000000000000000000 PUSH1 0x44 DUP3 ADD MSTORE REVERT JUMPDEST PUSH1 0x64 DUP4 PUSH1 0x40 MLOAD SWAP1 PUSH3 0x461BCD PUSH1 0xE5 SHL DUP3 MSTORE PUSH1 0x4 DUP3 ADD MSTORE PUSH1 0x13 PUSH1 0x24 DUP3 ADD MSTORE PUSH32 0x4F6E6C79206F776E6572206F722061646D696E00000000000000000000000000 PUSH1 0x44 DUP3 ADD MSTORE REVERT JUMPDEST PUSH2 0x15C9 SWAP2 POP DUP5 RETURNDATASIZE DUP7 GT PUSH2 0x888 JUMPI PUSH2 0x87A DUP2 DUP4 PUSH2 0x5327 JUMP JUMPDEST DUP5 PUSH2 0x128B JUMP JUMPDEST CALLVALUE PUSH2 0x82D JUMPI PUSH1 0x20 DUP1 PUSH1 0x3 NOT CALLDATASIZE ADD SLT PUSH2 0x82D JUMPI PUSH1 0x4 CALLDATALOAD PUSH1 0x0 MSTORE PUSH1 0x15 PUSH1 0x20 MSTORE PUSH1 0x40 PUSH1 0x0 KECCAK256 DUP1 SLOAD PUSH2 0x15FC DUP2 PUSH2 0x5AB7 JUMP JUMPDEST SWAP2 PUSH2 0x160A PUSH1 0x40 MLOAD SWAP4 DUP5 PUSH2 0x5327 JUMP JUMPDEST DUP2 DUP4 MSTORE PUSH1 0x20 DUP4 ADD SWAP1 PUSH1 0x0 MSTORE PUSH1 0x20 PUSH1 0x0 KECCAK256 SWAP4 PUSH1 0x0 SWAP2 JUMPDEST DUP4 DUP4 LT PUSH2 0x1634 JUMPI PUSH1 0x40 MLOAD DUP1 PUSH2 0xA3D DUP8 DUP3 PUSH2 0x55F1 JUMP JUMPDEST PUSH1 0x1 DUP3 DUP2 SWAP3 PUSH1 0x40 MLOAD PUSH2 0x164A DUP2 PUSH2 0xA66 DUP2 DUP14 PUSH2 0x54D2 JUMP JUMPDEST DUP2 MSTORE ADD SWAP7 ADD SWAP3 ADD SWAP2 SWAP5 PUSH2 0x161F JUMP JUMPDEST CALLVALUE PUSH2 0x82D JUMPI PUSH1 0x20 CALLDATASIZE PUSH1 0x3 NOT ADD SLT PUSH2 0x82D JUMPI PUSH1 0x4 CALLDATALOAD PUSH1 0x1 PUSH1 0x1 PUSH1 0xA0 SHL SUB DUP1 DUP3 AND DUP1 SWAP3 SUB PUSH2 0x82D JUMPI PUSH2 0x168D SWAP1 PUSH1 0x1 SLOAD AND CALLER EQ PUSH2 0x5C94 JUMP JUMPDEST PUSH2 0x1698 DUP2 ISZERO ISZERO PUSH2 0x5FEC JUMP JUMPDEST PUSH20 0xFFFFFFFFFFFFFFFFFFFFFFFFFFFFFFFFFFFFFFFF NOT PUSH1 0x0 SLOAD AND OR PUSH1 0x0 SSTORE PUSH1 0x0 DUP1 RETURN JUMPDEST CALLVALUE PUSH2 0x82D JUMPI PUSH1 0x20 CALLDATASIZE PUSH1 0x3 NOT ADD SLT PUSH2 0x82D JUMPI PUSH1 0x4 CALLDATALOAD PUSH1 0x0 MSTORE PUSH1 0x14 PUSH1 0x20 MSTORE PUSH1 0x20 PUSH1 0x40 PUSH1 0x0 KECCAK256 SLOAD PUSH1 0x40 MLOAD SWAP1 DUP2 MSTORE RETURN JUMPDEST CALLVALUE PUSH2 0x82D JUMPI PUSH1 0x20 CALLDATASIZE PUSH1 0x3 NOT ADD SLT PUSH2 0x82D JUMPI PUSH1 0x4 CALLDATALOAD PUSH1 0x0 MSTORE PUSH1 0x15 PUSH1 0x20 MSTORE PUSH1 0x40 DUP1 PUSH1 0x0 KECCAK256 SLOAD PUSH1 0x16 PUSH1 0x20 MSTORE DUP2 PUSH1 0x0 KECCAK256 SLOAD DUP3 MLOAD SWAP2 DUP3 MSTORE PUSH1 0x20 DUP3 ADD MSTORE RETURN JUMPDEST CALLVALUE PUSH2 0x82D JUMPI PUSH1 0x0 CALLDATASIZE PUSH1 0x3 NOT ADD SLT PUSH2 0x82D JUMPI PUSH1 0x20 PUSH1 0x19 SLOAD PUSH1 0x40 MLOAD SWAP1 DUP2 MSTORE RETURN JUMPDEST CALLVALUE PUSH2 0x82D JUMPI PUSH1 0x20 DUP1 PUSH1 0x3 NOT CALLDATASIZE ADD SLT PUSH2 0x82D JUMPI PUSH1 0x4 CALLDATALOAD PUSH8 0xFFFFFFFFFFFFFFFF DUP2 GT PUSH2 0x82D JUMPI PUSH2 0x1770 SWAP1 CALLDATASIZE SWAP1 PUSH1 0x4 ADD PUSH2 0x5349 JUMP JUMPDEST SWAP1 PUSH1 0x0 DUP1 SWAP2 PUSH1 0x40 MLOAD DUP2 DUP6 MLOAD SWAP2 DUP2 DUP2 DUP2 DUP10 ADD SWAP5 PUSH2 0x178D DUP2 DUP4 DUP9 PUSH2 0x53D2 JUMP JUMPDEST DUP2 ADD PUSH1 0xA DUP2 MSTORE SUB ADD SWAP1 KECCAK256 SWAP6 DUP7 SLOAD PUSH2 0x17A3 DUP2 PUSH2 0x5AB7 JUMP JUMPDEST SWAP8 PUSH2 0x17B1 PUSH1 0x40 MLOAD SWAP10 DUP11 PUSH2 0x5327 JUMP JUMPDEST DUP2 DUP10 MSTORE PUSH1 0x0 SWAP1 DUP2 MSTORE DUP4 DUP2 KECCAK256 DUP5 DUP11 ADD JUMPDEST DUP4 DUP4 LT PUSH2 0x18DD JUMPI POP POP POP POP SWAP2 PUSH2 0x17E1 SWAP3 PUSH1 0x40 MLOAD SWAP4 DUP5 SWAP3 DUP4 SWAP3 MLOAD SWAP3 DUP4 SWAP2 PUSH2 0x53D2 JUMP JUMPDEST DUP2 ADD PUSH1 0xD DUP2 MSTORE SUB ADD SWAP1 KECCAK256 SWAP3 DUP4 SLOAD PUSH2 0x17F7 DUP2 PUSH2 0x5AB7 JUMP JUMPDEST SWAP5 PUSH2 0x1805 PUSH1 0x40 MLOAD SWAP7 DUP8 PUSH2 0x5327 JUMP JUMPDEST DUP2 DUP7 MSTORE PUSH1 0x0 SWAP1 DUP2 MSTORE DUP4 DUP2 KECCAK256 DUP5 DUP1 DUP9 ADD JUMPDEST DUP5 DUP5 LT PUSH2 0x18BE JUMPI POP POP POP POP POP DUP5 MLOAD SWAP1 DUP5 MLOAD SWAP5 PUSH1 0x0 JUMPDEST DUP8 MLOAD DUP2 LT ISZERO PUSH2 0x1863 JUMPI PUSH1 0x80 PUSH2 0x183F DUP3 DUP11 PUSH2 0x5B0A JUMP JUMPDEST MLOAD ADD MLOAD PUSH2 0x184F JUMPI JUMPDEST PUSH1 0x1 ADD PUSH2 0x182A JUMP JUMPDEST SWAP5 PUSH2 0x185B PUSH1 0x1 SWAP2 PUSH2 0x5B1E JUMP JUMPDEST SWAP6 SWAP1 POP PUSH2 0x1847 JUMP JUMPDEST POP DUP5 DUP7 PUSH1 0x0 JUMPDEST DUP4 MLOAD DUP2 LT ISZERO PUSH2 0x18A2 JUMPI PUSH1 0xC0 PUSH2 0x187E DUP3 DUP7 PUSH2 0x5B0A JUMP JUMPDEST MLOAD ADD MLOAD PUSH2 0x188E JUMPI JUMPDEST PUSH1 0x1 ADD PUSH2 0x1869 JUMP JUMPDEST SWAP4 PUSH2 0x189A PUSH1 0x1 SWAP2 PUSH2 0x5B1E JUMP JUMPDEST SWAP5 SWAP1 POP PUSH2 0x1886 JUMP JUMPDEST PUSH1 0x80 DUP4 DUP4 DUP9 DUP9 DUP12 PUSH1 0x40 MLOAD SWAP5 DUP6 MSTORE DUP5 ADD MSTORE PUSH1 0x40 DUP4 ADD MSTORE PUSH1 0x60 DUP3 ADD MSTORE RETURN JUMPDEST PUSH1 0x1 SWAP2 PUSH1 0x6 SWAP2 PUSH2 0x18CD DUP6 PUSH2 0x5B39 JUMP JUMPDEST DUP2 MSTORE ADD SWAP3 ADD SWAP3 ADD SWAP2 SWAP1 DUP6 SWAP1 PUSH2 0x1815 JUMP JUMPDEST DUP2 SWAP3 SWAP4 SWAP5 SWAP6 PUSH1 0x5 SWAP2 PUSH2 0x18F0 PUSH1 0x1 SWAP5 PUSH2 0x5945 JUMP JUMPDEST DUP2 MSTORE ADD SWAP3 ADD SWAP3 ADD SWAP1 SWAP2 DUP7 SWAP5 SWAP4 SWAP3 PUSH2 0x17C0 JUMP JUMPDEST CALLVALUE PUSH2 0x82D JUMPI PUSH1 0x0 CALLDATASIZE PUSH1 0x3 NOT ADD SLT PUSH2 0x82D JUMPI PUSH1 0x20 PUSH1 0x9 SLOAD PUSH1 0x40 MLOAD SWAP1 DUP2 MSTORE RETURN JUMPDEST CALLVALUE PUSH2 0x82D JUMPI PUSH1 0x20 DUP1 PUSH1 0x3 NOT CALLDATASIZE ADD SLT PUSH2 0x82D JUMPI PUSH1 0x4 CALLDATALOAD PUSH1 0x0 MSTORE PUSH1 0x16 PUSH1 0x20 MSTORE PUSH1 0x40 PUSH1 0x0 KECCAK256 DUP1 SLOAD PUSH2 0x194D DUP2 PUSH2 0x5AB7 JUMP JUMPDEST SWAP2 PUSH2 0x195B PUSH1 0x40 MLOAD SWAP4 DUP5 PUSH2 0x5327 JUMP JUMPDEST DUP2 DUP4 MSTORE PUSH1 0x20 DUP4 ADD SWAP1 PUSH1 0x0 MSTORE PUSH1 0x20 PUSH1 0x0 KECCAK256 SWAP4 PUSH1 0x0 SWAP2 JUMPDEST DUP4 DUP4 LT PUSH2 0x1985 JUMPI PUSH1 0x40 MLOAD DUP1 PUSH2 0xA3D DUP8 DUP3 PUSH2 0x55F1 JUMP JUMPDEST PUSH1 0x1 DUP3 DUP2 SWAP3 PUSH1 0x40 MLOAD PUSH2 0x199B DUP2 PUSH2 0xA66 DUP2 DUP14 PUSH2 0x54D2 JUMP JUMPDEST DUP2 MSTORE ADD SWAP7 ADD SWAP3 ADD SWAP2 SWAP5 PUSH2 0x1970 JUMP JUMPDEST CALLVALUE PUSH2 0x82D JUMPI PUSH1 0x20 PUSH2 0x19D1 PUSH2 0x19BC CALLDATASIZE PUSH2 0x53A0 JUMP JUMPDEST SWAP3 SWAP1 DUP2 PUSH1 0x40 MLOAD SWAP4 DUP3 DUP6 DUP1 SWAP5 MLOAD SWAP4 DUP5 SWAP3 ADD PUSH2 0x53D2 JUMP JUMPDEST DUP2 ADD PUSH1 0xD DUP2 MSTORE SUB ADD SWAP1 KECCAK256 SWAP1 DUP2 SLOAD DUP2 LT ISZERO PUSH2 0x82D JUMPI PUSH2 0x19EE SWAP2 PUSH2 0x57A6 JUMP JUMPDEST POP DUP1 SLOAD SWAP1 PUSH1 0x40 MLOAD PUSH2 0x1A06 DUP2 PUSH2 0xA66 DUP2 PUSH1 0x1 DUP7 ADD PUSH2 0x54D2 JUMP JUMPDEST PUSH2 0x1A85 PUSH1 0x2 DUP4 ADD SLOAD PUSH1 0xFF DUP2 AND SWAP1 PUSH2 0x1A78 PUSH1 0x40 MLOAD SWAP2 PUSH2 0x1A32 DUP4 PUSH2 0x1A2B DUP2 PUSH1 0x3 DUP12 ADD PUSH2 0x54D2 JUMP JUMPDEST SUB DUP5 PUSH2 0x5327 JUMP JUMPDEST PUSH2 0x1A59 PUSH1 0xFF PUSH1 0x5 PUSH1 0x4 DUP11 ADD SLOAD SWAP10 ADD SLOAD AND SWAP7 PUSH1 0x40 MLOAD SWAP11 DUP12 SWAP11 DUP12 MSTORE DUP1 PUSH1 0x20 DUP13 ADD MSTORE DUP11 ADD SWAP1 PUSH2 0x543B JUMP JUMPDEST SWAP4 PUSH2 0x1A63 DUP2 PUSH2 0x5460 JUMP JUMPDEST PUSH1 0x40 DUP10 ADD MSTORE PUSH1 0xFF PUSH1 0x60 DUP10 ADD SWAP2 PUSH1 0x8 SHR AND PUSH2 0x56CA JUMP JUMPDEST DUP6 DUP3 SUB PUSH1 0x80 DUP8 ADD MSTORE PUSH2 0x543B JUMP JUMPDEST SWAP2 PUSH1 0xA0 DUP5 ADD MSTORE ISZERO ISZERO PUSH1 0xC0 DUP4 ADD MSTORE SUB SWAP1 RETURN JUMPDEST CALLVALUE PUSH2 0x82D JUMPI PUSH1 0x20 DUP1 PUSH1 0x3 NOT CALLDATASIZE ADD SLT PUSH2 0x82D JUMPI PUSH1 0x4 CALLDATALOAD PUSH1 0x0 MSTORE PUSH1 0x4 PUSH1 0x20 MSTORE PUSH1 0x40 PUSH1 0x0 KECCAK256 DUP1 SLOAD PUSH2 0x1AC3 DUP2 PUSH2 0x5AB7 JUMP JUMPDEST SWAP2 PUSH2 0x1AD1 PUSH1 0x40 MLOAD SWAP4 DUP5 PUSH2 0x5327 JUMP JUMPDEST DUP2 DUP4 MSTORE PUSH1 0x20 DUP4 ADD SWAP1 PUSH1 0x0 MSTORE PUSH1 0x20 PUSH1 0x0 KECCAK256 SWAP4 PUSH1 0x0 SWAP2 JUMPDEST DUP4 DUP4 LT PUSH2 0x1AFB JUMPI PUSH1 0x40 MLOAD DUP1 PUSH2 0xA3D DUP8 DUP3 PUSH2 0x55F1 JUMP JUMPDEST PUSH1 0x1 DUP3 DUP2 SWAP3 PUSH1 0x40 MLOAD PUSH2 0x1B11 DUP2 PUSH2 0xA66 DUP2 DUP14 PUSH2 0x54D2 JUMP JUMPDEST DUP2 MSTORE ADD SWAP7 ADD SWAP3 ADD SWAP2 SWAP5 PUSH2 0x1AE6 JUMP JUMPDEST CALLVALUE PUSH2 0x82D JUMPI PUSH1 0x20 PUSH2 0x1B32 PUSH2 0x19BC CALLDATASIZE PUSH2 0x53A0 JUMP JUMPDEST DUP2 ADD PUSH1 0x3 DUP2 MSTORE SUB ADD SWAP1 KECCAK256 SWAP1 PUSH1 0x0 MSTORE PUSH1 0x20 MSTORE PUSH1 0x20 PUSH1 0xFF PUSH1 0x40 PUSH1 0x0 KECCAK256 SLOAD AND PUSH1 0x40 MLOAD SWAP1 ISZERO ISZERO DUP2 MSTORE RETURN JUMPDEST CALLVALUE PUSH2 0x82D JUMPI PUSH1 0x0 CALLDATASIZE PUSH1 0x3 NOT ADD SLT PUSH2 0x82D JUMPI PUSH1 0x20 PUSH1 0x18 SLOAD PUSH1 0x40 MLOAD SWAP1 DUP2 MSTORE RETURN JUMPDEST CALLVALUE PUSH2 0x82D JUMPI PUSH1 0x20 PUSH2 0x1B89 PUSH2 0x19BC CALLDATASIZE PUSH2 0x53A0 JUMP JUMPDEST DUP2 ADD PUSH1 0x2 DUP2 MSTORE SUB ADD SWAP1 KECCAK256 DUP1 SLOAD DUP3 LT ISZERO PUSH2 0x82D JUMPI PUSH1 0x20 SWAP2 PUSH2 0x1BA8 SWAP2 PUSH2 0x546A JUMP JUMPDEST SWAP1 SLOAD PUSH1 0x40 MLOAD SWAP2 PUSH1 0x3 SHL SHR DUP2 MSTORE RETURN JUMPDEST CALLVALUE PUSH2 0x82D JUMPI PUSH2 0x1BC4 CALLDATASIZE PUSH2 0x56D7 JUMP JUMPDEST SWAP1 PUSH1 0x0 MSTORE PUSH1 0x13 PUSH1 0x20 MSTORE PUSH1 0x40 PUSH1 0x0 KECCAK256 SWAP1 DUP2 SLOAD DUP2 LT ISZERO PUSH2 0x82D JUMPI PUSH2 0x1BE5 SWAP2 PUSH2 0x57A6 JUMP JUMPDEST POP PUSH1 0x40 MLOAD PUSH2 0x1BF7 DUP2 PUSH2 0xA66 DUP2 DUP6 PUSH2 0x54D2 JUMP JUMPDEST PUSH2 0xA3D PUSH1 0x40 MLOAD SWAP3 PUSH2 0x1C16 DUP5 PUSH2 0x1C0F DUP2 PUSH1 0x1 DUP6 ADD PUSH2 0x54D2 JUMP JUMPDEST SUB DUP6 PUSH2 0x5327 JUMP JUMPDEST PUSH1 0x2 DUP2 ADD SLOAD SWAP1 PUSH1 0xFF PUSH1 0x3 DUP3 ADD SLOAD AND PUSH1 0xFF PUSH1 0x5 PUSH1 0x4 DUP5 ADD SLOAD SWAP4 ADD SLOAD AND SWAP3 PUSH1 0x40 MLOAD SWAP7 DUP8 SWAP7 DUP8 PUSH2 0x56FA JUMP JUMPDEST CALLVALUE PUSH2 0x82D JUMPI PUSH2 0x1C4C CALLDATASIZE PUSH2 0x56D7 JUMP JUMPDEST SWAP1 PUSH1 0x0 MSTORE PUSH1 0x15 PUSH1 0x20 MSTORE PUSH1 0x40 PUSH1 0x0 KECCAK256 SWAP1 DUP2 SLOAD DUP2 LT ISZERO PUSH2 0x82D JUMPI PUSH2 0x1C74 PUSH2 0x1C7A SWAP2 PUSH2 0xA3D SWAP4 PUSH2 0x546A JUMP JUMPDEST SWAP1 PUSH2 0x5568 JUMP JUMPDEST PUSH1 0x40 MLOAD SWAP2 DUP3 SWAP2 PUSH1 0x20 DUP4 MSTORE PUSH1 0x20 DUP4 ADD SWAP1 PUSH2 0x543B JUMP JUMPDEST CALLVALUE PUSH2 0x82D JUMPI PUSH1 0x20 DUP1 PUSH1 0x3 NOT CALLDATASIZE ADD SLT PUSH2 0x82D JUMPI PUSH1 0x4 CALLDATALOAD PUSH8 0xFFFFFFFFFFFFFFFF DUP2 GT PUSH2 0x82D JUMPI PUSH2 0x1CC0 SWAP1 CALLDATASIZE SWAP1 PUSH1 0x4 ADD PUSH2 0x5349 JUMP JUMPDEST SWAP1 PUSH1 0x1 PUSH1 0x1 PUSH1 0xA0 SHL SUB PUSH1 0x0 SLOAD AND SWAP2 PUSH1 0x40 MLOAD PUSH4 0x45ECD02F PUSH1 0xE0 SHL DUP2 MSTORE CALLER PUSH1 0x4 DUP3 ADD MSTORE DUP3 DUP2 PUSH1 0x24 DUP2 DUP8 GAS STATICCALL DUP1 ISZERO PUSH2 0x83A JUMPI PUSH2 0x1D00 SWAP2 PUSH1 0x0 SWAP2 PUSH2 0x1F0B JUMPI POP PUSH2 0x5BD7 JUMP JUMPDEST PUSH1 0x40 MLOAD SWAP3 PUSH4 0x286B6AB PUSH1 0xE3 SHL DUP5 MSTORE DUP3 DUP5 DUP1 PUSH2 0x1D1F CALLER DUP7 PUSH1 0x4 DUP5 ADD PUSH2 0x5C22 JUMP JUMPDEST SUB DUP2 DUP5 GAS STATICCALL SWAP1 DUP2 ISZERO PUSH2 0x83A JUMPI PUSH2 0x1D40 DUP5 SWAP3 PUSH1 0x24 SWAP7 PUSH1 0x0 SWAP2 PUSH2 0x1EEE JUMPI POP PUSH2 0x5C49 JUMP JUMPDEST PUSH1 0x40 MLOAD SWAP5 DUP6 DUP1 SWAP3 PUSH3 0xB0C809 PUSH1 0xE0 SHL DUP3 MSTORE CALLER PUSH1 0x4 DUP4 ADD MSTORE GAS STATICCALL SWAP3 DUP4 ISZERO PUSH2 0x83A JUMPI PUSH1 0x0 SWAP4 PUSH2 0x1EBF JUMPI JUMPDEST POP PUSH2 0x1D73 DUP4 ISZERO ISZERO PUSH2 0x5858 JUMP JUMPDEST PUSH1 0x40 MLOAD DUP2 MLOAD SWAP1 DUP4 DUP2 DUP2 DUP6 ADD SWAP4 PUSH2 0x1D8A DUP2 DUP4 DUP8 PUSH2 0x53D2 JUMP JUMPDEST DUP2 ADD PUSH1 0x3 DUP2 MSTORE SUB ADD SWAP1 KECCAK256 DUP5 PUSH1 0x0 MSTORE DUP4 MSTORE PUSH1 0xFF PUSH1 0x40 PUSH1 0x0 KECCAK256 SLOAD AND ISZERO PUSH2 0x1E7B JUMPI PUSH1 0x40 MLOAD DUP4 DUP2 DUP5 MLOAD PUSH2 0x1DBA DUP2 DUP4 DUP8 PUSH2 0x53D2 JUMP JUMPDEST DUP2 ADD PUSH1 0x5 DUP2 MSTORE SUB ADD SWAP1 KECCAK256 DUP5 PUSH1 0x0 MSTORE DUP4 MSTORE PUSH1 0xFF PUSH1 0x40 PUSH1 0x0 KECCAK256 SLOAD AND PUSH2 0x1E37 JUMPI PUSH32 0x8F30CBE91E0CA2A9F89C7C4A38BAAA3FDD002BF05E8D40E1CA69945D06A4901 SWAP2 PUSH2 0x1E12 DUP5 PUSH2 0xC30 SWAP4 PUSH1 0x40 MLOAD DUP1 SWAP4 DUP2 SWAP3 DUP7 MLOAD SWAP3 DUP4 SWAP2 PUSH2 0x53D2 JUMP JUMPDEST DUP2 ADD PUSH1 0x5 DUP2 MSTORE SUB ADD SWAP1 KECCAK256 DUP6 PUSH1 0x0 MSTORE DUP5 MSTORE PUSH1 0x40 PUSH1 0x0 KECCAK256 PUSH1 0x1 PUSH1 0xFF NOT DUP3 SLOAD AND OR SWAP1 SSTORE PUSH2 0x5925 JUMP JUMPDEST PUSH1 0x64 DUP4 PUSH1 0x40 MLOAD SWAP1 PUSH3 0x461BCD PUSH1 0xE5 SHL DUP3 MSTORE PUSH1 0x4 DUP3 ADD MSTORE PUSH1 0xE PUSH1 0x24 DUP3 ADD MSTORE PUSH32 0x416C726561647920616374697665000000000000000000000000000000000000 PUSH1 0x44 DUP3 ADD MSTORE REVERT JUMPDEST PUSH1 0x64 DUP4 PUSH1 0x40 MLOAD SWAP1 PUSH3 0x461BCD PUSH1 0xE5 SHL DUP3 MSTORE PUSH1 0x4 DUP3 ADD MSTORE PUSH1 0x13 PUSH1 0x24 DUP3 ADD MSTORE PUSH32 0x576173206E657665722061207375626A65637400000000000000000000000000 PUSH1 0x44 DUP3 ADD MSTORE REVERT JUMPDEST SWAP1 SWAP3 POP DUP2 DUP2 DUP2 RETURNDATASIZE DUP4 GT PUSH2 0x1EE7 JUMPI JUMPDEST PUSH2 0x1ED7 DUP2 DUP4 PUSH2 0x5327 JUMP JUMPDEST DUP2 ADD SUB SLT PUSH2 0x82D JUMPI MLOAD SWAP2 DUP4 PUSH2 0x1D67 JUMP JUMPDEST POP RETURNDATASIZE PUSH2 0x1ECD JUMP JUMPDEST PUSH2 0x1F05 SWAP2 POP DUP5 RETURNDATASIZE DUP7 GT PUSH2 0x888 JUMPI PUSH2 0x87A DUP2 DUP4 PUSH2 0x5327 JUMP JUMPDEST DUP8 PUSH2 0x485 JUMP JUMPDEST PUSH2 0x1F22 SWAP2 POP DUP5 RETURNDATASIZE DUP7 GT PUSH2 0x888 JUMPI PUSH2 0x87A DUP2 DUP4 PUSH2 0x5327 JUMP JUMPDEST DUP6 PUSH2 0x443 JUMP JUMPDEST CALLVALUE PUSH2 0x82D JUMPI PUSH2 0x1F36 CALLDATASIZE PUSH2 0x56D7 JUMP JUMPDEST SWAP1 PUSH1 0x0 MSTORE PUSH1 0x4 PUSH1 0x20 MSTORE PUSH1 0x40 PUSH1 0x0 KECCAK256 SWAP1 DUP2 SLOAD DUP2 LT ISZERO PUSH2 0x82D JUMPI PUSH2 0x1C74 PUSH2 0x1C7A SWAP2 PUSH2 0xA3D SWAP4 PUSH2 0x546A JUMP JUMPDEST CALLVALUE PUSH2 0x82D JUMPI PUSH2 0x1F89 PUSH1 0x20 PUSH2 0x1F71 CALLDATASIZE PUSH2 0x5655 JUMP JUMPDEST SWAP4 SWAP2 DUP4 PUSH1 0x40 SWAP5 SWAP3 SWAP5 MLOAD SWAP4 DUP3 DUP6 DUP1 SWAP5 MLOAD SWAP4 DUP5 SWAP3 ADD PUSH2 0x53D2 JUMP JUMPDEST DUP2 ADD PUSH1 0x12 DUP2 MSTORE SUB ADD SWAP1 KECCAK256 SWAP1 PUSH1 0x0 MSTORE PUSH1 0x20 MSTORE PUSH1 0x40 PUSH1 0x0 KECCAK256 SWAP1 PUSH1 0x0 MSTORE PUSH1 0x20 MSTORE PUSH1 0x20 PUSH1 0x40 PUSH1 0x0 KECCAK256 SLOAD PUSH1 0x40 MLOAD SWAP1 DUP2 MSTORE RETURN JUMPDEST CALLVALUE PUSH2 0x82D JUMPI PUSH2 0x1FC4 CALLDATASIZE PUSH2 0x56D7 JUMP JUMPDEST SWAP1 PUSH1 0x0 MSTORE PUSH1 0x16 PUSH1 0x20 MSTORE PUSH1 0x40 PUSH1 0x0 KECCAK256 SWAP1 DUP2 SLOAD DUP2 LT ISZERO PUSH2 0x82D JUMPI PUSH2 0x1C74 PUSH2 0x1C7A SWAP2 PUSH2 0xA3D SWAP4 PUSH2 0x546A JUMP JUMPDEST CALLVALUE PUSH2 0x82D JUMPI PUSH1 0x0 CALLDATASIZE PUSH1 0x3 NOT ADD SLT PUSH2 0x82D JUMPI PUSH1 0x20 PUSH1 0x17 SLOAD PUSH1 0x40 MLOAD SWAP1 DUP2 MSTORE RETURN JUMPDEST CALLVALUE PUSH2 0x82D JUMPI PUSH1 0x40 CALLDATASIZE PUSH1 0x3 NOT ADD SLT PUSH2 0x82D JUMPI PUSH1 0x4 CALLDATALOAD PUSH8 0xFFFFFFFFFFFFFFFF DUP2 GT PUSH2 0x82D JUMPI PUSH2 0x203B SWAP1 CALLDATASIZE SWAP1 PUSH1 0x4 ADD PUSH2 0x5349 JUMP JUMPDEST PUSH1 0xFF PUSH2 0x2045 PUSH2 0x541B JUMP JUMPDEST AND SWAP1 PUSH1 0x1 DUP3 LT ISZERO DUP1 PUSH2 0x22B8 JUMPI JUMPDEST PUSH2 0x205B SWAP1 PUSH2 0x5EF5 JUMP JUMPDEST PUSH1 0x1 PUSH1 0x1 PUSH1 0xA0 SHL SUB PUSH1 0x0 SLOAD AND SWAP1 PUSH1 0x40 MLOAD SWAP3 DUP4 SWAP3 PUSH3 0xB0C809 PUSH1 0xE0 SHL DUP5 MSTORE CALLER PUSH1 0x4 DUP6 ADD MSTORE DUP4 PUSH1 0x24 PUSH1 0x20 SWAP6 DUP7 SWAP4 GAS STATICCALL SWAP4 DUP5 ISZERO PUSH2 0x83A JUMPI PUSH1 0x0 SWAP5 PUSH2 0x2289 JUMPI JUMPDEST POP PUSH2 0x20A2 DUP5 ISZERO ISZERO PUSH2 0x5858 JUMP JUMPDEST PUSH1 0x40 MLOAD DUP3 MLOAD SWAP1 DUP5 DUP2 DUP2 DUP7 ADD SWAP4 PUSH2 0x20B9 DUP2 DUP4 DUP8 PUSH2 0x53D2 JUMP JUMPDEST DUP2 ADD PUSH1 0xB DUP2 MSTORE SUB ADD SWAP1 KECCAK256 DUP6 PUSH1 0x0 MSTORE DUP5 MSTORE PUSH1 0xFF PUSH1 0x40 PUSH1 0x0 KECCAK256 SLOAD AND ISZERO PUSH2 0x2245 JUMPI PUSH2 0x2119 SWAP1 PUSH1 0x40 MLOAD DUP6 DUP2 DUP7 MLOAD PUSH2 0x20ED DUP2 DUP4 DUP8 PUSH2 0x53D2 JUMP JUMPDEST DUP2 ADD PUSH1 0xC DUP2 MSTORE SUB ADD SWAP1 KECCAK256 DUP7 PUSH1 0x0 MSTORE DUP6 MSTORE PUSH2 0xBC8 DUP6 PUSH1 0x40 PUSH1 0x0 KECCAK256 SLOAD SWAP3 PUSH1 0x40 MLOAD DUP1 SWAP4 DUP2 SWAP3 DUP10 MLOAD SWAP3 DUP4 SWAP2 PUSH2 0x53D2 JUMP JUMPDEST POP PUSH1 0xFF PUSH1 0x4 DUP3 ADD SLOAD AND ISZERO PUSH2 0x2201 JUMPI PUSH1 0x2 ADD SWAP2 PUSH1 0xFF DUP4 SLOAD AND SWAP3 PUSH2 0x213A DUP4 PUSH2 0x5460 JUMP JUMPDEST PUSH2 0x2143 DUP4 PUSH2 0x5460 JUMP JUMPDEST PUSH2 0x214C DUP5 PUSH2 0x5460 JUMP JUMPDEST DUP3 DUP5 EQ PUSH2 0x21BD JUMPI SWAP2 PUSH2 0x2198 PUSH32 0x334F52BDF9B484290889B34FB83AD64BFF4DD1B7028A24D048A3A85537B53FF9 SWAP5 SWAP3 PUSH2 0x218F DUP4 PUSH1 0x60 SWAP7 PUSH2 0x218A DUP3 PUSH2 0x5460 JUMP JUMPDEST PUSH2 0x58EE JUMP JUMPDEST PUSH2 0x749 DUP4 PUSH2 0x5460 JUMP JUMPDEST SWAP5 PUSH1 0x40 MLOAD SWAP3 PUSH2 0x21A6 DUP2 PUSH2 0x5460 JUMP JUMPDEST DUP4 MSTORE PUSH2 0x21B1 DUP3 PUSH2 0x5460 JUMP JUMPDEST DUP3 ADD MSTORE TIMESTAMP PUSH1 0x40 DUP3 ADD MSTORE LOG3 STOP JUMPDEST PUSH1 0x64 DUP6 PUSH1 0x40 MLOAD SWAP1 PUSH3 0x461BCD PUSH1 0xE5 SHL DUP3 MSTORE PUSH1 0x4 DUP3 ADD MSTORE PUSH1 0x12 PUSH1 0x24 DUP3 ADD MSTORE PUSH32 0x416C72656164792074686973206C6576656C0000000000000000000000000000 PUSH1 0x44 DUP3 ADD MSTORE REVERT JUMPDEST PUSH1 0x64 DUP5 PUSH1 0x40 MLOAD SWAP1 PUSH3 0x461BCD PUSH1 0xE5 SHL DUP3 MSTORE PUSH1 0x4 DUP3 ADD MSTORE PUSH1 0x1F PUSH1 0x24 DUP3 ADD MSTORE PUSH32 0x566572696669636174696F6E20686173206265656E2072657472616374656400 PUSH1 0x44 DUP3 ADD MSTORE REVERT JUMPDEST PUSH1 0x64 DUP5 PUSH1 0x40 MLOAD SWAP1 PUSH3 0x461BCD PUSH1 0xE5 SHL DUP3 MSTORE PUSH1 0x4 DUP3 ADD MSTORE PUSH1 0x19 PUSH1 0x24 DUP3 ADD MSTORE PUSH32 0x4E6F20766572696669636174696F6E20746F206D6F6469667900000000000000 PUSH1 0x44 DUP3 ADD MSTORE REVERT JUMPDEST SWAP1 SWAP4 POP DUP3 DUP2 DUP2 RETURNDATASIZE DUP4 GT PUSH2 0x22B1 JUMPI JUMPDEST PUSH2 0x22A1 DUP2 DUP4 PUSH2 0x5327 JUMP JUMPDEST DUP2 ADD SUB SLT PUSH2 0x82D JUMPI MLOAD SWAP3 DUP5 PUSH2 0x2096 JUMP JUMPDEST POP RETURNDATASIZE PUSH2 0x2297 JUMP JUMPDEST POP PUSH1 0x3 DUP3 GT ISZERO PUSH2 0x2052 JUMP JUMPDEST CALLVALUE PUSH2 0x82D JUMPI PUSH2 0x22D6 PUSH1 0x20 PUSH2 0x1F71 CALLDATASIZE PUSH2 0x5655 JUMP JUMPDEST DUP2 ADD PUSH1 0x11 DUP2 MSTORE SUB ADD SWAP1 KECCAK256 SWAP1 PUSH1 0x0 MSTORE PUSH1 0x20 MSTORE PUSH1 0x40 PUSH1 0x0 KECCAK256 SWAP1 PUSH1 0x0 MSTORE PUSH1 0x20 MSTORE PUSH1 0x20 PUSH1 0xFF PUSH1 0x40 PUSH1 0x0 KECCAK256 SLOAD AND PUSH1 0x40 MLOAD SWAP1 ISZERO ISZERO DUP2 MSTORE RETURN JUMPDEST CALLVALUE PUSH2 0x82D JUMPI PUSH2 0x1A78 PUSH2 0x234A PUSH2 0x1A85 PUSH2 0x2328 PUSH2 0x2322 CALLDATASIZE PUSH2 0x53A0 JUMP JUMPDEST SWAP1 PUSH2 0x6037 JUMP JUMPDEST SWAP7 SWAP6 SWAP9 SWAP3 SWAP2 SWAP4 SWAP5 PUSH1 0x40 SWAP9 SWAP2 SWAP9 MLOAD SWAP11 DUP12 SWAP11 ISZERO ISZERO DUP12 MSTORE DUP1 PUSH1 0x20 DUP13 ADD MSTORE DUP11 ADD SWAP1 PUSH2 0x543B JUMP JUMPDEST SWAP4 PUSH2 0x2354 DUP2 PUSH2 0x5460 JUMP JUMPDEST PUSH1 0x40 DUP10 ADD MSTORE PUSH1 0x60 DUP9 ADD SWAP1 PUSH2 0x56CA JUMP JUMPDEST CALLVALUE PUSH2 0x82D JUMPI PUSH1 0x20 PUSH2 0x2376 PUSH2 0x19BC CALLDATASIZE PUSH2 0x53A0 JUMP JUMPDEST DUP2 ADD PUSH1 0xA DUP2 MSTORE SUB ADD SWAP1 KECCAK256 SWAP1 DUP2 SLOAD DUP2 LT ISZERO PUSH2 0x82D JUMPI PUSH2 0x2393 SWAP2 PUSH2 0x578A JUMP JUMPDEST POP DUP1 SLOAD PUSH1 0x40 MLOAD SWAP2 PUSH2 0x23AB DUP4 PUSH2 0x1A2B DUP2 PUSH1 0x1 DUP6 ADD PUSH2 0x54D2 JUMP JUMPDEST PUSH1 0xFF PUSH1 0x2 DUP3 ADD SLOAD AND SWAP1 PUSH1 0xFF PUSH1 0x4 PUSH1 0x3 DUP4 ADD SLOAD SWAP3 ADD SLOAD AND SWAP1 PUSH2 0x23DE PUSH1 0x40 MLOAD SWAP6 DUP7 SWAP6 DUP7 MSTORE PUSH1 0xA0 PUSH1 0x20 DUP8 ADD MSTORE PUSH1 0xA0 DUP7 ADD SWAP1 PUSH2 0x543B JUMP JUMPDEST SWAP3 PUSH2 0x23E8 DUP2 PUSH2 0x5460 JUMP JUMPDEST PUSH1 0x40 DUP6 ADD MSTORE PUSH1 0x60 DUP5 ADD MSTORE ISZERO ISZERO PUSH1 0x80 DUP4 ADD MSTORE SUB SWAP1 RETURN JUMPDEST CALLVALUE PUSH2 0x82D JUMPI PUSH2 0x240B CALLDATASIZE PUSH2 0x5746 JUMP JUMPDEST PUSH1 0x1 PUSH1 0x1 PUSH1 0xA0 SHL SUB PUSH1 0x0 SLOAD AND SWAP1 PUSH1 0x40 MLOAD SWAP3 PUSH4 0x45ECD02F PUSH1 0xE0 SHL DUP5 MSTORE CALLER PUSH1 0x4 DUP6 ADD MSTORE PUSH1 0x20 SWAP3 PUSH1 0x24 SWAP5 DUP5 DUP2 DUP8 DUP2 DUP6 GAS STATICCALL DUP1 ISZERO PUSH2 0x83A JUMPI PUSH2 0x2450 SWAP2 PUSH1 0x0 SWAP2 PUSH2 0x2869 JUMPI POP PUSH2 0x5BD7 JUMP JUMPDEST PUSH1 0x40 MLOAD SWAP1 PUSH4 0x286B6AB PUSH1 0xE3 SHL DUP3 MSTORE DUP5 DUP3 DUP1 PUSH2 0x246F CALLER DUP8 PUSH1 0x4 DUP5 ADD PUSH2 0x5C22 JUMP JUMPDEST SUB DUP2 DUP5 GAS STATICCALL SWAP1 DUP2 ISZERO PUSH2 0x83A JUMPI PUSH2 0x248F DUP7 SWAP3 DUP9 SWAP5 PUSH1 0x0 SWAP2 PUSH2 0x284C JUMPI POP PUSH2 0x5C49 JUMP JUMPDEST PUSH2 0x249B DUP5 MLOAD ISZERO ISZERO PUSH2 0x5E5F JUMP JUMPDEST PUSH2 0x24A7 DUP6 MLOAD ISZERO ISZERO PUSH2 0x5EAA JUMP JUMPDEST PUSH1 0x40 MLOAD SWAP7 DUP8 DUP1 SWAP3 PUSH3 0xB0C809 PUSH1 0xE0 SHL DUP3 MSTORE CALLER PUSH1 0x4 DUP4 ADD MSTORE GAS STATICCALL SWAP5 DUP6 ISZERO PUSH2 0x83A JUMPI PUSH1 0x0 SWAP6 PUSH2 0x281D JUMPI JUMPDEST POP PUSH2 0x24DA DUP6 ISZERO ISZERO PUSH2 0x5858 JUMP JUMPDEST PUSH1 0x40 MLOAD SWAP1 DUP3 MLOAD SWAP2 DUP6 DUP2 DUP2 DUP7 ADD SWAP5 PUSH2 0x24F2 DUP2 DUP4 DUP9 PUSH2 0x53D2 JUMP JUMPDEST DUP2 ADD PUSH1 0x3 DUP2 MSTORE SUB ADD SWAP1 KECCAK256 DUP7 PUSH1 0x0 MSTORE DUP6 MSTORE PUSH1 0xFF PUSH1 0x40 PUSH1 0x0 KECCAK256 SLOAD AND PUSH2 0x27B4 JUMPI PUSH1 0x40 MLOAD DUP6 DUP2 DUP6 MLOAD PUSH2 0x2521 DUP2 DUP4 DUP9 PUSH2 0x53D2 JUMP JUMPDEST DUP2 ADD PUSH1 0x2 DUP2 MSTORE SUB ADD SWAP1 KECCAK256 SLOAD ISZERO PUSH2 0x265C JUMPI JUMPDEST PUSH1 0x40 MLOAD DUP6 DUP2 DUP6 MLOAD PUSH2 0x2544 DUP2 DUP4 DUP9 PUSH2 0x53D2 JUMP JUMPDEST DUP2 ADD PUSH1 0x2 DUP2 MSTORE SUB ADD SWAP1 KECCAK256 DUP1 SLOAD SWAP2 PUSH9 0x10000000000000000 DUP4 LT ISZERO PUSH2 0x2648 JUMPI POP SWAP3 PUSH2 0x263E SWAP3 PUSH2 0x259C DUP4 PUSH32 0x1CDC47600AA970E2D8C3BFA9885DAEFC5E052EA8A6A10471AB3DBBC77AD2138D SWAP7 PUSH1 0x1 PUSH2 0x144D SWAP7 ADD DUP2 SSTORE PUSH2 0x546A JUMP JUMPDEST DUP2 SLOAD SWAP1 PUSH1 0x3 SHL SWAP1 DUP11 DUP3 SHL SWAP2 PUSH1 0x0 NOT SWAP1 SHL NOT AND OR SWAP1 SSTORE PUSH1 0x40 MLOAD DUP8 DUP2 DUP5 MLOAD PUSH2 0x25C3 DUP2 DUP4 DUP8 PUSH2 0x53D2 JUMP JUMPDEST DUP2 ADD PUSH1 0x3 DUP2 MSTORE SUB ADD SWAP1 KECCAK256 DUP9 PUSH1 0x0 MSTORE DUP8 MSTORE PUSH2 0x25FB DUP8 PUSH1 0x40 PUSH1 0x0 KECCAK256 SWAP3 PUSH1 0xFF NOT SWAP4 PUSH1 0x1 DUP6 DUP3 SLOAD AND OR SWAP1 SSTORE PUSH1 0x40 MLOAD DUP1 SWAP4 DUP2 SWAP3 DUP8 MLOAD SWAP3 DUP4 SWAP2 PUSH2 0x53D2 JUMP JUMPDEST DUP2 ADD PUSH1 0x5 DUP2 MSTORE SUB ADD SWAP1 KECCAK256 DUP9 PUSH1 0x0 MSTORE DUP8 MSTORE PUSH1 0x1 PUSH1 0x40 PUSH1 0x0 KECCAK256 SWAP2 DUP3 SLOAD AND OR SWAP1 SSTORE PUSH1 0x4 DUP7 MSTORE PUSH2 0x262B DUP2 PUSH1 0x40 PUSH1 0x0 KECCAK256 PUSH2 0x5F40 JUMP JUMPDEST PUSH2 0x2636 PUSH1 0x9 SLOAD PUSH2 0x5B1E JUMP JUMPDEST PUSH1 0x9 SSTORE PUSH2 0x5925 JUMP JUMPDEST SWAP3 PUSH1 0x40 MLOAD TIMESTAMP DUP2 MSTORE LOG4 STOP JUMPDEST PUSH4 0x4E487B71 PUSH1 0xE0 SHL PUSH1 0x0 MSTORE PUSH1 0x41 PUSH1 0x4 MSTORE PUSH1 0x0 REVERT JUMPDEST PUSH2 0x268F PUSH1 0x40 MLOAD PUSH2 0x2696 DUP7 MLOAD SWAP2 DUP9 DUP2 DUP2 DUP11 ADD SWAP5 PUSH2 0x2679 DUP2 DUP4 DUP9 PUSH2 0x53D2 JUMP JUMPDEST DUP2 ADD PUSH1 0x6 DUP2 MSTORE SUB ADD SWAP1 KECCAK256 PUSH1 0x40 MLOAD SWAP4 DUP5 DUP1 SWAP3 PUSH2 0x54D2 JUMP JUMPDEST SUB DUP4 PUSH2 0x5327 JUMP JUMPDEST DUP2 MLOAD ISZERO PUSH2 0x26EF JUMPI POP DUP6 DUP2 MLOAD SWAP2 ADD KECCAK256 DUP4 MLOAD DUP4 KECCAK256 EQ PUSH2 0x2532 JUMPI PUSH1 0x64 SWAP1 DUP6 PUSH1 0x40 MLOAD SWAP2 PUSH3 0x461BCD PUSH1 0xE5 SHL DUP4 MSTORE DUP2 PUSH1 0x4 DUP5 ADD MSTORE DUP3 ADD MSTORE PUSH32 0x486173682062656C6F6E677320746F20646966666572656E74207265636F7264 PUSH1 0x44 DUP3 ADD MSTORE REVERT JUMPDEST SWAP1 POP PUSH1 0xFF PUSH1 0x40 MLOAD DUP8 DUP2 DUP9 MLOAD PUSH2 0x2705 DUP2 DUP4 DUP9 PUSH2 0x53D2 JUMP JUMPDEST DUP2 ADD PUSH1 0x8 DUP2 MSTORE SUB ADD SWAP1 KECCAK256 SLOAD AND PUSH2 0x2771 JUMPI DUP6 PUSH2 0x2757 SWAP2 PUSH2 0x2730 DUP7 PUSH1 0x40 MLOAD DUP5 DUP2 DUP12 MLOAD PUSH2 0x1086 DUP2 DUP4 DUP10 PUSH2 0x53D2 JUMP JUMPDEST PUSH2 0x2746 DUP8 PUSH1 0x40 MLOAD DUP5 DUP2 DUP11 MLOAD PUSH2 0x10AC DUP2 DUP4 DUP14 PUSH2 0x53D2 JUMP JUMPDEST PUSH1 0x40 MLOAD DUP1 SWAP4 DUP2 SWAP3 DUP10 MLOAD SWAP3 DUP4 SWAP2 PUSH2 0x53D2 JUMP JUMPDEST DUP2 ADD PUSH1 0x8 DUP2 MSTORE SUB ADD SWAP1 KECCAK256 PUSH1 0x1 PUSH1 0xFF NOT DUP3 SLOAD AND OR SWAP1 SSTORE PUSH2 0x2532 JUMP JUMPDEST PUSH1 0x64 DUP7 PUSH1 0x11 DUP5 PUSH1 0x40 MLOAD SWAP3 PUSH3 0x461BCD PUSH1 0xE5 SHL DUP5 MSTORE PUSH1 0x4 DUP5 ADD MSTORE DUP3 ADD MSTORE PUSH32 0x4861736820616C72656164792075736564000000000000000000000000000000 PUSH1 0x44 DUP3 ADD MSTORE REVERT JUMPDEST DUP5 PUSH1 0x27 PUSH1 0x84 SWAP3 PUSH1 0x40 MLOAD SWAP3 PUSH3 0x461BCD PUSH1 0xE5 SHL DUP5 MSTORE PUSH1 0x4 DUP5 ADD MSTORE DUP3 ADD MSTORE PUSH32 0x5265636F726420616C726561647920616E63686F72656420746F207468697320 PUSH1 0x44 DUP3 ADD MSTORE PUSH32 0x7375626A65637400000000000000000000000000000000000000000000000000 PUSH1 0x64 DUP3 ADD MSTORE REVERT JUMPDEST SWAP1 SWAP5 POP DUP4 DUP2 DUP2 RETURNDATASIZE DUP4 GT PUSH2 0x2845 JUMPI JUMPDEST PUSH2 0x2835 DUP2 DUP4 PUSH2 0x5327 JUMP JUMPDEST DUP2 ADD SUB SLT PUSH2 0x82D JUMPI MLOAD SWAP4 DUP6 PUSH2 0x24CE JUMP JUMPDEST POP RETURNDATASIZE PUSH2 0x282B JUMP JUMPDEST PUSH2 0x2863 SWAP2 POP DUP5 RETURNDATASIZE DUP7 GT PUSH2 0x888 JUMPI PUSH2 0x87A DUP2 DUP4 PUSH2 0x5327 JUMP JUMPDEST DUP10 PUSH2 0x485 JUMP JUMPDEST PUSH2 0x2880 SWAP2 POP DUP7 RETURNDATASIZE DUP9 GT PUSH2 0x888 JUMPI PUSH2 0x87A DUP2 DUP4 PUSH2 0x5327 JUMP JUMPDEST DUP8 PUSH2 0x443 JUMP JUMPDEST CALLVALUE PUSH2 0x82D JUMPI PUSH1 0x20 DUP1 PUSH1 0x3 NOT CALLDATASIZE ADD SLT PUSH2 0x82D JUMPI PUSH1 0x4 CALLDATALOAD PUSH8 0xFFFFFFFFFFFFFFFF DUP2 GT PUSH2 0x82D JUMPI PUSH2 0x28B8 SWAP1 CALLDATASIZE SWAP1 PUSH1 0x4 ADD PUSH2 0x5349 JUMP JUMPDEST SWAP1 PUSH1 0x0 SWAP2 PUSH1 0x0 DUP1 PUSH2 0x28D9 DUP5 PUSH1 0x0 SWAP5 DUP2 PUSH1 0x40 MLOAD SWAP4 DUP3 DUP6 DUP1 SWAP5 MLOAD SWAP4 DUP5 SWAP3 ADD PUSH2 0x53D2 JUMP JUMPDEST DUP2 ADD PUSH1 0xA DUP2 MSTORE SUB ADD SWAP1 KECCAK256 DUP1 SLOAD SWAP1 PUSH2 0x28EF DUP3 PUSH2 0x5AB7 JUMP JUMPDEST SWAP6 PUSH2 0x28FD PUSH1 0x40 MLOAD SWAP8 DUP9 PUSH2 0x5327 JUMP JUMPDEST DUP3 DUP8 MSTORE PUSH1 0x0 SWAP2 DUP3 MSTORE DUP1 DUP3 KECCAK256 DUP2 DUP9 ADD JUMPDEST DUP5 DUP5 LT PUSH2 0x2A36 JUMPI POP POP POP POP POP DUP4 MLOAD SWAP4 PUSH1 0x0 JUMPDEST DUP2 MLOAD DUP2 LT ISZERO PUSH2 0x2A0C JUMPI PUSH1 0x80 PUSH2 0x2933 DUP3 DUP5 PUSH2 0x5B0A JUMP JUMPDEST MLOAD ADD MLOAD PUSH2 0x2943 JUMPI JUMPDEST PUSH1 0x1 ADD PUSH2 0x291E JUMP JUMPDEST SWAP3 SWAP6 PUSH2 0x294E SWAP1 PUSH2 0x5B1E JUMP JUMPDEST SWAP6 PUSH1 0x1 PUSH1 0x40 PUSH2 0x295D DUP7 DUP6 PUSH2 0x5B0A JUMP JUMPDEST MLOAD ADD MLOAD PUSH2 0x2969 DUP2 PUSH2 0x5460 JUMP JUMPDEST PUSH2 0x2972 DUP2 PUSH2 0x5460 JUMP JUMPDEST SUB PUSH2 0x298B JUMPI PUSH2 0x2982 PUSH1 0x1 SWAP2 PUSH2 0x5B1E JUMP JUMPDEST SWAP4 JUMPDEST SWAP1 POP PUSH2 0x293B JUMP JUMPDEST SWAP3 SWAP2 PUSH1 0x2 PUSH1 0x40 PUSH2 0x299B DUP6 DUP6 PUSH2 0x5B0A JUMP JUMPDEST MLOAD ADD MLOAD PUSH2 0x29A7 DUP2 PUSH2 0x5460 JUMP JUMPDEST PUSH2 0x29B0 DUP2 PUSH2 0x5460 JUMP JUMPDEST SUB PUSH2 0x29C6 JUMPI PUSH2 0x29C0 PUSH1 0x1 SWAP2 PUSH2 0x5B1E JUMP JUMPDEST SWAP3 PUSH2 0x2984 JUMP JUMPDEST SWAP2 PUSH1 0x3 PUSH1 0x40 PUSH2 0x29D5 DUP4 DUP6 PUSH2 0x5B0A JUMP JUMPDEST MLOAD ADD MLOAD PUSH2 0x29E1 DUP2 PUSH2 0x5460 JUMP JUMPDEST PUSH2 0x29EA DUP2 PUSH2 0x5460 JUMP JUMPDEST EQ PUSH2 0x29F8 JUMPI JUMPDEST PUSH1 0x1 SWAP1 PUSH2 0x2984 JUMP JUMPDEST SWAP4 PUSH2 0x2A04 PUSH1 0x1 SWAP2 PUSH2 0x5B1E JUMP JUMPDEST SWAP5 SWAP1 POP PUSH2 0x29F0 JUMP JUMPDEST POP POP PUSH1 0x40 DUP1 MLOAD SWAP5 DUP6 MSTORE PUSH1 0x20 DUP6 ADD SWAP6 SWAP1 SWAP6 MSTORE SWAP4 DUP4 ADD MSTORE PUSH1 0x60 DUP3 ADD SWAP3 SWAP1 SWAP3 MSTORE PUSH1 0x80 DUP2 ADD SWAP2 SWAP1 SWAP2 MSTORE PUSH1 0xA0 SWAP1 RETURN JUMPDEST PUSH1 0x5 DUP4 PUSH1 0x1 SWAP3 PUSH2 0x2A45 DUP6 PUSH2 0x5945 JUMP JUMPDEST DUP2 MSTORE ADD SWAP3 ADD SWAP4 ADD SWAP3 SWAP1 PUSH2 0x290C JUMP JUMPDEST CALLVALUE PUSH2 0x82D JUMPI PUSH1 0x20 PUSH2 0x2A66 PUSH2 0x19BC CALLDATASIZE PUSH2 0x53A0 JUMP JUMPDEST DUP2 ADD PUSH1 0xB DUP2 MSTORE SUB ADD SWAP1 KECCAK256 SWAP1 PUSH1 0x0 MSTORE PUSH1 0x20 MSTORE PUSH1 0x20 PUSH1 0xFF PUSH1 0x40 PUSH1 0x0 KECCAK256 SLOAD AND PUSH1 0x40 MLOAD SWAP1 ISZERO ISZERO DUP2 MSTORE RETURN JUMPDEST CALLVALUE PUSH2 0x82D JUMPI PUSH1 0x20 CALLDATASIZE PUSH1 0x3 NOT ADD SLT PUSH2 0x82D JUMPI PUSH1 0x4 CALLDATALOAD PUSH1 0x1 PUSH1 0x1 PUSH1 0xA0 SHL SUB DUP1 DUP3 AND DUP1 SWAP3 SUB PUSH2 0x82D JUMPI PUSH20 0xFFFFFFFFFFFFFFFFFFFFFFFFFFFFFFFFFFFFFFFF NOT SWAP1 DUP3 PUSH1 0x1 SLOAD SWAP2 DUP3 AND PUSH2 0x2ADB DUP2 CALLER EQ PUSH2 0x5C94 JUMP JUMPDEST PUSH2 0x2AE6 DUP3 ISZERO ISZERO PUSH2 0x5FEC JUMP JUMPDEST PUSH32 0x38DF5FA0F7FEF0D515CA1F5388CB5790AC5885D5FCA8D05D9F943E563C33A4B3 PUSH1 0x20 PUSH1 0x40 MLOAD TIMESTAMP DUP2 MSTORE LOG3 AND OR PUSH1 0x1 SSTORE STOP JUMPDEST CALLVALUE PUSH2 0x82D JUMPI PUSH1 0x20 DUP1 PUSH1 0x3 NOT CALLDATASIZE ADD SLT PUSH2 0x82D JUMPI PUSH1 0x4 CALLDATALOAD PUSH8 0xFFFFFFFFFFFFFFFF DUP2 GT PUSH2 0x82D JUMPI PUSH2 0x2B49 SWAP1 CALLDATASIZE SWAP1 PUSH1 0x4 ADD PUSH2 0x5349 JUMP JUMPDEST PUSH1 0x0 PUSH1 0x40 MLOAD DUP3 MLOAD SWAP1 DUP5 DUP2 DUP2 DUP7 ADD SWAP4 PUSH2 0x2B62 DUP2 DUP4 DUP8 PUSH2 0x53D2 JUMP JUMPDEST DUP2 ADD PUSH1 0x2 DUP2 MSTORE SUB ADD SWAP1 KECCAK256 SWAP1 PUSH1 0x40 MLOAD DUP1 DUP4 DUP8 DUP3 SWAP6 SLOAD SWAP4 DUP5 DUP2 MSTORE ADD SWAP1 PUSH1 0x0 MSTORE DUP8 PUSH1 0x0 KECCAK256 SWAP3 PUSH1 0x0 JUMPDEST DUP10 DUP3 DUP3 LT PUSH2 0x2C12 JUMPI POP POP POP PUSH2 0x2B9E SWAP3 POP SUB DUP4 PUSH2 0x5327 JUMP JUMPDEST DUP2 MLOAD SWAP4 PUSH1 0x0 JUMPDEST DUP4 MLOAD DUP2 LT ISZERO PUSH2 0x2C03 JUMPI PUSH1 0x40 MLOAD DUP8 DUP2 DUP5 MLOAD PUSH2 0x2BBF DUP2 DUP4 DUP10 PUSH2 0x53D2 JUMP JUMPDEST DUP2 ADD PUSH1 0x5 DUP2 MSTORE SUB ADD SWAP1 KECCAK256 PUSH2 0x2BD3 DUP3 DUP7 PUSH2 0x5B0A JUMP JUMPDEST MLOAD PUSH1 0x0 MSTORE DUP8 MSTORE PUSH1 0xFF PUSH1 0x40 PUSH1 0x0 KECCAK256 SLOAD AND PUSH2 0x2BEF JUMPI JUMPDEST PUSH1 0x1 ADD PUSH2 0x2BA4 JUMP JUMPDEST SWAP4 PUSH2 0x2BFB PUSH1 0x1 SWAP2 PUSH2 0x5B1E JUMP JUMPDEST SWAP5 SWAP1 POP PUSH2 0x2BE7 JUMP JUMPDEST PUSH1 0x40 DUP7 DUP7 DUP10 DUP4 MLOAD SWAP3 DUP4 MSTORE DUP3 ADD MSTORE RETURN JUMPDEST DUP6 SLOAD DUP5 MSTORE PUSH1 0x1 SWAP6 DUP7 ADD SWAP6 DUP9 SWAP6 POP SWAP4 ADD SWAP3 ADD PUSH2 0x2B87 JUMP JUMPDEST CALLVALUE PUSH2 0x82D JUMPI PUSH2 0x2C6E PUSH2 0x2C68 PUSH2 0x2C3C CALLDATASIZE PUSH2 0x56D7 JUMP JUMPDEST SWAP1 DUP1 PUSH1 0x0 MSTORE PUSH1 0x13 PUSH1 0x20 MSTORE PUSH2 0x2C56 PUSH1 0x40 PUSH1 0x0 KECCAK256 SLOAD DUP4 LT PUSH2 0x5E14 JUMP JUMPDEST PUSH1 0x0 MSTORE PUSH1 0x13 PUSH1 0x20 MSTORE PUSH1 0x40 PUSH1 0x0 KECCAK256 PUSH2 0x57A6 JUMP JUMPDEST POP PUSH2 0x5F74 JUMP JUMPDEST DUP1 MLOAD PUSH1 0x20 DUP3 ADD MLOAD SWAP2 PUSH1 0x40 DUP2 ADD MLOAD PUSH1 0x60 DUP3 ADD MLOAD SWAP2 PUSH1 0x5 DUP4 LT ISZERO PUSH2 0x2CA7 JUMPI PUSH2 0xA3D SWAP3 PUSH1 0xA0 PUSH1 0x80 DUP4 ADD MLOAD SWAP3 ADD MLOAD ISZERO ISZERO SWAP3 PUSH1 0x40 MLOAD SWAP7 DUP8 SWAP7 DUP8 PUSH2 0x56FA JUMP JUMPDEST PUSH4 0x4E487B71 PUSH1 0xE0 SHL PUSH1 0x0 MSTORE PUSH1 0x21 PUSH1 0x4 MSTORE PUSH1 0x24 PUSH1 0x0 REVERT JUMPDEST CALLVALUE PUSH2 0x82D JUMPI PUSH1 0x20 DUP1 PUSH1 0x3 NOT CALLDATASIZE ADD SLT PUSH2 0x82D JUMPI PUSH1 0x4 CALLDATALOAD PUSH8 0xFFFFFFFFFFFFFFFF DUP2 GT PUSH2 0x82D JUMPI DUP2 PUSH2 0x2CF3 PUSH2 0x2D06 SWAP3 CALLDATASIZE SWAP1 PUSH1 0x4 ADD PUSH2 0x5349 JUMP JUMPDEST DUP2 PUSH1 0x40 MLOAD SWAP4 DUP3 DUP6 DUP1 SWAP5 MLOAD SWAP4 DUP5 SWAP3 ADD PUSH2 0x53D2 JUMP JUMPDEST DUP2 ADD PUSH1 0xD DUP2 MSTORE SUB ADD SWAP1 KECCAK256 DUP1 SLOAD SWAP2 PUSH2 0x2D1C DUP4 PUSH2 0x5AB7 JUMP JUMPDEST SWAP3 PUSH2 0x2D2A PUSH1 0x40 MLOAD SWAP5 DUP6 PUSH2 0x5327 JUMP JUMPDEST DUP1 DUP5 MSTORE DUP2 DUP5 ADD DUP1 SWAP4 PUSH1 0x0 MSTORE DUP3 PUSH1 0x0 KECCAK256 PUSH1 0x0 SWAP2 JUMPDEST DUP4 DUP4 LT PUSH2 0x2E09 JUMPI POP POP POP POP PUSH1 0x40 MLOAD SWAP3 DUP2 DUP5 ADD SWAP1 DUP3 DUP6 MSTORE MLOAD DUP1 SWAP2 MSTORE PUSH1 0x40 DUP5 ADD SWAP2 PUSH1 0x40 DUP3 PUSH1 0x5 SHL DUP7 ADD ADD SWAP4 SWAP3 PUSH1 0x0 SWAP7 JUMPDEST DUP4 DUP9 LT PUSH2 0x2D78 JUMPI DUP7 DUP7 SUB DUP8 RETURN JUMPDEST SWAP1 SWAP2 SWAP3 SWAP4 SWAP5 DUP4 DUP1 PUSH1 0x1 SWAP3 PUSH1 0x3F NOT DUP11 DUP3 SUB ADD DUP7 MSTORE DUP9 MLOAD SWAP1 DUP2 MLOAD DUP2 MSTORE PUSH2 0x2DE2 PUSH2 0x2DAA DUP5 DUP5 ADD MLOAD DUP9 DUP7 DUP6 ADD MSTORE DUP9 DUP5 ADD SWAP1 PUSH2 0x543B JUMP JUMPDEST PUSH1 0x40 DUP5 ADD MLOAD PUSH2 0x2DB8 DUP2 PUSH2 0x5460 JUMP JUMPDEST PUSH1 0x40 DUP5 ADD MSTORE PUSH2 0x2DCF PUSH1 0x60 DUP1 DUP7 ADD MLOAD SWAP1 DUP6 ADD SWAP1 PUSH2 0x56CA JUMP JUMPDEST PUSH1 0x80 DUP1 DUP6 ADD MLOAD SWAP1 DUP5 DUP4 SUB SWAP1 DUP6 ADD MSTORE PUSH2 0x543B JUMP JUMPDEST SWAP2 PUSH1 0xA0 DUP1 DUP3 ADD MLOAD SWAP1 DUP4 ADD MSTORE PUSH1 0xC0 DUP1 SWAP2 ADD MLOAD ISZERO ISZERO SWAP2 ADD MSTORE SWAP8 ADD SWAP4 ADD SWAP8 ADD SWAP7 SWAP1 SWAP4 SWAP3 SWAP2 SWAP4 PUSH2 0x2D6B JUMP JUMPDEST PUSH1 0x6 DUP6 PUSH1 0x1 SWAP3 PUSH2 0x2E1B DUP6 SWAP11 SWAP9 SWAP11 PUSH2 0x5B39 JUMP JUMPDEST DUP2 MSTORE ADD SWAP3 ADD SWAP3 ADD SWAP2 SWAP1 SWAP6 SWAP4 SWAP6 PUSH2 0x2D3D JUMP JUMPDEST CALLVALUE PUSH2 0x82D JUMPI PUSH1 0x20 DUP1 PUSH1 0x3 NOT CALLDATASIZE ADD SLT PUSH2 0x82D JUMPI PUSH1 0x4 CALLDATALOAD PUSH8 0xFFFFFFFFFFFFFFFF DUP2 GT PUSH2 0x82D JUMPI PUSH2 0x2E5E SWAP1 CALLDATASIZE SWAP1 PUSH1 0x4 ADD PUSH2 0x5349 JUMP JUMPDEST SWAP1 PUSH2 0x2E79 DUP2 PUSH1 0x0 SWAP4 DUP2 PUSH1 0x40 MLOAD SWAP4 DUP3 DUP6 DUP1 SWAP5 MLOAD SWAP4 DUP5 SWAP3 ADD PUSH2 0x53D2 JUMP JUMPDEST DUP2 ADD PUSH1 0xD DUP2 MSTORE SUB ADD SWAP1 KECCAK256 SWAP2 DUP3 SLOAD PUSH2 0x2E8F DUP2 PUSH2 0x5AB7 JUMP JUMPDEST SWAP4 PUSH2 0x2E9D PUSH1 0x40 MLOAD SWAP6 DUP7 PUSH2 0x5327 JUMP JUMPDEST DUP2 DUP6 MSTORE PUSH1 0x0 SWAP1 DUP2 MSTORE DUP4 DUP2 KECCAK256 DUP5 DUP1 DUP8 ADD JUMPDEST DUP5 DUP5 LT PUSH2 0x2F04 JUMPI DUP8 DUP3 DUP8 DUP3 MLOAD PUSH1 0x0 JUMPDEST DUP5 MLOAD DUP2 LT ISZERO PUSH2 0x2EF5 JUMPI PUSH1 0xC0 PUSH2 0x2ED1 DUP3 DUP8 PUSH2 0x5B0A JUMP JUMPDEST MLOAD ADD MLOAD PUSH2 0x2EE1 JUMPI JUMPDEST PUSH1 0x1 ADD PUSH2 0x2EBC JUMP JUMPDEST SWAP2 PUSH2 0x2EED PUSH1 0x1 SWAP2 PUSH2 0x5B1E JUMP JUMPDEST SWAP3 SWAP1 POP PUSH2 0x2ED9 JUMP JUMPDEST POP SWAP1 PUSH1 0x40 SWAP3 DUP4 MLOAD SWAP3 DUP4 MSTORE DUP3 ADD MSTORE RETURN JUMPDEST PUSH1 0x1 SWAP2 PUSH1 0x6 SWAP2 PUSH2 0x2F13 DUP6 PUSH2 0x5B39 JUMP JUMPDEST DUP2 MSTORE ADD SWAP3 ADD SWAP3 ADD SWAP2 SWAP1 DUP6 SWAP1 PUSH2 0x2EAD JUMP JUMPDEST CALLVALUE PUSH2 0x82D JUMPI PUSH1 0x20 CALLDATASIZE PUSH1 0x3 NOT ADD SLT PUSH2 0x82D JUMPI PUSH1 0x4 CALLDATALOAD PUSH1 0x0 MSTORE PUSH1 0x14 PUSH1 0x20 MSTORE PUSH1 0x20 PUSH1 0x40 PUSH1 0x0 KECCAK256 SLOAD ISZERO ISZERO PUSH1 0x40 MLOAD SWAP1 DUP2 MSTORE RETURN JUMPDEST CALLVALUE PUSH2 0x82D JUMPI PUSH1 0x20 PUSH2 0x2F64 PUSH2 0x19BC CALLDATASIZE PUSH2 0x53A0 JUMP JUMPDEST DUP2 ADD PUSH1 0xC DUP2 MSTORE SUB ADD SWAP1 KECCAK256 SWAP1 PUSH1 0x0 MSTORE PUSH1 0x20 MSTORE PUSH1 0x20 PUSH1 0x40 PUSH1 0x0 KECCAK256 SLOAD PUSH1 0x40 MLOAD SWAP1 DUP2 MSTORE RETURN JUMPDEST CALLVALUE PUSH2 0x82D JUMPI PUSH2 0x2F93 CALLDATASIZE PUSH2 0x568B JUMP JUMPDEST SWAP1 SWAP2 PUSH1 0x1 PUSH1 0x1 PUSH1 0xA0 SHL SUB PUSH1 0x0 SLOAD AND SWAP1 PUSH1 0x40 MLOAD SWAP3 DUP4 SWAP3 PUSH3 0xB0C809 PUSH1 0xE0 SHL DUP5 MSTORE CALLER PUSH1 0x4 DUP6 ADD MSTORE DUP4 PUSH1 0x24 PUSH1 0x20 SWAP6 DUP7 SWAP4 GAS STATICCALL SWAP4 DUP5 ISZERO PUSH2 0x83A JUMPI PUSH1 0x0 SWAP5 PUSH2 0x31D5 JUMPI JUMPDEST POP PUSH2 0x2FDC DUP5 ISZERO ISZERO PUSH2 0x5858 JUMP JUMPDEST PUSH1 0x40 MLOAD DUP3 MLOAD SWAP1 DUP5 DUP2 DUP2 DUP7 ADD SWAP4 PUSH2 0x2FF3 DUP2 DUP4 DUP8 PUSH2 0x53D2 JUMP JUMPDEST DUP2 ADD PUSH1 0x11 DUP2 MSTORE SUB ADD SWAP1 KECCAK256 DUP7 PUSH1 0x0 MSTORE DUP5 MSTORE PUSH1 0x40 PUSH1 0x0 KECCAK256 DUP6 PUSH1 0x0 MSTORE DUP5 MSTORE PUSH1 0xFF PUSH1 0x40 PUSH1 0x0 KECCAK256 SLOAD AND ISZERO PUSH2 0x3191 JUMPI PUSH2 0x3083 SWAP1 PUSH1 0x40 MLOAD DUP6 DUP2 DUP7 MLOAD PUSH2 0x3032 DUP2 DUP4 DUP8 PUSH2 0x53D2 JUMP JUMPDEST DUP2 ADD PUSH1 0x12 DUP2 MSTORE SUB ADD SWAP1 KECCAK256 DUP8 PUSH1 0x0 MSTORE DUP6 MSTORE PUSH1 0x40 PUSH1 0x0 KECCAK256 DUP7 PUSH1 0x0 MSTORE DUP6 MSTORE PUSH2 0x3069 DUP6 PUSH1 0x40 PUSH1 0x0 KECCAK256 SLOAD SWAP3 PUSH1 0x40 MLOAD DUP1 SWAP4 DUP2 SWAP3 DUP10 MLOAD SWAP3 DUP4 SWAP2 PUSH2 0x53D2 JUMP JUMPDEST DUP2 ADD PUSH1 0x10 DUP2 MSTORE SUB ADD SWAP1 KECCAK256 DUP8 PUSH1 0x0 MSTORE DUP6 MSTORE PUSH1 0x40 PUSH1 0x0 KECCAK256 PUSH2 0x55D5 JUMP JUMPDEST POP SWAP2 PUSH1 0xFF PUSH1 0x3 DUP5 ADD SLOAD AND ISZERO PUSH2 0x314D JUMPI PUSH1 0x1 DUP4 ADD SWAP3 PUSH1 0xFF DUP5 SLOAD AND SWAP3 DUP1 ISZERO ISZERO SWAP4 ISZERO ISZERO SWAP5 DUP5 DUP7 EQ PUSH2 0x3109 JUMPI SWAP3 PUSH1 0x60 SWAP5 SWAP3 PUSH2 0x30EB PUSH2 0x30F6 SWAP4 PUSH32 0x83316B3299EA5A7386901A45E5D604103B0C75A2D3FF829A25E4A6D645C6B7F3 SWAP9 SWAP7 SWAP1 PUSH1 0xFF DUP1 NOT DUP4 SLOAD AND SWAP2 ISZERO ISZERO AND OR SWAP1 SSTORE JUMP JUMPDEST PUSH1 0x2 TIMESTAMP SWAP2 ADD SSTORE PUSH2 0x5925 JUMP JUMPDEST SWAP5 PUSH1 0x40 MLOAD SWAP3 DUP4 MSTORE DUP3 ADD MSTORE TIMESTAMP PUSH1 0x40 DUP3 ADD MSTORE LOG4 STOP JUMPDEST PUSH1 0x64 DUP8 PUSH1 0x40 MLOAD SWAP1 PUSH3 0x461BCD PUSH1 0xE5 SHL DUP3 MSTORE PUSH1 0x4 DUP3 ADD MSTORE PUSH1 0x12 PUSH1 0x24 DUP3 ADD MSTORE PUSH32 0x416C726561647920746869732076616C75650000000000000000000000000000 PUSH1 0x44 DUP3 ADD MSTORE REVERT JUMPDEST PUSH1 0x64 DUP5 PUSH1 0x40 MLOAD SWAP1 PUSH3 0x461BCD PUSH1 0xE5 SHL DUP3 MSTORE PUSH1 0x4 DUP3 ADD MSTORE PUSH1 0x1B PUSH1 0x24 DUP3 ADD MSTORE PUSH32 0x5265616374696F6E20686173206265656E207265747261637465640000000000 PUSH1 0x44 DUP3 ADD MSTORE REVERT JUMPDEST PUSH1 0x64 DUP5 PUSH1 0x40 MLOAD SWAP1 PUSH3 0x461BCD PUSH1 0xE5 SHL DUP3 MSTORE PUSH1 0x4 DUP3 ADD MSTORE PUSH1 0x15 PUSH1 0x24 DUP3 ADD MSTORE PUSH32 0x4E6F207265616374696F6E20746F206D6F646966790000000000000000000000 PUSH1 0x44 DUP3 ADD MSTORE REVERT JUMPDEST SWAP1 SWAP4 POP DUP3 DUP2 DUP2 RETURNDATASIZE DUP4 GT PUSH2 0x31FD JUMPI JUMPDEST PUSH2 0x31ED DUP2 DUP4 PUSH2 0x5327 JUMP JUMPDEST DUP2 ADD SUB SLT PUSH2 0x82D JUMPI MLOAD SWAP3 DUP6 PUSH2 0x2FD0 JUMP JUMPDEST POP RETURNDATASIZE PUSH2 0x31E3 JUMP JUMPDEST CALLVALUE PUSH2 0x82D JUMPI PUSH2 0x3212 CALLDATASIZE PUSH2 0x568B JUMP JUMPDEST PUSH1 0x0 SLOAD PUSH1 0x40 MLOAD PUSH4 0x45ECD02F PUSH1 0xE0 SHL DUP2 MSTORE CALLER PUSH1 0x4 DUP3 ADD MSTORE SWAP3 SWAP4 PUSH1 0x24 SWAP4 PUSH1 0x20 SWAP4 SWAP3 PUSH1 0x1 PUSH1 0x1 PUSH1 0xA0 SHL SUB AND SWAP1 DUP5 DUP2 DUP8 DUP2 DUP6 GAS STATICCALL DUP1 ISZERO PUSH2 0x83A JUMPI PUSH2 0x3259 SWAP2 PUSH1 0x0 SWAP2 PUSH2 0x36A5 JUMPI POP PUSH2 0x5BD7 JUMP JUMPDEST PUSH1 0x40 MLOAD SWAP1 DUP3 MLOAD SWAP2 DUP6 DUP2 DUP2 DUP7 ADD SWAP5 PUSH2 0x3271 DUP2 DUP4 DUP9 PUSH2 0x53D2 JUMP JUMPDEST DUP2 ADD PUSH1 0xE DUP2 MSTORE SUB ADD SWAP1 KECCAK256 DUP8 PUSH1 0x0 MSTORE DUP6 MSTORE PUSH1 0xFF PUSH1 0x40 PUSH1 0x0 KECCAK256 SLOAD AND ISZERO PUSH2 0x3662 JUMPI SWAP1 PUSH2 0x331A SWAP2 PUSH1 0x40 MLOAD DUP7 DUP2 DUP7 MLOAD PUSH2 0x32A6 DUP2 DUP4 DUP9 PUSH2 0x53D2 JUMP JUMPDEST DUP2 ADD PUSH1 0xF DUP2 MSTORE SUB ADD SWAP1 KECCAK256 DUP9 PUSH1 0x0 MSTORE DUP7 MSTORE PUSH1 0x40 PUSH1 0x0 KECCAK256 SLOAD SWAP1 DUP7 PUSH1 0x1 PUSH2 0x32FE PUSH2 0x32ED DUP6 PUSH2 0x32DE DUP6 DUP10 DUP13 PUSH1 0x40 MLOAD SWAP4 DUP5 SWAP3 DUP4 SWAP3 MLOAD SWAP3 DUP4 SWAP2 PUSH2 0x53D2 JUMP JUMPDEST DUP2 ADD PUSH1 0xD DUP2 MSTORE SUB ADD SWAP1 KECCAK256 PUSH2 0x57A6 JUMP JUMPDEST POP PUSH2 0xA66 PUSH1 0x40 MLOAD DUP1 SWAP5 DUP2 SWAP4 ADD PUSH2 0x54D2 JUMP JUMPDEST PUSH1 0x40 MLOAD DUP1 SWAP7 DUP2 SWAP3 PUSH4 0x286B6AB PUSH1 0xE3 SHL DUP4 MSTORE CALLER SWAP1 PUSH1 0x4 DUP5 ADD PUSH2 0x5C22 JUMP JUMPDEST SUB DUP2 DUP5 GAS STATICCALL SWAP1 DUP2 ISZERO PUSH2 0x83A JUMPI PUSH2 0x333A DUP9 SWAP3 DUP11 SWAP7 PUSH1 0x0 SWAP2 PUSH2 0x3645 JUMPI POP PUSH2 0x5C49 JUMP JUMPDEST PUSH1 0x40 MLOAD SWAP9 DUP10 DUP1 SWAP3 PUSH3 0xB0C809 PUSH1 0xE0 SHL DUP3 MSTORE CALLER PUSH1 0x4 DUP4 ADD MSTORE GAS STATICCALL SWAP7 DUP8 ISZERO PUSH2 0x83A JUMPI PUSH1 0x0 SWAP8 PUSH2 0x3616 JUMPI JUMPDEST POP PUSH2 0x336D DUP8 ISZERO ISZERO PUSH2 0x5858 JUMP JUMPDEST DUP8 DUP8 EQ PUSH2 0x35D4 JUMPI PUSH1 0x40 MLOAD DUP7 DUP2 DUP7 MLOAD PUSH2 0x3386 DUP2 DUP4 DUP9 PUSH2 0x53D2 JUMP JUMPDEST DUP2 ADD PUSH1 0x11 DUP2 MSTORE SUB ADD SWAP1 KECCAK256 DUP9 PUSH1 0x0 MSTORE DUP7 MSTORE PUSH1 0x40 PUSH1 0x0 KECCAK256 DUP8 PUSH1 0x0 MSTORE DUP7 MSTORE PUSH1 0xFF PUSH1 0x40 PUSH1 0x0 KECCAK256 SLOAD AND PUSH2 0x3591 JUMPI PUSH1 0xFF PUSH1 0x5 PUSH2 0x33CB PUSH2 0x33D4 SWAP4 PUSH1 0x40 MLOAD DUP11 DUP2 DUP11 MLOAD PUSH2 0x32DE DUP2 DUP4 DUP13 PUSH2 0x53D2 JUMP JUMPDEST POP ADD SLOAD AND PUSH2 0x58A3 JUMP JUMPDEST PUSH1 0x40 MLOAD DUP6 DUP2 DUP6 MLOAD PUSH2 0x33E6 DUP2 DUP4 DUP8 PUSH2 0x53D2 JUMP JUMPDEST DUP2 ADD PUSH1 0x10 DUP2 MSTORE SUB ADD SWAP1 KECCAK256 DUP8 PUSH1 0x0 MSTORE DUP6 MSTORE PUSH1 0x40 PUSH1 0x0 KECCAK256 SLOAD SWAP2 PUSH1 0x40 MLOAD DUP7 DUP2 DUP7 MLOAD PUSH2 0x340F DUP2 DUP4 DUP9 PUSH2 0x53D2 JUMP JUMPDEST DUP2 ADD PUSH1 0x10 DUP2 MSTORE SUB ADD SWAP1 KECCAK256 DUP9 PUSH1 0x0 MSTORE DUP7 MSTORE PUSH1 0x40 PUSH1 0x0 KECCAK256 PUSH1 0x40 MLOAD PUSH2 0x3430 DUP2 PUSH2 0x52D3 JUMP JUMPDEST DUP9 DUP2 MSTORE DUP8 DUP2 ADD SWAP7 ISZERO ISZERO SWAP7 DUP8 DUP2 MSTORE PUSH1 0x40 DUP3 ADD SWAP2 TIMESTAMP DUP4 MSTORE PUSH1 0x60 DUP2 ADD SWAP4 PUSH1 0x1 DUP6 MSTORE DUP1 SLOAD SWAP1 PUSH9 0x10000000000000000 DUP3 LT ISZERO PUSH2 0x357C JUMPI SWAP1 PUSH2 0x3472 SWAP2 PUSH1 0x1 DUP3 ADD DUP2 SSTORE PUSH2 0x55D5 JUMP JUMPDEST SWAP6 SWAP1 SWAP6 PUSH2 0x3568 JUMPI POP SWAP5 PUSH2 0x34EC PUSH1 0x40 SWAP9 SWAP6 PUSH1 0x3 PUSH32 0xA63D8144C55FB5CA0CBCBEEEA8E1B365CC113F4AB5AAB289DB2285D783E6B766 SWAP12 SWAP10 SWAP7 PUSH2 0x3536 SWAP7 PUSH2 0x34D0 DUP16 SWAP8 PUSH2 0x355A SWAP13 MLOAD DUP7 SSTORE MLOAD ISZERO ISZERO PUSH1 0x1 DUP7 ADD SWAP1 PUSH1 0xFF DUP1 NOT DUP4 SLOAD AND SWAP2 ISZERO ISZERO AND OR SWAP1 SSTORE JUMP JUMPDEST MLOAD PUSH1 0x2 DUP5 ADD SSTORE MLOAD ISZERO ISZERO SWAP2 ADD SWAP1 PUSH1 0xFF DUP1 NOT DUP4 SLOAD AND SWAP2 ISZERO ISZERO AND OR SWAP1 SSTORE JUMP JUMPDEST DUP8 MLOAD DUP3 DUP2 DUP8 MLOAD PUSH2 0x34FD DUP2 DUP4 DUP8 PUSH2 0x53D2 JUMP JUMPDEST DUP2 ADD PUSH1 0x11 DUP2 MSTORE SUB ADD SWAP1 KECCAK256 DUP13 PUSH1 0x0 MSTORE DUP3 MSTORE DUP8 PUSH1 0x0 KECCAK256 DUP12 PUSH1 0x0 MSTORE DUP3 MSTORE DUP8 PUSH1 0x0 KECCAK256 PUSH1 0x1 PUSH1 0xFF NOT DUP3 SLOAD AND OR SWAP1 SSTORE DUP8 MLOAD DUP1 SWAP4 DUP2 SWAP3 DUP8 MLOAD SWAP3 DUP4 SWAP2 PUSH2 0x53D2 JUMP JUMPDEST DUP2 ADD PUSH1 0x12 DUP2 MSTORE SUB ADD SWAP1 KECCAK256 DUP10 PUSH1 0x0 MSTORE DUP8 MSTORE DUP5 PUSH1 0x0 KECCAK256 DUP9 PUSH1 0x0 MSTORE DUP8 MSTORE DUP5 PUSH1 0x0 KECCAK256 SSTORE PUSH2 0x5925 JUMP JUMPDEST SWAP4 DUP3 MLOAD SWAP2 DUP3 MSTORE TIMESTAMP SWAP1 DUP3 ADD MSTORE LOG4 STOP JUMPDEST PUSH4 0x4E487B71 PUSH1 0xE0 SHL PUSH1 0x0 MSTORE PUSH1 0x0 PUSH1 0x4 MSTORE PUSH1 0x0 REVERT JUMPDEST DUP7 PUSH4 0x4E487B71 PUSH1 0xE0 SHL PUSH1 0x0 MSTORE PUSH1 0x41 PUSH1 0x4 MSTORE PUSH1 0x0 REVERT JUMPDEST PUSH1 0x64 DUP7 PUSH1 0xF DUP6 PUSH1 0x40 MLOAD SWAP3 PUSH3 0x461BCD PUSH1 0xE5 SHL DUP5 MSTORE PUSH1 0x4 DUP5 ADD MSTORE DUP3 ADD MSTORE PUSH32 0x416C726561647920726561637465640000000000000000000000000000000000 PUSH1 0x44 DUP3 ADD MSTORE REVERT JUMPDEST PUSH1 0x64 DUP4 DUP8 PUSH1 0x40 MLOAD SWAP2 PUSH3 0x461BCD PUSH1 0xE5 SHL DUP4 MSTORE DUP2 PUSH1 0x4 DUP5 ADD MSTORE DUP3 ADD MSTORE PUSH32 0x43616E6E6F7420726561637420746F20796F7572206F776E2064697370757465 PUSH1 0x44 DUP3 ADD MSTORE REVERT JUMPDEST SWAP1 SWAP7 POP DUP6 DUP2 DUP2 RETURNDATASIZE DUP4 GT PUSH2 0x363E JUMPI JUMPDEST PUSH2 0x362E DUP2 DUP4 PUSH2 0x5327 JUMP JUMPDEST DUP2 ADD SUB SLT PUSH2 0x82D JUMPI MLOAD SWAP6 DUP9 PUSH2 0x3361 JUMP JUMPDEST POP RETURNDATASIZE PUSH2 0x3624 JUMP JUMPDEST PUSH2 0x365C SWAP2 POP DUP5 RETURNDATASIZE DUP7 GT PUSH2 0x888 JUMPI PUSH2 0x87A DUP2 DUP4 PUSH2 0x5327 JUMP JUMPDEST DUP13 PUSH2 0x485 JUMP JUMPDEST PUSH1 0x64 DUP6 PUSH1 0x19 DUP9 PUSH1 0x40 MLOAD SWAP3 PUSH3 0x461BCD PUSH1 0xE5 SHL DUP5 MSTORE PUSH1 0x4 DUP5 ADD MSTORE DUP3 ADD MSTORE PUSH32 0x4E6F20646973707574652066726F6D2074686973207573657200000000000000 PUSH1 0x44 DUP3 ADD MSTORE REVERT JUMPDEST PUSH2 0x36BC SWAP2 POP DUP7 RETURNDATASIZE DUP9 GT PUSH2 0x888 JUMPI PUSH2 0x87A DUP2 DUP4 PUSH2 0x5327 JUMP JUMPDEST DUP9 PUSH2 0x443 JUMP JUMPDEST CALLVALUE PUSH2 0x82D JUMPI PUSH1 0x60 CALLDATASIZE PUSH1 0x3 NOT ADD SLT PUSH2 0x82D JUMPI PUSH8 0xFFFFFFFFFFFFFFFF PUSH1 0x4 CALLDATALOAD DUP2 DUP2 GT PUSH2 0x82D JUMPI PUSH2 0x36F4 SWAP1 CALLDATASIZE SWAP1 PUSH1 0x4 ADD PUSH2 0x5349 JUMP JUMPDEST PUSH1 0x24 SWAP2 DUP3 CALLDATALOAD SWAP1 DUP2 GT PUSH2 0x82D JUMPI PUSH2 0x370E SWAP1 CALLDATASIZE SWAP1 PUSH1 0x4 ADD PUSH2 0x5349 JUMP JUMPDEST SWAP1 PUSH2 0x3717 PUSH2 0x542B JUMP JUMPDEST SWAP2 PUSH1 0x1 PUSH1 0x1 PUSH1 0xA0 SHL SUB PUSH1 0x0 SLOAD AND SWAP1 PUSH1 0x40 MLOAD SWAP4 PUSH4 0x45ECD02F PUSH1 0xE0 SHL DUP6 MSTORE CALLER PUSH1 0x4 DUP7 ADD MSTORE PUSH1 0x20 SWAP5 DUP6 DUP2 DUP9 DUP2 DUP8 GAS STATICCALL DUP1 ISZERO PUSH2 0x83A JUMPI PUSH2 0x375A SWAP2 PUSH1 0x0 SWAP2 PUSH2 0x3A85 JUMPI POP PUSH2 0x5BD7 JUMP JUMPDEST PUSH1 0x40 MLOAD PUSH4 0x286B6AB PUSH1 0xE3 SHL DUP2 MSTORE DUP6 DUP2 DUP1 PUSH2 0x3778 CALLER DUP10 PUSH1 0x4 DUP5 ADD PUSH2 0x5C22 JUMP JUMPDEST SUB DUP2 DUP8 GAS STATICCALL DUP1 ISZERO PUSH2 0x83A JUMPI DUP8 SWAP3 PUSH2 0x379A PUSH1 0xFF SWAP3 DUP10 SWAP5 PUSH1 0x0 SWAP2 PUSH2 0x3A68 JUMPI POP PUSH2 0x5C49 JUMP JUMPDEST PUSH2 0x37A6 DUP8 MLOAD ISZERO ISZERO PUSH2 0x5E5F JUMP JUMPDEST PUSH2 0x37B2 DUP6 MLOAD ISZERO ISZERO PUSH2 0x5EAA JUMP JUMPDEST AND SWAP4 PUSH1 0x1 DUP6 LT ISZERO DUP1 PUSH2 0x3A5D JUMPI JUMPDEST PUSH2 0x37C8 SWAP1 PUSH2 0x5EF5 JUMP JUMPDEST PUSH1 0x40 MLOAD SWAP8 DUP9 DUP1 SWAP3 PUSH3 0xB0C809 PUSH1 0xE0 SHL DUP3 MSTORE CALLER PUSH1 0x4 DUP4 ADD MSTORE GAS STATICCALL SWAP6 DUP7 ISZERO PUSH2 0x83A JUMPI PUSH1 0x0 SWAP7 PUSH2 0x3A2E JUMPI JUMPDEST POP PUSH2 0x37FB DUP7 ISZERO ISZERO PUSH2 0x5858 JUMP JUMPDEST PUSH1 0x40 MLOAD DUP3 MLOAD SWAP1 DUP7 DUP2 DUP2 DUP7 ADD SWAP4 PUSH2 0x3812 DUP2 DUP4 DUP8 PUSH2 0x53D2 JUMP JUMPDEST DUP2 ADD PUSH1 0xB DUP2 MSTORE SUB ADD SWAP1 KECCAK256 DUP8 PUSH1 0x0 MSTORE DUP7 MSTORE PUSH1 0xFF PUSH1 0x40 PUSH1 0x0 KECCAK256 SLOAD AND PUSH2 0x39EB JUMPI PUSH1 0x40 MLOAD DUP7 DUP2 DUP6 MLOAD PUSH2 0x3841 DUP2 DUP4 DUP8 PUSH2 0x53D2 JUMP JUMPDEST DUP2 ADD PUSH1 0xA DUP2 MSTORE SUB ADD SWAP1 KECCAK256 SLOAD SWAP2 PUSH1 0x40 MLOAD DUP8 DUP2 DUP7 MLOAD PUSH2 0x385F DUP2 DUP4 DUP9 PUSH2 0x53D2 JUMP JUMPDEST DUP2 ADD PUSH1 0xA DUP2 MSTORE SUB ADD SWAP1 KECCAK256 PUSH2 0x3872 DUP7 PUSH2 0x5460 JUMP JUMPDEST PUSH1 0x40 MLOAD PUSH2 0x387E DUP2 PUSH2 0x52B7 JUMP JUMPDEST DUP10 DUP2 MSTORE DUP9 DUP2 ADD DUP9 DUP2 MSTORE PUSH1 0x40 DUP3 ADD SWAP1 PUSH2 0x3895 DUP10 PUSH2 0x5460 JUMP JUMPDEST DUP9 DUP3 MSTORE PUSH1 0x60 DUP4 ADD SWAP3 TIMESTAMP DUP5 MSTORE PUSH1 0x80 DUP2 ADD SWAP5 PUSH1 0x1 DUP7 MSTORE DUP1 SLOAD SWAP1 PUSH9 0x10000000000000000 DUP3 LT ISZERO PUSH2 0x39D6 JUMPI SWAP1 PUSH2 0x38CD SWAP2 PUSH1 0x1 DUP3 ADD DUP2 SSTORE PUSH2 0x578A JUMP JUMPDEST SWAP7 SWAP1 SWAP7 PUSH2 0x3568 JUMPI POP SWAP6 PUSH2 0x3942 PUSH2 0x10E5 SWAP7 PUSH1 0x4 PUSH1 0x40 SWAP12 SWAP8 DUP16 SWAP6 SWAP8 PUSH2 0x3926 PUSH32 0x5DDCEC906A8EDFB96C9CF15F08C0FE50115A5547EF76AB3A944ED41ACF127D01 SWAP16 SWAP14 SWAP10 SWAP9 PUSH2 0x624 PUSH2 0x3982 SWAP11 PUSH2 0x39BF SWAP16 MLOAD DUP9 SSTORE MLOAD PUSH1 0x1 DUP9 ADD PUSH2 0x5CF6 JUMP JUMPDEST MLOAD PUSH1 0x3 DUP5 ADD SSTORE MLOAD ISZERO ISZERO SWAP2 ADD SWAP1 PUSH1 0xFF DUP1 NOT DUP4 SLOAD AND SWAP2 ISZERO ISZERO AND OR SWAP1 SSTORE JUMP JUMPDEST DUP9 MLOAD DUP3 DUP2 DUP8 MLOAD PUSH2 0x3953 DUP2 DUP4 DUP8 PUSH2 0x53D2 JUMP JUMPDEST DUP2 ADD PUSH1 0xB DUP2 MSTORE SUB ADD SWAP1 KECCAK256 DUP14 PUSH1 0x0 MSTORE DUP3 MSTORE DUP9 PUSH1 0x0 KECCAK256 PUSH1 0x1 PUSH1 0xFF NOT DUP3 SLOAD AND OR SWAP1 SSTORE DUP9 MLOAD DUP1 SWAP4 DUP2 SWAP3 DUP8 MLOAD SWAP3 DUP4 SWAP2 PUSH2 0x53D2 JUMP JUMPDEST DUP2 ADD PUSH1 0xC DUP2 MSTORE SUB ADD SWAP1 KECCAK256 DUP11 PUSH1 0x0 MSTORE DUP10 MSTORE DUP6 PUSH1 0x0 KECCAK256 SSTORE PUSH1 0x15 DUP9 MSTORE PUSH2 0x39A8 DUP2 DUP7 PUSH1 0x0 KECCAK256 PUSH2 0x5F40 JUMP JUMPDEST PUSH2 0x39B3 PUSH1 0x17 SLOAD PUSH2 0x5B1E JUMP JUMPDEST PUSH1 0x17 SSTORE PUSH2 0x749 DUP5 PUSH2 0x5460 JUMP JUMPDEST SWAP5 DUP3 MLOAD SWAP2 PUSH2 0x39CC DUP2 PUSH2 0x5460 JUMP JUMPDEST DUP3 MSTORE TIMESTAMP SWAP1 DUP3 ADD MSTORE LOG4 STOP JUMPDEST DUP8 PUSH4 0x4E487B71 PUSH1 0xE0 SHL PUSH1 0x0 MSTORE PUSH1 0x41 PUSH1 0x4 MSTORE PUSH1 0x0 REVERT JUMPDEST PUSH1 0x64 DUP7 PUSH1 0x1A DUP5 PUSH1 0x40 MLOAD SWAP3 PUSH3 0x461BCD PUSH1 0xE5 SHL DUP5 MSTORE PUSH1 0x4 DUP5 ADD MSTORE DUP3 ADD MSTORE PUSH32 0x416C726561647920766572696669656420746869732068617368000000000000 PUSH1 0x44 DUP3 ADD MSTORE REVERT JUMPDEST SWAP1 SWAP6 POP DUP5 DUP2 DUP2 RETURNDATASIZE DUP4 GT PUSH2 0x3A56 JUMPI JUMPDEST PUSH2 0x3A46 DUP2 DUP4 PUSH2 0x5327 JUMP JUMPDEST DUP2 ADD SUB SLT PUSH2 0x82D JUMPI MLOAD SWAP5 DUP7 PUSH2 0x37EF JUMP JUMPDEST POP RETURNDATASIZE PUSH2 0x3A3C JUMP JUMPDEST POP PUSH1 0x3 DUP6 GT ISZERO PUSH2 0x37BF JUMP JUMPDEST PUSH2 0x3A7F SWAP2 POP DUP6 RETURNDATASIZE DUP8 GT PUSH2 0x888 JUMPI PUSH2 0x87A DUP2 DUP4 PUSH2 0x5327 JUMP JUMPDEST DUP12 PUSH2 0x485 JUMP JUMPDEST PUSH2 0x36BC SWAP2 POP DUP8 RETURNDATASIZE DUP10 GT PUSH2 0x888 JUMPI PUSH2 0x87A DUP2 DUP4 PUSH2 0x5327 JUMP JUMPDEST CALLVALUE PUSH2 0x82D JUMPI PUSH1 0x60 CALLDATASIZE PUSH1 0x3 NOT ADD SLT PUSH2 0x82D JUMPI PUSH1 0x24 CALLDATALOAD PUSH1 0x4 CALLDATALOAD PUSH1 0x44 CALLDATALOAD PUSH1 0x5 DUP2 LT ISZERO PUSH2 0x82D JUMPI PUSH2 0x3AD5 PUSH1 0x1 PUSH1 0x1 PUSH1 0xA0 SHL SUB PUSH1 0x1 SLOAD AND CALLER EQ PUSH2 0x5C94 JUMP JUMPDEST DUP2 PUSH1 0x0 MSTORE PUSH1 0x20 PUSH1 0x13 DUP2 MSTORE PUSH2 0x3AEF PUSH1 0x40 PUSH1 0x0 KECCAK256 SLOAD DUP6 LT PUSH2 0x5E14 JUMP JUMPDEST DUP2 ISZERO PUSH2 0x3BE6 JUMPI DUP3 PUSH1 0x0 MSTORE PUSH1 0x13 DUP2 MSTORE PUSH2 0x3B0B DUP5 PUSH1 0x40 PUSH1 0x0 KECCAK256 PUSH2 0x57A6 JUMP JUMPDEST POP PUSH1 0x5 DUP2 ADD SWAP1 PUSH1 0xFF DUP3 SLOAD AND ISZERO PUSH2 0x3BA2 JUMPI PUSH2 0x3B28 DUP5 PUSH1 0x3 DUP4 ADD PUSH2 0x5DFC JUMP JUMPDEST PUSH1 0x4 TIMESTAMP SWAP2 ADD SSTORE PUSH1 0xFF NOT DUP2 SLOAD AND SWAP1 SSTORE DUP3 PUSH1 0x0 MSTORE PUSH1 0x14 DUP2 MSTORE PUSH1 0x40 PUSH1 0x0 KECCAK256 SWAP2 DUP3 SLOAD SWAP2 DUP3 ISZERO PUSH2 0x3B8C JUMPI PUSH32 0xD27CFED75349D7C1712793C75B771F2A7DD4689406C4D8FDC93B4194B422EB35 SWAP4 PUSH1 0x40 SWAP4 PUSH1 0x0 NOT ADD SWAP1 SSTORE PUSH2 0x3B84 DUP4 MLOAD DUP1 SWAP4 PUSH2 0x56ED JUMP JUMPDEST TIMESTAMP SWAP1 DUP3 ADD MSTORE LOG3 STOP JUMPDEST PUSH4 0x4E487B71 PUSH1 0xE0 SHL PUSH1 0x0 MSTORE PUSH1 0x11 PUSH1 0x4 MSTORE PUSH1 0x24 PUSH1 0x0 REVERT JUMPDEST PUSH1 0x64 DUP4 PUSH1 0x40 MLOAD SWAP1 PUSH3 0x461BCD PUSH1 0xE5 SHL DUP3 MSTORE PUSH1 0x4 DUP3 ADD MSTORE PUSH1 0x15 PUSH1 0x24 DUP3 ADD MSTORE PUSH32 0x466C616720616C7265616479207265736F6C7665640000000000000000000000 PUSH1 0x44 DUP3 ADD MSTORE REVERT JUMPDEST PUSH1 0x64 SWAP1 PUSH1 0x40 MLOAD SWAP1 PUSH3 0x461BCD PUSH1 0xE5 SHL DUP3 MSTORE PUSH1 0x4 DUP3 ADD MSTORE PUSH1 0x1C PUSH1 0x24 DUP3 ADD MSTORE PUSH32 0x4D7573742070726F76696465207265736F6C7574696F6E207479706500000000 PUSH1 0x44 DUP3 ADD MSTORE REVERT JUMPDEST CALLVALUE PUSH2 0x82D JUMPI PUSH2 0x3C38 CALLDATASIZE PUSH2 0x53A0 JUMP JUMPDEST SWAP1 PUSH1 0x1 PUSH1 0x1 PUSH1 0xA0 SHL SUB PUSH1 0x0 SLOAD AND PUSH1 0x40 MLOAD SWAP2 DUP3 SWAP2 PUSH3 0xB0C809 PUSH1 0xE0 SHL DUP4 MSTORE CALLER PUSH1 0x4 DUP5 ADD MSTORE DUP3 PUSH1 0x24 PUSH1 0x20 SWAP5 DUP6 SWAP4 GAS STATICCALL SWAP3 DUP4 ISZERO PUSH2 0x83A JUMPI PUSH1 0x0 SWAP4 PUSH2 0x3DFC JUMPI JUMPDEST POP PUSH2 0x3C7F DUP4 ISZERO ISZERO PUSH2 0x5858 JUMP JUMPDEST PUSH1 0x40 MLOAD DUP2 MLOAD SWAP1 DUP4 DUP2 DUP2 DUP6 ADD SWAP4 PUSH2 0x3C96 DUP2 DUP4 DUP8 PUSH2 0x53D2 JUMP JUMPDEST DUP2 ADD PUSH1 0x11 DUP2 MSTORE SUB ADD SWAP1 KECCAK256 DUP6 PUSH1 0x0 MSTORE DUP4 MSTORE PUSH1 0x40 PUSH1 0x0 KECCAK256 DUP5 PUSH1 0x0 MSTORE DUP4 MSTORE PUSH1 0xFF PUSH1 0x40 PUSH1 0x0 KECCAK256 SLOAD AND ISZERO PUSH2 0x3DB8 JUMPI PUSH32 0xBE97907321AA6637529C6E0BD464AF27DDB95FADC266661A0A9C0B693ACAA2BA SWAP2 PUSH2 0x3DAE SWAP2 PUSH1 0x40 MLOAD DUP6 DUP2 DUP5 MLOAD PUSH2 0x3CF7 DUP2 DUP4 DUP8 PUSH2 0x53D2 JUMP JUMPDEST DUP2 ADD PUSH1 0x12 DUP2 MSTORE SUB ADD SWAP1 KECCAK256 DUP8 PUSH1 0x0 MSTORE DUP6 MSTORE PUSH1 0x40 PUSH1 0x0 KECCAK256 DUP7 PUSH1 0x0 MSTORE DUP6 MSTORE PUSH2 0x3D83 DUP6 PUSH1 0x3 PUSH2 0xBF2 PUSH1 0x40 PUSH1 0x0 KECCAK256 SLOAD PUSH1 0x40 MLOAD DUP5 DUP2 DUP10 MLOAD PUSH2 0x3D33 DUP2 DUP4 DUP13 PUSH2 0x53D2 JUMP JUMPDEST DUP2 ADD PUSH1 0x10 DUP2 MSTORE SUB ADD SWAP1 KECCAK256 DUP13 PUSH1 0x0 MSTORE DUP5 MSTORE PUSH2 0x3D57 PUSH1 0xFF DUP5 PUSH2 0xBD7 DUP5 PUSH1 0x40 PUSH1 0x0 KECCAK256 PUSH2 0x55D5 JUMP JUMPDEST PUSH1 0x40 MLOAD DUP5 DUP2 DUP10 MLOAD PUSH2 0x3D69 DUP2 DUP4 DUP13 PUSH2 0x53D2 JUMP JUMPDEST DUP2 ADD PUSH1 0x10 DUP2 MSTORE SUB ADD SWAP1 KECCAK256 DUP13 PUSH1 0x0 MSTORE DUP5 MSTORE PUSH1 0x40 PUSH1 0x0 KECCAK256 PUSH2 0x55D5 JUMP JUMPDEST DUP2 ADD PUSH1 0x11 DUP2 MSTORE SUB ADD SWAP1 KECCAK256 DUP8 PUSH1 0x0 MSTORE DUP6 MSTORE PUSH1 0x40 PUSH1 0x0 KECCAK256 DUP7 PUSH1 0x0 MSTORE DUP6 MSTORE PUSH1 0x40 PUSH1 0x0 KECCAK256 SWAP1 DUP2 SLOAD AND SWAP1 SSTORE PUSH2 0x5925 JUMP JUMPDEST SWAP2 PUSH1 0x40 MLOAD TIMESTAMP DUP2 MSTORE LOG4 STOP JUMPDEST PUSH1 0x64 DUP4 PUSH1 0x40 MLOAD SWAP1 PUSH3 0x461BCD PUSH1 0xE5 SHL DUP3 MSTORE PUSH1 0x4 DUP3 ADD MSTORE PUSH1 0x16 PUSH1 0x24 DUP3 ADD MSTORE PUSH32 0x4E6F207265616374696F6E20746F207265747261637400000000000000000000 PUSH1 0x44 DUP3 ADD MSTORE REVERT JUMPDEST SWAP1 SWAP3 POP DUP2 DUP2 DUP2 RETURNDATASIZE DUP4 GT PUSH2 0x3E24 JUMPI JUMPDEST PUSH2 0x3E14 DUP2 DUP4 PUSH2 0x5327 JUMP JUMPDEST DUP2 ADD SUB SLT PUSH2 0x82D JUMPI MLOAD SWAP2 DUP5 PUSH2 0x3C73 JUMP JUMPDEST POP RETURNDATASIZE PUSH2 0x3E0A JUMP JUMPDEST CALLVALUE PUSH2 0x82D JUMPI PUSH1 0x20 CALLDATASIZE PUSH1 0x3 NOT ADD SLT PUSH2 0x82D JUMPI PUSH1 0x4 CALLDATALOAD PUSH8 0xFFFFFFFFFFFFFFFF DUP2 GT PUSH2 0x82D JUMPI PUSH1 0xFF PUSH2 0x3E64 PUSH1 0x20 PUSH2 0x2CF3 DUP2 SWAP5 CALLDATASIZE SWAP1 PUSH1 0x4 ADD PUSH2 0x5349 JUMP JUMPDEST DUP2 ADD PUSH1 0x8 DUP2 MSTORE SUB ADD SWAP1 KECCAK256 SLOAD AND PUSH1 0x40 MLOAD SWAP1 ISZERO ISZERO DUP2 MSTORE RETURN JUMPDEST CALLVALUE PUSH2 0x82D JUMPI PUSH1 0x20 DUP1 PUSH1 0x3 NOT CALLDATASIZE ADD SLT PUSH2 0x82D JUMPI PUSH1 0x4 CALLDATALOAD PUSH8 0xFFFFFFFFFFFFFFFF DUP2 GT PUSH2 0x82D JUMPI DUP2 PUSH2 0x2CF3 PUSH2 0x3EB0 SWAP3 CALLDATASIZE SWAP1 PUSH1 0x4 ADD PUSH2 0x5349 JUMP JUMPDEST DUP2 ADD PUSH1 0x2 DUP2 MSTORE SUB ADD SWAP1 KECCAK256 SWAP1 PUSH1 0x40 MLOAD SWAP1 DUP2 DUP2 DUP5 SLOAD SWAP2 DUP3 DUP2 MSTORE ADD SWAP4 PUSH1 0x0 MSTORE DUP2 PUSH1 0x0 KECCAK256 SWAP2 PUSH1 0x0 SWAP1 JUMPDEST DUP3 DUP3 LT PUSH2 0x3EF8 JUMPI PUSH2 0xA3D DUP6 PUSH2 0x3EEC DUP2 DUP10 SUB DUP3 PUSH2 0x5327 JUMP JUMPDEST PUSH1 0x40 MLOAD SWAP2 DUP3 SWAP2 DUP3 PUSH2 0x5599 JUMP JUMPDEST DUP4 SLOAD DUP7 MSTORE SWAP5 DUP6 ADD SWAP5 PUSH1 0x1 SWAP4 DUP5 ADD SWAP4 SWAP1 SWAP2 ADD SWAP1 PUSH2 0x3ED5 JUMP JUMPDEST CALLVALUE PUSH2 0x82D JUMPI PUSH1 0x60 CALLDATASIZE PUSH1 0x3 NOT ADD SLT PUSH2 0x82D JUMPI PUSH1 0x24 PUSH8 0xFFFFFFFFFFFFFFFF PUSH1 0x4 CALLDATALOAD DUP3 CALLDATALOAD DUP3 DUP2 GT PUSH2 0x82D JUMPI PUSH2 0x3F45 SWAP1 CALLDATASIZE SWAP1 PUSH1 0x4 ADD PUSH2 0x5349 JUMP JUMPDEST SWAP2 PUSH1 0x44 CALLDATALOAD SWAP1 DUP2 GT PUSH2 0x82D JUMPI PUSH2 0x3F5E SWAP1 CALLDATASIZE SWAP1 PUSH1 0x4 ADD PUSH2 0x5349 JUMP JUMPDEST SWAP2 PUSH2 0x3F75 PUSH1 0x1 PUSH1 0x1 PUSH1 0xA0 SHL SUB PUSH1 0x1 SLOAD AND CALLER EQ PUSH2 0x5C94 JUMP JUMPDEST DUP2 ISZERO PUSH2 0x4110 JUMPI DUP3 MLOAD ISZERO PUSH2 0x40CC JUMPI DUP2 PUSH1 0x0 MSTORE PUSH1 0x13 PUSH1 0x20 MSTORE PUSH1 0x40 PUSH1 0x0 KECCAK256 SWAP4 DUP5 SLOAD SWAP5 PUSH1 0x40 MLOAD SWAP2 PUSH2 0x3FA1 DUP4 PUSH2 0x5285 JUMP JUMPDEST DUP4 DUP4 MSTORE PUSH1 0x20 DUP4 ADD SWAP1 DUP7 DUP3 MSTORE PUSH1 0x40 DUP5 ADD TIMESTAMP DUP2 MSTORE PUSH1 0x60 DUP6 ADD SWAP1 PUSH1 0x0 DUP3 MSTORE PUSH1 0x80 DUP7 ADD SWAP4 PUSH1 0x0 DUP6 MSTORE PUSH1 0xA0 DUP8 ADD SWAP6 PUSH1 0x1 DUP8 MSTORE PUSH9 0x10000000000000000 DUP13 LT ISZERO PUSH2 0x7A8 JUMPI DUP12 PUSH2 0x3FEF SWAP2 PUSH1 0x1 DUP3 ADD DUP2 SSTORE PUSH2 0x57A6 JUMP JUMPDEST SWAP8 SWAP1 SWAP8 PUSH2 0x40B7 JUMPI SWAP1 PUSH2 0x4005 PUSH2 0x400F SWAP3 MLOAD DUP10 PUSH2 0x5CF6 JUMP JUMPDEST MLOAD PUSH1 0x1 DUP9 ADD PUSH2 0x5CF6 JUMP JUMPDEST MLOAD PUSH1 0x2 DUP7 ADD SSTORE MLOAD SWAP1 PUSH1 0x5 DUP3 LT ISZERO PUSH2 0x77F JUMPI POP SWAP4 PUSH2 0x407C DUP5 PUSH1 0x5 PUSH2 0x40A8 SWAP6 PUSH2 0x10E5 SWAP6 PUSH2 0x4060 PUSH32 0xDC620035E382D2354E94AF4EE86406F06A6BC23C13499543D7AD5EE77AF52404 SWAP11 PUSH1 0x3 PUSH1 0x40 SWAP12 ADD PUSH2 0x5DFC JUMP JUMPDEST MLOAD PUSH1 0x4 DUP5 ADD SSTORE MLOAD ISZERO ISZERO SWAP2 ADD SWAP1 PUSH1 0xFF DUP1 NOT DUP4 SLOAD AND SWAP2 ISZERO ISZERO AND OR SWAP1 SSTORE JUMP JUMPDEST DUP6 PUSH1 0x0 MSTORE PUSH1 0x14 PUSH1 0x20 MSTORE DUP4 PUSH1 0x0 KECCAK256 PUSH2 0x4093 DUP2 SLOAD PUSH2 0x5B1E JUMP JUMPDEST SWAP1 SSTORE PUSH2 0x40A0 PUSH1 0x19 SLOAD PUSH2 0x5B1E JUMP JUMPDEST PUSH1 0x19 SSTORE PUSH2 0x5925 JUMP JUMPDEST SWAP5 DUP2 MLOAD SWAP1 DUP2 MSTORE TIMESTAMP PUSH1 0x20 DUP3 ADD MSTORE LOG4 STOP JUMPDEST DUP5 PUSH4 0x4E487B71 PUSH1 0xE0 SHL PUSH1 0x0 MSTORE PUSH1 0x0 PUSH1 0x4 MSTORE PUSH1 0x0 REVERT JUMPDEST PUSH1 0x64 DUP5 PUSH1 0x19 PUSH1 0x40 MLOAD SWAP2 PUSH3 0x461BCD PUSH1 0xE5 SHL DUP4 MSTORE PUSH1 0x20 PUSH1 0x4 DUP5 ADD MSTORE DUP3 ADD MSTORE PUSH32 0x4E6F746520686173682063616E6E6F7420626520656D70747900000000000000 PUSH1 0x44 DUP3 ADD MSTORE REVERT JUMPDEST PUSH1 0x64 DUP5 PUSH1 0x1F PUSH1 0x40 MLOAD SWAP2 PUSH3 0x461BCD PUSH1 0xE5 SHL DUP4 MSTORE PUSH1 0x20 PUSH1 0x4 DUP5 ADD MSTORE DUP3 ADD MSTORE PUSH32 0x5375626A65637420494420686173682063616E6E6F7420626520656D70747900 PUSH1 0x44 DUP3 ADD MSTORE REVERT JUMPDEST CALLVALUE PUSH2 0x82D JUMPI PUSH1 0x20 CALLDATASIZE PUSH1 0x3 NOT ADD SLT PUSH2 0x82D JUMPI PUSH1 0x4 CALLDATALOAD PUSH8 0xFFFFFFFFFFFFFFFF DUP2 GT PUSH2 0x82D JUMPI PUSH2 0xA66 PUSH2 0x1C7A PUSH2 0x12AF PUSH1 0x20 PUSH2 0x2CF3 PUSH2 0xA3D SWAP6 CALLDATASIZE SWAP1 PUSH1 0x4 ADD PUSH2 0x5349 JUMP JUMPDEST CALLVALUE PUSH2 0x82D JUMPI PUSH1 0x20 DUP1 PUSH1 0x3 NOT CALLDATASIZE ADD SLT PUSH2 0x82D JUMPI PUSH1 0x4 CALLDATALOAD PUSH8 0xFFFFFFFFFFFFFFFF DUP2 GT PUSH2 0x82D JUMPI PUSH2 0x41C5 SWAP1 CALLDATASIZE SWAP1 PUSH1 0x4 ADD PUSH2 0x5349 JUMP JUMPDEST SWAP1 PUSH1 0x1 PUSH1 0x1 PUSH1 0xA0 SHL SUB PUSH1 0x0 SLOAD AND SWAP2 PUSH1 0x40 MLOAD PUSH4 0x45ECD02F PUSH1 0xE0 SHL DUP2 MSTORE CALLER PUSH1 0x4 DUP3 ADD MSTORE DUP3 DUP2 PUSH1 0x24 DUP2 DUP8 GAS STATICCALL DUP1 ISZERO PUSH2 0x83A JUMPI PUSH2 0x4205 SWAP2 PUSH1 0x0 SWAP2 PUSH2 0x1F0B JUMPI POP PUSH2 0x5BD7 JUMP JUMPDEST PUSH1 0x40 MLOAD SWAP3 PUSH4 0x286B6AB PUSH1 0xE3 SHL DUP5 MSTORE DUP3 DUP5 DUP1 PUSH2 0x4224 CALLER DUP7 PUSH1 0x4 DUP5 ADD PUSH2 0x5C22 JUMP JUMPDEST SUB DUP2 DUP5 GAS STATICCALL SWAP1 DUP2 ISZERO PUSH2 0x83A JUMPI PUSH2 0x4245 DUP5 SWAP3 PUSH1 0x24 SWAP7 PUSH1 0x0 SWAP2 PUSH2 0x1EEE JUMPI POP PUSH2 0x5C49 JUMP JUMPDEST PUSH1 0x40 MLOAD SWAP5 DUP6 DUP1 SWAP3 PUSH3 0xB0C809 PUSH1 0xE0 SHL DUP3 MSTORE CALLER PUSH1 0x4 DUP4 ADD MSTORE GAS STATICCALL SWAP3 DUP4 ISZERO PUSH2 0x83A JUMPI PUSH1 0x0 SWAP4 PUSH2 0x43C2 JUMPI JUMPDEST POP PUSH2 0x4278 DUP4 ISZERO ISZERO PUSH2 0x5858 JUMP JUMPDEST PUSH1 0x40 MLOAD DUP2 MLOAD SWAP1 DUP4 DUP2 DUP2 DUP6 ADD SWAP4 PUSH2 0x428F DUP2 DUP4 DUP8 PUSH2 0x53D2 JUMP JUMPDEST DUP2 ADD PUSH1 0x3 DUP2 MSTORE SUB ADD SWAP1 KECCAK256 DUP5 PUSH1 0x0 MSTORE DUP4 MSTORE PUSH1 0xFF PUSH1 0x40 PUSH1 0x0 KECCAK256 SLOAD AND ISZERO PUSH2 0x437E JUMPI PUSH1 0x40 MLOAD DUP4 DUP2 DUP5 MLOAD PUSH2 0x42BF DUP2 DUP4 DUP8 PUSH2 0x53D2 JUMP JUMPDEST DUP2 ADD PUSH1 0x5 DUP2 MSTORE SUB ADD SWAP1 KECCAK256 DUP5 PUSH1 0x0 MSTORE DUP4 MSTORE PUSH1 0xFF PUSH1 0x40 PUSH1 0x0 KECCAK256 SLOAD AND ISZERO PUSH2 0x433A JUMPI PUSH32 0x6394E07BA017D68C6017A8D8FD8ADE9C44DD70FD18B290E2D74DB2B691AC99FB SWAP2 PUSH2 0x4318 DUP5 PUSH2 0xC30 SWAP4 PUSH1 0x40 MLOAD DUP1 SWAP4 DUP2 SWAP3 DUP7 MLOAD SWAP3 DUP4 SWAP2 PUSH2 0x53D2 JUMP JUMPDEST DUP2 ADD PUSH1 0x5 DUP2 MSTORE SUB ADD SWAP1 KECCAK256 DUP6 PUSH1 0x0 MSTORE DUP5 MSTORE PUSH1 0x40 PUSH1 0x0 KECCAK256 PUSH1 0xFF NOT DUP2 SLOAD AND SWAP1 SSTORE PUSH2 0x5925 JUMP JUMPDEST PUSH1 0x64 DUP4 PUSH1 0x40 MLOAD SWAP1 PUSH3 0x461BCD PUSH1 0xE5 SHL DUP3 MSTORE PUSH1 0x4 DUP3 ADD MSTORE PUSH1 0x12 PUSH1 0x24 DUP3 ADD MSTORE PUSH32 0x416C726561647920756E616E63686F7265640000000000000000000000000000 PUSH1 0x44 DUP3 ADD MSTORE REVERT JUMPDEST PUSH1 0x64 DUP4 PUSH1 0x40 MLOAD SWAP1 PUSH3 0x461BCD PUSH1 0xE5 SHL DUP3 MSTORE PUSH1 0x4 DUP3 ADD MSTORE PUSH1 0x1C PUSH1 0x24 DUP3 ADD MSTORE PUSH32 0x4E6F742061207375626A656374206F662074686973207265636F726400000000 PUSH1 0x44 DUP3 ADD MSTORE REVERT JUMPDEST SWAP1 SWAP3 POP DUP2 DUP2 DUP2 RETURNDATASIZE DUP4 GT PUSH2 0x43EA JUMPI JUMPDEST PUSH2 0x43DA DUP2 DUP4 PUSH2 0x5327 JUMP JUMPDEST DUP2 ADD SUB SLT PUSH2 0x82D JUMPI MLOAD SWAP2 DUP4 PUSH2 0x426C JUMP JUMPDEST POP RETURNDATASIZE PUSH2 0x43D0 JUMP JUMPDEST CALLVALUE PUSH2 0x82D JUMPI PUSH1 0x20 DUP1 PUSH1 0x3 NOT CALLDATASIZE ADD SLT PUSH2 0x82D JUMPI PUSH1 0x4 CALLDATALOAD PUSH8 0xFFFFFFFFFFFFFFFF DUP2 GT PUSH2 0x82D JUMPI PUSH2 0x4423 SWAP1 CALLDATASIZE SWAP1 PUSH1 0x4 ADD PUSH2 0x5349 JUMP JUMPDEST SWAP1 PUSH2 0x443E DUP2 PUSH1 0x0 SWAP4 DUP2 PUSH1 0x40 MLOAD SWAP4 DUP3 DUP6 DUP1 SWAP5 MLOAD SWAP4 DUP5 SWAP3 ADD PUSH2 0x53D2 JUMP JUMPDEST DUP2 ADD PUSH1 0xA DUP2 MSTORE SUB ADD SWAP1 KECCAK256 SWAP2 DUP3 SLOAD PUSH2 0x4454 DUP2 PUSH2 0x5AB7 JUMP JUMPDEST SWAP4 PUSH2 0x4462 PUSH1 0x40 MLOAD SWAP6 DUP7 PUSH2 0x5327 JUMP JUMPDEST DUP2 DUP6 MSTORE PUSH1 0x0 SWAP1 DUP2 MSTORE DUP4 DUP2 KECCAK256 DUP5 DUP1 DUP8 ADD JUMPDEST DUP5 DUP5 LT PUSH2 0x44BA JUMPI DUP8 DUP3 DUP8 DUP3 MLOAD PUSH1 0x0 JUMPDEST DUP5 MLOAD DUP2 LT ISZERO PUSH2 0x2EF5 JUMPI PUSH1 0x80 PUSH2 0x4496 DUP3 DUP8 PUSH2 0x5B0A JUMP JUMPDEST MLOAD ADD MLOAD PUSH2 0x44A6 JUMPI JUMPDEST PUSH1 0x1 ADD PUSH2 0x4481 JUMP JUMPDEST SWAP2 PUSH2 0x44B2 PUSH1 0x1 SWAP2 PUSH2 0x5B1E JUMP JUMPDEST SWAP3 SWAP1 POP PUSH2 0x449E JUMP JUMPDEST PUSH1 0x1 SWAP2 PUSH1 0x5 SWAP2 PUSH2 0x44C9 DUP6 PUSH2 0x5945 JUMP JUMPDEST DUP2 MSTORE ADD SWAP3 ADD SWAP3 ADD SWAP2 SWAP1 DUP6 SWAP1 PUSH2 0x4472 JUMP JUMPDEST CALLVALUE PUSH2 0x82D JUMPI PUSH1 0x20 DUP1 PUSH1 0x3 NOT CALLDATASIZE ADD SLT PUSH2 0x82D JUMPI PUSH1 0x4 CALLDATALOAD PUSH8 0xFFFFFFFFFFFFFFFF DUP2 GT PUSH2 0x82D JUMPI DUP2 PUSH2 0x2CF3 PUSH2 0x450F SWAP3 CALLDATASIZE SWAP1 PUSH1 0x4 ADD PUSH2 0x5349 JUMP JUMPDEST DUP2 ADD PUSH1 0x7 DUP2 MSTORE SUB ADD SWAP1 KECCAK256 DUP1 SLOAD PUSH2 0x4524 DUP2 PUSH2 0x5AB7 JUMP JUMPDEST SWAP2 PUSH2 0x4532 PUSH1 0x40 MLOAD SWAP4 DUP5 PUSH2 0x5327 JUMP JUMPDEST DUP2 DUP4 MSTORE PUSH1 0x0 SWAP1 DUP2 MSTORE DUP4 DUP2 KECCAK256 SWAP4 DUP1 DUP5 ADD JUMPDEST DUP4 DUP4 LT PUSH2 0x4557 JUMPI PUSH1 0x40 MLOAD DUP1 PUSH2 0xA3D DUP8 DUP3 PUSH2 0x55F1 JUMP JUMPDEST PUSH1 0x1 DUP3 DUP2 SWAP3 PUSH1 0x40 MLOAD PUSH2 0x456D DUP2 PUSH2 0xA66 DUP2 DUP14 PUSH2 0x54D2 JUMP JUMPDEST DUP2 MSTORE ADD SWAP7 ADD SWAP3 ADD SWAP2 SWAP5 PUSH2 0x4542 JUMP JUMPDEST CALLVALUE PUSH2 0x82D JUMPI PUSH1 0x20 DUP1 PUSH1 0x3 NOT CALLDATASIZE ADD SLT PUSH2 0x82D JUMPI PUSH1 0x4 CALLDATALOAD PUSH8 0xFFFFFFFFFFFFFFFF DUP2 GT PUSH2 0x82D JUMPI DUP2 PUSH2 0x2CF3 PUSH2 0x45B1 SWAP3 CALLDATASIZE SWAP1 PUSH1 0x4 ADD PUSH2 0x5349 JUMP JUMPDEST DUP2 ADD PUSH1 0xA DUP2 MSTORE SUB ADD SWAP1 KECCAK256 SWAP1 DUP2 SLOAD SWAP2 PUSH2 0x45C8 DUP4 PUSH2 0x5AB7 JUMP JUMPDEST SWAP3 PUSH2 0x45D6 PUSH1 0x40 MLOAD SWAP5 DUP6 PUSH2 0x5327 JUMP JUMPDEST DUP1 DUP5 MSTORE DUP3 DUP5 ADD DUP1 SWAP3 PUSH1 0x0 MSTORE DUP4 PUSH1 0x0 KECCAK256 PUSH1 0x0 SWAP2 JUMPDEST DUP4 DUP4 LT PUSH2 0x468D JUMPI POP POP POP POP PUSH1 0x40 MLOAD SWAP2 DUP1 DUP4 ADD SWAP4 DUP2 DUP5 MSTORE MLOAD DUP1 SWAP5 MSTORE PUSH1 0x40 DUP4 ADD SWAP4 PUSH1 0x40 DUP2 PUSH1 0x5 SHL DUP6 ADD ADD SWAP3 SWAP2 PUSH1 0x0 SWAP6 JUMPDEST DUP3 DUP8 LT PUSH2 0x4624 JUMPI DUP6 DUP6 SUB DUP7 RETURN JUMPDEST SWAP1 SWAP2 SWAP3 SWAP4 DUP3 DUP1 PUSH1 0x1 SWAP3 PUSH1 0x3F NOT DUP10 DUP3 SUB ADD DUP6 MSTORE DUP8 MLOAD SWAP1 PUSH2 0x4654 PUSH1 0xA0 DUP4 MLOAD DUP4 MSTORE DUP5 DUP5 ADD MLOAD SWAP1 DUP1 DUP7 DUP6 ADD MSTORE DUP4 ADD SWAP1 PUSH2 0x543B JUMP JUMPDEST SWAP2 PUSH1 0x40 DUP2 ADD MLOAD PUSH2 0x4663 DUP2 PUSH2 0x5460 JUMP JUMPDEST PUSH1 0x40 DUP4 ADD MSTORE PUSH1 0x60 DUP1 DUP3 ADD MLOAD SWAP1 DUP4 ADD MSTORE PUSH1 0x80 DUP1 SWAP2 ADD MLOAD ISZERO ISZERO SWAP2 ADD MSTORE SWAP7 ADD SWAP3 ADD SWAP7 ADD SWAP6 SWAP3 SWAP2 SWAP1 SWAP3 PUSH2 0x4617 JUMP JUMPDEST PUSH1 0x5 DUP7 PUSH1 0x1 SWAP3 PUSH2 0x469F DUP6 SWAP11 SWAP10 SWAP11 PUSH2 0x5945 JUMP JUMPDEST DUP2 MSTORE ADD SWAP3 ADD SWAP3 ADD SWAP2 SWAP1 SWAP6 SWAP5 SWAP6 PUSH2 0x45E9 JUMP JUMPDEST CALLVALUE PUSH2 0x82D JUMPI PUSH1 0x60 CALLDATASIZE PUSH1 0x3 NOT ADD SLT PUSH2 0x82D JUMPI PUSH1 0x4 CALLDATALOAD PUSH8 0xFFFFFFFFFFFFFFFF DUP2 GT PUSH2 0x82D JUMPI PUSH2 0x46E1 SWAP1 CALLDATASIZE SWAP1 PUSH1 0x4 ADD PUSH2 0x5349 JUMP JUMPDEST PUSH2 0x46FD PUSH1 0x20 PUSH1 0x44 CALLDATALOAD SWAP3 DUP2 PUSH1 0x40 MLOAD SWAP4 DUP3 DUP6 DUP1 SWAP5 MLOAD SWAP4 DUP5 SWAP3 ADD PUSH2 0x53D2 JUMP JUMPDEST DUP2 ADD PUSH1 0x10 DUP2 MSTORE SUB ADD SWAP1 KECCAK256 PUSH1 0x24 CALLDATALOAD PUSH1 0x0 MSTORE PUSH1 0x20 MSTORE PUSH1 0x40 PUSH1 0x0 KECCAK256 DUP1 SLOAD DUP3 LT ISZERO PUSH2 0x82D JUMPI PUSH1 0x80 SWAP2 PUSH2 0x472A SWAP2 PUSH2 0x55D5 JUMP JUMPDEST POP DUP1 SLOAD SWAP1 PUSH1 0xFF PUSH1 0x1 DUP3 ADD SLOAD AND SWAP1 PUSH1 0xFF PUSH1 0x3 PUSH1 0x2 DUP4 ADD SLOAD SWAP3 ADD SLOAD AND SWAP2 PUSH1 0x40 MLOAD SWAP4 DUP5 MSTORE ISZERO ISZERO PUSH1 0x20 DUP5 ADD MSTORE PUSH1 0x40 DUP4 ADD MSTORE ISZERO ISZERO PUSH1 0x60 DUP3 ADD MSTORE RETURN JUMPDEST CALLVALUE PUSH2 0x82D JUMPI PUSH1 0x20 DUP1 PUSH1 0x3 NOT CALLDATASIZE ADD SLT PUSH2 0x82D JUMPI PUSH1 0x4 CALLDATALOAD PUSH8 0xFFFFFFFFFFFFFFFF DUP2 GT PUSH2 0x82D JUMPI PUSH2 0x4792 SWAP1 CALLDATASIZE SWAP1 PUSH1 0x4 ADD PUSH2 0x5349 JUMP JUMPDEST SWAP1 PUSH1 0x0 SWAP2 PUSH1 0x0 DUP1 PUSH2 0x47B3 DUP5 PUSH1 0x0 SWAP5 DUP2 PUSH1 0x40 MLOAD SWAP4 DUP3 DUP6 DUP1 SWAP5 MLOAD SWAP4 DUP5 SWAP3 ADD PUSH2 0x53D2 JUMP JUMPDEST DUP2 ADD PUSH1 0xD DUP2 MSTORE SUB ADD SWAP1 KECCAK256 DUP1 SLOAD SWAP1 PUSH2 0x47C9 DUP3 PUSH2 0x5AB7 JUMP JUMPDEST SWAP6 PUSH2 0x47D7 PUSH1 0x40 MLOAD SWAP8 DUP9 PUSH2 0x5327 JUMP JUMPDEST DUP3 DUP8 MSTORE PUSH1 0x0 SWAP2 DUP3 MSTORE DUP1 DUP3 KECCAK256 DUP2 DUP9 ADD JUMPDEST DUP5 DUP5 LT PUSH2 0x48E6 JUMPI POP POP POP POP POP DUP4 MLOAD SWAP4 PUSH1 0x0 JUMPDEST DUP2 MLOAD DUP2 LT ISZERO PUSH2 0x2A0C JUMPI PUSH1 0xC0 PUSH2 0x480D DUP3 DUP5 PUSH2 0x5B0A JUMP JUMPDEST MLOAD ADD MLOAD PUSH2 0x481D JUMPI JUMPDEST PUSH1 0x1 ADD PUSH2 0x47F8 JUMP JUMPDEST SWAP3 SWAP6 PUSH2 0x4828 SWAP1 PUSH2 0x5B1E JUMP JUMPDEST SWAP6 PUSH1 0x1 PUSH1 0x40 PUSH2 0x4837 DUP7 DUP6 PUSH2 0x5B0A JUMP JUMPDEST MLOAD ADD MLOAD PUSH2 0x4843 DUP2 PUSH2 0x5460 JUMP JUMPDEST PUSH2 0x484C DUP2 PUSH2 0x5460 JUMP JUMPDEST SUB PUSH2 0x4865 JUMPI PUSH2 0x485C PUSH1 0x1 SWAP2 PUSH2 0x5B1E JUMP JUMPDEST SWAP4 JUMPDEST SWAP1 POP PUSH2 0x4815 JUMP JUMPDEST SWAP3 SWAP2 PUSH1 0x2 PUSH1 0x40 PUSH2 0x4875 DUP6 DUP6 PUSH2 0x5B0A JUMP JUMPDEST MLOAD ADD MLOAD PUSH2 0x4881 DUP2 PUSH2 0x5460 JUMP JUMPDEST PUSH2 0x488A DUP2 PUSH2 0x5460 JUMP JUMPDEST SUB PUSH2 0x48A0 JUMPI PUSH2 0x489A PUSH1 0x1 SWAP2 PUSH2 0x5B1E JUMP JUMPDEST SWAP3 PUSH2 0x485E JUMP JUMPDEST SWAP2 PUSH1 0x3 PUSH1 0x40 PUSH2 0x48AF DUP4 DUP6 PUSH2 0x5B0A JUMP JUMPDEST MLOAD ADD MLOAD PUSH2 0x48BB DUP2 PUSH2 0x5460 JUMP JUMPDEST PUSH2 0x48C4 DUP2 PUSH2 0x5460 JUMP JUMPDEST EQ PUSH2 0x48D2 JUMPI JUMPDEST PUSH1 0x1 SWAP1 PUSH2 0x485E JUMP JUMPDEST SWAP4 PUSH2 0x48DE PUSH1 0x1 SWAP2 PUSH2 0x5B1E JUMP JUMPDEST SWAP5 SWAP1 POP PUSH2 0x48CA JUMP JUMPDEST PUSH1 0x6 DUP4 PUSH1 0x1 SWAP3 PUSH2 0x48F5 DUP6 PUSH2 0x5B39 JUMP JUMPDEST DUP2 MSTORE ADD SWAP3 ADD SWAP4 ADD SWAP3 SWAP1 PUSH2 0x47E6 JUMP JUMPDEST CALLVALUE PUSH2 0x82D JUMPI PUSH1 0x20 DUP1 PUSH1 0x3 NOT CALLDATASIZE ADD SLT PUSH2 0x82D JUMPI PUSH1 0x4 CALLDATALOAD PUSH8 0xFFFFFFFFFFFFFFFF DUP2 GT PUSH2 0x82D JUMPI PUSH2 0x4935 SWAP1 CALLDATASIZE SWAP1 PUSH1 0x4 ADD PUSH2 0x5349 JUMP JUMPDEST SWAP1 PUSH1 0x40 MLOAD SWAP1 DUP3 MLOAD SWAP2 DUP2 DUP2 DUP2 DUP7 ADD SWAP5 PUSH2 0x494E DUP2 DUP4 DUP9 PUSH2 0x53D2 JUMP JUMPDEST DUP2 ADD PUSH1 0x2 DUP2 MSTORE SUB ADD SWAP1 KECCAK256 PUSH1 0x40 MLOAD DUP1 DUP3 DUP5 DUP3 SWAP5 SLOAD SWAP4 DUP5 DUP2 MSTORE ADD SWAP1 PUSH1 0x0 MSTORE DUP5 PUSH1 0x0 KECCAK256 SWAP3 PUSH1 0x0 JUMPDEST DUP7 DUP3 DUP3 LT PUSH2 0x4AA3 JUMPI POP POP POP PUSH2 0x4989 SWAP3 POP SUB DUP3 PUSH2 0x5327 JUMP JUMPDEST PUSH1 0x0 SWAP2 PUSH1 0x0 JUMPDEST DUP3 MLOAD DUP2 LT ISZERO PUSH2 0x49EE JUMPI PUSH1 0x40 MLOAD DUP3 DUP2 DUP9 MLOAD PUSH2 0x49AA DUP2 DUP4 DUP12 PUSH2 0x53D2 JUMP JUMPDEST DUP2 ADD PUSH1 0x5 DUP2 MSTORE SUB ADD SWAP1 KECCAK256 PUSH2 0x49BE DUP3 DUP6 PUSH2 0x5B0A JUMP JUMPDEST MLOAD PUSH1 0x0 MSTORE DUP3 MSTORE PUSH1 0xFF PUSH1 0x40 PUSH1 0x0 KECCAK256 SLOAD AND PUSH2 0x49DA JUMPI JUMPDEST PUSH1 0x1 ADD PUSH2 0x498F JUMP JUMPDEST SWAP3 PUSH2 0x49E6 PUSH1 0x1 SWAP2 PUSH2 0x5B1E JUMP JUMPDEST SWAP4 SWAP1 POP PUSH2 0x49D2 JUMP JUMPDEST POP SWAP4 SWAP3 SWAP2 SWAP4 PUSH2 0x49FC DUP6 PUSH2 0x5AB7 JUMP JUMPDEST SWAP5 PUSH2 0x4A0A PUSH1 0x40 MLOAD SWAP7 DUP8 PUSH2 0x5327 JUMP JUMPDEST DUP1 DUP7 MSTORE PUSH2 0x4A19 PUSH1 0x1F NOT SWAP2 PUSH2 0x5AB7 JUMP JUMPDEST ADD CALLDATASIZE DUP3 DUP8 ADD CALLDATACOPY PUSH1 0x0 SWAP3 PUSH1 0x0 JUMPDEST DUP4 MLOAD DUP2 LT ISZERO PUSH2 0x4A95 JUMPI PUSH1 0x1 SWAP1 PUSH1 0x40 MLOAD DUP5 DUP2 DUP10 MLOAD PUSH2 0x4A43 DUP2 DUP4 DUP10 PUSH2 0x53D2 JUMP JUMPDEST DUP2 ADD PUSH1 0x5 DUP2 MSTORE SUB ADD SWAP1 KECCAK256 PUSH2 0x4A57 DUP3 DUP8 PUSH2 0x5B0A JUMP JUMPDEST MLOAD PUSH1 0x0 MSTORE DUP5 MSTORE PUSH1 0xFF PUSH1 0x40 PUSH1 0x0 KECCAK256 SLOAD AND PUSH2 0x4A71 JUMPI JUMPDEST ADD PUSH2 0x4A25 JUMP JUMPDEST PUSH2 0x4A7B DUP2 DUP7 PUSH2 0x5B0A JUMP JUMPDEST MLOAD PUSH2 0x4A8F PUSH2 0x4A88 DUP9 PUSH2 0x5B1E JUMP JUMPDEST SWAP8 DUP11 PUSH2 0x5B0A JUMP JUMPDEST MSTORE PUSH2 0x4A6B JUMP JUMPDEST PUSH1 0x40 MLOAD DUP1 PUSH2 0xA3D DUP10 DUP3 PUSH2 0x5599 JUMP JUMPDEST DUP6 SLOAD DUP5 MSTORE PUSH1 0x1 SWAP6 DUP7 ADD SWAP6 DUP8 SWAP6 POP SWAP4 ADD SWAP3 ADD PUSH2 0x4972 JUMP JUMPDEST CALLVALUE PUSH2 0x82D JUMPI PUSH1 0x20 PUSH2 0x4ACC PUSH2 0x19BC CALLDATASIZE PUSH2 0x53A0 JUMP JUMPDEST DUP2 ADD PUSH1 0xF DUP2 MSTORE SUB ADD SWAP1 KECCAK256 SWAP1 PUSH1 0x0 MSTORE PUSH1 0x20 MSTORE PUSH1 0x20 PUSH1 0x40 PUSH1 0x0 KECCAK256 SLOAD PUSH1 0x40 MLOAD SWAP1 DUP2 MSTORE RETURN JUMPDEST CALLVALUE PUSH2 0x82D JUMPI PUSH1 0x20 CALLDATASIZE PUSH1 0x3 NOT ADD SLT PUSH2 0x82D JUMPI PUSH1 0x4 CALLDATALOAD PUSH8 0xFFFFFFFFFFFFFFFF DUP2 GT PUSH2 0x82D JUMPI PUSH2 0x4B24 PUSH1 0x20 PUSH2 0x2CF3 DUP2 SWAP4 CALLDATASIZE SWAP1 PUSH1 0x4 ADD PUSH2 0x5349 JUMP JUMPDEST DUP2 ADD PUSH1 0x7 DUP2 MSTORE SUB ADD SWAP1 KECCAK256 SLOAD PUSH1 0x40 MLOAD SWAP1 DUP2 MSTORE RETURN JUMPDEST CALLVALUE PUSH2 0x82D JUMPI PUSH1 0x20 DUP1 PUSH1 0x3 NOT CALLDATASIZE ADD SLT PUSH2 0x82D JUMPI PUSH1 0x4 CALLDATALOAD PUSH8 0xFFFFFFFFFFFFFFFF DUP2 GT PUSH2 0x82D JUMPI PUSH2 0x4B69 SWAP1 CALLDATASIZE SWAP1 PUSH1 0x4 ADD PUSH2 0x5349 JUMP JUMPDEST SWAP1 PUSH1 0x40 MLOAD SWAP2 PUSH1 0xFF DUP2 MLOAD SWAP4 DUP4 DUP2 DUP2 DUP6 ADD SWAP7 PUSH2 0x4B84 DUP2 DUP4 DUP11 PUSH2 0x53D2 JUMP JUMPDEST DUP2 ADD PUSH1 0x8 DUP2 MSTORE SUB ADD SWAP1 KECCAK256 SLOAD AND ISZERO PUSH2 0x4BC6 JUMPI PUSH2 0x2679 DUP3 PUSH2 0x268F SWAP5 PUSH2 0x4BB2 SWAP4 PUSH1 0x40 MLOAD SWAP4 DUP5 SWAP3 DUP4 SWAP3 MLOAD SWAP3 DUP4 SWAP2 PUSH2 0x53D2 JUMP JUMPDEST PUSH2 0xA3D PUSH1 0x40 MLOAD SWAP3 DUP3 DUP5 SWAP4 DUP5 MSTORE DUP4 ADD SWAP1 PUSH2 0x543B JUMP JUMPDEST PUSH1 0x64 DUP3 PUSH1 0x40 MLOAD SWAP1 PUSH3 0x461BCD PUSH1 0xE5 SHL DUP3 MSTORE PUSH1 0x4 DUP3 ADD MSTORE PUSH1 0x13 PUSH1 0x24 DUP3 ADD MSTORE PUSH32 0x4861736820646F6573206E6F7420657869737400000000000000000000000000 PUSH1 0x44 DUP3 ADD MSTORE REVERT JUMPDEST CALLVALUE PUSH2 0x82D JUMPI PUSH1 0x20 PUSH2 0x4C1D PUSH2 0x19BC CALLDATASIZE PUSH2 0x53A0 JUMP JUMPDEST DUP2 ADD PUSH1 0x7 DUP2 MSTORE SUB ADD SWAP1 KECCAK256 SWAP1 DUP2 SLOAD DUP2 LT ISZERO PUSH2 0x82D JUMPI PUSH2 0x1C74 PUSH2 0x1C7A SWAP2 PUSH2 0xA3D SWAP4 PUSH2 0x546A JUMP JUMPDEST CALLVALUE PUSH2 0x82D JUMPI PUSH1 0x0 CALLDATASIZE PUSH1 0x3 NOT ADD SLT PUSH2 0x82D JUMPI PUSH1 0x40 PUSH1 0x17 SLOAD PUSH1 0x18 SLOAD DUP3 MLOAD SWAP2 DUP3 MSTORE PUSH1 0x20 DUP3 ADD MSTORE RETURN JUMPDEST CALLVALUE PUSH2 0x82D JUMPI PUSH2 0x4C74 CALLDATASIZE PUSH2 0x53A0 JUMP JUMPDEST PUSH1 0x0 DUP1 SWAP2 PUSH1 0x40 MLOAD DUP5 DUP2 DUP1 SWAP7 MLOAD PUSH2 0x4C90 DUP2 PUSH1 0x20 SWAP10 DUP11 DUP1 SWAP7 ADD PUSH2 0x53D2 JUMP JUMPDEST DUP2 ADD PUSH1 0x10 DUP2 MSTORE SUB ADD SWAP1 KECCAK256 SWAP1 PUSH1 0x0 MSTORE DUP4 MSTORE PUSH1 0x40 PUSH1 0x0 KECCAK256 SWAP2 DUP3 SLOAD PUSH2 0x4CB1 DUP2 PUSH2 0x5AB7 JUMP JUMPDEST SWAP4 PUSH2 0x4CBF PUSH1 0x40 MLOAD SWAP6 DUP7 PUSH2 0x5327 JUMP JUMPDEST DUP2 DUP6 MSTORE PUSH1 0x0 SWAP1 DUP2 MSTORE DUP6 DUP2 KECCAK256 DUP7 DUP1 DUP8 ADD JUMPDEST DUP5 DUP5 LT PUSH2 0x4D57 JUMPI POP POP POP POP POP DUP3 MLOAD SWAP3 PUSH1 0x0 JUMPDEST DUP2 MLOAD DUP2 LT ISZERO PUSH2 0x4D41 JUMPI PUSH1 0x60 PUSH2 0x4CF6 DUP3 DUP5 PUSH2 0x5B0A JUMP JUMPDEST MLOAD ADD MLOAD PUSH2 0x4D06 JUMPI JUMPDEST PUSH1 0x1 ADD PUSH2 0x4CE1 JUMP JUMPDEST SWAP3 DUP6 PUSH2 0x4D12 DUP6 DUP5 PUSH2 0x5B0A JUMP JUMPDEST MLOAD ADD MLOAD ISZERO PUSH2 0x4D2E JUMPI PUSH2 0x4D25 PUSH1 0x1 SWAP2 PUSH2 0x5B1E JUMP JUMPDEST SWAP4 JUMPDEST SWAP1 POP PUSH2 0x4CFE JUMP JUMPDEST SWAP3 SWAP2 PUSH2 0x4D3B PUSH1 0x1 SWAP2 PUSH2 0x5B1E JUMP JUMPDEST SWAP3 PUSH2 0x4D27 JUMP JUMPDEST POP POP SWAP1 PUSH1 0x60 SWAP4 PUSH1 0x40 MLOAD SWAP4 DUP5 MSTORE DUP4 ADD MSTORE PUSH1 0x40 DUP3 ADD MSTORE RETURN JUMPDEST PUSH1 0x1 SWAP2 PUSH1 0x4 SWAP2 PUSH2 0x4D66 DUP6 PUSH2 0x5ACF JUMP JUMPDEST DUP2 MSTORE ADD SWAP3 ADD SWAP3 ADD SWAP2 SWAP1 DUP8 SWAP1 PUSH2 0x4CCF JUMP JUMPDEST CALLVALUE PUSH2 0x82D JUMPI PUSH1 0x20 DUP1 PUSH1 0x3 NOT CALLDATASIZE ADD SLT PUSH2 0x82D JUMPI PUSH1 0x4 CALLDATALOAD SWAP1 PUSH8 0xFFFFFFFFFFFFFFFF DUP3 GT PUSH2 0x82D JUMPI PUSH2 0x4DAB PUSH1 0x24 SWAP3 CALLDATASIZE SWAP1 PUSH1 0x4 ADD PUSH2 0x5349 JUMP JUMPDEST DUP2 PUSH1 0x1 PUSH1 0x1 PUSH1 0xA0 SHL SUB PUSH1 0x0 SLOAD AND PUSH1 0x40 MLOAD SWAP5 DUP6 DUP1 SWAP3 PUSH3 0xB0C809 PUSH1 0xE0 SHL DUP3 MSTORE CALLER PUSH1 0x4 DUP4 ADD MSTORE GAS STATICCALL SWAP3 DUP4 ISZERO PUSH2 0x83A JUMPI PUSH1 0x0 SWAP4 PUSH2 0x4F10 JUMPI JUMPDEST POP PUSH2 0x4DEB DUP4 ISZERO ISZERO PUSH2 0x5858 JUMP JUMPDEST PUSH1 0x40 MLOAD DUP2 MLOAD SWAP1 DUP4 DUP2 DUP2 DUP6 ADD SWAP4 PUSH2 0x4E02 DUP2 DUP4 DUP8 PUSH2 0x53D2 JUMP JUMPDEST DUP2 ADD PUSH1 0xE DUP2 MSTORE SUB ADD SWAP1 KECCAK256 DUP5 PUSH1 0x0 MSTORE DUP4 MSTORE PUSH1 0xFF PUSH1 0x40 PUSH1 0x0 KECCAK256 SLOAD AND ISZERO PUSH2 0x4ECC JUMPI PUSH32 0x7180E7A407DE506E94DC4620F97C3AF6AAF73726BE177CF5A2118A83EA08E09A SWAP2 PUSH2 0xC30 SWAP2 PUSH1 0x40 MLOAD DUP6 DUP2 DUP5 MLOAD PUSH2 0x4E58 DUP2 DUP4 DUP8 PUSH2 0x53D2 JUMP JUMPDEST DUP2 ADD PUSH1 0xF DUP2 MSTORE SUB ADD SWAP1 KECCAK256 DUP7 PUSH1 0x0 MSTORE DUP6 MSTORE PUSH2 0x4EAC DUP6 PUSH1 0x5 PUSH2 0xBF2 DUP5 PUSH2 0x4E9A PUSH1 0xFF DUP5 PUSH2 0xBD7 DUP11 PUSH2 0x32DE DUP10 PUSH1 0x40 PUSH1 0x0 KECCAK256 SLOAD SWAP8 DUP9 SWAP4 PUSH1 0x40 MLOAD SWAP4 DUP5 SWAP3 DUP4 SWAP3 MLOAD SWAP3 DUP4 SWAP2 PUSH2 0x53D2 JUMP JUMPDEST PUSH1 0x40 MLOAD DUP5 DUP2 DUP10 MLOAD PUSH2 0x32DE DUP2 DUP4 DUP13 PUSH2 0x53D2 JUMP JUMPDEST DUP2 ADD PUSH1 0xE DUP2 MSTORE SUB ADD SWAP1 KECCAK256 DUP7 PUSH1 0x0 MSTORE DUP6 MSTORE PUSH1 0x40 PUSH1 0x0 KECCAK256 SWAP1 DUP2 SLOAD AND SWAP1 SSTORE PUSH2 0x5925 JUMP JUMPDEST PUSH1 0x64 DUP4 PUSH1 0x40 MLOAD SWAP1 PUSH3 0x461BCD PUSH1 0xE5 SHL DUP3 MSTORE PUSH1 0x4 DUP3 ADD MSTORE PUSH1 0x15 PUSH1 0x24 DUP3 ADD MSTORE PUSH32 0x4E6F206469737075746520746F20726574726163740000000000000000000000 PUSH1 0x44 DUP3 ADD MSTORE REVERT JUMPDEST SWAP1 SWAP3 POP DUP2 DUP2 DUP2 RETURNDATASIZE DUP4 GT PUSH2 0x4F38 JUMPI JUMPDEST PUSH2 0x4F28 DUP2 DUP4 PUSH2 0x5327 JUMP JUMPDEST DUP2 ADD SUB SLT PUSH2 0x82D JUMPI MLOAD SWAP2 DUP4 PUSH2 0x4DDF JUMP JUMPDEST POP RETURNDATASIZE PUSH2 0x4F1E JUMP JUMPDEST CALLVALUE PUSH2 0x82D JUMPI PUSH1 0x20 PUSH2 0x4F52 PUSH2 0x19BC CALLDATASIZE PUSH2 0x53A0 JUMP JUMPDEST DUP2 ADD PUSH1 0x5 DUP2 MSTORE SUB ADD SWAP1 KECCAK256 SWAP1 PUSH1 0x0 MSTORE PUSH1 0x20 MSTORE PUSH1 0x20 PUSH1 0xFF PUSH1 0x40 PUSH1 0x0 KECCAK256 SLOAD AND PUSH1 0x40 MLOAD SWAP1 ISZERO ISZERO DUP2 MSTORE RETURN JUMPDEST CALLVALUE PUSH2 0x82D JUMPI PUSH2 0x4F8F PUSH2 0x4F89 CALLDATASIZE PUSH2 0x53A0 JUMP JUMPDEST SWAP1 PUSH2 0x59A0 JUMP JUMPDEST SWAP1 PUSH2 0x23DE PUSH1 0x40 SWAP6 SWAP5 SWAP6 MLOAD SWAP6 DUP7 SWAP6 ISZERO ISZERO DUP7 MSTORE PUSH1 0xA0 PUSH1 0x20 DUP8 ADD MSTORE PUSH1 0xA0 DUP7 ADD SWAP1 PUSH2 0x543B JUMP JUMPDEST CALLVALUE PUSH2 0x82D JUMPI PUSH1 0x0 CALLDATASIZE PUSH1 0x3 NOT ADD SLT PUSH2 0x82D JUMPI PUSH1 0x20 PUSH1 0x1 PUSH1 0x1 PUSH1 0xA0 SHL SUB PUSH1 0x0 SLOAD AND PUSH1 0x40 MLOAD SWAP1 DUP2 MSTORE RETURN JUMPDEST CALLVALUE PUSH2 0x82D JUMPI PUSH1 0x60 CALLDATASIZE PUSH1 0x3 NOT ADD SLT PUSH2 0x82D JUMPI PUSH1 0x4 CALLDATALOAD PUSH8 0xFFFFFFFFFFFFFFFF DUP2 GT PUSH2 0x82D JUMPI PUSH2 0x5009 SWAP1 CALLDATASIZE SWAP1 PUSH1 0x4 ADD PUSH2 0x5349 JUMP JUMPDEST PUSH2 0x5011 PUSH2 0x541B JUMP JUMPDEST PUSH2 0x5019 PUSH2 0x542B JUMP JUMPDEST SWAP1 PUSH1 0xFF DUP1 DUP1 SWAP3 AND SWAP3 PUSH1 0x1 DUP5 LT ISZERO DUP1 PUSH2 0x5241 JUMPI JUMPDEST PUSH2 0x5035 SWAP1 PUSH2 0x57C2 JUMP JUMPDEST AND SWAP1 PUSH1 0x1 DUP3 LT ISZERO DUP1 PUSH2 0x5236 JUMPI JUMPDEST PUSH2 0x504B SWAP1 PUSH2 0x580D JUMP JUMPDEST PUSH1 0x1 PUSH1 0x1 PUSH1 0xA0 SHL SUB PUSH1 0x0 SLOAD AND SWAP3 PUSH1 0x40 MLOAD SWAP5 DUP6 SWAP5 PUSH3 0xB0C809 PUSH1 0xE0 SHL DUP7 MSTORE CALLER PUSH1 0x4 DUP8 ADD MSTORE DUP6 PUSH1 0x24 PUSH1 0x20 SWAP8 DUP9 SWAP4 GAS STATICCALL SWAP6 DUP7 ISZERO PUSH2 0x83A JUMPI PUSH1 0x0 SWAP7 PUSH2 0x5207 JUMPI JUMPDEST POP PUSH2 0x5092 DUP7 ISZERO ISZERO PUSH2 0x5858 JUMP JUMPDEST PUSH1 0x40 MLOAD DUP2 MLOAD SWAP1 DUP7 DUP2 DUP2 DUP6 ADD SWAP4 PUSH2 0x50A9 DUP2 DUP4 DUP8 PUSH2 0x53D2 JUMP JUMPDEST DUP2 ADD PUSH1 0xE DUP2 MSTORE SUB ADD SWAP1 KECCAK256 DUP8 PUSH1 0x0 MSTORE DUP7 MSTORE DUP4 PUSH1 0x40 PUSH1 0x0 KECCAK256 SLOAD AND ISZERO PUSH2 0x51C3 JUMPI PUSH2 0x510A PUSH1 0x2 SWAP2 PUSH1 0x40 MLOAD DUP9 DUP2 DUP7 MLOAD PUSH2 0x50DE DUP2 DUP4 DUP8 PUSH2 0x53D2 JUMP JUMPDEST DUP2 ADD PUSH1 0xF DUP2 MSTORE SUB ADD SWAP1 KECCAK256 DUP10 PUSH1 0x0 MSTORE DUP9 MSTORE PUSH2 0x32DE DUP9 PUSH1 0x40 PUSH1 0x0 KECCAK256 SLOAD SWAP3 PUSH1 0x40 MLOAD DUP1 SWAP4 DUP2 SWAP3 DUP10 MLOAD SWAP3 DUP4 SWAP2 PUSH2 0x53D2 JUMP JUMPDEST POP PUSH2 0x511A DUP6 PUSH1 0x5 DUP4 ADD SLOAD AND PUSH2 0x58A3 JUMP JUMPDEST ADD SWAP1 DUP2 SLOAD SWAP4 PUSH2 0x5135 DUP2 DUP7 AND SWAP5 PUSH2 0x512F DUP2 PUSH2 0x5460 JUMP JUMPDEST DUP5 PUSH2 0x58EE JUMP JUMPDEST PUSH1 0x6 DUP7 LT ISZERO PUSH2 0x2CA7 JUMPI PUSH2 0x51AC PUSH1 0xA0 SWAP6 DUP5 PUSH2 0x5173 PUSH32 0x5395FBD4F789F9B64D364B4F7ED8200E8D2A75A219F64DA159998CB161FDAB18 SWAP10 PUSH2 0x51BA SWAP8 PUSH2 0x5906 JUMP JUMPDEST SLOAD SWAP4 PUSH2 0x5181 DUP5 DUP7 AND SWAP2 PUSH2 0x5925 JUMP JUMPDEST SWAP10 PUSH1 0x40 MLOAD SWAP8 PUSH2 0x518F DUP2 PUSH2 0x5460 JUMP JUMPDEST DUP9 MSTORE PUSH2 0x519A DUP3 PUSH2 0x5460 JUMP JUMPDEST DUP8 ADD MSTORE DUP3 PUSH1 0x40 DUP8 ADD SWAP2 PUSH1 0x8 SHR AND PUSH2 0x56CA JUMP JUMPDEST PUSH1 0x60 DUP5 ADD SWAP2 PUSH1 0x8 SHR AND PUSH2 0x56CA JUMP JUMPDEST TIMESTAMP PUSH1 0x80 DUP3 ADD MSTORE LOG3 STOP JUMPDEST PUSH1 0x64 DUP7 PUSH1 0x40 MLOAD SWAP1 PUSH3 0x461BCD PUSH1 0xE5 SHL DUP3 MSTORE PUSH1 0x4 DUP3 ADD MSTORE PUSH1 0x14 PUSH1 0x24 DUP3 ADD MSTORE PUSH32 0x4E6F206469737075746520746F206D6F64696679000000000000000000000000 PUSH1 0x44 DUP3 ADD MSTORE REVERT JUMPDEST SWAP1 SWAP6 POP DUP5 DUP2 DUP2 RETURNDATASIZE DUP4 GT PUSH2 0x522F JUMPI JUMPDEST PUSH2 0x521F DUP2 DUP4 PUSH2 0x5327 JUMP JUMPDEST DUP2 ADD SUB SLT PUSH2 0x82D JUMPI MLOAD SWAP5 DUP7 PUSH2 0x5086 JUMP JUMPDEST POP RETURNDATASIZE PUSH2 0x5215 JUMP JUMPDEST POP PUSH1 0x5 DUP3 GT ISZERO PUSH2 0x5042 JUMP JUMPDEST POP PUSH1 0x3 DUP5 GT ISZERO PUSH2 0x502C JUMP JUMPDEST CALLVALUE PUSH2 0x82D JUMPI PUSH1 0x20 PUSH2 0x525F PUSH2 0x19BC CALLDATASIZE PUSH2 0x53A0 JUMP JUMPDEST DUP2 ADD PUSH1 0xE DUP2 MSTORE SUB ADD SWAP1 KECCAK256 SWAP1 PUSH1 0x0 MSTORE PUSH1 0x20 MSTORE PUSH1 0x20 PUSH1 0xFF PUSH1 0x40 PUSH1 0x0 KECCAK256 SLOAD AND PUSH1 0x40 MLOAD SWAP1 ISZERO ISZERO DUP2 MSTORE RETURN JUMPDEST PUSH1 0xC0 DUP2 ADD SWAP1 DUP2 LT PUSH8 0xFFFFFFFFFFFFFFFF DUP3 GT OR PUSH2 0x52A1 JUMPI PUSH1 0x40 MSTORE JUMP JUMPDEST PUSH4 0x4E487B71 PUSH1 0xE0 SHL PUSH1 0x0 MSTORE PUSH1 0x41 PUSH1 0x4 MSTORE PUSH1 0x24 PUSH1 0x0 REVERT JUMPDEST PUSH1 0xA0 DUP2 ADD SWAP1 DUP2 LT PUSH8 0xFFFFFFFFFFFFFFFF DUP3 GT OR PUSH2 0x52A1 JUMPI PUSH1 0x40 MSTORE JUMP JUMPDEST PUSH1 0x80 DUP2 ADD SWAP1 DUP2 LT PUSH8 0xFFFFFFFFFFFFFFFF DUP3 GT OR PUSH2 0x52A1 JUMPI PUSH1 0x40 MSTORE JUMP JUMPDEST PUSH1 0xE0 DUP2 ADD SWAP1 DUP2 LT PUSH8 0xFFFFFFFFFFFFFFFF DUP3 GT OR PUSH2 0x52A1 JUMPI PUSH1 0x40 MSTORE JUMP JUMPDEST PUSH1 0x20 DUP2 ADD SWAP1 DUP2 LT PUSH8 0xFFFFFFFFFFFFFFFF DUP3 GT OR PUSH2 0x52A1 JUMPI PUSH1 0x40 MSTORE JUMP JUMPDEST SWAP1 PUSH1 0x1F DUP1 NOT SWAP2 ADD AND DUP2 ADD SWAP1 DUP2 LT PUSH8 0xFFFFFFFFFFFFFFFF DUP3 GT OR PUSH2 0x52A1 JUMPI PUSH1 0x40 MSTORE JUMP JUMPDEST DUP2 PUSH1 0x1F DUP3 ADD SLT ISZERO PUSH2 0x82D JUMPI DUP1 CALLDATALOAD SWAP1 PUSH8 0xFFFFFFFFFFFFFFFF DUP3 GT PUSH2 0x52A1 JUMPI PUSH1 0x40 MLOAD SWAP3 PUSH2 0x537E PUSH1 0x1F DUP5 ADD PUSH1 0x1F NOT AND PUSH1 0x20 ADD DUP6 PUSH2 0x5327 JUMP JUMPDEST DUP3 DUP5 MSTORE PUSH1 0x20 DUP4 DUP4 ADD ADD GT PUSH2 0x82D JUMPI DUP2 PUSH1 0x0 SWAP3 PUSH1 0x20 DUP1 SWAP4 ADD DUP4 DUP7 ADD CALLDATACOPY DUP4 ADD ADD MSTORE SWAP1 JUMP JUMPDEST PUSH1 0x40 PUSH1 0x3 NOT DUP3 ADD SLT PUSH2 0x82D JUMPI PUSH1 0x4 CALLDATALOAD SWAP1 PUSH8 0xFFFFFFFFFFFFFFFF DUP3 GT PUSH2 0x82D JUMPI PUSH2 0x53CB SWAP2 PUSH1 0x4 ADD PUSH2 0x5349 JUMP JUMPDEST SWAP1 PUSH1 0x24 CALLDATALOAD SWAP1 JUMP JUMPDEST PUSH1 0x0 JUMPDEST DUP4 DUP2 LT PUSH2 0x53E5 JUMPI POP POP PUSH1 0x0 SWAP2 ADD MSTORE JUMP JUMPDEST DUP2 DUP2 ADD MLOAD DUP4 DUP3 ADD MSTORE PUSH1 0x20 ADD PUSH2 0x53D5 JUMP JUMPDEST PUSH1 0x20 PUSH2 0x540E SWAP2 DUP2 PUSH1 0x40 MLOAD SWAP4 DUP3 DUP6 DUP1 SWAP5 MLOAD SWAP4 DUP5 SWAP3 ADD PUSH2 0x53D2 JUMP JUMPDEST DUP2 ADD PUSH1 0x5 DUP2 MSTORE SUB ADD SWAP1 KECCAK256 SWAP1 JUMP JUMPDEST PUSH1 0x24 CALLDATALOAD SWAP1 PUSH1 0xFF DUP3 AND DUP3 SUB PUSH2 0x82D JUMPI JUMP JUMPDEST PUSH1 0x44 CALLDATALOAD SWAP1 PUSH1 0xFF DUP3 AND DUP3 SUB PUSH2 0x82D JUMPI JUMP JUMPDEST SWAP1 PUSH1 0x20 SWAP2 PUSH2 0x5454 DUP2 MLOAD DUP1 SWAP3 DUP2 DUP6 MSTORE DUP6 DUP1 DUP7 ADD SWAP2 ADD PUSH2 0x53D2 JUMP JUMPDEST PUSH1 0x1F ADD PUSH1 0x1F NOT AND ADD ADD SWAP1 JUMP JUMPDEST PUSH1 0x4 GT ISZERO PUSH2 0x2CA7 JUMPI JUMP JUMPDEST DUP1 SLOAD DUP3 LT ISZERO PUSH2 0x5482 JUMPI PUSH1 0x0 MSTORE PUSH1 0x20 PUSH1 0x0 KECCAK256 ADD SWAP1 PUSH1 0x0 SWAP1 JUMP JUMPDEST PUSH4 0x4E487B71 PUSH1 0xE0 SHL PUSH1 0x0 MSTORE PUSH1 0x32 PUSH1 0x4 MSTORE PUSH1 0x24 PUSH1 0x0 REVERT JUMPDEST SWAP1 PUSH1 0x1 DUP3 DUP2 SHR SWAP3 AND DUP1 ISZERO PUSH2 0x54C8 JUMPI JUMPDEST PUSH1 0x20 DUP4 LT EQ PUSH2 0x54B2 JUMPI JUMP JUMPDEST PUSH4 0x4E487B71 PUSH1 0xE0 SHL PUSH1 0x0 MSTORE PUSH1 0x22 PUSH1 0x4 MSTORE PUSH1 0x24 PUSH1 0x0 REVERT JUMPDEST SWAP2 PUSH1 0x7F AND SWAP2 PUSH2 0x54A7 JUMP JUMPDEST DUP1 SLOAD PUSH1 0x0 SWAP4 SWAP3 PUSH2 0x54E1 DUP3 PUSH2 0x5498 JUMP JUMPDEST SWAP2 DUP3 DUP3 MSTORE PUSH1 0x20 SWAP4 PUSH1 0x1 SWAP2 PUSH1 0x1 DUP2 AND SWAP1 DUP2 PUSH1 0x0 EQ PUSH2 0x5549 JUMPI POP PUSH1 0x1 EQ PUSH2 0x5508 JUMPI JUMPDEST POP POP POP POP POP JUMP JUMPDEST SWAP1 SWAP4 SWAP5 SWAP6 POP PUSH1 0x0 SWAP3 SWAP2 SWAP3 MSTORE DUP4 PUSH1 0x0 KECCAK256 SWAP3 DUP5 PUSH1 0x0 SWAP5 JUMPDEST DUP4 DUP7 LT PUSH2 0x5535 JUMPI POP POP POP POP ADD ADD SWAP1 CODESIZE DUP1 DUP1 DUP1 DUP1 PUSH2 0x5501 JUMP JUMPDEST DUP1 SLOAD DUP6 DUP8 ADD DUP4 ADD MSTORE SWAP5 ADD SWAP4 DUP6 SWAP1 DUP3 ADD PUSH2 0x551D JUMP JUMPDEST PUSH1 0xFF NOT AND DUP7 DUP6 ADD MSTORE POP POP POP SWAP1 ISZERO ISZERO PUSH1 0x5 SHL ADD ADD SWAP2 POP CODESIZE DUP1 DUP1 DUP1 DUP1 PUSH2 0x5501 JUMP JUMPDEST SWAP1 PUSH2 0x5583 JUMPI PUSH2 0x5580 PUSH2 0xA66 SWAP2 PUSH1 0x40 MLOAD SWAP3 DUP4 DUP1 SWAP3 PUSH2 0x54D2 JUMP JUMPDEST SWAP1 JUMP JUMPDEST PUSH4 0x4E487B71 PUSH1 0xE0 SHL PUSH1 0x0 MSTORE PUSH1 0x0 PUSH1 0x4 MSTORE PUSH1 0x24 PUSH1 0x0 REVERT JUMPDEST PUSH1 0x20 SWAP1 PUSH1 0x20 PUSH1 0x40 DUP2 DUP4 ADD SWAP3 DUP3 DUP2 MSTORE DUP6 MLOAD DUP1 SWAP5 MSTORE ADD SWAP4 ADD SWAP2 PUSH1 0x0 JUMPDEST DUP3 DUP2 LT PUSH2 0x55C1 JUMPI POP POP POP POP SWAP1 JUMP JUMPDEST DUP4 MLOAD DUP6 MSTORE SWAP4 DUP2 ADD SWAP4 SWAP3 DUP2 ADD SWAP3 PUSH1 0x1 ADD PUSH2 0x55B3 JUMP JUMPDEST DUP1 SLOAD DUP3 LT ISZERO PUSH2 0x5482 JUMPI PUSH1 0x0 MSTORE PUSH1 0x20 PUSH1 0x0 KECCAK256 SWAP1 PUSH1 0x2 SHL ADD SWAP1 PUSH1 0x0 SWAP1 JUMP JUMPDEST PUSH1 0x20 DUP1 DUP3 ADD SWAP1 PUSH1 0x20 DUP4 MSTORE DUP4 MLOAD DUP1 SWAP3 MSTORE PUSH1 0x40 DUP4 ADD SWAP3 PUSH1 0x20 PUSH1 0x40 DUP5 PUSH1 0x5 SHL DUP4 ADD ADD SWAP6 ADD SWAP4 PUSH1 0x0 SWAP2 JUMPDEST DUP5 DUP4 LT PUSH2 0x5627 JUMPI POP POP POP POP POP POP SWAP1 JUMP JUMPDEST SWAP1 SWAP2 SWAP3 SWAP4 SWAP5 SWAP6 DUP5 DUP1 PUSH2 0x5645 PUSH1 0x1 SWAP4 PUSH1 0x3F NOT DUP7 DUP3 SUB ADD DUP8 MSTORE DUP11 MLOAD PUSH2 0x543B JUMP JUMPDEST SWAP9 ADD SWAP4 ADD SWAP4 ADD SWAP2 SWAP5 SWAP4 SWAP3 SWAP1 PUSH2 0x5617 JUMP JUMPDEST PUSH1 0x60 PUSH1 0x3 NOT DUP3 ADD SLT PUSH2 0x82D JUMPI PUSH1 0x4 CALLDATALOAD SWAP1 PUSH8 0xFFFFFFFFFFFFFFFF DUP3 GT PUSH2 0x82D JUMPI PUSH2 0x5680 SWAP2 PUSH1 0x4 ADD PUSH2 0x5349 JUMP JUMPDEST SWAP1 PUSH1 0x24 CALLDATALOAD SWAP1 PUSH1 0x44 CALLDATALOAD SWAP1 JUMP JUMPDEST PUSH1 0x60 PUSH1 0x3 NOT DUP3 ADD SLT PUSH2 0x82D JUMPI PUSH1 0x4 CALLDATALOAD SWAP1 PUSH8 0xFFFFFFFFFFFFFFFF DUP3 GT PUSH2 0x82D JUMPI PUSH2 0x56B6 SWAP2 PUSH1 0x4 ADD PUSH2 0x5349 JUMP JUMPDEST SWAP1 PUSH1 0x24 CALLDATALOAD SWAP1 PUSH1 0x44 CALLDATALOAD DUP1 ISZERO ISZERO DUP2 SUB PUSH2 0x82D JUMPI SWAP1 JUMP JUMPDEST SWAP1 PUSH1 0x6 DUP3 LT ISZERO PUSH2 0x2CA7 JUMPI MSTORE JUMP JUMPDEST PUSH1 0x40 SWAP1 PUSH1 0x3 NOT ADD SLT PUSH2 0x82D JUMPI PUSH1 0x4 CALLDATALOAD SWAP1 PUSH1 0x24 CALLDATALOAD SWAP1 JUMP JUMPDEST SWAP1 PUSH1 0x5 DUP3 LT ISZERO PUSH2 0x2CA7 JUMPI MSTORE JUMP JUMPDEST SWAP5 SWAP2 SWAP4 PUSH2 0x572A PUSH1 0xA0 SWAP6 PUSH2 0x571C PUSH2 0x573A SWAP5 SWAP11 SWAP10 SWAP7 SWAP11 PUSH1 0xC0 DUP11 MSTORE PUSH1 0xC0 DUP11 ADD SWAP1 PUSH2 0x543B JUMP JUMPDEST SWAP1 DUP9 DUP3 SUB PUSH1 0x20 DUP11 ADD MSTORE PUSH2 0x543B JUMP JUMPDEST SWAP8 PUSH1 0x40 DUP8 ADD MSTORE PUSH1 0x60 DUP7 ADD SWAP1 PUSH2 0x56ED JUMP JUMPDEST PUSH1 0x80 DUP5 ADD MSTORE ISZERO ISZERO SWAP2 ADD MSTORE JUMP JUMPDEST SWAP1 PUSH1 0x40 PUSH1 0x3 NOT DUP4 ADD SLT PUSH2 0x82D JUMPI PUSH8 0xFFFFFFFFFFFFFFFF PUSH1 0x4 CALLDATALOAD DUP2 DUP2 GT PUSH2 0x82D JUMPI DUP4 PUSH2 0x5773 SWAP2 PUSH1 0x4 ADD PUSH2 0x5349 JUMP JUMPDEST SWAP3 PUSH1 0x24 CALLDATALOAD SWAP2 DUP3 GT PUSH2 0x82D JUMPI PUSH2 0x5580 SWAP2 PUSH1 0x4 ADD PUSH2 0x5349 JUMP JUMPDEST DUP1 SLOAD DUP3 LT ISZERO PUSH2 0x5482 JUMPI PUSH1 0x0 MSTORE PUSH1 0x5 PUSH1 0x20 PUSH1 0x0 KECCAK256 SWAP2 MUL ADD SWAP1 PUSH1 0x0 SWAP1 JUMP JUMPDEST DUP1 SLOAD DUP3 LT ISZERO PUSH2 0x5482 JUMPI PUSH1 0x0 MSTORE PUSH1 0x6 PUSH1 0x20 PUSH1 0x0 KECCAK256 SWAP2 MUL ADD SWAP1 PUSH1 0x0 SWAP1 JUMP JUMPDEST ISZERO PUSH2 0x57C9 JUMPI JUMP JUMPDEST PUSH1 0x64 PUSH1 0x40 MLOAD PUSH3 0x461BCD PUSH1 0xE5 SHL DUP2 MSTORE PUSH1 0x20 PUSH1 0x4 DUP3 ADD MSTORE PUSH1 0x14 PUSH1 0x24 DUP3 ADD MSTORE PUSH32 0x5365766572697479206D75737420626520312D33000000000000000000000000 PUSH1 0x44 DUP3 ADD MSTORE REVERT JUMPDEST ISZERO PUSH2 0x5814 JUMPI JUMP JUMPDEST PUSH1 0x64 PUSH1 0x40 MLOAD PUSH3 0x461BCD PUSH1 0xE5 SHL DUP2 MSTORE PUSH1 0x20 PUSH1 0x4 DUP3 ADD MSTORE PUSH1 0x17 PUSH1 0x24 DUP3 ADD MSTORE PUSH32 0x43756C706162696C697479206D75737420626520312D35000000000000000000 PUSH1 0x44 DUP3 ADD MSTORE REVERT JUMPDEST ISZERO PUSH2 0x585F JUMPI JUMP JUMPDEST PUSH1 0x64 PUSH1 0x40 MLOAD PUSH3 0x461BCD PUSH1 0xE5 SHL DUP2 MSTORE PUSH1 0x20 PUSH1 0x4 DUP3 ADD MSTORE PUSH1 0x15 PUSH1 0x24 DUP3 ADD MSTORE PUSH32 0x57616C6C6574206E6F7420726567697374657265640000000000000000000000 PUSH1 0x44 DUP3 ADD MSTORE REVERT JUMPDEST ISZERO PUSH2 0x58AA JUMPI JUMP JUMPDEST PUSH1 0x64 PUSH1 0x40 MLOAD PUSH3 0x461BCD PUSH1 0xE5 SHL DUP2 MSTORE PUSH1 0x20 PUSH1 0x4 DUP3 ADD MSTORE PUSH1 0x1A PUSH1 0x24 DUP3 ADD MSTORE PUSH32 0x4469737075746520686173206265656E20726574726163746564000000000000 PUSH1 0x44 DUP3 ADD MSTORE REVERT JUMPDEST SWAP1 PUSH2 0x58F8 DUP2 PUSH2 0x5460 JUMP JUMPDEST PUSH1 0xFF DUP1 NOT DUP4 SLOAD AND SWAP2 AND OR SWAP1 SSTORE JUMP JUMPDEST SWAP1 PUSH1 0x6 DUP2 LT ISZERO PUSH2 0x2CA7 JUMPI PUSH2 0xFF00 DUP3 SLOAD SWAP2 PUSH1 0x8 SHL AND SWAP1 PUSH2 0xFF00 NOT AND OR SWAP1 SSTORE JUMP JUMPDEST PUSH2 0x593D SWAP1 PUSH1 0x20 PUSH1 0x40 MLOAD SWAP3 DUP3 DUP5 DUP1 SWAP5 MLOAD SWAP4 DUP5 SWAP3 ADD PUSH2 0x53D2 JUMP JUMPDEST DUP2 ADD SUB SWAP1 KECCAK256 SWAP1 JUMP JUMPDEST SWAP1 PUSH1 0x40 MLOAD PUSH2 0x5952 DUP2 PUSH2 0x52B7 JUMP JUMPDEST PUSH1 0x80 PUSH1 0xFF PUSH1 0x4 DUP4 SWAP6 DUP1 SLOAD DUP6 MSTORE PUSH1 0x40 MLOAD PUSH2 0x5972 DUP2 PUSH2 0xA66 DUP2 PUSH1 0x1 DUP7 ADD PUSH2 0x54D2 JUMP JUMPDEST PUSH1 0x20 DUP7 ADD MSTORE DUP3 PUSH1 0x2 DUP3 ADD SLOAD AND PUSH2 0x5987 DUP2 PUSH2 0x5460 JUMP JUMPDEST PUSH1 0x40 DUP7 ADD MSTORE PUSH1 0x3 DUP2 ADD SLOAD PUSH1 0x60 DUP7 ADD MSTORE ADD SLOAD AND ISZERO ISZERO SWAP2 ADD MSTORE JUMP JUMPDEST SWAP2 SWAP1 PUSH1 0x40 SWAP3 DUP4 MLOAD SWAP2 DUP5 DUP3 MLOAD SWAP2 PUSH1 0x20 SWAP5 DUP6 DUP2 DUP2 DUP8 ADD SWAP6 PUSH2 0x59C0 DUP2 DUP4 DUP10 PUSH2 0x53D2 JUMP JUMPDEST DUP2 ADD PUSH1 0xB DUP2 MSTORE SUB ADD SWAP1 KECCAK256 SWAP1 PUSH1 0x0 SWAP2 DUP2 DUP4 MSTORE DUP7 MSTORE PUSH1 0xFF DUP4 DUP4 KECCAK256 SLOAD AND ISZERO PUSH2 0x5A4F JUMPI PUSH2 0x5A21 SWAP4 DUP4 PUSH2 0xBC8 SWAP4 DUP9 SWAP4 PUSH2 0x5A27 SWAP9 SWAP7 MLOAD DUP6 DUP2 DUP10 MLOAD PUSH2 0x59FF DUP2 DUP4 DUP11 PUSH2 0x53D2 JUMP JUMPDEST DUP2 ADD PUSH1 0xC DUP2 MSTORE SUB ADD SWAP1 KECCAK256 SWAP1 DUP3 MSTORE DUP5 MSTORE KECCAK256 SLOAD SWAP4 DUP10 MLOAD SWAP4 DUP5 SWAP3 DUP4 SWAP3 MLOAD SWAP3 DUP4 SWAP2 PUSH2 0x53D2 JUMP JUMPDEST POP PUSH2 0x5945 JUMP JUMPDEST SWAP1 DUP2 ADD MLOAD SWAP3 DUP2 ADD MLOAD SWAP2 PUSH2 0x5A39 DUP4 PUSH2 0x5460 JUMP JUMPDEST PUSH1 0x80 PUSH1 0x60 DUP4 ADD MLOAD SWAP3 ADD MLOAD ISZERO ISZERO SWAP1 PUSH1 0x1 SWAP5 SWAP4 SWAP3 SWAP2 SWAP1 JUMP JUMPDEST POP SWAP5 SWAP4 POP POP POP POP DUP2 SWAP3 MLOAD PUSH2 0x5A62 DUP2 PUSH2 0x530B JUMP JUMPDEST DUP3 DUP2 MSTORE SWAP2 DUP1 SWAP2 DUP2 SWAP1 JUMP JUMPDEST ISZERO PUSH2 0x5A73 JUMPI JUMP JUMPDEST PUSH1 0x64 PUSH1 0x40 MLOAD PUSH3 0x461BCD PUSH1 0xE5 SHL DUP2 MSTORE PUSH1 0x20 PUSH1 0x4 DUP3 ADD MSTORE PUSH1 0x11 PUSH1 0x24 DUP3 ADD MSTORE PUSH32 0x416C726561647920726574726163746564000000000000000000000000000000 PUSH1 0x44 DUP3 ADD MSTORE REVERT JUMPDEST PUSH8 0xFFFFFFFFFFFFFFFF DUP2 GT PUSH2 0x52A1 JUMPI PUSH1 0x5 SHL PUSH1 0x20 ADD SWAP1 JUMP JUMPDEST SWAP1 PUSH1 0x40 MLOAD PUSH2 0x5ADC DUP2 PUSH2 0x52D3 JUMP JUMPDEST PUSH1 0x60 PUSH1 0xFF PUSH1 0x3 DUP4 SWAP6 DUP1 SLOAD DUP6 MSTORE DUP3 PUSH1 0x1 DUP3 ADD SLOAD AND ISZERO ISZERO PUSH1 0x20 DUP7 ADD MSTORE PUSH1 0x2 DUP2 ADD SLOAD PUSH1 0x40 DUP7 ADD MSTORE ADD SLOAD AND ISZERO ISZERO SWAP2 ADD MSTORE JUMP JUMPDEST DUP1 MLOAD DUP3 LT ISZERO PUSH2 0x5482 JUMPI PUSH1 0x20 SWAP2 PUSH1 0x5 SHL ADD ADD SWAP1 JUMP JUMPDEST PUSH1 0x0 NOT DUP2 EQ PUSH2 0x3B8C JUMPI PUSH1 0x1 ADD SWAP1 JUMP JUMPDEST PUSH1 0x6 DUP3 LT ISZERO PUSH2 0x2CA7 JUMPI MSTORE JUMP JUMPDEST SWAP1 PUSH1 0x40 MLOAD PUSH2 0x5B46 DUP2 PUSH2 0x52EF JUMP JUMPDEST PUSH1 0xC0 PUSH1 0xFF PUSH1 0x5 DUP4 SWAP6 DUP1 SLOAD DUP6 MSTORE PUSH1 0x40 MLOAD PUSH2 0x5B66 DUP2 PUSH2 0xA66 DUP2 PUSH1 0x1 DUP7 ADD PUSH2 0x54D2 JUMP JUMPDEST PUSH1 0x20 DUP7 ADD MSTORE PUSH2 0x5B92 DUP4 PUSH1 0x2 DUP4 ADD SLOAD DUP2 DUP2 AND PUSH2 0x5B80 DUP2 PUSH2 0x5460 JUMP JUMPDEST PUSH1 0x40 DUP10 ADD MSTORE PUSH1 0x8 SHR AND PUSH1 0x60 DUP8 ADD PUSH2 0x5B2D JUMP JUMPDEST PUSH1 0x40 MLOAD PUSH2 0x5BA6 DUP2 PUSH2 0xA66 DUP2 PUSH1 0x3 DUP7 ADD PUSH2 0x54D2 JUMP JUMPDEST PUSH1 0x80 DUP7 ADD MSTORE PUSH1 0x4 DUP2 ADD SLOAD PUSH1 0xA0 DUP7 ADD MSTORE ADD SLOAD AND ISZERO ISZERO SWAP2 ADD MSTORE JUMP JUMPDEST SWAP1 DUP2 PUSH1 0x20 SWAP2 SUB SLT PUSH2 0x82D JUMPI MLOAD DUP1 ISZERO ISZERO DUP2 SUB PUSH2 0x82D JUMPI SWAP1 JUMP JUMPDEST ISZERO PUSH2 0x5BDE JUMPI JUMP JUMPDEST PUSH1 0x64 PUSH1 0x40 MLOAD PUSH3 0x461BCD PUSH1 0xE5 SHL DUP2 MSTORE PUSH1 0x20 PUSH1 0x4 DUP3 ADD MSTORE PUSH1 0x14 PUSH1 0x24 DUP3 ADD MSTORE PUSH32 0x4E6F7420616E20616374697665206D656D626572000000000000000000000000 PUSH1 0x44 DUP3 ADD MSTORE REVERT JUMPDEST SWAP1 PUSH1 0x1 PUSH1 0x1 PUSH1 0xA0 SHL SUB PUSH2 0x5C42 PUSH1 0x20 SWAP3 SWAP6 SWAP5 SWAP6 PUSH1 0x40 DUP6 MSTORE PUSH1 0x40 DUP6 ADD SWAP1 PUSH2 0x543B JUMP JUMPDEST SWAP5 AND SWAP2 ADD MSTORE JUMP JUMPDEST ISZERO PUSH2 0x5C50 JUMPI JUMP JUMPDEST PUSH1 0x64 PUSH1 0x40 MLOAD PUSH3 0x461BCD PUSH1 0xE5 SHL DUP2 MSTORE PUSH1 0x20 PUSH1 0x4 DUP3 ADD MSTORE PUSH1 0x18 PUSH1 0x24 DUP3 ADD MSTORE PUSH32 0x4E6F2061636365737320746F2074686973207265636F72640000000000000000 PUSH1 0x44 DUP3 ADD MSTORE REVERT JUMPDEST ISZERO PUSH2 0x5C9B JUMPI JUMP JUMPDEST PUSH1 0x64 PUSH1 0x40 MLOAD PUSH3 0x461BCD PUSH1 0xE5 SHL DUP2 MSTORE PUSH1 0x20 PUSH1 0x4 DUP3 ADD MSTORE PUSH1 0xA PUSH1 0x24 DUP3 ADD MSTORE PUSH32 0x4F6E6C792061646D696E00000000000000000000000000000000000000000000 PUSH1 0x44 DUP3 ADD MSTORE REVERT JUMPDEST DUP2 DUP2 LT PUSH2 0x5CEA JUMPI POP POP JUMP JUMPDEST PUSH1 0x0 DUP2 SSTORE PUSH1 0x1 ADD PUSH2 0x5CDF JUMP JUMPDEST SWAP2 SWAP1 SWAP2 DUP3 MLOAD PUSH8 0xFFFFFFFFFFFFFFFF DUP2 GT PUSH2 0x52A1 JUMPI PUSH2 0x5D14 DUP3 SLOAD PUSH2 0x5498 JUMP JUMPDEST PUSH1 0x1F DUP2 GT PUSH2 0x5DBF JUMPI JUMPDEST POP PUSH1 0x20 DUP1 PUSH1 0x1F DUP4 GT PUSH1 0x1 EQ PUSH2 0x5D5A JUMPI POP DUP2 SWAP3 SWAP4 SWAP5 PUSH1 0x0 SWAP3 PUSH2 0x5D4F JUMPI JUMPDEST POP POP DUP2 PUSH1 0x1 SHL SWAP2 PUSH1 0x0 NOT SWAP1 PUSH1 0x3 SHL SHR NOT AND OR SWAP1 SSTORE JUMP JUMPDEST ADD MLOAD SWAP1 POP CODESIZE DUP1 PUSH2 0x5D39 JUMP JUMPDEST SWAP1 PUSH1 0x1F NOT DUP4 AND SWAP6 DUP5 PUSH1 0x0 MSTORE PUSH1 0x20 PUSH1 0x0 KECCAK256 SWAP3 PUSH1 0x0 SWAP1 JUMPDEST DUP9 DUP3 LT PUSH2 0x5DA7 JUMPI POP POP DUP4 PUSH1 0x1 SWAP6 SWAP7 SWAP8 LT PUSH2 0x5D8E JUMPI JUMPDEST POP POP POP DUP2 SHL ADD SWAP1 SSTORE JUMP JUMPDEST ADD MLOAD PUSH1 0x0 NOT PUSH1 0xF8 DUP5 PUSH1 0x3 SHL AND SHR NOT AND SWAP1 SSTORE CODESIZE DUP1 DUP1 PUSH2 0x5D84 JUMP JUMPDEST DUP1 PUSH1 0x1 DUP6 SWAP7 DUP3 SWAP5 SWAP7 DUP7 ADD MLOAD DUP2 SSTORE ADD SWAP6 ADD SWAP4 ADD SWAP1 PUSH2 0x5D6F JUMP JUMPDEST PUSH2 0x5DEC SWAP1 DUP4 PUSH1 0x0 MSTORE PUSH1 0x20 PUSH1 0x0 KECCAK256 PUSH1 0x1F DUP5 ADD PUSH1 0x5 SHR DUP2 ADD SWAP2 PUSH1 0x20 DUP6 LT PUSH2 0x5DF2 JUMPI JUMPDEST PUSH1 0x1F ADD PUSH1 0x5 SHR ADD SWAP1 PUSH2 0x5CDF JUMP JUMPDEST CODESIZE PUSH2 0x5D1D JUMP JUMPDEST SWAP1 SWAP2 POP DUP2 SWAP1 PUSH2 0x5DDF JUMP JUMPDEST SWAP1 PUSH1 0x5 DUP2 LT ISZERO PUSH2 0x2CA7 JUMPI PUSH1 0xFF DUP1 NOT DUP4 SLOAD AND SWAP2 AND OR SWAP1 SSTORE JUMP JUMPDEST ISZERO PUSH2 0x5E1B JUMPI JUMP JUMPDEST PUSH1 0x64 PUSH1 0x40 MLOAD PUSH3 0x461BCD PUSH1 0xE5 SHL DUP2 MSTORE PUSH1 0x20 PUSH1 0x4 DUP3 ADD MSTORE PUSH1 0x13 PUSH1 0x24 DUP3 ADD MSTORE PUSH32 0x466C616720646F6573206E6F7420657869737400000000000000000000000000 PUSH1 0x44 DUP3 ADD MSTORE REVERT JUMPDEST ISZERO PUSH2 0x5E66 JUMPI JUMP JUMPDEST PUSH1 0x64 PUSH1 0x40 MLOAD PUSH3 0x461BCD PUSH1 0xE5 SHL DUP2 MSTORE PUSH1 0x20 PUSH1 0x4 DUP3 ADD MSTORE PUSH1 0x19 PUSH1 0x24 DUP3 ADD MSTORE PUSH32 0x5265636F72642049442063616E6E6F7420626520656D70747900000000000000 PUSH1 0x44 DUP3 ADD MSTORE REVERT JUMPDEST ISZERO PUSH2 0x5EB1 JUMPI JUMP JUMPDEST PUSH1 0x64 PUSH1 0x40 MLOAD PUSH3 0x461BCD PUSH1 0xE5 SHL DUP2 MSTORE PUSH1 0x20 PUSH1 0x4 DUP3 ADD MSTORE PUSH1 0x1B PUSH1 0x24 DUP3 ADD MSTORE PUSH32 0x5265636F726420686173682063616E6E6F7420626520656D7074790000000000 PUSH1 0x44 DUP3 ADD MSTORE REVERT JUMPDEST ISZERO PUSH2 0x5EFC JUMPI JUMP JUMPDEST PUSH1 0x64 PUSH1 0x40 MLOAD PUSH3 0x461BCD PUSH1 0xE5 SHL DUP2 MSTORE PUSH1 0x20 PUSH1 0x4 DUP3 ADD MSTORE PUSH1 0x11 PUSH1 0x24 DUP3 ADD MSTORE PUSH32 0x4C6576656C206D75737420626520312D33000000000000000000000000000000 PUSH1 0x44 DUP3 ADD MSTORE REVERT JUMPDEST DUP1 SLOAD PUSH9 0x10000000000000000 DUP2 LT ISZERO PUSH2 0x52A1 JUMPI PUSH2 0x5F62 SWAP2 PUSH1 0x1 DUP3 ADD DUP2 SSTORE PUSH2 0x546A JUMP JUMPDEST SWAP2 SWAP1 SWAP2 PUSH2 0x5583 JUMPI PUSH2 0x5F72 SWAP2 PUSH2 0x5CF6 JUMP JUMPDEST JUMP JUMPDEST SWAP1 PUSH1 0x40 MLOAD PUSH2 0x5F81 DUP2 PUSH2 0x5285 JUMP JUMPDEST DUP1 SWAP3 PUSH1 0x40 MLOAD PUSH2 0x5F94 DUP2 PUSH2 0xA66 DUP2 DUP6 PUSH2 0x54D2 JUMP JUMPDEST DUP3 MSTORE PUSH1 0x40 MLOAD PUSH2 0x5FAA DUP2 PUSH2 0xA66 DUP2 PUSH1 0x1 DUP7 ADD PUSH2 0x54D2 JUMP JUMPDEST PUSH1 0x20 DUP4 ADD MSTORE PUSH1 0x2 DUP2 ADD SLOAD PUSH1 0x40 DUP4 ADD MSTORE PUSH1 0xFF PUSH1 0x3 DUP3 ADD SLOAD AND SWAP1 PUSH1 0x5 DUP3 LT ISZERO PUSH2 0x2CA7 JUMPI PUSH1 0x5 PUSH1 0xFF SWAP2 PUSH1 0xA0 SWAP4 PUSH1 0x60 DUP7 ADD MSTORE PUSH1 0x4 DUP2 ADD SLOAD PUSH1 0x80 DUP7 ADD MSTORE ADD SLOAD AND ISZERO ISZERO SWAP2 ADD MSTORE JUMP JUMPDEST ISZERO PUSH2 0x5FF3 JUMPI JUMP JUMPDEST PUSH1 0x64 PUSH1 0x40 MLOAD PUSH3 0x461BCD PUSH1 0xE5 SHL DUP2 MSTORE PUSH1 0x20 PUSH1 0x4 DUP3 ADD MSTORE PUSH1 0xF PUSH1 0x24 DUP3 ADD MSTORE PUSH32 0x496E76616C696420616464726573730000000000000000000000000000000000 PUSH1 0x44 DUP3 ADD MSTORE REVERT JUMPDEST SWAP1 PUSH1 0x40 SWAP3 DUP4 MLOAD SWAP3 DUP1 MLOAD PUSH1 0x20 SWAP5 DUP6 DUP2 DUP2 DUP6 ADD SWAP4 PUSH2 0x6054 DUP2 DUP4 DUP8 PUSH2 0x53D2 JUMP JUMPDEST DUP2 ADD PUSH1 0xE DUP2 MSTORE SUB ADD SWAP1 KECCAK256 SWAP4 PUSH1 0x0 SWAP5 DUP2 DUP7 MSTORE DUP7 MSTORE PUSH1 0xFF DUP8 DUP7 KECCAK256 SLOAD AND ISZERO PUSH2 0x610F JUMPI SWAP2 PUSH2 0x32DE DUP7 PUSH2 0x60B5 SWAP4 PUSH2 0x60BB SWAP6 DUP11 MLOAD DUP4 DUP2 DUP8 MLOAD PUSH2 0x6091 DUP2 DUP4 DUP9 PUSH2 0x53D2 JUMP JUMPDEST DUP2 ADD PUSH1 0xF DUP2 MSTORE SUB ADD SWAP1 KECCAK256 SWAP1 DUP10 MSTORE DUP3 MSTORE DUP10 DUP9 KECCAK256 SLOAD SWAP4 DUP11 MLOAD SWAP4 DUP5 SWAP3 DUP4 SWAP3 MLOAD SWAP3 DUP4 SWAP2 PUSH2 0x53D2 JUMP JUMPDEST POP PUSH2 0x5B39 JUMP JUMPDEST SWAP3 DUP4 ADD MLOAD SWAP4 DUP4 ADD MLOAD SWAP3 PUSH2 0x60CD DUP5 PUSH2 0x5460 JUMP JUMPDEST PUSH1 0x60 DUP2 ADD MLOAD SWAP3 PUSH1 0x6 DUP5 LT ISZERO PUSH2 0x60FB JUMPI POP PUSH1 0x80 DUP2 ADD MLOAD SWAP2 PUSH1 0xC0 PUSH1 0xA0 DUP4 ADD MLOAD SWAP3 ADD MLOAD ISZERO ISZERO SWAP1 PUSH1 0x1 SWAP7 SWAP6 SWAP5 SWAP4 SWAP3 SWAP2 SWAP1 JUMP JUMPDEST DUP1 PUSH4 0x4E487B71 PUSH1 0xE0 SHL PUSH1 0x24 SWAP3 MSTORE PUSH1 0x21 PUSH1 0x4 MSTORE REVERT JUMPDEST POP POP POP SWAP2 POP DUP1 SWAP3 DUP1 MLOAD PUSH2 0x6121 DUP2 PUSH2 0x530B JUMP JUMPDEST DUP3 DUP2 MSTORE SWAP3 DUP3 DUP1 SWAP3 MLOAD PUSH2 0x6132 DUP2 PUSH2 0x530B JUMP JUMPDEST DUP2 DUP2 MSTORE SWAP2 DUP2 SWAP1 JUMP JUMPDEST SWAP3 SWAP1 SWAP2 SWAP3 PUSH1 0x40 SWAP4 DUP5 MLOAD SWAP4 DUP3 MLOAD PUSH1 0x20 SWAP6 DUP7 DUP2 DUP2 DUP8 ADD SWAP4 PUSH2 0x615A DUP2 DUP4 DUP8 PUSH2 0x53D2 JUMP JUMPDEST DUP2 ADD PUSH1 0x11 DUP2 MSTORE SUB ADD SWAP1 KECCAK256 SWAP3 PUSH1 0x0 SWAP4 DUP4 DUP6 MSTORE DUP8 MSTORE DUP8 DUP5 KECCAK256 DUP2 DUP6 MSTORE DUP8 MSTORE PUSH1 0xFF DUP9 DUP6 KECCAK256 SLOAD AND ISZERO PUSH2 0x6203 JUMPI PUSH2 0x61EB SWAP4 PUSH2 0x61E5 SWAP4 PUSH2 0x61D0 DUP10 PUSH1 0x60 SWAP9 SWAP6 DUP13 SWAP6 DUP7 MLOAD DUP4 DUP2 DUP11 MLOAD PUSH2 0x61A4 DUP2 DUP4 DUP9 PUSH2 0x53D2 JUMP JUMPDEST DUP2 ADD PUSH1 0x12 DUP2 MSTORE SUB ADD SWAP1 KECCAK256 DUP6 DUP8 MSTORE DUP4 MSTORE DUP7 DUP7 KECCAK256 SWAP1 DUP7 MSTORE DUP3 MSTORE DUP6 DUP6 KECCAK256 SLOAD SWAP7 DUP7 MLOAD SWAP4 DUP5 SWAP3 DUP4 SWAP3 MLOAD SWAP3 DUP4 SWAP2 PUSH2 0x53D2 JUMP JUMPDEST DUP2 ADD PUSH1 0x10 DUP2 MSTORE SUB ADD SWAP1 KECCAK256 SWAP1 DUP3 MSTORE DUP9 MSTORE KECCAK256 PUSH2 0x55D5 JUMP JUMPDEST POP PUSH2 0x5ACF JUMP JUMPDEST SWAP3 DUP4 ADD MLOAD ISZERO ISZERO SWAP4 DUP4 ADD MLOAD SWAP3 ADD MLOAD ISZERO ISZERO SWAP1 PUSH1 0x1 SWAP4 SWAP3 SWAP2 SWAP1 JUMP JUMPDEST POP POP POP SWAP4 POP POP SWAP1 POP DUP2 DUP1 SWAP2 DUP2 SWAP1 JUMP INVALID LOG2 PUSH5 0x6970667358 0x22 SLT KECCAK256 0xDB SWAP14 0x24 0xA7 0xD3 0xD8 0xA5 0xB8 0x22 PUSH10 0xAD5522707228F8C5EB75 0x4B 0xE5 0xE5 CODECOPY PUSH16 0x7E62D999CCDBE064736F6C6343000817 STOP CALLER "},"methodIdentifiers":{"activeUnacceptedFlagCount(bytes32)":"dbc7b842","addRecordHash(string,string)":"e2aae6e0","admin()":"f851a440","anchorRecord(string,string)":"883080af","currentlyDisputed(string,bytes32)":"0a36148b","currentlyReacted(string,bytes32,bytes32)":"4f893ed6","currentlyVerified(string,bytes32)":"80027ff6","disputeIndex(string,bytes32)":"25db354d","disputeReactions(string,bytes32,uint256)":"2e6df698","disputeRecord(string,string,uint8,uint8,string)":"fd328f58","disputes(string,uint256)":"ca1e910a","disputesByUser(bytes32,uint256)":"adcee102","doesHashExist(string)":"05f59439","flagUnacceptedUpdate(bytes32,string,string)":"3f132dc1","getActiveRecordSubjects(string)":"2a4e0476","getActiveSubjectMedicalHistory(bytes32)":"f860a3a2","getActiveUnacceptedFlagCount(bytes32)":"249dda2e","getDisputeReactions(string,bytes32)":"f5e7f9f4","getDisputeStats(string)":"6018200d","getDisputeStatsBySeverity(string)":"2cb2c1e9","getDisputes(string)":"629be2b6","getReactionStats(string,bytes32)":"1b7cabb7","getRecordHashReviewSummary(string)":"d4f7a465","getRecordIdForHash(string)":"21d9caaa","getRecordSubjects(string)":"400f8d06","getRecordVersionHistory(string)":"315ca5ba","getSubjectMedicalHistory(bytes32)":"c7695bab","getSubjectStats(string)":"7286b6f9","getTotalAnchoredRecords()":"d46e082f","getTotalReviewStats()":"1e59607a","getTotalUnacceptedFlagStats()":"d5ba54e7","getUnacceptedUpdateFlag(bytes32,uint256)":"6eb7457f","getUnacceptedUpdateFlags(bytes32)":"f251f8e4","getUserDispute(string,bytes32)":"8e3ccbcf","getUserDisputes(bytes32)":"d08c800d","getUserReaction(string,bytes32,bytes32)":"f9f70c4a","getUserReviewHistory(bytes32)":"d5be3001","getUserVerification(string,bytes32)":"19bfe5f2","getUserVerifications(bytes32)":"e08f1ac3","getVerificationStats(string)":"339a0aec","getVerificationStatsByLevel(string)":"82953131","getVerifications(string)":"2fa8db04","getVersionCount(string)":"223c3bb9","hasActiveUnacceptedFlags(bytes32)":"5d28a342","hasUserDisputed(string,bytes32)":"003297e4","hasUserReacted(string,bytes32,bytes32)":"98909e22","hasUserVerified(string,bytes32)":"0fbab50a","isActiveSubject(string,bytes32)":"f3ac2bea","isHashActive(string)":"411ab584","isSubject(string,bytes32)":"c6bd1572","isSubjectActive(string,bytes32)":"1a6b3d2a","isSubjectOfRecord(string,bytes32)":"01b4147d","memberRoleManager()":"15370703","modifyDispute(string,uint8,uint8)":"10a0e88a","modifyReaction(string,bytes32,bool)":"5a18672e","modifyVerificationLevel(string,uint8)":"a5f2d1d1","reactToDispute(string,bytes32,bool)":"533acffd","reactionIndex(string,bytes32,bytes32)":"b0c7363c","reanchorRecord(string)":"b48ac4d2","recordIdForHash(string)":"365348e9","recordSubjects(string,uint256)":"c282f4ab","recordVersionHistory(string,uint256)":"1ec50c0e","resolveUnacceptedUpdate(bytes32,uint256,uint8)":"4b7c908a","retractDispute(string)":"1aacda88","retractReaction(string,bytes32)":"4294e2ff","retractRecordHash(string,string)":"e11c45b7","retractVerification(string)":"f7c0d033","setMemberRoleManager(address)":"dd0bc082","subjectMedicalHistory(bytes32,uint256)":"b27bb4d5","totalAnchoredRecords()":"1cf8cbe8","totalDisputes()":"c5e4ccc4","totalUnacceptedFlags()":"ac924336","totalVerifications()":"ac90c140","transferAdmin(address)":"75829def","unacceptedUpdateFlags(bytes32,uint256)":"c18cf8d2","unanchorRecord(string)":"35c4c203","verificationIndex(string,bytes32)":"5d12da50","verifications(string,uint256)":"8da1d369","verificationsByUser(bytes32,uint256)":"b5e6b7a2","verifyRecord(string,string,uint8)":"5203cbed"}},"storageLayout":{"storage":[{"astId":4809,"contract":"contracts/HealthRecordCore.sol:HealthRecordCore","label":"memberRoleManager","offset":0,"slot":"0","type":"t_contract(MemberRoleManagerInterface)4805"},{"astId":4811,"contract":"contracts/HealthRecordCore.sol:HealthRecordCore","label":"admin","offset":0,"slot":"1","type":"t_address"},{"astId":5036,"contract":"contracts/HealthRecordCore.sol:HealthRecordCore","label":"recordSubjects","offset":0,"slot":"2","type":"t_mapping(t_string_memory_ptr,t_array(t_bytes32)dyn_storage)"},{"astId":5042,"contract":"contracts/HealthRecordCore.sol:HealthRecordCore","label":"isSubjectOfRecord","offset":0,"slot":"3","type":"t_mapping(t_string_memory_ptr,t_mapping(t_bytes32,t_bool))"},{"astId":5047,"contract":"contracts/HealthRecordCore.sol:HealthRecordCore","label":"subjectMedicalHistory","offset":0,"slot":"4","type":"t_mapping(t_bytes32,t_array(t_string_storage)dyn_storage)"},{"astId":5053,"contract":"contracts/HealthRecordCore.sol:HealthRecordCore","label":"isSubjectActive","offset":0,"slot":"5","type":"t_mapping(t_string_memory_ptr,t_mapping(t_bytes32,t_bool))"},{"astId":5057,"contract":"contracts/HealthRecordCore.sol:HealthRecordCore","label":"recordIdForHash","offset":0,"slot":"6","type":"t_mapping(t_string_memory_ptr,t_string_storage)"},{"astId":5062,"contract":"contracts/HealthRecordCore.sol:HealthRecordCore","label":"recordVersionHistory","offset":0,"slot":"7","type":"t_mapping(t_string_memory_ptr,t_array(t_string_storage)dyn_storage)"},{"astId":5066,"contract":"contracts/HealthRecordCore.sol:HealthRecordCore","label":"isHashActive","offset":0,"slot":"8","type":"t_mapping(t_string_memory_ptr,t_bool)"},{"astId":5068,"contract":"contracts/HealthRecordCore.sol:HealthRecordCore","label":"totalAnchoredRecords","offset":0,"slot":"9","type":"t_uint256"},{"astId":6151,"contract":"contracts/HealthRecordCore.sol:HealthRecordCore","label":"verifications","offset":0,"slot":"10","type":"t_mapping(t_string_memory_ptr,t_array(t_struct(Verification)6105_storage)dyn_storage)"},{"astId":6157,"contract":"contracts/HealthRecordCore.sol:HealthRecordCore","label":"currentlyVerified","offset":0,"slot":"11","type":"t_mapping(t_string_memory_ptr,t_mapping(t_bytes32,t_bool))"},{"astId":6163,"contract":"contracts/HealthRecordCore.sol:HealthRecordCore","label":"verificationIndex","offset":0,"slot":"12","type":"t_mapping(t_string_memory_ptr,t_mapping(t_bytes32,t_uint256))"},{"astId":6169,"contract":"contracts/HealthRecordCore.sol:HealthRecordCore","label":"disputes","offset":0,"slot":"13","type":"t_mapping(t_string_memory_ptr,t_array(t_struct(Dispute)6122_storage)dyn_storage)"},{"astId":6175,"contract":"contracts/HealthRecordCore.sol:HealthRecordCore","label":"currentlyDisputed","offset":0,"slot":"14","type":"t_mapping(t_string_memory_ptr,t_mapping(t_bytes32,t_bool))"},{"astId":6181,"contract":"contracts/HealthRecordCore.sol:HealthRecordCore","label":"disputeIndex","offset":0,"slot":"15","type":"t_mapping(t_string_memory_ptr,t_mapping(t_bytes32,t_uint256))"},{"astId":6189,"contract":"contracts/HealthRecordCore.sol:HealthRecordCore","label":"disputeReactions","offset":0,"slot":"16","type":"t_mapping(t_string_memory_ptr,t_mapping(t_bytes32,t_array(t_struct(Reaction)6131_storage)dyn_storage))"},{"astId":6197,"contract":"contracts/HealthRecordCore.sol:HealthRecordCore","label":"currentlyReacted","offset":0,"slot":"17","type":"t_mapping(t_string_memory_ptr,t_mapping(t_bytes32,t_mapping(t_bytes32,t_bool)))"},{"astId":6205,"contract":"contracts/HealthRecordCore.sol:HealthRecordCore","label":"reactionIndex","offset":0,"slot":"18","type":"t_mapping(t_string_memory_ptr,t_mapping(t_bytes32,t_mapping(t_bytes32,t_uint256)))"},{"astId":6211,"contract":"contracts/HealthRecordCore.sol:HealthRecordCore","label":"unacceptedUpdateFlags","offset":0,"slot":"19","type":"t_mapping(t_bytes32,t_array(t_struct(UnacceptedUpdateFlag)6145_storage)dyn_storage)"},{"astId":6215,"contract":"contracts/HealthRecordCore.sol:HealthRecordCore","label":"activeUnacceptedFlagCount","offset":0,"slot":"20","type":"t_mapping(t_bytes32,t_uint256)"},{"astId":6220,"contract":"contracts/HealthRecordCore.sol:HealthRecordCore","label":"verificationsByUser","offset":0,"slot":"21","type":"t_mapping(t_bytes32,t_array(t_string_storage)dyn_storage)"},{"astId":6225,"contract":"contracts/HealthRecordCore.sol:HealthRecordCore","label":"disputesByUser","offset":0,"slot":"22","type":"t_mapping(t_bytes32,t_array(t_string_storage)dyn_storage)"},{"astId":6227,"contract":"contracts/HealthRecordCore.sol:HealthRecordCore","label":"totalVerifications","offset":0,"slot":"23","type":"t_uint256"},{"astId":6229,"contract":"contracts/HealthRecordCore.sol:HealthRecordCore","label":"totalDisputes","offset":0,"slot":"24","type":"t_uint256"},{"astId":6231,"contract":"contracts/HealthRecordCore.sol:HealthRecordCore","label":"totalUnacceptedFlags","offset":0,"slot":"25","type":"t_uint256"}],"types":{"t_address":{"encoding":"inplace","label":"address","numberOfBytes":"20"},"t_array(t_bytes32)dyn_storage":{"base":"t_bytes32","encoding":"dynamic_array","label":"bytes32[]","numberOfBytes":"32"},"t_array(t_string_storage)dyn_storage":{"base":"t_string_storage","encoding":"dynamic_array","label":"string[]","numberOfBytes":"32"},"t_array(t_struct(Dispute)6122_storage)dyn_storage":{"base":"t_struct(Dispute)6122_storage","encoding":"dynamic_array","label":"struct HealthRecordCore.Dispute[]","numberOfBytes":"32"},"t_array(t_struct(Reaction)6131_storage)dyn_storage":{"base":"t_struct(Reaction)6131_storage","encoding":"dynamic_array","label":"struct HealthRecordCore.Reaction[]","numberOfBytes":"32"},"t_array(t_struct(UnacceptedUpdateFlag)6145_storage)dyn_storage":{"base":"t_struct(UnacceptedUpdateFlag)6145_storage","encoding":"dynamic_array","label":"struct HealthRecordCore.UnacceptedUpdateFlag[]","numberOfBytes":"32"},"t_array(t_struct(Verification)6105_storage)dyn_storage":{"base":"t_struct(Verification)6105_storage","encoding":"dynamic_array","label":"struct HealthRecordCore.Verification[]","numberOfBytes":"32"},"t_bool":{"encoding":"inplace","label":"bool","numberOfBytes":"1"},"t_bytes32":{"encoding":"inplace","label":"bytes32","numberOfBytes":"32"},"t_contract(MemberRoleManagerInterface)4805":{"encoding":"inplace","label":"contract MemberRoleManagerInterface","numberOfBytes":"20"},"t_enum(DisputeCulpability)6087":{"encoding":"inplace","label":"enum HealthRecordCore.DisputeCulpability","numberOfBytes":"1"},"t_enum(DisputeSeverity)6080":{"encoding":"inplace","label":"enum HealthRecordCore.DisputeSeverity","numberOfBytes":"1"},"t_enum(ResolutionType)6093":{"encoding":"inplace","label":"enum HealthRecordCore.ResolutionType","numberOfBytes":"1"},"t_enum(VerificationLevel)6075":{"encoding":"inplace","label":"enum HealthRecordCore.VerificationLevel","numberOfBytes":"1"},"t_mapping(t_bytes32,t_array(t_string_storage)dyn_storage)":{"encoding":"mapping","key":"t_bytes32","label":"mapping(bytes32 => string[])","numberOfBytes":"32","value":"t_array(t_string_storage)dyn_storage"},"t_mapping(t_bytes32,t_array(t_struct(Reaction)6131_storage)dyn_storage)":{"encoding":"mapping","key":"t_bytes32","label":"mapping(bytes32 => struct HealthRecordCore.Reaction[])","numberOfBytes":"32","value":"t_array(t_struct(Reaction)6131_storage)dyn_storage"},"t_mapping(t_bytes32,t_array(t_struct(UnacceptedUpdateFlag)6145_storage)dyn_storage)":{"encoding":"mapping","key":"t_bytes32","label":"mapping(bytes32 => struct HealthRecordCore.UnacceptedUpdateFlag[])","numberOfBytes":"32","value":"t_array(t_struct(UnacceptedUpdateFlag)6145_storage)dyn_storage"},"t_mapping(t_bytes32,t_bool)":{"encoding":"mapping","key":"t_bytes32","label":"mapping(bytes32 => bool)","numberOfBytes":"32","value":"t_bool"},"t_mapping(t_bytes32,t_mapping(t_bytes32,t_bool))":{"encoding":"mapping","key":"t_bytes32","label":"mapping(bytes32 => mapping(bytes32 => bool))","numberOfBytes":"32","value":"t_mapping(t_bytes32,t_bool)"},"t_mapping(t_bytes32,t_mapping(t_bytes32,t_uint256))":{"encoding":"mapping","key":"t_bytes32","label":"mapping(bytes32 => mapping(bytes32 => uint256))","numberOfBytes":"32","value":"t_mapping(t_bytes32,t_uint256)"},"t_mapping(t_bytes32,t_uint256)":{"encoding":"mapping","key":"t_bytes32","label":"mapping(bytes32 => uint256)","numberOfBytes":"32","value":"t_uint256"},"t_mapping(t_string_memory_ptr,t_array(t_bytes32)dyn_storage)":{"encoding":"mapping","key":"t_string_memory_ptr","label":"mapping(string => bytes32[])","numberOfBytes":"32","value":"t_array(t_bytes32)dyn_storage"},"t_mapping(t_string_memory_ptr,t_array(t_string_storage)dyn_storage)":{"encoding":"mapping","key":"t_string_memory_ptr","label":"mapping(string => string[])","numberOfBytes":"32","value":"t_array(t_string_storage)dyn_storage"},"t_mapping(t_string_memory_ptr,t_array(t_struct(Dispute)6122_storage)dyn_storage)":{"encoding":"mapping","key":"t_string_memory_ptr","label":"mapping(string => struct HealthRecordCore.Dispute[])","numberOfBytes":"32","value":"t_array(t_struct(Dispute)6122_storage)dyn_storage"},"t_mapping(t_string_memory_ptr,t_array(t_struct(Verification)6105_storage)dyn_storage)":{"encoding":"mapping","key":"t_string_memory_ptr","label":"mapping(string => struct HealthRecordCore.Verification[])","numberOfBytes":"32","value":"t_array(t_struct(Verification)6105_storage)dyn_storage"},"t_mapping(t_string_memory_ptr,t_bool)":{"encoding":"mapping","key":"t_string_memory_ptr","label":"mapping(string => bool)","numberOfBytes":"32","value":"t_bool"},"t_mapping(t_string_memory_ptr,t_mapping(t_bytes32,t_array(t_struct(Reaction)6131_storage)dyn_storage))":{"encoding":"mapping","key":"t_string_memory_ptr","label":"mapping(string => mapping(bytes32 => struct HealthRecordCore.Reaction[]))","numberOfBytes":"32","value":"t_mapping(t_bytes32,t_array(t_struct(Reaction)6131_storage)dyn_storage)"},"t_mapping(t_string_memory_ptr,t_mapping(t_bytes32,t_bool))":{"encoding":"mapping","key":"t_string_memory_ptr","label":"mapping(string => mapping(bytes32 => bool))","numberOfBytes":"32","value":"t_mapping(t_bytes32,t_bool)"},"t_mapping(t_string_memory_ptr,t_mapping(t_bytes32,t_mapping(t_bytes32,t_bool)))":{"encoding":"mapping","key":"t_string_memory_ptr","label":"mapping(string => mapping(bytes32 => mapping(bytes32 => bool)))","numberOfBytes":"32","value":"t_mapping(t_bytes32,t_mapping(t_bytes32,t_bool))"},"t_mapping(t_string_memory_ptr,t_mapping(t_bytes32,t_mapping(t_bytes32,t_uint256)))":{"encoding":"mapping","key":"t_string_memory_ptr","label":"mapping(string => mapping(bytes32 => mapping(bytes32 => uint256)))","numberOfBytes":"32","value":"t_mapping(t_bytes32,t_mapping(t_bytes32,t_uint256))"},"t_mapping(t_string_memory_ptr,t_mapping(t_bytes32,t_uint256))":{"encoding":"mapping","key":"t_string_memory_ptr","label":"mapping(string => mapping(bytes32 => uint256))","numberOfBytes":"32","value":"t_mapping(t_bytes32,t_uint256)"},"t_mapping(t_string_memory_ptr,t_string_storage)":{"encoding":"mapping","key":"t_string_memory_ptr","label":"mapping(string => string)","numberOfBytes":"32","value":"t_string_storage"},"t_string_memory_ptr":{"encoding":"bytes","label":"string","numberOfBytes":"32"},"t_string_storage":{"encoding":"bytes","label":"string","numberOfBytes":"32"},"t_struct(Dispute)6122_storage":{"encoding":"inplace","label":"struct HealthRecordCore.Dispute","members":[{"astId":6107,"contract":"contracts/HealthRecordCore.sol:HealthRecordCore","label":"disputerIdHash","offset":0,"slot":"0","type":"t_bytes32"},{"astId":6109,"contract":"contracts/HealthRecordCore.sol:HealthRecordCore","label":"recordId","offset":0,"slot":"1","type":"t_string_storage"},{"astId":6112,"contract":"contracts/HealthRecordCore.sol:HealthRecordCore","label":"severity","offset":0,"slot":"2","type":"t_enum(DisputeSeverity)6080"},{"astId":6115,"contract":"contracts/HealthRecordCore.sol:HealthRecordCore","label":"culpability","offset":1,"slot":"2","type":"t_enum(DisputeCulpability)6087"},{"astId":6117,"contract":"contracts/HealthRecordCore.sol:HealthRecordCore","label":"notes","offset":0,"slot":"3","type":"t_string_storage"},{"astId":6119,"contract":"contracts/HealthRecordCore.sol:HealthRecordCore","label":"createdAt","offset":0,"slot":"4","type":"t_uint256"},{"astId":6121,"contract":"contracts/HealthRecordCore.sol:HealthRecordCore","label":"isActive","offset":0,"slot":"5","type":"t_bool"}],"numberOfBytes":"192"},"t_struct(Reaction)6131_storage":{"encoding":"inplace","label":"struct HealthRecordCore.Reaction","members":[{"astId":6124,"contract":"contracts/HealthRecordCore.sol:HealthRecordCore","label":"reactorIdHash","offset":0,"slot":"0","type":"t_bytes32"},{"astId":6126,"contract":"contracts/HealthRecordCore.sol:HealthRecordCore","label":"supportsDispute","offset":0,"slot":"1","type":"t_bool"},{"astId":6128,"contract":"contracts/HealthRecordCore.sol:HealthRecordCore","label":"timestamp","offset":0,"slot":"2","type":"t_uint256"},{"astId":6130,"contract":"contracts/HealthRecordCore.sol:HealthRecordCore","label":"isActive","offset":0,"slot":"3","type":"t_bool"}],"numberOfBytes":"128"},"t_struct(UnacceptedUpdateFlag)6145_storage":{"encoding":"inplace","label":"struct HealthRecordCore.UnacceptedUpdateFlag","members":[{"astId":6133,"contract":"contracts/HealthRecordCore.sol:HealthRecordCore","label":"recordId","offset":0,"slot":"0","type":"t_string_storage"},{"astId":6135,"contract":"contracts/HealthRecordCore.sol:HealthRecordCore","label":"noteHash","offset":0,"slot":"1","type":"t_string_storage"},{"astId":6137,"contract":"contracts/HealthRecordCore.sol:HealthRecordCore","label":"createdAt","offset":0,"slot":"2","type":"t_uint256"},{"astId":6140,"contract":"contracts/HealthRecordCore.sol:HealthRecordCore","label":"resolution","offset":0,"slot":"3","type":"t_enum(ResolutionType)6093"},{"astId":6142,"contract":"contracts/HealthRecordCore.sol:HealthRecordCore","label":"resolvedAt","offset":0,"slot":"4","type":"t_uint256"},{"astId":6144,"contract":"contracts/HealthRecordCore.sol:HealthRecordCore","label":"isActive","offset":0,"slot":"5","type":"t_bool"}],"numberOfBytes":"192"},"t_struct(Verification)6105_storage":{"encoding":"inplace","label":"struct HealthRecordCore.Verification","members":[{"astId":6095,"contract":"contracts/HealthRecordCore.sol:HealthRecordCore","label":"verifierIdHash","offset":0,"slot":"0","type":"t_bytes32"},{"astId":6097,"contract":"contracts/HealthRecordCore.sol:HealthRecordCore","label":"recordId","offset":0,"slot":"1","type":"t_string_storage"},{"astId":6100,"contract":"contracts/HealthRecordCore.sol:HealthRecordCore","label":"level","offset":0,"slot":"2","type":"t_enum(VerificationLevel)6075"},{"astId":6102,"contract":"contracts/HealthRecordCore.sol:HealthRecordCore","label":"createdAt","offset":0,"slot":"3","type":"t_uint256"},{"astId":6104,"contract":"contracts/HealthRecordCore.sol:HealthRecordCore","label":"isActive","offset":0,"slot":"4","type":"t_bool"}],"numberOfBytes":"160"},"t_uint256":{"encoding":"inplace","label":"uint256","numberOfBytes":"32"}}}}}}