{"contracts/MemberRoleManager.sol":{"MemberRoleManager":{"abi":[{"inputs":[],"stateMutability":"nonpayable","type":"constructor"},{"inputs":[{"internalType":"address","name":"target","type":"address"}],"name":"AddressEmptyCode","type":"error"},{"inputs":[{"internalType":"address","name":"implementation","type":"address"}],"name":"ERC1967InvalidImplementation","type":"error"},{"inputs":[],"name":"ERC1967NonPayable","type":"error"},{"inputs":[],"name":"FailedInnerCall","type":"error"},{"inputs":[],"name":"InvalidInitialization","type":"error"},{"inputs":[],"name":"NotInitializing","type":"error"},{"inputs":[],"name":"UUPSUnauthorizedCallContext","type":"error"},{"inputs":[{"internalType":"bytes32","name":"slot","type":"bytes32"}],"name":"UUPSUnsupportedProxiableUUID","type":"error"},{"anonymous":false,"inputs":[{"indexed":true,"internalType":"address","name":"oldAdmin","type":"address"},{"indexed":true,"internalType":"address","name":"newAdmin","type":"address"},{"indexed":false,"internalType":"uint256","name":"timestamp","type":"uint256"}],"name":"AdminTransferred","type":"event"},{"anonymous":false,"inputs":[{"indexed":false,"internalType":"uint64","name":"version","type":"uint64"}],"name":"Initialized","type":"event"},{"anonymous":false,"inputs":[{"indexed":true,"internalType":"address","name":"wallet","type":"address"},{"indexed":true,"internalType":"bytes32","name":"userIdHash","type":"bytes32"},{"indexed":false,"internalType":"uint256","name":"timestamp","type":"uint256"}],"name":"MemberRegistered","type":"event"},{"anonymous":false,"inputs":[{"indexed":true,"internalType":"bytes32","name":"userIdHash","type":"bytes32"},{"indexed":false,"internalType":"enum MemberRoleManager.MemberStatus","name":"oldStatus","type":"uint8"},{"indexed":false,"internalType":"enum MemberRoleManager.MemberStatus","name":"newStatus","type":"uint8"},{"indexed":true,"internalType":"address","name":"changedBy","type":"address"},{"indexed":false,"internalType":"uint256","name":"timestamp","type":"uint256"}],"name":"MemberStatusChanged","type":"event"},{"anonymous":false,"inputs":[{"indexed":true,"internalType":"string","name":"recordId","type":"string"},{"indexed":true,"internalType":"bytes32","name":"userIdHash","type":"bytes32"},{"indexed":false,"internalType":"uint256","name":"timestamp","type":"uint256"}],"name":"OwnershipVoluntarilyLeft","type":"event"},{"anonymous":false,"inputs":[{"indexed":true,"internalType":"string","name":"recordId","type":"string"},{"indexed":true,"internalType":"bytes32","name":"targetIdHash","type":"bytes32"},{"indexed":false,"internalType":"string","name":"oldRole","type":"string"},{"indexed":false,"internalType":"string","name":"newRole","type":"string"},{"indexed":true,"internalType":"bytes32","name":"userIdHash","type":"bytes32"},{"indexed":false,"internalType":"uint256","name":"timestamp","type":"uint256"}],"name":"RoleChanged","type":"event"},{"anonymous":false,"inputs":[{"indexed":true,"internalType":"string","name":"recordId","type":"string"},{"indexed":true,"internalType":"bytes32","name":"targetIdHash","type":"bytes32"},{"indexed":false,"internalType":"string","name":"role","type":"string"},{"indexed":true,"internalType":"bytes32","name":"userIdHash","type":"bytes32"},{"indexed":false,"internalType":"uint256","name":"timestamp","type":"uint256"}],"name":"RoleGranted","type":"event"},{"anonymous":false,"inputs":[{"indexed":true,"internalType":"string","name":"recordId","type":"string"},{"indexed":true,"internalType":"bytes32","name":"targetIdHash","type":"bytes32"},{"indexed":false,"internalType":"string","name":"role","type":"string"},{"indexed":true,"internalType":"bytes32","name":"userIdHash","type":"bytes32"},{"indexed":false,"internalType":"uint256","name":"timestamp","type":"uint256"}],"name":"RoleRevoked","type":"event"},{"anonymous":false,"inputs":[{"indexed":true,"internalType":"address","name":"implementation","type":"address"}],"name":"Upgraded","type":"event"},{"anonymous":false,"inputs":[{"indexed":true,"internalType":"address","name":"wallet","type":"address"},{"indexed":true,"internalType":"bytes32","name":"userIdHash","type":"bytes32"},{"indexed":false,"internalType":"uint256","name":"timestamp","type":"uint256"}],"name":"WalletLinked","type":"event"},{"inputs":[],"name":"UPGRADE_INTERFACE_VERSION","outputs":[{"internalType":"string","name":"","type":"string"}],"stateMutability":"view","type":"function"},{"inputs":[{"internalType":"address","name":"wallet","type":"address"},{"internalType":"bytes32","name":"userIdHash","type":"bytes32"}],"name":"addMember","outputs":[],"stateMutability":"nonpayable","type":"function"},{"inputs":[],"name":"admin","outputs":[{"internalType":"address","name":"","type":"address"}],"stateMutability":"view","type":"function"},{"inputs":[{"internalType":"string","name":"","type":"string"},{"internalType":"uint256","name":"","type":"uint256"}],"name":"adminsByRecord","outputs":[{"internalType":"bytes32","name":"","type":"bytes32"}],"stateMutability":"view","type":"function"},{"inputs":[{"internalType":"string","name":"recordId","type":"string"},{"internalType":"address","name":"targetWallet","type":"address"},{"internalType":"string","name":"newRole","type":"string"}],"name":"changeRole","outputs":[],"stateMutability":"nonpayable","type":"function"},{"inputs":[{"internalType":"address","name":"wallet","type":"address"}],"name":"deactivateWallet","outputs":[],"stateMutability":"nonpayable","type":"function"},{"inputs":[],"name":"getAllUsers","outputs":[{"internalType":"bytes32[]","name":"","type":"bytes32[]"}],"stateMutability":"view","type":"function"},{"inputs":[{"internalType":"string","name":"recordId","type":"string"}],"name":"getRecordAdmins","outputs":[{"internalType":"bytes32[]","name":"","type":"bytes32[]"}],"stateMutability":"view","type":"function"},{"inputs":[{"internalType":"string","name":"recordId","type":"string"}],"name":"getRecordOwners","outputs":[{"internalType":"bytes32[]","name":"","type":"bytes32[]"}],"stateMutability":"view","type":"function"},{"inputs":[{"internalType":"string","name":"recordId","type":"string"}],"name":"getRecordRoleStats","outputs":[{"internalType":"uint256","name":"ownerCount","type":"uint256"},{"internalType":"uint256","name":"adminCount","type":"uint256"},{"internalType":"uint256","name":"viewerCount","type":"uint256"}],"stateMutability":"view","type":"function"},{"inputs":[{"internalType":"string","name":"recordId","type":"string"}],"name":"getRecordViewers","outputs":[{"internalType":"bytes32[]","name":"","type":"bytes32[]"}],"stateMutability":"view","type":"function"},{"inputs":[{"internalType":"bytes32","name":"userIdHash","type":"bytes32"}],"name":"getRecordsByUser","outputs":[{"internalType":"string[]","name":"","type":"string[]"}],"stateMutability":"view","type":"function"},{"inputs":[{"internalType":"string","name":"recordId","type":"string"},{"internalType":"address","name":"wallet","type":"address"}],"name":"getRoleDetails","outputs":[{"internalType":"string","name":"role","type":"string"},{"internalType":"bool","name":"isActive","type":"bool"}],"stateMutability":"view","type":"function"},{"inputs":[{"internalType":"string","name":"recordId","type":"string"},{"internalType":"bytes32","name":"userIdHash","type":"bytes32"}],"name":"getRoleDetailsByUser","outputs":[{"internalType":"string","name":"role","type":"string"},{"internalType":"bool","name":"isActive","type":"bool"}],"stateMutability":"view","type":"function"},{"inputs":[],"name":"getTotalRoles","outputs":[{"internalType":"uint256","name":"","type":"uint256"}],"stateMutability":"view","type":"function"},{"inputs":[],"name":"getTotalUsers","outputs":[{"internalType":"uint256","name":"","type":"uint256"}],"stateMutability":"view","type":"function"},{"inputs":[{"internalType":"address","name":"wallet","type":"address"}],"name":"getUserForWallet","outputs":[{"internalType":"bytes32","name":"","type":"bytes32"}],"stateMutability":"view","type":"function"},{"inputs":[{"internalType":"bytes32","name":"userIdHash","type":"bytes32"}],"name":"getUserStatus","outputs":[{"internalType":"enum MemberRoleManager.MemberStatus","name":"status","type":"uint8"}],"stateMutability":"view","type":"function"},{"inputs":[{"internalType":"bytes32","name":"userIdHash","type":"bytes32"}],"name":"getWalletsForUser","outputs":[{"internalType":"address[]","name":"","type":"address[]"}],"stateMutability":"view","type":"function"},{"inputs":[{"internalType":"string","name":"recordId","type":"string"},{"internalType":"address","name":"targetWallet","type":"address"},{"internalType":"string","name":"role","type":"string"}],"name":"grantRole","outputs":[],"stateMutability":"nonpayable","type":"function"},{"inputs":[{"internalType":"string","name":"recordId","type":"string"},{"internalType":"address","name":"wallet","type":"address"}],"name":"hasActiveRole","outputs":[{"internalType":"bool","name":"","type":"bool"}],"stateMutability":"view","type":"function"},{"inputs":[{"internalType":"string","name":"recordId","type":"string"},{"internalType":"address","name":"wallet","type":"address"},{"internalType":"string","name":"role","type":"string"}],"name":"hasRole","outputs":[{"internalType":"bool","name":"","type":"bool"}],"stateMutability":"view","type":"function"},{"inputs":[],"name":"initialize","outputs":[],"stateMutability":"nonpayable","type":"function"},{"inputs":[{"internalType":"string","name":"recordId","type":"string"},{"internalType":"address","name":"targetWallet","type":"address"},{"internalType":"string","name":"role","type":"string"}],"name":"initializeRecordRole","outputs":[],"stateMutability":"nonpayable","type":"function"},{"inputs":[{"internalType":"address","name":"wallet","type":"address"}],"name":"isActiveMember","outputs":[{"internalType":"bool","name":"","type":"bool"}],"stateMutability":"view","type":"function"},{"inputs":[{"internalType":"string","name":"recordId","type":"string"},{"internalType":"address","name":"wallet","type":"address"}],"name":"isOwnerOrAdmin","outputs":[{"internalType":"bool","name":"","type":"bool"}],"stateMutability":"view","type":"function"},{"inputs":[{"internalType":"address","name":"wallet","type":"address"}],"name":"isVerifiedMember","outputs":[{"internalType":"bool","name":"","type":"bool"}],"stateMutability":"view","type":"function"},{"inputs":[{"internalType":"address","name":"wallet","type":"address"}],"name":"isVerifiedProvider","outputs":[{"internalType":"bool","name":"","type":"bool"}],"stateMutability":"view","type":"function"},{"inputs":[{"internalType":"string","name":"","type":"string"},{"internalType":"uint256","name":"","type":"uint256"}],"name":"ownersByRecord","outputs":[{"internalType":"bytes32","name":"","type":"bytes32"}],"stateMutability":"view","type":"function"},{"inputs":[],"name":"proxiableUUID","outputs":[{"internalType":"bytes32","name":"","type":"bytes32"}],"stateMutability":"view","type":"function"},{"inputs":[{"internalType":"address","name":"wallet","type":"address"}],"name":"reactivateWallet","outputs":[],"stateMutability":"nonpayable","type":"function"},{"inputs":[{"internalType":"bytes32","name":"","type":"bytes32"}],"name":"recordRoles","outputs":[{"internalType":"string","name":"role","type":"string"},{"internalType":"bool","name":"isActive","type":"bool"}],"stateMutability":"view","type":"function"},{"inputs":[{"internalType":"bytes32","name":"","type":"bytes32"},{"internalType":"uint256","name":"","type":"uint256"}],"name":"recordsByUser","outputs":[{"internalType":"string","name":"","type":"string"}],"stateMutability":"view","type":"function"},{"inputs":[{"internalType":"string","name":"recordId","type":"string"},{"internalType":"address","name":"targetWallet","type":"address"}],"name":"revokeRole","outputs":[],"stateMutability":"nonpayable","type":"function"},{"inputs":[{"internalType":"bytes32","name":"userIdHash","type":"bytes32"},{"internalType":"enum MemberRoleManager.MemberStatus","name":"newStatus","type":"uint8"}],"name":"setUserStatus","outputs":[],"stateMutability":"nonpayable","type":"function"},{"inputs":[],"name":"totalRoles","outputs":[{"internalType":"uint256","name":"","type":"uint256"}],"stateMutability":"view","type":"function"},{"inputs":[],"name":"totalUsers","outputs":[{"internalType":"uint256","name":"","type":"uint256"}],"stateMutability":"view","type":"function"},{"inputs":[{"internalType":"address","name":"newAdmin","type":"address"}],"name":"transferAdmin","outputs":[],"stateMutability":"nonpayable","type":"function"},{"inputs":[{"internalType":"address","name":"newImplementation","type":"address"},{"internalType":"bytes","name":"data","type":"bytes"}],"name":"upgradeToAndCall","outputs":[],"stateMutability":"payable","type":"function"},{"inputs":[{"internalType":"uint256","name":"","type":"uint256"}],"name":"userList","outputs":[{"internalType":"bytes32","name":"","type":"bytes32"}],"stateMutability":"view","type":"function"},{"inputs":[{"internalType":"bytes32","name":"","type":"bytes32"}],"name":"userStatus","outputs":[{"internalType":"enum MemberRoleManager.MemberStatus","name":"","type":"uint8"}],"stateMutability":"view","type":"function"},{"inputs":[{"internalType":"bytes32","name":"","type":"bytes32"},{"internalType":"uint256","name":"","type":"uint256"}],"name":"userWallets","outputs":[{"internalType":"address","name":"","type":"address"}],"stateMutability":"view","type":"function"},{"inputs":[{"internalType":"string","name":"","type":"string"},{"internalType":"uint256","name":"","type":"uint256"}],"name":"viewersByRecord","outputs":[{"internalType":"bytes32","name":"","type":"bytes32"}],"stateMutability":"view","type":"function"},{"inputs":[{"internalType":"string","name":"recordId","type":"string"}],"name":"voluntarilyLeaveOwnership","outputs":[],"stateMutability":"nonpayable","type":"function"},{"inputs":[{"internalType":"address","name":"","type":"address"}],"name":"wallets","outputs":[{"internalType":"bytes32","name":"userIdHash","type":"bytes32"},{"internalType":"bool","name":"isWalletActive","type":"bool"}],"stateMutability":"view","type":"function"}],"evm":{"bytecode":{"linkReferences":{},"object":"60a08060405234620000d157306080527ff0c57e16840df040f15088dc2f81fe391c3923bec73e23a9662efc9c229c6a009081549060ff8260401c16620000c257506001600160401b036002600160401b0319828216016200007c575b6040516139359081620000d78239608051818181611c350152611d7d0152f35b6001600160401b031990911681179091556040519081527fc7f505b2f371ae2175ee4913f4499e1f2633a7b5936321eed1cdaeb6115181d290602090a13880806200005c565b63f92ee8a960e01b8152600490fd5b600080fdfe608060408181526004918236101561001657600080fd5b600090813560e01c908162b0c8091461283d575080630b3ffd1d146127805780631435b558146127645780631a95aca5146126dc578063259ed80e146126b657806333105592146126785780633575c391146123985780633dd1e8fc1461231057806341d8bde31461226c57806345ecd02f1461224657806349df720814611fc85780634b6feb7c146116815780634f1ef28614611d2b578063510b300314611c9157806352d1902d14611c195780636544b05b14611b295780636b4bed97146102ac578063731f21a01461176a57806375829def146116a0578063790e118c146116815780638129fc1c1461150357806389b08f11146114bd5780639443cd801461147357806396207e02146112f7578063970ee5b9146112c05780639be572f614610d335780639f4216e814611273578063a0ca13c314611257578063ad3cb1cc146111fa578063b55aefcc146111c3578063bb0f86d514611106578063bb20b17214610d52578063bff1f9e114610d33578063cabdd23f14610d17578063cb261a0314610ce8578063d12a776814610c37578063daa9dc2314610657578063e2842d79146105d6578063e965bfb71461057d578063eb2bbf2514610553578063ed8d7b371461035d578063ee4e5828146102de578063f29e007b146102ac578063f851a440146102825763fa7a6bcc1461021257600080fd5b3461027f5761022036612b91565b908252600a602052828220805482101561027b579061023e91612ba7565b939093610269576102658361025286612a09565b9051918291602083526020830190612ad1565b0390f35b9080602492634e487b7160e01b825252fd5b8280fd5b80fd5b5090346102a857816003193601126102a8576001600160a01b0360209254169051908152f35b5080fd5b50913461027b57602036600319011261027b5760ff826020946102dc933581526002865220541691518092612b6e565bf35b50913461027b578160031936011261027b57803567ffffffffffffffff811161035957602093610321610318610265948694369101612933565b6024359061354d565b815260068552209180516103348161288c565b60ff600161034186612a09565b95868452015416151594859101525192839283612af6565b8380fd5b5091903461027b5760208060031936011261035957823567ffffffffffffffff811161054f576103909036908501612933565b61039c81511515612ce2565b3385526001825282852054936103ba6103b3612f31565b8684613588565b156104e75783516103f88460018551938281818901966103db81838a612aae565b810160078152030190205411928751809381928851928391612aae565b8101600881520301902054151581156104df575b501561047757509061046e82610443867f3bb3693064733b9a7d6d41bee69f302fcbefbe827ea4011400530c9ba9cb49c39561354d565b61045561044e612f31565b88846135e8565b875260068352848720600101805460ff19169055612fa3565b9251428152a380f35b6084908385519162461bcd60e51b8352820152603160248201527f43616e6e6f74206c65617665206173206c617374206f776e657220776974682060448201527f6e6f2061646d696e6973747261746f72730000000000000000000000000000006064820152fd5b90503861040c565b6084908385519162461bcd60e51b8352820152602360248201527f596f7520617265206e6f7420616e206f776e6572206f6620746869732072656360448201527f6f726400000000000000000000000000000000000000000000000000000000006064820152fd5b8480fd5b5090346102a8576102659061057061056a36612951565b906130c7565b9290915192839283612af6565b5090346102a8576020916105a761059336612bd5565b949081855193828580945193849201612aae565b8101600881520301902090815484101561027f57506020926105c891612ba7565b91905490519160031b1c8152f35b5090346102a857816003193601126102a8578051918284549081815260208091019583527f8a35acfbc15ff81a39ae7d344fd709f28e8600b4aa8c65c6b64bfe7fe36bd19b92905b828210610640576102658686610636828b03836128be565b5191829182612993565b83548752958601956001938401939091019061061e565b50913461027b576001600160a01b039061067036612b16565b929193906106856106803361322d565b613013565b61069185511515612ce2565b169361069e851515612e2a565b6106af6106aa846131d5565b612d78565b3386526020600181528187205495875281872054946106cf861515612e75565b845182860120936106e0878361354d565b808a52600684526106f960ff6001878d20015416612ec0565b89526006835261070a848a20612a09565b94855184870120818114610bf557610720612f31565b8581519101208114610b6757855191845192868181880195610743818389612aae565b810160078152030190205415918b8315610778610768610761612f31565b848b613588565b92610771612f6a565b908a613588565b90610781612f31565b8051908b0120850361098b571561091d5750156108dc575b6107a1612f6a565b8781519101201490816108c5575b50610824575b505050916108187fea2c9ebe68919ddf880b3221d8d508d908163d0973e8b79df108f5d110d0c63394926107f7856107f28b8a8c61080b9a6133a9565b612fa3565b968351958695606087526060870190612ad1565b9185830390860152612ad1565b9042908301520390a480f35b61082f575b806107b5565b610846846001928751809381928851928391612aae565b8101600881520301902054111561085d5780610829565b6084908385519162461bcd60e51b8352820152603960248201527f43616e6e6f742064656d6f746520746865206c6173742061646d696e6973747260448201527f61746f72207768656e206e6f206f776e657220657869737473000000000000006064820152fd5b90506108cf61305e565b86815191012014386107af565b60648588808b519262461bcd60e51b845283015260248201527f4f6e6c79206f776e6572732063616e2070726f6d6f746520746f206f776e65726044820152fd5b905061079957608485888a519162461bcd60e51b8352820152602b60248201527f4f6e6c792061646d696e6973747261746f72732063616e2070726f6d6f74652060448201527f6669727374206f776e65720000000000000000000000000000000000000000006064820152fd5b610993612f6a565b8051908b01208503610a1c57508115610a14575b5061079957608485888a519162461bcd60e51b8352820152603b60248201527f4f6e6c79206f776e65727320616e642061646d696e6973747261746f7273206360448201527f616e2070726f6d6f746520746f2061646d696e6973747261746f7200000000006064820152fd5b9050386109a7565b610a2461305e565b8a81519101208514610a39575b505050610799565b15610af9578115610ae2575b5015610a54575b388080610a31565b60a485888a519162461bcd60e51b8352820152604960248201527f4f6e6c79206f776e6572732063616e2064656d6f7465206f74686572732e204160448201527f646d696e6973747261746f72732063616e206f6e6c792064656d6f746520746860648201527f656d73656c7665732e00000000000000000000000000000000000000000000006084820152fd5b905080610af0575b38610a45565b508a8c14610aea565b9050610a4c57608485888a519162461bcd60e51b8352820152602860248201527f4f6e6c792061646d696e6973747261746f72732063616e2064656d6f7465207460448201527f6f207669657765720000000000000000000000000000000000000000000000006064820152fd5b60a4838688519162461bcd60e51b8352820152604360248201527f4f776e6572732063616e6e6f742062652064656d6f7465642e204f776e65722060448201527f6d75737420766f6c756e746172696c792072656d6f7665207468656d73656c7660648201527f65732e00000000000000000000000000000000000000000000000000000000006084820152fd5b6064838688519162461bcd60e51b8352820152601c60248201527f54617267657420616c726561647920686173207468697320726f6c65000000006044820152fd5b5082903461027f57602091826003193601126102a85792919235815260038352818120908251808584549182815201908194845286842090845b818110610ccb5750505081610c879103826128be565b83519485948186019282875251809352850193925b828110610cab57505050500390f35b83516001600160a01b031685528695509381019392810192600101610c9c565b82546001600160a01b031684529288019260019283019201610c71565b5090346102a85760203660031901126102a857602090610d0e610d09612871565b6136b0565b90519015158152f35b5090346102a857602090610d0e610d2d36612b16565b91613097565b5090346102a857816003193601126102a8576020906005549051908152f35b5082346102a8576001600160a01b0390610d6b36612b16565b92919390610d7b6106803361322d565b610d8785511515612ce2565b1692610d94841515612e2a565b610da06106aa846131d5565b33855260209160018352868620549486528686205492610dc1841515612e75565b845181860120610dd1878561354d565b88526006825260ff60018a8a20015416156110c557885182818651610df98183858b01612aae565b8101600781520301902054151590610e19610e12612f31565b8987613588565b91610e2c610e25612f6a565b8a88613588565b91610e35612f31565b8051908601208103610f93575015610f25575015610ee4575b610e58848461354d565b87526006815260ff6001898920015416610e7c575050610e799495506133a9565b80f35b6084925087519162461bcd60e51b8352820152603360248201527f54617267657420616c726561647920686173206120726f6c652e20557365206360448201527f68616e6765526f6c65282920696e7374656164000000000000000000000000006064820152fd5b606492508088519262461bcd60e51b845283015260248201527f4f6e6c79206f776e6572732063616e206772616e74206f776e657220726f6c656044820152fd5b9050610e4e576084925087519162461bcd60e51b8352820152602960248201527f4f6e6c792061646d696e6973747261746f72732063616e206772616e7420666960448201527f727374206f776e657200000000000000000000000000000000000000000000006064820152fd5b9050610f9d612f6a565b80519085012081036110265750811561101e575b50610e4e576084925087519162461bcd60e51b8352820152603b60248201527f4f6e6c79206f776e65727320616e642061646d696e6973747261746f7273206360448201527f616e206772616e742061646d696e6973747261746f7220726f6c6500000000006064820152fd5b905089610fb1565b61102e61305e565b84815191012014611041575b5050610e4e565b81156110bd575b501561105557888061103a565b6084925087519162461bcd60e51b8352820152603460248201527f4f6e6c79206f776e65727320616e642061646d696e6973747261746f7273206360448201527f616e206772616e742076696577657220726f6c650000000000000000000000006064820152fd5b905089611048565b60648383808c519262461bcd60e51b845283015260248201527f596f752068617665206e6f20726f6c6520666f722074686973207265636f72646044820152fd5b5091903461027b57602036600319011261027b57611122612871565b6001600160a01b0390611139828654163314612c07565b1680845260019283602052611152838620541515612c52565b8185528360205260ff8484872001541661118057508352602082905282208101805460ff1916909117905580f35b606490602084519162461bcd60e51b8352820152601560248201527f57616c6c657420616c72656164792061637469766500000000000000000000006044820152fd5b5090346102a8576020916111d961059336612bd5565b8101600981520301902090815484101561027f57506020926105c891612ba7565b5090346102a857816003193601126102a85780516102659161121b8261288c565b600582527f352e302e30000000000000000000000000000000000000000000000000000000602083015251918291602083526020830190612ad1565b5090346102a857602090610d0e61126d36612951565b90612fc3565b50913461027b57602036600319011261027b57803590805482101561035957602093527f8a35acfbc15ff81a39ae7d344fd709f28e8600b4aa8c65c6b64bfe7fe36bd19b01549051908152f35b5090346102a8576020916112d661059336612bd5565b8101600781520301902090815484101561027f57506020926105c891612ba7565b5091903461027b578060031936011261027b57813590602435600581101561054f5761132e6001600160a01b038654163314612c07565b82855260206002815260ff83872054166005811015611460571561141e578386526002815260ff838720541694600586101561140b578286146113ca57509061139c918487526002815283872060ff1981541660ff841617905561139484518097612b6e565b850190612b6e565b42908301527ff6277c6ee46649823db9a5c531db3112b4340c67179cae1932ba3420dcc37cc760603393a380f35b60649184519162461bcd60e51b8352820152601360248201527f416c7265616479207468697320737461747573000000000000000000000000006044820152fd5b866021602492634e487b7160e01b835252fd5b8460649184519162461bcd60e51b8352820152601360248201527f55736572206e6f742072656769737465726564000000000000000000000000006044820152fd5b602487602188634e487b7160e01b835252fd5b5090346102a85761148336612b91565b92908152600360205281812090815484101561027f57506114ae6020936001600160a01b0392612ba7565b90549060031b1c169051908152f35b5090346102a85760203660031901126102a85780916001600160a01b036114e2612871565b16815260016020522060ff6001825492015416825191825215156020820152f35b50913461027b578260031936011261027b577ff0c57e16840df040f15088dc2f81fe391c3923bec73e23a9662efc9c229c6a0091825460ff81831c16159067ffffffffffffffff811680159081611679575b600114908161166f575b159081611666575b5061163e5767ffffffffffffffff19811660011785558161161f575b5083549260ff84841c16156115f857503373ffffffffffffffffffffffffffffffffffffffff198654161785556115b8578380f35b7fc7f505b2f371ae2175ee4913f4499e1f2633a7b5936321eed1cdaeb6115181d29260209268ff0000000000000000191690555160018152a13880808380f35b82517fd7e6bcf8000000000000000000000000000000000000000000000000000000008152fd5b68ffffffffffffffffff19166801000000000000000117845538611583565b5050517ff92ee8a9000000000000000000000000000000000000000000000000000000008152fd5b90501538611567565b303b15915061155f565b839150611555565b5090346102a857816003193601126102a857602090600b549051908152f35b5082346102a85760203660031901126102a8576116bb612871565b8254906001600160a01b03808316916116d5833314612c07565b169283156117275750908273ffffffffffffffffffffffffffffffffffffffff19927f38df5fa0f7fef0d515ca1f5388cb5790ac5885d5fca8d05d9f943e563c33a4b360208851428152a31617815580f35b606490602087519162461bcd60e51b8352820152600f60248201527f496e76616c6964206164647265737300000000000000000000000000000000006044820152fd5b5091903461027b576001600160a01b039061178436612951565b611792829492511515612ce2565b169261179f841515612e2a565b338552602091600183528086205494865280862054936117c0851515612e75565b6117ca858261354d565b808852600685526117e360ff6001858b20015416612ec0565b808852600685526117f5838920612a09565b93845186860120611804612f31565b8781519101208114611a9b5787890361194f575b611820612f6a565b8781519101201461188d575b50816118799161186086897f938e21a28464db5f9b9e24d1a58e038899de364f69dba20c154ee6fd4cd86def9897966135e8565b895260068652828920600101805460ff19169055612fa3565b936108188251938385948552840190612ad1565b83516118c68760018651938281818a01966118a981838a612aae565b810160088152030190205411928751809381928951928391612aae565b810160078152030190205415158115611947575b5061182c576084908685519162461bcd60e51b8352820152603960248201527f43616e6e6f74207265766f6b65206c6173742061646d696e6973747261746f7260448201527f20776974686f757420616e206f776e65722070726573656e74000000000000006064820152fd5b9050386118da565b61196161195a612f31565b8a86613588565b8015611a8a575b15611a225761197861195a612f31565b15611983575b611818565b61198b612f6a565b8781519101208103611818578451878186516119aa8183858b01612aae565b81016007815203019020541561197e576084828887519162461bcd60e51b8352820152602560248201527f4f6e6c79206f776e6572732063616e207265766f6b652061646d696e6973747260448201527f61746f72730000000000000000000000000000000000000000000000000000006064820152fd5b6084828887519162461bcd60e51b8352820152602f60248201527f4f6e6c79206f776e65727320616e642061646d696e6973747261746f7273206360448201527f616e207265766f6b6520726f6c657300000000000000000000000000000000006064820152fd5b50611a9661195a612f6a565b611968565b60a4828887519162461bcd60e51b8352820152604560248201527f4f776e6572732063616e6e6f74206265207265766f6b65642e204f776e65722060448201527f6d7573742075736520766f6c756e746172696c794c656176654f776e6572736860648201527f697028292e0000000000000000000000000000000000000000000000000000006084820152fd5b5082346102a8576020908160031936011261027b5780358352600a82528383209182549167ffffffffffffffff8311611c0657509290845190611b71858260051b01836128be565b8082528482018094845285842084915b838310611be257505050508451938085019181865251809252858501958260051b8601019392955b828710611bb65785850386f35b909192938280611bd2600193603f198a82030186528851612ad1565b9601920196019592919092611ba9565b6001888192611bf4859b98999b612a09565b81520192019201919096949396611b81565b846041602492634e487b7160e01b835252fd5b503461027f578060031936011261027f57506001600160a01b037f0000000000000000000000000000000000000000000000000000000000000000163003611c8457602090517f360894a13ba1a3210667c828492db98dca3e2076cc3735a920a3ca505d382bbc8152f35b5163703e46dd60e11b8152fd5b5091903461027b57602091826003193601126103595780359067ffffffffffffffff821161054f57611cca8491611cdc93369101612933565b81845193828580945193849201612aae565b810160098152030190209281518093808654928381520195835280832092905b828210611d14576102658686610636828b03836128be565b835487529586019560019384019390910190611cfc565b5091908060031936011261027b57611d41612871565b9060243567ffffffffffffffff811161054f573660238201121561054f57611d7290369060248187013591016128fc565b6001600160a01b03807f000000000000000000000000000000000000000000000000000000000000000016803014908115611f9a575b50611f8b57611dbb818754163314612c07565b8316928251907f52d1902d00000000000000000000000000000000000000000000000000000000825260209182818881895afa889181611f58575b50611e115760248787875191634c9c8ce360e01b8352820152fd5b7f360894a13ba1a3210667c828492db98dca3e2076cc3735a920a3ca505d382bbc96929591939690818103611f295750833b15611f1357805473ffffffffffffffffffffffffffffffffffffffff19168217905583518792917fbc7cd75a20ee27fd9adebab32041f755214dbc6bffa90cc0225b39da2e5c2d3b8480a2865115611edd575050808585611ecf97519101845af4913d15611ed3573d611ec1611eb8826128e0565b925192836128be565b81528581943d92013e61386c565b5080f35b506060925061386c565b9450945050505034611eee57505080f35b7fb398979f000000000000000000000000000000000000000000000000000000008152fd5b60248383875191634c9c8ce360e01b8352820152fd5b836024918751917faa1d49a4000000000000000000000000000000000000000000000000000000008352820152fd5b9091508381813d8311611f84575b611f7081836128be565b81010312611f8057519038611df6565b8880fd5b503d611f66565b84835163703e46dd60e11b8152fd5b9050817f360894a13ba1a3210667c828492db98dca3e2076cc3735a920a3ca505d382bbc5416141538611da8565b50913461027b578160031936011261027b57611fe2612871565b916024908135936001600160a01b038091612001828954163314612c07565b169361200e851515612d2d565b851561220457848752600193602094808652848920546121c35761206385516120368161288c565b898152828882018181528a8d52818a52888d209251835551151591019060ff801983541691151516179055565b878952600386528489209384546801000000000000000095868210156121b15790612092918482018155612ba7565b819291549060031b918a831b921b19161790558789526002865260ff858a205416600581101561219f576121705787895260028652848920600260ff1982541617905582549384101561215e57830180835583101561214d57507f39d132591ee0696de49ab564e4a90e430c006561917db731a2a614dd2d245591939291869188527f8a35acfbc15ff81a39ae7d344fd709f28e8600b4aa8c65c6b64bfe7fe36bd19b0155612142600554612e05565b60055551428152a380f35b87603283634e487b7160e01b835252fd5b5087604183634e487b7160e01b835252fd5b50505050907f1cc138f50384be7770a8e4a34eecaa0d0c718bfaa1641af49db32532e4a5b9109151428152a380f35b828a602186634e487b7160e01b835252fd5b848c604188634e487b7160e01b835252fd5b6064836019848989519362461bcd60e51b85528401528201527f57616c6c657420616c72656164792072656769737465726564000000000000006044820152fd5b606490601485602086519362461bcd60e51b85528401528201527f496e76616c6964207573657220494420686173680000000000000000000000006044820152fd5b5090346102a85760203660031901126102a857602090610d0e612267612871565b61322d565b503461027f576020908160031936011261027f5783359067ffffffffffffffff821161027f57506060936122a291369101612933565b918051926122f7838251958181818601986122be81838c612aae565b8101600781520301902054958451828186516122db818387612aae565b8101600881520301902054938551938492839251928391612aae565b8101600981520301902054928251948552840152820152f35b5091903461027b57602091826003193601126103595780359067ffffffffffffffff821161054f57611cca849161234993369101612933565b810160088152030190209281518093808654928381520195835280832092905b828210612381576102658686610636828b03836128be565b835487529586019560019384019390910190612369565b5082346102a8576123a836612b16565b909291946001600160a01b036123c2818754163314612c07565b6123ce87511515612ce2565b84166123db811515612d2d565b6123e76106aa846131d5565b8552602092600184526124038287205495612267871515612c52565b15612637578151848851918181818c019461241f818388612aae565b810160078152030190205415918261260f575b5050156125ce57612443858861354d565b8087526006855286856124a8866001878520956124928961246389612a09565b97600660ff868b51159c0154169883519761247d8961288c565b88528088019587875283525220935184613296565b51151591019060ff801983541691151516179055565b61258f57506124b884878a613709565b6124eb575b50907f2a27f0a20e4df4738f3a8e2449b014d439e7ce0a97ee5860771c25cbafa1cfeb916118798697612fa3565b95848652600a84528186208054906801000000000000000082101561257c579061251a91600182018155612ba7565b61256a57869750816125527f2a27f0a20e4df4738f3a8e2449b014d439e7ce0a97ee5860771c25cbafa1cfeb95949361187993613296565b61255d600b54612e05565b600b5597505090916124bd565b602487808a634e487b7160e01b825252fd5b60248860418b634e487b7160e01b835252fd5b96979395949250505084518186012090845190850120036125b2575b5050505080f35b6125c06125c59483836135e8565b613709565b818080806125ab565b83606492519162461bcd60e51b8352820152601a60248201527f5265636f726420616c726561647920696e697469616c697a65640000000000006044820152fd5b61262492508451809381928c51928391612aae565b8101600881520301902054158489612432565b83606492519162461bcd60e51b8352820152601860248201527f4d75737420626520616e20616374697665206d656d62657200000000000000006044820152fd5b50913461027b57602036600319011261027b5791819235815260066020522061026560ff60016126a784612a09565b93015416925192839283612af6565b5090346102a85760203660031901126102a857602090610d0e6126d7612871565b613164565b5091903461027b57602091826003193601126103595780359067ffffffffffffffff821161054f57611cca849161271593369101612933565b810160078152030190209281518093808654928381520195835280832092905b82821061274d576102658686610636828b03836128be565b835487529586019560019384019390910190612735565b5090346102a857602090610d0e61277a36612951565b90612c9d565b50913461027b57602036600319011261027b5761279b612871565b6001600160a01b03906127b2828654163314612c07565b169081845260016020526127ca838520541515612c52565b818452600160205260ff6001848620015416156127fa575082526001602081905290822001805460ff1916905580f35b606490602084519162461bcd60e51b8352820152601760248201527f57616c6c657420616c726561647920696e6163746976650000000000000000006044820152fd5b9050823461027b57602036600319011261027b576020926001600160a01b03612864612871565b1681526001845220548152f35b600435906001600160a01b038216820361288757565b600080fd5b6040810190811067ffffffffffffffff8211176128a857604052565b634e487b7160e01b600052604160045260246000fd5b90601f8019910116810190811067ffffffffffffffff8211176128a857604052565b67ffffffffffffffff81116128a857601f01601f191660200190565b929192612908826128e0565b9161291660405193846128be565b829481845281830111612887578281602093846000960137010152565b9080601f830112156128875781602061294e933591016128fc565b90565b6040600319820112612887576004359067ffffffffffffffff82116128875761297c91600401612933565b906024356001600160a01b03811681036128875790565b602090602060408183019282815285518094520193019160005b8281106129bb575050505090565b8351855293810193928101926001016129ad565b90600182811c921680156129ff575b60208310146129e957565b634e487b7160e01b600052602260045260246000fd5b91607f16916129de565b90604051918260008254612a1c816129cf565b90818452602094600191600181169081600014612a8c5750600114612a4d575b505050612a4b925003836128be565b565b600090815285812095935091905b818310612a74575050612a4b9350820101388080612a3c565b85548884018501529485019487945091830191612a5b565b92505050612a4b94925060ff191682840152151560051b820101388080612a3c565b60005b838110612ac15750506000910152565b8181015183820152602001612ab1565b90602091612aea81518092818552858086019101612aae565b601f01601f1916010190565b90612b0e602091949394604084526040840190612ad1565b931515910152565b60606003198201126128875767ffffffffffffffff916004358381116128875782612b4391600401612933565b926024356001600160a01b038116810361288757926044359182116128875761294e91600401612933565b906005821015612b7b5752565b634e487b7160e01b600052602160045260246000fd5b6040906003190112612887576004359060243590565b8054821015612bbf5760005260206000200190600090565b634e487b7160e01b600052603260045260246000fd5b6040600319820112612887576004359067ffffffffffffffff821161288757612c0091600401612933565b9060243590565b15612c0e57565b606460405162461bcd60e51b815260206004820152600a60248201527f4f6e6c792061646d696e000000000000000000000000000000000000000000006044820152fd5b15612c5957565b606460405162461bcd60e51b815260206004820152601560248201527f57616c6c6574206e6f74207265676973746572656400000000000000000000006044820152fd5b906001600160a01b031660005260016020526040600020548015612cdb57612cc49161354d565b600052600660205260ff6001604060002001541690565b5050600090565b15612ce957565b606460405162461bcd60e51b815260206004820152601960248201527f5265636f72642049442063616e6e6f7420626520656d707479000000000000006044820152fd5b15612d3457565b606460405162461bcd60e51b815260206004820152601660248201527f496e76616c69642077616c6c65742061646472657373000000000000000000006044820152fd5b15612d7f57565b606460405162461bcd60e51b815260206004820152601360248201527f496e76616c696420726f6c6520737472696e67000000000000000000000000006044820152fd5b805490680100000000000000008210156128a85781612dea916001612e0194018155612ba7565b819391549060031b91821b91600019901b19161790565b9055565b6000198114612e145760010190565b634e487b7160e01b600052601160045260246000fd5b15612e3157565b606460405162461bcd60e51b815260206004820152601d60248201527f57616c6c657420616464726573732063616e6e6f74206265207a65726f0000006044820152fd5b15612e7c57565b606460405162461bcd60e51b815260206004820152601c60248201527f5461726765742077616c6c6574206e6f742072656769737465726564000000006044820152fd5b15612ec757565b608460405162461bcd60e51b815260206004820152602360248201527f54617267657420646f6573206e6f74206861766520616e20616374697665207260448201527f6f6c6500000000000000000000000000000000000000000000000000000000006064820152fd5b60405190612f3e8261288c565b600582527f6f776e65720000000000000000000000000000000000000000000000000000006020830152565b60405190612f778261288c565b600d82527f61646d696e6973747261746f72000000000000000000000000000000000000006020830152565b612fbb90602060405192828480945193849201612aae565b810103902090565b906001600160a01b03166000526001602052604060002054908115612cdb57612ff4612fed612f31565b8383613588565b91821561300057505090565b61294e925061300d612f6a565b91613588565b1561301a57565b606460405162461bcd60e51b815260206004820152601460248201527f4e6f7420616e20616374697665206d656d6265720000000000000000000000006044820152fd5b6040519061306b8261288c565b600682527f76696577657200000000000000000000000000000000000000000000000000006020830152565b91906001600160a01b0316600052600160205260406000205480156130bf5761294e92613588565b505050600090565b9190916001600160a01b036000931683526001602052604083205490811561312a57926130f860409260209561354d565b8152600684522060405161310b8161288c565b60ff600161311884612a09565b93848452015416151593849101529190565b50506040516020810181811067ffffffffffffffff821117613150576040528281529190565b602484634e487b7160e01b81526041600452fd5b6001600160a01b0360009116815260016020526040812080549081159081156131c5575b506131c1578152600260205260ff6040822054169060058210156131ad575060041490565b80634e487b7160e01b602492526021600452fd5b5090565b60ff915060010154161538613188565b602081519101206131e4612f31565b602081519101208114908115613214575b81156131ff575090565b905061320961305e565b602081519101201490565b905061321e612f6a565b602081519101208114906131f5565b6001600160a01b036000911681526001602052604081208054908115908115613286575b506131c1578152600260205260ff6040822054169060058210156131ad57506001811415908161327f575090565b9050151590565b60ff915060010154161538613251565b919091825167ffffffffffffffff81116128a8576132b482546129cf565b601f811161335f575b50602080601f83116001146132fa5750819293946000926132ef575b50508160011b916000199060031b1c1916179055565b0151905038806132d9565b90601f19831695846000526020600020926000905b8882106133475750508360019596971061332e575b505050811b019055565b015160001960f88460031b161c19169055388080613324565b8060018596829496860151815501950193019061330f565b6000836000526020600020601f840160051c8101926020851061339f575b601f0160051c01915b8281106133945750506132bd565b818155600101613386565b909250829061337d565b90916133b5838361354d565b60009281845260209360068552604092838220906133d282612a09565b9061340e60ff6001845115950154169160018851916133f08361288c565b8a83528b830190828252885260068c526124928a8920935184613296565b613514575061341e858885613709565b61346f575b50906134507f2a27f0a20e4df4738f3a8e2449b014d439e7ce0a97ee5860771c25cbafa1cfeb9392612fa3565b936134648251938385948552840190612ad1565b9042908301520390a4565b858152600a855282812080549068010000000000000000821015613500579061349d91600182018155612ba7565b9190916134ed5750816134d67f2a27f0a20e4df4738f3a8e2449b014d439e7ce0a97ee5860771c25cbafa1cfeb95949361345093613296565b6134e1600b54612e05565b600b5591929350613423565b80634e487b7160e01b6024925280600452fd5b602483634e487b7160e01b81526041600452fd5b9750505091939290508451818601209084519085012003613536575b50505050565b6125c06135449483836135e8565b38808080613530565b90613582604080518093602061356c8184019788815193849201612aae565b82019060208201520360208101845201826128be565b51902090565b602092916135959161354d565b6000526006825260406000206040516135ad8161288c565b60ff60016135ba84612a09565b9384845201541615159384910152826135d257505090565b9091506020815191012090602081519101201490565b82516020809401206135f8612f31565b805190850120810361362f57508261362091612a4b9460405193828580945193849201612aae565b810160078152030190206137d1565b613637612f6a565b805190850120810361366e57508261365f91612a4b9460405193828580945193849201612aae565b810160088152030190206137d1565b61367661305e565b8481519101201461368657505050565b826136a191612a4b9460405193828580945193849201612aae565b810160098152030190206137d1565b6001600160a01b0360009116815260016020526040812080549081159081156136f9575b506131c1578152600260205260ff6040822054169060058210156131ad575060031490565b60ff9150600101541615386136d4565b8251602080940120613719612f31565b805190850120810361375057508261374191612a4b9460405193828580945193849201612aae565b81016007815203019020612dc3565b613758612f6a565b805190850120810361378f57508261378091612a4b9460405193828580945193849201612aae565b81016008815203019020612dc3565b61379761305e565b848151910120146137a757505050565b826137c291612a4b9460405193828580945193849201612aae565b81016009815203019020612dc3565b60005b815490818110156135305783916137eb8285612ba7565b959054600396871b1c1461380557509092506001016137d4565b6000199250828101908111612e1457612dea6138246138319286612ba7565b905490871b1c9285612ba7565b905581548015613856578101926138488484612ba7565b81939154921b1b1916905555565b634e487b7160e01b600052603160045260246000fd5b906138ab575080511561388157805190602001fd5b60046040517f1425ea42000000000000000000000000000000000000000000000000000000008152fd5b815115806138f6575b6138bc575090565b6024906001600160a01b03604051917f9996b315000000000000000000000000000000000000000000000000000000008352166004820152fd5b50803b156138b456fea264697066735822122098602cbf63996c5a26b3e8831a6852a152a9e1a5a0bb5b6e611d0e325dcaf11964736f6c63430008170033","opcodes":"PUSH1 0xA0 DUP1 PUSH1 0x40 MSTORE CALLVALUE PUSH3 0xD1 JUMPI ADDRESS PUSH1 0x80 MSTORE PUSH32 0xF0C57E16840DF040F15088DC2F81FE391C3923BEC73E23A9662EFC9C229C6A00 SWAP1 DUP2 SLOAD SWAP1 PUSH1 0xFF DUP3 PUSH1 0x40 SHR AND PUSH3 0xC2 JUMPI POP PUSH1 0x1 PUSH1 0x1 PUSH1 0x40 SHL SUB PUSH1 0x2 PUSH1 0x1 PUSH1 0x40 SHL SUB NOT DUP3 DUP3 AND ADD PUSH3 0x7C JUMPI JUMPDEST PUSH1 0x40 MLOAD PUSH2 0x3935 SWAP1 DUP2 PUSH3 0xD7 DUP3 CODECOPY PUSH1 0x80 MLOAD DUP2 DUP2 DUP2 PUSH2 0x1C35 ADD MSTORE PUSH2 0x1D7D ADD MSTORE RETURN JUMPDEST PUSH1 0x1 PUSH1 0x1 PUSH1 0x40 SHL SUB NOT SWAP1 SWAP2 AND DUP2 OR SWAP1 SWAP2 SSTORE PUSH1 0x40 MLOAD SWAP1 DUP2 MSTORE PUSH32 0xC7F505B2F371AE2175EE4913F4499E1F2633A7B5936321EED1CDAEB6115181D2 SWAP1 PUSH1 0x20 SWAP1 LOG1 CODESIZE DUP1 DUP1 PUSH3 0x5C JUMP JUMPDEST PUSH4 0xF92EE8A9 PUSH1 0xE0 SHL DUP2 MSTORE PUSH1 0x4 SWAP1 REVERT JUMPDEST PUSH1 0x0 DUP1 REVERT INVALID PUSH1 0x80 PUSH1 0x40 DUP2 DUP2 MSTORE PUSH1 0x4 SWAP2 DUP3 CALLDATASIZE LT ISZERO PUSH2 0x16 JUMPI PUSH1 0x0 DUP1 REVERT JUMPDEST PUSH1 0x0 SWAP1 DUP2 CALLDATALOAD PUSH1 0xE0 SHR SWAP1 DUP2 PUSH3 0xB0C809 EQ PUSH2 0x283D JUMPI POP DUP1 PUSH4 0xB3FFD1D EQ PUSH2 0x2780 JUMPI DUP1 PUSH4 0x1435B558 EQ PUSH2 0x2764 JUMPI DUP1 PUSH4 0x1A95ACA5 EQ PUSH2 0x26DC JUMPI DUP1 PUSH4 0x259ED80E EQ PUSH2 0x26B6 JUMPI DUP1 PUSH4 0x33105592 EQ PUSH2 0x2678 JUMPI DUP1 PUSH4 0x3575C391 EQ PUSH2 0x2398 JUMPI DUP1 PUSH4 0x3DD1E8FC EQ PUSH2 0x2310 JUMPI DUP1 PUSH4 0x41D8BDE3 EQ PUSH2 0x226C JUMPI DUP1 PUSH4 0x45ECD02F EQ PUSH2 0x2246 JUMPI DUP1 PUSH4 0x49DF7208 EQ PUSH2 0x1FC8 JUMPI DUP1 PUSH4 0x4B6FEB7C EQ PUSH2 0x1681 JUMPI DUP1 PUSH4 0x4F1EF286 EQ PUSH2 0x1D2B JUMPI DUP1 PUSH4 0x510B3003 EQ PUSH2 0x1C91 JUMPI DUP1 PUSH4 0x52D1902D EQ PUSH2 0x1C19 JUMPI DUP1 PUSH4 0x6544B05B EQ PUSH2 0x1B29 JUMPI DUP1 PUSH4 0x6B4BED97 EQ PUSH2 0x2AC JUMPI DUP1 PUSH4 0x731F21A0 EQ PUSH2 0x176A JUMPI DUP1 PUSH4 0x75829DEF EQ PUSH2 0x16A0 JUMPI DUP1 PUSH4 0x790E118C EQ PUSH2 0x1681 JUMPI DUP1 PUSH4 0x8129FC1C EQ PUSH2 0x1503 JUMPI DUP1 PUSH4 0x89B08F11 EQ PUSH2 0x14BD JUMPI DUP1 PUSH4 0x9443CD80 EQ PUSH2 0x1473 JUMPI DUP1 PUSH4 0x96207E02 EQ PUSH2 0x12F7 JUMPI DUP1 PUSH4 0x970EE5B9 EQ PUSH2 0x12C0 JUMPI DUP1 PUSH4 0x9BE572F6 EQ PUSH2 0xD33 JUMPI DUP1 PUSH4 0x9F4216E8 EQ PUSH2 0x1273 JUMPI DUP1 PUSH4 0xA0CA13C3 EQ PUSH2 0x1257 JUMPI DUP1 PUSH4 0xAD3CB1CC EQ PUSH2 0x11FA JUMPI DUP1 PUSH4 0xB55AEFCC EQ PUSH2 0x11C3 JUMPI DUP1 PUSH4 0xBB0F86D5 EQ PUSH2 0x1106 JUMPI DUP1 PUSH4 0xBB20B172 EQ PUSH2 0xD52 JUMPI DUP1 PUSH4 0xBFF1F9E1 EQ PUSH2 0xD33 JUMPI DUP1 PUSH4 0xCABDD23F EQ PUSH2 0xD17 JUMPI DUP1 PUSH4 0xCB261A03 EQ PUSH2 0xCE8 JUMPI DUP1 PUSH4 0xD12A7768 EQ PUSH2 0xC37 JUMPI DUP1 PUSH4 0xDAA9DC23 EQ PUSH2 0x657 JUMPI DUP1 PUSH4 0xE2842D79 EQ PUSH2 0x5D6 JUMPI DUP1 PUSH4 0xE965BFB7 EQ PUSH2 0x57D JUMPI DUP1 PUSH4 0xEB2BBF25 EQ PUSH2 0x553 JUMPI DUP1 PUSH4 0xED8D7B37 EQ PUSH2 0x35D JUMPI DUP1 PUSH4 0xEE4E5828 EQ PUSH2 0x2DE JUMPI DUP1 PUSH4 0xF29E007B EQ PUSH2 0x2AC JUMPI DUP1 PUSH4 0xF851A440 EQ PUSH2 0x282 JUMPI PUSH4 0xFA7A6BCC EQ PUSH2 0x212 JUMPI PUSH1 0x0 DUP1 REVERT JUMPDEST CALLVALUE PUSH2 0x27F JUMPI PUSH2 0x220 CALLDATASIZE PUSH2 0x2B91 JUMP JUMPDEST SWAP1 DUP3 MSTORE PUSH1 0xA PUSH1 0x20 MSTORE DUP3 DUP3 KECCAK256 DUP1 SLOAD DUP3 LT ISZERO PUSH2 0x27B JUMPI SWAP1 PUSH2 0x23E SWAP2 PUSH2 0x2BA7 JUMP JUMPDEST SWAP4 SWAP1 SWAP4 PUSH2 0x269 JUMPI PUSH2 0x265 DUP4 PUSH2 0x252 DUP7 PUSH2 0x2A09 JUMP JUMPDEST SWAP1 MLOAD SWAP2 DUP3 SWAP2 PUSH1 0x20 DUP4 MSTORE PUSH1 0x20 DUP4 ADD SWAP1 PUSH2 0x2AD1 JUMP JUMPDEST SUB SWAP1 RETURN JUMPDEST SWAP1 DUP1 PUSH1 0x24 SWAP3 PUSH4 0x4E487B71 PUSH1 0xE0 SHL DUP3 MSTORE MSTORE REVERT JUMPDEST DUP3 DUP1 REVERT JUMPDEST DUP1 REVERT JUMPDEST POP SWAP1 CALLVALUE PUSH2 0x2A8 JUMPI DUP2 PUSH1 0x3 NOT CALLDATASIZE ADD SLT PUSH2 0x2A8 JUMPI PUSH1 0x1 PUSH1 0x1 PUSH1 0xA0 SHL SUB PUSH1 0x20 SWAP3 SLOAD AND SWAP1 MLOAD SWAP1 DUP2 MSTORE RETURN JUMPDEST POP DUP1 REVERT JUMPDEST POP SWAP2 CALLVALUE PUSH2 0x27B JUMPI PUSH1 0x20 CALLDATASIZE PUSH1 0x3 NOT ADD SLT PUSH2 0x27B JUMPI PUSH1 0xFF DUP3 PUSH1 0x20 SWAP5 PUSH2 0x2DC SWAP4 CALLDATALOAD DUP2 MSTORE PUSH1 0x2 DUP7 MSTORE KECCAK256 SLOAD AND SWAP2 MLOAD DUP1 SWAP3 PUSH2 0x2B6E JUMP JUMPDEST RETURN JUMPDEST POP SWAP2 CALLVALUE PUSH2 0x27B JUMPI DUP2 PUSH1 0x3 NOT CALLDATASIZE ADD SLT PUSH2 0x27B JUMPI DUP1 CALLDATALOAD PUSH8 0xFFFFFFFFFFFFFFFF DUP2 GT PUSH2 0x359 JUMPI PUSH1 0x20 SWAP4 PUSH2 0x321 PUSH2 0x318 PUSH2 0x265 SWAP5 DUP7 SWAP5 CALLDATASIZE SWAP2 ADD PUSH2 0x2933 JUMP JUMPDEST PUSH1 0x24 CALLDATALOAD SWAP1 PUSH2 0x354D JUMP JUMPDEST DUP2 MSTORE PUSH1 0x6 DUP6 MSTORE KECCAK256 SWAP2 DUP1 MLOAD PUSH2 0x334 DUP2 PUSH2 0x288C JUMP JUMPDEST PUSH1 0xFF PUSH1 0x1 PUSH2 0x341 DUP7 PUSH2 0x2A09 JUMP JUMPDEST SWAP6 DUP7 DUP5 MSTORE ADD SLOAD AND ISZERO ISZERO SWAP5 DUP6 SWAP2 ADD MSTORE MLOAD SWAP3 DUP4 SWAP3 DUP4 PUSH2 0x2AF6 JUMP JUMPDEST DUP4 DUP1 REVERT JUMPDEST POP SWAP2 SWAP1 CALLVALUE PUSH2 0x27B JUMPI PUSH1 0x20 DUP1 PUSH1 0x3 NOT CALLDATASIZE ADD SLT PUSH2 0x359 JUMPI DUP3 CALLDATALOAD PUSH8 0xFFFFFFFFFFFFFFFF DUP2 GT PUSH2 0x54F JUMPI PUSH2 0x390 SWAP1 CALLDATASIZE SWAP1 DUP6 ADD PUSH2 0x2933 JUMP JUMPDEST PUSH2 0x39C DUP2 MLOAD ISZERO ISZERO PUSH2 0x2CE2 JUMP JUMPDEST CALLER DUP6 MSTORE PUSH1 0x1 DUP3 MSTORE DUP3 DUP6 KECCAK256 SLOAD SWAP4 PUSH2 0x3BA PUSH2 0x3B3 PUSH2 0x2F31 JUMP JUMPDEST DUP7 DUP5 PUSH2 0x3588 JUMP JUMPDEST ISZERO PUSH2 0x4E7 JUMPI DUP4 MLOAD PUSH2 0x3F8 DUP5 PUSH1 0x1 DUP6 MLOAD SWAP4 DUP3 DUP2 DUP2 DUP10 ADD SWAP7 PUSH2 0x3DB DUP2 DUP4 DUP11 PUSH2 0x2AAE JUMP JUMPDEST DUP2 ADD PUSH1 0x7 DUP2 MSTORE SUB ADD SWAP1 KECCAK256 SLOAD GT SWAP3 DUP8 MLOAD DUP1 SWAP4 DUP2 SWAP3 DUP9 MLOAD SWAP3 DUP4 SWAP2 PUSH2 0x2AAE JUMP JUMPDEST DUP2 ADD PUSH1 0x8 DUP2 MSTORE SUB ADD SWAP1 KECCAK256 SLOAD ISZERO ISZERO DUP2 ISZERO PUSH2 0x4DF JUMPI JUMPDEST POP ISZERO PUSH2 0x477 JUMPI POP SWAP1 PUSH2 0x46E DUP3 PUSH2 0x443 DUP7 PUSH32 0x3BB3693064733B9A7D6D41BEE69F302FCBEFBE827EA4011400530C9BA9CB49C3 SWAP6 PUSH2 0x354D JUMP JUMPDEST PUSH2 0x455 PUSH2 0x44E PUSH2 0x2F31 JUMP JUMPDEST DUP9 DUP5 PUSH2 0x35E8 JUMP JUMPDEST DUP8 MSTORE PUSH1 0x6 DUP4 MSTORE DUP5 DUP8 KECCAK256 PUSH1 0x1 ADD DUP1 SLOAD PUSH1 0xFF NOT AND SWAP1 SSTORE PUSH2 0x2FA3 JUMP JUMPDEST SWAP3 MLOAD TIMESTAMP DUP2 MSTORE LOG3 DUP1 RETURN JUMPDEST PUSH1 0x84 SWAP1 DUP4 DUP6 MLOAD SWAP2 PUSH3 0x461BCD PUSH1 0xE5 SHL DUP4 MSTORE DUP3 ADD MSTORE PUSH1 0x31 PUSH1 0x24 DUP3 ADD MSTORE PUSH32 0x43616E6E6F74206C65617665206173206C617374206F776E6572207769746820 PUSH1 0x44 DUP3 ADD MSTORE PUSH32 0x6E6F2061646D696E6973747261746F7273000000000000000000000000000000 PUSH1 0x64 DUP3 ADD MSTORE REVERT JUMPDEST SWAP1 POP CODESIZE PUSH2 0x40C JUMP JUMPDEST PUSH1 0x84 SWAP1 DUP4 DUP6 MLOAD SWAP2 PUSH3 0x461BCD PUSH1 0xE5 SHL DUP4 MSTORE DUP3 ADD MSTORE PUSH1 0x23 PUSH1 0x24 DUP3 ADD MSTORE PUSH32 0x596F7520617265206E6F7420616E206F776E6572206F66207468697320726563 PUSH1 0x44 DUP3 ADD MSTORE PUSH32 0x6F72640000000000000000000000000000000000000000000000000000000000 PUSH1 0x64 DUP3 ADD MSTORE REVERT JUMPDEST DUP5 DUP1 REVERT JUMPDEST POP SWAP1 CALLVALUE PUSH2 0x2A8 JUMPI PUSH2 0x265 SWAP1 PUSH2 0x570 PUSH2 0x56A CALLDATASIZE PUSH2 0x2951 JUMP JUMPDEST SWAP1 PUSH2 0x30C7 JUMP JUMPDEST SWAP3 SWAP1 SWAP2 MLOAD SWAP3 DUP4 SWAP3 DUP4 PUSH2 0x2AF6 JUMP JUMPDEST POP SWAP1 CALLVALUE PUSH2 0x2A8 JUMPI PUSH1 0x20 SWAP2 PUSH2 0x5A7 PUSH2 0x593 CALLDATASIZE PUSH2 0x2BD5 JUMP JUMPDEST SWAP5 SWAP1 DUP2 DUP6 MLOAD SWAP4 DUP3 DUP6 DUP1 SWAP5 MLOAD SWAP4 DUP5 SWAP3 ADD PUSH2 0x2AAE JUMP JUMPDEST DUP2 ADD PUSH1 0x8 DUP2 MSTORE SUB ADD SWAP1 KECCAK256 SWAP1 DUP2 SLOAD DUP5 LT ISZERO PUSH2 0x27F JUMPI POP PUSH1 0x20 SWAP3 PUSH2 0x5C8 SWAP2 PUSH2 0x2BA7 JUMP JUMPDEST SWAP2 SWAP1 SLOAD SWAP1 MLOAD SWAP2 PUSH1 0x3 SHL SHR DUP2 MSTORE RETURN JUMPDEST POP SWAP1 CALLVALUE PUSH2 0x2A8 JUMPI DUP2 PUSH1 0x3 NOT CALLDATASIZE ADD SLT PUSH2 0x2A8 JUMPI DUP1 MLOAD SWAP2 DUP3 DUP5 SLOAD SWAP1 DUP2 DUP2 MSTORE PUSH1 0x20 DUP1 SWAP2 ADD SWAP6 DUP4 MSTORE PUSH32 0x8A35ACFBC15FF81A39AE7D344FD709F28E8600B4AA8C65C6B64BFE7FE36BD19B SWAP3 SWAP1 JUMPDEST DUP3 DUP3 LT PUSH2 0x640 JUMPI PUSH2 0x265 DUP7 DUP7 PUSH2 0x636 DUP3 DUP12 SUB DUP4 PUSH2 0x28BE JUMP JUMPDEST MLOAD SWAP2 DUP3 SWAP2 DUP3 PUSH2 0x2993 JUMP JUMPDEST DUP4 SLOAD DUP8 MSTORE SWAP6 DUP7 ADD SWAP6 PUSH1 0x1 SWAP4 DUP5 ADD SWAP4 SWAP1 SWAP2 ADD SWAP1 PUSH2 0x61E JUMP JUMPDEST POP SWAP2 CALLVALUE PUSH2 0x27B JUMPI PUSH1 0x1 PUSH1 0x1 PUSH1 0xA0 SHL SUB SWAP1 PUSH2 0x670 CALLDATASIZE PUSH2 0x2B16 JUMP JUMPDEST SWAP3 SWAP2 SWAP4 SWAP1 PUSH2 0x685 PUSH2 0x680 CALLER PUSH2 0x322D JUMP JUMPDEST PUSH2 0x3013 JUMP JUMPDEST PUSH2 0x691 DUP6 MLOAD ISZERO ISZERO PUSH2 0x2CE2 JUMP JUMPDEST AND SWAP4 PUSH2 0x69E DUP6 ISZERO ISZERO PUSH2 0x2E2A JUMP JUMPDEST PUSH2 0x6AF PUSH2 0x6AA DUP5 PUSH2 0x31D5 JUMP JUMPDEST PUSH2 0x2D78 JUMP JUMPDEST CALLER DUP7 MSTORE PUSH1 0x20 PUSH1 0x1 DUP2 MSTORE DUP2 DUP8 KECCAK256 SLOAD SWAP6 DUP8 MSTORE DUP2 DUP8 KECCAK256 SLOAD SWAP5 PUSH2 0x6CF DUP7 ISZERO ISZERO PUSH2 0x2E75 JUMP JUMPDEST DUP5 MLOAD DUP3 DUP7 ADD KECCAK256 SWAP4 PUSH2 0x6E0 DUP8 DUP4 PUSH2 0x354D JUMP JUMPDEST DUP1 DUP11 MSTORE PUSH1 0x6 DUP5 MSTORE PUSH2 0x6F9 PUSH1 0xFF PUSH1 0x1 DUP8 DUP14 KECCAK256 ADD SLOAD AND PUSH2 0x2EC0 JUMP JUMPDEST DUP10 MSTORE PUSH1 0x6 DUP4 MSTORE PUSH2 0x70A DUP5 DUP11 KECCAK256 PUSH2 0x2A09 JUMP JUMPDEST SWAP5 DUP6 MLOAD DUP5 DUP8 ADD KECCAK256 DUP2 DUP2 EQ PUSH2 0xBF5 JUMPI PUSH2 0x720 PUSH2 0x2F31 JUMP JUMPDEST DUP6 DUP2 MLOAD SWAP2 ADD KECCAK256 DUP2 EQ PUSH2 0xB67 JUMPI DUP6 MLOAD SWAP2 DUP5 MLOAD SWAP3 DUP7 DUP2 DUP2 DUP9 ADD SWAP6 PUSH2 0x743 DUP2 DUP4 DUP10 PUSH2 0x2AAE JUMP JUMPDEST DUP2 ADD PUSH1 0x7 DUP2 MSTORE SUB ADD SWAP1 KECCAK256 SLOAD ISZERO SWAP2 DUP12 DUP4 ISZERO PUSH2 0x778 PUSH2 0x768 PUSH2 0x761 PUSH2 0x2F31 JUMP JUMPDEST DUP5 DUP12 PUSH2 0x3588 JUMP JUMPDEST SWAP3 PUSH2 0x771 PUSH2 0x2F6A JUMP JUMPDEST SWAP1 DUP11 PUSH2 0x3588 JUMP JUMPDEST SWAP1 PUSH2 0x781 PUSH2 0x2F31 JUMP JUMPDEST DUP1 MLOAD SWAP1 DUP12 ADD KECCAK256 DUP6 SUB PUSH2 0x98B JUMPI ISZERO PUSH2 0x91D JUMPI POP ISZERO PUSH2 0x8DC JUMPI JUMPDEST PUSH2 0x7A1 PUSH2 0x2F6A JUMP JUMPDEST DUP8 DUP2 MLOAD SWAP2 ADD KECCAK256 EQ SWAP1 DUP2 PUSH2 0x8C5 JUMPI JUMPDEST POP PUSH2 0x824 JUMPI JUMPDEST POP POP POP SWAP2 PUSH2 0x818 PUSH32 0xEA2C9EBE68919DDF880B3221D8D508D908163D0973E8B79DF108F5D110D0C633 SWAP5 SWAP3 PUSH2 0x7F7 DUP6 PUSH2 0x7F2 DUP12 DUP11 DUP13 PUSH2 0x80B SWAP11 PUSH2 0x33A9 JUMP JUMPDEST PUSH2 0x2FA3 JUMP JUMPDEST SWAP7 DUP4 MLOAD SWAP6 DUP7 SWAP6 PUSH1 0x60 DUP8 MSTORE PUSH1 0x60 DUP8 ADD SWAP1 PUSH2 0x2AD1 JUMP JUMPDEST SWAP2 DUP6 DUP4 SUB SWAP1 DUP7 ADD MSTORE PUSH2 0x2AD1 JUMP JUMPDEST SWAP1 TIMESTAMP SWAP1 DUP4 ADD MSTORE SUB SWAP1 LOG4 DUP1 RETURN JUMPDEST PUSH2 0x82F JUMPI JUMPDEST DUP1 PUSH2 0x7B5 JUMP JUMPDEST PUSH2 0x846 DUP5 PUSH1 0x1 SWAP3 DUP8 MLOAD DUP1 SWAP4 DUP2 SWAP3 DUP9 MLOAD SWAP3 DUP4 SWAP2 PUSH2 0x2AAE JUMP JUMPDEST DUP2 ADD PUSH1 0x8 DUP2 MSTORE SUB ADD SWAP1 KECCAK256 SLOAD GT ISZERO PUSH2 0x85D JUMPI DUP1 PUSH2 0x829 JUMP JUMPDEST PUSH1 0x84 SWAP1 DUP4 DUP6 MLOAD SWAP2 PUSH3 0x461BCD PUSH1 0xE5 SHL DUP4 MSTORE DUP3 ADD MSTORE PUSH1 0x39 PUSH1 0x24 DUP3 ADD MSTORE PUSH32 0x43616E6E6F742064656D6F746520746865206C6173742061646D696E69737472 PUSH1 0x44 DUP3 ADD MSTORE PUSH32 0x61746F72207768656E206E6F206F776E65722065786973747300000000000000 PUSH1 0x64 DUP3 ADD MSTORE REVERT JUMPDEST SWAP1 POP PUSH2 0x8CF PUSH2 0x305E JUMP JUMPDEST DUP7 DUP2 MLOAD SWAP2 ADD KECCAK256 EQ CODESIZE PUSH2 0x7AF JUMP JUMPDEST PUSH1 0x64 DUP6 DUP9 DUP1 DUP12 MLOAD SWAP3 PUSH3 0x461BCD PUSH1 0xE5 SHL DUP5 MSTORE DUP4 ADD MSTORE PUSH1 0x24 DUP3 ADD MSTORE PUSH32 0x4F6E6C79206F776E6572732063616E2070726F6D6F746520746F206F776E6572 PUSH1 0x44 DUP3 ADD MSTORE REVERT JUMPDEST SWAP1 POP PUSH2 0x799 JUMPI PUSH1 0x84 DUP6 DUP9 DUP11 MLOAD SWAP2 PUSH3 0x461BCD PUSH1 0xE5 SHL DUP4 MSTORE DUP3 ADD MSTORE PUSH1 0x2B PUSH1 0x24 DUP3 ADD MSTORE PUSH32 0x4F6E6C792061646D696E6973747261746F72732063616E2070726F6D6F746520 PUSH1 0x44 DUP3 ADD MSTORE PUSH32 0x6669727374206F776E6572000000000000000000000000000000000000000000 PUSH1 0x64 DUP3 ADD MSTORE REVERT JUMPDEST PUSH2 0x993 PUSH2 0x2F6A JUMP JUMPDEST DUP1 MLOAD SWAP1 DUP12 ADD KECCAK256 DUP6 SUB PUSH2 0xA1C JUMPI POP DUP2 ISZERO PUSH2 0xA14 JUMPI JUMPDEST POP PUSH2 0x799 JUMPI PUSH1 0x84 DUP6 DUP9 DUP11 MLOAD SWAP2 PUSH3 0x461BCD PUSH1 0xE5 SHL DUP4 MSTORE DUP3 ADD MSTORE PUSH1 0x3B PUSH1 0x24 DUP3 ADD MSTORE PUSH32 0x4F6E6C79206F776E65727320616E642061646D696E6973747261746F72732063 PUSH1 0x44 DUP3 ADD MSTORE PUSH32 0x616E2070726F6D6F746520746F2061646D696E6973747261746F720000000000 PUSH1 0x64 DUP3 ADD MSTORE REVERT JUMPDEST SWAP1 POP CODESIZE PUSH2 0x9A7 JUMP JUMPDEST PUSH2 0xA24 PUSH2 0x305E JUMP JUMPDEST DUP11 DUP2 MLOAD SWAP2 ADD KECCAK256 DUP6 EQ PUSH2 0xA39 JUMPI JUMPDEST POP POP POP PUSH2 0x799 JUMP JUMPDEST ISZERO PUSH2 0xAF9 JUMPI DUP2 ISZERO PUSH2 0xAE2 JUMPI JUMPDEST POP ISZERO PUSH2 0xA54 JUMPI JUMPDEST CODESIZE DUP1 DUP1 PUSH2 0xA31 JUMP JUMPDEST PUSH1 0xA4 DUP6 DUP9 DUP11 MLOAD SWAP2 PUSH3 0x461BCD PUSH1 0xE5 SHL DUP4 MSTORE DUP3 ADD MSTORE PUSH1 0x49 PUSH1 0x24 DUP3 ADD MSTORE PUSH32 0x4F6E6C79206F776E6572732063616E2064656D6F7465206F74686572732E2041 PUSH1 0x44 DUP3 ADD MSTORE PUSH32 0x646D696E6973747261746F72732063616E206F6E6C792064656D6F7465207468 PUSH1 0x64 DUP3 ADD MSTORE PUSH32 0x656D73656C7665732E0000000000000000000000000000000000000000000000 PUSH1 0x84 DUP3 ADD MSTORE REVERT JUMPDEST SWAP1 POP DUP1 PUSH2 0xAF0 JUMPI JUMPDEST CODESIZE PUSH2 0xA45 JUMP JUMPDEST POP DUP11 DUP13 EQ PUSH2 0xAEA JUMP JUMPDEST SWAP1 POP PUSH2 0xA4C JUMPI PUSH1 0x84 DUP6 DUP9 DUP11 MLOAD SWAP2 PUSH3 0x461BCD PUSH1 0xE5 SHL DUP4 MSTORE DUP3 ADD MSTORE PUSH1 0x28 PUSH1 0x24 DUP3 ADD MSTORE PUSH32 0x4F6E6C792061646D696E6973747261746F72732063616E2064656D6F74652074 PUSH1 0x44 DUP3 ADD MSTORE PUSH32 0x6F20766965776572000000000000000000000000000000000000000000000000 PUSH1 0x64 DUP3 ADD MSTORE REVERT JUMPDEST PUSH1 0xA4 DUP4 DUP7 DUP9 MLOAD SWAP2 PUSH3 0x461BCD PUSH1 0xE5 SHL DUP4 MSTORE DUP3 ADD MSTORE PUSH1 0x43 PUSH1 0x24 DUP3 ADD MSTORE PUSH32 0x4F776E6572732063616E6E6F742062652064656D6F7465642E204F776E657220 PUSH1 0x44 DUP3 ADD MSTORE PUSH32 0x6D75737420766F6C756E746172696C792072656D6F7665207468656D73656C76 PUSH1 0x64 DUP3 ADD MSTORE PUSH32 0x65732E0000000000000000000000000000000000000000000000000000000000 PUSH1 0x84 DUP3 ADD MSTORE REVERT JUMPDEST PUSH1 0x64 DUP4 DUP7 DUP9 MLOAD SWAP2 PUSH3 0x461BCD PUSH1 0xE5 SHL DUP4 MSTORE DUP3 ADD MSTORE PUSH1 0x1C PUSH1 0x24 DUP3 ADD MSTORE PUSH32 0x54617267657420616C726561647920686173207468697320726F6C6500000000 PUSH1 0x44 DUP3 ADD MSTORE REVERT JUMPDEST POP DUP3 SWAP1 CALLVALUE PUSH2 0x27F JUMPI PUSH1 0x20 SWAP2 DUP3 PUSH1 0x3 NOT CALLDATASIZE ADD SLT PUSH2 0x2A8 JUMPI SWAP3 SWAP2 SWAP3 CALLDATALOAD DUP2 MSTORE PUSH1 0x3 DUP4 MSTORE DUP2 DUP2 KECCAK256 SWAP1 DUP3 MLOAD DUP1 DUP6 DUP5 SLOAD SWAP2 DUP3 DUP2 MSTORE ADD SWAP1 DUP2 SWAP5 DUP5 MSTORE DUP7 DUP5 KECCAK256 SWAP1 DUP5 JUMPDEST DUP2 DUP2 LT PUSH2 0xCCB JUMPI POP POP POP DUP2 PUSH2 0xC87 SWAP2 SUB DUP3 PUSH2 0x28BE JUMP JUMPDEST DUP4 MLOAD SWAP5 DUP6 SWAP5 DUP2 DUP7 ADD SWAP3 DUP3 DUP8 MSTORE MLOAD DUP1 SWAP4 MSTORE DUP6 ADD SWAP4 SWAP3 JUMPDEST DUP3 DUP2 LT PUSH2 0xCAB JUMPI POP POP POP POP SUB SWAP1 RETURN JUMPDEST DUP4 MLOAD PUSH1 0x1 PUSH1 0x1 PUSH1 0xA0 SHL SUB AND DUP6 MSTORE DUP7 SWAP6 POP SWAP4 DUP2 ADD SWAP4 SWAP3 DUP2 ADD SWAP3 PUSH1 0x1 ADD PUSH2 0xC9C JUMP JUMPDEST DUP3 SLOAD PUSH1 0x1 PUSH1 0x1 PUSH1 0xA0 SHL SUB AND DUP5 MSTORE SWAP3 DUP9 ADD SWAP3 PUSH1 0x1 SWAP3 DUP4 ADD SWAP3 ADD PUSH2 0xC71 JUMP JUMPDEST POP SWAP1 CALLVALUE PUSH2 0x2A8 JUMPI PUSH1 0x20 CALLDATASIZE PUSH1 0x3 NOT ADD SLT PUSH2 0x2A8 JUMPI PUSH1 0x20 SWAP1 PUSH2 0xD0E PUSH2 0xD09 PUSH2 0x2871 JUMP JUMPDEST PUSH2 0x36B0 JUMP JUMPDEST SWAP1 MLOAD SWAP1 ISZERO ISZERO DUP2 MSTORE RETURN JUMPDEST POP SWAP1 CALLVALUE PUSH2 0x2A8 JUMPI PUSH1 0x20 SWAP1 PUSH2 0xD0E PUSH2 0xD2D CALLDATASIZE PUSH2 0x2B16 JUMP JUMPDEST SWAP2 PUSH2 0x3097 JUMP JUMPDEST POP SWAP1 CALLVALUE PUSH2 0x2A8 JUMPI DUP2 PUSH1 0x3 NOT CALLDATASIZE ADD SLT PUSH2 0x2A8 JUMPI PUSH1 0x20 SWAP1 PUSH1 0x5 SLOAD SWAP1 MLOAD SWAP1 DUP2 MSTORE RETURN JUMPDEST POP DUP3 CALLVALUE PUSH2 0x2A8 JUMPI PUSH1 0x1 PUSH1 0x1 PUSH1 0xA0 SHL SUB SWAP1 PUSH2 0xD6B CALLDATASIZE PUSH2 0x2B16 JUMP JUMPDEST SWAP3 SWAP2 SWAP4 SWAP1 PUSH2 0xD7B PUSH2 0x680 CALLER PUSH2 0x322D JUMP JUMPDEST PUSH2 0xD87 DUP6 MLOAD ISZERO ISZERO PUSH2 0x2CE2 JUMP JUMPDEST AND SWAP3 PUSH2 0xD94 DUP5 ISZERO ISZERO PUSH2 0x2E2A JUMP JUMPDEST PUSH2 0xDA0 PUSH2 0x6AA DUP5 PUSH2 0x31D5 JUMP JUMPDEST CALLER DUP6 MSTORE PUSH1 0x20 SWAP2 PUSH1 0x1 DUP4 MSTORE DUP7 DUP7 KECCAK256 SLOAD SWAP5 DUP7 MSTORE DUP7 DUP7 KECCAK256 SLOAD SWAP3 PUSH2 0xDC1 DUP5 ISZERO ISZERO PUSH2 0x2E75 JUMP JUMPDEST DUP5 MLOAD DUP2 DUP7 ADD KECCAK256 PUSH2 0xDD1 DUP8 DUP6 PUSH2 0x354D JUMP JUMPDEST DUP9 MSTORE PUSH1 0x6 DUP3 MSTORE PUSH1 0xFF PUSH1 0x1 DUP11 DUP11 KECCAK256 ADD SLOAD AND ISZERO PUSH2 0x10C5 JUMPI DUP9 MLOAD DUP3 DUP2 DUP7 MLOAD PUSH2 0xDF9 DUP2 DUP4 DUP6 DUP12 ADD PUSH2 0x2AAE JUMP JUMPDEST DUP2 ADD PUSH1 0x7 DUP2 MSTORE SUB ADD SWAP1 KECCAK256 SLOAD ISZERO ISZERO SWAP1 PUSH2 0xE19 PUSH2 0xE12 PUSH2 0x2F31 JUMP JUMPDEST DUP10 DUP8 PUSH2 0x3588 JUMP JUMPDEST SWAP2 PUSH2 0xE2C PUSH2 0xE25 PUSH2 0x2F6A JUMP JUMPDEST DUP11 DUP9 PUSH2 0x3588 JUMP JUMPDEST SWAP2 PUSH2 0xE35 PUSH2 0x2F31 JUMP JUMPDEST DUP1 MLOAD SWAP1 DUP7 ADD KECCAK256 DUP2 SUB PUSH2 0xF93 JUMPI POP ISZERO PUSH2 0xF25 JUMPI POP ISZERO PUSH2 0xEE4 JUMPI JUMPDEST PUSH2 0xE58 DUP5 DUP5 PUSH2 0x354D JUMP JUMPDEST DUP8 MSTORE PUSH1 0x6 DUP2 MSTORE PUSH1 0xFF PUSH1 0x1 DUP10 DUP10 KECCAK256 ADD SLOAD AND PUSH2 0xE7C JUMPI POP POP PUSH2 0xE79 SWAP5 SWAP6 POP PUSH2 0x33A9 JUMP JUMPDEST DUP1 RETURN JUMPDEST PUSH1 0x84 SWAP3 POP DUP8 MLOAD SWAP2 PUSH3 0x461BCD PUSH1 0xE5 SHL DUP4 MSTORE DUP3 ADD MSTORE PUSH1 0x33 PUSH1 0x24 DUP3 ADD MSTORE PUSH32 0x54617267657420616C726561647920686173206120726F6C652E205573652063 PUSH1 0x44 DUP3 ADD MSTORE PUSH32 0x68616E6765526F6C65282920696E737465616400000000000000000000000000 PUSH1 0x64 DUP3 ADD MSTORE REVERT JUMPDEST PUSH1 0x64 SWAP3 POP DUP1 DUP9 MLOAD SWAP3 PUSH3 0x461BCD PUSH1 0xE5 SHL DUP5 MSTORE DUP4 ADD MSTORE PUSH1 0x24 DUP3 ADD MSTORE PUSH32 0x4F6E6C79206F776E6572732063616E206772616E74206F776E657220726F6C65 PUSH1 0x44 DUP3 ADD MSTORE REVERT JUMPDEST SWAP1 POP PUSH2 0xE4E JUMPI PUSH1 0x84 SWAP3 POP DUP8 MLOAD SWAP2 PUSH3 0x461BCD PUSH1 0xE5 SHL DUP4 MSTORE DUP3 ADD MSTORE PUSH1 0x29 PUSH1 0x24 DUP3 ADD MSTORE PUSH32 0x4F6E6C792061646D696E6973747261746F72732063616E206772616E74206669 PUSH1 0x44 DUP3 ADD MSTORE PUSH32 0x727374206F776E65720000000000000000000000000000000000000000000000 PUSH1 0x64 DUP3 ADD MSTORE REVERT JUMPDEST SWAP1 POP PUSH2 0xF9D PUSH2 0x2F6A JUMP JUMPDEST DUP1 MLOAD SWAP1 DUP6 ADD KECCAK256 DUP2 SUB PUSH2 0x1026 JUMPI POP DUP2 ISZERO PUSH2 0x101E JUMPI JUMPDEST POP PUSH2 0xE4E JUMPI PUSH1 0x84 SWAP3 POP DUP8 MLOAD SWAP2 PUSH3 0x461BCD PUSH1 0xE5 SHL DUP4 MSTORE DUP3 ADD MSTORE PUSH1 0x3B PUSH1 0x24 DUP3 ADD MSTORE PUSH32 0x4F6E6C79206F776E65727320616E642061646D696E6973747261746F72732063 PUSH1 0x44 DUP3 ADD MSTORE PUSH32 0x616E206772616E742061646D696E6973747261746F7220726F6C650000000000 PUSH1 0x64 DUP3 ADD MSTORE REVERT JUMPDEST SWAP1 POP DUP10 PUSH2 0xFB1 JUMP JUMPDEST PUSH2 0x102E PUSH2 0x305E JUMP JUMPDEST DUP5 DUP2 MLOAD SWAP2 ADD KECCAK256 EQ PUSH2 0x1041 JUMPI JUMPDEST POP POP PUSH2 0xE4E JUMP JUMPDEST DUP2 ISZERO PUSH2 0x10BD JUMPI JUMPDEST POP ISZERO PUSH2 0x1055 JUMPI DUP9 DUP1 PUSH2 0x103A JUMP JUMPDEST PUSH1 0x84 SWAP3 POP DUP8 MLOAD SWAP2 PUSH3 0x461BCD PUSH1 0xE5 SHL DUP4 MSTORE DUP3 ADD MSTORE PUSH1 0x34 PUSH1 0x24 DUP3 ADD MSTORE PUSH32 0x4F6E6C79206F776E65727320616E642061646D696E6973747261746F72732063 PUSH1 0x44 DUP3 ADD MSTORE PUSH32 0x616E206772616E742076696577657220726F6C65000000000000000000000000 PUSH1 0x64 DUP3 ADD MSTORE REVERT JUMPDEST SWAP1 POP DUP10 PUSH2 0x1048 JUMP JUMPDEST PUSH1 0x64 DUP4 DUP4 DUP1 DUP13 MLOAD SWAP3 PUSH3 0x461BCD PUSH1 0xE5 SHL DUP5 MSTORE DUP4 ADD MSTORE PUSH1 0x24 DUP3 ADD MSTORE PUSH32 0x596F752068617665206E6F20726F6C6520666F722074686973207265636F7264 PUSH1 0x44 DUP3 ADD MSTORE REVERT JUMPDEST POP SWAP2 SWAP1 CALLVALUE PUSH2 0x27B JUMPI PUSH1 0x20 CALLDATASIZE PUSH1 0x3 NOT ADD SLT PUSH2 0x27B JUMPI PUSH2 0x1122 PUSH2 0x2871 JUMP JUMPDEST PUSH1 0x1 PUSH1 0x1 PUSH1 0xA0 SHL SUB SWAP1 PUSH2 0x1139 DUP3 DUP7 SLOAD AND CALLER EQ PUSH2 0x2C07 JUMP JUMPDEST AND DUP1 DUP5 MSTORE PUSH1 0x1 SWAP3 DUP4 PUSH1 0x20 MSTORE PUSH2 0x1152 DUP4 DUP7 KECCAK256 SLOAD ISZERO ISZERO PUSH2 0x2C52 JUMP JUMPDEST DUP2 DUP6 MSTORE DUP4 PUSH1 0x20 MSTORE PUSH1 0xFF DUP5 DUP5 DUP8 KECCAK256 ADD SLOAD AND PUSH2 0x1180 JUMPI POP DUP4 MSTORE PUSH1 0x20 DUP3 SWAP1 MSTORE DUP3 KECCAK256 DUP2 ADD DUP1 SLOAD PUSH1 0xFF NOT AND SWAP1 SWAP2 OR SWAP1 SSTORE DUP1 RETURN JUMPDEST PUSH1 0x64 SWAP1 PUSH1 0x20 DUP5 MLOAD SWAP2 PUSH3 0x461BCD PUSH1 0xE5 SHL DUP4 MSTORE DUP3 ADD MSTORE PUSH1 0x15 PUSH1 0x24 DUP3 ADD MSTORE PUSH32 0x57616C6C657420616C7265616479206163746976650000000000000000000000 PUSH1 0x44 DUP3 ADD MSTORE REVERT JUMPDEST POP SWAP1 CALLVALUE PUSH2 0x2A8 JUMPI PUSH1 0x20 SWAP2 PUSH2 0x11D9 PUSH2 0x593 CALLDATASIZE PUSH2 0x2BD5 JUMP JUMPDEST DUP2 ADD PUSH1 0x9 DUP2 MSTORE SUB ADD SWAP1 KECCAK256 SWAP1 DUP2 SLOAD DUP5 LT ISZERO PUSH2 0x27F JUMPI POP PUSH1 0x20 SWAP3 PUSH2 0x5C8 SWAP2 PUSH2 0x2BA7 JUMP JUMPDEST POP SWAP1 CALLVALUE PUSH2 0x2A8 JUMPI DUP2 PUSH1 0x3 NOT CALLDATASIZE ADD SLT PUSH2 0x2A8 JUMPI DUP1 MLOAD PUSH2 0x265 SWAP2 PUSH2 0x121B DUP3 PUSH2 0x288C JUMP JUMPDEST PUSH1 0x5 DUP3 MSTORE PUSH32 0x352E302E30000000000000000000000000000000000000000000000000000000 PUSH1 0x20 DUP4 ADD MSTORE MLOAD SWAP2 DUP3 SWAP2 PUSH1 0x20 DUP4 MSTORE PUSH1 0x20 DUP4 ADD SWAP1 PUSH2 0x2AD1 JUMP JUMPDEST POP SWAP1 CALLVALUE PUSH2 0x2A8 JUMPI PUSH1 0x20 SWAP1 PUSH2 0xD0E PUSH2 0x126D CALLDATASIZE PUSH2 0x2951 JUMP JUMPDEST SWAP1 PUSH2 0x2FC3 JUMP JUMPDEST POP SWAP2 CALLVALUE PUSH2 0x27B JUMPI PUSH1 0x20 CALLDATASIZE PUSH1 0x3 NOT ADD SLT PUSH2 0x27B JUMPI DUP1 CALLDATALOAD SWAP1 DUP1 SLOAD DUP3 LT ISZERO PUSH2 0x359 JUMPI PUSH1 0x20 SWAP4 MSTORE PUSH32 0x8A35ACFBC15FF81A39AE7D344FD709F28E8600B4AA8C65C6B64BFE7FE36BD19B ADD SLOAD SWAP1 MLOAD SWAP1 DUP2 MSTORE RETURN JUMPDEST POP SWAP1 CALLVALUE PUSH2 0x2A8 JUMPI PUSH1 0x20 SWAP2 PUSH2 0x12D6 PUSH2 0x593 CALLDATASIZE PUSH2 0x2BD5 JUMP JUMPDEST DUP2 ADD PUSH1 0x7 DUP2 MSTORE SUB ADD SWAP1 KECCAK256 SWAP1 DUP2 SLOAD DUP5 LT ISZERO PUSH2 0x27F JUMPI POP PUSH1 0x20 SWAP3 PUSH2 0x5C8 SWAP2 PUSH2 0x2BA7 JUMP JUMPDEST POP SWAP2 SWAP1 CALLVALUE PUSH2 0x27B JUMPI DUP1 PUSH1 0x3 NOT CALLDATASIZE ADD SLT PUSH2 0x27B JUMPI DUP2 CALLDATALOAD SWAP1 PUSH1 0x24 CALLDATALOAD PUSH1 0x5 DUP2 LT ISZERO PUSH2 0x54F JUMPI PUSH2 0x132E PUSH1 0x1 PUSH1 0x1 PUSH1 0xA0 SHL SUB DUP7 SLOAD AND CALLER EQ PUSH2 0x2C07 JUMP JUMPDEST DUP3 DUP6 MSTORE PUSH1 0x20 PUSH1 0x2 DUP2 MSTORE PUSH1 0xFF DUP4 DUP8 KECCAK256 SLOAD AND PUSH1 0x5 DUP2 LT ISZERO PUSH2 0x1460 JUMPI ISZERO PUSH2 0x141E JUMPI DUP4 DUP7 MSTORE PUSH1 0x2 DUP2 MSTORE PUSH1 0xFF DUP4 DUP8 KECCAK256 SLOAD AND SWAP5 PUSH1 0x5 DUP7 LT ISZERO PUSH2 0x140B JUMPI DUP3 DUP7 EQ PUSH2 0x13CA JUMPI POP SWAP1 PUSH2 0x139C SWAP2 DUP5 DUP8 MSTORE PUSH1 0x2 DUP2 MSTORE DUP4 DUP8 KECCAK256 PUSH1 0xFF NOT DUP2 SLOAD AND PUSH1 0xFF DUP5 AND OR SWAP1 SSTORE PUSH2 0x1394 DUP5 MLOAD DUP1 SWAP8 PUSH2 0x2B6E JUMP JUMPDEST DUP6 ADD SWAP1 PUSH2 0x2B6E JUMP JUMPDEST TIMESTAMP SWAP1 DUP4 ADD MSTORE PUSH32 0xF6277C6EE46649823DB9A5C531DB3112B4340C67179CAE1932BA3420DCC37CC7 PUSH1 0x60 CALLER SWAP4 LOG3 DUP1 RETURN JUMPDEST PUSH1 0x64 SWAP2 DUP5 MLOAD SWAP2 PUSH3 0x461BCD PUSH1 0xE5 SHL DUP4 MSTORE DUP3 ADD MSTORE PUSH1 0x13 PUSH1 0x24 DUP3 ADD MSTORE PUSH32 0x416C726561647920746869732073746174757300000000000000000000000000 PUSH1 0x44 DUP3 ADD MSTORE REVERT JUMPDEST DUP7 PUSH1 0x21 PUSH1 0x24 SWAP3 PUSH4 0x4E487B71 PUSH1 0xE0 SHL DUP4 MSTORE MSTORE REVERT JUMPDEST DUP5 PUSH1 0x64 SWAP2 DUP5 MLOAD SWAP2 PUSH3 0x461BCD PUSH1 0xE5 SHL DUP4 MSTORE DUP3 ADD MSTORE PUSH1 0x13 PUSH1 0x24 DUP3 ADD MSTORE PUSH32 0x55736572206E6F74207265676973746572656400000000000000000000000000 PUSH1 0x44 DUP3 ADD MSTORE REVERT JUMPDEST PUSH1 0x24 DUP8 PUSH1 0x21 DUP9 PUSH4 0x4E487B71 PUSH1 0xE0 SHL DUP4 MSTORE MSTORE REVERT JUMPDEST POP SWAP1 CALLVALUE PUSH2 0x2A8 JUMPI PUSH2 0x1483 CALLDATASIZE PUSH2 0x2B91 JUMP JUMPDEST SWAP3 SWAP1 DUP2 MSTORE PUSH1 0x3 PUSH1 0x20 MSTORE DUP2 DUP2 KECCAK256 SWAP1 DUP2 SLOAD DUP5 LT ISZERO PUSH2 0x27F JUMPI POP PUSH2 0x14AE PUSH1 0x20 SWAP4 PUSH1 0x1 PUSH1 0x1 PUSH1 0xA0 SHL SUB SWAP3 PUSH2 0x2BA7 JUMP JUMPDEST SWAP1 SLOAD SWAP1 PUSH1 0x3 SHL SHR AND SWAP1 MLOAD SWAP1 DUP2 MSTORE RETURN JUMPDEST POP SWAP1 CALLVALUE PUSH2 0x2A8 JUMPI PUSH1 0x20 CALLDATASIZE PUSH1 0x3 NOT ADD SLT PUSH2 0x2A8 JUMPI DUP1 SWAP2 PUSH1 0x1 PUSH1 0x1 PUSH1 0xA0 SHL SUB PUSH2 0x14E2 PUSH2 0x2871 JUMP JUMPDEST AND DUP2 MSTORE PUSH1 0x1 PUSH1 0x20 MSTORE KECCAK256 PUSH1 0xFF PUSH1 0x1 DUP3 SLOAD SWAP3 ADD SLOAD AND DUP3 MLOAD SWAP2 DUP3 MSTORE ISZERO ISZERO PUSH1 0x20 DUP3 ADD MSTORE RETURN JUMPDEST POP SWAP2 CALLVALUE PUSH2 0x27B JUMPI DUP3 PUSH1 0x3 NOT CALLDATASIZE ADD SLT PUSH2 0x27B JUMPI PUSH32 0xF0C57E16840DF040F15088DC2F81FE391C3923BEC73E23A9662EFC9C229C6A00 SWAP2 DUP3 SLOAD PUSH1 0xFF DUP2 DUP4 SHR AND ISZERO SWAP1 PUSH8 0xFFFFFFFFFFFFFFFF DUP2 AND DUP1 ISZERO SWAP1 DUP2 PUSH2 0x1679 JUMPI JUMPDEST PUSH1 0x1 EQ SWAP1 DUP2 PUSH2 0x166F JUMPI JUMPDEST ISZERO SWAP1 DUP2 PUSH2 0x1666 JUMPI JUMPDEST POP PUSH2 0x163E JUMPI PUSH8 0xFFFFFFFFFFFFFFFF NOT DUP2 AND PUSH1 0x1 OR DUP6 SSTORE DUP2 PUSH2 0x161F JUMPI JUMPDEST POP DUP4 SLOAD SWAP3 PUSH1 0xFF DUP5 DUP5 SHR AND ISZERO PUSH2 0x15F8 JUMPI POP CALLER PUSH20 0xFFFFFFFFFFFFFFFFFFFFFFFFFFFFFFFFFFFFFFFF NOT DUP7 SLOAD AND OR DUP6 SSTORE PUSH2 0x15B8 JUMPI DUP4 DUP1 RETURN JUMPDEST PUSH32 0xC7F505B2F371AE2175EE4913F4499E1F2633A7B5936321EED1CDAEB6115181D2 SWAP3 PUSH1 0x20 SWAP3 PUSH9 0xFF0000000000000000 NOT AND SWAP1 SSTORE MLOAD PUSH1 0x1 DUP2 MSTORE LOG1 CODESIZE DUP1 DUP1 DUP4 DUP1 RETURN JUMPDEST DUP3 MLOAD PUSH32 0xD7E6BCF800000000000000000000000000000000000000000000000000000000 DUP2 MSTORE REVERT JUMPDEST PUSH9 0xFFFFFFFFFFFFFFFFFF NOT AND PUSH9 0x10000000000000001 OR DUP5 SSTORE CODESIZE PUSH2 0x1583 JUMP JUMPDEST POP POP MLOAD PUSH32 0xF92EE8A900000000000000000000000000000000000000000000000000000000 DUP2 MSTORE REVERT JUMPDEST SWAP1 POP ISZERO CODESIZE PUSH2 0x1567 JUMP JUMPDEST ADDRESS EXTCODESIZE ISZERO SWAP2 POP PUSH2 0x155F JUMP JUMPDEST DUP4 SWAP2 POP PUSH2 0x1555 JUMP JUMPDEST POP SWAP1 CALLVALUE PUSH2 0x2A8 JUMPI DUP2 PUSH1 0x3 NOT CALLDATASIZE ADD SLT PUSH2 0x2A8 JUMPI PUSH1 0x20 SWAP1 PUSH1 0xB SLOAD SWAP1 MLOAD SWAP1 DUP2 MSTORE RETURN JUMPDEST POP DUP3 CALLVALUE PUSH2 0x2A8 JUMPI PUSH1 0x20 CALLDATASIZE PUSH1 0x3 NOT ADD SLT PUSH2 0x2A8 JUMPI PUSH2 0x16BB PUSH2 0x2871 JUMP JUMPDEST DUP3 SLOAD SWAP1 PUSH1 0x1 PUSH1 0x1 PUSH1 0xA0 SHL SUB DUP1 DUP4 AND SWAP2 PUSH2 0x16D5 DUP4 CALLER EQ PUSH2 0x2C07 JUMP JUMPDEST AND SWAP3 DUP4 ISZERO PUSH2 0x1727 JUMPI POP SWAP1 DUP3 PUSH20 0xFFFFFFFFFFFFFFFFFFFFFFFFFFFFFFFFFFFFFFFF NOT SWAP3 PUSH32 0x38DF5FA0F7FEF0D515CA1F5388CB5790AC5885D5FCA8D05D9F943E563C33A4B3 PUSH1 0x20 DUP9 MLOAD TIMESTAMP DUP2 MSTORE LOG3 AND OR DUP2 SSTORE DUP1 RETURN JUMPDEST PUSH1 0x64 SWAP1 PUSH1 0x20 DUP8 MLOAD SWAP2 PUSH3 0x461BCD PUSH1 0xE5 SHL DUP4 MSTORE DUP3 ADD MSTORE PUSH1 0xF PUSH1 0x24 DUP3 ADD MSTORE PUSH32 0x496E76616C696420616464726573730000000000000000000000000000000000 PUSH1 0x44 DUP3 ADD MSTORE REVERT JUMPDEST POP SWAP2 SWAP1 CALLVALUE PUSH2 0x27B JUMPI PUSH1 0x1 PUSH1 0x1 PUSH1 0xA0 SHL SUB SWAP1 PUSH2 0x1784 CALLDATASIZE PUSH2 0x2951 JUMP JUMPDEST PUSH2 0x1792 DUP3 SWAP5 SWAP3 MLOAD ISZERO ISZERO PUSH2 0x2CE2 JUMP JUMPDEST AND SWAP3 PUSH2 0x179F DUP5 ISZERO ISZERO PUSH2 0x2E2A JUMP JUMPDEST CALLER DUP6 MSTORE PUSH1 0x20 SWAP2 PUSH1 0x1 DUP4 MSTORE DUP1 DUP7 KECCAK256 SLOAD SWAP5 DUP7 MSTORE DUP1 DUP7 KECCAK256 SLOAD SWAP4 PUSH2 0x17C0 DUP6 ISZERO ISZERO PUSH2 0x2E75 JUMP JUMPDEST PUSH2 0x17CA DUP6 DUP3 PUSH2 0x354D JUMP JUMPDEST DUP1 DUP9 MSTORE PUSH1 0x6 DUP6 MSTORE PUSH2 0x17E3 PUSH1 0xFF PUSH1 0x1 DUP6 DUP12 KECCAK256 ADD SLOAD AND PUSH2 0x2EC0 JUMP JUMPDEST DUP1 DUP9 MSTORE PUSH1 0x6 DUP6 MSTORE PUSH2 0x17F5 DUP4 DUP10 KECCAK256 PUSH2 0x2A09 JUMP JUMPDEST SWAP4 DUP5 MLOAD DUP7 DUP7 ADD KECCAK256 PUSH2 0x1804 PUSH2 0x2F31 JUMP JUMPDEST DUP8 DUP2 MLOAD SWAP2 ADD KECCAK256 DUP2 EQ PUSH2 0x1A9B JUMPI DUP8 DUP10 SUB PUSH2 0x194F JUMPI JUMPDEST PUSH2 0x1820 PUSH2 0x2F6A JUMP JUMPDEST DUP8 DUP2 MLOAD SWAP2 ADD KECCAK256 EQ PUSH2 0x188D JUMPI JUMPDEST POP DUP2 PUSH2 0x1879 SWAP2 PUSH2 0x1860 DUP7 DUP10 PUSH32 0x938E21A28464DB5F9B9E24D1A58E038899DE364F69DBA20C154EE6FD4CD86DEF SWAP9 SWAP8 SWAP7 PUSH2 0x35E8 JUMP JUMPDEST DUP10 MSTORE PUSH1 0x6 DUP7 MSTORE DUP3 DUP10 KECCAK256 PUSH1 0x1 ADD DUP1 SLOAD PUSH1 0xFF NOT AND SWAP1 SSTORE PUSH2 0x2FA3 JUMP JUMPDEST SWAP4 PUSH2 0x818 DUP3 MLOAD SWAP4 DUP4 DUP6 SWAP5 DUP6 MSTORE DUP5 ADD SWAP1 PUSH2 0x2AD1 JUMP JUMPDEST DUP4 MLOAD PUSH2 0x18C6 DUP8 PUSH1 0x1 DUP7 MLOAD SWAP4 DUP3 DUP2 DUP2 DUP11 ADD SWAP7 PUSH2 0x18A9 DUP2 DUP4 DUP11 PUSH2 0x2AAE JUMP JUMPDEST DUP2 ADD PUSH1 0x8 DUP2 MSTORE SUB ADD SWAP1 KECCAK256 SLOAD GT SWAP3 DUP8 MLOAD DUP1 SWAP4 DUP2 SWAP3 DUP10 MLOAD SWAP3 DUP4 SWAP2 PUSH2 0x2AAE JUMP JUMPDEST DUP2 ADD PUSH1 0x7 DUP2 MSTORE SUB ADD SWAP1 KECCAK256 SLOAD ISZERO ISZERO DUP2 ISZERO PUSH2 0x1947 JUMPI JUMPDEST POP PUSH2 0x182C JUMPI PUSH1 0x84 SWAP1 DUP7 DUP6 MLOAD SWAP2 PUSH3 0x461BCD PUSH1 0xE5 SHL DUP4 MSTORE DUP3 ADD MSTORE PUSH1 0x39 PUSH1 0x24 DUP3 ADD MSTORE PUSH32 0x43616E6E6F74207265766F6B65206C6173742061646D696E6973747261746F72 PUSH1 0x44 DUP3 ADD MSTORE PUSH32 0x20776974686F757420616E206F776E65722070726573656E7400000000000000 PUSH1 0x64 DUP3 ADD MSTORE REVERT JUMPDEST SWAP1 POP CODESIZE PUSH2 0x18DA JUMP JUMPDEST PUSH2 0x1961 PUSH2 0x195A PUSH2 0x2F31 JUMP JUMPDEST DUP11 DUP7 PUSH2 0x3588 JUMP JUMPDEST DUP1 ISZERO PUSH2 0x1A8A JUMPI JUMPDEST ISZERO PUSH2 0x1A22 JUMPI PUSH2 0x1978 PUSH2 0x195A PUSH2 0x2F31 JUMP JUMPDEST ISZERO PUSH2 0x1983 JUMPI JUMPDEST PUSH2 0x1818 JUMP JUMPDEST PUSH2 0x198B PUSH2 0x2F6A JUMP JUMPDEST DUP8 DUP2 MLOAD SWAP2 ADD KECCAK256 DUP2 SUB PUSH2 0x1818 JUMPI DUP5 MLOAD DUP8 DUP2 DUP7 MLOAD PUSH2 0x19AA DUP2 DUP4 DUP6 DUP12 ADD PUSH2 0x2AAE JUMP JUMPDEST DUP2 ADD PUSH1 0x7 DUP2 MSTORE SUB ADD SWAP1 KECCAK256 SLOAD ISZERO PUSH2 0x197E JUMPI PUSH1 0x84 DUP3 DUP9 DUP8 MLOAD SWAP2 PUSH3 0x461BCD PUSH1 0xE5 SHL DUP4 MSTORE DUP3 ADD MSTORE PUSH1 0x25 PUSH1 0x24 DUP3 ADD MSTORE PUSH32 0x4F6E6C79206F776E6572732063616E207265766F6B652061646D696E69737472 PUSH1 0x44 DUP3 ADD MSTORE PUSH32 0x61746F7273000000000000000000000000000000000000000000000000000000 PUSH1 0x64 DUP3 ADD MSTORE REVERT JUMPDEST PUSH1 0x84 DUP3 DUP9 DUP8 MLOAD SWAP2 PUSH3 0x461BCD PUSH1 0xE5 SHL DUP4 MSTORE DUP3 ADD MSTORE PUSH1 0x2F PUSH1 0x24 DUP3 ADD MSTORE PUSH32 0x4F6E6C79206F776E65727320616E642061646D696E6973747261746F72732063 PUSH1 0x44 DUP3 ADD MSTORE PUSH32 0x616E207265766F6B6520726F6C65730000000000000000000000000000000000 PUSH1 0x64 DUP3 ADD MSTORE REVERT JUMPDEST POP PUSH2 0x1A96 PUSH2 0x195A PUSH2 0x2F6A JUMP JUMPDEST PUSH2 0x1968 JUMP JUMPDEST PUSH1 0xA4 DUP3 DUP9 DUP8 MLOAD SWAP2 PUSH3 0x461BCD PUSH1 0xE5 SHL DUP4 MSTORE DUP3 ADD MSTORE PUSH1 0x45 PUSH1 0x24 DUP3 ADD MSTORE PUSH32 0x4F776E6572732063616E6E6F74206265207265766F6B65642E204F776E657220 PUSH1 0x44 DUP3 ADD MSTORE PUSH32 0x6D7573742075736520766F6C756E746172696C794C656176654F776E65727368 PUSH1 0x64 DUP3 ADD MSTORE PUSH32 0x697028292E000000000000000000000000000000000000000000000000000000 PUSH1 0x84 DUP3 ADD MSTORE REVERT JUMPDEST POP DUP3 CALLVALUE PUSH2 0x2A8 JUMPI PUSH1 0x20 SWAP1 DUP2 PUSH1 0x3 NOT CALLDATASIZE ADD SLT PUSH2 0x27B JUMPI DUP1 CALLDATALOAD DUP4 MSTORE PUSH1 0xA DUP3 MSTORE DUP4 DUP4 KECCAK256 SWAP2 DUP3 SLOAD SWAP2 PUSH8 0xFFFFFFFFFFFFFFFF DUP4 GT PUSH2 0x1C06 JUMPI POP SWAP3 SWAP1 DUP5 MLOAD SWAP1 PUSH2 0x1B71 DUP6 DUP3 PUSH1 0x5 SHL ADD DUP4 PUSH2 0x28BE JUMP JUMPDEST DUP1 DUP3 MSTORE DUP5 DUP3 ADD DUP1 SWAP5 DUP5 MSTORE DUP6 DUP5 KECCAK256 DUP5 SWAP2 JUMPDEST DUP4 DUP4 LT PUSH2 0x1BE2 JUMPI POP POP POP POP DUP5 MLOAD SWAP4 DUP1 DUP6 ADD SWAP2 DUP2 DUP7 MSTORE MLOAD DUP1 SWAP3 MSTORE DUP6 DUP6 ADD SWAP6 DUP3 PUSH1 0x5 SHL DUP7 ADD ADD SWAP4 SWAP3 SWAP6 JUMPDEST DUP3 DUP8 LT PUSH2 0x1BB6 JUMPI DUP6 DUP6 SUB DUP7 RETURN JUMPDEST SWAP1 SWAP2 SWAP3 SWAP4 DUP3 DUP1 PUSH2 0x1BD2 PUSH1 0x1 SWAP4 PUSH1 0x3F NOT DUP11 DUP3 SUB ADD DUP7 MSTORE DUP9 MLOAD PUSH2 0x2AD1 JUMP JUMPDEST SWAP7 ADD SWAP3 ADD SWAP7 ADD SWAP6 SWAP3 SWAP2 SWAP1 SWAP3 PUSH2 0x1BA9 JUMP JUMPDEST PUSH1 0x1 DUP9 DUP2 SWAP3 PUSH2 0x1BF4 DUP6 SWAP12 SWAP9 SWAP10 SWAP12 PUSH2 0x2A09 JUMP JUMPDEST DUP2 MSTORE ADD SWAP3 ADD SWAP3 ADD SWAP2 SWAP1 SWAP7 SWAP5 SWAP4 SWAP7 PUSH2 0x1B81 JUMP JUMPDEST DUP5 PUSH1 0x41 PUSH1 0x24 SWAP3 PUSH4 0x4E487B71 PUSH1 0xE0 SHL DUP4 MSTORE MSTORE REVERT JUMPDEST POP CALLVALUE PUSH2 0x27F JUMPI DUP1 PUSH1 0x3 NOT CALLDATASIZE ADD SLT PUSH2 0x27F JUMPI POP PUSH1 0x1 PUSH1 0x1 PUSH1 0xA0 SHL SUB PUSH32 0x0 AND ADDRESS SUB PUSH2 0x1C84 JUMPI PUSH1 0x20 SWAP1 MLOAD PUSH32 0x360894A13BA1A3210667C828492DB98DCA3E2076CC3735A920A3CA505D382BBC DUP2 MSTORE RETURN JUMPDEST MLOAD PUSH4 0x703E46DD PUSH1 0xE1 SHL DUP2 MSTORE REVERT JUMPDEST POP SWAP2 SWAP1 CALLVALUE PUSH2 0x27B JUMPI PUSH1 0x20 SWAP2 DUP3 PUSH1 0x3 NOT CALLDATASIZE ADD SLT PUSH2 0x359 JUMPI DUP1 CALLDATALOAD SWAP1 PUSH8 0xFFFFFFFFFFFFFFFF DUP3 GT PUSH2 0x54F JUMPI PUSH2 0x1CCA DUP5 SWAP2 PUSH2 0x1CDC SWAP4 CALLDATASIZE SWAP2 ADD PUSH2 0x2933 JUMP JUMPDEST DUP2 DUP5 MLOAD SWAP4 DUP3 DUP6 DUP1 SWAP5 MLOAD SWAP4 DUP5 SWAP3 ADD PUSH2 0x2AAE JUMP JUMPDEST DUP2 ADD PUSH1 0x9 DUP2 MSTORE SUB ADD SWAP1 KECCAK256 SWAP3 DUP2 MLOAD DUP1 SWAP4 DUP1 DUP7 SLOAD SWAP3 DUP4 DUP2 MSTORE ADD SWAP6 DUP4 MSTORE DUP1 DUP4 KECCAK256 SWAP3 SWAP1 JUMPDEST DUP3 DUP3 LT PUSH2 0x1D14 JUMPI PUSH2 0x265 DUP7 DUP7 PUSH2 0x636 DUP3 DUP12 SUB DUP4 PUSH2 0x28BE JUMP JUMPDEST DUP4 SLOAD DUP8 MSTORE SWAP6 DUP7 ADD SWAP6 PUSH1 0x1 SWAP4 DUP5 ADD SWAP4 SWAP1 SWAP2 ADD SWAP1 PUSH2 0x1CFC JUMP JUMPDEST POP SWAP2 SWAP1 DUP1 PUSH1 0x3 NOT CALLDATASIZE ADD SLT PUSH2 0x27B JUMPI PUSH2 0x1D41 PUSH2 0x2871 JUMP JUMPDEST SWAP1 PUSH1 0x24 CALLDATALOAD PUSH8 0xFFFFFFFFFFFFFFFF DUP2 GT PUSH2 0x54F JUMPI CALLDATASIZE PUSH1 0x23 DUP3 ADD SLT ISZERO PUSH2 0x54F JUMPI PUSH2 0x1D72 SWAP1 CALLDATASIZE SWAP1 PUSH1 0x24 DUP2 DUP8 ADD CALLDATALOAD SWAP2 ADD PUSH2 0x28FC JUMP JUMPDEST PUSH1 0x1 PUSH1 0x1 PUSH1 0xA0 SHL SUB DUP1 PUSH32 0x0 AND DUP1 ADDRESS EQ SWAP1 DUP2 ISZERO PUSH2 0x1F9A JUMPI JUMPDEST POP PUSH2 0x1F8B JUMPI PUSH2 0x1DBB DUP2 DUP8 SLOAD AND CALLER EQ PUSH2 0x2C07 JUMP JUMPDEST DUP4 AND SWAP3 DUP3 MLOAD SWAP1 PUSH32 0x52D1902D00000000000000000000000000000000000000000000000000000000 DUP3 MSTORE PUSH1 0x20 SWAP2 DUP3 DUP2 DUP9 DUP2 DUP10 GAS STATICCALL DUP9 SWAP2 DUP2 PUSH2 0x1F58 JUMPI JUMPDEST POP PUSH2 0x1E11 JUMPI PUSH1 0x24 DUP8 DUP8 DUP8 MLOAD SWAP2 PUSH4 0x4C9C8CE3 PUSH1 0xE0 SHL DUP4 MSTORE DUP3 ADD MSTORE REVERT JUMPDEST PUSH32 0x360894A13BA1A3210667C828492DB98DCA3E2076CC3735A920A3CA505D382BBC SWAP7 SWAP3 SWAP6 SWAP2 SWAP4 SWAP7 SWAP1 DUP2 DUP2 SUB PUSH2 0x1F29 JUMPI POP DUP4 EXTCODESIZE ISZERO PUSH2 0x1F13 JUMPI DUP1 SLOAD PUSH20 0xFFFFFFFFFFFFFFFFFFFFFFFFFFFFFFFFFFFFFFFF NOT AND DUP3 OR SWAP1 SSTORE DUP4 MLOAD DUP8 SWAP3 SWAP2 PUSH32 0xBC7CD75A20EE27FD9ADEBAB32041F755214DBC6BFFA90CC0225B39DA2E5C2D3B DUP5 DUP1 LOG2 DUP7 MLOAD ISZERO PUSH2 0x1EDD JUMPI POP POP DUP1 DUP6 DUP6 PUSH2 0x1ECF SWAP8 MLOAD SWAP2 ADD DUP5 GAS DELEGATECALL SWAP2 RETURNDATASIZE ISZERO PUSH2 0x1ED3 JUMPI RETURNDATASIZE PUSH2 0x1EC1 PUSH2 0x1EB8 DUP3 PUSH2 0x28E0 JUMP JUMPDEST SWAP3 MLOAD SWAP3 DUP4 PUSH2 0x28BE JUMP JUMPDEST DUP2 MSTORE DUP6 DUP2 SWAP5 RETURNDATASIZE SWAP3 ADD RETURNDATACOPY PUSH2 0x386C JUMP JUMPDEST POP DUP1 RETURN JUMPDEST POP PUSH1 0x60 SWAP3 POP PUSH2 0x386C JUMP JUMPDEST SWAP5 POP SWAP5 POP POP POP POP CALLVALUE PUSH2 0x1EEE JUMPI POP POP DUP1 RETURN JUMPDEST PUSH32 0xB398979F00000000000000000000000000000000000000000000000000000000 DUP2 MSTORE REVERT JUMPDEST PUSH1 0x24 DUP4 DUP4 DUP8 MLOAD SWAP2 PUSH4 0x4C9C8CE3 PUSH1 0xE0 SHL DUP4 MSTORE DUP3 ADD MSTORE REVERT JUMPDEST DUP4 PUSH1 0x24 SWAP2 DUP8 MLOAD SWAP2 PUSH32 0xAA1D49A400000000000000000000000000000000000000000000000000000000 DUP4 MSTORE DUP3 ADD MSTORE REVERT JUMPDEST SWAP1 SWAP2 POP DUP4 DUP2 DUP2 RETURNDATASIZE DUP4 GT PUSH2 0x1F84 JUMPI JUMPDEST PUSH2 0x1F70 DUP2 DUP4 PUSH2 0x28BE JUMP JUMPDEST DUP2 ADD SUB SLT PUSH2 0x1F80 JUMPI MLOAD SWAP1 CODESIZE PUSH2 0x1DF6 JUMP JUMPDEST DUP9 DUP1 REVERT JUMPDEST POP RETURNDATASIZE PUSH2 0x1F66 JUMP JUMPDEST DUP5 DUP4 MLOAD PUSH4 0x703E46DD PUSH1 0xE1 SHL DUP2 MSTORE REVERT JUMPDEST SWAP1 POP DUP2 PUSH32 0x360894A13BA1A3210667C828492DB98DCA3E2076CC3735A920A3CA505D382BBC SLOAD AND EQ ISZERO CODESIZE PUSH2 0x1DA8 JUMP JUMPDEST POP SWAP2 CALLVALUE PUSH2 0x27B JUMPI DUP2 PUSH1 0x3 NOT CALLDATASIZE ADD SLT PUSH2 0x27B JUMPI PUSH2 0x1FE2 PUSH2 0x2871 JUMP JUMPDEST SWAP2 PUSH1 0x24 SWAP1 DUP2 CALLDATALOAD SWAP4 PUSH1 0x1 PUSH1 0x1 PUSH1 0xA0 SHL SUB DUP1 SWAP2 PUSH2 0x2001 DUP3 DUP10 SLOAD AND CALLER EQ PUSH2 0x2C07 JUMP JUMPDEST AND SWAP4 PUSH2 0x200E DUP6 ISZERO ISZERO PUSH2 0x2D2D JUMP JUMPDEST DUP6 ISZERO PUSH2 0x2204 JUMPI DUP5 DUP8 MSTORE PUSH1 0x1 SWAP4 PUSH1 0x20 SWAP5 DUP1 DUP7 MSTORE DUP5 DUP10 KECCAK256 SLOAD PUSH2 0x21C3 JUMPI PUSH2 0x2063 DUP6 MLOAD PUSH2 0x2036 DUP2 PUSH2 0x288C JUMP JUMPDEST DUP10 DUP2 MSTORE DUP3 DUP9 DUP3 ADD DUP2 DUP2 MSTORE DUP11 DUP14 MSTORE DUP2 DUP11 MSTORE DUP9 DUP14 KECCAK256 SWAP3 MLOAD DUP4 SSTORE MLOAD ISZERO ISZERO SWAP2 ADD SWAP1 PUSH1 0xFF DUP1 NOT DUP4 SLOAD AND SWAP2 ISZERO ISZERO AND OR SWAP1 SSTORE JUMP JUMPDEST DUP8 DUP10 MSTORE PUSH1 0x3 DUP7 MSTORE DUP5 DUP10 KECCAK256 SWAP4 DUP5 SLOAD PUSH9 0x10000000000000000 SWAP6 DUP7 DUP3 LT ISZERO PUSH2 0x21B1 JUMPI SWAP1 PUSH2 0x2092 SWAP2 DUP5 DUP3 ADD DUP2 SSTORE PUSH2 0x2BA7 JUMP JUMPDEST DUP2 SWAP3 SWAP2 SLOAD SWAP1 PUSH1 0x3 SHL SWAP2 DUP11 DUP4 SHL SWAP3 SHL NOT AND OR SWAP1 SSTORE DUP8 DUP10 MSTORE PUSH1 0x2 DUP7 MSTORE PUSH1 0xFF DUP6 DUP11 KECCAK256 SLOAD AND PUSH1 0x5 DUP2 LT ISZERO PUSH2 0x219F JUMPI PUSH2 0x2170 JUMPI DUP8 DUP10 MSTORE PUSH1 0x2 DUP7 MSTORE DUP5 DUP10 KECCAK256 PUSH1 0x2 PUSH1 0xFF NOT DUP3 SLOAD AND OR SWAP1 SSTORE DUP3 SLOAD SWAP4 DUP5 LT ISZERO PUSH2 0x215E JUMPI DUP4 ADD DUP1 DUP4 SSTORE DUP4 LT ISZERO PUSH2 0x214D JUMPI POP PUSH32 0x39D132591EE0696DE49AB564E4A90E430C006561917DB731A2A614DD2D245591 SWAP4 SWAP3 SWAP2 DUP7 SWAP2 DUP9 MSTORE PUSH32 0x8A35ACFBC15FF81A39AE7D344FD709F28E8600B4AA8C65C6B64BFE7FE36BD19B ADD SSTORE PUSH2 0x2142 PUSH1 0x5 SLOAD PUSH2 0x2E05 JUMP JUMPDEST PUSH1 0x5 SSTORE MLOAD TIMESTAMP DUP2 MSTORE LOG3 DUP1 RETURN JUMPDEST DUP8 PUSH1 0x32 DUP4 PUSH4 0x4E487B71 PUSH1 0xE0 SHL DUP4 MSTORE MSTORE REVERT JUMPDEST POP DUP8 PUSH1 0x41 DUP4 PUSH4 0x4E487B71 PUSH1 0xE0 SHL DUP4 MSTORE MSTORE REVERT JUMPDEST POP POP POP POP SWAP1 PUSH32 0x1CC138F50384BE7770A8E4A34EECAA0D0C718BFAA1641AF49DB32532E4A5B910 SWAP2 MLOAD TIMESTAMP DUP2 MSTORE LOG3 DUP1 RETURN JUMPDEST DUP3 DUP11 PUSH1 0x21 DUP7 PUSH4 0x4E487B71 PUSH1 0xE0 SHL DUP4 MSTORE MSTORE REVERT JUMPDEST DUP5 DUP13 PUSH1 0x41 DUP9 PUSH4 0x4E487B71 PUSH1 0xE0 SHL DUP4 MSTORE MSTORE REVERT JUMPDEST PUSH1 0x64 DUP4 PUSH1 0x19 DUP5 DUP10 DUP10 MLOAD SWAP4 PUSH3 0x461BCD PUSH1 0xE5 SHL DUP6 MSTORE DUP5 ADD MSTORE DUP3 ADD MSTORE PUSH32 0x57616C6C657420616C7265616479207265676973746572656400000000000000 PUSH1 0x44 DUP3 ADD MSTORE REVERT JUMPDEST PUSH1 0x64 SWAP1 PUSH1 0x14 DUP6 PUSH1 0x20 DUP7 MLOAD SWAP4 PUSH3 0x461BCD PUSH1 0xE5 SHL DUP6 MSTORE DUP5 ADD MSTORE DUP3 ADD MSTORE PUSH32 0x496E76616C696420757365722049442068617368000000000000000000000000 PUSH1 0x44 DUP3 ADD MSTORE REVERT JUMPDEST POP SWAP1 CALLVALUE PUSH2 0x2A8 JUMPI PUSH1 0x20 CALLDATASIZE PUSH1 0x3 NOT ADD SLT PUSH2 0x2A8 JUMPI PUSH1 0x20 SWAP1 PUSH2 0xD0E PUSH2 0x2267 PUSH2 0x2871 JUMP JUMPDEST PUSH2 0x322D JUMP JUMPDEST POP CALLVALUE PUSH2 0x27F JUMPI PUSH1 0x20 SWAP1 DUP2 PUSH1 0x3 NOT CALLDATASIZE ADD SLT PUSH2 0x27F JUMPI DUP4 CALLDATALOAD SWAP1 PUSH8 0xFFFFFFFFFFFFFFFF DUP3 GT PUSH2 0x27F JUMPI POP PUSH1 0x60 SWAP4 PUSH2 0x22A2 SWAP2 CALLDATASIZE SWAP2 ADD PUSH2 0x2933 JUMP JUMPDEST SWAP2 DUP1 MLOAD SWAP3 PUSH2 0x22F7 DUP4 DUP3 MLOAD SWAP6 DUP2 DUP2 DUP2 DUP7 ADD SWAP9 PUSH2 0x22BE DUP2 DUP4 DUP13 PUSH2 0x2AAE JUMP JUMPDEST DUP2 ADD PUSH1 0x7 DUP2 MSTORE SUB ADD SWAP1 KECCAK256 SLOAD SWAP6 DUP5 MLOAD DUP3 DUP2 DUP7 MLOAD PUSH2 0x22DB DUP2 DUP4 DUP8 PUSH2 0x2AAE JUMP JUMPDEST DUP2 ADD PUSH1 0x8 DUP2 MSTORE SUB ADD SWAP1 KECCAK256 SLOAD SWAP4 DUP6 MLOAD SWAP4 DUP5 SWAP3 DUP4 SWAP3 MLOAD SWAP3 DUP4 SWAP2 PUSH2 0x2AAE JUMP JUMPDEST DUP2 ADD PUSH1 0x9 DUP2 MSTORE SUB ADD SWAP1 KECCAK256 SLOAD SWAP3 DUP3 MLOAD SWAP5 DUP6 MSTORE DUP5 ADD MSTORE DUP3 ADD MSTORE RETURN JUMPDEST POP SWAP2 SWAP1 CALLVALUE PUSH2 0x27B JUMPI PUSH1 0x20 SWAP2 DUP3 PUSH1 0x3 NOT CALLDATASIZE ADD SLT PUSH2 0x359 JUMPI DUP1 CALLDATALOAD SWAP1 PUSH8 0xFFFFFFFFFFFFFFFF DUP3 GT PUSH2 0x54F JUMPI PUSH2 0x1CCA DUP5 SWAP2 PUSH2 0x2349 SWAP4 CALLDATASIZE SWAP2 ADD PUSH2 0x2933 JUMP JUMPDEST DUP2 ADD PUSH1 0x8 DUP2 MSTORE SUB ADD SWAP1 KECCAK256 SWAP3 DUP2 MLOAD DUP1 SWAP4 DUP1 DUP7 SLOAD SWAP3 DUP4 DUP2 MSTORE ADD SWAP6 DUP4 MSTORE DUP1 DUP4 KECCAK256 SWAP3 SWAP1 JUMPDEST DUP3 DUP3 LT PUSH2 0x2381 JUMPI PUSH2 0x265 DUP7 DUP7 PUSH2 0x636 DUP3 DUP12 SUB DUP4 PUSH2 0x28BE JUMP JUMPDEST DUP4 SLOAD DUP8 MSTORE SWAP6 DUP7 ADD SWAP6 PUSH1 0x1 SWAP4 DUP5 ADD SWAP4 SWAP1 SWAP2 ADD SWAP1 PUSH2 0x2369 JUMP JUMPDEST POP DUP3 CALLVALUE PUSH2 0x2A8 JUMPI PUSH2 0x23A8 CALLDATASIZE PUSH2 0x2B16 JUMP JUMPDEST SWAP1 SWAP3 SWAP2 SWAP5 PUSH1 0x1 PUSH1 0x1 PUSH1 0xA0 SHL SUB PUSH2 0x23C2 DUP2 DUP8 SLOAD AND CALLER EQ PUSH2 0x2C07 JUMP JUMPDEST PUSH2 0x23CE DUP8 MLOAD ISZERO ISZERO PUSH2 0x2CE2 JUMP JUMPDEST DUP5 AND PUSH2 0x23DB DUP2 ISZERO ISZERO PUSH2 0x2D2D JUMP JUMPDEST PUSH2 0x23E7 PUSH2 0x6AA DUP5 PUSH2 0x31D5 JUMP JUMPDEST DUP6 MSTORE PUSH1 0x20 SWAP3 PUSH1 0x1 DUP5 MSTORE PUSH2 0x2403 DUP3 DUP8 KECCAK256 SLOAD SWAP6 PUSH2 0x2267 DUP8 ISZERO ISZERO PUSH2 0x2C52 JUMP JUMPDEST ISZERO PUSH2 0x2637 JUMPI DUP2 MLOAD DUP5 DUP9 MLOAD SWAP2 DUP2 DUP2 DUP2 DUP13 ADD SWAP5 PUSH2 0x241F DUP2 DUP4 DUP9 PUSH2 0x2AAE JUMP JUMPDEST DUP2 ADD PUSH1 0x7 DUP2 MSTORE SUB ADD SWAP1 KECCAK256 SLOAD ISZERO SWAP2 DUP3 PUSH2 0x260F JUMPI JUMPDEST POP POP ISZERO PUSH2 0x25CE JUMPI PUSH2 0x2443 DUP6 DUP9 PUSH2 0x354D JUMP JUMPDEST DUP1 DUP8 MSTORE PUSH1 0x6 DUP6 MSTORE DUP7 DUP6 PUSH2 0x24A8 DUP7 PUSH1 0x1 DUP8 DUP6 KECCAK256 SWAP6 PUSH2 0x2492 DUP10 PUSH2 0x2463 DUP10 PUSH2 0x2A09 JUMP JUMPDEST SWAP8 PUSH1 0x6 PUSH1 0xFF DUP7 DUP12 MLOAD ISZERO SWAP13 ADD SLOAD AND SWAP9 DUP4 MLOAD SWAP8 PUSH2 0x247D DUP10 PUSH2 0x288C JUMP JUMPDEST DUP9 MSTORE DUP1 DUP9 ADD SWAP6 DUP8 DUP8 MSTORE DUP4 MSTORE MSTORE KECCAK256 SWAP4 MLOAD DUP5 PUSH2 0x3296 JUMP JUMPDEST MLOAD ISZERO ISZERO SWAP2 ADD SWAP1 PUSH1 0xFF DUP1 NOT DUP4 SLOAD AND SWAP2 ISZERO ISZERO AND OR SWAP1 SSTORE JUMP JUMPDEST PUSH2 0x258F JUMPI POP PUSH2 0x24B8 DUP5 DUP8 DUP11 PUSH2 0x3709 JUMP JUMPDEST PUSH2 0x24EB JUMPI JUMPDEST POP SWAP1 PUSH32 0x2A27F0A20E4DF4738F3A8E2449B014D439E7CE0A97EE5860771C25CBAFA1CFEB SWAP2 PUSH2 0x1879 DUP7 SWAP8 PUSH2 0x2FA3 JUMP JUMPDEST SWAP6 DUP5 DUP7 MSTORE PUSH1 0xA DUP5 MSTORE DUP2 DUP7 KECCAK256 DUP1 SLOAD SWAP1 PUSH9 0x10000000000000000 DUP3 LT ISZERO PUSH2 0x257C JUMPI SWAP1 PUSH2 0x251A SWAP2 PUSH1 0x1 DUP3 ADD DUP2 SSTORE PUSH2 0x2BA7 JUMP JUMPDEST PUSH2 0x256A JUMPI DUP7 SWAP8 POP DUP2 PUSH2 0x2552 PUSH32 0x2A27F0A20E4DF4738F3A8E2449B014D439E7CE0A97EE5860771C25CBAFA1CFEB SWAP6 SWAP5 SWAP4 PUSH2 0x1879 SWAP4 PUSH2 0x3296 JUMP JUMPDEST PUSH2 0x255D PUSH1 0xB SLOAD PUSH2 0x2E05 JUMP JUMPDEST PUSH1 0xB SSTORE SWAP8 POP POP SWAP1 SWAP2 PUSH2 0x24BD JUMP JUMPDEST PUSH1 0x24 DUP8 DUP1 DUP11 PUSH4 0x4E487B71 PUSH1 0xE0 SHL DUP3 MSTORE MSTORE REVERT JUMPDEST PUSH1 0x24 DUP9 PUSH1 0x41 DUP12 PUSH4 0x4E487B71 PUSH1 0xE0 SHL DUP4 MSTORE MSTORE REVERT JUMPDEST SWAP7 SWAP8 SWAP4 SWAP6 SWAP5 SWAP3 POP POP POP DUP5 MLOAD DUP2 DUP7 ADD KECCAK256 SWAP1 DUP5 MLOAD SWAP1 DUP6 ADD KECCAK256 SUB PUSH2 0x25B2 JUMPI JUMPDEST POP POP POP POP DUP1 RETURN JUMPDEST PUSH2 0x25C0 PUSH2 0x25C5 SWAP5 DUP4 DUP4 PUSH2 0x35E8 JUMP JUMPDEST PUSH2 0x3709 JUMP JUMPDEST DUP2 DUP1 DUP1 DUP1 PUSH2 0x25AB JUMP JUMPDEST DUP4 PUSH1 0x64 SWAP3 MLOAD SWAP2 PUSH3 0x461BCD PUSH1 0xE5 SHL DUP4 MSTORE DUP3 ADD MSTORE PUSH1 0x1A PUSH1 0x24 DUP3 ADD MSTORE PUSH32 0x5265636F726420616C726561647920696E697469616C697A6564000000000000 PUSH1 0x44 DUP3 ADD MSTORE REVERT JUMPDEST PUSH2 0x2624 SWAP3 POP DUP5 MLOAD DUP1 SWAP4 DUP2 SWAP3 DUP13 MLOAD SWAP3 DUP4 SWAP2 PUSH2 0x2AAE JUMP JUMPDEST DUP2 ADD PUSH1 0x8 DUP2 MSTORE SUB ADD SWAP1 KECCAK256 SLOAD ISZERO DUP5 DUP10 PUSH2 0x2432 JUMP JUMPDEST DUP4 PUSH1 0x64 SWAP3 MLOAD SWAP2 PUSH3 0x461BCD PUSH1 0xE5 SHL DUP4 MSTORE DUP3 ADD MSTORE PUSH1 0x18 PUSH1 0x24 DUP3 ADD MSTORE PUSH32 0x4D75737420626520616E20616374697665206D656D6265720000000000000000 PUSH1 0x44 DUP3 ADD MSTORE REVERT JUMPDEST POP SWAP2 CALLVALUE PUSH2 0x27B JUMPI PUSH1 0x20 CALLDATASIZE PUSH1 0x3 NOT ADD SLT PUSH2 0x27B JUMPI SWAP2 DUP2 SWAP3 CALLDATALOAD DUP2 MSTORE PUSH1 0x6 PUSH1 0x20 MSTORE KECCAK256 PUSH2 0x265 PUSH1 0xFF PUSH1 0x1 PUSH2 0x26A7 DUP5 PUSH2 0x2A09 JUMP JUMPDEST SWAP4 ADD SLOAD AND SWAP3 MLOAD SWAP3 DUP4 SWAP3 DUP4 PUSH2 0x2AF6 JUMP JUMPDEST POP SWAP1 CALLVALUE PUSH2 0x2A8 JUMPI PUSH1 0x20 CALLDATASIZE PUSH1 0x3 NOT ADD SLT PUSH2 0x2A8 JUMPI PUSH1 0x20 SWAP1 PUSH2 0xD0E PUSH2 0x26D7 PUSH2 0x2871 JUMP JUMPDEST PUSH2 0x3164 JUMP JUMPDEST POP SWAP2 SWAP1 CALLVALUE PUSH2 0x27B JUMPI PUSH1 0x20 SWAP2 DUP3 PUSH1 0x3 NOT CALLDATASIZE ADD SLT PUSH2 0x359 JUMPI DUP1 CALLDATALOAD SWAP1 PUSH8 0xFFFFFFFFFFFFFFFF DUP3 GT PUSH2 0x54F JUMPI PUSH2 0x1CCA DUP5 SWAP2 PUSH2 0x2715 SWAP4 CALLDATASIZE SWAP2 ADD PUSH2 0x2933 JUMP JUMPDEST DUP2 ADD PUSH1 0x7 DUP2 MSTORE SUB ADD SWAP1 KECCAK256 SWAP3 DUP2 MLOAD DUP1 SWAP4 DUP1 DUP7 SLOAD SWAP3 DUP4 DUP2 MSTORE ADD SWAP6 DUP4 MSTORE DUP1 DUP4 KECCAK256 SWAP3 SWAP1 JUMPDEST DUP3 DUP3 LT PUSH2 0x274D JUMPI PUSH2 0x265 DUP7 DUP7 PUSH2 0x636 DUP3 DUP12 SUB DUP4 PUSH2 0x28BE JUMP JUMPDEST DUP4 SLOAD DUP8 MSTORE SWAP6 DUP7 ADD SWAP6 PUSH1 0x1 SWAP4 DUP5 ADD SWAP4 SWAP1 SWAP2 ADD SWAP1 PUSH2 0x2735 JUMP JUMPDEST POP SWAP1 CALLVALUE PUSH2 0x2A8 JUMPI PUSH1 0x20 SWAP1 PUSH2 0xD0E PUSH2 0x277A CALLDATASIZE PUSH2 0x2951 JUMP JUMPDEST SWAP1 PUSH2 0x2C9D JUMP JUMPDEST POP SWAP2 CALLVALUE PUSH2 0x27B JUMPI PUSH1 0x20 CALLDATASIZE PUSH1 0x3 NOT ADD SLT PUSH2 0x27B JUMPI PUSH2 0x279B PUSH2 0x2871 JUMP JUMPDEST PUSH1 0x1 PUSH1 0x1 PUSH1 0xA0 SHL SUB SWAP1 PUSH2 0x27B2 DUP3 DUP7 SLOAD AND CALLER EQ PUSH2 0x2C07 JUMP JUMPDEST AND SWAP1 DUP2 DUP5 MSTORE PUSH1 0x1 PUSH1 0x20 MSTORE PUSH2 0x27CA DUP4 DUP6 KECCAK256 SLOAD ISZERO ISZERO PUSH2 0x2C52 JUMP JUMPDEST DUP2 DUP5 MSTORE PUSH1 0x1 PUSH1 0x20 MSTORE PUSH1 0xFF PUSH1 0x1 DUP5 DUP7 KECCAK256 ADD SLOAD AND ISZERO PUSH2 0x27FA JUMPI POP DUP3 MSTORE PUSH1 0x1 PUSH1 0x20 DUP2 SWAP1 MSTORE SWAP1 DUP3 KECCAK256 ADD DUP1 SLOAD PUSH1 0xFF NOT AND SWAP1 SSTORE DUP1 RETURN JUMPDEST PUSH1 0x64 SWAP1 PUSH1 0x20 DUP5 MLOAD SWAP2 PUSH3 0x461BCD PUSH1 0xE5 SHL DUP4 MSTORE DUP3 ADD MSTORE PUSH1 0x17 PUSH1 0x24 DUP3 ADD MSTORE PUSH32 0x57616C6C657420616C726561647920696E616374697665000000000000000000 PUSH1 0x44 DUP3 ADD MSTORE REVERT JUMPDEST SWAP1 POP DUP3 CALLVALUE PUSH2 0x27B JUMPI PUSH1 0x20 CALLDATASIZE PUSH1 0x3 NOT ADD SLT PUSH2 0x27B JUMPI PUSH1 0x20 SWAP3 PUSH1 0x1 PUSH1 0x1 PUSH1 0xA0 SHL SUB PUSH2 0x2864 PUSH2 0x2871 JUMP JUMPDEST AND DUP2 MSTORE PUSH1 0x1 DUP5 MSTORE KECCAK256 SLOAD DUP2 MSTORE RETURN JUMPDEST PUSH1 0x4 CALLDATALOAD SWAP1 PUSH1 0x1 PUSH1 0x1 PUSH1 0xA0 SHL SUB DUP3 AND DUP3 SUB PUSH2 0x2887 JUMPI JUMP JUMPDEST PUSH1 0x0 DUP1 REVERT JUMPDEST PUSH1 0x40 DUP2 ADD SWAP1 DUP2 LT PUSH8 0xFFFFFFFFFFFFFFFF DUP3 GT OR PUSH2 0x28A8 JUMPI PUSH1 0x40 MSTORE JUMP JUMPDEST PUSH4 0x4E487B71 PUSH1 0xE0 SHL PUSH1 0x0 MSTORE PUSH1 0x41 PUSH1 0x4 MSTORE PUSH1 0x24 PUSH1 0x0 REVERT JUMPDEST SWAP1 PUSH1 0x1F DUP1 NOT SWAP2 ADD AND DUP2 ADD SWAP1 DUP2 LT PUSH8 0xFFFFFFFFFFFFFFFF DUP3 GT OR PUSH2 0x28A8 JUMPI PUSH1 0x40 MSTORE JUMP JUMPDEST PUSH8 0xFFFFFFFFFFFFFFFF DUP2 GT PUSH2 0x28A8 JUMPI PUSH1 0x1F ADD PUSH1 0x1F NOT AND PUSH1 0x20 ADD SWAP1 JUMP JUMPDEST SWAP3 SWAP2 SWAP3 PUSH2 0x2908 DUP3 PUSH2 0x28E0 JUMP JUMPDEST SWAP2 PUSH2 0x2916 PUSH1 0x40 MLOAD SWAP4 DUP5 PUSH2 0x28BE JUMP JUMPDEST DUP3 SWAP5 DUP2 DUP5 MSTORE DUP2 DUP4 ADD GT PUSH2 0x2887 JUMPI DUP3 DUP2 PUSH1 0x20 SWAP4 DUP5 PUSH1 0x0 SWAP7 ADD CALLDATACOPY ADD ADD MSTORE JUMP JUMPDEST SWAP1 DUP1 PUSH1 0x1F DUP4 ADD SLT ISZERO PUSH2 0x2887 JUMPI DUP2 PUSH1 0x20 PUSH2 0x294E SWAP4 CALLDATALOAD SWAP2 ADD PUSH2 0x28FC JUMP JUMPDEST SWAP1 JUMP JUMPDEST PUSH1 0x40 PUSH1 0x3 NOT DUP3 ADD SLT PUSH2 0x2887 JUMPI PUSH1 0x4 CALLDATALOAD SWAP1 PUSH8 0xFFFFFFFFFFFFFFFF DUP3 GT PUSH2 0x2887 JUMPI PUSH2 0x297C SWAP2 PUSH1 0x4 ADD PUSH2 0x2933 JUMP JUMPDEST SWAP1 PUSH1 0x24 CALLDATALOAD PUSH1 0x1 PUSH1 0x1 PUSH1 0xA0 SHL SUB DUP2 AND DUP2 SUB PUSH2 0x2887 JUMPI SWAP1 JUMP JUMPDEST PUSH1 0x20 SWAP1 PUSH1 0x20 PUSH1 0x40 DUP2 DUP4 ADD SWAP3 DUP3 DUP2 MSTORE DUP6 MLOAD DUP1 SWAP5 MSTORE ADD SWAP4 ADD SWAP2 PUSH1 0x0 JUMPDEST DUP3 DUP2 LT PUSH2 0x29BB JUMPI POP POP POP POP SWAP1 JUMP JUMPDEST DUP4 MLOAD DUP6 MSTORE SWAP4 DUP2 ADD SWAP4 SWAP3 DUP2 ADD SWAP3 PUSH1 0x1 ADD PUSH2 0x29AD JUMP JUMPDEST SWAP1 PUSH1 0x1 DUP3 DUP2 SHR SWAP3 AND DUP1 ISZERO PUSH2 0x29FF JUMPI JUMPDEST PUSH1 0x20 DUP4 LT EQ PUSH2 0x29E9 JUMPI JUMP JUMPDEST PUSH4 0x4E487B71 PUSH1 0xE0 SHL PUSH1 0x0 MSTORE PUSH1 0x22 PUSH1 0x4 MSTORE PUSH1 0x24 PUSH1 0x0 REVERT JUMPDEST SWAP2 PUSH1 0x7F AND SWAP2 PUSH2 0x29DE JUMP JUMPDEST SWAP1 PUSH1 0x40 MLOAD SWAP2 DUP3 PUSH1 0x0 DUP3 SLOAD PUSH2 0x2A1C DUP2 PUSH2 0x29CF JUMP JUMPDEST SWAP1 DUP2 DUP5 MSTORE PUSH1 0x20 SWAP5 PUSH1 0x1 SWAP2 PUSH1 0x1 DUP2 AND SWAP1 DUP2 PUSH1 0x0 EQ PUSH2 0x2A8C JUMPI POP PUSH1 0x1 EQ PUSH2 0x2A4D JUMPI JUMPDEST POP POP POP PUSH2 0x2A4B SWAP3 POP SUB DUP4 PUSH2 0x28BE JUMP JUMPDEST JUMP JUMPDEST PUSH1 0x0 SWAP1 DUP2 MSTORE DUP6 DUP2 KECCAK256 SWAP6 SWAP4 POP SWAP2 SWAP1 JUMPDEST DUP2 DUP4 LT PUSH2 0x2A74 JUMPI POP POP PUSH2 0x2A4B SWAP4 POP DUP3 ADD ADD CODESIZE DUP1 DUP1 PUSH2 0x2A3C JUMP JUMPDEST DUP6 SLOAD DUP9 DUP5 ADD DUP6 ADD MSTORE SWAP5 DUP6 ADD SWAP5 DUP8 SWAP5 POP SWAP2 DUP4 ADD SWAP2 PUSH2 0x2A5B JUMP JUMPDEST SWAP3 POP POP POP PUSH2 0x2A4B SWAP5 SWAP3 POP PUSH1 0xFF NOT AND DUP3 DUP5 ADD MSTORE ISZERO ISZERO PUSH1 0x5 SHL DUP3 ADD ADD CODESIZE DUP1 DUP1 PUSH2 0x2A3C JUMP JUMPDEST PUSH1 0x0 JUMPDEST DUP4 DUP2 LT PUSH2 0x2AC1 JUMPI POP POP PUSH1 0x0 SWAP2 ADD MSTORE JUMP JUMPDEST DUP2 DUP2 ADD MLOAD DUP4 DUP3 ADD MSTORE PUSH1 0x20 ADD PUSH2 0x2AB1 JUMP JUMPDEST SWAP1 PUSH1 0x20 SWAP2 PUSH2 0x2AEA DUP2 MLOAD DUP1 SWAP3 DUP2 DUP6 MSTORE DUP6 DUP1 DUP7 ADD SWAP2 ADD PUSH2 0x2AAE JUMP JUMPDEST PUSH1 0x1F ADD PUSH1 0x1F NOT AND ADD ADD SWAP1 JUMP JUMPDEST SWAP1 PUSH2 0x2B0E PUSH1 0x20 SWAP2 SWAP5 SWAP4 SWAP5 PUSH1 0x40 DUP5 MSTORE PUSH1 0x40 DUP5 ADD SWAP1 PUSH2 0x2AD1 JUMP JUMPDEST SWAP4 ISZERO ISZERO SWAP2 ADD MSTORE JUMP JUMPDEST PUSH1 0x60 PUSH1 0x3 NOT DUP3 ADD SLT PUSH2 0x2887 JUMPI PUSH8 0xFFFFFFFFFFFFFFFF SWAP2 PUSH1 0x4 CALLDATALOAD DUP4 DUP2 GT PUSH2 0x2887 JUMPI DUP3 PUSH2 0x2B43 SWAP2 PUSH1 0x4 ADD PUSH2 0x2933 JUMP JUMPDEST SWAP3 PUSH1 0x24 CALLDATALOAD PUSH1 0x1 PUSH1 0x1 PUSH1 0xA0 SHL SUB DUP2 AND DUP2 SUB PUSH2 0x2887 JUMPI SWAP3 PUSH1 0x44 CALLDATALOAD SWAP2 DUP3 GT PUSH2 0x2887 JUMPI PUSH2 0x294E SWAP2 PUSH1 0x4 ADD PUSH2 0x2933 JUMP JUMPDEST SWAP1 PUSH1 0x5 DUP3 LT ISZERO PUSH2 0x2B7B JUMPI MSTORE JUMP JUMPDEST PUSH4 0x4E487B71 PUSH1 0xE0 SHL PUSH1 0x0 MSTORE PUSH1 0x21 PUSH1 0x4 MSTORE PUSH1 0x24 PUSH1 0x0 REVERT JUMPDEST PUSH1 0x40 SWAP1 PUSH1 0x3 NOT ADD SLT PUSH2 0x2887 JUMPI PUSH1 0x4 CALLDATALOAD SWAP1 PUSH1 0x24 CALLDATALOAD SWAP1 JUMP JUMPDEST DUP1 SLOAD DUP3 LT ISZERO PUSH2 0x2BBF JUMPI PUSH1 0x0 MSTORE PUSH1 0x20 PUSH1 0x0 KECCAK256 ADD SWAP1 PUSH1 0x0 SWAP1 JUMP JUMPDEST PUSH4 0x4E487B71 PUSH1 0xE0 SHL PUSH1 0x0 MSTORE PUSH1 0x32 PUSH1 0x4 MSTORE PUSH1 0x24 PUSH1 0x0 REVERT JUMPDEST PUSH1 0x40 PUSH1 0x3 NOT DUP3 ADD SLT PUSH2 0x2887 JUMPI PUSH1 0x4 CALLDATALOAD SWAP1 PUSH8 0xFFFFFFFFFFFFFFFF DUP3 GT PUSH2 0x2887 JUMPI PUSH2 0x2C00 SWAP2 PUSH1 0x4 ADD PUSH2 0x2933 JUMP JUMPDEST SWAP1 PUSH1 0x24 CALLDATALOAD SWAP1 JUMP JUMPDEST ISZERO PUSH2 0x2C0E JUMPI JUMP JUMPDEST PUSH1 0x64 PUSH1 0x40 MLOAD PUSH3 0x461BCD PUSH1 0xE5 SHL DUP2 MSTORE PUSH1 0x20 PUSH1 0x4 DUP3 ADD MSTORE PUSH1 0xA PUSH1 0x24 DUP3 ADD MSTORE PUSH32 0x4F6E6C792061646D696E00000000000000000000000000000000000000000000 PUSH1 0x44 DUP3 ADD MSTORE REVERT JUMPDEST ISZERO PUSH2 0x2C59 JUMPI JUMP JUMPDEST PUSH1 0x64 PUSH1 0x40 MLOAD PUSH3 0x461BCD PUSH1 0xE5 SHL DUP2 MSTORE PUSH1 0x20 PUSH1 0x4 DUP3 ADD MSTORE PUSH1 0x15 PUSH1 0x24 DUP3 ADD MSTORE PUSH32 0x57616C6C6574206E6F7420726567697374657265640000000000000000000000 PUSH1 0x44 DUP3 ADD MSTORE REVERT JUMPDEST SWAP1 PUSH1 0x1 PUSH1 0x1 PUSH1 0xA0 SHL SUB AND PUSH1 0x0 MSTORE PUSH1 0x1 PUSH1 0x20 MSTORE PUSH1 0x40 PUSH1 0x0 KECCAK256 SLOAD DUP1 ISZERO PUSH2 0x2CDB JUMPI PUSH2 0x2CC4 SWAP2 PUSH2 0x354D JUMP JUMPDEST PUSH1 0x0 MSTORE PUSH1 0x6 PUSH1 0x20 MSTORE PUSH1 0xFF PUSH1 0x1 PUSH1 0x40 PUSH1 0x0 KECCAK256 ADD SLOAD AND SWAP1 JUMP JUMPDEST POP POP PUSH1 0x0 SWAP1 JUMP JUMPDEST ISZERO PUSH2 0x2CE9 JUMPI JUMP JUMPDEST PUSH1 0x64 PUSH1 0x40 MLOAD PUSH3 0x461BCD PUSH1 0xE5 SHL DUP2 MSTORE PUSH1 0x20 PUSH1 0x4 DUP3 ADD MSTORE PUSH1 0x19 PUSH1 0x24 DUP3 ADD MSTORE PUSH32 0x5265636F72642049442063616E6E6F7420626520656D70747900000000000000 PUSH1 0x44 DUP3 ADD MSTORE REVERT JUMPDEST ISZERO PUSH2 0x2D34 JUMPI JUMP JUMPDEST PUSH1 0x64 PUSH1 0x40 MLOAD PUSH3 0x461BCD PUSH1 0xE5 SHL DUP2 MSTORE PUSH1 0x20 PUSH1 0x4 DUP3 ADD MSTORE PUSH1 0x16 PUSH1 0x24 DUP3 ADD MSTORE PUSH32 0x496E76616C69642077616C6C6574206164647265737300000000000000000000 PUSH1 0x44 DUP3 ADD MSTORE REVERT JUMPDEST ISZERO PUSH2 0x2D7F JUMPI JUMP JUMPDEST PUSH1 0x64 PUSH1 0x40 MLOAD PUSH3 0x461BCD PUSH1 0xE5 SHL DUP2 MSTORE PUSH1 0x20 PUSH1 0x4 DUP3 ADD MSTORE PUSH1 0x13 PUSH1 0x24 DUP3 ADD MSTORE PUSH32 0x496E76616C696420726F6C6520737472696E6700000000000000000000000000 PUSH1 0x44 DUP3 ADD MSTORE REVERT JUMPDEST DUP1 SLOAD SWAP1 PUSH9 0x10000000000000000 DUP3 LT ISZERO PUSH2 0x28A8 JUMPI DUP2 PUSH2 0x2DEA SWAP2 PUSH1 0x1 PUSH2 0x2E01 SWAP5 ADD DUP2 SSTORE PUSH2 0x2BA7 JUMP JUMPDEST DUP2 SWAP4 SWAP2 SLOAD SWAP1 PUSH1 0x3 SHL SWAP2 DUP3 SHL SWAP2 PUSH1 0x0 NOT SWAP1 SHL NOT AND OR SWAP1 JUMP JUMPDEST SWAP1 SSTORE JUMP JUMPDEST PUSH1 0x0 NOT DUP2 EQ PUSH2 0x2E14 JUMPI PUSH1 0x1 ADD SWAP1 JUMP JUMPDEST PUSH4 0x4E487B71 PUSH1 0xE0 SHL PUSH1 0x0 MSTORE PUSH1 0x11 PUSH1 0x4 MSTORE PUSH1 0x24 PUSH1 0x0 REVERT JUMPDEST ISZERO PUSH2 0x2E31 JUMPI JUMP JUMPDEST PUSH1 0x64 PUSH1 0x40 MLOAD PUSH3 0x461BCD PUSH1 0xE5 SHL DUP2 MSTORE PUSH1 0x20 PUSH1 0x4 DUP3 ADD MSTORE PUSH1 0x1D PUSH1 0x24 DUP3 ADD MSTORE PUSH32 0x57616C6C657420616464726573732063616E6E6F74206265207A65726F000000 PUSH1 0x44 DUP3 ADD MSTORE REVERT JUMPDEST ISZERO PUSH2 0x2E7C JUMPI JUMP JUMPDEST PUSH1 0x64 PUSH1 0x40 MLOAD PUSH3 0x461BCD PUSH1 0xE5 SHL DUP2 MSTORE PUSH1 0x20 PUSH1 0x4 DUP3 ADD MSTORE PUSH1 0x1C PUSH1 0x24 DUP3 ADD MSTORE PUSH32 0x5461726765742077616C6C6574206E6F74207265676973746572656400000000 PUSH1 0x44 DUP3 ADD MSTORE REVERT JUMPDEST ISZERO PUSH2 0x2EC7 JUMPI JUMP JUMPDEST PUSH1 0x84 PUSH1 0x40 MLOAD PUSH3 0x461BCD PUSH1 0xE5 SHL DUP2 MSTORE PUSH1 0x20 PUSH1 0x4 DUP3 ADD MSTORE PUSH1 0x23 PUSH1 0x24 DUP3 ADD MSTORE PUSH32 0x54617267657420646F6573206E6F74206861766520616E206163746976652072 PUSH1 0x44 DUP3 ADD MSTORE PUSH32 0x6F6C650000000000000000000000000000000000000000000000000000000000 PUSH1 0x64 DUP3 ADD MSTORE REVERT JUMPDEST PUSH1 0x40 MLOAD SWAP1 PUSH2 0x2F3E DUP3 PUSH2 0x288C JUMP JUMPDEST PUSH1 0x5 DUP3 MSTORE PUSH32 0x6F776E6572000000000000000000000000000000000000000000000000000000 PUSH1 0x20 DUP4 ADD MSTORE JUMP JUMPDEST PUSH1 0x40 MLOAD SWAP1 PUSH2 0x2F77 DUP3 PUSH2 0x288C JUMP JUMPDEST PUSH1 0xD DUP3 MSTORE PUSH32 0x61646D696E6973747261746F7200000000000000000000000000000000000000 PUSH1 0x20 DUP4 ADD MSTORE JUMP JUMPDEST PUSH2 0x2FBB SWAP1 PUSH1 0x20 PUSH1 0x40 MLOAD SWAP3 DUP3 DUP5 DUP1 SWAP5 MLOAD SWAP4 DUP5 SWAP3 ADD PUSH2 0x2AAE JUMP JUMPDEST DUP2 ADD SUB SWAP1 KECCAK256 SWAP1 JUMP JUMPDEST SWAP1 PUSH1 0x1 PUSH1 0x1 PUSH1 0xA0 SHL SUB AND PUSH1 0x0 MSTORE PUSH1 0x1 PUSH1 0x20 MSTORE PUSH1 0x40 PUSH1 0x0 KECCAK256 SLOAD SWAP1 DUP2 ISZERO PUSH2 0x2CDB JUMPI PUSH2 0x2FF4 PUSH2 0x2FED PUSH2 0x2F31 JUMP JUMPDEST DUP4 DUP4 PUSH2 0x3588 JUMP JUMPDEST SWAP2 DUP3 ISZERO PUSH2 0x3000 JUMPI POP POP SWAP1 JUMP JUMPDEST PUSH2 0x294E SWAP3 POP PUSH2 0x300D PUSH2 0x2F6A JUMP JUMPDEST SWAP2 PUSH2 0x3588 JUMP JUMPDEST ISZERO PUSH2 0x301A JUMPI JUMP JUMPDEST PUSH1 0x64 PUSH1 0x40 MLOAD PUSH3 0x461BCD PUSH1 0xE5 SHL DUP2 MSTORE PUSH1 0x20 PUSH1 0x4 DUP3 ADD MSTORE PUSH1 0x14 PUSH1 0x24 DUP3 ADD MSTORE PUSH32 0x4E6F7420616E20616374697665206D656D626572000000000000000000000000 PUSH1 0x44 DUP3 ADD MSTORE REVERT JUMPDEST PUSH1 0x40 MLOAD SWAP1 PUSH2 0x306B DUP3 PUSH2 0x288C JUMP JUMPDEST PUSH1 0x6 DUP3 MSTORE PUSH32 0x7669657765720000000000000000000000000000000000000000000000000000 PUSH1 0x20 DUP4 ADD MSTORE JUMP JUMPDEST SWAP2 SWAP1 PUSH1 0x1 PUSH1 0x1 PUSH1 0xA0 SHL SUB AND PUSH1 0x0 MSTORE PUSH1 0x1 PUSH1 0x20 MSTORE PUSH1 0x40 PUSH1 0x0 KECCAK256 SLOAD DUP1 ISZERO PUSH2 0x30BF JUMPI PUSH2 0x294E SWAP3 PUSH2 0x3588 JUMP JUMPDEST POP POP POP PUSH1 0x0 SWAP1 JUMP JUMPDEST SWAP2 SWAP1 SWAP2 PUSH1 0x1 PUSH1 0x1 PUSH1 0xA0 SHL SUB PUSH1 0x0 SWAP4 AND DUP4 MSTORE PUSH1 0x1 PUSH1 0x20 MSTORE PUSH1 0x40 DUP4 KECCAK256 SLOAD SWAP1 DUP2 ISZERO PUSH2 0x312A JUMPI SWAP3 PUSH2 0x30F8 PUSH1 0x40 SWAP3 PUSH1 0x20 SWAP6 PUSH2 0x354D JUMP JUMPDEST DUP2 MSTORE PUSH1 0x6 DUP5 MSTORE KECCAK256 PUSH1 0x40 MLOAD PUSH2 0x310B DUP2 PUSH2 0x288C JUMP JUMPDEST PUSH1 0xFF PUSH1 0x1 PUSH2 0x3118 DUP5 PUSH2 0x2A09 JUMP JUMPDEST SWAP4 DUP5 DUP5 MSTORE ADD SLOAD AND ISZERO ISZERO SWAP4 DUP5 SWAP2 ADD MSTORE SWAP2 SWAP1 JUMP JUMPDEST POP POP PUSH1 0x40 MLOAD PUSH1 0x20 DUP2 ADD DUP2 DUP2 LT PUSH8 0xFFFFFFFFFFFFFFFF DUP3 GT OR PUSH2 0x3150 JUMPI PUSH1 0x40 MSTORE DUP3 DUP2 MSTORE SWAP2 SWAP1 JUMP JUMPDEST PUSH1 0x24 DUP5 PUSH4 0x4E487B71 PUSH1 0xE0 SHL DUP2 MSTORE PUSH1 0x41 PUSH1 0x4 MSTORE REVERT JUMPDEST PUSH1 0x1 PUSH1 0x1 PUSH1 0xA0 SHL SUB PUSH1 0x0 SWAP2 AND DUP2 MSTORE PUSH1 0x1 PUSH1 0x20 MSTORE PUSH1 0x40 DUP2 KECCAK256 DUP1 SLOAD SWAP1 DUP2 ISZERO SWAP1 DUP2 ISZERO PUSH2 0x31C5 JUMPI JUMPDEST POP PUSH2 0x31C1 JUMPI DUP2 MSTORE PUSH1 0x2 PUSH1 0x20 MSTORE PUSH1 0xFF PUSH1 0x40 DUP3 KECCAK256 SLOAD AND SWAP1 PUSH1 0x5 DUP3 LT ISZERO PUSH2 0x31AD JUMPI POP PUSH1 0x4 EQ SWAP1 JUMP JUMPDEST DUP1 PUSH4 0x4E487B71 PUSH1 0xE0 SHL PUSH1 0x24 SWAP3 MSTORE PUSH1 0x21 PUSH1 0x4 MSTORE REVERT JUMPDEST POP SWAP1 JUMP JUMPDEST PUSH1 0xFF SWAP2 POP PUSH1 0x1 ADD SLOAD AND ISZERO CODESIZE PUSH2 0x3188 JUMP JUMPDEST PUSH1 0x20 DUP2 MLOAD SWAP2 ADD KECCAK256 PUSH2 0x31E4 PUSH2 0x2F31 JUMP JUMPDEST PUSH1 0x20 DUP2 MLOAD SWAP2 ADD KECCAK256 DUP2 EQ SWAP1 DUP2 ISZERO PUSH2 0x3214 JUMPI JUMPDEST DUP2 ISZERO PUSH2 0x31FF JUMPI POP SWAP1 JUMP JUMPDEST SWAP1 POP PUSH2 0x3209 PUSH2 0x305E JUMP JUMPDEST PUSH1 0x20 DUP2 MLOAD SWAP2 ADD KECCAK256 EQ SWAP1 JUMP JUMPDEST SWAP1 POP PUSH2 0x321E PUSH2 0x2F6A JUMP JUMPDEST PUSH1 0x20 DUP2 MLOAD SWAP2 ADD KECCAK256 DUP2 EQ SWAP1 PUSH2 0x31F5 JUMP JUMPDEST PUSH1 0x1 PUSH1 0x1 PUSH1 0xA0 SHL SUB PUSH1 0x0 SWAP2 AND DUP2 MSTORE PUSH1 0x1 PUSH1 0x20 MSTORE PUSH1 0x40 DUP2 KECCAK256 DUP1 SLOAD SWAP1 DUP2 ISZERO SWAP1 DUP2 ISZERO PUSH2 0x3286 JUMPI JUMPDEST POP PUSH2 0x31C1 JUMPI DUP2 MSTORE PUSH1 0x2 PUSH1 0x20 MSTORE PUSH1 0xFF PUSH1 0x40 DUP3 KECCAK256 SLOAD AND SWAP1 PUSH1 0x5 DUP3 LT ISZERO PUSH2 0x31AD JUMPI POP PUSH1 0x1 DUP2 EQ ISZERO SWAP1 DUP2 PUSH2 0x327F JUMPI POP SWAP1 JUMP JUMPDEST SWAP1 POP ISZERO ISZERO SWAP1 JUMP JUMPDEST PUSH1 0xFF SWAP2 POP PUSH1 0x1 ADD SLOAD AND ISZERO CODESIZE PUSH2 0x3251 JUMP JUMPDEST SWAP2 SWAP1 SWAP2 DUP3 MLOAD PUSH8 0xFFFFFFFFFFFFFFFF DUP2 GT PUSH2 0x28A8 JUMPI PUSH2 0x32B4 DUP3 SLOAD PUSH2 0x29CF JUMP JUMPDEST PUSH1 0x1F DUP2 GT PUSH2 0x335F JUMPI JUMPDEST POP PUSH1 0x20 DUP1 PUSH1 0x1F DUP4 GT PUSH1 0x1 EQ PUSH2 0x32FA JUMPI POP DUP2 SWAP3 SWAP4 SWAP5 PUSH1 0x0 SWAP3 PUSH2 0x32EF JUMPI JUMPDEST POP POP DUP2 PUSH1 0x1 SHL SWAP2 PUSH1 0x0 NOT SWAP1 PUSH1 0x3 SHL SHR NOT AND OR SWAP1 SSTORE JUMP JUMPDEST ADD MLOAD SWAP1 POP CODESIZE DUP1 PUSH2 0x32D9 JUMP JUMPDEST SWAP1 PUSH1 0x1F NOT DUP4 AND SWAP6 DUP5 PUSH1 0x0 MSTORE PUSH1 0x20 PUSH1 0x0 KECCAK256 SWAP3 PUSH1 0x0 SWAP1 JUMPDEST DUP9 DUP3 LT PUSH2 0x3347 JUMPI POP POP DUP4 PUSH1 0x1 SWAP6 SWAP7 SWAP8 LT PUSH2 0x332E JUMPI JUMPDEST POP POP POP DUP2 SHL ADD SWAP1 SSTORE JUMP JUMPDEST ADD MLOAD PUSH1 0x0 NOT PUSH1 0xF8 DUP5 PUSH1 0x3 SHL AND SHR NOT AND SWAP1 SSTORE CODESIZE DUP1 DUP1 PUSH2 0x3324 JUMP JUMPDEST DUP1 PUSH1 0x1 DUP6 SWAP7 DUP3 SWAP5 SWAP7 DUP7 ADD MLOAD DUP2 SSTORE ADD SWAP6 ADD SWAP4 ADD SWAP1 PUSH2 0x330F JUMP JUMPDEST PUSH1 0x0 DUP4 PUSH1 0x0 MSTORE PUSH1 0x20 PUSH1 0x0 KECCAK256 PUSH1 0x1F DUP5 ADD PUSH1 0x5 SHR DUP2 ADD SWAP3 PUSH1 0x20 DUP6 LT PUSH2 0x339F JUMPI JUMPDEST PUSH1 0x1F ADD PUSH1 0x5 SHR ADD SWAP2 JUMPDEST DUP3 DUP2 LT PUSH2 0x3394 JUMPI POP POP PUSH2 0x32BD JUMP JUMPDEST DUP2 DUP2 SSTORE PUSH1 0x1 ADD PUSH2 0x3386 JUMP JUMPDEST SWAP1 SWAP3 POP DUP3 SWAP1 PUSH2 0x337D JUMP JUMPDEST SWAP1 SWAP2 PUSH2 0x33B5 DUP4 DUP4 PUSH2 0x354D JUMP JUMPDEST PUSH1 0x0 SWAP3 DUP2 DUP5 MSTORE PUSH1 0x20 SWAP4 PUSH1 0x6 DUP6 MSTORE PUSH1 0x40 SWAP3 DUP4 DUP3 KECCAK256 SWAP1 PUSH2 0x33D2 DUP3 PUSH2 0x2A09 JUMP JUMPDEST SWAP1 PUSH2 0x340E PUSH1 0xFF PUSH1 0x1 DUP5 MLOAD ISZERO SWAP6 ADD SLOAD AND SWAP2 PUSH1 0x1 DUP9 MLOAD SWAP2 PUSH2 0x33F0 DUP4 PUSH2 0x288C JUMP JUMPDEST DUP11 DUP4 MSTORE DUP12 DUP4 ADD SWAP1 DUP3 DUP3 MSTORE DUP9 MSTORE PUSH1 0x6 DUP13 MSTORE PUSH2 0x2492 DUP11 DUP10 KECCAK256 SWAP4 MLOAD DUP5 PUSH2 0x3296 JUMP JUMPDEST PUSH2 0x3514 JUMPI POP PUSH2 0x341E DUP6 DUP9 DUP6 PUSH2 0x3709 JUMP JUMPDEST PUSH2 0x346F JUMPI JUMPDEST POP SWAP1 PUSH2 0x3450 PUSH32 0x2A27F0A20E4DF4738F3A8E2449B014D439E7CE0A97EE5860771C25CBAFA1CFEB SWAP4 SWAP3 PUSH2 0x2FA3 JUMP JUMPDEST SWAP4 PUSH2 0x3464 DUP3 MLOAD SWAP4 DUP4 DUP6 SWAP5 DUP6 MSTORE DUP5 ADD SWAP1 PUSH2 0x2AD1 JUMP JUMPDEST SWAP1 TIMESTAMP SWAP1 DUP4 ADD MSTORE SUB SWAP1 LOG4 JUMP JUMPDEST DUP6 DUP2 MSTORE PUSH1 0xA DUP6 MSTORE DUP3 DUP2 KECCAK256 DUP1 SLOAD SWAP1 PUSH9 0x10000000000000000 DUP3 LT ISZERO PUSH2 0x3500 JUMPI SWAP1 PUSH2 0x349D SWAP2 PUSH1 0x1 DUP3 ADD DUP2 SSTORE PUSH2 0x2BA7 JUMP JUMPDEST SWAP2 SWAP1 SWAP2 PUSH2 0x34ED JUMPI POP DUP2 PUSH2 0x34D6 PUSH32 0x2A27F0A20E4DF4738F3A8E2449B014D439E7CE0A97EE5860771C25CBAFA1CFEB SWAP6 SWAP5 SWAP4 PUSH2 0x3450 SWAP4 PUSH2 0x3296 JUMP JUMPDEST PUSH2 0x34E1 PUSH1 0xB SLOAD PUSH2 0x2E05 JUMP JUMPDEST PUSH1 0xB SSTORE SWAP2 SWAP3 SWAP4 POP PUSH2 0x3423 JUMP JUMPDEST DUP1 PUSH4 0x4E487B71 PUSH1 0xE0 SHL PUSH1 0x24 SWAP3 MSTORE DUP1 PUSH1 0x4 MSTORE REVERT JUMPDEST PUSH1 0x24 DUP4 PUSH4 0x4E487B71 PUSH1 0xE0 SHL DUP2 MSTORE PUSH1 0x41 PUSH1 0x4 MSTORE REVERT JUMPDEST SWAP8 POP POP POP SWAP2 SWAP4 SWAP3 SWAP1 POP DUP5 MLOAD DUP2 DUP7 ADD KECCAK256 SWAP1 DUP5 MLOAD SWAP1 DUP6 ADD KECCAK256 SUB PUSH2 0x3536 JUMPI JUMPDEST POP POP POP POP JUMP JUMPDEST PUSH2 0x25C0 PUSH2 0x3544 SWAP5 DUP4 DUP4 PUSH2 0x35E8 JUMP JUMPDEST CODESIZE DUP1 DUP1 DUP1 PUSH2 0x3530 JUMP JUMPDEST SWAP1 PUSH2 0x3582 PUSH1 0x40 DUP1 MLOAD DUP1 SWAP4 PUSH1 0x20 PUSH2 0x356C DUP2 DUP5 ADD SWAP8 DUP9 DUP2 MLOAD SWAP4 DUP5 SWAP3 ADD PUSH2 0x2AAE JUMP JUMPDEST DUP3 ADD SWAP1 PUSH1 0x20 DUP3 ADD MSTORE SUB PUSH1 0x20 DUP2 ADD DUP5 MSTORE ADD DUP3 PUSH2 0x28BE JUMP JUMPDEST MLOAD SWAP1 KECCAK256 SWAP1 JUMP JUMPDEST PUSH1 0x20 SWAP3 SWAP2 PUSH2 0x3595 SWAP2 PUSH2 0x354D JUMP JUMPDEST PUSH1 0x0 MSTORE PUSH1 0x6 DUP3 MSTORE PUSH1 0x40 PUSH1 0x0 KECCAK256 PUSH1 0x40 MLOAD PUSH2 0x35AD DUP2 PUSH2 0x288C JUMP JUMPDEST PUSH1 0xFF PUSH1 0x1 PUSH2 0x35BA DUP5 PUSH2 0x2A09 JUMP JUMPDEST SWAP4 DUP5 DUP5 MSTORE ADD SLOAD AND ISZERO ISZERO SWAP4 DUP5 SWAP2 ADD MSTORE DUP3 PUSH2 0x35D2 JUMPI POP POP SWAP1 JUMP JUMPDEST SWAP1 SWAP2 POP PUSH1 0x20 DUP2 MLOAD SWAP2 ADD KECCAK256 SWAP1 PUSH1 0x20 DUP2 MLOAD SWAP2 ADD KECCAK256 EQ SWAP1 JUMP JUMPDEST DUP3 MLOAD PUSH1 0x20 DUP1 SWAP5 ADD KECCAK256 PUSH2 0x35F8 PUSH2 0x2F31 JUMP JUMPDEST DUP1 MLOAD SWAP1 DUP6 ADD KECCAK256 DUP2 SUB PUSH2 0x362F JUMPI POP DUP3 PUSH2 0x3620 SWAP2 PUSH2 0x2A4B SWAP5 PUSH1 0x40 MLOAD SWAP4 DUP3 DUP6 DUP1 SWAP5 MLOAD SWAP4 DUP5 SWAP3 ADD PUSH2 0x2AAE JUMP JUMPDEST DUP2 ADD PUSH1 0x7 DUP2 MSTORE SUB ADD SWAP1 KECCAK256 PUSH2 0x37D1 JUMP JUMPDEST PUSH2 0x3637 PUSH2 0x2F6A JUMP JUMPDEST DUP1 MLOAD SWAP1 DUP6 ADD KECCAK256 DUP2 SUB PUSH2 0x366E JUMPI POP DUP3 PUSH2 0x365F SWAP2 PUSH2 0x2A4B SWAP5 PUSH1 0x40 MLOAD SWAP4 DUP3 DUP6 DUP1 SWAP5 MLOAD SWAP4 DUP5 SWAP3 ADD PUSH2 0x2AAE JUMP JUMPDEST DUP2 ADD PUSH1 0x8 DUP2 MSTORE SUB ADD SWAP1 KECCAK256 PUSH2 0x37D1 JUMP JUMPDEST PUSH2 0x3676 PUSH2 0x305E JUMP JUMPDEST DUP5 DUP2 MLOAD SWAP2 ADD KECCAK256 EQ PUSH2 0x3686 JUMPI POP POP POP JUMP JUMPDEST DUP3 PUSH2 0x36A1 SWAP2 PUSH2 0x2A4B SWAP5 PUSH1 0x40 MLOAD SWAP4 DUP3 DUP6 DUP1 SWAP5 MLOAD SWAP4 DUP5 SWAP3 ADD PUSH2 0x2AAE JUMP JUMPDEST DUP2 ADD PUSH1 0x9 DUP2 MSTORE SUB ADD SWAP1 KECCAK256 PUSH2 0x37D1 JUMP JUMPDEST PUSH1 0x1 PUSH1 0x1 PUSH1 0xA0 SHL SUB PUSH1 0x0 SWAP2 AND DUP2 MSTORE PUSH1 0x1 PUSH1 0x20 MSTORE PUSH1 0x40 DUP2 KECCAK256 DUP1 SLOAD SWAP1 DUP2 ISZERO SWAP1 DUP2 ISZERO PUSH2 0x36F9 JUMPI JUMPDEST POP PUSH2 0x31C1 JUMPI DUP2 MSTORE PUSH1 0x2 PUSH1 0x20 MSTORE PUSH1 0xFF PUSH1 0x40 DUP3 KECCAK256 SLOAD AND SWAP1 PUSH1 0x5 DUP3 LT ISZERO PUSH2 0x31AD JUMPI POP PUSH1 0x3 EQ SWAP1 JUMP JUMPDEST PUSH1 0xFF SWAP2 POP PUSH1 0x1 ADD SLOAD AND ISZERO CODESIZE PUSH2 0x36D4 JUMP JUMPDEST DUP3 MLOAD PUSH1 0x20 DUP1 SWAP5 ADD KECCAK256 PUSH2 0x3719 PUSH2 0x2F31 JUMP JUMPDEST DUP1 MLOAD SWAP1 DUP6 ADD KECCAK256 DUP2 SUB PUSH2 0x3750 JUMPI POP DUP3 PUSH2 0x3741 SWAP2 PUSH2 0x2A4B SWAP5 PUSH1 0x40 MLOAD SWAP4 DUP3 DUP6 DUP1 SWAP5 MLOAD SWAP4 DUP5 SWAP3 ADD PUSH2 0x2AAE JUMP JUMPDEST DUP2 ADD PUSH1 0x7 DUP2 MSTORE SUB ADD SWAP1 KECCAK256 PUSH2 0x2DC3 JUMP JUMPDEST PUSH2 0x3758 PUSH2 0x2F6A JUMP JUMPDEST DUP1 MLOAD SWAP1 DUP6 ADD KECCAK256 DUP2 SUB PUSH2 0x378F JUMPI POP DUP3 PUSH2 0x3780 SWAP2 PUSH2 0x2A4B SWAP5 PUSH1 0x40 MLOAD SWAP4 DUP3 DUP6 DUP1 SWAP5 MLOAD SWAP4 DUP5 SWAP3 ADD PUSH2 0x2AAE JUMP JUMPDEST DUP2 ADD PUSH1 0x8 DUP2 MSTORE SUB ADD SWAP1 KECCAK256 PUSH2 0x2DC3 JUMP JUMPDEST PUSH2 0x3797 PUSH2 0x305E JUMP JUMPDEST DUP5 DUP2 MLOAD SWAP2 ADD KECCAK256 EQ PUSH2 0x37A7 JUMPI POP POP POP JUMP JUMPDEST DUP3 PUSH2 0x37C2 SWAP2 PUSH2 0x2A4B SWAP5 PUSH1 0x40 MLOAD SWAP4 DUP3 DUP6 DUP1 SWAP5 MLOAD SWAP4 DUP5 SWAP3 ADD PUSH2 0x2AAE JUMP JUMPDEST DUP2 ADD PUSH1 0x9 DUP2 MSTORE SUB ADD SWAP1 KECCAK256 PUSH2 0x2DC3 JUMP JUMPDEST PUSH1 0x0 JUMPDEST DUP2 SLOAD SWAP1 DUP2 DUP2 LT ISZERO PUSH2 0x3530 JUMPI DUP4 SWAP2 PUSH2 0x37EB DUP3 DUP6 PUSH2 0x2BA7 JUMP JUMPDEST SWAP6 SWAP1 SLOAD PUSH1 0x3 SWAP7 DUP8 SHL SHR EQ PUSH2 0x3805 JUMPI POP SWAP1 SWAP3 POP PUSH1 0x1 ADD PUSH2 0x37D4 JUMP JUMPDEST PUSH1 0x0 NOT SWAP3 POP DUP3 DUP2 ADD SWAP1 DUP2 GT PUSH2 0x2E14 JUMPI PUSH2 0x2DEA PUSH2 0x3824 PUSH2 0x3831 SWAP3 DUP7 PUSH2 0x2BA7 JUMP JUMPDEST SWAP1 SLOAD SWAP1 DUP8 SHL SHR SWAP3 DUP6 PUSH2 0x2BA7 JUMP JUMPDEST SWAP1 SSTORE DUP2 SLOAD DUP1 ISZERO PUSH2 0x3856 JUMPI DUP2 ADD SWAP3 PUSH2 0x3848 DUP5 DUP5 PUSH2 0x2BA7 JUMP JUMPDEST DUP2 SWAP4 SWAP2 SLOAD SWAP3 SHL SHL NOT AND SWAP1 SSTORE SSTORE JUMP JUMPDEST PUSH4 0x4E487B71 PUSH1 0xE0 SHL PUSH1 0x0 MSTORE PUSH1 0x31 PUSH1 0x4 MSTORE PUSH1 0x24 PUSH1 0x0 REVERT JUMPDEST SWAP1 PUSH2 0x38AB JUMPI POP DUP1 MLOAD ISZERO PUSH2 0x3881 JUMPI DUP1 MLOAD SWAP1 PUSH1 0x20 ADD REVERT JUMPDEST PUSH1 0x4 PUSH1 0x40 MLOAD PUSH32 0x1425EA4200000000000000000000000000000000000000000000000000000000 DUP2 MSTORE REVERT JUMPDEST DUP2 MLOAD ISZERO DUP1 PUSH2 0x38F6 JUMPI JUMPDEST PUSH2 0x38BC JUMPI POP SWAP1 JUMP JUMPDEST PUSH1 0x24 SWAP1 PUSH1 0x1 PUSH1 0x1 PUSH1 0xA0 SHL SUB PUSH1 0x40 MLOAD SWAP2 PUSH32 0x9996B31500000000000000000000000000000000000000000000000000000000 DUP4 MSTORE AND PUSH1 0x4 DUP3 ADD MSTORE REVERT JUMPDEST POP DUP1 EXTCODESIZE ISZERO PUSH2 0x38B4 JUMP INVALID LOG2 PUSH5 0x6970667358 0x22 SLT KECCAK256 SWAP9 PUSH1 0x2C 0xBF PUSH4 0x996C5A26 0xB3 0xE8 DUP4 BYTE PUSH9 0x52A152A9E1A5A0BB5B PUSH15 0x611D0E325DCAF11964736F6C634300 ADDMOD OR STOP CALLER "},"methodIdentifiers":{"UPGRADE_INTERFACE_VERSION()":"ad3cb1cc","addMember(address,bytes32)":"49df7208","admin()":"f851a440","adminsByRecord(string,uint256)":"e965bfb7","changeRole(string,address,string)":"daa9dc23","deactivateWallet(address)":"0b3ffd1d","getAllUsers()":"e2842d79","getRecordAdmins(string)":"3dd1e8fc","getRecordOwners(string)":"1a95aca5","getRecordRoleStats(string)":"41d8bde3","getRecordViewers(string)":"510b3003","getRecordsByUser(bytes32)":"6544b05b","getRoleDetails(string,address)":"eb2bbf25","getRoleDetailsByUser(string,bytes32)":"ee4e5828","getTotalRoles()":"4b6feb7c","getTotalUsers()":"9be572f6","getUserForWallet(address)":"00b0c809","getUserStatus(bytes32)":"f29e007b","getWalletsForUser(bytes32)":"d12a7768","grantRole(string,address,string)":"bb20b172","hasActiveRole(string,address)":"1435b558","hasRole(string,address,string)":"cabdd23f","initialize()":"8129fc1c","initializeRecordRole(string,address,string)":"3575c391","isActiveMember(address)":"45ecd02f","isOwnerOrAdmin(string,address)":"a0ca13c3","isVerifiedMember(address)":"cb261a03","isVerifiedProvider(address)":"259ed80e","ownersByRecord(string,uint256)":"970ee5b9","proxiableUUID()":"52d1902d","reactivateWallet(address)":"bb0f86d5","recordRoles(bytes32)":"33105592","recordsByUser(bytes32,uint256)":"fa7a6bcc","revokeRole(string,address)":"731f21a0","setUserStatus(bytes32,uint8)":"96207e02","totalRoles()":"790e118c","totalUsers()":"bff1f9e1","transferAdmin(address)":"75829def","upgradeToAndCall(address,bytes)":"4f1ef286","userList(uint256)":"9f4216e8","userStatus(bytes32)":"6b4bed97","userWallets(bytes32,uint256)":"9443cd80","viewersByRecord(string,uint256)":"b55aefcc","voluntarilyLeaveOwnership(string)":"ed8d7b37","wallets(address)":"89b08f11"}},"storageLayout":{"storage":[{"astId":8406,"contract":"contracts/MemberRoleManager.sol:MemberRoleManager","label":"admin","offset":0,"slot":"0","type":"t_address"},{"astId":8570,"contract":"contracts/MemberRoleManager.sol:MemberRoleManager","label":"wallets","offset":0,"slot":"1","type":"t_mapping(t_address,t_struct(UserInfo)8565_storage)"},{"astId":8575,"contract":"contracts/MemberRoleManager.sol:MemberRoleManager","label":"userStatus","offset":0,"slot":"2","type":"t_mapping(t_bytes32,t_enum(MemberStatus)8530)"},{"astId":8580,"contract":"contracts/MemberRoleManager.sol:MemberRoleManager","label":"userWallets","offset":0,"slot":"3","type":"t_mapping(t_bytes32,t_array(t_address)dyn_storage)"},{"astId":8583,"contract":"contracts/MemberRoleManager.sol:MemberRoleManager","label":"userList","offset":0,"slot":"4","type":"t_array(t_bytes32)dyn_storage"},{"astId":8585,"contract":"contracts/MemberRoleManager.sol:MemberRoleManager","label":"totalUsers","offset":0,"slot":"5","type":"t_uint256"},{"astId":9091,"contract":"contracts/MemberRoleManager.sol:MemberRoleManager","label":"recordRoles","offset":0,"slot":"6","type":"t_mapping(t_bytes32,t_struct(RecordRole)9086_storage)"},{"astId":9096,"contract":"contracts/MemberRoleManager.sol:MemberRoleManager","label":"ownersByRecord","offset":0,"slot":"7","type":"t_mapping(t_string_memory_ptr,t_array(t_bytes32)dyn_storage)"},{"astId":9101,"contract":"contracts/MemberRoleManager.sol:MemberRoleManager","label":"adminsByRecord","offset":0,"slot":"8","type":"t_mapping(t_string_memory_ptr,t_array(t_bytes32)dyn_storage)"},{"astId":9106,"contract":"contracts/MemberRoleManager.sol:MemberRoleManager","label":"viewersByRecord","offset":0,"slot":"9","type":"t_mapping(t_string_memory_ptr,t_array(t_bytes32)dyn_storage)"},{"astId":9111,"contract":"contracts/MemberRoleManager.sol:MemberRoleManager","label":"recordsByUser","offset":0,"slot":"10","type":"t_mapping(t_bytes32,t_array(t_string_storage)dyn_storage)"},{"astId":9113,"contract":"contracts/MemberRoleManager.sol:MemberRoleManager","label":"totalRoles","offset":0,"slot":"11","type":"t_uint256"}],"types":{"t_address":{"encoding":"inplace","label":"address","numberOfBytes":"20"},"t_array(t_address)dyn_storage":{"base":"t_address","encoding":"dynamic_array","label":"address[]","numberOfBytes":"32"},"t_array(t_bytes32)dyn_storage":{"base":"t_bytes32","encoding":"dynamic_array","label":"bytes32[]","numberOfBytes":"32"},"t_array(t_string_storage)dyn_storage":{"base":"t_string_storage","encoding":"dynamic_array","label":"string[]","numberOfBytes":"32"},"t_bool":{"encoding":"inplace","label":"bool","numberOfBytes":"1"},"t_bytes32":{"encoding":"inplace","label":"bytes32","numberOfBytes":"32"},"t_enum(MemberStatus)8530":{"encoding":"inplace","label":"enum MemberRoleManager.MemberStatus","numberOfBytes":"1"},"t_mapping(t_address,t_struct(UserInfo)8565_storage)":{"encoding":"mapping","key":"t_address","label":"mapping(address => struct MemberRoleManager.UserInfo)","numberOfBytes":"32","value":"t_struct(UserInfo)8565_storage"},"t_mapping(t_bytes32,t_array(t_address)dyn_storage)":{"encoding":"mapping","key":"t_bytes32","label":"mapping(bytes32 => address[])","numberOfBytes":"32","value":"t_array(t_address)dyn_storage"},"t_mapping(t_bytes32,t_array(t_string_storage)dyn_storage)":{"encoding":"mapping","key":"t_bytes32","label":"mapping(bytes32 => string[])","numberOfBytes":"32","value":"t_array(t_string_storage)dyn_storage"},"t_mapping(t_bytes32,t_enum(MemberStatus)8530)":{"encoding":"mapping","key":"t_bytes32","label":"mapping(bytes32 => enum MemberRoleManager.MemberStatus)","numberOfBytes":"32","value":"t_enum(MemberStatus)8530"},"t_mapping(t_bytes32,t_struct(RecordRole)9086_storage)":{"encoding":"mapping","key":"t_bytes32","label":"mapping(bytes32 => struct MemberRoleManager.RecordRole)","numberOfBytes":"32","value":"t_struct(RecordRole)9086_storage"},"t_mapping(t_string_memory_ptr,t_array(t_bytes32)dyn_storage)":{"encoding":"mapping","key":"t_string_memory_ptr","label":"mapping(string => bytes32[])","numberOfBytes":"32","value":"t_array(t_bytes32)dyn_storage"},"t_string_memory_ptr":{"encoding":"bytes","label":"string","numberOfBytes":"32"},"t_string_storage":{"encoding":"bytes","label":"string","numberOfBytes":"32"},"t_struct(RecordRole)9086_storage":{"encoding":"inplace","label":"struct MemberRoleManager.RecordRole","members":[{"astId":9083,"contract":"contracts/MemberRoleManager.sol:MemberRoleManager","label":"role","offset":0,"slot":"0","type":"t_string_storage"},{"astId":9085,"contract":"contracts/MemberRoleManager.sol:MemberRoleManager","label":"isActive","offset":0,"slot":"1","type":"t_bool"}],"numberOfBytes":"64"},"t_struct(UserInfo)8565_storage":{"encoding":"inplace","label":"struct MemberRoleManager.UserInfo","members":[{"astId":8562,"contract":"contracts/MemberRoleManager.sol:MemberRoleManager","label":"userIdHash","offset":0,"slot":"0","type":"t_bytes32"},{"astId":8564,"contract":"contracts/MemberRoleManager.sol:MemberRoleManager","label":"isWalletActive","offset":0,"slot":"1","type":"t_bool"}],"numberOfBytes":"64"},"t_uint256":{"encoding":"inplace","label":"uint256","numberOfBytes":"32"}}}}}}