{"contracts/MemberRoleManager.sol":{"MemberRoleManager":{"abi":[{"inputs":[],"stateMutability":"nonpayable","type":"constructor"},{"anonymous":false,"inputs":[{"indexed":true,"internalType":"address","name":"oldAdmin","type":"address"},{"indexed":true,"internalType":"address","name":"newAdmin","type":"address"},{"indexed":false,"internalType":"uint256","name":"timestamp","type":"uint256"}],"name":"AdminTransferred","type":"event"},{"anonymous":false,"inputs":[{"indexed":true,"internalType":"address","name":"wallet","type":"address"},{"indexed":true,"internalType":"bytes32","name":"userIdHash","type":"bytes32"},{"indexed":false,"internalType":"uint256","name":"timestamp","type":"uint256"}],"name":"MemberRegistered","type":"event"},{"anonymous":false,"inputs":[{"indexed":true,"internalType":"bytes32","name":"userIdHash","type":"bytes32"},{"indexed":false,"internalType":"enum MemberRoleManager.MemberStatus","name":"oldStatus","type":"uint8"},{"indexed":false,"internalType":"enum MemberRoleManager.MemberStatus","name":"newStatus","type":"uint8"},{"indexed":true,"internalType":"address","name":"changedBy","type":"address"},{"indexed":false,"internalType":"uint256","name":"timestamp","type":"uint256"}],"name":"MemberStatusChanged","type":"event"},{"anonymous":false,"inputs":[{"indexed":true,"internalType":"string","name":"recordId","type":"string"},{"indexed":true,"internalType":"bytes32","name":"userIdHash","type":"bytes32"},{"indexed":false,"internalType":"uint256","name":"timestamp","type":"uint256"}],"name":"OwnershipVoluntarilyLeft","type":"event"},{"anonymous":false,"inputs":[{"indexed":true,"internalType":"string","name":"recordId","type":"string"},{"indexed":true,"internalType":"bytes32","name":"targetIdHash","type":"bytes32"},{"indexed":false,"internalType":"string","name":"oldRole","type":"string"},{"indexed":false,"internalType":"string","name":"newRole","type":"string"},{"indexed":true,"internalType":"bytes32","name":"userIdHash","type":"bytes32"},{"indexed":false,"internalType":"uint256","name":"timestamp","type":"uint256"}],"name":"RoleChanged","type":"event"},{"anonymous":false,"inputs":[{"indexed":true,"internalType":"string","name":"recordId","type":"string"},{"indexed":true,"internalType":"bytes32","name":"targetIdHash","type":"bytes32"},{"indexed":false,"internalType":"string","name":"role","type":"string"},{"indexed":true,"internalType":"bytes32","name":"userIdHash","type":"bytes32"},{"indexed":false,"internalType":"uint256","name":"timestamp","type":"uint256"}],"name":"RoleGranted","type":"event"},{"anonymous":false,"inputs":[{"indexed":true,"internalType":"string","name":"recordId","type":"string"},{"indexed":true,"internalType":"bytes32","name":"targetIdHash","type":"bytes32"},{"indexed":false,"internalType":"string","name":"role","type":"string"},{"indexed":true,"internalType":"bytes32","name":"userIdHash","type":"bytes32"},{"indexed":false,"internalType":"uint256","name":"timestamp","type":"uint256"}],"name":"RoleRevoked","type":"event"},{"anonymous":false,"inputs":[{"indexed":true,"internalType":"address","name":"wallet","type":"address"},{"indexed":true,"internalType":"bytes32","name":"userIdHash","type":"bytes32"},{"indexed":false,"internalType":"uint256","name":"timestamp","type":"uint256"}],"name":"WalletLinked","type":"event"},{"inputs":[{"internalType":"address","name":"wallet","type":"address"},{"internalType":"bytes32","name":"userIdHash","type":"bytes32"}],"name":"addMember","outputs":[],"stateMutability":"nonpayable","type":"function"},{"inputs":[],"name":"admin","outputs":[{"internalType":"address","name":"","type":"address"}],"stateMutability":"view","type":"function"},{"inputs":[{"internalType":"string","name":"","type":"string"},{"internalType":"uint256","name":"","type":"uint256"}],"name":"adminsByRecord","outputs":[{"internalType":"bytes32","name":"","type":"bytes32"}],"stateMutability":"view","type":"function"},{"inputs":[{"internalType":"string","name":"recordId","type":"string"},{"internalType":"address","name":"targetWallet","type":"address"},{"internalType":"string","name":"newRole","type":"string"}],"name":"changeRole","outputs":[],"stateMutability":"nonpayable","type":"function"},{"inputs":[{"internalType":"address","name":"wallet","type":"address"}],"name":"deactivateWallet","outputs":[],"stateMutability":"nonpayable","type":"function"},{"inputs":[],"name":"getAllUsers","outputs":[{"internalType":"bytes32[]","name":"","type":"bytes32[]"}],"stateMutability":"view","type":"function"},{"inputs":[{"internalType":"string","name":"recordId","type":"string"}],"name":"getRecordAdmins","outputs":[{"internalType":"bytes32[]","name":"","type":"bytes32[]"}],"stateMutability":"view","type":"function"},{"inputs":[{"internalType":"string","name":"recordId","type":"string"}],"name":"getRecordOwners","outputs":[{"internalType":"bytes32[]","name":"","type":"bytes32[]"}],"stateMutability":"view","type":"function"},{"inputs":[{"internalType":"string","name":"recordId","type":"string"}],"name":"getRecordRoleStats","outputs":[{"internalType":"uint256","name":"ownerCount","type":"uint256"},{"internalType":"uint256","name":"adminCount","type":"uint256"},{"internalType":"uint256","name":"viewerCount","type":"uint256"}],"stateMutability":"view","type":"function"},{"inputs":[{"internalType":"string","name":"recordId","type":"string"}],"name":"getRecordViewers","outputs":[{"internalType":"bytes32[]","name":"","type":"bytes32[]"}],"stateMutability":"view","type":"function"},{"inputs":[{"internalType":"bytes32","name":"userIdHash","type":"bytes32"}],"name":"getRecordsByUser","outputs":[{"internalType":"string[]","name":"","type":"string[]"}],"stateMutability":"view","type":"function"},{"inputs":[{"internalType":"string","name":"recordId","type":"string"},{"internalType":"address","name":"wallet","type":"address"}],"name":"getRoleDetails","outputs":[{"internalType":"string","name":"role","type":"string"},{"internalType":"bool","name":"isActive","type":"bool"}],"stateMutability":"view","type":"function"},{"inputs":[{"internalType":"string","name":"recordId","type":"string"},{"internalType":"bytes32","name":"userIdHash","type":"bytes32"}],"name":"getRoleDetailsByUser","outputs":[{"internalType":"string","name":"role","type":"string"},{"internalType":"bool","name":"isActive","type":"bool"}],"stateMutability":"view","type":"function"},{"inputs":[],"name":"getTotalRoles","outputs":[{"internalType":"uint256","name":"","type":"uint256"}],"stateMutability":"view","type":"function"},{"inputs":[],"name":"getTotalUsers","outputs":[{"internalType":"uint256","name":"","type":"uint256"}],"stateMutability":"view","type":"function"},{"inputs":[{"internalType":"address","name":"wallet","type":"address"}],"name":"getUserForWallet","outputs":[{"internalType":"bytes32","name":"","type":"bytes32"}],"stateMutability":"view","type":"function"},{"inputs":[{"internalType":"bytes32","name":"userIdHash","type":"bytes32"}],"name":"getUserStatus","outputs":[{"internalType":"enum MemberRoleManager.MemberStatus","name":"status","type":"uint8"}],"stateMutability":"view","type":"function"},{"inputs":[{"internalType":"bytes32","name":"userIdHash","type":"bytes32"}],"name":"getWalletsForUser","outputs":[{"internalType":"address[]","name":"","type":"address[]"}],"stateMutability":"view","type":"function"},{"inputs":[{"internalType":"string","name":"recordId","type":"string"},{"internalType":"address","name":"targetWallet","type":"address"},{"internalType":"string","name":"role","type":"string"}],"name":"grantRole","outputs":[],"stateMutability":"nonpayable","type":"function"},{"inputs":[{"internalType":"string","name":"recordId","type":"string"},{"internalType":"address","name":"wallet","type":"address"}],"name":"hasActiveRole","outputs":[{"internalType":"bool","name":"","type":"bool"}],"stateMutability":"view","type":"function"},{"inputs":[{"internalType":"string","name":"recordId","type":"string"},{"internalType":"address","name":"wallet","type":"address"},{"internalType":"string","name":"role","type":"string"}],"name":"hasRole","outputs":[{"internalType":"bool","name":"","type":"bool"}],"stateMutability":"view","type":"function"},{"inputs":[{"internalType":"string","name":"recordId","type":"string"},{"internalType":"address","name":"targetWallet","type":"address"},{"internalType":"string","name":"role","type":"string"}],"name":"initializeRecordRole","outputs":[],"stateMutability":"nonpayable","type":"function"},{"inputs":[{"internalType":"address","name":"wallet","type":"address"}],"name":"isActiveMember","outputs":[{"internalType":"bool","name":"","type":"bool"}],"stateMutability":"view","type":"function"},{"inputs":[{"internalType":"string","name":"recordId","type":"string"},{"internalType":"address","name":"wallet","type":"address"}],"name":"isOwnerOrAdmin","outputs":[{"internalType":"bool","name":"","type":"bool"}],"stateMutability":"view","type":"function"},{"inputs":[{"internalType":"address","name":"wallet","type":"address"}],"name":"isVerifiedMember","outputs":[{"internalType":"bool","name":"","type":"bool"}],"stateMutability":"view","type":"function"},{"inputs":[{"internalType":"string","name":"","type":"string"},{"internalType":"uint256","name":"","type":"uint256"}],"name":"ownersByRecord","outputs":[{"internalType":"bytes32","name":"","type":"bytes32"}],"stateMutability":"view","type":"function"},{"inputs":[{"internalType":"address","name":"wallet","type":"address"}],"name":"reactivateWallet","outputs":[],"stateMutability":"nonpayable","type":"function"},{"inputs":[{"internalType":"bytes32","name":"","type":"bytes32"}],"name":"recordRoles","outputs":[{"internalType":"string","name":"role","type":"string"},{"internalType":"bool","name":"isActive","type":"bool"}],"stateMutability":"view","type":"function"},{"inputs":[{"internalType":"bytes32","name":"","type":"bytes32"},{"internalType":"uint256","name":"","type":"uint256"}],"name":"recordsByUser","outputs":[{"internalType":"string","name":"","type":"string"}],"stateMutability":"view","type":"function"},{"inputs":[{"internalType":"string","name":"recordId","type":"string"},{"internalType":"address","name":"targetWallet","type":"address"}],"name":"revokeRole","outputs":[],"stateMutability":"nonpayable","type":"function"},{"inputs":[{"internalType":"bytes32","name":"userIdHash","type":"bytes32"},{"internalType":"enum MemberRoleManager.MemberStatus","name":"newStatus","type":"uint8"}],"name":"setUserStatus","outputs":[],"stateMutability":"nonpayable","type":"function"},{"inputs":[],"name":"totalRoles","outputs":[{"internalType":"uint256","name":"","type":"uint256"}],"stateMutability":"view","type":"function"},{"inputs":[],"name":"totalUsers","outputs":[{"internalType":"uint256","name":"","type":"uint256"}],"stateMutability":"view","type":"function"},{"inputs":[{"internalType":"address","name":"newAdmin","type":"address"}],"name":"transferAdmin","outputs":[],"stateMutability":"nonpayable","type":"function"},{"inputs":[{"internalType":"uint256","name":"","type":"uint256"}],"name":"userList","outputs":[{"internalType":"bytes32","name":"","type":"bytes32"}],"stateMutability":"view","type":"function"},{"inputs":[{"internalType":"bytes32","name":"","type":"bytes32"}],"name":"userStatus","outputs":[{"internalType":"enum MemberRoleManager.MemberStatus","name":"","type":"uint8"}],"stateMutability":"view","type":"function"},{"inputs":[{"internalType":"bytes32","name":"","type":"bytes32"},{"internalType":"uint256","name":"","type":"uint256"}],"name":"userWallets","outputs":[{"internalType":"address","name":"","type":"address"}],"stateMutability":"view","type":"function"},{"inputs":[{"internalType":"string","name":"","type":"string"},{"internalType":"uint256","name":"","type":"uint256"}],"name":"viewersByRecord","outputs":[{"internalType":"bytes32","name":"","type":"bytes32"}],"stateMutability":"view","type":"function"},{"inputs":[{"internalType":"string","name":"recordId","type":"string"}],"name":"voluntarilyLeaveOwnership","outputs":[],"stateMutability":"nonpayable","type":"function"},{"inputs":[{"internalType":"address","name":"","type":"address"}],"name":"wallets","outputs":[{"internalType":"bytes32","name":"userIdHash","type":"bytes32"},{"internalType":"bool","name":"isWalletActive","type":"bool"}],"stateMutability":"view","type":"function"}],"evm":{"bytecode":{"linkReferences":{},"object":"6080806040523461002857600080546001600160a01b031916331790556130da908161002e8239f35b600080fdfe608060408181526004918236101561001657600080fd5b600090813560e01c908162b0c8091461215b575080630b3ffd1d1461209c5780631435b558146120805780631a95aca514611ff95780633310559214611fbb5780633575c39114611d055780633dd1e8fc14611c7e57806341d8bde314611bdb57806345ecd02f14611bb557806349df7208146119465780634b6feb7c1461137f578063510b3003146118ad5780636544b05b146117be5780636b4bed9714610277578063731f21a01461144c57806375829def1461139e578063790e118c1461137f57806389b08f11146113385780639443cd80146112ef57806396207e021461118b578063970ee5b9146111545780639be572f614610c765780639f4216e814611107578063a0ca13c3146110eb578063b55aefcc146110b4578063bb0f86d514610ffd578063bb20b17214610c95578063bff1f9e114610c76578063cabdd23f14610c5a578063cb261a0314610c2b578063d12a776814610b7a578063daa9dc23146105fc578063e2842d791461057b578063e965bfb714610522578063eb2bbf25146104f8578063ed8d7b3714610327578063ee4e5828146102a9578063f29e007b14610277578063f851a4401461024b5763fa7a6bcc146101db57600080fd5b34610248576101e936612493565b908252600a60205282822080548210156102445790610207916124a9565b9390936102325761022e8361021b86612309565b90519182916020835260208301906123d1565b0390f35b634e487b7160e01b8252819052602490fd5b8280fd5b80fd5b509034610273578160031936011261027357905490516001600160a01b039091168152602090f35b5080fd5b5091346102445760203660031901126102445760ff826020946102a7933581526002865220541691518092612470565bf35b50913461024457816003193601126102445780356001600160401b038111610323576020936102eb6102e261022e9486943691016121fc565b60243590612d45565b815260068552209180516102fe816121aa565b60ff600161030b86612309565b958684520154161515948591015251928392836123f6565b8380fd5b50919034610244576020806003193601126103235782356001600160401b0381116104f45761035990369085016121fc565b610365815115156125cc565b33855260018252828520549361038361037c6127f1565b8684612d80565b156104a55783516103c18460018551938281818901966103a481838a6123ae565b8101600781520301902054119287518093819288519283916123ae565b81016008815203019020541515811561049d575b50156104405750906104378261040c867f3bb3693064733b9a7d6d41bee69f302fcbefbe827ea4011400530c9ba9cb49c395612d45565b61041e6104176127f1565b8884612de0565b875260068352848720600101805460ff1916905561283b565b9251428152a380f35b835162461bcd60e51b8152908101839052603160248201527f43616e6e6f74206c65617665206173206c617374206f776e65722077697468206044820152706e6f2061646d696e6973747261746f727360781b6064820152608490fd5b9050386103d5565b835162461bcd60e51b8152908101839052602360248201527f596f7520617265206e6f7420616e206f776e6572206f662074686973207265636044820152621bdc9960ea1b6064820152608490fd5b8480fd5b5090346102735761022e9061051561050f36612252565b90612941565b92909151928392836123f6565b5090346102735760209161054c610538366124d7565b9490818551938285809451938492016123ae565b81016008815203019020908154841015610248575060209261056d916124a9565b91905490519160031b1c8152f35b5090346102735781600319360112610273578051918284549081815260208091019583527f8a35acfbc15ff81a39ae7d344fd709f28e8600b4aa8c65c6b64bfe7fe36bd19b92905b8282106105e55761022e86866105db828b03836121db565b5191829182612293565b8354875295860195600193840193909101906105c3565b5091346102445761060c36612416565b91929061062061061b33612a36565b6128ad565b61062c845115156125cc565b6001600160a01b031693610641851515612701565b61065261064d846129de565b61265d565b33865260206001815281872054958752818720549461067286151561274d565b845182860120936106838783612d45565b808a526006845261069c60ff6001878d20015416612799565b8952600683526106ad848a20612309565b94855184870120818114610b37576106c36127f1565b8581519101208114610ac2578551918451928681818801956106e68183896123ae565b810160078152030190205415918b831561071b61070b6107046127f1565b848b612d80565b92610714612812565b908a612d80565b906107246127f1565b8051908b0120850361091e57156108c1575015610880575b610744612812565b878151910120149081610869575b506107c7575b505050916107bb7fea2c9ebe68919ddf880b3221d8d508d908163d0973e8b79df108f5d110d0c633949261079a856107958b8a8c6107ae9a612bc9565b61283b565b9683519586956060875260608701906123d1565b91858303908601526123d1565b9042908301520390a480f35b6107d2575b80610758565b6107e98460019287518093819288519283916123ae565b8101600881520301902054111561080057806107cc565b835162461bcd60e51b8152908101839052603960248201527f43616e6e6f742064656d6f746520746865206c6173742061646d696e6973747260448201527f61746f72207768656e206e6f206f776e657220657869737473000000000000006064820152608490fd5b90506108736128f0565b8681519101201438610752565b60648588808b519262461bcd60e51b845283015260248201527f4f6e6c79206f776e6572732063616e2070726f6d6f746520746f206f776e65726044820152fd5b905061073c57875162461bcd60e51b8152808601889052602b60248201527f4f6e6c792061646d696e6973747261746f72732063616e2070726f6d6f74652060448201526a3334b939ba1037bbb732b960a91b6064820152608490fd5b610926612812565b8051908b0120850361099e57508115610996575b5061073c57875162461bcd60e51b8152808601889052603b602482015260008051602061308583398151915260448201527f616e2070726f6d6f746520746f2061646d696e6973747261746f7200000000006064820152608490fd5b90503861093a565b6109a66128f0565b8a815191012085146109bb575b50505061073c565b15610a68578115610a51575b50156109d6575b3880806109b3565b875162461bcd60e51b8152808601889052604960248201527f4f6e6c79206f776e6572732063616e2064656d6f7465206f74686572732e204160448201527f646d696e6973747261746f72732063616e206f6e6c792064656d6f746520746860648201526832b6b9b2b63b32b99760b91b608482015260a490fd5b905080610a5f575b386109c7565b508a8c14610a59565b90506109ce57875162461bcd60e51b8152808601889052602860248201527f4f6e6c792061646d696e6973747261746f72732063616e2064656d6f7465207460448201526737903b34b2bbb2b960c11b6064820152608490fd5b855162461bcd60e51b8152808401869052604360248201527f4f776e6572732063616e6e6f742062652064656d6f7465642e204f776e65722060448201527f6d75737420766f6c756e746172696c792072656d6f7665207468656d73656c7660648201526232b99760e91b608482015260a490fd5b855162461bcd60e51b8152808401869052601c60248201527f54617267657420616c726561647920686173207468697320726f6c65000000006044820152606490fd5b5082903461024857602091826003193601126102735792919235815260038352818120908251808584549182815201908194845286842090845b818110610c0e5750505081610bca9103826121db565b83519485948186019282875251809352850193925b828110610bee57505050500390f35b83516001600160a01b031685528695509381019392810192600101610bdf565b82546001600160a01b031684529288019260019283019201610bb4565b50903461027357602036600319011261027357602090610c51610c4c61218f565b612ea8565b90519015158152f35b50903461027357602090610c51610c7036612416565b91612912565b5090346102735781600319360112610273576020906005549051908152f35b50823461027357610ca536612416565b919290610cb461061b33612a36565b610cc0845115156125cc565b6001600160a01b031692610cd5841515612701565b610ce161064d846129de565b33855260209160018352868620549486528686205492610d0284151561274d565b845181860120610d128785612d45565b88526006825260ff60018a8a2001541615610fbc57885182818651610d3a8183858b016123ae565b8101600781520301902054151590610d5a610d536127f1565b8987612d80565b91610d6d610d66612812565b8a88612d80565b91610d766127f1565b8051908601208103610eb7575015610e5d575015610e1b575b610d998484612d45565b87526006815260ff6001898920015416610dbd575050610dba949550612bc9565b80f35b875162461bcd60e51b815291820152603360248201527f54617267657420616c726561647920686173206120726f6c652e2055736520636044820152721a185b99d9549bdb194a0a481a5b9cdd195859606a1b606482015260849150fd5b875162461bcd60e51b815291820181905260248201527f4f6e6c79206f776e6572732063616e206772616e74206f776e657220726f6c65604482015260649150fd5b9050610d8f57875162461bcd60e51b815291820152602960248201527f4f6e6c792061646d696e6973747261746f72732063616e206772616e742066696044820152683939ba1037bbb732b960b91b606482015260849150fd5b9050610ec1612812565b8051908501208103610f3857508115610f30575b50610d8f57875162461bcd60e51b815291820152603b602482015260008051602061308583398151915260448201527f616e206772616e742061646d696e6973747261746f7220726f6c650000000000606482015260849150fd5b905089610ed5565b610f406128f0565b84815191012014610f53575b5050610d8f565b8115610fb4575b5015610f67578880610f4c565b875162461bcd60e51b81529182015260346024820152600080516020613085833981519152604482015273616e206772616e742076696577657220726f6c6560601b606482015260849150fd5b905089610f5a565b60648383808c519262461bcd60e51b845283015260248201527f596f752068617665206e6f20726f6c6520666f722074686973207265636f72646044820152fd5b509190346102445760203660031901126102445761101961218f565b83546001600160a01b0391906110329083163314612508565b168084526001928360205261104b838620541515612541565b8185528360205260ff8484872001541661107957508352602082905282208101805460ff1916909117905580f35b606490602084519162461bcd60e51b8352820152601560248201527457616c6c657420616c72656164792061637469766560581b6044820152fd5b509034610273576020916110ca610538366124d7565b81016009815203019020908154841015610248575060209261056d916124a9565b50903461027357602090610c5161110136612252565b9061285b565b50913461024457602036600319011261024457803590805482101561032357602093527f8a35acfbc15ff81a39ae7d344fd709f28e8600b4aa8c65c6b64bfe7fe36bd19b01549051908152f35b5090346102735760209161116a610538366124d7565b81016007815203019020908154841015610248575060209261056d916124a9565b50919034610244578060031936011261024457813590602435838110156104f4576111c060018060a01b038654163314612508565b82855260206002815260ff8387205416858110156112dc57156112a4578386526002815260ff838720541694808610156112915782861461125a57509061122c918487526002815283872060ff1981541660ff841617905561122484518097612470565b850190612470565b42908301527ff6277c6ee46649823db9a5c531db3112b4340c67179cae1932ba3420dcc37cc760603393a380f35b60649184519162461bcd60e51b83528201526013602482015272416c726561647920746869732073746174757360681b6044820152fd5b634e487b7160e01b875260219052602486fd5b8460649184519162461bcd60e51b83528201526013602482015272155cd95c881b9bdd081c9959da5cdd195c9959606a1b6044820152fd5b634e487b7160e01b875260218652602487fd5b509034610273576112ff36612493565b9290815260036020528181209081548410156102485750602092611322916124a9565b60018060a01b0391549060031b1c169051908152f35b509034610273576020366003190112610273579081906001600160a01b0361135e61218f565b16815260016020522060ff6001825492015416825191825215156020820152f35b509034610273578160031936011261027357602090600b549051908152f35b50919034610244576020366003190112610244576113ba61218f565b8354916001600160a01b03808416926113d4338514612508565b169384156114185750907f38df5fa0f7fef0d515ca1f5388cb5790ac5885d5fca8d05d9f943e563c33a4b36020859351428152a36001600160a01b03191617815580f35b6020606492519162461bcd60e51b8352820152600f60248201526e496e76616c6964206164647265737360881b6044820152fd5b509190346102445761145d36612252565b61146b8293925115156125cc565b6001600160a01b031692611480841515612701565b338552602091600183528086205494865280862054936114a185151561274d565b6114ab8582612d45565b808852600685526114c460ff6001858b20015416612799565b808852600685526114d6838920612309565b938451868601206114e56127f1565b878151910120811461174757878903611631575b611501612812565b8781519101201461156e575b508161155a9161154186897f938e21a28464db5f9b9e24d1a58e038899de364f69dba20c154ee6fd4cd86def989796612de0565b895260068652828920600101805460ff1916905561283b565b936107bb82519383859485528401906123d1565b83516115a78760018651938281818a019661158a81838a6123ae565b8101600881520301902054119287518093819289519283916123ae565b810160078152030190205415158115611629575b5061150d57835162461bcd60e51b8152908101869052603960248201527f43616e6e6f74207265766f6b65206c6173742061646d696e6973747261746f7260448201527f20776974686f757420616e206f776e65722070726573656e74000000000000006064820152608490fd5b9050386115bb565b61164361163c6127f1565b8a86612d80565b8015611736575b156116ed5761165a61163c6127f1565b15611665575b6114f9565b61166d612812565b87815191012081036114f95784518781865161168c8183858b016123ae565b81016007815203019020541561166057845162461bcd60e51b8152808301889052602560248201527f4f6e6c79206f776e6572732063616e207265766f6b652061646d696e6973747260448201526461746f727360d81b6064820152608490fd5b845162461bcd60e51b8152808301889052602f602482015260008051602061308583398151915260448201526e616e207265766f6b6520726f6c657360881b6064820152608490fd5b5061174261163c612812565b61164a565b845162461bcd60e51b8152808301889052604560248201527f4f776e6572732063616e6e6f74206265207265766f6b65642e204f776e65722060448201527f6d7573742075736520766f6c756e746172696c794c656176654f776e6572736860648201526434b814149760d91b608482015260a490fd5b50823461027357602090816003193601126102445780358352600a8252838320918254916001600160401b03831161189a57509290845190611805858260051b01836121db565b8082528482018094845285842084915b83831061187657505050508451938085019181865251809252858501958260051b8601019392955b82871061184a5785850386f35b909192938280611866600193603f198a820301865288516123d1565b960192019601959291909261183d565b6001888192611888859b98999b612309565b81520192019201919096949396611815565b634e487b7160e01b855260419052602484fd5b509190346102445760209182600319360112610323578035906001600160401b0382116104f4576118e584916118f7933691016121fc565b818451938285809451938492016123ae565b810160098152030190209281518093808654928381520195835280832092905b82821061192f5761022e86866105db828b03836121db565b835487529586019560019384019390910190611917565b50913461024457816003193601126102445761196061218f565b9160249081359360018060a01b03809161197e828954163314612508565b169361198b851515612618565b8515611b7c5784875260019360209480865284892054611b3a576119e085516119b3816121aa565b898152828882018181528a8d52818a52888d209251835551151591019060ff801983541691151516179055565b87895260038652848920938454600160401b9586821015611b285790611a0a9184820181556124a9565b819291549060031b918a831b921b19161790558789526002865260ff858a20541683811015611b1657611ae75787895260028652848920600260ff19825416179055825493841015611ad5578301808355831015611ac457507f39d132591ee0696de49ab564e4a90e430c006561917db731a2a614dd2d245591939291869188527f8a35acfbc15ff81a39ae7d344fd709f28e8600b4aa8c65c6b64bfe7fe36bd19b0155611ab96005546126dc565b60055551428152a380f35b634e487b7160e01b88526032825287fd5b50634e487b7160e01b88526041825287fd5b50505050907f1cc138f50384be7770a8e4a34eecaa0d0c718bfaa1641af49db32532e4a5b9109151428152a380f35b634e487b7160e01b8a5260218452828afd5b634e487b7160e01b8c5260418652848cfd5b845162461bcd60e51b81528084018790526019818401527f57616c6c657420616c72656164792072656769737465726564000000000000006044820152606490fd5b606490601485602086519362461bcd60e51b855284015282015273092dcecc2d8d2c840eae6cae440928840d0c2e6d60631b6044820152fd5b50903461027357602036600319011261027357602090610c51611bd661218f565b612a36565b50346102485760209081600319360112610248578335906001600160401b0382116102485750606093611c10913691016121fc565b91805192611c6583825195818181860198611c2c81838c6123ae565b810160078152030190205495845182818651611c498183876123ae565b81016008815203019020549385519384928392519283916123ae565b8101600981520301902054928251948552840152820152f35b509190346102445760209182600319360112610323578035906001600160401b0382116104f4576118e58491611cb6933691016121fc565b810160088152030190209281518093808654928381520195835280832092905b828210611cee5761022e86866105db828b03836121db565b835487529586019560019384019390910190611cd6565b50823461027357611d1536612416565b9092919460018060a01b03611d2e818754163314612508565b611d3a875115156125cc565b8416611d47811515612618565b611d5361064d846129de565b855260209260018452611d6f8287205495611bd6871515612541565b15611f7a578151848851918181818c0194611d8b8183886123ae565b8101600781520301902054159182611f52575b505015611f1157611daf8588612d45565b808752600685528685611e1486600187852095611dfe89611dcf89612309565b97600660ff868b51159c01541698835197611de9896121aa565b88528088019587875283525220935184612ab7565b51151591019060ff801983541691151516179055565b611ed25750611e2484878a612f01565b611e45575b50906000805160206130658339815191529161155a869761283b565b95848652600a8452818620805490600160401b821015611ebf5790611e6f916001820181556124a9565b611ead5786975081611e9560008051602061306583398151915295949361155a93612ab7565b611ea0600b546126dc565b600b559750509091611e29565b634e487b7160e01b8752868852602487fd5b634e487b7160e01b885260418952602488fd5b9697939594925050508451818601209084519085012003611ef5575b5050505080f35b611f03611f08948383612de0565b612f01565b81808080611eee565b83606492519162461bcd60e51b8352820152601a60248201527f5265636f726420616c726561647920696e697469616c697a65640000000000006044820152fd5b611f6792508451809381928c519283916123ae565b8101600881520301902054158489611d9e565b83606492519162461bcd60e51b8352820152601860248201527f4d75737420626520616e20616374697665206d656d62657200000000000000006044820152fd5b5091346102445760203660031901126102445791819235815260066020522061022e60ff6001611fea84612309565b930154169251928392836123f6565b509190346102445760209182600319360112610323578035906001600160401b0382116104f4576118e58491612031933691016121fc565b810160078152030190209281518093808654928381520195835280832092905b8282106120695761022e86866105db828b03836121db565b835487529586019560019384019390910190612051565b50903461027357602090610c5161209636612252565b90612585565b509134610244576020366003190112610244576120b761218f565b83546001600160a01b0391906120d09083163314612508565b169081845260016020526120e8838520541515612541565b818452600160205260ff600184862001541615612118575082526001602081905290822001805460ff1916905580f35b606490602084519162461bcd60e51b8352820152601760248201527f57616c6c657420616c726561647920696e6163746976650000000000000000006044820152fd5b90508234610244576020366003190112610244576020926001600160a01b0361218261218f565b1681526001845220548152f35b600435906001600160a01b03821682036121a557565b600080fd5b604081019081106001600160401b038211176121c557604052565b634e487b7160e01b600052604160045260246000fd5b90601f801991011681019081106001600160401b038211176121c557604052565b81601f820112156121a5578035906001600160401b0382116121c55760405192612230601f8401601f1916602001856121db565b828452602083830101116121a557816000926020809301838601378301015290565b60406003198201126121a557600435906001600160401b0382116121a55761227c916004016121fc565b906024356001600160a01b03811681036121a55790565b602090602060408183019282815285518094520193019160005b8281106122bb575050505090565b8351855293810193928101926001016122ad565b90600182811c921680156122ff575b60208310146122e957565b634e487b7160e01b600052602260045260246000fd5b91607f16916122de565b9060405191826000825461231c816122cf565b9081845260209460019160018116908160001461238c575060011461234d575b50505061234b925003836121db565b565b600090815285812095935091905b81831061237457505061234b935082010138808061233c565b8554888401850152948501948794509183019161235b565b9250505061234b94925060ff191682840152151560051b82010138808061233c565b60005b8381106123c15750506000910152565b81810151838201526020016123b1565b906020916123ea815180928185528580860191016123ae565b601f01601f1916010190565b9061240e6020919493946040845260408401906123d1565b931515910152565b60606003198201126121a5576001600160401b03916004358381116121a55782612442916004016121fc565b926024356001600160a01b03811681036121a557926044359182116121a55761246d916004016121fc565b90565b90600482101561247d5752565b634e487b7160e01b600052602160045260246000fd5b60409060031901126121a5576004359060243590565b80548210156124c15760005260206000200190600090565b634e487b7160e01b600052603260045260246000fd5b60406003198201126121a557600435906001600160401b0382116121a557612501916004016121fc565b9060243590565b1561250f57565b60405162461bcd60e51b815260206004820152600a60248201526927b7363c9030b236b4b760b11b6044820152606490fd5b1561254857565b60405162461bcd60e51b815260206004820152601560248201527415d85b1b195d081b9bdd081c9959da5cdd195c9959605a1b6044820152606490fd5b6001600160a01b0390911660009081526001602052604090205480156125c5576125ae91612d45565b600052600660205260ff6001604060002001541690565b5050600090565b156125d357565b60405162461bcd60e51b815260206004820152601960248201527f5265636f72642049442063616e6e6f7420626520656d707479000000000000006044820152606490fd5b1561261f57565b60405162461bcd60e51b8152602060048201526016602482015275496e76616c69642077616c6c6574206164647265737360501b6044820152606490fd5b1561266457565b60405162461bcd60e51b8152602060048201526013602482015272496e76616c696420726f6c6520737472696e6760681b6044820152606490fd5b805490600160401b8210156121c557816126c19160016126d8940181556124a9565b819391549060031b91821b91600019901b19161790565b9055565b60001981146126eb5760010190565b634e487b7160e01b600052601160045260246000fd5b1561270857565b60405162461bcd60e51b815260206004820152601d60248201527f57616c6c657420616464726573732063616e6e6f74206265207a65726f0000006044820152606490fd5b1561275457565b60405162461bcd60e51b815260206004820152601c60248201527f5461726765742077616c6c6574206e6f742072656769737465726564000000006044820152606490fd5b156127a057565b60405162461bcd60e51b815260206004820152602360248201527f54617267657420646f6573206e6f74206861766520616e2061637469766520726044820152626f6c6560e81b6064820152608490fd5b604051906127fe826121aa565b600582526437bbb732b960d91b6020830152565b6040519061281f826121aa565b600d82526c30b236b4b734b9ba3930ba37b960991b6020830152565b612853906020604051928284809451938492016123ae565b810103902090565b6001600160a01b039091166000908152600160205260409020549081156125c55761288e6128876127f1565b8383612d80565b91821561289a57505090565b61246d92506128a7612812565b91612d80565b156128b457565b60405162461bcd60e51b81526020600482015260146024820152732737ba1030b71030b1ba34bb329036b2b6b132b960611b6044820152606490fd5b604051906128fd826121aa565b60068252653b34b2bbb2b960d11b6020830152565b919060018060a01b0316600052600160205260406000205480156129395761246d92612d80565b505050600090565b6001600160a01b0390911660009081526001602052604081205490929181156129a55792612973604092602095612d45565b81526006845220604051612986816121aa565b60ff600161299384612309565b93848452015416151593849101529190565b5050604051602081018181106001600160401b038211176129ca576040528281529190565b634e487b7160e01b84526041600452602484fd5b602081519101206129ed6127f1565b602081519101208114908115612a1d575b8115612a08575090565b9050612a126128f0565b602081519101201490565b9050612a27612812565b602081519101208114906129fe565b6001600160a01b031660009081526001602052604081208054908115908115612aa7575b50612aa3578152600260205260ff604082205416906004821015612a8f575060018114159081612a88575090565b9050151590565b634e487b7160e01b81526021600452602490fd5b5090565b60ff915060010154161538612a5a565b91909182516001600160401b0381116121c557612ad482546122cf565b601f8111612b7f575b50602080601f8311600114612b1a575081929394600092612b0f575b50508160011b916000199060031b1c1916179055565b015190503880612af9565b90601f19831695846000526020600020926000905b888210612b6757505083600195969710612b4e575b505050811b019055565b015160001960f88460031b161c19169055388080612b44565b80600185968294968601518155019501930190612b2f565b6000836000526020600020601f840160051c81019260208510612bbf575b601f0160051c01915b828110612bb4575050612add565b818155600101612ba6565b9092508290612b9d565b9091612bd58383612d45565b6000928184526020936006855260409283822090612bf282612309565b90612c2e60ff600184511595015416916001885191612c10836121aa565b8a83528b830190828252885260068c52611dfe8a8920935184612ab7565b612d0c5750612c3e858885612f01565b612c7d575b5090612c5e600080516020613065833981519152939261283b565b93612c7282519383859485528401906123d1565b9042908301520390a4565b858152600a8552828120805490600160401b821015612cf85790612ca6916001820181556124a9565b919091612ce4575081612ccd600080516020613065833981519152959493612c5e93612ab7565b612cd8600b546126dc565b600b5591929350612c43565b634e487b7160e01b81526004819052602490fd5b634e487b7160e01b83526041600452602483fd5b9750505091939290508451818601209084519085012003612d2e575b50505050565b611f03612d3c948383612de0565b38808080612d28565b90612d7a6040805180936020612d6481840197888151938492016123ae565b82019060208201520360208101845201826121db565b51902090565b60209291612d8d91612d45565b600052600682526040600020604051612da5816121aa565b60ff6001612db284612309565b938484520154161515938491015282612dca57505090565b9091506020815191012090602081519101201490565b8251602080940120612df06127f1565b8051908501208103612e27575082612e189161234b94604051938285809451938492016123ae565b81016007815203019020612fc9565b612e2f612812565b8051908501208103612e66575082612e579161234b94604051938285809451938492016123ae565b81016008815203019020612fc9565b612e6e6128f0565b84815191012014612e7e57505050565b82612e999161234b94604051938285809451938492016123ae565b81016009815203019020612fc9565b6001600160a01b031660009081526001602052604081208054908115908115612ef1575b50612aa3578152600260205260ff604082205416906004821015612a8f575060031490565b60ff915060010154161538612ecc565b8251602080940120612f116127f1565b8051908501208103612f48575082612f399161234b94604051938285809451938492016123ae565b8101600781520301902061269f565b612f50612812565b8051908501208103612f87575082612f789161234b94604051938285809451938492016123ae565b8101600881520301902061269f565b612f8f6128f0565b84815191012014612f9f57505050565b82612fba9161234b94604051938285809451938492016123ae565b8101600981520301902061269f565b60005b81549081811015612d28578391612fe382856124a9565b959054600396871b1c14612ffd5750909250600101612fcc565b60001992508281019081116126eb576126c161301c61302992866124a9565b905490871b1c92856124a9565b90558154801561304e5781019261304084846124a9565b81939154921b1b1916905555565b634e487b7160e01b600052603160045260246000fdfe2a27f0a20e4df4738f3a8e2449b014d439e7ce0a97ee5860771c25cbafa1cfeb4f6e6c79206f776e65727320616e642061646d696e6973747261746f72732063a2646970667358221220470ea9bae3cae9a7a171f74a43fa035d5b01ee63ead6963b6d5b8e0e1df72d3f64736f6c63430008170033","opcodes":"PUSH1 0x80 DUP1 PUSH1 0x40 MSTORE CALLVALUE PUSH2 0x28 JUMPI PUSH1 0x0 DUP1 SLOAD PUSH1 0x1 PUSH1 0x1 PUSH1 0xA0 SHL SUB NOT AND CALLER OR SWAP1 SSTORE PUSH2 0x30DA SWAP1 DUP2 PUSH2 0x2E DUP3 CODECOPY RETURN JUMPDEST PUSH1 0x0 DUP1 REVERT INVALID PUSH1 0x80 PUSH1 0x40 DUP2 DUP2 MSTORE PUSH1 0x4 SWAP2 DUP3 CALLDATASIZE LT ISZERO PUSH2 0x16 JUMPI PUSH1 0x0 DUP1 REVERT JUMPDEST PUSH1 0x0 SWAP1 DUP2 CALLDATALOAD PUSH1 0xE0 SHR SWAP1 DUP2 PUSH3 0xB0C809 EQ PUSH2 0x215B JUMPI POP DUP1 PUSH4 0xB3FFD1D EQ PUSH2 0x209C JUMPI DUP1 PUSH4 0x1435B558 EQ PUSH2 0x2080 JUMPI DUP1 PUSH4 0x1A95ACA5 EQ PUSH2 0x1FF9 JUMPI DUP1 PUSH4 0x33105592 EQ PUSH2 0x1FBB JUMPI DUP1 PUSH4 0x3575C391 EQ PUSH2 0x1D05 JUMPI DUP1 PUSH4 0x3DD1E8FC EQ PUSH2 0x1C7E JUMPI DUP1 PUSH4 0x41D8BDE3 EQ PUSH2 0x1BDB JUMPI DUP1 PUSH4 0x45ECD02F EQ PUSH2 0x1BB5 JUMPI DUP1 PUSH4 0x49DF7208 EQ PUSH2 0x1946 JUMPI DUP1 PUSH4 0x4B6FEB7C EQ PUSH2 0x137F JUMPI DUP1 PUSH4 0x510B3003 EQ PUSH2 0x18AD JUMPI DUP1 PUSH4 0x6544B05B EQ PUSH2 0x17BE JUMPI DUP1 PUSH4 0x6B4BED97 EQ PUSH2 0x277 JUMPI DUP1 PUSH4 0x731F21A0 EQ PUSH2 0x144C JUMPI DUP1 PUSH4 0x75829DEF EQ PUSH2 0x139E JUMPI DUP1 PUSH4 0x790E118C EQ PUSH2 0x137F JUMPI DUP1 PUSH4 0x89B08F11 EQ PUSH2 0x1338 JUMPI DUP1 PUSH4 0x9443CD80 EQ PUSH2 0x12EF JUMPI DUP1 PUSH4 0x96207E02 EQ PUSH2 0x118B JUMPI DUP1 PUSH4 0x970EE5B9 EQ PUSH2 0x1154 JUMPI DUP1 PUSH4 0x9BE572F6 EQ PUSH2 0xC76 JUMPI DUP1 PUSH4 0x9F4216E8 EQ PUSH2 0x1107 JUMPI DUP1 PUSH4 0xA0CA13C3 EQ PUSH2 0x10EB JUMPI DUP1 PUSH4 0xB55AEFCC EQ PUSH2 0x10B4 JUMPI DUP1 PUSH4 0xBB0F86D5 EQ PUSH2 0xFFD JUMPI DUP1 PUSH4 0xBB20B172 EQ PUSH2 0xC95 JUMPI DUP1 PUSH4 0xBFF1F9E1 EQ PUSH2 0xC76 JUMPI DUP1 PUSH4 0xCABDD23F EQ PUSH2 0xC5A JUMPI DUP1 PUSH4 0xCB261A03 EQ PUSH2 0xC2B JUMPI DUP1 PUSH4 0xD12A7768 EQ PUSH2 0xB7A JUMPI DUP1 PUSH4 0xDAA9DC23 EQ PUSH2 0x5FC JUMPI DUP1 PUSH4 0xE2842D79 EQ PUSH2 0x57B JUMPI DUP1 PUSH4 0xE965BFB7 EQ PUSH2 0x522 JUMPI DUP1 PUSH4 0xEB2BBF25 EQ PUSH2 0x4F8 JUMPI DUP1 PUSH4 0xED8D7B37 EQ PUSH2 0x327 JUMPI DUP1 PUSH4 0xEE4E5828 EQ PUSH2 0x2A9 JUMPI DUP1 PUSH4 0xF29E007B EQ PUSH2 0x277 JUMPI DUP1 PUSH4 0xF851A440 EQ PUSH2 0x24B JUMPI PUSH4 0xFA7A6BCC EQ PUSH2 0x1DB JUMPI PUSH1 0x0 DUP1 REVERT JUMPDEST CALLVALUE PUSH2 0x248 JUMPI PUSH2 0x1E9 CALLDATASIZE PUSH2 0x2493 JUMP JUMPDEST SWAP1 DUP3 MSTORE PUSH1 0xA PUSH1 0x20 MSTORE DUP3 DUP3 KECCAK256 DUP1 SLOAD DUP3 LT ISZERO PUSH2 0x244 JUMPI SWAP1 PUSH2 0x207 SWAP2 PUSH2 0x24A9 JUMP JUMPDEST SWAP4 SWAP1 SWAP4 PUSH2 0x232 JUMPI PUSH2 0x22E DUP4 PUSH2 0x21B DUP7 PUSH2 0x2309 JUMP JUMPDEST SWAP1 MLOAD SWAP2 DUP3 SWAP2 PUSH1 0x20 DUP4 MSTORE PUSH1 0x20 DUP4 ADD SWAP1 PUSH2 0x23D1 JUMP JUMPDEST SUB SWAP1 RETURN JUMPDEST PUSH4 0x4E487B71 PUSH1 0xE0 SHL DUP3 MSTORE DUP2 SWAP1 MSTORE PUSH1 0x24 SWAP1 REVERT JUMPDEST DUP3 DUP1 REVERT JUMPDEST DUP1 REVERT JUMPDEST POP SWAP1 CALLVALUE PUSH2 0x273 JUMPI DUP2 PUSH1 0x3 NOT CALLDATASIZE ADD SLT PUSH2 0x273 JUMPI SWAP1 SLOAD SWAP1 MLOAD PUSH1 0x1 PUSH1 0x1 PUSH1 0xA0 SHL SUB SWAP1 SWAP2 AND DUP2 MSTORE PUSH1 0x20 SWAP1 RETURN JUMPDEST POP DUP1 REVERT JUMPDEST POP SWAP2 CALLVALUE PUSH2 0x244 JUMPI PUSH1 0x20 CALLDATASIZE PUSH1 0x3 NOT ADD SLT PUSH2 0x244 JUMPI PUSH1 0xFF DUP3 PUSH1 0x20 SWAP5 PUSH2 0x2A7 SWAP4 CALLDATALOAD DUP2 MSTORE PUSH1 0x2 DUP7 MSTORE KECCAK256 SLOAD AND SWAP2 MLOAD DUP1 SWAP3 PUSH2 0x2470 JUMP JUMPDEST RETURN JUMPDEST POP SWAP2 CALLVALUE PUSH2 0x244 JUMPI DUP2 PUSH1 0x3 NOT CALLDATASIZE ADD SLT PUSH2 0x244 JUMPI DUP1 CALLDATALOAD PUSH1 0x1 PUSH1 0x1 PUSH1 0x40 SHL SUB DUP2 GT PUSH2 0x323 JUMPI PUSH1 0x20 SWAP4 PUSH2 0x2EB PUSH2 0x2E2 PUSH2 0x22E SWAP5 DUP7 SWAP5 CALLDATASIZE SWAP2 ADD PUSH2 0x21FC JUMP JUMPDEST PUSH1 0x24 CALLDATALOAD SWAP1 PUSH2 0x2D45 JUMP JUMPDEST DUP2 MSTORE PUSH1 0x6 DUP6 MSTORE KECCAK256 SWAP2 DUP1 MLOAD PUSH2 0x2FE DUP2 PUSH2 0x21AA JUMP JUMPDEST PUSH1 0xFF PUSH1 0x1 PUSH2 0x30B DUP7 PUSH2 0x2309 JUMP JUMPDEST SWAP6 DUP7 DUP5 MSTORE ADD SLOAD AND ISZERO ISZERO SWAP5 DUP6 SWAP2 ADD MSTORE MLOAD SWAP3 DUP4 SWAP3 DUP4 PUSH2 0x23F6 JUMP JUMPDEST DUP4 DUP1 REVERT JUMPDEST POP SWAP2 SWAP1 CALLVALUE PUSH2 0x244 JUMPI PUSH1 0x20 DUP1 PUSH1 0x3 NOT CALLDATASIZE ADD SLT PUSH2 0x323 JUMPI DUP3 CALLDATALOAD PUSH1 0x1 PUSH1 0x1 PUSH1 0x40 SHL SUB DUP2 GT PUSH2 0x4F4 JUMPI PUSH2 0x359 SWAP1 CALLDATASIZE SWAP1 DUP6 ADD PUSH2 0x21FC JUMP JUMPDEST PUSH2 0x365 DUP2 MLOAD ISZERO ISZERO PUSH2 0x25CC JUMP JUMPDEST CALLER DUP6 MSTORE PUSH1 0x1 DUP3 MSTORE DUP3 DUP6 KECCAK256 SLOAD SWAP4 PUSH2 0x383 PUSH2 0x37C PUSH2 0x27F1 JUMP JUMPDEST DUP7 DUP5 PUSH2 0x2D80 JUMP JUMPDEST ISZERO PUSH2 0x4A5 JUMPI DUP4 MLOAD PUSH2 0x3C1 DUP5 PUSH1 0x1 DUP6 MLOAD SWAP4 DUP3 DUP2 DUP2 DUP10 ADD SWAP7 PUSH2 0x3A4 DUP2 DUP4 DUP11 PUSH2 0x23AE JUMP JUMPDEST DUP2 ADD PUSH1 0x7 DUP2 MSTORE SUB ADD SWAP1 KECCAK256 SLOAD GT SWAP3 DUP8 MLOAD DUP1 SWAP4 DUP2 SWAP3 DUP9 MLOAD SWAP3 DUP4 SWAP2 PUSH2 0x23AE JUMP JUMPDEST DUP2 ADD PUSH1 0x8 DUP2 MSTORE SUB ADD SWAP1 KECCAK256 SLOAD ISZERO ISZERO DUP2 ISZERO PUSH2 0x49D JUMPI JUMPDEST POP ISZERO PUSH2 0x440 JUMPI POP SWAP1 PUSH2 0x437 DUP3 PUSH2 0x40C DUP7 PUSH32 0x3BB3693064733B9A7D6D41BEE69F302FCBEFBE827EA4011400530C9BA9CB49C3 SWAP6 PUSH2 0x2D45 JUMP JUMPDEST PUSH2 0x41E PUSH2 0x417 PUSH2 0x27F1 JUMP JUMPDEST DUP9 DUP5 PUSH2 0x2DE0 JUMP JUMPDEST DUP8 MSTORE PUSH1 0x6 DUP4 MSTORE DUP5 DUP8 KECCAK256 PUSH1 0x1 ADD DUP1 SLOAD PUSH1 0xFF NOT AND SWAP1 SSTORE PUSH2 0x283B JUMP JUMPDEST SWAP3 MLOAD TIMESTAMP DUP2 MSTORE LOG3 DUP1 RETURN JUMPDEST DUP4 MLOAD PUSH3 0x461BCD PUSH1 0xE5 SHL DUP2 MSTORE SWAP1 DUP2 ADD DUP4 SWAP1 MSTORE PUSH1 0x31 PUSH1 0x24 DUP3 ADD MSTORE PUSH32 0x43616E6E6F74206C65617665206173206C617374206F776E6572207769746820 PUSH1 0x44 DUP3 ADD MSTORE PUSH17 0x6E6F2061646D696E6973747261746F7273 PUSH1 0x78 SHL PUSH1 0x64 DUP3 ADD MSTORE PUSH1 0x84 SWAP1 REVERT JUMPDEST SWAP1 POP CODESIZE PUSH2 0x3D5 JUMP JUMPDEST DUP4 MLOAD PUSH3 0x461BCD PUSH1 0xE5 SHL DUP2 MSTORE SWAP1 DUP2 ADD DUP4 SWAP1 MSTORE PUSH1 0x23 PUSH1 0x24 DUP3 ADD MSTORE PUSH32 0x596F7520617265206E6F7420616E206F776E6572206F66207468697320726563 PUSH1 0x44 DUP3 ADD MSTORE PUSH3 0x1BDC99 PUSH1 0xEA SHL PUSH1 0x64 DUP3 ADD MSTORE PUSH1 0x84 SWAP1 REVERT JUMPDEST DUP5 DUP1 REVERT JUMPDEST POP SWAP1 CALLVALUE PUSH2 0x273 JUMPI PUSH2 0x22E SWAP1 PUSH2 0x515 PUSH2 0x50F CALLDATASIZE PUSH2 0x2252 JUMP JUMPDEST SWAP1 PUSH2 0x2941 JUMP JUMPDEST SWAP3 SWAP1 SWAP2 MLOAD SWAP3 DUP4 SWAP3 DUP4 PUSH2 0x23F6 JUMP JUMPDEST POP SWAP1 CALLVALUE PUSH2 0x273 JUMPI PUSH1 0x20 SWAP2 PUSH2 0x54C PUSH2 0x538 CALLDATASIZE PUSH2 0x24D7 JUMP JUMPDEST SWAP5 SWAP1 DUP2 DUP6 MLOAD SWAP4 DUP3 DUP6 DUP1 SWAP5 MLOAD SWAP4 DUP5 SWAP3 ADD PUSH2 0x23AE JUMP JUMPDEST DUP2 ADD PUSH1 0x8 DUP2 MSTORE SUB ADD SWAP1 KECCAK256 SWAP1 DUP2 SLOAD DUP5 LT ISZERO PUSH2 0x248 JUMPI POP PUSH1 0x20 SWAP3 PUSH2 0x56D SWAP2 PUSH2 0x24A9 JUMP JUMPDEST SWAP2 SWAP1 SLOAD SWAP1 MLOAD SWAP2 PUSH1 0x3 SHL SHR DUP2 MSTORE RETURN JUMPDEST POP SWAP1 CALLVALUE PUSH2 0x273 JUMPI DUP2 PUSH1 0x3 NOT CALLDATASIZE ADD SLT PUSH2 0x273 JUMPI DUP1 MLOAD SWAP2 DUP3 DUP5 SLOAD SWAP1 DUP2 DUP2 MSTORE PUSH1 0x20 DUP1 SWAP2 ADD SWAP6 DUP4 MSTORE PUSH32 0x8A35ACFBC15FF81A39AE7D344FD709F28E8600B4AA8C65C6B64BFE7FE36BD19B SWAP3 SWAP1 JUMPDEST DUP3 DUP3 LT PUSH2 0x5E5 JUMPI PUSH2 0x22E DUP7 DUP7 PUSH2 0x5DB DUP3 DUP12 SUB DUP4 PUSH2 0x21DB JUMP JUMPDEST MLOAD SWAP2 DUP3 SWAP2 DUP3 PUSH2 0x2293 JUMP JUMPDEST DUP4 SLOAD DUP8 MSTORE SWAP6 DUP7 ADD SWAP6 PUSH1 0x1 SWAP4 DUP5 ADD SWAP4 SWAP1 SWAP2 ADD SWAP1 PUSH2 0x5C3 JUMP JUMPDEST POP SWAP2 CALLVALUE PUSH2 0x244 JUMPI PUSH2 0x60C CALLDATASIZE PUSH2 0x2416 JUMP JUMPDEST SWAP2 SWAP3 SWAP1 PUSH2 0x620 PUSH2 0x61B CALLER PUSH2 0x2A36 JUMP JUMPDEST PUSH2 0x28AD JUMP JUMPDEST PUSH2 0x62C DUP5 MLOAD ISZERO ISZERO PUSH2 0x25CC JUMP JUMPDEST PUSH1 0x1 PUSH1 0x1 PUSH1 0xA0 SHL SUB AND SWAP4 PUSH2 0x641 DUP6 ISZERO ISZERO PUSH2 0x2701 JUMP JUMPDEST PUSH2 0x652 PUSH2 0x64D DUP5 PUSH2 0x29DE JUMP JUMPDEST PUSH2 0x265D JUMP JUMPDEST CALLER DUP7 MSTORE PUSH1 0x20 PUSH1 0x1 DUP2 MSTORE DUP2 DUP8 KECCAK256 SLOAD SWAP6 DUP8 MSTORE DUP2 DUP8 KECCAK256 SLOAD SWAP5 PUSH2 0x672 DUP7 ISZERO ISZERO PUSH2 0x274D JUMP JUMPDEST DUP5 MLOAD DUP3 DUP7 ADD KECCAK256 SWAP4 PUSH2 0x683 DUP8 DUP4 PUSH2 0x2D45 JUMP JUMPDEST DUP1 DUP11 MSTORE PUSH1 0x6 DUP5 MSTORE PUSH2 0x69C PUSH1 0xFF PUSH1 0x1 DUP8 DUP14 KECCAK256 ADD SLOAD AND PUSH2 0x2799 JUMP JUMPDEST DUP10 MSTORE PUSH1 0x6 DUP4 MSTORE PUSH2 0x6AD DUP5 DUP11 KECCAK256 PUSH2 0x2309 JUMP JUMPDEST SWAP5 DUP6 MLOAD DUP5 DUP8 ADD KECCAK256 DUP2 DUP2 EQ PUSH2 0xB37 JUMPI PUSH2 0x6C3 PUSH2 0x27F1 JUMP JUMPDEST DUP6 DUP2 MLOAD SWAP2 ADD KECCAK256 DUP2 EQ PUSH2 0xAC2 JUMPI DUP6 MLOAD SWAP2 DUP5 MLOAD SWAP3 DUP7 DUP2 DUP2 DUP9 ADD SWAP6 PUSH2 0x6E6 DUP2 DUP4 DUP10 PUSH2 0x23AE JUMP JUMPDEST DUP2 ADD PUSH1 0x7 DUP2 MSTORE SUB ADD SWAP1 KECCAK256 SLOAD ISZERO SWAP2 DUP12 DUP4 ISZERO PUSH2 0x71B PUSH2 0x70B PUSH2 0x704 PUSH2 0x27F1 JUMP JUMPDEST DUP5 DUP12 PUSH2 0x2D80 JUMP JUMPDEST SWAP3 PUSH2 0x714 PUSH2 0x2812 JUMP JUMPDEST SWAP1 DUP11 PUSH2 0x2D80 JUMP JUMPDEST SWAP1 PUSH2 0x724 PUSH2 0x27F1 JUMP JUMPDEST DUP1 MLOAD SWAP1 DUP12 ADD KECCAK256 DUP6 SUB PUSH2 0x91E JUMPI ISZERO PUSH2 0x8C1 JUMPI POP ISZERO PUSH2 0x880 JUMPI JUMPDEST PUSH2 0x744 PUSH2 0x2812 JUMP JUMPDEST DUP8 DUP2 MLOAD SWAP2 ADD KECCAK256 EQ SWAP1 DUP2 PUSH2 0x869 JUMPI JUMPDEST POP PUSH2 0x7C7 JUMPI JUMPDEST POP POP POP SWAP2 PUSH2 0x7BB PUSH32 0xEA2C9EBE68919DDF880B3221D8D508D908163D0973E8B79DF108F5D110D0C633 SWAP5 SWAP3 PUSH2 0x79A DUP6 PUSH2 0x795 DUP12 DUP11 DUP13 PUSH2 0x7AE SWAP11 PUSH2 0x2BC9 JUMP JUMPDEST PUSH2 0x283B JUMP JUMPDEST SWAP7 DUP4 MLOAD SWAP6 DUP7 SWAP6 PUSH1 0x60 DUP8 MSTORE PUSH1 0x60 DUP8 ADD SWAP1 PUSH2 0x23D1 JUMP JUMPDEST SWAP2 DUP6 DUP4 SUB SWAP1 DUP7 ADD MSTORE PUSH2 0x23D1 JUMP JUMPDEST SWAP1 TIMESTAMP SWAP1 DUP4 ADD MSTORE SUB SWAP1 LOG4 DUP1 RETURN JUMPDEST PUSH2 0x7D2 JUMPI JUMPDEST DUP1 PUSH2 0x758 JUMP JUMPDEST PUSH2 0x7E9 DUP5 PUSH1 0x1 SWAP3 DUP8 MLOAD DUP1 SWAP4 DUP2 SWAP3 DUP9 MLOAD SWAP3 DUP4 SWAP2 PUSH2 0x23AE JUMP JUMPDEST DUP2 ADD PUSH1 0x8 DUP2 MSTORE SUB ADD SWAP1 KECCAK256 SLOAD GT ISZERO PUSH2 0x800 JUMPI DUP1 PUSH2 0x7CC JUMP JUMPDEST DUP4 MLOAD PUSH3 0x461BCD PUSH1 0xE5 SHL DUP2 MSTORE SWAP1 DUP2 ADD DUP4 SWAP1 MSTORE PUSH1 0x39 PUSH1 0x24 DUP3 ADD MSTORE PUSH32 0x43616E6E6F742064656D6F746520746865206C6173742061646D696E69737472 PUSH1 0x44 DUP3 ADD MSTORE PUSH32 0x61746F72207768656E206E6F206F776E65722065786973747300000000000000 PUSH1 0x64 DUP3 ADD MSTORE PUSH1 0x84 SWAP1 REVERT JUMPDEST SWAP1 POP PUSH2 0x873 PUSH2 0x28F0 JUMP JUMPDEST DUP7 DUP2 MLOAD SWAP2 ADD KECCAK256 EQ CODESIZE PUSH2 0x752 JUMP JUMPDEST PUSH1 0x64 DUP6 DUP9 DUP1 DUP12 MLOAD SWAP3 PUSH3 0x461BCD PUSH1 0xE5 SHL DUP5 MSTORE DUP4 ADD MSTORE PUSH1 0x24 DUP3 ADD MSTORE PUSH32 0x4F6E6C79206F776E6572732063616E2070726F6D6F746520746F206F776E6572 PUSH1 0x44 DUP3 ADD MSTORE REVERT JUMPDEST SWAP1 POP PUSH2 0x73C JUMPI DUP8 MLOAD PUSH3 0x461BCD PUSH1 0xE5 SHL DUP2 MSTORE DUP1 DUP7 ADD DUP9 SWAP1 MSTORE PUSH1 0x2B PUSH1 0x24 DUP3 ADD MSTORE PUSH32 0x4F6E6C792061646D696E6973747261746F72732063616E2070726F6D6F746520 PUSH1 0x44 DUP3 ADD MSTORE PUSH11 0x3334B939BA1037BBB732B9 PUSH1 0xA9 SHL PUSH1 0x64 DUP3 ADD MSTORE PUSH1 0x84 SWAP1 REVERT JUMPDEST PUSH2 0x926 PUSH2 0x2812 JUMP JUMPDEST DUP1 MLOAD SWAP1 DUP12 ADD KECCAK256 DUP6 SUB PUSH2 0x99E JUMPI POP DUP2 ISZERO PUSH2 0x996 JUMPI JUMPDEST POP PUSH2 0x73C JUMPI DUP8 MLOAD PUSH3 0x461BCD PUSH1 0xE5 SHL DUP2 MSTORE DUP1 DUP7 ADD DUP9 SWAP1 MSTORE PUSH1 0x3B PUSH1 0x24 DUP3 ADD MSTORE PUSH1 0x0 DUP1 MLOAD PUSH1 0x20 PUSH2 0x3085 DUP4 CODECOPY DUP2 MLOAD SWAP2 MSTORE PUSH1 0x44 DUP3 ADD MSTORE PUSH32 0x616E2070726F6D6F746520746F2061646D696E6973747261746F720000000000 PUSH1 0x64 DUP3 ADD MSTORE PUSH1 0x84 SWAP1 REVERT JUMPDEST SWAP1 POP CODESIZE PUSH2 0x93A JUMP JUMPDEST PUSH2 0x9A6 PUSH2 0x28F0 JUMP JUMPDEST DUP11 DUP2 MLOAD SWAP2 ADD KECCAK256 DUP6 EQ PUSH2 0x9BB JUMPI JUMPDEST POP POP POP PUSH2 0x73C JUMP JUMPDEST ISZERO PUSH2 0xA68 JUMPI DUP2 ISZERO PUSH2 0xA51 JUMPI JUMPDEST POP ISZERO PUSH2 0x9D6 JUMPI JUMPDEST CODESIZE DUP1 DUP1 PUSH2 0x9B3 JUMP JUMPDEST DUP8 MLOAD PUSH3 0x461BCD PUSH1 0xE5 SHL DUP2 MSTORE DUP1 DUP7 ADD DUP9 SWAP1 MSTORE PUSH1 0x49 PUSH1 0x24 DUP3 ADD MSTORE PUSH32 0x4F6E6C79206F776E6572732063616E2064656D6F7465206F74686572732E2041 PUSH1 0x44 DUP3 ADD MSTORE PUSH32 0x646D696E6973747261746F72732063616E206F6E6C792064656D6F7465207468 PUSH1 0x64 DUP3 ADD MSTORE PUSH9 0x32B6B9B2B63B32B997 PUSH1 0xB9 SHL PUSH1 0x84 DUP3 ADD MSTORE PUSH1 0xA4 SWAP1 REVERT JUMPDEST SWAP1 POP DUP1 PUSH2 0xA5F JUMPI JUMPDEST CODESIZE PUSH2 0x9C7 JUMP JUMPDEST POP DUP11 DUP13 EQ PUSH2 0xA59 JUMP JUMPDEST SWAP1 POP PUSH2 0x9CE JUMPI DUP8 MLOAD PUSH3 0x461BCD PUSH1 0xE5 SHL DUP2 MSTORE DUP1 DUP7 ADD DUP9 SWAP1 MSTORE PUSH1 0x28 PUSH1 0x24 DUP3 ADD MSTORE PUSH32 0x4F6E6C792061646D696E6973747261746F72732063616E2064656D6F74652074 PUSH1 0x44 DUP3 ADD MSTORE PUSH8 0x37903B34B2BBB2B9 PUSH1 0xC1 SHL PUSH1 0x64 DUP3 ADD MSTORE PUSH1 0x84 SWAP1 REVERT JUMPDEST DUP6 MLOAD PUSH3 0x461BCD PUSH1 0xE5 SHL DUP2 MSTORE DUP1 DUP5 ADD DUP7 SWAP1 MSTORE PUSH1 0x43 PUSH1 0x24 DUP3 ADD MSTORE PUSH32 0x4F776E6572732063616E6E6F742062652064656D6F7465642E204F776E657220 PUSH1 0x44 DUP3 ADD MSTORE PUSH32 0x6D75737420766F6C756E746172696C792072656D6F7665207468656D73656C76 PUSH1 0x64 DUP3 ADD MSTORE PUSH3 0x32B997 PUSH1 0xE9 SHL PUSH1 0x84 DUP3 ADD MSTORE PUSH1 0xA4 SWAP1 REVERT JUMPDEST DUP6 MLOAD PUSH3 0x461BCD PUSH1 0xE5 SHL DUP2 MSTORE DUP1 DUP5 ADD DUP7 SWAP1 MSTORE PUSH1 0x1C PUSH1 0x24 DUP3 ADD MSTORE PUSH32 0x54617267657420616C726561647920686173207468697320726F6C6500000000 PUSH1 0x44 DUP3 ADD MSTORE PUSH1 0x64 SWAP1 REVERT JUMPDEST POP DUP3 SWAP1 CALLVALUE PUSH2 0x248 JUMPI PUSH1 0x20 SWAP2 DUP3 PUSH1 0x3 NOT CALLDATASIZE ADD SLT PUSH2 0x273 JUMPI SWAP3 SWAP2 SWAP3 CALLDATALOAD DUP2 MSTORE PUSH1 0x3 DUP4 MSTORE DUP2 DUP2 KECCAK256 SWAP1 DUP3 MLOAD DUP1 DUP6 DUP5 SLOAD SWAP2 DUP3 DUP2 MSTORE ADD SWAP1 DUP2 SWAP5 DUP5 MSTORE DUP7 DUP5 KECCAK256 SWAP1 DUP5 JUMPDEST DUP2 DUP2 LT PUSH2 0xC0E JUMPI POP POP POP DUP2 PUSH2 0xBCA SWAP2 SUB DUP3 PUSH2 0x21DB JUMP JUMPDEST DUP4 MLOAD SWAP5 DUP6 SWAP5 DUP2 DUP7 ADD SWAP3 DUP3 DUP8 MSTORE MLOAD DUP1 SWAP4 MSTORE DUP6 ADD SWAP4 SWAP3 JUMPDEST DUP3 DUP2 LT PUSH2 0xBEE JUMPI POP POP POP POP SUB SWAP1 RETURN JUMPDEST DUP4 MLOAD PUSH1 0x1 PUSH1 0x1 PUSH1 0xA0 SHL SUB AND DUP6 MSTORE DUP7 SWAP6 POP SWAP4 DUP2 ADD SWAP4 SWAP3 DUP2 ADD SWAP3 PUSH1 0x1 ADD PUSH2 0xBDF JUMP JUMPDEST DUP3 SLOAD PUSH1 0x1 PUSH1 0x1 PUSH1 0xA0 SHL SUB AND DUP5 MSTORE SWAP3 DUP9 ADD SWAP3 PUSH1 0x1 SWAP3 DUP4 ADD SWAP3 ADD PUSH2 0xBB4 JUMP JUMPDEST POP SWAP1 CALLVALUE PUSH2 0x273 JUMPI PUSH1 0x20 CALLDATASIZE PUSH1 0x3 NOT ADD SLT PUSH2 0x273 JUMPI PUSH1 0x20 SWAP1 PUSH2 0xC51 PUSH2 0xC4C PUSH2 0x218F JUMP JUMPDEST PUSH2 0x2EA8 JUMP JUMPDEST SWAP1 MLOAD SWAP1 ISZERO ISZERO DUP2 MSTORE RETURN JUMPDEST POP SWAP1 CALLVALUE PUSH2 0x273 JUMPI PUSH1 0x20 SWAP1 PUSH2 0xC51 PUSH2 0xC70 CALLDATASIZE PUSH2 0x2416 JUMP JUMPDEST SWAP2 PUSH2 0x2912 JUMP JUMPDEST POP SWAP1 CALLVALUE PUSH2 0x273 JUMPI DUP2 PUSH1 0x3 NOT CALLDATASIZE ADD SLT PUSH2 0x273 JUMPI PUSH1 0x20 SWAP1 PUSH1 0x5 SLOAD SWAP1 MLOAD SWAP1 DUP2 MSTORE RETURN JUMPDEST POP DUP3 CALLVALUE PUSH2 0x273 JUMPI PUSH2 0xCA5 CALLDATASIZE PUSH2 0x2416 JUMP JUMPDEST SWAP2 SWAP3 SWAP1 PUSH2 0xCB4 PUSH2 0x61B CALLER PUSH2 0x2A36 JUMP JUMPDEST PUSH2 0xCC0 DUP5 MLOAD ISZERO ISZERO PUSH2 0x25CC JUMP JUMPDEST PUSH1 0x1 PUSH1 0x1 PUSH1 0xA0 SHL SUB AND SWAP3 PUSH2 0xCD5 DUP5 ISZERO ISZERO PUSH2 0x2701 JUMP JUMPDEST PUSH2 0xCE1 PUSH2 0x64D DUP5 PUSH2 0x29DE JUMP JUMPDEST CALLER DUP6 MSTORE PUSH1 0x20 SWAP2 PUSH1 0x1 DUP4 MSTORE DUP7 DUP7 KECCAK256 SLOAD SWAP5 DUP7 MSTORE DUP7 DUP7 KECCAK256 SLOAD SWAP3 PUSH2 0xD02 DUP5 ISZERO ISZERO PUSH2 0x274D JUMP JUMPDEST DUP5 MLOAD DUP2 DUP7 ADD KECCAK256 PUSH2 0xD12 DUP8 DUP6 PUSH2 0x2D45 JUMP JUMPDEST DUP9 MSTORE PUSH1 0x6 DUP3 MSTORE PUSH1 0xFF PUSH1 0x1 DUP11 DUP11 KECCAK256 ADD SLOAD AND ISZERO PUSH2 0xFBC JUMPI DUP9 MLOAD DUP3 DUP2 DUP7 MLOAD PUSH2 0xD3A DUP2 DUP4 DUP6 DUP12 ADD PUSH2 0x23AE JUMP JUMPDEST DUP2 ADD PUSH1 0x7 DUP2 MSTORE SUB ADD SWAP1 KECCAK256 SLOAD ISZERO ISZERO SWAP1 PUSH2 0xD5A PUSH2 0xD53 PUSH2 0x27F1 JUMP JUMPDEST DUP10 DUP8 PUSH2 0x2D80 JUMP JUMPDEST SWAP2 PUSH2 0xD6D PUSH2 0xD66 PUSH2 0x2812 JUMP JUMPDEST DUP11 DUP9 PUSH2 0x2D80 JUMP JUMPDEST SWAP2 PUSH2 0xD76 PUSH2 0x27F1 JUMP JUMPDEST DUP1 MLOAD SWAP1 DUP7 ADD KECCAK256 DUP2 SUB PUSH2 0xEB7 JUMPI POP ISZERO PUSH2 0xE5D JUMPI POP ISZERO PUSH2 0xE1B JUMPI JUMPDEST PUSH2 0xD99 DUP5 DUP5 PUSH2 0x2D45 JUMP JUMPDEST DUP8 MSTORE PUSH1 0x6 DUP2 MSTORE PUSH1 0xFF PUSH1 0x1 DUP10 DUP10 KECCAK256 ADD SLOAD AND PUSH2 0xDBD JUMPI POP POP PUSH2 0xDBA SWAP5 SWAP6 POP PUSH2 0x2BC9 JUMP JUMPDEST DUP1 RETURN JUMPDEST DUP8 MLOAD PUSH3 0x461BCD PUSH1 0xE5 SHL DUP2 MSTORE SWAP2 DUP3 ADD MSTORE PUSH1 0x33 PUSH1 0x24 DUP3 ADD MSTORE PUSH32 0x54617267657420616C726561647920686173206120726F6C652E205573652063 PUSH1 0x44 DUP3 ADD MSTORE PUSH19 0x1A185B99D9549BDB194A0A481A5B9CDD195859 PUSH1 0x6A SHL PUSH1 0x64 DUP3 ADD MSTORE PUSH1 0x84 SWAP2 POP REVERT JUMPDEST DUP8 MLOAD PUSH3 0x461BCD PUSH1 0xE5 SHL DUP2 MSTORE SWAP2 DUP3 ADD DUP2 SWAP1 MSTORE PUSH1 0x24 DUP3 ADD MSTORE PUSH32 0x4F6E6C79206F776E6572732063616E206772616E74206F776E657220726F6C65 PUSH1 0x44 DUP3 ADD MSTORE PUSH1 0x64 SWAP2 POP REVERT JUMPDEST SWAP1 POP PUSH2 0xD8F JUMPI DUP8 MLOAD PUSH3 0x461BCD PUSH1 0xE5 SHL DUP2 MSTORE SWAP2 DUP3 ADD MSTORE PUSH1 0x29 PUSH1 0x24 DUP3 ADD MSTORE PUSH32 0x4F6E6C792061646D696E6973747261746F72732063616E206772616E74206669 PUSH1 0x44 DUP3 ADD MSTORE PUSH9 0x3939BA1037BBB732B9 PUSH1 0xB9 SHL PUSH1 0x64 DUP3 ADD MSTORE PUSH1 0x84 SWAP2 POP REVERT JUMPDEST SWAP1 POP PUSH2 0xEC1 PUSH2 0x2812 JUMP JUMPDEST DUP1 MLOAD SWAP1 DUP6 ADD KECCAK256 DUP2 SUB PUSH2 0xF38 JUMPI POP DUP2 ISZERO PUSH2 0xF30 JUMPI JUMPDEST POP PUSH2 0xD8F JUMPI DUP8 MLOAD PUSH3 0x461BCD PUSH1 0xE5 SHL DUP2 MSTORE SWAP2 DUP3 ADD MSTORE PUSH1 0x3B PUSH1 0x24 DUP3 ADD MSTORE PUSH1 0x0 DUP1 MLOAD PUSH1 0x20 PUSH2 0x3085 DUP4 CODECOPY DUP2 MLOAD SWAP2 MSTORE PUSH1 0x44 DUP3 ADD MSTORE PUSH32 0x616E206772616E742061646D696E6973747261746F7220726F6C650000000000 PUSH1 0x64 DUP3 ADD MSTORE PUSH1 0x84 SWAP2 POP REVERT JUMPDEST SWAP1 POP DUP10 PUSH2 0xED5 JUMP JUMPDEST PUSH2 0xF40 PUSH2 0x28F0 JUMP JUMPDEST DUP5 DUP2 MLOAD SWAP2 ADD KECCAK256 EQ PUSH2 0xF53 JUMPI JUMPDEST POP POP PUSH2 0xD8F JUMP JUMPDEST DUP2 ISZERO PUSH2 0xFB4 JUMPI JUMPDEST POP ISZERO PUSH2 0xF67 JUMPI DUP9 DUP1 PUSH2 0xF4C JUMP JUMPDEST DUP8 MLOAD PUSH3 0x461BCD PUSH1 0xE5 SHL DUP2 MSTORE SWAP2 DUP3 ADD MSTORE PUSH1 0x34 PUSH1 0x24 DUP3 ADD MSTORE PUSH1 0x0 DUP1 MLOAD PUSH1 0x20 PUSH2 0x3085 DUP4 CODECOPY DUP2 MLOAD SWAP2 MSTORE PUSH1 0x44 DUP3 ADD MSTORE PUSH20 0x616E206772616E742076696577657220726F6C65 PUSH1 0x60 SHL PUSH1 0x64 DUP3 ADD MSTORE PUSH1 0x84 SWAP2 POP REVERT JUMPDEST SWAP1 POP DUP10 PUSH2 0xF5A JUMP JUMPDEST PUSH1 0x64 DUP4 DUP4 DUP1 DUP13 MLOAD SWAP3 PUSH3 0x461BCD PUSH1 0xE5 SHL DUP5 MSTORE DUP4 ADD MSTORE PUSH1 0x24 DUP3 ADD MSTORE PUSH32 0x596F752068617665206E6F20726F6C6520666F722074686973207265636F7264 PUSH1 0x44 DUP3 ADD MSTORE REVERT JUMPDEST POP SWAP2 SWAP1 CALLVALUE PUSH2 0x244 JUMPI PUSH1 0x20 CALLDATASIZE PUSH1 0x3 NOT ADD SLT PUSH2 0x244 JUMPI PUSH2 0x1019 PUSH2 0x218F JUMP JUMPDEST DUP4 SLOAD PUSH1 0x1 PUSH1 0x1 PUSH1 0xA0 SHL SUB SWAP2 SWAP1 PUSH2 0x1032 SWAP1 DUP4 AND CALLER EQ PUSH2 0x2508 JUMP JUMPDEST AND DUP1 DUP5 MSTORE PUSH1 0x1 SWAP3 DUP4 PUSH1 0x20 MSTORE PUSH2 0x104B DUP4 DUP7 KECCAK256 SLOAD ISZERO ISZERO PUSH2 0x2541 JUMP JUMPDEST DUP2 DUP6 MSTORE DUP4 PUSH1 0x20 MSTORE PUSH1 0xFF DUP5 DUP5 DUP8 KECCAK256 ADD SLOAD AND PUSH2 0x1079 JUMPI POP DUP4 MSTORE PUSH1 0x20 DUP3 SWAP1 MSTORE DUP3 KECCAK256 DUP2 ADD DUP1 SLOAD PUSH1 0xFF NOT AND SWAP1 SWAP2 OR SWAP1 SSTORE DUP1 RETURN JUMPDEST PUSH1 0x64 SWAP1 PUSH1 0x20 DUP5 MLOAD SWAP2 PUSH3 0x461BCD PUSH1 0xE5 SHL DUP4 MSTORE DUP3 ADD MSTORE PUSH1 0x15 PUSH1 0x24 DUP3 ADD MSTORE PUSH21 0x57616C6C657420616C726561647920616374697665 PUSH1 0x58 SHL PUSH1 0x44 DUP3 ADD MSTORE REVERT JUMPDEST POP SWAP1 CALLVALUE PUSH2 0x273 JUMPI PUSH1 0x20 SWAP2 PUSH2 0x10CA PUSH2 0x538 CALLDATASIZE PUSH2 0x24D7 JUMP JUMPDEST DUP2 ADD PUSH1 0x9 DUP2 MSTORE SUB ADD SWAP1 KECCAK256 SWAP1 DUP2 SLOAD DUP5 LT ISZERO PUSH2 0x248 JUMPI POP PUSH1 0x20 SWAP3 PUSH2 0x56D SWAP2 PUSH2 0x24A9 JUMP JUMPDEST POP SWAP1 CALLVALUE PUSH2 0x273 JUMPI PUSH1 0x20 SWAP1 PUSH2 0xC51 PUSH2 0x1101 CALLDATASIZE PUSH2 0x2252 JUMP JUMPDEST SWAP1 PUSH2 0x285B JUMP JUMPDEST POP SWAP2 CALLVALUE PUSH2 0x244 JUMPI PUSH1 0x20 CALLDATASIZE PUSH1 0x3 NOT ADD SLT PUSH2 0x244 JUMPI DUP1 CALLDATALOAD SWAP1 DUP1 SLOAD DUP3 LT ISZERO PUSH2 0x323 JUMPI PUSH1 0x20 SWAP4 MSTORE PUSH32 0x8A35ACFBC15FF81A39AE7D344FD709F28E8600B4AA8C65C6B64BFE7FE36BD19B ADD SLOAD SWAP1 MLOAD SWAP1 DUP2 MSTORE RETURN JUMPDEST POP SWAP1 CALLVALUE PUSH2 0x273 JUMPI PUSH1 0x20 SWAP2 PUSH2 0x116A PUSH2 0x538 CALLDATASIZE PUSH2 0x24D7 JUMP JUMPDEST DUP2 ADD PUSH1 0x7 DUP2 MSTORE SUB ADD SWAP1 KECCAK256 SWAP1 DUP2 SLOAD DUP5 LT ISZERO PUSH2 0x248 JUMPI POP PUSH1 0x20 SWAP3 PUSH2 0x56D SWAP2 PUSH2 0x24A9 JUMP JUMPDEST POP SWAP2 SWAP1 CALLVALUE PUSH2 0x244 JUMPI DUP1 PUSH1 0x3 NOT CALLDATASIZE ADD SLT PUSH2 0x244 JUMPI DUP2 CALLDATALOAD SWAP1 PUSH1 0x24 CALLDATALOAD DUP4 DUP2 LT ISZERO PUSH2 0x4F4 JUMPI PUSH2 0x11C0 PUSH1 0x1 DUP1 PUSH1 0xA0 SHL SUB DUP7 SLOAD AND CALLER EQ PUSH2 0x2508 JUMP JUMPDEST DUP3 DUP6 MSTORE PUSH1 0x20 PUSH1 0x2 DUP2 MSTORE PUSH1 0xFF DUP4 DUP8 KECCAK256 SLOAD AND DUP6 DUP2 LT ISZERO PUSH2 0x12DC JUMPI ISZERO PUSH2 0x12A4 JUMPI DUP4 DUP7 MSTORE PUSH1 0x2 DUP2 MSTORE PUSH1 0xFF DUP4 DUP8 KECCAK256 SLOAD AND SWAP5 DUP1 DUP7 LT ISZERO PUSH2 0x1291 JUMPI DUP3 DUP7 EQ PUSH2 0x125A JUMPI POP SWAP1 PUSH2 0x122C SWAP2 DUP5 DUP8 MSTORE PUSH1 0x2 DUP2 MSTORE DUP4 DUP8 KECCAK256 PUSH1 0xFF NOT DUP2 SLOAD AND PUSH1 0xFF DUP5 AND OR SWAP1 SSTORE PUSH2 0x1224 DUP5 MLOAD DUP1 SWAP8 PUSH2 0x2470 JUMP JUMPDEST DUP6 ADD SWAP1 PUSH2 0x2470 JUMP JUMPDEST TIMESTAMP SWAP1 DUP4 ADD MSTORE PUSH32 0xF6277C6EE46649823DB9A5C531DB3112B4340C67179CAE1932BA3420DCC37CC7 PUSH1 0x60 CALLER SWAP4 LOG3 DUP1 RETURN JUMPDEST PUSH1 0x64 SWAP2 DUP5 MLOAD SWAP2 PUSH3 0x461BCD PUSH1 0xE5 SHL DUP4 MSTORE DUP3 ADD MSTORE PUSH1 0x13 PUSH1 0x24 DUP3 ADD MSTORE PUSH19 0x416C7265616479207468697320737461747573 PUSH1 0x68 SHL PUSH1 0x44 DUP3 ADD MSTORE REVERT JUMPDEST PUSH4 0x4E487B71 PUSH1 0xE0 SHL DUP8 MSTORE PUSH1 0x21 SWAP1 MSTORE PUSH1 0x24 DUP7 REVERT JUMPDEST DUP5 PUSH1 0x64 SWAP2 DUP5 MLOAD SWAP2 PUSH3 0x461BCD PUSH1 0xE5 SHL DUP4 MSTORE DUP3 ADD MSTORE PUSH1 0x13 PUSH1 0x24 DUP3 ADD MSTORE PUSH19 0x155CD95C881B9BDD081C9959DA5CDD195C9959 PUSH1 0x6A SHL PUSH1 0x44 DUP3 ADD MSTORE REVERT JUMPDEST PUSH4 0x4E487B71 PUSH1 0xE0 SHL DUP8 MSTORE PUSH1 0x21 DUP7 MSTORE PUSH1 0x24 DUP8 REVERT JUMPDEST POP SWAP1 CALLVALUE PUSH2 0x273 JUMPI PUSH2 0x12FF CALLDATASIZE PUSH2 0x2493 JUMP JUMPDEST SWAP3 SWAP1 DUP2 MSTORE PUSH1 0x3 PUSH1 0x20 MSTORE DUP2 DUP2 KECCAK256 SWAP1 DUP2 SLOAD DUP5 LT ISZERO PUSH2 0x248 JUMPI POP PUSH1 0x20 SWAP3 PUSH2 0x1322 SWAP2 PUSH2 0x24A9 JUMP JUMPDEST PUSH1 0x1 DUP1 PUSH1 0xA0 SHL SUB SWAP2 SLOAD SWAP1 PUSH1 0x3 SHL SHR AND SWAP1 MLOAD SWAP1 DUP2 MSTORE RETURN JUMPDEST POP SWAP1 CALLVALUE PUSH2 0x273 JUMPI PUSH1 0x20 CALLDATASIZE PUSH1 0x3 NOT ADD SLT PUSH2 0x273 JUMPI SWAP1 DUP2 SWAP1 PUSH1 0x1 PUSH1 0x1 PUSH1 0xA0 SHL SUB PUSH2 0x135E PUSH2 0x218F JUMP JUMPDEST AND DUP2 MSTORE PUSH1 0x1 PUSH1 0x20 MSTORE KECCAK256 PUSH1 0xFF PUSH1 0x1 DUP3 SLOAD SWAP3 ADD SLOAD AND DUP3 MLOAD SWAP2 DUP3 MSTORE ISZERO ISZERO PUSH1 0x20 DUP3 ADD MSTORE RETURN JUMPDEST POP SWAP1 CALLVALUE PUSH2 0x273 JUMPI DUP2 PUSH1 0x3 NOT CALLDATASIZE ADD SLT PUSH2 0x273 JUMPI PUSH1 0x20 SWAP1 PUSH1 0xB SLOAD SWAP1 MLOAD SWAP1 DUP2 MSTORE RETURN JUMPDEST POP SWAP2 SWAP1 CALLVALUE PUSH2 0x244 JUMPI PUSH1 0x20 CALLDATASIZE PUSH1 0x3 NOT ADD SLT PUSH2 0x244 JUMPI PUSH2 0x13BA PUSH2 0x218F JUMP JUMPDEST DUP4 SLOAD SWAP2 PUSH1 0x1 PUSH1 0x1 PUSH1 0xA0 SHL SUB DUP1 DUP5 AND SWAP3 PUSH2 0x13D4 CALLER DUP6 EQ PUSH2 0x2508 JUMP JUMPDEST AND SWAP4 DUP5 ISZERO PUSH2 0x1418 JUMPI POP SWAP1 PUSH32 0x38DF5FA0F7FEF0D515CA1F5388CB5790AC5885D5FCA8D05D9F943E563C33A4B3 PUSH1 0x20 DUP6 SWAP4 MLOAD TIMESTAMP DUP2 MSTORE LOG3 PUSH1 0x1 PUSH1 0x1 PUSH1 0xA0 SHL SUB NOT AND OR DUP2 SSTORE DUP1 RETURN JUMPDEST PUSH1 0x20 PUSH1 0x64 SWAP3 MLOAD SWAP2 PUSH3 0x461BCD PUSH1 0xE5 SHL DUP4 MSTORE DUP3 ADD MSTORE PUSH1 0xF PUSH1 0x24 DUP3 ADD MSTORE PUSH15 0x496E76616C69642061646472657373 PUSH1 0x88 SHL PUSH1 0x44 DUP3 ADD MSTORE REVERT JUMPDEST POP SWAP2 SWAP1 CALLVALUE PUSH2 0x244 JUMPI PUSH2 0x145D CALLDATASIZE PUSH2 0x2252 JUMP JUMPDEST PUSH2 0x146B DUP3 SWAP4 SWAP3 MLOAD ISZERO ISZERO PUSH2 0x25CC JUMP JUMPDEST PUSH1 0x1 PUSH1 0x1 PUSH1 0xA0 SHL SUB AND SWAP3 PUSH2 0x1480 DUP5 ISZERO ISZERO PUSH2 0x2701 JUMP JUMPDEST CALLER DUP6 MSTORE PUSH1 0x20 SWAP2 PUSH1 0x1 DUP4 MSTORE DUP1 DUP7 KECCAK256 SLOAD SWAP5 DUP7 MSTORE DUP1 DUP7 KECCAK256 SLOAD SWAP4 PUSH2 0x14A1 DUP6 ISZERO ISZERO PUSH2 0x274D JUMP JUMPDEST PUSH2 0x14AB DUP6 DUP3 PUSH2 0x2D45 JUMP JUMPDEST DUP1 DUP9 MSTORE PUSH1 0x6 DUP6 MSTORE PUSH2 0x14C4 PUSH1 0xFF PUSH1 0x1 DUP6 DUP12 KECCAK256 ADD SLOAD AND PUSH2 0x2799 JUMP JUMPDEST DUP1 DUP9 MSTORE PUSH1 0x6 DUP6 MSTORE PUSH2 0x14D6 DUP4 DUP10 KECCAK256 PUSH2 0x2309 JUMP JUMPDEST SWAP4 DUP5 MLOAD DUP7 DUP7 ADD KECCAK256 PUSH2 0x14E5 PUSH2 0x27F1 JUMP JUMPDEST DUP8 DUP2 MLOAD SWAP2 ADD KECCAK256 DUP2 EQ PUSH2 0x1747 JUMPI DUP8 DUP10 SUB PUSH2 0x1631 JUMPI JUMPDEST PUSH2 0x1501 PUSH2 0x2812 JUMP JUMPDEST DUP8 DUP2 MLOAD SWAP2 ADD KECCAK256 EQ PUSH2 0x156E JUMPI JUMPDEST POP DUP2 PUSH2 0x155A SWAP2 PUSH2 0x1541 DUP7 DUP10 PUSH32 0x938E21A28464DB5F9B9E24D1A58E038899DE364F69DBA20C154EE6FD4CD86DEF SWAP9 SWAP8 SWAP7 PUSH2 0x2DE0 JUMP JUMPDEST DUP10 MSTORE PUSH1 0x6 DUP7 MSTORE DUP3 DUP10 KECCAK256 PUSH1 0x1 ADD DUP1 SLOAD PUSH1 0xFF NOT AND SWAP1 SSTORE PUSH2 0x283B JUMP JUMPDEST SWAP4 PUSH2 0x7BB DUP3 MLOAD SWAP4 DUP4 DUP6 SWAP5 DUP6 MSTORE DUP5 ADD SWAP1 PUSH2 0x23D1 JUMP JUMPDEST DUP4 MLOAD PUSH2 0x15A7 DUP8 PUSH1 0x1 DUP7 MLOAD SWAP4 DUP3 DUP2 DUP2 DUP11 ADD SWAP7 PUSH2 0x158A DUP2 DUP4 DUP11 PUSH2 0x23AE JUMP JUMPDEST DUP2 ADD PUSH1 0x8 DUP2 MSTORE SUB ADD SWAP1 KECCAK256 SLOAD GT SWAP3 DUP8 MLOAD DUP1 SWAP4 DUP2 SWAP3 DUP10 MLOAD SWAP3 DUP4 SWAP2 PUSH2 0x23AE JUMP JUMPDEST DUP2 ADD PUSH1 0x7 DUP2 MSTORE SUB ADD SWAP1 KECCAK256 SLOAD ISZERO ISZERO DUP2 ISZERO PUSH2 0x1629 JUMPI JUMPDEST POP PUSH2 0x150D JUMPI DUP4 MLOAD PUSH3 0x461BCD PUSH1 0xE5 SHL DUP2 MSTORE SWAP1 DUP2 ADD DUP7 SWAP1 MSTORE PUSH1 0x39 PUSH1 0x24 DUP3 ADD MSTORE PUSH32 0x43616E6E6F74207265766F6B65206C6173742061646D696E6973747261746F72 PUSH1 0x44 DUP3 ADD MSTORE PUSH32 0x20776974686F757420616E206F776E65722070726573656E7400000000000000 PUSH1 0x64 DUP3 ADD MSTORE PUSH1 0x84 SWAP1 REVERT JUMPDEST SWAP1 POP CODESIZE PUSH2 0x15BB JUMP JUMPDEST PUSH2 0x1643 PUSH2 0x163C PUSH2 0x27F1 JUMP JUMPDEST DUP11 DUP7 PUSH2 0x2D80 JUMP JUMPDEST DUP1 ISZERO PUSH2 0x1736 JUMPI JUMPDEST ISZERO PUSH2 0x16ED JUMPI PUSH2 0x165A PUSH2 0x163C PUSH2 0x27F1 JUMP JUMPDEST ISZERO PUSH2 0x1665 JUMPI JUMPDEST PUSH2 0x14F9 JUMP JUMPDEST PUSH2 0x166D PUSH2 0x2812 JUMP JUMPDEST DUP8 DUP2 MLOAD SWAP2 ADD KECCAK256 DUP2 SUB PUSH2 0x14F9 JUMPI DUP5 MLOAD DUP8 DUP2 DUP7 MLOAD PUSH2 0x168C DUP2 DUP4 DUP6 DUP12 ADD PUSH2 0x23AE JUMP JUMPDEST DUP2 ADD PUSH1 0x7 DUP2 MSTORE SUB ADD SWAP1 KECCAK256 SLOAD ISZERO PUSH2 0x1660 JUMPI DUP5 MLOAD PUSH3 0x461BCD PUSH1 0xE5 SHL DUP2 MSTORE DUP1 DUP4 ADD DUP9 SWAP1 MSTORE PUSH1 0x25 PUSH1 0x24 DUP3 ADD MSTORE PUSH32 0x4F6E6C79206F776E6572732063616E207265766F6B652061646D696E69737472 PUSH1 0x44 DUP3 ADD MSTORE PUSH5 0x61746F7273 PUSH1 0xD8 SHL PUSH1 0x64 DUP3 ADD MSTORE PUSH1 0x84 SWAP1 REVERT JUMPDEST DUP5 MLOAD PUSH3 0x461BCD PUSH1 0xE5 SHL DUP2 MSTORE DUP1 DUP4 ADD DUP9 SWAP1 MSTORE PUSH1 0x2F PUSH1 0x24 DUP3 ADD MSTORE PUSH1 0x0 DUP1 MLOAD PUSH1 0x20 PUSH2 0x3085 DUP4 CODECOPY DUP2 MLOAD SWAP2 MSTORE PUSH1 0x44 DUP3 ADD MSTORE PUSH15 0x616E207265766F6B6520726F6C6573 PUSH1 0x88 SHL PUSH1 0x64 DUP3 ADD MSTORE PUSH1 0x84 SWAP1 REVERT JUMPDEST POP PUSH2 0x1742 PUSH2 0x163C PUSH2 0x2812 JUMP JUMPDEST PUSH2 0x164A JUMP JUMPDEST DUP5 MLOAD PUSH3 0x461BCD PUSH1 0xE5 SHL DUP2 MSTORE DUP1 DUP4 ADD DUP9 SWAP1 MSTORE PUSH1 0x45 PUSH1 0x24 DUP3 ADD MSTORE PUSH32 0x4F776E6572732063616E6E6F74206265207265766F6B65642E204F776E657220 PUSH1 0x44 DUP3 ADD MSTORE PUSH32 0x6D7573742075736520766F6C756E746172696C794C656176654F776E65727368 PUSH1 0x64 DUP3 ADD MSTORE PUSH5 0x34B8141497 PUSH1 0xD9 SHL PUSH1 0x84 DUP3 ADD MSTORE PUSH1 0xA4 SWAP1 REVERT JUMPDEST POP DUP3 CALLVALUE PUSH2 0x273 JUMPI PUSH1 0x20 SWAP1 DUP2 PUSH1 0x3 NOT CALLDATASIZE ADD SLT PUSH2 0x244 JUMPI DUP1 CALLDATALOAD DUP4 MSTORE PUSH1 0xA DUP3 MSTORE DUP4 DUP4 KECCAK256 SWAP2 DUP3 SLOAD SWAP2 PUSH1 0x1 PUSH1 0x1 PUSH1 0x40 SHL SUB DUP4 GT PUSH2 0x189A JUMPI POP SWAP3 SWAP1 DUP5 MLOAD SWAP1 PUSH2 0x1805 DUP6 DUP3 PUSH1 0x5 SHL ADD DUP4 PUSH2 0x21DB JUMP JUMPDEST DUP1 DUP3 MSTORE DUP5 DUP3 ADD DUP1 SWAP5 DUP5 MSTORE DUP6 DUP5 KECCAK256 DUP5 SWAP2 JUMPDEST DUP4 DUP4 LT PUSH2 0x1876 JUMPI POP POP POP POP DUP5 MLOAD SWAP4 DUP1 DUP6 ADD SWAP2 DUP2 DUP7 MSTORE MLOAD DUP1 SWAP3 MSTORE DUP6 DUP6 ADD SWAP6 DUP3 PUSH1 0x5 SHL DUP7 ADD ADD SWAP4 SWAP3 SWAP6 JUMPDEST DUP3 DUP8 LT PUSH2 0x184A JUMPI DUP6 DUP6 SUB DUP7 RETURN JUMPDEST SWAP1 SWAP2 SWAP3 SWAP4 DUP3 DUP1 PUSH2 0x1866 PUSH1 0x1 SWAP4 PUSH1 0x3F NOT DUP11 DUP3 SUB ADD DUP7 MSTORE DUP9 MLOAD PUSH2 0x23D1 JUMP JUMPDEST SWAP7 ADD SWAP3 ADD SWAP7 ADD SWAP6 SWAP3 SWAP2 SWAP1 SWAP3 PUSH2 0x183D JUMP JUMPDEST PUSH1 0x1 DUP9 DUP2 SWAP3 PUSH2 0x1888 DUP6 SWAP12 SWAP9 SWAP10 SWAP12 PUSH2 0x2309 JUMP JUMPDEST DUP2 MSTORE ADD SWAP3 ADD SWAP3 ADD SWAP2 SWAP1 SWAP7 SWAP5 SWAP4 SWAP7 PUSH2 0x1815 JUMP JUMPDEST PUSH4 0x4E487B71 PUSH1 0xE0 SHL DUP6 MSTORE PUSH1 0x41 SWAP1 MSTORE PUSH1 0x24 DUP5 REVERT JUMPDEST POP SWAP2 SWAP1 CALLVALUE PUSH2 0x244 JUMPI PUSH1 0x20 SWAP2 DUP3 PUSH1 0x3 NOT CALLDATASIZE ADD SLT PUSH2 0x323 JUMPI DUP1 CALLDATALOAD SWAP1 PUSH1 0x1 PUSH1 0x1 PUSH1 0x40 SHL SUB DUP3 GT PUSH2 0x4F4 JUMPI PUSH2 0x18E5 DUP5 SWAP2 PUSH2 0x18F7 SWAP4 CALLDATASIZE SWAP2 ADD PUSH2 0x21FC JUMP JUMPDEST DUP2 DUP5 MLOAD SWAP4 DUP3 DUP6 DUP1 SWAP5 MLOAD SWAP4 DUP5 SWAP3 ADD PUSH2 0x23AE JUMP JUMPDEST DUP2 ADD PUSH1 0x9 DUP2 MSTORE SUB ADD SWAP1 KECCAK256 SWAP3 DUP2 MLOAD DUP1 SWAP4 DUP1 DUP7 SLOAD SWAP3 DUP4 DUP2 MSTORE ADD SWAP6 DUP4 MSTORE DUP1 DUP4 KECCAK256 SWAP3 SWAP1 JUMPDEST DUP3 DUP3 LT PUSH2 0x192F JUMPI PUSH2 0x22E DUP7 DUP7 PUSH2 0x5DB DUP3 DUP12 SUB DUP4 PUSH2 0x21DB JUMP JUMPDEST DUP4 SLOAD DUP8 MSTORE SWAP6 DUP7 ADD SWAP6 PUSH1 0x1 SWAP4 DUP5 ADD SWAP4 SWAP1 SWAP2 ADD SWAP1 PUSH2 0x1917 JUMP JUMPDEST POP SWAP2 CALLVALUE PUSH2 0x244 JUMPI DUP2 PUSH1 0x3 NOT CALLDATASIZE ADD SLT PUSH2 0x244 JUMPI PUSH2 0x1960 PUSH2 0x218F JUMP JUMPDEST SWAP2 PUSH1 0x24 SWAP1 DUP2 CALLDATALOAD SWAP4 PUSH1 0x1 DUP1 PUSH1 0xA0 SHL SUB DUP1 SWAP2 PUSH2 0x197E DUP3 DUP10 SLOAD AND CALLER EQ PUSH2 0x2508 JUMP JUMPDEST AND SWAP4 PUSH2 0x198B DUP6 ISZERO ISZERO PUSH2 0x2618 JUMP JUMPDEST DUP6 ISZERO PUSH2 0x1B7C JUMPI DUP5 DUP8 MSTORE PUSH1 0x1 SWAP4 PUSH1 0x20 SWAP5 DUP1 DUP7 MSTORE DUP5 DUP10 KECCAK256 SLOAD PUSH2 0x1B3A JUMPI PUSH2 0x19E0 DUP6 MLOAD PUSH2 0x19B3 DUP2 PUSH2 0x21AA JUMP JUMPDEST DUP10 DUP2 MSTORE DUP3 DUP9 DUP3 ADD DUP2 DUP2 MSTORE DUP11 DUP14 MSTORE DUP2 DUP11 MSTORE DUP9 DUP14 KECCAK256 SWAP3 MLOAD DUP4 SSTORE MLOAD ISZERO ISZERO SWAP2 ADD SWAP1 PUSH1 0xFF DUP1 NOT DUP4 SLOAD AND SWAP2 ISZERO ISZERO AND OR SWAP1 SSTORE JUMP JUMPDEST DUP8 DUP10 MSTORE PUSH1 0x3 DUP7 MSTORE DUP5 DUP10 KECCAK256 SWAP4 DUP5 SLOAD PUSH1 0x1 PUSH1 0x40 SHL SWAP6 DUP7 DUP3 LT ISZERO PUSH2 0x1B28 JUMPI SWAP1 PUSH2 0x1A0A SWAP2 DUP5 DUP3 ADD DUP2 SSTORE PUSH2 0x24A9 JUMP JUMPDEST DUP2 SWAP3 SWAP2 SLOAD SWAP1 PUSH1 0x3 SHL SWAP2 DUP11 DUP4 SHL SWAP3 SHL NOT AND OR SWAP1 SSTORE DUP8 DUP10 MSTORE PUSH1 0x2 DUP7 MSTORE PUSH1 0xFF DUP6 DUP11 KECCAK256 SLOAD AND DUP4 DUP2 LT ISZERO PUSH2 0x1B16 JUMPI PUSH2 0x1AE7 JUMPI DUP8 DUP10 MSTORE PUSH1 0x2 DUP7 MSTORE DUP5 DUP10 KECCAK256 PUSH1 0x2 PUSH1 0xFF NOT DUP3 SLOAD AND OR SWAP1 SSTORE DUP3 SLOAD SWAP4 DUP5 LT ISZERO PUSH2 0x1AD5 JUMPI DUP4 ADD DUP1 DUP4 SSTORE DUP4 LT ISZERO PUSH2 0x1AC4 JUMPI POP PUSH32 0x39D132591EE0696DE49AB564E4A90E430C006561917DB731A2A614DD2D245591 SWAP4 SWAP3 SWAP2 DUP7 SWAP2 DUP9 MSTORE PUSH32 0x8A35ACFBC15FF81A39AE7D344FD709F28E8600B4AA8C65C6B64BFE7FE36BD19B ADD SSTORE PUSH2 0x1AB9 PUSH1 0x5 SLOAD PUSH2 0x26DC JUMP JUMPDEST PUSH1 0x5 SSTORE MLOAD TIMESTAMP DUP2 MSTORE LOG3 DUP1 RETURN JUMPDEST PUSH4 0x4E487B71 PUSH1 0xE0 SHL DUP9 MSTORE PUSH1 0x32 DUP3 MSTORE DUP8 REVERT JUMPDEST POP PUSH4 0x4E487B71 PUSH1 0xE0 SHL DUP9 MSTORE PUSH1 0x41 DUP3 MSTORE DUP8 REVERT JUMPDEST POP POP POP POP SWAP1 PUSH32 0x1CC138F50384BE7770A8E4A34EECAA0D0C718BFAA1641AF49DB32532E4A5B910 SWAP2 MLOAD TIMESTAMP DUP2 MSTORE LOG3 DUP1 RETURN JUMPDEST PUSH4 0x4E487B71 PUSH1 0xE0 SHL DUP11 MSTORE PUSH1 0x21 DUP5 MSTORE DUP3 DUP11 REVERT JUMPDEST PUSH4 0x4E487B71 PUSH1 0xE0 SHL DUP13 MSTORE PUSH1 0x41 DUP7 MSTORE DUP5 DUP13 REVERT JUMPDEST DUP5 MLOAD PUSH3 0x461BCD PUSH1 0xE5 SHL DUP2 MSTORE DUP1 DUP5 ADD DUP8 SWAP1 MSTORE PUSH1 0x19 DUP2 DUP5 ADD MSTORE PUSH32 0x57616C6C657420616C7265616479207265676973746572656400000000000000 PUSH1 0x44 DUP3 ADD MSTORE PUSH1 0x64 SWAP1 REVERT JUMPDEST PUSH1 0x64 SWAP1 PUSH1 0x14 DUP6 PUSH1 0x20 DUP7 MLOAD SWAP4 PUSH3 0x461BCD PUSH1 0xE5 SHL DUP6 MSTORE DUP5 ADD MSTORE DUP3 ADD MSTORE PUSH20 0x92DCECC2D8D2C840EAE6CAE440928840D0C2E6D PUSH1 0x63 SHL PUSH1 0x44 DUP3 ADD MSTORE REVERT JUMPDEST POP SWAP1 CALLVALUE PUSH2 0x273 JUMPI PUSH1 0x20 CALLDATASIZE PUSH1 0x3 NOT ADD SLT PUSH2 0x273 JUMPI PUSH1 0x20 SWAP1 PUSH2 0xC51 PUSH2 0x1BD6 PUSH2 0x218F JUMP JUMPDEST PUSH2 0x2A36 JUMP JUMPDEST POP CALLVALUE PUSH2 0x248 JUMPI PUSH1 0x20 SWAP1 DUP2 PUSH1 0x3 NOT CALLDATASIZE ADD SLT PUSH2 0x248 JUMPI DUP4 CALLDATALOAD SWAP1 PUSH1 0x1 PUSH1 0x1 PUSH1 0x40 SHL SUB DUP3 GT PUSH2 0x248 JUMPI POP PUSH1 0x60 SWAP4 PUSH2 0x1C10 SWAP2 CALLDATASIZE SWAP2 ADD PUSH2 0x21FC JUMP JUMPDEST SWAP2 DUP1 MLOAD SWAP3 PUSH2 0x1C65 DUP4 DUP3 MLOAD SWAP6 DUP2 DUP2 DUP2 DUP7 ADD SWAP9 PUSH2 0x1C2C DUP2 DUP4 DUP13 PUSH2 0x23AE JUMP JUMPDEST DUP2 ADD PUSH1 0x7 DUP2 MSTORE SUB ADD SWAP1 KECCAK256 SLOAD SWAP6 DUP5 MLOAD DUP3 DUP2 DUP7 MLOAD PUSH2 0x1C49 DUP2 DUP4 DUP8 PUSH2 0x23AE JUMP JUMPDEST DUP2 ADD PUSH1 0x8 DUP2 MSTORE SUB ADD SWAP1 KECCAK256 SLOAD SWAP4 DUP6 MLOAD SWAP4 DUP5 SWAP3 DUP4 SWAP3 MLOAD SWAP3 DUP4 SWAP2 PUSH2 0x23AE JUMP JUMPDEST DUP2 ADD PUSH1 0x9 DUP2 MSTORE SUB ADD SWAP1 KECCAK256 SLOAD SWAP3 DUP3 MLOAD SWAP5 DUP6 MSTORE DUP5 ADD MSTORE DUP3 ADD MSTORE RETURN JUMPDEST POP SWAP2 SWAP1 CALLVALUE PUSH2 0x244 JUMPI PUSH1 0x20 SWAP2 DUP3 PUSH1 0x3 NOT CALLDATASIZE ADD SLT PUSH2 0x323 JUMPI DUP1 CALLDATALOAD SWAP1 PUSH1 0x1 PUSH1 0x1 PUSH1 0x40 SHL SUB DUP3 GT PUSH2 0x4F4 JUMPI PUSH2 0x18E5 DUP5 SWAP2 PUSH2 0x1CB6 SWAP4 CALLDATASIZE SWAP2 ADD PUSH2 0x21FC JUMP JUMPDEST DUP2 ADD PUSH1 0x8 DUP2 MSTORE SUB ADD SWAP1 KECCAK256 SWAP3 DUP2 MLOAD DUP1 SWAP4 DUP1 DUP7 SLOAD SWAP3 DUP4 DUP2 MSTORE ADD SWAP6 DUP4 MSTORE DUP1 DUP4 KECCAK256 SWAP3 SWAP1 JUMPDEST DUP3 DUP3 LT PUSH2 0x1CEE JUMPI PUSH2 0x22E DUP7 DUP7 PUSH2 0x5DB DUP3 DUP12 SUB DUP4 PUSH2 0x21DB JUMP JUMPDEST DUP4 SLOAD DUP8 MSTORE SWAP6 DUP7 ADD SWAP6 PUSH1 0x1 SWAP4 DUP5 ADD SWAP4 SWAP1 SWAP2 ADD SWAP1 PUSH2 0x1CD6 JUMP JUMPDEST POP DUP3 CALLVALUE PUSH2 0x273 JUMPI PUSH2 0x1D15 CALLDATASIZE PUSH2 0x2416 JUMP JUMPDEST SWAP1 SWAP3 SWAP2 SWAP5 PUSH1 0x1 DUP1 PUSH1 0xA0 SHL SUB PUSH2 0x1D2E DUP2 DUP8 SLOAD AND CALLER EQ PUSH2 0x2508 JUMP JUMPDEST PUSH2 0x1D3A DUP8 MLOAD ISZERO ISZERO PUSH2 0x25CC JUMP JUMPDEST DUP5 AND PUSH2 0x1D47 DUP2 ISZERO ISZERO PUSH2 0x2618 JUMP JUMPDEST PUSH2 0x1D53 PUSH2 0x64D DUP5 PUSH2 0x29DE JUMP JUMPDEST DUP6 MSTORE PUSH1 0x20 SWAP3 PUSH1 0x1 DUP5 MSTORE PUSH2 0x1D6F DUP3 DUP8 KECCAK256 SLOAD SWAP6 PUSH2 0x1BD6 DUP8 ISZERO ISZERO PUSH2 0x2541 JUMP JUMPDEST ISZERO PUSH2 0x1F7A JUMPI DUP2 MLOAD DUP5 DUP9 MLOAD SWAP2 DUP2 DUP2 DUP2 DUP13 ADD SWAP5 PUSH2 0x1D8B DUP2 DUP4 DUP9 PUSH2 0x23AE JUMP JUMPDEST DUP2 ADD PUSH1 0x7 DUP2 MSTORE SUB ADD SWAP1 KECCAK256 SLOAD ISZERO SWAP2 DUP3 PUSH2 0x1F52 JUMPI JUMPDEST POP POP ISZERO PUSH2 0x1F11 JUMPI PUSH2 0x1DAF DUP6 DUP9 PUSH2 0x2D45 JUMP JUMPDEST DUP1 DUP8 MSTORE PUSH1 0x6 DUP6 MSTORE DUP7 DUP6 PUSH2 0x1E14 DUP7 PUSH1 0x1 DUP8 DUP6 KECCAK256 SWAP6 PUSH2 0x1DFE DUP10 PUSH2 0x1DCF DUP10 PUSH2 0x2309 JUMP JUMPDEST SWAP8 PUSH1 0x6 PUSH1 0xFF DUP7 DUP12 MLOAD ISZERO SWAP13 ADD SLOAD AND SWAP9 DUP4 MLOAD SWAP8 PUSH2 0x1DE9 DUP10 PUSH2 0x21AA JUMP JUMPDEST DUP9 MSTORE DUP1 DUP9 ADD SWAP6 DUP8 DUP8 MSTORE DUP4 MSTORE MSTORE KECCAK256 SWAP4 MLOAD DUP5 PUSH2 0x2AB7 JUMP JUMPDEST MLOAD ISZERO ISZERO SWAP2 ADD SWAP1 PUSH1 0xFF DUP1 NOT DUP4 SLOAD AND SWAP2 ISZERO ISZERO AND OR SWAP1 SSTORE JUMP JUMPDEST PUSH2 0x1ED2 JUMPI POP PUSH2 0x1E24 DUP5 DUP8 DUP11 PUSH2 0x2F01 JUMP JUMPDEST PUSH2 0x1E45 JUMPI JUMPDEST POP SWAP1 PUSH1 0x0 DUP1 MLOAD PUSH1 0x20 PUSH2 0x3065 DUP4 CODECOPY DUP2 MLOAD SWAP2 MSTORE SWAP2 PUSH2 0x155A DUP7 SWAP8 PUSH2 0x283B JUMP JUMPDEST SWAP6 DUP5 DUP7 MSTORE PUSH1 0xA DUP5 MSTORE DUP2 DUP7 KECCAK256 DUP1 SLOAD SWAP1 PUSH1 0x1 PUSH1 0x40 SHL DUP3 LT ISZERO PUSH2 0x1EBF JUMPI SWAP1 PUSH2 0x1E6F SWAP2 PUSH1 0x1 DUP3 ADD DUP2 SSTORE PUSH2 0x24A9 JUMP JUMPDEST PUSH2 0x1EAD JUMPI DUP7 SWAP8 POP DUP2 PUSH2 0x1E95 PUSH1 0x0 DUP1 MLOAD PUSH1 0x20 PUSH2 0x3065 DUP4 CODECOPY DUP2 MLOAD SWAP2 MSTORE SWAP6 SWAP5 SWAP4 PUSH2 0x155A SWAP4 PUSH2 0x2AB7 JUMP JUMPDEST PUSH2 0x1EA0 PUSH1 0xB SLOAD PUSH2 0x26DC JUMP JUMPDEST PUSH1 0xB SSTORE SWAP8 POP POP SWAP1 SWAP2 PUSH2 0x1E29 JUMP JUMPDEST PUSH4 0x4E487B71 PUSH1 0xE0 SHL DUP8 MSTORE DUP7 DUP9 MSTORE PUSH1 0x24 DUP8 REVERT JUMPDEST PUSH4 0x4E487B71 PUSH1 0xE0 SHL DUP9 MSTORE PUSH1 0x41 DUP10 MSTORE PUSH1 0x24 DUP9 REVERT JUMPDEST SWAP7 SWAP8 SWAP4 SWAP6 SWAP5 SWAP3 POP POP POP DUP5 MLOAD DUP2 DUP7 ADD KECCAK256 SWAP1 DUP5 MLOAD SWAP1 DUP6 ADD KECCAK256 SUB PUSH2 0x1EF5 JUMPI JUMPDEST POP POP POP POP DUP1 RETURN JUMPDEST PUSH2 0x1F03 PUSH2 0x1F08 SWAP5 DUP4 DUP4 PUSH2 0x2DE0 JUMP JUMPDEST PUSH2 0x2F01 JUMP JUMPDEST DUP2 DUP1 DUP1 DUP1 PUSH2 0x1EEE JUMP JUMPDEST DUP4 PUSH1 0x64 SWAP3 MLOAD SWAP2 PUSH3 0x461BCD PUSH1 0xE5 SHL DUP4 MSTORE DUP3 ADD MSTORE PUSH1 0x1A PUSH1 0x24 DUP3 ADD MSTORE PUSH32 0x5265636F726420616C726561647920696E697469616C697A6564000000000000 PUSH1 0x44 DUP3 ADD MSTORE REVERT JUMPDEST PUSH2 0x1F67 SWAP3 POP DUP5 MLOAD DUP1 SWAP4 DUP2 SWAP3 DUP13 MLOAD SWAP3 DUP4 SWAP2 PUSH2 0x23AE JUMP JUMPDEST DUP2 ADD PUSH1 0x8 DUP2 MSTORE SUB ADD SWAP1 KECCAK256 SLOAD ISZERO DUP5 DUP10 PUSH2 0x1D9E JUMP JUMPDEST DUP4 PUSH1 0x64 SWAP3 MLOAD SWAP2 PUSH3 0x461BCD PUSH1 0xE5 SHL DUP4 MSTORE DUP3 ADD MSTORE PUSH1 0x18 PUSH1 0x24 DUP3 ADD MSTORE PUSH32 0x4D75737420626520616E20616374697665206D656D6265720000000000000000 PUSH1 0x44 DUP3 ADD MSTORE REVERT JUMPDEST POP SWAP2 CALLVALUE PUSH2 0x244 JUMPI PUSH1 0x20 CALLDATASIZE PUSH1 0x3 NOT ADD SLT PUSH2 0x244 JUMPI SWAP2 DUP2 SWAP3 CALLDATALOAD DUP2 MSTORE PUSH1 0x6 PUSH1 0x20 MSTORE KECCAK256 PUSH2 0x22E PUSH1 0xFF PUSH1 0x1 PUSH2 0x1FEA DUP5 PUSH2 0x2309 JUMP JUMPDEST SWAP4 ADD SLOAD AND SWAP3 MLOAD SWAP3 DUP4 SWAP3 DUP4 PUSH2 0x23F6 JUMP JUMPDEST POP SWAP2 SWAP1 CALLVALUE PUSH2 0x244 JUMPI PUSH1 0x20 SWAP2 DUP3 PUSH1 0x3 NOT CALLDATASIZE ADD SLT PUSH2 0x323 JUMPI DUP1 CALLDATALOAD SWAP1 PUSH1 0x1 PUSH1 0x1 PUSH1 0x40 SHL SUB DUP3 GT PUSH2 0x4F4 JUMPI PUSH2 0x18E5 DUP5 SWAP2 PUSH2 0x2031 SWAP4 CALLDATASIZE SWAP2 ADD PUSH2 0x21FC JUMP JUMPDEST DUP2 ADD PUSH1 0x7 DUP2 MSTORE SUB ADD SWAP1 KECCAK256 SWAP3 DUP2 MLOAD DUP1 SWAP4 DUP1 DUP7 SLOAD SWAP3 DUP4 DUP2 MSTORE ADD SWAP6 DUP4 MSTORE DUP1 DUP4 KECCAK256 SWAP3 SWAP1 JUMPDEST DUP3 DUP3 LT PUSH2 0x2069 JUMPI PUSH2 0x22E DUP7 DUP7 PUSH2 0x5DB DUP3 DUP12 SUB DUP4 PUSH2 0x21DB JUMP JUMPDEST DUP4 SLOAD DUP8 MSTORE SWAP6 DUP7 ADD SWAP6 PUSH1 0x1 SWAP4 DUP5 ADD SWAP4 SWAP1 SWAP2 ADD SWAP1 PUSH2 0x2051 JUMP JUMPDEST POP SWAP1 CALLVALUE PUSH2 0x273 JUMPI PUSH1 0x20 SWAP1 PUSH2 0xC51 PUSH2 0x2096 CALLDATASIZE PUSH2 0x2252 JUMP JUMPDEST SWAP1 PUSH2 0x2585 JUMP JUMPDEST POP SWAP2 CALLVALUE PUSH2 0x244 JUMPI PUSH1 0x20 CALLDATASIZE PUSH1 0x3 NOT ADD SLT PUSH2 0x244 JUMPI PUSH2 0x20B7 PUSH2 0x218F JUMP JUMPDEST DUP4 SLOAD PUSH1 0x1 PUSH1 0x1 PUSH1 0xA0 SHL SUB SWAP2 SWAP1 PUSH2 0x20D0 SWAP1 DUP4 AND CALLER EQ PUSH2 0x2508 JUMP JUMPDEST AND SWAP1 DUP2 DUP5 MSTORE PUSH1 0x1 PUSH1 0x20 MSTORE PUSH2 0x20E8 DUP4 DUP6 KECCAK256 SLOAD ISZERO ISZERO PUSH2 0x2541 JUMP JUMPDEST DUP2 DUP5 MSTORE PUSH1 0x1 PUSH1 0x20 MSTORE PUSH1 0xFF PUSH1 0x1 DUP5 DUP7 KECCAK256 ADD SLOAD AND ISZERO PUSH2 0x2118 JUMPI POP DUP3 MSTORE PUSH1 0x1 PUSH1 0x20 DUP2 SWAP1 MSTORE SWAP1 DUP3 KECCAK256 ADD DUP1 SLOAD PUSH1 0xFF NOT AND SWAP1 SSTORE DUP1 RETURN JUMPDEST PUSH1 0x64 SWAP1 PUSH1 0x20 DUP5 MLOAD SWAP2 PUSH3 0x461BCD PUSH1 0xE5 SHL DUP4 MSTORE DUP3 ADD MSTORE PUSH1 0x17 PUSH1 0x24 DUP3 ADD MSTORE PUSH32 0x57616C6C657420616C726561647920696E616374697665000000000000000000 PUSH1 0x44 DUP3 ADD MSTORE REVERT JUMPDEST SWAP1 POP DUP3 CALLVALUE PUSH2 0x244 JUMPI PUSH1 0x20 CALLDATASIZE PUSH1 0x3 NOT ADD SLT PUSH2 0x244 JUMPI PUSH1 0x20 SWAP3 PUSH1 0x1 PUSH1 0x1 PUSH1 0xA0 SHL SUB PUSH2 0x2182 PUSH2 0x218F JUMP JUMPDEST AND DUP2 MSTORE PUSH1 0x1 DUP5 MSTORE KECCAK256 SLOAD DUP2 MSTORE RETURN JUMPDEST PUSH1 0x4 CALLDATALOAD SWAP1 PUSH1 0x1 PUSH1 0x1 PUSH1 0xA0 SHL SUB DUP3 AND DUP3 SUB PUSH2 0x21A5 JUMPI JUMP JUMPDEST PUSH1 0x0 DUP1 REVERT JUMPDEST PUSH1 0x40 DUP2 ADD SWAP1 DUP2 LT PUSH1 0x1 PUSH1 0x1 PUSH1 0x40 SHL SUB DUP3 GT OR PUSH2 0x21C5 JUMPI PUSH1 0x40 MSTORE JUMP JUMPDEST PUSH4 0x4E487B71 PUSH1 0xE0 SHL PUSH1 0x0 MSTORE PUSH1 0x41 PUSH1 0x4 MSTORE PUSH1 0x24 PUSH1 0x0 REVERT JUMPDEST SWAP1 PUSH1 0x1F DUP1 NOT SWAP2 ADD AND DUP2 ADD SWAP1 DUP2 LT PUSH1 0x1 PUSH1 0x1 PUSH1 0x40 SHL SUB DUP3 GT OR PUSH2 0x21C5 JUMPI PUSH1 0x40 MSTORE JUMP JUMPDEST DUP2 PUSH1 0x1F DUP3 ADD SLT ISZERO PUSH2 0x21A5 JUMPI DUP1 CALLDATALOAD SWAP1 PUSH1 0x1 PUSH1 0x1 PUSH1 0x40 SHL SUB DUP3 GT PUSH2 0x21C5 JUMPI PUSH1 0x40 MLOAD SWAP3 PUSH2 0x2230 PUSH1 0x1F DUP5 ADD PUSH1 0x1F NOT AND PUSH1 0x20 ADD DUP6 PUSH2 0x21DB JUMP JUMPDEST DUP3 DUP5 MSTORE PUSH1 0x20 DUP4 DUP4 ADD ADD GT PUSH2 0x21A5 JUMPI DUP2 PUSH1 0x0 SWAP3 PUSH1 0x20 DUP1 SWAP4 ADD DUP4 DUP7 ADD CALLDATACOPY DUP4 ADD ADD MSTORE SWAP1 JUMP JUMPDEST PUSH1 0x40 PUSH1 0x3 NOT DUP3 ADD SLT PUSH2 0x21A5 JUMPI PUSH1 0x4 CALLDATALOAD SWAP1 PUSH1 0x1 PUSH1 0x1 PUSH1 0x40 SHL SUB DUP3 GT PUSH2 0x21A5 JUMPI PUSH2 0x227C SWAP2 PUSH1 0x4 ADD PUSH2 0x21FC JUMP JUMPDEST SWAP1 PUSH1 0x24 CALLDATALOAD PUSH1 0x1 PUSH1 0x1 PUSH1 0xA0 SHL SUB DUP2 AND DUP2 SUB PUSH2 0x21A5 JUMPI SWAP1 JUMP JUMPDEST PUSH1 0x20 SWAP1 PUSH1 0x20 PUSH1 0x40 DUP2 DUP4 ADD SWAP3 DUP3 DUP2 MSTORE DUP6 MLOAD DUP1 SWAP5 MSTORE ADD SWAP4 ADD SWAP2 PUSH1 0x0 JUMPDEST DUP3 DUP2 LT PUSH2 0x22BB JUMPI POP POP POP POP SWAP1 JUMP JUMPDEST DUP4 MLOAD DUP6 MSTORE SWAP4 DUP2 ADD SWAP4 SWAP3 DUP2 ADD SWAP3 PUSH1 0x1 ADD PUSH2 0x22AD JUMP JUMPDEST SWAP1 PUSH1 0x1 DUP3 DUP2 SHR SWAP3 AND DUP1 ISZERO PUSH2 0x22FF JUMPI JUMPDEST PUSH1 0x20 DUP4 LT EQ PUSH2 0x22E9 JUMPI JUMP JUMPDEST PUSH4 0x4E487B71 PUSH1 0xE0 SHL PUSH1 0x0 MSTORE PUSH1 0x22 PUSH1 0x4 MSTORE PUSH1 0x24 PUSH1 0x0 REVERT JUMPDEST SWAP2 PUSH1 0x7F AND SWAP2 PUSH2 0x22DE JUMP JUMPDEST SWAP1 PUSH1 0x40 MLOAD SWAP2 DUP3 PUSH1 0x0 DUP3 SLOAD PUSH2 0x231C DUP2 PUSH2 0x22CF JUMP JUMPDEST SWAP1 DUP2 DUP5 MSTORE PUSH1 0x20 SWAP5 PUSH1 0x1 SWAP2 PUSH1 0x1 DUP2 AND SWAP1 DUP2 PUSH1 0x0 EQ PUSH2 0x238C JUMPI POP PUSH1 0x1 EQ PUSH2 0x234D JUMPI JUMPDEST POP POP POP PUSH2 0x234B SWAP3 POP SUB DUP4 PUSH2 0x21DB JUMP JUMPDEST JUMP JUMPDEST PUSH1 0x0 SWAP1 DUP2 MSTORE DUP6 DUP2 KECCAK256 SWAP6 SWAP4 POP SWAP2 SWAP1 JUMPDEST DUP2 DUP4 LT PUSH2 0x2374 JUMPI POP POP PUSH2 0x234B SWAP4 POP DUP3 ADD ADD CODESIZE DUP1 DUP1 PUSH2 0x233C JUMP JUMPDEST DUP6 SLOAD DUP9 DUP5 ADD DUP6 ADD MSTORE SWAP5 DUP6 ADD SWAP5 DUP8 SWAP5 POP SWAP2 DUP4 ADD SWAP2 PUSH2 0x235B JUMP JUMPDEST SWAP3 POP POP POP PUSH2 0x234B SWAP5 SWAP3 POP PUSH1 0xFF NOT AND DUP3 DUP5 ADD MSTORE ISZERO ISZERO PUSH1 0x5 SHL DUP3 ADD ADD CODESIZE DUP1 DUP1 PUSH2 0x233C JUMP JUMPDEST PUSH1 0x0 JUMPDEST DUP4 DUP2 LT PUSH2 0x23C1 JUMPI POP POP PUSH1 0x0 SWAP2 ADD MSTORE JUMP JUMPDEST DUP2 DUP2 ADD MLOAD DUP4 DUP3 ADD MSTORE PUSH1 0x20 ADD PUSH2 0x23B1 JUMP JUMPDEST SWAP1 PUSH1 0x20 SWAP2 PUSH2 0x23EA DUP2 MLOAD DUP1 SWAP3 DUP2 DUP6 MSTORE DUP6 DUP1 DUP7 ADD SWAP2 ADD PUSH2 0x23AE JUMP JUMPDEST PUSH1 0x1F ADD PUSH1 0x1F NOT AND ADD ADD SWAP1 JUMP JUMPDEST SWAP1 PUSH2 0x240E PUSH1 0x20 SWAP2 SWAP5 SWAP4 SWAP5 PUSH1 0x40 DUP5 MSTORE PUSH1 0x40 DUP5 ADD SWAP1 PUSH2 0x23D1 JUMP JUMPDEST SWAP4 ISZERO ISZERO SWAP2 ADD MSTORE JUMP JUMPDEST PUSH1 0x60 PUSH1 0x3 NOT DUP3 ADD SLT PUSH2 0x21A5 JUMPI PUSH1 0x1 PUSH1 0x1 PUSH1 0x40 SHL SUB SWAP2 PUSH1 0x4 CALLDATALOAD DUP4 DUP2 GT PUSH2 0x21A5 JUMPI DUP3 PUSH2 0x2442 SWAP2 PUSH1 0x4 ADD PUSH2 0x21FC JUMP JUMPDEST SWAP3 PUSH1 0x24 CALLDATALOAD PUSH1 0x1 PUSH1 0x1 PUSH1 0xA0 SHL SUB DUP2 AND DUP2 SUB PUSH2 0x21A5 JUMPI SWAP3 PUSH1 0x44 CALLDATALOAD SWAP2 DUP3 GT PUSH2 0x21A5 JUMPI PUSH2 0x246D SWAP2 PUSH1 0x4 ADD PUSH2 0x21FC JUMP JUMPDEST SWAP1 JUMP JUMPDEST SWAP1 PUSH1 0x4 DUP3 LT ISZERO PUSH2 0x247D JUMPI MSTORE JUMP JUMPDEST PUSH4 0x4E487B71 PUSH1 0xE0 SHL PUSH1 0x0 MSTORE PUSH1 0x21 PUSH1 0x4 MSTORE PUSH1 0x24 PUSH1 0x0 REVERT JUMPDEST PUSH1 0x40 SWAP1 PUSH1 0x3 NOT ADD SLT PUSH2 0x21A5 JUMPI PUSH1 0x4 CALLDATALOAD SWAP1 PUSH1 0x24 CALLDATALOAD SWAP1 JUMP JUMPDEST DUP1 SLOAD DUP3 LT ISZERO PUSH2 0x24C1 JUMPI PUSH1 0x0 MSTORE PUSH1 0x20 PUSH1 0x0 KECCAK256 ADD SWAP1 PUSH1 0x0 SWAP1 JUMP JUMPDEST PUSH4 0x4E487B71 PUSH1 0xE0 SHL PUSH1 0x0 MSTORE PUSH1 0x32 PUSH1 0x4 MSTORE PUSH1 0x24 PUSH1 0x0 REVERT JUMPDEST PUSH1 0x40 PUSH1 0x3 NOT DUP3 ADD SLT PUSH2 0x21A5 JUMPI PUSH1 0x4 CALLDATALOAD SWAP1 PUSH1 0x1 PUSH1 0x1 PUSH1 0x40 SHL SUB DUP3 GT PUSH2 0x21A5 JUMPI PUSH2 0x2501 SWAP2 PUSH1 0x4 ADD PUSH2 0x21FC JUMP JUMPDEST SWAP1 PUSH1 0x24 CALLDATALOAD SWAP1 JUMP JUMPDEST ISZERO PUSH2 0x250F JUMPI JUMP JUMPDEST PUSH1 0x40 MLOAD PUSH3 0x461BCD PUSH1 0xE5 SHL DUP2 MSTORE PUSH1 0x20 PUSH1 0x4 DUP3 ADD MSTORE PUSH1 0xA PUSH1 0x24 DUP3 ADD MSTORE PUSH10 0x27B7363C9030B236B4B7 PUSH1 0xB1 SHL PUSH1 0x44 DUP3 ADD MSTORE PUSH1 0x64 SWAP1 REVERT JUMPDEST ISZERO PUSH2 0x2548 JUMPI JUMP JUMPDEST PUSH1 0x40 MLOAD PUSH3 0x461BCD PUSH1 0xE5 SHL DUP2 MSTORE PUSH1 0x20 PUSH1 0x4 DUP3 ADD MSTORE PUSH1 0x15 PUSH1 0x24 DUP3 ADD MSTORE PUSH21 0x15D85B1B195D081B9BDD081C9959DA5CDD195C9959 PUSH1 0x5A SHL PUSH1 0x44 DUP3 ADD MSTORE PUSH1 0x64 SWAP1 REVERT JUMPDEST PUSH1 0x1 PUSH1 0x1 PUSH1 0xA0 SHL SUB SWAP1 SWAP2 AND PUSH1 0x0 SWAP1 DUP2 MSTORE PUSH1 0x1 PUSH1 0x20 MSTORE PUSH1 0x40 SWAP1 KECCAK256 SLOAD DUP1 ISZERO PUSH2 0x25C5 JUMPI PUSH2 0x25AE SWAP2 PUSH2 0x2D45 JUMP JUMPDEST PUSH1 0x0 MSTORE PUSH1 0x6 PUSH1 0x20 MSTORE PUSH1 0xFF PUSH1 0x1 PUSH1 0x40 PUSH1 0x0 KECCAK256 ADD SLOAD AND SWAP1 JUMP JUMPDEST POP POP PUSH1 0x0 SWAP1 JUMP JUMPDEST ISZERO PUSH2 0x25D3 JUMPI JUMP JUMPDEST PUSH1 0x40 MLOAD PUSH3 0x461BCD PUSH1 0xE5 SHL DUP2 MSTORE PUSH1 0x20 PUSH1 0x4 DUP3 ADD MSTORE PUSH1 0x19 PUSH1 0x24 DUP3 ADD MSTORE PUSH32 0x5265636F72642049442063616E6E6F7420626520656D70747900000000000000 PUSH1 0x44 DUP3 ADD MSTORE PUSH1 0x64 SWAP1 REVERT JUMPDEST ISZERO PUSH2 0x261F JUMPI JUMP JUMPDEST PUSH1 0x40 MLOAD PUSH3 0x461BCD PUSH1 0xE5 SHL DUP2 MSTORE PUSH1 0x20 PUSH1 0x4 DUP3 ADD MSTORE PUSH1 0x16 PUSH1 0x24 DUP3 ADD MSTORE PUSH22 0x496E76616C69642077616C6C65742061646472657373 PUSH1 0x50 SHL PUSH1 0x44 DUP3 ADD MSTORE PUSH1 0x64 SWAP1 REVERT JUMPDEST ISZERO PUSH2 0x2664 JUMPI JUMP JUMPDEST PUSH1 0x40 MLOAD PUSH3 0x461BCD PUSH1 0xE5 SHL DUP2 MSTORE PUSH1 0x20 PUSH1 0x4 DUP3 ADD MSTORE PUSH1 0x13 PUSH1 0x24 DUP3 ADD MSTORE PUSH19 0x496E76616C696420726F6C6520737472696E67 PUSH1 0x68 SHL PUSH1 0x44 DUP3 ADD MSTORE PUSH1 0x64 SWAP1 REVERT JUMPDEST DUP1 SLOAD SWAP1 PUSH1 0x1 PUSH1 0x40 SHL DUP3 LT ISZERO PUSH2 0x21C5 JUMPI DUP2 PUSH2 0x26C1 SWAP2 PUSH1 0x1 PUSH2 0x26D8 SWAP5 ADD DUP2 SSTORE PUSH2 0x24A9 JUMP JUMPDEST DUP2 SWAP4 SWAP2 SLOAD SWAP1 PUSH1 0x3 SHL SWAP2 DUP3 SHL SWAP2 PUSH1 0x0 NOT SWAP1 SHL NOT AND OR SWAP1 JUMP JUMPDEST SWAP1 SSTORE JUMP JUMPDEST PUSH1 0x0 NOT DUP2 EQ PUSH2 0x26EB JUMPI PUSH1 0x1 ADD SWAP1 JUMP JUMPDEST PUSH4 0x4E487B71 PUSH1 0xE0 SHL PUSH1 0x0 MSTORE PUSH1 0x11 PUSH1 0x4 MSTORE PUSH1 0x24 PUSH1 0x0 REVERT JUMPDEST ISZERO PUSH2 0x2708 JUMPI JUMP JUMPDEST PUSH1 0x40 MLOAD PUSH3 0x461BCD PUSH1 0xE5 SHL DUP2 MSTORE PUSH1 0x20 PUSH1 0x4 DUP3 ADD MSTORE PUSH1 0x1D PUSH1 0x24 DUP3 ADD MSTORE PUSH32 0x57616C6C657420616464726573732063616E6E6F74206265207A65726F000000 PUSH1 0x44 DUP3 ADD MSTORE PUSH1 0x64 SWAP1 REVERT JUMPDEST ISZERO PUSH2 0x2754 JUMPI JUMP JUMPDEST PUSH1 0x40 MLOAD PUSH3 0x461BCD PUSH1 0xE5 SHL DUP2 MSTORE PUSH1 0x20 PUSH1 0x4 DUP3 ADD MSTORE PUSH1 0x1C PUSH1 0x24 DUP3 ADD MSTORE PUSH32 0x5461726765742077616C6C6574206E6F74207265676973746572656400000000 PUSH1 0x44 DUP3 ADD MSTORE PUSH1 0x64 SWAP1 REVERT JUMPDEST ISZERO PUSH2 0x27A0 JUMPI JUMP JUMPDEST PUSH1 0x40 MLOAD PUSH3 0x461BCD PUSH1 0xE5 SHL DUP2 MSTORE PUSH1 0x20 PUSH1 0x4 DUP3 ADD MSTORE PUSH1 0x23 PUSH1 0x24 DUP3 ADD MSTORE PUSH32 0x54617267657420646F6573206E6F74206861766520616E206163746976652072 PUSH1 0x44 DUP3 ADD MSTORE PUSH3 0x6F6C65 PUSH1 0xE8 SHL PUSH1 0x64 DUP3 ADD MSTORE PUSH1 0x84 SWAP1 REVERT JUMPDEST PUSH1 0x40 MLOAD SWAP1 PUSH2 0x27FE DUP3 PUSH2 0x21AA JUMP JUMPDEST PUSH1 0x5 DUP3 MSTORE PUSH5 0x37BBB732B9 PUSH1 0xD9 SHL PUSH1 0x20 DUP4 ADD MSTORE JUMP JUMPDEST PUSH1 0x40 MLOAD SWAP1 PUSH2 0x281F DUP3 PUSH2 0x21AA JUMP JUMPDEST PUSH1 0xD DUP3 MSTORE PUSH13 0x30B236B4B734B9BA3930BA37B9 PUSH1 0x99 SHL PUSH1 0x20 DUP4 ADD MSTORE JUMP JUMPDEST PUSH2 0x2853 SWAP1 PUSH1 0x20 PUSH1 0x40 MLOAD SWAP3 DUP3 DUP5 DUP1 SWAP5 MLOAD SWAP4 DUP5 SWAP3 ADD PUSH2 0x23AE JUMP JUMPDEST DUP2 ADD SUB SWAP1 KECCAK256 SWAP1 JUMP JUMPDEST PUSH1 0x1 PUSH1 0x1 PUSH1 0xA0 SHL SUB SWAP1 SWAP2 AND PUSH1 0x0 SWAP1 DUP2 MSTORE PUSH1 0x1 PUSH1 0x20 MSTORE PUSH1 0x40 SWAP1 KECCAK256 SLOAD SWAP1 DUP2 ISZERO PUSH2 0x25C5 JUMPI PUSH2 0x288E PUSH2 0x2887 PUSH2 0x27F1 JUMP JUMPDEST DUP4 DUP4 PUSH2 0x2D80 JUMP JUMPDEST SWAP2 DUP3 ISZERO PUSH2 0x289A JUMPI POP POP SWAP1 JUMP JUMPDEST PUSH2 0x246D SWAP3 POP PUSH2 0x28A7 PUSH2 0x2812 JUMP JUMPDEST SWAP2 PUSH2 0x2D80 JUMP JUMPDEST ISZERO PUSH2 0x28B4 JUMPI JUMP JUMPDEST PUSH1 0x40 MLOAD PUSH3 0x461BCD PUSH1 0xE5 SHL DUP2 MSTORE PUSH1 0x20 PUSH1 0x4 DUP3 ADD MSTORE PUSH1 0x14 PUSH1 0x24 DUP3 ADD MSTORE PUSH20 0x2737BA1030B71030B1BA34BB329036B2B6B132B9 PUSH1 0x61 SHL PUSH1 0x44 DUP3 ADD MSTORE PUSH1 0x64 SWAP1 REVERT JUMPDEST PUSH1 0x40 MLOAD SWAP1 PUSH2 0x28FD DUP3 PUSH2 0x21AA JUMP JUMPDEST PUSH1 0x6 DUP3 MSTORE PUSH6 0x3B34B2BBB2B9 PUSH1 0xD1 SHL PUSH1 0x20 DUP4 ADD MSTORE JUMP JUMPDEST SWAP2 SWAP1 PUSH1 0x1 DUP1 PUSH1 0xA0 SHL SUB AND PUSH1 0x0 MSTORE PUSH1 0x1 PUSH1 0x20 MSTORE PUSH1 0x40 PUSH1 0x0 KECCAK256 SLOAD DUP1 ISZERO PUSH2 0x2939 JUMPI PUSH2 0x246D SWAP3 PUSH2 0x2D80 JUMP JUMPDEST POP POP POP PUSH1 0x0 SWAP1 JUMP JUMPDEST PUSH1 0x1 PUSH1 0x1 PUSH1 0xA0 SHL SUB SWAP1 SWAP2 AND PUSH1 0x0 SWAP1 DUP2 MSTORE PUSH1 0x1 PUSH1 0x20 MSTORE PUSH1 0x40 DUP2 KECCAK256 SLOAD SWAP1 SWAP3 SWAP2 DUP2 ISZERO PUSH2 0x29A5 JUMPI SWAP3 PUSH2 0x2973 PUSH1 0x40 SWAP3 PUSH1 0x20 SWAP6 PUSH2 0x2D45 JUMP JUMPDEST DUP2 MSTORE PUSH1 0x6 DUP5 MSTORE KECCAK256 PUSH1 0x40 MLOAD PUSH2 0x2986 DUP2 PUSH2 0x21AA JUMP JUMPDEST PUSH1 0xFF PUSH1 0x1 PUSH2 0x2993 DUP5 PUSH2 0x2309 JUMP JUMPDEST SWAP4 DUP5 DUP5 MSTORE ADD SLOAD AND ISZERO ISZERO SWAP4 DUP5 SWAP2 ADD MSTORE SWAP2 SWAP1 JUMP JUMPDEST POP POP PUSH1 0x40 MLOAD PUSH1 0x20 DUP2 ADD DUP2 DUP2 LT PUSH1 0x1 PUSH1 0x1 PUSH1 0x40 SHL SUB DUP3 GT OR PUSH2 0x29CA JUMPI PUSH1 0x40 MSTORE DUP3 DUP2 MSTORE SWAP2 SWAP1 JUMP JUMPDEST PUSH4 0x4E487B71 PUSH1 0xE0 SHL DUP5 MSTORE PUSH1 0x41 PUSH1 0x4 MSTORE PUSH1 0x24 DUP5 REVERT JUMPDEST PUSH1 0x20 DUP2 MLOAD SWAP2 ADD KECCAK256 PUSH2 0x29ED PUSH2 0x27F1 JUMP JUMPDEST PUSH1 0x20 DUP2 MLOAD SWAP2 ADD KECCAK256 DUP2 EQ SWAP1 DUP2 ISZERO PUSH2 0x2A1D JUMPI JUMPDEST DUP2 ISZERO PUSH2 0x2A08 JUMPI POP SWAP1 JUMP JUMPDEST SWAP1 POP PUSH2 0x2A12 PUSH2 0x28F0 JUMP JUMPDEST PUSH1 0x20 DUP2 MLOAD SWAP2 ADD KECCAK256 EQ SWAP1 JUMP JUMPDEST SWAP1 POP PUSH2 0x2A27 PUSH2 0x2812 JUMP JUMPDEST PUSH1 0x20 DUP2 MLOAD SWAP2 ADD KECCAK256 DUP2 EQ SWAP1 PUSH2 0x29FE JUMP JUMPDEST PUSH1 0x1 PUSH1 0x1 PUSH1 0xA0 SHL SUB AND PUSH1 0x0 SWAP1 DUP2 MSTORE PUSH1 0x1 PUSH1 0x20 MSTORE PUSH1 0x40 DUP2 KECCAK256 DUP1 SLOAD SWAP1 DUP2 ISZERO SWAP1 DUP2 ISZERO PUSH2 0x2AA7 JUMPI JUMPDEST POP PUSH2 0x2AA3 JUMPI DUP2 MSTORE PUSH1 0x2 PUSH1 0x20 MSTORE PUSH1 0xFF PUSH1 0x40 DUP3 KECCAK256 SLOAD AND SWAP1 PUSH1 0x4 DUP3 LT ISZERO PUSH2 0x2A8F JUMPI POP PUSH1 0x1 DUP2 EQ ISZERO SWAP1 DUP2 PUSH2 0x2A88 JUMPI POP SWAP1 JUMP JUMPDEST SWAP1 POP ISZERO ISZERO SWAP1 JUMP JUMPDEST PUSH4 0x4E487B71 PUSH1 0xE0 SHL DUP2 MSTORE PUSH1 0x21 PUSH1 0x4 MSTORE PUSH1 0x24 SWAP1 REVERT JUMPDEST POP SWAP1 JUMP JUMPDEST PUSH1 0xFF SWAP2 POP PUSH1 0x1 ADD SLOAD AND ISZERO CODESIZE PUSH2 0x2A5A JUMP JUMPDEST SWAP2 SWAP1 SWAP2 DUP3 MLOAD PUSH1 0x1 PUSH1 0x1 PUSH1 0x40 SHL SUB DUP2 GT PUSH2 0x21C5 JUMPI PUSH2 0x2AD4 DUP3 SLOAD PUSH2 0x22CF JUMP JUMPDEST PUSH1 0x1F DUP2 GT PUSH2 0x2B7F JUMPI JUMPDEST POP PUSH1 0x20 DUP1 PUSH1 0x1F DUP4 GT PUSH1 0x1 EQ PUSH2 0x2B1A JUMPI POP DUP2 SWAP3 SWAP4 SWAP5 PUSH1 0x0 SWAP3 PUSH2 0x2B0F JUMPI JUMPDEST POP POP DUP2 PUSH1 0x1 SHL SWAP2 PUSH1 0x0 NOT SWAP1 PUSH1 0x3 SHL SHR NOT AND OR SWAP1 SSTORE JUMP JUMPDEST ADD MLOAD SWAP1 POP CODESIZE DUP1 PUSH2 0x2AF9 JUMP JUMPDEST SWAP1 PUSH1 0x1F NOT DUP4 AND SWAP6 DUP5 PUSH1 0x0 MSTORE PUSH1 0x20 PUSH1 0x0 KECCAK256 SWAP3 PUSH1 0x0 SWAP1 JUMPDEST DUP9 DUP3 LT PUSH2 0x2B67 JUMPI POP POP DUP4 PUSH1 0x1 SWAP6 SWAP7 SWAP8 LT PUSH2 0x2B4E JUMPI JUMPDEST POP POP POP DUP2 SHL ADD SWAP1 SSTORE JUMP JUMPDEST ADD MLOAD PUSH1 0x0 NOT PUSH1 0xF8 DUP5 PUSH1 0x3 SHL AND SHR NOT AND SWAP1 SSTORE CODESIZE DUP1 DUP1 PUSH2 0x2B44 JUMP JUMPDEST DUP1 PUSH1 0x1 DUP6 SWAP7 DUP3 SWAP5 SWAP7 DUP7 ADD MLOAD DUP2 SSTORE ADD SWAP6 ADD SWAP4 ADD SWAP1 PUSH2 0x2B2F JUMP JUMPDEST PUSH1 0x0 DUP4 PUSH1 0x0 MSTORE PUSH1 0x20 PUSH1 0x0 KECCAK256 PUSH1 0x1F DUP5 ADD PUSH1 0x5 SHR DUP2 ADD SWAP3 PUSH1 0x20 DUP6 LT PUSH2 0x2BBF JUMPI JUMPDEST PUSH1 0x1F ADD PUSH1 0x5 SHR ADD SWAP2 JUMPDEST DUP3 DUP2 LT PUSH2 0x2BB4 JUMPI POP POP PUSH2 0x2ADD JUMP JUMPDEST DUP2 DUP2 SSTORE PUSH1 0x1 ADD PUSH2 0x2BA6 JUMP JUMPDEST SWAP1 SWAP3 POP DUP3 SWAP1 PUSH2 0x2B9D JUMP JUMPDEST SWAP1 SWAP2 PUSH2 0x2BD5 DUP4 DUP4 PUSH2 0x2D45 JUMP JUMPDEST PUSH1 0x0 SWAP3 DUP2 DUP5 MSTORE PUSH1 0x20 SWAP4 PUSH1 0x6 DUP6 MSTORE PUSH1 0x40 SWAP3 DUP4 DUP3 KECCAK256 SWAP1 PUSH2 0x2BF2 DUP3 PUSH2 0x2309 JUMP JUMPDEST SWAP1 PUSH2 0x2C2E PUSH1 0xFF PUSH1 0x1 DUP5 MLOAD ISZERO SWAP6 ADD SLOAD AND SWAP2 PUSH1 0x1 DUP9 MLOAD SWAP2 PUSH2 0x2C10 DUP4 PUSH2 0x21AA JUMP JUMPDEST DUP11 DUP4 MSTORE DUP12 DUP4 ADD SWAP1 DUP3 DUP3 MSTORE DUP9 MSTORE PUSH1 0x6 DUP13 MSTORE PUSH2 0x1DFE DUP11 DUP10 KECCAK256 SWAP4 MLOAD DUP5 PUSH2 0x2AB7 JUMP JUMPDEST PUSH2 0x2D0C JUMPI POP PUSH2 0x2C3E DUP6 DUP9 DUP6 PUSH2 0x2F01 JUMP JUMPDEST PUSH2 0x2C7D JUMPI JUMPDEST POP SWAP1 PUSH2 0x2C5E PUSH1 0x0 DUP1 MLOAD PUSH1 0x20 PUSH2 0x3065 DUP4 CODECOPY DUP2 MLOAD SWAP2 MSTORE SWAP4 SWAP3 PUSH2 0x283B JUMP JUMPDEST SWAP4 PUSH2 0x2C72 DUP3 MLOAD SWAP4 DUP4 DUP6 SWAP5 DUP6 MSTORE DUP5 ADD SWAP1 PUSH2 0x23D1 JUMP JUMPDEST SWAP1 TIMESTAMP SWAP1 DUP4 ADD MSTORE SUB SWAP1 LOG4 JUMP JUMPDEST DUP6 DUP2 MSTORE PUSH1 0xA DUP6 MSTORE DUP3 DUP2 KECCAK256 DUP1 SLOAD SWAP1 PUSH1 0x1 PUSH1 0x40 SHL DUP3 LT ISZERO PUSH2 0x2CF8 JUMPI SWAP1 PUSH2 0x2CA6 SWAP2 PUSH1 0x1 DUP3 ADD DUP2 SSTORE PUSH2 0x24A9 JUMP JUMPDEST SWAP2 SWAP1 SWAP2 PUSH2 0x2CE4 JUMPI POP DUP2 PUSH2 0x2CCD PUSH1 0x0 DUP1 MLOAD PUSH1 0x20 PUSH2 0x3065 DUP4 CODECOPY DUP2 MLOAD SWAP2 MSTORE SWAP6 SWAP5 SWAP4 PUSH2 0x2C5E SWAP4 PUSH2 0x2AB7 JUMP JUMPDEST PUSH2 0x2CD8 PUSH1 0xB SLOAD PUSH2 0x26DC JUMP JUMPDEST PUSH1 0xB SSTORE SWAP2 SWAP3 SWAP4 POP PUSH2 0x2C43 JUMP JUMPDEST PUSH4 0x4E487B71 PUSH1 0xE0 SHL DUP2 MSTORE PUSH1 0x4 DUP2 SWAP1 MSTORE PUSH1 0x24 SWAP1 REVERT JUMPDEST PUSH4 0x4E487B71 PUSH1 0xE0 SHL DUP4 MSTORE PUSH1 0x41 PUSH1 0x4 MSTORE PUSH1 0x24 DUP4 REVERT JUMPDEST SWAP8 POP POP POP SWAP2 SWAP4 SWAP3 SWAP1 POP DUP5 MLOAD DUP2 DUP7 ADD KECCAK256 SWAP1 DUP5 MLOAD SWAP1 DUP6 ADD KECCAK256 SUB PUSH2 0x2D2E JUMPI JUMPDEST POP POP POP POP JUMP JUMPDEST PUSH2 0x1F03 PUSH2 0x2D3C SWAP5 DUP4 DUP4 PUSH2 0x2DE0 JUMP JUMPDEST CODESIZE DUP1 DUP1 DUP1 PUSH2 0x2D28 JUMP JUMPDEST SWAP1 PUSH2 0x2D7A PUSH1 0x40 DUP1 MLOAD DUP1 SWAP4 PUSH1 0x20 PUSH2 0x2D64 DUP2 DUP5 ADD SWAP8 DUP9 DUP2 MLOAD SWAP4 DUP5 SWAP3 ADD PUSH2 0x23AE JUMP JUMPDEST DUP3 ADD SWAP1 PUSH1 0x20 DUP3 ADD MSTORE SUB PUSH1 0x20 DUP2 ADD DUP5 MSTORE ADD DUP3 PUSH2 0x21DB JUMP JUMPDEST MLOAD SWAP1 KECCAK256 SWAP1 JUMP JUMPDEST PUSH1 0x20 SWAP3 SWAP2 PUSH2 0x2D8D SWAP2 PUSH2 0x2D45 JUMP JUMPDEST PUSH1 0x0 MSTORE PUSH1 0x6 DUP3 MSTORE PUSH1 0x40 PUSH1 0x0 KECCAK256 PUSH1 0x40 MLOAD PUSH2 0x2DA5 DUP2 PUSH2 0x21AA JUMP JUMPDEST PUSH1 0xFF PUSH1 0x1 PUSH2 0x2DB2 DUP5 PUSH2 0x2309 JUMP JUMPDEST SWAP4 DUP5 DUP5 MSTORE ADD SLOAD AND ISZERO ISZERO SWAP4 DUP5 SWAP2 ADD MSTORE DUP3 PUSH2 0x2DCA JUMPI POP POP SWAP1 JUMP JUMPDEST SWAP1 SWAP2 POP PUSH1 0x20 DUP2 MLOAD SWAP2 ADD KECCAK256 SWAP1 PUSH1 0x20 DUP2 MLOAD SWAP2 ADD KECCAK256 EQ SWAP1 JUMP JUMPDEST DUP3 MLOAD PUSH1 0x20 DUP1 SWAP5 ADD KECCAK256 PUSH2 0x2DF0 PUSH2 0x27F1 JUMP JUMPDEST DUP1 MLOAD SWAP1 DUP6 ADD KECCAK256 DUP2 SUB PUSH2 0x2E27 JUMPI POP DUP3 PUSH2 0x2E18 SWAP2 PUSH2 0x234B SWAP5 PUSH1 0x40 MLOAD SWAP4 DUP3 DUP6 DUP1 SWAP5 MLOAD SWAP4 DUP5 SWAP3 ADD PUSH2 0x23AE JUMP JUMPDEST DUP2 ADD PUSH1 0x7 DUP2 MSTORE SUB ADD SWAP1 KECCAK256 PUSH2 0x2FC9 JUMP JUMPDEST PUSH2 0x2E2F PUSH2 0x2812 JUMP JUMPDEST DUP1 MLOAD SWAP1 DUP6 ADD KECCAK256 DUP2 SUB PUSH2 0x2E66 JUMPI POP DUP3 PUSH2 0x2E57 SWAP2 PUSH2 0x234B SWAP5 PUSH1 0x40 MLOAD SWAP4 DUP3 DUP6 DUP1 SWAP5 MLOAD SWAP4 DUP5 SWAP3 ADD PUSH2 0x23AE JUMP JUMPDEST DUP2 ADD PUSH1 0x8 DUP2 MSTORE SUB ADD SWAP1 KECCAK256 PUSH2 0x2FC9 JUMP JUMPDEST PUSH2 0x2E6E PUSH2 0x28F0 JUMP JUMPDEST DUP5 DUP2 MLOAD SWAP2 ADD KECCAK256 EQ PUSH2 0x2E7E JUMPI POP POP POP JUMP JUMPDEST DUP3 PUSH2 0x2E99 SWAP2 PUSH2 0x234B SWAP5 PUSH1 0x40 MLOAD SWAP4 DUP3 DUP6 DUP1 SWAP5 MLOAD SWAP4 DUP5 SWAP3 ADD PUSH2 0x23AE JUMP JUMPDEST DUP2 ADD PUSH1 0x9 DUP2 MSTORE SUB ADD SWAP1 KECCAK256 PUSH2 0x2FC9 JUMP JUMPDEST PUSH1 0x1 PUSH1 0x1 PUSH1 0xA0 SHL SUB AND PUSH1 0x0 SWAP1 DUP2 MSTORE PUSH1 0x1 PUSH1 0x20 MSTORE PUSH1 0x40 DUP2 KECCAK256 DUP1 SLOAD SWAP1 DUP2 ISZERO SWAP1 DUP2 ISZERO PUSH2 0x2EF1 JUMPI JUMPDEST POP PUSH2 0x2AA3 JUMPI DUP2 MSTORE PUSH1 0x2 PUSH1 0x20 MSTORE PUSH1 0xFF PUSH1 0x40 DUP3 KECCAK256 SLOAD AND SWAP1 PUSH1 0x4 DUP3 LT ISZERO PUSH2 0x2A8F JUMPI POP PUSH1 0x3 EQ SWAP1 JUMP JUMPDEST PUSH1 0xFF SWAP2 POP PUSH1 0x1 ADD SLOAD AND ISZERO CODESIZE PUSH2 0x2ECC JUMP JUMPDEST DUP3 MLOAD PUSH1 0x20 DUP1 SWAP5 ADD KECCAK256 PUSH2 0x2F11 PUSH2 0x27F1 JUMP JUMPDEST DUP1 MLOAD SWAP1 DUP6 ADD KECCAK256 DUP2 SUB PUSH2 0x2F48 JUMPI POP DUP3 PUSH2 0x2F39 SWAP2 PUSH2 0x234B SWAP5 PUSH1 0x40 MLOAD SWAP4 DUP3 DUP6 DUP1 SWAP5 MLOAD SWAP4 DUP5 SWAP3 ADD PUSH2 0x23AE JUMP JUMPDEST DUP2 ADD PUSH1 0x7 DUP2 MSTORE SUB ADD SWAP1 KECCAK256 PUSH2 0x269F JUMP JUMPDEST PUSH2 0x2F50 PUSH2 0x2812 JUMP JUMPDEST DUP1 MLOAD SWAP1 DUP6 ADD KECCAK256 DUP2 SUB PUSH2 0x2F87 JUMPI POP DUP3 PUSH2 0x2F78 SWAP2 PUSH2 0x234B SWAP5 PUSH1 0x40 MLOAD SWAP4 DUP3 DUP6 DUP1 SWAP5 MLOAD SWAP4 DUP5 SWAP3 ADD PUSH2 0x23AE JUMP JUMPDEST DUP2 ADD PUSH1 0x8 DUP2 MSTORE SUB ADD SWAP1 KECCAK256 PUSH2 0x269F JUMP JUMPDEST PUSH2 0x2F8F PUSH2 0x28F0 JUMP JUMPDEST DUP5 DUP2 MLOAD SWAP2 ADD KECCAK256 EQ PUSH2 0x2F9F JUMPI POP POP POP JUMP JUMPDEST DUP3 PUSH2 0x2FBA SWAP2 PUSH2 0x234B SWAP5 PUSH1 0x40 MLOAD SWAP4 DUP3 DUP6 DUP1 SWAP5 MLOAD SWAP4 DUP5 SWAP3 ADD PUSH2 0x23AE JUMP JUMPDEST DUP2 ADD PUSH1 0x9 DUP2 MSTORE SUB ADD SWAP1 KECCAK256 PUSH2 0x269F JUMP JUMPDEST PUSH1 0x0 JUMPDEST DUP2 SLOAD SWAP1 DUP2 DUP2 LT ISZERO PUSH2 0x2D28 JUMPI DUP4 SWAP2 PUSH2 0x2FE3 DUP3 DUP6 PUSH2 0x24A9 JUMP JUMPDEST SWAP6 SWAP1 SLOAD PUSH1 0x3 SWAP7 DUP8 SHL SHR EQ PUSH2 0x2FFD JUMPI POP SWAP1 SWAP3 POP PUSH1 0x1 ADD PUSH2 0x2FCC JUMP JUMPDEST PUSH1 0x0 NOT SWAP3 POP DUP3 DUP2 ADD SWAP1 DUP2 GT PUSH2 0x26EB JUMPI PUSH2 0x26C1 PUSH2 0x301C PUSH2 0x3029 SWAP3 DUP7 PUSH2 0x24A9 JUMP JUMPDEST SWAP1 SLOAD SWAP1 DUP8 SHL SHR SWAP3 DUP6 PUSH2 0x24A9 JUMP JUMPDEST SWAP1 SSTORE DUP2 SLOAD DUP1 ISZERO PUSH2 0x304E JUMPI DUP2 ADD SWAP3 PUSH2 0x3040 DUP5 DUP5 PUSH2 0x24A9 JUMP JUMPDEST DUP2 SWAP4 SWAP2 SLOAD SWAP3 SHL SHL NOT AND SWAP1 SSTORE SSTORE JUMP JUMPDEST PUSH4 0x4E487B71 PUSH1 0xE0 SHL PUSH1 0x0 MSTORE PUSH1 0x31 PUSH1 0x4 MSTORE PUSH1 0x24 PUSH1 0x0 REVERT INVALID 0x2A 0x27 CREATE LOG2 0xE 0x4D DELEGATECALL PUSH20 0x8F3A8E2449B014D439E7CE0A97EE5860771C25CB 0xAF LOG1 0xCF 0xEB 0x4F PUSH15 0x6C79206F776E65727320616E642061 PUSH5 0x6D696E6973 PUSH21 0x7261746F72732063A2646970667358221220470EA9 0xBA 0xE3 0xCA 0xE9 0xA7 LOG1 PUSH18 0xF74A43FA035D5B01EE63EAD6963B6D5B8E0E SAR 0xF7 0x2D EXTCODEHASH PUSH5 0x736F6C6343 STOP ADDMOD OR STOP CALLER "},"methodIdentifiers":{"addMember(address,bytes32)":"49df7208","admin()":"f851a440","adminsByRecord(string,uint256)":"e965bfb7","changeRole(string,address,string)":"daa9dc23","deactivateWallet(address)":"0b3ffd1d","getAllUsers()":"e2842d79","getRecordAdmins(string)":"3dd1e8fc","getRecordOwners(string)":"1a95aca5","getRecordRoleStats(string)":"41d8bde3","getRecordViewers(string)":"510b3003","getRecordsByUser(bytes32)":"6544b05b","getRoleDetails(string,address)":"eb2bbf25","getRoleDetailsByUser(string,bytes32)":"ee4e5828","getTotalRoles()":"4b6feb7c","getTotalUsers()":"9be572f6","getUserForWallet(address)":"00b0c809","getUserStatus(bytes32)":"f29e007b","getWalletsForUser(bytes32)":"d12a7768","grantRole(string,address,string)":"bb20b172","hasActiveRole(string,address)":"1435b558","hasRole(string,address,string)":"cabdd23f","initializeRecordRole(string,address,string)":"3575c391","isActiveMember(address)":"45ecd02f","isOwnerOrAdmin(string,address)":"a0ca13c3","isVerifiedMember(address)":"cb261a03","ownersByRecord(string,uint256)":"970ee5b9","reactivateWallet(address)":"bb0f86d5","recordRoles(bytes32)":"33105592","recordsByUser(bytes32,uint256)":"fa7a6bcc","revokeRole(string,address)":"731f21a0","setUserStatus(bytes32,uint8)":"96207e02","totalRoles()":"790e118c","totalUsers()":"bff1f9e1","transferAdmin(address)":"75829def","userList(uint256)":"9f4216e8","userStatus(bytes32)":"6b4bed97","userWallets(bytes32,uint256)":"9443cd80","viewersByRecord(string,uint256)":"b55aefcc","voluntarilyLeaveOwnership(string)":"ed8d7b37","wallets(address)":"89b08f11"}}}}}