{"contracts/BelrosePaymaster.sol":{"BelrosePaymaster":{"abi":[{"inputs":[{"internalType":"contract IEntryPoint","name":"_entryPoint","type":"address"},{"internalType":"address","name":"_verifyingSigner","type":"address"},{"internalType":"uint256","name":"_maxCostPerUserOp","type":"uint256"}],"stateMutability":"nonpayable","type":"constructor"},{"inputs":[],"name":"ECDSAInvalidSignature","type":"error"},{"inputs":[{"internalType":"uint256","name":"length","type":"uint256"}],"name":"ECDSAInvalidSignatureLength","type":"error"},{"inputs":[{"internalType":"bytes32","name":"s","type":"bytes32"}],"name":"ECDSAInvalidSignatureS","type":"error"},{"inputs":[],"name":"InvalidSignerAddress","type":"error"},{"inputs":[{"internalType":"address","name":"owner","type":"address"}],"name":"OwnableInvalidOwner","type":"error"},{"inputs":[{"internalType":"address","name":"account","type":"address"}],"name":"OwnableUnauthorizedAccount","type":"error"},{"anonymous":false,"inputs":[{"indexed":true,"internalType":"address","name":"sender","type":"address"},{"indexed":false,"internalType":"uint256","name":"maxCost","type":"uint256"}],"name":"GasSponsored","type":"event"},{"anonymous":false,"inputs":[{"indexed":false,"internalType":"uint256","name":"oldMaxCost","type":"uint256"},{"indexed":false,"internalType":"uint256","name":"newMaxCost","type":"uint256"}],"name":"MaxCostUpdated","type":"event"},{"anonymous":false,"inputs":[{"indexed":true,"internalType":"address","name":"previousOwner","type":"address"},{"indexed":true,"internalType":"address","name":"newOwner","type":"address"}],"name":"OwnershipTransferred","type":"event"},{"anonymous":false,"inputs":[{"indexed":true,"internalType":"address","name":"oldSigner","type":"address"},{"indexed":true,"internalType":"address","name":"newSigner","type":"address"}],"name":"SignerUpdated","type":"event"},{"inputs":[{"internalType":"uint32","name":"unstakeDelaySec","type":"uint32"}],"name":"addStake","outputs":[],"stateMutability":"payable","type":"function"},{"inputs":[],"name":"deposit","outputs":[],"stateMutability":"payable","type":"function"},{"inputs":[],"name":"entryPoint","outputs":[{"internalType":"contract IEntryPoint","name":"","type":"address"}],"stateMutability":"view","type":"function"},{"inputs":[],"name":"getDeposit","outputs":[{"internalType":"uint256","name":"","type":"uint256"}],"stateMutability":"view","type":"function"},{"inputs":[{"components":[{"internalType":"address","name":"sender","type":"address"},{"internalType":"uint256","name":"nonce","type":"uint256"},{"internalType":"bytes","name":"initCode","type":"bytes"},{"internalType":"bytes","name":"callData","type":"bytes"},{"internalType":"bytes32","name":"accountGasLimits","type":"bytes32"},{"internalType":"uint256","name":"preVerificationGas","type":"uint256"},{"internalType":"bytes32","name":"gasFees","type":"bytes32"},{"internalType":"bytes","name":"paymasterAndData","type":"bytes"},{"internalType":"bytes","name":"signature","type":"bytes"}],"internalType":"struct PackedUserOperation","name":"userOp","type":"tuple"},{"internalType":"uint48","name":"validUntil","type":"uint48"},{"internalType":"uint48","name":"validAfter","type":"uint48"}],"name":"getHashWithZeroSignature","outputs":[{"internalType":"bytes32","name":"","type":"bytes32"}],"stateMutability":"view","type":"function"},{"inputs":[],"name":"maxCostPerUserOp","outputs":[{"internalType":"uint256","name":"","type":"uint256"}],"stateMutability":"view","type":"function"},{"inputs":[],"name":"owner","outputs":[{"internalType":"address","name":"","type":"address"}],"stateMutability":"view","type":"function"},{"inputs":[{"internalType":"enum IPaymaster.PostOpMode","name":"mode","type":"uint8"},{"internalType":"bytes","name":"context","type":"bytes"},{"internalType":"uint256","name":"actualGasCost","type":"uint256"},{"internalType":"uint256","name":"actualUserOpFeePerGas","type":"uint256"}],"name":"postOp","outputs":[],"stateMutability":"nonpayable","type":"function"},{"inputs":[],"name":"renounceOwnership","outputs":[],"stateMutability":"nonpayable","type":"function"},{"inputs":[{"internalType":"uint256","name":"_newMaxCost","type":"uint256"}],"name":"setMaxCostPerUserOp","outputs":[],"stateMutability":"nonpayable","type":"function"},{"inputs":[{"internalType":"address","name":"newOwner","type":"address"}],"name":"transferOwnership","outputs":[],"stateMutability":"nonpayable","type":"function"},{"inputs":[],"name":"unlockStake","outputs":[],"stateMutability":"nonpayable","type":"function"},{"inputs":[{"internalType":"address","name":"_newSigner","type":"address"}],"name":"updateSigner","outputs":[],"stateMutability":"nonpayable","type":"function"},{"inputs":[{"components":[{"internalType":"address","name":"sender","type":"address"},{"internalType":"uint256","name":"nonce","type":"uint256"},{"internalType":"bytes","name":"initCode","type":"bytes"},{"internalType":"bytes","name":"callData","type":"bytes"},{"internalType":"bytes32","name":"accountGasLimits","type":"bytes32"},{"internalType":"uint256","name":"preVerificationGas","type":"uint256"},{"internalType":"bytes32","name":"gasFees","type":"bytes32"},{"internalType":"bytes","name":"paymasterAndData","type":"bytes"},{"internalType":"bytes","name":"signature","type":"bytes"}],"internalType":"struct PackedUserOperation","name":"userOp","type":"tuple"},{"internalType":"bytes32","name":"userOpHash","type":"bytes32"},{"internalType":"uint256","name":"maxCost","type":"uint256"}],"name":"validatePaymasterUserOp","outputs":[{"internalType":"bytes","name":"context","type":"bytes"},{"internalType":"uint256","name":"validationData","type":"uint256"}],"stateMutability":"nonpayable","type":"function"},{"inputs":[],"name":"verifyingSigner","outputs":[{"internalType":"address","name":"","type":"address"}],"stateMutability":"view","type":"function"},{"inputs":[{"internalType":"address payable","name":"withdrawAddress","type":"address"}],"name":"withdrawStake","outputs":[],"stateMutability":"nonpayable","type":"function"},{"inputs":[{"internalType":"address payable","name":"withdrawAddress","type":"address"},{"internalType":"uint256","name":"amount","type":"uint256"}],"name":"withdrawTo","outputs":[],"stateMutability":"nonpayable","type":"function"}],"evm":{"bytecode":{"linkReferences":{},"object":"60a060409080825234620001ff57606081620010fb803803809162000025828562000204565b833981010312620001ff5780516001600160a01b038082169291838103620001ff5760208084015193838516809503620001ff57860151943315620001e7576000828154602460018060a01b031997338984161785558b5195869384923391167f8be0079c531659141344cd1fd0a4f28419497f9722a3daafe3b4186f6b6457e08880a36301ffc9a760e01b825263122a0e9b60e31b60048301525afa918215620001db57819262000193575b50501562000150575060805281156200013f57600154161760015560025551610ebc90816200023f823960805181818161018b01528181610239015281816102eb01528181610361015281816103cc01528181610662015281816107a401528181610a7c0152610b9a0152f35b8351634501a91960e01b8152600490fd5b60649086519062461bcd60e51b82526004820152601e60248201527f49456e747279506f696e7420696e74657266616365206d69736d6174636800006044820152fd5b9091508281813d8311620001d3575b620001ae818362000204565b81010312620001cf5751908115158203620001cc57503880620000d2565b80fd5b5080fd5b503d620001a2565b508751903d90823e3d90fd5b8651631e4fbdf760e01b815260006004820152602490fd5b600080fd5b601f909101601f19168101906001600160401b038211908210176200022857604052565b634e487b7160e01b600052604160045260246000fdfe60406080815260048036101561001457600080fd5b600091823560e01c80630396cb601461077c578063146120531461072c57806318120155146106bf57838163205c2878146106355750806323d9ac9b1461060c57806352b7512c1461058b57806352dd9e1e1461056c578063715018a6146105125780637c627b21146104b55780638da5cb5b1461048d578063a7ecd37e146103ff578063b0d691fe146103b757838163bb9fe6bf14610344578163c23a5cea146102bd57508063c399ec881461020c57838163d0e30db01461017b575063f2fde38b146100e157600080fd5b34610177576020366003190112610177576001600160a01b0382358181169391929084900361017357610112610af2565b831561015d575050600054826bffffffffffffffffffffffff60a01b821617600055167f8be0079c531659141344cd1fd0a4f28419497f9722a3daafe3b4186f6b6457e0600080a380f35b51631e4fbdf760e01b8152908101849052602490fd5b8480fd5b8280fd5b80848482600319360112610208577f00000000000000000000000000000000000000000000000000000000000000006001600160a01b031691823b15610203578390602483518095819363b760faf960e01b8352309083015234905af19081156101fa57506101e75750f35b6101f090610840565b6101f75780f35b80fd5b513d84823e3d90fd5b505050fd5b5050fd5b503461017757826003193601126101775780516370a0823160e01b815230928101929092526020826024817f00000000000000000000000000000000000000000000000000000000000000006001600160a01b03165afa9182156102b357839261027b575b6020838351908152f35b9091506020813d6020116102ab575b81610297602093836108a2565b810103126101775760209250519038610271565b3d915061028a565b81513d85823e3d90fd5b80848434610208576020366003190112610208576102d9610807565b6102e1610af2565b6001600160a01b037f00000000000000000000000000000000000000000000000000000000000000008116803b15610340578592836024928651978895869463611d2e7560e11b865216908401525af19081156101fa57506101e75750f35b8580fd5b8084843461020857826003193601126102085761035f610af2565b7f00000000000000000000000000000000000000000000000000000000000000006001600160a01b031691823b1561020357815163bb9fe6bf60e01b81529284918491829084905af19081156101fa57506101e75750f35b8382346103fb57816003193601126103fb57517f00000000000000000000000000000000000000000000000000000000000000006001600160a01b03168152602090f35b5080fd5b5090346101775760203660031901126101775780356001600160a01b03811692908390036104895761042f610af2565b821561047c5750508082600154826bffffffffffffffffffffffff60a01b82161760015516177f2d025324f0a785e8c12d0a0d91a9caa49df4ef20ff87e0df7213a1d4f3157beb8380a380f35b51634501a91960e01b8152fd5b8380fd5b8382346103fb57816003193601126103fb57905490516001600160a01b039091168152602090f35b5050346103fb5760803660031901126103fb576003813510156103fb576024359067ffffffffffffffff9081831161048957366023840112156104895782013590811161017757369101602401116101f75761050f610b98565b80f35b83346101f757806003193601126101f75761052b610af2565b600080546001600160a01b0319811682556001600160a01b03167f8be0079c531659141344cd1fd0a4f28419497f9722a3daafe3b4186f6b6457e08280a380f35b8382346103fb57816003193601126103fb576020906002549051908152f35b5091346101f757600319906060368301126101f75782359167ffffffffffffffff83116103fb576101209083360301126101f7576105f96060856105dc86866105d2610b98565b6044359101610c07565b82519483869485528351938480928701526020878701910161081d565b6020830152601f01601f19168101030190f35b8382346103fb57816003193601126103fb5760015490516001600160a01b039091168152602090f35b80848434610208578060031936011261020857610650610807565b610658610af2565b6001600160a01b037f00000000000000000000000000000000000000000000000000000000000000008116803b15610340578592836044928651978895869463040b850f60e31b8652169084015260243560248401525af19081156101fa57506101e75750f35b50903461017757600319926060368501126101f75781359367ffffffffffffffff85116103fb576101209085360301126101f7575065ffffffffffff60243581811681036107275760443591821682036107275760209461072093016108c4565b9051908152f35b600080fd5b5034610177576020366003190112610177577f598df8bc4d7c3a9a23abde0a78576ee20e96f207ea058d57f5301f5f05fdbcb29135610769610af2565b806002558151908082526020820152a180f35b5060203660031901126101775782823563ffffffff81168091036103fb576107a2610af2565b7f00000000000000000000000000000000000000000000000000000000000000006001600160a01b031693843b156101775760249084519586938492621cb65b60e51b845283015234905af19081156101fa57506107fe575080f35b61050f90610840565b600435906001600160a01b038216820361072757565b60005b8381106108305750506000910152565b8181015183820152602001610820565b67ffffffffffffffff811161085457604052565b634e487b7160e01b600052604160045260246000fd5b6080810190811067ffffffffffffffff82111761085457604052565b6020810190811067ffffffffffffffff82111761085457604052565b90601f8019910116810190811067ffffffffffffffff82111761085457604052565b919091604080516108d48161086a565b6041815260209384820195606096873682378451610935602c828a81019461092565ffffffffffff9965ffffffffffff60d01b808a60d01b1689528a60d01b1660268501525180928585019061081d565b810103600c8101845201826108a2565b60e087016109438189610b1e565b602493919311610727576109696fffffffffffffffffffffffffffffffff19928a610b1e565b603493919311610727578b946109b26054938360248f95976109c2988f601490519b8c998a01809e30901b9052013516603488015201351660448501525180928585019061081d565b81010360348101845201826108a2565b5190206001600160a01b0386358181169392908490036107275760c06109f46109ed898b018b610b1e565b3691610b51565b8a815191012098610a0a6109ed8d830183610b1e565b8b815191012089519a8c8c019788528c8301358b8d01528d8c015260808b0152608081013560a08b015260a0810135828b0152013560e089015261010090818901528752610120870167ffffffffffffffff9780821089831117610854578694828952815190209261014082019384527f00000000000000000000000000000000000000000000000000000000000000001661016082015261018046910152898152610ab58161086a565b519020978551978801988952468689015230908801521660808601521660a084015260a0835260c083019183831090831117610854575251902090565b6000546001600160a01b03163303610b0657565b60405163118cdaa760e01b8152336004820152602490fd5b903590601e1981360301821215610727570180359067ffffffffffffffff82116107275760200191813603831361072757565b92919267ffffffffffffffff82116108545760405191610b7b601f8201601f1916602001846108a2565b829481845281830111610727578281602093846000960137010152565b7f00000000000000000000000000000000000000000000000000000000000000006001600160a01b03163303610bca57565b60405162461bcd60e51b815260206004820152601560248201527414d95b99195c881b9bdd08115b9d1c9e541bda5b9d605a1b6044820152606490fd5b919060025410610d2757610c1e60e0830183610b1e565b908160341161072757603319820191604d8310610d0c578260061161072757603482013592600c116107275781610ca9610caf92610c6d603a610cb8960135988960d01c908860d01c906108c4565b7f19457468657265756d205369676e6564204d6573736167653a0a333200000000600052601c52603c6000209260403692603f19019101610b51565b90610d35565b90929192610d71565b6001546001600160a01b03918216911614610d055760015b60ff604051610cde81610886565b600081529465ffffffffffff60d01b169265ffffffffffff60a01b9060301c169116171790565b6000610cd0565b5050509050604051610d1d81610886565b6000815290600190565b9050604051610d1d81610886565b8151919060418303610d6657610d5f92506020820151906060604084015193015160001a90610df6565b9192909190565b505060009160029190565b6004811015610de05780610d83575050565b60018103610d9d5760405163f645eedf60e01b8152600490fd5b60028103610dbe5760405163fce698f760e01b815260048101839052602490fd5b600314610dc85750565b602490604051906335e2f38360e21b82526004820152fd5b634e487b7160e01b600052602160045260246000fd5b91907f7fffffffffffffffffffffffffffffff5d576e7357a4501ddfe92f46681b20a08411610e7a57926020929160ff608095604051948552168484015260408301526060820152600092839182805260015afa15610e6e5780516001600160a01b03811615610e6557918190565b50809160019190565b604051903d90823e3d90fd5b5050506000916003919056fea26469706673582212208510c57d1d83ea33eea5d1eba3b2eb08db475e55544a42cabcc68d7d86dada6064736f6c63430008170033","opcodes":"PUSH1 0xA0 PUSH1 0x40 SWAP1 DUP1 DUP3 MSTORE CALLVALUE PUSH3 0x1FF JUMPI PUSH1 0x60 DUP2 PUSH3 0x10FB DUP1 CODESIZE SUB DUP1 SWAP2 PUSH3 0x25 DUP3 DUP6 PUSH3 0x204 JUMP JUMPDEST DUP4 CODECOPY DUP2 ADD SUB SLT PUSH3 0x1FF JUMPI DUP1 MLOAD PUSH1 0x1 PUSH1 0x1 PUSH1 0xA0 SHL SUB DUP1 DUP3 AND SWAP3 SWAP2 DUP4 DUP2 SUB PUSH3 0x1FF JUMPI PUSH1 0x20 DUP1 DUP5 ADD MLOAD SWAP4 DUP4 DUP6 AND DUP1 SWAP6 SUB PUSH3 0x1FF JUMPI DUP7 ADD MLOAD SWAP5 CALLER ISZERO PUSH3 0x1E7 JUMPI PUSH1 0x0 DUP3 DUP2 SLOAD PUSH1 0x24 PUSH1 0x1 DUP1 PUSH1 0xA0 SHL SUB NOT SWAP8 CALLER DUP10 DUP5 AND OR DUP6 SSTORE DUP12 MLOAD SWAP6 DUP7 SWAP4 DUP5 SWAP3 CALLER SWAP2 AND PUSH32 0x8BE0079C531659141344CD1FD0A4F28419497F9722A3DAAFE3B4186F6B6457E0 DUP9 DUP1 LOG3 PUSH4 0x1FFC9A7 PUSH1 0xE0 SHL DUP3 MSTORE PUSH4 0x122A0E9B PUSH1 0xE3 SHL PUSH1 0x4 DUP4 ADD MSTORE GAS STATICCALL SWAP2 DUP3 ISZERO PUSH3 0x1DB JUMPI DUP2 SWAP3 PUSH3 0x193 JUMPI JUMPDEST POP POP ISZERO PUSH3 0x150 JUMPI POP PUSH1 0x80 MSTORE DUP2 ISZERO PUSH3 0x13F JUMPI PUSH1 0x1 SLOAD AND OR PUSH1 0x1 SSTORE PUSH1 0x2 SSTORE MLOAD PUSH2 0xEBC SWAP1 DUP2 PUSH3 0x23F DUP3 CODECOPY PUSH1 0x80 MLOAD DUP2 DUP2 DUP2 PUSH2 0x18B ADD MSTORE DUP2 DUP2 PUSH2 0x239 ADD MSTORE DUP2 DUP2 PUSH2 0x2EB ADD MSTORE DUP2 DUP2 PUSH2 0x361 ADD MSTORE DUP2 DUP2 PUSH2 0x3CC ADD MSTORE DUP2 DUP2 PUSH2 0x662 ADD MSTORE DUP2 DUP2 PUSH2 0x7A4 ADD MSTORE DUP2 DUP2 PUSH2 0xA7C ADD MSTORE PUSH2 0xB9A ADD MSTORE RETURN JUMPDEST DUP4 MLOAD PUSH4 0x4501A919 PUSH1 0xE0 SHL DUP2 MSTORE PUSH1 0x4 SWAP1 REVERT JUMPDEST PUSH1 0x64 SWAP1 DUP7 MLOAD SWAP1 PUSH3 0x461BCD PUSH1 0xE5 SHL DUP3 MSTORE PUSH1 0x4 DUP3 ADD MSTORE PUSH1 0x1E PUSH1 0x24 DUP3 ADD MSTORE PUSH32 0x49456E747279506F696E7420696E74657266616365206D69736D617463680000 PUSH1 0x44 DUP3 ADD MSTORE REVERT JUMPDEST SWAP1 SWAP2 POP DUP3 DUP2 DUP2 RETURNDATASIZE DUP4 GT PUSH3 0x1D3 JUMPI JUMPDEST PUSH3 0x1AE DUP2 DUP4 PUSH3 0x204 JUMP JUMPDEST DUP2 ADD SUB SLT PUSH3 0x1CF JUMPI MLOAD SWAP1 DUP2 ISZERO ISZERO DUP3 SUB PUSH3 0x1CC JUMPI POP CODESIZE DUP1 PUSH3 0xD2 JUMP JUMPDEST DUP1 REVERT JUMPDEST POP DUP1 REVERT JUMPDEST POP RETURNDATASIZE PUSH3 0x1A2 JUMP JUMPDEST POP DUP8 MLOAD SWAP1 RETURNDATASIZE SWAP1 DUP3 RETURNDATACOPY RETURNDATASIZE SWAP1 REVERT JUMPDEST DUP7 MLOAD PUSH4 0x1E4FBDF7 PUSH1 0xE0 SHL DUP2 MSTORE PUSH1 0x0 PUSH1 0x4 DUP3 ADD MSTORE PUSH1 0x24 SWAP1 REVERT JUMPDEST PUSH1 0x0 DUP1 REVERT JUMPDEST PUSH1 0x1F SWAP1 SWAP2 ADD PUSH1 0x1F NOT AND DUP2 ADD SWAP1 PUSH1 0x1 PUSH1 0x1 PUSH1 0x40 SHL SUB DUP3 GT SWAP1 DUP3 LT OR PUSH3 0x228 JUMPI PUSH1 0x40 MSTORE JUMP JUMPDEST PUSH4 0x4E487B71 PUSH1 0xE0 SHL PUSH1 0x0 MSTORE PUSH1 0x41 PUSH1 0x4 MSTORE PUSH1 0x24 PUSH1 0x0 REVERT INVALID PUSH1 0x40 PUSH1 0x80 DUP2 MSTORE PUSH1 0x4 DUP1 CALLDATASIZE LT ISZERO PUSH2 0x14 JUMPI PUSH1 0x0 DUP1 REVERT JUMPDEST PUSH1 0x0 SWAP2 DUP3 CALLDATALOAD PUSH1 0xE0 SHR DUP1 PUSH4 0x396CB60 EQ PUSH2 0x77C JUMPI DUP1 PUSH4 0x14612053 EQ PUSH2 0x72C JUMPI DUP1 PUSH4 0x18120155 EQ PUSH2 0x6BF JUMPI DUP4 DUP2 PUSH4 0x205C2878 EQ PUSH2 0x635 JUMPI POP DUP1 PUSH4 0x23D9AC9B EQ PUSH2 0x60C JUMPI DUP1 PUSH4 0x52B7512C EQ PUSH2 0x58B JUMPI DUP1 PUSH4 0x52DD9E1E EQ PUSH2 0x56C JUMPI DUP1 PUSH4 0x715018A6 EQ PUSH2 0x512 JUMPI DUP1 PUSH4 0x7C627B21 EQ PUSH2 0x4B5 JUMPI DUP1 PUSH4 0x8DA5CB5B EQ PUSH2 0x48D JUMPI DUP1 PUSH4 0xA7ECD37E EQ PUSH2 0x3FF JUMPI DUP1 PUSH4 0xB0D691FE EQ PUSH2 0x3B7 JUMPI DUP4 DUP2 PUSH4 0xBB9FE6BF EQ PUSH2 0x344 JUMPI DUP2 PUSH4 0xC23A5CEA EQ PUSH2 0x2BD JUMPI POP DUP1 PUSH4 0xC399EC88 EQ PUSH2 0x20C JUMPI DUP4 DUP2 PUSH4 0xD0E30DB0 EQ PUSH2 0x17B JUMPI POP PUSH4 0xF2FDE38B EQ PUSH2 0xE1 JUMPI PUSH1 0x0 DUP1 REVERT JUMPDEST CALLVALUE PUSH2 0x177 JUMPI PUSH1 0x20 CALLDATASIZE PUSH1 0x3 NOT ADD SLT PUSH2 0x177 JUMPI PUSH1 0x1 PUSH1 0x1 PUSH1 0xA0 SHL SUB DUP3 CALLDATALOAD DUP2 DUP2 AND SWAP4 SWAP2 SWAP3 SWAP1 DUP5 SWAP1 SUB PUSH2 0x173 JUMPI PUSH2 0x112 PUSH2 0xAF2 JUMP JUMPDEST DUP4 ISZERO PUSH2 0x15D JUMPI POP POP PUSH1 0x0 SLOAD DUP3 PUSH12 0xFFFFFFFFFFFFFFFFFFFFFFFF PUSH1 0xA0 SHL DUP3 AND OR PUSH1 0x0 SSTORE AND PUSH32 0x8BE0079C531659141344CD1FD0A4F28419497F9722A3DAAFE3B4186F6B6457E0 PUSH1 0x0 DUP1 LOG3 DUP1 RETURN JUMPDEST MLOAD PUSH4 0x1E4FBDF7 PUSH1 0xE0 SHL DUP2 MSTORE SWAP1 DUP2 ADD DUP5 SWAP1 MSTORE PUSH1 0x24 SWAP1 REVERT JUMPDEST DUP5 DUP1 REVERT JUMPDEST DUP3 DUP1 REVERT JUMPDEST DUP1 DUP5 DUP5 DUP3 PUSH1 0x3 NOT CALLDATASIZE ADD SLT PUSH2 0x208 JUMPI PUSH32 0x0 PUSH1 0x1 PUSH1 0x1 PUSH1 0xA0 SHL SUB AND SWAP2 DUP3 EXTCODESIZE ISZERO PUSH2 0x203 JUMPI DUP4 SWAP1 PUSH1 0x24 DUP4 MLOAD DUP1 SWAP6 DUP2 SWAP4 PUSH4 0xB760FAF9 PUSH1 0xE0 SHL DUP4 MSTORE ADDRESS SWAP1 DUP4 ADD MSTORE CALLVALUE SWAP1 GAS CALL SWAP1 DUP2 ISZERO PUSH2 0x1FA JUMPI POP PUSH2 0x1E7 JUMPI POP RETURN JUMPDEST PUSH2 0x1F0 SWAP1 PUSH2 0x840 JUMP JUMPDEST PUSH2 0x1F7 JUMPI DUP1 RETURN JUMPDEST DUP1 REVERT JUMPDEST MLOAD RETURNDATASIZE DUP5 DUP3 RETURNDATACOPY RETURNDATASIZE SWAP1 REVERT JUMPDEST POP POP POP REVERT JUMPDEST POP POP REVERT JUMPDEST POP CALLVALUE PUSH2 0x177 JUMPI DUP3 PUSH1 0x3 NOT CALLDATASIZE ADD SLT PUSH2 0x177 JUMPI DUP1 MLOAD PUSH4 0x70A08231 PUSH1 0xE0 SHL DUP2 MSTORE ADDRESS SWAP3 DUP2 ADD SWAP3 SWAP1 SWAP3 MSTORE PUSH1 0x20 DUP3 PUSH1 0x24 DUP2 PUSH32 0x0 PUSH1 0x1 PUSH1 0x1 PUSH1 0xA0 SHL SUB AND GAS STATICCALL SWAP2 DUP3 ISZERO PUSH2 0x2B3 JUMPI DUP4 SWAP3 PUSH2 0x27B JUMPI JUMPDEST PUSH1 0x20 DUP4 DUP4 MLOAD SWAP1 DUP2 MSTORE RETURN JUMPDEST SWAP1 SWAP2 POP PUSH1 0x20 DUP2 RETURNDATASIZE PUSH1 0x20 GT PUSH2 0x2AB JUMPI JUMPDEST DUP2 PUSH2 0x297 PUSH1 0x20 SWAP4 DUP4 PUSH2 0x8A2 JUMP JUMPDEST DUP2 ADD SUB SLT PUSH2 0x177 JUMPI PUSH1 0x20 SWAP3 POP MLOAD SWAP1 CODESIZE PUSH2 0x271 JUMP JUMPDEST RETURNDATASIZE SWAP2 POP PUSH2 0x28A JUMP JUMPDEST DUP2 MLOAD RETURNDATASIZE DUP6 DUP3 RETURNDATACOPY RETURNDATASIZE SWAP1 REVERT JUMPDEST DUP1 DUP5 DUP5 CALLVALUE PUSH2 0x208 JUMPI PUSH1 0x20 CALLDATASIZE PUSH1 0x3 NOT ADD SLT PUSH2 0x208 JUMPI PUSH2 0x2D9 PUSH2 0x807 JUMP JUMPDEST PUSH2 0x2E1 PUSH2 0xAF2 JUMP JUMPDEST PUSH1 0x1 PUSH1 0x1 PUSH1 0xA0 SHL SUB PUSH32 0x0 DUP2 AND DUP1 EXTCODESIZE ISZERO PUSH2 0x340 JUMPI DUP6 SWAP3 DUP4 PUSH1 0x24 SWAP3 DUP7 MLOAD SWAP8 DUP9 SWAP6 DUP7 SWAP5 PUSH4 0x611D2E75 PUSH1 0xE1 SHL DUP7 MSTORE AND SWAP1 DUP5 ADD MSTORE GAS CALL SWAP1 DUP2 ISZERO PUSH2 0x1FA JUMPI POP PUSH2 0x1E7 JUMPI POP RETURN JUMPDEST DUP6 DUP1 REVERT JUMPDEST DUP1 DUP5 DUP5 CALLVALUE PUSH2 0x208 JUMPI DUP3 PUSH1 0x3 NOT CALLDATASIZE ADD SLT PUSH2 0x208 JUMPI PUSH2 0x35F PUSH2 0xAF2 JUMP JUMPDEST PUSH32 0x0 PUSH1 0x1 PUSH1 0x1 PUSH1 0xA0 SHL SUB AND SWAP2 DUP3 EXTCODESIZE ISZERO PUSH2 0x203 JUMPI DUP2 MLOAD PUSH4 0xBB9FE6BF PUSH1 0xE0 SHL DUP2 MSTORE SWAP3 DUP5 SWAP2 DUP5 SWAP2 DUP3 SWAP1 DUP5 SWAP1 GAS CALL SWAP1 DUP2 ISZERO PUSH2 0x1FA JUMPI POP PUSH2 0x1E7 JUMPI POP RETURN JUMPDEST DUP4 DUP3 CALLVALUE PUSH2 0x3FB JUMPI DUP2 PUSH1 0x3 NOT CALLDATASIZE ADD SLT PUSH2 0x3FB JUMPI MLOAD PUSH32 0x0 PUSH1 0x1 PUSH1 0x1 PUSH1 0xA0 SHL SUB AND DUP2 MSTORE PUSH1 0x20 SWAP1 RETURN JUMPDEST POP DUP1 REVERT JUMPDEST POP SWAP1 CALLVALUE PUSH2 0x177 JUMPI PUSH1 0x20 CALLDATASIZE PUSH1 0x3 NOT ADD SLT PUSH2 0x177 JUMPI DUP1 CALLDATALOAD PUSH1 0x1 PUSH1 0x1 PUSH1 0xA0 SHL SUB DUP2 AND SWAP3 SWAP1 DUP4 SWAP1 SUB PUSH2 0x489 JUMPI PUSH2 0x42F PUSH2 0xAF2 JUMP JUMPDEST DUP3 ISZERO PUSH2 0x47C JUMPI POP POP DUP1 DUP3 PUSH1 0x1 SLOAD DUP3 PUSH12 0xFFFFFFFFFFFFFFFFFFFFFFFF PUSH1 0xA0 SHL DUP3 AND OR PUSH1 0x1 SSTORE AND OR PUSH32 0x2D025324F0A785E8C12D0A0D91A9CAA49DF4EF20FF87E0DF7213A1D4F3157BEB DUP4 DUP1 LOG3 DUP1 RETURN JUMPDEST MLOAD PUSH4 0x4501A919 PUSH1 0xE0 SHL DUP2 MSTORE REVERT JUMPDEST DUP4 DUP1 REVERT JUMPDEST DUP4 DUP3 CALLVALUE PUSH2 0x3FB JUMPI DUP2 PUSH1 0x3 NOT CALLDATASIZE ADD SLT PUSH2 0x3FB JUMPI SWAP1 SLOAD SWAP1 MLOAD PUSH1 0x1 PUSH1 0x1 PUSH1 0xA0 SHL SUB SWAP1 SWAP2 AND DUP2 MSTORE PUSH1 0x20 SWAP1 RETURN JUMPDEST POP POP CALLVALUE PUSH2 0x3FB JUMPI PUSH1 0x80 CALLDATASIZE PUSH1 0x3 NOT ADD SLT PUSH2 0x3FB JUMPI PUSH1 0x3 DUP2 CALLDATALOAD LT ISZERO PUSH2 0x3FB JUMPI PUSH1 0x24 CALLDATALOAD SWAP1 PUSH8 0xFFFFFFFFFFFFFFFF SWAP1 DUP2 DUP4 GT PUSH2 0x489 JUMPI CALLDATASIZE PUSH1 0x23 DUP5 ADD SLT ISZERO PUSH2 0x489 JUMPI DUP3 ADD CALLDATALOAD SWAP1 DUP2 GT PUSH2 0x177 JUMPI CALLDATASIZE SWAP2 ADD PUSH1 0x24 ADD GT PUSH2 0x1F7 JUMPI PUSH2 0x50F PUSH2 0xB98 JUMP JUMPDEST DUP1 RETURN JUMPDEST DUP4 CALLVALUE PUSH2 0x1F7 JUMPI DUP1 PUSH1 0x3 NOT CALLDATASIZE ADD SLT PUSH2 0x1F7 JUMPI PUSH2 0x52B PUSH2 0xAF2 JUMP JUMPDEST PUSH1 0x0 DUP1 SLOAD PUSH1 0x1 PUSH1 0x1 PUSH1 0xA0 SHL SUB NOT DUP2 AND DUP3 SSTORE PUSH1 0x1 PUSH1 0x1 PUSH1 0xA0 SHL SUB AND PUSH32 0x8BE0079C531659141344CD1FD0A4F28419497F9722A3DAAFE3B4186F6B6457E0 DUP3 DUP1 LOG3 DUP1 RETURN JUMPDEST DUP4 DUP3 CALLVALUE PUSH2 0x3FB JUMPI DUP2 PUSH1 0x3 NOT CALLDATASIZE ADD SLT PUSH2 0x3FB JUMPI PUSH1 0x20 SWAP1 PUSH1 0x2 SLOAD SWAP1 MLOAD SWAP1 DUP2 MSTORE RETURN JUMPDEST POP SWAP2 CALLVALUE PUSH2 0x1F7 JUMPI PUSH1 0x3 NOT SWAP1 PUSH1 0x60 CALLDATASIZE DUP4 ADD SLT PUSH2 0x1F7 JUMPI DUP3 CALLDATALOAD SWAP2 PUSH8 0xFFFFFFFFFFFFFFFF DUP4 GT PUSH2 0x3FB JUMPI PUSH2 0x120 SWAP1 DUP4 CALLDATASIZE SUB ADD SLT PUSH2 0x1F7 JUMPI PUSH2 0x5F9 PUSH1 0x60 DUP6 PUSH2 0x5DC DUP7 DUP7 PUSH2 0x5D2 PUSH2 0xB98 JUMP JUMPDEST PUSH1 0x44 CALLDATALOAD SWAP2 ADD PUSH2 0xC07 JUMP JUMPDEST DUP3 MLOAD SWAP5 DUP4 DUP7 SWAP5 DUP6 MSTORE DUP4 MLOAD SWAP4 DUP5 DUP1 SWAP3 DUP8 ADD MSTORE PUSH1 0x20 DUP8 DUP8 ADD SWAP2 ADD PUSH2 0x81D JUMP JUMPDEST PUSH1 0x20 DUP4 ADD MSTORE PUSH1 0x1F ADD PUSH1 0x1F NOT AND DUP2 ADD SUB ADD SWAP1 RETURN JUMPDEST DUP4 DUP3 CALLVALUE PUSH2 0x3FB JUMPI DUP2 PUSH1 0x3 NOT CALLDATASIZE ADD SLT PUSH2 0x3FB JUMPI PUSH1 0x1 SLOAD SWAP1 MLOAD PUSH1 0x1 PUSH1 0x1 PUSH1 0xA0 SHL SUB SWAP1 SWAP2 AND DUP2 MSTORE PUSH1 0x20 SWAP1 RETURN JUMPDEST DUP1 DUP5 DUP5 CALLVALUE PUSH2 0x208 JUMPI DUP1 PUSH1 0x3 NOT CALLDATASIZE ADD SLT PUSH2 0x208 JUMPI PUSH2 0x650 PUSH2 0x807 JUMP JUMPDEST PUSH2 0x658 PUSH2 0xAF2 JUMP JUMPDEST PUSH1 0x1 PUSH1 0x1 PUSH1 0xA0 SHL SUB PUSH32 0x0 DUP2 AND DUP1 EXTCODESIZE ISZERO PUSH2 0x340 JUMPI DUP6 SWAP3 DUP4 PUSH1 0x44 SWAP3 DUP7 MLOAD SWAP8 DUP9 SWAP6 DUP7 SWAP5 PUSH4 0x40B850F PUSH1 0xE3 SHL DUP7 MSTORE AND SWAP1 DUP5 ADD MSTORE PUSH1 0x24 CALLDATALOAD PUSH1 0x24 DUP5 ADD MSTORE GAS CALL SWAP1 DUP2 ISZERO PUSH2 0x1FA JUMPI POP PUSH2 0x1E7 JUMPI POP RETURN JUMPDEST POP SWAP1 CALLVALUE PUSH2 0x177 JUMPI PUSH1 0x3 NOT SWAP3 PUSH1 0x60 CALLDATASIZE DUP6 ADD SLT PUSH2 0x1F7 JUMPI DUP2 CALLDATALOAD SWAP4 PUSH8 0xFFFFFFFFFFFFFFFF DUP6 GT PUSH2 0x3FB JUMPI PUSH2 0x120 SWAP1 DUP6 CALLDATASIZE SUB ADD SLT PUSH2 0x1F7 JUMPI POP PUSH6 0xFFFFFFFFFFFF PUSH1 0x24 CALLDATALOAD DUP2 DUP2 AND DUP2 SUB PUSH2 0x727 JUMPI PUSH1 0x44 CALLDATALOAD SWAP2 DUP3 AND DUP3 SUB PUSH2 0x727 JUMPI PUSH1 0x20 SWAP5 PUSH2 0x720 SWAP4 ADD PUSH2 0x8C4 JUMP JUMPDEST SWAP1 MLOAD SWAP1 DUP2 MSTORE RETURN JUMPDEST PUSH1 0x0 DUP1 REVERT JUMPDEST POP CALLVALUE PUSH2 0x177 JUMPI PUSH1 0x20 CALLDATASIZE PUSH1 0x3 NOT ADD SLT PUSH2 0x177 JUMPI PUSH32 0x598DF8BC4D7C3A9A23ABDE0A78576EE20E96F207EA058D57F5301F5F05FDBCB2 SWAP2 CALLDATALOAD PUSH2 0x769 PUSH2 0xAF2 JUMP JUMPDEST DUP1 PUSH1 0x2 SSTORE DUP2 MLOAD SWAP1 DUP1 DUP3 MSTORE PUSH1 0x20 DUP3 ADD MSTORE LOG1 DUP1 RETURN JUMPDEST POP PUSH1 0x20 CALLDATASIZE PUSH1 0x3 NOT ADD SLT PUSH2 0x177 JUMPI DUP3 DUP3 CALLDATALOAD PUSH4 0xFFFFFFFF DUP2 AND DUP1 SWAP2 SUB PUSH2 0x3FB JUMPI PUSH2 0x7A2 PUSH2 0xAF2 JUMP JUMPDEST PUSH32 0x0 PUSH1 0x1 PUSH1 0x1 PUSH1 0xA0 SHL SUB AND SWAP4 DUP5 EXTCODESIZE ISZERO PUSH2 0x177 JUMPI PUSH1 0x24 SWAP1 DUP5 MLOAD SWAP6 DUP7 SWAP4 DUP5 SWAP3 PUSH3 0x1CB65B PUSH1 0xE5 SHL DUP5 MSTORE DUP4 ADD MSTORE CALLVALUE SWAP1 GAS CALL SWAP1 DUP2 ISZERO PUSH2 0x1FA JUMPI POP PUSH2 0x7FE JUMPI POP DUP1 RETURN JUMPDEST PUSH2 0x50F SWAP1 PUSH2 0x840 JUMP JUMPDEST PUSH1 0x4 CALLDATALOAD SWAP1 PUSH1 0x1 PUSH1 0x1 PUSH1 0xA0 SHL SUB DUP3 AND DUP3 SUB PUSH2 0x727 JUMPI JUMP JUMPDEST PUSH1 0x0 JUMPDEST DUP4 DUP2 LT PUSH2 0x830 JUMPI POP POP PUSH1 0x0 SWAP2 ADD MSTORE JUMP JUMPDEST DUP2 DUP2 ADD MLOAD DUP4 DUP3 ADD MSTORE PUSH1 0x20 ADD PUSH2 0x820 JUMP JUMPDEST PUSH8 0xFFFFFFFFFFFFFFFF DUP2 GT PUSH2 0x854 JUMPI PUSH1 0x40 MSTORE JUMP JUMPDEST PUSH4 0x4E487B71 PUSH1 0xE0 SHL PUSH1 0x0 MSTORE PUSH1 0x41 PUSH1 0x4 MSTORE PUSH1 0x24 PUSH1 0x0 REVERT JUMPDEST PUSH1 0x80 DUP2 ADD SWAP1 DUP2 LT PUSH8 0xFFFFFFFFFFFFFFFF DUP3 GT OR PUSH2 0x854 JUMPI PUSH1 0x40 MSTORE JUMP JUMPDEST PUSH1 0x20 DUP2 ADD SWAP1 DUP2 LT PUSH8 0xFFFFFFFFFFFFFFFF DUP3 GT OR PUSH2 0x854 JUMPI PUSH1 0x40 MSTORE JUMP JUMPDEST SWAP1 PUSH1 0x1F DUP1 NOT SWAP2 ADD AND DUP2 ADD SWAP1 DUP2 LT PUSH8 0xFFFFFFFFFFFFFFFF DUP3 GT OR PUSH2 0x854 JUMPI PUSH1 0x40 MSTORE JUMP JUMPDEST SWAP2 SWAP1 SWAP2 PUSH1 0x40 DUP1 MLOAD PUSH2 0x8D4 DUP2 PUSH2 0x86A JUMP JUMPDEST PUSH1 0x41 DUP2 MSTORE PUSH1 0x20 SWAP4 DUP5 DUP3 ADD SWAP6 PUSH1 0x60 SWAP7 DUP8 CALLDATASIZE DUP3 CALLDATACOPY DUP5 MLOAD PUSH2 0x935 PUSH1 0x2C DUP3 DUP11 DUP2 ADD SWAP5 PUSH2 0x925 PUSH6 0xFFFFFFFFFFFF SWAP10 PUSH6 0xFFFFFFFFFFFF PUSH1 0xD0 SHL DUP1 DUP11 PUSH1 0xD0 SHL AND DUP10 MSTORE DUP11 PUSH1 0xD0 SHL AND PUSH1 0x26 DUP6 ADD MSTORE MLOAD DUP1 SWAP3 DUP6 DUP6 ADD SWAP1 PUSH2 0x81D JUMP JUMPDEST DUP2 ADD SUB PUSH1 0xC DUP2 ADD DUP5 MSTORE ADD DUP3 PUSH2 0x8A2 JUMP JUMPDEST PUSH1 0xE0 DUP8 ADD PUSH2 0x943 DUP2 DUP10 PUSH2 0xB1E JUMP JUMPDEST PUSH1 0x24 SWAP4 SWAP2 SWAP4 GT PUSH2 0x727 JUMPI PUSH2 0x969 PUSH16 0xFFFFFFFFFFFFFFFFFFFFFFFFFFFFFFFF NOT SWAP3 DUP11 PUSH2 0xB1E JUMP JUMPDEST PUSH1 0x34 SWAP4 SWAP2 SWAP4 GT PUSH2 0x727 JUMPI DUP12 SWAP5 PUSH2 0x9B2 PUSH1 0x54 SWAP4 DUP4 PUSH1 0x24 DUP16 SWAP6 SWAP8 PUSH2 0x9C2 SWAP9 DUP16 PUSH1 0x14 SWAP1 MLOAD SWAP12 DUP13 SWAP10 DUP11 ADD DUP1 SWAP15 ADDRESS SWAP1 SHL SWAP1 MSTORE ADD CALLDATALOAD AND PUSH1 0x34 DUP9 ADD MSTORE ADD CALLDATALOAD AND PUSH1 0x44 DUP6 ADD MSTORE MLOAD DUP1 SWAP3 DUP6 DUP6 ADD SWAP1 PUSH2 0x81D JUMP JUMPDEST DUP2 ADD SUB PUSH1 0x34 DUP2 ADD DUP5 MSTORE ADD DUP3 PUSH2 0x8A2 JUMP JUMPDEST MLOAD SWAP1 KECCAK256 PUSH1 0x1 PUSH1 0x1 PUSH1 0xA0 SHL SUB DUP7 CALLDATALOAD DUP2 DUP2 AND SWAP4 SWAP3 SWAP1 DUP5 SWAP1 SUB PUSH2 0x727 JUMPI PUSH1 0xC0 PUSH2 0x9F4 PUSH2 0x9ED DUP10 DUP12 ADD DUP12 PUSH2 0xB1E JUMP JUMPDEST CALLDATASIZE SWAP2 PUSH2 0xB51 JUMP JUMPDEST DUP11 DUP2 MLOAD SWAP2 ADD KECCAK256 SWAP9 PUSH2 0xA0A PUSH2 0x9ED DUP14 DUP4 ADD DUP4 PUSH2 0xB1E JUMP JUMPDEST DUP12 DUP2 MLOAD SWAP2 ADD KECCAK256 DUP10 MLOAD SWAP11 DUP13 DUP13 ADD SWAP8 DUP9 MSTORE DUP13 DUP4 ADD CALLDATALOAD DUP12 DUP14 ADD MSTORE DUP14 DUP13 ADD MSTORE PUSH1 0x80 DUP12 ADD MSTORE PUSH1 0x80 DUP2 ADD CALLDATALOAD PUSH1 0xA0 DUP12 ADD MSTORE PUSH1 0xA0 DUP2 ADD CALLDATALOAD DUP3 DUP12 ADD MSTORE ADD CALLDATALOAD PUSH1 0xE0 DUP10 ADD MSTORE PUSH2 0x100 SWAP1 DUP2 DUP10 ADD MSTORE DUP8 MSTORE PUSH2 0x120 DUP8 ADD PUSH8 0xFFFFFFFFFFFFFFFF SWAP8 DUP1 DUP3 LT DUP10 DUP4 GT OR PUSH2 0x854 JUMPI DUP7 SWAP5 DUP3 DUP10 MSTORE DUP2 MLOAD SWAP1 KECCAK256 SWAP3 PUSH2 0x140 DUP3 ADD SWAP4 DUP5 MSTORE PUSH32 0x0 AND PUSH2 0x160 DUP3 ADD MSTORE PUSH2 0x180 CHAINID SWAP2 ADD MSTORE DUP10 DUP2 MSTORE PUSH2 0xAB5 DUP2 PUSH2 0x86A JUMP JUMPDEST MLOAD SWAP1 KECCAK256 SWAP8 DUP6 MLOAD SWAP8 DUP9 ADD SWAP9 DUP10 MSTORE CHAINID DUP7 DUP10 ADD MSTORE ADDRESS SWAP1 DUP9 ADD MSTORE AND PUSH1 0x80 DUP7 ADD MSTORE AND PUSH1 0xA0 DUP5 ADD MSTORE PUSH1 0xA0 DUP4 MSTORE PUSH1 0xC0 DUP4 ADD SWAP2 DUP4 DUP4 LT SWAP1 DUP4 GT OR PUSH2 0x854 JUMPI MSTORE MLOAD SWAP1 KECCAK256 SWAP1 JUMP JUMPDEST PUSH1 0x0 SLOAD PUSH1 0x1 PUSH1 0x1 PUSH1 0xA0 SHL SUB AND CALLER SUB PUSH2 0xB06 JUMPI JUMP JUMPDEST PUSH1 0x40 MLOAD PUSH4 0x118CDAA7 PUSH1 0xE0 SHL DUP2 MSTORE CALLER PUSH1 0x4 DUP3 ADD MSTORE PUSH1 0x24 SWAP1 REVERT JUMPDEST SWAP1 CALLDATALOAD SWAP1 PUSH1 0x1E NOT DUP2 CALLDATASIZE SUB ADD DUP3 SLT ISZERO PUSH2 0x727 JUMPI ADD DUP1 CALLDATALOAD SWAP1 PUSH8 0xFFFFFFFFFFFFFFFF DUP3 GT PUSH2 0x727 JUMPI PUSH1 0x20 ADD SWAP2 DUP2 CALLDATASIZE SUB DUP4 SGT PUSH2 0x727 JUMPI JUMP JUMPDEST SWAP3 SWAP2 SWAP3 PUSH8 0xFFFFFFFFFFFFFFFF DUP3 GT PUSH2 0x854 JUMPI PUSH1 0x40 MLOAD SWAP2 PUSH2 0xB7B PUSH1 0x1F DUP3 ADD PUSH1 0x1F NOT AND PUSH1 0x20 ADD DUP5 PUSH2 0x8A2 JUMP JUMPDEST DUP3 SWAP5 DUP2 DUP5 MSTORE DUP2 DUP4 ADD GT PUSH2 0x727 JUMPI DUP3 DUP2 PUSH1 0x20 SWAP4 DUP5 PUSH1 0x0 SWAP7 ADD CALLDATACOPY ADD ADD MSTORE JUMP JUMPDEST PUSH32 0x0 PUSH1 0x1 PUSH1 0x1 PUSH1 0xA0 SHL SUB AND CALLER SUB PUSH2 0xBCA JUMPI JUMP JUMPDEST PUSH1 0x40 MLOAD PUSH3 0x461BCD PUSH1 0xE5 SHL DUP2 MSTORE PUSH1 0x20 PUSH1 0x4 DUP3 ADD MSTORE PUSH1 0x15 PUSH1 0x24 DUP3 ADD MSTORE PUSH21 0x14D95B99195C881B9BDD08115B9D1C9E541BDA5B9D PUSH1 0x5A SHL PUSH1 0x44 DUP3 ADD MSTORE PUSH1 0x64 SWAP1 REVERT JUMPDEST SWAP2 SWAP1 PUSH1 0x2 SLOAD LT PUSH2 0xD27 JUMPI PUSH2 0xC1E PUSH1 0xE0 DUP4 ADD DUP4 PUSH2 0xB1E JUMP JUMPDEST SWAP1 DUP2 PUSH1 0x34 GT PUSH2 0x727 JUMPI PUSH1 0x33 NOT DUP3 ADD SWAP2 PUSH1 0x4D DUP4 LT PUSH2 0xD0C JUMPI DUP3 PUSH1 0x6 GT PUSH2 0x727 JUMPI PUSH1 0x34 DUP3 ADD CALLDATALOAD SWAP3 PUSH1 0xC GT PUSH2 0x727 JUMPI DUP2 PUSH2 0xCA9 PUSH2 0xCAF SWAP3 PUSH2 0xC6D PUSH1 0x3A PUSH2 0xCB8 SWAP7 ADD CALLDATALOAD SWAP9 DUP10 PUSH1 0xD0 SHR SWAP1 DUP9 PUSH1 0xD0 SHR SWAP1 PUSH2 0x8C4 JUMP JUMPDEST PUSH32 0x19457468657265756D205369676E6564204D6573736167653A0A333200000000 PUSH1 0x0 MSTORE PUSH1 0x1C MSTORE PUSH1 0x3C PUSH1 0x0 KECCAK256 SWAP3 PUSH1 0x40 CALLDATASIZE SWAP3 PUSH1 0x3F NOT ADD SWAP2 ADD PUSH2 0xB51 JUMP JUMPDEST SWAP1 PUSH2 0xD35 JUMP JUMPDEST SWAP1 SWAP3 SWAP2 SWAP3 PUSH2 0xD71 JUMP JUMPDEST PUSH1 0x1 SLOAD PUSH1 0x1 PUSH1 0x1 PUSH1 0xA0 SHL SUB SWAP2 DUP3 AND SWAP2 AND EQ PUSH2 0xD05 JUMPI PUSH1 0x1 JUMPDEST PUSH1 0xFF PUSH1 0x40 MLOAD PUSH2 0xCDE DUP2 PUSH2 0x886 JUMP JUMPDEST PUSH1 0x0 DUP2 MSTORE SWAP5 PUSH6 0xFFFFFFFFFFFF PUSH1 0xD0 SHL AND SWAP3 PUSH6 0xFFFFFFFFFFFF PUSH1 0xA0 SHL SWAP1 PUSH1 0x30 SHR AND SWAP2 AND OR OR SWAP1 JUMP JUMPDEST PUSH1 0x0 PUSH2 0xCD0 JUMP JUMPDEST POP POP POP SWAP1 POP PUSH1 0x40 MLOAD PUSH2 0xD1D DUP2 PUSH2 0x886 JUMP JUMPDEST PUSH1 0x0 DUP2 MSTORE SWAP1 PUSH1 0x1 SWAP1 JUMP JUMPDEST SWAP1 POP PUSH1 0x40 MLOAD PUSH2 0xD1D DUP2 PUSH2 0x886 JUMP JUMPDEST DUP2 MLOAD SWAP2 SWAP1 PUSH1 0x41 DUP4 SUB PUSH2 0xD66 JUMPI PUSH2 0xD5F SWAP3 POP PUSH1 0x20 DUP3 ADD MLOAD SWAP1 PUSH1 0x60 PUSH1 0x40 DUP5 ADD MLOAD SWAP4 ADD MLOAD PUSH1 0x0 BYTE SWAP1 PUSH2 0xDF6 JUMP JUMPDEST SWAP2 SWAP3 SWAP1 SWAP2 SWAP1 JUMP JUMPDEST POP POP PUSH1 0x0 SWAP2 PUSH1 0x2 SWAP2 SWAP1 JUMP JUMPDEST PUSH1 0x4 DUP2 LT ISZERO PUSH2 0xDE0 JUMPI DUP1 PUSH2 0xD83 JUMPI POP POP JUMP JUMPDEST PUSH1 0x1 DUP2 SUB PUSH2 0xD9D JUMPI PUSH1 0x40 MLOAD PUSH4 0xF645EEDF PUSH1 0xE0 SHL DUP2 MSTORE PUSH1 0x4 SWAP1 REVERT JUMPDEST PUSH1 0x2 DUP2 SUB PUSH2 0xDBE JUMPI PUSH1 0x40 MLOAD PUSH4 0xFCE698F7 PUSH1 0xE0 SHL DUP2 MSTORE PUSH1 0x4 DUP2 ADD DUP4 SWAP1 MSTORE PUSH1 0x24 SWAP1 REVERT JUMPDEST PUSH1 0x3 EQ PUSH2 0xDC8 JUMPI POP JUMP JUMPDEST PUSH1 0x24 SWAP1 PUSH1 0x40 MLOAD SWAP1 PUSH4 0x35E2F383 PUSH1 0xE2 SHL DUP3 MSTORE PUSH1 0x4 DUP3 ADD MSTORE REVERT JUMPDEST PUSH4 0x4E487B71 PUSH1 0xE0 SHL PUSH1 0x0 MSTORE PUSH1 0x21 PUSH1 0x4 MSTORE PUSH1 0x24 PUSH1 0x0 REVERT JUMPDEST SWAP2 SWAP1 PUSH32 0x7FFFFFFFFFFFFFFFFFFFFFFFFFFFFFFF5D576E7357A4501DDFE92F46681B20A0 DUP5 GT PUSH2 0xE7A JUMPI SWAP3 PUSH1 0x20 SWAP3 SWAP2 PUSH1 0xFF PUSH1 0x80 SWAP6 PUSH1 0x40 MLOAD SWAP5 DUP6 MSTORE AND DUP5 DUP5 ADD MSTORE PUSH1 0x40 DUP4 ADD MSTORE PUSH1 0x60 DUP3 ADD MSTORE PUSH1 0x0 SWAP3 DUP4 SWAP2 DUP3 DUP1 MSTORE PUSH1 0x1 GAS STATICCALL ISZERO PUSH2 0xE6E JUMPI DUP1 MLOAD PUSH1 0x1 PUSH1 0x1 PUSH1 0xA0 SHL SUB DUP2 AND ISZERO PUSH2 0xE65 JUMPI SWAP2 DUP2 SWAP1 JUMP JUMPDEST POP DUP1 SWAP2 PUSH1 0x1 SWAP2 SWAP1 JUMP JUMPDEST PUSH1 0x40 MLOAD SWAP1 RETURNDATASIZE SWAP1 DUP3 RETURNDATACOPY RETURNDATASIZE SWAP1 REVERT JUMPDEST POP POP POP PUSH1 0x0 SWAP2 PUSH1 0x3 SWAP2 SWAP1 JUMP INVALID LOG2 PUSH5 0x6970667358 0x22 SLT KECCAK256 DUP6 LT 0xC5 PUSH30 0x1D83EA33EEA5D1EBA3B2EB08DB475E55544A42CABCC68D7D86DADA606473 PUSH16 0x6C634300081700330000000000000000 "},"methodIdentifiers":{"addStake(uint32)":"0396cb60","deposit()":"d0e30db0","entryPoint()":"b0d691fe","getDeposit()":"c399ec88","getHashWithZeroSignature((address,uint256,bytes,bytes,bytes32,uint256,bytes32,bytes,bytes),uint48,uint48)":"18120155","maxCostPerUserOp()":"52dd9e1e","owner()":"8da5cb5b","postOp(uint8,bytes,uint256,uint256)":"7c627b21","renounceOwnership()":"715018a6","setMaxCostPerUserOp(uint256)":"14612053","transferOwnership(address)":"f2fde38b","unlockStake()":"bb9fe6bf","updateSigner(address)":"a7ecd37e","validatePaymasterUserOp((address,uint256,bytes,bytes,bytes32,uint256,bytes32,bytes,bytes),bytes32,uint256)":"52b7512c","verifyingSigner()":"23d9ac9b","withdrawStake(address)":"c23a5cea","withdrawTo(address,uint256)":"205c2878"}}}}}