{"contracts/HealthRecordCore.sol":{"HealthRecordCore":{"abi":[{"inputs":[{"internalType":"address","name":"_memberRoleManager","type":"address"}],"stateMutability":"nonpayable","type":"constructor"},{"anonymous":false,"inputs":[{"indexed":true,"internalType":"string","name":"permissionHash","type":"string"},{"indexed":true,"internalType":"address","name":"sharer","type":"address"},{"indexed":true,"internalType":"address","name":"receiver","type":"address"},{"indexed":false,"internalType":"string","name":"recordId","type":"string"},{"indexed":false,"internalType":"uint256","name":"timestamp","type":"uint256"}],"name":"AccessGranted","type":"event"},{"anonymous":false,"inputs":[{"indexed":true,"internalType":"string","name":"permissionHash","type":"string"},{"indexed":true,"internalType":"address","name":"sharer","type":"address"},{"indexed":true,"internalType":"address","name":"receiver","type":"address"},{"indexed":false,"internalType":"string","name":"recordId","type":"string"},{"indexed":false,"internalType":"uint256","name":"timestamp","type":"uint256"}],"name":"AccessRevoked","type":"event"},{"anonymous":false,"inputs":[{"indexed":true,"internalType":"address","name":"oldAdmin","type":"address"},{"indexed":true,"internalType":"address","name":"newAdmin","type":"address"},{"indexed":false,"internalType":"uint256","name":"timestamp","type":"uint256"}],"name":"AdminTransferred","type":"event"},{"anonymous":false,"inputs":[{"indexed":true,"internalType":"string","name":"recordHash","type":"string"},{"indexed":true,"internalType":"address","name":"reviewer","type":"address"},{"indexed":false,"internalType":"enum HealthRecordCore.DisputeSeverity","name":"oldSeverity","type":"uint8"},{"indexed":false,"internalType":"enum HealthRecordCore.DisputeSeverity","name":"newSeverity","type":"uint8"},{"indexed":false,"internalType":"enum HealthRecordCore.DisputeCulpability","name":"oldCulpability","type":"uint8"},{"indexed":false,"internalType":"enum HealthRecordCore.DisputeCulpability","name":"newCulpability","type":"uint8"},{"indexed":false,"internalType":"uint256","name":"timestamp","type":"uint256"}],"name":"DisputeModification","type":"event"},{"anonymous":false,"inputs":[{"indexed":true,"internalType":"string","name":"recordHash","type":"string"},{"indexed":true,"internalType":"address","name":"reactor","type":"address"},{"indexed":true,"internalType":"address","name":"reviewer","type":"address"},{"indexed":false,"internalType":"bool","name":"supportsDispute","type":"bool"},{"indexed":false,"internalType":"uint256","name":"timestamp","type":"uint256"}],"name":"DisputeReaction","type":"event"},{"anonymous":false,"inputs":[{"indexed":true,"internalType":"string","name":"recordId","type":"string"},{"indexed":true,"internalType":"string","name":"recordHash","type":"string"},{"indexed":true,"internalType":"address","name":"subject","type":"address"},{"indexed":false,"internalType":"address","name":"createdBy","type":"address"},{"indexed":false,"internalType":"uint256","name":"timestamp","type":"uint256"}],"name":"RecordAnchored","type":"event"},{"anonymous":false,"inputs":[{"indexed":true,"internalType":"string","name":"recordId","type":"string"},{"indexed":true,"internalType":"string","name":"recordHash","type":"string"},{"indexed":true,"internalType":"address","name":"reviewer","type":"address"},{"indexed":false,"internalType":"enum HealthRecordCore.ReviewType","name":"reviewType","type":"uint8"},{"indexed":false,"internalType":"enum HealthRecordCore.DisputeSeverity","name":"severity","type":"uint8"},{"indexed":false,"internalType":"enum HealthRecordCore.DisputeCulpability","name":"culpability","type":"uint8"},{"indexed":false,"internalType":"uint256","name":"timestamp","type":"uint256"}],"name":"RecordReviewed","type":"event"},{"anonymous":false,"inputs":[{"indexed":true,"internalType":"string","name":"recordHash","type":"string"},{"indexed":true,"internalType":"address","name":"reviewer","type":"address"},{"indexed":false,"internalType":"enum HealthRecordCore.ReviewType","name":"reviewType","type":"uint8"},{"indexed":false,"internalType":"uint256","name":"timestamp","type":"uint256"}],"name":"ReviewRetracted","type":"event"},{"inputs":[{"internalType":"string","name":"","type":"string"}],"name":"accessPermissions","outputs":[{"internalType":"string","name":"permissionHash","type":"string"},{"internalType":"address","name":"sharer","type":"address"},{"internalType":"address","name":"receiver","type":"address"},{"internalType":"string","name":"recordId","type":"string"},{"internalType":"uint256","name":"grantedAt","type":"uint256"},{"internalType":"uint256","name":"revokedAt","type":"uint256"},{"internalType":"bool","name":"isActive","type":"bool"},{"internalType":"bool","name":"exists","type":"bool"}],"stateMutability":"view","type":"function"},{"inputs":[],"name":"admin","outputs":[{"internalType":"address","name":"","type":"address"}],"stateMutability":"view","type":"function"},{"inputs":[{"internalType":"string","name":"recordHash","type":"string"},{"internalType":"string","name":"recordId","type":"string"},{"internalType":"address","name":"subject","type":"address"}],"name":"anchorRecord","outputs":[],"stateMutability":"nonpayable","type":"function"},{"inputs":[{"internalType":"string","name":"","type":"string"}],"name":"anchoredRecords","outputs":[{"internalType":"string","name":"recordHash","type":"string"},{"internalType":"string","name":"recordId","type":"string"},{"internalType":"address","name":"subject","type":"address"},{"internalType":"uint256","name":"createdAt","type":"uint256"},{"internalType":"address","name":"createdBy","type":"address"},{"internalType":"bool","name":"exists","type":"bool"}],"stateMutability":"view","type":"function"},{"inputs":[{"internalType":"string","name":"permissionHash","type":"string"}],"name":"checkAccess","outputs":[{"internalType":"bool","name":"isActive","type":"bool"},{"internalType":"address","name":"sharer","type":"address"},{"internalType":"address","name":"receiver","type":"address"},{"internalType":"string","name":"recordId","type":"string"},{"internalType":"uint256","name":"grantedAt","type":"uint256"},{"internalType":"uint256","name":"revokedAt","type":"uint256"}],"stateMutability":"view","type":"function"},{"inputs":[{"internalType":"string","name":"","type":"string"},{"internalType":"address","name":"","type":"address"},{"internalType":"uint256","name":"","type":"uint256"}],"name":"disputeReactions","outputs":[{"internalType":"address","name":"reactor","type":"address"},{"internalType":"bool","name":"supportsDispute","type":"bool"},{"internalType":"uint256","name":"timestamp","type":"uint256"}],"stateMutability":"view","type":"function"},{"inputs":[{"internalType":"string","name":"recordHash","type":"string"},{"internalType":"uint8","name":"severity","type":"uint8"},{"internalType":"uint8","name":"culpability","type":"uint8"},{"internalType":"string","name":"notes","type":"string"}],"name":"disputeRecord","outputs":[],"stateMutability":"nonpayable","type":"function"},{"inputs":[{"internalType":"address","name":"","type":"address"},{"internalType":"uint256","name":"","type":"uint256"}],"name":"disputesByUser","outputs":[{"internalType":"string","name":"","type":"string"}],"stateMutability":"view","type":"function"},{"inputs":[{"internalType":"string","name":"recordHash","type":"string"}],"name":"getAnchoredRecord","outputs":[{"internalType":"string","name":"recordId","type":"string"},{"internalType":"address","name":"subject","type":"address"},{"internalType":"uint256","name":"createdAt","type":"uint256"},{"internalType":"address","name":"createdBy","type":"address"},{"internalType":"bool","name":"exists","type":"bool"}],"stateMutability":"view","type":"function"},{"inputs":[{"internalType":"string","name":"recordHash","type":"string"},{"internalType":"address","name":"disputer","type":"address"}],"name":"getDisputeReactionStats","outputs":[{"internalType":"uint256","name":"supportsCount","type":"uint256"},{"internalType":"uint256","name":"opposesCount","type":"uint256"}],"stateMutability":"view","type":"function"},{"inputs":[{"internalType":"string","name":"recordHash","type":"string"},{"internalType":"address","name":"disputer","type":"address"}],"name":"getDisputeReactions","outputs":[{"components":[{"internalType":"address","name":"reactor","type":"address"},{"internalType":"bool","name":"supportsDispute","type":"bool"},{"internalType":"uint256","name":"timestamp","type":"uint256"}],"internalType":"struct HealthRecordCore.Reaction[]","name":"","type":"tuple[]"}],"stateMutability":"view","type":"function"},{"inputs":[{"internalType":"string","name":"recordId","type":"string"}],"name":"getHashesByRecordId","outputs":[{"internalType":"string[]","name":"","type":"string[]"}],"stateMutability":"view","type":"function"},{"inputs":[{"internalType":"address","name":"receiver","type":"address"}],"name":"getPermissionsByReceiver","outputs":[{"internalType":"string[]","name":"","type":"string[]"}],"stateMutability":"view","type":"function"},{"inputs":[{"internalType":"address","name":"sharer","type":"address"}],"name":"getPermissionsBySharer","outputs":[{"internalType":"string[]","name":"","type":"string[]"}],"stateMutability":"view","type":"function"},{"inputs":[{"internalType":"string","name":"recordHash","type":"string"}],"name":"getRecordSubject","outputs":[{"internalType":"address","name":"","type":"address"}],"stateMutability":"view","type":"function"},{"inputs":[{"internalType":"address","name":"subject","type":"address"}],"name":"getRecordsAboutSubject","outputs":[{"internalType":"string[]","name":"","type":"string[]"}],"stateMutability":"view","type":"function"},{"inputs":[{"internalType":"string","name":"recordHash","type":"string"}],"name":"getReviewStats","outputs":[{"internalType":"uint256","name":"activeVerifications","type":"uint256"},{"internalType":"uint256","name":"activeDisputes","type":"uint256"},{"internalType":"uint256","name":"retractedCount","type":"uint256"}],"stateMutability":"view","type":"function"},{"inputs":[{"internalType":"string","name":"recordHash","type":"string"}],"name":"getReviews","outputs":[{"components":[{"internalType":"address","name":"reviewer","type":"address"},{"internalType":"enum HealthRecordCore.ReviewType","name":"reviewType","type":"uint8"},{"internalType":"enum HealthRecordCore.DisputeSeverity","name":"severity","type":"uint8"},{"internalType":"enum HealthRecordCore.DisputeCulpability","name":"culpability","type":"uint8"},{"internalType":"uint256","name":"timestamp","type":"uint256"},{"internalType":"string","name":"notes","type":"string"},{"internalType":"bool","name":"isActive","type":"bool"}],"internalType":"struct HealthRecordCore.Review[]","name":"","type":"tuple[]"}],"stateMutability":"view","type":"function"},{"inputs":[{"internalType":"address","name":"sharer","type":"address"}],"name":"getSharerStats","outputs":[{"internalType":"uint256","name":"total","type":"uint256"},{"internalType":"uint256","name":"active","type":"uint256"}],"stateMutability":"view","type":"function"},{"inputs":[],"name":"getTotalPermissions","outputs":[{"internalType":"uint256","name":"","type":"uint256"}],"stateMutability":"view","type":"function"},{"inputs":[],"name":"getTotalStats","outputs":[{"internalType":"uint256","name":"totalAnchored","type":"uint256"},{"internalType":"uint256","name":"totalReviewCount","type":"uint256"},{"internalType":"uint256","name":"totalPermissionCount","type":"uint256"}],"stateMutability":"view","type":"function"},{"inputs":[{"internalType":"address","name":"user","type":"address"}],"name":"getUserDisputes","outputs":[{"internalType":"string[]","name":"","type":"string[]"}],"stateMutability":"view","type":"function"},{"inputs":[{"internalType":"string","name":"recordHash","type":"string"},{"internalType":"address","name":"user","type":"address"}],"name":"getUserReview","outputs":[{"internalType":"bool","name":"exists","type":"bool"},{"internalType":"enum HealthRecordCore.ReviewType","name":"reviewType","type":"uint8"},{"internalType":"uint256","name":"timestamp","type":"uint256"},{"internalType":"string","name":"notes","type":"string"},{"internalType":"bool","name":"isActive","type":"bool"}],"stateMutability":"view","type":"function"},{"inputs":[{"internalType":"address","name":"user","type":"address"}],"name":"getUserReviewHistory","outputs":[{"internalType":"uint256","name":"totalVerifications","type":"uint256"},{"internalType":"uint256","name":"totalDisputes","type":"uint256"}],"stateMutability":"view","type":"function"},{"inputs":[{"internalType":"address","name":"user","type":"address"}],"name":"getUserVerifications","outputs":[{"internalType":"string[]","name":"","type":"string[]"}],"stateMutability":"view","type":"function"},{"inputs":[{"internalType":"string","name":"permissionHash","type":"string"},{"internalType":"string","name":"recordId","type":"string"},{"internalType":"address","name":"receiver","type":"address"}],"name":"grantAccess","outputs":[],"stateMutability":"nonpayable","type":"function"},{"inputs":[{"internalType":"string","name":"","type":"string"},{"internalType":"address","name":"","type":"address"},{"internalType":"address","name":"","type":"address"}],"name":"hasReactedToDispute","outputs":[{"internalType":"bool","name":"","type":"bool"}],"stateMutability":"view","type":"function"},{"inputs":[{"internalType":"string","name":"","type":"string"},{"internalType":"address","name":"","type":"address"}],"name":"hasReviewed","outputs":[{"internalType":"bool","name":"","type":"bool"}],"stateMutability":"view","type":"function"},{"inputs":[{"internalType":"string","name":"recordHash","type":"string"},{"internalType":"address","name":"user","type":"address"}],"name":"isSubject","outputs":[{"internalType":"bool","name":"","type":"bool"}],"stateMutability":"view","type":"function"},{"inputs":[],"name":"memberRoleManager","outputs":[{"internalType":"contract MemberRoleManagerInterface","name":"","type":"address"}],"stateMutability":"view","type":"function"},{"inputs":[{"internalType":"string","name":"recordHash","type":"string"},{"internalType":"uint8","name":"newSeverity","type":"uint8"},{"internalType":"uint8","name":"newCulpability","type":"uint8"}],"name":"modifyDispute","outputs":[],"stateMutability":"nonpayable","type":"function"},{"inputs":[{"internalType":"address","name":"","type":"address"},{"internalType":"uint256","name":"","type":"uint256"}],"name":"permissionsByReceiver","outputs":[{"internalType":"string","name":"","type":"string"}],"stateMutability":"view","type":"function"},{"inputs":[{"internalType":"address","name":"","type":"address"},{"internalType":"uint256","name":"","type":"uint256"}],"name":"permissionsBySharer","outputs":[{"internalType":"string","name":"","type":"string"}],"stateMutability":"view","type":"function"},{"inputs":[{"internalType":"string","name":"recordHash","type":"string"},{"internalType":"address","name":"disputer","type":"address"},{"internalType":"bool","name":"supportsDispute","type":"bool"}],"name":"reactToDispute","outputs":[],"stateMutability":"nonpayable","type":"function"},{"inputs":[{"internalType":"string","name":"","type":"string"},{"internalType":"uint256","name":"","type":"uint256"}],"name":"recordHashesByRecordId","outputs":[{"internalType":"string","name":"","type":"string"}],"stateMutability":"view","type":"function"},{"inputs":[{"internalType":"string","name":"","type":"string"},{"internalType":"uint256","name":"","type":"uint256"}],"name":"recordReviews","outputs":[{"internalType":"address","name":"reviewer","type":"address"},{"internalType":"enum HealthRecordCore.ReviewType","name":"reviewType","type":"uint8"},{"internalType":"enum HealthRecordCore.DisputeSeverity","name":"severity","type":"uint8"},{"internalType":"enum HealthRecordCore.DisputeCulpability","name":"culpability","type":"uint8"},{"internalType":"uint256","name":"timestamp","type":"uint256"},{"internalType":"string","name":"notes","type":"string"},{"internalType":"bool","name":"isActive","type":"bool"}],"stateMutability":"view","type":"function"},{"inputs":[{"internalType":"address","name":"","type":"address"},{"internalType":"uint256","name":"","type":"uint256"}],"name":"recordsAboutSubject","outputs":[{"internalType":"string","name":"","type":"string"}],"stateMutability":"view","type":"function"},{"inputs":[{"internalType":"string","name":"recordHash","type":"string"}],"name":"retractReview","outputs":[],"stateMutability":"nonpayable","type":"function"},{"inputs":[{"internalType":"string","name":"permissionHash","type":"string"}],"name":"revokeAccess","outputs":[],"stateMutability":"nonpayable","type":"function"},{"inputs":[{"internalType":"address","name":"_memberRoleManager","type":"address"}],"name":"setMemberRoleManager","outputs":[],"stateMutability":"nonpayable","type":"function"},{"inputs":[],"name":"totalAnchoredRecords","outputs":[{"internalType":"uint256","name":"","type":"uint256"}],"stateMutability":"view","type":"function"},{"inputs":[],"name":"totalPermissions","outputs":[{"internalType":"uint256","name":"","type":"uint256"}],"stateMutability":"view","type":"function"},{"inputs":[],"name":"totalReviews","outputs":[{"internalType":"uint256","name":"","type":"uint256"}],"stateMutability":"view","type":"function"},{"inputs":[{"internalType":"address","name":"newAdmin","type":"address"}],"name":"transferAdmin","outputs":[],"stateMutability":"nonpayable","type":"function"},{"inputs":[{"internalType":"string","name":"","type":"string"},{"internalType":"address","name":"","type":"address"}],"name":"userReviewIndex","outputs":[{"internalType":"uint256","name":"","type":"uint256"}],"stateMutability":"view","type":"function"},{"inputs":[{"internalType":"address","name":"","type":"address"},{"internalType":"uint256","name":"","type":"uint256"}],"name":"verificationsByUser","outputs":[{"internalType":"string","name":"","type":"string"}],"stateMutability":"view","type":"function"},{"inputs":[{"internalType":"string","name":"recordHash","type":"string"},{"internalType":"string","name":"notes","type":"string"}],"name":"verifyRecord","outputs":[],"stateMutability":"nonpayable","type":"function"}],"evm":{"bytecode":{"linkReferences":{},"object":"608034620000d857601f62003e4638819003918201601f19168301916001600160401b03831184841017620000dd57808492602094604052833981010312620000d857516001600160a01b03811690819003620000d8578015620000895760018060a01b03199081600054161760005533906001541617600155604051613d529081620000f48239f35b60405162461bcd60e51b815260206004820152602160248201527f496e76616c6964204d656d626572526f6c654d616e61676572206164647265736044820152607360f81b6064820152608490fd5b600080fd5b634e487b7160e01b600052604160045260246000fdfe6080604052600436101561001257600080fd5b60e0600035811c908163036351701461321957816310a0e88a14612f855781631469fab714612ef65781631537070314612ecd5781631655408d14612dbb57816319c6195314612a9f5781631af43c91146126045781631cf8cbe8146125e6578163291c2b16146125975781632978465d1461243a5781632ec1ca8a1461236f578163328c5aa11461238d578163378115341461236f5781633935b07614611fca5781633a77956814611f7d5781633aaaaf8814611ea75781633cfbc7cb14611d985781633de2e8e9146119895781633ecd54be1461183857816347580b56146117eb5781636b032610146116f957816375829def1461167e5781637ea79e9c146115c457816380fcd8171461158357816381c86b33146114ea5781638625d3841461144f57816386564c8e1461140857816386c097f714611379578163889a7eee146112a75781639e90e34a14610dea578163a065361114610d9d578163a5a6958e14610d47578163ad6f028114610c73578163b10e4a0b14610ab2578163b5d3bc05146109dc578163bed6e79e1461098f578163bfb0a55b14610900578163c542ef4014610871578163dd0bc0821461081a578163e0f3e86e146107de578163e2367890146107c0578163e589425e1461075a578163f25b7f45146106cb578163f6cc55f9146105b657508063f851a4401461058d578063fb310c591461025f5763fc5cbf1d1461022457600080fd5b3461025a57600036600319011261025a5760095460115460055460408051938452602084019290925290820152606090f35b0390f35b600080fd5b3461025a5760208060031936011261025a576004356001600160401b03811161025a57610290903690600401613486565b60405190805160ff6006858401926102a981878661343e565b850194868160029788815203019020015460081c16156105485760ff6006604051868186516102d981838961343e565b8101888152030190200154161561051157600192936040519183516102ff81858461343e565b830192868452858060a01b03958184889383970301902001541633036104cc5760036103a6836103b693600660405183818d8c5161033e81848961343e565b820190815203019020019860ff19998a815416905560405160058a5161036581848761343e565b8201918d8352858142940301902001558a60405184818c5161038881838961343e565b81018481520301902001541699604051809481938b5192839161343e565b82019081520301902001936137f0565b9260405192604084526000958254926103ce846132c0565b93846040880152606092600182169182600014610485575050600114610423575b50505050907f24303533397c7c9c44f2c956200064d35c3459320ddcc9efeea95e384763bceb9142908201528033940390a4005b909396506000528560002092866000945b84861061047157505050509082016060019390507f24303533397c7c9c44f2c956200064d35c3459320ddcc9efeea95e384763bceb8680806103ef565b805487870184015294019387908301610434565b92509250507f24303533397c7c9c44f2c956200064d35c3459320ddcc9efeea95e384763bceb9594975060609392501682840152151560051b8201019390918680806103ef565b60405162461bcd60e51b815260048101839052601a60248201527f4f6e6c7920746865207368617265722063616e207265766f6b650000000000006044820152606490fd5b60405162461bcd60e51b815260048101859052600f60248201526e105b1c9958591e481c995d9bdad959608a1b6044820152606490fd5b60405162461bcd60e51b815260048101859052601960248201527f5065726d697373696f6e20646f6573206e6f74206578697374000000000000006044820152606490fd5b3461025a57600036600319011261025a576001546040516001600160a01b039091168152602090f35b3461025a57602036600319011261025a576004356001600160401b03811161025a5760206105eb6105fe923690600401613486565b816040519382858094519384920161343e565b810160028152030190209060405161061581613330565b61061e83613388565b815260018301546001600160a01b0390811660208301908152600285015482166040840190815294916106bc91908061065960038601613388565b9283606088015260048601549687608082015260066005880154978860a084015201549860ff808b1615159a8b60c085015260081c161515910152511696511660405196879687526020870152604086015260c0606086015260c0850190613461565b91608084015260a08301520390f35b3461025a5760208060031936011261025a576001600160a01b036106ed613266565b1660005260046020526040600020805461070681613810565b916107146040519384613367565b81835260208301906000526020600020936000915b83831061073e576040518061025687826134fc565b600182819261074c89613388565b815201960192019194610729565b3461025a57602061078261076d3661363e565b9290816040519382858094519384920161343e565b8101600881520301902090815481101561025a576107a66107ac9161025693613292565b9061342d565b604051918291602083526020830190613461565b3461025a57600036600319011261025a576020601154604051908152f35b3461025a5760206107f161076d36613560565b8101600c8152030190209060018060a01b03166000526020526020604060002054604051908152f35b3461025a57602036600319011261025a57610833613266565b6001546001600160a01b03919061084d9083163314613b9c565b16610859811515613bd5565b6001600160601b0360a01b6000541617600055600080f35b3461025a5760208060031936011261025a576001600160a01b03610893613266565b166000526007602052604060002080546108ac81613810565b916108ba6040519384613367565b81835260208301906000526020600020936000915b8383106108e4576040518061025687826134fc565b60018281926108f289613388565b8152019601920191946108cf565b3461025a5760208060031936011261025a576001600160a01b03610922613266565b1660005260106020526040600020805461093b81613810565b916109496040519384613367565b81835260208301906000526020600020936000915b838310610973576040518061025687826134fc565b600182819261098189613388565b81520196019201919461095e565b3461025a57604036600319011261025a576109a8613266565b6001600160a01b0316600090815260046020526040902080546024359081101561025a576107a66107ac9161025693613292565b3461025a57602036600319011261025a576004356001600160401b03811161025a57610a1460206105eb610a99933690600401613486565b81016006815203019020604051610a2a81613315565b610a3382613388565b815260a0610a4360018401613388565b92836020840152600180831b0390816002820154169384604082015260ff6004600384015493846060850152015493841693846080840152851c161515938491015260405195869560a0875260a0870190613461565b9360208601526040850152606084015260808301520390f35b3461025a5760208060031936011261025a576004356001600160401b03811161025a57610ae3903690600401613486565b90604051825190828181860193610afb81838761343e565b8101600b81520301902033600052825260ff6040600020541615610c375760405182818551610b2b81838761343e565b8101600c815203019020336000528252610b6560406000205460405184818751610b5681838961343e565b8101600a81520301902061366f565b5090600382019081549160ff831615610bfe5791610b9d85610bc3959360ff9586198095169055604051809381928b5192839161343e565b8101600b81520301902033600052855260406000209081541690555460a01c16926137f0565b90610bd160405180946135fb565b42908301527f6bc31bfb9ff73229da0fa40a8ab549b0579fa1a8aa5097d6c42c758ad695618260403393a3005b60405162461bcd60e51b8152600481018690526011602482015270105b1c9958591e481c995d1c9858dd1959607a1b6044820152606490fd5b60405162461bcd60e51b8152600481018390526014602482015273139bc81c995d9a595dc81d1bc81c995d1c9858dd60621b6044820152606490fd5b3461025a5760208060031936011261025a576004356001600160401b03811161025a57610ca4903690600401613486565b6040519060ff6004825193858181860196610cc081838a61343e565b81016006815203019020015460a01c1615610d0a57600290610cea6040519384925192839161343e565b82019160068352838160018060a01b039403019020015416604051908152f35b60405162461bcd60e51b8152600481018490526015602482015274149958dbdc9908191bd95cc81b9bdd08195e1a5cdd605a1b6044820152606490fd5b3461025a57610d91610d61610d5b36613560565b90613c13565b929491610d7b6040519687961515875260208701906135fb565b604085015260a0606085015260a0840190613461565b90151560808301520390f35b3461025a57604036600319011261025a57610db6613266565b6001600160a01b0316600090815260076020526040902080546024359081101561025a576107a66107ac9161025693613292565b3461025a57606036600319011261025a576004356001600160401b03811161025a57610e1a903690600401613486565b610e2261327c565b906044359081151580920361025a576000546040516345ecd02f60e01b8152336004820152602092916001600160a01b03908116916024919085818481875afa80156111f157610e7a9160009161128a575b50613b45565b60405192610eae60ff60048751968981818b0199610e9981838d61343e565b81016006815203019020015460a01c1661368b565b8160405187818851610ec181838b61343e565b8101600b81520301902098169788600052865260ff60406000205416156112465760405186818751610ef481838a61343e565b8101600c815203019020886000528652610f28610f2260406000205460405189818a51610b5681838d61343e565b50613abf565b868101516002811015611231576001036111fd57610f9991610f5060c089930151151561375c565b6040518751610f7b9160019185908290610f6b81838e61343e565b8101600681520301902001613388565b906040518080958194630286b6ab60e31b8352339060048401613883565b03915afa80156111f157610fb5916000916111c4575b506138ab565b8633146111825760405185818651610fce81838961343e565b8101600e815203019020876000528552604060002033600052855260ff6040600020541661113e576040518581865161100881838961343e565b8101600d8152030190208760005285526040600020906040519061102b826132fa565b338252868201918883526040810193428552805490600160401b821015611129579061105c91600182018155613622565b9590956111155750518454925160ff60a01b90151560a01b166001600160a81b0319909316911660ff60a01b1916171782556110e193926110b19286926001905191015560405180938192865192839161343e565b8101600e81520301902085600052835260406000203360005283526040600020600160ff198254161790556137f0565b9060405192835242908301527fad3ed72ffd0de1372034654a13d68aaf09e3980d9fd90226d703b6ce84bec0d860403393a4005b634e487b7160e01b60005260006004526000fd5b86634e487b7160e01b60005260416004526000fd5b60405162461bcd60e51b815260048101869052601f818401527f416c7265616479207265616374656420746f20746869732064697370757465006044820152606490fd5b606482866040519162461bcd60e51b83528160048401528201527f43616e6e6f7420726561637420746f20796f7572206f776e20646973707574656044820152fd5b6111e49150873d89116111ea575b6111dc8183613367565b810190613827565b89610faf565b503d6111d2565b6040513d6000823e3d90fd5b60405162461bcd60e51b815260048101889052600d818601526c4e6f742061206469737075746560981b6044820152606490fd5b84634e487b7160e01b60005260216004526000fd5b60405162461bcd60e51b815260048101879052601c818501527f4e6f20646973707574652066726f6d20746869732061646472657373000000006044820152606490fd5b6112a19150873d89116111ea576111dc8183613367565b89610e74565b3461025a576020906112d06112bb3661363e565b9390816040519382858094519384920161343e565b8101600a815203019020805483101561025a5761135a926112f09161366f565b509061136d82549260018101549260ff600361130e60028501613388565b930154169360405196879660018060a01b03811688526113376020890160ff8360a01c166135fb565b61134a6040890160ff8360a81c16613608565b60ff606089019160b01c16613615565b60808601528060a0860152840190613461565b90151560c08301520390f35b3461025a5760208060031936011261025a576001600160a01b0361139b613266565b166000526003602052604060002080546113b481613810565b916113c26040519384613367565b81835260208301906000526020600020936000915b8383106113ec576040518061025687826134fc565b60018281926113fa89613388565b8152019601920191946113d7565b3461025a57602036600319011261025a576001600160a01b03611429613266565b16600052600f602052604080600020546010602052816000205482519182526020820152f35b3461025a57606036600319011261025a576004356001600160401b03811161025a5761147f903690600401613486565b61148761327c565b6001600160a01b03604435818116939084900361025a5760206114b791816040519382858094519384920161343e565b8101600e8152030190209116600052602052604060002090600052602052602060ff604060002054166040519015158152f35b3461025a5760208060031936011261025a576004356001600160401b03811161025a57816105eb61151f923690600401613486565b81016008815203019020805461153481613810565b916115426040519384613367565b8183526000908152838120938084015b838310611567576040518061025687826134fc565b600182819261157589613388565b815201960192019194611552565b3461025a57602061159661076d36613560565b8101600b8152030190209060018060a01b0316600052602052602060ff604060002054166040519015158152f35b3461025a57602036600319011261025a576004356001600160401b03811161025a576115fc60206105eb61164f933690600401613486565b8101600681520301902061160f81613388565b9060ff61161e60018301613388565b60018060a01b03806002850154169361165d600460038301549201549360405198899860c08a5260c08a0190613461565b9088820360208a0152613461565b94604087015260608601528116608085015260a01c16151560a08301520390f35b3461025a57602036600319011261025a57611697613266565b6001546001600160a01b03808216926116b1338514613b9c565b1680926116bf821515613bd5565b7f38df5fa0f7fef0d515ca1f5388cb5790ac5885d5fca8d05d9f943e563c33a4b36020604051428152a36001600160a01b03191617600155005b3461025a5760208060031936011261025a57611713613266565b6001600160a01b031660009081526003825260409020805461173481613810565b916117426040519384613367565b8183526000908152838120848085015b8484106117cd57508451600086815b81518110156117be5760ff60066117908761177c8587613b88565b51816040519382858094519384920161343e565b810160028152030190200154166117aa575b600101611761565b916117b6600191613a82565b9290506117a2565b50506040928351928352820152f35b60019182916117db85613388565b8152019201920191908590611752565b3461025a57604036600319011261025a57611804613266565b6001600160a01b03166000908152600f6020526040902080546024359081101561025a576107a66107ac9161025693613292565b3461025a5760208060031936011261025a576004356001600160401b03811161025a57611869903690600401613486565b6000809261188781600094816040519382858094519384920161343e565b8101600a815203019020805461189c81613810565b916118aa6040519384613367565b8183526000908152838120848085015b84841061196a5750505050506000925b81518410156119525760c06118df8584613b88565b5101511561193f57826118f28584613b88565b5101516002811015611929576119165761190d600191613a82565b935b01926118ca565b9294611923600191613a82565b9561190f565b634e487b7160e01b600052602160045260246000fd5b929361194c600191613a82565b9461190f565b60408051918252602082018790528101859052606090f35b60019160049161197985613abf565b81520192019201919085906118ba565b3461025a57604036600319011261025a576001600160401b0360043581811161025a576119ba903690600401613486565b602491823590811161025a576119d4903690600401613486565b60005460405163cb261a0360e01b81523360048201526020946001600160a01b0392831693929186818381885afa80156111f157611a1a91600091611d7b575b5061383f565b60405191611a3960ff60048851958a81818c0198610e9981838c61343e565b611a50600160405189818a51610f6b81838b61343e565b94876040518092630286b6ab60e31b82528180611a71338c60048401613883565b03915afa80156111f157611a8c91600091611d6457506138ab565b60405187818851611a9e81838961343e565b8101600b81520301902033600052875260ff60406000205416611d205760405187818851611acd81838961343e565b8101600a815203019020549360405188818951611aeb81838a61343e565b8101600a8152030190209160405193611b038561334c565b338552898501600081526040860160008152606087019160008352608088019442865260a0890196875260c089019760018952805490600160401b8210156111295790611b559160018201815561366f565b999099611d0b575116885491816001600160601b0360a01b8416178a55516002811015611cf6576001600160a81b03199092161760a09190911b60ff60a01b16178755516004811015611ce157611bac90876137a8565b51906006821015611ccd5750898996611c028760038498611bec8e99611ccb9e99611bdc611c459a600f9f6137cc565b5160018601555160028501613943565b51151591019060ff801983541691151516179055565b60405182818a51611c1481838761343e565b8101600b8152030190203360005282526040600020600160ff19825416179055604051809381928a5192839161343e565b8101600c815203019020336000528352604060002055611c66601154613a82565b601155611c7b611c75856137f0565b916137f0565b6040519160008352600084840152600060408401524260608401527f7113f0bf6c156de91047bc1021122f5e7103953f26c0628fdc1910ea15794b5860803394a433600052526040600020613a55565b005b634e487b7160e01b60009081526021600452fd5b82634e487b7160e01b60005260216004526000fd5b85634e487b7160e01b60005260216004526000fd5b85634e487b7160e01b60005260006004526000fd5b60405162461bcd60e51b815260048101889052601c818401527f416c72656164792072657669657765642074686973207265636f7264000000006044820152606490fd5b6111e49150893d8b116111ea576111dc8183613367565b611d929150883d8a116111ea576111dc8183613367565b88611a14565b3461025a57611da636613560565b6000806040518481809651611dc1816020998a80960161343e565b8101600d81520301902060018060a01b0380941660005284526040600020805490611deb82613810565b94611df96040519687613367565b828652600091825286822090878088015b858510611e69575087600087895b8351831015611e5b5784611e2c8486613b88565b51015115611e4857611e3f600191613a82565b925b0191611e18565b9190611e55600191613a82565b91611e41565b604091858351928352820152f35b600191600291604051611e7b816132fa565b60ff8754878116835260a01c161515838201528487015460408201528152019301930192918890611e0a565b3461025a57602036600319011261025a57600435906001600160401b03821161025a57611ee060206105eb611f42943690600401613486565b81016002815203019020611ef381613388565b9160ff60018060a01b0392836001820154169360028201541690611f5a611f1c60038301613388565b9560048301549660066005850154940154946040519a8b9a610100808d528c0190613461565b9260208b015260408a015288820360608a0152613461565b94608087015260a0860152818116151560c086015260081c161515908301520390f35b3461025a57604036600319011261025a57611f96613266565b6001600160a01b0316600090815260036020526040902080546024359081101561025a576107a66107ac9161025693613292565b3461025a57611fd8366135a1565b6000546040516345ecd02f60e01b81523360048201526001600160a01b03956020959390929091908716908681602481855afa80156111f157612022916000916123585750613b45565b856040518092630286b6ab60e31b82528180612042338b60048401613883565b03915afa80156111f15761205d9160009161233b57506138ab565b8251156122f6578590612072855115156138f7565b169485156122b15733861461226c576040519060ff600685519388818189019661209d81838a61343e565b81016002815203019020015460081c1661222757604051906120be82613330565b848252868201338152604083018981526060840190888252608085019242845260a08601946000865260c087019860018a52870197600189528c8b6040518093819251809261210c9261343e565b8101600281520301902096516121229088613943565b8060018801925116916001600160601b0360a01b9283825416179055600287019251169082541617905551600384019061215b91613943565b5160048301555160058201556006019151151561218490839060ff801983541691151516179055565b51151581549060081b61ff00169061ff0019161790553360005260038352806040600020906121b291613a55565b8360005260048352806040600020906121ca91613a55565b6005546121d690613a82565b6005556121e2906137f0565b906040519060408252604082016121f891613461565b924290820152803393037f4e9b2250dc310298285671060eeb083837adb673cedb4fcff8837a53196e885f91a4005b60405162461bcd60e51b815260048101879052601960248201527f5065726d697373696f6e20616c726561647920657869737473000000000000006044820152606490fd5b60405162461bcd60e51b815260048101869052601a60248201527f43616e6e6f74207368617265207769746820796f757273656c660000000000006044820152606490fd5b60405162461bcd60e51b815260048101869052601f60248201527f526563656976657220616464726573732063616e6e6f74206265207a65726f006044820152606490fd5b60405162461bcd60e51b815260048101869052601f60248201527f5065726d697373696f6e20686173682063616e6e6f7420626520656d707479006044820152606490fd5b6123529150873d89116111ea576111dc8183613367565b88610faf565b6112a19150883d8a116111ea576111dc8183613367565b3461025a57600036600319011261025a576020600554604051908152f35b3461025a57606036600319011261025a576004356001600160401b03811161025a576123bd903690600401613486565b6123c561327c565b6123e1602060443593816040519382858094519384920161343e565b8101600d81520301902060018060a01b038092166000526020526040600020805483101561025a5760609261241591613622565b5060ff6001825492015491604051938116845260a01c16151560208301526040820152f35b3461025a5760208060031936011261025a576004356001600160401b03811161025a57816105eb61246f923690600401613486565b8101600a81520301902080549161248583613810565b926124936040519485613367565b8084528184018093600052826000206000915b8383106125745750505050604051928184019082855251809152604084019160408260051b86010193926000965b8388106124e15786860387f35b90919293948380600192603f198a8203018652885190848060a01b03825116815261251283830151848301906135fb565b61252460408301516040830190613608565b61253660608084015190830190613615565b6080808301519082015261255760a087818501519184015287830190613461565b9160c08091015115159101529701930197019690939291936124d4565b600485600192612586859a989a613abf565b8152019201920191909593956124a6565b3461025a5760206125a736613560565b90826125bc604051928381519384920161343e565b600690820190815281900383019020600201546040516001600160a01b0392831691909216148152f35b3461025a57600036600319011261025a576020600954604051908152f35b3461025a57608036600319011261025a576001600160401b0360043581811161025a57612635903690600401613486565b61263d6134dc565b6126456134ec565b9260643590811161025a5761265e903690600401613486565b9260018060a01b036000541660405163cb261a0360e01b8152336004820152602081602481855afa80156111f15761269d91600091612a80575061383f565b600160ff8416101580612a72575b6126b4906136cd565b600160ff8316101580612a64575b6126cb90613710565b600460ff8416101561192957600660ff831610156119295761270160ff600460405160208181610e998b8381519384920161343e565b61271b60016040516020818851610f6b8183858d0161343e565b9060206040518092630286b6ab60e31b8252818061273d338860048401613883565b03915afa80156111f15761275891600091612a4557506138ab565b604051602081865161276d8183858b0161343e565b8101600b8152030190203360005260205260ff60406000205416612a005760405160208186516127a08183858b0161343e565b8101600a8152030190205460405160208187516127c08183858c0161343e565b8101600a815203019020604051966127d78861334c565b338852600160208901526127f160ff871660408a01613aa7565b61280160ff861660608a01613ab3565b42608089015260a0880152600160c08801528054600160401b8110156129ea576128309160018201815561366f565b6129d45760018060a01b03875116815490806001600160601b0360a01b831617835560208901516002811015611929576001600160a81b03199092161760a09190911b60ff60a01b16178155604087015160048110156119295761289490826137a8565b606087015190600682101561192957600360c0611ccb996128b86128ea95856137cc565b608081015160018501556128d360a082015160028601613943565b0151151591019060ff801983541691151516179055565b60405160208187516128ff8183858c0161343e565b8101600b815203019020336000526020526040600020600160ff1982541617905560405160208187516129358183858c0161343e565b8101600c81520301902033600052602052604060002055612957601154613a82565b60115561299561296f612969866137f0565b926137f0565b92612988604051956001875260ff602088019116613608565b60ff604086019116613615565b4260608401527f7113f0bf6c156de91047bc1021122f5e7103953f26c0628fdc1910ea15794b5860803394a43360005260106020526040600020613a55565b634e487b7160e01b600052600060045260246000fd5b634e487b7160e01b600052604160045260246000fd5b60405162461bcd60e51b815260206004820152601c60248201527f416c72656164792072657669657765642074686973207265636f7264000000006044820152606490fd5b612a5e915060203d6020116111ea576111dc8183613367565b87610faf565b50600560ff831611156126c2565b50600360ff841611156126ab565b612a99915060203d6020116111ea576111dc8183613367565b87611a14565b3461025a57612aad366135a1565b60005460405163cb261a0360e01b81523360048201526001600160a01b03946020949390929091908616908581602481855afa80156111f157612af791600091612da4575061383f565b846040518092630286b6ab60e31b82528180612b17338a60048401613883565b03915afa80156111f157612b3291600091612d8d57506138ab565b815115612d51578490612b47845115156138f7565b16938415612d0c576040519060ff6004845193878181880196612b6b81838a61343e565b81016006815203019020015460a01c16612ccf57612cba83612c6a6040947f4420e8451168941fa9021d087369875d12307cd926ed71885aee174e86c46fda968a612cc09660048b8d612c1e8c5192612bc384613315565b8784528284019081528d8401968752612c14612c026060860194428652608087019b338d5260a088019b60018d5260405193849283925192839161343e565b81016006815203019020945185613943565b5160018401613943565b8360028301955116946001600160601b0360a01b9586825416179055516003820155019351169083541617825551151581549060ff60a01b90151560a01b169060ff60a01b1916179055565b8760005260078752612c7f8185600020613a55565b612ca7818551898181612c988c8381519384920161343e565b81016008815203019020613a55565b612cb2600954613a82565b6009556137f0565b936137f0565b938151903382524290820152a4005b60405162461bcd60e51b815260048101869052601560248201527412185cda08185b1c9958591e48185b98da1bdc9959605a1b6044820152606490fd5b60405162461bcd60e51b815260048101859052601e60248201527f5375626a6563742063616e6e6f74206265207a65726f206164647265737300006044820152606490fd5b60405162461bcd60e51b8152600481018590526014602482015273486173682063616e6e6f7420626520656d70747960601b6044820152606490fd5b612a5e9150863d88116111ea576111dc8183613367565b611d929150873d89116111ea576111dc8183613367565b3461025a57612dc936613560565b906040518181809351612de2816020968780960161343e565b8101600d81520301902060018060a01b0380931660005281526040600020805491612e0c83613810565b92612e1a6040519485613367565b8084528184018093600052826000206000915b838310612e8b575050505060405192818401908285525180915260408401929160005b828110612e5d5785850386f35b8351805188168652808301511515868401526040908101519086015260609094019392810192600101612e50565b600285600192604099979951612ea0816132fa565b60ff86548d8116835260a01c16151583820152848601546040820152815201920192019190959395612e2d565b3461025a57600036600319011261025a576000546040516001600160a01b039091168152602090f35b3461025a5760208060031936011261025a576001600160a01b03612f18613266565b16600052600f60205260406000208054612f3181613810565b91612f3f6040519384613367565b81835260208301906000526020600020936000915b838310612f69576040518061025687826134fc565b6001828192612f7789613388565b815201960192019194612f54565b3461025a57606036600319011261025a576004356001600160401b03811161025a57612fb5903690600401613486565b612fbd6134dc565b90612fc66134ec565b906040519080519160209461300186840194612fe381858861343e565b8301600681526004848960ff96879403019020015460a01c1661368b565b6040518681855161301381838a61343e565b8101600b8152030190203360005286528160406000205416156131ca5781806130a09216956001871015806131bf575b61304c906136cd565b16936001851015806131b4575b61306290613710565b6040518781865161307481838761343e565b8101600c815203019020336000528752610b56876040600020549260405180938192895192839161343e565b506130b08260038301541661375c565b805494828660a01c1660028110156119295760010361316f576004811015611929576130dc90826137a8565b600684101561192957613100816130f961314196613133946137cc565b54936137f0565b946131246040519761311789868560a81c16613608565b8801848660a81c16613608565b82604088019160b01c16613615565b606085019160b01c16613615565b4260808301527f4a326d2e0f3bd3557b127d6a5d9cf92f3b9038184c6f20da297b638bbe8bd83360a03393a3005b60405162461bcd60e51b815260048101889052601760248201527f526576696577206973206e6f74206120646973707574650000000000000000006044820152606490fd5b506005851115613059565b506003871115613043565b60405162461bcd60e51b815260048101879052602160248201527f5573657220686173206e6f20726576696577206f6e2074686973207265636f726044820152601960fa1b6064820152608490fd5b3461025a57604036600319011261025a57613232613266565b6001600160a01b0316600090815260106020526040902080546024359081101561025a576107a66107ac9161025693613292565b600435906001600160a01b038216820361025a57565b602435906001600160a01b038216820361025a57565b80548210156132aa5760005260206000200190600090565b634e487b7160e01b600052603260045260246000fd5b90600182811c921680156132f0575b60208310146132da57565b634e487b7160e01b600052602260045260246000fd5b91607f16916132cf565b606081019081106001600160401b038211176129ea57604052565b60c081019081106001600160401b038211176129ea57604052565b61010081019081106001600160401b038211176129ea57604052565b60e081019081106001600160401b038211176129ea57604052565b90601f801991011681019081106001600160401b038211176129ea57604052565b9060405191826000825461339b816132c0565b9081845260209460019160018116908160001461340b57506001146133cc575b5050506133ca92500383613367565b565b600090815285812095935091905b8183106133f35750506133ca93508201013880806133bb565b855488840185015294850194879450918301916133da565b925050506133ca94925060ff191682840152151560051b8201013880806133bb565b906129d45761343b90613388565b90565b60005b8381106134515750506000910152565b8181015183820152602001613441565b9060209161347a8151809281855285808601910161343e565b601f01601f1916010190565b81601f8201121561025a578035906001600160401b0382116129ea57604051926134ba601f8401601f191660200185613367565b8284526020838301011161025a57816000926020809301838601378301015290565b6024359060ff8216820361025a57565b6044359060ff8216820361025a57565b6020808201906020835283518092526040830192602060408460051b8301019501936000915b8483106135325750505050505090565b9091929394958480613550600193603f198682030187528a51613461565b9801930193019194939290613522565b604060031982011261025a57600435906001600160401b03821161025a5761358a91600401613486565b906024356001600160a01b038116810361025a5790565b90606060031983011261025a576001600160401b0360043581811161025a57836135cd91600401613486565b9260243591821161025a576135e491600401613486565b906044356001600160a01b038116810361025a5790565b9060028210156119295752565b9060048210156119295752565b9060068210156119295752565b80548210156132aa5760005260206000209060011b0190600090565b604060031982011261025a57600435906001600160401b03821161025a5761366891600401613486565b9060243590565b80548210156132aa5760005260206000209060021b0190600090565b1561369257565b60405162461bcd60e51b8152602060048201526013602482015272149958dbdc99081b9bdd08185b98da1bdc9959606a1b6044820152606490fd5b156136d457565b60405162461bcd60e51b81526020600482015260146024820152735365766572697479206d75737420626520312d3360601b6044820152606490fd5b1561371757565b60405162461bcd60e51b815260206004820152601760248201527f43756c706162696c697479206d75737420626520312d350000000000000000006044820152606490fd5b1561376357565b60405162461bcd60e51b815260206004820152601a60248201527f4469737075746520686173206265656e207265747261637465640000000000006044820152606490fd5b90600481101561192957815460ff60a81b191660a89190911b60ff60a81b16179055565b90600681101561192957815460ff60b01b191660b09190911b60ff60b01b16179055565b6138089060206040519282848094519384920161343e565b810103902090565b6001600160401b0381116129ea5760051b60200190565b9081602091031261025a5751801515810361025a5790565b1561384657565b60405162461bcd60e51b81526020600482015260156024820152742737ba1030903b32b934b334b2b21036b2b6b132b960591b6044820152606490fd5b9061389b602091949394604084526040840190613461565b6001600160a01b03909416910152565b156138b257565b60405162461bcd60e51b815260206004820152601860248201527f4e6f2061636365737320746f2074686973207265636f726400000000000000006044820152606490fd5b156138fe57565b60405162461bcd60e51b815260206004820152601960248201527f5265636f72642049442063616e6e6f7420626520656d707479000000000000006044820152606490fd5b91909182516001600160401b0381116129ea5761396082546132c0565b601f8111613a0b575b50602080601f83116001146139a657508192939460009261399b575b50508160011b916000199060031b1c1916179055565b015190503880613985565b90601f19831695846000526020600020926000905b8882106139f3575050836001959697106139da575b505050811b019055565b015160001960f88460031b161c191690553880806139d0565b806001859682949686015181550195019301906139bb565b6000836000526020600020601f840160051c81019260208510613a4b575b601f0160051c01915b828110613a40575050613969565b818155600101613a32565b9092508290613a29565b8054600160401b8110156129ea57613a7291600182018155613292565b9190916129d4576133ca91613943565b6000198114613a915760010190565b634e487b7160e01b600052601160045260246000fd5b60048210156119295752565b60068210156119295752565b90604051613acc8161334c565b82546001600160a01b03811682529092839160a081901c60ff1660028110156119295760c092613b2060ff80946003946020890152613b13828260a81c1660408a01613aa7565b60b01c1660608701613ab3565b60018101546080860152613b3660028201613388565b60a08601520154161515910152565b15613b4c57565b60405162461bcd60e51b81526020600482015260146024820152732737ba1030b71030b1ba34bb329036b2b6b132b960611b6044820152606490fd5b80518210156132aa5760209160051b010190565b15613ba357565b60405162461bcd60e51b815260206004820152600a60248201526927b7363c9030b236b4b760b11b6044820152606490fd5b15613bdc57565b60405162461bcd60e51b815260206004820152600f60248201526e496e76616c6964206164647265737360881b6044820152606490fd5b9190916040805191805190602093848181840194613c3281838861343e565b600b908201908152030190206001600160a01b0390961660008181529685528387205460ff1615613cde5784610f22938593610b5693613c9f975184818451613c7c81838961343e565b8101600c815203019020908b528352848a2054945193849283925192839161343e565b90810151926002841015613cca575060808101519160c060a083015192015115159060019493929190565b634e487b7160e01b81526021600452602490fd5b505081518594859485949193508201906001600160401b03821183831017613d0857528281529190565b634e487b7160e01b85526041600452602485fdfea2646970667358221220ad604f7818d08c488a3e5f05eb8dfe27a078d282de8961d9c2bc20f3a2325f9464736f6c63430008170033","opcodes":"PUSH1 0x80 CALLVALUE PUSH3 0xD8 JUMPI PUSH1 0x1F PUSH3 0x3E46 CODESIZE DUP2 SWAP1 SUB SWAP2 DUP3 ADD PUSH1 0x1F NOT AND DUP4 ADD SWAP2 PUSH1 0x1 PUSH1 0x1 PUSH1 0x40 SHL SUB DUP4 GT DUP5 DUP5 LT OR PUSH3 0xDD JUMPI DUP1 DUP5 SWAP3 PUSH1 0x20 SWAP5 PUSH1 0x40 MSTORE DUP4 CODECOPY DUP2 ADD SUB SLT PUSH3 0xD8 JUMPI MLOAD PUSH1 0x1 PUSH1 0x1 PUSH1 0xA0 SHL SUB DUP2 AND SWAP1 DUP2 SWAP1 SUB PUSH3 0xD8 JUMPI DUP1 ISZERO PUSH3 0x89 JUMPI PUSH1 0x1 DUP1 PUSH1 0xA0 SHL SUB NOT SWAP1 DUP2 PUSH1 0x0 SLOAD AND OR PUSH1 0x0 SSTORE CALLER SWAP1 PUSH1 0x1 SLOAD AND OR PUSH1 0x1 SSTORE PUSH1 0x40 MLOAD PUSH2 0x3D52 SWAP1 DUP2 PUSH3 0xF4 DUP3 CODECOPY RETURN JUMPDEST PUSH1 0x40 MLOAD PUSH3 0x461BCD PUSH1 0xE5 SHL DUP2 MSTORE PUSH1 0x20 PUSH1 0x4 DUP3 ADD MSTORE PUSH1 0x21 PUSH1 0x24 DUP3 ADD MSTORE PUSH32 0x496E76616C6964204D656D626572526F6C654D616E6167657220616464726573 PUSH1 0x44 DUP3 ADD MSTORE PUSH1 0x73 PUSH1 0xF8 SHL PUSH1 0x64 DUP3 ADD MSTORE PUSH1 0x84 SWAP1 REVERT JUMPDEST PUSH1 0x0 DUP1 REVERT JUMPDEST PUSH4 0x4E487B71 PUSH1 0xE0 SHL PUSH1 0x0 MSTORE PUSH1 0x41 PUSH1 0x4 MSTORE PUSH1 0x24 PUSH1 0x0 REVERT INVALID PUSH1 0x80 PUSH1 0x40 MSTORE PUSH1 0x4 CALLDATASIZE LT ISZERO PUSH2 0x12 JUMPI PUSH1 0x0 DUP1 REVERT JUMPDEST PUSH1 0xE0 PUSH1 0x0 CALLDATALOAD DUP2 SHR SWAP1 DUP2 PUSH4 0x3635170 EQ PUSH2 0x3219 JUMPI DUP2 PUSH4 0x10A0E88A EQ PUSH2 0x2F85 JUMPI DUP2 PUSH4 0x1469FAB7 EQ PUSH2 0x2EF6 JUMPI DUP2 PUSH4 0x15370703 EQ PUSH2 0x2ECD JUMPI DUP2 PUSH4 0x1655408D EQ PUSH2 0x2DBB JUMPI DUP2 PUSH4 0x19C61953 EQ PUSH2 0x2A9F JUMPI DUP2 PUSH4 0x1AF43C91 EQ PUSH2 0x2604 JUMPI DUP2 PUSH4 0x1CF8CBE8 EQ PUSH2 0x25E6 JUMPI DUP2 PUSH4 0x291C2B16 EQ PUSH2 0x2597 JUMPI DUP2 PUSH4 0x2978465D EQ PUSH2 0x243A JUMPI DUP2 PUSH4 0x2EC1CA8A EQ PUSH2 0x236F JUMPI DUP2 PUSH4 0x328C5AA1 EQ PUSH2 0x238D JUMPI DUP2 PUSH4 0x37811534 EQ PUSH2 0x236F JUMPI DUP2 PUSH4 0x3935B076 EQ PUSH2 0x1FCA JUMPI DUP2 PUSH4 0x3A779568 EQ PUSH2 0x1F7D JUMPI DUP2 PUSH4 0x3AAAAF88 EQ PUSH2 0x1EA7 JUMPI DUP2 PUSH4 0x3CFBC7CB EQ PUSH2 0x1D98 JUMPI DUP2 PUSH4 0x3DE2E8E9 EQ PUSH2 0x1989 JUMPI DUP2 PUSH4 0x3ECD54BE EQ PUSH2 0x1838 JUMPI DUP2 PUSH4 0x47580B56 EQ PUSH2 0x17EB JUMPI DUP2 PUSH4 0x6B032610 EQ PUSH2 0x16F9 JUMPI DUP2 PUSH4 0x75829DEF EQ PUSH2 0x167E JUMPI DUP2 PUSH4 0x7EA79E9C EQ PUSH2 0x15C4 JUMPI DUP2 PUSH4 0x80FCD817 EQ PUSH2 0x1583 JUMPI DUP2 PUSH4 0x81C86B33 EQ PUSH2 0x14EA JUMPI DUP2 PUSH4 0x8625D384 EQ PUSH2 0x144F JUMPI DUP2 PUSH4 0x86564C8E EQ PUSH2 0x1408 JUMPI DUP2 PUSH4 0x86C097F7 EQ PUSH2 0x1379 JUMPI DUP2 PUSH4 0x889A7EEE EQ PUSH2 0x12A7 JUMPI DUP2 PUSH4 0x9E90E34A EQ PUSH2 0xDEA JUMPI DUP2 PUSH4 0xA0653611 EQ PUSH2 0xD9D JUMPI DUP2 PUSH4 0xA5A6958E EQ PUSH2 0xD47 JUMPI DUP2 PUSH4 0xAD6F0281 EQ PUSH2 0xC73 JUMPI DUP2 PUSH4 0xB10E4A0B EQ PUSH2 0xAB2 JUMPI DUP2 PUSH4 0xB5D3BC05 EQ PUSH2 0x9DC JUMPI DUP2 PUSH4 0xBED6E79E EQ PUSH2 0x98F JUMPI DUP2 PUSH4 0xBFB0A55B EQ PUSH2 0x900 JUMPI DUP2 PUSH4 0xC542EF40 EQ PUSH2 0x871 JUMPI DUP2 PUSH4 0xDD0BC082 EQ PUSH2 0x81A JUMPI DUP2 PUSH4 0xE0F3E86E EQ PUSH2 0x7DE JUMPI DUP2 PUSH4 0xE2367890 EQ PUSH2 0x7C0 JUMPI DUP2 PUSH4 0xE589425E EQ PUSH2 0x75A JUMPI DUP2 PUSH4 0xF25B7F45 EQ PUSH2 0x6CB JUMPI DUP2 PUSH4 0xF6CC55F9 EQ PUSH2 0x5B6 JUMPI POP DUP1 PUSH4 0xF851A440 EQ PUSH2 0x58D JUMPI DUP1 PUSH4 0xFB310C59 EQ PUSH2 0x25F JUMPI PUSH4 0xFC5CBF1D EQ PUSH2 0x224 JUMPI PUSH1 0x0 DUP1 REVERT JUMPDEST CALLVALUE PUSH2 0x25A JUMPI PUSH1 0x0 CALLDATASIZE PUSH1 0x3 NOT ADD SLT PUSH2 0x25A JUMPI PUSH1 0x9 SLOAD PUSH1 0x11 SLOAD PUSH1 0x5 SLOAD PUSH1 0x40 DUP1 MLOAD SWAP4 DUP5 MSTORE PUSH1 0x20 DUP5 ADD SWAP3 SWAP1 SWAP3 MSTORE SWAP1 DUP3 ADD MSTORE PUSH1 0x60 SWAP1 RETURN JUMPDEST SUB SWAP1 RETURN JUMPDEST PUSH1 0x0 DUP1 REVERT JUMPDEST CALLVALUE PUSH2 0x25A JUMPI PUSH1 0x20 DUP1 PUSH1 0x3 NOT CALLDATASIZE ADD SLT PUSH2 0x25A JUMPI PUSH1 0x4 CALLDATALOAD PUSH1 0x1 PUSH1 0x1 PUSH1 0x40 SHL SUB DUP2 GT PUSH2 0x25A JUMPI PUSH2 0x290 SWAP1 CALLDATASIZE SWAP1 PUSH1 0x4 ADD PUSH2 0x3486 JUMP JUMPDEST PUSH1 0x40 MLOAD SWAP1 DUP1 MLOAD PUSH1 0xFF PUSH1 0x6 DUP6 DUP5 ADD SWAP3 PUSH2 0x2A9 DUP2 DUP8 DUP7 PUSH2 0x343E JUMP JUMPDEST DUP6 ADD SWAP5 DUP7 DUP2 PUSH1 0x2 SWAP8 DUP9 DUP2 MSTORE SUB ADD SWAP1 KECCAK256 ADD SLOAD PUSH1 0x8 SHR AND ISZERO PUSH2 0x548 JUMPI PUSH1 0xFF PUSH1 0x6 PUSH1 0x40 MLOAD DUP7 DUP2 DUP7 MLOAD PUSH2 0x2D9 DUP2 DUP4 DUP10 PUSH2 0x343E JUMP JUMPDEST DUP2 ADD DUP9 DUP2 MSTORE SUB ADD SWAP1 KECCAK256 ADD SLOAD AND ISZERO PUSH2 0x511 JUMPI PUSH1 0x1 SWAP3 SWAP4 PUSH1 0x40 MLOAD SWAP2 DUP4 MLOAD PUSH2 0x2FF DUP2 DUP6 DUP5 PUSH2 0x343E JUMP JUMPDEST DUP4 ADD SWAP3 DUP7 DUP5 MSTORE DUP6 DUP1 PUSH1 0xA0 SHL SUB SWAP6 DUP2 DUP5 DUP9 SWAP4 DUP4 SWAP8 SUB ADD SWAP1 KECCAK256 ADD SLOAD AND CALLER SUB PUSH2 0x4CC JUMPI PUSH1 0x3 PUSH2 0x3A6 DUP4 PUSH2 0x3B6 SWAP4 PUSH1 0x6 PUSH1 0x40 MLOAD DUP4 DUP2 DUP14 DUP13 MLOAD PUSH2 0x33E DUP2 DUP5 DUP10 PUSH2 0x343E JUMP JUMPDEST DUP3 ADD SWAP1 DUP2 MSTORE SUB ADD SWAP1 KECCAK256 ADD SWAP9 PUSH1 0xFF NOT SWAP10 DUP11 DUP2 SLOAD AND SWAP1 SSTORE PUSH1 0x40 MLOAD PUSH1 0x5 DUP11 MLOAD PUSH2 0x365 DUP2 DUP5 DUP8 PUSH2 0x343E JUMP JUMPDEST DUP3 ADD SWAP2 DUP14 DUP4 MSTORE DUP6 DUP2 TIMESTAMP SWAP5 SUB ADD SWAP1 KECCAK256 ADD SSTORE DUP11 PUSH1 0x40 MLOAD DUP5 DUP2 DUP13 MLOAD PUSH2 0x388 DUP2 DUP4 DUP10 PUSH2 0x343E JUMP JUMPDEST DUP2 ADD DUP5 DUP2 MSTORE SUB ADD SWAP1 KECCAK256 ADD SLOAD AND SWAP10 PUSH1 0x40 MLOAD DUP1 SWAP5 DUP2 SWAP4 DUP12 MLOAD SWAP3 DUP4 SWAP2 PUSH2 0x343E JUMP JUMPDEST DUP3 ADD SWAP1 DUP2 MSTORE SUB ADD SWAP1 KECCAK256 ADD SWAP4 PUSH2 0x37F0 JUMP JUMPDEST SWAP3 PUSH1 0x40 MLOAD SWAP3 PUSH1 0x40 DUP5 MSTORE PUSH1 0x0 SWAP6 DUP3 SLOAD SWAP3 PUSH2 0x3CE DUP5 PUSH2 0x32C0 JUMP JUMPDEST SWAP4 DUP5 PUSH1 0x40 DUP9 ADD MSTORE PUSH1 0x60 SWAP3 PUSH1 0x1 DUP3 AND SWAP2 DUP3 PUSH1 0x0 EQ PUSH2 0x485 JUMPI POP POP PUSH1 0x1 EQ PUSH2 0x423 JUMPI JUMPDEST POP POP POP POP SWAP1 PUSH32 0x24303533397C7C9C44F2C956200064D35C3459320DDCC9EFEEA95E384763BCEB SWAP2 TIMESTAMP SWAP1 DUP3 ADD MSTORE DUP1 CALLER SWAP5 SUB SWAP1 LOG4 STOP JUMPDEST SWAP1 SWAP4 SWAP7 POP PUSH1 0x0 MSTORE DUP6 PUSH1 0x0 KECCAK256 SWAP3 DUP7 PUSH1 0x0 SWAP5 JUMPDEST DUP5 DUP7 LT PUSH2 0x471 JUMPI POP POP POP POP SWAP1 DUP3 ADD PUSH1 0x60 ADD SWAP4 SWAP1 POP PUSH32 0x24303533397C7C9C44F2C956200064D35C3459320DDCC9EFEEA95E384763BCEB DUP7 DUP1 DUP1 PUSH2 0x3EF JUMP JUMPDEST DUP1 SLOAD DUP8 DUP8 ADD DUP5 ADD MSTORE SWAP5 ADD SWAP4 DUP8 SWAP1 DUP4 ADD PUSH2 0x434 JUMP JUMPDEST SWAP3 POP SWAP3 POP POP PUSH32 0x24303533397C7C9C44F2C956200064D35C3459320DDCC9EFEEA95E384763BCEB SWAP6 SWAP5 SWAP8 POP PUSH1 0x60 SWAP4 SWAP3 POP AND DUP3 DUP5 ADD MSTORE ISZERO ISZERO PUSH1 0x5 SHL DUP3 ADD ADD SWAP4 SWAP1 SWAP2 DUP7 DUP1 DUP1 PUSH2 0x3EF JUMP JUMPDEST PUSH1 0x40 MLOAD PUSH3 0x461BCD PUSH1 0xE5 SHL DUP2 MSTORE PUSH1 0x4 DUP2 ADD DUP4 SWAP1 MSTORE PUSH1 0x1A PUSH1 0x24 DUP3 ADD MSTORE PUSH32 0x4F6E6C7920746865207368617265722063616E207265766F6B65000000000000 PUSH1 0x44 DUP3 ADD MSTORE PUSH1 0x64 SWAP1 REVERT JUMPDEST PUSH1 0x40 MLOAD PUSH3 0x461BCD PUSH1 0xE5 SHL DUP2 MSTORE PUSH1 0x4 DUP2 ADD DUP6 SWAP1 MSTORE PUSH1 0xF PUSH1 0x24 DUP3 ADD MSTORE PUSH15 0x105B1C9958591E481C995D9BDAD959 PUSH1 0x8A SHL PUSH1 0x44 DUP3 ADD MSTORE PUSH1 0x64 SWAP1 REVERT JUMPDEST PUSH1 0x40 MLOAD PUSH3 0x461BCD PUSH1 0xE5 SHL DUP2 MSTORE PUSH1 0x4 DUP2 ADD DUP6 SWAP1 MSTORE PUSH1 0x19 PUSH1 0x24 DUP3 ADD MSTORE PUSH32 0x5065726D697373696F6E20646F6573206E6F7420657869737400000000000000 PUSH1 0x44 DUP3 ADD MSTORE PUSH1 0x64 SWAP1 REVERT JUMPDEST CALLVALUE PUSH2 0x25A JUMPI PUSH1 0x0 CALLDATASIZE PUSH1 0x3 NOT ADD SLT PUSH2 0x25A JUMPI PUSH1 0x1 SLOAD PUSH1 0x40 MLOAD PUSH1 0x1 PUSH1 0x1 PUSH1 0xA0 SHL SUB SWAP1 SWAP2 AND DUP2 MSTORE PUSH1 0x20 SWAP1 RETURN JUMPDEST CALLVALUE PUSH2 0x25A JUMPI PUSH1 0x20 CALLDATASIZE PUSH1 0x3 NOT ADD SLT PUSH2 0x25A JUMPI PUSH1 0x4 CALLDATALOAD PUSH1 0x1 PUSH1 0x1 PUSH1 0x40 SHL SUB DUP2 GT PUSH2 0x25A JUMPI PUSH1 0x20 PUSH2 0x5EB PUSH2 0x5FE SWAP3 CALLDATASIZE SWAP1 PUSH1 0x4 ADD PUSH2 0x3486 JUMP JUMPDEST DUP2 PUSH1 0x40 MLOAD SWAP4 DUP3 DUP6 DUP1 SWAP5 MLOAD SWAP4 DUP5 SWAP3 ADD PUSH2 0x343E JUMP JUMPDEST DUP2 ADD PUSH1 0x2 DUP2 MSTORE SUB ADD SWAP1 KECCAK256 SWAP1 PUSH1 0x40 MLOAD PUSH2 0x615 DUP2 PUSH2 0x3330 JUMP JUMPDEST PUSH2 0x61E DUP4 PUSH2 0x3388 JUMP JUMPDEST DUP2 MSTORE PUSH1 0x1 DUP4 ADD SLOAD PUSH1 0x1 PUSH1 0x1 PUSH1 0xA0 SHL SUB SWAP1 DUP2 AND PUSH1 0x20 DUP4 ADD SWAP1 DUP2 MSTORE PUSH1 0x2 DUP6 ADD SLOAD DUP3 AND PUSH1 0x40 DUP5 ADD SWAP1 DUP2 MSTORE SWAP5 SWAP2 PUSH2 0x6BC SWAP2 SWAP1 DUP1 PUSH2 0x659 PUSH1 0x3 DUP7 ADD PUSH2 0x3388 JUMP JUMPDEST SWAP3 DUP4 PUSH1 0x60 DUP9 ADD MSTORE PUSH1 0x4 DUP7 ADD SLOAD SWAP7 DUP8 PUSH1 0x80 DUP3 ADD MSTORE PUSH1 0x6 PUSH1 0x5 DUP9 ADD SLOAD SWAP8 DUP9 PUSH1 0xA0 DUP5 ADD MSTORE ADD SLOAD SWAP9 PUSH1 0xFF DUP1 DUP12 AND ISZERO ISZERO SWAP11 DUP12 PUSH1 0xC0 DUP6 ADD MSTORE PUSH1 0x8 SHR AND ISZERO ISZERO SWAP2 ADD MSTORE MLOAD AND SWAP7 MLOAD AND PUSH1 0x40 MLOAD SWAP7 DUP8 SWAP7 DUP8 MSTORE PUSH1 0x20 DUP8 ADD MSTORE PUSH1 0x40 DUP7 ADD MSTORE PUSH1 0xC0 PUSH1 0x60 DUP7 ADD MSTORE PUSH1 0xC0 DUP6 ADD SWAP1 PUSH2 0x3461 JUMP JUMPDEST SWAP2 PUSH1 0x80 DUP5 ADD MSTORE PUSH1 0xA0 DUP4 ADD MSTORE SUB SWAP1 RETURN JUMPDEST CALLVALUE PUSH2 0x25A JUMPI PUSH1 0x20 DUP1 PUSH1 0x3 NOT CALLDATASIZE ADD SLT PUSH2 0x25A JUMPI PUSH1 0x1 PUSH1 0x1 PUSH1 0xA0 SHL SUB PUSH2 0x6ED PUSH2 0x3266 JUMP JUMPDEST AND PUSH1 0x0 MSTORE PUSH1 0x4 PUSH1 0x20 MSTORE PUSH1 0x40 PUSH1 0x0 KECCAK256 DUP1 SLOAD PUSH2 0x706 DUP2 PUSH2 0x3810 JUMP JUMPDEST SWAP2 PUSH2 0x714 PUSH1 0x40 MLOAD SWAP4 DUP5 PUSH2 0x3367 JUMP JUMPDEST DUP2 DUP4 MSTORE PUSH1 0x20 DUP4 ADD SWAP1 PUSH1 0x0 MSTORE PUSH1 0x20 PUSH1 0x0 KECCAK256 SWAP4 PUSH1 0x0 SWAP2 JUMPDEST DUP4 DUP4 LT PUSH2 0x73E JUMPI PUSH1 0x40 MLOAD DUP1 PUSH2 0x256 DUP8 DUP3 PUSH2 0x34FC JUMP JUMPDEST PUSH1 0x1 DUP3 DUP2 SWAP3 PUSH2 0x74C DUP10 PUSH2 0x3388 JUMP JUMPDEST DUP2 MSTORE ADD SWAP7 ADD SWAP3 ADD SWAP2 SWAP5 PUSH2 0x729 JUMP JUMPDEST CALLVALUE PUSH2 0x25A JUMPI PUSH1 0x20 PUSH2 0x782 PUSH2 0x76D CALLDATASIZE PUSH2 0x363E JUMP JUMPDEST SWAP3 SWAP1 DUP2 PUSH1 0x40 MLOAD SWAP4 DUP3 DUP6 DUP1 SWAP5 MLOAD SWAP4 DUP5 SWAP3 ADD PUSH2 0x343E JUMP JUMPDEST DUP2 ADD PUSH1 0x8 DUP2 MSTORE SUB ADD SWAP1 KECCAK256 SWAP1 DUP2 SLOAD DUP2 LT ISZERO PUSH2 0x25A JUMPI PUSH2 0x7A6 PUSH2 0x7AC SWAP2 PUSH2 0x256 SWAP4 PUSH2 0x3292 JUMP JUMPDEST SWAP1 PUSH2 0x342D JUMP JUMPDEST PUSH1 0x40 MLOAD SWAP2 DUP3 SWAP2 PUSH1 0x20 DUP4 MSTORE PUSH1 0x20 DUP4 ADD SWAP1 PUSH2 0x3461 JUMP JUMPDEST CALLVALUE PUSH2 0x25A JUMPI PUSH1 0x0 CALLDATASIZE PUSH1 0x3 NOT ADD SLT PUSH2 0x25A JUMPI PUSH1 0x20 PUSH1 0x11 SLOAD PUSH1 0x40 MLOAD SWAP1 DUP2 MSTORE RETURN JUMPDEST CALLVALUE PUSH2 0x25A JUMPI PUSH1 0x20 PUSH2 0x7F1 PUSH2 0x76D CALLDATASIZE PUSH2 0x3560 JUMP JUMPDEST DUP2 ADD PUSH1 0xC DUP2 MSTORE SUB ADD SWAP1 KECCAK256 SWAP1 PUSH1 0x1 DUP1 PUSH1 0xA0 SHL SUB AND PUSH1 0x0 MSTORE PUSH1 0x20 MSTORE PUSH1 0x20 PUSH1 0x40 PUSH1 0x0 KECCAK256 SLOAD PUSH1 0x40 MLOAD SWAP1 DUP2 MSTORE RETURN JUMPDEST CALLVALUE PUSH2 0x25A JUMPI PUSH1 0x20 CALLDATASIZE PUSH1 0x3 NOT ADD SLT PUSH2 0x25A JUMPI PUSH2 0x833 PUSH2 0x3266 JUMP JUMPDEST PUSH1 0x1 SLOAD PUSH1 0x1 PUSH1 0x1 PUSH1 0xA0 SHL SUB SWAP2 SWAP1 PUSH2 0x84D SWAP1 DUP4 AND CALLER EQ PUSH2 0x3B9C JUMP JUMPDEST AND PUSH2 0x859 DUP2 ISZERO ISZERO PUSH2 0x3BD5 JUMP JUMPDEST PUSH1 0x1 PUSH1 0x1 PUSH1 0x60 SHL SUB PUSH1 0xA0 SHL PUSH1 0x0 SLOAD AND OR PUSH1 0x0 SSTORE PUSH1 0x0 DUP1 RETURN JUMPDEST CALLVALUE PUSH2 0x25A JUMPI PUSH1 0x20 DUP1 PUSH1 0x3 NOT CALLDATASIZE ADD SLT PUSH2 0x25A JUMPI PUSH1 0x1 PUSH1 0x1 PUSH1 0xA0 SHL SUB PUSH2 0x893 PUSH2 0x3266 JUMP JUMPDEST AND PUSH1 0x0 MSTORE PUSH1 0x7 PUSH1 0x20 MSTORE PUSH1 0x40 PUSH1 0x0 KECCAK256 DUP1 SLOAD PUSH2 0x8AC DUP2 PUSH2 0x3810 JUMP JUMPDEST SWAP2 PUSH2 0x8BA PUSH1 0x40 MLOAD SWAP4 DUP5 PUSH2 0x3367 JUMP JUMPDEST DUP2 DUP4 MSTORE PUSH1 0x20 DUP4 ADD SWAP1 PUSH1 0x0 MSTORE PUSH1 0x20 PUSH1 0x0 KECCAK256 SWAP4 PUSH1 0x0 SWAP2 JUMPDEST DUP4 DUP4 LT PUSH2 0x8E4 JUMPI PUSH1 0x40 MLOAD DUP1 PUSH2 0x256 DUP8 DUP3 PUSH2 0x34FC JUMP JUMPDEST PUSH1 0x1 DUP3 DUP2 SWAP3 PUSH2 0x8F2 DUP10 PUSH2 0x3388 JUMP JUMPDEST DUP2 MSTORE ADD SWAP7 ADD SWAP3 ADD SWAP2 SWAP5 PUSH2 0x8CF JUMP JUMPDEST CALLVALUE PUSH2 0x25A JUMPI PUSH1 0x20 DUP1 PUSH1 0x3 NOT CALLDATASIZE ADD SLT PUSH2 0x25A JUMPI PUSH1 0x1 PUSH1 0x1 PUSH1 0xA0 SHL SUB PUSH2 0x922 PUSH2 0x3266 JUMP JUMPDEST AND PUSH1 0x0 MSTORE PUSH1 0x10 PUSH1 0x20 MSTORE PUSH1 0x40 PUSH1 0x0 KECCAK256 DUP1 SLOAD PUSH2 0x93B DUP2 PUSH2 0x3810 JUMP JUMPDEST SWAP2 PUSH2 0x949 PUSH1 0x40 MLOAD SWAP4 DUP5 PUSH2 0x3367 JUMP JUMPDEST DUP2 DUP4 MSTORE PUSH1 0x20 DUP4 ADD SWAP1 PUSH1 0x0 MSTORE PUSH1 0x20 PUSH1 0x0 KECCAK256 SWAP4 PUSH1 0x0 SWAP2 JUMPDEST DUP4 DUP4 LT PUSH2 0x973 JUMPI PUSH1 0x40 MLOAD DUP1 PUSH2 0x256 DUP8 DUP3 PUSH2 0x34FC JUMP JUMPDEST PUSH1 0x1 DUP3 DUP2 SWAP3 PUSH2 0x981 DUP10 PUSH2 0x3388 JUMP JUMPDEST DUP2 MSTORE ADD SWAP7 ADD SWAP3 ADD SWAP2 SWAP5 PUSH2 0x95E JUMP JUMPDEST CALLVALUE PUSH2 0x25A JUMPI PUSH1 0x40 CALLDATASIZE PUSH1 0x3 NOT ADD SLT PUSH2 0x25A JUMPI PUSH2 0x9A8 PUSH2 0x3266 JUMP JUMPDEST PUSH1 0x1 PUSH1 0x1 PUSH1 0xA0 SHL SUB AND PUSH1 0x0 SWAP1 DUP2 MSTORE PUSH1 0x4 PUSH1 0x20 MSTORE PUSH1 0x40 SWAP1 KECCAK256 DUP1 SLOAD PUSH1 0x24 CALLDATALOAD SWAP1 DUP2 LT ISZERO PUSH2 0x25A JUMPI PUSH2 0x7A6 PUSH2 0x7AC SWAP2 PUSH2 0x256 SWAP4 PUSH2 0x3292 JUMP JUMPDEST CALLVALUE PUSH2 0x25A JUMPI PUSH1 0x20 CALLDATASIZE PUSH1 0x3 NOT ADD SLT PUSH2 0x25A JUMPI PUSH1 0x4 CALLDATALOAD PUSH1 0x1 PUSH1 0x1 PUSH1 0x40 SHL SUB DUP2 GT PUSH2 0x25A JUMPI PUSH2 0xA14 PUSH1 0x20 PUSH2 0x5EB PUSH2 0xA99 SWAP4 CALLDATASIZE SWAP1 PUSH1 0x4 ADD PUSH2 0x3486 JUMP JUMPDEST DUP2 ADD PUSH1 0x6 DUP2 MSTORE SUB ADD SWAP1 KECCAK256 PUSH1 0x40 MLOAD PUSH2 0xA2A DUP2 PUSH2 0x3315 JUMP JUMPDEST PUSH2 0xA33 DUP3 PUSH2 0x3388 JUMP JUMPDEST DUP2 MSTORE PUSH1 0xA0 PUSH2 0xA43 PUSH1 0x1 DUP5 ADD PUSH2 0x3388 JUMP JUMPDEST SWAP3 DUP4 PUSH1 0x20 DUP5 ADD MSTORE PUSH1 0x1 DUP1 DUP4 SHL SUB SWAP1 DUP2 PUSH1 0x2 DUP3 ADD SLOAD AND SWAP4 DUP5 PUSH1 0x40 DUP3 ADD MSTORE PUSH1 0xFF PUSH1 0x4 PUSH1 0x3 DUP5 ADD SLOAD SWAP4 DUP5 PUSH1 0x60 DUP6 ADD MSTORE ADD SLOAD SWAP4 DUP5 AND SWAP4 DUP5 PUSH1 0x80 DUP5 ADD MSTORE DUP6 SHR AND ISZERO ISZERO SWAP4 DUP5 SWAP2 ADD MSTORE PUSH1 0x40 MLOAD SWAP6 DUP7 SWAP6 PUSH1 0xA0 DUP8 MSTORE PUSH1 0xA0 DUP8 ADD SWAP1 PUSH2 0x3461 JUMP JUMPDEST SWAP4 PUSH1 0x20 DUP7 ADD MSTORE PUSH1 0x40 DUP6 ADD MSTORE PUSH1 0x60 DUP5 ADD MSTORE PUSH1 0x80 DUP4 ADD MSTORE SUB SWAP1 RETURN JUMPDEST CALLVALUE PUSH2 0x25A JUMPI PUSH1 0x20 DUP1 PUSH1 0x3 NOT CALLDATASIZE ADD SLT PUSH2 0x25A JUMPI PUSH1 0x4 CALLDATALOAD PUSH1 0x1 PUSH1 0x1 PUSH1 0x40 SHL SUB DUP2 GT PUSH2 0x25A JUMPI PUSH2 0xAE3 SWAP1 CALLDATASIZE SWAP1 PUSH1 0x4 ADD PUSH2 0x3486 JUMP JUMPDEST SWAP1 PUSH1 0x40 MLOAD DUP3 MLOAD SWAP1 DUP3 DUP2 DUP2 DUP7 ADD SWAP4 PUSH2 0xAFB DUP2 DUP4 DUP8 PUSH2 0x343E JUMP JUMPDEST DUP2 ADD PUSH1 0xB DUP2 MSTORE SUB ADD SWAP1 KECCAK256 CALLER PUSH1 0x0 MSTORE DUP3 MSTORE PUSH1 0xFF PUSH1 0x40 PUSH1 0x0 KECCAK256 SLOAD AND ISZERO PUSH2 0xC37 JUMPI PUSH1 0x40 MLOAD DUP3 DUP2 DUP6 MLOAD PUSH2 0xB2B DUP2 DUP4 DUP8 PUSH2 0x343E JUMP JUMPDEST DUP2 ADD PUSH1 0xC DUP2 MSTORE SUB ADD SWAP1 KECCAK256 CALLER PUSH1 0x0 MSTORE DUP3 MSTORE PUSH2 0xB65 PUSH1 0x40 PUSH1 0x0 KECCAK256 SLOAD PUSH1 0x40 MLOAD DUP5 DUP2 DUP8 MLOAD PUSH2 0xB56 DUP2 DUP4 DUP10 PUSH2 0x343E JUMP JUMPDEST DUP2 ADD PUSH1 0xA DUP2 MSTORE SUB ADD SWAP1 KECCAK256 PUSH2 0x366F JUMP JUMPDEST POP SWAP1 PUSH1 0x3 DUP3 ADD SWAP1 DUP2 SLOAD SWAP2 PUSH1 0xFF DUP4 AND ISZERO PUSH2 0xBFE JUMPI SWAP2 PUSH2 0xB9D DUP6 PUSH2 0xBC3 SWAP6 SWAP4 PUSH1 0xFF SWAP6 DUP7 NOT DUP1 SWAP6 AND SWAP1 SSTORE PUSH1 0x40 MLOAD DUP1 SWAP4 DUP2 SWAP3 DUP12 MLOAD SWAP3 DUP4 SWAP2 PUSH2 0x343E JUMP JUMPDEST DUP2 ADD PUSH1 0xB DUP2 MSTORE SUB ADD SWAP1 KECCAK256 CALLER PUSH1 0x0 MSTORE DUP6 MSTORE PUSH1 0x40 PUSH1 0x0 KECCAK256 SWAP1 DUP2 SLOAD AND SWAP1 SSTORE SLOAD PUSH1 0xA0 SHR AND SWAP3 PUSH2 0x37F0 JUMP JUMPDEST SWAP1 PUSH2 0xBD1 PUSH1 0x40 MLOAD DUP1 SWAP5 PUSH2 0x35FB JUMP JUMPDEST TIMESTAMP SWAP1 DUP4 ADD MSTORE PUSH32 0x6BC31BFB9FF73229DA0FA40A8AB549B0579FA1A8AA5097D6C42C758AD6956182 PUSH1 0x40 CALLER SWAP4 LOG3 STOP JUMPDEST PUSH1 0x40 MLOAD PUSH3 0x461BCD PUSH1 0xE5 SHL DUP2 MSTORE PUSH1 0x4 DUP2 ADD DUP7 SWAP1 MSTORE PUSH1 0x11 PUSH1 0x24 DUP3 ADD MSTORE PUSH17 0x105B1C9958591E481C995D1C9858DD1959 PUSH1 0x7A SHL PUSH1 0x44 DUP3 ADD MSTORE PUSH1 0x64 SWAP1 REVERT JUMPDEST PUSH1 0x40 MLOAD PUSH3 0x461BCD PUSH1 0xE5 SHL DUP2 MSTORE PUSH1 0x4 DUP2 ADD DUP4 SWAP1 MSTORE PUSH1 0x14 PUSH1 0x24 DUP3 ADD MSTORE PUSH20 0x139BC81C995D9A595DC81D1BC81C995D1C9858DD PUSH1 0x62 SHL PUSH1 0x44 DUP3 ADD MSTORE PUSH1 0x64 SWAP1 REVERT JUMPDEST CALLVALUE PUSH2 0x25A JUMPI PUSH1 0x20 DUP1 PUSH1 0x3 NOT CALLDATASIZE ADD SLT PUSH2 0x25A JUMPI PUSH1 0x4 CALLDATALOAD PUSH1 0x1 PUSH1 0x1 PUSH1 0x40 SHL SUB DUP2 GT PUSH2 0x25A JUMPI PUSH2 0xCA4 SWAP1 CALLDATASIZE SWAP1 PUSH1 0x4 ADD PUSH2 0x3486 JUMP JUMPDEST PUSH1 0x40 MLOAD SWAP1 PUSH1 0xFF PUSH1 0x4 DUP3 MLOAD SWAP4 DUP6 DUP2 DUP2 DUP7 ADD SWAP7 PUSH2 0xCC0 DUP2 DUP4 DUP11 PUSH2 0x343E JUMP JUMPDEST DUP2 ADD PUSH1 0x6 DUP2 MSTORE SUB ADD SWAP1 KECCAK256 ADD SLOAD PUSH1 0xA0 SHR AND ISZERO PUSH2 0xD0A JUMPI PUSH1 0x2 SWAP1 PUSH2 0xCEA PUSH1 0x40 MLOAD SWAP4 DUP5 SWAP3 MLOAD SWAP3 DUP4 SWAP2 PUSH2 0x343E JUMP JUMPDEST DUP3 ADD SWAP2 PUSH1 0x6 DUP4 MSTORE DUP4 DUP2 PUSH1 0x1 DUP1 PUSH1 0xA0 SHL SUB SWAP5 SUB ADD SWAP1 KECCAK256 ADD SLOAD AND PUSH1 0x40 MLOAD SWAP1 DUP2 MSTORE RETURN JUMPDEST PUSH1 0x40 MLOAD PUSH3 0x461BCD PUSH1 0xE5 SHL DUP2 MSTORE PUSH1 0x4 DUP2 ADD DUP5 SWAP1 MSTORE PUSH1 0x15 PUSH1 0x24 DUP3 ADD MSTORE PUSH21 0x149958DBDC9908191BD95CC81B9BDD08195E1A5CDD PUSH1 0x5A SHL PUSH1 0x44 DUP3 ADD MSTORE PUSH1 0x64 SWAP1 REVERT JUMPDEST CALLVALUE PUSH2 0x25A JUMPI PUSH2 0xD91 PUSH2 0xD61 PUSH2 0xD5B CALLDATASIZE PUSH2 0x3560 JUMP JUMPDEST SWAP1 PUSH2 0x3C13 JUMP JUMPDEST SWAP3 SWAP5 SWAP2 PUSH2 0xD7B PUSH1 0x40 MLOAD SWAP7 DUP8 SWAP7 ISZERO ISZERO DUP8 MSTORE PUSH1 0x20 DUP8 ADD SWAP1 PUSH2 0x35FB JUMP JUMPDEST PUSH1 0x40 DUP6 ADD MSTORE PUSH1 0xA0 PUSH1 0x60 DUP6 ADD MSTORE PUSH1 0xA0 DUP5 ADD SWAP1 PUSH2 0x3461 JUMP JUMPDEST SWAP1 ISZERO ISZERO PUSH1 0x80 DUP4 ADD MSTORE SUB SWAP1 RETURN JUMPDEST CALLVALUE PUSH2 0x25A JUMPI PUSH1 0x40 CALLDATASIZE PUSH1 0x3 NOT ADD SLT PUSH2 0x25A JUMPI PUSH2 0xDB6 PUSH2 0x3266 JUMP JUMPDEST PUSH1 0x1 PUSH1 0x1 PUSH1 0xA0 SHL SUB AND PUSH1 0x0 SWAP1 DUP2 MSTORE PUSH1 0x7 PUSH1 0x20 MSTORE PUSH1 0x40 SWAP1 KECCAK256 DUP1 SLOAD PUSH1 0x24 CALLDATALOAD SWAP1 DUP2 LT ISZERO PUSH2 0x25A JUMPI PUSH2 0x7A6 PUSH2 0x7AC SWAP2 PUSH2 0x256 SWAP4 PUSH2 0x3292 JUMP JUMPDEST CALLVALUE PUSH2 0x25A JUMPI PUSH1 0x60 CALLDATASIZE PUSH1 0x3 NOT ADD SLT PUSH2 0x25A JUMPI PUSH1 0x4 CALLDATALOAD PUSH1 0x1 PUSH1 0x1 PUSH1 0x40 SHL SUB DUP2 GT PUSH2 0x25A JUMPI PUSH2 0xE1A SWAP1 CALLDATASIZE SWAP1 PUSH1 0x4 ADD PUSH2 0x3486 JUMP JUMPDEST PUSH2 0xE22 PUSH2 0x327C JUMP JUMPDEST SWAP1 PUSH1 0x44 CALLDATALOAD SWAP1 DUP2 ISZERO ISZERO DUP1 SWAP3 SUB PUSH2 0x25A JUMPI PUSH1 0x0 SLOAD PUSH1 0x40 MLOAD PUSH4 0x45ECD02F PUSH1 0xE0 SHL DUP2 MSTORE CALLER PUSH1 0x4 DUP3 ADD MSTORE PUSH1 0x20 SWAP3 SWAP2 PUSH1 0x1 PUSH1 0x1 PUSH1 0xA0 SHL SUB SWAP1 DUP2 AND SWAP2 PUSH1 0x24 SWAP2 SWAP1 DUP6 DUP2 DUP5 DUP2 DUP8 GAS STATICCALL DUP1 ISZERO PUSH2 0x11F1 JUMPI PUSH2 0xE7A SWAP2 PUSH1 0x0 SWAP2 PUSH2 0x128A JUMPI JUMPDEST POP PUSH2 0x3B45 JUMP JUMPDEST PUSH1 0x40 MLOAD SWAP3 PUSH2 0xEAE PUSH1 0xFF PUSH1 0x4 DUP8 MLOAD SWAP7 DUP10 DUP2 DUP2 DUP12 ADD SWAP10 PUSH2 0xE99 DUP2 DUP4 DUP14 PUSH2 0x343E JUMP JUMPDEST DUP2 ADD PUSH1 0x6 DUP2 MSTORE SUB ADD SWAP1 KECCAK256 ADD SLOAD PUSH1 0xA0 SHR AND PUSH2 0x368B JUMP JUMPDEST DUP2 PUSH1 0x40 MLOAD DUP8 DUP2 DUP9 MLOAD PUSH2 0xEC1 DUP2 DUP4 DUP12 PUSH2 0x343E JUMP JUMPDEST DUP2 ADD PUSH1 0xB DUP2 MSTORE SUB ADD SWAP1 KECCAK256 SWAP9 AND SWAP8 DUP9 PUSH1 0x0 MSTORE DUP7 MSTORE PUSH1 0xFF PUSH1 0x40 PUSH1 0x0 KECCAK256 SLOAD AND ISZERO PUSH2 0x1246 JUMPI PUSH1 0x40 MLOAD DUP7 DUP2 DUP8 MLOAD PUSH2 0xEF4 DUP2 DUP4 DUP11 PUSH2 0x343E JUMP JUMPDEST DUP2 ADD PUSH1 0xC DUP2 MSTORE SUB ADD SWAP1 KECCAK256 DUP9 PUSH1 0x0 MSTORE DUP7 MSTORE PUSH2 0xF28 PUSH2 0xF22 PUSH1 0x40 PUSH1 0x0 KECCAK256 SLOAD PUSH1 0x40 MLOAD DUP10 DUP2 DUP11 MLOAD PUSH2 0xB56 DUP2 DUP4 DUP14 PUSH2 0x343E JUMP JUMPDEST POP PUSH2 0x3ABF JUMP JUMPDEST DUP7 DUP2 ADD MLOAD PUSH1 0x2 DUP2 LT ISZERO PUSH2 0x1231 JUMPI PUSH1 0x1 SUB PUSH2 0x11FD JUMPI PUSH2 0xF99 SWAP2 PUSH2 0xF50 PUSH1 0xC0 DUP10 SWAP4 ADD MLOAD ISZERO ISZERO PUSH2 0x375C JUMP JUMPDEST PUSH1 0x40 MLOAD DUP8 MLOAD PUSH2 0xF7B SWAP2 PUSH1 0x1 SWAP2 DUP6 SWAP1 DUP3 SWAP1 PUSH2 0xF6B DUP2 DUP4 DUP15 PUSH2 0x343E JUMP JUMPDEST DUP2 ADD PUSH1 0x6 DUP2 MSTORE SUB ADD SWAP1 KECCAK256 ADD PUSH2 0x3388 JUMP JUMPDEST SWAP1 PUSH1 0x40 MLOAD DUP1 DUP1 SWAP6 DUP2 SWAP5 PUSH4 0x286B6AB PUSH1 0xE3 SHL DUP4 MSTORE CALLER SWAP1 PUSH1 0x4 DUP5 ADD PUSH2 0x3883 JUMP JUMPDEST SUB SWAP2 GAS STATICCALL DUP1 ISZERO PUSH2 0x11F1 JUMPI PUSH2 0xFB5 SWAP2 PUSH1 0x0 SWAP2 PUSH2 0x11C4 JUMPI JUMPDEST POP PUSH2 0x38AB JUMP JUMPDEST DUP7 CALLER EQ PUSH2 0x1182 JUMPI PUSH1 0x40 MLOAD DUP6 DUP2 DUP7 MLOAD PUSH2 0xFCE DUP2 DUP4 DUP10 PUSH2 0x343E JUMP JUMPDEST DUP2 ADD PUSH1 0xE DUP2 MSTORE SUB ADD SWAP1 KECCAK256 DUP8 PUSH1 0x0 MSTORE DUP6 MSTORE PUSH1 0x40 PUSH1 0x0 KECCAK256 CALLER PUSH1 0x0 MSTORE DUP6 MSTORE PUSH1 0xFF PUSH1 0x40 PUSH1 0x0 KECCAK256 SLOAD AND PUSH2 0x113E JUMPI PUSH1 0x40 MLOAD DUP6 DUP2 DUP7 MLOAD PUSH2 0x1008 DUP2 DUP4 DUP10 PUSH2 0x343E JUMP JUMPDEST DUP2 ADD PUSH1 0xD DUP2 MSTORE SUB ADD SWAP1 KECCAK256 DUP8 PUSH1 0x0 MSTORE DUP6 MSTORE PUSH1 0x40 PUSH1 0x0 KECCAK256 SWAP1 PUSH1 0x40 MLOAD SWAP1 PUSH2 0x102B DUP3 PUSH2 0x32FA JUMP JUMPDEST CALLER DUP3 MSTORE DUP7 DUP3 ADD SWAP2 DUP9 DUP4 MSTORE PUSH1 0x40 DUP2 ADD SWAP4 TIMESTAMP DUP6 MSTORE DUP1 SLOAD SWAP1 PUSH1 0x1 PUSH1 0x40 SHL DUP3 LT ISZERO PUSH2 0x1129 JUMPI SWAP1 PUSH2 0x105C SWAP2 PUSH1 0x1 DUP3 ADD DUP2 SSTORE PUSH2 0x3622 JUMP JUMPDEST SWAP6 SWAP1 SWAP6 PUSH2 0x1115 JUMPI POP MLOAD DUP5 SLOAD SWAP3 MLOAD PUSH1 0xFF PUSH1 0xA0 SHL SWAP1 ISZERO ISZERO PUSH1 0xA0 SHL AND PUSH1 0x1 PUSH1 0x1 PUSH1 0xA8 SHL SUB NOT SWAP1 SWAP4 AND SWAP2 AND PUSH1 0xFF PUSH1 0xA0 SHL NOT AND OR OR DUP3 SSTORE PUSH2 0x10E1 SWAP4 SWAP3 PUSH2 0x10B1 SWAP3 DUP7 SWAP3 PUSH1 0x1 SWAP1 MLOAD SWAP2 ADD SSTORE PUSH1 0x40 MLOAD DUP1 SWAP4 DUP2 SWAP3 DUP7 MLOAD SWAP3 DUP4 SWAP2 PUSH2 0x343E JUMP JUMPDEST DUP2 ADD PUSH1 0xE DUP2 MSTORE SUB ADD SWAP1 KECCAK256 DUP6 PUSH1 0x0 MSTORE DUP4 MSTORE PUSH1 0x40 PUSH1 0x0 KECCAK256 CALLER PUSH1 0x0 MSTORE DUP4 MSTORE PUSH1 0x40 PUSH1 0x0 KECCAK256 PUSH1 0x1 PUSH1 0xFF NOT DUP3 SLOAD AND OR SWAP1 SSTORE PUSH2 0x37F0 JUMP JUMPDEST SWAP1 PUSH1 0x40 MLOAD SWAP3 DUP4 MSTORE TIMESTAMP SWAP1 DUP4 ADD MSTORE PUSH32 0xAD3ED72FFD0DE1372034654A13D68AAF09E3980D9FD90226D703B6CE84BEC0D8 PUSH1 0x40 CALLER SWAP4 LOG4 STOP JUMPDEST PUSH4 0x4E487B71 PUSH1 0xE0 SHL PUSH1 0x0 MSTORE PUSH1 0x0 PUSH1 0x4 MSTORE PUSH1 0x0 REVERT JUMPDEST DUP7 PUSH4 0x4E487B71 PUSH1 0xE0 SHL PUSH1 0x0 MSTORE PUSH1 0x41 PUSH1 0x4 MSTORE PUSH1 0x0 REVERT JUMPDEST PUSH1 0x40 MLOAD PUSH3 0x461BCD PUSH1 0xE5 SHL DUP2 MSTORE PUSH1 0x4 DUP2 ADD DUP7 SWAP1 MSTORE PUSH1 0x1F DUP2 DUP5 ADD MSTORE PUSH32 0x416C7265616479207265616374656420746F2074686973206469737075746500 PUSH1 0x44 DUP3 ADD MSTORE PUSH1 0x64 SWAP1 REVERT JUMPDEST PUSH1 0x64 DUP3 DUP7 PUSH1 0x40 MLOAD SWAP2 PUSH3 0x461BCD PUSH1 0xE5 SHL DUP4 MSTORE DUP2 PUSH1 0x4 DUP5 ADD MSTORE DUP3 ADD MSTORE PUSH32 0x43616E6E6F7420726561637420746F20796F7572206F776E2064697370757465 PUSH1 0x44 DUP3 ADD MSTORE REVERT JUMPDEST PUSH2 0x11E4 SWAP2 POP DUP8 RETURNDATASIZE DUP10 GT PUSH2 0x11EA JUMPI JUMPDEST PUSH2 0x11DC DUP2 DUP4 PUSH2 0x3367 JUMP JUMPDEST DUP2 ADD SWAP1 PUSH2 0x3827 JUMP JUMPDEST DUP10 PUSH2 0xFAF JUMP JUMPDEST POP RETURNDATASIZE PUSH2 0x11D2 JUMP JUMPDEST PUSH1 0x40 MLOAD RETURNDATASIZE PUSH1 0x0 DUP3 RETURNDATACOPY RETURNDATASIZE SWAP1 REVERT JUMPDEST PUSH1 0x40 MLOAD PUSH3 0x461BCD PUSH1 0xE5 SHL DUP2 MSTORE PUSH1 0x4 DUP2 ADD DUP9 SWAP1 MSTORE PUSH1 0xD DUP2 DUP7 ADD MSTORE PUSH13 0x4E6F7420612064697370757465 PUSH1 0x98 SHL PUSH1 0x44 DUP3 ADD MSTORE PUSH1 0x64 SWAP1 REVERT JUMPDEST DUP5 PUSH4 0x4E487B71 PUSH1 0xE0 SHL PUSH1 0x0 MSTORE PUSH1 0x21 PUSH1 0x4 MSTORE PUSH1 0x0 REVERT JUMPDEST PUSH1 0x40 MLOAD PUSH3 0x461BCD PUSH1 0xE5 SHL DUP2 MSTORE PUSH1 0x4 DUP2 ADD DUP8 SWAP1 MSTORE PUSH1 0x1C DUP2 DUP6 ADD MSTORE PUSH32 0x4E6F20646973707574652066726F6D2074686973206164647265737300000000 PUSH1 0x44 DUP3 ADD MSTORE PUSH1 0x64 SWAP1 REVERT JUMPDEST PUSH2 0x12A1 SWAP2 POP DUP8 RETURNDATASIZE DUP10 GT PUSH2 0x11EA JUMPI PUSH2 0x11DC DUP2 DUP4 PUSH2 0x3367 JUMP JUMPDEST DUP10 PUSH2 0xE74 JUMP JUMPDEST CALLVALUE PUSH2 0x25A JUMPI PUSH1 0x20 SWAP1 PUSH2 0x12D0 PUSH2 0x12BB CALLDATASIZE PUSH2 0x363E JUMP JUMPDEST SWAP4 SWAP1 DUP2 PUSH1 0x40 MLOAD SWAP4 DUP3 DUP6 DUP1 SWAP5 MLOAD SWAP4 DUP5 SWAP3 ADD PUSH2 0x343E JUMP JUMPDEST DUP2 ADD PUSH1 0xA DUP2 MSTORE SUB ADD SWAP1 KECCAK256 DUP1 SLOAD DUP4 LT ISZERO PUSH2 0x25A JUMPI PUSH2 0x135A SWAP3 PUSH2 0x12F0 SWAP2 PUSH2 0x366F JUMP JUMPDEST POP SWAP1 PUSH2 0x136D DUP3 SLOAD SWAP3 PUSH1 0x1 DUP2 ADD SLOAD SWAP3 PUSH1 0xFF PUSH1 0x3 PUSH2 0x130E PUSH1 0x2 DUP6 ADD PUSH2 0x3388 JUMP JUMPDEST SWAP4 ADD SLOAD AND SWAP4 PUSH1 0x40 MLOAD SWAP7 DUP8 SWAP7 PUSH1 0x1 DUP1 PUSH1 0xA0 SHL SUB DUP2 AND DUP9 MSTORE PUSH2 0x1337 PUSH1 0x20 DUP10 ADD PUSH1 0xFF DUP4 PUSH1 0xA0 SHR AND PUSH2 0x35FB JUMP JUMPDEST PUSH2 0x134A PUSH1 0x40 DUP10 ADD PUSH1 0xFF DUP4 PUSH1 0xA8 SHR AND PUSH2 0x3608 JUMP JUMPDEST PUSH1 0xFF PUSH1 0x60 DUP10 ADD SWAP2 PUSH1 0xB0 SHR AND PUSH2 0x3615 JUMP JUMPDEST PUSH1 0x80 DUP7 ADD MSTORE DUP1 PUSH1 0xA0 DUP7 ADD MSTORE DUP5 ADD SWAP1 PUSH2 0x3461 JUMP JUMPDEST SWAP1 ISZERO ISZERO PUSH1 0xC0 DUP4 ADD MSTORE SUB SWAP1 RETURN JUMPDEST CALLVALUE PUSH2 0x25A JUMPI PUSH1 0x20 DUP1 PUSH1 0x3 NOT CALLDATASIZE ADD SLT PUSH2 0x25A JUMPI PUSH1 0x1 PUSH1 0x1 PUSH1 0xA0 SHL SUB PUSH2 0x139B PUSH2 0x3266 JUMP JUMPDEST AND PUSH1 0x0 MSTORE PUSH1 0x3 PUSH1 0x20 MSTORE PUSH1 0x40 PUSH1 0x0 KECCAK256 DUP1 SLOAD PUSH2 0x13B4 DUP2 PUSH2 0x3810 JUMP JUMPDEST SWAP2 PUSH2 0x13C2 PUSH1 0x40 MLOAD SWAP4 DUP5 PUSH2 0x3367 JUMP JUMPDEST DUP2 DUP4 MSTORE PUSH1 0x20 DUP4 ADD SWAP1 PUSH1 0x0 MSTORE PUSH1 0x20 PUSH1 0x0 KECCAK256 SWAP4 PUSH1 0x0 SWAP2 JUMPDEST DUP4 DUP4 LT PUSH2 0x13EC JUMPI PUSH1 0x40 MLOAD DUP1 PUSH2 0x256 DUP8 DUP3 PUSH2 0x34FC JUMP JUMPDEST PUSH1 0x1 DUP3 DUP2 SWAP3 PUSH2 0x13FA DUP10 PUSH2 0x3388 JUMP JUMPDEST DUP2 MSTORE ADD SWAP7 ADD SWAP3 ADD SWAP2 SWAP5 PUSH2 0x13D7 JUMP JUMPDEST CALLVALUE PUSH2 0x25A JUMPI PUSH1 0x20 CALLDATASIZE PUSH1 0x3 NOT ADD SLT PUSH2 0x25A JUMPI PUSH1 0x1 PUSH1 0x1 PUSH1 0xA0 SHL SUB PUSH2 0x1429 PUSH2 0x3266 JUMP JUMPDEST AND PUSH1 0x0 MSTORE PUSH1 0xF PUSH1 0x20 MSTORE PUSH1 0x40 DUP1 PUSH1 0x0 KECCAK256 SLOAD PUSH1 0x10 PUSH1 0x20 MSTORE DUP2 PUSH1 0x0 KECCAK256 SLOAD DUP3 MLOAD SWAP2 DUP3 MSTORE PUSH1 0x20 DUP3 ADD MSTORE RETURN JUMPDEST CALLVALUE PUSH2 0x25A JUMPI PUSH1 0x60 CALLDATASIZE PUSH1 0x3 NOT ADD SLT PUSH2 0x25A JUMPI PUSH1 0x4 CALLDATALOAD PUSH1 0x1 PUSH1 0x1 PUSH1 0x40 SHL SUB DUP2 GT PUSH2 0x25A JUMPI PUSH2 0x147F SWAP1 CALLDATASIZE SWAP1 PUSH1 0x4 ADD PUSH2 0x3486 JUMP JUMPDEST PUSH2 0x1487 PUSH2 0x327C JUMP JUMPDEST PUSH1 0x1 PUSH1 0x1 PUSH1 0xA0 SHL SUB PUSH1 0x44 CALLDATALOAD DUP2 DUP2 AND SWAP4 SWAP1 DUP5 SWAP1 SUB PUSH2 0x25A JUMPI PUSH1 0x20 PUSH2 0x14B7 SWAP2 DUP2 PUSH1 0x40 MLOAD SWAP4 DUP3 DUP6 DUP1 SWAP5 MLOAD SWAP4 DUP5 SWAP3 ADD PUSH2 0x343E JUMP JUMPDEST DUP2 ADD PUSH1 0xE DUP2 MSTORE SUB ADD SWAP1 KECCAK256 SWAP2 AND PUSH1 0x0 MSTORE PUSH1 0x20 MSTORE PUSH1 0x40 PUSH1 0x0 KECCAK256 SWAP1 PUSH1 0x0 MSTORE PUSH1 0x20 MSTORE PUSH1 0x20 PUSH1 0xFF PUSH1 0x40 PUSH1 0x0 KECCAK256 SLOAD AND PUSH1 0x40 MLOAD SWAP1 ISZERO ISZERO DUP2 MSTORE RETURN JUMPDEST CALLVALUE PUSH2 0x25A JUMPI PUSH1 0x20 DUP1 PUSH1 0x3 NOT CALLDATASIZE ADD SLT PUSH2 0x25A JUMPI PUSH1 0x4 CALLDATALOAD PUSH1 0x1 PUSH1 0x1 PUSH1 0x40 SHL SUB DUP2 GT PUSH2 0x25A JUMPI DUP2 PUSH2 0x5EB PUSH2 0x151F SWAP3 CALLDATASIZE SWAP1 PUSH1 0x4 ADD PUSH2 0x3486 JUMP JUMPDEST DUP2 ADD PUSH1 0x8 DUP2 MSTORE SUB ADD SWAP1 KECCAK256 DUP1 SLOAD PUSH2 0x1534 DUP2 PUSH2 0x3810 JUMP JUMPDEST SWAP2 PUSH2 0x1542 PUSH1 0x40 MLOAD SWAP4 DUP5 PUSH2 0x3367 JUMP JUMPDEST DUP2 DUP4 MSTORE PUSH1 0x0 SWAP1 DUP2 MSTORE DUP4 DUP2 KECCAK256 SWAP4 DUP1 DUP5 ADD JUMPDEST DUP4 DUP4 LT PUSH2 0x1567 JUMPI PUSH1 0x40 MLOAD DUP1 PUSH2 0x256 DUP8 DUP3 PUSH2 0x34FC JUMP JUMPDEST PUSH1 0x1 DUP3 DUP2 SWAP3 PUSH2 0x1575 DUP10 PUSH2 0x3388 JUMP JUMPDEST DUP2 MSTORE ADD SWAP7 ADD SWAP3 ADD SWAP2 SWAP5 PUSH2 0x1552 JUMP JUMPDEST CALLVALUE PUSH2 0x25A JUMPI PUSH1 0x20 PUSH2 0x1596 PUSH2 0x76D CALLDATASIZE PUSH2 0x3560 JUMP JUMPDEST DUP2 ADD PUSH1 0xB DUP2 MSTORE SUB ADD SWAP1 KECCAK256 SWAP1 PUSH1 0x1 DUP1 PUSH1 0xA0 SHL SUB AND PUSH1 0x0 MSTORE PUSH1 0x20 MSTORE PUSH1 0x20 PUSH1 0xFF PUSH1 0x40 PUSH1 0x0 KECCAK256 SLOAD AND PUSH1 0x40 MLOAD SWAP1 ISZERO ISZERO DUP2 MSTORE RETURN JUMPDEST CALLVALUE PUSH2 0x25A JUMPI PUSH1 0x20 CALLDATASIZE PUSH1 0x3 NOT ADD SLT PUSH2 0x25A JUMPI PUSH1 0x4 CALLDATALOAD PUSH1 0x1 PUSH1 0x1 PUSH1 0x40 SHL SUB DUP2 GT PUSH2 0x25A JUMPI PUSH2 0x15FC PUSH1 0x20 PUSH2 0x5EB PUSH2 0x164F SWAP4 CALLDATASIZE SWAP1 PUSH1 0x4 ADD PUSH2 0x3486 JUMP JUMPDEST DUP2 ADD PUSH1 0x6 DUP2 MSTORE SUB ADD SWAP1 KECCAK256 PUSH2 0x160F DUP2 PUSH2 0x3388 JUMP JUMPDEST SWAP1 PUSH1 0xFF PUSH2 0x161E PUSH1 0x1 DUP4 ADD PUSH2 0x3388 JUMP JUMPDEST PUSH1 0x1 DUP1 PUSH1 0xA0 SHL SUB DUP1 PUSH1 0x2 DUP6 ADD SLOAD AND SWAP4 PUSH2 0x165D PUSH1 0x4 PUSH1 0x3 DUP4 ADD SLOAD SWAP3 ADD SLOAD SWAP4 PUSH1 0x40 MLOAD SWAP9 DUP10 SWAP9 PUSH1 0xC0 DUP11 MSTORE PUSH1 0xC0 DUP11 ADD SWAP1 PUSH2 0x3461 JUMP JUMPDEST SWAP1 DUP9 DUP3 SUB PUSH1 0x20 DUP11 ADD MSTORE PUSH2 0x3461 JUMP JUMPDEST SWAP5 PUSH1 0x40 DUP8 ADD MSTORE PUSH1 0x60 DUP7 ADD MSTORE DUP2 AND PUSH1 0x80 DUP6 ADD MSTORE PUSH1 0xA0 SHR AND ISZERO ISZERO PUSH1 0xA0 DUP4 ADD MSTORE SUB SWAP1 RETURN JUMPDEST CALLVALUE PUSH2 0x25A JUMPI PUSH1 0x20 CALLDATASIZE PUSH1 0x3 NOT ADD SLT PUSH2 0x25A JUMPI PUSH2 0x1697 PUSH2 0x3266 JUMP JUMPDEST PUSH1 0x1 SLOAD PUSH1 0x1 PUSH1 0x1 PUSH1 0xA0 SHL SUB DUP1 DUP3 AND SWAP3 PUSH2 0x16B1 CALLER DUP6 EQ PUSH2 0x3B9C JUMP JUMPDEST AND DUP1 SWAP3 PUSH2 0x16BF DUP3 ISZERO ISZERO PUSH2 0x3BD5 JUMP JUMPDEST PUSH32 0x38DF5FA0F7FEF0D515CA1F5388CB5790AC5885D5FCA8D05D9F943E563C33A4B3 PUSH1 0x20 PUSH1 0x40 MLOAD TIMESTAMP DUP2 MSTORE LOG3 PUSH1 0x1 PUSH1 0x1 PUSH1 0xA0 SHL SUB NOT AND OR PUSH1 0x1 SSTORE STOP JUMPDEST CALLVALUE PUSH2 0x25A JUMPI PUSH1 0x20 DUP1 PUSH1 0x3 NOT CALLDATASIZE ADD SLT PUSH2 0x25A JUMPI PUSH2 0x1713 PUSH2 0x3266 JUMP JUMPDEST PUSH1 0x1 PUSH1 0x1 PUSH1 0xA0 SHL SUB AND PUSH1 0x0 SWAP1 DUP2 MSTORE PUSH1 0x3 DUP3 MSTORE PUSH1 0x40 SWAP1 KECCAK256 DUP1 SLOAD PUSH2 0x1734 DUP2 PUSH2 0x3810 JUMP JUMPDEST SWAP2 PUSH2 0x1742 PUSH1 0x40 MLOAD SWAP4 DUP5 PUSH2 0x3367 JUMP JUMPDEST DUP2 DUP4 MSTORE PUSH1 0x0 SWAP1 DUP2 MSTORE DUP4 DUP2 KECCAK256 DUP5 DUP1 DUP6 ADD JUMPDEST DUP5 DUP5 LT PUSH2 0x17CD JUMPI POP DUP5 MLOAD PUSH1 0x0 DUP7 DUP2 JUMPDEST DUP2 MLOAD DUP2 LT ISZERO PUSH2 0x17BE JUMPI PUSH1 0xFF PUSH1 0x6 PUSH2 0x1790 DUP8 PUSH2 0x177C DUP6 DUP8 PUSH2 0x3B88 JUMP JUMPDEST MLOAD DUP2 PUSH1 0x40 MLOAD SWAP4 DUP3 DUP6 DUP1 SWAP5 MLOAD SWAP4 DUP5 SWAP3 ADD PUSH2 0x343E JUMP JUMPDEST DUP2 ADD PUSH1 0x2 DUP2 MSTORE SUB ADD SWAP1 KECCAK256 ADD SLOAD AND PUSH2 0x17AA JUMPI JUMPDEST PUSH1 0x1 ADD PUSH2 0x1761 JUMP JUMPDEST SWAP2 PUSH2 0x17B6 PUSH1 0x1 SWAP2 PUSH2 0x3A82 JUMP JUMPDEST SWAP3 SWAP1 POP PUSH2 0x17A2 JUMP JUMPDEST POP POP PUSH1 0x40 SWAP3 DUP4 MLOAD SWAP3 DUP4 MSTORE DUP3 ADD MSTORE RETURN JUMPDEST PUSH1 0x1 SWAP2 DUP3 SWAP2 PUSH2 0x17DB DUP6 PUSH2 0x3388 JUMP JUMPDEST DUP2 MSTORE ADD SWAP3 ADD SWAP3 ADD SWAP2 SWAP1 DUP6 SWAP1 PUSH2 0x1752 JUMP JUMPDEST CALLVALUE PUSH2 0x25A JUMPI PUSH1 0x40 CALLDATASIZE PUSH1 0x3 NOT ADD SLT PUSH2 0x25A JUMPI PUSH2 0x1804 PUSH2 0x3266 JUMP JUMPDEST PUSH1 0x1 PUSH1 0x1 PUSH1 0xA0 SHL SUB AND PUSH1 0x0 SWAP1 DUP2 MSTORE PUSH1 0xF PUSH1 0x20 MSTORE PUSH1 0x40 SWAP1 KECCAK256 DUP1 SLOAD PUSH1 0x24 CALLDATALOAD SWAP1 DUP2 LT ISZERO PUSH2 0x25A JUMPI PUSH2 0x7A6 PUSH2 0x7AC SWAP2 PUSH2 0x256 SWAP4 PUSH2 0x3292 JUMP JUMPDEST CALLVALUE PUSH2 0x25A JUMPI PUSH1 0x20 DUP1 PUSH1 0x3 NOT CALLDATASIZE ADD SLT PUSH2 0x25A JUMPI PUSH1 0x4 CALLDATALOAD PUSH1 0x1 PUSH1 0x1 PUSH1 0x40 SHL SUB DUP2 GT PUSH2 0x25A JUMPI PUSH2 0x1869 SWAP1 CALLDATASIZE SWAP1 PUSH1 0x4 ADD PUSH2 0x3486 JUMP JUMPDEST PUSH1 0x0 DUP1 SWAP3 PUSH2 0x1887 DUP2 PUSH1 0x0 SWAP5 DUP2 PUSH1 0x40 MLOAD SWAP4 DUP3 DUP6 DUP1 SWAP5 MLOAD SWAP4 DUP5 SWAP3 ADD PUSH2 0x343E JUMP JUMPDEST DUP2 ADD PUSH1 0xA DUP2 MSTORE SUB ADD SWAP1 KECCAK256 DUP1 SLOAD PUSH2 0x189C DUP2 PUSH2 0x3810 JUMP JUMPDEST SWAP2 PUSH2 0x18AA PUSH1 0x40 MLOAD SWAP4 DUP5 PUSH2 0x3367 JUMP JUMPDEST DUP2 DUP4 MSTORE PUSH1 0x0 SWAP1 DUP2 MSTORE DUP4 DUP2 KECCAK256 DUP5 DUP1 DUP6 ADD JUMPDEST DUP5 DUP5 LT PUSH2 0x196A JUMPI POP POP POP POP POP PUSH1 0x0 SWAP3 JUMPDEST DUP2 MLOAD DUP5 LT ISZERO PUSH2 0x1952 JUMPI PUSH1 0xC0 PUSH2 0x18DF DUP6 DUP5 PUSH2 0x3B88 JUMP JUMPDEST MLOAD ADD MLOAD ISZERO PUSH2 0x193F JUMPI DUP3 PUSH2 0x18F2 DUP6 DUP5 PUSH2 0x3B88 JUMP JUMPDEST MLOAD ADD MLOAD PUSH1 0x2 DUP2 LT ISZERO PUSH2 0x1929 JUMPI PUSH2 0x1916 JUMPI PUSH2 0x190D PUSH1 0x1 SWAP2 PUSH2 0x3A82 JUMP JUMPDEST SWAP4 JUMPDEST ADD SWAP3 PUSH2 0x18CA JUMP JUMPDEST SWAP3 SWAP5 PUSH2 0x1923 PUSH1 0x1 SWAP2 PUSH2 0x3A82 JUMP JUMPDEST SWAP6 PUSH2 0x190F JUMP JUMPDEST PUSH4 0x4E487B71 PUSH1 0xE0 SHL PUSH1 0x0 MSTORE PUSH1 0x21 PUSH1 0x4 MSTORE PUSH1 0x24 PUSH1 0x0 REVERT JUMPDEST SWAP3 SWAP4 PUSH2 0x194C PUSH1 0x1 SWAP2 PUSH2 0x3A82 JUMP JUMPDEST SWAP5 PUSH2 0x190F JUMP JUMPDEST PUSH1 0x40 DUP1 MLOAD SWAP2 DUP3 MSTORE PUSH1 0x20 DUP3 ADD DUP8 SWAP1 MSTORE DUP2 ADD DUP6 SWAP1 MSTORE PUSH1 0x60 SWAP1 RETURN JUMPDEST PUSH1 0x1 SWAP2 PUSH1 0x4 SWAP2 PUSH2 0x1979 DUP6 PUSH2 0x3ABF JUMP JUMPDEST DUP2 MSTORE ADD SWAP3 ADD SWAP3 ADD SWAP2 SWAP1 DUP6 SWAP1 PUSH2 0x18BA JUMP JUMPDEST CALLVALUE PUSH2 0x25A JUMPI PUSH1 0x40 CALLDATASIZE PUSH1 0x3 NOT ADD SLT PUSH2 0x25A JUMPI PUSH1 0x1 PUSH1 0x1 PUSH1 0x40 SHL SUB PUSH1 0x4 CALLDATALOAD DUP2 DUP2 GT PUSH2 0x25A JUMPI PUSH2 0x19BA SWAP1 CALLDATASIZE SWAP1 PUSH1 0x4 ADD PUSH2 0x3486 JUMP JUMPDEST PUSH1 0x24 SWAP2 DUP3 CALLDATALOAD SWAP1 DUP2 GT PUSH2 0x25A JUMPI PUSH2 0x19D4 SWAP1 CALLDATASIZE SWAP1 PUSH1 0x4 ADD PUSH2 0x3486 JUMP JUMPDEST PUSH1 0x0 SLOAD PUSH1 0x40 MLOAD PUSH4 0xCB261A03 PUSH1 0xE0 SHL DUP2 MSTORE CALLER PUSH1 0x4 DUP3 ADD MSTORE PUSH1 0x20 SWAP5 PUSH1 0x1 PUSH1 0x1 PUSH1 0xA0 SHL SUB SWAP3 DUP4 AND SWAP4 SWAP3 SWAP2 DUP7 DUP2 DUP4 DUP2 DUP9 GAS STATICCALL DUP1 ISZERO PUSH2 0x11F1 JUMPI PUSH2 0x1A1A SWAP2 PUSH1 0x0 SWAP2 PUSH2 0x1D7B JUMPI JUMPDEST POP PUSH2 0x383F JUMP JUMPDEST PUSH1 0x40 MLOAD SWAP2 PUSH2 0x1A39 PUSH1 0xFF PUSH1 0x4 DUP9 MLOAD SWAP6 DUP11 DUP2 DUP2 DUP13 ADD SWAP9 PUSH2 0xE99 DUP2 DUP4 DUP13 PUSH2 0x343E JUMP JUMPDEST PUSH2 0x1A50 PUSH1 0x1 PUSH1 0x40 MLOAD DUP10 DUP2 DUP11 MLOAD PUSH2 0xF6B DUP2 DUP4 DUP12 PUSH2 0x343E JUMP JUMPDEST SWAP5 DUP8 PUSH1 0x40 MLOAD DUP1 SWAP3 PUSH4 0x286B6AB PUSH1 0xE3 SHL DUP3 MSTORE DUP2 DUP1 PUSH2 0x1A71 CALLER DUP13 PUSH1 0x4 DUP5 ADD PUSH2 0x3883 JUMP JUMPDEST SUB SWAP2 GAS STATICCALL DUP1 ISZERO PUSH2 0x11F1 JUMPI PUSH2 0x1A8C SWAP2 PUSH1 0x0 SWAP2 PUSH2 0x1D64 JUMPI POP PUSH2 0x38AB JUMP JUMPDEST PUSH1 0x40 MLOAD DUP8 DUP2 DUP9 MLOAD PUSH2 0x1A9E DUP2 DUP4 DUP10 PUSH2 0x343E JUMP JUMPDEST DUP2 ADD PUSH1 0xB DUP2 MSTORE SUB ADD SWAP1 KECCAK256 CALLER PUSH1 0x0 MSTORE DUP8 MSTORE PUSH1 0xFF PUSH1 0x40 PUSH1 0x0 KECCAK256 SLOAD AND PUSH2 0x1D20 JUMPI PUSH1 0x40 MLOAD DUP8 DUP2 DUP9 MLOAD PUSH2 0x1ACD DUP2 DUP4 DUP10 PUSH2 0x343E JUMP JUMPDEST DUP2 ADD PUSH1 0xA DUP2 MSTORE SUB ADD SWAP1 KECCAK256 SLOAD SWAP4 PUSH1 0x40 MLOAD DUP9 DUP2 DUP10 MLOAD PUSH2 0x1AEB DUP2 DUP4 DUP11 PUSH2 0x343E JUMP JUMPDEST DUP2 ADD PUSH1 0xA DUP2 MSTORE SUB ADD SWAP1 KECCAK256 SWAP2 PUSH1 0x40 MLOAD SWAP4 PUSH2 0x1B03 DUP6 PUSH2 0x334C JUMP JUMPDEST CALLER DUP6 MSTORE DUP10 DUP6 ADD PUSH1 0x0 DUP2 MSTORE PUSH1 0x40 DUP7 ADD PUSH1 0x0 DUP2 MSTORE PUSH1 0x60 DUP8 ADD SWAP2 PUSH1 0x0 DUP4 MSTORE PUSH1 0x80 DUP9 ADD SWAP5 TIMESTAMP DUP7 MSTORE PUSH1 0xA0 DUP10 ADD SWAP7 DUP8 MSTORE PUSH1 0xC0 DUP10 ADD SWAP8 PUSH1 0x1 DUP10 MSTORE DUP1 SLOAD SWAP1 PUSH1 0x1 PUSH1 0x40 SHL DUP3 LT ISZERO PUSH2 0x1129 JUMPI SWAP1 PUSH2 0x1B55 SWAP2 PUSH1 0x1 DUP3 ADD DUP2 SSTORE PUSH2 0x366F JUMP JUMPDEST SWAP10 SWAP1 SWAP10 PUSH2 0x1D0B JUMPI MLOAD AND DUP9 SLOAD SWAP2 DUP2 PUSH1 0x1 PUSH1 0x1 PUSH1 0x60 SHL SUB PUSH1 0xA0 SHL DUP5 AND OR DUP11 SSTORE MLOAD PUSH1 0x2 DUP2 LT ISZERO PUSH2 0x1CF6 JUMPI PUSH1 0x1 PUSH1 0x1 PUSH1 0xA8 SHL SUB NOT SWAP1 SWAP3 AND OR PUSH1 0xA0 SWAP2 SWAP1 SWAP2 SHL PUSH1 0xFF PUSH1 0xA0 SHL AND OR DUP8 SSTORE MLOAD PUSH1 0x4 DUP2 LT ISZERO PUSH2 0x1CE1 JUMPI PUSH2 0x1BAC SWAP1 DUP8 PUSH2 0x37A8 JUMP JUMPDEST MLOAD SWAP1 PUSH1 0x6 DUP3 LT ISZERO PUSH2 0x1CCD JUMPI POP DUP10 DUP10 SWAP7 PUSH2 0x1C02 DUP8 PUSH1 0x3 DUP5 SWAP9 PUSH2 0x1BEC DUP15 SWAP10 PUSH2 0x1CCB SWAP15 SWAP10 PUSH2 0x1BDC PUSH2 0x1C45 SWAP11 PUSH1 0xF SWAP16 PUSH2 0x37CC JUMP JUMPDEST MLOAD PUSH1 0x1 DUP7 ADD SSTORE MLOAD PUSH1 0x2 DUP6 ADD PUSH2 0x3943 JUMP JUMPDEST MLOAD ISZERO ISZERO SWAP2 ADD SWAP1 PUSH1 0xFF DUP1 NOT DUP4 SLOAD AND SWAP2 ISZERO ISZERO AND OR SWAP1 SSTORE JUMP JUMPDEST PUSH1 0x40 MLOAD DUP3 DUP2 DUP11 MLOAD PUSH2 0x1C14 DUP2 DUP4 DUP8 PUSH2 0x343E JUMP JUMPDEST DUP2 ADD PUSH1 0xB DUP2 MSTORE SUB ADD SWAP1 KECCAK256 CALLER PUSH1 0x0 MSTORE DUP3 MSTORE PUSH1 0x40 PUSH1 0x0 KECCAK256 PUSH1 0x1 PUSH1 0xFF NOT DUP3 SLOAD AND OR SWAP1 SSTORE PUSH1 0x40 MLOAD DUP1 SWAP4 DUP2 SWAP3 DUP11 MLOAD SWAP3 DUP4 SWAP2 PUSH2 0x343E JUMP JUMPDEST DUP2 ADD PUSH1 0xC DUP2 MSTORE SUB ADD SWAP1 KECCAK256 CALLER PUSH1 0x0 MSTORE DUP4 MSTORE PUSH1 0x40 PUSH1 0x0 KECCAK256 SSTORE PUSH2 0x1C66 PUSH1 0x11 SLOAD PUSH2 0x3A82 JUMP JUMPDEST PUSH1 0x11 SSTORE PUSH2 0x1C7B PUSH2 0x1C75 DUP6 PUSH2 0x37F0 JUMP JUMPDEST SWAP2 PUSH2 0x37F0 JUMP JUMPDEST PUSH1 0x40 MLOAD SWAP2 PUSH1 0x0 DUP4 MSTORE PUSH1 0x0 DUP5 DUP5 ADD MSTORE PUSH1 0x0 PUSH1 0x40 DUP5 ADD MSTORE TIMESTAMP PUSH1 0x60 DUP5 ADD MSTORE PUSH32 0x7113F0BF6C156DE91047BC1021122F5E7103953F26C0628FDC1910EA15794B58 PUSH1 0x80 CALLER SWAP5 LOG4 CALLER PUSH1 0x0 MSTORE MSTORE PUSH1 0x40 PUSH1 0x0 KECCAK256 PUSH2 0x3A55 JUMP JUMPDEST STOP JUMPDEST PUSH4 0x4E487B71 PUSH1 0xE0 SHL PUSH1 0x0 SWAP1 DUP2 MSTORE PUSH1 0x21 PUSH1 0x4 MSTORE REVERT JUMPDEST DUP3 PUSH4 0x4E487B71 PUSH1 0xE0 SHL PUSH1 0x0 MSTORE PUSH1 0x21 PUSH1 0x4 MSTORE PUSH1 0x0 REVERT JUMPDEST DUP6 PUSH4 0x4E487B71 PUSH1 0xE0 SHL PUSH1 0x0 MSTORE PUSH1 0x21 PUSH1 0x4 MSTORE PUSH1 0x0 REVERT JUMPDEST DUP6 PUSH4 0x4E487B71 PUSH1 0xE0 SHL PUSH1 0x0 MSTORE PUSH1 0x0 PUSH1 0x4 MSTORE PUSH1 0x0 REVERT JUMPDEST PUSH1 0x40 MLOAD PUSH3 0x461BCD PUSH1 0xE5 SHL DUP2 MSTORE PUSH1 0x4 DUP2 ADD DUP9 SWAP1 MSTORE PUSH1 0x1C DUP2 DUP5 ADD MSTORE PUSH32 0x416C72656164792072657669657765642074686973207265636F726400000000 PUSH1 0x44 DUP3 ADD MSTORE PUSH1 0x64 SWAP1 REVERT JUMPDEST PUSH2 0x11E4 SWAP2 POP DUP10 RETURNDATASIZE DUP12 GT PUSH2 0x11EA JUMPI PUSH2 0x11DC DUP2 DUP4 PUSH2 0x3367 JUMP JUMPDEST PUSH2 0x1D92 SWAP2 POP DUP9 RETURNDATASIZE DUP11 GT PUSH2 0x11EA JUMPI PUSH2 0x11DC DUP2 DUP4 PUSH2 0x3367 JUMP JUMPDEST DUP9 PUSH2 0x1A14 JUMP JUMPDEST CALLVALUE PUSH2 0x25A JUMPI PUSH2 0x1DA6 CALLDATASIZE PUSH2 0x3560 JUMP JUMPDEST PUSH1 0x0 DUP1 PUSH1 0x40 MLOAD DUP5 DUP2 DUP1 SWAP7 MLOAD PUSH2 0x1DC1 DUP2 PUSH1 0x20 SWAP10 DUP11 DUP1 SWAP7 ADD PUSH2 0x343E JUMP JUMPDEST DUP2 ADD PUSH1 0xD DUP2 MSTORE SUB ADD SWAP1 KECCAK256 PUSH1 0x1 DUP1 PUSH1 0xA0 SHL SUB DUP1 SWAP5 AND PUSH1 0x0 MSTORE DUP5 MSTORE PUSH1 0x40 PUSH1 0x0 KECCAK256 DUP1 SLOAD SWAP1 PUSH2 0x1DEB DUP3 PUSH2 0x3810 JUMP JUMPDEST SWAP5 PUSH2 0x1DF9 PUSH1 0x40 MLOAD SWAP7 DUP8 PUSH2 0x3367 JUMP JUMPDEST DUP3 DUP7 MSTORE PUSH1 0x0 SWAP2 DUP3 MSTORE DUP7 DUP3 KECCAK256 SWAP1 DUP8 DUP1 DUP9 ADD JUMPDEST DUP6 DUP6 LT PUSH2 0x1E69 JUMPI POP DUP8 PUSH1 0x0 DUP8 DUP10 JUMPDEST DUP4 MLOAD DUP4 LT ISZERO PUSH2 0x1E5B JUMPI DUP5 PUSH2 0x1E2C DUP5 DUP7 PUSH2 0x3B88 JUMP JUMPDEST MLOAD ADD MLOAD ISZERO PUSH2 0x1E48 JUMPI PUSH2 0x1E3F PUSH1 0x1 SWAP2 PUSH2 0x3A82 JUMP JUMPDEST SWAP3 JUMPDEST ADD SWAP2 PUSH2 0x1E18 JUMP JUMPDEST SWAP2 SWAP1 PUSH2 0x1E55 PUSH1 0x1 SWAP2 PUSH2 0x3A82 JUMP JUMPDEST SWAP2 PUSH2 0x1E41 JUMP JUMPDEST PUSH1 0x40 SWAP2 DUP6 DUP4 MLOAD SWAP3 DUP4 MSTORE DUP3 ADD MSTORE RETURN JUMPDEST PUSH1 0x1 SWAP2 PUSH1 0x2 SWAP2 PUSH1 0x40 MLOAD PUSH2 0x1E7B DUP2 PUSH2 0x32FA JUMP JUMPDEST PUSH1 0xFF DUP8 SLOAD DUP8 DUP2 AND DUP4 MSTORE PUSH1 0xA0 SHR AND ISZERO ISZERO DUP4 DUP3 ADD MSTORE DUP5 DUP8 ADD SLOAD PUSH1 0x40 DUP3 ADD MSTORE DUP2 MSTORE ADD SWAP4 ADD SWAP4 ADD SWAP3 SWAP2 DUP9 SWAP1 PUSH2 0x1E0A JUMP JUMPDEST CALLVALUE PUSH2 0x25A JUMPI PUSH1 0x20 CALLDATASIZE PUSH1 0x3 NOT ADD SLT PUSH2 0x25A JUMPI PUSH1 0x4 CALLDATALOAD SWAP1 PUSH1 0x1 PUSH1 0x1 PUSH1 0x40 SHL SUB DUP3 GT PUSH2 0x25A JUMPI PUSH2 0x1EE0 PUSH1 0x20 PUSH2 0x5EB PUSH2 0x1F42 SWAP5 CALLDATASIZE SWAP1 PUSH1 0x4 ADD PUSH2 0x3486 JUMP JUMPDEST DUP2 ADD PUSH1 0x2 DUP2 MSTORE SUB ADD SWAP1 KECCAK256 PUSH2 0x1EF3 DUP2 PUSH2 0x3388 JUMP JUMPDEST SWAP2 PUSH1 0xFF PUSH1 0x1 DUP1 PUSH1 0xA0 SHL SUB SWAP3 DUP4 PUSH1 0x1 DUP3 ADD SLOAD AND SWAP4 PUSH1 0x2 DUP3 ADD SLOAD AND SWAP1 PUSH2 0x1F5A PUSH2 0x1F1C PUSH1 0x3 DUP4 ADD PUSH2 0x3388 JUMP JUMPDEST SWAP6 PUSH1 0x4 DUP4 ADD SLOAD SWAP7 PUSH1 0x6 PUSH1 0x5 DUP6 ADD SLOAD SWAP5 ADD SLOAD SWAP5 PUSH1 0x40 MLOAD SWAP11 DUP12 SWAP11 PUSH2 0x100 DUP1 DUP14 MSTORE DUP13 ADD SWAP1 PUSH2 0x3461 JUMP JUMPDEST SWAP3 PUSH1 0x20 DUP12 ADD MSTORE PUSH1 0x40 DUP11 ADD MSTORE DUP9 DUP3 SUB PUSH1 0x60 DUP11 ADD MSTORE PUSH2 0x3461 JUMP JUMPDEST SWAP5 PUSH1 0x80 DUP8 ADD MSTORE PUSH1 0xA0 DUP7 ADD MSTORE DUP2 DUP2 AND ISZERO ISZERO PUSH1 0xC0 DUP7 ADD MSTORE PUSH1 0x8 SHR AND ISZERO ISZERO SWAP1 DUP4 ADD MSTORE SUB SWAP1 RETURN JUMPDEST CALLVALUE PUSH2 0x25A JUMPI PUSH1 0x40 CALLDATASIZE PUSH1 0x3 NOT ADD SLT PUSH2 0x25A JUMPI PUSH2 0x1F96 PUSH2 0x3266 JUMP JUMPDEST PUSH1 0x1 PUSH1 0x1 PUSH1 0xA0 SHL SUB AND PUSH1 0x0 SWAP1 DUP2 MSTORE PUSH1 0x3 PUSH1 0x20 MSTORE PUSH1 0x40 SWAP1 KECCAK256 DUP1 SLOAD PUSH1 0x24 CALLDATALOAD SWAP1 DUP2 LT ISZERO PUSH2 0x25A JUMPI PUSH2 0x7A6 PUSH2 0x7AC SWAP2 PUSH2 0x256 SWAP4 PUSH2 0x3292 JUMP JUMPDEST CALLVALUE PUSH2 0x25A JUMPI PUSH2 0x1FD8 CALLDATASIZE PUSH2 0x35A1 JUMP JUMPDEST PUSH1 0x0 SLOAD PUSH1 0x40 MLOAD PUSH4 0x45ECD02F PUSH1 0xE0 SHL DUP2 MSTORE CALLER PUSH1 0x4 DUP3 ADD MSTORE PUSH1 0x1 PUSH1 0x1 PUSH1 0xA0 SHL SUB SWAP6 PUSH1 0x20 SWAP6 SWAP4 SWAP1 SWAP3 SWAP1 SWAP2 SWAP1 DUP8 AND SWAP1 DUP7 DUP2 PUSH1 0x24 DUP2 DUP6 GAS STATICCALL DUP1 ISZERO PUSH2 0x11F1 JUMPI PUSH2 0x2022 SWAP2 PUSH1 0x0 SWAP2 PUSH2 0x2358 JUMPI POP PUSH2 0x3B45 JUMP JUMPDEST DUP6 PUSH1 0x40 MLOAD DUP1 SWAP3 PUSH4 0x286B6AB PUSH1 0xE3 SHL DUP3 MSTORE DUP2 DUP1 PUSH2 0x2042 CALLER DUP12 PUSH1 0x4 DUP5 ADD PUSH2 0x3883 JUMP JUMPDEST SUB SWAP2 GAS STATICCALL DUP1 ISZERO PUSH2 0x11F1 JUMPI PUSH2 0x205D SWAP2 PUSH1 0x0 SWAP2 PUSH2 0x233B JUMPI POP PUSH2 0x38AB JUMP JUMPDEST DUP3 MLOAD ISZERO PUSH2 0x22F6 JUMPI DUP6 SWAP1 PUSH2 0x2072 DUP6 MLOAD ISZERO ISZERO PUSH2 0x38F7 JUMP JUMPDEST AND SWAP5 DUP6 ISZERO PUSH2 0x22B1 JUMPI CALLER DUP7 EQ PUSH2 0x226C JUMPI PUSH1 0x40 MLOAD SWAP1 PUSH1 0xFF PUSH1 0x6 DUP6 MLOAD SWAP4 DUP9 DUP2 DUP2 DUP10 ADD SWAP7 PUSH2 0x209D DUP2 DUP4 DUP11 PUSH2 0x343E JUMP JUMPDEST DUP2 ADD PUSH1 0x2 DUP2 MSTORE SUB ADD SWAP1 KECCAK256 ADD SLOAD PUSH1 0x8 SHR AND PUSH2 0x2227 JUMPI PUSH1 0x40 MLOAD SWAP1 PUSH2 0x20BE DUP3 PUSH2 0x3330 JUMP JUMPDEST DUP5 DUP3 MSTORE DUP7 DUP3 ADD CALLER DUP2 MSTORE PUSH1 0x40 DUP4 ADD DUP10 DUP2 MSTORE PUSH1 0x60 DUP5 ADD SWAP1 DUP9 DUP3 MSTORE PUSH1 0x80 DUP6 ADD SWAP3 TIMESTAMP DUP5 MSTORE PUSH1 0xA0 DUP7 ADD SWAP5 PUSH1 0x0 DUP7 MSTORE PUSH1 0xC0 DUP8 ADD SWAP9 PUSH1 0x1 DUP11 MSTORE DUP8 ADD SWAP8 PUSH1 0x1 DUP10 MSTORE DUP13 DUP12 PUSH1 0x40 MLOAD DUP1 SWAP4 DUP2 SWAP3 MLOAD DUP1 SWAP3 PUSH2 0x210C SWAP3 PUSH2 0x343E JUMP JUMPDEST DUP2 ADD PUSH1 0x2 DUP2 MSTORE SUB ADD SWAP1 KECCAK256 SWAP7 MLOAD PUSH2 0x2122 SWAP1 DUP9 PUSH2 0x3943 JUMP JUMPDEST DUP1 PUSH1 0x1 DUP9 ADD SWAP3 MLOAD AND SWAP2 PUSH1 0x1 PUSH1 0x1 PUSH1 0x60 SHL SUB PUSH1 0xA0 SHL SWAP3 DUP4 DUP3 SLOAD AND OR SWAP1 SSTORE PUSH1 0x2 DUP8 ADD SWAP3 MLOAD AND SWAP1 DUP3 SLOAD AND OR SWAP1 SSTORE MLOAD PUSH1 0x3 DUP5 ADD SWAP1 PUSH2 0x215B SWAP2 PUSH2 0x3943 JUMP JUMPDEST MLOAD PUSH1 0x4 DUP4 ADD SSTORE MLOAD PUSH1 0x5 DUP3 ADD SSTORE PUSH1 0x6 ADD SWAP2 MLOAD ISZERO ISZERO PUSH2 0x2184 SWAP1 DUP4 SWAP1 PUSH1 0xFF DUP1 NOT DUP4 SLOAD AND SWAP2 ISZERO ISZERO AND OR SWAP1 SSTORE JUMP JUMPDEST MLOAD ISZERO ISZERO DUP2 SLOAD SWAP1 PUSH1 0x8 SHL PUSH2 0xFF00 AND SWAP1 PUSH2 0xFF00 NOT AND OR SWAP1 SSTORE CALLER PUSH1 0x0 MSTORE PUSH1 0x3 DUP4 MSTORE DUP1 PUSH1 0x40 PUSH1 0x0 KECCAK256 SWAP1 PUSH2 0x21B2 SWAP2 PUSH2 0x3A55 JUMP JUMPDEST DUP4 PUSH1 0x0 MSTORE PUSH1 0x4 DUP4 MSTORE DUP1 PUSH1 0x40 PUSH1 0x0 KECCAK256 SWAP1 PUSH2 0x21CA SWAP2 PUSH2 0x3A55 JUMP JUMPDEST PUSH1 0x5 SLOAD PUSH2 0x21D6 SWAP1 PUSH2 0x3A82 JUMP JUMPDEST PUSH1 0x5 SSTORE PUSH2 0x21E2 SWAP1 PUSH2 0x37F0 JUMP JUMPDEST SWAP1 PUSH1 0x40 MLOAD SWAP1 PUSH1 0x40 DUP3 MSTORE PUSH1 0x40 DUP3 ADD PUSH2 0x21F8 SWAP2 PUSH2 0x3461 JUMP JUMPDEST SWAP3 TIMESTAMP SWAP1 DUP3 ADD MSTORE DUP1 CALLER SWAP4 SUB PUSH32 0x4E9B2250DC310298285671060EEB083837ADB673CEDB4FCFF8837A53196E885F SWAP2 LOG4 STOP JUMPDEST PUSH1 0x40 MLOAD PUSH3 0x461BCD PUSH1 0xE5 SHL DUP2 MSTORE PUSH1 0x4 DUP2 ADD DUP8 SWAP1 MSTORE PUSH1 0x19 PUSH1 0x24 DUP3 ADD MSTORE PUSH32 0x5065726D697373696F6E20616C72656164792065786973747300000000000000 PUSH1 0x44 DUP3 ADD MSTORE PUSH1 0x64 SWAP1 REVERT JUMPDEST PUSH1 0x40 MLOAD PUSH3 0x461BCD PUSH1 0xE5 SHL DUP2 MSTORE PUSH1 0x4 DUP2 ADD DUP7 SWAP1 MSTORE PUSH1 0x1A PUSH1 0x24 DUP3 ADD MSTORE PUSH32 0x43616E6E6F74207368617265207769746820796F757273656C66000000000000 PUSH1 0x44 DUP3 ADD MSTORE PUSH1 0x64 SWAP1 REVERT JUMPDEST PUSH1 0x40 MLOAD PUSH3 0x461BCD PUSH1 0xE5 SHL DUP2 MSTORE PUSH1 0x4 DUP2 ADD DUP7 SWAP1 MSTORE PUSH1 0x1F PUSH1 0x24 DUP3 ADD MSTORE PUSH32 0x526563656976657220616464726573732063616E6E6F74206265207A65726F00 PUSH1 0x44 DUP3 ADD MSTORE PUSH1 0x64 SWAP1 REVERT JUMPDEST PUSH1 0x40 MLOAD PUSH3 0x461BCD PUSH1 0xE5 SHL DUP2 MSTORE PUSH1 0x4 DUP2 ADD DUP7 SWAP1 MSTORE PUSH1 0x1F PUSH1 0x24 DUP3 ADD MSTORE PUSH32 0x5065726D697373696F6E20686173682063616E6E6F7420626520656D70747900 PUSH1 0x44 DUP3 ADD MSTORE PUSH1 0x64 SWAP1 REVERT JUMPDEST PUSH2 0x2352 SWAP2 POP DUP8 RETURNDATASIZE DUP10 GT PUSH2 0x11EA JUMPI PUSH2 0x11DC DUP2 DUP4 PUSH2 0x3367 JUMP JUMPDEST DUP9 PUSH2 0xFAF JUMP JUMPDEST PUSH2 0x12A1 SWAP2 POP DUP9 RETURNDATASIZE DUP11 GT PUSH2 0x11EA JUMPI PUSH2 0x11DC DUP2 DUP4 PUSH2 0x3367 JUMP JUMPDEST CALLVALUE PUSH2 0x25A JUMPI PUSH1 0x0 CALLDATASIZE PUSH1 0x3 NOT ADD SLT PUSH2 0x25A JUMPI PUSH1 0x20 PUSH1 0x5 SLOAD PUSH1 0x40 MLOAD SWAP1 DUP2 MSTORE RETURN JUMPDEST CALLVALUE PUSH2 0x25A JUMPI PUSH1 0x60 CALLDATASIZE PUSH1 0x3 NOT ADD SLT PUSH2 0x25A JUMPI PUSH1 0x4 CALLDATALOAD PUSH1 0x1 PUSH1 0x1 PUSH1 0x40 SHL SUB DUP2 GT PUSH2 0x25A JUMPI PUSH2 0x23BD SWAP1 CALLDATASIZE SWAP1 PUSH1 0x4 ADD PUSH2 0x3486 JUMP JUMPDEST PUSH2 0x23C5 PUSH2 0x327C JUMP JUMPDEST PUSH2 0x23E1 PUSH1 0x20 PUSH1 0x44 CALLDATALOAD SWAP4 DUP2 PUSH1 0x40 MLOAD SWAP4 DUP3 DUP6 DUP1 SWAP5 MLOAD SWAP4 DUP5 SWAP3 ADD PUSH2 0x343E JUMP JUMPDEST DUP2 ADD PUSH1 0xD DUP2 MSTORE SUB ADD SWAP1 KECCAK256 PUSH1 0x1 DUP1 PUSH1 0xA0 SHL SUB DUP1 SWAP3 AND PUSH1 0x0 MSTORE PUSH1 0x20 MSTORE PUSH1 0x40 PUSH1 0x0 KECCAK256 DUP1 SLOAD DUP4 LT ISZERO PUSH2 0x25A JUMPI PUSH1 0x60 SWAP3 PUSH2 0x2415 SWAP2 PUSH2 0x3622 JUMP JUMPDEST POP PUSH1 0xFF PUSH1 0x1 DUP3 SLOAD SWAP3 ADD SLOAD SWAP2 PUSH1 0x40 MLOAD SWAP4 DUP2 AND DUP5 MSTORE PUSH1 0xA0 SHR AND ISZERO ISZERO PUSH1 0x20 DUP4 ADD MSTORE PUSH1 0x40 DUP3 ADD MSTORE RETURN JUMPDEST CALLVALUE PUSH2 0x25A JUMPI PUSH1 0x20 DUP1 PUSH1 0x3 NOT CALLDATASIZE ADD SLT PUSH2 0x25A JUMPI PUSH1 0x4 CALLDATALOAD PUSH1 0x1 PUSH1 0x1 PUSH1 0x40 SHL SUB DUP2 GT PUSH2 0x25A JUMPI DUP2 PUSH2 0x5EB PUSH2 0x246F SWAP3 CALLDATASIZE SWAP1 PUSH1 0x4 ADD PUSH2 0x3486 JUMP JUMPDEST DUP2 ADD PUSH1 0xA DUP2 MSTORE SUB ADD SWAP1 KECCAK256 DUP1 SLOAD SWAP2 PUSH2 0x2485 DUP4 PUSH2 0x3810 JUMP JUMPDEST SWAP3 PUSH2 0x2493 PUSH1 0x40 MLOAD SWAP5 DUP6 PUSH2 0x3367 JUMP JUMPDEST DUP1 DUP5 MSTORE DUP2 DUP5 ADD DUP1 SWAP4 PUSH1 0x0 MSTORE DUP3 PUSH1 0x0 KECCAK256 PUSH1 0x0 SWAP2 JUMPDEST DUP4 DUP4 LT PUSH2 0x2574 JUMPI POP POP POP POP PUSH1 0x40 MLOAD SWAP3 DUP2 DUP5 ADD SWAP1 DUP3 DUP6 MSTORE MLOAD DUP1 SWAP2 MSTORE PUSH1 0x40 DUP5 ADD SWAP2 PUSH1 0x40 DUP3 PUSH1 0x5 SHL DUP7 ADD ADD SWAP4 SWAP3 PUSH1 0x0 SWAP7 JUMPDEST DUP4 DUP9 LT PUSH2 0x24E1 JUMPI DUP7 DUP7 SUB DUP8 RETURN JUMPDEST SWAP1 SWAP2 SWAP3 SWAP4 SWAP5 DUP4 DUP1 PUSH1 0x1 SWAP3 PUSH1 0x3F NOT DUP11 DUP3 SUB ADD DUP7 MSTORE DUP9 MLOAD SWAP1 DUP5 DUP1 PUSH1 0xA0 SHL SUB DUP3 MLOAD AND DUP2 MSTORE PUSH2 0x2512 DUP4 DUP4 ADD MLOAD DUP5 DUP4 ADD SWAP1 PUSH2 0x35FB JUMP JUMPDEST PUSH2 0x2524 PUSH1 0x40 DUP4 ADD MLOAD PUSH1 0x40 DUP4 ADD SWAP1 PUSH2 0x3608 JUMP JUMPDEST PUSH2 0x2536 PUSH1 0x60 DUP1 DUP5 ADD MLOAD SWAP1 DUP4 ADD SWAP1 PUSH2 0x3615 JUMP JUMPDEST PUSH1 0x80 DUP1 DUP4 ADD MLOAD SWAP1 DUP3 ADD MSTORE PUSH2 0x2557 PUSH1 0xA0 DUP8 DUP2 DUP6 ADD MLOAD SWAP2 DUP5 ADD MSTORE DUP8 DUP4 ADD SWAP1 PUSH2 0x3461 JUMP JUMPDEST SWAP2 PUSH1 0xC0 DUP1 SWAP2 ADD MLOAD ISZERO ISZERO SWAP2 ADD MSTORE SWAP8 ADD SWAP4 ADD SWAP8 ADD SWAP7 SWAP1 SWAP4 SWAP3 SWAP2 SWAP4 PUSH2 0x24D4 JUMP JUMPDEST PUSH1 0x4 DUP6 PUSH1 0x1 SWAP3 PUSH2 0x2586 DUP6 SWAP11 SWAP9 SWAP11 PUSH2 0x3ABF JUMP JUMPDEST DUP2 MSTORE ADD SWAP3 ADD SWAP3 ADD SWAP2 SWAP1 SWAP6 SWAP4 SWAP6 PUSH2 0x24A6 JUMP JUMPDEST CALLVALUE PUSH2 0x25A JUMPI PUSH1 0x20 PUSH2 0x25A7 CALLDATASIZE PUSH2 0x3560 JUMP JUMPDEST SWAP1 DUP3 PUSH2 0x25BC PUSH1 0x40 MLOAD SWAP3 DUP4 DUP2 MLOAD SWAP4 DUP5 SWAP3 ADD PUSH2 0x343E JUMP JUMPDEST PUSH1 0x6 SWAP1 DUP3 ADD SWAP1 DUP2 MSTORE DUP2 SWAP1 SUB DUP4 ADD SWAP1 KECCAK256 PUSH1 0x2 ADD SLOAD PUSH1 0x40 MLOAD PUSH1 0x1 PUSH1 0x1 PUSH1 0xA0 SHL SUB SWAP3 DUP4 AND SWAP2 SWAP1 SWAP3 AND EQ DUP2 MSTORE RETURN JUMPDEST CALLVALUE PUSH2 0x25A JUMPI PUSH1 0x0 CALLDATASIZE PUSH1 0x3 NOT ADD SLT PUSH2 0x25A JUMPI PUSH1 0x20 PUSH1 0x9 SLOAD PUSH1 0x40 MLOAD SWAP1 DUP2 MSTORE RETURN JUMPDEST CALLVALUE PUSH2 0x25A JUMPI PUSH1 0x80 CALLDATASIZE PUSH1 0x3 NOT ADD SLT PUSH2 0x25A JUMPI PUSH1 0x1 PUSH1 0x1 PUSH1 0x40 SHL SUB PUSH1 0x4 CALLDATALOAD DUP2 DUP2 GT PUSH2 0x25A JUMPI PUSH2 0x2635 SWAP1 CALLDATASIZE SWAP1 PUSH1 0x4 ADD PUSH2 0x3486 JUMP JUMPDEST PUSH2 0x263D PUSH2 0x34DC JUMP JUMPDEST PUSH2 0x2645 PUSH2 0x34EC JUMP JUMPDEST SWAP3 PUSH1 0x64 CALLDATALOAD SWAP1 DUP2 GT PUSH2 0x25A JUMPI PUSH2 0x265E SWAP1 CALLDATASIZE SWAP1 PUSH1 0x4 ADD PUSH2 0x3486 JUMP JUMPDEST SWAP3 PUSH1 0x1 DUP1 PUSH1 0xA0 SHL SUB PUSH1 0x0 SLOAD AND PUSH1 0x40 MLOAD PUSH4 0xCB261A03 PUSH1 0xE0 SHL DUP2 MSTORE CALLER PUSH1 0x4 DUP3 ADD MSTORE PUSH1 0x20 DUP2 PUSH1 0x24 DUP2 DUP6 GAS STATICCALL DUP1 ISZERO PUSH2 0x11F1 JUMPI PUSH2 0x269D SWAP2 PUSH1 0x0 SWAP2 PUSH2 0x2A80 JUMPI POP PUSH2 0x383F JUMP JUMPDEST PUSH1 0x1 PUSH1 0xFF DUP5 AND LT ISZERO DUP1 PUSH2 0x2A72 JUMPI JUMPDEST PUSH2 0x26B4 SWAP1 PUSH2 0x36CD JUMP JUMPDEST PUSH1 0x1 PUSH1 0xFF DUP4 AND LT ISZERO DUP1 PUSH2 0x2A64 JUMPI JUMPDEST PUSH2 0x26CB SWAP1 PUSH2 0x3710 JUMP JUMPDEST PUSH1 0x4 PUSH1 0xFF DUP5 AND LT ISZERO PUSH2 0x1929 JUMPI PUSH1 0x6 PUSH1 0xFF DUP4 AND LT ISZERO PUSH2 0x1929 JUMPI PUSH2 0x2701 PUSH1 0xFF PUSH1 0x4 PUSH1 0x40 MLOAD PUSH1 0x20 DUP2 DUP2 PUSH2 0xE99 DUP12 DUP4 DUP2 MLOAD SWAP4 DUP5 SWAP3 ADD PUSH2 0x343E JUMP JUMPDEST PUSH2 0x271B PUSH1 0x1 PUSH1 0x40 MLOAD PUSH1 0x20 DUP2 DUP9 MLOAD PUSH2 0xF6B DUP2 DUP4 DUP6 DUP14 ADD PUSH2 0x343E JUMP JUMPDEST SWAP1 PUSH1 0x20 PUSH1 0x40 MLOAD DUP1 SWAP3 PUSH4 0x286B6AB PUSH1 0xE3 SHL DUP3 MSTORE DUP2 DUP1 PUSH2 0x273D CALLER DUP9 PUSH1 0x4 DUP5 ADD PUSH2 0x3883 JUMP JUMPDEST SUB SWAP2 GAS STATICCALL DUP1 ISZERO PUSH2 0x11F1 JUMPI PUSH2 0x2758 SWAP2 PUSH1 0x0 SWAP2 PUSH2 0x2A45 JUMPI POP PUSH2 0x38AB JUMP JUMPDEST PUSH1 0x40 MLOAD PUSH1 0x20 DUP2 DUP7 MLOAD PUSH2 0x276D DUP2 DUP4 DUP6 DUP12 ADD PUSH2 0x343E JUMP JUMPDEST DUP2 ADD PUSH1 0xB DUP2 MSTORE SUB ADD SWAP1 KECCAK256 CALLER PUSH1 0x0 MSTORE PUSH1 0x20 MSTORE PUSH1 0xFF PUSH1 0x40 PUSH1 0x0 KECCAK256 SLOAD AND PUSH2 0x2A00 JUMPI PUSH1 0x40 MLOAD PUSH1 0x20 DUP2 DUP7 MLOAD PUSH2 0x27A0 DUP2 DUP4 DUP6 DUP12 ADD PUSH2 0x343E JUMP JUMPDEST DUP2 ADD PUSH1 0xA DUP2 MSTORE SUB ADD SWAP1 KECCAK256 SLOAD PUSH1 0x40 MLOAD PUSH1 0x20 DUP2 DUP8 MLOAD PUSH2 0x27C0 DUP2 DUP4 DUP6 DUP13 ADD PUSH2 0x343E JUMP JUMPDEST DUP2 ADD PUSH1 0xA DUP2 MSTORE SUB ADD SWAP1 KECCAK256 PUSH1 0x40 MLOAD SWAP7 PUSH2 0x27D7 DUP9 PUSH2 0x334C JUMP JUMPDEST CALLER DUP9 MSTORE PUSH1 0x1 PUSH1 0x20 DUP10 ADD MSTORE PUSH2 0x27F1 PUSH1 0xFF DUP8 AND PUSH1 0x40 DUP11 ADD PUSH2 0x3AA7 JUMP JUMPDEST PUSH2 0x2801 PUSH1 0xFF DUP7 AND PUSH1 0x60 DUP11 ADD PUSH2 0x3AB3 JUMP JUMPDEST TIMESTAMP PUSH1 0x80 DUP10 ADD MSTORE PUSH1 0xA0 DUP9 ADD MSTORE PUSH1 0x1 PUSH1 0xC0 DUP9 ADD MSTORE DUP1 SLOAD PUSH1 0x1 PUSH1 0x40 SHL DUP2 LT ISZERO PUSH2 0x29EA JUMPI PUSH2 0x2830 SWAP2 PUSH1 0x1 DUP3 ADD DUP2 SSTORE PUSH2 0x366F JUMP JUMPDEST PUSH2 0x29D4 JUMPI PUSH1 0x1 DUP1 PUSH1 0xA0 SHL SUB DUP8 MLOAD AND DUP2 SLOAD SWAP1 DUP1 PUSH1 0x1 PUSH1 0x1 PUSH1 0x60 SHL SUB PUSH1 0xA0 SHL DUP4 AND OR DUP4 SSTORE PUSH1 0x20 DUP10 ADD MLOAD PUSH1 0x2 DUP2 LT ISZERO PUSH2 0x1929 JUMPI PUSH1 0x1 PUSH1 0x1 PUSH1 0xA8 SHL SUB NOT SWAP1 SWAP3 AND OR PUSH1 0xA0 SWAP2 SWAP1 SWAP2 SHL PUSH1 0xFF PUSH1 0xA0 SHL AND OR DUP2 SSTORE PUSH1 0x40 DUP8 ADD MLOAD PUSH1 0x4 DUP2 LT ISZERO PUSH2 0x1929 JUMPI PUSH2 0x2894 SWAP1 DUP3 PUSH2 0x37A8 JUMP JUMPDEST PUSH1 0x60 DUP8 ADD MLOAD SWAP1 PUSH1 0x6 DUP3 LT ISZERO PUSH2 0x1929 JUMPI PUSH1 0x3 PUSH1 0xC0 PUSH2 0x1CCB SWAP10 PUSH2 0x28B8 PUSH2 0x28EA SWAP6 DUP6 PUSH2 0x37CC JUMP JUMPDEST PUSH1 0x80 DUP2 ADD MLOAD PUSH1 0x1 DUP6 ADD SSTORE PUSH2 0x28D3 PUSH1 0xA0 DUP3 ADD MLOAD PUSH1 0x2 DUP7 ADD PUSH2 0x3943 JUMP JUMPDEST ADD MLOAD ISZERO ISZERO SWAP2 ADD SWAP1 PUSH1 0xFF DUP1 NOT DUP4 SLOAD AND SWAP2 ISZERO ISZERO AND OR SWAP1 SSTORE JUMP JUMPDEST PUSH1 0x40 MLOAD PUSH1 0x20 DUP2 DUP8 MLOAD PUSH2 0x28FF DUP2 DUP4 DUP6 DUP13 ADD PUSH2 0x343E JUMP JUMPDEST DUP2 ADD PUSH1 0xB DUP2 MSTORE SUB ADD SWAP1 KECCAK256 CALLER PUSH1 0x0 MSTORE PUSH1 0x20 MSTORE PUSH1 0x40 PUSH1 0x0 KECCAK256 PUSH1 0x1 PUSH1 0xFF NOT DUP3 SLOAD AND OR SWAP1 SSTORE PUSH1 0x40 MLOAD PUSH1 0x20 DUP2 DUP8 MLOAD PUSH2 0x2935 DUP2 DUP4 DUP6 DUP13 ADD PUSH2 0x343E JUMP JUMPDEST DUP2 ADD PUSH1 0xC DUP2 MSTORE SUB ADD SWAP1 KECCAK256 CALLER PUSH1 0x0 MSTORE PUSH1 0x20 MSTORE PUSH1 0x40 PUSH1 0x0 KECCAK256 SSTORE PUSH2 0x2957 PUSH1 0x11 SLOAD PUSH2 0x3A82 JUMP JUMPDEST PUSH1 0x11 SSTORE PUSH2 0x2995 PUSH2 0x296F PUSH2 0x2969 DUP7 PUSH2 0x37F0 JUMP JUMPDEST SWAP3 PUSH2 0x37F0 JUMP JUMPDEST SWAP3 PUSH2 0x2988 PUSH1 0x40 MLOAD SWAP6 PUSH1 0x1 DUP8 MSTORE PUSH1 0xFF PUSH1 0x20 DUP9 ADD SWAP2 AND PUSH2 0x3608 JUMP JUMPDEST PUSH1 0xFF PUSH1 0x40 DUP7 ADD SWAP2 AND PUSH2 0x3615 JUMP JUMPDEST TIMESTAMP PUSH1 0x60 DUP5 ADD MSTORE PUSH32 0x7113F0BF6C156DE91047BC1021122F5E7103953F26C0628FDC1910EA15794B58 PUSH1 0x80 CALLER SWAP5 LOG4 CALLER PUSH1 0x0 MSTORE PUSH1 0x10 PUSH1 0x20 MSTORE PUSH1 0x40 PUSH1 0x0 KECCAK256 PUSH2 0x3A55 JUMP JUMPDEST PUSH4 0x4E487B71 PUSH1 0xE0 SHL PUSH1 0x0 MSTORE PUSH1 0x0 PUSH1 0x4 MSTORE PUSH1 0x24 PUSH1 0x0 REVERT JUMPDEST PUSH4 0x4E487B71 PUSH1 0xE0 SHL PUSH1 0x0 MSTORE PUSH1 0x41 PUSH1 0x4 MSTORE PUSH1 0x24 PUSH1 0x0 REVERT JUMPDEST PUSH1 0x40 MLOAD PUSH3 0x461BCD PUSH1 0xE5 SHL DUP2 MSTORE PUSH1 0x20 PUSH1 0x4 DUP3 ADD MSTORE PUSH1 0x1C PUSH1 0x24 DUP3 ADD MSTORE PUSH32 0x416C72656164792072657669657765642074686973207265636F726400000000 PUSH1 0x44 DUP3 ADD MSTORE PUSH1 0x64 SWAP1 REVERT JUMPDEST PUSH2 0x2A5E SWAP2 POP PUSH1 0x20 RETURNDATASIZE PUSH1 0x20 GT PUSH2 0x11EA JUMPI PUSH2 0x11DC DUP2 DUP4 PUSH2 0x3367 JUMP JUMPDEST DUP8 PUSH2 0xFAF JUMP JUMPDEST POP PUSH1 0x5 PUSH1 0xFF DUP4 AND GT ISZERO PUSH2 0x26C2 JUMP JUMPDEST POP PUSH1 0x3 PUSH1 0xFF DUP5 AND GT ISZERO PUSH2 0x26AB JUMP JUMPDEST PUSH2 0x2A99 SWAP2 POP PUSH1 0x20 RETURNDATASIZE PUSH1 0x20 GT PUSH2 0x11EA JUMPI PUSH2 0x11DC DUP2 DUP4 PUSH2 0x3367 JUMP JUMPDEST DUP8 PUSH2 0x1A14 JUMP JUMPDEST CALLVALUE PUSH2 0x25A JUMPI PUSH2 0x2AAD CALLDATASIZE PUSH2 0x35A1 JUMP JUMPDEST PUSH1 0x0 SLOAD PUSH1 0x40 MLOAD PUSH4 0xCB261A03 PUSH1 0xE0 SHL DUP2 MSTORE CALLER PUSH1 0x4 DUP3 ADD MSTORE PUSH1 0x1 PUSH1 0x1 PUSH1 0xA0 SHL SUB SWAP5 PUSH1 0x20 SWAP5 SWAP4 SWAP1 SWAP3 SWAP1 SWAP2 SWAP1 DUP7 AND SWAP1 DUP6 DUP2 PUSH1 0x24 DUP2 DUP6 GAS STATICCALL DUP1 ISZERO PUSH2 0x11F1 JUMPI PUSH2 0x2AF7 SWAP2 PUSH1 0x0 SWAP2 PUSH2 0x2DA4 JUMPI POP PUSH2 0x383F JUMP JUMPDEST DUP5 PUSH1 0x40 MLOAD DUP1 SWAP3 PUSH4 0x286B6AB PUSH1 0xE3 SHL DUP3 MSTORE DUP2 DUP1 PUSH2 0x2B17 CALLER DUP11 PUSH1 0x4 DUP5 ADD PUSH2 0x3883 JUMP JUMPDEST SUB SWAP2 GAS STATICCALL DUP1 ISZERO PUSH2 0x11F1 JUMPI PUSH2 0x2B32 SWAP2 PUSH1 0x0 SWAP2 PUSH2 0x2D8D JUMPI POP PUSH2 0x38AB JUMP JUMPDEST DUP2 MLOAD ISZERO PUSH2 0x2D51 JUMPI DUP5 SWAP1 PUSH2 0x2B47 DUP5 MLOAD ISZERO ISZERO PUSH2 0x38F7 JUMP JUMPDEST AND SWAP4 DUP5 ISZERO PUSH2 0x2D0C JUMPI PUSH1 0x40 MLOAD SWAP1 PUSH1 0xFF PUSH1 0x4 DUP5 MLOAD SWAP4 DUP8 DUP2 DUP2 DUP9 ADD SWAP7 PUSH2 0x2B6B DUP2 DUP4 DUP11 PUSH2 0x343E JUMP JUMPDEST DUP2 ADD PUSH1 0x6 DUP2 MSTORE SUB ADD SWAP1 KECCAK256 ADD SLOAD PUSH1 0xA0 SHR AND PUSH2 0x2CCF JUMPI PUSH2 0x2CBA DUP4 PUSH2 0x2C6A PUSH1 0x40 SWAP5 PUSH32 0x4420E8451168941FA9021D087369875D12307CD926ED71885AEE174E86C46FDA SWAP7 DUP11 PUSH2 0x2CC0 SWAP7 PUSH1 0x4 DUP12 DUP14 PUSH2 0x2C1E DUP13 MLOAD SWAP3 PUSH2 0x2BC3 DUP5 PUSH2 0x3315 JUMP JUMPDEST DUP8 DUP5 MSTORE DUP3 DUP5 ADD SWAP1 DUP2 MSTORE DUP14 DUP5 ADD SWAP7 DUP8 MSTORE PUSH2 0x2C14 PUSH2 0x2C02 PUSH1 0x60 DUP7 ADD SWAP5 TIMESTAMP DUP7 MSTORE PUSH1 0x80 DUP8 ADD SWAP12 CALLER DUP14 MSTORE PUSH1 0xA0 DUP9 ADD SWAP12 PUSH1 0x1 DUP14 MSTORE PUSH1 0x40 MLOAD SWAP4 DUP5 SWAP3 DUP4 SWAP3 MLOAD SWAP3 DUP4 SWAP2 PUSH2 0x343E JUMP JUMPDEST DUP2 ADD PUSH1 0x6 DUP2 MSTORE SUB ADD SWAP1 KECCAK256 SWAP5 MLOAD DUP6 PUSH2 0x3943 JUMP JUMPDEST MLOAD PUSH1 0x1 DUP5 ADD PUSH2 0x3943 JUMP JUMPDEST DUP4 PUSH1 0x2 DUP4 ADD SWAP6 MLOAD AND SWAP5 PUSH1 0x1 PUSH1 0x1 PUSH1 0x60 SHL SUB PUSH1 0xA0 SHL SWAP6 DUP7 DUP3 SLOAD AND OR SWAP1 SSTORE MLOAD PUSH1 0x3 DUP3 ADD SSTORE ADD SWAP4 MLOAD AND SWAP1 DUP4 SLOAD AND OR DUP3 SSTORE MLOAD ISZERO ISZERO DUP2 SLOAD SWAP1 PUSH1 0xFF PUSH1 0xA0 SHL SWAP1 ISZERO ISZERO PUSH1 0xA0 SHL AND SWAP1 PUSH1 0xFF PUSH1 0xA0 SHL NOT AND OR SWAP1 SSTORE JUMP JUMPDEST DUP8 PUSH1 0x0 MSTORE PUSH1 0x7 DUP8 MSTORE PUSH2 0x2C7F DUP2 DUP6 PUSH1 0x0 KECCAK256 PUSH2 0x3A55 JUMP JUMPDEST PUSH2 0x2CA7 DUP2 DUP6 MLOAD DUP10 DUP2 DUP2 PUSH2 0x2C98 DUP13 DUP4 DUP2 MLOAD SWAP4 DUP5 SWAP3 ADD PUSH2 0x343E JUMP JUMPDEST DUP2 ADD PUSH1 0x8 DUP2 MSTORE SUB ADD SWAP1 KECCAK256 PUSH2 0x3A55 JUMP JUMPDEST PUSH2 0x2CB2 PUSH1 0x9 SLOAD PUSH2 0x3A82 JUMP JUMPDEST PUSH1 0x9 SSTORE PUSH2 0x37F0 JUMP JUMPDEST SWAP4 PUSH2 0x37F0 JUMP JUMPDEST SWAP4 DUP2 MLOAD SWAP1 CALLER DUP3 MSTORE TIMESTAMP SWAP1 DUP3 ADD MSTORE LOG4 STOP JUMPDEST PUSH1 0x40 MLOAD PUSH3 0x461BCD PUSH1 0xE5 SHL DUP2 MSTORE PUSH1 0x4 DUP2 ADD DUP7 SWAP1 MSTORE PUSH1 0x15 PUSH1 0x24 DUP3 ADD MSTORE PUSH21 0x12185CDA08185B1C9958591E48185B98DA1BDC9959 PUSH1 0x5A SHL PUSH1 0x44 DUP3 ADD MSTORE PUSH1 0x64 SWAP1 REVERT JUMPDEST PUSH1 0x40 MLOAD PUSH3 0x461BCD PUSH1 0xE5 SHL DUP2 MSTORE PUSH1 0x4 DUP2 ADD DUP6 SWAP1 MSTORE PUSH1 0x1E PUSH1 0x24 DUP3 ADD MSTORE PUSH32 0x5375626A6563742063616E6E6F74206265207A65726F20616464726573730000 PUSH1 0x44 DUP3 ADD MSTORE PUSH1 0x64 SWAP1 REVERT JUMPDEST PUSH1 0x40 MLOAD PUSH3 0x461BCD PUSH1 0xE5 SHL DUP2 MSTORE PUSH1 0x4 DUP2 ADD DUP6 SWAP1 MSTORE PUSH1 0x14 PUSH1 0x24 DUP3 ADD MSTORE PUSH20 0x486173682063616E6E6F7420626520656D707479 PUSH1 0x60 SHL PUSH1 0x44 DUP3 ADD MSTORE PUSH1 0x64 SWAP1 REVERT JUMPDEST PUSH2 0x2A5E SWAP2 POP DUP7 RETURNDATASIZE DUP9 GT PUSH2 0x11EA JUMPI PUSH2 0x11DC DUP2 DUP4 PUSH2 0x3367 JUMP JUMPDEST PUSH2 0x1D92 SWAP2 POP DUP8 RETURNDATASIZE DUP10 GT PUSH2 0x11EA JUMPI PUSH2 0x11DC DUP2 DUP4 PUSH2 0x3367 JUMP JUMPDEST CALLVALUE PUSH2 0x25A JUMPI PUSH2 0x2DC9 CALLDATASIZE PUSH2 0x3560 JUMP JUMPDEST SWAP1 PUSH1 0x40 MLOAD DUP2 DUP2 DUP1 SWAP4 MLOAD PUSH2 0x2DE2 DUP2 PUSH1 0x20 SWAP7 DUP8 DUP1 SWAP7 ADD PUSH2 0x343E JUMP JUMPDEST DUP2 ADD PUSH1 0xD DUP2 MSTORE SUB ADD SWAP1 KECCAK256 PUSH1 0x1 DUP1 PUSH1 0xA0 SHL SUB DUP1 SWAP4 AND PUSH1 0x0 MSTORE DUP2 MSTORE PUSH1 0x40 PUSH1 0x0 KECCAK256 DUP1 SLOAD SWAP2 PUSH2 0x2E0C DUP4 PUSH2 0x3810 JUMP JUMPDEST SWAP3 PUSH2 0x2E1A PUSH1 0x40 MLOAD SWAP5 DUP6 PUSH2 0x3367 JUMP JUMPDEST DUP1 DUP5 MSTORE DUP2 DUP5 ADD DUP1 SWAP4 PUSH1 0x0 MSTORE DUP3 PUSH1 0x0 KECCAK256 PUSH1 0x0 SWAP2 JUMPDEST DUP4 DUP4 LT PUSH2 0x2E8B JUMPI POP POP POP POP PUSH1 0x40 MLOAD SWAP3 DUP2 DUP5 ADD SWAP1 DUP3 DUP6 MSTORE MLOAD DUP1 SWAP2 MSTORE PUSH1 0x40 DUP5 ADD SWAP3 SWAP2 PUSH1 0x0 JUMPDEST DUP3 DUP2 LT PUSH2 0x2E5D JUMPI DUP6 DUP6 SUB DUP7 RETURN JUMPDEST DUP4 MLOAD DUP1 MLOAD DUP9 AND DUP7 MSTORE DUP1 DUP4 ADD MLOAD ISZERO ISZERO DUP7 DUP5 ADD MSTORE PUSH1 0x40 SWAP1 DUP2 ADD MLOAD SWAP1 DUP7 ADD MSTORE PUSH1 0x60 SWAP1 SWAP5 ADD SWAP4 SWAP3 DUP2 ADD SWAP3 PUSH1 0x1 ADD PUSH2 0x2E50 JUMP JUMPDEST PUSH1 0x2 DUP6 PUSH1 0x1 SWAP3 PUSH1 0x40 SWAP10 SWAP8 SWAP10 MLOAD PUSH2 0x2EA0 DUP2 PUSH2 0x32FA JUMP JUMPDEST PUSH1 0xFF DUP7 SLOAD DUP14 DUP2 AND DUP4 MSTORE PUSH1 0xA0 SHR AND ISZERO ISZERO DUP4 DUP3 ADD MSTORE DUP5 DUP7 ADD SLOAD PUSH1 0x40 DUP3 ADD MSTORE DUP2 MSTORE ADD SWAP3 ADD SWAP3 ADD SWAP2 SWAP1 SWAP6 SWAP4 SWAP6 PUSH2 0x2E2D JUMP JUMPDEST CALLVALUE PUSH2 0x25A JUMPI PUSH1 0x0 CALLDATASIZE PUSH1 0x3 NOT ADD SLT PUSH2 0x25A JUMPI PUSH1 0x0 SLOAD PUSH1 0x40 MLOAD PUSH1 0x1 PUSH1 0x1 PUSH1 0xA0 SHL SUB SWAP1 SWAP2 AND DUP2 MSTORE PUSH1 0x20 SWAP1 RETURN JUMPDEST CALLVALUE PUSH2 0x25A JUMPI PUSH1 0x20 DUP1 PUSH1 0x3 NOT CALLDATASIZE ADD SLT PUSH2 0x25A JUMPI PUSH1 0x1 PUSH1 0x1 PUSH1 0xA0 SHL SUB PUSH2 0x2F18 PUSH2 0x3266 JUMP JUMPDEST AND PUSH1 0x0 MSTORE PUSH1 0xF PUSH1 0x20 MSTORE PUSH1 0x40 PUSH1 0x0 KECCAK256 DUP1 SLOAD PUSH2 0x2F31 DUP2 PUSH2 0x3810 JUMP JUMPDEST SWAP2 PUSH2 0x2F3F PUSH1 0x40 MLOAD SWAP4 DUP5 PUSH2 0x3367 JUMP JUMPDEST DUP2 DUP4 MSTORE PUSH1 0x20 DUP4 ADD SWAP1 PUSH1 0x0 MSTORE PUSH1 0x20 PUSH1 0x0 KECCAK256 SWAP4 PUSH1 0x0 SWAP2 JUMPDEST DUP4 DUP4 LT PUSH2 0x2F69 JUMPI PUSH1 0x40 MLOAD DUP1 PUSH2 0x256 DUP8 DUP3 PUSH2 0x34FC JUMP JUMPDEST PUSH1 0x1 DUP3 DUP2 SWAP3 PUSH2 0x2F77 DUP10 PUSH2 0x3388 JUMP JUMPDEST DUP2 MSTORE ADD SWAP7 ADD SWAP3 ADD SWAP2 SWAP5 PUSH2 0x2F54 JUMP JUMPDEST CALLVALUE PUSH2 0x25A JUMPI PUSH1 0x60 CALLDATASIZE PUSH1 0x3 NOT ADD SLT PUSH2 0x25A JUMPI PUSH1 0x4 CALLDATALOAD PUSH1 0x1 PUSH1 0x1 PUSH1 0x40 SHL SUB DUP2 GT PUSH2 0x25A JUMPI PUSH2 0x2FB5 SWAP1 CALLDATASIZE SWAP1 PUSH1 0x4 ADD PUSH2 0x3486 JUMP JUMPDEST PUSH2 0x2FBD PUSH2 0x34DC JUMP JUMPDEST SWAP1 PUSH2 0x2FC6 PUSH2 0x34EC JUMP JUMPDEST SWAP1 PUSH1 0x40 MLOAD SWAP1 DUP1 MLOAD SWAP2 PUSH1 0x20 SWAP5 PUSH2 0x3001 DUP7 DUP5 ADD SWAP5 PUSH2 0x2FE3 DUP2 DUP6 DUP9 PUSH2 0x343E JUMP JUMPDEST DUP4 ADD PUSH1 0x6 DUP2 MSTORE PUSH1 0x4 DUP5 DUP10 PUSH1 0xFF SWAP7 DUP8 SWAP5 SUB ADD SWAP1 KECCAK256 ADD SLOAD PUSH1 0xA0 SHR AND PUSH2 0x368B JUMP JUMPDEST PUSH1 0x40 MLOAD DUP7 DUP2 DUP6 MLOAD PUSH2 0x3013 DUP2 DUP4 DUP11 PUSH2 0x343E JUMP JUMPDEST DUP2 ADD PUSH1 0xB DUP2 MSTORE SUB ADD SWAP1 KECCAK256 CALLER PUSH1 0x0 MSTORE DUP7 MSTORE DUP2 PUSH1 0x40 PUSH1 0x0 KECCAK256 SLOAD AND ISZERO PUSH2 0x31CA JUMPI DUP2 DUP1 PUSH2 0x30A0 SWAP3 AND SWAP6 PUSH1 0x1 DUP8 LT ISZERO DUP1 PUSH2 0x31BF JUMPI JUMPDEST PUSH2 0x304C SWAP1 PUSH2 0x36CD JUMP JUMPDEST AND SWAP4 PUSH1 0x1 DUP6 LT ISZERO DUP1 PUSH2 0x31B4 JUMPI JUMPDEST PUSH2 0x3062 SWAP1 PUSH2 0x3710 JUMP JUMPDEST PUSH1 0x40 MLOAD DUP8 DUP2 DUP7 MLOAD PUSH2 0x3074 DUP2 DUP4 DUP8 PUSH2 0x343E JUMP JUMPDEST DUP2 ADD PUSH1 0xC DUP2 MSTORE SUB ADD SWAP1 KECCAK256 CALLER PUSH1 0x0 MSTORE DUP8 MSTORE PUSH2 0xB56 DUP8 PUSH1 0x40 PUSH1 0x0 KECCAK256 SLOAD SWAP3 PUSH1 0x40 MLOAD DUP1 SWAP4 DUP2 SWAP3 DUP10 MLOAD SWAP3 DUP4 SWAP2 PUSH2 0x343E JUMP JUMPDEST POP PUSH2 0x30B0 DUP3 PUSH1 0x3 DUP4 ADD SLOAD AND PUSH2 0x375C JUMP JUMPDEST DUP1 SLOAD SWAP5 DUP3 DUP7 PUSH1 0xA0 SHR AND PUSH1 0x2 DUP2 LT ISZERO PUSH2 0x1929 JUMPI PUSH1 0x1 SUB PUSH2 0x316F JUMPI PUSH1 0x4 DUP2 LT ISZERO PUSH2 0x1929 JUMPI PUSH2 0x30DC SWAP1 DUP3 PUSH2 0x37A8 JUMP JUMPDEST PUSH1 0x6 DUP5 LT ISZERO PUSH2 0x1929 JUMPI PUSH2 0x3100 DUP2 PUSH2 0x30F9 PUSH2 0x3141 SWAP7 PUSH2 0x3133 SWAP5 PUSH2 0x37CC JUMP JUMPDEST SLOAD SWAP4 PUSH2 0x37F0 JUMP JUMPDEST SWAP5 PUSH2 0x3124 PUSH1 0x40 MLOAD SWAP8 PUSH2 0x3117 DUP10 DUP7 DUP6 PUSH1 0xA8 SHR AND PUSH2 0x3608 JUMP JUMPDEST DUP9 ADD DUP5 DUP7 PUSH1 0xA8 SHR AND PUSH2 0x3608 JUMP JUMPDEST DUP3 PUSH1 0x40 DUP9 ADD SWAP2 PUSH1 0xB0 SHR AND PUSH2 0x3615 JUMP JUMPDEST PUSH1 0x60 DUP6 ADD SWAP2 PUSH1 0xB0 SHR AND PUSH2 0x3615 JUMP JUMPDEST TIMESTAMP PUSH1 0x80 DUP4 ADD MSTORE PUSH32 0x4A326D2E0F3BD3557B127D6A5D9CF92F3B9038184C6F20DA297B638BBE8BD833 PUSH1 0xA0 CALLER SWAP4 LOG3 STOP JUMPDEST PUSH1 0x40 MLOAD PUSH3 0x461BCD PUSH1 0xE5 SHL DUP2 MSTORE PUSH1 0x4 DUP2 ADD DUP9 SWAP1 MSTORE PUSH1 0x17 PUSH1 0x24 DUP3 ADD MSTORE PUSH32 0x526576696577206973206E6F7420612064697370757465000000000000000000 PUSH1 0x44 DUP3 ADD MSTORE PUSH1 0x64 SWAP1 REVERT JUMPDEST POP PUSH1 0x5 DUP6 GT ISZERO PUSH2 0x3059 JUMP JUMPDEST POP PUSH1 0x3 DUP8 GT ISZERO PUSH2 0x3043 JUMP JUMPDEST PUSH1 0x40 MLOAD PUSH3 0x461BCD PUSH1 0xE5 SHL DUP2 MSTORE PUSH1 0x4 DUP2 ADD DUP8 SWAP1 MSTORE PUSH1 0x21 PUSH1 0x24 DUP3 ADD MSTORE PUSH32 0x5573657220686173206E6F20726576696577206F6E2074686973207265636F72 PUSH1 0x44 DUP3 ADD MSTORE PUSH1 0x19 PUSH1 0xFA SHL PUSH1 0x64 DUP3 ADD MSTORE PUSH1 0x84 SWAP1 REVERT JUMPDEST CALLVALUE PUSH2 0x25A JUMPI PUSH1 0x40 CALLDATASIZE PUSH1 0x3 NOT ADD SLT PUSH2 0x25A JUMPI PUSH2 0x3232 PUSH2 0x3266 JUMP JUMPDEST PUSH1 0x1 PUSH1 0x1 PUSH1 0xA0 SHL SUB AND PUSH1 0x0 SWAP1 DUP2 MSTORE PUSH1 0x10 PUSH1 0x20 MSTORE PUSH1 0x40 SWAP1 KECCAK256 DUP1 SLOAD PUSH1 0x24 CALLDATALOAD SWAP1 DUP2 LT ISZERO PUSH2 0x25A JUMPI PUSH2 0x7A6 PUSH2 0x7AC SWAP2 PUSH2 0x256 SWAP4 PUSH2 0x3292 JUMP JUMPDEST PUSH1 0x4 CALLDATALOAD SWAP1 PUSH1 0x1 PUSH1 0x1 PUSH1 0xA0 SHL SUB DUP3 AND DUP3 SUB PUSH2 0x25A JUMPI JUMP JUMPDEST PUSH1 0x24 CALLDATALOAD SWAP1 PUSH1 0x1 PUSH1 0x1 PUSH1 0xA0 SHL SUB DUP3 AND DUP3 SUB PUSH2 0x25A JUMPI JUMP JUMPDEST DUP1 SLOAD DUP3 LT ISZERO PUSH2 0x32AA JUMPI PUSH1 0x0 MSTORE PUSH1 0x20 PUSH1 0x0 KECCAK256 ADD SWAP1 PUSH1 0x0 SWAP1 JUMP JUMPDEST PUSH4 0x4E487B71 PUSH1 0xE0 SHL PUSH1 0x0 MSTORE PUSH1 0x32 PUSH1 0x4 MSTORE PUSH1 0x24 PUSH1 0x0 REVERT JUMPDEST SWAP1 PUSH1 0x1 DUP3 DUP2 SHR SWAP3 AND DUP1 ISZERO PUSH2 0x32F0 JUMPI JUMPDEST PUSH1 0x20 DUP4 LT EQ PUSH2 0x32DA JUMPI JUMP JUMPDEST PUSH4 0x4E487B71 PUSH1 0xE0 SHL PUSH1 0x0 MSTORE PUSH1 0x22 PUSH1 0x4 MSTORE PUSH1 0x24 PUSH1 0x0 REVERT JUMPDEST SWAP2 PUSH1 0x7F AND SWAP2 PUSH2 0x32CF JUMP JUMPDEST PUSH1 0x60 DUP2 ADD SWAP1 DUP2 LT PUSH1 0x1 PUSH1 0x1 PUSH1 0x40 SHL SUB DUP3 GT OR PUSH2 0x29EA JUMPI PUSH1 0x40 MSTORE JUMP JUMPDEST PUSH1 0xC0 DUP2 ADD SWAP1 DUP2 LT PUSH1 0x1 PUSH1 0x1 PUSH1 0x40 SHL SUB DUP3 GT OR PUSH2 0x29EA JUMPI PUSH1 0x40 MSTORE JUMP JUMPDEST PUSH2 0x100 DUP2 ADD SWAP1 DUP2 LT PUSH1 0x1 PUSH1 0x1 PUSH1 0x40 SHL SUB DUP3 GT OR PUSH2 0x29EA JUMPI PUSH1 0x40 MSTORE JUMP JUMPDEST PUSH1 0xE0 DUP2 ADD SWAP1 DUP2 LT PUSH1 0x1 PUSH1 0x1 PUSH1 0x40 SHL SUB DUP3 GT OR PUSH2 0x29EA JUMPI PUSH1 0x40 MSTORE JUMP JUMPDEST SWAP1 PUSH1 0x1F DUP1 NOT SWAP2 ADD AND DUP2 ADD SWAP1 DUP2 LT PUSH1 0x1 PUSH1 0x1 PUSH1 0x40 SHL SUB DUP3 GT OR PUSH2 0x29EA JUMPI PUSH1 0x40 MSTORE JUMP JUMPDEST SWAP1 PUSH1 0x40 MLOAD SWAP2 DUP3 PUSH1 0x0 DUP3 SLOAD PUSH2 0x339B DUP2 PUSH2 0x32C0 JUMP JUMPDEST SWAP1 DUP2 DUP5 MSTORE PUSH1 0x20 SWAP5 PUSH1 0x1 SWAP2 PUSH1 0x1 DUP2 AND SWAP1 DUP2 PUSH1 0x0 EQ PUSH2 0x340B JUMPI POP PUSH1 0x1 EQ PUSH2 0x33CC JUMPI JUMPDEST POP POP POP PUSH2 0x33CA SWAP3 POP SUB DUP4 PUSH2 0x3367 JUMP JUMPDEST JUMP JUMPDEST PUSH1 0x0 SWAP1 DUP2 MSTORE DUP6 DUP2 KECCAK256 SWAP6 SWAP4 POP SWAP2 SWAP1 JUMPDEST DUP2 DUP4 LT PUSH2 0x33F3 JUMPI POP POP PUSH2 0x33CA SWAP4 POP DUP3 ADD ADD CODESIZE DUP1 DUP1 PUSH2 0x33BB JUMP JUMPDEST DUP6 SLOAD DUP9 DUP5 ADD DUP6 ADD MSTORE SWAP5 DUP6 ADD SWAP5 DUP8 SWAP5 POP SWAP2 DUP4 ADD SWAP2 PUSH2 0x33DA JUMP JUMPDEST SWAP3 POP POP POP PUSH2 0x33CA SWAP5 SWAP3 POP PUSH1 0xFF NOT AND DUP3 DUP5 ADD MSTORE ISZERO ISZERO PUSH1 0x5 SHL DUP3 ADD ADD CODESIZE DUP1 DUP1 PUSH2 0x33BB JUMP JUMPDEST SWAP1 PUSH2 0x29D4 JUMPI PUSH2 0x343B SWAP1 PUSH2 0x3388 JUMP JUMPDEST SWAP1 JUMP JUMPDEST PUSH1 0x0 JUMPDEST DUP4 DUP2 LT PUSH2 0x3451 JUMPI POP POP PUSH1 0x0 SWAP2 ADD MSTORE JUMP JUMPDEST DUP2 DUP2 ADD MLOAD DUP4 DUP3 ADD MSTORE PUSH1 0x20 ADD PUSH2 0x3441 JUMP JUMPDEST SWAP1 PUSH1 0x20 SWAP2 PUSH2 0x347A DUP2 MLOAD DUP1 SWAP3 DUP2 DUP6 MSTORE DUP6 DUP1 DUP7 ADD SWAP2 ADD PUSH2 0x343E JUMP JUMPDEST PUSH1 0x1F ADD PUSH1 0x1F NOT AND ADD ADD SWAP1 JUMP JUMPDEST DUP2 PUSH1 0x1F DUP3 ADD SLT ISZERO PUSH2 0x25A JUMPI DUP1 CALLDATALOAD SWAP1 PUSH1 0x1 PUSH1 0x1 PUSH1 0x40 SHL SUB DUP3 GT PUSH2 0x29EA JUMPI PUSH1 0x40 MLOAD SWAP3 PUSH2 0x34BA PUSH1 0x1F DUP5 ADD PUSH1 0x1F NOT AND PUSH1 0x20 ADD DUP6 PUSH2 0x3367 JUMP JUMPDEST DUP3 DUP5 MSTORE PUSH1 0x20 DUP4 DUP4 ADD ADD GT PUSH2 0x25A JUMPI DUP2 PUSH1 0x0 SWAP3 PUSH1 0x20 DUP1 SWAP4 ADD DUP4 DUP7 ADD CALLDATACOPY DUP4 ADD ADD MSTORE SWAP1 JUMP JUMPDEST PUSH1 0x24 CALLDATALOAD SWAP1 PUSH1 0xFF DUP3 AND DUP3 SUB PUSH2 0x25A JUMPI JUMP JUMPDEST PUSH1 0x44 CALLDATALOAD SWAP1 PUSH1 0xFF DUP3 AND DUP3 SUB PUSH2 0x25A JUMPI JUMP JUMPDEST PUSH1 0x20 DUP1 DUP3 ADD SWAP1 PUSH1 0x20 DUP4 MSTORE DUP4 MLOAD DUP1 SWAP3 MSTORE PUSH1 0x40 DUP4 ADD SWAP3 PUSH1 0x20 PUSH1 0x40 DUP5 PUSH1 0x5 SHL DUP4 ADD ADD SWAP6 ADD SWAP4 PUSH1 0x0 SWAP2 JUMPDEST DUP5 DUP4 LT PUSH2 0x3532 JUMPI POP POP POP POP POP POP SWAP1 JUMP JUMPDEST SWAP1 SWAP2 SWAP3 SWAP4 SWAP5 SWAP6 DUP5 DUP1 PUSH2 0x3550 PUSH1 0x1 SWAP4 PUSH1 0x3F NOT DUP7 DUP3 SUB ADD DUP8 MSTORE DUP11 MLOAD PUSH2 0x3461 JUMP JUMPDEST SWAP9 ADD SWAP4 ADD SWAP4 ADD SWAP2 SWAP5 SWAP4 SWAP3 SWAP1 PUSH2 0x3522 JUMP JUMPDEST PUSH1 0x40 PUSH1 0x3 NOT DUP3 ADD SLT PUSH2 0x25A JUMPI PUSH1 0x4 CALLDATALOAD SWAP1 PUSH1 0x1 PUSH1 0x1 PUSH1 0x40 SHL SUB DUP3 GT PUSH2 0x25A JUMPI PUSH2 0x358A SWAP2 PUSH1 0x4 ADD PUSH2 0x3486 JUMP JUMPDEST SWAP1 PUSH1 0x24 CALLDATALOAD PUSH1 0x1 PUSH1 0x1 PUSH1 0xA0 SHL SUB DUP2 AND DUP2 SUB PUSH2 0x25A JUMPI SWAP1 JUMP JUMPDEST SWAP1 PUSH1 0x60 PUSH1 0x3 NOT DUP4 ADD SLT PUSH2 0x25A JUMPI PUSH1 0x1 PUSH1 0x1 PUSH1 0x40 SHL SUB PUSH1 0x4 CALLDATALOAD DUP2 DUP2 GT PUSH2 0x25A JUMPI DUP4 PUSH2 0x35CD SWAP2 PUSH1 0x4 ADD PUSH2 0x3486 JUMP JUMPDEST SWAP3 PUSH1 0x24 CALLDATALOAD SWAP2 DUP3 GT PUSH2 0x25A JUMPI PUSH2 0x35E4 SWAP2 PUSH1 0x4 ADD PUSH2 0x3486 JUMP JUMPDEST SWAP1 PUSH1 0x44 CALLDATALOAD PUSH1 0x1 PUSH1 0x1 PUSH1 0xA0 SHL SUB DUP2 AND DUP2 SUB PUSH2 0x25A JUMPI SWAP1 JUMP JUMPDEST SWAP1 PUSH1 0x2 DUP3 LT ISZERO PUSH2 0x1929 JUMPI MSTORE JUMP JUMPDEST SWAP1 PUSH1 0x4 DUP3 LT ISZERO PUSH2 0x1929 JUMPI MSTORE JUMP JUMPDEST SWAP1 PUSH1 0x6 DUP3 LT ISZERO PUSH2 0x1929 JUMPI MSTORE JUMP JUMPDEST DUP1 SLOAD DUP3 LT ISZERO PUSH2 0x32AA JUMPI PUSH1 0x0 MSTORE PUSH1 0x20 PUSH1 0x0 KECCAK256 SWAP1 PUSH1 0x1 SHL ADD SWAP1 PUSH1 0x0 SWAP1 JUMP JUMPDEST PUSH1 0x40 PUSH1 0x3 NOT DUP3 ADD SLT PUSH2 0x25A JUMPI PUSH1 0x4 CALLDATALOAD SWAP1 PUSH1 0x1 PUSH1 0x1 PUSH1 0x40 SHL SUB DUP3 GT PUSH2 0x25A JUMPI PUSH2 0x3668 SWAP2 PUSH1 0x4 ADD PUSH2 0x3486 JUMP JUMPDEST SWAP1 PUSH1 0x24 CALLDATALOAD SWAP1 JUMP JUMPDEST DUP1 SLOAD DUP3 LT ISZERO PUSH2 0x32AA JUMPI PUSH1 0x0 MSTORE PUSH1 0x20 PUSH1 0x0 KECCAK256 SWAP1 PUSH1 0x2 SHL ADD SWAP1 PUSH1 0x0 SWAP1 JUMP JUMPDEST ISZERO PUSH2 0x3692 JUMPI JUMP JUMPDEST PUSH1 0x40 MLOAD PUSH3 0x461BCD PUSH1 0xE5 SHL DUP2 MSTORE PUSH1 0x20 PUSH1 0x4 DUP3 ADD MSTORE PUSH1 0x13 PUSH1 0x24 DUP3 ADD MSTORE PUSH19 0x149958DBDC99081B9BDD08185B98DA1BDC9959 PUSH1 0x6A SHL PUSH1 0x44 DUP3 ADD MSTORE PUSH1 0x64 SWAP1 REVERT JUMPDEST ISZERO PUSH2 0x36D4 JUMPI JUMP JUMPDEST PUSH1 0x40 MLOAD PUSH3 0x461BCD PUSH1 0xE5 SHL DUP2 MSTORE PUSH1 0x20 PUSH1 0x4 DUP3 ADD MSTORE PUSH1 0x14 PUSH1 0x24 DUP3 ADD MSTORE PUSH20 0x5365766572697479206D75737420626520312D33 PUSH1 0x60 SHL PUSH1 0x44 DUP3 ADD MSTORE PUSH1 0x64 SWAP1 REVERT JUMPDEST ISZERO PUSH2 0x3717 JUMPI JUMP JUMPDEST PUSH1 0x40 MLOAD PUSH3 0x461BCD PUSH1 0xE5 SHL DUP2 MSTORE PUSH1 0x20 PUSH1 0x4 DUP3 ADD MSTORE PUSH1 0x17 PUSH1 0x24 DUP3 ADD MSTORE PUSH32 0x43756C706162696C697479206D75737420626520312D35000000000000000000 PUSH1 0x44 DUP3 ADD MSTORE PUSH1 0x64 SWAP1 REVERT JUMPDEST ISZERO PUSH2 0x3763 JUMPI JUMP JUMPDEST PUSH1 0x40 MLOAD PUSH3 0x461BCD PUSH1 0xE5 SHL DUP2 MSTORE PUSH1 0x20 PUSH1 0x4 DUP3 ADD MSTORE PUSH1 0x1A PUSH1 0x24 DUP3 ADD MSTORE PUSH32 0x4469737075746520686173206265656E20726574726163746564000000000000 PUSH1 0x44 DUP3 ADD MSTORE PUSH1 0x64 SWAP1 REVERT JUMPDEST SWAP1 PUSH1 0x4 DUP2 LT ISZERO PUSH2 0x1929 JUMPI DUP2 SLOAD PUSH1 0xFF PUSH1 0xA8 SHL NOT AND PUSH1 0xA8 SWAP2 SWAP1 SWAP2 SHL PUSH1 0xFF PUSH1 0xA8 SHL AND OR SWAP1 SSTORE JUMP JUMPDEST SWAP1 PUSH1 0x6 DUP2 LT ISZERO PUSH2 0x1929 JUMPI DUP2 SLOAD PUSH1 0xFF PUSH1 0xB0 SHL NOT AND PUSH1 0xB0 SWAP2 SWAP1 SWAP2 SHL PUSH1 0xFF PUSH1 0xB0 SHL AND OR SWAP1 SSTORE JUMP JUMPDEST PUSH2 0x3808 SWAP1 PUSH1 0x20 PUSH1 0x40 MLOAD SWAP3 DUP3 DUP5 DUP1 SWAP5 MLOAD SWAP4 DUP5 SWAP3 ADD PUSH2 0x343E JUMP JUMPDEST DUP2 ADD SUB SWAP1 KECCAK256 SWAP1 JUMP JUMPDEST PUSH1 0x1 PUSH1 0x1 PUSH1 0x40 SHL SUB DUP2 GT PUSH2 0x29EA JUMPI PUSH1 0x5 SHL PUSH1 0x20 ADD SWAP1 JUMP JUMPDEST SWAP1 DUP2 PUSH1 0x20 SWAP2 SUB SLT PUSH2 0x25A JUMPI MLOAD DUP1 ISZERO ISZERO DUP2 SUB PUSH2 0x25A JUMPI SWAP1 JUMP JUMPDEST ISZERO PUSH2 0x3846 JUMPI JUMP JUMPDEST PUSH1 0x40 MLOAD PUSH3 0x461BCD PUSH1 0xE5 SHL DUP2 MSTORE PUSH1 0x20 PUSH1 0x4 DUP3 ADD MSTORE PUSH1 0x15 PUSH1 0x24 DUP3 ADD MSTORE PUSH21 0x2737BA1030903B32B934B334B2B21036B2B6B132B9 PUSH1 0x59 SHL PUSH1 0x44 DUP3 ADD MSTORE PUSH1 0x64 SWAP1 REVERT JUMPDEST SWAP1 PUSH2 0x389B PUSH1 0x20 SWAP2 SWAP5 SWAP4 SWAP5 PUSH1 0x40 DUP5 MSTORE PUSH1 0x40 DUP5 ADD SWAP1 PUSH2 0x3461 JUMP JUMPDEST PUSH1 0x1 PUSH1 0x1 PUSH1 0xA0 SHL SUB SWAP1 SWAP5 AND SWAP2 ADD MSTORE JUMP JUMPDEST ISZERO PUSH2 0x38B2 JUMPI JUMP JUMPDEST PUSH1 0x40 MLOAD PUSH3 0x461BCD PUSH1 0xE5 SHL DUP2 MSTORE PUSH1 0x20 PUSH1 0x4 DUP3 ADD MSTORE PUSH1 0x18 PUSH1 0x24 DUP3 ADD MSTORE PUSH32 0x4E6F2061636365737320746F2074686973207265636F72640000000000000000 PUSH1 0x44 DUP3 ADD MSTORE PUSH1 0x64 SWAP1 REVERT JUMPDEST ISZERO PUSH2 0x38FE JUMPI JUMP JUMPDEST PUSH1 0x40 MLOAD PUSH3 0x461BCD PUSH1 0xE5 SHL DUP2 MSTORE PUSH1 0x20 PUSH1 0x4 DUP3 ADD MSTORE PUSH1 0x19 PUSH1 0x24 DUP3 ADD MSTORE PUSH32 0x5265636F72642049442063616E6E6F7420626520656D70747900000000000000 PUSH1 0x44 DUP3 ADD MSTORE PUSH1 0x64 SWAP1 REVERT JUMPDEST SWAP2 SWAP1 SWAP2 DUP3 MLOAD PUSH1 0x1 PUSH1 0x1 PUSH1 0x40 SHL SUB DUP2 GT PUSH2 0x29EA JUMPI PUSH2 0x3960 DUP3 SLOAD PUSH2 0x32C0 JUMP JUMPDEST PUSH1 0x1F DUP2 GT PUSH2 0x3A0B JUMPI JUMPDEST POP PUSH1 0x20 DUP1 PUSH1 0x1F DUP4 GT PUSH1 0x1 EQ PUSH2 0x39A6 JUMPI POP DUP2 SWAP3 SWAP4 SWAP5 PUSH1 0x0 SWAP3 PUSH2 0x399B JUMPI JUMPDEST POP POP DUP2 PUSH1 0x1 SHL SWAP2 PUSH1 0x0 NOT SWAP1 PUSH1 0x3 SHL SHR NOT AND OR SWAP1 SSTORE JUMP JUMPDEST ADD MLOAD SWAP1 POP CODESIZE DUP1 PUSH2 0x3985 JUMP JUMPDEST SWAP1 PUSH1 0x1F NOT DUP4 AND SWAP6 DUP5 PUSH1 0x0 MSTORE PUSH1 0x20 PUSH1 0x0 KECCAK256 SWAP3 PUSH1 0x0 SWAP1 JUMPDEST DUP9 DUP3 LT PUSH2 0x39F3 JUMPI POP POP DUP4 PUSH1 0x1 SWAP6 SWAP7 SWAP8 LT PUSH2 0x39DA JUMPI JUMPDEST POP POP POP DUP2 SHL ADD SWAP1 SSTORE JUMP JUMPDEST ADD MLOAD PUSH1 0x0 NOT PUSH1 0xF8 DUP5 PUSH1 0x3 SHL AND SHR NOT AND SWAP1 SSTORE CODESIZE DUP1 DUP1 PUSH2 0x39D0 JUMP JUMPDEST DUP1 PUSH1 0x1 DUP6 SWAP7 DUP3 SWAP5 SWAP7 DUP7 ADD MLOAD DUP2 SSTORE ADD SWAP6 ADD SWAP4 ADD SWAP1 PUSH2 0x39BB JUMP JUMPDEST PUSH1 0x0 DUP4 PUSH1 0x0 MSTORE PUSH1 0x20 PUSH1 0x0 KECCAK256 PUSH1 0x1F DUP5 ADD PUSH1 0x5 SHR DUP2 ADD SWAP3 PUSH1 0x20 DUP6 LT PUSH2 0x3A4B JUMPI JUMPDEST PUSH1 0x1F ADD PUSH1 0x5 SHR ADD SWAP2 JUMPDEST DUP3 DUP2 LT PUSH2 0x3A40 JUMPI POP POP PUSH2 0x3969 JUMP JUMPDEST DUP2 DUP2 SSTORE PUSH1 0x1 ADD PUSH2 0x3A32 JUMP JUMPDEST SWAP1 SWAP3 POP DUP3 SWAP1 PUSH2 0x3A29 JUMP JUMPDEST DUP1 SLOAD PUSH1 0x1 PUSH1 0x40 SHL DUP2 LT ISZERO PUSH2 0x29EA JUMPI PUSH2 0x3A72 SWAP2 PUSH1 0x1 DUP3 ADD DUP2 SSTORE PUSH2 0x3292 JUMP JUMPDEST SWAP2 SWAP1 SWAP2 PUSH2 0x29D4 JUMPI PUSH2 0x33CA SWAP2 PUSH2 0x3943 JUMP JUMPDEST PUSH1 0x0 NOT DUP2 EQ PUSH2 0x3A91 JUMPI PUSH1 0x1 ADD SWAP1 JUMP JUMPDEST PUSH4 0x4E487B71 PUSH1 0xE0 SHL PUSH1 0x0 MSTORE PUSH1 0x11 PUSH1 0x4 MSTORE PUSH1 0x24 PUSH1 0x0 REVERT JUMPDEST PUSH1 0x4 DUP3 LT ISZERO PUSH2 0x1929 JUMPI MSTORE JUMP JUMPDEST PUSH1 0x6 DUP3 LT ISZERO PUSH2 0x1929 JUMPI MSTORE JUMP JUMPDEST SWAP1 PUSH1 0x40 MLOAD PUSH2 0x3ACC DUP2 PUSH2 0x334C JUMP JUMPDEST DUP3 SLOAD PUSH1 0x1 PUSH1 0x1 PUSH1 0xA0 SHL SUB DUP2 AND DUP3 MSTORE SWAP1 SWAP3 DUP4 SWAP2 PUSH1 0xA0 DUP2 SWAP1 SHR PUSH1 0xFF AND PUSH1 0x2 DUP2 LT ISZERO PUSH2 0x1929 JUMPI PUSH1 0xC0 SWAP3 PUSH2 0x3B20 PUSH1 0xFF DUP1 SWAP5 PUSH1 0x3 SWAP5 PUSH1 0x20 DUP10 ADD MSTORE PUSH2 0x3B13 DUP3 DUP3 PUSH1 0xA8 SHR AND PUSH1 0x40 DUP11 ADD PUSH2 0x3AA7 JUMP JUMPDEST PUSH1 0xB0 SHR AND PUSH1 0x60 DUP8 ADD PUSH2 0x3AB3 JUMP JUMPDEST PUSH1 0x1 DUP2 ADD SLOAD PUSH1 0x80 DUP7 ADD MSTORE PUSH2 0x3B36 PUSH1 0x2 DUP3 ADD PUSH2 0x3388 JUMP JUMPDEST PUSH1 0xA0 DUP7 ADD MSTORE ADD SLOAD AND ISZERO ISZERO SWAP2 ADD MSTORE JUMP JUMPDEST ISZERO PUSH2 0x3B4C JUMPI JUMP JUMPDEST PUSH1 0x40 MLOAD PUSH3 0x461BCD PUSH1 0xE5 SHL DUP2 MSTORE PUSH1 0x20 PUSH1 0x4 DUP3 ADD MSTORE PUSH1 0x14 PUSH1 0x24 DUP3 ADD MSTORE PUSH20 0x2737BA1030B71030B1BA34BB329036B2B6B132B9 PUSH1 0x61 SHL PUSH1 0x44 DUP3 ADD MSTORE PUSH1 0x64 SWAP1 REVERT JUMPDEST DUP1 MLOAD DUP3 LT ISZERO PUSH2 0x32AA JUMPI PUSH1 0x20 SWAP2 PUSH1 0x5 SHL ADD ADD SWAP1 JUMP JUMPDEST ISZERO PUSH2 0x3BA3 JUMPI JUMP JUMPDEST PUSH1 0x40 MLOAD PUSH3 0x461BCD PUSH1 0xE5 SHL DUP2 MSTORE PUSH1 0x20 PUSH1 0x4 DUP3 ADD MSTORE PUSH1 0xA PUSH1 0x24 DUP3 ADD MSTORE PUSH10 0x27B7363C9030B236B4B7 PUSH1 0xB1 SHL PUSH1 0x44 DUP3 ADD MSTORE PUSH1 0x64 SWAP1 REVERT JUMPDEST ISZERO PUSH2 0x3BDC JUMPI JUMP JUMPDEST PUSH1 0x40 MLOAD PUSH3 0x461BCD PUSH1 0xE5 SHL DUP2 MSTORE PUSH1 0x20 PUSH1 0x4 DUP3 ADD MSTORE PUSH1 0xF PUSH1 0x24 DUP3 ADD MSTORE PUSH15 0x496E76616C69642061646472657373 PUSH1 0x88 SHL PUSH1 0x44 DUP3 ADD MSTORE PUSH1 0x64 SWAP1 REVERT JUMPDEST SWAP2 SWAP1 SWAP2 PUSH1 0x40 DUP1 MLOAD SWAP2 DUP1 MLOAD SWAP1 PUSH1 0x20 SWAP4 DUP5 DUP2 DUP2 DUP5 ADD SWAP5 PUSH2 0x3C32 DUP2 DUP4 DUP9 PUSH2 0x343E JUMP JUMPDEST PUSH1 0xB SWAP1 DUP3 ADD SWAP1 DUP2 MSTORE SUB ADD SWAP1 KECCAK256 PUSH1 0x1 PUSH1 0x1 PUSH1 0xA0 SHL SUB SWAP1 SWAP7 AND PUSH1 0x0 DUP2 DUP2 MSTORE SWAP7 DUP6 MSTORE DUP4 DUP8 KECCAK256 SLOAD PUSH1 0xFF AND ISZERO PUSH2 0x3CDE JUMPI DUP5 PUSH2 0xF22 SWAP4 DUP6 SWAP4 PUSH2 0xB56 SWAP4 PUSH2 0x3C9F SWAP8 MLOAD DUP5 DUP2 DUP5 MLOAD PUSH2 0x3C7C DUP2 DUP4 DUP10 PUSH2 0x343E JUMP JUMPDEST DUP2 ADD PUSH1 0xC DUP2 MSTORE SUB ADD SWAP1 KECCAK256 SWAP1 DUP12 MSTORE DUP4 MSTORE DUP5 DUP11 KECCAK256 SLOAD SWAP5 MLOAD SWAP4 DUP5 SWAP3 DUP4 SWAP3 MLOAD SWAP3 DUP4 SWAP2 PUSH2 0x343E JUMP JUMPDEST SWAP1 DUP2 ADD MLOAD SWAP3 PUSH1 0x2 DUP5 LT ISZERO PUSH2 0x3CCA JUMPI POP PUSH1 0x80 DUP2 ADD MLOAD SWAP2 PUSH1 0xC0 PUSH1 0xA0 DUP4 ADD MLOAD SWAP3 ADD MLOAD ISZERO ISZERO SWAP1 PUSH1 0x1 SWAP5 SWAP4 SWAP3 SWAP2 SWAP1 JUMP JUMPDEST PUSH4 0x4E487B71 PUSH1 0xE0 SHL DUP2 MSTORE PUSH1 0x21 PUSH1 0x4 MSTORE PUSH1 0x24 SWAP1 REVERT JUMPDEST POP POP DUP2 MLOAD DUP6 SWAP5 DUP6 SWAP5 DUP6 SWAP5 SWAP2 SWAP4 POP DUP3 ADD SWAP1 PUSH1 0x1 PUSH1 0x1 PUSH1 0x40 SHL SUB DUP3 GT DUP4 DUP4 LT OR PUSH2 0x3D08 JUMPI MSTORE DUP3 DUP2 MSTORE SWAP2 SWAP1 JUMP JUMPDEST PUSH4 0x4E487B71 PUSH1 0xE0 SHL DUP6 MSTORE PUSH1 0x41 PUSH1 0x4 MSTORE PUSH1 0x24 DUP6 REVERT INVALID LOG2 PUSH5 0x6970667358 0x22 SLT KECCAK256 0xAD PUSH1 0x4F PUSH25 0x18D08C488A3E5F05EB8DFE27A078D282DE8961D9C2BC20F3A2 ORIGIN PUSH0 SWAP5 PUSH5 0x736F6C6343 STOP ADDMOD OR STOP CALLER "},"methodIdentifiers":{"accessPermissions(string)":"3aaaaf88","admin()":"f851a440","anchorRecord(string,string,address)":"19c61953","anchoredRecords(string)":"7ea79e9c","checkAccess(string)":"f6cc55f9","disputeReactions(string,address,uint256)":"328c5aa1","disputeRecord(string,uint8,uint8,string)":"1af43c91","disputesByUser(address,uint256)":"03635170","getAnchoredRecord(string)":"b5d3bc05","getDisputeReactionStats(string,address)":"3cfbc7cb","getDisputeReactions(string,address)":"1655408d","getHashesByRecordId(string)":"81c86b33","getPermissionsByReceiver(address)":"f25b7f45","getPermissionsBySharer(address)":"86c097f7","getRecordSubject(string)":"ad6f0281","getRecordsAboutSubject(address)":"c542ef40","getReviewStats(string)":"3ecd54be","getReviews(string)":"2978465d","getSharerStats(address)":"6b032610","getTotalPermissions()":"37811534","getTotalStats()":"fc5cbf1d","getUserDisputes(address)":"bfb0a55b","getUserReview(string,address)":"a5a6958e","getUserReviewHistory(address)":"86564c8e","getUserVerifications(address)":"1469fab7","grantAccess(string,string,address)":"3935b076","hasReactedToDispute(string,address,address)":"8625d384","hasReviewed(string,address)":"80fcd817","isSubject(string,address)":"291c2b16","memberRoleManager()":"15370703","modifyDispute(string,uint8,uint8)":"10a0e88a","permissionsByReceiver(address,uint256)":"bed6e79e","permissionsBySharer(address,uint256)":"3a779568","reactToDispute(string,address,bool)":"9e90e34a","recordHashesByRecordId(string,uint256)":"e589425e","recordReviews(string,uint256)":"889a7eee","recordsAboutSubject(address,uint256)":"a0653611","retractReview(string)":"b10e4a0b","revokeAccess(string)":"fb310c59","setMemberRoleManager(address)":"dd0bc082","totalAnchoredRecords()":"1cf8cbe8","totalPermissions()":"2ec1ca8a","totalReviews()":"e2367890","transferAdmin(address)":"75829def","userReviewIndex(string,address)":"e0f3e86e","verificationsByUser(address,uint256)":"47580b56","verifyRecord(string,string)":"3de2e8e9"}}}}}