{"contracts/HealthRecordCore.sol":{"HealthRecordCore":{"abi":[{"inputs":[{"internalType":"address","name":"_memberRoleManager","type":"address"}],"stateMutability":"nonpayable","type":"constructor"},{"anonymous":false,"inputs":[{"indexed":true,"internalType":"address","name":"oldAdmin","type":"address"},{"indexed":true,"internalType":"address","name":"newAdmin","type":"address"},{"indexed":false,"internalType":"uint256","name":"timestamp","type":"uint256"}],"name":"AdminTransferred","type":"event"},{"anonymous":false,"inputs":[{"indexed":true,"internalType":"string","name":"recordHash","type":"string"},{"indexed":true,"internalType":"bytes32","name":"disputerIdHash","type":"bytes32"},{"indexed":false,"internalType":"enum HealthRecordCore.DisputeSeverity","name":"oldSeverity","type":"uint8"},{"indexed":false,"internalType":"enum HealthRecordCore.DisputeSeverity","name":"newSeverity","type":"uint8"},{"indexed":false,"internalType":"enum HealthRecordCore.DisputeCulpability","name":"oldCulpability","type":"uint8"},{"indexed":false,"internalType":"enum HealthRecordCore.DisputeCulpability","name":"newCulpability","type":"uint8"},{"indexed":false,"internalType":"uint256","name":"timestamp","type":"uint256"}],"name":"DisputeModification","type":"event"},{"anonymous":false,"inputs":[{"indexed":true,"internalType":"string","name":"recordHash","type":"string"},{"indexed":true,"internalType":"bytes32","name":"reactorIdHash","type":"bytes32"},{"indexed":true,"internalType":"bytes32","name":"disputerIdHash","type":"bytes32"},{"indexed":false,"internalType":"bool","name":"supportsDispute","type":"bool"},{"indexed":false,"internalType":"uint256","name":"timestamp","type":"uint256"}],"name":"DisputeReaction","type":"event"},{"anonymous":false,"inputs":[{"indexed":true,"internalType":"string","name":"recordHash","type":"string"},{"indexed":true,"internalType":"bytes32","name":"disputerIdHash","type":"bytes32"},{"indexed":false,"internalType":"uint256","name":"timestamp","type":"uint256"}],"name":"DisputeRetracted","type":"event"},{"anonymous":false,"inputs":[{"indexed":true,"internalType":"string","name":"recordHash","type":"string"},{"indexed":true,"internalType":"bytes32","name":"reactorIdHash","type":"bytes32"},{"indexed":true,"internalType":"bytes32","name":"disputerIdHash","type":"bytes32"},{"indexed":false,"internalType":"bool","name":"oldSupport","type":"bool"},{"indexed":false,"internalType":"bool","name":"newSupport","type":"bool"},{"indexed":false,"internalType":"uint256","name":"timestamp","type":"uint256"}],"name":"ReactionModified","type":"event"},{"anonymous":false,"inputs":[{"indexed":true,"internalType":"string","name":"recordHash","type":"string"},{"indexed":true,"internalType":"bytes32","name":"reactorIdHash","type":"bytes32"},{"indexed":true,"internalType":"bytes32","name":"disputerIdHash","type":"bytes32"},{"indexed":false,"internalType":"uint256","name":"timestamp","type":"uint256"}],"name":"ReactionRetracted","type":"event"},{"anonymous":false,"inputs":[{"indexed":true,"internalType":"string","name":"recordId","type":"string"},{"indexed":true,"internalType":"string","name":"recordHash","type":"string"},{"indexed":true,"internalType":"bytes32","name":"subjectIdHash","type":"bytes32"},{"indexed":false,"internalType":"uint256","name":"timestamp","type":"uint256"}],"name":"RecordAnchored","type":"event"},{"anonymous":false,"inputs":[{"indexed":true,"internalType":"string","name":"recordHash","type":"string"},{"indexed":true,"internalType":"string","name":"recordId","type":"string"},{"indexed":true,"internalType":"bytes32","name":"disputerIdHash","type":"bytes32"},{"indexed":false,"internalType":"enum HealthRecordCore.DisputeSeverity","name":"severity","type":"uint8"},{"indexed":false,"internalType":"enum HealthRecordCore.DisputeCulpability","name":"culpability","type":"uint8"},{"indexed":false,"internalType":"uint256","name":"timestamp","type":"uint256"}],"name":"RecordDisputed","type":"event"},{"anonymous":false,"inputs":[{"indexed":true,"internalType":"string","name":"recordId","type":"string"},{"indexed":true,"internalType":"string","name":"newHash","type":"string"},{"indexed":false,"internalType":"bytes32","name":"addedBy","type":"bytes32"},{"indexed":false,"internalType":"uint256","name":"timestamp","type":"uint256"}],"name":"RecordHashAdded","type":"event"},{"anonymous":false,"inputs":[{"indexed":true,"internalType":"string","name":"recordId","type":"string"},{"indexed":true,"internalType":"bytes32","name":"subjectIdHash","type":"bytes32"},{"indexed":false,"internalType":"uint256","name":"timestamp","type":"uint256"}],"name":"RecordReanchored","type":"event"},{"anonymous":false,"inputs":[{"indexed":true,"internalType":"string","name":"recordId","type":"string"},{"indexed":true,"internalType":"bytes32","name":"subjectIdHash","type":"bytes32"},{"indexed":false,"internalType":"uint256","name":"timestamp","type":"uint256"}],"name":"RecordUnanchored","type":"event"},{"anonymous":false,"inputs":[{"indexed":true,"internalType":"string","name":"recordHash","type":"string"},{"indexed":true,"internalType":"string","name":"recordId","type":"string"},{"indexed":true,"internalType":"bytes32","name":"verifierIdHash","type":"bytes32"},{"indexed":false,"internalType":"enum HealthRecordCore.VerificationLevel","name":"level","type":"uint8"},{"indexed":false,"internalType":"uint256","name":"timestamp","type":"uint256"}],"name":"RecordVerified","type":"event"},{"anonymous":false,"inputs":[{"indexed":true,"internalType":"bytes32","name":"subjectIdHash","type":"bytes32"},{"indexed":true,"internalType":"string","name":"recordId","type":"string"},{"indexed":true,"internalType":"string","name":"noteHash","type":"string"},{"indexed":false,"internalType":"uint256","name":"flagIndex","type":"uint256"},{"indexed":false,"internalType":"uint256","name":"timestamp","type":"uint256"}],"name":"UnacceptedUpdateFlagged","type":"event"},{"anonymous":false,"inputs":[{"indexed":true,"internalType":"bytes32","name":"subjectIdHash","type":"bytes32"},{"indexed":true,"internalType":"uint256","name":"flagIndex","type":"uint256"},{"indexed":false,"internalType":"enum HealthRecordCore.ResolutionType","name":"resolution","type":"uint8"},{"indexed":false,"internalType":"uint256","name":"timestamp","type":"uint256"}],"name":"UnacceptedUpdateResolved","type":"event"},{"anonymous":false,"inputs":[{"indexed":true,"internalType":"string","name":"recordHash","type":"string"},{"indexed":true,"internalType":"bytes32","name":"verifierIdHash","type":"bytes32"},{"indexed":false,"internalType":"enum HealthRecordCore.VerificationLevel","name":"oldLevel","type":"uint8"},{"indexed":false,"internalType":"enum HealthRecordCore.VerificationLevel","name":"newLevel","type":"uint8"},{"indexed":false,"internalType":"uint256","name":"timestamp","type":"uint256"}],"name":"VerificationLevelModified","type":"event"},{"anonymous":false,"inputs":[{"indexed":true,"internalType":"string","name":"recordHash","type":"string"},{"indexed":true,"internalType":"bytes32","name":"verifierIdHash","type":"bytes32"},{"indexed":false,"internalType":"uint256","name":"timestamp","type":"uint256"}],"name":"VerificationRetracted","type":"event"},{"inputs":[{"internalType":"bytes32","name":"","type":"bytes32"}],"name":"activeUnacceptedFlagCount","outputs":[{"internalType":"uint256","name":"","type":"uint256"}],"stateMutability":"view","type":"function"},{"inputs":[{"internalType":"string","name":"recordId","type":"string"},{"internalType":"string","name":"newHash","type":"string"}],"name":"addRecordHash","outputs":[],"stateMutability":"nonpayable","type":"function"},{"inputs":[],"name":"admin","outputs":[{"internalType":"address","name":"","type":"address"}],"stateMutability":"view","type":"function"},{"inputs":[{"internalType":"string","name":"recordId","type":"string"},{"internalType":"string","name":"recordHash","type":"string"}],"name":"anchorRecord","outputs":[],"stateMutability":"nonpayable","type":"function"},{"inputs":[{"internalType":"string","name":"","type":"string"},{"internalType":"bytes32","name":"","type":"bytes32"}],"name":"disputeIndex","outputs":[{"internalType":"uint256","name":"","type":"uint256"}],"stateMutability":"view","type":"function"},{"inputs":[{"internalType":"string","name":"","type":"string"},{"internalType":"bytes32","name":"","type":"bytes32"},{"internalType":"uint256","name":"","type":"uint256"}],"name":"disputeReactions","outputs":[{"internalType":"bytes32","name":"reactorIdHash","type":"bytes32"},{"internalType":"bool","name":"supportsDispute","type":"bool"},{"internalType":"uint256","name":"timestamp","type":"uint256"},{"internalType":"bool","name":"isActive","type":"bool"}],"stateMutability":"view","type":"function"},{"inputs":[{"internalType":"string","name":"recordId","type":"string"},{"internalType":"string","name":"recordHash","type":"string"},{"internalType":"uint8","name":"severity","type":"uint8"},{"internalType":"uint8","name":"culpability","type":"uint8"},{"internalType":"string","name":"notes","type":"string"}],"name":"disputeRecord","outputs":[],"stateMutability":"nonpayable","type":"function"},{"inputs":[{"internalType":"string","name":"","type":"string"},{"internalType":"uint256","name":"","type":"uint256"}],"name":"disputes","outputs":[{"internalType":"bytes32","name":"disputerIdHash","type":"bytes32"},{"internalType":"string","name":"recordId","type":"string"},{"internalType":"enum HealthRecordCore.DisputeSeverity","name":"severity","type":"uint8"},{"internalType":"enum HealthRecordCore.DisputeCulpability","name":"culpability","type":"uint8"},{"internalType":"string","name":"notes","type":"string"},{"internalType":"uint256","name":"createdAt","type":"uint256"},{"internalType":"bool","name":"isActive","type":"bool"}],"stateMutability":"view","type":"function"},{"inputs":[{"internalType":"bytes32","name":"","type":"bytes32"},{"internalType":"uint256","name":"","type":"uint256"}],"name":"disputesByUser","outputs":[{"internalType":"string","name":"","type":"string"}],"stateMutability":"view","type":"function"},{"inputs":[{"internalType":"string","name":"recordHash","type":"string"}],"name":"doesHashExist","outputs":[{"internalType":"bool","name":"","type":"bool"}],"stateMutability":"view","type":"function"},{"inputs":[{"internalType":"bytes32","name":"subjectIdHash","type":"bytes32"},{"internalType":"string","name":"recordId","type":"string"},{"internalType":"string","name":"noteHash","type":"string"}],"name":"flagUnacceptedUpdate","outputs":[],"stateMutability":"nonpayable","type":"function"},{"inputs":[{"internalType":"string","name":"recordId","type":"string"}],"name":"getActiveRecordSubjects","outputs":[{"internalType":"bytes32[]","name":"","type":"bytes32[]"}],"stateMutability":"view","type":"function"},{"inputs":[{"internalType":"bytes32","name":"subjectIdHash","type":"bytes32"}],"name":"getActiveUnacceptedFlagCount","outputs":[{"internalType":"uint256","name":"","type":"uint256"}],"stateMutability":"view","type":"function"},{"inputs":[{"internalType":"string","name":"recordHash","type":"string"},{"internalType":"bytes32","name":"disputerIdHash","type":"bytes32"}],"name":"getDisputeReactions","outputs":[{"components":[{"internalType":"bytes32","name":"reactorIdHash","type":"bytes32"},{"internalType":"bool","name":"supportsDispute","type":"bool"},{"internalType":"uint256","name":"timestamp","type":"uint256"},{"internalType":"bool","name":"isActive","type":"bool"}],"internalType":"struct HealthRecordCore.Reaction[]","name":"","type":"tuple[]"}],"stateMutability":"view","type":"function"},{"inputs":[{"internalType":"string","name":"recordHash","type":"string"}],"name":"getDisputeStats","outputs":[{"internalType":"uint256","name":"total","type":"uint256"},{"internalType":"uint256","name":"active","type":"uint256"}],"stateMutability":"view","type":"function"},{"inputs":[{"internalType":"string","name":"recordHash","type":"string"}],"name":"getDisputeStatsBySeverity","outputs":[{"internalType":"uint256","name":"total","type":"uint256"},{"internalType":"uint256","name":"active","type":"uint256"},{"internalType":"uint256","name":"negligibleCount","type":"uint256"},{"internalType":"uint256","name":"moderateCount","type":"uint256"},{"internalType":"uint256","name":"majorCount","type":"uint256"}],"stateMutability":"view","type":"function"},{"inputs":[{"internalType":"string","name":"recordHash","type":"string"}],"name":"getDisputes","outputs":[{"components":[{"internalType":"bytes32","name":"disputerIdHash","type":"bytes32"},{"internalType":"string","name":"recordId","type":"string"},{"internalType":"enum HealthRecordCore.DisputeSeverity","name":"severity","type":"uint8"},{"internalType":"enum HealthRecordCore.DisputeCulpability","name":"culpability","type":"uint8"},{"internalType":"string","name":"notes","type":"string"},{"internalType":"uint256","name":"createdAt","type":"uint256"},{"internalType":"bool","name":"isActive","type":"bool"}],"internalType":"struct HealthRecordCore.Dispute[]","name":"","type":"tuple[]"}],"stateMutability":"view","type":"function"},{"inputs":[{"internalType":"string","name":"recordHash","type":"string"},{"internalType":"bytes32","name":"disputerIdHash","type":"bytes32"}],"name":"getReactionStats","outputs":[{"internalType":"uint256","name":"totalReactions","type":"uint256"},{"internalType":"uint256","name":"activeSupports","type":"uint256"},{"internalType":"uint256","name":"activeOpposes","type":"uint256"}],"stateMutability":"view","type":"function"},{"inputs":[{"internalType":"string","name":"recordHash","type":"string"}],"name":"getRecordHashReviewSummary","outputs":[{"internalType":"uint256","name":"activeVerifications","type":"uint256"},{"internalType":"uint256","name":"activeDisputes","type":"uint256"},{"internalType":"uint256","name":"verificationCount","type":"uint256"},{"internalType":"uint256","name":"disputeCount","type":"uint256"}],"stateMutability":"view","type":"function"},{"inputs":[{"internalType":"string","name":"recordHash","type":"string"}],"name":"getRecordIdForHash","outputs":[{"internalType":"string","name":"","type":"string"}],"stateMutability":"view","type":"function"},{"inputs":[{"internalType":"string","name":"recordId","type":"string"}],"name":"getRecordSubjects","outputs":[{"internalType":"bytes32[]","name":"","type":"bytes32[]"}],"stateMutability":"view","type":"function"},{"inputs":[{"internalType":"string","name":"recordId","type":"string"}],"name":"getRecordVersionHistory","outputs":[{"internalType":"string[]","name":"","type":"string[]"}],"stateMutability":"view","type":"function"},{"inputs":[{"internalType":"bytes32","name":"userIdHash","type":"bytes32"}],"name":"getSubjectMedicalHistory","outputs":[{"internalType":"string[]","name":"","type":"string[]"}],"stateMutability":"view","type":"function"},{"inputs":[{"internalType":"string","name":"recordId","type":"string"}],"name":"getSubjectStats","outputs":[{"internalType":"uint256","name":"total","type":"uint256"},{"internalType":"uint256","name":"active","type":"uint256"}],"stateMutability":"view","type":"function"},{"inputs":[],"name":"getTotalAnchoredRecords","outputs":[{"internalType":"uint256","name":"","type":"uint256"}],"stateMutability":"view","type":"function"},{"inputs":[],"name":"getTotalReviewStats","outputs":[{"internalType":"uint256","name":"verificationCount","type":"uint256"},{"internalType":"uint256","name":"disputeCount","type":"uint256"}],"stateMutability":"view","type":"function"},{"inputs":[],"name":"getTotalUnacceptedFlagStats","outputs":[{"internalType":"uint256","name":"","type":"uint256"}],"stateMutability":"view","type":"function"},{"inputs":[{"internalType":"bytes32","name":"subjectIdHash","type":"bytes32"},{"internalType":"uint256","name":"flagIndex","type":"uint256"}],"name":"getUnacceptedUpdateFlag","outputs":[{"internalType":"string","name":"recordId","type":"string"},{"internalType":"string","name":"noteHash","type":"string"},{"internalType":"uint256","name":"createdAt","type":"uint256"},{"internalType":"enum HealthRecordCore.ResolutionType","name":"resolution","type":"uint8"},{"internalType":"uint256","name":"resolvedAt","type":"uint256"},{"internalType":"bool","name":"isActive","type":"bool"}],"stateMutability":"view","type":"function"},{"inputs":[{"internalType":"bytes32","name":"subjectIdHash","type":"bytes32"}],"name":"getUnacceptedUpdateFlags","outputs":[{"components":[{"internalType":"string","name":"recordId","type":"string"},{"internalType":"string","name":"noteHash","type":"string"},{"internalType":"uint256","name":"createdAt","type":"uint256"},{"internalType":"enum HealthRecordCore.ResolutionType","name":"resolution","type":"uint8"},{"internalType":"uint256","name":"resolvedAt","type":"uint256"},{"internalType":"bool","name":"isActive","type":"bool"}],"internalType":"struct HealthRecordCore.UnacceptedUpdateFlag[]","name":"","type":"tuple[]"}],"stateMutability":"view","type":"function"},{"inputs":[{"internalType":"string","name":"recordHash","type":"string"},{"internalType":"bytes32","name":"userIdHash","type":"bytes32"}],"name":"getUserDispute","outputs":[{"internalType":"bool","name":"exists","type":"bool"},{"internalType":"string","name":"recordId","type":"string"},{"internalType":"enum HealthRecordCore.DisputeSeverity","name":"severity","type":"uint8"},{"internalType":"enum HealthRecordCore.DisputeCulpability","name":"culpability","type":"uint8"},{"internalType":"string","name":"notes","type":"string"},{"internalType":"uint256","name":"createdAt","type":"uint256"},{"internalType":"bool","name":"isActive","type":"bool"}],"stateMutability":"view","type":"function"},{"inputs":[{"internalType":"bytes32","name":"userIdHash","type":"bytes32"}],"name":"getUserDisputes","outputs":[{"internalType":"string[]","name":"","type":"string[]"}],"stateMutability":"view","type":"function"},{"inputs":[{"internalType":"string","name":"recordHash","type":"string"},{"internalType":"bytes32","name":"disputerIdHash","type":"bytes32"},{"internalType":"bytes32","name":"reactorIdHash","type":"bytes32"}],"name":"getUserReaction","outputs":[{"internalType":"bool","name":"exists","type":"bool"},{"internalType":"bool","name":"supportsDispute","type":"bool"},{"internalType":"uint256","name":"timestamp","type":"uint256"},{"internalType":"bool","name":"isActive","type":"bool"}],"stateMutability":"view","type":"function"},{"inputs":[{"internalType":"bytes32","name":"userIdHash","type":"bytes32"}],"name":"getUserReviewHistory","outputs":[{"internalType":"uint256","name":"userVerifications","type":"uint256"},{"internalType":"uint256","name":"userDisputes","type":"uint256"}],"stateMutability":"view","type":"function"},{"inputs":[{"internalType":"string","name":"recordHash","type":"string"},{"internalType":"bytes32","name":"userIdHash","type":"bytes32"}],"name":"getUserVerification","outputs":[{"internalType":"bool","name":"exists","type":"bool"},{"internalType":"string","name":"recordId","type":"string"},{"internalType":"enum HealthRecordCore.VerificationLevel","name":"level","type":"uint8"},{"internalType":"uint256","name":"createdAt","type":"uint256"},{"internalType":"bool","name":"isActive","type":"bool"}],"stateMutability":"view","type":"function"},{"inputs":[{"internalType":"bytes32","name":"userIdHash","type":"bytes32"}],"name":"getUserVerifications","outputs":[{"internalType":"string[]","name":"","type":"string[]"}],"stateMutability":"view","type":"function"},{"inputs":[{"internalType":"string","name":"recordHash","type":"string"}],"name":"getVerificationStats","outputs":[{"internalType":"uint256","name":"total","type":"uint256"},{"internalType":"uint256","name":"active","type":"uint256"}],"stateMutability":"view","type":"function"},{"inputs":[{"internalType":"string","name":"recordHash","type":"string"}],"name":"getVerificationStatsByLevel","outputs":[{"internalType":"uint256","name":"total","type":"uint256"},{"internalType":"uint256","name":"active","type":"uint256"},{"internalType":"uint256","name":"provenanceCount","type":"uint256"},{"internalType":"uint256","name":"contentCount","type":"uint256"},{"internalType":"uint256","name":"fullCount","type":"uint256"}],"stateMutability":"view","type":"function"},{"inputs":[{"internalType":"string","name":"recordHash","type":"string"}],"name":"getVerifications","outputs":[{"components":[{"internalType":"bytes32","name":"verifierIdHash","type":"bytes32"},{"internalType":"string","name":"recordId","type":"string"},{"internalType":"enum HealthRecordCore.VerificationLevel","name":"level","type":"uint8"},{"internalType":"uint256","name":"createdAt","type":"uint256"},{"internalType":"bool","name":"isActive","type":"bool"}],"internalType":"struct HealthRecordCore.Verification[]","name":"","type":"tuple[]"}],"stateMutability":"view","type":"function"},{"inputs":[{"internalType":"string","name":"recordId","type":"string"}],"name":"getVersionCount","outputs":[{"internalType":"uint256","name":"","type":"uint256"}],"stateMutability":"view","type":"function"},{"inputs":[{"internalType":"bytes32","name":"subjectIdHash","type":"bytes32"}],"name":"hasActiveUnacceptedFlags","outputs":[{"internalType":"bool","name":"","type":"bool"}],"stateMutability":"view","type":"function"},{"inputs":[{"internalType":"string","name":"","type":"string"},{"internalType":"bytes32","name":"","type":"bytes32"}],"name":"hasDisputed","outputs":[{"internalType":"bool","name":"","type":"bool"}],"stateMutability":"view","type":"function"},{"inputs":[{"internalType":"string","name":"","type":"string"},{"internalType":"bytes32","name":"","type":"bytes32"},{"internalType":"bytes32","name":"","type":"bytes32"}],"name":"hasReactedToDispute","outputs":[{"internalType":"bool","name":"","type":"bool"}],"stateMutability":"view","type":"function"},{"inputs":[{"internalType":"string","name":"recordHash","type":"string"},{"internalType":"bytes32","name":"userIdHash","type":"bytes32"}],"name":"hasUserDisputed","outputs":[{"internalType":"bool","name":"","type":"bool"}],"stateMutability":"view","type":"function"},{"inputs":[{"internalType":"string","name":"recordHash","type":"string"},{"internalType":"bytes32","name":"disputerIdHash","type":"bytes32"},{"internalType":"bytes32","name":"reactorIdHash","type":"bytes32"}],"name":"hasUserReacted","outputs":[{"internalType":"bool","name":"","type":"bool"}],"stateMutability":"view","type":"function"},{"inputs":[{"internalType":"string","name":"recordHash","type":"string"},{"internalType":"bytes32","name":"userIdHash","type":"bytes32"}],"name":"hasUserVerified","outputs":[{"internalType":"bool","name":"","type":"bool"}],"stateMutability":"view","type":"function"},{"inputs":[{"internalType":"string","name":"","type":"string"},{"internalType":"bytes32","name":"","type":"bytes32"}],"name":"hasVerified","outputs":[{"internalType":"bool","name":"","type":"bool"}],"stateMutability":"view","type":"function"},{"inputs":[{"internalType":"string","name":"","type":"string"}],"name":"hashExists","outputs":[{"internalType":"bool","name":"","type":"bool"}],"stateMutability":"view","type":"function"},{"inputs":[{"internalType":"string","name":"recordId","type":"string"},{"internalType":"bytes32","name":"userIdHash","type":"bytes32"}],"name":"isActiveSubject","outputs":[{"internalType":"bool","name":"","type":"bool"}],"stateMutability":"view","type":"function"},{"inputs":[{"internalType":"string","name":"recordId","type":"string"},{"internalType":"bytes32","name":"userIdHash","type":"bytes32"}],"name":"isSubject","outputs":[{"internalType":"bool","name":"","type":"bool"}],"stateMutability":"view","type":"function"},{"inputs":[{"internalType":"string","name":"","type":"string"},{"internalType":"bytes32","name":"","type":"bytes32"}],"name":"isSubjectActive","outputs":[{"internalType":"bool","name":"","type":"bool"}],"stateMutability":"view","type":"function"},{"inputs":[{"internalType":"string","name":"","type":"string"},{"internalType":"bytes32","name":"","type":"bytes32"}],"name":"isSubjectOfRecord","outputs":[{"internalType":"bool","name":"","type":"bool"}],"stateMutability":"view","type":"function"},{"inputs":[],"name":"memberRoleManager","outputs":[{"internalType":"contract MemberRoleManagerInterface","name":"","type":"address"}],"stateMutability":"view","type":"function"},{"inputs":[{"internalType":"string","name":"recordHash","type":"string"},{"internalType":"uint8","name":"newSeverity","type":"uint8"},{"internalType":"uint8","name":"newCulpability","type":"uint8"}],"name":"modifyDispute","outputs":[],"stateMutability":"nonpayable","type":"function"},{"inputs":[{"internalType":"string","name":"recordHash","type":"string"},{"internalType":"bytes32","name":"disputerIdHash","type":"bytes32"},{"internalType":"bool","name":"newSupport","type":"bool"}],"name":"modifyReaction","outputs":[],"stateMutability":"nonpayable","type":"function"},{"inputs":[{"internalType":"string","name":"recordHash","type":"string"},{"internalType":"uint8","name":"newLevel","type":"uint8"}],"name":"modifyVerificationLevel","outputs":[],"stateMutability":"nonpayable","type":"function"},{"inputs":[{"internalType":"string","name":"recordHash","type":"string"},{"internalType":"bytes32","name":"disputerIdHash","type":"bytes32"},{"internalType":"bool","name":"supportsDispute","type":"bool"}],"name":"reactToDispute","outputs":[],"stateMutability":"nonpayable","type":"function"},{"inputs":[{"internalType":"string","name":"","type":"string"},{"internalType":"bytes32","name":"","type":"bytes32"},{"internalType":"bytes32","name":"","type":"bytes32"}],"name":"reactionIndex","outputs":[{"internalType":"uint256","name":"","type":"uint256"}],"stateMutability":"view","type":"function"},{"inputs":[{"internalType":"string","name":"recordId","type":"string"}],"name":"reanchorRecord","outputs":[],"stateMutability":"nonpayable","type":"function"},{"inputs":[{"internalType":"string","name":"","type":"string"}],"name":"recordIdForHash","outputs":[{"internalType":"string","name":"","type":"string"}],"stateMutability":"view","type":"function"},{"inputs":[{"internalType":"string","name":"","type":"string"},{"internalType":"uint256","name":"","type":"uint256"}],"name":"recordSubjects","outputs":[{"internalType":"bytes32","name":"","type":"bytes32"}],"stateMutability":"view","type":"function"},{"inputs":[{"internalType":"string","name":"","type":"string"},{"internalType":"uint256","name":"","type":"uint256"}],"name":"recordVersionHistory","outputs":[{"internalType":"string","name":"","type":"string"}],"stateMutability":"view","type":"function"},{"inputs":[{"internalType":"bytes32","name":"subjectIdHash","type":"bytes32"},{"internalType":"uint256","name":"flagIndex","type":"uint256"},{"internalType":"enum HealthRecordCore.ResolutionType","name":"resolution","type":"uint8"}],"name":"resolveUnacceptedUpdate","outputs":[],"stateMutability":"nonpayable","type":"function"},{"inputs":[{"internalType":"string","name":"recordHash","type":"string"}],"name":"retractDispute","outputs":[],"stateMutability":"nonpayable","type":"function"},{"inputs":[{"internalType":"string","name":"recordHash","type":"string"},{"internalType":"bytes32","name":"disputerIdHash","type":"bytes32"}],"name":"retractReaction","outputs":[],"stateMutability":"nonpayable","type":"function"},{"inputs":[{"internalType":"string","name":"recordHash","type":"string"}],"name":"retractVerification","outputs":[],"stateMutability":"nonpayable","type":"function"},{"inputs":[{"internalType":"address","name":"_memberRoleManager","type":"address"}],"name":"setMemberRoleManager","outputs":[],"stateMutability":"nonpayable","type":"function"},{"inputs":[{"internalType":"bytes32","name":"","type":"bytes32"},{"internalType":"uint256","name":"","type":"uint256"}],"name":"subjectMedicalHistory","outputs":[{"internalType":"string","name":"","type":"string"}],"stateMutability":"view","type":"function"},{"inputs":[],"name":"totalAnchoredRecords","outputs":[{"internalType":"uint256","name":"","type":"uint256"}],"stateMutability":"view","type":"function"},{"inputs":[],"name":"totalDisputes","outputs":[{"internalType":"uint256","name":"","type":"uint256"}],"stateMutability":"view","type":"function"},{"inputs":[],"name":"totalUnacceptedFlags","outputs":[{"internalType":"uint256","name":"","type":"uint256"}],"stateMutability":"view","type":"function"},{"inputs":[],"name":"totalVerifications","outputs":[{"internalType":"uint256","name":"","type":"uint256"}],"stateMutability":"view","type":"function"},{"inputs":[{"internalType":"address","name":"newAdmin","type":"address"}],"name":"transferAdmin","outputs":[],"stateMutability":"nonpayable","type":"function"},{"inputs":[{"internalType":"bytes32","name":"","type":"bytes32"},{"internalType":"uint256","name":"","type":"uint256"}],"name":"unacceptedUpdateFlags","outputs":[{"internalType":"string","name":"recordId","type":"string"},{"internalType":"string","name":"noteHash","type":"string"},{"internalType":"uint256","name":"createdAt","type":"uint256"},{"internalType":"enum HealthRecordCore.ResolutionType","name":"resolution","type":"uint8"},{"internalType":"uint256","name":"resolvedAt","type":"uint256"},{"internalType":"bool","name":"isActive","type":"bool"}],"stateMutability":"view","type":"function"},{"inputs":[{"internalType":"string","name":"recordId","type":"string"}],"name":"unanchorRecord","outputs":[],"stateMutability":"nonpayable","type":"function"},{"inputs":[{"internalType":"string","name":"","type":"string"},{"internalType":"bytes32","name":"","type":"bytes32"}],"name":"verificationIndex","outputs":[{"internalType":"uint256","name":"","type":"uint256"}],"stateMutability":"view","type":"function"},{"inputs":[{"internalType":"string","name":"","type":"string"},{"internalType":"uint256","name":"","type":"uint256"}],"name":"verifications","outputs":[{"internalType":"bytes32","name":"verifierIdHash","type":"bytes32"},{"internalType":"string","name":"recordId","type":"string"},{"internalType":"enum HealthRecordCore.VerificationLevel","name":"level","type":"uint8"},{"internalType":"uint256","name":"createdAt","type":"uint256"},{"internalType":"bool","name":"isActive","type":"bool"}],"stateMutability":"view","type":"function"},{"inputs":[{"internalType":"bytes32","name":"","type":"bytes32"},{"internalType":"uint256","name":"","type":"uint256"}],"name":"verificationsByUser","outputs":[{"internalType":"string","name":"","type":"string"}],"stateMutability":"view","type":"function"},{"inputs":[{"internalType":"string","name":"recordId","type":"string"},{"internalType":"string","name":"recordHash","type":"string"},{"internalType":"uint8","name":"level","type":"uint8"}],"name":"verifyRecord","outputs":[],"stateMutability":"nonpayable","type":"function"}],"evm":{"bytecode":{"linkReferences":{},"object":"608034620000d857601f62005b4338819003918201601f19168301916001600160401b03831184841017620000dd57808492602094604052833981010312620000d857516001600160a01b03811690819003620000d8578015620000895760018060a01b03199081600054161760005533906001541617600155604051615a4f9081620000f48239f35b60405162461bcd60e51b815260206004820152602160248201527f496e76616c6964204d656d626572526f6c654d616e61676572206164647265736044820152607360f81b6064820152608490fd5b600080fd5b634e487b7160e01b600052604160045260246000fdfe6080604052600436101561001257600080fd5b60e0600035811c9081623297e41461144057816301b4147d1461165157816305f5943914611dab5781630fbab50a146148b257816310a0e88a146148eb57816313bf57f4146148b2578163153707031461488957816319bfe5f2146148505781631a6b3d2a146148175781631aacda881461468a5781631b7cabb71461457a5781631cf8cbe8146114225781631e59607a146145555781631ec50c0e1461451e57816321d9caaa14614458578163223c3bb91461440f578163249dda2e146111dc57816325db354d146143db5781632a4e0476146142265781632cb2c1e9146140845781632e6df69814613fd55781632fa8db0414613ea1578163315ca5ba14613e08578163339a0aec14613d2157816335c4c20314613ac9578163365348e914613a7f5781633f132dc114613841578163400f8d06146137ad5781634294e2ff146135ec5781634b7c908a146134665781635203cbed1461308f578163533acffd14612beb5781635a18672e1461297a5781635d12da50146129465781635d28a342146129185781636018200d14612822578163629be2b6146126c75781636eb7457f146126325781637286b6f91461252257816375829def146124a457816382953131146122d8578163883080af14611ef95781638da1d36914611e675781638e3ccbcf14611e0c5781639871e51014611dab57816398909e2214610d71578163a5f2d1d114611af9578163ac90c14014611adb578163ac92433614611241578163adcee10214611aa5578163b0c7363c14611a65578163b27bb4d514611a2f578163b48ac4d2146117a9578163b5e6b7a214611759578163c18cf8d2146116e8578163c282f4ab146116a8578163c5e4ccc41461168a578163c6bd157214611651578163c7695bab146115d0578163ca1e910a1461150f57508063d08c800d1461148e578063d411ff2814611440578063d46e082f14611422578063d4f7a4651461125f578063d5ba54e714611241578063d5be300114611208578063dbc7b842146111dc578063dd0bc0821461117e578063e08f1ac3146110f9578063e2aae6e014610dce578063e3de756314610d71578063f251f8e414610c47578063f3ac2bea14610bb6578063f5e7f9f414610acd578063f7c0d033146108f6578063f851a440146108cd578063f9f70c4a146108965763fd328f581461037857600080fd5b346108155760a0366003190112610815576001600160401b03600435818111610815576103a9903690600401614c00565b906024918235828111610815576103c4903690600401614c00565b6103cc614cba565b906064359360ff8516850361081557608435908111610815576103f3903690600401614c00565b6000546040516345ecd02f60e01b81523360048201526001600160a01b03909116906020818981855afa80156108225761043591600091610877575b50615437565b604051630286b6ab60e31b81529060208280610455338a6004840161547a565b0381845afa908115610822576104776020928a9460009161084a575b506154a2565b61048387511515615693565b61048f855115156156df565b600160ff871610158061083c575b6104a690615053565b600160ff891610158061082e575b6104bd90615096565b60405162b0c80960e01b815233600482015298899182905afa968715610822576000976107e9575b506104f18715156150e2565b60405160208185516105068183858a01614c87565b8101600e8152030190208760005260205260ff604060002054166107a55760405160208185516105398183858a01614c87565b8101600d8152030190205491604051602081865161055a8183858b01614c87565b8101600d8152030190209161057160ff8716614cef565b600660ff89161015610767576040519161058a83614ba9565b898352602083019388855260408401906105a660ff8a16614cef565b60ff8916825260608501926105be60ff8d168561539d565b60808601524260a0860152600160c0860152805490600160401b82101561079057906105ef91600182018155615037565b95909561077b579061060c61061f92865188555160018801615527565b5161061681614cef565b60028601615172565b5190600682101561076757506060947f1e9fc3a602c7b16a7098c5ba783b4f9d40508e6aa83fc4a05853c485261f12bc96946106a285600560c061073c9761067061073698600261075e9c0161518a565b610681608082015160038601615527565b60a081015160048501550151151591019060ff801983541691151516179055565b60405160208184516106b78183858901614c87565b8101600e8152030190208b6000526020526040600020600160ff1982541617905560405160208184516106ed8183858901614c87565b8101600f8152030190208b600052602052604060002055601660205261071781604060002061576b565b61072260185461538e565b60185561073160ff8616614cef565b6151a9565b956151a9565b9560ff6040519361074e828216614cef565b16835260ff602084019116614f27565b426040820152a4005b634e487b7160e01b60009081526021600452fd5b83634e487b7160e01b60005260006004526000fd5b84634e487b7160e01b60005260416004526000fd5b606490601a6040519162461bcd60e51b8352602060048401528201527f416c7265616479206469737075746564207468697320686173680000000000006044820152fd5b9096506020813d60201161081a575b8161080560209383614bdf565b81010312610815575195386104e5565b600080fd5b3d91506107f8565b6040513d6000823e3d90fd5b50600560ff891611156104b4565b50600360ff8716111561049d565b61086a9150843d8611610870575b6108628183614bdf565b81019061541f565b38610471565b503d610858565b610890915060203d602011610870576108628183614bdf565b3861042f565b346108155760806108af6108a936615002565b91615941565b91604051931515845215156020840152604083015215156060820152f35b34610815576000366003190112610815576001546040516001600160a01b039091168152602090f35b346108155760208060031936011261081557600435906001600160401b0382116108155761092a6024923690600401614c00565b60005460405162b0c80960e01b815233600482015293839185919082906001600160a01b03165afa92831561082257600093610a9e575b5061096d8315156150e2565b604051815190838181850193610984818387614c87565b8101600b81520301902084600052835260ff6040600020541615610a59577f94748c1a380e215f3ba9de3f49d5c0a47c8bff6c16301f5f153e2429032722f0916004610a40610a4f93604051878186516109df818387614c87565b8101600c815203019020886000528752610a178760406000205492610a2f60ff87610a26878b87604051809251610a1781838c614c87565b8101600a815203019020614fe6565b500154166152e8565b604051809381928951928391614c87565b5001805460ff191690556151a9565b91604051428152a3005b60405162461bcd60e51b815260048101849052601a60248201527f4e6f20766572696669636174696f6e20746f20726574726163740000000000006044820152606490fd5b9092508181813d8311610ac6575b610ab68183614bdf565b8101031261081557519183610961565b503d610aac565b3461081557610adb36614c56565b6040518281809451610af38160209788809601614c87565b810160108152030190209060005281526040600020908154610b1481615328565b90610b226040519283614bdf565b8082528282018094600052836000206000915b838310610b995760408051878152865181890181905289928201908960005b828110610b615784840385f35b855180518552808301511515858401526040808201519086015260609081015115159085015294810194608090930192600101610b54565b600486600192610ba88561533f565b815201920192019190610b35565b3461081557610bc436614c56565b90604051918151926020938185809381870193610be2818387614c87565b8101600381520301902083600052825260ff604060002054169384610c0e575b82856040519015158152f35b610c25939450604051938492839251928391614c87565b8101600581520301902090600052815260ff6040600020541682828180610c02565b34610815576020806003193601126108155760043560005260138152604060002090815491610c7583615328565b92610c836040519485614bdf565b8084528284018092600052836000206000915b838310610d4e5750505050604051918083019381845251809452604083019360408160051b85010192916000955b828710610cd15785850386f35b909192938280600192603f19898203018552875190610d0c610cfc60c0845190808552840190614cca565b8484015183820386850152614cca565b9160408101516040830152610d2960608083015190840190614f4a565b6080808201519083015260a08091015115159101529601920196019592919092610cc4565b600686600192610d60859a999a615798565b815201920192019190959495610c96565b3461081557610d9c6020610d8436615002565b93918360409492945193828580945193849201614c87565b8101601181520301902090600052602052604060002090600052602052602060ff604060002054166040519015158152f35b3461081557610ddc36614fa3565b6000546040516345ecd02f60e01b815233600482015260209360249290916001600160a01b039091169085818581855afa801561082257610e24916000916110dc5750615437565b60405163a0ca13c360e01b8152858180610e4233876004840161547a565b0381855afa908115610822576000916110bf575b50156110855783511561104a5760405190825191868181860194610e7b818388614c87565b810160028152030190205415611010576040519060ff8651928881818a0195610ea5818389614c87565b810160088152030190205416610fd65786906040519586809262b0c80960e01b82523360048301525afa9384156108225786928691600096610f9f575b5093610f7184610f9194610f61610f8b95610f527f60d9fff893391026daade2734b45ecb2fb8ae1f0187ea2b39018ee8bdc94390a9b9960409b610f42898e51848180610f338c8b51928391614c87565b81016006815203019020615527565b8c51809381928b51928391614c87565b8101600781520301902061576b565b8751809381928c51928391614c87565b81016008815203019020600160ff198254161790556151a9565b946151a9565b9482519182524290820152a3005b955092905084813d8311610fcf575b610fb88183614bdf565b810103126108155792519285918590610f71610ee2565b503d610fae565b60405162461bcd60e51b815260048101889052601381870152724861736820616c72656164792065786973747360681b6044820152606490fd5b60405162461bcd60e51b81526004810187905260138186015272149958dbdc99081b9bdd08185b98da1bdc9959606a1b6044820152606490fd5b60405162461bcd60e51b81526004810186905260148185015273486173682063616e6e6f7420626520656d70747960601b6044820152606490fd5b60405162461bcd60e51b8152600481018690526013818501527227b7363c9037bbb732b91037b91030b236b4b760691b6044820152606490fd5b6110d69150863d8811610870576108628183614bdf565b86610e56565b6110f39150873d8911610870576108628183614bdf565b8761042f565b34610815576020806003193601126108155760043560005260156020526040600020805461112681615328565b916111346040519384614bdf565b81835260208301906000526020600020936000915b838310611162576040518061115e8782614e85565b0390f35b600182819261117089614d61565b815201960192019194611149565b34610815576020366003190112610815576004356001600160a01b0381811691829003610815576111b4906001541633146154ee565b6111bf811515615800565b6bffffffffffffffffffffffff60a01b6000541617600055600080f35b346108155760203660031901126108155760043560005260146020526020604060002054604051908152f35b34610815576020366003190112610815576004356000526015602052604080600020546016602052816000205482519182526020820152f35b34610815576000366003190112610815576020601954604051908152f35b3461081557602080600319360112610815576004356001600160401b03811161081557611290903690600401614c00565b9060008091604051818551918181818901946112ad818388614c87565b8101600a8152030190209586546112c381615328565b976112d1604051998a614bdf565b8189526000908152838120848a015b8383106113fd57505050509161130192604051938492839251928391614c87565b8101600d81520301902092835461131781615328565b946113256040519687614bdf565b8186526000908152838120848088015b8484106113de57505050505084519084519460005b875181101561138357608061135f828a61537a565b51015161136f575b60010161134a565b9461137b60019161538e565b959050611367565b50848660005b83518110156113c25760c061139e828661537a565b5101516113ae575b600101611389565b936113ba60019161538e565b9490506113a6565b6080838388888b60405194855284015260408301526060820152f35b6001916006916113ed856153a9565b8152019201920191908590611335565b81929394956005916114106001946151c9565b815201920192019091869493926112e0565b34610815576000366003190112610815576020600954604051908152f35b3461081557602061146861145336614c56565b92908160405193828580945193849201614c87565b8101600e81520301902090600052602052602060ff604060002054166040519015158152f35b3461081557602080600319360112610815576004356000526016602052604060002080546114bb81615328565b916114c96040519384614bdf565b81835260208301906000526020600020936000915b8383106114f3576040518061115e8782614e85565b600182819261150189614d61565b8152019601920191946114de565b3461081557602061152261145336614c56565b8101600d8152030190209081548110156108155761153f91615037565b5080549061154f60018201614d61565b6115bf600283015460ff8116906115b261156b60038701614d61565b9161159360ff600560048a015499015416966040519a8b9a8b528060208c01528a0190614cca565b9361159d81614cef565b604089015260ff606089019160081c16614f27565b8582036080870152614cca565b9160a0840152151560c08301520390f35b3461081557602080600319360112610815576004356000526004602052604060002080546115fd81615328565b9161160b6040519384614bdf565b81835260208301906000526020600020936000915b838310611635576040518061115e8782614e85565b600182819261164389614d61565b815201960192019194611620565b3461081557602061166461145336614c56565b8101600381520301902090600052602052602060ff604060002054166040519015158152f35b34610815576000366003190112610815576020601854604051908152f35b346108155760206116bb61145336614c56565b810160028152030190208054821015610815576020916116da91614cf9565b90546040519160031b1c8152f35b34610815576116f636614f34565b90600052601360205260406000209081548110156108155761171791615037565b5061172181614d61565b61115e61173060018401614d61565b9260028101549060ff60038201541660ff60056004840154930154169260405196879687614f57565b346108155761176736614f34565b90600052601560205260406000209081548110156108155761178f6117959161115e93614cf9565b90614e06565b604051918291602083526020830190614cca565b3461081557602080600319360112610815576004356001600160401b038111610815576117da903690600401614c00565b6000546040516345ecd02f60e01b81523360048201526001600160a01b039091169291908281602481875afa80156108225761181d91600091611a125750615437565b604051630286b6ab60e31b81529282848061183c33866004840161547a565b0381845afa9081156108225761185d84926024966000916119f557506154a2565b60405162b0c80960e01b815233600482015294859182905afa928315610822576000936119c6575b506118918315156150e2565b6040518151908381818501936118a8818387614c87565b8101600381520301902084600052835260ff604060002054161561198b57604051838184516118d8818387614c87565b8101600581520301902084600052835260ff60406000205416611955577f08f30cbe91e0ca2a9f89c7c4a38baaa3fdd002bf05e8d40e1ca69945d06a49019161193084610a4f93604051809381928651928391614c87565b810160058152030190208560005284526040600020600160ff198254161790556151a9565b60405162461bcd60e51b815260048101849052600e60248201526d416c72656164792061637469766560901b6044820152606490fd5b60405162461bcd60e51b815260048101849052601360248201527215d85cc81b995d995c8818481cdd589a9958dd606a1b6044820152606490fd5b9092508181813d83116119ee575b6119de8183614bdf565b8101031261081557519183611885565b503d6119d4565b611a0c9150843d8611610870576108628183614bdf565b87610471565b611a299150843d8611610870576108628183614bdf565b8561042f565b3461081557611a3d36614f34565b90600052600460205260406000209081548110156108155761178f6117959161115e93614cf9565b3461081557611a786020610d8436615002565b81016012815203019020906000526020526040600020906000526020526020604060002054604051908152f35b3461081557611ab336614f34565b90600052601660205260406000209081548110156108155761178f6117959161115e93614cf9565b34610815576000366003190112610815576020601754604051908152f35b34610815576040366003190112610815576004356001600160401b03811161081557611b29903690600401614c00565b60ff611b33614caa565b1690600182101580611da0575b611b499061572b565b60005460405162b0c80960e01b815233600482015292602092918390859060249082906001600160a01b03165afa93841561082257600094611d71575b50611b928415156150e2565b604051825190848181860193611ba9818387614c87565b8101600b81520301902085600052845260ff6040600020541615611d2c57611c099060405185818651611bdd818387614c87565b8101600c815203019020866000528552610a178560406000205492604051809381928951928391614c87565b5060ff60048201541615611ce7576002019160ff83541692611c2a83614cef565b611c3383614cef565b611c3c84614cef565b828414611cad5791611c887f334f52bdf9b484290889b34fb83ad64bff4dd1b7028a24d048a3a85537b53ff99492611c7f83606096611c7a82614cef565b615172565b61073183614cef565b9460405192611c9681614cef565b8352611ca182614cef565b820152426040820152a3005b60405162461bcd60e51b8152600481018690526012602482015271105b1c9958591e481d1a1a5cc81b195d995b60721b6044820152606490fd5b60405162461bcd60e51b815260048101859052601f60248201527f566572696669636174696f6e20686173206265656e20726574726163746564006044820152606490fd5b60405162461bcd60e51b815260048101859052601960248201527f4e6f20766572696669636174696f6e20746f206d6f64696679000000000000006044820152606490fd5b9093508281813d8311611d99575b611d898183614bdf565b8101031261081557519284611b86565b503d611d7f565b506003821115611b40565b34610815576020366003190112610815576004356001600160401b0381116108155760ff611df66020611de381943690600401614c00565b8160405193828580945193849201614c87565b8101600881520301902054166040519015158152f35b34610815576115b2611e4e6115bf611e2c611e2636614c56565b9061583e565b969598929193946040989198519a8b9a15158b528060208c01528a0190614cca565b93611e5881614cef565b60408901526060880190614f27565b34610815576020611e7a61145336614c56565b8101600a81520301902090815481101561081557611e9791614fe6565b508054611ea660018301614d61565b9160ff6002820154169060ff600460038301549201541690611eda604051958695865260a0602087015260a0860190614cca565b92611ee481614cef565b60408501526060840152151560808301520390f35b3461081557611f0736614fa3565b6000546040516345ecd02f60e01b81523360048201526001600160a01b0390911692602092918381602481885afa801561082257611f4c916000916122bb5750615437565b604051630286b6ab60e31b815293838580611f6b33866004840161547a565b0381845afa90811561082257611f8c859260249760009161229e57506154a2565b611f9883511515615693565b611fa4845115156156df565b60405162b0c80960e01b815233600482015295869182905afa9384156108225760009461226f575b50611fd88415156150e2565b60405190805191848181840194611ff0818388614c87565b8101600381520301902085600052845260ff6040600020541661221a576040518481835161201f818388614c87565b81016002815203019020541561215c575b60405184818351612042818388614c87565b8101600281520301902090815490600160401b821015612146577f1cdc47600aa970e2d8c3bfa9885daefc5e052ea8a6a10471ab3dbbc77ad2138d936120948361213c95600161213696018155614cf9565b81549060031b908a821b91600019901b1916179055604051878184516120bb818387614c87565b810160038152030190208860005287526120f38760406000209260ff1993600185825416179055604051809381928751928391614c87565b8101600581520301902088600052875260016040600020918254161790556004865261212381604060002061576b565b61212e60095461538e565b6009556151a9565b926151a9565b92604051428152a4005b634e487b7160e01b600052604160045260246000fd5b60405160ff845191868181880194612175818388614c87565b8101600881520301902054166121e157846121c7916121a08460405184818a51610f33818389614c87565b6121b68660405184818851610f5281838d614c87565b604051809381928851928391614c87565b81016008815203019020600160ff19825416179055612030565b60405162461bcd60e51b815260048101869052601160248201527012185cda08185b1c9958591e481d5cd959607a1b6044820152606490fd5b60405162461bcd60e51b815260048101859052602760248201527f5265636f726420616c726561647920616e63686f72656420746f2074686973206044820152661cdd589a9958dd60ca1b6064820152608490fd5b9093508281813d8311612297575b6122878183614bdf565b8101031261081557519284611fcc565b503d61227d565b6122b59150843d8611610870576108628183614bdf565b88610471565b6122d29150853d8711610870576108628183614bdf565b8661042f565b3461081557602080600319360112610815576004356001600160401b03811161081557612309903690600401614c00565b9060009160008061232a846000948160405193828580945193849201614c87565b8101600a81520301902080549061234082615328565b9561234e6040519788614bdf565b82875260009182528082208188015b84841061248757505050505083519360005b815181101561245d576080612384828461537a565b510151612394575b60010161236f565b929561239f9061538e565b95600160406123ae868561537a565b5101516123ba81614cef565b6123c381614cef565b036123dc576123d360019161538e565b935b905061238c565b9291600260406123ec858561537a565b5101516123f881614cef565b61240181614cef565b036124175761241160019161538e565b926123d5565b9160036040612426838561537a565b51015161243281614cef565b61243b81614cef565b14612449575b6001906123d5565b9361245560019161538e565b949050612441565b5050604080519485526020850195909552938301526060820192909252608081019190915260a090f35b600583600192612496856151c9565b81520192019301929061235d565b34610815576020366003190112610815576004356001600160a01b038181169182900361081557816001549182166124dd8133146154ee565b6124e8821515615800565b7f38df5fa0f7fef0d515ca1f5388cb5790ac5885d5fca8d05d9f943e563c33a4b36020604051428152a36001600160a01b03191617600155005b3461081557602080600319360112610815576004356001600160401b03811161081557612553903690600401614c00565b600060405182519084818186019361256c818387614c87565b8101600281520301902090604051808387829554938481520190600052876000209260005b8982821061261c575050506125a892500383614bdf565b81519360005b835181101561260d57604051878184516125c9818389614c87565b810160058152030190206125dd828661537a565b51600052875260ff604060002054166125f9575b6001016125ae565b9361260560019161538e565b9490506125f1565b60408686898351928352820152f35b8554845260019586019588955093019201612591565b346108155761267861267261264636614f34565b908060005260136020526126606040600020548310615651565b60005260136020526040600020615037565b50615798565b8051602082015191604081015160608201519160058310156126b15761115e9260a0608083015192015115159260405196879687614f57565b634e487b7160e01b600052602160045260246000fd5b3461081557602080600319360112610815576004356001600160401b0381116108155781611de36126fc923690600401614c00565b8101600d81520301902080549161271283615328565b926127206040519485614bdf565b8084528184018093600052826000206000915b8383106127ff5750505050604051928184019082855251809152604084019160408260051b86010193926000965b83881061276e5786860387f35b90919293948380600192603f198a8203018652885190815181526127d86127a084840151888685015288840190614cca565b60408401516127ae81614cef565b60408401526127c560608086015190850190614f27565b6080808501519084830390850152614cca565b9160a0808201519083015260c0809101511515910152970193019701969093929193612761565b600685600192612811859a989a6153a9565b815201920192019190959395612733565b3461081557602080600319360112610815576004356001600160401b03811161081557612853903690600401614c00565b9061286e816000938160405193828580945193849201614c87565b8101600d81520301902091825461288481615328565b936128926040519586614bdf565b8185526000908152838120848087015b8484106128f957878287825160005b84518110156128ea5760c06128c6828761537a565b5101516128d6575b6001016128b1565b916128e260019161538e565b9290506128ce565b50906040928351928352820152f35b600191600691612908856153a9565b81520192019201919085906128a2565b3461081557602036600319011261081557600435600052601460205260206040600020541515604051908152f35b3461081557602061295961145336614c56565b8101600c815203019020906000526020526020604060002054604051908152f35b346108155761298836614ee9565b60005460405162b0c80960e01b8152336004820152929360209290918390859060249082906001600160a01b03165afa93841561082257600094612bbc575b506129d38415156150e2565b6040518251908481818601936129ea818387614c87565b81016011815203019020866000528452604060002085600052845260ff6040600020541615612b7f57612a7a9060405185818651612a29818387614c87565b810160128152030190208760005285526040600020866000528552612a608560406000205492604051809381928951928391614c87565b810160108152030190208760005285526040600020614e69565b509160ff60038401541615612b3a57600183019260ff8454169280151593151594848614612b00579260609492612ae2612aed937f83316b3299ea5a7386901a45e5d604103b0c75a2d3ff829a25e4a6d645c6b7f398969060ff801983541691151516179055565b6002429101556151a9565b94604051928352820152426040820152a4005b60405162461bcd60e51b8152600481018890526012602482015271416c726561647920746869732076616c756560701b6044820152606490fd5b60405162461bcd60e51b815260048101859052601b60248201527f5265616374696f6e20686173206265656e2072657472616374656400000000006044820152606490fd5b60405162461bcd60e51b81526004810185905260156024820152744e6f207265616374696f6e20746f206d6f6469667960581b6044820152606490fd5b9093508281813d8311612be4575b612bd48183614bdf565b81010312610815575192856129c7565b503d612bca565b3461081557612bf936614ee9565b6000546040516345ecd02f60e01b81523360048201529293602493602093926001600160a01b03169084818781855afa801561082257612c40916000916130725750615437565b60405190825191858181860194612c58818388614c87565b8101600e81520301902087600052855260ff604060002054161561302e5790612cf79160405186818651612c8d818388614c87565b8101600f8152030190208860005286526040600020549086612cdb6001612cd485612cc585898c604051938492839251928391614c87565b8101600d815203019020615037565b5001614d61565b60405180968192630286b6ab60e31b835233906004840161547a565b0381845afa90811561082257612d1788928a9660009161301157506154a2565b60405162b0c80960e01b815233600482015298899182905afa96871561082257600097612fe2575b50612d4b8715156150e2565b878714612fa05760405186818651612d64818388614c87565b81016011815203019020886000528652604060002087600052865260ff60406000205416612f6a5760ff6005612da9612db2936040518a818a51612cc581838c614c87565b50015416615126565b60405185818551612dc4818387614c87565b810160108152030190208760005285526040600020549160405186818651612ded818388614c87565b810160108152030190208860005286526040600020604051612e0e81614b8e565b888152878101961515968781526040820191428352606081019360018552805490600160401b821015612f555790612e4b91600182018155614e69565b959095612f41575094612ec56040989560037fa63d8144c55fb5ca0cbcbeeea8e1b365cc113f4ab5aab289db2285d783e6b7669b9996612f0f96612ea98f97612f339c518655511515600186019060ff801983541691151516179055565b51600284015551151591019060ff801983541691151516179055565b875182818751612ed6818387614c87565b810160118152030190208c6000528252876000208b600052825287600020600160ff198254161790558751809381928751928391614c87565b810160128152030190208960005287528460002088600052875284600020556151a9565b9382519182524290820152a4005b634e487b7160e01b60005260006004526000fd5b86634e487b7160e01b60005260416004526000fd5b60405162461bcd60e51b815260048101879052600f818501526e105b1c9958591e481c995858dd1959608a1b6044820152606490fd5b606483876040519162461bcd60e51b83528160048401528201527f43616e6e6f7420726561637420746f20796f7572206f776e20646973707574656044820152fd5b9096508581813d831161300a575b612ffa8183614bdf565b8101031261081557519588612d3f565b503d612ff0565b6130289150843d8611610870576108628183614bdf565b8c610471565b60405162461bcd60e51b8152600481018690526019818801527f4e6f20646973707574652066726f6d20746869732075736572000000000000006044820152606490fd5b6130899150863d8811610870576108628183614bdf565b8861042f565b34610815576060366003190112610815576001600160401b03600435818111610815576130c0903690600401614c00565b6024918235908111610815576130da903690600401614c00565b906130e3614cba565b6000546040516345ecd02f60e01b81523360048201526020946001600160a01b03909216929085818881875afa8015610822576131279160009161344f5750615437565b604051630286b6ab60e31b815285818061314533896004840161547a565b0381875afa801561082257879261316760ff92899460009161343257506154a2565b61317387511515615693565b61317f855115156156df565b1693600185101580613427575b6131959061572b565b60405162b0c80960e01b815233600482015297889182905afa958615610822576000966133f8575b506131c98615156150e2565b6040518251908681818601936131e0818387614c87565b8101600b81520301902087600052865260ff604060002054166133b4576040518681855161320f818387614c87565b8101600a81520301902054916040518781865161322d818388614c87565b8101600a81520301902061324086614cef565b60405161324c81614b73565b898152888101888152604082019061326389614cef565b8882526060830192428452608081019460018652805490600160401b82101561339f579061329691600182018155614fe6565b969096612f4157509561330b610f8b96600460409b978f95976132ef7f5ddcec906a8edfb96c9cf15f08c0fe50115a5547ef76ab3a944ed41acf127d019f9d999861060c61334b9a6133889f5188555160018801615527565b51600384015551151591019060ff801983541691151516179055565b88518281875161331c818387614c87565b8101600b8152030190208d600052825288600020600160ff198254161790558851809381928751928391614c87565b8101600c8152030190208a6000528952856000205560158852613371818660002061576b565b61337c60175461538e565b60175561073184614cef565b9482519161339581614cef565b82524290820152a4005b87634e487b7160e01b60005260416004526000fd5b60405162461bcd60e51b815260048101879052601a818401527f416c7265616479207665726966696564207468697320686173680000000000006044820152606490fd5b9095508481813d8311613420575b6134108183614bdf565b81010312610815575194866131bd565b503d613406565b50600385111561318c565b6134499150853d8711610870576108628183614bdf565b8b610471565b6130899150873d8911610870576108628183614bdf565b346108155760603660031901126108155760243560043560443560058110156108155761349e60018060a01b036001541633146154ee565b816000526020601381526134b86040600020548510615651565b81156135a85782600052601381526134d4846040600020615037565b50600581019060ff8254161561356b576134f18460038301615639565b60044291015560ff19815416905582600052601481526040600020918254918215613555577fd27cfed75349d7c1712793c75b771f2a7dd4689406c4d8fdc93b4194b422eb359360409360001901905561354d83518093614f4a565b4290820152a3005b634e487b7160e01b600052601160045260246000fd5b60405162461bcd60e51b8152600481018490526015602482015274119b1859c8185b1c9958591e481c995cdbdb1d9959605a1b6044820152606490fd5b6064906040519062461bcd60e51b82526004820152601c60248201527f4d7573742070726f76696465207265736f6c7574696f6e2074797065000000006044820152fd5b34610815576135fa36614c56565b60005460405162b0c80960e01b815233600482015291926020918290849060249082906001600160a01b03165afa9283156108225760009361377e575b506136438315156150e2565b60405181519083818185019361365a818387614c87565b81016011815203019020856000528352604060002084600052835260ff6040600020541615613740577fbe97907321aa6637529c6e0bd464af27ddb95fadc266661a0a9c0b693acaa2ba916003610a4061373693604051878186516136c0818387614c87565b81016012815203019020896000528752604060002088600052875261371c8760406000205492604051828189516136f8818387614c87565b810160108152030190208c6000528252610a2f60ff87610a26876040600020614e69565b810160108152030190208960005287526040600020614e69565b91604051428152a4005b60405162461bcd60e51b8152600481018490526016602482015275139bc81c995858dd1a5bdb881d1bc81c995d1c9858dd60521b6044820152606490fd5b9092508181813d83116137a6575b6137968183614bdf565b8101031261081557519184613637565b503d61378c565b3461081557602080600319360112610815576004356001600160401b0381116108155781611de36137e2923690600401614c00565b8101600281520301902090604051908181845491828152019360005281600020916000905b82821061382a5761115e8561381e81890382614bdf565b60405191829182614e2d565b835486529485019460019384019390910190613807565b346108155760603660031901126108155760246001600160401b03600435823582811161081557613876903690600401614c00565b916044359081116108155761388f903690600401614c00565b916138a560018060a01b036001541633146154ee565b8115613a3b578251156139f757816000526013602052604060002093845494604051916138d183614b58565b83835260208301908682526040840142815260608501906000825260808601936000855260a087019560018752600160401b8c1015610790578b61391a91600182018155615037565b9790976139e2579061393061393a925189615527565b5160018801615527565b516002860155519060058210156107675750936139a78460056139d395610f8b9561398b7fdc620035e382d2354e94af4ee86406f06a6bc23c13499543d7ad5ee77af524049a600360409b01615639565b51600484015551151591019060ff801983541691151516179055565b856000526014602052836000206139be815461538e565b90556139cb60195461538e565b6019556151a9565b948151908152426020820152a4005b84634e487b7160e01b60005260006004526000fd5b60405162461bcd60e51b8152602060048201526019818601527f4e6f746520686173682063616e6e6f7420626520656d707479000000000000006044820152606490fd5b60405162461bcd60e51b815260206004820152601f818601527f5375626a65637420494420686173682063616e6e6f7420626520656d707479006044820152606490fd5b34610815576020366003190112610815576004356001600160401b03811161081557611795613aba6020611de361115e943690600401614c00565b81016006815203019020614d61565b3461081557602080600319360112610815576004356001600160401b03811161081557613afa903690600401614c00565b6000546040516345ecd02f60e01b81523360048201526001600160a01b039091169291908281602481875afa801561082257613b3d91600091611a125750615437565b604051630286b6ab60e31b815292828480613b5c33866004840161547a565b0381845afa90811561082257613b7d84926024966000916119f557506154a2565b60405162b0c80960e01b815233600482015294859182905afa92831561082257600093613cf2575b50613bb18315156150e2565b604051815190838181850193613bc8818387614c87565b8101600381520301902084600052835260ff6040600020541615613cad5760405183818451613bf8818387614c87565b8101600581520301902084600052835260ff6040600020541615613c73577f6394e07ba017d68c6017a8d8fd8ade9c44dd70fd18b290e2d74db2b691ac99fb91613c5184610a4f93604051809381928651928391614c87565b81016005815203019020856000528452604060002060ff1981541690556151a9565b60405162461bcd60e51b8152600481018490526012602482015271105b1c9958591e481d5b985b98da1bdc995960721b6044820152606490fd5b60405162461bcd60e51b815260048101849052601c60248201527f4e6f742061207375626a656374206f662074686973207265636f7264000000006044820152606490fd5b9092508181813d8311613d1a575b613d0a8183614bdf565b8101031261081557519183613ba5565b503d613d00565b3461081557602080600319360112610815576004356001600160401b03811161081557613d52903690600401614c00565b90613d6d816000938160405193828580945193849201614c87565b8101600a815203019020918254613d8381615328565b93613d916040519586614bdf565b8185526000908152838120848087015b848410613de957878287825160005b84518110156128ea576080613dc5828761537a565b510151613dd5575b600101613db0565b91613de160019161538e565b929050613dcd565b600191600591613df8856151c9565b8152019201920191908590613da1565b3461081557602080600319360112610815576004356001600160401b0381116108155781611de3613e3d923690600401614c00565b810160078152030190208054613e5281615328565b91613e606040519384614bdf565b8183526000908152838120938084015b838310613e85576040518061115e8782614e85565b6001828192613e9389614d61565b815201960192019194613e70565b3461081557602080600319360112610815576004356001600160401b0381116108155781611de3613ed6923690600401614c00565b8101600a81520301902090815491613eed83615328565b92613efb6040519485614bdf565b8084528284018092600052836000206000915b838310613fb25750505050604051918083019381845251809452604083019360408160051b85010192916000955b828710613f495785850386f35b909192938280600192603f19898203018552875190613f7960a08351835284840151908086850152830190614cca565b916040810151613f8881614cef565b60408301526060808201519083015260808091015115159101529601920196019592919092613f3c565b600586600192613fc4859a999a6151c9565b815201920192019190959495613f0e565b34610815576060366003190112610815576004356001600160401b03811161081557614005903690600401614c00565b6140216020604435928160405193828580945193849201614c87565b81016010815203019020602435600052602052604060002080548210156108155760809161404e91614e69565b5080549060ff6001820154169060ff60036002830154920154169160405193845215156020840152604083015215156060820152f35b3461081557602080600319360112610815576004356001600160401b038111610815576140b5903690600401614c00565b906000916000806140d6846000948160405193828580945193849201614c87565b8101600d8152030190208054906140ec82615328565b956140fa6040519788614bdf565b82875260009182528082208188015b84841061420957505050505083519360005b815181101561245d5760c0614130828461537a565b510151614140575b60010161411b565b929561414b9061538e565b956001604061415a868561537a565b51015161416681614cef565b61416f81614cef565b036141885761417f60019161538e565b935b9050614138565b929160026040614198858561537a565b5101516141a481614cef565b6141ad81614cef565b036141c3576141bd60019161538e565b92614181565b91600360406141d2838561537a565b5101516141de81614cef565b6141e781614cef565b146141f5575b600190614181565b9361420160019161538e565b9490506141ed565b600683600192614218856153a9565b815201920193019290614109565b3461081557602080600319360112610815576004356001600160401b03811161081557614257903690600401614c00565b9060405190825191818181860194614270818388614c87565b81016002815203019020604051808284829454938481520190600052846000209260005b868282106143c5575050506142ab92500382614bdf565b60009160005b825181101561431057604051828188516142cc81838b614c87565b810160058152030190206142e0828561537a565b51600052825260ff604060002054166142fc575b6001016142b1565b9261430860019161538e565b9390506142f4565b509392919361431e85615328565b9461432c6040519687614bdf565b80865261433b601f1991615328565b01368287013760009260005b83518110156143b75760019060405184818951614365818389614c87565b81016005815203019020614379828761537a565b51600052845260ff60406000205416614393575b01614347565b61439d818661537a565b516143b16143aa8861538e565b978a61537a565b5261438d565b6040518061115e8982614e2d565b8554845260019586019587955093019201614294565b346108155760206143ee61145336614c56565b8101600f815203019020906000526020526020604060002054604051908152f35b34610815576020366003190112610815576004356001600160401b038111610815576144456020611de381933690600401614c00565b8101600781520301902054604051908152f35b3461081557602080600319360112610815576004356001600160401b03811161081557614489903690600401614c00565b6040519060ff8151928481818501956144a3818389614c87565b810160088152030190205416156144e357826144ce92613aba92604051938492839251928391614c87565b9061115e604051928284938452830190614cca565b60405162461bcd60e51b815260048101849052601360248201527212185cda08191bd95cc81b9bdd08195e1a5cdd606a1b6044820152606490fd5b3461081557602061453161145336614c56565b810160078152030190209081548110156108155761178f6117959161115e93614cf9565b3461081557600036600319011261081557604060175460185482519182526020820152f35b346108155761458836614c56565b6000809160405184818096516145a4816020998a809601614c87565b8101601081520301902090600052835260406000209182546145c581615328565b936145d36040519586614bdf565b8185526000908152858120868087015b84841061466b57505050505082519260005b815181101561465557606061460a828461537a565b51015161461a575b6001016145f5565b9285614626858461537a565b510151156146425761463960019161538e565b935b9050614612565b929161464f60019161538e565b9261463b565b5050906060936040519384528301526040820152f35b60019160049161467a8561533f565b81520192019201919087906145e3565b346108155760208060031936011261081557600435906001600160401b038211610815576146be6024923690600401614c00565b60005460405162b0c80960e01b815233600482015293839185919082906001600160a01b03165afa928315610822576000936147e8575b506147018315156150e2565b604051815190838181850193614718818387614c87565b8101600e81520301902084600052835260ff60406000205416156147ab577f7180e7a407de506e94dc4620f97c3af6aaf73726be177cf5a2118a83ea08e09a916005610a40610a4f9360405187818651614773818387614c87565b8101600f815203019020886000528752612cc58760406000205492610a2f60ff87610a26878b87604051809251612cc581838c614c87565b60405162461bcd60e51b8152600481018490526015602482015274139bc8191a5cdc1d5d19481d1bc81c995d1c9858dd605a1b6044820152606490fd5b9092508181813d8311614810575b6148008183614bdf565b81010312610815575191836146f5565b503d6147f6565b3461081557602061482a61145336614c56565b8101600581520301902090600052602052602060ff604060002054166040519015158152f35b346108155761486761486136614c56565b9061521c565b90611eda6040959495519586951515865260a0602087015260a0860190614cca565b34610815576000366003190112610815576000546040516001600160a01b039091168152602090f35b346108155760206148c561145336614c56565b8101600b81520301902090600052602052602060ff604060002054166040519015158152f35b34610815576060366003190112610815576004356001600160401b0381116108155761491b903690600401614c00565b614923614caa565b61492b614cba565b9060ff8080921692600184101580614b4d575b61494790615053565b1690600182101580614b42575b61495d90615096565b60005460405162b0c80960e01b815233600482015294602094918590879060249082906001600160a01b03165afa95861561082257600096614b13575b506149a68615156150e2565b6040518151908681818501936149bd818387614c87565b8101600e815203019020876000528652836040600020541615614ad757614a1e600291604051888186516149f2818387614c87565b8101600f815203019020896000528852612cc58860406000205492604051809381928951928391614c87565b50614a2e85600583015416615126565b0190815493614a4981861694614a4381614cef565b84615172565b60068610156126b157614ac060a09584614a877f5395fbd4f789f9b64d364b4f7ed8200e8d2a75a219f64da159998cb161fdab1899614ace9761518a565b5493614a95848616916151a9565b9960405197614aa381614cef565b8852614aae82614cef565b87015282604087019160081c16614f27565b606084019160081c16614f27565b426080820152a3005b60405162461bcd60e51b81526004810187905260146024820152734e6f206469737075746520746f206d6f6469667960601b6044820152606490fd5b9095508481813d8311614b3b575b614b2b8183614bdf565b810103126108155751948661499a565b503d614b21565b506005821115614954565b50600384111561493e565b60c081019081106001600160401b0382111761214657604052565b60a081019081106001600160401b0382111761214657604052565b608081019081106001600160401b0382111761214657604052565b60e081019081106001600160401b0382111761214657604052565b602081019081106001600160401b0382111761214657604052565b90601f801991011681019081106001600160401b0382111761214657604052565b81601f82011215610815578035906001600160401b0382116121465760405192614c34601f8401601f191660200185614bdf565b8284526020838301011161081557816000926020809301838601378301015290565b604060031982011261081557600435906001600160401b03821161081557614c8091600401614c00565b9060243590565b60005b838110614c9a5750506000910152565b8181015183820152602001614c8a565b6024359060ff8216820361081557565b6044359060ff8216820361081557565b90602091614ce381518092818552858086019101614c87565b601f01601f1916010190565b600411156126b157565b8054821015614d115760005260206000200190600090565b634e487b7160e01b600052603260045260246000fd5b90600182811c92168015614d57575b6020831014614d4157565b634e487b7160e01b600052602260045260246000fd5b91607f1691614d36565b90604051918260008254614d7481614d27565b90818452602094600191600181169081600014614de45750600114614da5575b505050614da392500383614bdf565b565b600090815285812095935091905b818310614dcc575050614da39350820101388080614d94565b85548884018501529485019487945091830191614db3565b92505050614da394925060ff191682840152151560051b820101388080614d94565b90614e1757614e1490614d61565b90565b634e487b7160e01b600052600060045260246000fd5b602090602060408183019282815285518094520193019160005b828110614e55575050505090565b835185529381019392810192600101614e47565b8054821015614d115760005260206000209060021b0190600090565b6020808201906020835283518092526040830192602060408460051b8301019501936000915b848310614ebb5750505050505090565b9091929394958480614ed9600193603f198682030187528a51614cca565b9801930193019194939290614eab565b606060031982011261081557600435906001600160401b03821161081557614f1391600401614c00565b906024359060443580151581036108155790565b9060068210156126b15752565b6040906003190112610815576004359060243590565b9060058210156126b15752565b949193614f8760a095614f79614f97949a99969a60c08a5260c08a0190614cca565b9088820360208a0152614cca565b9760408701526060860190614f4a565b60808401521515910152565b906040600319830112610815576001600160401b036004358181116108155783614fcf91600401614c00565b9260243591821161081557614e1491600401614c00565b8054821015614d11576000526005602060002091020190600090565b606060031982011261081557600435906001600160401b0382116108155761502c91600401614c00565b906024359060443590565b8054821015614d11576000526006602060002091020190600090565b1561505a57565b60405162461bcd60e51b81526020600482015260146024820152735365766572697479206d75737420626520312d3360601b6044820152606490fd5b1561509d57565b60405162461bcd60e51b815260206004820152601760248201527f43756c706162696c697479206d75737420626520312d350000000000000000006044820152606490fd5b156150e957565b60405162461bcd60e51b815260206004820152601560248201527415d85b1b195d081b9bdd081c9959da5cdd195c9959605a1b6044820152606490fd5b1561512d57565b60405162461bcd60e51b815260206004820152601a60248201527f4469737075746520686173206265656e207265747261637465640000000000006044820152606490fd5b9061517c81614cef565b60ff80198354169116179055565b9060068110156126b15761ff0082549160081b169061ff001916179055565b6151c190602060405192828480945193849201614c87565b810103902090565b906040516151d681614b73565b608060ff60048395805485526151ee60018201614d61565b60208601528260028201541661520381614cef565b6040860152600381015460608601520154161515910152565b91906040928351918482519160209485818187019561523c818389614c87565b8101600b81520301902090600091818352865260ff8383205416156152cb5761529d9383610a179388936152a39896518581895161527b81838a614c87565b8101600c81520301902090825284522054938951938492839251928391614c87565b506151c9565b9081015192810151916152b583614cef565b6080606083015192015115159060019493929190565b509493505050508192516152de81614bc4565b8281529180918190565b156152ef57565b60405162461bcd60e51b8152602060048201526011602482015270105b1c9958591e481c995d1c9858dd1959607a1b6044820152606490fd5b6001600160401b0381116121465760051b60200190565b9060405161534c81614b8e565b606060ff60038395805485528260018201541615156020860152600281015460408601520154161515910152565b8051821015614d115760209160051b010190565b60001981146135555760010190565b60068210156126b15752565b906040516153b681614ba9565b60c060ff60058395805485526153ce60018201614d61565b60208601526153fa8360028301548181166153e881614cef565b604089015260081c166060870161539d565b61540660038201614d61565b6080860152600481015460a08601520154161515910152565b90816020910312610815575180151581036108155790565b1561543e57565b60405162461bcd60e51b81526020600482015260146024820152732737ba1030b71030b1ba34bb329036b2b6b132b960611b6044820152606490fd5b90615492602091949394604084526040840190614cca565b6001600160a01b03909416910152565b156154a957565b60405162461bcd60e51b815260206004820152601860248201527f4e6f2061636365737320746f2074686973207265636f726400000000000000006044820152606490fd5b156154f557565b60405162461bcd60e51b815260206004820152600a60248201526927b7363c9030b236b4b760b11b6044820152606490fd5b91909182516001600160401b038111612146576155448254614d27565b601f81116155ef575b50602080601f831160011461558a57508192939460009261557f575b50508160011b916000199060031b1c1916179055565b015190503880615569565b90601f19831695846000526020600020926000905b8882106155d7575050836001959697106155be575b505050811b019055565b015160001960f88460031b161c191690553880806155b4565b8060018596829496860151815501950193019061559f565b6000836000526020600020601f840160051c8101926020851061562f575b601f0160051c01915b82811061562457505061554d565b818155600101615616565b909250829061560d565b9060058110156126b15760ff80198354169116179055565b1561565857565b60405162461bcd60e51b8152602060048201526013602482015272119b1859c8191bd95cc81b9bdd08195e1a5cdd606a1b6044820152606490fd5b1561569a57565b60405162461bcd60e51b815260206004820152601960248201527f5265636f72642049442063616e6e6f7420626520656d707479000000000000006044820152606490fd5b156156e657565b60405162461bcd60e51b815260206004820152601b60248201527f5265636f726420686173682063616e6e6f7420626520656d70747900000000006044820152606490fd5b1561573257565b60405162461bcd60e51b81526020600482015260116024820152704c6576656c206d75737420626520312d3360781b6044820152606490fd5b8054600160401b8110156121465761578891600182018155614cf9565b919091614e1757614da391615527565b906040516157a581614b58565b80926157b081614d61565b82526157be60018201614d61565b60208301526002810154604083015260ff6003820154169060058210156126b157600560ff9160a0936060860152600481015460808601520154161515910152565b1561580757565b60405162461bcd60e51b815260206004820152600f60248201526e496e76616c6964206164647265737360881b6044820152606490fd5b90604092835192805160209485818185019361585b818387614c87565b8101600e81520301902093600094818652865260ff8786205416156159165791612cc5866158bc936158c2958a5183818751615898818388614c87565b8101600f815203019020908952825289882054938a51938492839251928391614c87565b506153a9565b9283015193830151926158d484614cef565b6060810151926006841015615902575060808101519160c060a0830151920151151590600196959493929190565b634e487b7160e01b81526021600452602490fd5b50505091508092805161592881614bc4565b828152928280925161593981614bc4565b818152918190565b929091926040938451938251602095868181870193615961818387614c87565b81016011815203019020926000938385528752878420818552875260ff888520541615615a0a576159f2936159ec936159d789606098958c95865183818a516159ab818388614c87565b810160128152030190208587528352868620908652825285852054968651938492839251928391614c87565b81016010815203019020908252885220614e69565b5061533f565b92830151151593830151920151151590600193929190565b5050509350509050818091819056fea26469706673582212201842cf423b2c03e26b27b7c7a88d82509b8f305aeac3520e8d2e7a0d45bf138364736f6c63430008170033","opcodes":"PUSH1 0x80 CALLVALUE PUSH3 0xD8 JUMPI PUSH1 0x1F PUSH3 0x5B43 CODESIZE DUP2 SWAP1 SUB SWAP2 DUP3 ADD PUSH1 0x1F NOT AND DUP4 ADD SWAP2 PUSH1 0x1 PUSH1 0x1 PUSH1 0x40 SHL SUB DUP4 GT DUP5 DUP5 LT OR PUSH3 0xDD JUMPI DUP1 DUP5 SWAP3 PUSH1 0x20 SWAP5 PUSH1 0x40 MSTORE DUP4 CODECOPY DUP2 ADD SUB SLT PUSH3 0xD8 JUMPI MLOAD PUSH1 0x1 PUSH1 0x1 PUSH1 0xA0 SHL SUB DUP2 AND SWAP1 DUP2 SWAP1 SUB PUSH3 0xD8 JUMPI DUP1 ISZERO PUSH3 0x89 JUMPI PUSH1 0x1 DUP1 PUSH1 0xA0 SHL SUB NOT SWAP1 DUP2 PUSH1 0x0 SLOAD AND OR PUSH1 0x0 SSTORE CALLER SWAP1 PUSH1 0x1 SLOAD AND OR PUSH1 0x1 SSTORE PUSH1 0x40 MLOAD PUSH2 0x5A4F SWAP1 DUP2 PUSH3 0xF4 DUP3 CODECOPY RETURN JUMPDEST PUSH1 0x40 MLOAD PUSH3 0x461BCD PUSH1 0xE5 SHL DUP2 MSTORE PUSH1 0x20 PUSH1 0x4 DUP3 ADD MSTORE PUSH1 0x21 PUSH1 0x24 DUP3 ADD MSTORE PUSH32 0x496E76616C6964204D656D626572526F6C654D616E6167657220616464726573 PUSH1 0x44 DUP3 ADD MSTORE PUSH1 0x73 PUSH1 0xF8 SHL PUSH1 0x64 DUP3 ADD MSTORE PUSH1 0x84 SWAP1 REVERT JUMPDEST PUSH1 0x0 DUP1 REVERT JUMPDEST PUSH4 0x4E487B71 PUSH1 0xE0 SHL PUSH1 0x0 MSTORE PUSH1 0x41 PUSH1 0x4 MSTORE PUSH1 0x24 PUSH1 0x0 REVERT INVALID PUSH1 0x80 PUSH1 0x40 MSTORE PUSH1 0x4 CALLDATASIZE LT ISZERO PUSH2 0x12 JUMPI PUSH1 0x0 DUP1 REVERT JUMPDEST PUSH1 0xE0 PUSH1 0x0 CALLDATALOAD DUP2 SHR SWAP1 DUP2 PUSH3 0x3297E4 EQ PUSH2 0x1440 JUMPI DUP2 PUSH4 0x1B4147D EQ PUSH2 0x1651 JUMPI DUP2 PUSH4 0x5F59439 EQ PUSH2 0x1DAB JUMPI DUP2 PUSH4 0xFBAB50A EQ PUSH2 0x48B2 JUMPI DUP2 PUSH4 0x10A0E88A EQ PUSH2 0x48EB JUMPI DUP2 PUSH4 0x13BF57F4 EQ PUSH2 0x48B2 JUMPI DUP2 PUSH4 0x15370703 EQ PUSH2 0x4889 JUMPI DUP2 PUSH4 0x19BFE5F2 EQ PUSH2 0x4850 JUMPI DUP2 PUSH4 0x1A6B3D2A EQ PUSH2 0x4817 JUMPI DUP2 PUSH4 0x1AACDA88 EQ PUSH2 0x468A JUMPI DUP2 PUSH4 0x1B7CABB7 EQ PUSH2 0x457A JUMPI DUP2 PUSH4 0x1CF8CBE8 EQ PUSH2 0x1422 JUMPI DUP2 PUSH4 0x1E59607A EQ PUSH2 0x4555 JUMPI DUP2 PUSH4 0x1EC50C0E EQ PUSH2 0x451E JUMPI DUP2 PUSH4 0x21D9CAAA EQ PUSH2 0x4458 JUMPI DUP2 PUSH4 0x223C3BB9 EQ PUSH2 0x440F JUMPI DUP2 PUSH4 0x249DDA2E EQ PUSH2 0x11DC JUMPI DUP2 PUSH4 0x25DB354D EQ PUSH2 0x43DB JUMPI DUP2 PUSH4 0x2A4E0476 EQ PUSH2 0x4226 JUMPI DUP2 PUSH4 0x2CB2C1E9 EQ PUSH2 0x4084 JUMPI DUP2 PUSH4 0x2E6DF698 EQ PUSH2 0x3FD5 JUMPI DUP2 PUSH4 0x2FA8DB04 EQ PUSH2 0x3EA1 JUMPI DUP2 PUSH4 0x315CA5BA EQ PUSH2 0x3E08 JUMPI DUP2 PUSH4 0x339A0AEC EQ PUSH2 0x3D21 JUMPI DUP2 PUSH4 0x35C4C203 EQ PUSH2 0x3AC9 JUMPI DUP2 PUSH4 0x365348E9 EQ PUSH2 0x3A7F JUMPI DUP2 PUSH4 0x3F132DC1 EQ PUSH2 0x3841 JUMPI DUP2 PUSH4 0x400F8D06 EQ PUSH2 0x37AD JUMPI DUP2 PUSH4 0x4294E2FF EQ PUSH2 0x35EC JUMPI DUP2 PUSH4 0x4B7C908A EQ PUSH2 0x3466 JUMPI DUP2 PUSH4 0x5203CBED EQ PUSH2 0x308F JUMPI DUP2 PUSH4 0x533ACFFD EQ PUSH2 0x2BEB JUMPI DUP2 PUSH4 0x5A18672E EQ PUSH2 0x297A JUMPI DUP2 PUSH4 0x5D12DA50 EQ PUSH2 0x2946 JUMPI DUP2 PUSH4 0x5D28A342 EQ PUSH2 0x2918 JUMPI DUP2 PUSH4 0x6018200D EQ PUSH2 0x2822 JUMPI DUP2 PUSH4 0x629BE2B6 EQ PUSH2 0x26C7 JUMPI DUP2 PUSH4 0x6EB7457F EQ PUSH2 0x2632 JUMPI DUP2 PUSH4 0x7286B6F9 EQ PUSH2 0x2522 JUMPI DUP2 PUSH4 0x75829DEF EQ PUSH2 0x24A4 JUMPI DUP2 PUSH4 0x82953131 EQ PUSH2 0x22D8 JUMPI DUP2 PUSH4 0x883080AF EQ PUSH2 0x1EF9 JUMPI DUP2 PUSH4 0x8DA1D369 EQ PUSH2 0x1E67 JUMPI DUP2 PUSH4 0x8E3CCBCF EQ PUSH2 0x1E0C JUMPI DUP2 PUSH4 0x9871E510 EQ PUSH2 0x1DAB JUMPI DUP2 PUSH4 0x98909E22 EQ PUSH2 0xD71 JUMPI DUP2 PUSH4 0xA5F2D1D1 EQ PUSH2 0x1AF9 JUMPI DUP2 PUSH4 0xAC90C140 EQ PUSH2 0x1ADB JUMPI DUP2 PUSH4 0xAC924336 EQ PUSH2 0x1241 JUMPI DUP2 PUSH4 0xADCEE102 EQ PUSH2 0x1AA5 JUMPI DUP2 PUSH4 0xB0C7363C EQ PUSH2 0x1A65 JUMPI DUP2 PUSH4 0xB27BB4D5 EQ PUSH2 0x1A2F JUMPI DUP2 PUSH4 0xB48AC4D2 EQ PUSH2 0x17A9 JUMPI DUP2 PUSH4 0xB5E6B7A2 EQ PUSH2 0x1759 JUMPI DUP2 PUSH4 0xC18CF8D2 EQ PUSH2 0x16E8 JUMPI DUP2 PUSH4 0xC282F4AB EQ PUSH2 0x16A8 JUMPI DUP2 PUSH4 0xC5E4CCC4 EQ PUSH2 0x168A JUMPI DUP2 PUSH4 0xC6BD1572 EQ PUSH2 0x1651 JUMPI DUP2 PUSH4 0xC7695BAB EQ PUSH2 0x15D0 JUMPI DUP2 PUSH4 0xCA1E910A EQ PUSH2 0x150F JUMPI POP DUP1 PUSH4 0xD08C800D EQ PUSH2 0x148E JUMPI DUP1 PUSH4 0xD411FF28 EQ PUSH2 0x1440 JUMPI DUP1 PUSH4 0xD46E082F EQ PUSH2 0x1422 JUMPI DUP1 PUSH4 0xD4F7A465 EQ PUSH2 0x125F JUMPI DUP1 PUSH4 0xD5BA54E7 EQ PUSH2 0x1241 JUMPI DUP1 PUSH4 0xD5BE3001 EQ PUSH2 0x1208 JUMPI DUP1 PUSH4 0xDBC7B842 EQ PUSH2 0x11DC JUMPI DUP1 PUSH4 0xDD0BC082 EQ PUSH2 0x117E JUMPI DUP1 PUSH4 0xE08F1AC3 EQ PUSH2 0x10F9 JUMPI DUP1 PUSH4 0xE2AAE6E0 EQ PUSH2 0xDCE JUMPI DUP1 PUSH4 0xE3DE7563 EQ PUSH2 0xD71 JUMPI DUP1 PUSH4 0xF251F8E4 EQ PUSH2 0xC47 JUMPI DUP1 PUSH4 0xF3AC2BEA EQ PUSH2 0xBB6 JUMPI DUP1 PUSH4 0xF5E7F9F4 EQ PUSH2 0xACD JUMPI DUP1 PUSH4 0xF7C0D033 EQ PUSH2 0x8F6 JUMPI DUP1 PUSH4 0xF851A440 EQ PUSH2 0x8CD JUMPI DUP1 PUSH4 0xF9F70C4A EQ PUSH2 0x896 JUMPI PUSH4 0xFD328F58 EQ PUSH2 0x378 JUMPI PUSH1 0x0 DUP1 REVERT JUMPDEST CALLVALUE PUSH2 0x815 JUMPI PUSH1 0xA0 CALLDATASIZE PUSH1 0x3 NOT ADD SLT PUSH2 0x815 JUMPI PUSH1 0x1 PUSH1 0x1 PUSH1 0x40 SHL SUB PUSH1 0x4 CALLDATALOAD DUP2 DUP2 GT PUSH2 0x815 JUMPI PUSH2 0x3A9 SWAP1 CALLDATASIZE SWAP1 PUSH1 0x4 ADD PUSH2 0x4C00 JUMP JUMPDEST SWAP1 PUSH1 0x24 SWAP2 DUP3 CALLDATALOAD DUP3 DUP2 GT PUSH2 0x815 JUMPI PUSH2 0x3C4 SWAP1 CALLDATASIZE SWAP1 PUSH1 0x4 ADD PUSH2 0x4C00 JUMP JUMPDEST PUSH2 0x3CC PUSH2 0x4CBA JUMP JUMPDEST SWAP1 PUSH1 0x64 CALLDATALOAD SWAP4 PUSH1 0xFF DUP6 AND DUP6 SUB PUSH2 0x815 JUMPI PUSH1 0x84 CALLDATALOAD SWAP1 DUP2 GT PUSH2 0x815 JUMPI PUSH2 0x3F3 SWAP1 CALLDATASIZE SWAP1 PUSH1 0x4 ADD PUSH2 0x4C00 JUMP JUMPDEST PUSH1 0x0 SLOAD PUSH1 0x40 MLOAD PUSH4 0x45ECD02F PUSH1 0xE0 SHL DUP2 MSTORE CALLER PUSH1 0x4 DUP3 ADD MSTORE PUSH1 0x1 PUSH1 0x1 PUSH1 0xA0 SHL SUB SWAP1 SWAP2 AND SWAP1 PUSH1 0x20 DUP2 DUP10 DUP2 DUP6 GAS STATICCALL DUP1 ISZERO PUSH2 0x822 JUMPI PUSH2 0x435 SWAP2 PUSH1 0x0 SWAP2 PUSH2 0x877 JUMPI JUMPDEST POP PUSH2 0x5437 JUMP JUMPDEST PUSH1 0x40 MLOAD PUSH4 0x286B6AB PUSH1 0xE3 SHL DUP2 MSTORE SWAP1 PUSH1 0x20 DUP3 DUP1 PUSH2 0x455 CALLER DUP11 PUSH1 0x4 DUP5 ADD PUSH2 0x547A JUMP JUMPDEST SUB DUP2 DUP5 GAS STATICCALL SWAP1 DUP2 ISZERO PUSH2 0x822 JUMPI PUSH2 0x477 PUSH1 0x20 SWAP3 DUP11 SWAP5 PUSH1 0x0 SWAP2 PUSH2 0x84A JUMPI JUMPDEST POP PUSH2 0x54A2 JUMP JUMPDEST PUSH2 0x483 DUP8 MLOAD ISZERO ISZERO PUSH2 0x5693 JUMP JUMPDEST PUSH2 0x48F DUP6 MLOAD ISZERO ISZERO PUSH2 0x56DF JUMP JUMPDEST PUSH1 0x1 PUSH1 0xFF DUP8 AND LT ISZERO DUP1 PUSH2 0x83C JUMPI JUMPDEST PUSH2 0x4A6 SWAP1 PUSH2 0x5053 JUMP JUMPDEST PUSH1 0x1 PUSH1 0xFF DUP10 AND LT ISZERO DUP1 PUSH2 0x82E JUMPI JUMPDEST PUSH2 0x4BD SWAP1 PUSH2 0x5096 JUMP JUMPDEST PUSH1 0x40 MLOAD PUSH3 0xB0C809 PUSH1 0xE0 SHL DUP2 MSTORE CALLER PUSH1 0x4 DUP3 ADD MSTORE SWAP9 DUP10 SWAP2 DUP3 SWAP1 GAS STATICCALL SWAP7 DUP8 ISZERO PUSH2 0x822 JUMPI PUSH1 0x0 SWAP8 PUSH2 0x7E9 JUMPI JUMPDEST POP PUSH2 0x4F1 DUP8 ISZERO ISZERO PUSH2 0x50E2 JUMP JUMPDEST PUSH1 0x40 MLOAD PUSH1 0x20 DUP2 DUP6 MLOAD PUSH2 0x506 DUP2 DUP4 DUP6 DUP11 ADD PUSH2 0x4C87 JUMP JUMPDEST DUP2 ADD PUSH1 0xE DUP2 MSTORE SUB ADD SWAP1 KECCAK256 DUP8 PUSH1 0x0 MSTORE PUSH1 0x20 MSTORE PUSH1 0xFF PUSH1 0x40 PUSH1 0x0 KECCAK256 SLOAD AND PUSH2 0x7A5 JUMPI PUSH1 0x40 MLOAD PUSH1 0x20 DUP2 DUP6 MLOAD PUSH2 0x539 DUP2 DUP4 DUP6 DUP11 ADD PUSH2 0x4C87 JUMP JUMPDEST DUP2 ADD PUSH1 0xD DUP2 MSTORE SUB ADD SWAP1 KECCAK256 SLOAD SWAP2 PUSH1 0x40 MLOAD PUSH1 0x20 DUP2 DUP7 MLOAD PUSH2 0x55A DUP2 DUP4 DUP6 DUP12 ADD PUSH2 0x4C87 JUMP JUMPDEST DUP2 ADD PUSH1 0xD DUP2 MSTORE SUB ADD SWAP1 KECCAK256 SWAP2 PUSH2 0x571 PUSH1 0xFF DUP8 AND PUSH2 0x4CEF JUMP JUMPDEST PUSH1 0x6 PUSH1 0xFF DUP10 AND LT ISZERO PUSH2 0x767 JUMPI PUSH1 0x40 MLOAD SWAP2 PUSH2 0x58A DUP4 PUSH2 0x4BA9 JUMP JUMPDEST DUP10 DUP4 MSTORE PUSH1 0x20 DUP4 ADD SWAP4 DUP9 DUP6 MSTORE PUSH1 0x40 DUP5 ADD SWAP1 PUSH2 0x5A6 PUSH1 0xFF DUP11 AND PUSH2 0x4CEF JUMP JUMPDEST PUSH1 0xFF DUP10 AND DUP3 MSTORE PUSH1 0x60 DUP6 ADD SWAP3 PUSH2 0x5BE PUSH1 0xFF DUP14 AND DUP6 PUSH2 0x539D JUMP JUMPDEST PUSH1 0x80 DUP7 ADD MSTORE TIMESTAMP PUSH1 0xA0 DUP7 ADD MSTORE PUSH1 0x1 PUSH1 0xC0 DUP7 ADD MSTORE DUP1 SLOAD SWAP1 PUSH1 0x1 PUSH1 0x40 SHL DUP3 LT ISZERO PUSH2 0x790 JUMPI SWAP1 PUSH2 0x5EF SWAP2 PUSH1 0x1 DUP3 ADD DUP2 SSTORE PUSH2 0x5037 JUMP JUMPDEST SWAP6 SWAP1 SWAP6 PUSH2 0x77B JUMPI SWAP1 PUSH2 0x60C PUSH2 0x61F SWAP3 DUP7 MLOAD DUP9 SSTORE MLOAD PUSH1 0x1 DUP9 ADD PUSH2 0x5527 JUMP JUMPDEST MLOAD PUSH2 0x616 DUP2 PUSH2 0x4CEF JUMP JUMPDEST PUSH1 0x2 DUP7 ADD PUSH2 0x5172 JUMP JUMPDEST MLOAD SWAP1 PUSH1 0x6 DUP3 LT ISZERO PUSH2 0x767 JUMPI POP PUSH1 0x60 SWAP5 PUSH32 0x1E9FC3A602C7B16A7098C5BA783B4F9D40508E6AA83FC4A05853C485261F12BC SWAP7 SWAP5 PUSH2 0x6A2 DUP6 PUSH1 0x5 PUSH1 0xC0 PUSH2 0x73C SWAP8 PUSH2 0x670 PUSH2 0x736 SWAP9 PUSH1 0x2 PUSH2 0x75E SWAP13 ADD PUSH2 0x518A JUMP JUMPDEST PUSH2 0x681 PUSH1 0x80 DUP3 ADD MLOAD PUSH1 0x3 DUP7 ADD PUSH2 0x5527 JUMP JUMPDEST PUSH1 0xA0 DUP2 ADD MLOAD PUSH1 0x4 DUP6 ADD SSTORE ADD MLOAD ISZERO ISZERO SWAP2 ADD SWAP1 PUSH1 0xFF DUP1 NOT DUP4 SLOAD AND SWAP2 ISZERO ISZERO AND OR SWAP1 SSTORE JUMP JUMPDEST PUSH1 0x40 MLOAD PUSH1 0x20 DUP2 DUP5 MLOAD PUSH2 0x6B7 DUP2 DUP4 DUP6 DUP10 ADD PUSH2 0x4C87 JUMP JUMPDEST DUP2 ADD PUSH1 0xE DUP2 MSTORE SUB ADD SWAP1 KECCAK256 DUP12 PUSH1 0x0 MSTORE PUSH1 0x20 MSTORE PUSH1 0x40 PUSH1 0x0 KECCAK256 PUSH1 0x1 PUSH1 0xFF NOT DUP3 SLOAD AND OR SWAP1 SSTORE PUSH1 0x40 MLOAD PUSH1 0x20 DUP2 DUP5 MLOAD PUSH2 0x6ED DUP2 DUP4 DUP6 DUP10 ADD PUSH2 0x4C87 JUMP JUMPDEST DUP2 ADD PUSH1 0xF DUP2 MSTORE SUB ADD SWAP1 KECCAK256 DUP12 PUSH1 0x0 MSTORE PUSH1 0x20 MSTORE PUSH1 0x40 PUSH1 0x0 KECCAK256 SSTORE PUSH1 0x16 PUSH1 0x20 MSTORE PUSH2 0x717 DUP2 PUSH1 0x40 PUSH1 0x0 KECCAK256 PUSH2 0x576B JUMP JUMPDEST PUSH2 0x722 PUSH1 0x18 SLOAD PUSH2 0x538E JUMP JUMPDEST PUSH1 0x18 SSTORE PUSH2 0x731 PUSH1 0xFF DUP7 AND PUSH2 0x4CEF JUMP JUMPDEST PUSH2 0x51A9 JUMP JUMPDEST SWAP6 PUSH2 0x51A9 JUMP JUMPDEST SWAP6 PUSH1 0xFF PUSH1 0x40 MLOAD SWAP4 PUSH2 0x74E DUP3 DUP3 AND PUSH2 0x4CEF JUMP JUMPDEST AND DUP4 MSTORE PUSH1 0xFF PUSH1 0x20 DUP5 ADD SWAP2 AND PUSH2 0x4F27 JUMP JUMPDEST TIMESTAMP PUSH1 0x40 DUP3 ADD MSTORE LOG4 STOP JUMPDEST PUSH4 0x4E487B71 PUSH1 0xE0 SHL PUSH1 0x0 SWAP1 DUP2 MSTORE PUSH1 0x21 PUSH1 0x4 MSTORE REVERT JUMPDEST DUP4 PUSH4 0x4E487B71 PUSH1 0xE0 SHL PUSH1 0x0 MSTORE PUSH1 0x0 PUSH1 0x4 MSTORE PUSH1 0x0 REVERT JUMPDEST DUP5 PUSH4 0x4E487B71 PUSH1 0xE0 SHL PUSH1 0x0 MSTORE PUSH1 0x41 PUSH1 0x4 MSTORE PUSH1 0x0 REVERT JUMPDEST PUSH1 0x64 SWAP1 PUSH1 0x1A PUSH1 0x40 MLOAD SWAP2 PUSH3 0x461BCD PUSH1 0xE5 SHL DUP4 MSTORE PUSH1 0x20 PUSH1 0x4 DUP5 ADD MSTORE DUP3 ADD MSTORE PUSH32 0x416C726561647920646973707574656420746869732068617368000000000000 PUSH1 0x44 DUP3 ADD MSTORE REVERT JUMPDEST SWAP1 SWAP7 POP PUSH1 0x20 DUP2 RETURNDATASIZE PUSH1 0x20 GT PUSH2 0x81A JUMPI JUMPDEST DUP2 PUSH2 0x805 PUSH1 0x20 SWAP4 DUP4 PUSH2 0x4BDF JUMP JUMPDEST DUP2 ADD SUB SLT PUSH2 0x815 JUMPI MLOAD SWAP6 CODESIZE PUSH2 0x4E5 JUMP JUMPDEST PUSH1 0x0 DUP1 REVERT JUMPDEST RETURNDATASIZE SWAP2 POP PUSH2 0x7F8 JUMP JUMPDEST PUSH1 0x40 MLOAD RETURNDATASIZE PUSH1 0x0 DUP3 RETURNDATACOPY RETURNDATASIZE SWAP1 REVERT JUMPDEST POP PUSH1 0x5 PUSH1 0xFF DUP10 AND GT ISZERO PUSH2 0x4B4 JUMP JUMPDEST POP PUSH1 0x3 PUSH1 0xFF DUP8 AND GT ISZERO PUSH2 0x49D JUMP JUMPDEST PUSH2 0x86A SWAP2 POP DUP5 RETURNDATASIZE DUP7 GT PUSH2 0x870 JUMPI JUMPDEST PUSH2 0x862 DUP2 DUP4 PUSH2 0x4BDF JUMP JUMPDEST DUP2 ADD SWAP1 PUSH2 0x541F JUMP JUMPDEST CODESIZE PUSH2 0x471 JUMP JUMPDEST POP RETURNDATASIZE PUSH2 0x858 JUMP JUMPDEST PUSH2 0x890 SWAP2 POP PUSH1 0x20 RETURNDATASIZE PUSH1 0x20 GT PUSH2 0x870 JUMPI PUSH2 0x862 DUP2 DUP4 PUSH2 0x4BDF JUMP JUMPDEST CODESIZE PUSH2 0x42F JUMP JUMPDEST CALLVALUE PUSH2 0x815 JUMPI PUSH1 0x80 PUSH2 0x8AF PUSH2 0x8A9 CALLDATASIZE PUSH2 0x5002 JUMP JUMPDEST SWAP2 PUSH2 0x5941 JUMP JUMPDEST SWAP2 PUSH1 0x40 MLOAD SWAP4 ISZERO ISZERO DUP5 MSTORE ISZERO ISZERO PUSH1 0x20 DUP5 ADD MSTORE PUSH1 0x40 DUP4 ADD MSTORE ISZERO ISZERO PUSH1 0x60 DUP3 ADD MSTORE RETURN JUMPDEST CALLVALUE PUSH2 0x815 JUMPI PUSH1 0x0 CALLDATASIZE PUSH1 0x3 NOT ADD SLT PUSH2 0x815 JUMPI PUSH1 0x1 SLOAD PUSH1 0x40 MLOAD PUSH1 0x1 PUSH1 0x1 PUSH1 0xA0 SHL SUB SWAP1 SWAP2 AND DUP2 MSTORE PUSH1 0x20 SWAP1 RETURN JUMPDEST CALLVALUE PUSH2 0x815 JUMPI PUSH1 0x20 DUP1 PUSH1 0x3 NOT CALLDATASIZE ADD SLT PUSH2 0x815 JUMPI PUSH1 0x4 CALLDATALOAD SWAP1 PUSH1 0x1 PUSH1 0x1 PUSH1 0x40 SHL SUB DUP3 GT PUSH2 0x815 JUMPI PUSH2 0x92A PUSH1 0x24 SWAP3 CALLDATASIZE SWAP1 PUSH1 0x4 ADD PUSH2 0x4C00 JUMP JUMPDEST PUSH1 0x0 SLOAD PUSH1 0x40 MLOAD PUSH3 0xB0C809 PUSH1 0xE0 SHL DUP2 MSTORE CALLER PUSH1 0x4 DUP3 ADD MSTORE SWAP4 DUP4 SWAP2 DUP6 SWAP2 SWAP1 DUP3 SWAP1 PUSH1 0x1 PUSH1 0x1 PUSH1 0xA0 SHL SUB AND GAS STATICCALL SWAP3 DUP4 ISZERO PUSH2 0x822 JUMPI PUSH1 0x0 SWAP4 PUSH2 0xA9E JUMPI JUMPDEST POP PUSH2 0x96D DUP4 ISZERO ISZERO PUSH2 0x50E2 JUMP JUMPDEST PUSH1 0x40 MLOAD DUP2 MLOAD SWAP1 DUP4 DUP2 DUP2 DUP6 ADD SWAP4 PUSH2 0x984 DUP2 DUP4 DUP8 PUSH2 0x4C87 JUMP JUMPDEST DUP2 ADD PUSH1 0xB DUP2 MSTORE SUB ADD SWAP1 KECCAK256 DUP5 PUSH1 0x0 MSTORE DUP4 MSTORE PUSH1 0xFF PUSH1 0x40 PUSH1 0x0 KECCAK256 SLOAD AND ISZERO PUSH2 0xA59 JUMPI PUSH32 0x94748C1A380E215F3BA9DE3F49D5C0A47C8BFF6C16301F5F153E2429032722F0 SWAP2 PUSH1 0x4 PUSH2 0xA40 PUSH2 0xA4F SWAP4 PUSH1 0x40 MLOAD DUP8 DUP2 DUP7 MLOAD PUSH2 0x9DF DUP2 DUP4 DUP8 PUSH2 0x4C87 JUMP JUMPDEST DUP2 ADD PUSH1 0xC DUP2 MSTORE SUB ADD SWAP1 KECCAK256 DUP9 PUSH1 0x0 MSTORE DUP8 MSTORE PUSH2 0xA17 DUP8 PUSH1 0x40 PUSH1 0x0 KECCAK256 SLOAD SWAP3 PUSH2 0xA2F PUSH1 0xFF DUP8 PUSH2 0xA26 DUP8 DUP12 DUP8 PUSH1 0x40 MLOAD DUP1 SWAP3 MLOAD PUSH2 0xA17 DUP2 DUP4 DUP13 PUSH2 0x4C87 JUMP JUMPDEST DUP2 ADD PUSH1 0xA DUP2 MSTORE SUB ADD SWAP1 KECCAK256 PUSH2 0x4FE6 JUMP JUMPDEST POP ADD SLOAD AND PUSH2 0x52E8 JUMP JUMPDEST PUSH1 0x40 MLOAD DUP1 SWAP4 DUP2 SWAP3 DUP10 MLOAD SWAP3 DUP4 SWAP2 PUSH2 0x4C87 JUMP JUMPDEST POP ADD DUP1 SLOAD PUSH1 0xFF NOT AND SWAP1 SSTORE PUSH2 0x51A9 JUMP JUMPDEST SWAP2 PUSH1 0x40 MLOAD TIMESTAMP DUP2 MSTORE LOG3 STOP JUMPDEST PUSH1 0x40 MLOAD PUSH3 0x461BCD PUSH1 0xE5 SHL DUP2 MSTORE PUSH1 0x4 DUP2 ADD DUP5 SWAP1 MSTORE PUSH1 0x1A PUSH1 0x24 DUP3 ADD MSTORE PUSH32 0x4E6F20766572696669636174696F6E20746F2072657472616374000000000000 PUSH1 0x44 DUP3 ADD MSTORE PUSH1 0x64 SWAP1 REVERT JUMPDEST SWAP1 SWAP3 POP DUP2 DUP2 DUP2 RETURNDATASIZE DUP4 GT PUSH2 0xAC6 JUMPI JUMPDEST PUSH2 0xAB6 DUP2 DUP4 PUSH2 0x4BDF JUMP JUMPDEST DUP2 ADD SUB SLT PUSH2 0x815 JUMPI MLOAD SWAP2 DUP4 PUSH2 0x961 JUMP JUMPDEST POP RETURNDATASIZE PUSH2 0xAAC JUMP JUMPDEST CALLVALUE PUSH2 0x815 JUMPI PUSH2 0xADB CALLDATASIZE PUSH2 0x4C56 JUMP JUMPDEST PUSH1 0x40 MLOAD DUP3 DUP2 DUP1 SWAP5 MLOAD PUSH2 0xAF3 DUP2 PUSH1 0x20 SWAP8 DUP9 DUP1 SWAP7 ADD PUSH2 0x4C87 JUMP JUMPDEST DUP2 ADD PUSH1 0x10 DUP2 MSTORE SUB ADD SWAP1 KECCAK256 SWAP1 PUSH1 0x0 MSTORE DUP2 MSTORE PUSH1 0x40 PUSH1 0x0 KECCAK256 SWAP1 DUP2 SLOAD PUSH2 0xB14 DUP2 PUSH2 0x5328 JUMP JUMPDEST SWAP1 PUSH2 0xB22 PUSH1 0x40 MLOAD SWAP3 DUP4 PUSH2 0x4BDF JUMP JUMPDEST DUP1 DUP3 MSTORE DUP3 DUP3 ADD DUP1 SWAP5 PUSH1 0x0 MSTORE DUP4 PUSH1 0x0 KECCAK256 PUSH1 0x0 SWAP2 JUMPDEST DUP4 DUP4 LT PUSH2 0xB99 JUMPI PUSH1 0x40 DUP1 MLOAD DUP8 DUP2 MSTORE DUP7 MLOAD DUP2 DUP10 ADD DUP2 SWAP1 MSTORE DUP10 SWAP3 DUP3 ADD SWAP1 DUP10 PUSH1 0x0 JUMPDEST DUP3 DUP2 LT PUSH2 0xB61 JUMPI DUP5 DUP5 SUB DUP6 RETURN JUMPDEST DUP6 MLOAD DUP1 MLOAD DUP6 MSTORE DUP1 DUP4 ADD MLOAD ISZERO ISZERO DUP6 DUP5 ADD MSTORE PUSH1 0x40 DUP1 DUP3 ADD MLOAD SWAP1 DUP7 ADD MSTORE PUSH1 0x60 SWAP1 DUP2 ADD MLOAD ISZERO ISZERO SWAP1 DUP6 ADD MSTORE SWAP5 DUP2 ADD SWAP5 PUSH1 0x80 SWAP1 SWAP4 ADD SWAP3 PUSH1 0x1 ADD PUSH2 0xB54 JUMP JUMPDEST PUSH1 0x4 DUP7 PUSH1 0x1 SWAP3 PUSH2 0xBA8 DUP6 PUSH2 0x533F JUMP JUMPDEST DUP2 MSTORE ADD SWAP3 ADD SWAP3 ADD SWAP2 SWAP1 PUSH2 0xB35 JUMP JUMPDEST CALLVALUE PUSH2 0x815 JUMPI PUSH2 0xBC4 CALLDATASIZE PUSH2 0x4C56 JUMP JUMPDEST SWAP1 PUSH1 0x40 MLOAD SWAP2 DUP2 MLOAD SWAP3 PUSH1 0x20 SWAP4 DUP2 DUP6 DUP1 SWAP4 DUP2 DUP8 ADD SWAP4 PUSH2 0xBE2 DUP2 DUP4 DUP8 PUSH2 0x4C87 JUMP JUMPDEST DUP2 ADD PUSH1 0x3 DUP2 MSTORE SUB ADD SWAP1 KECCAK256 DUP4 PUSH1 0x0 MSTORE DUP3 MSTORE PUSH1 0xFF PUSH1 0x40 PUSH1 0x0 KECCAK256 SLOAD AND SWAP4 DUP5 PUSH2 0xC0E JUMPI JUMPDEST DUP3 DUP6 PUSH1 0x40 MLOAD SWAP1 ISZERO ISZERO DUP2 MSTORE RETURN JUMPDEST PUSH2 0xC25 SWAP4 SWAP5 POP PUSH1 0x40 MLOAD SWAP4 DUP5 SWAP3 DUP4 SWAP3 MLOAD SWAP3 DUP4 SWAP2 PUSH2 0x4C87 JUMP JUMPDEST DUP2 ADD PUSH1 0x5 DUP2 MSTORE SUB ADD SWAP1 KECCAK256 SWAP1 PUSH1 0x0 MSTORE DUP2 MSTORE PUSH1 0xFF PUSH1 0x40 PUSH1 0x0 KECCAK256 SLOAD AND DUP3 DUP3 DUP2 DUP1 PUSH2 0xC02 JUMP JUMPDEST CALLVALUE PUSH2 0x815 JUMPI PUSH1 0x20 DUP1 PUSH1 0x3 NOT CALLDATASIZE ADD SLT PUSH2 0x815 JUMPI PUSH1 0x4 CALLDATALOAD PUSH1 0x0 MSTORE PUSH1 0x13 DUP2 MSTORE PUSH1 0x40 PUSH1 0x0 KECCAK256 SWAP1 DUP2 SLOAD SWAP2 PUSH2 0xC75 DUP4 PUSH2 0x5328 JUMP JUMPDEST SWAP3 PUSH2 0xC83 PUSH1 0x40 MLOAD SWAP5 DUP6 PUSH2 0x4BDF JUMP JUMPDEST DUP1 DUP5 MSTORE DUP3 DUP5 ADD DUP1 SWAP3 PUSH1 0x0 MSTORE DUP4 PUSH1 0x0 KECCAK256 PUSH1 0x0 SWAP2 JUMPDEST DUP4 DUP4 LT PUSH2 0xD4E JUMPI POP POP POP POP PUSH1 0x40 MLOAD SWAP2 DUP1 DUP4 ADD SWAP4 DUP2 DUP5 MSTORE MLOAD DUP1 SWAP5 MSTORE PUSH1 0x40 DUP4 ADD SWAP4 PUSH1 0x40 DUP2 PUSH1 0x5 SHL DUP6 ADD ADD SWAP3 SWAP2 PUSH1 0x0 SWAP6 JUMPDEST DUP3 DUP8 LT PUSH2 0xCD1 JUMPI DUP6 DUP6 SUB DUP7 RETURN JUMPDEST SWAP1 SWAP2 SWAP3 SWAP4 DUP3 DUP1 PUSH1 0x1 SWAP3 PUSH1 0x3F NOT DUP10 DUP3 SUB ADD DUP6 MSTORE DUP8 MLOAD SWAP1 PUSH2 0xD0C PUSH2 0xCFC PUSH1 0xC0 DUP5 MLOAD SWAP1 DUP1 DUP6 MSTORE DUP5 ADD SWAP1 PUSH2 0x4CCA JUMP JUMPDEST DUP5 DUP5 ADD MLOAD DUP4 DUP3 SUB DUP7 DUP6 ADD MSTORE PUSH2 0x4CCA JUMP JUMPDEST SWAP2 PUSH1 0x40 DUP2 ADD MLOAD PUSH1 0x40 DUP4 ADD MSTORE PUSH2 0xD29 PUSH1 0x60 DUP1 DUP4 ADD MLOAD SWAP1 DUP5 ADD SWAP1 PUSH2 0x4F4A JUMP JUMPDEST PUSH1 0x80 DUP1 DUP3 ADD MLOAD SWAP1 DUP4 ADD MSTORE PUSH1 0xA0 DUP1 SWAP2 ADD MLOAD ISZERO ISZERO SWAP2 ADD MSTORE SWAP7 ADD SWAP3 ADD SWAP7 ADD SWAP6 SWAP3 SWAP2 SWAP1 SWAP3 PUSH2 0xCC4 JUMP JUMPDEST PUSH1 0x6 DUP7 PUSH1 0x1 SWAP3 PUSH2 0xD60 DUP6 SWAP11 SWAP10 SWAP11 PUSH2 0x5798 JUMP JUMPDEST DUP2 MSTORE ADD SWAP3 ADD SWAP3 ADD SWAP2 SWAP1 SWAP6 SWAP5 SWAP6 PUSH2 0xC96 JUMP JUMPDEST CALLVALUE PUSH2 0x815 JUMPI PUSH2 0xD9C PUSH1 0x20 PUSH2 0xD84 CALLDATASIZE PUSH2 0x5002 JUMP JUMPDEST SWAP4 SWAP2 DUP4 PUSH1 0x40 SWAP5 SWAP3 SWAP5 MLOAD SWAP4 DUP3 DUP6 DUP1 SWAP5 MLOAD SWAP4 DUP5 SWAP3 ADD PUSH2 0x4C87 JUMP JUMPDEST DUP2 ADD PUSH1 0x11 DUP2 MSTORE SUB ADD SWAP1 KECCAK256 SWAP1 PUSH1 0x0 MSTORE PUSH1 0x20 MSTORE PUSH1 0x40 PUSH1 0x0 KECCAK256 SWAP1 PUSH1 0x0 MSTORE PUSH1 0x20 MSTORE PUSH1 0x20 PUSH1 0xFF PUSH1 0x40 PUSH1 0x0 KECCAK256 SLOAD AND PUSH1 0x40 MLOAD SWAP1 ISZERO ISZERO DUP2 MSTORE RETURN JUMPDEST CALLVALUE PUSH2 0x815 JUMPI PUSH2 0xDDC CALLDATASIZE PUSH2 0x4FA3 JUMP JUMPDEST PUSH1 0x0 SLOAD PUSH1 0x40 MLOAD PUSH4 0x45ECD02F PUSH1 0xE0 SHL DUP2 MSTORE CALLER PUSH1 0x4 DUP3 ADD MSTORE PUSH1 0x20 SWAP4 PUSH1 0x24 SWAP3 SWAP1 SWAP2 PUSH1 0x1 PUSH1 0x1 PUSH1 0xA0 SHL SUB SWAP1 SWAP2 AND SWAP1 DUP6 DUP2 DUP6 DUP2 DUP6 GAS STATICCALL DUP1 ISZERO PUSH2 0x822 JUMPI PUSH2 0xE24 SWAP2 PUSH1 0x0 SWAP2 PUSH2 0x10DC JUMPI POP PUSH2 0x5437 JUMP JUMPDEST PUSH1 0x40 MLOAD PUSH4 0xA0CA13C3 PUSH1 0xE0 SHL DUP2 MSTORE DUP6 DUP2 DUP1 PUSH2 0xE42 CALLER DUP8 PUSH1 0x4 DUP5 ADD PUSH2 0x547A JUMP JUMPDEST SUB DUP2 DUP6 GAS STATICCALL SWAP1 DUP2 ISZERO PUSH2 0x822 JUMPI PUSH1 0x0 SWAP2 PUSH2 0x10BF JUMPI JUMPDEST POP ISZERO PUSH2 0x1085 JUMPI DUP4 MLOAD ISZERO PUSH2 0x104A JUMPI PUSH1 0x40 MLOAD SWAP1 DUP3 MLOAD SWAP2 DUP7 DUP2 DUP2 DUP7 ADD SWAP5 PUSH2 0xE7B DUP2 DUP4 DUP9 PUSH2 0x4C87 JUMP JUMPDEST DUP2 ADD PUSH1 0x2 DUP2 MSTORE SUB ADD SWAP1 KECCAK256 SLOAD ISZERO PUSH2 0x1010 JUMPI PUSH1 0x40 MLOAD SWAP1 PUSH1 0xFF DUP7 MLOAD SWAP3 DUP9 DUP2 DUP2 DUP11 ADD SWAP6 PUSH2 0xEA5 DUP2 DUP4 DUP10 PUSH2 0x4C87 JUMP JUMPDEST DUP2 ADD PUSH1 0x8 DUP2 MSTORE SUB ADD SWAP1 KECCAK256 SLOAD AND PUSH2 0xFD6 JUMPI DUP7 SWAP1 PUSH1 0x40 MLOAD SWAP6 DUP7 DUP1 SWAP3 PUSH3 0xB0C809 PUSH1 0xE0 SHL DUP3 MSTORE CALLER PUSH1 0x4 DUP4 ADD MSTORE GAS STATICCALL SWAP4 DUP5 ISZERO PUSH2 0x822 JUMPI DUP7 SWAP3 DUP7 SWAP2 PUSH1 0x0 SWAP7 PUSH2 0xF9F JUMPI JUMPDEST POP SWAP4 PUSH2 0xF71 DUP5 PUSH2 0xF91 SWAP5 PUSH2 0xF61 PUSH2 0xF8B SWAP6 PUSH2 0xF52 PUSH32 0x60D9FFF893391026DAADE2734B45ECB2FB8AE1F0187EA2B39018EE8BDC94390A SWAP12 SWAP10 PUSH1 0x40 SWAP12 PUSH2 0xF42 DUP10 DUP15 MLOAD DUP5 DUP2 DUP1 PUSH2 0xF33 DUP13 DUP12 MLOAD SWAP3 DUP4 SWAP2 PUSH2 0x4C87 JUMP JUMPDEST DUP2 ADD PUSH1 0x6 DUP2 MSTORE SUB ADD SWAP1 KECCAK256 PUSH2 0x5527 JUMP JUMPDEST DUP13 MLOAD DUP1 SWAP4 DUP2 SWAP3 DUP12 MLOAD SWAP3 DUP4 SWAP2 PUSH2 0x4C87 JUMP JUMPDEST DUP2 ADD PUSH1 0x7 DUP2 MSTORE SUB ADD SWAP1 KECCAK256 PUSH2 0x576B JUMP JUMPDEST DUP8 MLOAD DUP1 SWAP4 DUP2 SWAP3 DUP13 MLOAD SWAP3 DUP4 SWAP2 PUSH2 0x4C87 JUMP JUMPDEST DUP2 ADD PUSH1 0x8 DUP2 MSTORE SUB ADD SWAP1 KECCAK256 PUSH1 0x1 PUSH1 0xFF NOT DUP3 SLOAD AND OR SWAP1 SSTORE PUSH2 0x51A9 JUMP JUMPDEST SWAP5 PUSH2 0x51A9 JUMP JUMPDEST SWAP5 DUP3 MLOAD SWAP2 DUP3 MSTORE TIMESTAMP SWAP1 DUP3 ADD MSTORE LOG3 STOP JUMPDEST SWAP6 POP SWAP3 SWAP1 POP DUP5 DUP2 RETURNDATASIZE DUP4 GT PUSH2 0xFCF JUMPI JUMPDEST PUSH2 0xFB8 DUP2 DUP4 PUSH2 0x4BDF JUMP JUMPDEST DUP2 ADD SUB SLT PUSH2 0x815 JUMPI SWAP3 MLOAD SWAP3 DUP6 SWAP2 DUP6 SWAP1 PUSH2 0xF71 PUSH2 0xEE2 JUMP JUMPDEST POP RETURNDATASIZE PUSH2 0xFAE JUMP JUMPDEST PUSH1 0x40 MLOAD PUSH3 0x461BCD PUSH1 0xE5 SHL DUP2 MSTORE PUSH1 0x4 DUP2 ADD DUP9 SWAP1 MSTORE PUSH1 0x13 DUP2 DUP8 ADD MSTORE PUSH19 0x4861736820616C726561647920657869737473 PUSH1 0x68 SHL PUSH1 0x44 DUP3 ADD MSTORE PUSH1 0x64 SWAP1 REVERT JUMPDEST PUSH1 0x40 MLOAD PUSH3 0x461BCD PUSH1 0xE5 SHL DUP2 MSTORE PUSH1 0x4 DUP2 ADD DUP8 SWAP1 MSTORE PUSH1 0x13 DUP2 DUP7 ADD MSTORE PUSH19 0x149958DBDC99081B9BDD08185B98DA1BDC9959 PUSH1 0x6A SHL PUSH1 0x44 DUP3 ADD MSTORE PUSH1 0x64 SWAP1 REVERT JUMPDEST PUSH1 0x40 MLOAD PUSH3 0x461BCD PUSH1 0xE5 SHL DUP2 MSTORE PUSH1 0x4 DUP2 ADD DUP7 SWAP1 MSTORE PUSH1 0x14 DUP2 DUP6 ADD MSTORE PUSH20 0x486173682063616E6E6F7420626520656D707479 PUSH1 0x60 SHL PUSH1 0x44 DUP3 ADD MSTORE PUSH1 0x64 SWAP1 REVERT JUMPDEST PUSH1 0x40 MLOAD PUSH3 0x461BCD PUSH1 0xE5 SHL DUP2 MSTORE PUSH1 0x4 DUP2 ADD DUP7 SWAP1 MSTORE PUSH1 0x13 DUP2 DUP6 ADD MSTORE PUSH19 0x27B7363C9037BBB732B91037B91030B236B4B7 PUSH1 0x69 SHL PUSH1 0x44 DUP3 ADD MSTORE PUSH1 0x64 SWAP1 REVERT JUMPDEST PUSH2 0x10D6 SWAP2 POP DUP7 RETURNDATASIZE DUP9 GT PUSH2 0x870 JUMPI PUSH2 0x862 DUP2 DUP4 PUSH2 0x4BDF JUMP JUMPDEST DUP7 PUSH2 0xE56 JUMP JUMPDEST PUSH2 0x10F3 SWAP2 POP DUP8 RETURNDATASIZE DUP10 GT PUSH2 0x870 JUMPI PUSH2 0x862 DUP2 DUP4 PUSH2 0x4BDF JUMP JUMPDEST DUP8 PUSH2 0x42F JUMP JUMPDEST CALLVALUE PUSH2 0x815 JUMPI PUSH1 0x20 DUP1 PUSH1 0x3 NOT CALLDATASIZE ADD SLT PUSH2 0x815 JUMPI PUSH1 0x4 CALLDATALOAD PUSH1 0x0 MSTORE PUSH1 0x15 PUSH1 0x20 MSTORE PUSH1 0x40 PUSH1 0x0 KECCAK256 DUP1 SLOAD PUSH2 0x1126 DUP2 PUSH2 0x5328 JUMP JUMPDEST SWAP2 PUSH2 0x1134 PUSH1 0x40 MLOAD SWAP4 DUP5 PUSH2 0x4BDF JUMP JUMPDEST DUP2 DUP4 MSTORE PUSH1 0x20 DUP4 ADD SWAP1 PUSH1 0x0 MSTORE PUSH1 0x20 PUSH1 0x0 KECCAK256 SWAP4 PUSH1 0x0 SWAP2 JUMPDEST DUP4 DUP4 LT PUSH2 0x1162 JUMPI PUSH1 0x40 MLOAD DUP1 PUSH2 0x115E DUP8 DUP3 PUSH2 0x4E85 JUMP JUMPDEST SUB SWAP1 RETURN JUMPDEST PUSH1 0x1 DUP3 DUP2 SWAP3 PUSH2 0x1170 DUP10 PUSH2 0x4D61 JUMP JUMPDEST DUP2 MSTORE ADD SWAP7 ADD SWAP3 ADD SWAP2 SWAP5 PUSH2 0x1149 JUMP JUMPDEST CALLVALUE PUSH2 0x815 JUMPI PUSH1 0x20 CALLDATASIZE PUSH1 0x3 NOT ADD SLT PUSH2 0x815 JUMPI PUSH1 0x4 CALLDATALOAD PUSH1 0x1 PUSH1 0x1 PUSH1 0xA0 SHL SUB DUP2 DUP2 AND SWAP2 DUP3 SWAP1 SUB PUSH2 0x815 JUMPI PUSH2 0x11B4 SWAP1 PUSH1 0x1 SLOAD AND CALLER EQ PUSH2 0x54EE JUMP JUMPDEST PUSH2 0x11BF DUP2 ISZERO ISZERO PUSH2 0x5800 JUMP JUMPDEST PUSH12 0xFFFFFFFFFFFFFFFFFFFFFFFF PUSH1 0xA0 SHL PUSH1 0x0 SLOAD AND OR PUSH1 0x0 SSTORE PUSH1 0x0 DUP1 RETURN JUMPDEST CALLVALUE PUSH2 0x815 JUMPI PUSH1 0x20 CALLDATASIZE PUSH1 0x3 NOT ADD SLT PUSH2 0x815 JUMPI PUSH1 0x4 CALLDATALOAD PUSH1 0x0 MSTORE PUSH1 0x14 PUSH1 0x20 MSTORE PUSH1 0x20 PUSH1 0x40 PUSH1 0x0 KECCAK256 SLOAD PUSH1 0x40 MLOAD SWAP1 DUP2 MSTORE RETURN JUMPDEST CALLVALUE PUSH2 0x815 JUMPI PUSH1 0x20 CALLDATASIZE PUSH1 0x3 NOT ADD SLT PUSH2 0x815 JUMPI PUSH1 0x4 CALLDATALOAD PUSH1 0x0 MSTORE PUSH1 0x15 PUSH1 0x20 MSTORE PUSH1 0x40 DUP1 PUSH1 0x0 KECCAK256 SLOAD PUSH1 0x16 PUSH1 0x20 MSTORE DUP2 PUSH1 0x0 KECCAK256 SLOAD DUP3 MLOAD SWAP2 DUP3 MSTORE PUSH1 0x20 DUP3 ADD MSTORE RETURN JUMPDEST CALLVALUE PUSH2 0x815 JUMPI PUSH1 0x0 CALLDATASIZE PUSH1 0x3 NOT ADD SLT PUSH2 0x815 JUMPI PUSH1 0x20 PUSH1 0x19 SLOAD PUSH1 0x40 MLOAD SWAP1 DUP2 MSTORE RETURN JUMPDEST CALLVALUE PUSH2 0x815 JUMPI PUSH1 0x20 DUP1 PUSH1 0x3 NOT CALLDATASIZE ADD SLT PUSH2 0x815 JUMPI PUSH1 0x4 CALLDATALOAD PUSH1 0x1 PUSH1 0x1 PUSH1 0x40 SHL SUB DUP2 GT PUSH2 0x815 JUMPI PUSH2 0x1290 SWAP1 CALLDATASIZE SWAP1 PUSH1 0x4 ADD PUSH2 0x4C00 JUMP JUMPDEST SWAP1 PUSH1 0x0 DUP1 SWAP2 PUSH1 0x40 MLOAD DUP2 DUP6 MLOAD SWAP2 DUP2 DUP2 DUP2 DUP10 ADD SWAP5 PUSH2 0x12AD DUP2 DUP4 DUP9 PUSH2 0x4C87 JUMP JUMPDEST DUP2 ADD PUSH1 0xA DUP2 MSTORE SUB ADD SWAP1 KECCAK256 SWAP6 DUP7 SLOAD PUSH2 0x12C3 DUP2 PUSH2 0x5328 JUMP JUMPDEST SWAP8 PUSH2 0x12D1 PUSH1 0x40 MLOAD SWAP10 DUP11 PUSH2 0x4BDF JUMP JUMPDEST DUP2 DUP10 MSTORE PUSH1 0x0 SWAP1 DUP2 MSTORE DUP4 DUP2 KECCAK256 DUP5 DUP11 ADD JUMPDEST DUP4 DUP4 LT PUSH2 0x13FD JUMPI POP POP POP POP SWAP2 PUSH2 0x1301 SWAP3 PUSH1 0x40 MLOAD SWAP4 DUP5 SWAP3 DUP4 SWAP3 MLOAD SWAP3 DUP4 SWAP2 PUSH2 0x4C87 JUMP JUMPDEST DUP2 ADD PUSH1 0xD DUP2 MSTORE SUB ADD SWAP1 KECCAK256 SWAP3 DUP4 SLOAD PUSH2 0x1317 DUP2 PUSH2 0x5328 JUMP JUMPDEST SWAP5 PUSH2 0x1325 PUSH1 0x40 MLOAD SWAP7 DUP8 PUSH2 0x4BDF JUMP JUMPDEST DUP2 DUP7 MSTORE PUSH1 0x0 SWAP1 DUP2 MSTORE DUP4 DUP2 KECCAK256 DUP5 DUP1 DUP9 ADD JUMPDEST DUP5 DUP5 LT PUSH2 0x13DE JUMPI POP POP POP POP POP DUP5 MLOAD SWAP1 DUP5 MLOAD SWAP5 PUSH1 0x0 JUMPDEST DUP8 MLOAD DUP2 LT ISZERO PUSH2 0x1383 JUMPI PUSH1 0x80 PUSH2 0x135F DUP3 DUP11 PUSH2 0x537A JUMP JUMPDEST MLOAD ADD MLOAD PUSH2 0x136F JUMPI JUMPDEST PUSH1 0x1 ADD PUSH2 0x134A JUMP JUMPDEST SWAP5 PUSH2 0x137B PUSH1 0x1 SWAP2 PUSH2 0x538E JUMP JUMPDEST SWAP6 SWAP1 POP PUSH2 0x1367 JUMP JUMPDEST POP DUP5 DUP7 PUSH1 0x0 JUMPDEST DUP4 MLOAD DUP2 LT ISZERO PUSH2 0x13C2 JUMPI PUSH1 0xC0 PUSH2 0x139E DUP3 DUP7 PUSH2 0x537A JUMP JUMPDEST MLOAD ADD MLOAD PUSH2 0x13AE JUMPI JUMPDEST PUSH1 0x1 ADD PUSH2 0x1389 JUMP JUMPDEST SWAP4 PUSH2 0x13BA PUSH1 0x1 SWAP2 PUSH2 0x538E JUMP JUMPDEST SWAP5 SWAP1 POP PUSH2 0x13A6 JUMP JUMPDEST PUSH1 0x80 DUP4 DUP4 DUP9 DUP9 DUP12 PUSH1 0x40 MLOAD SWAP5 DUP6 MSTORE DUP5 ADD MSTORE PUSH1 0x40 DUP4 ADD MSTORE PUSH1 0x60 DUP3 ADD MSTORE RETURN JUMPDEST PUSH1 0x1 SWAP2 PUSH1 0x6 SWAP2 PUSH2 0x13ED DUP6 PUSH2 0x53A9 JUMP JUMPDEST DUP2 MSTORE ADD SWAP3 ADD SWAP3 ADD SWAP2 SWAP1 DUP6 SWAP1 PUSH2 0x1335 JUMP JUMPDEST DUP2 SWAP3 SWAP4 SWAP5 SWAP6 PUSH1 0x5 SWAP2 PUSH2 0x1410 PUSH1 0x1 SWAP5 PUSH2 0x51C9 JUMP JUMPDEST DUP2 MSTORE ADD SWAP3 ADD SWAP3 ADD SWAP1 SWAP2 DUP7 SWAP5 SWAP4 SWAP3 PUSH2 0x12E0 JUMP JUMPDEST CALLVALUE PUSH2 0x815 JUMPI PUSH1 0x0 CALLDATASIZE PUSH1 0x3 NOT ADD SLT PUSH2 0x815 JUMPI PUSH1 0x20 PUSH1 0x9 SLOAD PUSH1 0x40 MLOAD SWAP1 DUP2 MSTORE RETURN JUMPDEST CALLVALUE PUSH2 0x815 JUMPI PUSH1 0x20 PUSH2 0x1468 PUSH2 0x1453 CALLDATASIZE PUSH2 0x4C56 JUMP JUMPDEST SWAP3 SWAP1 DUP2 PUSH1 0x40 MLOAD SWAP4 DUP3 DUP6 DUP1 SWAP5 MLOAD SWAP4 DUP5 SWAP3 ADD PUSH2 0x4C87 JUMP JUMPDEST DUP2 ADD PUSH1 0xE DUP2 MSTORE SUB ADD SWAP1 KECCAK256 SWAP1 PUSH1 0x0 MSTORE PUSH1 0x20 MSTORE PUSH1 0x20 PUSH1 0xFF PUSH1 0x40 PUSH1 0x0 KECCAK256 SLOAD AND PUSH1 0x40 MLOAD SWAP1 ISZERO ISZERO DUP2 MSTORE RETURN JUMPDEST CALLVALUE PUSH2 0x815 JUMPI PUSH1 0x20 DUP1 PUSH1 0x3 NOT CALLDATASIZE ADD SLT PUSH2 0x815 JUMPI PUSH1 0x4 CALLDATALOAD PUSH1 0x0 MSTORE PUSH1 0x16 PUSH1 0x20 MSTORE PUSH1 0x40 PUSH1 0x0 KECCAK256 DUP1 SLOAD PUSH2 0x14BB DUP2 PUSH2 0x5328 JUMP JUMPDEST SWAP2 PUSH2 0x14C9 PUSH1 0x40 MLOAD SWAP4 DUP5 PUSH2 0x4BDF JUMP JUMPDEST DUP2 DUP4 MSTORE PUSH1 0x20 DUP4 ADD SWAP1 PUSH1 0x0 MSTORE PUSH1 0x20 PUSH1 0x0 KECCAK256 SWAP4 PUSH1 0x0 SWAP2 JUMPDEST DUP4 DUP4 LT PUSH2 0x14F3 JUMPI PUSH1 0x40 MLOAD DUP1 PUSH2 0x115E DUP8 DUP3 PUSH2 0x4E85 JUMP JUMPDEST PUSH1 0x1 DUP3 DUP2 SWAP3 PUSH2 0x1501 DUP10 PUSH2 0x4D61 JUMP JUMPDEST DUP2 MSTORE ADD SWAP7 ADD SWAP3 ADD SWAP2 SWAP5 PUSH2 0x14DE JUMP JUMPDEST CALLVALUE PUSH2 0x815 JUMPI PUSH1 0x20 PUSH2 0x1522 PUSH2 0x1453 CALLDATASIZE PUSH2 0x4C56 JUMP JUMPDEST DUP2 ADD PUSH1 0xD DUP2 MSTORE SUB ADD SWAP1 KECCAK256 SWAP1 DUP2 SLOAD DUP2 LT ISZERO PUSH2 0x815 JUMPI PUSH2 0x153F SWAP2 PUSH2 0x5037 JUMP JUMPDEST POP DUP1 SLOAD SWAP1 PUSH2 0x154F PUSH1 0x1 DUP3 ADD PUSH2 0x4D61 JUMP JUMPDEST PUSH2 0x15BF PUSH1 0x2 DUP4 ADD SLOAD PUSH1 0xFF DUP2 AND SWAP1 PUSH2 0x15B2 PUSH2 0x156B PUSH1 0x3 DUP8 ADD PUSH2 0x4D61 JUMP JUMPDEST SWAP2 PUSH2 0x1593 PUSH1 0xFF PUSH1 0x5 PUSH1 0x4 DUP11 ADD SLOAD SWAP10 ADD SLOAD AND SWAP7 PUSH1 0x40 MLOAD SWAP11 DUP12 SWAP11 DUP12 MSTORE DUP1 PUSH1 0x20 DUP13 ADD MSTORE DUP11 ADD SWAP1 PUSH2 0x4CCA JUMP JUMPDEST SWAP4 PUSH2 0x159D DUP2 PUSH2 0x4CEF JUMP JUMPDEST PUSH1 0x40 DUP10 ADD MSTORE PUSH1 0xFF PUSH1 0x60 DUP10 ADD SWAP2 PUSH1 0x8 SHR AND PUSH2 0x4F27 JUMP JUMPDEST DUP6 DUP3 SUB PUSH1 0x80 DUP8 ADD MSTORE PUSH2 0x4CCA JUMP JUMPDEST SWAP2 PUSH1 0xA0 DUP5 ADD MSTORE ISZERO ISZERO PUSH1 0xC0 DUP4 ADD MSTORE SUB SWAP1 RETURN JUMPDEST CALLVALUE PUSH2 0x815 JUMPI PUSH1 0x20 DUP1 PUSH1 0x3 NOT CALLDATASIZE ADD SLT PUSH2 0x815 JUMPI PUSH1 0x4 CALLDATALOAD PUSH1 0x0 MSTORE PUSH1 0x4 PUSH1 0x20 MSTORE PUSH1 0x40 PUSH1 0x0 KECCAK256 DUP1 SLOAD PUSH2 0x15FD DUP2 PUSH2 0x5328 JUMP JUMPDEST SWAP2 PUSH2 0x160B PUSH1 0x40 MLOAD SWAP4 DUP5 PUSH2 0x4BDF JUMP JUMPDEST DUP2 DUP4 MSTORE PUSH1 0x20 DUP4 ADD SWAP1 PUSH1 0x0 MSTORE PUSH1 0x20 PUSH1 0x0 KECCAK256 SWAP4 PUSH1 0x0 SWAP2 JUMPDEST DUP4 DUP4 LT PUSH2 0x1635 JUMPI PUSH1 0x40 MLOAD DUP1 PUSH2 0x115E DUP8 DUP3 PUSH2 0x4E85 JUMP JUMPDEST PUSH1 0x1 DUP3 DUP2 SWAP3 PUSH2 0x1643 DUP10 PUSH2 0x4D61 JUMP JUMPDEST DUP2 MSTORE ADD SWAP7 ADD SWAP3 ADD SWAP2 SWAP5 PUSH2 0x1620 JUMP JUMPDEST CALLVALUE PUSH2 0x815 JUMPI PUSH1 0x20 PUSH2 0x1664 PUSH2 0x1453 CALLDATASIZE PUSH2 0x4C56 JUMP JUMPDEST DUP2 ADD PUSH1 0x3 DUP2 MSTORE SUB ADD SWAP1 KECCAK256 SWAP1 PUSH1 0x0 MSTORE PUSH1 0x20 MSTORE PUSH1 0x20 PUSH1 0xFF PUSH1 0x40 PUSH1 0x0 KECCAK256 SLOAD AND PUSH1 0x40 MLOAD SWAP1 ISZERO ISZERO DUP2 MSTORE RETURN JUMPDEST CALLVALUE PUSH2 0x815 JUMPI PUSH1 0x0 CALLDATASIZE PUSH1 0x3 NOT ADD SLT PUSH2 0x815 JUMPI PUSH1 0x20 PUSH1 0x18 SLOAD PUSH1 0x40 MLOAD SWAP1 DUP2 MSTORE RETURN JUMPDEST CALLVALUE PUSH2 0x815 JUMPI PUSH1 0x20 PUSH2 0x16BB PUSH2 0x1453 CALLDATASIZE PUSH2 0x4C56 JUMP JUMPDEST DUP2 ADD PUSH1 0x2 DUP2 MSTORE SUB ADD SWAP1 KECCAK256 DUP1 SLOAD DUP3 LT ISZERO PUSH2 0x815 JUMPI PUSH1 0x20 SWAP2 PUSH2 0x16DA SWAP2 PUSH2 0x4CF9 JUMP JUMPDEST SWAP1 SLOAD PUSH1 0x40 MLOAD SWAP2 PUSH1 0x3 SHL SHR DUP2 MSTORE RETURN JUMPDEST CALLVALUE PUSH2 0x815 JUMPI PUSH2 0x16F6 CALLDATASIZE PUSH2 0x4F34 JUMP JUMPDEST SWAP1 PUSH1 0x0 MSTORE PUSH1 0x13 PUSH1 0x20 MSTORE PUSH1 0x40 PUSH1 0x0 KECCAK256 SWAP1 DUP2 SLOAD DUP2 LT ISZERO PUSH2 0x815 JUMPI PUSH2 0x1717 SWAP2 PUSH2 0x5037 JUMP JUMPDEST POP PUSH2 0x1721 DUP2 PUSH2 0x4D61 JUMP JUMPDEST PUSH2 0x115E PUSH2 0x1730 PUSH1 0x1 DUP5 ADD PUSH2 0x4D61 JUMP JUMPDEST SWAP3 PUSH1 0x2 DUP2 ADD SLOAD SWAP1 PUSH1 0xFF PUSH1 0x3 DUP3 ADD SLOAD AND PUSH1 0xFF PUSH1 0x5 PUSH1 0x4 DUP5 ADD SLOAD SWAP4 ADD SLOAD AND SWAP3 PUSH1 0x40 MLOAD SWAP7 DUP8 SWAP7 DUP8 PUSH2 0x4F57 JUMP JUMPDEST CALLVALUE PUSH2 0x815 JUMPI PUSH2 0x1767 CALLDATASIZE PUSH2 0x4F34 JUMP JUMPDEST SWAP1 PUSH1 0x0 MSTORE PUSH1 0x15 PUSH1 0x20 MSTORE PUSH1 0x40 PUSH1 0x0 KECCAK256 SWAP1 DUP2 SLOAD DUP2 LT ISZERO PUSH2 0x815 JUMPI PUSH2 0x178F PUSH2 0x1795 SWAP2 PUSH2 0x115E SWAP4 PUSH2 0x4CF9 JUMP JUMPDEST SWAP1 PUSH2 0x4E06 JUMP JUMPDEST PUSH1 0x40 MLOAD SWAP2 DUP3 SWAP2 PUSH1 0x20 DUP4 MSTORE PUSH1 0x20 DUP4 ADD SWAP1 PUSH2 0x4CCA JUMP JUMPDEST CALLVALUE PUSH2 0x815 JUMPI PUSH1 0x20 DUP1 PUSH1 0x3 NOT CALLDATASIZE ADD SLT PUSH2 0x815 JUMPI PUSH1 0x4 CALLDATALOAD PUSH1 0x1 PUSH1 0x1 PUSH1 0x40 SHL SUB DUP2 GT PUSH2 0x815 JUMPI PUSH2 0x17DA SWAP1 CALLDATASIZE SWAP1 PUSH1 0x4 ADD PUSH2 0x4C00 JUMP JUMPDEST PUSH1 0x0 SLOAD PUSH1 0x40 MLOAD PUSH4 0x45ECD02F PUSH1 0xE0 SHL DUP2 MSTORE CALLER PUSH1 0x4 DUP3 ADD MSTORE PUSH1 0x1 PUSH1 0x1 PUSH1 0xA0 SHL SUB SWAP1 SWAP2 AND SWAP3 SWAP2 SWAP1 DUP3 DUP2 PUSH1 0x24 DUP2 DUP8 GAS STATICCALL DUP1 ISZERO PUSH2 0x822 JUMPI PUSH2 0x181D SWAP2 PUSH1 0x0 SWAP2 PUSH2 0x1A12 JUMPI POP PUSH2 0x5437 JUMP JUMPDEST PUSH1 0x40 MLOAD PUSH4 0x286B6AB PUSH1 0xE3 SHL DUP2 MSTORE SWAP3 DUP3 DUP5 DUP1 PUSH2 0x183C CALLER DUP7 PUSH1 0x4 DUP5 ADD PUSH2 0x547A JUMP JUMPDEST SUB DUP2 DUP5 GAS STATICCALL SWAP1 DUP2 ISZERO PUSH2 0x822 JUMPI PUSH2 0x185D DUP5 SWAP3 PUSH1 0x24 SWAP7 PUSH1 0x0 SWAP2 PUSH2 0x19F5 JUMPI POP PUSH2 0x54A2 JUMP JUMPDEST PUSH1 0x40 MLOAD PUSH3 0xB0C809 PUSH1 0xE0 SHL DUP2 MSTORE CALLER PUSH1 0x4 DUP3 ADD MSTORE SWAP5 DUP6 SWAP2 DUP3 SWAP1 GAS STATICCALL SWAP3 DUP4 ISZERO PUSH2 0x822 JUMPI PUSH1 0x0 SWAP4 PUSH2 0x19C6 JUMPI JUMPDEST POP PUSH2 0x1891 DUP4 ISZERO ISZERO PUSH2 0x50E2 JUMP JUMPDEST PUSH1 0x40 MLOAD DUP2 MLOAD SWAP1 DUP4 DUP2 DUP2 DUP6 ADD SWAP4 PUSH2 0x18A8 DUP2 DUP4 DUP8 PUSH2 0x4C87 JUMP JUMPDEST DUP2 ADD PUSH1 0x3 DUP2 MSTORE SUB ADD SWAP1 KECCAK256 DUP5 PUSH1 0x0 MSTORE DUP4 MSTORE PUSH1 0xFF PUSH1 0x40 PUSH1 0x0 KECCAK256 SLOAD AND ISZERO PUSH2 0x198B JUMPI PUSH1 0x40 MLOAD DUP4 DUP2 DUP5 MLOAD PUSH2 0x18D8 DUP2 DUP4 DUP8 PUSH2 0x4C87 JUMP JUMPDEST DUP2 ADD PUSH1 0x5 DUP2 MSTORE SUB ADD SWAP1 KECCAK256 DUP5 PUSH1 0x0 MSTORE DUP4 MSTORE PUSH1 0xFF PUSH1 0x40 PUSH1 0x0 KECCAK256 SLOAD AND PUSH2 0x1955 JUMPI PUSH32 0x8F30CBE91E0CA2A9F89C7C4A38BAAA3FDD002BF05E8D40E1CA69945D06A4901 SWAP2 PUSH2 0x1930 DUP5 PUSH2 0xA4F SWAP4 PUSH1 0x40 MLOAD DUP1 SWAP4 DUP2 SWAP3 DUP7 MLOAD SWAP3 DUP4 SWAP2 PUSH2 0x4C87 JUMP JUMPDEST DUP2 ADD PUSH1 0x5 DUP2 MSTORE SUB ADD SWAP1 KECCAK256 DUP6 PUSH1 0x0 MSTORE DUP5 MSTORE PUSH1 0x40 PUSH1 0x0 KECCAK256 PUSH1 0x1 PUSH1 0xFF NOT DUP3 SLOAD AND OR SWAP1 SSTORE PUSH2 0x51A9 JUMP JUMPDEST PUSH1 0x40 MLOAD PUSH3 0x461BCD PUSH1 0xE5 SHL DUP2 MSTORE PUSH1 0x4 DUP2 ADD DUP5 SWAP1 MSTORE PUSH1 0xE PUSH1 0x24 DUP3 ADD MSTORE PUSH14 0x416C726561647920616374697665 PUSH1 0x90 SHL PUSH1 0x44 DUP3 ADD MSTORE PUSH1 0x64 SWAP1 REVERT JUMPDEST PUSH1 0x40 MLOAD PUSH3 0x461BCD PUSH1 0xE5 SHL DUP2 MSTORE PUSH1 0x4 DUP2 ADD DUP5 SWAP1 MSTORE PUSH1 0x13 PUSH1 0x24 DUP3 ADD MSTORE PUSH19 0x15D85CC81B995D995C8818481CDD589A9958DD PUSH1 0x6A SHL PUSH1 0x44 DUP3 ADD MSTORE PUSH1 0x64 SWAP1 REVERT JUMPDEST SWAP1 SWAP3 POP DUP2 DUP2 DUP2 RETURNDATASIZE DUP4 GT PUSH2 0x19EE JUMPI JUMPDEST PUSH2 0x19DE DUP2 DUP4 PUSH2 0x4BDF JUMP JUMPDEST DUP2 ADD SUB SLT PUSH2 0x815 JUMPI MLOAD SWAP2 DUP4 PUSH2 0x1885 JUMP JUMPDEST POP RETURNDATASIZE PUSH2 0x19D4 JUMP JUMPDEST PUSH2 0x1A0C SWAP2 POP DUP5 RETURNDATASIZE DUP7 GT PUSH2 0x870 JUMPI PUSH2 0x862 DUP2 DUP4 PUSH2 0x4BDF JUMP JUMPDEST DUP8 PUSH2 0x471 JUMP JUMPDEST PUSH2 0x1A29 SWAP2 POP DUP5 RETURNDATASIZE DUP7 GT PUSH2 0x870 JUMPI PUSH2 0x862 DUP2 DUP4 PUSH2 0x4BDF JUMP JUMPDEST DUP6 PUSH2 0x42F JUMP JUMPDEST CALLVALUE PUSH2 0x815 JUMPI PUSH2 0x1A3D CALLDATASIZE PUSH2 0x4F34 JUMP JUMPDEST SWAP1 PUSH1 0x0 MSTORE PUSH1 0x4 PUSH1 0x20 MSTORE PUSH1 0x40 PUSH1 0x0 KECCAK256 SWAP1 DUP2 SLOAD DUP2 LT ISZERO PUSH2 0x815 JUMPI PUSH2 0x178F PUSH2 0x1795 SWAP2 PUSH2 0x115E SWAP4 PUSH2 0x4CF9 JUMP JUMPDEST CALLVALUE PUSH2 0x815 JUMPI PUSH2 0x1A78 PUSH1 0x20 PUSH2 0xD84 CALLDATASIZE PUSH2 0x5002 JUMP JUMPDEST DUP2 ADD PUSH1 0x12 DUP2 MSTORE SUB ADD SWAP1 KECCAK256 SWAP1 PUSH1 0x0 MSTORE PUSH1 0x20 MSTORE PUSH1 0x40 PUSH1 0x0 KECCAK256 SWAP1 PUSH1 0x0 MSTORE PUSH1 0x20 MSTORE PUSH1 0x20 PUSH1 0x40 PUSH1 0x0 KECCAK256 SLOAD PUSH1 0x40 MLOAD SWAP1 DUP2 MSTORE RETURN JUMPDEST CALLVALUE PUSH2 0x815 JUMPI PUSH2 0x1AB3 CALLDATASIZE PUSH2 0x4F34 JUMP JUMPDEST SWAP1 PUSH1 0x0 MSTORE PUSH1 0x16 PUSH1 0x20 MSTORE PUSH1 0x40 PUSH1 0x0 KECCAK256 SWAP1 DUP2 SLOAD DUP2 LT ISZERO PUSH2 0x815 JUMPI PUSH2 0x178F PUSH2 0x1795 SWAP2 PUSH2 0x115E SWAP4 PUSH2 0x4CF9 JUMP JUMPDEST CALLVALUE PUSH2 0x815 JUMPI PUSH1 0x0 CALLDATASIZE PUSH1 0x3 NOT ADD SLT PUSH2 0x815 JUMPI PUSH1 0x20 PUSH1 0x17 SLOAD PUSH1 0x40 MLOAD SWAP1 DUP2 MSTORE RETURN JUMPDEST CALLVALUE PUSH2 0x815 JUMPI PUSH1 0x40 CALLDATASIZE PUSH1 0x3 NOT ADD SLT PUSH2 0x815 JUMPI PUSH1 0x4 CALLDATALOAD PUSH1 0x1 PUSH1 0x1 PUSH1 0x40 SHL SUB DUP2 GT PUSH2 0x815 JUMPI PUSH2 0x1B29 SWAP1 CALLDATASIZE SWAP1 PUSH1 0x4 ADD PUSH2 0x4C00 JUMP JUMPDEST PUSH1 0xFF PUSH2 0x1B33 PUSH2 0x4CAA JUMP JUMPDEST AND SWAP1 PUSH1 0x1 DUP3 LT ISZERO DUP1 PUSH2 0x1DA0 JUMPI JUMPDEST PUSH2 0x1B49 SWAP1 PUSH2 0x572B JUMP JUMPDEST PUSH1 0x0 SLOAD PUSH1 0x40 MLOAD PUSH3 0xB0C809 PUSH1 0xE0 SHL DUP2 MSTORE CALLER PUSH1 0x4 DUP3 ADD MSTORE SWAP3 PUSH1 0x20 SWAP3 SWAP2 DUP4 SWAP1 DUP6 SWAP1 PUSH1 0x24 SWAP1 DUP3 SWAP1 PUSH1 0x1 PUSH1 0x1 PUSH1 0xA0 SHL SUB AND GAS STATICCALL SWAP4 DUP5 ISZERO PUSH2 0x822 JUMPI PUSH1 0x0 SWAP5 PUSH2 0x1D71 JUMPI JUMPDEST POP PUSH2 0x1B92 DUP5 ISZERO ISZERO PUSH2 0x50E2 JUMP JUMPDEST PUSH1 0x40 MLOAD DUP3 MLOAD SWAP1 DUP5 DUP2 DUP2 DUP7 ADD SWAP4 PUSH2 0x1BA9 DUP2 DUP4 DUP8 PUSH2 0x4C87 JUMP JUMPDEST DUP2 ADD PUSH1 0xB DUP2 MSTORE SUB ADD SWAP1 KECCAK256 DUP6 PUSH1 0x0 MSTORE DUP5 MSTORE PUSH1 0xFF PUSH1 0x40 PUSH1 0x0 KECCAK256 SLOAD AND ISZERO PUSH2 0x1D2C JUMPI PUSH2 0x1C09 SWAP1 PUSH1 0x40 MLOAD DUP6 DUP2 DUP7 MLOAD PUSH2 0x1BDD DUP2 DUP4 DUP8 PUSH2 0x4C87 JUMP JUMPDEST DUP2 ADD PUSH1 0xC DUP2 MSTORE SUB ADD SWAP1 KECCAK256 DUP7 PUSH1 0x0 MSTORE DUP6 MSTORE PUSH2 0xA17 DUP6 PUSH1 0x40 PUSH1 0x0 KECCAK256 SLOAD SWAP3 PUSH1 0x40 MLOAD DUP1 SWAP4 DUP2 SWAP3 DUP10 MLOAD SWAP3 DUP4 SWAP2 PUSH2 0x4C87 JUMP JUMPDEST POP PUSH1 0xFF PUSH1 0x4 DUP3 ADD SLOAD AND ISZERO PUSH2 0x1CE7 JUMPI PUSH1 0x2 ADD SWAP2 PUSH1 0xFF DUP4 SLOAD AND SWAP3 PUSH2 0x1C2A DUP4 PUSH2 0x4CEF JUMP JUMPDEST PUSH2 0x1C33 DUP4 PUSH2 0x4CEF JUMP JUMPDEST PUSH2 0x1C3C DUP5 PUSH2 0x4CEF JUMP JUMPDEST DUP3 DUP5 EQ PUSH2 0x1CAD JUMPI SWAP2 PUSH2 0x1C88 PUSH32 0x334F52BDF9B484290889B34FB83AD64BFF4DD1B7028A24D048A3A85537B53FF9 SWAP5 SWAP3 PUSH2 0x1C7F DUP4 PUSH1 0x60 SWAP7 PUSH2 0x1C7A DUP3 PUSH2 0x4CEF JUMP JUMPDEST PUSH2 0x5172 JUMP JUMPDEST PUSH2 0x731 DUP4 PUSH2 0x4CEF JUMP JUMPDEST SWAP5 PUSH1 0x40 MLOAD SWAP3 PUSH2 0x1C96 DUP2 PUSH2 0x4CEF JUMP JUMPDEST DUP4 MSTORE PUSH2 0x1CA1 DUP3 PUSH2 0x4CEF JUMP JUMPDEST DUP3 ADD MSTORE TIMESTAMP PUSH1 0x40 DUP3 ADD MSTORE LOG3 STOP JUMPDEST PUSH1 0x40 MLOAD PUSH3 0x461BCD PUSH1 0xE5 SHL DUP2 MSTORE PUSH1 0x4 DUP2 ADD DUP7 SWAP1 MSTORE PUSH1 0x12 PUSH1 0x24 DUP3 ADD MSTORE PUSH18 0x105B1C9958591E481D1A1A5CC81B195D995B PUSH1 0x72 SHL PUSH1 0x44 DUP3 ADD MSTORE PUSH1 0x64 SWAP1 REVERT JUMPDEST PUSH1 0x40 MLOAD PUSH3 0x461BCD PUSH1 0xE5 SHL DUP2 MSTORE PUSH1 0x4 DUP2 ADD DUP6 SWAP1 MSTORE PUSH1 0x1F PUSH1 0x24 DUP3 ADD MSTORE PUSH32 0x566572696669636174696F6E20686173206265656E2072657472616374656400 PUSH1 0x44 DUP3 ADD MSTORE PUSH1 0x64 SWAP1 REVERT JUMPDEST PUSH1 0x40 MLOAD PUSH3 0x461BCD PUSH1 0xE5 SHL DUP2 MSTORE PUSH1 0x4 DUP2 ADD DUP6 SWAP1 MSTORE PUSH1 0x19 PUSH1 0x24 DUP3 ADD MSTORE PUSH32 0x4E6F20766572696669636174696F6E20746F206D6F6469667900000000000000 PUSH1 0x44 DUP3 ADD MSTORE PUSH1 0x64 SWAP1 REVERT JUMPDEST SWAP1 SWAP4 POP DUP3 DUP2 DUP2 RETURNDATASIZE DUP4 GT PUSH2 0x1D99 JUMPI JUMPDEST PUSH2 0x1D89 DUP2 DUP4 PUSH2 0x4BDF JUMP JUMPDEST DUP2 ADD SUB SLT PUSH2 0x815 JUMPI MLOAD SWAP3 DUP5 PUSH2 0x1B86 JUMP JUMPDEST POP RETURNDATASIZE PUSH2 0x1D7F JUMP JUMPDEST POP PUSH1 0x3 DUP3 GT ISZERO PUSH2 0x1B40 JUMP JUMPDEST CALLVALUE PUSH2 0x815 JUMPI PUSH1 0x20 CALLDATASIZE PUSH1 0x3 NOT ADD SLT PUSH2 0x815 JUMPI PUSH1 0x4 CALLDATALOAD PUSH1 0x1 PUSH1 0x1 PUSH1 0x40 SHL SUB DUP2 GT PUSH2 0x815 JUMPI PUSH1 0xFF PUSH2 0x1DF6 PUSH1 0x20 PUSH2 0x1DE3 DUP2 SWAP5 CALLDATASIZE SWAP1 PUSH1 0x4 ADD PUSH2 0x4C00 JUMP JUMPDEST DUP2 PUSH1 0x40 MLOAD SWAP4 DUP3 DUP6 DUP1 SWAP5 MLOAD SWAP4 DUP5 SWAP3 ADD PUSH2 0x4C87 JUMP JUMPDEST DUP2 ADD PUSH1 0x8 DUP2 MSTORE SUB ADD SWAP1 KECCAK256 SLOAD AND PUSH1 0x40 MLOAD SWAP1 ISZERO ISZERO DUP2 MSTORE RETURN JUMPDEST CALLVALUE PUSH2 0x815 JUMPI PUSH2 0x15B2 PUSH2 0x1E4E PUSH2 0x15BF PUSH2 0x1E2C PUSH2 0x1E26 CALLDATASIZE PUSH2 0x4C56 JUMP JUMPDEST SWAP1 PUSH2 0x583E JUMP JUMPDEST SWAP7 SWAP6 SWAP9 SWAP3 SWAP2 SWAP4 SWAP5 PUSH1 0x40 SWAP9 SWAP2 SWAP9 MLOAD SWAP11 DUP12 SWAP11 ISZERO ISZERO DUP12 MSTORE DUP1 PUSH1 0x20 DUP13 ADD MSTORE DUP11 ADD SWAP1 PUSH2 0x4CCA JUMP JUMPDEST SWAP4 PUSH2 0x1E58 DUP2 PUSH2 0x4CEF JUMP JUMPDEST PUSH1 0x40 DUP10 ADD MSTORE PUSH1 0x60 DUP9 ADD SWAP1 PUSH2 0x4F27 JUMP JUMPDEST CALLVALUE PUSH2 0x815 JUMPI PUSH1 0x20 PUSH2 0x1E7A PUSH2 0x1453 CALLDATASIZE PUSH2 0x4C56 JUMP JUMPDEST DUP2 ADD PUSH1 0xA DUP2 MSTORE SUB ADD SWAP1 KECCAK256 SWAP1 DUP2 SLOAD DUP2 LT ISZERO PUSH2 0x815 JUMPI PUSH2 0x1E97 SWAP2 PUSH2 0x4FE6 JUMP JUMPDEST POP DUP1 SLOAD PUSH2 0x1EA6 PUSH1 0x1 DUP4 ADD PUSH2 0x4D61 JUMP JUMPDEST SWAP2 PUSH1 0xFF PUSH1 0x2 DUP3 ADD SLOAD AND SWAP1 PUSH1 0xFF PUSH1 0x4 PUSH1 0x3 DUP4 ADD SLOAD SWAP3 ADD SLOAD AND SWAP1 PUSH2 0x1EDA PUSH1 0x40 MLOAD SWAP6 DUP7 SWAP6 DUP7 MSTORE PUSH1 0xA0 PUSH1 0x20 DUP8 ADD MSTORE PUSH1 0xA0 DUP7 ADD SWAP1 PUSH2 0x4CCA JUMP JUMPDEST SWAP3 PUSH2 0x1EE4 DUP2 PUSH2 0x4CEF JUMP JUMPDEST PUSH1 0x40 DUP6 ADD MSTORE PUSH1 0x60 DUP5 ADD MSTORE ISZERO ISZERO PUSH1 0x80 DUP4 ADD MSTORE SUB SWAP1 RETURN JUMPDEST CALLVALUE PUSH2 0x815 JUMPI PUSH2 0x1F07 CALLDATASIZE PUSH2 0x4FA3 JUMP JUMPDEST PUSH1 0x0 SLOAD PUSH1 0x40 MLOAD PUSH4 0x45ECD02F PUSH1 0xE0 SHL DUP2 MSTORE CALLER PUSH1 0x4 DUP3 ADD MSTORE PUSH1 0x1 PUSH1 0x1 PUSH1 0xA0 SHL SUB SWAP1 SWAP2 AND SWAP3 PUSH1 0x20 SWAP3 SWAP2 DUP4 DUP2 PUSH1 0x24 DUP2 DUP9 GAS STATICCALL DUP1 ISZERO PUSH2 0x822 JUMPI PUSH2 0x1F4C SWAP2 PUSH1 0x0 SWAP2 PUSH2 0x22BB JUMPI POP PUSH2 0x5437 JUMP JUMPDEST PUSH1 0x40 MLOAD PUSH4 0x286B6AB PUSH1 0xE3 SHL DUP2 MSTORE SWAP4 DUP4 DUP6 DUP1 PUSH2 0x1F6B CALLER DUP7 PUSH1 0x4 DUP5 ADD PUSH2 0x547A JUMP JUMPDEST SUB DUP2 DUP5 GAS STATICCALL SWAP1 DUP2 ISZERO PUSH2 0x822 JUMPI PUSH2 0x1F8C DUP6 SWAP3 PUSH1 0x24 SWAP8 PUSH1 0x0 SWAP2 PUSH2 0x229E JUMPI POP PUSH2 0x54A2 JUMP JUMPDEST PUSH2 0x1F98 DUP4 MLOAD ISZERO ISZERO PUSH2 0x5693 JUMP JUMPDEST PUSH2 0x1FA4 DUP5 MLOAD ISZERO ISZERO PUSH2 0x56DF JUMP JUMPDEST PUSH1 0x40 MLOAD PUSH3 0xB0C809 PUSH1 0xE0 SHL DUP2 MSTORE CALLER PUSH1 0x4 DUP3 ADD MSTORE SWAP6 DUP7 SWAP2 DUP3 SWAP1 GAS STATICCALL SWAP4 DUP5 ISZERO PUSH2 0x822 JUMPI PUSH1 0x0 SWAP5 PUSH2 0x226F JUMPI JUMPDEST POP PUSH2 0x1FD8 DUP5 ISZERO ISZERO PUSH2 0x50E2 JUMP JUMPDEST PUSH1 0x40 MLOAD SWAP1 DUP1 MLOAD SWAP2 DUP5 DUP2 DUP2 DUP5 ADD SWAP5 PUSH2 0x1FF0 DUP2 DUP4 DUP9 PUSH2 0x4C87 JUMP JUMPDEST DUP2 ADD PUSH1 0x3 DUP2 MSTORE SUB ADD SWAP1 KECCAK256 DUP6 PUSH1 0x0 MSTORE DUP5 MSTORE PUSH1 0xFF PUSH1 0x40 PUSH1 0x0 KECCAK256 SLOAD AND PUSH2 0x221A JUMPI PUSH1 0x40 MLOAD DUP5 DUP2 DUP4 MLOAD PUSH2 0x201F DUP2 DUP4 DUP9 PUSH2 0x4C87 JUMP JUMPDEST DUP2 ADD PUSH1 0x2 DUP2 MSTORE SUB ADD SWAP1 KECCAK256 SLOAD ISZERO PUSH2 0x215C JUMPI JUMPDEST PUSH1 0x40 MLOAD DUP5 DUP2 DUP4 MLOAD PUSH2 0x2042 DUP2 DUP4 DUP9 PUSH2 0x4C87 JUMP JUMPDEST DUP2 ADD PUSH1 0x2 DUP2 MSTORE SUB ADD SWAP1 KECCAK256 SWAP1 DUP2 SLOAD SWAP1 PUSH1 0x1 PUSH1 0x40 SHL DUP3 LT ISZERO PUSH2 0x2146 JUMPI PUSH32 0x1CDC47600AA970E2D8C3BFA9885DAEFC5E052EA8A6A10471AB3DBBC77AD2138D SWAP4 PUSH2 0x2094 DUP4 PUSH2 0x213C SWAP6 PUSH1 0x1 PUSH2 0x2136 SWAP7 ADD DUP2 SSTORE PUSH2 0x4CF9 JUMP JUMPDEST DUP2 SLOAD SWAP1 PUSH1 0x3 SHL SWAP1 DUP11 DUP3 SHL SWAP2 PUSH1 0x0 NOT SWAP1 SHL NOT AND OR SWAP1 SSTORE PUSH1 0x40 MLOAD DUP8 DUP2 DUP5 MLOAD PUSH2 0x20BB DUP2 DUP4 DUP8 PUSH2 0x4C87 JUMP JUMPDEST DUP2 ADD PUSH1 0x3 DUP2 MSTORE SUB ADD SWAP1 KECCAK256 DUP9 PUSH1 0x0 MSTORE DUP8 MSTORE PUSH2 0x20F3 DUP8 PUSH1 0x40 PUSH1 0x0 KECCAK256 SWAP3 PUSH1 0xFF NOT SWAP4 PUSH1 0x1 DUP6 DUP3 SLOAD AND OR SWAP1 SSTORE PUSH1 0x40 MLOAD DUP1 SWAP4 DUP2 SWAP3 DUP8 MLOAD SWAP3 DUP4 SWAP2 PUSH2 0x4C87 JUMP JUMPDEST DUP2 ADD PUSH1 0x5 DUP2 MSTORE SUB ADD SWAP1 KECCAK256 DUP9 PUSH1 0x0 MSTORE DUP8 MSTORE PUSH1 0x1 PUSH1 0x40 PUSH1 0x0 KECCAK256 SWAP2 DUP3 SLOAD AND OR SWAP1 SSTORE PUSH1 0x4 DUP7 MSTORE PUSH2 0x2123 DUP2 PUSH1 0x40 PUSH1 0x0 KECCAK256 PUSH2 0x576B JUMP JUMPDEST PUSH2 0x212E PUSH1 0x9 SLOAD PUSH2 0x538E JUMP JUMPDEST PUSH1 0x9 SSTORE PUSH2 0x51A9 JUMP JUMPDEST SWAP3 PUSH2 0x51A9 JUMP JUMPDEST SWAP3 PUSH1 0x40 MLOAD TIMESTAMP DUP2 MSTORE LOG4 STOP JUMPDEST PUSH4 0x4E487B71 PUSH1 0xE0 SHL PUSH1 0x0 MSTORE PUSH1 0x41 PUSH1 0x4 MSTORE PUSH1 0x24 PUSH1 0x0 REVERT JUMPDEST PUSH1 0x40 MLOAD PUSH1 0xFF DUP5 MLOAD SWAP2 DUP7 DUP2 DUP2 DUP9 ADD SWAP5 PUSH2 0x2175 DUP2 DUP4 DUP9 PUSH2 0x4C87 JUMP JUMPDEST DUP2 ADD PUSH1 0x8 DUP2 MSTORE SUB ADD SWAP1 KECCAK256 SLOAD AND PUSH2 0x21E1 JUMPI DUP5 PUSH2 0x21C7 SWAP2 PUSH2 0x21A0 DUP5 PUSH1 0x40 MLOAD DUP5 DUP2 DUP11 MLOAD PUSH2 0xF33 DUP2 DUP4 DUP10 PUSH2 0x4C87 JUMP JUMPDEST PUSH2 0x21B6 DUP7 PUSH1 0x40 MLOAD DUP5 DUP2 DUP9 MLOAD PUSH2 0xF52 DUP2 DUP4 DUP14 PUSH2 0x4C87 JUMP JUMPDEST PUSH1 0x40 MLOAD DUP1 SWAP4 DUP2 SWAP3 DUP9 MLOAD SWAP3 DUP4 SWAP2 PUSH2 0x4C87 JUMP JUMPDEST DUP2 ADD PUSH1 0x8 DUP2 MSTORE SUB ADD SWAP1 KECCAK256 PUSH1 0x1 PUSH1 0xFF NOT DUP3 SLOAD AND OR SWAP1 SSTORE PUSH2 0x2030 JUMP JUMPDEST PUSH1 0x40 MLOAD PUSH3 0x461BCD PUSH1 0xE5 SHL DUP2 MSTORE PUSH1 0x4 DUP2 ADD DUP7 SWAP1 MSTORE PUSH1 0x11 PUSH1 0x24 DUP3 ADD MSTORE PUSH17 0x12185CDA08185B1C9958591E481D5CD959 PUSH1 0x7A SHL PUSH1 0x44 DUP3 ADD MSTORE PUSH1 0x64 SWAP1 REVERT JUMPDEST PUSH1 0x40 MLOAD PUSH3 0x461BCD PUSH1 0xE5 SHL DUP2 MSTORE PUSH1 0x4 DUP2 ADD DUP6 SWAP1 MSTORE PUSH1 0x27 PUSH1 0x24 DUP3 ADD MSTORE PUSH32 0x5265636F726420616C726561647920616E63686F72656420746F207468697320 PUSH1 0x44 DUP3 ADD MSTORE PUSH7 0x1CDD589A9958DD PUSH1 0xCA SHL PUSH1 0x64 DUP3 ADD MSTORE PUSH1 0x84 SWAP1 REVERT JUMPDEST SWAP1 SWAP4 POP DUP3 DUP2 DUP2 RETURNDATASIZE DUP4 GT PUSH2 0x2297 JUMPI JUMPDEST PUSH2 0x2287 DUP2 DUP4 PUSH2 0x4BDF JUMP JUMPDEST DUP2 ADD SUB SLT PUSH2 0x815 JUMPI MLOAD SWAP3 DUP5 PUSH2 0x1FCC JUMP JUMPDEST POP RETURNDATASIZE PUSH2 0x227D JUMP JUMPDEST PUSH2 0x22B5 SWAP2 POP DUP5 RETURNDATASIZE DUP7 GT PUSH2 0x870 JUMPI PUSH2 0x862 DUP2 DUP4 PUSH2 0x4BDF JUMP JUMPDEST DUP9 PUSH2 0x471 JUMP JUMPDEST PUSH2 0x22D2 SWAP2 POP DUP6 RETURNDATASIZE DUP8 GT PUSH2 0x870 JUMPI PUSH2 0x862 DUP2 DUP4 PUSH2 0x4BDF JUMP JUMPDEST DUP7 PUSH2 0x42F JUMP JUMPDEST CALLVALUE PUSH2 0x815 JUMPI PUSH1 0x20 DUP1 PUSH1 0x3 NOT CALLDATASIZE ADD SLT PUSH2 0x815 JUMPI PUSH1 0x4 CALLDATALOAD PUSH1 0x1 PUSH1 0x1 PUSH1 0x40 SHL SUB DUP2 GT PUSH2 0x815 JUMPI PUSH2 0x2309 SWAP1 CALLDATASIZE SWAP1 PUSH1 0x4 ADD PUSH2 0x4C00 JUMP JUMPDEST SWAP1 PUSH1 0x0 SWAP2 PUSH1 0x0 DUP1 PUSH2 0x232A DUP5 PUSH1 0x0 SWAP5 DUP2 PUSH1 0x40 MLOAD SWAP4 DUP3 DUP6 DUP1 SWAP5 MLOAD SWAP4 DUP5 SWAP3 ADD PUSH2 0x4C87 JUMP JUMPDEST DUP2 ADD PUSH1 0xA DUP2 MSTORE SUB ADD SWAP1 KECCAK256 DUP1 SLOAD SWAP1 PUSH2 0x2340 DUP3 PUSH2 0x5328 JUMP JUMPDEST SWAP6 PUSH2 0x234E PUSH1 0x40 MLOAD SWAP8 DUP9 PUSH2 0x4BDF JUMP JUMPDEST DUP3 DUP8 MSTORE PUSH1 0x0 SWAP2 DUP3 MSTORE DUP1 DUP3 KECCAK256 DUP2 DUP9 ADD JUMPDEST DUP5 DUP5 LT PUSH2 0x2487 JUMPI POP POP POP POP POP DUP4 MLOAD SWAP4 PUSH1 0x0 JUMPDEST DUP2 MLOAD DUP2 LT ISZERO PUSH2 0x245D JUMPI PUSH1 0x80 PUSH2 0x2384 DUP3 DUP5 PUSH2 0x537A JUMP JUMPDEST MLOAD ADD MLOAD PUSH2 0x2394 JUMPI JUMPDEST PUSH1 0x1 ADD PUSH2 0x236F JUMP JUMPDEST SWAP3 SWAP6 PUSH2 0x239F SWAP1 PUSH2 0x538E JUMP JUMPDEST SWAP6 PUSH1 0x1 PUSH1 0x40 PUSH2 0x23AE DUP7 DUP6 PUSH2 0x537A JUMP JUMPDEST MLOAD ADD MLOAD PUSH2 0x23BA DUP2 PUSH2 0x4CEF JUMP JUMPDEST PUSH2 0x23C3 DUP2 PUSH2 0x4CEF JUMP JUMPDEST SUB PUSH2 0x23DC JUMPI PUSH2 0x23D3 PUSH1 0x1 SWAP2 PUSH2 0x538E JUMP JUMPDEST SWAP4 JUMPDEST SWAP1 POP PUSH2 0x238C JUMP JUMPDEST SWAP3 SWAP2 PUSH1 0x2 PUSH1 0x40 PUSH2 0x23EC DUP6 DUP6 PUSH2 0x537A JUMP JUMPDEST MLOAD ADD MLOAD PUSH2 0x23F8 DUP2 PUSH2 0x4CEF JUMP JUMPDEST PUSH2 0x2401 DUP2 PUSH2 0x4CEF JUMP JUMPDEST SUB PUSH2 0x2417 JUMPI PUSH2 0x2411 PUSH1 0x1 SWAP2 PUSH2 0x538E JUMP JUMPDEST SWAP3 PUSH2 0x23D5 JUMP JUMPDEST SWAP2 PUSH1 0x3 PUSH1 0x40 PUSH2 0x2426 DUP4 DUP6 PUSH2 0x537A JUMP JUMPDEST MLOAD ADD MLOAD PUSH2 0x2432 DUP2 PUSH2 0x4CEF JUMP JUMPDEST PUSH2 0x243B DUP2 PUSH2 0x4CEF JUMP JUMPDEST EQ PUSH2 0x2449 JUMPI JUMPDEST PUSH1 0x1 SWAP1 PUSH2 0x23D5 JUMP JUMPDEST SWAP4 PUSH2 0x2455 PUSH1 0x1 SWAP2 PUSH2 0x538E JUMP JUMPDEST SWAP5 SWAP1 POP PUSH2 0x2441 JUMP JUMPDEST POP POP PUSH1 0x40 DUP1 MLOAD SWAP5 DUP6 MSTORE PUSH1 0x20 DUP6 ADD SWAP6 SWAP1 SWAP6 MSTORE SWAP4 DUP4 ADD MSTORE PUSH1 0x60 DUP3 ADD SWAP3 SWAP1 SWAP3 MSTORE PUSH1 0x80 DUP2 ADD SWAP2 SWAP1 SWAP2 MSTORE PUSH1 0xA0 SWAP1 RETURN JUMPDEST PUSH1 0x5 DUP4 PUSH1 0x1 SWAP3 PUSH2 0x2496 DUP6 PUSH2 0x51C9 JUMP JUMPDEST DUP2 MSTORE ADD SWAP3 ADD SWAP4 ADD SWAP3 SWAP1 PUSH2 0x235D JUMP JUMPDEST CALLVALUE PUSH2 0x815 JUMPI PUSH1 0x20 CALLDATASIZE PUSH1 0x3 NOT ADD SLT PUSH2 0x815 JUMPI PUSH1 0x4 CALLDATALOAD PUSH1 0x1 PUSH1 0x1 PUSH1 0xA0 SHL SUB DUP2 DUP2 AND SWAP2 DUP3 SWAP1 SUB PUSH2 0x815 JUMPI DUP2 PUSH1 0x1 SLOAD SWAP2 DUP3 AND PUSH2 0x24DD DUP2 CALLER EQ PUSH2 0x54EE JUMP JUMPDEST PUSH2 0x24E8 DUP3 ISZERO ISZERO PUSH2 0x5800 JUMP JUMPDEST PUSH32 0x38DF5FA0F7FEF0D515CA1F5388CB5790AC5885D5FCA8D05D9F943E563C33A4B3 PUSH1 0x20 PUSH1 0x40 MLOAD TIMESTAMP DUP2 MSTORE LOG3 PUSH1 0x1 PUSH1 0x1 PUSH1 0xA0 SHL SUB NOT AND OR PUSH1 0x1 SSTORE STOP JUMPDEST CALLVALUE PUSH2 0x815 JUMPI PUSH1 0x20 DUP1 PUSH1 0x3 NOT CALLDATASIZE ADD SLT PUSH2 0x815 JUMPI PUSH1 0x4 CALLDATALOAD PUSH1 0x1 PUSH1 0x1 PUSH1 0x40 SHL SUB DUP2 GT PUSH2 0x815 JUMPI PUSH2 0x2553 SWAP1 CALLDATASIZE SWAP1 PUSH1 0x4 ADD PUSH2 0x4C00 JUMP JUMPDEST PUSH1 0x0 PUSH1 0x40 MLOAD DUP3 MLOAD SWAP1 DUP5 DUP2 DUP2 DUP7 ADD SWAP4 PUSH2 0x256C DUP2 DUP4 DUP8 PUSH2 0x4C87 JUMP JUMPDEST DUP2 ADD PUSH1 0x2 DUP2 MSTORE SUB ADD SWAP1 KECCAK256 SWAP1 PUSH1 0x40 MLOAD DUP1 DUP4 DUP8 DUP3 SWAP6 SLOAD SWAP4 DUP5 DUP2 MSTORE ADD SWAP1 PUSH1 0x0 MSTORE DUP8 PUSH1 0x0 KECCAK256 SWAP3 PUSH1 0x0 JUMPDEST DUP10 DUP3 DUP3 LT PUSH2 0x261C JUMPI POP POP POP PUSH2 0x25A8 SWAP3 POP SUB DUP4 PUSH2 0x4BDF JUMP JUMPDEST DUP2 MLOAD SWAP4 PUSH1 0x0 JUMPDEST DUP4 MLOAD DUP2 LT ISZERO PUSH2 0x260D JUMPI PUSH1 0x40 MLOAD DUP8 DUP2 DUP5 MLOAD PUSH2 0x25C9 DUP2 DUP4 DUP10 PUSH2 0x4C87 JUMP JUMPDEST DUP2 ADD PUSH1 0x5 DUP2 MSTORE SUB ADD SWAP1 KECCAK256 PUSH2 0x25DD DUP3 DUP7 PUSH2 0x537A JUMP JUMPDEST MLOAD PUSH1 0x0 MSTORE DUP8 MSTORE PUSH1 0xFF PUSH1 0x40 PUSH1 0x0 KECCAK256 SLOAD AND PUSH2 0x25F9 JUMPI JUMPDEST PUSH1 0x1 ADD PUSH2 0x25AE JUMP JUMPDEST SWAP4 PUSH2 0x2605 PUSH1 0x1 SWAP2 PUSH2 0x538E JUMP JUMPDEST SWAP5 SWAP1 POP PUSH2 0x25F1 JUMP JUMPDEST PUSH1 0x40 DUP7 DUP7 DUP10 DUP4 MLOAD SWAP3 DUP4 MSTORE DUP3 ADD MSTORE RETURN JUMPDEST DUP6 SLOAD DUP5 MSTORE PUSH1 0x1 SWAP6 DUP7 ADD SWAP6 DUP9 SWAP6 POP SWAP4 ADD SWAP3 ADD PUSH2 0x2591 JUMP JUMPDEST CALLVALUE PUSH2 0x815 JUMPI PUSH2 0x2678 PUSH2 0x2672 PUSH2 0x2646 CALLDATASIZE PUSH2 0x4F34 JUMP JUMPDEST SWAP1 DUP1 PUSH1 0x0 MSTORE PUSH1 0x13 PUSH1 0x20 MSTORE PUSH2 0x2660 PUSH1 0x40 PUSH1 0x0 KECCAK256 SLOAD DUP4 LT PUSH2 0x5651 JUMP JUMPDEST PUSH1 0x0 MSTORE PUSH1 0x13 PUSH1 0x20 MSTORE PUSH1 0x40 PUSH1 0x0 KECCAK256 PUSH2 0x5037 JUMP JUMPDEST POP PUSH2 0x5798 JUMP JUMPDEST DUP1 MLOAD PUSH1 0x20 DUP3 ADD MLOAD SWAP2 PUSH1 0x40 DUP2 ADD MLOAD PUSH1 0x60 DUP3 ADD MLOAD SWAP2 PUSH1 0x5 DUP4 LT ISZERO PUSH2 0x26B1 JUMPI PUSH2 0x115E SWAP3 PUSH1 0xA0 PUSH1 0x80 DUP4 ADD MLOAD SWAP3 ADD MLOAD ISZERO ISZERO SWAP3 PUSH1 0x40 MLOAD SWAP7 DUP8 SWAP7 DUP8 PUSH2 0x4F57 JUMP JUMPDEST PUSH4 0x4E487B71 PUSH1 0xE0 SHL PUSH1 0x0 MSTORE PUSH1 0x21 PUSH1 0x4 MSTORE PUSH1 0x24 PUSH1 0x0 REVERT JUMPDEST CALLVALUE PUSH2 0x815 JUMPI PUSH1 0x20 DUP1 PUSH1 0x3 NOT CALLDATASIZE ADD SLT PUSH2 0x815 JUMPI PUSH1 0x4 CALLDATALOAD PUSH1 0x1 PUSH1 0x1 PUSH1 0x40 SHL SUB DUP2 GT PUSH2 0x815 JUMPI DUP2 PUSH2 0x1DE3 PUSH2 0x26FC SWAP3 CALLDATASIZE SWAP1 PUSH1 0x4 ADD PUSH2 0x4C00 JUMP JUMPDEST DUP2 ADD PUSH1 0xD DUP2 MSTORE SUB ADD SWAP1 KECCAK256 DUP1 SLOAD SWAP2 PUSH2 0x2712 DUP4 PUSH2 0x5328 JUMP JUMPDEST SWAP3 PUSH2 0x2720 PUSH1 0x40 MLOAD SWAP5 DUP6 PUSH2 0x4BDF JUMP JUMPDEST DUP1 DUP5 MSTORE DUP2 DUP5 ADD DUP1 SWAP4 PUSH1 0x0 MSTORE DUP3 PUSH1 0x0 KECCAK256 PUSH1 0x0 SWAP2 JUMPDEST DUP4 DUP4 LT PUSH2 0x27FF JUMPI POP POP POP POP PUSH1 0x40 MLOAD SWAP3 DUP2 DUP5 ADD SWAP1 DUP3 DUP6 MSTORE MLOAD DUP1 SWAP2 MSTORE PUSH1 0x40 DUP5 ADD SWAP2 PUSH1 0x40 DUP3 PUSH1 0x5 SHL DUP7 ADD ADD SWAP4 SWAP3 PUSH1 0x0 SWAP7 JUMPDEST DUP4 DUP9 LT PUSH2 0x276E JUMPI DUP7 DUP7 SUB DUP8 RETURN JUMPDEST SWAP1 SWAP2 SWAP3 SWAP4 SWAP5 DUP4 DUP1 PUSH1 0x1 SWAP3 PUSH1 0x3F NOT DUP11 DUP3 SUB ADD DUP7 MSTORE DUP9 MLOAD SWAP1 DUP2 MLOAD DUP2 MSTORE PUSH2 0x27D8 PUSH2 0x27A0 DUP5 DUP5 ADD MLOAD DUP9 DUP7 DUP6 ADD MSTORE DUP9 DUP5 ADD SWAP1 PUSH2 0x4CCA JUMP JUMPDEST PUSH1 0x40 DUP5 ADD MLOAD PUSH2 0x27AE DUP2 PUSH2 0x4CEF JUMP JUMPDEST PUSH1 0x40 DUP5 ADD MSTORE PUSH2 0x27C5 PUSH1 0x60 DUP1 DUP7 ADD MLOAD SWAP1 DUP6 ADD SWAP1 PUSH2 0x4F27 JUMP JUMPDEST PUSH1 0x80 DUP1 DUP6 ADD MLOAD SWAP1 DUP5 DUP4 SUB SWAP1 DUP6 ADD MSTORE PUSH2 0x4CCA JUMP JUMPDEST SWAP2 PUSH1 0xA0 DUP1 DUP3 ADD MLOAD SWAP1 DUP4 ADD MSTORE PUSH1 0xC0 DUP1 SWAP2 ADD MLOAD ISZERO ISZERO SWAP2 ADD MSTORE SWAP8 ADD SWAP4 ADD SWAP8 ADD SWAP7 SWAP1 SWAP4 SWAP3 SWAP2 SWAP4 PUSH2 0x2761 JUMP JUMPDEST PUSH1 0x6 DUP6 PUSH1 0x1 SWAP3 PUSH2 0x2811 DUP6 SWAP11 SWAP9 SWAP11 PUSH2 0x53A9 JUMP JUMPDEST DUP2 MSTORE ADD SWAP3 ADD SWAP3 ADD SWAP2 SWAP1 SWAP6 SWAP4 SWAP6 PUSH2 0x2733 JUMP JUMPDEST CALLVALUE PUSH2 0x815 JUMPI PUSH1 0x20 DUP1 PUSH1 0x3 NOT CALLDATASIZE ADD SLT PUSH2 0x815 JUMPI PUSH1 0x4 CALLDATALOAD PUSH1 0x1 PUSH1 0x1 PUSH1 0x40 SHL SUB DUP2 GT PUSH2 0x815 JUMPI PUSH2 0x2853 SWAP1 CALLDATASIZE SWAP1 PUSH1 0x4 ADD PUSH2 0x4C00 JUMP JUMPDEST SWAP1 PUSH2 0x286E DUP2 PUSH1 0x0 SWAP4 DUP2 PUSH1 0x40 MLOAD SWAP4 DUP3 DUP6 DUP1 SWAP5 MLOAD SWAP4 DUP5 SWAP3 ADD PUSH2 0x4C87 JUMP JUMPDEST DUP2 ADD PUSH1 0xD DUP2 MSTORE SUB ADD SWAP1 KECCAK256 SWAP2 DUP3 SLOAD PUSH2 0x2884 DUP2 PUSH2 0x5328 JUMP JUMPDEST SWAP4 PUSH2 0x2892 PUSH1 0x40 MLOAD SWAP6 DUP7 PUSH2 0x4BDF JUMP JUMPDEST DUP2 DUP6 MSTORE PUSH1 0x0 SWAP1 DUP2 MSTORE DUP4 DUP2 KECCAK256 DUP5 DUP1 DUP8 ADD JUMPDEST DUP5 DUP5 LT PUSH2 0x28F9 JUMPI DUP8 DUP3 DUP8 DUP3 MLOAD PUSH1 0x0 JUMPDEST DUP5 MLOAD DUP2 LT ISZERO PUSH2 0x28EA JUMPI PUSH1 0xC0 PUSH2 0x28C6 DUP3 DUP8 PUSH2 0x537A JUMP JUMPDEST MLOAD ADD MLOAD PUSH2 0x28D6 JUMPI JUMPDEST PUSH1 0x1 ADD PUSH2 0x28B1 JUMP JUMPDEST SWAP2 PUSH2 0x28E2 PUSH1 0x1 SWAP2 PUSH2 0x538E JUMP JUMPDEST SWAP3 SWAP1 POP PUSH2 0x28CE JUMP JUMPDEST POP SWAP1 PUSH1 0x40 SWAP3 DUP4 MLOAD SWAP3 DUP4 MSTORE DUP3 ADD MSTORE RETURN JUMPDEST PUSH1 0x1 SWAP2 PUSH1 0x6 SWAP2 PUSH2 0x2908 DUP6 PUSH2 0x53A9 JUMP JUMPDEST DUP2 MSTORE ADD SWAP3 ADD SWAP3 ADD SWAP2 SWAP1 DUP6 SWAP1 PUSH2 0x28A2 JUMP JUMPDEST CALLVALUE PUSH2 0x815 JUMPI PUSH1 0x20 CALLDATASIZE PUSH1 0x3 NOT ADD SLT PUSH2 0x815 JUMPI PUSH1 0x4 CALLDATALOAD PUSH1 0x0 MSTORE PUSH1 0x14 PUSH1 0x20 MSTORE PUSH1 0x20 PUSH1 0x40 PUSH1 0x0 KECCAK256 SLOAD ISZERO ISZERO PUSH1 0x40 MLOAD SWAP1 DUP2 MSTORE RETURN JUMPDEST CALLVALUE PUSH2 0x815 JUMPI PUSH1 0x20 PUSH2 0x2959 PUSH2 0x1453 CALLDATASIZE PUSH2 0x4C56 JUMP JUMPDEST DUP2 ADD PUSH1 0xC DUP2 MSTORE SUB ADD SWAP1 KECCAK256 SWAP1 PUSH1 0x0 MSTORE PUSH1 0x20 MSTORE PUSH1 0x20 PUSH1 0x40 PUSH1 0x0 KECCAK256 SLOAD PUSH1 0x40 MLOAD SWAP1 DUP2 MSTORE RETURN JUMPDEST CALLVALUE PUSH2 0x815 JUMPI PUSH2 0x2988 CALLDATASIZE PUSH2 0x4EE9 JUMP JUMPDEST PUSH1 0x0 SLOAD PUSH1 0x40 MLOAD PUSH3 0xB0C809 PUSH1 0xE0 SHL DUP2 MSTORE CALLER PUSH1 0x4 DUP3 ADD MSTORE SWAP3 SWAP4 PUSH1 0x20 SWAP3 SWAP1 SWAP2 DUP4 SWAP1 DUP6 SWAP1 PUSH1 0x24 SWAP1 DUP3 SWAP1 PUSH1 0x1 PUSH1 0x1 PUSH1 0xA0 SHL SUB AND GAS STATICCALL SWAP4 DUP5 ISZERO PUSH2 0x822 JUMPI PUSH1 0x0 SWAP5 PUSH2 0x2BBC JUMPI JUMPDEST POP PUSH2 0x29D3 DUP5 ISZERO ISZERO PUSH2 0x50E2 JUMP JUMPDEST PUSH1 0x40 MLOAD DUP3 MLOAD SWAP1 DUP5 DUP2 DUP2 DUP7 ADD SWAP4 PUSH2 0x29EA DUP2 DUP4 DUP8 PUSH2 0x4C87 JUMP JUMPDEST DUP2 ADD PUSH1 0x11 DUP2 MSTORE SUB ADD SWAP1 KECCAK256 DUP7 PUSH1 0x0 MSTORE DUP5 MSTORE PUSH1 0x40 PUSH1 0x0 KECCAK256 DUP6 PUSH1 0x0 MSTORE DUP5 MSTORE PUSH1 0xFF PUSH1 0x40 PUSH1 0x0 KECCAK256 SLOAD AND ISZERO PUSH2 0x2B7F JUMPI PUSH2 0x2A7A SWAP1 PUSH1 0x40 MLOAD DUP6 DUP2 DUP7 MLOAD PUSH2 0x2A29 DUP2 DUP4 DUP8 PUSH2 0x4C87 JUMP JUMPDEST DUP2 ADD PUSH1 0x12 DUP2 MSTORE SUB ADD SWAP1 KECCAK256 DUP8 PUSH1 0x0 MSTORE DUP6 MSTORE PUSH1 0x40 PUSH1 0x0 KECCAK256 DUP7 PUSH1 0x0 MSTORE DUP6 MSTORE PUSH2 0x2A60 DUP6 PUSH1 0x40 PUSH1 0x0 KECCAK256 SLOAD SWAP3 PUSH1 0x40 MLOAD DUP1 SWAP4 DUP2 SWAP3 DUP10 MLOAD SWAP3 DUP4 SWAP2 PUSH2 0x4C87 JUMP JUMPDEST DUP2 ADD PUSH1 0x10 DUP2 MSTORE SUB ADD SWAP1 KECCAK256 DUP8 PUSH1 0x0 MSTORE DUP6 MSTORE PUSH1 0x40 PUSH1 0x0 KECCAK256 PUSH2 0x4E69 JUMP JUMPDEST POP SWAP2 PUSH1 0xFF PUSH1 0x3 DUP5 ADD SLOAD AND ISZERO PUSH2 0x2B3A JUMPI PUSH1 0x1 DUP4 ADD SWAP3 PUSH1 0xFF DUP5 SLOAD AND SWAP3 DUP1 ISZERO ISZERO SWAP4 ISZERO ISZERO SWAP5 DUP5 DUP7 EQ PUSH2 0x2B00 JUMPI SWAP3 PUSH1 0x60 SWAP5 SWAP3 PUSH2 0x2AE2 PUSH2 0x2AED SWAP4 PUSH32 0x83316B3299EA5A7386901A45E5D604103B0C75A2D3FF829A25E4A6D645C6B7F3 SWAP9 SWAP7 SWAP1 PUSH1 0xFF DUP1 NOT DUP4 SLOAD AND SWAP2 ISZERO ISZERO AND OR SWAP1 SSTORE JUMP JUMPDEST PUSH1 0x2 TIMESTAMP SWAP2 ADD SSTORE PUSH2 0x51A9 JUMP JUMPDEST SWAP5 PUSH1 0x40 MLOAD SWAP3 DUP4 MSTORE DUP3 ADD MSTORE TIMESTAMP PUSH1 0x40 DUP3 ADD MSTORE LOG4 STOP JUMPDEST PUSH1 0x40 MLOAD PUSH3 0x461BCD PUSH1 0xE5 SHL DUP2 MSTORE PUSH1 0x4 DUP2 ADD DUP9 SWAP1 MSTORE PUSH1 0x12 PUSH1 0x24 DUP3 ADD MSTORE PUSH18 0x416C726561647920746869732076616C7565 PUSH1 0x70 SHL PUSH1 0x44 DUP3 ADD MSTORE PUSH1 0x64 SWAP1 REVERT JUMPDEST PUSH1 0x40 MLOAD PUSH3 0x461BCD PUSH1 0xE5 SHL DUP2 MSTORE PUSH1 0x4 DUP2 ADD DUP6 SWAP1 MSTORE PUSH1 0x1B PUSH1 0x24 DUP3 ADD MSTORE PUSH32 0x5265616374696F6E20686173206265656E207265747261637465640000000000 PUSH1 0x44 DUP3 ADD MSTORE PUSH1 0x64 SWAP1 REVERT JUMPDEST PUSH1 0x40 MLOAD PUSH3 0x461BCD PUSH1 0xE5 SHL DUP2 MSTORE PUSH1 0x4 DUP2 ADD DUP6 SWAP1 MSTORE PUSH1 0x15 PUSH1 0x24 DUP3 ADD MSTORE PUSH21 0x4E6F207265616374696F6E20746F206D6F64696679 PUSH1 0x58 SHL PUSH1 0x44 DUP3 ADD MSTORE PUSH1 0x64 SWAP1 REVERT JUMPDEST SWAP1 SWAP4 POP DUP3 DUP2 DUP2 RETURNDATASIZE DUP4 GT PUSH2 0x2BE4 JUMPI JUMPDEST PUSH2 0x2BD4 DUP2 DUP4 PUSH2 0x4BDF JUMP JUMPDEST DUP2 ADD SUB SLT PUSH2 0x815 JUMPI MLOAD SWAP3 DUP6 PUSH2 0x29C7 JUMP JUMPDEST POP RETURNDATASIZE PUSH2 0x2BCA JUMP JUMPDEST CALLVALUE PUSH2 0x815 JUMPI PUSH2 0x2BF9 CALLDATASIZE PUSH2 0x4EE9 JUMP JUMPDEST PUSH1 0x0 SLOAD PUSH1 0x40 MLOAD PUSH4 0x45ECD02F PUSH1 0xE0 SHL DUP2 MSTORE CALLER PUSH1 0x4 DUP3 ADD MSTORE SWAP3 SWAP4 PUSH1 0x24 SWAP4 PUSH1 0x20 SWAP4 SWAP3 PUSH1 0x1 PUSH1 0x1 PUSH1 0xA0 SHL SUB AND SWAP1 DUP5 DUP2 DUP8 DUP2 DUP6 GAS STATICCALL DUP1 ISZERO PUSH2 0x822 JUMPI PUSH2 0x2C40 SWAP2 PUSH1 0x0 SWAP2 PUSH2 0x3072 JUMPI POP PUSH2 0x5437 JUMP JUMPDEST PUSH1 0x40 MLOAD SWAP1 DUP3 MLOAD SWAP2 DUP6 DUP2 DUP2 DUP7 ADD SWAP5 PUSH2 0x2C58 DUP2 DUP4 DUP9 PUSH2 0x4C87 JUMP JUMPDEST DUP2 ADD PUSH1 0xE DUP2 MSTORE SUB ADD SWAP1 KECCAK256 DUP8 PUSH1 0x0 MSTORE DUP6 MSTORE PUSH1 0xFF PUSH1 0x40 PUSH1 0x0 KECCAK256 SLOAD AND ISZERO PUSH2 0x302E JUMPI SWAP1 PUSH2 0x2CF7 SWAP2 PUSH1 0x40 MLOAD DUP7 DUP2 DUP7 MLOAD PUSH2 0x2C8D DUP2 DUP4 DUP9 PUSH2 0x4C87 JUMP JUMPDEST DUP2 ADD PUSH1 0xF DUP2 MSTORE SUB ADD SWAP1 KECCAK256 DUP9 PUSH1 0x0 MSTORE DUP7 MSTORE PUSH1 0x40 PUSH1 0x0 KECCAK256 SLOAD SWAP1 DUP7 PUSH2 0x2CDB PUSH1 0x1 PUSH2 0x2CD4 DUP6 PUSH2 0x2CC5 DUP6 DUP10 DUP13 PUSH1 0x40 MLOAD SWAP4 DUP5 SWAP3 DUP4 SWAP3 MLOAD SWAP3 DUP4 SWAP2 PUSH2 0x4C87 JUMP JUMPDEST DUP2 ADD PUSH1 0xD DUP2 MSTORE SUB ADD SWAP1 KECCAK256 PUSH2 0x5037 JUMP JUMPDEST POP ADD PUSH2 0x4D61 JUMP JUMPDEST PUSH1 0x40 MLOAD DUP1 SWAP7 DUP2 SWAP3 PUSH4 0x286B6AB PUSH1 0xE3 SHL DUP4 MSTORE CALLER SWAP1 PUSH1 0x4 DUP5 ADD PUSH2 0x547A JUMP JUMPDEST SUB DUP2 DUP5 GAS STATICCALL SWAP1 DUP2 ISZERO PUSH2 0x822 JUMPI PUSH2 0x2D17 DUP9 SWAP3 DUP11 SWAP7 PUSH1 0x0 SWAP2 PUSH2 0x3011 JUMPI POP PUSH2 0x54A2 JUMP JUMPDEST PUSH1 0x40 MLOAD PUSH3 0xB0C809 PUSH1 0xE0 SHL DUP2 MSTORE CALLER PUSH1 0x4 DUP3 ADD MSTORE SWAP9 DUP10 SWAP2 DUP3 SWAP1 GAS STATICCALL SWAP7 DUP8 ISZERO PUSH2 0x822 JUMPI PUSH1 0x0 SWAP8 PUSH2 0x2FE2 JUMPI JUMPDEST POP PUSH2 0x2D4B DUP8 ISZERO ISZERO PUSH2 0x50E2 JUMP JUMPDEST DUP8 DUP8 EQ PUSH2 0x2FA0 JUMPI PUSH1 0x40 MLOAD DUP7 DUP2 DUP7 MLOAD PUSH2 0x2D64 DUP2 DUP4 DUP9 PUSH2 0x4C87 JUMP JUMPDEST DUP2 ADD PUSH1 0x11 DUP2 MSTORE SUB ADD SWAP1 KECCAK256 DUP9 PUSH1 0x0 MSTORE DUP7 MSTORE PUSH1 0x40 PUSH1 0x0 KECCAK256 DUP8 PUSH1 0x0 MSTORE DUP7 MSTORE PUSH1 0xFF PUSH1 0x40 PUSH1 0x0 KECCAK256 SLOAD AND PUSH2 0x2F6A JUMPI PUSH1 0xFF PUSH1 0x5 PUSH2 0x2DA9 PUSH2 0x2DB2 SWAP4 PUSH1 0x40 MLOAD DUP11 DUP2 DUP11 MLOAD PUSH2 0x2CC5 DUP2 DUP4 DUP13 PUSH2 0x4C87 JUMP JUMPDEST POP ADD SLOAD AND PUSH2 0x5126 JUMP JUMPDEST PUSH1 0x40 MLOAD DUP6 DUP2 DUP6 MLOAD PUSH2 0x2DC4 DUP2 DUP4 DUP8 PUSH2 0x4C87 JUMP JUMPDEST DUP2 ADD PUSH1 0x10 DUP2 MSTORE SUB ADD SWAP1 KECCAK256 DUP8 PUSH1 0x0 MSTORE DUP6 MSTORE PUSH1 0x40 PUSH1 0x0 KECCAK256 SLOAD SWAP2 PUSH1 0x40 MLOAD DUP7 DUP2 DUP7 MLOAD PUSH2 0x2DED DUP2 DUP4 DUP9 PUSH2 0x4C87 JUMP JUMPDEST DUP2 ADD PUSH1 0x10 DUP2 MSTORE SUB ADD SWAP1 KECCAK256 DUP9 PUSH1 0x0 MSTORE DUP7 MSTORE PUSH1 0x40 PUSH1 0x0 KECCAK256 PUSH1 0x40 MLOAD PUSH2 0x2E0E DUP2 PUSH2 0x4B8E JUMP JUMPDEST DUP9 DUP2 MSTORE DUP8 DUP2 ADD SWAP7 ISZERO ISZERO SWAP7 DUP8 DUP2 MSTORE PUSH1 0x40 DUP3 ADD SWAP2 TIMESTAMP DUP4 MSTORE PUSH1 0x60 DUP2 ADD SWAP4 PUSH1 0x1 DUP6 MSTORE DUP1 SLOAD SWAP1 PUSH1 0x1 PUSH1 0x40 SHL DUP3 LT ISZERO PUSH2 0x2F55 JUMPI SWAP1 PUSH2 0x2E4B SWAP2 PUSH1 0x1 DUP3 ADD DUP2 SSTORE PUSH2 0x4E69 JUMP JUMPDEST SWAP6 SWAP1 SWAP6 PUSH2 0x2F41 JUMPI POP SWAP5 PUSH2 0x2EC5 PUSH1 0x40 SWAP9 SWAP6 PUSH1 0x3 PUSH32 0xA63D8144C55FB5CA0CBCBEEEA8E1B365CC113F4AB5AAB289DB2285D783E6B766 SWAP12 SWAP10 SWAP7 PUSH2 0x2F0F SWAP7 PUSH2 0x2EA9 DUP16 SWAP8 PUSH2 0x2F33 SWAP13 MLOAD DUP7 SSTORE MLOAD ISZERO ISZERO PUSH1 0x1 DUP7 ADD SWAP1 PUSH1 0xFF DUP1 NOT DUP4 SLOAD AND SWAP2 ISZERO ISZERO AND OR SWAP1 SSTORE JUMP JUMPDEST MLOAD PUSH1 0x2 DUP5 ADD SSTORE MLOAD ISZERO ISZERO SWAP2 ADD SWAP1 PUSH1 0xFF DUP1 NOT DUP4 SLOAD AND SWAP2 ISZERO ISZERO AND OR SWAP1 SSTORE JUMP JUMPDEST DUP8 MLOAD DUP3 DUP2 DUP8 MLOAD PUSH2 0x2ED6 DUP2 DUP4 DUP8 PUSH2 0x4C87 JUMP JUMPDEST DUP2 ADD PUSH1 0x11 DUP2 MSTORE SUB ADD SWAP1 KECCAK256 DUP13 PUSH1 0x0 MSTORE DUP3 MSTORE DUP8 PUSH1 0x0 KECCAK256 DUP12 PUSH1 0x0 MSTORE DUP3 MSTORE DUP8 PUSH1 0x0 KECCAK256 PUSH1 0x1 PUSH1 0xFF NOT DUP3 SLOAD AND OR SWAP1 SSTORE DUP8 MLOAD DUP1 SWAP4 DUP2 SWAP3 DUP8 MLOAD SWAP3 DUP4 SWAP2 PUSH2 0x4C87 JUMP JUMPDEST DUP2 ADD PUSH1 0x12 DUP2 MSTORE SUB ADD SWAP1 KECCAK256 DUP10 PUSH1 0x0 MSTORE DUP8 MSTORE DUP5 PUSH1 0x0 KECCAK256 DUP9 PUSH1 0x0 MSTORE DUP8 MSTORE DUP5 PUSH1 0x0 KECCAK256 SSTORE PUSH2 0x51A9 JUMP JUMPDEST SWAP4 DUP3 MLOAD SWAP2 DUP3 MSTORE TIMESTAMP SWAP1 DUP3 ADD MSTORE LOG4 STOP JUMPDEST PUSH4 0x4E487B71 PUSH1 0xE0 SHL PUSH1 0x0 MSTORE PUSH1 0x0 PUSH1 0x4 MSTORE PUSH1 0x0 REVERT JUMPDEST DUP7 PUSH4 0x4E487B71 PUSH1 0xE0 SHL PUSH1 0x0 MSTORE PUSH1 0x41 PUSH1 0x4 MSTORE PUSH1 0x0 REVERT JUMPDEST PUSH1 0x40 MLOAD PUSH3 0x461BCD PUSH1 0xE5 SHL DUP2 MSTORE PUSH1 0x4 DUP2 ADD DUP8 SWAP1 MSTORE PUSH1 0xF DUP2 DUP6 ADD MSTORE PUSH15 0x105B1C9958591E481C995858DD1959 PUSH1 0x8A SHL PUSH1 0x44 DUP3 ADD MSTORE PUSH1 0x64 SWAP1 REVERT JUMPDEST PUSH1 0x64 DUP4 DUP8 PUSH1 0x40 MLOAD SWAP2 PUSH3 0x461BCD PUSH1 0xE5 SHL DUP4 MSTORE DUP2 PUSH1 0x4 DUP5 ADD MSTORE DUP3 ADD MSTORE PUSH32 0x43616E6E6F7420726561637420746F20796F7572206F776E2064697370757465 PUSH1 0x44 DUP3 ADD MSTORE REVERT JUMPDEST SWAP1 SWAP7 POP DUP6 DUP2 DUP2 RETURNDATASIZE DUP4 GT PUSH2 0x300A JUMPI JUMPDEST PUSH2 0x2FFA DUP2 DUP4 PUSH2 0x4BDF JUMP JUMPDEST DUP2 ADD SUB SLT PUSH2 0x815 JUMPI MLOAD SWAP6 DUP9 PUSH2 0x2D3F JUMP JUMPDEST POP RETURNDATASIZE PUSH2 0x2FF0 JUMP JUMPDEST PUSH2 0x3028 SWAP2 POP DUP5 RETURNDATASIZE DUP7 GT PUSH2 0x870 JUMPI PUSH2 0x862 DUP2 DUP4 PUSH2 0x4BDF JUMP JUMPDEST DUP13 PUSH2 0x471 JUMP JUMPDEST PUSH1 0x40 MLOAD PUSH3 0x461BCD PUSH1 0xE5 SHL DUP2 MSTORE PUSH1 0x4 DUP2 ADD DUP7 SWAP1 MSTORE PUSH1 0x19 DUP2 DUP9 ADD MSTORE PUSH32 0x4E6F20646973707574652066726F6D2074686973207573657200000000000000 PUSH1 0x44 DUP3 ADD MSTORE PUSH1 0x64 SWAP1 REVERT JUMPDEST PUSH2 0x3089 SWAP2 POP DUP7 RETURNDATASIZE DUP9 GT PUSH2 0x870 JUMPI PUSH2 0x862 DUP2 DUP4 PUSH2 0x4BDF JUMP JUMPDEST DUP9 PUSH2 0x42F JUMP JUMPDEST CALLVALUE PUSH2 0x815 JUMPI PUSH1 0x60 CALLDATASIZE PUSH1 0x3 NOT ADD SLT PUSH2 0x815 JUMPI PUSH1 0x1 PUSH1 0x1 PUSH1 0x40 SHL SUB PUSH1 0x4 CALLDATALOAD DUP2 DUP2 GT PUSH2 0x815 JUMPI PUSH2 0x30C0 SWAP1 CALLDATASIZE SWAP1 PUSH1 0x4 ADD PUSH2 0x4C00 JUMP JUMPDEST PUSH1 0x24 SWAP2 DUP3 CALLDATALOAD SWAP1 DUP2 GT PUSH2 0x815 JUMPI PUSH2 0x30DA SWAP1 CALLDATASIZE SWAP1 PUSH1 0x4 ADD PUSH2 0x4C00 JUMP JUMPDEST SWAP1 PUSH2 0x30E3 PUSH2 0x4CBA JUMP JUMPDEST PUSH1 0x0 SLOAD PUSH1 0x40 MLOAD PUSH4 0x45ECD02F PUSH1 0xE0 SHL DUP2 MSTORE CALLER PUSH1 0x4 DUP3 ADD MSTORE PUSH1 0x20 SWAP5 PUSH1 0x1 PUSH1 0x1 PUSH1 0xA0 SHL SUB SWAP1 SWAP3 AND SWAP3 SWAP1 DUP6 DUP2 DUP9 DUP2 DUP8 GAS STATICCALL DUP1 ISZERO PUSH2 0x822 JUMPI PUSH2 0x3127 SWAP2 PUSH1 0x0 SWAP2 PUSH2 0x344F JUMPI POP PUSH2 0x5437 JUMP JUMPDEST PUSH1 0x40 MLOAD PUSH4 0x286B6AB PUSH1 0xE3 SHL DUP2 MSTORE DUP6 DUP2 DUP1 PUSH2 0x3145 CALLER DUP10 PUSH1 0x4 DUP5 ADD PUSH2 0x547A JUMP JUMPDEST SUB DUP2 DUP8 GAS STATICCALL DUP1 ISZERO PUSH2 0x822 JUMPI DUP8 SWAP3 PUSH2 0x3167 PUSH1 0xFF SWAP3 DUP10 SWAP5 PUSH1 0x0 SWAP2 PUSH2 0x3432 JUMPI POP PUSH2 0x54A2 JUMP JUMPDEST PUSH2 0x3173 DUP8 MLOAD ISZERO ISZERO PUSH2 0x5693 JUMP JUMPDEST PUSH2 0x317F DUP6 MLOAD ISZERO ISZERO PUSH2 0x56DF JUMP JUMPDEST AND SWAP4 PUSH1 0x1 DUP6 LT ISZERO DUP1 PUSH2 0x3427 JUMPI JUMPDEST PUSH2 0x3195 SWAP1 PUSH2 0x572B JUMP JUMPDEST PUSH1 0x40 MLOAD PUSH3 0xB0C809 PUSH1 0xE0 SHL DUP2 MSTORE CALLER PUSH1 0x4 DUP3 ADD MSTORE SWAP8 DUP9 SWAP2 DUP3 SWAP1 GAS STATICCALL SWAP6 DUP7 ISZERO PUSH2 0x822 JUMPI PUSH1 0x0 SWAP7 PUSH2 0x33F8 JUMPI JUMPDEST POP PUSH2 0x31C9 DUP7 ISZERO ISZERO PUSH2 0x50E2 JUMP JUMPDEST PUSH1 0x40 MLOAD DUP3 MLOAD SWAP1 DUP7 DUP2 DUP2 DUP7 ADD SWAP4 PUSH2 0x31E0 DUP2 DUP4 DUP8 PUSH2 0x4C87 JUMP JUMPDEST DUP2 ADD PUSH1 0xB DUP2 MSTORE SUB ADD SWAP1 KECCAK256 DUP8 PUSH1 0x0 MSTORE DUP7 MSTORE PUSH1 0xFF PUSH1 0x40 PUSH1 0x0 KECCAK256 SLOAD AND PUSH2 0x33B4 JUMPI PUSH1 0x40 MLOAD DUP7 DUP2 DUP6 MLOAD PUSH2 0x320F DUP2 DUP4 DUP8 PUSH2 0x4C87 JUMP JUMPDEST DUP2 ADD PUSH1 0xA DUP2 MSTORE SUB ADD SWAP1 KECCAK256 SLOAD SWAP2 PUSH1 0x40 MLOAD DUP8 DUP2 DUP7 MLOAD PUSH2 0x322D DUP2 DUP4 DUP9 PUSH2 0x4C87 JUMP JUMPDEST DUP2 ADD PUSH1 0xA DUP2 MSTORE SUB ADD SWAP1 KECCAK256 PUSH2 0x3240 DUP7 PUSH2 0x4CEF JUMP JUMPDEST PUSH1 0x40 MLOAD PUSH2 0x324C DUP2 PUSH2 0x4B73 JUMP JUMPDEST DUP10 DUP2 MSTORE DUP9 DUP2 ADD DUP9 DUP2 MSTORE PUSH1 0x40 DUP3 ADD SWAP1 PUSH2 0x3263 DUP10 PUSH2 0x4CEF JUMP JUMPDEST DUP9 DUP3 MSTORE PUSH1 0x60 DUP4 ADD SWAP3 TIMESTAMP DUP5 MSTORE PUSH1 0x80 DUP2 ADD SWAP5 PUSH1 0x1 DUP7 MSTORE DUP1 SLOAD SWAP1 PUSH1 0x1 PUSH1 0x40 SHL DUP3 LT ISZERO PUSH2 0x339F JUMPI SWAP1 PUSH2 0x3296 SWAP2 PUSH1 0x1 DUP3 ADD DUP2 SSTORE PUSH2 0x4FE6 JUMP JUMPDEST SWAP7 SWAP1 SWAP7 PUSH2 0x2F41 JUMPI POP SWAP6 PUSH2 0x330B PUSH2 0xF8B SWAP7 PUSH1 0x4 PUSH1 0x40 SWAP12 SWAP8 DUP16 SWAP6 SWAP8 PUSH2 0x32EF PUSH32 0x5DDCEC906A8EDFB96C9CF15F08C0FE50115A5547EF76AB3A944ED41ACF127D01 SWAP16 SWAP14 SWAP10 SWAP9 PUSH2 0x60C PUSH2 0x334B SWAP11 PUSH2 0x3388 SWAP16 MLOAD DUP9 SSTORE MLOAD PUSH1 0x1 DUP9 ADD PUSH2 0x5527 JUMP JUMPDEST MLOAD PUSH1 0x3 DUP5 ADD SSTORE MLOAD ISZERO ISZERO SWAP2 ADD SWAP1 PUSH1 0xFF DUP1 NOT DUP4 SLOAD AND SWAP2 ISZERO ISZERO AND OR SWAP1 SSTORE JUMP JUMPDEST DUP9 MLOAD DUP3 DUP2 DUP8 MLOAD PUSH2 0x331C DUP2 DUP4 DUP8 PUSH2 0x4C87 JUMP JUMPDEST DUP2 ADD PUSH1 0xB DUP2 MSTORE SUB ADD SWAP1 KECCAK256 DUP14 PUSH1 0x0 MSTORE DUP3 MSTORE DUP9 PUSH1 0x0 KECCAK256 PUSH1 0x1 PUSH1 0xFF NOT DUP3 SLOAD AND OR SWAP1 SSTORE DUP9 MLOAD DUP1 SWAP4 DUP2 SWAP3 DUP8 MLOAD SWAP3 DUP4 SWAP2 PUSH2 0x4C87 JUMP JUMPDEST DUP2 ADD PUSH1 0xC DUP2 MSTORE SUB ADD SWAP1 KECCAK256 DUP11 PUSH1 0x0 MSTORE DUP10 MSTORE DUP6 PUSH1 0x0 KECCAK256 SSTORE PUSH1 0x15 DUP9 MSTORE PUSH2 0x3371 DUP2 DUP7 PUSH1 0x0 KECCAK256 PUSH2 0x576B JUMP JUMPDEST PUSH2 0x337C PUSH1 0x17 SLOAD PUSH2 0x538E JUMP JUMPDEST PUSH1 0x17 SSTORE PUSH2 0x731 DUP5 PUSH2 0x4CEF JUMP JUMPDEST SWAP5 DUP3 MLOAD SWAP2 PUSH2 0x3395 DUP2 PUSH2 0x4CEF JUMP JUMPDEST DUP3 MSTORE TIMESTAMP SWAP1 DUP3 ADD MSTORE LOG4 STOP JUMPDEST DUP8 PUSH4 0x4E487B71 PUSH1 0xE0 SHL PUSH1 0x0 MSTORE PUSH1 0x41 PUSH1 0x4 MSTORE PUSH1 0x0 REVERT JUMPDEST PUSH1 0x40 MLOAD PUSH3 0x461BCD PUSH1 0xE5 SHL DUP2 MSTORE PUSH1 0x4 DUP2 ADD DUP8 SWAP1 MSTORE PUSH1 0x1A DUP2 DUP5 ADD MSTORE PUSH32 0x416C726561647920766572696669656420746869732068617368000000000000 PUSH1 0x44 DUP3 ADD MSTORE PUSH1 0x64 SWAP1 REVERT JUMPDEST SWAP1 SWAP6 POP DUP5 DUP2 DUP2 RETURNDATASIZE DUP4 GT PUSH2 0x3420 JUMPI JUMPDEST PUSH2 0x3410 DUP2 DUP4 PUSH2 0x4BDF JUMP JUMPDEST DUP2 ADD SUB SLT PUSH2 0x815 JUMPI MLOAD SWAP5 DUP7 PUSH2 0x31BD JUMP JUMPDEST POP RETURNDATASIZE PUSH2 0x3406 JUMP JUMPDEST POP PUSH1 0x3 DUP6 GT ISZERO PUSH2 0x318C JUMP JUMPDEST PUSH2 0x3449 SWAP2 POP DUP6 RETURNDATASIZE DUP8 GT PUSH2 0x870 JUMPI PUSH2 0x862 DUP2 DUP4 PUSH2 0x4BDF JUMP JUMPDEST DUP12 PUSH2 0x471 JUMP JUMPDEST PUSH2 0x3089 SWAP2 POP DUP8 RETURNDATASIZE DUP10 GT PUSH2 0x870 JUMPI PUSH2 0x862 DUP2 DUP4 PUSH2 0x4BDF JUMP JUMPDEST CALLVALUE PUSH2 0x815 JUMPI PUSH1 0x60 CALLDATASIZE PUSH1 0x3 NOT ADD SLT PUSH2 0x815 JUMPI PUSH1 0x24 CALLDATALOAD PUSH1 0x4 CALLDATALOAD PUSH1 0x44 CALLDATALOAD PUSH1 0x5 DUP2 LT ISZERO PUSH2 0x815 JUMPI PUSH2 0x349E PUSH1 0x1 DUP1 PUSH1 0xA0 SHL SUB PUSH1 0x1 SLOAD AND CALLER EQ PUSH2 0x54EE JUMP JUMPDEST DUP2 PUSH1 0x0 MSTORE PUSH1 0x20 PUSH1 0x13 DUP2 MSTORE PUSH2 0x34B8 PUSH1 0x40 PUSH1 0x0 KECCAK256 SLOAD DUP6 LT PUSH2 0x5651 JUMP JUMPDEST DUP2 ISZERO PUSH2 0x35A8 JUMPI DUP3 PUSH1 0x0 MSTORE PUSH1 0x13 DUP2 MSTORE PUSH2 0x34D4 DUP5 PUSH1 0x40 PUSH1 0x0 KECCAK256 PUSH2 0x5037 JUMP JUMPDEST POP PUSH1 0x5 DUP2 ADD SWAP1 PUSH1 0xFF DUP3 SLOAD AND ISZERO PUSH2 0x356B JUMPI PUSH2 0x34F1 DUP5 PUSH1 0x3 DUP4 ADD PUSH2 0x5639 JUMP JUMPDEST PUSH1 0x4 TIMESTAMP SWAP2 ADD SSTORE PUSH1 0xFF NOT DUP2 SLOAD AND SWAP1 SSTORE DUP3 PUSH1 0x0 MSTORE PUSH1 0x14 DUP2 MSTORE PUSH1 0x40 PUSH1 0x0 KECCAK256 SWAP2 DUP3 SLOAD SWAP2 DUP3 ISZERO PUSH2 0x3555 JUMPI PUSH32 0xD27CFED75349D7C1712793C75B771F2A7DD4689406C4D8FDC93B4194B422EB35 SWAP4 PUSH1 0x40 SWAP4 PUSH1 0x0 NOT ADD SWAP1 SSTORE PUSH2 0x354D DUP4 MLOAD DUP1 SWAP4 PUSH2 0x4F4A JUMP JUMPDEST TIMESTAMP SWAP1 DUP3 ADD MSTORE LOG3 STOP JUMPDEST PUSH4 0x4E487B71 PUSH1 0xE0 SHL PUSH1 0x0 MSTORE PUSH1 0x11 PUSH1 0x4 MSTORE PUSH1 0x24 PUSH1 0x0 REVERT JUMPDEST PUSH1 0x40 MLOAD PUSH3 0x461BCD PUSH1 0xE5 SHL DUP2 MSTORE PUSH1 0x4 DUP2 ADD DUP5 SWAP1 MSTORE PUSH1 0x15 PUSH1 0x24 DUP3 ADD MSTORE PUSH21 0x119B1859C8185B1C9958591E481C995CDBDB1D9959 PUSH1 0x5A SHL PUSH1 0x44 DUP3 ADD MSTORE PUSH1 0x64 SWAP1 REVERT JUMPDEST PUSH1 0x64 SWAP1 PUSH1 0x40 MLOAD SWAP1 PUSH3 0x461BCD PUSH1 0xE5 SHL DUP3 MSTORE PUSH1 0x4 DUP3 ADD MSTORE PUSH1 0x1C PUSH1 0x24 DUP3 ADD MSTORE PUSH32 0x4D7573742070726F76696465207265736F6C7574696F6E207479706500000000 PUSH1 0x44 DUP3 ADD MSTORE REVERT JUMPDEST CALLVALUE PUSH2 0x815 JUMPI PUSH2 0x35FA CALLDATASIZE PUSH2 0x4C56 JUMP JUMPDEST PUSH1 0x0 SLOAD PUSH1 0x40 MLOAD PUSH3 0xB0C809 PUSH1 0xE0 SHL DUP2 MSTORE CALLER PUSH1 0x4 DUP3 ADD MSTORE SWAP2 SWAP3 PUSH1 0x20 SWAP2 DUP3 SWAP1 DUP5 SWAP1 PUSH1 0x24 SWAP1 DUP3 SWAP1 PUSH1 0x1 PUSH1 0x1 PUSH1 0xA0 SHL SUB AND GAS STATICCALL SWAP3 DUP4 ISZERO PUSH2 0x822 JUMPI PUSH1 0x0 SWAP4 PUSH2 0x377E JUMPI JUMPDEST POP PUSH2 0x3643 DUP4 ISZERO ISZERO PUSH2 0x50E2 JUMP JUMPDEST PUSH1 0x40 MLOAD DUP2 MLOAD SWAP1 DUP4 DUP2 DUP2 DUP6 ADD SWAP4 PUSH2 0x365A DUP2 DUP4 DUP8 PUSH2 0x4C87 JUMP JUMPDEST DUP2 ADD PUSH1 0x11 DUP2 MSTORE SUB ADD SWAP1 KECCAK256 DUP6 PUSH1 0x0 MSTORE DUP4 MSTORE PUSH1 0x40 PUSH1 0x0 KECCAK256 DUP5 PUSH1 0x0 MSTORE DUP4 MSTORE PUSH1 0xFF PUSH1 0x40 PUSH1 0x0 KECCAK256 SLOAD AND ISZERO PUSH2 0x3740 JUMPI PUSH32 0xBE97907321AA6637529C6E0BD464AF27DDB95FADC266661A0A9C0B693ACAA2BA SWAP2 PUSH1 0x3 PUSH2 0xA40 PUSH2 0x3736 SWAP4 PUSH1 0x40 MLOAD DUP8 DUP2 DUP7 MLOAD PUSH2 0x36C0 DUP2 DUP4 DUP8 PUSH2 0x4C87 JUMP JUMPDEST DUP2 ADD PUSH1 0x12 DUP2 MSTORE SUB ADD SWAP1 KECCAK256 DUP10 PUSH1 0x0 MSTORE DUP8 MSTORE PUSH1 0x40 PUSH1 0x0 KECCAK256 DUP9 PUSH1 0x0 MSTORE DUP8 MSTORE PUSH2 0x371C DUP8 PUSH1 0x40 PUSH1 0x0 KECCAK256 SLOAD SWAP3 PUSH1 0x40 MLOAD DUP3 DUP2 DUP10 MLOAD PUSH2 0x36F8 DUP2 DUP4 DUP8 PUSH2 0x4C87 JUMP JUMPDEST DUP2 ADD PUSH1 0x10 DUP2 MSTORE SUB ADD SWAP1 KECCAK256 DUP13 PUSH1 0x0 MSTORE DUP3 MSTORE PUSH2 0xA2F PUSH1 0xFF DUP8 PUSH2 0xA26 DUP8 PUSH1 0x40 PUSH1 0x0 KECCAK256 PUSH2 0x4E69 JUMP JUMPDEST DUP2 ADD PUSH1 0x10 DUP2 MSTORE SUB ADD SWAP1 KECCAK256 DUP10 PUSH1 0x0 MSTORE DUP8 MSTORE PUSH1 0x40 PUSH1 0x0 KECCAK256 PUSH2 0x4E69 JUMP JUMPDEST SWAP2 PUSH1 0x40 MLOAD TIMESTAMP DUP2 MSTORE LOG4 STOP JUMPDEST PUSH1 0x40 MLOAD PUSH3 0x461BCD PUSH1 0xE5 SHL DUP2 MSTORE PUSH1 0x4 DUP2 ADD DUP5 SWAP1 MSTORE PUSH1 0x16 PUSH1 0x24 DUP3 ADD MSTORE PUSH22 0x139BC81C995858DD1A5BDB881D1BC81C995D1C9858DD PUSH1 0x52 SHL PUSH1 0x44 DUP3 ADD MSTORE PUSH1 0x64 SWAP1 REVERT JUMPDEST SWAP1 SWAP3 POP DUP2 DUP2 DUP2 RETURNDATASIZE DUP4 GT PUSH2 0x37A6 JUMPI JUMPDEST PUSH2 0x3796 DUP2 DUP4 PUSH2 0x4BDF JUMP JUMPDEST DUP2 ADD SUB SLT PUSH2 0x815 JUMPI MLOAD SWAP2 DUP5 PUSH2 0x3637 JUMP JUMPDEST POP RETURNDATASIZE PUSH2 0x378C JUMP JUMPDEST CALLVALUE PUSH2 0x815 JUMPI PUSH1 0x20 DUP1 PUSH1 0x3 NOT CALLDATASIZE ADD SLT PUSH2 0x815 JUMPI PUSH1 0x4 CALLDATALOAD PUSH1 0x1 PUSH1 0x1 PUSH1 0x40 SHL SUB DUP2 GT PUSH2 0x815 JUMPI DUP2 PUSH2 0x1DE3 PUSH2 0x37E2 SWAP3 CALLDATASIZE SWAP1 PUSH1 0x4 ADD PUSH2 0x4C00 JUMP JUMPDEST DUP2 ADD PUSH1 0x2 DUP2 MSTORE SUB ADD SWAP1 KECCAK256 SWAP1 PUSH1 0x40 MLOAD SWAP1 DUP2 DUP2 DUP5 SLOAD SWAP2 DUP3 DUP2 MSTORE ADD SWAP4 PUSH1 0x0 MSTORE DUP2 PUSH1 0x0 KECCAK256 SWAP2 PUSH1 0x0 SWAP1 JUMPDEST DUP3 DUP3 LT PUSH2 0x382A JUMPI PUSH2 0x115E DUP6 PUSH2 0x381E DUP2 DUP10 SUB DUP3 PUSH2 0x4BDF JUMP JUMPDEST PUSH1 0x40 MLOAD SWAP2 DUP3 SWAP2 DUP3 PUSH2 0x4E2D JUMP JUMPDEST DUP4 SLOAD DUP7 MSTORE SWAP5 DUP6 ADD SWAP5 PUSH1 0x1 SWAP4 DUP5 ADD SWAP4 SWAP1 SWAP2 ADD SWAP1 PUSH2 0x3807 JUMP JUMPDEST CALLVALUE PUSH2 0x815 JUMPI PUSH1 0x60 CALLDATASIZE PUSH1 0x3 NOT ADD SLT PUSH2 0x815 JUMPI PUSH1 0x24 PUSH1 0x1 PUSH1 0x1 PUSH1 0x40 SHL SUB PUSH1 0x4 CALLDATALOAD DUP3 CALLDATALOAD DUP3 DUP2 GT PUSH2 0x815 JUMPI PUSH2 0x3876 SWAP1 CALLDATASIZE SWAP1 PUSH1 0x4 ADD PUSH2 0x4C00 JUMP JUMPDEST SWAP2 PUSH1 0x44 CALLDATALOAD SWAP1 DUP2 GT PUSH2 0x815 JUMPI PUSH2 0x388F SWAP1 CALLDATASIZE SWAP1 PUSH1 0x4 ADD PUSH2 0x4C00 JUMP JUMPDEST SWAP2 PUSH2 0x38A5 PUSH1 0x1 DUP1 PUSH1 0xA0 SHL SUB PUSH1 0x1 SLOAD AND CALLER EQ PUSH2 0x54EE JUMP JUMPDEST DUP2 ISZERO PUSH2 0x3A3B JUMPI DUP3 MLOAD ISZERO PUSH2 0x39F7 JUMPI DUP2 PUSH1 0x0 MSTORE PUSH1 0x13 PUSH1 0x20 MSTORE PUSH1 0x40 PUSH1 0x0 KECCAK256 SWAP4 DUP5 SLOAD SWAP5 PUSH1 0x40 MLOAD SWAP2 PUSH2 0x38D1 DUP4 PUSH2 0x4B58 JUMP JUMPDEST DUP4 DUP4 MSTORE PUSH1 0x20 DUP4 ADD SWAP1 DUP7 DUP3 MSTORE PUSH1 0x40 DUP5 ADD TIMESTAMP DUP2 MSTORE PUSH1 0x60 DUP6 ADD SWAP1 PUSH1 0x0 DUP3 MSTORE PUSH1 0x80 DUP7 ADD SWAP4 PUSH1 0x0 DUP6 MSTORE PUSH1 0xA0 DUP8 ADD SWAP6 PUSH1 0x1 DUP8 MSTORE PUSH1 0x1 PUSH1 0x40 SHL DUP13 LT ISZERO PUSH2 0x790 JUMPI DUP12 PUSH2 0x391A SWAP2 PUSH1 0x1 DUP3 ADD DUP2 SSTORE PUSH2 0x5037 JUMP JUMPDEST SWAP8 SWAP1 SWAP8 PUSH2 0x39E2 JUMPI SWAP1 PUSH2 0x3930 PUSH2 0x393A SWAP3 MLOAD DUP10 PUSH2 0x5527 JUMP JUMPDEST MLOAD PUSH1 0x1 DUP9 ADD PUSH2 0x5527 JUMP JUMPDEST MLOAD PUSH1 0x2 DUP7 ADD SSTORE MLOAD SWAP1 PUSH1 0x5 DUP3 LT ISZERO PUSH2 0x767 JUMPI POP SWAP4 PUSH2 0x39A7 DUP5 PUSH1 0x5 PUSH2 0x39D3 SWAP6 PUSH2 0xF8B SWAP6 PUSH2 0x398B PUSH32 0xDC620035E382D2354E94AF4EE86406F06A6BC23C13499543D7AD5EE77AF52404 SWAP11 PUSH1 0x3 PUSH1 0x40 SWAP12 ADD PUSH2 0x5639 JUMP JUMPDEST MLOAD PUSH1 0x4 DUP5 ADD SSTORE MLOAD ISZERO ISZERO SWAP2 ADD SWAP1 PUSH1 0xFF DUP1 NOT DUP4 SLOAD AND SWAP2 ISZERO ISZERO AND OR SWAP1 SSTORE JUMP JUMPDEST DUP6 PUSH1 0x0 MSTORE PUSH1 0x14 PUSH1 0x20 MSTORE DUP4 PUSH1 0x0 KECCAK256 PUSH2 0x39BE DUP2 SLOAD PUSH2 0x538E JUMP JUMPDEST SWAP1 SSTORE PUSH2 0x39CB PUSH1 0x19 SLOAD PUSH2 0x538E JUMP JUMPDEST PUSH1 0x19 SSTORE PUSH2 0x51A9 JUMP JUMPDEST SWAP5 DUP2 MLOAD SWAP1 DUP2 MSTORE TIMESTAMP PUSH1 0x20 DUP3 ADD MSTORE LOG4 STOP JUMPDEST DUP5 PUSH4 0x4E487B71 PUSH1 0xE0 SHL PUSH1 0x0 MSTORE PUSH1 0x0 PUSH1 0x4 MSTORE PUSH1 0x0 REVERT JUMPDEST PUSH1 0x40 MLOAD PUSH3 0x461BCD PUSH1 0xE5 SHL DUP2 MSTORE PUSH1 0x20 PUSH1 0x4 DUP3 ADD MSTORE PUSH1 0x19 DUP2 DUP7 ADD MSTORE PUSH32 0x4E6F746520686173682063616E6E6F7420626520656D70747900000000000000 PUSH1 0x44 DUP3 ADD MSTORE PUSH1 0x64 SWAP1 REVERT JUMPDEST PUSH1 0x40 MLOAD PUSH3 0x461BCD PUSH1 0xE5 SHL DUP2 MSTORE PUSH1 0x20 PUSH1 0x4 DUP3 ADD MSTORE PUSH1 0x1F DUP2 DUP7 ADD MSTORE PUSH32 0x5375626A65637420494420686173682063616E6E6F7420626520656D70747900 PUSH1 0x44 DUP3 ADD MSTORE PUSH1 0x64 SWAP1 REVERT JUMPDEST CALLVALUE PUSH2 0x815 JUMPI PUSH1 0x20 CALLDATASIZE PUSH1 0x3 NOT ADD SLT PUSH2 0x815 JUMPI PUSH1 0x4 CALLDATALOAD PUSH1 0x1 PUSH1 0x1 PUSH1 0x40 SHL SUB DUP2 GT PUSH2 0x815 JUMPI PUSH2 0x1795 PUSH2 0x3ABA PUSH1 0x20 PUSH2 0x1DE3 PUSH2 0x115E SWAP5 CALLDATASIZE SWAP1 PUSH1 0x4 ADD PUSH2 0x4C00 JUMP JUMPDEST DUP2 ADD PUSH1 0x6 DUP2 MSTORE SUB ADD SWAP1 KECCAK256 PUSH2 0x4D61 JUMP JUMPDEST CALLVALUE PUSH2 0x815 JUMPI PUSH1 0x20 DUP1 PUSH1 0x3 NOT CALLDATASIZE ADD SLT PUSH2 0x815 JUMPI PUSH1 0x4 CALLDATALOAD PUSH1 0x1 PUSH1 0x1 PUSH1 0x40 SHL SUB DUP2 GT PUSH2 0x815 JUMPI PUSH2 0x3AFA SWAP1 CALLDATASIZE SWAP1 PUSH1 0x4 ADD PUSH2 0x4C00 JUMP JUMPDEST PUSH1 0x0 SLOAD PUSH1 0x40 MLOAD PUSH4 0x45ECD02F PUSH1 0xE0 SHL DUP2 MSTORE CALLER PUSH1 0x4 DUP3 ADD MSTORE PUSH1 0x1 PUSH1 0x1 PUSH1 0xA0 SHL SUB SWAP1 SWAP2 AND SWAP3 SWAP2 SWAP1 DUP3 DUP2 PUSH1 0x24 DUP2 DUP8 GAS STATICCALL DUP1 ISZERO PUSH2 0x822 JUMPI PUSH2 0x3B3D SWAP2 PUSH1 0x0 SWAP2 PUSH2 0x1A12 JUMPI POP PUSH2 0x5437 JUMP JUMPDEST PUSH1 0x40 MLOAD PUSH4 0x286B6AB PUSH1 0xE3 SHL DUP2 MSTORE SWAP3 DUP3 DUP5 DUP1 PUSH2 0x3B5C CALLER DUP7 PUSH1 0x4 DUP5 ADD PUSH2 0x547A JUMP JUMPDEST SUB DUP2 DUP5 GAS STATICCALL SWAP1 DUP2 ISZERO PUSH2 0x822 JUMPI PUSH2 0x3B7D DUP5 SWAP3 PUSH1 0x24 SWAP7 PUSH1 0x0 SWAP2 PUSH2 0x19F5 JUMPI POP PUSH2 0x54A2 JUMP JUMPDEST PUSH1 0x40 MLOAD PUSH3 0xB0C809 PUSH1 0xE0 SHL DUP2 MSTORE CALLER PUSH1 0x4 DUP3 ADD MSTORE SWAP5 DUP6 SWAP2 DUP3 SWAP1 GAS STATICCALL SWAP3 DUP4 ISZERO PUSH2 0x822 JUMPI PUSH1 0x0 SWAP4 PUSH2 0x3CF2 JUMPI JUMPDEST POP PUSH2 0x3BB1 DUP4 ISZERO ISZERO PUSH2 0x50E2 JUMP JUMPDEST PUSH1 0x40 MLOAD DUP2 MLOAD SWAP1 DUP4 DUP2 DUP2 DUP6 ADD SWAP4 PUSH2 0x3BC8 DUP2 DUP4 DUP8 PUSH2 0x4C87 JUMP JUMPDEST DUP2 ADD PUSH1 0x3 DUP2 MSTORE SUB ADD SWAP1 KECCAK256 DUP5 PUSH1 0x0 MSTORE DUP4 MSTORE PUSH1 0xFF PUSH1 0x40 PUSH1 0x0 KECCAK256 SLOAD AND ISZERO PUSH2 0x3CAD JUMPI PUSH1 0x40 MLOAD DUP4 DUP2 DUP5 MLOAD PUSH2 0x3BF8 DUP2 DUP4 DUP8 PUSH2 0x4C87 JUMP JUMPDEST DUP2 ADD PUSH1 0x5 DUP2 MSTORE SUB ADD SWAP1 KECCAK256 DUP5 PUSH1 0x0 MSTORE DUP4 MSTORE PUSH1 0xFF PUSH1 0x40 PUSH1 0x0 KECCAK256 SLOAD AND ISZERO PUSH2 0x3C73 JUMPI PUSH32 0x6394E07BA017D68C6017A8D8FD8ADE9C44DD70FD18B290E2D74DB2B691AC99FB SWAP2 PUSH2 0x3C51 DUP5 PUSH2 0xA4F SWAP4 PUSH1 0x40 MLOAD DUP1 SWAP4 DUP2 SWAP3 DUP7 MLOAD SWAP3 DUP4 SWAP2 PUSH2 0x4C87 JUMP JUMPDEST DUP2 ADD PUSH1 0x5 DUP2 MSTORE SUB ADD SWAP1 KECCAK256 DUP6 PUSH1 0x0 MSTORE DUP5 MSTORE PUSH1 0x40 PUSH1 0x0 KECCAK256 PUSH1 0xFF NOT DUP2 SLOAD AND SWAP1 SSTORE PUSH2 0x51A9 JUMP JUMPDEST PUSH1 0x40 MLOAD PUSH3 0x461BCD PUSH1 0xE5 SHL DUP2 MSTORE PUSH1 0x4 DUP2 ADD DUP5 SWAP1 MSTORE PUSH1 0x12 PUSH1 0x24 DUP3 ADD MSTORE PUSH18 0x105B1C9958591E481D5B985B98DA1BDC9959 PUSH1 0x72 SHL PUSH1 0x44 DUP3 ADD MSTORE PUSH1 0x64 SWAP1 REVERT JUMPDEST PUSH1 0x40 MLOAD PUSH3 0x461BCD PUSH1 0xE5 SHL DUP2 MSTORE PUSH1 0x4 DUP2 ADD DUP5 SWAP1 MSTORE PUSH1 0x1C PUSH1 0x24 DUP3 ADD MSTORE PUSH32 0x4E6F742061207375626A656374206F662074686973207265636F726400000000 PUSH1 0x44 DUP3 ADD MSTORE PUSH1 0x64 SWAP1 REVERT JUMPDEST SWAP1 SWAP3 POP DUP2 DUP2 DUP2 RETURNDATASIZE DUP4 GT PUSH2 0x3D1A JUMPI JUMPDEST PUSH2 0x3D0A DUP2 DUP4 PUSH2 0x4BDF JUMP JUMPDEST DUP2 ADD SUB SLT PUSH2 0x815 JUMPI MLOAD SWAP2 DUP4 PUSH2 0x3BA5 JUMP JUMPDEST POP RETURNDATASIZE PUSH2 0x3D00 JUMP JUMPDEST CALLVALUE PUSH2 0x815 JUMPI PUSH1 0x20 DUP1 PUSH1 0x3 NOT CALLDATASIZE ADD SLT PUSH2 0x815 JUMPI PUSH1 0x4 CALLDATALOAD PUSH1 0x1 PUSH1 0x1 PUSH1 0x40 SHL SUB DUP2 GT PUSH2 0x815 JUMPI PUSH2 0x3D52 SWAP1 CALLDATASIZE SWAP1 PUSH1 0x4 ADD PUSH2 0x4C00 JUMP JUMPDEST SWAP1 PUSH2 0x3D6D DUP2 PUSH1 0x0 SWAP4 DUP2 PUSH1 0x40 MLOAD SWAP4 DUP3 DUP6 DUP1 SWAP5 MLOAD SWAP4 DUP5 SWAP3 ADD PUSH2 0x4C87 JUMP JUMPDEST DUP2 ADD PUSH1 0xA DUP2 MSTORE SUB ADD SWAP1 KECCAK256 SWAP2 DUP3 SLOAD PUSH2 0x3D83 DUP2 PUSH2 0x5328 JUMP JUMPDEST SWAP4 PUSH2 0x3D91 PUSH1 0x40 MLOAD SWAP6 DUP7 PUSH2 0x4BDF JUMP JUMPDEST DUP2 DUP6 MSTORE PUSH1 0x0 SWAP1 DUP2 MSTORE DUP4 DUP2 KECCAK256 DUP5 DUP1 DUP8 ADD JUMPDEST DUP5 DUP5 LT PUSH2 0x3DE9 JUMPI DUP8 DUP3 DUP8 DUP3 MLOAD PUSH1 0x0 JUMPDEST DUP5 MLOAD DUP2 LT ISZERO PUSH2 0x28EA JUMPI PUSH1 0x80 PUSH2 0x3DC5 DUP3 DUP8 PUSH2 0x537A JUMP JUMPDEST MLOAD ADD MLOAD PUSH2 0x3DD5 JUMPI JUMPDEST PUSH1 0x1 ADD PUSH2 0x3DB0 JUMP JUMPDEST SWAP2 PUSH2 0x3DE1 PUSH1 0x1 SWAP2 PUSH2 0x538E JUMP JUMPDEST SWAP3 SWAP1 POP PUSH2 0x3DCD JUMP JUMPDEST PUSH1 0x1 SWAP2 PUSH1 0x5 SWAP2 PUSH2 0x3DF8 DUP6 PUSH2 0x51C9 JUMP JUMPDEST DUP2 MSTORE ADD SWAP3 ADD SWAP3 ADD SWAP2 SWAP1 DUP6 SWAP1 PUSH2 0x3DA1 JUMP JUMPDEST CALLVALUE PUSH2 0x815 JUMPI PUSH1 0x20 DUP1 PUSH1 0x3 NOT CALLDATASIZE ADD SLT PUSH2 0x815 JUMPI PUSH1 0x4 CALLDATALOAD PUSH1 0x1 PUSH1 0x1 PUSH1 0x40 SHL SUB DUP2 GT PUSH2 0x815 JUMPI DUP2 PUSH2 0x1DE3 PUSH2 0x3E3D SWAP3 CALLDATASIZE SWAP1 PUSH1 0x4 ADD PUSH2 0x4C00 JUMP JUMPDEST DUP2 ADD PUSH1 0x7 DUP2 MSTORE SUB ADD SWAP1 KECCAK256 DUP1 SLOAD PUSH2 0x3E52 DUP2 PUSH2 0x5328 JUMP JUMPDEST SWAP2 PUSH2 0x3E60 PUSH1 0x40 MLOAD SWAP4 DUP5 PUSH2 0x4BDF JUMP JUMPDEST DUP2 DUP4 MSTORE PUSH1 0x0 SWAP1 DUP2 MSTORE DUP4 DUP2 KECCAK256 SWAP4 DUP1 DUP5 ADD JUMPDEST DUP4 DUP4 LT PUSH2 0x3E85 JUMPI PUSH1 0x40 MLOAD DUP1 PUSH2 0x115E DUP8 DUP3 PUSH2 0x4E85 JUMP JUMPDEST PUSH1 0x1 DUP3 DUP2 SWAP3 PUSH2 0x3E93 DUP10 PUSH2 0x4D61 JUMP JUMPDEST DUP2 MSTORE ADD SWAP7 ADD SWAP3 ADD SWAP2 SWAP5 PUSH2 0x3E70 JUMP JUMPDEST CALLVALUE PUSH2 0x815 JUMPI PUSH1 0x20 DUP1 PUSH1 0x3 NOT CALLDATASIZE ADD SLT PUSH2 0x815 JUMPI PUSH1 0x4 CALLDATALOAD PUSH1 0x1 PUSH1 0x1 PUSH1 0x40 SHL SUB DUP2 GT PUSH2 0x815 JUMPI DUP2 PUSH2 0x1DE3 PUSH2 0x3ED6 SWAP3 CALLDATASIZE SWAP1 PUSH1 0x4 ADD PUSH2 0x4C00 JUMP JUMPDEST DUP2 ADD PUSH1 0xA DUP2 MSTORE SUB ADD SWAP1 KECCAK256 SWAP1 DUP2 SLOAD SWAP2 PUSH2 0x3EED DUP4 PUSH2 0x5328 JUMP JUMPDEST SWAP3 PUSH2 0x3EFB PUSH1 0x40 MLOAD SWAP5 DUP6 PUSH2 0x4BDF JUMP JUMPDEST DUP1 DUP5 MSTORE DUP3 DUP5 ADD DUP1 SWAP3 PUSH1 0x0 MSTORE DUP4 PUSH1 0x0 KECCAK256 PUSH1 0x0 SWAP2 JUMPDEST DUP4 DUP4 LT PUSH2 0x3FB2 JUMPI POP POP POP POP PUSH1 0x40 MLOAD SWAP2 DUP1 DUP4 ADD SWAP4 DUP2 DUP5 MSTORE MLOAD DUP1 SWAP5 MSTORE PUSH1 0x40 DUP4 ADD SWAP4 PUSH1 0x40 DUP2 PUSH1 0x5 SHL DUP6 ADD ADD SWAP3 SWAP2 PUSH1 0x0 SWAP6 JUMPDEST DUP3 DUP8 LT PUSH2 0x3F49 JUMPI DUP6 DUP6 SUB DUP7 RETURN JUMPDEST SWAP1 SWAP2 SWAP3 SWAP4 DUP3 DUP1 PUSH1 0x1 SWAP3 PUSH1 0x3F NOT DUP10 DUP3 SUB ADD DUP6 MSTORE DUP8 MLOAD SWAP1 PUSH2 0x3F79 PUSH1 0xA0 DUP4 MLOAD DUP4 MSTORE DUP5 DUP5 ADD MLOAD SWAP1 DUP1 DUP7 DUP6 ADD MSTORE DUP4 ADD SWAP1 PUSH2 0x4CCA JUMP JUMPDEST SWAP2 PUSH1 0x40 DUP2 ADD MLOAD PUSH2 0x3F88 DUP2 PUSH2 0x4CEF JUMP JUMPDEST PUSH1 0x40 DUP4 ADD MSTORE PUSH1 0x60 DUP1 DUP3 ADD MLOAD SWAP1 DUP4 ADD MSTORE PUSH1 0x80 DUP1 SWAP2 ADD MLOAD ISZERO ISZERO SWAP2 ADD MSTORE SWAP7 ADD SWAP3 ADD SWAP7 ADD SWAP6 SWAP3 SWAP2 SWAP1 SWAP3 PUSH2 0x3F3C JUMP JUMPDEST PUSH1 0x5 DUP7 PUSH1 0x1 SWAP3 PUSH2 0x3FC4 DUP6 SWAP11 SWAP10 SWAP11 PUSH2 0x51C9 JUMP JUMPDEST DUP2 MSTORE ADD SWAP3 ADD SWAP3 ADD SWAP2 SWAP1 SWAP6 SWAP5 SWAP6 PUSH2 0x3F0E JUMP JUMPDEST CALLVALUE PUSH2 0x815 JUMPI PUSH1 0x60 CALLDATASIZE PUSH1 0x3 NOT ADD SLT PUSH2 0x815 JUMPI PUSH1 0x4 CALLDATALOAD PUSH1 0x1 PUSH1 0x1 PUSH1 0x40 SHL SUB DUP2 GT PUSH2 0x815 JUMPI PUSH2 0x4005 SWAP1 CALLDATASIZE SWAP1 PUSH1 0x4 ADD PUSH2 0x4C00 JUMP JUMPDEST PUSH2 0x4021 PUSH1 0x20 PUSH1 0x44 CALLDATALOAD SWAP3 DUP2 PUSH1 0x40 MLOAD SWAP4 DUP3 DUP6 DUP1 SWAP5 MLOAD SWAP4 DUP5 SWAP3 ADD PUSH2 0x4C87 JUMP JUMPDEST DUP2 ADD PUSH1 0x10 DUP2 MSTORE SUB ADD SWAP1 KECCAK256 PUSH1 0x24 CALLDATALOAD PUSH1 0x0 MSTORE PUSH1 0x20 MSTORE PUSH1 0x40 PUSH1 0x0 KECCAK256 DUP1 SLOAD DUP3 LT ISZERO PUSH2 0x815 JUMPI PUSH1 0x80 SWAP2 PUSH2 0x404E SWAP2 PUSH2 0x4E69 JUMP JUMPDEST POP DUP1 SLOAD SWAP1 PUSH1 0xFF PUSH1 0x1 DUP3 ADD SLOAD AND SWAP1 PUSH1 0xFF PUSH1 0x3 PUSH1 0x2 DUP4 ADD SLOAD SWAP3 ADD SLOAD AND SWAP2 PUSH1 0x40 MLOAD SWAP4 DUP5 MSTORE ISZERO ISZERO PUSH1 0x20 DUP5 ADD MSTORE PUSH1 0x40 DUP4 ADD MSTORE ISZERO ISZERO PUSH1 0x60 DUP3 ADD MSTORE RETURN JUMPDEST CALLVALUE PUSH2 0x815 JUMPI PUSH1 0x20 DUP1 PUSH1 0x3 NOT CALLDATASIZE ADD SLT PUSH2 0x815 JUMPI PUSH1 0x4 CALLDATALOAD PUSH1 0x1 PUSH1 0x1 PUSH1 0x40 SHL SUB DUP2 GT PUSH2 0x815 JUMPI PUSH2 0x40B5 SWAP1 CALLDATASIZE SWAP1 PUSH1 0x4 ADD PUSH2 0x4C00 JUMP JUMPDEST SWAP1 PUSH1 0x0 SWAP2 PUSH1 0x0 DUP1 PUSH2 0x40D6 DUP5 PUSH1 0x0 SWAP5 DUP2 PUSH1 0x40 MLOAD SWAP4 DUP3 DUP6 DUP1 SWAP5 MLOAD SWAP4 DUP5 SWAP3 ADD PUSH2 0x4C87 JUMP JUMPDEST DUP2 ADD PUSH1 0xD DUP2 MSTORE SUB ADD SWAP1 KECCAK256 DUP1 SLOAD SWAP1 PUSH2 0x40EC DUP3 PUSH2 0x5328 JUMP JUMPDEST SWAP6 PUSH2 0x40FA PUSH1 0x40 MLOAD SWAP8 DUP9 PUSH2 0x4BDF JUMP JUMPDEST DUP3 DUP8 MSTORE PUSH1 0x0 SWAP2 DUP3 MSTORE DUP1 DUP3 KECCAK256 DUP2 DUP9 ADD JUMPDEST DUP5 DUP5 LT PUSH2 0x4209 JUMPI POP POP POP POP POP DUP4 MLOAD SWAP4 PUSH1 0x0 JUMPDEST DUP2 MLOAD DUP2 LT ISZERO PUSH2 0x245D JUMPI PUSH1 0xC0 PUSH2 0x4130 DUP3 DUP5 PUSH2 0x537A JUMP JUMPDEST MLOAD ADD MLOAD PUSH2 0x4140 JUMPI JUMPDEST PUSH1 0x1 ADD PUSH2 0x411B JUMP JUMPDEST SWAP3 SWAP6 PUSH2 0x414B SWAP1 PUSH2 0x538E JUMP JUMPDEST SWAP6 PUSH1 0x1 PUSH1 0x40 PUSH2 0x415A DUP7 DUP6 PUSH2 0x537A JUMP JUMPDEST MLOAD ADD MLOAD PUSH2 0x4166 DUP2 PUSH2 0x4CEF JUMP JUMPDEST PUSH2 0x416F DUP2 PUSH2 0x4CEF JUMP JUMPDEST SUB PUSH2 0x4188 JUMPI PUSH2 0x417F PUSH1 0x1 SWAP2 PUSH2 0x538E JUMP JUMPDEST SWAP4 JUMPDEST SWAP1 POP PUSH2 0x4138 JUMP JUMPDEST SWAP3 SWAP2 PUSH1 0x2 PUSH1 0x40 PUSH2 0x4198 DUP6 DUP6 PUSH2 0x537A JUMP JUMPDEST MLOAD ADD MLOAD PUSH2 0x41A4 DUP2 PUSH2 0x4CEF JUMP JUMPDEST PUSH2 0x41AD DUP2 PUSH2 0x4CEF JUMP JUMPDEST SUB PUSH2 0x41C3 JUMPI PUSH2 0x41BD PUSH1 0x1 SWAP2 PUSH2 0x538E JUMP JUMPDEST SWAP3 PUSH2 0x4181 JUMP JUMPDEST SWAP2 PUSH1 0x3 PUSH1 0x40 PUSH2 0x41D2 DUP4 DUP6 PUSH2 0x537A JUMP JUMPDEST MLOAD ADD MLOAD PUSH2 0x41DE DUP2 PUSH2 0x4CEF JUMP JUMPDEST PUSH2 0x41E7 DUP2 PUSH2 0x4CEF JUMP JUMPDEST EQ PUSH2 0x41F5 JUMPI JUMPDEST PUSH1 0x1 SWAP1 PUSH2 0x4181 JUMP JUMPDEST SWAP4 PUSH2 0x4201 PUSH1 0x1 SWAP2 PUSH2 0x538E JUMP JUMPDEST SWAP5 SWAP1 POP PUSH2 0x41ED JUMP JUMPDEST PUSH1 0x6 DUP4 PUSH1 0x1 SWAP3 PUSH2 0x4218 DUP6 PUSH2 0x53A9 JUMP JUMPDEST DUP2 MSTORE ADD SWAP3 ADD SWAP4 ADD SWAP3 SWAP1 PUSH2 0x4109 JUMP JUMPDEST CALLVALUE PUSH2 0x815 JUMPI PUSH1 0x20 DUP1 PUSH1 0x3 NOT CALLDATASIZE ADD SLT PUSH2 0x815 JUMPI PUSH1 0x4 CALLDATALOAD PUSH1 0x1 PUSH1 0x1 PUSH1 0x40 SHL SUB DUP2 GT PUSH2 0x815 JUMPI PUSH2 0x4257 SWAP1 CALLDATASIZE SWAP1 PUSH1 0x4 ADD PUSH2 0x4C00 JUMP JUMPDEST SWAP1 PUSH1 0x40 MLOAD SWAP1 DUP3 MLOAD SWAP2 DUP2 DUP2 DUP2 DUP7 ADD SWAP5 PUSH2 0x4270 DUP2 DUP4 DUP9 PUSH2 0x4C87 JUMP JUMPDEST DUP2 ADD PUSH1 0x2 DUP2 MSTORE SUB ADD SWAP1 KECCAK256 PUSH1 0x40 MLOAD DUP1 DUP3 DUP5 DUP3 SWAP5 SLOAD SWAP4 DUP5 DUP2 MSTORE ADD SWAP1 PUSH1 0x0 MSTORE DUP5 PUSH1 0x0 KECCAK256 SWAP3 PUSH1 0x0 JUMPDEST DUP7 DUP3 DUP3 LT PUSH2 0x43C5 JUMPI POP POP POP PUSH2 0x42AB SWAP3 POP SUB DUP3 PUSH2 0x4BDF JUMP JUMPDEST PUSH1 0x0 SWAP2 PUSH1 0x0 JUMPDEST DUP3 MLOAD DUP2 LT ISZERO PUSH2 0x4310 JUMPI PUSH1 0x40 MLOAD DUP3 DUP2 DUP9 MLOAD PUSH2 0x42CC DUP2 DUP4 DUP12 PUSH2 0x4C87 JUMP JUMPDEST DUP2 ADD PUSH1 0x5 DUP2 MSTORE SUB ADD SWAP1 KECCAK256 PUSH2 0x42E0 DUP3 DUP6 PUSH2 0x537A JUMP JUMPDEST MLOAD PUSH1 0x0 MSTORE DUP3 MSTORE PUSH1 0xFF PUSH1 0x40 PUSH1 0x0 KECCAK256 SLOAD AND PUSH2 0x42FC JUMPI JUMPDEST PUSH1 0x1 ADD PUSH2 0x42B1 JUMP JUMPDEST SWAP3 PUSH2 0x4308 PUSH1 0x1 SWAP2 PUSH2 0x538E JUMP JUMPDEST SWAP4 SWAP1 POP PUSH2 0x42F4 JUMP JUMPDEST POP SWAP4 SWAP3 SWAP2 SWAP4 PUSH2 0x431E DUP6 PUSH2 0x5328 JUMP JUMPDEST SWAP5 PUSH2 0x432C PUSH1 0x40 MLOAD SWAP7 DUP8 PUSH2 0x4BDF JUMP JUMPDEST DUP1 DUP7 MSTORE PUSH2 0x433B PUSH1 0x1F NOT SWAP2 PUSH2 0x5328 JUMP JUMPDEST ADD CALLDATASIZE DUP3 DUP8 ADD CALLDATACOPY PUSH1 0x0 SWAP3 PUSH1 0x0 JUMPDEST DUP4 MLOAD DUP2 LT ISZERO PUSH2 0x43B7 JUMPI PUSH1 0x1 SWAP1 PUSH1 0x40 MLOAD DUP5 DUP2 DUP10 MLOAD PUSH2 0x4365 DUP2 DUP4 DUP10 PUSH2 0x4C87 JUMP JUMPDEST DUP2 ADD PUSH1 0x5 DUP2 MSTORE SUB ADD SWAP1 KECCAK256 PUSH2 0x4379 DUP3 DUP8 PUSH2 0x537A JUMP JUMPDEST MLOAD PUSH1 0x0 MSTORE DUP5 MSTORE PUSH1 0xFF PUSH1 0x40 PUSH1 0x0 KECCAK256 SLOAD AND PUSH2 0x4393 JUMPI JUMPDEST ADD PUSH2 0x4347 JUMP JUMPDEST PUSH2 0x439D DUP2 DUP7 PUSH2 0x537A JUMP JUMPDEST MLOAD PUSH2 0x43B1 PUSH2 0x43AA DUP9 PUSH2 0x538E JUMP JUMPDEST SWAP8 DUP11 PUSH2 0x537A JUMP JUMPDEST MSTORE PUSH2 0x438D JUMP JUMPDEST PUSH1 0x40 MLOAD DUP1 PUSH2 0x115E DUP10 DUP3 PUSH2 0x4E2D JUMP JUMPDEST DUP6 SLOAD DUP5 MSTORE PUSH1 0x1 SWAP6 DUP7 ADD SWAP6 DUP8 SWAP6 POP SWAP4 ADD SWAP3 ADD PUSH2 0x4294 JUMP JUMPDEST CALLVALUE PUSH2 0x815 JUMPI PUSH1 0x20 PUSH2 0x43EE PUSH2 0x1453 CALLDATASIZE PUSH2 0x4C56 JUMP JUMPDEST DUP2 ADD PUSH1 0xF DUP2 MSTORE SUB ADD SWAP1 KECCAK256 SWAP1 PUSH1 0x0 MSTORE PUSH1 0x20 MSTORE PUSH1 0x20 PUSH1 0x40 PUSH1 0x0 KECCAK256 SLOAD PUSH1 0x40 MLOAD SWAP1 DUP2 MSTORE RETURN JUMPDEST CALLVALUE PUSH2 0x815 JUMPI PUSH1 0x20 CALLDATASIZE PUSH1 0x3 NOT ADD SLT PUSH2 0x815 JUMPI PUSH1 0x4 CALLDATALOAD PUSH1 0x1 PUSH1 0x1 PUSH1 0x40 SHL SUB DUP2 GT PUSH2 0x815 JUMPI PUSH2 0x4445 PUSH1 0x20 PUSH2 0x1DE3 DUP2 SWAP4 CALLDATASIZE SWAP1 PUSH1 0x4 ADD PUSH2 0x4C00 JUMP JUMPDEST DUP2 ADD PUSH1 0x7 DUP2 MSTORE SUB ADD SWAP1 KECCAK256 SLOAD PUSH1 0x40 MLOAD SWAP1 DUP2 MSTORE RETURN JUMPDEST CALLVALUE PUSH2 0x815 JUMPI PUSH1 0x20 DUP1 PUSH1 0x3 NOT CALLDATASIZE ADD SLT PUSH2 0x815 JUMPI PUSH1 0x4 CALLDATALOAD PUSH1 0x1 PUSH1 0x1 PUSH1 0x40 SHL SUB DUP2 GT PUSH2 0x815 JUMPI PUSH2 0x4489 SWAP1 CALLDATASIZE SWAP1 PUSH1 0x4 ADD PUSH2 0x4C00 JUMP JUMPDEST PUSH1 0x40 MLOAD SWAP1 PUSH1 0xFF DUP2 MLOAD SWAP3 DUP5 DUP2 DUP2 DUP6 ADD SWAP6 PUSH2 0x44A3 DUP2 DUP4 DUP10 PUSH2 0x4C87 JUMP JUMPDEST DUP2 ADD PUSH1 0x8 DUP2 MSTORE SUB ADD SWAP1 KECCAK256 SLOAD AND ISZERO PUSH2 0x44E3 JUMPI DUP3 PUSH2 0x44CE SWAP3 PUSH2 0x3ABA SWAP3 PUSH1 0x40 MLOAD SWAP4 DUP5 SWAP3 DUP4 SWAP3 MLOAD SWAP3 DUP4 SWAP2 PUSH2 0x4C87 JUMP JUMPDEST SWAP1 PUSH2 0x115E PUSH1 0x40 MLOAD SWAP3 DUP3 DUP5 SWAP4 DUP5 MSTORE DUP4 ADD SWAP1 PUSH2 0x4CCA JUMP JUMPDEST PUSH1 0x40 MLOAD PUSH3 0x461BCD PUSH1 0xE5 SHL DUP2 MSTORE PUSH1 0x4 DUP2 ADD DUP5 SWAP1 MSTORE PUSH1 0x13 PUSH1 0x24 DUP3 ADD MSTORE PUSH19 0x12185CDA08191BD95CC81B9BDD08195E1A5CDD PUSH1 0x6A SHL PUSH1 0x44 DUP3 ADD MSTORE PUSH1 0x64 SWAP1 REVERT JUMPDEST CALLVALUE PUSH2 0x815 JUMPI PUSH1 0x20 PUSH2 0x4531 PUSH2 0x1453 CALLDATASIZE PUSH2 0x4C56 JUMP JUMPDEST DUP2 ADD PUSH1 0x7 DUP2 MSTORE SUB ADD SWAP1 KECCAK256 SWAP1 DUP2 SLOAD DUP2 LT ISZERO PUSH2 0x815 JUMPI PUSH2 0x178F PUSH2 0x1795 SWAP2 PUSH2 0x115E SWAP4 PUSH2 0x4CF9 JUMP JUMPDEST CALLVALUE PUSH2 0x815 JUMPI PUSH1 0x0 CALLDATASIZE PUSH1 0x3 NOT ADD SLT PUSH2 0x815 JUMPI PUSH1 0x40 PUSH1 0x17 SLOAD PUSH1 0x18 SLOAD DUP3 MLOAD SWAP2 DUP3 MSTORE PUSH1 0x20 DUP3 ADD MSTORE RETURN JUMPDEST CALLVALUE PUSH2 0x815 JUMPI PUSH2 0x4588 CALLDATASIZE PUSH2 0x4C56 JUMP JUMPDEST PUSH1 0x0 DUP1 SWAP2 PUSH1 0x40 MLOAD DUP5 DUP2 DUP1 SWAP7 MLOAD PUSH2 0x45A4 DUP2 PUSH1 0x20 SWAP10 DUP11 DUP1 SWAP7 ADD PUSH2 0x4C87 JUMP JUMPDEST DUP2 ADD PUSH1 0x10 DUP2 MSTORE SUB ADD SWAP1 KECCAK256 SWAP1 PUSH1 0x0 MSTORE DUP4 MSTORE PUSH1 0x40 PUSH1 0x0 KECCAK256 SWAP2 DUP3 SLOAD PUSH2 0x45C5 DUP2 PUSH2 0x5328 JUMP JUMPDEST SWAP4 PUSH2 0x45D3 PUSH1 0x40 MLOAD SWAP6 DUP7 PUSH2 0x4BDF JUMP JUMPDEST DUP2 DUP6 MSTORE PUSH1 0x0 SWAP1 DUP2 MSTORE DUP6 DUP2 KECCAK256 DUP7 DUP1 DUP8 ADD JUMPDEST DUP5 DUP5 LT PUSH2 0x466B JUMPI POP POP POP POP POP DUP3 MLOAD SWAP3 PUSH1 0x0 JUMPDEST DUP2 MLOAD DUP2 LT ISZERO PUSH2 0x4655 JUMPI PUSH1 0x60 PUSH2 0x460A DUP3 DUP5 PUSH2 0x537A JUMP JUMPDEST MLOAD ADD MLOAD PUSH2 0x461A JUMPI JUMPDEST PUSH1 0x1 ADD PUSH2 0x45F5 JUMP JUMPDEST SWAP3 DUP6 PUSH2 0x4626 DUP6 DUP5 PUSH2 0x537A JUMP JUMPDEST MLOAD ADD MLOAD ISZERO PUSH2 0x4642 JUMPI PUSH2 0x4639 PUSH1 0x1 SWAP2 PUSH2 0x538E JUMP JUMPDEST SWAP4 JUMPDEST SWAP1 POP PUSH2 0x4612 JUMP JUMPDEST SWAP3 SWAP2 PUSH2 0x464F PUSH1 0x1 SWAP2 PUSH2 0x538E JUMP JUMPDEST SWAP3 PUSH2 0x463B JUMP JUMPDEST POP POP SWAP1 PUSH1 0x60 SWAP4 PUSH1 0x40 MLOAD SWAP4 DUP5 MSTORE DUP4 ADD MSTORE PUSH1 0x40 DUP3 ADD MSTORE RETURN JUMPDEST PUSH1 0x1 SWAP2 PUSH1 0x4 SWAP2 PUSH2 0x467A DUP6 PUSH2 0x533F JUMP JUMPDEST DUP2 MSTORE ADD SWAP3 ADD SWAP3 ADD SWAP2 SWAP1 DUP8 SWAP1 PUSH2 0x45E3 JUMP JUMPDEST CALLVALUE PUSH2 0x815 JUMPI PUSH1 0x20 DUP1 PUSH1 0x3 NOT CALLDATASIZE ADD SLT PUSH2 0x815 JUMPI PUSH1 0x4 CALLDATALOAD SWAP1 PUSH1 0x1 PUSH1 0x1 PUSH1 0x40 SHL SUB DUP3 GT PUSH2 0x815 JUMPI PUSH2 0x46BE PUSH1 0x24 SWAP3 CALLDATASIZE SWAP1 PUSH1 0x4 ADD PUSH2 0x4C00 JUMP JUMPDEST PUSH1 0x0 SLOAD PUSH1 0x40 MLOAD PUSH3 0xB0C809 PUSH1 0xE0 SHL DUP2 MSTORE CALLER PUSH1 0x4 DUP3 ADD MSTORE SWAP4 DUP4 SWAP2 DUP6 SWAP2 SWAP1 DUP3 SWAP1 PUSH1 0x1 PUSH1 0x1 PUSH1 0xA0 SHL SUB AND GAS STATICCALL SWAP3 DUP4 ISZERO PUSH2 0x822 JUMPI PUSH1 0x0 SWAP4 PUSH2 0x47E8 JUMPI JUMPDEST POP PUSH2 0x4701 DUP4 ISZERO ISZERO PUSH2 0x50E2 JUMP JUMPDEST PUSH1 0x40 MLOAD DUP2 MLOAD SWAP1 DUP4 DUP2 DUP2 DUP6 ADD SWAP4 PUSH2 0x4718 DUP2 DUP4 DUP8 PUSH2 0x4C87 JUMP JUMPDEST DUP2 ADD PUSH1 0xE DUP2 MSTORE SUB ADD SWAP1 KECCAK256 DUP5 PUSH1 0x0 MSTORE DUP4 MSTORE PUSH1 0xFF PUSH1 0x40 PUSH1 0x0 KECCAK256 SLOAD AND ISZERO PUSH2 0x47AB JUMPI PUSH32 0x7180E7A407DE506E94DC4620F97C3AF6AAF73726BE177CF5A2118A83EA08E09A SWAP2 PUSH1 0x5 PUSH2 0xA40 PUSH2 0xA4F SWAP4 PUSH1 0x40 MLOAD DUP8 DUP2 DUP7 MLOAD PUSH2 0x4773 DUP2 DUP4 DUP8 PUSH2 0x4C87 JUMP JUMPDEST DUP2 ADD PUSH1 0xF DUP2 MSTORE SUB ADD SWAP1 KECCAK256 DUP9 PUSH1 0x0 MSTORE DUP8 MSTORE PUSH2 0x2CC5 DUP8 PUSH1 0x40 PUSH1 0x0 KECCAK256 SLOAD SWAP3 PUSH2 0xA2F PUSH1 0xFF DUP8 PUSH2 0xA26 DUP8 DUP12 DUP8 PUSH1 0x40 MLOAD DUP1 SWAP3 MLOAD PUSH2 0x2CC5 DUP2 DUP4 DUP13 PUSH2 0x4C87 JUMP JUMPDEST PUSH1 0x40 MLOAD PUSH3 0x461BCD PUSH1 0xE5 SHL DUP2 MSTORE PUSH1 0x4 DUP2 ADD DUP5 SWAP1 MSTORE PUSH1 0x15 PUSH1 0x24 DUP3 ADD MSTORE PUSH21 0x139BC8191A5CDC1D5D19481D1BC81C995D1C9858DD PUSH1 0x5A SHL PUSH1 0x44 DUP3 ADD MSTORE PUSH1 0x64 SWAP1 REVERT JUMPDEST SWAP1 SWAP3 POP DUP2 DUP2 DUP2 RETURNDATASIZE DUP4 GT PUSH2 0x4810 JUMPI JUMPDEST PUSH2 0x4800 DUP2 DUP4 PUSH2 0x4BDF JUMP JUMPDEST DUP2 ADD SUB SLT PUSH2 0x815 JUMPI MLOAD SWAP2 DUP4 PUSH2 0x46F5 JUMP JUMPDEST POP RETURNDATASIZE PUSH2 0x47F6 JUMP JUMPDEST CALLVALUE PUSH2 0x815 JUMPI PUSH1 0x20 PUSH2 0x482A PUSH2 0x1453 CALLDATASIZE PUSH2 0x4C56 JUMP JUMPDEST DUP2 ADD PUSH1 0x5 DUP2 MSTORE SUB ADD SWAP1 KECCAK256 SWAP1 PUSH1 0x0 MSTORE PUSH1 0x20 MSTORE PUSH1 0x20 PUSH1 0xFF PUSH1 0x40 PUSH1 0x0 KECCAK256 SLOAD AND PUSH1 0x40 MLOAD SWAP1 ISZERO ISZERO DUP2 MSTORE RETURN JUMPDEST CALLVALUE PUSH2 0x815 JUMPI PUSH2 0x4867 PUSH2 0x4861 CALLDATASIZE PUSH2 0x4C56 JUMP JUMPDEST SWAP1 PUSH2 0x521C JUMP JUMPDEST SWAP1 PUSH2 0x1EDA PUSH1 0x40 SWAP6 SWAP5 SWAP6 MLOAD SWAP6 DUP7 SWAP6 ISZERO ISZERO DUP7 MSTORE PUSH1 0xA0 PUSH1 0x20 DUP8 ADD MSTORE PUSH1 0xA0 DUP7 ADD SWAP1 PUSH2 0x4CCA JUMP JUMPDEST CALLVALUE PUSH2 0x815 JUMPI PUSH1 0x0 CALLDATASIZE PUSH1 0x3 NOT ADD SLT PUSH2 0x815 JUMPI PUSH1 0x0 SLOAD PUSH1 0x40 MLOAD PUSH1 0x1 PUSH1 0x1 PUSH1 0xA0 SHL SUB SWAP1 SWAP2 AND DUP2 MSTORE PUSH1 0x20 SWAP1 RETURN JUMPDEST CALLVALUE PUSH2 0x815 JUMPI PUSH1 0x20 PUSH2 0x48C5 PUSH2 0x1453 CALLDATASIZE PUSH2 0x4C56 JUMP JUMPDEST DUP2 ADD PUSH1 0xB DUP2 MSTORE SUB ADD SWAP1 KECCAK256 SWAP1 PUSH1 0x0 MSTORE PUSH1 0x20 MSTORE PUSH1 0x20 PUSH1 0xFF PUSH1 0x40 PUSH1 0x0 KECCAK256 SLOAD AND PUSH1 0x40 MLOAD SWAP1 ISZERO ISZERO DUP2 MSTORE RETURN JUMPDEST CALLVALUE PUSH2 0x815 JUMPI PUSH1 0x60 CALLDATASIZE PUSH1 0x3 NOT ADD SLT PUSH2 0x815 JUMPI PUSH1 0x4 CALLDATALOAD PUSH1 0x1 PUSH1 0x1 PUSH1 0x40 SHL SUB DUP2 GT PUSH2 0x815 JUMPI PUSH2 0x491B SWAP1 CALLDATASIZE SWAP1 PUSH1 0x4 ADD PUSH2 0x4C00 JUMP JUMPDEST PUSH2 0x4923 PUSH2 0x4CAA JUMP JUMPDEST PUSH2 0x492B PUSH2 0x4CBA JUMP JUMPDEST SWAP1 PUSH1 0xFF DUP1 DUP1 SWAP3 AND SWAP3 PUSH1 0x1 DUP5 LT ISZERO DUP1 PUSH2 0x4B4D JUMPI JUMPDEST PUSH2 0x4947 SWAP1 PUSH2 0x5053 JUMP JUMPDEST AND SWAP1 PUSH1 0x1 DUP3 LT ISZERO DUP1 PUSH2 0x4B42 JUMPI JUMPDEST PUSH2 0x495D SWAP1 PUSH2 0x5096 JUMP JUMPDEST PUSH1 0x0 SLOAD PUSH1 0x40 MLOAD PUSH3 0xB0C809 PUSH1 0xE0 SHL DUP2 MSTORE CALLER PUSH1 0x4 DUP3 ADD MSTORE SWAP5 PUSH1 0x20 SWAP5 SWAP2 DUP6 SWAP1 DUP8 SWAP1 PUSH1 0x24 SWAP1 DUP3 SWAP1 PUSH1 0x1 PUSH1 0x1 PUSH1 0xA0 SHL SUB AND GAS STATICCALL SWAP6 DUP7 ISZERO PUSH2 0x822 JUMPI PUSH1 0x0 SWAP7 PUSH2 0x4B13 JUMPI JUMPDEST POP PUSH2 0x49A6 DUP7 ISZERO ISZERO PUSH2 0x50E2 JUMP JUMPDEST PUSH1 0x40 MLOAD DUP2 MLOAD SWAP1 DUP7 DUP2 DUP2 DUP6 ADD SWAP4 PUSH2 0x49BD DUP2 DUP4 DUP8 PUSH2 0x4C87 JUMP JUMPDEST DUP2 ADD PUSH1 0xE DUP2 MSTORE SUB ADD SWAP1 KECCAK256 DUP8 PUSH1 0x0 MSTORE DUP7 MSTORE DUP4 PUSH1 0x40 PUSH1 0x0 KECCAK256 SLOAD AND ISZERO PUSH2 0x4AD7 JUMPI PUSH2 0x4A1E PUSH1 0x2 SWAP2 PUSH1 0x40 MLOAD DUP9 DUP2 DUP7 MLOAD PUSH2 0x49F2 DUP2 DUP4 DUP8 PUSH2 0x4C87 JUMP JUMPDEST DUP2 ADD PUSH1 0xF DUP2 MSTORE SUB ADD SWAP1 KECCAK256 DUP10 PUSH1 0x0 MSTORE DUP9 MSTORE PUSH2 0x2CC5 DUP9 PUSH1 0x40 PUSH1 0x0 KECCAK256 SLOAD SWAP3 PUSH1 0x40 MLOAD DUP1 SWAP4 DUP2 SWAP3 DUP10 MLOAD SWAP3 DUP4 SWAP2 PUSH2 0x4C87 JUMP JUMPDEST POP PUSH2 0x4A2E DUP6 PUSH1 0x5 DUP4 ADD SLOAD AND PUSH2 0x5126 JUMP JUMPDEST ADD SWAP1 DUP2 SLOAD SWAP4 PUSH2 0x4A49 DUP2 DUP7 AND SWAP5 PUSH2 0x4A43 DUP2 PUSH2 0x4CEF JUMP JUMPDEST DUP5 PUSH2 0x5172 JUMP JUMPDEST PUSH1 0x6 DUP7 LT ISZERO PUSH2 0x26B1 JUMPI PUSH2 0x4AC0 PUSH1 0xA0 SWAP6 DUP5 PUSH2 0x4A87 PUSH32 0x5395FBD4F789F9B64D364B4F7ED8200E8D2A75A219F64DA159998CB161FDAB18 SWAP10 PUSH2 0x4ACE SWAP8 PUSH2 0x518A JUMP JUMPDEST SLOAD SWAP4 PUSH2 0x4A95 DUP5 DUP7 AND SWAP2 PUSH2 0x51A9 JUMP JUMPDEST SWAP10 PUSH1 0x40 MLOAD SWAP8 PUSH2 0x4AA3 DUP2 PUSH2 0x4CEF JUMP JUMPDEST DUP9 MSTORE PUSH2 0x4AAE DUP3 PUSH2 0x4CEF JUMP JUMPDEST DUP8 ADD MSTORE DUP3 PUSH1 0x40 DUP8 ADD SWAP2 PUSH1 0x8 SHR AND PUSH2 0x4F27 JUMP JUMPDEST PUSH1 0x60 DUP5 ADD SWAP2 PUSH1 0x8 SHR AND PUSH2 0x4F27 JUMP JUMPDEST TIMESTAMP PUSH1 0x80 DUP3 ADD MSTORE LOG3 STOP JUMPDEST PUSH1 0x40 MLOAD PUSH3 0x461BCD PUSH1 0xE5 SHL DUP2 MSTORE PUSH1 0x4 DUP2 ADD DUP8 SWAP1 MSTORE PUSH1 0x14 PUSH1 0x24 DUP3 ADD MSTORE PUSH20 0x4E6F206469737075746520746F206D6F64696679 PUSH1 0x60 SHL PUSH1 0x44 DUP3 ADD MSTORE PUSH1 0x64 SWAP1 REVERT JUMPDEST SWAP1 SWAP6 POP DUP5 DUP2 DUP2 RETURNDATASIZE DUP4 GT PUSH2 0x4B3B JUMPI JUMPDEST PUSH2 0x4B2B DUP2 DUP4 PUSH2 0x4BDF JUMP JUMPDEST DUP2 ADD SUB SLT PUSH2 0x815 JUMPI MLOAD SWAP5 DUP7 PUSH2 0x499A JUMP JUMPDEST POP RETURNDATASIZE PUSH2 0x4B21 JUMP JUMPDEST POP PUSH1 0x5 DUP3 GT ISZERO PUSH2 0x4954 JUMP JUMPDEST POP PUSH1 0x3 DUP5 GT ISZERO PUSH2 0x493E JUMP JUMPDEST PUSH1 0xC0 DUP2 ADD SWAP1 DUP2 LT PUSH1 0x1 PUSH1 0x1 PUSH1 0x40 SHL SUB DUP3 GT OR PUSH2 0x2146 JUMPI PUSH1 0x40 MSTORE JUMP JUMPDEST PUSH1 0xA0 DUP2 ADD SWAP1 DUP2 LT PUSH1 0x1 PUSH1 0x1 PUSH1 0x40 SHL SUB DUP3 GT OR PUSH2 0x2146 JUMPI PUSH1 0x40 MSTORE JUMP JUMPDEST PUSH1 0x80 DUP2 ADD SWAP1 DUP2 LT PUSH1 0x1 PUSH1 0x1 PUSH1 0x40 SHL SUB DUP3 GT OR PUSH2 0x2146 JUMPI PUSH1 0x40 MSTORE JUMP JUMPDEST PUSH1 0xE0 DUP2 ADD SWAP1 DUP2 LT PUSH1 0x1 PUSH1 0x1 PUSH1 0x40 SHL SUB DUP3 GT OR PUSH2 0x2146 JUMPI PUSH1 0x40 MSTORE JUMP JUMPDEST PUSH1 0x20 DUP2 ADD SWAP1 DUP2 LT PUSH1 0x1 PUSH1 0x1 PUSH1 0x40 SHL SUB DUP3 GT OR PUSH2 0x2146 JUMPI PUSH1 0x40 MSTORE JUMP JUMPDEST SWAP1 PUSH1 0x1F DUP1 NOT SWAP2 ADD AND DUP2 ADD SWAP1 DUP2 LT PUSH1 0x1 PUSH1 0x1 PUSH1 0x40 SHL SUB DUP3 GT OR PUSH2 0x2146 JUMPI PUSH1 0x40 MSTORE JUMP JUMPDEST DUP2 PUSH1 0x1F DUP3 ADD SLT ISZERO PUSH2 0x815 JUMPI DUP1 CALLDATALOAD SWAP1 PUSH1 0x1 PUSH1 0x1 PUSH1 0x40 SHL SUB DUP3 GT PUSH2 0x2146 JUMPI PUSH1 0x40 MLOAD SWAP3 PUSH2 0x4C34 PUSH1 0x1F DUP5 ADD PUSH1 0x1F NOT AND PUSH1 0x20 ADD DUP6 PUSH2 0x4BDF JUMP JUMPDEST DUP3 DUP5 MSTORE PUSH1 0x20 DUP4 DUP4 ADD ADD GT PUSH2 0x815 JUMPI DUP2 PUSH1 0x0 SWAP3 PUSH1 0x20 DUP1 SWAP4 ADD DUP4 DUP7 ADD CALLDATACOPY DUP4 ADD ADD MSTORE SWAP1 JUMP JUMPDEST PUSH1 0x40 PUSH1 0x3 NOT DUP3 ADD SLT PUSH2 0x815 JUMPI PUSH1 0x4 CALLDATALOAD SWAP1 PUSH1 0x1 PUSH1 0x1 PUSH1 0x40 SHL SUB DUP3 GT PUSH2 0x815 JUMPI PUSH2 0x4C80 SWAP2 PUSH1 0x4 ADD PUSH2 0x4C00 JUMP JUMPDEST SWAP1 PUSH1 0x24 CALLDATALOAD SWAP1 JUMP JUMPDEST PUSH1 0x0 JUMPDEST DUP4 DUP2 LT PUSH2 0x4C9A JUMPI POP POP PUSH1 0x0 SWAP2 ADD MSTORE JUMP JUMPDEST DUP2 DUP2 ADD MLOAD DUP4 DUP3 ADD MSTORE PUSH1 0x20 ADD PUSH2 0x4C8A JUMP JUMPDEST PUSH1 0x24 CALLDATALOAD SWAP1 PUSH1 0xFF DUP3 AND DUP3 SUB PUSH2 0x815 JUMPI JUMP JUMPDEST PUSH1 0x44 CALLDATALOAD SWAP1 PUSH1 0xFF DUP3 AND DUP3 SUB PUSH2 0x815 JUMPI JUMP JUMPDEST SWAP1 PUSH1 0x20 SWAP2 PUSH2 0x4CE3 DUP2 MLOAD DUP1 SWAP3 DUP2 DUP6 MSTORE DUP6 DUP1 DUP7 ADD SWAP2 ADD PUSH2 0x4C87 JUMP JUMPDEST PUSH1 0x1F ADD PUSH1 0x1F NOT AND ADD ADD SWAP1 JUMP JUMPDEST PUSH1 0x4 GT ISZERO PUSH2 0x26B1 JUMPI JUMP JUMPDEST DUP1 SLOAD DUP3 LT ISZERO PUSH2 0x4D11 JUMPI PUSH1 0x0 MSTORE PUSH1 0x20 PUSH1 0x0 KECCAK256 ADD SWAP1 PUSH1 0x0 SWAP1 JUMP JUMPDEST PUSH4 0x4E487B71 PUSH1 0xE0 SHL PUSH1 0x0 MSTORE PUSH1 0x32 PUSH1 0x4 MSTORE PUSH1 0x24 PUSH1 0x0 REVERT JUMPDEST SWAP1 PUSH1 0x1 DUP3 DUP2 SHR SWAP3 AND DUP1 ISZERO PUSH2 0x4D57 JUMPI JUMPDEST PUSH1 0x20 DUP4 LT EQ PUSH2 0x4D41 JUMPI JUMP JUMPDEST PUSH4 0x4E487B71 PUSH1 0xE0 SHL PUSH1 0x0 MSTORE PUSH1 0x22 PUSH1 0x4 MSTORE PUSH1 0x24 PUSH1 0x0 REVERT JUMPDEST SWAP2 PUSH1 0x7F AND SWAP2 PUSH2 0x4D36 JUMP JUMPDEST SWAP1 PUSH1 0x40 MLOAD SWAP2 DUP3 PUSH1 0x0 DUP3 SLOAD PUSH2 0x4D74 DUP2 PUSH2 0x4D27 JUMP JUMPDEST SWAP1 DUP2 DUP5 MSTORE PUSH1 0x20 SWAP5 PUSH1 0x1 SWAP2 PUSH1 0x1 DUP2 AND SWAP1 DUP2 PUSH1 0x0 EQ PUSH2 0x4DE4 JUMPI POP PUSH1 0x1 EQ PUSH2 0x4DA5 JUMPI JUMPDEST POP POP POP PUSH2 0x4DA3 SWAP3 POP SUB DUP4 PUSH2 0x4BDF JUMP JUMPDEST JUMP JUMPDEST PUSH1 0x0 SWAP1 DUP2 MSTORE DUP6 DUP2 KECCAK256 SWAP6 SWAP4 POP SWAP2 SWAP1 JUMPDEST DUP2 DUP4 LT PUSH2 0x4DCC JUMPI POP POP PUSH2 0x4DA3 SWAP4 POP DUP3 ADD ADD CODESIZE DUP1 DUP1 PUSH2 0x4D94 JUMP JUMPDEST DUP6 SLOAD DUP9 DUP5 ADD DUP6 ADD MSTORE SWAP5 DUP6 ADD SWAP5 DUP8 SWAP5 POP SWAP2 DUP4 ADD SWAP2 PUSH2 0x4DB3 JUMP JUMPDEST SWAP3 POP POP POP PUSH2 0x4DA3 SWAP5 SWAP3 POP PUSH1 0xFF NOT AND DUP3 DUP5 ADD MSTORE ISZERO ISZERO PUSH1 0x5 SHL DUP3 ADD ADD CODESIZE DUP1 DUP1 PUSH2 0x4D94 JUMP JUMPDEST SWAP1 PUSH2 0x4E17 JUMPI PUSH2 0x4E14 SWAP1 PUSH2 0x4D61 JUMP JUMPDEST SWAP1 JUMP JUMPDEST PUSH4 0x4E487B71 PUSH1 0xE0 SHL PUSH1 0x0 MSTORE PUSH1 0x0 PUSH1 0x4 MSTORE PUSH1 0x24 PUSH1 0x0 REVERT JUMPDEST PUSH1 0x20 SWAP1 PUSH1 0x20 PUSH1 0x40 DUP2 DUP4 ADD SWAP3 DUP3 DUP2 MSTORE DUP6 MLOAD DUP1 SWAP5 MSTORE ADD SWAP4 ADD SWAP2 PUSH1 0x0 JUMPDEST DUP3 DUP2 LT PUSH2 0x4E55 JUMPI POP POP POP POP SWAP1 JUMP JUMPDEST DUP4 MLOAD DUP6 MSTORE SWAP4 DUP2 ADD SWAP4 SWAP3 DUP2 ADD SWAP3 PUSH1 0x1 ADD PUSH2 0x4E47 JUMP JUMPDEST DUP1 SLOAD DUP3 LT ISZERO PUSH2 0x4D11 JUMPI PUSH1 0x0 MSTORE PUSH1 0x20 PUSH1 0x0 KECCAK256 SWAP1 PUSH1 0x2 SHL ADD SWAP1 PUSH1 0x0 SWAP1 JUMP JUMPDEST PUSH1 0x20 DUP1 DUP3 ADD SWAP1 PUSH1 0x20 DUP4 MSTORE DUP4 MLOAD DUP1 SWAP3 MSTORE PUSH1 0x40 DUP4 ADD SWAP3 PUSH1 0x20 PUSH1 0x40 DUP5 PUSH1 0x5 SHL DUP4 ADD ADD SWAP6 ADD SWAP4 PUSH1 0x0 SWAP2 JUMPDEST DUP5 DUP4 LT PUSH2 0x4EBB JUMPI POP POP POP POP POP POP SWAP1 JUMP JUMPDEST SWAP1 SWAP2 SWAP3 SWAP4 SWAP5 SWAP6 DUP5 DUP1 PUSH2 0x4ED9 PUSH1 0x1 SWAP4 PUSH1 0x3F NOT DUP7 DUP3 SUB ADD DUP8 MSTORE DUP11 MLOAD PUSH2 0x4CCA JUMP JUMPDEST SWAP9 ADD SWAP4 ADD SWAP4 ADD SWAP2 SWAP5 SWAP4 SWAP3 SWAP1 PUSH2 0x4EAB JUMP JUMPDEST PUSH1 0x60 PUSH1 0x3 NOT DUP3 ADD SLT PUSH2 0x815 JUMPI PUSH1 0x4 CALLDATALOAD SWAP1 PUSH1 0x1 PUSH1 0x1 PUSH1 0x40 SHL SUB DUP3 GT PUSH2 0x815 JUMPI PUSH2 0x4F13 SWAP2 PUSH1 0x4 ADD PUSH2 0x4C00 JUMP JUMPDEST SWAP1 PUSH1 0x24 CALLDATALOAD SWAP1 PUSH1 0x44 CALLDATALOAD DUP1 ISZERO ISZERO DUP2 SUB PUSH2 0x815 JUMPI SWAP1 JUMP JUMPDEST SWAP1 PUSH1 0x6 DUP3 LT ISZERO PUSH2 0x26B1 JUMPI MSTORE JUMP JUMPDEST PUSH1 0x40 SWAP1 PUSH1 0x3 NOT ADD SLT PUSH2 0x815 JUMPI PUSH1 0x4 CALLDATALOAD SWAP1 PUSH1 0x24 CALLDATALOAD SWAP1 JUMP JUMPDEST SWAP1 PUSH1 0x5 DUP3 LT ISZERO PUSH2 0x26B1 JUMPI MSTORE JUMP JUMPDEST SWAP5 SWAP2 SWAP4 PUSH2 0x4F87 PUSH1 0xA0 SWAP6 PUSH2 0x4F79 PUSH2 0x4F97 SWAP5 SWAP11 SWAP10 SWAP7 SWAP11 PUSH1 0xC0 DUP11 MSTORE PUSH1 0xC0 DUP11 ADD SWAP1 PUSH2 0x4CCA JUMP JUMPDEST SWAP1 DUP9 DUP3 SUB PUSH1 0x20 DUP11 ADD MSTORE PUSH2 0x4CCA JUMP JUMPDEST SWAP8 PUSH1 0x40 DUP8 ADD MSTORE PUSH1 0x60 DUP7 ADD SWAP1 PUSH2 0x4F4A JUMP JUMPDEST PUSH1 0x80 DUP5 ADD MSTORE ISZERO ISZERO SWAP2 ADD MSTORE JUMP JUMPDEST SWAP1 PUSH1 0x40 PUSH1 0x3 NOT DUP4 ADD SLT PUSH2 0x815 JUMPI PUSH1 0x1 PUSH1 0x1 PUSH1 0x40 SHL SUB PUSH1 0x4 CALLDATALOAD DUP2 DUP2 GT PUSH2 0x815 JUMPI DUP4 PUSH2 0x4FCF SWAP2 PUSH1 0x4 ADD PUSH2 0x4C00 JUMP JUMPDEST SWAP3 PUSH1 0x24 CALLDATALOAD SWAP2 DUP3 GT PUSH2 0x815 JUMPI PUSH2 0x4E14 SWAP2 PUSH1 0x4 ADD PUSH2 0x4C00 JUMP JUMPDEST DUP1 SLOAD DUP3 LT ISZERO PUSH2 0x4D11 JUMPI PUSH1 0x0 MSTORE PUSH1 0x5 PUSH1 0x20 PUSH1 0x0 KECCAK256 SWAP2 MUL ADD SWAP1 PUSH1 0x0 SWAP1 JUMP JUMPDEST PUSH1 0x60 PUSH1 0x3 NOT DUP3 ADD SLT PUSH2 0x815 JUMPI PUSH1 0x4 CALLDATALOAD SWAP1 PUSH1 0x1 PUSH1 0x1 PUSH1 0x40 SHL SUB DUP3 GT PUSH2 0x815 JUMPI PUSH2 0x502C SWAP2 PUSH1 0x4 ADD PUSH2 0x4C00 JUMP JUMPDEST SWAP1 PUSH1 0x24 CALLDATALOAD SWAP1 PUSH1 0x44 CALLDATALOAD SWAP1 JUMP JUMPDEST DUP1 SLOAD DUP3 LT ISZERO PUSH2 0x4D11 JUMPI PUSH1 0x0 MSTORE PUSH1 0x6 PUSH1 0x20 PUSH1 0x0 KECCAK256 SWAP2 MUL ADD SWAP1 PUSH1 0x0 SWAP1 JUMP JUMPDEST ISZERO PUSH2 0x505A JUMPI JUMP JUMPDEST PUSH1 0x40 MLOAD PUSH3 0x461BCD PUSH1 0xE5 SHL DUP2 MSTORE PUSH1 0x20 PUSH1 0x4 DUP3 ADD MSTORE PUSH1 0x14 PUSH1 0x24 DUP3 ADD MSTORE PUSH20 0x5365766572697479206D75737420626520312D33 PUSH1 0x60 SHL PUSH1 0x44 DUP3 ADD MSTORE PUSH1 0x64 SWAP1 REVERT JUMPDEST ISZERO PUSH2 0x509D JUMPI JUMP JUMPDEST PUSH1 0x40 MLOAD PUSH3 0x461BCD PUSH1 0xE5 SHL DUP2 MSTORE PUSH1 0x20 PUSH1 0x4 DUP3 ADD MSTORE PUSH1 0x17 PUSH1 0x24 DUP3 ADD MSTORE PUSH32 0x43756C706162696C697479206D75737420626520312D35000000000000000000 PUSH1 0x44 DUP3 ADD MSTORE PUSH1 0x64 SWAP1 REVERT JUMPDEST ISZERO PUSH2 0x50E9 JUMPI JUMP JUMPDEST PUSH1 0x40 MLOAD PUSH3 0x461BCD PUSH1 0xE5 SHL DUP2 MSTORE PUSH1 0x20 PUSH1 0x4 DUP3 ADD MSTORE PUSH1 0x15 PUSH1 0x24 DUP3 ADD MSTORE PUSH21 0x15D85B1B195D081B9BDD081C9959DA5CDD195C9959 PUSH1 0x5A SHL PUSH1 0x44 DUP3 ADD MSTORE PUSH1 0x64 SWAP1 REVERT JUMPDEST ISZERO PUSH2 0x512D JUMPI JUMP JUMPDEST PUSH1 0x40 MLOAD PUSH3 0x461BCD PUSH1 0xE5 SHL DUP2 MSTORE PUSH1 0x20 PUSH1 0x4 DUP3 ADD MSTORE PUSH1 0x1A PUSH1 0x24 DUP3 ADD MSTORE PUSH32 0x4469737075746520686173206265656E20726574726163746564000000000000 PUSH1 0x44 DUP3 ADD MSTORE PUSH1 0x64 SWAP1 REVERT JUMPDEST SWAP1 PUSH2 0x517C DUP2 PUSH2 0x4CEF JUMP JUMPDEST PUSH1 0xFF DUP1 NOT DUP4 SLOAD AND SWAP2 AND OR SWAP1 SSTORE JUMP JUMPDEST SWAP1 PUSH1 0x6 DUP2 LT ISZERO PUSH2 0x26B1 JUMPI PUSH2 0xFF00 DUP3 SLOAD SWAP2 PUSH1 0x8 SHL AND SWAP1 PUSH2 0xFF00 NOT AND OR SWAP1 SSTORE JUMP JUMPDEST PUSH2 0x51C1 SWAP1 PUSH1 0x20 PUSH1 0x40 MLOAD SWAP3 DUP3 DUP5 DUP1 SWAP5 MLOAD SWAP4 DUP5 SWAP3 ADD PUSH2 0x4C87 JUMP JUMPDEST DUP2 ADD SUB SWAP1 KECCAK256 SWAP1 JUMP JUMPDEST SWAP1 PUSH1 0x40 MLOAD PUSH2 0x51D6 DUP2 PUSH2 0x4B73 JUMP JUMPDEST PUSH1 0x80 PUSH1 0xFF PUSH1 0x4 DUP4 SWAP6 DUP1 SLOAD DUP6 MSTORE PUSH2 0x51EE PUSH1 0x1 DUP3 ADD PUSH2 0x4D61 JUMP JUMPDEST PUSH1 0x20 DUP7 ADD MSTORE DUP3 PUSH1 0x2 DUP3 ADD SLOAD AND PUSH2 0x5203 DUP2 PUSH2 0x4CEF JUMP JUMPDEST PUSH1 0x40 DUP7 ADD MSTORE PUSH1 0x3 DUP2 ADD SLOAD PUSH1 0x60 DUP7 ADD MSTORE ADD SLOAD AND ISZERO ISZERO SWAP2 ADD MSTORE JUMP JUMPDEST SWAP2 SWAP1 PUSH1 0x40 SWAP3 DUP4 MLOAD SWAP2 DUP5 DUP3 MLOAD SWAP2 PUSH1 0x20 SWAP5 DUP6 DUP2 DUP2 DUP8 ADD SWAP6 PUSH2 0x523C DUP2 DUP4 DUP10 PUSH2 0x4C87 JUMP JUMPDEST DUP2 ADD PUSH1 0xB DUP2 MSTORE SUB ADD SWAP1 KECCAK256 SWAP1 PUSH1 0x0 SWAP2 DUP2 DUP4 MSTORE DUP7 MSTORE PUSH1 0xFF DUP4 DUP4 KECCAK256 SLOAD AND ISZERO PUSH2 0x52CB JUMPI PUSH2 0x529D SWAP4 DUP4 PUSH2 0xA17 SWAP4 DUP9 SWAP4 PUSH2 0x52A3 SWAP9 SWAP7 MLOAD DUP6 DUP2 DUP10 MLOAD PUSH2 0x527B DUP2 DUP4 DUP11 PUSH2 0x4C87 JUMP JUMPDEST DUP2 ADD PUSH1 0xC DUP2 MSTORE SUB ADD SWAP1 KECCAK256 SWAP1 DUP3 MSTORE DUP5 MSTORE KECCAK256 SLOAD SWAP4 DUP10 MLOAD SWAP4 DUP5 SWAP3 DUP4 SWAP3 MLOAD SWAP3 DUP4 SWAP2 PUSH2 0x4C87 JUMP JUMPDEST POP PUSH2 0x51C9 JUMP JUMPDEST SWAP1 DUP2 ADD MLOAD SWAP3 DUP2 ADD MLOAD SWAP2 PUSH2 0x52B5 DUP4 PUSH2 0x4CEF JUMP JUMPDEST PUSH1 0x80 PUSH1 0x60 DUP4 ADD MLOAD SWAP3 ADD MLOAD ISZERO ISZERO SWAP1 PUSH1 0x1 SWAP5 SWAP4 SWAP3 SWAP2 SWAP1 JUMP JUMPDEST POP SWAP5 SWAP4 POP POP POP POP DUP2 SWAP3 MLOAD PUSH2 0x52DE DUP2 PUSH2 0x4BC4 JUMP JUMPDEST DUP3 DUP2 MSTORE SWAP2 DUP1 SWAP2 DUP2 SWAP1 JUMP JUMPDEST ISZERO PUSH2 0x52EF JUMPI JUMP JUMPDEST PUSH1 0x40 MLOAD PUSH3 0x461BCD PUSH1 0xE5 SHL DUP2 MSTORE PUSH1 0x20 PUSH1 0x4 DUP3 ADD MSTORE PUSH1 0x11 PUSH1 0x24 DUP3 ADD MSTORE PUSH17 0x105B1C9958591E481C995D1C9858DD1959 PUSH1 0x7A SHL PUSH1 0x44 DUP3 ADD MSTORE PUSH1 0x64 SWAP1 REVERT JUMPDEST PUSH1 0x1 PUSH1 0x1 PUSH1 0x40 SHL SUB DUP2 GT PUSH2 0x2146 JUMPI PUSH1 0x5 SHL PUSH1 0x20 ADD SWAP1 JUMP JUMPDEST SWAP1 PUSH1 0x40 MLOAD PUSH2 0x534C DUP2 PUSH2 0x4B8E JUMP JUMPDEST PUSH1 0x60 PUSH1 0xFF PUSH1 0x3 DUP4 SWAP6 DUP1 SLOAD DUP6 MSTORE DUP3 PUSH1 0x1 DUP3 ADD SLOAD AND ISZERO ISZERO PUSH1 0x20 DUP7 ADD MSTORE PUSH1 0x2 DUP2 ADD SLOAD PUSH1 0x40 DUP7 ADD MSTORE ADD SLOAD AND ISZERO ISZERO SWAP2 ADD MSTORE JUMP JUMPDEST DUP1 MLOAD DUP3 LT ISZERO PUSH2 0x4D11 JUMPI PUSH1 0x20 SWAP2 PUSH1 0x5 SHL ADD ADD SWAP1 JUMP JUMPDEST PUSH1 0x0 NOT DUP2 EQ PUSH2 0x3555 JUMPI PUSH1 0x1 ADD SWAP1 JUMP JUMPDEST PUSH1 0x6 DUP3 LT ISZERO PUSH2 0x26B1 JUMPI MSTORE JUMP JUMPDEST SWAP1 PUSH1 0x40 MLOAD PUSH2 0x53B6 DUP2 PUSH2 0x4BA9 JUMP JUMPDEST PUSH1 0xC0 PUSH1 0xFF PUSH1 0x5 DUP4 SWAP6 DUP1 SLOAD DUP6 MSTORE PUSH2 0x53CE PUSH1 0x1 DUP3 ADD PUSH2 0x4D61 JUMP JUMPDEST PUSH1 0x20 DUP7 ADD MSTORE PUSH2 0x53FA DUP4 PUSH1 0x2 DUP4 ADD SLOAD DUP2 DUP2 AND PUSH2 0x53E8 DUP2 PUSH2 0x4CEF JUMP JUMPDEST PUSH1 0x40 DUP10 ADD MSTORE PUSH1 0x8 SHR AND PUSH1 0x60 DUP8 ADD PUSH2 0x539D JUMP JUMPDEST PUSH2 0x5406 PUSH1 0x3 DUP3 ADD PUSH2 0x4D61 JUMP JUMPDEST PUSH1 0x80 DUP7 ADD MSTORE PUSH1 0x4 DUP2 ADD SLOAD PUSH1 0xA0 DUP7 ADD MSTORE ADD SLOAD AND ISZERO ISZERO SWAP2 ADD MSTORE JUMP JUMPDEST SWAP1 DUP2 PUSH1 0x20 SWAP2 SUB SLT PUSH2 0x815 JUMPI MLOAD DUP1 ISZERO ISZERO DUP2 SUB PUSH2 0x815 JUMPI SWAP1 JUMP JUMPDEST ISZERO PUSH2 0x543E JUMPI JUMP JUMPDEST PUSH1 0x40 MLOAD PUSH3 0x461BCD PUSH1 0xE5 SHL DUP2 MSTORE PUSH1 0x20 PUSH1 0x4 DUP3 ADD MSTORE PUSH1 0x14 PUSH1 0x24 DUP3 ADD MSTORE PUSH20 0x2737BA1030B71030B1BA34BB329036B2B6B132B9 PUSH1 0x61 SHL PUSH1 0x44 DUP3 ADD MSTORE PUSH1 0x64 SWAP1 REVERT JUMPDEST SWAP1 PUSH2 0x5492 PUSH1 0x20 SWAP2 SWAP5 SWAP4 SWAP5 PUSH1 0x40 DUP5 MSTORE PUSH1 0x40 DUP5 ADD SWAP1 PUSH2 0x4CCA JUMP JUMPDEST PUSH1 0x1 PUSH1 0x1 PUSH1 0xA0 SHL SUB SWAP1 SWAP5 AND SWAP2 ADD MSTORE JUMP JUMPDEST ISZERO PUSH2 0x54A9 JUMPI JUMP JUMPDEST PUSH1 0x40 MLOAD PUSH3 0x461BCD PUSH1 0xE5 SHL DUP2 MSTORE PUSH1 0x20 PUSH1 0x4 DUP3 ADD MSTORE PUSH1 0x18 PUSH1 0x24 DUP3 ADD MSTORE PUSH32 0x4E6F2061636365737320746F2074686973207265636F72640000000000000000 PUSH1 0x44 DUP3 ADD MSTORE PUSH1 0x64 SWAP1 REVERT JUMPDEST ISZERO PUSH2 0x54F5 JUMPI JUMP JUMPDEST PUSH1 0x40 MLOAD PUSH3 0x461BCD PUSH1 0xE5 SHL DUP2 MSTORE PUSH1 0x20 PUSH1 0x4 DUP3 ADD MSTORE PUSH1 0xA PUSH1 0x24 DUP3 ADD MSTORE PUSH10 0x27B7363C9030B236B4B7 PUSH1 0xB1 SHL PUSH1 0x44 DUP3 ADD MSTORE PUSH1 0x64 SWAP1 REVERT JUMPDEST SWAP2 SWAP1 SWAP2 DUP3 MLOAD PUSH1 0x1 PUSH1 0x1 PUSH1 0x40 SHL SUB DUP2 GT PUSH2 0x2146 JUMPI PUSH2 0x5544 DUP3 SLOAD PUSH2 0x4D27 JUMP JUMPDEST PUSH1 0x1F DUP2 GT PUSH2 0x55EF JUMPI JUMPDEST POP PUSH1 0x20 DUP1 PUSH1 0x1F DUP4 GT PUSH1 0x1 EQ PUSH2 0x558A JUMPI POP DUP2 SWAP3 SWAP4 SWAP5 PUSH1 0x0 SWAP3 PUSH2 0x557F JUMPI JUMPDEST POP POP DUP2 PUSH1 0x1 SHL SWAP2 PUSH1 0x0 NOT SWAP1 PUSH1 0x3 SHL SHR NOT AND OR SWAP1 SSTORE JUMP JUMPDEST ADD MLOAD SWAP1 POP CODESIZE DUP1 PUSH2 0x5569 JUMP JUMPDEST SWAP1 PUSH1 0x1F NOT DUP4 AND SWAP6 DUP5 PUSH1 0x0 MSTORE PUSH1 0x20 PUSH1 0x0 KECCAK256 SWAP3 PUSH1 0x0 SWAP1 JUMPDEST DUP9 DUP3 LT PUSH2 0x55D7 JUMPI POP POP DUP4 PUSH1 0x1 SWAP6 SWAP7 SWAP8 LT PUSH2 0x55BE JUMPI JUMPDEST POP POP POP DUP2 SHL ADD SWAP1 SSTORE JUMP JUMPDEST ADD MLOAD PUSH1 0x0 NOT PUSH1 0xF8 DUP5 PUSH1 0x3 SHL AND SHR NOT AND SWAP1 SSTORE CODESIZE DUP1 DUP1 PUSH2 0x55B4 JUMP JUMPDEST DUP1 PUSH1 0x1 DUP6 SWAP7 DUP3 SWAP5 SWAP7 DUP7 ADD MLOAD DUP2 SSTORE ADD SWAP6 ADD SWAP4 ADD SWAP1 PUSH2 0x559F JUMP JUMPDEST PUSH1 0x0 DUP4 PUSH1 0x0 MSTORE PUSH1 0x20 PUSH1 0x0 KECCAK256 PUSH1 0x1F DUP5 ADD PUSH1 0x5 SHR DUP2 ADD SWAP3 PUSH1 0x20 DUP6 LT PUSH2 0x562F JUMPI JUMPDEST PUSH1 0x1F ADD PUSH1 0x5 SHR ADD SWAP2 JUMPDEST DUP3 DUP2 LT PUSH2 0x5624 JUMPI POP POP PUSH2 0x554D JUMP JUMPDEST DUP2 DUP2 SSTORE PUSH1 0x1 ADD PUSH2 0x5616 JUMP JUMPDEST SWAP1 SWAP3 POP DUP3 SWAP1 PUSH2 0x560D JUMP JUMPDEST SWAP1 PUSH1 0x5 DUP2 LT ISZERO PUSH2 0x26B1 JUMPI PUSH1 0xFF DUP1 NOT DUP4 SLOAD AND SWAP2 AND OR SWAP1 SSTORE JUMP JUMPDEST ISZERO PUSH2 0x5658 JUMPI JUMP JUMPDEST PUSH1 0x40 MLOAD PUSH3 0x461BCD PUSH1 0xE5 SHL DUP2 MSTORE PUSH1 0x20 PUSH1 0x4 DUP3 ADD MSTORE PUSH1 0x13 PUSH1 0x24 DUP3 ADD MSTORE PUSH19 0x119B1859C8191BD95CC81B9BDD08195E1A5CDD PUSH1 0x6A SHL PUSH1 0x44 DUP3 ADD MSTORE PUSH1 0x64 SWAP1 REVERT JUMPDEST ISZERO PUSH2 0x569A JUMPI JUMP JUMPDEST PUSH1 0x40 MLOAD PUSH3 0x461BCD PUSH1 0xE5 SHL DUP2 MSTORE PUSH1 0x20 PUSH1 0x4 DUP3 ADD MSTORE PUSH1 0x19 PUSH1 0x24 DUP3 ADD MSTORE PUSH32 0x5265636F72642049442063616E6E6F7420626520656D70747900000000000000 PUSH1 0x44 DUP3 ADD MSTORE PUSH1 0x64 SWAP1 REVERT JUMPDEST ISZERO PUSH2 0x56E6 JUMPI JUMP JUMPDEST PUSH1 0x40 MLOAD PUSH3 0x461BCD PUSH1 0xE5 SHL DUP2 MSTORE PUSH1 0x20 PUSH1 0x4 DUP3 ADD MSTORE PUSH1 0x1B PUSH1 0x24 DUP3 ADD MSTORE PUSH32 0x5265636F726420686173682063616E6E6F7420626520656D7074790000000000 PUSH1 0x44 DUP3 ADD MSTORE PUSH1 0x64 SWAP1 REVERT JUMPDEST ISZERO PUSH2 0x5732 JUMPI JUMP JUMPDEST PUSH1 0x40 MLOAD PUSH3 0x461BCD PUSH1 0xE5 SHL DUP2 MSTORE PUSH1 0x20 PUSH1 0x4 DUP3 ADD MSTORE PUSH1 0x11 PUSH1 0x24 DUP3 ADD MSTORE PUSH17 0x4C6576656C206D75737420626520312D33 PUSH1 0x78 SHL PUSH1 0x44 DUP3 ADD MSTORE PUSH1 0x64 SWAP1 REVERT JUMPDEST DUP1 SLOAD PUSH1 0x1 PUSH1 0x40 SHL DUP2 LT ISZERO PUSH2 0x2146 JUMPI PUSH2 0x5788 SWAP2 PUSH1 0x1 DUP3 ADD DUP2 SSTORE PUSH2 0x4CF9 JUMP JUMPDEST SWAP2 SWAP1 SWAP2 PUSH2 0x4E17 JUMPI PUSH2 0x4DA3 SWAP2 PUSH2 0x5527 JUMP JUMPDEST SWAP1 PUSH1 0x40 MLOAD PUSH2 0x57A5 DUP2 PUSH2 0x4B58 JUMP JUMPDEST DUP1 SWAP3 PUSH2 0x57B0 DUP2 PUSH2 0x4D61 JUMP JUMPDEST DUP3 MSTORE PUSH2 0x57BE PUSH1 0x1 DUP3 ADD PUSH2 0x4D61 JUMP JUMPDEST PUSH1 0x20 DUP4 ADD MSTORE PUSH1 0x2 DUP2 ADD SLOAD PUSH1 0x40 DUP4 ADD MSTORE PUSH1 0xFF PUSH1 0x3 DUP3 ADD SLOAD AND SWAP1 PUSH1 0x5 DUP3 LT ISZERO PUSH2 0x26B1 JUMPI PUSH1 0x5 PUSH1 0xFF SWAP2 PUSH1 0xA0 SWAP4 PUSH1 0x60 DUP7 ADD MSTORE PUSH1 0x4 DUP2 ADD SLOAD PUSH1 0x80 DUP7 ADD MSTORE ADD SLOAD AND ISZERO ISZERO SWAP2 ADD MSTORE JUMP JUMPDEST ISZERO PUSH2 0x5807 JUMPI JUMP JUMPDEST PUSH1 0x40 MLOAD PUSH3 0x461BCD PUSH1 0xE5 SHL DUP2 MSTORE PUSH1 0x20 PUSH1 0x4 DUP3 ADD MSTORE PUSH1 0xF PUSH1 0x24 DUP3 ADD MSTORE PUSH15 0x496E76616C69642061646472657373 PUSH1 0x88 SHL PUSH1 0x44 DUP3 ADD MSTORE PUSH1 0x64 SWAP1 REVERT JUMPDEST SWAP1 PUSH1 0x40 SWAP3 DUP4 MLOAD SWAP3 DUP1 MLOAD PUSH1 0x20 SWAP5 DUP6 DUP2 DUP2 DUP6 ADD SWAP4 PUSH2 0x585B DUP2 DUP4 DUP8 PUSH2 0x4C87 JUMP JUMPDEST DUP2 ADD PUSH1 0xE DUP2 MSTORE SUB ADD SWAP1 KECCAK256 SWAP4 PUSH1 0x0 SWAP5 DUP2 DUP7 MSTORE DUP7 MSTORE PUSH1 0xFF DUP8 DUP7 KECCAK256 SLOAD AND ISZERO PUSH2 0x5916 JUMPI SWAP2 PUSH2 0x2CC5 DUP7 PUSH2 0x58BC SWAP4 PUSH2 0x58C2 SWAP6 DUP11 MLOAD DUP4 DUP2 DUP8 MLOAD PUSH2 0x5898 DUP2 DUP4 DUP9 PUSH2 0x4C87 JUMP JUMPDEST DUP2 ADD PUSH1 0xF DUP2 MSTORE SUB ADD SWAP1 KECCAK256 SWAP1 DUP10 MSTORE DUP3 MSTORE DUP10 DUP9 KECCAK256 SLOAD SWAP4 DUP11 MLOAD SWAP4 DUP5 SWAP3 DUP4 SWAP3 MLOAD SWAP3 DUP4 SWAP2 PUSH2 0x4C87 JUMP JUMPDEST POP PUSH2 0x53A9 JUMP JUMPDEST SWAP3 DUP4 ADD MLOAD SWAP4 DUP4 ADD MLOAD SWAP3 PUSH2 0x58D4 DUP5 PUSH2 0x4CEF JUMP JUMPDEST PUSH1 0x60 DUP2 ADD MLOAD SWAP3 PUSH1 0x6 DUP5 LT ISZERO PUSH2 0x5902 JUMPI POP PUSH1 0x80 DUP2 ADD MLOAD SWAP2 PUSH1 0xC0 PUSH1 0xA0 DUP4 ADD MLOAD SWAP3 ADD MLOAD ISZERO ISZERO SWAP1 PUSH1 0x1 SWAP7 SWAP6 SWAP5 SWAP4 SWAP3 SWAP2 SWAP1 JUMP JUMPDEST PUSH4 0x4E487B71 PUSH1 0xE0 SHL DUP2 MSTORE PUSH1 0x21 PUSH1 0x4 MSTORE PUSH1 0x24 SWAP1 REVERT JUMPDEST POP POP POP SWAP2 POP DUP1 SWAP3 DUP1 MLOAD PUSH2 0x5928 DUP2 PUSH2 0x4BC4 JUMP JUMPDEST DUP3 DUP2 MSTORE SWAP3 DUP3 DUP1 SWAP3 MLOAD PUSH2 0x5939 DUP2 PUSH2 0x4BC4 JUMP JUMPDEST DUP2 DUP2 MSTORE SWAP2 DUP2 SWAP1 JUMP JUMPDEST SWAP3 SWAP1 SWAP2 SWAP3 PUSH1 0x40 SWAP4 DUP5 MLOAD SWAP4 DUP3 MLOAD PUSH1 0x20 SWAP6 DUP7 DUP2 DUP2 DUP8 ADD SWAP4 PUSH2 0x5961 DUP2 DUP4 DUP8 PUSH2 0x4C87 JUMP JUMPDEST DUP2 ADD PUSH1 0x11 DUP2 MSTORE SUB ADD SWAP1 KECCAK256 SWAP3 PUSH1 0x0 SWAP4 DUP4 DUP6 MSTORE DUP8 MSTORE DUP8 DUP5 KECCAK256 DUP2 DUP6 MSTORE DUP8 MSTORE PUSH1 0xFF DUP9 DUP6 KECCAK256 SLOAD AND ISZERO PUSH2 0x5A0A JUMPI PUSH2 0x59F2 SWAP4 PUSH2 0x59EC SWAP4 PUSH2 0x59D7 DUP10 PUSH1 0x60 SWAP9 SWAP6 DUP13 SWAP6 DUP7 MLOAD DUP4 DUP2 DUP11 MLOAD PUSH2 0x59AB DUP2 DUP4 DUP9 PUSH2 0x4C87 JUMP JUMPDEST DUP2 ADD PUSH1 0x12 DUP2 MSTORE SUB ADD SWAP1 KECCAK256 DUP6 DUP8 MSTORE DUP4 MSTORE DUP7 DUP7 KECCAK256 SWAP1 DUP7 MSTORE DUP3 MSTORE DUP6 DUP6 KECCAK256 SLOAD SWAP7 DUP7 MLOAD SWAP4 DUP5 SWAP3 DUP4 SWAP3 MLOAD SWAP3 DUP4 SWAP2 PUSH2 0x4C87 JUMP JUMPDEST DUP2 ADD PUSH1 0x10 DUP2 MSTORE SUB ADD SWAP1 KECCAK256 SWAP1 DUP3 MSTORE DUP9 MSTORE KECCAK256 PUSH2 0x4E69 JUMP JUMPDEST POP PUSH2 0x533F JUMP JUMPDEST SWAP3 DUP4 ADD MLOAD ISZERO ISZERO SWAP4 DUP4 ADD MLOAD SWAP3 ADD MLOAD ISZERO ISZERO SWAP1 PUSH1 0x1 SWAP4 SWAP3 SWAP2 SWAP1 JUMP JUMPDEST POP POP POP SWAP4 POP POP SWAP1 POP DUP2 DUP1 SWAP2 DUP2 SWAP1 JUMP INVALID LOG2 PUSH5 0x6970667358 0x22 SLT KECCAK256 XOR TIMESTAMP 0xCF TIMESTAMP EXTCODESIZE 0x2C SUB 0xE2 PUSH12 0x27B7C7A88D82509B8F305AEA 0xC3 MSTORE 0xE DUP14 0x2E PUSH27 0xD45BF138364736F6C634300081700330000000000000000000000 "},"methodIdentifiers":{"activeUnacceptedFlagCount(bytes32)":"dbc7b842","addRecordHash(string,string)":"e2aae6e0","admin()":"f851a440","anchorRecord(string,string)":"883080af","disputeIndex(string,bytes32)":"25db354d","disputeReactions(string,bytes32,uint256)":"2e6df698","disputeRecord(string,string,uint8,uint8,string)":"fd328f58","disputes(string,uint256)":"ca1e910a","disputesByUser(bytes32,uint256)":"adcee102","doesHashExist(string)":"05f59439","flagUnacceptedUpdate(bytes32,string,string)":"3f132dc1","getActiveRecordSubjects(string)":"2a4e0476","getActiveUnacceptedFlagCount(bytes32)":"249dda2e","getDisputeReactions(string,bytes32)":"f5e7f9f4","getDisputeStats(string)":"6018200d","getDisputeStatsBySeverity(string)":"2cb2c1e9","getDisputes(string)":"629be2b6","getReactionStats(string,bytes32)":"1b7cabb7","getRecordHashReviewSummary(string)":"d4f7a465","getRecordIdForHash(string)":"21d9caaa","getRecordSubjects(string)":"400f8d06","getRecordVersionHistory(string)":"315ca5ba","getSubjectMedicalHistory(bytes32)":"c7695bab","getSubjectStats(string)":"7286b6f9","getTotalAnchoredRecords()":"d46e082f","getTotalReviewStats()":"1e59607a","getTotalUnacceptedFlagStats()":"d5ba54e7","getUnacceptedUpdateFlag(bytes32,uint256)":"6eb7457f","getUnacceptedUpdateFlags(bytes32)":"f251f8e4","getUserDispute(string,bytes32)":"8e3ccbcf","getUserDisputes(bytes32)":"d08c800d","getUserReaction(string,bytes32,bytes32)":"f9f70c4a","getUserReviewHistory(bytes32)":"d5be3001","getUserVerification(string,bytes32)":"19bfe5f2","getUserVerifications(bytes32)":"e08f1ac3","getVerificationStats(string)":"339a0aec","getVerificationStatsByLevel(string)":"82953131","getVerifications(string)":"2fa8db04","getVersionCount(string)":"223c3bb9","hasActiveUnacceptedFlags(bytes32)":"5d28a342","hasDisputed(string,bytes32)":"d411ff28","hasReactedToDispute(string,bytes32,bytes32)":"e3de7563","hasUserDisputed(string,bytes32)":"003297e4","hasUserReacted(string,bytes32,bytes32)":"98909e22","hasUserVerified(string,bytes32)":"0fbab50a","hasVerified(string,bytes32)":"13bf57f4","hashExists(string)":"9871e510","isActiveSubject(string,bytes32)":"f3ac2bea","isSubject(string,bytes32)":"c6bd1572","isSubjectActive(string,bytes32)":"1a6b3d2a","isSubjectOfRecord(string,bytes32)":"01b4147d","memberRoleManager()":"15370703","modifyDispute(string,uint8,uint8)":"10a0e88a","modifyReaction(string,bytes32,bool)":"5a18672e","modifyVerificationLevel(string,uint8)":"a5f2d1d1","reactToDispute(string,bytes32,bool)":"533acffd","reactionIndex(string,bytes32,bytes32)":"b0c7363c","reanchorRecord(string)":"b48ac4d2","recordIdForHash(string)":"365348e9","recordSubjects(string,uint256)":"c282f4ab","recordVersionHistory(string,uint256)":"1ec50c0e","resolveUnacceptedUpdate(bytes32,uint256,uint8)":"4b7c908a","retractDispute(string)":"1aacda88","retractReaction(string,bytes32)":"4294e2ff","retractVerification(string)":"f7c0d033","setMemberRoleManager(address)":"dd0bc082","subjectMedicalHistory(bytes32,uint256)":"b27bb4d5","totalAnchoredRecords()":"1cf8cbe8","totalDisputes()":"c5e4ccc4","totalUnacceptedFlags()":"ac924336","totalVerifications()":"ac90c140","transferAdmin(address)":"75829def","unacceptedUpdateFlags(bytes32,uint256)":"c18cf8d2","unanchorRecord(string)":"35c4c203","verificationIndex(string,bytes32)":"5d12da50","verifications(string,uint256)":"8da1d369","verificationsByUser(bytes32,uint256)":"b5e6b7a2","verifyRecord(string,string,uint8)":"5203cbed"}}}}}