{"contracts/MemberRoleManager.sol":{"MemberRoleManager":{"abi":[{"inputs":[],"stateMutability":"nonpayable","type":"constructor"},{"anonymous":false,"inputs":[{"indexed":true,"internalType":"address","name":"oldAdmin","type":"address"},{"indexed":true,"internalType":"address","name":"newAdmin","type":"address"},{"indexed":false,"internalType":"uint256","name":"timestamp","type":"uint256"}],"name":"AdminTransferred","type":"event"},{"anonymous":false,"inputs":[{"indexed":true,"internalType":"address","name":"userWallet","type":"address"},{"indexed":true,"internalType":"bytes32","name":"userIdHash","type":"bytes32"},{"indexed":false,"internalType":"uint256","name":"timestamp","type":"uint256"}],"name":"MemberRegistered","type":"event"},{"anonymous":false,"inputs":[{"indexed":true,"internalType":"address","name":"userWallet","type":"address"},{"indexed":false,"internalType":"enum MemberRoleManager.MemberStatus","name":"oldStatus","type":"uint8"},{"indexed":false,"internalType":"enum MemberRoleManager.MemberStatus","name":"newStatus","type":"uint8"},{"indexed":true,"internalType":"address","name":"changedBy","type":"address"},{"indexed":false,"internalType":"uint256","name":"timestamp","type":"uint256"}],"name":"MemberStatusChanged","type":"event"},{"anonymous":false,"inputs":[{"indexed":true,"internalType":"string","name":"recordId","type":"string"},{"indexed":true,"internalType":"address","name":"owner","type":"address"},{"indexed":false,"internalType":"uint256","name":"timestamp","type":"uint256"}],"name":"OwnerVoluntarilyLeft","type":"event"},{"anonymous":false,"inputs":[{"indexed":true,"internalType":"string","name":"recordId","type":"string"},{"indexed":true,"internalType":"address","name":"user","type":"address"},{"indexed":false,"internalType":"string","name":"oldRole","type":"string"},{"indexed":false,"internalType":"string","name":"newRole","type":"string"},{"indexed":true,"internalType":"address","name":"changedBy","type":"address"},{"indexed":false,"internalType":"uint256","name":"timestamp","type":"uint256"}],"name":"RoleChanged","type":"event"},{"anonymous":false,"inputs":[{"indexed":true,"internalType":"string","name":"recordId","type":"string"},{"indexed":true,"internalType":"address","name":"user","type":"address"},{"indexed":false,"internalType":"string","name":"role","type":"string"},{"indexed":true,"internalType":"address","name":"grantedBy","type":"address"},{"indexed":false,"internalType":"uint256","name":"timestamp","type":"uint256"}],"name":"RoleGranted","type":"event"},{"anonymous":false,"inputs":[{"indexed":true,"internalType":"string","name":"recordId","type":"string"},{"indexed":true,"internalType":"address","name":"user","type":"address"},{"indexed":false,"internalType":"string","name":"role","type":"string"},{"indexed":true,"internalType":"address","name":"revokedBy","type":"address"},{"indexed":false,"internalType":"uint256","name":"timestamp","type":"uint256"}],"name":"RoleRevoked","type":"event"},{"inputs":[{"internalType":"address","name":"userWallet","type":"address"},{"internalType":"bytes32","name":"userIdHash","type":"bytes32"}],"name":"addMember","outputs":[],"stateMutability":"nonpayable","type":"function"},{"inputs":[],"name":"admin","outputs":[{"internalType":"address","name":"","type":"address"}],"stateMutability":"view","type":"function"},{"inputs":[{"internalType":"string","name":"","type":"string"},{"internalType":"uint256","name":"","type":"uint256"}],"name":"adminsByRecord","outputs":[{"internalType":"address","name":"","type":"address"}],"stateMutability":"view","type":"function"},{"inputs":[{"internalType":"string","name":"recordId","type":"string"},{"internalType":"address","name":"user","type":"address"},{"internalType":"string","name":"newRole","type":"string"}],"name":"changeRole","outputs":[],"stateMutability":"nonpayable","type":"function"},{"inputs":[{"internalType":"address","name":"user","type":"address"}],"name":"getMember","outputs":[{"internalType":"bytes32","name":"userIdHash","type":"bytes32"},{"internalType":"enum MemberRoleManager.MemberStatus","name":"status","type":"uint8"},{"internalType":"uint256","name":"joinedAt","type":"uint256"}],"stateMutability":"view","type":"function"},{"inputs":[{"internalType":"string","name":"recordId","type":"string"}],"name":"getRecordAdmins","outputs":[{"internalType":"address[]","name":"","type":"address[]"}],"stateMutability":"view","type":"function"},{"inputs":[{"internalType":"string","name":"recordId","type":"string"}],"name":"getRecordOwners","outputs":[{"internalType":"address[]","name":"","type":"address[]"}],"stateMutability":"view","type":"function"},{"inputs":[{"internalType":"string","name":"recordId","type":"string"}],"name":"getRecordRoleStats","outputs":[{"internalType":"uint256","name":"ownerCount","type":"uint256"},{"internalType":"uint256","name":"adminCount","type":"uint256"},{"internalType":"uint256","name":"viewerCount","type":"uint256"}],"stateMutability":"view","type":"function"},{"inputs":[{"internalType":"string","name":"recordId","type":"string"}],"name":"getRecordViewers","outputs":[{"internalType":"address[]","name":"","type":"address[]"}],"stateMutability":"view","type":"function"},{"inputs":[{"internalType":"address","name":"user","type":"address"}],"name":"getRecordsByUser","outputs":[{"internalType":"string[]","name":"","type":"string[]"}],"stateMutability":"view","type":"function"},{"inputs":[{"internalType":"string","name":"recordId","type":"string"},{"internalType":"address","name":"user","type":"address"}],"name":"getRoleDetails","outputs":[{"internalType":"string","name":"role","type":"string"},{"internalType":"uint256","name":"grantedAt","type":"uint256"},{"internalType":"uint256","name":"lastModified","type":"uint256"},{"internalType":"address","name":"grantedBy","type":"address"},{"internalType":"bool","name":"isActive","type":"bool"}],"stateMutability":"view","type":"function"},{"inputs":[],"name":"getTotalRoles","outputs":[{"internalType":"uint256","name":"","type":"uint256"}],"stateMutability":"view","type":"function"},{"inputs":[{"internalType":"bytes32","name":"userIdHash","type":"bytes32"}],"name":"getWalletByUserIdHash","outputs":[{"internalType":"address","name":"","type":"address"}],"stateMutability":"view","type":"function"},{"inputs":[{"internalType":"string","name":"recordId","type":"string"},{"internalType":"address","name":"user","type":"address"},{"internalType":"string","name":"role","type":"string"}],"name":"grantRole","outputs":[],"stateMutability":"nonpayable","type":"function"},{"inputs":[{"internalType":"string","name":"recordId","type":"string"},{"internalType":"address","name":"user","type":"address"}],"name":"hasActiveRole","outputs":[{"internalType":"bool","name":"","type":"bool"}],"stateMutability":"view","type":"function"},{"inputs":[{"internalType":"string","name":"recordId","type":"string"},{"internalType":"address","name":"user","type":"address"},{"internalType":"string","name":"role","type":"string"}],"name":"hasRole","outputs":[{"internalType":"bool","name":"","type":"bool"}],"stateMutability":"view","type":"function"},{"inputs":[{"internalType":"string","name":"recordId","type":"string"},{"internalType":"address","name":"firstAdmin","type":"address"}],"name":"initializeRecordRole","outputs":[],"stateMutability":"nonpayable","type":"function"},{"inputs":[{"internalType":"address","name":"user","type":"address"}],"name":"isActiveMember","outputs":[{"internalType":"bool","name":"","type":"bool"}],"stateMutability":"view","type":"function"},{"inputs":[{"internalType":"string","name":"recordId","type":"string"},{"internalType":"address","name":"user","type":"address"}],"name":"isOwnerOrAdmin","outputs":[{"internalType":"bool","name":"","type":"bool"}],"stateMutability":"view","type":"function"},{"inputs":[{"internalType":"address","name":"user","type":"address"}],"name":"isVerifiedMember","outputs":[{"internalType":"bool","name":"","type":"bool"}],"stateMutability":"view","type":"function"},{"inputs":[{"internalType":"address","name":"","type":"address"}],"name":"members","outputs":[{"internalType":"address","name":"userWallet","type":"address"},{"internalType":"bytes32","name":"userIdHash","type":"bytes32"},{"internalType":"enum MemberRoleManager.MemberStatus","name":"status","type":"uint8"},{"internalType":"uint256","name":"joinedAt","type":"uint256"}],"stateMutability":"view","type":"function"},{"inputs":[{"internalType":"string","name":"","type":"string"},{"internalType":"uint256","name":"","type":"uint256"}],"name":"ownersByRecord","outputs":[{"internalType":"address","name":"","type":"address"}],"stateMutability":"view","type":"function"},{"inputs":[{"internalType":"bytes32","name":"","type":"bytes32"}],"name":"recordRoles","outputs":[{"internalType":"string","name":"recordId","type":"string"},{"internalType":"address","name":"user","type":"address"},{"internalType":"string","name":"role","type":"string"},{"internalType":"uint256","name":"grantedAt","type":"uint256"},{"internalType":"uint256","name":"lastModified","type":"uint256"},{"internalType":"address","name":"grantedBy","type":"address"},{"internalType":"bool","name":"isActive","type":"bool"}],"stateMutability":"view","type":"function"},{"inputs":[{"internalType":"address","name":"","type":"address"},{"internalType":"uint256","name":"","type":"uint256"}],"name":"recordsByUser","outputs":[{"internalType":"string","name":"","type":"string"}],"stateMutability":"view","type":"function"},{"inputs":[{"internalType":"string","name":"recordId","type":"string"},{"internalType":"address","name":"user","type":"address"}],"name":"revokeRole","outputs":[],"stateMutability":"nonpayable","type":"function"},{"inputs":[{"internalType":"address","name":"userWallet","type":"address"},{"internalType":"enum MemberRoleManager.MemberStatus","name":"newStatus","type":"uint8"}],"name":"setMemberStatus","outputs":[],"stateMutability":"nonpayable","type":"function"},{"inputs":[],"name":"totalMembers","outputs":[{"internalType":"uint256","name":"","type":"uint256"}],"stateMutability":"view","type":"function"},{"inputs":[],"name":"totalRoles","outputs":[{"internalType":"uint256","name":"","type":"uint256"}],"stateMutability":"view","type":"function"},{"inputs":[{"internalType":"address","name":"newAdmin","type":"address"}],"name":"transferAdmin","outputs":[],"stateMutability":"nonpayable","type":"function"},{"inputs":[{"internalType":"bytes32","name":"","type":"bytes32"}],"name":"userIdHashToAddress","outputs":[{"internalType":"address","name":"","type":"address"}],"stateMutability":"view","type":"function"},{"inputs":[{"internalType":"string","name":"","type":"string"},{"internalType":"uint256","name":"","type":"uint256"}],"name":"viewersByRecord","outputs":[{"internalType":"address","name":"","type":"address"}],"stateMutability":"view","type":"function"},{"inputs":[{"internalType":"string","name":"recordId","type":"string"}],"name":"voluntarilyRemoveOwnOwnership","outputs":[],"stateMutability":"nonpayable","type":"function"}],"evm":{"bytecode":{"linkReferences":{},"object":"608060405234801561001057600080fd5b50600080546001600160a01b03191633179055613d77806100326000396000f3fe608060405234801561001057600080fd5b50600436106101f05760003560e01c806375829def1161010f578063b55aefcc116100a2578063daa9dc2311610071578063daa9dc23146104f9578063e965bfb71461050c578063eb2bbf251461051f578063f851a4401461054357600080fd5b8063b55aefcc146104ad578063bb20b172146104c0578063cabdd23f146104d3578063cb261a03146104e657600080fd5b80639020666b116100de5780639020666b1461044b578063970ee5b914610474578063a0ca13c314610487578063aa85bf3f1461049a57600080fd5b806375829def1461041357806376e92559146104265780637798e7801461042f578063790e118c1461044257600080fd5b806341d8bde311610187578063510b300311610156578063510b3003146103ba57806357ac40c3146103cd5780636e715743146103ed578063731f21a01461040057600080fd5b806341d8bde31461035257806345ecd02f1461038057806349df7208146103935780634b6feb7c146103a857600080fd5b80631a95aca5116101c35780631a95aca5146102d75780632ada2596146102f757806333105592146103195780633dd1e8fc1461033f57600080fd5b806308ae4b0c146101f557806309012a86146102535780630c6de840146102945780631435b558146102b4575b600080fd5b61023a610203366004613443565b600160208190526000918252604090912080549181015460028201546003909201546001600160a01b0390931692909160ff169084565b60405161024a9493929190613496565b60405180910390f35b61027c6102613660046134c9565b6000908152600260205260409020546001600160a01b031690565b6040516001600160a01b03909116815260200161024a565b6102a76102a23660046134e2565b610556565b60405161024a919061355c565b6102c76102c2366004613612565b61060f565b604051901515815260200161024a565b6102ea6102e5366004613660565b610624565b60405161024a9190613695565b61030a610305366004613443565b61069e565b60405161024a939291906136e2565b61032c6103273660046134c9565b610737565b60405161024a9796959493929190613704565b6102ea61034d366004613660565b6108a1565b610365610360366004613660565b6108b3565b6040805193845260208401929092529082015260600161024a565b6102c761038e366004613443565b610924565b6103a66103a13660046134e2565b610982565b005b6009545b60405190815260200161024a565b6102ea6103c8366004613660565b610bd5565b6103e06103db366004613443565b610be7565b60405161024a9190613764565b6103a66103fb3660046137c6565b610cd6565b6103a661040e366004613612565b610e84565b6103a6610421366004613443565b611471565b6103ac60035481565b6103a661043d366004613612565b611549565b6103ac60095481565b61027c6104593660046134c9565b6002602052600090815260409020546001600160a01b031681565b61027c610482366004613801565b61174c565b6102c7610495366004613612565b611793565b6103a66104a8366004613660565b61179f565b61027c6104bb366004613801565b6119d2565b6103a66104ce366004613846565b6119fd565b6102c76104e1366004613846565b611fbf565b6102c76104f4366004613443565b611fd4565b6103a6610507366004613846565b61200c565b61027c61051a366004613801565b6129d4565b61053261052d366004613612565b6129ff565b60405161024a9594939291906138ba565b60005461027c906001600160a01b031681565b6008602052816000526040600020818154811061057257600080fd5b9060005260206000200160009150915050805461058e906138fc565b80601f01602080910402602001604051908101604052809291908181526020018280546105ba906138fc565b80156106075780601f106105dc57610100808354040283529160200191610607565b820191906000526020600020905b8154815290600101906020018083116105ea57829003601f168201915b505050505081565b600061061b8383612bfd565b90505b92915050565b60606005826040516106369190613936565b908152604080519182900360209081018320805480830285018301909352828452919083018282801561069257602002820191906000526020600020905b81546001600160a01b03168152600190910190602001808311610674575b50505050509050919050565b6001600160a01b038082166000908152600160208181526040808420815160808101835281549096168652928301549185019190915260028083015493948594859485949293909284019160ff16908111156106fc576106fc61345e565b600281111561070d5761070d61345e565b81526003919091015460209182015281015160408201516060909201519097919650945092505050565b600460205260009081526040902080548190610752906138fc565b80601f016020809104026020016040519081016040528092919081815260200182805461077e906138fc565b80156107cb5780601f106107a0576101008083540402835291602001916107cb565b820191906000526020600020905b8154815290600101906020018083116107ae57829003601f168201915b505050600184015460028501805494956001600160a01b039092169491935091506107f5906138fc565b80601f0160208091040260200160405190810160405280929190818152602001828054610821906138fc565b801561086e5780601f106108435761010080835404028352916020019161086e565b820191906000526020600020905b81548152906001019060200180831161085157829003601f168201915b5050505060038301546004840154600590940154929390929091506001600160a01b03811690600160a01b900460ff1687565b60606006826040516106369190613936565b60008060006005846040516108c89190613936565b90815260405190819003602001812054906006906108e7908790613936565b9081526040519081900360200181205490600790610906908890613936565b90815260405190819003602001902054919450925090509193909250565b6000806001600160a01b038316600090815260016020526040902060029081015460ff16908111156109585761095861345e565b1415801561061e5750506001600160a01b0316600090815260016020526040902060030154151590565b6000546001600160a01b031633146109b55760405162461bcd60e51b81526004016109ac90613952565b60405180910390fd5b6001600160a01b038216610a045760405162461bcd60e51b8152602060048201526016602482015275496e76616c69642077616c6c6574206164647265737360501b60448201526064016109ac565b6001600160a01b03821660009081526001602052604090206003015415610a605760405162461bcd60e51b815260206004820152601060248201526f20b63932b0b23c90309036b2b6b132b960811b60448201526064016109ac565b6000818152600260205260409020546001600160a01b031615610ac55760405162461bcd60e51b815260206004820152601a60248201527f5573657220494420616c7265616479207265676973746572656400000000000060448201526064016109ac565b604080516080810182526001600160a01b038481168083526020808401868152600185870181815242606088015260009485529281905295909220845181546001600160a01b03191694169390931783559051828501555160028083018054949593949293909260ff1916918490811115610b4257610b4261345e565b021790555060609190910151600391820155600082815260026020526040812080546001600160a01b0319166001600160a01b03861617905581549190610b888361398c565b919050555080826001600160a01b03167f39d132591ee0696de49ab564e4a90e430c006561917db731a2a614dd2d24559142604051610bc991815260200190565b60405180910390a35050565b60606007826040516106369190613936565b6001600160a01b0381166000908152600860209081526040808320805482518185028101850190935280835260609492939192909184015b82821015610ccb578382906000526020600020018054610c3e906138fc565b80601f0160208091040260200160405190810160405280929190818152602001828054610c6a906138fc565b8015610cb75780601f10610c8c57610100808354040283529160200191610cb7565b820191906000526020600020905b815481529060010190602001808311610c9a57829003601f168201915b505050505081526020019060010190610c1f565b505050509050919050565b6000546001600160a01b03163314610d005760405162461bcd60e51b81526004016109ac90613952565b6001600160a01b0382166000908152600160205260408120600301549003610d595760405162461bcd60e51b815260206004820152600c60248201526b2737ba10309036b2b6b132b960a11b60448201526064016109ac565b6001600160a01b038216600090815260016020526040902060029081015460ff16908290811115610d8c57610d8c61345e565b816002811115610d9e57610d9e61345e565b03610de15760405162461bcd60e51b8152602060048201526013602482015272416c726561647920746869732073746174757360681b60448201526064016109ac565b8160016000856001600160a01b03166001600160a01b0316815260200190815260200160002060020160006101000a81548160ff02191690836002811115610e2b57610e2b61345e565b0217905550336001600160a01b0316836001600160a01b03167f08df6fe77900a7f74a03489f6be278308324a06574c9d8a65c1dae5381c3881d838542604051610e77939291906139a5565b60405180910390a3505050565b6000825111610ea55760405162461bcd60e51b81526004016109ac906139c0565b6001600160a01b038116610ecb5760405162461bcd60e51b81526004016109ac906139f7565b60008282604051602001610ee0929190613a2e565b6040516020818303038152906040528051906020012090506000600460008381526020019081526020016000206040518060e0016040529081600082018054610f28906138fc565b80601f0160208091040260200160405190810160405280929190818152602001828054610f54906138fc565b8015610fa15780601f10610f7657610100808354040283529160200191610fa1565b820191906000526020600020905b815481529060010190602001808311610f8457829003601f168201915b505050918352505060018201546001600160a01b03166020820152600282018054604090920191610fd1906138fc565b80601f0160208091040260200160405190810160405280929190818152602001828054610ffd906138fc565b801561104a5780601f1061101f5761010080835404028352916020019161104a565b820191906000526020600020905b81548152906001019060200180831161102d57829003601f168201915b505050918352505060038201546020820152600482015460408201526005909101546001600160a01b0381166060830152600160a01b900460ff16151560809091015260c08101519091506110b15760405162461bcd60e51b81526004016109ac90613a65565b60408082015180516020808301919091208351808501909452600584526437bbb732b960d91b939091019290925290600080516020613ce283398151915281016111755760405162461bcd60e51b815260206004820152604960248201527f4f776e6572732063616e6e6f74206265207265766f6b65642e204f776e65722060448201527f6d7573742075736520766f6c756e746172696c7952656d6f76654f776e4f776e60648201526832b939b434b814149760b91b608482015260a4016109ac565b336001600160a01b03861614806112d7576111908733612c4d565b6111e25760405162461bcd60e51b815260206004820152602f6024820152600080516020613ca283398151915260448201526e616e207265766f6b6520726f6c657360881b60648201526084016109ac565b600061120c88336040518060400160405280600581526020016437bbb732b960d91b815250612ca9565b9050806112d55760408051808201909152600d81526c30b236b4b734b9ba3930ba37b960991b602090910152600080516020613d02833981519152831480156112d35760008060058b6040516112629190613936565b9081526040519081900360200190205411905080156112d15760405162461bcd60e51b815260206004820152602560248201527f4f6e6c79206f776e6572732063616e207265766f6b652061646d696e6973747260448201526461746f727360d81b60648201526084016109ac565b505b505b505b60408051808201909152600d81526c30b236b4b734b9ba3930ba37b960991b602090910152600080516020613d2283398151915282016113de57600060016006896040516113259190613936565b90815260200160405180910390208054905011905060008060058a60405161134d9190613936565b9081526040519081900360200190205411905081806113695750805b6113db5760405162461bcd60e51b815260206004820152603960248201527f43616e6e6f74207265766f6b65206c6173742061646d696e6973747261746f7260448201527f20776974686f757420616e206f776e65722070726573656e740000000000000060648201526084016109ac565b50505b6113e9878785612e9b565b60008581526004602081905260409182902060058101805460ff60a01b19169055429101555133906001600160a01b03881690611427908a90613936565b60405180910390207f4a3687fcb71d47fa2e61f904671324e749c46ad50a2236d66943ab0ab659bbb38642604051611460929190613aa6565b60405180910390a450505050505050565b6000546001600160a01b0316331461149b5760405162461bcd60e51b81526004016109ac90613952565b6001600160a01b0381166114e35760405162461bcd60e51b815260206004820152600f60248201526e496e76616c6964206164647265737360881b60448201526064016109ac565b6000546040514281526001600160a01b038381169216907f38df5fa0f7fef0d515ca1f5388cb5790ac5885d5fca8d05d9f943e563c33a4b39060200160405180910390a3600080546001600160a01b0319166001600160a01b0392909216919091179055565b6000546001600160a01b031633146115735760405162461bcd60e51b81526004016109ac90613952565b60008251116115945760405162461bcd60e51b81526004016109ac906139c0565b6001600160a01b0381166115dc5760405162461bcd60e51b815260206004820152600f60248201526e496e76616c6964206164647265737360881b60448201526064016109ac565b6001600160a01b038116600090815260016020526040812060029081015460ff169081111561160d5761160d61345e565b1415801561163557506001600160a01b03811660009081526001602052604090206003015415155b6116815760405162461bcd60e51b815260206004820152601860248201527f4d75737420626520616e20616374697665206d656d626572000000000000000060448201526064016109ac565b6005826040516116919190613936565b908152604051908190036020019020541580156116cb57506006826040516116b99190613936565b90815260405190819003602001902054155b6117175760405162461bcd60e51b815260206004820152601a60248201527f5265636f726420616c726561647920696e697469616c697a656400000000000060448201526064016109ac565b61174882826040518060400160405280600d81526020016c30b236b4b734b9ba3930ba37b960991b81525033612f9d565b5050565b8151602081840181018051600582529282019185019190912091905280548290811061177757600080fd5b6000918252602090912001546001600160a01b03169150829050565b600061061b8383612c4d565b60008151116117c05760405162461bcd60e51b81526004016109ac906139c0565b6117e881336040518060400160405280600581526020016437bbb732b960d91b815250612ca9565b6118405760405162461bcd60e51b815260206004820152602360248201527f596f7520617265206e6f7420616e206f776e6572206f662074686973207265636044820152621bdc9960ea1b60648201526084016109ac565b600060016005836040516118549190613936565b90815260200160405180910390208054905011905060008060068460405161187c9190613936565b9081526040519081900360200190205411905081806118985750805b61190a5760405162461bcd60e51b815260206004820152603b60248201527f43616e6e6f742072656d6f766520796f757273656c66206173206c617374206f60448201527f776e65722077697468206e6f2061646d696e6973747261746f7273000000000060648201526084016109ac565b6000833360405160200161191f929190613a2e565b60405160208183030381529060405280519060200120905061195f84336040518060400160405280600581526020016437bbb732b960d91b815250612e9b565b60008181526004602081905260409182902060058101805460ff60a01b1916905542910155513390611992908690613936565b604051908190038120428252907fcf5e8e3b738fc92454ce623ca55f54d14fdd7beea3859deb72f5171ad234092d9060200160405180910390a350505050565b8151602081840181018051600782529282019185019190912091905280548290811061177757600080fd5b33600090815260016020526040812060029081015460ff1690811115611a2557611a2561345e565b14158015611a4457503360009081526001602052604090206003015415155b611a875760405162461bcd60e51b81526020600482015260146024820152732737ba1030b71030b1ba34bb329036b2b6b132b960611b60448201526064016109ac565b6000835111611aa85760405162461bcd60e51b81526004016109ac906139c0565b6001600160a01b038216611ace5760405162461bcd60e51b81526004016109ac906139f7565b805160208083019190912060408051808201909152600581526437bbb732b960d91b9201919091527f02016836a56b71f0d02689e69e326f4f4c1b9057164ef592671cf0d37c8040c0811480611b56575060408051808201909152600d81526c30b236b4b734b9ba3930ba37b960991b602090910152600080516020613d0283398151915281145b80611b9e57506040805180820190915260068152653b34b2bbb2b960d11b6020909101527f120310a1203e5851b63a4d0b2c5643d3fba07783d2b04d7222298a1ed22e1e0d81145b611bba5760405162461bcd60e51b81526004016109ac90613ac8565b60008433604051602001611bcf929190613a2e565b60408051808303601f19018152918152815160209283012060008181526004909352912060050154909150600160a01b900460ff16611c505760405162461bcd60e51b815260206004820181905260248201527f596f752068617665206e6f20726f6c6520666f722074686973207265636f726460448201526064016109ac565b600080600587604051611c639190613936565b9081526020016040518091039020805490501190506000611ca287336040518060400160405280600581526020016437bbb732b960d91b815250612ca9565b90506000611cd688336040518060400160405280600d81526020016c30b236b4b734b9ba3930ba37b960991b815250612ca9565b60408051808201909152600581526437bbb732b960d91b6020909101529050600080516020613ce28339815191528501611dc1578215611d625781611d5d5760405162461bcd60e51b815260206004820181905260248201527f4f6e6c79206f776e6572732063616e206772616e74206f776e657220726f6c6560448201526064016109ac565b611ef7565b80611d5d5760405162461bcd60e51b815260206004820152602960248201527f4f6e6c792061646d696e6973747261746f72732063616e206772616e742066696044820152683939ba1037bbb732b960b91b60648201526084016109ac565b60408051808201909152600d81526c30b236b4b734b9ba3930ba37b960991b602090910152600080516020613d228339815191528501611e64578180611e045750805b611d5d5760405162461bcd60e51b815260206004820152603b6024820152600080516020613ca283398151915260448201527f616e206772616e742061646d696e6973747261746f7220726f6c65000000000060648201526084016109ac565b6040805180820190915260068152653b34b2bbb2b960d11b602090910152600080516020613cc28339815191528501611ef7578180611ea05750805b611ef75760405162461bcd60e51b81526020600482015260346024820152600080516020613ca2833981519152604482015273616e206772616e742076696577657220726f6c6560601b60648201526084016109ac565b60008888604051602001611f0c929190613a2e565b60408051808303601f19018152918152815160209283012060008181526004909352912060050154909150600160a01b900460ff1615611fa85760405162461bcd60e51b815260206004820152603160248201527f5573657220616c726561647920686173206120726f6c652e20557365206368616044820152701b99d9549bdb194a0a481a5b9cdd195859607a1b60648201526084016109ac565b611fb489898933612f9d565b505050505050505050565b6000611fcc848484612ca9565b949350505050565b6001600160a01b038116600090815260016020526040812060029081015460ff16818111156120055761200561345e565b1492915050565b33600090815260016020526040812060029081015460ff16908111156120345761203461345e565b1415801561205357503360009081526001602052604090206003015415155b6120965760405162461bcd60e51b81526020600482015260146024820152732737ba1030b71030b1ba34bb329036b2b6b132b960611b60448201526064016109ac565b60008351116120b75760405162461bcd60e51b81526004016109ac906139c0565b6001600160a01b0382166120dd5760405162461bcd60e51b81526004016109ac906139f7565b805160208083019190912060408051808201909152600581526437bbb732b960d91b9201919091527f02016836a56b71f0d02689e69e326f4f4c1b9057164ef592671cf0d37c8040c0811480612165575060408051808201909152600d81526c30b236b4b734b9ba3930ba37b960991b602090910152600080516020613d0283398151915281145b806121ad57506040805180820190915260068152653b34b2bbb2b960d11b6020909101527f120310a1203e5851b63a4d0b2c5643d3fba07783d2b04d7222298a1ed22e1e0d81145b6121c95760405162461bcd60e51b81526004016109ac90613ac8565b600084846040516020016121de929190613a2e565b6040516020818303038152906040528051906020012090506000600460008381526020019081526020016000206040518060e0016040529081600082018054612226906138fc565b80601f0160208091040260200160405190810160405280929190818152602001828054612252906138fc565b801561229f5780601f106122745761010080835404028352916020019161229f565b820191906000526020600020905b81548152906001019060200180831161228257829003601f168201915b505050918352505060018201546001600160a01b031660208201526002820180546040909201916122cf906138fc565b80601f01602080910402602001604051908101604052809291908181526020018280546122fb906138fc565b80156123485780601f1061231d57610100808354040283529160200191612348565b820191906000526020600020905b81548152906001019060200180831161232b57829003601f168201915b505050918352505060038201546020820152600482015460408201526005909101546001600160a01b0381166060830152600160a01b900460ff16151560809091015260c08101519091506123af5760405162461bcd60e51b81526004016109ac90613a65565b60408101518051602082012084810361240a5760405162461bcd60e51b815260206004820152601a60248201527f5573657220616c726561647920686173207468697320726f6c6500000000000060448201526064016109ac565b60408051808201909152600581526437bbb732b960d91b602090910152600080516020613ce283398151915281016124b65760405162461bcd60e51b815260206004820152604360248201527f4f776e6572732063616e6e6f742062652064656d6f7465642e204f776e65722060448201527f6d75737420766f6c756e746172696c792072656d6f7665207468656d73656c7660648201526232b99760e91b608482015260a4016109ac565b60008060058a6040516124c99190613936565b90815260200160405180910390208054905011905060006125088a336040518060400160405280600581526020016437bbb732b960d91b815250612ca9565b9050600061253c8b336040518060400160405280600d81526020016c30b236b4b734b9ba3930ba37b960991b815250612ca9565b60408051808201909152600581526437bbb732b960d91b6020909101529050336001600160a01b038b1614600080516020613ce283398151915289016126355783156125d457826125cf5760405162461bcd60e51b815260206004820181905260248201527f4f6e6c79206f776e6572732063616e2070726f6d6f746520746f206f776e657260448201526064016109ac565b612804565b816125cf5760405162461bcd60e51b815260206004820152602b60248201527f4f6e6c792061646d696e6973747261746f72732063616e2070726f6d6f74652060448201526a3334b939ba1037bbb732b960a91b60648201526084016109ac565b60408051808201909152600d81526c30b236b4b734b9ba3930ba37b960991b602090910152600080516020613d2283398151915289016126d85782806126785750815b6125cf5760405162461bcd60e51b815260206004820152603b6024820152600080516020613ca283398151915260448201527f616e2070726f6d6f746520746f2061646d696e6973747261746f72000000000060648201526084016109ac565b6040805180820190915260068152653b34b2bbb2b960d11b602090910152600080516020613cc283398151915289016128045783156127a657828061272257508180156127225750805b6125cf5760405162461bcd60e51b815260206004820152604960248201527f4f6e6c79206f776e6572732063616e2064656d6f7465206f74686572732e204160448201527f646d696e6973747261746f72732063616e206f6e6c792064656d6f746520746860648201526832b6b9b2b63b32b99760b91b608482015260a4016109ac565b816128045760405162461bcd60e51b815260206004820152602860248201527f4f6e6c792061646d696e6973747261746f72732063616e2064656d6f7465207460448201526737903b34b2bbb2b960c11b60648201526084016109ac565b60408051808201909152600d81526c30b236b4b734b9ba3930ba37b960991b602090910152600080516020613d028339815191528514801561288357506040805180820190915260068152653b34b2bbb2b960d11b6020909101527f120310a1203e5851b63a4d0b2c5643d3fba07783d2b04d7222298a1ed22e1e0d89145b15612922578361292257600160068d60405161289f9190613936565b90815260405190819003602001902054116129225760405162461bcd60e51b815260206004820152603960248201527f43616e6e6f742064656d6f746520746865206c6173742061646d696e6973747260448201527f61746f72207768656e206e6f206f776e6572206578697374730000000000000060648201526084016109ac565b61292d8c8c88612e9b565b6129388c8c8c6131bc565b60008881526004602052604090206002016129538b82613b6c565b50600088815260046020819052604091829020429101555133906001600160a01b038d1690612983908f90613936565b60405180910390207fa9b92b2b183a6569cac9b7675bea182897aa18a7ca2a6fb370a6f5825633961c898e426040516129be93929190613c2c565b60405180910390a4505050505050505050505050565b8151602081840181018051600682529282019185019190912091905280548290811061177757600080fd5b606060008060008060008787604051602001612a1c929190613a2e565b6040516020818303038152906040528051906020012090506000600460008381526020019081526020016000206040518060e0016040529081600082018054612a64906138fc565b80601f0160208091040260200160405190810160405280929190818152602001828054612a90906138fc565b8015612add5780601f10612ab257610100808354040283529160200191612add565b820191906000526020600020905b815481529060010190602001808311612ac057829003601f168201915b505050918352505060018201546001600160a01b03166020820152600282018054604090920191612b0d906138fc565b80601f0160208091040260200160405190810160405280929190818152602001828054612b39906138fc565b8015612b865780601f10612b5b57610100808354040283529160200191612b86565b820191906000526020600020905b815481529060010190602001808311612b6957829003601f168201915b50505091835250506003820154602082015260048201546040808301919091526005909201546001600160a01b038116606080840191909152600160a01b90910460ff16151560809283015291830151918301519083015160a084015160c090940151929d919c509a509198509650945050505050565b6000808383604051602001612c13929190613a2e565b60408051808303601f19018152918152815160209283012060009081526004909252902060050154600160a01b900460ff16949350505050565b6000612c7783836040518060400160405280600581526020016437bbb732b960d91b815250612ca9565b8061061b575061061b83836040518060400160405280600d81526020016c30b236b4b734b9ba3930ba37b960991b8152505b6000808484604051602001612cbf929190613a2e565b6040516020818303038152906040528051906020012090506000600460008381526020019081526020016000206040518060e0016040529081600082018054612d07906138fc565b80601f0160208091040260200160405190810160405280929190818152602001828054612d33906138fc565b8015612d805780601f10612d5557610100808354040283529160200191612d80565b820191906000526020600020905b815481529060010190602001808311612d6357829003601f168201915b505050918352505060018201546001600160a01b03166020820152600282018054604090920191612db0906138fc565b80601f0160208091040260200160405190810160405280929190818152602001828054612ddc906138fc565b8015612e295780601f10612dfe57610100808354040283529160200191612e29565b820191906000526020600020905b815481529060010190602001808311612e0c57829003601f168201915b505050918352505060038201546020820152600482015460408201526005909101546001600160a01b0381166060830152600160a01b900460ff16151560809091015260c08101519091508015612e9157508380519060200120816040015180519060200120145b9695505050505050565b805160208083019190912060408051808201909152600581526437bbb732b960d91b920191909152600080516020613ce28339815191528101612f0457612eff600585604051612eeb9190613936565b908152602001604051809103902084613319565b612f97565b60408051808201909152600d81526c30b236b4b734b9ba3930ba37b960991b602090910152600080516020613d228339815191528101612f5157612eff600685604051612eeb9190613936565b6040805180820190915260068152653b34b2bbb2b960d11b602090910152600080516020613cc28339815191528101612f9757612f97600785604051612eeb9190613936565b50505050565b60008484604051602001612fb2929190613a2e565b60408051808303601f1901815282825280516020918201206000818152600483528390206005015460e0850184528985526001600160a01b03891692850192909252918301869052909250600160a01b900460ff16906060810182613017574261302a565b6000848152600460205260409020600301545b8152426020808301919091526001600160a01b038616604080840191909152600160609093019290925260008581526004909152208151819061306d9082613b6c565b5060208201516001820180546001600160a01b0319166001600160a01b03909216919091179055604082015160028201906130a89082613b6c565b50606082015160038201556080820151600482015560a08201516005909101805460c0909301511515600160a01b026001600160a81b03199093166001600160a01b039092169190911791909117905580613151576131088686866131bc565b6001600160a01b03851660009081526008602090815260408220805460018101825590835291200161313a8782613b6c565b506009805490600061314b8361398c565b91905055505b826001600160a01b0316856001600160a01b0316876040516131739190613936565b60405180910390207fb11bb86c7a250ec130229577f2dfa0480d10122b9b1c02fb81df81959f1a791187426040516131ac929190613aa6565b60405180910390a4505050505050565b805160208083019190912060408051808201909152600581526437bbb732b960d91b920191909152600080516020613ce28339815191528101613248576005846040516132099190613936565b90815260405160209181900382019020805460018101825560009182529190200180546001600160a01b0319166001600160a01b038516179055612f97565b60408051808201909152600d81526c30b236b4b734b9ba3930ba37b960991b602090910152600080516020613d228339815191528101613292576006846040516132099190613936565b6040805180820190915260068152653b34b2bbb2b960d11b602090910152600080516020613cc28339815191528101612f97576007846040516132d59190613936565b908152604051908190036020908101909120805460018101825560009182529190200180546001600160a01b0385166001600160a01b031990911617905550505050565b60005b825481101561342257816001600160a01b031683828154811061334157613341613c62565b6000918252602090912001546001600160a01b031603613410578254839061336b90600190613c78565b8154811061337b5761337b613c62565b9060005260206000200160009054906101000a90046001600160a01b03168382815481106133ab576133ab613c62565b9060005260206000200160006101000a8154816001600160a01b0302191690836001600160a01b03160217905550828054806133e9576133e9613c8b565b600082815260209020810160001990810180546001600160a01b0319169055019055505050565b8061341a8161398c565b91505061331c565b505050565b80356001600160a01b038116811461343e57600080fd5b919050565b60006020828403121561345557600080fd5b61061b82613427565b634e487b7160e01b600052602160045260246000fd5b6003811061349257634e487b7160e01b600052602160045260246000fd5b9052565b6001600160a01b038516815260208101849052608081016134ba6040830185613474565b82606083015295945050505050565b6000602082840312156134db57600080fd5b5035919050565b600080604083850312156134f557600080fd5b6134fe83613427565b946020939093013593505050565b60005b8381101561352757818101518382015260200161350f565b50506000910152565b6000815180845261354881602086016020860161350c565b601f01601f19169290920160200192915050565b60208152600061061b6020830184613530565b634e487b7160e01b600052604160045260246000fd5b600082601f83011261359657600080fd5b813567ffffffffffffffff808211156135b1576135b161356f565b604051601f8301601f19908116603f011681019082821181831017156135d9576135d961356f565b816040528381528660208588010111156135f257600080fd5b836020870160208301376000602085830101528094505050505092915050565b6000806040838503121561362557600080fd5b823567ffffffffffffffff81111561363c57600080fd5b61364885828601613585565b92505061365760208401613427565b90509250929050565b60006020828403121561367257600080fd5b813567ffffffffffffffff81111561368957600080fd5b611fcc84828501613585565b6020808252825182820181905260009190848201906040850190845b818110156136d65783516001600160a01b0316835292840192918401916001016136b1565b50909695505050505050565b838152606081016136f66020830185613474565b826040830152949350505050565b60e08152600061371760e083018a613530565b6001600160a01b0389811660208501528382036040850152613739828a613530565b6060850198909852608084019690965250509190921660a082015290151560c0909101529392505050565b6000602080830181845280855180835260408601915060408160051b870101925083870160005b828110156137b957603f198886030184526137a7858351613530565b9450928501929085019060010161378b565b5092979650505050505050565b600080604083850312156137d957600080fd5b6137e283613427565b91506020830135600381106137f657600080fd5b809150509250929050565b6000806040838503121561381457600080fd5b823567ffffffffffffffff81111561382b57600080fd5b61383785828601613585565b95602094909401359450505050565b60008060006060848603121561385b57600080fd5b833567ffffffffffffffff8082111561387357600080fd5b61387f87838801613585565b945061388d60208701613427565b935060408601359150808211156138a357600080fd5b506138b086828701613585565b9150509250925092565b60a0815260006138cd60a0830188613530565b60208301969096525060408101939093526001600160a01b039190911660608301521515608090910152919050565b600181811c9082168061391057607f821691505b60208210810361393057634e487b7160e01b600052602260045260246000fd5b50919050565b6000825161394881846020870161350c565b9190910192915050565b6020808252600a908201526927b7363c9030b236b4b760b11b604082015260600190565b634e487b7160e01b600052601160045260246000fd5b60006001820161399e5761399e613976565b5060010190565b606081016139b38286613474565b6136f66020830185613474565b60208082526019908201527f5265636f72642049442063616e6e6f7420626520656d70747900000000000000604082015260600190565b6020808252601b908201527f5573657220616464726573732063616e6e6f74206265207a65726f0000000000604082015260600190565b60008351613a4081846020880161350c565b60609390931b6bffffffffffffffffffffffff19169190920190815260140192915050565b60208082526021908201527f5573657220646f6573206e6f74206861766520616e2061637469766520726f6c6040820152606560f81b606082015260800190565b604081526000613ab96040830185613530565b90508260208301529392505050565b60208082526036908201527f496e76616c696420726f6c652e204d7573742062653a206f776e65722c20616460408201527536b4b734b9ba3930ba37b9161037b9103b34b2bbb2b960511b606082015260800190565b601f82111561342257600081815260208120601f850160051c81016020861015613b455750805b601f850160051c820191505b81811015613b6457828155600101613b51565b505050505050565b815167ffffffffffffffff811115613b8657613b8661356f565b613b9a81613b9484546138fc565b84613b1e565b602080601f831160018114613bcf5760008415613bb75750858301515b600019600386901b1c1916600185901b178555613b64565b600085815260208120601f198616915b82811015613bfe57888601518255948401946001909101908401613bdf565b5085821015613c1c5787850151600019600388901b60f8161c191681555b5050505050600190811b01905550565b606081526000613c3f6060830186613530565b8281036020840152613c518186613530565b915050826040830152949350505050565b634e487b7160e01b600052603260045260246000fd5b8181038181111561061e5761061e613976565b634e487b7160e01b600052603160045260246000fdfe4f6e6c79206f776e65727320616e642061646d696e6973747261746f72732063edfcef5edfc1a7ae49c5b2f4d3a9bc2c045f887c2d4fb28dddd675e12dd1e1f3fdfe97c95a948e0f2fd9761961cd90b0b3e46fa8e9b10a6d98e30f2c837fbf40b9f092e3b1ecc5f16749a6a275c159ead9cf216a95a0b902d2f260f98f91b9a0460f6d1c4e133a0e98b6595d8a3ea6152630de956a5f46fd2d0d9f06706e4660a2646970667358221220a499a361c34358002496e4a254ff8f78163684b4ff4accaffd7f10bb6849582164736f6c63430008130033","opcodes":"PUSH1 0x80 PUSH1 0x40 MSTORE CALLVALUE DUP1 ISZERO PUSH2 0x10 JUMPI PUSH1 0x0 DUP1 REVERT JUMPDEST POP PUSH1 0x0 DUP1 SLOAD PUSH1 0x1 PUSH1 0x1 PUSH1 0xA0 SHL SUB NOT AND CALLER OR SWAP1 SSTORE PUSH2 0x3D77 DUP1 PUSH2 0x32 PUSH1 0x0 CODECOPY PUSH1 0x0 RETURN INVALID PUSH1 0x80 PUSH1 0x40 MSTORE CALLVALUE DUP1 ISZERO PUSH2 0x10 JUMPI PUSH1 0x0 DUP1 REVERT JUMPDEST POP PUSH1 0x4 CALLDATASIZE LT PUSH2 0x1F0 JUMPI PUSH1 0x0 CALLDATALOAD PUSH1 0xE0 SHR DUP1 PUSH4 0x75829DEF GT PUSH2 0x10F JUMPI DUP1 PUSH4 0xB55AEFCC GT PUSH2 0xA2 JUMPI DUP1 PUSH4 0xDAA9DC23 GT PUSH2 0x71 JUMPI DUP1 PUSH4 0xDAA9DC23 EQ PUSH2 0x4F9 JUMPI DUP1 PUSH4 0xE965BFB7 EQ PUSH2 0x50C JUMPI DUP1 PUSH4 0xEB2BBF25 EQ PUSH2 0x51F JUMPI DUP1 PUSH4 0xF851A440 EQ PUSH2 0x543 JUMPI PUSH1 0x0 DUP1 REVERT JUMPDEST DUP1 PUSH4 0xB55AEFCC EQ PUSH2 0x4AD JUMPI DUP1 PUSH4 0xBB20B172 EQ PUSH2 0x4C0 JUMPI DUP1 PUSH4 0xCABDD23F EQ PUSH2 0x4D3 JUMPI DUP1 PUSH4 0xCB261A03 EQ PUSH2 0x4E6 JUMPI PUSH1 0x0 DUP1 REVERT JUMPDEST DUP1 PUSH4 0x9020666B GT PUSH2 0xDE JUMPI DUP1 PUSH4 0x9020666B EQ PUSH2 0x44B JUMPI DUP1 PUSH4 0x970EE5B9 EQ PUSH2 0x474 JUMPI DUP1 PUSH4 0xA0CA13C3 EQ PUSH2 0x487 JUMPI DUP1 PUSH4 0xAA85BF3F EQ PUSH2 0x49A JUMPI PUSH1 0x0 DUP1 REVERT JUMPDEST DUP1 PUSH4 0x75829DEF EQ PUSH2 0x413 JUMPI DUP1 PUSH4 0x76E92559 EQ PUSH2 0x426 JUMPI DUP1 PUSH4 0x7798E780 EQ PUSH2 0x42F JUMPI DUP1 PUSH4 0x790E118C EQ PUSH2 0x442 JUMPI PUSH1 0x0 DUP1 REVERT JUMPDEST DUP1 PUSH4 0x41D8BDE3 GT PUSH2 0x187 JUMPI DUP1 PUSH4 0x510B3003 GT PUSH2 0x156 JUMPI DUP1 PUSH4 0x510B3003 EQ PUSH2 0x3BA JUMPI DUP1 PUSH4 0x57AC40C3 EQ PUSH2 0x3CD JUMPI DUP1 PUSH4 0x6E715743 EQ PUSH2 0x3ED JUMPI DUP1 PUSH4 0x731F21A0 EQ PUSH2 0x400 JUMPI PUSH1 0x0 DUP1 REVERT JUMPDEST DUP1 PUSH4 0x41D8BDE3 EQ PUSH2 0x352 JUMPI DUP1 PUSH4 0x45ECD02F EQ PUSH2 0x380 JUMPI DUP1 PUSH4 0x49DF7208 EQ PUSH2 0x393 JUMPI DUP1 PUSH4 0x4B6FEB7C EQ PUSH2 0x3A8 JUMPI PUSH1 0x0 DUP1 REVERT JUMPDEST DUP1 PUSH4 0x1A95ACA5 GT PUSH2 0x1C3 JUMPI DUP1 PUSH4 0x1A95ACA5 EQ PUSH2 0x2D7 JUMPI DUP1 PUSH4 0x2ADA2596 EQ PUSH2 0x2F7 JUMPI DUP1 PUSH4 0x33105592 EQ PUSH2 0x319 JUMPI DUP1 PUSH4 0x3DD1E8FC EQ PUSH2 0x33F JUMPI PUSH1 0x0 DUP1 REVERT JUMPDEST DUP1 PUSH4 0x8AE4B0C EQ PUSH2 0x1F5 JUMPI DUP1 PUSH4 0x9012A86 EQ PUSH2 0x253 JUMPI DUP1 PUSH4 0xC6DE840 EQ PUSH2 0x294 JUMPI DUP1 PUSH4 0x1435B558 EQ PUSH2 0x2B4 JUMPI JUMPDEST PUSH1 0x0 DUP1 REVERT JUMPDEST PUSH2 0x23A PUSH2 0x203 CALLDATASIZE PUSH1 0x4 PUSH2 0x3443 JUMP JUMPDEST PUSH1 0x1 PUSH1 0x20 DUP2 SWAP1 MSTORE PUSH1 0x0 SWAP2 DUP3 MSTORE PUSH1 0x40 SWAP1 SWAP2 KECCAK256 DUP1 SLOAD SWAP2 DUP2 ADD SLOAD PUSH1 0x2 DUP3 ADD SLOAD PUSH1 0x3 SWAP1 SWAP3 ADD SLOAD PUSH1 0x1 PUSH1 0x1 PUSH1 0xA0 SHL SUB SWAP1 SWAP4 AND SWAP3 SWAP1 SWAP2 PUSH1 0xFF AND SWAP1 DUP5 JUMP JUMPDEST PUSH1 0x40 MLOAD PUSH2 0x24A SWAP5 SWAP4 SWAP3 SWAP2 SWAP1 PUSH2 0x3496 JUMP JUMPDEST PUSH1 0x40 MLOAD DUP1 SWAP2 SUB SWAP1 RETURN JUMPDEST PUSH2 0x27C PUSH2 0x261 CALLDATASIZE PUSH1 0x4 PUSH2 0x34C9 JUMP JUMPDEST PUSH1 0x0 SWAP1 DUP2 MSTORE PUSH1 0x2 PUSH1 0x20 MSTORE PUSH1 0x40 SWAP1 KECCAK256 SLOAD PUSH1 0x1 PUSH1 0x1 PUSH1 0xA0 SHL SUB AND SWAP1 JUMP JUMPDEST PUSH1 0x40 MLOAD PUSH1 0x1 PUSH1 0x1 PUSH1 0xA0 SHL SUB SWAP1 SWAP2 AND DUP2 MSTORE PUSH1 0x20 ADD PUSH2 0x24A JUMP JUMPDEST PUSH2 0x2A7 PUSH2 0x2A2 CALLDATASIZE PUSH1 0x4 PUSH2 0x34E2 JUMP JUMPDEST PUSH2 0x556 JUMP JUMPDEST PUSH1 0x40 MLOAD PUSH2 0x24A SWAP2 SWAP1 PUSH2 0x355C JUMP JUMPDEST PUSH2 0x2C7 PUSH2 0x2C2 CALLDATASIZE PUSH1 0x4 PUSH2 0x3612 JUMP JUMPDEST PUSH2 0x60F JUMP JUMPDEST PUSH1 0x40 MLOAD SWAP1 ISZERO ISZERO DUP2 MSTORE PUSH1 0x20 ADD PUSH2 0x24A JUMP JUMPDEST PUSH2 0x2EA PUSH2 0x2E5 CALLDATASIZE PUSH1 0x4 PUSH2 0x3660 JUMP JUMPDEST PUSH2 0x624 JUMP JUMPDEST PUSH1 0x40 MLOAD PUSH2 0x24A SWAP2 SWAP1 PUSH2 0x3695 JUMP JUMPDEST PUSH2 0x30A PUSH2 0x305 CALLDATASIZE PUSH1 0x4 PUSH2 0x3443 JUMP JUMPDEST PUSH2 0x69E JUMP JUMPDEST PUSH1 0x40 MLOAD PUSH2 0x24A SWAP4 SWAP3 SWAP2 SWAP1 PUSH2 0x36E2 JUMP JUMPDEST PUSH2 0x32C PUSH2 0x327 CALLDATASIZE PUSH1 0x4 PUSH2 0x34C9 JUMP JUMPDEST PUSH2 0x737 JUMP JUMPDEST PUSH1 0x40 MLOAD PUSH2 0x24A SWAP8 SWAP7 SWAP6 SWAP5 SWAP4 SWAP3 SWAP2 SWAP1 PUSH2 0x3704 JUMP JUMPDEST PUSH2 0x2EA PUSH2 0x34D CALLDATASIZE PUSH1 0x4 PUSH2 0x3660 JUMP JUMPDEST PUSH2 0x8A1 JUMP JUMPDEST PUSH2 0x365 PUSH2 0x360 CALLDATASIZE PUSH1 0x4 PUSH2 0x3660 JUMP JUMPDEST PUSH2 0x8B3 JUMP JUMPDEST PUSH1 0x40 DUP1 MLOAD SWAP4 DUP5 MSTORE PUSH1 0x20 DUP5 ADD SWAP3 SWAP1 SWAP3 MSTORE SWAP1 DUP3 ADD MSTORE PUSH1 0x60 ADD PUSH2 0x24A JUMP JUMPDEST PUSH2 0x2C7 PUSH2 0x38E CALLDATASIZE PUSH1 0x4 PUSH2 0x3443 JUMP JUMPDEST PUSH2 0x924 JUMP JUMPDEST PUSH2 0x3A6 PUSH2 0x3A1 CALLDATASIZE PUSH1 0x4 PUSH2 0x34E2 JUMP JUMPDEST PUSH2 0x982 JUMP JUMPDEST STOP JUMPDEST PUSH1 0x9 SLOAD JUMPDEST PUSH1 0x40 MLOAD SWAP1 DUP2 MSTORE PUSH1 0x20 ADD PUSH2 0x24A JUMP JUMPDEST PUSH2 0x2EA PUSH2 0x3C8 CALLDATASIZE PUSH1 0x4 PUSH2 0x3660 JUMP JUMPDEST PUSH2 0xBD5 JUMP JUMPDEST PUSH2 0x3E0 PUSH2 0x3DB CALLDATASIZE PUSH1 0x4 PUSH2 0x3443 JUMP JUMPDEST PUSH2 0xBE7 JUMP JUMPDEST PUSH1 0x40 MLOAD PUSH2 0x24A SWAP2 SWAP1 PUSH2 0x3764 JUMP JUMPDEST PUSH2 0x3A6 PUSH2 0x3FB CALLDATASIZE PUSH1 0x4 PUSH2 0x37C6 JUMP JUMPDEST PUSH2 0xCD6 JUMP JUMPDEST PUSH2 0x3A6 PUSH2 0x40E CALLDATASIZE PUSH1 0x4 PUSH2 0x3612 JUMP JUMPDEST PUSH2 0xE84 JUMP JUMPDEST PUSH2 0x3A6 PUSH2 0x421 CALLDATASIZE PUSH1 0x4 PUSH2 0x3443 JUMP JUMPDEST PUSH2 0x1471 JUMP JUMPDEST PUSH2 0x3AC PUSH1 0x3 SLOAD DUP2 JUMP JUMPDEST PUSH2 0x3A6 PUSH2 0x43D CALLDATASIZE PUSH1 0x4 PUSH2 0x3612 JUMP JUMPDEST PUSH2 0x1549 JUMP JUMPDEST PUSH2 0x3AC PUSH1 0x9 SLOAD DUP2 JUMP JUMPDEST PUSH2 0x27C PUSH2 0x459 CALLDATASIZE PUSH1 0x4 PUSH2 0x34C9 JUMP JUMPDEST PUSH1 0x2 PUSH1 0x20 MSTORE PUSH1 0x0 SWAP1 DUP2 MSTORE PUSH1 0x40 SWAP1 KECCAK256 SLOAD PUSH1 0x1 PUSH1 0x1 PUSH1 0xA0 SHL SUB AND DUP2 JUMP JUMPDEST PUSH2 0x27C PUSH2 0x482 CALLDATASIZE PUSH1 0x4 PUSH2 0x3801 JUMP JUMPDEST PUSH2 0x174C JUMP JUMPDEST PUSH2 0x2C7 PUSH2 0x495 CALLDATASIZE PUSH1 0x4 PUSH2 0x3612 JUMP JUMPDEST PUSH2 0x1793 JUMP JUMPDEST PUSH2 0x3A6 PUSH2 0x4A8 CALLDATASIZE PUSH1 0x4 PUSH2 0x3660 JUMP JUMPDEST PUSH2 0x179F JUMP JUMPDEST PUSH2 0x27C PUSH2 0x4BB CALLDATASIZE PUSH1 0x4 PUSH2 0x3801 JUMP JUMPDEST PUSH2 0x19D2 JUMP JUMPDEST PUSH2 0x3A6 PUSH2 0x4CE CALLDATASIZE PUSH1 0x4 PUSH2 0x3846 JUMP JUMPDEST PUSH2 0x19FD JUMP JUMPDEST PUSH2 0x2C7 PUSH2 0x4E1 CALLDATASIZE PUSH1 0x4 PUSH2 0x3846 JUMP JUMPDEST PUSH2 0x1FBF JUMP JUMPDEST PUSH2 0x2C7 PUSH2 0x4F4 CALLDATASIZE PUSH1 0x4 PUSH2 0x3443 JUMP JUMPDEST PUSH2 0x1FD4 JUMP JUMPDEST PUSH2 0x3A6 PUSH2 0x507 CALLDATASIZE PUSH1 0x4 PUSH2 0x3846 JUMP JUMPDEST PUSH2 0x200C JUMP JUMPDEST PUSH2 0x27C PUSH2 0x51A CALLDATASIZE PUSH1 0x4 PUSH2 0x3801 JUMP JUMPDEST PUSH2 0x29D4 JUMP JUMPDEST PUSH2 0x532 PUSH2 0x52D CALLDATASIZE PUSH1 0x4 PUSH2 0x3612 JUMP JUMPDEST PUSH2 0x29FF JUMP JUMPDEST PUSH1 0x40 MLOAD PUSH2 0x24A SWAP6 SWAP5 SWAP4 SWAP3 SWAP2 SWAP1 PUSH2 0x38BA JUMP JUMPDEST PUSH1 0x0 SLOAD PUSH2 0x27C SWAP1 PUSH1 0x1 PUSH1 0x1 PUSH1 0xA0 SHL SUB AND DUP2 JUMP JUMPDEST PUSH1 0x8 PUSH1 0x20 MSTORE DUP2 PUSH1 0x0 MSTORE PUSH1 0x40 PUSH1 0x0 KECCAK256 DUP2 DUP2 SLOAD DUP2 LT PUSH2 0x572 JUMPI PUSH1 0x0 DUP1 REVERT JUMPDEST SWAP1 PUSH1 0x0 MSTORE PUSH1 0x20 PUSH1 0x0 KECCAK256 ADD PUSH1 0x0 SWAP2 POP SWAP2 POP POP DUP1 SLOAD PUSH2 0x58E SWAP1 PUSH2 0x38FC JUMP JUMPDEST DUP1 PUSH1 0x1F ADD PUSH1 0x20 DUP1 SWAP2 DIV MUL PUSH1 0x20 ADD PUSH1 0x40 MLOAD SWAP1 DUP2 ADD PUSH1 0x40 MSTORE DUP1 SWAP3 SWAP2 SWAP1 DUP2 DUP2 MSTORE PUSH1 0x20 ADD DUP3 DUP1 SLOAD PUSH2 0x5BA SWAP1 PUSH2 0x38FC JUMP JUMPDEST DUP1 ISZERO PUSH2 0x607 JUMPI DUP1 PUSH1 0x1F LT PUSH2 0x5DC JUMPI PUSH2 0x100 DUP1 DUP4 SLOAD DIV MUL DUP4 MSTORE SWAP2 PUSH1 0x20 ADD SWAP2 PUSH2 0x607 JUMP JUMPDEST DUP3 ADD SWAP2 SWAP1 PUSH1 0x0 MSTORE PUSH1 0x20 PUSH1 0x0 KECCAK256 SWAP1 JUMPDEST DUP2 SLOAD DUP2 MSTORE SWAP1 PUSH1 0x1 ADD SWAP1 PUSH1 0x20 ADD DUP1 DUP4 GT PUSH2 0x5EA JUMPI DUP3 SWAP1 SUB PUSH1 0x1F AND DUP3 ADD SWAP2 JUMPDEST POP POP POP POP POP DUP2 JUMP JUMPDEST PUSH1 0x0 PUSH2 0x61B DUP4 DUP4 PUSH2 0x2BFD JUMP JUMPDEST SWAP1 POP JUMPDEST SWAP3 SWAP2 POP POP JUMP JUMPDEST PUSH1 0x60 PUSH1 0x5 DUP3 PUSH1 0x40 MLOAD PUSH2 0x636 SWAP2 SWAP1 PUSH2 0x3936 JUMP JUMPDEST SWAP1 DUP2 MSTORE PUSH1 0x40 DUP1 MLOAD SWAP2 DUP3 SWAP1 SUB PUSH1 0x20 SWAP1 DUP2 ADD DUP4 KECCAK256 DUP1 SLOAD DUP1 DUP4 MUL DUP6 ADD DUP4 ADD SWAP1 SWAP4 MSTORE DUP3 DUP5 MSTORE SWAP2 SWAP1 DUP4 ADD DUP3 DUP3 DUP1 ISZERO PUSH2 0x692 JUMPI PUSH1 0x20 MUL DUP3 ADD SWAP2 SWAP1 PUSH1 0x0 MSTORE PUSH1 0x20 PUSH1 0x0 KECCAK256 SWAP1 JUMPDEST DUP2 SLOAD PUSH1 0x1 PUSH1 0x1 PUSH1 0xA0 SHL SUB AND DUP2 MSTORE PUSH1 0x1 SWAP1 SWAP2 ADD SWAP1 PUSH1 0x20 ADD DUP1 DUP4 GT PUSH2 0x674 JUMPI JUMPDEST POP POP POP POP POP SWAP1 POP SWAP2 SWAP1 POP JUMP JUMPDEST PUSH1 0x1 PUSH1 0x1 PUSH1 0xA0 SHL SUB DUP1 DUP3 AND PUSH1 0x0 SWAP1 DUP2 MSTORE PUSH1 0x1 PUSH1 0x20 DUP2 DUP2 MSTORE PUSH1 0x40 DUP1 DUP5 KECCAK256 DUP2 MLOAD PUSH1 0x80 DUP2 ADD DUP4 MSTORE DUP2 SLOAD SWAP1 SWAP7 AND DUP7 MSTORE SWAP3 DUP4 ADD SLOAD SWAP2 DUP6 ADD SWAP2 SWAP1 SWAP2 MSTORE PUSH1 0x2 DUP1 DUP4 ADD SLOAD SWAP4 SWAP5 DUP6 SWAP5 DUP6 SWAP5 DUP6 SWAP5 SWAP3 SWAP4 SWAP1 SWAP3 DUP5 ADD SWAP2 PUSH1 0xFF AND SWAP1 DUP2 GT ISZERO PUSH2 0x6FC JUMPI PUSH2 0x6FC PUSH2 0x345E JUMP JUMPDEST PUSH1 0x2 DUP2 GT ISZERO PUSH2 0x70D JUMPI PUSH2 0x70D PUSH2 0x345E JUMP JUMPDEST DUP2 MSTORE PUSH1 0x3 SWAP2 SWAP1 SWAP2 ADD SLOAD PUSH1 0x20 SWAP2 DUP3 ADD MSTORE DUP2 ADD MLOAD PUSH1 0x40 DUP3 ADD MLOAD PUSH1 0x60 SWAP1 SWAP3 ADD MLOAD SWAP1 SWAP8 SWAP2 SWAP7 POP SWAP5 POP SWAP3 POP POP POP JUMP JUMPDEST PUSH1 0x4 PUSH1 0x20 MSTORE PUSH1 0x0 SWAP1 DUP2 MSTORE PUSH1 0x40 SWAP1 KECCAK256 DUP1 SLOAD DUP2 SWAP1 PUSH2 0x752 SWAP1 PUSH2 0x38FC JUMP JUMPDEST DUP1 PUSH1 0x1F ADD PUSH1 0x20 DUP1 SWAP2 DIV MUL PUSH1 0x20 ADD PUSH1 0x40 MLOAD SWAP1 DUP2 ADD PUSH1 0x40 MSTORE DUP1 SWAP3 SWAP2 SWAP1 DUP2 DUP2 MSTORE PUSH1 0x20 ADD DUP3 DUP1 SLOAD PUSH2 0x77E SWAP1 PUSH2 0x38FC JUMP JUMPDEST DUP1 ISZERO PUSH2 0x7CB JUMPI DUP1 PUSH1 0x1F LT PUSH2 0x7A0 JUMPI PUSH2 0x100 DUP1 DUP4 SLOAD DIV MUL DUP4 MSTORE SWAP2 PUSH1 0x20 ADD SWAP2 PUSH2 0x7CB JUMP JUMPDEST DUP3 ADD SWAP2 SWAP1 PUSH1 0x0 MSTORE PUSH1 0x20 PUSH1 0x0 KECCAK256 SWAP1 JUMPDEST DUP2 SLOAD DUP2 MSTORE SWAP1 PUSH1 0x1 ADD SWAP1 PUSH1 0x20 ADD DUP1 DUP4 GT PUSH2 0x7AE JUMPI DUP3 SWAP1 SUB PUSH1 0x1F AND DUP3 ADD SWAP2 JUMPDEST POP POP POP PUSH1 0x1 DUP5 ADD SLOAD PUSH1 0x2 DUP6 ADD DUP1 SLOAD SWAP5 SWAP6 PUSH1 0x1 PUSH1 0x1 PUSH1 0xA0 SHL SUB SWAP1 SWAP3 AND SWAP5 SWAP2 SWAP4 POP SWAP2 POP PUSH2 0x7F5 SWAP1 PUSH2 0x38FC JUMP JUMPDEST DUP1 PUSH1 0x1F ADD PUSH1 0x20 DUP1 SWAP2 DIV MUL PUSH1 0x20 ADD PUSH1 0x40 MLOAD SWAP1 DUP2 ADD PUSH1 0x40 MSTORE DUP1 SWAP3 SWAP2 SWAP1 DUP2 DUP2 MSTORE PUSH1 0x20 ADD DUP3 DUP1 SLOAD PUSH2 0x821 SWAP1 PUSH2 0x38FC JUMP JUMPDEST DUP1 ISZERO PUSH2 0x86E JUMPI DUP1 PUSH1 0x1F LT PUSH2 0x843 JUMPI PUSH2 0x100 DUP1 DUP4 SLOAD DIV MUL DUP4 MSTORE SWAP2 PUSH1 0x20 ADD SWAP2 PUSH2 0x86E JUMP JUMPDEST DUP3 ADD SWAP2 SWAP1 PUSH1 0x0 MSTORE PUSH1 0x20 PUSH1 0x0 KECCAK256 SWAP1 JUMPDEST DUP2 SLOAD DUP2 MSTORE SWAP1 PUSH1 0x1 ADD SWAP1 PUSH1 0x20 ADD DUP1 DUP4 GT PUSH2 0x851 JUMPI DUP3 SWAP1 SUB PUSH1 0x1F AND DUP3 ADD SWAP2 JUMPDEST POP POP POP POP PUSH1 0x3 DUP4 ADD SLOAD PUSH1 0x4 DUP5 ADD SLOAD PUSH1 0x5 SWAP1 SWAP5 ADD SLOAD SWAP3 SWAP4 SWAP1 SWAP3 SWAP1 SWAP2 POP PUSH1 0x1 PUSH1 0x1 PUSH1 0xA0 SHL SUB DUP2 AND SWAP1 PUSH1 0x1 PUSH1 0xA0 SHL SWAP1 DIV PUSH1 0xFF AND DUP8 JUMP JUMPDEST PUSH1 0x60 PUSH1 0x6 DUP3 PUSH1 0x40 MLOAD PUSH2 0x636 SWAP2 SWAP1 PUSH2 0x3936 JUMP JUMPDEST PUSH1 0x0 DUP1 PUSH1 0x0 PUSH1 0x5 DUP5 PUSH1 0x40 MLOAD PUSH2 0x8C8 SWAP2 SWAP1 PUSH2 0x3936 JUMP JUMPDEST SWAP1 DUP2 MSTORE PUSH1 0x40 MLOAD SWAP1 DUP2 SWAP1 SUB PUSH1 0x20 ADD DUP2 KECCAK256 SLOAD SWAP1 PUSH1 0x6 SWAP1 PUSH2 0x8E7 SWAP1 DUP8 SWAP1 PUSH2 0x3936 JUMP JUMPDEST SWAP1 DUP2 MSTORE PUSH1 0x40 MLOAD SWAP1 DUP2 SWAP1 SUB PUSH1 0x20 ADD DUP2 KECCAK256 SLOAD SWAP1 PUSH1 0x7 SWAP1 PUSH2 0x906 SWAP1 DUP9 SWAP1 PUSH2 0x3936 JUMP JUMPDEST SWAP1 DUP2 MSTORE PUSH1 0x40 MLOAD SWAP1 DUP2 SWAP1 SUB PUSH1 0x20 ADD SWAP1 KECCAK256 SLOAD SWAP2 SWAP5 POP SWAP3 POP SWAP1 POP SWAP2 SWAP4 SWAP1 SWAP3 POP JUMP JUMPDEST PUSH1 0x0 DUP1 PUSH1 0x1 PUSH1 0x1 PUSH1 0xA0 SHL SUB DUP4 AND PUSH1 0x0 SWAP1 DUP2 MSTORE PUSH1 0x1 PUSH1 0x20 MSTORE PUSH1 0x40 SWAP1 KECCAK256 PUSH1 0x2 SWAP1 DUP2 ADD SLOAD PUSH1 0xFF AND SWAP1 DUP2 GT ISZERO PUSH2 0x958 JUMPI PUSH2 0x958 PUSH2 0x345E JUMP JUMPDEST EQ ISZERO DUP1 ISZERO PUSH2 0x61E JUMPI POP POP PUSH1 0x1 PUSH1 0x1 PUSH1 0xA0 SHL SUB AND PUSH1 0x0 SWAP1 DUP2 MSTORE PUSH1 0x1 PUSH1 0x20 MSTORE PUSH1 0x40 SWAP1 KECCAK256 PUSH1 0x3 ADD SLOAD ISZERO ISZERO SWAP1 JUMP JUMPDEST PUSH1 0x0 SLOAD PUSH1 0x1 PUSH1 0x1 PUSH1 0xA0 SHL SUB AND CALLER EQ PUSH2 0x9B5 JUMPI PUSH1 0x40 MLOAD PUSH3 0x461BCD PUSH1 0xE5 SHL DUP2 MSTORE PUSH1 0x4 ADD PUSH2 0x9AC SWAP1 PUSH2 0x3952 JUMP JUMPDEST PUSH1 0x40 MLOAD DUP1 SWAP2 SUB SWAP1 REVERT JUMPDEST PUSH1 0x1 PUSH1 0x1 PUSH1 0xA0 SHL SUB DUP3 AND PUSH2 0xA04 JUMPI PUSH1 0x40 MLOAD PUSH3 0x461BCD PUSH1 0xE5 SHL DUP2 MSTORE PUSH1 0x20 PUSH1 0x4 DUP3 ADD MSTORE PUSH1 0x16 PUSH1 0x24 DUP3 ADD MSTORE PUSH22 0x496E76616C69642077616C6C65742061646472657373 PUSH1 0x50 SHL PUSH1 0x44 DUP3 ADD MSTORE PUSH1 0x64 ADD PUSH2 0x9AC JUMP JUMPDEST PUSH1 0x1 PUSH1 0x1 PUSH1 0xA0 SHL SUB DUP3 AND PUSH1 0x0 SWAP1 DUP2 MSTORE PUSH1 0x1 PUSH1 0x20 MSTORE PUSH1 0x40 SWAP1 KECCAK256 PUSH1 0x3 ADD SLOAD ISZERO PUSH2 0xA60 JUMPI PUSH1 0x40 MLOAD PUSH3 0x461BCD PUSH1 0xE5 SHL DUP2 MSTORE PUSH1 0x20 PUSH1 0x4 DUP3 ADD MSTORE PUSH1 0x10 PUSH1 0x24 DUP3 ADD MSTORE PUSH16 0x20B63932B0B23C90309036B2B6B132B9 PUSH1 0x81 SHL PUSH1 0x44 DUP3 ADD MSTORE PUSH1 0x64 ADD PUSH2 0x9AC JUMP JUMPDEST PUSH1 0x0 DUP2 DUP2 MSTORE PUSH1 0x2 PUSH1 0x20 MSTORE PUSH1 0x40 SWAP1 KECCAK256 SLOAD PUSH1 0x1 PUSH1 0x1 PUSH1 0xA0 SHL SUB AND ISZERO PUSH2 0xAC5 JUMPI PUSH1 0x40 MLOAD PUSH3 0x461BCD PUSH1 0xE5 SHL DUP2 MSTORE PUSH1 0x20 PUSH1 0x4 DUP3 ADD MSTORE PUSH1 0x1A PUSH1 0x24 DUP3 ADD MSTORE PUSH32 0x5573657220494420616C72656164792072656769737465726564000000000000 PUSH1 0x44 DUP3 ADD MSTORE PUSH1 0x64 ADD PUSH2 0x9AC JUMP JUMPDEST PUSH1 0x40 DUP1 MLOAD PUSH1 0x80 DUP2 ADD DUP3 MSTORE PUSH1 0x1 PUSH1 0x1 PUSH1 0xA0 SHL SUB DUP5 DUP2 AND DUP1 DUP4 MSTORE PUSH1 0x20 DUP1 DUP5 ADD DUP7 DUP2 MSTORE PUSH1 0x1 DUP6 DUP8 ADD DUP2 DUP2 MSTORE TIMESTAMP PUSH1 0x60 DUP9 ADD MSTORE PUSH1 0x0 SWAP5 DUP6 MSTORE SWAP3 DUP2 SWAP1 MSTORE SWAP6 SWAP1 SWAP3 KECCAK256 DUP5 MLOAD DUP2 SLOAD PUSH1 0x1 PUSH1 0x1 PUSH1 0xA0 SHL SUB NOT AND SWAP5 AND SWAP4 SWAP1 SWAP4 OR DUP4 SSTORE SWAP1 MLOAD DUP3 DUP6 ADD SSTORE MLOAD PUSH1 0x2 DUP1 DUP4 ADD DUP1 SLOAD SWAP5 SWAP6 SWAP4 SWAP5 SWAP3 SWAP4 SWAP1 SWAP3 PUSH1 0xFF NOT AND SWAP2 DUP5 SWAP1 DUP2 GT ISZERO PUSH2 0xB42 JUMPI PUSH2 0xB42 PUSH2 0x345E JUMP JUMPDEST MUL OR SWAP1 SSTORE POP PUSH1 0x60 SWAP2 SWAP1 SWAP2 ADD MLOAD PUSH1 0x3 SWAP2 DUP3 ADD SSTORE PUSH1 0x0 DUP3 DUP2 MSTORE PUSH1 0x2 PUSH1 0x20 MSTORE PUSH1 0x40 DUP2 KECCAK256 DUP1 SLOAD PUSH1 0x1 PUSH1 0x1 PUSH1 0xA0 SHL SUB NOT AND PUSH1 0x1 PUSH1 0x1 PUSH1 0xA0 SHL SUB DUP7 AND OR SWAP1 SSTORE DUP2 SLOAD SWAP2 SWAP1 PUSH2 0xB88 DUP4 PUSH2 0x398C JUMP JUMPDEST SWAP2 SWAP1 POP SSTORE POP DUP1 DUP3 PUSH1 0x1 PUSH1 0x1 PUSH1 0xA0 SHL SUB AND PUSH32 0x39D132591EE0696DE49AB564E4A90E430C006561917DB731A2A614DD2D245591 TIMESTAMP PUSH1 0x40 MLOAD PUSH2 0xBC9 SWAP2 DUP2 MSTORE PUSH1 0x20 ADD SWAP1 JUMP JUMPDEST PUSH1 0x40 MLOAD DUP1 SWAP2 SUB SWAP1 LOG3 POP POP JUMP JUMPDEST PUSH1 0x60 PUSH1 0x7 DUP3 PUSH1 0x40 MLOAD PUSH2 0x636 SWAP2 SWAP1 PUSH2 0x3936 JUMP JUMPDEST PUSH1 0x1 PUSH1 0x1 PUSH1 0xA0 SHL SUB DUP2 AND PUSH1 0x0 SWAP1 DUP2 MSTORE PUSH1 0x8 PUSH1 0x20 SWAP1 DUP2 MSTORE PUSH1 0x40 DUP1 DUP4 KECCAK256 DUP1 SLOAD DUP3 MLOAD DUP2 DUP6 MUL DUP2 ADD DUP6 ADD SWAP1 SWAP4 MSTORE DUP1 DUP4 MSTORE PUSH1 0x60 SWAP5 SWAP3 SWAP4 SWAP2 SWAP3 SWAP1 SWAP2 DUP5 ADD JUMPDEST DUP3 DUP3 LT ISZERO PUSH2 0xCCB JUMPI DUP4 DUP3 SWAP1 PUSH1 0x0 MSTORE PUSH1 0x20 PUSH1 0x0 KECCAK256 ADD DUP1 SLOAD PUSH2 0xC3E SWAP1 PUSH2 0x38FC JUMP JUMPDEST DUP1 PUSH1 0x1F ADD PUSH1 0x20 DUP1 SWAP2 DIV MUL PUSH1 0x20 ADD PUSH1 0x40 MLOAD SWAP1 DUP2 ADD PUSH1 0x40 MSTORE DUP1 SWAP3 SWAP2 SWAP1 DUP2 DUP2 MSTORE PUSH1 0x20 ADD DUP3 DUP1 SLOAD PUSH2 0xC6A SWAP1 PUSH2 0x38FC JUMP JUMPDEST DUP1 ISZERO PUSH2 0xCB7 JUMPI DUP1 PUSH1 0x1F LT PUSH2 0xC8C JUMPI PUSH2 0x100 DUP1 DUP4 SLOAD DIV MUL DUP4 MSTORE SWAP2 PUSH1 0x20 ADD SWAP2 PUSH2 0xCB7 JUMP JUMPDEST DUP3 ADD SWAP2 SWAP1 PUSH1 0x0 MSTORE PUSH1 0x20 PUSH1 0x0 KECCAK256 SWAP1 JUMPDEST DUP2 SLOAD DUP2 MSTORE SWAP1 PUSH1 0x1 ADD SWAP1 PUSH1 0x20 ADD DUP1 DUP4 GT PUSH2 0xC9A JUMPI DUP3 SWAP1 SUB PUSH1 0x1F AND DUP3 ADD SWAP2 JUMPDEST POP POP POP POP POP DUP2 MSTORE PUSH1 0x20 ADD SWAP1 PUSH1 0x1 ADD SWAP1 PUSH2 0xC1F JUMP JUMPDEST POP POP POP POP SWAP1 POP SWAP2 SWAP1 POP JUMP JUMPDEST PUSH1 0x0 SLOAD PUSH1 0x1 PUSH1 0x1 PUSH1 0xA0 SHL SUB AND CALLER EQ PUSH2 0xD00 JUMPI PUSH1 0x40 MLOAD PUSH3 0x461BCD PUSH1 0xE5 SHL DUP2 MSTORE PUSH1 0x4 ADD PUSH2 0x9AC SWAP1 PUSH2 0x3952 JUMP JUMPDEST PUSH1 0x1 PUSH1 0x1 PUSH1 0xA0 SHL SUB DUP3 AND PUSH1 0x0 SWAP1 DUP2 MSTORE PUSH1 0x1 PUSH1 0x20 MSTORE PUSH1 0x40 DUP2 KECCAK256 PUSH1 0x3 ADD SLOAD SWAP1 SUB PUSH2 0xD59 JUMPI PUSH1 0x40 MLOAD PUSH3 0x461BCD PUSH1 0xE5 SHL DUP2 MSTORE PUSH1 0x20 PUSH1 0x4 DUP3 ADD MSTORE PUSH1 0xC PUSH1 0x24 DUP3 ADD MSTORE PUSH12 0x2737BA10309036B2B6B132B9 PUSH1 0xA1 SHL PUSH1 0x44 DUP3 ADD MSTORE PUSH1 0x64 ADD PUSH2 0x9AC JUMP JUMPDEST PUSH1 0x1 PUSH1 0x1 PUSH1 0xA0 SHL SUB DUP3 AND PUSH1 0x0 SWAP1 DUP2 MSTORE PUSH1 0x1 PUSH1 0x20 MSTORE PUSH1 0x40 SWAP1 KECCAK256 PUSH1 0x2 SWAP1 DUP2 ADD SLOAD PUSH1 0xFF AND SWAP1 DUP3 SWAP1 DUP2 GT ISZERO PUSH2 0xD8C JUMPI PUSH2 0xD8C PUSH2 0x345E JUMP JUMPDEST DUP2 PUSH1 0x2 DUP2 GT ISZERO PUSH2 0xD9E JUMPI PUSH2 0xD9E PUSH2 0x345E JUMP JUMPDEST SUB PUSH2 0xDE1 JUMPI PUSH1 0x40 MLOAD PUSH3 0x461BCD PUSH1 0xE5 SHL DUP2 MSTORE PUSH1 0x20 PUSH1 0x4 DUP3 ADD MSTORE PUSH1 0x13 PUSH1 0x24 DUP3 ADD MSTORE PUSH19 0x416C7265616479207468697320737461747573 PUSH1 0x68 SHL PUSH1 0x44 DUP3 ADD MSTORE PUSH1 0x64 ADD PUSH2 0x9AC JUMP JUMPDEST DUP2 PUSH1 0x1 PUSH1 0x0 DUP6 PUSH1 0x1 PUSH1 0x1 PUSH1 0xA0 SHL SUB AND PUSH1 0x1 PUSH1 0x1 PUSH1 0xA0 SHL SUB AND DUP2 MSTORE PUSH1 0x20 ADD SWAP1 DUP2 MSTORE PUSH1 0x20 ADD PUSH1 0x0 KECCAK256 PUSH1 0x2 ADD PUSH1 0x0 PUSH2 0x100 EXP DUP2 SLOAD DUP2 PUSH1 0xFF MUL NOT AND SWAP1 DUP4 PUSH1 0x2 DUP2 GT ISZERO PUSH2 0xE2B JUMPI PUSH2 0xE2B PUSH2 0x345E JUMP JUMPDEST MUL OR SWAP1 SSTORE POP CALLER PUSH1 0x1 PUSH1 0x1 PUSH1 0xA0 SHL SUB AND DUP4 PUSH1 0x1 PUSH1 0x1 PUSH1 0xA0 SHL SUB AND PUSH32 0x8DF6FE77900A7F74A03489F6BE278308324A06574C9D8A65C1DAE5381C3881D DUP4 DUP6 TIMESTAMP PUSH1 0x40 MLOAD PUSH2 0xE77 SWAP4 SWAP3 SWAP2 SWAP1 PUSH2 0x39A5 JUMP JUMPDEST PUSH1 0x40 MLOAD DUP1 SWAP2 SUB SWAP1 LOG3 POP POP POP JUMP JUMPDEST PUSH1 0x0 DUP3 MLOAD GT PUSH2 0xEA5 JUMPI PUSH1 0x40 MLOAD PUSH3 0x461BCD PUSH1 0xE5 SHL DUP2 MSTORE PUSH1 0x4 ADD PUSH2 0x9AC SWAP1 PUSH2 0x39C0 JUMP JUMPDEST PUSH1 0x1 PUSH1 0x1 PUSH1 0xA0 SHL SUB DUP2 AND PUSH2 0xECB JUMPI PUSH1 0x40 MLOAD PUSH3 0x461BCD PUSH1 0xE5 SHL DUP2 MSTORE PUSH1 0x4 ADD PUSH2 0x9AC SWAP1 PUSH2 0x39F7 JUMP JUMPDEST PUSH1 0x0 DUP3 DUP3 PUSH1 0x40 MLOAD PUSH1 0x20 ADD PUSH2 0xEE0 SWAP3 SWAP2 SWAP1 PUSH2 0x3A2E JUMP JUMPDEST PUSH1 0x40 MLOAD PUSH1 0x20 DUP2 DUP4 SUB SUB DUP2 MSTORE SWAP1 PUSH1 0x40 MSTORE DUP1 MLOAD SWAP1 PUSH1 0x20 ADD KECCAK256 SWAP1 POP PUSH1 0x0 PUSH1 0x4 PUSH1 0x0 DUP4 DUP2 MSTORE PUSH1 0x20 ADD SWAP1 DUP2 MSTORE PUSH1 0x20 ADD PUSH1 0x0 KECCAK256 PUSH1 0x40 MLOAD DUP1 PUSH1 0xE0 ADD PUSH1 0x40 MSTORE SWAP1 DUP2 PUSH1 0x0 DUP3 ADD DUP1 SLOAD PUSH2 0xF28 SWAP1 PUSH2 0x38FC JUMP JUMPDEST DUP1 PUSH1 0x1F ADD PUSH1 0x20 DUP1 SWAP2 DIV MUL PUSH1 0x20 ADD PUSH1 0x40 MLOAD SWAP1 DUP2 ADD PUSH1 0x40 MSTORE DUP1 SWAP3 SWAP2 SWAP1 DUP2 DUP2 MSTORE PUSH1 0x20 ADD DUP3 DUP1 SLOAD PUSH2 0xF54 SWAP1 PUSH2 0x38FC JUMP JUMPDEST DUP1 ISZERO PUSH2 0xFA1 JUMPI DUP1 PUSH1 0x1F LT PUSH2 0xF76 JUMPI PUSH2 0x100 DUP1 DUP4 SLOAD DIV MUL DUP4 MSTORE SWAP2 PUSH1 0x20 ADD SWAP2 PUSH2 0xFA1 JUMP JUMPDEST DUP3 ADD SWAP2 SWAP1 PUSH1 0x0 MSTORE PUSH1 0x20 PUSH1 0x0 KECCAK256 SWAP1 JUMPDEST DUP2 SLOAD DUP2 MSTORE SWAP1 PUSH1 0x1 ADD SWAP1 PUSH1 0x20 ADD DUP1 DUP4 GT PUSH2 0xF84 JUMPI DUP3 SWAP1 SUB PUSH1 0x1F AND DUP3 ADD SWAP2 JUMPDEST POP POP POP SWAP2 DUP4 MSTORE POP POP PUSH1 0x1 DUP3 ADD SLOAD PUSH1 0x1 PUSH1 0x1 PUSH1 0xA0 SHL SUB AND PUSH1 0x20 DUP3 ADD MSTORE PUSH1 0x2 DUP3 ADD DUP1 SLOAD PUSH1 0x40 SWAP1 SWAP3 ADD SWAP2 PUSH2 0xFD1 SWAP1 PUSH2 0x38FC JUMP JUMPDEST DUP1 PUSH1 0x1F ADD PUSH1 0x20 DUP1 SWAP2 DIV MUL PUSH1 0x20 ADD PUSH1 0x40 MLOAD SWAP1 DUP2 ADD PUSH1 0x40 MSTORE DUP1 SWAP3 SWAP2 SWAP1 DUP2 DUP2 MSTORE PUSH1 0x20 ADD DUP3 DUP1 SLOAD PUSH2 0xFFD SWAP1 PUSH2 0x38FC JUMP JUMPDEST DUP1 ISZERO PUSH2 0x104A JUMPI DUP1 PUSH1 0x1F LT PUSH2 0x101F JUMPI PUSH2 0x100 DUP1 DUP4 SLOAD DIV MUL DUP4 MSTORE SWAP2 PUSH1 0x20 ADD SWAP2 PUSH2 0x104A JUMP JUMPDEST DUP3 ADD SWAP2 SWAP1 PUSH1 0x0 MSTORE PUSH1 0x20 PUSH1 0x0 KECCAK256 SWAP1 JUMPDEST DUP2 SLOAD DUP2 MSTORE SWAP1 PUSH1 0x1 ADD SWAP1 PUSH1 0x20 ADD DUP1 DUP4 GT PUSH2 0x102D JUMPI DUP3 SWAP1 SUB PUSH1 0x1F AND DUP3 ADD SWAP2 JUMPDEST POP POP POP SWAP2 DUP4 MSTORE POP POP PUSH1 0x3 DUP3 ADD SLOAD PUSH1 0x20 DUP3 ADD MSTORE PUSH1 0x4 DUP3 ADD SLOAD PUSH1 0x40 DUP3 ADD MSTORE PUSH1 0x5 SWAP1 SWAP2 ADD SLOAD PUSH1 0x1 PUSH1 0x1 PUSH1 0xA0 SHL SUB DUP2 AND PUSH1 0x60 DUP4 ADD MSTORE PUSH1 0x1 PUSH1 0xA0 SHL SWAP1 DIV PUSH1 0xFF AND ISZERO ISZERO PUSH1 0x80 SWAP1 SWAP2 ADD MSTORE PUSH1 0xC0 DUP2 ADD MLOAD SWAP1 SWAP2 POP PUSH2 0x10B1 JUMPI PUSH1 0x40 MLOAD PUSH3 0x461BCD PUSH1 0xE5 SHL DUP2 MSTORE PUSH1 0x4 ADD PUSH2 0x9AC SWAP1 PUSH2 0x3A65 JUMP JUMPDEST PUSH1 0x40 DUP1 DUP3 ADD MLOAD DUP1 MLOAD PUSH1 0x20 DUP1 DUP4 ADD SWAP2 SWAP1 SWAP2 KECCAK256 DUP4 MLOAD DUP1 DUP6 ADD SWAP1 SWAP5 MSTORE PUSH1 0x5 DUP5 MSTORE PUSH5 0x37BBB732B9 PUSH1 0xD9 SHL SWAP4 SWAP1 SWAP2 ADD SWAP3 SWAP1 SWAP3 MSTORE SWAP1 PUSH1 0x0 DUP1 MLOAD PUSH1 0x20 PUSH2 0x3CE2 DUP4 CODECOPY DUP2 MLOAD SWAP2 MSTORE DUP2 ADD PUSH2 0x1175 JUMPI PUSH1 0x40 MLOAD PUSH3 0x461BCD PUSH1 0xE5 SHL DUP2 MSTORE PUSH1 0x20 PUSH1 0x4 DUP3 ADD MSTORE PUSH1 0x49 PUSH1 0x24 DUP3 ADD MSTORE PUSH32 0x4F776E6572732063616E6E6F74206265207265766F6B65642E204F776E657220 PUSH1 0x44 DUP3 ADD MSTORE PUSH32 0x6D7573742075736520766F6C756E746172696C7952656D6F76654F776E4F776E PUSH1 0x64 DUP3 ADD MSTORE PUSH9 0x32B939B434B8141497 PUSH1 0xB9 SHL PUSH1 0x84 DUP3 ADD MSTORE PUSH1 0xA4 ADD PUSH2 0x9AC JUMP JUMPDEST CALLER PUSH1 0x1 PUSH1 0x1 PUSH1 0xA0 SHL SUB DUP7 AND EQ DUP1 PUSH2 0x12D7 JUMPI PUSH2 0x1190 DUP8 CALLER PUSH2 0x2C4D JUMP JUMPDEST PUSH2 0x11E2 JUMPI PUSH1 0x40 MLOAD PUSH3 0x461BCD PUSH1 0xE5 SHL DUP2 MSTORE PUSH1 0x20 PUSH1 0x4 DUP3 ADD MSTORE PUSH1 0x2F PUSH1 0x24 DUP3 ADD MSTORE PUSH1 0x0 DUP1 MLOAD PUSH1 0x20 PUSH2 0x3CA2 DUP4 CODECOPY DUP2 MLOAD SWAP2 MSTORE PUSH1 0x44 DUP3 ADD MSTORE PUSH15 0x616E207265766F6B6520726F6C6573 PUSH1 0x88 SHL PUSH1 0x64 DUP3 ADD MSTORE PUSH1 0x84 ADD PUSH2 0x9AC JUMP JUMPDEST PUSH1 0x0 PUSH2 0x120C DUP9 CALLER PUSH1 0x40 MLOAD DUP1 PUSH1 0x40 ADD PUSH1 0x40 MSTORE DUP1 PUSH1 0x5 DUP2 MSTORE PUSH1 0x20 ADD PUSH5 0x37BBB732B9 PUSH1 0xD9 SHL DUP2 MSTORE POP PUSH2 0x2CA9 JUMP JUMPDEST SWAP1 POP DUP1 PUSH2 0x12D5 JUMPI PUSH1 0x40 DUP1 MLOAD DUP1 DUP3 ADD SWAP1 SWAP2 MSTORE PUSH1 0xD DUP2 MSTORE PUSH13 0x30B236B4B734B9BA3930BA37B9 PUSH1 0x99 SHL PUSH1 0x20 SWAP1 SWAP2 ADD MSTORE PUSH1 0x0 DUP1 MLOAD PUSH1 0x20 PUSH2 0x3D02 DUP4 CODECOPY DUP2 MLOAD SWAP2 MSTORE DUP4 EQ DUP1 ISZERO PUSH2 0x12D3 JUMPI PUSH1 0x0 DUP1 PUSH1 0x5 DUP12 PUSH1 0x40 MLOAD PUSH2 0x1262 SWAP2 SWAP1 PUSH2 0x3936 JUMP JUMPDEST SWAP1 DUP2 MSTORE PUSH1 0x40 MLOAD SWAP1 DUP2 SWAP1 SUB PUSH1 0x20 ADD SWAP1 KECCAK256 SLOAD GT SWAP1 POP DUP1 ISZERO PUSH2 0x12D1 JUMPI PUSH1 0x40 MLOAD PUSH3 0x461BCD PUSH1 0xE5 SHL DUP2 MSTORE PUSH1 0x20 PUSH1 0x4 DUP3 ADD MSTORE PUSH1 0x25 PUSH1 0x24 DUP3 ADD MSTORE PUSH32 0x4F6E6C79206F776E6572732063616E207265766F6B652061646D696E69737472 PUSH1 0x44 DUP3 ADD MSTORE PUSH5 0x61746F7273 PUSH1 0xD8 SHL PUSH1 0x64 DUP3 ADD MSTORE PUSH1 0x84 ADD PUSH2 0x9AC JUMP JUMPDEST POP JUMPDEST POP JUMPDEST POP JUMPDEST PUSH1 0x40 DUP1 MLOAD DUP1 DUP3 ADD SWAP1 SWAP2 MSTORE PUSH1 0xD DUP2 MSTORE PUSH13 0x30B236B4B734B9BA3930BA37B9 PUSH1 0x99 SHL PUSH1 0x20 SWAP1 SWAP2 ADD MSTORE PUSH1 0x0 DUP1 MLOAD PUSH1 0x20 PUSH2 0x3D22 DUP4 CODECOPY DUP2 MLOAD SWAP2 MSTORE DUP3 ADD PUSH2 0x13DE JUMPI PUSH1 0x0 PUSH1 0x1 PUSH1 0x6 DUP10 PUSH1 0x40 MLOAD PUSH2 0x1325 SWAP2 SWAP1 PUSH2 0x3936 JUMP JUMPDEST SWAP1 DUP2 MSTORE PUSH1 0x20 ADD PUSH1 0x40 MLOAD DUP1 SWAP2 SUB SWAP1 KECCAK256 DUP1 SLOAD SWAP1 POP GT SWAP1 POP PUSH1 0x0 DUP1 PUSH1 0x5 DUP11 PUSH1 0x40 MLOAD PUSH2 0x134D SWAP2 SWAP1 PUSH2 0x3936 JUMP JUMPDEST SWAP1 DUP2 MSTORE PUSH1 0x40 MLOAD SWAP1 DUP2 SWAP1 SUB PUSH1 0x20 ADD SWAP1 KECCAK256 SLOAD GT SWAP1 POP DUP2 DUP1 PUSH2 0x1369 JUMPI POP DUP1 JUMPDEST PUSH2 0x13DB JUMPI PUSH1 0x40 MLOAD PUSH3 0x461BCD PUSH1 0xE5 SHL DUP2 MSTORE PUSH1 0x20 PUSH1 0x4 DUP3 ADD MSTORE PUSH1 0x39 PUSH1 0x24 DUP3 ADD MSTORE PUSH32 0x43616E6E6F74207265766F6B65206C6173742061646D696E6973747261746F72 PUSH1 0x44 DUP3 ADD MSTORE PUSH32 0x20776974686F757420616E206F776E65722070726573656E7400000000000000 PUSH1 0x64 DUP3 ADD MSTORE PUSH1 0x84 ADD PUSH2 0x9AC JUMP JUMPDEST POP POP JUMPDEST PUSH2 0x13E9 DUP8 DUP8 DUP6 PUSH2 0x2E9B JUMP JUMPDEST PUSH1 0x0 DUP6 DUP2 MSTORE PUSH1 0x4 PUSH1 0x20 DUP2 SWAP1 MSTORE PUSH1 0x40 SWAP2 DUP3 SWAP1 KECCAK256 PUSH1 0x5 DUP2 ADD DUP1 SLOAD PUSH1 0xFF PUSH1 0xA0 SHL NOT AND SWAP1 SSTORE TIMESTAMP SWAP2 ADD SSTORE MLOAD CALLER SWAP1 PUSH1 0x1 PUSH1 0x1 PUSH1 0xA0 SHL SUB DUP9 AND SWAP1 PUSH2 0x1427 SWAP1 DUP11 SWAP1 PUSH2 0x3936 JUMP JUMPDEST PUSH1 0x40 MLOAD DUP1 SWAP2 SUB SWAP1 KECCAK256 PUSH32 0x4A3687FCB71D47FA2E61F904671324E749C46AD50A2236D66943AB0AB659BBB3 DUP7 TIMESTAMP PUSH1 0x40 MLOAD PUSH2 0x1460 SWAP3 SWAP2 SWAP1 PUSH2 0x3AA6 JUMP JUMPDEST PUSH1 0x40 MLOAD DUP1 SWAP2 SUB SWAP1 LOG4 POP POP POP POP POP POP POP JUMP JUMPDEST PUSH1 0x0 SLOAD PUSH1 0x1 PUSH1 0x1 PUSH1 0xA0 SHL SUB AND CALLER EQ PUSH2 0x149B JUMPI PUSH1 0x40 MLOAD PUSH3 0x461BCD PUSH1 0xE5 SHL DUP2 MSTORE PUSH1 0x4 ADD PUSH2 0x9AC SWAP1 PUSH2 0x3952 JUMP JUMPDEST PUSH1 0x1 PUSH1 0x1 PUSH1 0xA0 SHL SUB DUP2 AND PUSH2 0x14E3 JUMPI PUSH1 0x40 MLOAD PUSH3 0x461BCD PUSH1 0xE5 SHL DUP2 MSTORE PUSH1 0x20 PUSH1 0x4 DUP3 ADD MSTORE PUSH1 0xF PUSH1 0x24 DUP3 ADD MSTORE PUSH15 0x496E76616C69642061646472657373 PUSH1 0x88 SHL PUSH1 0x44 DUP3 ADD MSTORE PUSH1 0x64 ADD PUSH2 0x9AC JUMP JUMPDEST PUSH1 0x0 SLOAD PUSH1 0x40 MLOAD TIMESTAMP DUP2 MSTORE PUSH1 0x1 PUSH1 0x1 PUSH1 0xA0 SHL SUB DUP4 DUP2 AND SWAP3 AND SWAP1 PUSH32 0x38DF5FA0F7FEF0D515CA1F5388CB5790AC5885D5FCA8D05D9F943E563C33A4B3 SWAP1 PUSH1 0x20 ADD PUSH1 0x40 MLOAD DUP1 SWAP2 SUB SWAP1 LOG3 PUSH1 0x0 DUP1 SLOAD PUSH1 0x1 PUSH1 0x1 PUSH1 0xA0 SHL SUB NOT AND PUSH1 0x1 PUSH1 0x1 PUSH1 0xA0 SHL SUB SWAP3 SWAP1 SWAP3 AND SWAP2 SWAP1 SWAP2 OR SWAP1 SSTORE JUMP JUMPDEST PUSH1 0x0 SLOAD PUSH1 0x1 PUSH1 0x1 PUSH1 0xA0 SHL SUB AND CALLER EQ PUSH2 0x1573 JUMPI PUSH1 0x40 MLOAD PUSH3 0x461BCD PUSH1 0xE5 SHL DUP2 MSTORE PUSH1 0x4 ADD PUSH2 0x9AC SWAP1 PUSH2 0x3952 JUMP JUMPDEST PUSH1 0x0 DUP3 MLOAD GT PUSH2 0x1594 JUMPI PUSH1 0x40 MLOAD PUSH3 0x461BCD PUSH1 0xE5 SHL DUP2 MSTORE PUSH1 0x4 ADD PUSH2 0x9AC SWAP1 PUSH2 0x39C0 JUMP JUMPDEST PUSH1 0x1 PUSH1 0x1 PUSH1 0xA0 SHL SUB DUP2 AND PUSH2 0x15DC JUMPI PUSH1 0x40 MLOAD PUSH3 0x461BCD PUSH1 0xE5 SHL DUP2 MSTORE PUSH1 0x20 PUSH1 0x4 DUP3 ADD MSTORE PUSH1 0xF PUSH1 0x24 DUP3 ADD MSTORE PUSH15 0x496E76616C69642061646472657373 PUSH1 0x88 SHL PUSH1 0x44 DUP3 ADD MSTORE PUSH1 0x64 ADD PUSH2 0x9AC JUMP JUMPDEST PUSH1 0x1 PUSH1 0x1 PUSH1 0xA0 SHL SUB DUP2 AND PUSH1 0x0 SWAP1 DUP2 MSTORE PUSH1 0x1 PUSH1 0x20 MSTORE PUSH1 0x40 DUP2 KECCAK256 PUSH1 0x2 SWAP1 DUP2 ADD SLOAD PUSH1 0xFF AND SWAP1 DUP2 GT ISZERO PUSH2 0x160D JUMPI PUSH2 0x160D PUSH2 0x345E JUMP JUMPDEST EQ ISZERO DUP1 ISZERO PUSH2 0x1635 JUMPI POP PUSH1 0x1 PUSH1 0x1 PUSH1 0xA0 SHL SUB DUP2 AND PUSH1 0x0 SWAP1 DUP2 MSTORE PUSH1 0x1 PUSH1 0x20 MSTORE PUSH1 0x40 SWAP1 KECCAK256 PUSH1 0x3 ADD SLOAD ISZERO ISZERO JUMPDEST PUSH2 0x1681 JUMPI PUSH1 0x40 MLOAD PUSH3 0x461BCD PUSH1 0xE5 SHL DUP2 MSTORE PUSH1 0x20 PUSH1 0x4 DUP3 ADD MSTORE PUSH1 0x18 PUSH1 0x24 DUP3 ADD MSTORE PUSH32 0x4D75737420626520616E20616374697665206D656D6265720000000000000000 PUSH1 0x44 DUP3 ADD MSTORE PUSH1 0x64 ADD PUSH2 0x9AC JUMP JUMPDEST PUSH1 0x5 DUP3 PUSH1 0x40 MLOAD PUSH2 0x1691 SWAP2 SWAP1 PUSH2 0x3936 JUMP JUMPDEST SWAP1 DUP2 MSTORE PUSH1 0x40 MLOAD SWAP1 DUP2 SWAP1 SUB PUSH1 0x20 ADD SWAP1 KECCAK256 SLOAD ISZERO DUP1 ISZERO PUSH2 0x16CB JUMPI POP PUSH1 0x6 DUP3 PUSH1 0x40 MLOAD PUSH2 0x16B9 SWAP2 SWAP1 PUSH2 0x3936 JUMP JUMPDEST SWAP1 DUP2 MSTORE PUSH1 0x40 MLOAD SWAP1 DUP2 SWAP1 SUB PUSH1 0x20 ADD SWAP1 KECCAK256 SLOAD ISZERO JUMPDEST PUSH2 0x1717 JUMPI PUSH1 0x40 MLOAD PUSH3 0x461BCD PUSH1 0xE5 SHL DUP2 MSTORE PUSH1 0x20 PUSH1 0x4 DUP3 ADD MSTORE PUSH1 0x1A PUSH1 0x24 DUP3 ADD MSTORE PUSH32 0x5265636F726420616C726561647920696E697469616C697A6564000000000000 PUSH1 0x44 DUP3 ADD MSTORE PUSH1 0x64 ADD PUSH2 0x9AC JUMP JUMPDEST PUSH2 0x1748 DUP3 DUP3 PUSH1 0x40 MLOAD DUP1 PUSH1 0x40 ADD PUSH1 0x40 MSTORE DUP1 PUSH1 0xD DUP2 MSTORE PUSH1 0x20 ADD PUSH13 0x30B236B4B734B9BA3930BA37B9 PUSH1 0x99 SHL DUP2 MSTORE POP CALLER PUSH2 0x2F9D JUMP JUMPDEST POP POP JUMP JUMPDEST DUP2 MLOAD PUSH1 0x20 DUP2 DUP5 ADD DUP2 ADD DUP1 MLOAD PUSH1 0x5 DUP3 MSTORE SWAP3 DUP3 ADD SWAP2 DUP6 ADD SWAP2 SWAP1 SWAP2 KECCAK256 SWAP2 SWAP1 MSTORE DUP1 SLOAD DUP3 SWAP1 DUP2 LT PUSH2 0x1777 JUMPI PUSH1 0x0 DUP1 REVERT JUMPDEST PUSH1 0x0 SWAP2 DUP3 MSTORE PUSH1 0x20 SWAP1 SWAP2 KECCAK256 ADD SLOAD PUSH1 0x1 PUSH1 0x1 PUSH1 0xA0 SHL SUB AND SWAP2 POP DUP3 SWAP1 POP JUMP JUMPDEST PUSH1 0x0 PUSH2 0x61B DUP4 DUP4 PUSH2 0x2C4D JUMP JUMPDEST PUSH1 0x0 DUP2 MLOAD GT PUSH2 0x17C0 JUMPI PUSH1 0x40 MLOAD PUSH3 0x461BCD PUSH1 0xE5 SHL DUP2 MSTORE PUSH1 0x4 ADD PUSH2 0x9AC SWAP1 PUSH2 0x39C0 JUMP JUMPDEST PUSH2 0x17E8 DUP2 CALLER PUSH1 0x40 MLOAD DUP1 PUSH1 0x40 ADD PUSH1 0x40 MSTORE DUP1 PUSH1 0x5 DUP2 MSTORE PUSH1 0x20 ADD PUSH5 0x37BBB732B9 PUSH1 0xD9 SHL DUP2 MSTORE POP PUSH2 0x2CA9 JUMP JUMPDEST PUSH2 0x1840 JUMPI PUSH1 0x40 MLOAD PUSH3 0x461BCD PUSH1 0xE5 SHL DUP2 MSTORE PUSH1 0x20 PUSH1 0x4 DUP3 ADD MSTORE PUSH1 0x23 PUSH1 0x24 DUP3 ADD MSTORE PUSH32 0x596F7520617265206E6F7420616E206F776E6572206F66207468697320726563 PUSH1 0x44 DUP3 ADD MSTORE PUSH3 0x1BDC99 PUSH1 0xEA SHL PUSH1 0x64 DUP3 ADD MSTORE PUSH1 0x84 ADD PUSH2 0x9AC JUMP JUMPDEST PUSH1 0x0 PUSH1 0x1 PUSH1 0x5 DUP4 PUSH1 0x40 MLOAD PUSH2 0x1854 SWAP2 SWAP1 PUSH2 0x3936 JUMP JUMPDEST SWAP1 DUP2 MSTORE PUSH1 0x20 ADD PUSH1 0x40 MLOAD DUP1 SWAP2 SUB SWAP1 KECCAK256 DUP1 SLOAD SWAP1 POP GT SWAP1 POP PUSH1 0x0 DUP1 PUSH1 0x6 DUP5 PUSH1 0x40 MLOAD PUSH2 0x187C SWAP2 SWAP1 PUSH2 0x3936 JUMP JUMPDEST SWAP1 DUP2 MSTORE PUSH1 0x40 MLOAD SWAP1 DUP2 SWAP1 SUB PUSH1 0x20 ADD SWAP1 KECCAK256 SLOAD GT SWAP1 POP DUP2 DUP1 PUSH2 0x1898 JUMPI POP DUP1 JUMPDEST PUSH2 0x190A JUMPI PUSH1 0x40 MLOAD PUSH3 0x461BCD PUSH1 0xE5 SHL DUP2 MSTORE PUSH1 0x20 PUSH1 0x4 DUP3 ADD MSTORE PUSH1 0x3B PUSH1 0x24 DUP3 ADD MSTORE PUSH32 0x43616E6E6F742072656D6F766520796F757273656C66206173206C617374206F PUSH1 0x44 DUP3 ADD MSTORE PUSH32 0x776E65722077697468206E6F2061646D696E6973747261746F72730000000000 PUSH1 0x64 DUP3 ADD MSTORE PUSH1 0x84 ADD PUSH2 0x9AC JUMP JUMPDEST PUSH1 0x0 DUP4 CALLER PUSH1 0x40 MLOAD PUSH1 0x20 ADD PUSH2 0x191F SWAP3 SWAP2 SWAP1 PUSH2 0x3A2E JUMP JUMPDEST PUSH1 0x40 MLOAD PUSH1 0x20 DUP2 DUP4 SUB SUB DUP2 MSTORE SWAP1 PUSH1 0x40 MSTORE DUP1 MLOAD SWAP1 PUSH1 0x20 ADD KECCAK256 SWAP1 POP PUSH2 0x195F DUP5 CALLER PUSH1 0x40 MLOAD DUP1 PUSH1 0x40 ADD PUSH1 0x40 MSTORE DUP1 PUSH1 0x5 DUP2 MSTORE PUSH1 0x20 ADD PUSH5 0x37BBB732B9 PUSH1 0xD9 SHL DUP2 MSTORE POP PUSH2 0x2E9B JUMP JUMPDEST PUSH1 0x0 DUP2 DUP2 MSTORE PUSH1 0x4 PUSH1 0x20 DUP2 SWAP1 MSTORE PUSH1 0x40 SWAP2 DUP3 SWAP1 KECCAK256 PUSH1 0x5 DUP2 ADD DUP1 SLOAD PUSH1 0xFF PUSH1 0xA0 SHL NOT AND SWAP1 SSTORE TIMESTAMP SWAP2 ADD SSTORE MLOAD CALLER SWAP1 PUSH2 0x1992 SWAP1 DUP7 SWAP1 PUSH2 0x3936 JUMP JUMPDEST PUSH1 0x40 MLOAD SWAP1 DUP2 SWAP1 SUB DUP2 KECCAK256 TIMESTAMP DUP3 MSTORE SWAP1 PUSH32 0xCF5E8E3B738FC92454CE623CA55F54D14FDD7BEEA3859DEB72F5171AD234092D SWAP1 PUSH1 0x20 ADD PUSH1 0x40 MLOAD DUP1 SWAP2 SUB SWAP1 LOG3 POP POP POP POP JUMP JUMPDEST DUP2 MLOAD PUSH1 0x20 DUP2 DUP5 ADD DUP2 ADD DUP1 MLOAD PUSH1 0x7 DUP3 MSTORE SWAP3 DUP3 ADD SWAP2 DUP6 ADD SWAP2 SWAP1 SWAP2 KECCAK256 SWAP2 SWAP1 MSTORE DUP1 SLOAD DUP3 SWAP1 DUP2 LT PUSH2 0x1777 JUMPI PUSH1 0x0 DUP1 REVERT JUMPDEST CALLER PUSH1 0x0 SWAP1 DUP2 MSTORE PUSH1 0x1 PUSH1 0x20 MSTORE PUSH1 0x40 DUP2 KECCAK256 PUSH1 0x2 SWAP1 DUP2 ADD SLOAD PUSH1 0xFF AND SWAP1 DUP2 GT ISZERO PUSH2 0x1A25 JUMPI PUSH2 0x1A25 PUSH2 0x345E JUMP JUMPDEST EQ ISZERO DUP1 ISZERO PUSH2 0x1A44 JUMPI POP CALLER PUSH1 0x0 SWAP1 DUP2 MSTORE PUSH1 0x1 PUSH1 0x20 MSTORE PUSH1 0x40 SWAP1 KECCAK256 PUSH1 0x3 ADD SLOAD ISZERO ISZERO JUMPDEST PUSH2 0x1A87 JUMPI PUSH1 0x40 MLOAD PUSH3 0x461BCD PUSH1 0xE5 SHL DUP2 MSTORE PUSH1 0x20 PUSH1 0x4 DUP3 ADD MSTORE PUSH1 0x14 PUSH1 0x24 DUP3 ADD MSTORE PUSH20 0x2737BA1030B71030B1BA34BB329036B2B6B132B9 PUSH1 0x61 SHL PUSH1 0x44 DUP3 ADD MSTORE PUSH1 0x64 ADD PUSH2 0x9AC JUMP JUMPDEST PUSH1 0x0 DUP4 MLOAD GT PUSH2 0x1AA8 JUMPI PUSH1 0x40 MLOAD PUSH3 0x461BCD PUSH1 0xE5 SHL DUP2 MSTORE PUSH1 0x4 ADD PUSH2 0x9AC SWAP1 PUSH2 0x39C0 JUMP JUMPDEST PUSH1 0x1 PUSH1 0x1 PUSH1 0xA0 SHL SUB DUP3 AND PUSH2 0x1ACE JUMPI PUSH1 0x40 MLOAD PUSH3 0x461BCD PUSH1 0xE5 SHL DUP2 MSTORE PUSH1 0x4 ADD PUSH2 0x9AC SWAP1 PUSH2 0x39F7 JUMP JUMPDEST DUP1 MLOAD PUSH1 0x20 DUP1 DUP4 ADD SWAP2 SWAP1 SWAP2 KECCAK256 PUSH1 0x40 DUP1 MLOAD DUP1 DUP3 ADD SWAP1 SWAP2 MSTORE PUSH1 0x5 DUP2 MSTORE PUSH5 0x37BBB732B9 PUSH1 0xD9 SHL SWAP3 ADD SWAP2 SWAP1 SWAP2 MSTORE PUSH32 0x2016836A56B71F0D02689E69E326F4F4C1B9057164EF592671CF0D37C8040C0 DUP2 EQ DUP1 PUSH2 0x1B56 JUMPI POP PUSH1 0x40 DUP1 MLOAD DUP1 DUP3 ADD SWAP1 SWAP2 MSTORE PUSH1 0xD DUP2 MSTORE PUSH13 0x30B236B4B734B9BA3930BA37B9 PUSH1 0x99 SHL PUSH1 0x20 SWAP1 SWAP2 ADD MSTORE PUSH1 0x0 DUP1 MLOAD PUSH1 0x20 PUSH2 0x3D02 DUP4 CODECOPY DUP2 MLOAD SWAP2 MSTORE DUP2 EQ JUMPDEST DUP1 PUSH2 0x1B9E JUMPI POP PUSH1 0x40 DUP1 MLOAD DUP1 DUP3 ADD SWAP1 SWAP2 MSTORE PUSH1 0x6 DUP2 MSTORE PUSH6 0x3B34B2BBB2B9 PUSH1 0xD1 SHL PUSH1 0x20 SWAP1 SWAP2 ADD MSTORE PUSH32 0x120310A1203E5851B63A4D0B2C5643D3FBA07783D2B04D7222298A1ED22E1E0D DUP2 EQ JUMPDEST PUSH2 0x1BBA JUMPI PUSH1 0x40 MLOAD PUSH3 0x461BCD PUSH1 0xE5 SHL DUP2 MSTORE PUSH1 0x4 ADD PUSH2 0x9AC SWAP1 PUSH2 0x3AC8 JUMP JUMPDEST PUSH1 0x0 DUP5 CALLER PUSH1 0x40 MLOAD PUSH1 0x20 ADD PUSH2 0x1BCF SWAP3 SWAP2 SWAP1 PUSH2 0x3A2E JUMP JUMPDEST PUSH1 0x40 DUP1 MLOAD DUP1 DUP4 SUB PUSH1 0x1F NOT ADD DUP2 MSTORE SWAP2 DUP2 MSTORE DUP2 MLOAD PUSH1 0x20 SWAP3 DUP4 ADD KECCAK256 PUSH1 0x0 DUP2 DUP2 MSTORE PUSH1 0x4 SWAP1 SWAP4 MSTORE SWAP2 KECCAK256 PUSH1 0x5 ADD SLOAD SWAP1 SWAP2 POP PUSH1 0x1 PUSH1 0xA0 SHL SWAP1 DIV PUSH1 0xFF AND PUSH2 0x1C50 JUMPI PUSH1 0x40 MLOAD PUSH3 0x461BCD PUSH1 0xE5 SHL DUP2 MSTORE PUSH1 0x20 PUSH1 0x4 DUP3 ADD DUP2 SWAP1 MSTORE PUSH1 0x24 DUP3 ADD MSTORE PUSH32 0x596F752068617665206E6F20726F6C6520666F722074686973207265636F7264 PUSH1 0x44 DUP3 ADD MSTORE PUSH1 0x64 ADD PUSH2 0x9AC JUMP JUMPDEST PUSH1 0x0 DUP1 PUSH1 0x5 DUP8 PUSH1 0x40 MLOAD PUSH2 0x1C63 SWAP2 SWAP1 PUSH2 0x3936 JUMP JUMPDEST SWAP1 DUP2 MSTORE PUSH1 0x20 ADD PUSH1 0x40 MLOAD DUP1 SWAP2 SUB SWAP1 KECCAK256 DUP1 SLOAD SWAP1 POP GT SWAP1 POP PUSH1 0x0 PUSH2 0x1CA2 DUP8 CALLER PUSH1 0x40 MLOAD DUP1 PUSH1 0x40 ADD PUSH1 0x40 MSTORE DUP1 PUSH1 0x5 DUP2 MSTORE PUSH1 0x20 ADD PUSH5 0x37BBB732B9 PUSH1 0xD9 SHL DUP2 MSTORE POP PUSH2 0x2CA9 JUMP JUMPDEST SWAP1 POP PUSH1 0x0 PUSH2 0x1CD6 DUP9 CALLER PUSH1 0x40 MLOAD DUP1 PUSH1 0x40 ADD PUSH1 0x40 MSTORE DUP1 PUSH1 0xD DUP2 MSTORE PUSH1 0x20 ADD PUSH13 0x30B236B4B734B9BA3930BA37B9 PUSH1 0x99 SHL DUP2 MSTORE POP PUSH2 0x2CA9 JUMP JUMPDEST PUSH1 0x40 DUP1 MLOAD DUP1 DUP3 ADD SWAP1 SWAP2 MSTORE PUSH1 0x5 DUP2 MSTORE PUSH5 0x37BBB732B9 PUSH1 0xD9 SHL PUSH1 0x20 SWAP1 SWAP2 ADD MSTORE SWAP1 POP PUSH1 0x0 DUP1 MLOAD PUSH1 0x20 PUSH2 0x3CE2 DUP4 CODECOPY DUP2 MLOAD SWAP2 MSTORE DUP6 ADD PUSH2 0x1DC1 JUMPI DUP3 ISZERO PUSH2 0x1D62 JUMPI DUP2 PUSH2 0x1D5D JUMPI PUSH1 0x40 MLOAD PUSH3 0x461BCD PUSH1 0xE5 SHL DUP2 MSTORE PUSH1 0x20 PUSH1 0x4 DUP3 ADD DUP2 SWAP1 MSTORE PUSH1 0x24 DUP3 ADD MSTORE PUSH32 0x4F6E6C79206F776E6572732063616E206772616E74206F776E657220726F6C65 PUSH1 0x44 DUP3 ADD MSTORE PUSH1 0x64 ADD PUSH2 0x9AC JUMP JUMPDEST PUSH2 0x1EF7 JUMP JUMPDEST DUP1 PUSH2 0x1D5D JUMPI PUSH1 0x40 MLOAD PUSH3 0x461BCD PUSH1 0xE5 SHL DUP2 MSTORE PUSH1 0x20 PUSH1 0x4 DUP3 ADD MSTORE PUSH1 0x29 PUSH1 0x24 DUP3 ADD MSTORE PUSH32 0x4F6E6C792061646D696E6973747261746F72732063616E206772616E74206669 PUSH1 0x44 DUP3 ADD MSTORE PUSH9 0x3939BA1037BBB732B9 PUSH1 0xB9 SHL PUSH1 0x64 DUP3 ADD MSTORE PUSH1 0x84 ADD PUSH2 0x9AC JUMP JUMPDEST PUSH1 0x40 DUP1 MLOAD DUP1 DUP3 ADD SWAP1 SWAP2 MSTORE PUSH1 0xD DUP2 MSTORE PUSH13 0x30B236B4B734B9BA3930BA37B9 PUSH1 0x99 SHL PUSH1 0x20 SWAP1 SWAP2 ADD MSTORE PUSH1 0x0 DUP1 MLOAD PUSH1 0x20 PUSH2 0x3D22 DUP4 CODECOPY DUP2 MLOAD SWAP2 MSTORE DUP6 ADD PUSH2 0x1E64 JUMPI DUP2 DUP1 PUSH2 0x1E04 JUMPI POP DUP1 JUMPDEST PUSH2 0x1D5D JUMPI PUSH1 0x40 MLOAD PUSH3 0x461BCD PUSH1 0xE5 SHL DUP2 MSTORE PUSH1 0x20 PUSH1 0x4 DUP3 ADD MSTORE PUSH1 0x3B PUSH1 0x24 DUP3 ADD MSTORE PUSH1 0x0 DUP1 MLOAD PUSH1 0x20 PUSH2 0x3CA2 DUP4 CODECOPY DUP2 MLOAD SWAP2 MSTORE PUSH1 0x44 DUP3 ADD MSTORE PUSH32 0x616E206772616E742061646D696E6973747261746F7220726F6C650000000000 PUSH1 0x64 DUP3 ADD MSTORE PUSH1 0x84 ADD PUSH2 0x9AC JUMP JUMPDEST PUSH1 0x40 DUP1 MLOAD DUP1 DUP3 ADD SWAP1 SWAP2 MSTORE PUSH1 0x6 DUP2 MSTORE PUSH6 0x3B34B2BBB2B9 PUSH1 0xD1 SHL PUSH1 0x20 SWAP1 SWAP2 ADD MSTORE PUSH1 0x0 DUP1 MLOAD PUSH1 0x20 PUSH2 0x3CC2 DUP4 CODECOPY DUP2 MLOAD SWAP2 MSTORE DUP6 ADD PUSH2 0x1EF7 JUMPI DUP2 DUP1 PUSH2 0x1EA0 JUMPI POP DUP1 JUMPDEST PUSH2 0x1EF7 JUMPI PUSH1 0x40 MLOAD PUSH3 0x461BCD PUSH1 0xE5 SHL DUP2 MSTORE PUSH1 0x20 PUSH1 0x4 DUP3 ADD MSTORE PUSH1 0x34 PUSH1 0x24 DUP3 ADD MSTORE PUSH1 0x0 DUP1 MLOAD PUSH1 0x20 PUSH2 0x3CA2 DUP4 CODECOPY DUP2 MLOAD SWAP2 MSTORE PUSH1 0x44 DUP3 ADD MSTORE PUSH20 0x616E206772616E742076696577657220726F6C65 PUSH1 0x60 SHL PUSH1 0x64 DUP3 ADD MSTORE PUSH1 0x84 ADD PUSH2 0x9AC JUMP JUMPDEST PUSH1 0x0 DUP9 DUP9 PUSH1 0x40 MLOAD PUSH1 0x20 ADD PUSH2 0x1F0C SWAP3 SWAP2 SWAP1 PUSH2 0x3A2E JUMP JUMPDEST PUSH1 0x40 DUP1 MLOAD DUP1 DUP4 SUB PUSH1 0x1F NOT ADD DUP2 MSTORE SWAP2 DUP2 MSTORE DUP2 MLOAD PUSH1 0x20 SWAP3 DUP4 ADD KECCAK256 PUSH1 0x0 DUP2 DUP2 MSTORE PUSH1 0x4 SWAP1 SWAP4 MSTORE SWAP2 KECCAK256 PUSH1 0x5 ADD SLOAD SWAP1 SWAP2 POP PUSH1 0x1 PUSH1 0xA0 SHL SWAP1 DIV PUSH1 0xFF AND ISZERO PUSH2 0x1FA8 JUMPI PUSH1 0x40 MLOAD PUSH3 0x461BCD PUSH1 0xE5 SHL DUP2 MSTORE PUSH1 0x20 PUSH1 0x4 DUP3 ADD MSTORE PUSH1 0x31 PUSH1 0x24 DUP3 ADD MSTORE PUSH32 0x5573657220616C726561647920686173206120726F6C652E2055736520636861 PUSH1 0x44 DUP3 ADD MSTORE PUSH17 0x1B99D9549BDB194A0A481A5B9CDD195859 PUSH1 0x7A SHL PUSH1 0x64 DUP3 ADD MSTORE PUSH1 0x84 ADD PUSH2 0x9AC JUMP JUMPDEST PUSH2 0x1FB4 DUP10 DUP10 DUP10 CALLER PUSH2 0x2F9D JUMP JUMPDEST POP POP POP POP POP POP POP POP POP JUMP JUMPDEST PUSH1 0x0 PUSH2 0x1FCC DUP5 DUP5 DUP5 PUSH2 0x2CA9 JUMP JUMPDEST SWAP5 SWAP4 POP POP POP POP JUMP JUMPDEST PUSH1 0x1 PUSH1 0x1 PUSH1 0xA0 SHL SUB DUP2 AND PUSH1 0x0 SWAP1 DUP2 MSTORE PUSH1 0x1 PUSH1 0x20 MSTORE PUSH1 0x40 DUP2 KECCAK256 PUSH1 0x2 SWAP1 DUP2 ADD SLOAD PUSH1 0xFF AND DUP2 DUP2 GT ISZERO PUSH2 0x2005 JUMPI PUSH2 0x2005 PUSH2 0x345E JUMP JUMPDEST EQ SWAP3 SWAP2 POP POP JUMP JUMPDEST CALLER PUSH1 0x0 SWAP1 DUP2 MSTORE PUSH1 0x1 PUSH1 0x20 MSTORE PUSH1 0x40 DUP2 KECCAK256 PUSH1 0x2 SWAP1 DUP2 ADD SLOAD PUSH1 0xFF AND SWAP1 DUP2 GT ISZERO PUSH2 0x2034 JUMPI PUSH2 0x2034 PUSH2 0x345E JUMP JUMPDEST EQ ISZERO DUP1 ISZERO PUSH2 0x2053 JUMPI POP CALLER PUSH1 0x0 SWAP1 DUP2 MSTORE PUSH1 0x1 PUSH1 0x20 MSTORE PUSH1 0x40 SWAP1 KECCAK256 PUSH1 0x3 ADD SLOAD ISZERO ISZERO JUMPDEST PUSH2 0x2096 JUMPI PUSH1 0x40 MLOAD PUSH3 0x461BCD PUSH1 0xE5 SHL DUP2 MSTORE PUSH1 0x20 PUSH1 0x4 DUP3 ADD MSTORE PUSH1 0x14 PUSH1 0x24 DUP3 ADD MSTORE PUSH20 0x2737BA1030B71030B1BA34BB329036B2B6B132B9 PUSH1 0x61 SHL PUSH1 0x44 DUP3 ADD MSTORE PUSH1 0x64 ADD PUSH2 0x9AC JUMP JUMPDEST PUSH1 0x0 DUP4 MLOAD GT PUSH2 0x20B7 JUMPI PUSH1 0x40 MLOAD PUSH3 0x461BCD PUSH1 0xE5 SHL DUP2 MSTORE PUSH1 0x4 ADD PUSH2 0x9AC SWAP1 PUSH2 0x39C0 JUMP JUMPDEST PUSH1 0x1 PUSH1 0x1 PUSH1 0xA0 SHL SUB DUP3 AND PUSH2 0x20DD JUMPI PUSH1 0x40 MLOAD PUSH3 0x461BCD PUSH1 0xE5 SHL DUP2 MSTORE PUSH1 0x4 ADD PUSH2 0x9AC SWAP1 PUSH2 0x39F7 JUMP JUMPDEST DUP1 MLOAD PUSH1 0x20 DUP1 DUP4 ADD SWAP2 SWAP1 SWAP2 KECCAK256 PUSH1 0x40 DUP1 MLOAD DUP1 DUP3 ADD SWAP1 SWAP2 MSTORE PUSH1 0x5 DUP2 MSTORE PUSH5 0x37BBB732B9 PUSH1 0xD9 SHL SWAP3 ADD SWAP2 SWAP1 SWAP2 MSTORE PUSH32 0x2016836A56B71F0D02689E69E326F4F4C1B9057164EF592671CF0D37C8040C0 DUP2 EQ DUP1 PUSH2 0x2165 JUMPI POP PUSH1 0x40 DUP1 MLOAD DUP1 DUP3 ADD SWAP1 SWAP2 MSTORE PUSH1 0xD DUP2 MSTORE PUSH13 0x30B236B4B734B9BA3930BA37B9 PUSH1 0x99 SHL PUSH1 0x20 SWAP1 SWAP2 ADD MSTORE PUSH1 0x0 DUP1 MLOAD PUSH1 0x20 PUSH2 0x3D02 DUP4 CODECOPY DUP2 MLOAD SWAP2 MSTORE DUP2 EQ JUMPDEST DUP1 PUSH2 0x21AD JUMPI POP PUSH1 0x40 DUP1 MLOAD DUP1 DUP3 ADD SWAP1 SWAP2 MSTORE PUSH1 0x6 DUP2 MSTORE PUSH6 0x3B34B2BBB2B9 PUSH1 0xD1 SHL PUSH1 0x20 SWAP1 SWAP2 ADD MSTORE PUSH32 0x120310A1203E5851B63A4D0B2C5643D3FBA07783D2B04D7222298A1ED22E1E0D DUP2 EQ JUMPDEST PUSH2 0x21C9 JUMPI PUSH1 0x40 MLOAD PUSH3 0x461BCD PUSH1 0xE5 SHL DUP2 MSTORE PUSH1 0x4 ADD PUSH2 0x9AC SWAP1 PUSH2 0x3AC8 JUMP JUMPDEST PUSH1 0x0 DUP5 DUP5 PUSH1 0x40 MLOAD PUSH1 0x20 ADD PUSH2 0x21DE SWAP3 SWAP2 SWAP1 PUSH2 0x3A2E JUMP JUMPDEST PUSH1 0x40 MLOAD PUSH1 0x20 DUP2 DUP4 SUB SUB DUP2 MSTORE SWAP1 PUSH1 0x40 MSTORE DUP1 MLOAD SWAP1 PUSH1 0x20 ADD KECCAK256 SWAP1 POP PUSH1 0x0 PUSH1 0x4 PUSH1 0x0 DUP4 DUP2 MSTORE PUSH1 0x20 ADD SWAP1 DUP2 MSTORE PUSH1 0x20 ADD PUSH1 0x0 KECCAK256 PUSH1 0x40 MLOAD DUP1 PUSH1 0xE0 ADD PUSH1 0x40 MSTORE SWAP1 DUP2 PUSH1 0x0 DUP3 ADD DUP1 SLOAD PUSH2 0x2226 SWAP1 PUSH2 0x38FC JUMP JUMPDEST DUP1 PUSH1 0x1F ADD PUSH1 0x20 DUP1 SWAP2 DIV MUL PUSH1 0x20 ADD PUSH1 0x40 MLOAD SWAP1 DUP2 ADD PUSH1 0x40 MSTORE DUP1 SWAP3 SWAP2 SWAP1 DUP2 DUP2 MSTORE PUSH1 0x20 ADD DUP3 DUP1 SLOAD PUSH2 0x2252 SWAP1 PUSH2 0x38FC JUMP JUMPDEST DUP1 ISZERO PUSH2 0x229F JUMPI DUP1 PUSH1 0x1F LT PUSH2 0x2274 JUMPI PUSH2 0x100 DUP1 DUP4 SLOAD DIV MUL DUP4 MSTORE SWAP2 PUSH1 0x20 ADD SWAP2 PUSH2 0x229F JUMP JUMPDEST DUP3 ADD SWAP2 SWAP1 PUSH1 0x0 MSTORE PUSH1 0x20 PUSH1 0x0 KECCAK256 SWAP1 JUMPDEST DUP2 SLOAD DUP2 MSTORE SWAP1 PUSH1 0x1 ADD SWAP1 PUSH1 0x20 ADD DUP1 DUP4 GT PUSH2 0x2282 JUMPI DUP3 SWAP1 SUB PUSH1 0x1F AND DUP3 ADD SWAP2 JUMPDEST POP POP POP SWAP2 DUP4 MSTORE POP POP PUSH1 0x1 DUP3 ADD SLOAD PUSH1 0x1 PUSH1 0x1 PUSH1 0xA0 SHL SUB AND PUSH1 0x20 DUP3 ADD MSTORE PUSH1 0x2 DUP3 ADD DUP1 SLOAD PUSH1 0x40 SWAP1 SWAP3 ADD SWAP2 PUSH2 0x22CF SWAP1 PUSH2 0x38FC JUMP JUMPDEST DUP1 PUSH1 0x1F ADD PUSH1 0x20 DUP1 SWAP2 DIV MUL PUSH1 0x20 ADD PUSH1 0x40 MLOAD SWAP1 DUP2 ADD PUSH1 0x40 MSTORE DUP1 SWAP3 SWAP2 SWAP1 DUP2 DUP2 MSTORE PUSH1 0x20 ADD DUP3 DUP1 SLOAD PUSH2 0x22FB SWAP1 PUSH2 0x38FC JUMP JUMPDEST DUP1 ISZERO PUSH2 0x2348 JUMPI DUP1 PUSH1 0x1F LT PUSH2 0x231D JUMPI PUSH2 0x100 DUP1 DUP4 SLOAD DIV MUL DUP4 MSTORE SWAP2 PUSH1 0x20 ADD SWAP2 PUSH2 0x2348 JUMP JUMPDEST DUP3 ADD SWAP2 SWAP1 PUSH1 0x0 MSTORE PUSH1 0x20 PUSH1 0x0 KECCAK256 SWAP1 JUMPDEST DUP2 SLOAD DUP2 MSTORE SWAP1 PUSH1 0x1 ADD SWAP1 PUSH1 0x20 ADD DUP1 DUP4 GT PUSH2 0x232B JUMPI DUP3 SWAP1 SUB PUSH1 0x1F AND DUP3 ADD SWAP2 JUMPDEST POP POP POP SWAP2 DUP4 MSTORE POP POP PUSH1 0x3 DUP3 ADD SLOAD PUSH1 0x20 DUP3 ADD MSTORE PUSH1 0x4 DUP3 ADD SLOAD PUSH1 0x40 DUP3 ADD MSTORE PUSH1 0x5 SWAP1 SWAP2 ADD SLOAD PUSH1 0x1 PUSH1 0x1 PUSH1 0xA0 SHL SUB DUP2 AND PUSH1 0x60 DUP4 ADD MSTORE PUSH1 0x1 PUSH1 0xA0 SHL SWAP1 DIV PUSH1 0xFF AND ISZERO ISZERO PUSH1 0x80 SWAP1 SWAP2 ADD MSTORE PUSH1 0xC0 DUP2 ADD MLOAD SWAP1 SWAP2 POP PUSH2 0x23AF JUMPI PUSH1 0x40 MLOAD PUSH3 0x461BCD PUSH1 0xE5 SHL DUP2 MSTORE PUSH1 0x4 ADD PUSH2 0x9AC SWAP1 PUSH2 0x3A65 JUMP JUMPDEST PUSH1 0x40 DUP2 ADD MLOAD DUP1 MLOAD PUSH1 0x20 DUP3 ADD KECCAK256 DUP5 DUP2 SUB PUSH2 0x240A JUMPI PUSH1 0x40 MLOAD PUSH3 0x461BCD PUSH1 0xE5 SHL DUP2 MSTORE PUSH1 0x20 PUSH1 0x4 DUP3 ADD MSTORE PUSH1 0x1A PUSH1 0x24 DUP3 ADD MSTORE PUSH32 0x5573657220616C726561647920686173207468697320726F6C65000000000000 PUSH1 0x44 DUP3 ADD MSTORE PUSH1 0x64 ADD PUSH2 0x9AC JUMP JUMPDEST PUSH1 0x40 DUP1 MLOAD DUP1 DUP3 ADD SWAP1 SWAP2 MSTORE PUSH1 0x5 DUP2 MSTORE PUSH5 0x37BBB732B9 PUSH1 0xD9 SHL PUSH1 0x20 SWAP1 SWAP2 ADD MSTORE PUSH1 0x0 DUP1 MLOAD PUSH1 0x20 PUSH2 0x3CE2 DUP4 CODECOPY DUP2 MLOAD SWAP2 MSTORE DUP2 ADD PUSH2 0x24B6 JUMPI PUSH1 0x40 MLOAD PUSH3 0x461BCD PUSH1 0xE5 SHL DUP2 MSTORE PUSH1 0x20 PUSH1 0x4 DUP3 ADD MSTORE PUSH1 0x43 PUSH1 0x24 DUP3 ADD MSTORE PUSH32 0x4F776E6572732063616E6E6F742062652064656D6F7465642E204F776E657220 PUSH1 0x44 DUP3 ADD MSTORE PUSH32 0x6D75737420766F6C756E746172696C792072656D6F7665207468656D73656C76 PUSH1 0x64 DUP3 ADD MSTORE PUSH3 0x32B997 PUSH1 0xE9 SHL PUSH1 0x84 DUP3 ADD MSTORE PUSH1 0xA4 ADD PUSH2 0x9AC JUMP JUMPDEST PUSH1 0x0 DUP1 PUSH1 0x5 DUP11 PUSH1 0x40 MLOAD PUSH2 0x24C9 SWAP2 SWAP1 PUSH2 0x3936 JUMP JUMPDEST SWAP1 DUP2 MSTORE PUSH1 0x20 ADD PUSH1 0x40 MLOAD DUP1 SWAP2 SUB SWAP1 KECCAK256 DUP1 SLOAD SWAP1 POP GT SWAP1 POP PUSH1 0x0 PUSH2 0x2508 DUP11 CALLER PUSH1 0x40 MLOAD DUP1 PUSH1 0x40 ADD PUSH1 0x40 MSTORE DUP1 PUSH1 0x5 DUP2 MSTORE PUSH1 0x20 ADD PUSH5 0x37BBB732B9 PUSH1 0xD9 SHL DUP2 MSTORE POP PUSH2 0x2CA9 JUMP JUMPDEST SWAP1 POP PUSH1 0x0 PUSH2 0x253C DUP12 CALLER PUSH1 0x40 MLOAD DUP1 PUSH1 0x40 ADD PUSH1 0x40 MSTORE DUP1 PUSH1 0xD DUP2 MSTORE PUSH1 0x20 ADD PUSH13 0x30B236B4B734B9BA3930BA37B9 PUSH1 0x99 SHL DUP2 MSTORE POP PUSH2 0x2CA9 JUMP JUMPDEST PUSH1 0x40 DUP1 MLOAD DUP1 DUP3 ADD SWAP1 SWAP2 MSTORE PUSH1 0x5 DUP2 MSTORE PUSH5 0x37BBB732B9 PUSH1 0xD9 SHL PUSH1 0x20 SWAP1 SWAP2 ADD MSTORE SWAP1 POP CALLER PUSH1 0x1 PUSH1 0x1 PUSH1 0xA0 SHL SUB DUP12 AND EQ PUSH1 0x0 DUP1 MLOAD PUSH1 0x20 PUSH2 0x3CE2 DUP4 CODECOPY DUP2 MLOAD SWAP2 MSTORE DUP10 ADD PUSH2 0x2635 JUMPI DUP4 ISZERO PUSH2 0x25D4 JUMPI DUP3 PUSH2 0x25CF JUMPI PUSH1 0x40 MLOAD PUSH3 0x461BCD PUSH1 0xE5 SHL DUP2 MSTORE PUSH1 0x20 PUSH1 0x4 DUP3 ADD DUP2 SWAP1 MSTORE PUSH1 0x24 DUP3 ADD MSTORE PUSH32 0x4F6E6C79206F776E6572732063616E2070726F6D6F746520746F206F776E6572 PUSH1 0x44 DUP3 ADD MSTORE PUSH1 0x64 ADD PUSH2 0x9AC JUMP JUMPDEST PUSH2 0x2804 JUMP JUMPDEST DUP2 PUSH2 0x25CF JUMPI PUSH1 0x40 MLOAD PUSH3 0x461BCD PUSH1 0xE5 SHL DUP2 MSTORE PUSH1 0x20 PUSH1 0x4 DUP3 ADD MSTORE PUSH1 0x2B PUSH1 0x24 DUP3 ADD MSTORE PUSH32 0x4F6E6C792061646D696E6973747261746F72732063616E2070726F6D6F746520 PUSH1 0x44 DUP3 ADD MSTORE PUSH11 0x3334B939BA1037BBB732B9 PUSH1 0xA9 SHL PUSH1 0x64 DUP3 ADD MSTORE PUSH1 0x84 ADD PUSH2 0x9AC JUMP JUMPDEST PUSH1 0x40 DUP1 MLOAD DUP1 DUP3 ADD SWAP1 SWAP2 MSTORE PUSH1 0xD DUP2 MSTORE PUSH13 0x30B236B4B734B9BA3930BA37B9 PUSH1 0x99 SHL PUSH1 0x20 SWAP1 SWAP2 ADD MSTORE PUSH1 0x0 DUP1 MLOAD PUSH1 0x20 PUSH2 0x3D22 DUP4 CODECOPY DUP2 MLOAD SWAP2 MSTORE DUP10 ADD PUSH2 0x26D8 JUMPI DUP3 DUP1 PUSH2 0x2678 JUMPI POP DUP2 JUMPDEST PUSH2 0x25CF JUMPI PUSH1 0x40 MLOAD PUSH3 0x461BCD PUSH1 0xE5 SHL DUP2 MSTORE PUSH1 0x20 PUSH1 0x4 DUP3 ADD MSTORE PUSH1 0x3B PUSH1 0x24 DUP3 ADD MSTORE PUSH1 0x0 DUP1 MLOAD PUSH1 0x20 PUSH2 0x3CA2 DUP4 CODECOPY DUP2 MLOAD SWAP2 MSTORE PUSH1 0x44 DUP3 ADD MSTORE PUSH32 0x616E2070726F6D6F746520746F2061646D696E6973747261746F720000000000 PUSH1 0x64 DUP3 ADD MSTORE PUSH1 0x84 ADD PUSH2 0x9AC JUMP JUMPDEST PUSH1 0x40 DUP1 MLOAD DUP1 DUP3 ADD SWAP1 SWAP2 MSTORE PUSH1 0x6 DUP2 MSTORE PUSH6 0x3B34B2BBB2B9 PUSH1 0xD1 SHL PUSH1 0x20 SWAP1 SWAP2 ADD MSTORE PUSH1 0x0 DUP1 MLOAD PUSH1 0x20 PUSH2 0x3CC2 DUP4 CODECOPY DUP2 MLOAD SWAP2 MSTORE DUP10 ADD PUSH2 0x2804 JUMPI DUP4 ISZERO PUSH2 0x27A6 JUMPI DUP3 DUP1 PUSH2 0x2722 JUMPI POP DUP2 DUP1 ISZERO PUSH2 0x2722 JUMPI POP DUP1 JUMPDEST PUSH2 0x25CF JUMPI PUSH1 0x40 MLOAD PUSH3 0x461BCD PUSH1 0xE5 SHL DUP2 MSTORE PUSH1 0x20 PUSH1 0x4 DUP3 ADD MSTORE PUSH1 0x49 PUSH1 0x24 DUP3 ADD MSTORE PUSH32 0x4F6E6C79206F776E6572732063616E2064656D6F7465206F74686572732E2041 PUSH1 0x44 DUP3 ADD MSTORE PUSH32 0x646D696E6973747261746F72732063616E206F6E6C792064656D6F7465207468 PUSH1 0x64 DUP3 ADD MSTORE PUSH9 0x32B6B9B2B63B32B997 PUSH1 0xB9 SHL PUSH1 0x84 DUP3 ADD MSTORE PUSH1 0xA4 ADD PUSH2 0x9AC JUMP JUMPDEST DUP2 PUSH2 0x2804 JUMPI PUSH1 0x40 MLOAD PUSH3 0x461BCD PUSH1 0xE5 SHL DUP2 MSTORE PUSH1 0x20 PUSH1 0x4 DUP3 ADD MSTORE PUSH1 0x28 PUSH1 0x24 DUP3 ADD MSTORE PUSH32 0x4F6E6C792061646D696E6973747261746F72732063616E2064656D6F74652074 PUSH1 0x44 DUP3 ADD MSTORE PUSH8 0x37903B34B2BBB2B9 PUSH1 0xC1 SHL PUSH1 0x64 DUP3 ADD MSTORE PUSH1 0x84 ADD PUSH2 0x9AC JUMP JUMPDEST PUSH1 0x40 DUP1 MLOAD DUP1 DUP3 ADD SWAP1 SWAP2 MSTORE PUSH1 0xD DUP2 MSTORE PUSH13 0x30B236B4B734B9BA3930BA37B9 PUSH1 0x99 SHL PUSH1 0x20 SWAP1 SWAP2 ADD MSTORE PUSH1 0x0 DUP1 MLOAD PUSH1 0x20 PUSH2 0x3D02 DUP4 CODECOPY DUP2 MLOAD SWAP2 MSTORE DUP6 EQ DUP1 ISZERO PUSH2 0x2883 JUMPI POP PUSH1 0x40 DUP1 MLOAD DUP1 DUP3 ADD SWAP1 SWAP2 MSTORE PUSH1 0x6 DUP2 MSTORE PUSH6 0x3B34B2BBB2B9 PUSH1 0xD1 SHL PUSH1 0x20 SWAP1 SWAP2 ADD MSTORE PUSH32 0x120310A1203E5851B63A4D0B2C5643D3FBA07783D2B04D7222298A1ED22E1E0D DUP10 EQ JUMPDEST ISZERO PUSH2 0x2922 JUMPI DUP4 PUSH2 0x2922 JUMPI PUSH1 0x1 PUSH1 0x6 DUP14 PUSH1 0x40 MLOAD PUSH2 0x289F SWAP2 SWAP1 PUSH2 0x3936 JUMP JUMPDEST SWAP1 DUP2 MSTORE PUSH1 0x40 MLOAD SWAP1 DUP2 SWAP1 SUB PUSH1 0x20 ADD SWAP1 KECCAK256 SLOAD GT PUSH2 0x2922 JUMPI PUSH1 0x40 MLOAD PUSH3 0x461BCD PUSH1 0xE5 SHL DUP2 MSTORE PUSH1 0x20 PUSH1 0x4 DUP3 ADD MSTORE PUSH1 0x39 PUSH1 0x24 DUP3 ADD MSTORE PUSH32 0x43616E6E6F742064656D6F746520746865206C6173742061646D696E69737472 PUSH1 0x44 DUP3 ADD MSTORE PUSH32 0x61746F72207768656E206E6F206F776E65722065786973747300000000000000 PUSH1 0x64 DUP3 ADD MSTORE PUSH1 0x84 ADD PUSH2 0x9AC JUMP JUMPDEST PUSH2 0x292D DUP13 DUP13 DUP9 PUSH2 0x2E9B JUMP JUMPDEST PUSH2 0x2938 DUP13 DUP13 DUP13 PUSH2 0x31BC JUMP JUMPDEST PUSH1 0x0 DUP9 DUP2 MSTORE PUSH1 0x4 PUSH1 0x20 MSTORE PUSH1 0x40 SWAP1 KECCAK256 PUSH1 0x2 ADD PUSH2 0x2953 DUP12 DUP3 PUSH2 0x3B6C JUMP JUMPDEST POP PUSH1 0x0 DUP9 DUP2 MSTORE PUSH1 0x4 PUSH1 0x20 DUP2 SWAP1 MSTORE PUSH1 0x40 SWAP2 DUP3 SWAP1 KECCAK256 TIMESTAMP SWAP2 ADD SSTORE MLOAD CALLER SWAP1 PUSH1 0x1 PUSH1 0x1 PUSH1 0xA0 SHL SUB DUP14 AND SWAP1 PUSH2 0x2983 SWAP1 DUP16 SWAP1 PUSH2 0x3936 JUMP JUMPDEST PUSH1 0x40 MLOAD DUP1 SWAP2 SUB SWAP1 KECCAK256 PUSH32 0xA9B92B2B183A6569CAC9B7675BEA182897AA18A7CA2A6FB370A6F5825633961C DUP10 DUP15 TIMESTAMP PUSH1 0x40 MLOAD PUSH2 0x29BE SWAP4 SWAP3 SWAP2 SWAP1 PUSH2 0x3C2C JUMP JUMPDEST PUSH1 0x40 MLOAD DUP1 SWAP2 SUB SWAP1 LOG4 POP POP POP POP POP POP POP POP POP POP POP POP JUMP JUMPDEST DUP2 MLOAD PUSH1 0x20 DUP2 DUP5 ADD DUP2 ADD DUP1 MLOAD PUSH1 0x6 DUP3 MSTORE SWAP3 DUP3 ADD SWAP2 DUP6 ADD SWAP2 SWAP1 SWAP2 KECCAK256 SWAP2 SWAP1 MSTORE DUP1 SLOAD DUP3 SWAP1 DUP2 LT PUSH2 0x1777 JUMPI PUSH1 0x0 DUP1 REVERT JUMPDEST PUSH1 0x60 PUSH1 0x0 DUP1 PUSH1 0x0 DUP1 PUSH1 0x0 DUP8 DUP8 PUSH1 0x40 MLOAD PUSH1 0x20 ADD PUSH2 0x2A1C SWAP3 SWAP2 SWAP1 PUSH2 0x3A2E JUMP JUMPDEST PUSH1 0x40 MLOAD PUSH1 0x20 DUP2 DUP4 SUB SUB DUP2 MSTORE SWAP1 PUSH1 0x40 MSTORE DUP1 MLOAD SWAP1 PUSH1 0x20 ADD KECCAK256 SWAP1 POP PUSH1 0x0 PUSH1 0x4 PUSH1 0x0 DUP4 DUP2 MSTORE PUSH1 0x20 ADD SWAP1 DUP2 MSTORE PUSH1 0x20 ADD PUSH1 0x0 KECCAK256 PUSH1 0x40 MLOAD DUP1 PUSH1 0xE0 ADD PUSH1 0x40 MSTORE SWAP1 DUP2 PUSH1 0x0 DUP3 ADD DUP1 SLOAD PUSH2 0x2A64 SWAP1 PUSH2 0x38FC JUMP JUMPDEST DUP1 PUSH1 0x1F ADD PUSH1 0x20 DUP1 SWAP2 DIV MUL PUSH1 0x20 ADD PUSH1 0x40 MLOAD SWAP1 DUP2 ADD PUSH1 0x40 MSTORE DUP1 SWAP3 SWAP2 SWAP1 DUP2 DUP2 MSTORE PUSH1 0x20 ADD DUP3 DUP1 SLOAD PUSH2 0x2A90 SWAP1 PUSH2 0x38FC JUMP JUMPDEST DUP1 ISZERO PUSH2 0x2ADD JUMPI DUP1 PUSH1 0x1F LT PUSH2 0x2AB2 JUMPI PUSH2 0x100 DUP1 DUP4 SLOAD DIV MUL DUP4 MSTORE SWAP2 PUSH1 0x20 ADD SWAP2 PUSH2 0x2ADD JUMP JUMPDEST DUP3 ADD SWAP2 SWAP1 PUSH1 0x0 MSTORE PUSH1 0x20 PUSH1 0x0 KECCAK256 SWAP1 JUMPDEST DUP2 SLOAD DUP2 MSTORE SWAP1 PUSH1 0x1 ADD SWAP1 PUSH1 0x20 ADD DUP1 DUP4 GT PUSH2 0x2AC0 JUMPI DUP3 SWAP1 SUB PUSH1 0x1F AND DUP3 ADD SWAP2 JUMPDEST POP POP POP SWAP2 DUP4 MSTORE POP POP PUSH1 0x1 DUP3 ADD SLOAD PUSH1 0x1 PUSH1 0x1 PUSH1 0xA0 SHL SUB AND PUSH1 0x20 DUP3 ADD MSTORE PUSH1 0x2 DUP3 ADD DUP1 SLOAD PUSH1 0x40 SWAP1 SWAP3 ADD SWAP2 PUSH2 0x2B0D SWAP1 PUSH2 0x38FC JUMP JUMPDEST DUP1 PUSH1 0x1F ADD PUSH1 0x20 DUP1 SWAP2 DIV MUL PUSH1 0x20 ADD PUSH1 0x40 MLOAD SWAP1 DUP2 ADD PUSH1 0x40 MSTORE DUP1 SWAP3 SWAP2 SWAP1 DUP2 DUP2 MSTORE PUSH1 0x20 ADD DUP3 DUP1 SLOAD PUSH2 0x2B39 SWAP1 PUSH2 0x38FC JUMP JUMPDEST DUP1 ISZERO PUSH2 0x2B86 JUMPI DUP1 PUSH1 0x1F LT PUSH2 0x2B5B JUMPI PUSH2 0x100 DUP1 DUP4 SLOAD DIV MUL DUP4 MSTORE SWAP2 PUSH1 0x20 ADD SWAP2 PUSH2 0x2B86 JUMP JUMPDEST DUP3 ADD SWAP2 SWAP1 PUSH1 0x0 MSTORE PUSH1 0x20 PUSH1 0x0 KECCAK256 SWAP1 JUMPDEST DUP2 SLOAD DUP2 MSTORE SWAP1 PUSH1 0x1 ADD SWAP1 PUSH1 0x20 ADD DUP1 DUP4 GT PUSH2 0x2B69 JUMPI DUP3 SWAP1 SUB PUSH1 0x1F AND DUP3 ADD SWAP2 JUMPDEST POP POP POP SWAP2 DUP4 MSTORE POP POP PUSH1 0x3 DUP3 ADD SLOAD PUSH1 0x20 DUP3 ADD MSTORE PUSH1 0x4 DUP3 ADD SLOAD PUSH1 0x40 DUP1 DUP4 ADD SWAP2 SWAP1 SWAP2 MSTORE PUSH1 0x5 SWAP1 SWAP3 ADD SLOAD PUSH1 0x1 PUSH1 0x1 PUSH1 0xA0 SHL SUB DUP2 AND PUSH1 0x60 DUP1 DUP5 ADD SWAP2 SWAP1 SWAP2 MSTORE PUSH1 0x1 PUSH1 0xA0 SHL SWAP1 SWAP2 DIV PUSH1 0xFF AND ISZERO ISZERO PUSH1 0x80 SWAP3 DUP4 ADD MSTORE SWAP2 DUP4 ADD MLOAD SWAP2 DUP4 ADD MLOAD SWAP1 DUP4 ADD MLOAD PUSH1 0xA0 DUP5 ADD MLOAD PUSH1 0xC0 SWAP1 SWAP5 ADD MLOAD SWAP3 SWAP14 SWAP2 SWAP13 POP SWAP11 POP SWAP2 SWAP9 POP SWAP7 POP SWAP5 POP POP POP POP POP JUMP JUMPDEST PUSH1 0x0 DUP1 DUP4 DUP4 PUSH1 0x40 MLOAD PUSH1 0x20 ADD PUSH2 0x2C13 SWAP3 SWAP2 SWAP1 PUSH2 0x3A2E JUMP JUMPDEST PUSH1 0x40 DUP1 MLOAD DUP1 DUP4 SUB PUSH1 0x1F NOT ADD DUP2 MSTORE SWAP2 DUP2 MSTORE DUP2 MLOAD PUSH1 0x20 SWAP3 DUP4 ADD KECCAK256 PUSH1 0x0 SWAP1 DUP2 MSTORE PUSH1 0x4 SWAP1 SWAP3 MSTORE SWAP1 KECCAK256 PUSH1 0x5 ADD SLOAD PUSH1 0x1 PUSH1 0xA0 SHL SWAP1 DIV PUSH1 0xFF AND SWAP5 SWAP4 POP POP POP POP JUMP JUMPDEST PUSH1 0x0 PUSH2 0x2C77 DUP4 DUP4 PUSH1 0x40 MLOAD DUP1 PUSH1 0x40 ADD PUSH1 0x40 MSTORE DUP1 PUSH1 0x5 DUP2 MSTORE PUSH1 0x20 ADD PUSH5 0x37BBB732B9 PUSH1 0xD9 SHL DUP2 MSTORE POP PUSH2 0x2CA9 JUMP JUMPDEST DUP1 PUSH2 0x61B JUMPI POP PUSH2 0x61B DUP4 DUP4 PUSH1 0x40 MLOAD DUP1 PUSH1 0x40 ADD PUSH1 0x40 MSTORE DUP1 PUSH1 0xD DUP2 MSTORE PUSH1 0x20 ADD PUSH13 0x30B236B4B734B9BA3930BA37B9 PUSH1 0x99 SHL DUP2 MSTORE POP JUMPDEST PUSH1 0x0 DUP1 DUP5 DUP5 PUSH1 0x40 MLOAD PUSH1 0x20 ADD PUSH2 0x2CBF SWAP3 SWAP2 SWAP1 PUSH2 0x3A2E JUMP JUMPDEST PUSH1 0x40 MLOAD PUSH1 0x20 DUP2 DUP4 SUB SUB DUP2 MSTORE SWAP1 PUSH1 0x40 MSTORE DUP1 MLOAD SWAP1 PUSH1 0x20 ADD KECCAK256 SWAP1 POP PUSH1 0x0 PUSH1 0x4 PUSH1 0x0 DUP4 DUP2 MSTORE PUSH1 0x20 ADD SWAP1 DUP2 MSTORE PUSH1 0x20 ADD PUSH1 0x0 KECCAK256 PUSH1 0x40 MLOAD DUP1 PUSH1 0xE0 ADD PUSH1 0x40 MSTORE SWAP1 DUP2 PUSH1 0x0 DUP3 ADD DUP1 SLOAD PUSH2 0x2D07 SWAP1 PUSH2 0x38FC JUMP JUMPDEST DUP1 PUSH1 0x1F ADD PUSH1 0x20 DUP1 SWAP2 DIV MUL PUSH1 0x20 ADD PUSH1 0x40 MLOAD SWAP1 DUP2 ADD PUSH1 0x40 MSTORE DUP1 SWAP3 SWAP2 SWAP1 DUP2 DUP2 MSTORE PUSH1 0x20 ADD DUP3 DUP1 SLOAD PUSH2 0x2D33 SWAP1 PUSH2 0x38FC JUMP JUMPDEST DUP1 ISZERO PUSH2 0x2D80 JUMPI DUP1 PUSH1 0x1F LT PUSH2 0x2D55 JUMPI PUSH2 0x100 DUP1 DUP4 SLOAD DIV MUL DUP4 MSTORE SWAP2 PUSH1 0x20 ADD SWAP2 PUSH2 0x2D80 JUMP JUMPDEST DUP3 ADD SWAP2 SWAP1 PUSH1 0x0 MSTORE PUSH1 0x20 PUSH1 0x0 KECCAK256 SWAP1 JUMPDEST DUP2 SLOAD DUP2 MSTORE SWAP1 PUSH1 0x1 ADD SWAP1 PUSH1 0x20 ADD DUP1 DUP4 GT PUSH2 0x2D63 JUMPI DUP3 SWAP1 SUB PUSH1 0x1F AND DUP3 ADD SWAP2 JUMPDEST POP POP POP SWAP2 DUP4 MSTORE POP POP PUSH1 0x1 DUP3 ADD SLOAD PUSH1 0x1 PUSH1 0x1 PUSH1 0xA0 SHL SUB AND PUSH1 0x20 DUP3 ADD MSTORE PUSH1 0x2 DUP3 ADD DUP1 SLOAD PUSH1 0x40 SWAP1 SWAP3 ADD SWAP2 PUSH2 0x2DB0 SWAP1 PUSH2 0x38FC JUMP JUMPDEST DUP1 PUSH1 0x1F ADD PUSH1 0x20 DUP1 SWAP2 DIV MUL PUSH1 0x20 ADD PUSH1 0x40 MLOAD SWAP1 DUP2 ADD PUSH1 0x40 MSTORE DUP1 SWAP3 SWAP2 SWAP1 DUP2 DUP2 MSTORE PUSH1 0x20 ADD DUP3 DUP1 SLOAD PUSH2 0x2DDC SWAP1 PUSH2 0x38FC JUMP JUMPDEST DUP1 ISZERO PUSH2 0x2E29 JUMPI DUP1 PUSH1 0x1F LT PUSH2 0x2DFE JUMPI PUSH2 0x100 DUP1 DUP4 SLOAD DIV MUL DUP4 MSTORE SWAP2 PUSH1 0x20 ADD SWAP2 PUSH2 0x2E29 JUMP JUMPDEST DUP3 ADD SWAP2 SWAP1 PUSH1 0x0 MSTORE PUSH1 0x20 PUSH1 0x0 KECCAK256 SWAP1 JUMPDEST DUP2 SLOAD DUP2 MSTORE SWAP1 PUSH1 0x1 ADD SWAP1 PUSH1 0x20 ADD DUP1 DUP4 GT PUSH2 0x2E0C JUMPI DUP3 SWAP1 SUB PUSH1 0x1F AND DUP3 ADD SWAP2 JUMPDEST POP POP POP SWAP2 DUP4 MSTORE POP POP PUSH1 0x3 DUP3 ADD SLOAD PUSH1 0x20 DUP3 ADD MSTORE PUSH1 0x4 DUP3 ADD SLOAD PUSH1 0x40 DUP3 ADD MSTORE PUSH1 0x5 SWAP1 SWAP2 ADD SLOAD PUSH1 0x1 PUSH1 0x1 PUSH1 0xA0 SHL SUB DUP2 AND PUSH1 0x60 DUP4 ADD MSTORE PUSH1 0x1 PUSH1 0xA0 SHL SWAP1 DIV PUSH1 0xFF AND ISZERO ISZERO PUSH1 0x80 SWAP1 SWAP2 ADD MSTORE PUSH1 0xC0 DUP2 ADD MLOAD SWAP1 SWAP2 POP DUP1 ISZERO PUSH2 0x2E91 JUMPI POP DUP4 DUP1 MLOAD SWAP1 PUSH1 0x20 ADD KECCAK256 DUP2 PUSH1 0x40 ADD MLOAD DUP1 MLOAD SWAP1 PUSH1 0x20 ADD KECCAK256 EQ JUMPDEST SWAP7 SWAP6 POP POP POP POP POP POP JUMP JUMPDEST DUP1 MLOAD PUSH1 0x20 DUP1 DUP4 ADD SWAP2 SWAP1 SWAP2 KECCAK256 PUSH1 0x40 DUP1 MLOAD DUP1 DUP3 ADD SWAP1 SWAP2 MSTORE PUSH1 0x5 DUP2 MSTORE PUSH5 0x37BBB732B9 PUSH1 0xD9 SHL SWAP3 ADD SWAP2 SWAP1 SWAP2 MSTORE PUSH1 0x0 DUP1 MLOAD PUSH1 0x20 PUSH2 0x3CE2 DUP4 CODECOPY DUP2 MLOAD SWAP2 MSTORE DUP2 ADD PUSH2 0x2F04 JUMPI PUSH2 0x2EFF PUSH1 0x5 DUP6 PUSH1 0x40 MLOAD PUSH2 0x2EEB SWAP2 SWAP1 PUSH2 0x3936 JUMP JUMPDEST SWAP1 DUP2 MSTORE PUSH1 0x20 ADD PUSH1 0x40 MLOAD DUP1 SWAP2 SUB SWAP1 KECCAK256 DUP5 PUSH2 0x3319 JUMP JUMPDEST PUSH2 0x2F97 JUMP JUMPDEST PUSH1 0x40 DUP1 MLOAD DUP1 DUP3 ADD SWAP1 SWAP2 MSTORE PUSH1 0xD DUP2 MSTORE PUSH13 0x30B236B4B734B9BA3930BA37B9 PUSH1 0x99 SHL PUSH1 0x20 SWAP1 SWAP2 ADD MSTORE PUSH1 0x0 DUP1 MLOAD PUSH1 0x20 PUSH2 0x3D22 DUP4 CODECOPY DUP2 MLOAD SWAP2 MSTORE DUP2 ADD PUSH2 0x2F51 JUMPI PUSH2 0x2EFF PUSH1 0x6 DUP6 PUSH1 0x40 MLOAD PUSH2 0x2EEB SWAP2 SWAP1 PUSH2 0x3936 JUMP JUMPDEST PUSH1 0x40 DUP1 MLOAD DUP1 DUP3 ADD SWAP1 SWAP2 MSTORE PUSH1 0x6 DUP2 MSTORE PUSH6 0x3B34B2BBB2B9 PUSH1 0xD1 SHL PUSH1 0x20 SWAP1 SWAP2 ADD MSTORE PUSH1 0x0 DUP1 MLOAD PUSH1 0x20 PUSH2 0x3CC2 DUP4 CODECOPY DUP2 MLOAD SWAP2 MSTORE DUP2 ADD PUSH2 0x2F97 JUMPI PUSH2 0x2F97 PUSH1 0x7 DUP6 PUSH1 0x40 MLOAD PUSH2 0x2EEB SWAP2 SWAP1 PUSH2 0x3936 JUMP JUMPDEST POP POP POP POP JUMP JUMPDEST PUSH1 0x0 DUP5 DUP5 PUSH1 0x40 MLOAD PUSH1 0x20 ADD PUSH2 0x2FB2 SWAP3 SWAP2 SWAP1 PUSH2 0x3A2E JUMP JUMPDEST PUSH1 0x40 DUP1 MLOAD DUP1 DUP4 SUB PUSH1 0x1F NOT ADD DUP2 MSTORE DUP3 DUP3 MSTORE DUP1 MLOAD PUSH1 0x20 SWAP2 DUP3 ADD KECCAK256 PUSH1 0x0 DUP2 DUP2 MSTORE PUSH1 0x4 DUP4 MSTORE DUP4 SWAP1 KECCAK256 PUSH1 0x5 ADD SLOAD PUSH1 0xE0 DUP6 ADD DUP5 MSTORE DUP10 DUP6 MSTORE PUSH1 0x1 PUSH1 0x1 PUSH1 0xA0 SHL SUB DUP10 AND SWAP3 DUP6 ADD SWAP3 SWAP1 SWAP3 MSTORE SWAP2 DUP4 ADD DUP7 SWAP1 MSTORE SWAP1 SWAP3 POP PUSH1 0x1 PUSH1 0xA0 SHL SWAP1 DIV PUSH1 0xFF AND SWAP1 PUSH1 0x60 DUP2 ADD DUP3 PUSH2 0x3017 JUMPI TIMESTAMP PUSH2 0x302A JUMP JUMPDEST PUSH1 0x0 DUP5 DUP2 MSTORE PUSH1 0x4 PUSH1 0x20 MSTORE PUSH1 0x40 SWAP1 KECCAK256 PUSH1 0x3 ADD SLOAD JUMPDEST DUP2 MSTORE TIMESTAMP PUSH1 0x20 DUP1 DUP4 ADD SWAP2 SWAP1 SWAP2 MSTORE PUSH1 0x1 PUSH1 0x1 PUSH1 0xA0 SHL SUB DUP7 AND PUSH1 0x40 DUP1 DUP5 ADD SWAP2 SWAP1 SWAP2 MSTORE PUSH1 0x1 PUSH1 0x60 SWAP1 SWAP4 ADD SWAP3 SWAP1 SWAP3 MSTORE PUSH1 0x0 DUP6 DUP2 MSTORE PUSH1 0x4 SWAP1 SWAP2 MSTORE KECCAK256 DUP2 MLOAD DUP2 SWAP1 PUSH2 0x306D SWAP1 DUP3 PUSH2 0x3B6C JUMP JUMPDEST POP PUSH1 0x20 DUP3 ADD MLOAD PUSH1 0x1 DUP3 ADD DUP1 SLOAD PUSH1 0x1 PUSH1 0x1 PUSH1 0xA0 SHL SUB NOT AND PUSH1 0x1 PUSH1 0x1 PUSH1 0xA0 SHL SUB SWAP1 SWAP3 AND SWAP2 SWAP1 SWAP2 OR SWAP1 SSTORE PUSH1 0x40 DUP3 ADD MLOAD PUSH1 0x2 DUP3 ADD SWAP1 PUSH2 0x30A8 SWAP1 DUP3 PUSH2 0x3B6C JUMP JUMPDEST POP PUSH1 0x60 DUP3 ADD MLOAD PUSH1 0x3 DUP3 ADD SSTORE PUSH1 0x80 DUP3 ADD MLOAD PUSH1 0x4 DUP3 ADD SSTORE PUSH1 0xA0 DUP3 ADD MLOAD PUSH1 0x5 SWAP1 SWAP2 ADD DUP1 SLOAD PUSH1 0xC0 SWAP1 SWAP4 ADD MLOAD ISZERO ISZERO PUSH1 0x1 PUSH1 0xA0 SHL MUL PUSH1 0x1 PUSH1 0x1 PUSH1 0xA8 SHL SUB NOT SWAP1 SWAP4 AND PUSH1 0x1 PUSH1 0x1 PUSH1 0xA0 SHL SUB SWAP1 SWAP3 AND SWAP2 SWAP1 SWAP2 OR SWAP2 SWAP1 SWAP2 OR SWAP1 SSTORE DUP1 PUSH2 0x3151 JUMPI PUSH2 0x3108 DUP7 DUP7 DUP7 PUSH2 0x31BC JUMP JUMPDEST PUSH1 0x1 PUSH1 0x1 PUSH1 0xA0 SHL SUB DUP6 AND PUSH1 0x0 SWAP1 DUP2 MSTORE PUSH1 0x8 PUSH1 0x20 SWAP1 DUP2 MSTORE PUSH1 0x40 DUP3 KECCAK256 DUP1 SLOAD PUSH1 0x1 DUP2 ADD DUP3 SSTORE SWAP1 DUP4 MSTORE SWAP2 KECCAK256 ADD PUSH2 0x313A DUP8 DUP3 PUSH2 0x3B6C JUMP JUMPDEST POP PUSH1 0x9 DUP1 SLOAD SWAP1 PUSH1 0x0 PUSH2 0x314B DUP4 PUSH2 0x398C JUMP JUMPDEST SWAP2 SWAP1 POP SSTORE POP JUMPDEST DUP3 PUSH1 0x1 PUSH1 0x1 PUSH1 0xA0 SHL SUB AND DUP6 PUSH1 0x1 PUSH1 0x1 PUSH1 0xA0 SHL SUB AND DUP8 PUSH1 0x40 MLOAD PUSH2 0x3173 SWAP2 SWAP1 PUSH2 0x3936 JUMP JUMPDEST PUSH1 0x40 MLOAD DUP1 SWAP2 SUB SWAP1 KECCAK256 PUSH32 0xB11BB86C7A250EC130229577F2DFA0480D10122B9B1C02FB81DF81959F1A7911 DUP8 TIMESTAMP PUSH1 0x40 MLOAD PUSH2 0x31AC SWAP3 SWAP2 SWAP1 PUSH2 0x3AA6 JUMP JUMPDEST PUSH1 0x40 MLOAD DUP1 SWAP2 SUB SWAP1 LOG4 POP POP POP POP POP POP JUMP JUMPDEST DUP1 MLOAD PUSH1 0x20 DUP1 DUP4 ADD SWAP2 SWAP1 SWAP2 KECCAK256 PUSH1 0x40 DUP1 MLOAD DUP1 DUP3 ADD SWAP1 SWAP2 MSTORE PUSH1 0x5 DUP2 MSTORE PUSH5 0x37BBB732B9 PUSH1 0xD9 SHL SWAP3 ADD SWAP2 SWAP1 SWAP2 MSTORE PUSH1 0x0 DUP1 MLOAD PUSH1 0x20 PUSH2 0x3CE2 DUP4 CODECOPY DUP2 MLOAD SWAP2 MSTORE DUP2 ADD PUSH2 0x3248 JUMPI PUSH1 0x5 DUP5 PUSH1 0x40 MLOAD PUSH2 0x3209 SWAP2 SWAP1 PUSH2 0x3936 JUMP JUMPDEST SWAP1 DUP2 MSTORE PUSH1 0x40 MLOAD PUSH1 0x20 SWAP2 DUP2 SWAP1 SUB DUP3 ADD SWAP1 KECCAK256 DUP1 SLOAD PUSH1 0x1 DUP2 ADD DUP3 SSTORE PUSH1 0x0 SWAP2 DUP3 MSTORE SWAP2 SWAP1 KECCAK256 ADD DUP1 SLOAD PUSH1 0x1 PUSH1 0x1 PUSH1 0xA0 SHL SUB NOT AND PUSH1 0x1 PUSH1 0x1 PUSH1 0xA0 SHL SUB DUP6 AND OR SWAP1 SSTORE PUSH2 0x2F97 JUMP JUMPDEST PUSH1 0x40 DUP1 MLOAD DUP1 DUP3 ADD SWAP1 SWAP2 MSTORE PUSH1 0xD DUP2 MSTORE PUSH13 0x30B236B4B734B9BA3930BA37B9 PUSH1 0x99 SHL PUSH1 0x20 SWAP1 SWAP2 ADD MSTORE PUSH1 0x0 DUP1 MLOAD PUSH1 0x20 PUSH2 0x3D22 DUP4 CODECOPY DUP2 MLOAD SWAP2 MSTORE DUP2 ADD PUSH2 0x3292 JUMPI PUSH1 0x6 DUP5 PUSH1 0x40 MLOAD PUSH2 0x3209 SWAP2 SWAP1 PUSH2 0x3936 JUMP JUMPDEST PUSH1 0x40 DUP1 MLOAD DUP1 DUP3 ADD SWAP1 SWAP2 MSTORE PUSH1 0x6 DUP2 MSTORE PUSH6 0x3B34B2BBB2B9 PUSH1 0xD1 SHL PUSH1 0x20 SWAP1 SWAP2 ADD MSTORE PUSH1 0x0 DUP1 MLOAD PUSH1 0x20 PUSH2 0x3CC2 DUP4 CODECOPY DUP2 MLOAD SWAP2 MSTORE DUP2 ADD PUSH2 0x2F97 JUMPI PUSH1 0x7 DUP5 PUSH1 0x40 MLOAD PUSH2 0x32D5 SWAP2 SWAP1 PUSH2 0x3936 JUMP JUMPDEST SWAP1 DUP2 MSTORE PUSH1 0x40 MLOAD SWAP1 DUP2 SWAP1 SUB PUSH1 0x20 SWAP1 DUP2 ADD SWAP1 SWAP2 KECCAK256 DUP1 SLOAD PUSH1 0x1 DUP2 ADD DUP3 SSTORE PUSH1 0x0 SWAP2 DUP3 MSTORE SWAP2 SWAP1 KECCAK256 ADD DUP1 SLOAD PUSH1 0x1 PUSH1 0x1 PUSH1 0xA0 SHL SUB DUP6 AND PUSH1 0x1 PUSH1 0x1 PUSH1 0xA0 SHL SUB NOT SWAP1 SWAP2 AND OR SWAP1 SSTORE POP POP POP POP JUMP JUMPDEST PUSH1 0x0 JUMPDEST DUP3 SLOAD DUP2 LT ISZERO PUSH2 0x3422 JUMPI DUP2 PUSH1 0x1 PUSH1 0x1 PUSH1 0xA0 SHL SUB AND DUP4 DUP3 DUP2 SLOAD DUP2 LT PUSH2 0x3341 JUMPI PUSH2 0x3341 PUSH2 0x3C62 JUMP JUMPDEST PUSH1 0x0 SWAP2 DUP3 MSTORE PUSH1 0x20 SWAP1 SWAP2 KECCAK256 ADD SLOAD PUSH1 0x1 PUSH1 0x1 PUSH1 0xA0 SHL SUB AND SUB PUSH2 0x3410 JUMPI DUP3 SLOAD DUP4 SWAP1 PUSH2 0x336B SWAP1 PUSH1 0x1 SWAP1 PUSH2 0x3C78 JUMP JUMPDEST DUP2 SLOAD DUP2 LT PUSH2 0x337B JUMPI PUSH2 0x337B PUSH2 0x3C62 JUMP JUMPDEST SWAP1 PUSH1 0x0 MSTORE PUSH1 0x20 PUSH1 0x0 KECCAK256 ADD PUSH1 0x0 SWAP1 SLOAD SWAP1 PUSH2 0x100 EXP SWAP1 DIV PUSH1 0x1 PUSH1 0x1 PUSH1 0xA0 SHL SUB AND DUP4 DUP3 DUP2 SLOAD DUP2 LT PUSH2 0x33AB JUMPI PUSH2 0x33AB PUSH2 0x3C62 JUMP JUMPDEST SWAP1 PUSH1 0x0 MSTORE PUSH1 0x20 PUSH1 0x0 KECCAK256 ADD PUSH1 0x0 PUSH2 0x100 EXP DUP2 SLOAD DUP2 PUSH1 0x1 PUSH1 0x1 PUSH1 0xA0 SHL SUB MUL NOT AND SWAP1 DUP4 PUSH1 0x1 PUSH1 0x1 PUSH1 0xA0 SHL SUB AND MUL OR SWAP1 SSTORE POP DUP3 DUP1 SLOAD DUP1 PUSH2 0x33E9 JUMPI PUSH2 0x33E9 PUSH2 0x3C8B JUMP JUMPDEST PUSH1 0x0 DUP3 DUP2 MSTORE PUSH1 0x20 SWAP1 KECCAK256 DUP2 ADD PUSH1 0x0 NOT SWAP1 DUP2 ADD DUP1 SLOAD PUSH1 0x1 PUSH1 0x1 PUSH1 0xA0 SHL SUB NOT AND SWAP1 SSTORE ADD SWAP1 SSTORE POP POP POP JUMP JUMPDEST DUP1 PUSH2 0x341A DUP2 PUSH2 0x398C JUMP JUMPDEST SWAP2 POP POP PUSH2 0x331C JUMP JUMPDEST POP POP POP JUMP JUMPDEST DUP1 CALLDATALOAD PUSH1 0x1 PUSH1 0x1 PUSH1 0xA0 SHL SUB DUP2 AND DUP2 EQ PUSH2 0x343E JUMPI PUSH1 0x0 DUP1 REVERT JUMPDEST SWAP2 SWAP1 POP JUMP JUMPDEST PUSH1 0x0 PUSH1 0x20 DUP3 DUP5 SUB SLT ISZERO PUSH2 0x3455 JUMPI PUSH1 0x0 DUP1 REVERT JUMPDEST PUSH2 0x61B DUP3 PUSH2 0x3427 JUMP JUMPDEST PUSH4 0x4E487B71 PUSH1 0xE0 SHL PUSH1 0x0 MSTORE PUSH1 0x21 PUSH1 0x4 MSTORE PUSH1 0x24 PUSH1 0x0 REVERT JUMPDEST PUSH1 0x3 DUP2 LT PUSH2 0x3492 JUMPI PUSH4 0x4E487B71 PUSH1 0xE0 SHL PUSH1 0x0 MSTORE PUSH1 0x21 PUSH1 0x4 MSTORE PUSH1 0x24 PUSH1 0x0 REVERT JUMPDEST SWAP1 MSTORE JUMP JUMPDEST PUSH1 0x1 PUSH1 0x1 PUSH1 0xA0 SHL SUB DUP6 AND DUP2 MSTORE PUSH1 0x20 DUP2 ADD DUP5 SWAP1 MSTORE PUSH1 0x80 DUP2 ADD PUSH2 0x34BA PUSH1 0x40 DUP4 ADD DUP6 PUSH2 0x3474 JUMP JUMPDEST DUP3 PUSH1 0x60 DUP4 ADD MSTORE SWAP6 SWAP5 POP POP POP POP POP JUMP JUMPDEST PUSH1 0x0 PUSH1 0x20 DUP3 DUP5 SUB SLT ISZERO PUSH2 0x34DB JUMPI PUSH1 0x0 DUP1 REVERT JUMPDEST POP CALLDATALOAD SWAP2 SWAP1 POP JUMP JUMPDEST PUSH1 0x0 DUP1 PUSH1 0x40 DUP4 DUP6 SUB SLT ISZERO PUSH2 0x34F5 JUMPI PUSH1 0x0 DUP1 REVERT JUMPDEST PUSH2 0x34FE DUP4 PUSH2 0x3427 JUMP JUMPDEST SWAP5 PUSH1 0x20 SWAP4 SWAP1 SWAP4 ADD CALLDATALOAD SWAP4 POP POP POP JUMP JUMPDEST PUSH1 0x0 JUMPDEST DUP4 DUP2 LT ISZERO PUSH2 0x3527 JUMPI DUP2 DUP2 ADD MLOAD DUP4 DUP3 ADD MSTORE PUSH1 0x20 ADD PUSH2 0x350F JUMP JUMPDEST POP POP PUSH1 0x0 SWAP2 ADD MSTORE JUMP JUMPDEST PUSH1 0x0 DUP2 MLOAD DUP1 DUP5 MSTORE PUSH2 0x3548 DUP2 PUSH1 0x20 DUP7 ADD PUSH1 0x20 DUP7 ADD PUSH2 0x350C JUMP JUMPDEST PUSH1 0x1F ADD PUSH1 0x1F NOT AND SWAP3 SWAP1 SWAP3 ADD PUSH1 0x20 ADD SWAP3 SWAP2 POP POP JUMP JUMPDEST PUSH1 0x20 DUP2 MSTORE PUSH1 0x0 PUSH2 0x61B PUSH1 0x20 DUP4 ADD DUP5 PUSH2 0x3530 JUMP JUMPDEST PUSH4 0x4E487B71 PUSH1 0xE0 SHL PUSH1 0x0 MSTORE PUSH1 0x41 PUSH1 0x4 MSTORE PUSH1 0x24 PUSH1 0x0 REVERT JUMPDEST PUSH1 0x0 DUP3 PUSH1 0x1F DUP4 ADD SLT PUSH2 0x3596 JUMPI PUSH1 0x0 DUP1 REVERT JUMPDEST DUP2 CALLDATALOAD PUSH8 0xFFFFFFFFFFFFFFFF DUP1 DUP3 GT ISZERO PUSH2 0x35B1 JUMPI PUSH2 0x35B1 PUSH2 0x356F JUMP JUMPDEST PUSH1 0x40 MLOAD PUSH1 0x1F DUP4 ADD PUSH1 0x1F NOT SWAP1 DUP2 AND PUSH1 0x3F ADD AND DUP2 ADD SWAP1 DUP3 DUP3 GT DUP2 DUP4 LT OR ISZERO PUSH2 0x35D9 JUMPI PUSH2 0x35D9 PUSH2 0x356F JUMP JUMPDEST DUP2 PUSH1 0x40 MSTORE DUP4 DUP2 MSTORE DUP7 PUSH1 0x20 DUP6 DUP9 ADD ADD GT ISZERO PUSH2 0x35F2 JUMPI PUSH1 0x0 DUP1 REVERT JUMPDEST DUP4 PUSH1 0x20 DUP8 ADD PUSH1 0x20 DUP4 ADD CALLDATACOPY PUSH1 0x0 PUSH1 0x20 DUP6 DUP4 ADD ADD MSTORE DUP1 SWAP5 POP POP POP POP POP SWAP3 SWAP2 POP POP JUMP JUMPDEST PUSH1 0x0 DUP1 PUSH1 0x40 DUP4 DUP6 SUB SLT ISZERO PUSH2 0x3625 JUMPI PUSH1 0x0 DUP1 REVERT JUMPDEST DUP3 CALLDATALOAD PUSH8 0xFFFFFFFFFFFFFFFF DUP2 GT ISZERO PUSH2 0x363C JUMPI PUSH1 0x0 DUP1 REVERT JUMPDEST PUSH2 0x3648 DUP6 DUP3 DUP7 ADD PUSH2 0x3585 JUMP JUMPDEST SWAP3 POP POP PUSH2 0x3657 PUSH1 0x20 DUP5 ADD PUSH2 0x3427 JUMP JUMPDEST SWAP1 POP SWAP3 POP SWAP3 SWAP1 POP JUMP JUMPDEST PUSH1 0x0 PUSH1 0x20 DUP3 DUP5 SUB SLT ISZERO PUSH2 0x3672 JUMPI PUSH1 0x0 DUP1 REVERT JUMPDEST DUP2 CALLDATALOAD PUSH8 0xFFFFFFFFFFFFFFFF DUP2 GT ISZERO PUSH2 0x3689 JUMPI PUSH1 0x0 DUP1 REVERT JUMPDEST PUSH2 0x1FCC DUP5 DUP3 DUP6 ADD PUSH2 0x3585 JUMP JUMPDEST PUSH1 0x20 DUP1 DUP3 MSTORE DUP3 MLOAD DUP3 DUP3 ADD DUP2 SWAP1 MSTORE PUSH1 0x0 SWAP2 SWAP1 DUP5 DUP3 ADD SWAP1 PUSH1 0x40 DUP6 ADD SWAP1 DUP5 JUMPDEST DUP2 DUP2 LT ISZERO PUSH2 0x36D6 JUMPI DUP4 MLOAD PUSH1 0x1 PUSH1 0x1 PUSH1 0xA0 SHL SUB AND DUP4 MSTORE SWAP3 DUP5 ADD SWAP3 SWAP2 DUP5 ADD SWAP2 PUSH1 0x1 ADD PUSH2 0x36B1 JUMP JUMPDEST POP SWAP1 SWAP7 SWAP6 POP POP POP POP POP POP JUMP JUMPDEST DUP4 DUP2 MSTORE PUSH1 0x60 DUP2 ADD PUSH2 0x36F6 PUSH1 0x20 DUP4 ADD DUP6 PUSH2 0x3474 JUMP JUMPDEST DUP3 PUSH1 0x40 DUP4 ADD MSTORE SWAP5 SWAP4 POP POP POP POP JUMP JUMPDEST PUSH1 0xE0 DUP2 MSTORE PUSH1 0x0 PUSH2 0x3717 PUSH1 0xE0 DUP4 ADD DUP11 PUSH2 0x3530 JUMP JUMPDEST PUSH1 0x1 PUSH1 0x1 PUSH1 0xA0 SHL SUB DUP10 DUP2 AND PUSH1 0x20 DUP6 ADD MSTORE DUP4 DUP3 SUB PUSH1 0x40 DUP6 ADD MSTORE PUSH2 0x3739 DUP3 DUP11 PUSH2 0x3530 JUMP JUMPDEST PUSH1 0x60 DUP6 ADD SWAP9 SWAP1 SWAP9 MSTORE PUSH1 0x80 DUP5 ADD SWAP7 SWAP1 SWAP7 MSTORE POP POP SWAP2 SWAP1 SWAP3 AND PUSH1 0xA0 DUP3 ADD MSTORE SWAP1 ISZERO ISZERO PUSH1 0xC0 SWAP1 SWAP2 ADD MSTORE SWAP4 SWAP3 POP POP POP JUMP JUMPDEST PUSH1 0x0 PUSH1 0x20 DUP1 DUP4 ADD DUP2 DUP5 MSTORE DUP1 DUP6 MLOAD DUP1 DUP4 MSTORE PUSH1 0x40 DUP7 ADD SWAP2 POP PUSH1 0x40 DUP2 PUSH1 0x5 SHL DUP8 ADD ADD SWAP3 POP DUP4 DUP8 ADD PUSH1 0x0 JUMPDEST DUP3 DUP2 LT ISZERO PUSH2 0x37B9 JUMPI PUSH1 0x3F NOT DUP9 DUP7 SUB ADD DUP5 MSTORE PUSH2 0x37A7 DUP6 DUP4 MLOAD PUSH2 0x3530 JUMP JUMPDEST SWAP5 POP SWAP3 DUP6 ADD SWAP3 SWAP1 DUP6 ADD SWAP1 PUSH1 0x1 ADD PUSH2 0x378B JUMP JUMPDEST POP SWAP3 SWAP8 SWAP7 POP POP POP POP POP POP POP JUMP JUMPDEST PUSH1 0x0 DUP1 PUSH1 0x40 DUP4 DUP6 SUB SLT ISZERO PUSH2 0x37D9 JUMPI PUSH1 0x0 DUP1 REVERT JUMPDEST PUSH2 0x37E2 DUP4 PUSH2 0x3427 JUMP JUMPDEST SWAP2 POP PUSH1 0x20 DUP4 ADD CALLDATALOAD PUSH1 0x3 DUP2 LT PUSH2 0x37F6 JUMPI PUSH1 0x0 DUP1 REVERT JUMPDEST DUP1 SWAP2 POP POP SWAP3 POP SWAP3 SWAP1 POP JUMP JUMPDEST PUSH1 0x0 DUP1 PUSH1 0x40 DUP4 DUP6 SUB SLT ISZERO PUSH2 0x3814 JUMPI PUSH1 0x0 DUP1 REVERT JUMPDEST DUP3 CALLDATALOAD PUSH8 0xFFFFFFFFFFFFFFFF DUP2 GT ISZERO PUSH2 0x382B JUMPI PUSH1 0x0 DUP1 REVERT JUMPDEST PUSH2 0x3837 DUP6 DUP3 DUP7 ADD PUSH2 0x3585 JUMP JUMPDEST SWAP6 PUSH1 0x20 SWAP5 SWAP1 SWAP5 ADD CALLDATALOAD SWAP5 POP POP POP POP JUMP JUMPDEST PUSH1 0x0 DUP1 PUSH1 0x0 PUSH1 0x60 DUP5 DUP7 SUB SLT ISZERO PUSH2 0x385B JUMPI PUSH1 0x0 DUP1 REVERT JUMPDEST DUP4 CALLDATALOAD PUSH8 0xFFFFFFFFFFFFFFFF DUP1 DUP3 GT ISZERO PUSH2 0x3873 JUMPI PUSH1 0x0 DUP1 REVERT JUMPDEST PUSH2 0x387F DUP8 DUP4 DUP9 ADD PUSH2 0x3585 JUMP JUMPDEST SWAP5 POP PUSH2 0x388D PUSH1 0x20 DUP8 ADD PUSH2 0x3427 JUMP JUMPDEST SWAP4 POP PUSH1 0x40 DUP7 ADD CALLDATALOAD SWAP2 POP DUP1 DUP3 GT ISZERO PUSH2 0x38A3 JUMPI PUSH1 0x0 DUP1 REVERT JUMPDEST POP PUSH2 0x38B0 DUP7 DUP3 DUP8 ADD PUSH2 0x3585 JUMP JUMPDEST SWAP2 POP POP SWAP3 POP SWAP3 POP SWAP3 JUMP JUMPDEST PUSH1 0xA0 DUP2 MSTORE PUSH1 0x0 PUSH2 0x38CD PUSH1 0xA0 DUP4 ADD DUP9 PUSH2 0x3530 JUMP JUMPDEST PUSH1 0x20 DUP4 ADD SWAP7 SWAP1 SWAP7 MSTORE POP PUSH1 0x40 DUP2 ADD SWAP4 SWAP1 SWAP4 MSTORE PUSH1 0x1 PUSH1 0x1 PUSH1 0xA0 SHL SUB SWAP2 SWAP1 SWAP2 AND PUSH1 0x60 DUP4 ADD MSTORE ISZERO ISZERO PUSH1 0x80 SWAP1 SWAP2 ADD MSTORE SWAP2 SWAP1 POP JUMP JUMPDEST PUSH1 0x1 DUP2 DUP2 SHR SWAP1 DUP3 AND DUP1 PUSH2 0x3910 JUMPI PUSH1 0x7F DUP3 AND SWAP2 POP JUMPDEST PUSH1 0x20 DUP3 LT DUP2 SUB PUSH2 0x3930 JUMPI PUSH4 0x4E487B71 PUSH1 0xE0 SHL PUSH1 0x0 MSTORE PUSH1 0x22 PUSH1 0x4 MSTORE PUSH1 0x24 PUSH1 0x0 REVERT JUMPDEST POP SWAP2 SWAP1 POP JUMP JUMPDEST PUSH1 0x0 DUP3 MLOAD PUSH2 0x3948 DUP2 DUP5 PUSH1 0x20 DUP8 ADD PUSH2 0x350C JUMP JUMPDEST SWAP2 SWAP1 SWAP2 ADD SWAP3 SWAP2 POP POP JUMP JUMPDEST PUSH1 0x20 DUP1 DUP3 MSTORE PUSH1 0xA SWAP1 DUP3 ADD MSTORE PUSH10 0x27B7363C9030B236B4B7 PUSH1 0xB1 SHL PUSH1 0x40 DUP3 ADD MSTORE PUSH1 0x60 ADD SWAP1 JUMP JUMPDEST PUSH4 0x4E487B71 PUSH1 0xE0 SHL PUSH1 0x0 MSTORE PUSH1 0x11 PUSH1 0x4 MSTORE PUSH1 0x24 PUSH1 0x0 REVERT JUMPDEST PUSH1 0x0 PUSH1 0x1 DUP3 ADD PUSH2 0x399E JUMPI PUSH2 0x399E PUSH2 0x3976 JUMP JUMPDEST POP PUSH1 0x1 ADD SWAP1 JUMP JUMPDEST PUSH1 0x60 DUP2 ADD PUSH2 0x39B3 DUP3 DUP7 PUSH2 0x3474 JUMP JUMPDEST PUSH2 0x36F6 PUSH1 0x20 DUP4 ADD DUP6 PUSH2 0x3474 JUMP JUMPDEST PUSH1 0x20 DUP1 DUP3 MSTORE PUSH1 0x19 SWAP1 DUP3 ADD MSTORE PUSH32 0x5265636F72642049442063616E6E6F7420626520656D70747900000000000000 PUSH1 0x40 DUP3 ADD MSTORE PUSH1 0x60 ADD SWAP1 JUMP JUMPDEST PUSH1 0x20 DUP1 DUP3 MSTORE PUSH1 0x1B SWAP1 DUP3 ADD MSTORE PUSH32 0x5573657220616464726573732063616E6E6F74206265207A65726F0000000000 PUSH1 0x40 DUP3 ADD MSTORE PUSH1 0x60 ADD SWAP1 JUMP JUMPDEST PUSH1 0x0 DUP4 MLOAD PUSH2 0x3A40 DUP2 DUP5 PUSH1 0x20 DUP9 ADD PUSH2 0x350C JUMP JUMPDEST PUSH1 0x60 SWAP4 SWAP1 SWAP4 SHL PUSH12 0xFFFFFFFFFFFFFFFFFFFFFFFF NOT AND SWAP2 SWAP1 SWAP3 ADD SWAP1 DUP2 MSTORE PUSH1 0x14 ADD SWAP3 SWAP2 POP POP JUMP JUMPDEST PUSH1 0x20 DUP1 DUP3 MSTORE PUSH1 0x21 SWAP1 DUP3 ADD MSTORE PUSH32 0x5573657220646F6573206E6F74206861766520616E2061637469766520726F6C PUSH1 0x40 DUP3 ADD MSTORE PUSH1 0x65 PUSH1 0xF8 SHL PUSH1 0x60 DUP3 ADD MSTORE PUSH1 0x80 ADD SWAP1 JUMP JUMPDEST PUSH1 0x40 DUP2 MSTORE PUSH1 0x0 PUSH2 0x3AB9 PUSH1 0x40 DUP4 ADD DUP6 PUSH2 0x3530 JUMP JUMPDEST SWAP1 POP DUP3 PUSH1 0x20 DUP4 ADD MSTORE SWAP4 SWAP3 POP POP POP JUMP JUMPDEST PUSH1 0x20 DUP1 DUP3 MSTORE PUSH1 0x36 SWAP1 DUP3 ADD MSTORE PUSH32 0x496E76616C696420726F6C652E204D7573742062653A206F776E65722C206164 PUSH1 0x40 DUP3 ADD MSTORE PUSH22 0x36B4B734B9BA3930BA37B9161037B9103B34B2BBB2B9 PUSH1 0x51 SHL PUSH1 0x60 DUP3 ADD MSTORE PUSH1 0x80 ADD SWAP1 JUMP JUMPDEST PUSH1 0x1F DUP3 GT ISZERO PUSH2 0x3422 JUMPI PUSH1 0x0 DUP2 DUP2 MSTORE PUSH1 0x20 DUP2 KECCAK256 PUSH1 0x1F DUP6 ADD PUSH1 0x5 SHR DUP2 ADD PUSH1 0x20 DUP7 LT ISZERO PUSH2 0x3B45 JUMPI POP DUP1 JUMPDEST PUSH1 0x1F DUP6 ADD PUSH1 0x5 SHR DUP3 ADD SWAP2 POP JUMPDEST DUP2 DUP2 LT ISZERO PUSH2 0x3B64 JUMPI DUP3 DUP2 SSTORE PUSH1 0x1 ADD PUSH2 0x3B51 JUMP JUMPDEST POP POP POP POP POP POP JUMP JUMPDEST DUP2 MLOAD PUSH8 0xFFFFFFFFFFFFFFFF DUP2 GT ISZERO PUSH2 0x3B86 JUMPI PUSH2 0x3B86 PUSH2 0x356F JUMP JUMPDEST PUSH2 0x3B9A DUP2 PUSH2 0x3B94 DUP5 SLOAD PUSH2 0x38FC JUMP JUMPDEST DUP5 PUSH2 0x3B1E JUMP JUMPDEST PUSH1 0x20 DUP1 PUSH1 0x1F DUP4 GT PUSH1 0x1 DUP2 EQ PUSH2 0x3BCF JUMPI PUSH1 0x0 DUP5 ISZERO PUSH2 0x3BB7 JUMPI POP DUP6 DUP4 ADD MLOAD JUMPDEST PUSH1 0x0 NOT PUSH1 0x3 DUP7 SWAP1 SHL SHR NOT AND PUSH1 0x1 DUP6 SWAP1 SHL OR DUP6 SSTORE PUSH2 0x3B64 JUMP JUMPDEST PUSH1 0x0 DUP6 DUP2 MSTORE PUSH1 0x20 DUP2 KECCAK256 PUSH1 0x1F NOT DUP7 AND SWAP2 JUMPDEST DUP3 DUP2 LT ISZERO PUSH2 0x3BFE JUMPI DUP9 DUP7 ADD MLOAD DUP3 SSTORE SWAP5 DUP5 ADD SWAP5 PUSH1 0x1 SWAP1 SWAP2 ADD SWAP1 DUP5 ADD PUSH2 0x3BDF JUMP JUMPDEST POP DUP6 DUP3 LT ISZERO PUSH2 0x3C1C JUMPI DUP8 DUP6 ADD MLOAD PUSH1 0x0 NOT PUSH1 0x3 DUP9 SWAP1 SHL PUSH1 0xF8 AND SHR NOT AND DUP2 SSTORE JUMPDEST POP POP POP POP POP PUSH1 0x1 SWAP1 DUP2 SHL ADD SWAP1 SSTORE POP JUMP JUMPDEST PUSH1 0x60 DUP2 MSTORE PUSH1 0x0 PUSH2 0x3C3F PUSH1 0x60 DUP4 ADD DUP7 PUSH2 0x3530 JUMP JUMPDEST DUP3 DUP2 SUB PUSH1 0x20 DUP5 ADD MSTORE PUSH2 0x3C51 DUP2 DUP7 PUSH2 0x3530 JUMP JUMPDEST SWAP2 POP POP DUP3 PUSH1 0x40 DUP4 ADD MSTORE SWAP5 SWAP4 POP POP POP POP JUMP JUMPDEST PUSH4 0x4E487B71 PUSH1 0xE0 SHL PUSH1 0x0 MSTORE PUSH1 0x32 PUSH1 0x4 MSTORE PUSH1 0x24 PUSH1 0x0 REVERT JUMPDEST DUP2 DUP2 SUB DUP2 DUP2 GT ISZERO PUSH2 0x61E JUMPI PUSH2 0x61E PUSH2 0x3976 JUMP JUMPDEST PUSH4 0x4E487B71 PUSH1 0xE0 SHL PUSH1 0x0 MSTORE PUSH1 0x31 PUSH1 0x4 MSTORE PUSH1 0x24 PUSH1 0x0 REVERT INVALID 0x4F PUSH15 0x6C79206F776E65727320616E642061 PUSH5 0x6D696E6973 PUSH21 0x7261746F72732063EDFCEF5EDFC1A7AE49C5B2F4D3 0xA9 0xBC 0x2C DIV 0x5F DUP9 PUSH29 0x2D4FB28DDDD675E12DD1E1F3FDFE97C95A948E0F2FD9761961CD90B0B3 0xE4 PUSH16 0xA8E9B10A6D98E30F2C837FBF40B9F092 0xE3 0xB1 0xEC 0xC5 CALL PUSH8 0x49A6A275C159EAD9 0xCF 0x21 PUSH11 0x95A0B902D2F260F98F91B9 LOG0 CHAINID 0xF PUSH14 0x1C4E133A0E98B6595D8A3EA61526 ADDRESS 0xDE SWAP6 PUSH11 0x5F46FD2D0D9F06706E4660 LOG2 PUSH5 0x6970667358 0x22 SLT KECCAK256 LOG4 SWAP10 LOG3 PUSH2 0xC343 PC STOP 0x24 SWAP7 0xE4 LOG2 SLOAD SELFDESTRUCT DUP16 PUSH25 0x163684B4FF4ACCAFFD7F10BB6849582164736F6C6343000813 STOP CALLER "},"methodIdentifiers":{"addMember(address,bytes32)":"49df7208","admin()":"f851a440","adminsByRecord(string,uint256)":"e965bfb7","changeRole(string,address,string)":"daa9dc23","getMember(address)":"2ada2596","getRecordAdmins(string)":"3dd1e8fc","getRecordOwners(string)":"1a95aca5","getRecordRoleStats(string)":"41d8bde3","getRecordViewers(string)":"510b3003","getRecordsByUser(address)":"57ac40c3","getRoleDetails(string,address)":"eb2bbf25","getTotalRoles()":"4b6feb7c","getWalletByUserIdHash(bytes32)":"09012a86","grantRole(string,address,string)":"bb20b172","hasActiveRole(string,address)":"1435b558","hasRole(string,address,string)":"cabdd23f","initializeRecordRole(string,address)":"7798e780","isActiveMember(address)":"45ecd02f","isOwnerOrAdmin(string,address)":"a0ca13c3","isVerifiedMember(address)":"cb261a03","members(address)":"08ae4b0c","ownersByRecord(string,uint256)":"970ee5b9","recordRoles(bytes32)":"33105592","recordsByUser(address,uint256)":"0c6de840","revokeRole(string,address)":"731f21a0","setMemberStatus(address,uint8)":"6e715743","totalMembers()":"76e92559","totalRoles()":"790e118c","transferAdmin(address)":"75829def","userIdHashToAddress(bytes32)":"9020666b","viewersByRecord(string,uint256)":"b55aefcc","voluntarilyRemoveOwnOwnership(string)":"aa85bf3f"}}}}}