{
  "_format": "hh-sol-artifact-1",
  "contractName": "HealthRecordCore",
  "sourceName": "smartContracts/HealthRecordCore.sol",
  "abi": [
    {
      "inputs": [],
      "stateMutability": "nonpayable",
      "type": "constructor"
    },
    {
      "inputs": [
        {
          "internalType": "address",
          "name": "target",
          "type": "address"
        }
      ],
      "name": "AddressEmptyCode",
      "type": "error"
    },
    {
      "inputs": [
        {
          "internalType": "address",
          "name": "implementation",
          "type": "address"
        }
      ],
      "name": "ERC1967InvalidImplementation",
      "type": "error"
    },
    {
      "inputs": [],
      "name": "ERC1967NonPayable",
      "type": "error"
    },
    {
      "inputs": [],
      "name": "FailedCall",
      "type": "error"
    },
    {
      "inputs": [],
      "name": "InvalidInitialization",
      "type": "error"
    },
    {
      "inputs": [],
      "name": "NotInitializing",
      "type": "error"
    },
    {
      "inputs": [],
      "name": "UUPSUnauthorizedCallContext",
      "type": "error"
    },
    {
      "inputs": [
        {
          "internalType": "bytes32",
          "name": "slot",
          "type": "bytes32"
        }
      ],
      "name": "UUPSUnsupportedProxiableUUID",
      "type": "error"
    },
    {
      "anonymous": false,
      "inputs": [
        {
          "indexed": true,
          "internalType": "address",
          "name": "oldAdmin",
          "type": "address"
        },
        {
          "indexed": true,
          "internalType": "address",
          "name": "newAdmin",
          "type": "address"
        },
        {
          "indexed": false,
          "internalType": "uint256",
          "name": "timestamp",
          "type": "uint256"
        }
      ],
      "name": "AdminTransferred",
      "type": "event"
    },
    {
      "anonymous": false,
      "inputs": [
        {
          "indexed": true,
          "internalType": "bytes32",
          "name": "recordHash",
          "type": "bytes32"
        },
        {
          "indexed": true,
          "internalType": "bytes32",
          "name": "disputerIdHash",
          "type": "bytes32"
        },
        {
          "indexed": false,
          "internalType": "enum HealthRecordCore.DisputeSeverity",
          "name": "oldSeverity",
          "type": "uint8"
        },
        {
          "indexed": false,
          "internalType": "enum HealthRecordCore.DisputeSeverity",
          "name": "newSeverity",
          "type": "uint8"
        },
        {
          "indexed": false,
          "internalType": "enum HealthRecordCore.DisputeCulpability",
          "name": "oldCulpability",
          "type": "uint8"
        },
        {
          "indexed": false,
          "internalType": "enum HealthRecordCore.DisputeCulpability",
          "name": "newCulpability",
          "type": "uint8"
        },
        {
          "indexed": false,
          "internalType": "uint256",
          "name": "timestamp",
          "type": "uint256"
        }
      ],
      "name": "DisputeModification",
      "type": "event"
    },
    {
      "anonymous": false,
      "inputs": [
        {
          "indexed": true,
          "internalType": "bytes32",
          "name": "recordHash",
          "type": "bytes32"
        },
        {
          "indexed": true,
          "internalType": "bytes32",
          "name": "disputerIdHash",
          "type": "bytes32"
        },
        {
          "indexed": false,
          "internalType": "uint256",
          "name": "timestamp",
          "type": "uint256"
        }
      ],
      "name": "DisputeRetracted",
      "type": "event"
    },
    {
      "anonymous": false,
      "inputs": [
        {
          "indexed": false,
          "internalType": "uint64",
          "name": "version",
          "type": "uint64"
        }
      ],
      "name": "Initialized",
      "type": "event"
    },
    {
      "anonymous": false,
      "inputs": [
        {
          "indexed": true,
          "internalType": "bytes32",
          "name": "recordIdHash",
          "type": "bytes32"
        },
        {
          "indexed": true,
          "internalType": "bytes32",
          "name": "recordHash",
          "type": "bytes32"
        },
        {
          "indexed": true,
          "internalType": "bytes32",
          "name": "subjectIdHash",
          "type": "bytes32"
        },
        {
          "indexed": false,
          "internalType": "uint256",
          "name": "timestamp",
          "type": "uint256"
        }
      ],
      "name": "RecordAnchored",
      "type": "event"
    },
    {
      "anonymous": false,
      "inputs": [
        {
          "indexed": true,
          "internalType": "bytes32",
          "name": "recordHash",
          "type": "bytes32"
        },
        {
          "indexed": true,
          "internalType": "bytes32",
          "name": "recordIdHash",
          "type": "bytes32"
        },
        {
          "indexed": true,
          "internalType": "bytes32",
          "name": "disputerIdHash",
          "type": "bytes32"
        },
        {
          "indexed": false,
          "internalType": "enum HealthRecordCore.DisputeSeverity",
          "name": "severity",
          "type": "uint8"
        },
        {
          "indexed": false,
          "internalType": "enum HealthRecordCore.DisputeCulpability",
          "name": "culpability",
          "type": "uint8"
        },
        {
          "indexed": false,
          "internalType": "uint256",
          "name": "timestamp",
          "type": "uint256"
        }
      ],
      "name": "RecordDisputed",
      "type": "event"
    },
    {
      "anonymous": false,
      "inputs": [
        {
          "indexed": true,
          "internalType": "bytes32",
          "name": "recordIdHash",
          "type": "bytes32"
        },
        {
          "indexed": true,
          "internalType": "bytes32",
          "name": "newHash",
          "type": "bytes32"
        },
        {
          "indexed": false,
          "internalType": "bytes32",
          "name": "addedBy",
          "type": "bytes32"
        },
        {
          "indexed": false,
          "internalType": "uint256",
          "name": "timestamp",
          "type": "uint256"
        }
      ],
      "name": "RecordHashAdded",
      "type": "event"
    },
    {
      "anonymous": false,
      "inputs": [
        {
          "indexed": true,
          "internalType": "bytes32",
          "name": "recordIdHash",
          "type": "bytes32"
        },
        {
          "indexed": true,
          "internalType": "bytes32",
          "name": "recordHash",
          "type": "bytes32"
        },
        {
          "indexed": false,
          "internalType": "uint256",
          "name": "timestamp",
          "type": "uint256"
        }
      ],
      "name": "RecordHashRetracted",
      "type": "event"
    },
    {
      "anonymous": false,
      "inputs": [
        {
          "indexed": true,
          "internalType": "bytes32",
          "name": "recordIdHash",
          "type": "bytes32"
        },
        {
          "indexed": true,
          "internalType": "bytes32",
          "name": "subjectIdHash",
          "type": "bytes32"
        },
        {
          "indexed": false,
          "internalType": "uint256",
          "name": "timestamp",
          "type": "uint256"
        }
      ],
      "name": "RecordReanchored",
      "type": "event"
    },
    {
      "anonymous": false,
      "inputs": [
        {
          "indexed": true,
          "internalType": "bytes32",
          "name": "recordIdHash",
          "type": "bytes32"
        },
        {
          "indexed": true,
          "internalType": "bytes32",
          "name": "subjectIdHash",
          "type": "bytes32"
        },
        {
          "indexed": false,
          "internalType": "uint256",
          "name": "timestamp",
          "type": "uint256"
        }
      ],
      "name": "RecordUnanchored",
      "type": "event"
    },
    {
      "anonymous": false,
      "inputs": [
        {
          "indexed": true,
          "internalType": "bytes32",
          "name": "recordHash",
          "type": "bytes32"
        },
        {
          "indexed": true,
          "internalType": "bytes32",
          "name": "recordIdHash",
          "type": "bytes32"
        },
        {
          "indexed": true,
          "internalType": "bytes32",
          "name": "verifierIdHash",
          "type": "bytes32"
        },
        {
          "indexed": false,
          "internalType": "enum HealthRecordCore.VerificationLevel",
          "name": "level",
          "type": "uint8"
        },
        {
          "indexed": false,
          "internalType": "uint256",
          "name": "timestamp",
          "type": "uint256"
        }
      ],
      "name": "RecordVerified",
      "type": "event"
    },
    {
      "anonymous": false,
      "inputs": [
        {
          "indexed": true,
          "internalType": "bytes32",
          "name": "subjectIdHash",
          "type": "bytes32"
        },
        {
          "indexed": true,
          "internalType": "bytes32",
          "name": "recordIdHash",
          "type": "bytes32"
        },
        {
          "indexed": true,
          "internalType": "bytes32",
          "name": "reporterIdHash",
          "type": "bytes32"
        },
        {
          "indexed": false,
          "internalType": "uint256",
          "name": "timestamp",
          "type": "uint256"
        }
      ],
      "name": "UnacceptedUpdateFlagRevoked",
      "type": "event"
    },
    {
      "anonymous": false,
      "inputs": [
        {
          "indexed": true,
          "internalType": "bytes32",
          "name": "subjectIdHash",
          "type": "bytes32"
        },
        {
          "indexed": true,
          "internalType": "bytes32",
          "name": "recordIdHash",
          "type": "bytes32"
        },
        {
          "indexed": true,
          "internalType": "bytes32",
          "name": "reporterIdHash",
          "type": "bytes32"
        },
        {
          "indexed": false,
          "internalType": "bytes32",
          "name": "recordHash",
          "type": "bytes32"
        },
        {
          "indexed": false,
          "internalType": "uint256",
          "name": "timestamp",
          "type": "uint256"
        }
      ],
      "name": "UnacceptedUpdateFlagged",
      "type": "event"
    },
    {
      "anonymous": false,
      "inputs": [
        {
          "indexed": true,
          "internalType": "address",
          "name": "implementation",
          "type": "address"
        }
      ],
      "name": "Upgraded",
      "type": "event"
    },
    {
      "anonymous": false,
      "inputs": [
        {
          "indexed": true,
          "internalType": "bytes32",
          "name": "recordHash",
          "type": "bytes32"
        },
        {
          "indexed": true,
          "internalType": "bytes32",
          "name": "verifierIdHash",
          "type": "bytes32"
        },
        {
          "indexed": false,
          "internalType": "enum HealthRecordCore.VerificationLevel",
          "name": "oldLevel",
          "type": "uint8"
        },
        {
          "indexed": false,
          "internalType": "enum HealthRecordCore.VerificationLevel",
          "name": "newLevel",
          "type": "uint8"
        },
        {
          "indexed": false,
          "internalType": "uint256",
          "name": "timestamp",
          "type": "uint256"
        }
      ],
      "name": "VerificationLevelModified",
      "type": "event"
    },
    {
      "anonymous": false,
      "inputs": [
        {
          "indexed": true,
          "internalType": "bytes32",
          "name": "recordHash",
          "type": "bytes32"
        },
        {
          "indexed": true,
          "internalType": "bytes32",
          "name": "verifierIdHash",
          "type": "bytes32"
        },
        {
          "indexed": false,
          "internalType": "uint256",
          "name": "timestamp",
          "type": "uint256"
        }
      ],
      "name": "VerificationRetracted",
      "type": "event"
    },
    {
      "inputs": [],
      "name": "UPGRADE_INTERFACE_VERSION",
      "outputs": [
        {
          "internalType": "string",
          "name": "",
          "type": "string"
        }
      ],
      "stateMutability": "view",
      "type": "function"
    },
    {
      "inputs": [
        {
          "internalType": "bytes32",
          "name": "",
          "type": "bytes32"
        }
      ],
      "name": "activeUnacceptedFlagCount",
      "outputs": [
        {
          "internalType": "uint256",
          "name": "",
          "type": "uint256"
        }
      ],
      "stateMutability": "view",
      "type": "function"
    },
    {
      "inputs": [
        {
          "internalType": "bytes32",
          "name": "recordIdHash",
          "type": "bytes32"
        },
        {
          "internalType": "bytes32",
          "name": "newHash",
          "type": "bytes32"
        }
      ],
      "name": "addRecordHash",
      "outputs": [],
      "stateMutability": "nonpayable",
      "type": "function"
    },
    {
      "inputs": [],
      "name": "admin",
      "outputs": [
        {
          "internalType": "address",
          "name": "",
          "type": "address"
        }
      ],
      "stateMutability": "view",
      "type": "function"
    },
    {
      "inputs": [
        {
          "internalType": "bytes32",
          "name": "recordIdHash",
          "type": "bytes32"
        },
        {
          "internalType": "bytes32",
          "name": "recordHash",
          "type": "bytes32"
        },
        {
          "internalType": "bytes32",
          "name": "subjectIdHash",
          "type": "bytes32"
        }
      ],
      "name": "anchorRecord",
      "outputs": [],
      "stateMutability": "nonpayable",
      "type": "function"
    },
    {
      "inputs": [
        {
          "internalType": "bytes32",
          "name": "",
          "type": "bytes32"
        },
        {
          "internalType": "bytes32",
          "name": "",
          "type": "bytes32"
        }
      ],
      "name": "currentlyDisputed",
      "outputs": [
        {
          "internalType": "bool",
          "name": "",
          "type": "bool"
        }
      ],
      "stateMutability": "view",
      "type": "function"
    },
    {
      "inputs": [
        {
          "internalType": "bytes32",
          "name": "",
          "type": "bytes32"
        },
        {
          "internalType": "bytes32",
          "name": "",
          "type": "bytes32"
        }
      ],
      "name": "currentlyVerified",
      "outputs": [
        {
          "internalType": "bool",
          "name": "",
          "type": "bool"
        }
      ],
      "stateMutability": "view",
      "type": "function"
    },
    {
      "inputs": [
        {
          "internalType": "bytes32",
          "name": "",
          "type": "bytes32"
        },
        {
          "internalType": "bytes32",
          "name": "",
          "type": "bytes32"
        }
      ],
      "name": "disputeIndex",
      "outputs": [
        {
          "internalType": "uint256",
          "name": "",
          "type": "uint256"
        }
      ],
      "stateMutability": "view",
      "type": "function"
    },
    {
      "inputs": [
        {
          "internalType": "bytes32",
          "name": "recordIdHash",
          "type": "bytes32"
        },
        {
          "internalType": "bytes32",
          "name": "recordHash",
          "type": "bytes32"
        },
        {
          "internalType": "uint8",
          "name": "severity",
          "type": "uint8"
        },
        {
          "internalType": "uint8",
          "name": "culpability",
          "type": "uint8"
        },
        {
          "internalType": "string",
          "name": "notes",
          "type": "string"
        }
      ],
      "name": "disputeRecord",
      "outputs": [],
      "stateMutability": "nonpayable",
      "type": "function"
    },
    {
      "inputs": [
        {
          "internalType": "bytes32",
          "name": "",
          "type": "bytes32"
        },
        {
          "internalType": "uint256",
          "name": "",
          "type": "uint256"
        }
      ],
      "name": "disputes",
      "outputs": [
        {
          "internalType": "bytes32",
          "name": "disputerIdHash",
          "type": "bytes32"
        },
        {
          "internalType": "bytes32",
          "name": "recordIdHash",
          "type": "bytes32"
        },
        {
          "internalType": "enum HealthRecordCore.DisputeSeverity",
          "name": "severity",
          "type": "uint8"
        },
        {
          "internalType": "enum HealthRecordCore.DisputeCulpability",
          "name": "culpability",
          "type": "uint8"
        },
        {
          "internalType": "string",
          "name": "notes",
          "type": "string"
        },
        {
          "internalType": "uint256",
          "name": "createdAt",
          "type": "uint256"
        },
        {
          "internalType": "bool",
          "name": "isActive",
          "type": "bool"
        }
      ],
      "stateMutability": "view",
      "type": "function"
    },
    {
      "inputs": [
        {
          "internalType": "bytes32",
          "name": "",
          "type": "bytes32"
        },
        {
          "internalType": "uint256",
          "name": "",
          "type": "uint256"
        }
      ],
      "name": "disputesByUser",
      "outputs": [
        {
          "internalType": "bytes32",
          "name": "",
          "type": "bytes32"
        }
      ],
      "stateMutability": "view",
      "type": "function"
    },
    {
      "inputs": [
        {
          "internalType": "bytes32",
          "name": "recordHash",
          "type": "bytes32"
        }
      ],
      "name": "doesHashExist",
      "outputs": [
        {
          "internalType": "bool",
          "name": "",
          "type": "bool"
        }
      ],
      "stateMutability": "view",
      "type": "function"
    },
    {
      "inputs": [
        {
          "internalType": "bytes32",
          "name": "subjectIdHash",
          "type": "bytes32"
        },
        {
          "internalType": "bytes32",
          "name": "recordIdHash",
          "type": "bytes32"
        },
        {
          "internalType": "bytes32",
          "name": "reporterIdHash",
          "type": "bytes32"
        },
        {
          "internalType": "bytes32",
          "name": "recordHash",
          "type": "bytes32"
        }
      ],
      "name": "flagUnacceptedUpdate",
      "outputs": [],
      "stateMutability": "nonpayable",
      "type": "function"
    },
    {
      "inputs": [
        {
          "internalType": "bytes32",
          "name": "recordIdHash",
          "type": "bytes32"
        }
      ],
      "name": "getActiveRecordSubjects",
      "outputs": [
        {
          "internalType": "bytes32[]",
          "name": "",
          "type": "bytes32[]"
        }
      ],
      "stateMutability": "view",
      "type": "function"
    },
    {
      "inputs": [
        {
          "internalType": "bytes32",
          "name": "subjectIdHash",
          "type": "bytes32"
        }
      ],
      "name": "getActiveUnacceptedFlagCount",
      "outputs": [
        {
          "internalType": "uint256",
          "name": "",
          "type": "uint256"
        }
      ],
      "stateMutability": "view",
      "type": "function"
    },
    {
      "inputs": [
        {
          "internalType": "bytes32",
          "name": "recordHash",
          "type": "bytes32"
        }
      ],
      "name": "getDisputeStats",
      "outputs": [
        {
          "internalType": "uint256",
          "name": "total",
          "type": "uint256"
        },
        {
          "internalType": "uint256",
          "name": "active",
          "type": "uint256"
        }
      ],
      "stateMutability": "view",
      "type": "function"
    },
    {
      "inputs": [
        {
          "internalType": "bytes32",
          "name": "recordHash",
          "type": "bytes32"
        }
      ],
      "name": "getDisputes",
      "outputs": [
        {
          "components": [
            {
              "internalType": "bytes32",
              "name": "disputerIdHash",
              "type": "bytes32"
            },
            {
              "internalType": "bytes32",
              "name": "recordIdHash",
              "type": "bytes32"
            },
            {
              "internalType": "enum HealthRecordCore.DisputeSeverity",
              "name": "severity",
              "type": "uint8"
            },
            {
              "internalType": "enum HealthRecordCore.DisputeCulpability",
              "name": "culpability",
              "type": "uint8"
            },
            {
              "internalType": "string",
              "name": "notes",
              "type": "string"
            },
            {
              "internalType": "uint256",
              "name": "createdAt",
              "type": "uint256"
            },
            {
              "internalType": "bool",
              "name": "isActive",
              "type": "bool"
            }
          ],
          "internalType": "struct HealthRecordCore.Dispute[]",
          "name": "",
          "type": "tuple[]"
        }
      ],
      "stateMutability": "view",
      "type": "function"
    },
    {
      "inputs": [
        {
          "internalType": "bytes32",
          "name": "recordHash",
          "type": "bytes32"
        }
      ],
      "name": "getRecordIdForHash",
      "outputs": [
        {
          "internalType": "bytes32",
          "name": "",
          "type": "bytes32"
        }
      ],
      "stateMutability": "view",
      "type": "function"
    },
    {
      "inputs": [
        {
          "internalType": "bytes32",
          "name": "recordIdHash",
          "type": "bytes32"
        }
      ],
      "name": "getRecordSubjects",
      "outputs": [
        {
          "internalType": "bytes32[]",
          "name": "",
          "type": "bytes32[]"
        }
      ],
      "stateMutability": "view",
      "type": "function"
    },
    {
      "inputs": [
        {
          "internalType": "bytes32",
          "name": "recordIdHash",
          "type": "bytes32"
        }
      ],
      "name": "getRecordVersionHistory",
      "outputs": [
        {
          "internalType": "bytes32[]",
          "name": "",
          "type": "bytes32[]"
        }
      ],
      "stateMutability": "view",
      "type": "function"
    },
    {
      "inputs": [
        {
          "internalType": "bytes32",
          "name": "userIdHash",
          "type": "bytes32"
        }
      ],
      "name": "getSubjectMedicalHistory",
      "outputs": [
        {
          "internalType": "bytes32[]",
          "name": "",
          "type": "bytes32[]"
        }
      ],
      "stateMutability": "view",
      "type": "function"
    },
    {
      "inputs": [
        {
          "internalType": "bytes32",
          "name": "recordIdHash",
          "type": "bytes32"
        }
      ],
      "name": "getSubjectStats",
      "outputs": [
        {
          "internalType": "uint256",
          "name": "total",
          "type": "uint256"
        },
        {
          "internalType": "uint256",
          "name": "active",
          "type": "uint256"
        }
      ],
      "stateMutability": "view",
      "type": "function"
    },
    {
      "inputs": [],
      "name": "getTotalAnchoredRecords",
      "outputs": [
        {
          "internalType": "uint256",
          "name": "",
          "type": "uint256"
        }
      ],
      "stateMutability": "view",
      "type": "function"
    },
    {
      "inputs": [
        {
          "internalType": "bytes32",
          "name": "subjectIdHash",
          "type": "bytes32"
        },
        {
          "internalType": "bytes32",
          "name": "recordIdHash",
          "type": "bytes32"
        }
      ],
      "name": "getUnacceptedFlag",
      "outputs": [
        {
          "internalType": "bool",
          "name": "exists",
          "type": "bool"
        },
        {
          "internalType": "bool",
          "name": "isActive",
          "type": "bool"
        },
        {
          "internalType": "bytes32",
          "name": "reporterIdHash",
          "type": "bytes32"
        },
        {
          "internalType": "bytes32",
          "name": "recordHash",
          "type": "bytes32"
        },
        {
          "internalType": "uint256",
          "name": "createdAt",
          "type": "uint256"
        }
      ],
      "stateMutability": "view",
      "type": "function"
    },
    {
      "inputs": [
        {
          "internalType": "bytes32",
          "name": "subjectIdHash",
          "type": "bytes32"
        }
      ],
      "name": "getUnacceptedFlags",
      "outputs": [
        {
          "components": [
            {
              "internalType": "bytes32",
              "name": "recordIdHash",
              "type": "bytes32"
            },
            {
              "internalType": "bytes32",
              "name": "reporterIdHash",
              "type": "bytes32"
            },
            {
              "internalType": "bytes32",
              "name": "recordHash",
              "type": "bytes32"
            },
            {
              "internalType": "uint256",
              "name": "createdAt",
              "type": "uint256"
            },
            {
              "internalType": "bool",
              "name": "isActive",
              "type": "bool"
            }
          ],
          "internalType": "struct HealthRecordCore.UnacceptedFlag[]",
          "name": "",
          "type": "tuple[]"
        }
      ],
      "stateMutability": "view",
      "type": "function"
    },
    {
      "inputs": [
        {
          "internalType": "bytes32",
          "name": "recordHash",
          "type": "bytes32"
        },
        {
          "internalType": "bytes32",
          "name": "userIdHash",
          "type": "bytes32"
        }
      ],
      "name": "getUserDispute",
      "outputs": [
        {
          "internalType": "bool",
          "name": "exists",
          "type": "bool"
        },
        {
          "internalType": "bytes32",
          "name": "recordIdHash",
          "type": "bytes32"
        },
        {
          "internalType": "enum HealthRecordCore.DisputeSeverity",
          "name": "severity",
          "type": "uint8"
        },
        {
          "internalType": "enum HealthRecordCore.DisputeCulpability",
          "name": "culpability",
          "type": "uint8"
        },
        {
          "internalType": "string",
          "name": "notes",
          "type": "string"
        },
        {
          "internalType": "uint256",
          "name": "createdAt",
          "type": "uint256"
        },
        {
          "internalType": "bool",
          "name": "isActive",
          "type": "bool"
        }
      ],
      "stateMutability": "view",
      "type": "function"
    },
    {
      "inputs": [
        {
          "internalType": "bytes32",
          "name": "userIdHash",
          "type": "bytes32"
        }
      ],
      "name": "getUserDisputes",
      "outputs": [
        {
          "internalType": "bytes32[]",
          "name": "",
          "type": "bytes32[]"
        }
      ],
      "stateMutability": "view",
      "type": "function"
    },
    {
      "inputs": [
        {
          "internalType": "bytes32",
          "name": "recordHash",
          "type": "bytes32"
        },
        {
          "internalType": "bytes32",
          "name": "userIdHash",
          "type": "bytes32"
        }
      ],
      "name": "getUserVerification",
      "outputs": [
        {
          "internalType": "bool",
          "name": "exists",
          "type": "bool"
        },
        {
          "internalType": "bytes32",
          "name": "recordIdHash",
          "type": "bytes32"
        },
        {
          "internalType": "enum HealthRecordCore.VerificationLevel",
          "name": "level",
          "type": "uint8"
        },
        {
          "internalType": "uint256",
          "name": "createdAt",
          "type": "uint256"
        },
        {
          "internalType": "bool",
          "name": "isActive",
          "type": "bool"
        }
      ],
      "stateMutability": "view",
      "type": "function"
    },
    {
      "inputs": [
        {
          "internalType": "bytes32",
          "name": "userIdHash",
          "type": "bytes32"
        }
      ],
      "name": "getUserVerifications",
      "outputs": [
        {
          "internalType": "bytes32[]",
          "name": "",
          "type": "bytes32[]"
        }
      ],
      "stateMutability": "view",
      "type": "function"
    },
    {
      "inputs": [
        {
          "internalType": "bytes32",
          "name": "recordHash",
          "type": "bytes32"
        }
      ],
      "name": "getVerificationStats",
      "outputs": [
        {
          "internalType": "uint256",
          "name": "total",
          "type": "uint256"
        },
        {
          "internalType": "uint256",
          "name": "active",
          "type": "uint256"
        }
      ],
      "stateMutability": "view",
      "type": "function"
    },
    {
      "inputs": [
        {
          "internalType": "bytes32",
          "name": "recordHash",
          "type": "bytes32"
        }
      ],
      "name": "getVerifications",
      "outputs": [
        {
          "components": [
            {
              "internalType": "bytes32",
              "name": "verifierIdHash",
              "type": "bytes32"
            },
            {
              "internalType": "bytes32",
              "name": "recordIdHash",
              "type": "bytes32"
            },
            {
              "internalType": "enum HealthRecordCore.VerificationLevel",
              "name": "level",
              "type": "uint8"
            },
            {
              "internalType": "uint256",
              "name": "createdAt",
              "type": "uint256"
            },
            {
              "internalType": "bool",
              "name": "isActive",
              "type": "bool"
            }
          ],
          "internalType": "struct HealthRecordCore.Verification[]",
          "name": "",
          "type": "tuple[]"
        }
      ],
      "stateMutability": "view",
      "type": "function"
    },
    {
      "inputs": [
        {
          "internalType": "bytes32",
          "name": "recordIdHash",
          "type": "bytes32"
        }
      ],
      "name": "getVersionCount",
      "outputs": [
        {
          "internalType": "uint256",
          "name": "",
          "type": "uint256"
        }
      ],
      "stateMutability": "view",
      "type": "function"
    },
    {
      "inputs": [
        {
          "internalType": "bytes32",
          "name": "subjectIdHash",
          "type": "bytes32"
        }
      ],
      "name": "hasActiveUnacceptedFlags",
      "outputs": [
        {
          "internalType": "bool",
          "name": "",
          "type": "bool"
        }
      ],
      "stateMutability": "view",
      "type": "function"
    },
    {
      "inputs": [
        {
          "internalType": "bytes32",
          "name": "recordHash",
          "type": "bytes32"
        },
        {
          "internalType": "bytes32",
          "name": "userIdHash",
          "type": "bytes32"
        }
      ],
      "name": "hasUserDisputed",
      "outputs": [
        {
          "internalType": "bool",
          "name": "",
          "type": "bool"
        }
      ],
      "stateMutability": "view",
      "type": "function"
    },
    {
      "inputs": [
        {
          "internalType": "bytes32",
          "name": "recordHash",
          "type": "bytes32"
        },
        {
          "internalType": "bytes32",
          "name": "userIdHash",
          "type": "bytes32"
        }
      ],
      "name": "hasUserVerified",
      "outputs": [
        {
          "internalType": "bool",
          "name": "",
          "type": "bool"
        }
      ],
      "stateMutability": "view",
      "type": "function"
    },
    {
      "inputs": [
        {
          "internalType": "address",
          "name": "_memberRoleManager",
          "type": "address"
        }
      ],
      "name": "initialize",
      "outputs": [],
      "stateMutability": "nonpayable",
      "type": "function"
    },
    {
      "inputs": [
        {
          "internalType": "bytes32",
          "name": "recordIdHash",
          "type": "bytes32"
        },
        {
          "internalType": "bytes32",
          "name": "userIdHash",
          "type": "bytes32"
        }
      ],
      "name": "isActiveSubject",
      "outputs": [
        {
          "internalType": "bool",
          "name": "",
          "type": "bool"
        }
      ],
      "stateMutability": "view",
      "type": "function"
    },
    {
      "inputs": [
        {
          "internalType": "bytes32",
          "name": "",
          "type": "bytes32"
        }
      ],
      "name": "isHashActive",
      "outputs": [
        {
          "internalType": "bool",
          "name": "",
          "type": "bool"
        }
      ],
      "stateMutability": "view",
      "type": "function"
    },
    {
      "inputs": [
        {
          "internalType": "bytes32",
          "name": "recordIdHash",
          "type": "bytes32"
        },
        {
          "internalType": "bytes32",
          "name": "userIdHash",
          "type": "bytes32"
        }
      ],
      "name": "isSubject",
      "outputs": [
        {
          "internalType": "bool",
          "name": "",
          "type": "bool"
        }
      ],
      "stateMutability": "view",
      "type": "function"
    },
    {
      "inputs": [
        {
          "internalType": "bytes32",
          "name": "",
          "type": "bytes32"
        },
        {
          "internalType": "bytes32",
          "name": "",
          "type": "bytes32"
        }
      ],
      "name": "isSubjectActive",
      "outputs": [
        {
          "internalType": "bool",
          "name": "",
          "type": "bool"
        }
      ],
      "stateMutability": "view",
      "type": "function"
    },
    {
      "inputs": [
        {
          "internalType": "bytes32",
          "name": "",
          "type": "bytes32"
        },
        {
          "internalType": "bytes32",
          "name": "",
          "type": "bytes32"
        }
      ],
      "name": "isSubjectOfRecord",
      "outputs": [
        {
          "internalType": "bool",
          "name": "",
          "type": "bool"
        }
      ],
      "stateMutability": "view",
      "type": "function"
    },
    {
      "inputs": [],
      "name": "memberRoleManager",
      "outputs": [
        {
          "internalType": "contract MemberRoleManagerInterface",
          "name": "",
          "type": "address"
        }
      ],
      "stateMutability": "view",
      "type": "function"
    },
    {
      "inputs": [
        {
          "internalType": "bytes32",
          "name": "recordHash",
          "type": "bytes32"
        },
        {
          "internalType": "uint8",
          "name": "newSeverity",
          "type": "uint8"
        },
        {
          "internalType": "uint8",
          "name": "newCulpability",
          "type": "uint8"
        }
      ],
      "name": "modifyDispute",
      "outputs": [],
      "stateMutability": "nonpayable",
      "type": "function"
    },
    {
      "inputs": [
        {
          "internalType": "bytes32",
          "name": "recordHash",
          "type": "bytes32"
        },
        {
          "internalType": "uint8",
          "name": "newLevel",
          "type": "uint8"
        }
      ],
      "name": "modifyVerificationLevel",
      "outputs": [],
      "stateMutability": "nonpayable",
      "type": "function"
    },
    {
      "inputs": [],
      "name": "proxiableUUID",
      "outputs": [
        {
          "internalType": "bytes32",
          "name": "",
          "type": "bytes32"
        }
      ],
      "stateMutability": "view",
      "type": "function"
    },
    {
      "inputs": [
        {
          "internalType": "bytes32",
          "name": "recordIdHash",
          "type": "bytes32"
        },
        {
          "internalType": "bytes32",
          "name": "subjectIdHash",
          "type": "bytes32"
        }
      ],
      "name": "reanchorRecord",
      "outputs": [],
      "stateMutability": "nonpayable",
      "type": "function"
    },
    {
      "inputs": [
        {
          "internalType": "bytes32",
          "name": "",
          "type": "bytes32"
        }
      ],
      "name": "recordIdForHash",
      "outputs": [
        {
          "internalType": "bytes32",
          "name": "",
          "type": "bytes32"
        }
      ],
      "stateMutability": "view",
      "type": "function"
    },
    {
      "inputs": [
        {
          "internalType": "bytes32",
          "name": "",
          "type": "bytes32"
        },
        {
          "internalType": "uint256",
          "name": "",
          "type": "uint256"
        }
      ],
      "name": "recordSubjects",
      "outputs": [
        {
          "internalType": "bytes32",
          "name": "",
          "type": "bytes32"
        }
      ],
      "stateMutability": "view",
      "type": "function"
    },
    {
      "inputs": [
        {
          "internalType": "bytes32",
          "name": "",
          "type": "bytes32"
        },
        {
          "internalType": "uint256",
          "name": "",
          "type": "uint256"
        }
      ],
      "name": "recordVersionHistory",
      "outputs": [
        {
          "internalType": "bytes32",
          "name": "",
          "type": "bytes32"
        }
      ],
      "stateMutability": "view",
      "type": "function"
    },
    {
      "inputs": [
        {
          "internalType": "bytes32",
          "name": "recordHash",
          "type": "bytes32"
        }
      ],
      "name": "retractDispute",
      "outputs": [],
      "stateMutability": "nonpayable",
      "type": "function"
    },
    {
      "inputs": [
        {
          "internalType": "bytes32",
          "name": "recordIdHash",
          "type": "bytes32"
        },
        {
          "internalType": "bytes32",
          "name": "recordHash",
          "type": "bytes32"
        }
      ],
      "name": "retractRecordHash",
      "outputs": [],
      "stateMutability": "nonpayable",
      "type": "function"
    },
    {
      "inputs": [
        {
          "internalType": "bytes32",
          "name": "recordHash",
          "type": "bytes32"
        }
      ],
      "name": "retractVerification",
      "outputs": [],
      "stateMutability": "nonpayable",
      "type": "function"
    },
    {
      "inputs": [
        {
          "internalType": "bytes32",
          "name": "subjectIdHash",
          "type": "bytes32"
        },
        {
          "internalType": "bytes32",
          "name": "recordIdHash",
          "type": "bytes32"
        }
      ],
      "name": "revokeUnacceptedFlag",
      "outputs": [],
      "stateMutability": "nonpayable",
      "type": "function"
    },
    {
      "inputs": [
        {
          "internalType": "address",
          "name": "_memberRoleManager",
          "type": "address"
        }
      ],
      "name": "setMemberRoleManager",
      "outputs": [],
      "stateMutability": "nonpayable",
      "type": "function"
    },
    {
      "inputs": [
        {
          "internalType": "bytes32",
          "name": "",
          "type": "bytes32"
        },
        {
          "internalType": "uint256",
          "name": "",
          "type": "uint256"
        }
      ],
      "name": "subjectMedicalHistory",
      "outputs": [
        {
          "internalType": "bytes32",
          "name": "",
          "type": "bytes32"
        }
      ],
      "stateMutability": "view",
      "type": "function"
    },
    {
      "inputs": [],
      "name": "totalAnchoredRecords",
      "outputs": [
        {
          "internalType": "uint256",
          "name": "",
          "type": "uint256"
        }
      ],
      "stateMutability": "view",
      "type": "function"
    },
    {
      "inputs": [],
      "name": "totalDisputes",
      "outputs": [
        {
          "internalType": "uint256",
          "name": "",
          "type": "uint256"
        }
      ],
      "stateMutability": "view",
      "type": "function"
    },
    {
      "inputs": [],
      "name": "totalUnacceptedFlags",
      "outputs": [
        {
          "internalType": "uint256",
          "name": "",
          "type": "uint256"
        }
      ],
      "stateMutability": "view",
      "type": "function"
    },
    {
      "inputs": [],
      "name": "totalVerifications",
      "outputs": [
        {
          "internalType": "uint256",
          "name": "",
          "type": "uint256"
        }
      ],
      "stateMutability": "view",
      "type": "function"
    },
    {
      "inputs": [
        {
          "internalType": "address",
          "name": "newAdmin",
          "type": "address"
        }
      ],
      "name": "transferAdmin",
      "outputs": [],
      "stateMutability": "nonpayable",
      "type": "function"
    },
    {
      "inputs": [
        {
          "internalType": "bytes32",
          "name": "",
          "type": "bytes32"
        },
        {
          "internalType": "bytes32",
          "name": "",
          "type": "bytes32"
        }
      ],
      "name": "unacceptedFlagIndex",
      "outputs": [
        {
          "internalType": "uint256",
          "name": "",
          "type": "uint256"
        }
      ],
      "stateMutability": "view",
      "type": "function"
    },
    {
      "inputs": [
        {
          "internalType": "bytes32",
          "name": "",
          "type": "bytes32"
        },
        {
          "internalType": "uint256",
          "name": "",
          "type": "uint256"
        }
      ],
      "name": "unacceptedFlagsBySubject",
      "outputs": [
        {
          "internalType": "bytes32",
          "name": "recordIdHash",
          "type": "bytes32"
        },
        {
          "internalType": "bytes32",
          "name": "reporterIdHash",
          "type": "bytes32"
        },
        {
          "internalType": "bytes32",
          "name": "recordHash",
          "type": "bytes32"
        },
        {
          "internalType": "uint256",
          "name": "createdAt",
          "type": "uint256"
        },
        {
          "internalType": "bool",
          "name": "isActive",
          "type": "bool"
        }
      ],
      "stateMutability": "view",
      "type": "function"
    },
    {
      "inputs": [
        {
          "internalType": "bytes32",
          "name": "recordIdHash",
          "type": "bytes32"
        },
        {
          "internalType": "bytes32",
          "name": "subjectIdHash",
          "type": "bytes32"
        }
      ],
      "name": "unanchorRecord",
      "outputs": [],
      "stateMutability": "nonpayable",
      "type": "function"
    },
    {
      "inputs": [
        {
          "internalType": "address",
          "name": "newImplementation",
          "type": "address"
        },
        {
          "internalType": "bytes",
          "name": "data",
          "type": "bytes"
        }
      ],
      "name": "upgradeToAndCall",
      "outputs": [],
      "stateMutability": "payable",
      "type": "function"
    },
    {
      "inputs": [
        {
          "internalType": "bytes32",
          "name": "",
          "type": "bytes32"
        },
        {
          "internalType": "bytes32",
          "name": "",
          "type": "bytes32"
        }
      ],
      "name": "verificationIndex",
      "outputs": [
        {
          "internalType": "uint256",
          "name": "",
          "type": "uint256"
        }
      ],
      "stateMutability": "view",
      "type": "function"
    },
    {
      "inputs": [
        {
          "internalType": "bytes32",
          "name": "",
          "type": "bytes32"
        },
        {
          "internalType": "uint256",
          "name": "",
          "type": "uint256"
        }
      ],
      "name": "verifications",
      "outputs": [
        {
          "internalType": "bytes32",
          "name": "verifierIdHash",
          "type": "bytes32"
        },
        {
          "internalType": "bytes32",
          "name": "recordIdHash",
          "type": "bytes32"
        },
        {
          "internalType": "enum HealthRecordCore.VerificationLevel",
          "name": "level",
          "type": "uint8"
        },
        {
          "internalType": "uint256",
          "name": "createdAt",
          "type": "uint256"
        },
        {
          "internalType": "bool",
          "name": "isActive",
          "type": "bool"
        }
      ],
      "stateMutability": "view",
      "type": "function"
    },
    {
      "inputs": [
        {
          "internalType": "bytes32",
          "name": "",
          "type": "bytes32"
        },
        {
          "internalType": "uint256",
          "name": "",
          "type": "uint256"
        }
      ],
      "name": "verificationsByUser",
      "outputs": [
        {
          "internalType": "bytes32",
          "name": "",
          "type": "bytes32"
        }
      ],
      "stateMutability": "view",
      "type": "function"
    },
    {
      "inputs": [
        {
          "internalType": "bytes32",
          "name": "recordIdHash",
          "type": "bytes32"
        },
        {
          "internalType": "bytes32",
          "name": "recordHash",
          "type": "bytes32"
        },
        {
          "internalType": "uint8",
          "name": "level",
          "type": "uint8"
        }
      ],
      "name": "verifyRecord",
      "outputs": [],
      "stateMutability": "nonpayable",
      "type": "function"
    }
  ],
  "bytecode": "0x60a08060405234620000d157306080527ff0c57e16840df040f15088dc2f81fe391c3923bec73e23a9662efc9c229c6a009081549060ff8260401c16620000c257506001600160401b036002600160401b0319828216016200007c575b60405161467a9081620000d682396080518181816126d601526127b30152f35b6001600160401b031990911681179091556040519081527fc7f505b2f371ae2175ee4913f4499e1f2633a7b5936321eed1cdaeb6115181d290602090a15f80806200005c565b63f92ee8a960e01b8152600490fd5b5f80fdfe604060808152600480361015610013575f80fd5b5f9060e05f35811c90816301f6993514613848578163045524a214613814578163056c925f1461353457816308d865171461350357816310466a67146121595781631166c38914613452578163153707031461342b5781631cf8cbe81461340d5781631ee6677014612ce2578163249dda2e146133e557816328837450146133215781633533d58c14612d4b5781633fa8ea8114612d0f57816340ec2e9a14612ce25781634244222614612c9557816342deec2514612ad3578163438b17cf146129615781634f1ef286146127625781635211e3b61461273a57816352d1902d146126c25781635a3ba1fa146124115781635d28a342146123e757816364f639d41461238b5781636e95a05114612236578163741bfc1d1461220a57816375829def1461218a5781637628262e146121595781637b470f6a14611d8657816384debbf114611d0f5781638651933514611bc457816386fe96e11461196b5781638a7f882c1461193f5781638fc751ee146119135781639afd307c146118e35781639e3432c1146116b9578163a208f96c14611688578163ac90c14014611669578163ac9243361461164a578163aca5964f14611617578163ad3cb1cc146115ac578163adcee10214611579578163aeb2a19f146114cd578163b27bb4d51461149b578163b5e6b7a21461145a578163be4f907714611380578163bf52046514611317578163c4d66de814611178578163c5e4ccc414611159578163c7567dfa14610f19578163c7695bab14610eb1578163d08c800d14610e48578163d19d366114610d1e57508063d1e94e5714610ca9578063d46e082f14610c8a578063d6989f0914610c59578063d9e551fc14610ad2578063dbc7b84214610aa9578063dd0bc08214610a57578063de4920f414610a2e578063def0dec8146108d6578063dfe368431461096f578063e08f1ac314610907578063e1628f0b146108d6578063e76ba1931461085c578063f36ddb4f1461048f578063f536eb2b14610422578063f851a440146103f95763fcdd52611461030c575f80fd5b346103f557602090816003193601126103f157919091358152600a825282812090815461033881613fcd565b9061034586519283613b57565b8082528482018094845285842084915b8383106103cc5750505050845193808501918186525180925285850193925b8281106103815785850386f35b909192938260a060019287518051825283810151848301528a8101516103a681613ab9565b828c01526060818101519083015260809081015115159082015201950193929101610374565b6005886001926103df859b98999b613deb565b81520192019201919096949396610355565b8280fd5b5080fd5b8284346103f557816003193601126103f55760015490516001600160a01b039091168152602090f35b5082346103f15761043236613aa3565b93908152601060205281812090815485101561048c575060a09361045591613d77565b5080549260018201549260ff6002840154926003850154940154169381519586526020860152840152606083015215156080820152f35b80fd5b5091346103f55760603660031901126103f557815481516345ecd02f60e01b8152338186015260209460249392813592853592916001600160a01b03919082169089818981855afa90811561085257906104f0918a91610835575b50614011565b85516364461aff60e11b815283810186815233602082015290918a918391908290819060400103915afa90811561082b57906105339189916107fe575b50614054565b61053e8415156140a0565b6105498315156140ec565b610554604435614475565b9284885260038952858820848952895260ff86892054166107ac5784885260028952858820541561066c575b8390857faed20eb4df1031f98b6ee943999c834d0a9a777b4aae82671c972b33c8b937508a9b610602838b8e828152600285526105bf8983832061419c565b82815260038552818120898252855281812060ff1990600182825416179055838252600586528282208a835286526001838320918254161790558a85522061419c565b61060d600954613dc9565b6009558951428152a486541690813b156106685786604492819587519889968795630c35c99760e21b87528601528401525af190811561065f575061064f5750f35b61065890613b43565b61048c5780f35b513d84823e3d90fd5b8680fd5b80885260068952858820548590801561070057036106c0578390857faed20eb4df1031f98b6ee943999c834d0a9a777b4aae82671c972b33c8b937508a9b610602838b8e5b505050509b5050509050610580565b6064838a89818a519362461bcd60e51b85528401528201527f486173682062656c6f6e677320746f20646966666572656e74207265636f72646044820152fd5b50506008895260ff86892054166107765780857faed20eb4df1031f98b6ee943999c834d0a9a777b4aae82671c972b33c8b937508a9b610602838b8e8b9881526006855282828220558281526007855261075c8883832061419c565b87815260088552818120805460ff191660011790556106b1565b855162461bcd60e51b81528084018a90526011818901527012185cda08185b1c9958591e481d5cd959607a1b6044820152606490fd5b855162461bcd60e51b81528084018a90526027818901527f5265636f726420616c726561647920616e63686f72656420746f2074686973206044820152661cdd589a9958dd60ca1b6064820152608490fd5b61081e91508a3d8c11610824575b6108168183613b57565b810190613ff9565b5f61052d565b503d61080c565b86513d8a823e3d90fd5b61084c91508b3d8d11610824576108168183613b57565b5f6104ea565b87513d8b823e3d90fd5b5082346103f15760209160206003193601126108d257358352600760205280832092815180936020865492838152019583526020832092905b8282106108bb576108b786866108ad828b0383613b57565b5191829182613c20565b0390f35b835487529586019560019384019390910190610895565b8380fd5b8284346103f55760ff816020936108ec36613aa3565b908252600b8652828220908252855220541690519015158152f35b5082346103f15760209160206003193601126108d257358352601360205280832092815180936020865492838152019583526020832092905b828210610958576108b786866108ad828b0383613b57565b835487529586019560019384019390910190610940565b508290346103f157602091826003193601126108d2578391358452600d835280842093845461099d81613fcd565b956109aa84519788613b57565b81875282528482208290868089015b848410610a0f5750505050508451905b8551811015610a025760c06109de8288613fe5565b5101516109ee575b6001016109c9565b926109fa600191613dc9565b9390506109e6565b5082848351928352820152f35b600191600691610a1e85614287565b81520192019201919087906109b9565b508290346103f15760203660031901126103f15760209282913581526007845220549051908152f35b823461048c57602036600319011261048c57610a71613c0a565b6001546001600160a01b039190610a8b9083163314613d90565b16610a978115156143f7565b81546001600160a01b03191617815580f35b508290346103f15760203660031901126103f15760209282913581526012845220549051908152f35b508290346103f1576020806003193601126108d2578354835162b0c80960e01b815233818501529383359390918390869060249082906001600160a01b03165afa948515610c4f578695610c1c575b50610b2d851515613f52565b838652600e8352818620858752835260ff828720541615610be35750907f6ce2cfa8c67a8eeddab297878ec995418cc57aa7857d4fe81c4f22c06842af0d91838652600f825280862085875282526005610bb782610ba860ff84610b9f8c8581205495818d889352600d8c5220613c84565b500154166143b7565b868952600d8552838920613c84565b500160ff1990818154169055848752600e8352818720868852835281872090815416905551428152a380f35b82606492519162461bcd60e51b83528201526015602482015274139bc8191a5cdc1d5d19481d1bc81c995d1c9858dd605a1b6044820152fd5b9094508281813d8311610c48575b610c348183613b57565b81010312610c4457519386610b21565b5f80fd5b503d610c2a565b82513d88823e3d90fd5b8284346103f55760ff81602093610c6f36613aa3565b90825260038652828220908252855220541690519015158152f35b8284346103f557816003193601126103f5576020906009549051908152f35b5082346103f157610cb936613aa3565b93908152600a60205281812090815485101561048c575060a093610cdc91613d77565b5080549260018201549260ff80600285015416926003850154940154169381519586526020860152610d0d82613ab9565b840152606083015215156080820152f35b8483853461048c57602091826003193601126103f557358152600d825282812091825490610d4b82613fcd565b91610d5886519384613b57565b8083528183018095855282852085915b838310610e235750505050845194818601928287525180935280860190808460051b8801019594975b848910610d9e5787870388f35b9091929394958480600192603f198b820301875289519081518152828201518382015286820151610dce81613ab9565b87820152610de460608084015190830190613bbf565b610dfb608087818501519184015287830190613bcc565b9160a0808201519083015260c080910151151591015298019401980197919094939294610d91565b600685600192610e36859a98999a614287565b81520192019201919095949395610d68565b505082346103f15760209160206003193601126108d257358352601460205280832092815180936020865492838152019583526020832092905b828210610e9a576108b786866108ad828b0383613b57565b835487529586019560019384019390910190610e82565b505082346103f15760209160206003193601126108d2578035845260205280832092815180936020865492838152019583526020832092905b828210610f02576108b786866108ad828b0383613b57565b835487529586019560019384019390910190610eea565b505082346103f157610f2a36613aa3565b92909160018060a01b03855416918151906345ecd02f60e01b825233818301526020918281602481885afa9081156111325790610f6d91899161113c5750614011565b82516364461aff60e11b81528181018681523360208201528390829081906040010381885afa9081156111325790610fab9189916111155750614054565b85875260068252828720546110d457851561109c578190602484518096819362b0c80960e01b835233908301525afa908115610c4f57869161104d575b7fa2dc124b7dcc6ee378406493edc477d456cb2e3946e74b015c868704e9f1628093508587526006815284838820558487526007815261102a8684892061419c565b85875260088152828720805460ff1916600117905582519182524290820152a380f35b80915083813d8311611095575b6110648183613b57565b81010312610c44577fa2dc124b7dcc6ee378406493edc477d456cb2e3946e74b015c868704e9f16280925190610fe8565b503d61105a565b915162461bcd60e51b8152918201526014602482015273486173682063616e6e6f7420626520656d70747960601b6044820152606490fd5b915162461bcd60e51b815291820152601e60248201527f4861736820616c726561647920626f756e6420746f2061207265636f726400006044820152606490fd5b61112c9150843d8611610824576108168183613b57565b8961052d565b84513d8a823e3d90fd5b6111539150843d8611610824576108168183613b57565b896104ea565b8385346103f557816003193601126103f5576020906016549051908152f35b838584346103f15760203660031901126103f157611194613c0a565b7ff0c57e16840df040f15088dc2f81fe391c3923bec73e23a9662efc9c229c6a009182549160ff83861c16159267ffffffffffffffff81168015908161130f575b6001149081611305575b1590816112fc575b506112ec5767ffffffffffffffff1981166001178555836112cd575b506001600160a01b031690811561128057506bffffffffffffffffffffffff60a01b90818654161785553390600154161760015561123f578280f35b805468ff00000000000000001916905551600181527fc7f505b2f371ae2175ee4913f4499e1f2633a7b5936321eed1cdaeb6115181d290602090a181808280f35b608490602086519162461bcd60e51b8352820152602160248201527f496e76616c6964204d656d626572526f6c654d616e61676572206164647265736044820152607360f81b6064820152fd5b68ffffffffffffffffff19166801000000000000000117845586611203565b855163f92ee8a960e01b81528390fd5b905015886111e7565b303b1591506111df565b8591506111d5565b505082346103f15760209160206003193601126108d257358352600260205280832092815180936020865492838152019583526020832092905b828210611369576108b786866108ad828b0383613b57565b835487529586019560019384019390910190611351565b5050346103f557602090816003193601126103f157919091358152601082528281209081546113ae81613fcd565b906113bb86519283613b57565b8082528482018094845285842084915b8383106114355750505050845193808501918186525180925285850193925b8281106113f75785850386f35b835180518652808301518684015287810151888701526060808201519087015260809081015115159086015260a090940193928101926001016113ea565b600588600192611448859b98999b6141d0565b815201920192019190969493966113cb565b8385346103f55761146a36613aa3565b92908152601360205281812090815484101561048c575060209261148d91613c5b565b91905490519160031b1c8152f35b8285853461048c576114ac36613aa3565b9390825260205281812090815484101561048c575060209261148d91613c5b565b8285853461048c576114de36613aa3565b91908152600d60205282812090815483101561048c5750906114ff91613c84565b509061156882549360018401549561155a600286015460ff811660ff600561152960038b01613cd5565b968a0154990154169680519a8b9a8b5260208b015261154782613ab9565b89015260ff606089019160081c16613bbf565b806080870152850190613bcc565b9160a0840152151560c08301520390f35b8385346103f55761158936613aa3565b92908152601460205281812090815484101561048c575060209261148d91613c5b565b8285853461048c578060031936011261048c575080519080820182811067ffffffffffffffff821117611604576108b79350815260058252640352e302e360dc1b602083015251918291602083526020830190613bcc565b604184634e487b7160e01b5f525260245ffd5b8385346103f55761162736613aa3565b92908152600260205281812090815484101561048c575060209261148d91613c5b565b8385346103f557816003193601126103f5576020906017549051908152f35b8385346103f557816003193601126103f5576020906015549051908152f35b8385346103f55760ff8160209361169e36613aa3565b90825260058652828220908252855220541690519015158152f35b50508234610c44576116ca36613aa3565b5f5483516345ecd02f60e01b815233818701529294926020926001600160a01b03929091908316908481602481855afa9081156118d95790611712915f916118bc5750614011565b85516364461aff60e11b8152858101888152336020820152909185918391908290819060400103915afa9081156118b25761175d9291611758915f916118955750614054565b614475565b91855f5260038152845f20835f52815260ff855f2054161561185d57855f5260058152845f20835f52815260ff855f20541661182a57857f34ca5296a801df9003d17df2e6ea45b29101067ae1a058cef45a9b8995d2cdfc8492825f5260058152875f20845f528152875f20600160ff198254161790558751428152a35f5416803b15610c44575f928360449286519788958694630c35c99760e21b865285015260248401525af19081156118215750611815575080f35b61181f9150613b43565b005b513d5f823e3d90fd5b8360649186519162461bcd60e51b8352820152600e60248201526d416c72656164792061637469766560901b6044820152fd5b8360649186519162461bcd60e51b8352820152601360248201527215d85cc81b995d995c8818481cdd589a9958dd606a1b6044820152fd5b6118ac9150863d8811610824576108168183613b57565b8a61052d565b86513d5f823e3d90fd5b6118d39150863d8811610824576108168183613b57565b8a6104ea565b87513d5f823e3d90fd5b8434610c44576118f236613aa3565b91905f526007602052805f208054831015610c445760209261148d91613c5b565b8434610c445760209061192536613aa3565b905f52600f8352815f20905f528252805f20549051908152f35b8434610c445760209061195136613aa3565b905f5260118352815f20905f528252805f20549051908152f35b848334610c445781600319360112610c445780359060ff61198a613ad7565b1692600184101580611bb9575b6119a090614435565b5f54815162b0c80960e01b8152338482015294906020908190879060249082906001600160a01b03165afa958615611baf575f96611b80575b506119e5861515613f52565b845f52600b8152825f20865f52815260ff835f20541615611b3e57845f52600c8152825f20865f528152611a25835f2054865f52600a8352845f20613d77565b5060ff858201541615611afb5760020160ff81541694611a4484613ab9565b611a4d84613ab9565b611a5686613ab9565b838614611ac357509160609391611a98827f2ceaf6828ee12b3a0561fe551f858011031c9f47cf65d027f4462777e3c63a8d9795611a9382613ab9565b613f96565b611aa182613ab9565b825193611aad81613ab9565b8452611ab882613ab9565b8301524290820152a3005b845162461bcd60e51b81529081018390526012602482015271105b1c9958591e481d1a1a5cc81b195d995b60721b6044820152606490fd5b835162461bcd60e51b8152808601839052601f60248201527f566572696669636174696f6e20686173206265656e20726574726163746564006044820152606490fd5b8360649184519162461bcd60e51b8352820152601960248201527f4e6f20766572696669636174696f6e20746f206d6f64696679000000000000006044820152fd5b9080965081813d8311611ba8575b611b988183613b57565b81010312610c44575194866119d9565b503d611b8e565b83513d5f823e3d90fd5b506003841115611997565b848334610c445760209081600319360112610c44573590815f5260028152825f2083518082848294549384815201905f52845f20925f5b86828210611cf957505050611c1292500382613b57565b5f915f5b8251811015611c6057845f5260058252855f20611c338285613fe5565b515f52825260ff865f205416611c4c575b600101611c16565b92611c58600191613dc9565b939050611c44565b5090611c6b83613fcd565b92611c7886519485613b57565b808452611c87601f1991613fcd565b0136838501375f915f5b8251811015611cec57600190865f5260058352875f20611cb18286613fe5565b515f52835260ff885f205416611cc8575b01611c91565b611cd28185613fe5565b51611ce6611cdf87613dc9565b9688613fe5565b52611cc2565b8651806108b78782613c20565b8554845260019586019587955093019201611bfb565b828534610c44576020366003190112610c44578135805f52600860205260ff825f20541615611d4d57602092505f5260068252805f20549051908152f35b815162461bcd60e51b8152602081850152601360248201527212185cda08191bd95cc81b9bdd08195e1a5cdd606a1b6044820152606490fd5b828534610c44576060366003190112610c44578135602491823590611da9613ae7565b5f5482516345ecd02f60e01b8152338882015291966001600160a01b03909116916020919082818981875afa9081156121385790611ded915f916121425750614011565b83516364461aff60e11b81528181018781523360208201528390829081906040010381875afa908115612138578899611e30859360ff935f9161211b5750614054565b611e3b8915156140a0565b611e468815156140ec565b1693600185101580612110575b611e5c90614435565b855162b0c80960e01b8152338482015298899182905afa968715612106575f976120d7575b50611e8d871515613f52565b845f5260068252611ea286855f205414614138565b845f52600b8252835f20875f52825260ff845f20541661209757845f52600e8252835f20875f52825260ff845f20541661203f57845f52600a8252835f2090815491611eed85613ab9565b8551611ef881613af7565b89815284810189815287820190611f0e88613ab9565b8782526060830192428452608081019460018652600160401b88101561202d5787611f3e91600182018155613d77565b9e909e61201c57507f9f44978447988782ba02b3e977811604129dc2032d4cfc97aaadacb68bea9f359a9b9c9d9492611faf969492611f939251875551600187015551611f8a81613ab9565b60028601613f96565b51600384015551151591019060ff801983541691151516179055565b855f52600b8252835f20885f528252835f20600160ff19825416179055855f52600c8252835f20885f528252835f205560138152611fef85845f2061419c565b611ffa601554613dc9565b60155561200682613ab9565b82519161201281613ab9565b82524290820152a4005b634e487b7160e01b5f908152808852fd5b8e604188634e487b7160e01b5f52525ffd5b602f8860849386519362461bcd60e51b85528401528201527f43616e6e6f74207665726966792061206861736820796f75206172652061637460448201526e6976656c7920646973707574696e6760881b6064820152fd5b601a8860649386519362461bcd60e51b85528401528201527f416c7265616479207665726966696564207468697320686173680000000000006044820152fd5b9096508181813d83116120ff575b6120ef8183613b57565b81010312610c4457519588611e81565b503d6120e5565b84513d5f823e3d90fd5b506003851115611e53565b6121329150853d8711610824576108168183613b57565b8d61052d565b85513d5f823e3d90fd5b6118d39150843d8611610824576108168183613b57565b8434610c445760209061216b36613aa3565b905f52600e8352815f20905f52825260ff815f20541690519015158152f35b8434610c44576020366003190112610c44576020906121a7613c0a565b60015491906001600160a01b03808416917f38df5fa0f7fef0d515ca1f5388cb5790ac5885d5fca8d05d9f943e563c33a4b391906121e6338514613d90565b169485936121f58515156143f7565b51428152a36001600160a01b03191617600155005b8434610c445760209061221c36613aa3565b905f52600c8352815f20905f528252805f20549051908152f35b828534610c445761224636613aa3565b9061225c60018060a01b03600154163314613d90565b805f52602060118152835f20835f528152835f2054938415612357575f19948086019081116123445761229890845f5260108452825f20613d77565b509486860180549660ff88161561230a57600101549660ff19169055835f5260128352815f2090815480156122f7577f147d74bfb2412c7ed232eabeb9f52ec3783a909e5c2a94b9da2af7f2bdb18ae6959697985001905551428152a4005b601189634e487b7160e01b5f525260245ffd5b835162461bcd60e51b8152808a018690526014602482015273119b1859c8185b1c9958591e481c995d9bdad95960621b6044820152606490fd5b601187634e487b7160e01b5f525260245ffd5b5162461bcd60e51b815280860191909152600e60248201526d4e6f20666c61672065786973747360901b6044820152606490fd5b8434610c445760209061239d36613aa3565b5f8281526003855283812082825285528390205460ff169291836123c6575b5050519015158152f35b909192505f5260058352815f20905f52825260ff815f2054169083806123bc565b828534610c44576020366003190112610c4457602091355f5260128252805f205415159051908152f35b848334610c445761242136613aa3565b5f5484516345ecd02f60e01b8152338582015292949192602092916001600160a01b0316908381602481855afa908115611baf5790612466915f916126a55750614011565b81516228cf1560e51b8152858101878152336020820152909184918391908290819060400103915afa90811561269b575f9161267e575b501561264757825f526006825284815f20540361260f57825f52600880835260ff926124ce60ff845f2054166143b7565b5f94875f5260078252835f20978451808a85829c549384815201905f52855f20925f5b878282106125f9575050506125089250038a613b57565b5f5b895181101561254a5761251d818b613fe5565b515f5284845286865f205416612536575b60010161250a565b96612542600191613dc9565b97905061252e565b5082858960018a111561259d57505f84815260088352818120805460ff191690556006835281812055514281527f6640c4cae266bfafee4b79ae3b57e1391d8cf826d2b9781aa698e99ca7157c7e9190a3005b82608492519162461bcd60e51b8352820152603260248201527f43616e6e6f74207265747261637420746865206c617374206163746976652076604482015271195c9cda5bdb881bd98818481c9958dbdc9960721b6064820152fd5b855484526001958601958f9550930192016124f1565b5162461bcd60e51b815292830152506014602482015273090c2e6d05aa4cac6dee4c840dad2e6dac2e8c6d60631b6044820152606490fd5b5162461bcd60e51b81529283015250601360248201527227b7363c9037bbb732b91037b91030b236b4b760691b6044820152606490fd5b6126959150833d8511610824576108168183613b57565b8661249d565b82513d5f823e3d90fd5b6126bc9150853d8711610824576108168183613b57565b886104ea565b828534610c44575f366003190112610c44577f00000000000000000000000000000000000000000000000000000000000000006001600160a01b0316300361272d57602090517f360894a13ba1a3210667c828492db98dca3e2076cc3735a920a3ca505d382bbc8152f35b5163703e46dd60e11b8152fd5b828534610c44576020366003190112610c4457602091355f5260068252805f20549051908152f35b848381600319360112610c4457612777613c0a565b9160243567ffffffffffffffff8111610c445736602382011215610c44576127a89036906024818601359101613b79565b906001600160a01b037f00000000000000000000000000000000000000000000000000000000000000008116308114908115612933575b50612923576127f381600154163314613d90565b8416918151946352d1902d60e01b86526020868681875afa5f96816128ef575b5061282f57505051634c9c8ce360e01b81529182015260249150fd5b838593877f360894a13ba1a3210667c828492db98dca3e2076cc3735a920a3ca505d382bbc908181036128d95750833b156128c25780546001600160a01b0319168317905551907fbc7cd75a20ee27fd9adebab32041f755214dbc6bffa90cc0225b39da2e5c2d3b5f80a28251156128ac575061181f92506145b3565b915050346128b657005b63b398979f60e01b8152fd5b8151634c9c8ce360e01b8152808701849052602490fd5b86602491845191632a87526960e21b8352820152fd5b9096506020813d60201161291b575b8161290b60209383613b57565b81010312610c4457519587612813565b3d91506128fe565b815163703e46dd60e11b81528490fd5b9050817f360894a13ba1a3210667c828492db98dca3e2076cc3735a920a3ca505d382bbc54161415866127df565b848334610c4457602080600319360112610c44575f54835162b0c80960e01b815233818501529383359390918390869060249082906001600160a01b03165afa94851561269b575f95612aa4575b506129bb851515613f52565b835f52600b8352815f20855f52835260ff825f20541615612a6357907f7ec0e3ca85e47c77a1ed99ff37570ab8878cb21ced66baead633becff47a8f0e9291845f52600c8352815f20865f528352612a38825f2054865f52600a8552612a2960ff84610b9f84885f20613d77565b865f52600a8552835f20613d77565b500160ff1990818154169055845f52600b8352815f20865f528352815f2090815416905551428152a3005b82606492519162461bcd60e51b8352820152601a60248201527f4e6f20766572696669636174696f6e20746f20726574726163740000000000006044820152fd5b9094508281813d8311612acc575b612abc8183613b57565b81010312610c44575193856129af565b503d612ab2565b828534610c4457612ae336613aa3565b5f5483516345ecd02f60e01b8152338682015292936020939092916001600160a01b0316908481602481855afa9081156121065790612b28915f91612c7e5750614011565b82516364461aff60e11b8152868101868152336020820152909185918391908290819060400103915afa908115611baf57612b6e9291611758915f91612c615750614054565b93835f5260038352815f20855f52835260ff825f20541615612c2057835f5260058352815f20855f52835260ff825f20541615612bea5750907f8aefa795ccfdf03e334bd6a4fe20e8c4f5d5202e0320dc267fde988bd5f1674f91835f5260058252805f20855f528252805f2060ff19815416905551428152a3005b82606492519162461bcd60e51b83528201526012602482015271105b1c9958591e481d5b985b98da1bdc995960721b6044820152fd5b82606492519162461bcd60e51b8352820152601c60248201527f4e6f742061207375626a656374206f662074686973207265636f7264000000006044820152fd5b612c789150863d8811610824576108168183613b57565b8861052d565b6126bc9150863d8811610824576108168183613b57565b849034610c445761155a611568612cb4612cae36613aa3565b906142f6565b9695989390979291949980519a8b9a15158b5260208b0152612cd582613ab9565b8901526060880190613bbf565b828534610c44576020366003190112610c4457602091355f526008825260ff815f20541690519015158152f35b8434610c445760a090612d2a612d2436613aa3565b90614211565b93949092815195151586521515602086015284015260608301526080820152f35b828534610c445760a0366003190112610c4457813590602492833591612d6f613ae7565b6064359060ff8216809203610c445767ffffffffffffffff93608435858111610c445736602382011215610c4457612daf9036908a818501359101613b79565b9460018060a01b035f5416918551936345ecd02f60e01b8552338286015260209485818d81885afa9081156132d25790612def915f916133045750614011565b86516364461aff60e11b81528281018b81523360208201528690829081906040010381885afa9081156132d25791612e3460ff928e979695945f916132e75750614054565b612e3f8c15156140a0565b612e4a8b15156140ec565b169785600194858b1015806132dc575b612e6390613ec3565b612e7060058a1115613f06565b895162b0c80960e01b815233858201529d8e9182905afa9b8c156132d2575f9c6132a3575b50612ea18c1515613f52565b895f5260068652612eb68b895f205414614138565b895f52600e8652875f208c5f52865260ff885f20541661326157895f52600b8652875f208c5f52865260ff885f20541661320657895f52600d8652875f2092835495612f018b613ab9565b60068910156131f457918c918e9594938b5196612f1d88613b27565b87528987019384528b8701612f318e613ab9565b8d815260608801612f428d82614190565b6080890194855260a089019542875260c08a01988b8a52600160401b8d10156131e2578c612f74918d82018155613c84565b9a909a6131d157518a55518a8a0155612f9b60028a019251612f9581613ab9565b83613f96565b519060068210156131bf5790612fb091613fae565b6003870192519081519283116131ad5750612fcb8354613c9d565b601f8111613167575b508990601f83116001146130d157946130529460609d9b98947f19c1298d442e6dcfc61025509382dd2c8a2d96c75e684d78c38c95624674c9a99f9d9a9794806130be9d9a956005975f926130c6575b50505f19600383901b1c191690891b1790555b519084015551151591019060ff801983541691151516179055565b895f52600e8352855f208c5f528352855f209060ff19825416179055885f52600f8252845f208b5f528252845f20556014815261309188855f2061419c565b61309c601654613dc9565b6016556130a885613ab9565b8351946130b481613ab9565b8552840190613bbf565b4290820152a4005b015190505f80613024565b90601f19831691845f528b5f20925f5b8181106131525750947f19c1298d442e6dcfc61025509382dd2c8a2d96c75e684d78c38c95624674c9a99f9d9a60609f9d9a96956130be9d9a95829a956130529a958360059a1061313a575b505050811b019055613037565b01515f1960f88460031b161c191690555f808061312d565b828401518555938b0193928d01928d016130e1565b835f528a5f20601f840160051c8101918c85106131a3575b601f0160051c019089905b828110613198575050612fd4565b5f815501899061318a565b909150819061317f565b634e487b7160e01b5f90815260418752fd5b82602188634e487b7160e01b5f52525ffd5b845f8a634e487b7160e01b8252525ffd5b8460418a634e487b7160e01b5f52525ffd5b634e487b7160e01b5f90815260218552fd5b875162461bcd60e51b81528083018790526030818701527f43616e6e6f7420646973707574652061206861736820796f752061726520616360448201526f746976656c7920766572696679696e6760801b6064820152608490fd5b875162461bcd60e51b8152808301879052601a818701527f416c7265616479206469737075746564207468697320686173680000000000006044820152606490fd5b909b508581813d83116132cb575b6132bb8183613b57565b81010312610c4457519a8c612e95565b503d6132b1565b88513d5f823e3d90fd5b5060038b1115612e5a565b6132fe9150893d8b11610824576108168183613b57565b8f61052d565b61331b9150873d8911610824576108168183613b57565b8d6104ea565b848334610c445760209081600319360112610c445735905f90825f5260028152835f209084518083838295549384815201905f52835f20925f5b858282106133cf5750505061337292500383613b57565b8151935f5b83518110156133c157815f5260058352865f206133948286613fe5565b515f52835260ff875f2054166133ad575b600101613377565b936133b9600191613dc9565b9490506133a5565b505090508351928352820152f35b855484526001958601958895509301920161335b565b828534610c44576020366003190112610c4457602091355f5260128252805f20549051908152f35b8434610c44575f366003190112610c44576020906009549051908152f35b8434610c44575f366003190112610c44575f5490516001600160a01b039091168152602090f35b848334610c445760209081600319360112610c44575f90355f52600a8252825f2092835461347f81613fcd565b9461348c83519687613b57565b8186525f908152848120858088015b8484106134e457505050505083515f5b8551811015610a025760806134c08288613fe5565b5101516134d0575b6001016134ab565b926134dc600191613dc9565b9390506134c8565b6001916005916134f385613deb565b815201920192019190869061349b565b8434610c445760209061351536613aa3565b905f5260038352815f20905f52825260ff815f20541690519015158152f35b848334610c44576060366003190112610c4457803590613552613ad7565b9261355b613ae7565b9360ff8080921695600187101580613809575b61357790613ec3565b16946135866005871115613f06565b5f54835162b0c80960e01b8152338682015296602094916024919086908a90849082906001600160a01b03165afa988915611baf575f996137da575b506135ce891515613f52565b875f52600e8652825f20895f52865284835f205416156137a157875f52600f8652825f20895f52865261360d835f2054895f52600d8852845f20613c84565b50856005820154161561375f576002019182549786808a169960081c169561363481613ab9565b61363d81613ab9565b6136468a613ab9565b808a14801590613731575b156136fd578061366361366992613ab9565b85613f96565b60068310156136ec5750506136e39360a09693836136ad6136d5947f0fe65316e02c3dce1bca5a3132e022178971267d711982849c99758da3cfc7ed9b9996613fae565b5494848616908251986136bf81613ab9565b89526136ca82613ab9565b880152860190613bbf565b606084019160081c16613bbf565b426080820152a3005b602190634e487b7160e01b5f52525ffd5b5060106064928987519362461bcd60e51b85528401528201526f15985b1d595cc81d5b98da185b99d95960821b6044820152fd5b50600684101561374d57600687101561374d5783871415613651565b50602190634e487b7160e01b5f52525ffd5b835162461bcd60e51b8152808901889052601a818501527f4469737075746520686173206265656e207265747261637465640000000000006044820152606490fd5b825162461bcd60e51b8152808801879052601481840152734e6f206469737075746520746f206d6f6469667960601b6044820152606490fd5b9098508581813d8311613802575b6137f28183613b57565b81010312610c44575197896135c2565b503d6137e8565b50600387111561356e565b8434610c445760a09061382f61382936613aa3565b90613e37565b93949092815195151586526020860152610d0d82613ab9565b828534610c44576080366003190112610c44578135602491823592604435946064359161388060018060a01b03600154163314613d90565b8415613a6f578515613a3c578615613a0757845f5260209160118352845f20875f528352845f20546139d557855f5260108352845f2054600181018091116139c357865f5260118452855f20885f528452855f2055855f5260108352845f2085516138ea81613af7565b8881528481018a8152878201908782526060830192428452608081019460018652805490600160401b8210156139b1579061392a91600182018155613d77565b97909761201c5750518655516001860155516002850155516003840155519101805460ff191691151560ff169190911790557fd975a013e674f51ff6b9d1144095cbe8d88c8a4ebac520ffdce1b92eee22e99b929190845f5260128152825f206139948154613dc9565b90556139a1601754613dc9565b60175582519182524290820152a4005b88604189634e487b7160e01b5f52525ffd5b50601190634e487b7160e01b5f52525ffd5b600f6064928487519362461bcd60e51b85528401528201526e105b1c9958591e48199b1859d9d959608a1b6044820152fd5b906010606492602086519362461bcd60e51b85528401528201526f24b73b30b634b210383937bb34b232b960811b6044820152fd5b90600e606492602086519362461bcd60e51b85528401528201526d125b9d985b1a59081c9958dbdc9960921b6044820152fd5b90600f606492602086519362461bcd60e51b85528401528201526e125b9d985b1a59081cdd589a9958dd608a1b6044820152fd5b6040906003190112610c44576004359060243590565b60041115613ac357565b634e487b7160e01b5f52602160045260245ffd5b6024359060ff82168203610c4457565b6044359060ff82168203610c4457565b60a0810190811067ffffffffffffffff821117613b1357604052565b634e487b7160e01b5f52604160045260245ffd5b60e0810190811067ffffffffffffffff821117613b1357604052565b67ffffffffffffffff8111613b1357604052565b90601f8019910116810190811067ffffffffffffffff821117613b1357604052565b92919267ffffffffffffffff8211613b135760405191613ba3601f8201601f191660200184613b57565b829481845281830111610c44578281602093845f960137010152565b906006821015613ac35752565b91908251928382525f5b848110613bf6575050825f602080949584010152601f8019910116010190565b602081830181015184830182015201613bd6565b600435906001600160a01b0382168203610c4457565b60209060206040818301928281528551809452019301915f5b828110613c47575050505090565b835185529381019392810192600101613c39565b8054821015613c70575f5260205f2001905f90565b634e487b7160e01b5f52603260045260245ffd5b8054821015613c70575f52600660205f20910201905f90565b90600182811c92168015613ccb575b6020831014613cb757565b634e487b7160e01b5f52602260045260245ffd5b91607f1691613cac565b9060405191825f8254613ce781613c9d565b908184526020946001916001811690815f14613d555750600114613d17575b505050613d1592500383613b57565b565b5f90815285812095935091905b818310613d3d575050613d1593508201015f8080613d06565b85548884018501529485019487945091830191613d24565b92505050613d1594925060ff191682840152151560051b8201015f8080613d06565b8054821015613c70575f52600560205f20910201905f90565b15613d9757565b60405162461bcd60e51b815260206004820152600a60248201526927b7363c9030b236b4b760b11b6044820152606490fd5b5f198114613dd75760010190565b634e487b7160e01b5f52601160045260245ffd5b90604051613df881613af7565b608060ff60048395805485526001810154602086015282600282015416613e1e81613ab9565b6040860152600381015460608601520154161515910152565b919091805f52602090600b8252604093845f20815f52835260ff855f20541615613eb35781613e8591613e8b935f52600c8552865f20905f528452855f2054905f52600a8452855f20613d77565b50613deb565b908101519281015191613e9d83613ab9565b6080606083015192015115159060019493929190565b505f935083928392508291508190565b15613eca57565b60405162461bcd60e51b81526020600482015260146024820152735365766572697479206d75737420626520312d3360601b6044820152606490fd5b15613f0d57565b60405162461bcd60e51b815260206004820152601760248201527f43756c706162696c697479206d75737420626520302d350000000000000000006044820152606490fd5b15613f5957565b60405162461bcd60e51b815260206004820152601560248201527415d85b1b195d081b9bdd081c9959da5cdd195c9959605a1b6044820152606490fd5b90613fa081613ab9565b60ff80198354169116179055565b906006811015613ac35761ff0082549160081b169061ff001916179055565b67ffffffffffffffff8111613b135760051b60200190565b8051821015613c705760209160051b010190565b90816020910312610c4457518015158103610c445790565b1561401857565b60405162461bcd60e51b81526020600482015260146024820152732737ba1030b71030b1ba34bb329036b2b6b132b960611b6044820152606490fd5b1561405b57565b60405162461bcd60e51b815260206004820152601860248201527f4e6f2061636365737320746f2074686973207265636f726400000000000000006044820152606490fd5b156140a757565b60405162461bcd60e51b815260206004820152601960248201527f5265636f72642049442063616e6e6f7420626520656d707479000000000000006044820152606490fd5b156140f357565b60405162461bcd60e51b815260206004820152601b60248201527f5265636f726420686173682063616e6e6f7420626520656d70747900000000006044820152606490fd5b1561413f57565b60405162461bcd60e51b815260206004820152602360248201527f4861736820646f6573206e6f742062656c6f6e6720746f2074686973207265636044820152621bdc9960ea1b6064820152608490fd5b6006821015613ac35752565b8054600160401b811015613b13576141b991600182018155613c5b565b819291549060031b91821b915f19901b1916179055565b906040516141dd81613af7565b608060ff60048395805485526001810154602086015260028101546040860152600381015460608601520154161515910152565b90815f52601160205260405f20905f5260205260405f2054908115614279575f52601060205260405f205f198201918211613dd7576142599161425391613d77565b506141d0565b608081015160208201516040830151606090930151600194921515939192565b50505f905f905f905f905f90565b9060405161429481613b27565b60c060ff6005839580548552600181015460208601526142d18360028301548181166142bf81613ab9565b604089015260081c1660608701614190565b6142dd60038201613cd5565b6080860152600481015460a08601520154161515910152565b919091805f52602090600e8252604093845f20815f52835260ff855f2054161561438957816143449161434a935f52600f8552865f20905f528452855f2054905f52600d8452855f20613c84565b50614287565b90810151928101519161435c83613ab9565b6060820151916006831015613ac35760808101519160c060a0830151920151151590600196959493929190565b50505f925f925f925f9280519182019082821067ffffffffffffffff831117613b1357525f8152905f905f90565b156143be57565b60405162461bcd60e51b8152602060048201526011602482015270105b1c9958591e481c995d1c9858dd1959607a1b6044820152606490fd5b156143fe57565b60405162461bcd60e51b815260206004820152600f60248201526e496e76616c6964206164647265737360881b6044820152606490fd5b1561443c57565b60405162461bcd60e51b81526020600482015260116024820152704c6576656c206d75737420626520312d3360781b6044820152606490fd5b5f5460405162b0c80960e01b81523360048201526020916001600160a01b0316908281602481855afa90811561456b575f91614586575b506144b8811515613f52565b8315801561457d575b61457657829060446040518094819363557ee54f60e01b835288600484015260248301525afa90811561456b575f9161454e575b50156144ff575090565b6084906040519062461bcd60e51b82526004820152602260248201527f4e6f74206120636f6e74726f6c6c657220666f722074686973206964656e7469604482015261747960f01b6064820152fd5b6145659150823d8411610824576108168183613b57565b5f6144f5565b6040513d5f823e3d90fd5b9250505090565b508084146144c1565b90508281813d83116145ac575b61459d8183613b57565b81010312610c4457515f6144ac565b503d614593565b905f8091602081519101845af48080614631575b156145e75750506040513d81523d5f602083013e60203d82010160405290565b1561460e57604051639996b31560e01b81526001600160a01b039091166004820152602490fd5b3d1561461f576040513d5f823e3d90fd5b60405163d6bda27560e01b8152600490fd5b503d1515806145c75750813b15156145c756fea26469706673582212202aef31c16feb66c4071ccfbbcfe3d2b38adb27bc93945b2978d4e17d4fc6a04f64736f6c63430008180033",
  "linkReferences": {},
  "deployedLinkReferences": {}
}