{
  "_format": "hh-sol-artifact-1",
  "contractName": "MemberRoleManager",
  "sourceName": "smartContracts/MemberRoleManager.sol",
  "abi": [
    {
      "inputs": [],
      "stateMutability": "nonpayable",
      "type": "constructor"
    },
    {
      "inputs": [
        {
          "internalType": "address",
          "name": "target",
          "type": "address"
        }
      ],
      "name": "AddressEmptyCode",
      "type": "error"
    },
    {
      "inputs": [
        {
          "internalType": "address",
          "name": "implementation",
          "type": "address"
        }
      ],
      "name": "ERC1967InvalidImplementation",
      "type": "error"
    },
    {
      "inputs": [],
      "name": "ERC1967NonPayable",
      "type": "error"
    },
    {
      "inputs": [],
      "name": "FailedCall",
      "type": "error"
    },
    {
      "inputs": [],
      "name": "InvalidInitialization",
      "type": "error"
    },
    {
      "inputs": [],
      "name": "NotInitializing",
      "type": "error"
    },
    {
      "inputs": [],
      "name": "UUPSUnauthorizedCallContext",
      "type": "error"
    },
    {
      "inputs": [
        {
          "internalType": "bytes32",
          "name": "slot",
          "type": "bytes32"
        }
      ],
      "name": "UUPSUnsupportedProxiableUUID",
      "type": "error"
    },
    {
      "anonymous": false,
      "inputs": [
        {
          "indexed": true,
          "internalType": "address",
          "name": "oldAdmin",
          "type": "address"
        },
        {
          "indexed": true,
          "internalType": "address",
          "name": "newAdmin",
          "type": "address"
        },
        {
          "indexed": false,
          "internalType": "uint256",
          "name": "timestamp",
          "type": "uint256"
        }
      ],
      "name": "AdminTransferred",
      "type": "event"
    },
    {
      "anonymous": false,
      "inputs": [
        {
          "indexed": true,
          "internalType": "address",
          "name": "newAddress",
          "type": "address"
        },
        {
          "indexed": false,
          "internalType": "uint256",
          "name": "timestamp",
          "type": "uint256"
        }
      ],
      "name": "HealthRecordCoreUpdated",
      "type": "event"
    },
    {
      "anonymous": false,
      "inputs": [
        {
          "indexed": false,
          "internalType": "uint64",
          "name": "version",
          "type": "uint64"
        }
      ],
      "name": "Initialized",
      "type": "event"
    },
    {
      "anonymous": false,
      "inputs": [
        {
          "indexed": true,
          "internalType": "address",
          "name": "wallet",
          "type": "address"
        },
        {
          "indexed": true,
          "internalType": "bytes32",
          "name": "userIdHash",
          "type": "bytes32"
        },
        {
          "indexed": false,
          "internalType": "uint256",
          "name": "timestamp",
          "type": "uint256"
        }
      ],
      "name": "MemberRegistered",
      "type": "event"
    },
    {
      "anonymous": false,
      "inputs": [
        {
          "indexed": true,
          "internalType": "bytes32",
          "name": "userIdHash",
          "type": "bytes32"
        },
        {
          "indexed": false,
          "internalType": "enum MemberRoleManager.MemberStatus",
          "name": "oldStatus",
          "type": "uint8"
        },
        {
          "indexed": false,
          "internalType": "enum MemberRoleManager.MemberStatus",
          "name": "newStatus",
          "type": "uint8"
        },
        {
          "indexed": true,
          "internalType": "address",
          "name": "changedBy",
          "type": "address"
        },
        {
          "indexed": false,
          "internalType": "uint256",
          "name": "timestamp",
          "type": "uint256"
        }
      ],
      "name": "MemberStatusChanged",
      "type": "event"
    },
    {
      "anonymous": false,
      "inputs": [
        {
          "indexed": true,
          "internalType": "string",
          "name": "recordId",
          "type": "string"
        },
        {
          "indexed": true,
          "internalType": "bytes32",
          "name": "userIdHash",
          "type": "bytes32"
        },
        {
          "indexed": false,
          "internalType": "uint256",
          "name": "timestamp",
          "type": "uint256"
        }
      ],
      "name": "OwnershipVoluntarilyLeft",
      "type": "event"
    },
    {
      "anonymous": false,
      "inputs": [
        {
          "indexed": true,
          "internalType": "string",
          "name": "recordId",
          "type": "string"
        },
        {
          "indexed": true,
          "internalType": "bytes32",
          "name": "targetIdHash",
          "type": "bytes32"
        },
        {
          "indexed": false,
          "internalType": "string",
          "name": "oldRole",
          "type": "string"
        },
        {
          "indexed": false,
          "internalType": "string",
          "name": "newRole",
          "type": "string"
        },
        {
          "indexed": true,
          "internalType": "bytes32",
          "name": "userIdHash",
          "type": "bytes32"
        },
        {
          "indexed": false,
          "internalType": "uint256",
          "name": "timestamp",
          "type": "uint256"
        }
      ],
      "name": "RoleChanged",
      "type": "event"
    },
    {
      "anonymous": false,
      "inputs": [
        {
          "indexed": true,
          "internalType": "string",
          "name": "recordId",
          "type": "string"
        },
        {
          "indexed": true,
          "internalType": "bytes32",
          "name": "targetIdHash",
          "type": "bytes32"
        },
        {
          "indexed": false,
          "internalType": "string",
          "name": "role",
          "type": "string"
        },
        {
          "indexed": true,
          "internalType": "bytes32",
          "name": "userIdHash",
          "type": "bytes32"
        },
        {
          "indexed": false,
          "internalType": "uint256",
          "name": "timestamp",
          "type": "uint256"
        }
      ],
      "name": "RoleGranted",
      "type": "event"
    },
    {
      "anonymous": false,
      "inputs": [
        {
          "indexed": true,
          "internalType": "string",
          "name": "recordId",
          "type": "string"
        },
        {
          "indexed": true,
          "internalType": "bytes32",
          "name": "targetIdHash",
          "type": "bytes32"
        },
        {
          "indexed": false,
          "internalType": "string",
          "name": "role",
          "type": "string"
        },
        {
          "indexed": true,
          "internalType": "bytes32",
          "name": "userIdHash",
          "type": "bytes32"
        },
        {
          "indexed": false,
          "internalType": "uint256",
          "name": "timestamp",
          "type": "uint256"
        }
      ],
      "name": "RoleRevoked",
      "type": "event"
    },
    {
      "anonymous": false,
      "inputs": [
        {
          "indexed": true,
          "internalType": "bytes32",
          "name": "trustorIdHash",
          "type": "bytes32"
        },
        {
          "indexed": true,
          "internalType": "bytes32",
          "name": "trusteeIdHash",
          "type": "bytes32"
        },
        {
          "indexed": false,
          "internalType": "enum MemberRoleManager.TrusteeLevel",
          "name": "level",
          "type": "uint8"
        },
        {
          "indexed": false,
          "internalType": "uint256",
          "name": "timestamp",
          "type": "uint256"
        }
      ],
      "name": "TrusteeAccepted",
      "type": "event"
    },
    {
      "anonymous": false,
      "inputs": [
        {
          "indexed": true,
          "internalType": "bytes32",
          "name": "trustorIdHash",
          "type": "bytes32"
        },
        {
          "indexed": true,
          "internalType": "bytes32",
          "name": "trusteeIdHash",
          "type": "bytes32"
        },
        {
          "indexed": false,
          "internalType": "enum MemberRoleManager.TrusteeLevel",
          "name": "oldLevel",
          "type": "uint8"
        },
        {
          "indexed": false,
          "internalType": "enum MemberRoleManager.TrusteeLevel",
          "name": "newLevel",
          "type": "uint8"
        },
        {
          "indexed": false,
          "internalType": "uint256",
          "name": "timestamp",
          "type": "uint256"
        }
      ],
      "name": "TrusteeLevelUpdated",
      "type": "event"
    },
    {
      "anonymous": false,
      "inputs": [
        {
          "indexed": true,
          "internalType": "bytes32",
          "name": "trustorIdHash",
          "type": "bytes32"
        },
        {
          "indexed": true,
          "internalType": "bytes32",
          "name": "trusteeIdHash",
          "type": "bytes32"
        },
        {
          "indexed": false,
          "internalType": "enum MemberRoleManager.TrusteeLevel",
          "name": "level",
          "type": "uint8"
        },
        {
          "indexed": false,
          "internalType": "uint256",
          "name": "timestamp",
          "type": "uint256"
        }
      ],
      "name": "TrusteeProposed",
      "type": "event"
    },
    {
      "anonymous": false,
      "inputs": [
        {
          "indexed": true,
          "internalType": "bytes32",
          "name": "trustorIdHash",
          "type": "bytes32"
        },
        {
          "indexed": true,
          "internalType": "bytes32",
          "name": "trusteeIdHash",
          "type": "bytes32"
        },
        {
          "indexed": true,
          "internalType": "bytes32",
          "name": "revokedBy",
          "type": "bytes32"
        },
        {
          "indexed": false,
          "internalType": "uint256",
          "name": "timestamp",
          "type": "uint256"
        }
      ],
      "name": "TrusteeRevoked",
      "type": "event"
    },
    {
      "anonymous": false,
      "inputs": [
        {
          "indexed": true,
          "internalType": "address",
          "name": "implementation",
          "type": "address"
        }
      ],
      "name": "Upgraded",
      "type": "event"
    },
    {
      "anonymous": false,
      "inputs": [
        {
          "indexed": true,
          "internalType": "address",
          "name": "wallet",
          "type": "address"
        },
        {
          "indexed": true,
          "internalType": "bytes32",
          "name": "userIdHash",
          "type": "bytes32"
        },
        {
          "indexed": false,
          "internalType": "uint256",
          "name": "timestamp",
          "type": "uint256"
        }
      ],
      "name": "WalletLinked",
      "type": "event"
    },
    {
      "inputs": [],
      "name": "UPGRADE_INTERFACE_VERSION",
      "outputs": [
        {
          "internalType": "string",
          "name": "",
          "type": "string"
        }
      ],
      "stateMutability": "view",
      "type": "function"
    },
    {
      "inputs": [
        {
          "internalType": "bytes32",
          "name": "trustorIdHash",
          "type": "bytes32"
        }
      ],
      "name": "acceptTrustee",
      "outputs": [],
      "stateMutability": "nonpayable",
      "type": "function"
    },
    {
      "inputs": [
        {
          "internalType": "address",
          "name": "wallet",
          "type": "address"
        },
        {
          "internalType": "bytes32",
          "name": "userIdHash",
          "type": "bytes32"
        }
      ],
      "name": "addMember",
      "outputs": [],
      "stateMutability": "nonpayable",
      "type": "function"
    },
    {
      "inputs": [],
      "name": "admin",
      "outputs": [
        {
          "internalType": "address",
          "name": "",
          "type": "address"
        }
      ],
      "stateMutability": "view",
      "type": "function"
    },
    {
      "inputs": [
        {
          "internalType": "string",
          "name": "",
          "type": "string"
        },
        {
          "internalType": "uint256",
          "name": "",
          "type": "uint256"
        }
      ],
      "name": "adminsByRecord",
      "outputs": [
        {
          "internalType": "bytes32",
          "name": "",
          "type": "bytes32"
        }
      ],
      "stateMutability": "view",
      "type": "function"
    },
    {
      "inputs": [
        {
          "internalType": "string",
          "name": "recordId",
          "type": "string"
        },
        {
          "internalType": "address",
          "name": "targetWallet",
          "type": "address"
        },
        {
          "internalType": "string",
          "name": "newRole",
          "type": "string"
        }
      ],
      "name": "changeRole",
      "outputs": [],
      "stateMutability": "nonpayable",
      "type": "function"
    },
    {
      "inputs": [
        {
          "internalType": "string[]",
          "name": "recordIds",
          "type": "string[]"
        },
        {
          "internalType": "address",
          "name": "targetWallet",
          "type": "address"
        },
        {
          "internalType": "string[]",
          "name": "newRoles",
          "type": "string[]"
        }
      ],
      "name": "changeRoleBatch",
      "outputs": [],
      "stateMutability": "nonpayable",
      "type": "function"
    },
    {
      "inputs": [
        {
          "internalType": "address",
          "name": "wallet",
          "type": "address"
        }
      ],
      "name": "deactivateWallet",
      "outputs": [],
      "stateMutability": "nonpayable",
      "type": "function"
    },
    {
      "inputs": [],
      "name": "getAllUsers",
      "outputs": [
        {
          "internalType": "bytes32[]",
          "name": "",
          "type": "bytes32[]"
        }
      ],
      "stateMutability": "view",
      "type": "function"
    },
    {
      "inputs": [],
      "name": "getHealthRecordCore",
      "outputs": [
        {
          "internalType": "address",
          "name": "",
          "type": "address"
        }
      ],
      "stateMutability": "view",
      "type": "function"
    },
    {
      "inputs": [
        {
          "internalType": "string",
          "name": "recordId",
          "type": "string"
        }
      ],
      "name": "getRecordAdmins",
      "outputs": [
        {
          "internalType": "bytes32[]",
          "name": "",
          "type": "bytes32[]"
        }
      ],
      "stateMutability": "view",
      "type": "function"
    },
    {
      "inputs": [
        {
          "internalType": "string",
          "name": "recordId",
          "type": "string"
        }
      ],
      "name": "getRecordOwners",
      "outputs": [
        {
          "internalType": "bytes32[]",
          "name": "",
          "type": "bytes32[]"
        }
      ],
      "stateMutability": "view",
      "type": "function"
    },
    {
      "inputs": [
        {
          "internalType": "string",
          "name": "recordId",
          "type": "string"
        }
      ],
      "name": "getRecordRoleStats",
      "outputs": [
        {
          "internalType": "uint256",
          "name": "ownerCount",
          "type": "uint256"
        },
        {
          "internalType": "uint256",
          "name": "adminCount",
          "type": "uint256"
        },
        {
          "internalType": "uint256",
          "name": "viewerCount",
          "type": "uint256"
        }
      ],
      "stateMutability": "view",
      "type": "function"
    },
    {
      "inputs": [
        {
          "internalType": "string",
          "name": "recordId",
          "type": "string"
        }
      ],
      "name": "getRecordViewers",
      "outputs": [
        {
          "internalType": "bytes32[]",
          "name": "",
          "type": "bytes32[]"
        }
      ],
      "stateMutability": "view",
      "type": "function"
    },
    {
      "inputs": [
        {
          "internalType": "bytes32",
          "name": "userIdHash",
          "type": "bytes32"
        }
      ],
      "name": "getRecordsByUser",
      "outputs": [
        {
          "internalType": "string[]",
          "name": "",
          "type": "string[]"
        }
      ],
      "stateMutability": "view",
      "type": "function"
    },
    {
      "inputs": [
        {
          "internalType": "string",
          "name": "recordId",
          "type": "string"
        },
        {
          "internalType": "address",
          "name": "wallet",
          "type": "address"
        }
      ],
      "name": "getRoleDetails",
      "outputs": [
        {
          "internalType": "string",
          "name": "role",
          "type": "string"
        },
        {
          "internalType": "bool",
          "name": "isActive",
          "type": "bool"
        }
      ],
      "stateMutability": "view",
      "type": "function"
    },
    {
      "inputs": [
        {
          "internalType": "string",
          "name": "recordId",
          "type": "string"
        },
        {
          "internalType": "bytes32",
          "name": "userIdHash",
          "type": "bytes32"
        }
      ],
      "name": "getRoleDetailsByUser",
      "outputs": [
        {
          "internalType": "string",
          "name": "role",
          "type": "string"
        },
        {
          "internalType": "bool",
          "name": "isActive",
          "type": "bool"
        }
      ],
      "stateMutability": "view",
      "type": "function"
    },
    {
      "inputs": [
        {
          "internalType": "string",
          "name": "recordId",
          "type": "string"
        },
        {
          "internalType": "bytes32",
          "name": "userIdHash",
          "type": "bytes32"
        }
      ],
      "name": "getRoleGranter",
      "outputs": [
        {
          "internalType": "bytes32",
          "name": "",
          "type": "bytes32"
        }
      ],
      "stateMutability": "view",
      "type": "function"
    },
    {
      "inputs": [],
      "name": "getTotalRoles",
      "outputs": [
        {
          "internalType": "uint256",
          "name": "",
          "type": "uint256"
        }
      ],
      "stateMutability": "view",
      "type": "function"
    },
    {
      "inputs": [],
      "name": "getTotalUsers",
      "outputs": [
        {
          "internalType": "uint256",
          "name": "",
          "type": "uint256"
        }
      ],
      "stateMutability": "view",
      "type": "function"
    },
    {
      "inputs": [
        {
          "internalType": "bytes32",
          "name": "trustorIdHash",
          "type": "bytes32"
        },
        {
          "internalType": "bytes32",
          "name": "trusteeIdHash",
          "type": "bytes32"
        }
      ],
      "name": "getTrusteeRelationship",
      "outputs": [
        {
          "internalType": "enum MemberRoleManager.TrusteeStatus",
          "name": "status",
          "type": "uint8"
        },
        {
          "internalType": "enum MemberRoleManager.TrusteeLevel",
          "name": "level",
          "type": "uint8"
        }
      ],
      "stateMutability": "view",
      "type": "function"
    },
    {
      "inputs": [
        {
          "internalType": "address",
          "name": "wallet",
          "type": "address"
        }
      ],
      "name": "getUserForWallet",
      "outputs": [
        {
          "internalType": "bytes32",
          "name": "",
          "type": "bytes32"
        }
      ],
      "stateMutability": "view",
      "type": "function"
    },
    {
      "inputs": [
        {
          "internalType": "bytes32",
          "name": "userIdHash",
          "type": "bytes32"
        }
      ],
      "name": "getUserStatus",
      "outputs": [
        {
          "internalType": "enum MemberRoleManager.MemberStatus",
          "name": "status",
          "type": "uint8"
        }
      ],
      "stateMutability": "view",
      "type": "function"
    },
    {
      "inputs": [
        {
          "internalType": "bytes32",
          "name": "userIdHash",
          "type": "bytes32"
        }
      ],
      "name": "getWalletsForUser",
      "outputs": [
        {
          "internalType": "address[]",
          "name": "",
          "type": "address[]"
        }
      ],
      "stateMutability": "view",
      "type": "function"
    },
    {
      "inputs": [
        {
          "internalType": "string",
          "name": "recordId",
          "type": "string"
        },
        {
          "internalType": "address",
          "name": "targetWallet",
          "type": "address"
        },
        {
          "internalType": "string",
          "name": "role",
          "type": "string"
        }
      ],
      "name": "grantRole",
      "outputs": [],
      "stateMutability": "nonpayable",
      "type": "function"
    },
    {
      "inputs": [
        {
          "internalType": "string[]",
          "name": "recordIds",
          "type": "string[]"
        },
        {
          "internalType": "bytes32",
          "name": "trustorIdHash",
          "type": "bytes32"
        }
      ],
      "name": "grantRoleAsTrusteeBatch",
      "outputs": [],
      "stateMutability": "nonpayable",
      "type": "function"
    },
    {
      "inputs": [
        {
          "internalType": "string[]",
          "name": "recordIds",
          "type": "string[]"
        },
        {
          "internalType": "address",
          "name": "targetWallet",
          "type": "address"
        },
        {
          "internalType": "string[]",
          "name": "roles",
          "type": "string[]"
        }
      ],
      "name": "grantRoleBatch",
      "outputs": [],
      "stateMutability": "nonpayable",
      "type": "function"
    },
    {
      "inputs": [
        {
          "internalType": "string",
          "name": "recordId",
          "type": "string"
        },
        {
          "internalType": "address",
          "name": "wallet",
          "type": "address"
        }
      ],
      "name": "hasActiveRole",
      "outputs": [
        {
          "internalType": "bool",
          "name": "",
          "type": "bool"
        }
      ],
      "stateMutability": "view",
      "type": "function"
    },
    {
      "inputs": [
        {
          "internalType": "string",
          "name": "recordId",
          "type": "string"
        },
        {
          "internalType": "address",
          "name": "wallet",
          "type": "address"
        },
        {
          "internalType": "string",
          "name": "role",
          "type": "string"
        }
      ],
      "name": "hasRole",
      "outputs": [
        {
          "internalType": "bool",
          "name": "",
          "type": "bool"
        }
      ],
      "stateMutability": "view",
      "type": "function"
    },
    {
      "inputs": [],
      "name": "healthRecordCore",
      "outputs": [
        {
          "internalType": "contract HealthRecordCoreInterface",
          "name": "",
          "type": "address"
        }
      ],
      "stateMutability": "view",
      "type": "function"
    },
    {
      "inputs": [],
      "name": "initialize",
      "outputs": [],
      "stateMutability": "nonpayable",
      "type": "function"
    },
    {
      "inputs": [
        {
          "internalType": "string",
          "name": "recordId",
          "type": "string"
        },
        {
          "internalType": "address",
          "name": "targetWallet",
          "type": "address"
        },
        {
          "internalType": "string",
          "name": "role",
          "type": "string"
        }
      ],
      "name": "initializeRecordRole",
      "outputs": [],
      "stateMutability": "nonpayable",
      "type": "function"
    },
    {
      "inputs": [
        {
          "internalType": "address",
          "name": "wallet",
          "type": "address"
        }
      ],
      "name": "isActiveMember",
      "outputs": [
        {
          "internalType": "bool",
          "name": "",
          "type": "bool"
        }
      ],
      "stateMutability": "view",
      "type": "function"
    },
    {
      "inputs": [
        {
          "internalType": "string",
          "name": "recordId",
          "type": "string"
        },
        {
          "internalType": "bytes32",
          "name": "userIdHash",
          "type": "bytes32"
        }
      ],
      "name": "isActiveSubject",
      "outputs": [
        {
          "internalType": "bool",
          "name": "",
          "type": "bool"
        }
      ],
      "stateMutability": "view",
      "type": "function"
    },
    {
      "inputs": [
        {
          "internalType": "bytes32",
          "name": "trustorIdHash",
          "type": "bytes32"
        },
        {
          "internalType": "bytes32",
          "name": "trusteeIdHash",
          "type": "bytes32"
        }
      ],
      "name": "isControllerOf",
      "outputs": [
        {
          "internalType": "bool",
          "name": "",
          "type": "bool"
        }
      ],
      "stateMutability": "view",
      "type": "function"
    },
    {
      "inputs": [
        {
          "internalType": "string",
          "name": "recordId",
          "type": "string"
        },
        {
          "internalType": "address",
          "name": "wallet",
          "type": "address"
        }
      ],
      "name": "isOwnerOrAdmin",
      "outputs": [
        {
          "internalType": "bool",
          "name": "",
          "type": "bool"
        }
      ],
      "stateMutability": "view",
      "type": "function"
    },
    {
      "inputs": [
        {
          "internalType": "address",
          "name": "wallet",
          "type": "address"
        }
      ],
      "name": "isVerifiedMember",
      "outputs": [
        {
          "internalType": "bool",
          "name": "",
          "type": "bool"
        }
      ],
      "stateMutability": "view",
      "type": "function"
    },
    {
      "inputs": [
        {
          "internalType": "address",
          "name": "wallet",
          "type": "address"
        }
      ],
      "name": "isVerifiedProvider",
      "outputs": [
        {
          "internalType": "bool",
          "name": "",
          "type": "bool"
        }
      ],
      "stateMutability": "view",
      "type": "function"
    },
    {
      "inputs": [
        {
          "internalType": "string",
          "name": "",
          "type": "string"
        },
        {
          "internalType": "uint256",
          "name": "",
          "type": "uint256"
        }
      ],
      "name": "ownersByRecord",
      "outputs": [
        {
          "internalType": "bytes32",
          "name": "",
          "type": "bytes32"
        }
      ],
      "stateMutability": "view",
      "type": "function"
    },
    {
      "inputs": [
        {
          "internalType": "bytes32",
          "name": "trusteeIdHash",
          "type": "bytes32"
        },
        {
          "internalType": "enum MemberRoleManager.TrusteeLevel",
          "name": "level",
          "type": "uint8"
        }
      ],
      "name": "proposeTrustee",
      "outputs": [],
      "stateMutability": "nonpayable",
      "type": "function"
    },
    {
      "inputs": [],
      "name": "proxiableUUID",
      "outputs": [
        {
          "internalType": "bytes32",
          "name": "",
          "type": "bytes32"
        }
      ],
      "stateMutability": "view",
      "type": "function"
    },
    {
      "inputs": [
        {
          "internalType": "address",
          "name": "wallet",
          "type": "address"
        }
      ],
      "name": "reactivateWallet",
      "outputs": [],
      "stateMutability": "nonpayable",
      "type": "function"
    },
    {
      "inputs": [
        {
          "internalType": "bytes32",
          "name": "",
          "type": "bytes32"
        }
      ],
      "name": "recordRoles",
      "outputs": [
        {
          "internalType": "string",
          "name": "role",
          "type": "string"
        },
        {
          "internalType": "bool",
          "name": "isActive",
          "type": "bool"
        }
      ],
      "stateMutability": "view",
      "type": "function"
    },
    {
      "inputs": [
        {
          "internalType": "bytes32",
          "name": "",
          "type": "bytes32"
        },
        {
          "internalType": "uint256",
          "name": "",
          "type": "uint256"
        }
      ],
      "name": "recordsByUser",
      "outputs": [
        {
          "internalType": "string",
          "name": "",
          "type": "string"
        }
      ],
      "stateMutability": "view",
      "type": "function"
    },
    {
      "inputs": [
        {
          "internalType": "string",
          "name": "recordId",
          "type": "string"
        },
        {
          "internalType": "address",
          "name": "targetWallet",
          "type": "address"
        }
      ],
      "name": "revokeRole",
      "outputs": [],
      "stateMutability": "nonpayable",
      "type": "function"
    },
    {
      "inputs": [
        {
          "internalType": "string[]",
          "name": "recordIds",
          "type": "string[]"
        },
        {
          "internalType": "address",
          "name": "targetWallet",
          "type": "address"
        }
      ],
      "name": "revokeRoleBatch",
      "outputs": [],
      "stateMutability": "nonpayable",
      "type": "function"
    },
    {
      "inputs": [
        {
          "internalType": "bytes32",
          "name": "trustorIdHash",
          "type": "bytes32"
        },
        {
          "internalType": "bytes32",
          "name": "trusteeIdHash",
          "type": "bytes32"
        }
      ],
      "name": "revokeTrustee",
      "outputs": [],
      "stateMutability": "nonpayable",
      "type": "function"
    },
    {
      "inputs": [
        {
          "internalType": "bytes32",
          "name": "",
          "type": "bytes32"
        }
      ],
      "name": "roleGrantedBy",
      "outputs": [
        {
          "internalType": "bytes32",
          "name": "",
          "type": "bytes32"
        }
      ],
      "stateMutability": "view",
      "type": "function"
    },
    {
      "inputs": [
        {
          "internalType": "address",
          "name": "_healthRecordCore",
          "type": "address"
        }
      ],
      "name": "setHealthRecordCore",
      "outputs": [],
      "stateMutability": "nonpayable",
      "type": "function"
    },
    {
      "inputs": [
        {
          "internalType": "bytes32",
          "name": "userIdHash",
          "type": "bytes32"
        },
        {
          "internalType": "enum MemberRoleManager.MemberStatus",
          "name": "newStatus",
          "type": "uint8"
        }
      ],
      "name": "setUserStatus",
      "outputs": [],
      "stateMutability": "nonpayable",
      "type": "function"
    },
    {
      "inputs": [],
      "name": "totalRoles",
      "outputs": [
        {
          "internalType": "uint256",
          "name": "",
          "type": "uint256"
        }
      ],
      "stateMutability": "view",
      "type": "function"
    },
    {
      "inputs": [],
      "name": "totalUsers",
      "outputs": [
        {
          "internalType": "uint256",
          "name": "",
          "type": "uint256"
        }
      ],
      "stateMutability": "view",
      "type": "function"
    },
    {
      "inputs": [
        {
          "internalType": "address",
          "name": "newAdmin",
          "type": "address"
        }
      ],
      "name": "transferAdmin",
      "outputs": [],
      "stateMutability": "nonpayable",
      "type": "function"
    },
    {
      "inputs": [
        {
          "internalType": "bytes32",
          "name": "",
          "type": "bytes32"
        },
        {
          "internalType": "bytes32",
          "name": "",
          "type": "bytes32"
        }
      ],
      "name": "trusteeRelationships",
      "outputs": [
        {
          "internalType": "enum MemberRoleManager.TrusteeStatus",
          "name": "status",
          "type": "uint8"
        },
        {
          "internalType": "enum MemberRoleManager.TrusteeLevel",
          "name": "level",
          "type": "uint8"
        }
      ],
      "stateMutability": "view",
      "type": "function"
    },
    {
      "inputs": [
        {
          "internalType": "bytes32",
          "name": "trusteeIdHash",
          "type": "bytes32"
        },
        {
          "internalType": "enum MemberRoleManager.TrusteeLevel",
          "name": "newLevel",
          "type": "uint8"
        }
      ],
      "name": "updateTrusteeLevel",
      "outputs": [],
      "stateMutability": "nonpayable",
      "type": "function"
    },
    {
      "inputs": [
        {
          "internalType": "address",
          "name": "newImplementation",
          "type": "address"
        },
        {
          "internalType": "bytes",
          "name": "data",
          "type": "bytes"
        }
      ],
      "name": "upgradeToAndCall",
      "outputs": [],
      "stateMutability": "payable",
      "type": "function"
    },
    {
      "inputs": [
        {
          "internalType": "uint256",
          "name": "",
          "type": "uint256"
        }
      ],
      "name": "userList",
      "outputs": [
        {
          "internalType": "bytes32",
          "name": "",
          "type": "bytes32"
        }
      ],
      "stateMutability": "view",
      "type": "function"
    },
    {
      "inputs": [
        {
          "internalType": "bytes32",
          "name": "",
          "type": "bytes32"
        }
      ],
      "name": "userStatus",
      "outputs": [
        {
          "internalType": "enum MemberRoleManager.MemberStatus",
          "name": "",
          "type": "uint8"
        }
      ],
      "stateMutability": "view",
      "type": "function"
    },
    {
      "inputs": [
        {
          "internalType": "bytes32",
          "name": "",
          "type": "bytes32"
        },
        {
          "internalType": "uint256",
          "name": "",
          "type": "uint256"
        }
      ],
      "name": "userWallets",
      "outputs": [
        {
          "internalType": "address",
          "name": "",
          "type": "address"
        }
      ],
      "stateMutability": "view",
      "type": "function"
    },
    {
      "inputs": [
        {
          "internalType": "string",
          "name": "",
          "type": "string"
        },
        {
          "internalType": "uint256",
          "name": "",
          "type": "uint256"
        }
      ],
      "name": "viewersByRecord",
      "outputs": [
        {
          "internalType": "bytes32",
          "name": "",
          "type": "bytes32"
        }
      ],
      "stateMutability": "view",
      "type": "function"
    },
    {
      "inputs": [
        {
          "internalType": "string",
          "name": "recordId",
          "type": "string"
        }
      ],
      "name": "voluntarilyLeaveOwnership",
      "outputs": [],
      "stateMutability": "nonpayable",
      "type": "function"
    },
    {
      "inputs": [
        {
          "internalType": "address",
          "name": "",
          "type": "address"
        }
      ],
      "name": "wallets",
      "outputs": [
        {
          "internalType": "bytes32",
          "name": "userIdHash",
          "type": "bytes32"
        },
        {
          "internalType": "bool",
          "name": "isWalletActive",
          "type": "bool"
        }
      ],
      "stateMutability": "view",
      "type": "function"
    }
  ],
  "bytecode": "0x60a08060405234620000d157306080527ff0c57e16840df040f15088dc2f81fe391c3923bec73e23a9662efc9c229c6a009081549060ff8260401c16620000c257506001600160401b036002600160401b0319828216016200007c575b6040516148489081620000d682396080518181816126c401526128110152f35b6001600160401b031990911681179091556040519081527fc7f505b2f371ae2175ee4913f4499e1f2633a7b5936321eed1cdaeb6115181d290602090a15f80806200005c565b63f92ee8a960e01b8152600490fd5b5f80fdfe6080604081815260049182361015610015575f80fd5b5f3560e01c908162b0c80914613420575080630b3ffd1d146133635780631435b558146133485780631a95aca5146132c15780631c0c18d814613091578063259ed80e1461306c578063331055921461302f5780633575c39114612d7a5780633dd1e8fc14612cf357806341d8bde314612c5357806345ecd02f14612c2e57806349df7208146129be5780634b6feb7c14611d105780634f1ef286146127c1578063510b30031461272857806352d1902d146126b1578063557ee54f14612623578063562c788e1461065b5780636544b05b14612557578063668a461e146123dd578063679084e9146123b75780636b4bed9714610380578063731f21a014611f6e57806374926cda14611dac57806375829def14611d2e578063790e118c14611d105780637b657d0714611cd35780638129fc1c14611bb657806389b08f1114611b715780639443cd8014611b2b57806396207e02146119ed578063970ee5b9146119b95780639915b91f1461192f5780639be572f614610fca5780639f4216e8146118e3578063a0ca13c3146118c8578063a5c3dc3c1461176e578063ab48384a14611640578063ad3cb1cc146115fc578063b55aefcc146115c8578063b8cab84b146114ed578063bb0f86d514611436578063bb20b17214610fe8578063bff1f9e114610fca578063c0f0ed7e14610f6b578063c715582314610eef578063c979c9bf14610d8b578063cabdd23f14610d70578063cb261a0314610d4b578063cda06c6e14610d24578063d12a776814610c75578063daa9dc2314610703578063e2842d7914610683578063e94ed2571461065b578063e965bfb714610605578063eb2bbf25146105dc578063ed8d7b3714610409578063ee4e5828146103b1578063f29e007b14610380578063f3ac2bea1461035c578063f851a440146103355763fa7a6bcc146102c8575f80fd5b34610331576102d63661376a565b905f52600a602052815f20908154811015610331576102f491613895565b92909261031f575061030861031b9261360b565b90519182916020835260208301906136ce565b0390f35b5f90634e487b7160e01b82525260245ffd5b5f80fd5b5034610331575f366003190112610331575f5490516001600160a01b039091168152602090f35b50346103315760209061037761037136613816565b906144b9565b90519015158152f35b503461033157602036600319011261033157602091355f52600282526103af60ff825f20541691518092613847565bf35b5034610331576020906103cc6103c636613816565b90614358565b5f526006825261031b815f209180516103e48161346a565b60ff60016103f18661360b565b958684520154161515948591015251928392836136f3565b5034610331576020806003193601126103315782356001600160401b03811161033157610439903690850161351a565b61044581511515613a4f565b335f5260018252825f20549361046361045c613cd0565b8684614393565b1561058d5783516104a184600185519382818189019661048481838a6136ad565b8101600781520301902054119287518093819288519283916136ad565b810160088152030190205415158115610585575b5015610528575090610520826104ec867f3bb3693064733b9a7d6d41bee69f302fcbefbe827ea4011400530c9ba9cb49c395614358565b6104fe6104f7613cd0565b88846143f1565b5f52600683526001855f200160ff198154169055600d83525f85812055613d3c565b9251428152a3005b835162461bcd60e51b8152908101839052603160248201527f43616e6e6f74206c65617665206173206c617374206f776e65722077697468206044820152706e6f2061646d696e6973747261746f727360781b6064820152608490fd5b90505f6104b5565b835162461bcd60e51b8152908101839052602360248201527f596f7520617265206e6f7420616e206f776e6572206f662074686973207265636044820152621bdc9960ea1b6064820152608490fd5b50346103315761031b906105f86105f236613538565b90613e89565b92909151928392836136f3565b50346103315760209061062e61061a36613816565b9390818451938285809451938492016136ad565b8101600881520301902080548310156103315760209261064d91613895565b91905490519160031b1c8152f35b5034610331575f36600319011261033157600c5490516001600160a01b039091168152602090f35b5034610331575f366003190112610331578051908183548082526020809201945f527f8a35acfbc15ff81a39ae7d344fd709f28e8600b4aa8c65c6b64bfe7fe36bd19b915f905b8282106106ec5761031b86866106e2828b03836134b4565b5191829182613579565b8354875295860195600193840193909101906106ca565b5090346103315761071336613713565b93919061072761072233613f0b565b6139d5565b61073382511515613a4f565b6001600160a01b031693610748851515613be0565b61075961075482613fcc565b613ae0565b335f5260209160018352835f2054955f52835f20549461077a861515613c2c565b8251848401209361078b8784614358565b805f52600682526107a460ff6001895f20015416613c78565b5f52600681526107b5865f2061360b565b94855182870120818114610c32576107cb613cd0565b8381519101208114610bbd578751918551928481818901956107ee8183896136ad565b810160078152030190205415918b831561082361081361080c613cd0565b848c614393565b9261081c613cf1565b908b614393565b9061082c613cd0565b8051908901208503610a0757156109aa575015610969575b61084c613cf1565b858151910120149081610952575b506108b1575b50505050906108ac61089f8361089a89858a7fea2c9ebe68919ddf880b3221d8d508d908163d0973e8b79df108f5d110d0c633999861412b565b613d3c565b9451928392429184613e2f565b0390a4005b6108bc575b80610860565b6108d38260019289518093819289519283916136ad565b810160088152030190205411156108ea57806108b6565b855162461bcd60e51b815291820152603960248201527f43616e6e6f742064656d6f746520746865206c6173742061646d696e6973747260448201527f61746f72207768656e206e6f206f776e65722065786973747300000000000000606482015260849150fd5b905061095c613d1a565b848151910120145f61085a565b60648686808d519262461bcd60e51b845283015260248201527f4f6e6c79206f776e6572732063616e2070726f6d6f746520746f206f776e65726044820152fd5b905061084457895162461bcd60e51b8152808701869052602b60248201527f4f6e6c792061646d696e6973747261746f72732063616e2070726f6d6f74652060448201526a3334b939ba1037bbb732b960a91b6064820152608490fd5b610a0f613cf1565b8051908901208503610a9957508115610a91575b5061084457895162461bcd60e51b8152808701869052603b60248201527f4f6e6c79206f776e65727320616e642061646d696e6973747261746f7273206360448201527f616e2070726f6d6f746520746f2061646d696e6973747261746f7200000000006064820152608490fd5b90505f610a23565b610aa1613d1a565b8881519101208514610ab6575b505050610844565b15610b63578115610b4c575b5015610ad1575b5f8080610aae565b895162461bcd60e51b8152808701869052604960248201527f4f6e6c79206f776e6572732063616e2064656d6f7465206f74686572732e204160448201527f646d696e6973747261746f72732063616e206f6e6c792064656d6f746520746860648201526832b6b9b2b63b32b99760b91b608482015260a490fd5b905080610b5a575b5f610ac2565b508a8c14610b54565b9050610ac957895162461bcd60e51b8152808701869052602860248201527f4f6e6c792061646d696e6973747261746f72732063616e2064656d6f7465207460448201526737903b34b2bbb2b960c11b6064820152608490fd5b875162461bcd60e51b8152808501849052604360248201527f4f776e6572732063616e6e6f742062652064656d6f7465642e204f776e65722060448201527f6d75737420766f6c756e746172696c792072656d6f7665207468656d73656c7660648201526232b99760e91b608482015260a490fd5b875162461bcd60e51b8152808501849052601c60248201527f54617267657420616c726561647920686173207468697320726f6c65000000006044820152606490fd5b5090346103315760209081600319360112610331578290355f5260038252805f208151928381835491828152019081935f52825f20905f5b818110610d075750505084610cc39103856134b4565b825181815293518185018190528493840192915f5b828110610ce757505050500390f35b83516001600160a01b031685528695509381019392810192600101610cd8565b82546001600160a01b031684529284019260019283019201610cad565b503461033157602036600319011261033157602091355f52600d8252805f20549051908152f35b503461033157602036600319011261033157602090610377610d6b613454565b6145ac565b503461033157602090610377610d8536613713565b91613e5d565b503461033157610d9a3661376a565b91610da761072233613f0b565b335f5260209060018252805f2054948386148015610ee6575b15610ea657835f52600e8352815f20855f52835260ff825f20541681811015610e935760028114908115610e88575b5015610e3d5750907f6df3a6475fab2eed139f7e469995b04e85bfc5b4b8642587109cb72541f74fae91835f52600e8252805f20855f528252805f20600360ff1982541617905551428152a4005b82608492519162461bcd60e51b8352820152602160248201527f4e6f20616374697665206f722070656e64696e672072656c6174696f6e7368696044820152600760fc1b6064820152fd5b60019150145f610def565b602182634e487b7160e01b5f525260245ffd5b8280606493519262461bcd60e51b845283015260248201527f4e6f74206120706172747920746f20746869732072656c6174696f6e736869706044820152fd5b50848614610dc0565b5034610331576020366003190112610331577fce59ad7d6dabe8a7533ed7d9bd07d276a046ac7ac9a8e8e8971da4b81104a28b6020610f2c613454565b5f546001600160a01b039190610f459083163314613915565b1692610f52841515613d5c565b600c80546001600160a01b0319168517905551428152a2005b503461033157610fc890610f7e366138be565b919092610f8d61072233613f0b565b610f9a8251845114613deb565b335f9081526001602052818120546001600160a01b039095168152205490610fc3821515613c2c565b6142e3565b005b5034610331575f366003190112610331576020906005549051908152f35b50903461033157610ff836613713565b91929061100761072233613f0b565b61101384511515613a4f565b6001600160a01b031692611028841515613be0565b61103461075484613fcc565b335f5260209160018352855f2054945f52855f205492611055841515613c2c565b8451818601206110658785614358565b5f526006825260ff6001895f20015416156113f55787518281865161108d8183858b016136ad565b81016007815203019020541515906110ad6110a6613cd0565b8987614393565b916110c06110b9613cf1565b8a88614393565b916110cb8a886144b9565b906110d4613cd0565b8051908701208103611212575050156111b8575015611176575b6110f88484614358565b5f526006815260ff6001885f20015416611118575050610fc8945061412b565b865162461bcd60e51b815291820152603360248201527f54617267657420616c726561647920686173206120726f6c652e2055736520636044820152721a185b99d9549bdb194a0a481a5b9cdd195859606a1b606482015260849150fd5b865162461bcd60e51b815291820181905260248201527f4f6e6c79206f776e6572732063616e206772616e74206f776e657220726f6c65604482015260649150fd5b90506110ee57865162461bcd60e51b815291820152602960248201527f4f6e6c792061646d696e6973747261746f72732063616e206772616e742066696044820152683939ba1037bbb732b960b91b606482015260849150fd5b90915061121d613cf1565b80519086012081036112a7575050811561129f575b506110ee57865162461bcd60e51b815291820152603b60248201527f4f6e6c79206f776e65727320616e642061646d696e6973747261746f7273206360448201527f616e206772616e742061646d696e6973747261746f7220726f6c650000000000606482015260849150fd5b90505f611232565b6112b2939193613d1a565b858151910120146112c6575b5050506110ee565b801590816113ee575b80156113e7575b1561137e5782611376575b508161136d575b506112f6575b5f80806112be565b6113008684614555565b516112ee57865162461bcd60e51b815291820152603c60248201527f5375626a656374206d757374206861766520616e2061637469766520726f6c6560448201527f20746f206772616e7420766965776572207065726d697373696f6e7300000000606482015260849150fd5b9050155f6112e8565b91505f6112e1565b895162461bcd60e51b8152808601859052603e60248201527f4f6e6c79206f776e6572732c2061646d696e6973747261746f72732c206f722060448201527f7375626a656374732063616e206772616e742076696577657220726f6c6500006064820152608490fd5b50826112d6565b50816112cf565b60648383808b519262461bcd60e51b845283015260248201527f596f752068617665206e6f20726f6c6520666f722074686973207265636f72646044820152fd5b50903461033157602036600319011261033157611451613454565b5f546001600160a01b03919061146a9083163314613915565b16805f5260019182602052611483845f2054151561394e565b815f528260205260ff83855f200154166114b257509181925f52816020525f20019060ff198254161790555f80f35b606490602085519162461bcd60e51b8352820152601560248201527457616c6c657420616c72656164792061637469766560581b6044820152fd5b503461033157602090816003193601126103315782359161151061072233613f0b565b335f5260018152815f205493835f52600e8252825f20855f528252825f209081549060ff821681811015610e935760010361158f57509161158760ff9260027fc5b2e1bd4433eb4e9e181cc803520513d39d918c96bddeebca1224e1c750963d969585191617809155845193849160081c16613868565b4290820152a3005b845162461bcd60e51b81529081018490526013602482015272139bc81c195b991a5b99c81c1c9bdc1bdcd85b606a1b6044820152606490fd5b5034610331576020906115dd61061a36613816565b8101600981520301902080548310156103315760209261064d91613895565b5034610331575f36600319011261033157805161031b9161161c8261346a565b60058252640352e302e360dc1b6020830152519182916020835260208301906136ce565b50903461033157611650366135b4565b91909261165f61072233613f0b565b335f526001602052805f205492835f52600e602052815f20855f52602052815f20805460ff81168581101561175b579061169d600260ff9314613b80565b60081c1693600383101561174857600385101561174857828514611705575091611587826116ef7fb36ec3c738ef8ecd9180addc815304762374b76e91c2a321831d9906ea119ade9694606096613a30565b6116fb83518095613868565b6020840190613868565b606490602085519162461bcd60e51b8352820152601860248201527f416c72656164792074686973207472757374206c6576656c00000000000000006044820152fd5b602190634e487b7160e01b5f525260245ffd5b602186634e487b7160e01b5f525260245ffd5b50346103315761177d366138be565b61178961072233613f0b565b6117968351825114613deb565b335f5260019384936020906001602052825f20549460018060a01b03165f52825f2054936117c5851515613c2c565b5f965b6117ce57005b8151871015610fc85787876117ed6117e7839a85613bcc565b51613fcc565b156118c357611806886118008387613bcc565b51613f01565b156118c357611819876118008387613bcc565b156118c3576118328761182c8387613bcc565b51614358565b5f52600685528787611845885f2061360b565b61186683611853868a613bcc565b518461185f888b613bcc565b519161412b565b7fea2c9ebe68919ddf880b3221d8d508d908163d0973e8b79df108f5d110d0c6336118918589613bcc565b51916118a76118a0878a613bcc565b5193613d3c565b926118b88c51928392429184613e2f565b0390a45b01966117c8565b6118bc565b5034610331576020906103776118dd36613538565b90613d9a565b50346103315760203660031901126103315781358254811015610331576020925f527f8a35acfbc15ff81a39ae7d344fd709f28e8600b4aa8c65c6b64bfe7fe36bd19b01549051908152f35b50346103315761193e3661376a565b905f52600e602052815f20905f52602052805f209080519161195f8361346a565b549161196e60ff841682613a18565b61198260ff602083019460081c1684613a24565b5191838310156119a65751926003841015611748575061031b905192839283613875565b602184634e487b7160e01b5f525260245ffd5b5034610331576020906119ce61061a36613816565b8101600781520301902080548310156103315760209261064d91613895565b5034610331578060031936011261033157813590602435600581101561033157611a2160018060a01b035f54163314613915565b825f5260206002815260ff835f205416600581101561175b5715611af357835f526002815260ff835f20541694600586101561174857828614611abc575090611a8f91845f5260028152835f2060ff1981541660ff8416179055611a8784518097613847565b850190613847565b42908301527ff6277c6ee46649823db9a5c531db3112b4340c67179cae1932ba3420dcc37cc760603393a3005b60649184519162461bcd60e51b83528201526013602482015272416c726561647920746869732073746174757360681b6044820152fd5b8460649184519162461bcd60e51b83528201526013602482015272155cd95c881b9bdd081c9959da5cdd195c9959606a1b6044820152fd5b503461033157611b3a3661376a565b91905f526003602052805f20805483101561033157602092611b5b91613895565b60018060a01b0391549060031b1c169051908152f35b5034610331576020366003190112610331576001600160a01b03611b93613454565b165f526001602052805f2060ff6001825492015416825191825215156020820152f35b509034610331575f366003190112610331577ff0c57e16840df040f15088dc2f81fe391c3923bec73e23a9662efc9c229c6a0090815460ff81851c1615916001600160401b03821680159081611ccb575b6001149081611cc1575b159081611cb8575b50611caa575067ffffffffffffffff198116600117835581611c8b575b505f80546001600160a01b03191633179055611c4e57005b805468ff00000000000000001916905551600181527fc7f505b2f371ae2175ee4913f4499e1f2633a7b5936321eed1cdaeb6115181d290602090a1005b68ffffffffffffffffff1916680100000000000000011782555f611c36565b845163f92ee8a960e01b8152fd5b9050155f611c19565b303b159150611c11565b849150611c07565b50346103315761031b90611ce63661376a565b905f52600e602052815f20905f52602052805f20549051918160ff80859460081c16911683613875565b5034610331575f36600319011261033157602090600b549051908152f35b503461033157602036600319011261033157602090611d4b613454565b5f5491906001600160a01b03808416917f38df5fa0f7fef0d515ca1f5388cb5790ac5885d5fca8d05d9f943e563c33a4b39190611d89338514613915565b16948593611d98851515613d5c565b51428152a36001600160a01b031916175f55005b50903461033157816003193601126103315780356001600160401b03811161033157611ddb9036908301613797565b906024356001600160a01b038116919082900361033157611dfe61072233613f0b565b8115611f3a5750335f52600192839260209060018252825f2054935f52825f205492611e2b841515613c2c565b5f955b611e3457005b8151861015610fc8578686611e4e86611800849a87613bcc565b15611f3557611e61876118008387613bcc565b15611f35578686611e768161182c8589613bcc565b805f526006808952611e89875f2061360b565b9182518a840120611e98613cd0565b8b815191012014611f2b57611eb88385611eb2898d613bcc565b516143f1565b5f52885284865f200160ff198154169055600d88525f868120557f938e21a28464db5f9b9e24d1a58e038899de364f69dba20c154ee6fd4cd86def611f1b611f09611f03878b613bcc565b51613d3c565b9288519182918a83528a8301906136ce565b428c8301520390a45b0195611e2e565b5050505050611f24565b611f24565b606490602085519162461bcd60e51b8352820152600e60248201526d125b9d985b1a59081dd85b1b195d60921b6044820152fd5b503461033157611f7d36613538565b611f8b829392511515613a4f565b6001600160a01b031692611fa0841515613be0565b335f5260209160018352805f2054945f52805f205493611fc1851515613c2c565b611fcb8582614358565b805f5260068552611fe460ff6001855f20015416613c78565b805f5260068552611ff6835f2061360b565b93845186860120612005613cd0565b878151910120811461234057878903612165575b612021613cf1565b878151910120146120a2575b50816120839161206186897f938e21a28464db5f9b9e24d1a58e038899de364f69dba20c154ee6fd4cd86def9897966143f1565b5f52600686526001835f200160ff198154169055600d86525f83812055613d3c565b9361209782519383859485528401906136ce565b9042908301520390a4005b83516120db8760018651938281818a01966120be81838a6136ad565b8101600881520301902054119287518093819289519283916136ad565b81016007815203019020541515811561215d575b5061202d57835162461bcd60e51b8152908101869052603960248201527f43616e6e6f74207265766f6b65206c6173742061646d696e6973747261746f7260448201527f20776974686f757420616e206f776e65722070726573656e74000000000000006064820152608490fd5b90505f6120ef565b612177612170613cd0565b8a86614393565b612189612182613cf1565b8b87614393565b845f52600d89528a875f2054149061219f613d1a565b8051908b0120840361223f578215612237575b50811561222f575b50156121c6575b612019565b845162461bcd60e51b8152808301889052603e60248201527f4f6e6c79206f776e6572732c2061646d696e6973747261746f72732c206f722060448201527f746865206772616e7465722063616e207265766f6b65207669657765727300006064820152608490fd5b90505f6121ba565b91505f6121b2565b821592915082612338575b50156122dd57156120195761225d613cf1565b87815191012081036121c15784518781865161227c8183858b016136ad565b8101600781520301902054156121c157845162461bcd60e51b8152808301889052602560248201527f4f6e6c79206f776e6572732063616e207265766f6b652061646d696e6973747260448201526461746f727360d81b6064820152608490fd5b855162461bcd60e51b8152808401899052602f60248201527f4f6e6c79206f776e65727320616e642061646d696e6973747261746f7273206360448201526e616e207265766f6b6520726f6c657360881b6064820152608490fd5b90505f61224a565b845162461bcd60e51b8152808301889052604560248201527f4f776e6572732063616e6e6f74206265207265766f6b65642e204f776e65722060448201527f6d7573742075736520766f6c756e746172696c794c656176654f776e6572736860648201526434b814149760d91b608482015260a490fd5b5034610331576020906123cc6103c636613816565b5f52600d8252805f20549051908152f35b503461033157806003193601126103315781356001600160401b0381116103315761240b9036908401613797565b90602480359261241d61072233613f0b565b335f52600194602060018152845f205493865f52600e8252855f20855f528252855f209186519261244d8461346a565b549261245c60ff851682613a18565b61246f60ff8383019560081c1685613a24565b51848110156125445760026124849114613b80565b845161249b61249282613780565b985198896134b4565b8088526124aa601f1991613780565b015f5b81811061253557505050875f905b6124cc575b610fc8888888886142e3565b8451811015612530576124df8186613bcc565b51835190600382101561251e57916124fe8b96959493928b889461428d565b612508828b613bcc565b52612513818a613bcc565b5001909192936124bb565b83602187634e487b7160e01b5f52525ffd5b6124c0565b606089820184015282016124ad565b602185634e487b7160e01b5f525260245ffd5b509034610331576020908160031936011261033157355f52600a8152815f2080549161258283613780565b9261258f855194856134b4565b80845281840180935f52825f205f915b83831061260157505050508351928184019082855251809152848401948160051b85010192915f955b8287106125d55785850386f35b9091929382806125f1600193603f198a820301865288516136ce565b96019201960195929190926125c8565b6001858192612612859a989a61360b565b81520192019201919095939561259f565b5034610331576126323661376a565b905f52600e602052815f20905f52602052805f20908051916126538361346a565b549161266260ff841682613a18565b61267660ff602083019460081c1684613a24565b51838110156119a6576002149182612695575b60208383519015158152f35b909150519160038310156117485750600260209214905f612689565b5034610331575f366003190112610331577f00000000000000000000000000000000000000000000000000000000000000006001600160a01b0316300361271b57602090517f360894a13ba1a3210667c828492db98dca3e2076cc3735a920a3ca505d382bbc8152f35b5163703e46dd60e11b8152fd5b5090346103315760209081600319360112610331578035906001600160401b0382116103315761275f83916127719336910161351a565b818551938285809451938492016136ad565b8101600981520301902091805191828185549182815201945f52815f20915f905b8282106127aa5761031b86866106e2828b03836134b4565b835487529586019560019384019390910190612792565b509081600319360112610331576127d6613454565b916024356001600160401b03811161033157366023820112156103315761280690369060248186013591016134d5565b906001600160a01b037f00000000000000000000000000000000000000000000000000000000000000008116308114908115612990575b5061298057612850815f54163314613915565b8416918151946352d1902d60e01b86526020868681875afa5f968161294c575b5061288c57505051634c9c8ce360e01b81529182015260249150fd5b838593877f360894a13ba1a3210667c828492db98dca3e2076cc3735a920a3ca505d382bbc908181036129365750833b1561291f5780546001600160a01b0319168317905551907fbc7cd75a20ee27fd9adebab32041f755214dbc6bffa90cc0225b39da2e5c2d3b5f80a28251156129095750610fc89250614761565b9150503461291357005b63b398979f60e01b8152fd5b8151634c9c8ce360e01b8152808701849052602490fd5b86602491845191632a87526960e21b8352820152fd5b9096506020813d602011612978575b81612968602093836134b4565b810103126103315751955f612870565b3d915061295b565b815163703e46dd60e11b81528490fd5b9050817f360894a13ba1a3210667c828492db98dca3e2076cc3735a920a3ca505d382bbc541614155f61283d565b5090346103315781600319360112610331576129d8613454565b9160249081359360018060a01b0380916129f6825f54163314613915565b1693612a03851515613a9b565b8515612bf557845f52600193602094808652845f2054612bb357612a588551612a2b8161346a565b898152828882018181528a5f52818a52885f209251835551151591019060ff801983541691151516179055565b875f5260038652845f20938454600160401b9586821015612ba15790612a82918482018155613895565b819291549060031b918a831b921b1916179055875f526002865260ff855f2054166005811015612b8f57612b6157875f5260028652845f20600260ff19825416179055825493841015612b4e578301808355831015612b3c57507f39d132591ee0696de49ab564e4a90e430c006561917db731a2a614dd2d24559193929186915f527f8a35acfbc15ff81a39ae7d344fd709f28e8600b4aa8c65c6b64bfe7fe36bd19b0155612b32600554613b5e565b60055551428152a3005b634e487b7160e01b5f90815260328352fd5b50634e487b7160e01b5f90815260418352fd5b50505050907f1cc138f50384be7770a8e4a34eecaa0d0c718bfaa1641af49db32532e4a5b9109151428152a3005b82602185634e487b7160e01b5f52525ffd5b84604187634e487b7160e01b5f52525ffd5b845162461bcd60e51b81528084018790526019818401527f57616c6c657420616c72656164792072656769737465726564000000000000006044820152606490fd5b606490601485602086519362461bcd60e51b855284015282015273092dcecc2d8d2c840eae6cae440928840d0c2e6d60631b6044820152fd5b503461033157602036600319011261033157602090610377612c4e613454565b613f0b565b5034610331576020806003193601126103315782356001600160401b03811161033157606093612c859136910161351a565b91805192612cda83825195818181860198612ca181838c6136ad565b810160078152030190205495845182818651612cbe8183876136ad565b81016008815203019020549385519384928392519283916136ad565b8101600981520301902054928251948552840152820152f35b5090346103315760209081600319360112610331578035906001600160401b0382116103315761275f8391612d2a9336910161351a565b8101600881520301902091805191828185549182815201945f52815f20915f905b828210612d635761031b86866106e2828b03836134b4565b835487529586019560019384019390910190612d4b565b50903461033157612d8a36613713565b9092919360018060a01b03612da3815f54163314613915565b612daf86511515613a4f565b8416612dbc811515613a9b565b612dc861075484613fcc565b5f5260209260018452612de4825f205495612c4e87151561394e565b15612fee578151848751918181818b0194612e008183886136ad565b8101600781520301902054159182612fc6575b505015612f8557612e248587614358565b805f5260068552825f2090612e388261360b565b9060ff60018351159401541690612e898651612e538161346a565b88815260018a8201818152845f5260068c52612e738a5f20935184614024565b51151591019060ff801983541691151516179055565b5f52600d87525f85812055155f14612f565750612ea7848789614602565b612ec7575b50905f805160206147f3833981519152916120835f96613d3c565b94845f52600a8452815f20805490600160401b821015612f435781612ef39160015f9a94018155613895565b919091612f31575081612f195f805160206147f383398151915295949361208393614024565b612f24600b54613b5e565b600b559650509091612eac565b634e487b7160e01b885287905260245ffd5b604188634e487b7160e01b5f525260245ffd5b96939594925050508451818601209084519085012003612f7257005b612f80610fc89483836143f1565b614602565b83606492519162461bcd60e51b8352820152601a60248201527f5265636f726420616c726561647920696e697469616c697a65640000000000006044820152fd5b612fdb92508451809381928b519283916136ad565b810160088152030190205415845f612e13565b83606492519162461bcd60e51b8352820152601860248201527f4d75737420626520616e20616374697665206d656d62657200000000000000006044820152fd5b50903461033157602036600319011261033157355f526006602052805f2061031b60ff600161305d8461360b565b930154169251928392836136f3565b50346103315760203660031901126103315760209061037761308c613454565b613f76565b5034610331576130a0366135b4565b90916130ae61072233613f0b565b335f5260209160018352815f205492841561328d5784841461324b57845f526002815260ff835f20541660058110156131fd571561321057835f52600e8152825f20855f52815260ff835f205416868110156131fd5780159081156131f2575b50156131b057825161311f8161346a565b600181528181016131308482613a24565b855f52600e8352845f20875f528352845f2091518881101561319d5760ff801984541691161782555196600388101561174857507f494d010fdf588a0e83d626ea6963187bdda6f88b7007f7bf280683d3f7dea83494959661319191613a30565b61158783518093613868565b602189634e487b7160e01b5f525260245ffd5b8560649184519162461bcd60e51b8352820152601760248201527f50726f706f73616c20616c7265616479206578697374730000000000000000006044820152fd5b60039150145f61310e565b602187634e487b7160e01b5f525260245ffd5b8560649184519162461bcd60e51b83528201526016602482015275151c9d5cdd1959481b9bdd081c9959da5cdd195c995960521b6044820152fd5b8560649184519162461bcd60e51b8352820152601760248201527f43616e6e6f74206170706f696e7420796f757273656c660000000000000000006044820152fd5b8560649184519162461bcd60e51b8352820152600f60248201526e496e76616c6964207472757374656560881b6044820152fd5b5090346103315760209081600319360112610331578035906001600160401b0382116103315761275f83916132f89336910161351a565b8101600781520301902091805191828185549182815201945f52815f20915f905b8282106133315761031b86866106e2828b03836134b4565b835487529586019560019384019390910190613319565b50346103315760209061037761335d36613538565b90613992565b50346103315760203660031901126103315761337d613454565b5f546001600160a01b0391906133969083163314613915565b16805f5260016020526133ad825f2054151561394e565b805f52600160205260ff6001835f20015416156133dd57600192505f52816020525f200160ff1981541690555f80f35b815162461bcd60e51b8152602081850152601760248201527f57616c6c657420616c726561647920696e6163746976650000000000000000006044820152606490fd5b905034610331576020366003190112610331576020916001600160a01b03613446613454565b165f52600183525f20548152f35b600435906001600160a01b038216820361033157565b604081019081106001600160401b0382111761348557604052565b634e487b7160e01b5f52604160045260245ffd5b602081019081106001600160401b0382111761348557604052565b90601f801991011681019081106001600160401b0382111761348557604052565b9291926001600160401b03821161348557604051916134fe601f8201601f1916602001846134b4565b829481845281830111610331578281602093845f960137010152565b9080601f8301121561033157816020613535933591016134d5565b90565b604060031982011261033157600435906001600160401b038211610331576135629160040161351a565b906024356001600160a01b03811681036103315790565b60209060206040818301928281528551809452019301915f5b8281106135a0575050505090565b835185529381019392810192600101613592565b6040906003190112610331576004359060243560038110156103315790565b90600182811c92168015613601575b60208310146135ed57565b634e487b7160e01b5f52602260045260245ffd5b91607f16916135e2565b9060405191825f825461361d816135d3565b908184526020946001916001811690815f1461368b575060011461364d575b50505061364b925003836134b4565b565b5f90815285812095935091905b81831061367357505061364b93508201015f808061363c565b8554888401850152948501948794509183019161365a565b9250505061364b94925060ff191682840152151560051b8201015f808061363c565b5f5b8381106136be5750505f910152565b81810151838201526020016136af565b906020916136e7815180928185528580860191016136ad565b601f01601f1916010190565b9061370b6020919493946040845260408401906136ce565b931515910152565b6060600319820112610331576001600160401b0391600435838111610331578261373f9160040161351a565b926024356001600160a01b03811681036103315792604435918211610331576135359160040161351a565b6040906003190112610331576004359060243590565b6001600160401b0381116134855760051b60200190565b81601f82011215610331578035916020916137b184613780565b936137bf60405195866134b4565b808552838086019160051b8301019280841161033157848301915b8483106137ea5750505050505090565b82356001600160401b03811161033157869161380b8484809489010161351a565b8152019201916137da565b604060031982011261033157600435906001600160401b038211610331576138409160040161351a565b9060243590565b9060058210156138545752565b634e487b7160e01b5f52602160045260245ffd5b9060038210156138545752565b9092916040820193600481101561385457825261364b9160200190613868565b80548210156138aa575f5260205f2001905f90565b634e487b7160e01b5f52603260045260245ffd5b6060600319820112610331576001600160401b039160043583811161033157826138ea91600401613797565b926024356001600160a01b038116810361033157926044359182116103315761353591600401613797565b1561391c57565b60405162461bcd60e51b815260206004820152600a60248201526927b7363c9030b236b4b760b11b6044820152606490fd5b1561395557565b60405162461bcd60e51b815260206004820152601560248201527415d85b1b195d081b9bdd081c9959da5cdd195c9959605a1b6044820152606490fd5b6001600160a01b039091165f9081526001602052604090205480156139cf576139ba91614358565b5f52600660205260ff600160405f2001541690565b50505f90565b156139dc57565b60405162461bcd60e51b81526020600482015260146024820152732737ba1030b71030b1ba34bb329036b2b6b132b960611b6044820152606490fd5b60048210156138545752565b60038210156138545752565b9060038110156138545761ff0082549160081b169061ff001916179055565b15613a5657565b60405162461bcd60e51b815260206004820152601960248201527f5265636f72642049442063616e6e6f7420626520656d707479000000000000006044820152606490fd5b15613aa257565b60405162461bcd60e51b8152602060048201526016602482015275496e76616c69642077616c6c6574206164647265737360501b6044820152606490fd5b15613ae757565b60405162461bcd60e51b8152602060048201526013602482015272496e76616c696420726f6c6520737472696e6760681b6044820152606490fd5b805490600160401b8210156134855781613b44916001613b5a94018155613895565b819391549060031b91821b915f19901b19161790565b9055565b5f198114613b6c5760010190565b634e487b7160e01b5f52601160045260245ffd5b15613b8757565b60405162461bcd60e51b815260206004820152601e60248201527f4e6f2061637469766520747275737465652072656c6174696f6e7368697000006044820152606490fd5b80518210156138aa5760209160051b010190565b15613be757565b60405162461bcd60e51b815260206004820152601d60248201527f57616c6c657420616464726573732063616e6e6f74206265207a65726f0000006044820152606490fd5b15613c3357565b60405162461bcd60e51b815260206004820152601c60248201527f5461726765742077616c6c6574206e6f742072656769737465726564000000006044820152606490fd5b15613c7f57565b60405162461bcd60e51b815260206004820152602360248201527f54617267657420646f6573206e6f74206861766520616e2061637469766520726044820152626f6c6560e81b6064820152608490fd5b60405190613cdd8261346a565b600582526437bbb732b960d91b6020830152565b60405190613cfe8261346a565b600d82526c30b236b4b734b9ba3930ba37b960991b6020830152565b60405190613d278261346a565b60068252653b34b2bbb2b960d11b6020830152565b613d54906020604051928284809451938492016136ad565b810103902090565b15613d6357565b60405162461bcd60e51b815260206004820152600f60248201526e496e76616c6964206164647265737360881b6044820152606490fd5b6001600160a01b039091165f908152600160205260409020549081156139cf57613dcc613dc5613cd0565b8383614393565b918215613dd857505090565b6135359250613de5613cf1565b91614393565b15613df257565b60405162461bcd60e51b8152602060048201526015602482015274082e4e4c2f240d8cadccee8d040dad2e6dac2e8c6d605b1b6044820152606490fd5b939291613e5890613e4a6040936060885260608801906136ce565b9086820360208801526136ce565b930152565b919060018060a01b03165f52600160205260405f20548015613e825761353592614393565b5050505f90565b6001600160a01b039091165f90815260016020526040902054908115613eeb5760209291613eb691614358565b5f526006825260405f20604051613ecc8161346a565b60ff6001613ed98461360b565b93848452015416151593849101529190565b5050604051613ef981613499565b5f8152905f90565b906139ba91614358565b6001600160a01b03165f9081526001602052604090208054908115908115613f66575b50613f61575f52600260205260ff60405f20541660058110156138545760018114159081613f5a575090565b9050151590565b505f90565b60ff91506001015416155f613f2e565b6001600160a01b03165f9081526001602052604090208054908115908115613fbc575b50613f61575f52600260205260ff60405f20541660058110156138545760041490565b60ff91506001015416155f613f99565b60208151910120613fdb613cd0565b60208151910120811490811561400b575b8115613ff6575090565b9050614000613d1a565b602081519101201490565b9050614015613cf1565b60208151910120811490613fec565b91909182516001600160401b0381116134855761404182546135d3565b601f81116140e6575b50602080601f83116001146140855750819293945f9261407a575b50508160011b915f199060031b1c1916179055565b015190505f80614065565b90601f19831695845f5260205f20925f905b8882106140ce575050836001959697106140b6575b505050811b019055565b01515f1960f88460031b161c191690555f80806140ac565b80600185968294968601518155019501930190614097565b825f5260205f20601f830160051c81019160208410614121575b601f0160051c01905b818110614116575061404a565b5f8155600101614109565b9091508190614100565b9190916141388382614358565b91825f5260209260068452604090815f20906141538261360b565b9060ff6001835115940154169061418e855161416e8161346a565b87815260018a8201818152845f5260068c52612e73895f20935184614024565b5f52600d875288845f2055155f1461425757506141ac838786614602565b6141e7575b6141c85f805160206147f383398151915293613d3c565b936141dc82519383859485528401906136ce565b9042908301520390a4565b845f52600a8452805f208054600160401b8110156134855761420e91600182018155613895565b614244578361422e5f805160206147f3833981519152956141c893614024565b614239600b54613b5e565b600b559350506141b1565b634e487b7160e01b5f525f60045260245ffd5b9650505092918451818601209084519085012003614276575b50505050565b612f806142849483836143f1565b5f808080614270565b60038310156138545782156142d8576001916142a891614555565b91146142b15790565b805160208201206142c0613cd0565b60208151910120146142cf5790565b50613535613cf1565b505050613535613d1a565b9392935f5b815181101561435057806143016117e760019387613bcc565b1561434b57614314876118008386613bcc565b1561434b57614327846118008386613bcc565b61434b57614345876143398386613bcc565b518661185f858a613bcc565b016142e8565b614345565b505050509050565b9061438d604080518093602061437781840197888151938492016136ad565b82019060208201520360208101845201826134b4565b51902090565b602092916143a091614358565b5f526006825260405f206040516143b68161346a565b60ff60016143c38461360b565b9384845201541615159384910152826143db57505090565b9091506020815191012090602081519101201490565b8251602080940120614401613cd0565b80519085012081036144385750826144299161364b94604051938285809451938492016136ad565b810160078152030190206146ca565b614440613cf1565b80519085012081036144775750826144689161364b94604051938285809451938492016136ad565b810160088152030190206146ca565b61447f613d1a565b8481519101201461448f57505050565b826144aa9161364b94604051938285809451938492016136ad565b810160098152030190206146ca565b600c546001600160a01b0316908115613e82576020916144f7916040518095819482936379d615f560e11b84526040600485015260448401906136ce565b90602483015203915afa90811561454a575f91614512575090565b90506020813d602011614542575b8161452d602093836134b4565b81010312610331575180151581036103315790565b3d9150614520565b6040513d5f823e3d90fd5b9061455f91614358565b5f52600660205260405f2060ff60016040519261457b8461346a565b6145848161360b565b84520154161580156020830152614599575190565b506040516145a681613499565b5f815290565b6001600160a01b03165f90815260016020526040902080549081159081156145f2575b50613f61575f52600260205260ff60405f20541660058110156138545760031490565b60ff91506001015416155f6145cf565b8251602080940120614612613cd0565b805190850120810361464957508261463a9161364b94604051938285809451938492016136ad565b81016007815203019020613b22565b614651613cf1565b80519085012081036146885750826146799161364b94604051938285809451938492016136ad565b81016008815203019020613b22565b614690613d1a565b848151910120146146a057505050565b826146bb9161364b94604051938285809451938492016136ad565b81016009815203019020613b22565b5f5b815490818110156142705783916146e38285613895565b959054600396871b1c146146fd57509092506001016146cc565b5f199250828101908111613b6c57613b4461471b6147289286613895565b905490871b1c9285613895565b90558154801561474d5781019261473f8484613895565b81939154921b1b1916905555565b634e487b7160e01b5f52603160045260245ffd5b905f8091602081519101845af480806147df575b156147955750506040513d81523d5f602083013e60203d82010160405290565b156147bc57604051639996b31560e01b81526001600160a01b039091166004820152602490fd5b3d156147cd576040513d5f823e3d90fd5b60405163d6bda27560e01b8152600490fd5b503d1515806147755750813b151561477556fe2a27f0a20e4df4738f3a8e2449b014d439e7ce0a97ee5860771c25cbafa1cfeba26469706673582212208d7c9b519d93fd505306ccfa0752b1ed7d223228c3b7031e8ee98698ff8153a864736f6c63430008180033",
  "linkReferences": {},
  "deployedLinkReferences": {}
}