{
  "_format": "hh-sol-artifact-1",
  "contractName": "MemberRoleManager",
  "sourceName": "smartContracts/MemberRoleManager.sol",
  "abi": [
    {
      "inputs": [],
      "stateMutability": "nonpayable",
      "type": "constructor"
    },
    {
      "inputs": [
        {
          "internalType": "address",
          "name": "target",
          "type": "address"
        }
      ],
      "name": "AddressEmptyCode",
      "type": "error"
    },
    {
      "inputs": [
        {
          "internalType": "address",
          "name": "implementation",
          "type": "address"
        }
      ],
      "name": "ERC1967InvalidImplementation",
      "type": "error"
    },
    {
      "inputs": [],
      "name": "ERC1967NonPayable",
      "type": "error"
    },
    {
      "inputs": [],
      "name": "FailedCall",
      "type": "error"
    },
    {
      "inputs": [],
      "name": "InvalidInitialization",
      "type": "error"
    },
    {
      "inputs": [],
      "name": "NotInitializing",
      "type": "error"
    },
    {
      "inputs": [],
      "name": "UUPSUnauthorizedCallContext",
      "type": "error"
    },
    {
      "inputs": [
        {
          "internalType": "bytes32",
          "name": "slot",
          "type": "bytes32"
        }
      ],
      "name": "UUPSUnsupportedProxiableUUID",
      "type": "error"
    },
    {
      "anonymous": false,
      "inputs": [
        {
          "indexed": true,
          "internalType": "address",
          "name": "oldAdmin",
          "type": "address"
        },
        {
          "indexed": true,
          "internalType": "address",
          "name": "newAdmin",
          "type": "address"
        },
        {
          "indexed": false,
          "internalType": "uint256",
          "name": "timestamp",
          "type": "uint256"
        }
      ],
      "name": "AdminTransferred",
      "type": "event"
    },
    {
      "anonymous": false,
      "inputs": [
        {
          "indexed": true,
          "internalType": "bytes32",
          "name": "recordIdHash",
          "type": "bytes32"
        },
        {
          "indexed": true,
          "internalType": "bytes32",
          "name": "grantedByIdHash",
          "type": "bytes32"
        },
        {
          "indexed": true,
          "internalType": "bytes32",
          "name": "guestIdHash",
          "type": "bytes32"
        },
        {
          "indexed": false,
          "internalType": "bytes32",
          "name": "guestEmailHash",
          "type": "bytes32"
        },
        {
          "indexed": false,
          "internalType": "uint256",
          "name": "expiresAt",
          "type": "uint256"
        },
        {
          "indexed": false,
          "internalType": "uint256",
          "name": "timestamp",
          "type": "uint256"
        }
      ],
      "name": "GuestAccessGranted",
      "type": "event"
    },
    {
      "anonymous": false,
      "inputs": [
        {
          "indexed": true,
          "internalType": "bytes32",
          "name": "recordIdHash",
          "type": "bytes32"
        },
        {
          "indexed": true,
          "internalType": "bytes32",
          "name": "revokedByIdHash",
          "type": "bytes32"
        },
        {
          "indexed": true,
          "internalType": "bytes32",
          "name": "guestIdHash",
          "type": "bytes32"
        },
        {
          "indexed": false,
          "internalType": "uint256",
          "name": "timestamp",
          "type": "uint256"
        }
      ],
      "name": "GuestAccessRevoked",
      "type": "event"
    },
    {
      "anonymous": false,
      "inputs": [
        {
          "indexed": true,
          "internalType": "address",
          "name": "newAddress",
          "type": "address"
        },
        {
          "indexed": false,
          "internalType": "uint256",
          "name": "timestamp",
          "type": "uint256"
        }
      ],
      "name": "HealthRecordCoreUpdated",
      "type": "event"
    },
    {
      "anonymous": false,
      "inputs": [
        {
          "indexed": false,
          "internalType": "uint64",
          "name": "version",
          "type": "uint64"
        }
      ],
      "name": "Initialized",
      "type": "event"
    },
    {
      "anonymous": false,
      "inputs": [
        {
          "indexed": true,
          "internalType": "address",
          "name": "wallet",
          "type": "address"
        },
        {
          "indexed": true,
          "internalType": "bytes32",
          "name": "userIdHash",
          "type": "bytes32"
        },
        {
          "indexed": false,
          "internalType": "uint256",
          "name": "timestamp",
          "type": "uint256"
        }
      ],
      "name": "MemberRegistered",
      "type": "event"
    },
    {
      "anonymous": false,
      "inputs": [
        {
          "indexed": true,
          "internalType": "bytes32",
          "name": "userIdHash",
          "type": "bytes32"
        },
        {
          "indexed": false,
          "internalType": "enum MemberRoleManager.MemberStatus",
          "name": "oldStatus",
          "type": "uint8"
        },
        {
          "indexed": false,
          "internalType": "enum MemberRoleManager.MemberStatus",
          "name": "newStatus",
          "type": "uint8"
        },
        {
          "indexed": true,
          "internalType": "address",
          "name": "changedBy",
          "type": "address"
        },
        {
          "indexed": false,
          "internalType": "uint256",
          "name": "timestamp",
          "type": "uint256"
        }
      ],
      "name": "MemberStatusChanged",
      "type": "event"
    },
    {
      "anonymous": false,
      "inputs": [
        {
          "indexed": true,
          "internalType": "bytes32",
          "name": "recordIdHash",
          "type": "bytes32"
        },
        {
          "indexed": true,
          "internalType": "bytes32",
          "name": "userIdHash",
          "type": "bytes32"
        },
        {
          "indexed": false,
          "internalType": "uint256",
          "name": "timestamp",
          "type": "uint256"
        }
      ],
      "name": "OwnershipVoluntarilyLeft",
      "type": "event"
    },
    {
      "anonymous": false,
      "inputs": [
        {
          "indexed": true,
          "internalType": "bytes32",
          "name": "recordIdHash",
          "type": "bytes32"
        },
        {
          "indexed": true,
          "internalType": "bytes32",
          "name": "targetIdHash",
          "type": "bytes32"
        },
        {
          "indexed": false,
          "internalType": "string",
          "name": "oldRole",
          "type": "string"
        },
        {
          "indexed": false,
          "internalType": "string",
          "name": "newRole",
          "type": "string"
        },
        {
          "indexed": true,
          "internalType": "bytes32",
          "name": "userIdHash",
          "type": "bytes32"
        },
        {
          "indexed": false,
          "internalType": "uint256",
          "name": "timestamp",
          "type": "uint256"
        }
      ],
      "name": "RoleChanged",
      "type": "event"
    },
    {
      "anonymous": false,
      "inputs": [
        {
          "indexed": true,
          "internalType": "bytes32",
          "name": "recordIdHash",
          "type": "bytes32"
        },
        {
          "indexed": true,
          "internalType": "bytes32",
          "name": "targetIdHash",
          "type": "bytes32"
        },
        {
          "indexed": false,
          "internalType": "string",
          "name": "role",
          "type": "string"
        },
        {
          "indexed": true,
          "internalType": "bytes32",
          "name": "userIdHash",
          "type": "bytes32"
        },
        {
          "indexed": false,
          "internalType": "uint256",
          "name": "timestamp",
          "type": "uint256"
        }
      ],
      "name": "RoleGranted",
      "type": "event"
    },
    {
      "anonymous": false,
      "inputs": [
        {
          "indexed": true,
          "internalType": "bytes32",
          "name": "recordIdHash",
          "type": "bytes32"
        },
        {
          "indexed": true,
          "internalType": "bytes32",
          "name": "targetIdHash",
          "type": "bytes32"
        },
        {
          "indexed": false,
          "internalType": "string",
          "name": "role",
          "type": "string"
        },
        {
          "indexed": true,
          "internalType": "bytes32",
          "name": "userIdHash",
          "type": "bytes32"
        },
        {
          "indexed": false,
          "internalType": "uint256",
          "name": "timestamp",
          "type": "uint256"
        }
      ],
      "name": "RoleRevoked",
      "type": "event"
    },
    {
      "anonymous": false,
      "inputs": [
        {
          "indexed": true,
          "internalType": "bytes32",
          "name": "trustorIdHash",
          "type": "bytes32"
        },
        {
          "indexed": true,
          "internalType": "bytes32",
          "name": "trusteeIdHash",
          "type": "bytes32"
        },
        {
          "indexed": false,
          "internalType": "enum MemberRoleManager.TrusteeLevel",
          "name": "level",
          "type": "uint8"
        },
        {
          "indexed": false,
          "internalType": "uint256",
          "name": "timestamp",
          "type": "uint256"
        }
      ],
      "name": "TrusteeAccepted",
      "type": "event"
    },
    {
      "anonymous": false,
      "inputs": [
        {
          "indexed": true,
          "internalType": "bytes32",
          "name": "trustorIdHash",
          "type": "bytes32"
        },
        {
          "indexed": true,
          "internalType": "bytes32",
          "name": "trusteeIdHash",
          "type": "bytes32"
        },
        {
          "indexed": false,
          "internalType": "enum MemberRoleManager.TrusteeLevel",
          "name": "oldLevel",
          "type": "uint8"
        },
        {
          "indexed": false,
          "internalType": "enum MemberRoleManager.TrusteeLevel",
          "name": "newLevel",
          "type": "uint8"
        },
        {
          "indexed": false,
          "internalType": "uint256",
          "name": "timestamp",
          "type": "uint256"
        }
      ],
      "name": "TrusteeLevelUpdated",
      "type": "event"
    },
    {
      "anonymous": false,
      "inputs": [
        {
          "indexed": true,
          "internalType": "bytes32",
          "name": "trustorIdHash",
          "type": "bytes32"
        },
        {
          "indexed": true,
          "internalType": "bytes32",
          "name": "trusteeIdHash",
          "type": "bytes32"
        },
        {
          "indexed": false,
          "internalType": "enum MemberRoleManager.TrusteeLevel",
          "name": "level",
          "type": "uint8"
        },
        {
          "indexed": false,
          "internalType": "uint256",
          "name": "timestamp",
          "type": "uint256"
        }
      ],
      "name": "TrusteeProposed",
      "type": "event"
    },
    {
      "anonymous": false,
      "inputs": [
        {
          "indexed": true,
          "internalType": "bytes32",
          "name": "trustorIdHash",
          "type": "bytes32"
        },
        {
          "indexed": true,
          "internalType": "bytes32",
          "name": "trusteeIdHash",
          "type": "bytes32"
        },
        {
          "indexed": true,
          "internalType": "bytes32",
          "name": "revokedBy",
          "type": "bytes32"
        },
        {
          "indexed": false,
          "internalType": "uint256",
          "name": "timestamp",
          "type": "uint256"
        }
      ],
      "name": "TrusteeRevoked",
      "type": "event"
    },
    {
      "anonymous": false,
      "inputs": [
        {
          "indexed": true,
          "internalType": "address",
          "name": "implementation",
          "type": "address"
        }
      ],
      "name": "Upgraded",
      "type": "event"
    },
    {
      "anonymous": false,
      "inputs": [
        {
          "indexed": true,
          "internalType": "address",
          "name": "wallet",
          "type": "address"
        },
        {
          "indexed": true,
          "internalType": "bytes32",
          "name": "userIdHash",
          "type": "bytes32"
        },
        {
          "indexed": false,
          "internalType": "uint256",
          "name": "timestamp",
          "type": "uint256"
        }
      ],
      "name": "WalletLinked",
      "type": "event"
    },
    {
      "inputs": [],
      "name": "UPGRADE_INTERFACE_VERSION",
      "outputs": [
        {
          "internalType": "string",
          "name": "",
          "type": "string"
        }
      ],
      "stateMutability": "view",
      "type": "function"
    },
    {
      "inputs": [
        {
          "internalType": "bytes32",
          "name": "trustorIdHash",
          "type": "bytes32"
        }
      ],
      "name": "acceptTrustee",
      "outputs": [],
      "stateMutability": "nonpayable",
      "type": "function"
    },
    {
      "inputs": [
        {
          "internalType": "address",
          "name": "wallet",
          "type": "address"
        },
        {
          "internalType": "bytes32",
          "name": "userIdHash",
          "type": "bytes32"
        }
      ],
      "name": "addMember",
      "outputs": [],
      "stateMutability": "nonpayable",
      "type": "function"
    },
    {
      "inputs": [
        {
          "internalType": "address[]",
          "name": "walletAddresses",
          "type": "address[]"
        },
        {
          "internalType": "bytes32",
          "name": "userIdHash",
          "type": "bytes32"
        }
      ],
      "name": "addMemberBatch",
      "outputs": [],
      "stateMutability": "nonpayable",
      "type": "function"
    },
    {
      "inputs": [],
      "name": "admin",
      "outputs": [
        {
          "internalType": "address",
          "name": "",
          "type": "address"
        }
      ],
      "stateMutability": "view",
      "type": "function"
    },
    {
      "inputs": [
        {
          "internalType": "bytes32",
          "name": "",
          "type": "bytes32"
        },
        {
          "internalType": "uint256",
          "name": "",
          "type": "uint256"
        }
      ],
      "name": "adminsByRecord",
      "outputs": [
        {
          "internalType": "bytes32",
          "name": "",
          "type": "bytes32"
        }
      ],
      "stateMutability": "view",
      "type": "function"
    },
    {
      "inputs": [
        {
          "internalType": "bytes32",
          "name": "trustorIdHash",
          "type": "bytes32"
        },
        {
          "internalType": "bytes32",
          "name": "trusteeIdHash",
          "type": "bytes32"
        }
      ],
      "name": "bootstrapDependentTrustee",
      "outputs": [],
      "stateMutability": "nonpayable",
      "type": "function"
    },
    {
      "inputs": [
        {
          "internalType": "bytes32",
          "name": "recordIdHash",
          "type": "bytes32"
        },
        {
          "internalType": "address",
          "name": "targetWallet",
          "type": "address"
        },
        {
          "internalType": "string",
          "name": "newRole",
          "type": "string"
        }
      ],
      "name": "changeRole",
      "outputs": [],
      "stateMutability": "nonpayable",
      "type": "function"
    },
    {
      "inputs": [
        {
          "internalType": "bytes32[]",
          "name": "recordIdHashes",
          "type": "bytes32[]"
        },
        {
          "internalType": "address",
          "name": "targetWallet",
          "type": "address"
        },
        {
          "internalType": "string[]",
          "name": "newRoles",
          "type": "string[]"
        }
      ],
      "name": "changeRoleBatch",
      "outputs": [],
      "stateMutability": "nonpayable",
      "type": "function"
    },
    {
      "inputs": [
        {
          "internalType": "address",
          "name": "wallet",
          "type": "address"
        }
      ],
      "name": "deactivateWallet",
      "outputs": [],
      "stateMutability": "nonpayable",
      "type": "function"
    },
    {
      "inputs": [],
      "name": "getAllUsers",
      "outputs": [
        {
          "internalType": "bytes32[]",
          "name": "",
          "type": "bytes32[]"
        }
      ],
      "stateMutability": "view",
      "type": "function"
    },
    {
      "inputs": [
        {
          "internalType": "bytes32",
          "name": "recordIdHash",
          "type": "bytes32"
        },
        {
          "internalType": "bytes32",
          "name": "guestIdHash",
          "type": "bytes32"
        }
      ],
      "name": "getGuestAccess",
      "outputs": [
        {
          "internalType": "uint256",
          "name": "grantedAt",
          "type": "uint256"
        },
        {
          "internalType": "uint256",
          "name": "expiresAt",
          "type": "uint256"
        },
        {
          "internalType": "bytes32",
          "name": "grantedByIdHash",
          "type": "bytes32"
        },
        {
          "internalType": "bytes32",
          "name": "guestEmailHash",
          "type": "bytes32"
        }
      ],
      "stateMutability": "view",
      "type": "function"
    },
    {
      "inputs": [],
      "name": "getHealthRecordCore",
      "outputs": [
        {
          "internalType": "address",
          "name": "",
          "type": "address"
        }
      ],
      "stateMutability": "view",
      "type": "function"
    },
    {
      "inputs": [
        {
          "internalType": "bytes32",
          "name": "recordIdHash",
          "type": "bytes32"
        }
      ],
      "name": "getRecordAdmins",
      "outputs": [
        {
          "internalType": "bytes32[]",
          "name": "",
          "type": "bytes32[]"
        }
      ],
      "stateMutability": "view",
      "type": "function"
    },
    {
      "inputs": [
        {
          "internalType": "bytes32",
          "name": "recordIdHash",
          "type": "bytes32"
        }
      ],
      "name": "getRecordOwners",
      "outputs": [
        {
          "internalType": "bytes32[]",
          "name": "",
          "type": "bytes32[]"
        }
      ],
      "stateMutability": "view",
      "type": "function"
    },
    {
      "inputs": [
        {
          "internalType": "bytes32",
          "name": "recordIdHash",
          "type": "bytes32"
        }
      ],
      "name": "getRecordRoleStats",
      "outputs": [
        {
          "internalType": "uint256",
          "name": "ownerCount",
          "type": "uint256"
        },
        {
          "internalType": "uint256",
          "name": "adminCount",
          "type": "uint256"
        },
        {
          "internalType": "uint256",
          "name": "viewerCount",
          "type": "uint256"
        }
      ],
      "stateMutability": "view",
      "type": "function"
    },
    {
      "inputs": [
        {
          "internalType": "bytes32",
          "name": "recordIdHash",
          "type": "bytes32"
        }
      ],
      "name": "getRecordViewers",
      "outputs": [
        {
          "internalType": "bytes32[]",
          "name": "",
          "type": "bytes32[]"
        }
      ],
      "stateMutability": "view",
      "type": "function"
    },
    {
      "inputs": [
        {
          "internalType": "bytes32",
          "name": "userIdHash",
          "type": "bytes32"
        }
      ],
      "name": "getRecordsByUser",
      "outputs": [
        {
          "internalType": "bytes32[]",
          "name": "",
          "type": "bytes32[]"
        }
      ],
      "stateMutability": "view",
      "type": "function"
    },
    {
      "inputs": [
        {
          "internalType": "bytes32",
          "name": "recordIdHash",
          "type": "bytes32"
        },
        {
          "internalType": "address",
          "name": "wallet",
          "type": "address"
        }
      ],
      "name": "getRoleDetails",
      "outputs": [
        {
          "internalType": "string",
          "name": "role",
          "type": "string"
        },
        {
          "internalType": "bool",
          "name": "isActive",
          "type": "bool"
        }
      ],
      "stateMutability": "view",
      "type": "function"
    },
    {
      "inputs": [
        {
          "internalType": "bytes32",
          "name": "recordIdHash",
          "type": "bytes32"
        },
        {
          "internalType": "bytes32",
          "name": "userIdHash",
          "type": "bytes32"
        }
      ],
      "name": "getRoleDetailsByUser",
      "outputs": [
        {
          "internalType": "string",
          "name": "role",
          "type": "string"
        },
        {
          "internalType": "bool",
          "name": "isActive",
          "type": "bool"
        }
      ],
      "stateMutability": "view",
      "type": "function"
    },
    {
      "inputs": [
        {
          "internalType": "bytes32",
          "name": "recordIdHash",
          "type": "bytes32"
        },
        {
          "internalType": "bytes32",
          "name": "userIdHash",
          "type": "bytes32"
        }
      ],
      "name": "getRoleGranter",
      "outputs": [
        {
          "internalType": "bytes32",
          "name": "",
          "type": "bytes32"
        }
      ],
      "stateMutability": "view",
      "type": "function"
    },
    {
      "inputs": [],
      "name": "getTotalRoles",
      "outputs": [
        {
          "internalType": "uint256",
          "name": "",
          "type": "uint256"
        }
      ],
      "stateMutability": "view",
      "type": "function"
    },
    {
      "inputs": [],
      "name": "getTotalUsers",
      "outputs": [
        {
          "internalType": "uint256",
          "name": "",
          "type": "uint256"
        }
      ],
      "stateMutability": "view",
      "type": "function"
    },
    {
      "inputs": [
        {
          "internalType": "bytes32",
          "name": "trustorIdHash",
          "type": "bytes32"
        },
        {
          "internalType": "bytes32",
          "name": "trusteeIdHash",
          "type": "bytes32"
        }
      ],
      "name": "getTrusteeRelationship",
      "outputs": [
        {
          "internalType": "enum MemberRoleManager.TrusteeStatus",
          "name": "status",
          "type": "uint8"
        },
        {
          "internalType": "enum MemberRoleManager.TrusteeLevel",
          "name": "level",
          "type": "uint8"
        }
      ],
      "stateMutability": "view",
      "type": "function"
    },
    {
      "inputs": [
        {
          "internalType": "address",
          "name": "wallet",
          "type": "address"
        }
      ],
      "name": "getUserForWallet",
      "outputs": [
        {
          "internalType": "bytes32",
          "name": "",
          "type": "bytes32"
        }
      ],
      "stateMutability": "view",
      "type": "function"
    },
    {
      "inputs": [
        {
          "internalType": "bytes32",
          "name": "userIdHash",
          "type": "bytes32"
        }
      ],
      "name": "getUserStatus",
      "outputs": [
        {
          "internalType": "enum MemberRoleManager.MemberStatus",
          "name": "status",
          "type": "uint8"
        }
      ],
      "stateMutability": "view",
      "type": "function"
    },
    {
      "inputs": [
        {
          "internalType": "bytes32",
          "name": "userIdHash",
          "type": "bytes32"
        }
      ],
      "name": "getWalletsForUser",
      "outputs": [
        {
          "internalType": "address[]",
          "name": "",
          "type": "address[]"
        }
      ],
      "stateMutability": "view",
      "type": "function"
    },
    {
      "inputs": [
        {
          "internalType": "bytes32[]",
          "name": "recordIdHashes",
          "type": "bytes32[]"
        },
        {
          "internalType": "address",
          "name": "guestWallet",
          "type": "address"
        },
        {
          "internalType": "bytes32",
          "name": "guestIdHash",
          "type": "bytes32"
        },
        {
          "internalType": "bytes32",
          "name": "guestEmailHash",
          "type": "bytes32"
        },
        {
          "internalType": "uint256",
          "name": "durationSeconds",
          "type": "uint256"
        }
      ],
      "name": "grantGuestAccess",
      "outputs": [],
      "stateMutability": "nonpayable",
      "type": "function"
    },
    {
      "inputs": [
        {
          "internalType": "bytes32",
          "name": "recordIdHash",
          "type": "bytes32"
        },
        {
          "internalType": "address",
          "name": "targetWallet",
          "type": "address"
        },
        {
          "internalType": "string",
          "name": "role",
          "type": "string"
        }
      ],
      "name": "grantRole",
      "outputs": [],
      "stateMutability": "nonpayable",
      "type": "function"
    },
    {
      "inputs": [
        {
          "internalType": "bytes32[]",
          "name": "recordIdHashes",
          "type": "bytes32[]"
        },
        {
          "internalType": "bytes32",
          "name": "trustorIdHash",
          "type": "bytes32"
        }
      ],
      "name": "grantRoleAsTrusteeBatch",
      "outputs": [],
      "stateMutability": "nonpayable",
      "type": "function"
    },
    {
      "inputs": [
        {
          "internalType": "bytes32[]",
          "name": "recordIdHashes",
          "type": "bytes32[]"
        },
        {
          "internalType": "address",
          "name": "targetWallet",
          "type": "address"
        },
        {
          "internalType": "string[]",
          "name": "roles",
          "type": "string[]"
        }
      ],
      "name": "grantRoleBatch",
      "outputs": [],
      "stateMutability": "nonpayable",
      "type": "function"
    },
    {
      "inputs": [
        {
          "internalType": "bytes32",
          "name": "",
          "type": "bytes32"
        },
        {
          "internalType": "bytes32",
          "name": "",
          "type": "bytes32"
        }
      ],
      "name": "guestAccessByRecord",
      "outputs": [
        {
          "internalType": "uint256",
          "name": "grantedAt",
          "type": "uint256"
        },
        {
          "internalType": "uint256",
          "name": "expiresAt",
          "type": "uint256"
        },
        {
          "internalType": "bytes32",
          "name": "grantedByIdHash",
          "type": "bytes32"
        },
        {
          "internalType": "bytes32",
          "name": "guestEmailHash",
          "type": "bytes32"
        }
      ],
      "stateMutability": "view",
      "type": "function"
    },
    {
      "inputs": [
        {
          "internalType": "bytes32",
          "name": "recordIdHash",
          "type": "bytes32"
        },
        {
          "internalType": "bytes32",
          "name": "guestIdHash",
          "type": "bytes32"
        }
      ],
      "name": "hasActiveGuestAccess",
      "outputs": [
        {
          "internalType": "bool",
          "name": "",
          "type": "bool"
        }
      ],
      "stateMutability": "view",
      "type": "function"
    },
    {
      "inputs": [
        {
          "internalType": "bytes32",
          "name": "recordIdHash",
          "type": "bytes32"
        },
        {
          "internalType": "address",
          "name": "wallet",
          "type": "address"
        }
      ],
      "name": "hasActiveRole",
      "outputs": [
        {
          "internalType": "bool",
          "name": "",
          "type": "bool"
        }
      ],
      "stateMutability": "view",
      "type": "function"
    },
    {
      "inputs": [
        {
          "internalType": "bytes32",
          "name": "recordIdHash",
          "type": "bytes32"
        },
        {
          "internalType": "address",
          "name": "wallet",
          "type": "address"
        },
        {
          "internalType": "string",
          "name": "role",
          "type": "string"
        }
      ],
      "name": "hasRole",
      "outputs": [
        {
          "internalType": "bool",
          "name": "",
          "type": "bool"
        }
      ],
      "stateMutability": "view",
      "type": "function"
    },
    {
      "inputs": [],
      "name": "healthRecordCore",
      "outputs": [
        {
          "internalType": "contract HealthRecordCoreInterface",
          "name": "",
          "type": "address"
        }
      ],
      "stateMutability": "view",
      "type": "function"
    },
    {
      "inputs": [],
      "name": "initialize",
      "outputs": [],
      "stateMutability": "nonpayable",
      "type": "function"
    },
    {
      "inputs": [
        {
          "internalType": "bytes32",
          "name": "recordIdHash",
          "type": "bytes32"
        },
        {
          "internalType": "address",
          "name": "targetWallet",
          "type": "address"
        },
        {
          "internalType": "string",
          "name": "role",
          "type": "string"
        }
      ],
      "name": "initializeRecordRole",
      "outputs": [],
      "stateMutability": "nonpayable",
      "type": "function"
    },
    {
      "inputs": [
        {
          "internalType": "address",
          "name": "wallet",
          "type": "address"
        }
      ],
      "name": "isActiveMember",
      "outputs": [
        {
          "internalType": "bool",
          "name": "",
          "type": "bool"
        }
      ],
      "stateMutability": "view",
      "type": "function"
    },
    {
      "inputs": [
        {
          "internalType": "bytes32",
          "name": "recordIdHash",
          "type": "bytes32"
        },
        {
          "internalType": "bytes32",
          "name": "userIdHash",
          "type": "bytes32"
        }
      ],
      "name": "isActiveSubject",
      "outputs": [
        {
          "internalType": "bool",
          "name": "",
          "type": "bool"
        }
      ],
      "stateMutability": "view",
      "type": "function"
    },
    {
      "inputs": [
        {
          "internalType": "bytes32",
          "name": "trustorIdHash",
          "type": "bytes32"
        },
        {
          "internalType": "bytes32",
          "name": "trusteeIdHash",
          "type": "bytes32"
        }
      ],
      "name": "isControllerOf",
      "outputs": [
        {
          "internalType": "bool",
          "name": "",
          "type": "bool"
        }
      ],
      "stateMutability": "view",
      "type": "function"
    },
    {
      "inputs": [
        {
          "internalType": "bytes32",
          "name": "recordIdHash",
          "type": "bytes32"
        },
        {
          "internalType": "address",
          "name": "wallet",
          "type": "address"
        }
      ],
      "name": "isOwnerOrAdmin",
      "outputs": [
        {
          "internalType": "bool",
          "name": "",
          "type": "bool"
        }
      ],
      "stateMutability": "view",
      "type": "function"
    },
    {
      "inputs": [
        {
          "internalType": "address",
          "name": "wallet",
          "type": "address"
        }
      ],
      "name": "isVerifiedMember",
      "outputs": [
        {
          "internalType": "bool",
          "name": "",
          "type": "bool"
        }
      ],
      "stateMutability": "view",
      "type": "function"
    },
    {
      "inputs": [
        {
          "internalType": "address",
          "name": "wallet",
          "type": "address"
        }
      ],
      "name": "isVerifiedProvider",
      "outputs": [
        {
          "internalType": "bool",
          "name": "",
          "type": "bool"
        }
      ],
      "stateMutability": "view",
      "type": "function"
    },
    {
      "inputs": [
        {
          "internalType": "bytes32",
          "name": "",
          "type": "bytes32"
        },
        {
          "internalType": "uint256",
          "name": "",
          "type": "uint256"
        }
      ],
      "name": "ownersByRecord",
      "outputs": [
        {
          "internalType": "bytes32",
          "name": "",
          "type": "bytes32"
        }
      ],
      "stateMutability": "view",
      "type": "function"
    },
    {
      "inputs": [
        {
          "internalType": "bytes32",
          "name": "trusteeIdHash",
          "type": "bytes32"
        },
        {
          "internalType": "enum MemberRoleManager.TrusteeLevel",
          "name": "level",
          "type": "uint8"
        }
      ],
      "name": "proposeTrustee",
      "outputs": [],
      "stateMutability": "nonpayable",
      "type": "function"
    },
    {
      "inputs": [],
      "name": "proxiableUUID",
      "outputs": [
        {
          "internalType": "bytes32",
          "name": "",
          "type": "bytes32"
        }
      ],
      "stateMutability": "view",
      "type": "function"
    },
    {
      "inputs": [
        {
          "internalType": "address",
          "name": "wallet",
          "type": "address"
        }
      ],
      "name": "reactivateWallet",
      "outputs": [],
      "stateMutability": "nonpayable",
      "type": "function"
    },
    {
      "inputs": [
        {
          "internalType": "bytes32",
          "name": "",
          "type": "bytes32"
        }
      ],
      "name": "recordRoles",
      "outputs": [
        {
          "internalType": "string",
          "name": "role",
          "type": "string"
        },
        {
          "internalType": "bool",
          "name": "isActive",
          "type": "bool"
        }
      ],
      "stateMutability": "view",
      "type": "function"
    },
    {
      "inputs": [
        {
          "internalType": "bytes32",
          "name": "",
          "type": "bytes32"
        },
        {
          "internalType": "uint256",
          "name": "",
          "type": "uint256"
        }
      ],
      "name": "recordsByUser",
      "outputs": [
        {
          "internalType": "bytes32",
          "name": "",
          "type": "bytes32"
        }
      ],
      "stateMutability": "view",
      "type": "function"
    },
    {
      "inputs": [
        {
          "internalType": "bytes32[]",
          "name": "recordIdHashes",
          "type": "bytes32[]"
        },
        {
          "internalType": "bytes32",
          "name": "guestIdHash",
          "type": "bytes32"
        }
      ],
      "name": "revokeGuestAccess",
      "outputs": [],
      "stateMutability": "nonpayable",
      "type": "function"
    },
    {
      "inputs": [
        {
          "internalType": "bytes32",
          "name": "recordIdHash",
          "type": "bytes32"
        },
        {
          "internalType": "address",
          "name": "targetWallet",
          "type": "address"
        }
      ],
      "name": "revokeRole",
      "outputs": [],
      "stateMutability": "nonpayable",
      "type": "function"
    },
    {
      "inputs": [
        {
          "internalType": "bytes32[]",
          "name": "recordIdHashes",
          "type": "bytes32[]"
        },
        {
          "internalType": "address",
          "name": "targetWallet",
          "type": "address"
        }
      ],
      "name": "revokeRoleBatch",
      "outputs": [],
      "stateMutability": "nonpayable",
      "type": "function"
    },
    {
      "inputs": [
        {
          "internalType": "bytes32",
          "name": "trustorIdHash",
          "type": "bytes32"
        },
        {
          "internalType": "bytes32",
          "name": "trusteeIdHash",
          "type": "bytes32"
        }
      ],
      "name": "revokeTrustee",
      "outputs": [],
      "stateMutability": "nonpayable",
      "type": "function"
    },
    {
      "inputs": [
        {
          "internalType": "bytes32",
          "name": "",
          "type": "bytes32"
        }
      ],
      "name": "roleGrantedBy",
      "outputs": [
        {
          "internalType": "bytes32",
          "name": "",
          "type": "bytes32"
        }
      ],
      "stateMutability": "view",
      "type": "function"
    },
    {
      "inputs": [
        {
          "internalType": "address",
          "name": "_healthRecordCore",
          "type": "address"
        }
      ],
      "name": "setHealthRecordCore",
      "outputs": [],
      "stateMutability": "nonpayable",
      "type": "function"
    },
    {
      "inputs": [
        {
          "internalType": "bytes32",
          "name": "userIdHash",
          "type": "bytes32"
        },
        {
          "internalType": "enum MemberRoleManager.MemberStatus",
          "name": "newStatus",
          "type": "uint8"
        }
      ],
      "name": "setUserStatus",
      "outputs": [],
      "stateMutability": "nonpayable",
      "type": "function"
    },
    {
      "inputs": [],
      "name": "totalRoles",
      "outputs": [
        {
          "internalType": "uint256",
          "name": "",
          "type": "uint256"
        }
      ],
      "stateMutability": "view",
      "type": "function"
    },
    {
      "inputs": [],
      "name": "totalUsers",
      "outputs": [
        {
          "internalType": "uint256",
          "name": "",
          "type": "uint256"
        }
      ],
      "stateMutability": "view",
      "type": "function"
    },
    {
      "inputs": [
        {
          "internalType": "address",
          "name": "newAdmin",
          "type": "address"
        }
      ],
      "name": "transferAdmin",
      "outputs": [],
      "stateMutability": "nonpayable",
      "type": "function"
    },
    {
      "inputs": [
        {
          "internalType": "bytes32",
          "name": "",
          "type": "bytes32"
        },
        {
          "internalType": "bytes32",
          "name": "",
          "type": "bytes32"
        }
      ],
      "name": "trusteeRelationships",
      "outputs": [
        {
          "internalType": "enum MemberRoleManager.TrusteeStatus",
          "name": "status",
          "type": "uint8"
        },
        {
          "internalType": "enum MemberRoleManager.TrusteeLevel",
          "name": "level",
          "type": "uint8"
        }
      ],
      "stateMutability": "view",
      "type": "function"
    },
    {
      "inputs": [
        {
          "internalType": "bytes32",
          "name": "trusteeIdHash",
          "type": "bytes32"
        },
        {
          "internalType": "enum MemberRoleManager.TrusteeLevel",
          "name": "newLevel",
          "type": "uint8"
        }
      ],
      "name": "updateTrusteeLevel",
      "outputs": [],
      "stateMutability": "nonpayable",
      "type": "function"
    },
    {
      "inputs": [
        {
          "internalType": "address",
          "name": "newImplementation",
          "type": "address"
        },
        {
          "internalType": "bytes",
          "name": "data",
          "type": "bytes"
        }
      ],
      "name": "upgradeToAndCall",
      "outputs": [],
      "stateMutability": "payable",
      "type": "function"
    },
    {
      "inputs": [
        {
          "internalType": "uint256",
          "name": "",
          "type": "uint256"
        }
      ],
      "name": "userList",
      "outputs": [
        {
          "internalType": "bytes32",
          "name": "",
          "type": "bytes32"
        }
      ],
      "stateMutability": "view",
      "type": "function"
    },
    {
      "inputs": [
        {
          "internalType": "bytes32",
          "name": "",
          "type": "bytes32"
        }
      ],
      "name": "userStatus",
      "outputs": [
        {
          "internalType": "enum MemberRoleManager.MemberStatus",
          "name": "",
          "type": "uint8"
        }
      ],
      "stateMutability": "view",
      "type": "function"
    },
    {
      "inputs": [
        {
          "internalType": "bytes32",
          "name": "",
          "type": "bytes32"
        },
        {
          "internalType": "uint256",
          "name": "",
          "type": "uint256"
        }
      ],
      "name": "userWallets",
      "outputs": [
        {
          "internalType": "address",
          "name": "",
          "type": "address"
        }
      ],
      "stateMutability": "view",
      "type": "function"
    },
    {
      "inputs": [
        {
          "internalType": "bytes32",
          "name": "",
          "type": "bytes32"
        },
        {
          "internalType": "uint256",
          "name": "",
          "type": "uint256"
        }
      ],
      "name": "viewersByRecord",
      "outputs": [
        {
          "internalType": "bytes32",
          "name": "",
          "type": "bytes32"
        }
      ],
      "stateMutability": "view",
      "type": "function"
    },
    {
      "inputs": [
        {
          "internalType": "bytes32",
          "name": "recordIdHash",
          "type": "bytes32"
        }
      ],
      "name": "voluntarilyLeaveOwnership",
      "outputs": [],
      "stateMutability": "nonpayable",
      "type": "function"
    },
    {
      "inputs": [
        {
          "internalType": "address",
          "name": "",
          "type": "address"
        }
      ],
      "name": "wallets",
      "outputs": [
        {
          "internalType": "bytes32",
          "name": "userIdHash",
          "type": "bytes32"
        },
        {
          "internalType": "bool",
          "name": "isWalletActive",
          "type": "bool"
        }
      ],
      "stateMutability": "view",
      "type": "function"
    }
  ],
  "bytecode": "0x60a08060405234620000d157306080527ff0c57e16840df040f15088dc2f81fe391c3923bec73e23a9662efc9c229c6a009081549060ff8260401c16620000c257506001600160401b036002600160401b0319828216016200007c575b6040516150879081620000d6823960805181818161256b01526127770152f35b6001600160401b031990911681179091556040519081527fc7f505b2f371ae2175ee4913f4499e1f2633a7b5936321eed1cdaeb6115181d290602090a15f80806200005c565b63f92ee8a960e01b8152600490fd5b5f80fdfe6080604090808252600480361015610015575f80fd5b5f3560e01c918262b0c80914613b155750816302ba810914613ab8578163033e822f14613a4f5781630519e2a014613a295781630591bdf4146136c45781630b3ffd1d146136075781631c0c18d8146134a05781631dc6320114613321578163259ed80e146132fc57816329c9087a14612dd15781632ae8511d14612c545781633256e5ab14612bd85781633310559214612b9b5781633befa41014612b8057816341a51baa14612b17578163422a5bb814612ae357816343e1970414612a9157816345ecd02f14612a7157816349df7208146129245781634b6feb7c14611e2a5781634f1ef2861461272757816351eed472146125cf57816352d1902d14612558578163557ee54f146124ca578163558160791461249a578163562c788e146105d757816364f639d41461247f5781636544b05b1461241657816369ac2022146122185781636b4bed971461037e578163726d544714611ec657816375829def14611e48578163790e118c14611e2a5781637b657d0714611ded5781638129fc1c14611cd05781638776cd3514611ca057816389b08f1114611c5b5781638db7edb414611c1657816393ccfba814611be65781639443cd8014611ba057816396207e0214611a625781639915b91f146119eb5781639be572f61461150b5781639f4216e81461199f578163aaddc34514611973578163ab48384a14611858578163ad3cb1cc14611814578163b8cab84b14611739578163bafc8892146115e0578163bb0f86d514611529578163bff1f9e11461150b578163c36dc9ef146114a2578163c715582314611426578163c88c35fe14611400578163c979c9bf1461129c578163cb261a031461126e578163cda06c6e14611247578163d12a776814611198578163d547741f14610d90578163dde492ea14610951578163e211e89c146108e1578163e2842d7914610861578163e6efcd5d146105ff578163e94ed257146105d7578163eec047aa14610577578163f12b9ad3146103af578163f29e007b1461037e57508063f851a440146103575763fa7a6bcc14610316575f80fd5b346103535761032436613e6f565b91905f52600a602052805f2080548310156103535760209261034591613fbd565b91905490519160031b1c8152f35b5f80fd5b5034610353575f366003190112610353575f5490516001600160a01b039091168152602090f35b823461035357602036600319011261035357602091355f52600282526103ad60ff825f20541691518092613fe6565bf35b823461035357806003193601126103535781356001600160401b038111610353576103dd9036908401613c12565b916103e6613b5f565b6103f76103f23361483a565b614034565b6001600160a01b03169081156105435750335f52600192839260209060018252805f2054935f52805f20549261042e8415156140bb565b5f955b61043757005b805186101561054157868661045786610451849a86614280565b51614937565b1561053c5761046a876104518386614280565b1561053c5786866104858161047f8588614280565b51614b56565b805f526006808952610498885f20613ebd565b9182518a8401206104a7614583565b8b815191012014610532576104c783856104c1898c614280565b51614b8a565b5f52885284875f200160ff198154169055600d88525f878120557fd05ed2d3feff840c2ececa71791388fd3d19dbbbbcfa97031f534a7dc09fbf1f61052261050f8689614280565b519289519182918b83528b830190613f5f565b428c8301520390a45b0195610431565b505050505061052b565b61052b565b005b606490602084519162461bcd60e51b8352820152600e60248201526d125b9d985b1a59081dd85b1b195d60921b6044820152fd5b82346103535761058636613e6f565b905f52600f602052815f20905f52602052805f20906105d3825491600184015493600360028201549101549151948594859094939260609260808301968352602083015260408201520152565b0390f35b8234610353575f36600319011261035357600c5490516001600160a01b039091168152602090f35b82346103535761060e36613e6f565b9161062360018060a01b035f541633146142b6565b811561082d57610634831515614333565b61064083831415614371565b815f526002602081815260ff835f20541660068110156107df57156107f257845f5281815260ff835f20541660068110156107df576106809015156143bd565b835f52600e8152825f20855f52815260ff835f205416868110156107df5780159081156107d4575b50156107835782516106b981613b75565b828152818101838152855f52600e8352845f20875f528352845f20915188811015610770576106e8908361441a565b5196600388101561075d57507fc5b2e1bd4433eb4e9e181cc803520513d39d918c96bddeebca1224e1c750963d94959661072191614432565b85857f494d010fdf588a0e83d626ea6963187bdda6f88b7007f7bf280683d3f7dea8348580518681524286820152a382519182524290820152a3005b602190634e487b7160e01b5f525260245ffd5b602189634e487b7160e01b5f525260245ffd5b8560849184519162461bcd60e51b8352820152602660248201527f52656c6174696f6e7368697020616c726561647920616374697665206f722070604482015265656e64696e6760d01b6064820152fd5b6003915014876106a8565b602187634e487b7160e01b5f525260245ffd5b8560649184519162461bcd60e51b83528201526016602482015275151c9d5cdd1bdc881b9bdd081c9959da5cdd195c995960521b6044820152fd5b5162461bcd60e51b8152602081850152600f60248201526e24b73b30b634b2103a393ab9ba37b960891b6044820152606490fd5b8234610353575f366003190112610353578051908183548082526020809201945f527f8a35acfbc15ff81a39ae7d344fd709f28e8600b4aa8c65c6b64bfe7fe36bd19b915f905b8282106108ca576105d386866108c0828b0383613bda565b5191829182613da2565b8354875295860195600193840193909101906108a8565b8234610353576020906108f336613e6f565b905f52600f8352815f20905f528252805f2090805161091181613ba4565b825490818152606060036001860154958688850152600281015486850152015491015215159182610946575b50519015158152f35b42111591508361093d565b9050346103535761096136613e2d565b9192906109706103f23361483a565b61097b841515614451565b6001600160a01b03169261099084151561449d565b6109a161099c84614c63565b6144e9565b335f5260209160018352855f2054945f52855f2054926109c28415156140bb565b8451818601206109d28785614b56565b5f526006825260ff6001895f2001541615610d4f57835f5260078252875f2054151590610a07610a00614583565b8987614cbb565b91610a1a610a136145a4565b8a88614cbb565b91610a258a88614d19565b90610a2e614583565b8051908701208103610b6c57505015610b12575015610ad0575b610a528484614b56565b5f526006815260ff6001885f20015416610a725750506105419450614941565b865162461bcd60e51b815291820152603360248201527f54617267657420616c726561647920686173206120726f6c652e2055736520636044820152721a185b99d9549bdb194a0a481a5b9cdd195859606a1b606482015260849150fd5b865162461bcd60e51b815291820181905260248201527f4f6e6c79206f776e6572732063616e206772616e74206f776e657220726f6c65604482015260649150fd5b9050610a4857865162461bcd60e51b815291820152602960248201527f4f6e6c792061646d696e6973747261746f72732063616e206772616e742066696044820152683939ba1037bbb732b960b91b606482015260849150fd5b909150610b776145a4565b8051908601208103610c015750508115610bf9575b50610a4857865162461bcd60e51b815291820152603b60248201527f4f6e6c79206f776e65727320616e642061646d696e6973747261746f7273206360448201527f616e206772616e742061646d696e6973747261746f7220726f6c650000000000606482015260849150fd5b90505f610b8c565b610c0c939193614294565b85815191012014610c20575b505050610a48565b80159081610d48575b8015610d41575b15610cd85782610cd0575b5081610cc7575b50610c50575b5f8080610c18565b610c5a8684614e4f565b51610c4857865162461bcd60e51b815291820152603c60248201527f5375626a656374206d757374206861766520616e2061637469766520726f6c6560448201527f20746f206772616e7420766965776572207065726d697373696f6e7300000000606482015260849150fd5b9050155f610c42565b91505f610c3b565b895162461bcd60e51b8152808601859052603e60248201527f4f6e6c79206f776e6572732c2061646d696e6973747261746f72732c206f722060448201527f7375626a656374732063616e206772616e742076696577657220726f6c6500006064820152608490fd5b5082610c30565b5081610c29565b60648383808b519262461bcd60e51b845283015260248201527f596f752068617665206e6f20726f6c6520666f722074686973207265636f72646044820152fd5b82346103535780600319360112610353578135610dab613b5f565b610db6821515614451565b6001600160a01b031692610dcb84151561449d565b335f5260209260018452805f2054945f52805f205493610dec8515156140bb565b610df68585614b56565b805f5260068252610e0f60ff6001855f2001541661452b565b805f5260068252610e21835f20613ebd565b93845183860120610e30614583565b848151910120811461112157878903610f59575b610e4c6145a4565b84815191012014610ec4575b5090839291610e897fd05ed2d3feff840c2ececa71791388fd3d19dbbbbcfa97031f534a7dc09fbf1f958888614b8a565b5f52600681526001825f200160ff198154169055600d81525f82812055610eb98251938385948552840190613f5f565b9042908301520390a4005b855f52600883526001845f20541160078452845f205415158115610f51575b50610e5857835162461bcd60e51b8152908101839052603960248201527f43616e6e6f74207265766f6b65206c6173742061646d696e6973747261746f7260448201527f20776974686f757420616e206f776e65722070726573656e74000000000000006064820152608490fd5b905089610ee3565b610f6b610f64614583565b8a89614cbb565b610f7d610f766145a4565b8b8a614cbb565b845f52600d86528a875f20541490610f93614294565b805190880120840361103357821561102b575b508115611023575b5015610fba575b610e44565b845162461bcd60e51b8152808301859052603e60248201527f4f6e6c79206f776e6572732c2061646d696e6973747261746f72732c206f722060448201527f746865206772616e7465722063616e207265766f6b65207669657765727300006064820152608490fd5b90508a610fae565b91508b610fa6565b821592915082611119575b50156110be5715610e44576110516145a4565b8481519101208103610fb557865f5260078452845f205415610fb557845162461bcd60e51b8152808301859052602560248201527f4f6e6c79206f776e6572732063616e207265766f6b652061646d696e6973747260448201526461746f727360d81b6064820152608490fd5b855162461bcd60e51b8152808401869052602f60248201527f4f6e6c79206f776e65727320616e642061646d696e6973747261746f7273206360448201526e616e207265766f6b6520726f6c657360881b6064820152608490fd5b90508b61103e565b845162461bcd60e51b8152808301859052604560248201527f4f776e6572732063616e6e6f74206265207265766f6b65642e204f776e65722060448201527f6d7573742075736520766f6c756e746172696c794c656176654f776e6572736860648201526434b814149760d91b608482015260a490fd5b9050346103535760209081600319360112610353578290355f5260038252805f208151928381835491828152019081935f52825f20905f5b81811061122a57505050846111e6910385613bda565b825181815293518185018190528493840192915f5b82811061120a57505050500390f35b83516001600160a01b0316855286955093810193928101926001016111fb565b82546001600160a01b0316845292840192600192830192016111d0565b823461035357602036600319011261035357602091355f52600d8252805f20549051908152f35b82346103535760203660031901126103535760209061129361128e613b49565b614df9565b90519015158152f35b8234610353576112ab36613e6f565b916112b86103f23361483a565b335f5260209060018252805f20549483861480156113f7575b156113b757835f52600e8352815f20855f52835260ff825f205416818110156113a45760028114908115611399575b501561134e5750907f6df3a6475fab2eed139f7e469995b04e85bfc5b4b8642587109cb72541f74fae91835f52600e8252805f20855f528252805f20600360ff1982541617905551428152a4005b82608492519162461bcd60e51b8352820152602160248201527f4e6f20616374697665206f722070656e64696e672072656c6174696f6e7368696044820152600760fc1b6064820152fd5b600191501487611300565b602182634e487b7160e01b5f525260245ffd5b8280606493519262461bcd60e51b845283015260248201527f4e6f74206120706172747920746f20746869732072656c6174696f6e736869706044820152fd5b508486146112d1565b823461035357806003193601126103535761129360209261141f613b5f565b90356147fd565b8234610353576020366003190112610353577fce59ad7d6dabe8a7533ed7d9bd07d276a046ac7ac9a8e8e8971da4b81104a28b6020611463613b49565b5f546001600160a01b03919061147c90831633146142b6565b1692611489841515614773565b600c80546001600160a01b0319168517905551428152a2005b90503461035357602090602060031936011261035357355f526007602052815f209180519182602085549182815201945f5260205f20915f905b8282106114f4576105d386866108c0828b0383613bda565b8354875295860195600193840193909101906114dc565b8234610353575f366003190112610353576020906005549051908152f35b90503461035357602036600319011261035357611544613b49565b5f546001600160a01b03919061155d90831633146142b6565b16805f5260019182602052611576845f205415156142ef565b815f528260205260ff83855f200154166115a557509181925f52816020525f20019060ff198254161790555f80f35b606490602085519162461bcd60e51b8352820152601560248201527457616c6c657420616c72656164792061637469766560581b6044820152fd5b8234610353576115ef36613dfc565b9190926115fe6103f23361483a565b335f5260019360209160018352835f205492855f52600e8152845f20845f528152845f209085519161162f83613b75565b549161163e60ff841682614402565b61165160ff8383019460081c168461440e565b518381101561172657600261166691146147b1565b835161167d61167482613bfb565b97519788613bda565b80875261168c601f1991613bfb565b015f5b81811061171757505050865f905b6116af575b50505061054194506148c2565b8351811015611712576116c28185614280565b5182519060038210156116ff57916116e08a959493928a8794614da3565b6116ea828a614280565b526116f58189614280565b500190919261169d565b602185634e487b7160e01b5f525260245ffd5b6116a2565b6060888201840152820161168f565b602184634e487b7160e01b5f525260245ffd5b823461035357602090816003193601126103535782359161175c6103f23361483a565b335f5260018152815f205493835f52600e8252825f20855f528252825f209081549060ff8216818110156113a4576001036117db5750916117d360ff9260027fc5b2e1bd4433eb4e9e181cc803520513d39d918c96bddeebca1224e1c750963d969585191617809155845193849160081c16614007565b4290820152a3005b845162461bcd60e51b81529081018490526013602482015272139bc81c195b991a5b99c81c1c9bdc1bdcd85b606a1b6044820152606490fd5b8234610353575f3660031901126103535780516105d39161183482613b75565b60058252640352e302e360dc1b602083015251918291602083526020830190613f5f565b9050346103535761186836613ddd565b9190926118776103f23361483a565b335f526001602052805f205492835f52600e602052815f20855f52602052815f20805460ff81168581101561196057906118b5600260ff93146147b1565b60081c1693600383101561075d57600385101561075d5782851461191d5750916117d3826119077fb36ec3c738ef8ecd9180addc815304762374b76e91c2a321831d9906ea119ade9694606096614432565b61191383518095614007565b6020840190614007565b606490602085519162461bcd60e51b8352820152601860248201527f416c72656164792074686973207472757374206c6576656c00000000000000006044820152fd5b602186634e487b7160e01b5f525260245ffd5b82346103535760209061198e61198836613e6f565b90614b56565b5f52600d8252805f20549051908152f35b82346103535760203660031901126103535781358254811015610353576020925f527f8a35acfbc15ff81a39ae7d344fd709f28e8600b4aa8c65c6b64bfe7fe36bd19b01549051908152f35b8234610353576119fa36613e6f565b905f52600e602052815f20905f52602052805f2090805191611a1b83613b75565b5491611a2a60ff841682614402565b611a3e60ff602083019460081c168461440e565b519183831015611726575192600384101561075d57506105d3905192839283614014565b8234610353578060031936011261035357813590602435600681101561035357611a9660018060a01b035f541633146142b6565b825f5260206002815260ff835f20541660068110156119605715611b6857835f526002815260ff835f20541694600686101561075d57828614611b31575090611b0491845f5260028152835f2060ff1981541660ff8416179055611afc84518097613fe6565b850190613fe6565b42908301527ff6277c6ee46649823db9a5c531db3112b4340c67179cae1932ba3420dcc37cc760603393a3005b60649184519162461bcd60e51b83528201526013602482015272416c726561647920746869732073746174757360681b6044820152fd5b8460649184519162461bcd60e51b83528201526013602482015272155cd95c881b9bdd081c9959da5cdd195c9959606a1b6044820152fd5b823461035357611baf36613e6f565b91905f526003602052805f20805483101561035357602092611bd091613fbd565b60018060a01b0391549060031b1c169051908152f35b823461035357611bf536613e6f565b91905f526009602052805f2080548310156103535760209261034591613fbd565b823461035357602036600319011261035357606091355f526007602052805f2054906008602052805f2054906009602052805f20549181519384526020840152820152f35b8234610353576020366003190112610353576001600160a01b03611c7d613b49565b165f526001602052805f2060ff6001825492015416825191825215156020820152f35b823461035357611caf36613e6f565b91905f526008602052805f2080548310156103535760209261034591613fbd565b905034610353575f366003190112610353577ff0c57e16840df040f15088dc2f81fe391c3923bec73e23a9662efc9c229c6a0090815460ff81851c1615916001600160401b03821680159081611de5575b6001149081611ddb575b159081611dd2575b50611dc4575067ffffffffffffffff198116600117835581611da5575b505f80546001600160a01b03191633179055611d6857005b805468ff00000000000000001916905551600181527fc7f505b2f371ae2175ee4913f4499e1f2633a7b5936321eed1cdaeb6115181d290602090a1005b68ffffffffffffffffff1916680100000000000000011782555f611d50565b845163f92ee8a960e01b8152fd5b9050155f611d33565b303b159150611d2b565b849150611d21565b8234610353576105d390611e0036613e6f565b905f52600e602052815f20905f52602052805f20549051918160ff80859460081c16911683614014565b8234610353575f36600319011261035357602090600b549051908152f35b823461035357602036600319011261035357602090611e65613b49565b5f5491906001600160a01b03808416917f38df5fa0f7fef0d515ca1f5388cb5790ac5885d5fca8d05d9f943e563c33a4b39190611ea33385146142b6565b16948593611eb2851515614773565b51428152a36001600160a01b031916175f55005b90503461035357611ed636613e2d565b93909260018060a01b03611eee815f541633146142b6565b611ef9841515614451565b8416611f0681151561469f565b611f1261099c87614c63565b5f526001602091818352611f34845f205496611f2f8815156142ef565b61483a565b156121d557845f5260078352835f205415806121c6575b1561218357611f5a8686614b56565b91825f5260068452845f2092611f6f84613ebd565b9260ff838551159601541692875191611f8783613b75565b8b835287830190828252845f5260068952895f2093518051916001600160401b0383116121705750611fb98554613e85565b601f811161212a575b508990601f83116001146120c35761200995949392915f91836120b8575b50505f19600383901b1c191690831b1783555b51151591019060ff801983541691151516179055565b5f52600d84525f85812055155f1461208b57509185917ff9d17eb1340ab78960b594ff8bed1349985b800ee21199c6d5ea4a67454593ad9361204d5f988888614ea6565b612065575b610eb98251938385948552840190613f5f565b858752600a815261207885838920614222565b612083600b5461425e565b600b55612052565b95949392505084518186012090845190850120036120a557005b6120b3610541948383614b8a565b614ea6565b015190505f80611fe0565b90601f19831691865f528b5f20925f5b8d8282106121165750509186959492918361200999989593106120fe575b505050811b018355611ff3565b01515f1960f88460031b161c191690555f80806120f1565b8385015186559488019493840193016120d3565b855f528a5f20601f840160051c8101918c8510612166575b601f0160051c019085905b82811061215b575050611fc2565b5f815501859061214d565b9091508190612142565b604190634e487b7160e01b5f525260245ffd5b835162461bcd60e51b8152908101839052601a60248201527f5265636f726420616c726561647920696e697469616c697a65640000000000006044820152606490fd5b5060088352835f205415611f4b565b835162461bcd60e51b8152908101839052601860248201527f4d75737420626520616e20616374697665206d656d62657200000000000000006044820152606490fd5b82346103535780600319360112610353576001600160401b03908235828111610353573660238201121561035357808401359283116103535760246005943660248660051b85010111610353575f546001600160a01b0396602435959161228290891633146142b6565b86156123dd576122938615156146e4565b855f526002936020936002855260ff845f20541690600682101561075d575015955f5b8981106122bf57005b8281851b83010135908b82169182810361035357826123458c926122e6600196151561469f565b825f5261233686808d526122fd8c5f205415614727565b8b519061230982613b75565b8682528d8181840191818352885f52528d5f209251835551151591019060ff801983541691151516179055565b835f5260038b52895f206141a0565b8215806123d6575b156123a957815f52898952875f208a60ff1982541617905561236e826141db565b612378875461425e565b87557f39d132591ee0696de49ab564e4a90e430c006561917db731a2a614dd2d245591898951428152a35b016122b6565b7f1cc138f50384be7770a8e4a34eecaa0d0c718bfaa1641af49db32532e4a5b910898951428152a36123a3565b508a61234d565b815162461bcd60e51b81526020818501526013602482015272139bc81dd85b1b195d1cc81c1c9bdd9a591959606a1b6044820152606490fd5b90503461035357602090602060031936011261035357355f52600a602052815f209180519182602085549182815201945f5260205f20915f905b828210612468576105d386866108c0828b0383613bda565b835487529586019560019384019390910190612450565b82346103535760209061129361249436613e6f565b90614d19565b8234610353576124a936613e6f565b91905f526007602052805f2080548310156103535760209261034591613fbd565b8234610353576124d936613e6f565b905f52600e602052815f20905f52602052805f20908051916124fa83613b75565b549161250960ff841682614402565b61251d60ff602083019460081c168461440e565b518381101561172657600214918261253c575b60208383519015158152f35b9091505191600383101561075d57506002602092149083612530565b8234610353575f366003190112610353577f00000000000000000000000000000000000000000000000000000000000000006001600160a01b031630036125c257602090517f360894a13ba1a3210667c828492db98dca3e2076cc3735a920a3ca505d382bbc8152f35b5163703e46dd60e11b8152fd5b8234610353576125de36613cd5565b926125eb6103f23361483a565b6125f88351855114614077565b335f5260019384936020906001602052835f20549460018060a01b03165f52835f2054936126278515156140bb565b5f965b61263057005b815187101561054157878761264f612649839a88614280565b51614c63565b1561272257612662886104518387614280565b156127225787878585848a8a61267c866104518588614280565b15612716576126bc836126b5816126af6126c39860068c976126a58f9b61047f8f918c92614280565b5f52525f20613ebd565b98614280565b5193614280565b5191614941565b7f3af67cf2057ba8ef414286fb626cd3efb02f74996e18efd455b39d8ec7ec460f6126ee8589614280565b51916126fa868c614280565b5161270b89519283924291846145cd565b0390a45b019661262a565b5050505050505061270f565b61270f565b9050816003193601126103535761273c613b49565b916024356001600160401b03811161035357366023820112156103535761276c9036906024818601359101613c72565b906001600160a01b037f000000000000000000000000000000000000000000000000000000000000000081163081149081156128f6575b506128e6576127b6815f541633146142b6565b8416918151946352d1902d60e01b86526020868681875afa5f96816128b2575b506127f257505051634c9c8ce360e01b81529182015260249150fd5b838593877f360894a13ba1a3210667c828492db98dca3e2076cc3735a920a3ca505d382bbc9081810361289c5750833b156128855780546001600160a01b0319168317905551907fbc7cd75a20ee27fd9adebab32041f755214dbc6bffa90cc0225b39da2e5c2d3b5f80a282511561286f57506105419250614fc0565b9150503461287957005b63b398979f60e01b8152fd5b8151634c9c8ce360e01b8152808701849052602490fd5b86602491845191632a87526960e21b8352820152fd5b9096506020813d6020116128de575b816128ce60209383613bda565b810103126103535751955f6127d6565b3d91506128c1565b815163703e46dd60e11b81528490fd5b9050817f360894a13ba1a3210667c828492db98dca3e2076cc3735a920a3ca505d382bbc541614155f6127a3565b90503461035357816003193601126103535761293e613b49565b916024359260018060a01b03612958815f541633146142b6565b81169261296684151561469f565b6129718515156146e4565b835f526129d66020926001845261298b855f205415614727565b6129c7855161299981613b75565b8881526001868201818152895f52818852885f209251835551151591019060ff801983541691151516179055565b865f5260038452845f206141a0565b845f526002825260ff835f20541690600682101561075d5750612a48577f39d132591ee0696de49ab564e4a90e430c006561917db731a2a614dd2d24559191845f5260028252805f20600260ff19825416179055612a33856141db565b612a3e60055461425e565b60055551428152a3005b7f1cc138f50384be7770a8e4a34eecaa0d0c718bfaa1641af49db32532e4a5b9109151428152a3005b823461035357602036600319011261035357602090611293611f2f613b49565b823461035357602090612aa661198836613e6f565b5f52600682526105d3815f20918051612abe81613b75565b60ff6001612acb86613ebd565b95868452015416151594859101525192839283613f9d565b8234610353578060031936011261035357612b0a6105d392612b03613b5f565b9035614627565b9290915192839283613f9d565b90503461035357602090602060031936011261035357355f526008602052815f209180519182602085549182815201945f5260205f20915f905b828210612b69576105d386866108c0828b0383613bda565b835487529586019560019384019390910190612b51565b823461035357602090611293612b9536613e2d565b916145fb565b90503461035357602036600319011261035357355f526006602052805f206105d360ff6001612bc984613ebd565b93015416925192839283613f9d565b823461035357612be736613e6f565b905f52600f602052815f20905f52602052805f20906105d36060825193612c0d85613ba4565b805493848652600182015495866020820152600360028401549384848401520154938491015251948594859094939260609260808301968352602083015260408201520152565b82346103535760208060031936011261035357823591612c75831515614451565b335f5260018252805f205493612c93612c8c614583565b8686614cbb565b15612d8457835f52600783526001825f20541160088452825f205415158115612d7c575b5015612d215750907f68f37cc4a32f0b24153ce9237b344b20a9717039f90d7c24f35e5c217f03e16891612ceb8585614b56565b612cfd612cf6614583565b8787614b8a565b5f52600682526001815f200160ff198154169055600d82525f8181205551428152a3005b82608492519162461bcd60e51b8352820152603160248201527f43616e6e6f74206c65617665206173206c617374206f776e65722077697468206044820152706e6f2061646d696e6973747261746f727360781b6064820152fd5b905086612cb7565b82608492519162461bcd60e51b8352820152602360248201527f596f7520617265206e6f7420616e206f776e6572206f662074686973207265636044820152621bdc9960ea1b6064820152fd5b90503461035357612de136613e2d565b9390612def6103f23361483a565b612dfa831515614451565b6001600160a01b031693612e0f85151561449d565b612e1b61099c82614c63565b335f5260209160018352805f2054955f52805f205494612e3c8615156140bb565b82518484012093612e4d8787614b56565b805f5260068252612e6660ff6001865f2001541661452b565b5f5260068152612e77835f20613ebd565b94855182870120908082146132ba57612e8e614583565b838151910120821461324657875f5260078352845f205415918215612ebb612eb4614583565b8d8c614cbb565b90612ecf8d612ec86145a4565b908d614cbb565b90612ed8614583565b805190880120850361308d571561302f575015612fed575b612ef86145a4565b848151910120149081612fd6575b50612f53575b50505090612f4e7f3af67cf2057ba8ef414286fb626cd3efb02f74996e18efd455b39d8ec7ec460f9392612f4288848989614941565b519283924291846145cd565b0390a4005b612f5e575b80612f0c565b855f52600881526001835f205411612f5857608492519162461bcd60e51b8352820152603960248201527f43616e6e6f742064656d6f746520746865206c6173742061646d696e6973747260448201527f61746f72207768656e206e6f206f776e657220657869737473000000000000006064820152fd5b9050612fe0614294565b838151910120145f612f06565b50505080606493519262461bcd60e51b845283015260248201527f4f6e6c79206f776e6572732063616e2070726f6d6f746520746f206f776e65726044820152fd5b9050612ef0575050925162461bcd60e51b815291820152602b60248201527f4f6e6c792061646d696e6973747261746f72732063616e2070726f6d6f74652060448201526a3334b939ba1037bbb732b960a91b606482015260849150fd5b6130956145a4565b805190880120850361312057508115613118575b50612ef0575050925162461bcd60e51b815291820152603b60248201527f4f6e6c79206f776e65727320616e642061646d696e6973747261746f7273206360448201527f616e2070726f6d6f746520746f2061646d696e6973747261746f720000000000606482015260849150fd5b90505f6130a9565b613128614294565b878151910120851461313d575b505050612ef0565b156131eb5781156131d4575b5015613158575b5f8080613135565b5050925162461bcd60e51b815291820152604960248201527f4f6e6c79206f776e6572732063616e2064656d6f7465206f74686572732e204160448201527f646d696e6973747261746f72732063616e206f6e6c792064656d6f746520746860648201526832b6b9b2b63b32b99760b91b608482015260a49150fd5b9050806131e2575b5f613149565b50898b146131dc565b9050613150575050925162461bcd60e51b815291820152602860248201527f4f6e6c792061646d696e6973747261746f72732063616e2064656d6f7465207460448201526737903b34b2bbb2b960c11b606482015260849150fd5b505060a492519162461bcd60e51b8352820152604360248201527f4f776e6572732063616e6e6f742062652064656d6f7465642e204f776e65722060448201527f6d75737420766f6c756e746172696c792072656d6f7665207468656d73656c7660648201526232b99760e91b6084820152fd5b5050606492519162461bcd60e51b8352820152601c60248201527f54617267657420616c726561647920686173207468697320726f6c65000000006044820152fd5b82346103535760203660031901126103535760209061129361331c613b49565b614c0d565b82346103535761333036613dfc565b61333f6103f29392933361483a565b335f526001928392602090848252805f20549261335e8151151561415e565b5f955b61336757005b8051861015610541578686868661337f849a86614280565b51805f52600f8852865f20835f528852865f20875161339d81613ba4565b815490818152878301548b82015260606003600285015494858d850152015491015215613497576133d66133cf614583565b8484614cbb565b908115613484575b831415908161347b575b50613473576133f78382614b56565b805f52600690818a5260ff878a5f20015416613440575b50507fa232dcffab2d4f0f085a4d88bc617cd25ded7d3b8d8952e99d788ca25d4435b0888851428152a45b0195613361565b61345261344b614294565b8685614b8a565b5f52885284875f200160ff198154169055600d88525f878120558c8061340e565b505050613439565b9050158d6133e8565b90506134916133cf6145a4565b906133de565b50505050613439565b8234610353576134af36613ddd565b90916134bd6103f23361483a565b335f5260209160018352815f2054926134d7851515614333565b6134e385851415614371565b845f526002815260ff835f20541660068110156107df576135059015156143bd565b835f52600e8152825f20855f52815260ff835f205416868110156107df5780159081156135fc575b50156135ba57825161353e81613b75565b6001815281810161354f848261440e565b855f52600e8352845f20875f528352845f2091518881101561077057613575908361441a565b5196600388101561075d57507f494d010fdf588a0e83d626ea6963187bdda6f88b7007f7bf280683d3f7dea8349495966135ae91614432565b6117d383518093614007565b8560649184519162461bcd60e51b8352820152601760248201527f50726f706f73616c20616c7265616479206578697374730000000000000000006044820152fd5b60039150148761352d565b823461035357602036600319011261035357613621613b49565b5f546001600160a01b03919061363a90831633146142b6565b16805f526001602052613651825f205415156142ef565b805f52600160205260ff6001835f200154161561368157600192505f52816020525f200160ff1981541690555f80f35b815162461bcd60e51b8152602081850152601760248201527f57616c6c657420616c726561647920696e6163746976650000000000000000006044820152606490fd5b82346103535760a03660031901126103535781356001600160401b038111610353576136f39036908401613c12565b906136fc613b5f565b60443591606435936084356137136103f23361483a565b335f52600195602091878352845f2054956137308551151561415e565b6001600160a01b0381169081156139ef5788156139b957821561397657815f5289855288875f205480155f1461390c5750506137a26137b1928b89519161377683613b75565b8c8352888301908282525f528189528a5f209251835551151591019060ff801983541691151516179055565b885f5260038552865f206141a0565b865f5260028352845f20600560ff198254161790556137cf876141db565b6137da60055461425e565b6005555b4201928342116138f9578798505f975b6137f457005b8051881015610541578888888861380c849c86614280565b516138178282614b56565b5f5289888a60068083528a60ff94858b825f20015416156138eb577f140d483f221b1b41aa3142be8c182589305145aafe83bed53b908d6baff35c1d956003936138618b8a614b56565b5f5286528b825f20015416156138d3575b80519361387e85613ba4565b42855285850190815281850191898352606096878701948552895f52600f8152815f20908c5f52525f2094518555518b850155516002840155519101558b518981528b8b820152428d820152a45b01976137ee565b6138e6886138df614294565b8b8a614941565b613872565b5050505050505050506138cc565b601189634e487b7160e01b5f525260245ffd5b1491506137de905057845162461bcd60e51b8152808a01849052603560248201527f47756573742077616c6c657420616c7265616479207265676973746572656420604482015274746f20646966666572656e74206964656e7469747960581b6064820152608490fd5b865162461bcd60e51b8152808c01869052601960248201527f4475726174696f6e206d75737420626520706f736974697665000000000000006044820152606490fd5b865162461bcd60e51b8152808c01869052601060248201526f125b9d985b1a590819dd595cdd08125160821b6044820152606490fd5b865162461bcd60e51b8152808c018690526014602482015273125b9d985b1a590819dd595cdd081dd85b1b195d60621b6044820152606490fd5b8234610353578060031936011261035357611293602092613a48613b5f565b9035614107565b90503461035357602090602060031936011261035357355f526009602052815f209180519182602085549182815201945f5260205f20915f905b828210613aa1576105d386866108c0828b0383613bda565b835487529586019560019384019390910190613a89565b82346103535761054190613acb36613cd5565b919092613ada6103f23361483a565b613ae78251845114614077565b335f9081526001602052818120546001600160a01b039095168152205490613b108215156140bb565b6148c2565b839034610353576020366003190112610353576020916001600160a01b03613b3b613b49565b165f52600183525f20548152f35b600435906001600160a01b038216820361035357565b602435906001600160a01b038216820361035357565b604081019081106001600160401b03821117613b9057604052565b634e487b7160e01b5f52604160045260245ffd5b608081019081106001600160401b03821117613b9057604052565b602081019081106001600160401b03821117613b9057604052565b90601f801991011681019081106001600160401b03821117613b9057604052565b6001600160401b038111613b905760051b60200190565b9080601f83011215610353576020908235613c2c81613bfb565b93613c3a6040519586613bda565b81855260208086019260051b82010192831161035357602001905b828210613c63575050505090565b81358152908301908301613c55565b9291926001600160401b038211613b905760405191613c9b601f8201601f191660200184613bda565b829481845281830111610353578281602093845f960137010152565b9080601f8301121561035357816020613cd293359101613c72565b90565b6060600319820112610353576001600160401b03916004358381116103535782613d0191600401613c12565b9260249283356001600160a01b03811681036103535793604435928084116103535782602385011215610353578360040135613d3c81613bfb565b94613d4a6040519687613bda565b8186526020946024602088019360051b830101948186116103535760248301935b868510613d7d57505050505050505090565b8435868111610353578891613d9785858594890101613cb7565b815201940193613d6b565b60209060206040818301928281528551809452019301915f5b828110613dc9575050505090565b835185529381019392810192600101613dbb565b6040906003190112610353576004359060243560038110156103535790565b604060031982011261035357600435906001600160401b03821161035357613e2691600401613c12565b9060243590565b606060031982011261035357600435916024356001600160a01b03811681036103535791604435906001600160401b03821161035357613cd291600401613cb7565b6040906003190112610353576004359060243590565b90600182811c92168015613eb3575b6020831014613e9f57565b634e487b7160e01b5f52602260045260245ffd5b91607f1691613e94565b9060405191825f8254613ecf81613e85565b908184526020946001916001811690815f14613f3d5750600114613eff575b505050613efd92500383613bda565b565b5f90815285812095935091905b818310613f25575050613efd93508201015f8080613eee565b85548884018501529485019487945091830191613f0c565b92505050613efd94925060ff191682840152151560051b8201015f8080613eee565b91908251928382525f5b848110613f89575050825f602080949584010152601f8019910116010190565b602081830181015184830182015201613f69565b90613fb5602091949394604084526040840190613f5f565b931515910152565b8054821015613fd2575f5260205f2001905f90565b634e487b7160e01b5f52603260045260245ffd5b906006821015613ff35752565b634e487b7160e01b5f52602160045260245ffd5b906003821015613ff35752565b90929160408201936004811015613ff3578252613efd9160200190614007565b1561403b57565b60405162461bcd60e51b81526020600482015260146024820152732737ba1030b71030b1ba34bb329036b2b6b132b960611b6044820152606490fd5b1561407e57565b60405162461bcd60e51b8152602060048201526015602482015274082e4e4c2f240d8cadccee8d040dad2e6dac2e8c6d605b1b6044820152606490fd5b156140c257565b60405162461bcd60e51b815260206004820152601c60248201527f5461726765742077616c6c6574206e6f742072656769737465726564000000006044820152606490fd5b6001600160a01b039091165f9081526001602052604090205490811561415857614139614132614583565b8383614cbb565b91821561414557505090565b613cd292506141526145a4565b91614cbb565b50505f90565b1561416557565b60405162461bcd60e51b8152602060048201526013602482015272139bc81c9958dbdc991cc81c1c9bdd9a591959606a1b6044820152606490fd5b8054600160401b811015613b90576141bd91600182018155613fbd565b60018060a09493941b038084549260031b9316831b921b1916179055565b600454600160401b811015613b90576001810180600455811015613fd25760045f527f8a35acfbc15ff81a39ae7d344fd709f28e8600b4aa8c65c6b64bfe7fe36bd19b0155565b805490600160401b821015613b90578161424491600161425a94018155613fbd565b819391549060031b91821b915f19901b19161790565b9055565b5f19811461426c5760010190565b634e487b7160e01b5f52601160045260245ffd5b8051821015613fd25760209160051b010190565b604051906142a182613b75565b60068252653b34b2bbb2b960d11b6020830152565b156142bd57565b60405162461bcd60e51b815260206004820152600a60248201526927b7363c9030b236b4b760b11b6044820152606490fd5b156142f657565b60405162461bcd60e51b815260206004820152601560248201527415d85b1b195d081b9bdd081c9959da5cdd195c9959605a1b6044820152606490fd5b1561433a57565b60405162461bcd60e51b815260206004820152600f60248201526e496e76616c6964207472757374656560881b6044820152606490fd5b1561437857565b60405162461bcd60e51b815260206004820152601760248201527f43616e6e6f74206170706f696e7420796f757273656c660000000000000000006044820152606490fd5b156143c457565b60405162461bcd60e51b8152602060048201526016602482015275151c9d5cdd1959481b9bdd081c9959da5cdd195c995960521b6044820152606490fd5b6004821015613ff35752565b6003821015613ff35752565b906004811015613ff35760ff80198354169116179055565b906003811015613ff35761ff0082549160081b169061ff001916179055565b1561445857565b60405162461bcd60e51b815260206004820152601e60248201527f5265636f726420494420686173682063616e6e6f7420626520656d70747900006044820152606490fd5b156144a457565b60405162461bcd60e51b815260206004820152601d60248201527f57616c6c657420616464726573732063616e6e6f74206265207a65726f0000006044820152606490fd5b156144f057565b60405162461bcd60e51b8152602060048201526013602482015272496e76616c696420726f6c6520737472696e6760681b6044820152606490fd5b1561453257565b60405162461bcd60e51b815260206004820152602360248201527f54617267657420646f6573206e6f74206861766520616e2061637469766520726044820152626f6c6560e81b6064820152608490fd5b6040519061459082613b75565b600582526437bbb732b960d91b6020830152565b604051906145b182613b75565b600d82526c30b236b4b734b9ba3930ba37b960991b6020830152565b9392916145f6906145e8604093606088526060880190613f5f565b908682036020880152613f5f565b930152565b919060018060a01b03165f52600160205260405f2054801561462057613cd292614cbb565b5050505f90565b6001600160a01b039091165f90815260016020526040902054908115614689576020929161465491614b56565b5f526006825260405f2060405161466a81613b75565b60ff600161467784613ebd565b93848452015416151593849101529190565b505060405161469781613bbf565b5f8152905f90565b156146a657565b60405162461bcd60e51b8152602060048201526016602482015275496e76616c69642077616c6c6574206164647265737360501b6044820152606490fd5b156146eb57565b60405162461bcd60e51b8152602060048201526014602482015273092dcecc2d8d2c840eae6cae440928840d0c2e6d60631b6044820152606490fd5b1561472e57565b60405162461bcd60e51b815260206004820152601960248201527f57616c6c657420616c72656164792072656769737465726564000000000000006044820152606490fd5b1561477a57565b60405162461bcd60e51b815260206004820152600f60248201526e496e76616c6964206164647265737360881b6044820152606490fd5b156147b857565b60405162461bcd60e51b815260206004820152601e60248201527f4e6f2061637469766520747275737465652072656c6174696f6e7368697000006044820152606490fd5b6001600160a01b039091165f9081526001602052604090205480156141585761482591614b56565b5f52600660205260ff600160405f2001541690565b6001600160a01b03165f90815260016020526040902080549081159081156148b2575b506148ad575f52600260205260ff60405f20541660068110159081613ff357600281149182156148a0575b821561489357505090565b909150613ff35760041490565b506003811491505f614888565b505f90565b60ff91506001015416155f61485d565b9392935f5b815181101561492f57806148e061264960019387614280565b1561492a576148f3876104518386614280565b1561492a57614906846104518386614280565b61492a57614924876149188386614280565b51866126bc858a614280565b016148c7565b614924565b505050509050565b9061482591614b56565b92919261494e8282614b56565b93845f52602060068152604090815f209661496888613ebd565b978851159160ff600180930154169185519061498382613b75565b878252858201818152835f5260068752875f2092518051906001600160401b038211613b90576149b38554613e85565b601f8111614b10575b508890601f8311600114614ac257614a0195949392915f91836120b85750505f19600383901b1c191690831b17835551151591019060ff801983541691151516179055565b5f52600d835287845f2055155f14614a8d5785969750614a448486977ff9d17eb1340ab78960b594ff8bed1349985b800ee21199c6d5ea4a67454593ad97614ea6565b614a67575b614a5c8251938385948552840190613f5f565b9042908301520390a4565b855f52600a8152614a7a85835f20614222565b614a85600b5461425e565b600b55614a49565b50919450508451818601209084519085012003614aab575b50505050565b6120b3614ab9948383614b8a565b5f808080614aa5565b90601f19831691865f528a5f20925f5b8c828210614afc57505091869594929183614a0199989593106120fe57505050811b018355611ff3565b838501518655948801949384019301614ad2565b855f52895f20601f840160051c8101918b8510614b4c575b601f0160051c019085905b828110614b415750506149bc565b5f8155018590614b33565b9091508190614b28565b906040519060208201928352604082015260408152606081018181106001600160401b03821117613b905760405251902090565b8251602080940120614b9a614583565b8051908501208103614bba5750613efd926007915f525260405f20614f29565b614bc26145a4565b8051908501208103614be25750613efd926008915f525260405f20614f29565b614bea614294565b84815191012014614bfa57505050565b613efd926009915f525260405f20614f29565b6001600160a01b03165f9081526001602052604090208054908115908115614c53575b506148ad575f52600260205260ff60405f2054166006811015613ff35760041490565b60ff91506001015416155f614c30565b60208151910120614c72614583565b602081519101208114908115614ca2575b8115614c8d575090565b9050614c97614294565b602081519101201490565b9050614cac6145a4565b60208151910120811490614c83565b60209291614cc891614b56565b5f526006825260405f20604051614cde81613b75565b60ff6001614ceb84613ebd565b938484520154161515938491015282614d0357505090565b9091506020815191012090602081519101201490565b600c546001600160a01b0316918215614620576044602092604051948593849263193d8e7560e21b8452600484015260248301525afa908115614d98575f91614d60575090565b90506020813d602011614d90575b81614d7b60209383613bda565b81010312610353575180151581036103535790565b3d9150614d6e565b6040513d5f823e3d90fd5b6003831015613ff3578215614dee57600191614dbe91614e4f565b9114614dc75790565b80516020820120614dd6614583565b6020815191012014614de55790565b50613cd26145a4565b505050613cd2614294565b6001600160a01b03165f9081526001602052604090208054908115908115614e3f575b506148ad575f52600260205260ff60405f2054166006811015613ff35760031490565b60ff91506001015416155f614e1c565b90614e5991614b56565b5f52600660205260405f2060ff600160405192614e7584613b75565b614e7e81613ebd565b84520154161580156020830152614e93575190565b50604051614ea081613bbf565b5f815290565b8251602080940120614eb6614583565b8051908501208103614ed65750613efd926007915f525260405f20614222565b614ede6145a4565b8051908501208103614efe5750613efd926008915f525260405f20614222565b614f06614294565b84815191012014614f1657505050565b613efd926009915f525260405f20614222565b5f5b81549081811015614aa5578391614f428285613fbd565b959054600396871b1c14614f5c5750909250600101614f2b565b5f19925082810190811161426c57614244614f7a614f879286613fbd565b905490871b1c9285613fbd565b905581548015614fac57810192614f9e8484613fbd565b81939154921b1b1916905555565b634e487b7160e01b5f52603160045260245ffd5b905f8091602081519101845af4808061503e575b15614ff45750506040513d81523d5f602083013e60203d82010160405290565b1561501b57604051639996b31560e01b81526001600160a01b039091166004820152602490fd5b3d1561502c576040513d5f823e3d90fd5b60405163d6bda27560e01b8152600490fd5b503d151580614fd45750813b1515614fd456fea2646970667358221220e9bc4019f36307c403afaa71fdf9894dde26537fa228f303401726cbe86ad77f64736f6c63430008180033",
  "linkReferences": {},
  "deployedLinkReferences": {}
}