{
  "_format": "hh-sol-artifact-1",
  "contractName": "MemberRoleManager",
  "sourceName": "smartContracts/MemberRoleManager.sol",
  "abi": [
    {
      "inputs": [],
      "stateMutability": "nonpayable",
      "type": "constructor"
    },
    {
      "inputs": [
        {
          "internalType": "address",
          "name": "target",
          "type": "address"
        }
      ],
      "name": "AddressEmptyCode",
      "type": "error"
    },
    {
      "inputs": [
        {
          "internalType": "address",
          "name": "implementation",
          "type": "address"
        }
      ],
      "name": "ERC1967InvalidImplementation",
      "type": "error"
    },
    {
      "inputs": [],
      "name": "ERC1967NonPayable",
      "type": "error"
    },
    {
      "inputs": [],
      "name": "FailedCall",
      "type": "error"
    },
    {
      "inputs": [],
      "name": "InvalidInitialization",
      "type": "error"
    },
    {
      "inputs": [],
      "name": "NotInitializing",
      "type": "error"
    },
    {
      "inputs": [],
      "name": "UUPSUnauthorizedCallContext",
      "type": "error"
    },
    {
      "inputs": [
        {
          "internalType": "bytes32",
          "name": "slot",
          "type": "bytes32"
        }
      ],
      "name": "UUPSUnsupportedProxiableUUID",
      "type": "error"
    },
    {
      "anonymous": false,
      "inputs": [
        {
          "indexed": true,
          "internalType": "address",
          "name": "oldAdmin",
          "type": "address"
        },
        {
          "indexed": true,
          "internalType": "address",
          "name": "newAdmin",
          "type": "address"
        },
        {
          "indexed": false,
          "internalType": "uint256",
          "name": "timestamp",
          "type": "uint256"
        }
      ],
      "name": "AdminTransferred",
      "type": "event"
    },
    {
      "anonymous": false,
      "inputs": [
        {
          "indexed": true,
          "internalType": "address",
          "name": "newAddress",
          "type": "address"
        },
        {
          "indexed": false,
          "internalType": "uint256",
          "name": "timestamp",
          "type": "uint256"
        }
      ],
      "name": "HealthRecordCoreUpdated",
      "type": "event"
    },
    {
      "anonymous": false,
      "inputs": [
        {
          "indexed": false,
          "internalType": "uint64",
          "name": "version",
          "type": "uint64"
        }
      ],
      "name": "Initialized",
      "type": "event"
    },
    {
      "anonymous": false,
      "inputs": [
        {
          "indexed": true,
          "internalType": "address",
          "name": "wallet",
          "type": "address"
        },
        {
          "indexed": true,
          "internalType": "bytes32",
          "name": "userIdHash",
          "type": "bytes32"
        },
        {
          "indexed": false,
          "internalType": "uint256",
          "name": "timestamp",
          "type": "uint256"
        }
      ],
      "name": "MemberRegistered",
      "type": "event"
    },
    {
      "anonymous": false,
      "inputs": [
        {
          "indexed": true,
          "internalType": "bytes32",
          "name": "userIdHash",
          "type": "bytes32"
        },
        {
          "indexed": false,
          "internalType": "enum MemberRoleManager.MemberStatus",
          "name": "oldStatus",
          "type": "uint8"
        },
        {
          "indexed": false,
          "internalType": "enum MemberRoleManager.MemberStatus",
          "name": "newStatus",
          "type": "uint8"
        },
        {
          "indexed": true,
          "internalType": "address",
          "name": "changedBy",
          "type": "address"
        },
        {
          "indexed": false,
          "internalType": "uint256",
          "name": "timestamp",
          "type": "uint256"
        }
      ],
      "name": "MemberStatusChanged",
      "type": "event"
    },
    {
      "anonymous": false,
      "inputs": [
        {
          "indexed": true,
          "internalType": "string",
          "name": "recordId",
          "type": "string"
        },
        {
          "indexed": true,
          "internalType": "bytes32",
          "name": "userIdHash",
          "type": "bytes32"
        },
        {
          "indexed": false,
          "internalType": "uint256",
          "name": "timestamp",
          "type": "uint256"
        }
      ],
      "name": "OwnershipVoluntarilyLeft",
      "type": "event"
    },
    {
      "anonymous": false,
      "inputs": [
        {
          "indexed": true,
          "internalType": "string",
          "name": "recordId",
          "type": "string"
        },
        {
          "indexed": true,
          "internalType": "bytes32",
          "name": "targetIdHash",
          "type": "bytes32"
        },
        {
          "indexed": false,
          "internalType": "string",
          "name": "oldRole",
          "type": "string"
        },
        {
          "indexed": false,
          "internalType": "string",
          "name": "newRole",
          "type": "string"
        },
        {
          "indexed": true,
          "internalType": "bytes32",
          "name": "userIdHash",
          "type": "bytes32"
        },
        {
          "indexed": false,
          "internalType": "uint256",
          "name": "timestamp",
          "type": "uint256"
        }
      ],
      "name": "RoleChanged",
      "type": "event"
    },
    {
      "anonymous": false,
      "inputs": [
        {
          "indexed": true,
          "internalType": "string",
          "name": "recordId",
          "type": "string"
        },
        {
          "indexed": true,
          "internalType": "bytes32",
          "name": "targetIdHash",
          "type": "bytes32"
        },
        {
          "indexed": false,
          "internalType": "string",
          "name": "role",
          "type": "string"
        },
        {
          "indexed": true,
          "internalType": "bytes32",
          "name": "userIdHash",
          "type": "bytes32"
        },
        {
          "indexed": false,
          "internalType": "uint256",
          "name": "timestamp",
          "type": "uint256"
        }
      ],
      "name": "RoleGranted",
      "type": "event"
    },
    {
      "anonymous": false,
      "inputs": [
        {
          "indexed": true,
          "internalType": "string",
          "name": "recordId",
          "type": "string"
        },
        {
          "indexed": true,
          "internalType": "bytes32",
          "name": "targetIdHash",
          "type": "bytes32"
        },
        {
          "indexed": false,
          "internalType": "string",
          "name": "role",
          "type": "string"
        },
        {
          "indexed": true,
          "internalType": "bytes32",
          "name": "userIdHash",
          "type": "bytes32"
        },
        {
          "indexed": false,
          "internalType": "uint256",
          "name": "timestamp",
          "type": "uint256"
        }
      ],
      "name": "RoleRevoked",
      "type": "event"
    },
    {
      "anonymous": false,
      "inputs": [
        {
          "indexed": true,
          "internalType": "bytes32",
          "name": "trustorIdHash",
          "type": "bytes32"
        },
        {
          "indexed": true,
          "internalType": "bytes32",
          "name": "trusteeIdHash",
          "type": "bytes32"
        },
        {
          "indexed": false,
          "internalType": "enum MemberRoleManager.TrusteeLevel",
          "name": "level",
          "type": "uint8"
        },
        {
          "indexed": false,
          "internalType": "uint256",
          "name": "timestamp",
          "type": "uint256"
        }
      ],
      "name": "TrusteeAccepted",
      "type": "event"
    },
    {
      "anonymous": false,
      "inputs": [
        {
          "indexed": true,
          "internalType": "bytes32",
          "name": "trustorIdHash",
          "type": "bytes32"
        },
        {
          "indexed": true,
          "internalType": "bytes32",
          "name": "trusteeIdHash",
          "type": "bytes32"
        },
        {
          "indexed": false,
          "internalType": "enum MemberRoleManager.TrusteeLevel",
          "name": "level",
          "type": "uint8"
        },
        {
          "indexed": false,
          "internalType": "uint256",
          "name": "timestamp",
          "type": "uint256"
        }
      ],
      "name": "TrusteeProposed",
      "type": "event"
    },
    {
      "anonymous": false,
      "inputs": [
        {
          "indexed": true,
          "internalType": "bytes32",
          "name": "trustorIdHash",
          "type": "bytes32"
        },
        {
          "indexed": true,
          "internalType": "bytes32",
          "name": "trusteeIdHash",
          "type": "bytes32"
        },
        {
          "indexed": true,
          "internalType": "bytes32",
          "name": "revokedBy",
          "type": "bytes32"
        },
        {
          "indexed": false,
          "internalType": "uint256",
          "name": "timestamp",
          "type": "uint256"
        }
      ],
      "name": "TrusteeRevoked",
      "type": "event"
    },
    {
      "anonymous": false,
      "inputs": [
        {
          "indexed": true,
          "internalType": "address",
          "name": "implementation",
          "type": "address"
        }
      ],
      "name": "Upgraded",
      "type": "event"
    },
    {
      "anonymous": false,
      "inputs": [
        {
          "indexed": true,
          "internalType": "address",
          "name": "wallet",
          "type": "address"
        },
        {
          "indexed": true,
          "internalType": "bytes32",
          "name": "userIdHash",
          "type": "bytes32"
        },
        {
          "indexed": false,
          "internalType": "uint256",
          "name": "timestamp",
          "type": "uint256"
        }
      ],
      "name": "WalletLinked",
      "type": "event"
    },
    {
      "inputs": [],
      "name": "UPGRADE_INTERFACE_VERSION",
      "outputs": [
        {
          "internalType": "string",
          "name": "",
          "type": "string"
        }
      ],
      "stateMutability": "view",
      "type": "function"
    },
    {
      "inputs": [
        {
          "internalType": "bytes32",
          "name": "trustorIdHash",
          "type": "bytes32"
        }
      ],
      "name": "acceptTrustee",
      "outputs": [],
      "stateMutability": "nonpayable",
      "type": "function"
    },
    {
      "inputs": [
        {
          "internalType": "address",
          "name": "wallet",
          "type": "address"
        },
        {
          "internalType": "bytes32",
          "name": "userIdHash",
          "type": "bytes32"
        }
      ],
      "name": "addMember",
      "outputs": [],
      "stateMutability": "nonpayable",
      "type": "function"
    },
    {
      "inputs": [],
      "name": "admin",
      "outputs": [
        {
          "internalType": "address",
          "name": "",
          "type": "address"
        }
      ],
      "stateMutability": "view",
      "type": "function"
    },
    {
      "inputs": [
        {
          "internalType": "string",
          "name": "",
          "type": "string"
        },
        {
          "internalType": "uint256",
          "name": "",
          "type": "uint256"
        }
      ],
      "name": "adminsByRecord",
      "outputs": [
        {
          "internalType": "bytes32",
          "name": "",
          "type": "bytes32"
        }
      ],
      "stateMutability": "view",
      "type": "function"
    },
    {
      "inputs": [
        {
          "internalType": "string",
          "name": "recordId",
          "type": "string"
        },
        {
          "internalType": "address",
          "name": "targetWallet",
          "type": "address"
        },
        {
          "internalType": "string",
          "name": "newRole",
          "type": "string"
        }
      ],
      "name": "changeRole",
      "outputs": [],
      "stateMutability": "nonpayable",
      "type": "function"
    },
    {
      "inputs": [
        {
          "internalType": "string[]",
          "name": "recordIds",
          "type": "string[]"
        },
        {
          "internalType": "address",
          "name": "targetWallet",
          "type": "address"
        },
        {
          "internalType": "string[]",
          "name": "newRoles",
          "type": "string[]"
        }
      ],
      "name": "changeRoleBatch",
      "outputs": [],
      "stateMutability": "nonpayable",
      "type": "function"
    },
    {
      "inputs": [
        {
          "internalType": "address",
          "name": "wallet",
          "type": "address"
        }
      ],
      "name": "deactivateWallet",
      "outputs": [],
      "stateMutability": "nonpayable",
      "type": "function"
    },
    {
      "inputs": [],
      "name": "getAllUsers",
      "outputs": [
        {
          "internalType": "bytes32[]",
          "name": "",
          "type": "bytes32[]"
        }
      ],
      "stateMutability": "view",
      "type": "function"
    },
    {
      "inputs": [],
      "name": "getHealthRecordCore",
      "outputs": [
        {
          "internalType": "address",
          "name": "",
          "type": "address"
        }
      ],
      "stateMutability": "view",
      "type": "function"
    },
    {
      "inputs": [
        {
          "internalType": "string",
          "name": "recordId",
          "type": "string"
        }
      ],
      "name": "getRecordAdmins",
      "outputs": [
        {
          "internalType": "bytes32[]",
          "name": "",
          "type": "bytes32[]"
        }
      ],
      "stateMutability": "view",
      "type": "function"
    },
    {
      "inputs": [
        {
          "internalType": "string",
          "name": "recordId",
          "type": "string"
        }
      ],
      "name": "getRecordOwners",
      "outputs": [
        {
          "internalType": "bytes32[]",
          "name": "",
          "type": "bytes32[]"
        }
      ],
      "stateMutability": "view",
      "type": "function"
    },
    {
      "inputs": [
        {
          "internalType": "string",
          "name": "recordId",
          "type": "string"
        }
      ],
      "name": "getRecordRoleStats",
      "outputs": [
        {
          "internalType": "uint256",
          "name": "ownerCount",
          "type": "uint256"
        },
        {
          "internalType": "uint256",
          "name": "adminCount",
          "type": "uint256"
        },
        {
          "internalType": "uint256",
          "name": "viewerCount",
          "type": "uint256"
        }
      ],
      "stateMutability": "view",
      "type": "function"
    },
    {
      "inputs": [
        {
          "internalType": "string",
          "name": "recordId",
          "type": "string"
        }
      ],
      "name": "getRecordViewers",
      "outputs": [
        {
          "internalType": "bytes32[]",
          "name": "",
          "type": "bytes32[]"
        }
      ],
      "stateMutability": "view",
      "type": "function"
    },
    {
      "inputs": [
        {
          "internalType": "bytes32",
          "name": "userIdHash",
          "type": "bytes32"
        }
      ],
      "name": "getRecordsByUser",
      "outputs": [
        {
          "internalType": "string[]",
          "name": "",
          "type": "string[]"
        }
      ],
      "stateMutability": "view",
      "type": "function"
    },
    {
      "inputs": [
        {
          "internalType": "string",
          "name": "recordId",
          "type": "string"
        },
        {
          "internalType": "address",
          "name": "wallet",
          "type": "address"
        }
      ],
      "name": "getRoleDetails",
      "outputs": [
        {
          "internalType": "string",
          "name": "role",
          "type": "string"
        },
        {
          "internalType": "bool",
          "name": "isActive",
          "type": "bool"
        }
      ],
      "stateMutability": "view",
      "type": "function"
    },
    {
      "inputs": [
        {
          "internalType": "string",
          "name": "recordId",
          "type": "string"
        },
        {
          "internalType": "bytes32",
          "name": "userIdHash",
          "type": "bytes32"
        }
      ],
      "name": "getRoleDetailsByUser",
      "outputs": [
        {
          "internalType": "string",
          "name": "role",
          "type": "string"
        },
        {
          "internalType": "bool",
          "name": "isActive",
          "type": "bool"
        }
      ],
      "stateMutability": "view",
      "type": "function"
    },
    {
      "inputs": [
        {
          "internalType": "string",
          "name": "recordId",
          "type": "string"
        },
        {
          "internalType": "bytes32",
          "name": "userIdHash",
          "type": "bytes32"
        }
      ],
      "name": "getRoleGranter",
      "outputs": [
        {
          "internalType": "bytes32",
          "name": "",
          "type": "bytes32"
        }
      ],
      "stateMutability": "view",
      "type": "function"
    },
    {
      "inputs": [],
      "name": "getTotalRoles",
      "outputs": [
        {
          "internalType": "uint256",
          "name": "",
          "type": "uint256"
        }
      ],
      "stateMutability": "view",
      "type": "function"
    },
    {
      "inputs": [],
      "name": "getTotalUsers",
      "outputs": [
        {
          "internalType": "uint256",
          "name": "",
          "type": "uint256"
        }
      ],
      "stateMutability": "view",
      "type": "function"
    },
    {
      "inputs": [
        {
          "internalType": "bytes32",
          "name": "trustorIdHash",
          "type": "bytes32"
        },
        {
          "internalType": "bytes32",
          "name": "trusteeIdHash",
          "type": "bytes32"
        }
      ],
      "name": "getTrusteeRelationship",
      "outputs": [
        {
          "internalType": "enum MemberRoleManager.TrusteeStatus",
          "name": "status",
          "type": "uint8"
        },
        {
          "internalType": "enum MemberRoleManager.TrusteeLevel",
          "name": "level",
          "type": "uint8"
        }
      ],
      "stateMutability": "view",
      "type": "function"
    },
    {
      "inputs": [
        {
          "internalType": "address",
          "name": "wallet",
          "type": "address"
        }
      ],
      "name": "getUserForWallet",
      "outputs": [
        {
          "internalType": "bytes32",
          "name": "",
          "type": "bytes32"
        }
      ],
      "stateMutability": "view",
      "type": "function"
    },
    {
      "inputs": [
        {
          "internalType": "bytes32",
          "name": "userIdHash",
          "type": "bytes32"
        }
      ],
      "name": "getUserStatus",
      "outputs": [
        {
          "internalType": "enum MemberRoleManager.MemberStatus",
          "name": "status",
          "type": "uint8"
        }
      ],
      "stateMutability": "view",
      "type": "function"
    },
    {
      "inputs": [
        {
          "internalType": "bytes32",
          "name": "userIdHash",
          "type": "bytes32"
        }
      ],
      "name": "getWalletsForUser",
      "outputs": [
        {
          "internalType": "address[]",
          "name": "",
          "type": "address[]"
        }
      ],
      "stateMutability": "view",
      "type": "function"
    },
    {
      "inputs": [
        {
          "internalType": "string",
          "name": "recordId",
          "type": "string"
        },
        {
          "internalType": "address",
          "name": "targetWallet",
          "type": "address"
        },
        {
          "internalType": "string",
          "name": "role",
          "type": "string"
        }
      ],
      "name": "grantRole",
      "outputs": [],
      "stateMutability": "nonpayable",
      "type": "function"
    },
    {
      "inputs": [
        {
          "internalType": "string[]",
          "name": "recordIds",
          "type": "string[]"
        },
        {
          "internalType": "bytes32",
          "name": "trustorIdHash",
          "type": "bytes32"
        }
      ],
      "name": "grantRoleAsTrusteeBatch",
      "outputs": [],
      "stateMutability": "nonpayable",
      "type": "function"
    },
    {
      "inputs": [
        {
          "internalType": "string[]",
          "name": "recordIds",
          "type": "string[]"
        },
        {
          "internalType": "address",
          "name": "targetWallet",
          "type": "address"
        },
        {
          "internalType": "string[]",
          "name": "roles",
          "type": "string[]"
        }
      ],
      "name": "grantRoleBatch",
      "outputs": [],
      "stateMutability": "nonpayable",
      "type": "function"
    },
    {
      "inputs": [
        {
          "internalType": "string",
          "name": "recordId",
          "type": "string"
        },
        {
          "internalType": "address",
          "name": "wallet",
          "type": "address"
        }
      ],
      "name": "hasActiveRole",
      "outputs": [
        {
          "internalType": "bool",
          "name": "",
          "type": "bool"
        }
      ],
      "stateMutability": "view",
      "type": "function"
    },
    {
      "inputs": [
        {
          "internalType": "string",
          "name": "recordId",
          "type": "string"
        },
        {
          "internalType": "address",
          "name": "wallet",
          "type": "address"
        },
        {
          "internalType": "string",
          "name": "role",
          "type": "string"
        }
      ],
      "name": "hasRole",
      "outputs": [
        {
          "internalType": "bool",
          "name": "",
          "type": "bool"
        }
      ],
      "stateMutability": "view",
      "type": "function"
    },
    {
      "inputs": [],
      "name": "healthRecordCore",
      "outputs": [
        {
          "internalType": "contract HealthRecordCoreInterface",
          "name": "",
          "type": "address"
        }
      ],
      "stateMutability": "view",
      "type": "function"
    },
    {
      "inputs": [],
      "name": "initialize",
      "outputs": [],
      "stateMutability": "nonpayable",
      "type": "function"
    },
    {
      "inputs": [
        {
          "internalType": "string",
          "name": "recordId",
          "type": "string"
        },
        {
          "internalType": "address",
          "name": "targetWallet",
          "type": "address"
        },
        {
          "internalType": "string",
          "name": "role",
          "type": "string"
        }
      ],
      "name": "initializeRecordRole",
      "outputs": [],
      "stateMutability": "nonpayable",
      "type": "function"
    },
    {
      "inputs": [
        {
          "internalType": "address",
          "name": "wallet",
          "type": "address"
        }
      ],
      "name": "isActiveMember",
      "outputs": [
        {
          "internalType": "bool",
          "name": "",
          "type": "bool"
        }
      ],
      "stateMutability": "view",
      "type": "function"
    },
    {
      "inputs": [
        {
          "internalType": "string",
          "name": "recordId",
          "type": "string"
        },
        {
          "internalType": "bytes32",
          "name": "userIdHash",
          "type": "bytes32"
        }
      ],
      "name": "isActiveSubject",
      "outputs": [
        {
          "internalType": "bool",
          "name": "",
          "type": "bool"
        }
      ],
      "stateMutability": "view",
      "type": "function"
    },
    {
      "inputs": [
        {
          "internalType": "bytes32",
          "name": "trustorIdHash",
          "type": "bytes32"
        },
        {
          "internalType": "bytes32",
          "name": "trusteeIdHash",
          "type": "bytes32"
        }
      ],
      "name": "isControllerOf",
      "outputs": [
        {
          "internalType": "bool",
          "name": "",
          "type": "bool"
        }
      ],
      "stateMutability": "view",
      "type": "function"
    },
    {
      "inputs": [
        {
          "internalType": "string",
          "name": "recordId",
          "type": "string"
        },
        {
          "internalType": "address",
          "name": "wallet",
          "type": "address"
        }
      ],
      "name": "isOwnerOrAdmin",
      "outputs": [
        {
          "internalType": "bool",
          "name": "",
          "type": "bool"
        }
      ],
      "stateMutability": "view",
      "type": "function"
    },
    {
      "inputs": [
        {
          "internalType": "address",
          "name": "wallet",
          "type": "address"
        }
      ],
      "name": "isVerifiedMember",
      "outputs": [
        {
          "internalType": "bool",
          "name": "",
          "type": "bool"
        }
      ],
      "stateMutability": "view",
      "type": "function"
    },
    {
      "inputs": [
        {
          "internalType": "address",
          "name": "wallet",
          "type": "address"
        }
      ],
      "name": "isVerifiedProvider",
      "outputs": [
        {
          "internalType": "bool",
          "name": "",
          "type": "bool"
        }
      ],
      "stateMutability": "view",
      "type": "function"
    },
    {
      "inputs": [
        {
          "internalType": "string",
          "name": "",
          "type": "string"
        },
        {
          "internalType": "uint256",
          "name": "",
          "type": "uint256"
        }
      ],
      "name": "ownersByRecord",
      "outputs": [
        {
          "internalType": "bytes32",
          "name": "",
          "type": "bytes32"
        }
      ],
      "stateMutability": "view",
      "type": "function"
    },
    {
      "inputs": [
        {
          "internalType": "bytes32",
          "name": "trusteeIdHash",
          "type": "bytes32"
        },
        {
          "internalType": "enum MemberRoleManager.TrusteeLevel",
          "name": "level",
          "type": "uint8"
        }
      ],
      "name": "proposeTrustee",
      "outputs": [],
      "stateMutability": "nonpayable",
      "type": "function"
    },
    {
      "inputs": [],
      "name": "proxiableUUID",
      "outputs": [
        {
          "internalType": "bytes32",
          "name": "",
          "type": "bytes32"
        }
      ],
      "stateMutability": "view",
      "type": "function"
    },
    {
      "inputs": [
        {
          "internalType": "address",
          "name": "wallet",
          "type": "address"
        }
      ],
      "name": "reactivateWallet",
      "outputs": [],
      "stateMutability": "nonpayable",
      "type": "function"
    },
    {
      "inputs": [
        {
          "internalType": "bytes32",
          "name": "",
          "type": "bytes32"
        }
      ],
      "name": "recordRoles",
      "outputs": [
        {
          "internalType": "string",
          "name": "role",
          "type": "string"
        },
        {
          "internalType": "bool",
          "name": "isActive",
          "type": "bool"
        }
      ],
      "stateMutability": "view",
      "type": "function"
    },
    {
      "inputs": [
        {
          "internalType": "bytes32",
          "name": "",
          "type": "bytes32"
        },
        {
          "internalType": "uint256",
          "name": "",
          "type": "uint256"
        }
      ],
      "name": "recordsByUser",
      "outputs": [
        {
          "internalType": "string",
          "name": "",
          "type": "string"
        }
      ],
      "stateMutability": "view",
      "type": "function"
    },
    {
      "inputs": [
        {
          "internalType": "string",
          "name": "recordId",
          "type": "string"
        },
        {
          "internalType": "address",
          "name": "targetWallet",
          "type": "address"
        }
      ],
      "name": "revokeRole",
      "outputs": [],
      "stateMutability": "nonpayable",
      "type": "function"
    },
    {
      "inputs": [
        {
          "internalType": "string[]",
          "name": "recordIds",
          "type": "string[]"
        },
        {
          "internalType": "address",
          "name": "targetWallet",
          "type": "address"
        }
      ],
      "name": "revokeRoleBatch",
      "outputs": [],
      "stateMutability": "nonpayable",
      "type": "function"
    },
    {
      "inputs": [
        {
          "internalType": "bytes32",
          "name": "trustorIdHash",
          "type": "bytes32"
        },
        {
          "internalType": "bytes32",
          "name": "trusteeIdHash",
          "type": "bytes32"
        }
      ],
      "name": "revokeTrustee",
      "outputs": [],
      "stateMutability": "nonpayable",
      "type": "function"
    },
    {
      "inputs": [
        {
          "internalType": "bytes32",
          "name": "",
          "type": "bytes32"
        }
      ],
      "name": "roleGrantedBy",
      "outputs": [
        {
          "internalType": "bytes32",
          "name": "",
          "type": "bytes32"
        }
      ],
      "stateMutability": "view",
      "type": "function"
    },
    {
      "inputs": [
        {
          "internalType": "address",
          "name": "_healthRecordCore",
          "type": "address"
        }
      ],
      "name": "setHealthRecordCore",
      "outputs": [],
      "stateMutability": "nonpayable",
      "type": "function"
    },
    {
      "inputs": [
        {
          "internalType": "bytes32",
          "name": "userIdHash",
          "type": "bytes32"
        },
        {
          "internalType": "enum MemberRoleManager.MemberStatus",
          "name": "newStatus",
          "type": "uint8"
        }
      ],
      "name": "setUserStatus",
      "outputs": [],
      "stateMutability": "nonpayable",
      "type": "function"
    },
    {
      "inputs": [],
      "name": "totalRoles",
      "outputs": [
        {
          "internalType": "uint256",
          "name": "",
          "type": "uint256"
        }
      ],
      "stateMutability": "view",
      "type": "function"
    },
    {
      "inputs": [],
      "name": "totalUsers",
      "outputs": [
        {
          "internalType": "uint256",
          "name": "",
          "type": "uint256"
        }
      ],
      "stateMutability": "view",
      "type": "function"
    },
    {
      "inputs": [
        {
          "internalType": "address",
          "name": "newAdmin",
          "type": "address"
        }
      ],
      "name": "transferAdmin",
      "outputs": [],
      "stateMutability": "nonpayable",
      "type": "function"
    },
    {
      "inputs": [
        {
          "internalType": "bytes32",
          "name": "",
          "type": "bytes32"
        },
        {
          "internalType": "bytes32",
          "name": "",
          "type": "bytes32"
        }
      ],
      "name": "trusteeRelationships",
      "outputs": [
        {
          "internalType": "enum MemberRoleManager.TrusteeStatus",
          "name": "status",
          "type": "uint8"
        },
        {
          "internalType": "enum MemberRoleManager.TrusteeLevel",
          "name": "level",
          "type": "uint8"
        }
      ],
      "stateMutability": "view",
      "type": "function"
    },
    {
      "inputs": [
        {
          "internalType": "address",
          "name": "newImplementation",
          "type": "address"
        },
        {
          "internalType": "bytes",
          "name": "data",
          "type": "bytes"
        }
      ],
      "name": "upgradeToAndCall",
      "outputs": [],
      "stateMutability": "payable",
      "type": "function"
    },
    {
      "inputs": [
        {
          "internalType": "uint256",
          "name": "",
          "type": "uint256"
        }
      ],
      "name": "userList",
      "outputs": [
        {
          "internalType": "bytes32",
          "name": "",
          "type": "bytes32"
        }
      ],
      "stateMutability": "view",
      "type": "function"
    },
    {
      "inputs": [
        {
          "internalType": "bytes32",
          "name": "",
          "type": "bytes32"
        }
      ],
      "name": "userStatus",
      "outputs": [
        {
          "internalType": "enum MemberRoleManager.MemberStatus",
          "name": "",
          "type": "uint8"
        }
      ],
      "stateMutability": "view",
      "type": "function"
    },
    {
      "inputs": [
        {
          "internalType": "bytes32",
          "name": "",
          "type": "bytes32"
        },
        {
          "internalType": "uint256",
          "name": "",
          "type": "uint256"
        }
      ],
      "name": "userWallets",
      "outputs": [
        {
          "internalType": "address",
          "name": "",
          "type": "address"
        }
      ],
      "stateMutability": "view",
      "type": "function"
    },
    {
      "inputs": [
        {
          "internalType": "string",
          "name": "",
          "type": "string"
        },
        {
          "internalType": "uint256",
          "name": "",
          "type": "uint256"
        }
      ],
      "name": "viewersByRecord",
      "outputs": [
        {
          "internalType": "bytes32",
          "name": "",
          "type": "bytes32"
        }
      ],
      "stateMutability": "view",
      "type": "function"
    },
    {
      "inputs": [
        {
          "internalType": "string",
          "name": "recordId",
          "type": "string"
        }
      ],
      "name": "voluntarilyLeaveOwnership",
      "outputs": [],
      "stateMutability": "nonpayable",
      "type": "function"
    },
    {
      "inputs": [
        {
          "internalType": "address",
          "name": "",
          "type": "address"
        }
      ],
      "name": "wallets",
      "outputs": [
        {
          "internalType": "bytes32",
          "name": "userIdHash",
          "type": "bytes32"
        },
        {
          "internalType": "bool",
          "name": "isWalletActive",
          "type": "bool"
        }
      ],
      "stateMutability": "view",
      "type": "function"
    }
  ],
  "bytecode": "0x60a08060405234620000d157306080527ff0c57e16840df040f15088dc2f81fe391c3923bec73e23a9662efc9c229c6a009081549060ff8260401c16620000c257506001600160401b036002600160401b0319828216016200007c575b60405161470a9081620000d682396080518181816125ee015261273b0152f35b6001600160401b031990911681179091556040519081527fc7f505b2f371ae2175ee4913f4499e1f2633a7b5936321eed1cdaeb6115181d290602090a15f80806200005c565b63f92ee8a960e01b8152600490fd5b5f80fdfe6080604081815260049182361015610015575f80fd5b5f3560e01c908162b0c8091461336c575080630b3ffd1d146132af5780631435b558146132945780631a95aca51461320d5780631c0c18d814612fbb578063259ed80e14612f965780633310559214612f595780633575c39114612ca45780633dd1e8fc14612c1d57806341d8bde314612b7d57806345ecd02f14612b5857806349df7208146128e85780634b6feb7c14611bfd5780634f1ef286146126eb578063510b30031461265257806352d1902d146125db578063557ee54f1461254d578063562c788e146106505780636544b05b14612481578063668a461e146122ca578063679084e9146122a45780636b4bed9714610375578063731f21a014611e5b57806374926cda14611c9957806375829def14611c1b578063790e118c14611bfd5780637b657d0714611bc05780638129fc1c14611aa357806389b08f1114611a5e5780639443cd8014611a1857806396207e02146118c7578063970ee5b9146118935780639915b91f146117f65780639be572f614610fbf5780639f4216e8146117aa578063a0ca13c31461178f578063a5c3dc3c14611635578063ad3cb1cc146115f1578063b55aefcc146115bd578063b8cab84b146114e2578063bb0f86d51461142b578063bb20b17214610fdd578063bff1f9e114610fbf578063c0f0ed7e14610f60578063c715582314610ee4578063c979c9bf14610d80578063cabdd23f14610d65578063cb261a0314610d40578063cda06c6e14610d19578063d12a776814610c6a578063daa9dc23146106f8578063e2842d7914610678578063e94ed25714610650578063e965bfb7146105fa578063eb2bbf25146105d1578063ed8d7b37146103fe578063ee4e5828146103a6578063f29e007b14610375578063f3ac2bea14610351578063f851a4401461032a5763fa7a6bcc146102bd575f80fd5b34610326576102cb36613697565b905f52600a602052815f20908154811015610326576102e9916137c2565b92909261031457506102fd61031092613538565b90519182916020835260208301906135fb565b0390f35b5f90634e487b7160e01b82525260245ffd5b5f80fd5b5034610326575f366003190112610326575f5490516001600160a01b039091168152602090f35b50346103265760209061036c61036636613743565b9061437b565b90519015158152f35b503461032657602036600319011261032657602091355f52600282526103a460ff825f20541691518092613774565bf35b5034610326576020906103c16103bb36613743565b9061421a565b5f5260068252610310815f209180516103d9816133b6565b60ff60016103e686613538565b95868452015416151594859101525192839283613620565b5034610326576020806003193601126103265782356001600160401b0381116103265761042e9036908501613466565b61043a8151151561395d565b335f5260018252825f205493610458610451613b92565b8684614255565b1561058257835161049684600185519382818189019661047981838a6135da565b8101600781520301902054119287518093819288519283916135da565b81016008815203019020541515811561057a575b501561051d575090610515826104e1867f3bb3693064733b9a7d6d41bee69f302fcbefbe827ea4011400530c9ba9cb49c39561421a565b6104f36104ec613b92565b88846142b3565b5f52600683526001855f200160ff198154169055600d83525f85812055613bfe565b9251428152a3005b835162461bcd60e51b8152908101839052603160248201527f43616e6e6f74206c65617665206173206c617374206f776e65722077697468206044820152706e6f2061646d696e6973747261746f727360781b6064820152608490fd5b90505f6104aa565b835162461bcd60e51b8152908101839052602360248201527f596f7520617265206e6f7420616e206f776e6572206f662074686973207265636044820152621bdc9960ea1b6064820152608490fd5b503461032657610310906105ed6105e736613484565b90613d4b565b9290915192839283613620565b50346103265760209061062361060f36613743565b9390818451938285809451938492016135da565b81016008815203019020805483101561032657602092610642916137c2565b91905490519160031b1c8152f35b5034610326575f36600319011261032657600c5490516001600160a01b039091168152602090f35b5034610326575f366003190112610326578051908183548082526020809201945f527f8a35acfbc15ff81a39ae7d344fd709f28e8600b4aa8c65c6b64bfe7fe36bd19b915f905b8282106106e15761031086866106d7828b0383613400565b51918291826134c5565b8354875295860195600193840193909101906106bf565b5090346103265761070836613640565b93919061071c61071733613dcd565b613902565b6107288251151561395d565b6001600160a01b03169361073d851515613aa2565b61074e61074982613e8e565b6139ee565b335f5260209160018352835f2054955f52835f20549461076f861515613aee565b82518484012093610780878461421a565b805f526006825261079960ff6001895f20015416613b3a565b5f52600681526107aa865f20613538565b94855182870120818114610c27576107c0613b92565b8381519101208114610bb2578751918551928481818901956107e38183896135da565b810160078152030190205415918b8315610818610808610801613b92565b848c614255565b92610811613bb3565b908b614255565b90610821613b92565b80519089012085036109fc571561099f57501561095e575b610841613bb3565b858151910120149081610947575b506108a6575b50505050906108a16108948361088f89858a7fea2c9ebe68919ddf880b3221d8d508d908163d0973e8b79df108f5d110d0c6339998613fed565b613bfe565b9451928392429184613cf1565b0390a4005b6108b1575b80610855565b6108c88260019289518093819289519283916135da565b810160088152030190205411156108df57806108ab565b855162461bcd60e51b815291820152603960248201527f43616e6e6f742064656d6f746520746865206c6173742061646d696e6973747260448201527f61746f72207768656e206e6f206f776e65722065786973747300000000000000606482015260849150fd5b9050610951613bdc565b848151910120145f61084f565b60648686808d519262461bcd60e51b845283015260248201527f4f6e6c79206f776e6572732063616e2070726f6d6f746520746f206f776e65726044820152fd5b905061083957895162461bcd60e51b8152808701869052602b60248201527f4f6e6c792061646d696e6973747261746f72732063616e2070726f6d6f74652060448201526a3334b939ba1037bbb732b960a91b6064820152608490fd5b610a04613bb3565b8051908901208503610a8e57508115610a86575b5061083957895162461bcd60e51b8152808701869052603b60248201527f4f6e6c79206f776e65727320616e642061646d696e6973747261746f7273206360448201527f616e2070726f6d6f746520746f2061646d696e6973747261746f7200000000006064820152608490fd5b90505f610a18565b610a96613bdc565b8881519101208514610aab575b505050610839565b15610b58578115610b41575b5015610ac6575b5f8080610aa3565b895162461bcd60e51b8152808701869052604960248201527f4f6e6c79206f776e6572732063616e2064656d6f7465206f74686572732e204160448201527f646d696e6973747261746f72732063616e206f6e6c792064656d6f746520746860648201526832b6b9b2b63b32b99760b91b608482015260a490fd5b905080610b4f575b5f610ab7565b508a8c14610b49565b9050610abe57895162461bcd60e51b8152808701869052602860248201527f4f6e6c792061646d696e6973747261746f72732063616e2064656d6f7465207460448201526737903b34b2bbb2b960c11b6064820152608490fd5b875162461bcd60e51b8152808501849052604360248201527f4f776e6572732063616e6e6f742062652064656d6f7465642e204f776e65722060448201527f6d75737420766f6c756e746172696c792072656d6f7665207468656d73656c7660648201526232b99760e91b608482015260a490fd5b875162461bcd60e51b8152808501849052601c60248201527f54617267657420616c726561647920686173207468697320726f6c65000000006044820152606490fd5b5090346103265760209081600319360112610326578290355f5260038252805f208151928381835491828152019081935f52825f20905f5b818110610cfc5750505084610cb8910385613400565b825181815293518185018190528493840192915f5b828110610cdc57505050500390f35b83516001600160a01b031685528695509381019392810192600101610ccd565b82546001600160a01b031684529284019260019283019201610ca2565b503461032657602036600319011261032657602091355f52600d8252805f20549051908152f35b50346103265760203660031901126103265760209061036c610d606133a0565b61446e565b50346103265760209061036c610d7a36613640565b91613d1f565b503461032657610d8f36613697565b91610d9c61071733613dcd565b335f5260209060018252805f2054948386148015610edb575b15610e9b57835f52600e8352815f20855f52835260ff825f20541681811015610e885760028114908115610e7d575b5015610e325750907f6df3a6475fab2eed139f7e469995b04e85bfc5b4b8642587109cb72541f74fae91835f52600e8252805f20855f528252805f20600360ff1982541617905551428152a4005b82608492519162461bcd60e51b8352820152602160248201527f4e6f20616374697665206f722070656e64696e672072656c6174696f6e7368696044820152600760fc1b6064820152fd5b60019150145f610de4565b602182634e487b7160e01b5f525260245ffd5b8280606493519262461bcd60e51b845283015260248201527f4e6f74206120706172747920746f20746869732072656c6174696f6e736869706044820152fd5b50848614610db5565b5034610326576020366003190112610326577fce59ad7d6dabe8a7533ed7d9bd07d276a046ac7ac9a8e8e8971da4b81104a28b6020610f216133a0565b5f546001600160a01b039190610f3a9083163314613842565b1692610f47841515613c1e565b600c80546001600160a01b0319168517905551428152a2005b503461032657610fbd90610f73366137eb565b919092610f8261071733613dcd565b610f8f8251845114613cad565b335f9081526001602052818120546001600160a01b039095168152205490610fb8821515613aee565b6141a5565b005b5034610326575f366003190112610326576020906005549051908152f35b50903461032657610fed36613640565b919290610ffc61071733613dcd565b6110088451151561395d565b6001600160a01b03169261101d841515613aa2565b61102961074984613e8e565b335f5260209160018352855f2054945f52855f20549261104a841515613aee565b84518186012061105a878561421a565b5f526006825260ff6001895f20015416156113ea578751828186516110828183858b016135da565b81016007815203019020541515906110a261109b613b92565b8987614255565b916110b56110ae613bb3565b8a88614255565b916110c08a8861437b565b906110c9613b92565b8051908701208103611207575050156111ad57501561116b575b6110ed848461421a565b5f526006815260ff6001885f2001541661110d575050610fbd9450613fed565b865162461bcd60e51b815291820152603360248201527f54617267657420616c726561647920686173206120726f6c652e2055736520636044820152721a185b99d9549bdb194a0a481a5b9cdd195859606a1b606482015260849150fd5b865162461bcd60e51b815291820181905260248201527f4f6e6c79206f776e6572732063616e206772616e74206f776e657220726f6c65604482015260649150fd5b90506110e357865162461bcd60e51b815291820152602960248201527f4f6e6c792061646d696e6973747261746f72732063616e206772616e742066696044820152683939ba1037bbb732b960b91b606482015260849150fd5b909150611212613bb3565b805190860120810361129c5750508115611294575b506110e357865162461bcd60e51b815291820152603b60248201527f4f6e6c79206f776e65727320616e642061646d696e6973747261746f7273206360448201527f616e206772616e742061646d696e6973747261746f7220726f6c650000000000606482015260849150fd5b90505f611227565b6112a7939193613bdc565b858151910120146112bb575b5050506110e3565b801590816113e3575b80156113dc575b15611373578261136b575b5081611362575b506112eb575b5f80806112b3565b6112f58684614417565b516112e357865162461bcd60e51b815291820152603c60248201527f5375626a656374206d757374206861766520616e2061637469766520726f6c6560448201527f20746f206772616e7420766965776572207065726d697373696f6e7300000000606482015260849150fd5b9050155f6112dd565b91505f6112d6565b895162461bcd60e51b8152808601859052603e60248201527f4f6e6c79206f776e6572732c2061646d696e6973747261746f72732c206f722060448201527f7375626a656374732063616e206772616e742076696577657220726f6c6500006064820152608490fd5b50826112cb565b50816112c4565b60648383808b519262461bcd60e51b845283015260248201527f596f752068617665206e6f20726f6c6520666f722074686973207265636f72646044820152fd5b509034610326576020366003190112610326576114466133a0565b5f546001600160a01b03919061145f9083163314613842565b16805f5260019182602052611478845f2054151561387b565b815f528260205260ff83855f200154166114a757509181925f52816020525f20019060ff198254161790555f80f35b606490602085519162461bcd60e51b8352820152601560248201527457616c6c657420616c72656164792061637469766560581b6044820152fd5b503461032657602090816003193601126103265782359161150561071733613dcd565b335f5260018152815f205493835f52600e8252825f20855f528252825f209081549060ff821681811015610e885760010361158457509161157c60ff9260027fc5b2e1bd4433eb4e9e181cc803520513d39d918c96bddeebca1224e1c750963d969585191617809155845193849160081c16613795565b4290820152a3005b845162461bcd60e51b81529081018490526013602482015272139bc81c195b991a5b99c81c1c9bdc1bdcd85b606a1b6044820152606490fd5b5034610326576020906115d261060f36613743565b81016009815203019020805483101561032657602092610642916137c2565b5034610326575f36600319011261032657805161031091611611826133b6565b60058252640352e302e360dc1b6020830152519182916020835260208301906135fb565b503461032657611644366137eb565b61165061071733613dcd565b61165d8351825114613cad565b335f5260019384936020906001602052825f20549460018060a01b03165f52825f20549361168c851515613aee565b5f965b61169557005b8151871015610fbd5787876116b46116ae839a85613a8e565b51613e8e565b1561178a576116cd886116c78387613a8e565b51613dc3565b1561178a576116e0876116c78387613a8e565b1561178a576116f9876116f38387613a8e565b5161421a565b5f5260068552878761170c885f20613538565b61172d8361171a868a613a8e565b5184611726888b613a8e565b5191613fed565b7fea2c9ebe68919ddf880b3221d8d508d908163d0973e8b79df108f5d110d0c6336117588589613a8e565b519161176e611767878a613a8e565b5193613bfe565b9261177f8c51928392429184613cf1565b0390a45b019661168f565b611783565b50346103265760209061036c6117a436613484565b90613c5c565b50346103265760203660031901126103265781358254811015610326576020925f527f8a35acfbc15ff81a39ae7d344fd709f28e8600b4aa8c65c6b64bfe7fe36bd19b01549051908152f35b50346103265761180536613697565b905f52600e602052815f20905f52602052805f2090805191611826836133b6565b549161183560ff841682613945565b61184960ff602083019460081c1684613951565b519183831015611880575192600384101561186d57506103109051928392836137a2565b602190634e487b7160e01b5f525260245ffd5b602184634e487b7160e01b5f525260245ffd5b5034610326576020906118a861060f36613743565b81016007815203019020805483101561032657602092610642916137c2565b50346103265780600319360112610326578135906024356005811015610326576118fb60018060a01b035f54163314613842565b825f5260206002815260ff835f2054166005811015611a0557156119cd57835f526002815260ff835f20541694600586101561186d5782861461199657509061196991845f5260028152835f2060ff1981541660ff841617905561196184518097613774565b850190613774565b42908301527ff6277c6ee46649823db9a5c531db3112b4340c67179cae1932ba3420dcc37cc760603393a3005b60649184519162461bcd60e51b83528201526013602482015272416c726561647920746869732073746174757360681b6044820152fd5b8460649184519162461bcd60e51b83528201526013602482015272155cd95c881b9bdd081c9959da5cdd195c9959606a1b6044820152fd5b602186634e487b7160e01b5f525260245ffd5b503461032657611a2736613697565b91905f526003602052805f20805483101561032657602092611a48916137c2565b60018060a01b0391549060031b1c169051908152f35b5034610326576020366003190112610326576001600160a01b03611a806133a0565b165f526001602052805f2060ff6001825492015416825191825215156020820152f35b509034610326575f366003190112610326577ff0c57e16840df040f15088dc2f81fe391c3923bec73e23a9662efc9c229c6a0090815460ff81851c1615916001600160401b03821680159081611bb8575b6001149081611bae575b159081611ba5575b50611b97575067ffffffffffffffff198116600117835581611b78575b505f80546001600160a01b03191633179055611b3b57005b805468ff00000000000000001916905551600181527fc7f505b2f371ae2175ee4913f4499e1f2633a7b5936321eed1cdaeb6115181d290602090a1005b68ffffffffffffffffff1916680100000000000000011782555f611b23565b845163f92ee8a960e01b8152fd5b9050155f611b06565b303b159150611afe565b849150611af4565b50346103265761031090611bd336613697565b905f52600e602052815f20905f52602052805f20549051918160ff80859460081c169116836137a2565b5034610326575f36600319011261032657602090600b549051908152f35b503461032657602036600319011261032657602090611c386133a0565b5f5491906001600160a01b03808416917f38df5fa0f7fef0d515ca1f5388cb5790ac5885d5fca8d05d9f943e563c33a4b39190611c76338514613842565b16948593611c85851515613c1e565b51428152a36001600160a01b031916175f55005b50903461032657816003193601126103265780356001600160401b03811161032657611cc890369083016136c4565b906024356001600160a01b038116919082900361032657611ceb61071733613dcd565b8115611e275750335f52600192839260209060018252825f2054935f52825f205492611d18841515613aee565b5f955b611d2157005b8151861015610fbd578686611d3b866116c7849a87613a8e565b15611e2257611d4e876116c78387613a8e565b15611e22578686611d63816116f38589613a8e565b805f526006808952611d76875f20613538565b9182518a840120611d85613b92565b8b815191012014611e1857611da58385611d9f898d613a8e565b516142b3565b5f52885284865f200160ff198154169055600d88525f868120557f938e21a28464db5f9b9e24d1a58e038899de364f69dba20c154ee6fd4cd86def611e08611df6611df0878b613a8e565b51613bfe565b9288519182918a83528a8301906135fb565b428c8301520390a45b0195611d1b565b5050505050611e11565b611e11565b606490602085519162461bcd60e51b8352820152600e60248201526d125b9d985b1a59081dd85b1b195d60921b6044820152fd5b503461032657611e6a36613484565b611e7882939251151561395d565b6001600160a01b031692611e8d841515613aa2565b335f5260209160018352805f2054945f52805f205493611eae851515613aee565b611eb8858261421a565b805f5260068552611ed160ff6001855f20015416613b3a565b805f5260068552611ee3835f20613538565b93845186860120611ef2613b92565b878151910120811461222d57878903612052575b611f0e613bb3565b87815191012014611f8f575b5081611f7091611f4e86897f938e21a28464db5f9b9e24d1a58e038899de364f69dba20c154ee6fd4cd86def9897966142b3565b5f52600686526001835f200160ff198154169055600d86525f83812055613bfe565b93611f8482519383859485528401906135fb565b9042908301520390a4005b8351611fc88760018651938281818a0196611fab81838a6135da565b8101600881520301902054119287518093819289519283916135da565b81016007815203019020541515811561204a575b50611f1a57835162461bcd60e51b8152908101869052603960248201527f43616e6e6f74207265766f6b65206c6173742061646d696e6973747261746f7260448201527f20776974686f757420616e206f776e65722070726573656e74000000000000006064820152608490fd5b90505f611fdc565b61206461205d613b92565b8a86614255565b61207661206f613bb3565b8b87614255565b845f52600d89528a875f2054149061208c613bdc565b8051908b0120840361212c578215612124575b50811561211c575b50156120b3575b611f06565b845162461bcd60e51b8152808301889052603e60248201527f4f6e6c79206f776e6572732c2061646d696e6973747261746f72732c206f722060448201527f746865206772616e7465722063616e207265766f6b65207669657765727300006064820152608490fd5b90505f6120a7565b91505f61209f565b821592915082612225575b50156121ca5715611f065761214a613bb3565b87815191012081036120ae578451878186516121698183858b016135da565b8101600781520301902054156120ae57845162461bcd60e51b8152808301889052602560248201527f4f6e6c79206f776e6572732063616e207265766f6b652061646d696e6973747260448201526461746f727360d81b6064820152608490fd5b855162461bcd60e51b8152808401899052602f60248201527f4f6e6c79206f776e65727320616e642061646d696e6973747261746f7273206360448201526e616e207265766f6b6520726f6c657360881b6064820152608490fd5b90505f612137565b845162461bcd60e51b8152808301889052604560248201527f4f776e6572732063616e6e6f74206265207265766f6b65642e204f776e65722060448201527f6d7573742075736520766f6c756e746172696c794c656176654f776e6572736860648201526434b814149760d91b608482015260a490fd5b5034610326576020906122b96103bb36613743565b5f52600d8252805f20549051908152f35b503461032657806003193601126103265781356001600160401b038111610326576122f890369084016136c4565b90602480359261230a61071733613dcd565b335f52600194602060018152845f205493865f52600e8252855f20855f528252855f209186519261233a846133b6565b549261234960ff851682613945565b61235c60ff8383019560081c1685613951565b518481101561246e5760020361242c57845161238361237a826136ad565b98519889613400565b808852612392601f19916136ad565b015f5b81811061241d57505050875f905b6123b4575b610fbd888888886141a5565b8451811015612418576123c78186613a8e565b51835190600382101561240657916123e68b96959493928b889461414f565b6123f0828b613a8e565b526123fb818a613a8e565b5001909192936123a3565b83602187634e487b7160e01b5f52525ffd5b6123a8565b60608982018401528201612395565b8360649188519162461bcd60e51b8352820152601e60248201527f4e6f2061637469766520747275737465652072656c6174696f6e7368697000006044820152fd5b602185634e487b7160e01b5f525260245ffd5b509034610326576020908160031936011261032657355f52600a8152815f208054916124ac836136ad565b926124b985519485613400565b80845281840180935f52825f205f915b83831061252b57505050508351928184019082855251809152848401948160051b85010192915f955b8287106124ff5785850386f35b90919293828061251b600193603f198a820301865288516135fb565b96019201960195929190926124f2565b600185819261253c859a989a613538565b8152019201920191909593956124c9565b50346103265761255c36613697565b905f52600e602052815f20905f52602052805f209080519161257d836133b6565b549161258c60ff841682613945565b6125a060ff602083019460081c1684613951565b51838110156118805760021491826125bf575b60208383519015158152f35b9091505191600383101561186d5750600260209214905f6125b3565b5034610326575f366003190112610326577f00000000000000000000000000000000000000000000000000000000000000006001600160a01b0316300361264557602090517f360894a13ba1a3210667c828492db98dca3e2076cc3735a920a3ca505d382bbc8152f35b5163703e46dd60e11b8152fd5b5090346103265760209081600319360112610326578035906001600160401b03821161032657612689839161269b93369101613466565b818551938285809451938492016135da565b8101600981520301902091805191828185549182815201945f52815f20915f905b8282106126d45761031086866106d7828b0383613400565b8354875295860195600193840193909101906126bc565b509081600319360112610326576127006133a0565b916024356001600160401b0381116103265736602382011215610326576127309036906024818601359101613421565b906001600160a01b037f000000000000000000000000000000000000000000000000000000000000000081163081149081156128ba575b506128aa5761277a815f54163314613842565b8416918151946352d1902d60e01b86526020868681875afa5f9681612876575b506127b657505051634c9c8ce360e01b81529182015260249150fd5b838593877f360894a13ba1a3210667c828492db98dca3e2076cc3735a920a3ca505d382bbc908181036128605750833b156128495780546001600160a01b0319168317905551907fbc7cd75a20ee27fd9adebab32041f755214dbc6bffa90cc0225b39da2e5c2d3b5f80a28251156128335750610fbd9250614623565b9150503461283d57005b63b398979f60e01b8152fd5b8151634c9c8ce360e01b8152808701849052602490fd5b86602491845191632a87526960e21b8352820152fd5b9096506020813d6020116128a2575b8161289260209383613400565b810103126103265751955f61279a565b3d9150612885565b815163703e46dd60e11b81528490fd5b9050817f360894a13ba1a3210667c828492db98dca3e2076cc3735a920a3ca505d382bbc541614155f612767565b5090346103265781600319360112610326576129026133a0565b9160249081359360018060a01b038091612920825f54163314613842565b169361292d8515156139a9565b8515612b1f57845f52600193602094808652845f2054612add576129828551612955816133b6565b898152828882018181528a5f52818a52885f209251835551151591019060ff801983541691151516179055565b875f5260038652845f20938454600160401b9586821015612acb57906129ac9184820181556137c2565b819291549060031b918a831b921b1916179055875f526002865260ff855f2054166005811015612ab957612a8b57875f5260028652845f20600260ff19825416179055825493841015612a78578301808355831015612a6657507f39d132591ee0696de49ab564e4a90e430c006561917db731a2a614dd2d24559193929186915f527f8a35acfbc15ff81a39ae7d344fd709f28e8600b4aa8c65c6b64bfe7fe36bd19b0155612a5c600554613a6c565b60055551428152a3005b634e487b7160e01b5f90815260328352fd5b50634e487b7160e01b5f90815260418352fd5b50505050907f1cc138f50384be7770a8e4a34eecaa0d0c718bfaa1641af49db32532e4a5b9109151428152a3005b82602185634e487b7160e01b5f52525ffd5b84604187634e487b7160e01b5f52525ffd5b845162461bcd60e51b81528084018790526019818401527f57616c6c657420616c72656164792072656769737465726564000000000000006044820152606490fd5b606490601485602086519362461bcd60e51b855284015282015273092dcecc2d8d2c840eae6cae440928840d0c2e6d60631b6044820152fd5b50346103265760203660031901126103265760209061036c612b786133a0565b613dcd565b5034610326576020806003193601126103265782356001600160401b03811161032657606093612baf91369101613466565b91805192612c0483825195818181860198612bcb81838c6135da565b810160078152030190205495845182818651612be88183876135da565b81016008815203019020549385519384928392519283916135da565b8101600981520301902054928251948552840152820152f35b5090346103265760209081600319360112610326578035906001600160401b038211610326576126898391612c5493369101613466565b8101600881520301902091805191828185549182815201945f52815f20915f905b828210612c8d5761031086866106d7828b0383613400565b835487529586019560019384019390910190612c75565b50903461032657612cb436613640565b9092919360018060a01b03612ccd815f54163314613842565b612cd98651151561395d565b8416612ce68115156139a9565b612cf261074984613e8e565b5f5260209260018452612d0e825f205495612b7887151561387b565b15612f18578151848751918181818b0194612d2a8183886135da565b8101600781520301902054159182612ef0575b505015612eaf57612d4e858761421a565b805f5260068552825f2090612d6282613538565b9060ff60018351159401541690612db38651612d7d816133b6565b88815260018a8201818152845f5260068c52612d9d8a5f20935184613ee6565b51151591019060ff801983541691151516179055565b5f52600d87525f85812055155f14612e805750612dd18487896144c4565b612df1575b50905f805160206146b583398151915291611f705f96613bfe565b94845f52600a8452815f20805490600160401b821015612e6d5781612e1d9160015f9a940181556137c2565b919091612e5b575081612e435f805160206146b5833981519152959493611f7093613ee6565b612e4e600b54613a6c565b600b559650509091612dd6565b634e487b7160e01b885287905260245ffd5b604188634e487b7160e01b5f525260245ffd5b96939594925050508451818601209084519085012003612e9c57005b612eaa610fbd9483836142b3565b6144c4565b83606492519162461bcd60e51b8352820152601a60248201527f5265636f726420616c726561647920696e697469616c697a65640000000000006044820152fd5b612f0592508451809381928b519283916135da565b810160088152030190205415845f612d3d565b83606492519162461bcd60e51b8352820152601860248201527f4d75737420626520616e20616374697665206d656d62657200000000000000006044820152fd5b50903461032657602036600319011261032657355f526006602052805f2061031060ff6001612f8784613538565b93015416925192839283613620565b50346103265760203660031901126103265760209061036c612fb66133a0565b613e38565b50346103265780600319360112610326578135906024908135600381101561032657612fe961071733613dcd565b335f52602060018152825f20549385156131da5785851461319957855f526002825260ff845f205416600581101561314c571561315f57845f52600e8252835f20865f52825260ff845f2054168781101561314c578015908115613141575b50156131005783519061305a826133b6565b6001825282820161306b8582613951565b865f52600e8452855f20885f528452855f20925191898310156130ee57835491519960038b10156130dd57505060ff61ff007f494d010fdf588a0e83d626ea6963187bdda6f88b7007f7bf280683d3f7dea83498999a60081b1692169061ffff19161717905561157c83518093613795565b602190634e487b7160e01b5f52525ffd5b634e487b7160e01b5f90815260218b52fd5b6017879160649386519362461bcd60e51b85528401528201527f50726f706f73616c20616c7265616479206578697374730000000000000000006044820152fd5b60039150145f613048565b50634e487b7160e01b5f90815260218852fd5b6016879160649386519362461bcd60e51b855284015282015275151c9d5cdd1959481b9bdd081c9959da5cdd195c995960521b6044820152fd5b6017879160649386519362461bcd60e51b85528401528201527f43616e6e6f74206170706f696e7420796f757273656c660000000000000000006044820152fd5b600f879160649386519362461bcd60e51b85528401528201526e496e76616c6964207472757374656560881b6044820152fd5b5090346103265760209081600319360112610326578035906001600160401b03821161032657612689839161324493369101613466565b8101600781520301902091805191828185549182815201945f52815f20915f905b82821061327d5761031086866106d7828b0383613400565b835487529586019560019384019390910190613265565b50346103265760209061036c6132a936613484565b906138bf565b5034610326576020366003190112610326576132c96133a0565b5f546001600160a01b0391906132e29083163314613842565b16805f5260016020526132f9825f2054151561387b565b805f52600160205260ff6001835f200154161561332957600192505f52816020525f200160ff1981541690555f80f35b815162461bcd60e51b8152602081850152601760248201527f57616c6c657420616c726561647920696e6163746976650000000000000000006044820152606490fd5b905034610326576020366003190112610326576020916001600160a01b036133926133a0565b165f52600183525f20548152f35b600435906001600160a01b038216820361032657565b604081019081106001600160401b038211176133d157604052565b634e487b7160e01b5f52604160045260245ffd5b602081019081106001600160401b038211176133d157604052565b90601f801991011681019081106001600160401b038211176133d157604052565b9291926001600160401b0382116133d1576040519161344a601f8201601f191660200184613400565b829481845281830111610326578281602093845f960137010152565b9080601f830112156103265781602061348193359101613421565b90565b604060031982011261032657600435906001600160401b038211610326576134ae91600401613466565b906024356001600160a01b03811681036103265790565b60209060206040818301928281528551809452019301915f5b8281106134ec575050505090565b8351855293810193928101926001016134de565b90600182811c9216801561352e575b602083101461351a57565b634e487b7160e01b5f52602260045260245ffd5b91607f169161350f565b9060405191825f825461354a81613500565b908184526020946001916001811690815f146135b8575060011461357a575b50505061357892500383613400565b565b5f90815285812095935091905b8183106135a057505061357893508201015f8080613569565b85548884018501529485019487945091830191613587565b9250505061357894925060ff191682840152151560051b8201015f8080613569565b5f5b8381106135eb5750505f910152565b81810151838201526020016135dc565b90602091613614815180928185528580860191016135da565b601f01601f1916010190565b906136386020919493946040845260408401906135fb565b931515910152565b6060600319820112610326576001600160401b0391600435838111610326578261366c91600401613466565b926024356001600160a01b038116810361032657926044359182116103265761348191600401613466565b6040906003190112610326576004359060243590565b6001600160401b0381116133d15760051b60200190565b81601f82011215610326578035916020916136de846136ad565b936136ec6040519586613400565b808552838086019160051b8301019280841161032657848301915b8483106137175750505050505090565b82356001600160401b03811161032657869161373884848094890101613466565b815201920191613707565b604060031982011261032657600435906001600160401b0382116103265761376d91600401613466565b9060243590565b9060058210156137815752565b634e487b7160e01b5f52602160045260245ffd5b9060038210156137815752565b909291604082019360048110156137815782526135789160200190613795565b80548210156137d7575f5260205f2001905f90565b634e487b7160e01b5f52603260045260245ffd5b6060600319820112610326576001600160401b03916004358381116103265782613817916004016136c4565b926024356001600160a01b0381168103610326579260443591821161032657613481916004016136c4565b1561384957565b60405162461bcd60e51b815260206004820152600a60248201526927b7363c9030b236b4b760b11b6044820152606490fd5b1561388257565b60405162461bcd60e51b815260206004820152601560248201527415d85b1b195d081b9bdd081c9959da5cdd195c9959605a1b6044820152606490fd5b6001600160a01b039091165f9081526001602052604090205480156138fc576138e79161421a565b5f52600660205260ff600160405f2001541690565b50505f90565b1561390957565b60405162461bcd60e51b81526020600482015260146024820152732737ba1030b71030b1ba34bb329036b2b6b132b960611b6044820152606490fd5b60048210156137815752565b60038210156137815752565b1561396457565b60405162461bcd60e51b815260206004820152601960248201527f5265636f72642049442063616e6e6f7420626520656d707479000000000000006044820152606490fd5b156139b057565b60405162461bcd60e51b8152602060048201526016602482015275496e76616c69642077616c6c6574206164647265737360501b6044820152606490fd5b156139f557565b60405162461bcd60e51b8152602060048201526013602482015272496e76616c696420726f6c6520737472696e6760681b6044820152606490fd5b805490600160401b8210156133d15781613a52916001613a68940181556137c2565b819391549060031b91821b915f19901b19161790565b9055565b5f198114613a7a5760010190565b634e487b7160e01b5f52601160045260245ffd5b80518210156137d75760209160051b010190565b15613aa957565b60405162461bcd60e51b815260206004820152601d60248201527f57616c6c657420616464726573732063616e6e6f74206265207a65726f0000006044820152606490fd5b15613af557565b60405162461bcd60e51b815260206004820152601c60248201527f5461726765742077616c6c6574206e6f742072656769737465726564000000006044820152606490fd5b15613b4157565b60405162461bcd60e51b815260206004820152602360248201527f54617267657420646f6573206e6f74206861766520616e2061637469766520726044820152626f6c6560e81b6064820152608490fd5b60405190613b9f826133b6565b600582526437bbb732b960d91b6020830152565b60405190613bc0826133b6565b600d82526c30b236b4b734b9ba3930ba37b960991b6020830152565b60405190613be9826133b6565b60068252653b34b2bbb2b960d11b6020830152565b613c16906020604051928284809451938492016135da565b810103902090565b15613c2557565b60405162461bcd60e51b815260206004820152600f60248201526e496e76616c6964206164647265737360881b6044820152606490fd5b6001600160a01b039091165f908152600160205260409020549081156138fc57613c8e613c87613b92565b8383614255565b918215613c9a57505090565b6134819250613ca7613bb3565b91614255565b15613cb457565b60405162461bcd60e51b8152602060048201526015602482015274082e4e4c2f240d8cadccee8d040dad2e6dac2e8c6d605b1b6044820152606490fd5b939291613d1a90613d0c6040936060885260608801906135fb565b9086820360208801526135fb565b930152565b919060018060a01b03165f52600160205260405f20548015613d445761348192614255565b5050505f90565b6001600160a01b039091165f90815260016020526040902054908115613dad5760209291613d789161421a565b5f526006825260405f20604051613d8e816133b6565b60ff6001613d9b84613538565b93848452015416151593849101529190565b5050604051613dbb816133e5565b5f8152905f90565b906138e79161421a565b6001600160a01b03165f9081526001602052604090208054908115908115613e28575b50613e23575f52600260205260ff60405f20541660058110156137815760018114159081613e1c575090565b9050151590565b505f90565b60ff91506001015416155f613df0565b6001600160a01b03165f9081526001602052604090208054908115908115613e7e575b50613e23575f52600260205260ff60405f20541660058110156137815760041490565b60ff91506001015416155f613e5b565b60208151910120613e9d613b92565b602081519101208114908115613ecd575b8115613eb8575090565b9050613ec2613bdc565b602081519101201490565b9050613ed7613bb3565b60208151910120811490613eae565b91909182516001600160401b0381116133d157613f038254613500565b601f8111613fa8575b50602080601f8311600114613f475750819293945f92613f3c575b50508160011b915f199060031b1c1916179055565b015190505f80613f27565b90601f19831695845f5260205f20925f905b888210613f9057505083600195969710613f78575b505050811b019055565b01515f1960f88460031b161c191690555f8080613f6e565b80600185968294968601518155019501930190613f59565b825f5260205f20601f830160051c81019160208410613fe3575b601f0160051c01905b818110613fd85750613f0c565b5f8155600101613fcb565b9091508190613fc2565b919091613ffa838261421a565b91825f5260209260068452604090815f209061401582613538565b9060ff600183511594015416906140508551614030816133b6565b87815260018a8201818152845f5260068c52612d9d895f20935184613ee6565b5f52600d875288845f2055155f14614119575061406e8387866144c4565b6140a9575b61408a5f805160206146b583398151915293613bfe565b9361409e82519383859485528401906135fb565b9042908301520390a4565b845f52600a8452805f208054600160401b8110156133d1576140d0916001820181556137c2565b61410657836140f05f805160206146b58339815191529561408a93613ee6565b6140fb600b54613a6c565b600b55935050614073565b634e487b7160e01b5f525f60045260245ffd5b9650505092918451818601209084519085012003614138575b50505050565b612eaa6141469483836142b3565b5f808080614132565b600383101561378157821561419a5760019161416a91614417565b91146141735790565b80516020820120614182613b92565b60208151910120146141915790565b50613481613bb3565b505050613481613bdc565b9392935f5b815181101561421257806141c36116ae60019387613a8e565b1561420d576141d6876116c78386613a8e565b1561420d576141e9846116c78386613a8e565b61420d57614207876141fb8386613a8e565b5186611726858a613a8e565b016141aa565b614207565b505050509050565b9061424f604080518093602061423981840197888151938492016135da565b8201906020820152036020810184520182613400565b51902090565b602092916142629161421a565b5f526006825260405f20604051614278816133b6565b60ff600161428584613538565b93848452015416151593849101528261429d57505090565b9091506020815191012090602081519101201490565b82516020809401206142c3613b92565b80519085012081036142fa5750826142eb9161357894604051938285809451938492016135da565b8101600781520301902061458c565b614302613bb3565b805190850120810361433957508261432a9161357894604051938285809451938492016135da565b8101600881520301902061458c565b614341613bdc565b8481519101201461435157505050565b8261436c9161357894604051938285809451938492016135da565b8101600981520301902061458c565b600c546001600160a01b0316908115613d44576020916143b9916040518095819482936379d615f560e11b84526040600485015260448401906135fb565b90602483015203915afa90811561440c575f916143d4575090565b90506020813d602011614404575b816143ef60209383613400565b81010312610326575180151581036103265790565b3d91506143e2565b6040513d5f823e3d90fd5b906144219161421a565b5f52600660205260405f2060ff60016040519261443d846133b6565b61444681613538565b8452015416158015602083015261445b575190565b50604051614468816133e5565b5f815290565b6001600160a01b03165f90815260016020526040902080549081159081156144b4575b50613e23575f52600260205260ff60405f20541660058110156137815760031490565b60ff91506001015416155f614491565b82516020809401206144d4613b92565b805190850120810361450b5750826144fc9161357894604051938285809451938492016135da565b81016007815203019020613a30565b614513613bb3565b805190850120810361454a57508261453b9161357894604051938285809451938492016135da565b81016008815203019020613a30565b614552613bdc565b8481519101201461456257505050565b8261457d9161357894604051938285809451938492016135da565b81016009815203019020613a30565b5f5b815490818110156141325783916145a582856137c2565b959054600396871b1c146145bf575090925060010161458e565b5f199250828101908111613a7a57613a526145dd6145ea92866137c2565b905490871b1c92856137c2565b90558154801561460f5781019261460184846137c2565b81939154921b1b1916905555565b634e487b7160e01b5f52603160045260245ffd5b905f8091602081519101845af480806146a1575b156146575750506040513d81523d5f602083013e60203d82010160405290565b1561467e57604051639996b31560e01b81526001600160a01b039091166004820152602490fd5b3d1561468f576040513d5f823e3d90fd5b60405163d6bda27560e01b8152600490fd5b503d1515806146375750813b151561463756fe2a27f0a20e4df4738f3a8e2449b014d439e7ce0a97ee5860771c25cbafa1cfeba26469706673582212203a71bd9530bf96f85b0475c5e892dcc075cc096ac356209f79245a838a98c83664736f6c63430008180033",
  "linkReferences": {},
  "deployedLinkReferences": {}
}