{
  "_format": "hh-sol-artifact-1",
  "contractName": "MemberRoleManager",
  "sourceName": "smartContracts/MemberRoleManager.sol",
  "abi": [
    {
      "inputs": [],
      "stateMutability": "nonpayable",
      "type": "constructor"
    },
    {
      "inputs": [
        {
          "internalType": "address",
          "name": "target",
          "type": "address"
        }
      ],
      "name": "AddressEmptyCode",
      "type": "error"
    },
    {
      "inputs": [
        {
          "internalType": "address",
          "name": "implementation",
          "type": "address"
        }
      ],
      "name": "ERC1967InvalidImplementation",
      "type": "error"
    },
    {
      "inputs": [],
      "name": "ERC1967NonPayable",
      "type": "error"
    },
    {
      "inputs": [],
      "name": "FailedCall",
      "type": "error"
    },
    {
      "inputs": [],
      "name": "InvalidInitialization",
      "type": "error"
    },
    {
      "inputs": [],
      "name": "NotInitializing",
      "type": "error"
    },
    {
      "inputs": [],
      "name": "UUPSUnauthorizedCallContext",
      "type": "error"
    },
    {
      "inputs": [
        {
          "internalType": "bytes32",
          "name": "slot",
          "type": "bytes32"
        }
      ],
      "name": "UUPSUnsupportedProxiableUUID",
      "type": "error"
    },
    {
      "anonymous": false,
      "inputs": [
        {
          "indexed": true,
          "internalType": "address",
          "name": "oldAdmin",
          "type": "address"
        },
        {
          "indexed": true,
          "internalType": "address",
          "name": "newAdmin",
          "type": "address"
        },
        {
          "indexed": false,
          "internalType": "uint256",
          "name": "timestamp",
          "type": "uint256"
        }
      ],
      "name": "AdminTransferred",
      "type": "event"
    },
    {
      "anonymous": false,
      "inputs": [
        {
          "indexed": true,
          "internalType": "address",
          "name": "newAddress",
          "type": "address"
        },
        {
          "indexed": false,
          "internalType": "uint256",
          "name": "timestamp",
          "type": "uint256"
        }
      ],
      "name": "HealthRecordCoreUpdated",
      "type": "event"
    },
    {
      "anonymous": false,
      "inputs": [
        {
          "indexed": false,
          "internalType": "uint64",
          "name": "version",
          "type": "uint64"
        }
      ],
      "name": "Initialized",
      "type": "event"
    },
    {
      "anonymous": false,
      "inputs": [
        {
          "indexed": true,
          "internalType": "address",
          "name": "wallet",
          "type": "address"
        },
        {
          "indexed": true,
          "internalType": "bytes32",
          "name": "userIdHash",
          "type": "bytes32"
        },
        {
          "indexed": false,
          "internalType": "uint256",
          "name": "timestamp",
          "type": "uint256"
        }
      ],
      "name": "MemberRegistered",
      "type": "event"
    },
    {
      "anonymous": false,
      "inputs": [
        {
          "indexed": true,
          "internalType": "bytes32",
          "name": "userIdHash",
          "type": "bytes32"
        },
        {
          "indexed": false,
          "internalType": "enum MemberRoleManager.MemberStatus",
          "name": "oldStatus",
          "type": "uint8"
        },
        {
          "indexed": false,
          "internalType": "enum MemberRoleManager.MemberStatus",
          "name": "newStatus",
          "type": "uint8"
        },
        {
          "indexed": true,
          "internalType": "address",
          "name": "changedBy",
          "type": "address"
        },
        {
          "indexed": false,
          "internalType": "uint256",
          "name": "timestamp",
          "type": "uint256"
        }
      ],
      "name": "MemberStatusChanged",
      "type": "event"
    },
    {
      "anonymous": false,
      "inputs": [
        {
          "indexed": true,
          "internalType": "bytes32",
          "name": "recordIdHash",
          "type": "bytes32"
        },
        {
          "indexed": true,
          "internalType": "bytes32",
          "name": "userIdHash",
          "type": "bytes32"
        },
        {
          "indexed": false,
          "internalType": "uint256",
          "name": "timestamp",
          "type": "uint256"
        }
      ],
      "name": "OwnershipVoluntarilyLeft",
      "type": "event"
    },
    {
      "anonymous": false,
      "inputs": [
        {
          "indexed": true,
          "internalType": "bytes32",
          "name": "recordIdHash",
          "type": "bytes32"
        },
        {
          "indexed": true,
          "internalType": "bytes32",
          "name": "targetIdHash",
          "type": "bytes32"
        },
        {
          "indexed": false,
          "internalType": "string",
          "name": "oldRole",
          "type": "string"
        },
        {
          "indexed": false,
          "internalType": "string",
          "name": "newRole",
          "type": "string"
        },
        {
          "indexed": true,
          "internalType": "bytes32",
          "name": "userIdHash",
          "type": "bytes32"
        },
        {
          "indexed": false,
          "internalType": "uint256",
          "name": "timestamp",
          "type": "uint256"
        }
      ],
      "name": "RoleChanged",
      "type": "event"
    },
    {
      "anonymous": false,
      "inputs": [
        {
          "indexed": true,
          "internalType": "bytes32",
          "name": "recordIdHash",
          "type": "bytes32"
        },
        {
          "indexed": true,
          "internalType": "bytes32",
          "name": "targetIdHash",
          "type": "bytes32"
        },
        {
          "indexed": false,
          "internalType": "string",
          "name": "role",
          "type": "string"
        },
        {
          "indexed": true,
          "internalType": "bytes32",
          "name": "userIdHash",
          "type": "bytes32"
        },
        {
          "indexed": false,
          "internalType": "uint256",
          "name": "timestamp",
          "type": "uint256"
        }
      ],
      "name": "RoleGranted",
      "type": "event"
    },
    {
      "anonymous": false,
      "inputs": [
        {
          "indexed": true,
          "internalType": "bytes32",
          "name": "recordIdHash",
          "type": "bytes32"
        },
        {
          "indexed": true,
          "internalType": "bytes32",
          "name": "targetIdHash",
          "type": "bytes32"
        },
        {
          "indexed": false,
          "internalType": "string",
          "name": "role",
          "type": "string"
        },
        {
          "indexed": true,
          "internalType": "bytes32",
          "name": "userIdHash",
          "type": "bytes32"
        },
        {
          "indexed": false,
          "internalType": "uint256",
          "name": "timestamp",
          "type": "uint256"
        }
      ],
      "name": "RoleRevoked",
      "type": "event"
    },
    {
      "anonymous": false,
      "inputs": [
        {
          "indexed": true,
          "internalType": "bytes32",
          "name": "trustorIdHash",
          "type": "bytes32"
        },
        {
          "indexed": true,
          "internalType": "bytes32",
          "name": "trusteeIdHash",
          "type": "bytes32"
        },
        {
          "indexed": false,
          "internalType": "enum MemberRoleManager.TrusteeLevel",
          "name": "level",
          "type": "uint8"
        },
        {
          "indexed": false,
          "internalType": "uint256",
          "name": "timestamp",
          "type": "uint256"
        }
      ],
      "name": "TrusteeAccepted",
      "type": "event"
    },
    {
      "anonymous": false,
      "inputs": [
        {
          "indexed": true,
          "internalType": "bytes32",
          "name": "trustorIdHash",
          "type": "bytes32"
        },
        {
          "indexed": true,
          "internalType": "bytes32",
          "name": "trusteeIdHash",
          "type": "bytes32"
        },
        {
          "indexed": false,
          "internalType": "uint256",
          "name": "timestamp",
          "type": "uint256"
        }
      ],
      "name": "TrusteeDeclined",
      "type": "event"
    },
    {
      "anonymous": false,
      "inputs": [
        {
          "indexed": true,
          "internalType": "bytes32",
          "name": "trustorIdHash",
          "type": "bytes32"
        },
        {
          "indexed": true,
          "internalType": "bytes32",
          "name": "trusteeIdHash",
          "type": "bytes32"
        },
        {
          "indexed": false,
          "internalType": "enum MemberRoleManager.TrusteeLevel",
          "name": "oldLevel",
          "type": "uint8"
        },
        {
          "indexed": false,
          "internalType": "enum MemberRoleManager.TrusteeLevel",
          "name": "newLevel",
          "type": "uint8"
        },
        {
          "indexed": false,
          "internalType": "uint256",
          "name": "timestamp",
          "type": "uint256"
        }
      ],
      "name": "TrusteeLevelUpdated",
      "type": "event"
    },
    {
      "anonymous": false,
      "inputs": [
        {
          "indexed": true,
          "internalType": "bytes32",
          "name": "trustorIdHash",
          "type": "bytes32"
        },
        {
          "indexed": true,
          "internalType": "bytes32",
          "name": "trusteeIdHash",
          "type": "bytes32"
        },
        {
          "indexed": false,
          "internalType": "enum MemberRoleManager.TrusteeLevel",
          "name": "level",
          "type": "uint8"
        },
        {
          "indexed": false,
          "internalType": "uint256",
          "name": "timestamp",
          "type": "uint256"
        }
      ],
      "name": "TrusteeProposed",
      "type": "event"
    },
    {
      "anonymous": false,
      "inputs": [
        {
          "indexed": true,
          "internalType": "bytes32",
          "name": "trustorIdHash",
          "type": "bytes32"
        },
        {
          "indexed": true,
          "internalType": "bytes32",
          "name": "trusteeIdHash",
          "type": "bytes32"
        },
        {
          "indexed": true,
          "internalType": "bytes32",
          "name": "revokedBy",
          "type": "bytes32"
        },
        {
          "indexed": false,
          "internalType": "uint256",
          "name": "timestamp",
          "type": "uint256"
        }
      ],
      "name": "TrusteeRevoked",
      "type": "event"
    },
    {
      "anonymous": false,
      "inputs": [
        {
          "indexed": true,
          "internalType": "address",
          "name": "implementation",
          "type": "address"
        }
      ],
      "name": "Upgraded",
      "type": "event"
    },
    {
      "anonymous": false,
      "inputs": [
        {
          "indexed": true,
          "internalType": "bytes32",
          "name": "voucherIdHash",
          "type": "bytes32"
        },
        {
          "indexed": true,
          "internalType": "bytes32",
          "name": "voucheeIdHash",
          "type": "bytes32"
        },
        {
          "indexed": false,
          "internalType": "uint256",
          "name": "timestamp",
          "type": "uint256"
        }
      ],
      "name": "VouchGiven",
      "type": "event"
    },
    {
      "anonymous": false,
      "inputs": [
        {
          "indexed": true,
          "internalType": "bytes32",
          "name": "voucherIdHash",
          "type": "bytes32"
        },
        {
          "indexed": true,
          "internalType": "bytes32",
          "name": "voucheeIdHash",
          "type": "bytes32"
        },
        {
          "indexed": false,
          "internalType": "uint256",
          "name": "timestamp",
          "type": "uint256"
        }
      ],
      "name": "VouchRetracted",
      "type": "event"
    },
    {
      "anonymous": false,
      "inputs": [
        {
          "indexed": true,
          "internalType": "address",
          "name": "wallet",
          "type": "address"
        },
        {
          "indexed": true,
          "internalType": "bytes32",
          "name": "userIdHash",
          "type": "bytes32"
        },
        {
          "indexed": false,
          "internalType": "uint256",
          "name": "timestamp",
          "type": "uint256"
        }
      ],
      "name": "WalletLinked",
      "type": "event"
    },
    {
      "inputs": [],
      "name": "UPGRADE_INTERFACE_VERSION",
      "outputs": [
        {
          "internalType": "string",
          "name": "",
          "type": "string"
        }
      ],
      "stateMutability": "view",
      "type": "function"
    },
    {
      "inputs": [
        {
          "internalType": "bytes32",
          "name": "trustorIdHash",
          "type": "bytes32"
        }
      ],
      "name": "acceptTrustee",
      "outputs": [],
      "stateMutability": "nonpayable",
      "type": "function"
    },
    {
      "inputs": [
        {
          "internalType": "address",
          "name": "wallet",
          "type": "address"
        },
        {
          "internalType": "bytes32",
          "name": "userIdHash",
          "type": "bytes32"
        }
      ],
      "name": "addMember",
      "outputs": [],
      "stateMutability": "nonpayable",
      "type": "function"
    },
    {
      "inputs": [
        {
          "internalType": "address[]",
          "name": "walletAddresses",
          "type": "address[]"
        },
        {
          "internalType": "bytes32",
          "name": "userIdHash",
          "type": "bytes32"
        }
      ],
      "name": "addMemberBatch",
      "outputs": [],
      "stateMutability": "nonpayable",
      "type": "function"
    },
    {
      "inputs": [],
      "name": "admin",
      "outputs": [
        {
          "internalType": "address",
          "name": "",
          "type": "address"
        }
      ],
      "stateMutability": "view",
      "type": "function"
    },
    {
      "inputs": [
        {
          "internalType": "bytes32",
          "name": "",
          "type": "bytes32"
        },
        {
          "internalType": "uint256",
          "name": "",
          "type": "uint256"
        }
      ],
      "name": "adminsByRecord",
      "outputs": [
        {
          "internalType": "bytes32",
          "name": "",
          "type": "bytes32"
        }
      ],
      "stateMutability": "view",
      "type": "function"
    },
    {
      "inputs": [
        {
          "internalType": "bytes32",
          "name": "trustorIdHash",
          "type": "bytes32"
        },
        {
          "internalType": "bytes32",
          "name": "trusteeIdHash",
          "type": "bytes32"
        }
      ],
      "name": "bootstrapDependentTrustee",
      "outputs": [],
      "stateMutability": "nonpayable",
      "type": "function"
    },
    {
      "inputs": [
        {
          "internalType": "bytes32",
          "name": "recordIdHash",
          "type": "bytes32"
        },
        {
          "internalType": "address",
          "name": "targetWallet",
          "type": "address"
        },
        {
          "internalType": "string",
          "name": "newRole",
          "type": "string"
        }
      ],
      "name": "changeRole",
      "outputs": [],
      "stateMutability": "nonpayable",
      "type": "function"
    },
    {
      "inputs": [
        {
          "internalType": "bytes32[]",
          "name": "recordIdHashes",
          "type": "bytes32[]"
        },
        {
          "internalType": "address",
          "name": "targetWallet",
          "type": "address"
        },
        {
          "internalType": "string[]",
          "name": "newRoles",
          "type": "string[]"
        }
      ],
      "name": "changeRoleBatch",
      "outputs": [],
      "stateMutability": "nonpayable",
      "type": "function"
    },
    {
      "inputs": [
        {
          "internalType": "address",
          "name": "wallet",
          "type": "address"
        }
      ],
      "name": "deactivateWallet",
      "outputs": [],
      "stateMutability": "nonpayable",
      "type": "function"
    },
    {
      "inputs": [
        {
          "internalType": "bytes32",
          "name": "trustorIdHash",
          "type": "bytes32"
        }
      ],
      "name": "declineTrustee",
      "outputs": [],
      "stateMutability": "nonpayable",
      "type": "function"
    },
    {
      "inputs": [
        {
          "internalType": "bytes32",
          "name": "trustorIdHash",
          "type": "bytes32"
        },
        {
          "internalType": "enum MemberRoleManager.TrusteeLevel",
          "name": "newLevel",
          "type": "uint8"
        }
      ],
      "name": "downgradeTrusteeLevel",
      "outputs": [],
      "stateMutability": "nonpayable",
      "type": "function"
    },
    {
      "inputs": [
        {
          "internalType": "bytes32",
          "name": "subjectIdHash",
          "type": "bytes32"
        },
        {
          "internalType": "bytes32",
          "name": "recordIdHash",
          "type": "bytes32"
        }
      ],
      "name": "extendTrusteeGrantsOnAnchor",
      "outputs": [],
      "stateMutability": "nonpayable",
      "type": "function"
    },
    {
      "inputs": [
        {
          "internalType": "bytes32",
          "name": "recordIdHash",
          "type": "bytes32"
        }
      ],
      "name": "getAllRecordParticipants",
      "outputs": [
        {
          "internalType": "bytes32[]",
          "name": "owners",
          "type": "bytes32[]"
        },
        {
          "internalType": "bytes32[]",
          "name": "admins",
          "type": "bytes32[]"
        },
        {
          "internalType": "bytes32[]",
          "name": "sharers",
          "type": "bytes32[]"
        },
        {
          "internalType": "bytes32[]",
          "name": "viewers",
          "type": "bytes32[]"
        }
      ],
      "stateMutability": "view",
      "type": "function"
    },
    {
      "inputs": [],
      "name": "getHealthRecordCore",
      "outputs": [
        {
          "internalType": "address",
          "name": "",
          "type": "address"
        }
      ],
      "stateMutability": "view",
      "type": "function"
    },
    {
      "inputs": [
        {
          "internalType": "bytes32",
          "name": "recordIdHash",
          "type": "bytes32"
        }
      ],
      "name": "getRecordAdmins",
      "outputs": [
        {
          "internalType": "bytes32[]",
          "name": "",
          "type": "bytes32[]"
        }
      ],
      "stateMutability": "view",
      "type": "function"
    },
    {
      "inputs": [
        {
          "internalType": "bytes32",
          "name": "recordIdHash",
          "type": "bytes32"
        }
      ],
      "name": "getRecordOwners",
      "outputs": [
        {
          "internalType": "bytes32[]",
          "name": "",
          "type": "bytes32[]"
        }
      ],
      "stateMutability": "view",
      "type": "function"
    },
    {
      "inputs": [
        {
          "internalType": "bytes32",
          "name": "recordIdHash",
          "type": "bytes32"
        }
      ],
      "name": "getRecordRoleStats",
      "outputs": [
        {
          "internalType": "uint256",
          "name": "ownerCount",
          "type": "uint256"
        },
        {
          "internalType": "uint256",
          "name": "adminCount",
          "type": "uint256"
        },
        {
          "internalType": "uint256",
          "name": "sharerCount",
          "type": "uint256"
        },
        {
          "internalType": "uint256",
          "name": "viewerCount",
          "type": "uint256"
        }
      ],
      "stateMutability": "view",
      "type": "function"
    },
    {
      "inputs": [
        {
          "internalType": "bytes32",
          "name": "recordIdHash",
          "type": "bytes32"
        }
      ],
      "name": "getRecordSharers",
      "outputs": [
        {
          "internalType": "bytes32[]",
          "name": "",
          "type": "bytes32[]"
        }
      ],
      "stateMutability": "view",
      "type": "function"
    },
    {
      "inputs": [
        {
          "internalType": "bytes32",
          "name": "recordIdHash",
          "type": "bytes32"
        }
      ],
      "name": "getRecordViewers",
      "outputs": [
        {
          "internalType": "bytes32[]",
          "name": "",
          "type": "bytes32[]"
        }
      ],
      "stateMutability": "view",
      "type": "function"
    },
    {
      "inputs": [
        {
          "internalType": "bytes32",
          "name": "recordIdHash",
          "type": "bytes32"
        },
        {
          "internalType": "address",
          "name": "wallet",
          "type": "address"
        }
      ],
      "name": "getRoleDetails",
      "outputs": [
        {
          "internalType": "string",
          "name": "role",
          "type": "string"
        },
        {
          "internalType": "bool",
          "name": "isActive",
          "type": "bool"
        }
      ],
      "stateMutability": "view",
      "type": "function"
    },
    {
      "inputs": [
        {
          "internalType": "bytes32",
          "name": "recordIdHash",
          "type": "bytes32"
        },
        {
          "internalType": "bytes32",
          "name": "userIdHash",
          "type": "bytes32"
        }
      ],
      "name": "getRoleDetailsByUser",
      "outputs": [
        {
          "internalType": "string",
          "name": "role",
          "type": "string"
        },
        {
          "internalType": "bool",
          "name": "isActive",
          "type": "bool"
        }
      ],
      "stateMutability": "view",
      "type": "function"
    },
    {
      "inputs": [
        {
          "internalType": "bytes32",
          "name": "recordIdHash",
          "type": "bytes32"
        },
        {
          "internalType": "bytes32",
          "name": "userIdHash",
          "type": "bytes32"
        }
      ],
      "name": "getRoleGranter",
      "outputs": [
        {
          "internalType": "bytes32",
          "name": "",
          "type": "bytes32"
        }
      ],
      "stateMutability": "view",
      "type": "function"
    },
    {
      "inputs": [],
      "name": "getTotalUsers",
      "outputs": [
        {
          "internalType": "uint256",
          "name": "",
          "type": "uint256"
        }
      ],
      "stateMutability": "view",
      "type": "function"
    },
    {
      "inputs": [
        {
          "internalType": "bytes32",
          "name": "trustorIdHash",
          "type": "bytes32"
        },
        {
          "internalType": "bytes32",
          "name": "trusteeIdHash",
          "type": "bytes32"
        }
      ],
      "name": "getTrusteeGrantedRecords",
      "outputs": [
        {
          "internalType": "bytes32[]",
          "name": "",
          "type": "bytes32[]"
        }
      ],
      "stateMutability": "view",
      "type": "function"
    },
    {
      "inputs": [
        {
          "internalType": "bytes32",
          "name": "trustorIdHash",
          "type": "bytes32"
        },
        {
          "internalType": "bytes32",
          "name": "trusteeIdHash",
          "type": "bytes32"
        }
      ],
      "name": "getTrusteeRelationship",
      "outputs": [
        {
          "internalType": "enum MemberRoleManager.TrusteeStatus",
          "name": "status",
          "type": "uint8"
        },
        {
          "internalType": "enum MemberRoleManager.TrusteeLevel",
          "name": "level",
          "type": "uint8"
        }
      ],
      "stateMutability": "view",
      "type": "function"
    },
    {
      "inputs": [
        {
          "internalType": "bytes32",
          "name": "trustorIdHash",
          "type": "bytes32"
        }
      ],
      "name": "getTrusteesForTrustor",
      "outputs": [
        {
          "internalType": "bytes32[]",
          "name": "",
          "type": "bytes32[]"
        }
      ],
      "stateMutability": "view",
      "type": "function"
    },
    {
      "inputs": [
        {
          "internalType": "address",
          "name": "wallet",
          "type": "address"
        }
      ],
      "name": "getUserForWallet",
      "outputs": [
        {
          "internalType": "bytes32",
          "name": "",
          "type": "bytes32"
        }
      ],
      "stateMutability": "view",
      "type": "function"
    },
    {
      "inputs": [
        {
          "internalType": "bytes32",
          "name": "userIdHash",
          "type": "bytes32"
        }
      ],
      "name": "getUserStatus",
      "outputs": [
        {
          "internalType": "enum MemberRoleManager.MemberStatus",
          "name": "status",
          "type": "uint8"
        }
      ],
      "stateMutability": "view",
      "type": "function"
    },
    {
      "inputs": [
        {
          "internalType": "bytes32",
          "name": "voucherIdHash",
          "type": "bytes32"
        },
        {
          "internalType": "bytes32",
          "name": "voucheeIdHash",
          "type": "bytes32"
        }
      ],
      "name": "getVouchStatus",
      "outputs": [
        {
          "internalType": "enum MemberRoleManager.VouchStatus",
          "name": "",
          "type": "uint8"
        }
      ],
      "stateMutability": "view",
      "type": "function"
    },
    {
      "inputs": [
        {
          "internalType": "bytes32",
          "name": "voucherIdHash",
          "type": "bytes32"
        }
      ],
      "name": "getVouchesGiven",
      "outputs": [
        {
          "internalType": "bytes32[]",
          "name": "",
          "type": "bytes32[]"
        }
      ],
      "stateMutability": "view",
      "type": "function"
    },
    {
      "inputs": [
        {
          "internalType": "bytes32",
          "name": "voucheeIdHash",
          "type": "bytes32"
        }
      ],
      "name": "getVouchesReceived",
      "outputs": [
        {
          "internalType": "bytes32[]",
          "name": "",
          "type": "bytes32[]"
        }
      ],
      "stateMutability": "view",
      "type": "function"
    },
    {
      "inputs": [
        {
          "internalType": "bytes32",
          "name": "userIdHash",
          "type": "bytes32"
        }
      ],
      "name": "getWalletsForUser",
      "outputs": [
        {
          "internalType": "address[]",
          "name": "",
          "type": "address[]"
        }
      ],
      "stateMutability": "view",
      "type": "function"
    },
    {
      "inputs": [
        {
          "internalType": "bytes32",
          "name": "voucheeIdHash",
          "type": "bytes32"
        }
      ],
      "name": "giveVouch",
      "outputs": [],
      "stateMutability": "nonpayable",
      "type": "function"
    },
    {
      "inputs": [
        {
          "internalType": "bytes32",
          "name": "recordIdHash",
          "type": "bytes32"
        },
        {
          "internalType": "address",
          "name": "targetWallet",
          "type": "address"
        },
        {
          "internalType": "string",
          "name": "role",
          "type": "string"
        }
      ],
      "name": "grantRole",
      "outputs": [],
      "stateMutability": "nonpayable",
      "type": "function"
    },
    {
      "inputs": [
        {
          "internalType": "bytes32[]",
          "name": "recordIdHashes",
          "type": "bytes32[]"
        },
        {
          "internalType": "address",
          "name": "targetWallet",
          "type": "address"
        },
        {
          "internalType": "string[]",
          "name": "roles",
          "type": "string[]"
        }
      ],
      "name": "grantRoleBatch",
      "outputs": [],
      "stateMutability": "nonpayable",
      "type": "function"
    },
    {
      "inputs": [
        {
          "internalType": "bytes32",
          "name": "recordIdHash",
          "type": "bytes32"
        },
        {
          "internalType": "address",
          "name": "wallet",
          "type": "address"
        }
      ],
      "name": "hasActiveRole",
      "outputs": [
        {
          "internalType": "bool",
          "name": "",
          "type": "bool"
        }
      ],
      "stateMutability": "view",
      "type": "function"
    },
    {
      "inputs": [
        {
          "internalType": "bytes32",
          "name": "recordIdHash",
          "type": "bytes32"
        },
        {
          "internalType": "address",
          "name": "wallet",
          "type": "address"
        },
        {
          "internalType": "string",
          "name": "role",
          "type": "string"
        }
      ],
      "name": "hasRole",
      "outputs": [
        {
          "internalType": "bool",
          "name": "",
          "type": "bool"
        }
      ],
      "stateMutability": "view",
      "type": "function"
    },
    {
      "inputs": [
        {
          "internalType": "bytes32",
          "name": "voucherIdHash",
          "type": "bytes32"
        },
        {
          "internalType": "bytes32",
          "name": "voucheeIdHash",
          "type": "bytes32"
        }
      ],
      "name": "hasVouched",
      "outputs": [
        {
          "internalType": "bool",
          "name": "",
          "type": "bool"
        }
      ],
      "stateMutability": "view",
      "type": "function"
    },
    {
      "inputs": [],
      "name": "healthRecordCore",
      "outputs": [
        {
          "internalType": "contract HealthRecordCoreInterface",
          "name": "",
          "type": "address"
        }
      ],
      "stateMutability": "view",
      "type": "function"
    },
    {
      "inputs": [],
      "name": "initialize",
      "outputs": [],
      "stateMutability": "nonpayable",
      "type": "function"
    },
    {
      "inputs": [
        {
          "internalType": "bytes32",
          "name": "recordIdHash",
          "type": "bytes32"
        },
        {
          "internalType": "address",
          "name": "targetWallet",
          "type": "address"
        },
        {
          "internalType": "string",
          "name": "role",
          "type": "string"
        }
      ],
      "name": "initializeRecordRole",
      "outputs": [],
      "stateMutability": "nonpayable",
      "type": "function"
    },
    {
      "inputs": [
        {
          "internalType": "address",
          "name": "wallet",
          "type": "address"
        }
      ],
      "name": "isActiveMember",
      "outputs": [
        {
          "internalType": "bool",
          "name": "",
          "type": "bool"
        }
      ],
      "stateMutability": "view",
      "type": "function"
    },
    {
      "inputs": [
        {
          "internalType": "bytes32",
          "name": "recordIdHash",
          "type": "bytes32"
        },
        {
          "internalType": "bytes32",
          "name": "userIdHash",
          "type": "bytes32"
        }
      ],
      "name": "isActiveSubject",
      "outputs": [
        {
          "internalType": "bool",
          "name": "",
          "type": "bool"
        }
      ],
      "stateMutability": "view",
      "type": "function"
    },
    {
      "inputs": [
        {
          "internalType": "bytes32",
          "name": "trustorIdHash",
          "type": "bytes32"
        },
        {
          "internalType": "bytes32",
          "name": "trusteeIdHash",
          "type": "bytes32"
        }
      ],
      "name": "isControllerOf",
      "outputs": [
        {
          "internalType": "bool",
          "name": "",
          "type": "bool"
        }
      ],
      "stateMutability": "view",
      "type": "function"
    },
    {
      "inputs": [
        {
          "internalType": "bytes32",
          "name": "recordIdHash",
          "type": "bytes32"
        },
        {
          "internalType": "address",
          "name": "wallet",
          "type": "address"
        }
      ],
      "name": "isOwnerOrAdmin",
      "outputs": [
        {
          "internalType": "bool",
          "name": "",
          "type": "bool"
        }
      ],
      "stateMutability": "view",
      "type": "function"
    },
    {
      "inputs": [
        {
          "internalType": "address",
          "name": "wallet",
          "type": "address"
        }
      ],
      "name": "isVerifiedMember",
      "outputs": [
        {
          "internalType": "bool",
          "name": "",
          "type": "bool"
        }
      ],
      "stateMutability": "view",
      "type": "function"
    },
    {
      "inputs": [
        {
          "internalType": "address",
          "name": "wallet",
          "type": "address"
        }
      ],
      "name": "isVerifiedProvider",
      "outputs": [
        {
          "internalType": "bool",
          "name": "",
          "type": "bool"
        }
      ],
      "stateMutability": "view",
      "type": "function"
    },
    {
      "inputs": [
        {
          "internalType": "bytes32",
          "name": "",
          "type": "bytes32"
        },
        {
          "internalType": "uint256",
          "name": "",
          "type": "uint256"
        }
      ],
      "name": "ownersByRecord",
      "outputs": [
        {
          "internalType": "bytes32",
          "name": "",
          "type": "bytes32"
        }
      ],
      "stateMutability": "view",
      "type": "function"
    },
    {
      "inputs": [
        {
          "internalType": "bytes32",
          "name": "trusteeIdHash",
          "type": "bytes32"
        },
        {
          "internalType": "enum MemberRoleManager.TrusteeLevel",
          "name": "level",
          "type": "uint8"
        },
        {
          "internalType": "bytes32[]",
          "name": "recordIdHashes",
          "type": "bytes32[]"
        }
      ],
      "name": "proposeTrustee",
      "outputs": [],
      "stateMutability": "nonpayable",
      "type": "function"
    },
    {
      "inputs": [],
      "name": "proxiableUUID",
      "outputs": [
        {
          "internalType": "bytes32",
          "name": "",
          "type": "bytes32"
        }
      ],
      "stateMutability": "view",
      "type": "function"
    },
    {
      "inputs": [
        {
          "internalType": "address",
          "name": "wallet",
          "type": "address"
        }
      ],
      "name": "reactivateWallet",
      "outputs": [],
      "stateMutability": "nonpayable",
      "type": "function"
    },
    {
      "inputs": [
        {
          "internalType": "bytes32",
          "name": "",
          "type": "bytes32"
        }
      ],
      "name": "recordRoles",
      "outputs": [
        {
          "internalType": "string",
          "name": "role",
          "type": "string"
        },
        {
          "internalType": "bool",
          "name": "isActive",
          "type": "bool"
        }
      ],
      "stateMutability": "view",
      "type": "function"
    },
    {
      "inputs": [
        {
          "internalType": "bytes32",
          "name": "voucheeIdHash",
          "type": "bytes32"
        }
      ],
      "name": "retractVouch",
      "outputs": [],
      "stateMutability": "nonpayable",
      "type": "function"
    },
    {
      "inputs": [
        {
          "internalType": "bytes32",
          "name": "recordIdHash",
          "type": "bytes32"
        },
        {
          "internalType": "address",
          "name": "targetWallet",
          "type": "address"
        }
      ],
      "name": "revokeRole",
      "outputs": [],
      "stateMutability": "nonpayable",
      "type": "function"
    },
    {
      "inputs": [
        {
          "internalType": "bytes32[]",
          "name": "recordIdHashes",
          "type": "bytes32[]"
        },
        {
          "internalType": "address",
          "name": "targetWallet",
          "type": "address"
        }
      ],
      "name": "revokeRoleBatch",
      "outputs": [],
      "stateMutability": "nonpayable",
      "type": "function"
    },
    {
      "inputs": [
        {
          "internalType": "bytes32",
          "name": "trustorIdHash",
          "type": "bytes32"
        },
        {
          "internalType": "bytes32",
          "name": "trusteeIdHash",
          "type": "bytes32"
        }
      ],
      "name": "revokeTrustee",
      "outputs": [],
      "stateMutability": "nonpayable",
      "type": "function"
    },
    {
      "inputs": [
        {
          "internalType": "bytes32",
          "name": "",
          "type": "bytes32"
        }
      ],
      "name": "roleGrantedBy",
      "outputs": [
        {
          "internalType": "bytes32",
          "name": "",
          "type": "bytes32"
        }
      ],
      "stateMutability": "view",
      "type": "function"
    },
    {
      "inputs": [
        {
          "internalType": "address",
          "name": "_healthRecordCore",
          "type": "address"
        }
      ],
      "name": "setHealthRecordCore",
      "outputs": [],
      "stateMutability": "nonpayable",
      "type": "function"
    },
    {
      "inputs": [
        {
          "internalType": "bytes32",
          "name": "userIdHash",
          "type": "bytes32"
        },
        {
          "internalType": "enum MemberRoleManager.MemberStatus",
          "name": "newStatus",
          "type": "uint8"
        }
      ],
      "name": "setUserStatus",
      "outputs": [],
      "stateMutability": "nonpayable",
      "type": "function"
    },
    {
      "inputs": [
        {
          "internalType": "bytes32",
          "name": "",
          "type": "bytes32"
        },
        {
          "internalType": "uint256",
          "name": "",
          "type": "uint256"
        }
      ],
      "name": "sharersByRecord",
      "outputs": [
        {
          "internalType": "bytes32",
          "name": "",
          "type": "bytes32"
        }
      ],
      "stateMutability": "view",
      "type": "function"
    },
    {
      "inputs": [],
      "name": "totalUsers",
      "outputs": [
        {
          "internalType": "uint256",
          "name": "",
          "type": "uint256"
        }
      ],
      "stateMutability": "view",
      "type": "function"
    },
    {
      "inputs": [
        {
          "internalType": "address",
          "name": "newAdmin",
          "type": "address"
        }
      ],
      "name": "transferAdmin",
      "outputs": [],
      "stateMutability": "nonpayable",
      "type": "function"
    },
    {
      "inputs": [
        {
          "internalType": "bytes32",
          "name": "",
          "type": "bytes32"
        },
        {
          "internalType": "bytes32",
          "name": "",
          "type": "bytes32"
        }
      ],
      "name": "trusteeRelationships",
      "outputs": [
        {
          "internalType": "enum MemberRoleManager.TrusteeStatus",
          "name": "status",
          "type": "uint8"
        },
        {
          "internalType": "enum MemberRoleManager.TrusteeLevel",
          "name": "level",
          "type": "uint8"
        }
      ],
      "stateMutability": "view",
      "type": "function"
    },
    {
      "inputs": [
        {
          "internalType": "bytes32",
          "name": "",
          "type": "bytes32"
        },
        {
          "internalType": "uint256",
          "name": "",
          "type": "uint256"
        }
      ],
      "name": "trusteesByTrustor",
      "outputs": [
        {
          "internalType": "bytes32",
          "name": "",
          "type": "bytes32"
        }
      ],
      "stateMutability": "view",
      "type": "function"
    },
    {
      "inputs": [
        {
          "internalType": "bytes32",
          "name": "trusteeIdHash",
          "type": "bytes32"
        },
        {
          "internalType": "enum MemberRoleManager.TrusteeLevel",
          "name": "newLevel",
          "type": "uint8"
        }
      ],
      "name": "updateTrusteeLevel",
      "outputs": [],
      "stateMutability": "nonpayable",
      "type": "function"
    },
    {
      "inputs": [
        {
          "internalType": "address",
          "name": "newImplementation",
          "type": "address"
        },
        {
          "internalType": "bytes",
          "name": "data",
          "type": "bytes"
        }
      ],
      "name": "upgradeToAndCall",
      "outputs": [],
      "stateMutability": "payable",
      "type": "function"
    },
    {
      "inputs": [
        {
          "internalType": "bytes32",
          "name": "",
          "type": "bytes32"
        }
      ],
      "name": "userStatus",
      "outputs": [
        {
          "internalType": "enum MemberRoleManager.MemberStatus",
          "name": "",
          "type": "uint8"
        }
      ],
      "stateMutability": "view",
      "type": "function"
    },
    {
      "inputs": [
        {
          "internalType": "bytes32",
          "name": "",
          "type": "bytes32"
        },
        {
          "internalType": "uint256",
          "name": "",
          "type": "uint256"
        }
      ],
      "name": "userWallets",
      "outputs": [
        {
          "internalType": "address",
          "name": "",
          "type": "address"
        }
      ],
      "stateMutability": "view",
      "type": "function"
    },
    {
      "inputs": [
        {
          "internalType": "bytes32",
          "name": "",
          "type": "bytes32"
        },
        {
          "internalType": "uint256",
          "name": "",
          "type": "uint256"
        }
      ],
      "name": "viewersByRecord",
      "outputs": [
        {
          "internalType": "bytes32",
          "name": "",
          "type": "bytes32"
        }
      ],
      "stateMutability": "view",
      "type": "function"
    },
    {
      "inputs": [
        {
          "internalType": "bytes32",
          "name": "recordIdHash",
          "type": "bytes32"
        }
      ],
      "name": "voluntarilyLeaveOwnership",
      "outputs": [],
      "stateMutability": "nonpayable",
      "type": "function"
    },
    {
      "inputs": [
        {
          "internalType": "bytes32",
          "name": "",
          "type": "bytes32"
        },
        {
          "internalType": "bytes32",
          "name": "",
          "type": "bytes32"
        }
      ],
      "name": "vouches",
      "outputs": [
        {
          "internalType": "enum MemberRoleManager.VouchStatus",
          "name": "",
          "type": "uint8"
        }
      ],
      "stateMutability": "view",
      "type": "function"
    },
    {
      "inputs": [
        {
          "internalType": "bytes32",
          "name": "",
          "type": "bytes32"
        },
        {
          "internalType": "uint256",
          "name": "",
          "type": "uint256"
        }
      ],
      "name": "vouchesGiven",
      "outputs": [
        {
          "internalType": "bytes32",
          "name": "",
          "type": "bytes32"
        }
      ],
      "stateMutability": "view",
      "type": "function"
    },
    {
      "inputs": [
        {
          "internalType": "bytes32",
          "name": "",
          "type": "bytes32"
        },
        {
          "internalType": "uint256",
          "name": "",
          "type": "uint256"
        }
      ],
      "name": "vouchesReceived",
      "outputs": [
        {
          "internalType": "bytes32",
          "name": "",
          "type": "bytes32"
        }
      ],
      "stateMutability": "view",
      "type": "function"
    },
    {
      "inputs": [
        {
          "internalType": "address",
          "name": "",
          "type": "address"
        }
      ],
      "name": "wallets",
      "outputs": [
        {
          "internalType": "bytes32",
          "name": "userIdHash",
          "type": "bytes32"
        },
        {
          "internalType": "bool",
          "name": "isWalletActive",
          "type": "bool"
        }
      ],
      "stateMutability": "view",
      "type": "function"
    }
  ],
  "bytecode": "0x60a08060405234620000d157306080527ff0c57e16840df040f15088dc2f81fe391c3923bec73e23a9662efc9c229c6a009081549060ff8260401c16620000c257506001600160401b036002600160401b0319828216016200007c575b604051615c219081620000d68239608051818181612e8601526132b10152f35b6001600160401b031990911681179091556040519081527fc7f505b2f371ae2175ee4913f4499e1f2633a7b5936321eed1cdaeb6115181d290602090a15f80806200005c565b63f92ee8a960e01b8152600490fd5b5f80fdfe6080604090808252600480361015610015575f80fd5b5f3560e01c918262b0c809146144a75750816302ba8109146142aa578163033e822f146142815781630519e2a01461425b5781630a296a7b146142495781630b3ffd1d1461418c578163259ed80e1461416757816329c9087a14613a845781632ab5d8f314613a5b5781632ae8511d146138d257816330d7265c146137c057816333105592146137835781633befa4101461376857816341a51baa1461373f578163422a5bb81461370b57816343e19704146136b957816345ecd02f1461369957816349df7208146135595781634d3c4a7c1461345e5781634f1ef2861461326157816351eed47214612eea57816352d1902d14612e73578163557ee54f14612dd75781635581607914612da7578163562c788e146109ec57816364f639d414612d8c57816368309c8914612d5c57816369ac202214612b695781636b4bed9714610660578163726d54471461284957816373c19c8d1461274c57816375829def146126ce57816378ad8f5b1461262a5781637b657d07146125ed5781638129fc1c146124d05781638776cd35146124a05781638806e5911461247757816389b08f11146124325781638db7edb4146123e357816393ccfba8146123b35781639443cd801461236d57816396207e021461222957816396a03f8d146121f95781639915b91f146121815781639be572f614611e5b578163aaddc34514612155578163ab48384a14612050578163ad3cb1cc1461200c578163b8cab84b14611f2e578163bb0f86d514611e77578163bff1f9e114611e5b578163c36dc9ef14611e32578163c497d84014611e03578163c715582314611d87578163c88c35fe14611d61578163c979c9bf14611ad2578163cb261a0314611aa4578163cda06c6e14611a7d578163d12a7768146119ce578163d1f616dd146119a5578163d547741f146114e9578163db54f7b7146112c6578163dc9f9664146110b6578163dde492ea14610ca6578163dff1bea014610c6b578163e6efcd5d14610a14578163e94ed257146109ec578163f12b9ad31461068f578163f29e007b14610660578163f32b10f014610630578163f50936c9146105f0578163f76794f1146103f857508063f851a440146103d1578063fc78f177146103995763fdd9887e14610358575f80fd5b34610395576103663661474c565b91905f52600d602052805f2080548310156103955760209261038791614919565b91905490519160031b1c8152f35b5f80fd5b5034610395576020906103ab3661474c565b905f5260108352815f20905f52825260ff815f2054169051906103cd81614762565b8152f35b5034610395575f366003190112610395575f5490516001600160a01b039091168152602090f35b823461039557602091826003193601126103955780359261042061041b33615167565b61496f565b335f52600193848252835f205492815f52600c8352845f20845f528352845f209081549160ff918860ff851661045581614942565b036105ad5760ff1980941617905584837fc1f9bda0602b12c2f11218f87531038a6957666101c4faad39c882dcc5093dc6868951428152a3825f52600e8452855f20855f528452855f20875f905b6104c5575b6104c3888888885f52600e8152825f20915f52525f2061502c565b005b81548110156105a857908882888a6104e08498979686614919565b90549060031b1c895f52600f8b52815f20835f528b52815f20815f528b52815f2088815416905561051183826152c2565b5f528a60058082528887855f200154161561059e578493600b5f80516020615bac8339815191529361054387876152c2565b93845f52808252610555845f206147fa565b94610561868a8a615443565b5f52815289835f20018d8154169055525f818120558d61058a825193838594855284019061489c565b9042908301520390a45b01909192936104a3565b5050505050610594565b6104a8565b875162461bcd60e51b8152908101869052601e60248201527f4e6f2070656e64696e672070726f706f73616c20746f206465636c696e6500006044820152606490fd5b82346103955760203660031901126103955761062c91355f526012602052610619815f20614a42565b9051918291602083526020830190614719565b0390f35b82346103955761063f3661474c565b91905f526008602052805f2080548310156103955760209261038791614919565b823461039557602036600319011261039557602091355f526002825260ff815f2054169051906103cd81614942565b823461039557806003193601126103955781356001600160401b038111610395576106bd9036908401614589565b916106c66144f1565b6106d261041b33615167565b6001600160a01b03169081156109b85750335f52600192602060018152835f2054925f52835f2054916107068315156149f6565b855f9584861415915b61071557005b82518710156104c35787876107358761072f849b88614f9d565b516156ae565b156109b35787876107508161074a858a614f9d565b516152c2565b805f526005808a52610763875f206147fa565b91858b8a8c865183880120610776614c90565b84815191012081146109a457610796896107908785614f9d565b51615354565b6109a4578793899361087a575b6107ab614cb1565b805191012014610821575b6107c9936107c391614f9d565b51615443565b5f52895284865f200160ff198154169055600b89525f868120555f80516020615bac8339815191526108116107fe868b614f9d565b519288519182918a83528a83019061489c565b428d8301520390a45b019661070f565b905061082e929150614f9d565b515f5260068b52858a895f2054158061085a575b61084e578585916107b6565b5050505050505061081a565b509061086591614f9d565b515f5260078b52858a888a5f20541115610842565b925092508b61089c61088c8684614f9d565b518b610896614c90565b916152f6565b8a6108b46108aa8886614f9d565b5182610896614cb1565b928a8c6108bf614cfc565b8881519101208914801561098e575b1561091e575050885f52600b86525f20541490159182610915575b508161090c575b506108fe57869288926107a3565b50505050505050505061081a565b9050155f6108f0565b1591505f6108e9565b969392509693905061092e614cb1565b8381519101208414610942575b50506107a3565b9194509194506109528684614f9d565b515f908152600685528e902054156109765750155b6108fe57869288925f8061093b565b90159081610985575b50610967565b9050155f61097f565b50610997614cda565b88815191012089146108ce565b5050505050505050505061081a565b61081a565b606490602084519162461bcd60e51b8352820152600e60248201526d125b9d985b1a59081dd85b1b195d60921b6044820152fd5b8234610395575f36600319011261039557600a5490516001600160a01b039091168152602090f35b823461039557610a233661474c565b91610a3860018060a01b035f54163314614ae1565b8115610c3757610a49831515615098565b610a55838314156150d6565b815f526002602081815260ff835f205416610a6f81614942565b15610bfc57845f52818152610a9460ff845f205416610a8d81614942565b1515615122565b835f52600c8152825f20855f52815260ff835f20541695610ab487614942565b861590818015610be9575b15610b975750610af17fc5b2e1bd4433eb4e9e181cc803520513d39d918c96bddeebca1224e1c750963d959697614942565b610b7f575b610b438351610b0481614507565b838152828101848152875f52600c8452855f20895f528452610b33865f209251610b2d81614942565b83614ed1565b5190610b3e82614762565b614f57565b85857f494d010fdf588a0e83d626ea6963187bdda6f88b7007f7bf280683d3f7dea8348580518681524286820152a382519182524290820152a3005b845f52600d8152610b9286845f2061505c565b610af6565b845162461bcd60e51b8152908101839052602660248201527f52656c6174696f6e7368697020616c726561647920616374697665206f722070604482015265656e64696e6760d01b6064820152608490fd5b50610bf388614942565b60038814610abf565b8560649184519162461bcd60e51b83528201526016602482015275151c9d5cdd1bdc881b9bdd081c9959da5cdd195c995960521b6044820152fd5b5162461bcd60e51b8152602081850152600f60248201526e24b73b30b634b2103a393ab9ba37b960891b6044820152606490fd5b823461039557602090610c7d3661474c565b905f5260108352815f20905f528252600160ff825f20541691610c9f83614762565b5191148152f35b90503461039557610cb636614780565b919290610cc561041b33615167565b610cd0841515614b5e565b6001600160a01b031692610ce5841515614baa565b610cf6610cf18461524a565b614bf6565b335f5260209160018352855f2054945f52855f205492610d178415156149f6565b845181860120610d2787856152c2565b5f526005825260ff6001895f200154161561107557835f5260068252875f2054151590610d5c610d55614c90565b89876152f6565b91610d6f610d68614cb1565b8a886152f6565b91610d82610d7b614cda565b8b896152f6565b90610d8b614c90565b8051908701208103610ec957505015610e6f575015610e2d575b610daf84846152c2565b5f526005815260ff6001885f20015416610dcf5750506104c394506156b8565b865162461bcd60e51b815291820152603360248201527f54617267657420616c726561647920686173206120726f6c652e2055736520636044820152721a185b99d9549bdb194a0a481a5b9cdd195859606a1b606482015260849150fd5b865162461bcd60e51b815291820181905260248201527f4f6e6c79206f776e6572732063616e206772616e74206f776e657220726f6c65604482015260649150fd5b9050610da557865162461bcd60e51b815291820152602960248201527f4f6e6c792061646d696e6973747261746f72732063616e206772616e742066696044820152683939ba1037bbb732b960b91b606482015260849150fd5b90929150610ed5614cb1565b8051908601208103610f4d575090508115610f45575b50610da557865162461bcd60e51b815291820152603b60248201525f80516020615bcc83398151915260448201527f616e206772616e742061646d696e6973747261746f7220726f6c650000000000606482015260849150fd5b90505f610eeb565b610f55614cda565b8051908601208103610fc4575090508115610fbc575b50610da557865162461bcd60e51b815291820152603460248201525f80516020615bcc833981519152604482015273616e206772616e742073686172657220726f6c6560601b606482015260849150fd5b90505f610f6b565b610fcc614cfc565b85815191012014610fe0575b505050610da5565b821561106d575b508115611065575b5015610ffd575f8080610fd8565b865162461bcd60e51b815291820152603e60248201527f4f6e6c79206f776e6572732c2061646d696e6973747261746f72732c20616e6460448201527f20736861726572732063616e206772616e742076696577657220726f6c650000606482015260849150fd5b90505f610fef565b91505f610fe7565b60648383808b519262461bcd60e51b845283015260248201527f596f752068617665206e6f20726f6c6520666f722074686973207265636f72646044820152fd5b9050346103955760603660031901126103955780356024356003811015610395576044356001600160401b038111610395576110f59036908501614589565b9161110261041b33615167565b335f52600193602060018152865f20549161111e841515615098565b61112a848414156150d6565b835f526002825261114460ff895f205416610a8d81614942565b825f52600c8252875f20845f52825260ff885f20541661116381614942565b8015918280156112b3575b80156112a1575b1561125057508798859385936111ab7f494d010fdf588a0e83d626ea6963187bdda6f88b7007f7bf280683d3f7dea83494614942565b611238575b6111f182516111be81614507565b600181528281016111ce8b614762565b8a8152865f52600c8452845f20885f528452610b33855f209251610b2d81614942565b8151906111fd89614762565b8882524290820152a35f945b61120f57005b83518510156104c357858561123185858561122b869b8b614f9d565b516154ee565b0194611209565b835f52600d815261124b85835f2061505c565b6111b0565b895162461bcd60e51b8152908101849052602560248201527f50726f706f73616c20616c726561647920657869737473206f722069732070656044820152646e64696e6760d81b6064820152608490fd5b506112ab82614942565b808214611175565b506112bd82614942565b6003821461116e565b90503461039557602080600319360112610395578135926112e961041b33615167565b335f5260018252805f20549284156114b65784841461147557845f526002835260ff825f20541661131981614942565b816002821491821561145d575b8215611449575b50501561140957835f5260108352815f20855f528352600160ff835f20541661135581614762565b146113c85750907fbc7e6071d162923d46a4378af39747cea2ccb6f4a57f09aefc6e92047c5bf1be91835f5260108252805f20855f528252805f20600160ff19825416179055835f52601182526113ae85825f2061505c565b845f52601282526113c184825f2061505c565b51428152a3005b82606492519162461bcd60e51b8352820152601e60248201527f416c726561647920766f756368696e6720666f722074686973207573657200006044820152fd5b8280606493519262461bcd60e51b845283015260248201527f566f7563686565206d75737420626520616e20616374697665206d656d6265726044820152fd5b90915061145581614942565b14815f61132d565b80925061146a9150614942565b816003821491611326565b82606492519162461bcd60e51b8352820152601960248201527f43616e6e6f7420766f75636820666f7220796f757273656c66000000000000006044820152fd5b82606492519162461bcd60e51b8352820152600f60248201526e496e76616c696420766f756368656560881b6044820152fd5b823461039557806003193601126103955781356115046144f1565b61151061041b33615167565b61151b821515614b5e565b6001600160a01b031692611530841515614baa565b335f5260209260018452805f2054945f52805f2054936115518515156149f6565b61155b85856152c2565b805f526005825261157460ff6001855f20015416614c38565b805f5260058252611586835f206147fa565b93845183860120611595614c90565b848151910120811461192e576115ab8888615354565b61189f578789036116b9575b6115bf614cb1565b84815191012014611624575b50908392916115e95f80516020615bac833981519152958888615443565b5f52600581526001825f200160ff198154169055600b81525f82812055611619825193838594855284019061489c565b9042908301520390a4005b855f52600783526001845f20541160068452845f2054151581156116b1575b506115cb57835162461bcd60e51b8152908101839052603960248201527f43616e6e6f74207265766f6b65206c6173742061646d696e6973747261746f7260448201527f20776974686f757420616e206f776e65722070726573656e74000000000000006064820152608490fd5b905089611643565b6116cb6116c4614c90565b8a896152f6565b6116dd6116d6614cb1565b8b8a6152f6565b845f52600b86528a875f205414906116f3614cfc565b87815191012084148015611889575b156117ae5782156117a6575b50811561179e575b5015611722575b6115b7565b845162461bcd60e51b8152808301859052604a60248201527f4f6e6c79206f776e6572732c2061646d696e6973747261746f72732c206f722060448201527f746865206772616e7465722063616e207265766f6b65207669657765722f73686064820152696172657220726f6c657360b01b608482015260a490fd5b90508a611716565b91508b61170e565b821592915082611881575b501561183957156115b7576117cc614cb1565b848151910120810361171d57865f5260068452845f20541561171d57845162461bcd60e51b8152808301859052602560248201527f4f6e6c79206f776e6572732063616e207265766f6b652061646d696e6973747260448201526461746f727360d81b6064820152608490fd5b855162461bcd60e51b8152808401869052602f60248201525f80516020615bcc83398151915260448201526e616e207265766f6b6520726f6c657360881b6064820152608490fd5b90508b6117b9565b50611892614cda565b8781519101208414611702565b845162461bcd60e51b8152808301859052605760248201527f43616e6e6f74207265766f6b6520616e20616374697665207375626a6563742760448201527f7320726f6c652e20416374697665207375626a65637473206d75737420686f6c60648201527f64206174206c656173742073686172657220726f6c652e000000000000000000608482015260a490fd5b845162461bcd60e51b8152808301859052604560248201527f4f776e6572732063616e6e6f74206265207265766f6b65642e204f776e65722060448201527f6d7573742075736520766f6c756e746172696c794c656176654f776e6572736860648201526434b814149760d91b608482015260a490fd5b82346103955760203660031901126103955761062c91355f52600d602052610619815f20614a42565b9050346103955760209081600319360112610395578290355f5260038252805f208151928381835491828152019081935f52825f20905f5b818110611a605750505084611a1c910385614551565b825181815293518185018190528493840192915f5b828110611a4057505050500390f35b83516001600160a01b031685528695509381019392810192600101611a31565b82546001600160a01b031684529284019260019283019201611a06565b823461039557602036600319011261039557602091355f52600b8252805f20549051908152f35b823461039557602036600319011261039557602090611ac9611ac46144db565b615931565b90519015158152f35b823461039557611ae13661474c565b9092611aef61041b33615167565b335f52600193602091858352845f2054908282148015611d58575b15611d1757825f52600c8452855f20855f52845260ff9060ff875f205416611b3181614942565b8860028214918215611d03575b505015611cb65750825f52600c8452855f20855f528452855f2090600360ff19926003848254161790558387867f6df3a6475fab2eed139f7e469995b04e85bfc5b4b8642587109cb72541f74fae898c51428152a4845f52600e8652875f20875f528652875f20895f905b611bc9575b6104c38a8a8a8a5f52600e8152825f20915f52525f2061502c565b8154811015611cb157908a82878b8d8c611be8869c9b9a999888614919565b905490891b1c918d5f52600f8252805f20845f528252805f20835f528252805f208b8154169055611c1984846152c2565b5f526005908183528a88825f2001541615611ca6575f80516020615bac83398151915292611c4786866152c2565b92835f52808252611c59835f206147fa565b93611c65858989615443565b5f52815288825f20018d8154169055600b81525f82812055611c90825193838594855284019061489c565b9042908301520390a45b01909192939495611ba9565b505050505050611c9a565b611bae565b865162461bcd60e51b8152908101859052602160248201527f4e6f20616374697665206f722070656e64696e672072656c6174696f6e7368696044820152600760fc1b6064820152608490fd5b909150611d0f81614942565b14888a611b3e565b606490848088519262461bcd60e51b845283015260248201527f4e6f74206120706172747920746f20746869732072656c6174696f6e736869706044820152fd5b50848214611b0a565b8234610395578060031936011261039557611ac9602092611d806144f1565b9035614fef565b8234610395576020366003190112610395577fce59ad7d6dabe8a7533ed7d9bd07d276a046ac7ac9a8e8e8971da4b81104a28b6020611dc46144db565b5f546001600160a01b039190611ddd9083163314614ae1565b1692611dea841515614fb1565b600a80546001600160a01b0319168517905551428152a2005b82346103955761062c90611e163661474c565b905f52600e602052815f20905f52602052610619815f20614a42565b82346103955760203660031901126103955761062c91355f526006602052610619815f20614a42565b8234610395575f36600319011261039557602091549051908152f35b90503461039557602036600319011261039557611e926144db565b5f546001600160a01b039190611eab9083163314614ae1565b16805f5260019182602052611ec4845f20541515614b1a565b815f528260205260ff83855f20015416611ef357509181925f52816020525f20019060ff198254161790555f80f35b606490602085519162461bcd60e51b8352820152601560248201527457616c6c657420616c72656164792061637469766560581b6044820152fd5b8234610395576020908160031936011261039557823591611f5161041b33615167565b335f5260018152815f205493835f52600c8252825f20855f528252825f2090815490600160ff8316611f8281614942565b03611fd3575060ff19166002179081905582517fc5b2e1bd4433eb4e9e181cc803520513d39d918c96bddeebca1224e1c750963d9392909160081c60ff16611fc981614762565b82524290820152a3005b845162461bcd60e51b81529081018490526013602482015272139bc81c195b991a5b99c81c1c9bdc1bdcd85b606a1b6044820152606490fd5b8234610395575f36600319011261039557805161062c9161202c82614507565b60058252640352e302e360dc1b60208301525191829160208352602083019061489c565b90503461039557612060366148fa565b9161206d61041b33615167565b335f526001602052835f205490815f52600c602052845f20835f52602052845f2060ff81546120a960028383166120a381614942565b14614f0b565b60081c16916120b786614762565b6120c083614762565b85831461211257507fb36ec3c738ef8ecd9180addc815304762374b76e91c2a321831d9906ea119ade61210a85936104c3986120fd898896614f57565b5191829189429184614f76565b0390a36155d9565b606490602088519162461bcd60e51b8352820152601860248201527f416c72656164792074686973207472757374206c6576656c00000000000000006044820152fd5b82346103955760209061217061216a3661474c565b906152c2565b5f52600b8252805f20549051908152f35b8234610395576121903661474c565b905f52600c602052815f20905f52602052805f2061062c60ff8351926121b584614507565b548181166121c281614942565b845260081c169160208101926121d781614762565b835251916121e483614942565b51926121ef84614762565b519283928361494c565b8234610395576122083661474c565b91905f526012602052805f2080548310156103955760209261038791614919565b823461039557806003193601126103955781359060243560058110156103955761225d60018060a01b035f54163314614ae1565b825f5260206002815260ff835f20541661227681614942565b1561233557835f526002815260ff835f2054169461229383614942565b61229c86614942565b8286146122fe5750835f52600281526122b782845f20614ed1565b8251946122c381614942565b85526122ce82614942565b84015242908301527ff6277c6ee46649823db9a5c531db3112b4340c67179cae1932ba3420dcc37cc760603393a3005b60649184519162461bcd60e51b83528201526013602482015272416c726561647920746869732073746174757360681b6044820152fd5b8460649184519162461bcd60e51b83528201526013602482015272155cd95c881b9bdd081c9959da5cdd195c9959606a1b6044820152fd5b82346103955761237c3661474c565b91905f526003602052805f2080548310156103955760209261239d91614919565b60018060a01b0391549060031b1c169051908152f35b8234610395576123c23661474c565b91905f526009602052805f2080548310156103955760209261038791614919565b82346103955760208060031936011261039557608092355f5260068152815f20549160078252805f20549060088352805f20549160098452815f20549382519586528501528301526060820152f35b8234610395576020366003190112610395576001600160a01b036124546144db565b165f526001602052805f2060ff6001825492015416825191825215156020820152f35b82346103955760203660031901126103955761062c91355f526011602052610619815f20614a42565b8234610395576124af3661474c565b91905f526007602052805f2080548310156103955760209261038791614919565b905034610395575f366003190112610395577ff0c57e16840df040f15088dc2f81fe391c3923bec73e23a9662efc9c229c6a0090815460ff81851c1615916001600160401b038216801590816125e5575b60011490816125db575b1590816125d2575b506125c4575067ffffffffffffffff1981166001178355816125a5575b505f80546001600160a01b0319163317905561256857005b805468ff00000000000000001916905551600181527fc7f505b2f371ae2175ee4913f4499e1f2633a7b5936321eed1cdaeb6115181d290602090a1005b68ffffffffffffffffff1916680100000000000000011782555f612550565b845163f92ee8a960e01b8152fd5b9050155f612533565b303b15915061252b565b849150612521565b82346103955761062c906126003661474c565b905f52600c602052815f20905f52602052805f20549051918160ff80859460081c1691168361494c565b82346103955760209182600319360112610395576126a69261062c91355f52600681526126c0835f209360078352805f2094600884526126b3825f20946009815261269261268c612686612680875f2096614a42565b9a614a42565b97614a42565b93614a42565b958451998a9960808b5260808b0190614719565b91898303908a0152614719565b9186830390870152614719565b908382036060850152614719565b8234610395576020366003190112610395576020906126eb6144db565b5f5491906001600160a01b03808416917f38df5fa0f7fef0d515ca1f5388cb5790ac5885d5fca8d05d9f943e563c33a4b39190612729338514614ae1565b16948593612738851515614fb1565b51428152a36001600160a01b031916175f55005b905034610395576020806003193601126103955781359261276f61041b33615167565b335f5260018252805f205492835f5260108352815f20855f528352600160ff835f20541661279c81614762565b036128085750907f0972fd04571d170dafa6fe5d3822da50a1fd8596d166c4ca101dff5fc760533e91835f5260108252805f20855f528252805f20600260ff19825416179055835f52601182526127f585825f2061589a565b845f52601282526113c184825f2061589a565b82606492519162461bcd60e51b8352820152601d60248201527f4e6f2061637469766520766f75636820666f72207468697320757365720000006044820152fd5b9050346103955761285936614780565b93909260018060a01b03612871815f54163314614ae1565b61287c841515614b5e565b8416612889811515614dc2565b612895610cf18761524a565b5f5260016020918183526128b7845f2054966128b2881515614b1a565b615167565b15612b2657845f5260068352835f20541580612b17575b15612ad4576128dd86866152c2565b91825f5260058452845f209160ff826128f5856147fa565b940154169186519161290683614507565b8a835286830190828252865f5260058852885f2093518051916001600160401b038311612ac1575061293885546147c2565b601f8111612a7b575b508890601f8311600114612a145761298895949392915f9183612a09575b50505f19600383901b1c191690831b1783555b51151591019060ff801983541691151516179055565b6129dc5750915f95917ff9d17eb1340ab78960b594ff8bed1349985b800ee21199c6d5ea4a67454593ad938752600b815286828120556129c9838787615a6f565b611619825193838594855284019061489c565b95949392505084518186012090845190850120036129f657005b612a046104c3948383615443565b615a6f565b015190505f8061295f565b90601f19831691865f528a5f20925f5b8c828210612a67575050918695949291836129889998959310612a4f575b505050811b018355612972565b01515f1960f88460031b161c191690555f8080612a42565b838501518655948801949384019301612a24565b855f52895f20601f840160051c8101918b8510612ab7575b601f0160051c019085905b828110612aac575050612941565b5f8155018590612a9e565b9091508190612a93565b604190634e487b7160e01b5f525260245ffd5b835162461bcd60e51b8152908101839052601a60248201527f5265636f726420616c726561647920696e697469616c697a65640000000000006044820152606490fd5b5060078352835f2054156128ce565b835162461bcd60e51b8152908101839052601860248201527f4d75737420626520616e20616374697665206d656d62657200000000000000006044820152606490fd5b82346103955780600319360112610395576001600160401b03908235828111610395573660238201121561039557808401359283116103955760246005913660248660051b83010111610395575f546001600160a01b03966024359591612bd39089163314614ae1565b8615612d2457612be4861515614e07565b855f526002936020936002855260ff845f205416612c0181614942565b15965f5b8a8110612c0e57005b8381831b84010135908c8216918281036103955782612c958d92612c356001961515614dc2565b825f52612c868b8d8890818152612c4f835f205415614e4a565b825192612c5b84614507565b8884528282850192818452895f52525f209251835551151591019060ff801983541691151516179055565b835f5260038c528a5f20614e96565b821580612d1d575b15612cf057815f528a8a52885f208b60ff19825416179055612cbf8854614ee9565b88557f39d132591ee0696de49ab564e4a90e430c006561917db731a2a614dd2d2455918a8a51428152a35b01612c05565b7f1cc138f50384be7770a8e4a34eecaa0d0c718bfaa1641af49db32532e4a5b9108a8a51428152a3612cea565b508b612c9d565b6020606492519162461bcd60e51b83528201526013602482015272139bc81dd85b1b195d1cc81c1c9bdd9a591959606a1b6044820152fd5b823461039557612d6b3661474c565b91905f526011602052805f2080548310156103955760209261038791614919565b823461039557602090611ac9612da13661474c565b90615354565b823461039557612db63661474c565b91905f526006602052805f2080548310156103955760209261038791614919565b823461039557602090612de93661474c565b905f52600c8352815f20905f528252805f2090600260ff825193612e0c85614507565b54818116612e1981614942565b855260081c169284810193612e2d81614762565b845251612e3981614942565b612e4281614942565b149182612e53575b50519015158152f35b600291925051612e6281614762565b612e6b81614762565b149083612e4a565b8234610395575f366003190112610395577f00000000000000000000000000000000000000000000000000000000000000006001600160a01b03163003612edd57602090517f360894a13ba1a3210667c828492db98dca3e2076cc3735a920a3ca505d382bbc8152f35b5163703e46dd60e11b8152fd5b823461039557612ef93661464c565b90612f0661041b33615167565b612f1383518351146149b2565b335f52600193602091858352815f20549060018060a01b03165f52815f205490612f3e8215156149f6565b865f96838314915b612f4c57005b80518810156104c3578888612f62829a84614f9d565b51612f6d828b614f9d565b51612f778161524a565b1561325a57612f8687836152c2565b5f526005808b5260ff80868c5f200154161561325157612fa68a856152c2565b5f52818c52858b5f200154161561324957612fc189846152c2565b5f528a52612fd0895f206147fa565b9088888c8451818601208d855183870120908183146130dc57612ff1614c90565b84815191012083146130dc57885f52600684525f20541591821561301d613016614c90565b878c6152f6565b90613030613029614cb1565b888d6152f6565b9061303e8c89610896614cda565b613046614c90565b80519089012086036130fe5750156130ea5750156130dc575b613067614cb1565b8481519101201492836130c2575b5050816130ba575b50806130a2575b61309857613091946153de565b0197612f46565b5050505050613091565b505050825f5260078b528888868c5f20541115613084565b90505f61307d565b909192506130ce614cfc565b805191012014905f8f613075565b505050505050505050613091565b905061305f57505050505050505050613091565b919290613109614cb1565b80519089012086036131345750905015908161312b575b506130dc575b61305f565b9050155f613120565b61313c614cda565b80519089012086036131b857156131845715918261317b575b508161316557506130dc5761305f565b905080613174575b155f613120565b508c61316d565b1591505f613155565b50901590816131a2575b501561312657505050505050505050613091565b9050806131b1575b155f61318e565b508c6131aa565b6131c0614cfc565b88815191012086146131d6575b5050505061305f565b156132355715918261321d575b5081613207575b506130dc575b6131fa868a615354565b6130dc575f8080806131cd565b905080613216575b155f6131ea565b508c61320f565b9091508061322e575b15905f6131e3565b508d613226565b50506131f057505050505050505050613091565b505050613091565b50505050613091565b5050613091565b905081600319360112610395576132766144db565b916024356001600160401b0381116103955736602382011215610395576132a690369060248186013591016145e9565b906001600160a01b037f00000000000000000000000000000000000000000000000000000000000000008116308114908115613430575b50613420576132f0815f54163314614ae1565b8416918151946352d1902d60e01b86526020868681875afa5f96816133ec575b5061332c57505051634c9c8ce360e01b81529182015260249150fd5b838593877f360894a13ba1a3210667c828492db98dca3e2076cc3735a920a3ca505d382bbc908181036133d65750833b156133bf5780546001600160a01b0319168317905551907fbc7cd75a20ee27fd9adebab32041f755214dbc6bffa90cc0225b39da2e5c2d3b5f80a28251156133a957506104c39250615b1a565b915050346133b357005b63b398979f60e01b8152fd5b8151634c9c8ce360e01b8152808701849052602490fd5b86602491845191632a87526960e21b8352820152fd5b9096506020813d602011613418575b8161340860209383614551565b810103126103955751955f613310565b3d91506133fb565b815163703e46dd60e11b81528490fd5b9050817f360894a13ba1a3210667c828492db98dca3e2076cc3735a920a3ca505d382bbc541614155f6132dd565b9050346103955761346e366148fa565b919061347c61041b33615167565b335f526001602052835f205491815f52600c602052845f20835f52602052845f2060ff81546134b260028383166120a381614942565b6134bb87614762565b60081c16916134c983614762565b8260ff8716101561350a57507fb36ec3c738ef8ecd9180addc815304762374b76e91c2a321831d9906ea119ade61210a85936104c3986120fd898896614f57565b608490602088519162461bcd60e51b8352820152602360248201527f43616e206f6e6c7920646f776e677261646520746f2061206c6f776572206c656044820152621d995b60ea1b6064820152fd5b82346103955780600319360112610395576135726144db565b916024359260018060a01b0361358c815f54163314614ae1565b81169261359a841515614dc2565b6135a5851515614e07565b835f5261360a602092600184526135bf835f205415614e4a565b6135fb83516135cd81614507565b8881526001868201818152895f52818852865f209251835551151591019060ff801983541691151516179055565b865f5260038452825f20614e96565b845f526002825260ff815f20541661362181614942565b61366f577f39d132591ee0696de49ab564e4a90e430c006561917db731a2a614dd2d24559192855f5260028352815f20600260ff198254161790556136668154614ee9565b905551428152a3005b7f1cc138f50384be7770a8e4a34eecaa0d0c718bfaa1641af49db32532e4a5b910925051428152a3005b823461039557602036600319011261039557602090611ac96128b26144db565b8234610395576020906136ce61216a3661474c565b5f526005825261062c815f209180516136e681614507565b60ff60016136f3866147fa565b958684520154161515948591015251928392836148da565b823461039557806003193601126103955761373261062c9261372b6144f1565b9035614d4a565b92909151928392836148da565b82346103955760203660031901126103955761062c91355f526007602052610619815f20614a42565b823461039557602090611ac961377d36614780565b91614d1e565b90503461039557602036600319011261039557355f526005602052805f2061062c60ff60016137b1846147fa565b930154169251928392836148da565b905034610395576137d03661474c565b600a54919290916001600160a01b031633036138975750815f52602090600d602052835f20935f5b85548110156104c3578061380e60019288614919565b90549060031b1c865f52600c8652835f20815f528652835f2090600285519261383684614507565b5460ff9081811661384681614942565b855260081c16928881019361385a81614762565b84525161386681614942565b61386f81614942565b036138905761388a91519061388382614762565b88876154ee565b016137f8565b505061388a565b606490602085519162461bcd60e51b835282015260156024820152744f6e6c79204865616c74685265636f7264436f726560581b6044820152fd5b823461039557602080600319360112610395578235916138f461041b33615167565b6138ff831515614b5e565b335f5260018252805f20549361391d613916614c90565b86866152f6565b15613a0e57835f52600683526001825f20541160078452825f205415158115613a06575b50156139ab5750907f68f37cc4a32f0b24153ce9237b344b20a9717039f90d7c24f35e5c217f03e1689161397585856152c2565b613987613980614c90565b8787615443565b5f52600582526001815f200160ff198154169055600b82525f8181205551428152a3005b82608492519162461bcd60e51b8352820152603160248201527f43616e6e6f74206c65617665206173206c617374206f776e65722077697468206044820152706e6f2061646d696e6973747261746f727360781b6064820152fd5b905086613941565b82608492519162461bcd60e51b8352820152602360248201527f596f7520617265206e6f7420616e206f776e6572206f662074686973207265636044820152621bdc9960ea1b6064820152fd5b82346103955760203660031901126103955761062c91355f526008602052610619815f20614a42565b90503461039557613a9436614780565b919290613aa361041b33615167565b613aae841515614b5e565b6001600160a01b0316613ac2811515614baa565b613ace610cf18461524a565b335f5260209360018552855f2054915f52855f205492613aef8415156149f6565b84518686012095613b0085846152c2565b805f5260058252613b1960ff60018b5f20015416614c38565b5f5260058152613b2a885f206147fa565b968751828901209080821461412457613b41614c90565b83815191012082146140af57845f5260068352895f205415918215613b6e613b67614c90565b89896152f6565b90613b81613b7a614cb1565b8a8a6152f6565b90613b94613b8d614cda565b8b8b6152f6565b8b8b14613b9f614c90565b8051908a01208703613d1c57505015613cbf575015613c7e575b613bc1614cb1565b848151910120149081613c67575b50613be2575b5050506104c395506153de565b613bed575b80613bd5565b825f52600781526001885f205411613be757875162461bcd60e51b815291820152603960248201527f43616e6e6f742064656d6f746520746865206c6173742061646d696e6973747260448201527f61746f72207768656e206e6f206f776e65722065786973747300000000000000606482015260849150fd5b9050613c71614cfc565b838151910120145f613bcf565b60648585808e519262461bcd60e51b845283015260248201527f4f6e6c79206f776e6572732063616e2070726f6d6f746520746f206f776e65726044820152fd5b9050613bb9578a5162461bcd60e51b8152808601859052602b60248201527f4f6e6c792061646d696e6973747261746f72732063616e2070726f6d6f74652060448201526a3334b939ba1037bbb732b960a91b6064820152608490fd5b9091613d26614cb1565b8051908a01208703613da6575050508115613d9e575b5015613d48575b613bb9565b8a5162461bcd60e51b8152808601859052603b60248201525f80516020615bcc83398151915260448201527f616e2070726f6d6f746520746f2061646d696e6973747261746f7200000000006064820152608490fd5b90505f613d3c565b613db293919293614cda565b8051908a01208703613ef15715613e75578315613e6d575b508215613e54575b5050613bb9578a5162461bcd60e51b8152808601859052605f60248201525f80516020615bcc83398151915260448201527f616e206368616e6765206f746865727320746f207368617265722e205368617260648201527f6572732063616e206f6e6c792064656d6f7465207468656d73656c7665732e00608482015260a490fd5b90915081613e65575b505f80613dd2565b90505f613e5d565b92505f613dca565b92508215613ed8575b5050613d43578a5162461bcd60e51b8152808601859052602860248201527f4f6e6c792061646d696e6973747261746f72732063616e206368616e67652074604482015267379039b430b932b960c11b6064820152608490fd5b90915081613ee9575b505f80613e7e565b90505f613ee1565b613ef9614cfc565b8981519101208714613f10575b5050505050613bb9565b1561405357831561403c575b508215614023575b505015613f9c575b613f368887615354565b613f44575f80808080613f06565b8a5162461bcd60e51b8152808601859052602c60248201527f43616e6e6f742064656d6f746520616e20616374697665207375626a6563742060448201526b3132b637bb9039b430b932b960a11b6064820152608490fd5b8a5162461bcd60e51b8152808601859052605560248201527f4f6e6c79206f776e6572732063616e2064656d6f7465206f74686572732e204160448201527f646d696e6973747261746f727320616e6420736861726572732063616e206f6e606482015274363c903232b6b7ba32903a3432b6b9b2b63b32b99760591b608482015260a490fd5b90915081614034575b505f80613f24565b90505f61402c565b9092508061404c575b915f613f1c565b5081614045565b92505050613f2c578a5162461bcd60e51b8152808601859052602860248201527f4f6e6c792061646d696e6973747261746f72732063616e2064656d6f7465207460448201526737903b34b2bbb2b960c11b6064820152608490fd5b895162461bcd60e51b8152808501849052604360248201527f4f776e6572732063616e6e6f742062652064656d6f7465642e204f776e65722060448201527f6d75737420766f6c756e746172696c792072656d6f7665207468656d73656c7660648201526232b99760e91b608482015260a490fd5b895162461bcd60e51b8152808501849052601c60248201527f54617267657420616c726561647920686173207468697320726f6c65000000006044820152606490fd5b823461039557602036600319011261039557602090611ac96141876144db565b6151f8565b8234610395576020366003190112610395576141a66144db565b5f546001600160a01b0391906141bf9083163314614ae1565b16805f5260016020526141d6825f20541515614b1a565b805f52600160205260ff6001835f200154161561420657600192505f52816020525f200160ff1981541690555f80f35b815162461bcd60e51b8152602081850152601760248201527f57616c6c657420616c726561647920696e6163746976650000000000000000006044820152606490fd5b8234610395576020906103ab3661474c565b8234610395578060031936011261039557611ac960209261427a6144f1565b9035614a90565b82346103955760203660031901126103955761062c91355f526009602052610619815f20614a42565b8234610395576142b93661464c565b92906142c761041b33615167565b6142d483518551146149b2565b335f52600193849360209060018252845f20549360018060a01b03165f52845f2054916143028315156149f6565b5f965b61430b57005b81518710156104c357878761432a614324839a88614f9d565b5161524a565b156143f65761433d8761072f8387614f9d565b156143f6576143508561072f8387614f9d565b6143f65761435e8187614f9d565b5183815191012061437c6143728387614f9d565b5189610896614c90565b6143936143898488614f9d565b518a610896614cb1565b9161439c614c90565b80519087012081036144035750906143b48387614f9d565b515f908152600686528a902054156143fb5750155b6143f6575b6143ef876143dc8387614f9d565b51876143e8858b614f9d565b51916156b8565b0196614305565b6143ef565b9050156143c9565b61440b614cb1565b8051908701208103614434575015908161442b575b506143f6575b6143ce565b9050158b614420565b61443c614cda565b805190870120036144635715908161445a575b50156143ce576143ef565b9050158b61444f565b61447a6144708488614f9d565b518a610896614cda565b9015918261449e575b5081614495575b5015614426576143ef565b9050158b61448a565b1591508c614483565b839034610395576020366003190112610395576020916001600160a01b036144cd6144db565b165f52600183525f20548152f35b600435906001600160a01b038216820361039557565b602435906001600160a01b038216820361039557565b604081019081106001600160401b0382111761452257604052565b634e487b7160e01b5f52604160045260245ffd5b602081019081106001600160401b0382111761452257604052565b90601f801991011681019081106001600160401b0382111761452257604052565b6001600160401b0381116145225760051b60200190565b9080601f830112156103955760209082356145a381614572565b936145b16040519586614551565b81855260208086019260051b82010192831161039557602001905b8282106145da575050505090565b813581529083019083016145cc565b9291926001600160401b0382116145225760405191614612601f8201601f191660200184614551565b829481845281830111610395578281602093845f960137010152565b9080601f8301121561039557816020614649933591016145e9565b90565b6060600319820112610395576001600160401b0391600435838111610395578261467891600401614589565b9260249283356001600160a01b038116810361039557936044359280841161039557826023850112156103955783600401356146b381614572565b946146c16040519687614551565b8186526020946024602088019360051b830101948186116103955760248301935b8685106146f457505050505050505090565b843586811161039557889161470e8585859489010161462e565b8152019401936146e2565b9081518082526020808093019301915f5b828110614738575050505090565b83518552938101939281019260010161472a565b6040906003190112610395576004359060243590565b6003111561476c57565b634e487b7160e01b5f52602160045260245ffd5b606060031982011261039557600435916024356001600160a01b03811681036103955791604435906001600160401b038211610395576146499160040161462e565b90600182811c921680156147f0575b60208310146147dc57565b634e487b7160e01b5f52602260045260245ffd5b91607f16916147d1565b9060405191825f825461480c816147c2565b908184526020946001916001811690815f1461487a575060011461483c575b50505061483a92500383614551565b565b5f90815285812095935091905b81831061486257505061483a93508201015f808061482b565b85548884018501529485019487945091830191614849565b9250505061483a94925060ff191682840152151560051b8201015f808061482b565b91908251928382525f5b8481106148c6575050825f602080949584010152601f8019910116010190565b6020818301810151848301820152016148a6565b906148f260209194939460408452604084019061489c565b931515910152565b6040906003190112610395576004359060243560038110156103955790565b805482101561492e575f5260205f2001905f90565b634e487b7160e01b5f52603260045260245ffd5b6005111561476c57565b604081019392916020919061496081614942565b815261496b83614762565b0152565b1561497657565b60405162461bcd60e51b81526020600482015260146024820152732737ba1030b71030b1ba34bb329036b2b6b132b960611b6044820152606490fd5b156149b957565b60405162461bcd60e51b8152602060048201526015602482015274082e4e4c2f240d8cadccee8d040dad2e6dac2e8c6d605b1b6044820152606490fd5b156149fd57565b60405162461bcd60e51b815260206004820152601c60248201527f5461726765742077616c6c6574206e6f742072656769737465726564000000006044820152606490fd5b90604051918281549182825260209260208301915f5260205f20935f905b828210614a765750505061483a92500383614551565b855484526001958601958895509381019390910190614a60565b6001600160a01b039091165f90815260016020526040902054908115614adb57614ac2614abb614c90565b83836152f6565b918215614ace57505090565b6146499250610896614cb1565b50505f90565b15614ae857565b60405162461bcd60e51b815260206004820152600a60248201526927b7363c9030b236b4b760b11b6044820152606490fd5b15614b2157565b60405162461bcd60e51b815260206004820152601560248201527415d85b1b195d081b9bdd081c9959da5cdd195c9959605a1b6044820152606490fd5b15614b6557565b60405162461bcd60e51b815260206004820152601e60248201527f5265636f726420494420686173682063616e6e6f7420626520656d70747900006044820152606490fd5b15614bb157565b60405162461bcd60e51b815260206004820152601d60248201527f57616c6c657420616464726573732063616e6e6f74206265207a65726f0000006044820152606490fd5b15614bfd57565b60405162461bcd60e51b8152602060048201526013602482015272496e76616c696420726f6c6520737472696e6760681b6044820152606490fd5b15614c3f57565b60405162461bcd60e51b815260206004820152602360248201527f54617267657420646f6573206e6f74206861766520616e2061637469766520726044820152626f6c6560e81b6064820152608490fd5b60405190614c9d82614507565b600582526437bbb732b960d91b6020830152565b60405190614cbe82614507565b600d82526c30b236b4b734b9ba3930ba37b960991b6020830152565b60405190614ce782614507565b600682526539b430b932b960d11b6020830152565b60405190614d0982614507565b60068252653b34b2bbb2b960d11b6020830152565b919060018060a01b03165f52600160205260405f20548015614d4357614649926152f6565b5050505f90565b6001600160a01b039091165f90815260016020526040902054908115614dac5760209291614d77916152c2565b5f526005825260405f20604051614d8d81614507565b60ff6001614d9a846147fa565b93848452015416151593849101529190565b5050604051614dba81614536565b5f8152905f90565b15614dc957565b60405162461bcd60e51b8152602060048201526016602482015275496e76616c69642077616c6c6574206164647265737360501b6044820152606490fd5b15614e0e57565b60405162461bcd60e51b8152602060048201526014602482015273092dcecc2d8d2c840eae6cae440928840d0c2e6d60631b6044820152606490fd5b15614e5157565b60405162461bcd60e51b815260206004820152601960248201527f57616c6c657420616c72656164792072656769737465726564000000000000006044820152606490fd5b8054600160401b81101561452257614eb391600182018155614919565b60018060a09493941b038084549260031b9316831b921b1916179055565b90614edb81614942565b60ff80198354169116179055565b5f198114614ef75760010190565b634e487b7160e01b5f52601160045260245ffd5b15614f1257565b60405162461bcd60e51b815260206004820152601e60248201527f4e6f2061637469766520747275737465652072656c6174696f6e7368697000006044820152606490fd5b90614f6181614762565b61ff0082549160081b169061ff001916179055565b60608101949392604092614f8981614762565b8252614f9481614762565b60208201520152565b805182101561492e5760209160051b010190565b15614fb857565b60405162461bcd60e51b815260206004820152600f60248201526e496e76616c6964206164647265737360881b6044820152606490fd5b6001600160a01b039091165f908152600160205260409020548015614adb57615017916152c2565b5f52600560205260ff600160405f2001541690565b8054905f81558161503b575050565b5f5260205f20908101905b818110615051575050565b5f8155600101615046565b805490600160401b821015614522578161507e91600161509494018155614919565b819391549060031b91821b915f19901b19161790565b9055565b1561509f57565b60405162461bcd60e51b815260206004820152600f60248201526e496e76616c6964207472757374656560881b6044820152606490fd5b156150dd57565b60405162461bcd60e51b815260206004820152601760248201527f43616e6e6f74206170706f696e7420796f757273656c660000000000000000006044820152606490fd5b1561512957565b60405162461bcd60e51b8152602060048201526016602482015275151c9d5cdd1959481b9bdd081c9959da5cdd195c995960521b6044820152606490fd5b6001600160a01b03165f90815260016020526040902080549081159081156151e8575b506151e3575f52600260205260ff60405f2054166151a781614942565b600281149081156151ce575b81156151bd575090565b600491506151ca81614942565b1490565b90506151d981614942565b60038114906151b3565b505f90565b60ff91506001015416155f61518a565b6001600160a01b03165f908152600160205260409020805490811590811561523a575b506151e3575f526002602052600460ff60405f2054166151ca81614942565b60ff91506001015416155f61521b565b60208151910120615259614c90565b6020815191012081149081156152a9575b8115615290575b811561527b575090565b9050615285614cfc565b602081519101201490565b905061529a614cda565b60208151910120811490615271565b90506152b3614cb1565b6020815191012081149061526a565b906040519060208201928352604082015260408152606081018181106001600160401b038211176145225760405251902090565b60209291615303916152c2565b5f526005825260405f2060405161531981614507565b60ff6001615326846147fa565b93848452015416151593849101528261533e57505090565b9091506020815191012090602081519101201490565b600a546001600160a01b0316918215614d43576044602092604051948593849263193d8e7560e21b8452600484015260248301525afa9081156153d3575f9161539b575090565b90506020813d6020116153cb575b816153b660209383614551565b81010312610395575180151581036103955790565b3d91506153a9565b6040513d5f823e3d90fd5b91927f3af67cf2057ba8ef414286fb626cd3efb02f74996e18efd455b39d8ec7ec460f919461543861542a92615416888289896156b8565b60405193849360608552606085019061489c565b90838203602085015261489c565b4260408301520390a4565b8251602080940120615453614c90565b8051908501208103615473575061483a926006915f525260405f2061589a565b61547b614cb1565b805190850120810361549b575061483a926007915f525260405f2061589a565b6154a3614cda565b80519085012081036154c3575061483a926008915f525260405f2061589a565b6154cb614cfc565b848151910120146154db57505050565b61483a926009915f525260405f2061589a565b91926154fb908284615983565b926155058461524a565b156155d35761551482846152c2565b5f526020916005835260409460ff6001875f20015416156155cb5761553983866152c2565b5f526005845260ff6001875f200154166155cb57816155599184876156b8565b805f52600f8352845f20825f528352845f20845f52835260ff855f20541615615584575b5050505050565b805f52600e8352845f20825f52835261559f84865f2061505c565b5f52600f8252835f20905f528152825f20915f52525f20600160ff198254161790555f8080808061557d565b505050505050565b50505050565b929190835f52602090600e825260409060405f20815f52835260405f20955f5b87548110156156a4578061560f6001928a614919565b90549060031b1c61562085826152c2565b5f52600580885260ff84885f200154161561569d57615640898684615983565b9061564a8261524a565b156156955761565987846152c2565b5f528852615668875f206147fa565b90868683518b85012083518c8501201461568b57615685946153de565b016155f9565b5050505050615685565b505050615685565b5050615685565b5050505050509050565b90615017916152c2565b9291926156c582826152c2565b93845f52602060058152604090815f20966156df886147fa565b9760ff60018092015416908451906156f682614507565b868252848201818152845f5260058652865f2092518051906001600160401b0382116145225761572685546147c2565b601f8111615854575b508790601f83116001146158065761577495949392915f9183612a095750505f19600383901b1c191690831b17835551151591019060ff801983541691151516179055565b6157d2577ff9d17eb1340ab78960b594ff8bed1349985b800ee21199c6d5ea4a67454593ad94959697505f52600b815286825f20556157b4838787615a6f565b6157c7825193838594855284019061489c565b9042908301520390a4565b509194505084518186012090845190850120036157ef5750505050565b612a046157fd948383615443565b5f8080806155d3565b90601f19831691865f52895f20925f5b8b828210615840575050918695949291836157749998959310612a4f57505050811b018355612972565b838501518655948801949384019301615816565b855f52885f20601f840160051c8101918a8510615890575b601f0160051c019085905b82811061588557505061572f565b5f8155018590615877565b909150819061586c565b5f5b815490818110156155d35783916158b38285614919565b959054600396871b1c146158cd575090925060010161589c565b5f199250828101908111614ef75761507e6158eb6158f89286614919565b905490871b1c9285614919565b90558154801561591d5781019261590f8484614919565b81939154921b1b1916905555565b634e487b7160e01b5f52603160045260245ffd5b6001600160a01b03165f9081526001602052604090208054908115908115615973575b506151e3575f526002602052600360ff60405f2054166151ca81614942565b60ff91506001015416155f615954565b9061598d83614762565b8215615a645761599c916152c2565b5f526020906005825260405f2060ff6001604051926159ba84614507565b6159c3816147fa565b845201541615801584830152615a4e5751915b825181840120916159e5614cda565b82815191012083148015615a38575b615a2c5780615a04600192614762565b14615a0e57505090565b615a16614c90565b805191012014615a235790565b50614649614cb1565b50505050614649614cfc565b50615a41614cfc565b82815191012083146159f4565b50604051615a5b81614536565b5f8152916159d6565b505050614649614cfc565b8251602080940120615a7f614c90565b8051908501208103615a9f575061483a926006915f525260405f2061505c565b615aa7614cb1565b8051908501208103615ac7575061483a926007915f525260405f2061505c565b615acf614cda565b8051908501208103615aef575061483a926008915f525260405f2061505c565b615af7614cfc565b84815191012014615b0757505050565b61483a926009915f525260405f2061505c565b905f8091602081519101845af48080615b98575b15615b4e5750506040513d81523d5f602083013e60203d82010160405290565b15615b7557604051639996b31560e01b81526001600160a01b039091166004820152602490fd5b3d15615b86576040513d5f823e3d90fd5b60405163d6bda27560e01b8152600490fd5b503d151580615b2e5750813b1515615b2e56fed05ed2d3feff840c2ececa71791388fd3d19dbbbbcfa97031f534a7dc09fbf1f4f6e6c79206f776e65727320616e642061646d696e6973747261746f72732063a2646970667358221220fd5289ebd984327fc58d9f5f7555a009e3771cd17307b9fb4788babd6757e5b264736f6c63430008180033",
  "linkReferences": {},
  "deployedLinkReferences": {}
}