{
  "_format": "hh-sol-artifact-1",
  "contractName": "MemberRoleManager",
  "sourceName": "smartContracts/MemberRoleManager.sol",
  "abi": [
    {
      "inputs": [],
      "stateMutability": "nonpayable",
      "type": "constructor"
    },
    {
      "inputs": [
        {
          "internalType": "address",
          "name": "target",
          "type": "address"
        }
      ],
      "name": "AddressEmptyCode",
      "type": "error"
    },
    {
      "inputs": [
        {
          "internalType": "address",
          "name": "implementation",
          "type": "address"
        }
      ],
      "name": "ERC1967InvalidImplementation",
      "type": "error"
    },
    {
      "inputs": [],
      "name": "ERC1967NonPayable",
      "type": "error"
    },
    {
      "inputs": [],
      "name": "FailedCall",
      "type": "error"
    },
    {
      "inputs": [],
      "name": "InvalidInitialization",
      "type": "error"
    },
    {
      "inputs": [],
      "name": "NotInitializing",
      "type": "error"
    },
    {
      "inputs": [],
      "name": "UUPSUnauthorizedCallContext",
      "type": "error"
    },
    {
      "inputs": [
        {
          "internalType": "bytes32",
          "name": "slot",
          "type": "bytes32"
        }
      ],
      "name": "UUPSUnsupportedProxiableUUID",
      "type": "error"
    },
    {
      "anonymous": false,
      "inputs": [
        {
          "indexed": true,
          "internalType": "address",
          "name": "oldAdmin",
          "type": "address"
        },
        {
          "indexed": true,
          "internalType": "address",
          "name": "newAdmin",
          "type": "address"
        },
        {
          "indexed": false,
          "internalType": "uint256",
          "name": "timestamp",
          "type": "uint256"
        }
      ],
      "name": "AdminTransferred",
      "type": "event"
    },
    {
      "anonymous": false,
      "inputs": [
        {
          "indexed": true,
          "internalType": "bytes32",
          "name": "recordIdHash",
          "type": "bytes32"
        },
        {
          "indexed": true,
          "internalType": "bytes32",
          "name": "grantedByIdHash",
          "type": "bytes32"
        },
        {
          "indexed": true,
          "internalType": "bytes32",
          "name": "guestIdHash",
          "type": "bytes32"
        },
        {
          "indexed": false,
          "internalType": "bytes32",
          "name": "guestEmailHash",
          "type": "bytes32"
        },
        {
          "indexed": false,
          "internalType": "uint256",
          "name": "expiresAt",
          "type": "uint256"
        },
        {
          "indexed": false,
          "internalType": "uint256",
          "name": "timestamp",
          "type": "uint256"
        }
      ],
      "name": "GuestAccessGranted",
      "type": "event"
    },
    {
      "anonymous": false,
      "inputs": [
        {
          "indexed": true,
          "internalType": "bytes32",
          "name": "recordIdHash",
          "type": "bytes32"
        },
        {
          "indexed": true,
          "internalType": "bytes32",
          "name": "revokedByIdHash",
          "type": "bytes32"
        },
        {
          "indexed": true,
          "internalType": "bytes32",
          "name": "guestIdHash",
          "type": "bytes32"
        },
        {
          "indexed": false,
          "internalType": "uint256",
          "name": "timestamp",
          "type": "uint256"
        }
      ],
      "name": "GuestAccessRevoked",
      "type": "event"
    },
    {
      "anonymous": false,
      "inputs": [
        {
          "indexed": true,
          "internalType": "address",
          "name": "newAddress",
          "type": "address"
        },
        {
          "indexed": false,
          "internalType": "uint256",
          "name": "timestamp",
          "type": "uint256"
        }
      ],
      "name": "HealthRecordCoreUpdated",
      "type": "event"
    },
    {
      "anonymous": false,
      "inputs": [
        {
          "indexed": false,
          "internalType": "uint64",
          "name": "version",
          "type": "uint64"
        }
      ],
      "name": "Initialized",
      "type": "event"
    },
    {
      "anonymous": false,
      "inputs": [
        {
          "indexed": true,
          "internalType": "address",
          "name": "wallet",
          "type": "address"
        },
        {
          "indexed": true,
          "internalType": "bytes32",
          "name": "userIdHash",
          "type": "bytes32"
        },
        {
          "indexed": false,
          "internalType": "uint256",
          "name": "timestamp",
          "type": "uint256"
        }
      ],
      "name": "MemberRegistered",
      "type": "event"
    },
    {
      "anonymous": false,
      "inputs": [
        {
          "indexed": true,
          "internalType": "bytes32",
          "name": "userIdHash",
          "type": "bytes32"
        },
        {
          "indexed": false,
          "internalType": "enum MemberRoleManager.MemberStatus",
          "name": "oldStatus",
          "type": "uint8"
        },
        {
          "indexed": false,
          "internalType": "enum MemberRoleManager.MemberStatus",
          "name": "newStatus",
          "type": "uint8"
        },
        {
          "indexed": true,
          "internalType": "address",
          "name": "changedBy",
          "type": "address"
        },
        {
          "indexed": false,
          "internalType": "uint256",
          "name": "timestamp",
          "type": "uint256"
        }
      ],
      "name": "MemberStatusChanged",
      "type": "event"
    },
    {
      "anonymous": false,
      "inputs": [
        {
          "indexed": true,
          "internalType": "bytes32",
          "name": "recordIdHash",
          "type": "bytes32"
        },
        {
          "indexed": true,
          "internalType": "bytes32",
          "name": "userIdHash",
          "type": "bytes32"
        },
        {
          "indexed": false,
          "internalType": "uint256",
          "name": "timestamp",
          "type": "uint256"
        }
      ],
      "name": "OwnershipVoluntarilyLeft",
      "type": "event"
    },
    {
      "anonymous": false,
      "inputs": [
        {
          "indexed": true,
          "internalType": "bytes32",
          "name": "recordIdHash",
          "type": "bytes32"
        },
        {
          "indexed": true,
          "internalType": "bytes32",
          "name": "targetIdHash",
          "type": "bytes32"
        },
        {
          "indexed": false,
          "internalType": "string",
          "name": "oldRole",
          "type": "string"
        },
        {
          "indexed": false,
          "internalType": "string",
          "name": "newRole",
          "type": "string"
        },
        {
          "indexed": true,
          "internalType": "bytes32",
          "name": "userIdHash",
          "type": "bytes32"
        },
        {
          "indexed": false,
          "internalType": "uint256",
          "name": "timestamp",
          "type": "uint256"
        }
      ],
      "name": "RoleChanged",
      "type": "event"
    },
    {
      "anonymous": false,
      "inputs": [
        {
          "indexed": true,
          "internalType": "bytes32",
          "name": "recordIdHash",
          "type": "bytes32"
        },
        {
          "indexed": true,
          "internalType": "bytes32",
          "name": "targetIdHash",
          "type": "bytes32"
        },
        {
          "indexed": false,
          "internalType": "string",
          "name": "role",
          "type": "string"
        },
        {
          "indexed": true,
          "internalType": "bytes32",
          "name": "userIdHash",
          "type": "bytes32"
        },
        {
          "indexed": false,
          "internalType": "uint256",
          "name": "timestamp",
          "type": "uint256"
        }
      ],
      "name": "RoleGranted",
      "type": "event"
    },
    {
      "anonymous": false,
      "inputs": [
        {
          "indexed": true,
          "internalType": "bytes32",
          "name": "recordIdHash",
          "type": "bytes32"
        },
        {
          "indexed": true,
          "internalType": "bytes32",
          "name": "targetIdHash",
          "type": "bytes32"
        },
        {
          "indexed": false,
          "internalType": "string",
          "name": "role",
          "type": "string"
        },
        {
          "indexed": true,
          "internalType": "bytes32",
          "name": "userIdHash",
          "type": "bytes32"
        },
        {
          "indexed": false,
          "internalType": "uint256",
          "name": "timestamp",
          "type": "uint256"
        }
      ],
      "name": "RoleRevoked",
      "type": "event"
    },
    {
      "anonymous": false,
      "inputs": [
        {
          "indexed": true,
          "internalType": "bytes32",
          "name": "trustorIdHash",
          "type": "bytes32"
        },
        {
          "indexed": true,
          "internalType": "bytes32",
          "name": "trusteeIdHash",
          "type": "bytes32"
        },
        {
          "indexed": false,
          "internalType": "enum MemberRoleManager.TrusteeLevel",
          "name": "level",
          "type": "uint8"
        },
        {
          "indexed": false,
          "internalType": "uint256",
          "name": "timestamp",
          "type": "uint256"
        }
      ],
      "name": "TrusteeAccepted",
      "type": "event"
    },
    {
      "anonymous": false,
      "inputs": [
        {
          "indexed": true,
          "internalType": "bytes32",
          "name": "trustorIdHash",
          "type": "bytes32"
        },
        {
          "indexed": true,
          "internalType": "bytes32",
          "name": "trusteeIdHash",
          "type": "bytes32"
        },
        {
          "indexed": false,
          "internalType": "enum MemberRoleManager.TrusteeLevel",
          "name": "oldLevel",
          "type": "uint8"
        },
        {
          "indexed": false,
          "internalType": "enum MemberRoleManager.TrusteeLevel",
          "name": "newLevel",
          "type": "uint8"
        },
        {
          "indexed": false,
          "internalType": "uint256",
          "name": "timestamp",
          "type": "uint256"
        }
      ],
      "name": "TrusteeLevelUpdated",
      "type": "event"
    },
    {
      "anonymous": false,
      "inputs": [
        {
          "indexed": true,
          "internalType": "bytes32",
          "name": "trustorIdHash",
          "type": "bytes32"
        },
        {
          "indexed": true,
          "internalType": "bytes32",
          "name": "trusteeIdHash",
          "type": "bytes32"
        },
        {
          "indexed": false,
          "internalType": "enum MemberRoleManager.TrusteeLevel",
          "name": "level",
          "type": "uint8"
        },
        {
          "indexed": false,
          "internalType": "uint256",
          "name": "timestamp",
          "type": "uint256"
        }
      ],
      "name": "TrusteeProposed",
      "type": "event"
    },
    {
      "anonymous": false,
      "inputs": [
        {
          "indexed": true,
          "internalType": "bytes32",
          "name": "trustorIdHash",
          "type": "bytes32"
        },
        {
          "indexed": true,
          "internalType": "bytes32",
          "name": "trusteeIdHash",
          "type": "bytes32"
        },
        {
          "indexed": true,
          "internalType": "bytes32",
          "name": "revokedBy",
          "type": "bytes32"
        },
        {
          "indexed": false,
          "internalType": "uint256",
          "name": "timestamp",
          "type": "uint256"
        }
      ],
      "name": "TrusteeRevoked",
      "type": "event"
    },
    {
      "anonymous": false,
      "inputs": [
        {
          "indexed": true,
          "internalType": "address",
          "name": "implementation",
          "type": "address"
        }
      ],
      "name": "Upgraded",
      "type": "event"
    },
    {
      "anonymous": false,
      "inputs": [
        {
          "indexed": true,
          "internalType": "address",
          "name": "wallet",
          "type": "address"
        },
        {
          "indexed": true,
          "internalType": "bytes32",
          "name": "userIdHash",
          "type": "bytes32"
        },
        {
          "indexed": false,
          "internalType": "uint256",
          "name": "timestamp",
          "type": "uint256"
        }
      ],
      "name": "WalletLinked",
      "type": "event"
    },
    {
      "inputs": [],
      "name": "UPGRADE_INTERFACE_VERSION",
      "outputs": [
        {
          "internalType": "string",
          "name": "",
          "type": "string"
        }
      ],
      "stateMutability": "view",
      "type": "function"
    },
    {
      "inputs": [
        {
          "internalType": "bytes32",
          "name": "trustorIdHash",
          "type": "bytes32"
        }
      ],
      "name": "acceptTrustee",
      "outputs": [],
      "stateMutability": "nonpayable",
      "type": "function"
    },
    {
      "inputs": [
        {
          "internalType": "address",
          "name": "wallet",
          "type": "address"
        },
        {
          "internalType": "bytes32",
          "name": "userIdHash",
          "type": "bytes32"
        }
      ],
      "name": "addMember",
      "outputs": [],
      "stateMutability": "nonpayable",
      "type": "function"
    },
    {
      "inputs": [
        {
          "internalType": "address[]",
          "name": "walletAddresses",
          "type": "address[]"
        },
        {
          "internalType": "bytes32",
          "name": "userIdHash",
          "type": "bytes32"
        }
      ],
      "name": "addMemberBatch",
      "outputs": [],
      "stateMutability": "nonpayable",
      "type": "function"
    },
    {
      "inputs": [],
      "name": "admin",
      "outputs": [
        {
          "internalType": "address",
          "name": "",
          "type": "address"
        }
      ],
      "stateMutability": "view",
      "type": "function"
    },
    {
      "inputs": [
        {
          "internalType": "bytes32",
          "name": "",
          "type": "bytes32"
        },
        {
          "internalType": "uint256",
          "name": "",
          "type": "uint256"
        }
      ],
      "name": "adminsByRecord",
      "outputs": [
        {
          "internalType": "bytes32",
          "name": "",
          "type": "bytes32"
        }
      ],
      "stateMutability": "view",
      "type": "function"
    },
    {
      "inputs": [
        {
          "internalType": "bytes32",
          "name": "recordIdHash",
          "type": "bytes32"
        },
        {
          "internalType": "address",
          "name": "targetWallet",
          "type": "address"
        },
        {
          "internalType": "string",
          "name": "newRole",
          "type": "string"
        }
      ],
      "name": "changeRole",
      "outputs": [],
      "stateMutability": "nonpayable",
      "type": "function"
    },
    {
      "inputs": [
        {
          "internalType": "bytes32[]",
          "name": "recordIdHashes",
          "type": "bytes32[]"
        },
        {
          "internalType": "address",
          "name": "targetWallet",
          "type": "address"
        },
        {
          "internalType": "string[]",
          "name": "newRoles",
          "type": "string[]"
        }
      ],
      "name": "changeRoleBatch",
      "outputs": [],
      "stateMutability": "nonpayable",
      "type": "function"
    },
    {
      "inputs": [
        {
          "internalType": "address",
          "name": "wallet",
          "type": "address"
        }
      ],
      "name": "deactivateWallet",
      "outputs": [],
      "stateMutability": "nonpayable",
      "type": "function"
    },
    {
      "inputs": [],
      "name": "getAllUsers",
      "outputs": [
        {
          "internalType": "bytes32[]",
          "name": "",
          "type": "bytes32[]"
        }
      ],
      "stateMutability": "view",
      "type": "function"
    },
    {
      "inputs": [
        {
          "internalType": "bytes32",
          "name": "recordIdHash",
          "type": "bytes32"
        },
        {
          "internalType": "bytes32",
          "name": "guestIdHash",
          "type": "bytes32"
        }
      ],
      "name": "getGuestAccess",
      "outputs": [
        {
          "internalType": "uint256",
          "name": "grantedAt",
          "type": "uint256"
        },
        {
          "internalType": "uint256",
          "name": "expiresAt",
          "type": "uint256"
        },
        {
          "internalType": "bytes32",
          "name": "grantedByIdHash",
          "type": "bytes32"
        },
        {
          "internalType": "bytes32",
          "name": "guestEmailHash",
          "type": "bytes32"
        }
      ],
      "stateMutability": "view",
      "type": "function"
    },
    {
      "inputs": [],
      "name": "getHealthRecordCore",
      "outputs": [
        {
          "internalType": "address",
          "name": "",
          "type": "address"
        }
      ],
      "stateMutability": "view",
      "type": "function"
    },
    {
      "inputs": [
        {
          "internalType": "bytes32",
          "name": "recordIdHash",
          "type": "bytes32"
        }
      ],
      "name": "getRecordAdmins",
      "outputs": [
        {
          "internalType": "bytes32[]",
          "name": "",
          "type": "bytes32[]"
        }
      ],
      "stateMutability": "view",
      "type": "function"
    },
    {
      "inputs": [
        {
          "internalType": "bytes32",
          "name": "recordIdHash",
          "type": "bytes32"
        }
      ],
      "name": "getRecordOwners",
      "outputs": [
        {
          "internalType": "bytes32[]",
          "name": "",
          "type": "bytes32[]"
        }
      ],
      "stateMutability": "view",
      "type": "function"
    },
    {
      "inputs": [
        {
          "internalType": "bytes32",
          "name": "recordIdHash",
          "type": "bytes32"
        }
      ],
      "name": "getRecordRoleStats",
      "outputs": [
        {
          "internalType": "uint256",
          "name": "ownerCount",
          "type": "uint256"
        },
        {
          "internalType": "uint256",
          "name": "adminCount",
          "type": "uint256"
        },
        {
          "internalType": "uint256",
          "name": "viewerCount",
          "type": "uint256"
        }
      ],
      "stateMutability": "view",
      "type": "function"
    },
    {
      "inputs": [
        {
          "internalType": "bytes32",
          "name": "recordIdHash",
          "type": "bytes32"
        }
      ],
      "name": "getRecordViewers",
      "outputs": [
        {
          "internalType": "bytes32[]",
          "name": "",
          "type": "bytes32[]"
        }
      ],
      "stateMutability": "view",
      "type": "function"
    },
    {
      "inputs": [
        {
          "internalType": "bytes32",
          "name": "userIdHash",
          "type": "bytes32"
        }
      ],
      "name": "getRecordsByUser",
      "outputs": [
        {
          "internalType": "bytes32[]",
          "name": "",
          "type": "bytes32[]"
        }
      ],
      "stateMutability": "view",
      "type": "function"
    },
    {
      "inputs": [
        {
          "internalType": "bytes32",
          "name": "recordIdHash",
          "type": "bytes32"
        },
        {
          "internalType": "address",
          "name": "wallet",
          "type": "address"
        }
      ],
      "name": "getRoleDetails",
      "outputs": [
        {
          "internalType": "string",
          "name": "role",
          "type": "string"
        },
        {
          "internalType": "bool",
          "name": "isActive",
          "type": "bool"
        }
      ],
      "stateMutability": "view",
      "type": "function"
    },
    {
      "inputs": [
        {
          "internalType": "bytes32",
          "name": "recordIdHash",
          "type": "bytes32"
        },
        {
          "internalType": "bytes32",
          "name": "userIdHash",
          "type": "bytes32"
        }
      ],
      "name": "getRoleDetailsByUser",
      "outputs": [
        {
          "internalType": "string",
          "name": "role",
          "type": "string"
        },
        {
          "internalType": "bool",
          "name": "isActive",
          "type": "bool"
        }
      ],
      "stateMutability": "view",
      "type": "function"
    },
    {
      "inputs": [
        {
          "internalType": "bytes32",
          "name": "recordIdHash",
          "type": "bytes32"
        },
        {
          "internalType": "bytes32",
          "name": "userIdHash",
          "type": "bytes32"
        }
      ],
      "name": "getRoleGranter",
      "outputs": [
        {
          "internalType": "bytes32",
          "name": "",
          "type": "bytes32"
        }
      ],
      "stateMutability": "view",
      "type": "function"
    },
    {
      "inputs": [],
      "name": "getTotalRoles",
      "outputs": [
        {
          "internalType": "uint256",
          "name": "",
          "type": "uint256"
        }
      ],
      "stateMutability": "view",
      "type": "function"
    },
    {
      "inputs": [],
      "name": "getTotalUsers",
      "outputs": [
        {
          "internalType": "uint256",
          "name": "",
          "type": "uint256"
        }
      ],
      "stateMutability": "view",
      "type": "function"
    },
    {
      "inputs": [
        {
          "internalType": "bytes32",
          "name": "trustorIdHash",
          "type": "bytes32"
        },
        {
          "internalType": "bytes32",
          "name": "trusteeIdHash",
          "type": "bytes32"
        }
      ],
      "name": "getTrusteeRelationship",
      "outputs": [
        {
          "internalType": "enum MemberRoleManager.TrusteeStatus",
          "name": "status",
          "type": "uint8"
        },
        {
          "internalType": "enum MemberRoleManager.TrusteeLevel",
          "name": "level",
          "type": "uint8"
        }
      ],
      "stateMutability": "view",
      "type": "function"
    },
    {
      "inputs": [
        {
          "internalType": "address",
          "name": "wallet",
          "type": "address"
        }
      ],
      "name": "getUserForWallet",
      "outputs": [
        {
          "internalType": "bytes32",
          "name": "",
          "type": "bytes32"
        }
      ],
      "stateMutability": "view",
      "type": "function"
    },
    {
      "inputs": [
        {
          "internalType": "bytes32",
          "name": "userIdHash",
          "type": "bytes32"
        }
      ],
      "name": "getUserStatus",
      "outputs": [
        {
          "internalType": "enum MemberRoleManager.MemberStatus",
          "name": "status",
          "type": "uint8"
        }
      ],
      "stateMutability": "view",
      "type": "function"
    },
    {
      "inputs": [
        {
          "internalType": "bytes32",
          "name": "userIdHash",
          "type": "bytes32"
        }
      ],
      "name": "getWalletsForUser",
      "outputs": [
        {
          "internalType": "address[]",
          "name": "",
          "type": "address[]"
        }
      ],
      "stateMutability": "view",
      "type": "function"
    },
    {
      "inputs": [
        {
          "internalType": "bytes32[]",
          "name": "recordIdHashes",
          "type": "bytes32[]"
        },
        {
          "internalType": "address",
          "name": "guestWallet",
          "type": "address"
        },
        {
          "internalType": "bytes32",
          "name": "guestIdHash",
          "type": "bytes32"
        },
        {
          "internalType": "bytes32",
          "name": "guestEmailHash",
          "type": "bytes32"
        },
        {
          "internalType": "uint256",
          "name": "durationSeconds",
          "type": "uint256"
        }
      ],
      "name": "grantGuestAccess",
      "outputs": [],
      "stateMutability": "nonpayable",
      "type": "function"
    },
    {
      "inputs": [
        {
          "internalType": "bytes32",
          "name": "recordIdHash",
          "type": "bytes32"
        },
        {
          "internalType": "address",
          "name": "targetWallet",
          "type": "address"
        },
        {
          "internalType": "string",
          "name": "role",
          "type": "string"
        }
      ],
      "name": "grantRole",
      "outputs": [],
      "stateMutability": "nonpayable",
      "type": "function"
    },
    {
      "inputs": [
        {
          "internalType": "bytes32[]",
          "name": "recordIdHashes",
          "type": "bytes32[]"
        },
        {
          "internalType": "bytes32",
          "name": "trustorIdHash",
          "type": "bytes32"
        }
      ],
      "name": "grantRoleAsTrusteeBatch",
      "outputs": [],
      "stateMutability": "nonpayable",
      "type": "function"
    },
    {
      "inputs": [
        {
          "internalType": "bytes32[]",
          "name": "recordIdHashes",
          "type": "bytes32[]"
        },
        {
          "internalType": "address",
          "name": "targetWallet",
          "type": "address"
        },
        {
          "internalType": "string[]",
          "name": "roles",
          "type": "string[]"
        }
      ],
      "name": "grantRoleBatch",
      "outputs": [],
      "stateMutability": "nonpayable",
      "type": "function"
    },
    {
      "inputs": [
        {
          "internalType": "bytes32",
          "name": "",
          "type": "bytes32"
        },
        {
          "internalType": "bytes32",
          "name": "",
          "type": "bytes32"
        }
      ],
      "name": "guestAccessByRecord",
      "outputs": [
        {
          "internalType": "uint256",
          "name": "grantedAt",
          "type": "uint256"
        },
        {
          "internalType": "uint256",
          "name": "expiresAt",
          "type": "uint256"
        },
        {
          "internalType": "bytes32",
          "name": "grantedByIdHash",
          "type": "bytes32"
        },
        {
          "internalType": "bytes32",
          "name": "guestEmailHash",
          "type": "bytes32"
        }
      ],
      "stateMutability": "view",
      "type": "function"
    },
    {
      "inputs": [
        {
          "internalType": "bytes32",
          "name": "recordIdHash",
          "type": "bytes32"
        },
        {
          "internalType": "bytes32",
          "name": "guestIdHash",
          "type": "bytes32"
        }
      ],
      "name": "hasActiveGuestAccess",
      "outputs": [
        {
          "internalType": "bool",
          "name": "",
          "type": "bool"
        }
      ],
      "stateMutability": "view",
      "type": "function"
    },
    {
      "inputs": [
        {
          "internalType": "bytes32",
          "name": "recordIdHash",
          "type": "bytes32"
        },
        {
          "internalType": "address",
          "name": "wallet",
          "type": "address"
        }
      ],
      "name": "hasActiveRole",
      "outputs": [
        {
          "internalType": "bool",
          "name": "",
          "type": "bool"
        }
      ],
      "stateMutability": "view",
      "type": "function"
    },
    {
      "inputs": [
        {
          "internalType": "bytes32",
          "name": "recordIdHash",
          "type": "bytes32"
        },
        {
          "internalType": "address",
          "name": "wallet",
          "type": "address"
        },
        {
          "internalType": "string",
          "name": "role",
          "type": "string"
        }
      ],
      "name": "hasRole",
      "outputs": [
        {
          "internalType": "bool",
          "name": "",
          "type": "bool"
        }
      ],
      "stateMutability": "view",
      "type": "function"
    },
    {
      "inputs": [],
      "name": "healthRecordCore",
      "outputs": [
        {
          "internalType": "contract HealthRecordCoreInterface",
          "name": "",
          "type": "address"
        }
      ],
      "stateMutability": "view",
      "type": "function"
    },
    {
      "inputs": [],
      "name": "initialize",
      "outputs": [],
      "stateMutability": "nonpayable",
      "type": "function"
    },
    {
      "inputs": [
        {
          "internalType": "bytes32",
          "name": "recordIdHash",
          "type": "bytes32"
        },
        {
          "internalType": "address",
          "name": "targetWallet",
          "type": "address"
        },
        {
          "internalType": "string",
          "name": "role",
          "type": "string"
        }
      ],
      "name": "initializeRecordRole",
      "outputs": [],
      "stateMutability": "nonpayable",
      "type": "function"
    },
    {
      "inputs": [
        {
          "internalType": "address",
          "name": "wallet",
          "type": "address"
        }
      ],
      "name": "isActiveMember",
      "outputs": [
        {
          "internalType": "bool",
          "name": "",
          "type": "bool"
        }
      ],
      "stateMutability": "view",
      "type": "function"
    },
    {
      "inputs": [
        {
          "internalType": "bytes32",
          "name": "recordIdHash",
          "type": "bytes32"
        },
        {
          "internalType": "bytes32",
          "name": "userIdHash",
          "type": "bytes32"
        }
      ],
      "name": "isActiveSubject",
      "outputs": [
        {
          "internalType": "bool",
          "name": "",
          "type": "bool"
        }
      ],
      "stateMutability": "view",
      "type": "function"
    },
    {
      "inputs": [
        {
          "internalType": "bytes32",
          "name": "trustorIdHash",
          "type": "bytes32"
        },
        {
          "internalType": "bytes32",
          "name": "trusteeIdHash",
          "type": "bytes32"
        }
      ],
      "name": "isControllerOf",
      "outputs": [
        {
          "internalType": "bool",
          "name": "",
          "type": "bool"
        }
      ],
      "stateMutability": "view",
      "type": "function"
    },
    {
      "inputs": [
        {
          "internalType": "bytes32",
          "name": "recordIdHash",
          "type": "bytes32"
        },
        {
          "internalType": "address",
          "name": "wallet",
          "type": "address"
        }
      ],
      "name": "isOwnerOrAdmin",
      "outputs": [
        {
          "internalType": "bool",
          "name": "",
          "type": "bool"
        }
      ],
      "stateMutability": "view",
      "type": "function"
    },
    {
      "inputs": [
        {
          "internalType": "address",
          "name": "wallet",
          "type": "address"
        }
      ],
      "name": "isVerifiedMember",
      "outputs": [
        {
          "internalType": "bool",
          "name": "",
          "type": "bool"
        }
      ],
      "stateMutability": "view",
      "type": "function"
    },
    {
      "inputs": [
        {
          "internalType": "address",
          "name": "wallet",
          "type": "address"
        }
      ],
      "name": "isVerifiedProvider",
      "outputs": [
        {
          "internalType": "bool",
          "name": "",
          "type": "bool"
        }
      ],
      "stateMutability": "view",
      "type": "function"
    },
    {
      "inputs": [
        {
          "internalType": "bytes32",
          "name": "",
          "type": "bytes32"
        },
        {
          "internalType": "uint256",
          "name": "",
          "type": "uint256"
        }
      ],
      "name": "ownersByRecord",
      "outputs": [
        {
          "internalType": "bytes32",
          "name": "",
          "type": "bytes32"
        }
      ],
      "stateMutability": "view",
      "type": "function"
    },
    {
      "inputs": [
        {
          "internalType": "bytes32",
          "name": "trusteeIdHash",
          "type": "bytes32"
        },
        {
          "internalType": "enum MemberRoleManager.TrusteeLevel",
          "name": "level",
          "type": "uint8"
        }
      ],
      "name": "proposeTrustee",
      "outputs": [],
      "stateMutability": "nonpayable",
      "type": "function"
    },
    {
      "inputs": [],
      "name": "proxiableUUID",
      "outputs": [
        {
          "internalType": "bytes32",
          "name": "",
          "type": "bytes32"
        }
      ],
      "stateMutability": "view",
      "type": "function"
    },
    {
      "inputs": [
        {
          "internalType": "address",
          "name": "wallet",
          "type": "address"
        }
      ],
      "name": "reactivateWallet",
      "outputs": [],
      "stateMutability": "nonpayable",
      "type": "function"
    },
    {
      "inputs": [
        {
          "internalType": "bytes32",
          "name": "",
          "type": "bytes32"
        }
      ],
      "name": "recordRoles",
      "outputs": [
        {
          "internalType": "string",
          "name": "role",
          "type": "string"
        },
        {
          "internalType": "bool",
          "name": "isActive",
          "type": "bool"
        }
      ],
      "stateMutability": "view",
      "type": "function"
    },
    {
      "inputs": [
        {
          "internalType": "bytes32",
          "name": "",
          "type": "bytes32"
        },
        {
          "internalType": "uint256",
          "name": "",
          "type": "uint256"
        }
      ],
      "name": "recordsByUser",
      "outputs": [
        {
          "internalType": "bytes32",
          "name": "",
          "type": "bytes32"
        }
      ],
      "stateMutability": "view",
      "type": "function"
    },
    {
      "inputs": [
        {
          "internalType": "bytes32[]",
          "name": "recordIdHashes",
          "type": "bytes32[]"
        },
        {
          "internalType": "bytes32",
          "name": "guestIdHash",
          "type": "bytes32"
        }
      ],
      "name": "revokeGuestAccess",
      "outputs": [],
      "stateMutability": "nonpayable",
      "type": "function"
    },
    {
      "inputs": [
        {
          "internalType": "bytes32",
          "name": "recordIdHash",
          "type": "bytes32"
        },
        {
          "internalType": "address",
          "name": "targetWallet",
          "type": "address"
        }
      ],
      "name": "revokeRole",
      "outputs": [],
      "stateMutability": "nonpayable",
      "type": "function"
    },
    {
      "inputs": [
        {
          "internalType": "bytes32[]",
          "name": "recordIdHashes",
          "type": "bytes32[]"
        },
        {
          "internalType": "address",
          "name": "targetWallet",
          "type": "address"
        }
      ],
      "name": "revokeRoleBatch",
      "outputs": [],
      "stateMutability": "nonpayable",
      "type": "function"
    },
    {
      "inputs": [
        {
          "internalType": "bytes32",
          "name": "trustorIdHash",
          "type": "bytes32"
        },
        {
          "internalType": "bytes32",
          "name": "trusteeIdHash",
          "type": "bytes32"
        }
      ],
      "name": "revokeTrustee",
      "outputs": [],
      "stateMutability": "nonpayable",
      "type": "function"
    },
    {
      "inputs": [
        {
          "internalType": "bytes32",
          "name": "",
          "type": "bytes32"
        }
      ],
      "name": "roleGrantedBy",
      "outputs": [
        {
          "internalType": "bytes32",
          "name": "",
          "type": "bytes32"
        }
      ],
      "stateMutability": "view",
      "type": "function"
    },
    {
      "inputs": [
        {
          "internalType": "address",
          "name": "_healthRecordCore",
          "type": "address"
        }
      ],
      "name": "setHealthRecordCore",
      "outputs": [],
      "stateMutability": "nonpayable",
      "type": "function"
    },
    {
      "inputs": [
        {
          "internalType": "bytes32",
          "name": "userIdHash",
          "type": "bytes32"
        },
        {
          "internalType": "enum MemberRoleManager.MemberStatus",
          "name": "newStatus",
          "type": "uint8"
        }
      ],
      "name": "setUserStatus",
      "outputs": [],
      "stateMutability": "nonpayable",
      "type": "function"
    },
    {
      "inputs": [],
      "name": "totalRoles",
      "outputs": [
        {
          "internalType": "uint256",
          "name": "",
          "type": "uint256"
        }
      ],
      "stateMutability": "view",
      "type": "function"
    },
    {
      "inputs": [],
      "name": "totalUsers",
      "outputs": [
        {
          "internalType": "uint256",
          "name": "",
          "type": "uint256"
        }
      ],
      "stateMutability": "view",
      "type": "function"
    },
    {
      "inputs": [
        {
          "internalType": "address",
          "name": "newAdmin",
          "type": "address"
        }
      ],
      "name": "transferAdmin",
      "outputs": [],
      "stateMutability": "nonpayable",
      "type": "function"
    },
    {
      "inputs": [
        {
          "internalType": "bytes32",
          "name": "",
          "type": "bytes32"
        },
        {
          "internalType": "bytes32",
          "name": "",
          "type": "bytes32"
        }
      ],
      "name": "trusteeRelationships",
      "outputs": [
        {
          "internalType": "enum MemberRoleManager.TrusteeStatus",
          "name": "status",
          "type": "uint8"
        },
        {
          "internalType": "enum MemberRoleManager.TrusteeLevel",
          "name": "level",
          "type": "uint8"
        }
      ],
      "stateMutability": "view",
      "type": "function"
    },
    {
      "inputs": [
        {
          "internalType": "bytes32",
          "name": "trusteeIdHash",
          "type": "bytes32"
        },
        {
          "internalType": "enum MemberRoleManager.TrusteeLevel",
          "name": "newLevel",
          "type": "uint8"
        }
      ],
      "name": "updateTrusteeLevel",
      "outputs": [],
      "stateMutability": "nonpayable",
      "type": "function"
    },
    {
      "inputs": [
        {
          "internalType": "address",
          "name": "newImplementation",
          "type": "address"
        },
        {
          "internalType": "bytes",
          "name": "data",
          "type": "bytes"
        }
      ],
      "name": "upgradeToAndCall",
      "outputs": [],
      "stateMutability": "payable",
      "type": "function"
    },
    {
      "inputs": [
        {
          "internalType": "uint256",
          "name": "",
          "type": "uint256"
        }
      ],
      "name": "userList",
      "outputs": [
        {
          "internalType": "bytes32",
          "name": "",
          "type": "bytes32"
        }
      ],
      "stateMutability": "view",
      "type": "function"
    },
    {
      "inputs": [
        {
          "internalType": "bytes32",
          "name": "",
          "type": "bytes32"
        }
      ],
      "name": "userStatus",
      "outputs": [
        {
          "internalType": "enum MemberRoleManager.MemberStatus",
          "name": "",
          "type": "uint8"
        }
      ],
      "stateMutability": "view",
      "type": "function"
    },
    {
      "inputs": [
        {
          "internalType": "bytes32",
          "name": "",
          "type": "bytes32"
        },
        {
          "internalType": "uint256",
          "name": "",
          "type": "uint256"
        }
      ],
      "name": "userWallets",
      "outputs": [
        {
          "internalType": "address",
          "name": "",
          "type": "address"
        }
      ],
      "stateMutability": "view",
      "type": "function"
    },
    {
      "inputs": [
        {
          "internalType": "bytes32",
          "name": "",
          "type": "bytes32"
        },
        {
          "internalType": "uint256",
          "name": "",
          "type": "uint256"
        }
      ],
      "name": "viewersByRecord",
      "outputs": [
        {
          "internalType": "bytes32",
          "name": "",
          "type": "bytes32"
        }
      ],
      "stateMutability": "view",
      "type": "function"
    },
    {
      "inputs": [
        {
          "internalType": "bytes32",
          "name": "recordIdHash",
          "type": "bytes32"
        }
      ],
      "name": "voluntarilyLeaveOwnership",
      "outputs": [],
      "stateMutability": "nonpayable",
      "type": "function"
    },
    {
      "inputs": [
        {
          "internalType": "address",
          "name": "",
          "type": "address"
        }
      ],
      "name": "wallets",
      "outputs": [
        {
          "internalType": "bytes32",
          "name": "userIdHash",
          "type": "bytes32"
        },
        {
          "internalType": "bool",
          "name": "isWalletActive",
          "type": "bool"
        }
      ],
      "stateMutability": "view",
      "type": "function"
    }
  ],
  "bytecode": "0x60a08060405234620000d157306080527ff0c57e16840df040f15088dc2f81fe391c3923bec73e23a9662efc9c229c6a009081549060ff8260401c16620000c257506001600160401b036002600160401b0319828216016200007c575b604051614e0f9081620000d68239608051818181612311015261251d0152f35b6001600160401b031990911681179091556040519081527fc7f505b2f371ae2175ee4913f4499e1f2633a7b5936321eed1cdaeb6115181d290602090a15f80806200005c565b63f92ee8a960e01b8152600490fd5b5f80fdfe6080604090808252600480361015610015575f80fd5b5f3560e01c918262b0c809146139845750816302ba810914613927578163033e822f146138be5781630519e2a0146138985781630591bdf4146135335781630b3ffd1d146134765781631c0c18d8146132465781631dc63201146130c7578163259ed80e146130a257816329c9087a14612b775781632ae8511d146129fa5781633256e5ab1461297e57816333105592146129415781633befa4101461292657816341a51baa146128bd578163422a5bb81461288957816343e197041461283757816345ecd02f1461281757816349df7208146126ca5781634b6feb7c14611bd05781634f1ef286146124cd57816351eed4721461237557816352d1902d146122fe578163557ee54f146122705781635581607914612240578163562c788e146105cc57816364f639d4146122255781636544b05b146121bc57816369ac202214611fbe5781636b4bed9714610373578163726d544714611c6c57816375829def14611bee578163790e118c14611bd05781637b657d0714611b935781638129fc1c14611a765781638776cd3514611a4657816389b08f1114611a015781638db7edb4146119bc57816393ccfba81461198c5781639443cd801461194657816396207e02146118085781639915b91f146117915781639be572f61461129e5781639f4216e814611745578163aaddc34514611719578163ab48384a146115eb578163ad3cb1cc146115a7578163b8cab84b146114cc578163bafc889214611373578163bb0f86d5146112bc578163bff1f9e11461129e578163c36dc9ef14611235578163c7155823146111b9578163c88c35fe14611193578163c979c9bf1461102f578163cb261a0314611001578163cda06c6e14610fda578163d12a776814610f2b578163d547741f14610b23578163dde492ea146106e4578163e211e89c14610674578163e2842d79146105f4578163e94ed257146105cc578163eec047aa1461056c578163f12b9ad3146103a4578163f29e007b1461037357508063f851a4401461034c5763fa7a6bcc1461030b575f80fd5b346103485761031936613cde565b91905f52600a602052805f2080548310156103485760209261033a91613e2c565b91905490519160031b1c8152f35b5f80fd5b5034610348575f366003190112610348575f5490516001600160a01b039091168152602090f35b823461034857602036600319011261034857602091355f52600282526103a260ff825f20541691518092613e55565bf35b823461034857806003193601126103485781356001600160401b038111610348576103d29036908401613a81565b916103db6139ce565b6103ec6103e7336145c2565b613ea3565b6001600160a01b03169081156105385750335f52600192839260209060018252805f2054935f52805f205492610423841515613f2a565b5f955b61042c57005b805186101561053657868661044c86610446849a866140ef565b516146bf565b156105315761045f8761044683866140ef565b1561053157868661047a8161047485886140ef565b516148de565b805f52600680895261048d885f20613d2c565b9182518a84012061049c61430b565b8b815191012014610527576104bc83856104b6898c6140ef565b51614912565b5f52885284875f200160ff198154169055600d88525f878120557fd05ed2d3feff840c2ececa71791388fd3d19dbbbbcfa97031f534a7dc09fbf1f61051761050486896140ef565b519289519182918b83528b830190613dce565b428c8301520390a45b0195610426565b5050505050610520565b610520565b005b606490602084519162461bcd60e51b8352820152600e60248201526d125b9d985b1a59081dd85b1b195d60921b6044820152fd5b82346103485761057b36613cde565b905f52600f602052815f20905f52602052805f20906105c8825491600184015493600360028201549101549151948594859094939260609260808301968352602083015260408201520152565b0390f35b8234610348575f36600319011261034857600c5490516001600160a01b039091168152602090f35b8234610348575f366003190112610348578051908183548082526020809201945f527f8a35acfbc15ff81a39ae7d344fd709f28e8600b4aa8c65c6b64bfe7fe36bd19b915f905b82821061065d576105c88686610653828b0383613a49565b5191829182613c11565b83548752958601956001938401939091019061063b565b82346103485760209061068636613cde565b905f52600f8352815f20905f528252805f209080516106a481613a13565b8254908181526060600360018601549586888501526002810154868501520154910152151591826106d9575b50519015158152f35b4211159150836106d0565b905034610348576106f436613c9c565b9192906107036103e7336145c2565b61070e8415156141d9565b6001600160a01b031692610723841515614225565b61073461072f846149eb565b614271565b335f5260209160018352855f2054945f52855f205492610755841515613f2a565b84518186012061076587856148de565b5f526006825260ff6001895f2001541615610ae257835f5260078252875f205415159061079a61079361430b565b8987614a43565b916107ad6107a661432c565b8a88614a43565b916107b88a88614aa1565b906107c161430b565b80519087012081036108ff575050156108a5575015610863575b6107e584846148de565b5f526006815260ff6001885f2001541661080557505061053694506146c9565b865162461bcd60e51b815291820152603360248201527f54617267657420616c726561647920686173206120726f6c652e2055736520636044820152721a185b99d9549bdb194a0a481a5b9cdd195859606a1b606482015260849150fd5b865162461bcd60e51b815291820181905260248201527f4f6e6c79206f776e6572732063616e206772616e74206f776e657220726f6c65604482015260649150fd5b90506107db57865162461bcd60e51b815291820152602960248201527f4f6e6c792061646d696e6973747261746f72732063616e206772616e742066696044820152683939ba1037bbb732b960b91b606482015260849150fd5b90915061090a61432c565b8051908601208103610994575050811561098c575b506107db57865162461bcd60e51b815291820152603b60248201527f4f6e6c79206f776e65727320616e642061646d696e6973747261746f7273206360448201527f616e206772616e742061646d696e6973747261746f7220726f6c650000000000606482015260849150fd5b90505f61091f565b61099f939193614103565b858151910120146109b3575b5050506107db565b80159081610adb575b8015610ad4575b15610a6b5782610a63575b5081610a5a575b506109e3575b5f80806109ab565b6109ed8684614bd7565b516109db57865162461bcd60e51b815291820152603c60248201527f5375626a656374206d757374206861766520616e2061637469766520726f6c6560448201527f20746f206772616e7420766965776572207065726d697373696f6e7300000000606482015260849150fd5b9050155f6109d5565b91505f6109ce565b895162461bcd60e51b8152808601859052603e60248201527f4f6e6c79206f776e6572732c2061646d696e6973747261746f72732c206f722060448201527f7375626a656374732063616e206772616e742076696577657220726f6c6500006064820152608490fd5b50826109c3565b50816109bc565b60648383808b519262461bcd60e51b845283015260248201527f596f752068617665206e6f20726f6c6520666f722074686973207265636f72646044820152fd5b82346103485780600319360112610348578135610b3e6139ce565b610b498215156141d9565b6001600160a01b031692610b5e841515614225565b335f5260209260018452805f2054945f52805f205493610b7f851515613f2a565b610b8985856148de565b805f5260068252610ba260ff6001855f200154166142b3565b805f5260068252610bb4835f20613d2c565b93845183860120610bc361430b565b8481519101208114610eb457878903610cec575b610bdf61432c565b84815191012014610c57575b5090839291610c1c7fd05ed2d3feff840c2ececa71791388fd3d19dbbbbcfa97031f534a7dc09fbf1f958888614912565b5f52600681526001825f200160ff198154169055600d81525f82812055610c4c8251938385948552840190613dce565b9042908301520390a4005b855f52600883526001845f20541160078452845f205415158115610ce4575b50610beb57835162461bcd60e51b8152908101839052603960248201527f43616e6e6f74207265766f6b65206c6173742061646d696e6973747261746f7260448201527f20776974686f757420616e206f776e65722070726573656e74000000000000006064820152608490fd5b905089610c76565b610cfe610cf761430b565b8a89614a43565b610d10610d0961432c565b8b8a614a43565b845f52600d86528a875f20541490610d26614103565b8051908801208403610dc6578215610dbe575b508115610db6575b5015610d4d575b610bd7565b845162461bcd60e51b8152808301859052603e60248201527f4f6e6c79206f776e6572732c2061646d696e6973747261746f72732c206f722060448201527f746865206772616e7465722063616e207265766f6b65207669657765727300006064820152608490fd5b90508a610d41565b91508b610d39565b821592915082610eac575b5015610e515715610bd757610de461432c565b8481519101208103610d4857865f5260078452845f205415610d4857845162461bcd60e51b8152808301859052602560248201527f4f6e6c79206f776e6572732063616e207265766f6b652061646d696e6973747260448201526461746f727360d81b6064820152608490fd5b855162461bcd60e51b8152808401869052602f60248201527f4f6e6c79206f776e65727320616e642061646d696e6973747261746f7273206360448201526e616e207265766f6b6520726f6c657360881b6064820152608490fd5b90508b610dd1565b845162461bcd60e51b8152808301859052604560248201527f4f776e6572732063616e6e6f74206265207265766f6b65642e204f776e65722060448201527f6d7573742075736520766f6c756e746172696c794c656176654f776e6572736860648201526434b814149760d91b608482015260a490fd5b9050346103485760209081600319360112610348578290355f5260038252805f208151928381835491828152019081935f52825f20905f5b818110610fbd5750505084610f79910385613a49565b825181815293518185018190528493840192915f5b828110610f9d57505050500390f35b83516001600160a01b031685528695509381019392810192600101610f8e565b82546001600160a01b031684529284019260019283019201610f63565b823461034857602036600319011261034857602091355f52600d8252805f20549051908152f35b8234610348576020366003190112610348576020906110266110216139b8565b614b81565b90519015158152f35b82346103485761103e36613cde565b9161104b6103e7336145c2565b335f5260209060018252805f205494838614801561118a575b1561114a57835f52600e8352815f20855f52835260ff825f20541681811015611137576002811490811561112c575b50156110e15750907f6df3a6475fab2eed139f7e469995b04e85bfc5b4b8642587109cb72541f74fae91835f52600e8252805f20855f528252805f20600360ff1982541617905551428152a4005b82608492519162461bcd60e51b8352820152602160248201527f4e6f20616374697665206f722070656e64696e672072656c6174696f6e7368696044820152600760fc1b6064820152fd5b600191501487611093565b602182634e487b7160e01b5f525260245ffd5b8280606493519262461bcd60e51b845283015260248201527f4e6f74206120706172747920746f20746869732072656c6174696f6e736869706044820152fd5b50848614611064565b82346103485780600319360112610348576110266020926111b26139ce565b9035614585565b8234610348576020366003190112610348577fce59ad7d6dabe8a7533ed7d9bd07d276a046ac7ac9a8e8e8971da4b81104a28b60206111f66139b8565b5f546001600160a01b03919061120f9083163314614125565b169261121c8415156144fb565b600c80546001600160a01b0319168517905551428152a2005b90503461034857602090602060031936011261034857355f526007602052815f209180519182602085549182815201945f5260205f20915f905b828210611287576105c88686610653828b0383613a49565b83548752958601956001938401939091019061126f565b8234610348575f366003190112610348576020906005549051908152f35b905034610348576020366003190112610348576112d76139b8565b5f546001600160a01b0391906112f09083163314614125565b16805f5260019182602052611309845f2054151561415e565b815f528260205260ff83855f2001541661133857509181925f52816020525f20019060ff198254161790555f80f35b606490602085519162461bcd60e51b8352820152601560248201527457616c6c657420616c72656164792061637469766560581b6044820152fd5b82346103485761138236613c6b565b9190926113916103e7336145c2565b335f5260019360209160018352835f205492855f52600e8152845f20845f528152845f20908551916113c2836139e4565b54916113d160ff8416826141a2565b6113e460ff8383019460081c16846141ae565b51838110156114b95760026113f99114614539565b835161141061140782613a6a565b97519788613a49565b80875261141f601f1991613a6a565b015f5b8181106114aa57505050865f905b611442575b505050610536945061464a565b83518110156114a55761145581856140ef565b51825190600382101561149257916114738a959493928a8794614b2b565b61147d828a6140ef565b5261148881896140ef565b5001909192611430565b602185634e487b7160e01b5f525260245ffd5b611435565b60608882018401528201611422565b602184634e487b7160e01b5f525260245ffd5b82346103485760209081600319360112610348578235916114ef6103e7336145c2565b335f5260018152815f205493835f52600e8252825f20855f528252825f209081549060ff8216818110156111375760010361156e57509161156660ff9260027fc5b2e1bd4433eb4e9e181cc803520513d39d918c96bddeebca1224e1c750963d969585191617809155845193849160081c16613e76565b4290820152a3005b845162461bcd60e51b81529081018490526013602482015272139bc81c195b991a5b99c81c1c9bdc1bdcd85b606a1b6044820152606490fd5b8234610348575f3660031901126103485780516105c8916115c7826139e4565b60058252640352e302e360dc1b602083015251918291602083526020830190613dce565b905034610348576115fb36613c4c565b91909261160a6103e7336145c2565b335f526001602052805f205492835f52600e602052815f20855f52602052815f20805460ff8116858110156117065790611648600260ff9314614539565b60081c169360038310156116f35760038510156116f3578285146116b05750916115668261169a7fb36ec3c738ef8ecd9180addc815304762374b76e91c2a321831d9906ea119ade96946060966141ba565b6116a683518095613e76565b6020840190613e76565b606490602085519162461bcd60e51b8352820152601860248201527f416c72656164792074686973207472757374206c6576656c00000000000000006044820152fd5b602190634e487b7160e01b5f525260245ffd5b602186634e487b7160e01b5f525260245ffd5b82346103485760209061173461172e36613cde565b906148de565b5f52600d8252805f20549051908152f35b82346103485760203660031901126103485781358254811015610348576020925f527f8a35acfbc15ff81a39ae7d344fd709f28e8600b4aa8c65c6b64bfe7fe36bd19b01549051908152f35b8234610348576117a036613cde565b905f52600e602052815f20905f52602052805f20908051916117c1836139e4565b54916117d060ff8416826141a2565b6117e460ff602083019460081c16846141ae565b5191838310156114b957519260038410156116f357506105c8905192839283613e83565b823461034857806003193601126103485781359060243560068110156103485761183c60018060a01b035f54163314614125565b825f5260206002815260ff835f2054166006811015611706571561190e57835f526002815260ff835f2054169460068610156116f3578286146118d75750906118aa91845f5260028152835f2060ff1981541660ff84161790556118a284518097613e55565b850190613e55565b42908301527ff6277c6ee46649823db9a5c531db3112b4340c67179cae1932ba3420dcc37cc760603393a3005b60649184519162461bcd60e51b83528201526013602482015272416c726561647920746869732073746174757360681b6044820152fd5b8460649184519162461bcd60e51b83528201526013602482015272155cd95c881b9bdd081c9959da5cdd195c9959606a1b6044820152fd5b82346103485761195536613cde565b91905f526003602052805f2080548310156103485760209261197691613e2c565b60018060a01b0391549060031b1c169051908152f35b82346103485761199b36613cde565b91905f526009602052805f2080548310156103485760209261033a91613e2c565b823461034857602036600319011261034857606091355f526007602052805f2054906008602052805f2054906009602052805f20549181519384526020840152820152f35b8234610348576020366003190112610348576001600160a01b03611a236139b8565b165f526001602052805f2060ff6001825492015416825191825215156020820152f35b823461034857611a5536613cde565b91905f526008602052805f2080548310156103485760209261033a91613e2c565b905034610348575f366003190112610348577ff0c57e16840df040f15088dc2f81fe391c3923bec73e23a9662efc9c229c6a0090815460ff81851c1615916001600160401b03821680159081611b8b575b6001149081611b81575b159081611b78575b50611b6a575067ffffffffffffffff198116600117835581611b4b575b505f80546001600160a01b03191633179055611b0e57005b805468ff00000000000000001916905551600181527fc7f505b2f371ae2175ee4913f4499e1f2633a7b5936321eed1cdaeb6115181d290602090a1005b68ffffffffffffffffff1916680100000000000000011782555f611af6565b845163f92ee8a960e01b8152fd5b9050155f611ad9565b303b159150611ad1565b849150611ac7565b8234610348576105c890611ba636613cde565b905f52600e602052815f20905f52602052805f20549051918160ff80859460081c16911683613e83565b8234610348575f36600319011261034857602090600b549051908152f35b823461034857602036600319011261034857602090611c0b6139b8565b5f5491906001600160a01b03808416917f38df5fa0f7fef0d515ca1f5388cb5790ac5885d5fca8d05d9f943e563c33a4b39190611c49338514614125565b16948593611c588515156144fb565b51428152a36001600160a01b031916175f55005b90503461034857611c7c36613c9c565b93909260018060a01b03611c94815f54163314614125565b611c9f8415156141d9565b8416611cac811515614427565b611cb861072f876149eb565b5f526001602091818352611cda845f205496611cd588151561415e565b6145c2565b15611f7b57845f5260078352835f20541580611f6c575b15611f2957611d0086866148de565b91825f5260068452845f2092611d1584613d2c565b9260ff838551159601541692875191611d2d836139e4565b8b835287830190828252845f5260068952895f2093518051916001600160401b038311611f165750611d5f8554613cf4565b601f8111611ed0575b508990601f8311600114611e6957611daf95949392915f9183611e5e575b50505f19600383901b1c191690831b1783555b51151591019060ff801983541691151516179055565b5f52600d84525f85812055155f14611e3157509185917ff9d17eb1340ab78960b594ff8bed1349985b800ee21199c6d5ea4a67454593ad93611df35f988888614c2e565b611e0b575b610c4c8251938385948552840190613dce565b858752600a8152611e1e85838920614091565b611e29600b546140cd565b600b55611df8565b9594939250508451818601209084519085012003611e4b57005b611e59610536948383614912565b614c2e565b015190505f80611d86565b90601f19831691865f528b5f20925f5b8d828210611ebc57505091869594929183611daf9998959310611ea4575b505050811b018355611d99565b01515f1960f88460031b161c191690555f8080611e97565b838501518655948801949384019301611e79565b855f528a5f20601f840160051c8101918c8510611f0c575b601f0160051c019085905b828110611f01575050611d68565b5f8155018590611ef3565b9091508190611ee8565b604190634e487b7160e01b5f525260245ffd5b835162461bcd60e51b8152908101839052601a60248201527f5265636f726420616c726561647920696e697469616c697a65640000000000006044820152606490fd5b5060088352835f205415611cf1565b835162461bcd60e51b8152908101839052601860248201527f4d75737420626520616e20616374697665206d656d62657200000000000000006044820152606490fd5b82346103485780600319360112610348576001600160401b03908235828111610348573660238201121561034857808401359283116103485760246005943660248660051b85010111610348575f546001600160a01b039660243595916120289089163314614125565b86156121835761203986151561446c565b855f526002936020936002855260ff845f2054169060068210156116f3575015955f5b89811061206557005b8281851b83010135908b82169182810361034857826120eb8c9261208c6001961515614427565b825f526120dc86808d526120a38c5f2054156144af565b8b51906120af826139e4565b8682528d8181840191818352885f52528d5f209251835551151591019060ff801983541691151516179055565b835f5260038b52895f2061400f565b82158061217c575b1561214f57815f52898952875f208a60ff198254161790556121148261404a565b61211e87546140cd565b87557f39d132591ee0696de49ab564e4a90e430c006561917db731a2a614dd2d245591898951428152a35b0161205c565b7f1cc138f50384be7770a8e4a34eecaa0d0c718bfaa1641af49db32532e4a5b910898951428152a3612149565b508a6120f3565b815162461bcd60e51b81526020818501526013602482015272139bc81dd85b1b195d1cc81c1c9bdd9a591959606a1b6044820152606490fd5b90503461034857602090602060031936011261034857355f52600a602052815f209180519182602085549182815201945f5260205f20915f905b82821061220e576105c88686610653828b0383613a49565b8354875295860195600193840193909101906121f6565b82346103485760209061102661223a36613cde565b90614aa1565b82346103485761224f36613cde565b91905f526007602052805f2080548310156103485760209261033a91613e2c565b82346103485761227f36613cde565b905f52600e602052815f20905f52602052805f20908051916122a0836139e4565b54916122af60ff8416826141a2565b6122c360ff602083019460081c16846141ae565b51838110156114b95760021491826122e2575b60208383519015158152f35b909150519160038310156116f3575060026020921490836122d6565b8234610348575f366003190112610348577f00000000000000000000000000000000000000000000000000000000000000006001600160a01b0316300361236857602090517f360894a13ba1a3210667c828492db98dca3e2076cc3735a920a3ca505d382bbc8152f35b5163703e46dd60e11b8152fd5b82346103485761238436613b44565b926123916103e7336145c2565b61239e8351855114613ee6565b335f5260019384936020906001602052835f20549460018060a01b03165f52835f2054936123cd851515613f2a565b5f965b6123d657005b81518710156105365787876123f56123ef839a886140ef565b516149eb565b156124c8576124088861044683876140ef565b156124c85787878585848a8a6124228661044685886140ef565b156124bc576124628361245b816124556124699860068c9761244b8f9b6104748f918c926140ef565b5f52525f20613d2c565b986140ef565b51936140ef565b51916146c9565b7f3af67cf2057ba8ef414286fb626cd3efb02f74996e18efd455b39d8ec7ec460f61249485896140ef565b51916124a0868c6140ef565b516124b18951928392429184614355565b0390a45b01966123d0565b505050505050506124b5565b6124b5565b905081600319360112610348576124e26139b8565b916024356001600160401b0381116103485736602382011215610348576125129036906024818601359101613ae1565b906001600160a01b037f0000000000000000000000000000000000000000000000000000000000000000811630811490811561269c575b5061268c5761255c815f54163314614125565b8416918151946352d1902d60e01b86526020868681875afa5f9681612658575b5061259857505051634c9c8ce360e01b81529182015260249150fd5b838593877f360894a13ba1a3210667c828492db98dca3e2076cc3735a920a3ca505d382bbc908181036126425750833b1561262b5780546001600160a01b0319168317905551907fbc7cd75a20ee27fd9adebab32041f755214dbc6bffa90cc0225b39da2e5c2d3b5f80a282511561261557506105369250614d48565b9150503461261f57005b63b398979f60e01b8152fd5b8151634c9c8ce360e01b8152808701849052602490fd5b86602491845191632a87526960e21b8352820152fd5b9096506020813d602011612684575b8161267460209383613a49565b810103126103485751955f61257c565b3d9150612667565b815163703e46dd60e11b81528490fd5b9050817f360894a13ba1a3210667c828492db98dca3e2076cc3735a920a3ca505d382bbc541614155f612549565b9050346103485781600319360112610348576126e46139b8565b916024359260018060a01b036126fe815f54163314614125565b81169261270c841515614427565b61271785151561446c565b835f5261277c60209260018452612731855f2054156144af565b61276d855161273f816139e4565b8881526001868201818152895f52818852885f209251835551151591019060ff801983541691151516179055565b865f5260038452845f2061400f565b845f526002825260ff835f2054169060068210156116f357506127ee577f39d132591ee0696de49ab564e4a90e430c006561917db731a2a614dd2d24559191845f5260028252805f20600260ff198254161790556127d98561404a565b6127e46005546140cd565b60055551428152a3005b7f1cc138f50384be7770a8e4a34eecaa0d0c718bfaa1641af49db32532e4a5b9109151428152a3005b823461034857602036600319011261034857602090611026611cd56139b8565b82346103485760209061284c61172e36613cde565b5f52600682526105c8815f20918051612864816139e4565b60ff600161287186613d2c565b95868452015416151594859101525192839283613e0c565b82346103485780600319360112610348576128b06105c8926128a96139ce565b90356143af565b9290915192839283613e0c565b90503461034857602090602060031936011261034857355f526008602052815f209180519182602085549182815201945f5260205f20915f905b82821061290f576105c88686610653828b0383613a49565b8354875295860195600193840193909101906128f7565b82346103485760209061102661293b36613c9c565b91614383565b90503461034857602036600319011261034857355f526006602052805f206105c860ff600161296f84613d2c565b93015416925192839283613e0c565b82346103485761298d36613cde565b905f52600f602052815f20905f52602052805f20906105c860608251936129b385613a13565b805493848652600182015495866020820152600360028401549384848401520154938491015251948594859094939260609260808301968352602083015260408201520152565b82346103485760208060031936011261034857823591612a1b8315156141d9565b335f5260018252805f205493612a39612a3261430b565b8686614a43565b15612b2a57835f52600783526001825f20541160088452825f205415158115612b22575b5015612ac75750907f68f37cc4a32f0b24153ce9237b344b20a9717039f90d7c24f35e5c217f03e16891612a9185856148de565b612aa3612a9c61430b565b8787614912565b5f52600682526001815f200160ff198154169055600d82525f8181205551428152a3005b82608492519162461bcd60e51b8352820152603160248201527f43616e6e6f74206c65617665206173206c617374206f776e65722077697468206044820152706e6f2061646d696e6973747261746f727360781b6064820152fd5b905086612a5d565b82608492519162461bcd60e51b8352820152602360248201527f596f7520617265206e6f7420616e206f776e6572206f662074686973207265636044820152621bdc9960ea1b6064820152fd5b90503461034857612b8736613c9c565b9390612b956103e7336145c2565b612ba08315156141d9565b6001600160a01b031693612bb5851515614225565b612bc161072f826149eb565b335f5260209160018352805f2054955f52805f205494612be2861515613f2a565b82518484012093612bf387876148de565b805f5260068252612c0c60ff6001865f200154166142b3565b5f5260068152612c1d835f20613d2c565b948551828701209080821461306057612c3461430b565b8381519101208214612fec57875f5260078352845f205415918215612c61612c5a61430b565b8d8c614a43565b90612c758d612c6e61432c565b908d614a43565b90612c7e61430b565b8051908801208503612e335715612dd5575015612d93575b612c9e61432c565b848151910120149081612d7c575b50612cf9575b50505090612cf47f3af67cf2057ba8ef414286fb626cd3efb02f74996e18efd455b39d8ec7ec460f9392612ce8888489896146c9565b51928392429184614355565b0390a4005b612d04575b80612cb2565b855f52600881526001835f205411612cfe57608492519162461bcd60e51b8352820152603960248201527f43616e6e6f742064656d6f746520746865206c6173742061646d696e6973747260448201527f61746f72207768656e206e6f206f776e657220657869737473000000000000006064820152fd5b9050612d86614103565b838151910120145f612cac565b50505080606493519262461bcd60e51b845283015260248201527f4f6e6c79206f776e6572732063616e2070726f6d6f746520746f206f776e65726044820152fd5b9050612c96575050925162461bcd60e51b815291820152602b60248201527f4f6e6c792061646d696e6973747261746f72732063616e2070726f6d6f74652060448201526a3334b939ba1037bbb732b960a91b606482015260849150fd5b612e3b61432c565b8051908801208503612ec657508115612ebe575b50612c96575050925162461bcd60e51b815291820152603b60248201527f4f6e6c79206f776e65727320616e642061646d696e6973747261746f7273206360448201527f616e2070726f6d6f746520746f2061646d696e6973747261746f720000000000606482015260849150fd5b90505f612e4f565b612ece614103565b8781519101208514612ee3575b505050612c96565b15612f91578115612f7a575b5015612efe575b5f8080612edb565b5050925162461bcd60e51b815291820152604960248201527f4f6e6c79206f776e6572732063616e2064656d6f7465206f74686572732e204160448201527f646d696e6973747261746f72732063616e206f6e6c792064656d6f746520746860648201526832b6b9b2b63b32b99760b91b608482015260a49150fd5b905080612f88575b5f612eef565b50898b14612f82565b9050612ef6575050925162461bcd60e51b815291820152602860248201527f4f6e6c792061646d696e6973747261746f72732063616e2064656d6f7465207460448201526737903b34b2bbb2b960c11b606482015260849150fd5b505060a492519162461bcd60e51b8352820152604360248201527f4f776e6572732063616e6e6f742062652064656d6f7465642e204f776e65722060448201527f6d75737420766f6c756e746172696c792072656d6f7665207468656d73656c7660648201526232b99760e91b6084820152fd5b5050606492519162461bcd60e51b8352820152601c60248201527f54617267657420616c726561647920686173207468697320726f6c65000000006044820152fd5b8234610348576020366003190112610348576020906110266130c26139b8565b614995565b8234610348576130d636613c6b565b6130e56103e7939293336145c2565b335f526001928392602090848252805f20549261310481511515613fcd565b5f955b61310d57005b80518610156105365786868686613125849a866140ef565b51805f52600f8852865f20835f528852865f20875161314381613a13565b815490818152878301548b82015260606003600285015494858d85015201549101521561323d5761317c61317561430b565b8484614a43565b90811561322a575b8314159081613221575b506132195761319d83826148de565b805f52600690818a5260ff878a5f200154166131e6575b50507fa232dcffab2d4f0f085a4d88bc617cd25ded7d3b8d8952e99d788ca25d4435b0888851428152a45b0195613107565b6131f86131f1614103565b8685614912565b5f52885284875f200160ff198154169055600d88525f878120558c806131b4565b5050506131df565b9050158d61318e565b905061323761317561432c565b90613184565b505050506131df565b82346103485761325536613c4c565b90916132636103e7336145c2565b335f5260209160018352815f20549284156134425784841461340057845f526002815260ff835f20541660068110156133b257156133c557835f52600e8152825f20855f52815260ff835f205416868110156133b25780159081156133a7575b50156133655782516132d4816139e4565b600181528181016132e584826141ae565b855f52600e8352845f20875f528352845f209151888110156133525760ff80198454169116178255519660038810156116f357507f494d010fdf588a0e83d626ea6963187bdda6f88b7007f7bf280683d3f7dea834949596613346916141ba565b61156683518093613e76565b602189634e487b7160e01b5f525260245ffd5b8560649184519162461bcd60e51b8352820152601760248201527f50726f706f73616c20616c7265616479206578697374730000000000000000006044820152fd5b6003915014876132c3565b602187634e487b7160e01b5f525260245ffd5b8560649184519162461bcd60e51b83528201526016602482015275151c9d5cdd1959481b9bdd081c9959da5cdd195c995960521b6044820152fd5b8560649184519162461bcd60e51b8352820152601760248201527f43616e6e6f74206170706f696e7420796f757273656c660000000000000000006044820152fd5b8560649184519162461bcd60e51b8352820152600f60248201526e496e76616c6964207472757374656560881b6044820152fd5b8234610348576020366003190112610348576134906139b8565b5f546001600160a01b0391906134a99083163314614125565b16805f5260016020526134c0825f2054151561415e565b805f52600160205260ff6001835f20015416156134f057600192505f52816020525f200160ff1981541690555f80f35b815162461bcd60e51b8152602081850152601760248201527f57616c6c657420616c726561647920696e6163746976650000000000000000006044820152606490fd5b82346103485760a03660031901126103485781356001600160401b038111610348576135629036908401613a81565b9061356b6139ce565b60443591606435936084356135826103e7336145c2565b335f52600195602091878352845f20549561359f85511515613fcd565b6001600160a01b03811690811561385e5788156138285782156137e557815f5289855288875f205480155f1461377b575050613611613620928b8951916135e5836139e4565b8c8352888301908282525f528189528a5f209251835551151591019060ff801983541691151516179055565b885f5260038552865f2061400f565b865f5260028352845f20600560ff1982541617905561363e8761404a565b6136496005546140cd565b6005555b420192834211613768578798505f975b61366357005b8051881015610536578888888861367b849c866140ef565b5161368682826148de565b5f5289888a60068083528a60ff94858b825f200154161561375a577f140d483f221b1b41aa3142be8c182589305145aafe83bed53b908d6baff35c1d956003936136d08b8a6148de565b5f5286528b825f2001541615613742575b8051936136ed85613a13565b42855285850190815281850191898352606096878701948552895f52600f8152815f20908c5f52525f2094518555518b850155516002840155519101558b518981528b8b820152428d820152a45b019761365d565b6137558861374e614103565b8b8a6146c9565b6136e1565b50505050505050505061373b565b601189634e487b7160e01b5f525260245ffd5b14915061364d905057845162461bcd60e51b8152808a01849052603560248201527f47756573742077616c6c657420616c7265616479207265676973746572656420604482015274746f20646966666572656e74206964656e7469747960581b6064820152608490fd5b865162461bcd60e51b8152808c01869052601960248201527f4475726174696f6e206d75737420626520706f736974697665000000000000006044820152606490fd5b865162461bcd60e51b8152808c01869052601060248201526f125b9d985b1a590819dd595cdd08125160821b6044820152606490fd5b865162461bcd60e51b8152808c018690526014602482015273125b9d985b1a590819dd595cdd081dd85b1b195d60621b6044820152606490fd5b82346103485780600319360112610348576110266020926138b76139ce565b9035613f76565b90503461034857602090602060031936011261034857355f526009602052815f209180519182602085549182815201945f5260205f20915f905b828210613910576105c88686610653828b0383613a49565b8354875295860195600193840193909101906138f8565b8234610348576105369061393a36613b44565b9190926139496103e7336145c2565b6139568251845114613ee6565b335f9081526001602052818120546001600160a01b03909516815220549061397f821515613f2a565b61464a565b839034610348576020366003190112610348576020916001600160a01b036139aa6139b8565b165f52600183525f20548152f35b600435906001600160a01b038216820361034857565b602435906001600160a01b038216820361034857565b604081019081106001600160401b038211176139ff57604052565b634e487b7160e01b5f52604160045260245ffd5b608081019081106001600160401b038211176139ff57604052565b602081019081106001600160401b038211176139ff57604052565b90601f801991011681019081106001600160401b038211176139ff57604052565b6001600160401b0381116139ff5760051b60200190565b9080601f83011215610348576020908235613a9b81613a6a565b93613aa96040519586613a49565b81855260208086019260051b82010192831161034857602001905b828210613ad2575050505090565b81358152908301908301613ac4565b9291926001600160401b0382116139ff5760405191613b0a601f8201601f191660200184613a49565b829481845281830111610348578281602093845f960137010152565b9080601f8301121561034857816020613b4193359101613ae1565b90565b6060600319820112610348576001600160401b03916004358381116103485782613b7091600401613a81565b9260249283356001600160a01b03811681036103485793604435928084116103485782602385011215610348578360040135613bab81613a6a565b94613bb96040519687613a49565b8186526020946024602088019360051b830101948186116103485760248301935b868510613bec57505050505050505090565b8435868111610348578891613c0685858594890101613b26565b815201940193613bda565b60209060206040818301928281528551809452019301915f5b828110613c38575050505090565b835185529381019392810192600101613c2a565b6040906003190112610348576004359060243560038110156103485790565b604060031982011261034857600435906001600160401b03821161034857613c9591600401613a81565b9060243590565b606060031982011261034857600435916024356001600160a01b03811681036103485791604435906001600160401b03821161034857613b4191600401613b26565b6040906003190112610348576004359060243590565b90600182811c92168015613d22575b6020831014613d0e57565b634e487b7160e01b5f52602260045260245ffd5b91607f1691613d03565b9060405191825f8254613d3e81613cf4565b908184526020946001916001811690815f14613dac5750600114613d6e575b505050613d6c92500383613a49565b565b5f90815285812095935091905b818310613d94575050613d6c93508201015f8080613d5d565b85548884018501529485019487945091830191613d7b565b92505050613d6c94925060ff191682840152151560051b8201015f8080613d5d565b91908251928382525f5b848110613df8575050825f602080949584010152601f8019910116010190565b602081830181015184830182015201613dd8565b90613e24602091949394604084526040840190613dce565b931515910152565b8054821015613e41575f5260205f2001905f90565b634e487b7160e01b5f52603260045260245ffd5b906006821015613e625752565b634e487b7160e01b5f52602160045260245ffd5b906003821015613e625752565b90929160408201936004811015613e62578252613d6c9160200190613e76565b15613eaa57565b60405162461bcd60e51b81526020600482015260146024820152732737ba1030b71030b1ba34bb329036b2b6b132b960611b6044820152606490fd5b15613eed57565b60405162461bcd60e51b8152602060048201526015602482015274082e4e4c2f240d8cadccee8d040dad2e6dac2e8c6d605b1b6044820152606490fd5b15613f3157565b60405162461bcd60e51b815260206004820152601c60248201527f5461726765742077616c6c6574206e6f742072656769737465726564000000006044820152606490fd5b6001600160a01b039091165f90815260016020526040902054908115613fc757613fa8613fa161430b565b8383614a43565b918215613fb457505090565b613b419250613fc161432c565b91614a43565b50505f90565b15613fd457565b60405162461bcd60e51b8152602060048201526013602482015272139bc81c9958dbdc991cc81c1c9bdd9a591959606a1b6044820152606490fd5b8054600160401b8110156139ff5761402c91600182018155613e2c565b60018060a09493941b038084549260031b9316831b921b1916179055565b600454600160401b8110156139ff576001810180600455811015613e415760045f527f8a35acfbc15ff81a39ae7d344fd709f28e8600b4aa8c65c6b64bfe7fe36bd19b0155565b805490600160401b8210156139ff57816140b39160016140c994018155613e2c565b819391549060031b91821b915f19901b19161790565b9055565b5f1981146140db5760010190565b634e487b7160e01b5f52601160045260245ffd5b8051821015613e415760209160051b010190565b60405190614110826139e4565b60068252653b34b2bbb2b960d11b6020830152565b1561412c57565b60405162461bcd60e51b815260206004820152600a60248201526927b7363c9030b236b4b760b11b6044820152606490fd5b1561416557565b60405162461bcd60e51b815260206004820152601560248201527415d85b1b195d081b9bdd081c9959da5cdd195c9959605a1b6044820152606490fd5b6004821015613e625752565b6003821015613e625752565b906003811015613e625761ff0082549160081b169061ff001916179055565b156141e057565b60405162461bcd60e51b815260206004820152601e60248201527f5265636f726420494420686173682063616e6e6f7420626520656d70747900006044820152606490fd5b1561422c57565b60405162461bcd60e51b815260206004820152601d60248201527f57616c6c657420616464726573732063616e6e6f74206265207a65726f0000006044820152606490fd5b1561427857565b60405162461bcd60e51b8152602060048201526013602482015272496e76616c696420726f6c6520737472696e6760681b6044820152606490fd5b156142ba57565b60405162461bcd60e51b815260206004820152602360248201527f54617267657420646f6573206e6f74206861766520616e2061637469766520726044820152626f6c6560e81b6064820152608490fd5b60405190614318826139e4565b600582526437bbb732b960d91b6020830152565b60405190614339826139e4565b600d82526c30b236b4b734b9ba3930ba37b960991b6020830152565b93929161437e90614370604093606088526060880190613dce565b908682036020880152613dce565b930152565b919060018060a01b03165f52600160205260405f205480156143a857613b4192614a43565b5050505f90565b6001600160a01b039091165f9081526001602052604090205490811561441157602092916143dc916148de565b5f526006825260405f206040516143f2816139e4565b60ff60016143ff84613d2c565b93848452015416151593849101529190565b505060405161441f81613a2e565b5f8152905f90565b1561442e57565b60405162461bcd60e51b8152602060048201526016602482015275496e76616c69642077616c6c6574206164647265737360501b6044820152606490fd5b1561447357565b60405162461bcd60e51b8152602060048201526014602482015273092dcecc2d8d2c840eae6cae440928840d0c2e6d60631b6044820152606490fd5b156144b657565b60405162461bcd60e51b815260206004820152601960248201527f57616c6c657420616c72656164792072656769737465726564000000000000006044820152606490fd5b1561450257565b60405162461bcd60e51b815260206004820152600f60248201526e496e76616c6964206164647265737360881b6044820152606490fd5b1561454057565b60405162461bcd60e51b815260206004820152601e60248201527f4e6f2061637469766520747275737465652072656c6174696f6e7368697000006044820152606490fd5b6001600160a01b039091165f908152600160205260409020548015613fc7576145ad916148de565b5f52600660205260ff600160405f2001541690565b6001600160a01b03165f908152600160205260409020805490811590811561463a575b50614635575f52600260205260ff60405f20541660068110159081613e625760028114918215614628575b821561461b57505090565b909150613e625760041490565b506003811491505f614610565b505f90565b60ff91506001015416155f6145e5565b9392935f5b81518110156146b757806146686123ef600193876140ef565b156146b25761467b8761044683866140ef565b156146b25761468e8461044683866140ef565b6146b2576146ac876146a083866140ef565b5186612462858a6140ef565b0161464f565b6146ac565b505050509050565b906145ad916148de565b9291926146d682826148de565b93845f52602060068152604090815f20966146f088613d2c565b978851159160ff600180930154169185519061470b826139e4565b878252858201818152835f5260068752875f2092518051906001600160401b0382116139ff5761473b8554613cf4565b601f8111614898575b508890601f831160011461484a5761478995949392915f9183611e5e5750505f19600383901b1c191690831b17835551151591019060ff801983541691151516179055565b5f52600d835287845f2055155f1461481557859697506147cc8486977ff9d17eb1340ab78960b594ff8bed1349985b800ee21199c6d5ea4a67454593ad97614c2e565b6147ef575b6147e48251938385948552840190613dce565b9042908301520390a4565b855f52600a815261480285835f20614091565b61480d600b546140cd565b600b556147d1565b50919450508451818601209084519085012003614833575b50505050565b611e59614841948383614912565b5f80808061482d565b90601f19831691865f528a5f20925f5b8c828210614884575050918695949291836147899998959310611ea457505050811b018355611d99565b83850151865594880194938401930161485a565b855f52895f20601f840160051c8101918b85106148d4575b601f0160051c019085905b8281106148c9575050614744565b5f81550185906148bb565b90915081906148b0565b906040519060208201928352604082015260408152606081018181106001600160401b038211176139ff5760405251902090565b825160208094012061492261430b565b80519085012081036149425750613d6c926007915f525260405f20614cb1565b61494a61432c565b805190850120810361496a5750613d6c926008915f525260405f20614cb1565b614972614103565b8481519101201461498257505050565b613d6c926009915f525260405f20614cb1565b6001600160a01b03165f90815260016020526040902080549081159081156149db575b50614635575f52600260205260ff60405f2054166006811015613e625760041490565b60ff91506001015416155f6149b8565b602081519101206149fa61430b565b602081519101208114908115614a2a575b8115614a15575090565b9050614a1f614103565b602081519101201490565b9050614a3461432c565b60208151910120811490614a0b565b60209291614a50916148de565b5f526006825260405f20604051614a66816139e4565b60ff6001614a7384613d2c565b938484520154161515938491015282614a8b57505090565b9091506020815191012090602081519101201490565b600c546001600160a01b03169182156143a8576044602092604051948593849263193d8e7560e21b8452600484015260248301525afa908115614b20575f91614ae8575090565b90506020813d602011614b18575b81614b0360209383613a49565b81010312610348575180151581036103485790565b3d9150614af6565b6040513d5f823e3d90fd5b6003831015613e62578215614b7657600191614b4691614bd7565b9114614b4f5790565b80516020820120614b5e61430b565b6020815191012014614b6d5790565b50613b4161432c565b505050613b41614103565b6001600160a01b03165f9081526001602052604090208054908115908115614bc7575b50614635575f52600260205260ff60405f2054166006811015613e625760031490565b60ff91506001015416155f614ba4565b90614be1916148de565b5f52600660205260405f2060ff600160405192614bfd846139e4565b614c0681613d2c565b84520154161580156020830152614c1b575190565b50604051614c2881613a2e565b5f815290565b8251602080940120614c3e61430b565b8051908501208103614c5e5750613d6c926007915f525260405f20614091565b614c6661432c565b8051908501208103614c865750613d6c926008915f525260405f20614091565b614c8e614103565b84815191012014614c9e57505050565b613d6c926009915f525260405f20614091565b5f5b8154908181101561482d578391614cca8285613e2c565b959054600396871b1c14614ce45750909250600101614cb3565b5f1992508281019081116140db576140b3614d02614d0f9286613e2c565b905490871b1c9285613e2c565b905581548015614d3457810192614d268484613e2c565b81939154921b1b1916905555565b634e487b7160e01b5f52603160045260245ffd5b905f8091602081519101845af48080614dc6575b15614d7c5750506040513d81523d5f602083013e60203d82010160405290565b15614da357604051639996b31560e01b81526001600160a01b039091166004820152602490fd5b3d15614db4576040513d5f823e3d90fd5b60405163d6bda27560e01b8152600490fd5b503d151580614d5c5750813b1515614d5c56fea26469706673582212209d6c68b818ab0535a390bc40fdd79f1421d1cd8f222021ef1203ac14499db0f064736f6c63430008180033",
  "linkReferences": {},
  "deployedLinkReferences": {}
}