{
  "_format": "hh-sol-artifact-1",
  "contractName": "MemberRoleManager",
  "sourceName": "smartContracts/MemberRoleManager.sol",
  "abi": [
    {
      "inputs": [],
      "stateMutability": "nonpayable",
      "type": "constructor"
    },
    {
      "inputs": [
        {
          "internalType": "address",
          "name": "target",
          "type": "address"
        }
      ],
      "name": "AddressEmptyCode",
      "type": "error"
    },
    {
      "inputs": [
        {
          "internalType": "address",
          "name": "implementation",
          "type": "address"
        }
      ],
      "name": "ERC1967InvalidImplementation",
      "type": "error"
    },
    {
      "inputs": [],
      "name": "ERC1967NonPayable",
      "type": "error"
    },
    {
      "inputs": [],
      "name": "FailedCall",
      "type": "error"
    },
    {
      "inputs": [],
      "name": "InvalidInitialization",
      "type": "error"
    },
    {
      "inputs": [],
      "name": "NotInitializing",
      "type": "error"
    },
    {
      "inputs": [],
      "name": "UUPSUnauthorizedCallContext",
      "type": "error"
    },
    {
      "inputs": [
        {
          "internalType": "bytes32",
          "name": "slot",
          "type": "bytes32"
        }
      ],
      "name": "UUPSUnsupportedProxiableUUID",
      "type": "error"
    },
    {
      "anonymous": false,
      "inputs": [
        {
          "indexed": true,
          "internalType": "address",
          "name": "oldAdmin",
          "type": "address"
        },
        {
          "indexed": true,
          "internalType": "address",
          "name": "newAdmin",
          "type": "address"
        },
        {
          "indexed": false,
          "internalType": "uint256",
          "name": "timestamp",
          "type": "uint256"
        }
      ],
      "name": "AdminTransferred",
      "type": "event"
    },
    {
      "anonymous": false,
      "inputs": [
        {
          "indexed": true,
          "internalType": "string",
          "name": "recordId",
          "type": "string"
        },
        {
          "indexed": true,
          "internalType": "bytes32",
          "name": "grantedByIdHash",
          "type": "bytes32"
        },
        {
          "indexed": true,
          "internalType": "bytes32",
          "name": "guestIdHash",
          "type": "bytes32"
        },
        {
          "indexed": false,
          "internalType": "bytes32",
          "name": "guestEmailHash",
          "type": "bytes32"
        },
        {
          "indexed": false,
          "internalType": "uint256",
          "name": "expiresAt",
          "type": "uint256"
        },
        {
          "indexed": false,
          "internalType": "uint256",
          "name": "timestamp",
          "type": "uint256"
        }
      ],
      "name": "GuestAccessGranted",
      "type": "event"
    },
    {
      "anonymous": false,
      "inputs": [
        {
          "indexed": true,
          "internalType": "string",
          "name": "recordId",
          "type": "string"
        },
        {
          "indexed": true,
          "internalType": "bytes32",
          "name": "revokedByIdHash",
          "type": "bytes32"
        },
        {
          "indexed": true,
          "internalType": "bytes32",
          "name": "guestIdHash",
          "type": "bytes32"
        },
        {
          "indexed": false,
          "internalType": "uint256",
          "name": "timestamp",
          "type": "uint256"
        }
      ],
      "name": "GuestAccessRevoked",
      "type": "event"
    },
    {
      "anonymous": false,
      "inputs": [
        {
          "indexed": true,
          "internalType": "address",
          "name": "newAddress",
          "type": "address"
        },
        {
          "indexed": false,
          "internalType": "uint256",
          "name": "timestamp",
          "type": "uint256"
        }
      ],
      "name": "HealthRecordCoreUpdated",
      "type": "event"
    },
    {
      "anonymous": false,
      "inputs": [
        {
          "indexed": false,
          "internalType": "uint64",
          "name": "version",
          "type": "uint64"
        }
      ],
      "name": "Initialized",
      "type": "event"
    },
    {
      "anonymous": false,
      "inputs": [
        {
          "indexed": true,
          "internalType": "address",
          "name": "wallet",
          "type": "address"
        },
        {
          "indexed": true,
          "internalType": "bytes32",
          "name": "userIdHash",
          "type": "bytes32"
        },
        {
          "indexed": false,
          "internalType": "uint256",
          "name": "timestamp",
          "type": "uint256"
        }
      ],
      "name": "MemberRegistered",
      "type": "event"
    },
    {
      "anonymous": false,
      "inputs": [
        {
          "indexed": true,
          "internalType": "bytes32",
          "name": "userIdHash",
          "type": "bytes32"
        },
        {
          "indexed": false,
          "internalType": "enum MemberRoleManager.MemberStatus",
          "name": "oldStatus",
          "type": "uint8"
        },
        {
          "indexed": false,
          "internalType": "enum MemberRoleManager.MemberStatus",
          "name": "newStatus",
          "type": "uint8"
        },
        {
          "indexed": true,
          "internalType": "address",
          "name": "changedBy",
          "type": "address"
        },
        {
          "indexed": false,
          "internalType": "uint256",
          "name": "timestamp",
          "type": "uint256"
        }
      ],
      "name": "MemberStatusChanged",
      "type": "event"
    },
    {
      "anonymous": false,
      "inputs": [
        {
          "indexed": true,
          "internalType": "string",
          "name": "recordId",
          "type": "string"
        },
        {
          "indexed": true,
          "internalType": "bytes32",
          "name": "userIdHash",
          "type": "bytes32"
        },
        {
          "indexed": false,
          "internalType": "uint256",
          "name": "timestamp",
          "type": "uint256"
        }
      ],
      "name": "OwnershipVoluntarilyLeft",
      "type": "event"
    },
    {
      "anonymous": false,
      "inputs": [
        {
          "indexed": true,
          "internalType": "string",
          "name": "recordId",
          "type": "string"
        },
        {
          "indexed": true,
          "internalType": "bytes32",
          "name": "targetIdHash",
          "type": "bytes32"
        },
        {
          "indexed": false,
          "internalType": "string",
          "name": "oldRole",
          "type": "string"
        },
        {
          "indexed": false,
          "internalType": "string",
          "name": "newRole",
          "type": "string"
        },
        {
          "indexed": true,
          "internalType": "bytes32",
          "name": "userIdHash",
          "type": "bytes32"
        },
        {
          "indexed": false,
          "internalType": "uint256",
          "name": "timestamp",
          "type": "uint256"
        }
      ],
      "name": "RoleChanged",
      "type": "event"
    },
    {
      "anonymous": false,
      "inputs": [
        {
          "indexed": true,
          "internalType": "string",
          "name": "recordId",
          "type": "string"
        },
        {
          "indexed": true,
          "internalType": "bytes32",
          "name": "targetIdHash",
          "type": "bytes32"
        },
        {
          "indexed": false,
          "internalType": "string",
          "name": "role",
          "type": "string"
        },
        {
          "indexed": true,
          "internalType": "bytes32",
          "name": "userIdHash",
          "type": "bytes32"
        },
        {
          "indexed": false,
          "internalType": "uint256",
          "name": "timestamp",
          "type": "uint256"
        }
      ],
      "name": "RoleGranted",
      "type": "event"
    },
    {
      "anonymous": false,
      "inputs": [
        {
          "indexed": true,
          "internalType": "string",
          "name": "recordId",
          "type": "string"
        },
        {
          "indexed": true,
          "internalType": "bytes32",
          "name": "targetIdHash",
          "type": "bytes32"
        },
        {
          "indexed": false,
          "internalType": "string",
          "name": "role",
          "type": "string"
        },
        {
          "indexed": true,
          "internalType": "bytes32",
          "name": "userIdHash",
          "type": "bytes32"
        },
        {
          "indexed": false,
          "internalType": "uint256",
          "name": "timestamp",
          "type": "uint256"
        }
      ],
      "name": "RoleRevoked",
      "type": "event"
    },
    {
      "anonymous": false,
      "inputs": [
        {
          "indexed": true,
          "internalType": "bytes32",
          "name": "trustorIdHash",
          "type": "bytes32"
        },
        {
          "indexed": true,
          "internalType": "bytes32",
          "name": "trusteeIdHash",
          "type": "bytes32"
        },
        {
          "indexed": false,
          "internalType": "enum MemberRoleManager.TrusteeLevel",
          "name": "level",
          "type": "uint8"
        },
        {
          "indexed": false,
          "internalType": "uint256",
          "name": "timestamp",
          "type": "uint256"
        }
      ],
      "name": "TrusteeAccepted",
      "type": "event"
    },
    {
      "anonymous": false,
      "inputs": [
        {
          "indexed": true,
          "internalType": "bytes32",
          "name": "trustorIdHash",
          "type": "bytes32"
        },
        {
          "indexed": true,
          "internalType": "bytes32",
          "name": "trusteeIdHash",
          "type": "bytes32"
        },
        {
          "indexed": false,
          "internalType": "enum MemberRoleManager.TrusteeLevel",
          "name": "oldLevel",
          "type": "uint8"
        },
        {
          "indexed": false,
          "internalType": "enum MemberRoleManager.TrusteeLevel",
          "name": "newLevel",
          "type": "uint8"
        },
        {
          "indexed": false,
          "internalType": "uint256",
          "name": "timestamp",
          "type": "uint256"
        }
      ],
      "name": "TrusteeLevelUpdated",
      "type": "event"
    },
    {
      "anonymous": false,
      "inputs": [
        {
          "indexed": true,
          "internalType": "bytes32",
          "name": "trustorIdHash",
          "type": "bytes32"
        },
        {
          "indexed": true,
          "internalType": "bytes32",
          "name": "trusteeIdHash",
          "type": "bytes32"
        },
        {
          "indexed": false,
          "internalType": "enum MemberRoleManager.TrusteeLevel",
          "name": "level",
          "type": "uint8"
        },
        {
          "indexed": false,
          "internalType": "uint256",
          "name": "timestamp",
          "type": "uint256"
        }
      ],
      "name": "TrusteeProposed",
      "type": "event"
    },
    {
      "anonymous": false,
      "inputs": [
        {
          "indexed": true,
          "internalType": "bytes32",
          "name": "trustorIdHash",
          "type": "bytes32"
        },
        {
          "indexed": true,
          "internalType": "bytes32",
          "name": "trusteeIdHash",
          "type": "bytes32"
        },
        {
          "indexed": true,
          "internalType": "bytes32",
          "name": "revokedBy",
          "type": "bytes32"
        },
        {
          "indexed": false,
          "internalType": "uint256",
          "name": "timestamp",
          "type": "uint256"
        }
      ],
      "name": "TrusteeRevoked",
      "type": "event"
    },
    {
      "anonymous": false,
      "inputs": [
        {
          "indexed": true,
          "internalType": "address",
          "name": "implementation",
          "type": "address"
        }
      ],
      "name": "Upgraded",
      "type": "event"
    },
    {
      "anonymous": false,
      "inputs": [
        {
          "indexed": true,
          "internalType": "address",
          "name": "wallet",
          "type": "address"
        },
        {
          "indexed": true,
          "internalType": "bytes32",
          "name": "userIdHash",
          "type": "bytes32"
        },
        {
          "indexed": false,
          "internalType": "uint256",
          "name": "timestamp",
          "type": "uint256"
        }
      ],
      "name": "WalletLinked",
      "type": "event"
    },
    {
      "inputs": [],
      "name": "UPGRADE_INTERFACE_VERSION",
      "outputs": [
        {
          "internalType": "string",
          "name": "",
          "type": "string"
        }
      ],
      "stateMutability": "view",
      "type": "function"
    },
    {
      "inputs": [
        {
          "internalType": "bytes32",
          "name": "trustorIdHash",
          "type": "bytes32"
        }
      ],
      "name": "acceptTrustee",
      "outputs": [],
      "stateMutability": "nonpayable",
      "type": "function"
    },
    {
      "inputs": [
        {
          "internalType": "address",
          "name": "wallet",
          "type": "address"
        },
        {
          "internalType": "bytes32",
          "name": "userIdHash",
          "type": "bytes32"
        }
      ],
      "name": "addMember",
      "outputs": [],
      "stateMutability": "nonpayable",
      "type": "function"
    },
    {
      "inputs": [],
      "name": "admin",
      "outputs": [
        {
          "internalType": "address",
          "name": "",
          "type": "address"
        }
      ],
      "stateMutability": "view",
      "type": "function"
    },
    {
      "inputs": [
        {
          "internalType": "string",
          "name": "",
          "type": "string"
        },
        {
          "internalType": "uint256",
          "name": "",
          "type": "uint256"
        }
      ],
      "name": "adminsByRecord",
      "outputs": [
        {
          "internalType": "bytes32",
          "name": "",
          "type": "bytes32"
        }
      ],
      "stateMutability": "view",
      "type": "function"
    },
    {
      "inputs": [
        {
          "internalType": "string",
          "name": "recordId",
          "type": "string"
        },
        {
          "internalType": "address",
          "name": "targetWallet",
          "type": "address"
        },
        {
          "internalType": "string",
          "name": "newRole",
          "type": "string"
        }
      ],
      "name": "changeRole",
      "outputs": [],
      "stateMutability": "nonpayable",
      "type": "function"
    },
    {
      "inputs": [
        {
          "internalType": "string[]",
          "name": "recordIds",
          "type": "string[]"
        },
        {
          "internalType": "address",
          "name": "targetWallet",
          "type": "address"
        },
        {
          "internalType": "string[]",
          "name": "newRoles",
          "type": "string[]"
        }
      ],
      "name": "changeRoleBatch",
      "outputs": [],
      "stateMutability": "nonpayable",
      "type": "function"
    },
    {
      "inputs": [
        {
          "internalType": "address",
          "name": "wallet",
          "type": "address"
        }
      ],
      "name": "deactivateWallet",
      "outputs": [],
      "stateMutability": "nonpayable",
      "type": "function"
    },
    {
      "inputs": [],
      "name": "getAllUsers",
      "outputs": [
        {
          "internalType": "bytes32[]",
          "name": "",
          "type": "bytes32[]"
        }
      ],
      "stateMutability": "view",
      "type": "function"
    },
    {
      "inputs": [
        {
          "internalType": "string",
          "name": "recordId",
          "type": "string"
        },
        {
          "internalType": "bytes32",
          "name": "guestIdHash",
          "type": "bytes32"
        }
      ],
      "name": "getGuestAccess",
      "outputs": [
        {
          "internalType": "uint256",
          "name": "grantedAt",
          "type": "uint256"
        },
        {
          "internalType": "uint256",
          "name": "expiresAt",
          "type": "uint256"
        },
        {
          "internalType": "bytes32",
          "name": "grantedByIdHash",
          "type": "bytes32"
        },
        {
          "internalType": "bytes32",
          "name": "guestEmailHash",
          "type": "bytes32"
        }
      ],
      "stateMutability": "view",
      "type": "function"
    },
    {
      "inputs": [],
      "name": "getHealthRecordCore",
      "outputs": [
        {
          "internalType": "address",
          "name": "",
          "type": "address"
        }
      ],
      "stateMutability": "view",
      "type": "function"
    },
    {
      "inputs": [
        {
          "internalType": "string",
          "name": "recordId",
          "type": "string"
        }
      ],
      "name": "getRecordAdmins",
      "outputs": [
        {
          "internalType": "bytes32[]",
          "name": "",
          "type": "bytes32[]"
        }
      ],
      "stateMutability": "view",
      "type": "function"
    },
    {
      "inputs": [
        {
          "internalType": "string",
          "name": "recordId",
          "type": "string"
        }
      ],
      "name": "getRecordOwners",
      "outputs": [
        {
          "internalType": "bytes32[]",
          "name": "",
          "type": "bytes32[]"
        }
      ],
      "stateMutability": "view",
      "type": "function"
    },
    {
      "inputs": [
        {
          "internalType": "string",
          "name": "recordId",
          "type": "string"
        }
      ],
      "name": "getRecordRoleStats",
      "outputs": [
        {
          "internalType": "uint256",
          "name": "ownerCount",
          "type": "uint256"
        },
        {
          "internalType": "uint256",
          "name": "adminCount",
          "type": "uint256"
        },
        {
          "internalType": "uint256",
          "name": "viewerCount",
          "type": "uint256"
        }
      ],
      "stateMutability": "view",
      "type": "function"
    },
    {
      "inputs": [
        {
          "internalType": "string",
          "name": "recordId",
          "type": "string"
        }
      ],
      "name": "getRecordViewers",
      "outputs": [
        {
          "internalType": "bytes32[]",
          "name": "",
          "type": "bytes32[]"
        }
      ],
      "stateMutability": "view",
      "type": "function"
    },
    {
      "inputs": [
        {
          "internalType": "bytes32",
          "name": "userIdHash",
          "type": "bytes32"
        }
      ],
      "name": "getRecordsByUser",
      "outputs": [
        {
          "internalType": "string[]",
          "name": "",
          "type": "string[]"
        }
      ],
      "stateMutability": "view",
      "type": "function"
    },
    {
      "inputs": [
        {
          "internalType": "string",
          "name": "recordId",
          "type": "string"
        },
        {
          "internalType": "address",
          "name": "wallet",
          "type": "address"
        }
      ],
      "name": "getRoleDetails",
      "outputs": [
        {
          "internalType": "string",
          "name": "role",
          "type": "string"
        },
        {
          "internalType": "bool",
          "name": "isActive",
          "type": "bool"
        }
      ],
      "stateMutability": "view",
      "type": "function"
    },
    {
      "inputs": [
        {
          "internalType": "string",
          "name": "recordId",
          "type": "string"
        },
        {
          "internalType": "bytes32",
          "name": "userIdHash",
          "type": "bytes32"
        }
      ],
      "name": "getRoleDetailsByUser",
      "outputs": [
        {
          "internalType": "string",
          "name": "role",
          "type": "string"
        },
        {
          "internalType": "bool",
          "name": "isActive",
          "type": "bool"
        }
      ],
      "stateMutability": "view",
      "type": "function"
    },
    {
      "inputs": [
        {
          "internalType": "string",
          "name": "recordId",
          "type": "string"
        },
        {
          "internalType": "bytes32",
          "name": "userIdHash",
          "type": "bytes32"
        }
      ],
      "name": "getRoleGranter",
      "outputs": [
        {
          "internalType": "bytes32",
          "name": "",
          "type": "bytes32"
        }
      ],
      "stateMutability": "view",
      "type": "function"
    },
    {
      "inputs": [],
      "name": "getTotalRoles",
      "outputs": [
        {
          "internalType": "uint256",
          "name": "",
          "type": "uint256"
        }
      ],
      "stateMutability": "view",
      "type": "function"
    },
    {
      "inputs": [],
      "name": "getTotalUsers",
      "outputs": [
        {
          "internalType": "uint256",
          "name": "",
          "type": "uint256"
        }
      ],
      "stateMutability": "view",
      "type": "function"
    },
    {
      "inputs": [
        {
          "internalType": "bytes32",
          "name": "trustorIdHash",
          "type": "bytes32"
        },
        {
          "internalType": "bytes32",
          "name": "trusteeIdHash",
          "type": "bytes32"
        }
      ],
      "name": "getTrusteeRelationship",
      "outputs": [
        {
          "internalType": "enum MemberRoleManager.TrusteeStatus",
          "name": "status",
          "type": "uint8"
        },
        {
          "internalType": "enum MemberRoleManager.TrusteeLevel",
          "name": "level",
          "type": "uint8"
        }
      ],
      "stateMutability": "view",
      "type": "function"
    },
    {
      "inputs": [
        {
          "internalType": "address",
          "name": "wallet",
          "type": "address"
        }
      ],
      "name": "getUserForWallet",
      "outputs": [
        {
          "internalType": "bytes32",
          "name": "",
          "type": "bytes32"
        }
      ],
      "stateMutability": "view",
      "type": "function"
    },
    {
      "inputs": [
        {
          "internalType": "bytes32",
          "name": "userIdHash",
          "type": "bytes32"
        }
      ],
      "name": "getUserStatus",
      "outputs": [
        {
          "internalType": "enum MemberRoleManager.MemberStatus",
          "name": "status",
          "type": "uint8"
        }
      ],
      "stateMutability": "view",
      "type": "function"
    },
    {
      "inputs": [
        {
          "internalType": "bytes32",
          "name": "userIdHash",
          "type": "bytes32"
        }
      ],
      "name": "getWalletsForUser",
      "outputs": [
        {
          "internalType": "address[]",
          "name": "",
          "type": "address[]"
        }
      ],
      "stateMutability": "view",
      "type": "function"
    },
    {
      "inputs": [
        {
          "internalType": "string[]",
          "name": "recordIds",
          "type": "string[]"
        },
        {
          "internalType": "address",
          "name": "guestWallet",
          "type": "address"
        },
        {
          "internalType": "bytes32",
          "name": "guestIdHash",
          "type": "bytes32"
        },
        {
          "internalType": "bytes32",
          "name": "guestEmailHash",
          "type": "bytes32"
        },
        {
          "internalType": "uint256",
          "name": "durationSeconds",
          "type": "uint256"
        }
      ],
      "name": "grantGuestAccess",
      "outputs": [],
      "stateMutability": "nonpayable",
      "type": "function"
    },
    {
      "inputs": [
        {
          "internalType": "string",
          "name": "recordId",
          "type": "string"
        },
        {
          "internalType": "address",
          "name": "targetWallet",
          "type": "address"
        },
        {
          "internalType": "string",
          "name": "role",
          "type": "string"
        }
      ],
      "name": "grantRole",
      "outputs": [],
      "stateMutability": "nonpayable",
      "type": "function"
    },
    {
      "inputs": [
        {
          "internalType": "string[]",
          "name": "recordIds",
          "type": "string[]"
        },
        {
          "internalType": "bytes32",
          "name": "trustorIdHash",
          "type": "bytes32"
        }
      ],
      "name": "grantRoleAsTrusteeBatch",
      "outputs": [],
      "stateMutability": "nonpayable",
      "type": "function"
    },
    {
      "inputs": [
        {
          "internalType": "string[]",
          "name": "recordIds",
          "type": "string[]"
        },
        {
          "internalType": "address",
          "name": "targetWallet",
          "type": "address"
        },
        {
          "internalType": "string[]",
          "name": "roles",
          "type": "string[]"
        }
      ],
      "name": "grantRoleBatch",
      "outputs": [],
      "stateMutability": "nonpayable",
      "type": "function"
    },
    {
      "inputs": [
        {
          "internalType": "string",
          "name": "",
          "type": "string"
        },
        {
          "internalType": "bytes32",
          "name": "",
          "type": "bytes32"
        }
      ],
      "name": "guestAccessByRecord",
      "outputs": [
        {
          "internalType": "uint256",
          "name": "grantedAt",
          "type": "uint256"
        },
        {
          "internalType": "uint256",
          "name": "expiresAt",
          "type": "uint256"
        },
        {
          "internalType": "bytes32",
          "name": "grantedByIdHash",
          "type": "bytes32"
        },
        {
          "internalType": "bytes32",
          "name": "guestEmailHash",
          "type": "bytes32"
        }
      ],
      "stateMutability": "view",
      "type": "function"
    },
    {
      "inputs": [
        {
          "internalType": "string",
          "name": "recordId",
          "type": "string"
        },
        {
          "internalType": "bytes32",
          "name": "guestIdHash",
          "type": "bytes32"
        }
      ],
      "name": "hasActiveGuestAccess",
      "outputs": [
        {
          "internalType": "bool",
          "name": "",
          "type": "bool"
        }
      ],
      "stateMutability": "view",
      "type": "function"
    },
    {
      "inputs": [
        {
          "internalType": "string",
          "name": "recordId",
          "type": "string"
        },
        {
          "internalType": "address",
          "name": "wallet",
          "type": "address"
        }
      ],
      "name": "hasActiveRole",
      "outputs": [
        {
          "internalType": "bool",
          "name": "",
          "type": "bool"
        }
      ],
      "stateMutability": "view",
      "type": "function"
    },
    {
      "inputs": [
        {
          "internalType": "string",
          "name": "recordId",
          "type": "string"
        },
        {
          "internalType": "address",
          "name": "wallet",
          "type": "address"
        },
        {
          "internalType": "string",
          "name": "role",
          "type": "string"
        }
      ],
      "name": "hasRole",
      "outputs": [
        {
          "internalType": "bool",
          "name": "",
          "type": "bool"
        }
      ],
      "stateMutability": "view",
      "type": "function"
    },
    {
      "inputs": [],
      "name": "healthRecordCore",
      "outputs": [
        {
          "internalType": "contract HealthRecordCoreInterface",
          "name": "",
          "type": "address"
        }
      ],
      "stateMutability": "view",
      "type": "function"
    },
    {
      "inputs": [],
      "name": "initialize",
      "outputs": [],
      "stateMutability": "nonpayable",
      "type": "function"
    },
    {
      "inputs": [
        {
          "internalType": "string",
          "name": "recordId",
          "type": "string"
        },
        {
          "internalType": "address",
          "name": "targetWallet",
          "type": "address"
        },
        {
          "internalType": "string",
          "name": "role",
          "type": "string"
        }
      ],
      "name": "initializeRecordRole",
      "outputs": [],
      "stateMutability": "nonpayable",
      "type": "function"
    },
    {
      "inputs": [
        {
          "internalType": "address",
          "name": "wallet",
          "type": "address"
        }
      ],
      "name": "isActiveMember",
      "outputs": [
        {
          "internalType": "bool",
          "name": "",
          "type": "bool"
        }
      ],
      "stateMutability": "view",
      "type": "function"
    },
    {
      "inputs": [
        {
          "internalType": "string",
          "name": "recordId",
          "type": "string"
        },
        {
          "internalType": "bytes32",
          "name": "userIdHash",
          "type": "bytes32"
        }
      ],
      "name": "isActiveSubject",
      "outputs": [
        {
          "internalType": "bool",
          "name": "",
          "type": "bool"
        }
      ],
      "stateMutability": "view",
      "type": "function"
    },
    {
      "inputs": [
        {
          "internalType": "bytes32",
          "name": "trustorIdHash",
          "type": "bytes32"
        },
        {
          "internalType": "bytes32",
          "name": "trusteeIdHash",
          "type": "bytes32"
        }
      ],
      "name": "isControllerOf",
      "outputs": [
        {
          "internalType": "bool",
          "name": "",
          "type": "bool"
        }
      ],
      "stateMutability": "view",
      "type": "function"
    },
    {
      "inputs": [
        {
          "internalType": "string",
          "name": "recordId",
          "type": "string"
        },
        {
          "internalType": "address",
          "name": "wallet",
          "type": "address"
        }
      ],
      "name": "isOwnerOrAdmin",
      "outputs": [
        {
          "internalType": "bool",
          "name": "",
          "type": "bool"
        }
      ],
      "stateMutability": "view",
      "type": "function"
    },
    {
      "inputs": [
        {
          "internalType": "address",
          "name": "wallet",
          "type": "address"
        }
      ],
      "name": "isVerifiedMember",
      "outputs": [
        {
          "internalType": "bool",
          "name": "",
          "type": "bool"
        }
      ],
      "stateMutability": "view",
      "type": "function"
    },
    {
      "inputs": [
        {
          "internalType": "address",
          "name": "wallet",
          "type": "address"
        }
      ],
      "name": "isVerifiedProvider",
      "outputs": [
        {
          "internalType": "bool",
          "name": "",
          "type": "bool"
        }
      ],
      "stateMutability": "view",
      "type": "function"
    },
    {
      "inputs": [
        {
          "internalType": "string",
          "name": "",
          "type": "string"
        },
        {
          "internalType": "uint256",
          "name": "",
          "type": "uint256"
        }
      ],
      "name": "ownersByRecord",
      "outputs": [
        {
          "internalType": "bytes32",
          "name": "",
          "type": "bytes32"
        }
      ],
      "stateMutability": "view",
      "type": "function"
    },
    {
      "inputs": [
        {
          "internalType": "bytes32",
          "name": "trusteeIdHash",
          "type": "bytes32"
        },
        {
          "internalType": "enum MemberRoleManager.TrusteeLevel",
          "name": "level",
          "type": "uint8"
        }
      ],
      "name": "proposeTrustee",
      "outputs": [],
      "stateMutability": "nonpayable",
      "type": "function"
    },
    {
      "inputs": [],
      "name": "proxiableUUID",
      "outputs": [
        {
          "internalType": "bytes32",
          "name": "",
          "type": "bytes32"
        }
      ],
      "stateMutability": "view",
      "type": "function"
    },
    {
      "inputs": [
        {
          "internalType": "address",
          "name": "wallet",
          "type": "address"
        }
      ],
      "name": "reactivateWallet",
      "outputs": [],
      "stateMutability": "nonpayable",
      "type": "function"
    },
    {
      "inputs": [
        {
          "internalType": "bytes32",
          "name": "",
          "type": "bytes32"
        }
      ],
      "name": "recordRoles",
      "outputs": [
        {
          "internalType": "string",
          "name": "role",
          "type": "string"
        },
        {
          "internalType": "bool",
          "name": "isActive",
          "type": "bool"
        }
      ],
      "stateMutability": "view",
      "type": "function"
    },
    {
      "inputs": [
        {
          "internalType": "bytes32",
          "name": "",
          "type": "bytes32"
        },
        {
          "internalType": "uint256",
          "name": "",
          "type": "uint256"
        }
      ],
      "name": "recordsByUser",
      "outputs": [
        {
          "internalType": "string",
          "name": "",
          "type": "string"
        }
      ],
      "stateMutability": "view",
      "type": "function"
    },
    {
      "inputs": [
        {
          "internalType": "string[]",
          "name": "recordIds",
          "type": "string[]"
        },
        {
          "internalType": "bytes32",
          "name": "guestIdHash",
          "type": "bytes32"
        }
      ],
      "name": "revokeGuestAccess",
      "outputs": [],
      "stateMutability": "nonpayable",
      "type": "function"
    },
    {
      "inputs": [
        {
          "internalType": "string",
          "name": "recordId",
          "type": "string"
        },
        {
          "internalType": "address",
          "name": "targetWallet",
          "type": "address"
        }
      ],
      "name": "revokeRole",
      "outputs": [],
      "stateMutability": "nonpayable",
      "type": "function"
    },
    {
      "inputs": [
        {
          "internalType": "string[]",
          "name": "recordIds",
          "type": "string[]"
        },
        {
          "internalType": "address",
          "name": "targetWallet",
          "type": "address"
        }
      ],
      "name": "revokeRoleBatch",
      "outputs": [],
      "stateMutability": "nonpayable",
      "type": "function"
    },
    {
      "inputs": [
        {
          "internalType": "bytes32",
          "name": "trustorIdHash",
          "type": "bytes32"
        },
        {
          "internalType": "bytes32",
          "name": "trusteeIdHash",
          "type": "bytes32"
        }
      ],
      "name": "revokeTrustee",
      "outputs": [],
      "stateMutability": "nonpayable",
      "type": "function"
    },
    {
      "inputs": [
        {
          "internalType": "bytes32",
          "name": "",
          "type": "bytes32"
        }
      ],
      "name": "roleGrantedBy",
      "outputs": [
        {
          "internalType": "bytes32",
          "name": "",
          "type": "bytes32"
        }
      ],
      "stateMutability": "view",
      "type": "function"
    },
    {
      "inputs": [
        {
          "internalType": "address",
          "name": "_healthRecordCore",
          "type": "address"
        }
      ],
      "name": "setHealthRecordCore",
      "outputs": [],
      "stateMutability": "nonpayable",
      "type": "function"
    },
    {
      "inputs": [
        {
          "internalType": "bytes32",
          "name": "userIdHash",
          "type": "bytes32"
        },
        {
          "internalType": "enum MemberRoleManager.MemberStatus",
          "name": "newStatus",
          "type": "uint8"
        }
      ],
      "name": "setUserStatus",
      "outputs": [],
      "stateMutability": "nonpayable",
      "type": "function"
    },
    {
      "inputs": [],
      "name": "totalRoles",
      "outputs": [
        {
          "internalType": "uint256",
          "name": "",
          "type": "uint256"
        }
      ],
      "stateMutability": "view",
      "type": "function"
    },
    {
      "inputs": [],
      "name": "totalUsers",
      "outputs": [
        {
          "internalType": "uint256",
          "name": "",
          "type": "uint256"
        }
      ],
      "stateMutability": "view",
      "type": "function"
    },
    {
      "inputs": [
        {
          "internalType": "address",
          "name": "newAdmin",
          "type": "address"
        }
      ],
      "name": "transferAdmin",
      "outputs": [],
      "stateMutability": "nonpayable",
      "type": "function"
    },
    {
      "inputs": [
        {
          "internalType": "bytes32",
          "name": "",
          "type": "bytes32"
        },
        {
          "internalType": "bytes32",
          "name": "",
          "type": "bytes32"
        }
      ],
      "name": "trusteeRelationships",
      "outputs": [
        {
          "internalType": "enum MemberRoleManager.TrusteeStatus",
          "name": "status",
          "type": "uint8"
        },
        {
          "internalType": "enum MemberRoleManager.TrusteeLevel",
          "name": "level",
          "type": "uint8"
        }
      ],
      "stateMutability": "view",
      "type": "function"
    },
    {
      "inputs": [
        {
          "internalType": "bytes32",
          "name": "trusteeIdHash",
          "type": "bytes32"
        },
        {
          "internalType": "enum MemberRoleManager.TrusteeLevel",
          "name": "newLevel",
          "type": "uint8"
        }
      ],
      "name": "updateTrusteeLevel",
      "outputs": [],
      "stateMutability": "nonpayable",
      "type": "function"
    },
    {
      "inputs": [
        {
          "internalType": "address",
          "name": "newImplementation",
          "type": "address"
        },
        {
          "internalType": "bytes",
          "name": "data",
          "type": "bytes"
        }
      ],
      "name": "upgradeToAndCall",
      "outputs": [],
      "stateMutability": "payable",
      "type": "function"
    },
    {
      "inputs": [
        {
          "internalType": "uint256",
          "name": "",
          "type": "uint256"
        }
      ],
      "name": "userList",
      "outputs": [
        {
          "internalType": "bytes32",
          "name": "",
          "type": "bytes32"
        }
      ],
      "stateMutability": "view",
      "type": "function"
    },
    {
      "inputs": [
        {
          "internalType": "bytes32",
          "name": "",
          "type": "bytes32"
        }
      ],
      "name": "userStatus",
      "outputs": [
        {
          "internalType": "enum MemberRoleManager.MemberStatus",
          "name": "",
          "type": "uint8"
        }
      ],
      "stateMutability": "view",
      "type": "function"
    },
    {
      "inputs": [
        {
          "internalType": "bytes32",
          "name": "",
          "type": "bytes32"
        },
        {
          "internalType": "uint256",
          "name": "",
          "type": "uint256"
        }
      ],
      "name": "userWallets",
      "outputs": [
        {
          "internalType": "address",
          "name": "",
          "type": "address"
        }
      ],
      "stateMutability": "view",
      "type": "function"
    },
    {
      "inputs": [
        {
          "internalType": "string",
          "name": "",
          "type": "string"
        },
        {
          "internalType": "uint256",
          "name": "",
          "type": "uint256"
        }
      ],
      "name": "viewersByRecord",
      "outputs": [
        {
          "internalType": "bytes32",
          "name": "",
          "type": "bytes32"
        }
      ],
      "stateMutability": "view",
      "type": "function"
    },
    {
      "inputs": [
        {
          "internalType": "string",
          "name": "recordId",
          "type": "string"
        }
      ],
      "name": "voluntarilyLeaveOwnership",
      "outputs": [],
      "stateMutability": "nonpayable",
      "type": "function"
    },
    {
      "inputs": [
        {
          "internalType": "address",
          "name": "",
          "type": "address"
        }
      ],
      "name": "wallets",
      "outputs": [
        {
          "internalType": "bytes32",
          "name": "userIdHash",
          "type": "bytes32"
        },
        {
          "internalType": "bool",
          "name": "isWalletActive",
          "type": "bool"
        }
      ],
      "stateMutability": "view",
      "type": "function"
    }
  ],
  "bytecode": "0x60a08060405234620000d157306080527ff0c57e16840df040f15088dc2f81fe391c3923bec73e23a9662efc9c229c6a009081549060ff8260401c16620000c257506001600160401b036002600160401b0319828216016200007c575b604051614ef39081620000d68239608051818181612ae90152612c360152f35b6001600160401b031990911681179091556040519081527fc7f505b2f371ae2175ee4913f4499e1f2633a7b5936321eed1cdaeb6115181d290602090a15f80806200005c565b63f92ee8a960e01b8152600490fd5b5f80fdfe6080604081815260049182361015610015575f80fd5b5f3560e01c908162b0c8091461398f575080630b3ffd1d146138d25780631435b558146138b75780631a95aca5146138305780631b2c84f1146137d05780631c0c18d8146135a0578063259ed80e1461357b578063331055921461353e5780633575c391146132895780633dd1e8fc146132025780634001e7db1461306857806341d8bde314612fc857806345ecd02f14612fa357806349df720814612de35780634b6feb7c1461216d5780634f1ef28614612be6578063510b300314612b4d57806352d1902d14612ad6578063557ee54f14612a48578063562c788e146107265780636544b05b1461297c578063668a461e14612836578063679084e9146128105780636b4bed971461044b578063731f21a0146123c757806374926cda1461220957806375829def1461218b578063790e118c1461216d5780637b657d07146121305780638129fc1c1461201357806389b08f1114611fce5780638f913fd614611cb05780639443cd8014611c6a57806396207e0214611b2c578063970ee5b914611af85780639915b91f14611a6e5780639be572f6146111095780639f4216e814611a22578063a0ca13c314611a07578063a5c3dc3c146118ad578063ab48384a1461177f578063ad3cb1cc1461173b578063b55aefcc14611707578063b8cab84b1461162c578063bb0f86d514611575578063bb20b17214611127578063bff1f9e114611109578063c0f0ed7e146110aa578063c71558231461102e578063c979c9bf14610eca578063cabdd23f14610eaf578063cb261a0314610e8a578063cda06c6e14610e63578063d12a776814610db4578063daa9dc2314610842578063df349fd5146107ce578063e2842d791461074e578063e94ed25714610726578063e965bfb7146106d0578063eb2bbf25146106a7578063ed8d7b37146104d4578063ee4e58281461047c578063f29e007b1461044b578063f378d2b7146103b7578063f3ac2bea14610393578063f851a4401461036c5763fa7a6bcc146102ff575f80fd5b346103685761030d36613dfb565b905f52600a602052815f209081548110156103685761032b91613e5f565b929092610356575061033f61035292613bfd565b9051918291602083526020830190613c9f565b0390f35b5f90634e487b7160e01b82525260245ffd5b5f80fd5b5034610368575f366003190112610368575f5490516001600160a01b039091168152602090f35b5034610368576020906103ae6103a836613b54565b90614b64565b90519015158152f35b50346103685760206103df6103cb36613b54565b929081855193828580945193849201613b85565b8101600f815203019020905f52602052805f2090610352606082519361040485613a1e565b805493848652600182015495866020820152600360028401549384848401520154938491015251948594859094939260609260808301968352602083015260408201520152565b503461036857602036600319011261036857602091355f526002825261047a60ff825f20541691518092613e11565bf35b50346103685760209061049761049136613b54565b90614938565b5f5260068252610352815f209180516104af816139ef565b60ff60016104bc86613bfd565b95868452015416151594859101525192839283613cc4565b5034610368576020806003193601126103685782356001600160401b038111610368576105049036908501613aba565b61051081511515614019565b335f5260018252825f20549361052e6105276143a0565b8684614b06565b1561065857835161056c84600185519382818189019661054f81838a613b85565b810160078152030190205411928751809381928851928391613b85565b810160088152030190205415158115610650575b50156105f35750906105eb826105b7867f3bb3693064733b9a7d6d41bee69f302fcbefbe827ea4011400530c9ba9cb49c395614938565b6105c96105c26143a0565b8884614973565b5f52600683526001855f200160ff198154169055600d83525f85812055614164565b9251428152a3005b835162461bcd60e51b8152908101839052603160248201527f43616e6e6f74206c65617665206173206c617374206f776e65722077697468206044820152706e6f2061646d696e6973747261746f727360781b6064820152608490fd5b90505f610580565b835162461bcd60e51b8152908101839052602360248201527f596f7520617265206e6f7420616e206f776e6572206f662074686973207265636044820152621bdc9960ea1b6064820152608490fd5b503461036857610352906106c36106bd36613ad8565b90614517565b9290915192839283613cc4565b5034610368576020906106f96106e536613b54565b939081845193828580945193849201613b85565b8101600881520301902080548310156103685760209261071891613e5f565b91905490519160031b1c8152f35b5034610368575f36600319011261036857600c5490516001600160a01b039091168152602090f35b5034610368575f366003190112610368578051908183548082526020809201945f527f8a35acfbc15ff81a39ae7d344fd709f28e8600b4aa8c65c6b64bfe7fe36bd19b915f905b8282106107b75761035286866107ad828b0383613a54565b5191829182613b19565b835487529586019560019384019390910190610795565b503461036857602090816107e46103cb36613b54565b8101600f815203019020905f528252805f2090805161080281613a1e565b825490818152606060036001860154958688850152600281015486850152015491015215159182610837575b50519015158152f35b42111591508361082e565b5090346103685761085236613ce4565b93919061086661086133614599565b613f9f565b61087282511515614019565b6001600160a01b0316936108878515156142b0565b61089861089382614677565b6140aa565b335f5260209160018352835f2054955f52835f2054946108b98615156142fc565b825184840120936108ca8784614938565b805f52600682526108e360ff6001895f20015416614348565b5f52600681526108f4865f20613bfd565b94855182870120818114610d715761090a6143a0565b8381519101208114610cfc5787519185519284818189019561092d818389613b85565b810160078152030190205415918b831561096261095261094b6143a0565b848c614b06565b9261095b6143c1565b908b614b06565b9061096b6143a0565b8051908901208503610b465715610ae9575015610aa8575b61098b6143c1565b858151910120149081610a91575b506109f0575b50505050906109eb6109de836109d989858a7fea2c9ebe68919ddf880b3221d8d508d908163d0973e8b79df108f5d110d0c63399986147d6565b614164565b94519283924291846144bd565b0390a4005b6109fb575b8061099f565b610a12826001928951809381928951928391613b85565b81016008815203019020541115610a2957806109f5565b855162461bcd60e51b815291820152603960248201527f43616e6e6f742064656d6f746520746865206c6173742061646d696e6973747260448201527f61746f72207768656e206e6f206f776e65722065786973747300000000000000606482015260849150fd5b9050610a9b614142565b848151910120145f610999565b60648686808d519262461bcd60e51b845283015260248201527f4f6e6c79206f776e6572732063616e2070726f6d6f746520746f206f776e65726044820152fd5b905061098357895162461bcd60e51b8152808701869052602b60248201527f4f6e6c792061646d696e6973747261746f72732063616e2070726f6d6f74652060448201526a3334b939ba1037bbb732b960a91b6064820152608490fd5b610b4e6143c1565b8051908901208503610bd857508115610bd0575b5061098357895162461bcd60e51b8152808701869052603b60248201527f4f6e6c79206f776e65727320616e642061646d696e6973747261746f7273206360448201527f616e2070726f6d6f746520746f2061646d696e6973747261746f7200000000006064820152608490fd5b90505f610b62565b610be0614142565b8881519101208514610bf5575b505050610983565b15610ca2578115610c8b575b5015610c10575b5f8080610bed565b895162461bcd60e51b8152808701869052604960248201527f4f6e6c79206f776e6572732063616e2064656d6f7465206f74686572732e204160448201527f646d696e6973747261746f72732063616e206f6e6c792064656d6f746520746860648201526832b6b9b2b63b32b99760b91b608482015260a490fd5b905080610c99575b5f610c01565b508a8c14610c93565b9050610c0857895162461bcd60e51b8152808701869052602860248201527f4f6e6c792061646d696e6973747261746f72732063616e2064656d6f7465207460448201526737903b34b2bbb2b960c11b6064820152608490fd5b875162461bcd60e51b8152808501849052604360248201527f4f776e6572732063616e6e6f742062652064656d6f7465642e204f776e65722060448201527f6d75737420766f6c756e746172696c792072656d6f7665207468656d73656c7660648201526232b99760e91b608482015260a490fd5b875162461bcd60e51b8152808501849052601c60248201527f54617267657420616c726561647920686173207468697320726f6c65000000006044820152606490fd5b5090346103685760209081600319360112610368578290355f5260038252805f208151928381835491828152019081935f52825f20905f5b818110610e465750505084610e02910385613a54565b825181815293518185018190528493840192915f5b828110610e2657505050500390f35b83516001600160a01b031685528695509381019392810192600101610e17565b82546001600160a01b031684529284019260019283019201610dec565b503461036857602036600319011261036857602091355f52600d8252805f20549051908152f35b5034610368576020366003190112610368576020906103ae610eaa6139c3565b614c57565b5034610368576020906103ae610ec436613ce4565b916144eb565b503461036857610ed936613dfb565b91610ee661086133614599565b335f5260209060018252805f2054948386148015611025575b15610fe557835f52600e8352815f20855f52835260ff825f20541681811015610fd25760028114908115610fc7575b5015610f7c5750907f6df3a6475fab2eed139f7e469995b04e85bfc5b4b8642587109cb72541f74fae91835f52600e8252805f20855f528252805f20600360ff1982541617905551428152a4005b82608492519162461bcd60e51b8352820152602160248201527f4e6f20616374697665206f722070656e64696e672072656c6174696f6e7368696044820152600760fc1b6064820152fd5b60019150145f610f2e565b602182634e487b7160e01b5f525260245ffd5b8280606493519262461bcd60e51b845283015260248201527f4e6f74206120706172747920746f20746869732072656c6174696f6e736869706044820152fd5b50848614610eff565b5034610368576020366003190112610368577fce59ad7d6dabe8a7533ed7d9bd07d276a046ac7ac9a8e8e8971da4b81104a28b602061106b6139c3565b5f546001600160a01b0391906110849083163314613edf565b16926110918415156143ea565b600c80546001600160a01b0319168517905551428152a2005b503461036857611107906110bd36613e88565b9190926110cc61086133614599565b6110d98251845114614479565b335f9081526001602052818120546001600160a01b0390951681522054906111028215156142fc565b614a91565b005b5034610368575f366003190112610368576020906005549051908152f35b5090346103685761113736613ce4565b91929061114661086133614599565b61115284511515614019565b6001600160a01b0316926111678415156142b0565b61117361089384614677565b335f5260209160018352855f2054945f52855f2054926111948415156142fc565b8451818601206111a48785614938565b5f526006825260ff6001895f2001541615611534578751828186516111cc8183858b01613b85565b81016007815203019020541515906111ec6111e56143a0565b8987614b06565b916111ff6111f86143c1565b8a88614b06565b9161120a8a88614b64565b906112136143a0565b8051908701208103611351575050156112f75750156112b5575b6112378484614938565b5f526006815260ff6001885f2001541661125757505061110794506147d6565b865162461bcd60e51b815291820152603360248201527f54617267657420616c726561647920686173206120726f6c652e2055736520636044820152721a185b99d9549bdb194a0a481a5b9cdd195859606a1b606482015260849150fd5b865162461bcd60e51b815291820181905260248201527f4f6e6c79206f776e6572732063616e206772616e74206f776e657220726f6c65604482015260649150fd5b905061122d57865162461bcd60e51b815291820152602960248201527f4f6e6c792061646d696e6973747261746f72732063616e206772616e742066696044820152683939ba1037bbb732b960b91b606482015260849150fd5b90915061135c6143c1565b80519086012081036113e657505081156113de575b5061122d57865162461bcd60e51b815291820152603b60248201527f4f6e6c79206f776e65727320616e642061646d696e6973747261746f7273206360448201527f616e206772616e742061646d696e6973747261746f7220726f6c650000000000606482015260849150fd5b90505f611371565b6113f1939193614142565b85815191012014611405575b50505061122d565b8015908161152d575b8015611526575b156114bd57826114b5575b50816114ac575b50611435575b5f80806113fd565b61143f8684614c00565b5161142d57865162461bcd60e51b815291820152603c60248201527f5375626a656374206d757374206861766520616e2061637469766520726f6c6560448201527f20746f206772616e7420766965776572207065726d697373696f6e7300000000606482015260849150fd5b9050155f611427565b91505f611420565b895162461bcd60e51b8152808601859052603e60248201527f4f6e6c79206f776e6572732c2061646d696e6973747261746f72732c206f722060448201527f7375626a656374732063616e206772616e742076696577657220726f6c6500006064820152608490fd5b5082611415565b508161140e565b60648383808b519262461bcd60e51b845283015260248201527f596f752068617665206e6f20726f6c6520666f722074686973207265636f72646044820152fd5b509034610368576020366003190112610368576115906139c3565b5f546001600160a01b0391906115a99083163314613edf565b16805f52600191826020526115c2845f20541515613f18565b815f528260205260ff83855f200154166115f157509181925f52816020525f20019060ff198254161790555f80f35b606490602085519162461bcd60e51b8352820152601560248201527457616c6c657420616c72656164792061637469766560581b6044820152fd5b503461036857602090816003193601126103685782359161164f61086133614599565b335f5260018152815f205493835f52600e8252825f20855f528252825f209081549060ff821681811015610fd2576001036116ce5750916116c660ff9260027fc5b2e1bd4433eb4e9e181cc803520513d39d918c96bddeebca1224e1c750963d969585191617809155845193849160081c16613e32565b4290820152a3005b845162461bcd60e51b81529081018490526013602482015272139bc81c195b991a5b99c81c1c9bdc1bdcd85b606a1b6044820152606490fd5b50346103685760209061171c6106e536613b54565b8101600981520301902080548310156103685760209261071891613e5f565b5034610368575f3660031901126103685780516103529161175b826139ef565b60058252640352e302e360dc1b602083015251918291602083526020830190613c9f565b5090346103685761178f36613ba6565b91909261179e61086133614599565b335f526001602052805f205492835f52600e602052815f20855f52602052815f20805460ff81168581101561189a57906117dc600260ff9314614264565b60081c16936003831015611887576003851015611887578285146118445750916116c68261182e7fb36ec3c738ef8ecd9180addc815304762374b76e91c2a321831d9906ea119ade9694606096613ffa565b61183a83518095613e32565b6020840190613e32565b606490602085519162461bcd60e51b8352820152601860248201527f416c72656164792074686973207472757374206c6576656c00000000000000006044820152fd5b602190634e487b7160e01b5f525260245ffd5b602186634e487b7160e01b5f525260245ffd5b5034610368576118bc36613e88565b6118c861086133614599565b6118d58351825114614479565b335f5260019384936020906001602052825f20549460018060a01b03165f52825f2054936119048515156142fc565b5f965b61190d57005b815187101561110757878761192c611926839a8561412e565b51614677565b15611a02576119458861193f838761412e565b5161458f565b15611a02576119588761193f838761412e565b15611a02576119718761196b838761412e565b51614938565b5f52600685528787611984885f20613bfd565b6119a583611992868a61412e565b518461199e888b61412e565b51916147d6565b7fea2c9ebe68919ddf880b3221d8d508d908163d0973e8b79df108f5d110d0c6336119d0858961412e565b51916119e66119df878a61412e565b5193614164565b926119f78c519283924291846144bd565b0390a45b0196611907565b6119fb565b5034610368576020906103ae611a1c36613ad8565b90614428565b50346103685760203660031901126103685781358254811015610368576020925f527f8a35acfbc15ff81a39ae7d344fd709f28e8600b4aa8c65c6b64bfe7fe36bd19b01549051908152f35b503461036857611a7d36613dfb565b905f52600e602052815f20905f52602052805f2090805191611a9e836139ef565b5491611aad60ff841682613fe2565b611ac160ff602083019460081c1684613fee565b519183831015611ae557519260038410156118875750610352905192839283613e3f565b602184634e487b7160e01b5f525260245ffd5b503461036857602090611b0d6106e536613b54565b8101600781520301902080548310156103685760209261071891613e5f565b5034610368578060031936011261036857813590602435600681101561036857611b6060018060a01b035f54163314613edf565b825f5260206002815260ff835f205416600681101561189a5715611c3257835f526002815260ff835f20541694600686101561188757828614611bfb575090611bce91845f5260028152835f2060ff1981541660ff8416179055611bc684518097613e11565b850190613e11565b42908301527ff6277c6ee46649823db9a5c531db3112b4340c67179cae1932ba3420dcc37cc760603393a3005b60649184519162461bcd60e51b83528201526013602482015272416c726561647920746869732073746174757360681b6044820152fd5b8460649184519162461bcd60e51b83528201526013602482015272155cd95c881b9bdd081c9959da5cdd195c9959606a1b6044820152fd5b503461036857611c7936613dfb565b91905f526003602052805f20805483101561036857602092611c9a91613e5f565b60018060a01b0391549060031b1c169051908152f35b50346103685760a03660031901126103685781356001600160401b03811161036857611cdf9036908401613d52565b611ce76139d9565b604435916064359360843591611cff61086133614599565b335f52600195602093878552835f205495611d1c845115156140ec565b6001600160a01b038116908115611f94578815611f5e578215611f1b57815f52898752855f205415611e99575b5050420191824211611e86578798505f975b611d6157005b805188101561110757888888888888611d7b869e8861412e565b51611d868482614938565b5f526006908184528a60ff928b848b875f2001541615611e78577f862ca760aca929d73932f73bf72b4f8ed52171e3668ee2c70b9a689801876c1095611e4795600393611dd38c88614938565b5f5289528c825f2001541615611e60575b805193611df085613a1e565b428552888501908152818501918a83526060998a87019485528151818181611e1e8c83815193849201613b85565b8101600f815203019020908d5f52525f2094518555518c85015551600284015551910155614164565b918a518981528a8d820152428c820152a45b0197611d5b565b611e7389611e6c614142565b8c886147d6565b611de4565b505050505050505050611e59565b601189634e487b7160e01b5f525260245ffd5b611ed9611ee8928b885191611ead836139ef565b8c83528a8301908282525f52818b52895f209251835551151591019060ff801983541691151516179055565b885f5260038752855f20614184565b865f5260028552835f20600560ff19825416179055611f06876141bf565b611f11600554614242565b6005555f80611d49565b855162461bcd60e51b8152808c01889052601960248201527f4475726174696f6e206d75737420626520706f736974697665000000000000006044820152606490fd5b855162461bcd60e51b8152808c01889052601060248201526f125b9d985b1a590819dd595cdd08125160821b6044820152606490fd5b855162461bcd60e51b8152808c018890526014602482015273125b9d985b1a590819dd595cdd081dd85b1b195d60621b6044820152606490fd5b5034610368576020366003190112610368576001600160a01b03611ff06139c3565b165f526001602052805f2060ff6001825492015416825191825215156020820152f35b509034610368575f366003190112610368577ff0c57e16840df040f15088dc2f81fe391c3923bec73e23a9662efc9c229c6a0090815460ff81851c1615916001600160401b03821680159081612128575b600114908161211e575b159081612115575b50612107575067ffffffffffffffff1981166001178355816120e8575b505f80546001600160a01b031916331790556120ab57005b805468ff00000000000000001916905551600181527fc7f505b2f371ae2175ee4913f4499e1f2633a7b5936321eed1cdaeb6115181d290602090a1005b68ffffffffffffffffff1916680100000000000000011782555f612093565b845163f92ee8a960e01b8152fd5b9050155f612076565b303b15915061206e565b849150612064565b5034610368576103529061214336613dfb565b905f52600e602052815f20905f52602052805f20549051918160ff80859460081c16911683613e3f565b5034610368575f36600319011261036857602090600b549051908152f35b5034610368576020366003190112610368576020906121a86139c3565b5f5491906001600160a01b03808416917f38df5fa0f7fef0d515ca1f5388cb5790ac5885d5fca8d05d9f943e563c33a4b391906121e6338514613edf565b169485936121f58515156143ea565b51428152a36001600160a01b031916175f55005b50903461036857816003193601126103685780356001600160401b038111610368576122389036908301613d52565b906122416139d9565b61224d61086133614599565b6001600160a01b03169081156123935750335f52600192839260209060018252825f2054935f52825f2054926122848415156142fc565b5f955b61228d57005b81518610156111075786866122a78661193f849a8761412e565b1561238e576122ba8761193f838761412e565b1561238e5786866122cf8161196b858961412e565b805f5260068089526122e2875f20613bfd565b9182518a8401206122f16143a0565b8b81519101201461238457612311838561230b898d61412e565b51614973565b5f52885284865f200160ff198154169055600d88525f868120557f938e21a28464db5f9b9e24d1a58e038899de364f69dba20c154ee6fd4cd86def61237461236261235c878b61412e565b51614164565b9288519182918a83528a830190613c9f565b428c8301520390a45b0195612287565b505050505061237d565b61237d565b606490602085519162461bcd60e51b8352820152600e60248201526d125b9d985b1a59081dd85b1b195d60921b6044820152fd5b5034610368576123d636613ad8565b6123e4829392511515614019565b6001600160a01b0316926123f98415156142b0565b335f5260209160018352805f2054945f52805f20549361241a8515156142fc565b6124248582614938565b805f526006855261243d60ff6001855f20015416614348565b805f526006855261244f835f20613bfd565b9384518686012061245e6143a0565b8781519101208114612799578789036125be575b61247a6143c1565b878151910120146124fb575b50816124dc916124ba86897f938e21a28464db5f9b9e24d1a58e038899de364f69dba20c154ee6fd4cd86def989796614973565b5f52600686526001835f200160ff198154169055600d86525f83812055614164565b936124f08251938385948552840190613c9f565b9042908301520390a4005b83516125348760018651938281818a019661251781838a613b85565b810160088152030190205411928751809381928951928391613b85565b8101600781520301902054151581156125b6575b5061248657835162461bcd60e51b8152908101869052603960248201527f43616e6e6f74207265766f6b65206c6173742061646d696e6973747261746f7260448201527f20776974686f757420616e206f776e65722070726573656e74000000000000006064820152608490fd5b90505f612548565b6125d06125c96143a0565b8a86614b06565b6125e26125db6143c1565b8b87614b06565b845f52600d89528a875f205414906125f8614142565b8051908b01208403612698578215612690575b508115612688575b501561261f575b612472565b845162461bcd60e51b8152808301889052603e60248201527f4f6e6c79206f776e6572732c2061646d696e6973747261746f72732c206f722060448201527f746865206772616e7465722063616e207265766f6b65207669657765727300006064820152608490fd5b90505f612613565b91505f61260b565b821592915082612791575b50156127365715612472576126b66143c1565b878151910120810361261a578451878186516126d58183858b01613b85565b81016007815203019020541561261a57845162461bcd60e51b8152808301889052602560248201527f4f6e6c79206f776e6572732063616e207265766f6b652061646d696e6973747260448201526461746f727360d81b6064820152608490fd5b855162461bcd60e51b8152808401899052602f60248201527f4f6e6c79206f776e65727320616e642061646d696e6973747261746f7273206360448201526e616e207265766f6b6520726f6c657360881b6064820152608490fd5b90505f6126a3565b845162461bcd60e51b8152808301889052604560248201527f4f776e6572732063616e6e6f74206265207265766f6b65642e204f776e65722060448201527f6d7573742075736520766f6c756e746172696c794c656176654f776e6572736860648201526434b814149760d91b608482015260a490fd5b50346103685760209061282561049136613b54565b5f52600d8252805f20549051908152f35b50346103685761284536613dd1565b91909261285461086133614599565b335f5260019360209160018352835f205492855f52600e8152845f20845f528152845f2090855191612885836139ef565b549161289460ff841682613fe2565b6128a760ff8383019460081c1684613fee565b5183811015611ae55760026128bc9114614264565b83516128d36128ca82613d3b565b97519788613a54565b8087526128e2601f1991613d3b565b015f5b81811061296d57505050865f905b612905575b5050506111079450614a91565b835181101561296857612918818561412e565b51825190600382101561295557916129368a959493928a8794614a3b565b612940828a61412e565b5261294b818961412e565b50019091926128f3565b602185634e487b7160e01b5f525260245ffd5b6128f8565b606088820184015282016128e5565b509034610368576020908160031936011261036857355f52600a8152815f208054916129a783613d3b565b926129b485519485613a54565b80845281840180935f52825f205f915b838310612a2657505050508351928184019082855251809152848401948160051b85010192915f955b8287106129fa5785850386f35b909192938280612a16600193603f198a82030186528851613c9f565b96019201960195929190926129ed565b6001858192612a37859a989a613bfd565b8152019201920191909593956129c4565b503461036857612a5736613dfb565b905f52600e602052815f20905f52602052805f2090805191612a78836139ef565b5491612a8760ff841682613fe2565b612a9b60ff602083019460081c1684613fee565b5183811015611ae5576002149182612aba575b60208383519015158152f35b909150519160038310156118875750600260209214905f612aae565b5034610368575f366003190112610368577f00000000000000000000000000000000000000000000000000000000000000006001600160a01b03163003612b4057602090517f360894a13ba1a3210667c828492db98dca3e2076cc3735a920a3ca505d382bbc8152f35b5163703e46dd60e11b8152fd5b5090346103685760209081600319360112610368578035906001600160401b03821161036857612b848391612b9693369101613aba565b81855193828580945193849201613b85565b8101600981520301902091805191828185549182815201945f52815f20915f905b828210612bcf5761035286866107ad828b0383613a54565b835487529586019560019384019390910190612bb7565b50908160031936011261036857612bfb6139c3565b916024356001600160401b038111610368573660238201121561036857612c2b9036906024818601359101613a75565b906001600160a01b037f00000000000000000000000000000000000000000000000000000000000000008116308114908115612db5575b50612da557612c75815f54163314613edf565b8416918151946352d1902d60e01b86526020868681875afa5f9681612d71575b50612cb157505051634c9c8ce360e01b81529182015260249150fd5b838593877f360894a13ba1a3210667c828492db98dca3e2076cc3735a920a3ca505d382bbc90818103612d5b5750833b15612d445780546001600160a01b0319168317905551907fbc7cd75a20ee27fd9adebab32041f755214dbc6bffa90cc0225b39da2e5c2d3b5f80a2825115612d2e57506111079250614e0c565b91505034612d3857005b63b398979f60e01b8152fd5b8151634c9c8ce360e01b8152808701849052602490fd5b86602491845191632a87526960e21b8352820152fd5b9096506020813d602011612d9d575b81612d8d60209383613a54565b810103126103685751955f612c95565b3d9150612d80565b815163703e46dd60e11b81528490fd5b9050817f360894a13ba1a3210667c828492db98dca3e2076cc3735a920a3ca505d382bbc541614155f612c62565b509034610368578160031936011261036857612dfd6139c3565b916024359260018060a01b03612e17815f54163314613edf565b811692612e25841515614065565b8415612f6957835f5260209160018352835f2054612f2757612e8c90612e7d8551612e4f816139ef565b8881526001868201818152895f52818852885f209251835551151591019060ff801983541691151516179055565b865f5260038452845f20614184565b845f526002825260ff835f2054169060068210156118875750612efe577f39d132591ee0696de49ab564e4a90e430c006561917db731a2a614dd2d24559191845f5260028252805f20600260ff19825416179055612ee9856141bf565b612ef4600554614242565b60055551428152a3005b7f1cc138f50384be7770a8e4a34eecaa0d0c718bfaa1641af49db32532e4a5b9109151428152a3005b50915162461bcd60e51b815291820152601960248201527f57616c6c657420616c72656164792072656769737465726564000000000000006044820152606490fd5b606490602084519162461bcd60e51b83528201526014602482015273092dcecc2d8d2c840eae6cae440928840d0c2e6d60631b6044820152fd5b5034610368576020366003190112610368576020906103ae612fc36139c3565b614599565b5034610368576020806003193601126103685782356001600160401b03811161036857606093612ffa91369101613aba565b9180519261304f8382519581818186019861301681838c613b85565b810160078152030190205495845182818651613033818387613b85565b8101600881520301902054938551938492839251928391613b85565b8101600981520301902054928251948552840152820152f35b50346103685761307736613dd1565b61308661086193929333614599565b335f5260019283926020848152815f2054926130a4815115156140ec565b5f955b6130ad57005b805186101561110757868686866130c5849a8661412e565b518751878183516130d98183858801613b85565b8101600f815203019020835f52875287805f2081516130f781613a1e565b606060038354938484528a8101548d850152600281015480968501520154910152156131f95761312f6131286143a0565b8484614b06565b9081156131e6575b83141590816131dd575b506131d557806131548461317293614938565b805f52600690818a5260ff888c5f200154166131a2575b5050614164565b7f2c5c6c82d902a677db9fd8b1d71ba7ca5709567d73624248a441f213784693df878951428152a45b01956130a7565b6131b46131ad614142565b8785614973565b5f52885285895f200160ff198154169055600d88525f898120558d8061316b565b50505061319b565b9050158d613141565b90506131f36131286143c1565b90613137565b5050505061319b565b5090346103685760209081600319360112610368578035906001600160401b03821161036857612b84839161323993369101613aba565b8101600881520301902091805191828185549182815201945f52815f20915f905b8282106132725761035286866107ad828b0383613a54565b83548752958601956001938401939091019061325a565b5090346103685761329936613ce4565b9092919360018060a01b036132b2815f54163314613edf565b6132be86511515614019565b84166132cb811515614065565b6132d761089384614677565b5f52602092600184526132f3825f205495612fc3871515613f18565b156134fd578151848751918181818b019461330f818388613b85565b81016007815203019020541591826134d5575b505015613494576133338587614938565b805f5260068552825f209061334782613bfd565b9060ff600183511594015416906133988651613362816139ef565b88815260018a8201818152845f5260068c526133828a5f209351846146cf565b51151591019060ff801983541691151516179055565b5f52600d87525f85812055155f1461346557506133b6848789614cad565b6133d6575b50905f80516020614e9e833981519152916124dc5f96614164565b94845f52600a8452815f20805490600160401b82101561345257816134029160015f9a94018155613e5f565b9190916134405750816134285f80516020614e9e8339815191529594936124dc936146cf565b613433600b54614242565b600b5596505090916133bb565b634e487b7160e01b885287905260245ffd5b604188634e487b7160e01b5f525260245ffd5b9693959492505050845181860120908451908501200361348157005b61348f611107948383614973565b614cad565b83606492519162461bcd60e51b8352820152601a60248201527f5265636f726420616c726561647920696e697469616c697a65640000000000006044820152fd5b6134ea92508451809381928b51928391613b85565b810160088152030190205415845f613322565b83606492519162461bcd60e51b8352820152601860248201527f4d75737420626520616e20616374697665206d656d62657200000000000000006044820152fd5b50903461036857602036600319011261036857355f526006602052805f2061035260ff600161356c84613bfd565b93015416925192839283613cc4565b5034610368576020366003190112610368576020906103ae61359b6139c3565b614621565b5034610368576135af36613ba6565b90916135bd61086133614599565b335f5260209160018352815f205492841561379c5784841461375a57845f526002815260ff835f205416600681101561370c571561371f57835f52600e8152825f20855f52815260ff835f2054168681101561370c578015908115613701575b50156136bf57825161362e816139ef565b6001815281810161363f8482613fee565b855f52600e8352845f20875f528352845f209151888110156136ac5760ff801984541691161782555196600388101561188757507f494d010fdf588a0e83d626ea6963187bdda6f88b7007f7bf280683d3f7dea8349495966136a091613ffa565b6116c683518093613e32565b602189634e487b7160e01b5f525260245ffd5b8560649184519162461bcd60e51b8352820152601760248201527f50726f706f73616c20616c7265616479206578697374730000000000000000006044820152fd5b60039150145f61361d565b602187634e487b7160e01b5f525260245ffd5b8560649184519162461bcd60e51b83528201526016602482015275151c9d5cdd1959481b9bdd081c9959da5cdd195c995960521b6044820152fd5b8560649184519162461bcd60e51b8352820152601760248201527f43616e6e6f74206170706f696e7420796f757273656c660000000000000000006044820152fd5b8560649184519162461bcd60e51b8352820152600f60248201526e496e76616c6964207472757374656560881b6044820152fd5b50346103685760206137e46103cb36613b54565b8101600f815203019020905f52602052805f2090610352825491600184015493600360028201549101549151948594859094939260609260808301968352602083015260408201520152565b5090346103685760209081600319360112610368578035906001600160401b03821161036857612b84839161386793369101613aba565b8101600781520301902091805191828185549182815201945f52815f20915f905b8282106138a05761035286866107ad828b0383613a54565b835487529586019560019384019390910190613888565b5034610368576020906103ae6138cc36613ad8565b90613f5c565b5034610368576020366003190112610368576138ec6139c3565b5f546001600160a01b0391906139059083163314613edf565b16805f52600160205261391c825f20541515613f18565b805f52600160205260ff6001835f200154161561394c57600192505f52816020525f200160ff1981541690555f80f35b815162461bcd60e51b8152602081850152601760248201527f57616c6c657420616c726561647920696e6163746976650000000000000000006044820152606490fd5b905034610368576020366003190112610368576020916001600160a01b036139b56139c3565b165f52600183525f20548152f35b600435906001600160a01b038216820361036857565b602435906001600160a01b038216820361036857565b604081019081106001600160401b03821117613a0a57604052565b634e487b7160e01b5f52604160045260245ffd5b608081019081106001600160401b03821117613a0a57604052565b602081019081106001600160401b03821117613a0a57604052565b90601f801991011681019081106001600160401b03821117613a0a57604052565b9291926001600160401b038211613a0a5760405191613a9e601f8201601f191660200184613a54565b829481845281830111610368578281602093845f960137010152565b9080601f8301121561036857816020613ad593359101613a75565b90565b604060031982011261036857600435906001600160401b03821161036857613b0291600401613aba565b906024356001600160a01b03811681036103685790565b60209060206040818301928281528551809452019301915f5b828110613b40575050505090565b835185529381019392810192600101613b32565b604060031982011261036857600435906001600160401b03821161036857613b7e91600401613aba565b9060243590565b5f5b838110613b965750505f910152565b8181015183820152602001613b87565b6040906003190112610368576004359060243560038110156103685790565b90600182811c92168015613bf3575b6020831014613bdf57565b634e487b7160e01b5f52602260045260245ffd5b91607f1691613bd4565b9060405191825f8254613c0f81613bc5565b908184526020946001916001811690815f14613c7d5750600114613c3f575b505050613c3d92500383613a54565b565b5f90815285812095935091905b818310613c65575050613c3d93508201015f8080613c2e565b85548884018501529485019487945091830191613c4c565b92505050613c3d94925060ff191682840152151560051b8201015f8080613c2e565b90602091613cb881518092818552858086019101613b85565b601f01601f1916010190565b90613cdc602091949394604084526040840190613c9f565b931515910152565b6060600319820112610368576001600160401b03916004358381116103685782613d1091600401613aba565b926024356001600160a01b0381168103610368579260443591821161036857613ad591600401613aba565b6001600160401b038111613a0a5760051b60200190565b81601f8201121561036857803591602091613d6c84613d3b565b93613d7a6040519586613a54565b808552838086019160051b8301019280841161036857848301915b848310613da55750505050505090565b82356001600160401b038111610368578691613dc684848094890101613aba565b815201920191613d95565b604060031982011261036857600435906001600160401b03821161036857613b7e91600401613d52565b6040906003190112610368576004359060243590565b906006821015613e1e5752565b634e487b7160e01b5f52602160045260245ffd5b906003821015613e1e5752565b90929160408201936004811015613e1e578252613c3d9160200190613e32565b8054821015613e74575f5260205f2001905f90565b634e487b7160e01b5f52603260045260245ffd5b6060600319820112610368576001600160401b03916004358381116103685782613eb491600401613d52565b926024356001600160a01b0381168103610368579260443591821161036857613ad591600401613d52565b15613ee657565b60405162461bcd60e51b815260206004820152600a60248201526927b7363c9030b236b4b760b11b6044820152606490fd5b15613f1f57565b60405162461bcd60e51b815260206004820152601560248201527415d85b1b195d081b9bdd081c9959da5cdd195c9959605a1b6044820152606490fd5b6001600160a01b039091165f908152600160205260409020548015613f9957613f8491614938565b5f52600660205260ff600160405f2001541690565b50505f90565b15613fa657565b60405162461bcd60e51b81526020600482015260146024820152732737ba1030b71030b1ba34bb329036b2b6b132b960611b6044820152606490fd5b6004821015613e1e5752565b6003821015613e1e5752565b906003811015613e1e5761ff0082549160081b169061ff001916179055565b1561402057565b60405162461bcd60e51b815260206004820152601960248201527f5265636f72642049442063616e6e6f7420626520656d707479000000000000006044820152606490fd5b1561406c57565b60405162461bcd60e51b8152602060048201526016602482015275496e76616c69642077616c6c6574206164647265737360501b6044820152606490fd5b156140b157565b60405162461bcd60e51b8152602060048201526013602482015272496e76616c696420726f6c6520737472696e6760681b6044820152606490fd5b156140f357565b60405162461bcd60e51b8152602060048201526013602482015272139bc81c9958dbdc991cc81c1c9bdd9a591959606a1b6044820152606490fd5b8051821015613e745760209160051b010190565b6040519061414f826139ef565b60068252653b34b2bbb2b960d11b6020830152565b61417c90602060405192828480945193849201613b85565b810103902090565b8054600160401b811015613a0a576141a191600182018155613e5f565b60018060a09493941b038084549260031b9316831b921b1916179055565b600454600160401b811015613a0a576001810180600455811015613e745760045f527f8a35acfbc15ff81a39ae7d344fd709f28e8600b4aa8c65c6b64bfe7fe36bd19b0155565b805490600160401b821015613a0a578161422891600161423e94018155613e5f565b819391549060031b91821b915f19901b19161790565b9055565b5f1981146142505760010190565b634e487b7160e01b5f52601160045260245ffd5b1561426b57565b60405162461bcd60e51b815260206004820152601e60248201527f4e6f2061637469766520747275737465652072656c6174696f6e7368697000006044820152606490fd5b156142b757565b60405162461bcd60e51b815260206004820152601d60248201527f57616c6c657420616464726573732063616e6e6f74206265207a65726f0000006044820152606490fd5b1561430357565b60405162461bcd60e51b815260206004820152601c60248201527f5461726765742077616c6c6574206e6f742072656769737465726564000000006044820152606490fd5b1561434f57565b60405162461bcd60e51b815260206004820152602360248201527f54617267657420646f6573206e6f74206861766520616e2061637469766520726044820152626f6c6560e81b6064820152608490fd5b604051906143ad826139ef565b600582526437bbb732b960d91b6020830152565b604051906143ce826139ef565b600d82526c30b236b4b734b9ba3930ba37b960991b6020830152565b156143f157565b60405162461bcd60e51b815260206004820152600f60248201526e496e76616c6964206164647265737360881b6044820152606490fd5b6001600160a01b039091165f90815260016020526040902054908115613f995761445a6144536143a0565b8383614b06565b91821561446657505090565b613ad592506144736143c1565b91614b06565b1561448057565b60405162461bcd60e51b8152602060048201526015602482015274082e4e4c2f240d8cadccee8d040dad2e6dac2e8c6d605b1b6044820152606490fd5b9392916144e6906144d8604093606088526060880190613c9f565b908682036020880152613c9f565b930152565b919060018060a01b03165f52600160205260405f2054801561451057613ad592614b06565b5050505f90565b6001600160a01b039091165f90815260016020526040902054908115614579576020929161454491614938565b5f526006825260405f2060405161455a816139ef565b60ff600161456784613bfd565b93848452015416151593849101529190565b505060405161458781613a39565b5f8152905f90565b90613f8491614938565b6001600160a01b03165f9081526001602052604090208054908115908115614611575b5061460c575f52600260205260ff60405f20541660068110159081613e1e57600281149182156145ff575b82156145f257505090565b909150613e1e5760041490565b506003811491505f6145e7565b505f90565b60ff91506001015416155f6145bc565b6001600160a01b03165f9081526001602052604090208054908115908115614667575b5061460c575f52600260205260ff60405f2054166006811015613e1e5760041490565b60ff91506001015416155f614644565b602081519101206146866143a0565b6020815191012081149081156146b6575b81156146a1575090565b90506146ab614142565b602081519101201490565b90506146c06143c1565b60208151910120811490614697565b91909182516001600160401b038111613a0a576146ec8254613bc5565b601f8111614791575b50602080601f83116001146147305750819293945f92614725575b50508160011b915f199060031b1c1916179055565b015190505f80614710565b90601f19831695845f5260205f20925f905b88821061477957505083600195969710614761575b505050811b019055565b01515f1960f88460031b161c191690555f8080614757565b80600185968294968601518155019501930190614742565b825f5260205f20601f830160051c810191602084106147cc575b601f0160051c01905b8181106147c157506146f5565b5f81556001016147b4565b90915081906147ab565b9190916147e38382614938565b91825f5260209260068452604090815f20906147fe82613bfd565b9060ff600183511594015416906148398551614819816139ef565b87815260018a8201818152845f5260068c52613382895f209351846146cf565b5f52600d875288845f2055155f146149025750614857838786614cad565b614892575b6148735f80516020614e9e83398151915293614164565b936148878251938385948552840190613c9f565b9042908301520390a4565b845f52600a8452805f208054600160401b811015613a0a576148b991600182018155613e5f565b6148ef57836148d95f80516020614e9e83398151915295614873936146cf565b6148e4600b54614242565b600b5593505061485c565b634e487b7160e01b5f525f60045260245ffd5b9650505092918451818601209084519085012003614921575b50505050565b61348f61492f948383614973565b5f80808061491b565b9061496d60408051809360206149578184019788815193849201613b85565b8201906020820152036020810184520182613a54565b51902090565b82516020809401206149836143a0565b80519085012081036149ba5750826149ab91613c3d9460405193828580945193849201613b85565b81016007815203019020614d75565b6149c26143c1565b80519085012081036149f95750826149ea91613c3d9460405193828580945193849201613b85565b81016008815203019020614d75565b614a01614142565b84815191012014614a1157505050565b82614a2c91613c3d9460405193828580945193849201613b85565b81016009815203019020614d75565b6003831015613e1e578215614a8657600191614a5691614c00565b9114614a5f5790565b80516020820120614a6e6143a0565b6020815191012014614a7d5790565b50613ad56143c1565b505050613ad5614142565b9392935f5b8151811015614afe5780614aaf6119266001938761412e565b15614af957614ac28761193f838661412e565b15614af957614ad58461193f838661412e565b614af957614af387614ae7838661412e565b518661199e858a61412e565b01614a96565b614af3565b505050509050565b60209291614b1391614938565b5f526006825260405f20604051614b29816139ef565b60ff6001614b3684613bfd565b938484520154161515938491015282614b4e57505090565b9091506020815191012090602081519101201490565b600c546001600160a01b031690811561451057602091614ba2916040518095819482936379d615f560e11b8452604060048501526044840190613c9f565b90602483015203915afa908115614bf5575f91614bbd575090565b90506020813d602011614bed575b81614bd860209383613a54565b81010312610368575180151581036103685790565b3d9150614bcb565b6040513d5f823e3d90fd5b90614c0a91614938565b5f52600660205260405f2060ff600160405192614c26846139ef565b614c2f81613bfd565b84520154161580156020830152614c44575190565b50604051614c5181613a39565b5f815290565b6001600160a01b03165f9081526001602052604090208054908115908115614c9d575b5061460c575f52600260205260ff60405f2054166006811015613e1e5760031490565b60ff91506001015416155f614c7a565b8251602080940120614cbd6143a0565b8051908501208103614cf4575082614ce591613c3d9460405193828580945193849201613b85565b81016007815203019020614206565b614cfc6143c1565b8051908501208103614d33575082614d2491613c3d9460405193828580945193849201613b85565b81016008815203019020614206565b614d3b614142565b84815191012014614d4b57505050565b82614d6691613c3d9460405193828580945193849201613b85565b81016009815203019020614206565b5f5b8154908181101561491b578391614d8e8285613e5f565b959054600396871b1c14614da85750909250600101614d77565b5f19925082810190811161425057614228614dc6614dd39286613e5f565b905490871b1c9285613e5f565b905581548015614df857810192614dea8484613e5f565b81939154921b1b1916905555565b634e487b7160e01b5f52603160045260245ffd5b905f8091602081519101845af48080614e8a575b15614e405750506040513d81523d5f602083013e60203d82010160405290565b15614e6757604051639996b31560e01b81526001600160a01b039091166004820152602490fd5b3d15614e78576040513d5f823e3d90fd5b60405163d6bda27560e01b8152600490fd5b503d151580614e205750813b1515614e2056fe2a27f0a20e4df4738f3a8e2449b014d439e7ce0a97ee5860771c25cbafa1cfeba264697066735822122085951ffb4d947abf9745887c71e77acceda64f501317779cdaa1464b3303b62b64736f6c63430008180033",
  "linkReferences": {},
  "deployedLinkReferences": {}
}