{
  "_format": "hh-sol-artifact-1",
  "contractName": "MemberRoleManager",
  "sourceName": "smartContracts/MemberRoleManager.sol",
  "abi": [
    {
      "inputs": [],
      "stateMutability": "nonpayable",
      "type": "constructor"
    },
    {
      "inputs": [
        {
          "internalType": "address",
          "name": "target",
          "type": "address"
        }
      ],
      "name": "AddressEmptyCode",
      "type": "error"
    },
    {
      "inputs": [
        {
          "internalType": "address",
          "name": "implementation",
          "type": "address"
        }
      ],
      "name": "ERC1967InvalidImplementation",
      "type": "error"
    },
    {
      "inputs": [],
      "name": "ERC1967NonPayable",
      "type": "error"
    },
    {
      "inputs": [],
      "name": "FailedCall",
      "type": "error"
    },
    {
      "inputs": [],
      "name": "InvalidInitialization",
      "type": "error"
    },
    {
      "inputs": [],
      "name": "NotInitializing",
      "type": "error"
    },
    {
      "inputs": [],
      "name": "UUPSUnauthorizedCallContext",
      "type": "error"
    },
    {
      "inputs": [
        {
          "internalType": "bytes32",
          "name": "slot",
          "type": "bytes32"
        }
      ],
      "name": "UUPSUnsupportedProxiableUUID",
      "type": "error"
    },
    {
      "anonymous": false,
      "inputs": [
        {
          "indexed": true,
          "internalType": "address",
          "name": "oldAdmin",
          "type": "address"
        },
        {
          "indexed": true,
          "internalType": "address",
          "name": "newAdmin",
          "type": "address"
        },
        {
          "indexed": false,
          "internalType": "uint256",
          "name": "timestamp",
          "type": "uint256"
        }
      ],
      "name": "AdminTransferred",
      "type": "event"
    },
    {
      "anonymous": false,
      "inputs": [
        {
          "indexed": true,
          "internalType": "address",
          "name": "newAddress",
          "type": "address"
        },
        {
          "indexed": false,
          "internalType": "uint256",
          "name": "timestamp",
          "type": "uint256"
        }
      ],
      "name": "HealthRecordCoreUpdated",
      "type": "event"
    },
    {
      "anonymous": false,
      "inputs": [
        {
          "indexed": false,
          "internalType": "uint64",
          "name": "version",
          "type": "uint64"
        }
      ],
      "name": "Initialized",
      "type": "event"
    },
    {
      "anonymous": false,
      "inputs": [
        {
          "indexed": true,
          "internalType": "address",
          "name": "wallet",
          "type": "address"
        },
        {
          "indexed": true,
          "internalType": "bytes32",
          "name": "userIdHash",
          "type": "bytes32"
        },
        {
          "indexed": false,
          "internalType": "uint256",
          "name": "timestamp",
          "type": "uint256"
        }
      ],
      "name": "MemberRegistered",
      "type": "event"
    },
    {
      "anonymous": false,
      "inputs": [
        {
          "indexed": true,
          "internalType": "bytes32",
          "name": "userIdHash",
          "type": "bytes32"
        },
        {
          "indexed": false,
          "internalType": "enum MemberRoleManager.MemberStatus",
          "name": "oldStatus",
          "type": "uint8"
        },
        {
          "indexed": false,
          "internalType": "enum MemberRoleManager.MemberStatus",
          "name": "newStatus",
          "type": "uint8"
        },
        {
          "indexed": true,
          "internalType": "address",
          "name": "changedBy",
          "type": "address"
        },
        {
          "indexed": false,
          "internalType": "uint256",
          "name": "timestamp",
          "type": "uint256"
        }
      ],
      "name": "MemberStatusChanged",
      "type": "event"
    },
    {
      "anonymous": false,
      "inputs": [
        {
          "indexed": true,
          "internalType": "bytes32",
          "name": "recordIdHash",
          "type": "bytes32"
        },
        {
          "indexed": true,
          "internalType": "bytes32",
          "name": "userIdHash",
          "type": "bytes32"
        },
        {
          "indexed": false,
          "internalType": "uint256",
          "name": "timestamp",
          "type": "uint256"
        }
      ],
      "name": "OwnershipVoluntarilyLeft",
      "type": "event"
    },
    {
      "anonymous": false,
      "inputs": [
        {
          "indexed": true,
          "internalType": "bytes32",
          "name": "recordIdHash",
          "type": "bytes32"
        },
        {
          "indexed": true,
          "internalType": "bytes32",
          "name": "targetIdHash",
          "type": "bytes32"
        },
        {
          "indexed": false,
          "internalType": "string",
          "name": "oldRole",
          "type": "string"
        },
        {
          "indexed": false,
          "internalType": "string",
          "name": "newRole",
          "type": "string"
        },
        {
          "indexed": true,
          "internalType": "bytes32",
          "name": "userIdHash",
          "type": "bytes32"
        },
        {
          "indexed": false,
          "internalType": "uint256",
          "name": "timestamp",
          "type": "uint256"
        }
      ],
      "name": "RoleChanged",
      "type": "event"
    },
    {
      "anonymous": false,
      "inputs": [
        {
          "indexed": true,
          "internalType": "bytes32",
          "name": "recordIdHash",
          "type": "bytes32"
        },
        {
          "indexed": true,
          "internalType": "bytes32",
          "name": "targetIdHash",
          "type": "bytes32"
        },
        {
          "indexed": false,
          "internalType": "string",
          "name": "role",
          "type": "string"
        },
        {
          "indexed": true,
          "internalType": "bytes32",
          "name": "userIdHash",
          "type": "bytes32"
        },
        {
          "indexed": false,
          "internalType": "uint256",
          "name": "timestamp",
          "type": "uint256"
        }
      ],
      "name": "RoleGranted",
      "type": "event"
    },
    {
      "anonymous": false,
      "inputs": [
        {
          "indexed": true,
          "internalType": "bytes32",
          "name": "recordIdHash",
          "type": "bytes32"
        },
        {
          "indexed": true,
          "internalType": "bytes32",
          "name": "targetIdHash",
          "type": "bytes32"
        },
        {
          "indexed": false,
          "internalType": "string",
          "name": "role",
          "type": "string"
        },
        {
          "indexed": true,
          "internalType": "bytes32",
          "name": "userIdHash",
          "type": "bytes32"
        },
        {
          "indexed": false,
          "internalType": "uint256",
          "name": "timestamp",
          "type": "uint256"
        }
      ],
      "name": "RoleRevoked",
      "type": "event"
    },
    {
      "anonymous": false,
      "inputs": [
        {
          "indexed": true,
          "internalType": "bytes32",
          "name": "trustorIdHash",
          "type": "bytes32"
        },
        {
          "indexed": true,
          "internalType": "bytes32",
          "name": "trusteeIdHash",
          "type": "bytes32"
        },
        {
          "indexed": false,
          "internalType": "enum MemberRoleManager.TrusteeLevel",
          "name": "level",
          "type": "uint8"
        },
        {
          "indexed": false,
          "internalType": "uint256",
          "name": "timestamp",
          "type": "uint256"
        }
      ],
      "name": "TrusteeAccepted",
      "type": "event"
    },
    {
      "anonymous": false,
      "inputs": [
        {
          "indexed": true,
          "internalType": "bytes32",
          "name": "trustorIdHash",
          "type": "bytes32"
        },
        {
          "indexed": true,
          "internalType": "bytes32",
          "name": "trusteeIdHash",
          "type": "bytes32"
        },
        {
          "indexed": false,
          "internalType": "uint256",
          "name": "timestamp",
          "type": "uint256"
        }
      ],
      "name": "TrusteeDeclined",
      "type": "event"
    },
    {
      "anonymous": false,
      "inputs": [
        {
          "indexed": true,
          "internalType": "bytes32",
          "name": "trustorIdHash",
          "type": "bytes32"
        },
        {
          "indexed": true,
          "internalType": "bytes32",
          "name": "trusteeIdHash",
          "type": "bytes32"
        },
        {
          "indexed": false,
          "internalType": "enum MemberRoleManager.TrusteeLevel",
          "name": "oldLevel",
          "type": "uint8"
        },
        {
          "indexed": false,
          "internalType": "enum MemberRoleManager.TrusteeLevel",
          "name": "newLevel",
          "type": "uint8"
        },
        {
          "indexed": false,
          "internalType": "uint256",
          "name": "timestamp",
          "type": "uint256"
        }
      ],
      "name": "TrusteeLevelUpdated",
      "type": "event"
    },
    {
      "anonymous": false,
      "inputs": [
        {
          "indexed": true,
          "internalType": "bytes32",
          "name": "trustorIdHash",
          "type": "bytes32"
        },
        {
          "indexed": true,
          "internalType": "bytes32",
          "name": "trusteeIdHash",
          "type": "bytes32"
        },
        {
          "indexed": false,
          "internalType": "enum MemberRoleManager.TrusteeLevel",
          "name": "level",
          "type": "uint8"
        },
        {
          "indexed": false,
          "internalType": "uint256",
          "name": "timestamp",
          "type": "uint256"
        }
      ],
      "name": "TrusteeProposed",
      "type": "event"
    },
    {
      "anonymous": false,
      "inputs": [
        {
          "indexed": true,
          "internalType": "bytes32",
          "name": "trustorIdHash",
          "type": "bytes32"
        },
        {
          "indexed": true,
          "internalType": "bytes32",
          "name": "trusteeIdHash",
          "type": "bytes32"
        },
        {
          "indexed": true,
          "internalType": "bytes32",
          "name": "revokedBy",
          "type": "bytes32"
        },
        {
          "indexed": false,
          "internalType": "uint256",
          "name": "timestamp",
          "type": "uint256"
        }
      ],
      "name": "TrusteeRevoked",
      "type": "event"
    },
    {
      "anonymous": false,
      "inputs": [
        {
          "indexed": true,
          "internalType": "address",
          "name": "implementation",
          "type": "address"
        }
      ],
      "name": "Upgraded",
      "type": "event"
    },
    {
      "anonymous": false,
      "inputs": [
        {
          "indexed": true,
          "internalType": "bytes32",
          "name": "voucherIdHash",
          "type": "bytes32"
        },
        {
          "indexed": true,
          "internalType": "bytes32",
          "name": "voucheeIdHash",
          "type": "bytes32"
        },
        {
          "indexed": false,
          "internalType": "uint256",
          "name": "timestamp",
          "type": "uint256"
        }
      ],
      "name": "VouchGiven",
      "type": "event"
    },
    {
      "anonymous": false,
      "inputs": [
        {
          "indexed": true,
          "internalType": "bytes32",
          "name": "voucherIdHash",
          "type": "bytes32"
        },
        {
          "indexed": true,
          "internalType": "bytes32",
          "name": "voucheeIdHash",
          "type": "bytes32"
        },
        {
          "indexed": false,
          "internalType": "uint256",
          "name": "timestamp",
          "type": "uint256"
        }
      ],
      "name": "VouchRetracted",
      "type": "event"
    },
    {
      "anonymous": false,
      "inputs": [
        {
          "indexed": true,
          "internalType": "address",
          "name": "wallet",
          "type": "address"
        },
        {
          "indexed": true,
          "internalType": "bytes32",
          "name": "userIdHash",
          "type": "bytes32"
        },
        {
          "indexed": false,
          "internalType": "uint256",
          "name": "timestamp",
          "type": "uint256"
        }
      ],
      "name": "WalletLinked",
      "type": "event"
    },
    {
      "inputs": [],
      "name": "UPGRADE_INTERFACE_VERSION",
      "outputs": [
        {
          "internalType": "string",
          "name": "",
          "type": "string"
        }
      ],
      "stateMutability": "view",
      "type": "function"
    },
    {
      "inputs": [
        {
          "internalType": "bytes32",
          "name": "trustorIdHash",
          "type": "bytes32"
        }
      ],
      "name": "acceptTrustee",
      "outputs": [],
      "stateMutability": "nonpayable",
      "type": "function"
    },
    {
      "inputs": [
        {
          "internalType": "address",
          "name": "wallet",
          "type": "address"
        },
        {
          "internalType": "bytes32",
          "name": "userIdHash",
          "type": "bytes32"
        }
      ],
      "name": "addMember",
      "outputs": [],
      "stateMutability": "nonpayable",
      "type": "function"
    },
    {
      "inputs": [
        {
          "internalType": "address[]",
          "name": "walletAddresses",
          "type": "address[]"
        },
        {
          "internalType": "bytes32",
          "name": "userIdHash",
          "type": "bytes32"
        }
      ],
      "name": "addMemberBatch",
      "outputs": [],
      "stateMutability": "nonpayable",
      "type": "function"
    },
    {
      "inputs": [],
      "name": "admin",
      "outputs": [
        {
          "internalType": "address",
          "name": "",
          "type": "address"
        }
      ],
      "stateMutability": "view",
      "type": "function"
    },
    {
      "inputs": [
        {
          "internalType": "bytes32",
          "name": "",
          "type": "bytes32"
        },
        {
          "internalType": "uint256",
          "name": "",
          "type": "uint256"
        }
      ],
      "name": "adminsByRecord",
      "outputs": [
        {
          "internalType": "bytes32",
          "name": "",
          "type": "bytes32"
        }
      ],
      "stateMutability": "view",
      "type": "function"
    },
    {
      "inputs": [
        {
          "internalType": "bytes32",
          "name": "trustorIdHash",
          "type": "bytes32"
        },
        {
          "internalType": "bytes32",
          "name": "trusteeIdHash",
          "type": "bytes32"
        }
      ],
      "name": "bootstrapDependentTrustee",
      "outputs": [],
      "stateMutability": "nonpayable",
      "type": "function"
    },
    {
      "inputs": [
        {
          "internalType": "bytes32",
          "name": "recordIdHash",
          "type": "bytes32"
        },
        {
          "internalType": "address",
          "name": "targetWallet",
          "type": "address"
        },
        {
          "internalType": "string",
          "name": "newRole",
          "type": "string"
        }
      ],
      "name": "changeRole",
      "outputs": [],
      "stateMutability": "nonpayable",
      "type": "function"
    },
    {
      "inputs": [
        {
          "internalType": "bytes32[]",
          "name": "recordIdHashes",
          "type": "bytes32[]"
        },
        {
          "internalType": "address",
          "name": "targetWallet",
          "type": "address"
        },
        {
          "internalType": "string[]",
          "name": "newRoles",
          "type": "string[]"
        }
      ],
      "name": "changeRoleBatch",
      "outputs": [],
      "stateMutability": "nonpayable",
      "type": "function"
    },
    {
      "inputs": [
        {
          "internalType": "address",
          "name": "wallet",
          "type": "address"
        }
      ],
      "name": "deactivateWallet",
      "outputs": [],
      "stateMutability": "nonpayable",
      "type": "function"
    },
    {
      "inputs": [
        {
          "internalType": "bytes32",
          "name": "trustorIdHash",
          "type": "bytes32"
        }
      ],
      "name": "declineTrustee",
      "outputs": [],
      "stateMutability": "nonpayable",
      "type": "function"
    },
    {
      "inputs": [
        {
          "internalType": "bytes32",
          "name": "trustorIdHash",
          "type": "bytes32"
        },
        {
          "internalType": "enum MemberRoleManager.TrusteeLevel",
          "name": "newLevel",
          "type": "uint8"
        }
      ],
      "name": "downgradeTrusteeLevel",
      "outputs": [],
      "stateMutability": "nonpayable",
      "type": "function"
    },
    {
      "inputs": [
        {
          "internalType": "bytes32",
          "name": "subjectIdHash",
          "type": "bytes32"
        },
        {
          "internalType": "bytes32",
          "name": "recordIdHash",
          "type": "bytes32"
        }
      ],
      "name": "extendTrusteeGrantsOnAnchor",
      "outputs": [],
      "stateMutability": "nonpayable",
      "type": "function"
    },
    {
      "inputs": [
        {
          "internalType": "bytes32",
          "name": "recordIdHash",
          "type": "bytes32"
        }
      ],
      "name": "getAllRecordParticipants",
      "outputs": [
        {
          "internalType": "bytes32[]",
          "name": "owners",
          "type": "bytes32[]"
        },
        {
          "internalType": "bytes32[]",
          "name": "admins",
          "type": "bytes32[]"
        },
        {
          "internalType": "bytes32[]",
          "name": "sharers",
          "type": "bytes32[]"
        },
        {
          "internalType": "bytes32[]",
          "name": "viewers",
          "type": "bytes32[]"
        }
      ],
      "stateMutability": "view",
      "type": "function"
    },
    {
      "inputs": [],
      "name": "getHealthRecordCore",
      "outputs": [
        {
          "internalType": "address",
          "name": "",
          "type": "address"
        }
      ],
      "stateMutability": "view",
      "type": "function"
    },
    {
      "inputs": [
        {
          "internalType": "bytes32",
          "name": "recordIdHash",
          "type": "bytes32"
        }
      ],
      "name": "getRecordAdmins",
      "outputs": [
        {
          "internalType": "bytes32[]",
          "name": "",
          "type": "bytes32[]"
        }
      ],
      "stateMutability": "view",
      "type": "function"
    },
    {
      "inputs": [
        {
          "internalType": "bytes32",
          "name": "recordIdHash",
          "type": "bytes32"
        }
      ],
      "name": "getRecordOwners",
      "outputs": [
        {
          "internalType": "bytes32[]",
          "name": "",
          "type": "bytes32[]"
        }
      ],
      "stateMutability": "view",
      "type": "function"
    },
    {
      "inputs": [
        {
          "internalType": "bytes32",
          "name": "recordIdHash",
          "type": "bytes32"
        }
      ],
      "name": "getRecordRoleStats",
      "outputs": [
        {
          "internalType": "uint256",
          "name": "ownerCount",
          "type": "uint256"
        },
        {
          "internalType": "uint256",
          "name": "adminCount",
          "type": "uint256"
        },
        {
          "internalType": "uint256",
          "name": "sharerCount",
          "type": "uint256"
        },
        {
          "internalType": "uint256",
          "name": "viewerCount",
          "type": "uint256"
        }
      ],
      "stateMutability": "view",
      "type": "function"
    },
    {
      "inputs": [
        {
          "internalType": "bytes32",
          "name": "recordIdHash",
          "type": "bytes32"
        }
      ],
      "name": "getRecordSharers",
      "outputs": [
        {
          "internalType": "bytes32[]",
          "name": "",
          "type": "bytes32[]"
        }
      ],
      "stateMutability": "view",
      "type": "function"
    },
    {
      "inputs": [
        {
          "internalType": "bytes32",
          "name": "recordIdHash",
          "type": "bytes32"
        }
      ],
      "name": "getRecordViewers",
      "outputs": [
        {
          "internalType": "bytes32[]",
          "name": "",
          "type": "bytes32[]"
        }
      ],
      "stateMutability": "view",
      "type": "function"
    },
    {
      "inputs": [
        {
          "internalType": "bytes32",
          "name": "recordIdHash",
          "type": "bytes32"
        },
        {
          "internalType": "address",
          "name": "wallet",
          "type": "address"
        }
      ],
      "name": "getRoleDetails",
      "outputs": [
        {
          "internalType": "string",
          "name": "role",
          "type": "string"
        },
        {
          "internalType": "bool",
          "name": "isActive",
          "type": "bool"
        }
      ],
      "stateMutability": "view",
      "type": "function"
    },
    {
      "inputs": [
        {
          "internalType": "bytes32",
          "name": "recordIdHash",
          "type": "bytes32"
        },
        {
          "internalType": "bytes32",
          "name": "userIdHash",
          "type": "bytes32"
        }
      ],
      "name": "getRoleDetailsByUser",
      "outputs": [
        {
          "internalType": "string",
          "name": "role",
          "type": "string"
        },
        {
          "internalType": "bool",
          "name": "isActive",
          "type": "bool"
        }
      ],
      "stateMutability": "view",
      "type": "function"
    },
    {
      "inputs": [
        {
          "internalType": "bytes32",
          "name": "recordIdHash",
          "type": "bytes32"
        },
        {
          "internalType": "bytes32",
          "name": "userIdHash",
          "type": "bytes32"
        }
      ],
      "name": "getRoleGranter",
      "outputs": [
        {
          "internalType": "bytes32",
          "name": "",
          "type": "bytes32"
        }
      ],
      "stateMutability": "view",
      "type": "function"
    },
    {
      "inputs": [],
      "name": "getTotalUsers",
      "outputs": [
        {
          "internalType": "uint256",
          "name": "",
          "type": "uint256"
        }
      ],
      "stateMutability": "view",
      "type": "function"
    },
    {
      "inputs": [
        {
          "internalType": "bytes32",
          "name": "trustorIdHash",
          "type": "bytes32"
        },
        {
          "internalType": "bytes32",
          "name": "trusteeIdHash",
          "type": "bytes32"
        }
      ],
      "name": "getTrusteeGrantedRecords",
      "outputs": [
        {
          "internalType": "bytes32[]",
          "name": "",
          "type": "bytes32[]"
        }
      ],
      "stateMutability": "view",
      "type": "function"
    },
    {
      "inputs": [
        {
          "internalType": "bytes32",
          "name": "trustorIdHash",
          "type": "bytes32"
        },
        {
          "internalType": "bytes32",
          "name": "trusteeIdHash",
          "type": "bytes32"
        }
      ],
      "name": "getTrusteeRelationship",
      "outputs": [
        {
          "internalType": "enum MemberRoleManager.TrusteeStatus",
          "name": "status",
          "type": "uint8"
        },
        {
          "internalType": "enum MemberRoleManager.TrusteeLevel",
          "name": "level",
          "type": "uint8"
        }
      ],
      "stateMutability": "view",
      "type": "function"
    },
    {
      "inputs": [
        {
          "internalType": "bytes32",
          "name": "trustorIdHash",
          "type": "bytes32"
        }
      ],
      "name": "getTrusteesForTrustor",
      "outputs": [
        {
          "internalType": "bytes32[]",
          "name": "",
          "type": "bytes32[]"
        }
      ],
      "stateMutability": "view",
      "type": "function"
    },
    {
      "inputs": [
        {
          "internalType": "address",
          "name": "wallet",
          "type": "address"
        }
      ],
      "name": "getUserForWallet",
      "outputs": [
        {
          "internalType": "bytes32",
          "name": "",
          "type": "bytes32"
        }
      ],
      "stateMutability": "view",
      "type": "function"
    },
    {
      "inputs": [
        {
          "internalType": "bytes32",
          "name": "userIdHash",
          "type": "bytes32"
        }
      ],
      "name": "getUserStatus",
      "outputs": [
        {
          "internalType": "enum MemberRoleManager.MemberStatus",
          "name": "status",
          "type": "uint8"
        }
      ],
      "stateMutability": "view",
      "type": "function"
    },
    {
      "inputs": [
        {
          "internalType": "bytes32",
          "name": "voucherIdHash",
          "type": "bytes32"
        },
        {
          "internalType": "bytes32",
          "name": "voucheeIdHash",
          "type": "bytes32"
        }
      ],
      "name": "getVouchStatus",
      "outputs": [
        {
          "internalType": "enum MemberRoleManager.VouchStatus",
          "name": "",
          "type": "uint8"
        }
      ],
      "stateMutability": "view",
      "type": "function"
    },
    {
      "inputs": [
        {
          "internalType": "bytes32",
          "name": "voucherIdHash",
          "type": "bytes32"
        }
      ],
      "name": "getVouchesGiven",
      "outputs": [
        {
          "internalType": "bytes32[]",
          "name": "",
          "type": "bytes32[]"
        }
      ],
      "stateMutability": "view",
      "type": "function"
    },
    {
      "inputs": [
        {
          "internalType": "bytes32",
          "name": "voucheeIdHash",
          "type": "bytes32"
        }
      ],
      "name": "getVouchesReceived",
      "outputs": [
        {
          "internalType": "bytes32[]",
          "name": "",
          "type": "bytes32[]"
        }
      ],
      "stateMutability": "view",
      "type": "function"
    },
    {
      "inputs": [
        {
          "internalType": "bytes32",
          "name": "userIdHash",
          "type": "bytes32"
        }
      ],
      "name": "getWalletsForUser",
      "outputs": [
        {
          "internalType": "address[]",
          "name": "",
          "type": "address[]"
        }
      ],
      "stateMutability": "view",
      "type": "function"
    },
    {
      "inputs": [
        {
          "internalType": "bytes32",
          "name": "voucheeIdHash",
          "type": "bytes32"
        }
      ],
      "name": "giveVouch",
      "outputs": [],
      "stateMutability": "nonpayable",
      "type": "function"
    },
    {
      "inputs": [
        {
          "internalType": "bytes32",
          "name": "recordIdHash",
          "type": "bytes32"
        },
        {
          "internalType": "address",
          "name": "targetWallet",
          "type": "address"
        },
        {
          "internalType": "string",
          "name": "role",
          "type": "string"
        }
      ],
      "name": "grantRole",
      "outputs": [],
      "stateMutability": "nonpayable",
      "type": "function"
    },
    {
      "inputs": [
        {
          "internalType": "bytes32[]",
          "name": "recordIdHashes",
          "type": "bytes32[]"
        },
        {
          "internalType": "address",
          "name": "targetWallet",
          "type": "address"
        },
        {
          "internalType": "string[]",
          "name": "roles",
          "type": "string[]"
        }
      ],
      "name": "grantRoleBatch",
      "outputs": [],
      "stateMutability": "nonpayable",
      "type": "function"
    },
    {
      "inputs": [
        {
          "internalType": "bytes32",
          "name": "recordIdHash",
          "type": "bytes32"
        },
        {
          "internalType": "address",
          "name": "wallet",
          "type": "address"
        }
      ],
      "name": "hasActiveRole",
      "outputs": [
        {
          "internalType": "bool",
          "name": "",
          "type": "bool"
        }
      ],
      "stateMutability": "view",
      "type": "function"
    },
    {
      "inputs": [
        {
          "internalType": "bytes32",
          "name": "recordIdHash",
          "type": "bytes32"
        },
        {
          "internalType": "address",
          "name": "wallet",
          "type": "address"
        },
        {
          "internalType": "string",
          "name": "role",
          "type": "string"
        }
      ],
      "name": "hasRole",
      "outputs": [
        {
          "internalType": "bool",
          "name": "",
          "type": "bool"
        }
      ],
      "stateMutability": "view",
      "type": "function"
    },
    {
      "inputs": [
        {
          "internalType": "bytes32",
          "name": "voucherIdHash",
          "type": "bytes32"
        },
        {
          "internalType": "bytes32",
          "name": "voucheeIdHash",
          "type": "bytes32"
        }
      ],
      "name": "hasVouched",
      "outputs": [
        {
          "internalType": "bool",
          "name": "",
          "type": "bool"
        }
      ],
      "stateMutability": "view",
      "type": "function"
    },
    {
      "inputs": [],
      "name": "healthRecordCore",
      "outputs": [
        {
          "internalType": "contract HealthRecordCoreInterface",
          "name": "",
          "type": "address"
        }
      ],
      "stateMutability": "view",
      "type": "function"
    },
    {
      "inputs": [],
      "name": "initialize",
      "outputs": [],
      "stateMutability": "nonpayable",
      "type": "function"
    },
    {
      "inputs": [
        {
          "internalType": "bytes32",
          "name": "recordIdHash",
          "type": "bytes32"
        },
        {
          "internalType": "address",
          "name": "targetWallet",
          "type": "address"
        },
        {
          "internalType": "string",
          "name": "role",
          "type": "string"
        }
      ],
      "name": "initializeRecordRole",
      "outputs": [],
      "stateMutability": "nonpayable",
      "type": "function"
    },
    {
      "inputs": [
        {
          "internalType": "address",
          "name": "wallet",
          "type": "address"
        }
      ],
      "name": "isActiveMember",
      "outputs": [
        {
          "internalType": "bool",
          "name": "",
          "type": "bool"
        }
      ],
      "stateMutability": "view",
      "type": "function"
    },
    {
      "inputs": [
        {
          "internalType": "bytes32",
          "name": "recordIdHash",
          "type": "bytes32"
        },
        {
          "internalType": "bytes32",
          "name": "userIdHash",
          "type": "bytes32"
        }
      ],
      "name": "isActiveSubject",
      "outputs": [
        {
          "internalType": "bool",
          "name": "",
          "type": "bool"
        }
      ],
      "stateMutability": "view",
      "type": "function"
    },
    {
      "inputs": [
        {
          "internalType": "bytes32",
          "name": "trustorIdHash",
          "type": "bytes32"
        },
        {
          "internalType": "bytes32",
          "name": "trusteeIdHash",
          "type": "bytes32"
        }
      ],
      "name": "isControllerOf",
      "outputs": [
        {
          "internalType": "bool",
          "name": "",
          "type": "bool"
        }
      ],
      "stateMutability": "view",
      "type": "function"
    },
    {
      "inputs": [
        {
          "internalType": "bytes32",
          "name": "recordIdHash",
          "type": "bytes32"
        },
        {
          "internalType": "address",
          "name": "wallet",
          "type": "address"
        }
      ],
      "name": "isOwnerOrAdmin",
      "outputs": [
        {
          "internalType": "bool",
          "name": "",
          "type": "bool"
        }
      ],
      "stateMutability": "view",
      "type": "function"
    },
    {
      "inputs": [
        {
          "internalType": "address",
          "name": "wallet",
          "type": "address"
        }
      ],
      "name": "isVerifiedMember",
      "outputs": [
        {
          "internalType": "bool",
          "name": "",
          "type": "bool"
        }
      ],
      "stateMutability": "view",
      "type": "function"
    },
    {
      "inputs": [
        {
          "internalType": "address",
          "name": "wallet",
          "type": "address"
        }
      ],
      "name": "isVerifiedProvider",
      "outputs": [
        {
          "internalType": "bool",
          "name": "",
          "type": "bool"
        }
      ],
      "stateMutability": "view",
      "type": "function"
    },
    {
      "inputs": [
        {
          "internalType": "bytes32",
          "name": "",
          "type": "bytes32"
        },
        {
          "internalType": "uint256",
          "name": "",
          "type": "uint256"
        }
      ],
      "name": "ownersByRecord",
      "outputs": [
        {
          "internalType": "bytes32",
          "name": "",
          "type": "bytes32"
        }
      ],
      "stateMutability": "view",
      "type": "function"
    },
    {
      "inputs": [
        {
          "internalType": "bytes32",
          "name": "trusteeIdHash",
          "type": "bytes32"
        },
        {
          "internalType": "enum MemberRoleManager.TrusteeLevel",
          "name": "level",
          "type": "uint8"
        },
        {
          "internalType": "bytes32[]",
          "name": "recordIdHashes",
          "type": "bytes32[]"
        }
      ],
      "name": "proposeTrustee",
      "outputs": [],
      "stateMutability": "nonpayable",
      "type": "function"
    },
    {
      "inputs": [],
      "name": "proxiableUUID",
      "outputs": [
        {
          "internalType": "bytes32",
          "name": "",
          "type": "bytes32"
        }
      ],
      "stateMutability": "view",
      "type": "function"
    },
    {
      "inputs": [
        {
          "internalType": "address",
          "name": "wallet",
          "type": "address"
        }
      ],
      "name": "reactivateWallet",
      "outputs": [],
      "stateMutability": "nonpayable",
      "type": "function"
    },
    {
      "inputs": [
        {
          "internalType": "bytes32",
          "name": "",
          "type": "bytes32"
        }
      ],
      "name": "recordRoles",
      "outputs": [
        {
          "internalType": "string",
          "name": "role",
          "type": "string"
        },
        {
          "internalType": "bool",
          "name": "isActive",
          "type": "bool"
        }
      ],
      "stateMutability": "view",
      "type": "function"
    },
    {
      "inputs": [
        {
          "internalType": "bytes32",
          "name": "subjectIdHash",
          "type": "bytes32"
        },
        {
          "internalType": "bytes32",
          "name": "recordIdHash",
          "type": "bytes32"
        }
      ],
      "name": "retractTrusteeGrantsOnUnanchor",
      "outputs": [],
      "stateMutability": "nonpayable",
      "type": "function"
    },
    {
      "inputs": [
        {
          "internalType": "bytes32",
          "name": "voucheeIdHash",
          "type": "bytes32"
        }
      ],
      "name": "retractVouch",
      "outputs": [],
      "stateMutability": "nonpayable",
      "type": "function"
    },
    {
      "inputs": [
        {
          "internalType": "bytes32",
          "name": "recordIdHash",
          "type": "bytes32"
        },
        {
          "internalType": "address",
          "name": "targetWallet",
          "type": "address"
        }
      ],
      "name": "revokeRole",
      "outputs": [],
      "stateMutability": "nonpayable",
      "type": "function"
    },
    {
      "inputs": [
        {
          "internalType": "bytes32[]",
          "name": "recordIdHashes",
          "type": "bytes32[]"
        },
        {
          "internalType": "address",
          "name": "targetWallet",
          "type": "address"
        }
      ],
      "name": "revokeRoleBatch",
      "outputs": [],
      "stateMutability": "nonpayable",
      "type": "function"
    },
    {
      "inputs": [
        {
          "internalType": "bytes32",
          "name": "trustorIdHash",
          "type": "bytes32"
        },
        {
          "internalType": "bytes32",
          "name": "trusteeIdHash",
          "type": "bytes32"
        }
      ],
      "name": "revokeTrustee",
      "outputs": [],
      "stateMutability": "nonpayable",
      "type": "function"
    },
    {
      "inputs": [
        {
          "internalType": "bytes32",
          "name": "",
          "type": "bytes32"
        }
      ],
      "name": "roleGrantedBy",
      "outputs": [
        {
          "internalType": "bytes32",
          "name": "",
          "type": "bytes32"
        }
      ],
      "stateMutability": "view",
      "type": "function"
    },
    {
      "inputs": [
        {
          "internalType": "address",
          "name": "_healthRecordCore",
          "type": "address"
        }
      ],
      "name": "setHealthRecordCore",
      "outputs": [],
      "stateMutability": "nonpayable",
      "type": "function"
    },
    {
      "inputs": [
        {
          "internalType": "bytes32",
          "name": "userIdHash",
          "type": "bytes32"
        },
        {
          "internalType": "enum MemberRoleManager.MemberStatus",
          "name": "newStatus",
          "type": "uint8"
        }
      ],
      "name": "setUserStatus",
      "outputs": [],
      "stateMutability": "nonpayable",
      "type": "function"
    },
    {
      "inputs": [
        {
          "internalType": "bytes32",
          "name": "",
          "type": "bytes32"
        },
        {
          "internalType": "uint256",
          "name": "",
          "type": "uint256"
        }
      ],
      "name": "sharersByRecord",
      "outputs": [
        {
          "internalType": "bytes32",
          "name": "",
          "type": "bytes32"
        }
      ],
      "stateMutability": "view",
      "type": "function"
    },
    {
      "inputs": [],
      "name": "totalUsers",
      "outputs": [
        {
          "internalType": "uint256",
          "name": "",
          "type": "uint256"
        }
      ],
      "stateMutability": "view",
      "type": "function"
    },
    {
      "inputs": [
        {
          "internalType": "address",
          "name": "newAdmin",
          "type": "address"
        }
      ],
      "name": "transferAdmin",
      "outputs": [],
      "stateMutability": "nonpayable",
      "type": "function"
    },
    {
      "inputs": [
        {
          "internalType": "bytes32",
          "name": "",
          "type": "bytes32"
        },
        {
          "internalType": "bytes32",
          "name": "",
          "type": "bytes32"
        }
      ],
      "name": "trusteeRelationships",
      "outputs": [
        {
          "internalType": "enum MemberRoleManager.TrusteeStatus",
          "name": "status",
          "type": "uint8"
        },
        {
          "internalType": "enum MemberRoleManager.TrusteeLevel",
          "name": "level",
          "type": "uint8"
        }
      ],
      "stateMutability": "view",
      "type": "function"
    },
    {
      "inputs": [
        {
          "internalType": "bytes32",
          "name": "",
          "type": "bytes32"
        },
        {
          "internalType": "uint256",
          "name": "",
          "type": "uint256"
        }
      ],
      "name": "trusteesByTrustor",
      "outputs": [
        {
          "internalType": "bytes32",
          "name": "",
          "type": "bytes32"
        }
      ],
      "stateMutability": "view",
      "type": "function"
    },
    {
      "inputs": [
        {
          "internalType": "bytes32",
          "name": "trusteeIdHash",
          "type": "bytes32"
        },
        {
          "internalType": "enum MemberRoleManager.TrusteeLevel",
          "name": "newLevel",
          "type": "uint8"
        }
      ],
      "name": "updateTrusteeLevel",
      "outputs": [],
      "stateMutability": "nonpayable",
      "type": "function"
    },
    {
      "inputs": [
        {
          "internalType": "address",
          "name": "newImplementation",
          "type": "address"
        },
        {
          "internalType": "bytes",
          "name": "data",
          "type": "bytes"
        }
      ],
      "name": "upgradeToAndCall",
      "outputs": [],
      "stateMutability": "payable",
      "type": "function"
    },
    {
      "inputs": [
        {
          "internalType": "bytes32",
          "name": "",
          "type": "bytes32"
        }
      ],
      "name": "userStatus",
      "outputs": [
        {
          "internalType": "enum MemberRoleManager.MemberStatus",
          "name": "",
          "type": "uint8"
        }
      ],
      "stateMutability": "view",
      "type": "function"
    },
    {
      "inputs": [
        {
          "internalType": "bytes32",
          "name": "",
          "type": "bytes32"
        },
        {
          "internalType": "uint256",
          "name": "",
          "type": "uint256"
        }
      ],
      "name": "userWallets",
      "outputs": [
        {
          "internalType": "address",
          "name": "",
          "type": "address"
        }
      ],
      "stateMutability": "view",
      "type": "function"
    },
    {
      "inputs": [
        {
          "internalType": "bytes32",
          "name": "",
          "type": "bytes32"
        },
        {
          "internalType": "uint256",
          "name": "",
          "type": "uint256"
        }
      ],
      "name": "viewersByRecord",
      "outputs": [
        {
          "internalType": "bytes32",
          "name": "",
          "type": "bytes32"
        }
      ],
      "stateMutability": "view",
      "type": "function"
    },
    {
      "inputs": [
        {
          "internalType": "bytes32",
          "name": "recordIdHash",
          "type": "bytes32"
        }
      ],
      "name": "voluntarilyLeaveOwnership",
      "outputs": [],
      "stateMutability": "nonpayable",
      "type": "function"
    },
    {
      "inputs": [
        {
          "internalType": "bytes32",
          "name": "",
          "type": "bytes32"
        },
        {
          "internalType": "bytes32",
          "name": "",
          "type": "bytes32"
        }
      ],
      "name": "vouches",
      "outputs": [
        {
          "internalType": "enum MemberRoleManager.VouchStatus",
          "name": "",
          "type": "uint8"
        }
      ],
      "stateMutability": "view",
      "type": "function"
    },
    {
      "inputs": [
        {
          "internalType": "bytes32",
          "name": "",
          "type": "bytes32"
        },
        {
          "internalType": "uint256",
          "name": "",
          "type": "uint256"
        }
      ],
      "name": "vouchesGiven",
      "outputs": [
        {
          "internalType": "bytes32",
          "name": "",
          "type": "bytes32"
        }
      ],
      "stateMutability": "view",
      "type": "function"
    },
    {
      "inputs": [
        {
          "internalType": "bytes32",
          "name": "",
          "type": "bytes32"
        },
        {
          "internalType": "uint256",
          "name": "",
          "type": "uint256"
        }
      ],
      "name": "vouchesReceived",
      "outputs": [
        {
          "internalType": "bytes32",
          "name": "",
          "type": "bytes32"
        }
      ],
      "stateMutability": "view",
      "type": "function"
    },
    {
      "inputs": [
        {
          "internalType": "address",
          "name": "",
          "type": "address"
        }
      ],
      "name": "wallets",
      "outputs": [
        {
          "internalType": "bytes32",
          "name": "userIdHash",
          "type": "bytes32"
        },
        {
          "internalType": "bool",
          "name": "isWalletActive",
          "type": "bool"
        }
      ],
      "stateMutability": "view",
      "type": "function"
    }
  ],
  "bytecode": "0x60a08060405234620000d157306080527ff0c57e16840df040f15088dc2f81fe391c3923bec73e23a9662efc9c229c6a009081549060ff8260401c16620000c257506001600160401b036002600160401b0319828216016200007c575b604051615de49081620000d68239608051818181612f54015261337f0152f35b6001600160401b031990911681179091556040519081527fc7f505b2f371ae2175ee4913f4499e1f2633a7b5936321eed1cdaeb6115181d290602090a15f80806200005c565b63f92ee8a960e01b8152600490fd5b5f80fdfe6080604090808252600480361015610015575f80fd5b5f3560e01c918262b0c809146145375750816302ba81091461433a578163033e822f146143115781630519e2a0146142eb5781630a296a7b146142d95781630b3ffd1d1461421c578163259ed80e146141f757816329c9087a14613b145781632ab5d8f314613aeb5781632ae8511d1461396257816330d7265c1461388e57816333105592146138515781633befa4101461383657816341a51baa1461380d578163422a5bb8146137d957816343e197041461378757816345ecd02f1461376757816349df7208146136275781634d3c4a7c1461352c5781634f1ef2861461332f57816351eed47214612fb857816352d1902d14612f41578163557ee54f14612ea55781635581607914612e75578163562c788e146109f757816364f639d414612e5a57816368309c8914612e2a57816369ac202214612c375781636b4bed971461066b5781636fee32fa14612b74578163726d54471461285457816373c19c8d1461275757816375829def146126d957816378ad8f5b146126355781637b657d07146125f85781638129fc1c146124db5781638776cd35146124ab5781638806e5911461248257816389b08f111461243d5781638db7edb4146123ee57816393ccfba8146123be5781639443cd801461237857816396207e021461223457816396a03f8d146122045781639915b91f1461218c5781639be572f614611e66578163aaddc34514612160578163ab48384a1461205b578163ad3cb1cc14612017578163b8cab84b14611f39578163bb0f86d514611e82578163bff1f9e114611e66578163c36dc9ef14611e3d578163c497d84014611e0e578163c715582314611d92578163c88c35fe14611d6c578163c979c9bf14611add578163cb261a0314611aaf578163cda06c6e14611a88578163d12a7768146119d9578163d1f616dd146119b0578163d547741f146114f4578163db54f7b7146112d1578163dc9f9664146110c1578163dde492ea14610cb1578163dff1bea014610c76578163e6efcd5d14610a1f578163e94ed257146109f7578163f12b9ad31461069a578163f29e007b1461066b578163f32b10f01461063b578163f50936c9146105fb578163f76794f11461040357508063f851a440146103dc578063fc78f177146103a45763fdd9887e14610363575f80fd5b346103a057610371366147dc565b91905f52600d602052805f2080548310156103a057602092610392916149a9565b91905490519160031b1c8152f35b5f80fd5b50346103a0576020906103b6366147dc565b905f5260108352815f20905f52825260ff815f2054169051906103d8816147f2565b8152f35b50346103a0575f3660031901126103a0575f5490516001600160a01b039091168152602090f35b82346103a057602091826003193601126103a05780359261042b6104263361523b565b6149ff565b335f52600193848252835f205492815f52600c8352845f20845f528352845f209081549160ff918860ff8516610460816149d2565b036105b85760ff1980941617905584837fc1f9bda0602b12c2f11218f87531038a6957666101c4faad39c882dcc5093dc6868951428152a3825f52600e8452855f20855f528452855f20875f905b6104d0575b6104ce888888885f52600e8152825f20915f52525f20615100565b005b81548110156105b357908882888a6104eb84989796866149a9565b90549060031b1c895f52600f8b52815f20835f528b52815f20815f528b52815f2088815416905561051c8382615396565b5f528a60058082528887855f20015416156105a9578493600b5f80516020615d6f8339815191529361054e8787615396565b93845f52808252610560845f2061488a565b9461056c868a8a615517565b5f52815289835f20018d8154169055525f818120558d610595825193838594855284019061492c565b9042908301520390a45b01909192936104ae565b505050505061059f565b6104b3565b875162461bcd60e51b8152908101869052601e60248201527f4e6f2070656e64696e672070726f706f73616c20746f206465636c696e6500006044820152606490fd5b82346103a05760203660031901126103a05761063791355f526012602052610624815f20614ad2565b90519182916020835260208301906147a9565b0390f35b82346103a05761064a366147dc565b91905f526008602052805f2080548310156103a057602092610392916149a9565b82346103a05760203660031901126103a057602091355f526002825260ff815f2054169051906103d8816149d2565b82346103a057806003193601126103a05781356001600160401b0381116103a0576106c89036908401614619565b916106d1614581565b6106dd6104263361523b565b6001600160a01b03169081156109c35750335f52600192602060018152835f2054925f52835f205491610711831515614a86565b855f9584861415915b61072057005b82518710156104ce5787876107408761073a849b88615071565b51615782565b156109be57878761075b81610755858a615071565b51615396565b805f526005808a5261076e875f2061488a565b91858b8a8c865183880120610781614d20565b84815191012081146109af576107a18961079b8785615071565b51615428565b6109af5787938993610885575b6107b6614d41565b80519101201461082c575b6107d4936107ce91615071565b51615517565b5f52895284865f200160ff198154169055600b89525f868120555f80516020615d6f83398151915261081c610809868b615071565b519288519182918a83528a83019061492c565b428d8301520390a45b019661071a565b9050610839929150615071565b515f5260068b52858a895f20541580610865575b610859578585916107c1565b50505050505050610825565b509061087091615071565b515f5260078b52858a888a5f2054111561084d565b925092508b6108a76108978684615071565b518b6108a1614d20565b916153ca565b8a6108bf6108b58886615071565b51826108a1614d41565b928a8c6108ca614d8c565b88815191012089148015610999575b15610929575050885f52600b86525f20541490159182610920575b5081610917575b5061090957869288926107ae565b505050505050505050610825565b9050155f6108fb565b1591505f6108f4565b9693925096939050610939614d41565b838151910120841461094d575b50506107ae565b91945091945061095d8684615071565b515f908152600685528e902054156109815750155b61090957869288925f80610946565b90159081610990575b50610972565b9050155f61098a565b506109a2614d6a565b88815191012089146108d9565b50505050505050505050610825565b610825565b606490602084519162461bcd60e51b8352820152600e60248201526d125b9d985b1a59081dd85b1b195d60921b6044820152fd5b82346103a0575f3660031901126103a057600a5490516001600160a01b039091168152602090f35b82346103a057610a2e366147dc565b91610a4360018060a01b035f54163314614b71565b8115610c4257610a5483151561516c565b610a60838314156151aa565b815f526002602081815260ff835f205416610a7a816149d2565b15610c0757845f52818152610a9f60ff845f205416610a98816149d2565b15156151f6565b835f52600c8152825f20855f52815260ff835f20541695610abf876149d2565b861590818015610bf4575b15610ba25750610afc7fc5b2e1bd4433eb4e9e181cc803520513d39d918c96bddeebca1224e1c750963d9596976149d2565b610b8a575b610b4e8351610b0f81614597565b838152828101848152875f52600c8452855f20895f528452610b3e865f209251610b38816149d2565b83614fa5565b5190610b49826147f2565b61502b565b85857f494d010fdf588a0e83d626ea6963187bdda6f88b7007f7bf280683d3f7dea8348580518681524286820152a382519182524290820152a3005b845f52600d8152610b9d86845f20615130565b610b01565b845162461bcd60e51b8152908101839052602660248201527f52656c6174696f6e7368697020616c726561647920616374697665206f722070604482015265656e64696e6760d01b6064820152608490fd5b50610bfe886149d2565b60038814610aca565b8560649184519162461bcd60e51b83528201526016602482015275151c9d5cdd1bdc881b9bdd081c9959da5cdd195c995960521b6044820152fd5b5162461bcd60e51b8152602081850152600f60248201526e24b73b30b634b2103a393ab9ba37b960891b6044820152606490fd5b82346103a057602090610c88366147dc565b905f5260108352815f20905f528252600160ff825f20541691610caa836147f2565b5191148152f35b9050346103a057610cc136614810565b919290610cd06104263361523b565b610cdb841515614bee565b6001600160a01b031692610cf0841515614c3a565b610d01610cfc8461531e565b614c86565b335f5260209160018352855f2054945f52855f205492610d22841515614a86565b845181860120610d328785615396565b5f526005825260ff6001895f200154161561108057835f5260068252875f2054151590610d67610d60614d20565b89876153ca565b91610d7a610d73614d41565b8a886153ca565b91610d8d610d86614d6a565b8b896153ca565b90610d96614d20565b8051908701208103610ed457505015610e7a575015610e38575b610dba8484615396565b5f526005815260ff6001885f20015416610dda5750506104ce9450615886565b865162461bcd60e51b815291820152603360248201527f54617267657420616c726561647920686173206120726f6c652e2055736520636044820152721a185b99d9549bdb194a0a481a5b9cdd195859606a1b606482015260849150fd5b865162461bcd60e51b815291820181905260248201527f4f6e6c79206f776e6572732063616e206772616e74206f776e657220726f6c65604482015260649150fd5b9050610db057865162461bcd60e51b815291820152602960248201527f4f6e6c792061646d696e6973747261746f72732063616e206772616e742066696044820152683939ba1037bbb732b960b91b606482015260849150fd5b90929150610ee0614d41565b8051908601208103610f58575090508115610f50575b50610db057865162461bcd60e51b815291820152603b60248201525f80516020615d8f83398151915260448201527f616e206772616e742061646d696e6973747261746f7220726f6c650000000000606482015260849150fd5b90505f610ef6565b610f60614d6a565b8051908601208103610fcf575090508115610fc7575b50610db057865162461bcd60e51b815291820152603460248201525f80516020615d8f833981519152604482015273616e206772616e742073686172657220726f6c6560601b606482015260849150fd5b90505f610f76565b610fd7614d8c565b85815191012014610feb575b505050610db0565b8215611078575b508115611070575b5015611008575f8080610fe3565b865162461bcd60e51b815291820152603e60248201527f4f6e6c79206f776e6572732c2061646d696e6973747261746f72732c20616e6460448201527f20736861726572732063616e206772616e742076696577657220726f6c650000606482015260849150fd5b90505f610ffa565b91505f610ff2565b60648383808b519262461bcd60e51b845283015260248201527f596f752068617665206e6f20726f6c6520666f722074686973207265636f72646044820152fd5b9050346103a05760603660031901126103a057803560243560038110156103a0576044356001600160401b0381116103a0576111009036908501614619565b9161110d6104263361523b565b335f52600193602060018152865f20549161112984151561516c565b611135848414156151aa565b835f526002825261114f60ff895f205416610a98816149d2565b825f52600c8252875f20845f52825260ff885f20541661116e816149d2565b8015918280156112be575b80156112ac575b1561125b57508798859385936111b67f494d010fdf588a0e83d626ea6963187bdda6f88b7007f7bf280683d3f7dea834946149d2565b611243575b6111fc82516111c981614597565b600181528281016111d98b6147f2565b8a8152865f52600c8452845f20885f528452610b3e855f209251610b38816149d2565b815190611208896147f2565b8882524290820152a35f945b61121a57005b83518510156104ce57858561123c858585611236869b8b615071565b516155c2565b0194611214565b835f52600d815261125685835f20615130565b6111bb565b895162461bcd60e51b8152908101849052602560248201527f50726f706f73616c20616c726561647920657869737473206f722069732070656044820152646e64696e6760d81b6064820152608490fd5b506112b6826149d2565b808214611180565b506112c8826149d2565b60038214611179565b9050346103a0576020806003193601126103a0578135926112f46104263361523b565b335f5260018252805f20549284156114c15784841461148057845f526002835260ff825f205416611324816149d2565b8160028214918215611468575b8215611454575b50501561141457835f5260108352815f20855f528352600160ff835f205416611360816147f2565b146113d35750907fbc7e6071d162923d46a4378af39747cea2ccb6f4a57f09aefc6e92047c5bf1be91835f5260108252805f20855f528252805f20600160ff19825416179055835f52601182526113b985825f20615130565b845f52601282526113cc84825f20615130565b51428152a3005b82606492519162461bcd60e51b8352820152601e60248201527f416c726561647920766f756368696e6720666f722074686973207573657200006044820152fd5b8280606493519262461bcd60e51b845283015260248201527f566f7563686565206d75737420626520616e20616374697665206d656d6265726044820152fd5b909150611460816149d2565b14815f611338565b80925061147591506149d2565b816003821491611331565b82606492519162461bcd60e51b8352820152601960248201527f43616e6e6f7420766f75636820666f7220796f757273656c66000000000000006044820152fd5b82606492519162461bcd60e51b8352820152600f60248201526e496e76616c696420766f756368656560881b6044820152fd5b82346103a057806003193601126103a057813561150f614581565b61151b6104263361523b565b611526821515614bee565b6001600160a01b03169261153b841515614c3a565b335f5260209260018452805f2054945f52805f20549361155c851515614a86565b6115668585615396565b805f526005825261157f60ff6001855f20015416614cc8565b805f5260058252611591835f2061488a565b938451838601206115a0614d20565b8481519101208114611939576115b68888615428565b6118aa578789036116c4575b6115ca614d41565b8481519101201461162f575b50908392916115f45f80516020615d6f833981519152958888615517565b5f52600581526001825f200160ff198154169055600b81525f82812055611624825193838594855284019061492c565b9042908301520390a4005b855f52600783526001845f20541160068452845f2054151581156116bc575b506115d657835162461bcd60e51b8152908101839052603960248201527f43616e6e6f74207265766f6b65206c6173742061646d696e6973747261746f7260448201527f20776974686f757420616e206f776e65722070726573656e74000000000000006064820152608490fd5b90508961164e565b6116d66116cf614d20565b8a896153ca565b6116e86116e1614d41565b8b8a6153ca565b845f52600b86528a875f205414906116fe614d8c565b87815191012084148015611894575b156117b95782156117b1575b5081156117a9575b501561172d575b6115c2565b845162461bcd60e51b8152808301859052604a60248201527f4f6e6c79206f776e6572732c2061646d696e6973747261746f72732c206f722060448201527f746865206772616e7465722063616e207265766f6b65207669657765722f73686064820152696172657220726f6c657360b01b608482015260a490fd5b90508a611721565b91508b611719565b82159291508261188c575b501561184457156115c2576117d7614d41565b848151910120810361172857865f5260068452845f20541561172857845162461bcd60e51b8152808301859052602560248201527f4f6e6c79206f776e6572732063616e207265766f6b652061646d696e6973747260448201526461746f727360d81b6064820152608490fd5b855162461bcd60e51b8152808401869052602f60248201525f80516020615d8f83398151915260448201526e616e207265766f6b6520726f6c657360881b6064820152608490fd5b90508b6117c4565b5061189d614d6a565b878151910120841461170d565b845162461bcd60e51b8152808301859052605760248201527f43616e6e6f74207265766f6b6520616e20616374697665207375626a6563742760448201527f7320726f6c652e20416374697665207375626a65637473206d75737420686f6c60648201527f64206174206c656173742073686172657220726f6c652e000000000000000000608482015260a490fd5b845162461bcd60e51b8152808301859052604560248201527f4f776e6572732063616e6e6f74206265207265766f6b65642e204f776e65722060448201527f6d7573742075736520766f6c756e746172696c794c656176654f776e6572736860648201526434b814149760d91b608482015260a490fd5b82346103a05760203660031901126103a05761063791355f52600d602052610624815f20614ad2565b9050346103a057602090816003193601126103a0578290355f5260038252805f208151928381835491828152019081935f52825f20905f5b818110611a6b5750505084611a279103856145e1565b825181815293518185018190528493840192915f5b828110611a4b57505050500390f35b83516001600160a01b031685528695509381019392810192600101611a3c565b82546001600160a01b031684529284019260019283019201611a11565b82346103a05760203660031901126103a057602091355f52600b8252805f20549051908152f35b82346103a05760203660031901126103a057602090611ad4611acf61456b565b615af4565b90519015158152f35b82346103a057611aec366147dc565b9092611afa6104263361523b565b335f52600193602091858352845f2054908282148015611d63575b15611d2257825f52600c8452855f20855f52845260ff9060ff875f205416611b3c816149d2565b8860028214918215611d0e575b505015611cc15750825f52600c8452855f20855f528452855f2090600360ff19926003848254161790558387867f6df3a6475fab2eed139f7e469995b04e85bfc5b4b8642587109cb72541f74fae898c51428152a4845f52600e8652875f20875f528652875f20895f905b611bd4575b6104ce8a8a8a8a5f52600e8152825f20915f52525f20615100565b8154811015611cbc57908a82878b8d8c611bf3869c9b9a9998886149a9565b905490891b1c918d5f52600f8252805f20845f528252805f20835f528252805f208b8154169055611c248484615396565b5f526005908183528a88825f2001541615611cb1575f80516020615d6f83398151915292611c528686615396565b92835f52808252611c64835f2061488a565b93611c70858989615517565b5f52815288825f20018d8154169055600b81525f82812055611c9b825193838594855284019061492c565b9042908301520390a45b01909192939495611bb4565b505050505050611ca5565b611bb9565b865162461bcd60e51b8152908101859052602160248201527f4e6f20616374697665206f722070656e64696e672072656c6174696f6e7368696044820152600760fc1b6064820152608490fd5b909150611d1a816149d2565b14888a611b49565b606490848088519262461bcd60e51b845283015260248201527f4e6f74206120706172747920746f20746869732072656c6174696f6e736869706044820152fd5b50848214611b15565b82346103a057806003193601126103a057611ad4602092611d8b614581565b90356150c3565b82346103a05760203660031901126103a0577fce59ad7d6dabe8a7533ed7d9bd07d276a046ac7ac9a8e8e8971da4b81104a28b6020611dcf61456b565b5f546001600160a01b039190611de89083163314614b71565b1692611df5841515615085565b600a80546001600160a01b0319168517905551428152a2005b82346103a05761063790611e21366147dc565b905f52600e602052815f20905f52602052610624815f20614ad2565b82346103a05760203660031901126103a05761063791355f526006602052610624815f20614ad2565b82346103a0575f3660031901126103a057602091549051908152f35b9050346103a05760203660031901126103a057611e9d61456b565b5f546001600160a01b039190611eb69083163314614b71565b16805f5260019182602052611ecf845f20541515614baa565b815f528260205260ff83855f20015416611efe57509181925f52816020525f20019060ff198254161790555f80f35b606490602085519162461bcd60e51b8352820152601560248201527457616c6c657420616c72656164792061637469766560581b6044820152fd5b82346103a057602090816003193601126103a057823591611f5c6104263361523b565b335f5260018152815f205493835f52600c8252825f20855f528252825f2090815490600160ff8316611f8d816149d2565b03611fde575060ff19166002179081905582517fc5b2e1bd4433eb4e9e181cc803520513d39d918c96bddeebca1224e1c750963d9392909160081c60ff16611fd4816147f2565b82524290820152a3005b845162461bcd60e51b81529081018490526013602482015272139bc81c195b991a5b99c81c1c9bdc1bdcd85b606a1b6044820152606490fd5b82346103a0575f3660031901126103a05780516106379161203782614597565b60058252640352e302e360dc1b60208301525191829160208352602083019061492c565b9050346103a05761206b3661498a565b916120786104263361523b565b335f526001602052835f205490815f52600c602052845f20835f52602052845f2060ff81546120b460028383166120ae816149d2565b14614fdf565b60081c16916120c2866147f2565b6120cb836147f2565b85831461211d57507fb36ec3c738ef8ecd9180addc815304762374b76e91c2a321831d9906ea119ade61211585936104ce9861210889889661502b565b519182918942918461504a565b0390a36156ad565b606490602088519162461bcd60e51b8352820152601860248201527f416c72656164792074686973207472757374206c6576656c00000000000000006044820152fd5b82346103a05760209061217b612175366147dc565b90615396565b5f52600b8252805f20549051908152f35b82346103a05761219b366147dc565b905f52600c602052815f20905f52602052805f2061063760ff8351926121c084614597565b548181166121cd816149d2565b845260081c169160208101926121e2816147f2565b835251916121ef836149d2565b51926121fa846147f2565b51928392836149dc565b82346103a057612213366147dc565b91905f526012602052805f2080548310156103a057602092610392916149a9565b82346103a057806003193601126103a05781359060243560058110156103a05761226860018060a01b035f54163314614b71565b825f5260206002815260ff835f205416612281816149d2565b1561234057835f526002815260ff835f2054169461229e836149d2565b6122a7866149d2565b8286146123095750835f52600281526122c282845f20614fa5565b8251946122ce816149d2565b85526122d9826149d2565b84015242908301527ff6277c6ee46649823db9a5c531db3112b4340c67179cae1932ba3420dcc37cc760603393a3005b60649184519162461bcd60e51b83528201526013602482015272416c726561647920746869732073746174757360681b6044820152fd5b8460649184519162461bcd60e51b83528201526013602482015272155cd95c881b9bdd081c9959da5cdd195c9959606a1b6044820152fd5b82346103a057612387366147dc565b91905f526003602052805f2080548310156103a0576020926123a8916149a9565b60018060a01b0391549060031b1c169051908152f35b82346103a0576123cd366147dc565b91905f526009602052805f2080548310156103a057602092610392916149a9565b82346103a0576020806003193601126103a057608092355f5260068152815f20549160078252805f20549060088352805f20549160098452815f20549382519586528501528301526060820152f35b82346103a05760203660031901126103a0576001600160a01b0361245f61456b565b165f526001602052805f2060ff6001825492015416825191825215156020820152f35b82346103a05760203660031901126103a05761063791355f526011602052610624815f20614ad2565b82346103a0576124ba366147dc565b91905f526007602052805f2080548310156103a057602092610392916149a9565b9050346103a0575f3660031901126103a0577ff0c57e16840df040f15088dc2f81fe391c3923bec73e23a9662efc9c229c6a0090815460ff81851c1615916001600160401b038216801590816125f0575b60011490816125e6575b1590816125dd575b506125cf575067ffffffffffffffff1981166001178355816125b0575b505f80546001600160a01b0319163317905561257357005b805468ff00000000000000001916905551600181527fc7f505b2f371ae2175ee4913f4499e1f2633a7b5936321eed1cdaeb6115181d290602090a1005b68ffffffffffffffffff1916680100000000000000011782555f61255b565b845163f92ee8a960e01b8152fd5b9050155f61253e565b303b159150612536565b84915061252c565b82346103a0576106379061260b366147dc565b905f52600c602052815f20905f52602052805f20549051918160ff80859460081c169116836149dc565b82346103a057602091826003193601126103a0576126b19261063791355f52600681526126cb835f209360078352805f2094600884526126be825f20946009815261269d61269761269161268b875f2096614ad2565b9a614ad2565b97614ad2565b93614ad2565b958451998a9960808b5260808b01906147a9565b91898303908a01526147a9565b91868303908701526147a9565b9083820360608501526147a9565b82346103a05760203660031901126103a0576020906126f661456b565b5f5491906001600160a01b03808416917f38df5fa0f7fef0d515ca1f5388cb5790ac5885d5fca8d05d9f943e563c33a4b39190612734338514614b71565b16948593612743851515615085565b51428152a36001600160a01b031916175f55005b9050346103a0576020806003193601126103a05781359261277a6104263361523b565b335f5260018252805f205492835f5260108352815f20855f528352600160ff835f2054166127a7816147f2565b036128135750907f0972fd04571d170dafa6fe5d3822da50a1fd8596d166c4ca101dff5fc760533e91835f5260108252805f20855f528252805f20600260ff19825416179055835f526011825261280085825f20615a5d565b845f52601282526113cc84825f20615a5d565b82606492519162461bcd60e51b8352820152601d60248201527f4e6f2061637469766520766f75636820666f72207468697320757365720000006044820152fd5b9050346103a05761286436614810565b93909260018060a01b0361287c815f54163314614b71565b612887841515614bee565b8416612894811515614e96565b6128a0610cfc8761531e565b5f5260016020918183526128c2845f2054966128bd881515614baa565b61523b565b15612b3157845f5260068352835f20541580612b22575b15612adf576128e88686615396565b91825f5260058452845f209160ff826129008561488a565b940154169186519161291183614597565b8a835286830190828252865f5260058852885f2093518051916001600160401b038311612acc57506129438554614852565b601f8111612a86575b508890601f8311600114612a1f5761299395949392915f9183612a14575b50505f19600383901b1c191690831b1783555b51151591019060ff801983541691151516179055565b6129e75750915f95917ff9d17eb1340ab78960b594ff8bed1349985b800ee21199c6d5ea4a67454593ad938752600b815286828120556129d4838787615c32565b611624825193838594855284019061492c565b9594939250508451818601209084519085012003612a0157005b612a0f6104ce948383615517565b615c32565b015190505f8061296a565b90601f19831691865f528a5f20925f5b8c828210612a72575050918695949291836129939998959310612a5a575b505050811b01835561297d565b01515f1960f88460031b161c191690555f8080612a4d565b838501518655948801949384019301612a2f565b855f52895f20601f840160051c8101918b8510612ac2575b601f0160051c019085905b828110612ab757505061294c565b5f8155018590612aa9565b9091508190612a9e565b604190634e487b7160e01b5f525260245ffd5b835162461bcd60e51b8152908101839052601a60248201527f5265636f726420616c726561647920696e697469616c697a65640000000000006044820152606490fd5b5060078352835f2054156128d9565b835162461bcd60e51b8152908101839052601860248201527f4d75737420626520616e20616374697665206d656d62657200000000000000006044820152606490fd5b82346103a057612b83366147dc565b612b9860018060a01b03600a54163314614dae565b815f526020600d602052835f20925f5b84548110156104ce5780612bbe600192876149a9565b90549060031b1c835f52600c8552875f20815f5285526002885f20895190612be582614597565b5460ff90818116612bf5816149d2565b835260081c16612c04816147f2565b8782015251612c12816149d2565b612c1b816149d2565b03612c3157612c2b90848761578c565b01612ba8565b50612c2b565b82346103a057806003193601126103a0576001600160401b039082358281116103a057366023820112156103a057808401359283116103a05760246005913660248660051b830101116103a0575f546001600160a01b03966024359591612ca19089163314614b71565b8615612df257612cb2861515614edb565b855f526002936020936002855260ff845f205416612ccf816149d2565b15965f5b8a8110612cdc57005b8381831b84010135908c8216918281036103a05782612d638d92612d036001961515614e96565b825f52612d548b8d8890818152612d1d835f205415614f1e565b825192612d2984614597565b8884528282850192818452895f52525f209251835551151591019060ff801983541691151516179055565b835f5260038c528a5f20614f6a565b821580612deb575b15612dbe57815f528a8a52885f208b60ff19825416179055612d8d8854614fbd565b88557f39d132591ee0696de49ab564e4a90e430c006561917db731a2a614dd2d2455918a8a51428152a35b01612cd3565b7f1cc138f50384be7770a8e4a34eecaa0d0c718bfaa1641af49db32532e4a5b9108a8a51428152a3612db8565b508b612d6b565b6020606492519162461bcd60e51b83528201526013602482015272139bc81dd85b1b195d1cc81c1c9bdd9a591959606a1b6044820152fd5b82346103a057612e39366147dc565b91905f526011602052805f2080548310156103a057602092610392916149a9565b82346103a057602090611ad4612e6f366147dc565b90615428565b82346103a057612e84366147dc565b91905f526006602052805f2080548310156103a057602092610392916149a9565b82346103a057602090612eb7366147dc565b905f52600c8352815f20905f528252805f2090600260ff825193612eda85614597565b54818116612ee7816149d2565b855260081c169284810193612efb816147f2565b845251612f07816149d2565b612f10816149d2565b149182612f21575b50519015158152f35b600291925051612f30816147f2565b612f39816147f2565b149083612f18565b82346103a0575f3660031901126103a0577f00000000000000000000000000000000000000000000000000000000000000006001600160a01b03163003612fab57602090517f360894a13ba1a3210667c828492db98dca3e2076cc3735a920a3ca505d382bbc8152f35b5163703e46dd60e11b8152fd5b82346103a057612fc7366146dc565b90612fd46104263361523b565b612fe18351835114614a42565b335f52600193602091858352815f20549060018060a01b03165f52815f20549061300c821515614a86565b865f96838314915b61301a57005b80518810156104ce578888613030829a84615071565b5161303b828b615071565b516130458161531e565b15613328576130548783615396565b5f526005808b5260ff80868c5f200154161561331f576130748a85615396565b5f52818c52858b5f20015416156133175761308f8984615396565b5f528a5261309e895f2061488a565b9088888c8451818601208d855183870120908183146131aa576130bf614d20565b84815191012083146131aa57885f52600684525f2054159182156130eb6130e4614d20565b878c6153ca565b906130fe6130f7614d41565b888d6153ca565b9061310c8c896108a1614d6a565b613114614d20565b80519089012086036131cc5750156131b85750156131aa575b613135614d41565b848151910120149283613190575b505081613188575b5080613170575b6131665761315f946154b2565b0197613014565b505050505061315f565b505050825f5260078b528888868c5f20541115613152565b90505f61314b565b9091925061319c614d8c565b805191012014905f8f613143565b50505050505050505061315f565b905061312d5750505050505050505061315f565b9192906131d7614d41565b8051908901208603613202575090501590816131f9575b506131aa575b61312d565b9050155f6131ee565b61320a614d6a565b8051908901208603613286571561325257159182613249575b508161323357506131aa5761312d565b905080613242575b155f6131ee565b508c61323b565b1591505f613223565b5090159081613270575b50156131f45750505050505050505061315f565b90508061327f575b155f61325c565b508c613278565b61328e614d8c565b88815191012086146132a4575b5050505061312d565b15613303571591826132eb575b50816132d5575b506131aa575b6132c8868a615428565b6131aa575f80808061329b565b9050806132e4575b155f6132b8565b508c6132dd565b909150806132fc575b15905f6132b1565b508d6132f4565b50506132be5750505050505050505061315f565b50505061315f565b5050505061315f565b505061315f565b9050816003193601126103a05761334461456b565b916024356001600160401b0381116103a057366023820112156103a0576133749036906024818601359101614679565b906001600160a01b037f000000000000000000000000000000000000000000000000000000000000000081163081149081156134fe575b506134ee576133be815f54163314614b71565b8416918151946352d1902d60e01b86526020868681875afa5f96816134ba575b506133fa57505051634c9c8ce360e01b81529182015260249150fd5b838593877f360894a13ba1a3210667c828492db98dca3e2076cc3735a920a3ca505d382bbc908181036134a45750833b1561348d5780546001600160a01b0319168317905551907fbc7cd75a20ee27fd9adebab32041f755214dbc6bffa90cc0225b39da2e5c2d3b5f80a282511561347757506104ce9250615cdd565b9150503461348157005b63b398979f60e01b8152fd5b8151634c9c8ce360e01b8152808701849052602490fd5b86602491845191632a87526960e21b8352820152fd5b9096506020813d6020116134e6575b816134d6602093836145e1565b810103126103a05751955f6133de565b3d91506134c9565b815163703e46dd60e11b81528490fd5b9050817f360894a13ba1a3210667c828492db98dca3e2076cc3735a920a3ca505d382bbc541614155f6133ab565b9050346103a05761353c3661498a565b919061354a6104263361523b565b335f526001602052835f205491815f52600c602052845f20835f52602052845f2060ff815461358060028383166120ae816149d2565b613589876147f2565b60081c1691613597836147f2565b8260ff871610156135d857507fb36ec3c738ef8ecd9180addc815304762374b76e91c2a321831d9906ea119ade61211585936104ce9861210889889661502b565b608490602088519162461bcd60e51b8352820152602360248201527f43616e206f6e6c7920646f776e677261646520746f2061206c6f776572206c656044820152621d995b60ea1b6064820152fd5b82346103a057806003193601126103a05761364061456b565b916024359260018060a01b0361365a815f54163314614b71565b811692613668841515614e96565b613673851515614edb565b835f526136d86020926001845261368d835f205415614f1e565b6136c9835161369b81614597565b8881526001868201818152895f52818852865f209251835551151591019060ff801983541691151516179055565b865f5260038452825f20614f6a565b845f526002825260ff815f2054166136ef816149d2565b61373d577f39d132591ee0696de49ab564e4a90e430c006561917db731a2a614dd2d24559192855f5260028352815f20600260ff198254161790556137348154614fbd565b905551428152a3005b7f1cc138f50384be7770a8e4a34eecaa0d0c718bfaa1641af49db32532e4a5b910925051428152a3005b82346103a05760203660031901126103a057602090611ad46128bd61456b565b82346103a05760209061379c612175366147dc565b5f5260058252610637815f209180516137b481614597565b60ff60016137c18661488a565b9586845201541615159485910152519283928361496a565b82346103a057806003193601126103a057613800610637926137f9614581565b9035614e1e565b929091519283928361496a565b82346103a05760203660031901126103a05761063791355f526007602052610624815f20614ad2565b82346103a057602090611ad461384b36614810565b91614df2565b9050346103a05760203660031901126103a057355f526005602052805f2061063760ff600161387f8461488a565b9301541692519283928361496a565b82346103a05761389d366147dc565b6138b260018060a01b03600a54163314614dae565b815f52602090600d602052835f20935f5b85548110156104ce57806138d9600192886149a9565b90549060031b1c865f52600c8652835f20815f528652835f2090600285519261390184614597565b5460ff90818116613911816149d2565b855260081c169288810193613925816147f2565b845251613931816149d2565b61393a816149d2565b0361395b5761395591519061394e826147f2565b88876155c2565b016138c3565b5050613955565b82346103a0576020806003193601126103a0578235916139846104263361523b565b61398f831515614bee565b335f5260018252805f2054936139ad6139a6614d20565b86866153ca565b15613a9e57835f52600683526001825f20541160078452825f205415158115613a96575b5015613a3b5750907f68f37cc4a32f0b24153ce9237b344b20a9717039f90d7c24f35e5c217f03e16891613a058585615396565b613a17613a10614d20565b8787615517565b5f52600582526001815f200160ff198154169055600b82525f8181205551428152a3005b82608492519162461bcd60e51b8352820152603160248201527f43616e6e6f74206c65617665206173206c617374206f776e65722077697468206044820152706e6f2061646d696e6973747261746f727360781b6064820152fd5b9050866139d1565b82608492519162461bcd60e51b8352820152602360248201527f596f7520617265206e6f7420616e206f776e6572206f662074686973207265636044820152621bdc9960ea1b6064820152fd5b82346103a05760203660031901126103a05761063791355f526008602052610624815f20614ad2565b9050346103a057613b2436614810565b919290613b336104263361523b565b613b3e841515614bee565b6001600160a01b0316613b52811515614c3a565b613b5e610cfc8461531e565b335f5260209360018552855f2054915f52855f205492613b7f841515614a86565b84518686012095613b908584615396565b805f5260058252613ba960ff60018b5f20015416614cc8565b5f5260058152613bba885f2061488a565b96875182890120908082146141b457613bd1614d20565b838151910120821461413f57845f5260068352895f205415918215613bfe613bf7614d20565b89896153ca565b90613c11613c0a614d41565b8a8a6153ca565b90613c24613c1d614d6a565b8b8b6153ca565b8b8b14613c2f614d20565b8051908a01208703613dac57505015613d4f575015613d0e575b613c51614d41565b848151910120149081613cf7575b50613c72575b5050506104ce95506154b2565b613c7d575b80613c65565b825f52600781526001885f205411613c7757875162461bcd60e51b815291820152603960248201527f43616e6e6f742064656d6f746520746865206c6173742061646d696e6973747260448201527f61746f72207768656e206e6f206f776e65722065786973747300000000000000606482015260849150fd5b9050613d01614d8c565b838151910120145f613c5f565b60648585808e519262461bcd60e51b845283015260248201527f4f6e6c79206f776e6572732063616e2070726f6d6f746520746f206f776e65726044820152fd5b9050613c49578a5162461bcd60e51b8152808601859052602b60248201527f4f6e6c792061646d696e6973747261746f72732063616e2070726f6d6f74652060448201526a3334b939ba1037bbb732b960a91b6064820152608490fd5b9091613db6614d41565b8051908a01208703613e36575050508115613e2e575b5015613dd8575b613c49565b8a5162461bcd60e51b8152808601859052603b60248201525f80516020615d8f83398151915260448201527f616e2070726f6d6f746520746f2061646d696e6973747261746f7200000000006064820152608490fd5b90505f613dcc565b613e4293919293614d6a565b8051908a01208703613f815715613f05578315613efd575b508215613ee4575b5050613c49578a5162461bcd60e51b8152808601859052605f60248201525f80516020615d8f83398151915260448201527f616e206368616e6765206f746865727320746f207368617265722e205368617260648201527f6572732063616e206f6e6c792064656d6f7465207468656d73656c7665732e00608482015260a490fd5b90915081613ef5575b505f80613e62565b90505f613eed565b92505f613e5a565b92508215613f68575b5050613dd3578a5162461bcd60e51b8152808601859052602860248201527f4f6e6c792061646d696e6973747261746f72732063616e206368616e67652074604482015267379039b430b932b960c11b6064820152608490fd5b90915081613f79575b505f80613f0e565b90505f613f71565b613f89614d8c565b8981519101208714613fa0575b5050505050613c49565b156140e35783156140cc575b5082156140b3575b50501561402c575b613fc68887615428565b613fd4575f80808080613f96565b8a5162461bcd60e51b8152808601859052602c60248201527f43616e6e6f742064656d6f746520616e20616374697665207375626a6563742060448201526b3132b637bb9039b430b932b960a11b6064820152608490fd5b8a5162461bcd60e51b8152808601859052605560248201527f4f6e6c79206f776e6572732063616e2064656d6f7465206f74686572732e204160448201527f646d696e6973747261746f727320616e6420736861726572732063616e206f6e606482015274363c903232b6b7ba32903a3432b6b9b2b63b32b99760591b608482015260a490fd5b909150816140c4575b505f80613fb4565b90505f6140bc565b909250806140dc575b915f613fac565b50816140d5565b92505050613fbc578a5162461bcd60e51b8152808601859052602860248201527f4f6e6c792061646d696e6973747261746f72732063616e2064656d6f7465207460448201526737903b34b2bbb2b960c11b6064820152608490fd5b895162461bcd60e51b8152808501849052604360248201527f4f776e6572732063616e6e6f742062652064656d6f7465642e204f776e65722060448201527f6d75737420766f6c756e746172696c792072656d6f7665207468656d73656c7660648201526232b99760e91b608482015260a490fd5b895162461bcd60e51b8152808501849052601c60248201527f54617267657420616c726561647920686173207468697320726f6c65000000006044820152606490fd5b82346103a05760203660031901126103a057602090611ad461421761456b565b6152cc565b82346103a05760203660031901126103a05761423661456b565b5f546001600160a01b03919061424f9083163314614b71565b16805f526001602052614266825f20541515614baa565b805f52600160205260ff6001835f200154161561429657600192505f52816020525f200160ff1981541690555f80f35b815162461bcd60e51b8152602081850152601760248201527f57616c6c657420616c726561647920696e6163746976650000000000000000006044820152606490fd5b82346103a0576020906103b6366147dc565b82346103a057806003193601126103a057611ad460209261430a614581565b9035614b20565b82346103a05760203660031901126103a05761063791355f526009602052610624815f20614ad2565b82346103a057614349366146dc565b92906143576104263361523b565b6143648351855114614a42565b335f52600193849360209060018252845f20549360018060a01b03165f52845f205491614392831515614a86565b5f965b61439b57005b81518710156104ce5787876143ba6143b4839a88615071565b5161531e565b15614486576143cd8761073a8387615071565b15614486576143e08561073a8387615071565b614486576143ee8187615071565b5183815191012061440c6144028387615071565b51896108a1614d20565b6144236144198488615071565b518a6108a1614d41565b9161442c614d20565b80519087012081036144935750906144448387615071565b515f908152600686528a9020541561448b5750155b614486575b61447f8761446c8387615071565b5187614478858b615071565b5191615886565b0196614395565b61447f565b905015614459565b61449b614d41565b80519087012081036144c457501590816144bb575b50614486575b61445e565b9050158b6144b0565b6144cc614d6a565b805190870120036144f3571590816144ea575b501561445e5761447f565b9050158b6144df565b61450a6145008488615071565b518a6108a1614d6a565b9015918261452e575b5081614525575b50156144b65761447f565b9050158b61451a565b1591508c614513565b8390346103a05760203660031901126103a0576020916001600160a01b0361455d61456b565b165f52600183525f20548152f35b600435906001600160a01b03821682036103a057565b602435906001600160a01b03821682036103a057565b604081019081106001600160401b038211176145b257604052565b634e487b7160e01b5f52604160045260245ffd5b602081019081106001600160401b038211176145b257604052565b90601f801991011681019081106001600160401b038211176145b257604052565b6001600160401b0381116145b25760051b60200190565b9080601f830112156103a057602090823561463381614602565b9361464160405195866145e1565b81855260208086019260051b8201019283116103a057602001905b82821061466a575050505090565b8135815290830190830161465c565b9291926001600160401b0382116145b257604051916146a2601f8201601f1916602001846145e1565b8294818452818301116103a0578281602093845f960137010152565b9080601f830112156103a0578160206146d993359101614679565b90565b60606003198201126103a0576001600160401b03916004358381116103a0578261470891600401614619565b9260249283356001600160a01b03811681036103a05793604435928084116103a057826023850112156103a057836004013561474381614602565b9461475160405196876145e1565b8186526020946024602088019360051b830101948186116103a05760248301935b86851061478457505050505050505090565b84358681116103a057889161479e858585948901016146be565b815201940193614772565b9081518082526020808093019301915f5b8281106147c8575050505090565b8351855293810193928101926001016147ba565b60409060031901126103a0576004359060243590565b600311156147fc57565b634e487b7160e01b5f52602160045260245ffd5b60606003198201126103a057600435916024356001600160a01b03811681036103a05791604435906001600160401b0382116103a0576146d9916004016146be565b90600182811c92168015614880575b602083101461486c57565b634e487b7160e01b5f52602260045260245ffd5b91607f1691614861565b9060405191825f825461489c81614852565b908184526020946001916001811690815f1461490a57506001146148cc575b5050506148ca925003836145e1565b565b5f90815285812095935091905b8183106148f25750506148ca93508201015f80806148bb565b855488840185015294850194879450918301916148d9565b925050506148ca94925060ff191682840152151560051b8201015f80806148bb565b91908251928382525f5b848110614956575050825f602080949584010152601f8019910116010190565b602081830181015184830182015201614936565b9061498260209194939460408452604084019061492c565b931515910152565b60409060031901126103a0576004359060243560038110156103a05790565b80548210156149be575f5260205f2001905f90565b634e487b7160e01b5f52603260045260245ffd5b600511156147fc57565b60408101939291602091906149f0816149d2565b81526149fb836147f2565b0152565b15614a0657565b60405162461bcd60e51b81526020600482015260146024820152732737ba1030b71030b1ba34bb329036b2b6b132b960611b6044820152606490fd5b15614a4957565b60405162461bcd60e51b8152602060048201526015602482015274082e4e4c2f240d8cadccee8d040dad2e6dac2e8c6d605b1b6044820152606490fd5b15614a8d57565b60405162461bcd60e51b815260206004820152601c60248201527f5461726765742077616c6c6574206e6f742072656769737465726564000000006044820152606490fd5b90604051918281549182825260209260208301915f5260205f20935f905b828210614b06575050506148ca925003836145e1565b855484526001958601958895509381019390910190614af0565b6001600160a01b039091165f90815260016020526040902054908115614b6b57614b52614b4b614d20565b83836153ca565b918215614b5e57505090565b6146d992506108a1614d41565b50505f90565b15614b7857565b60405162461bcd60e51b815260206004820152600a60248201526927b7363c9030b236b4b760b11b6044820152606490fd5b15614bb157565b60405162461bcd60e51b815260206004820152601560248201527415d85b1b195d081b9bdd081c9959da5cdd195c9959605a1b6044820152606490fd5b15614bf557565b60405162461bcd60e51b815260206004820152601e60248201527f5265636f726420494420686173682063616e6e6f7420626520656d70747900006044820152606490fd5b15614c4157565b60405162461bcd60e51b815260206004820152601d60248201527f57616c6c657420616464726573732063616e6e6f74206265207a65726f0000006044820152606490fd5b15614c8d57565b60405162461bcd60e51b8152602060048201526013602482015272496e76616c696420726f6c6520737472696e6760681b6044820152606490fd5b15614ccf57565b60405162461bcd60e51b815260206004820152602360248201527f54617267657420646f6573206e6f74206861766520616e2061637469766520726044820152626f6c6560e81b6064820152608490fd5b60405190614d2d82614597565b600582526437bbb732b960d91b6020830152565b60405190614d4e82614597565b600d82526c30b236b4b734b9ba3930ba37b960991b6020830152565b60405190614d7782614597565b600682526539b430b932b960d11b6020830152565b60405190614d9982614597565b60068252653b34b2bbb2b960d11b6020830152565b15614db557565b60405162461bcd60e51b81526020600482015260156024820152744f6e6c79204865616c74685265636f7264436f726560581b6044820152606490fd5b919060018060a01b03165f52600160205260405f20548015614e17576146d9926153ca565b5050505f90565b6001600160a01b039091165f90815260016020526040902054908115614e805760209291614e4b91615396565b5f526005825260405f20604051614e6181614597565b60ff6001614e6e8461488a565b93848452015416151593849101529190565b5050604051614e8e816145c6565b5f8152905f90565b15614e9d57565b60405162461bcd60e51b8152602060048201526016602482015275496e76616c69642077616c6c6574206164647265737360501b6044820152606490fd5b15614ee257565b60405162461bcd60e51b8152602060048201526014602482015273092dcecc2d8d2c840eae6cae440928840d0c2e6d60631b6044820152606490fd5b15614f2557565b60405162461bcd60e51b815260206004820152601960248201527f57616c6c657420616c72656164792072656769737465726564000000000000006044820152606490fd5b8054600160401b8110156145b257614f87916001820181556149a9565b60018060a09493941b038084549260031b9316831b921b1916179055565b90614faf816149d2565b60ff80198354169116179055565b5f198114614fcb5760010190565b634e487b7160e01b5f52601160045260245ffd5b15614fe657565b60405162461bcd60e51b815260206004820152601e60248201527f4e6f2061637469766520747275737465652072656c6174696f6e7368697000006044820152606490fd5b90615035816147f2565b61ff0082549160081b169061ff001916179055565b6060810194939260409261505d816147f2565b8252615068816147f2565b60208201520152565b80518210156149be5760209160051b010190565b1561508c57565b60405162461bcd60e51b815260206004820152600f60248201526e496e76616c6964206164647265737360881b6044820152606490fd5b6001600160a01b039091165f908152600160205260409020548015614b6b576150eb91615396565b5f52600560205260ff600160405f2001541690565b8054905f81558161510f575050565b5f5260205f20908101905b818110615125575050565b5f815560010161511a565b805490600160401b8210156145b25781615152916001615168940181556149a9565b819391549060031b91821b915f19901b19161790565b9055565b1561517357565b60405162461bcd60e51b815260206004820152600f60248201526e496e76616c6964207472757374656560881b6044820152606490fd5b156151b157565b60405162461bcd60e51b815260206004820152601760248201527f43616e6e6f74206170706f696e7420796f757273656c660000000000000000006044820152606490fd5b156151fd57565b60405162461bcd60e51b8152602060048201526016602482015275151c9d5cdd1959481b9bdd081c9959da5cdd195c995960521b6044820152606490fd5b6001600160a01b03165f90815260016020526040902080549081159081156152bc575b506152b7575f52600260205260ff60405f20541661527b816149d2565b600281149081156152a2575b8115615291575090565b6004915061529e816149d2565b1490565b90506152ad816149d2565b6003811490615287565b505f90565b60ff91506001015416155f61525e565b6001600160a01b03165f908152600160205260409020805490811590811561530e575b506152b7575f526002602052600460ff60405f20541661529e816149d2565b60ff91506001015416155f6152ef565b6020815191012061532d614d20565b60208151910120811490811561537d575b8115615364575b811561534f575090565b9050615359614d8c565b602081519101201490565b905061536e614d6a565b60208151910120811490615345565b9050615387614d41565b6020815191012081149061533e565b906040519060208201928352604082015260408152606081018181106001600160401b038211176145b25760405251902090565b602092916153d791615396565b5f526005825260405f206040516153ed81614597565b60ff60016153fa8461488a565b93848452015416151593849101528261541257505090565b9091506020815191012090602081519101201490565b600a546001600160a01b0316918215614e17576044602092604051948593849263193d8e7560e21b8452600484015260248301525afa9081156154a7575f9161546f575090565b90506020813d60201161549f575b8161548a602093836145e1565b810103126103a0575180151581036103a05790565b3d915061547d565b6040513d5f823e3d90fd5b91927f3af67cf2057ba8ef414286fb626cd3efb02f74996e18efd455b39d8ec7ec460f919461550c6154fe926154ea88828989615886565b60405193849360608552606085019061492c565b90838203602085015261492c565b4260408301520390a4565b8251602080940120615527614d20565b805190850120810361554757506148ca926006915f525260405f20615a5d565b61554f614d41565b805190850120810361556f57506148ca926007915f525260405f20615a5d565b615577614d6a565b805190850120810361559757506148ca926008915f525260405f20615a5d565b61559f614d8c565b848151910120146155af57505050565b6148ca926009915f525260405f20615a5d565b91926155cf908284615b46565b926155d98461531e565b156156a7576155e88284615396565b5f526020916005835260409460ff6001875f200154161561569f5761560d8386615396565b5f526005845260ff6001875f2001541661569f578161562d918487615886565b805f52600f8352845f20825f528352845f20845f52835260ff855f20541615615658575b5050505050565b805f52600e8352845f20825f52835261567384865f20615130565b5f52600f8252835f20905f528152825f20915f52525f20600160ff198254161790555f80808080615651565b505050505050565b50505050565b929190835f52602090600e825260409060405f20815f52835260405f20955f5b875481101561577857806156e36001928a6149a9565b90549060031b1c6156f48582615396565b5f52600580885260ff84885f200154161561577157615714898684615b46565b9061571e8261531e565b156157695761572d8784615396565b5f52885261573c875f2061488a565b90868683518b85012083518c8501201461575f57615759946154b2565b016156cd565b5050505050615759565b505050615759565b5050615759565b5050505050509050565b906150eb91615396565b919091825f526020600f81526040805f20845f528252805f20835f52825260ff815f2054161561565157845f52600f8252805f20845f528252805f20835f528252805f209060ff1991828154169055855f52600e8352805f20855f5283526157f684825f20615a5d565b6158008585615396565b5f526005835260ff6001825f200154161561569f575f80516020615d6f8339815191529261582e8686615396565b92835f5260058252615841835f2061488a565b9361584d858989615517565b5f52600582526001835f2001908154169055600b81525f8281205561587b825193838594855284019061492c565b9042908301520390a4565b9291926158938282615396565b93845f52602060058152604090815f20966158ad8861488a565b9760ff60018092015416908451906158c482614597565b868252848201818152845f5260058652865f2092518051906001600160401b0382116145b2576158f48554614852565b601f8111615a17575b508790601f83116001146159c95761594295949392915f9183612a145750505f19600383901b1c191690831b17835551151591019060ff801983541691151516179055565b615995577ff9d17eb1340ab78960b594ff8bed1349985b800ee21199c6d5ea4a67454593ad94959697505f52600b815286825f2055615982838787615c32565b61587b825193838594855284019061492c565b509194505084518186012090845190850120036159b25750505050565b612a0f6159c0948383615517565b5f8080806156a7565b90601f19831691865f52895f20925f5b8b828210615a03575050918695949291836159429998959310612a5a57505050811b01835561297d565b8385015186559488019493840193016159d9565b855f52885f20601f840160051c8101918a8510615a53575b601f0160051c019085905b828110615a485750506158fd565b5f8155018590615a3a565b9091508190615a2f565b5f5b815490818110156156a7578391615a7682856149a9565b959054600396871b1c14615a905750909250600101615a5f565b5f199250828101908111614fcb57615152615aae615abb92866149a9565b905490871b1c92856149a9565b905581548015615ae057810192615ad284846149a9565b81939154921b1b1916905555565b634e487b7160e01b5f52603160045260245ffd5b6001600160a01b03165f9081526001602052604090208054908115908115615b36575b506152b7575f526002602052600360ff60405f20541661529e816149d2565b60ff91506001015416155f615b17565b90615b50836147f2565b8215615c2757615b5f91615396565b5f526020906005825260405f2060ff600160405192615b7d84614597565b615b868161488a565b845201541615801584830152615c115751915b82518184012091615ba8614d6a565b82815191012083148015615bfb575b615bef5780615bc76001926147f2565b14615bd157505090565b615bd9614d20565b805191012014615be65790565b506146d9614d41565b505050506146d9614d8c565b50615c04614d8c565b8281519101208314615bb7565b50604051615c1e816145c6565b5f815291615b99565b5050506146d9614d8c565b8251602080940120615c42614d20565b8051908501208103615c6257506148ca926006915f525260405f20615130565b615c6a614d41565b8051908501208103615c8a57506148ca926007915f525260405f20615130565b615c92614d6a565b8051908501208103615cb257506148ca926008915f525260405f20615130565b615cba614d8c565b84815191012014615cca57505050565b6148ca926009915f525260405f20615130565b905f8091602081519101845af48080615d5b575b15615d115750506040513d81523d5f602083013e60203d82010160405290565b15615d3857604051639996b31560e01b81526001600160a01b039091166004820152602490fd5b3d15615d49576040513d5f823e3d90fd5b60405163d6bda27560e01b8152600490fd5b503d151580615cf15750813b1515615cf156fed05ed2d3feff840c2ececa71791388fd3d19dbbbbcfa97031f534a7dc09fbf1f4f6e6c79206f776e65727320616e642061646d696e6973747261746f72732063a26469706673582212208afd8fe7929ed1f53b2df06feb09d7902a4ff3ce86f3a7a63d76234f2280d19664736f6c63430008180033",
  "linkReferences": {},
  "deployedLinkReferences": {}
}