{
  "_format": "hh-sol-artifact-1",
  "contractName": "MemberRoleManager",
  "sourceName": "smartContracts/MemberRoleManager.sol",
  "abi": [
    {
      "inputs": [],
      "stateMutability": "nonpayable",
      "type": "constructor"
    },
    {
      "inputs": [
        {
          "internalType": "address",
          "name": "target",
          "type": "address"
        }
      ],
      "name": "AddressEmptyCode",
      "type": "error"
    },
    {
      "inputs": [
        {
          "internalType": "address",
          "name": "implementation",
          "type": "address"
        }
      ],
      "name": "ERC1967InvalidImplementation",
      "type": "error"
    },
    {
      "inputs": [],
      "name": "ERC1967NonPayable",
      "type": "error"
    },
    {
      "inputs": [],
      "name": "FailedCall",
      "type": "error"
    },
    {
      "inputs": [],
      "name": "InvalidInitialization",
      "type": "error"
    },
    {
      "inputs": [],
      "name": "NotInitializing",
      "type": "error"
    },
    {
      "inputs": [],
      "name": "UUPSUnauthorizedCallContext",
      "type": "error"
    },
    {
      "inputs": [
        {
          "internalType": "bytes32",
          "name": "slot",
          "type": "bytes32"
        }
      ],
      "name": "UUPSUnsupportedProxiableUUID",
      "type": "error"
    },
    {
      "anonymous": false,
      "inputs": [
        {
          "indexed": true,
          "internalType": "address",
          "name": "oldAdmin",
          "type": "address"
        },
        {
          "indexed": true,
          "internalType": "address",
          "name": "newAdmin",
          "type": "address"
        },
        {
          "indexed": false,
          "internalType": "uint256",
          "name": "timestamp",
          "type": "uint256"
        }
      ],
      "name": "AdminTransferred",
      "type": "event"
    },
    {
      "anonymous": false,
      "inputs": [
        {
          "indexed": true,
          "internalType": "address",
          "name": "newAddress",
          "type": "address"
        },
        {
          "indexed": false,
          "internalType": "uint256",
          "name": "timestamp",
          "type": "uint256"
        }
      ],
      "name": "HealthRecordCoreUpdated",
      "type": "event"
    },
    {
      "anonymous": false,
      "inputs": [
        {
          "indexed": false,
          "internalType": "uint64",
          "name": "version",
          "type": "uint64"
        }
      ],
      "name": "Initialized",
      "type": "event"
    },
    {
      "anonymous": false,
      "inputs": [
        {
          "indexed": true,
          "internalType": "address",
          "name": "wallet",
          "type": "address"
        },
        {
          "indexed": true,
          "internalType": "bytes32",
          "name": "userIdHash",
          "type": "bytes32"
        },
        {
          "indexed": false,
          "internalType": "uint256",
          "name": "timestamp",
          "type": "uint256"
        }
      ],
      "name": "MemberRegistered",
      "type": "event"
    },
    {
      "anonymous": false,
      "inputs": [
        {
          "indexed": true,
          "internalType": "bytes32",
          "name": "userIdHash",
          "type": "bytes32"
        },
        {
          "indexed": false,
          "internalType": "enum MemberRoleManager.MemberStatus",
          "name": "oldStatus",
          "type": "uint8"
        },
        {
          "indexed": false,
          "internalType": "enum MemberRoleManager.MemberStatus",
          "name": "newStatus",
          "type": "uint8"
        },
        {
          "indexed": true,
          "internalType": "address",
          "name": "changedBy",
          "type": "address"
        },
        {
          "indexed": false,
          "internalType": "uint256",
          "name": "timestamp",
          "type": "uint256"
        }
      ],
      "name": "MemberStatusChanged",
      "type": "event"
    },
    {
      "anonymous": false,
      "inputs": [
        {
          "indexed": true,
          "internalType": "string",
          "name": "recordId",
          "type": "string"
        },
        {
          "indexed": true,
          "internalType": "bytes32",
          "name": "userIdHash",
          "type": "bytes32"
        },
        {
          "indexed": false,
          "internalType": "uint256",
          "name": "timestamp",
          "type": "uint256"
        }
      ],
      "name": "OwnershipVoluntarilyLeft",
      "type": "event"
    },
    {
      "anonymous": false,
      "inputs": [
        {
          "indexed": true,
          "internalType": "string",
          "name": "recordId",
          "type": "string"
        },
        {
          "indexed": true,
          "internalType": "bytes32",
          "name": "targetIdHash",
          "type": "bytes32"
        },
        {
          "indexed": false,
          "internalType": "string",
          "name": "oldRole",
          "type": "string"
        },
        {
          "indexed": false,
          "internalType": "string",
          "name": "newRole",
          "type": "string"
        },
        {
          "indexed": true,
          "internalType": "bytes32",
          "name": "userIdHash",
          "type": "bytes32"
        },
        {
          "indexed": false,
          "internalType": "uint256",
          "name": "timestamp",
          "type": "uint256"
        }
      ],
      "name": "RoleChanged",
      "type": "event"
    },
    {
      "anonymous": false,
      "inputs": [
        {
          "indexed": true,
          "internalType": "string",
          "name": "recordId",
          "type": "string"
        },
        {
          "indexed": true,
          "internalType": "bytes32",
          "name": "targetIdHash",
          "type": "bytes32"
        },
        {
          "indexed": false,
          "internalType": "string",
          "name": "role",
          "type": "string"
        },
        {
          "indexed": true,
          "internalType": "bytes32",
          "name": "userIdHash",
          "type": "bytes32"
        },
        {
          "indexed": false,
          "internalType": "uint256",
          "name": "timestamp",
          "type": "uint256"
        }
      ],
      "name": "RoleGranted",
      "type": "event"
    },
    {
      "anonymous": false,
      "inputs": [
        {
          "indexed": true,
          "internalType": "string",
          "name": "recordId",
          "type": "string"
        },
        {
          "indexed": true,
          "internalType": "bytes32",
          "name": "targetIdHash",
          "type": "bytes32"
        },
        {
          "indexed": false,
          "internalType": "string",
          "name": "role",
          "type": "string"
        },
        {
          "indexed": true,
          "internalType": "bytes32",
          "name": "userIdHash",
          "type": "bytes32"
        },
        {
          "indexed": false,
          "internalType": "uint256",
          "name": "timestamp",
          "type": "uint256"
        }
      ],
      "name": "RoleRevoked",
      "type": "event"
    },
    {
      "anonymous": false,
      "inputs": [
        {
          "indexed": true,
          "internalType": "bytes32",
          "name": "trustorIdHash",
          "type": "bytes32"
        },
        {
          "indexed": true,
          "internalType": "bytes32",
          "name": "trusteeIdHash",
          "type": "bytes32"
        },
        {
          "indexed": false,
          "internalType": "enum MemberRoleManager.TrusteeLevel",
          "name": "level",
          "type": "uint8"
        },
        {
          "indexed": false,
          "internalType": "uint256",
          "name": "timestamp",
          "type": "uint256"
        }
      ],
      "name": "TrusteeAccepted",
      "type": "event"
    },
    {
      "anonymous": false,
      "inputs": [
        {
          "indexed": true,
          "internalType": "bytes32",
          "name": "trustorIdHash",
          "type": "bytes32"
        },
        {
          "indexed": true,
          "internalType": "bytes32",
          "name": "trusteeIdHash",
          "type": "bytes32"
        },
        {
          "indexed": false,
          "internalType": "enum MemberRoleManager.TrusteeLevel",
          "name": "level",
          "type": "uint8"
        },
        {
          "indexed": false,
          "internalType": "uint256",
          "name": "timestamp",
          "type": "uint256"
        }
      ],
      "name": "TrusteeProposed",
      "type": "event"
    },
    {
      "anonymous": false,
      "inputs": [
        {
          "indexed": true,
          "internalType": "bytes32",
          "name": "trustorIdHash",
          "type": "bytes32"
        },
        {
          "indexed": true,
          "internalType": "bytes32",
          "name": "trusteeIdHash",
          "type": "bytes32"
        },
        {
          "indexed": true,
          "internalType": "bytes32",
          "name": "revokedBy",
          "type": "bytes32"
        },
        {
          "indexed": false,
          "internalType": "uint256",
          "name": "timestamp",
          "type": "uint256"
        }
      ],
      "name": "TrusteeRevoked",
      "type": "event"
    },
    {
      "anonymous": false,
      "inputs": [
        {
          "indexed": true,
          "internalType": "address",
          "name": "implementation",
          "type": "address"
        }
      ],
      "name": "Upgraded",
      "type": "event"
    },
    {
      "anonymous": false,
      "inputs": [
        {
          "indexed": true,
          "internalType": "address",
          "name": "wallet",
          "type": "address"
        },
        {
          "indexed": true,
          "internalType": "bytes32",
          "name": "userIdHash",
          "type": "bytes32"
        },
        {
          "indexed": false,
          "internalType": "uint256",
          "name": "timestamp",
          "type": "uint256"
        }
      ],
      "name": "WalletLinked",
      "type": "event"
    },
    {
      "inputs": [],
      "name": "UPGRADE_INTERFACE_VERSION",
      "outputs": [
        {
          "internalType": "string",
          "name": "",
          "type": "string"
        }
      ],
      "stateMutability": "view",
      "type": "function"
    },
    {
      "inputs": [
        {
          "internalType": "bytes32",
          "name": "trustorIdHash",
          "type": "bytes32"
        }
      ],
      "name": "acceptTrustee",
      "outputs": [],
      "stateMutability": "nonpayable",
      "type": "function"
    },
    {
      "inputs": [
        {
          "internalType": "address",
          "name": "wallet",
          "type": "address"
        },
        {
          "internalType": "bytes32",
          "name": "userIdHash",
          "type": "bytes32"
        }
      ],
      "name": "addMember",
      "outputs": [],
      "stateMutability": "nonpayable",
      "type": "function"
    },
    {
      "inputs": [],
      "name": "admin",
      "outputs": [
        {
          "internalType": "address",
          "name": "",
          "type": "address"
        }
      ],
      "stateMutability": "view",
      "type": "function"
    },
    {
      "inputs": [
        {
          "internalType": "string",
          "name": "",
          "type": "string"
        },
        {
          "internalType": "uint256",
          "name": "",
          "type": "uint256"
        }
      ],
      "name": "adminsByRecord",
      "outputs": [
        {
          "internalType": "bytes32",
          "name": "",
          "type": "bytes32"
        }
      ],
      "stateMutability": "view",
      "type": "function"
    },
    {
      "inputs": [
        {
          "internalType": "string",
          "name": "recordId",
          "type": "string"
        },
        {
          "internalType": "address",
          "name": "targetWallet",
          "type": "address"
        },
        {
          "internalType": "string",
          "name": "newRole",
          "type": "string"
        }
      ],
      "name": "changeRole",
      "outputs": [],
      "stateMutability": "nonpayable",
      "type": "function"
    },
    {
      "inputs": [
        {
          "internalType": "address",
          "name": "wallet",
          "type": "address"
        }
      ],
      "name": "deactivateWallet",
      "outputs": [],
      "stateMutability": "nonpayable",
      "type": "function"
    },
    {
      "inputs": [],
      "name": "getAllUsers",
      "outputs": [
        {
          "internalType": "bytes32[]",
          "name": "",
          "type": "bytes32[]"
        }
      ],
      "stateMutability": "view",
      "type": "function"
    },
    {
      "inputs": [],
      "name": "getHealthRecordCore",
      "outputs": [
        {
          "internalType": "address",
          "name": "",
          "type": "address"
        }
      ],
      "stateMutability": "view",
      "type": "function"
    },
    {
      "inputs": [
        {
          "internalType": "string",
          "name": "recordId",
          "type": "string"
        }
      ],
      "name": "getRecordAdmins",
      "outputs": [
        {
          "internalType": "bytes32[]",
          "name": "",
          "type": "bytes32[]"
        }
      ],
      "stateMutability": "view",
      "type": "function"
    },
    {
      "inputs": [
        {
          "internalType": "string",
          "name": "recordId",
          "type": "string"
        }
      ],
      "name": "getRecordOwners",
      "outputs": [
        {
          "internalType": "bytes32[]",
          "name": "",
          "type": "bytes32[]"
        }
      ],
      "stateMutability": "view",
      "type": "function"
    },
    {
      "inputs": [
        {
          "internalType": "string",
          "name": "recordId",
          "type": "string"
        }
      ],
      "name": "getRecordRoleStats",
      "outputs": [
        {
          "internalType": "uint256",
          "name": "ownerCount",
          "type": "uint256"
        },
        {
          "internalType": "uint256",
          "name": "adminCount",
          "type": "uint256"
        },
        {
          "internalType": "uint256",
          "name": "viewerCount",
          "type": "uint256"
        }
      ],
      "stateMutability": "view",
      "type": "function"
    },
    {
      "inputs": [
        {
          "internalType": "string",
          "name": "recordId",
          "type": "string"
        }
      ],
      "name": "getRecordViewers",
      "outputs": [
        {
          "internalType": "bytes32[]",
          "name": "",
          "type": "bytes32[]"
        }
      ],
      "stateMutability": "view",
      "type": "function"
    },
    {
      "inputs": [
        {
          "internalType": "bytes32",
          "name": "userIdHash",
          "type": "bytes32"
        }
      ],
      "name": "getRecordsByUser",
      "outputs": [
        {
          "internalType": "string[]",
          "name": "",
          "type": "string[]"
        }
      ],
      "stateMutability": "view",
      "type": "function"
    },
    {
      "inputs": [
        {
          "internalType": "string",
          "name": "recordId",
          "type": "string"
        },
        {
          "internalType": "address",
          "name": "wallet",
          "type": "address"
        }
      ],
      "name": "getRoleDetails",
      "outputs": [
        {
          "internalType": "string",
          "name": "role",
          "type": "string"
        },
        {
          "internalType": "bool",
          "name": "isActive",
          "type": "bool"
        }
      ],
      "stateMutability": "view",
      "type": "function"
    },
    {
      "inputs": [
        {
          "internalType": "string",
          "name": "recordId",
          "type": "string"
        },
        {
          "internalType": "bytes32",
          "name": "userIdHash",
          "type": "bytes32"
        }
      ],
      "name": "getRoleDetailsByUser",
      "outputs": [
        {
          "internalType": "string",
          "name": "role",
          "type": "string"
        },
        {
          "internalType": "bool",
          "name": "isActive",
          "type": "bool"
        }
      ],
      "stateMutability": "view",
      "type": "function"
    },
    {
      "inputs": [
        {
          "internalType": "string",
          "name": "recordId",
          "type": "string"
        },
        {
          "internalType": "bytes32",
          "name": "userIdHash",
          "type": "bytes32"
        }
      ],
      "name": "getRoleGranter",
      "outputs": [
        {
          "internalType": "bytes32",
          "name": "",
          "type": "bytes32"
        }
      ],
      "stateMutability": "view",
      "type": "function"
    },
    {
      "inputs": [],
      "name": "getTotalRoles",
      "outputs": [
        {
          "internalType": "uint256",
          "name": "",
          "type": "uint256"
        }
      ],
      "stateMutability": "view",
      "type": "function"
    },
    {
      "inputs": [],
      "name": "getTotalUsers",
      "outputs": [
        {
          "internalType": "uint256",
          "name": "",
          "type": "uint256"
        }
      ],
      "stateMutability": "view",
      "type": "function"
    },
    {
      "inputs": [
        {
          "internalType": "bytes32",
          "name": "trustorIdHash",
          "type": "bytes32"
        },
        {
          "internalType": "bytes32",
          "name": "trusteeIdHash",
          "type": "bytes32"
        }
      ],
      "name": "getTrusteeRelationship",
      "outputs": [
        {
          "internalType": "enum MemberRoleManager.TrusteeStatus",
          "name": "status",
          "type": "uint8"
        },
        {
          "internalType": "enum MemberRoleManager.TrusteeLevel",
          "name": "level",
          "type": "uint8"
        }
      ],
      "stateMutability": "view",
      "type": "function"
    },
    {
      "inputs": [
        {
          "internalType": "address",
          "name": "wallet",
          "type": "address"
        }
      ],
      "name": "getUserForWallet",
      "outputs": [
        {
          "internalType": "bytes32",
          "name": "",
          "type": "bytes32"
        }
      ],
      "stateMutability": "view",
      "type": "function"
    },
    {
      "inputs": [
        {
          "internalType": "bytes32",
          "name": "userIdHash",
          "type": "bytes32"
        }
      ],
      "name": "getUserStatus",
      "outputs": [
        {
          "internalType": "enum MemberRoleManager.MemberStatus",
          "name": "status",
          "type": "uint8"
        }
      ],
      "stateMutability": "view",
      "type": "function"
    },
    {
      "inputs": [
        {
          "internalType": "bytes32",
          "name": "userIdHash",
          "type": "bytes32"
        }
      ],
      "name": "getWalletsForUser",
      "outputs": [
        {
          "internalType": "address[]",
          "name": "",
          "type": "address[]"
        }
      ],
      "stateMutability": "view",
      "type": "function"
    },
    {
      "inputs": [
        {
          "internalType": "string",
          "name": "recordId",
          "type": "string"
        },
        {
          "internalType": "address",
          "name": "targetWallet",
          "type": "address"
        },
        {
          "internalType": "string",
          "name": "role",
          "type": "string"
        }
      ],
      "name": "grantRole",
      "outputs": [],
      "stateMutability": "nonpayable",
      "type": "function"
    },
    {
      "inputs": [
        {
          "internalType": "string[]",
          "name": "recordIds",
          "type": "string[]"
        },
        {
          "internalType": "bytes32",
          "name": "trustorIdHash",
          "type": "bytes32"
        }
      ],
      "name": "grantRoleAsTrusteeBatch",
      "outputs": [],
      "stateMutability": "nonpayable",
      "type": "function"
    },
    {
      "inputs": [
        {
          "internalType": "string[]",
          "name": "recordIds",
          "type": "string[]"
        },
        {
          "internalType": "bytes32",
          "name": "targetIdHash",
          "type": "bytes32"
        },
        {
          "internalType": "string[]",
          "name": "roles",
          "type": "string[]"
        }
      ],
      "name": "grantRoleBatch",
      "outputs": [],
      "stateMutability": "nonpayable",
      "type": "function"
    },
    {
      "inputs": [
        {
          "internalType": "string",
          "name": "recordId",
          "type": "string"
        },
        {
          "internalType": "address",
          "name": "wallet",
          "type": "address"
        }
      ],
      "name": "hasActiveRole",
      "outputs": [
        {
          "internalType": "bool",
          "name": "",
          "type": "bool"
        }
      ],
      "stateMutability": "view",
      "type": "function"
    },
    {
      "inputs": [
        {
          "internalType": "string",
          "name": "recordId",
          "type": "string"
        },
        {
          "internalType": "address",
          "name": "wallet",
          "type": "address"
        },
        {
          "internalType": "string",
          "name": "role",
          "type": "string"
        }
      ],
      "name": "hasRole",
      "outputs": [
        {
          "internalType": "bool",
          "name": "",
          "type": "bool"
        }
      ],
      "stateMutability": "view",
      "type": "function"
    },
    {
      "inputs": [],
      "name": "healthRecordCore",
      "outputs": [
        {
          "internalType": "contract HealthRecordCoreInterface",
          "name": "",
          "type": "address"
        }
      ],
      "stateMutability": "view",
      "type": "function"
    },
    {
      "inputs": [],
      "name": "initialize",
      "outputs": [],
      "stateMutability": "nonpayable",
      "type": "function"
    },
    {
      "inputs": [
        {
          "internalType": "string",
          "name": "recordId",
          "type": "string"
        },
        {
          "internalType": "address",
          "name": "targetWallet",
          "type": "address"
        },
        {
          "internalType": "string",
          "name": "role",
          "type": "string"
        }
      ],
      "name": "initializeRecordRole",
      "outputs": [],
      "stateMutability": "nonpayable",
      "type": "function"
    },
    {
      "inputs": [
        {
          "internalType": "address",
          "name": "wallet",
          "type": "address"
        }
      ],
      "name": "isActiveMember",
      "outputs": [
        {
          "internalType": "bool",
          "name": "",
          "type": "bool"
        }
      ],
      "stateMutability": "view",
      "type": "function"
    },
    {
      "inputs": [
        {
          "internalType": "string",
          "name": "recordId",
          "type": "string"
        },
        {
          "internalType": "bytes32",
          "name": "userIdHash",
          "type": "bytes32"
        }
      ],
      "name": "isActiveSubject",
      "outputs": [
        {
          "internalType": "bool",
          "name": "",
          "type": "bool"
        }
      ],
      "stateMutability": "view",
      "type": "function"
    },
    {
      "inputs": [
        {
          "internalType": "bytes32",
          "name": "trustorIdHash",
          "type": "bytes32"
        },
        {
          "internalType": "bytes32",
          "name": "trusteeIdHash",
          "type": "bytes32"
        }
      ],
      "name": "isControllerOf",
      "outputs": [
        {
          "internalType": "bool",
          "name": "",
          "type": "bool"
        }
      ],
      "stateMutability": "view",
      "type": "function"
    },
    {
      "inputs": [
        {
          "internalType": "string",
          "name": "recordId",
          "type": "string"
        },
        {
          "internalType": "address",
          "name": "wallet",
          "type": "address"
        }
      ],
      "name": "isOwnerOrAdmin",
      "outputs": [
        {
          "internalType": "bool",
          "name": "",
          "type": "bool"
        }
      ],
      "stateMutability": "view",
      "type": "function"
    },
    {
      "inputs": [
        {
          "internalType": "address",
          "name": "wallet",
          "type": "address"
        }
      ],
      "name": "isVerifiedMember",
      "outputs": [
        {
          "internalType": "bool",
          "name": "",
          "type": "bool"
        }
      ],
      "stateMutability": "view",
      "type": "function"
    },
    {
      "inputs": [
        {
          "internalType": "address",
          "name": "wallet",
          "type": "address"
        }
      ],
      "name": "isVerifiedProvider",
      "outputs": [
        {
          "internalType": "bool",
          "name": "",
          "type": "bool"
        }
      ],
      "stateMutability": "view",
      "type": "function"
    },
    {
      "inputs": [
        {
          "internalType": "string",
          "name": "",
          "type": "string"
        },
        {
          "internalType": "uint256",
          "name": "",
          "type": "uint256"
        }
      ],
      "name": "ownersByRecord",
      "outputs": [
        {
          "internalType": "bytes32",
          "name": "",
          "type": "bytes32"
        }
      ],
      "stateMutability": "view",
      "type": "function"
    },
    {
      "inputs": [
        {
          "internalType": "bytes32",
          "name": "trusteeIdHash",
          "type": "bytes32"
        },
        {
          "internalType": "enum MemberRoleManager.TrusteeLevel",
          "name": "level",
          "type": "uint8"
        }
      ],
      "name": "proposeTrustee",
      "outputs": [],
      "stateMutability": "nonpayable",
      "type": "function"
    },
    {
      "inputs": [],
      "name": "proxiableUUID",
      "outputs": [
        {
          "internalType": "bytes32",
          "name": "",
          "type": "bytes32"
        }
      ],
      "stateMutability": "view",
      "type": "function"
    },
    {
      "inputs": [
        {
          "internalType": "address",
          "name": "wallet",
          "type": "address"
        }
      ],
      "name": "reactivateWallet",
      "outputs": [],
      "stateMutability": "nonpayable",
      "type": "function"
    },
    {
      "inputs": [
        {
          "internalType": "bytes32",
          "name": "",
          "type": "bytes32"
        }
      ],
      "name": "recordRoles",
      "outputs": [
        {
          "internalType": "string",
          "name": "role",
          "type": "string"
        },
        {
          "internalType": "bool",
          "name": "isActive",
          "type": "bool"
        }
      ],
      "stateMutability": "view",
      "type": "function"
    },
    {
      "inputs": [
        {
          "internalType": "bytes32",
          "name": "",
          "type": "bytes32"
        },
        {
          "internalType": "uint256",
          "name": "",
          "type": "uint256"
        }
      ],
      "name": "recordsByUser",
      "outputs": [
        {
          "internalType": "string",
          "name": "",
          "type": "string"
        }
      ],
      "stateMutability": "view",
      "type": "function"
    },
    {
      "inputs": [
        {
          "internalType": "string",
          "name": "recordId",
          "type": "string"
        },
        {
          "internalType": "address",
          "name": "targetWallet",
          "type": "address"
        }
      ],
      "name": "revokeRole",
      "outputs": [],
      "stateMutability": "nonpayable",
      "type": "function"
    },
    {
      "inputs": [
        {
          "internalType": "bytes32",
          "name": "trustorIdHash",
          "type": "bytes32"
        },
        {
          "internalType": "bytes32",
          "name": "trusteeIdHash",
          "type": "bytes32"
        }
      ],
      "name": "revokeTrustee",
      "outputs": [],
      "stateMutability": "nonpayable",
      "type": "function"
    },
    {
      "inputs": [
        {
          "internalType": "bytes32",
          "name": "",
          "type": "bytes32"
        }
      ],
      "name": "roleGrantedBy",
      "outputs": [
        {
          "internalType": "bytes32",
          "name": "",
          "type": "bytes32"
        }
      ],
      "stateMutability": "view",
      "type": "function"
    },
    {
      "inputs": [
        {
          "internalType": "address",
          "name": "_healthRecordCore",
          "type": "address"
        }
      ],
      "name": "setHealthRecordCore",
      "outputs": [],
      "stateMutability": "nonpayable",
      "type": "function"
    },
    {
      "inputs": [
        {
          "internalType": "bytes32",
          "name": "userIdHash",
          "type": "bytes32"
        },
        {
          "internalType": "enum MemberRoleManager.MemberStatus",
          "name": "newStatus",
          "type": "uint8"
        }
      ],
      "name": "setUserStatus",
      "outputs": [],
      "stateMutability": "nonpayable",
      "type": "function"
    },
    {
      "inputs": [],
      "name": "totalRoles",
      "outputs": [
        {
          "internalType": "uint256",
          "name": "",
          "type": "uint256"
        }
      ],
      "stateMutability": "view",
      "type": "function"
    },
    {
      "inputs": [],
      "name": "totalUsers",
      "outputs": [
        {
          "internalType": "uint256",
          "name": "",
          "type": "uint256"
        }
      ],
      "stateMutability": "view",
      "type": "function"
    },
    {
      "inputs": [
        {
          "internalType": "address",
          "name": "newAdmin",
          "type": "address"
        }
      ],
      "name": "transferAdmin",
      "outputs": [],
      "stateMutability": "nonpayable",
      "type": "function"
    },
    {
      "inputs": [
        {
          "internalType": "bytes32",
          "name": "",
          "type": "bytes32"
        },
        {
          "internalType": "bytes32",
          "name": "",
          "type": "bytes32"
        }
      ],
      "name": "trusteeRelationships",
      "outputs": [
        {
          "internalType": "enum MemberRoleManager.TrusteeStatus",
          "name": "status",
          "type": "uint8"
        },
        {
          "internalType": "enum MemberRoleManager.TrusteeLevel",
          "name": "level",
          "type": "uint8"
        }
      ],
      "stateMutability": "view",
      "type": "function"
    },
    {
      "inputs": [
        {
          "internalType": "address",
          "name": "newImplementation",
          "type": "address"
        },
        {
          "internalType": "bytes",
          "name": "data",
          "type": "bytes"
        }
      ],
      "name": "upgradeToAndCall",
      "outputs": [],
      "stateMutability": "payable",
      "type": "function"
    },
    {
      "inputs": [
        {
          "internalType": "uint256",
          "name": "",
          "type": "uint256"
        }
      ],
      "name": "userList",
      "outputs": [
        {
          "internalType": "bytes32",
          "name": "",
          "type": "bytes32"
        }
      ],
      "stateMutability": "view",
      "type": "function"
    },
    {
      "inputs": [
        {
          "internalType": "bytes32",
          "name": "",
          "type": "bytes32"
        }
      ],
      "name": "userStatus",
      "outputs": [
        {
          "internalType": "enum MemberRoleManager.MemberStatus",
          "name": "",
          "type": "uint8"
        }
      ],
      "stateMutability": "view",
      "type": "function"
    },
    {
      "inputs": [
        {
          "internalType": "bytes32",
          "name": "",
          "type": "bytes32"
        },
        {
          "internalType": "uint256",
          "name": "",
          "type": "uint256"
        }
      ],
      "name": "userWallets",
      "outputs": [
        {
          "internalType": "address",
          "name": "",
          "type": "address"
        }
      ],
      "stateMutability": "view",
      "type": "function"
    },
    {
      "inputs": [
        {
          "internalType": "string",
          "name": "",
          "type": "string"
        },
        {
          "internalType": "uint256",
          "name": "",
          "type": "uint256"
        }
      ],
      "name": "viewersByRecord",
      "outputs": [
        {
          "internalType": "bytes32",
          "name": "",
          "type": "bytes32"
        }
      ],
      "stateMutability": "view",
      "type": "function"
    },
    {
      "inputs": [
        {
          "internalType": "string",
          "name": "recordId",
          "type": "string"
        }
      ],
      "name": "voluntarilyLeaveOwnership",
      "outputs": [],
      "stateMutability": "nonpayable",
      "type": "function"
    },
    {
      "inputs": [
        {
          "internalType": "address",
          "name": "",
          "type": "address"
        }
      ],
      "name": "wallets",
      "outputs": [
        {
          "internalType": "bytes32",
          "name": "userIdHash",
          "type": "bytes32"
        },
        {
          "internalType": "bool",
          "name": "isWalletActive",
          "type": "bool"
        }
      ],
      "stateMutability": "view",
      "type": "function"
    }
  ],
  "bytecode": "0x60a08060405234620000d157306080527ff0c57e16840df040f15088dc2f81fe391c3923bec73e23a9662efc9c229c6a009081549060ff8260401c16620000c257506001600160401b036002600160401b0319828216016200007c575b60405161438c9081620000d6823960805181818161232601526124730152f35b6001600160401b031990911681179091556040519081527fc7f505b2f371ae2175ee4913f4499e1f2633a7b5936321eed1cdaeb6115181d290602090a15f80806200005c565b63f92ee8a960e01b8152600490fd5b5f80fdfe6080604081815260049182361015610015575f80fd5b5f3560e01c908162b0c809146130a4575080630b3ffd1d14612fe75780631435b55814612fcc5780631a95aca514612f455780631c0c18d814612cf3578063259ed80e14612cce5780633310559214612c915780633575c391146129dc5780633dd1e8fc1461295557806341d8bde3146128b557806345ecd02f1461289057806349df7208146126205780634b6feb7c14611b025780634f1ef28614612423578063510b30031461238a57806352d1902d14612313578063557ee54f14612285578063562c788e1461063a5780636544b05b146121b9578063668a461e14612002578063679084e914611fdc5780636b4bed971461035f578063731f21a014611b9e57806375829def14611b20578063790e118c14611b025780637b657d0714611ac55780638129fc1c146119a857806389b08f11146119635780639443cd801461191d57806396207e02146117cc578063970ee5b9146117985780639915b91f146116fb5780639be572f61461101e5780639f4216e8146116af578063a0ca13c314611694578063ad3cb1cc14611650578063b55aefcc1461161c578063b8cab84b14611541578063bb0f86d51461148a578063bb20b1721461103c578063bff1f9e11461101e578063c715582314610fa2578063c94fccc914610eeb578063c979c9bf14610d87578063cabdd23f14610d6c578063cb261a0314610d47578063cda06c6e14610d20578063d12a776814610c71578063daa9dc23146106e2578063e2842d7914610662578063e94ed2571461063a578063e965bfb7146105e4578063eb2bbf25146105bb578063ed8d7b37146103e8578063ee4e582814610390578063f29e007b1461035f578063f3ac2bea1461033b578063f851a440146103145763fa7a6bcc146102a7575f80fd5b34610310576102b5366133cf565b905f52600a602052815f20908154811015610310576102d3916134fa565b9290926102fe57506102e76102fa92613270565b9051918291602083526020830190613333565b0390f35b5f90634e487b7160e01b82525260245ffd5b5f80fd5b5034610310575f366003190112610310575f5490516001600160a01b039091168152602090f35b5034610310576020906103566103503661347b565b90613ffd565b90519015158152f35b503461031057602036600319011261031057602091355f526002825261038e60ff825f205416915180926134ac565bf35b5034610310576020906103ab6103a53661347b565b90613e9c565b5f52600682526102fa815f209180516103c3816130ee565b60ff60016103d086613270565b95868452015416151594859101525192839283613358565b5034610310576020806003193601126103105782356001600160401b03811161031057610418903690850161319e565b6104248151151561363e565b335f5260018252825f20549361044261043b613873565b8684613ed7565b1561056c57835161048084600185519382818189019661046381838a613312565b810160078152030190205411928751809381928851928391613312565b810160088152030190205415158115610564575b50156105075750906104ff826104cb867f3bb3693064733b9a7d6d41bee69f302fcbefbe827ea4011400530c9ba9cb49c395613e9c565b6104dd6104d6613873565b8884613f35565b5f52600683526001855f200160ff198154169055600d83525f858120556138df565b9251428152a3005b835162461bcd60e51b8152908101839052603160248201527f43616e6e6f74206c65617665206173206c617374206f776e65722077697468206044820152706e6f2061646d696e6973747261746f727360781b6064820152608490fd5b90505f610494565b835162461bcd60e51b8152908101839052602360248201527f596f7520617265206e6f7420616e206f776e6572206f662074686973207265636044820152621bdc9960ea1b6064820152608490fd5b5034610310576102fa906105d76105d1366131bc565b906139ba565b9290915192839283613358565b50346103105760209061060d6105f93661347b565b939081845193828580945193849201613312565b8101600881520301902080548310156103105760209261062c916134fa565b91905490519160031b1c8152f35b5034610310575f36600319011261031057600c5490516001600160a01b039091168152602090f35b5034610310575f366003190112610310578051908183548082526020809201945f527f8a35acfbc15ff81a39ae7d344fd709f28e8600b4aa8c65c6b64bfe7fe36bd19b915f905b8282106106cb576102fa86866106c1828b0383613138565b51918291826131fd565b8354875295860195600193840193909101906106a9565b509034610310576106f236613378565b91929061070661070133613a3c565b6135e3565b6107128451151561363e565b6001600160a01b031693610727851515613783565b61073861073384613afd565b6136cf565b335f52602060018152815f2054955f52815f2054946107588615156137cf565b845182860120936107698783613e9c565b805f526006845261078260ff6001875f2001541661381b565b5f5260068352610793845f20613270565b94855184870120818114610c2e576107a9613873565b8581519101208114610bb9578551918451928681818801956107cc818389613312565b810160078152030190205415918b83156108016107f16107ea613873565b848b613ed7565b926107fa613894565b908a613ed7565b9061080a613873565b8051908b01208503610a0357156109a6575015610965575b61082a613894565b87815191012014908161094e575b506108ac575b505050916108a17fea2c9ebe68919ddf880b3221d8d508d908163d0973e8b79df108f5d110d0c63394926108808561087b8b8a8c6108949a613c5c565b6138df565b968351958695606087526060870190613333565b9185830390860152613333565b9042908301520390a4005b6108b7575b8061083e565b6108ce846001928751809381928851928391613312565b810160088152030190205411156108e557806108b1565b835162461bcd60e51b8152908101839052603960248201527f43616e6e6f742064656d6f746520746865206c6173742061646d696e6973747260448201527f61746f72207768656e206e6f206f776e657220657869737473000000000000006064820152608490fd5b90506109586138bd565b868151910120145f610838565b60648588808b519262461bcd60e51b845283015260248201527f4f6e6c79206f776e6572732063616e2070726f6d6f746520746f206f776e65726044820152fd5b905061082257875162461bcd60e51b8152808601889052602b60248201527f4f6e6c792061646d696e6973747261746f72732063616e2070726f6d6f74652060448201526a3334b939ba1037bbb732b960a91b6064820152608490fd5b610a0b613894565b8051908b01208503610a9557508115610a8d575b5061082257875162461bcd60e51b8152808601889052603b60248201527f4f6e6c79206f776e65727320616e642061646d696e6973747261746f7273206360448201527f616e2070726f6d6f746520746f2061646d696e6973747261746f7200000000006064820152608490fd5b90505f610a1f565b610a9d6138bd565b8a81519101208514610ab2575b505050610822565b15610b5f578115610b48575b5015610acd575b5f8080610aaa565b875162461bcd60e51b8152808601889052604960248201527f4f6e6c79206f776e6572732063616e2064656d6f7465206f74686572732e204160448201527f646d696e6973747261746f72732063616e206f6e6c792064656d6f746520746860648201526832b6b9b2b63b32b99760b91b608482015260a490fd5b905080610b56575b5f610abe565b508a8c14610b50565b9050610ac557875162461bcd60e51b8152808601889052602860248201527f4f6e6c792061646d696e6973747261746f72732063616e2064656d6f7465207460448201526737903b34b2bbb2b960c11b6064820152608490fd5b855162461bcd60e51b8152808401869052604360248201527f4f776e6572732063616e6e6f742062652064656d6f7465642e204f776e65722060448201527f6d75737420766f6c756e746172696c792072656d6f7665207468656d73656c7660648201526232b99760e91b608482015260a490fd5b855162461bcd60e51b8152808401869052601c60248201527f54617267657420616c726561647920686173207468697320726f6c65000000006044820152606490fd5b5090346103105760209081600319360112610310578290355f5260038252805f208151928381835491828152019081935f52825f20905f5b818110610d035750505084610cbf910385613138565b825181815293518185018190528493840192915f5b828110610ce357505050500390f35b83516001600160a01b031685528695509381019392810192600101610cd4565b82546001600160a01b031684529284019260019283019201610ca9565b503461031057602036600319011261031057602091355f52600d8252805f20549051908152f35b503461031057602036600319011261031057602090610356610d676130d8565b6140f0565b503461031057602090610356610d8136613378565b9161398e565b503461031057610d96366133cf565b91610da361070133613a3c565b335f5260209060018252805f2054948386148015610ee2575b15610ea257835f52600e8352815f20855f52835260ff825f20541681811015610e8f5760028114908115610e84575b5015610e395750907f6df3a6475fab2eed139f7e469995b04e85bfc5b4b8642587109cb72541f74fae91835f52600e8252805f20855f528252805f20600360ff1982541617905551428152a4005b82608492519162461bcd60e51b8352820152602160248201527f4e6f20616374697665206f722070656e64696e672072656c6174696f6e7368696044820152600760fc1b6064820152fd5b60019150145f610deb565b602182634e487b7160e01b5f525260245ffd5b8280606493519262461bcd60e51b845283015260248201527f4e6f74206120706172747920746f20746869732072656c6174696f6e736869706044820152fd5b50848614610dbc565b509034610310576060366003190112610310576001600160401b0390803582811161031057610f1d90369083016133fc565b9160443590811161031057610f3590369083016133fc565b90610f4261070133613a3c565b8251825103610f675750610f6592335f5260016020525f20549160243590613e14565b005b606490602085519162461bcd60e51b83528201526015602482015274082e4e4c2f240d8cadccee8d040dad2e6dac2e8c6d605b1b6044820152fd5b5034610310576020366003190112610310577fce59ad7d6dabe8a7533ed7d9bd07d276a046ac7ac9a8e8e8971da4b81104a28b6020610fdf6130d8565b5f546001600160a01b039190610ff89083163314613523565b16926110058415156138ff565b600c80546001600160a01b0319168517905551428152a2005b5034610310575f366003190112610310576020906005549051908152f35b5090346103105761104c36613378565b91929061105b61070133613a3c565b6110678451151561363e565b6001600160a01b03169261107c841515613783565b61108861073384613afd565b335f5260209160018352855f2054945f52855f2054926110a98415156137cf565b8451818601206110b98785613e9c565b5f526006825260ff6001895f2001541615611449578751828186516110e18183858b01613312565b81016007815203019020541515906111016110fa613873565b8987613ed7565b9161111461110d613894565b8a88613ed7565b9161111f8a88613ffd565b90611128613873565b80519087012081036112665750501561120c5750156111ca575b61114c8484613e9c565b5f526006815260ff6001885f2001541661116c575050610f659450613c5c565b865162461bcd60e51b815291820152603360248201527f54617267657420616c726561647920686173206120726f6c652e2055736520636044820152721a185b99d9549bdb194a0a481a5b9cdd195859606a1b606482015260849150fd5b865162461bcd60e51b815291820181905260248201527f4f6e6c79206f776e6572732063616e206772616e74206f776e657220726f6c65604482015260649150fd5b905061114257865162461bcd60e51b815291820152602960248201527f4f6e6c792061646d696e6973747261746f72732063616e206772616e742066696044820152683939ba1037bbb732b960b91b606482015260849150fd5b909150611271613894565b80519086012081036112fb57505081156112f3575b5061114257865162461bcd60e51b815291820152603b60248201527f4f6e6c79206f776e65727320616e642061646d696e6973747261746f7273206360448201527f616e206772616e742061646d696e6973747261746f7220726f6c650000000000606482015260849150fd5b90505f611286565b6113069391936138bd565b8581519101201461131a575b505050611142565b80159081611442575b801561143b575b156113d257826113ca575b50816113c1575b5061134a575b5f8080611312565b6113548684614099565b5161134257865162461bcd60e51b815291820152603c60248201527f5375626a656374206d757374206861766520616e2061637469766520726f6c6560448201527f20746f206772616e7420766965776572207065726d697373696f6e7300000000606482015260849150fd5b9050155f61133c565b91505f611335565b895162461bcd60e51b8152808601859052603e60248201527f4f6e6c79206f776e6572732c2061646d696e6973747261746f72732c206f722060448201527f7375626a656374732063616e206772616e742076696577657220726f6c6500006064820152608490fd5b508261132a565b5081611323565b60648383808b519262461bcd60e51b845283015260248201527f596f752068617665206e6f20726f6c6520666f722074686973207265636f72646044820152fd5b509034610310576020366003190112610310576114a56130d8565b5f546001600160a01b0391906114be9083163314613523565b16805f52600191826020526114d7845f2054151561355c565b815f528260205260ff83855f2001541661150657509181925f52816020525f20019060ff198254161790555f80f35b606490602085519162461bcd60e51b8352820152601560248201527457616c6c657420616c72656164792061637469766560581b6044820152fd5b503461031057602090816003193601126103105782359161156461070133613a3c565b335f5260018152815f205493835f52600e8252825f20855f528252825f209081549060ff821681811015610e8f576001036115e35750916115db60ff9260027fc5b2e1bd4433eb4e9e181cc803520513d39d918c96bddeebca1224e1c750963d969585191617809155845193849160081c166134cd565b4290820152a3005b845162461bcd60e51b81529081018490526013602482015272139bc81c195b991a5b99c81c1c9bdc1bdcd85b606a1b6044820152606490fd5b5034610310576020906116316105f93661347b565b8101600981520301902080548310156103105760209261062c916134fa565b5034610310575f3660031901126103105780516102fa91611670826130ee565b60058252640352e302e360dc1b602083015251918291602083526020830190613333565b5034610310576020906103566116a9366131bc565b9061393d565b50346103105760203660031901126103105781358254811015610310576020925f527f8a35acfbc15ff81a39ae7d344fd709f28e8600b4aa8c65c6b64bfe7fe36bd19b01549051908152f35b50346103105761170a366133cf565b905f52600e602052815f20905f52602052805f209080519161172b836130ee565b549161173a60ff841682613626565b61174e60ff602083019460081c1684613632565b519183831015611785575192600384101561177257506102fa9051928392836134da565b602190634e487b7160e01b5f525260245ffd5b602184634e487b7160e01b5f525260245ffd5b5034610310576020906117ad6105f93661347b565b8101600781520301902080548310156103105760209261062c916134fa565b503461031057806003193601126103105781359060243560058110156103105761180060018060a01b035f54163314613523565b825f5260206002815260ff835f205416600581101561190a57156118d257835f526002815260ff835f2054169460058610156117725782861461189b57509061186e91845f5260028152835f2060ff1981541660ff8416179055611866845180976134ac565b8501906134ac565b42908301527ff6277c6ee46649823db9a5c531db3112b4340c67179cae1932ba3420dcc37cc760603393a3005b60649184519162461bcd60e51b83528201526013602482015272416c726561647920746869732073746174757360681b6044820152fd5b8460649184519162461bcd60e51b83528201526013602482015272155cd95c881b9bdd081c9959da5cdd195c9959606a1b6044820152fd5b602186634e487b7160e01b5f525260245ffd5b50346103105761192c366133cf565b91905f526003602052805f2080548310156103105760209261194d916134fa565b60018060a01b0391549060031b1c169051908152f35b5034610310576020366003190112610310576001600160a01b036119856130d8565b165f526001602052805f2060ff6001825492015416825191825215156020820152f35b509034610310575f366003190112610310577ff0c57e16840df040f15088dc2f81fe391c3923bec73e23a9662efc9c229c6a0090815460ff81851c1615916001600160401b03821680159081611abd575b6001149081611ab3575b159081611aaa575b50611a9c575067ffffffffffffffff198116600117835581611a7d575b505f80546001600160a01b03191633179055611a4057005b805468ff00000000000000001916905551600181527fc7f505b2f371ae2175ee4913f4499e1f2633a7b5936321eed1cdaeb6115181d290602090a1005b68ffffffffffffffffff1916680100000000000000011782555f611a28565b845163f92ee8a960e01b8152fd5b9050155f611a0b565b303b159150611a03565b8491506119f9565b5034610310576102fa90611ad8366133cf565b905f52600e602052815f20905f52602052805f20549051918160ff80859460081c169116836134da565b5034610310575f36600319011261031057602090600b549051908152f35b503461031057602036600319011261031057602090611b3d6130d8565b5f5491906001600160a01b03808416917f38df5fa0f7fef0d515ca1f5388cb5790ac5885d5fca8d05d9f943e563c33a4b39190611b7b338514613523565b16948593611b8a8515156138ff565b51428152a36001600160a01b031916175f55005b503461031057611bad366131bc565b611bbb82939251151561363e565b6001600160a01b031692611bd0841515613783565b335f5260209160018352805f2054945f52805f205493611bf18515156137cf565b611bfb8582613e9c565b805f5260068552611c1460ff6001855f2001541661381b565b805f5260068552611c26835f20613270565b93845186860120611c35613873565b8781519101208114611f6557878903611d8a575b611c51613894565b87815191012014611cc7575b5081611cb391611c9186897f938e21a28464db5f9b9e24d1a58e038899de364f69dba20c154ee6fd4cd86def989796613f35565b5f52600686526001835f200160ff198154169055600d86525f838120556138df565b936108a18251938385948552840190613333565b8351611d008760018651938281818a0196611ce381838a613312565b810160088152030190205411928751809381928951928391613312565b810160078152030190205415158115611d82575b50611c5d57835162461bcd60e51b8152908101869052603960248201527f43616e6e6f74207265766f6b65206c6173742061646d696e6973747261746f7260448201527f20776974686f757420616e206f776e65722070726573656e74000000000000006064820152608490fd5b90505f611d14565b611d9c611d95613873565b8a86613ed7565b611dae611da7613894565b8b87613ed7565b845f52600d89528a875f20541490611dc46138bd565b8051908b01208403611e64578215611e5c575b508115611e54575b5015611deb575b611c49565b845162461bcd60e51b8152808301889052603e60248201527f4f6e6c79206f776e6572732c2061646d696e6973747261746f72732c206f722060448201527f746865206772616e7465722063616e207265766f6b65207669657765727300006064820152608490fd5b90505f611ddf565b91505f611dd7565b821592915082611f5d575b5015611f025715611c4957611e82613894565b8781519101208103611de657845187818651611ea18183858b01613312565b810160078152030190205415611de657845162461bcd60e51b8152808301889052602560248201527f4f6e6c79206f776e6572732063616e207265766f6b652061646d696e6973747260448201526461746f727360d81b6064820152608490fd5b855162461bcd60e51b8152808401899052602f60248201527f4f6e6c79206f776e65727320616e642061646d696e6973747261746f7273206360448201526e616e207265766f6b6520726f6c657360881b6064820152608490fd5b90505f611e6f565b845162461bcd60e51b8152808301889052604560248201527f4f776e6572732063616e6e6f74206265207265766f6b65642e204f776e65722060448201527f6d7573742075736520766f6c756e746172696c794c656176654f776e6572736860648201526434b814149760d91b608482015260a490fd5b503461031057602090611ff16103a53661347b565b5f52600d8252805f20549051908152f35b503461031057806003193601126103105781356001600160401b0381116103105761203090369084016133fc565b90602480359261204261070133613a3c565b335f52600194602060018152845f205493865f52600e8252855f20855f528252855f2091865192612072846130ee565b549261208160ff851682613626565b61209460ff8383019560081c1685613632565b51848110156121a6576002036121645784516120bb6120b2826133e5565b98519889613138565b8088526120ca601f19916133e5565b015f5b81811061215557505050875f905b6120ec575b610f6588888888613e14565b8451811015612150576120ff818661376f565b51835190600382101561213e579161211e8b96959493928b8894613dbe565b612128828b61376f565b52612133818a61376f565b5001909192936120db565b83602187634e487b7160e01b5f52525ffd5b6120e0565b606089820184015282016120cd565b8360649188519162461bcd60e51b8352820152601e60248201527f4e6f2061637469766520747275737465652072656c6174696f6e7368697000006044820152fd5b602185634e487b7160e01b5f525260245ffd5b509034610310576020908160031936011261031057355f52600a8152815f208054916121e4836133e5565b926121f185519485613138565b80845281840180935f52825f205f915b83831061226357505050508351928184019082855251809152848401948160051b85010192915f955b8287106122375785850386f35b909192938280612253600193603f198a82030186528851613333565b960192019601959291909261222a565b6001858192612274859a989a613270565b815201920192019190959395612201565b503461031057612294366133cf565b905f52600e602052815f20905f52602052805f20908051916122b5836130ee565b54916122c460ff841682613626565b6122d860ff602083019460081c1684613632565b51838110156117855760021491826122f7575b60208383519015158152f35b909150519160038310156117725750600260209214905f6122eb565b5034610310575f366003190112610310577f00000000000000000000000000000000000000000000000000000000000000006001600160a01b0316300361237d57602090517f360894a13ba1a3210667c828492db98dca3e2076cc3735a920a3ca505d382bbc8152f35b5163703e46dd60e11b8152fd5b5090346103105760209081600319360112610310578035906001600160401b038211610310576123c183916123d39336910161319e565b81855193828580945193849201613312565b8101600981520301902091805191828185549182815201945f52815f20915f905b82821061240c576102fa86866106c1828b0383613138565b8354875295860195600193840193909101906123f4565b509081600319360112610310576124386130d8565b916024356001600160401b0381116103105736602382011215610310576124689036906024818601359101613159565b906001600160a01b037f000000000000000000000000000000000000000000000000000000000000000081163081149081156125f2575b506125e2576124b2815f54163314613523565b8416918151946352d1902d60e01b86526020868681875afa5f96816125ae575b506124ee57505051634c9c8ce360e01b81529182015260249150fd5b838593877f360894a13ba1a3210667c828492db98dca3e2076cc3735a920a3ca505d382bbc908181036125985750833b156125815780546001600160a01b0319168317905551907fbc7cd75a20ee27fd9adebab32041f755214dbc6bffa90cc0225b39da2e5c2d3b5f80a282511561256b5750610f6592506142a5565b9150503461257557005b63b398979f60e01b8152fd5b8151634c9c8ce360e01b8152808701849052602490fd5b86602491845191632a87526960e21b8352820152fd5b9096506020813d6020116125da575b816125ca60209383613138565b810103126103105751955f6124d2565b3d91506125bd565b815163703e46dd60e11b81528490fd5b9050817f360894a13ba1a3210667c828492db98dca3e2076cc3735a920a3ca505d382bbc541614155f61249f565b50903461031057816003193601126103105761263a6130d8565b9160249081359360018060a01b038091612658825f54163314613523565b169361266585151561368a565b851561285757845f52600193602094808652845f2054612815576126ba855161268d816130ee565b898152828882018181528a5f52818a52885f209251835551151591019060ff801983541691151516179055565b875f5260038652845f20938454600160401b958682101561280357906126e49184820181556134fa565b819291549060031b918a831b921b1916179055875f526002865260ff855f20541660058110156127f1576127c357875f5260028652845f20600260ff198254161790558254938410156127b057830180835583101561279e57507f39d132591ee0696de49ab564e4a90e430c006561917db731a2a614dd2d24559193929186915f527f8a35acfbc15ff81a39ae7d344fd709f28e8600b4aa8c65c6b64bfe7fe36bd19b015561279460055461374d565b60055551428152a3005b634e487b7160e01b5f90815260328352fd5b50634e487b7160e01b5f90815260418352fd5b50505050907f1cc138f50384be7770a8e4a34eecaa0d0c718bfaa1641af49db32532e4a5b9109151428152a3005b82602185634e487b7160e01b5f52525ffd5b84604187634e487b7160e01b5f52525ffd5b845162461bcd60e51b81528084018790526019818401527f57616c6c657420616c72656164792072656769737465726564000000000000006044820152606490fd5b606490601485602086519362461bcd60e51b855284015282015273092dcecc2d8d2c840eae6cae440928840d0c2e6d60631b6044820152fd5b5034610310576020366003190112610310576020906103566128b06130d8565b613a3c565b5034610310576020806003193601126103105782356001600160401b038111610310576060936128e79136910161319e565b9180519261293c8382519581818186019861290381838c613312565b810160078152030190205495845182818651612920818387613312565b8101600881520301902054938551938492839251928391613312565b8101600981520301902054928251948552840152820152f35b5090346103105760209081600319360112610310578035906001600160401b038211610310576123c1839161298c9336910161319e565b8101600881520301902091805191828185549182815201945f52815f20915f905b8282106129c5576102fa86866106c1828b0383613138565b8354875295860195600193840193909101906129ad565b509034610310576129ec36613378565b9092919360018060a01b03612a05815f54163314613523565b612a118651151561363e565b8416612a1e81151561368a565b612a2a61073384613afd565b5f5260209260018452612a46825f2054956128b087151561355c565b15612c50578151848751918181818b0194612a62818388613312565b8101600781520301902054159182612c28575b505015612be757612a868587613e9c565b805f5260068552825f2090612a9a82613270565b9060ff60018351159401541690612aeb8651612ab5816130ee565b88815260018a8201818152845f5260068c52612ad58a5f20935184613b55565b51151591019060ff801983541691151516179055565b5f52600d87525f85812055155f14612bb85750612b09848789614146565b612b29575b50905f8051602061433783398151915291611cb35f966138df565b94845f52600a8452815f20805490600160401b821015612ba55781612b559160015f9a940181556134fa565b919091612b93575081612b7b5f80516020614337833981519152959493611cb393613b55565b612b86600b5461374d565b600b559650509091612b0e565b634e487b7160e01b885287905260245ffd5b604188634e487b7160e01b5f525260245ffd5b96939594925050508451818601209084519085012003612bd457005b612be2610f65948383613f35565b614146565b83606492519162461bcd60e51b8352820152601a60248201527f5265636f726420616c726561647920696e697469616c697a65640000000000006044820152fd5b612c3d92508451809381928b51928391613312565b810160088152030190205415845f612a75565b83606492519162461bcd60e51b8352820152601860248201527f4d75737420626520616e20616374697665206d656d62657200000000000000006044820152fd5b50903461031057602036600319011261031057355f526006602052805f206102fa60ff6001612cbf84613270565b93015416925192839283613358565b503461031057602036600319011261031057602090610356612cee6130d8565b613aa7565b50346103105780600319360112610310578135906024908135600381101561031057612d2161070133613a3c565b335f52602060018152825f2054938515612f1257858514612ed157855f526002825260ff845f2054166005811015612e845715612e9757845f52600e8252835f20865f52825260ff845f20541687811015612e84578015908115612e79575b5015612e3857835190612d92826130ee565b60018252828201612da38582613632565b865f52600e8452855f20885f528452855f2092519189831015612e2657835491519960038b1015612e1557505060ff61ff007f494d010fdf588a0e83d626ea6963187bdda6f88b7007f7bf280683d3f7dea83498999a60081b1692169061ffff1916171790556115db835180936134cd565b602190634e487b7160e01b5f52525ffd5b634e487b7160e01b5f90815260218b52fd5b6017879160649386519362461bcd60e51b85528401528201527f50726f706f73616c20616c7265616479206578697374730000000000000000006044820152fd5b60039150145f612d80565b50634e487b7160e01b5f90815260218852fd5b6016879160649386519362461bcd60e51b855284015282015275151c9d5cdd1959481b9bdd081c9959da5cdd195c995960521b6044820152fd5b6017879160649386519362461bcd60e51b85528401528201527f43616e6e6f74206170706f696e7420796f757273656c660000000000000000006044820152fd5b600f879160649386519362461bcd60e51b85528401528201526e496e76616c6964207472757374656560881b6044820152fd5b5090346103105760209081600319360112610310578035906001600160401b038211610310576123c18391612f7c9336910161319e565b8101600781520301902091805191828185549182815201945f52815f20915f905b828210612fb5576102fa86866106c1828b0383613138565b835487529586019560019384019390910190612f9d565b503461031057602090610356612fe1366131bc565b906135a0565b5034610310576020366003190112610310576130016130d8565b5f546001600160a01b03919061301a9083163314613523565b16805f526001602052613031825f2054151561355c565b805f52600160205260ff6001835f200154161561306157600192505f52816020525f200160ff1981541690555f80f35b815162461bcd60e51b8152602081850152601760248201527f57616c6c657420616c726561647920696e6163746976650000000000000000006044820152606490fd5b905034610310576020366003190112610310576020916001600160a01b036130ca6130d8565b165f52600183525f20548152f35b600435906001600160a01b038216820361031057565b604081019081106001600160401b0382111761310957604052565b634e487b7160e01b5f52604160045260245ffd5b602081019081106001600160401b0382111761310957604052565b90601f801991011681019081106001600160401b0382111761310957604052565b9291926001600160401b0382116131095760405191613182601f8201601f191660200184613138565b829481845281830111610310578281602093845f960137010152565b9080601f83011215610310578160206131b993359101613159565b90565b604060031982011261031057600435906001600160401b038211610310576131e69160040161319e565b906024356001600160a01b03811681036103105790565b60209060206040818301928281528551809452019301915f5b828110613224575050505090565b835185529381019392810192600101613216565b90600182811c92168015613266575b602083101461325257565b634e487b7160e01b5f52602260045260245ffd5b91607f1691613247565b9060405191825f825461328281613238565b908184526020946001916001811690815f146132f057506001146132b2575b5050506132b092500383613138565b565b5f90815285812095935091905b8183106132d85750506132b093508201015f80806132a1565b855488840185015294850194879450918301916132bf565b925050506132b094925060ff191682840152151560051b8201015f80806132a1565b5f5b8381106133235750505f910152565b8181015183820152602001613314565b9060209161334c81518092818552858086019101613312565b601f01601f1916010190565b90613370602091949394604084526040840190613333565b931515910152565b6060600319820112610310576001600160401b039160043583811161031057826133a49160040161319e565b926024356001600160a01b03811681036103105792604435918211610310576131b99160040161319e565b6040906003190112610310576004359060243590565b6001600160401b0381116131095760051b60200190565b81601f8201121561031057803591602091613416846133e5565b936134246040519586613138565b808552838086019160051b8301019280841161031057848301915b84831061344f5750505050505090565b82356001600160401b0381116103105786916134708484809489010161319e565b81520192019161343f565b604060031982011261031057600435906001600160401b038211610310576134a59160040161319e565b9060243590565b9060058210156134b95752565b634e487b7160e01b5f52602160045260245ffd5b9060038210156134b95752565b909291604082019360048110156134b95782526132b091602001906134cd565b805482101561350f575f5260205f2001905f90565b634e487b7160e01b5f52603260045260245ffd5b1561352a57565b60405162461bcd60e51b815260206004820152600a60248201526927b7363c9030b236b4b760b11b6044820152606490fd5b1561356357565b60405162461bcd60e51b815260206004820152601560248201527415d85b1b195d081b9bdd081c9959da5cdd195c9959605a1b6044820152606490fd5b6001600160a01b039091165f9081526001602052604090205480156135dd576135c891613e9c565b5f52600660205260ff600160405f2001541690565b50505f90565b156135ea57565b60405162461bcd60e51b81526020600482015260146024820152732737ba1030b71030b1ba34bb329036b2b6b132b960611b6044820152606490fd5b60048210156134b95752565b60038210156134b95752565b1561364557565b60405162461bcd60e51b815260206004820152601960248201527f5265636f72642049442063616e6e6f7420626520656d707479000000000000006044820152606490fd5b1561369157565b60405162461bcd60e51b8152602060048201526016602482015275496e76616c69642077616c6c6574206164647265737360501b6044820152606490fd5b156136d657565b60405162461bcd60e51b8152602060048201526013602482015272496e76616c696420726f6c6520737472696e6760681b6044820152606490fd5b805490600160401b8210156131095781613733916001613749940181556134fa565b819391549060031b91821b915f19901b19161790565b9055565b5f19811461375b5760010190565b634e487b7160e01b5f52601160045260245ffd5b805182101561350f5760209160051b010190565b1561378a57565b60405162461bcd60e51b815260206004820152601d60248201527f57616c6c657420616464726573732063616e6e6f74206265207a65726f0000006044820152606490fd5b156137d657565b60405162461bcd60e51b815260206004820152601c60248201527f5461726765742077616c6c6574206e6f742072656769737465726564000000006044820152606490fd5b1561382257565b60405162461bcd60e51b815260206004820152602360248201527f54617267657420646f6573206e6f74206861766520616e2061637469766520726044820152626f6c6560e81b6064820152608490fd5b60405190613880826130ee565b600582526437bbb732b960d91b6020830152565b604051906138a1826130ee565b600d82526c30b236b4b734b9ba3930ba37b960991b6020830152565b604051906138ca826130ee565b60068252653b34b2bbb2b960d11b6020830152565b6138f790602060405192828480945193849201613312565b810103902090565b1561390657565b60405162461bcd60e51b815260206004820152600f60248201526e496e76616c6964206164647265737360881b6044820152606490fd5b6001600160a01b039091165f908152600160205260409020549081156135dd5761396f613968613873565b8383613ed7565b91821561397b57505090565b6131b99250613988613894565b91613ed7565b919060018060a01b03165f52600160205260405f205480156139b3576131b992613ed7565b5050505f90565b6001600160a01b039091165f90815260016020526040902054908115613a1c57602092916139e791613e9c565b5f526006825260405f206040516139fd816130ee565b60ff6001613a0a84613270565b93848452015416151593849101529190565b5050604051613a2a8161311d565b5f8152905f90565b906135c891613e9c565b6001600160a01b03165f9081526001602052604090208054908115908115613a97575b50613a92575f52600260205260ff60405f20541660058110156134b95760018114159081613a8b575090565b9050151590565b505f90565b60ff91506001015416155f613a5f565b6001600160a01b03165f9081526001602052604090208054908115908115613aed575b50613a92575f52600260205260ff60405f20541660058110156134b95760041490565b60ff91506001015416155f613aca565b60208151910120613b0c613873565b602081519101208114908115613b3c575b8115613b27575090565b9050613b316138bd565b602081519101201490565b9050613b46613894565b60208151910120811490613b1d565b91909182516001600160401b03811161310957613b728254613238565b601f8111613c17575b50602080601f8311600114613bb65750819293945f92613bab575b50508160011b915f199060031b1c1916179055565b015190505f80613b96565b90601f19831695845f5260205f20925f905b888210613bff57505083600195969710613be7575b505050811b019055565b01515f1960f88460031b161c191690555f8080613bdd565b80600185968294968601518155019501930190613bc8565b825f5260205f20601f830160051c81019160208410613c52575b601f0160051c01905b818110613c475750613b7b565b5f8155600101613c3a565b9091508190613c31565b919091613c698382613e9c565b91825f5260209260068452604090815f2090613c8482613270565b9060ff60018351159401541690613cbf8551613c9f816130ee565b87815260018a8201818152845f5260068c52612ad5895f20935184613b55565b5f52600d875288845f2055155f14613d885750613cdd838786614146565b613d18575b613cf95f80516020614337833981519152936138df565b93613d0d8251938385948552840190613333565b9042908301520390a4565b845f52600a8452805f208054600160401b81101561310957613d3f916001820181556134fa565b613d755783613d5f5f8051602061433783398151915295613cf993613b55565b613d6a600b5461374d565b600b55935050613ce2565b634e487b7160e01b5f525f60045260245ffd5b9650505092918451818601209084519085012003613da7575b50505050565b612be2613db5948383613f35565b5f808080613da1565b60038310156134b9578215613e0957600191613dd991614099565b9114613de25790565b80516020820120613df1613873565b6020815191012014613e005790565b506131b9613894565b5050506131b96138bd565b9392935f5b8151811015613e945780613e38613e326001938761376f565b51613afd565b15613e8f57613e5187613e4b838661376f565b51613a32565b15613e8f57613e6484613e4b838661376f565b613e8f57613e8987613e76838661376f565b5186613e82858a61376f565b5191613c5c565b01613e19565b613e89565b505050509050565b90613ed16040805180936020613ebb8184019788815193849201613312565b8201906020820152036020810184520182613138565b51902090565b60209291613ee491613e9c565b5f526006825260405f20604051613efa816130ee565b60ff6001613f0784613270565b938484520154161515938491015282613f1f57505090565b9091506020815191012090602081519101201490565b8251602080940120613f45613873565b8051908501208103613f7c575082613f6d916132b09460405193828580945193849201613312565b8101600781520301902061420e565b613f84613894565b8051908501208103613fbb575082613fac916132b09460405193828580945193849201613312565b8101600881520301902061420e565b613fc36138bd565b84815191012014613fd357505050565b82613fee916132b09460405193828580945193849201613312565b8101600981520301902061420e565b600c546001600160a01b03169081156139b35760209161403b916040518095819482936379d615f560e11b8452604060048501526044840190613333565b90602483015203915afa90811561408e575f91614056575090565b90506020813d602011614086575b8161407160209383613138565b81010312610310575180151581036103105790565b3d9150614064565b6040513d5f823e3d90fd5b906140a391613e9c565b5f52600660205260405f2060ff6001604051926140bf846130ee565b6140c881613270565b845201541615801560208301526140dd575190565b506040516140ea8161311d565b5f815290565b6001600160a01b03165f9081526001602052604090208054908115908115614136575b50613a92575f52600260205260ff60405f20541660058110156134b95760031490565b60ff91506001015416155f614113565b8251602080940120614156613873565b805190850120810361418d57508261417e916132b09460405193828580945193849201613312565b81016007815203019020613711565b614195613894565b80519085012081036141cc5750826141bd916132b09460405193828580945193849201613312565b81016008815203019020613711565b6141d46138bd565b848151910120146141e457505050565b826141ff916132b09460405193828580945193849201613312565b81016009815203019020613711565b5f5b81549081811015613da157839161422782856134fa565b959054600396871b1c146142415750909250600101614210565b5f19925082810190811161375b5761373361425f61426c92866134fa565b905490871b1c92856134fa565b9055815480156142915781019261428384846134fa565b81939154921b1b1916905555565b634e487b7160e01b5f52603160045260245ffd5b905f8091602081519101845af48080614323575b156142d95750506040513d81523d5f602083013e60203d82010160405290565b1561430057604051639996b31560e01b81526001600160a01b039091166004820152602490fd5b3d15614311576040513d5f823e3d90fd5b60405163d6bda27560e01b8152600490fd5b503d1515806142b95750813b15156142b956fe2a27f0a20e4df4738f3a8e2449b014d439e7ce0a97ee5860771c25cbafa1cfeba26469706673582212208b5421529f13d2a2bb63ebf41d257d244a20bca25690d0dace3a65490ea739d964736f6c63430008180033",
  "linkReferences": {},
  "deployedLinkReferences": {}
}