{
  "_format": "hh-sol-artifact-1",
  "contractName": "MemberRoleManager",
  "sourceName": "smartContracts/MemberRoleManager.sol",
  "abi": [
    {
      "inputs": [],
      "stateMutability": "nonpayable",
      "type": "constructor"
    },
    {
      "inputs": [
        {
          "internalType": "address",
          "name": "target",
          "type": "address"
        }
      ],
      "name": "AddressEmptyCode",
      "type": "error"
    },
    {
      "inputs": [
        {
          "internalType": "address",
          "name": "implementation",
          "type": "address"
        }
      ],
      "name": "ERC1967InvalidImplementation",
      "type": "error"
    },
    {
      "inputs": [],
      "name": "ERC1967NonPayable",
      "type": "error"
    },
    {
      "inputs": [],
      "name": "FailedCall",
      "type": "error"
    },
    {
      "inputs": [],
      "name": "InvalidInitialization",
      "type": "error"
    },
    {
      "inputs": [],
      "name": "NotInitializing",
      "type": "error"
    },
    {
      "inputs": [],
      "name": "UUPSUnauthorizedCallContext",
      "type": "error"
    },
    {
      "inputs": [
        {
          "internalType": "bytes32",
          "name": "slot",
          "type": "bytes32"
        }
      ],
      "name": "UUPSUnsupportedProxiableUUID",
      "type": "error"
    },
    {
      "anonymous": false,
      "inputs": [
        {
          "indexed": true,
          "internalType": "address",
          "name": "oldAdmin",
          "type": "address"
        },
        {
          "indexed": true,
          "internalType": "address",
          "name": "newAdmin",
          "type": "address"
        },
        {
          "indexed": false,
          "internalType": "uint256",
          "name": "timestamp",
          "type": "uint256"
        }
      ],
      "name": "AdminTransferred",
      "type": "event"
    },
    {
      "anonymous": false,
      "inputs": [
        {
          "indexed": true,
          "internalType": "address",
          "name": "newAddress",
          "type": "address"
        },
        {
          "indexed": false,
          "internalType": "uint256",
          "name": "timestamp",
          "type": "uint256"
        }
      ],
      "name": "HealthRecordCoreUpdated",
      "type": "event"
    },
    {
      "anonymous": false,
      "inputs": [
        {
          "indexed": false,
          "internalType": "uint64",
          "name": "version",
          "type": "uint64"
        }
      ],
      "name": "Initialized",
      "type": "event"
    },
    {
      "anonymous": false,
      "inputs": [
        {
          "indexed": true,
          "internalType": "address",
          "name": "wallet",
          "type": "address"
        },
        {
          "indexed": true,
          "internalType": "bytes32",
          "name": "userIdHash",
          "type": "bytes32"
        },
        {
          "indexed": false,
          "internalType": "uint256",
          "name": "timestamp",
          "type": "uint256"
        }
      ],
      "name": "MemberRegistered",
      "type": "event"
    },
    {
      "anonymous": false,
      "inputs": [
        {
          "indexed": true,
          "internalType": "bytes32",
          "name": "userIdHash",
          "type": "bytes32"
        },
        {
          "indexed": false,
          "internalType": "enum MemberRoleManager.MemberStatus",
          "name": "oldStatus",
          "type": "uint8"
        },
        {
          "indexed": false,
          "internalType": "enum MemberRoleManager.MemberStatus",
          "name": "newStatus",
          "type": "uint8"
        },
        {
          "indexed": true,
          "internalType": "address",
          "name": "changedBy",
          "type": "address"
        },
        {
          "indexed": false,
          "internalType": "uint256",
          "name": "timestamp",
          "type": "uint256"
        }
      ],
      "name": "MemberStatusChanged",
      "type": "event"
    },
    {
      "anonymous": false,
      "inputs": [
        {
          "indexed": true,
          "internalType": "bytes32",
          "name": "recordIdHash",
          "type": "bytes32"
        },
        {
          "indexed": true,
          "internalType": "bytes32",
          "name": "userIdHash",
          "type": "bytes32"
        },
        {
          "indexed": false,
          "internalType": "uint256",
          "name": "timestamp",
          "type": "uint256"
        }
      ],
      "name": "OwnershipVoluntarilyLeft",
      "type": "event"
    },
    {
      "anonymous": false,
      "inputs": [
        {
          "indexed": true,
          "internalType": "bytes32",
          "name": "recordIdHash",
          "type": "bytes32"
        },
        {
          "indexed": true,
          "internalType": "bytes32",
          "name": "targetIdHash",
          "type": "bytes32"
        },
        {
          "indexed": false,
          "internalType": "string",
          "name": "oldRole",
          "type": "string"
        },
        {
          "indexed": false,
          "internalType": "string",
          "name": "newRole",
          "type": "string"
        },
        {
          "indexed": true,
          "internalType": "bytes32",
          "name": "userIdHash",
          "type": "bytes32"
        },
        {
          "indexed": false,
          "internalType": "uint256",
          "name": "timestamp",
          "type": "uint256"
        }
      ],
      "name": "RoleChanged",
      "type": "event"
    },
    {
      "anonymous": false,
      "inputs": [
        {
          "indexed": true,
          "internalType": "bytes32",
          "name": "recordIdHash",
          "type": "bytes32"
        },
        {
          "indexed": true,
          "internalType": "bytes32",
          "name": "targetIdHash",
          "type": "bytes32"
        },
        {
          "indexed": false,
          "internalType": "string",
          "name": "role",
          "type": "string"
        },
        {
          "indexed": true,
          "internalType": "bytes32",
          "name": "userIdHash",
          "type": "bytes32"
        },
        {
          "indexed": false,
          "internalType": "uint256",
          "name": "timestamp",
          "type": "uint256"
        }
      ],
      "name": "RoleGranted",
      "type": "event"
    },
    {
      "anonymous": false,
      "inputs": [
        {
          "indexed": true,
          "internalType": "bytes32",
          "name": "recordIdHash",
          "type": "bytes32"
        },
        {
          "indexed": true,
          "internalType": "bytes32",
          "name": "targetIdHash",
          "type": "bytes32"
        },
        {
          "indexed": false,
          "internalType": "string",
          "name": "role",
          "type": "string"
        },
        {
          "indexed": true,
          "internalType": "bytes32",
          "name": "userIdHash",
          "type": "bytes32"
        },
        {
          "indexed": false,
          "internalType": "uint256",
          "name": "timestamp",
          "type": "uint256"
        }
      ],
      "name": "RoleRevoked",
      "type": "event"
    },
    {
      "anonymous": false,
      "inputs": [
        {
          "indexed": true,
          "internalType": "bytes32",
          "name": "trustorIdHash",
          "type": "bytes32"
        },
        {
          "indexed": true,
          "internalType": "bytes32",
          "name": "trusteeIdHash",
          "type": "bytes32"
        },
        {
          "indexed": false,
          "internalType": "enum MemberRoleManager.TrusteeLevel",
          "name": "level",
          "type": "uint8"
        },
        {
          "indexed": false,
          "internalType": "uint256",
          "name": "timestamp",
          "type": "uint256"
        }
      ],
      "name": "TrusteeAccepted",
      "type": "event"
    },
    {
      "anonymous": false,
      "inputs": [
        {
          "indexed": true,
          "internalType": "bytes32",
          "name": "trustorIdHash",
          "type": "bytes32"
        },
        {
          "indexed": true,
          "internalType": "bytes32",
          "name": "trusteeIdHash",
          "type": "bytes32"
        },
        {
          "indexed": false,
          "internalType": "uint256",
          "name": "timestamp",
          "type": "uint256"
        }
      ],
      "name": "TrusteeDeclined",
      "type": "event"
    },
    {
      "anonymous": false,
      "inputs": [
        {
          "indexed": true,
          "internalType": "bytes32",
          "name": "trustorIdHash",
          "type": "bytes32"
        },
        {
          "indexed": true,
          "internalType": "bytes32",
          "name": "trusteeIdHash",
          "type": "bytes32"
        },
        {
          "indexed": false,
          "internalType": "enum MemberRoleManager.TrusteeLevel",
          "name": "oldLevel",
          "type": "uint8"
        },
        {
          "indexed": false,
          "internalType": "enum MemberRoleManager.TrusteeLevel",
          "name": "newLevel",
          "type": "uint8"
        },
        {
          "indexed": false,
          "internalType": "uint256",
          "name": "timestamp",
          "type": "uint256"
        }
      ],
      "name": "TrusteeLevelUpdated",
      "type": "event"
    },
    {
      "anonymous": false,
      "inputs": [
        {
          "indexed": true,
          "internalType": "bytes32",
          "name": "trustorIdHash",
          "type": "bytes32"
        },
        {
          "indexed": true,
          "internalType": "bytes32",
          "name": "trusteeIdHash",
          "type": "bytes32"
        },
        {
          "indexed": false,
          "internalType": "enum MemberRoleManager.TrusteeLevel",
          "name": "level",
          "type": "uint8"
        },
        {
          "indexed": false,
          "internalType": "uint256",
          "name": "timestamp",
          "type": "uint256"
        }
      ],
      "name": "TrusteeProposed",
      "type": "event"
    },
    {
      "anonymous": false,
      "inputs": [
        {
          "indexed": true,
          "internalType": "bytes32",
          "name": "trustorIdHash",
          "type": "bytes32"
        },
        {
          "indexed": true,
          "internalType": "bytes32",
          "name": "trusteeIdHash",
          "type": "bytes32"
        },
        {
          "indexed": true,
          "internalType": "bytes32",
          "name": "revokedBy",
          "type": "bytes32"
        },
        {
          "indexed": false,
          "internalType": "uint256",
          "name": "timestamp",
          "type": "uint256"
        }
      ],
      "name": "TrusteeRevoked",
      "type": "event"
    },
    {
      "anonymous": false,
      "inputs": [
        {
          "indexed": true,
          "internalType": "address",
          "name": "implementation",
          "type": "address"
        }
      ],
      "name": "Upgraded",
      "type": "event"
    },
    {
      "anonymous": false,
      "inputs": [
        {
          "indexed": true,
          "internalType": "address",
          "name": "wallet",
          "type": "address"
        },
        {
          "indexed": true,
          "internalType": "bytes32",
          "name": "userIdHash",
          "type": "bytes32"
        },
        {
          "indexed": false,
          "internalType": "uint256",
          "name": "timestamp",
          "type": "uint256"
        }
      ],
      "name": "WalletLinked",
      "type": "event"
    },
    {
      "inputs": [],
      "name": "UPGRADE_INTERFACE_VERSION",
      "outputs": [
        {
          "internalType": "string",
          "name": "",
          "type": "string"
        }
      ],
      "stateMutability": "view",
      "type": "function"
    },
    {
      "inputs": [
        {
          "internalType": "bytes32",
          "name": "trustorIdHash",
          "type": "bytes32"
        }
      ],
      "name": "acceptTrustee",
      "outputs": [],
      "stateMutability": "nonpayable",
      "type": "function"
    },
    {
      "inputs": [
        {
          "internalType": "address",
          "name": "wallet",
          "type": "address"
        },
        {
          "internalType": "bytes32",
          "name": "userIdHash",
          "type": "bytes32"
        }
      ],
      "name": "addMember",
      "outputs": [],
      "stateMutability": "nonpayable",
      "type": "function"
    },
    {
      "inputs": [
        {
          "internalType": "address[]",
          "name": "walletAddresses",
          "type": "address[]"
        },
        {
          "internalType": "bytes32",
          "name": "userIdHash",
          "type": "bytes32"
        }
      ],
      "name": "addMemberBatch",
      "outputs": [],
      "stateMutability": "nonpayable",
      "type": "function"
    },
    {
      "inputs": [],
      "name": "admin",
      "outputs": [
        {
          "internalType": "address",
          "name": "",
          "type": "address"
        }
      ],
      "stateMutability": "view",
      "type": "function"
    },
    {
      "inputs": [
        {
          "internalType": "bytes32",
          "name": "",
          "type": "bytes32"
        },
        {
          "internalType": "uint256",
          "name": "",
          "type": "uint256"
        }
      ],
      "name": "adminsByRecord",
      "outputs": [
        {
          "internalType": "bytes32",
          "name": "",
          "type": "bytes32"
        }
      ],
      "stateMutability": "view",
      "type": "function"
    },
    {
      "inputs": [
        {
          "internalType": "bytes32",
          "name": "trustorIdHash",
          "type": "bytes32"
        },
        {
          "internalType": "bytes32",
          "name": "trusteeIdHash",
          "type": "bytes32"
        }
      ],
      "name": "bootstrapDependentTrustee",
      "outputs": [],
      "stateMutability": "nonpayable",
      "type": "function"
    },
    {
      "inputs": [
        {
          "internalType": "bytes32",
          "name": "recordIdHash",
          "type": "bytes32"
        },
        {
          "internalType": "address",
          "name": "targetWallet",
          "type": "address"
        },
        {
          "internalType": "string",
          "name": "newRole",
          "type": "string"
        }
      ],
      "name": "changeRole",
      "outputs": [],
      "stateMutability": "nonpayable",
      "type": "function"
    },
    {
      "inputs": [
        {
          "internalType": "bytes32[]",
          "name": "recordIdHashes",
          "type": "bytes32[]"
        },
        {
          "internalType": "address",
          "name": "targetWallet",
          "type": "address"
        },
        {
          "internalType": "string[]",
          "name": "newRoles",
          "type": "string[]"
        }
      ],
      "name": "changeRoleBatch",
      "outputs": [],
      "stateMutability": "nonpayable",
      "type": "function"
    },
    {
      "inputs": [
        {
          "internalType": "address",
          "name": "wallet",
          "type": "address"
        }
      ],
      "name": "deactivateWallet",
      "outputs": [],
      "stateMutability": "nonpayable",
      "type": "function"
    },
    {
      "inputs": [
        {
          "internalType": "bytes32",
          "name": "trustorIdHash",
          "type": "bytes32"
        }
      ],
      "name": "declineTrustee",
      "outputs": [],
      "stateMutability": "nonpayable",
      "type": "function"
    },
    {
      "inputs": [
        {
          "internalType": "bytes32",
          "name": "trustorIdHash",
          "type": "bytes32"
        },
        {
          "internalType": "enum MemberRoleManager.TrusteeLevel",
          "name": "newLevel",
          "type": "uint8"
        }
      ],
      "name": "downgradeTrusteeLevel",
      "outputs": [],
      "stateMutability": "nonpayable",
      "type": "function"
    },
    {
      "inputs": [
        {
          "internalType": "bytes32",
          "name": "recordIdHash",
          "type": "bytes32"
        }
      ],
      "name": "getAllRecordParticipants",
      "outputs": [
        {
          "internalType": "bytes32[]",
          "name": "owners",
          "type": "bytes32[]"
        },
        {
          "internalType": "bytes32[]",
          "name": "admins",
          "type": "bytes32[]"
        },
        {
          "internalType": "bytes32[]",
          "name": "sharers",
          "type": "bytes32[]"
        },
        {
          "internalType": "bytes32[]",
          "name": "viewers",
          "type": "bytes32[]"
        }
      ],
      "stateMutability": "view",
      "type": "function"
    },
    {
      "inputs": [],
      "name": "getHealthRecordCore",
      "outputs": [
        {
          "internalType": "address",
          "name": "",
          "type": "address"
        }
      ],
      "stateMutability": "view",
      "type": "function"
    },
    {
      "inputs": [
        {
          "internalType": "bytes32",
          "name": "recordIdHash",
          "type": "bytes32"
        }
      ],
      "name": "getRecordAdmins",
      "outputs": [
        {
          "internalType": "bytes32[]",
          "name": "",
          "type": "bytes32[]"
        }
      ],
      "stateMutability": "view",
      "type": "function"
    },
    {
      "inputs": [
        {
          "internalType": "bytes32",
          "name": "recordIdHash",
          "type": "bytes32"
        }
      ],
      "name": "getRecordOwners",
      "outputs": [
        {
          "internalType": "bytes32[]",
          "name": "",
          "type": "bytes32[]"
        }
      ],
      "stateMutability": "view",
      "type": "function"
    },
    {
      "inputs": [
        {
          "internalType": "bytes32",
          "name": "recordIdHash",
          "type": "bytes32"
        }
      ],
      "name": "getRecordRoleStats",
      "outputs": [
        {
          "internalType": "uint256",
          "name": "ownerCount",
          "type": "uint256"
        },
        {
          "internalType": "uint256",
          "name": "adminCount",
          "type": "uint256"
        },
        {
          "internalType": "uint256",
          "name": "sharerCount",
          "type": "uint256"
        },
        {
          "internalType": "uint256",
          "name": "viewerCount",
          "type": "uint256"
        }
      ],
      "stateMutability": "view",
      "type": "function"
    },
    {
      "inputs": [
        {
          "internalType": "bytes32",
          "name": "recordIdHash",
          "type": "bytes32"
        }
      ],
      "name": "getRecordSharers",
      "outputs": [
        {
          "internalType": "bytes32[]",
          "name": "",
          "type": "bytes32[]"
        }
      ],
      "stateMutability": "view",
      "type": "function"
    },
    {
      "inputs": [
        {
          "internalType": "bytes32",
          "name": "recordIdHash",
          "type": "bytes32"
        }
      ],
      "name": "getRecordViewers",
      "outputs": [
        {
          "internalType": "bytes32[]",
          "name": "",
          "type": "bytes32[]"
        }
      ],
      "stateMutability": "view",
      "type": "function"
    },
    {
      "inputs": [
        {
          "internalType": "bytes32",
          "name": "recordIdHash",
          "type": "bytes32"
        },
        {
          "internalType": "address",
          "name": "wallet",
          "type": "address"
        }
      ],
      "name": "getRoleDetails",
      "outputs": [
        {
          "internalType": "string",
          "name": "role",
          "type": "string"
        },
        {
          "internalType": "bool",
          "name": "isActive",
          "type": "bool"
        }
      ],
      "stateMutability": "view",
      "type": "function"
    },
    {
      "inputs": [
        {
          "internalType": "bytes32",
          "name": "recordIdHash",
          "type": "bytes32"
        },
        {
          "internalType": "bytes32",
          "name": "userIdHash",
          "type": "bytes32"
        }
      ],
      "name": "getRoleDetailsByUser",
      "outputs": [
        {
          "internalType": "string",
          "name": "role",
          "type": "string"
        },
        {
          "internalType": "bool",
          "name": "isActive",
          "type": "bool"
        }
      ],
      "stateMutability": "view",
      "type": "function"
    },
    {
      "inputs": [
        {
          "internalType": "bytes32",
          "name": "recordIdHash",
          "type": "bytes32"
        },
        {
          "internalType": "bytes32",
          "name": "userIdHash",
          "type": "bytes32"
        }
      ],
      "name": "getRoleGranter",
      "outputs": [
        {
          "internalType": "bytes32",
          "name": "",
          "type": "bytes32"
        }
      ],
      "stateMutability": "view",
      "type": "function"
    },
    {
      "inputs": [],
      "name": "getTotalUsers",
      "outputs": [
        {
          "internalType": "uint256",
          "name": "",
          "type": "uint256"
        }
      ],
      "stateMutability": "view",
      "type": "function"
    },
    {
      "inputs": [
        {
          "internalType": "bytes32",
          "name": "trustorIdHash",
          "type": "bytes32"
        },
        {
          "internalType": "bytes32",
          "name": "trusteeIdHash",
          "type": "bytes32"
        }
      ],
      "name": "getTrusteeGrantedRecords",
      "outputs": [
        {
          "internalType": "bytes32[]",
          "name": "",
          "type": "bytes32[]"
        }
      ],
      "stateMutability": "view",
      "type": "function"
    },
    {
      "inputs": [
        {
          "internalType": "bytes32",
          "name": "trustorIdHash",
          "type": "bytes32"
        },
        {
          "internalType": "bytes32",
          "name": "trusteeIdHash",
          "type": "bytes32"
        }
      ],
      "name": "getTrusteeRelationship",
      "outputs": [
        {
          "internalType": "enum MemberRoleManager.TrusteeStatus",
          "name": "status",
          "type": "uint8"
        },
        {
          "internalType": "enum MemberRoleManager.TrusteeLevel",
          "name": "level",
          "type": "uint8"
        }
      ],
      "stateMutability": "view",
      "type": "function"
    },
    {
      "inputs": [
        {
          "internalType": "address",
          "name": "wallet",
          "type": "address"
        }
      ],
      "name": "getUserForWallet",
      "outputs": [
        {
          "internalType": "bytes32",
          "name": "",
          "type": "bytes32"
        }
      ],
      "stateMutability": "view",
      "type": "function"
    },
    {
      "inputs": [
        {
          "internalType": "bytes32",
          "name": "userIdHash",
          "type": "bytes32"
        }
      ],
      "name": "getUserStatus",
      "outputs": [
        {
          "internalType": "enum MemberRoleManager.MemberStatus",
          "name": "status",
          "type": "uint8"
        }
      ],
      "stateMutability": "view",
      "type": "function"
    },
    {
      "inputs": [
        {
          "internalType": "bytes32",
          "name": "userIdHash",
          "type": "bytes32"
        }
      ],
      "name": "getWalletsForUser",
      "outputs": [
        {
          "internalType": "address[]",
          "name": "",
          "type": "address[]"
        }
      ],
      "stateMutability": "view",
      "type": "function"
    },
    {
      "inputs": [
        {
          "internalType": "bytes32",
          "name": "recordIdHash",
          "type": "bytes32"
        },
        {
          "internalType": "address",
          "name": "targetWallet",
          "type": "address"
        },
        {
          "internalType": "string",
          "name": "role",
          "type": "string"
        }
      ],
      "name": "grantRole",
      "outputs": [],
      "stateMutability": "nonpayable",
      "type": "function"
    },
    {
      "inputs": [
        {
          "internalType": "bytes32[]",
          "name": "recordIdHashes",
          "type": "bytes32[]"
        },
        {
          "internalType": "address",
          "name": "targetWallet",
          "type": "address"
        },
        {
          "internalType": "string[]",
          "name": "roles",
          "type": "string[]"
        }
      ],
      "name": "grantRoleBatch",
      "outputs": [],
      "stateMutability": "nonpayable",
      "type": "function"
    },
    {
      "inputs": [
        {
          "internalType": "bytes32",
          "name": "recordIdHash",
          "type": "bytes32"
        },
        {
          "internalType": "address",
          "name": "wallet",
          "type": "address"
        }
      ],
      "name": "hasActiveRole",
      "outputs": [
        {
          "internalType": "bool",
          "name": "",
          "type": "bool"
        }
      ],
      "stateMutability": "view",
      "type": "function"
    },
    {
      "inputs": [
        {
          "internalType": "bytes32",
          "name": "recordIdHash",
          "type": "bytes32"
        },
        {
          "internalType": "address",
          "name": "wallet",
          "type": "address"
        },
        {
          "internalType": "string",
          "name": "role",
          "type": "string"
        }
      ],
      "name": "hasRole",
      "outputs": [
        {
          "internalType": "bool",
          "name": "",
          "type": "bool"
        }
      ],
      "stateMutability": "view",
      "type": "function"
    },
    {
      "inputs": [],
      "name": "healthRecordCore",
      "outputs": [
        {
          "internalType": "contract HealthRecordCoreInterface",
          "name": "",
          "type": "address"
        }
      ],
      "stateMutability": "view",
      "type": "function"
    },
    {
      "inputs": [],
      "name": "initialize",
      "outputs": [],
      "stateMutability": "nonpayable",
      "type": "function"
    },
    {
      "inputs": [
        {
          "internalType": "bytes32",
          "name": "recordIdHash",
          "type": "bytes32"
        },
        {
          "internalType": "address",
          "name": "targetWallet",
          "type": "address"
        },
        {
          "internalType": "string",
          "name": "role",
          "type": "string"
        }
      ],
      "name": "initializeRecordRole",
      "outputs": [],
      "stateMutability": "nonpayable",
      "type": "function"
    },
    {
      "inputs": [
        {
          "internalType": "address",
          "name": "wallet",
          "type": "address"
        }
      ],
      "name": "isActiveMember",
      "outputs": [
        {
          "internalType": "bool",
          "name": "",
          "type": "bool"
        }
      ],
      "stateMutability": "view",
      "type": "function"
    },
    {
      "inputs": [
        {
          "internalType": "bytes32",
          "name": "recordIdHash",
          "type": "bytes32"
        },
        {
          "internalType": "bytes32",
          "name": "userIdHash",
          "type": "bytes32"
        }
      ],
      "name": "isActiveSubject",
      "outputs": [
        {
          "internalType": "bool",
          "name": "",
          "type": "bool"
        }
      ],
      "stateMutability": "view",
      "type": "function"
    },
    {
      "inputs": [
        {
          "internalType": "bytes32",
          "name": "trustorIdHash",
          "type": "bytes32"
        },
        {
          "internalType": "bytes32",
          "name": "trusteeIdHash",
          "type": "bytes32"
        }
      ],
      "name": "isControllerOf",
      "outputs": [
        {
          "internalType": "bool",
          "name": "",
          "type": "bool"
        }
      ],
      "stateMutability": "view",
      "type": "function"
    },
    {
      "inputs": [
        {
          "internalType": "bytes32",
          "name": "recordIdHash",
          "type": "bytes32"
        },
        {
          "internalType": "address",
          "name": "wallet",
          "type": "address"
        }
      ],
      "name": "isOwnerOrAdmin",
      "outputs": [
        {
          "internalType": "bool",
          "name": "",
          "type": "bool"
        }
      ],
      "stateMutability": "view",
      "type": "function"
    },
    {
      "inputs": [
        {
          "internalType": "address",
          "name": "wallet",
          "type": "address"
        }
      ],
      "name": "isVerifiedMember",
      "outputs": [
        {
          "internalType": "bool",
          "name": "",
          "type": "bool"
        }
      ],
      "stateMutability": "view",
      "type": "function"
    },
    {
      "inputs": [
        {
          "internalType": "address",
          "name": "wallet",
          "type": "address"
        }
      ],
      "name": "isVerifiedProvider",
      "outputs": [
        {
          "internalType": "bool",
          "name": "",
          "type": "bool"
        }
      ],
      "stateMutability": "view",
      "type": "function"
    },
    {
      "inputs": [
        {
          "internalType": "bytes32",
          "name": "",
          "type": "bytes32"
        },
        {
          "internalType": "uint256",
          "name": "",
          "type": "uint256"
        }
      ],
      "name": "ownersByRecord",
      "outputs": [
        {
          "internalType": "bytes32",
          "name": "",
          "type": "bytes32"
        }
      ],
      "stateMutability": "view",
      "type": "function"
    },
    {
      "inputs": [
        {
          "internalType": "bytes32",
          "name": "trusteeIdHash",
          "type": "bytes32"
        },
        {
          "internalType": "enum MemberRoleManager.TrusteeLevel",
          "name": "level",
          "type": "uint8"
        },
        {
          "internalType": "bytes32[]",
          "name": "recordIdHashes",
          "type": "bytes32[]"
        }
      ],
      "name": "proposeTrustee",
      "outputs": [],
      "stateMutability": "nonpayable",
      "type": "function"
    },
    {
      "inputs": [],
      "name": "proxiableUUID",
      "outputs": [
        {
          "internalType": "bytes32",
          "name": "",
          "type": "bytes32"
        }
      ],
      "stateMutability": "view",
      "type": "function"
    },
    {
      "inputs": [
        {
          "internalType": "address",
          "name": "wallet",
          "type": "address"
        }
      ],
      "name": "reactivateWallet",
      "outputs": [],
      "stateMutability": "nonpayable",
      "type": "function"
    },
    {
      "inputs": [
        {
          "internalType": "bytes32",
          "name": "",
          "type": "bytes32"
        }
      ],
      "name": "recordRoles",
      "outputs": [
        {
          "internalType": "string",
          "name": "role",
          "type": "string"
        },
        {
          "internalType": "bool",
          "name": "isActive",
          "type": "bool"
        }
      ],
      "stateMutability": "view",
      "type": "function"
    },
    {
      "inputs": [
        {
          "internalType": "bytes32",
          "name": "recordIdHash",
          "type": "bytes32"
        },
        {
          "internalType": "address",
          "name": "targetWallet",
          "type": "address"
        }
      ],
      "name": "revokeRole",
      "outputs": [],
      "stateMutability": "nonpayable",
      "type": "function"
    },
    {
      "inputs": [
        {
          "internalType": "bytes32[]",
          "name": "recordIdHashes",
          "type": "bytes32[]"
        },
        {
          "internalType": "address",
          "name": "targetWallet",
          "type": "address"
        }
      ],
      "name": "revokeRoleBatch",
      "outputs": [],
      "stateMutability": "nonpayable",
      "type": "function"
    },
    {
      "inputs": [
        {
          "internalType": "bytes32",
          "name": "trustorIdHash",
          "type": "bytes32"
        },
        {
          "internalType": "bytes32",
          "name": "trusteeIdHash",
          "type": "bytes32"
        }
      ],
      "name": "revokeTrustee",
      "outputs": [],
      "stateMutability": "nonpayable",
      "type": "function"
    },
    {
      "inputs": [
        {
          "internalType": "bytes32",
          "name": "",
          "type": "bytes32"
        }
      ],
      "name": "roleGrantedBy",
      "outputs": [
        {
          "internalType": "bytes32",
          "name": "",
          "type": "bytes32"
        }
      ],
      "stateMutability": "view",
      "type": "function"
    },
    {
      "inputs": [
        {
          "internalType": "address",
          "name": "_healthRecordCore",
          "type": "address"
        }
      ],
      "name": "setHealthRecordCore",
      "outputs": [],
      "stateMutability": "nonpayable",
      "type": "function"
    },
    {
      "inputs": [
        {
          "internalType": "bytes32",
          "name": "userIdHash",
          "type": "bytes32"
        },
        {
          "internalType": "enum MemberRoleManager.MemberStatus",
          "name": "newStatus",
          "type": "uint8"
        }
      ],
      "name": "setUserStatus",
      "outputs": [],
      "stateMutability": "nonpayable",
      "type": "function"
    },
    {
      "inputs": [
        {
          "internalType": "bytes32",
          "name": "",
          "type": "bytes32"
        },
        {
          "internalType": "uint256",
          "name": "",
          "type": "uint256"
        }
      ],
      "name": "sharersByRecord",
      "outputs": [
        {
          "internalType": "bytes32",
          "name": "",
          "type": "bytes32"
        }
      ],
      "stateMutability": "view",
      "type": "function"
    },
    {
      "inputs": [],
      "name": "totalUsers",
      "outputs": [
        {
          "internalType": "uint256",
          "name": "",
          "type": "uint256"
        }
      ],
      "stateMutability": "view",
      "type": "function"
    },
    {
      "inputs": [
        {
          "internalType": "address",
          "name": "newAdmin",
          "type": "address"
        }
      ],
      "name": "transferAdmin",
      "outputs": [],
      "stateMutability": "nonpayable",
      "type": "function"
    },
    {
      "inputs": [
        {
          "internalType": "bytes32",
          "name": "",
          "type": "bytes32"
        },
        {
          "internalType": "bytes32",
          "name": "",
          "type": "bytes32"
        }
      ],
      "name": "trusteeRelationships",
      "outputs": [
        {
          "internalType": "enum MemberRoleManager.TrusteeStatus",
          "name": "status",
          "type": "uint8"
        },
        {
          "internalType": "enum MemberRoleManager.TrusteeLevel",
          "name": "level",
          "type": "uint8"
        }
      ],
      "stateMutability": "view",
      "type": "function"
    },
    {
      "inputs": [
        {
          "internalType": "bytes32",
          "name": "trusteeIdHash",
          "type": "bytes32"
        },
        {
          "internalType": "enum MemberRoleManager.TrusteeLevel",
          "name": "newLevel",
          "type": "uint8"
        }
      ],
      "name": "updateTrusteeLevel",
      "outputs": [],
      "stateMutability": "nonpayable",
      "type": "function"
    },
    {
      "inputs": [
        {
          "internalType": "address",
          "name": "newImplementation",
          "type": "address"
        },
        {
          "internalType": "bytes",
          "name": "data",
          "type": "bytes"
        }
      ],
      "name": "upgradeToAndCall",
      "outputs": [],
      "stateMutability": "payable",
      "type": "function"
    },
    {
      "inputs": [
        {
          "internalType": "bytes32",
          "name": "",
          "type": "bytes32"
        }
      ],
      "name": "userStatus",
      "outputs": [
        {
          "internalType": "enum MemberRoleManager.MemberStatus",
          "name": "",
          "type": "uint8"
        }
      ],
      "stateMutability": "view",
      "type": "function"
    },
    {
      "inputs": [
        {
          "internalType": "bytes32",
          "name": "",
          "type": "bytes32"
        },
        {
          "internalType": "uint256",
          "name": "",
          "type": "uint256"
        }
      ],
      "name": "userWallets",
      "outputs": [
        {
          "internalType": "address",
          "name": "",
          "type": "address"
        }
      ],
      "stateMutability": "view",
      "type": "function"
    },
    {
      "inputs": [
        {
          "internalType": "bytes32",
          "name": "",
          "type": "bytes32"
        },
        {
          "internalType": "uint256",
          "name": "",
          "type": "uint256"
        }
      ],
      "name": "viewersByRecord",
      "outputs": [
        {
          "internalType": "bytes32",
          "name": "",
          "type": "bytes32"
        }
      ],
      "stateMutability": "view",
      "type": "function"
    },
    {
      "inputs": [
        {
          "internalType": "bytes32",
          "name": "recordIdHash",
          "type": "bytes32"
        }
      ],
      "name": "voluntarilyLeaveOwnership",
      "outputs": [],
      "stateMutability": "nonpayable",
      "type": "function"
    },
    {
      "inputs": [
        {
          "internalType": "address",
          "name": "",
          "type": "address"
        }
      ],
      "name": "wallets",
      "outputs": [
        {
          "internalType": "bytes32",
          "name": "userIdHash",
          "type": "bytes32"
        },
        {
          "internalType": "bool",
          "name": "isWalletActive",
          "type": "bool"
        }
      ],
      "stateMutability": "view",
      "type": "function"
    }
  ],
  "bytecode": "0x60a08060405234620000d157306080527ff0c57e16840df040f15088dc2f81fe391c3923bec73e23a9662efc9c229c6a009081549060ff8260401c16620000c257506001600160401b036002600160401b0319828216016200007c575b6040516155de9081620000d68239608051818181612a2c0152612e660152f35b6001600160401b031990911681179091556040519081527fc7f505b2f371ae2175ee4913f4499e1f2633a7b5936321eed1cdaeb6115181d290602090a15f80806200005c565b63f92ee8a960e01b8152600490fd5b5f80fdfe6080604090808252600480361015610015575f80fd5b5f3560e01c918262b0c80914613f6e5750816302ba810914613d71578163033e822f14613d485781630519e2a014613d225781630b3ffd1d14613c65578163259ed80e14613c4057816329c9087a1461353b5781632ab5d8f3146135125781632ae8511d14613389578163331055921461334c5781633befa4101461333157816341a51baa14613308578163422a5bb8146132d457816343e197041461328257816345ecd02f1461326257816349df7208146131225781634d3c4a7c146130135781634f1ef28614612e1657816351eed47214612a9057816352d1902d14612a19578163557ee54f1461297f578163558160791461294f578163562c788e146108c457816364f639d41461293457816369ac2022146127415781636b4bed9714610534578163726d54471461242157816375829def146123a357816378ad8f5b146122ff5781637b657d07146122b55781638129fc1c146121985781638776cd351461216857816389b08f11146121235781638db7edb4146120d457816393ccfba8146120a45781639443cd801461205e57816396207e0214611f1a5781639915b91f14611e8f5781639be572f614611b6b578163aaddc34514611e63578163ab48384a14611d5e578163ad3cb1cc14611d1a578163b8cab84b14611c3e578163bb0f86d514611b87578163bff1f9e114611b6b578163c36dc9ef14611b42578163c497d84014611afc578163c715582314611a80578163c88c35fe14611a5a578163c979c9bf146117cb578163cb261a031461179d578163cda06c6e14611776578163d12a7768146116c7578163d547741f1461120b578163dc9f966414610f41578163dde492ea14610b31578163e6efcd5d146108ec578163e94ed257146108c4578163f12b9ad314610567578163f29e007b14610534578163f32b10f0146104f6578163f76794f1146102fe575063f851a440146102d4575f80fd5b346102fa575f3660031901126102fa575f5490516001600160a01b039091168152602090f35b5f80fd5b82346102fa57602091826003193601126102fa5780359261032661032133614c18565b614416565b335f52600193848252835f205492815f52600c8352845f20845f528352845f209081549160ff918860ff851661035b816143eb565b036104b35760ff1980941617905584837fc1f9bda0602b12c2f11218f87531038a6957666101c4faad39c882dcc5093dc6868951428152a3825f52600d8452855f20855f528452855f20875f905b6103cb575b6103c9888888885f52600d8152825f20915f52525f20614add565b005b81548110156104ae57908882888a6103e684989796866143c2565b90549060031b1c895f52600e8b52815f20835f528b52815f20815f528b52815f208881541690556104178382614d73565b5f528a60058082528887855f20015416156104a4578493600b5f80516020615569833981519152936104498787614d73565b93845f5280825261045b845f2061428d565b94610467868a8a614ef4565b5f52815289835f20018d8154169055525f818120558d610490825193838594855284019061432f565b9042908301520390a45b01909192936103a9565b505050505061049a565b6103ae565b875162461bcd60e51b8152908101869052601e60248201527f4e6f2070656e64696e672070726f706f73616c20746f206465636c696e6500006044820152606490fd5b82346102fa576105053661438d565b91905f526008602052805f2080548310156102fa57602092610526916143c2565b91905490519160031b1c8152f35b82346102fa5760203660031901126102fa57602091355f526002825260ff815f205416905190610563816143eb565b8152f35b82346102fa57806003193601126102fa5781356001600160401b0381116102fa576105959036908401614050565b9161059e613fb8565b6105aa61032133614c18565b6001600160a01b03169081156108905750335f52600192602060018152835f2054925f52835f2054916105de83151561449d565b855f9584861415915b6105ed57005b82518710156103c957878761060d87610607849b88614a42565b51615074565b1561088b57878761062881610622858a614a42565b51614d73565b805f526005808a5261063b875f2061428d565b91858b8a8c86518388012061064e614737565b848151910120811461087c5761066e896106688785614a42565b51614e05565b61087c5787938993610752575b610683614758565b8051910120146106f9575b6106a19361069b91614a42565b51614ef4565b5f52895284865f200160ff198154169055600b89525f868120555f805160206155698339815191526106e96106d6868b614a42565b519288519182918a83528a83019061432f565b428d8301520390a45b01966105e7565b9050610706929150614a42565b515f5260068b52858a895f20541580610732575b6107265785859161068e565b505050505050506106f2565b509061073d91614a42565b515f5260078b52858a888a5f2054111561071a565b925092508b6107746107648684614a42565b518b61076e614737565b91614da7565b8a61078c6107828886614a42565b518261076e614758565b928a8c6107976147a3565b88815191012089148015610866575b156107f6575050885f52600b86525f205414901591826107ed575b50816107e4575b506107d6578692889261067b565b5050505050505050506106f2565b9050155f6107c8565b1591505f6107c1565b9693925096939050610806614758565b838151910120841461081a575b505061067b565b91945091945061082a8684614a42565b515f908152600685528e9020541561084e5750155b6107d657869288925f80610813565b9015908161085d575b5061083f565b9050155f610857565b5061086f614781565b88815191012089146107a6565b505050505050505050506106f2565b6106f2565b606490602084519162461bcd60e51b8352820152600e60248201526d125b9d985b1a59081dd85b1b195d60921b6044820152fd5b82346102fa575f3660031901126102fa57600a5490516001600160a01b039091168152602090f35b82346102fa576108fb3661438d565b9161091060018060a01b035f54163314614588565b8115610afd57610921831515614b0d565b61092d83831415614b4b565b815f526002602081815260ff835f205416610947816143eb565b15610ac257845f5281815261096c60ff845f205416610965816143eb565b1515614b97565b835f52600c8152825f20855f52815260ff835f20541661098b816143eb565b8015908115610aae575b5015610a5d5782516109a681613fce565b828152818101838152855f52600c8352845f20875f5283526109d5855f2092516109cf816143eb565b83614978565b51966003881015610a4a57507fc5b2e1bd4433eb4e9e181cc803520513d39d918c96bddeebca1224e1c750963d949596610a0e916149fe565b85857f494d010fdf588a0e83d626ea6963187bdda6f88b7007f7bf280683d3f7dea8348580518681524286820152a382519182524290820152a3005b602190634e487b7160e01b5f525260245ffd5b8560849184519162461bcd60e51b8352820152602660248201527f52656c6174696f6e7368697020616c726561647920616374697665206f722070604482015265656e64696e6760d01b6064820152fd5b60039150610abb816143eb565b1487610995565b8560649184519162461bcd60e51b83528201526016602482015275151c9d5cdd1bdc881b9bdd081c9959da5cdd195c995960521b6044820152fd5b5162461bcd60e51b8152602081850152600f60248201526e24b73b30b634b2103a393ab9ba37b960891b6044820152606490fd5b9050346102fa57610b4136614213565b919290610b5061032133614c18565b610b5b841515614605565b6001600160a01b031692610b70841515614651565b610b81610b7c84614cfb565b61469d565b335f5260209160018352855f2054945f52855f205492610ba284151561449d565b845181860120610bb28785614d73565b5f526005825260ff6001895f2001541615610f0057835f5260068252875f2054151590610be7610be0614737565b8987614da7565b91610bfa610bf3614758565b8a88614da7565b91610c0d610c06614781565b8b89614da7565b90610c16614737565b8051908701208103610d5457505015610cfa575015610cb8575b610c3a8484614d73565b5f526005815260ff6001885f20015416610c5a5750506103c9945061507e565b865162461bcd60e51b815291820152603360248201527f54617267657420616c726561647920686173206120726f6c652e2055736520636044820152721a185b99d9549bdb194a0a481a5b9cdd195859606a1b606482015260849150fd5b865162461bcd60e51b815291820181905260248201527f4f6e6c79206f776e6572732063616e206772616e74206f776e657220726f6c65604482015260649150fd5b9050610c3057865162461bcd60e51b815291820152602960248201527f4f6e6c792061646d696e6973747261746f72732063616e206772616e742066696044820152683939ba1037bbb732b960b91b606482015260849150fd5b90929150610d60614758565b8051908601208103610dd8575090508115610dd0575b50610c3057865162461bcd60e51b815291820152603b60248201525f8051602061558983398151915260448201527f616e206772616e742061646d696e6973747261746f7220726f6c650000000000606482015260849150fd5b90505f610d76565b610de0614781565b8051908601208103610e4f575090508115610e47575b50610c3057865162461bcd60e51b815291820152603460248201525f80516020615589833981519152604482015273616e206772616e742073686172657220726f6c6560601b606482015260849150fd5b90505f610df6565b610e576147a3565b85815191012014610e6b575b505050610c30565b8215610ef8575b508115610ef0575b5015610e88575f8080610e63565b865162461bcd60e51b815291820152603e60248201527f4f6e6c79206f776e6572732c2061646d696e6973747261746f72732c20616e6460448201527f20736861726572732063616e206772616e742076696577657220726f6c650000606482015260849150fd5b90505f610e7a565b91505f610e72565b60648383808b519262461bcd60e51b845283015260248201527f596f752068617665206e6f20726f6c6520666f722074686973207265636f72646044820152fd5b82346102fa5760603660031901126102fa5781359060243560038110156102fa576044356001600160401b0381116102fa57610f809036908601614050565b610f8c61032133614c18565b335f52600193602091858352845f2054610fa7831515614b0d565b610fb383821415614b4b565b825f526002845260ff91610fd060ff885f205416610965816143eb565b815f52600c8552865f20845f52855260ff875f205416610fef816143eb565b8981159182156111f3575b82156111df575b50501561118e57865161101381613fce565b8881528581016110238882614a56565b835f52600c8752885f20865f528752611043895f2092516109cf816143eb565b519960038b1015610a4a5750889961105a916149fe565b83827f494d010fdf588a0e83d626ea6963187bdda6f88b7007f7bf280683d3f7dea83489805161108a818c614409565b428a820152a35f975b61109957005b80518810156103c95788886110af829a84614a42565b516110bb8986836152b3565b6110c481614cfb565b15611187576110d38683614d73565b5f526005808a5287858d5f200154161561117f576110f18984614d73565b5f5289528587858d5f2001541661117f5761110d91898461507e565b845f52600e8089528a5f20885f5289528a5f20825f528952868b5f2054161561113b575b50505b0197611093565b855f52600d89528a5f20885f528952611156828c5f20614bdc565b855f528852895f20875f528852895f20905f528752885f208260ff198254161790558b80611131565b505050611134565b5050611134565b865162461bcd60e51b8152808a01869052602560248201527f50726f706f73616c20616c726561647920657869737473206f722069732070656044820152646e64696e6760d81b6064820152608490fd5b9091506111eb816143eb565b14898b611001565b80925061120091506143eb565b896003821491610ffa565b82346102fa57806003193601126102fa578135611226613fb8565b61123261032133614c18565b61123d821515614605565b6001600160a01b031692611252841515614651565b335f5260209260018452805f2054945f52805f20549361127385151561449d565b61127d8585614d73565b805f526005825261129660ff6001855f200154166146df565b805f52600582526112a8835f2061428d565b938451838601206112b7614737565b8481519101208114611650576112cd8888614e05565b6115c1578789036113db575b6112e1614758565b84815191012014611346575b509083929161130b5f80516020615569833981519152958888614ef4565b5f52600581526001825f200160ff198154169055600b81525f8281205561133b825193838594855284019061432f565b9042908301520390a4005b855f52600783526001845f20541160068452845f2054151581156113d3575b506112ed57835162461bcd60e51b8152908101839052603960248201527f43616e6e6f74207265766f6b65206c6173742061646d696e6973747261746f7260448201527f20776974686f757420616e206f776e65722070726573656e74000000000000006064820152608490fd5b905089611365565b6113ed6113e6614737565b8a89614da7565b6113ff6113f8614758565b8b8a614da7565b845f52600b86528a875f205414906114156147a3565b878151910120841480156115ab575b156114d05782156114c8575b5081156114c0575b5015611444575b6112d9565b845162461bcd60e51b8152808301859052604a60248201527f4f6e6c79206f776e6572732c2061646d696e6973747261746f72732c206f722060448201527f746865206772616e7465722063616e207265766f6b65207669657765722f73686064820152696172657220726f6c657360b01b608482015260a490fd5b90508a611438565b91508b611430565b8215929150826115a3575b501561155b57156112d9576114ee614758565b848151910120810361143f57865f5260068452845f20541561143f57845162461bcd60e51b8152808301859052602560248201527f4f6e6c79206f776e6572732063616e207265766f6b652061646d696e6973747260448201526461746f727360d81b6064820152608490fd5b855162461bcd60e51b8152808401869052602f60248201525f8051602061558983398151915260448201526e616e207265766f6b6520726f6c657360881b6064820152608490fd5b90508b6114db565b506115b4614781565b8781519101208414611424565b845162461bcd60e51b8152808301859052605760248201527f43616e6e6f74207265766f6b6520616e20616374697665207375626a6563742760448201527f7320726f6c652e20416374697665207375626a65637473206d75737420686f6c60648201527f64206174206c656173742073686172657220726f6c652e000000000000000000608482015260a490fd5b845162461bcd60e51b8152808301859052604560248201527f4f776e6572732063616e6e6f74206265207265766f6b65642e204f776e65722060448201527f6d7573742075736520766f6c756e746172696c794c656176654f776e6572736860648201526434b814149760d91b608482015260a490fd5b9050346102fa57602090816003193601126102fa578290355f5260038252805f208151928381835491828152019081935f52825f20905f5b8181106117595750505084611715910385614018565b825181815293518185018190528493840192915f5b82811061173957505050500390f35b83516001600160a01b03168552869550938101939281019260010161172a565b82546001600160a01b0316845292840192600192830192016116ff565b82346102fa5760203660031901126102fa57602091355f52600b8252805f20549051908152f35b82346102fa5760203660031901126102fa576020906117c26117bd613fa2565b615261565b90519015158152f35b82346102fa576117da3661438d565b90926117e861032133614c18565b335f52600193602091858352845f2054908282148015611a51575b15611a1057825f52600c8452855f20855f52845260ff9060ff875f20541661182a816143eb565b88600282149182156119fc575b5050156119af5750825f52600c8452855f20855f528452855f2090600360ff19926003848254161790558387867f6df3a6475fab2eed139f7e469995b04e85bfc5b4b8642587109cb72541f74fae898c51428152a4845f52600d8652875f20875f528652875f20895f905b6118c2575b6103c98a8a8a8a5f52600d8152825f20915f52525f20614add565b81548110156119aa57908a82878b8d8c6118e1869c9b9a9998886143c2565b905490891b1c918d5f52600e8252805f20845f528252805f20835f528252805f208b81541690556119128484614d73565b5f526005908183528a88825f200154161561199f575f80516020615569833981519152926119408686614d73565b92835f52808252611952835f2061428d565b9361195e858989614ef4565b5f52815288825f20018d8154169055600b81525f82812055611989825193838594855284019061432f565b9042908301520390a45b019091929394956118a2565b505050505050611993565b6118a7565b865162461bcd60e51b8152908101859052602160248201527f4e6f20616374697665206f722070656e64696e672072656c6174696f6e7368696044820152600760fc1b6064820152608490fd5b909150611a08816143eb565b14888a611837565b606490848088519262461bcd60e51b845283015260248201527f4e6f74206120706172747920746f20746869732072656c6174696f6e736869706044820152fd5b50848214611803565b82346102fa57806003193601126102fa576117c2602092611a79613fb8565b9035614aa0565b82346102fa5760203660031901126102fa577fce59ad7d6dabe8a7533ed7d9bd07d276a046ac7ac9a8e8e8971da4b81104a28b6020611abd613fa2565b5f546001600160a01b039190611ad69083163314614588565b1692611ae3841515614a62565b600a80546001600160a01b0319168517905551428152a2005b82346102fa57611b3e90611b0f3661438d565b905f52600d602052815f20905f52602052611b2b815f206144e9565b90519182916020835260208301906141e0565b0390f35b82346102fa5760203660031901126102fa57611b3e91355f526006602052611b2b815f206144e9565b82346102fa575f3660031901126102fa57602091549051908152f35b9050346102fa5760203660031901126102fa57611ba2613fa2565b5f546001600160a01b039190611bbb9083163314614588565b16805f5260019182602052611bd4845f205415156145c1565b815f528260205260ff83855f20015416611c0357509181925f52816020525f20019060ff198254161790555f80f35b606490602085519162461bcd60e51b8352820152601560248201527457616c6c657420616c72656164792061637469766560581b6044820152fd5b82346102fa57602090816003193601126102fa57823591611c6161032133614c18565b335f5260018152815f205493835f52600c8252825f20855f528252825f2090815490600160ff8316611c92816143eb565b03611ce1575091611cd960ff9260027fc5b2e1bd4433eb4e9e181cc803520513d39d918c96bddeebca1224e1c750963d969585191617809155845193849160081c16614409565b4290820152a3005b845162461bcd60e51b81529081018490526013602482015272139bc81c195b991a5b99c81c1c9bdc1bdcd85b606a1b6044820152606490fd5b82346102fa575f3660031901126102fa578051611b3e91611d3a82613fce565b60058252640352e302e360dc1b60208301525191829160208352602083019061432f565b9050346102fa57611d6e366143a3565b91611d7b61032133614c18565b335f526001602052835f205490815f52600c602052845f20835f52602052845f2060ff8154611db76002838316611db1816143eb565b146149b2565b60081c16916003861015610a4a576003831015610a4a57858314611e2057507fb36ec3c738ef8ecd9180addc815304762374b76e91c2a321831d9906ea119ade611e1885936103c998611e0b8988966149fe565b5191829189429184614a1d565b0390a3614f9f565b606490602088519162461bcd60e51b8352820152601860248201527f416c72656164792074686973207472757374206c6576656c00000000000000006044820152fd5b82346102fa57602090611e7e611e783661438d565b90614d73565b5f52600b8252805f20549051908152f35b9050346102fa57611e9f3661438d565b905f52600c602052825f20905f52602052815f2090825191611ec083613fce565b549160ff8316611ecf816143eb565b8152611ee560ff602083019460081c1684614a56565b5191611ef0836143eb565b51906003821015610a4a5750611f1890835192611f0c816143eb565b83526020830190614409565bf35b82346102fa57806003193601126102fa5781359060243560058110156102fa57611f4e60018060a01b035f54163314614588565b825f5260206002815260ff835f205416611f67816143eb565b1561202657835f526002815260ff835f20541694611f84836143eb565b611f8d866143eb565b828614611fef5750835f5260028152611fa882845f20614978565b825194611fb4816143eb565b8552611fbf826143eb565b84015242908301527ff6277c6ee46649823db9a5c531db3112b4340c67179cae1932ba3420dcc37cc760603393a3005b60649184519162461bcd60e51b83528201526013602482015272416c726561647920746869732073746174757360681b6044820152fd5b8460649184519162461bcd60e51b83528201526013602482015272155cd95c881b9bdd081c9959da5cdd195c9959606a1b6044820152fd5b82346102fa5761206d3661438d565b91905f526003602052805f2080548310156102fa5760209261208e916143c2565b60018060a01b0391549060031b1c169051908152f35b82346102fa576120b33661438d565b91905f526009602052805f2080548310156102fa57602092610526916143c2565b82346102fa576020806003193601126102fa57608092355f5260068152815f20549160078252805f20549060088352805f20549160098452815f20549382519586528501528301526060820152f35b82346102fa5760203660031901126102fa576001600160a01b03612145613fa2565b165f526001602052805f2060ff6001825492015416825191825215156020820152f35b82346102fa576121773661438d565b91905f526007602052805f2080548310156102fa57602092610526916143c2565b9050346102fa575f3660031901126102fa577ff0c57e16840df040f15088dc2f81fe391c3923bec73e23a9662efc9c229c6a0090815460ff81851c1615916001600160401b038216801590816122ad575b60011490816122a3575b15908161229a575b5061228c575067ffffffffffffffff19811660011783558161226d575b505f80546001600160a01b0319163317905561223057005b805468ff00000000000000001916905551600181527fc7f505b2f371ae2175ee4913f4499e1f2633a7b5936321eed1cdaeb6115181d290602090a1005b68ffffffffffffffffff1916680100000000000000011782555f612218565b845163f92ee8a960e01b8152fd5b9050155f6121fb565b303b1591506121f3565b8491506121e9565b82346102fa576122c43661438d565b905f52600c602052815f20905f52602052805f2054611f1860ff8216918351926122ed816143eb565b835260ff602084019160081c16614409565b82346102fa57602091826003193601126102fa5761237b92611b3e91355f5260068152612395835f209360078352805f209460088452612388825f20946009815261236761236161235b612355875f20966144e9565b9a6144e9565b976144e9565b936144e9565b958451998a9960808b5260808b01906141e0565b91898303908a01526141e0565b91868303908701526141e0565b9083820360608501526141e0565b82346102fa5760203660031901126102fa576020906123c0613fa2565b5f5491906001600160a01b03808416917f38df5fa0f7fef0d515ca1f5388cb5790ac5885d5fca8d05d9f943e563c33a4b391906123fe338514614588565b1694859361240d851515614a62565b51428152a36001600160a01b031916175f55005b9050346102fa5761243136614213565b93909260018060a01b03612449815f54163314614588565b612454841515614605565b8416612461811515614869565b61246d610b7c87614cfb565b5f52600160209181835261248f845f20549661248a8815156145c1565b614c18565b156126fe57845f5260068352835f205415806126ef575b156126ac576124b58686614d73565b91825f5260058452845f209160ff826124cd8561428d565b94015416918651916124de83613fce565b8a835286830190828252865f5260058852885f2093518051916001600160401b03831161269957506125108554614255565b601f8111612653575b508890601f83116001146125ec5761256095949392915f91836125e1575b50505f19600383901b1c191690831b1783555b51151591019060ff801983541691151516179055565b6125b45750915f95917ff9d17eb1340ab78960b594ff8bed1349985b800ee21199c6d5ea4a67454593ad938752600b815286828120556125a183878761542c565b61133b825193838594855284019061432f565b95949392505084518186012090845190850120036125ce57005b6125dc6103c9948383614ef4565b61542c565b015190505f80612537565b90601f19831691865f528a5f20925f5b8c82821061263f575050918695949291836125609998959310612627575b505050811b01835561254a565b01515f1960f88460031b161c191690555f808061261a565b8385015186559488019493840193016125fc565b855f52895f20601f840160051c8101918b851061268f575b601f0160051c019085905b828110612684575050612519565b5f8155018590612676565b909150819061266b565b604190634e487b7160e01b5f525260245ffd5b835162461bcd60e51b8152908101839052601a60248201527f5265636f726420616c726561647920696e697469616c697a65640000000000006044820152606490fd5b5060078352835f2054156124a6565b835162461bcd60e51b8152908101839052601860248201527f4d75737420626520616e20616374697665206d656d62657200000000000000006044820152606490fd5b82346102fa57806003193601126102fa576001600160401b039082358281116102fa57366023820112156102fa57808401359283116102fa5760246005913660248660051b830101116102fa575f546001600160a01b039660243595916127ab9089163314614588565b86156128fc576127bc8615156148ae565b855f526002936020936002855260ff845f2054166127d9816143eb565b15965f5b8a81106127e657005b8381831b84010135908c8216918281036102fa578261286d8d9261280d6001961515614869565b825f5261285e8b8d8890818152612827835f2054156148f1565b82519261283384613fce565b8884528282850192818452895f52525f209251835551151591019060ff801983541691151516179055565b835f5260038c528a5f2061493d565b8215806128f5575b156128c857815f528a8a52885f208b60ff198254161790556128978854614990565b88557f39d132591ee0696de49ab564e4a90e430c006561917db731a2a614dd2d2455918a8a51428152a35b016127dd565b7f1cc138f50384be7770a8e4a34eecaa0d0c718bfaa1641af49db32532e4a5b9108a8a51428152a36128c2565b508b612875565b6020606492519162461bcd60e51b83528201526013602482015272139bc81dd85b1b195d1cc81c1c9bdd9a591959606a1b6044820152fd5b82346102fa576020906117c26129493661438d565b90614e05565b82346102fa5761295e3661438d565b91905f526006602052805f2080548310156102fa57602092610526916143c2565b82346102fa5761298e3661438d565b905f52600c602052815f20905f52602052805f209060028151926129b184613fce565b549260ff84166129c0816143eb565b81526129d660ff602083019560081c1685614a56565b516129e0816143eb565b6129e9816143eb565b1491826129fd575b60208383519015158152f35b90915051916003831015610a4a575060026020921490836129f1565b82346102fa575f3660031901126102fa577f00000000000000000000000000000000000000000000000000000000000000006001600160a01b03163003612a8357602090517f360894a13ba1a3210667c828492db98dca3e2076cc3735a920a3ca505d382bbc8152f35b5163703e46dd60e11b8152fd5b82346102fa57612a9f36614113565b90612aac61032133614c18565b612ab98351835114614459565b335f52600193602091858352815f20549060018060a01b03165f52815f205490612ae482151561449d565b865f96838314915b612af257005b80518810156103c9578888612b08829a84614a42565b51612b13828b614a42565b51612b1d81614cfb565b15612e0f57612b2c8783614d73565b5f526005808b5260ff80868c5f2001541615612e0657612b4c8a85614d73565b5f52818c52858b5f2001541615612dfe57612b678984614d73565b5f528a52612b76895f2061428d565b9088888c8451818601208d85518387012090818314612c8257612b97614737565b8481519101208314612c8257885f52600684525f205415918215612bc3612bbc614737565b878c614da7565b90612bd6612bcf614758565b888d614da7565b90612be48c8961076e614781565b612bec614737565b8051908901208603612ca4575015612c90575015612c82575b612c0d614758565b848151910120149283612c68575b505081612c60575b5080612c48575b612c3e57612c3794614e8f565b0197612aec565b5050505050612c37565b505050825f5260078b528888868c5f20541115612c2a565b90505f612c23565b90919250612c746147a3565b805191012014905f8f612c1b565b505050505050505050612c37565b9050612c0557505050505050505050612c37565b919290612caf614758565b8051908901208603612cda57509050159081612cd1575b50612c82575b612c05565b9050155f612cc6565b612ce2614781565b8051908901208603612d6d5715612d3957159182612d21575b5081612d0b5750612c8257612c05565b905080612d1a575b155f612cc6565b508c612d13565b90915080612d32575b15905f612cfb565b508d612d2a565b5090159081612d57575b5015612ccc57505050505050505050612c37565b905080612d66575b155f612d43565b508c612d5f565b612d756147a3565b8881519101208614612d8b575b50505050612c05565b15612dea57159182612dd2575b5081612dbc575b50612c82575b612daf868a614e05565b612c82575f808080612d82565b905080612dcb575b155f612d9f565b508c612dc4565b90915080612de3575b15905f612d98565b508d612ddb565b5050612da557505050505050505050612c37565b505050612c37565b50505050612c37565b5050612c37565b9050816003193601126102fa57612e2b613fa2565b916024356001600160401b0381116102fa57366023820112156102fa57612e5b90369060248186013591016140b0565b906001600160a01b037f00000000000000000000000000000000000000000000000000000000000000008116308114908115612fe5575b50612fd557612ea5815f54163314614588565b8416918151946352d1902d60e01b86526020868681875afa5f9681612fa1575b50612ee157505051634c9c8ce360e01b81529182015260249150fd5b838593877f360894a13ba1a3210667c828492db98dca3e2076cc3735a920a3ca505d382bbc90818103612f8b5750833b15612f745780546001600160a01b0319168317905551907fbc7cd75a20ee27fd9adebab32041f755214dbc6bffa90cc0225b39da2e5c2d3b5f80a2825115612f5e57506103c992506154d7565b91505034612f6857005b63b398979f60e01b8152fd5b8151634c9c8ce360e01b8152808701849052602490fd5b86602491845191632a87526960e21b8352820152fd5b9096506020813d602011612fcd575b81612fbd60209383614018565b810103126102fa5751955f612ec5565b3d9150612fb0565b815163703e46dd60e11b81528490fd5b9050817f360894a13ba1a3210667c828492db98dca3e2076cc3735a920a3ca505d382bbc541614155f612e92565b9050346102fa57613023366143a3565b919061303161032133614c18565b335f526001602052835f205491815f52600c602052845f20835f52602052845f208054613066600260ff8316611db1816143eb565b600386101561310f5760081c60ff16916003831015610a4a578260ff871610156130c057507fb36ec3c738ef8ecd9180addc815304762374b76e91c2a321831d9906ea119ade611e1885936103c998611e0b8988966149fe565b608490602088519162461bcd60e51b8352820152602360248201527f43616e206f6e6c7920646f776e677261646520746f2061206c6f776572206c656044820152621d995b60ea1b6064820152fd5b602183634e487b7160e01b5f525260245ffd5b82346102fa57806003193601126102fa5761313b613fa2565b916024359260018060a01b03613155815f54163314614588565b811692613163841515614869565b61316e8515156148ae565b835f526131d360209260018452613188835f2054156148f1565b6131c4835161319681613fce565b8881526001868201818152895f52818852865f209251835551151591019060ff801983541691151516179055565b865f5260038452825f2061493d565b845f526002825260ff815f2054166131ea816143eb565b613238577f39d132591ee0696de49ab564e4a90e430c006561917db731a2a614dd2d24559192855f5260028352815f20600260ff1982541617905561322f8154614990565b905551428152a3005b7f1cc138f50384be7770a8e4a34eecaa0d0c718bfaa1641af49db32532e4a5b910925051428152a3005b82346102fa5760203660031901126102fa576020906117c261248a613fa2565b82346102fa57602090613297611e783661438d565b5f5260058252611b3e815f209180516132af81613fce565b60ff60016132bc8661428d565b9586845201541615159485910152519283928361436d565b82346102fa57806003193601126102fa576132fb611b3e926132f4613fb8565b90356147f1565b929091519283928361436d565b82346102fa5760203660031901126102fa57611b3e91355f526007602052611b2b815f206144e9565b82346102fa576020906117c261334636614213565b916147c5565b9050346102fa5760203660031901126102fa57355f526005602052805f20611b3e60ff600161337a8461428d565b9301541692519283928361436d565b82346102fa576020806003193601126102fa578235916133ab61032133614c18565b6133b6831515614605565b335f5260018252805f2054936133d46133cd614737565b8686614da7565b156134c557835f52600683526001825f20541160078452825f2054151581156134bd575b50156134625750907f68f37cc4a32f0b24153ce9237b344b20a9717039f90d7c24f35e5c217f03e1689161342c8585614d73565b61343e613437614737565b8787614ef4565b5f52600582526001815f200160ff198154169055600b82525f8181205551428152a3005b82608492519162461bcd60e51b8352820152603160248201527f43616e6e6f74206c65617665206173206c617374206f776e65722077697468206044820152706e6f2061646d696e6973747261746f727360781b6064820152fd5b9050866133f8565b82608492519162461bcd60e51b8352820152602360248201527f596f7520617265206e6f7420616e206f776e6572206f662074686973207265636044820152621bdc9960ea1b6064820152fd5b82346102fa5760203660031901126102fa57611b3e91355f526008602052611b2b815f206144e9565b9050346102fa5761354b36614213565b91929061355a61032133614c18565b613565841515614605565b6001600160a01b0316613579811515614651565b613585610b7c84614cfb565b335f5260209360018552855f2054915f52855f2054926135a684151561449d565b845186860120956135b78584614d73565b805f52600582526135d060ff60018b5f200154166146df565b5f52600581526135e1885f2061428d565b9687518289012090808214613bfd576135f8614737565b8381519101208214613b8857845f5260068352895f20541591821561362561361e614737565b8989614da7565b90613638613631614758565b8a8a614da7565b9061364b613644614781565b8b8b614da7565b8b8b14613656614737565b8051908a012087036137d357505015613776575015613735575b613678614758565b84815191012014908161371e575b50613699575b5050506103c99550614e8f565b6136a4575b8061368c565b825f52600781526001885f20541161369e57875162461bcd60e51b815291820152603960248201527f43616e6e6f742064656d6f746520746865206c6173742061646d696e6973747260448201527f61746f72207768656e206e6f206f776e65722065786973747300000000000000606482015260849150fd5b90506137286147a3565b838151910120145f613686565b60648585808e519262461bcd60e51b845283015260248201527f4f6e6c79206f776e6572732063616e2070726f6d6f746520746f206f776e65726044820152fd5b9050613670578a5162461bcd60e51b8152808601859052602b60248201527f4f6e6c792061646d696e6973747261746f72732063616e2070726f6d6f74652060448201526a3334b939ba1037bbb732b960a91b6064820152608490fd5b90916137dd614758565b8051908a0120870361385d575050508115613855575b50156137ff575b613670565b8a5162461bcd60e51b8152808601859052603b60248201525f8051602061558983398151915260448201527f616e2070726f6d6f746520746f2061646d696e6973747261746f7200000000006064820152608490fd5b90505f6137f3565b61386993919293614781565b8051908a012087036139ca571561394e578315613937575b50821561391e575b5050613670578a5162461bcd60e51b8152808601859052605760248201527f4f6e6c79206f776e6572732063616e206368616e6765206f746865727320746f60448201527f207368617265722e2041646d696e7320616e6420736861726572732063616e2060648201527f6f6e6c792064656d6f7465207468656d73656c7665732e000000000000000000608482015260a490fd5b9091508161392f575b505f80613889565b90505f613927565b90925080613947575b915f613881565b5081613940565b925082156139b1575b50506137fa578a5162461bcd60e51b8152808601859052602860248201527f4f6e6c792061646d696e6973747261746f72732063616e2064656d6f74652074604482015267379039b430b932b960c11b6064820152608490fd5b909150816139c2575b505f80613957565b90505f6139ba565b6139d26147a3565b89815191012087146139e9575b5050505050613670565b15613b2c578315613b15575b508215613afc575b505015613a75575b613a0f8887614e05565b613a1d575f808080806139df565b8a5162461bcd60e51b8152808601859052602c60248201527f43616e6e6f742064656d6f746520616e20616374697665207375626a6563742060448201526b3132b637bb9039b430b932b960a11b6064820152608490fd5b8a5162461bcd60e51b8152808601859052605560248201527f4f6e6c79206f776e6572732063616e2064656d6f7465206f74686572732e204160448201527f646d696e6973747261746f727320616e6420736861726572732063616e206f6e606482015274363c903232b6b7ba32903a3432b6b9b2b63b32b99760591b608482015260a490fd5b90915081613b0d575b505f806139fd565b90505f613b05565b90925080613b25575b915f6139f5565b5081613b1e565b92505050613a05578a5162461bcd60e51b8152808601859052602860248201527f4f6e6c792061646d696e6973747261746f72732063616e2064656d6f7465207460448201526737903b34b2bbb2b960c11b6064820152608490fd5b895162461bcd60e51b8152808501849052604360248201527f4f776e6572732063616e6e6f742062652064656d6f7465642e204f776e65722060448201527f6d75737420766f6c756e746172696c792072656d6f7665207468656d73656c7660648201526232b99760e91b608482015260a490fd5b895162461bcd60e51b8152808501849052601c60248201527f54617267657420616c726561647920686173207468697320726f6c65000000006044820152606490fd5b82346102fa5760203660031901126102fa576020906117c2613c60613fa2565b614ca9565b82346102fa5760203660031901126102fa57613c7f613fa2565b5f546001600160a01b039190613c989083163314614588565b16805f526001602052613caf825f205415156145c1565b805f52600160205260ff6001835f2001541615613cdf57600192505f52816020525f200160ff1981541690555f80f35b815162461bcd60e51b8152602081850152601760248201527f57616c6c657420616c726561647920696e6163746976650000000000000000006044820152606490fd5b82346102fa57806003193601126102fa576117c2602092613d41613fb8565b9035614537565b82346102fa5760203660031901126102fa57611b3e91355f526009602052611b2b815f206144e9565b82346102fa57613d8036614113565b9290613d8e61032133614c18565b613d9b8351855114614459565b335f52600193849360209060018252845f20549360018060a01b03165f52845f205491613dc983151561449d565b5f965b613dd257005b81518710156103c9578787613df1613deb839a88614a42565b51614cfb565b15613ebd57613e04876106078387614a42565b15613ebd57613e17856106078387614a42565b613ebd57613e258187614a42565b51838151910120613e43613e398387614a42565b518961076e614737565b613e5a613e508488614a42565b518a61076e614758565b91613e63614737565b8051908701208103613eca575090613e7b8387614a42565b515f908152600686528a90205415613ec25750155b613ebd575b613eb687613ea38387614a42565b5187613eaf858b614a42565b519161507e565b0196613dcc565b613eb6565b905015613e90565b613ed2614758565b8051908701208103613efb5750159081613ef2575b50613ebd575b613e95565b9050158b613ee7565b613f03614781565b80519087012003613f2a57159081613f21575b5015613e9557613eb6565b9050158b613f16565b613f41613f378488614a42565b518a61076e614781565b90159182613f65575b5081613f5c575b5015613eed57613eb6565b9050158b613f51565b1591508c613f4a565b8390346102fa5760203660031901126102fa576020916001600160a01b03613f94613fa2565b165f52600183525f20548152f35b600435906001600160a01b03821682036102fa57565b602435906001600160a01b03821682036102fa57565b604081019081106001600160401b03821117613fe957604052565b634e487b7160e01b5f52604160045260245ffd5b602081019081106001600160401b03821117613fe957604052565b90601f801991011681019081106001600160401b03821117613fe957604052565b6001600160401b038111613fe95760051b60200190565b9080601f830112156102fa57602090823561406a81614039565b936140786040519586614018565b81855260208086019260051b8201019283116102fa57602001905b8282106140a1575050505090565b81358152908301908301614093565b9291926001600160401b038211613fe957604051916140d9601f8201601f191660200184614018565b8294818452818301116102fa578281602093845f960137010152565b9080601f830112156102fa57816020614110933591016140b0565b90565b60606003198201126102fa576001600160401b03916004358381116102fa578261413f91600401614050565b9260249283356001600160a01b03811681036102fa5793604435928084116102fa57826023850112156102fa57836004013561417a81614039565b946141886040519687614018565b8186526020946024602088019360051b830101948186116102fa5760248301935b8685106141bb57505050505050505090565b84358681116102fa5788916141d5858585948901016140f5565b8152019401936141a9565b9081518082526020808093019301915f5b8281106141ff575050505090565b8351855293810193928101926001016141f1565b60606003198201126102fa57600435916024356001600160a01b03811681036102fa5791604435906001600160401b0382116102fa57614110916004016140f5565b90600182811c92168015614283575b602083101461426f57565b634e487b7160e01b5f52602260045260245ffd5b91607f1691614264565b9060405191825f825461429f81614255565b908184526020946001916001811690815f1461430d57506001146142cf575b5050506142cd92500383614018565b565b5f90815285812095935091905b8183106142f55750506142cd93508201015f80806142be565b855488840185015294850194879450918301916142dc565b925050506142cd94925060ff191682840152151560051b8201015f80806142be565b91908251928382525f5b848110614359575050825f602080949584010152601f8019910116010190565b602081830181015184830182015201614339565b9061438560209194939460408452604084019061432f565b931515910152565b60409060031901126102fa576004359060243590565b60409060031901126102fa576004359060243560038110156102fa5790565b80548210156143d7575f5260205f2001905f90565b634e487b7160e01b5f52603260045260245ffd5b600511156143f557565b634e487b7160e01b5f52602160045260245ffd5b9060038210156143f55752565b1561441d57565b60405162461bcd60e51b81526020600482015260146024820152732737ba1030b71030b1ba34bb329036b2b6b132b960611b6044820152606490fd5b1561446057565b60405162461bcd60e51b8152602060048201526015602482015274082e4e4c2f240d8cadccee8d040dad2e6dac2e8c6d605b1b6044820152606490fd5b156144a457565b60405162461bcd60e51b815260206004820152601c60248201527f5461726765742077616c6c6574206e6f742072656769737465726564000000006044820152606490fd5b90604051918281549182825260209260208301915f5260205f20935f905b82821061451d575050506142cd92500383614018565b855484526001958601958895509381019390910190614507565b6001600160a01b039091165f9081526001602052604090205490811561458257614569614562614737565b8383614da7565b91821561457557505090565b614110925061076e614758565b50505f90565b1561458f57565b60405162461bcd60e51b815260206004820152600a60248201526927b7363c9030b236b4b760b11b6044820152606490fd5b156145c857565b60405162461bcd60e51b815260206004820152601560248201527415d85b1b195d081b9bdd081c9959da5cdd195c9959605a1b6044820152606490fd5b1561460c57565b60405162461bcd60e51b815260206004820152601e60248201527f5265636f726420494420686173682063616e6e6f7420626520656d70747900006044820152606490fd5b1561465857565b60405162461bcd60e51b815260206004820152601d60248201527f57616c6c657420616464726573732063616e6e6f74206265207a65726f0000006044820152606490fd5b156146a457565b60405162461bcd60e51b8152602060048201526013602482015272496e76616c696420726f6c6520737472696e6760681b6044820152606490fd5b156146e657565b60405162461bcd60e51b815260206004820152602360248201527f54617267657420646f6573206e6f74206861766520616e2061637469766520726044820152626f6c6560e81b6064820152608490fd5b6040519061474482613fce565b600582526437bbb732b960d91b6020830152565b6040519061476582613fce565b600d82526c30b236b4b734b9ba3930ba37b960991b6020830152565b6040519061478e82613fce565b600682526539b430b932b960d11b6020830152565b604051906147b082613fce565b60068252653b34b2bbb2b960d11b6020830152565b919060018060a01b03165f52600160205260405f205480156147ea5761411092614da7565b5050505f90565b6001600160a01b039091165f90815260016020526040902054908115614853576020929161481e91614d73565b5f526005825260405f2060405161483481613fce565b60ff60016148418461428d565b93848452015416151593849101529190565b505060405161486181613ffd565b5f8152905f90565b1561487057565b60405162461bcd60e51b8152602060048201526016602482015275496e76616c69642077616c6c6574206164647265737360501b6044820152606490fd5b156148b557565b60405162461bcd60e51b8152602060048201526014602482015273092dcecc2d8d2c840eae6cae440928840d0c2e6d60631b6044820152606490fd5b156148f857565b60405162461bcd60e51b815260206004820152601960248201527f57616c6c657420616c72656164792072656769737465726564000000000000006044820152606490fd5b8054600160401b811015613fe95761495a916001820181556143c2565b60018060a09493941b038084549260031b9316831b921b1916179055565b90614982816143eb565b60ff80198354169116179055565b5f19811461499e5760010190565b634e487b7160e01b5f52601160045260245ffd5b156149b957565b60405162461bcd60e51b815260206004820152601e60248201527f4e6f2061637469766520747275737465652072656c6174696f6e7368697000006044820152606490fd5b9060038110156143f55761ff0082549160081b169061ff001916179055565b614a3e604092959493614a34836060810198614409565b6020830190614409565b0152565b80518210156143d75760209160051b010190565b60038210156143f55752565b15614a6957565b60405162461bcd60e51b815260206004820152600f60248201526e496e76616c6964206164647265737360881b6044820152606490fd5b6001600160a01b039091165f90815260016020526040902054801561458257614ac891614d73565b5f52600560205260ff600160405f2001541690565b8054905f815581614aec575050565b5f5260205f20908101905b818110614b02575050565b5f8155600101614af7565b15614b1457565b60405162461bcd60e51b815260206004820152600f60248201526e496e76616c6964207472757374656560881b6044820152606490fd5b15614b5257565b60405162461bcd60e51b815260206004820152601760248201527f43616e6e6f74206170706f696e7420796f757273656c660000000000000000006044820152606490fd5b15614b9e57565b60405162461bcd60e51b8152602060048201526016602482015275151c9d5cdd1959481b9bdd081c9959da5cdd195c995960521b6044820152606490fd5b805490600160401b821015613fe95781614bfe916001614c14940181556143c2565b819391549060031b91821b915f19901b19161790565b9055565b6001600160a01b03165f9081526001602052604090208054908115908115614c99575b50614c94575f52600260205260ff60405f205416614c58816143eb565b60028114908115614c7f575b8115614c6e575090565b60049150614c7b816143eb565b1490565b9050614c8a816143eb565b6003811490614c64565b505f90565b60ff91506001015416155f614c3b565b6001600160a01b03165f9081526001602052604090208054908115908115614ceb575b50614c94575f526002602052600460ff60405f205416614c7b816143eb565b60ff91506001015416155f614ccc565b60208151910120614d0a614737565b602081519101208114908115614d5a575b8115614d41575b8115614d2c575090565b9050614d366147a3565b602081519101201490565b9050614d4b614781565b60208151910120811490614d22565b9050614d64614758565b60208151910120811490614d1b565b906040519060208201928352604082015260408152606081018181106001600160401b03821117613fe95760405251902090565b60209291614db491614d73565b5f526005825260405f20604051614dca81613fce565b60ff6001614dd78461428d565b938484520154161515938491015282614def57505090565b9091506020815191012090602081519101201490565b600a546001600160a01b03169182156147ea576044602092604051948593849263193d8e7560e21b8452600484015260248301525afa908115614e84575f91614e4c575090565b90506020813d602011614e7c575b81614e6760209383614018565b810103126102fa575180151581036102fa5790565b3d9150614e5a565b6040513d5f823e3d90fd5b91927f3af67cf2057ba8ef414286fb626cd3efb02f74996e18efd455b39d8ec7ec460f9194614ee9614edb92614ec78882898961507e565b60405193849360608552606085019061432f565b90838203602085015261432f565b4260408301520390a4565b8251602080940120614f04614737565b8051908501208103614f2457506142cd926006915f525260405f20615395565b614f2c614758565b8051908501208103614f4c57506142cd926007915f525260405f20615395565b614f54614781565b8051908501208103614f7457506142cd926008915f525260405f20615395565b614f7c6147a3565b84815191012014614f8c57505050565b6142cd926009915f525260405f20615395565b929190835f52602090600d825260409060405f20815f52835260405f20955f5b875481101561506a5780614fd56001928a6143c2565b90549060031b1c614fe68582614d73565b5f52600580885260ff84885f2001541615615063576150068986846152b3565b9061501082614cfb565b1561505b5761501f8784614d73565b5f52885261502e875f2061428d565b90868683518b85012083518c850120146150515761504b94614e8f565b01614fbf565b505050505061504b565b50505061504b565b505061504b565b5050505050509050565b90614ac891614d73565b92919261508b8282614d73565b93845f52602060058152604090815f20966150a58861428d565b9760ff60018092015416908451906150bc82613fce565b868252848201818152845f5260058652865f2092518051906001600160401b038211613fe9576150ec8554614255565b601f811161521b575b508790601f83116001146151cd5761513a95949392915f91836125e15750505f19600383901b1c191690831b17835551151591019060ff801983541691151516179055565b615198577ff9d17eb1340ab78960b594ff8bed1349985b800ee21199c6d5ea4a67454593ad94959697505f52600b815286825f205561517a83878761542c565b61518d825193838594855284019061432f565b9042908301520390a4565b509194505084518186012090845190850120036151b6575b50505050565b6125dc6151c4948383614ef4565b5f8080806151b0565b90601f19831691865f52895f20925f5b8b8282106152075750509186959492918361513a999895931061262757505050811b01835561254a565b8385015186559488019493840193016151dd565b855f52885f20601f840160051c8101918a8510615257575b601f0160051c019085905b82811061524c5750506150f5565b5f815501859061523e565b9091508190615233565b6001600160a01b03165f90815260016020526040902080549081159081156152a3575b50614c94575f526002602052600360ff60405f205416614c7b816143eb565b60ff91506001015416155f615284565b9060038310156143f557821561538a576152cc91614d73565b5f526020906005825260405f2060ff6001604051926152ea84613fce565b6152f38161428d565b8452015416158015848301526153745751915b82518184012091615315614781565b8281519101208314801561535e575b6153525760011461533457505090565b61533c614737565b8051910120146153495790565b50614110614758565b505050506141106147a3565b506153676147a3565b8281519101208314615324565b5060405161538181613ffd565b5f815291615306565b5050506141106147a3565b5f5b815490818110156151b05783916153ae82856143c2565b959054600396871b1c146153c85750909250600101615397565b5f19925082810190811161499e57614bfe6153e66153f392866143c2565b905490871b1c92856143c2565b9055815480156154185781019261540a84846143c2565b81939154921b1b1916905555565b634e487b7160e01b5f52603160045260245ffd5b825160208094012061543c614737565b805190850120810361545c57506142cd926006915f525260405f20614bdc565b615464614758565b805190850120810361548457506142cd926007915f525260405f20614bdc565b61548c614781565b80519085012081036154ac57506142cd926008915f525260405f20614bdc565b6154b46147a3565b848151910120146154c457505050565b6142cd926009915f525260405f20614bdc565b905f8091602081519101845af48080615555575b1561550b5750506040513d81523d5f602083013e60203d82010160405290565b1561553257604051639996b31560e01b81526001600160a01b039091166004820152602490fd5b3d15615543576040513d5f823e3d90fd5b60405163d6bda27560e01b8152600490fd5b503d1515806154eb5750813b15156154eb56fed05ed2d3feff840c2ececa71791388fd3d19dbbbbcfa97031f534a7dc09fbf1f4f6e6c79206f776e65727320616e642061646d696e6973747261746f72732063a264697066735822122010f83db1c2aba04a075c60ec6d9997a211c317e5928e1ca76f3c4b7b5797619264736f6c63430008180033",
  "linkReferences": {},
  "deployedLinkReferences": {}
}