{
  "_format": "hh-sol-artifact-1",
  "contractName": "UserOperationLib",
  "sourceName": "@account-abstraction/contracts/core/UserOperationLib.sol",
  "abi": [
    {
      "inputs": [],
      "name": "PAYMASTER_DATA_OFFSET",
      "outputs": [
        {
          "internalType": "uint256",
          "name": "",
          "type": "uint256"
        }
      ],
      "stateMutability": "view",
      "type": "function"
    },
    {
      "inputs": [],
      "name": "PAYMASTER_POSTOP_GAS_OFFSET",
      "outputs": [
        {
          "internalType": "uint256",
          "name": "",
          "type": "uint256"
        }
      ],
      "stateMutability": "view",
      "type": "function"
    },
    {
      "inputs": [],
      "name": "PAYMASTER_VALIDATION_GAS_OFFSET",
      "outputs": [
        {
          "internalType": "uint256",
          "name": "",
          "type": "uint256"
        }
      ],
      "stateMutability": "view",
      "type": "function"
    }
  ],
  "bytecode": "0x608080604052346100195760b0908161001e823930815050f35b5f80fdfe60808060405260043610156011575f80fd5b5f3560e01c90816325093e1b14606757508063b29a8ff41460525763ede31502146039575f80fd5b5f366003190112604e57602060405160348152f35b5f80fd5b5f366003190112604e57602060405160148152f35b5f366003190112604e5780602460209252f3fea26469706673582212203f65a60b09b2f86317639fbf7d780ac8609954c9e2908b27e186e0625ac1f19664736f6c63430008180033",
  "linkReferences": {},
  "deployedLinkReferences": {}
}