{
  "_format": "hh-sol-artifact-1",
  "contractName": "UserOperationLib",
  "sourceName": "@account-abstraction/contracts/core/UserOperationLib.sol",
  "abi": [
    {
      "inputs": [],
      "name": "PAYMASTER_DATA_OFFSET",
      "outputs": [
        {
          "internalType": "uint256",
          "name": "",
          "type": "uint256"
        }
      ],
      "stateMutability": "view",
      "type": "function"
    },
    {
      "inputs": [],
      "name": "PAYMASTER_POSTOP_GAS_OFFSET",
      "outputs": [
        {
          "internalType": "uint256",
          "name": "",
          "type": "uint256"
        }
      ],
      "stateMutability": "view",
      "type": "function"
    },
    {
      "inputs": [],
      "name": "PAYMASTER_VALIDATION_GAS_OFFSET",
      "outputs": [
        {
          "internalType": "uint256",
          "name": "",
          "type": "uint256"
        }
      ],
      "stateMutability": "view",
      "type": "function"
    }
  ],
  "bytecode": "0x608080604052346100195760bb908161001f823930815050f35b600080fdfe6080806040526004361015601257600080fd5b600090813560e01c90816325093e1b14606c57508063b29a8ff41460565763ede3150214603e57600080fd5b80600319360112605357602060405160348152f35b80fd5b5080600319360112605357602060405160148152f35b90508160031936011260815780602460209252f35b5080fdfea2646970667358221220c2707728ddfadd85ad13c050821aac5b95da324611be0a9e1b3ef8f79841929964736f6c63430008170033",
  "linkReferences": {},
  "deployedLinkReferences": {}
}