{
  "_format": "hh-sol-artifact-1",
  "contractName": "BelrosePaymaster",
  "sourceName": "contracts/BelrosePaymaster.sol",
  "abi": [
    {
      "inputs": [
        {
          "internalType": "contract IEntryPoint",
          "name": "_entryPoint",
          "type": "address"
        },
        {
          "internalType": "address",
          "name": "_verifyingSigner",
          "type": "address"
        },
        {
          "internalType": "uint256",
          "name": "_maxCostPerUserOp",
          "type": "uint256"
        }
      ],
      "stateMutability": "nonpayable",
      "type": "constructor"
    },
    {
      "inputs": [
        {
          "internalType": "uint256",
          "name": "cost",
          "type": "uint256"
        },
        {
          "internalType": "uint256",
          "name": "max",
          "type": "uint256"
        }
      ],
      "name": "CostExceedsMax",
      "type": "error"
    },
    {
      "inputs": [],
      "name": "ECDSAInvalidSignature",
      "type": "error"
    },
    {
      "inputs": [
        {
          "internalType": "uint256",
          "name": "length",
          "type": "uint256"
        }
      ],
      "name": "ECDSAInvalidSignatureLength",
      "type": "error"
    },
    {
      "inputs": [
        {
          "internalType": "bytes32",
          "name": "s",
          "type": "bytes32"
        }
      ],
      "name": "ECDSAInvalidSignatureS",
      "type": "error"
    },
    {
      "inputs": [],
      "name": "InvalidSignatureLength",
      "type": "error"
    },
    {
      "inputs": [],
      "name": "InvalidSignerAddress",
      "type": "error"
    },
    {
      "inputs": [
        {
          "internalType": "address",
          "name": "owner",
          "type": "address"
        }
      ],
      "name": "OwnableInvalidOwner",
      "type": "error"
    },
    {
      "inputs": [
        {
          "internalType": "address",
          "name": "account",
          "type": "address"
        }
      ],
      "name": "OwnableUnauthorizedAccount",
      "type": "error"
    },
    {
      "inputs": [],
      "name": "SignatureAlreadyUsed",
      "type": "error"
    },
    {
      "anonymous": false,
      "inputs": [
        {
          "indexed": true,
          "internalType": "address",
          "name": "sender",
          "type": "address"
        },
        {
          "indexed": true,
          "internalType": "bytes32",
          "name": "userOpHash",
          "type": "bytes32"
        },
        {
          "indexed": false,
          "internalType": "uint256",
          "name": "maxCost",
          "type": "uint256"
        }
      ],
      "name": "GasSponsored",
      "type": "event"
    },
    {
      "anonymous": false,
      "inputs": [
        {
          "indexed": false,
          "internalType": "uint256",
          "name": "oldMaxCost",
          "type": "uint256"
        },
        {
          "indexed": false,
          "internalType": "uint256",
          "name": "newMaxCost",
          "type": "uint256"
        }
      ],
      "name": "MaxCostUpdated",
      "type": "event"
    },
    {
      "anonymous": false,
      "inputs": [
        {
          "indexed": true,
          "internalType": "address",
          "name": "previousOwner",
          "type": "address"
        },
        {
          "indexed": true,
          "internalType": "address",
          "name": "newOwner",
          "type": "address"
        }
      ],
      "name": "OwnershipTransferred",
      "type": "event"
    },
    {
      "anonymous": false,
      "inputs": [
        {
          "indexed": true,
          "internalType": "address",
          "name": "oldSigner",
          "type": "address"
        },
        {
          "indexed": true,
          "internalType": "address",
          "name": "newSigner",
          "type": "address"
        }
      ],
      "name": "SignerUpdated",
      "type": "event"
    },
    {
      "inputs": [
        {
          "internalType": "uint32",
          "name": "unstakeDelaySec",
          "type": "uint32"
        }
      ],
      "name": "addStake",
      "outputs": [],
      "stateMutability": "payable",
      "type": "function"
    },
    {
      "inputs": [],
      "name": "deposit",
      "outputs": [],
      "stateMutability": "payable",
      "type": "function"
    },
    {
      "inputs": [],
      "name": "entryPoint",
      "outputs": [
        {
          "internalType": "contract IEntryPoint",
          "name": "",
          "type": "address"
        }
      ],
      "stateMutability": "view",
      "type": "function"
    },
    {
      "inputs": [],
      "name": "getDeposit",
      "outputs": [
        {
          "internalType": "uint256",
          "name": "",
          "type": "uint256"
        }
      ],
      "stateMutability": "view",
      "type": "function"
    },
    {
      "inputs": [
        {
          "internalType": "bytes32",
          "name": "userOpHash",
          "type": "bytes32"
        },
        {
          "internalType": "uint48",
          "name": "validUntil",
          "type": "uint48"
        },
        {
          "internalType": "uint48",
          "name": "validAfter",
          "type": "uint48"
        }
      ],
      "name": "getHash",
      "outputs": [
        {
          "internalType": "bytes32",
          "name": "",
          "type": "bytes32"
        }
      ],
      "stateMutability": "view",
      "type": "function"
    },
    {
      "inputs": [],
      "name": "maxCostPerUserOp",
      "outputs": [
        {
          "internalType": "uint256",
          "name": "",
          "type": "uint256"
        }
      ],
      "stateMutability": "view",
      "type": "function"
    },
    {
      "inputs": [],
      "name": "owner",
      "outputs": [
        {
          "internalType": "address",
          "name": "",
          "type": "address"
        }
      ],
      "stateMutability": "view",
      "type": "function"
    },
    {
      "inputs": [
        {
          "internalType": "enum IPaymaster.PostOpMode",
          "name": "mode",
          "type": "uint8"
        },
        {
          "internalType": "bytes",
          "name": "context",
          "type": "bytes"
        },
        {
          "internalType": "uint256",
          "name": "actualGasCost",
          "type": "uint256"
        },
        {
          "internalType": "uint256",
          "name": "actualUserOpFeePerGas",
          "type": "uint256"
        }
      ],
      "name": "postOp",
      "outputs": [],
      "stateMutability": "nonpayable",
      "type": "function"
    },
    {
      "inputs": [],
      "name": "renounceOwnership",
      "outputs": [],
      "stateMutability": "nonpayable",
      "type": "function"
    },
    {
      "inputs": [
        {
          "internalType": "uint256",
          "name": "_newMaxCost",
          "type": "uint256"
        }
      ],
      "name": "setMaxCostPerUserOp",
      "outputs": [],
      "stateMutability": "nonpayable",
      "type": "function"
    },
    {
      "inputs": [
        {
          "internalType": "address",
          "name": "newOwner",
          "type": "address"
        }
      ],
      "name": "transferOwnership",
      "outputs": [],
      "stateMutability": "nonpayable",
      "type": "function"
    },
    {
      "inputs": [],
      "name": "unlockStake",
      "outputs": [],
      "stateMutability": "nonpayable",
      "type": "function"
    },
    {
      "inputs": [
        {
          "internalType": "address",
          "name": "_newSigner",
          "type": "address"
        }
      ],
      "name": "updateSigner",
      "outputs": [],
      "stateMutability": "nonpayable",
      "type": "function"
    },
    {
      "inputs": [
        {
          "internalType": "bytes32",
          "name": "",
          "type": "bytes32"
        }
      ],
      "name": "usedSignatures",
      "outputs": [
        {
          "internalType": "bool",
          "name": "",
          "type": "bool"
        }
      ],
      "stateMutability": "view",
      "type": "function"
    },
    {
      "inputs": [
        {
          "components": [
            {
              "internalType": "address",
              "name": "sender",
              "type": "address"
            },
            {
              "internalType": "uint256",
              "name": "nonce",
              "type": "uint256"
            },
            {
              "internalType": "bytes",
              "name": "initCode",
              "type": "bytes"
            },
            {
              "internalType": "bytes",
              "name": "callData",
              "type": "bytes"
            },
            {
              "internalType": "bytes32",
              "name": "accountGasLimits",
              "type": "bytes32"
            },
            {
              "internalType": "uint256",
              "name": "preVerificationGas",
              "type": "uint256"
            },
            {
              "internalType": "bytes32",
              "name": "gasFees",
              "type": "bytes32"
            },
            {
              "internalType": "bytes",
              "name": "paymasterAndData",
              "type": "bytes"
            },
            {
              "internalType": "bytes",
              "name": "signature",
              "type": "bytes"
            }
          ],
          "internalType": "struct PackedUserOperation",
          "name": "userOp",
          "type": "tuple"
        },
        {
          "internalType": "bytes32",
          "name": "userOpHash",
          "type": "bytes32"
        },
        {
          "internalType": "uint256",
          "name": "maxCost",
          "type": "uint256"
        }
      ],
      "name": "validatePaymasterUserOp",
      "outputs": [
        {
          "internalType": "bytes",
          "name": "context",
          "type": "bytes"
        },
        {
          "internalType": "uint256",
          "name": "validationData",
          "type": "uint256"
        }
      ],
      "stateMutability": "nonpayable",
      "type": "function"
    },
    {
      "inputs": [],
      "name": "verifyingSigner",
      "outputs": [
        {
          "internalType": "address",
          "name": "",
          "type": "address"
        }
      ],
      "stateMutability": "view",
      "type": "function"
    },
    {
      "inputs": [
        {
          "internalType": "address payable",
          "name": "withdrawAddress",
          "type": "address"
        }
      ],
      "name": "withdrawStake",
      "outputs": [],
      "stateMutability": "nonpayable",
      "type": "function"
    },
    {
      "inputs": [
        {
          "internalType": "address payable",
          "name": "withdrawAddress",
          "type": "address"
        },
        {
          "internalType": "uint256",
          "name": "amount",
          "type": "uint256"
        }
      ],
      "name": "withdrawTo",
      "outputs": [],
      "stateMutability": "nonpayable",
      "type": "function"
    }
  ],
  "bytecode": "0x60a06040523480156200001157600080fd5b50604051620013ab380380620013ab8339810160408190526200003491620001f6565b8233806200005d57604051631e4fbdf760e01b8152600060048201526024015b60405180910390fd5b6200006881620000cd565b5062000074816200011d565b6001600160a01b039081166080528216620000a257604051634501a91960e01b815260040160405180910390fd5b600180546001600160a01b0319166001600160a01b0393909316929092179091556002555062000269565b600080546001600160a01b038381166001600160a01b0319831681178455604051919092169283917f8be0079c531659141344cd1fd0a4f28419497f9722a3daafe3b4186f6b6457e09190a35050565b6040516301ffc9a760e01b815263122a0e9b60e31b60048201526001600160a01b038216906301ffc9a790602401602060405180830381865afa15801562000169573d6000803e3d6000fd5b505050506040513d601f19601f820116820180604052508101906200018f91906200023e565b620001dd5760405162461bcd60e51b815260206004820152601e60248201527f49456e747279506f696e7420696e74657266616365206d69736d617463680000604482015260640162000054565b50565b6001600160a01b0381168114620001dd57600080fd5b6000806000606084860312156200020c57600080fd5b83516200021981620001e0565b60208501519093506200022c81620001e0565b80925050604084015190509250925092565b6000602082840312156200025157600080fd5b815180151581146200026257600080fd5b9392505050565b6080516110f5620002b6600039600081816102970152818161038d015281816104dc015281816105fc015281816106960152818161070601528181610793015261085b01526110f56000f3fe6080604052600436106101095760003560e01c80638da5cb5b11610095578063c23a5cea11610064578063c23a5cea146102ce578063c399ec88146102ee578063d0e30db014610303578063f2fde38b1461030b578063f978fd611461032b57600080fd5b80638da5cb5b14610247578063a7ecd37e14610265578063b0d691fe14610285578063bb9fe6bf146102b957600080fd5b806323d9ac9b116100dc57806323d9ac9b1461019657806352b7512c146101ce57806352dd9e1e146101fc578063715018a6146102125780637c627b211461022757600080fd5b80630396cb601461010e5780630a22d5ba146101235780631461205314610156578063205c287814610176575b600080fd5b61012161011c366004610d75565b61036b565b005b34801561012f57600080fd5b5061014361013e366004610dbd565b6103f6565b6040519081526020015b60405180910390f35b34801561016257600080fd5b50610121610171366004610df9565b610465565b34801561018257600080fd5b50610121610191366004610e27565b6104ae565b3480156101a257600080fd5b506001546101b6906001600160a01b031681565b6040516001600160a01b03909116815260200161014d565b3480156101da57600080fd5b506101ee6101e9366004610e53565b610520565b60405161014d929190610ea7565b34801561020857600080fd5b5061014360025481565b34801561021e57600080fd5b50610121610544565b34801561023357600080fd5b50610121610242366004610efc565b610558565b34801561025357600080fd5b506000546001600160a01b03166101b6565b34801561027157600080fd5b50610121610280366004610f94565b610567565b34801561029157600080fd5b506101b67f000000000000000000000000000000000000000000000000000000000000000081565b3480156102c557600080fd5b506101216105f2565b3480156102da57600080fd5b506101216102e9366004610f94565b61066f565b3480156102fa57600080fd5b506101436106ee565b61012161077e565b34801561031757600080fd5b50610121610326366004610f94565b6107e0565b34801561033757600080fd5b5061035b610346366004610df9565b60036020526000908152604090205460ff1681565b604051901515815260200161014d565b610373610823565b604051621cb65b60e51b815263ffffffff821660048201527f00000000000000000000000000000000000000000000000000000000000000006001600160a01b031690630396cb609034906024016000604051808303818588803b1580156103da57600080fd5b505af11580156103ee573d6000803e3d6000fd5b505050505050565b600061045d8446308686604051602001610414959493929190610fb1565b604051602081830303815290604052805190602001207f19457468657265756d205369676e6564204d6573736167653a0a3332000000006000908152601c91909152603c902090565b949350505050565b61046d610823565b60025460408051918252602082018390527f598df8bc4d7c3a9a23abde0a78576ee20e96f207ea058d57f5301f5f05fdbcb2910160405180910390a1600255565b6104b6610823565b60405163040b850f60e31b81526001600160a01b038381166004830152602482018390527f0000000000000000000000000000000000000000000000000000000000000000169063205c287890604401600060405180830381600087803b1580156103da57600080fd5b6060600061052c610850565b6105378585856108c0565b915091505b935093915050565b61054c610823565b6105566000610aea565b565b610560610850565b5050505050565b61056f610823565b6001600160a01b03811661059657604051634501a91960e01b815260040160405180910390fd5b6001546040516001600160a01b038084169216907f2d025324f0a785e8c12d0a0d91a9caa49df4ef20ff87e0df7213a1d4f3157beb90600090a3600180546001600160a01b0319166001600160a01b0392909216919091179055565b6105fa610823565b7f00000000000000000000000000000000000000000000000000000000000000006001600160a01b031663bb9fe6bf6040518163ffffffff1660e01b8152600401600060405180830381600087803b15801561065557600080fd5b505af1158015610669573d6000803e3d6000fd5b50505050565b610677610823565b60405163611d2e7560e11b81526001600160a01b0382811660048301527f0000000000000000000000000000000000000000000000000000000000000000169063c23a5cea90602401600060405180830381600087803b1580156106da57600080fd5b505af1158015610560573d6000803e3d6000fd5b6040516370a0823160e01b81523060048201526000907f00000000000000000000000000000000000000000000000000000000000000006001600160a01b0316906370a0823190602401602060405180830381865afa158015610755573d6000803e3d6000fd5b505050506040513d601f19601f820116820180604052508101906107799190610fe8565b905090565b60405163b760faf960e01b81523060048201527f00000000000000000000000000000000000000000000000000000000000000006001600160a01b03169063b760faf99034906024016000604051808303818588803b1580156106da57600080fd5b6107e8610823565b6001600160a01b03811661081757604051631e4fbdf760e01b8152600060048201526024015b60405180910390fd5b61082081610aea565b50565b6000546001600160a01b031633146105565760405163118cdaa760e01b815233600482015260240161080e565b336001600160a01b037f000000000000000000000000000000000000000000000000000000000000000016146105565760405162461bcd60e51b815260206004820152601560248201527414d95b99195c881b9bdd08115b9d1c9e541bda5b9d605a1b604482015260640161080e565b606060006002548311156108f55760025460405163f0a7822560e01b815261080e918591600401918252602082015260400190565b36600061090560e0880188611001565b9092509050606181101561092c57604051634be6321b60e01b815260040160405180910390fd5b600061093c601a6014848661104f565b61094591611079565b60d01c9050600061095a6020601a858761104f565b61096391611079565b60d01c905036600061097960616020878961104f565b91509150600061099b8b46308888604051602001610414959493929190610fb1565b60008181526003602052604090205490915060ff16156109ce5760405163900bb2c960e01b815260040160405180910390fd5b6000818152600360209081526040808320805460ff191660011790558051601f8601839004830281018301909152848152610a269186908690819084018382808284376000920191909152508693925050610b3a9050565b6001549091506001600160a01b03808316911614610a6c57610a4a60018787610b64565b604051806020016040528060008152509099509950505050505050505061053c565b8b610a7a60208f018f610f94565b6001600160a01b03167f147c2743d2a4091996b92688d10a98c1aab610dda9d8546e3c666b32e6ec3e1a8d604051610ab491815260200190565b60405180910390a3610ac860008787610b64565b6040805160208101909152600081529e909d509b505050505050505050505050565b600080546001600160a01b038381166001600160a01b0319831681178455604051919092169283917f8be0079c531659141344cd1fd0a4f28419497f9722a3daafe3b4186f6b6457e09190a35050565b600080600080610b4a8686610b9c565b925092509250610b5a8282610be9565b5090949350505050565b600060d08265ffffffffffff16901b60a08465ffffffffffff16901b85610b8c576000610b8f565b60015b60ff161717949350505050565b60008060008351604103610bd65760208401516040850151606086015160001a610bc888828585610ca6565b955095509550505050610be2565b50508151600091506002905b9250925092565b6000826003811115610bfd57610bfd6110a9565b03610c06575050565b6001826003811115610c1a57610c1a6110a9565b03610c385760405163f645eedf60e01b815260040160405180910390fd5b6002826003811115610c4c57610c4c6110a9565b03610c6d5760405163fce698f760e01b81526004810182905260240161080e565b6003826003811115610c8157610c816110a9565b03610ca2576040516335e2f38360e21b81526004810182905260240161080e565b5050565b600080807f7fffffffffffffffffffffffffffffff5d576e7357a4501ddfe92f46681b20a0841115610ce15750600091506003905082610d6b565b604080516000808252602082018084528a905260ff891692820192909252606081018790526080810186905260019060a0016020604051602081039080840390855afa158015610d35573d6000803e3d6000fd5b5050604051601f1901519150506001600160a01b038116610d6157506000925060019150829050610d6b565b9250600091508190505b9450945094915050565b600060208284031215610d8757600080fd5b813563ffffffff81168114610d9b57600080fd5b9392505050565b803565ffffffffffff81168114610db857600080fd5b919050565b600080600060608486031215610dd257600080fd5b83359250610de260208501610da2565b9150610df060408501610da2565b90509250925092565b600060208284031215610e0b57600080fd5b5035919050565b6001600160a01b038116811461082057600080fd5b60008060408385031215610e3a57600080fd5b8235610e4581610e12565b946020939093013593505050565b600080600060608486031215610e6857600080fd5b833567ffffffffffffffff811115610e7f57600080fd5b84016101208187031215610e9257600080fd5b95602085013595506040909401359392505050565b604081526000835180604084015260005b81811015610ed55760208187018101516060868401015201610eb8565b506000606082850101526060601f19601f8301168401019150508260208301529392505050565b600080600080600060808688031215610f1457600080fd5b853560038110610f2357600080fd5b9450602086013567ffffffffffffffff80821115610f4057600080fd5b818801915088601f830112610f5457600080fd5b813581811115610f6357600080fd5b896020828501011115610f7557600080fd5b9699602092909201985095966040810135965060600135945092505050565b600060208284031215610fa657600080fd5b8135610d9b81610e12565b94855260208501939093526001600160a01b0391909116604084015265ffffffffffff908116606084015216608082015260a00190565b600060208284031215610ffa57600080fd5b5051919050565b6000808335601e1984360301811261101857600080fd5b83018035915067ffffffffffffffff82111561103357600080fd5b60200191503681900382131561104857600080fd5b9250929050565b6000808585111561105f57600080fd5b8386111561106c57600080fd5b5050820193919092039150565b6001600160d01b031981358181169160068510156110a15780818660060360031b1b83161692505b505092915050565b634e487b7160e01b600052602160045260246000fdfea26469706673582212206aab50d81cab67c8297bf48e01967ff550d713fa24077b2ed600f2c0698b8d8264736f6c63430008170033",
  "linkReferences": {},
  "deployedLinkReferences": {}
}