{"smartContracts/MemberRoleManager.sol":{"MemberRoleManager":{"abi":[{"inputs":[],"stateMutability":"nonpayable","type":"constructor"},{"inputs":[{"internalType":"address","name":"target","type":"address"}],"name":"AddressEmptyCode","type":"error"},{"inputs":[{"internalType":"address","name":"implementation","type":"address"}],"name":"ERC1967InvalidImplementation","type":"error"},{"inputs":[],"name":"ERC1967NonPayable","type":"error"},{"inputs":[],"name":"FailedCall","type":"error"},{"inputs":[],"name":"InvalidInitialization","type":"error"},{"inputs":[],"name":"NotInitializing","type":"error"},{"inputs":[],"name":"UUPSUnauthorizedCallContext","type":"error"},{"inputs":[{"internalType":"bytes32","name":"slot","type":"bytes32"}],"name":"UUPSUnsupportedProxiableUUID","type":"error"},{"anonymous":false,"inputs":[{"indexed":true,"internalType":"address","name":"oldAdmin","type":"address"},{"indexed":true,"internalType":"address","name":"newAdmin","type":"address"},{"indexed":false,"internalType":"uint256","name":"timestamp","type":"uint256"}],"name":"AdminTransferred","type":"event"},{"anonymous":false,"inputs":[{"indexed":true,"internalType":"address","name":"newAddress","type":"address"},{"indexed":false,"internalType":"uint256","name":"timestamp","type":"uint256"}],"name":"HealthRecordCoreUpdated","type":"event"},{"anonymous":false,"inputs":[{"indexed":false,"internalType":"uint64","name":"version","type":"uint64"}],"name":"Initialized","type":"event"},{"anonymous":false,"inputs":[{"indexed":true,"internalType":"address","name":"wallet","type":"address"},{"indexed":true,"internalType":"bytes32","name":"userIdHash","type":"bytes32"},{"indexed":false,"internalType":"uint256","name":"timestamp","type":"uint256"}],"name":"MemberRegistered","type":"event"},{"anonymous":false,"inputs":[{"indexed":true,"internalType":"bytes32","name":"userIdHash","type":"bytes32"},{"indexed":false,"internalType":"enum MemberRoleManager.MemberStatus","name":"oldStatus","type":"uint8"},{"indexed":false,"internalType":"enum MemberRoleManager.MemberStatus","name":"newStatus","type":"uint8"},{"indexed":true,"internalType":"address","name":"changedBy","type":"address"},{"indexed":false,"internalType":"uint256","name":"timestamp","type":"uint256"}],"name":"MemberStatusChanged","type":"event"},{"anonymous":false,"inputs":[{"indexed":true,"internalType":"string","name":"recordId","type":"string"},{"indexed":true,"internalType":"bytes32","name":"userIdHash","type":"bytes32"},{"indexed":false,"internalType":"uint256","name":"timestamp","type":"uint256"}],"name":"OwnershipVoluntarilyLeft","type":"event"},{"anonymous":false,"inputs":[{"indexed":true,"internalType":"string","name":"recordId","type":"string"},{"indexed":true,"internalType":"bytes32","name":"targetIdHash","type":"bytes32"},{"indexed":false,"internalType":"string","name":"oldRole","type":"string"},{"indexed":false,"internalType":"string","name":"newRole","type":"string"},{"indexed":true,"internalType":"bytes32","name":"userIdHash","type":"bytes32"},{"indexed":false,"internalType":"uint256","name":"timestamp","type":"uint256"}],"name":"RoleChanged","type":"event"},{"anonymous":false,"inputs":[{"indexed":true,"internalType":"string","name":"recordId","type":"string"},{"indexed":true,"internalType":"bytes32","name":"targetIdHash","type":"bytes32"},{"indexed":false,"internalType":"string","name":"role","type":"string"},{"indexed":true,"internalType":"bytes32","name":"userIdHash","type":"bytes32"},{"indexed":false,"internalType":"uint256","name":"timestamp","type":"uint256"}],"name":"RoleGranted","type":"event"},{"anonymous":false,"inputs":[{"indexed":true,"internalType":"string","name":"recordId","type":"string"},{"indexed":true,"internalType":"bytes32","name":"targetIdHash","type":"bytes32"},{"indexed":false,"internalType":"string","name":"role","type":"string"},{"indexed":true,"internalType":"bytes32","name":"userIdHash","type":"bytes32"},{"indexed":false,"internalType":"uint256","name":"timestamp","type":"uint256"}],"name":"RoleRevoked","type":"event"},{"anonymous":false,"inputs":[{"indexed":true,"internalType":"bytes32","name":"trustorIdHash","type":"bytes32"},{"indexed":true,"internalType":"bytes32","name":"trusteeIdHash","type":"bytes32"},{"indexed":false,"internalType":"enum MemberRoleManager.TrusteeLevel","name":"level","type":"uint8"},{"indexed":false,"internalType":"uint256","name":"timestamp","type":"uint256"}],"name":"TrusteeAccepted","type":"event"},{"anonymous":false,"inputs":[{"indexed":true,"internalType":"bytes32","name":"trustorIdHash","type":"bytes32"},{"indexed":true,"internalType":"bytes32","name":"trusteeIdHash","type":"bytes32"},{"indexed":false,"internalType":"enum MemberRoleManager.TrusteeLevel","name":"level","type":"uint8"},{"indexed":false,"internalType":"uint256","name":"timestamp","type":"uint256"}],"name":"TrusteeProposed","type":"event"},{"anonymous":false,"inputs":[{"indexed":true,"internalType":"bytes32","name":"trustorIdHash","type":"bytes32"},{"indexed":true,"internalType":"bytes32","name":"trusteeIdHash","type":"bytes32"},{"indexed":true,"internalType":"bytes32","name":"revokedBy","type":"bytes32"},{"indexed":false,"internalType":"uint256","name":"timestamp","type":"uint256"}],"name":"TrusteeRevoked","type":"event"},{"anonymous":false,"inputs":[{"indexed":true,"internalType":"address","name":"implementation","type":"address"}],"name":"Upgraded","type":"event"},{"anonymous":false,"inputs":[{"indexed":true,"internalType":"address","name":"wallet","type":"address"},{"indexed":true,"internalType":"bytes32","name":"userIdHash","type":"bytes32"},{"indexed":false,"internalType":"uint256","name":"timestamp","type":"uint256"}],"name":"WalletLinked","type":"event"},{"inputs":[],"name":"UPGRADE_INTERFACE_VERSION","outputs":[{"internalType":"string","name":"","type":"string"}],"stateMutability":"view","type":"function"},{"inputs":[{"internalType":"bytes32","name":"trustorIdHash","type":"bytes32"}],"name":"acceptTrustee","outputs":[],"stateMutability":"nonpayable","type":"function"},{"inputs":[{"internalType":"address","name":"wallet","type":"address"},{"internalType":"bytes32","name":"userIdHash","type":"bytes32"}],"name":"addMember","outputs":[],"stateMutability":"nonpayable","type":"function"},{"inputs":[],"name":"admin","outputs":[{"internalType":"address","name":"","type":"address"}],"stateMutability":"view","type":"function"},{"inputs":[{"internalType":"string","name":"","type":"string"},{"internalType":"uint256","name":"","type":"uint256"}],"name":"adminsByRecord","outputs":[{"internalType":"bytes32","name":"","type":"bytes32"}],"stateMutability":"view","type":"function"},{"inputs":[{"internalType":"string","name":"recordId","type":"string"},{"internalType":"address","name":"targetWallet","type":"address"},{"internalType":"string","name":"newRole","type":"string"}],"name":"changeRole","outputs":[],"stateMutability":"nonpayable","type":"function"},{"inputs":[{"internalType":"string[]","name":"recordIds","type":"string[]"},{"internalType":"address","name":"targetWallet","type":"address"},{"internalType":"string[]","name":"newRoles","type":"string[]"}],"name":"changeRoleBatch","outputs":[],"stateMutability":"nonpayable","type":"function"},{"inputs":[{"internalType":"address","name":"wallet","type":"address"}],"name":"deactivateWallet","outputs":[],"stateMutability":"nonpayable","type":"function"},{"inputs":[],"name":"getAllUsers","outputs":[{"internalType":"bytes32[]","name":"","type":"bytes32[]"}],"stateMutability":"view","type":"function"},{"inputs":[],"name":"getHealthRecordCore","outputs":[{"internalType":"address","name":"","type":"address"}],"stateMutability":"view","type":"function"},{"inputs":[{"internalType":"string","name":"recordId","type":"string"}],"name":"getRecordAdmins","outputs":[{"internalType":"bytes32[]","name":"","type":"bytes32[]"}],"stateMutability":"view","type":"function"},{"inputs":[{"internalType":"string","name":"recordId","type":"string"}],"name":"getRecordOwners","outputs":[{"internalType":"bytes32[]","name":"","type":"bytes32[]"}],"stateMutability":"view","type":"function"},{"inputs":[{"internalType":"string","name":"recordId","type":"string"}],"name":"getRecordRoleStats","outputs":[{"internalType":"uint256","name":"ownerCount","type":"uint256"},{"internalType":"uint256","name":"adminCount","type":"uint256"},{"internalType":"uint256","name":"viewerCount","type":"uint256"}],"stateMutability":"view","type":"function"},{"inputs":[{"internalType":"string","name":"recordId","type":"string"}],"name":"getRecordViewers","outputs":[{"internalType":"bytes32[]","name":"","type":"bytes32[]"}],"stateMutability":"view","type":"function"},{"inputs":[{"internalType":"bytes32","name":"userIdHash","type":"bytes32"}],"name":"getRecordsByUser","outputs":[{"internalType":"string[]","name":"","type":"string[]"}],"stateMutability":"view","type":"function"},{"inputs":[{"internalType":"string","name":"recordId","type":"string"},{"internalType":"address","name":"wallet","type":"address"}],"name":"getRoleDetails","outputs":[{"internalType":"string","name":"role","type":"string"},{"internalType":"bool","name":"isActive","type":"bool"}],"stateMutability":"view","type":"function"},{"inputs":[{"internalType":"string","name":"recordId","type":"string"},{"internalType":"bytes32","name":"userIdHash","type":"bytes32"}],"name":"getRoleDetailsByUser","outputs":[{"internalType":"string","name":"role","type":"string"},{"internalType":"bool","name":"isActive","type":"bool"}],"stateMutability":"view","type":"function"},{"inputs":[{"internalType":"string","name":"recordId","type":"string"},{"internalType":"bytes32","name":"userIdHash","type":"bytes32"}],"name":"getRoleGranter","outputs":[{"internalType":"bytes32","name":"","type":"bytes32"}],"stateMutability":"view","type":"function"},{"inputs":[],"name":"getTotalRoles","outputs":[{"internalType":"uint256","name":"","type":"uint256"}],"stateMutability":"view","type":"function"},{"inputs":[],"name":"getTotalUsers","outputs":[{"internalType":"uint256","name":"","type":"uint256"}],"stateMutability":"view","type":"function"},{"inputs":[{"internalType":"bytes32","name":"trustorIdHash","type":"bytes32"},{"internalType":"bytes32","name":"trusteeIdHash","type":"bytes32"}],"name":"getTrusteeRelationship","outputs":[{"internalType":"enum MemberRoleManager.TrusteeStatus","name":"status","type":"uint8"},{"internalType":"enum MemberRoleManager.TrusteeLevel","name":"level","type":"uint8"}],"stateMutability":"view","type":"function"},{"inputs":[{"internalType":"address","name":"wallet","type":"address"}],"name":"getUserForWallet","outputs":[{"internalType":"bytes32","name":"","type":"bytes32"}],"stateMutability":"view","type":"function"},{"inputs":[{"internalType":"bytes32","name":"userIdHash","type":"bytes32"}],"name":"getUserStatus","outputs":[{"internalType":"enum MemberRoleManager.MemberStatus","name":"status","type":"uint8"}],"stateMutability":"view","type":"function"},{"inputs":[{"internalType":"bytes32","name":"userIdHash","type":"bytes32"}],"name":"getWalletsForUser","outputs":[{"internalType":"address[]","name":"","type":"address[]"}],"stateMutability":"view","type":"function"},{"inputs":[{"internalType":"string","name":"recordId","type":"string"},{"internalType":"address","name":"targetWallet","type":"address"},{"internalType":"string","name":"role","type":"string"}],"name":"grantRole","outputs":[],"stateMutability":"nonpayable","type":"function"},{"inputs":[{"internalType":"string[]","name":"recordIds","type":"string[]"},{"internalType":"bytes32","name":"trustorIdHash","type":"bytes32"}],"name":"grantRoleAsTrusteeBatch","outputs":[],"stateMutability":"nonpayable","type":"function"},{"inputs":[{"internalType":"string[]","name":"recordIds","type":"string[]"},{"internalType":"address","name":"targetWallet","type":"address"},{"internalType":"string[]","name":"roles","type":"string[]"}],"name":"grantRoleBatch","outputs":[],"stateMutability":"nonpayable","type":"function"},{"inputs":[{"internalType":"string","name":"recordId","type":"string"},{"internalType":"address","name":"wallet","type":"address"}],"name":"hasActiveRole","outputs":[{"internalType":"bool","name":"","type":"bool"}],"stateMutability":"view","type":"function"},{"inputs":[{"internalType":"string","name":"recordId","type":"string"},{"internalType":"address","name":"wallet","type":"address"},{"internalType":"string","name":"role","type":"string"}],"name":"hasRole","outputs":[{"internalType":"bool","name":"","type":"bool"}],"stateMutability":"view","type":"function"},{"inputs":[],"name":"healthRecordCore","outputs":[{"internalType":"contract HealthRecordCoreInterface","name":"","type":"address"}],"stateMutability":"view","type":"function"},{"inputs":[],"name":"initialize","outputs":[],"stateMutability":"nonpayable","type":"function"},{"inputs":[{"internalType":"string","name":"recordId","type":"string"},{"internalType":"address","name":"targetWallet","type":"address"},{"internalType":"string","name":"role","type":"string"}],"name":"initializeRecordRole","outputs":[],"stateMutability":"nonpayable","type":"function"},{"inputs":[{"internalType":"address","name":"wallet","type":"address"}],"name":"isActiveMember","outputs":[{"internalType":"bool","name":"","type":"bool"}],"stateMutability":"view","type":"function"},{"inputs":[{"internalType":"string","name":"recordId","type":"string"},{"internalType":"bytes32","name":"userIdHash","type":"bytes32"}],"name":"isActiveSubject","outputs":[{"internalType":"bool","name":"","type":"bool"}],"stateMutability":"view","type":"function"},{"inputs":[{"internalType":"bytes32","name":"trustorIdHash","type":"bytes32"},{"internalType":"bytes32","name":"trusteeIdHash","type":"bytes32"}],"name":"isControllerOf","outputs":[{"internalType":"bool","name":"","type":"bool"}],"stateMutability":"view","type":"function"},{"inputs":[{"internalType":"string","name":"recordId","type":"string"},{"internalType":"address","name":"wallet","type":"address"}],"name":"isOwnerOrAdmin","outputs":[{"internalType":"bool","name":"","type":"bool"}],"stateMutability":"view","type":"function"},{"inputs":[{"internalType":"address","name":"wallet","type":"address"}],"name":"isVerifiedMember","outputs":[{"internalType":"bool","name":"","type":"bool"}],"stateMutability":"view","type":"function"},{"inputs":[{"internalType":"address","name":"wallet","type":"address"}],"name":"isVerifiedProvider","outputs":[{"internalType":"bool","name":"","type":"bool"}],"stateMutability":"view","type":"function"},{"inputs":[{"internalType":"string","name":"","type":"string"},{"internalType":"uint256","name":"","type":"uint256"}],"name":"ownersByRecord","outputs":[{"internalType":"bytes32","name":"","type":"bytes32"}],"stateMutability":"view","type":"function"},{"inputs":[{"internalType":"bytes32","name":"trusteeIdHash","type":"bytes32"},{"internalType":"enum MemberRoleManager.TrusteeLevel","name":"level","type":"uint8"}],"name":"proposeTrustee","outputs":[],"stateMutability":"nonpayable","type":"function"},{"inputs":[],"name":"proxiableUUID","outputs":[{"internalType":"bytes32","name":"","type":"bytes32"}],"stateMutability":"view","type":"function"},{"inputs":[{"internalType":"address","name":"wallet","type":"address"}],"name":"reactivateWallet","outputs":[],"stateMutability":"nonpayable","type":"function"},{"inputs":[{"internalType":"bytes32","name":"","type":"bytes32"}],"name":"recordRoles","outputs":[{"internalType":"string","name":"role","type":"string"},{"internalType":"bool","name":"isActive","type":"bool"}],"stateMutability":"view","type":"function"},{"inputs":[{"internalType":"bytes32","name":"","type":"bytes32"},{"internalType":"uint256","name":"","type":"uint256"}],"name":"recordsByUser","outputs":[{"internalType":"string","name":"","type":"string"}],"stateMutability":"view","type":"function"},{"inputs":[{"internalType":"string","name":"recordId","type":"string"},{"internalType":"address","name":"targetWallet","type":"address"}],"name":"revokeRole","outputs":[],"stateMutability":"nonpayable","type":"function"},{"inputs":[{"internalType":"string[]","name":"recordIds","type":"string[]"},{"internalType":"address","name":"targetWallet","type":"address"}],"name":"revokeRoleBatch","outputs":[],"stateMutability":"nonpayable","type":"function"},{"inputs":[{"internalType":"bytes32","name":"trustorIdHash","type":"bytes32"},{"internalType":"bytes32","name":"trusteeIdHash","type":"bytes32"}],"name":"revokeTrustee","outputs":[],"stateMutability":"nonpayable","type":"function"},{"inputs":[{"internalType":"bytes32","name":"","type":"bytes32"}],"name":"roleGrantedBy","outputs":[{"internalType":"bytes32","name":"","type":"bytes32"}],"stateMutability":"view","type":"function"},{"inputs":[{"internalType":"address","name":"_healthRecordCore","type":"address"}],"name":"setHealthRecordCore","outputs":[],"stateMutability":"nonpayable","type":"function"},{"inputs":[{"internalType":"bytes32","name":"userIdHash","type":"bytes32"},{"internalType":"enum MemberRoleManager.MemberStatus","name":"newStatus","type":"uint8"}],"name":"setUserStatus","outputs":[],"stateMutability":"nonpayable","type":"function"},{"inputs":[],"name":"totalRoles","outputs":[{"internalType":"uint256","name":"","type":"uint256"}],"stateMutability":"view","type":"function"},{"inputs":[],"name":"totalUsers","outputs":[{"internalType":"uint256","name":"","type":"uint256"}],"stateMutability":"view","type":"function"},{"inputs":[{"internalType":"address","name":"newAdmin","type":"address"}],"name":"transferAdmin","outputs":[],"stateMutability":"nonpayable","type":"function"},{"inputs":[{"internalType":"bytes32","name":"","type":"bytes32"},{"internalType":"bytes32","name":"","type":"bytes32"}],"name":"trusteeRelationships","outputs":[{"internalType":"enum MemberRoleManager.TrusteeStatus","name":"status","type":"uint8"},{"internalType":"enum MemberRoleManager.TrusteeLevel","name":"level","type":"uint8"}],"stateMutability":"view","type":"function"},{"inputs":[{"internalType":"address","name":"newImplementation","type":"address"},{"internalType":"bytes","name":"data","type":"bytes"}],"name":"upgradeToAndCall","outputs":[],"stateMutability":"payable","type":"function"},{"inputs":[{"internalType":"uint256","name":"","type":"uint256"}],"name":"userList","outputs":[{"internalType":"bytes32","name":"","type":"bytes32"}],"stateMutability":"view","type":"function"},{"inputs":[{"internalType":"bytes32","name":"","type":"bytes32"}],"name":"userStatus","outputs":[{"internalType":"enum MemberRoleManager.MemberStatus","name":"","type":"uint8"}],"stateMutability":"view","type":"function"},{"inputs":[{"internalType":"bytes32","name":"","type":"bytes32"},{"internalType":"uint256","name":"","type":"uint256"}],"name":"userWallets","outputs":[{"internalType":"address","name":"","type":"address"}],"stateMutability":"view","type":"function"},{"inputs":[{"internalType":"string","name":"","type":"string"},{"internalType":"uint256","name":"","type":"uint256"}],"name":"viewersByRecord","outputs":[{"internalType":"bytes32","name":"","type":"bytes32"}],"stateMutability":"view","type":"function"},{"inputs":[{"internalType":"string","name":"recordId","type":"string"}],"name":"voluntarilyLeaveOwnership","outputs":[],"stateMutability":"nonpayable","type":"function"},{"inputs":[{"internalType":"address","name":"","type":"address"}],"name":"wallets","outputs":[{"internalType":"bytes32","name":"userIdHash","type":"bytes32"},{"internalType":"bool","name":"isWalletActive","type":"bool"}],"stateMutability":"view","type":"function"}],"evm":{"bytecode":{"linkReferences":{},"object":"60a08060405234620000d157306080527ff0c57e16840df040f15088dc2f81fe391c3923bec73e23a9662efc9c229c6a009081549060ff8260401c16620000c257506001600160401b036002600160401b0319828216016200007c575b60405161470a9081620000d682396080518181816125ee015261273b0152f35b6001600160401b031990911681179091556040519081527fc7f505b2f371ae2175ee4913f4499e1f2633a7b5936321eed1cdaeb6115181d290602090a15f80806200005c565b63f92ee8a960e01b8152600490fd5b5f80fdfe6080604081815260049182361015610015575f80fd5b5f3560e01c908162b0c8091461336c575080630b3ffd1d146132af5780631435b558146132945780631a95aca51461320d5780631c0c18d814612fbb578063259ed80e14612f965780633310559214612f595780633575c39114612ca45780633dd1e8fc14612c1d57806341d8bde314612b7d57806345ecd02f14612b5857806349df7208146128e85780634b6feb7c14611bfd5780634f1ef286146126eb578063510b30031461265257806352d1902d146125db578063557ee54f1461254d578063562c788e146106505780636544b05b14612481578063668a461e146122ca578063679084e9146122a45780636b4bed9714610375578063731f21a014611e5b57806374926cda14611c9957806375829def14611c1b578063790e118c14611bfd5780637b657d0714611bc05780638129fc1c14611aa357806389b08f1114611a5e5780639443cd8014611a1857806396207e02146118c7578063970ee5b9146118935780639915b91f146117f65780639be572f614610fbf5780639f4216e8146117aa578063a0ca13c31461178f578063a5c3dc3c14611635578063ad3cb1cc146115f1578063b55aefcc146115bd578063b8cab84b146114e2578063bb0f86d51461142b578063bb20b17214610fdd578063bff1f9e114610fbf578063c0f0ed7e14610f60578063c715582314610ee4578063c979c9bf14610d80578063cabdd23f14610d65578063cb261a0314610d40578063cda06c6e14610d19578063d12a776814610c6a578063daa9dc23146106f8578063e2842d7914610678578063e94ed25714610650578063e965bfb7146105fa578063eb2bbf25146105d1578063ed8d7b37146103fe578063ee4e5828146103a6578063f29e007b14610375578063f3ac2bea14610351578063f851a4401461032a5763fa7a6bcc146102bd575f80fd5b34610326576102cb36613697565b905f52600a602052815f20908154811015610326576102e9916137c2565b92909261031457506102fd61031092613538565b90519182916020835260208301906135fb565b0390f35b5f90634e487b7160e01b82525260245ffd5b5f80fd5b5034610326575f366003190112610326575f5490516001600160a01b039091168152602090f35b50346103265760209061036c61036636613743565b9061437b565b90519015158152f35b503461032657602036600319011261032657602091355f52600282526103a460ff825f20541691518092613774565bf35b5034610326576020906103c16103bb36613743565b9061421a565b5f5260068252610310815f209180516103d9816133b6565b60ff60016103e686613538565b95868452015416151594859101525192839283613620565b5034610326576020806003193601126103265782356001600160401b0381116103265761042e9036908501613466565b61043a8151151561395d565b335f5260018252825f205493610458610451613b92565b8684614255565b1561058257835161049684600185519382818189019661047981838a6135da565b8101600781520301902054119287518093819288519283916135da565b81016008815203019020541515811561057a575b501561051d575090610515826104e1867f3bb3693064733b9a7d6d41bee69f302fcbefbe827ea4011400530c9ba9cb49c39561421a565b6104f36104ec613b92565b88846142b3565b5f52600683526001855f200160ff198154169055600d83525f85812055613bfe565b9251428152a3005b835162461bcd60e51b8152908101839052603160248201527f43616e6e6f74206c65617665206173206c617374206f776e65722077697468206044820152706e6f2061646d696e6973747261746f727360781b6064820152608490fd5b90505f6104aa565b835162461bcd60e51b8152908101839052602360248201527f596f7520617265206e6f7420616e206f776e6572206f662074686973207265636044820152621bdc9960ea1b6064820152608490fd5b503461032657610310906105ed6105e736613484565b90613d4b565b9290915192839283613620565b50346103265760209061062361060f36613743565b9390818451938285809451938492016135da565b81016008815203019020805483101561032657602092610642916137c2565b91905490519160031b1c8152f35b5034610326575f36600319011261032657600c5490516001600160a01b039091168152602090f35b5034610326575f366003190112610326578051908183548082526020809201945f527f8a35acfbc15ff81a39ae7d344fd709f28e8600b4aa8c65c6b64bfe7fe36bd19b915f905b8282106106e15761031086866106d7828b0383613400565b51918291826134c5565b8354875295860195600193840193909101906106bf565b5090346103265761070836613640565b93919061071c61071733613dcd565b613902565b6107288251151561395d565b6001600160a01b03169361073d851515613aa2565b61074e61074982613e8e565b6139ee565b335f5260209160018352835f2054955f52835f20549461076f861515613aee565b82518484012093610780878461421a565b805f526006825261079960ff6001895f20015416613b3a565b5f52600681526107aa865f20613538565b94855182870120818114610c27576107c0613b92565b8381519101208114610bb2578751918551928481818901956107e38183896135da565b810160078152030190205415918b8315610818610808610801613b92565b848c614255565b92610811613bb3565b908b614255565b90610821613b92565b80519089012085036109fc571561099f57501561095e575b610841613bb3565b858151910120149081610947575b506108a6575b50505050906108a16108948361088f89858a7fea2c9ebe68919ddf880b3221d8d508d908163d0973e8b79df108f5d110d0c6339998613fed565b613bfe565b9451928392429184613cf1565b0390a4005b6108b1575b80610855565b6108c88260019289518093819289519283916135da565b810160088152030190205411156108df57806108ab565b855162461bcd60e51b815291820152603960248201527f43616e6e6f742064656d6f746520746865206c6173742061646d696e6973747260448201527f61746f72207768656e206e6f206f776e65722065786973747300000000000000606482015260849150fd5b9050610951613bdc565b848151910120145f61084f565b60648686808d519262461bcd60e51b845283015260248201527f4f6e6c79206f776e6572732063616e2070726f6d6f746520746f206f776e65726044820152fd5b905061083957895162461bcd60e51b8152808701869052602b60248201527f4f6e6c792061646d696e6973747261746f72732063616e2070726f6d6f74652060448201526a3334b939ba1037bbb732b960a91b6064820152608490fd5b610a04613bb3565b8051908901208503610a8e57508115610a86575b5061083957895162461bcd60e51b8152808701869052603b60248201527f4f6e6c79206f776e65727320616e642061646d696e6973747261746f7273206360448201527f616e2070726f6d6f746520746f2061646d696e6973747261746f7200000000006064820152608490fd5b90505f610a18565b610a96613bdc565b8881519101208514610aab575b505050610839565b15610b58578115610b41575b5015610ac6575b5f8080610aa3565b895162461bcd60e51b8152808701869052604960248201527f4f6e6c79206f776e6572732063616e2064656d6f7465206f74686572732e204160448201527f646d696e6973747261746f72732063616e206f6e6c792064656d6f746520746860648201526832b6b9b2b63b32b99760b91b608482015260a490fd5b905080610b4f575b5f610ab7565b508a8c14610b49565b9050610abe57895162461bcd60e51b8152808701869052602860248201527f4f6e6c792061646d696e6973747261746f72732063616e2064656d6f7465207460448201526737903b34b2bbb2b960c11b6064820152608490fd5b875162461bcd60e51b8152808501849052604360248201527f4f776e6572732063616e6e6f742062652064656d6f7465642e204f776e65722060448201527f6d75737420766f6c756e746172696c792072656d6f7665207468656d73656c7660648201526232b99760e91b608482015260a490fd5b875162461bcd60e51b8152808501849052601c60248201527f54617267657420616c726561647920686173207468697320726f6c65000000006044820152606490fd5b5090346103265760209081600319360112610326578290355f5260038252805f208151928381835491828152019081935f52825f20905f5b818110610cfc5750505084610cb8910385613400565b825181815293518185018190528493840192915f5b828110610cdc57505050500390f35b83516001600160a01b031685528695509381019392810192600101610ccd565b82546001600160a01b031684529284019260019283019201610ca2565b503461032657602036600319011261032657602091355f52600d8252805f20549051908152f35b50346103265760203660031901126103265760209061036c610d606133a0565b61446e565b50346103265760209061036c610d7a36613640565b91613d1f565b503461032657610d8f36613697565b91610d9c61071733613dcd565b335f5260209060018252805f2054948386148015610edb575b15610e9b57835f52600e8352815f20855f52835260ff825f20541681811015610e885760028114908115610e7d575b5015610e325750907f6df3a6475fab2eed139f7e469995b04e85bfc5b4b8642587109cb72541f74fae91835f52600e8252805f20855f528252805f20600360ff1982541617905551428152a4005b82608492519162461bcd60e51b8352820152602160248201527f4e6f20616374697665206f722070656e64696e672072656c6174696f6e7368696044820152600760fc1b6064820152fd5b60019150145f610de4565b602182634e487b7160e01b5f525260245ffd5b8280606493519262461bcd60e51b845283015260248201527f4e6f74206120706172747920746f20746869732072656c6174696f6e736869706044820152fd5b50848614610db5565b5034610326576020366003190112610326577fce59ad7d6dabe8a7533ed7d9bd07d276a046ac7ac9a8e8e8971da4b81104a28b6020610f216133a0565b5f546001600160a01b039190610f3a9083163314613842565b1692610f47841515613c1e565b600c80546001600160a01b0319168517905551428152a2005b503461032657610fbd90610f73366137eb565b919092610f8261071733613dcd565b610f8f8251845114613cad565b335f9081526001602052818120546001600160a01b039095168152205490610fb8821515613aee565b6141a5565b005b5034610326575f366003190112610326576020906005549051908152f35b50903461032657610fed36613640565b919290610ffc61071733613dcd565b6110088451151561395d565b6001600160a01b03169261101d841515613aa2565b61102961074984613e8e565b335f5260209160018352855f2054945f52855f20549261104a841515613aee565b84518186012061105a878561421a565b5f526006825260ff6001895f20015416156113ea578751828186516110828183858b016135da565b81016007815203019020541515906110a261109b613b92565b8987614255565b916110b56110ae613bb3565b8a88614255565b916110c08a8861437b565b906110c9613b92565b8051908701208103611207575050156111ad57501561116b575b6110ed848461421a565b5f526006815260ff6001885f2001541661110d575050610fbd9450613fed565b865162461bcd60e51b815291820152603360248201527f54617267657420616c726561647920686173206120726f6c652e2055736520636044820152721a185b99d9549bdb194a0a481a5b9cdd195859606a1b606482015260849150fd5b865162461bcd60e51b815291820181905260248201527f4f6e6c79206f776e6572732063616e206772616e74206f776e657220726f6c65604482015260649150fd5b90506110e357865162461bcd60e51b815291820152602960248201527f4f6e6c792061646d696e6973747261746f72732063616e206772616e742066696044820152683939ba1037bbb732b960b91b606482015260849150fd5b909150611212613bb3565b805190860120810361129c5750508115611294575b506110e357865162461bcd60e51b815291820152603b60248201527f4f6e6c79206f776e65727320616e642061646d696e6973747261746f7273206360448201527f616e206772616e742061646d696e6973747261746f7220726f6c650000000000606482015260849150fd5b90505f611227565b6112a7939193613bdc565b858151910120146112bb575b5050506110e3565b801590816113e3575b80156113dc575b15611373578261136b575b5081611362575b506112eb575b5f80806112b3565b6112f58684614417565b516112e357865162461bcd60e51b815291820152603c60248201527f5375626a656374206d757374206861766520616e2061637469766520726f6c6560448201527f20746f206772616e7420766965776572207065726d697373696f6e7300000000606482015260849150fd5b9050155f6112dd565b91505f6112d6565b895162461bcd60e51b8152808601859052603e60248201527f4f6e6c79206f776e6572732c2061646d696e6973747261746f72732c206f722060448201527f7375626a656374732063616e206772616e742076696577657220726f6c6500006064820152608490fd5b50826112cb565b50816112c4565b60648383808b519262461bcd60e51b845283015260248201527f596f752068617665206e6f20726f6c6520666f722074686973207265636f72646044820152fd5b509034610326576020366003190112610326576114466133a0565b5f546001600160a01b03919061145f9083163314613842565b16805f5260019182602052611478845f2054151561387b565b815f528260205260ff83855f200154166114a757509181925f52816020525f20019060ff198254161790555f80f35b606490602085519162461bcd60e51b8352820152601560248201527457616c6c657420616c72656164792061637469766560581b6044820152fd5b503461032657602090816003193601126103265782359161150561071733613dcd565b335f5260018152815f205493835f52600e8252825f20855f528252825f209081549060ff821681811015610e885760010361158457509161157c60ff9260027fc5b2e1bd4433eb4e9e181cc803520513d39d918c96bddeebca1224e1c750963d969585191617809155845193849160081c16613795565b4290820152a3005b845162461bcd60e51b81529081018490526013602482015272139bc81c195b991a5b99c81c1c9bdc1bdcd85b606a1b6044820152606490fd5b5034610326576020906115d261060f36613743565b81016009815203019020805483101561032657602092610642916137c2565b5034610326575f36600319011261032657805161031091611611826133b6565b60058252640352e302e360dc1b6020830152519182916020835260208301906135fb565b503461032657611644366137eb565b61165061071733613dcd565b61165d8351825114613cad565b335f5260019384936020906001602052825f20549460018060a01b03165f52825f20549361168c851515613aee565b5f965b61169557005b8151871015610fbd5787876116b46116ae839a85613a8e565b51613e8e565b1561178a576116cd886116c78387613a8e565b51613dc3565b1561178a576116e0876116c78387613a8e565b1561178a576116f9876116f38387613a8e565b5161421a565b5f5260068552878761170c885f20613538565b61172d8361171a868a613a8e565b5184611726888b613a8e565b5191613fed565b7fea2c9ebe68919ddf880b3221d8d508d908163d0973e8b79df108f5d110d0c6336117588589613a8e565b519161176e611767878a613a8e565b5193613bfe565b9261177f8c51928392429184613cf1565b0390a45b019661168f565b611783565b50346103265760209061036c6117a436613484565b90613c5c565b50346103265760203660031901126103265781358254811015610326576020925f527f8a35acfbc15ff81a39ae7d344fd709f28e8600b4aa8c65c6b64bfe7fe36bd19b01549051908152f35b50346103265761180536613697565b905f52600e602052815f20905f52602052805f2090805191611826836133b6565b549161183560ff841682613945565b61184960ff602083019460081c1684613951565b519183831015611880575192600384101561186d57506103109051928392836137a2565b602190634e487b7160e01b5f525260245ffd5b602184634e487b7160e01b5f525260245ffd5b5034610326576020906118a861060f36613743565b81016007815203019020805483101561032657602092610642916137c2565b50346103265780600319360112610326578135906024356005811015610326576118fb60018060a01b035f54163314613842565b825f5260206002815260ff835f2054166005811015611a0557156119cd57835f526002815260ff835f20541694600586101561186d5782861461199657509061196991845f5260028152835f2060ff1981541660ff841617905561196184518097613774565b850190613774565b42908301527ff6277c6ee46649823db9a5c531db3112b4340c67179cae1932ba3420dcc37cc760603393a3005b60649184519162461bcd60e51b83528201526013602482015272416c726561647920746869732073746174757360681b6044820152fd5b8460649184519162461bcd60e51b83528201526013602482015272155cd95c881b9bdd081c9959da5cdd195c9959606a1b6044820152fd5b602186634e487b7160e01b5f525260245ffd5b503461032657611a2736613697565b91905f526003602052805f20805483101561032657602092611a48916137c2565b60018060a01b0391549060031b1c169051908152f35b5034610326576020366003190112610326576001600160a01b03611a806133a0565b165f526001602052805f2060ff6001825492015416825191825215156020820152f35b509034610326575f366003190112610326577ff0c57e16840df040f15088dc2f81fe391c3923bec73e23a9662efc9c229c6a0090815460ff81851c1615916001600160401b03821680159081611bb8575b6001149081611bae575b159081611ba5575b50611b97575067ffffffffffffffff198116600117835581611b78575b505f80546001600160a01b03191633179055611b3b57005b805468ff00000000000000001916905551600181527fc7f505b2f371ae2175ee4913f4499e1f2633a7b5936321eed1cdaeb6115181d290602090a1005b68ffffffffffffffffff1916680100000000000000011782555f611b23565b845163f92ee8a960e01b8152fd5b9050155f611b06565b303b159150611afe565b849150611af4565b50346103265761031090611bd336613697565b905f52600e602052815f20905f52602052805f20549051918160ff80859460081c169116836137a2565b5034610326575f36600319011261032657602090600b549051908152f35b503461032657602036600319011261032657602090611c386133a0565b5f5491906001600160a01b03808416917f38df5fa0f7fef0d515ca1f5388cb5790ac5885d5fca8d05d9f943e563c33a4b39190611c76338514613842565b16948593611c85851515613c1e565b51428152a36001600160a01b031916175f55005b50903461032657816003193601126103265780356001600160401b03811161032657611cc890369083016136c4565b906024356001600160a01b038116919082900361032657611ceb61071733613dcd565b8115611e275750335f52600192839260209060018252825f2054935f52825f205492611d18841515613aee565b5f955b611d2157005b8151861015610fbd578686611d3b866116c7849a87613a8e565b15611e2257611d4e876116c78387613a8e565b15611e22578686611d63816116f38589613a8e565b805f526006808952611d76875f20613538565b9182518a840120611d85613b92565b8b815191012014611e1857611da58385611d9f898d613a8e565b516142b3565b5f52885284865f200160ff198154169055600d88525f868120557f938e21a28464db5f9b9e24d1a58e038899de364f69dba20c154ee6fd4cd86def611e08611df6611df0878b613a8e565b51613bfe565b9288519182918a83528a8301906135fb565b428c8301520390a45b0195611d1b565b5050505050611e11565b611e11565b606490602085519162461bcd60e51b8352820152600e60248201526d125b9d985b1a59081dd85b1b195d60921b6044820152fd5b503461032657611e6a36613484565b611e7882939251151561395d565b6001600160a01b031692611e8d841515613aa2565b335f5260209160018352805f2054945f52805f205493611eae851515613aee565b611eb8858261421a565b805f5260068552611ed160ff6001855f20015416613b3a565b805f5260068552611ee3835f20613538565b93845186860120611ef2613b92565b878151910120811461222d57878903612052575b611f0e613bb3565b87815191012014611f8f575b5081611f7091611f4e86897f938e21a28464db5f9b9e24d1a58e038899de364f69dba20c154ee6fd4cd86def9897966142b3565b5f52600686526001835f200160ff198154169055600d86525f83812055613bfe565b93611f8482519383859485528401906135fb565b9042908301520390a4005b8351611fc88760018651938281818a0196611fab81838a6135da565b8101600881520301902054119287518093819289519283916135da565b81016007815203019020541515811561204a575b50611f1a57835162461bcd60e51b8152908101869052603960248201527f43616e6e6f74207265766f6b65206c6173742061646d696e6973747261746f7260448201527f20776974686f757420616e206f776e65722070726573656e74000000000000006064820152608490fd5b90505f611fdc565b61206461205d613b92565b8a86614255565b61207661206f613bb3565b8b87614255565b845f52600d89528a875f2054149061208c613bdc565b8051908b0120840361212c578215612124575b50811561211c575b50156120b3575b611f06565b845162461bcd60e51b8152808301889052603e60248201527f4f6e6c79206f776e6572732c2061646d696e6973747261746f72732c206f722060448201527f746865206772616e7465722063616e207265766f6b65207669657765727300006064820152608490fd5b90505f6120a7565b91505f61209f565b821592915082612225575b50156121ca5715611f065761214a613bb3565b87815191012081036120ae578451878186516121698183858b016135da565b8101600781520301902054156120ae57845162461bcd60e51b8152808301889052602560248201527f4f6e6c79206f776e6572732063616e207265766f6b652061646d696e6973747260448201526461746f727360d81b6064820152608490fd5b855162461bcd60e51b8152808401899052602f60248201527f4f6e6c79206f776e65727320616e642061646d696e6973747261746f7273206360448201526e616e207265766f6b6520726f6c657360881b6064820152608490fd5b90505f612137565b845162461bcd60e51b8152808301889052604560248201527f4f776e6572732063616e6e6f74206265207265766f6b65642e204f776e65722060448201527f6d7573742075736520766f6c756e746172696c794c656176654f776e6572736860648201526434b814149760d91b608482015260a490fd5b5034610326576020906122b96103bb36613743565b5f52600d8252805f20549051908152f35b503461032657806003193601126103265781356001600160401b038111610326576122f890369084016136c4565b90602480359261230a61071733613dcd565b335f52600194602060018152845f205493865f52600e8252855f20855f528252855f209186519261233a846133b6565b549261234960ff851682613945565b61235c60ff8383019560081c1685613951565b518481101561246e5760020361242c57845161238361237a826136ad565b98519889613400565b808852612392601f19916136ad565b015f5b81811061241d57505050875f905b6123b4575b610fbd888888886141a5565b8451811015612418576123c78186613a8e565b51835190600382101561240657916123e68b96959493928b889461414f565b6123f0828b613a8e565b526123fb818a613a8e565b5001909192936123a3565b83602187634e487b7160e01b5f52525ffd5b6123a8565b60608982018401528201612395565b8360649188519162461bcd60e51b8352820152601e60248201527f4e6f2061637469766520747275737465652072656c6174696f6e7368697000006044820152fd5b602185634e487b7160e01b5f525260245ffd5b509034610326576020908160031936011261032657355f52600a8152815f208054916124ac836136ad565b926124b985519485613400565b80845281840180935f52825f205f915b83831061252b57505050508351928184019082855251809152848401948160051b85010192915f955b8287106124ff5785850386f35b90919293828061251b600193603f198a820301865288516135fb565b96019201960195929190926124f2565b600185819261253c859a989a613538565b8152019201920191909593956124c9565b50346103265761255c36613697565b905f52600e602052815f20905f52602052805f209080519161257d836133b6565b549161258c60ff841682613945565b6125a060ff602083019460081c1684613951565b51838110156118805760021491826125bf575b60208383519015158152f35b9091505191600383101561186d5750600260209214905f6125b3565b5034610326575f366003190112610326577f00000000000000000000000000000000000000000000000000000000000000006001600160a01b0316300361264557602090517f360894a13ba1a3210667c828492db98dca3e2076cc3735a920a3ca505d382bbc8152f35b5163703e46dd60e11b8152fd5b5090346103265760209081600319360112610326578035906001600160401b03821161032657612689839161269b93369101613466565b818551938285809451938492016135da565b8101600981520301902091805191828185549182815201945f52815f20915f905b8282106126d45761031086866106d7828b0383613400565b8354875295860195600193840193909101906126bc565b509081600319360112610326576127006133a0565b916024356001600160401b0381116103265736602382011215610326576127309036906024818601359101613421565b906001600160a01b037f000000000000000000000000000000000000000000000000000000000000000081163081149081156128ba575b506128aa5761277a815f54163314613842565b8416918151946352d1902d60e01b86526020868681875afa5f9681612876575b506127b657505051634c9c8ce360e01b81529182015260249150fd5b838593877f360894a13ba1a3210667c828492db98dca3e2076cc3735a920a3ca505d382bbc908181036128605750833b156128495780546001600160a01b0319168317905551907fbc7cd75a20ee27fd9adebab32041f755214dbc6bffa90cc0225b39da2e5c2d3b5f80a28251156128335750610fbd9250614623565b9150503461283d57005b63b398979f60e01b8152fd5b8151634c9c8ce360e01b8152808701849052602490fd5b86602491845191632a87526960e21b8352820152fd5b9096506020813d6020116128a2575b8161289260209383613400565b810103126103265751955f61279a565b3d9150612885565b815163703e46dd60e11b81528490fd5b9050817f360894a13ba1a3210667c828492db98dca3e2076cc3735a920a3ca505d382bbc541614155f612767565b5090346103265781600319360112610326576129026133a0565b9160249081359360018060a01b038091612920825f54163314613842565b169361292d8515156139a9565b8515612b1f57845f52600193602094808652845f2054612add576129828551612955816133b6565b898152828882018181528a5f52818a52885f209251835551151591019060ff801983541691151516179055565b875f5260038652845f20938454600160401b9586821015612acb57906129ac9184820181556137c2565b819291549060031b918a831b921b1916179055875f526002865260ff855f2054166005811015612ab957612a8b57875f5260028652845f20600260ff19825416179055825493841015612a78578301808355831015612a6657507f39d132591ee0696de49ab564e4a90e430c006561917db731a2a614dd2d24559193929186915f527f8a35acfbc15ff81a39ae7d344fd709f28e8600b4aa8c65c6b64bfe7fe36bd19b0155612a5c600554613a6c565b60055551428152a3005b634e487b7160e01b5f90815260328352fd5b50634e487b7160e01b5f90815260418352fd5b50505050907f1cc138f50384be7770a8e4a34eecaa0d0c718bfaa1641af49db32532e4a5b9109151428152a3005b82602185634e487b7160e01b5f52525ffd5b84604187634e487b7160e01b5f52525ffd5b845162461bcd60e51b81528084018790526019818401527f57616c6c657420616c72656164792072656769737465726564000000000000006044820152606490fd5b606490601485602086519362461bcd60e51b855284015282015273092dcecc2d8d2c840eae6cae440928840d0c2e6d60631b6044820152fd5b50346103265760203660031901126103265760209061036c612b786133a0565b613dcd565b5034610326576020806003193601126103265782356001600160401b03811161032657606093612baf91369101613466565b91805192612c0483825195818181860198612bcb81838c6135da565b810160078152030190205495845182818651612be88183876135da565b81016008815203019020549385519384928392519283916135da565b8101600981520301902054928251948552840152820152f35b5090346103265760209081600319360112610326578035906001600160401b038211610326576126898391612c5493369101613466565b8101600881520301902091805191828185549182815201945f52815f20915f905b828210612c8d5761031086866106d7828b0383613400565b835487529586019560019384019390910190612c75565b50903461032657612cb436613640565b9092919360018060a01b03612ccd815f54163314613842565b612cd98651151561395d565b8416612ce68115156139a9565b612cf261074984613e8e565b5f5260209260018452612d0e825f205495612b7887151561387b565b15612f18578151848751918181818b0194612d2a8183886135da565b8101600781520301902054159182612ef0575b505015612eaf57612d4e858761421a565b805f5260068552825f2090612d6282613538565b9060ff60018351159401541690612db38651612d7d816133b6565b88815260018a8201818152845f5260068c52612d9d8a5f20935184613ee6565b51151591019060ff801983541691151516179055565b5f52600d87525f85812055155f14612e805750612dd18487896144c4565b612df1575b50905f805160206146b583398151915291611f705f96613bfe565b94845f52600a8452815f20805490600160401b821015612e6d5781612e1d9160015f9a940181556137c2565b919091612e5b575081612e435f805160206146b5833981519152959493611f7093613ee6565b612e4e600b54613a6c565b600b559650509091612dd6565b634e487b7160e01b885287905260245ffd5b604188634e487b7160e01b5f525260245ffd5b96939594925050508451818601209084519085012003612e9c57005b612eaa610fbd9483836142b3565b6144c4565b83606492519162461bcd60e51b8352820152601a60248201527f5265636f726420616c726561647920696e697469616c697a65640000000000006044820152fd5b612f0592508451809381928b519283916135da565b810160088152030190205415845f612d3d565b83606492519162461bcd60e51b8352820152601860248201527f4d75737420626520616e20616374697665206d656d62657200000000000000006044820152fd5b50903461032657602036600319011261032657355f526006602052805f2061031060ff6001612f8784613538565b93015416925192839283613620565b50346103265760203660031901126103265760209061036c612fb66133a0565b613e38565b50346103265780600319360112610326578135906024908135600381101561032657612fe961071733613dcd565b335f52602060018152825f20549385156131da5785851461319957855f526002825260ff845f205416600581101561314c571561315f57845f52600e8252835f20865f52825260ff845f2054168781101561314c578015908115613141575b50156131005783519061305a826133b6565b6001825282820161306b8582613951565b865f52600e8452855f20885f528452855f20925191898310156130ee57835491519960038b10156130dd57505060ff61ff007f494d010fdf588a0e83d626ea6963187bdda6f88b7007f7bf280683d3f7dea83498999a60081b1692169061ffff19161717905561157c83518093613795565b602190634e487b7160e01b5f52525ffd5b634e487b7160e01b5f90815260218b52fd5b6017879160649386519362461bcd60e51b85528401528201527f50726f706f73616c20616c7265616479206578697374730000000000000000006044820152fd5b60039150145f613048565b50634e487b7160e01b5f90815260218852fd5b6016879160649386519362461bcd60e51b855284015282015275151c9d5cdd1959481b9bdd081c9959da5cdd195c995960521b6044820152fd5b6017879160649386519362461bcd60e51b85528401528201527f43616e6e6f74206170706f696e7420796f757273656c660000000000000000006044820152fd5b600f879160649386519362461bcd60e51b85528401528201526e496e76616c6964207472757374656560881b6044820152fd5b5090346103265760209081600319360112610326578035906001600160401b03821161032657612689839161324493369101613466565b8101600781520301902091805191828185549182815201945f52815f20915f905b82821061327d5761031086866106d7828b0383613400565b835487529586019560019384019390910190613265565b50346103265760209061036c6132a936613484565b906138bf565b5034610326576020366003190112610326576132c96133a0565b5f546001600160a01b0391906132e29083163314613842565b16805f5260016020526132f9825f2054151561387b565b805f52600160205260ff6001835f200154161561332957600192505f52816020525f200160ff1981541690555f80f35b815162461bcd60e51b8152602081850152601760248201527f57616c6c657420616c726561647920696e6163746976650000000000000000006044820152606490fd5b905034610326576020366003190112610326576020916001600160a01b036133926133a0565b165f52600183525f20548152f35b600435906001600160a01b038216820361032657565b604081019081106001600160401b038211176133d157604052565b634e487b7160e01b5f52604160045260245ffd5b602081019081106001600160401b038211176133d157604052565b90601f801991011681019081106001600160401b038211176133d157604052565b9291926001600160401b0382116133d1576040519161344a601f8201601f191660200184613400565b829481845281830111610326578281602093845f960137010152565b9080601f830112156103265781602061348193359101613421565b90565b604060031982011261032657600435906001600160401b038211610326576134ae91600401613466565b906024356001600160a01b03811681036103265790565b60209060206040818301928281528551809452019301915f5b8281106134ec575050505090565b8351855293810193928101926001016134de565b90600182811c9216801561352e575b602083101461351a57565b634e487b7160e01b5f52602260045260245ffd5b91607f169161350f565b9060405191825f825461354a81613500565b908184526020946001916001811690815f146135b8575060011461357a575b50505061357892500383613400565b565b5f90815285812095935091905b8183106135a057505061357893508201015f8080613569565b85548884018501529485019487945091830191613587565b9250505061357894925060ff191682840152151560051b8201015f8080613569565b5f5b8381106135eb5750505f910152565b81810151838201526020016135dc565b90602091613614815180928185528580860191016135da565b601f01601f1916010190565b906136386020919493946040845260408401906135fb565b931515910152565b6060600319820112610326576001600160401b0391600435838111610326578261366c91600401613466565b926024356001600160a01b038116810361032657926044359182116103265761348191600401613466565b6040906003190112610326576004359060243590565b6001600160401b0381116133d15760051b60200190565b81601f82011215610326578035916020916136de846136ad565b936136ec6040519586613400565b808552838086019160051b8301019280841161032657848301915b8483106137175750505050505090565b82356001600160401b03811161032657869161373884848094890101613466565b815201920191613707565b604060031982011261032657600435906001600160401b0382116103265761376d91600401613466565b9060243590565b9060058210156137815752565b634e487b7160e01b5f52602160045260245ffd5b9060038210156137815752565b909291604082019360048110156137815782526135789160200190613795565b80548210156137d7575f5260205f2001905f90565b634e487b7160e01b5f52603260045260245ffd5b6060600319820112610326576001600160401b03916004358381116103265782613817916004016136c4565b926024356001600160a01b0381168103610326579260443591821161032657613481916004016136c4565b1561384957565b60405162461bcd60e51b815260206004820152600a60248201526927b7363c9030b236b4b760b11b6044820152606490fd5b1561388257565b60405162461bcd60e51b815260206004820152601560248201527415d85b1b195d081b9bdd081c9959da5cdd195c9959605a1b6044820152606490fd5b6001600160a01b039091165f9081526001602052604090205480156138fc576138e79161421a565b5f52600660205260ff600160405f2001541690565b50505f90565b1561390957565b60405162461bcd60e51b81526020600482015260146024820152732737ba1030b71030b1ba34bb329036b2b6b132b960611b6044820152606490fd5b60048210156137815752565b60038210156137815752565b1561396457565b60405162461bcd60e51b815260206004820152601960248201527f5265636f72642049442063616e6e6f7420626520656d707479000000000000006044820152606490fd5b156139b057565b60405162461bcd60e51b8152602060048201526016602482015275496e76616c69642077616c6c6574206164647265737360501b6044820152606490fd5b156139f557565b60405162461bcd60e51b8152602060048201526013602482015272496e76616c696420726f6c6520737472696e6760681b6044820152606490fd5b805490600160401b8210156133d15781613a52916001613a68940181556137c2565b819391549060031b91821b915f19901b19161790565b9055565b5f198114613a7a5760010190565b634e487b7160e01b5f52601160045260245ffd5b80518210156137d75760209160051b010190565b15613aa957565b60405162461bcd60e51b815260206004820152601d60248201527f57616c6c657420616464726573732063616e6e6f74206265207a65726f0000006044820152606490fd5b15613af557565b60405162461bcd60e51b815260206004820152601c60248201527f5461726765742077616c6c6574206e6f742072656769737465726564000000006044820152606490fd5b15613b4157565b60405162461bcd60e51b815260206004820152602360248201527f54617267657420646f6573206e6f74206861766520616e2061637469766520726044820152626f6c6560e81b6064820152608490fd5b60405190613b9f826133b6565b600582526437bbb732b960d91b6020830152565b60405190613bc0826133b6565b600d82526c30b236b4b734b9ba3930ba37b960991b6020830152565b60405190613be9826133b6565b60068252653b34b2bbb2b960d11b6020830152565b613c16906020604051928284809451938492016135da565b810103902090565b15613c2557565b60405162461bcd60e51b815260206004820152600f60248201526e496e76616c6964206164647265737360881b6044820152606490fd5b6001600160a01b039091165f908152600160205260409020549081156138fc57613c8e613c87613b92565b8383614255565b918215613c9a57505090565b6134819250613ca7613bb3565b91614255565b15613cb457565b60405162461bcd60e51b8152602060048201526015602482015274082e4e4c2f240d8cadccee8d040dad2e6dac2e8c6d605b1b6044820152606490fd5b939291613d1a90613d0c6040936060885260608801906135fb565b9086820360208801526135fb565b930152565b919060018060a01b03165f52600160205260405f20548015613d445761348192614255565b5050505f90565b6001600160a01b039091165f90815260016020526040902054908115613dad5760209291613d789161421a565b5f526006825260405f20604051613d8e816133b6565b60ff6001613d9b84613538565b93848452015416151593849101529190565b5050604051613dbb816133e5565b5f8152905f90565b906138e79161421a565b6001600160a01b03165f9081526001602052604090208054908115908115613e28575b50613e23575f52600260205260ff60405f20541660058110156137815760018114159081613e1c575090565b9050151590565b505f90565b60ff91506001015416155f613df0565b6001600160a01b03165f9081526001602052604090208054908115908115613e7e575b50613e23575f52600260205260ff60405f20541660058110156137815760041490565b60ff91506001015416155f613e5b565b60208151910120613e9d613b92565b602081519101208114908115613ecd575b8115613eb8575090565b9050613ec2613bdc565b602081519101201490565b9050613ed7613bb3565b60208151910120811490613eae565b91909182516001600160401b0381116133d157613f038254613500565b601f8111613fa8575b50602080601f8311600114613f475750819293945f92613f3c575b50508160011b915f199060031b1c1916179055565b015190505f80613f27565b90601f19831695845f5260205f20925f905b888210613f9057505083600195969710613f78575b505050811b019055565b01515f1960f88460031b161c191690555f8080613f6e565b80600185968294968601518155019501930190613f59565b825f5260205f20601f830160051c81019160208410613fe3575b601f0160051c01905b818110613fd85750613f0c565b5f8155600101613fcb565b9091508190613fc2565b919091613ffa838261421a565b91825f5260209260068452604090815f209061401582613538565b9060ff600183511594015416906140508551614030816133b6565b87815260018a8201818152845f5260068c52612d9d895f20935184613ee6565b5f52600d875288845f2055155f14614119575061406e8387866144c4565b6140a9575b61408a5f805160206146b583398151915293613bfe565b9361409e82519383859485528401906135fb565b9042908301520390a4565b845f52600a8452805f208054600160401b8110156133d1576140d0916001820181556137c2565b61410657836140f05f805160206146b58339815191529561408a93613ee6565b6140fb600b54613a6c565b600b55935050614073565b634e487b7160e01b5f525f60045260245ffd5b9650505092918451818601209084519085012003614138575b50505050565b612eaa6141469483836142b3565b5f808080614132565b600383101561378157821561419a5760019161416a91614417565b91146141735790565b80516020820120614182613b92565b60208151910120146141915790565b50613481613bb3565b505050613481613bdc565b9392935f5b815181101561421257806141c36116ae60019387613a8e565b1561420d576141d6876116c78386613a8e565b1561420d576141e9846116c78386613a8e565b61420d57614207876141fb8386613a8e565b5186611726858a613a8e565b016141aa565b614207565b505050509050565b9061424f604080518093602061423981840197888151938492016135da565b8201906020820152036020810184520182613400565b51902090565b602092916142629161421a565b5f526006825260405f20604051614278816133b6565b60ff600161428584613538565b93848452015416151593849101528261429d57505090565b9091506020815191012090602081519101201490565b82516020809401206142c3613b92565b80519085012081036142fa5750826142eb9161357894604051938285809451938492016135da565b8101600781520301902061458c565b614302613bb3565b805190850120810361433957508261432a9161357894604051938285809451938492016135da565b8101600881520301902061458c565b614341613bdc565b8481519101201461435157505050565b8261436c9161357894604051938285809451938492016135da565b8101600981520301902061458c565b600c546001600160a01b0316908115613d44576020916143b9916040518095819482936379d615f560e11b84526040600485015260448401906135fb565b90602483015203915afa90811561440c575f916143d4575090565b90506020813d602011614404575b816143ef60209383613400565b81010312610326575180151581036103265790565b3d91506143e2565b6040513d5f823e3d90fd5b906144219161421a565b5f52600660205260405f2060ff60016040519261443d846133b6565b61444681613538565b8452015416158015602083015261445b575190565b50604051614468816133e5565b5f815290565b6001600160a01b03165f90815260016020526040902080549081159081156144b4575b50613e23575f52600260205260ff60405f20541660058110156137815760031490565b60ff91506001015416155f614491565b82516020809401206144d4613b92565b805190850120810361450b5750826144fc9161357894604051938285809451938492016135da565b81016007815203019020613a30565b614513613bb3565b805190850120810361454a57508261453b9161357894604051938285809451938492016135da565b81016008815203019020613a30565b614552613bdc565b8481519101201461456257505050565b8261457d9161357894604051938285809451938492016135da565b81016009815203019020613a30565b5f5b815490818110156141325783916145a582856137c2565b959054600396871b1c146145bf575090925060010161458e565b5f199250828101908111613a7a57613a526145dd6145ea92866137c2565b905490871b1c92856137c2565b90558154801561460f5781019261460184846137c2565b81939154921b1b1916905555565b634e487b7160e01b5f52603160045260245ffd5b905f8091602081519101845af480806146a1575b156146575750506040513d81523d5f602083013e60203d82010160405290565b1561467e57604051639996b31560e01b81526001600160a01b039091166004820152602490fd5b3d1561468f576040513d5f823e3d90fd5b60405163d6bda27560e01b8152600490fd5b503d1515806146375750813b151561463756fe2a27f0a20e4df4738f3a8e2449b014d439e7ce0a97ee5860771c25cbafa1cfeba26469706673582212203a71bd9530bf96f85b0475c5e892dcc075cc096ac356209f79245a838a98c83664736f6c63430008180033","opcodes":"PUSH1 0xA0 DUP1 PUSH1 0x40 MSTORE CALLVALUE PUSH3 0xD1 JUMPI ADDRESS PUSH1 0x80 MSTORE PUSH32 0xF0C57E16840DF040F15088DC2F81FE391C3923BEC73E23A9662EFC9C229C6A00 SWAP1 DUP2 SLOAD SWAP1 PUSH1 0xFF DUP3 PUSH1 0x40 SHR AND PUSH3 0xC2 JUMPI POP PUSH1 0x1 PUSH1 0x1 PUSH1 0x40 SHL SUB PUSH1 0x2 PUSH1 0x1 PUSH1 0x40 SHL SUB NOT DUP3 DUP3 AND ADD PUSH3 0x7C JUMPI JUMPDEST PUSH1 0x40 MLOAD PUSH2 0x470A SWAP1 DUP2 PUSH3 0xD6 DUP3 CODECOPY PUSH1 0x80 MLOAD DUP2 DUP2 DUP2 PUSH2 0x25EE ADD MSTORE PUSH2 0x273B ADD MSTORE RETURN JUMPDEST PUSH1 0x1 PUSH1 0x1 PUSH1 0x40 SHL SUB NOT SWAP1 SWAP2 AND DUP2 OR SWAP1 SWAP2 SSTORE PUSH1 0x40 MLOAD SWAP1 DUP2 MSTORE PUSH32 0xC7F505B2F371AE2175EE4913F4499E1F2633A7B5936321EED1CDAEB6115181D2 SWAP1 PUSH1 0x20 SWAP1 LOG1 PUSH0 DUP1 DUP1 PUSH3 0x5C JUMP JUMPDEST PUSH4 0xF92EE8A9 PUSH1 0xE0 SHL DUP2 MSTORE PUSH1 0x4 SWAP1 REVERT JUMPDEST PUSH0 DUP1 REVERT INVALID PUSH1 0x80 PUSH1 0x40 DUP2 DUP2 MSTORE PUSH1 0x4 SWAP2 DUP3 CALLDATASIZE LT ISZERO PUSH2 0x15 JUMPI PUSH0 DUP1 REVERT JUMPDEST PUSH0 CALLDATALOAD PUSH1 0xE0 SHR SWAP1 DUP2 PUSH3 0xB0C809 EQ PUSH2 0x336C JUMPI POP DUP1 PUSH4 0xB3FFD1D EQ PUSH2 0x32AF JUMPI DUP1 PUSH4 0x1435B558 EQ PUSH2 0x3294 JUMPI DUP1 PUSH4 0x1A95ACA5 EQ PUSH2 0x320D JUMPI DUP1 PUSH4 0x1C0C18D8 EQ PUSH2 0x2FBB JUMPI DUP1 PUSH4 0x259ED80E EQ PUSH2 0x2F96 JUMPI DUP1 PUSH4 0x33105592 EQ PUSH2 0x2F59 JUMPI DUP1 PUSH4 0x3575C391 EQ PUSH2 0x2CA4 JUMPI DUP1 PUSH4 0x3DD1E8FC EQ PUSH2 0x2C1D JUMPI DUP1 PUSH4 0x41D8BDE3 EQ PUSH2 0x2B7D JUMPI DUP1 PUSH4 0x45ECD02F EQ PUSH2 0x2B58 JUMPI DUP1 PUSH4 0x49DF7208 EQ PUSH2 0x28E8 JUMPI DUP1 PUSH4 0x4B6FEB7C EQ PUSH2 0x1BFD JUMPI DUP1 PUSH4 0x4F1EF286 EQ PUSH2 0x26EB JUMPI DUP1 PUSH4 0x510B3003 EQ PUSH2 0x2652 JUMPI DUP1 PUSH4 0x52D1902D EQ PUSH2 0x25DB JUMPI DUP1 PUSH4 0x557EE54F EQ PUSH2 0x254D JUMPI DUP1 PUSH4 0x562C788E EQ PUSH2 0x650 JUMPI DUP1 PUSH4 0x6544B05B EQ PUSH2 0x2481 JUMPI DUP1 PUSH4 0x668A461E EQ PUSH2 0x22CA JUMPI DUP1 PUSH4 0x679084E9 EQ PUSH2 0x22A4 JUMPI DUP1 PUSH4 0x6B4BED97 EQ PUSH2 0x375 JUMPI DUP1 PUSH4 0x731F21A0 EQ PUSH2 0x1E5B JUMPI DUP1 PUSH4 0x74926CDA EQ PUSH2 0x1C99 JUMPI DUP1 PUSH4 0x75829DEF EQ PUSH2 0x1C1B JUMPI DUP1 PUSH4 0x790E118C EQ PUSH2 0x1BFD JUMPI DUP1 PUSH4 0x7B657D07 EQ PUSH2 0x1BC0 JUMPI DUP1 PUSH4 0x8129FC1C EQ PUSH2 0x1AA3 JUMPI DUP1 PUSH4 0x89B08F11 EQ PUSH2 0x1A5E JUMPI DUP1 PUSH4 0x9443CD80 EQ PUSH2 0x1A18 JUMPI DUP1 PUSH4 0x96207E02 EQ PUSH2 0x18C7 JUMPI DUP1 PUSH4 0x970EE5B9 EQ PUSH2 0x1893 JUMPI DUP1 PUSH4 0x9915B91F EQ PUSH2 0x17F6 JUMPI DUP1 PUSH4 0x9BE572F6 EQ PUSH2 0xFBF JUMPI DUP1 PUSH4 0x9F4216E8 EQ PUSH2 0x17AA JUMPI DUP1 PUSH4 0xA0CA13C3 EQ PUSH2 0x178F JUMPI DUP1 PUSH4 0xA5C3DC3C EQ PUSH2 0x1635 JUMPI DUP1 PUSH4 0xAD3CB1CC EQ PUSH2 0x15F1 JUMPI DUP1 PUSH4 0xB55AEFCC EQ PUSH2 0x15BD JUMPI DUP1 PUSH4 0xB8CAB84B EQ PUSH2 0x14E2 JUMPI DUP1 PUSH4 0xBB0F86D5 EQ PUSH2 0x142B JUMPI DUP1 PUSH4 0xBB20B172 EQ PUSH2 0xFDD JUMPI DUP1 PUSH4 0xBFF1F9E1 EQ PUSH2 0xFBF JUMPI DUP1 PUSH4 0xC0F0ED7E EQ PUSH2 0xF60 JUMPI DUP1 PUSH4 0xC7155823 EQ PUSH2 0xEE4 JUMPI DUP1 PUSH4 0xC979C9BF EQ PUSH2 0xD80 JUMPI DUP1 PUSH4 0xCABDD23F EQ PUSH2 0xD65 JUMPI DUP1 PUSH4 0xCB261A03 EQ PUSH2 0xD40 JUMPI DUP1 PUSH4 0xCDA06C6E EQ PUSH2 0xD19 JUMPI DUP1 PUSH4 0xD12A7768 EQ PUSH2 0xC6A JUMPI DUP1 PUSH4 0xDAA9DC23 EQ PUSH2 0x6F8 JUMPI DUP1 PUSH4 0xE2842D79 EQ PUSH2 0x678 JUMPI DUP1 PUSH4 0xE94ED257 EQ PUSH2 0x650 JUMPI DUP1 PUSH4 0xE965BFB7 EQ PUSH2 0x5FA JUMPI DUP1 PUSH4 0xEB2BBF25 EQ PUSH2 0x5D1 JUMPI DUP1 PUSH4 0xED8D7B37 EQ PUSH2 0x3FE JUMPI DUP1 PUSH4 0xEE4E5828 EQ PUSH2 0x3A6 JUMPI DUP1 PUSH4 0xF29E007B EQ PUSH2 0x375 JUMPI DUP1 PUSH4 0xF3AC2BEA EQ PUSH2 0x351 JUMPI DUP1 PUSH4 0xF851A440 EQ PUSH2 0x32A JUMPI PUSH4 0xFA7A6BCC EQ PUSH2 0x2BD JUMPI PUSH0 DUP1 REVERT JUMPDEST CALLVALUE PUSH2 0x326 JUMPI PUSH2 0x2CB CALLDATASIZE PUSH2 0x3697 JUMP JUMPDEST SWAP1 PUSH0 MSTORE PUSH1 0xA PUSH1 0x20 MSTORE DUP2 PUSH0 KECCAK256 SWAP1 DUP2 SLOAD DUP2 LT ISZERO PUSH2 0x326 JUMPI PUSH2 0x2E9 SWAP2 PUSH2 0x37C2 JUMP JUMPDEST SWAP3 SWAP1 SWAP3 PUSH2 0x314 JUMPI POP PUSH2 0x2FD PUSH2 0x310 SWAP3 PUSH2 0x3538 JUMP JUMPDEST SWAP1 MLOAD SWAP2 DUP3 SWAP2 PUSH1 0x20 DUP4 MSTORE PUSH1 0x20 DUP4 ADD SWAP1 PUSH2 0x35FB JUMP JUMPDEST SUB SWAP1 RETURN JUMPDEST PUSH0 SWAP1 PUSH4 0x4E487B71 PUSH1 0xE0 SHL DUP3 MSTORE MSTORE PUSH1 0x24 PUSH0 REVERT JUMPDEST PUSH0 DUP1 REVERT JUMPDEST POP CALLVALUE PUSH2 0x326 JUMPI PUSH0 CALLDATASIZE PUSH1 0x3 NOT ADD SLT PUSH2 0x326 JUMPI PUSH0 SLOAD SWAP1 MLOAD PUSH1 0x1 PUSH1 0x1 PUSH1 0xA0 SHL SUB SWAP1 SWAP2 AND DUP2 MSTORE PUSH1 0x20 SWAP1 RETURN JUMPDEST POP CALLVALUE PUSH2 0x326 JUMPI PUSH1 0x20 SWAP1 PUSH2 0x36C PUSH2 0x366 CALLDATASIZE PUSH2 0x3743 JUMP JUMPDEST SWAP1 PUSH2 0x437B JUMP JUMPDEST SWAP1 MLOAD SWAP1 ISZERO ISZERO DUP2 MSTORE RETURN JUMPDEST POP CALLVALUE PUSH2 0x326 JUMPI PUSH1 0x20 CALLDATASIZE PUSH1 0x3 NOT ADD SLT PUSH2 0x326 JUMPI PUSH1 0x20 SWAP2 CALLDATALOAD PUSH0 MSTORE PUSH1 0x2 DUP3 MSTORE PUSH2 0x3A4 PUSH1 0xFF DUP3 PUSH0 KECCAK256 SLOAD AND SWAP2 MLOAD DUP1 SWAP3 PUSH2 0x3774 JUMP JUMPDEST RETURN JUMPDEST POP CALLVALUE PUSH2 0x326 JUMPI PUSH1 0x20 SWAP1 PUSH2 0x3C1 PUSH2 0x3BB CALLDATASIZE PUSH2 0x3743 JUMP JUMPDEST SWAP1 PUSH2 0x421A JUMP JUMPDEST PUSH0 MSTORE PUSH1 0x6 DUP3 MSTORE PUSH2 0x310 DUP2 PUSH0 KECCAK256 SWAP2 DUP1 MLOAD PUSH2 0x3D9 DUP2 PUSH2 0x33B6 JUMP JUMPDEST PUSH1 0xFF PUSH1 0x1 PUSH2 0x3E6 DUP7 PUSH2 0x3538 JUMP JUMPDEST SWAP6 DUP7 DUP5 MSTORE ADD SLOAD AND ISZERO ISZERO SWAP5 DUP6 SWAP2 ADD MSTORE MLOAD SWAP3 DUP4 SWAP3 DUP4 PUSH2 0x3620 JUMP JUMPDEST POP CALLVALUE PUSH2 0x326 JUMPI PUSH1 0x20 DUP1 PUSH1 0x3 NOT CALLDATASIZE ADD SLT PUSH2 0x326 JUMPI DUP3 CALLDATALOAD PUSH1 0x1 PUSH1 0x1 PUSH1 0x40 SHL SUB DUP2 GT PUSH2 0x326 JUMPI PUSH2 0x42E SWAP1 CALLDATASIZE SWAP1 DUP6 ADD PUSH2 0x3466 JUMP JUMPDEST PUSH2 0x43A DUP2 MLOAD ISZERO ISZERO PUSH2 0x395D JUMP JUMPDEST CALLER PUSH0 MSTORE PUSH1 0x1 DUP3 MSTORE DUP3 PUSH0 KECCAK256 SLOAD SWAP4 PUSH2 0x458 PUSH2 0x451 PUSH2 0x3B92 JUMP JUMPDEST DUP7 DUP5 PUSH2 0x4255 JUMP JUMPDEST ISZERO PUSH2 0x582 JUMPI DUP4 MLOAD PUSH2 0x496 DUP5 PUSH1 0x1 DUP6 MLOAD SWAP4 DUP3 DUP2 DUP2 DUP10 ADD SWAP7 PUSH2 0x479 DUP2 DUP4 DUP11 PUSH2 0x35DA JUMP JUMPDEST DUP2 ADD PUSH1 0x7 DUP2 MSTORE SUB ADD SWAP1 KECCAK256 SLOAD GT SWAP3 DUP8 MLOAD DUP1 SWAP4 DUP2 SWAP3 DUP9 MLOAD SWAP3 DUP4 SWAP2 PUSH2 0x35DA JUMP JUMPDEST DUP2 ADD PUSH1 0x8 DUP2 MSTORE SUB ADD SWAP1 KECCAK256 SLOAD ISZERO ISZERO DUP2 ISZERO PUSH2 0x57A JUMPI JUMPDEST POP ISZERO PUSH2 0x51D JUMPI POP SWAP1 PUSH2 0x515 DUP3 PUSH2 0x4E1 DUP7 PUSH32 0x3BB3693064733B9A7D6D41BEE69F302FCBEFBE827EA4011400530C9BA9CB49C3 SWAP6 PUSH2 0x421A JUMP JUMPDEST PUSH2 0x4F3 PUSH2 0x4EC PUSH2 0x3B92 JUMP JUMPDEST DUP9 DUP5 PUSH2 0x42B3 JUMP JUMPDEST PUSH0 MSTORE PUSH1 0x6 DUP4 MSTORE PUSH1 0x1 DUP6 PUSH0 KECCAK256 ADD PUSH1 0xFF NOT DUP2 SLOAD AND SWAP1 SSTORE PUSH1 0xD DUP4 MSTORE PUSH0 DUP6 DUP2 KECCAK256 SSTORE PUSH2 0x3BFE JUMP JUMPDEST SWAP3 MLOAD TIMESTAMP DUP2 MSTORE LOG3 STOP JUMPDEST DUP4 MLOAD PUSH3 0x461BCD PUSH1 0xE5 SHL DUP2 MSTORE SWAP1 DUP2 ADD DUP4 SWAP1 MSTORE PUSH1 0x31 PUSH1 0x24 DUP3 ADD MSTORE PUSH32 0x43616E6E6F74206C65617665206173206C617374206F776E6572207769746820 PUSH1 0x44 DUP3 ADD MSTORE PUSH17 0x6E6F2061646D696E6973747261746F7273 PUSH1 0x78 SHL PUSH1 0x64 DUP3 ADD MSTORE PUSH1 0x84 SWAP1 REVERT JUMPDEST SWAP1 POP PUSH0 PUSH2 0x4AA JUMP JUMPDEST DUP4 MLOAD PUSH3 0x461BCD PUSH1 0xE5 SHL DUP2 MSTORE SWAP1 DUP2 ADD DUP4 SWAP1 MSTORE PUSH1 0x23 PUSH1 0x24 DUP3 ADD MSTORE PUSH32 0x596F7520617265206E6F7420616E206F776E6572206F66207468697320726563 PUSH1 0x44 DUP3 ADD MSTORE PUSH3 0x1BDC99 PUSH1 0xEA SHL PUSH1 0x64 DUP3 ADD MSTORE PUSH1 0x84 SWAP1 REVERT JUMPDEST POP CALLVALUE PUSH2 0x326 JUMPI PUSH2 0x310 SWAP1 PUSH2 0x5ED PUSH2 0x5E7 CALLDATASIZE PUSH2 0x3484 JUMP JUMPDEST SWAP1 PUSH2 0x3D4B JUMP JUMPDEST SWAP3 SWAP1 SWAP2 MLOAD SWAP3 DUP4 SWAP3 DUP4 PUSH2 0x3620 JUMP JUMPDEST POP CALLVALUE PUSH2 0x326 JUMPI PUSH1 0x20 SWAP1 PUSH2 0x623 PUSH2 0x60F CALLDATASIZE PUSH2 0x3743 JUMP JUMPDEST SWAP4 SWAP1 DUP2 DUP5 MLOAD SWAP4 DUP3 DUP6 DUP1 SWAP5 MLOAD SWAP4 DUP5 SWAP3 ADD PUSH2 0x35DA JUMP JUMPDEST DUP2 ADD PUSH1 0x8 DUP2 MSTORE SUB ADD SWAP1 KECCAK256 DUP1 SLOAD DUP4 LT ISZERO PUSH2 0x326 JUMPI PUSH1 0x20 SWAP3 PUSH2 0x642 SWAP2 PUSH2 0x37C2 JUMP JUMPDEST SWAP2 SWAP1 SLOAD SWAP1 MLOAD SWAP2 PUSH1 0x3 SHL SHR DUP2 MSTORE RETURN JUMPDEST POP CALLVALUE PUSH2 0x326 JUMPI PUSH0 CALLDATASIZE PUSH1 0x3 NOT ADD SLT PUSH2 0x326 JUMPI PUSH1 0xC SLOAD SWAP1 MLOAD PUSH1 0x1 PUSH1 0x1 PUSH1 0xA0 SHL SUB SWAP1 SWAP2 AND DUP2 MSTORE PUSH1 0x20 SWAP1 RETURN JUMPDEST POP CALLVALUE PUSH2 0x326 JUMPI PUSH0 CALLDATASIZE PUSH1 0x3 NOT ADD SLT PUSH2 0x326 JUMPI DUP1 MLOAD SWAP1 DUP2 DUP4 SLOAD DUP1 DUP3 MSTORE PUSH1 0x20 DUP1 SWAP3 ADD SWAP5 PUSH0 MSTORE PUSH32 0x8A35ACFBC15FF81A39AE7D344FD709F28E8600B4AA8C65C6B64BFE7FE36BD19B SWAP2 PUSH0 SWAP1 JUMPDEST DUP3 DUP3 LT PUSH2 0x6E1 JUMPI PUSH2 0x310 DUP7 DUP7 PUSH2 0x6D7 DUP3 DUP12 SUB DUP4 PUSH2 0x3400 JUMP JUMPDEST MLOAD SWAP2 DUP3 SWAP2 DUP3 PUSH2 0x34C5 JUMP JUMPDEST DUP4 SLOAD DUP8 MSTORE SWAP6 DUP7 ADD SWAP6 PUSH1 0x1 SWAP4 DUP5 ADD SWAP4 SWAP1 SWAP2 ADD SWAP1 PUSH2 0x6BF JUMP JUMPDEST POP SWAP1 CALLVALUE PUSH2 0x326 JUMPI PUSH2 0x708 CALLDATASIZE PUSH2 0x3640 JUMP JUMPDEST SWAP4 SWAP2 SWAP1 PUSH2 0x71C PUSH2 0x717 CALLER PUSH2 0x3DCD JUMP JUMPDEST PUSH2 0x3902 JUMP JUMPDEST PUSH2 0x728 DUP3 MLOAD ISZERO ISZERO PUSH2 0x395D JUMP JUMPDEST PUSH1 0x1 PUSH1 0x1 PUSH1 0xA0 SHL SUB AND SWAP4 PUSH2 0x73D DUP6 ISZERO ISZERO PUSH2 0x3AA2 JUMP JUMPDEST PUSH2 0x74E PUSH2 0x749 DUP3 PUSH2 0x3E8E JUMP JUMPDEST PUSH2 0x39EE JUMP JUMPDEST CALLER PUSH0 MSTORE PUSH1 0x20 SWAP2 PUSH1 0x1 DUP4 MSTORE DUP4 PUSH0 KECCAK256 SLOAD SWAP6 PUSH0 MSTORE DUP4 PUSH0 KECCAK256 SLOAD SWAP5 PUSH2 0x76F DUP7 ISZERO ISZERO PUSH2 0x3AEE JUMP JUMPDEST DUP3 MLOAD DUP5 DUP5 ADD KECCAK256 SWAP4 PUSH2 0x780 DUP8 DUP5 PUSH2 0x421A JUMP JUMPDEST DUP1 PUSH0 MSTORE PUSH1 0x6 DUP3 MSTORE PUSH2 0x799 PUSH1 0xFF PUSH1 0x1 DUP10 PUSH0 KECCAK256 ADD SLOAD AND PUSH2 0x3B3A JUMP JUMPDEST PUSH0 MSTORE PUSH1 0x6 DUP2 MSTORE PUSH2 0x7AA DUP7 PUSH0 KECCAK256 PUSH2 0x3538 JUMP JUMPDEST SWAP5 DUP6 MLOAD DUP3 DUP8 ADD KECCAK256 DUP2 DUP2 EQ PUSH2 0xC27 JUMPI PUSH2 0x7C0 PUSH2 0x3B92 JUMP JUMPDEST DUP4 DUP2 MLOAD SWAP2 ADD KECCAK256 DUP2 EQ PUSH2 0xBB2 JUMPI DUP8 MLOAD SWAP2 DUP6 MLOAD SWAP3 DUP5 DUP2 DUP2 DUP10 ADD SWAP6 PUSH2 0x7E3 DUP2 DUP4 DUP10 PUSH2 0x35DA JUMP JUMPDEST DUP2 ADD PUSH1 0x7 DUP2 MSTORE SUB ADD SWAP1 KECCAK256 SLOAD ISZERO SWAP2 DUP12 DUP4 ISZERO PUSH2 0x818 PUSH2 0x808 PUSH2 0x801 PUSH2 0x3B92 JUMP JUMPDEST DUP5 DUP13 PUSH2 0x4255 JUMP JUMPDEST SWAP3 PUSH2 0x811 PUSH2 0x3BB3 JUMP JUMPDEST SWAP1 DUP12 PUSH2 0x4255 JUMP JUMPDEST SWAP1 PUSH2 0x821 PUSH2 0x3B92 JUMP JUMPDEST DUP1 MLOAD SWAP1 DUP10 ADD KECCAK256 DUP6 SUB PUSH2 0x9FC JUMPI ISZERO PUSH2 0x99F JUMPI POP ISZERO PUSH2 0x95E JUMPI JUMPDEST PUSH2 0x841 PUSH2 0x3BB3 JUMP JUMPDEST DUP6 DUP2 MLOAD SWAP2 ADD KECCAK256 EQ SWAP1 DUP2 PUSH2 0x947 JUMPI JUMPDEST POP PUSH2 0x8A6 JUMPI JUMPDEST POP POP POP POP SWAP1 PUSH2 0x8A1 PUSH2 0x894 DUP4 PUSH2 0x88F DUP10 DUP6 DUP11 PUSH32 0xEA2C9EBE68919DDF880B3221D8D508D908163D0973E8B79DF108F5D110D0C633 SWAP10 SWAP9 PUSH2 0x3FED JUMP JUMPDEST PUSH2 0x3BFE JUMP JUMPDEST SWAP5 MLOAD SWAP3 DUP4 SWAP3 TIMESTAMP SWAP2 DUP5 PUSH2 0x3CF1 JUMP JUMPDEST SUB SWAP1 LOG4 STOP JUMPDEST PUSH2 0x8B1 JUMPI JUMPDEST DUP1 PUSH2 0x855 JUMP JUMPDEST PUSH2 0x8C8 DUP3 PUSH1 0x1 SWAP3 DUP10 MLOAD DUP1 SWAP4 DUP2 SWAP3 DUP10 MLOAD SWAP3 DUP4 SWAP2 PUSH2 0x35DA JUMP JUMPDEST DUP2 ADD PUSH1 0x8 DUP2 MSTORE SUB ADD SWAP1 KECCAK256 SLOAD GT ISZERO PUSH2 0x8DF JUMPI DUP1 PUSH2 0x8AB JUMP JUMPDEST DUP6 MLOAD PUSH3 0x461BCD PUSH1 0xE5 SHL DUP2 MSTORE SWAP2 DUP3 ADD MSTORE PUSH1 0x39 PUSH1 0x24 DUP3 ADD MSTORE PUSH32 0x43616E6E6F742064656D6F746520746865206C6173742061646D696E69737472 PUSH1 0x44 DUP3 ADD MSTORE PUSH32 0x61746F72207768656E206E6F206F776E65722065786973747300000000000000 PUSH1 0x64 DUP3 ADD MSTORE PUSH1 0x84 SWAP2 POP REVERT JUMPDEST SWAP1 POP PUSH2 0x951 PUSH2 0x3BDC JUMP JUMPDEST DUP5 DUP2 MLOAD SWAP2 ADD KECCAK256 EQ PUSH0 PUSH2 0x84F JUMP JUMPDEST PUSH1 0x64 DUP7 DUP7 DUP1 DUP14 MLOAD SWAP3 PUSH3 0x461BCD PUSH1 0xE5 SHL DUP5 MSTORE DUP4 ADD MSTORE PUSH1 0x24 DUP3 ADD MSTORE PUSH32 0x4F6E6C79206F776E6572732063616E2070726F6D6F746520746F206F776E6572 PUSH1 0x44 DUP3 ADD MSTORE REVERT JUMPDEST SWAP1 POP PUSH2 0x839 JUMPI DUP10 MLOAD PUSH3 0x461BCD PUSH1 0xE5 SHL DUP2 MSTORE DUP1 DUP8 ADD DUP7 SWAP1 MSTORE PUSH1 0x2B PUSH1 0x24 DUP3 ADD MSTORE PUSH32 0x4F6E6C792061646D696E6973747261746F72732063616E2070726F6D6F746520 PUSH1 0x44 DUP3 ADD MSTORE PUSH11 0x3334B939BA1037BBB732B9 PUSH1 0xA9 SHL PUSH1 0x64 DUP3 ADD MSTORE PUSH1 0x84 SWAP1 REVERT JUMPDEST PUSH2 0xA04 PUSH2 0x3BB3 JUMP JUMPDEST DUP1 MLOAD SWAP1 DUP10 ADD KECCAK256 DUP6 SUB PUSH2 0xA8E JUMPI POP DUP2 ISZERO PUSH2 0xA86 JUMPI JUMPDEST POP PUSH2 0x839 JUMPI DUP10 MLOAD PUSH3 0x461BCD PUSH1 0xE5 SHL DUP2 MSTORE DUP1 DUP8 ADD DUP7 SWAP1 MSTORE PUSH1 0x3B PUSH1 0x24 DUP3 ADD MSTORE PUSH32 0x4F6E6C79206F776E65727320616E642061646D696E6973747261746F72732063 PUSH1 0x44 DUP3 ADD MSTORE PUSH32 0x616E2070726F6D6F746520746F2061646D696E6973747261746F720000000000 PUSH1 0x64 DUP3 ADD MSTORE PUSH1 0x84 SWAP1 REVERT JUMPDEST SWAP1 POP PUSH0 PUSH2 0xA18 JUMP JUMPDEST PUSH2 0xA96 PUSH2 0x3BDC JUMP JUMPDEST DUP9 DUP2 MLOAD SWAP2 ADD KECCAK256 DUP6 EQ PUSH2 0xAAB JUMPI JUMPDEST POP POP POP PUSH2 0x839 JUMP JUMPDEST ISZERO PUSH2 0xB58 JUMPI DUP2 ISZERO PUSH2 0xB41 JUMPI JUMPDEST POP ISZERO PUSH2 0xAC6 JUMPI JUMPDEST PUSH0 DUP1 DUP1 PUSH2 0xAA3 JUMP JUMPDEST DUP10 MLOAD PUSH3 0x461BCD PUSH1 0xE5 SHL DUP2 MSTORE DUP1 DUP8 ADD DUP7 SWAP1 MSTORE PUSH1 0x49 PUSH1 0x24 DUP3 ADD MSTORE PUSH32 0x4F6E6C79206F776E6572732063616E2064656D6F7465206F74686572732E2041 PUSH1 0x44 DUP3 ADD MSTORE PUSH32 0x646D696E6973747261746F72732063616E206F6E6C792064656D6F7465207468 PUSH1 0x64 DUP3 ADD MSTORE PUSH9 0x32B6B9B2B63B32B997 PUSH1 0xB9 SHL PUSH1 0x84 DUP3 ADD MSTORE PUSH1 0xA4 SWAP1 REVERT JUMPDEST SWAP1 POP DUP1 PUSH2 0xB4F JUMPI JUMPDEST PUSH0 PUSH2 0xAB7 JUMP JUMPDEST POP DUP11 DUP13 EQ PUSH2 0xB49 JUMP JUMPDEST SWAP1 POP PUSH2 0xABE JUMPI DUP10 MLOAD PUSH3 0x461BCD PUSH1 0xE5 SHL DUP2 MSTORE DUP1 DUP8 ADD DUP7 SWAP1 MSTORE PUSH1 0x28 PUSH1 0x24 DUP3 ADD MSTORE PUSH32 0x4F6E6C792061646D696E6973747261746F72732063616E2064656D6F74652074 PUSH1 0x44 DUP3 ADD MSTORE PUSH8 0x37903B34B2BBB2B9 PUSH1 0xC1 SHL PUSH1 0x64 DUP3 ADD MSTORE PUSH1 0x84 SWAP1 REVERT JUMPDEST DUP8 MLOAD PUSH3 0x461BCD PUSH1 0xE5 SHL DUP2 MSTORE DUP1 DUP6 ADD DUP5 SWAP1 MSTORE PUSH1 0x43 PUSH1 0x24 DUP3 ADD MSTORE PUSH32 0x4F776E6572732063616E6E6F742062652064656D6F7465642E204F776E657220 PUSH1 0x44 DUP3 ADD MSTORE PUSH32 0x6D75737420766F6C756E746172696C792072656D6F7665207468656D73656C76 PUSH1 0x64 DUP3 ADD MSTORE PUSH3 0x32B997 PUSH1 0xE9 SHL PUSH1 0x84 DUP3 ADD MSTORE PUSH1 0xA4 SWAP1 REVERT JUMPDEST DUP8 MLOAD PUSH3 0x461BCD PUSH1 0xE5 SHL DUP2 MSTORE DUP1 DUP6 ADD DUP5 SWAP1 MSTORE PUSH1 0x1C PUSH1 0x24 DUP3 ADD MSTORE PUSH32 0x54617267657420616C726561647920686173207468697320726F6C6500000000 PUSH1 0x44 DUP3 ADD MSTORE PUSH1 0x64 SWAP1 REVERT JUMPDEST POP SWAP1 CALLVALUE PUSH2 0x326 JUMPI PUSH1 0x20 SWAP1 DUP2 PUSH1 0x3 NOT CALLDATASIZE ADD SLT PUSH2 0x326 JUMPI DUP3 SWAP1 CALLDATALOAD PUSH0 MSTORE PUSH1 0x3 DUP3 MSTORE DUP1 PUSH0 KECCAK256 DUP2 MLOAD SWAP3 DUP4 DUP2 DUP4 SLOAD SWAP2 DUP3 DUP2 MSTORE ADD SWAP1 DUP2 SWAP4 PUSH0 MSTORE DUP3 PUSH0 KECCAK256 SWAP1 PUSH0 JUMPDEST DUP2 DUP2 LT PUSH2 0xCFC JUMPI POP POP POP DUP5 PUSH2 0xCB8 SWAP2 SUB DUP6 PUSH2 0x3400 JUMP JUMPDEST DUP3 MLOAD DUP2 DUP2 MSTORE SWAP4 MLOAD DUP2 DUP6 ADD DUP2 SWAP1 MSTORE DUP5 SWAP4 DUP5 ADD SWAP3 SWAP2 PUSH0 JUMPDEST DUP3 DUP2 LT PUSH2 0xCDC JUMPI POP POP POP POP SUB SWAP1 RETURN JUMPDEST DUP4 MLOAD PUSH1 0x1 PUSH1 0x1 PUSH1 0xA0 SHL SUB AND DUP6 MSTORE DUP7 SWAP6 POP SWAP4 DUP2 ADD SWAP4 SWAP3 DUP2 ADD SWAP3 PUSH1 0x1 ADD PUSH2 0xCCD JUMP JUMPDEST DUP3 SLOAD PUSH1 0x1 PUSH1 0x1 PUSH1 0xA0 SHL SUB AND DUP5 MSTORE SWAP3 DUP5 ADD SWAP3 PUSH1 0x1 SWAP3 DUP4 ADD SWAP3 ADD PUSH2 0xCA2 JUMP JUMPDEST POP CALLVALUE PUSH2 0x326 JUMPI PUSH1 0x20 CALLDATASIZE PUSH1 0x3 NOT ADD SLT PUSH2 0x326 JUMPI PUSH1 0x20 SWAP2 CALLDATALOAD PUSH0 MSTORE PUSH1 0xD DUP3 MSTORE DUP1 PUSH0 KECCAK256 SLOAD SWAP1 MLOAD SWAP1 DUP2 MSTORE RETURN JUMPDEST POP CALLVALUE PUSH2 0x326 JUMPI PUSH1 0x20 CALLDATASIZE PUSH1 0x3 NOT ADD SLT PUSH2 0x326 JUMPI PUSH1 0x20 SWAP1 PUSH2 0x36C PUSH2 0xD60 PUSH2 0x33A0 JUMP JUMPDEST PUSH2 0x446E JUMP JUMPDEST POP CALLVALUE PUSH2 0x326 JUMPI PUSH1 0x20 SWAP1 PUSH2 0x36C PUSH2 0xD7A CALLDATASIZE PUSH2 0x3640 JUMP JUMPDEST SWAP2 PUSH2 0x3D1F JUMP JUMPDEST POP CALLVALUE PUSH2 0x326 JUMPI PUSH2 0xD8F CALLDATASIZE PUSH2 0x3697 JUMP JUMPDEST SWAP2 PUSH2 0xD9C PUSH2 0x717 CALLER PUSH2 0x3DCD JUMP JUMPDEST CALLER PUSH0 MSTORE PUSH1 0x20 SWAP1 PUSH1 0x1 DUP3 MSTORE DUP1 PUSH0 KECCAK256 SLOAD SWAP5 DUP4 DUP7 EQ DUP1 ISZERO PUSH2 0xEDB JUMPI JUMPDEST ISZERO PUSH2 0xE9B JUMPI DUP4 PUSH0 MSTORE PUSH1 0xE DUP4 MSTORE DUP2 PUSH0 KECCAK256 DUP6 PUSH0 MSTORE DUP4 MSTORE PUSH1 0xFF DUP3 PUSH0 KECCAK256 SLOAD AND DUP2 DUP2 LT ISZERO PUSH2 0xE88 JUMPI PUSH1 0x2 DUP2 EQ SWAP1 DUP2 ISZERO PUSH2 0xE7D JUMPI JUMPDEST POP ISZERO PUSH2 0xE32 JUMPI POP SWAP1 PUSH32 0x6DF3A6475FAB2EED139F7E469995B04E85BFC5B4B8642587109CB72541F74FAE SWAP2 DUP4 PUSH0 MSTORE PUSH1 0xE DUP3 MSTORE DUP1 PUSH0 KECCAK256 DUP6 PUSH0 MSTORE DUP3 MSTORE DUP1 PUSH0 KECCAK256 PUSH1 0x3 PUSH1 0xFF NOT DUP3 SLOAD AND OR SWAP1 SSTORE MLOAD TIMESTAMP DUP2 MSTORE LOG4 STOP JUMPDEST DUP3 PUSH1 0x84 SWAP3 MLOAD SWAP2 PUSH3 0x461BCD PUSH1 0xE5 SHL DUP4 MSTORE DUP3 ADD MSTORE PUSH1 0x21 PUSH1 0x24 DUP3 ADD MSTORE PUSH32 0x4E6F20616374697665206F722070656E64696E672072656C6174696F6E736869 PUSH1 0x44 DUP3 ADD MSTORE PUSH1 0x7 PUSH1 0xFC SHL PUSH1 0x64 DUP3 ADD MSTORE REVERT JUMPDEST PUSH1 0x1 SWAP2 POP EQ PUSH0 PUSH2 0xDE4 JUMP JUMPDEST PUSH1 0x21 DUP3 PUSH4 0x4E487B71 PUSH1 0xE0 SHL PUSH0 MSTORE MSTORE PUSH1 0x24 PUSH0 REVERT JUMPDEST DUP3 DUP1 PUSH1 0x64 SWAP4 MLOAD SWAP3 PUSH3 0x461BCD PUSH1 0xE5 SHL DUP5 MSTORE DUP4 ADD MSTORE PUSH1 0x24 DUP3 ADD MSTORE PUSH32 0x4E6F74206120706172747920746F20746869732072656C6174696F6E73686970 PUSH1 0x44 DUP3 ADD MSTORE REVERT JUMPDEST POP DUP5 DUP7 EQ PUSH2 0xDB5 JUMP JUMPDEST POP CALLVALUE PUSH2 0x326 JUMPI PUSH1 0x20 CALLDATASIZE PUSH1 0x3 NOT ADD SLT PUSH2 0x326 JUMPI PUSH32 0xCE59AD7D6DABE8A7533ED7D9BD07D276A046AC7AC9A8E8E8971DA4B81104A28B PUSH1 0x20 PUSH2 0xF21 PUSH2 0x33A0 JUMP JUMPDEST PUSH0 SLOAD PUSH1 0x1 PUSH1 0x1 PUSH1 0xA0 SHL SUB SWAP2 SWAP1 PUSH2 0xF3A SWAP1 DUP4 AND CALLER EQ PUSH2 0x3842 JUMP JUMPDEST AND SWAP3 PUSH2 0xF47 DUP5 ISZERO ISZERO PUSH2 0x3C1E JUMP JUMPDEST PUSH1 0xC DUP1 SLOAD PUSH1 0x1 PUSH1 0x1 PUSH1 0xA0 SHL SUB NOT AND DUP6 OR SWAP1 SSTORE MLOAD TIMESTAMP DUP2 MSTORE LOG2 STOP JUMPDEST POP CALLVALUE PUSH2 0x326 JUMPI PUSH2 0xFBD SWAP1 PUSH2 0xF73 CALLDATASIZE PUSH2 0x37EB JUMP JUMPDEST SWAP2 SWAP1 SWAP3 PUSH2 0xF82 PUSH2 0x717 CALLER PUSH2 0x3DCD JUMP JUMPDEST PUSH2 0xF8F DUP3 MLOAD DUP5 MLOAD EQ PUSH2 0x3CAD JUMP JUMPDEST CALLER PUSH0 SWAP1 DUP2 MSTORE PUSH1 0x1 PUSH1 0x20 MSTORE DUP2 DUP2 KECCAK256 SLOAD PUSH1 0x1 PUSH1 0x1 PUSH1 0xA0 SHL SUB SWAP1 SWAP6 AND DUP2 MSTORE KECCAK256 SLOAD SWAP1 PUSH2 0xFB8 DUP3 ISZERO ISZERO PUSH2 0x3AEE JUMP JUMPDEST PUSH2 0x41A5 JUMP JUMPDEST STOP JUMPDEST POP CALLVALUE PUSH2 0x326 JUMPI PUSH0 CALLDATASIZE PUSH1 0x3 NOT ADD SLT PUSH2 0x326 JUMPI PUSH1 0x20 SWAP1 PUSH1 0x5 SLOAD SWAP1 MLOAD SWAP1 DUP2 MSTORE RETURN JUMPDEST POP SWAP1 CALLVALUE PUSH2 0x326 JUMPI PUSH2 0xFED CALLDATASIZE PUSH2 0x3640 JUMP JUMPDEST SWAP2 SWAP3 SWAP1 PUSH2 0xFFC PUSH2 0x717 CALLER PUSH2 0x3DCD JUMP JUMPDEST PUSH2 0x1008 DUP5 MLOAD ISZERO ISZERO PUSH2 0x395D JUMP JUMPDEST PUSH1 0x1 PUSH1 0x1 PUSH1 0xA0 SHL SUB AND SWAP3 PUSH2 0x101D DUP5 ISZERO ISZERO PUSH2 0x3AA2 JUMP JUMPDEST PUSH2 0x1029 PUSH2 0x749 DUP5 PUSH2 0x3E8E JUMP JUMPDEST CALLER PUSH0 MSTORE PUSH1 0x20 SWAP2 PUSH1 0x1 DUP4 MSTORE DUP6 PUSH0 KECCAK256 SLOAD SWAP5 PUSH0 MSTORE DUP6 PUSH0 KECCAK256 SLOAD SWAP3 PUSH2 0x104A DUP5 ISZERO ISZERO PUSH2 0x3AEE JUMP JUMPDEST DUP5 MLOAD DUP2 DUP7 ADD KECCAK256 PUSH2 0x105A DUP8 DUP6 PUSH2 0x421A JUMP JUMPDEST PUSH0 MSTORE PUSH1 0x6 DUP3 MSTORE PUSH1 0xFF PUSH1 0x1 DUP10 PUSH0 KECCAK256 ADD SLOAD AND ISZERO PUSH2 0x13EA JUMPI DUP8 MLOAD DUP3 DUP2 DUP7 MLOAD PUSH2 0x1082 DUP2 DUP4 DUP6 DUP12 ADD PUSH2 0x35DA JUMP JUMPDEST DUP2 ADD PUSH1 0x7 DUP2 MSTORE SUB ADD SWAP1 KECCAK256 SLOAD ISZERO ISZERO SWAP1 PUSH2 0x10A2 PUSH2 0x109B PUSH2 0x3B92 JUMP JUMPDEST DUP10 DUP8 PUSH2 0x4255 JUMP JUMPDEST SWAP2 PUSH2 0x10B5 PUSH2 0x10AE PUSH2 0x3BB3 JUMP JUMPDEST DUP11 DUP9 PUSH2 0x4255 JUMP JUMPDEST SWAP2 PUSH2 0x10C0 DUP11 DUP9 PUSH2 0x437B JUMP JUMPDEST SWAP1 PUSH2 0x10C9 PUSH2 0x3B92 JUMP JUMPDEST DUP1 MLOAD SWAP1 DUP8 ADD KECCAK256 DUP2 SUB PUSH2 0x1207 JUMPI POP POP ISZERO PUSH2 0x11AD JUMPI POP ISZERO PUSH2 0x116B JUMPI JUMPDEST PUSH2 0x10ED DUP5 DUP5 PUSH2 0x421A JUMP JUMPDEST PUSH0 MSTORE PUSH1 0x6 DUP2 MSTORE PUSH1 0xFF PUSH1 0x1 DUP9 PUSH0 KECCAK256 ADD SLOAD AND PUSH2 0x110D JUMPI POP POP PUSH2 0xFBD SWAP5 POP PUSH2 0x3FED JUMP JUMPDEST DUP7 MLOAD PUSH3 0x461BCD PUSH1 0xE5 SHL DUP2 MSTORE SWAP2 DUP3 ADD MSTORE PUSH1 0x33 PUSH1 0x24 DUP3 ADD MSTORE PUSH32 0x54617267657420616C726561647920686173206120726F6C652E205573652063 PUSH1 0x44 DUP3 ADD MSTORE PUSH19 0x1A185B99D9549BDB194A0A481A5B9CDD195859 PUSH1 0x6A SHL PUSH1 0x64 DUP3 ADD MSTORE PUSH1 0x84 SWAP2 POP REVERT JUMPDEST DUP7 MLOAD PUSH3 0x461BCD PUSH1 0xE5 SHL DUP2 MSTORE SWAP2 DUP3 ADD DUP2 SWAP1 MSTORE PUSH1 0x24 DUP3 ADD MSTORE PUSH32 0x4F6E6C79206F776E6572732063616E206772616E74206F776E657220726F6C65 PUSH1 0x44 DUP3 ADD MSTORE PUSH1 0x64 SWAP2 POP REVERT JUMPDEST SWAP1 POP PUSH2 0x10E3 JUMPI DUP7 MLOAD PUSH3 0x461BCD PUSH1 0xE5 SHL DUP2 MSTORE SWAP2 DUP3 ADD MSTORE PUSH1 0x29 PUSH1 0x24 DUP3 ADD MSTORE PUSH32 0x4F6E6C792061646D696E6973747261746F72732063616E206772616E74206669 PUSH1 0x44 DUP3 ADD MSTORE PUSH9 0x3939BA1037BBB732B9 PUSH1 0xB9 SHL PUSH1 0x64 DUP3 ADD MSTORE PUSH1 0x84 SWAP2 POP REVERT JUMPDEST SWAP1 SWAP2 POP PUSH2 0x1212 PUSH2 0x3BB3 JUMP JUMPDEST DUP1 MLOAD SWAP1 DUP7 ADD KECCAK256 DUP2 SUB PUSH2 0x129C JUMPI POP POP DUP2 ISZERO PUSH2 0x1294 JUMPI JUMPDEST POP PUSH2 0x10E3 JUMPI DUP7 MLOAD PUSH3 0x461BCD PUSH1 0xE5 SHL DUP2 MSTORE SWAP2 DUP3 ADD MSTORE PUSH1 0x3B PUSH1 0x24 DUP3 ADD MSTORE PUSH32 0x4F6E6C79206F776E65727320616E642061646D696E6973747261746F72732063 PUSH1 0x44 DUP3 ADD MSTORE PUSH32 0x616E206772616E742061646D696E6973747261746F7220726F6C650000000000 PUSH1 0x64 DUP3 ADD MSTORE PUSH1 0x84 SWAP2 POP REVERT JUMPDEST SWAP1 POP PUSH0 PUSH2 0x1227 JUMP JUMPDEST PUSH2 0x12A7 SWAP4 SWAP2 SWAP4 PUSH2 0x3BDC JUMP JUMPDEST DUP6 DUP2 MLOAD SWAP2 ADD KECCAK256 EQ PUSH2 0x12BB JUMPI JUMPDEST POP POP POP PUSH2 0x10E3 JUMP JUMPDEST DUP1 ISZERO SWAP1 DUP2 PUSH2 0x13E3 JUMPI JUMPDEST DUP1 ISZERO PUSH2 0x13DC JUMPI JUMPDEST ISZERO PUSH2 0x1373 JUMPI DUP3 PUSH2 0x136B JUMPI JUMPDEST POP DUP2 PUSH2 0x1362 JUMPI JUMPDEST POP PUSH2 0x12EB JUMPI JUMPDEST PUSH0 DUP1 DUP1 PUSH2 0x12B3 JUMP JUMPDEST PUSH2 0x12F5 DUP7 DUP5 PUSH2 0x4417 JUMP JUMPDEST MLOAD PUSH2 0x12E3 JUMPI DUP7 MLOAD PUSH3 0x461BCD PUSH1 0xE5 SHL DUP2 MSTORE SWAP2 DUP3 ADD MSTORE PUSH1 0x3C PUSH1 0x24 DUP3 ADD MSTORE PUSH32 0x5375626A656374206D757374206861766520616E2061637469766520726F6C65 PUSH1 0x44 DUP3 ADD MSTORE PUSH32 0x20746F206772616E7420766965776572207065726D697373696F6E7300000000 PUSH1 0x64 DUP3 ADD MSTORE PUSH1 0x84 SWAP2 POP REVERT JUMPDEST SWAP1 POP ISZERO PUSH0 PUSH2 0x12DD JUMP JUMPDEST SWAP2 POP PUSH0 PUSH2 0x12D6 JUMP JUMPDEST DUP10 MLOAD PUSH3 0x461BCD PUSH1 0xE5 SHL DUP2 MSTORE DUP1 DUP7 ADD DUP6 SWAP1 MSTORE PUSH1 0x3E PUSH1 0x24 DUP3 ADD MSTORE PUSH32 0x4F6E6C79206F776E6572732C2061646D696E6973747261746F72732C206F7220 PUSH1 0x44 DUP3 ADD MSTORE PUSH32 0x7375626A656374732063616E206772616E742076696577657220726F6C650000 PUSH1 0x64 DUP3 ADD MSTORE PUSH1 0x84 SWAP1 REVERT JUMPDEST POP DUP3 PUSH2 0x12CB JUMP JUMPDEST POP DUP2 PUSH2 0x12C4 JUMP JUMPDEST PUSH1 0x64 DUP4 DUP4 DUP1 DUP12 MLOAD SWAP3 PUSH3 0x461BCD PUSH1 0xE5 SHL DUP5 MSTORE DUP4 ADD MSTORE PUSH1 0x24 DUP3 ADD MSTORE PUSH32 0x596F752068617665206E6F20726F6C6520666F722074686973207265636F7264 PUSH1 0x44 DUP3 ADD MSTORE REVERT JUMPDEST POP SWAP1 CALLVALUE PUSH2 0x326 JUMPI PUSH1 0x20 CALLDATASIZE PUSH1 0x3 NOT ADD SLT PUSH2 0x326 JUMPI PUSH2 0x1446 PUSH2 0x33A0 JUMP JUMPDEST PUSH0 SLOAD PUSH1 0x1 PUSH1 0x1 PUSH1 0xA0 SHL SUB SWAP2 SWAP1 PUSH2 0x145F SWAP1 DUP4 AND CALLER EQ PUSH2 0x3842 JUMP JUMPDEST AND DUP1 PUSH0 MSTORE PUSH1 0x1 SWAP2 DUP3 PUSH1 0x20 MSTORE PUSH2 0x1478 DUP5 PUSH0 KECCAK256 SLOAD ISZERO ISZERO PUSH2 0x387B JUMP JUMPDEST DUP2 PUSH0 MSTORE DUP3 PUSH1 0x20 MSTORE PUSH1 0xFF DUP4 DUP6 PUSH0 KECCAK256 ADD SLOAD AND PUSH2 0x14A7 JUMPI POP SWAP2 DUP2 SWAP3 PUSH0 MSTORE DUP2 PUSH1 0x20 MSTORE PUSH0 KECCAK256 ADD SWAP1 PUSH1 0xFF NOT DUP3 SLOAD AND OR SWAP1 SSTORE PUSH0 DUP1 RETURN JUMPDEST PUSH1 0x64 SWAP1 PUSH1 0x20 DUP6 MLOAD SWAP2 PUSH3 0x461BCD PUSH1 0xE5 SHL DUP4 MSTORE DUP3 ADD MSTORE PUSH1 0x15 PUSH1 0x24 DUP3 ADD MSTORE PUSH21 0x57616C6C657420616C726561647920616374697665 PUSH1 0x58 SHL PUSH1 0x44 DUP3 ADD MSTORE REVERT JUMPDEST POP CALLVALUE PUSH2 0x326 JUMPI PUSH1 0x20 SWAP1 DUP2 PUSH1 0x3 NOT CALLDATASIZE ADD SLT PUSH2 0x326 JUMPI DUP3 CALLDATALOAD SWAP2 PUSH2 0x1505 PUSH2 0x717 CALLER PUSH2 0x3DCD JUMP JUMPDEST CALLER PUSH0 MSTORE PUSH1 0x1 DUP2 MSTORE DUP2 PUSH0 KECCAK256 SLOAD SWAP4 DUP4 PUSH0 MSTORE PUSH1 0xE DUP3 MSTORE DUP3 PUSH0 KECCAK256 DUP6 PUSH0 MSTORE DUP3 MSTORE DUP3 PUSH0 KECCAK256 SWAP1 DUP2 SLOAD SWAP1 PUSH1 0xFF DUP3 AND DUP2 DUP2 LT ISZERO PUSH2 0xE88 JUMPI PUSH1 0x1 SUB PUSH2 0x1584 JUMPI POP SWAP2 PUSH2 0x157C PUSH1 0xFF SWAP3 PUSH1 0x2 PUSH32 0xC5B2E1BD4433EB4E9E181CC803520513D39D918C96BDDEEBCA1224E1C750963D SWAP7 SWAP6 DUP6 NOT AND OR DUP1 SWAP2 SSTORE DUP5 MLOAD SWAP4 DUP5 SWAP2 PUSH1 0x8 SHR AND PUSH2 0x3795 JUMP JUMPDEST TIMESTAMP SWAP1 DUP3 ADD MSTORE LOG3 STOP JUMPDEST DUP5 MLOAD PUSH3 0x461BCD PUSH1 0xE5 SHL DUP2 MSTORE SWAP1 DUP2 ADD DUP5 SWAP1 MSTORE PUSH1 0x13 PUSH1 0x24 DUP3 ADD MSTORE PUSH19 0x139BC81C195B991A5B99C81C1C9BDC1BDCD85B PUSH1 0x6A SHL PUSH1 0x44 DUP3 ADD MSTORE PUSH1 0x64 SWAP1 REVERT JUMPDEST POP CALLVALUE PUSH2 0x326 JUMPI PUSH1 0x20 SWAP1 PUSH2 0x15D2 PUSH2 0x60F CALLDATASIZE PUSH2 0x3743 JUMP JUMPDEST DUP2 ADD PUSH1 0x9 DUP2 MSTORE SUB ADD SWAP1 KECCAK256 DUP1 SLOAD DUP4 LT ISZERO PUSH2 0x326 JUMPI PUSH1 0x20 SWAP3 PUSH2 0x642 SWAP2 PUSH2 0x37C2 JUMP JUMPDEST POP CALLVALUE PUSH2 0x326 JUMPI PUSH0 CALLDATASIZE PUSH1 0x3 NOT ADD SLT PUSH2 0x326 JUMPI DUP1 MLOAD PUSH2 0x310 SWAP2 PUSH2 0x1611 DUP3 PUSH2 0x33B6 JUMP JUMPDEST PUSH1 0x5 DUP3 MSTORE PUSH5 0x352E302E3 PUSH1 0xDC SHL PUSH1 0x20 DUP4 ADD MSTORE MLOAD SWAP2 DUP3 SWAP2 PUSH1 0x20 DUP4 MSTORE PUSH1 0x20 DUP4 ADD SWAP1 PUSH2 0x35FB JUMP JUMPDEST POP CALLVALUE PUSH2 0x326 JUMPI PUSH2 0x1644 CALLDATASIZE PUSH2 0x37EB JUMP JUMPDEST PUSH2 0x1650 PUSH2 0x717 CALLER PUSH2 0x3DCD JUMP JUMPDEST PUSH2 0x165D DUP4 MLOAD DUP3 MLOAD EQ PUSH2 0x3CAD JUMP JUMPDEST CALLER PUSH0 MSTORE PUSH1 0x1 SWAP4 DUP5 SWAP4 PUSH1 0x20 SWAP1 PUSH1 0x1 PUSH1 0x20 MSTORE DUP3 PUSH0 KECCAK256 SLOAD SWAP5 PUSH1 0x1 DUP1 PUSH1 0xA0 SHL SUB AND PUSH0 MSTORE DUP3 PUSH0 KECCAK256 SLOAD SWAP4 PUSH2 0x168C DUP6 ISZERO ISZERO PUSH2 0x3AEE JUMP JUMPDEST PUSH0 SWAP7 JUMPDEST PUSH2 0x1695 JUMPI STOP JUMPDEST DUP2 MLOAD DUP8 LT ISZERO PUSH2 0xFBD JUMPI DUP8 DUP8 PUSH2 0x16B4 PUSH2 0x16AE DUP4 SWAP11 DUP6 PUSH2 0x3A8E JUMP JUMPDEST MLOAD PUSH2 0x3E8E JUMP JUMPDEST ISZERO PUSH2 0x178A JUMPI PUSH2 0x16CD DUP9 PUSH2 0x16C7 DUP4 DUP8 PUSH2 0x3A8E JUMP JUMPDEST MLOAD PUSH2 0x3DC3 JUMP JUMPDEST ISZERO PUSH2 0x178A JUMPI PUSH2 0x16E0 DUP8 PUSH2 0x16C7 DUP4 DUP8 PUSH2 0x3A8E JUMP JUMPDEST ISZERO PUSH2 0x178A JUMPI PUSH2 0x16F9 DUP8 PUSH2 0x16F3 DUP4 DUP8 PUSH2 0x3A8E JUMP JUMPDEST MLOAD PUSH2 0x421A JUMP JUMPDEST PUSH0 MSTORE PUSH1 0x6 DUP6 MSTORE DUP8 DUP8 PUSH2 0x170C DUP9 PUSH0 KECCAK256 PUSH2 0x3538 JUMP JUMPDEST PUSH2 0x172D DUP4 PUSH2 0x171A DUP7 DUP11 PUSH2 0x3A8E JUMP JUMPDEST MLOAD DUP5 PUSH2 0x1726 DUP9 DUP12 PUSH2 0x3A8E JUMP JUMPDEST MLOAD SWAP2 PUSH2 0x3FED JUMP JUMPDEST PUSH32 0xEA2C9EBE68919DDF880B3221D8D508D908163D0973E8B79DF108F5D110D0C633 PUSH2 0x1758 DUP6 DUP10 PUSH2 0x3A8E JUMP JUMPDEST MLOAD SWAP2 PUSH2 0x176E PUSH2 0x1767 DUP8 DUP11 PUSH2 0x3A8E JUMP JUMPDEST MLOAD SWAP4 PUSH2 0x3BFE JUMP JUMPDEST SWAP3 PUSH2 0x177F DUP13 MLOAD SWAP3 DUP4 SWAP3 TIMESTAMP SWAP2 DUP5 PUSH2 0x3CF1 JUMP JUMPDEST SUB SWAP1 LOG4 JUMPDEST ADD SWAP7 PUSH2 0x168F JUMP JUMPDEST PUSH2 0x1783 JUMP JUMPDEST POP CALLVALUE PUSH2 0x326 JUMPI PUSH1 0x20 SWAP1 PUSH2 0x36C PUSH2 0x17A4 CALLDATASIZE PUSH2 0x3484 JUMP JUMPDEST SWAP1 PUSH2 0x3C5C JUMP JUMPDEST POP CALLVALUE PUSH2 0x326 JUMPI PUSH1 0x20 CALLDATASIZE PUSH1 0x3 NOT ADD SLT PUSH2 0x326 JUMPI DUP2 CALLDATALOAD DUP3 SLOAD DUP2 LT ISZERO PUSH2 0x326 JUMPI PUSH1 0x20 SWAP3 PUSH0 MSTORE PUSH32 0x8A35ACFBC15FF81A39AE7D344FD709F28E8600B4AA8C65C6B64BFE7FE36BD19B ADD SLOAD SWAP1 MLOAD SWAP1 DUP2 MSTORE RETURN JUMPDEST POP CALLVALUE PUSH2 0x326 JUMPI PUSH2 0x1805 CALLDATASIZE PUSH2 0x3697 JUMP JUMPDEST SWAP1 PUSH0 MSTORE PUSH1 0xE PUSH1 0x20 MSTORE DUP2 PUSH0 KECCAK256 SWAP1 PUSH0 MSTORE PUSH1 0x20 MSTORE DUP1 PUSH0 KECCAK256 SWAP1 DUP1 MLOAD SWAP2 PUSH2 0x1826 DUP4 PUSH2 0x33B6 JUMP JUMPDEST SLOAD SWAP2 PUSH2 0x1835 PUSH1 0xFF DUP5 AND DUP3 PUSH2 0x3945 JUMP JUMPDEST PUSH2 0x1849 PUSH1 0xFF PUSH1 0x20 DUP4 ADD SWAP5 PUSH1 0x8 SHR AND DUP5 PUSH2 0x3951 JUMP JUMPDEST MLOAD SWAP2 DUP4 DUP4 LT ISZERO PUSH2 0x1880 JUMPI MLOAD SWAP3 PUSH1 0x3 DUP5 LT ISZERO PUSH2 0x186D JUMPI POP PUSH2 0x310 SWAP1 MLOAD SWAP3 DUP4 SWAP3 DUP4 PUSH2 0x37A2 JUMP JUMPDEST PUSH1 0x21 SWAP1 PUSH4 0x4E487B71 PUSH1 0xE0 SHL PUSH0 MSTORE MSTORE PUSH1 0x24 PUSH0 REVERT JUMPDEST PUSH1 0x21 DUP5 PUSH4 0x4E487B71 PUSH1 0xE0 SHL PUSH0 MSTORE MSTORE PUSH1 0x24 PUSH0 REVERT JUMPDEST POP CALLVALUE PUSH2 0x326 JUMPI PUSH1 0x20 SWAP1 PUSH2 0x18A8 PUSH2 0x60F CALLDATASIZE PUSH2 0x3743 JUMP JUMPDEST DUP2 ADD PUSH1 0x7 DUP2 MSTORE SUB ADD SWAP1 KECCAK256 DUP1 SLOAD DUP4 LT ISZERO PUSH2 0x326 JUMPI PUSH1 0x20 SWAP3 PUSH2 0x642 SWAP2 PUSH2 0x37C2 JUMP JUMPDEST POP CALLVALUE PUSH2 0x326 JUMPI DUP1 PUSH1 0x3 NOT CALLDATASIZE ADD SLT PUSH2 0x326 JUMPI DUP2 CALLDATALOAD SWAP1 PUSH1 0x24 CALLDATALOAD PUSH1 0x5 DUP2 LT ISZERO PUSH2 0x326 JUMPI PUSH2 0x18FB PUSH1 0x1 DUP1 PUSH1 0xA0 SHL SUB PUSH0 SLOAD AND CALLER EQ PUSH2 0x3842 JUMP JUMPDEST DUP3 PUSH0 MSTORE PUSH1 0x20 PUSH1 0x2 DUP2 MSTORE PUSH1 0xFF DUP4 PUSH0 KECCAK256 SLOAD AND PUSH1 0x5 DUP2 LT ISZERO PUSH2 0x1A05 JUMPI ISZERO PUSH2 0x19CD JUMPI DUP4 PUSH0 MSTORE PUSH1 0x2 DUP2 MSTORE PUSH1 0xFF DUP4 PUSH0 KECCAK256 SLOAD AND SWAP5 PUSH1 0x5 DUP7 LT ISZERO PUSH2 0x186D JUMPI DUP3 DUP7 EQ PUSH2 0x1996 JUMPI POP SWAP1 PUSH2 0x1969 SWAP2 DUP5 PUSH0 MSTORE PUSH1 0x2 DUP2 MSTORE DUP4 PUSH0 KECCAK256 PUSH1 0xFF NOT DUP2 SLOAD AND PUSH1 0xFF DUP5 AND OR SWAP1 SSTORE PUSH2 0x1961 DUP5 MLOAD DUP1 SWAP8 PUSH2 0x3774 JUMP JUMPDEST DUP6 ADD SWAP1 PUSH2 0x3774 JUMP JUMPDEST TIMESTAMP SWAP1 DUP4 ADD MSTORE PUSH32 0xF6277C6EE46649823DB9A5C531DB3112B4340C67179CAE1932BA3420DCC37CC7 PUSH1 0x60 CALLER SWAP4 LOG3 STOP JUMPDEST PUSH1 0x64 SWAP2 DUP5 MLOAD SWAP2 PUSH3 0x461BCD PUSH1 0xE5 SHL DUP4 MSTORE DUP3 ADD MSTORE PUSH1 0x13 PUSH1 0x24 DUP3 ADD MSTORE PUSH19 0x416C7265616479207468697320737461747573 PUSH1 0x68 SHL PUSH1 0x44 DUP3 ADD MSTORE REVERT JUMPDEST DUP5 PUSH1 0x64 SWAP2 DUP5 MLOAD SWAP2 PUSH3 0x461BCD PUSH1 0xE5 SHL DUP4 MSTORE DUP3 ADD MSTORE PUSH1 0x13 PUSH1 0x24 DUP3 ADD MSTORE PUSH19 0x155CD95C881B9BDD081C9959DA5CDD195C9959 PUSH1 0x6A SHL PUSH1 0x44 DUP3 ADD MSTORE REVERT JUMPDEST PUSH1 0x21 DUP7 PUSH4 0x4E487B71 PUSH1 0xE0 SHL PUSH0 MSTORE MSTORE PUSH1 0x24 PUSH0 REVERT JUMPDEST POP CALLVALUE PUSH2 0x326 JUMPI PUSH2 0x1A27 CALLDATASIZE PUSH2 0x3697 JUMP JUMPDEST SWAP2 SWAP1 PUSH0 MSTORE PUSH1 0x3 PUSH1 0x20 MSTORE DUP1 PUSH0 KECCAK256 DUP1 SLOAD DUP4 LT ISZERO PUSH2 0x326 JUMPI PUSH1 0x20 SWAP3 PUSH2 0x1A48 SWAP2 PUSH2 0x37C2 JUMP JUMPDEST PUSH1 0x1 DUP1 PUSH1 0xA0 SHL SUB SWAP2 SLOAD SWAP1 PUSH1 0x3 SHL SHR AND SWAP1 MLOAD SWAP1 DUP2 MSTORE RETURN JUMPDEST POP CALLVALUE PUSH2 0x326 JUMPI PUSH1 0x20 CALLDATASIZE PUSH1 0x3 NOT ADD SLT PUSH2 0x326 JUMPI PUSH1 0x1 PUSH1 0x1 PUSH1 0xA0 SHL SUB PUSH2 0x1A80 PUSH2 0x33A0 JUMP JUMPDEST AND PUSH0 MSTORE PUSH1 0x1 PUSH1 0x20 MSTORE DUP1 PUSH0 KECCAK256 PUSH1 0xFF PUSH1 0x1 DUP3 SLOAD SWAP3 ADD SLOAD AND DUP3 MLOAD SWAP2 DUP3 MSTORE ISZERO ISZERO PUSH1 0x20 DUP3 ADD MSTORE RETURN JUMPDEST POP SWAP1 CALLVALUE PUSH2 0x326 JUMPI PUSH0 CALLDATASIZE PUSH1 0x3 NOT ADD SLT PUSH2 0x326 JUMPI PUSH32 0xF0C57E16840DF040F15088DC2F81FE391C3923BEC73E23A9662EFC9C229C6A00 SWAP1 DUP2 SLOAD PUSH1 0xFF DUP2 DUP6 SHR AND ISZERO SWAP2 PUSH1 0x1 PUSH1 0x1 PUSH1 0x40 SHL SUB DUP3 AND DUP1 ISZERO SWAP1 DUP2 PUSH2 0x1BB8 JUMPI JUMPDEST PUSH1 0x1 EQ SWAP1 DUP2 PUSH2 0x1BAE JUMPI JUMPDEST ISZERO SWAP1 DUP2 PUSH2 0x1BA5 JUMPI JUMPDEST POP PUSH2 0x1B97 JUMPI POP PUSH8 0xFFFFFFFFFFFFFFFF NOT DUP2 AND PUSH1 0x1 OR DUP4 SSTORE DUP2 PUSH2 0x1B78 JUMPI JUMPDEST POP PUSH0 DUP1 SLOAD PUSH1 0x1 PUSH1 0x1 PUSH1 0xA0 SHL SUB NOT AND CALLER OR SWAP1 SSTORE PUSH2 0x1B3B JUMPI STOP JUMPDEST DUP1 SLOAD PUSH9 0xFF0000000000000000 NOT AND SWAP1 SSTORE MLOAD PUSH1 0x1 DUP2 MSTORE PUSH32 0xC7F505B2F371AE2175EE4913F4499E1F2633A7B5936321EED1CDAEB6115181D2 SWAP1 PUSH1 0x20 SWAP1 LOG1 STOP JUMPDEST PUSH9 0xFFFFFFFFFFFFFFFFFF NOT AND PUSH9 0x10000000000000001 OR DUP3 SSTORE PUSH0 PUSH2 0x1B23 JUMP JUMPDEST DUP5 MLOAD PUSH4 0xF92EE8A9 PUSH1 0xE0 SHL DUP2 MSTORE REVERT JUMPDEST SWAP1 POP ISZERO PUSH0 PUSH2 0x1B06 JUMP JUMPDEST ADDRESS EXTCODESIZE ISZERO SWAP2 POP PUSH2 0x1AFE JUMP JUMPDEST DUP5 SWAP2 POP PUSH2 0x1AF4 JUMP JUMPDEST POP CALLVALUE PUSH2 0x326 JUMPI PUSH2 0x310 SWAP1 PUSH2 0x1BD3 CALLDATASIZE PUSH2 0x3697 JUMP JUMPDEST SWAP1 PUSH0 MSTORE PUSH1 0xE PUSH1 0x20 MSTORE DUP2 PUSH0 KECCAK256 SWAP1 PUSH0 MSTORE PUSH1 0x20 MSTORE DUP1 PUSH0 KECCAK256 SLOAD SWAP1 MLOAD SWAP2 DUP2 PUSH1 0xFF DUP1 DUP6 SWAP5 PUSH1 0x8 SHR AND SWAP2 AND DUP4 PUSH2 0x37A2 JUMP JUMPDEST POP CALLVALUE PUSH2 0x326 JUMPI PUSH0 CALLDATASIZE PUSH1 0x3 NOT ADD SLT PUSH2 0x326 JUMPI PUSH1 0x20 SWAP1 PUSH1 0xB SLOAD SWAP1 MLOAD SWAP1 DUP2 MSTORE RETURN JUMPDEST POP CALLVALUE PUSH2 0x326 JUMPI PUSH1 0x20 CALLDATASIZE PUSH1 0x3 NOT ADD SLT PUSH2 0x326 JUMPI PUSH1 0x20 SWAP1 PUSH2 0x1C38 PUSH2 0x33A0 JUMP JUMPDEST PUSH0 SLOAD SWAP2 SWAP1 PUSH1 0x1 PUSH1 0x1 PUSH1 0xA0 SHL SUB DUP1 DUP5 AND SWAP2 PUSH32 0x38DF5FA0F7FEF0D515CA1F5388CB5790AC5885D5FCA8D05D9F943E563C33A4B3 SWAP2 SWAP1 PUSH2 0x1C76 CALLER DUP6 EQ PUSH2 0x3842 JUMP JUMPDEST AND SWAP5 DUP6 SWAP4 PUSH2 0x1C85 DUP6 ISZERO ISZERO PUSH2 0x3C1E JUMP JUMPDEST MLOAD TIMESTAMP DUP2 MSTORE LOG3 PUSH1 0x1 PUSH1 0x1 PUSH1 0xA0 SHL SUB NOT AND OR PUSH0 SSTORE STOP JUMPDEST POP SWAP1 CALLVALUE PUSH2 0x326 JUMPI DUP2 PUSH1 0x3 NOT CALLDATASIZE ADD SLT PUSH2 0x326 JUMPI DUP1 CALLDATALOAD PUSH1 0x1 PUSH1 0x1 PUSH1 0x40 SHL SUB DUP2 GT PUSH2 0x326 JUMPI PUSH2 0x1CC8 SWAP1 CALLDATASIZE SWAP1 DUP4 ADD PUSH2 0x36C4 JUMP JUMPDEST SWAP1 PUSH1 0x24 CALLDATALOAD PUSH1 0x1 PUSH1 0x1 PUSH1 0xA0 SHL SUB DUP2 AND SWAP2 SWAP1 DUP3 SWAP1 SUB PUSH2 0x326 JUMPI PUSH2 0x1CEB PUSH2 0x717 CALLER PUSH2 0x3DCD JUMP JUMPDEST DUP2 ISZERO PUSH2 0x1E27 JUMPI POP CALLER PUSH0 MSTORE PUSH1 0x1 SWAP3 DUP4 SWAP3 PUSH1 0x20 SWAP1 PUSH1 0x1 DUP3 MSTORE DUP3 PUSH0 KECCAK256 SLOAD SWAP4 PUSH0 MSTORE DUP3 PUSH0 KECCAK256 SLOAD SWAP3 PUSH2 0x1D18 DUP5 ISZERO ISZERO PUSH2 0x3AEE JUMP JUMPDEST PUSH0 SWAP6 JUMPDEST PUSH2 0x1D21 JUMPI STOP JUMPDEST DUP2 MLOAD DUP7 LT ISZERO PUSH2 0xFBD JUMPI DUP7 DUP7 PUSH2 0x1D3B DUP7 PUSH2 0x16C7 DUP5 SWAP11 DUP8 PUSH2 0x3A8E JUMP JUMPDEST ISZERO PUSH2 0x1E22 JUMPI PUSH2 0x1D4E DUP8 PUSH2 0x16C7 DUP4 DUP8 PUSH2 0x3A8E JUMP JUMPDEST ISZERO PUSH2 0x1E22 JUMPI DUP7 DUP7 PUSH2 0x1D63 DUP2 PUSH2 0x16F3 DUP6 DUP10 PUSH2 0x3A8E JUMP JUMPDEST DUP1 PUSH0 MSTORE PUSH1 0x6 DUP1 DUP10 MSTORE PUSH2 0x1D76 DUP8 PUSH0 KECCAK256 PUSH2 0x3538 JUMP JUMPDEST SWAP2 DUP3 MLOAD DUP11 DUP5 ADD KECCAK256 PUSH2 0x1D85 PUSH2 0x3B92 JUMP JUMPDEST DUP12 DUP2 MLOAD SWAP2 ADD KECCAK256 EQ PUSH2 0x1E18 JUMPI PUSH2 0x1DA5 DUP4 DUP6 PUSH2 0x1D9F DUP10 DUP14 PUSH2 0x3A8E JUMP JUMPDEST MLOAD PUSH2 0x42B3 JUMP JUMPDEST PUSH0 MSTORE DUP9 MSTORE DUP5 DUP7 PUSH0 KECCAK256 ADD PUSH1 0xFF NOT DUP2 SLOAD AND SWAP1 SSTORE PUSH1 0xD DUP9 MSTORE PUSH0 DUP7 DUP2 KECCAK256 SSTORE PUSH32 0x938E21A28464DB5F9B9E24D1A58E038899DE364F69DBA20C154EE6FD4CD86DEF PUSH2 0x1E08 PUSH2 0x1DF6 PUSH2 0x1DF0 DUP8 DUP12 PUSH2 0x3A8E JUMP JUMPDEST MLOAD PUSH2 0x3BFE JUMP JUMPDEST SWAP3 DUP9 MLOAD SWAP2 DUP3 SWAP2 DUP11 DUP4 MSTORE DUP11 DUP4 ADD SWAP1 PUSH2 0x35FB JUMP JUMPDEST TIMESTAMP DUP13 DUP4 ADD MSTORE SUB SWAP1 LOG4 JUMPDEST ADD SWAP6 PUSH2 0x1D1B JUMP JUMPDEST POP POP POP POP POP PUSH2 0x1E11 JUMP JUMPDEST PUSH2 0x1E11 JUMP JUMPDEST PUSH1 0x64 SWAP1 PUSH1 0x20 DUP6 MLOAD SWAP2 PUSH3 0x461BCD PUSH1 0xE5 SHL DUP4 MSTORE DUP3 ADD MSTORE PUSH1 0xE PUSH1 0x24 DUP3 ADD MSTORE PUSH14 0x125B9D985B1A59081DD85B1B195D PUSH1 0x92 SHL PUSH1 0x44 DUP3 ADD MSTORE REVERT JUMPDEST POP CALLVALUE PUSH2 0x326 JUMPI PUSH2 0x1E6A CALLDATASIZE PUSH2 0x3484 JUMP JUMPDEST PUSH2 0x1E78 DUP3 SWAP4 SWAP3 MLOAD ISZERO ISZERO PUSH2 0x395D JUMP JUMPDEST PUSH1 0x1 PUSH1 0x1 PUSH1 0xA0 SHL SUB AND SWAP3 PUSH2 0x1E8D DUP5 ISZERO ISZERO PUSH2 0x3AA2 JUMP JUMPDEST CALLER PUSH0 MSTORE PUSH1 0x20 SWAP2 PUSH1 0x1 DUP4 MSTORE DUP1 PUSH0 KECCAK256 SLOAD SWAP5 PUSH0 MSTORE DUP1 PUSH0 KECCAK256 SLOAD SWAP4 PUSH2 0x1EAE DUP6 ISZERO ISZERO PUSH2 0x3AEE JUMP JUMPDEST PUSH2 0x1EB8 DUP6 DUP3 PUSH2 0x421A JUMP JUMPDEST DUP1 PUSH0 MSTORE PUSH1 0x6 DUP6 MSTORE PUSH2 0x1ED1 PUSH1 0xFF PUSH1 0x1 DUP6 PUSH0 KECCAK256 ADD SLOAD AND PUSH2 0x3B3A JUMP JUMPDEST DUP1 PUSH0 MSTORE PUSH1 0x6 DUP6 MSTORE PUSH2 0x1EE3 DUP4 PUSH0 KECCAK256 PUSH2 0x3538 JUMP JUMPDEST SWAP4 DUP5 MLOAD DUP7 DUP7 ADD KECCAK256 PUSH2 0x1EF2 PUSH2 0x3B92 JUMP JUMPDEST DUP8 DUP2 MLOAD SWAP2 ADD KECCAK256 DUP2 EQ PUSH2 0x222D JUMPI DUP8 DUP10 SUB PUSH2 0x2052 JUMPI JUMPDEST PUSH2 0x1F0E PUSH2 0x3BB3 JUMP JUMPDEST DUP8 DUP2 MLOAD SWAP2 ADD KECCAK256 EQ PUSH2 0x1F8F JUMPI JUMPDEST POP DUP2 PUSH2 0x1F70 SWAP2 PUSH2 0x1F4E DUP7 DUP10 PUSH32 0x938E21A28464DB5F9B9E24D1A58E038899DE364F69DBA20C154EE6FD4CD86DEF SWAP9 SWAP8 SWAP7 PUSH2 0x42B3 JUMP JUMPDEST PUSH0 MSTORE PUSH1 0x6 DUP7 MSTORE PUSH1 0x1 DUP4 PUSH0 KECCAK256 ADD PUSH1 0xFF NOT DUP2 SLOAD AND SWAP1 SSTORE PUSH1 0xD DUP7 MSTORE PUSH0 DUP4 DUP2 KECCAK256 SSTORE PUSH2 0x3BFE JUMP JUMPDEST SWAP4 PUSH2 0x1F84 DUP3 MLOAD SWAP4 DUP4 DUP6 SWAP5 DUP6 MSTORE DUP5 ADD SWAP1 PUSH2 0x35FB JUMP JUMPDEST SWAP1 TIMESTAMP SWAP1 DUP4 ADD MSTORE SUB SWAP1 LOG4 STOP JUMPDEST DUP4 MLOAD PUSH2 0x1FC8 DUP8 PUSH1 0x1 DUP7 MLOAD SWAP4 DUP3 DUP2 DUP2 DUP11 ADD SWAP7 PUSH2 0x1FAB DUP2 DUP4 DUP11 PUSH2 0x35DA JUMP JUMPDEST DUP2 ADD PUSH1 0x8 DUP2 MSTORE SUB ADD SWAP1 KECCAK256 SLOAD GT SWAP3 DUP8 MLOAD DUP1 SWAP4 DUP2 SWAP3 DUP10 MLOAD SWAP3 DUP4 SWAP2 PUSH2 0x35DA JUMP JUMPDEST DUP2 ADD PUSH1 0x7 DUP2 MSTORE SUB ADD SWAP1 KECCAK256 SLOAD ISZERO ISZERO DUP2 ISZERO PUSH2 0x204A JUMPI JUMPDEST POP PUSH2 0x1F1A JUMPI DUP4 MLOAD PUSH3 0x461BCD PUSH1 0xE5 SHL DUP2 MSTORE SWAP1 DUP2 ADD DUP7 SWAP1 MSTORE PUSH1 0x39 PUSH1 0x24 DUP3 ADD MSTORE PUSH32 0x43616E6E6F74207265766F6B65206C6173742061646D696E6973747261746F72 PUSH1 0x44 DUP3 ADD MSTORE PUSH32 0x20776974686F757420616E206F776E65722070726573656E7400000000000000 PUSH1 0x64 DUP3 ADD MSTORE PUSH1 0x84 SWAP1 REVERT JUMPDEST SWAP1 POP PUSH0 PUSH2 0x1FDC JUMP JUMPDEST PUSH2 0x2064 PUSH2 0x205D PUSH2 0x3B92 JUMP JUMPDEST DUP11 DUP7 PUSH2 0x4255 JUMP JUMPDEST PUSH2 0x2076 PUSH2 0x206F PUSH2 0x3BB3 JUMP JUMPDEST DUP12 DUP8 PUSH2 0x4255 JUMP JUMPDEST DUP5 PUSH0 MSTORE PUSH1 0xD DUP10 MSTORE DUP11 DUP8 PUSH0 KECCAK256 SLOAD EQ SWAP1 PUSH2 0x208C PUSH2 0x3BDC JUMP JUMPDEST DUP1 MLOAD SWAP1 DUP12 ADD KECCAK256 DUP5 SUB PUSH2 0x212C JUMPI DUP3 ISZERO PUSH2 0x2124 JUMPI JUMPDEST POP DUP2 ISZERO PUSH2 0x211C JUMPI JUMPDEST POP ISZERO PUSH2 0x20B3 JUMPI JUMPDEST PUSH2 0x1F06 JUMP JUMPDEST DUP5 MLOAD PUSH3 0x461BCD PUSH1 0xE5 SHL DUP2 MSTORE DUP1 DUP4 ADD DUP9 SWAP1 MSTORE PUSH1 0x3E PUSH1 0x24 DUP3 ADD MSTORE PUSH32 0x4F6E6C79206F776E6572732C2061646D696E6973747261746F72732C206F7220 PUSH1 0x44 DUP3 ADD MSTORE PUSH32 0x746865206772616E7465722063616E207265766F6B6520766965776572730000 PUSH1 0x64 DUP3 ADD MSTORE PUSH1 0x84 SWAP1 REVERT JUMPDEST SWAP1 POP PUSH0 PUSH2 0x20A7 JUMP JUMPDEST SWAP2 POP PUSH0 PUSH2 0x209F JUMP JUMPDEST DUP3 ISZERO SWAP3 SWAP2 POP DUP3 PUSH2 0x2225 JUMPI JUMPDEST POP ISZERO PUSH2 0x21CA JUMPI ISZERO PUSH2 0x1F06 JUMPI PUSH2 0x214A PUSH2 0x3BB3 JUMP JUMPDEST DUP8 DUP2 MLOAD SWAP2 ADD KECCAK256 DUP2 SUB PUSH2 0x20AE JUMPI DUP5 MLOAD DUP8 DUP2 DUP7 MLOAD PUSH2 0x2169 DUP2 DUP4 DUP6 DUP12 ADD PUSH2 0x35DA JUMP JUMPDEST DUP2 ADD PUSH1 0x7 DUP2 MSTORE SUB ADD SWAP1 KECCAK256 SLOAD ISZERO PUSH2 0x20AE JUMPI DUP5 MLOAD PUSH3 0x461BCD PUSH1 0xE5 SHL DUP2 MSTORE DUP1 DUP4 ADD DUP9 SWAP1 MSTORE PUSH1 0x25 PUSH1 0x24 DUP3 ADD MSTORE PUSH32 0x4F6E6C79206F776E6572732063616E207265766F6B652061646D696E69737472 PUSH1 0x44 DUP3 ADD MSTORE PUSH5 0x61746F7273 PUSH1 0xD8 SHL PUSH1 0x64 DUP3 ADD MSTORE PUSH1 0x84 SWAP1 REVERT JUMPDEST DUP6 MLOAD PUSH3 0x461BCD PUSH1 0xE5 SHL DUP2 MSTORE DUP1 DUP5 ADD DUP10 SWAP1 MSTORE PUSH1 0x2F PUSH1 0x24 DUP3 ADD MSTORE PUSH32 0x4F6E6C79206F776E65727320616E642061646D696E6973747261746F72732063 PUSH1 0x44 DUP3 ADD MSTORE PUSH15 0x616E207265766F6B6520726F6C6573 PUSH1 0x88 SHL PUSH1 0x64 DUP3 ADD MSTORE PUSH1 0x84 SWAP1 REVERT JUMPDEST SWAP1 POP PUSH0 PUSH2 0x2137 JUMP JUMPDEST DUP5 MLOAD PUSH3 0x461BCD PUSH1 0xE5 SHL DUP2 MSTORE DUP1 DUP4 ADD DUP9 SWAP1 MSTORE PUSH1 0x45 PUSH1 0x24 DUP3 ADD MSTORE PUSH32 0x4F776E6572732063616E6E6F74206265207265766F6B65642E204F776E657220 PUSH1 0x44 DUP3 ADD MSTORE PUSH32 0x6D7573742075736520766F6C756E746172696C794C656176654F776E65727368 PUSH1 0x64 DUP3 ADD MSTORE PUSH5 0x34B8141497 PUSH1 0xD9 SHL PUSH1 0x84 DUP3 ADD MSTORE PUSH1 0xA4 SWAP1 REVERT JUMPDEST POP CALLVALUE PUSH2 0x326 JUMPI PUSH1 0x20 SWAP1 PUSH2 0x22B9 PUSH2 0x3BB CALLDATASIZE PUSH2 0x3743 JUMP JUMPDEST PUSH0 MSTORE PUSH1 0xD DUP3 MSTORE DUP1 PUSH0 KECCAK256 SLOAD SWAP1 MLOAD SWAP1 DUP2 MSTORE RETURN JUMPDEST POP CALLVALUE PUSH2 0x326 JUMPI DUP1 PUSH1 0x3 NOT CALLDATASIZE ADD SLT PUSH2 0x326 JUMPI DUP2 CALLDATALOAD PUSH1 0x1 PUSH1 0x1 PUSH1 0x40 SHL SUB DUP2 GT PUSH2 0x326 JUMPI PUSH2 0x22F8 SWAP1 CALLDATASIZE SWAP1 DUP5 ADD PUSH2 0x36C4 JUMP JUMPDEST SWAP1 PUSH1 0x24 DUP1 CALLDATALOAD SWAP3 PUSH2 0x230A PUSH2 0x717 CALLER PUSH2 0x3DCD JUMP JUMPDEST CALLER PUSH0 MSTORE PUSH1 0x1 SWAP5 PUSH1 0x20 PUSH1 0x1 DUP2 MSTORE DUP5 PUSH0 KECCAK256 SLOAD SWAP4 DUP7 PUSH0 MSTORE PUSH1 0xE DUP3 MSTORE DUP6 PUSH0 KECCAK256 DUP6 PUSH0 MSTORE DUP3 MSTORE DUP6 PUSH0 KECCAK256 SWAP2 DUP7 MLOAD SWAP3 PUSH2 0x233A DUP5 PUSH2 0x33B6 JUMP JUMPDEST SLOAD SWAP3 PUSH2 0x2349 PUSH1 0xFF DUP6 AND DUP3 PUSH2 0x3945 JUMP JUMPDEST PUSH2 0x235C PUSH1 0xFF DUP4 DUP4 ADD SWAP6 PUSH1 0x8 SHR AND DUP6 PUSH2 0x3951 JUMP JUMPDEST MLOAD DUP5 DUP2 LT ISZERO PUSH2 0x246E JUMPI PUSH1 0x2 SUB PUSH2 0x242C JUMPI DUP5 MLOAD PUSH2 0x2383 PUSH2 0x237A DUP3 PUSH2 0x36AD JUMP JUMPDEST SWAP9 MLOAD SWAP9 DUP10 PUSH2 0x3400 JUMP JUMPDEST DUP1 DUP9 MSTORE PUSH2 0x2392 PUSH1 0x1F NOT SWAP2 PUSH2 0x36AD JUMP JUMPDEST ADD PUSH0 JUMPDEST DUP2 DUP2 LT PUSH2 0x241D JUMPI POP POP POP DUP8 PUSH0 SWAP1 JUMPDEST PUSH2 0x23B4 JUMPI JUMPDEST PUSH2 0xFBD DUP9 DUP9 DUP9 DUP9 PUSH2 0x41A5 JUMP JUMPDEST DUP5 MLOAD DUP2 LT ISZERO PUSH2 0x2418 JUMPI PUSH2 0x23C7 DUP2 DUP7 PUSH2 0x3A8E JUMP JUMPDEST MLOAD DUP4 MLOAD SWAP1 PUSH1 0x3 DUP3 LT ISZERO PUSH2 0x2406 JUMPI SWAP2 PUSH2 0x23E6 DUP12 SWAP7 SWAP6 SWAP5 SWAP4 SWAP3 DUP12 DUP9 SWAP5 PUSH2 0x414F JUMP JUMPDEST PUSH2 0x23F0 DUP3 DUP12 PUSH2 0x3A8E JUMP JUMPDEST MSTORE PUSH2 0x23FB DUP2 DUP11 PUSH2 0x3A8E JUMP JUMPDEST POP ADD SWAP1 SWAP2 SWAP3 SWAP4 PUSH2 0x23A3 JUMP JUMPDEST DUP4 PUSH1 0x21 DUP8 PUSH4 0x4E487B71 PUSH1 0xE0 SHL PUSH0 MSTORE MSTORE PUSH0 REVERT JUMPDEST PUSH2 0x23A8 JUMP JUMPDEST PUSH1 0x60 DUP10 DUP3 ADD DUP5 ADD MSTORE DUP3 ADD PUSH2 0x2395 JUMP JUMPDEST DUP4 PUSH1 0x64 SWAP2 DUP9 MLOAD SWAP2 PUSH3 0x461BCD PUSH1 0xE5 SHL DUP4 MSTORE DUP3 ADD MSTORE PUSH1 0x1E PUSH1 0x24 DUP3 ADD MSTORE PUSH32 0x4E6F2061637469766520747275737465652072656C6174696F6E736869700000 PUSH1 0x44 DUP3 ADD MSTORE REVERT JUMPDEST PUSH1 0x21 DUP6 PUSH4 0x4E487B71 PUSH1 0xE0 SHL PUSH0 MSTORE MSTORE PUSH1 0x24 PUSH0 REVERT JUMPDEST POP SWAP1 CALLVALUE PUSH2 0x326 JUMPI PUSH1 0x20 SWAP1 DUP2 PUSH1 0x3 NOT CALLDATASIZE ADD SLT PUSH2 0x326 JUMPI CALLDATALOAD PUSH0 MSTORE PUSH1 0xA DUP2 MSTORE DUP2 PUSH0 KECCAK256 DUP1 SLOAD SWAP2 PUSH2 0x24AC DUP4 PUSH2 0x36AD JUMP JUMPDEST SWAP3 PUSH2 0x24B9 DUP6 MLOAD SWAP5 DUP6 PUSH2 0x3400 JUMP JUMPDEST DUP1 DUP5 MSTORE DUP2 DUP5 ADD DUP1 SWAP4 PUSH0 MSTORE DUP3 PUSH0 KECCAK256 PUSH0 SWAP2 JUMPDEST DUP4 DUP4 LT PUSH2 0x252B JUMPI POP POP POP POP DUP4 MLOAD SWAP3 DUP2 DUP5 ADD SWAP1 DUP3 DUP6 MSTORE MLOAD DUP1 SWAP2 MSTORE DUP5 DUP5 ADD SWAP5 DUP2 PUSH1 0x5 SHL DUP6 ADD ADD SWAP3 SWAP2 PUSH0 SWAP6 JUMPDEST DUP3 DUP8 LT PUSH2 0x24FF JUMPI DUP6 DUP6 SUB DUP7 RETURN JUMPDEST SWAP1 SWAP2 SWAP3 SWAP4 DUP3 DUP1 PUSH2 0x251B PUSH1 0x1 SWAP4 PUSH1 0x3F NOT DUP11 DUP3 SUB ADD DUP7 MSTORE DUP9 MLOAD PUSH2 0x35FB JUMP JUMPDEST SWAP7 ADD SWAP3 ADD SWAP7 ADD SWAP6 SWAP3 SWAP2 SWAP1 SWAP3 PUSH2 0x24F2 JUMP JUMPDEST PUSH1 0x1 DUP6 DUP2 SWAP3 PUSH2 0x253C DUP6 SWAP11 SWAP9 SWAP11 PUSH2 0x3538 JUMP JUMPDEST DUP2 MSTORE ADD SWAP3 ADD SWAP3 ADD SWAP2 SWAP1 SWAP6 SWAP4 SWAP6 PUSH2 0x24C9 JUMP JUMPDEST POP CALLVALUE PUSH2 0x326 JUMPI PUSH2 0x255C CALLDATASIZE PUSH2 0x3697 JUMP JUMPDEST SWAP1 PUSH0 MSTORE PUSH1 0xE PUSH1 0x20 MSTORE DUP2 PUSH0 KECCAK256 SWAP1 PUSH0 MSTORE PUSH1 0x20 MSTORE DUP1 PUSH0 KECCAK256 SWAP1 DUP1 MLOAD SWAP2 PUSH2 0x257D DUP4 PUSH2 0x33B6 JUMP JUMPDEST SLOAD SWAP2 PUSH2 0x258C PUSH1 0xFF DUP5 AND DUP3 PUSH2 0x3945 JUMP JUMPDEST PUSH2 0x25A0 PUSH1 0xFF PUSH1 0x20 DUP4 ADD SWAP5 PUSH1 0x8 SHR AND DUP5 PUSH2 0x3951 JUMP JUMPDEST MLOAD DUP4 DUP2 LT ISZERO PUSH2 0x1880 JUMPI PUSH1 0x2 EQ SWAP2 DUP3 PUSH2 0x25BF JUMPI JUMPDEST PUSH1 0x20 DUP4 DUP4 MLOAD SWAP1 ISZERO ISZERO DUP2 MSTORE RETURN JUMPDEST SWAP1 SWAP2 POP MLOAD SWAP2 PUSH1 0x3 DUP4 LT ISZERO PUSH2 0x186D JUMPI POP PUSH1 0x2 PUSH1 0x20 SWAP3 EQ SWAP1 PUSH0 PUSH2 0x25B3 JUMP JUMPDEST POP CALLVALUE PUSH2 0x326 JUMPI PUSH0 CALLDATASIZE PUSH1 0x3 NOT ADD SLT PUSH2 0x326 JUMPI PUSH32 0x0 PUSH1 0x1 PUSH1 0x1 PUSH1 0xA0 SHL SUB AND ADDRESS SUB PUSH2 0x2645 JUMPI PUSH1 0x20 SWAP1 MLOAD PUSH32 0x360894A13BA1A3210667C828492DB98DCA3E2076CC3735A920A3CA505D382BBC DUP2 MSTORE RETURN JUMPDEST MLOAD PUSH4 0x703E46DD PUSH1 0xE1 SHL DUP2 MSTORE REVERT JUMPDEST POP SWAP1 CALLVALUE PUSH2 0x326 JUMPI PUSH1 0x20 SWAP1 DUP2 PUSH1 0x3 NOT CALLDATASIZE ADD SLT PUSH2 0x326 JUMPI DUP1 CALLDATALOAD SWAP1 PUSH1 0x1 PUSH1 0x1 PUSH1 0x40 SHL SUB DUP3 GT PUSH2 0x326 JUMPI PUSH2 0x2689 DUP4 SWAP2 PUSH2 0x269B SWAP4 CALLDATASIZE SWAP2 ADD PUSH2 0x3466 JUMP JUMPDEST DUP2 DUP6 MLOAD SWAP4 DUP3 DUP6 DUP1 SWAP5 MLOAD SWAP4 DUP5 SWAP3 ADD PUSH2 0x35DA JUMP JUMPDEST DUP2 ADD PUSH1 0x9 DUP2 MSTORE SUB ADD SWAP1 KECCAK256 SWAP2 DUP1 MLOAD SWAP2 DUP3 DUP2 DUP6 SLOAD SWAP2 DUP3 DUP2 MSTORE ADD SWAP5 PUSH0 MSTORE DUP2 PUSH0 KECCAK256 SWAP2 PUSH0 SWAP1 JUMPDEST DUP3 DUP3 LT PUSH2 0x26D4 JUMPI PUSH2 0x310 DUP7 DUP7 PUSH2 0x6D7 DUP3 DUP12 SUB DUP4 PUSH2 0x3400 JUMP JUMPDEST DUP4 SLOAD DUP8 MSTORE SWAP6 DUP7 ADD SWAP6 PUSH1 0x1 SWAP4 DUP5 ADD SWAP4 SWAP1 SWAP2 ADD SWAP1 PUSH2 0x26BC JUMP JUMPDEST POP SWAP1 DUP2 PUSH1 0x3 NOT CALLDATASIZE ADD SLT PUSH2 0x326 JUMPI PUSH2 0x2700 PUSH2 0x33A0 JUMP JUMPDEST SWAP2 PUSH1 0x24 CALLDATALOAD PUSH1 0x1 PUSH1 0x1 PUSH1 0x40 SHL SUB DUP2 GT PUSH2 0x326 JUMPI CALLDATASIZE PUSH1 0x23 DUP3 ADD SLT ISZERO PUSH2 0x326 JUMPI PUSH2 0x2730 SWAP1 CALLDATASIZE SWAP1 PUSH1 0x24 DUP2 DUP7 ADD CALLDATALOAD SWAP2 ADD PUSH2 0x3421 JUMP JUMPDEST SWAP1 PUSH1 0x1 PUSH1 0x1 PUSH1 0xA0 SHL SUB PUSH32 0x0 DUP2 AND ADDRESS DUP2 EQ SWAP1 DUP2 ISZERO PUSH2 0x28BA JUMPI JUMPDEST POP PUSH2 0x28AA JUMPI PUSH2 0x277A DUP2 PUSH0 SLOAD AND CALLER EQ PUSH2 0x3842 JUMP JUMPDEST DUP5 AND SWAP2 DUP2 MLOAD SWAP5 PUSH4 0x52D1902D PUSH1 0xE0 SHL DUP7 MSTORE PUSH1 0x20 DUP7 DUP7 DUP2 DUP8 GAS STATICCALL PUSH0 SWAP7 DUP2 PUSH2 0x2876 JUMPI JUMPDEST POP PUSH2 0x27B6 JUMPI POP POP MLOAD PUSH4 0x4C9C8CE3 PUSH1 0xE0 SHL DUP2 MSTORE SWAP2 DUP3 ADD MSTORE PUSH1 0x24 SWAP2 POP REVERT JUMPDEST DUP4 DUP6 SWAP4 DUP8 PUSH32 0x360894A13BA1A3210667C828492DB98DCA3E2076CC3735A920A3CA505D382BBC SWAP1 DUP2 DUP2 SUB PUSH2 0x2860 JUMPI POP DUP4 EXTCODESIZE ISZERO PUSH2 0x2849 JUMPI DUP1 SLOAD PUSH1 0x1 PUSH1 0x1 PUSH1 0xA0 SHL SUB NOT AND DUP4 OR SWAP1 SSTORE MLOAD SWAP1 PUSH32 0xBC7CD75A20EE27FD9ADEBAB32041F755214DBC6BFFA90CC0225B39DA2E5C2D3B PUSH0 DUP1 LOG2 DUP3 MLOAD ISZERO PUSH2 0x2833 JUMPI POP PUSH2 0xFBD SWAP3 POP PUSH2 0x4623 JUMP JUMPDEST SWAP2 POP POP CALLVALUE PUSH2 0x283D JUMPI STOP JUMPDEST PUSH4 0xB398979F PUSH1 0xE0 SHL DUP2 MSTORE REVERT JUMPDEST DUP2 MLOAD PUSH4 0x4C9C8CE3 PUSH1 0xE0 SHL DUP2 MSTORE DUP1 DUP8 ADD DUP5 SWAP1 MSTORE PUSH1 0x24 SWAP1 REVERT JUMPDEST DUP7 PUSH1 0x24 SWAP2 DUP5 MLOAD SWAP2 PUSH4 0x2A875269 PUSH1 0xE2 SHL DUP4 MSTORE DUP3 ADD MSTORE REVERT JUMPDEST SWAP1 SWAP7 POP PUSH1 0x20 DUP2 RETURNDATASIZE PUSH1 0x20 GT PUSH2 0x28A2 JUMPI JUMPDEST DUP2 PUSH2 0x2892 PUSH1 0x20 SWAP4 DUP4 PUSH2 0x3400 JUMP JUMPDEST DUP2 ADD SUB SLT PUSH2 0x326 JUMPI MLOAD SWAP6 PUSH0 PUSH2 0x279A JUMP JUMPDEST RETURNDATASIZE SWAP2 POP PUSH2 0x2885 JUMP JUMPDEST DUP2 MLOAD PUSH4 0x703E46DD PUSH1 0xE1 SHL DUP2 MSTORE DUP5 SWAP1 REVERT JUMPDEST SWAP1 POP DUP2 PUSH32 0x360894A13BA1A3210667C828492DB98DCA3E2076CC3735A920A3CA505D382BBC SLOAD AND EQ ISZERO PUSH0 PUSH2 0x2767 JUMP JUMPDEST POP SWAP1 CALLVALUE PUSH2 0x326 JUMPI DUP2 PUSH1 0x3 NOT CALLDATASIZE ADD SLT PUSH2 0x326 JUMPI PUSH2 0x2902 PUSH2 0x33A0 JUMP JUMPDEST SWAP2 PUSH1 0x24 SWAP1 DUP2 CALLDATALOAD SWAP4 PUSH1 0x1 DUP1 PUSH1 0xA0 SHL SUB DUP1 SWAP2 PUSH2 0x2920 DUP3 PUSH0 SLOAD AND CALLER EQ PUSH2 0x3842 JUMP JUMPDEST AND SWAP4 PUSH2 0x292D DUP6 ISZERO ISZERO PUSH2 0x39A9 JUMP JUMPDEST DUP6 ISZERO PUSH2 0x2B1F JUMPI DUP5 PUSH0 MSTORE PUSH1 0x1 SWAP4 PUSH1 0x20 SWAP5 DUP1 DUP7 MSTORE DUP5 PUSH0 KECCAK256 SLOAD PUSH2 0x2ADD JUMPI PUSH2 0x2982 DUP6 MLOAD PUSH2 0x2955 DUP2 PUSH2 0x33B6 JUMP JUMPDEST DUP10 DUP2 MSTORE DUP3 DUP9 DUP3 ADD DUP2 DUP2 MSTORE DUP11 PUSH0 MSTORE DUP2 DUP11 MSTORE DUP9 PUSH0 KECCAK256 SWAP3 MLOAD DUP4 SSTORE MLOAD ISZERO ISZERO SWAP2 ADD SWAP1 PUSH1 0xFF DUP1 NOT DUP4 SLOAD AND SWAP2 ISZERO ISZERO AND OR SWAP1 SSTORE JUMP JUMPDEST DUP8 PUSH0 MSTORE PUSH1 0x3 DUP7 MSTORE DUP5 PUSH0 KECCAK256 SWAP4 DUP5 SLOAD PUSH1 0x1 PUSH1 0x40 SHL SWAP6 DUP7 DUP3 LT ISZERO PUSH2 0x2ACB JUMPI SWAP1 PUSH2 0x29AC SWAP2 DUP5 DUP3 ADD DUP2 SSTORE PUSH2 0x37C2 JUMP JUMPDEST DUP2 SWAP3 SWAP2 SLOAD SWAP1 PUSH1 0x3 SHL SWAP2 DUP11 DUP4 SHL SWAP3 SHL NOT AND OR SWAP1 SSTORE DUP8 PUSH0 MSTORE PUSH1 0x2 DUP7 MSTORE PUSH1 0xFF DUP6 PUSH0 KECCAK256 SLOAD AND PUSH1 0x5 DUP2 LT ISZERO PUSH2 0x2AB9 JUMPI PUSH2 0x2A8B JUMPI DUP8 PUSH0 MSTORE PUSH1 0x2 DUP7 MSTORE DUP5 PUSH0 KECCAK256 PUSH1 0x2 PUSH1 0xFF NOT DUP3 SLOAD AND OR SWAP1 SSTORE DUP3 SLOAD SWAP4 DUP5 LT ISZERO PUSH2 0x2A78 JUMPI DUP4 ADD DUP1 DUP4 SSTORE DUP4 LT ISZERO PUSH2 0x2A66 JUMPI POP PUSH32 0x39D132591EE0696DE49AB564E4A90E430C006561917DB731A2A614DD2D245591 SWAP4 SWAP3 SWAP2 DUP7 SWAP2 PUSH0 MSTORE PUSH32 0x8A35ACFBC15FF81A39AE7D344FD709F28E8600B4AA8C65C6B64BFE7FE36BD19B ADD SSTORE PUSH2 0x2A5C PUSH1 0x5 SLOAD PUSH2 0x3A6C JUMP JUMPDEST PUSH1 0x5 SSTORE MLOAD TIMESTAMP DUP2 MSTORE LOG3 STOP JUMPDEST PUSH4 0x4E487B71 PUSH1 0xE0 SHL PUSH0 SWAP1 DUP2 MSTORE PUSH1 0x32 DUP4 MSTORE REVERT JUMPDEST POP PUSH4 0x4E487B71 PUSH1 0xE0 SHL PUSH0 SWAP1 DUP2 MSTORE PUSH1 0x41 DUP4 MSTORE REVERT JUMPDEST POP POP POP POP SWAP1 PUSH32 0x1CC138F50384BE7770A8E4A34EECAA0D0C718BFAA1641AF49DB32532E4A5B910 SWAP2 MLOAD TIMESTAMP DUP2 MSTORE LOG3 STOP JUMPDEST DUP3 PUSH1 0x21 DUP6 PUSH4 0x4E487B71 PUSH1 0xE0 SHL PUSH0 MSTORE MSTORE PUSH0 REVERT JUMPDEST DUP5 PUSH1 0x41 DUP8 PUSH4 0x4E487B71 PUSH1 0xE0 SHL PUSH0 MSTORE MSTORE PUSH0 REVERT JUMPDEST DUP5 MLOAD PUSH3 0x461BCD PUSH1 0xE5 SHL DUP2 MSTORE DUP1 DUP5 ADD DUP8 SWAP1 MSTORE PUSH1 0x19 DUP2 DUP5 ADD MSTORE PUSH32 0x57616C6C657420616C7265616479207265676973746572656400000000000000 PUSH1 0x44 DUP3 ADD MSTORE PUSH1 0x64 SWAP1 REVERT JUMPDEST PUSH1 0x64 SWAP1 PUSH1 0x14 DUP6 PUSH1 0x20 DUP7 MLOAD SWAP4 PUSH3 0x461BCD PUSH1 0xE5 SHL DUP6 MSTORE DUP5 ADD MSTORE DUP3 ADD MSTORE PUSH20 0x92DCECC2D8D2C840EAE6CAE440928840D0C2E6D PUSH1 0x63 SHL PUSH1 0x44 DUP3 ADD MSTORE REVERT JUMPDEST POP CALLVALUE PUSH2 0x326 JUMPI PUSH1 0x20 CALLDATASIZE PUSH1 0x3 NOT ADD SLT PUSH2 0x326 JUMPI PUSH1 0x20 SWAP1 PUSH2 0x36C PUSH2 0x2B78 PUSH2 0x33A0 JUMP JUMPDEST PUSH2 0x3DCD JUMP JUMPDEST POP CALLVALUE PUSH2 0x326 JUMPI PUSH1 0x20 DUP1 PUSH1 0x3 NOT CALLDATASIZE ADD SLT PUSH2 0x326 JUMPI DUP3 CALLDATALOAD PUSH1 0x1 PUSH1 0x1 PUSH1 0x40 SHL SUB DUP2 GT PUSH2 0x326 JUMPI PUSH1 0x60 SWAP4 PUSH2 0x2BAF SWAP2 CALLDATASIZE SWAP2 ADD PUSH2 0x3466 JUMP JUMPDEST SWAP2 DUP1 MLOAD SWAP3 PUSH2 0x2C04 DUP4 DUP3 MLOAD SWAP6 DUP2 DUP2 DUP2 DUP7 ADD SWAP9 PUSH2 0x2BCB DUP2 DUP4 DUP13 PUSH2 0x35DA JUMP JUMPDEST DUP2 ADD PUSH1 0x7 DUP2 MSTORE SUB ADD SWAP1 KECCAK256 SLOAD SWAP6 DUP5 MLOAD DUP3 DUP2 DUP7 MLOAD PUSH2 0x2BE8 DUP2 DUP4 DUP8 PUSH2 0x35DA JUMP JUMPDEST DUP2 ADD PUSH1 0x8 DUP2 MSTORE SUB ADD SWAP1 KECCAK256 SLOAD SWAP4 DUP6 MLOAD SWAP4 DUP5 SWAP3 DUP4 SWAP3 MLOAD SWAP3 DUP4 SWAP2 PUSH2 0x35DA JUMP JUMPDEST DUP2 ADD PUSH1 0x9 DUP2 MSTORE SUB ADD SWAP1 KECCAK256 SLOAD SWAP3 DUP3 MLOAD SWAP5 DUP6 MSTORE DUP5 ADD MSTORE DUP3 ADD MSTORE RETURN JUMPDEST POP SWAP1 CALLVALUE PUSH2 0x326 JUMPI PUSH1 0x20 SWAP1 DUP2 PUSH1 0x3 NOT CALLDATASIZE ADD SLT PUSH2 0x326 JUMPI DUP1 CALLDATALOAD SWAP1 PUSH1 0x1 PUSH1 0x1 PUSH1 0x40 SHL SUB DUP3 GT PUSH2 0x326 JUMPI PUSH2 0x2689 DUP4 SWAP2 PUSH2 0x2C54 SWAP4 CALLDATASIZE SWAP2 ADD PUSH2 0x3466 JUMP JUMPDEST DUP2 ADD PUSH1 0x8 DUP2 MSTORE SUB ADD SWAP1 KECCAK256 SWAP2 DUP1 MLOAD SWAP2 DUP3 DUP2 DUP6 SLOAD SWAP2 DUP3 DUP2 MSTORE ADD SWAP5 PUSH0 MSTORE DUP2 PUSH0 KECCAK256 SWAP2 PUSH0 SWAP1 JUMPDEST DUP3 DUP3 LT PUSH2 0x2C8D JUMPI PUSH2 0x310 DUP7 DUP7 PUSH2 0x6D7 DUP3 DUP12 SUB DUP4 PUSH2 0x3400 JUMP JUMPDEST DUP4 SLOAD DUP8 MSTORE SWAP6 DUP7 ADD SWAP6 PUSH1 0x1 SWAP4 DUP5 ADD SWAP4 SWAP1 SWAP2 ADD SWAP1 PUSH2 0x2C75 JUMP JUMPDEST POP SWAP1 CALLVALUE PUSH2 0x326 JUMPI PUSH2 0x2CB4 CALLDATASIZE PUSH2 0x3640 JUMP JUMPDEST SWAP1 SWAP3 SWAP2 SWAP4 PUSH1 0x1 DUP1 PUSH1 0xA0 SHL SUB PUSH2 0x2CCD DUP2 PUSH0 SLOAD AND CALLER EQ PUSH2 0x3842 JUMP JUMPDEST PUSH2 0x2CD9 DUP7 MLOAD ISZERO ISZERO PUSH2 0x395D JUMP JUMPDEST DUP5 AND PUSH2 0x2CE6 DUP2 ISZERO ISZERO PUSH2 0x39A9 JUMP JUMPDEST PUSH2 0x2CF2 PUSH2 0x749 DUP5 PUSH2 0x3E8E JUMP JUMPDEST PUSH0 MSTORE PUSH1 0x20 SWAP3 PUSH1 0x1 DUP5 MSTORE PUSH2 0x2D0E DUP3 PUSH0 KECCAK256 SLOAD SWAP6 PUSH2 0x2B78 DUP8 ISZERO ISZERO PUSH2 0x387B JUMP JUMPDEST ISZERO PUSH2 0x2F18 JUMPI DUP2 MLOAD DUP5 DUP8 MLOAD SWAP2 DUP2 DUP2 DUP2 DUP12 ADD SWAP5 PUSH2 0x2D2A DUP2 DUP4 DUP9 PUSH2 0x35DA JUMP JUMPDEST DUP2 ADD PUSH1 0x7 DUP2 MSTORE SUB ADD SWAP1 KECCAK256 SLOAD ISZERO SWAP2 DUP3 PUSH2 0x2EF0 JUMPI JUMPDEST POP POP ISZERO PUSH2 0x2EAF JUMPI PUSH2 0x2D4E DUP6 DUP8 PUSH2 0x421A JUMP JUMPDEST DUP1 PUSH0 MSTORE PUSH1 0x6 DUP6 MSTORE DUP3 PUSH0 KECCAK256 SWAP1 PUSH2 0x2D62 DUP3 PUSH2 0x3538 JUMP JUMPDEST SWAP1 PUSH1 0xFF PUSH1 0x1 DUP4 MLOAD ISZERO SWAP5 ADD SLOAD AND SWAP1 PUSH2 0x2DB3 DUP7 MLOAD PUSH2 0x2D7D DUP2 PUSH2 0x33B6 JUMP JUMPDEST DUP9 DUP2 MSTORE PUSH1 0x1 DUP11 DUP3 ADD DUP2 DUP2 MSTORE DUP5 PUSH0 MSTORE PUSH1 0x6 DUP13 MSTORE PUSH2 0x2D9D DUP11 PUSH0 KECCAK256 SWAP4 MLOAD DUP5 PUSH2 0x3EE6 JUMP JUMPDEST MLOAD ISZERO ISZERO SWAP2 ADD SWAP1 PUSH1 0xFF DUP1 NOT DUP4 SLOAD AND SWAP2 ISZERO ISZERO AND OR SWAP1 SSTORE JUMP JUMPDEST PUSH0 MSTORE PUSH1 0xD DUP8 MSTORE PUSH0 DUP6 DUP2 KECCAK256 SSTORE ISZERO PUSH0 EQ PUSH2 0x2E80 JUMPI POP PUSH2 0x2DD1 DUP5 DUP8 DUP10 PUSH2 0x44C4 JUMP JUMPDEST PUSH2 0x2DF1 JUMPI JUMPDEST POP SWAP1 PUSH0 DUP1 MLOAD PUSH1 0x20 PUSH2 0x46B5 DUP4 CODECOPY DUP2 MLOAD SWAP2 MSTORE SWAP2 PUSH2 0x1F70 PUSH0 SWAP7 PUSH2 0x3BFE JUMP JUMPDEST SWAP5 DUP5 PUSH0 MSTORE PUSH1 0xA DUP5 MSTORE DUP2 PUSH0 KECCAK256 DUP1 SLOAD SWAP1 PUSH1 0x1 PUSH1 0x40 SHL DUP3 LT ISZERO PUSH2 0x2E6D JUMPI DUP2 PUSH2 0x2E1D SWAP2 PUSH1 0x1 PUSH0 SWAP11 SWAP5 ADD DUP2 SSTORE PUSH2 0x37C2 JUMP JUMPDEST SWAP2 SWAP1 SWAP2 PUSH2 0x2E5B JUMPI POP DUP2 PUSH2 0x2E43 PUSH0 DUP1 MLOAD PUSH1 0x20 PUSH2 0x46B5 DUP4 CODECOPY DUP2 MLOAD SWAP2 MSTORE SWAP6 SWAP5 SWAP4 PUSH2 0x1F70 SWAP4 PUSH2 0x3EE6 JUMP JUMPDEST PUSH2 0x2E4E PUSH1 0xB SLOAD PUSH2 0x3A6C JUMP JUMPDEST PUSH1 0xB SSTORE SWAP7 POP POP SWAP1 SWAP2 PUSH2 0x2DD6 JUMP JUMPDEST PUSH4 0x4E487B71 PUSH1 0xE0 SHL DUP9 MSTORE DUP8 SWAP1 MSTORE PUSH1 0x24 PUSH0 REVERT JUMPDEST PUSH1 0x41 DUP9 PUSH4 0x4E487B71 PUSH1 0xE0 SHL PUSH0 MSTORE MSTORE PUSH1 0x24 PUSH0 REVERT JUMPDEST SWAP7 SWAP4 SWAP6 SWAP5 SWAP3 POP POP POP DUP5 MLOAD DUP2 DUP7 ADD KECCAK256 SWAP1 DUP5 MLOAD SWAP1 DUP6 ADD KECCAK256 SUB PUSH2 0x2E9C JUMPI STOP JUMPDEST PUSH2 0x2EAA PUSH2 0xFBD SWAP5 DUP4 DUP4 PUSH2 0x42B3 JUMP JUMPDEST PUSH2 0x44C4 JUMP JUMPDEST DUP4 PUSH1 0x64 SWAP3 MLOAD SWAP2 PUSH3 0x461BCD PUSH1 0xE5 SHL DUP4 MSTORE DUP3 ADD MSTORE PUSH1 0x1A PUSH1 0x24 DUP3 ADD MSTORE PUSH32 0x5265636F726420616C726561647920696E697469616C697A6564000000000000 PUSH1 0x44 DUP3 ADD MSTORE REVERT JUMPDEST PUSH2 0x2F05 SWAP3 POP DUP5 MLOAD DUP1 SWAP4 DUP2 SWAP3 DUP12 MLOAD SWAP3 DUP4 SWAP2 PUSH2 0x35DA JUMP JUMPDEST DUP2 ADD PUSH1 0x8 DUP2 MSTORE SUB ADD SWAP1 KECCAK256 SLOAD ISZERO DUP5 PUSH0 PUSH2 0x2D3D JUMP JUMPDEST DUP4 PUSH1 0x64 SWAP3 MLOAD SWAP2 PUSH3 0x461BCD PUSH1 0xE5 SHL DUP4 MSTORE DUP3 ADD MSTORE PUSH1 0x18 PUSH1 0x24 DUP3 ADD MSTORE PUSH32 0x4D75737420626520616E20616374697665206D656D6265720000000000000000 PUSH1 0x44 DUP3 ADD MSTORE REVERT JUMPDEST POP SWAP1 CALLVALUE PUSH2 0x326 JUMPI PUSH1 0x20 CALLDATASIZE PUSH1 0x3 NOT ADD SLT PUSH2 0x326 JUMPI CALLDATALOAD PUSH0 MSTORE PUSH1 0x6 PUSH1 0x20 MSTORE DUP1 PUSH0 KECCAK256 PUSH2 0x310 PUSH1 0xFF PUSH1 0x1 PUSH2 0x2F87 DUP5 PUSH2 0x3538 JUMP JUMPDEST SWAP4 ADD SLOAD AND SWAP3 MLOAD SWAP3 DUP4 SWAP3 DUP4 PUSH2 0x3620 JUMP JUMPDEST POP CALLVALUE PUSH2 0x326 JUMPI PUSH1 0x20 CALLDATASIZE PUSH1 0x3 NOT ADD SLT PUSH2 0x326 JUMPI PUSH1 0x20 SWAP1 PUSH2 0x36C PUSH2 0x2FB6 PUSH2 0x33A0 JUMP JUMPDEST PUSH2 0x3E38 JUMP JUMPDEST POP CALLVALUE PUSH2 0x326 JUMPI DUP1 PUSH1 0x3 NOT CALLDATASIZE ADD SLT PUSH2 0x326 JUMPI DUP2 CALLDATALOAD SWAP1 PUSH1 0x24 SWAP1 DUP2 CALLDATALOAD PUSH1 0x3 DUP2 LT ISZERO PUSH2 0x326 JUMPI PUSH2 0x2FE9 PUSH2 0x717 CALLER PUSH2 0x3DCD JUMP JUMPDEST CALLER PUSH0 MSTORE PUSH1 0x20 PUSH1 0x1 DUP2 MSTORE DUP3 PUSH0 KECCAK256 SLOAD SWAP4 DUP6 ISZERO PUSH2 0x31DA JUMPI DUP6 DUP6 EQ PUSH2 0x3199 JUMPI DUP6 PUSH0 MSTORE PUSH1 0x2 DUP3 MSTORE PUSH1 0xFF DUP5 PUSH0 KECCAK256 SLOAD AND PUSH1 0x5 DUP2 LT ISZERO PUSH2 0x314C JUMPI ISZERO PUSH2 0x315F JUMPI DUP5 PUSH0 MSTORE PUSH1 0xE DUP3 MSTORE DUP4 PUSH0 KECCAK256 DUP7 PUSH0 MSTORE DUP3 MSTORE PUSH1 0xFF DUP5 PUSH0 KECCAK256 SLOAD AND DUP8 DUP2 LT ISZERO PUSH2 0x314C JUMPI DUP1 ISZERO SWAP1 DUP2 ISZERO PUSH2 0x3141 JUMPI JUMPDEST POP ISZERO PUSH2 0x3100 JUMPI DUP4 MLOAD SWAP1 PUSH2 0x305A DUP3 PUSH2 0x33B6 JUMP JUMPDEST PUSH1 0x1 DUP3 MSTORE DUP3 DUP3 ADD PUSH2 0x306B DUP6 DUP3 PUSH2 0x3951 JUMP JUMPDEST DUP7 PUSH0 MSTORE PUSH1 0xE DUP5 MSTORE DUP6 PUSH0 KECCAK256 DUP9 PUSH0 MSTORE DUP5 MSTORE DUP6 PUSH0 KECCAK256 SWAP3 MLOAD SWAP2 DUP10 DUP4 LT ISZERO PUSH2 0x30EE JUMPI DUP4 SLOAD SWAP2 MLOAD SWAP10 PUSH1 0x3 DUP12 LT ISZERO PUSH2 0x30DD JUMPI POP POP PUSH1 0xFF PUSH2 0xFF00 PUSH32 0x494D010FDF588A0E83D626EA6963187BDDA6F88B7007F7BF280683D3F7DEA834 SWAP9 SWAP10 SWAP11 PUSH1 0x8 SHL AND SWAP3 AND SWAP1 PUSH2 0xFFFF NOT AND OR OR SWAP1 SSTORE PUSH2 0x157C DUP4 MLOAD DUP1 SWAP4 PUSH2 0x3795 JUMP JUMPDEST PUSH1 0x21 SWAP1 PUSH4 0x4E487B71 PUSH1 0xE0 SHL PUSH0 MSTORE MSTORE PUSH0 REVERT JUMPDEST PUSH4 0x4E487B71 PUSH1 0xE0 SHL PUSH0 SWAP1 DUP2 MSTORE PUSH1 0x21 DUP12 MSTORE REVERT JUMPDEST PUSH1 0x17 DUP8 SWAP2 PUSH1 0x64 SWAP4 DUP7 MLOAD SWAP4 PUSH3 0x461BCD PUSH1 0xE5 SHL DUP6 MSTORE DUP5 ADD MSTORE DUP3 ADD MSTORE PUSH32 0x50726F706F73616C20616C726561647920657869737473000000000000000000 PUSH1 0x44 DUP3 ADD MSTORE REVERT JUMPDEST PUSH1 0x3 SWAP2 POP EQ PUSH0 PUSH2 0x3048 JUMP JUMPDEST POP PUSH4 0x4E487B71 PUSH1 0xE0 SHL PUSH0 SWAP1 DUP2 MSTORE PUSH1 0x21 DUP9 MSTORE REVERT JUMPDEST PUSH1 0x16 DUP8 SWAP2 PUSH1 0x64 SWAP4 DUP7 MLOAD SWAP4 PUSH3 0x461BCD PUSH1 0xE5 SHL DUP6 MSTORE DUP5 ADD MSTORE DUP3 ADD MSTORE PUSH22 0x151C9D5CDD1959481B9BDD081C9959DA5CDD195C9959 PUSH1 0x52 SHL PUSH1 0x44 DUP3 ADD MSTORE REVERT JUMPDEST PUSH1 0x17 DUP8 SWAP2 PUSH1 0x64 SWAP4 DUP7 MLOAD SWAP4 PUSH3 0x461BCD PUSH1 0xE5 SHL DUP6 MSTORE DUP5 ADD MSTORE DUP3 ADD MSTORE PUSH32 0x43616E6E6F74206170706F696E7420796F757273656C66000000000000000000 PUSH1 0x44 DUP3 ADD MSTORE REVERT JUMPDEST PUSH1 0xF DUP8 SWAP2 PUSH1 0x64 SWAP4 DUP7 MLOAD SWAP4 PUSH3 0x461BCD PUSH1 0xE5 SHL DUP6 MSTORE DUP5 ADD MSTORE DUP3 ADD MSTORE PUSH15 0x496E76616C69642074727573746565 PUSH1 0x88 SHL PUSH1 0x44 DUP3 ADD MSTORE REVERT JUMPDEST POP SWAP1 CALLVALUE PUSH2 0x326 JUMPI PUSH1 0x20 SWAP1 DUP2 PUSH1 0x3 NOT CALLDATASIZE ADD SLT PUSH2 0x326 JUMPI DUP1 CALLDATALOAD SWAP1 PUSH1 0x1 PUSH1 0x1 PUSH1 0x40 SHL SUB DUP3 GT PUSH2 0x326 JUMPI PUSH2 0x2689 DUP4 SWAP2 PUSH2 0x3244 SWAP4 CALLDATASIZE SWAP2 ADD PUSH2 0x3466 JUMP JUMPDEST DUP2 ADD PUSH1 0x7 DUP2 MSTORE SUB ADD SWAP1 KECCAK256 SWAP2 DUP1 MLOAD SWAP2 DUP3 DUP2 DUP6 SLOAD SWAP2 DUP3 DUP2 MSTORE ADD SWAP5 PUSH0 MSTORE DUP2 PUSH0 KECCAK256 SWAP2 PUSH0 SWAP1 JUMPDEST DUP3 DUP3 LT PUSH2 0x327D JUMPI PUSH2 0x310 DUP7 DUP7 PUSH2 0x6D7 DUP3 DUP12 SUB DUP4 PUSH2 0x3400 JUMP JUMPDEST DUP4 SLOAD DUP8 MSTORE SWAP6 DUP7 ADD SWAP6 PUSH1 0x1 SWAP4 DUP5 ADD SWAP4 SWAP1 SWAP2 ADD SWAP1 PUSH2 0x3265 JUMP JUMPDEST POP CALLVALUE PUSH2 0x326 JUMPI PUSH1 0x20 SWAP1 PUSH2 0x36C PUSH2 0x32A9 CALLDATASIZE PUSH2 0x3484 JUMP JUMPDEST SWAP1 PUSH2 0x38BF JUMP JUMPDEST POP CALLVALUE PUSH2 0x326 JUMPI PUSH1 0x20 CALLDATASIZE PUSH1 0x3 NOT ADD SLT PUSH2 0x326 JUMPI PUSH2 0x32C9 PUSH2 0x33A0 JUMP JUMPDEST PUSH0 SLOAD PUSH1 0x1 PUSH1 0x1 PUSH1 0xA0 SHL SUB SWAP2 SWAP1 PUSH2 0x32E2 SWAP1 DUP4 AND CALLER EQ PUSH2 0x3842 JUMP JUMPDEST AND DUP1 PUSH0 MSTORE PUSH1 0x1 PUSH1 0x20 MSTORE PUSH2 0x32F9 DUP3 PUSH0 KECCAK256 SLOAD ISZERO ISZERO PUSH2 0x387B JUMP JUMPDEST DUP1 PUSH0 MSTORE PUSH1 0x1 PUSH1 0x20 MSTORE PUSH1 0xFF PUSH1 0x1 DUP4 PUSH0 KECCAK256 ADD SLOAD AND ISZERO PUSH2 0x3329 JUMPI PUSH1 0x1 SWAP3 POP PUSH0 MSTORE DUP2 PUSH1 0x20 MSTORE PUSH0 KECCAK256 ADD PUSH1 0xFF NOT DUP2 SLOAD AND SWAP1 SSTORE PUSH0 DUP1 RETURN JUMPDEST DUP2 MLOAD PUSH3 0x461BCD PUSH1 0xE5 SHL DUP2 MSTORE PUSH1 0x20 DUP2 DUP6 ADD MSTORE PUSH1 0x17 PUSH1 0x24 DUP3 ADD MSTORE PUSH32 0x57616C6C657420616C726561647920696E616374697665000000000000000000 PUSH1 0x44 DUP3 ADD MSTORE PUSH1 0x64 SWAP1 REVERT JUMPDEST SWAP1 POP CALLVALUE PUSH2 0x326 JUMPI PUSH1 0x20 CALLDATASIZE PUSH1 0x3 NOT ADD SLT PUSH2 0x326 JUMPI PUSH1 0x20 SWAP2 PUSH1 0x1 PUSH1 0x1 PUSH1 0xA0 SHL SUB PUSH2 0x3392 PUSH2 0x33A0 JUMP JUMPDEST AND PUSH0 MSTORE PUSH1 0x1 DUP4 MSTORE PUSH0 KECCAK256 SLOAD DUP2 MSTORE RETURN JUMPDEST PUSH1 0x4 CALLDATALOAD SWAP1 PUSH1 0x1 PUSH1 0x1 PUSH1 0xA0 SHL SUB DUP3 AND DUP3 SUB PUSH2 0x326 JUMPI JUMP JUMPDEST PUSH1 0x40 DUP2 ADD SWAP1 DUP2 LT PUSH1 0x1 PUSH1 0x1 PUSH1 0x40 SHL SUB DUP3 GT OR PUSH2 0x33D1 JUMPI PUSH1 0x40 MSTORE JUMP JUMPDEST PUSH4 0x4E487B71 PUSH1 0xE0 SHL PUSH0 MSTORE PUSH1 0x41 PUSH1 0x4 MSTORE PUSH1 0x24 PUSH0 REVERT JUMPDEST PUSH1 0x20 DUP2 ADD SWAP1 DUP2 LT PUSH1 0x1 PUSH1 0x1 PUSH1 0x40 SHL SUB DUP3 GT OR PUSH2 0x33D1 JUMPI PUSH1 0x40 MSTORE JUMP JUMPDEST SWAP1 PUSH1 0x1F DUP1 NOT SWAP2 ADD AND DUP2 ADD SWAP1 DUP2 LT PUSH1 0x1 PUSH1 0x1 PUSH1 0x40 SHL SUB DUP3 GT OR PUSH2 0x33D1 JUMPI PUSH1 0x40 MSTORE JUMP JUMPDEST SWAP3 SWAP2 SWAP3 PUSH1 0x1 PUSH1 0x1 PUSH1 0x40 SHL SUB DUP3 GT PUSH2 0x33D1 JUMPI PUSH1 0x40 MLOAD SWAP2 PUSH2 0x344A PUSH1 0x1F DUP3 ADD PUSH1 0x1F NOT AND PUSH1 0x20 ADD DUP5 PUSH2 0x3400 JUMP JUMPDEST DUP3 SWAP5 DUP2 DUP5 MSTORE DUP2 DUP4 ADD GT PUSH2 0x326 JUMPI DUP3 DUP2 PUSH1 0x20 SWAP4 DUP5 PUSH0 SWAP7 ADD CALLDATACOPY ADD ADD MSTORE JUMP JUMPDEST SWAP1 DUP1 PUSH1 0x1F DUP4 ADD SLT ISZERO PUSH2 0x326 JUMPI DUP2 PUSH1 0x20 PUSH2 0x3481 SWAP4 CALLDATALOAD SWAP2 ADD PUSH2 0x3421 JUMP JUMPDEST SWAP1 JUMP JUMPDEST PUSH1 0x40 PUSH1 0x3 NOT DUP3 ADD SLT PUSH2 0x326 JUMPI PUSH1 0x4 CALLDATALOAD SWAP1 PUSH1 0x1 PUSH1 0x1 PUSH1 0x40 SHL SUB DUP3 GT PUSH2 0x326 JUMPI PUSH2 0x34AE SWAP2 PUSH1 0x4 ADD PUSH2 0x3466 JUMP JUMPDEST SWAP1 PUSH1 0x24 CALLDATALOAD PUSH1 0x1 PUSH1 0x1 PUSH1 0xA0 SHL SUB DUP2 AND DUP2 SUB PUSH2 0x326 JUMPI SWAP1 JUMP JUMPDEST PUSH1 0x20 SWAP1 PUSH1 0x20 PUSH1 0x40 DUP2 DUP4 ADD SWAP3 DUP3 DUP2 MSTORE DUP6 MLOAD DUP1 SWAP5 MSTORE ADD SWAP4 ADD SWAP2 PUSH0 JUMPDEST DUP3 DUP2 LT PUSH2 0x34EC JUMPI POP POP POP POP SWAP1 JUMP JUMPDEST DUP4 MLOAD DUP6 MSTORE SWAP4 DUP2 ADD SWAP4 SWAP3 DUP2 ADD SWAP3 PUSH1 0x1 ADD PUSH2 0x34DE JUMP JUMPDEST SWAP1 PUSH1 0x1 DUP3 DUP2 SHR SWAP3 AND DUP1 ISZERO PUSH2 0x352E JUMPI JUMPDEST PUSH1 0x20 DUP4 LT EQ PUSH2 0x351A JUMPI JUMP JUMPDEST PUSH4 0x4E487B71 PUSH1 0xE0 SHL PUSH0 MSTORE PUSH1 0x22 PUSH1 0x4 MSTORE PUSH1 0x24 PUSH0 REVERT JUMPDEST SWAP2 PUSH1 0x7F AND SWAP2 PUSH2 0x350F JUMP JUMPDEST SWAP1 PUSH1 0x40 MLOAD SWAP2 DUP3 PUSH0 DUP3 SLOAD PUSH2 0x354A DUP2 PUSH2 0x3500 JUMP JUMPDEST SWAP1 DUP2 DUP5 MSTORE PUSH1 0x20 SWAP5 PUSH1 0x1 SWAP2 PUSH1 0x1 DUP2 AND SWAP1 DUP2 PUSH0 EQ PUSH2 0x35B8 JUMPI POP PUSH1 0x1 EQ PUSH2 0x357A JUMPI JUMPDEST POP POP POP PUSH2 0x3578 SWAP3 POP SUB DUP4 PUSH2 0x3400 JUMP JUMPDEST JUMP JUMPDEST PUSH0 SWAP1 DUP2 MSTORE DUP6 DUP2 KECCAK256 SWAP6 SWAP4 POP SWAP2 SWAP1 JUMPDEST DUP2 DUP4 LT PUSH2 0x35A0 JUMPI POP POP PUSH2 0x3578 SWAP4 POP DUP3 ADD ADD PUSH0 DUP1 DUP1 PUSH2 0x3569 JUMP JUMPDEST DUP6 SLOAD DUP9 DUP5 ADD DUP6 ADD MSTORE SWAP5 DUP6 ADD SWAP5 DUP8 SWAP5 POP SWAP2 DUP4 ADD SWAP2 PUSH2 0x3587 JUMP JUMPDEST SWAP3 POP POP POP PUSH2 0x3578 SWAP5 SWAP3 POP PUSH1 0xFF NOT AND DUP3 DUP5 ADD MSTORE ISZERO ISZERO PUSH1 0x5 SHL DUP3 ADD ADD PUSH0 DUP1 DUP1 PUSH2 0x3569 JUMP JUMPDEST PUSH0 JUMPDEST DUP4 DUP2 LT PUSH2 0x35EB JUMPI POP POP PUSH0 SWAP2 ADD MSTORE JUMP JUMPDEST DUP2 DUP2 ADD MLOAD DUP4 DUP3 ADD MSTORE PUSH1 0x20 ADD PUSH2 0x35DC JUMP JUMPDEST SWAP1 PUSH1 0x20 SWAP2 PUSH2 0x3614 DUP2 MLOAD DUP1 SWAP3 DUP2 DUP6 MSTORE DUP6 DUP1 DUP7 ADD SWAP2 ADD PUSH2 0x35DA JUMP JUMPDEST PUSH1 0x1F ADD PUSH1 0x1F NOT AND ADD ADD SWAP1 JUMP JUMPDEST SWAP1 PUSH2 0x3638 PUSH1 0x20 SWAP2 SWAP5 SWAP4 SWAP5 PUSH1 0x40 DUP5 MSTORE PUSH1 0x40 DUP5 ADD SWAP1 PUSH2 0x35FB JUMP JUMPDEST SWAP4 ISZERO ISZERO SWAP2 ADD MSTORE JUMP JUMPDEST PUSH1 0x60 PUSH1 0x3 NOT DUP3 ADD SLT PUSH2 0x326 JUMPI PUSH1 0x1 PUSH1 0x1 PUSH1 0x40 SHL SUB SWAP2 PUSH1 0x4 CALLDATALOAD DUP4 DUP2 GT PUSH2 0x326 JUMPI DUP3 PUSH2 0x366C SWAP2 PUSH1 0x4 ADD PUSH2 0x3466 JUMP JUMPDEST SWAP3 PUSH1 0x24 CALLDATALOAD PUSH1 0x1 PUSH1 0x1 PUSH1 0xA0 SHL SUB DUP2 AND DUP2 SUB PUSH2 0x326 JUMPI SWAP3 PUSH1 0x44 CALLDATALOAD SWAP2 DUP3 GT PUSH2 0x326 JUMPI PUSH2 0x3481 SWAP2 PUSH1 0x4 ADD PUSH2 0x3466 JUMP JUMPDEST PUSH1 0x40 SWAP1 PUSH1 0x3 NOT ADD SLT PUSH2 0x326 JUMPI PUSH1 0x4 CALLDATALOAD SWAP1 PUSH1 0x24 CALLDATALOAD SWAP1 JUMP JUMPDEST PUSH1 0x1 PUSH1 0x1 PUSH1 0x40 SHL SUB DUP2 GT PUSH2 0x33D1 JUMPI PUSH1 0x5 SHL PUSH1 0x20 ADD SWAP1 JUMP JUMPDEST DUP2 PUSH1 0x1F DUP3 ADD SLT ISZERO PUSH2 0x326 JUMPI DUP1 CALLDATALOAD SWAP2 PUSH1 0x20 SWAP2 PUSH2 0x36DE DUP5 PUSH2 0x36AD JUMP JUMPDEST SWAP4 PUSH2 0x36EC PUSH1 0x40 MLOAD SWAP6 DUP7 PUSH2 0x3400 JUMP JUMPDEST DUP1 DUP6 MSTORE DUP4 DUP1 DUP7 ADD SWAP2 PUSH1 0x5 SHL DUP4 ADD ADD SWAP3 DUP1 DUP5 GT PUSH2 0x326 JUMPI DUP5 DUP4 ADD SWAP2 JUMPDEST DUP5 DUP4 LT PUSH2 0x3717 JUMPI POP POP POP POP POP POP SWAP1 JUMP JUMPDEST DUP3 CALLDATALOAD PUSH1 0x1 PUSH1 0x1 PUSH1 0x40 SHL SUB DUP2 GT PUSH2 0x326 JUMPI DUP7 SWAP2 PUSH2 0x3738 DUP5 DUP5 DUP1 SWAP5 DUP10 ADD ADD PUSH2 0x3466 JUMP JUMPDEST DUP2 MSTORE ADD SWAP3 ADD SWAP2 PUSH2 0x3707 JUMP JUMPDEST PUSH1 0x40 PUSH1 0x3 NOT DUP3 ADD SLT PUSH2 0x326 JUMPI PUSH1 0x4 CALLDATALOAD SWAP1 PUSH1 0x1 PUSH1 0x1 PUSH1 0x40 SHL SUB DUP3 GT PUSH2 0x326 JUMPI PUSH2 0x376D SWAP2 PUSH1 0x4 ADD PUSH2 0x3466 JUMP JUMPDEST SWAP1 PUSH1 0x24 CALLDATALOAD SWAP1 JUMP JUMPDEST SWAP1 PUSH1 0x5 DUP3 LT ISZERO PUSH2 0x3781 JUMPI MSTORE JUMP JUMPDEST PUSH4 0x4E487B71 PUSH1 0xE0 SHL PUSH0 MSTORE PUSH1 0x21 PUSH1 0x4 MSTORE PUSH1 0x24 PUSH0 REVERT JUMPDEST SWAP1 PUSH1 0x3 DUP3 LT ISZERO PUSH2 0x3781 JUMPI MSTORE JUMP JUMPDEST SWAP1 SWAP3 SWAP2 PUSH1 0x40 DUP3 ADD SWAP4 PUSH1 0x4 DUP2 LT ISZERO PUSH2 0x3781 JUMPI DUP3 MSTORE PUSH2 0x3578 SWAP2 PUSH1 0x20 ADD SWAP1 PUSH2 0x3795 JUMP JUMPDEST DUP1 SLOAD DUP3 LT ISZERO PUSH2 0x37D7 JUMPI PUSH0 MSTORE PUSH1 0x20 PUSH0 KECCAK256 ADD SWAP1 PUSH0 SWAP1 JUMP JUMPDEST PUSH4 0x4E487B71 PUSH1 0xE0 SHL PUSH0 MSTORE PUSH1 0x32 PUSH1 0x4 MSTORE PUSH1 0x24 PUSH0 REVERT JUMPDEST PUSH1 0x60 PUSH1 0x3 NOT DUP3 ADD SLT PUSH2 0x326 JUMPI PUSH1 0x1 PUSH1 0x1 PUSH1 0x40 SHL SUB SWAP2 PUSH1 0x4 CALLDATALOAD DUP4 DUP2 GT PUSH2 0x326 JUMPI DUP3 PUSH2 0x3817 SWAP2 PUSH1 0x4 ADD PUSH2 0x36C4 JUMP JUMPDEST SWAP3 PUSH1 0x24 CALLDATALOAD PUSH1 0x1 PUSH1 0x1 PUSH1 0xA0 SHL SUB DUP2 AND DUP2 SUB PUSH2 0x326 JUMPI SWAP3 PUSH1 0x44 CALLDATALOAD SWAP2 DUP3 GT PUSH2 0x326 JUMPI PUSH2 0x3481 SWAP2 PUSH1 0x4 ADD PUSH2 0x36C4 JUMP JUMPDEST ISZERO PUSH2 0x3849 JUMPI JUMP JUMPDEST PUSH1 0x40 MLOAD PUSH3 0x461BCD PUSH1 0xE5 SHL DUP2 MSTORE PUSH1 0x20 PUSH1 0x4 DUP3 ADD MSTORE PUSH1 0xA PUSH1 0x24 DUP3 ADD MSTORE PUSH10 0x27B7363C9030B236B4B7 PUSH1 0xB1 SHL PUSH1 0x44 DUP3 ADD MSTORE PUSH1 0x64 SWAP1 REVERT JUMPDEST ISZERO PUSH2 0x3882 JUMPI JUMP JUMPDEST PUSH1 0x40 MLOAD PUSH3 0x461BCD PUSH1 0xE5 SHL DUP2 MSTORE PUSH1 0x20 PUSH1 0x4 DUP3 ADD MSTORE PUSH1 0x15 PUSH1 0x24 DUP3 ADD MSTORE PUSH21 0x15D85B1B195D081B9BDD081C9959DA5CDD195C9959 PUSH1 0x5A SHL PUSH1 0x44 DUP3 ADD MSTORE PUSH1 0x64 SWAP1 REVERT JUMPDEST PUSH1 0x1 PUSH1 0x1 PUSH1 0xA0 SHL SUB SWAP1 SWAP2 AND PUSH0 SWAP1 DUP2 MSTORE PUSH1 0x1 PUSH1 0x20 MSTORE PUSH1 0x40 SWAP1 KECCAK256 SLOAD DUP1 ISZERO PUSH2 0x38FC JUMPI PUSH2 0x38E7 SWAP2 PUSH2 0x421A JUMP JUMPDEST PUSH0 MSTORE PUSH1 0x6 PUSH1 0x20 MSTORE PUSH1 0xFF PUSH1 0x1 PUSH1 0x40 PUSH0 KECCAK256 ADD SLOAD AND SWAP1 JUMP JUMPDEST POP POP PUSH0 SWAP1 JUMP JUMPDEST ISZERO PUSH2 0x3909 JUMPI JUMP JUMPDEST PUSH1 0x40 MLOAD PUSH3 0x461BCD PUSH1 0xE5 SHL DUP2 MSTORE PUSH1 0x20 PUSH1 0x4 DUP3 ADD MSTORE PUSH1 0x14 PUSH1 0x24 DUP3 ADD MSTORE PUSH20 0x2737BA1030B71030B1BA34BB329036B2B6B132B9 PUSH1 0x61 SHL PUSH1 0x44 DUP3 ADD MSTORE PUSH1 0x64 SWAP1 REVERT JUMPDEST PUSH1 0x4 DUP3 LT ISZERO PUSH2 0x3781 JUMPI MSTORE JUMP JUMPDEST PUSH1 0x3 DUP3 LT ISZERO PUSH2 0x3781 JUMPI MSTORE JUMP JUMPDEST ISZERO PUSH2 0x3964 JUMPI JUMP JUMPDEST PUSH1 0x40 MLOAD PUSH3 0x461BCD PUSH1 0xE5 SHL DUP2 MSTORE PUSH1 0x20 PUSH1 0x4 DUP3 ADD MSTORE PUSH1 0x19 PUSH1 0x24 DUP3 ADD MSTORE PUSH32 0x5265636F72642049442063616E6E6F7420626520656D70747900000000000000 PUSH1 0x44 DUP3 ADD MSTORE PUSH1 0x64 SWAP1 REVERT JUMPDEST ISZERO PUSH2 0x39B0 JUMPI JUMP JUMPDEST PUSH1 0x40 MLOAD PUSH3 0x461BCD PUSH1 0xE5 SHL DUP2 MSTORE PUSH1 0x20 PUSH1 0x4 DUP3 ADD MSTORE PUSH1 0x16 PUSH1 0x24 DUP3 ADD MSTORE PUSH22 0x496E76616C69642077616C6C65742061646472657373 PUSH1 0x50 SHL PUSH1 0x44 DUP3 ADD MSTORE PUSH1 0x64 SWAP1 REVERT JUMPDEST ISZERO PUSH2 0x39F5 JUMPI JUMP JUMPDEST PUSH1 0x40 MLOAD PUSH3 0x461BCD PUSH1 0xE5 SHL DUP2 MSTORE PUSH1 0x20 PUSH1 0x4 DUP3 ADD MSTORE PUSH1 0x13 PUSH1 0x24 DUP3 ADD MSTORE PUSH19 0x496E76616C696420726F6C6520737472696E67 PUSH1 0x68 SHL PUSH1 0x44 DUP3 ADD MSTORE PUSH1 0x64 SWAP1 REVERT JUMPDEST DUP1 SLOAD SWAP1 PUSH1 0x1 PUSH1 0x40 SHL DUP3 LT ISZERO PUSH2 0x33D1 JUMPI DUP2 PUSH2 0x3A52 SWAP2 PUSH1 0x1 PUSH2 0x3A68 SWAP5 ADD DUP2 SSTORE PUSH2 0x37C2 JUMP JUMPDEST DUP2 SWAP4 SWAP2 SLOAD SWAP1 PUSH1 0x3 SHL SWAP2 DUP3 SHL SWAP2 PUSH0 NOT SWAP1 SHL NOT AND OR SWAP1 JUMP JUMPDEST SWAP1 SSTORE JUMP JUMPDEST PUSH0 NOT DUP2 EQ PUSH2 0x3A7A JUMPI PUSH1 0x1 ADD SWAP1 JUMP JUMPDEST PUSH4 0x4E487B71 PUSH1 0xE0 SHL PUSH0 MSTORE PUSH1 0x11 PUSH1 0x4 MSTORE PUSH1 0x24 PUSH0 REVERT JUMPDEST DUP1 MLOAD DUP3 LT ISZERO PUSH2 0x37D7 JUMPI PUSH1 0x20 SWAP2 PUSH1 0x5 SHL ADD ADD SWAP1 JUMP JUMPDEST ISZERO PUSH2 0x3AA9 JUMPI JUMP JUMPDEST PUSH1 0x40 MLOAD PUSH3 0x461BCD PUSH1 0xE5 SHL DUP2 MSTORE PUSH1 0x20 PUSH1 0x4 DUP3 ADD MSTORE PUSH1 0x1D PUSH1 0x24 DUP3 ADD MSTORE PUSH32 0x57616C6C657420616464726573732063616E6E6F74206265207A65726F000000 PUSH1 0x44 DUP3 ADD MSTORE PUSH1 0x64 SWAP1 REVERT JUMPDEST ISZERO PUSH2 0x3AF5 JUMPI JUMP JUMPDEST PUSH1 0x40 MLOAD PUSH3 0x461BCD PUSH1 0xE5 SHL DUP2 MSTORE PUSH1 0x20 PUSH1 0x4 DUP3 ADD MSTORE PUSH1 0x1C PUSH1 0x24 DUP3 ADD MSTORE PUSH32 0x5461726765742077616C6C6574206E6F74207265676973746572656400000000 PUSH1 0x44 DUP3 ADD MSTORE PUSH1 0x64 SWAP1 REVERT JUMPDEST ISZERO PUSH2 0x3B41 JUMPI JUMP JUMPDEST PUSH1 0x40 MLOAD PUSH3 0x461BCD PUSH1 0xE5 SHL DUP2 MSTORE PUSH1 0x20 PUSH1 0x4 DUP3 ADD MSTORE PUSH1 0x23 PUSH1 0x24 DUP3 ADD MSTORE PUSH32 0x54617267657420646F6573206E6F74206861766520616E206163746976652072 PUSH1 0x44 DUP3 ADD MSTORE PUSH3 0x6F6C65 PUSH1 0xE8 SHL PUSH1 0x64 DUP3 ADD MSTORE PUSH1 0x84 SWAP1 REVERT JUMPDEST PUSH1 0x40 MLOAD SWAP1 PUSH2 0x3B9F DUP3 PUSH2 0x33B6 JUMP JUMPDEST PUSH1 0x5 DUP3 MSTORE PUSH5 0x37BBB732B9 PUSH1 0xD9 SHL PUSH1 0x20 DUP4 ADD MSTORE JUMP JUMPDEST PUSH1 0x40 MLOAD SWAP1 PUSH2 0x3BC0 DUP3 PUSH2 0x33B6 JUMP JUMPDEST PUSH1 0xD DUP3 MSTORE PUSH13 0x30B236B4B734B9BA3930BA37B9 PUSH1 0x99 SHL PUSH1 0x20 DUP4 ADD MSTORE JUMP JUMPDEST PUSH1 0x40 MLOAD SWAP1 PUSH2 0x3BE9 DUP3 PUSH2 0x33B6 JUMP JUMPDEST PUSH1 0x6 DUP3 MSTORE PUSH6 0x3B34B2BBB2B9 PUSH1 0xD1 SHL PUSH1 0x20 DUP4 ADD MSTORE JUMP JUMPDEST PUSH2 0x3C16 SWAP1 PUSH1 0x20 PUSH1 0x40 MLOAD SWAP3 DUP3 DUP5 DUP1 SWAP5 MLOAD SWAP4 DUP5 SWAP3 ADD PUSH2 0x35DA JUMP JUMPDEST DUP2 ADD SUB SWAP1 KECCAK256 SWAP1 JUMP JUMPDEST ISZERO PUSH2 0x3C25 JUMPI JUMP JUMPDEST PUSH1 0x40 MLOAD PUSH3 0x461BCD PUSH1 0xE5 SHL DUP2 MSTORE PUSH1 0x20 PUSH1 0x4 DUP3 ADD MSTORE PUSH1 0xF PUSH1 0x24 DUP3 ADD MSTORE PUSH15 0x496E76616C69642061646472657373 PUSH1 0x88 SHL PUSH1 0x44 DUP3 ADD MSTORE PUSH1 0x64 SWAP1 REVERT JUMPDEST PUSH1 0x1 PUSH1 0x1 PUSH1 0xA0 SHL SUB SWAP1 SWAP2 AND PUSH0 SWAP1 DUP2 MSTORE PUSH1 0x1 PUSH1 0x20 MSTORE PUSH1 0x40 SWAP1 KECCAK256 SLOAD SWAP1 DUP2 ISZERO PUSH2 0x38FC JUMPI PUSH2 0x3C8E PUSH2 0x3C87 PUSH2 0x3B92 JUMP JUMPDEST DUP4 DUP4 PUSH2 0x4255 JUMP JUMPDEST SWAP2 DUP3 ISZERO PUSH2 0x3C9A JUMPI POP POP SWAP1 JUMP JUMPDEST PUSH2 0x3481 SWAP3 POP PUSH2 0x3CA7 PUSH2 0x3BB3 JUMP JUMPDEST SWAP2 PUSH2 0x4255 JUMP JUMPDEST ISZERO PUSH2 0x3CB4 JUMPI JUMP JUMPDEST PUSH1 0x40 MLOAD PUSH3 0x461BCD PUSH1 0xE5 SHL DUP2 MSTORE PUSH1 0x20 PUSH1 0x4 DUP3 ADD MSTORE PUSH1 0x15 PUSH1 0x24 DUP3 ADD MSTORE PUSH21 0x82E4E4C2F240D8CADCCEE8D040DAD2E6DAC2E8C6D PUSH1 0x5B SHL PUSH1 0x44 DUP3 ADD MSTORE PUSH1 0x64 SWAP1 REVERT JUMPDEST SWAP4 SWAP3 SWAP2 PUSH2 0x3D1A SWAP1 PUSH2 0x3D0C PUSH1 0x40 SWAP4 PUSH1 0x60 DUP9 MSTORE PUSH1 0x60 DUP9 ADD SWAP1 PUSH2 0x35FB JUMP JUMPDEST SWAP1 DUP7 DUP3 SUB PUSH1 0x20 DUP9 ADD MSTORE PUSH2 0x35FB JUMP JUMPDEST SWAP4 ADD MSTORE JUMP JUMPDEST SWAP2 SWAP1 PUSH1 0x1 DUP1 PUSH1 0xA0 SHL SUB AND PUSH0 MSTORE PUSH1 0x1 PUSH1 0x20 MSTORE PUSH1 0x40 PUSH0 KECCAK256 SLOAD DUP1 ISZERO PUSH2 0x3D44 JUMPI PUSH2 0x3481 SWAP3 PUSH2 0x4255 JUMP JUMPDEST POP POP POP PUSH0 SWAP1 JUMP JUMPDEST PUSH1 0x1 PUSH1 0x1 PUSH1 0xA0 SHL SUB SWAP1 SWAP2 AND PUSH0 SWAP1 DUP2 MSTORE PUSH1 0x1 PUSH1 0x20 MSTORE PUSH1 0x40 SWAP1 KECCAK256 SLOAD SWAP1 DUP2 ISZERO PUSH2 0x3DAD JUMPI PUSH1 0x20 SWAP3 SWAP2 PUSH2 0x3D78 SWAP2 PUSH2 0x421A JUMP JUMPDEST PUSH0 MSTORE PUSH1 0x6 DUP3 MSTORE PUSH1 0x40 PUSH0 KECCAK256 PUSH1 0x40 MLOAD PUSH2 0x3D8E DUP2 PUSH2 0x33B6 JUMP JUMPDEST PUSH1 0xFF PUSH1 0x1 PUSH2 0x3D9B DUP5 PUSH2 0x3538 JUMP JUMPDEST SWAP4 DUP5 DUP5 MSTORE ADD SLOAD AND ISZERO ISZERO SWAP4 DUP5 SWAP2 ADD MSTORE SWAP2 SWAP1 JUMP JUMPDEST POP POP PUSH1 0x40 MLOAD PUSH2 0x3DBB DUP2 PUSH2 0x33E5 JUMP JUMPDEST PUSH0 DUP2 MSTORE SWAP1 PUSH0 SWAP1 JUMP JUMPDEST SWAP1 PUSH2 0x38E7 SWAP2 PUSH2 0x421A JUMP JUMPDEST PUSH1 0x1 PUSH1 0x1 PUSH1 0xA0 SHL SUB AND PUSH0 SWAP1 DUP2 MSTORE PUSH1 0x1 PUSH1 0x20 MSTORE PUSH1 0x40 SWAP1 KECCAK256 DUP1 SLOAD SWAP1 DUP2 ISZERO SWAP1 DUP2 ISZERO PUSH2 0x3E28 JUMPI JUMPDEST POP PUSH2 0x3E23 JUMPI PUSH0 MSTORE PUSH1 0x2 PUSH1 0x20 MSTORE PUSH1 0xFF PUSH1 0x40 PUSH0 KECCAK256 SLOAD AND PUSH1 0x5 DUP2 LT ISZERO PUSH2 0x3781 JUMPI PUSH1 0x1 DUP2 EQ ISZERO SWAP1 DUP2 PUSH2 0x3E1C JUMPI POP SWAP1 JUMP JUMPDEST SWAP1 POP ISZERO ISZERO SWAP1 JUMP JUMPDEST POP PUSH0 SWAP1 JUMP JUMPDEST PUSH1 0xFF SWAP2 POP PUSH1 0x1 ADD SLOAD AND ISZERO PUSH0 PUSH2 0x3DF0 JUMP JUMPDEST PUSH1 0x1 PUSH1 0x1 PUSH1 0xA0 SHL SUB AND PUSH0 SWAP1 DUP2 MSTORE PUSH1 0x1 PUSH1 0x20 MSTORE PUSH1 0x40 SWAP1 KECCAK256 DUP1 SLOAD SWAP1 DUP2 ISZERO SWAP1 DUP2 ISZERO PUSH2 0x3E7E JUMPI JUMPDEST POP PUSH2 0x3E23 JUMPI PUSH0 MSTORE PUSH1 0x2 PUSH1 0x20 MSTORE PUSH1 0xFF PUSH1 0x40 PUSH0 KECCAK256 SLOAD AND PUSH1 0x5 DUP2 LT ISZERO PUSH2 0x3781 JUMPI PUSH1 0x4 EQ SWAP1 JUMP JUMPDEST PUSH1 0xFF SWAP2 POP PUSH1 0x1 ADD SLOAD AND ISZERO PUSH0 PUSH2 0x3E5B JUMP JUMPDEST PUSH1 0x20 DUP2 MLOAD SWAP2 ADD KECCAK256 PUSH2 0x3E9D PUSH2 0x3B92 JUMP JUMPDEST PUSH1 0x20 DUP2 MLOAD SWAP2 ADD KECCAK256 DUP2 EQ SWAP1 DUP2 ISZERO PUSH2 0x3ECD JUMPI JUMPDEST DUP2 ISZERO PUSH2 0x3EB8 JUMPI POP SWAP1 JUMP JUMPDEST SWAP1 POP PUSH2 0x3EC2 PUSH2 0x3BDC JUMP JUMPDEST PUSH1 0x20 DUP2 MLOAD SWAP2 ADD KECCAK256 EQ SWAP1 JUMP JUMPDEST SWAP1 POP PUSH2 0x3ED7 PUSH2 0x3BB3 JUMP JUMPDEST PUSH1 0x20 DUP2 MLOAD SWAP2 ADD KECCAK256 DUP2 EQ SWAP1 PUSH2 0x3EAE JUMP JUMPDEST SWAP2 SWAP1 SWAP2 DUP3 MLOAD PUSH1 0x1 PUSH1 0x1 PUSH1 0x40 SHL SUB DUP2 GT PUSH2 0x33D1 JUMPI PUSH2 0x3F03 DUP3 SLOAD PUSH2 0x3500 JUMP JUMPDEST PUSH1 0x1F DUP2 GT PUSH2 0x3FA8 JUMPI JUMPDEST POP PUSH1 0x20 DUP1 PUSH1 0x1F DUP4 GT PUSH1 0x1 EQ PUSH2 0x3F47 JUMPI POP DUP2 SWAP3 SWAP4 SWAP5 PUSH0 SWAP3 PUSH2 0x3F3C JUMPI JUMPDEST POP POP DUP2 PUSH1 0x1 SHL SWAP2 PUSH0 NOT SWAP1 PUSH1 0x3 SHL SHR NOT AND OR SWAP1 SSTORE JUMP JUMPDEST ADD MLOAD SWAP1 POP PUSH0 DUP1 PUSH2 0x3F27 JUMP JUMPDEST SWAP1 PUSH1 0x1F NOT DUP4 AND SWAP6 DUP5 PUSH0 MSTORE PUSH1 0x20 PUSH0 KECCAK256 SWAP3 PUSH0 SWAP1 JUMPDEST DUP9 DUP3 LT PUSH2 0x3F90 JUMPI POP POP DUP4 PUSH1 0x1 SWAP6 SWAP7 SWAP8 LT PUSH2 0x3F78 JUMPI JUMPDEST POP POP POP DUP2 SHL ADD SWAP1 SSTORE JUMP JUMPDEST ADD MLOAD PUSH0 NOT PUSH1 0xF8 DUP5 PUSH1 0x3 SHL AND SHR NOT AND SWAP1 SSTORE PUSH0 DUP1 DUP1 PUSH2 0x3F6E JUMP JUMPDEST DUP1 PUSH1 0x1 DUP6 SWAP7 DUP3 SWAP5 SWAP7 DUP7 ADD MLOAD DUP2 SSTORE ADD SWAP6 ADD SWAP4 ADD SWAP1 PUSH2 0x3F59 JUMP JUMPDEST DUP3 PUSH0 MSTORE PUSH1 0x20 PUSH0 KECCAK256 PUSH1 0x1F DUP4 ADD PUSH1 0x5 SHR DUP2 ADD SWAP2 PUSH1 0x20 DUP5 LT PUSH2 0x3FE3 JUMPI JUMPDEST PUSH1 0x1F ADD PUSH1 0x5 SHR ADD SWAP1 JUMPDEST DUP2 DUP2 LT PUSH2 0x3FD8 JUMPI POP PUSH2 0x3F0C JUMP JUMPDEST PUSH0 DUP2 SSTORE PUSH1 0x1 ADD PUSH2 0x3FCB JUMP JUMPDEST SWAP1 SWAP2 POP DUP2 SWAP1 PUSH2 0x3FC2 JUMP JUMPDEST SWAP2 SWAP1 SWAP2 PUSH2 0x3FFA DUP4 DUP3 PUSH2 0x421A JUMP JUMPDEST SWAP2 DUP3 PUSH0 MSTORE PUSH1 0x20 SWAP3 PUSH1 0x6 DUP5 MSTORE PUSH1 0x40 SWAP1 DUP2 PUSH0 KECCAK256 SWAP1 PUSH2 0x4015 DUP3 PUSH2 0x3538 JUMP JUMPDEST SWAP1 PUSH1 0xFF PUSH1 0x1 DUP4 MLOAD ISZERO SWAP5 ADD SLOAD AND SWAP1 PUSH2 0x4050 DUP6 MLOAD PUSH2 0x4030 DUP2 PUSH2 0x33B6 JUMP JUMPDEST DUP8 DUP2 MSTORE PUSH1 0x1 DUP11 DUP3 ADD DUP2 DUP2 MSTORE DUP5 PUSH0 MSTORE PUSH1 0x6 DUP13 MSTORE PUSH2 0x2D9D DUP10 PUSH0 KECCAK256 SWAP4 MLOAD DUP5 PUSH2 0x3EE6 JUMP JUMPDEST PUSH0 MSTORE PUSH1 0xD DUP8 MSTORE DUP9 DUP5 PUSH0 KECCAK256 SSTORE ISZERO PUSH0 EQ PUSH2 0x4119 JUMPI POP PUSH2 0x406E DUP4 DUP8 DUP7 PUSH2 0x44C4 JUMP JUMPDEST PUSH2 0x40A9 JUMPI JUMPDEST PUSH2 0x408A PUSH0 DUP1 MLOAD PUSH1 0x20 PUSH2 0x46B5 DUP4 CODECOPY DUP2 MLOAD SWAP2 MSTORE SWAP4 PUSH2 0x3BFE JUMP JUMPDEST SWAP4 PUSH2 0x409E DUP3 MLOAD SWAP4 DUP4 DUP6 SWAP5 DUP6 MSTORE DUP5 ADD SWAP1 PUSH2 0x35FB JUMP JUMPDEST SWAP1 TIMESTAMP SWAP1 DUP4 ADD MSTORE SUB SWAP1 LOG4 JUMP JUMPDEST DUP5 PUSH0 MSTORE PUSH1 0xA DUP5 MSTORE DUP1 PUSH0 KECCAK256 DUP1 SLOAD PUSH1 0x1 PUSH1 0x40 SHL DUP2 LT ISZERO PUSH2 0x33D1 JUMPI PUSH2 0x40D0 SWAP2 PUSH1 0x1 DUP3 ADD DUP2 SSTORE PUSH2 0x37C2 JUMP JUMPDEST PUSH2 0x4106 JUMPI DUP4 PUSH2 0x40F0 PUSH0 DUP1 MLOAD PUSH1 0x20 PUSH2 0x46B5 DUP4 CODECOPY DUP2 MLOAD SWAP2 MSTORE SWAP6 PUSH2 0x408A SWAP4 PUSH2 0x3EE6 JUMP JUMPDEST PUSH2 0x40FB PUSH1 0xB SLOAD PUSH2 0x3A6C JUMP JUMPDEST PUSH1 0xB SSTORE SWAP4 POP POP PUSH2 0x4073 JUMP JUMPDEST PUSH4 0x4E487B71 PUSH1 0xE0 SHL PUSH0 MSTORE PUSH0 PUSH1 0x4 MSTORE PUSH1 0x24 PUSH0 REVERT JUMPDEST SWAP7 POP POP POP SWAP3 SWAP2 DUP5 MLOAD DUP2 DUP7 ADD KECCAK256 SWAP1 DUP5 MLOAD SWAP1 DUP6 ADD KECCAK256 SUB PUSH2 0x4138 JUMPI JUMPDEST POP POP POP POP JUMP JUMPDEST PUSH2 0x2EAA PUSH2 0x4146 SWAP5 DUP4 DUP4 PUSH2 0x42B3 JUMP JUMPDEST PUSH0 DUP1 DUP1 DUP1 PUSH2 0x4132 JUMP JUMPDEST PUSH1 0x3 DUP4 LT ISZERO PUSH2 0x3781 JUMPI DUP3 ISZERO PUSH2 0x419A JUMPI PUSH1 0x1 SWAP2 PUSH2 0x416A SWAP2 PUSH2 0x4417 JUMP JUMPDEST SWAP2 EQ PUSH2 0x4173 JUMPI SWAP1 JUMP JUMPDEST DUP1 MLOAD PUSH1 0x20 DUP3 ADD KECCAK256 PUSH2 0x4182 PUSH2 0x3B92 JUMP JUMPDEST PUSH1 0x20 DUP2 MLOAD SWAP2 ADD KECCAK256 EQ PUSH2 0x4191 JUMPI SWAP1 JUMP JUMPDEST POP PUSH2 0x3481 PUSH2 0x3BB3 JUMP JUMPDEST POP POP POP PUSH2 0x3481 PUSH2 0x3BDC JUMP JUMPDEST SWAP4 SWAP3 SWAP4 PUSH0 JUMPDEST DUP2 MLOAD DUP2 LT ISZERO PUSH2 0x4212 JUMPI DUP1 PUSH2 0x41C3 PUSH2 0x16AE PUSH1 0x1 SWAP4 DUP8 PUSH2 0x3A8E JUMP JUMPDEST ISZERO PUSH2 0x420D JUMPI PUSH2 0x41D6 DUP8 PUSH2 0x16C7 DUP4 DUP7 PUSH2 0x3A8E JUMP JUMPDEST ISZERO PUSH2 0x420D JUMPI PUSH2 0x41E9 DUP5 PUSH2 0x16C7 DUP4 DUP7 PUSH2 0x3A8E JUMP JUMPDEST PUSH2 0x420D JUMPI PUSH2 0x4207 DUP8 PUSH2 0x41FB DUP4 DUP7 PUSH2 0x3A8E JUMP JUMPDEST MLOAD DUP7 PUSH2 0x1726 DUP6 DUP11 PUSH2 0x3A8E JUMP JUMPDEST ADD PUSH2 0x41AA JUMP JUMPDEST PUSH2 0x4207 JUMP JUMPDEST POP POP POP POP SWAP1 POP JUMP JUMPDEST SWAP1 PUSH2 0x424F PUSH1 0x40 DUP1 MLOAD DUP1 SWAP4 PUSH1 0x20 PUSH2 0x4239 DUP2 DUP5 ADD SWAP8 DUP9 DUP2 MLOAD SWAP4 DUP5 SWAP3 ADD PUSH2 0x35DA JUMP JUMPDEST DUP3 ADD SWAP1 PUSH1 0x20 DUP3 ADD MSTORE SUB PUSH1 0x20 DUP2 ADD DUP5 MSTORE ADD DUP3 PUSH2 0x3400 JUMP JUMPDEST MLOAD SWAP1 KECCAK256 SWAP1 JUMP JUMPDEST PUSH1 0x20 SWAP3 SWAP2 PUSH2 0x4262 SWAP2 PUSH2 0x421A JUMP JUMPDEST PUSH0 MSTORE PUSH1 0x6 DUP3 MSTORE PUSH1 0x40 PUSH0 KECCAK256 PUSH1 0x40 MLOAD PUSH2 0x4278 DUP2 PUSH2 0x33B6 JUMP JUMPDEST PUSH1 0xFF PUSH1 0x1 PUSH2 0x4285 DUP5 PUSH2 0x3538 JUMP JUMPDEST SWAP4 DUP5 DUP5 MSTORE ADD SLOAD AND ISZERO ISZERO SWAP4 DUP5 SWAP2 ADD MSTORE DUP3 PUSH2 0x429D JUMPI POP POP SWAP1 JUMP JUMPDEST SWAP1 SWAP2 POP PUSH1 0x20 DUP2 MLOAD SWAP2 ADD KECCAK256 SWAP1 PUSH1 0x20 DUP2 MLOAD SWAP2 ADD KECCAK256 EQ SWAP1 JUMP JUMPDEST DUP3 MLOAD PUSH1 0x20 DUP1 SWAP5 ADD KECCAK256 PUSH2 0x42C3 PUSH2 0x3B92 JUMP JUMPDEST DUP1 MLOAD SWAP1 DUP6 ADD KECCAK256 DUP2 SUB PUSH2 0x42FA JUMPI POP DUP3 PUSH2 0x42EB SWAP2 PUSH2 0x3578 SWAP5 PUSH1 0x40 MLOAD SWAP4 DUP3 DUP6 DUP1 SWAP5 MLOAD SWAP4 DUP5 SWAP3 ADD PUSH2 0x35DA JUMP JUMPDEST DUP2 ADD PUSH1 0x7 DUP2 MSTORE SUB ADD SWAP1 KECCAK256 PUSH2 0x458C JUMP JUMPDEST PUSH2 0x4302 PUSH2 0x3BB3 JUMP JUMPDEST DUP1 MLOAD SWAP1 DUP6 ADD KECCAK256 DUP2 SUB PUSH2 0x4339 JUMPI POP DUP3 PUSH2 0x432A SWAP2 PUSH2 0x3578 SWAP5 PUSH1 0x40 MLOAD SWAP4 DUP3 DUP6 DUP1 SWAP5 MLOAD SWAP4 DUP5 SWAP3 ADD PUSH2 0x35DA JUMP JUMPDEST DUP2 ADD PUSH1 0x8 DUP2 MSTORE SUB ADD SWAP1 KECCAK256 PUSH2 0x458C JUMP JUMPDEST PUSH2 0x4341 PUSH2 0x3BDC JUMP JUMPDEST DUP5 DUP2 MLOAD SWAP2 ADD KECCAK256 EQ PUSH2 0x4351 JUMPI POP POP POP JUMP JUMPDEST DUP3 PUSH2 0x436C SWAP2 PUSH2 0x3578 SWAP5 PUSH1 0x40 MLOAD SWAP4 DUP3 DUP6 DUP1 SWAP5 MLOAD SWAP4 DUP5 SWAP3 ADD PUSH2 0x35DA JUMP JUMPDEST DUP2 ADD PUSH1 0x9 DUP2 MSTORE SUB ADD SWAP1 KECCAK256 PUSH2 0x458C JUMP JUMPDEST PUSH1 0xC SLOAD PUSH1 0x1 PUSH1 0x1 PUSH1 0xA0 SHL SUB AND SWAP1 DUP2 ISZERO PUSH2 0x3D44 JUMPI PUSH1 0x20 SWAP2 PUSH2 0x43B9 SWAP2 PUSH1 0x40 MLOAD DUP1 SWAP6 DUP2 SWAP5 DUP3 SWAP4 PUSH4 0x79D615F5 PUSH1 0xE1 SHL DUP5 MSTORE PUSH1 0x40 PUSH1 0x4 DUP6 ADD MSTORE PUSH1 0x44 DUP5 ADD SWAP1 PUSH2 0x35FB JUMP JUMPDEST SWAP1 PUSH1 0x24 DUP4 ADD MSTORE SUB SWAP2 GAS STATICCALL SWAP1 DUP2 ISZERO PUSH2 0x440C JUMPI PUSH0 SWAP2 PUSH2 0x43D4 JUMPI POP SWAP1 JUMP JUMPDEST SWAP1 POP PUSH1 0x20 DUP2 RETURNDATASIZE PUSH1 0x20 GT PUSH2 0x4404 JUMPI JUMPDEST DUP2 PUSH2 0x43EF PUSH1 0x20 SWAP4 DUP4 PUSH2 0x3400 JUMP JUMPDEST DUP2 ADD SUB SLT PUSH2 0x326 JUMPI MLOAD DUP1 ISZERO ISZERO DUP2 SUB PUSH2 0x326 JUMPI SWAP1 JUMP JUMPDEST RETURNDATASIZE SWAP2 POP PUSH2 0x43E2 JUMP JUMPDEST PUSH1 0x40 MLOAD RETURNDATASIZE PUSH0 DUP3 RETURNDATACOPY RETURNDATASIZE SWAP1 REVERT JUMPDEST SWAP1 PUSH2 0x4421 SWAP2 PUSH2 0x421A JUMP JUMPDEST PUSH0 MSTORE PUSH1 0x6 PUSH1 0x20 MSTORE PUSH1 0x40 PUSH0 KECCAK256 PUSH1 0xFF PUSH1 0x1 PUSH1 0x40 MLOAD SWAP3 PUSH2 0x443D DUP5 PUSH2 0x33B6 JUMP JUMPDEST PUSH2 0x4446 DUP2 PUSH2 0x3538 JUMP JUMPDEST DUP5 MSTORE ADD SLOAD AND ISZERO DUP1 ISZERO PUSH1 0x20 DUP4 ADD MSTORE PUSH2 0x445B JUMPI MLOAD SWAP1 JUMP JUMPDEST POP PUSH1 0x40 MLOAD PUSH2 0x4468 DUP2 PUSH2 0x33E5 JUMP JUMPDEST PUSH0 DUP2 MSTORE SWAP1 JUMP JUMPDEST PUSH1 0x1 PUSH1 0x1 PUSH1 0xA0 SHL SUB AND PUSH0 SWAP1 DUP2 MSTORE PUSH1 0x1 PUSH1 0x20 MSTORE PUSH1 0x40 SWAP1 KECCAK256 DUP1 SLOAD SWAP1 DUP2 ISZERO SWAP1 DUP2 ISZERO PUSH2 0x44B4 JUMPI JUMPDEST POP PUSH2 0x3E23 JUMPI PUSH0 MSTORE PUSH1 0x2 PUSH1 0x20 MSTORE PUSH1 0xFF PUSH1 0x40 PUSH0 KECCAK256 SLOAD AND PUSH1 0x5 DUP2 LT ISZERO PUSH2 0x3781 JUMPI PUSH1 0x3 EQ SWAP1 JUMP JUMPDEST PUSH1 0xFF SWAP2 POP PUSH1 0x1 ADD SLOAD AND ISZERO PUSH0 PUSH2 0x4491 JUMP JUMPDEST DUP3 MLOAD PUSH1 0x20 DUP1 SWAP5 ADD KECCAK256 PUSH2 0x44D4 PUSH2 0x3B92 JUMP JUMPDEST DUP1 MLOAD SWAP1 DUP6 ADD KECCAK256 DUP2 SUB PUSH2 0x450B JUMPI POP DUP3 PUSH2 0x44FC SWAP2 PUSH2 0x3578 SWAP5 PUSH1 0x40 MLOAD SWAP4 DUP3 DUP6 DUP1 SWAP5 MLOAD SWAP4 DUP5 SWAP3 ADD PUSH2 0x35DA JUMP JUMPDEST DUP2 ADD PUSH1 0x7 DUP2 MSTORE SUB ADD SWAP1 KECCAK256 PUSH2 0x3A30 JUMP JUMPDEST PUSH2 0x4513 PUSH2 0x3BB3 JUMP JUMPDEST DUP1 MLOAD SWAP1 DUP6 ADD KECCAK256 DUP2 SUB PUSH2 0x454A JUMPI POP DUP3 PUSH2 0x453B SWAP2 PUSH2 0x3578 SWAP5 PUSH1 0x40 MLOAD SWAP4 DUP3 DUP6 DUP1 SWAP5 MLOAD SWAP4 DUP5 SWAP3 ADD PUSH2 0x35DA JUMP JUMPDEST DUP2 ADD PUSH1 0x8 DUP2 MSTORE SUB ADD SWAP1 KECCAK256 PUSH2 0x3A30 JUMP JUMPDEST PUSH2 0x4552 PUSH2 0x3BDC JUMP JUMPDEST DUP5 DUP2 MLOAD SWAP2 ADD KECCAK256 EQ PUSH2 0x4562 JUMPI POP POP POP JUMP JUMPDEST DUP3 PUSH2 0x457D SWAP2 PUSH2 0x3578 SWAP5 PUSH1 0x40 MLOAD SWAP4 DUP3 DUP6 DUP1 SWAP5 MLOAD SWAP4 DUP5 SWAP3 ADD PUSH2 0x35DA JUMP JUMPDEST DUP2 ADD PUSH1 0x9 DUP2 MSTORE SUB ADD SWAP1 KECCAK256 PUSH2 0x3A30 JUMP JUMPDEST PUSH0 JUMPDEST DUP2 SLOAD SWAP1 DUP2 DUP2 LT ISZERO PUSH2 0x4132 JUMPI DUP4 SWAP2 PUSH2 0x45A5 DUP3 DUP6 PUSH2 0x37C2 JUMP JUMPDEST SWAP6 SWAP1 SLOAD PUSH1 0x3 SWAP7 DUP8 SHL SHR EQ PUSH2 0x45BF JUMPI POP SWAP1 SWAP3 POP PUSH1 0x1 ADD PUSH2 0x458E JUMP JUMPDEST PUSH0 NOT SWAP3 POP DUP3 DUP2 ADD SWAP1 DUP2 GT PUSH2 0x3A7A JUMPI PUSH2 0x3A52 PUSH2 0x45DD PUSH2 0x45EA SWAP3 DUP7 PUSH2 0x37C2 JUMP JUMPDEST SWAP1 SLOAD SWAP1 DUP8 SHL SHR SWAP3 DUP6 PUSH2 0x37C2 JUMP JUMPDEST SWAP1 SSTORE DUP2 SLOAD DUP1 ISZERO PUSH2 0x460F JUMPI DUP2 ADD SWAP3 PUSH2 0x4601 DUP5 DUP5 PUSH2 0x37C2 JUMP JUMPDEST DUP2 SWAP4 SWAP2 SLOAD SWAP3 SHL SHL NOT AND SWAP1 SSTORE SSTORE JUMP JUMPDEST PUSH4 0x4E487B71 PUSH1 0xE0 SHL PUSH0 MSTORE PUSH1 0x31 PUSH1 0x4 MSTORE PUSH1 0x24 PUSH0 REVERT JUMPDEST SWAP1 PUSH0 DUP1 SWAP2 PUSH1 0x20 DUP2 MLOAD SWAP2 ADD DUP5 GAS DELEGATECALL DUP1 DUP1 PUSH2 0x46A1 JUMPI JUMPDEST ISZERO PUSH2 0x4657 JUMPI POP POP PUSH1 0x40 MLOAD RETURNDATASIZE DUP2 MSTORE RETURNDATASIZE PUSH0 PUSH1 0x20 DUP4 ADD RETURNDATACOPY PUSH1 0x20 RETURNDATASIZE DUP3 ADD ADD PUSH1 0x40 MSTORE SWAP1 JUMP JUMPDEST ISZERO PUSH2 0x467E JUMPI PUSH1 0x40 MLOAD PUSH4 0x9996B315 PUSH1 0xE0 SHL DUP2 MSTORE PUSH1 0x1 PUSH1 0x1 PUSH1 0xA0 SHL SUB SWAP1 SWAP2 AND PUSH1 0x4 DUP3 ADD MSTORE PUSH1 0x24 SWAP1 REVERT JUMPDEST RETURNDATASIZE ISZERO PUSH2 0x468F JUMPI PUSH1 0x40 MLOAD RETURNDATASIZE PUSH0 DUP3 RETURNDATACOPY RETURNDATASIZE SWAP1 REVERT JUMPDEST PUSH1 0x40 MLOAD PUSH4 0xD6BDA275 PUSH1 0xE0 SHL DUP2 MSTORE PUSH1 0x4 SWAP1 REVERT JUMPDEST POP RETURNDATASIZE ISZERO ISZERO DUP1 PUSH2 0x4637 JUMPI POP DUP2 EXTCODESIZE ISZERO ISZERO PUSH2 0x4637 JUMP INVALID 0x2A 0x27 CREATE LOG2 0xE 0x4D DELEGATECALL PUSH20 0x8F3A8E2449B014D439E7CE0A97EE5860771C25CB 0xAF LOG1 0xCF 0xEB LOG2 PUSH5 0x6970667358 0x22 SLT KECCAK256 GASPRICE PUSH18 0xBD9530BF96F85B0475C5E892DCC075CC096A 0xC3 JUMP KECCAK256 SWAP16 PUSH26 0x245A838A98C83664736F6C634300081800330000000000000000 "},"methodIdentifiers":{"UPGRADE_INTERFACE_VERSION()":"ad3cb1cc","acceptTrustee(bytes32)":"b8cab84b","addMember(address,bytes32)":"49df7208","admin()":"f851a440","adminsByRecord(string,uint256)":"e965bfb7","changeRole(string,address,string)":"daa9dc23","changeRoleBatch(string[],address,string[])":"a5c3dc3c","deactivateWallet(address)":"0b3ffd1d","getAllUsers()":"e2842d79","getHealthRecordCore()":"e94ed257","getRecordAdmins(string)":"3dd1e8fc","getRecordOwners(string)":"1a95aca5","getRecordRoleStats(string)":"41d8bde3","getRecordViewers(string)":"510b3003","getRecordsByUser(bytes32)":"6544b05b","getRoleDetails(string,address)":"eb2bbf25","getRoleDetailsByUser(string,bytes32)":"ee4e5828","getRoleGranter(string,bytes32)":"679084e9","getTotalRoles()":"4b6feb7c","getTotalUsers()":"9be572f6","getTrusteeRelationship(bytes32,bytes32)":"9915b91f","getUserForWallet(address)":"00b0c809","getUserStatus(bytes32)":"f29e007b","getWalletsForUser(bytes32)":"d12a7768","grantRole(string,address,string)":"bb20b172","grantRoleAsTrusteeBatch(string[],bytes32)":"668a461e","grantRoleBatch(string[],address,string[])":"c0f0ed7e","hasActiveRole(string,address)":"1435b558","hasRole(string,address,string)":"cabdd23f","healthRecordCore()":"562c788e","initialize()":"8129fc1c","initializeRecordRole(string,address,string)":"3575c391","isActiveMember(address)":"45ecd02f","isActiveSubject(string,bytes32)":"f3ac2bea","isControllerOf(bytes32,bytes32)":"557ee54f","isOwnerOrAdmin(string,address)":"a0ca13c3","isVerifiedMember(address)":"cb261a03","isVerifiedProvider(address)":"259ed80e","ownersByRecord(string,uint256)":"970ee5b9","proposeTrustee(bytes32,uint8)":"1c0c18d8","proxiableUUID()":"52d1902d","reactivateWallet(address)":"bb0f86d5","recordRoles(bytes32)":"33105592","recordsByUser(bytes32,uint256)":"fa7a6bcc","revokeRole(string,address)":"731f21a0","revokeRoleBatch(string[],address)":"74926cda","revokeTrustee(bytes32,bytes32)":"c979c9bf","roleGrantedBy(bytes32)":"cda06c6e","setHealthRecordCore(address)":"c7155823","setUserStatus(bytes32,uint8)":"96207e02","totalRoles()":"790e118c","totalUsers()":"bff1f9e1","transferAdmin(address)":"75829def","trusteeRelationships(bytes32,bytes32)":"7b657d07","upgradeToAndCall(address,bytes)":"4f1ef286","userList(uint256)":"9f4216e8","userStatus(bytes32)":"6b4bed97","userWallets(bytes32,uint256)":"9443cd80","viewersByRecord(string,uint256)":"b55aefcc","voluntarilyLeaveOwnership(string)":"ed8d7b37","wallets(address)":"89b08f11"}},"storageLayout":{"storage":[{"astId":1563,"contract":"smartContracts/MemberRoleManager.sol:MemberRoleManager","label":"admin","offset":0,"slot":"0","type":"t_address"},{"astId":1755,"contract":"smartContracts/MemberRoleManager.sol:MemberRoleManager","label":"wallets","offset":0,"slot":"1","type":"t_mapping(t_address,t_struct(UserInfo)1750_storage)"},{"astId":1760,"contract":"smartContracts/MemberRoleManager.sol:MemberRoleManager","label":"userStatus","offset":0,"slot":"2","type":"t_mapping(t_bytes32,t_enum(MemberStatus)1715)"},{"astId":1765,"contract":"smartContracts/MemberRoleManager.sol:MemberRoleManager","label":"userWallets","offset":0,"slot":"3","type":"t_mapping(t_bytes32,t_array(t_address)dyn_storage)"},{"astId":1768,"contract":"smartContracts/MemberRoleManager.sol:MemberRoleManager","label":"userList","offset":0,"slot":"4","type":"t_array(t_bytes32)dyn_storage"},{"astId":1770,"contract":"smartContracts/MemberRoleManager.sol:MemberRoleManager","label":"totalUsers","offset":0,"slot":"5","type":"t_uint256"},{"astId":2282,"contract":"smartContracts/MemberRoleManager.sol:MemberRoleManager","label":"recordRoles","offset":0,"slot":"6","type":"t_mapping(t_bytes32,t_struct(RecordRole)2277_storage)"},{"astId":2287,"contract":"smartContracts/MemberRoleManager.sol:MemberRoleManager","label":"ownersByRecord","offset":0,"slot":"7","type":"t_mapping(t_string_memory_ptr,t_array(t_bytes32)dyn_storage)"},{"astId":2292,"contract":"smartContracts/MemberRoleManager.sol:MemberRoleManager","label":"adminsByRecord","offset":0,"slot":"8","type":"t_mapping(t_string_memory_ptr,t_array(t_bytes32)dyn_storage)"},{"astId":2297,"contract":"smartContracts/MemberRoleManager.sol:MemberRoleManager","label":"viewersByRecord","offset":0,"slot":"9","type":"t_mapping(t_string_memory_ptr,t_array(t_bytes32)dyn_storage)"},{"astId":2302,"contract":"smartContracts/MemberRoleManager.sol:MemberRoleManager","label":"recordsByUser","offset":0,"slot":"10","type":"t_mapping(t_bytes32,t_array(t_string_storage)dyn_storage)"},{"astId":2304,"contract":"smartContracts/MemberRoleManager.sol:MemberRoleManager","label":"totalRoles","offset":0,"slot":"11","type":"t_uint256"},{"astId":2307,"contract":"smartContracts/MemberRoleManager.sol:MemberRoleManager","label":"healthRecordCore","offset":0,"slot":"12","type":"t_contract(HealthRecordCoreInterface)1554"},{"astId":2311,"contract":"smartContracts/MemberRoleManager.sol:MemberRoleManager","label":"roleGrantedBy","offset":0,"slot":"13","type":"t_mapping(t_bytes32,t_bytes32)"},{"astId":4123,"contract":"smartContracts/MemberRoleManager.sol:MemberRoleManager","label":"trusteeRelationships","offset":0,"slot":"14","type":"t_mapping(t_bytes32,t_mapping(t_bytes32,t_struct(TrusteeRelationship)4116_storage))"}],"types":{"t_address":{"encoding":"inplace","label":"address","numberOfBytes":"20"},"t_array(t_address)dyn_storage":{"base":"t_address","encoding":"dynamic_array","label":"address[]","numberOfBytes":"32"},"t_array(t_bytes32)dyn_storage":{"base":"t_bytes32","encoding":"dynamic_array","label":"bytes32[]","numberOfBytes":"32"},"t_array(t_string_storage)dyn_storage":{"base":"t_string_storage","encoding":"dynamic_array","label":"string[]","numberOfBytes":"32"},"t_bool":{"encoding":"inplace","label":"bool","numberOfBytes":"1"},"t_bytes32":{"encoding":"inplace","label":"bytes32","numberOfBytes":"32"},"t_contract(HealthRecordCoreInterface)1554":{"encoding":"inplace","label":"contract HealthRecordCoreInterface","numberOfBytes":"20"},"t_enum(MemberStatus)1715":{"encoding":"inplace","label":"enum MemberRoleManager.MemberStatus","numberOfBytes":"1"},"t_enum(TrusteeLevel)4104":{"encoding":"inplace","label":"enum MemberRoleManager.TrusteeLevel","numberOfBytes":"1"},"t_enum(TrusteeStatus)4109":{"encoding":"inplace","label":"enum MemberRoleManager.TrusteeStatus","numberOfBytes":"1"},"t_mapping(t_address,t_struct(UserInfo)1750_storage)":{"encoding":"mapping","key":"t_address","label":"mapping(address => struct MemberRoleManager.UserInfo)","numberOfBytes":"32","value":"t_struct(UserInfo)1750_storage"},"t_mapping(t_bytes32,t_array(t_address)dyn_storage)":{"encoding":"mapping","key":"t_bytes32","label":"mapping(bytes32 => address[])","numberOfBytes":"32","value":"t_array(t_address)dyn_storage"},"t_mapping(t_bytes32,t_array(t_string_storage)dyn_storage)":{"encoding":"mapping","key":"t_bytes32","label":"mapping(bytes32 => string[])","numberOfBytes":"32","value":"t_array(t_string_storage)dyn_storage"},"t_mapping(t_bytes32,t_bytes32)":{"encoding":"mapping","key":"t_bytes32","label":"mapping(bytes32 => bytes32)","numberOfBytes":"32","value":"t_bytes32"},"t_mapping(t_bytes32,t_enum(MemberStatus)1715)":{"encoding":"mapping","key":"t_bytes32","label":"mapping(bytes32 => enum MemberRoleManager.MemberStatus)","numberOfBytes":"32","value":"t_enum(MemberStatus)1715"},"t_mapping(t_bytes32,t_mapping(t_bytes32,t_struct(TrusteeRelationship)4116_storage))":{"encoding":"mapping","key":"t_bytes32","label":"mapping(bytes32 => mapping(bytes32 => struct MemberRoleManager.TrusteeRelationship))","numberOfBytes":"32","value":"t_mapping(t_bytes32,t_struct(TrusteeRelationship)4116_storage)"},"t_mapping(t_bytes32,t_struct(RecordRole)2277_storage)":{"encoding":"mapping","key":"t_bytes32","label":"mapping(bytes32 => struct MemberRoleManager.RecordRole)","numberOfBytes":"32","value":"t_struct(RecordRole)2277_storage"},"t_mapping(t_bytes32,t_struct(TrusteeRelationship)4116_storage)":{"encoding":"mapping","key":"t_bytes32","label":"mapping(bytes32 => struct MemberRoleManager.TrusteeRelationship)","numberOfBytes":"32","value":"t_struct(TrusteeRelationship)4116_storage"},"t_mapping(t_string_memory_ptr,t_array(t_bytes32)dyn_storage)":{"encoding":"mapping","key":"t_string_memory_ptr","label":"mapping(string => bytes32[])","numberOfBytes":"32","value":"t_array(t_bytes32)dyn_storage"},"t_string_memory_ptr":{"encoding":"bytes","label":"string","numberOfBytes":"32"},"t_string_storage":{"encoding":"bytes","label":"string","numberOfBytes":"32"},"t_struct(RecordRole)2277_storage":{"encoding":"inplace","label":"struct MemberRoleManager.RecordRole","members":[{"astId":2274,"contract":"smartContracts/MemberRoleManager.sol:MemberRoleManager","label":"role","offset":0,"slot":"0","type":"t_string_storage"},{"astId":2276,"contract":"smartContracts/MemberRoleManager.sol:MemberRoleManager","label":"isActive","offset":0,"slot":"1","type":"t_bool"}],"numberOfBytes":"64"},"t_struct(TrusteeRelationship)4116_storage":{"encoding":"inplace","label":"struct MemberRoleManager.TrusteeRelationship","members":[{"astId":4112,"contract":"smartContracts/MemberRoleManager.sol:MemberRoleManager","label":"status","offset":0,"slot":"0","type":"t_enum(TrusteeStatus)4109"},{"astId":4115,"contract":"smartContracts/MemberRoleManager.sol:MemberRoleManager","label":"level","offset":1,"slot":"0","type":"t_enum(TrusteeLevel)4104"}],"numberOfBytes":"32"},"t_struct(UserInfo)1750_storage":{"encoding":"inplace","label":"struct MemberRoleManager.UserInfo","members":[{"astId":1747,"contract":"smartContracts/MemberRoleManager.sol:MemberRoleManager","label":"userIdHash","offset":0,"slot":"0","type":"t_bytes32"},{"astId":1749,"contract":"smartContracts/MemberRoleManager.sol:MemberRoleManager","label":"isWalletActive","offset":0,"slot":"1","type":"t_bool"}],"numberOfBytes":"64"},"t_uint256":{"encoding":"inplace","label":"uint256","numberOfBytes":"32"}}}}}}