{"smartContracts/HealthRecordCore.sol":{"HealthRecordCore":{"abi":[{"inputs":[],"stateMutability":"nonpayable","type":"constructor"},{"inputs":[{"internalType":"address","name":"target","type":"address"}],"name":"AddressEmptyCode","type":"error"},{"inputs":[{"internalType":"address","name":"implementation","type":"address"}],"name":"ERC1967InvalidImplementation","type":"error"},{"inputs":[],"name":"ERC1967NonPayable","type":"error"},{"inputs":[],"name":"FailedCall","type":"error"},{"inputs":[],"name":"InvalidInitialization","type":"error"},{"inputs":[],"name":"NotInitializing","type":"error"},{"inputs":[],"name":"UUPSUnauthorizedCallContext","type":"error"},{"inputs":[{"internalType":"bytes32","name":"slot","type":"bytes32"}],"name":"UUPSUnsupportedProxiableUUID","type":"error"},{"anonymous":false,"inputs":[{"indexed":true,"internalType":"address","name":"oldAdmin","type":"address"},{"indexed":true,"internalType":"address","name":"newAdmin","type":"address"},{"indexed":false,"internalType":"uint256","name":"timestamp","type":"uint256"}],"name":"AdminTransferred","type":"event"},{"anonymous":false,"inputs":[{"indexed":true,"internalType":"bytes32","name":"recordHash","type":"bytes32"},{"indexed":true,"internalType":"bytes32","name":"disputerIdHash","type":"bytes32"},{"indexed":false,"internalType":"enum HealthRecordCore.DisputeSeverity","name":"oldSeverity","type":"uint8"},{"indexed":false,"internalType":"enum HealthRecordCore.DisputeSeverity","name":"newSeverity","type":"uint8"},{"indexed":false,"internalType":"enum HealthRecordCore.DisputeCulpability","name":"oldCulpability","type":"uint8"},{"indexed":false,"internalType":"enum HealthRecordCore.DisputeCulpability","name":"newCulpability","type":"uint8"},{"indexed":false,"internalType":"uint256","name":"timestamp","type":"uint256"}],"name":"DisputeModification","type":"event"},{"anonymous":false,"inputs":[{"indexed":true,"internalType":"bytes32","name":"recordHash","type":"bytes32"},{"indexed":true,"internalType":"bytes32","name":"disputerIdHash","type":"bytes32"},{"indexed":false,"internalType":"uint256","name":"timestamp","type":"uint256"}],"name":"DisputeRetracted","type":"event"},{"anonymous":false,"inputs":[{"indexed":false,"internalType":"uint64","name":"version","type":"uint64"}],"name":"Initialized","type":"event"},{"anonymous":false,"inputs":[{"indexed":true,"internalType":"bytes32","name":"recordIdHash","type":"bytes32"},{"indexed":true,"internalType":"bytes32","name":"recordHash","type":"bytes32"},{"indexed":true,"internalType":"bytes32","name":"subjectIdHash","type":"bytes32"},{"indexed":false,"internalType":"uint256","name":"timestamp","type":"uint256"}],"name":"RecordAnchored","type":"event"},{"anonymous":false,"inputs":[{"indexed":true,"internalType":"bytes32","name":"recordHash","type":"bytes32"},{"indexed":true,"internalType":"bytes32","name":"recordIdHash","type":"bytes32"},{"indexed":true,"internalType":"bytes32","name":"disputerIdHash","type":"bytes32"},{"indexed":false,"internalType":"enum HealthRecordCore.DisputeSeverity","name":"severity","type":"uint8"},{"indexed":false,"internalType":"enum HealthRecordCore.DisputeCulpability","name":"culpability","type":"uint8"},{"indexed":false,"internalType":"uint256","name":"timestamp","type":"uint256"}],"name":"RecordDisputed","type":"event"},{"anonymous":false,"inputs":[{"indexed":true,"internalType":"bytes32","name":"recordIdHash","type":"bytes32"},{"indexed":true,"internalType":"bytes32","name":"newHash","type":"bytes32"},{"indexed":false,"internalType":"bytes32","name":"addedBy","type":"bytes32"},{"indexed":false,"internalType":"uint256","name":"timestamp","type":"uint256"}],"name":"RecordHashAdded","type":"event"},{"anonymous":false,"inputs":[{"indexed":true,"internalType":"bytes32","name":"recordIdHash","type":"bytes32"},{"indexed":true,"internalType":"bytes32","name":"recordHash","type":"bytes32"},{"indexed":false,"internalType":"uint256","name":"timestamp","type":"uint256"}],"name":"RecordHashRetracted","type":"event"},{"anonymous":false,"inputs":[{"indexed":true,"internalType":"bytes32","name":"recordIdHash","type":"bytes32"},{"indexed":true,"internalType":"bytes32","name":"subjectIdHash","type":"bytes32"},{"indexed":false,"internalType":"uint256","name":"timestamp","type":"uint256"}],"name":"RecordReanchored","type":"event"},{"anonymous":false,"inputs":[{"indexed":true,"internalType":"bytes32","name":"recordIdHash","type":"bytes32"},{"indexed":true,"internalType":"bytes32","name":"subjectIdHash","type":"bytes32"},{"indexed":false,"internalType":"uint256","name":"timestamp","type":"uint256"}],"name":"RecordUnanchored","type":"event"},{"anonymous":false,"inputs":[{"indexed":true,"internalType":"bytes32","name":"recordHash","type":"bytes32"},{"indexed":true,"internalType":"bytes32","name":"recordIdHash","type":"bytes32"},{"indexed":true,"internalType":"bytes32","name":"verifierIdHash","type":"bytes32"},{"indexed":false,"internalType":"enum HealthRecordCore.VerificationLevel","name":"level","type":"uint8"},{"indexed":false,"internalType":"uint256","name":"timestamp","type":"uint256"}],"name":"RecordVerified","type":"event"},{"anonymous":false,"inputs":[{"indexed":true,"internalType":"bytes32","name":"subjectIdHash","type":"bytes32"},{"indexed":true,"internalType":"bytes32","name":"recordIdHash","type":"bytes32"},{"indexed":true,"internalType":"bytes32","name":"reporterIdHash","type":"bytes32"},{"indexed":false,"internalType":"uint256","name":"timestamp","type":"uint256"}],"name":"UnacceptedUpdateFlagRevoked","type":"event"},{"anonymous":false,"inputs":[{"indexed":true,"internalType":"bytes32","name":"subjectIdHash","type":"bytes32"},{"indexed":true,"internalType":"bytes32","name":"recordIdHash","type":"bytes32"},{"indexed":true,"internalType":"bytes32","name":"reporterIdHash","type":"bytes32"},{"indexed":false,"internalType":"bytes32","name":"recordHash","type":"bytes32"},{"indexed":false,"internalType":"uint256","name":"timestamp","type":"uint256"}],"name":"UnacceptedUpdateFlagged","type":"event"},{"anonymous":false,"inputs":[{"indexed":true,"internalType":"address","name":"implementation","type":"address"}],"name":"Upgraded","type":"event"},{"anonymous":false,"inputs":[{"indexed":true,"internalType":"bytes32","name":"recordHash","type":"bytes32"},{"indexed":true,"internalType":"bytes32","name":"verifierIdHash","type":"bytes32"},{"indexed":false,"internalType":"enum HealthRecordCore.VerificationLevel","name":"oldLevel","type":"uint8"},{"indexed":false,"internalType":"enum HealthRecordCore.VerificationLevel","name":"newLevel","type":"uint8"},{"indexed":false,"internalType":"uint256","name":"timestamp","type":"uint256"}],"name":"VerificationLevelModified","type":"event"},{"anonymous":false,"inputs":[{"indexed":true,"internalType":"bytes32","name":"recordHash","type":"bytes32"},{"indexed":true,"internalType":"bytes32","name":"verifierIdHash","type":"bytes32"},{"indexed":false,"internalType":"uint256","name":"timestamp","type":"uint256"}],"name":"VerificationRetracted","type":"event"},{"inputs":[],"name":"UPGRADE_INTERFACE_VERSION","outputs":[{"internalType":"string","name":"","type":"string"}],"stateMutability":"view","type":"function"},{"inputs":[{"internalType":"bytes32","name":"","type":"bytes32"}],"name":"activeUnacceptedFlagCount","outputs":[{"internalType":"uint256","name":"","type":"uint256"}],"stateMutability":"view","type":"function"},{"inputs":[{"internalType":"bytes32","name":"recordIdHash","type":"bytes32"},{"internalType":"bytes32","name":"newHash","type":"bytes32"}],"name":"addRecordHash","outputs":[],"stateMutability":"nonpayable","type":"function"},{"inputs":[],"name":"admin","outputs":[{"internalType":"address","name":"","type":"address"}],"stateMutability":"view","type":"function"},{"inputs":[{"internalType":"bytes32","name":"recordIdHash","type":"bytes32"},{"internalType":"bytes32","name":"recordHash","type":"bytes32"},{"internalType":"bytes32","name":"subjectIdHash","type":"bytes32"},{"internalType":"uint8","name":"selfVerifyLevel","type":"uint8"}],"name":"anchorRecord","outputs":[],"stateMutability":"nonpayable","type":"function"},{"inputs":[{"internalType":"bytes32","name":"","type":"bytes32"},{"internalType":"bytes32","name":"","type":"bytes32"}],"name":"currentlyDisputed","outputs":[{"internalType":"bool","name":"","type":"bool"}],"stateMutability":"view","type":"function"},{"inputs":[{"internalType":"bytes32","name":"","type":"bytes32"},{"internalType":"bytes32","name":"","type":"bytes32"}],"name":"currentlyVerified","outputs":[{"internalType":"bool","name":"","type":"bool"}],"stateMutability":"view","type":"function"},{"inputs":[{"internalType":"bytes32","name":"","type":"bytes32"},{"internalType":"bytes32","name":"","type":"bytes32"}],"name":"disputeIndex","outputs":[{"internalType":"uint256","name":"","type":"uint256"}],"stateMutability":"view","type":"function"},{"inputs":[{"internalType":"bytes32","name":"recordIdHash","type":"bytes32"},{"internalType":"bytes32","name":"recordHash","type":"bytes32"},{"internalType":"uint8","name":"severity","type":"uint8"},{"internalType":"uint8","name":"culpability","type":"uint8"},{"internalType":"string","name":"notes","type":"string"}],"name":"disputeRecord","outputs":[],"stateMutability":"nonpayable","type":"function"},{"inputs":[{"internalType":"bytes32","name":"","type":"bytes32"},{"internalType":"uint256","name":"","type":"uint256"}],"name":"disputes","outputs":[{"internalType":"bytes32","name":"disputerIdHash","type":"bytes32"},{"internalType":"bytes32","name":"recordIdHash","type":"bytes32"},{"internalType":"enum HealthRecordCore.DisputeSeverity","name":"severity","type":"uint8"},{"internalType":"enum HealthRecordCore.DisputeCulpability","name":"culpability","type":"uint8"},{"internalType":"string","name":"notes","type":"string"},{"internalType":"uint256","name":"createdAt","type":"uint256"},{"internalType":"bool","name":"isActive","type":"bool"}],"stateMutability":"view","type":"function"},{"inputs":[{"internalType":"bytes32","name":"","type":"bytes32"},{"internalType":"uint256","name":"","type":"uint256"}],"name":"disputesByUser","outputs":[{"internalType":"bytes32","name":"","type":"bytes32"}],"stateMutability":"view","type":"function"},{"inputs":[{"internalType":"bytes32","name":"recordHash","type":"bytes32"}],"name":"doesHashExist","outputs":[{"internalType":"bool","name":"","type":"bool"}],"stateMutability":"view","type":"function"},{"inputs":[{"internalType":"bytes32","name":"subjectIdHash","type":"bytes32"},{"internalType":"bytes32","name":"recordIdHash","type":"bytes32"},{"internalType":"bytes32","name":"reporterIdHash","type":"bytes32"},{"internalType":"bytes32","name":"recordHash","type":"bytes32"}],"name":"flagUnacceptedUpdate","outputs":[],"stateMutability":"nonpayable","type":"function"},{"inputs":[{"internalType":"bytes32","name":"recordIdHash","type":"bytes32"}],"name":"getActiveRecordSubjects","outputs":[{"internalType":"bytes32[]","name":"","type":"bytes32[]"}],"stateMutability":"view","type":"function"},{"inputs":[{"internalType":"bytes32","name":"subjectIdHash","type":"bytes32"}],"name":"getActiveUnacceptedFlagCount","outputs":[{"internalType":"uint256","name":"","type":"uint256"}],"stateMutability":"view","type":"function"},{"inputs":[{"internalType":"bytes32","name":"recordHash","type":"bytes32"}],"name":"getDisputeStats","outputs":[{"internalType":"uint256","name":"total","type":"uint256"},{"internalType":"uint256","name":"active","type":"uint256"}],"stateMutability":"view","type":"function"},{"inputs":[{"internalType":"bytes32","name":"recordHash","type":"bytes32"}],"name":"getDisputes","outputs":[{"components":[{"internalType":"bytes32","name":"disputerIdHash","type":"bytes32"},{"internalType":"bytes32","name":"recordIdHash","type":"bytes32"},{"internalType":"enum HealthRecordCore.DisputeSeverity","name":"severity","type":"uint8"},{"internalType":"enum HealthRecordCore.DisputeCulpability","name":"culpability","type":"uint8"},{"internalType":"string","name":"notes","type":"string"},{"internalType":"uint256","name":"createdAt","type":"uint256"},{"internalType":"bool","name":"isActive","type":"bool"}],"internalType":"struct HealthRecordCore.Dispute[]","name":"","type":"tuple[]"}],"stateMutability":"view","type":"function"},{"inputs":[{"internalType":"bytes32","name":"userIdHash","type":"bytes32"}],"name":"getDisputesAgainstUser","outputs":[{"components":[{"internalType":"bytes32","name":"recordHash","type":"bytes32"},{"internalType":"bytes32","name":"disputerIdHash","type":"bytes32"},{"internalType":"enum HealthRecordCore.DisputeSeverity","name":"severity","type":"uint8"},{"internalType":"enum HealthRecordCore.DisputeCulpability","name":"culpability","type":"uint8"},{"internalType":"string","name":"notes","type":"string"},{"internalType":"uint256","name":"createdAt","type":"uint256"}],"internalType":"struct HealthRecordCore.DisputeAgainstUser[]","name":"","type":"tuple[]"}],"stateMutability":"view","type":"function"},{"inputs":[{"internalType":"bytes32","name":"recordHash","type":"bytes32"}],"name":"getRecordIdForHash","outputs":[{"internalType":"bytes32","name":"","type":"bytes32"}],"stateMutability":"view","type":"function"},{"inputs":[{"internalType":"bytes32","name":"recordIdHash","type":"bytes32"}],"name":"getRecordSubjects","outputs":[{"internalType":"bytes32[]","name":"","type":"bytes32[]"}],"stateMutability":"view","type":"function"},{"inputs":[{"internalType":"bytes32","name":"recordIdHash","type":"bytes32"}],"name":"getRecordVersionHistory","outputs":[{"internalType":"bytes32[]","name":"","type":"bytes32[]"}],"stateMutability":"view","type":"function"},{"inputs":[{"internalType":"bytes32","name":"userIdHash","type":"bytes32"}],"name":"getSubjectMedicalHistory","outputs":[{"internalType":"bytes32[]","name":"","type":"bytes32[]"}],"stateMutability":"view","type":"function"},{"inputs":[{"internalType":"bytes32","name":"recordIdHash","type":"bytes32"}],"name":"getSubjectStats","outputs":[{"internalType":"uint256","name":"total","type":"uint256"},{"internalType":"uint256","name":"active","type":"uint256"}],"stateMutability":"view","type":"function"},{"inputs":[],"name":"getTotalAnchoredRecords","outputs":[{"internalType":"uint256","name":"","type":"uint256"}],"stateMutability":"view","type":"function"},{"inputs":[{"internalType":"bytes32","name":"subjectIdHash","type":"bytes32"},{"internalType":"bytes32","name":"recordIdHash","type":"bytes32"}],"name":"getUnacceptedFlag","outputs":[{"internalType":"bool","name":"exists","type":"bool"},{"internalType":"bool","name":"isActive","type":"bool"},{"internalType":"bytes32","name":"reporterIdHash","type":"bytes32"},{"internalType":"bytes32","name":"recordHash","type":"bytes32"},{"internalType":"uint256","name":"createdAt","type":"uint256"}],"stateMutability":"view","type":"function"},{"inputs":[{"internalType":"bytes32","name":"subjectIdHash","type":"bytes32"}],"name":"getUnacceptedFlags","outputs":[{"components":[{"internalType":"bytes32","name":"recordIdHash","type":"bytes32"},{"internalType":"bytes32","name":"reporterIdHash","type":"bytes32"},{"internalType":"bytes32","name":"recordHash","type":"bytes32"},{"internalType":"uint256","name":"createdAt","type":"uint256"},{"internalType":"bool","name":"isActive","type":"bool"}],"internalType":"struct HealthRecordCore.UnacceptedFlag[]","name":"","type":"tuple[]"}],"stateMutability":"view","type":"function"},{"inputs":[{"internalType":"bytes32","name":"recordHash","type":"bytes32"},{"internalType":"bytes32","name":"userIdHash","type":"bytes32"}],"name":"getUserDispute","outputs":[{"internalType":"bool","name":"exists","type":"bool"},{"internalType":"bytes32","name":"recordIdHash","type":"bytes32"},{"internalType":"enum HealthRecordCore.DisputeSeverity","name":"severity","type":"uint8"},{"internalType":"enum HealthRecordCore.DisputeCulpability","name":"culpability","type":"uint8"},{"internalType":"string","name":"notes","type":"string"},{"internalType":"uint256","name":"createdAt","type":"uint256"},{"internalType":"bool","name":"isActive","type":"bool"}],"stateMutability":"view","type":"function"},{"inputs":[{"internalType":"bytes32","name":"userIdHash","type":"bytes32"}],"name":"getUserDisputes","outputs":[{"internalType":"bytes32[]","name":"","type":"bytes32[]"}],"stateMutability":"view","type":"function"},{"inputs":[{"internalType":"bytes32","name":"recordHash","type":"bytes32"},{"internalType":"bytes32","name":"userIdHash","type":"bytes32"}],"name":"getUserVerification","outputs":[{"internalType":"bool","name":"exists","type":"bool"},{"internalType":"bytes32","name":"recordIdHash","type":"bytes32"},{"internalType":"enum HealthRecordCore.VerificationLevel","name":"level","type":"uint8"},{"internalType":"uint256","name":"createdAt","type":"uint256"},{"internalType":"bool","name":"isActive","type":"bool"}],"stateMutability":"view","type":"function"},{"inputs":[{"internalType":"bytes32","name":"userIdHash","type":"bytes32"}],"name":"getUserVerifications","outputs":[{"internalType":"bytes32[]","name":"","type":"bytes32[]"}],"stateMutability":"view","type":"function"},{"inputs":[{"internalType":"bytes32","name":"recordHash","type":"bytes32"}],"name":"getVerificationStats","outputs":[{"internalType":"uint256","name":"total","type":"uint256"},{"internalType":"uint256","name":"active","type":"uint256"}],"stateMutability":"view","type":"function"},{"inputs":[{"internalType":"bytes32","name":"recordHash","type":"bytes32"}],"name":"getVerifications","outputs":[{"components":[{"internalType":"bytes32","name":"verifierIdHash","type":"bytes32"},{"internalType":"bytes32","name":"recordIdHash","type":"bytes32"},{"internalType":"enum HealthRecordCore.VerificationLevel","name":"level","type":"uint8"},{"internalType":"uint256","name":"createdAt","type":"uint256"},{"internalType":"bool","name":"isActive","type":"bool"}],"internalType":"struct HealthRecordCore.Verification[]","name":"","type":"tuple[]"}],"stateMutability":"view","type":"function"},{"inputs":[{"internalType":"bytes32","name":"recordIdHash","type":"bytes32"}],"name":"getVersionCount","outputs":[{"internalType":"uint256","name":"","type":"uint256"}],"stateMutability":"view","type":"function"},{"inputs":[{"internalType":"bytes32","name":"subjectIdHash","type":"bytes32"}],"name":"hasActiveUnacceptedFlags","outputs":[{"internalType":"bool","name":"","type":"bool"}],"stateMutability":"view","type":"function"},{"inputs":[{"internalType":"bytes32","name":"recordHash","type":"bytes32"},{"internalType":"bytes32","name":"userIdHash","type":"bytes32"}],"name":"hasUserDisputed","outputs":[{"internalType":"bool","name":"","type":"bool"}],"stateMutability":"view","type":"function"},{"inputs":[{"internalType":"bytes32","name":"recordHash","type":"bytes32"},{"internalType":"bytes32","name":"userIdHash","type":"bytes32"}],"name":"hasUserVerified","outputs":[{"internalType":"bool","name":"","type":"bool"}],"stateMutability":"view","type":"function"},{"inputs":[{"internalType":"address","name":"_memberRoleManager","type":"address"}],"name":"initialize","outputs":[],"stateMutability":"nonpayable","type":"function"},{"inputs":[{"internalType":"bytes32","name":"recordIdHash","type":"bytes32"},{"internalType":"bytes32","name":"userIdHash","type":"bytes32"}],"name":"isActiveSubject","outputs":[{"internalType":"bool","name":"","type":"bool"}],"stateMutability":"view","type":"function"},{"inputs":[{"internalType":"bytes32","name":"","type":"bytes32"}],"name":"isHashActive","outputs":[{"internalType":"bool","name":"","type":"bool"}],"stateMutability":"view","type":"function"},{"inputs":[{"internalType":"bytes32","name":"recordIdHash","type":"bytes32"},{"internalType":"bytes32","name":"userIdHash","type":"bytes32"}],"name":"isSubject","outputs":[{"internalType":"bool","name":"","type":"bool"}],"stateMutability":"view","type":"function"},{"inputs":[{"internalType":"bytes32","name":"","type":"bytes32"},{"internalType":"bytes32","name":"","type":"bytes32"}],"name":"isSubjectActive","outputs":[{"internalType":"bool","name":"","type":"bool"}],"stateMutability":"view","type":"function"},{"inputs":[{"internalType":"bytes32","name":"","type":"bytes32"},{"internalType":"bytes32","name":"","type":"bytes32"}],"name":"isSubjectOfRecord","outputs":[{"internalType":"bool","name":"","type":"bool"}],"stateMutability":"view","type":"function"},{"inputs":[],"name":"memberRoleManager","outputs":[{"internalType":"contract MemberRoleManagerInterface","name":"","type":"address"}],"stateMutability":"view","type":"function"},{"inputs":[{"internalType":"bytes32","name":"recordHash","type":"bytes32"},{"internalType":"uint8","name":"newSeverity","type":"uint8"},{"internalType":"uint8","name":"newCulpability","type":"uint8"}],"name":"modifyDispute","outputs":[],"stateMutability":"nonpayable","type":"function"},{"inputs":[{"internalType":"bytes32","name":"recordHash","type":"bytes32"},{"internalType":"uint8","name":"newLevel","type":"uint8"}],"name":"modifyVerificationLevel","outputs":[],"stateMutability":"nonpayable","type":"function"},{"inputs":[],"name":"proxiableUUID","outputs":[{"internalType":"bytes32","name":"","type":"bytes32"}],"stateMutability":"view","type":"function"},{"inputs":[{"internalType":"bytes32","name":"recordIdHash","type":"bytes32"},{"internalType":"bytes32","name":"subjectIdHash","type":"bytes32"}],"name":"reanchorRecord","outputs":[],"stateMutability":"nonpayable","type":"function"},{"inputs":[{"internalType":"bytes32","name":"","type":"bytes32"}],"name":"recordIdForHash","outputs":[{"internalType":"bytes32","name":"","type":"bytes32"}],"stateMutability":"view","type":"function"},{"inputs":[{"internalType":"bytes32","name":"","type":"bytes32"},{"internalType":"uint256","name":"","type":"uint256"}],"name":"recordSubjects","outputs":[{"internalType":"bytes32","name":"","type":"bytes32"}],"stateMutability":"view","type":"function"},{"inputs":[{"internalType":"bytes32","name":"","type":"bytes32"},{"internalType":"uint256","name":"","type":"uint256"}],"name":"recordVersionHistory","outputs":[{"internalType":"bytes32","name":"","type":"bytes32"}],"stateMutability":"view","type":"function"},{"inputs":[{"internalType":"bytes32","name":"recordHash","type":"bytes32"}],"name":"retractDispute","outputs":[],"stateMutability":"nonpayable","type":"function"},{"inputs":[{"internalType":"bytes32","name":"recordIdHash","type":"bytes32"},{"internalType":"bytes32","name":"recordHash","type":"bytes32"}],"name":"retractRecordHash","outputs":[],"stateMutability":"nonpayable","type":"function"},{"inputs":[{"internalType":"bytes32","name":"recordHash","type":"bytes32"}],"name":"retractVerification","outputs":[],"stateMutability":"nonpayable","type":"function"},{"inputs":[{"internalType":"bytes32","name":"subjectIdHash","type":"bytes32"},{"internalType":"bytes32","name":"recordIdHash","type":"bytes32"}],"name":"revokeUnacceptedFlag","outputs":[],"stateMutability":"nonpayable","type":"function"},{"inputs":[{"internalType":"address","name":"_memberRoleManager","type":"address"}],"name":"setMemberRoleManager","outputs":[],"stateMutability":"nonpayable","type":"function"},{"inputs":[{"internalType":"bytes32","name":"","type":"bytes32"},{"internalType":"uint256","name":"","type":"uint256"}],"name":"subjectMedicalHistory","outputs":[{"internalType":"bytes32","name":"","type":"bytes32"}],"stateMutability":"view","type":"function"},{"inputs":[],"name":"totalAnchoredRecords","outputs":[{"internalType":"uint256","name":"","type":"uint256"}],"stateMutability":"view","type":"function"},{"inputs":[],"name":"totalDisputes","outputs":[{"internalType":"uint256","name":"","type":"uint256"}],"stateMutability":"view","type":"function"},{"inputs":[],"name":"totalUnacceptedFlags","outputs":[{"internalType":"uint256","name":"","type":"uint256"}],"stateMutability":"view","type":"function"},{"inputs":[],"name":"totalVerifications","outputs":[{"internalType":"uint256","name":"","type":"uint256"}],"stateMutability":"view","type":"function"},{"inputs":[{"internalType":"address","name":"newAdmin","type":"address"}],"name":"transferAdmin","outputs":[],"stateMutability":"nonpayable","type":"function"},{"inputs":[{"internalType":"bytes32","name":"","type":"bytes32"},{"internalType":"bytes32","name":"","type":"bytes32"}],"name":"unacceptedFlagIndex","outputs":[{"internalType":"uint256","name":"","type":"uint256"}],"stateMutability":"view","type":"function"},{"inputs":[{"internalType":"bytes32","name":"","type":"bytes32"},{"internalType":"uint256","name":"","type":"uint256"}],"name":"unacceptedFlagsBySubject","outputs":[{"internalType":"bytes32","name":"recordIdHash","type":"bytes32"},{"internalType":"bytes32","name":"reporterIdHash","type":"bytes32"},{"internalType":"bytes32","name":"recordHash","type":"bytes32"},{"internalType":"uint256","name":"createdAt","type":"uint256"},{"internalType":"bool","name":"isActive","type":"bool"}],"stateMutability":"view","type":"function"},{"inputs":[{"internalType":"bytes32","name":"recordIdHash","type":"bytes32"},{"internalType":"bytes32","name":"subjectIdHash","type":"bytes32"}],"name":"unanchorRecord","outputs":[],"stateMutability":"nonpayable","type":"function"},{"inputs":[{"internalType":"address","name":"newImplementation","type":"address"},{"internalType":"bytes","name":"data","type":"bytes"}],"name":"upgradeToAndCall","outputs":[],"stateMutability":"payable","type":"function"},{"inputs":[{"internalType":"bytes32","name":"","type":"bytes32"},{"internalType":"bytes32","name":"","type":"bytes32"}],"name":"verificationIndex","outputs":[{"internalType":"uint256","name":"","type":"uint256"}],"stateMutability":"view","type":"function"},{"inputs":[{"internalType":"bytes32","name":"","type":"bytes32"},{"internalType":"uint256","name":"","type":"uint256"}],"name":"verifications","outputs":[{"internalType":"bytes32","name":"verifierIdHash","type":"bytes32"},{"internalType":"bytes32","name":"recordIdHash","type":"bytes32"},{"internalType":"enum HealthRecordCore.VerificationLevel","name":"level","type":"uint8"},{"internalType":"uint256","name":"createdAt","type":"uint256"},{"internalType":"bool","name":"isActive","type":"bool"}],"stateMutability":"view","type":"function"},{"inputs":[{"internalType":"bytes32","name":"","type":"bytes32"},{"internalType":"uint256","name":"","type":"uint256"}],"name":"verificationsByUser","outputs":[{"internalType":"bytes32","name":"","type":"bytes32"}],"stateMutability":"view","type":"function"},{"inputs":[{"internalType":"bytes32","name":"recordIdHash","type":"bytes32"},{"internalType":"bytes32","name":"recordHash","type":"bytes32"},{"internalType":"uint8","name":"level","type":"uint8"}],"name":"verifyRecord","outputs":[],"stateMutability":"nonpayable","type":"function"}],"evm":{"bytecode":{"linkReferences":{},"object":"60a08060405234620000d157306080527ff0c57e16840df040f15088dc2f81fe391c3923bec73e23a9662efc9c229c6a009081549060ff8260401c16620000c257506001600160401b036002600160401b0319828216016200007c575b604051614b189081620000d682396080518181816125a401526126810152f35b6001600160401b031990911681179091556040519081527fc7f505b2f371ae2175ee4913f4499e1f2633a7b5936321eed1cdaeb6115181d290602090a15f80806200005c565b63f92ee8a960e01b8152600490fd5b5f80fdfe604060808152600480361015610013575f80fd5b5f9060e05f35811c90816301f6993514613aca578163045524a214613a96578163056c925f146137b657816308d865171461378557816310466a67146120275781631166c389146136d457816315370703146136ad5781631cf8cbe81461368f5781631ee6677014612bba578163249dda2e1461366757816328837450146135a35781633533d58c14612fd85781633ce78b0514612c235781633fa8ea8114612be757816340ec2e9a14612bba5781634244222614612b6d57816342deec25146129a1578163438b17cf1461282f5781634f1ef286146126305781635211e3b61461260857816352d1902d146125905781635a3ba1fa146122df5781635d28a342146122b557816364f639d4146122595781636e95a05114612104578163741bfc1d146120d857816375829def146120585781637628262e146120275781637b470f6a14611dba57816384debbf114611d435781638651933514611bf857816386fe96e11461199f5781638a7f882c146119735781638fc751ee146119475781639afd307c146119175781639e3432c1146116ed578163a208f96c146116bc578163ac90c1401461169d578163ac9243361461167e578163aca5964f1461164b578163ad3cb1cc146115e0578163adcee102146115ad578163aeb2a19f14611501578163b27bb4d5146114cf578163b5e6b7a21461148e578163be4f9077146113b4578163bf5204651461134b578163c0d1606e14610f67578163c4d66de814610dc8578163c5e4ccc414610da9578163c7567dfa14610b57578163c7695bab14610aef578163d08c800d14610a86578163d19d36611461095c57508063d1e94e57146108e7578063d46e082f146108c8578063d6989f0914610897578063d9e551fc14610710578063dbc7b842146106e7578063dd0bc08214610695578063de4920f41461066c578063def0dec814610514578063dfe36843146105ad578063e08f1ac314610545578063e1628f0b14610514578063e76ba1931461049a578063f536eb2b1461042d578063f851a440146104045763fcdd526114610317575f80fd5b3461040057602090816003193601126103fc57919091358152600a82528281209081546103438161428c565b9061035086519283613e16565b8082528482018094845285842084915b8383106103d75750505050845193808501918186525180925285850193925b82811061038c5785850386f35b909192938260a060019287518051825283810151848301528a8101516103b181613d4c565b828c0152606081810151908301526080908101511515908201520195019392910161037f565b6005886001926103ea859b98999b6140aa565b81520192019201919096949396610360565b8280fd5b5080fd5b82843461040057816003193601126104005760015490516001600160a01b039091168152602090f35b5082346103fc5761043d36613d36565b939081526010602052818120908154851015610497575060a09361046091614036565b5080549260018201549260ff6002840154926003850154940154169381519586526020860152840152606083015215156080820152f35b80fd5b5082346103fc57602091602060031936011261051057358352600760205280832092815180936020865492838152019583526020832092905b8282106104f9576104f586866104eb828b0383613e16565b5191829182613edf565b0390f35b8354875295860195600193840193909101906104d3565b8380fd5b8284346104005760ff8160209361052a36613d36565b908252600b8652828220908252855220541690519015158152f35b5082346103fc57602091602060031936011261051057358352601360205280832092815180936020865492838152019583526020832092905b828210610596576104f586866104eb828b0383613e16565b83548752958601956001938401939091019061057e565b508290346103fc5760209182600319360112610510578391358452600d83528084209384546105db8161428c565b956105e884519788613e16565b81875282528482208290868089015b84841061064d5750505050508451905b85518110156106405760c061061c82886142a4565b51015161062c575b600101610607565b92610638600191614088565b939050610624565b5082848351928352820152f35b60019160069161065c8561448f565b81520192019201919087906105f7565b508290346103fc5760203660031901126103fc5760209282913581526007845220549051908152f35b8234610497576020366003190112610497576106af613ec9565b6001546001600160a01b0391906106c9908316331461404f565b166106d58115156146b6565b81546001600160a01b03191617815580f35b508290346103fc5760203660031901126103fc5760209282913581526012845220549051908152f35b508290346103fc57602080600319360112610510578354835162b0c80960e01b815233818501529383359390918390869060249082906001600160a01b03165afa94851561088d57869561085a575b5061076b851515614211565b838652600e8352818620858752835260ff8287205416156108215750907f6ce2cfa8c67a8eeddab297878ec995418cc57aa7857d4fe81c4f22c06842af0d91838652600f8252808620858752825260056107f5826107e660ff846107dd8c8581205495818d889352600d8c5220613f43565b50015416614676565b868952600d8552838920613f43565b500160ff1990818154169055848752600e8352818720868852835281872090815416905551428152a380f35b82606492519162461bcd60e51b83528201526015602482015274139bc8191a5cdc1d5d19481d1bc81c995d1c9858dd605a1b6044820152fd5b9094508281813d8311610886575b6108728183613e16565b810103126108825751938661075f565b5f80fd5b503d610868565b82513d88823e3d90fd5b8284346104005760ff816020936108ad36613d36565b90825260038652828220908252855220541690519015158152f35b8284346104005781600319360112610400576020906009549051908152f35b5082346103fc576108f736613d36565b93908152600a602052818120908154851015610497575060a09361091a91614036565b5080549260018201549260ff8060028501541692600385015494015416938151958652602086015261094b82613d4c565b840152606083015215156080820152f35b84838534610497576020918260031936011261040057358152600d8252828120918254906109898261428c565b9161099686519384613e16565b8083528183018095855282852085915b838310610a615750505050845194818601928287525180935280860190808460051b8801019594975b8489106109dc5787870388f35b9091929394958480600192603f198b820301875289519081518152828201518382015286820151610a0c81613d4c565b87820152610a2260608084015190830190613e7e565b610a39608087818501519184015287830190613e8b565b9160a0808201519083015260c0809101511515910152980194019801979190949392946109cf565b600685600192610a74859a98999a61448f565b815201920192019190959493956109a6565b505082346103fc57602091602060031936011261051057358352601460205280832092815180936020865492838152019583526020832092905b828210610ad8576104f586866104eb828b0383613e16565b835487529586019560019384019390910190610ac0565b505082346103fc576020916020600319360112610510578035845260205280832092815180936020865492838152019583526020832092905b828210610b40576104f586866104eb828b0383613e16565b835487529586019560019384019390910190610b28565b505082346103fc57610b6836613d36565b92909160018060a01b03855416918151906345ecd02f60e01b825233818301526020918281602481885afa908115610d825790610bac918991610d8c575b506142d0565b82516364461aff60e11b81528181018681523360208201528390829081906040010381885afa908115610d825790610beb918991610d55575b50614313565b8587526006825282872054610d14578515610cdc578190602484518096819362b0c80960e01b835233908301525afa90811561088d578691610c8d575b7fa2dc124b7dcc6ee378406493edc477d456cb2e3946e74b015c868704e9f16280935085875260068152848388205584875260078152610c6a8684892061445b565b85875260088152828720805460ff1916600117905582519182524290820152a380f35b80915083813d8311610cd5575b610ca48183613e16565b81010312610882577fa2dc124b7dcc6ee378406493edc477d456cb2e3946e74b015c868704e9f16280925190610c28565b503d610c9a565b915162461bcd60e51b8152918201526014602482015273486173682063616e6e6f7420626520656d70747960601b6044820152606490fd5b915162461bcd60e51b815291820152601e60248201527f4861736820616c726561647920626f756e6420746f2061207265636f726400006044820152606490fd5b610d759150843d8611610d7b575b610d6d8183613e16565b8101906142b8565b89610be5565b503d610d63565b84513d8a823e3d90fd5b610da39150843d8611610d7b57610d6d8183613e16565b89610ba6565b8385346104005781600319360112610400576020906016549051908152f35b838584346103fc5760203660031901126103fc57610de4613ec9565b7ff0c57e16840df040f15088dc2f81fe391c3923bec73e23a9662efc9c229c6a009182549160ff83861c16159267ffffffffffffffff811680159081610f5f575b6001149081610f55575b159081610f4c575b50610f3c5767ffffffffffffffff198116600117855583610f1d575b506001600160a01b0316908115610ed057506bffffffffffffffffffffffff60a01b908186541617855533906001541617600155610e8f578280f35b805468ff00000000000000001916905551600181527fc7f505b2f371ae2175ee4913f4499e1f2633a7b5936321eed1cdaeb6115181d290602090a181808280f35b608490602086519162461bcd60e51b8352820152602160248201527f496e76616c6964204d656d626572526f6c654d616e61676572206164647265736044820152607360f81b6064820152fd5b68ffffffffffffffffff19166801000000000000000117845586610e53565b855163f92ee8a960e01b81528390fd5b90501588610e37565b303b159150610e2f565b859150610e25565b505091346104005760803660031901126104005760249083358235610f8a613d8a565b855484516345ecd02f60e01b815233818a0152602098926001600160a01b03929091908316908a818a81855afa9081156113415790610fcf918b9161132457506142d0565b86516364461aff60e11b815284810187815233602082015290918b918391908290819060400103915afa90811561131a5790611011918a916112fd5750614313565b61101c85151561435f565b6110278415156143ab565b611032604435614734565b9385895260038a52868920858a528a5260ff878a2054166112ab5785895260028a5286892054156111c4575b988899868a526002825261107486898c2061445b565b868a5260038252878a20868b528252878a2060ff1990600182825416179055878b5260058352888b20878c5283526001898c20918254161790558482526110bd87898c2061445b565b6110c8600954614088565b6009558581887faed20eb4df1031f98b6ee943999c834d0a9a777b4aae82671c972b33c8b93750858c51428152a48882858c54168a519283809262b0c80960e01b8252338b8301525afa9283156111ba578b93611184575b50509061112e9291876149d3565b86541690813b156111805786604492819587519889968795630c35c99760e21b87528601528401525af190811561117757506111675750f35b61117090613e02565b6104975780f35b513d84823e3d90fd5b8680fd5b80929b50819493503d83116111b3575b61119e8183613e16565b81010312610882579051899861112e5f611120565b503d611194565b89513d8d823e3d90fd5b80895260068a52868920548690801561122857036111e8579888995b90995061105e565b6064848b8a818b519362461bcd60e51b85528401528201527f486173682062656c6f6e677320746f20646966666572656e74207265636f72646044820152fd5b505060088a5260ff878a205416611275579889899a8a526006825286888b2055868a526007825261125b81898c2061445b565b808a5260088252878a20805460ff191660011790556111e0565b865162461bcd60e51b81528085018b90526011818a01527012185cda08185b1c9958591e481d5cd959607a1b6044820152606490fd5b865162461bcd60e51b81528085018b90526027818a01527f5265636f726420616c726561647920616e63686f72656420746f2074686973206044820152661cdd589a9958dd60ca1b6064820152608490fd5b61131491508b3d8d11610d7b57610d6d8183613e16565b5f610be5565b87513d8b823e3d90fd5b61133b91508c8d3d10610d7b57610d6d8183613e16565b5f610ba6565b88513d8c823e3d90fd5b505082346103fc57602091602060031936011261051057358352600260205280832092815180936020865492838152019583526020832092905b82821061139d576104f586866104eb828b0383613e16565b835487529586019560019384019390910190611385565b50503461040057602090816003193601126103fc57919091358152601082528281209081546113e28161428c565b906113ef86519283613e16565b8082528482018094845285842084915b8383106114695750505050845193808501918186525180925285850193925b82811061142b5785850386f35b835180518652808301518684015287810151888701526060808201519087015260809081015115159086015260a0909401939281019260010161141e565b60058860019261147c859b98999b6144fe565b815201920192019190969493966113ff565b8385346104005761149e36613d36565b92908152601360205281812090815484101561049757506020926114c191613f1a565b91905490519160031b1c8152f35b82858534610497576114e036613d36565b9390825260205281812090815484101561049757506020926114c191613f1a565b828585346104975761151236613d36565b91908152600d60205282812090815483101561049757509061153391613f43565b509061159c82549360018401549561158e600286015460ff811660ff600561155d60038b01613f94565b968a0154990154169680519a8b9a8b5260208b015261157b82613d4c565b89015260ff606089019160081c16613e7e565b806080870152850190613e8b565b9160a0840152151560c08301520390f35b838534610400576115bd36613d36565b92908152601460205281812090815484101561049757506020926114c191613f1a565b828585346104975780600319360112610497575080519080820182811067ffffffffffffffff821117611638576104f59350815260058252640352e302e360dc1b602083015251918291602083526020830190613e8b565b604184634e487b7160e01b5f525260245ffd5b8385346104005761165b36613d36565b92908152600260205281812090815484101561049757506020926114c191613f1a565b8385346104005781600319360112610400576020906017549051908152f35b8385346104005781600319360112610400576020906015549051908152f35b8385346104005760ff816020936116d236613d36565b90825260058652828220908252855220541690519015158152f35b50508234610882576116fe36613d36565b5f5483516345ecd02f60e01b815233818701529294926020926001600160a01b03929091908316908481602481855afa90811561190d5790611746915f916118f057506142d0565b85516364461aff60e11b8152858101888152336020820152909185918391908290819060400103915afa9081156118e657611791929161178c915f916118c95750614313565b614734565b91855f5260038152845f20835f52815260ff855f2054161561189157855f5260058152845f20835f52815260ff855f20541661185e57857f34ca5296a801df9003d17df2e6ea45b29101067ae1a058cef45a9b8995d2cdfc8492825f5260058152875f20845f528152875f20600160ff198254161790558751428152a35f5416803b15610882575f928360449286519788958694630c35c99760e21b865285015260248401525af19081156118555750611849575080f35b6118539150613e02565b005b513d5f823e3d90fd5b8360649186519162461bcd60e51b8352820152600e60248201526d416c72656164792061637469766560901b6044820152fd5b8360649186519162461bcd60e51b8352820152601360248201527215d85cc81b995d995c8818481cdd589a9958dd606a1b6044820152fd5b6118e09150863d8811610d7b57610d6d8183613e16565b8a610be5565b86513d5f823e3d90fd5b6119079150863d8811610d7b57610d6d8183613e16565b8a610ba6565b87513d5f823e3d90fd5b84346108825761192636613d36565b91905f526007602052805f208054831015610882576020926114c191613f1a565b84346108825760209061195936613d36565b905f52600f8352815f20905f528252805f20549051908152f35b84346108825760209061198536613d36565b905f5260118352815f20905f528252805f20549051908152f35b84833461088257816003193601126108825780359060ff6119be613d6a565b1692600184101580611bed575b6119d4906146f4565b5f54815162b0c80960e01b8152338482015294906020908190879060249082906001600160a01b03165afa958615611be3575f96611bb4575b50611a19861515614211565b845f52600b8152825f20865f52815260ff835f20541615611b7257845f52600c8152825f20865f528152611a59835f2054865f52600a8352845f20614036565b5060ff858201541615611b2f5760020160ff81541694611a7884613d4c565b611a8184613d4c565b611a8a86613d4c565b838614611af757509160609391611acc827f2ceaf6828ee12b3a0561fe551f858011031c9f47cf65d027f4462777e3c63a8d9795611ac782613d4c565b614255565b611ad582613d4c565b825193611ae181613d4c565b8452611aec82613d4c565b8301524290820152a3005b845162461bcd60e51b81529081018390526012602482015271105b1c9958591e481d1a1a5cc81b195d995b60721b6044820152606490fd5b835162461bcd60e51b8152808601839052601f60248201527f566572696669636174696f6e20686173206265656e20726574726163746564006044820152606490fd5b8360649184519162461bcd60e51b8352820152601960248201527f4e6f20766572696669636174696f6e20746f206d6f64696679000000000000006044820152fd5b9080965081813d8311611bdc575b611bcc8183613e16565b8101031261088257519486611a0d565b503d611bc2565b83513d5f823e3d90fd5b5060038411156119cb565b8483346108825760209081600319360112610882573590815f5260028152825f2083518082848294549384815201905f52845f20925f5b86828210611d2d57505050611c4692500382613e16565b5f915f5b8251811015611c9457845f5260058252855f20611c6782856142a4565b515f52825260ff865f205416611c80575b600101611c4a565b92611c8c600191614088565b939050611c78565b5090611c9f8361428c565b92611cac86519485613e16565b808452611cbb601f199161428c565b0136838501375f915f5b8251811015611d2057600190865f5260058352875f20611ce582866142a4565b515f52835260ff885f205416611cfc575b01611cc5565b611d0681856142a4565b51611d1a611d1387614088565b96886142a4565b52611cf6565b8651806104f58782613edf565b8554845260019586019587955093019201611c2f565b828534610882576020366003190112610882578135805f52600860205260ff825f20541615611d8157602092505f5260068252805f20549051908152f35b815162461bcd60e51b8152602081850152601360248201527212185cda08191bd95cc81b9bdd08195e1a5cdd606a1b6044820152606490fd5b84833461088257606036600319011261088257803590602435611ddb613d7a565b9260018060a01b035f54169285516345ecd02f60e01b815233828201526020908181602481895afa801561200657611e19915f9161201057506142d0565b86516364461aff60e11b81528281018481523360208201529095908290879081906040010381845afa90811561200657611e5d83926024985f91611fe95750614313565b611e6885151561435f565b611e738615156143ab565b611e8c60ff891660018110159081611fdd575b506146f4565b885162b0c80960e01b8152338582015296879182905afa94851561190d575f95611fae575b50611ebd851515614211565b835f5260068152611ed283885f2054146143f7565b835f52600b8152865f20855f52815260ff875f205416611f6c57835f52600e8152865f20855f52815260ff875f205416611f125750506118539450614872565b865162461bcd60e51b815291820152602f60248201527f43616e6e6f74207665726966792061206861736820796f75206172652061637460448201526e6976656c7920646973707574696e6760881b606482015260849150fd5b865162461bcd60e51b815291820152601a60248201527f416c726561647920766572696669656420746869732068617368000000000000604482015260649150fd5b9080955081813d8311611fd6575b611fc68183613e16565b8101031261088257519387611eb1565b503d611fbc565b6003915011158b611e86565b6120009150843d8611610d7b57610d6d8183613e16565b8b610be5565b88513d5f823e3d90fd5b610da39150833d8511610d7b57610d6d8183613e16565b84346108825760209061203936613d36565b905f52600e8352815f20905f52825260ff815f20541690519015158152f35b843461088257602036600319011261088257602090612075613ec9565b60015491906001600160a01b03808416917f38df5fa0f7fef0d515ca1f5388cb5790ac5885d5fca8d05d9f943e563c33a4b391906120b433851461404f565b169485936120c38515156146b6565b51428152a36001600160a01b03191617600155005b8434610882576020906120ea36613d36565b905f52600c8352815f20905f528252805f20549051908152f35b8285346108825761211436613d36565b9061212a60018060a01b0360015416331461404f565b805f52602060118152835f20835f528152835f2054938415612225575f19948086019081116122125761216690845f5260108452825f20614036565b509486860180549660ff8816156121d857600101549660ff19169055835f5260128352815f2090815480156121c5577f147d74bfb2412c7ed232eabeb9f52ec3783a909e5c2a94b9da2af7f2bdb18ae6959697985001905551428152a4005b601189634e487b7160e01b5f525260245ffd5b835162461bcd60e51b8152808a018690526014602482015273119b1859c8185b1c9958591e481c995d9bdad95960621b6044820152606490fd5b601187634e487b7160e01b5f525260245ffd5b5162461bcd60e51b815280860191909152600e60248201526d4e6f20666c61672065786973747360901b6044820152606490fd5b84346108825760209061226b36613d36565b5f8281526003855283812082825285528390205460ff16929183612294575b5050519015158152f35b909192505f5260058352815f20905f52825260ff815f20541690838061228a565b82853461088257602036600319011261088257602091355f5260128252805f205415159051908152f35b848334610882576122ef36613d36565b5f5484516345ecd02f60e01b8152338582015292949192602092916001600160a01b0316908381602481855afa908115611be35790612334915f9161257357506142d0565b81516228cf1560e51b8152858101878152336020820152909184918391908290819060400103915afa908115612569575f9161254c575b501561251557825f526006825284815f2054036124dd57825f52600880835260ff9261239c60ff845f205416614676565b5f94875f5260078252835f20978451808a85829c549384815201905f52855f20925f5b878282106124c7575050506123d69250038a613e16565b5f5b8951811015612418576123eb818b6142a4565b515f5284845286865f205416612404575b6001016123d8565b96612410600191614088565b9790506123fc565b5082858960018a111561246b57505f84815260088352818120805460ff191690556006835281812055514281527f6640c4cae266bfafee4b79ae3b57e1391d8cf826d2b9781aa698e99ca7157c7e9190a3005b82608492519162461bcd60e51b8352820152603260248201527f43616e6e6f74207265747261637420746865206c617374206163746976652076604482015271195c9cda5bdb881bd98818481c9958dbdc9960721b6064820152fd5b855484526001958601958f9550930192016123bf565b5162461bcd60e51b815292830152506014602482015273090c2e6d05aa4cac6dee4c840dad2e6dac2e8c6d60631b6044820152606490fd5b5162461bcd60e51b81529283015250601360248201527227b7363c9037bbb732b91037b91030b236b4b760691b6044820152606490fd5b6125639150833d8511610d7b57610d6d8183613e16565b8661236b565b82513d5f823e3d90fd5b61258a9150853d8711610d7b57610d6d8183613e16565b88610ba6565b828534610882575f366003190112610882577f00000000000000000000000000000000000000000000000000000000000000006001600160a01b031630036125fb57602090517f360894a13ba1a3210667c828492db98dca3e2076cc3735a920a3ca505d382bbc8152f35b5163703e46dd60e11b8152fd5b82853461088257602036600319011261088257602091355f5260068252805f20549051908152f35b84838160031936011261088257612645613ec9565b9160243567ffffffffffffffff81116108825736602382011215610882576126769036906024818601359101613e38565b906001600160a01b037f00000000000000000000000000000000000000000000000000000000000000008116308114908115612801575b506127f1576126c18160015416331461404f565b8416918151946352d1902d60e01b86526020868681875afa5f96816127bd575b506126fd57505051634c9c8ce360e01b81529182015260249150fd5b838593877f360894a13ba1a3210667c828492db98dca3e2076cc3735a920a3ca505d382bbc908181036127a75750833b156127905780546001600160a01b0319168317905551907fbc7cd75a20ee27fd9adebab32041f755214dbc6bffa90cc0225b39da2e5c2d3b5f80a282511561277a57506118539250614a51565b9150503461278457005b63b398979f60e01b8152fd5b8151634c9c8ce360e01b8152808701849052602490fd5b86602491845191632a87526960e21b8352820152fd5b9096506020813d6020116127e9575b816127d960209383613e16565b81010312610882575195876126e1565b3d91506127cc565b815163703e46dd60e11b81528490fd5b9050817f360894a13ba1a3210667c828492db98dca3e2076cc3735a920a3ca505d382bbc54161415866126ad565b84833461088257602080600319360112610882575f54835162b0c80960e01b815233818501529383359390918390869060249082906001600160a01b03165afa948515612569575f95612972575b50612889851515614211565b835f52600b8352815f20855f52835260ff825f2054161561293157907f7ec0e3ca85e47c77a1ed99ff37570ab8878cb21ced66baead633becff47a8f0e9291845f52600c8352815f20865f528352612906825f2054865f52600a85526128f760ff846107dd84885f20614036565b865f52600a8552835f20614036565b500160ff1990818154169055845f52600b8352815f20865f528352815f2090815416905551428152a3005b82606492519162461bcd60e51b8352820152601a60248201527f4e6f20766572696669636174696f6e20746f20726574726163740000000000006044820152fd5b9094508281813d831161299a575b61298a8183613e16565b810103126108825751938561287d565b503d612980565b828534610882576129b136613d36565b5f5483516345ecd02f60e01b8152338682015292936020939092916001600160a01b0316908481602481855afa908115612b6357906129f6915f91612b4c57506142d0565b82516364461aff60e11b8152868101868152336020820152909185918391908290819060400103915afa908115611be357612a3c929161178c915f91612b2f5750614313565b93835f5260038352815f20855f52835260ff825f20541615612aee57835f5260058352815f20855f52835260ff825f20541615612ab85750907f8aefa795ccfdf03e334bd6a4fe20e8c4f5d5202e0320dc267fde988bd5f1674f91835f5260058252805f20855f528252805f2060ff19815416905551428152a3005b82606492519162461bcd60e51b83528201526012602482015271105b1c9958591e481d5b985b98da1bdc995960721b6044820152fd5b82606492519162461bcd60e51b8352820152601c60248201527f4e6f742061207375626a656374206f662074686973207265636f7264000000006044820152fd5b612b469150863d8811610d7b57610d6d8183613e16565b88610be5565b61258a9150863d8811610d7b57610d6d8183613e16565b84513d5f823e3d90fd5b8490346108825761158e61159c612b8c612b8636613d36565b906145b5565b9695989390979291949980519a8b9a15158b5260208b0152612bad82613d4c565b8901526060880190613e7e565b82853461088257602036600319011261088257602091355f526008825260ff815f20541690519015158152f35b84346108825760a090612c02612bfc36613d36565b9061453f565b93949092815195151586521515602086015284015260608301526080820152f35b8483346108825760203660031901126108825780355f526013602052815f209082519182602082549182815201915f5260205f20905f5b818110612fc25750505082612c70910383613e16565b5f905f925b8051841015612d3057612c8884826142a4565b515f52600d602052845f20918254612c9f8161428c565b93612cac88519586613e16565b81855260208501905f5260205f20905f905b838210612d1257505050505f5b8351811015612d045760c0612ce082866142a4565b510151612cf0575b600101612ccb565b93612cfc600191614088565b949050612ce8565b506001909401939150612c75565b60066020600192612d228661448f565b815201930191019091612cbe565b9250612d53612d3e8361428c565b92612d4b86519485613e16565b80845261428c565b601f19015f5b818110612f895750505f935f5b8451811015612ee457612d7981866142a4565b515f52600d602052815f20908154612d908161428c565b92612d9d85519485613e16565b81845260208401905f5260205f205f915b838310612ec657505050505f5b8251811015612ebb5760c0612dd082856142a4565b51015115612eb357612de282886142a4565b5197612dee82856142a4565b515185612dfb84876142a4565b510151612e0781613d4c565b6060612e1385886142a4565b5101516006811015612ea057612e2985886142a4565b516080015191612e3986896142a4565b5160a00151938951809e612e4c82613de6565b815260200152612e5b81613d4c565b8c890152612e6c9060608d0161444f565b60808b015260a08a0152612e7f81614088565b98612e8a82896142a4565b52612e9590876142a4565b506001905b01612dbb565b602189634e487b7160e01b5f525260245ffd5b600190612e9a565b506001915001612d66565b60066020600192612ed68561448f565b815201920192019190612dae565b50805160208082528451818301819052600581901b83018401918601905f8486015b828210612f135785850386f35b90919293602080600192603f19898203018552875190612f7160c08351835284840151858401528c840151612f4781613d4c565b8d840152612f5d60608086015190850190613e7e565b608090808286015192850152830190613e8b565b9160a080910151910152960192019201909291612f06565b6020908651612f9781613de6565b5f81525f838201525f8882015260605f8183015260808201525f60a082015282828701015201612d59565b8254845260209093019260019283019201612c5a565b8285346108825760a036600319011261088257813590602492833591612ffc613d7a565b91613005613d8a565b67ffffffffffffffff93906084358581116108825736602382011215610882576130379036908a818701359101613e38565b9460018060a01b035f5416938551936345ecd02f60e01b8552338286015260209485818d818a5afa9081156120065790613077915f9161358657506142d0565b86516364461aff60e11b81528281018b815233602082015286908290819060400103818a5afa90811561200657916130bc60ff928e979695945f916135695750614313565b6130c78c151561435f565b6130d28b15156143ab565b16978560ff600195868c10158061355e575b6130ed90614182565b16976130fc60058a11156141c5565b895162b0c80960e01b815233858201529d8e9182905afa9b8c15612006575f9c61352f575b5061312d8c1515614211565b895f52600686526131428b895f2054146143f7565b895f52600e8652875f208c5f52865260ff885f2054166134ed57895f52600b8652875f208c5f52865260ff885f20541661349257895f52600d8652875f209283549561318d8b613d4c565b600689101561348057918c918e9594938b51966131a988613dca565b87528987019384528b87016131bd8e613d4c565b8d8152606088016131ce8d8261444f565b6080890194855260a089019542875260c08a01988b8a52600160401b8d101561346e578c613200918d82018155613f43565b9a909a61345d57518a55518a8a015561322760028a01925161322181613d4c565b83614255565b5190600682101561344b579061323c9161426d565b60038701925190815192831161343957506132578354613f5c565b601f81116133f3575b508990601f831160011461335d57946132de9460609d9b98947f19c1298d442e6dcfc61025509382dd2c8a2d96c75e684d78c38c95624674c9a99f9d9a97948061334a9d9a956005975f92613352575b50505f19600383901b1c191690891b1790555b519084015551151591019060ff801983541691151516179055565b895f52600e8352855f208c5f528352855f209060ff19825416179055885f52600f8252845f208b5f528252845f20556014815261331d88855f2061445b565b613328601654614088565b60165561333485613d4c565b83519461334081613d4c565b8552840190613e7e565b4290820152a4005b015190505f806132b0565b90601f19831691845f528b5f20925f5b8181106133de5750947f19c1298d442e6dcfc61025509382dd2c8a2d96c75e684d78c38c95624674c9a99f9d9a60609f9d9a969561334a9d9a95829a956132de9a958360059a106133c6575b505050811b0190556132c3565b01515f1960f88460031b161c191690555f80806133b9565b828401518555938b0193928d01928d0161336d565b835f528a5f20601f840160051c8101918c851061342f575b601f0160051c019089905b828110613424575050613260565b5f8155018990613416565b909150819061340b565b634e487b7160e01b5f90815260418752fd5b82602188634e487b7160e01b5f52525ffd5b845f8a634e487b7160e01b8252525ffd5b8460418a634e487b7160e01b5f52525ffd5b634e487b7160e01b5f90815260218552fd5b875162461bcd60e51b81528083018790526030818701527f43616e6e6f7420646973707574652061206861736820796f752061726520616360448201526f746976656c7920766572696679696e6760801b6064820152608490fd5b875162461bcd60e51b8152808301879052601a818701527f416c7265616479206469737075746564207468697320686173680000000000006044820152606490fd5b909b508581813d8311613557575b6135478183613e16565b8101031261088257519a8c613121565b503d61353d565b5060038c11156130e4565b6135809150893d8b11610d7b57610d6d8183613e16565b8f610be5565b61359d9150873d8911610d7b57610d6d8183613e16565b8d610ba6565b84833461088257602090816003193601126108825735905f90825f5260028152835f209084518083838295549384815201905f52835f20925f5b85828210613651575050506135f492500383613e16565b8151935f5b835181101561364357815f5260058352865f2061361682866142a4565b515f52835260ff875f20541661362f575b6001016135f9565b9361363b600191614088565b949050613627565b505090508351928352820152f35b85548452600195860195889550930192016135dd565b82853461088257602036600319011261088257602091355f5260128252805f20549051908152f35b8434610882575f366003190112610882576020906009549051908152f35b8434610882575f366003190112610882575f5490516001600160a01b039091168152602090f35b8483346108825760209081600319360112610882575f90355f52600a8252825f209283546137018161428c565b9461370e83519687613e16565b8186525f908152848120858088015b84841061376657505050505083515f5b855181101561064057608061374282886142a4565b510151613752575b60010161372d565b9261375e600191614088565b93905061374a565b600191600591613775856140aa565b815201920192019190869061371d565b84346108825760209061379736613d36565b905f5260038352815f20905f52825260ff815f20541690519015158152f35b848334610882576060366003190112610882578035906137d4613d6a565b926137dd613d7a565b9360ff8080921695600187101580613a8b575b6137f990614182565b169461380860058711156141c5565b5f54835162b0c80960e01b8152338682015296602094916024919086908a90849082906001600160a01b03165afa988915611be3575f99613a5c575b50613850891515614211565b875f52600e8652825f20895f52865284835f20541615613a2357875f52600f8652825f20895f52865261388f835f2054895f52600d8852845f20613f43565b5085600582015416156139e1576002019182549786808a169960081c16956138b681613d4c565b6138bf81613d4c565b6138c88a613d4c565b808a148015906139b3575b1561397f57806138e56138eb92613d4c565b85614255565b600683101561396e5750506139659360a096938361392f613957947f0fe65316e02c3dce1bca5a3132e022178971267d711982849c99758da3cfc7ed9b999661426d565b54948486169082519861394181613d4c565b895261394c82613d4c565b880152860190613e7e565b606084019160081c16613e7e565b426080820152a3005b602190634e487b7160e01b5f52525ffd5b5060106064928987519362461bcd60e51b85528401528201526f15985b1d595cc81d5b98da185b99d95960821b6044820152fd5b5060068410156139cf5760068710156139cf57838714156138d3565b50602190634e487b7160e01b5f52525ffd5b835162461bcd60e51b8152808901889052601a818501527f4469737075746520686173206265656e207265747261637465640000000000006044820152606490fd5b825162461bcd60e51b8152808801879052601481840152734e6f206469737075746520746f206d6f6469667960601b6044820152606490fd5b9098508581813d8311613a84575b613a748183613e16565b8101031261088257519789613844565b503d613a6a565b5060038711156137f0565b84346108825760a090613ab1613aab36613d36565b906140f6565b9394909281519515158652602086015261094b82613d4c565b8285346108825760803660031901126108825781356024918235926044359460643591613b0260018060a01b0360015416331461404f565b8415613d02578515613ccf578615613c9a57845f5260209160118352845f20875f528352845f2054613c6857855f5260108352845f205460018101809111613c5657865f5260118452855f20885f528452855f2055855f5260108352845f208551613b6c81613d9a565b8881528481018a8152878201908782526060830192428452608081019460018652805490600160401b821015613c445790613bac91600182018155614036565b979097613c335750518655516001860155516002850155516003840155519101805460ff191691151560ff169190911790557fd975a013e674f51ff6b9d1144095cbe8d88c8a4ebac520ffdce1b92eee22e99b929190845f5260128152825f20613c168154614088565b9055613c23601754614088565b60175582519182524290820152a4005b634e487b7160e01b5f908152808852fd5b88604189634e487b7160e01b5f52525ffd5b50601190634e487b7160e01b5f52525ffd5b600f6064928487519362461bcd60e51b85528401528201526e105b1c9958591e48199b1859d9d959608a1b6044820152fd5b906010606492602086519362461bcd60e51b85528401528201526f24b73b30b634b210383937bb34b232b960811b6044820152fd5b90600e606492602086519362461bcd60e51b85528401528201526d125b9d985b1a59081c9958dbdc9960921b6044820152fd5b90600f606492602086519362461bcd60e51b85528401528201526e125b9d985b1a59081cdd589a9958dd608a1b6044820152fd5b6040906003190112610882576004359060243590565b60041115613d5657565b634e487b7160e01b5f52602160045260245ffd5b6024359060ff8216820361088257565b6044359060ff8216820361088257565b6064359060ff8216820361088257565b60a0810190811067ffffffffffffffff821117613db657604052565b634e487b7160e01b5f52604160045260245ffd5b60e0810190811067ffffffffffffffff821117613db657604052565b60c0810190811067ffffffffffffffff821117613db657604052565b67ffffffffffffffff8111613db657604052565b90601f8019910116810190811067ffffffffffffffff821117613db657604052565b92919267ffffffffffffffff8211613db65760405191613e62601f8201601f191660200184613e16565b829481845281830111610882578281602093845f960137010152565b906006821015613d565752565b91908251928382525f5b848110613eb5575050825f602080949584010152601f8019910116010190565b602081830181015184830182015201613e95565b600435906001600160a01b038216820361088257565b60209060206040818301928281528551809452019301915f5b828110613f06575050505090565b835185529381019392810192600101613ef8565b8054821015613f2f575f5260205f2001905f90565b634e487b7160e01b5f52603260045260245ffd5b8054821015613f2f575f52600660205f20910201905f90565b90600182811c92168015613f8a575b6020831014613f7657565b634e487b7160e01b5f52602260045260245ffd5b91607f1691613f6b565b9060405191825f8254613fa681613f5c565b908184526020946001916001811690815f146140145750600114613fd6575b505050613fd492500383613e16565b565b5f90815285812095935091905b818310613ffc575050613fd493508201015f8080613fc5565b85548884018501529485019487945091830191613fe3565b92505050613fd494925060ff191682840152151560051b8201015f8080613fc5565b8054821015613f2f575f52600560205f20910201905f90565b1561405657565b60405162461bcd60e51b815260206004820152600a60248201526927b7363c9030b236b4b760b11b6044820152606490fd5b5f1981146140965760010190565b634e487b7160e01b5f52601160045260245ffd5b906040516140b781613d9a565b608060ff600483958054855260018101546020860152826002820154166140dd81613d4c565b6040860152600381015460608601520154161515910152565b919091805f52602090600b8252604093845f20815f52835260ff855f2054161561417257816141449161414a935f52600c8552865f20905f528452855f2054905f52600a8452855f20614036565b506140aa565b90810151928101519161415c83613d4c565b6080606083015192015115159060019493929190565b505f935083928392508291508190565b1561418957565b60405162461bcd60e51b81526020600482015260146024820152735365766572697479206d75737420626520312d3360601b6044820152606490fd5b156141cc57565b60405162461bcd60e51b815260206004820152601760248201527f43756c706162696c697479206d75737420626520302d350000000000000000006044820152606490fd5b1561421857565b60405162461bcd60e51b815260206004820152601560248201527415d85b1b195d081b9bdd081c9959da5cdd195c9959605a1b6044820152606490fd5b9061425f81613d4c565b60ff80198354169116179055565b906006811015613d565761ff0082549160081b169061ff001916179055565b67ffffffffffffffff8111613db65760051b60200190565b8051821015613f2f5760209160051b010190565b90816020910312610882575180151581036108825790565b156142d757565b60405162461bcd60e51b81526020600482015260146024820152732737ba1030b71030b1ba34bb329036b2b6b132b960611b6044820152606490fd5b1561431a57565b60405162461bcd60e51b815260206004820152601860248201527f4e6f2061636365737320746f2074686973207265636f726400000000000000006044820152606490fd5b1561436657565b60405162461bcd60e51b815260206004820152601960248201527f5265636f72642049442063616e6e6f7420626520656d707479000000000000006044820152606490fd5b156143b257565b60405162461bcd60e51b815260206004820152601b60248201527f5265636f726420686173682063616e6e6f7420626520656d70747900000000006044820152606490fd5b156143fe57565b60405162461bcd60e51b815260206004820152602360248201527f4861736820646f6573206e6f742062656c6f6e6720746f2074686973207265636044820152621bdc9960ea1b6064820152608490fd5b6006821015613d565752565b8054600160401b811015613db65761447891600182018155613f1a565b819291549060031b91821b915f19901b1916179055565b9060405161449c81613dca565b60c060ff6005839580548552600181015460208601526144d98360028301548181166144c781613d4c565b604089015260081c166060870161444f565b6144e560038201613f94565b6080860152600481015460a08601520154161515910152565b9060405161450b81613d9a565b608060ff60048395805485526001810154602086015260028101546040860152600381015460608601520154161515910152565b90815f52601160205260405f20905f5260205260405f20549081156145a7575f52601060205260405f205f198201918211614096576145879161458191614036565b506144fe565b608081015160208201516040830151606090930151600194921515939192565b50505f905f905f905f905f90565b919091805f52602090600e8252604093845f20815f52835260ff855f20541615614648578161460391614609935f52600f8552865f20905f528452855f2054905f52600d8452855f20613f43565b5061448f565b90810151928101519161461b83613d4c565b6060820151916006831015613d565760808101519160c060a0830151920151151590600196959493929190565b50505f925f925f925f9280519182019082821067ffffffffffffffff831117613db657525f8152905f905f90565b1561467d57565b60405162461bcd60e51b8152602060048201526011602482015270105b1c9958591e481c995d1c9858dd1959607a1b6044820152606490fd5b156146bd57565b60405162461bcd60e51b815260206004820152600f60248201526e496e76616c6964206164647265737360881b6044820152606490fd5b156146fb57565b60405162461bcd60e51b81526020600482015260116024820152704c6576656c206d75737420626520312d3360781b6044820152606490fd5b5f5460405162b0c80960e01b81523360048201526020916001600160a01b0316908281602481855afa90811561482a575f91614845575b50614777811515614211565b8315801561483c575b61483557829060446040518094819363557ee54f60e01b835288600484015260248301525afa90811561482a575f9161480d575b50156147be575090565b6084906040519062461bcd60e51b82526004820152602260248201527f4e6f74206120636f6e74726f6c6c657220666f722074686973206964656e7469604482015261747960f01b6064820152fd5b6148249150823d8411610d7b57610d6d8183613e16565b5f6147b4565b6040513d5f823e3d90fd5b9250505090565b50808414614780565b90508281813d831161486b575b61485c8183613e16565b8101031261088257515f61476b565b503d614852565b9192815f52602090600a8252604090815f209260ff845492169161489583613d4c565b8351946148a186613d9a565b88865282860190888252858701916148b886613d4c565b8583526060880191428352608089019060018252600160401b861015613db657856148e891600182018155614036565b9390936149c057614937614953956004947f9f44978447988782ba02b3e977811604129dc2032d4cfc97aaadacb68bea9f359c5187555160018701555161492e81613d4c565b60028601614255565b51600384015551151591019060ff801983541691151516179055565b855f52600b8252835f20885f528252835f20600160ff19825416179055855f52600c8252835f20885f528252835f20556013815261499385845f2061445b565b61499e601554614088565b6015556149aa82613d4c565b8251916149b681613d4c565b82524290820152a4565b634e487b7160e01b5f525f60045260245ffd5b92919060ff831660018110908115614a46575b50614a4057805f5260066020528360405f205403614a4057600b60205260405f20825f5260205260ff60405f205416614a4057805f52600e60205260405f20825f5260205260ff60405f205416614a4057613fd493614872565b50505050565b60039150115f6149e6565b905f8091602081519101845af48080614acf575b15614a855750506040513d81523d5f602083013e60203d82010160405290565b15614aac57604051639996b31560e01b81526001600160a01b039091166004820152602490fd5b3d15614abd576040513d5f823e3d90fd5b60405163d6bda27560e01b8152600490fd5b503d151580614a655750813b1515614a6556fea2646970667358221220d2f440051a6be562a78e42e3ef67bc34fee74a79b593e27b6ad101f8ef36bb4464736f6c63430008180033","opcodes":"PUSH1 0xA0 DUP1 PUSH1 0x40 MSTORE CALLVALUE PUSH3 0xD1 JUMPI ADDRESS PUSH1 0x80 MSTORE PUSH32 0xF0C57E16840DF040F15088DC2F81FE391C3923BEC73E23A9662EFC9C229C6A00 SWAP1 DUP2 SLOAD SWAP1 PUSH1 0xFF DUP3 PUSH1 0x40 SHR AND PUSH3 0xC2 JUMPI POP PUSH1 0x1 PUSH1 0x1 PUSH1 0x40 SHL SUB PUSH1 0x2 PUSH1 0x1 PUSH1 0x40 SHL SUB NOT DUP3 DUP3 AND ADD PUSH3 0x7C JUMPI JUMPDEST PUSH1 0x40 MLOAD PUSH2 0x4B18 SWAP1 DUP2 PUSH3 0xD6 DUP3 CODECOPY PUSH1 0x80 MLOAD DUP2 DUP2 DUP2 PUSH2 0x25A4 ADD MSTORE PUSH2 0x2681 ADD MSTORE RETURN JUMPDEST PUSH1 0x1 PUSH1 0x1 PUSH1 0x40 SHL SUB NOT SWAP1 SWAP2 AND DUP2 OR SWAP1 SWAP2 SSTORE PUSH1 0x40 MLOAD SWAP1 DUP2 MSTORE PUSH32 0xC7F505B2F371AE2175EE4913F4499E1F2633A7B5936321EED1CDAEB6115181D2 SWAP1 PUSH1 0x20 SWAP1 LOG1 PUSH0 DUP1 DUP1 PUSH3 0x5C JUMP JUMPDEST PUSH4 0xF92EE8A9 PUSH1 0xE0 SHL DUP2 MSTORE PUSH1 0x4 SWAP1 REVERT JUMPDEST PUSH0 DUP1 REVERT INVALID PUSH1 0x40 PUSH1 0x80 DUP2 MSTORE PUSH1 0x4 DUP1 CALLDATASIZE LT ISZERO PUSH2 0x13 JUMPI PUSH0 DUP1 REVERT JUMPDEST PUSH0 SWAP1 PUSH1 0xE0 PUSH0 CALLDATALOAD DUP2 SHR SWAP1 DUP2 PUSH4 0x1F69935 EQ PUSH2 0x3ACA JUMPI DUP2 PUSH4 0x45524A2 EQ PUSH2 0x3A96 JUMPI DUP2 PUSH4 0x56C925F EQ PUSH2 0x37B6 JUMPI DUP2 PUSH4 0x8D86517 EQ PUSH2 0x3785 JUMPI DUP2 PUSH4 0x10466A67 EQ PUSH2 0x2027 JUMPI DUP2 PUSH4 0x1166C389 EQ PUSH2 0x36D4 JUMPI DUP2 PUSH4 0x15370703 EQ PUSH2 0x36AD JUMPI DUP2 PUSH4 0x1CF8CBE8 EQ PUSH2 0x368F JUMPI DUP2 PUSH4 0x1EE66770 EQ PUSH2 0x2BBA JUMPI DUP2 PUSH4 0x249DDA2E EQ PUSH2 0x3667 JUMPI DUP2 PUSH4 0x28837450 EQ PUSH2 0x35A3 JUMPI DUP2 PUSH4 0x3533D58C EQ PUSH2 0x2FD8 JUMPI DUP2 PUSH4 0x3CE78B05 EQ PUSH2 0x2C23 JUMPI DUP2 PUSH4 0x3FA8EA81 EQ PUSH2 0x2BE7 JUMPI DUP2 PUSH4 0x40EC2E9A EQ PUSH2 0x2BBA JUMPI DUP2 PUSH4 0x42442226 EQ PUSH2 0x2B6D JUMPI DUP2 PUSH4 0x42DEEC25 EQ PUSH2 0x29A1 JUMPI DUP2 PUSH4 0x438B17CF EQ PUSH2 0x282F JUMPI DUP2 PUSH4 0x4F1EF286 EQ PUSH2 0x2630 JUMPI DUP2 PUSH4 0x5211E3B6 EQ PUSH2 0x2608 JUMPI DUP2 PUSH4 0x52D1902D EQ PUSH2 0x2590 JUMPI DUP2 PUSH4 0x5A3BA1FA EQ PUSH2 0x22DF JUMPI DUP2 PUSH4 0x5D28A342 EQ PUSH2 0x22B5 JUMPI DUP2 PUSH4 0x64F639D4 EQ PUSH2 0x2259 JUMPI DUP2 PUSH4 0x6E95A051 EQ PUSH2 0x2104 JUMPI DUP2 PUSH4 0x741BFC1D EQ PUSH2 0x20D8 JUMPI DUP2 PUSH4 0x75829DEF EQ PUSH2 0x2058 JUMPI DUP2 PUSH4 0x7628262E EQ PUSH2 0x2027 JUMPI DUP2 PUSH4 0x7B470F6A EQ PUSH2 0x1DBA JUMPI DUP2 PUSH4 0x84DEBBF1 EQ PUSH2 0x1D43 JUMPI DUP2 PUSH4 0x86519335 EQ PUSH2 0x1BF8 JUMPI DUP2 PUSH4 0x86FE96E1 EQ PUSH2 0x199F JUMPI DUP2 PUSH4 0x8A7F882C EQ PUSH2 0x1973 JUMPI DUP2 PUSH4 0x8FC751EE EQ PUSH2 0x1947 JUMPI DUP2 PUSH4 0x9AFD307C EQ PUSH2 0x1917 JUMPI DUP2 PUSH4 0x9E3432C1 EQ PUSH2 0x16ED JUMPI DUP2 PUSH4 0xA208F96C EQ PUSH2 0x16BC JUMPI DUP2 PUSH4 0xAC90C140 EQ PUSH2 0x169D JUMPI DUP2 PUSH4 0xAC924336 EQ PUSH2 0x167E JUMPI DUP2 PUSH4 0xACA5964F EQ PUSH2 0x164B JUMPI DUP2 PUSH4 0xAD3CB1CC EQ PUSH2 0x15E0 JUMPI DUP2 PUSH4 0xADCEE102 EQ PUSH2 0x15AD JUMPI DUP2 PUSH4 0xAEB2A19F EQ PUSH2 0x1501 JUMPI DUP2 PUSH4 0xB27BB4D5 EQ PUSH2 0x14CF JUMPI DUP2 PUSH4 0xB5E6B7A2 EQ PUSH2 0x148E JUMPI DUP2 PUSH4 0xBE4F9077 EQ PUSH2 0x13B4 JUMPI DUP2 PUSH4 0xBF520465 EQ PUSH2 0x134B JUMPI DUP2 PUSH4 0xC0D1606E EQ PUSH2 0xF67 JUMPI DUP2 PUSH4 0xC4D66DE8 EQ PUSH2 0xDC8 JUMPI DUP2 PUSH4 0xC5E4CCC4 EQ PUSH2 0xDA9 JUMPI DUP2 PUSH4 0xC7567DFA EQ PUSH2 0xB57 JUMPI DUP2 PUSH4 0xC7695BAB EQ PUSH2 0xAEF JUMPI DUP2 PUSH4 0xD08C800D EQ PUSH2 0xA86 JUMPI DUP2 PUSH4 0xD19D3661 EQ PUSH2 0x95C JUMPI POP DUP1 PUSH4 0xD1E94E57 EQ PUSH2 0x8E7 JUMPI DUP1 PUSH4 0xD46E082F EQ PUSH2 0x8C8 JUMPI DUP1 PUSH4 0xD6989F09 EQ PUSH2 0x897 JUMPI DUP1 PUSH4 0xD9E551FC EQ PUSH2 0x710 JUMPI DUP1 PUSH4 0xDBC7B842 EQ PUSH2 0x6E7 JUMPI DUP1 PUSH4 0xDD0BC082 EQ PUSH2 0x695 JUMPI DUP1 PUSH4 0xDE4920F4 EQ PUSH2 0x66C JUMPI DUP1 PUSH4 0xDEF0DEC8 EQ PUSH2 0x514 JUMPI DUP1 PUSH4 0xDFE36843 EQ PUSH2 0x5AD JUMPI DUP1 PUSH4 0xE08F1AC3 EQ PUSH2 0x545 JUMPI DUP1 PUSH4 0xE1628F0B EQ PUSH2 0x514 JUMPI DUP1 PUSH4 0xE76BA193 EQ PUSH2 0x49A JUMPI DUP1 PUSH4 0xF536EB2B EQ PUSH2 0x42D JUMPI DUP1 PUSH4 0xF851A440 EQ PUSH2 0x404 JUMPI PUSH4 0xFCDD5261 EQ PUSH2 0x317 JUMPI PUSH0 DUP1 REVERT JUMPDEST CALLVALUE PUSH2 0x400 JUMPI PUSH1 0x20 SWAP1 DUP2 PUSH1 0x3 NOT CALLDATASIZE ADD SLT PUSH2 0x3FC JUMPI SWAP2 SWAP1 SWAP2 CALLDATALOAD DUP2 MSTORE PUSH1 0xA DUP3 MSTORE DUP3 DUP2 KECCAK256 SWAP1 DUP2 SLOAD PUSH2 0x343 DUP2 PUSH2 0x428C JUMP JUMPDEST SWAP1 PUSH2 0x350 DUP7 MLOAD SWAP3 DUP4 PUSH2 0x3E16 JUMP JUMPDEST DUP1 DUP3 MSTORE DUP5 DUP3 ADD DUP1 SWAP5 DUP5 MSTORE DUP6 DUP5 KECCAK256 DUP5 SWAP2 JUMPDEST DUP4 DUP4 LT PUSH2 0x3D7 JUMPI POP POP POP POP DUP5 MLOAD SWAP4 DUP1 DUP6 ADD SWAP2 DUP2 DUP7 MSTORE MLOAD DUP1 SWAP3 MSTORE DUP6 DUP6 ADD SWAP4 SWAP3 JUMPDEST DUP3 DUP2 LT PUSH2 0x38C JUMPI DUP6 DUP6 SUB DUP7 RETURN JUMPDEST SWAP1 SWAP2 SWAP3 SWAP4 DUP3 PUSH1 0xA0 PUSH1 0x1 SWAP3 DUP8 MLOAD DUP1 MLOAD DUP3 MSTORE DUP4 DUP2 ADD MLOAD DUP5 DUP4 ADD MSTORE DUP11 DUP2 ADD MLOAD PUSH2 0x3B1 DUP2 PUSH2 0x3D4C JUMP JUMPDEST DUP3 DUP13 ADD MSTORE PUSH1 0x60 DUP2 DUP2 ADD MLOAD SWAP1 DUP4 ADD MSTORE PUSH1 0x80 SWAP1 DUP2 ADD MLOAD ISZERO ISZERO SWAP1 DUP3 ADD MSTORE ADD SWAP6 ADD SWAP4 SWAP3 SWAP2 ADD PUSH2 0x37F JUMP JUMPDEST PUSH1 0x5 DUP9 PUSH1 0x1 SWAP3 PUSH2 0x3EA DUP6 SWAP12 SWAP9 SWAP10 SWAP12 PUSH2 0x40AA JUMP JUMPDEST DUP2 MSTORE ADD SWAP3 ADD SWAP3 ADD SWAP2 SWAP1 SWAP7 SWAP5 SWAP4 SWAP7 PUSH2 0x360 JUMP JUMPDEST DUP3 DUP1 REVERT JUMPDEST POP DUP1 REVERT JUMPDEST DUP3 DUP5 CALLVALUE PUSH2 0x400 JUMPI DUP2 PUSH1 0x3 NOT CALLDATASIZE ADD SLT PUSH2 0x400 JUMPI PUSH1 0x1 SLOAD SWAP1 MLOAD PUSH1 0x1 PUSH1 0x1 PUSH1 0xA0 SHL SUB SWAP1 SWAP2 AND DUP2 MSTORE PUSH1 0x20 SWAP1 RETURN JUMPDEST POP DUP3 CALLVALUE PUSH2 0x3FC JUMPI PUSH2 0x43D CALLDATASIZE PUSH2 0x3D36 JUMP JUMPDEST SWAP4 SWAP1 DUP2 MSTORE PUSH1 0x10 PUSH1 0x20 MSTORE DUP2 DUP2 KECCAK256 SWAP1 DUP2 SLOAD DUP6 LT ISZERO PUSH2 0x497 JUMPI POP PUSH1 0xA0 SWAP4 PUSH2 0x460 SWAP2 PUSH2 0x4036 JUMP JUMPDEST POP DUP1 SLOAD SWAP3 PUSH1 0x1 DUP3 ADD SLOAD SWAP3 PUSH1 0xFF PUSH1 0x2 DUP5 ADD SLOAD SWAP3 PUSH1 0x3 DUP6 ADD SLOAD SWAP5 ADD SLOAD AND SWAP4 DUP2 MLOAD SWAP6 DUP7 MSTORE PUSH1 0x20 DUP7 ADD MSTORE DUP5 ADD MSTORE PUSH1 0x60 DUP4 ADD MSTORE ISZERO ISZERO PUSH1 0x80 DUP3 ADD MSTORE RETURN JUMPDEST DUP1 REVERT JUMPDEST POP DUP3 CALLVALUE PUSH2 0x3FC JUMPI PUSH1 0x20 SWAP2 PUSH1 0x20 PUSH1 0x3 NOT CALLDATASIZE ADD SLT PUSH2 0x510 JUMPI CALLDATALOAD DUP4 MSTORE PUSH1 0x7 PUSH1 0x20 MSTORE DUP1 DUP4 KECCAK256 SWAP3 DUP2 MLOAD DUP1 SWAP4 PUSH1 0x20 DUP7 SLOAD SWAP3 DUP4 DUP2 MSTORE ADD SWAP6 DUP4 MSTORE PUSH1 0x20 DUP4 KECCAK256 SWAP3 SWAP1 JUMPDEST DUP3 DUP3 LT PUSH2 0x4F9 JUMPI PUSH2 0x4F5 DUP7 DUP7 PUSH2 0x4EB DUP3 DUP12 SUB DUP4 PUSH2 0x3E16 JUMP JUMPDEST MLOAD SWAP2 DUP3 SWAP2 DUP3 PUSH2 0x3EDF JUMP JUMPDEST SUB SWAP1 RETURN JUMPDEST DUP4 SLOAD DUP8 MSTORE SWAP6 DUP7 ADD SWAP6 PUSH1 0x1 SWAP4 DUP5 ADD SWAP4 SWAP1 SWAP2 ADD SWAP1 PUSH2 0x4D3 JUMP JUMPDEST DUP4 DUP1 REVERT JUMPDEST DUP3 DUP5 CALLVALUE PUSH2 0x400 JUMPI PUSH1 0xFF DUP2 PUSH1 0x20 SWAP4 PUSH2 0x52A CALLDATASIZE PUSH2 0x3D36 JUMP JUMPDEST SWAP1 DUP3 MSTORE PUSH1 0xB DUP7 MSTORE DUP3 DUP3 KECCAK256 SWAP1 DUP3 MSTORE DUP6 MSTORE KECCAK256 SLOAD AND SWAP1 MLOAD SWAP1 ISZERO ISZERO DUP2 MSTORE RETURN JUMPDEST POP DUP3 CALLVALUE PUSH2 0x3FC JUMPI PUSH1 0x20 SWAP2 PUSH1 0x20 PUSH1 0x3 NOT CALLDATASIZE ADD SLT PUSH2 0x510 JUMPI CALLDATALOAD DUP4 MSTORE PUSH1 0x13 PUSH1 0x20 MSTORE DUP1 DUP4 KECCAK256 SWAP3 DUP2 MLOAD DUP1 SWAP4 PUSH1 0x20 DUP7 SLOAD SWAP3 DUP4 DUP2 MSTORE ADD SWAP6 DUP4 MSTORE PUSH1 0x20 DUP4 KECCAK256 SWAP3 SWAP1 JUMPDEST DUP3 DUP3 LT PUSH2 0x596 JUMPI PUSH2 0x4F5 DUP7 DUP7 PUSH2 0x4EB DUP3 DUP12 SUB DUP4 PUSH2 0x3E16 JUMP JUMPDEST DUP4 SLOAD DUP8 MSTORE SWAP6 DUP7 ADD SWAP6 PUSH1 0x1 SWAP4 DUP5 ADD SWAP4 SWAP1 SWAP2 ADD SWAP1 PUSH2 0x57E JUMP JUMPDEST POP DUP3 SWAP1 CALLVALUE PUSH2 0x3FC JUMPI PUSH1 0x20 SWAP2 DUP3 PUSH1 0x3 NOT CALLDATASIZE ADD SLT PUSH2 0x510 JUMPI DUP4 SWAP2 CALLDATALOAD DUP5 MSTORE PUSH1 0xD DUP4 MSTORE DUP1 DUP5 KECCAK256 SWAP4 DUP5 SLOAD PUSH2 0x5DB DUP2 PUSH2 0x428C JUMP JUMPDEST SWAP6 PUSH2 0x5E8 DUP5 MLOAD SWAP8 DUP9 PUSH2 0x3E16 JUMP JUMPDEST DUP2 DUP8 MSTORE DUP3 MSTORE DUP5 DUP3 KECCAK256 DUP3 SWAP1 DUP7 DUP1 DUP10 ADD JUMPDEST DUP5 DUP5 LT PUSH2 0x64D JUMPI POP POP POP POP POP DUP5 MLOAD SWAP1 JUMPDEST DUP6 MLOAD DUP2 LT ISZERO PUSH2 0x640 JUMPI PUSH1 0xC0 PUSH2 0x61C DUP3 DUP9 PUSH2 0x42A4 JUMP JUMPDEST MLOAD ADD MLOAD PUSH2 0x62C JUMPI JUMPDEST PUSH1 0x1 ADD PUSH2 0x607 JUMP JUMPDEST SWAP3 PUSH2 0x638 PUSH1 0x1 SWAP2 PUSH2 0x4088 JUMP JUMPDEST SWAP4 SWAP1 POP PUSH2 0x624 JUMP JUMPDEST POP DUP3 DUP5 DUP4 MLOAD SWAP3 DUP4 MSTORE DUP3 ADD MSTORE RETURN JUMPDEST PUSH1 0x1 SWAP2 PUSH1 0x6 SWAP2 PUSH2 0x65C DUP6 PUSH2 0x448F JUMP JUMPDEST DUP2 MSTORE ADD SWAP3 ADD SWAP3 ADD SWAP2 SWAP1 DUP8 SWAP1 PUSH2 0x5F7 JUMP JUMPDEST POP DUP3 SWAP1 CALLVALUE PUSH2 0x3FC JUMPI PUSH1 0x20 CALLDATASIZE PUSH1 0x3 NOT ADD SLT PUSH2 0x3FC JUMPI PUSH1 0x20 SWAP3 DUP3 SWAP2 CALLDATALOAD DUP2 MSTORE PUSH1 0x7 DUP5 MSTORE KECCAK256 SLOAD SWAP1 MLOAD SWAP1 DUP2 MSTORE RETURN JUMPDEST DUP3 CALLVALUE PUSH2 0x497 JUMPI PUSH1 0x20 CALLDATASIZE PUSH1 0x3 NOT ADD SLT PUSH2 0x497 JUMPI PUSH2 0x6AF PUSH2 0x3EC9 JUMP JUMPDEST PUSH1 0x1 SLOAD PUSH1 0x1 PUSH1 0x1 PUSH1 0xA0 SHL SUB SWAP2 SWAP1 PUSH2 0x6C9 SWAP1 DUP4 AND CALLER EQ PUSH2 0x404F JUMP JUMPDEST AND PUSH2 0x6D5 DUP2 ISZERO ISZERO PUSH2 0x46B6 JUMP JUMPDEST DUP2 SLOAD PUSH1 0x1 PUSH1 0x1 PUSH1 0xA0 SHL SUB NOT AND OR DUP2 SSTORE DUP1 RETURN JUMPDEST POP DUP3 SWAP1 CALLVALUE PUSH2 0x3FC JUMPI PUSH1 0x20 CALLDATASIZE PUSH1 0x3 NOT ADD SLT PUSH2 0x3FC JUMPI PUSH1 0x20 SWAP3 DUP3 SWAP2 CALLDATALOAD DUP2 MSTORE PUSH1 0x12 DUP5 MSTORE KECCAK256 SLOAD SWAP1 MLOAD SWAP1 DUP2 MSTORE RETURN JUMPDEST POP DUP3 SWAP1 CALLVALUE PUSH2 0x3FC JUMPI PUSH1 0x20 DUP1 PUSH1 0x3 NOT CALLDATASIZE ADD SLT PUSH2 0x510 JUMPI DUP4 SLOAD DUP4 MLOAD PUSH3 0xB0C809 PUSH1 0xE0 SHL DUP2 MSTORE CALLER DUP2 DUP6 ADD MSTORE SWAP4 DUP4 CALLDATALOAD SWAP4 SWAP1 SWAP2 DUP4 SWAP1 DUP7 SWAP1 PUSH1 0x24 SWAP1 DUP3 SWAP1 PUSH1 0x1 PUSH1 0x1 PUSH1 0xA0 SHL SUB AND GAS STATICCALL SWAP5 DUP6 ISZERO PUSH2 0x88D JUMPI DUP7 SWAP6 PUSH2 0x85A JUMPI JUMPDEST POP PUSH2 0x76B DUP6 ISZERO ISZERO PUSH2 0x4211 JUMP JUMPDEST DUP4 DUP7 MSTORE PUSH1 0xE DUP4 MSTORE DUP2 DUP7 KECCAK256 DUP6 DUP8 MSTORE DUP4 MSTORE PUSH1 0xFF DUP3 DUP8 KECCAK256 SLOAD AND ISZERO PUSH2 0x821 JUMPI POP SWAP1 PUSH32 0x6CE2CFA8C67A8EEDDAB297878EC995418CC57AA7857D4FE81C4F22C06842AF0D SWAP2 DUP4 DUP7 MSTORE PUSH1 0xF DUP3 MSTORE DUP1 DUP7 KECCAK256 DUP6 DUP8 MSTORE DUP3 MSTORE PUSH1 0x5 PUSH2 0x7F5 DUP3 PUSH2 0x7E6 PUSH1 0xFF DUP5 PUSH2 0x7DD DUP13 DUP6 DUP2 KECCAK256 SLOAD SWAP6 DUP2 DUP14 DUP9 SWAP4 MSTORE PUSH1 0xD DUP13 MSTORE KECCAK256 PUSH2 0x3F43 JUMP JUMPDEST POP ADD SLOAD AND PUSH2 0x4676 JUMP JUMPDEST DUP7 DUP10 MSTORE PUSH1 0xD DUP6 MSTORE DUP4 DUP10 KECCAK256 PUSH2 0x3F43 JUMP JUMPDEST POP ADD PUSH1 0xFF NOT SWAP1 DUP2 DUP2 SLOAD AND SWAP1 SSTORE DUP5 DUP8 MSTORE PUSH1 0xE DUP4 MSTORE DUP2 DUP8 KECCAK256 DUP7 DUP9 MSTORE DUP4 MSTORE DUP2 DUP8 KECCAK256 SWAP1 DUP2 SLOAD AND SWAP1 SSTORE MLOAD TIMESTAMP DUP2 MSTORE LOG3 DUP1 RETURN JUMPDEST DUP3 PUSH1 0x64 SWAP3 MLOAD SWAP2 PUSH3 0x461BCD PUSH1 0xE5 SHL DUP4 MSTORE DUP3 ADD MSTORE PUSH1 0x15 PUSH1 0x24 DUP3 ADD MSTORE PUSH21 0x139BC8191A5CDC1D5D19481D1BC81C995D1C9858DD PUSH1 0x5A SHL PUSH1 0x44 DUP3 ADD MSTORE REVERT JUMPDEST SWAP1 SWAP5 POP DUP3 DUP2 DUP2 RETURNDATASIZE DUP4 GT PUSH2 0x886 JUMPI JUMPDEST PUSH2 0x872 DUP2 DUP4 PUSH2 0x3E16 JUMP JUMPDEST DUP2 ADD SUB SLT PUSH2 0x882 JUMPI MLOAD SWAP4 DUP7 PUSH2 0x75F JUMP JUMPDEST PUSH0 DUP1 REVERT JUMPDEST POP RETURNDATASIZE PUSH2 0x868 JUMP JUMPDEST DUP3 MLOAD RETURNDATASIZE DUP9 DUP3 RETURNDATACOPY RETURNDATASIZE SWAP1 REVERT JUMPDEST DUP3 DUP5 CALLVALUE PUSH2 0x400 JUMPI PUSH1 0xFF DUP2 PUSH1 0x20 SWAP4 PUSH2 0x8AD CALLDATASIZE PUSH2 0x3D36 JUMP JUMPDEST SWAP1 DUP3 MSTORE PUSH1 0x3 DUP7 MSTORE DUP3 DUP3 KECCAK256 SWAP1 DUP3 MSTORE DUP6 MSTORE KECCAK256 SLOAD AND SWAP1 MLOAD SWAP1 ISZERO ISZERO DUP2 MSTORE RETURN JUMPDEST DUP3 DUP5 CALLVALUE PUSH2 0x400 JUMPI DUP2 PUSH1 0x3 NOT CALLDATASIZE ADD SLT PUSH2 0x400 JUMPI PUSH1 0x20 SWAP1 PUSH1 0x9 SLOAD SWAP1 MLOAD SWAP1 DUP2 MSTORE RETURN JUMPDEST POP DUP3 CALLVALUE PUSH2 0x3FC JUMPI PUSH2 0x8F7 CALLDATASIZE PUSH2 0x3D36 JUMP JUMPDEST SWAP4 SWAP1 DUP2 MSTORE PUSH1 0xA PUSH1 0x20 MSTORE DUP2 DUP2 KECCAK256 SWAP1 DUP2 SLOAD DUP6 LT ISZERO PUSH2 0x497 JUMPI POP PUSH1 0xA0 SWAP4 PUSH2 0x91A SWAP2 PUSH2 0x4036 JUMP JUMPDEST POP DUP1 SLOAD SWAP3 PUSH1 0x1 DUP3 ADD SLOAD SWAP3 PUSH1 0xFF DUP1 PUSH1 0x2 DUP6 ADD SLOAD AND SWAP3 PUSH1 0x3 DUP6 ADD SLOAD SWAP5 ADD SLOAD AND SWAP4 DUP2 MLOAD SWAP6 DUP7 MSTORE PUSH1 0x20 DUP7 ADD MSTORE PUSH2 0x94B DUP3 PUSH2 0x3D4C JUMP JUMPDEST DUP5 ADD MSTORE PUSH1 0x60 DUP4 ADD MSTORE ISZERO ISZERO PUSH1 0x80 DUP3 ADD MSTORE RETURN JUMPDEST DUP5 DUP4 DUP6 CALLVALUE PUSH2 0x497 JUMPI PUSH1 0x20 SWAP2 DUP3 PUSH1 0x3 NOT CALLDATASIZE ADD SLT PUSH2 0x400 JUMPI CALLDATALOAD DUP2 MSTORE PUSH1 0xD DUP3 MSTORE DUP3 DUP2 KECCAK256 SWAP2 DUP3 SLOAD SWAP1 PUSH2 0x989 DUP3 PUSH2 0x428C JUMP JUMPDEST SWAP2 PUSH2 0x996 DUP7 MLOAD SWAP4 DUP5 PUSH2 0x3E16 JUMP JUMPDEST DUP1 DUP4 MSTORE DUP2 DUP4 ADD DUP1 SWAP6 DUP6 MSTORE DUP3 DUP6 KECCAK256 DUP6 SWAP2 JUMPDEST DUP4 DUP4 LT PUSH2 0xA61 JUMPI POP POP POP POP DUP5 MLOAD SWAP5 DUP2 DUP7 ADD SWAP3 DUP3 DUP8 MSTORE MLOAD DUP1 SWAP4 MSTORE DUP1 DUP7 ADD SWAP1 DUP1 DUP5 PUSH1 0x5 SHL DUP9 ADD ADD SWAP6 SWAP5 SWAP8 JUMPDEST DUP5 DUP10 LT PUSH2 0x9DC JUMPI DUP8 DUP8 SUB DUP9 RETURN JUMPDEST SWAP1 SWAP2 SWAP3 SWAP4 SWAP5 SWAP6 DUP5 DUP1 PUSH1 0x1 SWAP3 PUSH1 0x3F NOT DUP12 DUP3 SUB ADD DUP8 MSTORE DUP10 MLOAD SWAP1 DUP2 MLOAD DUP2 MSTORE DUP3 DUP3 ADD MLOAD DUP4 DUP3 ADD MSTORE DUP7 DUP3 ADD MLOAD PUSH2 0xA0C DUP2 PUSH2 0x3D4C JUMP JUMPDEST DUP8 DUP3 ADD MSTORE PUSH2 0xA22 PUSH1 0x60 DUP1 DUP5 ADD MLOAD SWAP1 DUP4 ADD SWAP1 PUSH2 0x3E7E JUMP JUMPDEST PUSH2 0xA39 PUSH1 0x80 DUP8 DUP2 DUP6 ADD MLOAD SWAP2 DUP5 ADD MSTORE DUP8 DUP4 ADD SWAP1 PUSH2 0x3E8B JUMP JUMPDEST SWAP2 PUSH1 0xA0 DUP1 DUP3 ADD MLOAD SWAP1 DUP4 ADD MSTORE PUSH1 0xC0 DUP1 SWAP2 ADD MLOAD ISZERO ISZERO SWAP2 ADD MSTORE SWAP9 ADD SWAP5 ADD SWAP9 ADD SWAP8 SWAP2 SWAP1 SWAP5 SWAP4 SWAP3 SWAP5 PUSH2 0x9CF JUMP JUMPDEST PUSH1 0x6 DUP6 PUSH1 0x1 SWAP3 PUSH2 0xA74 DUP6 SWAP11 SWAP9 SWAP10 SWAP11 PUSH2 0x448F JUMP JUMPDEST DUP2 MSTORE ADD SWAP3 ADD SWAP3 ADD SWAP2 SWAP1 SWAP6 SWAP5 SWAP4 SWAP6 PUSH2 0x9A6 JUMP JUMPDEST POP POP DUP3 CALLVALUE PUSH2 0x3FC JUMPI PUSH1 0x20 SWAP2 PUSH1 0x20 PUSH1 0x3 NOT CALLDATASIZE ADD SLT PUSH2 0x510 JUMPI CALLDATALOAD DUP4 MSTORE PUSH1 0x14 PUSH1 0x20 MSTORE DUP1 DUP4 KECCAK256 SWAP3 DUP2 MLOAD DUP1 SWAP4 PUSH1 0x20 DUP7 SLOAD SWAP3 DUP4 DUP2 MSTORE ADD SWAP6 DUP4 MSTORE PUSH1 0x20 DUP4 KECCAK256 SWAP3 SWAP1 JUMPDEST DUP3 DUP3 LT PUSH2 0xAD8 JUMPI PUSH2 0x4F5 DUP7 DUP7 PUSH2 0x4EB DUP3 DUP12 SUB DUP4 PUSH2 0x3E16 JUMP JUMPDEST DUP4 SLOAD DUP8 MSTORE SWAP6 DUP7 ADD SWAP6 PUSH1 0x1 SWAP4 DUP5 ADD SWAP4 SWAP1 SWAP2 ADD SWAP1 PUSH2 0xAC0 JUMP JUMPDEST POP POP DUP3 CALLVALUE PUSH2 0x3FC JUMPI PUSH1 0x20 SWAP2 PUSH1 0x20 PUSH1 0x3 NOT CALLDATASIZE ADD SLT PUSH2 0x510 JUMPI DUP1 CALLDATALOAD DUP5 MSTORE PUSH1 0x20 MSTORE DUP1 DUP4 KECCAK256 SWAP3 DUP2 MLOAD DUP1 SWAP4 PUSH1 0x20 DUP7 SLOAD SWAP3 DUP4 DUP2 MSTORE ADD SWAP6 DUP4 MSTORE PUSH1 0x20 DUP4 KECCAK256 SWAP3 SWAP1 JUMPDEST DUP3 DUP3 LT PUSH2 0xB40 JUMPI PUSH2 0x4F5 DUP7 DUP7 PUSH2 0x4EB DUP3 DUP12 SUB DUP4 PUSH2 0x3E16 JUMP JUMPDEST DUP4 SLOAD DUP8 MSTORE SWAP6 DUP7 ADD SWAP6 PUSH1 0x1 SWAP4 DUP5 ADD SWAP4 SWAP1 SWAP2 ADD SWAP1 PUSH2 0xB28 JUMP JUMPDEST POP POP DUP3 CALLVALUE PUSH2 0x3FC JUMPI PUSH2 0xB68 CALLDATASIZE PUSH2 0x3D36 JUMP JUMPDEST SWAP3 SWAP1 SWAP2 PUSH1 0x1 DUP1 PUSH1 0xA0 SHL SUB DUP6 SLOAD AND SWAP2 DUP2 MLOAD SWAP1 PUSH4 0x45ECD02F PUSH1 0xE0 SHL DUP3 MSTORE CALLER DUP2 DUP4 ADD MSTORE PUSH1 0x20 SWAP2 DUP3 DUP2 PUSH1 0x24 DUP2 DUP9 GAS STATICCALL SWAP1 DUP2 ISZERO PUSH2 0xD82 JUMPI SWAP1 PUSH2 0xBAC SWAP2 DUP10 SWAP2 PUSH2 0xD8C JUMPI JUMPDEST POP PUSH2 0x42D0 JUMP JUMPDEST DUP3 MLOAD PUSH4 0x64461AFF PUSH1 0xE1 SHL DUP2 MSTORE DUP2 DUP2 ADD DUP7 DUP2 MSTORE CALLER PUSH1 0x20 DUP3 ADD MSTORE DUP4 SWAP1 DUP3 SWAP1 DUP2 SWAP1 PUSH1 0x40 ADD SUB DUP2 DUP9 GAS STATICCALL SWAP1 DUP2 ISZERO PUSH2 0xD82 JUMPI SWAP1 PUSH2 0xBEB SWAP2 DUP10 SWAP2 PUSH2 0xD55 JUMPI JUMPDEST POP PUSH2 0x4313 JUMP JUMPDEST DUP6 DUP8 MSTORE PUSH1 0x6 DUP3 MSTORE DUP3 DUP8 KECCAK256 SLOAD PUSH2 0xD14 JUMPI DUP6 ISZERO PUSH2 0xCDC JUMPI DUP2 SWAP1 PUSH1 0x24 DUP5 MLOAD DUP1 SWAP7 DUP2 SWAP4 PUSH3 0xB0C809 PUSH1 0xE0 SHL DUP4 MSTORE CALLER SWAP1 DUP4 ADD MSTORE GAS STATICCALL SWAP1 DUP2 ISZERO PUSH2 0x88D JUMPI DUP7 SWAP2 PUSH2 0xC8D JUMPI JUMPDEST PUSH32 0xA2DC124B7DCC6EE378406493EDC477D456CB2E3946E74B015C868704E9F16280 SWAP4 POP DUP6 DUP8 MSTORE PUSH1 0x6 DUP2 MSTORE DUP5 DUP4 DUP9 KECCAK256 SSTORE DUP5 DUP8 MSTORE PUSH1 0x7 DUP2 MSTORE PUSH2 0xC6A DUP7 DUP5 DUP10 KECCAK256 PUSH2 0x445B JUMP JUMPDEST DUP6 DUP8 MSTORE PUSH1 0x8 DUP2 MSTORE DUP3 DUP8 KECCAK256 DUP1 SLOAD PUSH1 0xFF NOT AND PUSH1 0x1 OR SWAP1 SSTORE DUP3 MLOAD SWAP2 DUP3 MSTORE TIMESTAMP SWAP1 DUP3 ADD MSTORE LOG3 DUP1 RETURN JUMPDEST DUP1 SWAP2 POP DUP4 DUP2 RETURNDATASIZE DUP4 GT PUSH2 0xCD5 JUMPI JUMPDEST PUSH2 0xCA4 DUP2 DUP4 PUSH2 0x3E16 JUMP JUMPDEST DUP2 ADD SUB SLT PUSH2 0x882 JUMPI PUSH32 0xA2DC124B7DCC6EE378406493EDC477D456CB2E3946E74B015C868704E9F16280 SWAP3 MLOAD SWAP1 PUSH2 0xC28 JUMP JUMPDEST POP RETURNDATASIZE PUSH2 0xC9A JUMP JUMPDEST SWAP2 MLOAD PUSH3 0x461BCD PUSH1 0xE5 SHL DUP2 MSTORE SWAP2 DUP3 ADD MSTORE PUSH1 0x14 PUSH1 0x24 DUP3 ADD MSTORE PUSH20 0x486173682063616E6E6F7420626520656D707479 PUSH1 0x60 SHL PUSH1 0x44 DUP3 ADD MSTORE PUSH1 0x64 SWAP1 REVERT JUMPDEST SWAP2 MLOAD PUSH3 0x461BCD PUSH1 0xE5 SHL DUP2 MSTORE SWAP2 DUP3 ADD MSTORE PUSH1 0x1E PUSH1 0x24 DUP3 ADD MSTORE PUSH32 0x4861736820616C726561647920626F756E6420746F2061207265636F72640000 PUSH1 0x44 DUP3 ADD MSTORE PUSH1 0x64 SWAP1 REVERT JUMPDEST PUSH2 0xD75 SWAP2 POP DUP5 RETURNDATASIZE DUP7 GT PUSH2 0xD7B JUMPI JUMPDEST PUSH2 0xD6D DUP2 DUP4 PUSH2 0x3E16 JUMP JUMPDEST DUP2 ADD SWAP1 PUSH2 0x42B8 JUMP JUMPDEST DUP10 PUSH2 0xBE5 JUMP JUMPDEST POP RETURNDATASIZE PUSH2 0xD63 JUMP JUMPDEST DUP5 MLOAD RETURNDATASIZE DUP11 DUP3 RETURNDATACOPY RETURNDATASIZE SWAP1 REVERT JUMPDEST PUSH2 0xDA3 SWAP2 POP DUP5 RETURNDATASIZE DUP7 GT PUSH2 0xD7B JUMPI PUSH2 0xD6D DUP2 DUP4 PUSH2 0x3E16 JUMP JUMPDEST DUP10 PUSH2 0xBA6 JUMP JUMPDEST DUP4 DUP6 CALLVALUE PUSH2 0x400 JUMPI DUP2 PUSH1 0x3 NOT CALLDATASIZE ADD SLT PUSH2 0x400 JUMPI PUSH1 0x20 SWAP1 PUSH1 0x16 SLOAD SWAP1 MLOAD SWAP1 DUP2 MSTORE RETURN JUMPDEST DUP4 DUP6 DUP5 CALLVALUE PUSH2 0x3FC JUMPI PUSH1 0x20 CALLDATASIZE PUSH1 0x3 NOT ADD SLT PUSH2 0x3FC JUMPI PUSH2 0xDE4 PUSH2 0x3EC9 JUMP JUMPDEST PUSH32 0xF0C57E16840DF040F15088DC2F81FE391C3923BEC73E23A9662EFC9C229C6A00 SWAP2 DUP3 SLOAD SWAP2 PUSH1 0xFF DUP4 DUP7 SHR AND ISZERO SWAP3 PUSH8 0xFFFFFFFFFFFFFFFF DUP2 AND DUP1 ISZERO SWAP1 DUP2 PUSH2 0xF5F JUMPI JUMPDEST PUSH1 0x1 EQ SWAP1 DUP2 PUSH2 0xF55 JUMPI JUMPDEST ISZERO SWAP1 DUP2 PUSH2 0xF4C JUMPI JUMPDEST POP PUSH2 0xF3C JUMPI PUSH8 0xFFFFFFFFFFFFFFFF NOT DUP2 AND PUSH1 0x1 OR DUP6 SSTORE DUP4 PUSH2 0xF1D JUMPI JUMPDEST POP PUSH1 0x1 PUSH1 0x1 PUSH1 0xA0 SHL SUB AND SWAP1 DUP2 ISZERO PUSH2 0xED0 JUMPI POP PUSH12 0xFFFFFFFFFFFFFFFFFFFFFFFF PUSH1 0xA0 SHL SWAP1 DUP2 DUP7 SLOAD AND OR DUP6 SSTORE CALLER SWAP1 PUSH1 0x1 SLOAD AND OR PUSH1 0x1 SSTORE PUSH2 0xE8F JUMPI DUP3 DUP1 RETURN JUMPDEST DUP1 SLOAD PUSH9 0xFF0000000000000000 NOT AND SWAP1 SSTORE MLOAD PUSH1 0x1 DUP2 MSTORE PUSH32 0xC7F505B2F371AE2175EE4913F4499E1F2633A7B5936321EED1CDAEB6115181D2 SWAP1 PUSH1 0x20 SWAP1 LOG1 DUP2 DUP1 DUP3 DUP1 RETURN JUMPDEST PUSH1 0x84 SWAP1 PUSH1 0x20 DUP7 MLOAD SWAP2 PUSH3 0x461BCD PUSH1 0xE5 SHL DUP4 MSTORE DUP3 ADD MSTORE PUSH1 0x21 PUSH1 0x24 DUP3 ADD MSTORE PUSH32 0x496E76616C6964204D656D626572526F6C654D616E6167657220616464726573 PUSH1 0x44 DUP3 ADD MSTORE PUSH1 0x73 PUSH1 0xF8 SHL PUSH1 0x64 DUP3 ADD MSTORE REVERT JUMPDEST PUSH9 0xFFFFFFFFFFFFFFFFFF NOT AND PUSH9 0x10000000000000001 OR DUP5 SSTORE DUP7 PUSH2 0xE53 JUMP JUMPDEST DUP6 MLOAD PUSH4 0xF92EE8A9 PUSH1 0xE0 SHL DUP2 MSTORE DUP4 SWAP1 REVERT JUMPDEST SWAP1 POP ISZERO DUP9 PUSH2 0xE37 JUMP JUMPDEST ADDRESS EXTCODESIZE ISZERO SWAP2 POP PUSH2 0xE2F JUMP JUMPDEST DUP6 SWAP2 POP PUSH2 0xE25 JUMP JUMPDEST POP POP SWAP2 CALLVALUE PUSH2 0x400 JUMPI PUSH1 0x80 CALLDATASIZE PUSH1 0x3 NOT ADD SLT PUSH2 0x400 JUMPI PUSH1 0x24 SWAP1 DUP4 CALLDATALOAD DUP3 CALLDATALOAD PUSH2 0xF8A PUSH2 0x3D8A JUMP JUMPDEST DUP6 SLOAD DUP5 MLOAD PUSH4 0x45ECD02F PUSH1 0xE0 SHL DUP2 MSTORE CALLER DUP2 DUP11 ADD MSTORE PUSH1 0x20 SWAP9 SWAP3 PUSH1 0x1 PUSH1 0x1 PUSH1 0xA0 SHL SUB SWAP3 SWAP1 SWAP2 SWAP1 DUP4 AND SWAP1 DUP11 DUP2 DUP11 DUP2 DUP6 GAS STATICCALL SWAP1 DUP2 ISZERO PUSH2 0x1341 JUMPI SWAP1 PUSH2 0xFCF SWAP2 DUP12 SWAP2 PUSH2 0x1324 JUMPI POP PUSH2 0x42D0 JUMP JUMPDEST DUP7 MLOAD PUSH4 0x64461AFF PUSH1 0xE1 SHL DUP2 MSTORE DUP5 DUP2 ADD DUP8 DUP2 MSTORE CALLER PUSH1 0x20 DUP3 ADD MSTORE SWAP1 SWAP2 DUP12 SWAP2 DUP4 SWAP2 SWAP1 DUP3 SWAP1 DUP2 SWAP1 PUSH1 0x40 ADD SUB SWAP2 GAS STATICCALL SWAP1 DUP2 ISZERO PUSH2 0x131A JUMPI SWAP1 PUSH2 0x1011 SWAP2 DUP11 SWAP2 PUSH2 0x12FD JUMPI POP PUSH2 0x4313 JUMP JUMPDEST PUSH2 0x101C DUP6 ISZERO ISZERO PUSH2 0x435F JUMP JUMPDEST PUSH2 0x1027 DUP5 ISZERO ISZERO PUSH2 0x43AB JUMP JUMPDEST PUSH2 0x1032 PUSH1 0x44 CALLDATALOAD PUSH2 0x4734 JUMP JUMPDEST SWAP4 DUP6 DUP10 MSTORE PUSH1 0x3 DUP11 MSTORE DUP7 DUP10 KECCAK256 DUP6 DUP11 MSTORE DUP11 MSTORE PUSH1 0xFF DUP8 DUP11 KECCAK256 SLOAD AND PUSH2 0x12AB JUMPI DUP6 DUP10 MSTORE PUSH1 0x2 DUP11 MSTORE DUP7 DUP10 KECCAK256 SLOAD ISZERO PUSH2 0x11C4 JUMPI JUMPDEST SWAP9 DUP9 SWAP10 DUP7 DUP11 MSTORE PUSH1 0x2 DUP3 MSTORE PUSH2 0x1074 DUP7 DUP10 DUP13 KECCAK256 PUSH2 0x445B JUMP JUMPDEST DUP7 DUP11 MSTORE PUSH1 0x3 DUP3 MSTORE DUP8 DUP11 KECCAK256 DUP7 DUP12 MSTORE DUP3 MSTORE DUP8 DUP11 KECCAK256 PUSH1 0xFF NOT SWAP1 PUSH1 0x1 DUP3 DUP3 SLOAD AND OR SWAP1 SSTORE DUP8 DUP12 MSTORE PUSH1 0x5 DUP4 MSTORE DUP9 DUP12 KECCAK256 DUP8 DUP13 MSTORE DUP4 MSTORE PUSH1 0x1 DUP10 DUP13 KECCAK256 SWAP2 DUP3 SLOAD AND OR SWAP1 SSTORE DUP5 DUP3 MSTORE PUSH2 0x10BD DUP8 DUP10 DUP13 KECCAK256 PUSH2 0x445B JUMP JUMPDEST PUSH2 0x10C8 PUSH1 0x9 SLOAD PUSH2 0x4088 JUMP JUMPDEST PUSH1 0x9 SSTORE DUP6 DUP2 DUP9 PUSH32 0xAED20EB4DF1031F98B6EE943999C834D0A9A777B4AAE82671C972B33C8B93750 DUP6 DUP13 MLOAD TIMESTAMP DUP2 MSTORE LOG4 DUP9 DUP3 DUP6 DUP13 SLOAD AND DUP11 MLOAD SWAP3 DUP4 DUP1 SWAP3 PUSH3 0xB0C809 PUSH1 0xE0 SHL DUP3 MSTORE CALLER DUP12 DUP4 ADD MSTORE GAS STATICCALL SWAP3 DUP4 ISZERO PUSH2 0x11BA JUMPI DUP12 SWAP4 PUSH2 0x1184 JUMPI JUMPDEST POP POP SWAP1 PUSH2 0x112E SWAP3 SWAP2 DUP8 PUSH2 0x49D3 JUMP JUMPDEST DUP7 SLOAD AND SWAP1 DUP2 EXTCODESIZE ISZERO PUSH2 0x1180 JUMPI DUP7 PUSH1 0x44 SWAP3 DUP2 SWAP6 DUP8 MLOAD SWAP9 DUP10 SWAP7 DUP8 SWAP6 PUSH4 0xC35C997 PUSH1 0xE2 SHL DUP8 MSTORE DUP7 ADD MSTORE DUP5 ADD MSTORE GAS CALL SWAP1 DUP2 ISZERO PUSH2 0x1177 JUMPI POP PUSH2 0x1167 JUMPI POP RETURN JUMPDEST PUSH2 0x1170 SWAP1 PUSH2 0x3E02 JUMP JUMPDEST PUSH2 0x497 JUMPI DUP1 RETURN JUMPDEST MLOAD RETURNDATASIZE DUP5 DUP3 RETURNDATACOPY RETURNDATASIZE SWAP1 REVERT JUMPDEST DUP7 DUP1 REVERT JUMPDEST DUP1 SWAP3 SWAP12 POP DUP2 SWAP5 SWAP4 POP RETURNDATASIZE DUP4 GT PUSH2 0x11B3 JUMPI JUMPDEST PUSH2 0x119E DUP2 DUP4 PUSH2 0x3E16 JUMP JUMPDEST DUP2 ADD SUB SLT PUSH2 0x882 JUMPI SWAP1 MLOAD DUP10 SWAP9 PUSH2 0x112E PUSH0 PUSH2 0x1120 JUMP JUMPDEST POP RETURNDATASIZE PUSH2 0x1194 JUMP JUMPDEST DUP10 MLOAD RETURNDATASIZE DUP14 DUP3 RETURNDATACOPY RETURNDATASIZE SWAP1 REVERT JUMPDEST DUP1 DUP10 MSTORE PUSH1 0x6 DUP11 MSTORE DUP7 DUP10 KECCAK256 SLOAD DUP7 SWAP1 DUP1 ISZERO PUSH2 0x1228 JUMPI SUB PUSH2 0x11E8 JUMPI SWAP9 DUP9 SWAP10 JUMPDEST SWAP1 SWAP10 POP PUSH2 0x105E JUMP JUMPDEST PUSH1 0x64 DUP5 DUP12 DUP11 DUP2 DUP12 MLOAD SWAP4 PUSH3 0x461BCD PUSH1 0xE5 SHL DUP6 MSTORE DUP5 ADD MSTORE DUP3 ADD MSTORE PUSH32 0x486173682062656C6F6E677320746F20646966666572656E74207265636F7264 PUSH1 0x44 DUP3 ADD MSTORE REVERT JUMPDEST POP POP PUSH1 0x8 DUP11 MSTORE PUSH1 0xFF DUP8 DUP11 KECCAK256 SLOAD AND PUSH2 0x1275 JUMPI SWAP9 DUP10 DUP10 SWAP11 DUP11 MSTORE PUSH1 0x6 DUP3 MSTORE DUP7 DUP9 DUP12 KECCAK256 SSTORE DUP7 DUP11 MSTORE PUSH1 0x7 DUP3 MSTORE PUSH2 0x125B DUP2 DUP10 DUP13 KECCAK256 PUSH2 0x445B JUMP JUMPDEST DUP1 DUP11 MSTORE PUSH1 0x8 DUP3 MSTORE DUP8 DUP11 KECCAK256 DUP1 SLOAD PUSH1 0xFF NOT AND PUSH1 0x1 OR SWAP1 SSTORE PUSH2 0x11E0 JUMP JUMPDEST DUP7 MLOAD PUSH3 0x461BCD PUSH1 0xE5 SHL DUP2 MSTORE DUP1 DUP6 ADD DUP12 SWAP1 MSTORE PUSH1 0x11 DUP2 DUP11 ADD MSTORE PUSH17 0x12185CDA08185B1C9958591E481D5CD959 PUSH1 0x7A SHL PUSH1 0x44 DUP3 ADD MSTORE PUSH1 0x64 SWAP1 REVERT JUMPDEST DUP7 MLOAD PUSH3 0x461BCD PUSH1 0xE5 SHL DUP2 MSTORE DUP1 DUP6 ADD DUP12 SWAP1 MSTORE PUSH1 0x27 DUP2 DUP11 ADD MSTORE PUSH32 0x5265636F726420616C726561647920616E63686F72656420746F207468697320 PUSH1 0x44 DUP3 ADD MSTORE PUSH7 0x1CDD589A9958DD PUSH1 0xCA SHL PUSH1 0x64 DUP3 ADD MSTORE PUSH1 0x84 SWAP1 REVERT JUMPDEST PUSH2 0x1314 SWAP2 POP DUP12 RETURNDATASIZE DUP14 GT PUSH2 0xD7B JUMPI PUSH2 0xD6D DUP2 DUP4 PUSH2 0x3E16 JUMP JUMPDEST PUSH0 PUSH2 0xBE5 JUMP JUMPDEST DUP8 MLOAD RETURNDATASIZE DUP12 DUP3 RETURNDATACOPY RETURNDATASIZE SWAP1 REVERT JUMPDEST PUSH2 0x133B SWAP2 POP DUP13 DUP14 RETURNDATASIZE LT PUSH2 0xD7B JUMPI PUSH2 0xD6D DUP2 DUP4 PUSH2 0x3E16 JUMP JUMPDEST PUSH0 PUSH2 0xBA6 JUMP JUMPDEST DUP9 MLOAD RETURNDATASIZE DUP13 DUP3 RETURNDATACOPY RETURNDATASIZE SWAP1 REVERT JUMPDEST POP POP DUP3 CALLVALUE PUSH2 0x3FC JUMPI PUSH1 0x20 SWAP2 PUSH1 0x20 PUSH1 0x3 NOT CALLDATASIZE ADD SLT PUSH2 0x510 JUMPI CALLDATALOAD DUP4 MSTORE PUSH1 0x2 PUSH1 0x20 MSTORE DUP1 DUP4 KECCAK256 SWAP3 DUP2 MLOAD DUP1 SWAP4 PUSH1 0x20 DUP7 SLOAD SWAP3 DUP4 DUP2 MSTORE ADD SWAP6 DUP4 MSTORE PUSH1 0x20 DUP4 KECCAK256 SWAP3 SWAP1 JUMPDEST DUP3 DUP3 LT PUSH2 0x139D JUMPI PUSH2 0x4F5 DUP7 DUP7 PUSH2 0x4EB DUP3 DUP12 SUB DUP4 PUSH2 0x3E16 JUMP JUMPDEST DUP4 SLOAD DUP8 MSTORE SWAP6 DUP7 ADD SWAP6 PUSH1 0x1 SWAP4 DUP5 ADD SWAP4 SWAP1 SWAP2 ADD SWAP1 PUSH2 0x1385 JUMP JUMPDEST POP POP CALLVALUE PUSH2 0x400 JUMPI PUSH1 0x20 SWAP1 DUP2 PUSH1 0x3 NOT CALLDATASIZE ADD SLT PUSH2 0x3FC JUMPI SWAP2 SWAP1 SWAP2 CALLDATALOAD DUP2 MSTORE PUSH1 0x10 DUP3 MSTORE DUP3 DUP2 KECCAK256 SWAP1 DUP2 SLOAD PUSH2 0x13E2 DUP2 PUSH2 0x428C JUMP JUMPDEST SWAP1 PUSH2 0x13EF DUP7 MLOAD SWAP3 DUP4 PUSH2 0x3E16 JUMP JUMPDEST DUP1 DUP3 MSTORE DUP5 DUP3 ADD DUP1 SWAP5 DUP5 MSTORE DUP6 DUP5 KECCAK256 DUP5 SWAP2 JUMPDEST DUP4 DUP4 LT PUSH2 0x1469 JUMPI POP POP POP POP DUP5 MLOAD SWAP4 DUP1 DUP6 ADD SWAP2 DUP2 DUP7 MSTORE MLOAD DUP1 SWAP3 MSTORE DUP6 DUP6 ADD SWAP4 SWAP3 JUMPDEST DUP3 DUP2 LT PUSH2 0x142B JUMPI DUP6 DUP6 SUB DUP7 RETURN JUMPDEST DUP4 MLOAD DUP1 MLOAD DUP7 MSTORE DUP1 DUP4 ADD MLOAD DUP7 DUP5 ADD MSTORE DUP8 DUP2 ADD MLOAD DUP9 DUP8 ADD MSTORE PUSH1 0x60 DUP1 DUP3 ADD MLOAD SWAP1 DUP8 ADD MSTORE PUSH1 0x80 SWAP1 DUP2 ADD MLOAD ISZERO ISZERO SWAP1 DUP7 ADD MSTORE PUSH1 0xA0 SWAP1 SWAP5 ADD SWAP4 SWAP3 DUP2 ADD SWAP3 PUSH1 0x1 ADD PUSH2 0x141E JUMP JUMPDEST PUSH1 0x5 DUP9 PUSH1 0x1 SWAP3 PUSH2 0x147C DUP6 SWAP12 SWAP9 SWAP10 SWAP12 PUSH2 0x44FE JUMP JUMPDEST DUP2 MSTORE ADD SWAP3 ADD SWAP3 ADD SWAP2 SWAP1 SWAP7 SWAP5 SWAP4 SWAP7 PUSH2 0x13FF JUMP JUMPDEST DUP4 DUP6 CALLVALUE PUSH2 0x400 JUMPI PUSH2 0x149E CALLDATASIZE PUSH2 0x3D36 JUMP JUMPDEST SWAP3 SWAP1 DUP2 MSTORE PUSH1 0x13 PUSH1 0x20 MSTORE DUP2 DUP2 KECCAK256 SWAP1 DUP2 SLOAD DUP5 LT ISZERO PUSH2 0x497 JUMPI POP PUSH1 0x20 SWAP3 PUSH2 0x14C1 SWAP2 PUSH2 0x3F1A JUMP JUMPDEST SWAP2 SWAP1 SLOAD SWAP1 MLOAD SWAP2 PUSH1 0x3 SHL SHR DUP2 MSTORE RETURN JUMPDEST DUP3 DUP6 DUP6 CALLVALUE PUSH2 0x497 JUMPI PUSH2 0x14E0 CALLDATASIZE PUSH2 0x3D36 JUMP JUMPDEST SWAP4 SWAP1 DUP3 MSTORE PUSH1 0x20 MSTORE DUP2 DUP2 KECCAK256 SWAP1 DUP2 SLOAD DUP5 LT ISZERO PUSH2 0x497 JUMPI POP PUSH1 0x20 SWAP3 PUSH2 0x14C1 SWAP2 PUSH2 0x3F1A JUMP JUMPDEST DUP3 DUP6 DUP6 CALLVALUE PUSH2 0x497 JUMPI PUSH2 0x1512 CALLDATASIZE PUSH2 0x3D36 JUMP JUMPDEST SWAP2 SWAP1 DUP2 MSTORE PUSH1 0xD PUSH1 0x20 MSTORE DUP3 DUP2 KECCAK256 SWAP1 DUP2 SLOAD DUP4 LT ISZERO PUSH2 0x497 JUMPI POP SWAP1 PUSH2 0x1533 SWAP2 PUSH2 0x3F43 JUMP JUMPDEST POP SWAP1 PUSH2 0x159C DUP3 SLOAD SWAP4 PUSH1 0x1 DUP5 ADD SLOAD SWAP6 PUSH2 0x158E PUSH1 0x2 DUP7 ADD SLOAD PUSH1 0xFF DUP2 AND PUSH1 0xFF PUSH1 0x5 PUSH2 0x155D PUSH1 0x3 DUP12 ADD PUSH2 0x3F94 JUMP JUMPDEST SWAP7 DUP11 ADD SLOAD SWAP10 ADD SLOAD AND SWAP7 DUP1 MLOAD SWAP11 DUP12 SWAP11 DUP12 MSTORE PUSH1 0x20 DUP12 ADD MSTORE PUSH2 0x157B DUP3 PUSH2 0x3D4C JUMP JUMPDEST DUP10 ADD MSTORE PUSH1 0xFF PUSH1 0x60 DUP10 ADD SWAP2 PUSH1 0x8 SHR AND PUSH2 0x3E7E JUMP JUMPDEST DUP1 PUSH1 0x80 DUP8 ADD MSTORE DUP6 ADD SWAP1 PUSH2 0x3E8B JUMP JUMPDEST SWAP2 PUSH1 0xA0 DUP5 ADD MSTORE ISZERO ISZERO PUSH1 0xC0 DUP4 ADD MSTORE SUB SWAP1 RETURN JUMPDEST DUP4 DUP6 CALLVALUE PUSH2 0x400 JUMPI PUSH2 0x15BD CALLDATASIZE PUSH2 0x3D36 JUMP JUMPDEST SWAP3 SWAP1 DUP2 MSTORE PUSH1 0x14 PUSH1 0x20 MSTORE DUP2 DUP2 KECCAK256 SWAP1 DUP2 SLOAD DUP5 LT ISZERO PUSH2 0x497 JUMPI POP PUSH1 0x20 SWAP3 PUSH2 0x14C1 SWAP2 PUSH2 0x3F1A JUMP JUMPDEST DUP3 DUP6 DUP6 CALLVALUE PUSH2 0x497 JUMPI DUP1 PUSH1 0x3 NOT CALLDATASIZE ADD SLT PUSH2 0x497 JUMPI POP DUP1 MLOAD SWAP1 DUP1 DUP3 ADD DUP3 DUP2 LT PUSH8 0xFFFFFFFFFFFFFFFF DUP3 GT OR PUSH2 0x1638 JUMPI PUSH2 0x4F5 SWAP4 POP DUP2 MSTORE PUSH1 0x5 DUP3 MSTORE PUSH5 0x352E302E3 PUSH1 0xDC SHL PUSH1 0x20 DUP4 ADD MSTORE MLOAD SWAP2 DUP3 SWAP2 PUSH1 0x20 DUP4 MSTORE PUSH1 0x20 DUP4 ADD SWAP1 PUSH2 0x3E8B JUMP JUMPDEST PUSH1 0x41 DUP5 PUSH4 0x4E487B71 PUSH1 0xE0 SHL PUSH0 MSTORE MSTORE PUSH1 0x24 PUSH0 REVERT JUMPDEST DUP4 DUP6 CALLVALUE PUSH2 0x400 JUMPI PUSH2 0x165B CALLDATASIZE PUSH2 0x3D36 JUMP JUMPDEST SWAP3 SWAP1 DUP2 MSTORE PUSH1 0x2 PUSH1 0x20 MSTORE DUP2 DUP2 KECCAK256 SWAP1 DUP2 SLOAD DUP5 LT ISZERO PUSH2 0x497 JUMPI POP PUSH1 0x20 SWAP3 PUSH2 0x14C1 SWAP2 PUSH2 0x3F1A JUMP JUMPDEST DUP4 DUP6 CALLVALUE PUSH2 0x400 JUMPI DUP2 PUSH1 0x3 NOT CALLDATASIZE ADD SLT PUSH2 0x400 JUMPI PUSH1 0x20 SWAP1 PUSH1 0x17 SLOAD SWAP1 MLOAD SWAP1 DUP2 MSTORE RETURN JUMPDEST DUP4 DUP6 CALLVALUE PUSH2 0x400 JUMPI DUP2 PUSH1 0x3 NOT CALLDATASIZE ADD SLT PUSH2 0x400 JUMPI PUSH1 0x20 SWAP1 PUSH1 0x15 SLOAD SWAP1 MLOAD SWAP1 DUP2 MSTORE RETURN JUMPDEST DUP4 DUP6 CALLVALUE PUSH2 0x400 JUMPI PUSH1 0xFF DUP2 PUSH1 0x20 SWAP4 PUSH2 0x16D2 CALLDATASIZE PUSH2 0x3D36 JUMP JUMPDEST SWAP1 DUP3 MSTORE PUSH1 0x5 DUP7 MSTORE DUP3 DUP3 KECCAK256 SWAP1 DUP3 MSTORE DUP6 MSTORE KECCAK256 SLOAD AND SWAP1 MLOAD SWAP1 ISZERO ISZERO DUP2 MSTORE RETURN JUMPDEST POP POP DUP3 CALLVALUE PUSH2 0x882 JUMPI PUSH2 0x16FE CALLDATASIZE PUSH2 0x3D36 JUMP JUMPDEST PUSH0 SLOAD DUP4 MLOAD PUSH4 0x45ECD02F PUSH1 0xE0 SHL DUP2 MSTORE CALLER DUP2 DUP8 ADD MSTORE SWAP3 SWAP5 SWAP3 PUSH1 0x20 SWAP3 PUSH1 0x1 PUSH1 0x1 PUSH1 0xA0 SHL SUB SWAP3 SWAP1 SWAP2 SWAP1 DUP4 AND SWAP1 DUP5 DUP2 PUSH1 0x24 DUP2 DUP6 GAS STATICCALL SWAP1 DUP2 ISZERO PUSH2 0x190D JUMPI SWAP1 PUSH2 0x1746 SWAP2 PUSH0 SWAP2 PUSH2 0x18F0 JUMPI POP PUSH2 0x42D0 JUMP JUMPDEST DUP6 MLOAD PUSH4 0x64461AFF PUSH1 0xE1 SHL DUP2 MSTORE DUP6 DUP2 ADD DUP9 DUP2 MSTORE CALLER PUSH1 0x20 DUP3 ADD MSTORE SWAP1 SWAP2 DUP6 SWAP2 DUP4 SWAP2 SWAP1 DUP3 SWAP1 DUP2 SWAP1 PUSH1 0x40 ADD SUB SWAP2 GAS STATICCALL SWAP1 DUP2 ISZERO PUSH2 0x18E6 JUMPI PUSH2 0x1791 SWAP3 SWAP2 PUSH2 0x178C SWAP2 PUSH0 SWAP2 PUSH2 0x18C9 JUMPI POP PUSH2 0x4313 JUMP JUMPDEST PUSH2 0x4734 JUMP JUMPDEST SWAP2 DUP6 PUSH0 MSTORE PUSH1 0x3 DUP2 MSTORE DUP5 PUSH0 KECCAK256 DUP4 PUSH0 MSTORE DUP2 MSTORE PUSH1 0xFF DUP6 PUSH0 KECCAK256 SLOAD AND ISZERO PUSH2 0x1891 JUMPI DUP6 PUSH0 MSTORE PUSH1 0x5 DUP2 MSTORE DUP5 PUSH0 KECCAK256 DUP4 PUSH0 MSTORE DUP2 MSTORE PUSH1 0xFF DUP6 PUSH0 KECCAK256 SLOAD AND PUSH2 0x185E JUMPI DUP6 PUSH32 0x34CA5296A801DF9003D17DF2E6EA45B29101067AE1A058CEF45A9B8995D2CDFC DUP5 SWAP3 DUP3 PUSH0 MSTORE PUSH1 0x5 DUP2 MSTORE DUP8 PUSH0 KECCAK256 DUP5 PUSH0 MSTORE DUP2 MSTORE DUP8 PUSH0 KECCAK256 PUSH1 0x1 PUSH1 0xFF NOT DUP3 SLOAD AND OR SWAP1 SSTORE DUP8 MLOAD TIMESTAMP DUP2 MSTORE LOG3 PUSH0 SLOAD AND DUP1 EXTCODESIZE ISZERO PUSH2 0x882 JUMPI PUSH0 SWAP3 DUP4 PUSH1 0x44 SWAP3 DUP7 MLOAD SWAP8 DUP9 SWAP6 DUP7 SWAP5 PUSH4 0xC35C997 PUSH1 0xE2 SHL DUP7 MSTORE DUP6 ADD MSTORE PUSH1 0x24 DUP5 ADD MSTORE GAS CALL SWAP1 DUP2 ISZERO PUSH2 0x1855 JUMPI POP PUSH2 0x1849 JUMPI POP DUP1 RETURN JUMPDEST PUSH2 0x1853 SWAP2 POP PUSH2 0x3E02 JUMP JUMPDEST STOP JUMPDEST MLOAD RETURNDATASIZE PUSH0 DUP3 RETURNDATACOPY RETURNDATASIZE SWAP1 REVERT JUMPDEST DUP4 PUSH1 0x64 SWAP2 DUP7 MLOAD SWAP2 PUSH3 0x461BCD PUSH1 0xE5 SHL DUP4 MSTORE DUP3 ADD MSTORE PUSH1 0xE PUSH1 0x24 DUP3 ADD MSTORE PUSH14 0x416C726561647920616374697665 PUSH1 0x90 SHL PUSH1 0x44 DUP3 ADD MSTORE REVERT JUMPDEST DUP4 PUSH1 0x64 SWAP2 DUP7 MLOAD SWAP2 PUSH3 0x461BCD PUSH1 0xE5 SHL DUP4 MSTORE DUP3 ADD MSTORE PUSH1 0x13 PUSH1 0x24 DUP3 ADD MSTORE PUSH19 0x15D85CC81B995D995C8818481CDD589A9958DD PUSH1 0x6A SHL PUSH1 0x44 DUP3 ADD MSTORE REVERT JUMPDEST PUSH2 0x18E0 SWAP2 POP DUP7 RETURNDATASIZE DUP9 GT PUSH2 0xD7B JUMPI PUSH2 0xD6D DUP2 DUP4 PUSH2 0x3E16 JUMP JUMPDEST DUP11 PUSH2 0xBE5 JUMP JUMPDEST DUP7 MLOAD RETURNDATASIZE PUSH0 DUP3 RETURNDATACOPY RETURNDATASIZE SWAP1 REVERT JUMPDEST PUSH2 0x1907 SWAP2 POP DUP7 RETURNDATASIZE DUP9 GT PUSH2 0xD7B JUMPI PUSH2 0xD6D DUP2 DUP4 PUSH2 0x3E16 JUMP JUMPDEST DUP11 PUSH2 0xBA6 JUMP JUMPDEST DUP8 MLOAD RETURNDATASIZE PUSH0 DUP3 RETURNDATACOPY RETURNDATASIZE SWAP1 REVERT JUMPDEST DUP5 CALLVALUE PUSH2 0x882 JUMPI PUSH2 0x1926 CALLDATASIZE PUSH2 0x3D36 JUMP JUMPDEST SWAP2 SWAP1 PUSH0 MSTORE PUSH1 0x7 PUSH1 0x20 MSTORE DUP1 PUSH0 KECCAK256 DUP1 SLOAD DUP4 LT ISZERO PUSH2 0x882 JUMPI PUSH1 0x20 SWAP3 PUSH2 0x14C1 SWAP2 PUSH2 0x3F1A JUMP JUMPDEST DUP5 CALLVALUE PUSH2 0x882 JUMPI PUSH1 0x20 SWAP1 PUSH2 0x1959 CALLDATASIZE PUSH2 0x3D36 JUMP JUMPDEST SWAP1 PUSH0 MSTORE PUSH1 0xF DUP4 MSTORE DUP2 PUSH0 KECCAK256 SWAP1 PUSH0 MSTORE DUP3 MSTORE DUP1 PUSH0 KECCAK256 SLOAD SWAP1 MLOAD SWAP1 DUP2 MSTORE RETURN JUMPDEST DUP5 CALLVALUE PUSH2 0x882 JUMPI PUSH1 0x20 SWAP1 PUSH2 0x1985 CALLDATASIZE PUSH2 0x3D36 JUMP JUMPDEST SWAP1 PUSH0 MSTORE PUSH1 0x11 DUP4 MSTORE DUP2 PUSH0 KECCAK256 SWAP1 PUSH0 MSTORE DUP3 MSTORE DUP1 PUSH0 KECCAK256 SLOAD SWAP1 MLOAD SWAP1 DUP2 MSTORE RETURN JUMPDEST DUP5 DUP4 CALLVALUE PUSH2 0x882 JUMPI DUP2 PUSH1 0x3 NOT CALLDATASIZE ADD SLT PUSH2 0x882 JUMPI DUP1 CALLDATALOAD SWAP1 PUSH1 0xFF PUSH2 0x19BE PUSH2 0x3D6A JUMP JUMPDEST AND SWAP3 PUSH1 0x1 DUP5 LT ISZERO DUP1 PUSH2 0x1BED JUMPI JUMPDEST PUSH2 0x19D4 SWAP1 PUSH2 0x46F4 JUMP JUMPDEST PUSH0 SLOAD DUP2 MLOAD PUSH3 0xB0C809 PUSH1 0xE0 SHL DUP2 MSTORE CALLER DUP5 DUP3 ADD MSTORE SWAP5 SWAP1 PUSH1 0x20 SWAP1 DUP2 SWAP1 DUP8 SWAP1 PUSH1 0x24 SWAP1 DUP3 SWAP1 PUSH1 0x1 PUSH1 0x1 PUSH1 0xA0 SHL SUB AND GAS STATICCALL SWAP6 DUP7 ISZERO PUSH2 0x1BE3 JUMPI PUSH0 SWAP7 PUSH2 0x1BB4 JUMPI JUMPDEST POP PUSH2 0x1A19 DUP7 ISZERO ISZERO PUSH2 0x4211 JUMP JUMPDEST DUP5 PUSH0 MSTORE PUSH1 0xB DUP2 MSTORE DUP3 PUSH0 KECCAK256 DUP7 PUSH0 MSTORE DUP2 MSTORE PUSH1 0xFF DUP4 PUSH0 KECCAK256 SLOAD AND ISZERO PUSH2 0x1B72 JUMPI DUP5 PUSH0 MSTORE PUSH1 0xC DUP2 MSTORE DUP3 PUSH0 KECCAK256 DUP7 PUSH0 MSTORE DUP2 MSTORE PUSH2 0x1A59 DUP4 PUSH0 KECCAK256 SLOAD DUP7 PUSH0 MSTORE PUSH1 0xA DUP4 MSTORE DUP5 PUSH0 KECCAK256 PUSH2 0x4036 JUMP JUMPDEST POP PUSH1 0xFF DUP6 DUP3 ADD SLOAD AND ISZERO PUSH2 0x1B2F JUMPI PUSH1 0x2 ADD PUSH1 0xFF DUP2 SLOAD AND SWAP5 PUSH2 0x1A78 DUP5 PUSH2 0x3D4C JUMP JUMPDEST PUSH2 0x1A81 DUP5 PUSH2 0x3D4C JUMP JUMPDEST PUSH2 0x1A8A DUP7 PUSH2 0x3D4C JUMP JUMPDEST DUP4 DUP7 EQ PUSH2 0x1AF7 JUMPI POP SWAP2 PUSH1 0x60 SWAP4 SWAP2 PUSH2 0x1ACC DUP3 PUSH32 0x2CEAF6828EE12B3A0561FE551F858011031C9F47CF65D027F4462777E3C63A8D SWAP8 SWAP6 PUSH2 0x1AC7 DUP3 PUSH2 0x3D4C JUMP JUMPDEST PUSH2 0x4255 JUMP JUMPDEST PUSH2 0x1AD5 DUP3 PUSH2 0x3D4C JUMP JUMPDEST DUP3 MLOAD SWAP4 PUSH2 0x1AE1 DUP2 PUSH2 0x3D4C JUMP JUMPDEST DUP5 MSTORE PUSH2 0x1AEC DUP3 PUSH2 0x3D4C JUMP JUMPDEST DUP4 ADD MSTORE TIMESTAMP SWAP1 DUP3 ADD MSTORE LOG3 STOP JUMPDEST DUP5 MLOAD PUSH3 0x461BCD PUSH1 0xE5 SHL DUP2 MSTORE SWAP1 DUP2 ADD DUP4 SWAP1 MSTORE PUSH1 0x12 PUSH1 0x24 DUP3 ADD MSTORE PUSH18 0x105B1C9958591E481D1A1A5CC81B195D995B PUSH1 0x72 SHL PUSH1 0x44 DUP3 ADD MSTORE PUSH1 0x64 SWAP1 REVERT JUMPDEST DUP4 MLOAD PUSH3 0x461BCD PUSH1 0xE5 SHL DUP2 MSTORE DUP1 DUP7 ADD DUP4 SWAP1 MSTORE PUSH1 0x1F PUSH1 0x24 DUP3 ADD MSTORE PUSH32 0x566572696669636174696F6E20686173206265656E2072657472616374656400 PUSH1 0x44 DUP3 ADD MSTORE PUSH1 0x64 SWAP1 REVERT JUMPDEST DUP4 PUSH1 0x64 SWAP2 DUP5 MLOAD SWAP2 PUSH3 0x461BCD PUSH1 0xE5 SHL DUP4 MSTORE DUP3 ADD MSTORE PUSH1 0x19 PUSH1 0x24 DUP3 ADD MSTORE PUSH32 0x4E6F20766572696669636174696F6E20746F206D6F6469667900000000000000 PUSH1 0x44 DUP3 ADD MSTORE REVERT JUMPDEST SWAP1 DUP1 SWAP7 POP DUP2 DUP2 RETURNDATASIZE DUP4 GT PUSH2 0x1BDC JUMPI JUMPDEST PUSH2 0x1BCC DUP2 DUP4 PUSH2 0x3E16 JUMP JUMPDEST DUP2 ADD SUB SLT PUSH2 0x882 JUMPI MLOAD SWAP5 DUP7 PUSH2 0x1A0D JUMP JUMPDEST POP RETURNDATASIZE PUSH2 0x1BC2 JUMP JUMPDEST DUP4 MLOAD RETURNDATASIZE PUSH0 DUP3 RETURNDATACOPY RETURNDATASIZE SWAP1 REVERT JUMPDEST POP PUSH1 0x3 DUP5 GT ISZERO PUSH2 0x19CB JUMP JUMPDEST DUP5 DUP4 CALLVALUE PUSH2 0x882 JUMPI PUSH1 0x20 SWAP1 DUP2 PUSH1 0x3 NOT CALLDATASIZE ADD SLT PUSH2 0x882 JUMPI CALLDATALOAD SWAP1 DUP2 PUSH0 MSTORE PUSH1 0x2 DUP2 MSTORE DUP3 PUSH0 KECCAK256 DUP4 MLOAD DUP1 DUP3 DUP5 DUP3 SWAP5 SLOAD SWAP4 DUP5 DUP2 MSTORE ADD SWAP1 PUSH0 MSTORE DUP5 PUSH0 KECCAK256 SWAP3 PUSH0 JUMPDEST DUP7 DUP3 DUP3 LT PUSH2 0x1D2D JUMPI POP POP POP PUSH2 0x1C46 SWAP3 POP SUB DUP3 PUSH2 0x3E16 JUMP JUMPDEST PUSH0 SWAP2 PUSH0 JUMPDEST DUP3 MLOAD DUP2 LT ISZERO PUSH2 0x1C94 JUMPI DUP5 PUSH0 MSTORE PUSH1 0x5 DUP3 MSTORE DUP6 PUSH0 KECCAK256 PUSH2 0x1C67 DUP3 DUP6 PUSH2 0x42A4 JUMP JUMPDEST MLOAD PUSH0 MSTORE DUP3 MSTORE PUSH1 0xFF DUP7 PUSH0 KECCAK256 SLOAD AND PUSH2 0x1C80 JUMPI JUMPDEST PUSH1 0x1 ADD PUSH2 0x1C4A JUMP JUMPDEST SWAP3 PUSH2 0x1C8C PUSH1 0x1 SWAP2 PUSH2 0x4088 JUMP JUMPDEST SWAP4 SWAP1 POP PUSH2 0x1C78 JUMP JUMPDEST POP SWAP1 PUSH2 0x1C9F DUP4 PUSH2 0x428C JUMP JUMPDEST SWAP3 PUSH2 0x1CAC DUP7 MLOAD SWAP5 DUP6 PUSH2 0x3E16 JUMP JUMPDEST DUP1 DUP5 MSTORE PUSH2 0x1CBB PUSH1 0x1F NOT SWAP2 PUSH2 0x428C JUMP JUMPDEST ADD CALLDATASIZE DUP4 DUP6 ADD CALLDATACOPY PUSH0 SWAP2 PUSH0 JUMPDEST DUP3 MLOAD DUP2 LT ISZERO PUSH2 0x1D20 JUMPI PUSH1 0x1 SWAP1 DUP7 PUSH0 MSTORE PUSH1 0x5 DUP4 MSTORE DUP8 PUSH0 KECCAK256 PUSH2 0x1CE5 DUP3 DUP7 PUSH2 0x42A4 JUMP JUMPDEST MLOAD PUSH0 MSTORE DUP4 MSTORE PUSH1 0xFF DUP9 PUSH0 KECCAK256 SLOAD AND PUSH2 0x1CFC JUMPI JUMPDEST ADD PUSH2 0x1CC5 JUMP JUMPDEST PUSH2 0x1D06 DUP2 DUP6 PUSH2 0x42A4 JUMP JUMPDEST MLOAD PUSH2 0x1D1A PUSH2 0x1D13 DUP8 PUSH2 0x4088 JUMP JUMPDEST SWAP7 DUP9 PUSH2 0x42A4 JUMP JUMPDEST MSTORE PUSH2 0x1CF6 JUMP JUMPDEST DUP7 MLOAD DUP1 PUSH2 0x4F5 DUP8 DUP3 PUSH2 0x3EDF JUMP JUMPDEST DUP6 SLOAD DUP5 MSTORE PUSH1 0x1 SWAP6 DUP7 ADD SWAP6 DUP8 SWAP6 POP SWAP4 ADD SWAP3 ADD PUSH2 0x1C2F JUMP JUMPDEST DUP3 DUP6 CALLVALUE PUSH2 0x882 JUMPI PUSH1 0x20 CALLDATASIZE PUSH1 0x3 NOT ADD SLT PUSH2 0x882 JUMPI DUP2 CALLDATALOAD DUP1 PUSH0 MSTORE PUSH1 0x8 PUSH1 0x20 MSTORE PUSH1 0xFF DUP3 PUSH0 KECCAK256 SLOAD AND ISZERO PUSH2 0x1D81 JUMPI PUSH1 0x20 SWAP3 POP PUSH0 MSTORE PUSH1 0x6 DUP3 MSTORE DUP1 PUSH0 KECCAK256 SLOAD SWAP1 MLOAD SWAP1 DUP2 MSTORE RETURN JUMPDEST DUP2 MLOAD PUSH3 0x461BCD PUSH1 0xE5 SHL DUP2 MSTORE PUSH1 0x20 DUP2 DUP6 ADD MSTORE PUSH1 0x13 PUSH1 0x24 DUP3 ADD MSTORE PUSH19 0x12185CDA08191BD95CC81B9BDD08195E1A5CDD PUSH1 0x6A SHL PUSH1 0x44 DUP3 ADD MSTORE PUSH1 0x64 SWAP1 REVERT JUMPDEST DUP5 DUP4 CALLVALUE PUSH2 0x882 JUMPI PUSH1 0x60 CALLDATASIZE PUSH1 0x3 NOT ADD SLT PUSH2 0x882 JUMPI DUP1 CALLDATALOAD SWAP1 PUSH1 0x24 CALLDATALOAD PUSH2 0x1DDB PUSH2 0x3D7A JUMP JUMPDEST SWAP3 PUSH1 0x1 DUP1 PUSH1 0xA0 SHL SUB PUSH0 SLOAD AND SWAP3 DUP6 MLOAD PUSH4 0x45ECD02F PUSH1 0xE0 SHL DUP2 MSTORE CALLER DUP3 DUP3 ADD MSTORE PUSH1 0x20 SWAP1 DUP2 DUP2 PUSH1 0x24 DUP2 DUP10 GAS STATICCALL DUP1 ISZERO PUSH2 0x2006 JUMPI PUSH2 0x1E19 SWAP2 PUSH0 SWAP2 PUSH2 0x2010 JUMPI POP PUSH2 0x42D0 JUMP JUMPDEST DUP7 MLOAD PUSH4 0x64461AFF PUSH1 0xE1 SHL DUP2 MSTORE DUP3 DUP2 ADD DUP5 DUP2 MSTORE CALLER PUSH1 0x20 DUP3 ADD MSTORE SWAP1 SWAP6 SWAP1 DUP3 SWAP1 DUP8 SWAP1 DUP2 SWAP1 PUSH1 0x40 ADD SUB DUP2 DUP5 GAS STATICCALL SWAP1 DUP2 ISZERO PUSH2 0x2006 JUMPI PUSH2 0x1E5D DUP4 SWAP3 PUSH1 0x24 SWAP9 PUSH0 SWAP2 PUSH2 0x1FE9 JUMPI POP PUSH2 0x4313 JUMP JUMPDEST PUSH2 0x1E68 DUP6 ISZERO ISZERO PUSH2 0x435F JUMP JUMPDEST PUSH2 0x1E73 DUP7 ISZERO ISZERO PUSH2 0x43AB JUMP JUMPDEST PUSH2 0x1E8C PUSH1 0xFF DUP10 AND PUSH1 0x1 DUP2 LT ISZERO SWAP1 DUP2 PUSH2 0x1FDD JUMPI JUMPDEST POP PUSH2 0x46F4 JUMP JUMPDEST DUP9 MLOAD PUSH3 0xB0C809 PUSH1 0xE0 SHL DUP2 MSTORE CALLER DUP6 DUP3 ADD MSTORE SWAP7 DUP8 SWAP2 DUP3 SWAP1 GAS STATICCALL SWAP5 DUP6 ISZERO PUSH2 0x190D JUMPI PUSH0 SWAP6 PUSH2 0x1FAE JUMPI JUMPDEST POP PUSH2 0x1EBD DUP6 ISZERO ISZERO PUSH2 0x4211 JUMP JUMPDEST DUP4 PUSH0 MSTORE PUSH1 0x6 DUP2 MSTORE PUSH2 0x1ED2 DUP4 DUP9 PUSH0 KECCAK256 SLOAD EQ PUSH2 0x43F7 JUMP JUMPDEST DUP4 PUSH0 MSTORE PUSH1 0xB DUP2 MSTORE DUP7 PUSH0 KECCAK256 DUP6 PUSH0 MSTORE DUP2 MSTORE PUSH1 0xFF DUP8 PUSH0 KECCAK256 SLOAD AND PUSH2 0x1F6C JUMPI DUP4 PUSH0 MSTORE PUSH1 0xE DUP2 MSTORE DUP7 PUSH0 KECCAK256 DUP6 PUSH0 MSTORE DUP2 MSTORE PUSH1 0xFF DUP8 PUSH0 KECCAK256 SLOAD AND PUSH2 0x1F12 JUMPI POP POP PUSH2 0x1853 SWAP5 POP PUSH2 0x4872 JUMP JUMPDEST DUP7 MLOAD PUSH3 0x461BCD PUSH1 0xE5 SHL DUP2 MSTORE SWAP2 DUP3 ADD MSTORE PUSH1 0x2F PUSH1 0x24 DUP3 ADD MSTORE PUSH32 0x43616E6E6F74207665726966792061206861736820796F752061726520616374 PUSH1 0x44 DUP3 ADD MSTORE PUSH15 0x6976656C7920646973707574696E67 PUSH1 0x88 SHL PUSH1 0x64 DUP3 ADD MSTORE PUSH1 0x84 SWAP2 POP REVERT JUMPDEST DUP7 MLOAD PUSH3 0x461BCD PUSH1 0xE5 SHL DUP2 MSTORE SWAP2 DUP3 ADD MSTORE PUSH1 0x1A PUSH1 0x24 DUP3 ADD MSTORE PUSH32 0x416C726561647920766572696669656420746869732068617368000000000000 PUSH1 0x44 DUP3 ADD MSTORE PUSH1 0x64 SWAP2 POP REVERT JUMPDEST SWAP1 DUP1 SWAP6 POP DUP2 DUP2 RETURNDATASIZE DUP4 GT PUSH2 0x1FD6 JUMPI JUMPDEST PUSH2 0x1FC6 DUP2 DUP4 PUSH2 0x3E16 JUMP JUMPDEST DUP2 ADD SUB SLT PUSH2 0x882 JUMPI MLOAD SWAP4 DUP8 PUSH2 0x1EB1 JUMP JUMPDEST POP RETURNDATASIZE PUSH2 0x1FBC JUMP JUMPDEST PUSH1 0x3 SWAP2 POP GT ISZERO DUP12 PUSH2 0x1E86 JUMP JUMPDEST PUSH2 0x2000 SWAP2 POP DUP5 RETURNDATASIZE DUP7 GT PUSH2 0xD7B JUMPI PUSH2 0xD6D DUP2 DUP4 PUSH2 0x3E16 JUMP JUMPDEST DUP12 PUSH2 0xBE5 JUMP JUMPDEST DUP9 MLOAD RETURNDATASIZE PUSH0 DUP3 RETURNDATACOPY RETURNDATASIZE SWAP1 REVERT JUMPDEST PUSH2 0xDA3 SWAP2 POP DUP4 RETURNDATASIZE DUP6 GT PUSH2 0xD7B JUMPI PUSH2 0xD6D DUP2 DUP4 PUSH2 0x3E16 JUMP JUMPDEST DUP5 CALLVALUE PUSH2 0x882 JUMPI PUSH1 0x20 SWAP1 PUSH2 0x2039 CALLDATASIZE PUSH2 0x3D36 JUMP JUMPDEST SWAP1 PUSH0 MSTORE PUSH1 0xE DUP4 MSTORE DUP2 PUSH0 KECCAK256 SWAP1 PUSH0 MSTORE DUP3 MSTORE PUSH1 0xFF DUP2 PUSH0 KECCAK256 SLOAD AND SWAP1 MLOAD SWAP1 ISZERO ISZERO DUP2 MSTORE RETURN JUMPDEST DUP5 CALLVALUE PUSH2 0x882 JUMPI PUSH1 0x20 CALLDATASIZE PUSH1 0x3 NOT ADD SLT PUSH2 0x882 JUMPI PUSH1 0x20 SWAP1 PUSH2 0x2075 PUSH2 0x3EC9 JUMP JUMPDEST PUSH1 0x1 SLOAD SWAP2 SWAP1 PUSH1 0x1 PUSH1 0x1 PUSH1 0xA0 SHL SUB DUP1 DUP5 AND SWAP2 PUSH32 0x38DF5FA0F7FEF0D515CA1F5388CB5790AC5885D5FCA8D05D9F943E563C33A4B3 SWAP2 SWAP1 PUSH2 0x20B4 CALLER DUP6 EQ PUSH2 0x404F JUMP JUMPDEST AND SWAP5 DUP6 SWAP4 PUSH2 0x20C3 DUP6 ISZERO ISZERO PUSH2 0x46B6 JUMP JUMPDEST MLOAD TIMESTAMP DUP2 MSTORE LOG3 PUSH1 0x1 PUSH1 0x1 PUSH1 0xA0 SHL SUB NOT AND OR PUSH1 0x1 SSTORE STOP JUMPDEST DUP5 CALLVALUE PUSH2 0x882 JUMPI PUSH1 0x20 SWAP1 PUSH2 0x20EA CALLDATASIZE PUSH2 0x3D36 JUMP JUMPDEST SWAP1 PUSH0 MSTORE PUSH1 0xC DUP4 MSTORE DUP2 PUSH0 KECCAK256 SWAP1 PUSH0 MSTORE DUP3 MSTORE DUP1 PUSH0 KECCAK256 SLOAD SWAP1 MLOAD SWAP1 DUP2 MSTORE RETURN JUMPDEST DUP3 DUP6 CALLVALUE PUSH2 0x882 JUMPI PUSH2 0x2114 CALLDATASIZE PUSH2 0x3D36 JUMP JUMPDEST SWAP1 PUSH2 0x212A PUSH1 0x1 DUP1 PUSH1 0xA0 SHL SUB PUSH1 0x1 SLOAD AND CALLER EQ PUSH2 0x404F JUMP JUMPDEST DUP1 PUSH0 MSTORE PUSH1 0x20 PUSH1 0x11 DUP2 MSTORE DUP4 PUSH0 KECCAK256 DUP4 PUSH0 MSTORE DUP2 MSTORE DUP4 PUSH0 KECCAK256 SLOAD SWAP4 DUP5 ISZERO PUSH2 0x2225 JUMPI PUSH0 NOT SWAP5 DUP1 DUP7 ADD SWAP1 DUP2 GT PUSH2 0x2212 JUMPI PUSH2 0x2166 SWAP1 DUP5 PUSH0 MSTORE PUSH1 0x10 DUP5 MSTORE DUP3 PUSH0 KECCAK256 PUSH2 0x4036 JUMP JUMPDEST POP SWAP5 DUP7 DUP7 ADD DUP1 SLOAD SWAP7 PUSH1 0xFF DUP9 AND ISZERO PUSH2 0x21D8 JUMPI PUSH1 0x1 ADD SLOAD SWAP7 PUSH1 0xFF NOT AND SWAP1 SSTORE DUP4 PUSH0 MSTORE PUSH1 0x12 DUP4 MSTORE DUP2 PUSH0 KECCAK256 SWAP1 DUP2 SLOAD DUP1 ISZERO PUSH2 0x21C5 JUMPI PUSH32 0x147D74BFB2412C7ED232EABEB9F52EC3783A909E5C2A94B9DA2AF7F2BDB18AE6 SWAP6 SWAP7 SWAP8 SWAP9 POP ADD SWAP1 SSTORE MLOAD TIMESTAMP DUP2 MSTORE LOG4 STOP JUMPDEST PUSH1 0x11 DUP10 PUSH4 0x4E487B71 PUSH1 0xE0 SHL PUSH0 MSTORE MSTORE PUSH1 0x24 PUSH0 REVERT JUMPDEST DUP4 MLOAD PUSH3 0x461BCD PUSH1 0xE5 SHL DUP2 MSTORE DUP1 DUP11 ADD DUP7 SWAP1 MSTORE PUSH1 0x14 PUSH1 0x24 DUP3 ADD MSTORE PUSH20 0x119B1859C8185B1C9958591E481C995D9BDAD959 PUSH1 0x62 SHL PUSH1 0x44 DUP3 ADD MSTORE PUSH1 0x64 SWAP1 REVERT JUMPDEST PUSH1 0x11 DUP8 PUSH4 0x4E487B71 PUSH1 0xE0 SHL PUSH0 MSTORE MSTORE PUSH1 0x24 PUSH0 REVERT JUMPDEST MLOAD PUSH3 0x461BCD PUSH1 0xE5 SHL DUP2 MSTORE DUP1 DUP7 ADD SWAP2 SWAP1 SWAP2 MSTORE PUSH1 0xE PUSH1 0x24 DUP3 ADD MSTORE PUSH14 0x4E6F20666C616720657869737473 PUSH1 0x90 SHL PUSH1 0x44 DUP3 ADD MSTORE PUSH1 0x64 SWAP1 REVERT JUMPDEST DUP5 CALLVALUE PUSH2 0x882 JUMPI PUSH1 0x20 SWAP1 PUSH2 0x226B CALLDATASIZE PUSH2 0x3D36 JUMP JUMPDEST PUSH0 DUP3 DUP2 MSTORE PUSH1 0x3 DUP6 MSTORE DUP4 DUP2 KECCAK256 DUP3 DUP3 MSTORE DUP6 MSTORE DUP4 SWAP1 KECCAK256 SLOAD PUSH1 0xFF AND SWAP3 SWAP2 DUP4 PUSH2 0x2294 JUMPI JUMPDEST POP POP MLOAD SWAP1 ISZERO ISZERO DUP2 MSTORE RETURN JUMPDEST SWAP1 SWAP2 SWAP3 POP PUSH0 MSTORE PUSH1 0x5 DUP4 MSTORE DUP2 PUSH0 KECCAK256 SWAP1 PUSH0 MSTORE DUP3 MSTORE PUSH1 0xFF DUP2 PUSH0 KECCAK256 SLOAD AND SWAP1 DUP4 DUP1 PUSH2 0x228A JUMP JUMPDEST DUP3 DUP6 CALLVALUE PUSH2 0x882 JUMPI PUSH1 0x20 CALLDATASIZE PUSH1 0x3 NOT ADD SLT PUSH2 0x882 JUMPI PUSH1 0x20 SWAP2 CALLDATALOAD PUSH0 MSTORE PUSH1 0x12 DUP3 MSTORE DUP1 PUSH0 KECCAK256 SLOAD ISZERO ISZERO SWAP1 MLOAD SWAP1 DUP2 MSTORE RETURN JUMPDEST DUP5 DUP4 CALLVALUE PUSH2 0x882 JUMPI PUSH2 0x22EF CALLDATASIZE PUSH2 0x3D36 JUMP JUMPDEST PUSH0 SLOAD DUP5 MLOAD PUSH4 0x45ECD02F PUSH1 0xE0 SHL DUP2 MSTORE CALLER DUP6 DUP3 ADD MSTORE SWAP3 SWAP5 SWAP2 SWAP3 PUSH1 0x20 SWAP3 SWAP2 PUSH1 0x1 PUSH1 0x1 PUSH1 0xA0 SHL SUB AND SWAP1 DUP4 DUP2 PUSH1 0x24 DUP2 DUP6 GAS STATICCALL SWAP1 DUP2 ISZERO PUSH2 0x1BE3 JUMPI SWAP1 PUSH2 0x2334 SWAP2 PUSH0 SWAP2 PUSH2 0x2573 JUMPI POP PUSH2 0x42D0 JUMP JUMPDEST DUP2 MLOAD PUSH3 0x28CF15 PUSH1 0xE5 SHL DUP2 MSTORE DUP6 DUP2 ADD DUP8 DUP2 MSTORE CALLER PUSH1 0x20 DUP3 ADD MSTORE SWAP1 SWAP2 DUP5 SWAP2 DUP4 SWAP2 SWAP1 DUP3 SWAP1 DUP2 SWAP1 PUSH1 0x40 ADD SUB SWAP2 GAS STATICCALL SWAP1 DUP2 ISZERO PUSH2 0x2569 JUMPI PUSH0 SWAP2 PUSH2 0x254C JUMPI JUMPDEST POP ISZERO PUSH2 0x2515 JUMPI DUP3 PUSH0 MSTORE PUSH1 0x6 DUP3 MSTORE DUP5 DUP2 PUSH0 KECCAK256 SLOAD SUB PUSH2 0x24DD JUMPI DUP3 PUSH0 MSTORE PUSH1 0x8 DUP1 DUP4 MSTORE PUSH1 0xFF SWAP3 PUSH2 0x239C PUSH1 0xFF DUP5 PUSH0 KECCAK256 SLOAD AND PUSH2 0x4676 JUMP JUMPDEST PUSH0 SWAP5 DUP8 PUSH0 MSTORE PUSH1 0x7 DUP3 MSTORE DUP4 PUSH0 KECCAK256 SWAP8 DUP5 MLOAD DUP1 DUP11 DUP6 DUP3 SWAP13 SLOAD SWAP4 DUP5 DUP2 MSTORE ADD SWAP1 PUSH0 MSTORE DUP6 PUSH0 KECCAK256 SWAP3 PUSH0 JUMPDEST DUP8 DUP3 DUP3 LT PUSH2 0x24C7 JUMPI POP POP POP PUSH2 0x23D6 SWAP3 POP SUB DUP11 PUSH2 0x3E16 JUMP JUMPDEST PUSH0 JUMPDEST DUP10 MLOAD DUP2 LT ISZERO PUSH2 0x2418 JUMPI PUSH2 0x23EB DUP2 DUP12 PUSH2 0x42A4 JUMP JUMPDEST MLOAD PUSH0 MSTORE DUP5 DUP5 MSTORE DUP7 DUP7 PUSH0 KECCAK256 SLOAD AND PUSH2 0x2404 JUMPI JUMPDEST PUSH1 0x1 ADD PUSH2 0x23D8 JUMP JUMPDEST SWAP7 PUSH2 0x2410 PUSH1 0x1 SWAP2 PUSH2 0x4088 JUMP JUMPDEST SWAP8 SWAP1 POP PUSH2 0x23FC JUMP JUMPDEST POP DUP3 DUP6 DUP10 PUSH1 0x1 DUP11 GT ISZERO PUSH2 0x246B JUMPI POP PUSH0 DUP5 DUP2 MSTORE PUSH1 0x8 DUP4 MSTORE DUP2 DUP2 KECCAK256 DUP1 SLOAD PUSH1 0xFF NOT AND SWAP1 SSTORE PUSH1 0x6 DUP4 MSTORE DUP2 DUP2 KECCAK256 SSTORE MLOAD TIMESTAMP DUP2 MSTORE PUSH32 0x6640C4CAE266BFAFEE4B79AE3B57E1391D8CF826D2B9781AA698E99CA7157C7E SWAP2 SWAP1 LOG3 STOP JUMPDEST DUP3 PUSH1 0x84 SWAP3 MLOAD SWAP2 PUSH3 0x461BCD PUSH1 0xE5 SHL DUP4 MSTORE DUP3 ADD MSTORE PUSH1 0x32 PUSH1 0x24 DUP3 ADD MSTORE PUSH32 0x43616E6E6F74207265747261637420746865206C617374206163746976652076 PUSH1 0x44 DUP3 ADD MSTORE PUSH18 0x195C9CDA5BDB881BD98818481C9958DBDC99 PUSH1 0x72 SHL PUSH1 0x64 DUP3 ADD MSTORE REVERT JUMPDEST DUP6 SLOAD DUP5 MSTORE PUSH1 0x1 SWAP6 DUP7 ADD SWAP6 DUP16 SWAP6 POP SWAP4 ADD SWAP3 ADD PUSH2 0x23BF JUMP JUMPDEST MLOAD PUSH3 0x461BCD PUSH1 0xE5 SHL DUP2 MSTORE SWAP3 DUP4 ADD MSTORE POP PUSH1 0x14 PUSH1 0x24 DUP3 ADD MSTORE PUSH20 0x90C2E6D05AA4CAC6DEE4C840DAD2E6DAC2E8C6D PUSH1 0x63 SHL PUSH1 0x44 DUP3 ADD MSTORE PUSH1 0x64 SWAP1 REVERT JUMPDEST MLOAD PUSH3 0x461BCD PUSH1 0xE5 SHL DUP2 MSTORE SWAP3 DUP4 ADD MSTORE POP PUSH1 0x13 PUSH1 0x24 DUP3 ADD MSTORE PUSH19 0x27B7363C9037BBB732B91037B91030B236B4B7 PUSH1 0x69 SHL PUSH1 0x44 DUP3 ADD MSTORE PUSH1 0x64 SWAP1 REVERT JUMPDEST PUSH2 0x2563 SWAP2 POP DUP4 RETURNDATASIZE DUP6 GT PUSH2 0xD7B JUMPI PUSH2 0xD6D DUP2 DUP4 PUSH2 0x3E16 JUMP JUMPDEST DUP7 PUSH2 0x236B JUMP JUMPDEST DUP3 MLOAD RETURNDATASIZE PUSH0 DUP3 RETURNDATACOPY RETURNDATASIZE SWAP1 REVERT JUMPDEST PUSH2 0x258A SWAP2 POP DUP6 RETURNDATASIZE DUP8 GT PUSH2 0xD7B JUMPI PUSH2 0xD6D DUP2 DUP4 PUSH2 0x3E16 JUMP JUMPDEST DUP9 PUSH2 0xBA6 JUMP JUMPDEST DUP3 DUP6 CALLVALUE PUSH2 0x882 JUMPI PUSH0 CALLDATASIZE PUSH1 0x3 NOT ADD SLT PUSH2 0x882 JUMPI PUSH32 0x0 PUSH1 0x1 PUSH1 0x1 PUSH1 0xA0 SHL SUB AND ADDRESS SUB PUSH2 0x25FB JUMPI PUSH1 0x20 SWAP1 MLOAD PUSH32 0x360894A13BA1A3210667C828492DB98DCA3E2076CC3735A920A3CA505D382BBC DUP2 MSTORE RETURN JUMPDEST MLOAD PUSH4 0x703E46DD PUSH1 0xE1 SHL DUP2 MSTORE REVERT JUMPDEST DUP3 DUP6 CALLVALUE PUSH2 0x882 JUMPI PUSH1 0x20 CALLDATASIZE PUSH1 0x3 NOT ADD SLT PUSH2 0x882 JUMPI PUSH1 0x20 SWAP2 CALLDATALOAD PUSH0 MSTORE PUSH1 0x6 DUP3 MSTORE DUP1 PUSH0 KECCAK256 SLOAD SWAP1 MLOAD SWAP1 DUP2 MSTORE RETURN JUMPDEST DUP5 DUP4 DUP2 PUSH1 0x3 NOT CALLDATASIZE ADD SLT PUSH2 0x882 JUMPI PUSH2 0x2645 PUSH2 0x3EC9 JUMP JUMPDEST SWAP2 PUSH1 0x24 CALLDATALOAD PUSH8 0xFFFFFFFFFFFFFFFF DUP2 GT PUSH2 0x882 JUMPI CALLDATASIZE PUSH1 0x23 DUP3 ADD SLT ISZERO PUSH2 0x882 JUMPI PUSH2 0x2676 SWAP1 CALLDATASIZE SWAP1 PUSH1 0x24 DUP2 DUP7 ADD CALLDATALOAD SWAP2 ADD PUSH2 0x3E38 JUMP JUMPDEST SWAP1 PUSH1 0x1 PUSH1 0x1 PUSH1 0xA0 SHL SUB PUSH32 0x0 DUP2 AND ADDRESS DUP2 EQ SWAP1 DUP2 ISZERO PUSH2 0x2801 JUMPI JUMPDEST POP PUSH2 0x27F1 JUMPI PUSH2 0x26C1 DUP2 PUSH1 0x1 SLOAD AND CALLER EQ PUSH2 0x404F JUMP JUMPDEST DUP5 AND SWAP2 DUP2 MLOAD SWAP5 PUSH4 0x52D1902D PUSH1 0xE0 SHL DUP7 MSTORE PUSH1 0x20 DUP7 DUP7 DUP2 DUP8 GAS STATICCALL PUSH0 SWAP7 DUP2 PUSH2 0x27BD JUMPI JUMPDEST POP PUSH2 0x26FD JUMPI POP POP MLOAD PUSH4 0x4C9C8CE3 PUSH1 0xE0 SHL DUP2 MSTORE SWAP2 DUP3 ADD MSTORE PUSH1 0x24 SWAP2 POP REVERT JUMPDEST DUP4 DUP6 SWAP4 DUP8 PUSH32 0x360894A13BA1A3210667C828492DB98DCA3E2076CC3735A920A3CA505D382BBC SWAP1 DUP2 DUP2 SUB PUSH2 0x27A7 JUMPI POP DUP4 EXTCODESIZE ISZERO PUSH2 0x2790 JUMPI DUP1 SLOAD PUSH1 0x1 PUSH1 0x1 PUSH1 0xA0 SHL SUB NOT AND DUP4 OR SWAP1 SSTORE MLOAD SWAP1 PUSH32 0xBC7CD75A20EE27FD9ADEBAB32041F755214DBC6BFFA90CC0225B39DA2E5C2D3B PUSH0 DUP1 LOG2 DUP3 MLOAD ISZERO PUSH2 0x277A JUMPI POP PUSH2 0x1853 SWAP3 POP PUSH2 0x4A51 JUMP JUMPDEST SWAP2 POP POP CALLVALUE PUSH2 0x2784 JUMPI STOP JUMPDEST PUSH4 0xB398979F PUSH1 0xE0 SHL DUP2 MSTORE REVERT JUMPDEST DUP2 MLOAD PUSH4 0x4C9C8CE3 PUSH1 0xE0 SHL DUP2 MSTORE DUP1 DUP8 ADD DUP5 SWAP1 MSTORE PUSH1 0x24 SWAP1 REVERT JUMPDEST DUP7 PUSH1 0x24 SWAP2 DUP5 MLOAD SWAP2 PUSH4 0x2A875269 PUSH1 0xE2 SHL DUP4 MSTORE DUP3 ADD MSTORE REVERT JUMPDEST SWAP1 SWAP7 POP PUSH1 0x20 DUP2 RETURNDATASIZE PUSH1 0x20 GT PUSH2 0x27E9 JUMPI JUMPDEST DUP2 PUSH2 0x27D9 PUSH1 0x20 SWAP4 DUP4 PUSH2 0x3E16 JUMP JUMPDEST DUP2 ADD SUB SLT PUSH2 0x882 JUMPI MLOAD SWAP6 DUP8 PUSH2 0x26E1 JUMP JUMPDEST RETURNDATASIZE SWAP2 POP PUSH2 0x27CC JUMP JUMPDEST DUP2 MLOAD PUSH4 0x703E46DD PUSH1 0xE1 SHL DUP2 MSTORE DUP5 SWAP1 REVERT JUMPDEST SWAP1 POP DUP2 PUSH32 0x360894A13BA1A3210667C828492DB98DCA3E2076CC3735A920A3CA505D382BBC SLOAD AND EQ ISZERO DUP7 PUSH2 0x26AD JUMP JUMPDEST DUP5 DUP4 CALLVALUE PUSH2 0x882 JUMPI PUSH1 0x20 DUP1 PUSH1 0x3 NOT CALLDATASIZE ADD SLT PUSH2 0x882 JUMPI PUSH0 SLOAD DUP4 MLOAD PUSH3 0xB0C809 PUSH1 0xE0 SHL DUP2 MSTORE CALLER DUP2 DUP6 ADD MSTORE SWAP4 DUP4 CALLDATALOAD SWAP4 SWAP1 SWAP2 DUP4 SWAP1 DUP7 SWAP1 PUSH1 0x24 SWAP1 DUP3 SWAP1 PUSH1 0x1 PUSH1 0x1 PUSH1 0xA0 SHL SUB AND GAS STATICCALL SWAP5 DUP6 ISZERO PUSH2 0x2569 JUMPI PUSH0 SWAP6 PUSH2 0x2972 JUMPI JUMPDEST POP PUSH2 0x2889 DUP6 ISZERO ISZERO PUSH2 0x4211 JUMP JUMPDEST DUP4 PUSH0 MSTORE PUSH1 0xB DUP4 MSTORE DUP2 PUSH0 KECCAK256 DUP6 PUSH0 MSTORE DUP4 MSTORE PUSH1 0xFF DUP3 PUSH0 KECCAK256 SLOAD AND ISZERO PUSH2 0x2931 JUMPI SWAP1 PUSH32 0x7EC0E3CA85E47C77A1ED99FF37570AB8878CB21CED66BAEAD633BECFF47A8F0E SWAP3 SWAP2 DUP5 PUSH0 MSTORE PUSH1 0xC DUP4 MSTORE DUP2 PUSH0 KECCAK256 DUP7 PUSH0 MSTORE DUP4 MSTORE PUSH2 0x2906 DUP3 PUSH0 KECCAK256 SLOAD DUP7 PUSH0 MSTORE PUSH1 0xA DUP6 MSTORE PUSH2 0x28F7 PUSH1 0xFF DUP5 PUSH2 0x7DD DUP5 DUP9 PUSH0 KECCAK256 PUSH2 0x4036 JUMP JUMPDEST DUP7 PUSH0 MSTORE PUSH1 0xA DUP6 MSTORE DUP4 PUSH0 KECCAK256 PUSH2 0x4036 JUMP JUMPDEST POP ADD PUSH1 0xFF NOT SWAP1 DUP2 DUP2 SLOAD AND SWAP1 SSTORE DUP5 PUSH0 MSTORE PUSH1 0xB DUP4 MSTORE DUP2 PUSH0 KECCAK256 DUP7 PUSH0 MSTORE DUP4 MSTORE DUP2 PUSH0 KECCAK256 SWAP1 DUP2 SLOAD AND SWAP1 SSTORE MLOAD TIMESTAMP DUP2 MSTORE LOG3 STOP JUMPDEST DUP3 PUSH1 0x64 SWAP3 MLOAD SWAP2 PUSH3 0x461BCD PUSH1 0xE5 SHL DUP4 MSTORE DUP3 ADD MSTORE PUSH1 0x1A PUSH1 0x24 DUP3 ADD MSTORE PUSH32 0x4E6F20766572696669636174696F6E20746F2072657472616374000000000000 PUSH1 0x44 DUP3 ADD MSTORE REVERT JUMPDEST SWAP1 SWAP5 POP DUP3 DUP2 DUP2 RETURNDATASIZE DUP4 GT PUSH2 0x299A JUMPI JUMPDEST PUSH2 0x298A DUP2 DUP4 PUSH2 0x3E16 JUMP JUMPDEST DUP2 ADD SUB SLT PUSH2 0x882 JUMPI MLOAD SWAP4 DUP6 PUSH2 0x287D JUMP JUMPDEST POP RETURNDATASIZE PUSH2 0x2980 JUMP JUMPDEST DUP3 DUP6 CALLVALUE PUSH2 0x882 JUMPI PUSH2 0x29B1 CALLDATASIZE PUSH2 0x3D36 JUMP JUMPDEST PUSH0 SLOAD DUP4 MLOAD PUSH4 0x45ECD02F PUSH1 0xE0 SHL DUP2 MSTORE CALLER DUP7 DUP3 ADD MSTORE SWAP3 SWAP4 PUSH1 0x20 SWAP4 SWAP1 SWAP3 SWAP2 PUSH1 0x1 PUSH1 0x1 PUSH1 0xA0 SHL SUB AND SWAP1 DUP5 DUP2 PUSH1 0x24 DUP2 DUP6 GAS STATICCALL SWAP1 DUP2 ISZERO PUSH2 0x2B63 JUMPI SWAP1 PUSH2 0x29F6 SWAP2 PUSH0 SWAP2 PUSH2 0x2B4C JUMPI POP PUSH2 0x42D0 JUMP JUMPDEST DUP3 MLOAD PUSH4 0x64461AFF PUSH1 0xE1 SHL DUP2 MSTORE DUP7 DUP2 ADD DUP7 DUP2 MSTORE CALLER PUSH1 0x20 DUP3 ADD MSTORE SWAP1 SWAP2 DUP6 SWAP2 DUP4 SWAP2 SWAP1 DUP3 SWAP1 DUP2 SWAP1 PUSH1 0x40 ADD SUB SWAP2 GAS STATICCALL SWAP1 DUP2 ISZERO PUSH2 0x1BE3 JUMPI PUSH2 0x2A3C SWAP3 SWAP2 PUSH2 0x178C SWAP2 PUSH0 SWAP2 PUSH2 0x2B2F JUMPI POP PUSH2 0x4313 JUMP JUMPDEST SWAP4 DUP4 PUSH0 MSTORE PUSH1 0x3 DUP4 MSTORE DUP2 PUSH0 KECCAK256 DUP6 PUSH0 MSTORE DUP4 MSTORE PUSH1 0xFF DUP3 PUSH0 KECCAK256 SLOAD AND ISZERO PUSH2 0x2AEE JUMPI DUP4 PUSH0 MSTORE PUSH1 0x5 DUP4 MSTORE DUP2 PUSH0 KECCAK256 DUP6 PUSH0 MSTORE DUP4 MSTORE PUSH1 0xFF DUP3 PUSH0 KECCAK256 SLOAD AND ISZERO PUSH2 0x2AB8 JUMPI POP SWAP1 PUSH32 0x8AEFA795CCFDF03E334BD6A4FE20E8C4F5D5202E0320DC267FDE988BD5F1674F SWAP2 DUP4 PUSH0 MSTORE PUSH1 0x5 DUP3 MSTORE DUP1 PUSH0 KECCAK256 DUP6 PUSH0 MSTORE DUP3 MSTORE DUP1 PUSH0 KECCAK256 PUSH1 0xFF NOT DUP2 SLOAD AND SWAP1 SSTORE MLOAD TIMESTAMP DUP2 MSTORE LOG3 STOP JUMPDEST DUP3 PUSH1 0x64 SWAP3 MLOAD SWAP2 PUSH3 0x461BCD PUSH1 0xE5 SHL DUP4 MSTORE DUP3 ADD MSTORE PUSH1 0x12 PUSH1 0x24 DUP3 ADD MSTORE PUSH18 0x105B1C9958591E481D5B985B98DA1BDC9959 PUSH1 0x72 SHL PUSH1 0x44 DUP3 ADD MSTORE REVERT JUMPDEST DUP3 PUSH1 0x64 SWAP3 MLOAD SWAP2 PUSH3 0x461BCD PUSH1 0xE5 SHL DUP4 MSTORE DUP3 ADD MSTORE PUSH1 0x1C PUSH1 0x24 DUP3 ADD MSTORE PUSH32 0x4E6F742061207375626A656374206F662074686973207265636F726400000000 PUSH1 0x44 DUP3 ADD MSTORE REVERT JUMPDEST PUSH2 0x2B46 SWAP2 POP DUP7 RETURNDATASIZE DUP9 GT PUSH2 0xD7B JUMPI PUSH2 0xD6D DUP2 DUP4 PUSH2 0x3E16 JUMP JUMPDEST DUP9 PUSH2 0xBE5 JUMP JUMPDEST PUSH2 0x258A SWAP2 POP DUP7 RETURNDATASIZE DUP9 GT PUSH2 0xD7B JUMPI PUSH2 0xD6D DUP2 DUP4 PUSH2 0x3E16 JUMP JUMPDEST DUP5 MLOAD RETURNDATASIZE PUSH0 DUP3 RETURNDATACOPY RETURNDATASIZE SWAP1 REVERT JUMPDEST DUP5 SWAP1 CALLVALUE PUSH2 0x882 JUMPI PUSH2 0x158E PUSH2 0x159C PUSH2 0x2B8C PUSH2 0x2B86 CALLDATASIZE PUSH2 0x3D36 JUMP JUMPDEST SWAP1 PUSH2 0x45B5 JUMP JUMPDEST SWAP7 SWAP6 SWAP9 SWAP4 SWAP1 SWAP8 SWAP3 SWAP2 SWAP5 SWAP10 DUP1 MLOAD SWAP11 DUP12 SWAP11 ISZERO ISZERO DUP12 MSTORE PUSH1 0x20 DUP12 ADD MSTORE PUSH2 0x2BAD DUP3 PUSH2 0x3D4C JUMP JUMPDEST DUP10 ADD MSTORE PUSH1 0x60 DUP9 ADD SWAP1 PUSH2 0x3E7E JUMP JUMPDEST DUP3 DUP6 CALLVALUE PUSH2 0x882 JUMPI PUSH1 0x20 CALLDATASIZE PUSH1 0x3 NOT ADD SLT PUSH2 0x882 JUMPI PUSH1 0x20 SWAP2 CALLDATALOAD PUSH0 MSTORE PUSH1 0x8 DUP3 MSTORE PUSH1 0xFF DUP2 PUSH0 KECCAK256 SLOAD AND SWAP1 MLOAD SWAP1 ISZERO ISZERO DUP2 MSTORE RETURN JUMPDEST DUP5 CALLVALUE PUSH2 0x882 JUMPI PUSH1 0xA0 SWAP1 PUSH2 0x2C02 PUSH2 0x2BFC CALLDATASIZE PUSH2 0x3D36 JUMP JUMPDEST SWAP1 PUSH2 0x453F JUMP JUMPDEST SWAP4 SWAP5 SWAP1 SWAP3 DUP2 MLOAD SWAP6 ISZERO ISZERO DUP7 MSTORE ISZERO ISZERO PUSH1 0x20 DUP7 ADD MSTORE DUP5 ADD MSTORE PUSH1 0x60 DUP4 ADD MSTORE PUSH1 0x80 DUP3 ADD MSTORE RETURN JUMPDEST DUP5 DUP4 CALLVALUE PUSH2 0x882 JUMPI PUSH1 0x20 CALLDATASIZE PUSH1 0x3 NOT ADD SLT PUSH2 0x882 JUMPI DUP1 CALLDATALOAD PUSH0 MSTORE PUSH1 0x13 PUSH1 0x20 MSTORE DUP2 PUSH0 KECCAK256 SWAP1 DUP3 MLOAD SWAP2 DUP3 PUSH1 0x20 DUP3 SLOAD SWAP2 DUP3 DUP2 MSTORE ADD SWAP2 PUSH0 MSTORE PUSH1 0x20 PUSH0 KECCAK256 SWAP1 PUSH0 JUMPDEST DUP2 DUP2 LT PUSH2 0x2FC2 JUMPI POP POP POP DUP3 PUSH2 0x2C70 SWAP2 SUB DUP4 PUSH2 0x3E16 JUMP JUMPDEST PUSH0 SWAP1 PUSH0 SWAP3 JUMPDEST DUP1 MLOAD DUP5 LT ISZERO PUSH2 0x2D30 JUMPI PUSH2 0x2C88 DUP5 DUP3 PUSH2 0x42A4 JUMP JUMPDEST MLOAD PUSH0 MSTORE PUSH1 0xD PUSH1 0x20 MSTORE DUP5 PUSH0 KECCAK256 SWAP2 DUP3 SLOAD PUSH2 0x2C9F DUP2 PUSH2 0x428C JUMP JUMPDEST SWAP4 PUSH2 0x2CAC DUP9 MLOAD SWAP6 DUP7 PUSH2 0x3E16 JUMP JUMPDEST DUP2 DUP6 MSTORE PUSH1 0x20 DUP6 ADD SWAP1 PUSH0 MSTORE PUSH1 0x20 PUSH0 KECCAK256 SWAP1 PUSH0 SWAP1 JUMPDEST DUP4 DUP3 LT PUSH2 0x2D12 JUMPI POP POP POP POP PUSH0 JUMPDEST DUP4 MLOAD DUP2 LT ISZERO PUSH2 0x2D04 JUMPI PUSH1 0xC0 PUSH2 0x2CE0 DUP3 DUP7 PUSH2 0x42A4 JUMP JUMPDEST MLOAD ADD MLOAD PUSH2 0x2CF0 JUMPI JUMPDEST PUSH1 0x1 ADD PUSH2 0x2CCB JUMP JUMPDEST SWAP4 PUSH2 0x2CFC PUSH1 0x1 SWAP2 PUSH2 0x4088 JUMP JUMPDEST SWAP5 SWAP1 POP PUSH2 0x2CE8 JUMP JUMPDEST POP PUSH1 0x1 SWAP1 SWAP5 ADD SWAP4 SWAP2 POP PUSH2 0x2C75 JUMP JUMPDEST PUSH1 0x6 PUSH1 0x20 PUSH1 0x1 SWAP3 PUSH2 0x2D22 DUP7 PUSH2 0x448F JUMP JUMPDEST DUP2 MSTORE ADD SWAP4 ADD SWAP2 ADD SWAP1 SWAP2 PUSH2 0x2CBE JUMP JUMPDEST SWAP3 POP PUSH2 0x2D53 PUSH2 0x2D3E DUP4 PUSH2 0x428C JUMP JUMPDEST SWAP3 PUSH2 0x2D4B DUP7 MLOAD SWAP5 DUP6 PUSH2 0x3E16 JUMP JUMPDEST DUP1 DUP5 MSTORE PUSH2 0x428C JUMP JUMPDEST PUSH1 0x1F NOT ADD PUSH0 JUMPDEST DUP2 DUP2 LT PUSH2 0x2F89 JUMPI POP POP PUSH0 SWAP4 PUSH0 JUMPDEST DUP5 MLOAD DUP2 LT ISZERO PUSH2 0x2EE4 JUMPI PUSH2 0x2D79 DUP2 DUP7 PUSH2 0x42A4 JUMP JUMPDEST MLOAD PUSH0 MSTORE PUSH1 0xD PUSH1 0x20 MSTORE DUP2 PUSH0 KECCAK256 SWAP1 DUP2 SLOAD PUSH2 0x2D90 DUP2 PUSH2 0x428C JUMP JUMPDEST SWAP3 PUSH2 0x2D9D DUP6 MLOAD SWAP5 DUP6 PUSH2 0x3E16 JUMP JUMPDEST DUP2 DUP5 MSTORE PUSH1 0x20 DUP5 ADD SWAP1 PUSH0 MSTORE PUSH1 0x20 PUSH0 KECCAK256 PUSH0 SWAP2 JUMPDEST DUP4 DUP4 LT PUSH2 0x2EC6 JUMPI POP POP POP POP PUSH0 JUMPDEST DUP3 MLOAD DUP2 LT ISZERO PUSH2 0x2EBB JUMPI PUSH1 0xC0 PUSH2 0x2DD0 DUP3 DUP6 PUSH2 0x42A4 JUMP JUMPDEST MLOAD ADD MLOAD ISZERO PUSH2 0x2EB3 JUMPI PUSH2 0x2DE2 DUP3 DUP9 PUSH2 0x42A4 JUMP JUMPDEST MLOAD SWAP8 PUSH2 0x2DEE DUP3 DUP6 PUSH2 0x42A4 JUMP JUMPDEST MLOAD MLOAD DUP6 PUSH2 0x2DFB DUP5 DUP8 PUSH2 0x42A4 JUMP JUMPDEST MLOAD ADD MLOAD PUSH2 0x2E07 DUP2 PUSH2 0x3D4C JUMP JUMPDEST PUSH1 0x60 PUSH2 0x2E13 DUP6 DUP9 PUSH2 0x42A4 JUMP JUMPDEST MLOAD ADD MLOAD PUSH1 0x6 DUP2 LT ISZERO PUSH2 0x2EA0 JUMPI PUSH2 0x2E29 DUP6 DUP9 PUSH2 0x42A4 JUMP JUMPDEST MLOAD PUSH1 0x80 ADD MLOAD SWAP2 PUSH2 0x2E39 DUP7 DUP10 PUSH2 0x42A4 JUMP JUMPDEST MLOAD PUSH1 0xA0 ADD MLOAD SWAP4 DUP10 MLOAD DUP1 SWAP15 PUSH2 0x2E4C DUP3 PUSH2 0x3DE6 JUMP JUMPDEST DUP2 MSTORE PUSH1 0x20 ADD MSTORE PUSH2 0x2E5B DUP2 PUSH2 0x3D4C JUMP JUMPDEST DUP13 DUP10 ADD MSTORE PUSH2 0x2E6C SWAP1 PUSH1 0x60 DUP14 ADD PUSH2 0x444F JUMP JUMPDEST PUSH1 0x80 DUP12 ADD MSTORE PUSH1 0xA0 DUP11 ADD MSTORE PUSH2 0x2E7F DUP2 PUSH2 0x4088 JUMP JUMPDEST SWAP9 PUSH2 0x2E8A DUP3 DUP10 PUSH2 0x42A4 JUMP JUMPDEST MSTORE PUSH2 0x2E95 SWAP1 DUP8 PUSH2 0x42A4 JUMP JUMPDEST POP PUSH1 0x1 SWAP1 JUMPDEST ADD PUSH2 0x2DBB JUMP JUMPDEST PUSH1 0x21 DUP10 PUSH4 0x4E487B71 PUSH1 0xE0 SHL PUSH0 MSTORE MSTORE PUSH1 0x24 PUSH0 REVERT JUMPDEST PUSH1 0x1 SWAP1 PUSH2 0x2E9A JUMP JUMPDEST POP PUSH1 0x1 SWAP2 POP ADD PUSH2 0x2D66 JUMP JUMPDEST PUSH1 0x6 PUSH1 0x20 PUSH1 0x1 SWAP3 PUSH2 0x2ED6 DUP6 PUSH2 0x448F JUMP JUMPDEST DUP2 MSTORE ADD SWAP3 ADD SWAP3 ADD SWAP2 SWAP1 PUSH2 0x2DAE JUMP JUMPDEST POP DUP1 MLOAD PUSH1 0x20 DUP1 DUP3 MSTORE DUP5 MLOAD DUP2 DUP4 ADD DUP2 SWAP1 MSTORE PUSH1 0x5 DUP2 SWAP1 SHL DUP4 ADD DUP5 ADD SWAP2 DUP7 ADD SWAP1 PUSH0 DUP5 DUP7 ADD JUMPDEST DUP3 DUP3 LT PUSH2 0x2F13 JUMPI DUP6 DUP6 SUB DUP7 RETURN JUMPDEST SWAP1 SWAP2 SWAP3 SWAP4 PUSH1 0x20 DUP1 PUSH1 0x1 SWAP3 PUSH1 0x3F NOT DUP10 DUP3 SUB ADD DUP6 MSTORE DUP8 MLOAD SWAP1 PUSH2 0x2F71 PUSH1 0xC0 DUP4 MLOAD DUP4 MSTORE DUP5 DUP5 ADD MLOAD DUP6 DUP5 ADD MSTORE DUP13 DUP5 ADD MLOAD PUSH2 0x2F47 DUP2 PUSH2 0x3D4C JUMP JUMPDEST DUP14 DUP5 ADD MSTORE PUSH2 0x2F5D PUSH1 0x60 DUP1 DUP7 ADD MLOAD SWAP1 DUP6 ADD SWAP1 PUSH2 0x3E7E JUMP JUMPDEST PUSH1 0x80 SWAP1 DUP1 DUP3 DUP7 ADD MLOAD SWAP3 DUP6 ADD MSTORE DUP4 ADD SWAP1 PUSH2 0x3E8B JUMP JUMPDEST SWAP2 PUSH1 0xA0 DUP1 SWAP2 ADD MLOAD SWAP2 ADD MSTORE SWAP7 ADD SWAP3 ADD SWAP3 ADD SWAP1 SWAP3 SWAP2 PUSH2 0x2F06 JUMP JUMPDEST PUSH1 0x20 SWAP1 DUP7 MLOAD PUSH2 0x2F97 DUP2 PUSH2 0x3DE6 JUMP JUMPDEST PUSH0 DUP2 MSTORE PUSH0 DUP4 DUP3 ADD MSTORE PUSH0 DUP9 DUP3 ADD MSTORE PUSH1 0x60 PUSH0 DUP2 DUP4 ADD MSTORE PUSH1 0x80 DUP3 ADD MSTORE PUSH0 PUSH1 0xA0 DUP3 ADD MSTORE DUP3 DUP3 DUP8 ADD ADD MSTORE ADD PUSH2 0x2D59 JUMP JUMPDEST DUP3 SLOAD DUP5 MSTORE PUSH1 0x20 SWAP1 SWAP4 ADD SWAP3 PUSH1 0x1 SWAP3 DUP4 ADD SWAP3 ADD PUSH2 0x2C5A JUMP JUMPDEST DUP3 DUP6 CALLVALUE PUSH2 0x882 JUMPI PUSH1 0xA0 CALLDATASIZE PUSH1 0x3 NOT ADD SLT PUSH2 0x882 JUMPI DUP2 CALLDATALOAD SWAP1 PUSH1 0x24 SWAP3 DUP4 CALLDATALOAD SWAP2 PUSH2 0x2FFC PUSH2 0x3D7A JUMP JUMPDEST SWAP2 PUSH2 0x3005 PUSH2 0x3D8A JUMP JUMPDEST PUSH8 0xFFFFFFFFFFFFFFFF SWAP4 SWAP1 PUSH1 0x84 CALLDATALOAD DUP6 DUP2 GT PUSH2 0x882 JUMPI CALLDATASIZE PUSH1 0x23 DUP3 ADD SLT ISZERO PUSH2 0x882 JUMPI PUSH2 0x3037 SWAP1 CALLDATASIZE SWAP1 DUP11 DUP2 DUP8 ADD CALLDATALOAD SWAP2 ADD PUSH2 0x3E38 JUMP JUMPDEST SWAP5 PUSH1 0x1 DUP1 PUSH1 0xA0 SHL SUB PUSH0 SLOAD AND SWAP4 DUP6 MLOAD SWAP4 PUSH4 0x45ECD02F PUSH1 0xE0 SHL DUP6 MSTORE CALLER DUP3 DUP7 ADD MSTORE PUSH1 0x20 SWAP5 DUP6 DUP2 DUP14 DUP2 DUP11 GAS STATICCALL SWAP1 DUP2 ISZERO PUSH2 0x2006 JUMPI SWAP1 PUSH2 0x3077 SWAP2 PUSH0 SWAP2 PUSH2 0x3586 JUMPI POP PUSH2 0x42D0 JUMP JUMPDEST DUP7 MLOAD PUSH4 0x64461AFF PUSH1 0xE1 SHL DUP2 MSTORE DUP3 DUP2 ADD DUP12 DUP2 MSTORE CALLER PUSH1 0x20 DUP3 ADD MSTORE DUP7 SWAP1 DUP3 SWAP1 DUP2 SWAP1 PUSH1 0x40 ADD SUB DUP2 DUP11 GAS STATICCALL SWAP1 DUP2 ISZERO PUSH2 0x2006 JUMPI SWAP2 PUSH2 0x30BC PUSH1 0xFF SWAP3 DUP15 SWAP8 SWAP7 SWAP6 SWAP5 PUSH0 SWAP2 PUSH2 0x3569 JUMPI POP PUSH2 0x4313 JUMP JUMPDEST PUSH2 0x30C7 DUP13 ISZERO ISZERO PUSH2 0x435F JUMP JUMPDEST PUSH2 0x30D2 DUP12 ISZERO ISZERO PUSH2 0x43AB JUMP JUMPDEST AND SWAP8 DUP6 PUSH1 0xFF PUSH1 0x1 SWAP6 DUP7 DUP13 LT ISZERO DUP1 PUSH2 0x355E JUMPI JUMPDEST PUSH2 0x30ED SWAP1 PUSH2 0x4182 JUMP JUMPDEST AND SWAP8 PUSH2 0x30FC PUSH1 0x5 DUP11 GT ISZERO PUSH2 0x41C5 JUMP JUMPDEST DUP10 MLOAD PUSH3 0xB0C809 PUSH1 0xE0 SHL DUP2 MSTORE CALLER DUP6 DUP3 ADD MSTORE SWAP14 DUP15 SWAP2 DUP3 SWAP1 GAS STATICCALL SWAP12 DUP13 ISZERO PUSH2 0x2006 JUMPI PUSH0 SWAP13 PUSH2 0x352F JUMPI JUMPDEST POP PUSH2 0x312D DUP13 ISZERO ISZERO PUSH2 0x4211 JUMP JUMPDEST DUP10 PUSH0 MSTORE PUSH1 0x6 DUP7 MSTORE PUSH2 0x3142 DUP12 DUP10 PUSH0 KECCAK256 SLOAD EQ PUSH2 0x43F7 JUMP JUMPDEST DUP10 PUSH0 MSTORE PUSH1 0xE DUP7 MSTORE DUP8 PUSH0 KECCAK256 DUP13 PUSH0 MSTORE DUP7 MSTORE PUSH1 0xFF DUP9 PUSH0 KECCAK256 SLOAD AND PUSH2 0x34ED JUMPI DUP10 PUSH0 MSTORE PUSH1 0xB DUP7 MSTORE DUP8 PUSH0 KECCAK256 DUP13 PUSH0 MSTORE DUP7 MSTORE PUSH1 0xFF DUP9 PUSH0 KECCAK256 SLOAD AND PUSH2 0x3492 JUMPI DUP10 PUSH0 MSTORE PUSH1 0xD DUP7 MSTORE DUP8 PUSH0 KECCAK256 SWAP3 DUP4 SLOAD SWAP6 PUSH2 0x318D DUP12 PUSH2 0x3D4C JUMP JUMPDEST PUSH1 0x6 DUP10 LT ISZERO PUSH2 0x3480 JUMPI SWAP2 DUP13 SWAP2 DUP15 SWAP6 SWAP5 SWAP4 DUP12 MLOAD SWAP7 PUSH2 0x31A9 DUP9 PUSH2 0x3DCA JUMP JUMPDEST DUP8 MSTORE DUP10 DUP8 ADD SWAP4 DUP5 MSTORE DUP12 DUP8 ADD PUSH2 0x31BD DUP15 PUSH2 0x3D4C JUMP JUMPDEST DUP14 DUP2 MSTORE PUSH1 0x60 DUP9 ADD PUSH2 0x31CE DUP14 DUP3 PUSH2 0x444F JUMP JUMPDEST PUSH1 0x80 DUP10 ADD SWAP5 DUP6 MSTORE PUSH1 0xA0 DUP10 ADD SWAP6 TIMESTAMP DUP8 MSTORE PUSH1 0xC0 DUP11 ADD SWAP9 DUP12 DUP11 MSTORE PUSH1 0x1 PUSH1 0x40 SHL DUP14 LT ISZERO PUSH2 0x346E JUMPI DUP13 PUSH2 0x3200 SWAP2 DUP14 DUP3 ADD DUP2 SSTORE PUSH2 0x3F43 JUMP JUMPDEST SWAP11 SWAP1 SWAP11 PUSH2 0x345D JUMPI MLOAD DUP11 SSTORE MLOAD DUP11 DUP11 ADD SSTORE PUSH2 0x3227 PUSH1 0x2 DUP11 ADD SWAP3 MLOAD PUSH2 0x3221 DUP2 PUSH2 0x3D4C JUMP JUMPDEST DUP4 PUSH2 0x4255 JUMP JUMPDEST MLOAD SWAP1 PUSH1 0x6 DUP3 LT ISZERO PUSH2 0x344B JUMPI SWAP1 PUSH2 0x323C SWAP2 PUSH2 0x426D JUMP JUMPDEST PUSH1 0x3 DUP8 ADD SWAP3 MLOAD SWAP1 DUP2 MLOAD SWAP3 DUP4 GT PUSH2 0x3439 JUMPI POP PUSH2 0x3257 DUP4 SLOAD PUSH2 0x3F5C JUMP JUMPDEST PUSH1 0x1F DUP2 GT PUSH2 0x33F3 JUMPI JUMPDEST POP DUP10 SWAP1 PUSH1 0x1F DUP4 GT PUSH1 0x1 EQ PUSH2 0x335D JUMPI SWAP5 PUSH2 0x32DE SWAP5 PUSH1 0x60 SWAP14 SWAP12 SWAP9 SWAP5 PUSH32 0x19C1298D442E6DCFC61025509382DD2C8A2D96C75E684D78C38C95624674C9A9 SWAP16 SWAP14 SWAP11 SWAP8 SWAP5 DUP1 PUSH2 0x334A SWAP14 SWAP11 SWAP6 PUSH1 0x5 SWAP8 PUSH0 SWAP3 PUSH2 0x3352 JUMPI JUMPDEST POP POP PUSH0 NOT PUSH1 0x3 DUP4 SWAP1 SHL SHR NOT AND SWAP1 DUP10 SHL OR SWAP1 SSTORE JUMPDEST MLOAD SWAP1 DUP5 ADD SSTORE MLOAD ISZERO ISZERO SWAP2 ADD SWAP1 PUSH1 0xFF DUP1 NOT DUP4 SLOAD AND SWAP2 ISZERO ISZERO AND OR SWAP1 SSTORE JUMP JUMPDEST DUP10 PUSH0 MSTORE PUSH1 0xE DUP4 MSTORE DUP6 PUSH0 KECCAK256 DUP13 PUSH0 MSTORE DUP4 MSTORE DUP6 PUSH0 KECCAK256 SWAP1 PUSH1 0xFF NOT DUP3 SLOAD AND OR SWAP1 SSTORE DUP9 PUSH0 MSTORE PUSH1 0xF DUP3 MSTORE DUP5 PUSH0 KECCAK256 DUP12 PUSH0 MSTORE DUP3 MSTORE DUP5 PUSH0 KECCAK256 SSTORE PUSH1 0x14 DUP2 MSTORE PUSH2 0x331D DUP9 DUP6 PUSH0 KECCAK256 PUSH2 0x445B JUMP JUMPDEST PUSH2 0x3328 PUSH1 0x16 SLOAD PUSH2 0x4088 JUMP JUMPDEST PUSH1 0x16 SSTORE PUSH2 0x3334 DUP6 PUSH2 0x3D4C JUMP JUMPDEST DUP4 MLOAD SWAP5 PUSH2 0x3340 DUP2 PUSH2 0x3D4C JUMP JUMPDEST DUP6 MSTORE DUP5 ADD SWAP1 PUSH2 0x3E7E JUMP JUMPDEST TIMESTAMP SWAP1 DUP3 ADD MSTORE LOG4 STOP JUMPDEST ADD MLOAD SWAP1 POP PUSH0 DUP1 PUSH2 0x32B0 JUMP JUMPDEST SWAP1 PUSH1 0x1F NOT DUP4 AND SWAP2 DUP5 PUSH0 MSTORE DUP12 PUSH0 KECCAK256 SWAP3 PUSH0 JUMPDEST DUP2 DUP2 LT PUSH2 0x33DE JUMPI POP SWAP5 PUSH32 0x19C1298D442E6DCFC61025509382DD2C8A2D96C75E684D78C38C95624674C9A9 SWAP16 SWAP14 SWAP11 PUSH1 0x60 SWAP16 SWAP14 SWAP11 SWAP7 SWAP6 PUSH2 0x334A SWAP14 SWAP11 SWAP6 DUP3 SWAP11 SWAP6 PUSH2 0x32DE SWAP11 SWAP6 DUP4 PUSH1 0x5 SWAP11 LT PUSH2 0x33C6 JUMPI JUMPDEST POP POP POP DUP2 SHL ADD SWAP1 SSTORE PUSH2 0x32C3 JUMP JUMPDEST ADD MLOAD PUSH0 NOT PUSH1 0xF8 DUP5 PUSH1 0x3 SHL AND SHR NOT AND SWAP1 SSTORE PUSH0 DUP1 DUP1 PUSH2 0x33B9 JUMP JUMPDEST DUP3 DUP5 ADD MLOAD DUP6 SSTORE SWAP4 DUP12 ADD SWAP4 SWAP3 DUP14 ADD SWAP3 DUP14 ADD PUSH2 0x336D JUMP JUMPDEST DUP4 PUSH0 MSTORE DUP11 PUSH0 KECCAK256 PUSH1 0x1F DUP5 ADD PUSH1 0x5 SHR DUP2 ADD SWAP2 DUP13 DUP6 LT PUSH2 0x342F JUMPI JUMPDEST PUSH1 0x1F ADD PUSH1 0x5 SHR ADD SWAP1 DUP10 SWAP1 JUMPDEST DUP3 DUP2 LT PUSH2 0x3424 JUMPI POP POP PUSH2 0x3260 JUMP JUMPDEST PUSH0 DUP2 SSTORE ADD DUP10 SWAP1 PUSH2 0x3416 JUMP JUMPDEST SWAP1 SWAP2 POP DUP2 SWAP1 PUSH2 0x340B JUMP JUMPDEST PUSH4 0x4E487B71 PUSH1 0xE0 SHL PUSH0 SWAP1 DUP2 MSTORE PUSH1 0x41 DUP8 MSTORE REVERT JUMPDEST DUP3 PUSH1 0x21 DUP9 PUSH4 0x4E487B71 PUSH1 0xE0 SHL PUSH0 MSTORE MSTORE PUSH0 REVERT JUMPDEST DUP5 PUSH0 DUP11 PUSH4 0x4E487B71 PUSH1 0xE0 SHL DUP3 MSTORE MSTORE PUSH0 REVERT JUMPDEST DUP5 PUSH1 0x41 DUP11 PUSH4 0x4E487B71 PUSH1 0xE0 SHL PUSH0 MSTORE MSTORE PUSH0 REVERT JUMPDEST PUSH4 0x4E487B71 PUSH1 0xE0 SHL PUSH0 SWAP1 DUP2 MSTORE PUSH1 0x21 DUP6 MSTORE REVERT JUMPDEST DUP8 MLOAD PUSH3 0x461BCD PUSH1 0xE5 SHL DUP2 MSTORE DUP1 DUP4 ADD DUP8 SWAP1 MSTORE PUSH1 0x30 DUP2 DUP8 ADD MSTORE PUSH32 0x43616E6E6F7420646973707574652061206861736820796F7520617265206163 PUSH1 0x44 DUP3 ADD MSTORE PUSH16 0x746976656C7920766572696679696E67 PUSH1 0x80 SHL PUSH1 0x64 DUP3 ADD MSTORE PUSH1 0x84 SWAP1 REVERT JUMPDEST DUP8 MLOAD PUSH3 0x461BCD PUSH1 0xE5 SHL DUP2 MSTORE DUP1 DUP4 ADD DUP8 SWAP1 MSTORE PUSH1 0x1A DUP2 DUP8 ADD MSTORE PUSH32 0x416C726561647920646973707574656420746869732068617368000000000000 PUSH1 0x44 DUP3 ADD MSTORE PUSH1 0x64 SWAP1 REVERT JUMPDEST SWAP1 SWAP12 POP DUP6 DUP2 DUP2 RETURNDATASIZE DUP4 GT PUSH2 0x3557 JUMPI JUMPDEST PUSH2 0x3547 DUP2 DUP4 PUSH2 0x3E16 JUMP JUMPDEST DUP2 ADD SUB SLT PUSH2 0x882 JUMPI MLOAD SWAP11 DUP13 PUSH2 0x3121 JUMP JUMPDEST POP RETURNDATASIZE PUSH2 0x353D JUMP JUMPDEST POP PUSH1 0x3 DUP13 GT ISZERO PUSH2 0x30E4 JUMP JUMPDEST PUSH2 0x3580 SWAP2 POP DUP10 RETURNDATASIZE DUP12 GT PUSH2 0xD7B JUMPI PUSH2 0xD6D DUP2 DUP4 PUSH2 0x3E16 JUMP JUMPDEST DUP16 PUSH2 0xBE5 JUMP JUMPDEST PUSH2 0x359D SWAP2 POP DUP8 RETURNDATASIZE DUP10 GT PUSH2 0xD7B JUMPI PUSH2 0xD6D DUP2 DUP4 PUSH2 0x3E16 JUMP JUMPDEST DUP14 PUSH2 0xBA6 JUMP JUMPDEST DUP5 DUP4 CALLVALUE PUSH2 0x882 JUMPI PUSH1 0x20 SWAP1 DUP2 PUSH1 0x3 NOT CALLDATASIZE ADD SLT PUSH2 0x882 JUMPI CALLDATALOAD SWAP1 PUSH0 SWAP1 DUP3 PUSH0 MSTORE PUSH1 0x2 DUP2 MSTORE DUP4 PUSH0 KECCAK256 SWAP1 DUP5 MLOAD DUP1 DUP4 DUP4 DUP3 SWAP6 SLOAD SWAP4 DUP5 DUP2 MSTORE ADD SWAP1 PUSH0 MSTORE DUP4 PUSH0 KECCAK256 SWAP3 PUSH0 JUMPDEST DUP6 DUP3 DUP3 LT PUSH2 0x3651 JUMPI POP POP POP PUSH2 0x35F4 SWAP3 POP SUB DUP4 PUSH2 0x3E16 JUMP JUMPDEST DUP2 MLOAD SWAP4 PUSH0 JUMPDEST DUP4 MLOAD DUP2 LT ISZERO PUSH2 0x3643 JUMPI DUP2 PUSH0 MSTORE PUSH1 0x5 DUP4 MSTORE DUP7 PUSH0 KECCAK256 PUSH2 0x3616 DUP3 DUP7 PUSH2 0x42A4 JUMP JUMPDEST MLOAD PUSH0 MSTORE DUP4 MSTORE PUSH1 0xFF DUP8 PUSH0 KECCAK256 SLOAD AND PUSH2 0x362F JUMPI JUMPDEST PUSH1 0x1 ADD PUSH2 0x35F9 JUMP JUMPDEST SWAP4 PUSH2 0x363B PUSH1 0x1 SWAP2 PUSH2 0x4088 JUMP JUMPDEST SWAP5 SWAP1 POP PUSH2 0x3627 JUMP JUMPDEST POP POP SWAP1 POP DUP4 MLOAD SWAP3 DUP4 MSTORE DUP3 ADD MSTORE RETURN JUMPDEST DUP6 SLOAD DUP5 MSTORE PUSH1 0x1 SWAP6 DUP7 ADD SWAP6 DUP9 SWAP6 POP SWAP4 ADD SWAP3 ADD PUSH2 0x35DD JUMP JUMPDEST DUP3 DUP6 CALLVALUE PUSH2 0x882 JUMPI PUSH1 0x20 CALLDATASIZE PUSH1 0x3 NOT ADD SLT PUSH2 0x882 JUMPI PUSH1 0x20 SWAP2 CALLDATALOAD PUSH0 MSTORE PUSH1 0x12 DUP3 MSTORE DUP1 PUSH0 KECCAK256 SLOAD SWAP1 MLOAD SWAP1 DUP2 MSTORE RETURN JUMPDEST DUP5 CALLVALUE PUSH2 0x882 JUMPI PUSH0 CALLDATASIZE PUSH1 0x3 NOT ADD SLT PUSH2 0x882 JUMPI PUSH1 0x20 SWAP1 PUSH1 0x9 SLOAD SWAP1 MLOAD SWAP1 DUP2 MSTORE RETURN JUMPDEST DUP5 CALLVALUE PUSH2 0x882 JUMPI PUSH0 CALLDATASIZE PUSH1 0x3 NOT ADD SLT PUSH2 0x882 JUMPI PUSH0 SLOAD SWAP1 MLOAD PUSH1 0x1 PUSH1 0x1 PUSH1 0xA0 SHL SUB SWAP1 SWAP2 AND DUP2 MSTORE PUSH1 0x20 SWAP1 RETURN JUMPDEST DUP5 DUP4 CALLVALUE PUSH2 0x882 JUMPI PUSH1 0x20 SWAP1 DUP2 PUSH1 0x3 NOT CALLDATASIZE ADD SLT PUSH2 0x882 JUMPI PUSH0 SWAP1 CALLDATALOAD PUSH0 MSTORE PUSH1 0xA DUP3 MSTORE DUP3 PUSH0 KECCAK256 SWAP3 DUP4 SLOAD PUSH2 0x3701 DUP2 PUSH2 0x428C JUMP JUMPDEST SWAP5 PUSH2 0x370E DUP4 MLOAD SWAP7 DUP8 PUSH2 0x3E16 JUMP JUMPDEST DUP2 DUP7 MSTORE PUSH0 SWAP1 DUP2 MSTORE DUP5 DUP2 KECCAK256 DUP6 DUP1 DUP9 ADD JUMPDEST DUP5 DUP5 LT PUSH2 0x3766 JUMPI POP POP POP POP POP DUP4 MLOAD PUSH0 JUMPDEST DUP6 MLOAD DUP2 LT ISZERO PUSH2 0x640 JUMPI PUSH1 0x80 PUSH2 0x3742 DUP3 DUP9 PUSH2 0x42A4 JUMP JUMPDEST MLOAD ADD MLOAD PUSH2 0x3752 JUMPI JUMPDEST PUSH1 0x1 ADD PUSH2 0x372D JUMP JUMPDEST SWAP3 PUSH2 0x375E PUSH1 0x1 SWAP2 PUSH2 0x4088 JUMP JUMPDEST SWAP4 SWAP1 POP PUSH2 0x374A JUMP JUMPDEST PUSH1 0x1 SWAP2 PUSH1 0x5 SWAP2 PUSH2 0x3775 DUP6 PUSH2 0x40AA JUMP JUMPDEST DUP2 MSTORE ADD SWAP3 ADD SWAP3 ADD SWAP2 SWAP1 DUP7 SWAP1 PUSH2 0x371D JUMP JUMPDEST DUP5 CALLVALUE PUSH2 0x882 JUMPI PUSH1 0x20 SWAP1 PUSH2 0x3797 CALLDATASIZE PUSH2 0x3D36 JUMP JUMPDEST SWAP1 PUSH0 MSTORE PUSH1 0x3 DUP4 MSTORE DUP2 PUSH0 KECCAK256 SWAP1 PUSH0 MSTORE DUP3 MSTORE PUSH1 0xFF DUP2 PUSH0 KECCAK256 SLOAD AND SWAP1 MLOAD SWAP1 ISZERO ISZERO DUP2 MSTORE RETURN JUMPDEST DUP5 DUP4 CALLVALUE PUSH2 0x882 JUMPI PUSH1 0x60 CALLDATASIZE PUSH1 0x3 NOT ADD SLT PUSH2 0x882 JUMPI DUP1 CALLDATALOAD SWAP1 PUSH2 0x37D4 PUSH2 0x3D6A JUMP JUMPDEST SWAP3 PUSH2 0x37DD PUSH2 0x3D7A JUMP JUMPDEST SWAP4 PUSH1 0xFF DUP1 DUP1 SWAP3 AND SWAP6 PUSH1 0x1 DUP8 LT ISZERO DUP1 PUSH2 0x3A8B JUMPI JUMPDEST PUSH2 0x37F9 SWAP1 PUSH2 0x4182 JUMP JUMPDEST AND SWAP5 PUSH2 0x3808 PUSH1 0x5 DUP8 GT ISZERO PUSH2 0x41C5 JUMP JUMPDEST PUSH0 SLOAD DUP4 MLOAD PUSH3 0xB0C809 PUSH1 0xE0 SHL DUP2 MSTORE CALLER DUP7 DUP3 ADD MSTORE SWAP7 PUSH1 0x20 SWAP5 SWAP2 PUSH1 0x24 SWAP2 SWAP1 DUP7 SWAP1 DUP11 SWAP1 DUP5 SWAP1 DUP3 SWAP1 PUSH1 0x1 PUSH1 0x1 PUSH1 0xA0 SHL SUB AND GAS STATICCALL SWAP9 DUP10 ISZERO PUSH2 0x1BE3 JUMPI PUSH0 SWAP10 PUSH2 0x3A5C JUMPI JUMPDEST POP PUSH2 0x3850 DUP10 ISZERO ISZERO PUSH2 0x4211 JUMP JUMPDEST DUP8 PUSH0 MSTORE PUSH1 0xE DUP7 MSTORE DUP3 PUSH0 KECCAK256 DUP10 PUSH0 MSTORE DUP7 MSTORE DUP5 DUP4 PUSH0 KECCAK256 SLOAD AND ISZERO PUSH2 0x3A23 JUMPI DUP8 PUSH0 MSTORE PUSH1 0xF DUP7 MSTORE DUP3 PUSH0 KECCAK256 DUP10 PUSH0 MSTORE DUP7 MSTORE PUSH2 0x388F DUP4 PUSH0 KECCAK256 SLOAD DUP10 PUSH0 MSTORE PUSH1 0xD DUP9 MSTORE DUP5 PUSH0 KECCAK256 PUSH2 0x3F43 JUMP JUMPDEST POP DUP6 PUSH1 0x5 DUP3 ADD SLOAD AND ISZERO PUSH2 0x39E1 JUMPI PUSH1 0x2 ADD SWAP2 DUP3 SLOAD SWAP8 DUP7 DUP1 DUP11 AND SWAP10 PUSH1 0x8 SHR AND SWAP6 PUSH2 0x38B6 DUP2 PUSH2 0x3D4C JUMP JUMPDEST PUSH2 0x38BF DUP2 PUSH2 0x3D4C JUMP JUMPDEST PUSH2 0x38C8 DUP11 PUSH2 0x3D4C JUMP JUMPDEST DUP1 DUP11 EQ DUP1 ISZERO SWAP1 PUSH2 0x39B3 JUMPI JUMPDEST ISZERO PUSH2 0x397F JUMPI DUP1 PUSH2 0x38E5 PUSH2 0x38EB SWAP3 PUSH2 0x3D4C JUMP JUMPDEST DUP6 PUSH2 0x4255 JUMP JUMPDEST PUSH1 0x6 DUP4 LT ISZERO PUSH2 0x396E JUMPI POP POP PUSH2 0x3965 SWAP4 PUSH1 0xA0 SWAP7 SWAP4 DUP4 PUSH2 0x392F PUSH2 0x3957 SWAP5 PUSH32 0xFE65316E02C3DCE1BCA5A3132E022178971267D711982849C99758DA3CFC7ED SWAP12 SWAP10 SWAP7 PUSH2 0x426D JUMP JUMPDEST SLOAD SWAP5 DUP5 DUP7 AND SWAP1 DUP3 MLOAD SWAP9 PUSH2 0x3941 DUP2 PUSH2 0x3D4C JUMP JUMPDEST DUP10 MSTORE PUSH2 0x394C DUP3 PUSH2 0x3D4C JUMP JUMPDEST DUP9 ADD MSTORE DUP7 ADD SWAP1 PUSH2 0x3E7E JUMP JUMPDEST PUSH1 0x60 DUP5 ADD SWAP2 PUSH1 0x8 SHR AND PUSH2 0x3E7E JUMP JUMPDEST TIMESTAMP PUSH1 0x80 DUP3 ADD MSTORE LOG3 STOP JUMPDEST PUSH1 0x21 SWAP1 PUSH4 0x4E487B71 PUSH1 0xE0 SHL PUSH0 MSTORE MSTORE PUSH0 REVERT JUMPDEST POP PUSH1 0x10 PUSH1 0x64 SWAP3 DUP10 DUP8 MLOAD SWAP4 PUSH3 0x461BCD PUSH1 0xE5 SHL DUP6 MSTORE DUP5 ADD MSTORE DUP3 ADD MSTORE PUSH16 0x15985B1D595CC81D5B98DA185B99D959 PUSH1 0x82 SHL PUSH1 0x44 DUP3 ADD MSTORE REVERT JUMPDEST POP PUSH1 0x6 DUP5 LT ISZERO PUSH2 0x39CF JUMPI PUSH1 0x6 DUP8 LT ISZERO PUSH2 0x39CF JUMPI DUP4 DUP8 EQ ISZERO PUSH2 0x38D3 JUMP JUMPDEST POP PUSH1 0x21 SWAP1 PUSH4 0x4E487B71 PUSH1 0xE0 SHL PUSH0 MSTORE MSTORE PUSH0 REVERT JUMPDEST DUP4 MLOAD PUSH3 0x461BCD PUSH1 0xE5 SHL DUP2 MSTORE DUP1 DUP10 ADD DUP9 SWAP1 MSTORE PUSH1 0x1A DUP2 DUP6 ADD MSTORE PUSH32 0x4469737075746520686173206265656E20726574726163746564000000000000 PUSH1 0x44 DUP3 ADD MSTORE PUSH1 0x64 SWAP1 REVERT JUMPDEST DUP3 MLOAD PUSH3 0x461BCD PUSH1 0xE5 SHL DUP2 MSTORE DUP1 DUP9 ADD DUP8 SWAP1 MSTORE PUSH1 0x14 DUP2 DUP5 ADD MSTORE PUSH20 0x4E6F206469737075746520746F206D6F64696679 PUSH1 0x60 SHL PUSH1 0x44 DUP3 ADD MSTORE PUSH1 0x64 SWAP1 REVERT JUMPDEST SWAP1 SWAP9 POP DUP6 DUP2 DUP2 RETURNDATASIZE DUP4 GT PUSH2 0x3A84 JUMPI JUMPDEST PUSH2 0x3A74 DUP2 DUP4 PUSH2 0x3E16 JUMP JUMPDEST DUP2 ADD SUB SLT PUSH2 0x882 JUMPI MLOAD SWAP8 DUP10 PUSH2 0x3844 JUMP JUMPDEST POP RETURNDATASIZE PUSH2 0x3A6A JUMP JUMPDEST POP PUSH1 0x3 DUP8 GT ISZERO PUSH2 0x37F0 JUMP JUMPDEST DUP5 CALLVALUE PUSH2 0x882 JUMPI PUSH1 0xA0 SWAP1 PUSH2 0x3AB1 PUSH2 0x3AAB CALLDATASIZE PUSH2 0x3D36 JUMP JUMPDEST SWAP1 PUSH2 0x40F6 JUMP JUMPDEST SWAP4 SWAP5 SWAP1 SWAP3 DUP2 MLOAD SWAP6 ISZERO ISZERO DUP7 MSTORE PUSH1 0x20 DUP7 ADD MSTORE PUSH2 0x94B DUP3 PUSH2 0x3D4C JUMP JUMPDEST DUP3 DUP6 CALLVALUE PUSH2 0x882 JUMPI PUSH1 0x80 CALLDATASIZE PUSH1 0x3 NOT ADD SLT PUSH2 0x882 JUMPI DUP2 CALLDATALOAD PUSH1 0x24 SWAP2 DUP3 CALLDATALOAD SWAP3 PUSH1 0x44 CALLDATALOAD SWAP5 PUSH1 0x64 CALLDATALOAD SWAP2 PUSH2 0x3B02 PUSH1 0x1 DUP1 PUSH1 0xA0 SHL SUB PUSH1 0x1 SLOAD AND CALLER EQ PUSH2 0x404F JUMP JUMPDEST DUP5 ISZERO PUSH2 0x3D02 JUMPI DUP6 ISZERO PUSH2 0x3CCF JUMPI DUP7 ISZERO PUSH2 0x3C9A JUMPI DUP5 PUSH0 MSTORE PUSH1 0x20 SWAP2 PUSH1 0x11 DUP4 MSTORE DUP5 PUSH0 KECCAK256 DUP8 PUSH0 MSTORE DUP4 MSTORE DUP5 PUSH0 KECCAK256 SLOAD PUSH2 0x3C68 JUMPI DUP6 PUSH0 MSTORE PUSH1 0x10 DUP4 MSTORE DUP5 PUSH0 KECCAK256 SLOAD PUSH1 0x1 DUP2 ADD DUP1 SWAP2 GT PUSH2 0x3C56 JUMPI DUP7 PUSH0 MSTORE PUSH1 0x11 DUP5 MSTORE DUP6 PUSH0 KECCAK256 DUP9 PUSH0 MSTORE DUP5 MSTORE DUP6 PUSH0 KECCAK256 SSTORE DUP6 PUSH0 MSTORE PUSH1 0x10 DUP4 MSTORE DUP5 PUSH0 KECCAK256 DUP6 MLOAD PUSH2 0x3B6C DUP2 PUSH2 0x3D9A JUMP JUMPDEST DUP9 DUP2 MSTORE DUP5 DUP2 ADD DUP11 DUP2 MSTORE DUP8 DUP3 ADD SWAP1 DUP8 DUP3 MSTORE PUSH1 0x60 DUP4 ADD SWAP3 TIMESTAMP DUP5 MSTORE PUSH1 0x80 DUP2 ADD SWAP5 PUSH1 0x1 DUP7 MSTORE DUP1 SLOAD SWAP1 PUSH1 0x1 PUSH1 0x40 SHL DUP3 LT ISZERO PUSH2 0x3C44 JUMPI SWAP1 PUSH2 0x3BAC SWAP2 PUSH1 0x1 DUP3 ADD DUP2 SSTORE PUSH2 0x4036 JUMP JUMPDEST SWAP8 SWAP1 SWAP8 PUSH2 0x3C33 JUMPI POP MLOAD DUP7 SSTORE MLOAD PUSH1 0x1 DUP7 ADD SSTORE MLOAD PUSH1 0x2 DUP6 ADD SSTORE MLOAD PUSH1 0x3 DUP5 ADD SSTORE MLOAD SWAP2 ADD DUP1 SLOAD PUSH1 0xFF NOT AND SWAP2 ISZERO ISZERO PUSH1 0xFF AND SWAP2 SWAP1 SWAP2 OR SWAP1 SSTORE PUSH32 0xD975A013E674F51FF6B9D1144095CBE8D88C8A4EBAC520FFDCE1B92EEE22E99B SWAP3 SWAP2 SWAP1 DUP5 PUSH0 MSTORE PUSH1 0x12 DUP2 MSTORE DUP3 PUSH0 KECCAK256 PUSH2 0x3C16 DUP2 SLOAD PUSH2 0x4088 JUMP JUMPDEST SWAP1 SSTORE PUSH2 0x3C23 PUSH1 0x17 SLOAD PUSH2 0x4088 JUMP JUMPDEST PUSH1 0x17 SSTORE DUP3 MLOAD SWAP2 DUP3 MSTORE TIMESTAMP SWAP1 DUP3 ADD MSTORE LOG4 STOP JUMPDEST PUSH4 0x4E487B71 PUSH1 0xE0 SHL PUSH0 SWAP1 DUP2 MSTORE DUP1 DUP9 MSTORE REVERT JUMPDEST DUP9 PUSH1 0x41 DUP10 PUSH4 0x4E487B71 PUSH1 0xE0 SHL PUSH0 MSTORE MSTORE PUSH0 REVERT JUMPDEST POP PUSH1 0x11 SWAP1 PUSH4 0x4E487B71 PUSH1 0xE0 SHL PUSH0 MSTORE MSTORE PUSH0 REVERT JUMPDEST PUSH1 0xF PUSH1 0x64 SWAP3 DUP5 DUP8 MLOAD SWAP4 PUSH3 0x461BCD PUSH1 0xE5 SHL DUP6 MSTORE DUP5 ADD MSTORE DUP3 ADD MSTORE PUSH15 0x105B1C9958591E48199B1859D9D959 PUSH1 0x8A SHL PUSH1 0x44 DUP3 ADD MSTORE REVERT JUMPDEST SWAP1 PUSH1 0x10 PUSH1 0x64 SWAP3 PUSH1 0x20 DUP7 MLOAD SWAP4 PUSH3 0x461BCD PUSH1 0xE5 SHL DUP6 MSTORE DUP5 ADD MSTORE DUP3 ADD MSTORE PUSH16 0x24B73B30B634B210383937BB34B232B9 PUSH1 0x81 SHL PUSH1 0x44 DUP3 ADD MSTORE REVERT JUMPDEST SWAP1 PUSH1 0xE PUSH1 0x64 SWAP3 PUSH1 0x20 DUP7 MLOAD SWAP4 PUSH3 0x461BCD PUSH1 0xE5 SHL DUP6 MSTORE DUP5 ADD MSTORE DUP3 ADD MSTORE PUSH14 0x125B9D985B1A59081C9958DBDC99 PUSH1 0x92 SHL PUSH1 0x44 DUP3 ADD MSTORE REVERT JUMPDEST SWAP1 PUSH1 0xF PUSH1 0x64 SWAP3 PUSH1 0x20 DUP7 MLOAD SWAP4 PUSH3 0x461BCD PUSH1 0xE5 SHL DUP6 MSTORE DUP5 ADD MSTORE DUP3 ADD MSTORE PUSH15 0x125B9D985B1A59081CDD589A9958DD PUSH1 0x8A SHL PUSH1 0x44 DUP3 ADD MSTORE REVERT JUMPDEST PUSH1 0x40 SWAP1 PUSH1 0x3 NOT ADD SLT PUSH2 0x882 JUMPI PUSH1 0x4 CALLDATALOAD SWAP1 PUSH1 0x24 CALLDATALOAD SWAP1 JUMP JUMPDEST PUSH1 0x4 GT ISZERO PUSH2 0x3D56 JUMPI JUMP JUMPDEST PUSH4 0x4E487B71 PUSH1 0xE0 SHL PUSH0 MSTORE PUSH1 0x21 PUSH1 0x4 MSTORE PUSH1 0x24 PUSH0 REVERT JUMPDEST PUSH1 0x24 CALLDATALOAD SWAP1 PUSH1 0xFF DUP3 AND DUP3 SUB PUSH2 0x882 JUMPI JUMP JUMPDEST PUSH1 0x44 CALLDATALOAD SWAP1 PUSH1 0xFF DUP3 AND DUP3 SUB PUSH2 0x882 JUMPI JUMP JUMPDEST PUSH1 0x64 CALLDATALOAD SWAP1 PUSH1 0xFF DUP3 AND DUP3 SUB PUSH2 0x882 JUMPI JUMP JUMPDEST PUSH1 0xA0 DUP2 ADD SWAP1 DUP2 LT PUSH8 0xFFFFFFFFFFFFFFFF DUP3 GT OR PUSH2 0x3DB6 JUMPI PUSH1 0x40 MSTORE JUMP JUMPDEST PUSH4 0x4E487B71 PUSH1 0xE0 SHL PUSH0 MSTORE PUSH1 0x41 PUSH1 0x4 MSTORE PUSH1 0x24 PUSH0 REVERT JUMPDEST PUSH1 0xE0 DUP2 ADD SWAP1 DUP2 LT PUSH8 0xFFFFFFFFFFFFFFFF DUP3 GT OR PUSH2 0x3DB6 JUMPI PUSH1 0x40 MSTORE JUMP JUMPDEST PUSH1 0xC0 DUP2 ADD SWAP1 DUP2 LT PUSH8 0xFFFFFFFFFFFFFFFF DUP3 GT OR PUSH2 0x3DB6 JUMPI PUSH1 0x40 MSTORE JUMP JUMPDEST PUSH8 0xFFFFFFFFFFFFFFFF DUP2 GT PUSH2 0x3DB6 JUMPI PUSH1 0x40 MSTORE JUMP JUMPDEST SWAP1 PUSH1 0x1F DUP1 NOT SWAP2 ADD AND DUP2 ADD SWAP1 DUP2 LT PUSH8 0xFFFFFFFFFFFFFFFF DUP3 GT OR PUSH2 0x3DB6 JUMPI PUSH1 0x40 MSTORE JUMP JUMPDEST SWAP3 SWAP2 SWAP3 PUSH8 0xFFFFFFFFFFFFFFFF DUP3 GT PUSH2 0x3DB6 JUMPI PUSH1 0x40 MLOAD SWAP2 PUSH2 0x3E62 PUSH1 0x1F DUP3 ADD PUSH1 0x1F NOT AND PUSH1 0x20 ADD DUP5 PUSH2 0x3E16 JUMP JUMPDEST DUP3 SWAP5 DUP2 DUP5 MSTORE DUP2 DUP4 ADD GT PUSH2 0x882 JUMPI DUP3 DUP2 PUSH1 0x20 SWAP4 DUP5 PUSH0 SWAP7 ADD CALLDATACOPY ADD ADD MSTORE JUMP JUMPDEST SWAP1 PUSH1 0x6 DUP3 LT ISZERO PUSH2 0x3D56 JUMPI MSTORE JUMP JUMPDEST SWAP2 SWAP1 DUP3 MLOAD SWAP3 DUP4 DUP3 MSTORE PUSH0 JUMPDEST DUP5 DUP2 LT PUSH2 0x3EB5 JUMPI POP POP DUP3 PUSH0 PUSH1 0x20 DUP1 SWAP5 SWAP6 DUP5 ADD ADD MSTORE PUSH1 0x1F DUP1 NOT SWAP2 ADD AND ADD ADD SWAP1 JUMP JUMPDEST PUSH1 0x20 DUP2 DUP4 ADD DUP2 ADD MLOAD DUP5 DUP4 ADD DUP3 ADD MSTORE ADD PUSH2 0x3E95 JUMP JUMPDEST PUSH1 0x4 CALLDATALOAD SWAP1 PUSH1 0x1 PUSH1 0x1 PUSH1 0xA0 SHL SUB DUP3 AND DUP3 SUB PUSH2 0x882 JUMPI JUMP JUMPDEST PUSH1 0x20 SWAP1 PUSH1 0x20 PUSH1 0x40 DUP2 DUP4 ADD SWAP3 DUP3 DUP2 MSTORE DUP6 MLOAD DUP1 SWAP5 MSTORE ADD SWAP4 ADD SWAP2 PUSH0 JUMPDEST DUP3 DUP2 LT PUSH2 0x3F06 JUMPI POP POP POP POP SWAP1 JUMP JUMPDEST DUP4 MLOAD DUP6 MSTORE SWAP4 DUP2 ADD SWAP4 SWAP3 DUP2 ADD SWAP3 PUSH1 0x1 ADD PUSH2 0x3EF8 JUMP JUMPDEST DUP1 SLOAD DUP3 LT ISZERO PUSH2 0x3F2F JUMPI PUSH0 MSTORE PUSH1 0x20 PUSH0 KECCAK256 ADD SWAP1 PUSH0 SWAP1 JUMP JUMPDEST PUSH4 0x4E487B71 PUSH1 0xE0 SHL PUSH0 MSTORE PUSH1 0x32 PUSH1 0x4 MSTORE PUSH1 0x24 PUSH0 REVERT JUMPDEST DUP1 SLOAD DUP3 LT ISZERO PUSH2 0x3F2F JUMPI PUSH0 MSTORE PUSH1 0x6 PUSH1 0x20 PUSH0 KECCAK256 SWAP2 MUL ADD SWAP1 PUSH0 SWAP1 JUMP JUMPDEST SWAP1 PUSH1 0x1 DUP3 DUP2 SHR SWAP3 AND DUP1 ISZERO PUSH2 0x3F8A JUMPI JUMPDEST PUSH1 0x20 DUP4 LT EQ PUSH2 0x3F76 JUMPI JUMP JUMPDEST PUSH4 0x4E487B71 PUSH1 0xE0 SHL PUSH0 MSTORE PUSH1 0x22 PUSH1 0x4 MSTORE PUSH1 0x24 PUSH0 REVERT JUMPDEST SWAP2 PUSH1 0x7F AND SWAP2 PUSH2 0x3F6B JUMP JUMPDEST SWAP1 PUSH1 0x40 MLOAD SWAP2 DUP3 PUSH0 DUP3 SLOAD PUSH2 0x3FA6 DUP2 PUSH2 0x3F5C JUMP JUMPDEST SWAP1 DUP2 DUP5 MSTORE PUSH1 0x20 SWAP5 PUSH1 0x1 SWAP2 PUSH1 0x1 DUP2 AND SWAP1 DUP2 PUSH0 EQ PUSH2 0x4014 JUMPI POP PUSH1 0x1 EQ PUSH2 0x3FD6 JUMPI JUMPDEST POP POP POP PUSH2 0x3FD4 SWAP3 POP SUB DUP4 PUSH2 0x3E16 JUMP JUMPDEST JUMP JUMPDEST PUSH0 SWAP1 DUP2 MSTORE DUP6 DUP2 KECCAK256 SWAP6 SWAP4 POP SWAP2 SWAP1 JUMPDEST DUP2 DUP4 LT PUSH2 0x3FFC JUMPI POP POP PUSH2 0x3FD4 SWAP4 POP DUP3 ADD ADD PUSH0 DUP1 DUP1 PUSH2 0x3FC5 JUMP JUMPDEST DUP6 SLOAD DUP9 DUP5 ADD DUP6 ADD MSTORE SWAP5 DUP6 ADD SWAP5 DUP8 SWAP5 POP SWAP2 DUP4 ADD SWAP2 PUSH2 0x3FE3 JUMP JUMPDEST SWAP3 POP POP POP PUSH2 0x3FD4 SWAP5 SWAP3 POP PUSH1 0xFF NOT AND DUP3 DUP5 ADD MSTORE ISZERO ISZERO PUSH1 0x5 SHL DUP3 ADD ADD PUSH0 DUP1 DUP1 PUSH2 0x3FC5 JUMP JUMPDEST DUP1 SLOAD DUP3 LT ISZERO PUSH2 0x3F2F JUMPI PUSH0 MSTORE PUSH1 0x5 PUSH1 0x20 PUSH0 KECCAK256 SWAP2 MUL ADD SWAP1 PUSH0 SWAP1 JUMP JUMPDEST ISZERO PUSH2 0x4056 JUMPI JUMP JUMPDEST PUSH1 0x40 MLOAD PUSH3 0x461BCD PUSH1 0xE5 SHL DUP2 MSTORE PUSH1 0x20 PUSH1 0x4 DUP3 ADD MSTORE PUSH1 0xA PUSH1 0x24 DUP3 ADD MSTORE PUSH10 0x27B7363C9030B236B4B7 PUSH1 0xB1 SHL PUSH1 0x44 DUP3 ADD MSTORE PUSH1 0x64 SWAP1 REVERT JUMPDEST PUSH0 NOT DUP2 EQ PUSH2 0x4096 JUMPI PUSH1 0x1 ADD SWAP1 JUMP JUMPDEST PUSH4 0x4E487B71 PUSH1 0xE0 SHL PUSH0 MSTORE PUSH1 0x11 PUSH1 0x4 MSTORE PUSH1 0x24 PUSH0 REVERT JUMPDEST SWAP1 PUSH1 0x40 MLOAD PUSH2 0x40B7 DUP2 PUSH2 0x3D9A JUMP JUMPDEST PUSH1 0x80 PUSH1 0xFF PUSH1 0x4 DUP4 SWAP6 DUP1 SLOAD DUP6 MSTORE PUSH1 0x1 DUP2 ADD SLOAD PUSH1 0x20 DUP7 ADD MSTORE DUP3 PUSH1 0x2 DUP3 ADD SLOAD AND PUSH2 0x40DD DUP2 PUSH2 0x3D4C JUMP JUMPDEST PUSH1 0x40 DUP7 ADD MSTORE PUSH1 0x3 DUP2 ADD SLOAD PUSH1 0x60 DUP7 ADD MSTORE ADD SLOAD AND ISZERO ISZERO SWAP2 ADD MSTORE JUMP JUMPDEST SWAP2 SWAP1 SWAP2 DUP1 PUSH0 MSTORE PUSH1 0x20 SWAP1 PUSH1 0xB DUP3 MSTORE PUSH1 0x40 SWAP4 DUP5 PUSH0 KECCAK256 DUP2 PUSH0 MSTORE DUP4 MSTORE PUSH1 0xFF DUP6 PUSH0 KECCAK256 SLOAD AND ISZERO PUSH2 0x4172 JUMPI DUP2 PUSH2 0x4144 SWAP2 PUSH2 0x414A SWAP4 PUSH0 MSTORE PUSH1 0xC DUP6 MSTORE DUP7 PUSH0 KECCAK256 SWAP1 PUSH0 MSTORE DUP5 MSTORE DUP6 PUSH0 KECCAK256 SLOAD SWAP1 PUSH0 MSTORE PUSH1 0xA DUP5 MSTORE DUP6 PUSH0 KECCAK256 PUSH2 0x4036 JUMP JUMPDEST POP PUSH2 0x40AA JUMP JUMPDEST SWAP1 DUP2 ADD MLOAD SWAP3 DUP2 ADD MLOAD SWAP2 PUSH2 0x415C DUP4 PUSH2 0x3D4C JUMP JUMPDEST PUSH1 0x80 PUSH1 0x60 DUP4 ADD MLOAD SWAP3 ADD MLOAD ISZERO ISZERO SWAP1 PUSH1 0x1 SWAP5 SWAP4 SWAP3 SWAP2 SWAP1 JUMP JUMPDEST POP PUSH0 SWAP4 POP DUP4 SWAP3 DUP4 SWAP3 POP DUP3 SWAP2 POP DUP2 SWAP1 JUMP JUMPDEST ISZERO PUSH2 0x4189 JUMPI JUMP JUMPDEST PUSH1 0x40 MLOAD PUSH3 0x461BCD PUSH1 0xE5 SHL DUP2 MSTORE PUSH1 0x20 PUSH1 0x4 DUP3 ADD MSTORE PUSH1 0x14 PUSH1 0x24 DUP3 ADD MSTORE PUSH20 0x5365766572697479206D75737420626520312D33 PUSH1 0x60 SHL PUSH1 0x44 DUP3 ADD MSTORE PUSH1 0x64 SWAP1 REVERT JUMPDEST ISZERO PUSH2 0x41CC JUMPI JUMP JUMPDEST PUSH1 0x40 MLOAD PUSH3 0x461BCD PUSH1 0xE5 SHL DUP2 MSTORE PUSH1 0x20 PUSH1 0x4 DUP3 ADD MSTORE PUSH1 0x17 PUSH1 0x24 DUP3 ADD MSTORE PUSH32 0x43756C706162696C697479206D75737420626520302D35000000000000000000 PUSH1 0x44 DUP3 ADD MSTORE PUSH1 0x64 SWAP1 REVERT JUMPDEST ISZERO PUSH2 0x4218 JUMPI JUMP JUMPDEST PUSH1 0x40 MLOAD PUSH3 0x461BCD PUSH1 0xE5 SHL DUP2 MSTORE PUSH1 0x20 PUSH1 0x4 DUP3 ADD MSTORE PUSH1 0x15 PUSH1 0x24 DUP3 ADD MSTORE PUSH21 0x15D85B1B195D081B9BDD081C9959DA5CDD195C9959 PUSH1 0x5A SHL PUSH1 0x44 DUP3 ADD MSTORE PUSH1 0x64 SWAP1 REVERT JUMPDEST SWAP1 PUSH2 0x425F DUP2 PUSH2 0x3D4C JUMP JUMPDEST PUSH1 0xFF DUP1 NOT DUP4 SLOAD AND SWAP2 AND OR SWAP1 SSTORE JUMP JUMPDEST SWAP1 PUSH1 0x6 DUP2 LT ISZERO PUSH2 0x3D56 JUMPI PUSH2 0xFF00 DUP3 SLOAD SWAP2 PUSH1 0x8 SHL AND SWAP1 PUSH2 0xFF00 NOT AND OR SWAP1 SSTORE JUMP JUMPDEST PUSH8 0xFFFFFFFFFFFFFFFF DUP2 GT PUSH2 0x3DB6 JUMPI PUSH1 0x5 SHL PUSH1 0x20 ADD SWAP1 JUMP JUMPDEST DUP1 MLOAD DUP3 LT ISZERO PUSH2 0x3F2F JUMPI PUSH1 0x20 SWAP2 PUSH1 0x5 SHL ADD ADD SWAP1 JUMP JUMPDEST SWAP1 DUP2 PUSH1 0x20 SWAP2 SUB SLT PUSH2 0x882 JUMPI MLOAD DUP1 ISZERO ISZERO DUP2 SUB PUSH2 0x882 JUMPI SWAP1 JUMP JUMPDEST ISZERO PUSH2 0x42D7 JUMPI JUMP JUMPDEST PUSH1 0x40 MLOAD PUSH3 0x461BCD PUSH1 0xE5 SHL DUP2 MSTORE PUSH1 0x20 PUSH1 0x4 DUP3 ADD MSTORE PUSH1 0x14 PUSH1 0x24 DUP3 ADD MSTORE PUSH20 0x2737BA1030B71030B1BA34BB329036B2B6B132B9 PUSH1 0x61 SHL PUSH1 0x44 DUP3 ADD MSTORE PUSH1 0x64 SWAP1 REVERT JUMPDEST ISZERO PUSH2 0x431A JUMPI JUMP JUMPDEST PUSH1 0x40 MLOAD PUSH3 0x461BCD PUSH1 0xE5 SHL DUP2 MSTORE PUSH1 0x20 PUSH1 0x4 DUP3 ADD MSTORE PUSH1 0x18 PUSH1 0x24 DUP3 ADD MSTORE PUSH32 0x4E6F2061636365737320746F2074686973207265636F72640000000000000000 PUSH1 0x44 DUP3 ADD MSTORE PUSH1 0x64 SWAP1 REVERT JUMPDEST ISZERO PUSH2 0x4366 JUMPI JUMP JUMPDEST PUSH1 0x40 MLOAD PUSH3 0x461BCD PUSH1 0xE5 SHL DUP2 MSTORE PUSH1 0x20 PUSH1 0x4 DUP3 ADD MSTORE PUSH1 0x19 PUSH1 0x24 DUP3 ADD MSTORE PUSH32 0x5265636F72642049442063616E6E6F7420626520656D70747900000000000000 PUSH1 0x44 DUP3 ADD MSTORE PUSH1 0x64 SWAP1 REVERT JUMPDEST ISZERO PUSH2 0x43B2 JUMPI JUMP JUMPDEST PUSH1 0x40 MLOAD PUSH3 0x461BCD PUSH1 0xE5 SHL DUP2 MSTORE PUSH1 0x20 PUSH1 0x4 DUP3 ADD MSTORE PUSH1 0x1B PUSH1 0x24 DUP3 ADD MSTORE PUSH32 0x5265636F726420686173682063616E6E6F7420626520656D7074790000000000 PUSH1 0x44 DUP3 ADD MSTORE PUSH1 0x64 SWAP1 REVERT JUMPDEST ISZERO PUSH2 0x43FE JUMPI JUMP JUMPDEST PUSH1 0x40 MLOAD PUSH3 0x461BCD PUSH1 0xE5 SHL DUP2 MSTORE PUSH1 0x20 PUSH1 0x4 DUP3 ADD MSTORE PUSH1 0x23 PUSH1 0x24 DUP3 ADD MSTORE PUSH32 0x4861736820646F6573206E6F742062656C6F6E6720746F207468697320726563 PUSH1 0x44 DUP3 ADD MSTORE PUSH3 0x1BDC99 PUSH1 0xEA SHL PUSH1 0x64 DUP3 ADD MSTORE PUSH1 0x84 SWAP1 REVERT JUMPDEST PUSH1 0x6 DUP3 LT ISZERO PUSH2 0x3D56 JUMPI MSTORE JUMP JUMPDEST DUP1 SLOAD PUSH1 0x1 PUSH1 0x40 SHL DUP2 LT ISZERO PUSH2 0x3DB6 JUMPI PUSH2 0x4478 SWAP2 PUSH1 0x1 DUP3 ADD DUP2 SSTORE PUSH2 0x3F1A JUMP JUMPDEST DUP2 SWAP3 SWAP2 SLOAD SWAP1 PUSH1 0x3 SHL SWAP2 DUP3 SHL SWAP2 PUSH0 NOT SWAP1 SHL NOT AND OR SWAP1 SSTORE JUMP JUMPDEST SWAP1 PUSH1 0x40 MLOAD PUSH2 0x449C DUP2 PUSH2 0x3DCA JUMP JUMPDEST PUSH1 0xC0 PUSH1 0xFF PUSH1 0x5 DUP4 SWAP6 DUP1 SLOAD DUP6 MSTORE PUSH1 0x1 DUP2 ADD SLOAD PUSH1 0x20 DUP7 ADD MSTORE PUSH2 0x44D9 DUP4 PUSH1 0x2 DUP4 ADD SLOAD DUP2 DUP2 AND PUSH2 0x44C7 DUP2 PUSH2 0x3D4C JUMP JUMPDEST PUSH1 0x40 DUP10 ADD MSTORE PUSH1 0x8 SHR AND PUSH1 0x60 DUP8 ADD PUSH2 0x444F JUMP JUMPDEST PUSH2 0x44E5 PUSH1 0x3 DUP3 ADD PUSH2 0x3F94 JUMP JUMPDEST PUSH1 0x80 DUP7 ADD MSTORE PUSH1 0x4 DUP2 ADD SLOAD PUSH1 0xA0 DUP7 ADD MSTORE ADD SLOAD AND ISZERO ISZERO SWAP2 ADD MSTORE JUMP JUMPDEST SWAP1 PUSH1 0x40 MLOAD PUSH2 0x450B DUP2 PUSH2 0x3D9A JUMP JUMPDEST PUSH1 0x80 PUSH1 0xFF PUSH1 0x4 DUP4 SWAP6 DUP1 SLOAD DUP6 MSTORE PUSH1 0x1 DUP2 ADD SLOAD PUSH1 0x20 DUP7 ADD MSTORE PUSH1 0x2 DUP2 ADD SLOAD PUSH1 0x40 DUP7 ADD MSTORE PUSH1 0x3 DUP2 ADD SLOAD PUSH1 0x60 DUP7 ADD MSTORE ADD SLOAD AND ISZERO ISZERO SWAP2 ADD MSTORE JUMP JUMPDEST SWAP1 DUP2 PUSH0 MSTORE PUSH1 0x11 PUSH1 0x20 MSTORE PUSH1 0x40 PUSH0 KECCAK256 SWAP1 PUSH0 MSTORE PUSH1 0x20 MSTORE PUSH1 0x40 PUSH0 KECCAK256 SLOAD SWAP1 DUP2 ISZERO PUSH2 0x45A7 JUMPI PUSH0 MSTORE PUSH1 0x10 PUSH1 0x20 MSTORE PUSH1 0x40 PUSH0 KECCAK256 PUSH0 NOT DUP3 ADD SWAP2 DUP3 GT PUSH2 0x4096 JUMPI PUSH2 0x4587 SWAP2 PUSH2 0x4581 SWAP2 PUSH2 0x4036 JUMP JUMPDEST POP PUSH2 0x44FE JUMP JUMPDEST PUSH1 0x80 DUP2 ADD MLOAD PUSH1 0x20 DUP3 ADD MLOAD PUSH1 0x40 DUP4 ADD MLOAD PUSH1 0x60 SWAP1 SWAP4 ADD MLOAD PUSH1 0x1 SWAP5 SWAP3 ISZERO ISZERO SWAP4 SWAP2 SWAP3 JUMP JUMPDEST POP POP PUSH0 SWAP1 PUSH0 SWAP1 PUSH0 SWAP1 PUSH0 SWAP1 PUSH0 SWAP1 JUMP JUMPDEST SWAP2 SWAP1 SWAP2 DUP1 PUSH0 MSTORE PUSH1 0x20 SWAP1 PUSH1 0xE DUP3 MSTORE PUSH1 0x40 SWAP4 DUP5 PUSH0 KECCAK256 DUP2 PUSH0 MSTORE DUP4 MSTORE PUSH1 0xFF DUP6 PUSH0 KECCAK256 SLOAD AND ISZERO PUSH2 0x4648 JUMPI DUP2 PUSH2 0x4603 SWAP2 PUSH2 0x4609 SWAP4 PUSH0 MSTORE PUSH1 0xF DUP6 MSTORE DUP7 PUSH0 KECCAK256 SWAP1 PUSH0 MSTORE DUP5 MSTORE DUP6 PUSH0 KECCAK256 SLOAD SWAP1 PUSH0 MSTORE PUSH1 0xD DUP5 MSTORE DUP6 PUSH0 KECCAK256 PUSH2 0x3F43 JUMP JUMPDEST POP PUSH2 0x448F JUMP JUMPDEST SWAP1 DUP2 ADD MLOAD SWAP3 DUP2 ADD MLOAD SWAP2 PUSH2 0x461B DUP4 PUSH2 0x3D4C JUMP JUMPDEST PUSH1 0x60 DUP3 ADD MLOAD SWAP2 PUSH1 0x6 DUP4 LT ISZERO PUSH2 0x3D56 JUMPI PUSH1 0x80 DUP2 ADD MLOAD SWAP2 PUSH1 0xC0 PUSH1 0xA0 DUP4 ADD MLOAD SWAP3 ADD MLOAD ISZERO ISZERO SWAP1 PUSH1 0x1 SWAP7 SWAP6 SWAP5 SWAP4 SWAP3 SWAP2 SWAP1 JUMP JUMPDEST POP POP PUSH0 SWAP3 PUSH0 SWAP3 PUSH0 SWAP3 PUSH0 SWAP3 DUP1 MLOAD SWAP2 DUP3 ADD SWAP1 DUP3 DUP3 LT PUSH8 0xFFFFFFFFFFFFFFFF DUP4 GT OR PUSH2 0x3DB6 JUMPI MSTORE PUSH0 DUP2 MSTORE SWAP1 PUSH0 SWAP1 PUSH0 SWAP1 JUMP JUMPDEST ISZERO PUSH2 0x467D JUMPI JUMP JUMPDEST PUSH1 0x40 MLOAD PUSH3 0x461BCD PUSH1 0xE5 SHL DUP2 MSTORE PUSH1 0x20 PUSH1 0x4 DUP3 ADD MSTORE PUSH1 0x11 PUSH1 0x24 DUP3 ADD MSTORE PUSH17 0x105B1C9958591E481C995D1C9858DD1959 PUSH1 0x7A SHL PUSH1 0x44 DUP3 ADD MSTORE PUSH1 0x64 SWAP1 REVERT JUMPDEST ISZERO PUSH2 0x46BD JUMPI JUMP JUMPDEST PUSH1 0x40 MLOAD PUSH3 0x461BCD PUSH1 0xE5 SHL DUP2 MSTORE PUSH1 0x20 PUSH1 0x4 DUP3 ADD MSTORE PUSH1 0xF PUSH1 0x24 DUP3 ADD MSTORE PUSH15 0x496E76616C69642061646472657373 PUSH1 0x88 SHL PUSH1 0x44 DUP3 ADD MSTORE PUSH1 0x64 SWAP1 REVERT JUMPDEST ISZERO PUSH2 0x46FB JUMPI JUMP JUMPDEST PUSH1 0x40 MLOAD PUSH3 0x461BCD PUSH1 0xE5 SHL DUP2 MSTORE PUSH1 0x20 PUSH1 0x4 DUP3 ADD MSTORE PUSH1 0x11 PUSH1 0x24 DUP3 ADD MSTORE PUSH17 0x4C6576656C206D75737420626520312D33 PUSH1 0x78 SHL PUSH1 0x44 DUP3 ADD MSTORE PUSH1 0x64 SWAP1 REVERT JUMPDEST PUSH0 SLOAD PUSH1 0x40 MLOAD PUSH3 0xB0C809 PUSH1 0xE0 SHL DUP2 MSTORE CALLER PUSH1 0x4 DUP3 ADD MSTORE PUSH1 0x20 SWAP2 PUSH1 0x1 PUSH1 0x1 PUSH1 0xA0 SHL SUB AND SWAP1 DUP3 DUP2 PUSH1 0x24 DUP2 DUP6 GAS STATICCALL SWAP1 DUP2 ISZERO PUSH2 0x482A JUMPI PUSH0 SWAP2 PUSH2 0x4845 JUMPI JUMPDEST POP PUSH2 0x4777 DUP2 ISZERO ISZERO PUSH2 0x4211 JUMP JUMPDEST DUP4 ISZERO DUP1 ISZERO PUSH2 0x483C JUMPI JUMPDEST PUSH2 0x4835 JUMPI DUP3 SWAP1 PUSH1 0x44 PUSH1 0x40 MLOAD DUP1 SWAP5 DUP2 SWAP4 PUSH4 0x557EE54F PUSH1 0xE0 SHL DUP4 MSTORE DUP9 PUSH1 0x4 DUP5 ADD MSTORE PUSH1 0x24 DUP4 ADD MSTORE GAS STATICCALL SWAP1 DUP2 ISZERO PUSH2 0x482A JUMPI PUSH0 SWAP2 PUSH2 0x480D JUMPI JUMPDEST POP ISZERO PUSH2 0x47BE JUMPI POP SWAP1 JUMP JUMPDEST PUSH1 0x84 SWAP1 PUSH1 0x40 MLOAD SWAP1 PUSH3 0x461BCD PUSH1 0xE5 SHL DUP3 MSTORE PUSH1 0x4 DUP3 ADD MSTORE PUSH1 0x22 PUSH1 0x24 DUP3 ADD MSTORE PUSH32 0x4E6F74206120636F6E74726F6C6C657220666F722074686973206964656E7469 PUSH1 0x44 DUP3 ADD MSTORE PUSH2 0x7479 PUSH1 0xF0 SHL PUSH1 0x64 DUP3 ADD MSTORE REVERT JUMPDEST PUSH2 0x4824 SWAP2 POP DUP3 RETURNDATASIZE DUP5 GT PUSH2 0xD7B JUMPI PUSH2 0xD6D DUP2 DUP4 PUSH2 0x3E16 JUMP JUMPDEST PUSH0 PUSH2 0x47B4 JUMP JUMPDEST PUSH1 0x40 MLOAD RETURNDATASIZE PUSH0 DUP3 RETURNDATACOPY RETURNDATASIZE SWAP1 REVERT JUMPDEST SWAP3 POP POP POP SWAP1 JUMP JUMPDEST POP DUP1 DUP5 EQ PUSH2 0x4780 JUMP JUMPDEST SWAP1 POP DUP3 DUP2 DUP2 RETURNDATASIZE DUP4 GT PUSH2 0x486B JUMPI JUMPDEST PUSH2 0x485C DUP2 DUP4 PUSH2 0x3E16 JUMP JUMPDEST DUP2 ADD SUB SLT PUSH2 0x882 JUMPI MLOAD PUSH0 PUSH2 0x476B JUMP JUMPDEST POP RETURNDATASIZE PUSH2 0x4852 JUMP JUMPDEST SWAP2 SWAP3 DUP2 PUSH0 MSTORE PUSH1 0x20 SWAP1 PUSH1 0xA DUP3 MSTORE PUSH1 0x40 SWAP1 DUP2 PUSH0 KECCAK256 SWAP3 PUSH1 0xFF DUP5 SLOAD SWAP3 AND SWAP2 PUSH2 0x4895 DUP4 PUSH2 0x3D4C JUMP JUMPDEST DUP4 MLOAD SWAP5 PUSH2 0x48A1 DUP7 PUSH2 0x3D9A JUMP JUMPDEST DUP9 DUP7 MSTORE DUP3 DUP7 ADD SWAP1 DUP9 DUP3 MSTORE DUP6 DUP8 ADD SWAP2 PUSH2 0x48B8 DUP7 PUSH2 0x3D4C JUMP JUMPDEST DUP6 DUP4 MSTORE PUSH1 0x60 DUP9 ADD SWAP2 TIMESTAMP DUP4 MSTORE PUSH1 0x80 DUP10 ADD SWAP1 PUSH1 0x1 DUP3 MSTORE PUSH1 0x1 PUSH1 0x40 SHL DUP7 LT ISZERO PUSH2 0x3DB6 JUMPI DUP6 PUSH2 0x48E8 SWAP2 PUSH1 0x1 DUP3 ADD DUP2 SSTORE PUSH2 0x4036 JUMP JUMPDEST SWAP4 SWAP1 SWAP4 PUSH2 0x49C0 JUMPI PUSH2 0x4937 PUSH2 0x4953 SWAP6 PUSH1 0x4 SWAP5 PUSH32 0x9F44978447988782BA02B3E977811604129DC2032D4CFC97AAADACB68BEA9F35 SWAP13 MLOAD DUP8 SSTORE MLOAD PUSH1 0x1 DUP8 ADD SSTORE MLOAD PUSH2 0x492E DUP2 PUSH2 0x3D4C JUMP JUMPDEST PUSH1 0x2 DUP7 ADD PUSH2 0x4255 JUMP JUMPDEST MLOAD PUSH1 0x3 DUP5 ADD SSTORE MLOAD ISZERO ISZERO SWAP2 ADD SWAP1 PUSH1 0xFF DUP1 NOT DUP4 SLOAD AND SWAP2 ISZERO ISZERO AND OR SWAP1 SSTORE JUMP JUMPDEST DUP6 PUSH0 MSTORE PUSH1 0xB DUP3 MSTORE DUP4 PUSH0 KECCAK256 DUP9 PUSH0 MSTORE DUP3 MSTORE DUP4 PUSH0 KECCAK256 PUSH1 0x1 PUSH1 0xFF NOT DUP3 SLOAD AND OR SWAP1 SSTORE DUP6 PUSH0 MSTORE PUSH1 0xC DUP3 MSTORE DUP4 PUSH0 KECCAK256 DUP9 PUSH0 MSTORE DUP3 MSTORE DUP4 PUSH0 KECCAK256 SSTORE PUSH1 0x13 DUP2 MSTORE PUSH2 0x4993 DUP6 DUP5 PUSH0 KECCAK256 PUSH2 0x445B JUMP JUMPDEST PUSH2 0x499E PUSH1 0x15 SLOAD PUSH2 0x4088 JUMP JUMPDEST PUSH1 0x15 SSTORE PUSH2 0x49AA DUP3 PUSH2 0x3D4C JUMP JUMPDEST DUP3 MLOAD SWAP2 PUSH2 0x49B6 DUP2 PUSH2 0x3D4C JUMP JUMPDEST DUP3 MSTORE TIMESTAMP SWAP1 DUP3 ADD MSTORE LOG4 JUMP JUMPDEST PUSH4 0x4E487B71 PUSH1 0xE0 SHL PUSH0 MSTORE PUSH0 PUSH1 0x4 MSTORE PUSH1 0x24 PUSH0 REVERT JUMPDEST SWAP3 SWAP2 SWAP1 PUSH1 0xFF DUP4 AND PUSH1 0x1 DUP2 LT SWAP1 DUP2 ISZERO PUSH2 0x4A46 JUMPI JUMPDEST POP PUSH2 0x4A40 JUMPI DUP1 PUSH0 MSTORE PUSH1 0x6 PUSH1 0x20 MSTORE DUP4 PUSH1 0x40 PUSH0 KECCAK256 SLOAD SUB PUSH2 0x4A40 JUMPI PUSH1 0xB PUSH1 0x20 MSTORE PUSH1 0x40 PUSH0 KECCAK256 DUP3 PUSH0 MSTORE PUSH1 0x20 MSTORE PUSH1 0xFF PUSH1 0x40 PUSH0 KECCAK256 SLOAD AND PUSH2 0x4A40 JUMPI DUP1 PUSH0 MSTORE PUSH1 0xE PUSH1 0x20 MSTORE PUSH1 0x40 PUSH0 KECCAK256 DUP3 PUSH0 MSTORE PUSH1 0x20 MSTORE PUSH1 0xFF PUSH1 0x40 PUSH0 KECCAK256 SLOAD AND PUSH2 0x4A40 JUMPI PUSH2 0x3FD4 SWAP4 PUSH2 0x4872 JUMP JUMPDEST POP POP POP POP JUMP JUMPDEST PUSH1 0x3 SWAP2 POP GT PUSH0 PUSH2 0x49E6 JUMP JUMPDEST SWAP1 PUSH0 DUP1 SWAP2 PUSH1 0x20 DUP2 MLOAD SWAP2 ADD DUP5 GAS DELEGATECALL DUP1 DUP1 PUSH2 0x4ACF JUMPI JUMPDEST ISZERO PUSH2 0x4A85 JUMPI POP POP PUSH1 0x40 MLOAD RETURNDATASIZE DUP2 MSTORE RETURNDATASIZE PUSH0 PUSH1 0x20 DUP4 ADD RETURNDATACOPY PUSH1 0x20 RETURNDATASIZE DUP3 ADD ADD PUSH1 0x40 MSTORE SWAP1 JUMP JUMPDEST ISZERO PUSH2 0x4AAC JUMPI PUSH1 0x40 MLOAD PUSH4 0x9996B315 PUSH1 0xE0 SHL DUP2 MSTORE PUSH1 0x1 PUSH1 0x1 PUSH1 0xA0 SHL SUB SWAP1 SWAP2 AND PUSH1 0x4 DUP3 ADD MSTORE PUSH1 0x24 SWAP1 REVERT JUMPDEST RETURNDATASIZE ISZERO PUSH2 0x4ABD JUMPI PUSH1 0x40 MLOAD RETURNDATASIZE PUSH0 DUP3 RETURNDATACOPY RETURNDATASIZE SWAP1 REVERT JUMPDEST PUSH1 0x40 MLOAD PUSH4 0xD6BDA275 PUSH1 0xE0 SHL DUP2 MSTORE PUSH1 0x4 SWAP1 REVERT JUMPDEST POP RETURNDATASIZE ISZERO ISZERO DUP1 PUSH2 0x4A65 JUMPI POP DUP2 EXTCODESIZE ISZERO ISZERO PUSH2 0x4A65 JUMP INVALID LOG2 PUSH5 0x6970667358 0x22 SLT KECCAK256 0xD2 DELEGATECALL BLOCKHASH SDIV BYTE PUSH12 0xE562A78E42E3EF67BC34FEE7 BLOBBASEFEE PUSH26 0xB593E27B6AD101F8EF36BB4464736F6C63430008180033000000 "},"methodIdentifiers":{"UPGRADE_INTERFACE_VERSION()":"ad3cb1cc","activeUnacceptedFlagCount(bytes32)":"dbc7b842","addRecordHash(bytes32,bytes32)":"c7567dfa","admin()":"f851a440","anchorRecord(bytes32,bytes32,bytes32,uint8)":"c0d1606e","currentlyDisputed(bytes32,bytes32)":"10466a67","currentlyVerified(bytes32,bytes32)":"def0dec8","disputeIndex(bytes32,bytes32)":"8fc751ee","disputeRecord(bytes32,bytes32,uint8,uint8,string)":"3533d58c","disputes(bytes32,uint256)":"aeb2a19f","disputesByUser(bytes32,uint256)":"adcee102","doesHashExist(bytes32)":"1ee66770","flagUnacceptedUpdate(bytes32,bytes32,bytes32,bytes32)":"01f69935","getActiveRecordSubjects(bytes32)":"86519335","getActiveUnacceptedFlagCount(bytes32)":"249dda2e","getDisputeStats(bytes32)":"dfe36843","getDisputes(bytes32)":"d19d3661","getDisputesAgainstUser(bytes32)":"3ce78b05","getRecordIdForHash(bytes32)":"84debbf1","getRecordSubjects(bytes32)":"bf520465","getRecordVersionHistory(bytes32)":"e76ba193","getSubjectMedicalHistory(bytes32)":"c7695bab","getSubjectStats(bytes32)":"28837450","getTotalAnchoredRecords()":"d46e082f","getUnacceptedFlag(bytes32,bytes32)":"3fa8ea81","getUnacceptedFlags(bytes32)":"be4f9077","getUserDispute(bytes32,bytes32)":"42442226","getUserDisputes(bytes32)":"d08c800d","getUserVerification(bytes32,bytes32)":"045524a2","getUserVerifications(bytes32)":"e08f1ac3","getVerificationStats(bytes32)":"1166c389","getVerifications(bytes32)":"fcdd5261","getVersionCount(bytes32)":"de4920f4","hasActiveUnacceptedFlags(bytes32)":"5d28a342","hasUserDisputed(bytes32,bytes32)":"7628262e","hasUserVerified(bytes32,bytes32)":"e1628f0b","initialize(address)":"c4d66de8","isActiveSubject(bytes32,bytes32)":"64f639d4","isHashActive(bytes32)":"40ec2e9a","isSubject(bytes32,bytes32)":"d6989f09","isSubjectActive(bytes32,bytes32)":"a208f96c","isSubjectOfRecord(bytes32,bytes32)":"08d86517","memberRoleManager()":"15370703","modifyDispute(bytes32,uint8,uint8)":"056c925f","modifyVerificationLevel(bytes32,uint8)":"86fe96e1","proxiableUUID()":"52d1902d","reanchorRecord(bytes32,bytes32)":"9e3432c1","recordIdForHash(bytes32)":"5211e3b6","recordSubjects(bytes32,uint256)":"aca5964f","recordVersionHistory(bytes32,uint256)":"9afd307c","retractDispute(bytes32)":"d9e551fc","retractRecordHash(bytes32,bytes32)":"5a3ba1fa","retractVerification(bytes32)":"438b17cf","revokeUnacceptedFlag(bytes32,bytes32)":"6e95a051","setMemberRoleManager(address)":"dd0bc082","subjectMedicalHistory(bytes32,uint256)":"b27bb4d5","totalAnchoredRecords()":"1cf8cbe8","totalDisputes()":"c5e4ccc4","totalUnacceptedFlags()":"ac924336","totalVerifications()":"ac90c140","transferAdmin(address)":"75829def","unacceptedFlagIndex(bytes32,bytes32)":"8a7f882c","unacceptedFlagsBySubject(bytes32,uint256)":"f536eb2b","unanchorRecord(bytes32,bytes32)":"42deec25","upgradeToAndCall(address,bytes)":"4f1ef286","verificationIndex(bytes32,bytes32)":"741bfc1d","verifications(bytes32,uint256)":"d1e94e57","verificationsByUser(bytes32,uint256)":"b5e6b7a2","verifyRecord(bytes32,bytes32,uint8)":"7b470f6a"}},"storageLayout":{"storage":[{"astId":1551,"contract":"smartContracts/HealthRecordCore.sol:HealthRecordCore","label":"memberRoleManager","offset":0,"slot":"0","type":"t_contract(MemberRoleManagerInterface)1543"},{"astId":1553,"contract":"smartContracts/HealthRecordCore.sol:HealthRecordCore","label":"admin","offset":0,"slot":"1","type":"t_address"},{"astId":1851,"contract":"smartContracts/HealthRecordCore.sol:HealthRecordCore","label":"recordSubjects","offset":0,"slot":"2","type":"t_mapping(t_bytes32,t_array(t_bytes32)dyn_storage)"},{"astId":1857,"contract":"smartContracts/HealthRecordCore.sol:HealthRecordCore","label":"isSubjectOfRecord","offset":0,"slot":"3","type":"t_mapping(t_bytes32,t_mapping(t_bytes32,t_bool))"},{"astId":1862,"contract":"smartContracts/HealthRecordCore.sol:HealthRecordCore","label":"subjectMedicalHistory","offset":0,"slot":"4","type":"t_mapping(t_bytes32,t_array(t_bytes32)dyn_storage)"},{"astId":1868,"contract":"smartContracts/HealthRecordCore.sol:HealthRecordCore","label":"isSubjectActive","offset":0,"slot":"5","type":"t_mapping(t_bytes32,t_mapping(t_bytes32,t_bool))"},{"astId":1872,"contract":"smartContracts/HealthRecordCore.sol:HealthRecordCore","label":"recordIdForHash","offset":0,"slot":"6","type":"t_mapping(t_bytes32,t_bytes32)"},{"astId":1877,"contract":"smartContracts/HealthRecordCore.sol:HealthRecordCore","label":"recordVersionHistory","offset":0,"slot":"7","type":"t_mapping(t_bytes32,t_array(t_bytes32)dyn_storage)"},{"astId":1881,"contract":"smartContracts/HealthRecordCore.sol:HealthRecordCore","label":"isHashActive","offset":0,"slot":"8","type":"t_mapping(t_bytes32,t_bool)"},{"astId":1883,"contract":"smartContracts/HealthRecordCore.sol:HealthRecordCore","label":"totalAnchoredRecords","offset":0,"slot":"9","type":"t_uint256"},{"astId":2805,"contract":"smartContracts/HealthRecordCore.sol:HealthRecordCore","label":"verifications","offset":0,"slot":"10","type":"t_mapping(t_bytes32,t_array(t_struct(Verification)2755_storage)dyn_storage)"},{"astId":2811,"contract":"smartContracts/HealthRecordCore.sol:HealthRecordCore","label":"currentlyVerified","offset":0,"slot":"11","type":"t_mapping(t_bytes32,t_mapping(t_bytes32,t_bool))"},{"astId":2817,"contract":"smartContracts/HealthRecordCore.sol:HealthRecordCore","label":"verificationIndex","offset":0,"slot":"12","type":"t_mapping(t_bytes32,t_mapping(t_bytes32,t_uint256))"},{"astId":2823,"contract":"smartContracts/HealthRecordCore.sol:HealthRecordCore","label":"disputes","offset":0,"slot":"13","type":"t_mapping(t_bytes32,t_array(t_struct(Dispute)2772_storage)dyn_storage)"},{"astId":2829,"contract":"smartContracts/HealthRecordCore.sol:HealthRecordCore","label":"currentlyDisputed","offset":0,"slot":"14","type":"t_mapping(t_bytes32,t_mapping(t_bytes32,t_bool))"},{"astId":2835,"contract":"smartContracts/HealthRecordCore.sol:HealthRecordCore","label":"disputeIndex","offset":0,"slot":"15","type":"t_mapping(t_bytes32,t_mapping(t_bytes32,t_uint256))"},{"astId":2841,"contract":"smartContracts/HealthRecordCore.sol:HealthRecordCore","label":"unacceptedFlagsBySubject","offset":0,"slot":"16","type":"t_mapping(t_bytes32,t_array(t_struct(UnacceptedFlag)2783_storage)dyn_storage)"},{"astId":2847,"contract":"smartContracts/HealthRecordCore.sol:HealthRecordCore","label":"unacceptedFlagIndex","offset":0,"slot":"17","type":"t_mapping(t_bytes32,t_mapping(t_bytes32,t_uint256))"},{"astId":2851,"contract":"smartContracts/HealthRecordCore.sol:HealthRecordCore","label":"activeUnacceptedFlagCount","offset":0,"slot":"18","type":"t_mapping(t_bytes32,t_uint256)"},{"astId":2856,"contract":"smartContracts/HealthRecordCore.sol:HealthRecordCore","label":"verificationsByUser","offset":0,"slot":"19","type":"t_mapping(t_bytes32,t_array(t_bytes32)dyn_storage)"},{"astId":2861,"contract":"smartContracts/HealthRecordCore.sol:HealthRecordCore","label":"disputesByUser","offset":0,"slot":"20","type":"t_mapping(t_bytes32,t_array(t_bytes32)dyn_storage)"},{"astId":2863,"contract":"smartContracts/HealthRecordCore.sol:HealthRecordCore","label":"totalVerifications","offset":0,"slot":"21","type":"t_uint256"},{"astId":2865,"contract":"smartContracts/HealthRecordCore.sol:HealthRecordCore","label":"totalDisputes","offset":0,"slot":"22","type":"t_uint256"},{"astId":2867,"contract":"smartContracts/HealthRecordCore.sol:HealthRecordCore","label":"totalUnacceptedFlags","offset":0,"slot":"23","type":"t_uint256"},{"astId":4445,"contract":"smartContracts/HealthRecordCore.sol:HealthRecordCore","label":"__gap","offset":0,"slot":"24","type":"t_array(t_uint256)50_storage"}],"types":{"t_address":{"encoding":"inplace","label":"address","numberOfBytes":"20"},"t_array(t_bytes32)dyn_storage":{"base":"t_bytes32","encoding":"dynamic_array","label":"bytes32[]","numberOfBytes":"32"},"t_array(t_struct(Dispute)2772_storage)dyn_storage":{"base":"t_struct(Dispute)2772_storage","encoding":"dynamic_array","label":"struct HealthRecordCore.Dispute[]","numberOfBytes":"32"},"t_array(t_struct(UnacceptedFlag)2783_storage)dyn_storage":{"base":"t_struct(UnacceptedFlag)2783_storage","encoding":"dynamic_array","label":"struct HealthRecordCore.UnacceptedFlag[]","numberOfBytes":"32"},"t_array(t_struct(Verification)2755_storage)dyn_storage":{"base":"t_struct(Verification)2755_storage","encoding":"dynamic_array","label":"struct HealthRecordCore.Verification[]","numberOfBytes":"32"},"t_array(t_uint256)50_storage":{"base":"t_uint256","encoding":"inplace","label":"uint256[50]","numberOfBytes":"1600"},"t_bool":{"encoding":"inplace","label":"bool","numberOfBytes":"1"},"t_bytes32":{"encoding":"inplace","label":"bytes32","numberOfBytes":"32"},"t_contract(MemberRoleManagerInterface)1543":{"encoding":"inplace","label":"contract MemberRoleManagerInterface","numberOfBytes":"20"},"t_enum(DisputeCulpability)2743":{"encoding":"inplace","label":"enum HealthRecordCore.DisputeCulpability","numberOfBytes":"1"},"t_enum(DisputeSeverity)2736":{"encoding":"inplace","label":"enum HealthRecordCore.DisputeSeverity","numberOfBytes":"1"},"t_enum(VerificationLevel)2731":{"encoding":"inplace","label":"enum HealthRecordCore.VerificationLevel","numberOfBytes":"1"},"t_mapping(t_bytes32,t_array(t_bytes32)dyn_storage)":{"encoding":"mapping","key":"t_bytes32","label":"mapping(bytes32 => bytes32[])","numberOfBytes":"32","value":"t_array(t_bytes32)dyn_storage"},"t_mapping(t_bytes32,t_array(t_struct(Dispute)2772_storage)dyn_storage)":{"encoding":"mapping","key":"t_bytes32","label":"mapping(bytes32 => struct HealthRecordCore.Dispute[])","numberOfBytes":"32","value":"t_array(t_struct(Dispute)2772_storage)dyn_storage"},"t_mapping(t_bytes32,t_array(t_struct(UnacceptedFlag)2783_storage)dyn_storage)":{"encoding":"mapping","key":"t_bytes32","label":"mapping(bytes32 => struct HealthRecordCore.UnacceptedFlag[])","numberOfBytes":"32","value":"t_array(t_struct(UnacceptedFlag)2783_storage)dyn_storage"},"t_mapping(t_bytes32,t_array(t_struct(Verification)2755_storage)dyn_storage)":{"encoding":"mapping","key":"t_bytes32","label":"mapping(bytes32 => struct HealthRecordCore.Verification[])","numberOfBytes":"32","value":"t_array(t_struct(Verification)2755_storage)dyn_storage"},"t_mapping(t_bytes32,t_bool)":{"encoding":"mapping","key":"t_bytes32","label":"mapping(bytes32 => bool)","numberOfBytes":"32","value":"t_bool"},"t_mapping(t_bytes32,t_bytes32)":{"encoding":"mapping","key":"t_bytes32","label":"mapping(bytes32 => bytes32)","numberOfBytes":"32","value":"t_bytes32"},"t_mapping(t_bytes32,t_mapping(t_bytes32,t_bool))":{"encoding":"mapping","key":"t_bytes32","label":"mapping(bytes32 => mapping(bytes32 => bool))","numberOfBytes":"32","value":"t_mapping(t_bytes32,t_bool)"},"t_mapping(t_bytes32,t_mapping(t_bytes32,t_uint256))":{"encoding":"mapping","key":"t_bytes32","label":"mapping(bytes32 => mapping(bytes32 => uint256))","numberOfBytes":"32","value":"t_mapping(t_bytes32,t_uint256)"},"t_mapping(t_bytes32,t_uint256)":{"encoding":"mapping","key":"t_bytes32","label":"mapping(bytes32 => uint256)","numberOfBytes":"32","value":"t_uint256"},"t_string_storage":{"encoding":"bytes","label":"string","numberOfBytes":"32"},"t_struct(Dispute)2772_storage":{"encoding":"inplace","label":"struct HealthRecordCore.Dispute","members":[{"astId":2757,"contract":"smartContracts/HealthRecordCore.sol:HealthRecordCore","label":"disputerIdHash","offset":0,"slot":"0","type":"t_bytes32"},{"astId":2759,"contract":"smartContracts/HealthRecordCore.sol:HealthRecordCore","label":"recordIdHash","offset":0,"slot":"1","type":"t_bytes32"},{"astId":2762,"contract":"smartContracts/HealthRecordCore.sol:HealthRecordCore","label":"severity","offset":0,"slot":"2","type":"t_enum(DisputeSeverity)2736"},{"astId":2765,"contract":"smartContracts/HealthRecordCore.sol:HealthRecordCore","label":"culpability","offset":1,"slot":"2","type":"t_enum(DisputeCulpability)2743"},{"astId":2767,"contract":"smartContracts/HealthRecordCore.sol:HealthRecordCore","label":"notes","offset":0,"slot":"3","type":"t_string_storage"},{"astId":2769,"contract":"smartContracts/HealthRecordCore.sol:HealthRecordCore","label":"createdAt","offset":0,"slot":"4","type":"t_uint256"},{"astId":2771,"contract":"smartContracts/HealthRecordCore.sol:HealthRecordCore","label":"isActive","offset":0,"slot":"5","type":"t_bool"}],"numberOfBytes":"192"},"t_struct(UnacceptedFlag)2783_storage":{"encoding":"inplace","label":"struct HealthRecordCore.UnacceptedFlag","members":[{"astId":2774,"contract":"smartContracts/HealthRecordCore.sol:HealthRecordCore","label":"recordIdHash","offset":0,"slot":"0","type":"t_bytes32"},{"astId":2776,"contract":"smartContracts/HealthRecordCore.sol:HealthRecordCore","label":"reporterIdHash","offset":0,"slot":"1","type":"t_bytes32"},{"astId":2778,"contract":"smartContracts/HealthRecordCore.sol:HealthRecordCore","label":"recordHash","offset":0,"slot":"2","type":"t_bytes32"},{"astId":2780,"contract":"smartContracts/HealthRecordCore.sol:HealthRecordCore","label":"createdAt","offset":0,"slot":"3","type":"t_uint256"},{"astId":2782,"contract":"smartContracts/HealthRecordCore.sol:HealthRecordCore","label":"isActive","offset":0,"slot":"4","type":"t_bool"}],"numberOfBytes":"160"},"t_struct(Verification)2755_storage":{"encoding":"inplace","label":"struct HealthRecordCore.Verification","members":[{"astId":2745,"contract":"smartContracts/HealthRecordCore.sol:HealthRecordCore","label":"verifierIdHash","offset":0,"slot":"0","type":"t_bytes32"},{"astId":2747,"contract":"smartContracts/HealthRecordCore.sol:HealthRecordCore","label":"recordIdHash","offset":0,"slot":"1","type":"t_bytes32"},{"astId":2750,"contract":"smartContracts/HealthRecordCore.sol:HealthRecordCore","label":"level","offset":0,"slot":"2","type":"t_enum(VerificationLevel)2731"},{"astId":2752,"contract":"smartContracts/HealthRecordCore.sol:HealthRecordCore","label":"createdAt","offset":0,"slot":"3","type":"t_uint256"},{"astId":2754,"contract":"smartContracts/HealthRecordCore.sol:HealthRecordCore","label":"isActive","offset":0,"slot":"4","type":"t_bool"}],"numberOfBytes":"160"},"t_uint256":{"encoding":"inplace","label":"uint256","numberOfBytes":"32"}}}}}}