{"smartContracts/MemberRoleManager.sol":{"MemberRoleManager":{"abi":[{"inputs":[],"stateMutability":"nonpayable","type":"constructor"},{"inputs":[{"internalType":"address","name":"target","type":"address"}],"name":"AddressEmptyCode","type":"error"},{"inputs":[{"internalType":"address","name":"implementation","type":"address"}],"name":"ERC1967InvalidImplementation","type":"error"},{"inputs":[],"name":"ERC1967NonPayable","type":"error"},{"inputs":[],"name":"FailedCall","type":"error"},{"inputs":[],"name":"InvalidInitialization","type":"error"},{"inputs":[],"name":"NotInitializing","type":"error"},{"inputs":[],"name":"UUPSUnauthorizedCallContext","type":"error"},{"inputs":[{"internalType":"bytes32","name":"slot","type":"bytes32"}],"name":"UUPSUnsupportedProxiableUUID","type":"error"},{"anonymous":false,"inputs":[{"indexed":true,"internalType":"address","name":"oldAdmin","type":"address"},{"indexed":true,"internalType":"address","name":"newAdmin","type":"address"},{"indexed":false,"internalType":"uint256","name":"timestamp","type":"uint256"}],"name":"AdminTransferred","type":"event"},{"anonymous":false,"inputs":[{"indexed":true,"internalType":"bytes32","name":"recordIdHash","type":"bytes32"},{"indexed":true,"internalType":"bytes32","name":"grantedByIdHash","type":"bytes32"},{"indexed":true,"internalType":"bytes32","name":"guestIdHash","type":"bytes32"},{"indexed":false,"internalType":"bytes32","name":"guestEmailHash","type":"bytes32"},{"indexed":false,"internalType":"uint256","name":"expiresAt","type":"uint256"},{"indexed":false,"internalType":"uint256","name":"timestamp","type":"uint256"}],"name":"GuestAccessGranted","type":"event"},{"anonymous":false,"inputs":[{"indexed":true,"internalType":"bytes32","name":"recordIdHash","type":"bytes32"},{"indexed":true,"internalType":"bytes32","name":"revokedByIdHash","type":"bytes32"},{"indexed":true,"internalType":"bytes32","name":"guestIdHash","type":"bytes32"},{"indexed":false,"internalType":"uint256","name":"timestamp","type":"uint256"}],"name":"GuestAccessRevoked","type":"event"},{"anonymous":false,"inputs":[{"indexed":true,"internalType":"address","name":"newAddress","type":"address"},{"indexed":false,"internalType":"uint256","name":"timestamp","type":"uint256"}],"name":"HealthRecordCoreUpdated","type":"event"},{"anonymous":false,"inputs":[{"indexed":false,"internalType":"uint64","name":"version","type":"uint64"}],"name":"Initialized","type":"event"},{"anonymous":false,"inputs":[{"indexed":true,"internalType":"address","name":"wallet","type":"address"},{"indexed":true,"internalType":"bytes32","name":"userIdHash","type":"bytes32"},{"indexed":false,"internalType":"uint256","name":"timestamp","type":"uint256"}],"name":"MemberRegistered","type":"event"},{"anonymous":false,"inputs":[{"indexed":true,"internalType":"bytes32","name":"userIdHash","type":"bytes32"},{"indexed":false,"internalType":"enum MemberRoleManager.MemberStatus","name":"oldStatus","type":"uint8"},{"indexed":false,"internalType":"enum MemberRoleManager.MemberStatus","name":"newStatus","type":"uint8"},{"indexed":true,"internalType":"address","name":"changedBy","type":"address"},{"indexed":false,"internalType":"uint256","name":"timestamp","type":"uint256"}],"name":"MemberStatusChanged","type":"event"},{"anonymous":false,"inputs":[{"indexed":true,"internalType":"bytes32","name":"recordIdHash","type":"bytes32"},{"indexed":true,"internalType":"bytes32","name":"userIdHash","type":"bytes32"},{"indexed":false,"internalType":"uint256","name":"timestamp","type":"uint256"}],"name":"OwnershipVoluntarilyLeft","type":"event"},{"anonymous":false,"inputs":[{"indexed":true,"internalType":"bytes32","name":"recordIdHash","type":"bytes32"},{"indexed":true,"internalType":"bytes32","name":"targetIdHash","type":"bytes32"},{"indexed":false,"internalType":"string","name":"oldRole","type":"string"},{"indexed":false,"internalType":"string","name":"newRole","type":"string"},{"indexed":true,"internalType":"bytes32","name":"userIdHash","type":"bytes32"},{"indexed":false,"internalType":"uint256","name":"timestamp","type":"uint256"}],"name":"RoleChanged","type":"event"},{"anonymous":false,"inputs":[{"indexed":true,"internalType":"bytes32","name":"recordIdHash","type":"bytes32"},{"indexed":true,"internalType":"bytes32","name":"targetIdHash","type":"bytes32"},{"indexed":false,"internalType":"string","name":"role","type":"string"},{"indexed":true,"internalType":"bytes32","name":"userIdHash","type":"bytes32"},{"indexed":false,"internalType":"uint256","name":"timestamp","type":"uint256"}],"name":"RoleGranted","type":"event"},{"anonymous":false,"inputs":[{"indexed":true,"internalType":"bytes32","name":"recordIdHash","type":"bytes32"},{"indexed":true,"internalType":"bytes32","name":"targetIdHash","type":"bytes32"},{"indexed":false,"internalType":"string","name":"role","type":"string"},{"indexed":true,"internalType":"bytes32","name":"userIdHash","type":"bytes32"},{"indexed":false,"internalType":"uint256","name":"timestamp","type":"uint256"}],"name":"RoleRevoked","type":"event"},{"anonymous":false,"inputs":[{"indexed":true,"internalType":"bytes32","name":"trustorIdHash","type":"bytes32"},{"indexed":true,"internalType":"bytes32","name":"trusteeIdHash","type":"bytes32"},{"indexed":false,"internalType":"enum MemberRoleManager.TrusteeLevel","name":"level","type":"uint8"},{"indexed":false,"internalType":"uint256","name":"timestamp","type":"uint256"}],"name":"TrusteeAccepted","type":"event"},{"anonymous":false,"inputs":[{"indexed":true,"internalType":"bytes32","name":"trustorIdHash","type":"bytes32"},{"indexed":true,"internalType":"bytes32","name":"trusteeIdHash","type":"bytes32"},{"indexed":false,"internalType":"enum MemberRoleManager.TrusteeLevel","name":"oldLevel","type":"uint8"},{"indexed":false,"internalType":"enum MemberRoleManager.TrusteeLevel","name":"newLevel","type":"uint8"},{"indexed":false,"internalType":"uint256","name":"timestamp","type":"uint256"}],"name":"TrusteeLevelUpdated","type":"event"},{"anonymous":false,"inputs":[{"indexed":true,"internalType":"bytes32","name":"trustorIdHash","type":"bytes32"},{"indexed":true,"internalType":"bytes32","name":"trusteeIdHash","type":"bytes32"},{"indexed":false,"internalType":"enum MemberRoleManager.TrusteeLevel","name":"level","type":"uint8"},{"indexed":false,"internalType":"uint256","name":"timestamp","type":"uint256"}],"name":"TrusteeProposed","type":"event"},{"anonymous":false,"inputs":[{"indexed":true,"internalType":"bytes32","name":"trustorIdHash","type":"bytes32"},{"indexed":true,"internalType":"bytes32","name":"trusteeIdHash","type":"bytes32"},{"indexed":true,"internalType":"bytes32","name":"revokedBy","type":"bytes32"},{"indexed":false,"internalType":"uint256","name":"timestamp","type":"uint256"}],"name":"TrusteeRevoked","type":"event"},{"anonymous":false,"inputs":[{"indexed":true,"internalType":"address","name":"implementation","type":"address"}],"name":"Upgraded","type":"event"},{"anonymous":false,"inputs":[{"indexed":true,"internalType":"address","name":"wallet","type":"address"},{"indexed":true,"internalType":"bytes32","name":"userIdHash","type":"bytes32"},{"indexed":false,"internalType":"uint256","name":"timestamp","type":"uint256"}],"name":"WalletLinked","type":"event"},{"inputs":[],"name":"UPGRADE_INTERFACE_VERSION","outputs":[{"internalType":"string","name":"","type":"string"}],"stateMutability":"view","type":"function"},{"inputs":[{"internalType":"bytes32","name":"trustorIdHash","type":"bytes32"}],"name":"acceptTrustee","outputs":[],"stateMutability":"nonpayable","type":"function"},{"inputs":[{"internalType":"address","name":"wallet","type":"address"},{"internalType":"bytes32","name":"userIdHash","type":"bytes32"}],"name":"addMember","outputs":[],"stateMutability":"nonpayable","type":"function"},{"inputs":[{"internalType":"address[]","name":"walletAddresses","type":"address[]"},{"internalType":"bytes32","name":"userIdHash","type":"bytes32"}],"name":"addMemberBatch","outputs":[],"stateMutability":"nonpayable","type":"function"},{"inputs":[],"name":"admin","outputs":[{"internalType":"address","name":"","type":"address"}],"stateMutability":"view","type":"function"},{"inputs":[{"internalType":"bytes32","name":"","type":"bytes32"},{"internalType":"uint256","name":"","type":"uint256"}],"name":"adminsByRecord","outputs":[{"internalType":"bytes32","name":"","type":"bytes32"}],"stateMutability":"view","type":"function"},{"inputs":[{"internalType":"bytes32","name":"trustorIdHash","type":"bytes32"},{"internalType":"bytes32","name":"trusteeIdHash","type":"bytes32"}],"name":"bootstrapDependentTrustee","outputs":[],"stateMutability":"nonpayable","type":"function"},{"inputs":[{"internalType":"bytes32","name":"recordIdHash","type":"bytes32"},{"internalType":"address","name":"targetWallet","type":"address"},{"internalType":"string","name":"newRole","type":"string"}],"name":"changeRole","outputs":[],"stateMutability":"nonpayable","type":"function"},{"inputs":[{"internalType":"bytes32[]","name":"recordIdHashes","type":"bytes32[]"},{"internalType":"address","name":"targetWallet","type":"address"},{"internalType":"string[]","name":"newRoles","type":"string[]"}],"name":"changeRoleBatch","outputs":[],"stateMutability":"nonpayable","type":"function"},{"inputs":[{"internalType":"address","name":"wallet","type":"address"}],"name":"deactivateWallet","outputs":[],"stateMutability":"nonpayable","type":"function"},{"inputs":[{"internalType":"bytes32","name":"trustorIdHash","type":"bytes32"},{"internalType":"enum MemberRoleManager.TrusteeLevel","name":"newLevel","type":"uint8"}],"name":"downgradeTrusteeLevel","outputs":[],"stateMutability":"nonpayable","type":"function"},{"inputs":[],"name":"getAllUsers","outputs":[{"internalType":"bytes32[]","name":"","type":"bytes32[]"}],"stateMutability":"view","type":"function"},{"inputs":[{"internalType":"bytes32","name":"recordIdHash","type":"bytes32"},{"internalType":"bytes32","name":"guestIdHash","type":"bytes32"}],"name":"getGuestAccess","outputs":[{"internalType":"uint256","name":"grantedAt","type":"uint256"},{"internalType":"uint256","name":"expiresAt","type":"uint256"},{"internalType":"bytes32","name":"grantedByIdHash","type":"bytes32"},{"internalType":"bytes32","name":"guestEmailHash","type":"bytes32"}],"stateMutability":"view","type":"function"},{"inputs":[],"name":"getHealthRecordCore","outputs":[{"internalType":"address","name":"","type":"address"}],"stateMutability":"view","type":"function"},{"inputs":[{"internalType":"bytes32","name":"recordIdHash","type":"bytes32"}],"name":"getRecordAdmins","outputs":[{"internalType":"bytes32[]","name":"","type":"bytes32[]"}],"stateMutability":"view","type":"function"},{"inputs":[{"internalType":"bytes32","name":"recordIdHash","type":"bytes32"}],"name":"getRecordOwners","outputs":[{"internalType":"bytes32[]","name":"","type":"bytes32[]"}],"stateMutability":"view","type":"function"},{"inputs":[{"internalType":"bytes32","name":"recordIdHash","type":"bytes32"}],"name":"getRecordRoleStats","outputs":[{"internalType":"uint256","name":"ownerCount","type":"uint256"},{"internalType":"uint256","name":"adminCount","type":"uint256"},{"internalType":"uint256","name":"viewerCount","type":"uint256"}],"stateMutability":"view","type":"function"},{"inputs":[{"internalType":"bytes32","name":"recordIdHash","type":"bytes32"}],"name":"getRecordViewers","outputs":[{"internalType":"bytes32[]","name":"","type":"bytes32[]"}],"stateMutability":"view","type":"function"},{"inputs":[{"internalType":"bytes32","name":"userIdHash","type":"bytes32"}],"name":"getRecordsByUser","outputs":[{"internalType":"bytes32[]","name":"","type":"bytes32[]"}],"stateMutability":"view","type":"function"},{"inputs":[{"internalType":"bytes32","name":"recordIdHash","type":"bytes32"},{"internalType":"address","name":"wallet","type":"address"}],"name":"getRoleDetails","outputs":[{"internalType":"string","name":"role","type":"string"},{"internalType":"bool","name":"isActive","type":"bool"}],"stateMutability":"view","type":"function"},{"inputs":[{"internalType":"bytes32","name":"recordIdHash","type":"bytes32"},{"internalType":"bytes32","name":"userIdHash","type":"bytes32"}],"name":"getRoleDetailsByUser","outputs":[{"internalType":"string","name":"role","type":"string"},{"internalType":"bool","name":"isActive","type":"bool"}],"stateMutability":"view","type":"function"},{"inputs":[{"internalType":"bytes32","name":"recordIdHash","type":"bytes32"},{"internalType":"bytes32","name":"userIdHash","type":"bytes32"}],"name":"getRoleGranter","outputs":[{"internalType":"bytes32","name":"","type":"bytes32"}],"stateMutability":"view","type":"function"},{"inputs":[],"name":"getTotalRoles","outputs":[{"internalType":"uint256","name":"","type":"uint256"}],"stateMutability":"view","type":"function"},{"inputs":[],"name":"getTotalUsers","outputs":[{"internalType":"uint256","name":"","type":"uint256"}],"stateMutability":"view","type":"function"},{"inputs":[{"internalType":"bytes32","name":"trustorIdHash","type":"bytes32"},{"internalType":"bytes32","name":"trusteeIdHash","type":"bytes32"}],"name":"getTrusteeRelationship","outputs":[{"internalType":"enum MemberRoleManager.TrusteeStatus","name":"status","type":"uint8"},{"internalType":"enum MemberRoleManager.TrusteeLevel","name":"level","type":"uint8"}],"stateMutability":"view","type":"function"},{"inputs":[{"internalType":"address","name":"wallet","type":"address"}],"name":"getUserForWallet","outputs":[{"internalType":"bytes32","name":"","type":"bytes32"}],"stateMutability":"view","type":"function"},{"inputs":[{"internalType":"bytes32","name":"userIdHash","type":"bytes32"}],"name":"getUserStatus","outputs":[{"internalType":"enum MemberRoleManager.MemberStatus","name":"status","type":"uint8"}],"stateMutability":"view","type":"function"},{"inputs":[{"internalType":"bytes32","name":"userIdHash","type":"bytes32"}],"name":"getWalletsForUser","outputs":[{"internalType":"address[]","name":"","type":"address[]"}],"stateMutability":"view","type":"function"},{"inputs":[{"internalType":"bytes32[]","name":"recordIdHashes","type":"bytes32[]"},{"internalType":"address","name":"guestWallet","type":"address"},{"internalType":"bytes32","name":"guestIdHash","type":"bytes32"},{"internalType":"bytes32","name":"guestEmailHash","type":"bytes32"},{"internalType":"uint256","name":"durationSeconds","type":"uint256"}],"name":"grantGuestAccess","outputs":[],"stateMutability":"nonpayable","type":"function"},{"inputs":[{"internalType":"bytes32","name":"recordIdHash","type":"bytes32"},{"internalType":"address","name":"targetWallet","type":"address"},{"internalType":"string","name":"role","type":"string"}],"name":"grantRole","outputs":[],"stateMutability":"nonpayable","type":"function"},{"inputs":[{"internalType":"bytes32[]","name":"recordIdHashes","type":"bytes32[]"},{"internalType":"bytes32","name":"trustorIdHash","type":"bytes32"}],"name":"grantRoleAsTrusteeBatch","outputs":[],"stateMutability":"nonpayable","type":"function"},{"inputs":[{"internalType":"bytes32[]","name":"recordIdHashes","type":"bytes32[]"},{"internalType":"address","name":"targetWallet","type":"address"},{"internalType":"string[]","name":"roles","type":"string[]"}],"name":"grantRoleBatch","outputs":[],"stateMutability":"nonpayable","type":"function"},{"inputs":[{"internalType":"bytes32","name":"","type":"bytes32"},{"internalType":"bytes32","name":"","type":"bytes32"}],"name":"guestAccessByRecord","outputs":[{"internalType":"uint256","name":"grantedAt","type":"uint256"},{"internalType":"uint256","name":"expiresAt","type":"uint256"},{"internalType":"bytes32","name":"grantedByIdHash","type":"bytes32"},{"internalType":"bytes32","name":"guestEmailHash","type":"bytes32"}],"stateMutability":"view","type":"function"},{"inputs":[{"internalType":"bytes32","name":"recordIdHash","type":"bytes32"},{"internalType":"bytes32","name":"guestIdHash","type":"bytes32"}],"name":"hasActiveGuestAccess","outputs":[{"internalType":"bool","name":"","type":"bool"}],"stateMutability":"view","type":"function"},{"inputs":[{"internalType":"bytes32","name":"recordIdHash","type":"bytes32"},{"internalType":"address","name":"wallet","type":"address"}],"name":"hasActiveRole","outputs":[{"internalType":"bool","name":"","type":"bool"}],"stateMutability":"view","type":"function"},{"inputs":[{"internalType":"bytes32","name":"recordIdHash","type":"bytes32"},{"internalType":"address","name":"wallet","type":"address"},{"internalType":"string","name":"role","type":"string"}],"name":"hasRole","outputs":[{"internalType":"bool","name":"","type":"bool"}],"stateMutability":"view","type":"function"},{"inputs":[],"name":"healthRecordCore","outputs":[{"internalType":"contract HealthRecordCoreInterface","name":"","type":"address"}],"stateMutability":"view","type":"function"},{"inputs":[],"name":"initialize","outputs":[],"stateMutability":"nonpayable","type":"function"},{"inputs":[{"internalType":"bytes32","name":"recordIdHash","type":"bytes32"},{"internalType":"address","name":"targetWallet","type":"address"},{"internalType":"string","name":"role","type":"string"}],"name":"initializeRecordRole","outputs":[],"stateMutability":"nonpayable","type":"function"},{"inputs":[{"internalType":"address","name":"wallet","type":"address"}],"name":"isActiveMember","outputs":[{"internalType":"bool","name":"","type":"bool"}],"stateMutability":"view","type":"function"},{"inputs":[{"internalType":"bytes32","name":"recordIdHash","type":"bytes32"},{"internalType":"bytes32","name":"userIdHash","type":"bytes32"}],"name":"isActiveSubject","outputs":[{"internalType":"bool","name":"","type":"bool"}],"stateMutability":"view","type":"function"},{"inputs":[{"internalType":"bytes32","name":"trustorIdHash","type":"bytes32"},{"internalType":"bytes32","name":"trusteeIdHash","type":"bytes32"}],"name":"isControllerOf","outputs":[{"internalType":"bool","name":"","type":"bool"}],"stateMutability":"view","type":"function"},{"inputs":[{"internalType":"bytes32","name":"recordIdHash","type":"bytes32"},{"internalType":"address","name":"wallet","type":"address"}],"name":"isOwnerOrAdmin","outputs":[{"internalType":"bool","name":"","type":"bool"}],"stateMutability":"view","type":"function"},{"inputs":[{"internalType":"address","name":"wallet","type":"address"}],"name":"isVerifiedMember","outputs":[{"internalType":"bool","name":"","type":"bool"}],"stateMutability":"view","type":"function"},{"inputs":[{"internalType":"address","name":"wallet","type":"address"}],"name":"isVerifiedProvider","outputs":[{"internalType":"bool","name":"","type":"bool"}],"stateMutability":"view","type":"function"},{"inputs":[{"internalType":"bytes32","name":"","type":"bytes32"},{"internalType":"uint256","name":"","type":"uint256"}],"name":"ownersByRecord","outputs":[{"internalType":"bytes32","name":"","type":"bytes32"}],"stateMutability":"view","type":"function"},{"inputs":[{"internalType":"bytes32","name":"trusteeIdHash","type":"bytes32"},{"internalType":"enum MemberRoleManager.TrusteeLevel","name":"level","type":"uint8"}],"name":"proposeTrustee","outputs":[],"stateMutability":"nonpayable","type":"function"},{"inputs":[],"name":"proxiableUUID","outputs":[{"internalType":"bytes32","name":"","type":"bytes32"}],"stateMutability":"view","type":"function"},{"inputs":[{"internalType":"address","name":"wallet","type":"address"}],"name":"reactivateWallet","outputs":[],"stateMutability":"nonpayable","type":"function"},{"inputs":[{"internalType":"bytes32","name":"","type":"bytes32"}],"name":"recordRoles","outputs":[{"internalType":"string","name":"role","type":"string"},{"internalType":"bool","name":"isActive","type":"bool"}],"stateMutability":"view","type":"function"},{"inputs":[{"internalType":"bytes32","name":"","type":"bytes32"},{"internalType":"uint256","name":"","type":"uint256"}],"name":"recordsByUser","outputs":[{"internalType":"bytes32","name":"","type":"bytes32"}],"stateMutability":"view","type":"function"},{"inputs":[{"internalType":"bytes32[]","name":"recordIdHashes","type":"bytes32[]"},{"internalType":"bytes32","name":"guestIdHash","type":"bytes32"}],"name":"revokeGuestAccess","outputs":[],"stateMutability":"nonpayable","type":"function"},{"inputs":[{"internalType":"bytes32","name":"recordIdHash","type":"bytes32"},{"internalType":"address","name":"targetWallet","type":"address"}],"name":"revokeRole","outputs":[],"stateMutability":"nonpayable","type":"function"},{"inputs":[{"internalType":"bytes32[]","name":"recordIdHashes","type":"bytes32[]"},{"internalType":"address","name":"targetWallet","type":"address"}],"name":"revokeRoleBatch","outputs":[],"stateMutability":"nonpayable","type":"function"},{"inputs":[{"internalType":"bytes32","name":"trustorIdHash","type":"bytes32"},{"internalType":"bytes32","name":"trusteeIdHash","type":"bytes32"}],"name":"revokeTrustee","outputs":[],"stateMutability":"nonpayable","type":"function"},{"inputs":[{"internalType":"bytes32","name":"","type":"bytes32"}],"name":"roleGrantedBy","outputs":[{"internalType":"bytes32","name":"","type":"bytes32"}],"stateMutability":"view","type":"function"},{"inputs":[{"internalType":"address","name":"_healthRecordCore","type":"address"}],"name":"setHealthRecordCore","outputs":[],"stateMutability":"nonpayable","type":"function"},{"inputs":[{"internalType":"bytes32","name":"userIdHash","type":"bytes32"},{"internalType":"enum MemberRoleManager.MemberStatus","name":"newStatus","type":"uint8"}],"name":"setUserStatus","outputs":[],"stateMutability":"nonpayable","type":"function"},{"inputs":[],"name":"totalRoles","outputs":[{"internalType":"uint256","name":"","type":"uint256"}],"stateMutability":"view","type":"function"},{"inputs":[],"name":"totalUsers","outputs":[{"internalType":"uint256","name":"","type":"uint256"}],"stateMutability":"view","type":"function"},{"inputs":[{"internalType":"address","name":"newAdmin","type":"address"}],"name":"transferAdmin","outputs":[],"stateMutability":"nonpayable","type":"function"},{"inputs":[{"internalType":"bytes32","name":"","type":"bytes32"},{"internalType":"bytes32","name":"","type":"bytes32"}],"name":"trusteeRelationships","outputs":[{"internalType":"enum MemberRoleManager.TrusteeStatus","name":"status","type":"uint8"},{"internalType":"enum MemberRoleManager.TrusteeLevel","name":"level","type":"uint8"}],"stateMutability":"view","type":"function"},{"inputs":[{"internalType":"bytes32","name":"trusteeIdHash","type":"bytes32"},{"internalType":"enum MemberRoleManager.TrusteeLevel","name":"newLevel","type":"uint8"}],"name":"updateTrusteeLevel","outputs":[],"stateMutability":"nonpayable","type":"function"},{"inputs":[{"internalType":"address","name":"newImplementation","type":"address"},{"internalType":"bytes","name":"data","type":"bytes"}],"name":"upgradeToAndCall","outputs":[],"stateMutability":"payable","type":"function"},{"inputs":[{"internalType":"uint256","name":"","type":"uint256"}],"name":"userList","outputs":[{"internalType":"bytes32","name":"","type":"bytes32"}],"stateMutability":"view","type":"function"},{"inputs":[{"internalType":"bytes32","name":"","type":"bytes32"}],"name":"userStatus","outputs":[{"internalType":"enum MemberRoleManager.MemberStatus","name":"","type":"uint8"}],"stateMutability":"view","type":"function"},{"inputs":[{"internalType":"bytes32","name":"","type":"bytes32"},{"internalType":"uint256","name":"","type":"uint256"}],"name":"userWallets","outputs":[{"internalType":"address","name":"","type":"address"}],"stateMutability":"view","type":"function"},{"inputs":[{"internalType":"bytes32","name":"","type":"bytes32"},{"internalType":"uint256","name":"","type":"uint256"}],"name":"viewersByRecord","outputs":[{"internalType":"bytes32","name":"","type":"bytes32"}],"stateMutability":"view","type":"function"},{"inputs":[{"internalType":"bytes32","name":"recordIdHash","type":"bytes32"}],"name":"voluntarilyLeaveOwnership","outputs":[],"stateMutability":"nonpayable","type":"function"},{"inputs":[{"internalType":"address","name":"","type":"address"}],"name":"wallets","outputs":[{"internalType":"bytes32","name":"userIdHash","type":"bytes32"},{"internalType":"bool","name":"isWalletActive","type":"bool"}],"stateMutability":"view","type":"function"}],"evm":{"bytecode":{"linkReferences":{},"object":"60a08060405234620000d157306080527ff0c57e16840df040f15088dc2f81fe391c3923bec73e23a9662efc9c229c6a009081549060ff8260401c16620000c257506001600160401b036002600160401b0319828216016200007c575b6040516151ac9081620000d6823960805181818161256e015261277a0152f35b6001600160401b031990911681179091556040519081527fc7f505b2f371ae2175ee4913f4499e1f2633a7b5936321eed1cdaeb6115181d290602090a15f80806200005c565b63f92ee8a960e01b8152600490fd5b5f80fdfe6080604090808252600480361015610015575f80fd5b5f3560e01c918262b0c80914613c155750816302ba810914613bb8578163033e822f14613b4f5781630519e2a014613b295781630591bdf4146137c45781630b3ffd1d146137075781631c0c18d8146135a05781631dc6320114613421578163259ed80e146133fc57816329c9087a14612ed15781632ae8511d14612d545781633256e5ab14612cd85781633310559214612c9b5781633befa41014612c8057816341a51baa14612c17578163422a5bb814612be357816343e1970414612b9157816345ecd02f14612b7157816349df720814612a245781634b6feb7c14611e2d5781634d3c4a7c146129275781634f1ef2861461272a57816351eed472146125d257816352d1902d1461255b578163557ee54f146124cd578163558160791461249d578163562c788e146105e257816364f639d4146124825781636544b05b1461241957816369ac20221461221b5781636b4bed9714610389578163726d544714611ec957816375829def14611e4b578163790e118c14611e2d5781637b657d0714611df05781638129fc1c14611cd35781638776cd3514611ca357816389b08f1114611c5e5781638db7edb414611c1957816393ccfba814611be95781639443cd8014611ba357816396207e0214611a525781639915b91f146119db5781639be572f6146115165781639f4216e81461198f578163aaddc34514611963578163ab48384a14611863578163ad3cb1cc1461181f578163b8cab84b14611744578163bafc8892146115eb578163bb0f86d514611534578163bff1f9e114611516578163c36dc9ef146114ad578163c715582314611431578163c88c35fe1461140b578163c979c9bf146112a7578163cb261a0314611279578163cda06c6e14611252578163d12a7768146111a3578163d547741f14610d9b578163dde492ea1461095c578163e211e89c146108ec578163e2842d791461086c578163e6efcd5d1461060a578163e94ed257146105e2578163eec047aa14610582578163f12b9ad3146103ba578163f29e007b1461038957508063f851a440146103625763fa7a6bcc14610321575f80fd5b3461035e5761032f36613f6f565b91905f52600a602052805f20805483101561035e57602092610350916140bd565b91905490519160031b1c8152f35b5f80fd5b503461035e575f36600319011261035e575f5490516001600160a01b039091168152602090f35b823461035e57602036600319011261035e57602091355f52600282526103b860ff825f205416915180926140e6565bf35b823461035e578060031936011261035e5781356001600160401b03811161035e576103e89036908401613d12565b916103f1613c5f565b6104026103fd3361495f565b614134565b6001600160a01b031690811561054e5750335f52600192839260209060018252805f2054935f52805f2054926104398415156141bb565b5f955b61044257005b805186101561054c5786866104628661045c849a86614380565b51614a5c565b15610547576104758761045c8386614380565b156105475786866104908161048a8588614380565b51614c7b565b805f5260068089526104a3885f20613fbd565b9182518a8401206104b2614683565b8b81519101201461053d576104d283856104cc898c614380565b51614caf565b5f52885284875f200160ff198154169055600d88525f878120557fd05ed2d3feff840c2ececa71791388fd3d19dbbbbcfa97031f534a7dc09fbf1f61052d61051a8689614380565b519289519182918b83528b83019061405f565b428c8301520390a45b019561043c565b5050505050610536565b610536565b005b606490602084519162461bcd60e51b8352820152600e60248201526d125b9d985b1a59081dd85b1b195d60921b6044820152fd5b823461035e5761059136613f6f565b905f52600f602052815f20905f52602052805f20906105de825491600184015493600360028201549101549151948594859094939260609260808301968352602083015260408201520152565b0390f35b823461035e575f36600319011261035e57600c5490516001600160a01b039091168152602090f35b823461035e5761061936613f6f565b9161062e60018060a01b035f541633146143b6565b81156108385761063f831515614433565b61064b83831415614471565b815f526002602081815260ff835f20541660068110156107ea57156107fd57845f5281815260ff835f20541660068110156107ea5761068b9015156144bd565b835f52600e8152825f20855f52815260ff835f205416868110156107ea5780159081156107df575b501561078e5782516106c481613c75565b828152818101838152855f52600e8352845f20875f528352845f2091518881101561077b576106f3908361451a565b5196600388101561076857507fc5b2e1bd4433eb4e9e181cc803520513d39d918c96bddeebca1224e1c750963d94959661072c91614532565b85857f494d010fdf588a0e83d626ea6963187bdda6f88b7007f7bf280683d3f7dea8348580518681524286820152a382519182524290820152a3005b602190634e487b7160e01b5f525260245ffd5b602189634e487b7160e01b5f525260245ffd5b8560849184519162461bcd60e51b8352820152602660248201527f52656c6174696f6e7368697020616c726561647920616374697665206f722070604482015265656e64696e6760d01b6064820152fd5b6003915014876106b3565b602187634e487b7160e01b5f525260245ffd5b8560649184519162461bcd60e51b83528201526016602482015275151c9d5cdd1bdc881b9bdd081c9959da5cdd195c995960521b6044820152fd5b5162461bcd60e51b8152602081850152600f60248201526e24b73b30b634b2103a393ab9ba37b960891b6044820152606490fd5b823461035e575f36600319011261035e578051908183548082526020809201945f527f8a35acfbc15ff81a39ae7d344fd709f28e8600b4aa8c65c6b64bfe7fe36bd19b915f905b8282106108d5576105de86866108cb828b0383613cda565b5191829182613ea2565b8354875295860195600193840193909101906108b3565b823461035e576020906108fe36613f6f565b905f52600f8352815f20905f528252805f2090805161091c81613ca4565b825490818152606060036001860154958688850152600281015486850152015491015215159182610951575b50519015158152f35b421115915083610948565b90503461035e5761096c36613f2d565b91929061097b6103fd3361495f565b610986841515614551565b6001600160a01b03169261099b84151561459d565b6109ac6109a784614d88565b6145e9565b335f5260209160018352855f2054945f52855f2054926109cd8415156141bb565b8451818601206109dd8785614c7b565b5f526006825260ff6001895f2001541615610d5a57835f5260078252875f2054151590610a12610a0b614683565b8987614de0565b91610a25610a1e6146a4565b8a88614de0565b91610a308a88614e3e565b90610a39614683565b8051908701208103610b7757505015610b1d575015610adb575b610a5d8484614c7b565b5f526006815260ff6001885f20015416610a7d57505061054c9450614a66565b865162461bcd60e51b815291820152603360248201527f54617267657420616c726561647920686173206120726f6c652e2055736520636044820152721a185b99d9549bdb194a0a481a5b9cdd195859606a1b606482015260849150fd5b865162461bcd60e51b815291820181905260248201527f4f6e6c79206f776e6572732063616e206772616e74206f776e657220726f6c65604482015260649150fd5b9050610a5357865162461bcd60e51b815291820152602960248201527f4f6e6c792061646d696e6973747261746f72732063616e206772616e742066696044820152683939ba1037bbb732b960b91b606482015260849150fd5b909150610b826146a4565b8051908601208103610c0c5750508115610c04575b50610a5357865162461bcd60e51b815291820152603b60248201527f4f6e6c79206f776e65727320616e642061646d696e6973747261746f7273206360448201527f616e206772616e742061646d696e6973747261746f7220726f6c650000000000606482015260849150fd5b90505f610b97565b610c17939193614394565b85815191012014610c2b575b505050610a53565b80159081610d53575b8015610d4c575b15610ce35782610cdb575b5081610cd2575b50610c5b575b5f8080610c23565b610c658684614f74565b51610c5357865162461bcd60e51b815291820152603c60248201527f5375626a656374206d757374206861766520616e2061637469766520726f6c6560448201527f20746f206772616e7420766965776572207065726d697373696f6e7300000000606482015260849150fd5b9050155f610c4d565b91505f610c46565b895162461bcd60e51b8152808601859052603e60248201527f4f6e6c79206f776e6572732c2061646d696e6973747261746f72732c206f722060448201527f7375626a656374732063616e206772616e742076696577657220726f6c6500006064820152608490fd5b5082610c3b565b5081610c34565b60648383808b519262461bcd60e51b845283015260248201527f596f752068617665206e6f20726f6c6520666f722074686973207265636f72646044820152fd5b823461035e578060031936011261035e578135610db6613c5f565b610dc1821515614551565b6001600160a01b031692610dd684151561459d565b335f5260209260018452805f2054945f52805f205493610df78515156141bb565b610e018585614c7b565b805f5260068252610e1a60ff6001855f2001541661462b565b805f5260068252610e2c835f20613fbd565b93845183860120610e3b614683565b848151910120811461112c57878903610f64575b610e576146a4565b84815191012014610ecf575b5090839291610e947fd05ed2d3feff840c2ececa71791388fd3d19dbbbbcfa97031f534a7dc09fbf1f958888614caf565b5f52600681526001825f200160ff198154169055600d81525f82812055610ec4825193838594855284019061405f565b9042908301520390a4005b855f52600883526001845f20541160078452845f205415158115610f5c575b50610e6357835162461bcd60e51b8152908101839052603960248201527f43616e6e6f74207265766f6b65206c6173742061646d696e6973747261746f7260448201527f20776974686f757420616e206f776e65722070726573656e74000000000000006064820152608490fd5b905089610eee565b610f76610f6f614683565b8a89614de0565b610f88610f816146a4565b8b8a614de0565b845f52600d86528a875f20541490610f9e614394565b805190880120840361103e578215611036575b50811561102e575b5015610fc5575b610e4f565b845162461bcd60e51b8152808301859052603e60248201527f4f6e6c79206f776e6572732c2061646d696e6973747261746f72732c206f722060448201527f746865206772616e7465722063616e207265766f6b65207669657765727300006064820152608490fd5b90508a610fb9565b91508b610fb1565b821592915082611124575b50156110c95715610e4f5761105c6146a4565b8481519101208103610fc057865f5260078452845f205415610fc057845162461bcd60e51b8152808301859052602560248201527f4f6e6c79206f776e6572732063616e207265766f6b652061646d696e6973747260448201526461746f727360d81b6064820152608490fd5b855162461bcd60e51b8152808401869052602f60248201527f4f6e6c79206f776e65727320616e642061646d696e6973747261746f7273206360448201526e616e207265766f6b6520726f6c657360881b6064820152608490fd5b90508b611049565b845162461bcd60e51b8152808301859052604560248201527f4f776e6572732063616e6e6f74206265207265766f6b65642e204f776e65722060448201527f6d7573742075736520766f6c756e746172696c794c656176654f776e6572736860648201526434b814149760d91b608482015260a490fd5b90503461035e576020908160031936011261035e578290355f5260038252805f208151928381835491828152019081935f52825f20905f5b81811061123557505050846111f1910385613cda565b825181815293518185018190528493840192915f5b82811061121557505050500390f35b83516001600160a01b031685528695509381019392810192600101611206565b82546001600160a01b0316845292840192600192830192016111db565b823461035e57602036600319011261035e57602091355f52600d8252805f20549051908152f35b823461035e57602036600319011261035e5760209061129e611299613c49565b614f1e565b90519015158152f35b823461035e576112b636613f6f565b916112c36103fd3361495f565b335f5260209060018252805f2054948386148015611402575b156113c257835f52600e8352815f20855f52835260ff825f205416818110156113af57600281149081156113a4575b50156113595750907f6df3a6475fab2eed139f7e469995b04e85bfc5b4b8642587109cb72541f74fae91835f52600e8252805f20855f528252805f20600360ff1982541617905551428152a4005b82608492519162461bcd60e51b8352820152602160248201527f4e6f20616374697665206f722070656e64696e672072656c6174696f6e7368696044820152600760fc1b6064820152fd5b60019150148761130b565b602182634e487b7160e01b5f525260245ffd5b8280606493519262461bcd60e51b845283015260248201527f4e6f74206120706172747920746f20746869732072656c6174696f6e736869706044820152fd5b508486146112dc565b823461035e578060031936011261035e5761129e60209261142a613c5f565b9035614922565b823461035e57602036600319011261035e577fce59ad7d6dabe8a7533ed7d9bd07d276a046ac7ac9a8e8e8971da4b81104a28b602061146e613c49565b5f546001600160a01b03919061148790831633146143b6565b16926114948415156148e4565b600c80546001600160a01b0319168517905551428152a2005b90503461035e57602090602060031936011261035e57355f526007602052815f209180519182602085549182815201945f5260205f20915f905b8282106114ff576105de86866108cb828b0383613cda565b8354875295860195600193840193909101906114e7565b823461035e575f36600319011261035e576020906005549051908152f35b90503461035e57602036600319011261035e5761154f613c49565b5f546001600160a01b03919061156890831633146143b6565b16805f5260019182602052611581845f205415156143ef565b815f528260205260ff83855f200154166115b057509181925f52816020525f20019060ff198254161790555f80f35b606490602085519162461bcd60e51b8352820152601560248201527457616c6c657420616c72656164792061637469766560581b6044820152fd5b823461035e576115fa36613efc565b9190926116096103fd3361495f565b335f5260019360209160018352835f205492855f52600e8152845f20845f528152845f209085519161163a83613c75565b549161164960ff841682614502565b61165c60ff8383019460081c168461450e565b51838110156117315760026116719114614873565b835161168861167f82613cfb565b97519788613cda565b808752611697601f1991613cfb565b015f5b81811061172257505050865f905b6116ba575b50505061054c94506149e7565b835181101561171d576116cd8185614380565b51825190600382101561170a57916116eb8a959493928a8794614ec8565b6116f5828a614380565b526117008189614380565b50019091926116a8565b602185634e487b7160e01b5f525260245ffd5b6116ad565b6060888201840152820161169a565b602184634e487b7160e01b5f525260245ffd5b823461035e576020908160031936011261035e578235916117676103fd3361495f565b335f5260018152815f205493835f52600e8252825f20855f528252825f209081549060ff8216818110156113af576001036117e65750916117de60ff9260027fc5b2e1bd4433eb4e9e181cc803520513d39d918c96bddeebca1224e1c750963d969585191617809155845193849160081c16614107565b4290820152a3005b845162461bcd60e51b81529081018490526013602482015272139bc81c195b991a5b99c81c1c9bdc1bdcd85b606a1b6044820152606490fd5b823461035e575f36600319011261035e5780516105de9161183f82613c75565b60058252640352e302e360dc1b60208301525191829160208352602083019061405f565b90503461035e5761187336613edd565b90916118816103fd3361495f565b335f526001602052835f205491825f52600e602052845f20845f52602052845f20805460ff81168481101561170a57906118bf600260ff9314614873565b60081c169260038310156107685760038410156107685782841461192057507fb36ec3c738ef8ecd9180addc815304762374b76e91c2a321831d9906ea119ade93949561190f8361191b93614532565b519283924291846148bf565b0390a3005b606490602088519162461bcd60e51b8352820152601860248201527f416c72656164792074686973207472757374206c6576656c00000000000000006044820152fd5b823461035e5760209061197e61197836613f6f565b90614c7b565b5f52600d8252805f20549051908152f35b823461035e57602036600319011261035e578135825481101561035e576020925f527f8a35acfbc15ff81a39ae7d344fd709f28e8600b4aa8c65c6b64bfe7fe36bd19b01549051908152f35b823461035e576119ea36613f6f565b905f52600e602052815f20905f52602052805f2090805191611a0b83613c75565b5491611a1a60ff841682614502565b611a2e60ff602083019460081c168461450e565b519183831015611731575192600384101561076857506105de905192839283614114565b823461035e578060031936011261035e57813590602435600681101561035e57611a8660018060a01b035f541633146143b6565b825f5260206002815260ff835f2054166006811015611b905715611b5857835f526002815260ff835f20541694600686101561076857828614611b21575090611af491845f5260028152835f2060ff1981541660ff8416179055611aec845180976140e6565b8501906140e6565b42908301527ff6277c6ee46649823db9a5c531db3112b4340c67179cae1932ba3420dcc37cc760603393a3005b60649184519162461bcd60e51b83528201526013602482015272416c726561647920746869732073746174757360681b6044820152fd5b8460649184519162461bcd60e51b83528201526013602482015272155cd95c881b9bdd081c9959da5cdd195c9959606a1b6044820152fd5b602186634e487b7160e01b5f525260245ffd5b823461035e57611bb236613f6f565b91905f526003602052805f20805483101561035e57602092611bd3916140bd565b60018060a01b0391549060031b1c169051908152f35b823461035e57611bf836613f6f565b91905f526009602052805f20805483101561035e57602092610350916140bd565b823461035e57602036600319011261035e57606091355f526007602052805f2054906008602052805f2054906009602052805f20549181519384526020840152820152f35b823461035e57602036600319011261035e576001600160a01b03611c80613c49565b165f526001602052805f2060ff6001825492015416825191825215156020820152f35b823461035e57611cb236613f6f565b91905f526008602052805f20805483101561035e57602092610350916140bd565b90503461035e575f36600319011261035e577ff0c57e16840df040f15088dc2f81fe391c3923bec73e23a9662efc9c229c6a0090815460ff81851c1615916001600160401b03821680159081611de8575b6001149081611dde575b159081611dd5575b50611dc7575067ffffffffffffffff198116600117835581611da8575b505f80546001600160a01b03191633179055611d6b57005b805468ff00000000000000001916905551600181527fc7f505b2f371ae2175ee4913f4499e1f2633a7b5936321eed1cdaeb6115181d290602090a1005b68ffffffffffffffffff1916680100000000000000011782555f611d53565b845163f92ee8a960e01b8152fd5b9050155f611d36565b303b159150611d2e565b849150611d24565b823461035e576105de90611e0336613f6f565b905f52600e602052815f20905f52602052805f20549051918160ff80859460081c16911683614114565b823461035e575f36600319011261035e57602090600b549051908152f35b823461035e57602036600319011261035e57602090611e68613c49565b5f5491906001600160a01b03808416917f38df5fa0f7fef0d515ca1f5388cb5790ac5885d5fca8d05d9f943e563c33a4b39190611ea63385146143b6565b16948593611eb58515156148e4565b51428152a36001600160a01b031916175f55005b90503461035e57611ed936613f2d565b93909260018060a01b03611ef1815f541633146143b6565b611efc841515614551565b8416611f0981151561479f565b611f156109a787614d88565b5f526001602091818352611f37845f205496611f328815156143ef565b61495f565b156121d857845f5260078352835f205415806121c9575b1561218657611f5d8686614c7b565b91825f5260068452845f2092611f7284613fbd565b9260ff838551159601541692875191611f8a83613c75565b8b835287830190828252845f5260068952895f2093518051916001600160401b0383116121735750611fbc8554613f85565b601f811161212d575b508990601f83116001146120c65761200c95949392915f91836120bb575b50505f19600383901b1c191690831b1783555b51151591019060ff801983541691151516179055565b5f52600d84525f85812055155f1461208e57509185917ff9d17eb1340ab78960b594ff8bed1349985b800ee21199c6d5ea4a67454593ad936120505f988888614fcb565b612068575b610ec4825193838594855284019061405f565b858752600a815261207b85838920614322565b612086600b5461435e565b600b55612055565b95949392505084518186012090845190850120036120a857005b6120b661054c948383614caf565b614fcb565b015190505f80611fe3565b90601f19831691865f528b5f20925f5b8d8282106121195750509186959492918361200c9998959310612101575b505050811b018355611ff6565b01515f1960f88460031b161c191690555f80806120f4565b8385015186559488019493840193016120d6565b855f528a5f20601f840160051c8101918c8510612169575b601f0160051c019085905b82811061215e575050611fc5565b5f8155018590612150565b9091508190612145565b604190634e487b7160e01b5f525260245ffd5b835162461bcd60e51b8152908101839052601a60248201527f5265636f726420616c726561647920696e697469616c697a65640000000000006044820152606490fd5b5060088352835f205415611f4e565b835162461bcd60e51b8152908101839052601860248201527f4d75737420626520616e20616374697665206d656d62657200000000000000006044820152606490fd5b823461035e578060031936011261035e576001600160401b0390823582811161035e573660238201121561035e578084013592831161035e5760246005943660248660051b8501011161035e575f546001600160a01b0396602435959161228590891633146143b6565b86156123e0576122968615156147e4565b855f526002936020936002855260ff845f205416906006821015610768575015955f5b8981106122c257005b8281851b83010135908b82169182810361035e57826123488c926122e9600196151561479f565b825f5261233986808d526123008c5f205415614827565b8b519061230c82613c75565b8682528d8181840191818352885f52528d5f209251835551151591019060ff801983541691151516179055565b835f5260038b52895f206142a0565b8215806123d9575b156123ac57815f52898952875f208a60ff19825416179055612371826142db565b61237b875461435e565b87557f39d132591ee0696de49ab564e4a90e430c006561917db731a2a614dd2d245591898951428152a35b016122b9565b7f1cc138f50384be7770a8e4a34eecaa0d0c718bfaa1641af49db32532e4a5b910898951428152a36123a6565b508a612350565b815162461bcd60e51b81526020818501526013602482015272139bc81dd85b1b195d1cc81c1c9bdd9a591959606a1b6044820152606490fd5b90503461035e57602090602060031936011261035e57355f52600a602052815f209180519182602085549182815201945f5260205f20915f905b82821061246b576105de86866108cb828b0383613cda565b835487529586019560019384019390910190612453565b823461035e5760209061129e61249736613f6f565b90614e3e565b823461035e576124ac36613f6f565b91905f526007602052805f20805483101561035e57602092610350916140bd565b823461035e576124dc36613f6f565b905f52600e602052815f20905f52602052805f20908051916124fd83613c75565b549161250c60ff841682614502565b61252060ff602083019460081c168461450e565b518381101561173157600214918261253f575b60208383519015158152f35b9091505191600383101561076857506002602092149083612533565b823461035e575f36600319011261035e577f00000000000000000000000000000000000000000000000000000000000000006001600160a01b031630036125c557602090517f360894a13ba1a3210667c828492db98dca3e2076cc3735a920a3ca505d382bbc8152f35b5163703e46dd60e11b8152fd5b823461035e576125e136613dd5565b926125ee6103fd3361495f565b6125fb8351855114614177565b335f5260019384936020906001602052835f20549460018060a01b03165f52835f20549361262a8515156141bb565b5f965b61263357005b815187101561054c57878761265261264c839a88614380565b51614d88565b15612725576126658861045c8387614380565b156127255787878585848a8a61267f8661045c8588614380565b15612719576126bf836126b8816126b26126c69860068c976126a88f9b61048a8f918c92614380565b5f52525f20613fbd565b98614380565b5193614380565b5191614a66565b7f3af67cf2057ba8ef414286fb626cd3efb02f74996e18efd455b39d8ec7ec460f6126f18589614380565b51916126fd868c614380565b5161270e89519283924291846146cd565b0390a45b019661262d565b50505050505050612712565b612712565b90508160031936011261035e5761273f613c49565b916024356001600160401b03811161035e573660238201121561035e5761276f9036906024818601359101613d72565b906001600160a01b037f000000000000000000000000000000000000000000000000000000000000000081163081149081156128f9575b506128e9576127b9815f541633146143b6565b8416918151946352d1902d60e01b86526020868681875afa5f96816128b5575b506127f557505051634c9c8ce360e01b81529182015260249150fd5b838593877f360894a13ba1a3210667c828492db98dca3e2076cc3735a920a3ca505d382bbc9081810361289f5750833b156128885780546001600160a01b0319168317905551907fbc7cd75a20ee27fd9adebab32041f755214dbc6bffa90cc0225b39da2e5c2d3b5f80a2825115612872575061054c92506150e5565b9150503461287c57005b63b398979f60e01b8152fd5b8151634c9c8ce360e01b8152808701849052602490fd5b86602491845191632a87526960e21b8352820152fd5b9096506020813d6020116128e1575b816128d160209383613cda565b8101031261035e5751955f6127d9565b3d91506128c4565b815163703e46dd60e11b81528490fd5b9050817f360894a13ba1a3210667c828492db98dca3e2076cc3735a920a3ca505d382bbc541614155f6127a6565b90503461035e5761293736613edd565b916129446103fd3361495f565b335f526001602052835f205492825f52600e602052845f20845f52602052845f20805460ff81168481101561170a57600261297f9114614873565b60038310156117315760081c60ff16926003841015610768578360ff841610156129d557507fb36ec3c738ef8ecd9180addc815304762374b76e91c2a321831d9906ea119ade93949561190f8361191b93614532565b608490602088519162461bcd60e51b8352820152602360248201527f43616e206f6e6c7920646f776e677261646520746f2061206c6f776572206c656044820152621d995b60ea1b6064820152fd5b90503461035e578160031936011261035e57612a3e613c49565b916024359260018060a01b03612a58815f541633146143b6565b811692612a6684151561479f565b612a718515156147e4565b835f52612ad660209260018452612a8b855f205415614827565b612ac78551612a9981613c75565b8881526001868201818152895f52818852885f209251835551151591019060ff801983541691151516179055565b865f5260038452845f206142a0565b845f526002825260ff835f2054169060068210156107685750612b48577f39d132591ee0696de49ab564e4a90e430c006561917db731a2a614dd2d24559191845f5260028252805f20600260ff19825416179055612b33856142db565b612b3e60055461435e565b60055551428152a3005b7f1cc138f50384be7770a8e4a34eecaa0d0c718bfaa1641af49db32532e4a5b9109151428152a3005b823461035e57602036600319011261035e5760209061129e611f32613c49565b823461035e57602090612ba661197836613f6f565b5f52600682526105de815f20918051612bbe81613c75565b60ff6001612bcb86613fbd565b9586845201541615159485910152519283928361409d565b823461035e578060031936011261035e57612c0a6105de92612c03613c5f565b9035614727565b929091519283928361409d565b90503461035e57602090602060031936011261035e57355f526008602052815f209180519182602085549182815201945f5260205f20915f905b828210612c69576105de86866108cb828b0383613cda565b835487529586019560019384019390910190612c51565b823461035e5760209061129e612c9536613f2d565b916146fb565b90503461035e57602036600319011261035e57355f526006602052805f206105de60ff6001612cc984613fbd565b9301541692519283928361409d565b823461035e57612ce736613f6f565b905f52600f602052815f20905f52602052805f20906105de6060825193612d0d85613ca4565b805493848652600182015495866020820152600360028401549384848401520154938491015251948594859094939260609260808301968352602083015260408201520152565b823461035e5760208060031936011261035e57823591612d75831515614551565b335f5260018252805f205493612d93612d8c614683565b8686614de0565b15612e8457835f52600783526001825f20541160088452825f205415158115612e7c575b5015612e215750907f68f37cc4a32f0b24153ce9237b344b20a9717039f90d7c24f35e5c217f03e16891612deb8585614c7b565b612dfd612df6614683565b8787614caf565b5f52600682526001815f200160ff198154169055600d82525f8181205551428152a3005b82608492519162461bcd60e51b8352820152603160248201527f43616e6e6f74206c65617665206173206c617374206f776e65722077697468206044820152706e6f2061646d696e6973747261746f727360781b6064820152fd5b905086612db7565b82608492519162461bcd60e51b8352820152602360248201527f596f7520617265206e6f7420616e206f776e6572206f662074686973207265636044820152621bdc9960ea1b6064820152fd5b90503461035e57612ee136613f2d565b9390612eef6103fd3361495f565b612efa831515614551565b6001600160a01b031693612f0f85151561459d565b612f1b6109a782614d88565b335f5260209160018352805f2054955f52805f205494612f3c8615156141bb565b82518484012093612f4d8787614c7b565b805f5260068252612f6660ff6001865f2001541661462b565b5f5260068152612f77835f20613fbd565b94855182870120908082146133ba57612f8e614683565b838151910120821461334657875f5260078352845f205415918215612fbb612fb4614683565b8d8c614de0565b90612fcf8d612fc86146a4565b908d614de0565b90612fd8614683565b805190880120850361318d571561312f5750156130ed575b612ff86146a4565b8481519101201490816130d6575b50613053575b5050509061304e7f3af67cf2057ba8ef414286fb626cd3efb02f74996e18efd455b39d8ec7ec460f939261304288848989614a66565b519283924291846146cd565b0390a4005b61305e575b8061300c565b855f52600881526001835f20541161305857608492519162461bcd60e51b8352820152603960248201527f43616e6e6f742064656d6f746520746865206c6173742061646d696e6973747260448201527f61746f72207768656e206e6f206f776e657220657869737473000000000000006064820152fd5b90506130e0614394565b838151910120145f613006565b50505080606493519262461bcd60e51b845283015260248201527f4f6e6c79206f776e6572732063616e2070726f6d6f746520746f206f776e65726044820152fd5b9050612ff0575050925162461bcd60e51b815291820152602b60248201527f4f6e6c792061646d696e6973747261746f72732063616e2070726f6d6f74652060448201526a3334b939ba1037bbb732b960a91b606482015260849150fd5b6131956146a4565b805190880120850361322057508115613218575b50612ff0575050925162461bcd60e51b815291820152603b60248201527f4f6e6c79206f776e65727320616e642061646d696e6973747261746f7273206360448201527f616e2070726f6d6f746520746f2061646d696e6973747261746f720000000000606482015260849150fd5b90505f6131a9565b613228614394565b878151910120851461323d575b505050612ff0565b156132eb5781156132d4575b5015613258575b5f8080613235565b5050925162461bcd60e51b815291820152604960248201527f4f6e6c79206f776e6572732063616e2064656d6f7465206f74686572732e204160448201527f646d696e6973747261746f72732063616e206f6e6c792064656d6f746520746860648201526832b6b9b2b63b32b99760b91b608482015260a49150fd5b9050806132e2575b5f613249565b50898b146132dc565b9050613250575050925162461bcd60e51b815291820152602860248201527f4f6e6c792061646d696e6973747261746f72732063616e2064656d6f7465207460448201526737903b34b2bbb2b960c11b606482015260849150fd5b505060a492519162461bcd60e51b8352820152604360248201527f4f776e6572732063616e6e6f742062652064656d6f7465642e204f776e65722060448201527f6d75737420766f6c756e746172696c792072656d6f7665207468656d73656c7660648201526232b99760e91b6084820152fd5b5050606492519162461bcd60e51b8352820152601c60248201527f54617267657420616c726561647920686173207468697320726f6c65000000006044820152fd5b823461035e57602036600319011261035e5760209061129e61341c613c49565b614d32565b823461035e5761343036613efc565b61343f6103fd9392933361495f565b335f526001928392602090848252805f20549261345e8151151561425e565b5f955b61346757005b805186101561054c578686868661347f849a86614380565b51805f52600f8852865f20835f528852865f20875161349d81613ca4565b815490818152878301548b82015260606003600285015494858d850152015491015215613597576134d66134cf614683565b8484614de0565b908115613584575b831415908161357b575b50613573576134f78382614c7b565b805f52600690818a5260ff878a5f20015416613540575b50507fa232dcffab2d4f0f085a4d88bc617cd25ded7d3b8d8952e99d788ca25d4435b0888851428152a45b0195613461565b61355261354b614394565b8685614caf565b5f52885284875f200160ff198154169055600d88525f878120558c8061350e565b505050613539565b9050158d6134e8565b90506135916134cf6146a4565b906134de565b50505050613539565b823461035e576135af36613edd565b90916135bd6103fd3361495f565b335f5260209160018352815f2054926135d7851515614433565b6135e385851415614471565b845f526002815260ff835f20541660068110156107ea576136059015156144bd565b835f52600e8152825f20855f52815260ff835f205416868110156107ea5780159081156136fc575b50156136ba57825161363e81613c75565b6001815281810161364f848261450e565b855f52600e8352845f20875f528352845f2091518881101561077b57613675908361451a565b5196600388101561076857507f494d010fdf588a0e83d626ea6963187bdda6f88b7007f7bf280683d3f7dea8349495966136ae91614532565b6117de83518093614107565b8560649184519162461bcd60e51b8352820152601760248201527f50726f706f73616c20616c7265616479206578697374730000000000000000006044820152fd5b60039150148761362d565b823461035e57602036600319011261035e57613721613c49565b5f546001600160a01b03919061373a90831633146143b6565b16805f526001602052613751825f205415156143ef565b805f52600160205260ff6001835f200154161561378157600192505f52816020525f200160ff1981541690555f80f35b815162461bcd60e51b8152602081850152601760248201527f57616c6c657420616c726561647920696e6163746976650000000000000000006044820152606490fd5b823461035e5760a036600319011261035e5781356001600160401b03811161035e576137f39036908401613d12565b906137fc613c5f565b60443591606435936084356138136103fd3361495f565b335f52600195602091878352845f2054956138308551151561425e565b6001600160a01b038116908115613aef578815613ab9578215613a7657815f5289855288875f205480155f14613a0c5750506138a26138b1928b89519161387683613c75565b8c8352888301908282525f528189528a5f209251835551151591019060ff801983541691151516179055565b885f5260038552865f206142a0565b865f5260028352845f20600560ff198254161790556138cf876142db565b6138da60055461435e565b6005555b4201928342116139f9578798505f975b6138f457005b805188101561054c578888888861390c849c86614380565b516139178282614c7b565b5f5289888a60068083528a60ff94858b825f20015416156139eb577f140d483f221b1b41aa3142be8c182589305145aafe83bed53b908d6baff35c1d956003936139618b8a614c7b565b5f5286528b825f20015416156139d3575b80519361397e85613ca4565b42855285850190815281850191898352606096878701948552895f52600f8152815f20908c5f52525f2094518555518b850155516002840155519101558b518981528b8b820152428d820152a45b01976138ee565b6139e6886139df614394565b8b8a614a66565b613972565b5050505050505050506139cc565b601189634e487b7160e01b5f525260245ffd5b1491506138de905057845162461bcd60e51b8152808a01849052603560248201527f47756573742077616c6c657420616c7265616479207265676973746572656420604482015274746f20646966666572656e74206964656e7469747960581b6064820152608490fd5b865162461bcd60e51b8152808c01869052601960248201527f4475726174696f6e206d75737420626520706f736974697665000000000000006044820152606490fd5b865162461bcd60e51b8152808c01869052601060248201526f125b9d985b1a590819dd595cdd08125160821b6044820152606490fd5b865162461bcd60e51b8152808c018690526014602482015273125b9d985b1a590819dd595cdd081dd85b1b195d60621b6044820152606490fd5b823461035e578060031936011261035e5761129e602092613b48613c5f565b9035614207565b90503461035e57602090602060031936011261035e57355f526009602052815f209180519182602085549182815201945f5260205f20915f905b828210613ba1576105de86866108cb828b0383613cda565b835487529586019560019384019390910190613b89565b823461035e5761054c90613bcb36613dd5565b919092613bda6103fd3361495f565b613be78251845114614177565b335f9081526001602052818120546001600160a01b039095168152205490613c108215156141bb565b6149e7565b83903461035e57602036600319011261035e576020916001600160a01b03613c3b613c49565b165f52600183525f20548152f35b600435906001600160a01b038216820361035e57565b602435906001600160a01b038216820361035e57565b604081019081106001600160401b03821117613c9057604052565b634e487b7160e01b5f52604160045260245ffd5b608081019081106001600160401b03821117613c9057604052565b602081019081106001600160401b03821117613c9057604052565b90601f801991011681019081106001600160401b03821117613c9057604052565b6001600160401b038111613c905760051b60200190565b9080601f8301121561035e576020908235613d2c81613cfb565b93613d3a6040519586613cda565b81855260208086019260051b82010192831161035e57602001905b828210613d63575050505090565b81358152908301908301613d55565b9291926001600160401b038211613c905760405191613d9b601f8201601f191660200184613cda565b82948184528183011161035e578281602093845f960137010152565b9080601f8301121561035e57816020613dd293359101613d72565b90565b606060031982011261035e576001600160401b039160043583811161035e5782613e0191600401613d12565b9260249283356001600160a01b038116810361035e57936044359280841161035e578260238501121561035e578360040135613e3c81613cfb565b94613e4a6040519687613cda565b8186526020946024602088019360051b8301019481861161035e5760248301935b868510613e7d57505050505050505090565b843586811161035e578891613e9785858594890101613db7565b815201940193613e6b565b60209060206040818301928281528551809452019301915f5b828110613ec9575050505090565b835185529381019392810192600101613ebb565b604090600319011261035e5760043590602435600381101561035e5790565b604060031982011261035e57600435906001600160401b03821161035e57613f2691600401613d12565b9060243590565b606060031982011261035e57600435916024356001600160a01b038116810361035e5791604435906001600160401b03821161035e57613dd291600401613db7565b604090600319011261035e576004359060243590565b90600182811c92168015613fb3575b6020831014613f9f57565b634e487b7160e01b5f52602260045260245ffd5b91607f1691613f94565b9060405191825f8254613fcf81613f85565b908184526020946001916001811690815f1461403d5750600114613fff575b505050613ffd92500383613cda565b565b5f90815285812095935091905b818310614025575050613ffd93508201015f8080613fee565b8554888401850152948501948794509183019161400c565b92505050613ffd94925060ff191682840152151560051b8201015f8080613fee565b91908251928382525f5b848110614089575050825f602080949584010152601f8019910116010190565b602081830181015184830182015201614069565b906140b560209194939460408452604084019061405f565b931515910152565b80548210156140d2575f5260205f2001905f90565b634e487b7160e01b5f52603260045260245ffd5b9060068210156140f35752565b634e487b7160e01b5f52602160045260245ffd5b9060038210156140f35752565b909291604082019360048110156140f3578252613ffd9160200190614107565b1561413b57565b60405162461bcd60e51b81526020600482015260146024820152732737ba1030b71030b1ba34bb329036b2b6b132b960611b6044820152606490fd5b1561417e57565b60405162461bcd60e51b8152602060048201526015602482015274082e4e4c2f240d8cadccee8d040dad2e6dac2e8c6d605b1b6044820152606490fd5b156141c257565b60405162461bcd60e51b815260206004820152601c60248201527f5461726765742077616c6c6574206e6f742072656769737465726564000000006044820152606490fd5b6001600160a01b039091165f9081526001602052604090205490811561425857614239614232614683565b8383614de0565b91821561424557505090565b613dd292506142526146a4565b91614de0565b50505f90565b1561426557565b60405162461bcd60e51b8152602060048201526013602482015272139bc81c9958dbdc991cc81c1c9bdd9a591959606a1b6044820152606490fd5b8054600160401b811015613c90576142bd916001820181556140bd565b60018060a09493941b038084549260031b9316831b921b1916179055565b600454600160401b811015613c905760018101806004558110156140d25760045f527f8a35acfbc15ff81a39ae7d344fd709f28e8600b4aa8c65c6b64bfe7fe36bd19b0155565b805490600160401b821015613c90578161434491600161435a940181556140bd565b819391549060031b91821b915f19901b19161790565b9055565b5f19811461436c5760010190565b634e487b7160e01b5f52601160045260245ffd5b80518210156140d25760209160051b010190565b604051906143a182613c75565b60068252653b34b2bbb2b960d11b6020830152565b156143bd57565b60405162461bcd60e51b815260206004820152600a60248201526927b7363c9030b236b4b760b11b6044820152606490fd5b156143f657565b60405162461bcd60e51b815260206004820152601560248201527415d85b1b195d081b9bdd081c9959da5cdd195c9959605a1b6044820152606490fd5b1561443a57565b60405162461bcd60e51b815260206004820152600f60248201526e496e76616c6964207472757374656560881b6044820152606490fd5b1561447857565b60405162461bcd60e51b815260206004820152601760248201527f43616e6e6f74206170706f696e7420796f757273656c660000000000000000006044820152606490fd5b156144c457565b60405162461bcd60e51b8152602060048201526016602482015275151c9d5cdd1959481b9bdd081c9959da5cdd195c995960521b6044820152606490fd5b60048210156140f35752565b60038210156140f35752565b9060048110156140f35760ff80198354169116179055565b9060038110156140f35761ff0082549160081b169061ff001916179055565b1561455857565b60405162461bcd60e51b815260206004820152601e60248201527f5265636f726420494420686173682063616e6e6f7420626520656d70747900006044820152606490fd5b156145a457565b60405162461bcd60e51b815260206004820152601d60248201527f57616c6c657420616464726573732063616e6e6f74206265207a65726f0000006044820152606490fd5b156145f057565b60405162461bcd60e51b8152602060048201526013602482015272496e76616c696420726f6c6520737472696e6760681b6044820152606490fd5b1561463257565b60405162461bcd60e51b815260206004820152602360248201527f54617267657420646f6573206e6f74206861766520616e2061637469766520726044820152626f6c6560e81b6064820152608490fd5b6040519061469082613c75565b600582526437bbb732b960d91b6020830152565b604051906146b182613c75565b600d82526c30b236b4b734b9ba3930ba37b960991b6020830152565b9392916146f6906146e860409360608852606088019061405f565b90868203602088015261405f565b930152565b919060018060a01b03165f52600160205260405f2054801561472057613dd292614de0565b5050505f90565b6001600160a01b039091165f90815260016020526040902054908115614789576020929161475491614c7b565b5f526006825260405f2060405161476a81613c75565b60ff600161477784613fbd565b93848452015416151593849101529190565b505060405161479781613cbf565b5f8152905f90565b156147a657565b60405162461bcd60e51b8152602060048201526016602482015275496e76616c69642077616c6c6574206164647265737360501b6044820152606490fd5b156147eb57565b60405162461bcd60e51b8152602060048201526014602482015273092dcecc2d8d2c840eae6cae440928840d0c2e6d60631b6044820152606490fd5b1561482e57565b60405162461bcd60e51b815260206004820152601960248201527f57616c6c657420616c72656164792072656769737465726564000000000000006044820152606490fd5b1561487a57565b60405162461bcd60e51b815260206004820152601e60248201527f4e6f2061637469766520747275737465652072656c6174696f6e7368697000006044820152606490fd5b6148e06040929594936148d6836060810198614107565b6020830190614107565b0152565b156148eb57565b60405162461bcd60e51b815260206004820152600f60248201526e496e76616c6964206164647265737360881b6044820152606490fd5b6001600160a01b039091165f9081526001602052604090205480156142585761494a91614c7b565b5f52600660205260ff600160405f2001541690565b6001600160a01b03165f90815260016020526040902080549081159081156149d7575b506149d2575f52600260205260ff60405f205416600681101590816140f357600281149182156149c5575b82156149b857505090565b9091506140f35760041490565b506003811491505f6149ad565b505f90565b60ff91506001015416155f614982565b9392935f5b8151811015614a545780614a0561264c60019387614380565b15614a4f57614a188761045c8386614380565b15614a4f57614a2b8461045c8386614380565b614a4f57614a4987614a3d8386614380565b51866126bf858a614380565b016149ec565b614a49565b505050509050565b9061494a91614c7b565b929192614a738282614c7b565b93845f52602060068152604090815f2096614a8d88613fbd565b978851159160ff6001809301541691855190614aa882613c75565b878252858201818152835f5260068752875f2092518051906001600160401b038211613c9057614ad88554613f85565b601f8111614c35575b508890601f8311600114614be757614b2695949392915f91836120bb5750505f19600383901b1c191690831b17835551151591019060ff801983541691151516179055565b5f52600d835287845f2055155f14614bb25785969750614b698486977ff9d17eb1340ab78960b594ff8bed1349985b800ee21199c6d5ea4a67454593ad97614fcb565b614b8c575b614b81825193838594855284019061405f565b9042908301520390a4565b855f52600a8152614b9f85835f20614322565b614baa600b5461435e565b600b55614b6e565b50919450508451818601209084519085012003614bd0575b50505050565b6120b6614bde948383614caf565b5f808080614bca565b90601f19831691865f528a5f20925f5b8c828210614c2157505091869594929183614b26999895931061210157505050811b018355611ff6565b838501518655948801949384019301614bf7565b855f52895f20601f840160051c8101918b8510614c71575b601f0160051c019085905b828110614c66575050614ae1565b5f8155018590614c58565b9091508190614c4d565b906040519060208201928352604082015260408152606081018181106001600160401b03821117613c905760405251902090565b8251602080940120614cbf614683565b8051908501208103614cdf5750613ffd926007915f525260405f2061504e565b614ce76146a4565b8051908501208103614d075750613ffd926008915f525260405f2061504e565b614d0f614394565b84815191012014614d1f57505050565b613ffd926009915f525260405f2061504e565b6001600160a01b03165f9081526001602052604090208054908115908115614d78575b506149d2575f52600260205260ff60405f20541660068110156140f35760041490565b60ff91506001015416155f614d55565b60208151910120614d97614683565b602081519101208114908115614dc7575b8115614db2575090565b9050614dbc614394565b602081519101201490565b9050614dd16146a4565b60208151910120811490614da8565b60209291614ded91614c7b565b5f526006825260405f20604051614e0381613c75565b60ff6001614e1084613fbd565b938484520154161515938491015282614e2857505090565b9091506020815191012090602081519101201490565b600c546001600160a01b0316918215614720576044602092604051948593849263193d8e7560e21b8452600484015260248301525afa908115614ebd575f91614e85575090565b90506020813d602011614eb5575b81614ea060209383613cda565b8101031261035e5751801515810361035e5790565b3d9150614e93565b6040513d5f823e3d90fd5b60038310156140f3578215614f1357600191614ee391614f74565b9114614eec5790565b80516020820120614efb614683565b6020815191012014614f0a5790565b50613dd26146a4565b505050613dd2614394565b6001600160a01b03165f9081526001602052604090208054908115908115614f64575b506149d2575f52600260205260ff60405f20541660068110156140f35760031490565b60ff91506001015416155f614f41565b90614f7e91614c7b565b5f52600660205260405f2060ff600160405192614f9a84613c75565b614fa381613fbd565b84520154161580156020830152614fb8575190565b50604051614fc581613cbf565b5f815290565b8251602080940120614fdb614683565b8051908501208103614ffb5750613ffd926007915f525260405f20614322565b6150036146a4565b80519085012081036150235750613ffd926008915f525260405f20614322565b61502b614394565b8481519101201461503b57505050565b613ffd926009915f525260405f20614322565b5f5b81549081811015614bca57839161506782856140bd565b959054600396871b1c146150815750909250600101615050565b5f19925082810190811161436c5761434461509f6150ac92866140bd565b905490871b1c92856140bd565b9055815480156150d1578101926150c384846140bd565b81939154921b1b1916905555565b634e487b7160e01b5f52603160045260245ffd5b905f8091602081519101845af48080615163575b156151195750506040513d81523d5f602083013e60203d82010160405290565b1561514057604051639996b31560e01b81526001600160a01b039091166004820152602490fd5b3d15615151576040513d5f823e3d90fd5b60405163d6bda27560e01b8152600490fd5b503d1515806150f95750813b15156150f956fea2646970667358221220e24664e14a2aff16f6bdcee5fe6227384a5a2b82bc05f9fb2e6b8a598e38a7a564736f6c63430008180033","opcodes":"PUSH1 0xA0 DUP1 PUSH1 0x40 MSTORE CALLVALUE PUSH3 0xD1 JUMPI ADDRESS PUSH1 0x80 MSTORE PUSH32 0xF0C57E16840DF040F15088DC2F81FE391C3923BEC73E23A9662EFC9C229C6A00 SWAP1 DUP2 SLOAD SWAP1 PUSH1 0xFF DUP3 PUSH1 0x40 SHR AND PUSH3 0xC2 JUMPI POP PUSH1 0x1 PUSH1 0x1 PUSH1 0x40 SHL SUB PUSH1 0x2 PUSH1 0x1 PUSH1 0x40 SHL SUB NOT DUP3 DUP3 AND ADD PUSH3 0x7C JUMPI JUMPDEST PUSH1 0x40 MLOAD PUSH2 0x51AC SWAP1 DUP2 PUSH3 0xD6 DUP3 CODECOPY PUSH1 0x80 MLOAD DUP2 DUP2 DUP2 PUSH2 0x256E ADD MSTORE PUSH2 0x277A ADD MSTORE RETURN JUMPDEST PUSH1 0x1 PUSH1 0x1 PUSH1 0x40 SHL SUB NOT SWAP1 SWAP2 AND DUP2 OR SWAP1 SWAP2 SSTORE PUSH1 0x40 MLOAD SWAP1 DUP2 MSTORE PUSH32 0xC7F505B2F371AE2175EE4913F4499E1F2633A7B5936321EED1CDAEB6115181D2 SWAP1 PUSH1 0x20 SWAP1 LOG1 PUSH0 DUP1 DUP1 PUSH3 0x5C JUMP JUMPDEST PUSH4 0xF92EE8A9 PUSH1 0xE0 SHL DUP2 MSTORE PUSH1 0x4 SWAP1 REVERT JUMPDEST PUSH0 DUP1 REVERT INVALID PUSH1 0x80 PUSH1 0x40 SWAP1 DUP1 DUP3 MSTORE PUSH1 0x4 DUP1 CALLDATASIZE LT ISZERO PUSH2 0x15 JUMPI PUSH0 DUP1 REVERT JUMPDEST PUSH0 CALLDATALOAD PUSH1 0xE0 SHR SWAP2 DUP3 PUSH3 0xB0C809 EQ PUSH2 0x3C15 JUMPI POP DUP2 PUSH4 0x2BA8109 EQ PUSH2 0x3BB8 JUMPI DUP2 PUSH4 0x33E822F EQ PUSH2 0x3B4F JUMPI DUP2 PUSH4 0x519E2A0 EQ PUSH2 0x3B29 JUMPI DUP2 PUSH4 0x591BDF4 EQ PUSH2 0x37C4 JUMPI DUP2 PUSH4 0xB3FFD1D EQ PUSH2 0x3707 JUMPI DUP2 PUSH4 0x1C0C18D8 EQ PUSH2 0x35A0 JUMPI DUP2 PUSH4 0x1DC63201 EQ PUSH2 0x3421 JUMPI DUP2 PUSH4 0x259ED80E EQ PUSH2 0x33FC JUMPI DUP2 PUSH4 0x29C9087A EQ PUSH2 0x2ED1 JUMPI DUP2 PUSH4 0x2AE8511D EQ PUSH2 0x2D54 JUMPI DUP2 PUSH4 0x3256E5AB EQ PUSH2 0x2CD8 JUMPI DUP2 PUSH4 0x33105592 EQ PUSH2 0x2C9B JUMPI DUP2 PUSH4 0x3BEFA410 EQ PUSH2 0x2C80 JUMPI DUP2 PUSH4 0x41A51BAA EQ PUSH2 0x2C17 JUMPI DUP2 PUSH4 0x422A5BB8 EQ PUSH2 0x2BE3 JUMPI DUP2 PUSH4 0x43E19704 EQ PUSH2 0x2B91 JUMPI DUP2 PUSH4 0x45ECD02F EQ PUSH2 0x2B71 JUMPI DUP2 PUSH4 0x49DF7208 EQ PUSH2 0x2A24 JUMPI DUP2 PUSH4 0x4B6FEB7C EQ PUSH2 0x1E2D JUMPI DUP2 PUSH4 0x4D3C4A7C EQ PUSH2 0x2927 JUMPI DUP2 PUSH4 0x4F1EF286 EQ PUSH2 0x272A JUMPI DUP2 PUSH4 0x51EED472 EQ PUSH2 0x25D2 JUMPI DUP2 PUSH4 0x52D1902D EQ PUSH2 0x255B JUMPI DUP2 PUSH4 0x557EE54F EQ PUSH2 0x24CD JUMPI DUP2 PUSH4 0x55816079 EQ PUSH2 0x249D JUMPI DUP2 PUSH4 0x562C788E EQ PUSH2 0x5E2 JUMPI DUP2 PUSH4 0x64F639D4 EQ PUSH2 0x2482 JUMPI DUP2 PUSH4 0x6544B05B EQ PUSH2 0x2419 JUMPI DUP2 PUSH4 0x69AC2022 EQ PUSH2 0x221B JUMPI DUP2 PUSH4 0x6B4BED97 EQ PUSH2 0x389 JUMPI DUP2 PUSH4 0x726D5447 EQ PUSH2 0x1EC9 JUMPI DUP2 PUSH4 0x75829DEF EQ PUSH2 0x1E4B JUMPI DUP2 PUSH4 0x790E118C EQ PUSH2 0x1E2D JUMPI DUP2 PUSH4 0x7B657D07 EQ PUSH2 0x1DF0 JUMPI DUP2 PUSH4 0x8129FC1C EQ PUSH2 0x1CD3 JUMPI DUP2 PUSH4 0x8776CD35 EQ PUSH2 0x1CA3 JUMPI DUP2 PUSH4 0x89B08F11 EQ PUSH2 0x1C5E JUMPI DUP2 PUSH4 0x8DB7EDB4 EQ PUSH2 0x1C19 JUMPI DUP2 PUSH4 0x93CCFBA8 EQ PUSH2 0x1BE9 JUMPI DUP2 PUSH4 0x9443CD80 EQ PUSH2 0x1BA3 JUMPI DUP2 PUSH4 0x96207E02 EQ PUSH2 0x1A52 JUMPI DUP2 PUSH4 0x9915B91F EQ PUSH2 0x19DB JUMPI DUP2 PUSH4 0x9BE572F6 EQ PUSH2 0x1516 JUMPI DUP2 PUSH4 0x9F4216E8 EQ PUSH2 0x198F JUMPI DUP2 PUSH4 0xAADDC345 EQ PUSH2 0x1963 JUMPI DUP2 PUSH4 0xAB48384A EQ PUSH2 0x1863 JUMPI DUP2 PUSH4 0xAD3CB1CC EQ PUSH2 0x181F JUMPI DUP2 PUSH4 0xB8CAB84B EQ PUSH2 0x1744 JUMPI DUP2 PUSH4 0xBAFC8892 EQ PUSH2 0x15EB JUMPI DUP2 PUSH4 0xBB0F86D5 EQ PUSH2 0x1534 JUMPI DUP2 PUSH4 0xBFF1F9E1 EQ PUSH2 0x1516 JUMPI DUP2 PUSH4 0xC36DC9EF EQ PUSH2 0x14AD JUMPI DUP2 PUSH4 0xC7155823 EQ PUSH2 0x1431 JUMPI DUP2 PUSH4 0xC88C35FE EQ PUSH2 0x140B JUMPI DUP2 PUSH4 0xC979C9BF EQ PUSH2 0x12A7 JUMPI DUP2 PUSH4 0xCB261A03 EQ PUSH2 0x1279 JUMPI DUP2 PUSH4 0xCDA06C6E EQ PUSH2 0x1252 JUMPI DUP2 PUSH4 0xD12A7768 EQ PUSH2 0x11A3 JUMPI DUP2 PUSH4 0xD547741F EQ PUSH2 0xD9B JUMPI DUP2 PUSH4 0xDDE492EA EQ PUSH2 0x95C JUMPI DUP2 PUSH4 0xE211E89C EQ PUSH2 0x8EC JUMPI DUP2 PUSH4 0xE2842D79 EQ PUSH2 0x86C JUMPI DUP2 PUSH4 0xE6EFCD5D EQ PUSH2 0x60A JUMPI DUP2 PUSH4 0xE94ED257 EQ PUSH2 0x5E2 JUMPI DUP2 PUSH4 0xEEC047AA EQ PUSH2 0x582 JUMPI DUP2 PUSH4 0xF12B9AD3 EQ PUSH2 0x3BA JUMPI DUP2 PUSH4 0xF29E007B EQ PUSH2 0x389 JUMPI POP DUP1 PUSH4 0xF851A440 EQ PUSH2 0x362 JUMPI PUSH4 0xFA7A6BCC EQ PUSH2 0x321 JUMPI PUSH0 DUP1 REVERT JUMPDEST CALLVALUE PUSH2 0x35E JUMPI PUSH2 0x32F CALLDATASIZE PUSH2 0x3F6F JUMP JUMPDEST SWAP2 SWAP1 PUSH0 MSTORE PUSH1 0xA PUSH1 0x20 MSTORE DUP1 PUSH0 KECCAK256 DUP1 SLOAD DUP4 LT ISZERO PUSH2 0x35E JUMPI PUSH1 0x20 SWAP3 PUSH2 0x350 SWAP2 PUSH2 0x40BD JUMP JUMPDEST SWAP2 SWAP1 SLOAD SWAP1 MLOAD SWAP2 PUSH1 0x3 SHL SHR DUP2 MSTORE RETURN JUMPDEST PUSH0 DUP1 REVERT JUMPDEST POP CALLVALUE PUSH2 0x35E JUMPI PUSH0 CALLDATASIZE PUSH1 0x3 NOT ADD SLT PUSH2 0x35E JUMPI PUSH0 SLOAD SWAP1 MLOAD PUSH1 0x1 PUSH1 0x1 PUSH1 0xA0 SHL SUB SWAP1 SWAP2 AND DUP2 MSTORE PUSH1 0x20 SWAP1 RETURN JUMPDEST DUP3 CALLVALUE PUSH2 0x35E JUMPI PUSH1 0x20 CALLDATASIZE PUSH1 0x3 NOT ADD SLT PUSH2 0x35E JUMPI PUSH1 0x20 SWAP2 CALLDATALOAD PUSH0 MSTORE PUSH1 0x2 DUP3 MSTORE PUSH2 0x3B8 PUSH1 0xFF DUP3 PUSH0 KECCAK256 SLOAD AND SWAP2 MLOAD DUP1 SWAP3 PUSH2 0x40E6 JUMP JUMPDEST RETURN JUMPDEST DUP3 CALLVALUE PUSH2 0x35E JUMPI DUP1 PUSH1 0x3 NOT CALLDATASIZE ADD SLT PUSH2 0x35E JUMPI DUP2 CALLDATALOAD PUSH1 0x1 PUSH1 0x1 PUSH1 0x40 SHL SUB DUP2 GT PUSH2 0x35E JUMPI PUSH2 0x3E8 SWAP1 CALLDATASIZE SWAP1 DUP5 ADD PUSH2 0x3D12 JUMP JUMPDEST SWAP2 PUSH2 0x3F1 PUSH2 0x3C5F JUMP JUMPDEST PUSH2 0x402 PUSH2 0x3FD CALLER PUSH2 0x495F JUMP JUMPDEST PUSH2 0x4134 JUMP JUMPDEST PUSH1 0x1 PUSH1 0x1 PUSH1 0xA0 SHL SUB AND SWAP1 DUP2 ISZERO PUSH2 0x54E JUMPI POP CALLER PUSH0 MSTORE PUSH1 0x1 SWAP3 DUP4 SWAP3 PUSH1 0x20 SWAP1 PUSH1 0x1 DUP3 MSTORE DUP1 PUSH0 KECCAK256 SLOAD SWAP4 PUSH0 MSTORE DUP1 PUSH0 KECCAK256 SLOAD SWAP3 PUSH2 0x439 DUP5 ISZERO ISZERO PUSH2 0x41BB JUMP JUMPDEST PUSH0 SWAP6 JUMPDEST PUSH2 0x442 JUMPI STOP JUMPDEST DUP1 MLOAD DUP7 LT ISZERO PUSH2 0x54C JUMPI DUP7 DUP7 PUSH2 0x462 DUP7 PUSH2 0x45C DUP5 SWAP11 DUP7 PUSH2 0x4380 JUMP JUMPDEST MLOAD PUSH2 0x4A5C JUMP JUMPDEST ISZERO PUSH2 0x547 JUMPI PUSH2 0x475 DUP8 PUSH2 0x45C DUP4 DUP7 PUSH2 0x4380 JUMP JUMPDEST ISZERO PUSH2 0x547 JUMPI DUP7 DUP7 PUSH2 0x490 DUP2 PUSH2 0x48A DUP6 DUP9 PUSH2 0x4380 JUMP JUMPDEST MLOAD PUSH2 0x4C7B JUMP JUMPDEST DUP1 PUSH0 MSTORE PUSH1 0x6 DUP1 DUP10 MSTORE PUSH2 0x4A3 DUP9 PUSH0 KECCAK256 PUSH2 0x3FBD JUMP JUMPDEST SWAP2 DUP3 MLOAD DUP11 DUP5 ADD KECCAK256 PUSH2 0x4B2 PUSH2 0x4683 JUMP JUMPDEST DUP12 DUP2 MLOAD SWAP2 ADD KECCAK256 EQ PUSH2 0x53D JUMPI PUSH2 0x4D2 DUP4 DUP6 PUSH2 0x4CC DUP10 DUP13 PUSH2 0x4380 JUMP JUMPDEST MLOAD PUSH2 0x4CAF JUMP JUMPDEST PUSH0 MSTORE DUP9 MSTORE DUP5 DUP8 PUSH0 KECCAK256 ADD PUSH1 0xFF NOT DUP2 SLOAD AND SWAP1 SSTORE PUSH1 0xD DUP9 MSTORE PUSH0 DUP8 DUP2 KECCAK256 SSTORE PUSH32 0xD05ED2D3FEFF840C2ECECA71791388FD3D19DBBBBCFA97031F534A7DC09FBF1F PUSH2 0x52D PUSH2 0x51A DUP7 DUP10 PUSH2 0x4380 JUMP JUMPDEST MLOAD SWAP3 DUP10 MLOAD SWAP2 DUP3 SWAP2 DUP12 DUP4 MSTORE DUP12 DUP4 ADD SWAP1 PUSH2 0x405F JUMP JUMPDEST TIMESTAMP DUP13 DUP4 ADD MSTORE SUB SWAP1 LOG4 JUMPDEST ADD SWAP6 PUSH2 0x43C JUMP JUMPDEST POP POP POP POP POP PUSH2 0x536 JUMP JUMPDEST PUSH2 0x536 JUMP JUMPDEST STOP JUMPDEST PUSH1 0x64 SWAP1 PUSH1 0x20 DUP5 MLOAD SWAP2 PUSH3 0x461BCD PUSH1 0xE5 SHL DUP4 MSTORE DUP3 ADD MSTORE PUSH1 0xE PUSH1 0x24 DUP3 ADD MSTORE PUSH14 0x125B9D985B1A59081DD85B1B195D PUSH1 0x92 SHL PUSH1 0x44 DUP3 ADD MSTORE REVERT JUMPDEST DUP3 CALLVALUE PUSH2 0x35E JUMPI PUSH2 0x591 CALLDATASIZE PUSH2 0x3F6F JUMP JUMPDEST SWAP1 PUSH0 MSTORE PUSH1 0xF PUSH1 0x20 MSTORE DUP2 PUSH0 KECCAK256 SWAP1 PUSH0 MSTORE PUSH1 0x20 MSTORE DUP1 PUSH0 KECCAK256 SWAP1 PUSH2 0x5DE DUP3 SLOAD SWAP2 PUSH1 0x1 DUP5 ADD SLOAD SWAP4 PUSH1 0x3 PUSH1 0x2 DUP3 ADD SLOAD SWAP2 ADD SLOAD SWAP2 MLOAD SWAP5 DUP6 SWAP5 DUP6 SWAP1 SWAP5 SWAP4 SWAP3 PUSH1 0x60 SWAP3 PUSH1 0x80 DUP4 ADD SWAP7 DUP4 MSTORE PUSH1 0x20 DUP4 ADD MSTORE PUSH1 0x40 DUP3 ADD MSTORE ADD MSTORE JUMP JUMPDEST SUB SWAP1 RETURN JUMPDEST DUP3 CALLVALUE PUSH2 0x35E JUMPI PUSH0 CALLDATASIZE PUSH1 0x3 NOT ADD SLT PUSH2 0x35E JUMPI PUSH1 0xC SLOAD SWAP1 MLOAD PUSH1 0x1 PUSH1 0x1 PUSH1 0xA0 SHL SUB SWAP1 SWAP2 AND DUP2 MSTORE PUSH1 0x20 SWAP1 RETURN JUMPDEST DUP3 CALLVALUE PUSH2 0x35E JUMPI PUSH2 0x619 CALLDATASIZE PUSH2 0x3F6F JUMP JUMPDEST SWAP2 PUSH2 0x62E PUSH1 0x1 DUP1 PUSH1 0xA0 SHL SUB PUSH0 SLOAD AND CALLER EQ PUSH2 0x43B6 JUMP JUMPDEST DUP2 ISZERO PUSH2 0x838 JUMPI PUSH2 0x63F DUP4 ISZERO ISZERO PUSH2 0x4433 JUMP JUMPDEST PUSH2 0x64B DUP4 DUP4 EQ ISZERO PUSH2 0x4471 JUMP JUMPDEST DUP2 PUSH0 MSTORE PUSH1 0x2 PUSH1 0x20 DUP2 DUP2 MSTORE PUSH1 0xFF DUP4 PUSH0 KECCAK256 SLOAD AND PUSH1 0x6 DUP2 LT ISZERO PUSH2 0x7EA JUMPI ISZERO PUSH2 0x7FD JUMPI DUP5 PUSH0 MSTORE DUP2 DUP2 MSTORE PUSH1 0xFF DUP4 PUSH0 KECCAK256 SLOAD AND PUSH1 0x6 DUP2 LT ISZERO PUSH2 0x7EA JUMPI PUSH2 0x68B SWAP1 ISZERO ISZERO PUSH2 0x44BD JUMP JUMPDEST DUP4 PUSH0 MSTORE PUSH1 0xE DUP2 MSTORE DUP3 PUSH0 KECCAK256 DUP6 PUSH0 MSTORE DUP2 MSTORE PUSH1 0xFF DUP4 PUSH0 KECCAK256 SLOAD AND DUP7 DUP2 LT ISZERO PUSH2 0x7EA JUMPI DUP1 ISZERO SWAP1 DUP2 ISZERO PUSH2 0x7DF JUMPI JUMPDEST POP ISZERO PUSH2 0x78E JUMPI DUP3 MLOAD PUSH2 0x6C4 DUP2 PUSH2 0x3C75 JUMP JUMPDEST DUP3 DUP2 MSTORE DUP2 DUP2 ADD DUP4 DUP2 MSTORE DUP6 PUSH0 MSTORE PUSH1 0xE DUP4 MSTORE DUP5 PUSH0 KECCAK256 DUP8 PUSH0 MSTORE DUP4 MSTORE DUP5 PUSH0 KECCAK256 SWAP2 MLOAD DUP9 DUP2 LT ISZERO PUSH2 0x77B JUMPI PUSH2 0x6F3 SWAP1 DUP4 PUSH2 0x451A JUMP JUMPDEST MLOAD SWAP7 PUSH1 0x3 DUP9 LT ISZERO PUSH2 0x768 JUMPI POP PUSH32 0xC5B2E1BD4433EB4E9E181CC803520513D39D918C96BDDEEBCA1224E1C750963D SWAP5 SWAP6 SWAP7 PUSH2 0x72C SWAP2 PUSH2 0x4532 JUMP JUMPDEST DUP6 DUP6 PUSH32 0x494D010FDF588A0E83D626EA6963187BDDA6F88B7007F7BF280683D3F7DEA834 DUP6 DUP1 MLOAD DUP7 DUP2 MSTORE TIMESTAMP DUP7 DUP3 ADD MSTORE LOG3 DUP3 MLOAD SWAP2 DUP3 MSTORE TIMESTAMP SWAP1 DUP3 ADD MSTORE LOG3 STOP JUMPDEST PUSH1 0x21 SWAP1 PUSH4 0x4E487B71 PUSH1 0xE0 SHL PUSH0 MSTORE MSTORE PUSH1 0x24 PUSH0 REVERT JUMPDEST PUSH1 0x21 DUP10 PUSH4 0x4E487B71 PUSH1 0xE0 SHL PUSH0 MSTORE MSTORE PUSH1 0x24 PUSH0 REVERT JUMPDEST DUP6 PUSH1 0x84 SWAP2 DUP5 MLOAD SWAP2 PUSH3 0x461BCD PUSH1 0xE5 SHL DUP4 MSTORE DUP3 ADD MSTORE PUSH1 0x26 PUSH1 0x24 DUP3 ADD MSTORE PUSH32 0x52656C6174696F6E7368697020616C726561647920616374697665206F722070 PUSH1 0x44 DUP3 ADD MSTORE PUSH6 0x656E64696E67 PUSH1 0xD0 SHL PUSH1 0x64 DUP3 ADD MSTORE REVERT JUMPDEST PUSH1 0x3 SWAP2 POP EQ DUP8 PUSH2 0x6B3 JUMP JUMPDEST PUSH1 0x21 DUP8 PUSH4 0x4E487B71 PUSH1 0xE0 SHL PUSH0 MSTORE MSTORE PUSH1 0x24 PUSH0 REVERT JUMPDEST DUP6 PUSH1 0x64 SWAP2 DUP5 MLOAD SWAP2 PUSH3 0x461BCD PUSH1 0xE5 SHL DUP4 MSTORE DUP3 ADD MSTORE PUSH1 0x16 PUSH1 0x24 DUP3 ADD MSTORE PUSH22 0x151C9D5CDD1BDC881B9BDD081C9959DA5CDD195C9959 PUSH1 0x52 SHL PUSH1 0x44 DUP3 ADD MSTORE REVERT JUMPDEST MLOAD PUSH3 0x461BCD PUSH1 0xE5 SHL DUP2 MSTORE PUSH1 0x20 DUP2 DUP6 ADD MSTORE PUSH1 0xF PUSH1 0x24 DUP3 ADD MSTORE PUSH15 0x24B73B30B634B2103A393AB9BA37B9 PUSH1 0x89 SHL PUSH1 0x44 DUP3 ADD MSTORE PUSH1 0x64 SWAP1 REVERT JUMPDEST DUP3 CALLVALUE PUSH2 0x35E JUMPI PUSH0 CALLDATASIZE PUSH1 0x3 NOT ADD SLT PUSH2 0x35E JUMPI DUP1 MLOAD SWAP1 DUP2 DUP4 SLOAD DUP1 DUP3 MSTORE PUSH1 0x20 DUP1 SWAP3 ADD SWAP5 PUSH0 MSTORE PUSH32 0x8A35ACFBC15FF81A39AE7D344FD709F28E8600B4AA8C65C6B64BFE7FE36BD19B SWAP2 PUSH0 SWAP1 JUMPDEST DUP3 DUP3 LT PUSH2 0x8D5 JUMPI PUSH2 0x5DE DUP7 DUP7 PUSH2 0x8CB DUP3 DUP12 SUB DUP4 PUSH2 0x3CDA JUMP JUMPDEST MLOAD SWAP2 DUP3 SWAP2 DUP3 PUSH2 0x3EA2 JUMP JUMPDEST DUP4 SLOAD DUP8 MSTORE SWAP6 DUP7 ADD SWAP6 PUSH1 0x1 SWAP4 DUP5 ADD SWAP4 SWAP1 SWAP2 ADD SWAP1 PUSH2 0x8B3 JUMP JUMPDEST DUP3 CALLVALUE PUSH2 0x35E JUMPI PUSH1 0x20 SWAP1 PUSH2 0x8FE CALLDATASIZE PUSH2 0x3F6F JUMP JUMPDEST SWAP1 PUSH0 MSTORE PUSH1 0xF DUP4 MSTORE DUP2 PUSH0 KECCAK256 SWAP1 PUSH0 MSTORE DUP3 MSTORE DUP1 PUSH0 KECCAK256 SWAP1 DUP1 MLOAD PUSH2 0x91C DUP2 PUSH2 0x3CA4 JUMP JUMPDEST DUP3 SLOAD SWAP1 DUP2 DUP2 MSTORE PUSH1 0x60 PUSH1 0x3 PUSH1 0x1 DUP7 ADD SLOAD SWAP6 DUP7 DUP9 DUP6 ADD MSTORE PUSH1 0x2 DUP2 ADD SLOAD DUP7 DUP6 ADD MSTORE ADD SLOAD SWAP2 ADD MSTORE ISZERO ISZERO SWAP2 DUP3 PUSH2 0x951 JUMPI JUMPDEST POP MLOAD SWAP1 ISZERO ISZERO DUP2 MSTORE RETURN JUMPDEST TIMESTAMP GT ISZERO SWAP2 POP DUP4 PUSH2 0x948 JUMP JUMPDEST SWAP1 POP CALLVALUE PUSH2 0x35E JUMPI PUSH2 0x96C CALLDATASIZE PUSH2 0x3F2D JUMP JUMPDEST SWAP2 SWAP3 SWAP1 PUSH2 0x97B PUSH2 0x3FD CALLER PUSH2 0x495F JUMP JUMPDEST PUSH2 0x986 DUP5 ISZERO ISZERO PUSH2 0x4551 JUMP JUMPDEST PUSH1 0x1 PUSH1 0x1 PUSH1 0xA0 SHL SUB AND SWAP3 PUSH2 0x99B DUP5 ISZERO ISZERO PUSH2 0x459D JUMP JUMPDEST PUSH2 0x9AC PUSH2 0x9A7 DUP5 PUSH2 0x4D88 JUMP JUMPDEST PUSH2 0x45E9 JUMP JUMPDEST CALLER PUSH0 MSTORE PUSH1 0x20 SWAP2 PUSH1 0x1 DUP4 MSTORE DUP6 PUSH0 KECCAK256 SLOAD SWAP5 PUSH0 MSTORE DUP6 PUSH0 KECCAK256 SLOAD SWAP3 PUSH2 0x9CD DUP5 ISZERO ISZERO PUSH2 0x41BB JUMP JUMPDEST DUP5 MLOAD DUP2 DUP7 ADD KECCAK256 PUSH2 0x9DD DUP8 DUP6 PUSH2 0x4C7B JUMP JUMPDEST PUSH0 MSTORE PUSH1 0x6 DUP3 MSTORE PUSH1 0xFF PUSH1 0x1 DUP10 PUSH0 KECCAK256 ADD SLOAD AND ISZERO PUSH2 0xD5A JUMPI DUP4 PUSH0 MSTORE PUSH1 0x7 DUP3 MSTORE DUP8 PUSH0 KECCAK256 SLOAD ISZERO ISZERO SWAP1 PUSH2 0xA12 PUSH2 0xA0B PUSH2 0x4683 JUMP JUMPDEST DUP10 DUP8 PUSH2 0x4DE0 JUMP JUMPDEST SWAP2 PUSH2 0xA25 PUSH2 0xA1E PUSH2 0x46A4 JUMP JUMPDEST DUP11 DUP9 PUSH2 0x4DE0 JUMP JUMPDEST SWAP2 PUSH2 0xA30 DUP11 DUP9 PUSH2 0x4E3E JUMP JUMPDEST SWAP1 PUSH2 0xA39 PUSH2 0x4683 JUMP JUMPDEST DUP1 MLOAD SWAP1 DUP8 ADD KECCAK256 DUP2 SUB PUSH2 0xB77 JUMPI POP POP ISZERO PUSH2 0xB1D JUMPI POP ISZERO PUSH2 0xADB JUMPI JUMPDEST PUSH2 0xA5D DUP5 DUP5 PUSH2 0x4C7B JUMP JUMPDEST PUSH0 MSTORE PUSH1 0x6 DUP2 MSTORE PUSH1 0xFF PUSH1 0x1 DUP9 PUSH0 KECCAK256 ADD SLOAD AND PUSH2 0xA7D JUMPI POP POP PUSH2 0x54C SWAP5 POP PUSH2 0x4A66 JUMP JUMPDEST DUP7 MLOAD PUSH3 0x461BCD PUSH1 0xE5 SHL DUP2 MSTORE SWAP2 DUP3 ADD MSTORE PUSH1 0x33 PUSH1 0x24 DUP3 ADD MSTORE PUSH32 0x54617267657420616C726561647920686173206120726F6C652E205573652063 PUSH1 0x44 DUP3 ADD MSTORE PUSH19 0x1A185B99D9549BDB194A0A481A5B9CDD195859 PUSH1 0x6A SHL PUSH1 0x64 DUP3 ADD MSTORE PUSH1 0x84 SWAP2 POP REVERT JUMPDEST DUP7 MLOAD PUSH3 0x461BCD PUSH1 0xE5 SHL DUP2 MSTORE SWAP2 DUP3 ADD DUP2 SWAP1 MSTORE PUSH1 0x24 DUP3 ADD MSTORE PUSH32 0x4F6E6C79206F776E6572732063616E206772616E74206F776E657220726F6C65 PUSH1 0x44 DUP3 ADD MSTORE PUSH1 0x64 SWAP2 POP REVERT JUMPDEST SWAP1 POP PUSH2 0xA53 JUMPI DUP7 MLOAD PUSH3 0x461BCD PUSH1 0xE5 SHL DUP2 MSTORE SWAP2 DUP3 ADD MSTORE PUSH1 0x29 PUSH1 0x24 DUP3 ADD MSTORE PUSH32 0x4F6E6C792061646D696E6973747261746F72732063616E206772616E74206669 PUSH1 0x44 DUP3 ADD MSTORE PUSH9 0x3939BA1037BBB732B9 PUSH1 0xB9 SHL PUSH1 0x64 DUP3 ADD MSTORE PUSH1 0x84 SWAP2 POP REVERT JUMPDEST SWAP1 SWAP2 POP PUSH2 0xB82 PUSH2 0x46A4 JUMP JUMPDEST DUP1 MLOAD SWAP1 DUP7 ADD KECCAK256 DUP2 SUB PUSH2 0xC0C JUMPI POP POP DUP2 ISZERO PUSH2 0xC04 JUMPI JUMPDEST POP PUSH2 0xA53 JUMPI DUP7 MLOAD PUSH3 0x461BCD PUSH1 0xE5 SHL DUP2 MSTORE SWAP2 DUP3 ADD MSTORE PUSH1 0x3B PUSH1 0x24 DUP3 ADD MSTORE PUSH32 0x4F6E6C79206F776E65727320616E642061646D696E6973747261746F72732063 PUSH1 0x44 DUP3 ADD MSTORE PUSH32 0x616E206772616E742061646D696E6973747261746F7220726F6C650000000000 PUSH1 0x64 DUP3 ADD MSTORE PUSH1 0x84 SWAP2 POP REVERT JUMPDEST SWAP1 POP PUSH0 PUSH2 0xB97 JUMP JUMPDEST PUSH2 0xC17 SWAP4 SWAP2 SWAP4 PUSH2 0x4394 JUMP JUMPDEST DUP6 DUP2 MLOAD SWAP2 ADD KECCAK256 EQ PUSH2 0xC2B JUMPI JUMPDEST POP POP POP PUSH2 0xA53 JUMP JUMPDEST DUP1 ISZERO SWAP1 DUP2 PUSH2 0xD53 JUMPI JUMPDEST DUP1 ISZERO PUSH2 0xD4C JUMPI JUMPDEST ISZERO PUSH2 0xCE3 JUMPI DUP3 PUSH2 0xCDB JUMPI JUMPDEST POP DUP2 PUSH2 0xCD2 JUMPI JUMPDEST POP PUSH2 0xC5B JUMPI JUMPDEST PUSH0 DUP1 DUP1 PUSH2 0xC23 JUMP JUMPDEST PUSH2 0xC65 DUP7 DUP5 PUSH2 0x4F74 JUMP JUMPDEST MLOAD PUSH2 0xC53 JUMPI DUP7 MLOAD PUSH3 0x461BCD PUSH1 0xE5 SHL DUP2 MSTORE SWAP2 DUP3 ADD MSTORE PUSH1 0x3C PUSH1 0x24 DUP3 ADD MSTORE PUSH32 0x5375626A656374206D757374206861766520616E2061637469766520726F6C65 PUSH1 0x44 DUP3 ADD MSTORE PUSH32 0x20746F206772616E7420766965776572207065726D697373696F6E7300000000 PUSH1 0x64 DUP3 ADD MSTORE PUSH1 0x84 SWAP2 POP REVERT JUMPDEST SWAP1 POP ISZERO PUSH0 PUSH2 0xC4D JUMP JUMPDEST SWAP2 POP PUSH0 PUSH2 0xC46 JUMP JUMPDEST DUP10 MLOAD PUSH3 0x461BCD PUSH1 0xE5 SHL DUP2 MSTORE DUP1 DUP7 ADD DUP6 SWAP1 MSTORE PUSH1 0x3E PUSH1 0x24 DUP3 ADD MSTORE PUSH32 0x4F6E6C79206F776E6572732C2061646D696E6973747261746F72732C206F7220 PUSH1 0x44 DUP3 ADD MSTORE PUSH32 0x7375626A656374732063616E206772616E742076696577657220726F6C650000 PUSH1 0x64 DUP3 ADD MSTORE PUSH1 0x84 SWAP1 REVERT JUMPDEST POP DUP3 PUSH2 0xC3B JUMP JUMPDEST POP DUP2 PUSH2 0xC34 JUMP JUMPDEST PUSH1 0x64 DUP4 DUP4 DUP1 DUP12 MLOAD SWAP3 PUSH3 0x461BCD PUSH1 0xE5 SHL DUP5 MSTORE DUP4 ADD MSTORE PUSH1 0x24 DUP3 ADD MSTORE PUSH32 0x596F752068617665206E6F20726F6C6520666F722074686973207265636F7264 PUSH1 0x44 DUP3 ADD MSTORE REVERT JUMPDEST DUP3 CALLVALUE PUSH2 0x35E JUMPI DUP1 PUSH1 0x3 NOT CALLDATASIZE ADD SLT PUSH2 0x35E JUMPI DUP2 CALLDATALOAD PUSH2 0xDB6 PUSH2 0x3C5F JUMP JUMPDEST PUSH2 0xDC1 DUP3 ISZERO ISZERO PUSH2 0x4551 JUMP JUMPDEST PUSH1 0x1 PUSH1 0x1 PUSH1 0xA0 SHL SUB AND SWAP3 PUSH2 0xDD6 DUP5 ISZERO ISZERO PUSH2 0x459D JUMP JUMPDEST CALLER PUSH0 MSTORE PUSH1 0x20 SWAP3 PUSH1 0x1 DUP5 MSTORE DUP1 PUSH0 KECCAK256 SLOAD SWAP5 PUSH0 MSTORE DUP1 PUSH0 KECCAK256 SLOAD SWAP4 PUSH2 0xDF7 DUP6 ISZERO ISZERO PUSH2 0x41BB JUMP JUMPDEST PUSH2 0xE01 DUP6 DUP6 PUSH2 0x4C7B JUMP JUMPDEST DUP1 PUSH0 MSTORE PUSH1 0x6 DUP3 MSTORE PUSH2 0xE1A PUSH1 0xFF PUSH1 0x1 DUP6 PUSH0 KECCAK256 ADD SLOAD AND PUSH2 0x462B JUMP JUMPDEST DUP1 PUSH0 MSTORE PUSH1 0x6 DUP3 MSTORE PUSH2 0xE2C DUP4 PUSH0 KECCAK256 PUSH2 0x3FBD JUMP JUMPDEST SWAP4 DUP5 MLOAD DUP4 DUP7 ADD KECCAK256 PUSH2 0xE3B PUSH2 0x4683 JUMP JUMPDEST DUP5 DUP2 MLOAD SWAP2 ADD KECCAK256 DUP2 EQ PUSH2 0x112C JUMPI DUP8 DUP10 SUB PUSH2 0xF64 JUMPI JUMPDEST PUSH2 0xE57 PUSH2 0x46A4 JUMP JUMPDEST DUP5 DUP2 MLOAD SWAP2 ADD KECCAK256 EQ PUSH2 0xECF JUMPI JUMPDEST POP SWAP1 DUP4 SWAP3 SWAP2 PUSH2 0xE94 PUSH32 0xD05ED2D3FEFF840C2ECECA71791388FD3D19DBBBBCFA97031F534A7DC09FBF1F SWAP6 DUP9 DUP9 PUSH2 0x4CAF JUMP JUMPDEST PUSH0 MSTORE PUSH1 0x6 DUP2 MSTORE PUSH1 0x1 DUP3 PUSH0 KECCAK256 ADD PUSH1 0xFF NOT DUP2 SLOAD AND SWAP1 SSTORE PUSH1 0xD DUP2 MSTORE PUSH0 DUP3 DUP2 KECCAK256 SSTORE PUSH2 0xEC4 DUP3 MLOAD SWAP4 DUP4 DUP6 SWAP5 DUP6 MSTORE DUP5 ADD SWAP1 PUSH2 0x405F JUMP JUMPDEST SWAP1 TIMESTAMP SWAP1 DUP4 ADD MSTORE SUB SWAP1 LOG4 STOP JUMPDEST DUP6 PUSH0 MSTORE PUSH1 0x8 DUP4 MSTORE PUSH1 0x1 DUP5 PUSH0 KECCAK256 SLOAD GT PUSH1 0x7 DUP5 MSTORE DUP5 PUSH0 KECCAK256 SLOAD ISZERO ISZERO DUP2 ISZERO PUSH2 0xF5C JUMPI JUMPDEST POP PUSH2 0xE63 JUMPI DUP4 MLOAD PUSH3 0x461BCD PUSH1 0xE5 SHL DUP2 MSTORE SWAP1 DUP2 ADD DUP4 SWAP1 MSTORE PUSH1 0x39 PUSH1 0x24 DUP3 ADD MSTORE PUSH32 0x43616E6E6F74207265766F6B65206C6173742061646D696E6973747261746F72 PUSH1 0x44 DUP3 ADD MSTORE PUSH32 0x20776974686F757420616E206F776E65722070726573656E7400000000000000 PUSH1 0x64 DUP3 ADD MSTORE PUSH1 0x84 SWAP1 REVERT JUMPDEST SWAP1 POP DUP10 PUSH2 0xEEE JUMP JUMPDEST PUSH2 0xF76 PUSH2 0xF6F PUSH2 0x4683 JUMP JUMPDEST DUP11 DUP10 PUSH2 0x4DE0 JUMP JUMPDEST PUSH2 0xF88 PUSH2 0xF81 PUSH2 0x46A4 JUMP JUMPDEST DUP12 DUP11 PUSH2 0x4DE0 JUMP JUMPDEST DUP5 PUSH0 MSTORE PUSH1 0xD DUP7 MSTORE DUP11 DUP8 PUSH0 KECCAK256 SLOAD EQ SWAP1 PUSH2 0xF9E PUSH2 0x4394 JUMP JUMPDEST DUP1 MLOAD SWAP1 DUP9 ADD KECCAK256 DUP5 SUB PUSH2 0x103E JUMPI DUP3 ISZERO PUSH2 0x1036 JUMPI JUMPDEST POP DUP2 ISZERO PUSH2 0x102E JUMPI JUMPDEST POP ISZERO PUSH2 0xFC5 JUMPI JUMPDEST PUSH2 0xE4F JUMP JUMPDEST DUP5 MLOAD PUSH3 0x461BCD PUSH1 0xE5 SHL DUP2 MSTORE DUP1 DUP4 ADD DUP6 SWAP1 MSTORE PUSH1 0x3E PUSH1 0x24 DUP3 ADD MSTORE PUSH32 0x4F6E6C79206F776E6572732C2061646D696E6973747261746F72732C206F7220 PUSH1 0x44 DUP3 ADD MSTORE PUSH32 0x746865206772616E7465722063616E207265766F6B6520766965776572730000 PUSH1 0x64 DUP3 ADD MSTORE PUSH1 0x84 SWAP1 REVERT JUMPDEST SWAP1 POP DUP11 PUSH2 0xFB9 JUMP JUMPDEST SWAP2 POP DUP12 PUSH2 0xFB1 JUMP JUMPDEST DUP3 ISZERO SWAP3 SWAP2 POP DUP3 PUSH2 0x1124 JUMPI JUMPDEST POP ISZERO PUSH2 0x10C9 JUMPI ISZERO PUSH2 0xE4F JUMPI PUSH2 0x105C PUSH2 0x46A4 JUMP JUMPDEST DUP5 DUP2 MLOAD SWAP2 ADD KECCAK256 DUP2 SUB PUSH2 0xFC0 JUMPI DUP7 PUSH0 MSTORE PUSH1 0x7 DUP5 MSTORE DUP5 PUSH0 KECCAK256 SLOAD ISZERO PUSH2 0xFC0 JUMPI DUP5 MLOAD PUSH3 0x461BCD PUSH1 0xE5 SHL DUP2 MSTORE DUP1 DUP4 ADD DUP6 SWAP1 MSTORE PUSH1 0x25 PUSH1 0x24 DUP3 ADD MSTORE PUSH32 0x4F6E6C79206F776E6572732063616E207265766F6B652061646D696E69737472 PUSH1 0x44 DUP3 ADD MSTORE PUSH5 0x61746F7273 PUSH1 0xD8 SHL PUSH1 0x64 DUP3 ADD MSTORE PUSH1 0x84 SWAP1 REVERT JUMPDEST DUP6 MLOAD PUSH3 0x461BCD PUSH1 0xE5 SHL DUP2 MSTORE DUP1 DUP5 ADD DUP7 SWAP1 MSTORE PUSH1 0x2F PUSH1 0x24 DUP3 ADD MSTORE PUSH32 0x4F6E6C79206F776E65727320616E642061646D696E6973747261746F72732063 PUSH1 0x44 DUP3 ADD MSTORE PUSH15 0x616E207265766F6B6520726F6C6573 PUSH1 0x88 SHL PUSH1 0x64 DUP3 ADD MSTORE PUSH1 0x84 SWAP1 REVERT JUMPDEST SWAP1 POP DUP12 PUSH2 0x1049 JUMP JUMPDEST DUP5 MLOAD PUSH3 0x461BCD PUSH1 0xE5 SHL DUP2 MSTORE DUP1 DUP4 ADD DUP6 SWAP1 MSTORE PUSH1 0x45 PUSH1 0x24 DUP3 ADD MSTORE PUSH32 0x4F776E6572732063616E6E6F74206265207265766F6B65642E204F776E657220 PUSH1 0x44 DUP3 ADD MSTORE PUSH32 0x6D7573742075736520766F6C756E746172696C794C656176654F776E65727368 PUSH1 0x64 DUP3 ADD MSTORE PUSH5 0x34B8141497 PUSH1 0xD9 SHL PUSH1 0x84 DUP3 ADD MSTORE PUSH1 0xA4 SWAP1 REVERT JUMPDEST SWAP1 POP CALLVALUE PUSH2 0x35E JUMPI PUSH1 0x20 SWAP1 DUP2 PUSH1 0x3 NOT CALLDATASIZE ADD SLT PUSH2 0x35E JUMPI DUP3 SWAP1 CALLDATALOAD PUSH0 MSTORE PUSH1 0x3 DUP3 MSTORE DUP1 PUSH0 KECCAK256 DUP2 MLOAD SWAP3 DUP4 DUP2 DUP4 SLOAD SWAP2 DUP3 DUP2 MSTORE ADD SWAP1 DUP2 SWAP4 PUSH0 MSTORE DUP3 PUSH0 KECCAK256 SWAP1 PUSH0 JUMPDEST DUP2 DUP2 LT PUSH2 0x1235 JUMPI POP POP POP DUP5 PUSH2 0x11F1 SWAP2 SUB DUP6 PUSH2 0x3CDA JUMP JUMPDEST DUP3 MLOAD DUP2 DUP2 MSTORE SWAP4 MLOAD DUP2 DUP6 ADD DUP2 SWAP1 MSTORE DUP5 SWAP4 DUP5 ADD SWAP3 SWAP2 PUSH0 JUMPDEST DUP3 DUP2 LT PUSH2 0x1215 JUMPI POP POP POP POP SUB SWAP1 RETURN JUMPDEST DUP4 MLOAD PUSH1 0x1 PUSH1 0x1 PUSH1 0xA0 SHL SUB AND DUP6 MSTORE DUP7 SWAP6 POP SWAP4 DUP2 ADD SWAP4 SWAP3 DUP2 ADD SWAP3 PUSH1 0x1 ADD PUSH2 0x1206 JUMP JUMPDEST DUP3 SLOAD PUSH1 0x1 PUSH1 0x1 PUSH1 0xA0 SHL SUB AND DUP5 MSTORE SWAP3 DUP5 ADD SWAP3 PUSH1 0x1 SWAP3 DUP4 ADD SWAP3 ADD PUSH2 0x11DB JUMP JUMPDEST DUP3 CALLVALUE PUSH2 0x35E JUMPI PUSH1 0x20 CALLDATASIZE PUSH1 0x3 NOT ADD SLT PUSH2 0x35E JUMPI PUSH1 0x20 SWAP2 CALLDATALOAD PUSH0 MSTORE PUSH1 0xD DUP3 MSTORE DUP1 PUSH0 KECCAK256 SLOAD SWAP1 MLOAD SWAP1 DUP2 MSTORE RETURN JUMPDEST DUP3 CALLVALUE PUSH2 0x35E JUMPI PUSH1 0x20 CALLDATASIZE PUSH1 0x3 NOT ADD SLT PUSH2 0x35E JUMPI PUSH1 0x20 SWAP1 PUSH2 0x129E PUSH2 0x1299 PUSH2 0x3C49 JUMP JUMPDEST PUSH2 0x4F1E JUMP JUMPDEST SWAP1 MLOAD SWAP1 ISZERO ISZERO DUP2 MSTORE RETURN JUMPDEST DUP3 CALLVALUE PUSH2 0x35E JUMPI PUSH2 0x12B6 CALLDATASIZE PUSH2 0x3F6F JUMP JUMPDEST SWAP2 PUSH2 0x12C3 PUSH2 0x3FD CALLER PUSH2 0x495F JUMP JUMPDEST CALLER PUSH0 MSTORE PUSH1 0x20 SWAP1 PUSH1 0x1 DUP3 MSTORE DUP1 PUSH0 KECCAK256 SLOAD SWAP5 DUP4 DUP7 EQ DUP1 ISZERO PUSH2 0x1402 JUMPI JUMPDEST ISZERO PUSH2 0x13C2 JUMPI DUP4 PUSH0 MSTORE PUSH1 0xE DUP4 MSTORE DUP2 PUSH0 KECCAK256 DUP6 PUSH0 MSTORE DUP4 MSTORE PUSH1 0xFF DUP3 PUSH0 KECCAK256 SLOAD AND DUP2 DUP2 LT ISZERO PUSH2 0x13AF JUMPI PUSH1 0x2 DUP2 EQ SWAP1 DUP2 ISZERO PUSH2 0x13A4 JUMPI JUMPDEST POP ISZERO PUSH2 0x1359 JUMPI POP SWAP1 PUSH32 0x6DF3A6475FAB2EED139F7E469995B04E85BFC5B4B8642587109CB72541F74FAE SWAP2 DUP4 PUSH0 MSTORE PUSH1 0xE DUP3 MSTORE DUP1 PUSH0 KECCAK256 DUP6 PUSH0 MSTORE DUP3 MSTORE DUP1 PUSH0 KECCAK256 PUSH1 0x3 PUSH1 0xFF NOT DUP3 SLOAD AND OR SWAP1 SSTORE MLOAD TIMESTAMP DUP2 MSTORE LOG4 STOP JUMPDEST DUP3 PUSH1 0x84 SWAP3 MLOAD SWAP2 PUSH3 0x461BCD PUSH1 0xE5 SHL DUP4 MSTORE DUP3 ADD MSTORE PUSH1 0x21 PUSH1 0x24 DUP3 ADD MSTORE PUSH32 0x4E6F20616374697665206F722070656E64696E672072656C6174696F6E736869 PUSH1 0x44 DUP3 ADD MSTORE PUSH1 0x7 PUSH1 0xFC SHL PUSH1 0x64 DUP3 ADD MSTORE REVERT JUMPDEST PUSH1 0x1 SWAP2 POP EQ DUP8 PUSH2 0x130B JUMP JUMPDEST PUSH1 0x21 DUP3 PUSH4 0x4E487B71 PUSH1 0xE0 SHL PUSH0 MSTORE MSTORE PUSH1 0x24 PUSH0 REVERT JUMPDEST DUP3 DUP1 PUSH1 0x64 SWAP4 MLOAD SWAP3 PUSH3 0x461BCD PUSH1 0xE5 SHL DUP5 MSTORE DUP4 ADD MSTORE PUSH1 0x24 DUP3 ADD MSTORE PUSH32 0x4E6F74206120706172747920746F20746869732072656C6174696F6E73686970 PUSH1 0x44 DUP3 ADD MSTORE REVERT JUMPDEST POP DUP5 DUP7 EQ PUSH2 0x12DC JUMP JUMPDEST DUP3 CALLVALUE PUSH2 0x35E JUMPI DUP1 PUSH1 0x3 NOT CALLDATASIZE ADD SLT PUSH2 0x35E JUMPI PUSH2 0x129E PUSH1 0x20 SWAP3 PUSH2 0x142A PUSH2 0x3C5F JUMP JUMPDEST SWAP1 CALLDATALOAD PUSH2 0x4922 JUMP JUMPDEST DUP3 CALLVALUE PUSH2 0x35E JUMPI PUSH1 0x20 CALLDATASIZE PUSH1 0x3 NOT ADD SLT PUSH2 0x35E JUMPI PUSH32 0xCE59AD7D6DABE8A7533ED7D9BD07D276A046AC7AC9A8E8E8971DA4B81104A28B PUSH1 0x20 PUSH2 0x146E PUSH2 0x3C49 JUMP JUMPDEST PUSH0 SLOAD PUSH1 0x1 PUSH1 0x1 PUSH1 0xA0 SHL SUB SWAP2 SWAP1 PUSH2 0x1487 SWAP1 DUP4 AND CALLER EQ PUSH2 0x43B6 JUMP JUMPDEST AND SWAP3 PUSH2 0x1494 DUP5 ISZERO ISZERO PUSH2 0x48E4 JUMP JUMPDEST PUSH1 0xC DUP1 SLOAD PUSH1 0x1 PUSH1 0x1 PUSH1 0xA0 SHL SUB NOT AND DUP6 OR SWAP1 SSTORE MLOAD TIMESTAMP DUP2 MSTORE LOG2 STOP JUMPDEST SWAP1 POP CALLVALUE PUSH2 0x35E JUMPI PUSH1 0x20 SWAP1 PUSH1 0x20 PUSH1 0x3 NOT CALLDATASIZE ADD SLT PUSH2 0x35E JUMPI CALLDATALOAD PUSH0 MSTORE PUSH1 0x7 PUSH1 0x20 MSTORE DUP2 PUSH0 KECCAK256 SWAP2 DUP1 MLOAD SWAP2 DUP3 PUSH1 0x20 DUP6 SLOAD SWAP2 DUP3 DUP2 MSTORE ADD SWAP5 PUSH0 MSTORE PUSH1 0x20 PUSH0 KECCAK256 SWAP2 PUSH0 SWAP1 JUMPDEST DUP3 DUP3 LT PUSH2 0x14FF JUMPI PUSH2 0x5DE DUP7 DUP7 PUSH2 0x8CB DUP3 DUP12 SUB DUP4 PUSH2 0x3CDA JUMP JUMPDEST DUP4 SLOAD DUP8 MSTORE SWAP6 DUP7 ADD SWAP6 PUSH1 0x1 SWAP4 DUP5 ADD SWAP4 SWAP1 SWAP2 ADD SWAP1 PUSH2 0x14E7 JUMP JUMPDEST DUP3 CALLVALUE PUSH2 0x35E JUMPI PUSH0 CALLDATASIZE PUSH1 0x3 NOT ADD SLT PUSH2 0x35E JUMPI PUSH1 0x20 SWAP1 PUSH1 0x5 SLOAD SWAP1 MLOAD SWAP1 DUP2 MSTORE RETURN JUMPDEST SWAP1 POP CALLVALUE PUSH2 0x35E JUMPI PUSH1 0x20 CALLDATASIZE PUSH1 0x3 NOT ADD SLT PUSH2 0x35E JUMPI PUSH2 0x154F PUSH2 0x3C49 JUMP JUMPDEST PUSH0 SLOAD PUSH1 0x1 PUSH1 0x1 PUSH1 0xA0 SHL SUB SWAP2 SWAP1 PUSH2 0x1568 SWAP1 DUP4 AND CALLER EQ PUSH2 0x43B6 JUMP JUMPDEST AND DUP1 PUSH0 MSTORE PUSH1 0x1 SWAP2 DUP3 PUSH1 0x20 MSTORE PUSH2 0x1581 DUP5 PUSH0 KECCAK256 SLOAD ISZERO ISZERO PUSH2 0x43EF JUMP JUMPDEST DUP2 PUSH0 MSTORE DUP3 PUSH1 0x20 MSTORE PUSH1 0xFF DUP4 DUP6 PUSH0 KECCAK256 ADD SLOAD AND PUSH2 0x15B0 JUMPI POP SWAP2 DUP2 SWAP3 PUSH0 MSTORE DUP2 PUSH1 0x20 MSTORE PUSH0 KECCAK256 ADD SWAP1 PUSH1 0xFF NOT DUP3 SLOAD AND OR SWAP1 SSTORE PUSH0 DUP1 RETURN JUMPDEST PUSH1 0x64 SWAP1 PUSH1 0x20 DUP6 MLOAD SWAP2 PUSH3 0x461BCD PUSH1 0xE5 SHL DUP4 MSTORE DUP3 ADD MSTORE PUSH1 0x15 PUSH1 0x24 DUP3 ADD MSTORE PUSH21 0x57616C6C657420616C726561647920616374697665 PUSH1 0x58 SHL PUSH1 0x44 DUP3 ADD MSTORE REVERT JUMPDEST DUP3 CALLVALUE PUSH2 0x35E JUMPI PUSH2 0x15FA CALLDATASIZE PUSH2 0x3EFC JUMP JUMPDEST SWAP2 SWAP1 SWAP3 PUSH2 0x1609 PUSH2 0x3FD CALLER PUSH2 0x495F JUMP JUMPDEST CALLER PUSH0 MSTORE PUSH1 0x1 SWAP4 PUSH1 0x20 SWAP2 PUSH1 0x1 DUP4 MSTORE DUP4 PUSH0 KECCAK256 SLOAD SWAP3 DUP6 PUSH0 MSTORE PUSH1 0xE DUP2 MSTORE DUP5 PUSH0 KECCAK256 DUP5 PUSH0 MSTORE DUP2 MSTORE DUP5 PUSH0 KECCAK256 SWAP1 DUP6 MLOAD SWAP2 PUSH2 0x163A DUP4 PUSH2 0x3C75 JUMP JUMPDEST SLOAD SWAP2 PUSH2 0x1649 PUSH1 0xFF DUP5 AND DUP3 PUSH2 0x4502 JUMP JUMPDEST PUSH2 0x165C PUSH1 0xFF DUP4 DUP4 ADD SWAP5 PUSH1 0x8 SHR AND DUP5 PUSH2 0x450E JUMP JUMPDEST MLOAD DUP4 DUP2 LT ISZERO PUSH2 0x1731 JUMPI PUSH1 0x2 PUSH2 0x1671 SWAP2 EQ PUSH2 0x4873 JUMP JUMPDEST DUP4 MLOAD PUSH2 0x1688 PUSH2 0x167F DUP3 PUSH2 0x3CFB JUMP JUMPDEST SWAP8 MLOAD SWAP8 DUP9 PUSH2 0x3CDA JUMP JUMPDEST DUP1 DUP8 MSTORE PUSH2 0x1697 PUSH1 0x1F NOT SWAP2 PUSH2 0x3CFB JUMP JUMPDEST ADD PUSH0 JUMPDEST DUP2 DUP2 LT PUSH2 0x1722 JUMPI POP POP POP DUP7 PUSH0 SWAP1 JUMPDEST PUSH2 0x16BA JUMPI JUMPDEST POP POP POP PUSH2 0x54C SWAP5 POP PUSH2 0x49E7 JUMP JUMPDEST DUP4 MLOAD DUP2 LT ISZERO PUSH2 0x171D JUMPI PUSH2 0x16CD DUP2 DUP6 PUSH2 0x4380 JUMP JUMPDEST MLOAD DUP3 MLOAD SWAP1 PUSH1 0x3 DUP3 LT ISZERO PUSH2 0x170A JUMPI SWAP2 PUSH2 0x16EB DUP11 SWAP6 SWAP5 SWAP4 SWAP3 DUP11 DUP8 SWAP5 PUSH2 0x4EC8 JUMP JUMPDEST PUSH2 0x16F5 DUP3 DUP11 PUSH2 0x4380 JUMP JUMPDEST MSTORE PUSH2 0x1700 DUP2 DUP10 PUSH2 0x4380 JUMP JUMPDEST POP ADD SWAP1 SWAP2 SWAP3 PUSH2 0x16A8 JUMP JUMPDEST PUSH1 0x21 DUP6 PUSH4 0x4E487B71 PUSH1 0xE0 SHL PUSH0 MSTORE MSTORE PUSH1 0x24 PUSH0 REVERT JUMPDEST PUSH2 0x16AD JUMP JUMPDEST PUSH1 0x60 DUP9 DUP3 ADD DUP5 ADD MSTORE DUP3 ADD PUSH2 0x169A JUMP JUMPDEST PUSH1 0x21 DUP5 PUSH4 0x4E487B71 PUSH1 0xE0 SHL PUSH0 MSTORE MSTORE PUSH1 0x24 PUSH0 REVERT JUMPDEST DUP3 CALLVALUE PUSH2 0x35E JUMPI PUSH1 0x20 SWAP1 DUP2 PUSH1 0x3 NOT CALLDATASIZE ADD SLT PUSH2 0x35E JUMPI DUP3 CALLDATALOAD SWAP2 PUSH2 0x1767 PUSH2 0x3FD CALLER PUSH2 0x495F JUMP JUMPDEST CALLER PUSH0 MSTORE PUSH1 0x1 DUP2 MSTORE DUP2 PUSH0 KECCAK256 SLOAD SWAP4 DUP4 PUSH0 MSTORE PUSH1 0xE DUP3 MSTORE DUP3 PUSH0 KECCAK256 DUP6 PUSH0 MSTORE DUP3 MSTORE DUP3 PUSH0 KECCAK256 SWAP1 DUP2 SLOAD SWAP1 PUSH1 0xFF DUP3 AND DUP2 DUP2 LT ISZERO PUSH2 0x13AF JUMPI PUSH1 0x1 SUB PUSH2 0x17E6 JUMPI POP SWAP2 PUSH2 0x17DE PUSH1 0xFF SWAP3 PUSH1 0x2 PUSH32 0xC5B2E1BD4433EB4E9E181CC803520513D39D918C96BDDEEBCA1224E1C750963D SWAP7 SWAP6 DUP6 NOT AND OR DUP1 SWAP2 SSTORE DUP5 MLOAD SWAP4 DUP5 SWAP2 PUSH1 0x8 SHR AND PUSH2 0x4107 JUMP JUMPDEST TIMESTAMP SWAP1 DUP3 ADD MSTORE LOG3 STOP JUMPDEST DUP5 MLOAD PUSH3 0x461BCD PUSH1 0xE5 SHL DUP2 MSTORE SWAP1 DUP2 ADD DUP5 SWAP1 MSTORE PUSH1 0x13 PUSH1 0x24 DUP3 ADD MSTORE PUSH19 0x139BC81C195B991A5B99C81C1C9BDC1BDCD85B PUSH1 0x6A SHL PUSH1 0x44 DUP3 ADD MSTORE PUSH1 0x64 SWAP1 REVERT JUMPDEST DUP3 CALLVALUE PUSH2 0x35E JUMPI PUSH0 CALLDATASIZE PUSH1 0x3 NOT ADD SLT PUSH2 0x35E JUMPI DUP1 MLOAD PUSH2 0x5DE SWAP2 PUSH2 0x183F DUP3 PUSH2 0x3C75 JUMP JUMPDEST PUSH1 0x5 DUP3 MSTORE PUSH5 0x352E302E3 PUSH1 0xDC SHL PUSH1 0x20 DUP4 ADD MSTORE MLOAD SWAP2 DUP3 SWAP2 PUSH1 0x20 DUP4 MSTORE PUSH1 0x20 DUP4 ADD SWAP1 PUSH2 0x405F JUMP JUMPDEST SWAP1 POP CALLVALUE PUSH2 0x35E JUMPI PUSH2 0x1873 CALLDATASIZE PUSH2 0x3EDD JUMP JUMPDEST SWAP1 SWAP2 PUSH2 0x1881 PUSH2 0x3FD CALLER PUSH2 0x495F JUMP JUMPDEST CALLER PUSH0 MSTORE PUSH1 0x1 PUSH1 0x20 MSTORE DUP4 PUSH0 KECCAK256 SLOAD SWAP2 DUP3 PUSH0 MSTORE PUSH1 0xE PUSH1 0x20 MSTORE DUP5 PUSH0 KECCAK256 DUP5 PUSH0 MSTORE PUSH1 0x20 MSTORE DUP5 PUSH0 KECCAK256 DUP1 SLOAD PUSH1 0xFF DUP2 AND DUP5 DUP2 LT ISZERO PUSH2 0x170A JUMPI SWAP1 PUSH2 0x18BF PUSH1 0x2 PUSH1 0xFF SWAP4 EQ PUSH2 0x4873 JUMP JUMPDEST PUSH1 0x8 SHR AND SWAP3 PUSH1 0x3 DUP4 LT ISZERO PUSH2 0x768 JUMPI PUSH1 0x3 DUP5 LT ISZERO PUSH2 0x768 JUMPI DUP3 DUP5 EQ PUSH2 0x1920 JUMPI POP PUSH32 0xB36EC3C738EF8ECD9180ADDC815304762374B76E91C2A321831D9906EA119ADE SWAP4 SWAP5 SWAP6 PUSH2 0x190F DUP4 PUSH2 0x191B SWAP4 PUSH2 0x4532 JUMP JUMPDEST MLOAD SWAP3 DUP4 SWAP3 TIMESTAMP SWAP2 DUP5 PUSH2 0x48BF JUMP JUMPDEST SUB SWAP1 LOG3 STOP JUMPDEST PUSH1 0x64 SWAP1 PUSH1 0x20 DUP9 MLOAD SWAP2 PUSH3 0x461BCD PUSH1 0xE5 SHL DUP4 MSTORE DUP3 ADD MSTORE PUSH1 0x18 PUSH1 0x24 DUP3 ADD MSTORE PUSH32 0x416C72656164792074686973207472757374206C6576656C0000000000000000 PUSH1 0x44 DUP3 ADD MSTORE REVERT JUMPDEST DUP3 CALLVALUE PUSH2 0x35E JUMPI PUSH1 0x20 SWAP1 PUSH2 0x197E PUSH2 0x1978 CALLDATASIZE PUSH2 0x3F6F JUMP JUMPDEST SWAP1 PUSH2 0x4C7B JUMP JUMPDEST PUSH0 MSTORE PUSH1 0xD DUP3 MSTORE DUP1 PUSH0 KECCAK256 SLOAD SWAP1 MLOAD SWAP1 DUP2 MSTORE RETURN JUMPDEST DUP3 CALLVALUE PUSH2 0x35E JUMPI PUSH1 0x20 CALLDATASIZE PUSH1 0x3 NOT ADD SLT PUSH2 0x35E JUMPI DUP2 CALLDATALOAD DUP3 SLOAD DUP2 LT ISZERO PUSH2 0x35E JUMPI PUSH1 0x20 SWAP3 PUSH0 MSTORE PUSH32 0x8A35ACFBC15FF81A39AE7D344FD709F28E8600B4AA8C65C6B64BFE7FE36BD19B ADD SLOAD SWAP1 MLOAD SWAP1 DUP2 MSTORE RETURN JUMPDEST DUP3 CALLVALUE PUSH2 0x35E JUMPI PUSH2 0x19EA CALLDATASIZE PUSH2 0x3F6F JUMP JUMPDEST SWAP1 PUSH0 MSTORE PUSH1 0xE PUSH1 0x20 MSTORE DUP2 PUSH0 KECCAK256 SWAP1 PUSH0 MSTORE PUSH1 0x20 MSTORE DUP1 PUSH0 KECCAK256 SWAP1 DUP1 MLOAD SWAP2 PUSH2 0x1A0B DUP4 PUSH2 0x3C75 JUMP JUMPDEST SLOAD SWAP2 PUSH2 0x1A1A PUSH1 0xFF DUP5 AND DUP3 PUSH2 0x4502 JUMP JUMPDEST PUSH2 0x1A2E PUSH1 0xFF PUSH1 0x20 DUP4 ADD SWAP5 PUSH1 0x8 SHR AND DUP5 PUSH2 0x450E JUMP JUMPDEST MLOAD SWAP2 DUP4 DUP4 LT ISZERO PUSH2 0x1731 JUMPI MLOAD SWAP3 PUSH1 0x3 DUP5 LT ISZERO PUSH2 0x768 JUMPI POP PUSH2 0x5DE SWAP1 MLOAD SWAP3 DUP4 SWAP3 DUP4 PUSH2 0x4114 JUMP JUMPDEST DUP3 CALLVALUE PUSH2 0x35E JUMPI DUP1 PUSH1 0x3 NOT CALLDATASIZE ADD SLT PUSH2 0x35E JUMPI DUP2 CALLDATALOAD SWAP1 PUSH1 0x24 CALLDATALOAD PUSH1 0x6 DUP2 LT ISZERO PUSH2 0x35E JUMPI PUSH2 0x1A86 PUSH1 0x1 DUP1 PUSH1 0xA0 SHL SUB PUSH0 SLOAD AND CALLER EQ PUSH2 0x43B6 JUMP JUMPDEST DUP3 PUSH0 MSTORE PUSH1 0x20 PUSH1 0x2 DUP2 MSTORE PUSH1 0xFF DUP4 PUSH0 KECCAK256 SLOAD AND PUSH1 0x6 DUP2 LT ISZERO PUSH2 0x1B90 JUMPI ISZERO PUSH2 0x1B58 JUMPI DUP4 PUSH0 MSTORE PUSH1 0x2 DUP2 MSTORE PUSH1 0xFF DUP4 PUSH0 KECCAK256 SLOAD AND SWAP5 PUSH1 0x6 DUP7 LT ISZERO PUSH2 0x768 JUMPI DUP3 DUP7 EQ PUSH2 0x1B21 JUMPI POP SWAP1 PUSH2 0x1AF4 SWAP2 DUP5 PUSH0 MSTORE PUSH1 0x2 DUP2 MSTORE DUP4 PUSH0 KECCAK256 PUSH1 0xFF NOT DUP2 SLOAD AND PUSH1 0xFF DUP5 AND OR SWAP1 SSTORE PUSH2 0x1AEC DUP5 MLOAD DUP1 SWAP8 PUSH2 0x40E6 JUMP JUMPDEST DUP6 ADD SWAP1 PUSH2 0x40E6 JUMP JUMPDEST TIMESTAMP SWAP1 DUP4 ADD MSTORE PUSH32 0xF6277C6EE46649823DB9A5C531DB3112B4340C67179CAE1932BA3420DCC37CC7 PUSH1 0x60 CALLER SWAP4 LOG3 STOP JUMPDEST PUSH1 0x64 SWAP2 DUP5 MLOAD SWAP2 PUSH3 0x461BCD PUSH1 0xE5 SHL DUP4 MSTORE DUP3 ADD MSTORE PUSH1 0x13 PUSH1 0x24 DUP3 ADD MSTORE PUSH19 0x416C7265616479207468697320737461747573 PUSH1 0x68 SHL PUSH1 0x44 DUP3 ADD MSTORE REVERT JUMPDEST DUP5 PUSH1 0x64 SWAP2 DUP5 MLOAD SWAP2 PUSH3 0x461BCD PUSH1 0xE5 SHL DUP4 MSTORE DUP3 ADD MSTORE PUSH1 0x13 PUSH1 0x24 DUP3 ADD MSTORE PUSH19 0x155CD95C881B9BDD081C9959DA5CDD195C9959 PUSH1 0x6A SHL PUSH1 0x44 DUP3 ADD MSTORE REVERT JUMPDEST PUSH1 0x21 DUP7 PUSH4 0x4E487B71 PUSH1 0xE0 SHL PUSH0 MSTORE MSTORE PUSH1 0x24 PUSH0 REVERT JUMPDEST DUP3 CALLVALUE PUSH2 0x35E JUMPI PUSH2 0x1BB2 CALLDATASIZE PUSH2 0x3F6F JUMP JUMPDEST SWAP2 SWAP1 PUSH0 MSTORE PUSH1 0x3 PUSH1 0x20 MSTORE DUP1 PUSH0 KECCAK256 DUP1 SLOAD DUP4 LT ISZERO PUSH2 0x35E JUMPI PUSH1 0x20 SWAP3 PUSH2 0x1BD3 SWAP2 PUSH2 0x40BD JUMP JUMPDEST PUSH1 0x1 DUP1 PUSH1 0xA0 SHL SUB SWAP2 SLOAD SWAP1 PUSH1 0x3 SHL SHR AND SWAP1 MLOAD SWAP1 DUP2 MSTORE RETURN JUMPDEST DUP3 CALLVALUE PUSH2 0x35E JUMPI PUSH2 0x1BF8 CALLDATASIZE PUSH2 0x3F6F JUMP JUMPDEST SWAP2 SWAP1 PUSH0 MSTORE PUSH1 0x9 PUSH1 0x20 MSTORE DUP1 PUSH0 KECCAK256 DUP1 SLOAD DUP4 LT ISZERO PUSH2 0x35E JUMPI PUSH1 0x20 SWAP3 PUSH2 0x350 SWAP2 PUSH2 0x40BD JUMP JUMPDEST DUP3 CALLVALUE PUSH2 0x35E JUMPI PUSH1 0x20 CALLDATASIZE PUSH1 0x3 NOT ADD SLT PUSH2 0x35E JUMPI PUSH1 0x60 SWAP2 CALLDATALOAD PUSH0 MSTORE PUSH1 0x7 PUSH1 0x20 MSTORE DUP1 PUSH0 KECCAK256 SLOAD SWAP1 PUSH1 0x8 PUSH1 0x20 MSTORE DUP1 PUSH0 KECCAK256 SLOAD SWAP1 PUSH1 0x9 PUSH1 0x20 MSTORE DUP1 PUSH0 KECCAK256 SLOAD SWAP2 DUP2 MLOAD SWAP4 DUP5 MSTORE PUSH1 0x20 DUP5 ADD MSTORE DUP3 ADD MSTORE RETURN JUMPDEST DUP3 CALLVALUE PUSH2 0x35E JUMPI PUSH1 0x20 CALLDATASIZE PUSH1 0x3 NOT ADD SLT PUSH2 0x35E JUMPI PUSH1 0x1 PUSH1 0x1 PUSH1 0xA0 SHL SUB PUSH2 0x1C80 PUSH2 0x3C49 JUMP JUMPDEST AND PUSH0 MSTORE PUSH1 0x1 PUSH1 0x20 MSTORE DUP1 PUSH0 KECCAK256 PUSH1 0xFF PUSH1 0x1 DUP3 SLOAD SWAP3 ADD SLOAD AND DUP3 MLOAD SWAP2 DUP3 MSTORE ISZERO ISZERO PUSH1 0x20 DUP3 ADD MSTORE RETURN JUMPDEST DUP3 CALLVALUE PUSH2 0x35E JUMPI PUSH2 0x1CB2 CALLDATASIZE PUSH2 0x3F6F JUMP JUMPDEST SWAP2 SWAP1 PUSH0 MSTORE PUSH1 0x8 PUSH1 0x20 MSTORE DUP1 PUSH0 KECCAK256 DUP1 SLOAD DUP4 LT ISZERO PUSH2 0x35E JUMPI PUSH1 0x20 SWAP3 PUSH2 0x350 SWAP2 PUSH2 0x40BD JUMP JUMPDEST SWAP1 POP CALLVALUE PUSH2 0x35E JUMPI PUSH0 CALLDATASIZE PUSH1 0x3 NOT ADD SLT PUSH2 0x35E JUMPI PUSH32 0xF0C57E16840DF040F15088DC2F81FE391C3923BEC73E23A9662EFC9C229C6A00 SWAP1 DUP2 SLOAD PUSH1 0xFF DUP2 DUP6 SHR AND ISZERO SWAP2 PUSH1 0x1 PUSH1 0x1 PUSH1 0x40 SHL SUB DUP3 AND DUP1 ISZERO SWAP1 DUP2 PUSH2 0x1DE8 JUMPI JUMPDEST PUSH1 0x1 EQ SWAP1 DUP2 PUSH2 0x1DDE JUMPI JUMPDEST ISZERO SWAP1 DUP2 PUSH2 0x1DD5 JUMPI JUMPDEST POP PUSH2 0x1DC7 JUMPI POP PUSH8 0xFFFFFFFFFFFFFFFF NOT DUP2 AND PUSH1 0x1 OR DUP4 SSTORE DUP2 PUSH2 0x1DA8 JUMPI JUMPDEST POP PUSH0 DUP1 SLOAD PUSH1 0x1 PUSH1 0x1 PUSH1 0xA0 SHL SUB NOT AND CALLER OR SWAP1 SSTORE PUSH2 0x1D6B JUMPI STOP JUMPDEST DUP1 SLOAD PUSH9 0xFF0000000000000000 NOT AND SWAP1 SSTORE MLOAD PUSH1 0x1 DUP2 MSTORE PUSH32 0xC7F505B2F371AE2175EE4913F4499E1F2633A7B5936321EED1CDAEB6115181D2 SWAP1 PUSH1 0x20 SWAP1 LOG1 STOP JUMPDEST PUSH9 0xFFFFFFFFFFFFFFFFFF NOT AND PUSH9 0x10000000000000001 OR DUP3 SSTORE PUSH0 PUSH2 0x1D53 JUMP JUMPDEST DUP5 MLOAD PUSH4 0xF92EE8A9 PUSH1 0xE0 SHL DUP2 MSTORE REVERT JUMPDEST SWAP1 POP ISZERO PUSH0 PUSH2 0x1D36 JUMP JUMPDEST ADDRESS EXTCODESIZE ISZERO SWAP2 POP PUSH2 0x1D2E JUMP JUMPDEST DUP5 SWAP2 POP PUSH2 0x1D24 JUMP JUMPDEST DUP3 CALLVALUE PUSH2 0x35E JUMPI PUSH2 0x5DE SWAP1 PUSH2 0x1E03 CALLDATASIZE PUSH2 0x3F6F JUMP JUMPDEST SWAP1 PUSH0 MSTORE PUSH1 0xE PUSH1 0x20 MSTORE DUP2 PUSH0 KECCAK256 SWAP1 PUSH0 MSTORE PUSH1 0x20 MSTORE DUP1 PUSH0 KECCAK256 SLOAD SWAP1 MLOAD SWAP2 DUP2 PUSH1 0xFF DUP1 DUP6 SWAP5 PUSH1 0x8 SHR AND SWAP2 AND DUP4 PUSH2 0x4114 JUMP JUMPDEST DUP3 CALLVALUE PUSH2 0x35E JUMPI PUSH0 CALLDATASIZE PUSH1 0x3 NOT ADD SLT PUSH2 0x35E JUMPI PUSH1 0x20 SWAP1 PUSH1 0xB SLOAD SWAP1 MLOAD SWAP1 DUP2 MSTORE RETURN JUMPDEST DUP3 CALLVALUE PUSH2 0x35E JUMPI PUSH1 0x20 CALLDATASIZE PUSH1 0x3 NOT ADD SLT PUSH2 0x35E JUMPI PUSH1 0x20 SWAP1 PUSH2 0x1E68 PUSH2 0x3C49 JUMP JUMPDEST PUSH0 SLOAD SWAP2 SWAP1 PUSH1 0x1 PUSH1 0x1 PUSH1 0xA0 SHL SUB DUP1 DUP5 AND SWAP2 PUSH32 0x38DF5FA0F7FEF0D515CA1F5388CB5790AC5885D5FCA8D05D9F943E563C33A4B3 SWAP2 SWAP1 PUSH2 0x1EA6 CALLER DUP6 EQ PUSH2 0x43B6 JUMP JUMPDEST AND SWAP5 DUP6 SWAP4 PUSH2 0x1EB5 DUP6 ISZERO ISZERO PUSH2 0x48E4 JUMP JUMPDEST MLOAD TIMESTAMP DUP2 MSTORE LOG3 PUSH1 0x1 PUSH1 0x1 PUSH1 0xA0 SHL SUB NOT AND OR PUSH0 SSTORE STOP JUMPDEST SWAP1 POP CALLVALUE PUSH2 0x35E JUMPI PUSH2 0x1ED9 CALLDATASIZE PUSH2 0x3F2D JUMP JUMPDEST SWAP4 SWAP1 SWAP3 PUSH1 0x1 DUP1 PUSH1 0xA0 SHL SUB PUSH2 0x1EF1 DUP2 PUSH0 SLOAD AND CALLER EQ PUSH2 0x43B6 JUMP JUMPDEST PUSH2 0x1EFC DUP5 ISZERO ISZERO PUSH2 0x4551 JUMP JUMPDEST DUP5 AND PUSH2 0x1F09 DUP2 ISZERO ISZERO PUSH2 0x479F JUMP JUMPDEST PUSH2 0x1F15 PUSH2 0x9A7 DUP8 PUSH2 0x4D88 JUMP JUMPDEST PUSH0 MSTORE PUSH1 0x1 PUSH1 0x20 SWAP2 DUP2 DUP4 MSTORE PUSH2 0x1F37 DUP5 PUSH0 KECCAK256 SLOAD SWAP7 PUSH2 0x1F32 DUP9 ISZERO ISZERO PUSH2 0x43EF JUMP JUMPDEST PUSH2 0x495F JUMP JUMPDEST ISZERO PUSH2 0x21D8 JUMPI DUP5 PUSH0 MSTORE PUSH1 0x7 DUP4 MSTORE DUP4 PUSH0 KECCAK256 SLOAD ISZERO DUP1 PUSH2 0x21C9 JUMPI JUMPDEST ISZERO PUSH2 0x2186 JUMPI PUSH2 0x1F5D DUP7 DUP7 PUSH2 0x4C7B JUMP JUMPDEST SWAP2 DUP3 PUSH0 MSTORE PUSH1 0x6 DUP5 MSTORE DUP5 PUSH0 KECCAK256 SWAP3 PUSH2 0x1F72 DUP5 PUSH2 0x3FBD JUMP JUMPDEST SWAP3 PUSH1 0xFF DUP4 DUP6 MLOAD ISZERO SWAP7 ADD SLOAD AND SWAP3 DUP8 MLOAD SWAP2 PUSH2 0x1F8A DUP4 PUSH2 0x3C75 JUMP JUMPDEST DUP12 DUP4 MSTORE DUP8 DUP4 ADD SWAP1 DUP3 DUP3 MSTORE DUP5 PUSH0 MSTORE PUSH1 0x6 DUP10 MSTORE DUP10 PUSH0 KECCAK256 SWAP4 MLOAD DUP1 MLOAD SWAP2 PUSH1 0x1 PUSH1 0x1 PUSH1 0x40 SHL SUB DUP4 GT PUSH2 0x2173 JUMPI POP PUSH2 0x1FBC DUP6 SLOAD PUSH2 0x3F85 JUMP JUMPDEST PUSH1 0x1F DUP2 GT PUSH2 0x212D JUMPI JUMPDEST POP DUP10 SWAP1 PUSH1 0x1F DUP4 GT PUSH1 0x1 EQ PUSH2 0x20C6 JUMPI PUSH2 0x200C SWAP6 SWAP5 SWAP4 SWAP3 SWAP2 PUSH0 SWAP2 DUP4 PUSH2 0x20BB JUMPI JUMPDEST POP POP PUSH0 NOT PUSH1 0x3 DUP4 SWAP1 SHL SHR NOT AND SWAP1 DUP4 SHL OR DUP4 SSTORE JUMPDEST MLOAD ISZERO ISZERO SWAP2 ADD SWAP1 PUSH1 0xFF DUP1 NOT DUP4 SLOAD AND SWAP2 ISZERO ISZERO AND OR SWAP1 SSTORE JUMP JUMPDEST PUSH0 MSTORE PUSH1 0xD DUP5 MSTORE PUSH0 DUP6 DUP2 KECCAK256 SSTORE ISZERO PUSH0 EQ PUSH2 0x208E JUMPI POP SWAP2 DUP6 SWAP2 PUSH32 0xF9D17EB1340AB78960B594FF8BED1349985B800EE21199C6D5EA4A67454593AD SWAP4 PUSH2 0x2050 PUSH0 SWAP9 DUP9 DUP9 PUSH2 0x4FCB JUMP JUMPDEST PUSH2 0x2068 JUMPI JUMPDEST PUSH2 0xEC4 DUP3 MLOAD SWAP4 DUP4 DUP6 SWAP5 DUP6 MSTORE DUP5 ADD SWAP1 PUSH2 0x405F JUMP JUMPDEST DUP6 DUP8 MSTORE PUSH1 0xA DUP2 MSTORE PUSH2 0x207B DUP6 DUP4 DUP10 KECCAK256 PUSH2 0x4322 JUMP JUMPDEST PUSH2 0x2086 PUSH1 0xB SLOAD PUSH2 0x435E JUMP JUMPDEST PUSH1 0xB SSTORE PUSH2 0x2055 JUMP JUMPDEST SWAP6 SWAP5 SWAP4 SWAP3 POP POP DUP5 MLOAD DUP2 DUP7 ADD KECCAK256 SWAP1 DUP5 MLOAD SWAP1 DUP6 ADD KECCAK256 SUB PUSH2 0x20A8 JUMPI STOP JUMPDEST PUSH2 0x20B6 PUSH2 0x54C SWAP5 DUP4 DUP4 PUSH2 0x4CAF JUMP JUMPDEST PUSH2 0x4FCB JUMP JUMPDEST ADD MLOAD SWAP1 POP PUSH0 DUP1 PUSH2 0x1FE3 JUMP JUMPDEST SWAP1 PUSH1 0x1F NOT DUP4 AND SWAP2 DUP7 PUSH0 MSTORE DUP12 PUSH0 KECCAK256 SWAP3 PUSH0 JUMPDEST DUP14 DUP3 DUP3 LT PUSH2 0x2119 JUMPI POP POP SWAP2 DUP7 SWAP6 SWAP5 SWAP3 SWAP2 DUP4 PUSH2 0x200C SWAP10 SWAP9 SWAP6 SWAP4 LT PUSH2 0x2101 JUMPI JUMPDEST POP POP POP DUP2 SHL ADD DUP4 SSTORE PUSH2 0x1FF6 JUMP JUMPDEST ADD MLOAD PUSH0 NOT PUSH1 0xF8 DUP5 PUSH1 0x3 SHL AND SHR NOT AND SWAP1 SSTORE PUSH0 DUP1 DUP1 PUSH2 0x20F4 JUMP JUMPDEST DUP4 DUP6 ADD MLOAD DUP7 SSTORE SWAP5 DUP9 ADD SWAP5 SWAP4 DUP5 ADD SWAP4 ADD PUSH2 0x20D6 JUMP JUMPDEST DUP6 PUSH0 MSTORE DUP11 PUSH0 KECCAK256 PUSH1 0x1F DUP5 ADD PUSH1 0x5 SHR DUP2 ADD SWAP2 DUP13 DUP6 LT PUSH2 0x2169 JUMPI JUMPDEST PUSH1 0x1F ADD PUSH1 0x5 SHR ADD SWAP1 DUP6 SWAP1 JUMPDEST DUP3 DUP2 LT PUSH2 0x215E JUMPI POP POP PUSH2 0x1FC5 JUMP JUMPDEST PUSH0 DUP2 SSTORE ADD DUP6 SWAP1 PUSH2 0x2150 JUMP JUMPDEST SWAP1 SWAP2 POP DUP2 SWAP1 PUSH2 0x2145 JUMP JUMPDEST PUSH1 0x41 SWAP1 PUSH4 0x4E487B71 PUSH1 0xE0 SHL PUSH0 MSTORE MSTORE PUSH1 0x24 PUSH0 REVERT JUMPDEST DUP4 MLOAD PUSH3 0x461BCD PUSH1 0xE5 SHL DUP2 MSTORE SWAP1 DUP2 ADD DUP4 SWAP1 MSTORE PUSH1 0x1A PUSH1 0x24 DUP3 ADD MSTORE PUSH32 0x5265636F726420616C726561647920696E697469616C697A6564000000000000 PUSH1 0x44 DUP3 ADD MSTORE PUSH1 0x64 SWAP1 REVERT JUMPDEST POP PUSH1 0x8 DUP4 MSTORE DUP4 PUSH0 KECCAK256 SLOAD ISZERO PUSH2 0x1F4E JUMP JUMPDEST DUP4 MLOAD PUSH3 0x461BCD PUSH1 0xE5 SHL DUP2 MSTORE SWAP1 DUP2 ADD DUP4 SWAP1 MSTORE PUSH1 0x18 PUSH1 0x24 DUP3 ADD MSTORE PUSH32 0x4D75737420626520616E20616374697665206D656D6265720000000000000000 PUSH1 0x44 DUP3 ADD MSTORE PUSH1 0x64 SWAP1 REVERT JUMPDEST DUP3 CALLVALUE PUSH2 0x35E JUMPI DUP1 PUSH1 0x3 NOT CALLDATASIZE ADD SLT PUSH2 0x35E JUMPI PUSH1 0x1 PUSH1 0x1 PUSH1 0x40 SHL SUB SWAP1 DUP3 CALLDATALOAD DUP3 DUP2 GT PUSH2 0x35E JUMPI CALLDATASIZE PUSH1 0x23 DUP3 ADD SLT ISZERO PUSH2 0x35E JUMPI DUP1 DUP5 ADD CALLDATALOAD SWAP3 DUP4 GT PUSH2 0x35E JUMPI PUSH1 0x24 PUSH1 0x5 SWAP5 CALLDATASIZE PUSH1 0x24 DUP7 PUSH1 0x5 SHL DUP6 ADD ADD GT PUSH2 0x35E JUMPI PUSH0 SLOAD PUSH1 0x1 PUSH1 0x1 PUSH1 0xA0 SHL SUB SWAP7 PUSH1 0x24 CALLDATALOAD SWAP6 SWAP2 PUSH2 0x2285 SWAP1 DUP10 AND CALLER EQ PUSH2 0x43B6 JUMP JUMPDEST DUP7 ISZERO PUSH2 0x23E0 JUMPI PUSH2 0x2296 DUP7 ISZERO ISZERO PUSH2 0x47E4 JUMP JUMPDEST DUP6 PUSH0 MSTORE PUSH1 0x2 SWAP4 PUSH1 0x20 SWAP4 PUSH1 0x2 DUP6 MSTORE PUSH1 0xFF DUP5 PUSH0 KECCAK256 SLOAD AND SWAP1 PUSH1 0x6 DUP3 LT ISZERO PUSH2 0x768 JUMPI POP ISZERO SWAP6 PUSH0 JUMPDEST DUP10 DUP2 LT PUSH2 0x22C2 JUMPI STOP JUMPDEST DUP3 DUP2 DUP6 SHL DUP4 ADD ADD CALLDATALOAD SWAP1 DUP12 DUP3 AND SWAP2 DUP3 DUP2 SUB PUSH2 0x35E JUMPI DUP3 PUSH2 0x2348 DUP13 SWAP3 PUSH2 0x22E9 PUSH1 0x1 SWAP7 ISZERO ISZERO PUSH2 0x479F JUMP JUMPDEST DUP3 PUSH0 MSTORE PUSH2 0x2339 DUP7 DUP1 DUP14 MSTORE PUSH2 0x2300 DUP13 PUSH0 KECCAK256 SLOAD ISZERO PUSH2 0x4827 JUMP JUMPDEST DUP12 MLOAD SWAP1 PUSH2 0x230C DUP3 PUSH2 0x3C75 JUMP JUMPDEST DUP7 DUP3 MSTORE DUP14 DUP2 DUP2 DUP5 ADD SWAP2 DUP2 DUP4 MSTORE DUP9 PUSH0 MSTORE MSTORE DUP14 PUSH0 KECCAK256 SWAP3 MLOAD DUP4 SSTORE MLOAD ISZERO ISZERO SWAP2 ADD SWAP1 PUSH1 0xFF DUP1 NOT DUP4 SLOAD AND SWAP2 ISZERO ISZERO AND OR SWAP1 SSTORE JUMP JUMPDEST DUP4 PUSH0 MSTORE PUSH1 0x3 DUP12 MSTORE DUP10 PUSH0 KECCAK256 PUSH2 0x42A0 JUMP JUMPDEST DUP3 ISZERO DUP1 PUSH2 0x23D9 JUMPI JUMPDEST ISZERO PUSH2 0x23AC JUMPI DUP2 PUSH0 MSTORE DUP10 DUP10 MSTORE DUP8 PUSH0 KECCAK256 DUP11 PUSH1 0xFF NOT DUP3 SLOAD AND OR SWAP1 SSTORE PUSH2 0x2371 DUP3 PUSH2 0x42DB JUMP JUMPDEST PUSH2 0x237B DUP8 SLOAD PUSH2 0x435E JUMP JUMPDEST DUP8 SSTORE PUSH32 0x39D132591EE0696DE49AB564E4A90E430C006561917DB731A2A614DD2D245591 DUP10 DUP10 MLOAD TIMESTAMP DUP2 MSTORE LOG3 JUMPDEST ADD PUSH2 0x22B9 JUMP JUMPDEST PUSH32 0x1CC138F50384BE7770A8E4A34EECAA0D0C718BFAA1641AF49DB32532E4A5B910 DUP10 DUP10 MLOAD TIMESTAMP DUP2 MSTORE LOG3 PUSH2 0x23A6 JUMP JUMPDEST POP DUP11 PUSH2 0x2350 JUMP JUMPDEST DUP2 MLOAD PUSH3 0x461BCD PUSH1 0xE5 SHL DUP2 MSTORE PUSH1 0x20 DUP2 DUP6 ADD MSTORE PUSH1 0x13 PUSH1 0x24 DUP3 ADD MSTORE PUSH19 0x139BC81DD85B1B195D1CC81C1C9BDD9A591959 PUSH1 0x6A SHL PUSH1 0x44 DUP3 ADD MSTORE PUSH1 0x64 SWAP1 REVERT JUMPDEST SWAP1 POP CALLVALUE PUSH2 0x35E JUMPI PUSH1 0x20 SWAP1 PUSH1 0x20 PUSH1 0x3 NOT CALLDATASIZE ADD SLT PUSH2 0x35E JUMPI CALLDATALOAD PUSH0 MSTORE PUSH1 0xA PUSH1 0x20 MSTORE DUP2 PUSH0 KECCAK256 SWAP2 DUP1 MLOAD SWAP2 DUP3 PUSH1 0x20 DUP6 SLOAD SWAP2 DUP3 DUP2 MSTORE ADD SWAP5 PUSH0 MSTORE PUSH1 0x20 PUSH0 KECCAK256 SWAP2 PUSH0 SWAP1 JUMPDEST DUP3 DUP3 LT PUSH2 0x246B JUMPI PUSH2 0x5DE DUP7 DUP7 PUSH2 0x8CB DUP3 DUP12 SUB DUP4 PUSH2 0x3CDA JUMP JUMPDEST DUP4 SLOAD DUP8 MSTORE SWAP6 DUP7 ADD SWAP6 PUSH1 0x1 SWAP4 DUP5 ADD SWAP4 SWAP1 SWAP2 ADD SWAP1 PUSH2 0x2453 JUMP JUMPDEST DUP3 CALLVALUE PUSH2 0x35E JUMPI PUSH1 0x20 SWAP1 PUSH2 0x129E PUSH2 0x2497 CALLDATASIZE PUSH2 0x3F6F JUMP JUMPDEST SWAP1 PUSH2 0x4E3E JUMP JUMPDEST DUP3 CALLVALUE PUSH2 0x35E JUMPI PUSH2 0x24AC CALLDATASIZE PUSH2 0x3F6F JUMP JUMPDEST SWAP2 SWAP1 PUSH0 MSTORE PUSH1 0x7 PUSH1 0x20 MSTORE DUP1 PUSH0 KECCAK256 DUP1 SLOAD DUP4 LT ISZERO PUSH2 0x35E JUMPI PUSH1 0x20 SWAP3 PUSH2 0x350 SWAP2 PUSH2 0x40BD JUMP JUMPDEST DUP3 CALLVALUE PUSH2 0x35E JUMPI PUSH2 0x24DC CALLDATASIZE PUSH2 0x3F6F JUMP JUMPDEST SWAP1 PUSH0 MSTORE PUSH1 0xE PUSH1 0x20 MSTORE DUP2 PUSH0 KECCAK256 SWAP1 PUSH0 MSTORE PUSH1 0x20 MSTORE DUP1 PUSH0 KECCAK256 SWAP1 DUP1 MLOAD SWAP2 PUSH2 0x24FD DUP4 PUSH2 0x3C75 JUMP JUMPDEST SLOAD SWAP2 PUSH2 0x250C PUSH1 0xFF DUP5 AND DUP3 PUSH2 0x4502 JUMP JUMPDEST PUSH2 0x2520 PUSH1 0xFF PUSH1 0x20 DUP4 ADD SWAP5 PUSH1 0x8 SHR AND DUP5 PUSH2 0x450E JUMP JUMPDEST MLOAD DUP4 DUP2 LT ISZERO PUSH2 0x1731 JUMPI PUSH1 0x2 EQ SWAP2 DUP3 PUSH2 0x253F JUMPI JUMPDEST PUSH1 0x20 DUP4 DUP4 MLOAD SWAP1 ISZERO ISZERO DUP2 MSTORE RETURN JUMPDEST SWAP1 SWAP2 POP MLOAD SWAP2 PUSH1 0x3 DUP4 LT ISZERO PUSH2 0x768 JUMPI POP PUSH1 0x2 PUSH1 0x20 SWAP3 EQ SWAP1 DUP4 PUSH2 0x2533 JUMP JUMPDEST DUP3 CALLVALUE PUSH2 0x35E JUMPI PUSH0 CALLDATASIZE PUSH1 0x3 NOT ADD SLT PUSH2 0x35E JUMPI PUSH32 0x0 PUSH1 0x1 PUSH1 0x1 PUSH1 0xA0 SHL SUB AND ADDRESS SUB PUSH2 0x25C5 JUMPI PUSH1 0x20 SWAP1 MLOAD PUSH32 0x360894A13BA1A3210667C828492DB98DCA3E2076CC3735A920A3CA505D382BBC DUP2 MSTORE RETURN JUMPDEST MLOAD PUSH4 0x703E46DD PUSH1 0xE1 SHL DUP2 MSTORE REVERT JUMPDEST DUP3 CALLVALUE PUSH2 0x35E JUMPI PUSH2 0x25E1 CALLDATASIZE PUSH2 0x3DD5 JUMP JUMPDEST SWAP3 PUSH2 0x25EE PUSH2 0x3FD CALLER PUSH2 0x495F JUMP JUMPDEST PUSH2 0x25FB DUP4 MLOAD DUP6 MLOAD EQ PUSH2 0x4177 JUMP JUMPDEST CALLER PUSH0 MSTORE PUSH1 0x1 SWAP4 DUP5 SWAP4 PUSH1 0x20 SWAP1 PUSH1 0x1 PUSH1 0x20 MSTORE DUP4 PUSH0 KECCAK256 SLOAD SWAP5 PUSH1 0x1 DUP1 PUSH1 0xA0 SHL SUB AND PUSH0 MSTORE DUP4 PUSH0 KECCAK256 SLOAD SWAP4 PUSH2 0x262A DUP6 ISZERO ISZERO PUSH2 0x41BB JUMP JUMPDEST PUSH0 SWAP7 JUMPDEST PUSH2 0x2633 JUMPI STOP JUMPDEST DUP2 MLOAD DUP8 LT ISZERO PUSH2 0x54C JUMPI DUP8 DUP8 PUSH2 0x2652 PUSH2 0x264C DUP4 SWAP11 DUP9 PUSH2 0x4380 JUMP JUMPDEST MLOAD PUSH2 0x4D88 JUMP JUMPDEST ISZERO PUSH2 0x2725 JUMPI PUSH2 0x2665 DUP9 PUSH2 0x45C DUP4 DUP8 PUSH2 0x4380 JUMP JUMPDEST ISZERO PUSH2 0x2725 JUMPI DUP8 DUP8 DUP6 DUP6 DUP5 DUP11 DUP11 PUSH2 0x267F DUP7 PUSH2 0x45C DUP6 DUP9 PUSH2 0x4380 JUMP JUMPDEST ISZERO PUSH2 0x2719 JUMPI PUSH2 0x26BF DUP4 PUSH2 0x26B8 DUP2 PUSH2 0x26B2 PUSH2 0x26C6 SWAP9 PUSH1 0x6 DUP13 SWAP8 PUSH2 0x26A8 DUP16 SWAP12 PUSH2 0x48A DUP16 SWAP2 DUP13 SWAP3 PUSH2 0x4380 JUMP JUMPDEST PUSH0 MSTORE MSTORE PUSH0 KECCAK256 PUSH2 0x3FBD JUMP JUMPDEST SWAP9 PUSH2 0x4380 JUMP JUMPDEST MLOAD SWAP4 PUSH2 0x4380 JUMP JUMPDEST MLOAD SWAP2 PUSH2 0x4A66 JUMP JUMPDEST PUSH32 0x3AF67CF2057BA8EF414286FB626CD3EFB02F74996E18EFD455B39D8EC7EC460F PUSH2 0x26F1 DUP6 DUP10 PUSH2 0x4380 JUMP JUMPDEST MLOAD SWAP2 PUSH2 0x26FD DUP7 DUP13 PUSH2 0x4380 JUMP JUMPDEST MLOAD PUSH2 0x270E DUP10 MLOAD SWAP3 DUP4 SWAP3 TIMESTAMP SWAP2 DUP5 PUSH2 0x46CD JUMP JUMPDEST SUB SWAP1 LOG4 JUMPDEST ADD SWAP7 PUSH2 0x262D JUMP JUMPDEST POP POP POP POP POP POP POP PUSH2 0x2712 JUMP JUMPDEST PUSH2 0x2712 JUMP JUMPDEST SWAP1 POP DUP2 PUSH1 0x3 NOT CALLDATASIZE ADD SLT PUSH2 0x35E JUMPI PUSH2 0x273F PUSH2 0x3C49 JUMP JUMPDEST SWAP2 PUSH1 0x24 CALLDATALOAD PUSH1 0x1 PUSH1 0x1 PUSH1 0x40 SHL SUB DUP2 GT PUSH2 0x35E JUMPI CALLDATASIZE PUSH1 0x23 DUP3 ADD SLT ISZERO PUSH2 0x35E JUMPI PUSH2 0x276F SWAP1 CALLDATASIZE SWAP1 PUSH1 0x24 DUP2 DUP7 ADD CALLDATALOAD SWAP2 ADD PUSH2 0x3D72 JUMP JUMPDEST SWAP1 PUSH1 0x1 PUSH1 0x1 PUSH1 0xA0 SHL SUB PUSH32 0x0 DUP2 AND ADDRESS DUP2 EQ SWAP1 DUP2 ISZERO PUSH2 0x28F9 JUMPI JUMPDEST POP PUSH2 0x28E9 JUMPI PUSH2 0x27B9 DUP2 PUSH0 SLOAD AND CALLER EQ PUSH2 0x43B6 JUMP JUMPDEST DUP5 AND SWAP2 DUP2 MLOAD SWAP5 PUSH4 0x52D1902D PUSH1 0xE0 SHL DUP7 MSTORE PUSH1 0x20 DUP7 DUP7 DUP2 DUP8 GAS STATICCALL PUSH0 SWAP7 DUP2 PUSH2 0x28B5 JUMPI JUMPDEST POP PUSH2 0x27F5 JUMPI POP POP MLOAD PUSH4 0x4C9C8CE3 PUSH1 0xE0 SHL DUP2 MSTORE SWAP2 DUP3 ADD MSTORE PUSH1 0x24 SWAP2 POP REVERT JUMPDEST DUP4 DUP6 SWAP4 DUP8 PUSH32 0x360894A13BA1A3210667C828492DB98DCA3E2076CC3735A920A3CA505D382BBC SWAP1 DUP2 DUP2 SUB PUSH2 0x289F JUMPI POP DUP4 EXTCODESIZE ISZERO PUSH2 0x2888 JUMPI DUP1 SLOAD PUSH1 0x1 PUSH1 0x1 PUSH1 0xA0 SHL SUB NOT AND DUP4 OR SWAP1 SSTORE MLOAD SWAP1 PUSH32 0xBC7CD75A20EE27FD9ADEBAB32041F755214DBC6BFFA90CC0225B39DA2E5C2D3B PUSH0 DUP1 LOG2 DUP3 MLOAD ISZERO PUSH2 0x2872 JUMPI POP PUSH2 0x54C SWAP3 POP PUSH2 0x50E5 JUMP JUMPDEST SWAP2 POP POP CALLVALUE PUSH2 0x287C JUMPI STOP JUMPDEST PUSH4 0xB398979F PUSH1 0xE0 SHL DUP2 MSTORE REVERT JUMPDEST DUP2 MLOAD PUSH4 0x4C9C8CE3 PUSH1 0xE0 SHL DUP2 MSTORE DUP1 DUP8 ADD DUP5 SWAP1 MSTORE PUSH1 0x24 SWAP1 REVERT JUMPDEST DUP7 PUSH1 0x24 SWAP2 DUP5 MLOAD SWAP2 PUSH4 0x2A875269 PUSH1 0xE2 SHL DUP4 MSTORE DUP3 ADD MSTORE REVERT JUMPDEST SWAP1 SWAP7 POP PUSH1 0x20 DUP2 RETURNDATASIZE PUSH1 0x20 GT PUSH2 0x28E1 JUMPI JUMPDEST DUP2 PUSH2 0x28D1 PUSH1 0x20 SWAP4 DUP4 PUSH2 0x3CDA JUMP JUMPDEST DUP2 ADD SUB SLT PUSH2 0x35E JUMPI MLOAD SWAP6 PUSH0 PUSH2 0x27D9 JUMP JUMPDEST RETURNDATASIZE SWAP2 POP PUSH2 0x28C4 JUMP JUMPDEST DUP2 MLOAD PUSH4 0x703E46DD PUSH1 0xE1 SHL DUP2 MSTORE DUP5 SWAP1 REVERT JUMPDEST SWAP1 POP DUP2 PUSH32 0x360894A13BA1A3210667C828492DB98DCA3E2076CC3735A920A3CA505D382BBC SLOAD AND EQ ISZERO PUSH0 PUSH2 0x27A6 JUMP JUMPDEST SWAP1 POP CALLVALUE PUSH2 0x35E JUMPI PUSH2 0x2937 CALLDATASIZE PUSH2 0x3EDD JUMP JUMPDEST SWAP2 PUSH2 0x2944 PUSH2 0x3FD CALLER PUSH2 0x495F JUMP JUMPDEST CALLER PUSH0 MSTORE PUSH1 0x1 PUSH1 0x20 MSTORE DUP4 PUSH0 KECCAK256 SLOAD SWAP3 DUP3 PUSH0 MSTORE PUSH1 0xE PUSH1 0x20 MSTORE DUP5 PUSH0 KECCAK256 DUP5 PUSH0 MSTORE PUSH1 0x20 MSTORE DUP5 PUSH0 KECCAK256 DUP1 SLOAD PUSH1 0xFF DUP2 AND DUP5 DUP2 LT ISZERO PUSH2 0x170A JUMPI PUSH1 0x2 PUSH2 0x297F SWAP2 EQ PUSH2 0x4873 JUMP JUMPDEST PUSH1 0x3 DUP4 LT ISZERO PUSH2 0x1731 JUMPI PUSH1 0x8 SHR PUSH1 0xFF AND SWAP3 PUSH1 0x3 DUP5 LT ISZERO PUSH2 0x768 JUMPI DUP4 PUSH1 0xFF DUP5 AND LT ISZERO PUSH2 0x29D5 JUMPI POP PUSH32 0xB36EC3C738EF8ECD9180ADDC815304762374B76E91C2A321831D9906EA119ADE SWAP4 SWAP5 SWAP6 PUSH2 0x190F DUP4 PUSH2 0x191B SWAP4 PUSH2 0x4532 JUMP JUMPDEST PUSH1 0x84 SWAP1 PUSH1 0x20 DUP9 MLOAD SWAP2 PUSH3 0x461BCD PUSH1 0xE5 SHL DUP4 MSTORE DUP3 ADD MSTORE PUSH1 0x23 PUSH1 0x24 DUP3 ADD MSTORE PUSH32 0x43616E206F6E6C7920646F776E677261646520746F2061206C6F776572206C65 PUSH1 0x44 DUP3 ADD MSTORE PUSH3 0x1D995B PUSH1 0xEA SHL PUSH1 0x64 DUP3 ADD MSTORE REVERT JUMPDEST SWAP1 POP CALLVALUE PUSH2 0x35E JUMPI DUP2 PUSH1 0x3 NOT CALLDATASIZE ADD SLT PUSH2 0x35E JUMPI PUSH2 0x2A3E PUSH2 0x3C49 JUMP JUMPDEST SWAP2 PUSH1 0x24 CALLDATALOAD SWAP3 PUSH1 0x1 DUP1 PUSH1 0xA0 SHL SUB PUSH2 0x2A58 DUP2 PUSH0 SLOAD AND CALLER EQ PUSH2 0x43B6 JUMP JUMPDEST DUP2 AND SWAP3 PUSH2 0x2A66 DUP5 ISZERO ISZERO PUSH2 0x479F JUMP JUMPDEST PUSH2 0x2A71 DUP6 ISZERO ISZERO PUSH2 0x47E4 JUMP JUMPDEST DUP4 PUSH0 MSTORE PUSH2 0x2AD6 PUSH1 0x20 SWAP3 PUSH1 0x1 DUP5 MSTORE PUSH2 0x2A8B DUP6 PUSH0 KECCAK256 SLOAD ISZERO PUSH2 0x4827 JUMP JUMPDEST PUSH2 0x2AC7 DUP6 MLOAD PUSH2 0x2A99 DUP2 PUSH2 0x3C75 JUMP JUMPDEST DUP9 DUP2 MSTORE PUSH1 0x1 DUP7 DUP3 ADD DUP2 DUP2 MSTORE DUP10 PUSH0 MSTORE DUP2 DUP9 MSTORE DUP9 PUSH0 KECCAK256 SWAP3 MLOAD DUP4 SSTORE MLOAD ISZERO ISZERO SWAP2 ADD SWAP1 PUSH1 0xFF DUP1 NOT DUP4 SLOAD AND SWAP2 ISZERO ISZERO AND OR SWAP1 SSTORE JUMP JUMPDEST DUP7 PUSH0 MSTORE PUSH1 0x3 DUP5 MSTORE DUP5 PUSH0 KECCAK256 PUSH2 0x42A0 JUMP JUMPDEST DUP5 PUSH0 MSTORE PUSH1 0x2 DUP3 MSTORE PUSH1 0xFF DUP4 PUSH0 KECCAK256 SLOAD AND SWAP1 PUSH1 0x6 DUP3 LT ISZERO PUSH2 0x768 JUMPI POP PUSH2 0x2B48 JUMPI PUSH32 0x39D132591EE0696DE49AB564E4A90E430C006561917DB731A2A614DD2D245591 SWAP2 DUP5 PUSH0 MSTORE PUSH1 0x2 DUP3 MSTORE DUP1 PUSH0 KECCAK256 PUSH1 0x2 PUSH1 0xFF NOT DUP3 SLOAD AND OR SWAP1 SSTORE PUSH2 0x2B33 DUP6 PUSH2 0x42DB JUMP JUMPDEST PUSH2 0x2B3E PUSH1 0x5 SLOAD PUSH2 0x435E JUMP JUMPDEST PUSH1 0x5 SSTORE MLOAD TIMESTAMP DUP2 MSTORE LOG3 STOP JUMPDEST PUSH32 0x1CC138F50384BE7770A8E4A34EECAA0D0C718BFAA1641AF49DB32532E4A5B910 SWAP2 MLOAD TIMESTAMP DUP2 MSTORE LOG3 STOP JUMPDEST DUP3 CALLVALUE PUSH2 0x35E JUMPI PUSH1 0x20 CALLDATASIZE PUSH1 0x3 NOT ADD SLT PUSH2 0x35E JUMPI PUSH1 0x20 SWAP1 PUSH2 0x129E PUSH2 0x1F32 PUSH2 0x3C49 JUMP JUMPDEST DUP3 CALLVALUE PUSH2 0x35E JUMPI PUSH1 0x20 SWAP1 PUSH2 0x2BA6 PUSH2 0x1978 CALLDATASIZE PUSH2 0x3F6F JUMP JUMPDEST PUSH0 MSTORE PUSH1 0x6 DUP3 MSTORE PUSH2 0x5DE DUP2 PUSH0 KECCAK256 SWAP2 DUP1 MLOAD PUSH2 0x2BBE DUP2 PUSH2 0x3C75 JUMP JUMPDEST PUSH1 0xFF PUSH1 0x1 PUSH2 0x2BCB DUP7 PUSH2 0x3FBD JUMP JUMPDEST SWAP6 DUP7 DUP5 MSTORE ADD SLOAD AND ISZERO ISZERO SWAP5 DUP6 SWAP2 ADD MSTORE MLOAD SWAP3 DUP4 SWAP3 DUP4 PUSH2 0x409D JUMP JUMPDEST DUP3 CALLVALUE PUSH2 0x35E JUMPI DUP1 PUSH1 0x3 NOT CALLDATASIZE ADD SLT PUSH2 0x35E JUMPI PUSH2 0x2C0A PUSH2 0x5DE SWAP3 PUSH2 0x2C03 PUSH2 0x3C5F JUMP JUMPDEST SWAP1 CALLDATALOAD PUSH2 0x4727 JUMP JUMPDEST SWAP3 SWAP1 SWAP2 MLOAD SWAP3 DUP4 SWAP3 DUP4 PUSH2 0x409D JUMP JUMPDEST SWAP1 POP CALLVALUE PUSH2 0x35E JUMPI PUSH1 0x20 SWAP1 PUSH1 0x20 PUSH1 0x3 NOT CALLDATASIZE ADD SLT PUSH2 0x35E JUMPI CALLDATALOAD PUSH0 MSTORE PUSH1 0x8 PUSH1 0x20 MSTORE DUP2 PUSH0 KECCAK256 SWAP2 DUP1 MLOAD SWAP2 DUP3 PUSH1 0x20 DUP6 SLOAD SWAP2 DUP3 DUP2 MSTORE ADD SWAP5 PUSH0 MSTORE PUSH1 0x20 PUSH0 KECCAK256 SWAP2 PUSH0 SWAP1 JUMPDEST DUP3 DUP3 LT PUSH2 0x2C69 JUMPI PUSH2 0x5DE DUP7 DUP7 PUSH2 0x8CB DUP3 DUP12 SUB DUP4 PUSH2 0x3CDA JUMP JUMPDEST DUP4 SLOAD DUP8 MSTORE SWAP6 DUP7 ADD SWAP6 PUSH1 0x1 SWAP4 DUP5 ADD SWAP4 SWAP1 SWAP2 ADD SWAP1 PUSH2 0x2C51 JUMP JUMPDEST DUP3 CALLVALUE PUSH2 0x35E JUMPI PUSH1 0x20 SWAP1 PUSH2 0x129E PUSH2 0x2C95 CALLDATASIZE PUSH2 0x3F2D JUMP JUMPDEST SWAP2 PUSH2 0x46FB JUMP JUMPDEST SWAP1 POP CALLVALUE PUSH2 0x35E JUMPI PUSH1 0x20 CALLDATASIZE PUSH1 0x3 NOT ADD SLT PUSH2 0x35E JUMPI CALLDATALOAD PUSH0 MSTORE PUSH1 0x6 PUSH1 0x20 MSTORE DUP1 PUSH0 KECCAK256 PUSH2 0x5DE PUSH1 0xFF PUSH1 0x1 PUSH2 0x2CC9 DUP5 PUSH2 0x3FBD JUMP JUMPDEST SWAP4 ADD SLOAD AND SWAP3 MLOAD SWAP3 DUP4 SWAP3 DUP4 PUSH2 0x409D JUMP JUMPDEST DUP3 CALLVALUE PUSH2 0x35E JUMPI PUSH2 0x2CE7 CALLDATASIZE PUSH2 0x3F6F JUMP JUMPDEST SWAP1 PUSH0 MSTORE PUSH1 0xF PUSH1 0x20 MSTORE DUP2 PUSH0 KECCAK256 SWAP1 PUSH0 MSTORE PUSH1 0x20 MSTORE DUP1 PUSH0 KECCAK256 SWAP1 PUSH2 0x5DE PUSH1 0x60 DUP3 MLOAD SWAP4 PUSH2 0x2D0D DUP6 PUSH2 0x3CA4 JUMP JUMPDEST DUP1 SLOAD SWAP4 DUP5 DUP7 MSTORE PUSH1 0x1 DUP3 ADD SLOAD SWAP6 DUP7 PUSH1 0x20 DUP3 ADD MSTORE PUSH1 0x3 PUSH1 0x2 DUP5 ADD SLOAD SWAP4 DUP5 DUP5 DUP5 ADD MSTORE ADD SLOAD SWAP4 DUP5 SWAP2 ADD MSTORE MLOAD SWAP5 DUP6 SWAP5 DUP6 SWAP1 SWAP5 SWAP4 SWAP3 PUSH1 0x60 SWAP3 PUSH1 0x80 DUP4 ADD SWAP7 DUP4 MSTORE PUSH1 0x20 DUP4 ADD MSTORE PUSH1 0x40 DUP3 ADD MSTORE ADD MSTORE JUMP JUMPDEST DUP3 CALLVALUE PUSH2 0x35E JUMPI PUSH1 0x20 DUP1 PUSH1 0x3 NOT CALLDATASIZE ADD SLT PUSH2 0x35E JUMPI DUP3 CALLDATALOAD SWAP2 PUSH2 0x2D75 DUP4 ISZERO ISZERO PUSH2 0x4551 JUMP JUMPDEST CALLER PUSH0 MSTORE PUSH1 0x1 DUP3 MSTORE DUP1 PUSH0 KECCAK256 SLOAD SWAP4 PUSH2 0x2D93 PUSH2 0x2D8C PUSH2 0x4683 JUMP JUMPDEST DUP7 DUP7 PUSH2 0x4DE0 JUMP JUMPDEST ISZERO PUSH2 0x2E84 JUMPI DUP4 PUSH0 MSTORE PUSH1 0x7 DUP4 MSTORE PUSH1 0x1 DUP3 PUSH0 KECCAK256 SLOAD GT PUSH1 0x8 DUP5 MSTORE DUP3 PUSH0 KECCAK256 SLOAD ISZERO ISZERO DUP2 ISZERO PUSH2 0x2E7C JUMPI JUMPDEST POP ISZERO PUSH2 0x2E21 JUMPI POP SWAP1 PUSH32 0x68F37CC4A32F0B24153CE9237B344B20A9717039F90D7C24F35E5C217F03E168 SWAP2 PUSH2 0x2DEB DUP6 DUP6 PUSH2 0x4C7B JUMP JUMPDEST PUSH2 0x2DFD PUSH2 0x2DF6 PUSH2 0x4683 JUMP JUMPDEST DUP8 DUP8 PUSH2 0x4CAF JUMP JUMPDEST PUSH0 MSTORE PUSH1 0x6 DUP3 MSTORE PUSH1 0x1 DUP2 PUSH0 KECCAK256 ADD PUSH1 0xFF NOT DUP2 SLOAD AND SWAP1 SSTORE PUSH1 0xD DUP3 MSTORE PUSH0 DUP2 DUP2 KECCAK256 SSTORE MLOAD TIMESTAMP DUP2 MSTORE LOG3 STOP JUMPDEST DUP3 PUSH1 0x84 SWAP3 MLOAD SWAP2 PUSH3 0x461BCD PUSH1 0xE5 SHL DUP4 MSTORE DUP3 ADD MSTORE PUSH1 0x31 PUSH1 0x24 DUP3 ADD MSTORE PUSH32 0x43616E6E6F74206C65617665206173206C617374206F776E6572207769746820 PUSH1 0x44 DUP3 ADD MSTORE PUSH17 0x6E6F2061646D696E6973747261746F7273 PUSH1 0x78 SHL PUSH1 0x64 DUP3 ADD MSTORE REVERT JUMPDEST SWAP1 POP DUP7 PUSH2 0x2DB7 JUMP JUMPDEST DUP3 PUSH1 0x84 SWAP3 MLOAD SWAP2 PUSH3 0x461BCD PUSH1 0xE5 SHL DUP4 MSTORE DUP3 ADD MSTORE PUSH1 0x23 PUSH1 0x24 DUP3 ADD MSTORE PUSH32 0x596F7520617265206E6F7420616E206F776E6572206F66207468697320726563 PUSH1 0x44 DUP3 ADD MSTORE PUSH3 0x1BDC99 PUSH1 0xEA SHL PUSH1 0x64 DUP3 ADD MSTORE REVERT JUMPDEST SWAP1 POP CALLVALUE PUSH2 0x35E JUMPI PUSH2 0x2EE1 CALLDATASIZE PUSH2 0x3F2D JUMP JUMPDEST SWAP4 SWAP1 PUSH2 0x2EEF PUSH2 0x3FD CALLER PUSH2 0x495F JUMP JUMPDEST PUSH2 0x2EFA DUP4 ISZERO ISZERO PUSH2 0x4551 JUMP JUMPDEST PUSH1 0x1 PUSH1 0x1 PUSH1 0xA0 SHL SUB AND SWAP4 PUSH2 0x2F0F DUP6 ISZERO ISZERO PUSH2 0x459D JUMP JUMPDEST PUSH2 0x2F1B PUSH2 0x9A7 DUP3 PUSH2 0x4D88 JUMP JUMPDEST CALLER PUSH0 MSTORE PUSH1 0x20 SWAP2 PUSH1 0x1 DUP4 MSTORE DUP1 PUSH0 KECCAK256 SLOAD SWAP6 PUSH0 MSTORE DUP1 PUSH0 KECCAK256 SLOAD SWAP5 PUSH2 0x2F3C DUP7 ISZERO ISZERO PUSH2 0x41BB JUMP JUMPDEST DUP3 MLOAD DUP5 DUP5 ADD KECCAK256 SWAP4 PUSH2 0x2F4D DUP8 DUP8 PUSH2 0x4C7B JUMP JUMPDEST DUP1 PUSH0 MSTORE PUSH1 0x6 DUP3 MSTORE PUSH2 0x2F66 PUSH1 0xFF PUSH1 0x1 DUP7 PUSH0 KECCAK256 ADD SLOAD AND PUSH2 0x462B JUMP JUMPDEST PUSH0 MSTORE PUSH1 0x6 DUP2 MSTORE PUSH2 0x2F77 DUP4 PUSH0 KECCAK256 PUSH2 0x3FBD JUMP JUMPDEST SWAP5 DUP6 MLOAD DUP3 DUP8 ADD KECCAK256 SWAP1 DUP1 DUP3 EQ PUSH2 0x33BA JUMPI PUSH2 0x2F8E PUSH2 0x4683 JUMP JUMPDEST DUP4 DUP2 MLOAD SWAP2 ADD KECCAK256 DUP3 EQ PUSH2 0x3346 JUMPI DUP8 PUSH0 MSTORE PUSH1 0x7 DUP4 MSTORE DUP5 PUSH0 KECCAK256 SLOAD ISZERO SWAP2 DUP3 ISZERO PUSH2 0x2FBB PUSH2 0x2FB4 PUSH2 0x4683 JUMP JUMPDEST DUP14 DUP13 PUSH2 0x4DE0 JUMP JUMPDEST SWAP1 PUSH2 0x2FCF DUP14 PUSH2 0x2FC8 PUSH2 0x46A4 JUMP JUMPDEST SWAP1 DUP14 PUSH2 0x4DE0 JUMP JUMPDEST SWAP1 PUSH2 0x2FD8 PUSH2 0x4683 JUMP JUMPDEST DUP1 MLOAD SWAP1 DUP9 ADD KECCAK256 DUP6 SUB PUSH2 0x318D JUMPI ISZERO PUSH2 0x312F JUMPI POP ISZERO PUSH2 0x30ED JUMPI JUMPDEST PUSH2 0x2FF8 PUSH2 0x46A4 JUMP JUMPDEST DUP5 DUP2 MLOAD SWAP2 ADD KECCAK256 EQ SWAP1 DUP2 PUSH2 0x30D6 JUMPI JUMPDEST POP PUSH2 0x3053 JUMPI JUMPDEST POP POP POP SWAP1 PUSH2 0x304E PUSH32 0x3AF67CF2057BA8EF414286FB626CD3EFB02F74996E18EFD455B39D8EC7EC460F SWAP4 SWAP3 PUSH2 0x3042 DUP9 DUP5 DUP10 DUP10 PUSH2 0x4A66 JUMP JUMPDEST MLOAD SWAP3 DUP4 SWAP3 TIMESTAMP SWAP2 DUP5 PUSH2 0x46CD JUMP JUMPDEST SUB SWAP1 LOG4 STOP JUMPDEST PUSH2 0x305E JUMPI JUMPDEST DUP1 PUSH2 0x300C JUMP JUMPDEST DUP6 PUSH0 MSTORE PUSH1 0x8 DUP2 MSTORE PUSH1 0x1 DUP4 PUSH0 KECCAK256 SLOAD GT PUSH2 0x3058 JUMPI PUSH1 0x84 SWAP3 MLOAD SWAP2 PUSH3 0x461BCD PUSH1 0xE5 SHL DUP4 MSTORE DUP3 ADD MSTORE PUSH1 0x39 PUSH1 0x24 DUP3 ADD MSTORE PUSH32 0x43616E6E6F742064656D6F746520746865206C6173742061646D696E69737472 PUSH1 0x44 DUP3 ADD MSTORE PUSH32 0x61746F72207768656E206E6F206F776E65722065786973747300000000000000 PUSH1 0x64 DUP3 ADD MSTORE REVERT JUMPDEST SWAP1 POP PUSH2 0x30E0 PUSH2 0x4394 JUMP JUMPDEST DUP4 DUP2 MLOAD SWAP2 ADD KECCAK256 EQ PUSH0 PUSH2 0x3006 JUMP JUMPDEST POP POP POP DUP1 PUSH1 0x64 SWAP4 MLOAD SWAP3 PUSH3 0x461BCD PUSH1 0xE5 SHL DUP5 MSTORE DUP4 ADD MSTORE PUSH1 0x24 DUP3 ADD MSTORE PUSH32 0x4F6E6C79206F776E6572732063616E2070726F6D6F746520746F206F776E6572 PUSH1 0x44 DUP3 ADD MSTORE REVERT JUMPDEST SWAP1 POP PUSH2 0x2FF0 JUMPI POP POP SWAP3 MLOAD PUSH3 0x461BCD PUSH1 0xE5 SHL DUP2 MSTORE SWAP2 DUP3 ADD MSTORE PUSH1 0x2B PUSH1 0x24 DUP3 ADD MSTORE PUSH32 0x4F6E6C792061646D696E6973747261746F72732063616E2070726F6D6F746520 PUSH1 0x44 DUP3 ADD MSTORE PUSH11 0x3334B939BA1037BBB732B9 PUSH1 0xA9 SHL PUSH1 0x64 DUP3 ADD MSTORE PUSH1 0x84 SWAP2 POP REVERT JUMPDEST PUSH2 0x3195 PUSH2 0x46A4 JUMP JUMPDEST DUP1 MLOAD SWAP1 DUP9 ADD KECCAK256 DUP6 SUB PUSH2 0x3220 JUMPI POP DUP2 ISZERO PUSH2 0x3218 JUMPI JUMPDEST POP PUSH2 0x2FF0 JUMPI POP POP SWAP3 MLOAD PUSH3 0x461BCD PUSH1 0xE5 SHL DUP2 MSTORE SWAP2 DUP3 ADD MSTORE PUSH1 0x3B PUSH1 0x24 DUP3 ADD MSTORE PUSH32 0x4F6E6C79206F776E65727320616E642061646D696E6973747261746F72732063 PUSH1 0x44 DUP3 ADD MSTORE PUSH32 0x616E2070726F6D6F746520746F2061646D696E6973747261746F720000000000 PUSH1 0x64 DUP3 ADD MSTORE PUSH1 0x84 SWAP2 POP REVERT JUMPDEST SWAP1 POP PUSH0 PUSH2 0x31A9 JUMP JUMPDEST PUSH2 0x3228 PUSH2 0x4394 JUMP JUMPDEST DUP8 DUP2 MLOAD SWAP2 ADD KECCAK256 DUP6 EQ PUSH2 0x323D JUMPI JUMPDEST POP POP POP PUSH2 0x2FF0 JUMP JUMPDEST ISZERO PUSH2 0x32EB JUMPI DUP2 ISZERO PUSH2 0x32D4 JUMPI JUMPDEST POP ISZERO PUSH2 0x3258 JUMPI JUMPDEST PUSH0 DUP1 DUP1 PUSH2 0x3235 JUMP JUMPDEST POP POP SWAP3 MLOAD PUSH3 0x461BCD PUSH1 0xE5 SHL DUP2 MSTORE SWAP2 DUP3 ADD MSTORE PUSH1 0x49 PUSH1 0x24 DUP3 ADD MSTORE PUSH32 0x4F6E6C79206F776E6572732063616E2064656D6F7465206F74686572732E2041 PUSH1 0x44 DUP3 ADD MSTORE PUSH32 0x646D696E6973747261746F72732063616E206F6E6C792064656D6F7465207468 PUSH1 0x64 DUP3 ADD MSTORE PUSH9 0x32B6B9B2B63B32B997 PUSH1 0xB9 SHL PUSH1 0x84 DUP3 ADD MSTORE PUSH1 0xA4 SWAP2 POP REVERT JUMPDEST SWAP1 POP DUP1 PUSH2 0x32E2 JUMPI JUMPDEST PUSH0 PUSH2 0x3249 JUMP JUMPDEST POP DUP10 DUP12 EQ PUSH2 0x32DC JUMP JUMPDEST SWAP1 POP PUSH2 0x3250 JUMPI POP POP SWAP3 MLOAD PUSH3 0x461BCD PUSH1 0xE5 SHL DUP2 MSTORE SWAP2 DUP3 ADD MSTORE PUSH1 0x28 PUSH1 0x24 DUP3 ADD MSTORE PUSH32 0x4F6E6C792061646D696E6973747261746F72732063616E2064656D6F74652074 PUSH1 0x44 DUP3 ADD MSTORE PUSH8 0x37903B34B2BBB2B9 PUSH1 0xC1 SHL PUSH1 0x64 DUP3 ADD MSTORE PUSH1 0x84 SWAP2 POP REVERT JUMPDEST POP POP PUSH1 0xA4 SWAP3 MLOAD SWAP2 PUSH3 0x461BCD PUSH1 0xE5 SHL DUP4 MSTORE DUP3 ADD MSTORE PUSH1 0x43 PUSH1 0x24 DUP3 ADD MSTORE PUSH32 0x4F776E6572732063616E6E6F742062652064656D6F7465642E204F776E657220 PUSH1 0x44 DUP3 ADD MSTORE PUSH32 0x6D75737420766F6C756E746172696C792072656D6F7665207468656D73656C76 PUSH1 0x64 DUP3 ADD MSTORE PUSH3 0x32B997 PUSH1 0xE9 SHL PUSH1 0x84 DUP3 ADD MSTORE REVERT JUMPDEST POP POP PUSH1 0x64 SWAP3 MLOAD SWAP2 PUSH3 0x461BCD PUSH1 0xE5 SHL DUP4 MSTORE DUP3 ADD MSTORE PUSH1 0x1C PUSH1 0x24 DUP3 ADD MSTORE PUSH32 0x54617267657420616C726561647920686173207468697320726F6C6500000000 PUSH1 0x44 DUP3 ADD MSTORE REVERT JUMPDEST DUP3 CALLVALUE PUSH2 0x35E JUMPI PUSH1 0x20 CALLDATASIZE PUSH1 0x3 NOT ADD SLT PUSH2 0x35E JUMPI PUSH1 0x20 SWAP1 PUSH2 0x129E PUSH2 0x341C PUSH2 0x3C49 JUMP JUMPDEST PUSH2 0x4D32 JUMP JUMPDEST DUP3 CALLVALUE PUSH2 0x35E JUMPI PUSH2 0x3430 CALLDATASIZE PUSH2 0x3EFC JUMP JUMPDEST PUSH2 0x343F PUSH2 0x3FD SWAP4 SWAP3 SWAP4 CALLER PUSH2 0x495F JUMP JUMPDEST CALLER PUSH0 MSTORE PUSH1 0x1 SWAP3 DUP4 SWAP3 PUSH1 0x20 SWAP1 DUP5 DUP3 MSTORE DUP1 PUSH0 KECCAK256 SLOAD SWAP3 PUSH2 0x345E DUP2 MLOAD ISZERO ISZERO PUSH2 0x425E JUMP JUMPDEST PUSH0 SWAP6 JUMPDEST PUSH2 0x3467 JUMPI STOP JUMPDEST DUP1 MLOAD DUP7 LT ISZERO PUSH2 0x54C JUMPI DUP7 DUP7 DUP7 DUP7 PUSH2 0x347F DUP5 SWAP11 DUP7 PUSH2 0x4380 JUMP JUMPDEST MLOAD DUP1 PUSH0 MSTORE PUSH1 0xF DUP9 MSTORE DUP7 PUSH0 KECCAK256 DUP4 PUSH0 MSTORE DUP9 MSTORE DUP7 PUSH0 KECCAK256 DUP8 MLOAD PUSH2 0x349D DUP2 PUSH2 0x3CA4 JUMP JUMPDEST DUP2 SLOAD SWAP1 DUP2 DUP2 MSTORE DUP8 DUP4 ADD SLOAD DUP12 DUP3 ADD MSTORE PUSH1 0x60 PUSH1 0x3 PUSH1 0x2 DUP6 ADD SLOAD SWAP5 DUP6 DUP14 DUP6 ADD MSTORE ADD SLOAD SWAP2 ADD MSTORE ISZERO PUSH2 0x3597 JUMPI PUSH2 0x34D6 PUSH2 0x34CF PUSH2 0x4683 JUMP JUMPDEST DUP5 DUP5 PUSH2 0x4DE0 JUMP JUMPDEST SWAP1 DUP2 ISZERO PUSH2 0x3584 JUMPI JUMPDEST DUP4 EQ ISZERO SWAP1 DUP2 PUSH2 0x357B JUMPI JUMPDEST POP PUSH2 0x3573 JUMPI PUSH2 0x34F7 DUP4 DUP3 PUSH2 0x4C7B JUMP JUMPDEST DUP1 PUSH0 MSTORE PUSH1 0x6 SWAP1 DUP2 DUP11 MSTORE PUSH1 0xFF DUP8 DUP11 PUSH0 KECCAK256 ADD SLOAD AND PUSH2 0x3540 JUMPI JUMPDEST POP POP PUSH32 0xA232DCFFAB2D4F0F085A4D88BC617CD25DED7D3B8D8952E99D788CA25D4435B0 DUP9 DUP9 MLOAD TIMESTAMP DUP2 MSTORE LOG4 JUMPDEST ADD SWAP6 PUSH2 0x3461 JUMP JUMPDEST PUSH2 0x3552 PUSH2 0x354B PUSH2 0x4394 JUMP JUMPDEST DUP7 DUP6 PUSH2 0x4CAF JUMP JUMPDEST PUSH0 MSTORE DUP9 MSTORE DUP5 DUP8 PUSH0 KECCAK256 ADD PUSH1 0xFF NOT DUP2 SLOAD AND SWAP1 SSTORE PUSH1 0xD DUP9 MSTORE PUSH0 DUP8 DUP2 KECCAK256 SSTORE DUP13 DUP1 PUSH2 0x350E JUMP JUMPDEST POP POP POP PUSH2 0x3539 JUMP JUMPDEST SWAP1 POP ISZERO DUP14 PUSH2 0x34E8 JUMP JUMPDEST SWAP1 POP PUSH2 0x3591 PUSH2 0x34CF PUSH2 0x46A4 JUMP JUMPDEST SWAP1 PUSH2 0x34DE JUMP JUMPDEST POP POP POP POP PUSH2 0x3539 JUMP JUMPDEST DUP3 CALLVALUE PUSH2 0x35E JUMPI PUSH2 0x35AF CALLDATASIZE PUSH2 0x3EDD JUMP JUMPDEST SWAP1 SWAP2 PUSH2 0x35BD PUSH2 0x3FD CALLER PUSH2 0x495F JUMP JUMPDEST CALLER PUSH0 MSTORE PUSH1 0x20 SWAP2 PUSH1 0x1 DUP4 MSTORE DUP2 PUSH0 KECCAK256 SLOAD SWAP3 PUSH2 0x35D7 DUP6 ISZERO ISZERO PUSH2 0x4433 JUMP JUMPDEST PUSH2 0x35E3 DUP6 DUP6 EQ ISZERO PUSH2 0x4471 JUMP JUMPDEST DUP5 PUSH0 MSTORE PUSH1 0x2 DUP2 MSTORE PUSH1 0xFF DUP4 PUSH0 KECCAK256 SLOAD AND PUSH1 0x6 DUP2 LT ISZERO PUSH2 0x7EA JUMPI PUSH2 0x3605 SWAP1 ISZERO ISZERO PUSH2 0x44BD JUMP JUMPDEST DUP4 PUSH0 MSTORE PUSH1 0xE DUP2 MSTORE DUP3 PUSH0 KECCAK256 DUP6 PUSH0 MSTORE DUP2 MSTORE PUSH1 0xFF DUP4 PUSH0 KECCAK256 SLOAD AND DUP7 DUP2 LT ISZERO PUSH2 0x7EA JUMPI DUP1 ISZERO SWAP1 DUP2 ISZERO PUSH2 0x36FC JUMPI JUMPDEST POP ISZERO PUSH2 0x36BA JUMPI DUP3 MLOAD PUSH2 0x363E DUP2 PUSH2 0x3C75 JUMP JUMPDEST PUSH1 0x1 DUP2 MSTORE DUP2 DUP2 ADD PUSH2 0x364F DUP5 DUP3 PUSH2 0x450E JUMP JUMPDEST DUP6 PUSH0 MSTORE PUSH1 0xE DUP4 MSTORE DUP5 PUSH0 KECCAK256 DUP8 PUSH0 MSTORE DUP4 MSTORE DUP5 PUSH0 KECCAK256 SWAP2 MLOAD DUP9 DUP2 LT ISZERO PUSH2 0x77B JUMPI PUSH2 0x3675 SWAP1 DUP4 PUSH2 0x451A JUMP JUMPDEST MLOAD SWAP7 PUSH1 0x3 DUP9 LT ISZERO PUSH2 0x768 JUMPI POP PUSH32 0x494D010FDF588A0E83D626EA6963187BDDA6F88B7007F7BF280683D3F7DEA834 SWAP5 SWAP6 SWAP7 PUSH2 0x36AE SWAP2 PUSH2 0x4532 JUMP JUMPDEST PUSH2 0x17DE DUP4 MLOAD DUP1 SWAP4 PUSH2 0x4107 JUMP JUMPDEST DUP6 PUSH1 0x64 SWAP2 DUP5 MLOAD SWAP2 PUSH3 0x461BCD PUSH1 0xE5 SHL DUP4 MSTORE DUP3 ADD MSTORE PUSH1 0x17 PUSH1 0x24 DUP3 ADD MSTORE PUSH32 0x50726F706F73616C20616C726561647920657869737473000000000000000000 PUSH1 0x44 DUP3 ADD MSTORE REVERT JUMPDEST PUSH1 0x3 SWAP2 POP EQ DUP8 PUSH2 0x362D JUMP JUMPDEST DUP3 CALLVALUE PUSH2 0x35E JUMPI PUSH1 0x20 CALLDATASIZE PUSH1 0x3 NOT ADD SLT PUSH2 0x35E JUMPI PUSH2 0x3721 PUSH2 0x3C49 JUMP JUMPDEST PUSH0 SLOAD PUSH1 0x1 PUSH1 0x1 PUSH1 0xA0 SHL SUB SWAP2 SWAP1 PUSH2 0x373A SWAP1 DUP4 AND CALLER EQ PUSH2 0x43B6 JUMP JUMPDEST AND DUP1 PUSH0 MSTORE PUSH1 0x1 PUSH1 0x20 MSTORE PUSH2 0x3751 DUP3 PUSH0 KECCAK256 SLOAD ISZERO ISZERO PUSH2 0x43EF JUMP JUMPDEST DUP1 PUSH0 MSTORE PUSH1 0x1 PUSH1 0x20 MSTORE PUSH1 0xFF PUSH1 0x1 DUP4 PUSH0 KECCAK256 ADD SLOAD AND ISZERO PUSH2 0x3781 JUMPI PUSH1 0x1 SWAP3 POP PUSH0 MSTORE DUP2 PUSH1 0x20 MSTORE PUSH0 KECCAK256 ADD PUSH1 0xFF NOT DUP2 SLOAD AND SWAP1 SSTORE PUSH0 DUP1 RETURN JUMPDEST DUP2 MLOAD PUSH3 0x461BCD PUSH1 0xE5 SHL DUP2 MSTORE PUSH1 0x20 DUP2 DUP6 ADD MSTORE PUSH1 0x17 PUSH1 0x24 DUP3 ADD MSTORE PUSH32 0x57616C6C657420616C726561647920696E616374697665000000000000000000 PUSH1 0x44 DUP3 ADD MSTORE PUSH1 0x64 SWAP1 REVERT JUMPDEST DUP3 CALLVALUE PUSH2 0x35E JUMPI PUSH1 0xA0 CALLDATASIZE PUSH1 0x3 NOT ADD SLT PUSH2 0x35E JUMPI DUP2 CALLDATALOAD PUSH1 0x1 PUSH1 0x1 PUSH1 0x40 SHL SUB DUP2 GT PUSH2 0x35E JUMPI PUSH2 0x37F3 SWAP1 CALLDATASIZE SWAP1 DUP5 ADD PUSH2 0x3D12 JUMP JUMPDEST SWAP1 PUSH2 0x37FC PUSH2 0x3C5F JUMP JUMPDEST PUSH1 0x44 CALLDATALOAD SWAP2 PUSH1 0x64 CALLDATALOAD SWAP4 PUSH1 0x84 CALLDATALOAD PUSH2 0x3813 PUSH2 0x3FD CALLER PUSH2 0x495F JUMP JUMPDEST CALLER PUSH0 MSTORE PUSH1 0x1 SWAP6 PUSH1 0x20 SWAP2 DUP8 DUP4 MSTORE DUP5 PUSH0 KECCAK256 SLOAD SWAP6 PUSH2 0x3830 DUP6 MLOAD ISZERO ISZERO PUSH2 0x425E JUMP JUMPDEST PUSH1 0x1 PUSH1 0x1 PUSH1 0xA0 SHL SUB DUP2 AND SWAP1 DUP2 ISZERO PUSH2 0x3AEF JUMPI DUP9 ISZERO PUSH2 0x3AB9 JUMPI DUP3 ISZERO PUSH2 0x3A76 JUMPI DUP2 PUSH0 MSTORE DUP10 DUP6 MSTORE DUP9 DUP8 PUSH0 KECCAK256 SLOAD DUP1 ISZERO PUSH0 EQ PUSH2 0x3A0C JUMPI POP POP PUSH2 0x38A2 PUSH2 0x38B1 SWAP3 DUP12 DUP10 MLOAD SWAP2 PUSH2 0x3876 DUP4 PUSH2 0x3C75 JUMP JUMPDEST DUP13 DUP4 MSTORE DUP9 DUP4 ADD SWAP1 DUP3 DUP3 MSTORE PUSH0 MSTORE DUP2 DUP10 MSTORE DUP11 PUSH0 KECCAK256 SWAP3 MLOAD DUP4 SSTORE MLOAD ISZERO ISZERO SWAP2 ADD SWAP1 PUSH1 0xFF DUP1 NOT DUP4 SLOAD AND SWAP2 ISZERO ISZERO AND OR SWAP1 SSTORE JUMP JUMPDEST DUP9 PUSH0 MSTORE PUSH1 0x3 DUP6 MSTORE DUP7 PUSH0 KECCAK256 PUSH2 0x42A0 JUMP JUMPDEST DUP7 PUSH0 MSTORE PUSH1 0x2 DUP4 MSTORE DUP5 PUSH0 KECCAK256 PUSH1 0x5 PUSH1 0xFF NOT DUP3 SLOAD AND OR SWAP1 SSTORE PUSH2 0x38CF DUP8 PUSH2 0x42DB JUMP JUMPDEST PUSH2 0x38DA PUSH1 0x5 SLOAD PUSH2 0x435E JUMP JUMPDEST PUSH1 0x5 SSTORE JUMPDEST TIMESTAMP ADD SWAP3 DUP4 TIMESTAMP GT PUSH2 0x39F9 JUMPI DUP8 SWAP9 POP PUSH0 SWAP8 JUMPDEST PUSH2 0x38F4 JUMPI STOP JUMPDEST DUP1 MLOAD DUP9 LT ISZERO PUSH2 0x54C JUMPI DUP9 DUP9 DUP9 DUP9 PUSH2 0x390C DUP5 SWAP13 DUP7 PUSH2 0x4380 JUMP JUMPDEST MLOAD PUSH2 0x3917 DUP3 DUP3 PUSH2 0x4C7B JUMP JUMPDEST PUSH0 MSTORE DUP10 DUP9 DUP11 PUSH1 0x6 DUP1 DUP4 MSTORE DUP11 PUSH1 0xFF SWAP5 DUP6 DUP12 DUP3 PUSH0 KECCAK256 ADD SLOAD AND ISZERO PUSH2 0x39EB JUMPI PUSH32 0x140D483F221B1B41AA3142BE8C182589305145AAFE83BED53B908D6BAFF35C1D SWAP6 PUSH1 0x3 SWAP4 PUSH2 0x3961 DUP12 DUP11 PUSH2 0x4C7B JUMP JUMPDEST PUSH0 MSTORE DUP7 MSTORE DUP12 DUP3 PUSH0 KECCAK256 ADD SLOAD AND ISZERO PUSH2 0x39D3 JUMPI JUMPDEST DUP1 MLOAD SWAP4 PUSH2 0x397E DUP6 PUSH2 0x3CA4 JUMP JUMPDEST TIMESTAMP DUP6 MSTORE DUP6 DUP6 ADD SWAP1 DUP2 MSTORE DUP2 DUP6 ADD SWAP2 DUP10 DUP4 MSTORE PUSH1 0x60 SWAP7 DUP8 DUP8 ADD SWAP5 DUP6 MSTORE DUP10 PUSH0 MSTORE PUSH1 0xF DUP2 MSTORE DUP2 PUSH0 KECCAK256 SWAP1 DUP13 PUSH0 MSTORE MSTORE PUSH0 KECCAK256 SWAP5 MLOAD DUP6 SSTORE MLOAD DUP12 DUP6 ADD SSTORE MLOAD PUSH1 0x2 DUP5 ADD SSTORE MLOAD SWAP2 ADD SSTORE DUP12 MLOAD DUP10 DUP2 MSTORE DUP12 DUP12 DUP3 ADD MSTORE TIMESTAMP DUP14 DUP3 ADD MSTORE LOG4 JUMPDEST ADD SWAP8 PUSH2 0x38EE JUMP JUMPDEST PUSH2 0x39E6 DUP9 PUSH2 0x39DF PUSH2 0x4394 JUMP JUMPDEST DUP12 DUP11 PUSH2 0x4A66 JUMP JUMPDEST PUSH2 0x3972 JUMP JUMPDEST POP POP POP POP POP POP POP POP POP PUSH2 0x39CC JUMP JUMPDEST PUSH1 0x11 DUP10 PUSH4 0x4E487B71 PUSH1 0xE0 SHL PUSH0 MSTORE MSTORE PUSH1 0x24 PUSH0 REVERT JUMPDEST EQ SWAP2 POP PUSH2 0x38DE SWAP1 POP JUMPI DUP5 MLOAD PUSH3 0x461BCD PUSH1 0xE5 SHL DUP2 MSTORE DUP1 DUP11 ADD DUP5 SWAP1 MSTORE PUSH1 0x35 PUSH1 0x24 DUP3 ADD MSTORE PUSH32 0x47756573742077616C6C657420616C7265616479207265676973746572656420 PUSH1 0x44 DUP3 ADD MSTORE PUSH21 0x746F20646966666572656E74206964656E74697479 PUSH1 0x58 SHL PUSH1 0x64 DUP3 ADD MSTORE PUSH1 0x84 SWAP1 REVERT JUMPDEST DUP7 MLOAD PUSH3 0x461BCD PUSH1 0xE5 SHL DUP2 MSTORE DUP1 DUP13 ADD DUP7 SWAP1 MSTORE PUSH1 0x19 PUSH1 0x24 DUP3 ADD MSTORE PUSH32 0x4475726174696F6E206D75737420626520706F73697469766500000000000000 PUSH1 0x44 DUP3 ADD MSTORE PUSH1 0x64 SWAP1 REVERT JUMPDEST DUP7 MLOAD PUSH3 0x461BCD PUSH1 0xE5 SHL DUP2 MSTORE DUP1 DUP13 ADD DUP7 SWAP1 MSTORE PUSH1 0x10 PUSH1 0x24 DUP3 ADD MSTORE PUSH16 0x125B9D985B1A590819DD595CDD081251 PUSH1 0x82 SHL PUSH1 0x44 DUP3 ADD MSTORE PUSH1 0x64 SWAP1 REVERT JUMPDEST DUP7 MLOAD PUSH3 0x461BCD PUSH1 0xE5 SHL DUP2 MSTORE DUP1 DUP13 ADD DUP7 SWAP1 MSTORE PUSH1 0x14 PUSH1 0x24 DUP3 ADD MSTORE PUSH20 0x125B9D985B1A590819DD595CDD081DD85B1B195D PUSH1 0x62 SHL PUSH1 0x44 DUP3 ADD MSTORE PUSH1 0x64 SWAP1 REVERT JUMPDEST DUP3 CALLVALUE PUSH2 0x35E JUMPI DUP1 PUSH1 0x3 NOT CALLDATASIZE ADD SLT PUSH2 0x35E JUMPI PUSH2 0x129E PUSH1 0x20 SWAP3 PUSH2 0x3B48 PUSH2 0x3C5F JUMP JUMPDEST SWAP1 CALLDATALOAD PUSH2 0x4207 JUMP JUMPDEST SWAP1 POP CALLVALUE PUSH2 0x35E JUMPI PUSH1 0x20 SWAP1 PUSH1 0x20 PUSH1 0x3 NOT CALLDATASIZE ADD SLT PUSH2 0x35E JUMPI CALLDATALOAD PUSH0 MSTORE PUSH1 0x9 PUSH1 0x20 MSTORE DUP2 PUSH0 KECCAK256 SWAP2 DUP1 MLOAD SWAP2 DUP3 PUSH1 0x20 DUP6 SLOAD SWAP2 DUP3 DUP2 MSTORE ADD SWAP5 PUSH0 MSTORE PUSH1 0x20 PUSH0 KECCAK256 SWAP2 PUSH0 SWAP1 JUMPDEST DUP3 DUP3 LT PUSH2 0x3BA1 JUMPI PUSH2 0x5DE DUP7 DUP7 PUSH2 0x8CB DUP3 DUP12 SUB DUP4 PUSH2 0x3CDA JUMP JUMPDEST DUP4 SLOAD DUP8 MSTORE SWAP6 DUP7 ADD SWAP6 PUSH1 0x1 SWAP4 DUP5 ADD SWAP4 SWAP1 SWAP2 ADD SWAP1 PUSH2 0x3B89 JUMP JUMPDEST DUP3 CALLVALUE PUSH2 0x35E JUMPI PUSH2 0x54C SWAP1 PUSH2 0x3BCB CALLDATASIZE PUSH2 0x3DD5 JUMP JUMPDEST SWAP2 SWAP1 SWAP3 PUSH2 0x3BDA PUSH2 0x3FD CALLER PUSH2 0x495F JUMP JUMPDEST PUSH2 0x3BE7 DUP3 MLOAD DUP5 MLOAD EQ PUSH2 0x4177 JUMP JUMPDEST CALLER PUSH0 SWAP1 DUP2 MSTORE PUSH1 0x1 PUSH1 0x20 MSTORE DUP2 DUP2 KECCAK256 SLOAD PUSH1 0x1 PUSH1 0x1 PUSH1 0xA0 SHL SUB SWAP1 SWAP6 AND DUP2 MSTORE KECCAK256 SLOAD SWAP1 PUSH2 0x3C10 DUP3 ISZERO ISZERO PUSH2 0x41BB JUMP JUMPDEST PUSH2 0x49E7 JUMP JUMPDEST DUP4 SWAP1 CALLVALUE PUSH2 0x35E JUMPI PUSH1 0x20 CALLDATASIZE PUSH1 0x3 NOT ADD SLT PUSH2 0x35E JUMPI PUSH1 0x20 SWAP2 PUSH1 0x1 PUSH1 0x1 PUSH1 0xA0 SHL SUB PUSH2 0x3C3B PUSH2 0x3C49 JUMP JUMPDEST AND PUSH0 MSTORE PUSH1 0x1 DUP4 MSTORE PUSH0 KECCAK256 SLOAD DUP2 MSTORE RETURN JUMPDEST PUSH1 0x4 CALLDATALOAD SWAP1 PUSH1 0x1 PUSH1 0x1 PUSH1 0xA0 SHL SUB DUP3 AND DUP3 SUB PUSH2 0x35E JUMPI JUMP JUMPDEST PUSH1 0x24 CALLDATALOAD SWAP1 PUSH1 0x1 PUSH1 0x1 PUSH1 0xA0 SHL SUB DUP3 AND DUP3 SUB PUSH2 0x35E JUMPI JUMP JUMPDEST PUSH1 0x40 DUP2 ADD SWAP1 DUP2 LT PUSH1 0x1 PUSH1 0x1 PUSH1 0x40 SHL SUB DUP3 GT OR PUSH2 0x3C90 JUMPI PUSH1 0x40 MSTORE JUMP JUMPDEST PUSH4 0x4E487B71 PUSH1 0xE0 SHL PUSH0 MSTORE PUSH1 0x41 PUSH1 0x4 MSTORE PUSH1 0x24 PUSH0 REVERT JUMPDEST PUSH1 0x80 DUP2 ADD SWAP1 DUP2 LT PUSH1 0x1 PUSH1 0x1 PUSH1 0x40 SHL SUB DUP3 GT OR PUSH2 0x3C90 JUMPI PUSH1 0x40 MSTORE JUMP JUMPDEST PUSH1 0x20 DUP2 ADD SWAP1 DUP2 LT PUSH1 0x1 PUSH1 0x1 PUSH1 0x40 SHL SUB DUP3 GT OR PUSH2 0x3C90 JUMPI PUSH1 0x40 MSTORE JUMP JUMPDEST SWAP1 PUSH1 0x1F DUP1 NOT SWAP2 ADD AND DUP2 ADD SWAP1 DUP2 LT PUSH1 0x1 PUSH1 0x1 PUSH1 0x40 SHL SUB DUP3 GT OR PUSH2 0x3C90 JUMPI PUSH1 0x40 MSTORE JUMP JUMPDEST PUSH1 0x1 PUSH1 0x1 PUSH1 0x40 SHL SUB DUP2 GT PUSH2 0x3C90 JUMPI PUSH1 0x5 SHL PUSH1 0x20 ADD SWAP1 JUMP JUMPDEST SWAP1 DUP1 PUSH1 0x1F DUP4 ADD SLT ISZERO PUSH2 0x35E JUMPI PUSH1 0x20 SWAP1 DUP3 CALLDATALOAD PUSH2 0x3D2C DUP2 PUSH2 0x3CFB JUMP JUMPDEST SWAP4 PUSH2 0x3D3A PUSH1 0x40 MLOAD SWAP6 DUP7 PUSH2 0x3CDA JUMP JUMPDEST DUP2 DUP6 MSTORE PUSH1 0x20 DUP1 DUP7 ADD SWAP3 PUSH1 0x5 SHL DUP3 ADD ADD SWAP3 DUP4 GT PUSH2 0x35E JUMPI PUSH1 0x20 ADD SWAP1 JUMPDEST DUP3 DUP3 LT PUSH2 0x3D63 JUMPI POP POP POP POP SWAP1 JUMP JUMPDEST DUP2 CALLDATALOAD DUP2 MSTORE SWAP1 DUP4 ADD SWAP1 DUP4 ADD PUSH2 0x3D55 JUMP JUMPDEST SWAP3 SWAP2 SWAP3 PUSH1 0x1 PUSH1 0x1 PUSH1 0x40 SHL SUB DUP3 GT PUSH2 0x3C90 JUMPI PUSH1 0x40 MLOAD SWAP2 PUSH2 0x3D9B PUSH1 0x1F DUP3 ADD PUSH1 0x1F NOT AND PUSH1 0x20 ADD DUP5 PUSH2 0x3CDA JUMP JUMPDEST DUP3 SWAP5 DUP2 DUP5 MSTORE DUP2 DUP4 ADD GT PUSH2 0x35E JUMPI DUP3 DUP2 PUSH1 0x20 SWAP4 DUP5 PUSH0 SWAP7 ADD CALLDATACOPY ADD ADD MSTORE JUMP JUMPDEST SWAP1 DUP1 PUSH1 0x1F DUP4 ADD SLT ISZERO PUSH2 0x35E JUMPI DUP2 PUSH1 0x20 PUSH2 0x3DD2 SWAP4 CALLDATALOAD SWAP2 ADD PUSH2 0x3D72 JUMP JUMPDEST SWAP1 JUMP JUMPDEST PUSH1 0x60 PUSH1 0x3 NOT DUP3 ADD SLT PUSH2 0x35E JUMPI PUSH1 0x1 PUSH1 0x1 PUSH1 0x40 SHL SUB SWAP2 PUSH1 0x4 CALLDATALOAD DUP4 DUP2 GT PUSH2 0x35E JUMPI DUP3 PUSH2 0x3E01 SWAP2 PUSH1 0x4 ADD PUSH2 0x3D12 JUMP JUMPDEST SWAP3 PUSH1 0x24 SWAP3 DUP4 CALLDATALOAD PUSH1 0x1 PUSH1 0x1 PUSH1 0xA0 SHL SUB DUP2 AND DUP2 SUB PUSH2 0x35E JUMPI SWAP4 PUSH1 0x44 CALLDATALOAD SWAP3 DUP1 DUP5 GT PUSH2 0x35E JUMPI DUP3 PUSH1 0x23 DUP6 ADD SLT ISZERO PUSH2 0x35E JUMPI DUP4 PUSH1 0x4 ADD CALLDATALOAD PUSH2 0x3E3C DUP2 PUSH2 0x3CFB JUMP JUMPDEST SWAP5 PUSH2 0x3E4A PUSH1 0x40 MLOAD SWAP7 DUP8 PUSH2 0x3CDA JUMP JUMPDEST DUP2 DUP7 MSTORE PUSH1 0x20 SWAP5 PUSH1 0x24 PUSH1 0x20 DUP9 ADD SWAP4 PUSH1 0x5 SHL DUP4 ADD ADD SWAP5 DUP2 DUP7 GT PUSH2 0x35E JUMPI PUSH1 0x24 DUP4 ADD SWAP4 JUMPDEST DUP7 DUP6 LT PUSH2 0x3E7D JUMPI POP POP POP POP POP POP POP POP SWAP1 JUMP JUMPDEST DUP5 CALLDATALOAD DUP7 DUP2 GT PUSH2 0x35E JUMPI DUP9 SWAP2 PUSH2 0x3E97 DUP6 DUP6 DUP6 SWAP5 DUP10 ADD ADD PUSH2 0x3DB7 JUMP JUMPDEST DUP2 MSTORE ADD SWAP5 ADD SWAP4 PUSH2 0x3E6B JUMP JUMPDEST PUSH1 0x20 SWAP1 PUSH1 0x20 PUSH1 0x40 DUP2 DUP4 ADD SWAP3 DUP3 DUP2 MSTORE DUP6 MLOAD DUP1 SWAP5 MSTORE ADD SWAP4 ADD SWAP2 PUSH0 JUMPDEST DUP3 DUP2 LT PUSH2 0x3EC9 JUMPI POP POP POP POP SWAP1 JUMP JUMPDEST DUP4 MLOAD DUP6 MSTORE SWAP4 DUP2 ADD SWAP4 SWAP3 DUP2 ADD SWAP3 PUSH1 0x1 ADD PUSH2 0x3EBB JUMP JUMPDEST PUSH1 0x40 SWAP1 PUSH1 0x3 NOT ADD SLT PUSH2 0x35E JUMPI PUSH1 0x4 CALLDATALOAD SWAP1 PUSH1 0x24 CALLDATALOAD PUSH1 0x3 DUP2 LT ISZERO PUSH2 0x35E JUMPI SWAP1 JUMP JUMPDEST PUSH1 0x40 PUSH1 0x3 NOT DUP3 ADD SLT PUSH2 0x35E JUMPI PUSH1 0x4 CALLDATALOAD SWAP1 PUSH1 0x1 PUSH1 0x1 PUSH1 0x40 SHL SUB DUP3 GT PUSH2 0x35E JUMPI PUSH2 0x3F26 SWAP2 PUSH1 0x4 ADD PUSH2 0x3D12 JUMP JUMPDEST SWAP1 PUSH1 0x24 CALLDATALOAD SWAP1 JUMP JUMPDEST PUSH1 0x60 PUSH1 0x3 NOT DUP3 ADD SLT PUSH2 0x35E JUMPI PUSH1 0x4 CALLDATALOAD SWAP2 PUSH1 0x24 CALLDATALOAD PUSH1 0x1 PUSH1 0x1 PUSH1 0xA0 SHL SUB DUP2 AND DUP2 SUB PUSH2 0x35E JUMPI SWAP2 PUSH1 0x44 CALLDATALOAD SWAP1 PUSH1 0x1 PUSH1 0x1 PUSH1 0x40 SHL SUB DUP3 GT PUSH2 0x35E JUMPI PUSH2 0x3DD2 SWAP2 PUSH1 0x4 ADD PUSH2 0x3DB7 JUMP JUMPDEST PUSH1 0x40 SWAP1 PUSH1 0x3 NOT ADD SLT PUSH2 0x35E JUMPI PUSH1 0x4 CALLDATALOAD SWAP1 PUSH1 0x24 CALLDATALOAD SWAP1 JUMP JUMPDEST SWAP1 PUSH1 0x1 DUP3 DUP2 SHR SWAP3 AND DUP1 ISZERO PUSH2 0x3FB3 JUMPI JUMPDEST PUSH1 0x20 DUP4 LT EQ PUSH2 0x3F9F JUMPI JUMP JUMPDEST PUSH4 0x4E487B71 PUSH1 0xE0 SHL PUSH0 MSTORE PUSH1 0x22 PUSH1 0x4 MSTORE PUSH1 0x24 PUSH0 REVERT JUMPDEST SWAP2 PUSH1 0x7F AND SWAP2 PUSH2 0x3F94 JUMP JUMPDEST SWAP1 PUSH1 0x40 MLOAD SWAP2 DUP3 PUSH0 DUP3 SLOAD PUSH2 0x3FCF DUP2 PUSH2 0x3F85 JUMP JUMPDEST SWAP1 DUP2 DUP5 MSTORE PUSH1 0x20 SWAP5 PUSH1 0x1 SWAP2 PUSH1 0x1 DUP2 AND SWAP1 DUP2 PUSH0 EQ PUSH2 0x403D JUMPI POP PUSH1 0x1 EQ PUSH2 0x3FFF JUMPI JUMPDEST POP POP POP PUSH2 0x3FFD SWAP3 POP SUB DUP4 PUSH2 0x3CDA JUMP JUMPDEST JUMP JUMPDEST PUSH0 SWAP1 DUP2 MSTORE DUP6 DUP2 KECCAK256 SWAP6 SWAP4 POP SWAP2 SWAP1 JUMPDEST DUP2 DUP4 LT PUSH2 0x4025 JUMPI POP POP PUSH2 0x3FFD SWAP4 POP DUP3 ADD ADD PUSH0 DUP1 DUP1 PUSH2 0x3FEE JUMP JUMPDEST DUP6 SLOAD DUP9 DUP5 ADD DUP6 ADD MSTORE SWAP5 DUP6 ADD SWAP5 DUP8 SWAP5 POP SWAP2 DUP4 ADD SWAP2 PUSH2 0x400C JUMP JUMPDEST SWAP3 POP POP POP PUSH2 0x3FFD SWAP5 SWAP3 POP PUSH1 0xFF NOT AND DUP3 DUP5 ADD MSTORE ISZERO ISZERO PUSH1 0x5 SHL DUP3 ADD ADD PUSH0 DUP1 DUP1 PUSH2 0x3FEE JUMP JUMPDEST SWAP2 SWAP1 DUP3 MLOAD SWAP3 DUP4 DUP3 MSTORE PUSH0 JUMPDEST DUP5 DUP2 LT PUSH2 0x4089 JUMPI POP POP DUP3 PUSH0 PUSH1 0x20 DUP1 SWAP5 SWAP6 DUP5 ADD ADD MSTORE PUSH1 0x1F DUP1 NOT SWAP2 ADD AND ADD ADD SWAP1 JUMP JUMPDEST PUSH1 0x20 DUP2 DUP4 ADD DUP2 ADD MLOAD DUP5 DUP4 ADD DUP3 ADD MSTORE ADD PUSH2 0x4069 JUMP JUMPDEST SWAP1 PUSH2 0x40B5 PUSH1 0x20 SWAP2 SWAP5 SWAP4 SWAP5 PUSH1 0x40 DUP5 MSTORE PUSH1 0x40 DUP5 ADD SWAP1 PUSH2 0x405F JUMP JUMPDEST SWAP4 ISZERO ISZERO SWAP2 ADD MSTORE JUMP JUMPDEST DUP1 SLOAD DUP3 LT ISZERO PUSH2 0x40D2 JUMPI PUSH0 MSTORE PUSH1 0x20 PUSH0 KECCAK256 ADD SWAP1 PUSH0 SWAP1 JUMP JUMPDEST PUSH4 0x4E487B71 PUSH1 0xE0 SHL PUSH0 MSTORE PUSH1 0x32 PUSH1 0x4 MSTORE PUSH1 0x24 PUSH0 REVERT JUMPDEST SWAP1 PUSH1 0x6 DUP3 LT ISZERO PUSH2 0x40F3 JUMPI MSTORE JUMP JUMPDEST PUSH4 0x4E487B71 PUSH1 0xE0 SHL PUSH0 MSTORE PUSH1 0x21 PUSH1 0x4 MSTORE PUSH1 0x24 PUSH0 REVERT JUMPDEST SWAP1 PUSH1 0x3 DUP3 LT ISZERO PUSH2 0x40F3 JUMPI MSTORE JUMP JUMPDEST SWAP1 SWAP3 SWAP2 PUSH1 0x40 DUP3 ADD SWAP4 PUSH1 0x4 DUP2 LT ISZERO PUSH2 0x40F3 JUMPI DUP3 MSTORE PUSH2 0x3FFD SWAP2 PUSH1 0x20 ADD SWAP1 PUSH2 0x4107 JUMP JUMPDEST ISZERO PUSH2 0x413B JUMPI JUMP JUMPDEST PUSH1 0x40 MLOAD PUSH3 0x461BCD PUSH1 0xE5 SHL DUP2 MSTORE PUSH1 0x20 PUSH1 0x4 DUP3 ADD MSTORE PUSH1 0x14 PUSH1 0x24 DUP3 ADD MSTORE PUSH20 0x2737BA1030B71030B1BA34BB329036B2B6B132B9 PUSH1 0x61 SHL PUSH1 0x44 DUP3 ADD MSTORE PUSH1 0x64 SWAP1 REVERT JUMPDEST ISZERO PUSH2 0x417E JUMPI JUMP JUMPDEST PUSH1 0x40 MLOAD PUSH3 0x461BCD PUSH1 0xE5 SHL DUP2 MSTORE PUSH1 0x20 PUSH1 0x4 DUP3 ADD MSTORE PUSH1 0x15 PUSH1 0x24 DUP3 ADD MSTORE PUSH21 0x82E4E4C2F240D8CADCCEE8D040DAD2E6DAC2E8C6D PUSH1 0x5B SHL PUSH1 0x44 DUP3 ADD MSTORE PUSH1 0x64 SWAP1 REVERT JUMPDEST ISZERO PUSH2 0x41C2 JUMPI JUMP JUMPDEST PUSH1 0x40 MLOAD PUSH3 0x461BCD PUSH1 0xE5 SHL DUP2 MSTORE PUSH1 0x20 PUSH1 0x4 DUP3 ADD MSTORE PUSH1 0x1C PUSH1 0x24 DUP3 ADD MSTORE PUSH32 0x5461726765742077616C6C6574206E6F74207265676973746572656400000000 PUSH1 0x44 DUP3 ADD MSTORE PUSH1 0x64 SWAP1 REVERT JUMPDEST PUSH1 0x1 PUSH1 0x1 PUSH1 0xA0 SHL SUB SWAP1 SWAP2 AND PUSH0 SWAP1 DUP2 MSTORE PUSH1 0x1 PUSH1 0x20 MSTORE PUSH1 0x40 SWAP1 KECCAK256 SLOAD SWAP1 DUP2 ISZERO PUSH2 0x4258 JUMPI PUSH2 0x4239 PUSH2 0x4232 PUSH2 0x4683 JUMP JUMPDEST DUP4 DUP4 PUSH2 0x4DE0 JUMP JUMPDEST SWAP2 DUP3 ISZERO PUSH2 0x4245 JUMPI POP POP SWAP1 JUMP JUMPDEST PUSH2 0x3DD2 SWAP3 POP PUSH2 0x4252 PUSH2 0x46A4 JUMP JUMPDEST SWAP2 PUSH2 0x4DE0 JUMP JUMPDEST POP POP PUSH0 SWAP1 JUMP JUMPDEST ISZERO PUSH2 0x4265 JUMPI JUMP JUMPDEST PUSH1 0x40 MLOAD PUSH3 0x461BCD PUSH1 0xE5 SHL DUP2 MSTORE PUSH1 0x20 PUSH1 0x4 DUP3 ADD MSTORE PUSH1 0x13 PUSH1 0x24 DUP3 ADD MSTORE PUSH19 0x139BC81C9958DBDC991CC81C1C9BDD9A591959 PUSH1 0x6A SHL PUSH1 0x44 DUP3 ADD MSTORE PUSH1 0x64 SWAP1 REVERT JUMPDEST DUP1 SLOAD PUSH1 0x1 PUSH1 0x40 SHL DUP2 LT ISZERO PUSH2 0x3C90 JUMPI PUSH2 0x42BD SWAP2 PUSH1 0x1 DUP3 ADD DUP2 SSTORE PUSH2 0x40BD JUMP JUMPDEST PUSH1 0x1 DUP1 PUSH1 0xA0 SWAP5 SWAP4 SWAP5 SHL SUB DUP1 DUP5 SLOAD SWAP3 PUSH1 0x3 SHL SWAP4 AND DUP4 SHL SWAP3 SHL NOT AND OR SWAP1 SSTORE JUMP JUMPDEST PUSH1 0x4 SLOAD PUSH1 0x1 PUSH1 0x40 SHL DUP2 LT ISZERO PUSH2 0x3C90 JUMPI PUSH1 0x1 DUP2 ADD DUP1 PUSH1 0x4 SSTORE DUP2 LT ISZERO PUSH2 0x40D2 JUMPI PUSH1 0x4 PUSH0 MSTORE PUSH32 0x8A35ACFBC15FF81A39AE7D344FD709F28E8600B4AA8C65C6B64BFE7FE36BD19B ADD SSTORE JUMP JUMPDEST DUP1 SLOAD SWAP1 PUSH1 0x1 PUSH1 0x40 SHL DUP3 LT ISZERO PUSH2 0x3C90 JUMPI DUP2 PUSH2 0x4344 SWAP2 PUSH1 0x1 PUSH2 0x435A SWAP5 ADD DUP2 SSTORE PUSH2 0x40BD JUMP JUMPDEST DUP2 SWAP4 SWAP2 SLOAD SWAP1 PUSH1 0x3 SHL SWAP2 DUP3 SHL SWAP2 PUSH0 NOT SWAP1 SHL NOT AND OR SWAP1 JUMP JUMPDEST SWAP1 SSTORE JUMP JUMPDEST PUSH0 NOT DUP2 EQ PUSH2 0x436C JUMPI PUSH1 0x1 ADD SWAP1 JUMP JUMPDEST PUSH4 0x4E487B71 PUSH1 0xE0 SHL PUSH0 MSTORE PUSH1 0x11 PUSH1 0x4 MSTORE PUSH1 0x24 PUSH0 REVERT JUMPDEST DUP1 MLOAD DUP3 LT ISZERO PUSH2 0x40D2 JUMPI PUSH1 0x20 SWAP2 PUSH1 0x5 SHL ADD ADD SWAP1 JUMP JUMPDEST PUSH1 0x40 MLOAD SWAP1 PUSH2 0x43A1 DUP3 PUSH2 0x3C75 JUMP JUMPDEST PUSH1 0x6 DUP3 MSTORE PUSH6 0x3B34B2BBB2B9 PUSH1 0xD1 SHL PUSH1 0x20 DUP4 ADD MSTORE JUMP JUMPDEST ISZERO PUSH2 0x43BD JUMPI JUMP JUMPDEST PUSH1 0x40 MLOAD PUSH3 0x461BCD PUSH1 0xE5 SHL DUP2 MSTORE PUSH1 0x20 PUSH1 0x4 DUP3 ADD MSTORE PUSH1 0xA PUSH1 0x24 DUP3 ADD MSTORE PUSH10 0x27B7363C9030B236B4B7 PUSH1 0xB1 SHL PUSH1 0x44 DUP3 ADD MSTORE PUSH1 0x64 SWAP1 REVERT JUMPDEST ISZERO PUSH2 0x43F6 JUMPI JUMP JUMPDEST PUSH1 0x40 MLOAD PUSH3 0x461BCD PUSH1 0xE5 SHL DUP2 MSTORE PUSH1 0x20 PUSH1 0x4 DUP3 ADD MSTORE PUSH1 0x15 PUSH1 0x24 DUP3 ADD MSTORE PUSH21 0x15D85B1B195D081B9BDD081C9959DA5CDD195C9959 PUSH1 0x5A SHL PUSH1 0x44 DUP3 ADD MSTORE PUSH1 0x64 SWAP1 REVERT JUMPDEST ISZERO PUSH2 0x443A JUMPI JUMP JUMPDEST PUSH1 0x40 MLOAD PUSH3 0x461BCD PUSH1 0xE5 SHL DUP2 MSTORE PUSH1 0x20 PUSH1 0x4 DUP3 ADD MSTORE PUSH1 0xF PUSH1 0x24 DUP3 ADD MSTORE PUSH15 0x496E76616C69642074727573746565 PUSH1 0x88 SHL PUSH1 0x44 DUP3 ADD MSTORE PUSH1 0x64 SWAP1 REVERT JUMPDEST ISZERO PUSH2 0x4478 JUMPI JUMP JUMPDEST PUSH1 0x40 MLOAD PUSH3 0x461BCD PUSH1 0xE5 SHL DUP2 MSTORE PUSH1 0x20 PUSH1 0x4 DUP3 ADD MSTORE PUSH1 0x17 PUSH1 0x24 DUP3 ADD MSTORE PUSH32 0x43616E6E6F74206170706F696E7420796F757273656C66000000000000000000 PUSH1 0x44 DUP3 ADD MSTORE PUSH1 0x64 SWAP1 REVERT JUMPDEST ISZERO PUSH2 0x44C4 JUMPI JUMP JUMPDEST PUSH1 0x40 MLOAD PUSH3 0x461BCD PUSH1 0xE5 SHL DUP2 MSTORE PUSH1 0x20 PUSH1 0x4 DUP3 ADD MSTORE PUSH1 0x16 PUSH1 0x24 DUP3 ADD MSTORE PUSH22 0x151C9D5CDD1959481B9BDD081C9959DA5CDD195C9959 PUSH1 0x52 SHL PUSH1 0x44 DUP3 ADD MSTORE PUSH1 0x64 SWAP1 REVERT JUMPDEST PUSH1 0x4 DUP3 LT ISZERO PUSH2 0x40F3 JUMPI MSTORE JUMP JUMPDEST PUSH1 0x3 DUP3 LT ISZERO PUSH2 0x40F3 JUMPI MSTORE JUMP JUMPDEST SWAP1 PUSH1 0x4 DUP2 LT ISZERO PUSH2 0x40F3 JUMPI PUSH1 0xFF DUP1 NOT DUP4 SLOAD AND SWAP2 AND OR SWAP1 SSTORE JUMP JUMPDEST SWAP1 PUSH1 0x3 DUP2 LT ISZERO PUSH2 0x40F3 JUMPI PUSH2 0xFF00 DUP3 SLOAD SWAP2 PUSH1 0x8 SHL AND SWAP1 PUSH2 0xFF00 NOT AND OR SWAP1 SSTORE JUMP JUMPDEST ISZERO PUSH2 0x4558 JUMPI JUMP JUMPDEST PUSH1 0x40 MLOAD PUSH3 0x461BCD PUSH1 0xE5 SHL DUP2 MSTORE PUSH1 0x20 PUSH1 0x4 DUP3 ADD MSTORE PUSH1 0x1E PUSH1 0x24 DUP3 ADD MSTORE PUSH32 0x5265636F726420494420686173682063616E6E6F7420626520656D7074790000 PUSH1 0x44 DUP3 ADD MSTORE PUSH1 0x64 SWAP1 REVERT JUMPDEST ISZERO PUSH2 0x45A4 JUMPI JUMP JUMPDEST PUSH1 0x40 MLOAD PUSH3 0x461BCD PUSH1 0xE5 SHL DUP2 MSTORE PUSH1 0x20 PUSH1 0x4 DUP3 ADD MSTORE PUSH1 0x1D PUSH1 0x24 DUP3 ADD MSTORE PUSH32 0x57616C6C657420616464726573732063616E6E6F74206265207A65726F000000 PUSH1 0x44 DUP3 ADD MSTORE PUSH1 0x64 SWAP1 REVERT JUMPDEST ISZERO PUSH2 0x45F0 JUMPI JUMP JUMPDEST PUSH1 0x40 MLOAD PUSH3 0x461BCD PUSH1 0xE5 SHL DUP2 MSTORE PUSH1 0x20 PUSH1 0x4 DUP3 ADD MSTORE PUSH1 0x13 PUSH1 0x24 DUP3 ADD MSTORE PUSH19 0x496E76616C696420726F6C6520737472696E67 PUSH1 0x68 SHL PUSH1 0x44 DUP3 ADD MSTORE PUSH1 0x64 SWAP1 REVERT JUMPDEST ISZERO PUSH2 0x4632 JUMPI JUMP JUMPDEST PUSH1 0x40 MLOAD PUSH3 0x461BCD PUSH1 0xE5 SHL DUP2 MSTORE PUSH1 0x20 PUSH1 0x4 DUP3 ADD MSTORE PUSH1 0x23 PUSH1 0x24 DUP3 ADD MSTORE PUSH32 0x54617267657420646F6573206E6F74206861766520616E206163746976652072 PUSH1 0x44 DUP3 ADD MSTORE PUSH3 0x6F6C65 PUSH1 0xE8 SHL PUSH1 0x64 DUP3 ADD MSTORE PUSH1 0x84 SWAP1 REVERT JUMPDEST PUSH1 0x40 MLOAD SWAP1 PUSH2 0x4690 DUP3 PUSH2 0x3C75 JUMP JUMPDEST PUSH1 0x5 DUP3 MSTORE PUSH5 0x37BBB732B9 PUSH1 0xD9 SHL PUSH1 0x20 DUP4 ADD MSTORE JUMP JUMPDEST PUSH1 0x40 MLOAD SWAP1 PUSH2 0x46B1 DUP3 PUSH2 0x3C75 JUMP JUMPDEST PUSH1 0xD DUP3 MSTORE PUSH13 0x30B236B4B734B9BA3930BA37B9 PUSH1 0x99 SHL PUSH1 0x20 DUP4 ADD MSTORE JUMP JUMPDEST SWAP4 SWAP3 SWAP2 PUSH2 0x46F6 SWAP1 PUSH2 0x46E8 PUSH1 0x40 SWAP4 PUSH1 0x60 DUP9 MSTORE PUSH1 0x60 DUP9 ADD SWAP1 PUSH2 0x405F JUMP JUMPDEST SWAP1 DUP7 DUP3 SUB PUSH1 0x20 DUP9 ADD MSTORE PUSH2 0x405F JUMP JUMPDEST SWAP4 ADD MSTORE JUMP JUMPDEST SWAP2 SWAP1 PUSH1 0x1 DUP1 PUSH1 0xA0 SHL SUB AND PUSH0 MSTORE PUSH1 0x1 PUSH1 0x20 MSTORE PUSH1 0x40 PUSH0 KECCAK256 SLOAD DUP1 ISZERO PUSH2 0x4720 JUMPI PUSH2 0x3DD2 SWAP3 PUSH2 0x4DE0 JUMP JUMPDEST POP POP POP PUSH0 SWAP1 JUMP JUMPDEST PUSH1 0x1 PUSH1 0x1 PUSH1 0xA0 SHL SUB SWAP1 SWAP2 AND PUSH0 SWAP1 DUP2 MSTORE PUSH1 0x1 PUSH1 0x20 MSTORE PUSH1 0x40 SWAP1 KECCAK256 SLOAD SWAP1 DUP2 ISZERO PUSH2 0x4789 JUMPI PUSH1 0x20 SWAP3 SWAP2 PUSH2 0x4754 SWAP2 PUSH2 0x4C7B JUMP JUMPDEST PUSH0 MSTORE PUSH1 0x6 DUP3 MSTORE PUSH1 0x40 PUSH0 KECCAK256 PUSH1 0x40 MLOAD PUSH2 0x476A DUP2 PUSH2 0x3C75 JUMP JUMPDEST PUSH1 0xFF PUSH1 0x1 PUSH2 0x4777 DUP5 PUSH2 0x3FBD JUMP JUMPDEST SWAP4 DUP5 DUP5 MSTORE ADD SLOAD AND ISZERO ISZERO SWAP4 DUP5 SWAP2 ADD MSTORE SWAP2 SWAP1 JUMP JUMPDEST POP POP PUSH1 0x40 MLOAD PUSH2 0x4797 DUP2 PUSH2 0x3CBF JUMP JUMPDEST PUSH0 DUP2 MSTORE SWAP1 PUSH0 SWAP1 JUMP JUMPDEST ISZERO PUSH2 0x47A6 JUMPI JUMP JUMPDEST PUSH1 0x40 MLOAD PUSH3 0x461BCD PUSH1 0xE5 SHL DUP2 MSTORE PUSH1 0x20 PUSH1 0x4 DUP3 ADD MSTORE PUSH1 0x16 PUSH1 0x24 DUP3 ADD MSTORE PUSH22 0x496E76616C69642077616C6C65742061646472657373 PUSH1 0x50 SHL PUSH1 0x44 DUP3 ADD MSTORE PUSH1 0x64 SWAP1 REVERT JUMPDEST ISZERO PUSH2 0x47EB JUMPI JUMP JUMPDEST PUSH1 0x40 MLOAD PUSH3 0x461BCD PUSH1 0xE5 SHL DUP2 MSTORE PUSH1 0x20 PUSH1 0x4 DUP3 ADD MSTORE PUSH1 0x14 PUSH1 0x24 DUP3 ADD MSTORE PUSH20 0x92DCECC2D8D2C840EAE6CAE440928840D0C2E6D PUSH1 0x63 SHL PUSH1 0x44 DUP3 ADD MSTORE PUSH1 0x64 SWAP1 REVERT JUMPDEST ISZERO PUSH2 0x482E JUMPI JUMP JUMPDEST PUSH1 0x40 MLOAD PUSH3 0x461BCD PUSH1 0xE5 SHL DUP2 MSTORE PUSH1 0x20 PUSH1 0x4 DUP3 ADD MSTORE PUSH1 0x19 PUSH1 0x24 DUP3 ADD MSTORE PUSH32 0x57616C6C657420616C7265616479207265676973746572656400000000000000 PUSH1 0x44 DUP3 ADD MSTORE PUSH1 0x64 SWAP1 REVERT JUMPDEST ISZERO PUSH2 0x487A JUMPI JUMP JUMPDEST PUSH1 0x40 MLOAD PUSH3 0x461BCD PUSH1 0xE5 SHL DUP2 MSTORE PUSH1 0x20 PUSH1 0x4 DUP3 ADD MSTORE PUSH1 0x1E PUSH1 0x24 DUP3 ADD MSTORE PUSH32 0x4E6F2061637469766520747275737465652072656C6174696F6E736869700000 PUSH1 0x44 DUP3 ADD MSTORE PUSH1 0x64 SWAP1 REVERT JUMPDEST PUSH2 0x48E0 PUSH1 0x40 SWAP3 SWAP6 SWAP5 SWAP4 PUSH2 0x48D6 DUP4 PUSH1 0x60 DUP2 ADD SWAP9 PUSH2 0x4107 JUMP JUMPDEST PUSH1 0x20 DUP4 ADD SWAP1 PUSH2 0x4107 JUMP JUMPDEST ADD MSTORE JUMP JUMPDEST ISZERO PUSH2 0x48EB JUMPI JUMP JUMPDEST PUSH1 0x40 MLOAD PUSH3 0x461BCD PUSH1 0xE5 SHL DUP2 MSTORE PUSH1 0x20 PUSH1 0x4 DUP3 ADD MSTORE PUSH1 0xF PUSH1 0x24 DUP3 ADD MSTORE PUSH15 0x496E76616C69642061646472657373 PUSH1 0x88 SHL PUSH1 0x44 DUP3 ADD MSTORE PUSH1 0x64 SWAP1 REVERT JUMPDEST PUSH1 0x1 PUSH1 0x1 PUSH1 0xA0 SHL SUB SWAP1 SWAP2 AND PUSH0 SWAP1 DUP2 MSTORE PUSH1 0x1 PUSH1 0x20 MSTORE PUSH1 0x40 SWAP1 KECCAK256 SLOAD DUP1 ISZERO PUSH2 0x4258 JUMPI PUSH2 0x494A SWAP2 PUSH2 0x4C7B JUMP JUMPDEST PUSH0 MSTORE PUSH1 0x6 PUSH1 0x20 MSTORE PUSH1 0xFF PUSH1 0x1 PUSH1 0x40 PUSH0 KECCAK256 ADD SLOAD AND SWAP1 JUMP JUMPDEST PUSH1 0x1 PUSH1 0x1 PUSH1 0xA0 SHL SUB AND PUSH0 SWAP1 DUP2 MSTORE PUSH1 0x1 PUSH1 0x20 MSTORE PUSH1 0x40 SWAP1 KECCAK256 DUP1 SLOAD SWAP1 DUP2 ISZERO SWAP1 DUP2 ISZERO PUSH2 0x49D7 JUMPI JUMPDEST POP PUSH2 0x49D2 JUMPI PUSH0 MSTORE PUSH1 0x2 PUSH1 0x20 MSTORE PUSH1 0xFF PUSH1 0x40 PUSH0 KECCAK256 SLOAD AND PUSH1 0x6 DUP2 LT ISZERO SWAP1 DUP2 PUSH2 0x40F3 JUMPI PUSH1 0x2 DUP2 EQ SWAP2 DUP3 ISZERO PUSH2 0x49C5 JUMPI JUMPDEST DUP3 ISZERO PUSH2 0x49B8 JUMPI POP POP SWAP1 JUMP JUMPDEST SWAP1 SWAP2 POP PUSH2 0x40F3 JUMPI PUSH1 0x4 EQ SWAP1 JUMP JUMPDEST POP PUSH1 0x3 DUP2 EQ SWAP2 POP PUSH0 PUSH2 0x49AD JUMP JUMPDEST POP PUSH0 SWAP1 JUMP JUMPDEST PUSH1 0xFF SWAP2 POP PUSH1 0x1 ADD SLOAD AND ISZERO PUSH0 PUSH2 0x4982 JUMP JUMPDEST SWAP4 SWAP3 SWAP4 PUSH0 JUMPDEST DUP2 MLOAD DUP2 LT ISZERO PUSH2 0x4A54 JUMPI DUP1 PUSH2 0x4A05 PUSH2 0x264C PUSH1 0x1 SWAP4 DUP8 PUSH2 0x4380 JUMP JUMPDEST ISZERO PUSH2 0x4A4F JUMPI PUSH2 0x4A18 DUP8 PUSH2 0x45C DUP4 DUP7 PUSH2 0x4380 JUMP JUMPDEST ISZERO PUSH2 0x4A4F JUMPI PUSH2 0x4A2B DUP5 PUSH2 0x45C DUP4 DUP7 PUSH2 0x4380 JUMP JUMPDEST PUSH2 0x4A4F JUMPI PUSH2 0x4A49 DUP8 PUSH2 0x4A3D DUP4 DUP7 PUSH2 0x4380 JUMP JUMPDEST MLOAD DUP7 PUSH2 0x26BF DUP6 DUP11 PUSH2 0x4380 JUMP JUMPDEST ADD PUSH2 0x49EC JUMP JUMPDEST PUSH2 0x4A49 JUMP JUMPDEST POP POP POP POP SWAP1 POP JUMP JUMPDEST SWAP1 PUSH2 0x494A SWAP2 PUSH2 0x4C7B JUMP JUMPDEST SWAP3 SWAP2 SWAP3 PUSH2 0x4A73 DUP3 DUP3 PUSH2 0x4C7B JUMP JUMPDEST SWAP4 DUP5 PUSH0 MSTORE PUSH1 0x20 PUSH1 0x6 DUP2 MSTORE PUSH1 0x40 SWAP1 DUP2 PUSH0 KECCAK256 SWAP7 PUSH2 0x4A8D DUP9 PUSH2 0x3FBD JUMP JUMPDEST SWAP8 DUP9 MLOAD ISZERO SWAP2 PUSH1 0xFF PUSH1 0x1 DUP1 SWAP4 ADD SLOAD AND SWAP2 DUP6 MLOAD SWAP1 PUSH2 0x4AA8 DUP3 PUSH2 0x3C75 JUMP JUMPDEST DUP8 DUP3 MSTORE DUP6 DUP3 ADD DUP2 DUP2 MSTORE DUP4 PUSH0 MSTORE PUSH1 0x6 DUP8 MSTORE DUP8 PUSH0 KECCAK256 SWAP3 MLOAD DUP1 MLOAD SWAP1 PUSH1 0x1 PUSH1 0x1 PUSH1 0x40 SHL SUB DUP3 GT PUSH2 0x3C90 JUMPI PUSH2 0x4AD8 DUP6 SLOAD PUSH2 0x3F85 JUMP JUMPDEST PUSH1 0x1F DUP2 GT PUSH2 0x4C35 JUMPI JUMPDEST POP DUP9 SWAP1 PUSH1 0x1F DUP4 GT PUSH1 0x1 EQ PUSH2 0x4BE7 JUMPI PUSH2 0x4B26 SWAP6 SWAP5 SWAP4 SWAP3 SWAP2 PUSH0 SWAP2 DUP4 PUSH2 0x20BB JUMPI POP POP PUSH0 NOT PUSH1 0x3 DUP4 SWAP1 SHL SHR NOT AND SWAP1 DUP4 SHL OR DUP4 SSTORE MLOAD ISZERO ISZERO SWAP2 ADD SWAP1 PUSH1 0xFF DUP1 NOT DUP4 SLOAD AND SWAP2 ISZERO ISZERO AND OR SWAP1 SSTORE JUMP JUMPDEST PUSH0 MSTORE PUSH1 0xD DUP4 MSTORE DUP8 DUP5 PUSH0 KECCAK256 SSTORE ISZERO PUSH0 EQ PUSH2 0x4BB2 JUMPI DUP6 SWAP7 SWAP8 POP PUSH2 0x4B69 DUP5 DUP7 SWAP8 PUSH32 0xF9D17EB1340AB78960B594FF8BED1349985B800EE21199C6D5EA4A67454593AD SWAP8 PUSH2 0x4FCB JUMP JUMPDEST PUSH2 0x4B8C JUMPI JUMPDEST PUSH2 0x4B81 DUP3 MLOAD SWAP4 DUP4 DUP6 SWAP5 DUP6 MSTORE DUP5 ADD SWAP1 PUSH2 0x405F JUMP JUMPDEST SWAP1 TIMESTAMP SWAP1 DUP4 ADD MSTORE SUB SWAP1 LOG4 JUMP JUMPDEST DUP6 PUSH0 MSTORE PUSH1 0xA DUP2 MSTORE PUSH2 0x4B9F DUP6 DUP4 PUSH0 KECCAK256 PUSH2 0x4322 JUMP JUMPDEST PUSH2 0x4BAA PUSH1 0xB SLOAD PUSH2 0x435E JUMP JUMPDEST PUSH1 0xB SSTORE PUSH2 0x4B6E JUMP JUMPDEST POP SWAP2 SWAP5 POP POP DUP5 MLOAD DUP2 DUP7 ADD KECCAK256 SWAP1 DUP5 MLOAD SWAP1 DUP6 ADD KECCAK256 SUB PUSH2 0x4BD0 JUMPI JUMPDEST POP POP POP POP JUMP JUMPDEST PUSH2 0x20B6 PUSH2 0x4BDE SWAP5 DUP4 DUP4 PUSH2 0x4CAF JUMP JUMPDEST PUSH0 DUP1 DUP1 DUP1 PUSH2 0x4BCA JUMP JUMPDEST SWAP1 PUSH1 0x1F NOT DUP4 AND SWAP2 DUP7 PUSH0 MSTORE DUP11 PUSH0 KECCAK256 SWAP3 PUSH0 JUMPDEST DUP13 DUP3 DUP3 LT PUSH2 0x4C21 JUMPI POP POP SWAP2 DUP7 SWAP6 SWAP5 SWAP3 SWAP2 DUP4 PUSH2 0x4B26 SWAP10 SWAP9 SWAP6 SWAP4 LT PUSH2 0x2101 JUMPI POP POP POP DUP2 SHL ADD DUP4 SSTORE PUSH2 0x1FF6 JUMP JUMPDEST DUP4 DUP6 ADD MLOAD DUP7 SSTORE SWAP5 DUP9 ADD SWAP5 SWAP4 DUP5 ADD SWAP4 ADD PUSH2 0x4BF7 JUMP JUMPDEST DUP6 PUSH0 MSTORE DUP10 PUSH0 KECCAK256 PUSH1 0x1F DUP5 ADD PUSH1 0x5 SHR DUP2 ADD SWAP2 DUP12 DUP6 LT PUSH2 0x4C71 JUMPI JUMPDEST PUSH1 0x1F ADD PUSH1 0x5 SHR ADD SWAP1 DUP6 SWAP1 JUMPDEST DUP3 DUP2 LT PUSH2 0x4C66 JUMPI POP POP PUSH2 0x4AE1 JUMP JUMPDEST PUSH0 DUP2 SSTORE ADD DUP6 SWAP1 PUSH2 0x4C58 JUMP JUMPDEST SWAP1 SWAP2 POP DUP2 SWAP1 PUSH2 0x4C4D JUMP JUMPDEST SWAP1 PUSH1 0x40 MLOAD SWAP1 PUSH1 0x20 DUP3 ADD SWAP3 DUP4 MSTORE PUSH1 0x40 DUP3 ADD MSTORE PUSH1 0x40 DUP2 MSTORE PUSH1 0x60 DUP2 ADD DUP2 DUP2 LT PUSH1 0x1 PUSH1 0x1 PUSH1 0x40 SHL SUB DUP3 GT OR PUSH2 0x3C90 JUMPI PUSH1 0x40 MSTORE MLOAD SWAP1 KECCAK256 SWAP1 JUMP JUMPDEST DUP3 MLOAD PUSH1 0x20 DUP1 SWAP5 ADD KECCAK256 PUSH2 0x4CBF PUSH2 0x4683 JUMP JUMPDEST DUP1 MLOAD SWAP1 DUP6 ADD KECCAK256 DUP2 SUB PUSH2 0x4CDF JUMPI POP PUSH2 0x3FFD SWAP3 PUSH1 0x7 SWAP2 PUSH0 MSTORE MSTORE PUSH1 0x40 PUSH0 KECCAK256 PUSH2 0x504E JUMP JUMPDEST PUSH2 0x4CE7 PUSH2 0x46A4 JUMP JUMPDEST DUP1 MLOAD SWAP1 DUP6 ADD KECCAK256 DUP2 SUB PUSH2 0x4D07 JUMPI POP PUSH2 0x3FFD SWAP3 PUSH1 0x8 SWAP2 PUSH0 MSTORE MSTORE PUSH1 0x40 PUSH0 KECCAK256 PUSH2 0x504E JUMP JUMPDEST PUSH2 0x4D0F PUSH2 0x4394 JUMP JUMPDEST DUP5 DUP2 MLOAD SWAP2 ADD KECCAK256 EQ PUSH2 0x4D1F JUMPI POP POP POP JUMP JUMPDEST PUSH2 0x3FFD SWAP3 PUSH1 0x9 SWAP2 PUSH0 MSTORE MSTORE PUSH1 0x40 PUSH0 KECCAK256 PUSH2 0x504E JUMP JUMPDEST PUSH1 0x1 PUSH1 0x1 PUSH1 0xA0 SHL SUB AND PUSH0 SWAP1 DUP2 MSTORE PUSH1 0x1 PUSH1 0x20 MSTORE PUSH1 0x40 SWAP1 KECCAK256 DUP1 SLOAD SWAP1 DUP2 ISZERO SWAP1 DUP2 ISZERO PUSH2 0x4D78 JUMPI JUMPDEST POP PUSH2 0x49D2 JUMPI PUSH0 MSTORE PUSH1 0x2 PUSH1 0x20 MSTORE PUSH1 0xFF PUSH1 0x40 PUSH0 KECCAK256 SLOAD AND PUSH1 0x6 DUP2 LT ISZERO PUSH2 0x40F3 JUMPI PUSH1 0x4 EQ SWAP1 JUMP JUMPDEST PUSH1 0xFF SWAP2 POP PUSH1 0x1 ADD SLOAD AND ISZERO PUSH0 PUSH2 0x4D55 JUMP JUMPDEST PUSH1 0x20 DUP2 MLOAD SWAP2 ADD KECCAK256 PUSH2 0x4D97 PUSH2 0x4683 JUMP JUMPDEST PUSH1 0x20 DUP2 MLOAD SWAP2 ADD KECCAK256 DUP2 EQ SWAP1 DUP2 ISZERO PUSH2 0x4DC7 JUMPI JUMPDEST DUP2 ISZERO PUSH2 0x4DB2 JUMPI POP SWAP1 JUMP JUMPDEST SWAP1 POP PUSH2 0x4DBC PUSH2 0x4394 JUMP JUMPDEST PUSH1 0x20 DUP2 MLOAD SWAP2 ADD KECCAK256 EQ SWAP1 JUMP JUMPDEST SWAP1 POP PUSH2 0x4DD1 PUSH2 0x46A4 JUMP JUMPDEST PUSH1 0x20 DUP2 MLOAD SWAP2 ADD KECCAK256 DUP2 EQ SWAP1 PUSH2 0x4DA8 JUMP JUMPDEST PUSH1 0x20 SWAP3 SWAP2 PUSH2 0x4DED SWAP2 PUSH2 0x4C7B JUMP JUMPDEST PUSH0 MSTORE PUSH1 0x6 DUP3 MSTORE PUSH1 0x40 PUSH0 KECCAK256 PUSH1 0x40 MLOAD PUSH2 0x4E03 DUP2 PUSH2 0x3C75 JUMP JUMPDEST PUSH1 0xFF PUSH1 0x1 PUSH2 0x4E10 DUP5 PUSH2 0x3FBD JUMP JUMPDEST SWAP4 DUP5 DUP5 MSTORE ADD SLOAD AND ISZERO ISZERO SWAP4 DUP5 SWAP2 ADD MSTORE DUP3 PUSH2 0x4E28 JUMPI POP POP SWAP1 JUMP JUMPDEST SWAP1 SWAP2 POP PUSH1 0x20 DUP2 MLOAD SWAP2 ADD KECCAK256 SWAP1 PUSH1 0x20 DUP2 MLOAD SWAP2 ADD KECCAK256 EQ SWAP1 JUMP JUMPDEST PUSH1 0xC SLOAD PUSH1 0x1 PUSH1 0x1 PUSH1 0xA0 SHL SUB AND SWAP2 DUP3 ISZERO PUSH2 0x4720 JUMPI PUSH1 0x44 PUSH1 0x20 SWAP3 PUSH1 0x40 MLOAD SWAP5 DUP6 SWAP4 DUP5 SWAP3 PUSH4 0x193D8E75 PUSH1 0xE2 SHL DUP5 MSTORE PUSH1 0x4 DUP5 ADD MSTORE PUSH1 0x24 DUP4 ADD MSTORE GAS STATICCALL SWAP1 DUP2 ISZERO PUSH2 0x4EBD JUMPI PUSH0 SWAP2 PUSH2 0x4E85 JUMPI POP SWAP1 JUMP JUMPDEST SWAP1 POP PUSH1 0x20 DUP2 RETURNDATASIZE PUSH1 0x20 GT PUSH2 0x4EB5 JUMPI JUMPDEST DUP2 PUSH2 0x4EA0 PUSH1 0x20 SWAP4 DUP4 PUSH2 0x3CDA JUMP JUMPDEST DUP2 ADD SUB SLT PUSH2 0x35E JUMPI MLOAD DUP1 ISZERO ISZERO DUP2 SUB PUSH2 0x35E JUMPI SWAP1 JUMP JUMPDEST RETURNDATASIZE SWAP2 POP PUSH2 0x4E93 JUMP JUMPDEST PUSH1 0x40 MLOAD RETURNDATASIZE PUSH0 DUP3 RETURNDATACOPY RETURNDATASIZE SWAP1 REVERT JUMPDEST PUSH1 0x3 DUP4 LT ISZERO PUSH2 0x40F3 JUMPI DUP3 ISZERO PUSH2 0x4F13 JUMPI PUSH1 0x1 SWAP2 PUSH2 0x4EE3 SWAP2 PUSH2 0x4F74 JUMP JUMPDEST SWAP2 EQ PUSH2 0x4EEC JUMPI SWAP1 JUMP JUMPDEST DUP1 MLOAD PUSH1 0x20 DUP3 ADD KECCAK256 PUSH2 0x4EFB PUSH2 0x4683 JUMP JUMPDEST PUSH1 0x20 DUP2 MLOAD SWAP2 ADD KECCAK256 EQ PUSH2 0x4F0A JUMPI SWAP1 JUMP JUMPDEST POP PUSH2 0x3DD2 PUSH2 0x46A4 JUMP JUMPDEST POP POP POP PUSH2 0x3DD2 PUSH2 0x4394 JUMP JUMPDEST PUSH1 0x1 PUSH1 0x1 PUSH1 0xA0 SHL SUB AND PUSH0 SWAP1 DUP2 MSTORE PUSH1 0x1 PUSH1 0x20 MSTORE PUSH1 0x40 SWAP1 KECCAK256 DUP1 SLOAD SWAP1 DUP2 ISZERO SWAP1 DUP2 ISZERO PUSH2 0x4F64 JUMPI JUMPDEST POP PUSH2 0x49D2 JUMPI PUSH0 MSTORE PUSH1 0x2 PUSH1 0x20 MSTORE PUSH1 0xFF PUSH1 0x40 PUSH0 KECCAK256 SLOAD AND PUSH1 0x6 DUP2 LT ISZERO PUSH2 0x40F3 JUMPI PUSH1 0x3 EQ SWAP1 JUMP JUMPDEST PUSH1 0xFF SWAP2 POP PUSH1 0x1 ADD SLOAD AND ISZERO PUSH0 PUSH2 0x4F41 JUMP JUMPDEST SWAP1 PUSH2 0x4F7E SWAP2 PUSH2 0x4C7B JUMP JUMPDEST PUSH0 MSTORE PUSH1 0x6 PUSH1 0x20 MSTORE PUSH1 0x40 PUSH0 KECCAK256 PUSH1 0xFF PUSH1 0x1 PUSH1 0x40 MLOAD SWAP3 PUSH2 0x4F9A DUP5 PUSH2 0x3C75 JUMP JUMPDEST PUSH2 0x4FA3 DUP2 PUSH2 0x3FBD JUMP JUMPDEST DUP5 MSTORE ADD SLOAD AND ISZERO DUP1 ISZERO PUSH1 0x20 DUP4 ADD MSTORE PUSH2 0x4FB8 JUMPI MLOAD SWAP1 JUMP JUMPDEST POP PUSH1 0x40 MLOAD PUSH2 0x4FC5 DUP2 PUSH2 0x3CBF JUMP JUMPDEST PUSH0 DUP2 MSTORE SWAP1 JUMP JUMPDEST DUP3 MLOAD PUSH1 0x20 DUP1 SWAP5 ADD KECCAK256 PUSH2 0x4FDB PUSH2 0x4683 JUMP JUMPDEST DUP1 MLOAD SWAP1 DUP6 ADD KECCAK256 DUP2 SUB PUSH2 0x4FFB JUMPI POP PUSH2 0x3FFD SWAP3 PUSH1 0x7 SWAP2 PUSH0 MSTORE MSTORE PUSH1 0x40 PUSH0 KECCAK256 PUSH2 0x4322 JUMP JUMPDEST PUSH2 0x5003 PUSH2 0x46A4 JUMP JUMPDEST DUP1 MLOAD SWAP1 DUP6 ADD KECCAK256 DUP2 SUB PUSH2 0x5023 JUMPI POP PUSH2 0x3FFD SWAP3 PUSH1 0x8 SWAP2 PUSH0 MSTORE MSTORE PUSH1 0x40 PUSH0 KECCAK256 PUSH2 0x4322 JUMP JUMPDEST PUSH2 0x502B PUSH2 0x4394 JUMP JUMPDEST DUP5 DUP2 MLOAD SWAP2 ADD KECCAK256 EQ PUSH2 0x503B JUMPI POP POP POP JUMP JUMPDEST PUSH2 0x3FFD SWAP3 PUSH1 0x9 SWAP2 PUSH0 MSTORE MSTORE PUSH1 0x40 PUSH0 KECCAK256 PUSH2 0x4322 JUMP JUMPDEST PUSH0 JUMPDEST DUP2 SLOAD SWAP1 DUP2 DUP2 LT ISZERO PUSH2 0x4BCA JUMPI DUP4 SWAP2 PUSH2 0x5067 DUP3 DUP6 PUSH2 0x40BD JUMP JUMPDEST SWAP6 SWAP1 SLOAD PUSH1 0x3 SWAP7 DUP8 SHL SHR EQ PUSH2 0x5081 JUMPI POP SWAP1 SWAP3 POP PUSH1 0x1 ADD PUSH2 0x5050 JUMP JUMPDEST PUSH0 NOT SWAP3 POP DUP3 DUP2 ADD SWAP1 DUP2 GT PUSH2 0x436C JUMPI PUSH2 0x4344 PUSH2 0x509F PUSH2 0x50AC SWAP3 DUP7 PUSH2 0x40BD JUMP JUMPDEST SWAP1 SLOAD SWAP1 DUP8 SHL SHR SWAP3 DUP6 PUSH2 0x40BD JUMP JUMPDEST SWAP1 SSTORE DUP2 SLOAD DUP1 ISZERO PUSH2 0x50D1 JUMPI DUP2 ADD SWAP3 PUSH2 0x50C3 DUP5 DUP5 PUSH2 0x40BD JUMP JUMPDEST DUP2 SWAP4 SWAP2 SLOAD SWAP3 SHL SHL NOT AND SWAP1 SSTORE SSTORE JUMP JUMPDEST PUSH4 0x4E487B71 PUSH1 0xE0 SHL PUSH0 MSTORE PUSH1 0x31 PUSH1 0x4 MSTORE PUSH1 0x24 PUSH0 REVERT JUMPDEST SWAP1 PUSH0 DUP1 SWAP2 PUSH1 0x20 DUP2 MLOAD SWAP2 ADD DUP5 GAS DELEGATECALL DUP1 DUP1 PUSH2 0x5163 JUMPI JUMPDEST ISZERO PUSH2 0x5119 JUMPI POP POP PUSH1 0x40 MLOAD RETURNDATASIZE DUP2 MSTORE RETURNDATASIZE PUSH0 PUSH1 0x20 DUP4 ADD RETURNDATACOPY PUSH1 0x20 RETURNDATASIZE DUP3 ADD ADD PUSH1 0x40 MSTORE SWAP1 JUMP JUMPDEST ISZERO PUSH2 0x5140 JUMPI PUSH1 0x40 MLOAD PUSH4 0x9996B315 PUSH1 0xE0 SHL DUP2 MSTORE PUSH1 0x1 PUSH1 0x1 PUSH1 0xA0 SHL SUB SWAP1 SWAP2 AND PUSH1 0x4 DUP3 ADD MSTORE PUSH1 0x24 SWAP1 REVERT JUMPDEST RETURNDATASIZE ISZERO PUSH2 0x5151 JUMPI PUSH1 0x40 MLOAD RETURNDATASIZE PUSH0 DUP3 RETURNDATACOPY RETURNDATASIZE SWAP1 REVERT JUMPDEST PUSH1 0x40 MLOAD PUSH4 0xD6BDA275 PUSH1 0xE0 SHL DUP2 MSTORE PUSH1 0x4 SWAP1 REVERT JUMPDEST POP RETURNDATASIZE ISZERO ISZERO DUP1 PUSH2 0x50F9 JUMPI POP DUP2 EXTCODESIZE ISZERO ISZERO PUSH2 0x50F9 JUMP INVALID LOG2 PUSH5 0x6970667358 0x22 SLT KECCAK256 0xE2 CHAINID PUSH5 0xE14A2AFF16 0xF6 0xBD 0xCE 0xE5 INVALID PUSH3 0x27384A GAS 0x2B DUP3 0xBC SDIV 0xF9 0xFB 0x2E PUSH12 0x8A598E38A7A564736F6C6343 STOP ADDMOD XOR STOP CALLER "},"methodIdentifiers":{"UPGRADE_INTERFACE_VERSION()":"ad3cb1cc","acceptTrustee(bytes32)":"b8cab84b","addMember(address,bytes32)":"49df7208","addMemberBatch(address[],bytes32)":"69ac2022","admin()":"f851a440","adminsByRecord(bytes32,uint256)":"8776cd35","bootstrapDependentTrustee(bytes32,bytes32)":"e6efcd5d","changeRole(bytes32,address,string)":"29c9087a","changeRoleBatch(bytes32[],address,string[])":"51eed472","deactivateWallet(address)":"0b3ffd1d","downgradeTrusteeLevel(bytes32,uint8)":"4d3c4a7c","getAllUsers()":"e2842d79","getGuestAccess(bytes32,bytes32)":"3256e5ab","getHealthRecordCore()":"e94ed257","getRecordAdmins(bytes32)":"41a51baa","getRecordOwners(bytes32)":"c36dc9ef","getRecordRoleStats(bytes32)":"8db7edb4","getRecordViewers(bytes32)":"033e822f","getRecordsByUser(bytes32)":"6544b05b","getRoleDetails(bytes32,address)":"422a5bb8","getRoleDetailsByUser(bytes32,bytes32)":"43e19704","getRoleGranter(bytes32,bytes32)":"aaddc345","getTotalRoles()":"4b6feb7c","getTotalUsers()":"9be572f6","getTrusteeRelationship(bytes32,bytes32)":"9915b91f","getUserForWallet(address)":"00b0c809","getUserStatus(bytes32)":"f29e007b","getWalletsForUser(bytes32)":"d12a7768","grantGuestAccess(bytes32[],address,bytes32,bytes32,uint256)":"0591bdf4","grantRole(bytes32,address,string)":"dde492ea","grantRoleAsTrusteeBatch(bytes32[],bytes32)":"bafc8892","grantRoleBatch(bytes32[],address,string[])":"02ba8109","guestAccessByRecord(bytes32,bytes32)":"eec047aa","hasActiveGuestAccess(bytes32,bytes32)":"e211e89c","hasActiveRole(bytes32,address)":"c88c35fe","hasRole(bytes32,address,string)":"3befa410","healthRecordCore()":"562c788e","initialize()":"8129fc1c","initializeRecordRole(bytes32,address,string)":"726d5447","isActiveMember(address)":"45ecd02f","isActiveSubject(bytes32,bytes32)":"64f639d4","isControllerOf(bytes32,bytes32)":"557ee54f","isOwnerOrAdmin(bytes32,address)":"0519e2a0","isVerifiedMember(address)":"cb261a03","isVerifiedProvider(address)":"259ed80e","ownersByRecord(bytes32,uint256)":"55816079","proposeTrustee(bytes32,uint8)":"1c0c18d8","proxiableUUID()":"52d1902d","reactivateWallet(address)":"bb0f86d5","recordRoles(bytes32)":"33105592","recordsByUser(bytes32,uint256)":"fa7a6bcc","revokeGuestAccess(bytes32[],bytes32)":"1dc63201","revokeRole(bytes32,address)":"d547741f","revokeRoleBatch(bytes32[],address)":"f12b9ad3","revokeTrustee(bytes32,bytes32)":"c979c9bf","roleGrantedBy(bytes32)":"cda06c6e","setHealthRecordCore(address)":"c7155823","setUserStatus(bytes32,uint8)":"96207e02","totalRoles()":"790e118c","totalUsers()":"bff1f9e1","transferAdmin(address)":"75829def","trusteeRelationships(bytes32,bytes32)":"7b657d07","updateTrusteeLevel(bytes32,uint8)":"ab48384a","upgradeToAndCall(address,bytes)":"4f1ef286","userList(uint256)":"9f4216e8","userStatus(bytes32)":"6b4bed97","userWallets(bytes32,uint256)":"9443cd80","viewersByRecord(bytes32,uint256)":"93ccfba8","voluntarilyLeaveOwnership(bytes32)":"2ae8511d","wallets(address)":"89b08f11"}},"storageLayout":{"storage":[{"astId":1563,"contract":"smartContracts/MemberRoleManager.sol:MemberRoleManager","label":"admin","offset":0,"slot":"0","type":"t_address"},{"astId":1756,"contract":"smartContracts/MemberRoleManager.sol:MemberRoleManager","label":"wallets","offset":0,"slot":"1","type":"t_mapping(t_address,t_struct(UserInfo)1751_storage)"},{"astId":1761,"contract":"smartContracts/MemberRoleManager.sol:MemberRoleManager","label":"userStatus","offset":0,"slot":"2","type":"t_mapping(t_bytes32,t_enum(MemberStatus)1716)"},{"astId":1766,"contract":"smartContracts/MemberRoleManager.sol:MemberRoleManager","label":"userWallets","offset":0,"slot":"3","type":"t_mapping(t_bytes32,t_array(t_address)dyn_storage)"},{"astId":1769,"contract":"smartContracts/MemberRoleManager.sol:MemberRoleManager","label":"userList","offset":0,"slot":"4","type":"t_array(t_bytes32)dyn_storage"},{"astId":1771,"contract":"smartContracts/MemberRoleManager.sol:MemberRoleManager","label":"totalUsers","offset":0,"slot":"5","type":"t_uint256"},{"astId":2423,"contract":"smartContracts/MemberRoleManager.sol:MemberRoleManager","label":"recordRoles","offset":0,"slot":"6","type":"t_mapping(t_bytes32,t_struct(RecordRole)2418_storage)"},{"astId":2428,"contract":"smartContracts/MemberRoleManager.sol:MemberRoleManager","label":"ownersByRecord","offset":0,"slot":"7","type":"t_mapping(t_bytes32,t_array(t_bytes32)dyn_storage)"},{"astId":2433,"contract":"smartContracts/MemberRoleManager.sol:MemberRoleManager","label":"adminsByRecord","offset":0,"slot":"8","type":"t_mapping(t_bytes32,t_array(t_bytes32)dyn_storage)"},{"astId":2438,"contract":"smartContracts/MemberRoleManager.sol:MemberRoleManager","label":"viewersByRecord","offset":0,"slot":"9","type":"t_mapping(t_bytes32,t_array(t_bytes32)dyn_storage)"},{"astId":2443,"contract":"smartContracts/MemberRoleManager.sol:MemberRoleManager","label":"recordsByUser","offset":0,"slot":"10","type":"t_mapping(t_bytes32,t_array(t_bytes32)dyn_storage)"},{"astId":2445,"contract":"smartContracts/MemberRoleManager.sol:MemberRoleManager","label":"totalRoles","offset":0,"slot":"11","type":"t_uint256"},{"astId":2448,"contract":"smartContracts/MemberRoleManager.sol:MemberRoleManager","label":"healthRecordCore","offset":0,"slot":"12","type":"t_contract(HealthRecordCoreInterface)1554"},{"astId":2452,"contract":"smartContracts/MemberRoleManager.sol:MemberRoleManager","label":"roleGrantedBy","offset":0,"slot":"13","type":"t_mapping(t_bytes32,t_bytes32)"},{"astId":4259,"contract":"smartContracts/MemberRoleManager.sol:MemberRoleManager","label":"trusteeRelationships","offset":0,"slot":"14","type":"t_mapping(t_bytes32,t_mapping(t_bytes32,t_struct(TrusteeRelationship)4252_storage))"},{"astId":5377,"contract":"smartContracts/MemberRoleManager.sol:MemberRoleManager","label":"guestAccessByRecord","offset":0,"slot":"15","type":"t_mapping(t_bytes32,t_mapping(t_bytes32,t_struct(GuestAccess)5346_storage))"},{"astId":5750,"contract":"smartContracts/MemberRoleManager.sol:MemberRoleManager","label":"__gap","offset":0,"slot":"16","type":"t_array(t_uint256)50_storage"}],"types":{"t_address":{"encoding":"inplace","label":"address","numberOfBytes":"20"},"t_array(t_address)dyn_storage":{"base":"t_address","encoding":"dynamic_array","label":"address[]","numberOfBytes":"32"},"t_array(t_bytes32)dyn_storage":{"base":"t_bytes32","encoding":"dynamic_array","label":"bytes32[]","numberOfBytes":"32"},"t_array(t_uint256)50_storage":{"base":"t_uint256","encoding":"inplace","label":"uint256[50]","numberOfBytes":"1600"},"t_bool":{"encoding":"inplace","label":"bool","numberOfBytes":"1"},"t_bytes32":{"encoding":"inplace","label":"bytes32","numberOfBytes":"32"},"t_contract(HealthRecordCoreInterface)1554":{"encoding":"inplace","label":"contract HealthRecordCoreInterface","numberOfBytes":"20"},"t_enum(MemberStatus)1716":{"encoding":"inplace","label":"enum MemberRoleManager.MemberStatus","numberOfBytes":"1"},"t_enum(TrusteeLevel)4240":{"encoding":"inplace","label":"enum MemberRoleManager.TrusteeLevel","numberOfBytes":"1"},"t_enum(TrusteeStatus)4245":{"encoding":"inplace","label":"enum MemberRoleManager.TrusteeStatus","numberOfBytes":"1"},"t_mapping(t_address,t_struct(UserInfo)1751_storage)":{"encoding":"mapping","key":"t_address","label":"mapping(address => struct MemberRoleManager.UserInfo)","numberOfBytes":"32","value":"t_struct(UserInfo)1751_storage"},"t_mapping(t_bytes32,t_array(t_address)dyn_storage)":{"encoding":"mapping","key":"t_bytes32","label":"mapping(bytes32 => address[])","numberOfBytes":"32","value":"t_array(t_address)dyn_storage"},"t_mapping(t_bytes32,t_array(t_bytes32)dyn_storage)":{"encoding":"mapping","key":"t_bytes32","label":"mapping(bytes32 => bytes32[])","numberOfBytes":"32","value":"t_array(t_bytes32)dyn_storage"},"t_mapping(t_bytes32,t_bytes32)":{"encoding":"mapping","key":"t_bytes32","label":"mapping(bytes32 => bytes32)","numberOfBytes":"32","value":"t_bytes32"},"t_mapping(t_bytes32,t_enum(MemberStatus)1716)":{"encoding":"mapping","key":"t_bytes32","label":"mapping(bytes32 => enum MemberRoleManager.MemberStatus)","numberOfBytes":"32","value":"t_enum(MemberStatus)1716"},"t_mapping(t_bytes32,t_mapping(t_bytes32,t_struct(GuestAccess)5346_storage))":{"encoding":"mapping","key":"t_bytes32","label":"mapping(bytes32 => mapping(bytes32 => struct MemberRoleManager.GuestAccess))","numberOfBytes":"32","value":"t_mapping(t_bytes32,t_struct(GuestAccess)5346_storage)"},"t_mapping(t_bytes32,t_mapping(t_bytes32,t_struct(TrusteeRelationship)4252_storage))":{"encoding":"mapping","key":"t_bytes32","label":"mapping(bytes32 => mapping(bytes32 => struct MemberRoleManager.TrusteeRelationship))","numberOfBytes":"32","value":"t_mapping(t_bytes32,t_struct(TrusteeRelationship)4252_storage)"},"t_mapping(t_bytes32,t_struct(GuestAccess)5346_storage)":{"encoding":"mapping","key":"t_bytes32","label":"mapping(bytes32 => struct MemberRoleManager.GuestAccess)","numberOfBytes":"32","value":"t_struct(GuestAccess)5346_storage"},"t_mapping(t_bytes32,t_struct(RecordRole)2418_storage)":{"encoding":"mapping","key":"t_bytes32","label":"mapping(bytes32 => struct MemberRoleManager.RecordRole)","numberOfBytes":"32","value":"t_struct(RecordRole)2418_storage"},"t_mapping(t_bytes32,t_struct(TrusteeRelationship)4252_storage)":{"encoding":"mapping","key":"t_bytes32","label":"mapping(bytes32 => struct MemberRoleManager.TrusteeRelationship)","numberOfBytes":"32","value":"t_struct(TrusteeRelationship)4252_storage"},"t_string_storage":{"encoding":"bytes","label":"string","numberOfBytes":"32"},"t_struct(GuestAccess)5346_storage":{"encoding":"inplace","label":"struct MemberRoleManager.GuestAccess","members":[{"astId":5339,"contract":"smartContracts/MemberRoleManager.sol:MemberRoleManager","label":"grantedAt","offset":0,"slot":"0","type":"t_uint256"},{"astId":5341,"contract":"smartContracts/MemberRoleManager.sol:MemberRoleManager","label":"expiresAt","offset":0,"slot":"1","type":"t_uint256"},{"astId":5343,"contract":"smartContracts/MemberRoleManager.sol:MemberRoleManager","label":"grantedByIdHash","offset":0,"slot":"2","type":"t_bytes32"},{"astId":5345,"contract":"smartContracts/MemberRoleManager.sol:MemberRoleManager","label":"guestEmailHash","offset":0,"slot":"3","type":"t_bytes32"}],"numberOfBytes":"128"},"t_struct(RecordRole)2418_storage":{"encoding":"inplace","label":"struct MemberRoleManager.RecordRole","members":[{"astId":2415,"contract":"smartContracts/MemberRoleManager.sol:MemberRoleManager","label":"role","offset":0,"slot":"0","type":"t_string_storage"},{"astId":2417,"contract":"smartContracts/MemberRoleManager.sol:MemberRoleManager","label":"isActive","offset":0,"slot":"1","type":"t_bool"}],"numberOfBytes":"64"},"t_struct(TrusteeRelationship)4252_storage":{"encoding":"inplace","label":"struct MemberRoleManager.TrusteeRelationship","members":[{"astId":4248,"contract":"smartContracts/MemberRoleManager.sol:MemberRoleManager","label":"status","offset":0,"slot":"0","type":"t_enum(TrusteeStatus)4245"},{"astId":4251,"contract":"smartContracts/MemberRoleManager.sol:MemberRoleManager","label":"level","offset":1,"slot":"0","type":"t_enum(TrusteeLevel)4240"}],"numberOfBytes":"32"},"t_struct(UserInfo)1751_storage":{"encoding":"inplace","label":"struct MemberRoleManager.UserInfo","members":[{"astId":1748,"contract":"smartContracts/MemberRoleManager.sol:MemberRoleManager","label":"userIdHash","offset":0,"slot":"0","type":"t_bytes32"},{"astId":1750,"contract":"smartContracts/MemberRoleManager.sol:MemberRoleManager","label":"isWalletActive","offset":0,"slot":"1","type":"t_bool"}],"numberOfBytes":"64"},"t_uint256":{"encoding":"inplace","label":"uint256","numberOfBytes":"32"}}}}}}