{"smartContracts/MemberRoleManager.sol":{"MemberRoleManager":{"abi":[{"inputs":[],"stateMutability":"nonpayable","type":"constructor"},{"inputs":[{"internalType":"address","name":"target","type":"address"}],"name":"AddressEmptyCode","type":"error"},{"inputs":[{"internalType":"address","name":"implementation","type":"address"}],"name":"ERC1967InvalidImplementation","type":"error"},{"inputs":[],"name":"ERC1967NonPayable","type":"error"},{"inputs":[],"name":"FailedCall","type":"error"},{"inputs":[],"name":"InvalidInitialization","type":"error"},{"inputs":[],"name":"NotInitializing","type":"error"},{"inputs":[],"name":"UUPSUnauthorizedCallContext","type":"error"},{"inputs":[{"internalType":"bytes32","name":"slot","type":"bytes32"}],"name":"UUPSUnsupportedProxiableUUID","type":"error"},{"anonymous":false,"inputs":[{"indexed":true,"internalType":"address","name":"oldAdmin","type":"address"},{"indexed":true,"internalType":"address","name":"newAdmin","type":"address"},{"indexed":false,"internalType":"uint256","name":"timestamp","type":"uint256"}],"name":"AdminTransferred","type":"event"},{"anonymous":false,"inputs":[{"indexed":true,"internalType":"bytes32","name":"recordIdHash","type":"bytes32"},{"indexed":true,"internalType":"bytes32","name":"grantedByIdHash","type":"bytes32"},{"indexed":true,"internalType":"bytes32","name":"guestIdHash","type":"bytes32"},{"indexed":false,"internalType":"bytes32","name":"guestEmailHash","type":"bytes32"},{"indexed":false,"internalType":"uint256","name":"expiresAt","type":"uint256"},{"indexed":false,"internalType":"uint256","name":"timestamp","type":"uint256"}],"name":"GuestAccessGranted","type":"event"},{"anonymous":false,"inputs":[{"indexed":true,"internalType":"bytes32","name":"recordIdHash","type":"bytes32"},{"indexed":true,"internalType":"bytes32","name":"revokedByIdHash","type":"bytes32"},{"indexed":true,"internalType":"bytes32","name":"guestIdHash","type":"bytes32"},{"indexed":false,"internalType":"uint256","name":"timestamp","type":"uint256"}],"name":"GuestAccessRevoked","type":"event"},{"anonymous":false,"inputs":[{"indexed":true,"internalType":"address","name":"newAddress","type":"address"},{"indexed":false,"internalType":"uint256","name":"timestamp","type":"uint256"}],"name":"HealthRecordCoreUpdated","type":"event"},{"anonymous":false,"inputs":[{"indexed":false,"internalType":"uint64","name":"version","type":"uint64"}],"name":"Initialized","type":"event"},{"anonymous":false,"inputs":[{"indexed":true,"internalType":"address","name":"wallet","type":"address"},{"indexed":true,"internalType":"bytes32","name":"userIdHash","type":"bytes32"},{"indexed":false,"internalType":"uint256","name":"timestamp","type":"uint256"}],"name":"MemberRegistered","type":"event"},{"anonymous":false,"inputs":[{"indexed":true,"internalType":"bytes32","name":"userIdHash","type":"bytes32"},{"indexed":false,"internalType":"enum MemberRoleManager.MemberStatus","name":"oldStatus","type":"uint8"},{"indexed":false,"internalType":"enum MemberRoleManager.MemberStatus","name":"newStatus","type":"uint8"},{"indexed":true,"internalType":"address","name":"changedBy","type":"address"},{"indexed":false,"internalType":"uint256","name":"timestamp","type":"uint256"}],"name":"MemberStatusChanged","type":"event"},{"anonymous":false,"inputs":[{"indexed":true,"internalType":"bytes32","name":"recordIdHash","type":"bytes32"},{"indexed":true,"internalType":"bytes32","name":"userIdHash","type":"bytes32"},{"indexed":false,"internalType":"uint256","name":"timestamp","type":"uint256"}],"name":"OwnershipVoluntarilyLeft","type":"event"},{"anonymous":false,"inputs":[{"indexed":true,"internalType":"bytes32","name":"recordIdHash","type":"bytes32"},{"indexed":true,"internalType":"bytes32","name":"targetIdHash","type":"bytes32"},{"indexed":false,"internalType":"string","name":"oldRole","type":"string"},{"indexed":false,"internalType":"string","name":"newRole","type":"string"},{"indexed":true,"internalType":"bytes32","name":"userIdHash","type":"bytes32"},{"indexed":false,"internalType":"uint256","name":"timestamp","type":"uint256"}],"name":"RoleChanged","type":"event"},{"anonymous":false,"inputs":[{"indexed":true,"internalType":"bytes32","name":"recordIdHash","type":"bytes32"},{"indexed":true,"internalType":"bytes32","name":"targetIdHash","type":"bytes32"},{"indexed":false,"internalType":"string","name":"role","type":"string"},{"indexed":true,"internalType":"bytes32","name":"userIdHash","type":"bytes32"},{"indexed":false,"internalType":"uint256","name":"timestamp","type":"uint256"}],"name":"RoleGranted","type":"event"},{"anonymous":false,"inputs":[{"indexed":true,"internalType":"bytes32","name":"recordIdHash","type":"bytes32"},{"indexed":true,"internalType":"bytes32","name":"targetIdHash","type":"bytes32"},{"indexed":false,"internalType":"string","name":"role","type":"string"},{"indexed":true,"internalType":"bytes32","name":"userIdHash","type":"bytes32"},{"indexed":false,"internalType":"uint256","name":"timestamp","type":"uint256"}],"name":"RoleRevoked","type":"event"},{"anonymous":false,"inputs":[{"indexed":true,"internalType":"bytes32","name":"trustorIdHash","type":"bytes32"},{"indexed":true,"internalType":"bytes32","name":"trusteeIdHash","type":"bytes32"},{"indexed":false,"internalType":"enum MemberRoleManager.TrusteeLevel","name":"level","type":"uint8"},{"indexed":false,"internalType":"uint256","name":"timestamp","type":"uint256"}],"name":"TrusteeAccepted","type":"event"},{"anonymous":false,"inputs":[{"indexed":true,"internalType":"bytes32","name":"trustorIdHash","type":"bytes32"},{"indexed":true,"internalType":"bytes32","name":"trusteeIdHash","type":"bytes32"},{"indexed":false,"internalType":"enum MemberRoleManager.TrusteeLevel","name":"oldLevel","type":"uint8"},{"indexed":false,"internalType":"enum MemberRoleManager.TrusteeLevel","name":"newLevel","type":"uint8"},{"indexed":false,"internalType":"uint256","name":"timestamp","type":"uint256"}],"name":"TrusteeLevelUpdated","type":"event"},{"anonymous":false,"inputs":[{"indexed":true,"internalType":"bytes32","name":"trustorIdHash","type":"bytes32"},{"indexed":true,"internalType":"bytes32","name":"trusteeIdHash","type":"bytes32"},{"indexed":false,"internalType":"enum MemberRoleManager.TrusteeLevel","name":"level","type":"uint8"},{"indexed":false,"internalType":"uint256","name":"timestamp","type":"uint256"}],"name":"TrusteeProposed","type":"event"},{"anonymous":false,"inputs":[{"indexed":true,"internalType":"bytes32","name":"trustorIdHash","type":"bytes32"},{"indexed":true,"internalType":"bytes32","name":"trusteeIdHash","type":"bytes32"},{"indexed":true,"internalType":"bytes32","name":"revokedBy","type":"bytes32"},{"indexed":false,"internalType":"uint256","name":"timestamp","type":"uint256"}],"name":"TrusteeRevoked","type":"event"},{"anonymous":false,"inputs":[{"indexed":true,"internalType":"address","name":"implementation","type":"address"}],"name":"Upgraded","type":"event"},{"anonymous":false,"inputs":[{"indexed":true,"internalType":"address","name":"wallet","type":"address"},{"indexed":true,"internalType":"bytes32","name":"userIdHash","type":"bytes32"},{"indexed":false,"internalType":"uint256","name":"timestamp","type":"uint256"}],"name":"WalletLinked","type":"event"},{"inputs":[],"name":"UPGRADE_INTERFACE_VERSION","outputs":[{"internalType":"string","name":"","type":"string"}],"stateMutability":"view","type":"function"},{"inputs":[{"internalType":"bytes32","name":"trustorIdHash","type":"bytes32"}],"name":"acceptTrustee","outputs":[],"stateMutability":"nonpayable","type":"function"},{"inputs":[{"internalType":"address","name":"wallet","type":"address"},{"internalType":"bytes32","name":"userIdHash","type":"bytes32"}],"name":"addMember","outputs":[],"stateMutability":"nonpayable","type":"function"},{"inputs":[{"internalType":"address[]","name":"walletAddresses","type":"address[]"},{"internalType":"bytes32","name":"userIdHash","type":"bytes32"}],"name":"addMemberBatch","outputs":[],"stateMutability":"nonpayable","type":"function"},{"inputs":[],"name":"admin","outputs":[{"internalType":"address","name":"","type":"address"}],"stateMutability":"view","type":"function"},{"inputs":[{"internalType":"bytes32","name":"","type":"bytes32"},{"internalType":"uint256","name":"","type":"uint256"}],"name":"adminsByRecord","outputs":[{"internalType":"bytes32","name":"","type":"bytes32"}],"stateMutability":"view","type":"function"},{"inputs":[{"internalType":"bytes32","name":"trustorIdHash","type":"bytes32"},{"internalType":"bytes32","name":"trusteeIdHash","type":"bytes32"}],"name":"bootstrapDependentTrustee","outputs":[],"stateMutability":"nonpayable","type":"function"},{"inputs":[{"internalType":"bytes32","name":"recordIdHash","type":"bytes32"},{"internalType":"address","name":"targetWallet","type":"address"},{"internalType":"string","name":"newRole","type":"string"}],"name":"changeRole","outputs":[],"stateMutability":"nonpayable","type":"function"},{"inputs":[{"internalType":"bytes32[]","name":"recordIdHashes","type":"bytes32[]"},{"internalType":"address","name":"targetWallet","type":"address"},{"internalType":"string[]","name":"newRoles","type":"string[]"}],"name":"changeRoleBatch","outputs":[],"stateMutability":"nonpayable","type":"function"},{"inputs":[{"internalType":"address","name":"wallet","type":"address"}],"name":"deactivateWallet","outputs":[],"stateMutability":"nonpayable","type":"function"},{"inputs":[{"internalType":"bytes32","name":"trustorIdHash","type":"bytes32"},{"internalType":"enum MemberRoleManager.TrusteeLevel","name":"newLevel","type":"uint8"}],"name":"downgradeTrusteeLevel","outputs":[],"stateMutability":"nonpayable","type":"function"},{"inputs":[],"name":"getAllUsers","outputs":[{"internalType":"bytes32[]","name":"","type":"bytes32[]"}],"stateMutability":"view","type":"function"},{"inputs":[{"internalType":"bytes32","name":"recordIdHash","type":"bytes32"},{"internalType":"bytes32","name":"guestIdHash","type":"bytes32"}],"name":"getGuestAccess","outputs":[{"internalType":"uint256","name":"grantedAt","type":"uint256"},{"internalType":"uint256","name":"expiresAt","type":"uint256"},{"internalType":"bytes32","name":"grantedByIdHash","type":"bytes32"},{"internalType":"bytes32","name":"guestEmailHash","type":"bytes32"}],"stateMutability":"view","type":"function"},{"inputs":[],"name":"getHealthRecordCore","outputs":[{"internalType":"address","name":"","type":"address"}],"stateMutability":"view","type":"function"},{"inputs":[{"internalType":"bytes32","name":"recordIdHash","type":"bytes32"}],"name":"getRecordAdmins","outputs":[{"internalType":"bytes32[]","name":"","type":"bytes32[]"}],"stateMutability":"view","type":"function"},{"inputs":[{"internalType":"bytes32","name":"recordIdHash","type":"bytes32"}],"name":"getRecordOwners","outputs":[{"internalType":"bytes32[]","name":"","type":"bytes32[]"}],"stateMutability":"view","type":"function"},{"inputs":[{"internalType":"bytes32","name":"recordIdHash","type":"bytes32"}],"name":"getRecordRoleStats","outputs":[{"internalType":"uint256","name":"ownerCount","type":"uint256"},{"internalType":"uint256","name":"adminCount","type":"uint256"},{"internalType":"uint256","name":"viewerCount","type":"uint256"}],"stateMutability":"view","type":"function"},{"inputs":[{"internalType":"bytes32","name":"recordIdHash","type":"bytes32"}],"name":"getRecordViewers","outputs":[{"internalType":"bytes32[]","name":"","type":"bytes32[]"}],"stateMutability":"view","type":"function"},{"inputs":[{"internalType":"bytes32","name":"userIdHash","type":"bytes32"}],"name":"getRecordsByUser","outputs":[{"internalType":"bytes32[]","name":"","type":"bytes32[]"}],"stateMutability":"view","type":"function"},{"inputs":[{"internalType":"bytes32","name":"recordIdHash","type":"bytes32"},{"internalType":"address","name":"wallet","type":"address"}],"name":"getRoleDetails","outputs":[{"internalType":"string","name":"role","type":"string"},{"internalType":"bool","name":"isActive","type":"bool"}],"stateMutability":"view","type":"function"},{"inputs":[{"internalType":"bytes32","name":"recordIdHash","type":"bytes32"},{"internalType":"bytes32","name":"userIdHash","type":"bytes32"}],"name":"getRoleDetailsByUser","outputs":[{"internalType":"string","name":"role","type":"string"},{"internalType":"bool","name":"isActive","type":"bool"}],"stateMutability":"view","type":"function"},{"inputs":[{"internalType":"bytes32","name":"recordIdHash","type":"bytes32"},{"internalType":"bytes32","name":"userIdHash","type":"bytes32"}],"name":"getRoleGranter","outputs":[{"internalType":"bytes32","name":"","type":"bytes32"}],"stateMutability":"view","type":"function"},{"inputs":[],"name":"getTotalRoles","outputs":[{"internalType":"uint256","name":"","type":"uint256"}],"stateMutability":"view","type":"function"},{"inputs":[],"name":"getTotalUsers","outputs":[{"internalType":"uint256","name":"","type":"uint256"}],"stateMutability":"view","type":"function"},{"inputs":[{"internalType":"bytes32","name":"trustorIdHash","type":"bytes32"},{"internalType":"bytes32","name":"trusteeIdHash","type":"bytes32"}],"name":"getTrusteeGrantedRecords","outputs":[{"internalType":"bytes32[]","name":"","type":"bytes32[]"}],"stateMutability":"view","type":"function"},{"inputs":[{"internalType":"bytes32","name":"trustorIdHash","type":"bytes32"},{"internalType":"bytes32","name":"trusteeIdHash","type":"bytes32"}],"name":"getTrusteeRelationship","outputs":[{"internalType":"enum MemberRoleManager.TrusteeStatus","name":"status","type":"uint8"},{"internalType":"enum MemberRoleManager.TrusteeLevel","name":"level","type":"uint8"}],"stateMutability":"view","type":"function"},{"inputs":[{"internalType":"address","name":"wallet","type":"address"}],"name":"getUserForWallet","outputs":[{"internalType":"bytes32","name":"","type":"bytes32"}],"stateMutability":"view","type":"function"},{"inputs":[{"internalType":"bytes32","name":"userIdHash","type":"bytes32"}],"name":"getUserStatus","outputs":[{"internalType":"enum MemberRoleManager.MemberStatus","name":"status","type":"uint8"}],"stateMutability":"view","type":"function"},{"inputs":[{"internalType":"bytes32","name":"userIdHash","type":"bytes32"}],"name":"getWalletsForUser","outputs":[{"internalType":"address[]","name":"","type":"address[]"}],"stateMutability":"view","type":"function"},{"inputs":[{"internalType":"bytes32[]","name":"recordIdHashes","type":"bytes32[]"},{"internalType":"address","name":"guestWallet","type":"address"},{"internalType":"bytes32","name":"guestIdHash","type":"bytes32"},{"internalType":"bytes32","name":"guestEmailHash","type":"bytes32"},{"internalType":"uint256","name":"durationSeconds","type":"uint256"}],"name":"grantGuestAccess","outputs":[],"stateMutability":"nonpayable","type":"function"},{"inputs":[{"internalType":"bytes32","name":"recordIdHash","type":"bytes32"},{"internalType":"address","name":"targetWallet","type":"address"},{"internalType":"string","name":"role","type":"string"}],"name":"grantRole","outputs":[],"stateMutability":"nonpayable","type":"function"},{"inputs":[{"internalType":"bytes32[]","name":"recordIdHashes","type":"bytes32[]"},{"internalType":"bytes32","name":"trustorIdHash","type":"bytes32"}],"name":"grantRoleAsTrusteeBatch","outputs":[],"stateMutability":"nonpayable","type":"function"},{"inputs":[{"internalType":"bytes32[]","name":"recordIdHashes","type":"bytes32[]"},{"internalType":"address","name":"targetWallet","type":"address"},{"internalType":"string[]","name":"roles","type":"string[]"}],"name":"grantRoleBatch","outputs":[],"stateMutability":"nonpayable","type":"function"},{"inputs":[{"internalType":"bytes32","name":"","type":"bytes32"},{"internalType":"bytes32","name":"","type":"bytes32"}],"name":"guestAccessByRecord","outputs":[{"internalType":"uint256","name":"grantedAt","type":"uint256"},{"internalType":"uint256","name":"expiresAt","type":"uint256"},{"internalType":"bytes32","name":"grantedByIdHash","type":"bytes32"},{"internalType":"bytes32","name":"guestEmailHash","type":"bytes32"}],"stateMutability":"view","type":"function"},{"inputs":[{"internalType":"bytes32","name":"recordIdHash","type":"bytes32"},{"internalType":"bytes32","name":"guestIdHash","type":"bytes32"}],"name":"hasActiveGuestAccess","outputs":[{"internalType":"bool","name":"","type":"bool"}],"stateMutability":"view","type":"function"},{"inputs":[{"internalType":"bytes32","name":"recordIdHash","type":"bytes32"},{"internalType":"address","name":"wallet","type":"address"}],"name":"hasActiveRole","outputs":[{"internalType":"bool","name":"","type":"bool"}],"stateMutability":"view","type":"function"},{"inputs":[{"internalType":"bytes32","name":"recordIdHash","type":"bytes32"},{"internalType":"address","name":"wallet","type":"address"},{"internalType":"string","name":"role","type":"string"}],"name":"hasRole","outputs":[{"internalType":"bool","name":"","type":"bool"}],"stateMutability":"view","type":"function"},{"inputs":[],"name":"healthRecordCore","outputs":[{"internalType":"contract HealthRecordCoreInterface","name":"","type":"address"}],"stateMutability":"view","type":"function"},{"inputs":[],"name":"initialize","outputs":[],"stateMutability":"nonpayable","type":"function"},{"inputs":[{"internalType":"bytes32","name":"recordIdHash","type":"bytes32"},{"internalType":"address","name":"targetWallet","type":"address"},{"internalType":"string","name":"role","type":"string"}],"name":"initializeRecordRole","outputs":[],"stateMutability":"nonpayable","type":"function"},{"inputs":[{"internalType":"address","name":"wallet","type":"address"}],"name":"isActiveMember","outputs":[{"internalType":"bool","name":"","type":"bool"}],"stateMutability":"view","type":"function"},{"inputs":[{"internalType":"bytes32","name":"recordIdHash","type":"bytes32"},{"internalType":"bytes32","name":"userIdHash","type":"bytes32"}],"name":"isActiveSubject","outputs":[{"internalType":"bool","name":"","type":"bool"}],"stateMutability":"view","type":"function"},{"inputs":[{"internalType":"bytes32","name":"trustorIdHash","type":"bytes32"},{"internalType":"bytes32","name":"trusteeIdHash","type":"bytes32"}],"name":"isControllerOf","outputs":[{"internalType":"bool","name":"","type":"bool"}],"stateMutability":"view","type":"function"},{"inputs":[{"internalType":"bytes32","name":"recordIdHash","type":"bytes32"},{"internalType":"address","name":"wallet","type":"address"}],"name":"isOwnerOrAdmin","outputs":[{"internalType":"bool","name":"","type":"bool"}],"stateMutability":"view","type":"function"},{"inputs":[{"internalType":"address","name":"wallet","type":"address"}],"name":"isVerifiedMember","outputs":[{"internalType":"bool","name":"","type":"bool"}],"stateMutability":"view","type":"function"},{"inputs":[{"internalType":"address","name":"wallet","type":"address"}],"name":"isVerifiedProvider","outputs":[{"internalType":"bool","name":"","type":"bool"}],"stateMutability":"view","type":"function"},{"inputs":[{"internalType":"bytes32","name":"","type":"bytes32"},{"internalType":"uint256","name":"","type":"uint256"}],"name":"ownersByRecord","outputs":[{"internalType":"bytes32","name":"","type":"bytes32"}],"stateMutability":"view","type":"function"},{"inputs":[{"internalType":"bytes32","name":"trusteeIdHash","type":"bytes32"},{"internalType":"enum MemberRoleManager.TrusteeLevel","name":"level","type":"uint8"}],"name":"proposeTrustee","outputs":[],"stateMutability":"nonpayable","type":"function"},{"inputs":[],"name":"proxiableUUID","outputs":[{"internalType":"bytes32","name":"","type":"bytes32"}],"stateMutability":"view","type":"function"},{"inputs":[{"internalType":"address","name":"wallet","type":"address"}],"name":"reactivateWallet","outputs":[],"stateMutability":"nonpayable","type":"function"},{"inputs":[{"internalType":"bytes32","name":"","type":"bytes32"}],"name":"recordRoles","outputs":[{"internalType":"string","name":"role","type":"string"},{"internalType":"bool","name":"isActive","type":"bool"}],"stateMutability":"view","type":"function"},{"inputs":[{"internalType":"bytes32","name":"","type":"bytes32"},{"internalType":"uint256","name":"","type":"uint256"}],"name":"recordsByUser","outputs":[{"internalType":"bytes32","name":"","type":"bytes32"}],"stateMutability":"view","type":"function"},{"inputs":[{"internalType":"bytes32[]","name":"recordIdHashes","type":"bytes32[]"},{"internalType":"bytes32","name":"guestIdHash","type":"bytes32"}],"name":"revokeGuestAccess","outputs":[],"stateMutability":"nonpayable","type":"function"},{"inputs":[{"internalType":"bytes32","name":"recordIdHash","type":"bytes32"},{"internalType":"address","name":"targetWallet","type":"address"}],"name":"revokeRole","outputs":[],"stateMutability":"nonpayable","type":"function"},{"inputs":[{"internalType":"bytes32[]","name":"recordIdHashes","type":"bytes32[]"},{"internalType":"address","name":"targetWallet","type":"address"}],"name":"revokeRoleBatch","outputs":[],"stateMutability":"nonpayable","type":"function"},{"inputs":[{"internalType":"bytes32","name":"trustorIdHash","type":"bytes32"},{"internalType":"bytes32","name":"trusteeIdHash","type":"bytes32"}],"name":"revokeTrustee","outputs":[],"stateMutability":"nonpayable","type":"function"},{"inputs":[{"internalType":"bytes32","name":"","type":"bytes32"}],"name":"roleGrantedBy","outputs":[{"internalType":"bytes32","name":"","type":"bytes32"}],"stateMutability":"view","type":"function"},{"inputs":[{"internalType":"address","name":"_healthRecordCore","type":"address"}],"name":"setHealthRecordCore","outputs":[],"stateMutability":"nonpayable","type":"function"},{"inputs":[{"internalType":"bytes32","name":"userIdHash","type":"bytes32"},{"internalType":"enum MemberRoleManager.MemberStatus","name":"newStatus","type":"uint8"}],"name":"setUserStatus","outputs":[],"stateMutability":"nonpayable","type":"function"},{"inputs":[],"name":"totalRoles","outputs":[{"internalType":"uint256","name":"","type":"uint256"}],"stateMutability":"view","type":"function"},{"inputs":[],"name":"totalUsers","outputs":[{"internalType":"uint256","name":"","type":"uint256"}],"stateMutability":"view","type":"function"},{"inputs":[{"internalType":"address","name":"newAdmin","type":"address"}],"name":"transferAdmin","outputs":[],"stateMutability":"nonpayable","type":"function"},{"inputs":[{"internalType":"bytes32","name":"","type":"bytes32"},{"internalType":"bytes32","name":"","type":"bytes32"}],"name":"trusteeRelationships","outputs":[{"internalType":"enum MemberRoleManager.TrusteeStatus","name":"status","type":"uint8"},{"internalType":"enum MemberRoleManager.TrusteeLevel","name":"level","type":"uint8"}],"stateMutability":"view","type":"function"},{"inputs":[{"internalType":"bytes32","name":"trusteeIdHash","type":"bytes32"},{"internalType":"enum MemberRoleManager.TrusteeLevel","name":"newLevel","type":"uint8"}],"name":"updateTrusteeLevel","outputs":[],"stateMutability":"nonpayable","type":"function"},{"inputs":[{"internalType":"address","name":"newImplementation","type":"address"},{"internalType":"bytes","name":"data","type":"bytes"}],"name":"upgradeToAndCall","outputs":[],"stateMutability":"payable","type":"function"},{"inputs":[{"internalType":"uint256","name":"","type":"uint256"}],"name":"userList","outputs":[{"internalType":"bytes32","name":"","type":"bytes32"}],"stateMutability":"view","type":"function"},{"inputs":[{"internalType":"bytes32","name":"","type":"bytes32"}],"name":"userStatus","outputs":[{"internalType":"enum MemberRoleManager.MemberStatus","name":"","type":"uint8"}],"stateMutability":"view","type":"function"},{"inputs":[{"internalType":"bytes32","name":"","type":"bytes32"},{"internalType":"uint256","name":"","type":"uint256"}],"name":"userWallets","outputs":[{"internalType":"address","name":"","type":"address"}],"stateMutability":"view","type":"function"},{"inputs":[{"internalType":"bytes32","name":"","type":"bytes32"},{"internalType":"uint256","name":"","type":"uint256"}],"name":"viewersByRecord","outputs":[{"internalType":"bytes32","name":"","type":"bytes32"}],"stateMutability":"view","type":"function"},{"inputs":[{"internalType":"bytes32","name":"recordIdHash","type":"bytes32"}],"name":"voluntarilyLeaveOwnership","outputs":[],"stateMutability":"nonpayable","type":"function"},{"inputs":[{"internalType":"address","name":"","type":"address"}],"name":"wallets","outputs":[{"internalType":"bytes32","name":"userIdHash","type":"bytes32"},{"internalType":"bool","name":"isWalletActive","type":"bool"}],"stateMutability":"view","type":"function"}],"evm":{"bytecode":{"linkReferences":{},"object":"60a08060405234620000d157306080527ff0c57e16840df040f15088dc2f81fe391c3923bec73e23a9662efc9c229c6a009081549060ff8260401c16620000c257506001600160401b036002600160401b0319828216016200007c575b60405161564f9081620000d682396080518181816127c30152612b330152f35b6001600160401b031990911681179091556040519081527fc7f505b2f371ae2175ee4913f4499e1f2633a7b5936321eed1cdaeb6115181d290602090a15f80806200005c565b63f92ee8a960e01b8152600490fd5b5f80fdfe6080604090808252600480361015610015575f80fd5b5f3560e01c918262b0c809146140215750816302ba810914613f4d578163033e822f14613ee45781630519e2a014613ebe5781630591bdf414613b595781630b3ffd1d14613a9c5781631c0c18d8146139355781631dc63201146137b6578163259ed80e1461379157816329c9087a146132a25781632ae8511d146131255781633256e5ab146130a9578163331055921461306c5781633befa4101461305157816341a51baa14612fe8578163422a5bb814612fb457816343e1970414612f6257816345ecd02f14612f4257816349df720814612df55781634b6feb7c146120825781634d3c4a7c14612ce05781634f1ef28614612ae357816351eed4721461282757816352d1902d146127b0578163557ee54f1461272257816355816079146126f2578163562c788e146105ed57816364f639d4146126d75781636544b05b1461266e57816369ac2022146124705781636b4bed9714610394578163726d54471461211e57816375829def146120a0578163790e118c146120825781637b657d07146120455781638129fc1c14611f285781638776cd3514611ef857816389b08f1114611eb35781638db7edb414611e6e57816393ccfba814611e3e5781639443cd8014611df857816396207e0214611ca75781639915b91f14611c305781639be572f6146116fb5781639f4216e814611be4578163aaddc34514611bb8578163ab48384a14611ab1578163ad3cb1cc14611a6d578163b8cab84b14611992578163bafc8892146117d0578163bb0f86d514611719578163bff1f9e1146116fb578163c36dc9ef14611692578163c497d84014611624578163c7155823146115a8578163c88c35fe14611582578163c979c9bf146112b2578163cb261a0314611284578163cda06c6e1461125d578163d12a7768146111ae578163d547741f14610da6578163dde492ea14610967578163e211e89c146108f7578163e2842d7914610877578163e6efcd5d14610615578163e94ed257146105ed578163eec047aa1461058d578163f12b9ad3146103c5578163f29e007b1461039457508063f851a4401461036d5763fa7a6bcc1461032c575f80fd5b346103695761033a3661437b565b91905f52600a602052805f2080548310156103695760209261035b916144c9565b91905490519160031b1c8152f35b5f80fd5b5034610369575f366003190112610369575f5490516001600160a01b039091168152602090f35b823461036957602036600319011261036957602091355f52600282526103c360ff825f205416915180926144f2565bf35b823461036957806003193601126103695781356001600160401b038111610369576103f3903690840161411e565b916103fc61406b565b61040d61040833614d3d565b614540565b6001600160a01b03169081156105595750335f52600192839260209060018252805f2054935f52805f2054926104448415156145c7565b5f955b61044d57005b805186101561055757868661046d86610467849a8661478c565b51614dc5565b156105525761048087610467838661478c565b1561055257868661049b81610495858861478c565b51614fe4565b805f5260068089526104ae885f206143c9565b9182518a8401206104bd614a8f565b8b815191012014610548576104dd83856104d7898c61478c565b51615018565b5f52885284875f200160ff198154169055600d88525f878120557fd05ed2d3feff840c2ececa71791388fd3d19dbbbbcfa97031f534a7dc09fbf1f610538610525868961478c565b519289519182918b83528b83019061446b565b428c8301520390a45b0195610447565b5050505050610541565b610541565b005b606490602084519162461bcd60e51b8352820152600e60248201526d125b9d985b1a59081dd85b1b195d60921b6044820152fd5b82346103695761059c3661437b565b905f52600f602052815f20905f52602052805f20906105e9825491600184015493600360028201549101549151948594859094939260609260808301968352602083015260408201520152565b0390f35b8234610369575f36600319011261036957600c5490516001600160a01b039091168152602090f35b8234610369576106243661437b565b9161063960018060a01b035f541633146147c2565b81156108435761064a83151561483f565b6106568383141561487d565b815f526002602081815260ff835f20541660068110156107f5571561080857845f5281815260ff835f20541660068110156107f5576106969015156148c9565b835f52600e8152825f20855f52815260ff835f205416868110156107f55780159081156107ea575b50156107995782516106cf81614081565b828152818101838152855f52600e8352845f20875f528352845f20915188811015610786576106fe9083614926565b5196600388101561077357507fc5b2e1bd4433eb4e9e181cc803520513d39d918c96bddeebca1224e1c750963d9495966107379161493e565b85857f494d010fdf588a0e83d626ea6963187bdda6f88b7007f7bf280683d3f7dea8348580518681524286820152a382519182524290820152a3005b602190634e487b7160e01b5f525260245ffd5b602189634e487b7160e01b5f525260245ffd5b8560849184519162461bcd60e51b8352820152602660248201527f52656c6174696f6e7368697020616c726561647920616374697665206f722070604482015265656e64696e6760d01b6064820152fd5b6003915014876106be565b602187634e487b7160e01b5f525260245ffd5b8560649184519162461bcd60e51b83528201526016602482015275151c9d5cdd1bdc881b9bdd081c9959da5cdd195c995960521b6044820152fd5b5162461bcd60e51b8152602081850152600f60248201526e24b73b30b634b2103a393ab9ba37b960891b6044820152606490fd5b8234610369575f366003190112610369578051908183548082526020809201945f527f8a35acfbc15ff81a39ae7d344fd709f28e8600b4aa8c65c6b64bfe7fe36bd19b915f905b8282106108e0576105e986866108d6828b03836140e6565b51918291826142ae565b8354875295860195600193840193909101906108be565b8234610369576020906109093661437b565b905f52600f8352815f20905f528252805f20908051610927816140b0565b82549081815260606003600186015495868885015260028101548685015201549101521515918261095c575b50519015158152f35b421115915083610953565b9050346103695761097736614339565b91929061098661040833614d3d565b61099184151561495d565b6001600160a01b0316926109a68415156149a9565b6109b76109b2846150f1565b6149f5565b335f5260209160018352855f2054945f52855f2054926109d88415156145c7565b8451818601206109e88785614fe4565b5f526006825260ff6001895f2001541615610d6557835f5260078252875f2054151590610a1d610a16614a8f565b8987615149565b91610a30610a29614ab0565b8a88615149565b91610a3b8a886152e1565b90610a44614a8f565b8051908701208103610b8257505015610b28575015610ae6575b610a688484614fe4565b5f526006815260ff6001885f20015416610a885750506105579450614dcf565b865162461bcd60e51b815291820152603360248201527f54617267657420616c726561647920686173206120726f6c652e2055736520636044820152721a185b99d9549bdb194a0a481a5b9cdd195859606a1b606482015260849150fd5b865162461bcd60e51b815291820181905260248201527f4f6e6c79206f776e6572732063616e206772616e74206f776e657220726f6c65604482015260649150fd5b9050610a5e57865162461bcd60e51b815291820152602960248201527f4f6e6c792061646d696e6973747261746f72732063616e206772616e742066696044820152683939ba1037bbb732b960b91b606482015260849150fd5b909150610b8d614ab0565b8051908601208103610c175750508115610c0f575b50610a5e57865162461bcd60e51b815291820152603b60248201527f4f6e6c79206f776e65727320616e642061646d696e6973747261746f7273206360448201527f616e206772616e742061646d696e6973747261746f7220726f6c650000000000606482015260849150fd5b90505f610ba2565b610c229391936147a0565b85815191012014610c36575b505050610a5e565b80159081610d5e575b8015610d57575b15610cee5782610ce6575b5081610cdd575b50610c66575b5f8080610c2e565b610c708684615417565b51610c5e57865162461bcd60e51b815291820152603c60248201527f5375626a656374206d757374206861766520616e2061637469766520726f6c6560448201527f20746f206772616e7420766965776572207065726d697373696f6e7300000000606482015260849150fd5b9050155f610c58565b91505f610c51565b895162461bcd60e51b8152808601859052603e60248201527f4f6e6c79206f776e6572732c2061646d696e6973747261746f72732c206f722060448201527f7375626a656374732063616e206772616e742076696577657220726f6c6500006064820152608490fd5b5082610c46565b5081610c3f565b60648383808b519262461bcd60e51b845283015260248201527f596f752068617665206e6f20726f6c6520666f722074686973207265636f72646044820152fd5b82346103695780600319360112610369578135610dc161406b565b610dcc82151561495d565b6001600160a01b031692610de18415156149a9565b335f5260209260018452805f2054945f52805f205493610e028515156145c7565b610e0c8585614fe4565b805f5260068252610e2560ff6001855f20015416614a37565b805f5260068252610e37835f206143c9565b93845183860120610e46614a8f565b848151910120811461113757878903610f6f575b610e62614ab0565b84815191012014610eda575b5090839291610e9f7fd05ed2d3feff840c2ececa71791388fd3d19dbbbbcfa97031f534a7dc09fbf1f958888615018565b5f52600681526001825f200160ff198154169055600d81525f82812055610ecf825193838594855284019061446b565b9042908301520390a4005b855f52600883526001845f20541160078452845f205415158115610f67575b50610e6e57835162461bcd60e51b8152908101839052603960248201527f43616e6e6f74207265766f6b65206c6173742061646d696e6973747261746f7260448201527f20776974686f757420616e206f776e65722070726573656e74000000000000006064820152608490fd5b905089610ef9565b610f81610f7a614a8f565b8a89615149565b610f93610f8c614ab0565b8b8a615149565b845f52600d86528a875f20541490610fa96147a0565b8051908801208403611049578215611041575b508115611039575b5015610fd0575b610e5a565b845162461bcd60e51b8152808301859052603e60248201527f4f6e6c79206f776e6572732c2061646d696e6973747261746f72732c206f722060448201527f746865206772616e7465722063616e207265766f6b65207669657765727300006064820152608490fd5b90508a610fc4565b91508b610fbc565b82159291508261112f575b50156110d45715610e5a57611067614ab0565b8481519101208103610fcb57865f5260078452845f205415610fcb57845162461bcd60e51b8152808301859052602560248201527f4f6e6c79206f776e6572732063616e207265766f6b652061646d696e6973747260448201526461746f727360d81b6064820152608490fd5b855162461bcd60e51b8152808401869052602f60248201527f4f6e6c79206f776e65727320616e642061646d696e6973747261746f7273206360448201526e616e207265766f6b6520726f6c657360881b6064820152608490fd5b90508b611054565b845162461bcd60e51b8152808301859052604560248201527f4f776e6572732063616e6e6f74206265207265766f6b65642e204f776e65722060448201527f6d7573742075736520766f6c756e746172696c794c656176654f776e6572736860648201526434b814149760d91b608482015260a490fd5b9050346103695760209081600319360112610369578290355f5260038252805f208151928381835491828152019081935f52825f20905f5b81811061124057505050846111fc9103856140e6565b825181815293518185018190528493840192915f5b82811061122057505050500390f35b83516001600160a01b031685528695509381019392810192600101611211565b82546001600160a01b0316845292840192600192830192016111e6565b823461036957602036600319011261036957602091355f52600d8252805f20549051908152f35b8234610369576020366003190112610369576020906112a96112a4614055565b6153c1565b90519015158152f35b905034610369576112c23661437b565b6112d161040894929433614d3d565b335f52600193602093858552835f2054908282148015611579575b1561153857825f52600e8652845f20845f52865260ff9060ff865f2054168181101561152557886002821491821561151b575b5050156114ce5750908691835f52600e8752855f20855f528752855f2090600360ff19926003848254161790558387877f6df3a6475fab2eed139f7e469995b04e85bfc5b4b8642587109cb72541f74fae8c8c51428152a4855f5260108952875f20875f528952875f2088865f905b6113d5575b50505050505050505f5260108352815f20905f5282525f20908154915f8155826113b957005b5f525f20908101905b8181106113cb57005b5f815582016113c2565b8b8a84548310156114c757899389926113ee85886144c9565b905490891b1c918d5f5260118252805f20845f528252805f20835f528252805f208b815416905561141f8484614fe4565b5f526006908183528a88825f20015416156114bc577fd05ed2d3feff840c2ececa71791388fd3d19dbbbbcfa97031f534a7dc09fbf1f926114608686614fe4565b92835f52808252611472835f206143c9565b9361147e858989615018565b5f52815288825f20018d8154169055600d81525f828120556114a9825193838594855284019061446b565b9042908301520390a45b0189908761138e565b5050505050506114b3565b5050611393565b855162461bcd60e51b8152908101879052602160248201527f4e6f20616374697665206f722070656e64696e672072656c6174696f6e7368696044820152600760fc1b6064820152608490fd5b149050885f61131f565b602182634e487b7160e01b5f525260245ffd5b606490868087519262461bcd60e51b845283015260248201527f4e6f74206120706172747920746f20746869732072656c6174696f6e736869706044820152fd5b508382146112ec565b82346103695780600319360112610369576112a96020926115a161406b565b9035614d00565b8234610369576020366003190112610369577fce59ad7d6dabe8a7533ed7d9bd07d276a046ac7ac9a8e8e8971da4b81104a28b60206115e5614055565b5f546001600160a01b0391906115fe90831633146147c2565b169261160b841515614cc2565b600c80546001600160a01b0319168517905551428152a2005b8234610369576116333661437b565b905f526020906010602052825f20905f52602052815f209180519182602085549182815201945f5260205f20915f905b82821061167b576105e986866108d6828b03836140e6565b835487529586019560019384019390910190611663565b90503461036957602090602060031936011261036957355f526007602052815f209180519182602085549182815201945f5260205f20915f905b8282106116e4576105e986866108d6828b03836140e6565b8354875295860195600193840193909101906116cc565b8234610369575f366003190112610369576020906005549051908152f35b90503461036957602036600319011261036957611734614055565b5f546001600160a01b03919061174d90831633146147c2565b16805f5260019182602052611766845f205415156147fb565b815f528260205260ff83855f2001541661179557509181925f52816020525f20019060ff198254161790555f80f35b606490602085519162461bcd60e51b8352820152601560248201527457616c6c657420616c72656164792061637469766560581b6044820152fd5b8234610369576117df36614308565b9190926117ee61040833614d3d565b335f52600192602090848252835f205490805f52600e8352845f20825f528352845f209085519161181e83614081565b549460ff9261183060ff88168261490e565b61184360ff8783019860081c168861491a565b5198818a10156115255761185a60028a9b14614c51565b5f995b61186357005b80518a1015610557576118768a8261478c565b51998751600381101561197f57908b8886888e9f8f968f9061189b8e91868b9561536b565b956118a5876150f1565b15611972576118b48689614fe4565b5f526006918282528585855f2001541615611964576118d39089614fe4565b5f52525f2001541661195c576118ea918a84614dcf565b855f526011808a528b5f20895f528a528b5f20825f528a52878c5f20541615611918575b50505b019961185d565b865f5260108a528b5f20895f528a52611933828d5f2061472e565b865f5289528a5f20885f5289528a5f20905f528852895f208260ff198254161790558c8061190e565b505050611911565b505050505050505050611911565b5050505050505050611911565b602184634e487b7160e01b5f525260245ffd5b82346103695760209081600319360112610369578235916119b561040833614d3d565b335f5260018152815f205493835f52600e8252825f20855f528252825f209081549060ff82168181101561152557600103611a34575091611a2c60ff9260027fc5b2e1bd4433eb4e9e181cc803520513d39d918c96bddeebca1224e1c750963d969585191617809155845193849160081c16614513565b4290820152a3005b845162461bcd60e51b81529081018490526013602482015272139bc81c195b991a5b99c81c1c9bdc1bdcd85b606a1b6044820152606490fd5b8234610369575f3660031901126103695780516105e991611a8d82614081565b60058252640352e302e360dc1b60208301525191829160208352602083019061446b565b90503461036957611ac1366142e9565b91611ace61040833614d3d565b335f526001602052835f205490815f52600e602052845f20835f52602052845f20805460ff81168381101561197f5790611b0c600260ff9314614c51565b60081c1691600386101561077357600383101561077357858314611b7557507fb36ec3c738ef8ecd9180addc815304762374b76e91c2a321831d9906ea119ade611b6d859361055798611b6089889661493e565b5191829189429184614c9d565b0390a361520c565b606490602088519162461bcd60e51b8352820152601860248201527f416c72656164792074686973207472757374206c6576656c00000000000000006044820152fd5b823461036957602090611bd3611bcd3661437b565b90614fe4565b5f52600d8252805f20549051908152f35b82346103695760203660031901126103695781358254811015610369576020925f527f8a35acfbc15ff81a39ae7d344fd709f28e8600b4aa8c65c6b64bfe7fe36bd19b01549051908152f35b823461036957611c3f3661437b565b905f52600e602052815f20905f52602052805f2090805191611c6083614081565b5491611c6f60ff84168261490e565b611c8360ff602083019460081c168461491a565b51918383101561197f575192600384101561077357506105e9905192839283614520565b8234610369578060031936011261036957813590602435600681101561036957611cdb60018060a01b035f541633146147c2565b825f5260206002815260ff835f2054166006811015611de55715611dad57835f526002815260ff835f20541694600686101561077357828614611d76575090611d4991845f5260028152835f2060ff1981541660ff8416179055611d41845180976144f2565b8501906144f2565b42908301527ff6277c6ee46649823db9a5c531db3112b4340c67179cae1932ba3420dcc37cc760603393a3005b60649184519162461bcd60e51b83528201526013602482015272416c726561647920746869732073746174757360681b6044820152fd5b8460649184519162461bcd60e51b83528201526013602482015272155cd95c881b9bdd081c9959da5cdd195c9959606a1b6044820152fd5b602186634e487b7160e01b5f525260245ffd5b823461036957611e073661437b565b91905f526003602052805f20805483101561036957602092611e28916144c9565b60018060a01b0391549060031b1c169051908152f35b823461036957611e4d3661437b565b91905f526009602052805f2080548310156103695760209261035b916144c9565b823461036957602036600319011261036957606091355f526007602052805f2054906008602052805f2054906009602052805f20549181519384526020840152820152f35b8234610369576020366003190112610369576001600160a01b03611ed5614055565b165f526001602052805f2060ff6001825492015416825191825215156020820152f35b823461036957611f073661437b565b91905f526008602052805f2080548310156103695760209261035b916144c9565b905034610369575f366003190112610369577ff0c57e16840df040f15088dc2f81fe391c3923bec73e23a9662efc9c229c6a0090815460ff81851c1615916001600160401b0382168015908161203d575b6001149081612033575b15908161202a575b5061201c575067ffffffffffffffff198116600117835581611ffd575b505f80546001600160a01b03191633179055611fc057005b805468ff00000000000000001916905551600181527fc7f505b2f371ae2175ee4913f4499e1f2633a7b5936321eed1cdaeb6115181d290602090a1005b68ffffffffffffffffff1916680100000000000000011782555f611fa8565b845163f92ee8a960e01b8152fd5b9050155f611f8b565b303b159150611f83565b849150611f79565b8234610369576105e9906120583661437b565b905f52600e602052815f20905f52602052805f20549051918160ff80859460081c16911683614520565b8234610369575f36600319011261036957602090600b549051908152f35b8234610369576020366003190112610369576020906120bd614055565b5f5491906001600160a01b03808416917f38df5fa0f7fef0d515ca1f5388cb5790ac5885d5fca8d05d9f943e563c33a4b391906120fb3385146147c2565b1694859361210a851515614cc2565b51428152a36001600160a01b031916175f55005b9050346103695761212e36614339565b93909260018060a01b03612146815f541633146147c2565b61215184151561495d565b841661215e811515614b7d565b61216a6109b2876150f1565b5f52600160209181835261218c845f2054966121878815156147fb565b614d3d565b1561242d57845f5260078352835f2054158061241e575b156123db576121b28686614fe4565b91825f5260068452845f20926121c7846143c9565b9260ff8385511596015416928751916121df83614081565b8b835287830190828252845f5260068952895f2093518051916001600160401b0383116123c857506122118554614391565b601f8111612382575b508990601f831160011461231b5761226195949392915f9183612310575b50505f19600383901b1c191690831b1783555b51151591019060ff801983541691151516179055565b5f52600d84525f85812055155f146122e357509185917ff9d17eb1340ab78960b594ff8bed1349985b800ee21199c6d5ea4a67454593ad936122a55f98888861546e565b6122bd575b610ecf825193838594855284019061446b565b858752600a81526122d08583892061472e565b6122db600b5461476a565b600b556122aa565b95949392505084518186012090845190850120036122fd57005b61230b610557948383615018565b61546e565b015190505f80612238565b90601f19831691865f528b5f20925f5b8d82821061236e575050918695949291836122619998959310612356575b505050811b01835561224b565b01515f1960f88460031b161c191690555f8080612349565b83850151865594880194938401930161232b565b855f528a5f20601f840160051c8101918c85106123be575b601f0160051c019085905b8281106123b357505061221a565b5f81550185906123a5565b909150819061239a565b604190634e487b7160e01b5f525260245ffd5b835162461bcd60e51b8152908101839052601a60248201527f5265636f726420616c726561647920696e697469616c697a65640000000000006044820152606490fd5b5060088352835f2054156121a3565b835162461bcd60e51b8152908101839052601860248201527f4d75737420626520616e20616374697665206d656d62657200000000000000006044820152606490fd5b82346103695780600319360112610369576001600160401b03908235828111610369573660238201121561036957808401359283116103695760246005943660248660051b85010111610369575f546001600160a01b039660243595916124da90891633146147c2565b8615612635576124eb861515614bc2565b855f526002936020936002855260ff845f205416906006821015610773575015955f5b89811061251757005b8281851b83010135908b821691828103610369578261259d8c9261253e6001961515614b7d565b825f5261258e86808d526125558c5f205415614c05565b8b519061256182614081565b8682528d8181840191818352885f52528d5f209251835551151591019060ff801983541691151516179055565b835f5260038b52895f206146ac565b82158061262e575b1561260157815f52898952875f208a60ff198254161790556125c6826146e7565b6125d0875461476a565b87557f39d132591ee0696de49ab564e4a90e430c006561917db731a2a614dd2d245591898951428152a35b0161250e565b7f1cc138f50384be7770a8e4a34eecaa0d0c718bfaa1641af49db32532e4a5b910898951428152a36125fb565b508a6125a5565b815162461bcd60e51b81526020818501526013602482015272139bc81dd85b1b195d1cc81c1c9bdd9a591959606a1b6044820152606490fd5b90503461036957602090602060031936011261036957355f52600a602052815f209180519182602085549182815201945f5260205f20915f905b8282106126c0576105e986866108d6828b03836140e6565b8354875295860195600193840193909101906126a8565b8234610369576020906112a96126ec3661437b565b906152e1565b8234610369576127013661437b565b91905f526007602052805f2080548310156103695760209261035b916144c9565b8234610369576127313661437b565b905f52600e602052815f20905f52602052805f209080519161275283614081565b549161276160ff84168261490e565b61277560ff602083019460081c168461491a565b518381101561197f576002149182612794575b60208383519015158152f35b9091505191600383101561077357506002602092149083612788565b8234610369575f366003190112610369577f00000000000000000000000000000000000000000000000000000000000000006001600160a01b0316300361281a57602090517f360894a13ba1a3210667c828492db98dca3e2076cc3735a920a3ca505d382bbc8152f35b5163703e46dd60e11b8152fd5b823461036957612836366141e1565b9061284361040833614d3d565b6128508351835114614583565b335f52600193602091858352815f20549060018060a01b03165f52815f20549061287b8215156145c7565b865f96838314915b61288957005b805188101561055757888861289f829a8461478c565b516128aa828b61478c565b516128b4816150f1565b15612adc576128c38783614fe4565b5f526006808b5260ff80868c5f2001541615612ad3576128e38a85614fe4565b5f52818c52858b5f2001541615612acb576128fe8984614fe4565b5f528a5261290d895f206143c9565b9088888c8451818601208d85518387012090818314612a0b5761292e614a8f565b8481519101208314612a0b57885f52600784525f20541591821561295a612953614a8f565b878c615149565b9061296d612966614ab0565b888d615149565b90612976614a8f565b8051908801208503612a2d5715612a19575015612a0b575b612996614ab0565b8481519101201492836129f1575b5050816129e9575b50806129d1575b6129c7576129c0946151a7565b0197612883565b50505050506129c0565b505050825f5260088b528888868c5f205411156129b3565b90505f6129ac565b909192506129fd6147a0565b805191012014905f8f6129a4565b5050505050505050506129c0565b905061298e575050505050505050506129c0565b612a38929192614ab0565b8051908801208503612a6a5750159081612a61575b501561298e575050505050505050506129c0565b9050155f612a4d565b612a726147a0565b8781519101208514612a87575b50505061298e565b15612ab857159081612aa2575b50612a0b575b5f8080612a7f565b905080612ab1575b155f612a94565b508c612aaa565b50612a9a575050505050505050506129c0565b5050506129c0565b505050506129c0565b50506129c0565b90508160031936011261036957612af8614055565b916024356001600160401b038111610369573660238201121561036957612b28903690602481860135910161417e565b906001600160a01b037f00000000000000000000000000000000000000000000000000000000000000008116308114908115612cb2575b50612ca257612b72815f541633146147c2565b8416918151946352d1902d60e01b86526020868681875afa5f9681612c6e575b50612bae57505051634c9c8ce360e01b81529182015260249150fd5b838593877f360894a13ba1a3210667c828492db98dca3e2076cc3735a920a3ca505d382bbc90818103612c585750833b15612c415780546001600160a01b0319168317905551907fbc7cd75a20ee27fd9adebab32041f755214dbc6bffa90cc0225b39da2e5c2d3b5f80a2825115612c2b57506105579250615588565b91505034612c3557005b63b398979f60e01b8152fd5b8151634c9c8ce360e01b8152808701849052602490fd5b86602491845191632a87526960e21b8352820152fd5b9096506020813d602011612c9a575b81612c8a602093836140e6565b810103126103695751955f612b92565b3d9150612c7d565b815163703e46dd60e11b81528490fd5b9050817f360894a13ba1a3210667c828492db98dca3e2076cc3735a920a3ca505d382bbc541614155f612b5f565b90503461036957612cf0366142e9565b9190612cfe61040833614d3d565b335f526001602052835f205491815f52600e602052845f20835f52602052845f20805460ff81168381101561197f576002612d399114614c51565b6003861015612de25760081c60ff16916003831015610773578260ff87161015612d9357507fb36ec3c738ef8ecd9180addc815304762374b76e91c2a321831d9906ea119ade611b6d859361055798611b6089889661493e565b608490602088519162461bcd60e51b8352820152602360248201527f43616e206f6e6c7920646f776e677261646520746f2061206c6f776572206c656044820152621d995b60ea1b6064820152fd5b602183634e487b7160e01b5f525260245ffd5b905034610369578160031936011261036957612e0f614055565b916024359260018060a01b03612e29815f541633146147c2565b811692612e37841515614b7d565b612e42851515614bc2565b835f52612ea760209260018452612e5c855f205415614c05565b612e988551612e6a81614081565b8881526001868201818152895f52818852885f209251835551151591019060ff801983541691151516179055565b865f5260038452845f206146ac565b845f526002825260ff835f2054169060068210156107735750612f19577f39d132591ee0696de49ab564e4a90e430c006561917db731a2a614dd2d24559191845f5260028252805f20600260ff19825416179055612f04856146e7565b612f0f60055461476a565b60055551428152a3005b7f1cc138f50384be7770a8e4a34eecaa0d0c718bfaa1641af49db32532e4a5b9109151428152a3005b8234610369576020366003190112610369576020906112a9612187614055565b823461036957602090612f77611bcd3661437b565b5f52600682526105e9815f20918051612f8f81614081565b60ff6001612f9c866143c9565b958684520154161515948591015251928392836144a9565b8234610369578060031936011261036957612fdb6105e992612fd461406b565b9035614b05565b92909151928392836144a9565b90503461036957602090602060031936011261036957355f526008602052815f209180519182602085549182815201945f5260205f20915f905b82821061303a576105e986866108d6828b03836140e6565b835487529586019560019384019390910190613022565b8234610369576020906112a961306636614339565b91614ad9565b90503461036957602036600319011261036957355f526006602052805f206105e960ff600161309a846143c9565b930154169251928392836144a9565b8234610369576130b83661437b565b905f52600f602052815f20905f52602052805f20906105e960608251936130de856140b0565b805493848652600182015495866020820152600360028401549384848401520154938491015251948594859094939260609260808301968352602083015260408201520152565b8234610369576020806003193601126103695782359161314683151561495d565b335f5260018252805f20549361316461315d614a8f565b8686615149565b1561325557835f52600783526001825f20541160088452825f20541515811561324d575b50156131f25750907f68f37cc4a32f0b24153ce9237b344b20a9717039f90d7c24f35e5c217f03e168916131bc8585614fe4565b6131ce6131c7614a8f565b8787615018565b5f52600682526001815f200160ff198154169055600d82525f8181205551428152a3005b82608492519162461bcd60e51b8352820152603160248201527f43616e6e6f74206c65617665206173206c617374206f776e65722077697468206044820152706e6f2061646d696e6973747261746f727360781b6064820152fd5b905086613188565b82608492519162461bcd60e51b8352820152602360248201527f596f7520617265206e6f7420616e206f776e6572206f662074686973207265636044820152621bdc9960ea1b6064820152fd5b905034610369576132b236614339565b9192906132c161040833614d3d565b6132cc84151561495d565b6001600160a01b03166132e08115156149a9565b6132ec6109b2846150f1565b335f5260209360018552855f2054915f52855f20549261330d8415156145c7565b8451868601209561331e8584614fe4565b805f526006825261333760ff60018b5f20015416614a37565b5f5260068152613348885f206143c9565b968751828901209080821461374e5761335f614a8f565b83815191012082146136d957845f5260078352895f20541591821561338c613385614a8f565b8989615149565b9061339f613398614ab0565b8a8a615149565b906133a8614a8f565b805190880120850361352357156134c6575015613485575b6133c8614ab0565b84815191012014908161346e575b506133e9575b50505061055795506151a7565b6133f4575b806133dc565b825f52600881526001885f2054116133ee57875162461bcd60e51b815291820152603960248201527f43616e6e6f742064656d6f746520746865206c6173742061646d696e6973747260448201527f61746f72207768656e206e6f206f776e65722065786973747300000000000000606482015260849150fd5b90506134786147a0565b838151910120145f6133d6565b60648585808e519262461bcd60e51b845283015260248201527f4f6e6c79206f776e6572732063616e2070726f6d6f746520746f206f776e65726044820152fd5b90506133c0578a5162461bcd60e51b8152808601859052602b60248201527f4f6e6c792061646d696e6973747261746f72732063616e2070726f6d6f74652060448201526a3334b939ba1037bbb732b960a91b6064820152608490fd5b61352b614ab0565b80519088012085036135b5575081156135ad575b506133c0578a5162461bcd60e51b8152808601859052603b60248201527f4f6e6c79206f776e65727320616e642061646d696e6973747261746f7273206360448201527f616e2070726f6d6f746520746f2061646d696e6973747261746f7200000000006064820152608490fd5b90505f61353f565b6135bd6147a0565b87815191012085146135d2575b5050506133c0565b1561367f578115613668575b50156135ed575b5f80806135ca565b8a5162461bcd60e51b8152808601859052604960248201527f4f6e6c79206f776e6572732063616e2064656d6f7465206f74686572732e204160448201527f646d696e6973747261746f72732063616e206f6e6c792064656d6f746520746860648201526832b6b9b2b63b32b99760b91b608482015260a490fd5b905080613676575b5f6135de565b50878714613670565b90506135e5578a5162461bcd60e51b8152808601859052602860248201527f4f6e6c792061646d696e6973747261746f72732063616e2064656d6f7465207460448201526737903b34b2bbb2b960c11b6064820152608490fd5b895162461bcd60e51b8152808501849052604360248201527f4f776e6572732063616e6e6f742062652064656d6f7465642e204f776e65722060448201527f6d75737420766f6c756e746172696c792072656d6f7665207468656d73656c7660648201526232b99760e91b608482015260a490fd5b895162461bcd60e51b8152808501849052601c60248201527f54617267657420616c726561647920686173207468697320726f6c65000000006044820152606490fd5b8234610369576020366003190112610369576020906112a96137b1614055565b61509b565b8234610369576137c536614308565b6137d461040893929333614d3d565b335f526001928392602090848252805f2054926137f38151151561466a565b5f955b6137fc57005b80518610156105575786868686613814849a8661478c565b51805f52600f8852865f20835f528852865f208751613832816140b0565b815490818152878301548b82015260606003600285015494858d85015201549101521561392c5761386b613864614a8f565b8484615149565b908115613919575b8314159081613910575b506139085761388c8382614fe4565b805f52600690818a5260ff878a5f200154166138d5575b50507fa232dcffab2d4f0f085a4d88bc617cd25ded7d3b8d8952e99d788ca25d4435b0888851428152a45b01956137f6565b6138e76138e06147a0565b8685615018565b5f52885284875f200160ff198154169055600d88525f878120558c806138a3565b5050506138ce565b9050158d61387d565b9050613926613864614ab0565b90613873565b505050506138ce565b823461036957613944366142e9565b909161395261040833614d3d565b335f5260209160018352815f20549261396c85151561483f565b6139788585141561487d565b845f526002815260ff835f20541660068110156107f55761399a9015156148c9565b835f52600e8152825f20855f52815260ff835f205416868110156107f5578015908115613a91575b5015613a4f5782516139d381614081565b600181528181016139e4848261491a565b855f52600e8352845f20875f528352845f2091518881101561078657613a0a9083614926565b5196600388101561077357507f494d010fdf588a0e83d626ea6963187bdda6f88b7007f7bf280683d3f7dea834949596613a439161493e565b611a2c83518093614513565b8560649184519162461bcd60e51b8352820152601760248201527f50726f706f73616c20616c7265616479206578697374730000000000000000006044820152fd5b6003915014876139c2565b823461036957602036600319011261036957613ab6614055565b5f546001600160a01b039190613acf90831633146147c2565b16805f526001602052613ae6825f205415156147fb565b805f52600160205260ff6001835f2001541615613b1657600192505f52816020525f200160ff1981541690555f80f35b815162461bcd60e51b8152602081850152601760248201527f57616c6c657420616c726561647920696e6163746976650000000000000000006044820152606490fd5b82346103695760a03660031901126103695781356001600160401b03811161036957613b88903690840161411e565b90613b9161406b565b6044359160643593608435613ba861040833614d3d565b335f52600195602091878352845f205495613bc58551151561466a565b6001600160a01b038116908115613e84578815613e4e578215613e0b57815f5289855288875f205480155f14613da1575050613c37613c46928b895191613c0b83614081565b8c8352888301908282525f528189528a5f209251835551151591019060ff801983541691151516179055565b885f5260038552865f206146ac565b865f5260028352845f20600560ff19825416179055613c64876146e7565b613c6f60055461476a565b6005555b420192834211613d8e578798505f975b613c8957005b80518810156105575788888888613ca1849c8661478c565b51613cac8282614fe4565b5f5289888a60068083528a60ff94858b825f2001541615613d80577f140d483f221b1b41aa3142be8c182589305145aafe83bed53b908d6baff35c1d95600393613cf68b8a614fe4565b5f5286528b825f2001541615613d68575b805193613d13856140b0565b42855285850190815281850191898352606096878701948552895f52600f8152815f20908c5f52525f2094518555518b850155516002840155519101558b518981528b8b820152428d820152a45b0197613c83565b613d7b88613d746147a0565b8b8a614dcf565b613d07565b505050505050505050613d61565b601189634e487b7160e01b5f525260245ffd5b149150613c73905057845162461bcd60e51b8152808a01849052603560248201527f47756573742077616c6c657420616c7265616479207265676973746572656420604482015274746f20646966666572656e74206964656e7469747960581b6064820152608490fd5b865162461bcd60e51b8152808c01869052601960248201527f4475726174696f6e206d75737420626520706f736974697665000000000000006044820152606490fd5b865162461bcd60e51b8152808c01869052601060248201526f125b9d985b1a590819dd595cdd08125160821b6044820152606490fd5b865162461bcd60e51b8152808c018690526014602482015273125b9d985b1a590819dd595cdd081dd85b1b195d60621b6044820152606490fd5b82346103695780600319360112610369576112a9602092613edd61406b565b9035614613565b90503461036957602090602060031936011261036957355f526009602052815f209180519182602085549182815201945f5260205f20915f905b828210613f36576105e986866108d6828b03836140e6565b835487529586019560019384019390910190613f1e565b823461036957613f5c366141e1565b929190613f6b61040833614d3d565b613f788251855114614583565b335f5260019384936001602052805f20549260018060a01b03165f525f2054613fa28115156145c7565b5f945b613fab57005b8351851015610557578585613fca613fc483988661478c565b516150f1565b1561401c57613fdd85610467838961478c565b1561401c57613ff083610467838961478c565b61401c5761401585614002838961478c565b518561400e858961478c565b5191614dcf565b0194613fa5565b614015565b839034610369576020366003190112610369576020916001600160a01b03614047614055565b165f52600183525f20548152f35b600435906001600160a01b038216820361036957565b602435906001600160a01b038216820361036957565b604081019081106001600160401b0382111761409c57604052565b634e487b7160e01b5f52604160045260245ffd5b608081019081106001600160401b0382111761409c57604052565b602081019081106001600160401b0382111761409c57604052565b90601f801991011681019081106001600160401b0382111761409c57604052565b6001600160401b03811161409c5760051b60200190565b9080601f8301121561036957602090823561413881614107565b9361414660405195866140e6565b81855260208086019260051b82010192831161036957602001905b82821061416f575050505090565b81358152908301908301614161565b9291926001600160401b03821161409c57604051916141a7601f8201601f1916602001846140e6565b829481845281830111610369578281602093845f960137010152565b9080601f83011215610369578160206141de9335910161417e565b90565b6060600319820112610369576001600160401b0391600435838111610369578261420d9160040161411e565b9260249283356001600160a01b0381168103610369579360443592808411610369578260238501121561036957836004013561424881614107565b9461425660405196876140e6565b8186526020946024602088019360051b830101948186116103695760248301935b86851061428957505050505050505090565b84358681116103695788916142a3858585948901016141c3565b815201940193614277565b60209060206040818301928281528551809452019301915f5b8281106142d5575050505090565b8351855293810193928101926001016142c7565b6040906003190112610369576004359060243560038110156103695790565b604060031982011261036957600435906001600160401b038211610369576143329160040161411e565b9060243590565b606060031982011261036957600435916024356001600160a01b03811681036103695791604435906001600160401b038211610369576141de916004016141c3565b6040906003190112610369576004359060243590565b90600182811c921680156143bf575b60208310146143ab57565b634e487b7160e01b5f52602260045260245ffd5b91607f16916143a0565b9060405191825f82546143db81614391565b908184526020946001916001811690815f14614449575060011461440b575b505050614409925003836140e6565b565b5f90815285812095935091905b81831061443157505061440993508201015f80806143fa565b85548884018501529485019487945091830191614418565b9250505061440994925060ff191682840152151560051b8201015f80806143fa565b91908251928382525f5b848110614495575050825f602080949584010152601f8019910116010190565b602081830181015184830182015201614475565b906144c160209194939460408452604084019061446b565b931515910152565b80548210156144de575f5260205f2001905f90565b634e487b7160e01b5f52603260045260245ffd5b9060068210156144ff5752565b634e487b7160e01b5f52602160045260245ffd5b9060038210156144ff5752565b909291604082019360048110156144ff5782526144099160200190614513565b1561454757565b60405162461bcd60e51b81526020600482015260146024820152732737ba1030b71030b1ba34bb329036b2b6b132b960611b6044820152606490fd5b1561458a57565b60405162461bcd60e51b8152602060048201526015602482015274082e4e4c2f240d8cadccee8d040dad2e6dac2e8c6d605b1b6044820152606490fd5b156145ce57565b60405162461bcd60e51b815260206004820152601c60248201527f5461726765742077616c6c6574206e6f742072656769737465726564000000006044820152606490fd5b6001600160a01b039091165f908152600160205260409020549081156146645761464561463e614a8f565b8383615149565b91821561465157505090565b6141de925061465e614ab0565b91615149565b50505f90565b1561467157565b60405162461bcd60e51b8152602060048201526013602482015272139bc81c9958dbdc991cc81c1c9bdd9a591959606a1b6044820152606490fd5b8054600160401b81101561409c576146c9916001820181556144c9565b60018060a09493941b038084549260031b9316831b921b1916179055565b600454600160401b81101561409c5760018101806004558110156144de5760045f527f8a35acfbc15ff81a39ae7d344fd709f28e8600b4aa8c65c6b64bfe7fe36bd19b0155565b805490600160401b82101561409c5781614750916001614766940181556144c9565b819391549060031b91821b915f19901b19161790565b9055565b5f1981146147785760010190565b634e487b7160e01b5f52601160045260245ffd5b80518210156144de5760209160051b010190565b604051906147ad82614081565b60068252653b34b2bbb2b960d11b6020830152565b156147c957565b60405162461bcd60e51b815260206004820152600a60248201526927b7363c9030b236b4b760b11b6044820152606490fd5b1561480257565b60405162461bcd60e51b815260206004820152601560248201527415d85b1b195d081b9bdd081c9959da5cdd195c9959605a1b6044820152606490fd5b1561484657565b60405162461bcd60e51b815260206004820152600f60248201526e496e76616c6964207472757374656560881b6044820152606490fd5b1561488457565b60405162461bcd60e51b815260206004820152601760248201527f43616e6e6f74206170706f696e7420796f757273656c660000000000000000006044820152606490fd5b156148d057565b60405162461bcd60e51b8152602060048201526016602482015275151c9d5cdd1959481b9bdd081c9959da5cdd195c995960521b6044820152606490fd5b60048210156144ff5752565b60038210156144ff5752565b9060048110156144ff5760ff80198354169116179055565b9060038110156144ff5761ff0082549160081b169061ff001916179055565b1561496457565b60405162461bcd60e51b815260206004820152601e60248201527f5265636f726420494420686173682063616e6e6f7420626520656d70747900006044820152606490fd5b156149b057565b60405162461bcd60e51b815260206004820152601d60248201527f57616c6c657420616464726573732063616e6e6f74206265207a65726f0000006044820152606490fd5b156149fc57565b60405162461bcd60e51b8152602060048201526013602482015272496e76616c696420726f6c6520737472696e6760681b6044820152606490fd5b15614a3e57565b60405162461bcd60e51b815260206004820152602360248201527f54617267657420646f6573206e6f74206861766520616e2061637469766520726044820152626f6c6560e81b6064820152608490fd5b60405190614a9c82614081565b600582526437bbb732b960d91b6020830152565b60405190614abd82614081565b600d82526c30b236b4b734b9ba3930ba37b960991b6020830152565b919060018060a01b03165f52600160205260405f20548015614afe576141de92615149565b5050505f90565b6001600160a01b039091165f90815260016020526040902054908115614b675760209291614b3291614fe4565b5f526006825260405f20604051614b4881614081565b60ff6001614b55846143c9565b93848452015416151593849101529190565b5050604051614b75816140cb565b5f8152905f90565b15614b8457565b60405162461bcd60e51b8152602060048201526016602482015275496e76616c69642077616c6c6574206164647265737360501b6044820152606490fd5b15614bc957565b60405162461bcd60e51b8152602060048201526014602482015273092dcecc2d8d2c840eae6cae440928840d0c2e6d60631b6044820152606490fd5b15614c0c57565b60405162461bcd60e51b815260206004820152601960248201527f57616c6c657420616c72656164792072656769737465726564000000000000006044820152606490fd5b15614c5857565b60405162461bcd60e51b815260206004820152601e60248201527f4e6f2061637469766520747275737465652072656c6174696f6e7368697000006044820152606490fd5b614cbe604092959493614cb4836060810198614513565b6020830190614513565b0152565b15614cc957565b60405162461bcd60e51b815260206004820152600f60248201526e496e76616c6964206164647265737360881b6044820152606490fd5b6001600160a01b039091165f90815260016020526040902054801561466457614d2891614fe4565b5f52600660205260ff600160405f2001541690565b6001600160a01b03165f9081526001602052604090208054908115908115614db5575b50614db0575f52600260205260ff60405f205416600681101590816144ff5760028114918215614da3575b8215614d9657505090565b9091506144ff5760041490565b506003811491505f614d8b565b505f90565b60ff91506001015416155f614d60565b90614d2891614fe4565b929192614ddc8282614fe4565b93845f52602060068152604090815f2096614df6886143c9565b978851159160ff6001809301541691855190614e1182614081565b878252858201818152835f5260068752875f2092518051906001600160401b03821161409c57614e418554614391565b601f8111614f9e575b508890601f8311600114614f5057614e8f95949392915f91836123105750505f19600383901b1c191690831b17835551151591019060ff801983541691151516179055565b5f52600d835287845f2055155f14614f1b5785969750614ed28486977ff9d17eb1340ab78960b594ff8bed1349985b800ee21199c6d5ea4a67454593ad9761546e565b614ef5575b614eea825193838594855284019061446b565b9042908301520390a4565b855f52600a8152614f0885835f2061472e565b614f13600b5461476a565b600b55614ed7565b50919450508451818601209084519085012003614f39575b50505050565b61230b614f47948383615018565b5f808080614f33565b90601f19831691865f528a5f20925f5b8c828210614f8a57505091869594929183614e8f999895931061235657505050811b01835561224b565b838501518655948801949384019301614f60565b855f52895f20601f840160051c8101918b8510614fda575b601f0160051c019085905b828110614fcf575050614e4a565b5f8155018590614fc1565b9091508190614fb6565b906040519060208201928352604082015260408152606081018181106001600160401b0382111761409c5760405251902090565b8251602080940120615028614a8f565b80519085012081036150485750614409926007915f525260405f206154f1565b615050614ab0565b80519085012081036150705750614409926008915f525260405f206154f1565b6150786147a0565b8481519101201461508857505050565b614409926009915f525260405f206154f1565b6001600160a01b03165f90815260016020526040902080549081159081156150e1575b50614db0575f52600260205260ff60405f20541660068110156144ff5760041490565b60ff91506001015416155f6150be565b60208151910120615100614a8f565b602081519101208114908115615130575b811561511b575090565b90506151256147a0565b602081519101201490565b905061513a614ab0565b60208151910120811490615111565b6020929161515691614fe4565b5f526006825260405f2060405161516c81614081565b60ff6001615179846143c9565b93848452015416151593849101528261519157505090565b9091506020815191012090602081519101201490565b91927f3af67cf2057ba8ef414286fb626cd3efb02f74996e18efd455b39d8ec7ec460f91946152016151f3926151df88828989614dcf565b60405193849360608552606085019061446b565b90838203602085015261446b565b4260408301520390a4565b929190835f526020906010825260409060405f20815f52835260405f20955f5b87548110156152d757806152426001928a6144c9565b90549060031b1c6152538582614fe4565b5f52600680885260ff84885f20015416156152d05761527389868461536b565b9061527d826150f1565b156152c85761528c8784614fe4565b5f52885261529b875f206143c9565b90868683518b85012083518c850120146152be576152b8946151a7565b0161522c565b50505050506152b8565b5050506152b8565b50506152b8565b5050505050509050565b600c546001600160a01b0316918215614afe576044602092604051948593849263193d8e7560e21b8452600484015260248301525afa908115615360575f91615328575090565b90506020813d602011615358575b81615343602093836140e6565b81010312610369575180151581036103695790565b3d9150615336565b6040513d5f823e3d90fd5b60038310156144ff5782156153b65760019161538691615417565b911461538f5790565b8051602082012061539e614a8f565b60208151910120146153ad5790565b506141de614ab0565b5050506141de6147a0565b6001600160a01b03165f9081526001602052604090208054908115908115615407575b50614db0575f52600260205260ff60405f20541660068110156144ff5760031490565b60ff91506001015416155f6153e4565b9061542191614fe4565b5f52600660205260405f2060ff60016040519261543d84614081565b615446816143c9565b8452015416158015602083015261545b575190565b50604051615468816140cb565b5f815290565b825160208094012061547e614a8f565b805190850120810361549e5750614409926007915f525260405f2061472e565b6154a6614ab0565b80519085012081036154c65750614409926008915f525260405f2061472e565b6154ce6147a0565b848151910120146154de57505050565b614409926009915f525260405f2061472e565b5f5b81549081811015614f3357839161550a82856144c9565b959054600396871b1c1461552457509092506001016154f3565b5f1992508281019081116147785761475061554261554f92866144c9565b905490871b1c92856144c9565b9055815480156155745781019261556684846144c9565b81939154921b1b1916905555565b634e487b7160e01b5f52603160045260245ffd5b905f8091602081519101845af48080615606575b156155bc5750506040513d81523d5f602083013e60203d82010160405290565b156155e357604051639996b31560e01b81526001600160a01b039091166004820152602490fd5b3d156155f4576040513d5f823e3d90fd5b60405163d6bda27560e01b8152600490fd5b503d15158061559c5750813b151561559c56fea264697066735822122077dd43c84a8dbe34a951d978f92e6285b79fd0bc292522b6026af64e856bff0064736f6c63430008180033","opcodes":"PUSH1 0xA0 DUP1 PUSH1 0x40 MSTORE CALLVALUE PUSH3 0xD1 JUMPI ADDRESS PUSH1 0x80 MSTORE PUSH32 0xF0C57E16840DF040F15088DC2F81FE391C3923BEC73E23A9662EFC9C229C6A00 SWAP1 DUP2 SLOAD SWAP1 PUSH1 0xFF DUP3 PUSH1 0x40 SHR AND PUSH3 0xC2 JUMPI POP PUSH1 0x1 PUSH1 0x1 PUSH1 0x40 SHL SUB PUSH1 0x2 PUSH1 0x1 PUSH1 0x40 SHL SUB NOT DUP3 DUP3 AND ADD PUSH3 0x7C JUMPI JUMPDEST PUSH1 0x40 MLOAD PUSH2 0x564F SWAP1 DUP2 PUSH3 0xD6 DUP3 CODECOPY PUSH1 0x80 MLOAD DUP2 DUP2 DUP2 PUSH2 0x27C3 ADD MSTORE PUSH2 0x2B33 ADD MSTORE RETURN JUMPDEST PUSH1 0x1 PUSH1 0x1 PUSH1 0x40 SHL SUB NOT SWAP1 SWAP2 AND DUP2 OR SWAP1 SWAP2 SSTORE PUSH1 0x40 MLOAD SWAP1 DUP2 MSTORE PUSH32 0xC7F505B2F371AE2175EE4913F4499E1F2633A7B5936321EED1CDAEB6115181D2 SWAP1 PUSH1 0x20 SWAP1 LOG1 PUSH0 DUP1 DUP1 PUSH3 0x5C JUMP JUMPDEST PUSH4 0xF92EE8A9 PUSH1 0xE0 SHL DUP2 MSTORE PUSH1 0x4 SWAP1 REVERT JUMPDEST PUSH0 DUP1 REVERT INVALID PUSH1 0x80 PUSH1 0x40 SWAP1 DUP1 DUP3 MSTORE PUSH1 0x4 DUP1 CALLDATASIZE LT ISZERO PUSH2 0x15 JUMPI PUSH0 DUP1 REVERT JUMPDEST PUSH0 CALLDATALOAD PUSH1 0xE0 SHR SWAP2 DUP3 PUSH3 0xB0C809 EQ PUSH2 0x4021 JUMPI POP DUP2 PUSH4 0x2BA8109 EQ PUSH2 0x3F4D JUMPI DUP2 PUSH4 0x33E822F EQ PUSH2 0x3EE4 JUMPI DUP2 PUSH4 0x519E2A0 EQ PUSH2 0x3EBE JUMPI DUP2 PUSH4 0x591BDF4 EQ PUSH2 0x3B59 JUMPI DUP2 PUSH4 0xB3FFD1D EQ PUSH2 0x3A9C JUMPI DUP2 PUSH4 0x1C0C18D8 EQ PUSH2 0x3935 JUMPI DUP2 PUSH4 0x1DC63201 EQ PUSH2 0x37B6 JUMPI DUP2 PUSH4 0x259ED80E EQ PUSH2 0x3791 JUMPI DUP2 PUSH4 0x29C9087A EQ PUSH2 0x32A2 JUMPI DUP2 PUSH4 0x2AE8511D EQ PUSH2 0x3125 JUMPI DUP2 PUSH4 0x3256E5AB EQ PUSH2 0x30A9 JUMPI DUP2 PUSH4 0x33105592 EQ PUSH2 0x306C JUMPI DUP2 PUSH4 0x3BEFA410 EQ PUSH2 0x3051 JUMPI DUP2 PUSH4 0x41A51BAA EQ PUSH2 0x2FE8 JUMPI DUP2 PUSH4 0x422A5BB8 EQ PUSH2 0x2FB4 JUMPI DUP2 PUSH4 0x43E19704 EQ PUSH2 0x2F62 JUMPI DUP2 PUSH4 0x45ECD02F EQ PUSH2 0x2F42 JUMPI DUP2 PUSH4 0x49DF7208 EQ PUSH2 0x2DF5 JUMPI DUP2 PUSH4 0x4B6FEB7C EQ PUSH2 0x2082 JUMPI DUP2 PUSH4 0x4D3C4A7C EQ PUSH2 0x2CE0 JUMPI DUP2 PUSH4 0x4F1EF286 EQ PUSH2 0x2AE3 JUMPI DUP2 PUSH4 0x51EED472 EQ PUSH2 0x2827 JUMPI DUP2 PUSH4 0x52D1902D EQ PUSH2 0x27B0 JUMPI DUP2 PUSH4 0x557EE54F EQ PUSH2 0x2722 JUMPI DUP2 PUSH4 0x55816079 EQ PUSH2 0x26F2 JUMPI DUP2 PUSH4 0x562C788E EQ PUSH2 0x5ED JUMPI DUP2 PUSH4 0x64F639D4 EQ PUSH2 0x26D7 JUMPI DUP2 PUSH4 0x6544B05B EQ PUSH2 0x266E JUMPI DUP2 PUSH4 0x69AC2022 EQ PUSH2 0x2470 JUMPI DUP2 PUSH4 0x6B4BED97 EQ PUSH2 0x394 JUMPI DUP2 PUSH4 0x726D5447 EQ PUSH2 0x211E JUMPI DUP2 PUSH4 0x75829DEF EQ PUSH2 0x20A0 JUMPI DUP2 PUSH4 0x790E118C EQ PUSH2 0x2082 JUMPI DUP2 PUSH4 0x7B657D07 EQ PUSH2 0x2045 JUMPI DUP2 PUSH4 0x8129FC1C EQ PUSH2 0x1F28 JUMPI DUP2 PUSH4 0x8776CD35 EQ PUSH2 0x1EF8 JUMPI DUP2 PUSH4 0x89B08F11 EQ PUSH2 0x1EB3 JUMPI DUP2 PUSH4 0x8DB7EDB4 EQ PUSH2 0x1E6E JUMPI DUP2 PUSH4 0x93CCFBA8 EQ PUSH2 0x1E3E JUMPI DUP2 PUSH4 0x9443CD80 EQ PUSH2 0x1DF8 JUMPI DUP2 PUSH4 0x96207E02 EQ PUSH2 0x1CA7 JUMPI DUP2 PUSH4 0x9915B91F EQ PUSH2 0x1C30 JUMPI DUP2 PUSH4 0x9BE572F6 EQ PUSH2 0x16FB JUMPI DUP2 PUSH4 0x9F4216E8 EQ PUSH2 0x1BE4 JUMPI DUP2 PUSH4 0xAADDC345 EQ PUSH2 0x1BB8 JUMPI DUP2 PUSH4 0xAB48384A EQ PUSH2 0x1AB1 JUMPI DUP2 PUSH4 0xAD3CB1CC EQ PUSH2 0x1A6D JUMPI DUP2 PUSH4 0xB8CAB84B EQ PUSH2 0x1992 JUMPI DUP2 PUSH4 0xBAFC8892 EQ PUSH2 0x17D0 JUMPI DUP2 PUSH4 0xBB0F86D5 EQ PUSH2 0x1719 JUMPI DUP2 PUSH4 0xBFF1F9E1 EQ PUSH2 0x16FB JUMPI DUP2 PUSH4 0xC36DC9EF EQ PUSH2 0x1692 JUMPI DUP2 PUSH4 0xC497D840 EQ PUSH2 0x1624 JUMPI DUP2 PUSH4 0xC7155823 EQ PUSH2 0x15A8 JUMPI DUP2 PUSH4 0xC88C35FE EQ PUSH2 0x1582 JUMPI DUP2 PUSH4 0xC979C9BF EQ PUSH2 0x12B2 JUMPI DUP2 PUSH4 0xCB261A03 EQ PUSH2 0x1284 JUMPI DUP2 PUSH4 0xCDA06C6E EQ PUSH2 0x125D JUMPI DUP2 PUSH4 0xD12A7768 EQ PUSH2 0x11AE JUMPI DUP2 PUSH4 0xD547741F EQ PUSH2 0xDA6 JUMPI DUP2 PUSH4 0xDDE492EA EQ PUSH2 0x967 JUMPI DUP2 PUSH4 0xE211E89C EQ PUSH2 0x8F7 JUMPI DUP2 PUSH4 0xE2842D79 EQ PUSH2 0x877 JUMPI DUP2 PUSH4 0xE6EFCD5D EQ PUSH2 0x615 JUMPI DUP2 PUSH4 0xE94ED257 EQ PUSH2 0x5ED JUMPI DUP2 PUSH4 0xEEC047AA EQ PUSH2 0x58D JUMPI DUP2 PUSH4 0xF12B9AD3 EQ PUSH2 0x3C5 JUMPI DUP2 PUSH4 0xF29E007B EQ PUSH2 0x394 JUMPI POP DUP1 PUSH4 0xF851A440 EQ PUSH2 0x36D JUMPI PUSH4 0xFA7A6BCC EQ PUSH2 0x32C JUMPI PUSH0 DUP1 REVERT JUMPDEST CALLVALUE PUSH2 0x369 JUMPI PUSH2 0x33A CALLDATASIZE PUSH2 0x437B JUMP JUMPDEST SWAP2 SWAP1 PUSH0 MSTORE PUSH1 0xA PUSH1 0x20 MSTORE DUP1 PUSH0 KECCAK256 DUP1 SLOAD DUP4 LT ISZERO PUSH2 0x369 JUMPI PUSH1 0x20 SWAP3 PUSH2 0x35B SWAP2 PUSH2 0x44C9 JUMP JUMPDEST SWAP2 SWAP1 SLOAD SWAP1 MLOAD SWAP2 PUSH1 0x3 SHL SHR DUP2 MSTORE RETURN JUMPDEST PUSH0 DUP1 REVERT JUMPDEST POP CALLVALUE PUSH2 0x369 JUMPI PUSH0 CALLDATASIZE PUSH1 0x3 NOT ADD SLT PUSH2 0x369 JUMPI PUSH0 SLOAD SWAP1 MLOAD PUSH1 0x1 PUSH1 0x1 PUSH1 0xA0 SHL SUB SWAP1 SWAP2 AND DUP2 MSTORE PUSH1 0x20 SWAP1 RETURN JUMPDEST DUP3 CALLVALUE PUSH2 0x369 JUMPI PUSH1 0x20 CALLDATASIZE PUSH1 0x3 NOT ADD SLT PUSH2 0x369 JUMPI PUSH1 0x20 SWAP2 CALLDATALOAD PUSH0 MSTORE PUSH1 0x2 DUP3 MSTORE PUSH2 0x3C3 PUSH1 0xFF DUP3 PUSH0 KECCAK256 SLOAD AND SWAP2 MLOAD DUP1 SWAP3 PUSH2 0x44F2 JUMP JUMPDEST RETURN JUMPDEST DUP3 CALLVALUE PUSH2 0x369 JUMPI DUP1 PUSH1 0x3 NOT CALLDATASIZE ADD SLT PUSH2 0x369 JUMPI DUP2 CALLDATALOAD PUSH1 0x1 PUSH1 0x1 PUSH1 0x40 SHL SUB DUP2 GT PUSH2 0x369 JUMPI PUSH2 0x3F3 SWAP1 CALLDATASIZE SWAP1 DUP5 ADD PUSH2 0x411E JUMP JUMPDEST SWAP2 PUSH2 0x3FC PUSH2 0x406B JUMP JUMPDEST PUSH2 0x40D PUSH2 0x408 CALLER PUSH2 0x4D3D JUMP JUMPDEST PUSH2 0x4540 JUMP JUMPDEST PUSH1 0x1 PUSH1 0x1 PUSH1 0xA0 SHL SUB AND SWAP1 DUP2 ISZERO PUSH2 0x559 JUMPI POP CALLER PUSH0 MSTORE PUSH1 0x1 SWAP3 DUP4 SWAP3 PUSH1 0x20 SWAP1 PUSH1 0x1 DUP3 MSTORE DUP1 PUSH0 KECCAK256 SLOAD SWAP4 PUSH0 MSTORE DUP1 PUSH0 KECCAK256 SLOAD SWAP3 PUSH2 0x444 DUP5 ISZERO ISZERO PUSH2 0x45C7 JUMP JUMPDEST PUSH0 SWAP6 JUMPDEST PUSH2 0x44D JUMPI STOP JUMPDEST DUP1 MLOAD DUP7 LT ISZERO PUSH2 0x557 JUMPI DUP7 DUP7 PUSH2 0x46D DUP7 PUSH2 0x467 DUP5 SWAP11 DUP7 PUSH2 0x478C JUMP JUMPDEST MLOAD PUSH2 0x4DC5 JUMP JUMPDEST ISZERO PUSH2 0x552 JUMPI PUSH2 0x480 DUP8 PUSH2 0x467 DUP4 DUP7 PUSH2 0x478C JUMP JUMPDEST ISZERO PUSH2 0x552 JUMPI DUP7 DUP7 PUSH2 0x49B DUP2 PUSH2 0x495 DUP6 DUP9 PUSH2 0x478C JUMP JUMPDEST MLOAD PUSH2 0x4FE4 JUMP JUMPDEST DUP1 PUSH0 MSTORE PUSH1 0x6 DUP1 DUP10 MSTORE PUSH2 0x4AE DUP9 PUSH0 KECCAK256 PUSH2 0x43C9 JUMP JUMPDEST SWAP2 DUP3 MLOAD DUP11 DUP5 ADD KECCAK256 PUSH2 0x4BD PUSH2 0x4A8F JUMP JUMPDEST DUP12 DUP2 MLOAD SWAP2 ADD KECCAK256 EQ PUSH2 0x548 JUMPI PUSH2 0x4DD DUP4 DUP6 PUSH2 0x4D7 DUP10 DUP13 PUSH2 0x478C JUMP JUMPDEST MLOAD PUSH2 0x5018 JUMP JUMPDEST PUSH0 MSTORE DUP9 MSTORE DUP5 DUP8 PUSH0 KECCAK256 ADD PUSH1 0xFF NOT DUP2 SLOAD AND SWAP1 SSTORE PUSH1 0xD DUP9 MSTORE PUSH0 DUP8 DUP2 KECCAK256 SSTORE PUSH32 0xD05ED2D3FEFF840C2ECECA71791388FD3D19DBBBBCFA97031F534A7DC09FBF1F PUSH2 0x538 PUSH2 0x525 DUP7 DUP10 PUSH2 0x478C JUMP JUMPDEST MLOAD SWAP3 DUP10 MLOAD SWAP2 DUP3 SWAP2 DUP12 DUP4 MSTORE DUP12 DUP4 ADD SWAP1 PUSH2 0x446B JUMP JUMPDEST TIMESTAMP DUP13 DUP4 ADD MSTORE SUB SWAP1 LOG4 JUMPDEST ADD SWAP6 PUSH2 0x447 JUMP JUMPDEST POP POP POP POP POP PUSH2 0x541 JUMP JUMPDEST PUSH2 0x541 JUMP JUMPDEST STOP JUMPDEST PUSH1 0x64 SWAP1 PUSH1 0x20 DUP5 MLOAD SWAP2 PUSH3 0x461BCD PUSH1 0xE5 SHL DUP4 MSTORE DUP3 ADD MSTORE PUSH1 0xE PUSH1 0x24 DUP3 ADD MSTORE PUSH14 0x125B9D985B1A59081DD85B1B195D PUSH1 0x92 SHL PUSH1 0x44 DUP3 ADD MSTORE REVERT JUMPDEST DUP3 CALLVALUE PUSH2 0x369 JUMPI PUSH2 0x59C CALLDATASIZE PUSH2 0x437B JUMP JUMPDEST SWAP1 PUSH0 MSTORE PUSH1 0xF PUSH1 0x20 MSTORE DUP2 PUSH0 KECCAK256 SWAP1 PUSH0 MSTORE PUSH1 0x20 MSTORE DUP1 PUSH0 KECCAK256 SWAP1 PUSH2 0x5E9 DUP3 SLOAD SWAP2 PUSH1 0x1 DUP5 ADD SLOAD SWAP4 PUSH1 0x3 PUSH1 0x2 DUP3 ADD SLOAD SWAP2 ADD SLOAD SWAP2 MLOAD SWAP5 DUP6 SWAP5 DUP6 SWAP1 SWAP5 SWAP4 SWAP3 PUSH1 0x60 SWAP3 PUSH1 0x80 DUP4 ADD SWAP7 DUP4 MSTORE PUSH1 0x20 DUP4 ADD MSTORE PUSH1 0x40 DUP3 ADD MSTORE ADD MSTORE JUMP JUMPDEST SUB SWAP1 RETURN JUMPDEST DUP3 CALLVALUE PUSH2 0x369 JUMPI PUSH0 CALLDATASIZE PUSH1 0x3 NOT ADD SLT PUSH2 0x369 JUMPI PUSH1 0xC SLOAD SWAP1 MLOAD PUSH1 0x1 PUSH1 0x1 PUSH1 0xA0 SHL SUB SWAP1 SWAP2 AND DUP2 MSTORE PUSH1 0x20 SWAP1 RETURN JUMPDEST DUP3 CALLVALUE PUSH2 0x369 JUMPI PUSH2 0x624 CALLDATASIZE PUSH2 0x437B JUMP JUMPDEST SWAP2 PUSH2 0x639 PUSH1 0x1 DUP1 PUSH1 0xA0 SHL SUB PUSH0 SLOAD AND CALLER EQ PUSH2 0x47C2 JUMP JUMPDEST DUP2 ISZERO PUSH2 0x843 JUMPI PUSH2 0x64A DUP4 ISZERO ISZERO PUSH2 0x483F JUMP JUMPDEST PUSH2 0x656 DUP4 DUP4 EQ ISZERO PUSH2 0x487D JUMP JUMPDEST DUP2 PUSH0 MSTORE PUSH1 0x2 PUSH1 0x20 DUP2 DUP2 MSTORE PUSH1 0xFF DUP4 PUSH0 KECCAK256 SLOAD AND PUSH1 0x6 DUP2 LT ISZERO PUSH2 0x7F5 JUMPI ISZERO PUSH2 0x808 JUMPI DUP5 PUSH0 MSTORE DUP2 DUP2 MSTORE PUSH1 0xFF DUP4 PUSH0 KECCAK256 SLOAD AND PUSH1 0x6 DUP2 LT ISZERO PUSH2 0x7F5 JUMPI PUSH2 0x696 SWAP1 ISZERO ISZERO PUSH2 0x48C9 JUMP JUMPDEST DUP4 PUSH0 MSTORE PUSH1 0xE DUP2 MSTORE DUP3 PUSH0 KECCAK256 DUP6 PUSH0 MSTORE DUP2 MSTORE PUSH1 0xFF DUP4 PUSH0 KECCAK256 SLOAD AND DUP7 DUP2 LT ISZERO PUSH2 0x7F5 JUMPI DUP1 ISZERO SWAP1 DUP2 ISZERO PUSH2 0x7EA JUMPI JUMPDEST POP ISZERO PUSH2 0x799 JUMPI DUP3 MLOAD PUSH2 0x6CF DUP2 PUSH2 0x4081 JUMP JUMPDEST DUP3 DUP2 MSTORE DUP2 DUP2 ADD DUP4 DUP2 MSTORE DUP6 PUSH0 MSTORE PUSH1 0xE DUP4 MSTORE DUP5 PUSH0 KECCAK256 DUP8 PUSH0 MSTORE DUP4 MSTORE DUP5 PUSH0 KECCAK256 SWAP2 MLOAD DUP9 DUP2 LT ISZERO PUSH2 0x786 JUMPI PUSH2 0x6FE SWAP1 DUP4 PUSH2 0x4926 JUMP JUMPDEST MLOAD SWAP7 PUSH1 0x3 DUP9 LT ISZERO PUSH2 0x773 JUMPI POP PUSH32 0xC5B2E1BD4433EB4E9E181CC803520513D39D918C96BDDEEBCA1224E1C750963D SWAP5 SWAP6 SWAP7 PUSH2 0x737 SWAP2 PUSH2 0x493E JUMP JUMPDEST DUP6 DUP6 PUSH32 0x494D010FDF588A0E83D626EA6963187BDDA6F88B7007F7BF280683D3F7DEA834 DUP6 DUP1 MLOAD DUP7 DUP2 MSTORE TIMESTAMP DUP7 DUP3 ADD MSTORE LOG3 DUP3 MLOAD SWAP2 DUP3 MSTORE TIMESTAMP SWAP1 DUP3 ADD MSTORE LOG3 STOP JUMPDEST PUSH1 0x21 SWAP1 PUSH4 0x4E487B71 PUSH1 0xE0 SHL PUSH0 MSTORE MSTORE PUSH1 0x24 PUSH0 REVERT JUMPDEST PUSH1 0x21 DUP10 PUSH4 0x4E487B71 PUSH1 0xE0 SHL PUSH0 MSTORE MSTORE PUSH1 0x24 PUSH0 REVERT JUMPDEST DUP6 PUSH1 0x84 SWAP2 DUP5 MLOAD SWAP2 PUSH3 0x461BCD PUSH1 0xE5 SHL DUP4 MSTORE DUP3 ADD MSTORE PUSH1 0x26 PUSH1 0x24 DUP3 ADD MSTORE PUSH32 0x52656C6174696F6E7368697020616C726561647920616374697665206F722070 PUSH1 0x44 DUP3 ADD MSTORE PUSH6 0x656E64696E67 PUSH1 0xD0 SHL PUSH1 0x64 DUP3 ADD MSTORE REVERT JUMPDEST PUSH1 0x3 SWAP2 POP EQ DUP8 PUSH2 0x6BE JUMP JUMPDEST PUSH1 0x21 DUP8 PUSH4 0x4E487B71 PUSH1 0xE0 SHL PUSH0 MSTORE MSTORE PUSH1 0x24 PUSH0 REVERT JUMPDEST DUP6 PUSH1 0x64 SWAP2 DUP5 MLOAD SWAP2 PUSH3 0x461BCD PUSH1 0xE5 SHL DUP4 MSTORE DUP3 ADD MSTORE PUSH1 0x16 PUSH1 0x24 DUP3 ADD MSTORE PUSH22 0x151C9D5CDD1BDC881B9BDD081C9959DA5CDD195C9959 PUSH1 0x52 SHL PUSH1 0x44 DUP3 ADD MSTORE REVERT JUMPDEST MLOAD PUSH3 0x461BCD PUSH1 0xE5 SHL DUP2 MSTORE PUSH1 0x20 DUP2 DUP6 ADD MSTORE PUSH1 0xF PUSH1 0x24 DUP3 ADD MSTORE PUSH15 0x24B73B30B634B2103A393AB9BA37B9 PUSH1 0x89 SHL PUSH1 0x44 DUP3 ADD MSTORE PUSH1 0x64 SWAP1 REVERT JUMPDEST DUP3 CALLVALUE PUSH2 0x369 JUMPI PUSH0 CALLDATASIZE PUSH1 0x3 NOT ADD SLT PUSH2 0x369 JUMPI DUP1 MLOAD SWAP1 DUP2 DUP4 SLOAD DUP1 DUP3 MSTORE PUSH1 0x20 DUP1 SWAP3 ADD SWAP5 PUSH0 MSTORE PUSH32 0x8A35ACFBC15FF81A39AE7D344FD709F28E8600B4AA8C65C6B64BFE7FE36BD19B SWAP2 PUSH0 SWAP1 JUMPDEST DUP3 DUP3 LT PUSH2 0x8E0 JUMPI PUSH2 0x5E9 DUP7 DUP7 PUSH2 0x8D6 DUP3 DUP12 SUB DUP4 PUSH2 0x40E6 JUMP JUMPDEST MLOAD SWAP2 DUP3 SWAP2 DUP3 PUSH2 0x42AE JUMP JUMPDEST DUP4 SLOAD DUP8 MSTORE SWAP6 DUP7 ADD SWAP6 PUSH1 0x1 SWAP4 DUP5 ADD SWAP4 SWAP1 SWAP2 ADD SWAP1 PUSH2 0x8BE JUMP JUMPDEST DUP3 CALLVALUE PUSH2 0x369 JUMPI PUSH1 0x20 SWAP1 PUSH2 0x909 CALLDATASIZE PUSH2 0x437B JUMP JUMPDEST SWAP1 PUSH0 MSTORE PUSH1 0xF DUP4 MSTORE DUP2 PUSH0 KECCAK256 SWAP1 PUSH0 MSTORE DUP3 MSTORE DUP1 PUSH0 KECCAK256 SWAP1 DUP1 MLOAD PUSH2 0x927 DUP2 PUSH2 0x40B0 JUMP JUMPDEST DUP3 SLOAD SWAP1 DUP2 DUP2 MSTORE PUSH1 0x60 PUSH1 0x3 PUSH1 0x1 DUP7 ADD SLOAD SWAP6 DUP7 DUP9 DUP6 ADD MSTORE PUSH1 0x2 DUP2 ADD SLOAD DUP7 DUP6 ADD MSTORE ADD SLOAD SWAP2 ADD MSTORE ISZERO ISZERO SWAP2 DUP3 PUSH2 0x95C JUMPI JUMPDEST POP MLOAD SWAP1 ISZERO ISZERO DUP2 MSTORE RETURN JUMPDEST TIMESTAMP GT ISZERO SWAP2 POP DUP4 PUSH2 0x953 JUMP JUMPDEST SWAP1 POP CALLVALUE PUSH2 0x369 JUMPI PUSH2 0x977 CALLDATASIZE PUSH2 0x4339 JUMP JUMPDEST SWAP2 SWAP3 SWAP1 PUSH2 0x986 PUSH2 0x408 CALLER PUSH2 0x4D3D JUMP JUMPDEST PUSH2 0x991 DUP5 ISZERO ISZERO PUSH2 0x495D JUMP JUMPDEST PUSH1 0x1 PUSH1 0x1 PUSH1 0xA0 SHL SUB AND SWAP3 PUSH2 0x9A6 DUP5 ISZERO ISZERO PUSH2 0x49A9 JUMP JUMPDEST PUSH2 0x9B7 PUSH2 0x9B2 DUP5 PUSH2 0x50F1 JUMP JUMPDEST PUSH2 0x49F5 JUMP JUMPDEST CALLER PUSH0 MSTORE PUSH1 0x20 SWAP2 PUSH1 0x1 DUP4 MSTORE DUP6 PUSH0 KECCAK256 SLOAD SWAP5 PUSH0 MSTORE DUP6 PUSH0 KECCAK256 SLOAD SWAP3 PUSH2 0x9D8 DUP5 ISZERO ISZERO PUSH2 0x45C7 JUMP JUMPDEST DUP5 MLOAD DUP2 DUP7 ADD KECCAK256 PUSH2 0x9E8 DUP8 DUP6 PUSH2 0x4FE4 JUMP JUMPDEST PUSH0 MSTORE PUSH1 0x6 DUP3 MSTORE PUSH1 0xFF PUSH1 0x1 DUP10 PUSH0 KECCAK256 ADD SLOAD AND ISZERO PUSH2 0xD65 JUMPI DUP4 PUSH0 MSTORE PUSH1 0x7 DUP3 MSTORE DUP8 PUSH0 KECCAK256 SLOAD ISZERO ISZERO SWAP1 PUSH2 0xA1D PUSH2 0xA16 PUSH2 0x4A8F JUMP JUMPDEST DUP10 DUP8 PUSH2 0x5149 JUMP JUMPDEST SWAP2 PUSH2 0xA30 PUSH2 0xA29 PUSH2 0x4AB0 JUMP JUMPDEST DUP11 DUP9 PUSH2 0x5149 JUMP JUMPDEST SWAP2 PUSH2 0xA3B DUP11 DUP9 PUSH2 0x52E1 JUMP JUMPDEST SWAP1 PUSH2 0xA44 PUSH2 0x4A8F JUMP JUMPDEST DUP1 MLOAD SWAP1 DUP8 ADD KECCAK256 DUP2 SUB PUSH2 0xB82 JUMPI POP POP ISZERO PUSH2 0xB28 JUMPI POP ISZERO PUSH2 0xAE6 JUMPI JUMPDEST PUSH2 0xA68 DUP5 DUP5 PUSH2 0x4FE4 JUMP JUMPDEST PUSH0 MSTORE PUSH1 0x6 DUP2 MSTORE PUSH1 0xFF PUSH1 0x1 DUP9 PUSH0 KECCAK256 ADD SLOAD AND PUSH2 0xA88 JUMPI POP POP PUSH2 0x557 SWAP5 POP PUSH2 0x4DCF JUMP JUMPDEST DUP7 MLOAD PUSH3 0x461BCD PUSH1 0xE5 SHL DUP2 MSTORE SWAP2 DUP3 ADD MSTORE PUSH1 0x33 PUSH1 0x24 DUP3 ADD MSTORE PUSH32 0x54617267657420616C726561647920686173206120726F6C652E205573652063 PUSH1 0x44 DUP3 ADD MSTORE PUSH19 0x1A185B99D9549BDB194A0A481A5B9CDD195859 PUSH1 0x6A SHL PUSH1 0x64 DUP3 ADD MSTORE PUSH1 0x84 SWAP2 POP REVERT JUMPDEST DUP7 MLOAD PUSH3 0x461BCD PUSH1 0xE5 SHL DUP2 MSTORE SWAP2 DUP3 ADD DUP2 SWAP1 MSTORE PUSH1 0x24 DUP3 ADD MSTORE PUSH32 0x4F6E6C79206F776E6572732063616E206772616E74206F776E657220726F6C65 PUSH1 0x44 DUP3 ADD MSTORE PUSH1 0x64 SWAP2 POP REVERT JUMPDEST SWAP1 POP PUSH2 0xA5E JUMPI DUP7 MLOAD PUSH3 0x461BCD PUSH1 0xE5 SHL DUP2 MSTORE SWAP2 DUP3 ADD MSTORE PUSH1 0x29 PUSH1 0x24 DUP3 ADD MSTORE PUSH32 0x4F6E6C792061646D696E6973747261746F72732063616E206772616E74206669 PUSH1 0x44 DUP3 ADD MSTORE PUSH9 0x3939BA1037BBB732B9 PUSH1 0xB9 SHL PUSH1 0x64 DUP3 ADD MSTORE PUSH1 0x84 SWAP2 POP REVERT JUMPDEST SWAP1 SWAP2 POP PUSH2 0xB8D PUSH2 0x4AB0 JUMP JUMPDEST DUP1 MLOAD SWAP1 DUP7 ADD KECCAK256 DUP2 SUB PUSH2 0xC17 JUMPI POP POP DUP2 ISZERO PUSH2 0xC0F JUMPI JUMPDEST POP PUSH2 0xA5E JUMPI DUP7 MLOAD PUSH3 0x461BCD PUSH1 0xE5 SHL DUP2 MSTORE SWAP2 DUP3 ADD MSTORE PUSH1 0x3B PUSH1 0x24 DUP3 ADD MSTORE PUSH32 0x4F6E6C79206F776E65727320616E642061646D696E6973747261746F72732063 PUSH1 0x44 DUP3 ADD MSTORE PUSH32 0x616E206772616E742061646D696E6973747261746F7220726F6C650000000000 PUSH1 0x64 DUP3 ADD MSTORE PUSH1 0x84 SWAP2 POP REVERT JUMPDEST SWAP1 POP PUSH0 PUSH2 0xBA2 JUMP JUMPDEST PUSH2 0xC22 SWAP4 SWAP2 SWAP4 PUSH2 0x47A0 JUMP JUMPDEST DUP6 DUP2 MLOAD SWAP2 ADD KECCAK256 EQ PUSH2 0xC36 JUMPI JUMPDEST POP POP POP PUSH2 0xA5E JUMP JUMPDEST DUP1 ISZERO SWAP1 DUP2 PUSH2 0xD5E JUMPI JUMPDEST DUP1 ISZERO PUSH2 0xD57 JUMPI JUMPDEST ISZERO PUSH2 0xCEE JUMPI DUP3 PUSH2 0xCE6 JUMPI JUMPDEST POP DUP2 PUSH2 0xCDD JUMPI JUMPDEST POP PUSH2 0xC66 JUMPI JUMPDEST PUSH0 DUP1 DUP1 PUSH2 0xC2E JUMP JUMPDEST PUSH2 0xC70 DUP7 DUP5 PUSH2 0x5417 JUMP JUMPDEST MLOAD PUSH2 0xC5E JUMPI DUP7 MLOAD PUSH3 0x461BCD PUSH1 0xE5 SHL DUP2 MSTORE SWAP2 DUP3 ADD MSTORE PUSH1 0x3C PUSH1 0x24 DUP3 ADD MSTORE PUSH32 0x5375626A656374206D757374206861766520616E2061637469766520726F6C65 PUSH1 0x44 DUP3 ADD MSTORE PUSH32 0x20746F206772616E7420766965776572207065726D697373696F6E7300000000 PUSH1 0x64 DUP3 ADD MSTORE PUSH1 0x84 SWAP2 POP REVERT JUMPDEST SWAP1 POP ISZERO PUSH0 PUSH2 0xC58 JUMP JUMPDEST SWAP2 POP PUSH0 PUSH2 0xC51 JUMP JUMPDEST DUP10 MLOAD PUSH3 0x461BCD PUSH1 0xE5 SHL DUP2 MSTORE DUP1 DUP7 ADD DUP6 SWAP1 MSTORE PUSH1 0x3E PUSH1 0x24 DUP3 ADD MSTORE PUSH32 0x4F6E6C79206F776E6572732C2061646D696E6973747261746F72732C206F7220 PUSH1 0x44 DUP3 ADD MSTORE PUSH32 0x7375626A656374732063616E206772616E742076696577657220726F6C650000 PUSH1 0x64 DUP3 ADD MSTORE PUSH1 0x84 SWAP1 REVERT JUMPDEST POP DUP3 PUSH2 0xC46 JUMP JUMPDEST POP DUP2 PUSH2 0xC3F JUMP JUMPDEST PUSH1 0x64 DUP4 DUP4 DUP1 DUP12 MLOAD SWAP3 PUSH3 0x461BCD PUSH1 0xE5 SHL DUP5 MSTORE DUP4 ADD MSTORE PUSH1 0x24 DUP3 ADD MSTORE PUSH32 0x596F752068617665206E6F20726F6C6520666F722074686973207265636F7264 PUSH1 0x44 DUP3 ADD MSTORE REVERT JUMPDEST DUP3 CALLVALUE PUSH2 0x369 JUMPI DUP1 PUSH1 0x3 NOT CALLDATASIZE ADD SLT PUSH2 0x369 JUMPI DUP2 CALLDATALOAD PUSH2 0xDC1 PUSH2 0x406B JUMP JUMPDEST PUSH2 0xDCC DUP3 ISZERO ISZERO PUSH2 0x495D JUMP JUMPDEST PUSH1 0x1 PUSH1 0x1 PUSH1 0xA0 SHL SUB AND SWAP3 PUSH2 0xDE1 DUP5 ISZERO ISZERO PUSH2 0x49A9 JUMP JUMPDEST CALLER PUSH0 MSTORE PUSH1 0x20 SWAP3 PUSH1 0x1 DUP5 MSTORE DUP1 PUSH0 KECCAK256 SLOAD SWAP5 PUSH0 MSTORE DUP1 PUSH0 KECCAK256 SLOAD SWAP4 PUSH2 0xE02 DUP6 ISZERO ISZERO PUSH2 0x45C7 JUMP JUMPDEST PUSH2 0xE0C DUP6 DUP6 PUSH2 0x4FE4 JUMP JUMPDEST DUP1 PUSH0 MSTORE PUSH1 0x6 DUP3 MSTORE PUSH2 0xE25 PUSH1 0xFF PUSH1 0x1 DUP6 PUSH0 KECCAK256 ADD SLOAD AND PUSH2 0x4A37 JUMP JUMPDEST DUP1 PUSH0 MSTORE PUSH1 0x6 DUP3 MSTORE PUSH2 0xE37 DUP4 PUSH0 KECCAK256 PUSH2 0x43C9 JUMP JUMPDEST SWAP4 DUP5 MLOAD DUP4 DUP7 ADD KECCAK256 PUSH2 0xE46 PUSH2 0x4A8F JUMP JUMPDEST DUP5 DUP2 MLOAD SWAP2 ADD KECCAK256 DUP2 EQ PUSH2 0x1137 JUMPI DUP8 DUP10 SUB PUSH2 0xF6F JUMPI JUMPDEST PUSH2 0xE62 PUSH2 0x4AB0 JUMP JUMPDEST DUP5 DUP2 MLOAD SWAP2 ADD KECCAK256 EQ PUSH2 0xEDA JUMPI JUMPDEST POP SWAP1 DUP4 SWAP3 SWAP2 PUSH2 0xE9F PUSH32 0xD05ED2D3FEFF840C2ECECA71791388FD3D19DBBBBCFA97031F534A7DC09FBF1F SWAP6 DUP9 DUP9 PUSH2 0x5018 JUMP JUMPDEST PUSH0 MSTORE PUSH1 0x6 DUP2 MSTORE PUSH1 0x1 DUP3 PUSH0 KECCAK256 ADD PUSH1 0xFF NOT DUP2 SLOAD AND SWAP1 SSTORE PUSH1 0xD DUP2 MSTORE PUSH0 DUP3 DUP2 KECCAK256 SSTORE PUSH2 0xECF DUP3 MLOAD SWAP4 DUP4 DUP6 SWAP5 DUP6 MSTORE DUP5 ADD SWAP1 PUSH2 0x446B JUMP JUMPDEST SWAP1 TIMESTAMP SWAP1 DUP4 ADD MSTORE SUB SWAP1 LOG4 STOP JUMPDEST DUP6 PUSH0 MSTORE PUSH1 0x8 DUP4 MSTORE PUSH1 0x1 DUP5 PUSH0 KECCAK256 SLOAD GT PUSH1 0x7 DUP5 MSTORE DUP5 PUSH0 KECCAK256 SLOAD ISZERO ISZERO DUP2 ISZERO PUSH2 0xF67 JUMPI JUMPDEST POP PUSH2 0xE6E JUMPI DUP4 MLOAD PUSH3 0x461BCD PUSH1 0xE5 SHL DUP2 MSTORE SWAP1 DUP2 ADD DUP4 SWAP1 MSTORE PUSH1 0x39 PUSH1 0x24 DUP3 ADD MSTORE PUSH32 0x43616E6E6F74207265766F6B65206C6173742061646D696E6973747261746F72 PUSH1 0x44 DUP3 ADD MSTORE PUSH32 0x20776974686F757420616E206F776E65722070726573656E7400000000000000 PUSH1 0x64 DUP3 ADD MSTORE PUSH1 0x84 SWAP1 REVERT JUMPDEST SWAP1 POP DUP10 PUSH2 0xEF9 JUMP JUMPDEST PUSH2 0xF81 PUSH2 0xF7A PUSH2 0x4A8F JUMP JUMPDEST DUP11 DUP10 PUSH2 0x5149 JUMP JUMPDEST PUSH2 0xF93 PUSH2 0xF8C PUSH2 0x4AB0 JUMP JUMPDEST DUP12 DUP11 PUSH2 0x5149 JUMP JUMPDEST DUP5 PUSH0 MSTORE PUSH1 0xD DUP7 MSTORE DUP11 DUP8 PUSH0 KECCAK256 SLOAD EQ SWAP1 PUSH2 0xFA9 PUSH2 0x47A0 JUMP JUMPDEST DUP1 MLOAD SWAP1 DUP9 ADD KECCAK256 DUP5 SUB PUSH2 0x1049 JUMPI DUP3 ISZERO PUSH2 0x1041 JUMPI JUMPDEST POP DUP2 ISZERO PUSH2 0x1039 JUMPI JUMPDEST POP ISZERO PUSH2 0xFD0 JUMPI JUMPDEST PUSH2 0xE5A JUMP JUMPDEST DUP5 MLOAD PUSH3 0x461BCD PUSH1 0xE5 SHL DUP2 MSTORE DUP1 DUP4 ADD DUP6 SWAP1 MSTORE PUSH1 0x3E PUSH1 0x24 DUP3 ADD MSTORE PUSH32 0x4F6E6C79206F776E6572732C2061646D696E6973747261746F72732C206F7220 PUSH1 0x44 DUP3 ADD MSTORE PUSH32 0x746865206772616E7465722063616E207265766F6B6520766965776572730000 PUSH1 0x64 DUP3 ADD MSTORE PUSH1 0x84 SWAP1 REVERT JUMPDEST SWAP1 POP DUP11 PUSH2 0xFC4 JUMP JUMPDEST SWAP2 POP DUP12 PUSH2 0xFBC JUMP JUMPDEST DUP3 ISZERO SWAP3 SWAP2 POP DUP3 PUSH2 0x112F JUMPI JUMPDEST POP ISZERO PUSH2 0x10D4 JUMPI ISZERO PUSH2 0xE5A JUMPI PUSH2 0x1067 PUSH2 0x4AB0 JUMP JUMPDEST DUP5 DUP2 MLOAD SWAP2 ADD KECCAK256 DUP2 SUB PUSH2 0xFCB JUMPI DUP7 PUSH0 MSTORE PUSH1 0x7 DUP5 MSTORE DUP5 PUSH0 KECCAK256 SLOAD ISZERO PUSH2 0xFCB JUMPI DUP5 MLOAD PUSH3 0x461BCD PUSH1 0xE5 SHL DUP2 MSTORE DUP1 DUP4 ADD DUP6 SWAP1 MSTORE PUSH1 0x25 PUSH1 0x24 DUP3 ADD MSTORE PUSH32 0x4F6E6C79206F776E6572732063616E207265766F6B652061646D696E69737472 PUSH1 0x44 DUP3 ADD MSTORE PUSH5 0x61746F7273 PUSH1 0xD8 SHL PUSH1 0x64 DUP3 ADD MSTORE PUSH1 0x84 SWAP1 REVERT JUMPDEST DUP6 MLOAD PUSH3 0x461BCD PUSH1 0xE5 SHL DUP2 MSTORE DUP1 DUP5 ADD DUP7 SWAP1 MSTORE PUSH1 0x2F PUSH1 0x24 DUP3 ADD MSTORE PUSH32 0x4F6E6C79206F776E65727320616E642061646D696E6973747261746F72732063 PUSH1 0x44 DUP3 ADD MSTORE PUSH15 0x616E207265766F6B6520726F6C6573 PUSH1 0x88 SHL PUSH1 0x64 DUP3 ADD MSTORE PUSH1 0x84 SWAP1 REVERT JUMPDEST SWAP1 POP DUP12 PUSH2 0x1054 JUMP JUMPDEST DUP5 MLOAD PUSH3 0x461BCD PUSH1 0xE5 SHL DUP2 MSTORE DUP1 DUP4 ADD DUP6 SWAP1 MSTORE PUSH1 0x45 PUSH1 0x24 DUP3 ADD MSTORE PUSH32 0x4F776E6572732063616E6E6F74206265207265766F6B65642E204F776E657220 PUSH1 0x44 DUP3 ADD MSTORE PUSH32 0x6D7573742075736520766F6C756E746172696C794C656176654F776E65727368 PUSH1 0x64 DUP3 ADD MSTORE PUSH5 0x34B8141497 PUSH1 0xD9 SHL PUSH1 0x84 DUP3 ADD MSTORE PUSH1 0xA4 SWAP1 REVERT JUMPDEST SWAP1 POP CALLVALUE PUSH2 0x369 JUMPI PUSH1 0x20 SWAP1 DUP2 PUSH1 0x3 NOT CALLDATASIZE ADD SLT PUSH2 0x369 JUMPI DUP3 SWAP1 CALLDATALOAD PUSH0 MSTORE PUSH1 0x3 DUP3 MSTORE DUP1 PUSH0 KECCAK256 DUP2 MLOAD SWAP3 DUP4 DUP2 DUP4 SLOAD SWAP2 DUP3 DUP2 MSTORE ADD SWAP1 DUP2 SWAP4 PUSH0 MSTORE DUP3 PUSH0 KECCAK256 SWAP1 PUSH0 JUMPDEST DUP2 DUP2 LT PUSH2 0x1240 JUMPI POP POP POP DUP5 PUSH2 0x11FC SWAP2 SUB DUP6 PUSH2 0x40E6 JUMP JUMPDEST DUP3 MLOAD DUP2 DUP2 MSTORE SWAP4 MLOAD DUP2 DUP6 ADD DUP2 SWAP1 MSTORE DUP5 SWAP4 DUP5 ADD SWAP3 SWAP2 PUSH0 JUMPDEST DUP3 DUP2 LT PUSH2 0x1220 JUMPI POP POP POP POP SUB SWAP1 RETURN JUMPDEST DUP4 MLOAD PUSH1 0x1 PUSH1 0x1 PUSH1 0xA0 SHL SUB AND DUP6 MSTORE DUP7 SWAP6 POP SWAP4 DUP2 ADD SWAP4 SWAP3 DUP2 ADD SWAP3 PUSH1 0x1 ADD PUSH2 0x1211 JUMP JUMPDEST DUP3 SLOAD PUSH1 0x1 PUSH1 0x1 PUSH1 0xA0 SHL SUB AND DUP5 MSTORE SWAP3 DUP5 ADD SWAP3 PUSH1 0x1 SWAP3 DUP4 ADD SWAP3 ADD PUSH2 0x11E6 JUMP JUMPDEST DUP3 CALLVALUE PUSH2 0x369 JUMPI PUSH1 0x20 CALLDATASIZE PUSH1 0x3 NOT ADD SLT PUSH2 0x369 JUMPI PUSH1 0x20 SWAP2 CALLDATALOAD PUSH0 MSTORE PUSH1 0xD DUP3 MSTORE DUP1 PUSH0 KECCAK256 SLOAD SWAP1 MLOAD SWAP1 DUP2 MSTORE RETURN JUMPDEST DUP3 CALLVALUE PUSH2 0x369 JUMPI PUSH1 0x20 CALLDATASIZE PUSH1 0x3 NOT ADD SLT PUSH2 0x369 JUMPI PUSH1 0x20 SWAP1 PUSH2 0x12A9 PUSH2 0x12A4 PUSH2 0x4055 JUMP JUMPDEST PUSH2 0x53C1 JUMP JUMPDEST SWAP1 MLOAD SWAP1 ISZERO ISZERO DUP2 MSTORE RETURN JUMPDEST SWAP1 POP CALLVALUE PUSH2 0x369 JUMPI PUSH2 0x12C2 CALLDATASIZE PUSH2 0x437B JUMP JUMPDEST PUSH2 0x12D1 PUSH2 0x408 SWAP5 SWAP3 SWAP5 CALLER PUSH2 0x4D3D JUMP JUMPDEST CALLER PUSH0 MSTORE PUSH1 0x1 SWAP4 PUSH1 0x20 SWAP4 DUP6 DUP6 MSTORE DUP4 PUSH0 KECCAK256 SLOAD SWAP1 DUP3 DUP3 EQ DUP1 ISZERO PUSH2 0x1579 JUMPI JUMPDEST ISZERO PUSH2 0x1538 JUMPI DUP3 PUSH0 MSTORE PUSH1 0xE DUP7 MSTORE DUP5 PUSH0 KECCAK256 DUP5 PUSH0 MSTORE DUP7 MSTORE PUSH1 0xFF SWAP1 PUSH1 0xFF DUP7 PUSH0 KECCAK256 SLOAD AND DUP2 DUP2 LT ISZERO PUSH2 0x1525 JUMPI DUP9 PUSH1 0x2 DUP3 EQ SWAP2 DUP3 ISZERO PUSH2 0x151B JUMPI JUMPDEST POP POP ISZERO PUSH2 0x14CE JUMPI POP SWAP1 DUP7 SWAP2 DUP4 PUSH0 MSTORE PUSH1 0xE DUP8 MSTORE DUP6 PUSH0 KECCAK256 DUP6 PUSH0 MSTORE DUP8 MSTORE DUP6 PUSH0 KECCAK256 SWAP1 PUSH1 0x3 PUSH1 0xFF NOT SWAP3 PUSH1 0x3 DUP5 DUP3 SLOAD AND OR SWAP1 SSTORE DUP4 DUP8 DUP8 PUSH32 0x6DF3A6475FAB2EED139F7E469995B04E85BFC5B4B8642587109CB72541F74FAE DUP13 DUP13 MLOAD TIMESTAMP DUP2 MSTORE LOG4 DUP6 PUSH0 MSTORE PUSH1 0x10 DUP10 MSTORE DUP8 PUSH0 KECCAK256 DUP8 PUSH0 MSTORE DUP10 MSTORE DUP8 PUSH0 KECCAK256 DUP9 DUP7 PUSH0 SWAP1 JUMPDEST PUSH2 0x13D5 JUMPI JUMPDEST POP POP POP POP POP POP POP POP PUSH0 MSTORE PUSH1 0x10 DUP4 MSTORE DUP2 PUSH0 KECCAK256 SWAP1 PUSH0 MSTORE DUP3 MSTORE PUSH0 KECCAK256 SWAP1 DUP2 SLOAD SWAP2 PUSH0 DUP2 SSTORE DUP3 PUSH2 0x13B9 JUMPI STOP JUMPDEST PUSH0 MSTORE PUSH0 KECCAK256 SWAP1 DUP2 ADD SWAP1 JUMPDEST DUP2 DUP2 LT PUSH2 0x13CB JUMPI STOP JUMPDEST PUSH0 DUP2 SSTORE DUP3 ADD PUSH2 0x13C2 JUMP JUMPDEST DUP12 DUP11 DUP5 SLOAD DUP4 LT ISZERO PUSH2 0x14C7 JUMPI DUP10 SWAP4 DUP10 SWAP3 PUSH2 0x13EE DUP6 DUP9 PUSH2 0x44C9 JUMP JUMPDEST SWAP1 SLOAD SWAP1 DUP10 SHL SHR SWAP2 DUP14 PUSH0 MSTORE PUSH1 0x11 DUP3 MSTORE DUP1 PUSH0 KECCAK256 DUP5 PUSH0 MSTORE DUP3 MSTORE DUP1 PUSH0 KECCAK256 DUP4 PUSH0 MSTORE DUP3 MSTORE DUP1 PUSH0 KECCAK256 DUP12 DUP2 SLOAD AND SWAP1 SSTORE PUSH2 0x141F DUP5 DUP5 PUSH2 0x4FE4 JUMP JUMPDEST PUSH0 MSTORE PUSH1 0x6 SWAP1 DUP2 DUP4 MSTORE DUP11 DUP9 DUP3 PUSH0 KECCAK256 ADD SLOAD AND ISZERO PUSH2 0x14BC JUMPI PUSH32 0xD05ED2D3FEFF840C2ECECA71791388FD3D19DBBBBCFA97031F534A7DC09FBF1F SWAP3 PUSH2 0x1460 DUP7 DUP7 PUSH2 0x4FE4 JUMP JUMPDEST SWAP3 DUP4 PUSH0 MSTORE DUP1 DUP3 MSTORE PUSH2 0x1472 DUP4 PUSH0 KECCAK256 PUSH2 0x43C9 JUMP JUMPDEST SWAP4 PUSH2 0x147E DUP6 DUP10 DUP10 PUSH2 0x5018 JUMP JUMPDEST PUSH0 MSTORE DUP2 MSTORE DUP9 DUP3 PUSH0 KECCAK256 ADD DUP14 DUP2 SLOAD AND SWAP1 SSTORE PUSH1 0xD DUP2 MSTORE PUSH0 DUP3 DUP2 KECCAK256 SSTORE PUSH2 0x14A9 DUP3 MLOAD SWAP4 DUP4 DUP6 SWAP5 DUP6 MSTORE DUP5 ADD SWAP1 PUSH2 0x446B JUMP JUMPDEST SWAP1 TIMESTAMP SWAP1 DUP4 ADD MSTORE SUB SWAP1 LOG4 JUMPDEST ADD DUP10 SWAP1 DUP8 PUSH2 0x138E JUMP JUMPDEST POP POP POP POP POP POP PUSH2 0x14B3 JUMP JUMPDEST POP POP PUSH2 0x1393 JUMP JUMPDEST DUP6 MLOAD PUSH3 0x461BCD PUSH1 0xE5 SHL DUP2 MSTORE SWAP1 DUP2 ADD DUP8 SWAP1 MSTORE PUSH1 0x21 PUSH1 0x24 DUP3 ADD MSTORE PUSH32 0x4E6F20616374697665206F722070656E64696E672072656C6174696F6E736869 PUSH1 0x44 DUP3 ADD MSTORE PUSH1 0x7 PUSH1 0xFC SHL PUSH1 0x64 DUP3 ADD MSTORE PUSH1 0x84 SWAP1 REVERT JUMPDEST EQ SWAP1 POP DUP9 PUSH0 PUSH2 0x131F JUMP JUMPDEST PUSH1 0x21 DUP3 PUSH4 0x4E487B71 PUSH1 0xE0 SHL PUSH0 MSTORE MSTORE PUSH1 0x24 PUSH0 REVERT JUMPDEST PUSH1 0x64 SWAP1 DUP7 DUP1 DUP8 MLOAD SWAP3 PUSH3 0x461BCD PUSH1 0xE5 SHL DUP5 MSTORE DUP4 ADD MSTORE PUSH1 0x24 DUP3 ADD MSTORE PUSH32 0x4E6F74206120706172747920746F20746869732072656C6174696F6E73686970 PUSH1 0x44 DUP3 ADD MSTORE REVERT JUMPDEST POP DUP4 DUP3 EQ PUSH2 0x12EC JUMP JUMPDEST DUP3 CALLVALUE PUSH2 0x369 JUMPI DUP1 PUSH1 0x3 NOT CALLDATASIZE ADD SLT PUSH2 0x369 JUMPI PUSH2 0x12A9 PUSH1 0x20 SWAP3 PUSH2 0x15A1 PUSH2 0x406B JUMP JUMPDEST SWAP1 CALLDATALOAD PUSH2 0x4D00 JUMP JUMPDEST DUP3 CALLVALUE PUSH2 0x369 JUMPI PUSH1 0x20 CALLDATASIZE PUSH1 0x3 NOT ADD SLT PUSH2 0x369 JUMPI PUSH32 0xCE59AD7D6DABE8A7533ED7D9BD07D276A046AC7AC9A8E8E8971DA4B81104A28B PUSH1 0x20 PUSH2 0x15E5 PUSH2 0x4055 JUMP JUMPDEST PUSH0 SLOAD PUSH1 0x1 PUSH1 0x1 PUSH1 0xA0 SHL SUB SWAP2 SWAP1 PUSH2 0x15FE SWAP1 DUP4 AND CALLER EQ PUSH2 0x47C2 JUMP JUMPDEST AND SWAP3 PUSH2 0x160B DUP5 ISZERO ISZERO PUSH2 0x4CC2 JUMP JUMPDEST PUSH1 0xC DUP1 SLOAD PUSH1 0x1 PUSH1 0x1 PUSH1 0xA0 SHL SUB NOT AND DUP6 OR SWAP1 SSTORE MLOAD TIMESTAMP DUP2 MSTORE LOG2 STOP JUMPDEST DUP3 CALLVALUE PUSH2 0x369 JUMPI PUSH2 0x1633 CALLDATASIZE PUSH2 0x437B JUMP JUMPDEST SWAP1 PUSH0 MSTORE PUSH1 0x20 SWAP1 PUSH1 0x10 PUSH1 0x20 MSTORE DUP3 PUSH0 KECCAK256 SWAP1 PUSH0 MSTORE PUSH1 0x20 MSTORE DUP2 PUSH0 KECCAK256 SWAP2 DUP1 MLOAD SWAP2 DUP3 PUSH1 0x20 DUP6 SLOAD SWAP2 DUP3 DUP2 MSTORE ADD SWAP5 PUSH0 MSTORE PUSH1 0x20 PUSH0 KECCAK256 SWAP2 PUSH0 SWAP1 JUMPDEST DUP3 DUP3 LT PUSH2 0x167B JUMPI PUSH2 0x5E9 DUP7 DUP7 PUSH2 0x8D6 DUP3 DUP12 SUB DUP4 PUSH2 0x40E6 JUMP JUMPDEST DUP4 SLOAD DUP8 MSTORE SWAP6 DUP7 ADD SWAP6 PUSH1 0x1 SWAP4 DUP5 ADD SWAP4 SWAP1 SWAP2 ADD SWAP1 PUSH2 0x1663 JUMP JUMPDEST SWAP1 POP CALLVALUE PUSH2 0x369 JUMPI PUSH1 0x20 SWAP1 PUSH1 0x20 PUSH1 0x3 NOT CALLDATASIZE ADD SLT PUSH2 0x369 JUMPI CALLDATALOAD PUSH0 MSTORE PUSH1 0x7 PUSH1 0x20 MSTORE DUP2 PUSH0 KECCAK256 SWAP2 DUP1 MLOAD SWAP2 DUP3 PUSH1 0x20 DUP6 SLOAD SWAP2 DUP3 DUP2 MSTORE ADD SWAP5 PUSH0 MSTORE PUSH1 0x20 PUSH0 KECCAK256 SWAP2 PUSH0 SWAP1 JUMPDEST DUP3 DUP3 LT PUSH2 0x16E4 JUMPI PUSH2 0x5E9 DUP7 DUP7 PUSH2 0x8D6 DUP3 DUP12 SUB DUP4 PUSH2 0x40E6 JUMP JUMPDEST DUP4 SLOAD DUP8 MSTORE SWAP6 DUP7 ADD SWAP6 PUSH1 0x1 SWAP4 DUP5 ADD SWAP4 SWAP1 SWAP2 ADD SWAP1 PUSH2 0x16CC JUMP JUMPDEST DUP3 CALLVALUE PUSH2 0x369 JUMPI PUSH0 CALLDATASIZE PUSH1 0x3 NOT ADD SLT PUSH2 0x369 JUMPI PUSH1 0x20 SWAP1 PUSH1 0x5 SLOAD SWAP1 MLOAD SWAP1 DUP2 MSTORE RETURN JUMPDEST SWAP1 POP CALLVALUE PUSH2 0x369 JUMPI PUSH1 0x20 CALLDATASIZE PUSH1 0x3 NOT ADD SLT PUSH2 0x369 JUMPI PUSH2 0x1734 PUSH2 0x4055 JUMP JUMPDEST PUSH0 SLOAD PUSH1 0x1 PUSH1 0x1 PUSH1 0xA0 SHL SUB SWAP2 SWAP1 PUSH2 0x174D SWAP1 DUP4 AND CALLER EQ PUSH2 0x47C2 JUMP JUMPDEST AND DUP1 PUSH0 MSTORE PUSH1 0x1 SWAP2 DUP3 PUSH1 0x20 MSTORE PUSH2 0x1766 DUP5 PUSH0 KECCAK256 SLOAD ISZERO ISZERO PUSH2 0x47FB JUMP JUMPDEST DUP2 PUSH0 MSTORE DUP3 PUSH1 0x20 MSTORE PUSH1 0xFF DUP4 DUP6 PUSH0 KECCAK256 ADD SLOAD AND PUSH2 0x1795 JUMPI POP SWAP2 DUP2 SWAP3 PUSH0 MSTORE DUP2 PUSH1 0x20 MSTORE PUSH0 KECCAK256 ADD SWAP1 PUSH1 0xFF NOT DUP3 SLOAD AND OR SWAP1 SSTORE PUSH0 DUP1 RETURN JUMPDEST PUSH1 0x64 SWAP1 PUSH1 0x20 DUP6 MLOAD SWAP2 PUSH3 0x461BCD PUSH1 0xE5 SHL DUP4 MSTORE DUP3 ADD MSTORE PUSH1 0x15 PUSH1 0x24 DUP3 ADD MSTORE PUSH21 0x57616C6C657420616C726561647920616374697665 PUSH1 0x58 SHL PUSH1 0x44 DUP3 ADD MSTORE REVERT JUMPDEST DUP3 CALLVALUE PUSH2 0x369 JUMPI PUSH2 0x17DF CALLDATASIZE PUSH2 0x4308 JUMP JUMPDEST SWAP2 SWAP1 SWAP3 PUSH2 0x17EE PUSH2 0x408 CALLER PUSH2 0x4D3D JUMP JUMPDEST CALLER PUSH0 MSTORE PUSH1 0x1 SWAP3 PUSH1 0x20 SWAP1 DUP5 DUP3 MSTORE DUP4 PUSH0 KECCAK256 SLOAD SWAP1 DUP1 PUSH0 MSTORE PUSH1 0xE DUP4 MSTORE DUP5 PUSH0 KECCAK256 DUP3 PUSH0 MSTORE DUP4 MSTORE DUP5 PUSH0 KECCAK256 SWAP1 DUP6 MLOAD SWAP2 PUSH2 0x181E DUP4 PUSH2 0x4081 JUMP JUMPDEST SLOAD SWAP5 PUSH1 0xFF SWAP3 PUSH2 0x1830 PUSH1 0xFF DUP9 AND DUP3 PUSH2 0x490E JUMP JUMPDEST PUSH2 0x1843 PUSH1 0xFF DUP8 DUP4 ADD SWAP9 PUSH1 0x8 SHR AND DUP9 PUSH2 0x491A JUMP JUMPDEST MLOAD SWAP9 DUP2 DUP11 LT ISZERO PUSH2 0x1525 JUMPI PUSH2 0x185A PUSH1 0x2 DUP11 SWAP12 EQ PUSH2 0x4C51 JUMP JUMPDEST PUSH0 SWAP10 JUMPDEST PUSH2 0x1863 JUMPI STOP JUMPDEST DUP1 MLOAD DUP11 LT ISZERO PUSH2 0x557 JUMPI PUSH2 0x1876 DUP11 DUP3 PUSH2 0x478C JUMP JUMPDEST MLOAD SWAP10 DUP8 MLOAD PUSH1 0x3 DUP2 LT ISZERO PUSH2 0x197F JUMPI SWAP1 DUP12 DUP9 DUP7 DUP9 DUP15 SWAP16 DUP16 SWAP7 DUP16 SWAP1 PUSH2 0x189B DUP15 SWAP2 DUP7 DUP12 SWAP6 PUSH2 0x536B JUMP JUMPDEST SWAP6 PUSH2 0x18A5 DUP8 PUSH2 0x50F1 JUMP JUMPDEST ISZERO PUSH2 0x1972 JUMPI PUSH2 0x18B4 DUP7 DUP10 PUSH2 0x4FE4 JUMP JUMPDEST PUSH0 MSTORE PUSH1 0x6 SWAP2 DUP3 DUP3 MSTORE DUP6 DUP6 DUP6 PUSH0 KECCAK256 ADD SLOAD AND ISZERO PUSH2 0x1964 JUMPI PUSH2 0x18D3 SWAP1 DUP10 PUSH2 0x4FE4 JUMP JUMPDEST PUSH0 MSTORE MSTORE PUSH0 KECCAK256 ADD SLOAD AND PUSH2 0x195C JUMPI PUSH2 0x18EA SWAP2 DUP11 DUP5 PUSH2 0x4DCF JUMP JUMPDEST DUP6 PUSH0 MSTORE PUSH1 0x11 DUP1 DUP11 MSTORE DUP12 PUSH0 KECCAK256 DUP10 PUSH0 MSTORE DUP11 MSTORE DUP12 PUSH0 KECCAK256 DUP3 PUSH0 MSTORE DUP11 MSTORE DUP8 DUP13 PUSH0 KECCAK256 SLOAD AND ISZERO PUSH2 0x1918 JUMPI JUMPDEST POP POP JUMPDEST ADD SWAP10 PUSH2 0x185D JUMP JUMPDEST DUP7 PUSH0 MSTORE PUSH1 0x10 DUP11 MSTORE DUP12 PUSH0 KECCAK256 DUP10 PUSH0 MSTORE DUP11 MSTORE PUSH2 0x1933 DUP3 DUP14 PUSH0 KECCAK256 PUSH2 0x472E JUMP JUMPDEST DUP7 PUSH0 MSTORE DUP10 MSTORE DUP11 PUSH0 KECCAK256 DUP9 PUSH0 MSTORE DUP10 MSTORE DUP11 PUSH0 KECCAK256 SWAP1 PUSH0 MSTORE DUP9 MSTORE DUP10 PUSH0 KECCAK256 DUP3 PUSH1 0xFF NOT DUP3 SLOAD AND OR SWAP1 SSTORE DUP13 DUP1 PUSH2 0x190E JUMP JUMPDEST POP POP POP PUSH2 0x1911 JUMP JUMPDEST POP POP POP POP POP POP POP POP POP PUSH2 0x1911 JUMP JUMPDEST POP POP POP POP POP POP POP POP PUSH2 0x1911 JUMP JUMPDEST PUSH1 0x21 DUP5 PUSH4 0x4E487B71 PUSH1 0xE0 SHL PUSH0 MSTORE MSTORE PUSH1 0x24 PUSH0 REVERT JUMPDEST DUP3 CALLVALUE PUSH2 0x369 JUMPI PUSH1 0x20 SWAP1 DUP2 PUSH1 0x3 NOT CALLDATASIZE ADD SLT PUSH2 0x369 JUMPI DUP3 CALLDATALOAD SWAP2 PUSH2 0x19B5 PUSH2 0x408 CALLER PUSH2 0x4D3D JUMP JUMPDEST CALLER PUSH0 MSTORE PUSH1 0x1 DUP2 MSTORE DUP2 PUSH0 KECCAK256 SLOAD SWAP4 DUP4 PUSH0 MSTORE PUSH1 0xE DUP3 MSTORE DUP3 PUSH0 KECCAK256 DUP6 PUSH0 MSTORE DUP3 MSTORE DUP3 PUSH0 KECCAK256 SWAP1 DUP2 SLOAD SWAP1 PUSH1 0xFF DUP3 AND DUP2 DUP2 LT ISZERO PUSH2 0x1525 JUMPI PUSH1 0x1 SUB PUSH2 0x1A34 JUMPI POP SWAP2 PUSH2 0x1A2C PUSH1 0xFF SWAP3 PUSH1 0x2 PUSH32 0xC5B2E1BD4433EB4E9E181CC803520513D39D918C96BDDEEBCA1224E1C750963D SWAP7 SWAP6 DUP6 NOT AND OR DUP1 SWAP2 SSTORE DUP5 MLOAD SWAP4 DUP5 SWAP2 PUSH1 0x8 SHR AND PUSH2 0x4513 JUMP JUMPDEST TIMESTAMP SWAP1 DUP3 ADD MSTORE LOG3 STOP JUMPDEST DUP5 MLOAD PUSH3 0x461BCD PUSH1 0xE5 SHL DUP2 MSTORE SWAP1 DUP2 ADD DUP5 SWAP1 MSTORE PUSH1 0x13 PUSH1 0x24 DUP3 ADD MSTORE PUSH19 0x139BC81C195B991A5B99C81C1C9BDC1BDCD85B PUSH1 0x6A SHL PUSH1 0x44 DUP3 ADD MSTORE PUSH1 0x64 SWAP1 REVERT JUMPDEST DUP3 CALLVALUE PUSH2 0x369 JUMPI PUSH0 CALLDATASIZE PUSH1 0x3 NOT ADD SLT PUSH2 0x369 JUMPI DUP1 MLOAD PUSH2 0x5E9 SWAP2 PUSH2 0x1A8D DUP3 PUSH2 0x4081 JUMP JUMPDEST PUSH1 0x5 DUP3 MSTORE PUSH5 0x352E302E3 PUSH1 0xDC SHL PUSH1 0x20 DUP4 ADD MSTORE MLOAD SWAP2 DUP3 SWAP2 PUSH1 0x20 DUP4 MSTORE PUSH1 0x20 DUP4 ADD SWAP1 PUSH2 0x446B JUMP JUMPDEST SWAP1 POP CALLVALUE PUSH2 0x369 JUMPI PUSH2 0x1AC1 CALLDATASIZE PUSH2 0x42E9 JUMP JUMPDEST SWAP2 PUSH2 0x1ACE PUSH2 0x408 CALLER PUSH2 0x4D3D JUMP JUMPDEST CALLER PUSH0 MSTORE PUSH1 0x1 PUSH1 0x20 MSTORE DUP4 PUSH0 KECCAK256 SLOAD SWAP1 DUP2 PUSH0 MSTORE PUSH1 0xE PUSH1 0x20 MSTORE DUP5 PUSH0 KECCAK256 DUP4 PUSH0 MSTORE PUSH1 0x20 MSTORE DUP5 PUSH0 KECCAK256 DUP1 SLOAD PUSH1 0xFF DUP2 AND DUP4 DUP2 LT ISZERO PUSH2 0x197F JUMPI SWAP1 PUSH2 0x1B0C PUSH1 0x2 PUSH1 0xFF SWAP4 EQ PUSH2 0x4C51 JUMP JUMPDEST PUSH1 0x8 SHR AND SWAP2 PUSH1 0x3 DUP7 LT ISZERO PUSH2 0x773 JUMPI PUSH1 0x3 DUP4 LT ISZERO PUSH2 0x773 JUMPI DUP6 DUP4 EQ PUSH2 0x1B75 JUMPI POP PUSH32 0xB36EC3C738EF8ECD9180ADDC815304762374B76E91C2A321831D9906EA119ADE PUSH2 0x1B6D DUP6 SWAP4 PUSH2 0x557 SWAP9 PUSH2 0x1B60 DUP10 DUP9 SWAP7 PUSH2 0x493E JUMP JUMPDEST MLOAD SWAP2 DUP3 SWAP2 DUP10 TIMESTAMP SWAP2 DUP5 PUSH2 0x4C9D JUMP JUMPDEST SUB SWAP1 LOG3 PUSH2 0x520C JUMP JUMPDEST PUSH1 0x64 SWAP1 PUSH1 0x20 DUP9 MLOAD SWAP2 PUSH3 0x461BCD PUSH1 0xE5 SHL DUP4 MSTORE DUP3 ADD MSTORE PUSH1 0x18 PUSH1 0x24 DUP3 ADD MSTORE PUSH32 0x416C72656164792074686973207472757374206C6576656C0000000000000000 PUSH1 0x44 DUP3 ADD MSTORE REVERT JUMPDEST DUP3 CALLVALUE PUSH2 0x369 JUMPI PUSH1 0x20 SWAP1 PUSH2 0x1BD3 PUSH2 0x1BCD CALLDATASIZE PUSH2 0x437B JUMP JUMPDEST SWAP1 PUSH2 0x4FE4 JUMP JUMPDEST PUSH0 MSTORE PUSH1 0xD DUP3 MSTORE DUP1 PUSH0 KECCAK256 SLOAD SWAP1 MLOAD SWAP1 DUP2 MSTORE RETURN JUMPDEST DUP3 CALLVALUE PUSH2 0x369 JUMPI PUSH1 0x20 CALLDATASIZE PUSH1 0x3 NOT ADD SLT PUSH2 0x369 JUMPI DUP2 CALLDATALOAD DUP3 SLOAD DUP2 LT ISZERO PUSH2 0x369 JUMPI PUSH1 0x20 SWAP3 PUSH0 MSTORE PUSH32 0x8A35ACFBC15FF81A39AE7D344FD709F28E8600B4AA8C65C6B64BFE7FE36BD19B ADD SLOAD SWAP1 MLOAD SWAP1 DUP2 MSTORE RETURN JUMPDEST DUP3 CALLVALUE PUSH2 0x369 JUMPI PUSH2 0x1C3F CALLDATASIZE PUSH2 0x437B JUMP JUMPDEST SWAP1 PUSH0 MSTORE PUSH1 0xE PUSH1 0x20 MSTORE DUP2 PUSH0 KECCAK256 SWAP1 PUSH0 MSTORE PUSH1 0x20 MSTORE DUP1 PUSH0 KECCAK256 SWAP1 DUP1 MLOAD SWAP2 PUSH2 0x1C60 DUP4 PUSH2 0x4081 JUMP JUMPDEST SLOAD SWAP2 PUSH2 0x1C6F PUSH1 0xFF DUP5 AND DUP3 PUSH2 0x490E JUMP JUMPDEST PUSH2 0x1C83 PUSH1 0xFF PUSH1 0x20 DUP4 ADD SWAP5 PUSH1 0x8 SHR AND DUP5 PUSH2 0x491A JUMP JUMPDEST MLOAD SWAP2 DUP4 DUP4 LT ISZERO PUSH2 0x197F JUMPI MLOAD SWAP3 PUSH1 0x3 DUP5 LT ISZERO PUSH2 0x773 JUMPI POP PUSH2 0x5E9 SWAP1 MLOAD SWAP3 DUP4 SWAP3 DUP4 PUSH2 0x4520 JUMP JUMPDEST DUP3 CALLVALUE PUSH2 0x369 JUMPI DUP1 PUSH1 0x3 NOT CALLDATASIZE ADD SLT PUSH2 0x369 JUMPI DUP2 CALLDATALOAD SWAP1 PUSH1 0x24 CALLDATALOAD PUSH1 0x6 DUP2 LT ISZERO PUSH2 0x369 JUMPI PUSH2 0x1CDB PUSH1 0x1 DUP1 PUSH1 0xA0 SHL SUB PUSH0 SLOAD AND CALLER EQ PUSH2 0x47C2 JUMP JUMPDEST DUP3 PUSH0 MSTORE PUSH1 0x20 PUSH1 0x2 DUP2 MSTORE PUSH1 0xFF DUP4 PUSH0 KECCAK256 SLOAD AND PUSH1 0x6 DUP2 LT ISZERO PUSH2 0x1DE5 JUMPI ISZERO PUSH2 0x1DAD JUMPI DUP4 PUSH0 MSTORE PUSH1 0x2 DUP2 MSTORE PUSH1 0xFF DUP4 PUSH0 KECCAK256 SLOAD AND SWAP5 PUSH1 0x6 DUP7 LT ISZERO PUSH2 0x773 JUMPI DUP3 DUP7 EQ PUSH2 0x1D76 JUMPI POP SWAP1 PUSH2 0x1D49 SWAP2 DUP5 PUSH0 MSTORE PUSH1 0x2 DUP2 MSTORE DUP4 PUSH0 KECCAK256 PUSH1 0xFF NOT DUP2 SLOAD AND PUSH1 0xFF DUP5 AND OR SWAP1 SSTORE PUSH2 0x1D41 DUP5 MLOAD DUP1 SWAP8 PUSH2 0x44F2 JUMP JUMPDEST DUP6 ADD SWAP1 PUSH2 0x44F2 JUMP JUMPDEST TIMESTAMP SWAP1 DUP4 ADD MSTORE PUSH32 0xF6277C6EE46649823DB9A5C531DB3112B4340C67179CAE1932BA3420DCC37CC7 PUSH1 0x60 CALLER SWAP4 LOG3 STOP JUMPDEST PUSH1 0x64 SWAP2 DUP5 MLOAD SWAP2 PUSH3 0x461BCD PUSH1 0xE5 SHL DUP4 MSTORE DUP3 ADD MSTORE PUSH1 0x13 PUSH1 0x24 DUP3 ADD MSTORE PUSH19 0x416C7265616479207468697320737461747573 PUSH1 0x68 SHL PUSH1 0x44 DUP3 ADD MSTORE REVERT JUMPDEST DUP5 PUSH1 0x64 SWAP2 DUP5 MLOAD SWAP2 PUSH3 0x461BCD PUSH1 0xE5 SHL DUP4 MSTORE DUP3 ADD MSTORE PUSH1 0x13 PUSH1 0x24 DUP3 ADD MSTORE PUSH19 0x155CD95C881B9BDD081C9959DA5CDD195C9959 PUSH1 0x6A SHL PUSH1 0x44 DUP3 ADD MSTORE REVERT JUMPDEST PUSH1 0x21 DUP7 PUSH4 0x4E487B71 PUSH1 0xE0 SHL PUSH0 MSTORE MSTORE PUSH1 0x24 PUSH0 REVERT JUMPDEST DUP3 CALLVALUE PUSH2 0x369 JUMPI PUSH2 0x1E07 CALLDATASIZE PUSH2 0x437B JUMP JUMPDEST SWAP2 SWAP1 PUSH0 MSTORE PUSH1 0x3 PUSH1 0x20 MSTORE DUP1 PUSH0 KECCAK256 DUP1 SLOAD DUP4 LT ISZERO PUSH2 0x369 JUMPI PUSH1 0x20 SWAP3 PUSH2 0x1E28 SWAP2 PUSH2 0x44C9 JUMP JUMPDEST PUSH1 0x1 DUP1 PUSH1 0xA0 SHL SUB SWAP2 SLOAD SWAP1 PUSH1 0x3 SHL SHR AND SWAP1 MLOAD SWAP1 DUP2 MSTORE RETURN JUMPDEST DUP3 CALLVALUE PUSH2 0x369 JUMPI PUSH2 0x1E4D CALLDATASIZE PUSH2 0x437B JUMP JUMPDEST SWAP2 SWAP1 PUSH0 MSTORE PUSH1 0x9 PUSH1 0x20 MSTORE DUP1 PUSH0 KECCAK256 DUP1 SLOAD DUP4 LT ISZERO PUSH2 0x369 JUMPI PUSH1 0x20 SWAP3 PUSH2 0x35B SWAP2 PUSH2 0x44C9 JUMP JUMPDEST DUP3 CALLVALUE PUSH2 0x369 JUMPI PUSH1 0x20 CALLDATASIZE PUSH1 0x3 NOT ADD SLT PUSH2 0x369 JUMPI PUSH1 0x60 SWAP2 CALLDATALOAD PUSH0 MSTORE PUSH1 0x7 PUSH1 0x20 MSTORE DUP1 PUSH0 KECCAK256 SLOAD SWAP1 PUSH1 0x8 PUSH1 0x20 MSTORE DUP1 PUSH0 KECCAK256 SLOAD SWAP1 PUSH1 0x9 PUSH1 0x20 MSTORE DUP1 PUSH0 KECCAK256 SLOAD SWAP2 DUP2 MLOAD SWAP4 DUP5 MSTORE PUSH1 0x20 DUP5 ADD MSTORE DUP3 ADD MSTORE RETURN JUMPDEST DUP3 CALLVALUE PUSH2 0x369 JUMPI PUSH1 0x20 CALLDATASIZE PUSH1 0x3 NOT ADD SLT PUSH2 0x369 JUMPI PUSH1 0x1 PUSH1 0x1 PUSH1 0xA0 SHL SUB PUSH2 0x1ED5 PUSH2 0x4055 JUMP JUMPDEST AND PUSH0 MSTORE PUSH1 0x1 PUSH1 0x20 MSTORE DUP1 PUSH0 KECCAK256 PUSH1 0xFF PUSH1 0x1 DUP3 SLOAD SWAP3 ADD SLOAD AND DUP3 MLOAD SWAP2 DUP3 MSTORE ISZERO ISZERO PUSH1 0x20 DUP3 ADD MSTORE RETURN JUMPDEST DUP3 CALLVALUE PUSH2 0x369 JUMPI PUSH2 0x1F07 CALLDATASIZE PUSH2 0x437B JUMP JUMPDEST SWAP2 SWAP1 PUSH0 MSTORE PUSH1 0x8 PUSH1 0x20 MSTORE DUP1 PUSH0 KECCAK256 DUP1 SLOAD DUP4 LT ISZERO PUSH2 0x369 JUMPI PUSH1 0x20 SWAP3 PUSH2 0x35B SWAP2 PUSH2 0x44C9 JUMP JUMPDEST SWAP1 POP CALLVALUE PUSH2 0x369 JUMPI PUSH0 CALLDATASIZE PUSH1 0x3 NOT ADD SLT PUSH2 0x369 JUMPI PUSH32 0xF0C57E16840DF040F15088DC2F81FE391C3923BEC73E23A9662EFC9C229C6A00 SWAP1 DUP2 SLOAD PUSH1 0xFF DUP2 DUP6 SHR AND ISZERO SWAP2 PUSH1 0x1 PUSH1 0x1 PUSH1 0x40 SHL SUB DUP3 AND DUP1 ISZERO SWAP1 DUP2 PUSH2 0x203D JUMPI JUMPDEST PUSH1 0x1 EQ SWAP1 DUP2 PUSH2 0x2033 JUMPI JUMPDEST ISZERO SWAP1 DUP2 PUSH2 0x202A JUMPI JUMPDEST POP PUSH2 0x201C JUMPI POP PUSH8 0xFFFFFFFFFFFFFFFF NOT DUP2 AND PUSH1 0x1 OR DUP4 SSTORE DUP2 PUSH2 0x1FFD JUMPI JUMPDEST POP PUSH0 DUP1 SLOAD PUSH1 0x1 PUSH1 0x1 PUSH1 0xA0 SHL SUB NOT AND CALLER OR SWAP1 SSTORE PUSH2 0x1FC0 JUMPI STOP JUMPDEST DUP1 SLOAD PUSH9 0xFF0000000000000000 NOT AND SWAP1 SSTORE MLOAD PUSH1 0x1 DUP2 MSTORE PUSH32 0xC7F505B2F371AE2175EE4913F4499E1F2633A7B5936321EED1CDAEB6115181D2 SWAP1 PUSH1 0x20 SWAP1 LOG1 STOP JUMPDEST PUSH9 0xFFFFFFFFFFFFFFFFFF NOT AND PUSH9 0x10000000000000001 OR DUP3 SSTORE PUSH0 PUSH2 0x1FA8 JUMP JUMPDEST DUP5 MLOAD PUSH4 0xF92EE8A9 PUSH1 0xE0 SHL DUP2 MSTORE REVERT JUMPDEST SWAP1 POP ISZERO PUSH0 PUSH2 0x1F8B JUMP JUMPDEST ADDRESS EXTCODESIZE ISZERO SWAP2 POP PUSH2 0x1F83 JUMP JUMPDEST DUP5 SWAP2 POP PUSH2 0x1F79 JUMP JUMPDEST DUP3 CALLVALUE PUSH2 0x369 JUMPI PUSH2 0x5E9 SWAP1 PUSH2 0x2058 CALLDATASIZE PUSH2 0x437B JUMP JUMPDEST SWAP1 PUSH0 MSTORE PUSH1 0xE PUSH1 0x20 MSTORE DUP2 PUSH0 KECCAK256 SWAP1 PUSH0 MSTORE PUSH1 0x20 MSTORE DUP1 PUSH0 KECCAK256 SLOAD SWAP1 MLOAD SWAP2 DUP2 PUSH1 0xFF DUP1 DUP6 SWAP5 PUSH1 0x8 SHR AND SWAP2 AND DUP4 PUSH2 0x4520 JUMP JUMPDEST DUP3 CALLVALUE PUSH2 0x369 JUMPI PUSH0 CALLDATASIZE PUSH1 0x3 NOT ADD SLT PUSH2 0x369 JUMPI PUSH1 0x20 SWAP1 PUSH1 0xB SLOAD SWAP1 MLOAD SWAP1 DUP2 MSTORE RETURN JUMPDEST DUP3 CALLVALUE PUSH2 0x369 JUMPI PUSH1 0x20 CALLDATASIZE PUSH1 0x3 NOT ADD SLT PUSH2 0x369 JUMPI PUSH1 0x20 SWAP1 PUSH2 0x20BD PUSH2 0x4055 JUMP JUMPDEST PUSH0 SLOAD SWAP2 SWAP1 PUSH1 0x1 PUSH1 0x1 PUSH1 0xA0 SHL SUB DUP1 DUP5 AND SWAP2 PUSH32 0x38DF5FA0F7FEF0D515CA1F5388CB5790AC5885D5FCA8D05D9F943E563C33A4B3 SWAP2 SWAP1 PUSH2 0x20FB CALLER DUP6 EQ PUSH2 0x47C2 JUMP JUMPDEST AND SWAP5 DUP6 SWAP4 PUSH2 0x210A DUP6 ISZERO ISZERO PUSH2 0x4CC2 JUMP JUMPDEST MLOAD TIMESTAMP DUP2 MSTORE LOG3 PUSH1 0x1 PUSH1 0x1 PUSH1 0xA0 SHL SUB NOT AND OR PUSH0 SSTORE STOP JUMPDEST SWAP1 POP CALLVALUE PUSH2 0x369 JUMPI PUSH2 0x212E CALLDATASIZE PUSH2 0x4339 JUMP JUMPDEST SWAP4 SWAP1 SWAP3 PUSH1 0x1 DUP1 PUSH1 0xA0 SHL SUB PUSH2 0x2146 DUP2 PUSH0 SLOAD AND CALLER EQ PUSH2 0x47C2 JUMP JUMPDEST PUSH2 0x2151 DUP5 ISZERO ISZERO PUSH2 0x495D JUMP JUMPDEST DUP5 AND PUSH2 0x215E DUP2 ISZERO ISZERO PUSH2 0x4B7D JUMP JUMPDEST PUSH2 0x216A PUSH2 0x9B2 DUP8 PUSH2 0x50F1 JUMP JUMPDEST PUSH0 MSTORE PUSH1 0x1 PUSH1 0x20 SWAP2 DUP2 DUP4 MSTORE PUSH2 0x218C DUP5 PUSH0 KECCAK256 SLOAD SWAP7 PUSH2 0x2187 DUP9 ISZERO ISZERO PUSH2 0x47FB JUMP JUMPDEST PUSH2 0x4D3D JUMP JUMPDEST ISZERO PUSH2 0x242D JUMPI DUP5 PUSH0 MSTORE PUSH1 0x7 DUP4 MSTORE DUP4 PUSH0 KECCAK256 SLOAD ISZERO DUP1 PUSH2 0x241E JUMPI JUMPDEST ISZERO PUSH2 0x23DB JUMPI PUSH2 0x21B2 DUP7 DUP7 PUSH2 0x4FE4 JUMP JUMPDEST SWAP2 DUP3 PUSH0 MSTORE PUSH1 0x6 DUP5 MSTORE DUP5 PUSH0 KECCAK256 SWAP3 PUSH2 0x21C7 DUP5 PUSH2 0x43C9 JUMP JUMPDEST SWAP3 PUSH1 0xFF DUP4 DUP6 MLOAD ISZERO SWAP7 ADD SLOAD AND SWAP3 DUP8 MLOAD SWAP2 PUSH2 0x21DF DUP4 PUSH2 0x4081 JUMP JUMPDEST DUP12 DUP4 MSTORE DUP8 DUP4 ADD SWAP1 DUP3 DUP3 MSTORE DUP5 PUSH0 MSTORE PUSH1 0x6 DUP10 MSTORE DUP10 PUSH0 KECCAK256 SWAP4 MLOAD DUP1 MLOAD SWAP2 PUSH1 0x1 PUSH1 0x1 PUSH1 0x40 SHL SUB DUP4 GT PUSH2 0x23C8 JUMPI POP PUSH2 0x2211 DUP6 SLOAD PUSH2 0x4391 JUMP JUMPDEST PUSH1 0x1F DUP2 GT PUSH2 0x2382 JUMPI JUMPDEST POP DUP10 SWAP1 PUSH1 0x1F DUP4 GT PUSH1 0x1 EQ PUSH2 0x231B JUMPI PUSH2 0x2261 SWAP6 SWAP5 SWAP4 SWAP3 SWAP2 PUSH0 SWAP2 DUP4 PUSH2 0x2310 JUMPI JUMPDEST POP POP PUSH0 NOT PUSH1 0x3 DUP4 SWAP1 SHL SHR NOT AND SWAP1 DUP4 SHL OR DUP4 SSTORE JUMPDEST MLOAD ISZERO ISZERO SWAP2 ADD SWAP1 PUSH1 0xFF DUP1 NOT DUP4 SLOAD AND SWAP2 ISZERO ISZERO AND OR SWAP1 SSTORE JUMP JUMPDEST PUSH0 MSTORE PUSH1 0xD DUP5 MSTORE PUSH0 DUP6 DUP2 KECCAK256 SSTORE ISZERO PUSH0 EQ PUSH2 0x22E3 JUMPI POP SWAP2 DUP6 SWAP2 PUSH32 0xF9D17EB1340AB78960B594FF8BED1349985B800EE21199C6D5EA4A67454593AD SWAP4 PUSH2 0x22A5 PUSH0 SWAP9 DUP9 DUP9 PUSH2 0x546E JUMP JUMPDEST PUSH2 0x22BD JUMPI JUMPDEST PUSH2 0xECF DUP3 MLOAD SWAP4 DUP4 DUP6 SWAP5 DUP6 MSTORE DUP5 ADD SWAP1 PUSH2 0x446B JUMP JUMPDEST DUP6 DUP8 MSTORE PUSH1 0xA DUP2 MSTORE PUSH2 0x22D0 DUP6 DUP4 DUP10 KECCAK256 PUSH2 0x472E JUMP JUMPDEST PUSH2 0x22DB PUSH1 0xB SLOAD PUSH2 0x476A JUMP JUMPDEST PUSH1 0xB SSTORE PUSH2 0x22AA JUMP JUMPDEST SWAP6 SWAP5 SWAP4 SWAP3 POP POP DUP5 MLOAD DUP2 DUP7 ADD KECCAK256 SWAP1 DUP5 MLOAD SWAP1 DUP6 ADD KECCAK256 SUB PUSH2 0x22FD JUMPI STOP JUMPDEST PUSH2 0x230B PUSH2 0x557 SWAP5 DUP4 DUP4 PUSH2 0x5018 JUMP JUMPDEST PUSH2 0x546E JUMP JUMPDEST ADD MLOAD SWAP1 POP PUSH0 DUP1 PUSH2 0x2238 JUMP JUMPDEST SWAP1 PUSH1 0x1F NOT DUP4 AND SWAP2 DUP7 PUSH0 MSTORE DUP12 PUSH0 KECCAK256 SWAP3 PUSH0 JUMPDEST DUP14 DUP3 DUP3 LT PUSH2 0x236E JUMPI POP POP SWAP2 DUP7 SWAP6 SWAP5 SWAP3 SWAP2 DUP4 PUSH2 0x2261 SWAP10 SWAP9 SWAP6 SWAP4 LT PUSH2 0x2356 JUMPI JUMPDEST POP POP POP DUP2 SHL ADD DUP4 SSTORE PUSH2 0x224B JUMP JUMPDEST ADD MLOAD PUSH0 NOT PUSH1 0xF8 DUP5 PUSH1 0x3 SHL AND SHR NOT AND SWAP1 SSTORE PUSH0 DUP1 DUP1 PUSH2 0x2349 JUMP JUMPDEST DUP4 DUP6 ADD MLOAD DUP7 SSTORE SWAP5 DUP9 ADD SWAP5 SWAP4 DUP5 ADD SWAP4 ADD PUSH2 0x232B JUMP JUMPDEST DUP6 PUSH0 MSTORE DUP11 PUSH0 KECCAK256 PUSH1 0x1F DUP5 ADD PUSH1 0x5 SHR DUP2 ADD SWAP2 DUP13 DUP6 LT PUSH2 0x23BE JUMPI JUMPDEST PUSH1 0x1F ADD PUSH1 0x5 SHR ADD SWAP1 DUP6 SWAP1 JUMPDEST DUP3 DUP2 LT PUSH2 0x23B3 JUMPI POP POP PUSH2 0x221A JUMP JUMPDEST PUSH0 DUP2 SSTORE ADD DUP6 SWAP1 PUSH2 0x23A5 JUMP JUMPDEST SWAP1 SWAP2 POP DUP2 SWAP1 PUSH2 0x239A JUMP JUMPDEST PUSH1 0x41 SWAP1 PUSH4 0x4E487B71 PUSH1 0xE0 SHL PUSH0 MSTORE MSTORE PUSH1 0x24 PUSH0 REVERT JUMPDEST DUP4 MLOAD PUSH3 0x461BCD PUSH1 0xE5 SHL DUP2 MSTORE SWAP1 DUP2 ADD DUP4 SWAP1 MSTORE PUSH1 0x1A PUSH1 0x24 DUP3 ADD MSTORE PUSH32 0x5265636F726420616C726561647920696E697469616C697A6564000000000000 PUSH1 0x44 DUP3 ADD MSTORE PUSH1 0x64 SWAP1 REVERT JUMPDEST POP PUSH1 0x8 DUP4 MSTORE DUP4 PUSH0 KECCAK256 SLOAD ISZERO PUSH2 0x21A3 JUMP JUMPDEST DUP4 MLOAD PUSH3 0x461BCD PUSH1 0xE5 SHL DUP2 MSTORE SWAP1 DUP2 ADD DUP4 SWAP1 MSTORE PUSH1 0x18 PUSH1 0x24 DUP3 ADD MSTORE PUSH32 0x4D75737420626520616E20616374697665206D656D6265720000000000000000 PUSH1 0x44 DUP3 ADD MSTORE PUSH1 0x64 SWAP1 REVERT JUMPDEST DUP3 CALLVALUE PUSH2 0x369 JUMPI DUP1 PUSH1 0x3 NOT CALLDATASIZE ADD SLT PUSH2 0x369 JUMPI PUSH1 0x1 PUSH1 0x1 PUSH1 0x40 SHL SUB SWAP1 DUP3 CALLDATALOAD DUP3 DUP2 GT PUSH2 0x369 JUMPI CALLDATASIZE PUSH1 0x23 DUP3 ADD SLT ISZERO PUSH2 0x369 JUMPI DUP1 DUP5 ADD CALLDATALOAD SWAP3 DUP4 GT PUSH2 0x369 JUMPI PUSH1 0x24 PUSH1 0x5 SWAP5 CALLDATASIZE PUSH1 0x24 DUP7 PUSH1 0x5 SHL DUP6 ADD ADD GT PUSH2 0x369 JUMPI PUSH0 SLOAD PUSH1 0x1 PUSH1 0x1 PUSH1 0xA0 SHL SUB SWAP7 PUSH1 0x24 CALLDATALOAD SWAP6 SWAP2 PUSH2 0x24DA SWAP1 DUP10 AND CALLER EQ PUSH2 0x47C2 JUMP JUMPDEST DUP7 ISZERO PUSH2 0x2635 JUMPI PUSH2 0x24EB DUP7 ISZERO ISZERO PUSH2 0x4BC2 JUMP JUMPDEST DUP6 PUSH0 MSTORE PUSH1 0x2 SWAP4 PUSH1 0x20 SWAP4 PUSH1 0x2 DUP6 MSTORE PUSH1 0xFF DUP5 PUSH0 KECCAK256 SLOAD AND SWAP1 PUSH1 0x6 DUP3 LT ISZERO PUSH2 0x773 JUMPI POP ISZERO SWAP6 PUSH0 JUMPDEST DUP10 DUP2 LT PUSH2 0x2517 JUMPI STOP JUMPDEST DUP3 DUP2 DUP6 SHL DUP4 ADD ADD CALLDATALOAD SWAP1 DUP12 DUP3 AND SWAP2 DUP3 DUP2 SUB PUSH2 0x369 JUMPI DUP3 PUSH2 0x259D DUP13 SWAP3 PUSH2 0x253E PUSH1 0x1 SWAP7 ISZERO ISZERO PUSH2 0x4B7D JUMP JUMPDEST DUP3 PUSH0 MSTORE PUSH2 0x258E DUP7 DUP1 DUP14 MSTORE PUSH2 0x2555 DUP13 PUSH0 KECCAK256 SLOAD ISZERO PUSH2 0x4C05 JUMP JUMPDEST DUP12 MLOAD SWAP1 PUSH2 0x2561 DUP3 PUSH2 0x4081 JUMP JUMPDEST DUP7 DUP3 MSTORE DUP14 DUP2 DUP2 DUP5 ADD SWAP2 DUP2 DUP4 MSTORE DUP9 PUSH0 MSTORE MSTORE DUP14 PUSH0 KECCAK256 SWAP3 MLOAD DUP4 SSTORE MLOAD ISZERO ISZERO SWAP2 ADD SWAP1 PUSH1 0xFF DUP1 NOT DUP4 SLOAD AND SWAP2 ISZERO ISZERO AND OR SWAP1 SSTORE JUMP JUMPDEST DUP4 PUSH0 MSTORE PUSH1 0x3 DUP12 MSTORE DUP10 PUSH0 KECCAK256 PUSH2 0x46AC JUMP JUMPDEST DUP3 ISZERO DUP1 PUSH2 0x262E JUMPI JUMPDEST ISZERO PUSH2 0x2601 JUMPI DUP2 PUSH0 MSTORE DUP10 DUP10 MSTORE DUP8 PUSH0 KECCAK256 DUP11 PUSH1 0xFF NOT DUP3 SLOAD AND OR SWAP1 SSTORE PUSH2 0x25C6 DUP3 PUSH2 0x46E7 JUMP JUMPDEST PUSH2 0x25D0 DUP8 SLOAD PUSH2 0x476A JUMP JUMPDEST DUP8 SSTORE PUSH32 0x39D132591EE0696DE49AB564E4A90E430C006561917DB731A2A614DD2D245591 DUP10 DUP10 MLOAD TIMESTAMP DUP2 MSTORE LOG3 JUMPDEST ADD PUSH2 0x250E JUMP JUMPDEST PUSH32 0x1CC138F50384BE7770A8E4A34EECAA0D0C718BFAA1641AF49DB32532E4A5B910 DUP10 DUP10 MLOAD TIMESTAMP DUP2 MSTORE LOG3 PUSH2 0x25FB JUMP JUMPDEST POP DUP11 PUSH2 0x25A5 JUMP JUMPDEST DUP2 MLOAD PUSH3 0x461BCD PUSH1 0xE5 SHL DUP2 MSTORE PUSH1 0x20 DUP2 DUP6 ADD MSTORE PUSH1 0x13 PUSH1 0x24 DUP3 ADD MSTORE PUSH19 0x139BC81DD85B1B195D1CC81C1C9BDD9A591959 PUSH1 0x6A SHL PUSH1 0x44 DUP3 ADD MSTORE PUSH1 0x64 SWAP1 REVERT JUMPDEST SWAP1 POP CALLVALUE PUSH2 0x369 JUMPI PUSH1 0x20 SWAP1 PUSH1 0x20 PUSH1 0x3 NOT CALLDATASIZE ADD SLT PUSH2 0x369 JUMPI CALLDATALOAD PUSH0 MSTORE PUSH1 0xA PUSH1 0x20 MSTORE DUP2 PUSH0 KECCAK256 SWAP2 DUP1 MLOAD SWAP2 DUP3 PUSH1 0x20 DUP6 SLOAD SWAP2 DUP3 DUP2 MSTORE ADD SWAP5 PUSH0 MSTORE PUSH1 0x20 PUSH0 KECCAK256 SWAP2 PUSH0 SWAP1 JUMPDEST DUP3 DUP3 LT PUSH2 0x26C0 JUMPI PUSH2 0x5E9 DUP7 DUP7 PUSH2 0x8D6 DUP3 DUP12 SUB DUP4 PUSH2 0x40E6 JUMP JUMPDEST DUP4 SLOAD DUP8 MSTORE SWAP6 DUP7 ADD SWAP6 PUSH1 0x1 SWAP4 DUP5 ADD SWAP4 SWAP1 SWAP2 ADD SWAP1 PUSH2 0x26A8 JUMP JUMPDEST DUP3 CALLVALUE PUSH2 0x369 JUMPI PUSH1 0x20 SWAP1 PUSH2 0x12A9 PUSH2 0x26EC CALLDATASIZE PUSH2 0x437B JUMP JUMPDEST SWAP1 PUSH2 0x52E1 JUMP JUMPDEST DUP3 CALLVALUE PUSH2 0x369 JUMPI PUSH2 0x2701 CALLDATASIZE PUSH2 0x437B JUMP JUMPDEST SWAP2 SWAP1 PUSH0 MSTORE PUSH1 0x7 PUSH1 0x20 MSTORE DUP1 PUSH0 KECCAK256 DUP1 SLOAD DUP4 LT ISZERO PUSH2 0x369 JUMPI PUSH1 0x20 SWAP3 PUSH2 0x35B SWAP2 PUSH2 0x44C9 JUMP JUMPDEST DUP3 CALLVALUE PUSH2 0x369 JUMPI PUSH2 0x2731 CALLDATASIZE PUSH2 0x437B JUMP JUMPDEST SWAP1 PUSH0 MSTORE PUSH1 0xE PUSH1 0x20 MSTORE DUP2 PUSH0 KECCAK256 SWAP1 PUSH0 MSTORE PUSH1 0x20 MSTORE DUP1 PUSH0 KECCAK256 SWAP1 DUP1 MLOAD SWAP2 PUSH2 0x2752 DUP4 PUSH2 0x4081 JUMP JUMPDEST SLOAD SWAP2 PUSH2 0x2761 PUSH1 0xFF DUP5 AND DUP3 PUSH2 0x490E JUMP JUMPDEST PUSH2 0x2775 PUSH1 0xFF PUSH1 0x20 DUP4 ADD SWAP5 PUSH1 0x8 SHR AND DUP5 PUSH2 0x491A JUMP JUMPDEST MLOAD DUP4 DUP2 LT ISZERO PUSH2 0x197F JUMPI PUSH1 0x2 EQ SWAP2 DUP3 PUSH2 0x2794 JUMPI JUMPDEST PUSH1 0x20 DUP4 DUP4 MLOAD SWAP1 ISZERO ISZERO DUP2 MSTORE RETURN JUMPDEST SWAP1 SWAP2 POP MLOAD SWAP2 PUSH1 0x3 DUP4 LT ISZERO PUSH2 0x773 JUMPI POP PUSH1 0x2 PUSH1 0x20 SWAP3 EQ SWAP1 DUP4 PUSH2 0x2788 JUMP JUMPDEST DUP3 CALLVALUE PUSH2 0x369 JUMPI PUSH0 CALLDATASIZE PUSH1 0x3 NOT ADD SLT PUSH2 0x369 JUMPI PUSH32 0x0 PUSH1 0x1 PUSH1 0x1 PUSH1 0xA0 SHL SUB AND ADDRESS SUB PUSH2 0x281A JUMPI PUSH1 0x20 SWAP1 MLOAD PUSH32 0x360894A13BA1A3210667C828492DB98DCA3E2076CC3735A920A3CA505D382BBC DUP2 MSTORE RETURN JUMPDEST MLOAD PUSH4 0x703E46DD PUSH1 0xE1 SHL DUP2 MSTORE REVERT JUMPDEST DUP3 CALLVALUE PUSH2 0x369 JUMPI PUSH2 0x2836 CALLDATASIZE PUSH2 0x41E1 JUMP JUMPDEST SWAP1 PUSH2 0x2843 PUSH2 0x408 CALLER PUSH2 0x4D3D JUMP JUMPDEST PUSH2 0x2850 DUP4 MLOAD DUP4 MLOAD EQ PUSH2 0x4583 JUMP JUMPDEST CALLER PUSH0 MSTORE PUSH1 0x1 SWAP4 PUSH1 0x20 SWAP2 DUP6 DUP4 MSTORE DUP2 PUSH0 KECCAK256 SLOAD SWAP1 PUSH1 0x1 DUP1 PUSH1 0xA0 SHL SUB AND PUSH0 MSTORE DUP2 PUSH0 KECCAK256 SLOAD SWAP1 PUSH2 0x287B DUP3 ISZERO ISZERO PUSH2 0x45C7 JUMP JUMPDEST DUP7 PUSH0 SWAP7 DUP4 DUP4 EQ SWAP2 JUMPDEST PUSH2 0x2889 JUMPI STOP JUMPDEST DUP1 MLOAD DUP9 LT ISZERO PUSH2 0x557 JUMPI DUP9 DUP9 PUSH2 0x289F DUP3 SWAP11 DUP5 PUSH2 0x478C JUMP JUMPDEST MLOAD PUSH2 0x28AA DUP3 DUP12 PUSH2 0x478C JUMP JUMPDEST MLOAD PUSH2 0x28B4 DUP2 PUSH2 0x50F1 JUMP JUMPDEST ISZERO PUSH2 0x2ADC JUMPI PUSH2 0x28C3 DUP8 DUP4 PUSH2 0x4FE4 JUMP JUMPDEST PUSH0 MSTORE PUSH1 0x6 DUP1 DUP12 MSTORE PUSH1 0xFF DUP1 DUP7 DUP13 PUSH0 KECCAK256 ADD SLOAD AND ISZERO PUSH2 0x2AD3 JUMPI PUSH2 0x28E3 DUP11 DUP6 PUSH2 0x4FE4 JUMP JUMPDEST PUSH0 MSTORE DUP2 DUP13 MSTORE DUP6 DUP12 PUSH0 KECCAK256 ADD SLOAD AND ISZERO PUSH2 0x2ACB JUMPI PUSH2 0x28FE DUP10 DUP5 PUSH2 0x4FE4 JUMP JUMPDEST PUSH0 MSTORE DUP11 MSTORE PUSH2 0x290D DUP10 PUSH0 KECCAK256 PUSH2 0x43C9 JUMP JUMPDEST SWAP1 DUP9 DUP9 DUP13 DUP5 MLOAD DUP2 DUP7 ADD KECCAK256 DUP14 DUP6 MLOAD DUP4 DUP8 ADD KECCAK256 SWAP1 DUP2 DUP4 EQ PUSH2 0x2A0B JUMPI PUSH2 0x292E PUSH2 0x4A8F JUMP JUMPDEST DUP5 DUP2 MLOAD SWAP2 ADD KECCAK256 DUP4 EQ PUSH2 0x2A0B JUMPI DUP9 PUSH0 MSTORE PUSH1 0x7 DUP5 MSTORE PUSH0 KECCAK256 SLOAD ISZERO SWAP2 DUP3 ISZERO PUSH2 0x295A PUSH2 0x2953 PUSH2 0x4A8F JUMP JUMPDEST DUP8 DUP13 PUSH2 0x5149 JUMP JUMPDEST SWAP1 PUSH2 0x296D PUSH2 0x2966 PUSH2 0x4AB0 JUMP JUMPDEST DUP9 DUP14 PUSH2 0x5149 JUMP JUMPDEST SWAP1 PUSH2 0x2976 PUSH2 0x4A8F JUMP JUMPDEST DUP1 MLOAD SWAP1 DUP9 ADD KECCAK256 DUP6 SUB PUSH2 0x2A2D JUMPI ISZERO PUSH2 0x2A19 JUMPI POP ISZERO PUSH2 0x2A0B JUMPI JUMPDEST PUSH2 0x2996 PUSH2 0x4AB0 JUMP JUMPDEST DUP5 DUP2 MLOAD SWAP2 ADD KECCAK256 EQ SWAP3 DUP4 PUSH2 0x29F1 JUMPI JUMPDEST POP POP DUP2 PUSH2 0x29E9 JUMPI JUMPDEST POP DUP1 PUSH2 0x29D1 JUMPI JUMPDEST PUSH2 0x29C7 JUMPI PUSH2 0x29C0 SWAP5 PUSH2 0x51A7 JUMP JUMPDEST ADD SWAP8 PUSH2 0x2883 JUMP JUMPDEST POP POP POP POP POP PUSH2 0x29C0 JUMP JUMPDEST POP POP POP DUP3 PUSH0 MSTORE PUSH1 0x8 DUP12 MSTORE DUP9 DUP9 DUP7 DUP13 PUSH0 KECCAK256 SLOAD GT ISZERO PUSH2 0x29B3 JUMP JUMPDEST SWAP1 POP PUSH0 PUSH2 0x29AC JUMP JUMPDEST SWAP1 SWAP2 SWAP3 POP PUSH2 0x29FD PUSH2 0x47A0 JUMP JUMPDEST DUP1 MLOAD SWAP2 ADD KECCAK256 EQ SWAP1 PUSH0 DUP16 PUSH2 0x29A4 JUMP JUMPDEST POP POP POP POP POP POP POP POP POP PUSH2 0x29C0 JUMP JUMPDEST SWAP1 POP PUSH2 0x298E JUMPI POP POP POP POP POP POP POP POP POP PUSH2 0x29C0 JUMP JUMPDEST PUSH2 0x2A38 SWAP3 SWAP2 SWAP3 PUSH2 0x4AB0 JUMP JUMPDEST DUP1 MLOAD SWAP1 DUP9 ADD KECCAK256 DUP6 SUB PUSH2 0x2A6A JUMPI POP ISZERO SWAP1 DUP2 PUSH2 0x2A61 JUMPI JUMPDEST POP ISZERO PUSH2 0x298E JUMPI POP POP POP POP POP POP POP POP POP PUSH2 0x29C0 JUMP JUMPDEST SWAP1 POP ISZERO PUSH0 PUSH2 0x2A4D JUMP JUMPDEST PUSH2 0x2A72 PUSH2 0x47A0 JUMP JUMPDEST DUP8 DUP2 MLOAD SWAP2 ADD KECCAK256 DUP6 EQ PUSH2 0x2A87 JUMPI JUMPDEST POP POP POP PUSH2 0x298E JUMP JUMPDEST ISZERO PUSH2 0x2AB8 JUMPI ISZERO SWAP1 DUP2 PUSH2 0x2AA2 JUMPI JUMPDEST POP PUSH2 0x2A0B JUMPI JUMPDEST PUSH0 DUP1 DUP1 PUSH2 0x2A7F JUMP JUMPDEST SWAP1 POP DUP1 PUSH2 0x2AB1 JUMPI JUMPDEST ISZERO PUSH0 PUSH2 0x2A94 JUMP JUMPDEST POP DUP13 PUSH2 0x2AAA JUMP JUMPDEST POP PUSH2 0x2A9A JUMPI POP POP POP POP POP POP POP POP POP PUSH2 0x29C0 JUMP JUMPDEST POP POP POP PUSH2 0x29C0 JUMP JUMPDEST POP POP POP POP PUSH2 0x29C0 JUMP JUMPDEST POP POP PUSH2 0x29C0 JUMP JUMPDEST SWAP1 POP DUP2 PUSH1 0x3 NOT CALLDATASIZE ADD SLT PUSH2 0x369 JUMPI PUSH2 0x2AF8 PUSH2 0x4055 JUMP JUMPDEST SWAP2 PUSH1 0x24 CALLDATALOAD PUSH1 0x1 PUSH1 0x1 PUSH1 0x40 SHL SUB DUP2 GT PUSH2 0x369 JUMPI CALLDATASIZE PUSH1 0x23 DUP3 ADD SLT ISZERO PUSH2 0x369 JUMPI PUSH2 0x2B28 SWAP1 CALLDATASIZE SWAP1 PUSH1 0x24 DUP2 DUP7 ADD CALLDATALOAD SWAP2 ADD PUSH2 0x417E JUMP JUMPDEST SWAP1 PUSH1 0x1 PUSH1 0x1 PUSH1 0xA0 SHL SUB PUSH32 0x0 DUP2 AND ADDRESS DUP2 EQ SWAP1 DUP2 ISZERO PUSH2 0x2CB2 JUMPI JUMPDEST POP PUSH2 0x2CA2 JUMPI PUSH2 0x2B72 DUP2 PUSH0 SLOAD AND CALLER EQ PUSH2 0x47C2 JUMP JUMPDEST DUP5 AND SWAP2 DUP2 MLOAD SWAP5 PUSH4 0x52D1902D PUSH1 0xE0 SHL DUP7 MSTORE PUSH1 0x20 DUP7 DUP7 DUP2 DUP8 GAS STATICCALL PUSH0 SWAP7 DUP2 PUSH2 0x2C6E JUMPI JUMPDEST POP PUSH2 0x2BAE JUMPI POP POP MLOAD PUSH4 0x4C9C8CE3 PUSH1 0xE0 SHL DUP2 MSTORE SWAP2 DUP3 ADD MSTORE PUSH1 0x24 SWAP2 POP REVERT JUMPDEST DUP4 DUP6 SWAP4 DUP8 PUSH32 0x360894A13BA1A3210667C828492DB98DCA3E2076CC3735A920A3CA505D382BBC SWAP1 DUP2 DUP2 SUB PUSH2 0x2C58 JUMPI POP DUP4 EXTCODESIZE ISZERO PUSH2 0x2C41 JUMPI DUP1 SLOAD PUSH1 0x1 PUSH1 0x1 PUSH1 0xA0 SHL SUB NOT AND DUP4 OR SWAP1 SSTORE MLOAD SWAP1 PUSH32 0xBC7CD75A20EE27FD9ADEBAB32041F755214DBC6BFFA90CC0225B39DA2E5C2D3B PUSH0 DUP1 LOG2 DUP3 MLOAD ISZERO PUSH2 0x2C2B JUMPI POP PUSH2 0x557 SWAP3 POP PUSH2 0x5588 JUMP JUMPDEST SWAP2 POP POP CALLVALUE PUSH2 0x2C35 JUMPI STOP JUMPDEST PUSH4 0xB398979F PUSH1 0xE0 SHL DUP2 MSTORE REVERT JUMPDEST DUP2 MLOAD PUSH4 0x4C9C8CE3 PUSH1 0xE0 SHL DUP2 MSTORE DUP1 DUP8 ADD DUP5 SWAP1 MSTORE PUSH1 0x24 SWAP1 REVERT JUMPDEST DUP7 PUSH1 0x24 SWAP2 DUP5 MLOAD SWAP2 PUSH4 0x2A875269 PUSH1 0xE2 SHL DUP4 MSTORE DUP3 ADD MSTORE REVERT JUMPDEST SWAP1 SWAP7 POP PUSH1 0x20 DUP2 RETURNDATASIZE PUSH1 0x20 GT PUSH2 0x2C9A JUMPI JUMPDEST DUP2 PUSH2 0x2C8A PUSH1 0x20 SWAP4 DUP4 PUSH2 0x40E6 JUMP JUMPDEST DUP2 ADD SUB SLT PUSH2 0x369 JUMPI MLOAD SWAP6 PUSH0 PUSH2 0x2B92 JUMP JUMPDEST RETURNDATASIZE SWAP2 POP PUSH2 0x2C7D JUMP JUMPDEST DUP2 MLOAD PUSH4 0x703E46DD PUSH1 0xE1 SHL DUP2 MSTORE DUP5 SWAP1 REVERT JUMPDEST SWAP1 POP DUP2 PUSH32 0x360894A13BA1A3210667C828492DB98DCA3E2076CC3735A920A3CA505D382BBC SLOAD AND EQ ISZERO PUSH0 PUSH2 0x2B5F JUMP JUMPDEST SWAP1 POP CALLVALUE PUSH2 0x369 JUMPI PUSH2 0x2CF0 CALLDATASIZE PUSH2 0x42E9 JUMP JUMPDEST SWAP2 SWAP1 PUSH2 0x2CFE PUSH2 0x408 CALLER PUSH2 0x4D3D JUMP JUMPDEST CALLER PUSH0 MSTORE PUSH1 0x1 PUSH1 0x20 MSTORE DUP4 PUSH0 KECCAK256 SLOAD SWAP2 DUP2 PUSH0 MSTORE PUSH1 0xE PUSH1 0x20 MSTORE DUP5 PUSH0 KECCAK256 DUP4 PUSH0 MSTORE PUSH1 0x20 MSTORE DUP5 PUSH0 KECCAK256 DUP1 SLOAD PUSH1 0xFF DUP2 AND DUP4 DUP2 LT ISZERO PUSH2 0x197F JUMPI PUSH1 0x2 PUSH2 0x2D39 SWAP2 EQ PUSH2 0x4C51 JUMP JUMPDEST PUSH1 0x3 DUP7 LT ISZERO PUSH2 0x2DE2 JUMPI PUSH1 0x8 SHR PUSH1 0xFF AND SWAP2 PUSH1 0x3 DUP4 LT ISZERO PUSH2 0x773 JUMPI DUP3 PUSH1 0xFF DUP8 AND LT ISZERO PUSH2 0x2D93 JUMPI POP PUSH32 0xB36EC3C738EF8ECD9180ADDC815304762374B76E91C2A321831D9906EA119ADE PUSH2 0x1B6D DUP6 SWAP4 PUSH2 0x557 SWAP9 PUSH2 0x1B60 DUP10 DUP9 SWAP7 PUSH2 0x493E JUMP JUMPDEST PUSH1 0x84 SWAP1 PUSH1 0x20 DUP9 MLOAD SWAP2 PUSH3 0x461BCD PUSH1 0xE5 SHL DUP4 MSTORE DUP3 ADD MSTORE PUSH1 0x23 PUSH1 0x24 DUP3 ADD MSTORE PUSH32 0x43616E206F6E6C7920646F776E677261646520746F2061206C6F776572206C65 PUSH1 0x44 DUP3 ADD MSTORE PUSH3 0x1D995B PUSH1 0xEA SHL PUSH1 0x64 DUP3 ADD MSTORE REVERT JUMPDEST PUSH1 0x21 DUP4 PUSH4 0x4E487B71 PUSH1 0xE0 SHL PUSH0 MSTORE MSTORE PUSH1 0x24 PUSH0 REVERT JUMPDEST SWAP1 POP CALLVALUE PUSH2 0x369 JUMPI DUP2 PUSH1 0x3 NOT CALLDATASIZE ADD SLT PUSH2 0x369 JUMPI PUSH2 0x2E0F PUSH2 0x4055 JUMP JUMPDEST SWAP2 PUSH1 0x24 CALLDATALOAD SWAP3 PUSH1 0x1 DUP1 PUSH1 0xA0 SHL SUB PUSH2 0x2E29 DUP2 PUSH0 SLOAD AND CALLER EQ PUSH2 0x47C2 JUMP JUMPDEST DUP2 AND SWAP3 PUSH2 0x2E37 DUP5 ISZERO ISZERO PUSH2 0x4B7D JUMP JUMPDEST PUSH2 0x2E42 DUP6 ISZERO ISZERO PUSH2 0x4BC2 JUMP JUMPDEST DUP4 PUSH0 MSTORE PUSH2 0x2EA7 PUSH1 0x20 SWAP3 PUSH1 0x1 DUP5 MSTORE PUSH2 0x2E5C DUP6 PUSH0 KECCAK256 SLOAD ISZERO PUSH2 0x4C05 JUMP JUMPDEST PUSH2 0x2E98 DUP6 MLOAD PUSH2 0x2E6A DUP2 PUSH2 0x4081 JUMP JUMPDEST DUP9 DUP2 MSTORE PUSH1 0x1 DUP7 DUP3 ADD DUP2 DUP2 MSTORE DUP10 PUSH0 MSTORE DUP2 DUP9 MSTORE DUP9 PUSH0 KECCAK256 SWAP3 MLOAD DUP4 SSTORE MLOAD ISZERO ISZERO SWAP2 ADD SWAP1 PUSH1 0xFF DUP1 NOT DUP4 SLOAD AND SWAP2 ISZERO ISZERO AND OR SWAP1 SSTORE JUMP JUMPDEST DUP7 PUSH0 MSTORE PUSH1 0x3 DUP5 MSTORE DUP5 PUSH0 KECCAK256 PUSH2 0x46AC JUMP JUMPDEST DUP5 PUSH0 MSTORE PUSH1 0x2 DUP3 MSTORE PUSH1 0xFF DUP4 PUSH0 KECCAK256 SLOAD AND SWAP1 PUSH1 0x6 DUP3 LT ISZERO PUSH2 0x773 JUMPI POP PUSH2 0x2F19 JUMPI PUSH32 0x39D132591EE0696DE49AB564E4A90E430C006561917DB731A2A614DD2D245591 SWAP2 DUP5 PUSH0 MSTORE PUSH1 0x2 DUP3 MSTORE DUP1 PUSH0 KECCAK256 PUSH1 0x2 PUSH1 0xFF NOT DUP3 SLOAD AND OR SWAP1 SSTORE PUSH2 0x2F04 DUP6 PUSH2 0x46E7 JUMP JUMPDEST PUSH2 0x2F0F PUSH1 0x5 SLOAD PUSH2 0x476A JUMP JUMPDEST PUSH1 0x5 SSTORE MLOAD TIMESTAMP DUP2 MSTORE LOG3 STOP JUMPDEST PUSH32 0x1CC138F50384BE7770A8E4A34EECAA0D0C718BFAA1641AF49DB32532E4A5B910 SWAP2 MLOAD TIMESTAMP DUP2 MSTORE LOG3 STOP JUMPDEST DUP3 CALLVALUE PUSH2 0x369 JUMPI PUSH1 0x20 CALLDATASIZE PUSH1 0x3 NOT ADD SLT PUSH2 0x369 JUMPI PUSH1 0x20 SWAP1 PUSH2 0x12A9 PUSH2 0x2187 PUSH2 0x4055 JUMP JUMPDEST DUP3 CALLVALUE PUSH2 0x369 JUMPI PUSH1 0x20 SWAP1 PUSH2 0x2F77 PUSH2 0x1BCD CALLDATASIZE PUSH2 0x437B JUMP JUMPDEST PUSH0 MSTORE PUSH1 0x6 DUP3 MSTORE PUSH2 0x5E9 DUP2 PUSH0 KECCAK256 SWAP2 DUP1 MLOAD PUSH2 0x2F8F DUP2 PUSH2 0x4081 JUMP JUMPDEST PUSH1 0xFF PUSH1 0x1 PUSH2 0x2F9C DUP7 PUSH2 0x43C9 JUMP JUMPDEST SWAP6 DUP7 DUP5 MSTORE ADD SLOAD AND ISZERO ISZERO SWAP5 DUP6 SWAP2 ADD MSTORE MLOAD SWAP3 DUP4 SWAP3 DUP4 PUSH2 0x44A9 JUMP JUMPDEST DUP3 CALLVALUE PUSH2 0x369 JUMPI DUP1 PUSH1 0x3 NOT CALLDATASIZE ADD SLT PUSH2 0x369 JUMPI PUSH2 0x2FDB PUSH2 0x5E9 SWAP3 PUSH2 0x2FD4 PUSH2 0x406B JUMP JUMPDEST SWAP1 CALLDATALOAD PUSH2 0x4B05 JUMP JUMPDEST SWAP3 SWAP1 SWAP2 MLOAD SWAP3 DUP4 SWAP3 DUP4 PUSH2 0x44A9 JUMP JUMPDEST SWAP1 POP CALLVALUE PUSH2 0x369 JUMPI PUSH1 0x20 SWAP1 PUSH1 0x20 PUSH1 0x3 NOT CALLDATASIZE ADD SLT PUSH2 0x369 JUMPI CALLDATALOAD PUSH0 MSTORE PUSH1 0x8 PUSH1 0x20 MSTORE DUP2 PUSH0 KECCAK256 SWAP2 DUP1 MLOAD SWAP2 DUP3 PUSH1 0x20 DUP6 SLOAD SWAP2 DUP3 DUP2 MSTORE ADD SWAP5 PUSH0 MSTORE PUSH1 0x20 PUSH0 KECCAK256 SWAP2 PUSH0 SWAP1 JUMPDEST DUP3 DUP3 LT PUSH2 0x303A JUMPI PUSH2 0x5E9 DUP7 DUP7 PUSH2 0x8D6 DUP3 DUP12 SUB DUP4 PUSH2 0x40E6 JUMP JUMPDEST DUP4 SLOAD DUP8 MSTORE SWAP6 DUP7 ADD SWAP6 PUSH1 0x1 SWAP4 DUP5 ADD SWAP4 SWAP1 SWAP2 ADD SWAP1 PUSH2 0x3022 JUMP JUMPDEST DUP3 CALLVALUE PUSH2 0x369 JUMPI PUSH1 0x20 SWAP1 PUSH2 0x12A9 PUSH2 0x3066 CALLDATASIZE PUSH2 0x4339 JUMP JUMPDEST SWAP2 PUSH2 0x4AD9 JUMP JUMPDEST SWAP1 POP CALLVALUE PUSH2 0x369 JUMPI PUSH1 0x20 CALLDATASIZE PUSH1 0x3 NOT ADD SLT PUSH2 0x369 JUMPI CALLDATALOAD PUSH0 MSTORE PUSH1 0x6 PUSH1 0x20 MSTORE DUP1 PUSH0 KECCAK256 PUSH2 0x5E9 PUSH1 0xFF PUSH1 0x1 PUSH2 0x309A DUP5 PUSH2 0x43C9 JUMP JUMPDEST SWAP4 ADD SLOAD AND SWAP3 MLOAD SWAP3 DUP4 SWAP3 DUP4 PUSH2 0x44A9 JUMP JUMPDEST DUP3 CALLVALUE PUSH2 0x369 JUMPI PUSH2 0x30B8 CALLDATASIZE PUSH2 0x437B JUMP JUMPDEST SWAP1 PUSH0 MSTORE PUSH1 0xF PUSH1 0x20 MSTORE DUP2 PUSH0 KECCAK256 SWAP1 PUSH0 MSTORE PUSH1 0x20 MSTORE DUP1 PUSH0 KECCAK256 SWAP1 PUSH2 0x5E9 PUSH1 0x60 DUP3 MLOAD SWAP4 PUSH2 0x30DE DUP6 PUSH2 0x40B0 JUMP JUMPDEST DUP1 SLOAD SWAP4 DUP5 DUP7 MSTORE PUSH1 0x1 DUP3 ADD SLOAD SWAP6 DUP7 PUSH1 0x20 DUP3 ADD MSTORE PUSH1 0x3 PUSH1 0x2 DUP5 ADD SLOAD SWAP4 DUP5 DUP5 DUP5 ADD MSTORE ADD SLOAD SWAP4 DUP5 SWAP2 ADD MSTORE MLOAD SWAP5 DUP6 SWAP5 DUP6 SWAP1 SWAP5 SWAP4 SWAP3 PUSH1 0x60 SWAP3 PUSH1 0x80 DUP4 ADD SWAP7 DUP4 MSTORE PUSH1 0x20 DUP4 ADD MSTORE PUSH1 0x40 DUP3 ADD MSTORE ADD MSTORE JUMP JUMPDEST DUP3 CALLVALUE PUSH2 0x369 JUMPI PUSH1 0x20 DUP1 PUSH1 0x3 NOT CALLDATASIZE ADD SLT PUSH2 0x369 JUMPI DUP3 CALLDATALOAD SWAP2 PUSH2 0x3146 DUP4 ISZERO ISZERO PUSH2 0x495D JUMP JUMPDEST CALLER PUSH0 MSTORE PUSH1 0x1 DUP3 MSTORE DUP1 PUSH0 KECCAK256 SLOAD SWAP4 PUSH2 0x3164 PUSH2 0x315D PUSH2 0x4A8F JUMP JUMPDEST DUP7 DUP7 PUSH2 0x5149 JUMP JUMPDEST ISZERO PUSH2 0x3255 JUMPI DUP4 PUSH0 MSTORE PUSH1 0x7 DUP4 MSTORE PUSH1 0x1 DUP3 PUSH0 KECCAK256 SLOAD GT PUSH1 0x8 DUP5 MSTORE DUP3 PUSH0 KECCAK256 SLOAD ISZERO ISZERO DUP2 ISZERO PUSH2 0x324D JUMPI JUMPDEST POP ISZERO PUSH2 0x31F2 JUMPI POP SWAP1 PUSH32 0x68F37CC4A32F0B24153CE9237B344B20A9717039F90D7C24F35E5C217F03E168 SWAP2 PUSH2 0x31BC DUP6 DUP6 PUSH2 0x4FE4 JUMP JUMPDEST PUSH2 0x31CE PUSH2 0x31C7 PUSH2 0x4A8F JUMP JUMPDEST DUP8 DUP8 PUSH2 0x5018 JUMP JUMPDEST PUSH0 MSTORE PUSH1 0x6 DUP3 MSTORE PUSH1 0x1 DUP2 PUSH0 KECCAK256 ADD PUSH1 0xFF NOT DUP2 SLOAD AND SWAP1 SSTORE PUSH1 0xD DUP3 MSTORE PUSH0 DUP2 DUP2 KECCAK256 SSTORE MLOAD TIMESTAMP DUP2 MSTORE LOG3 STOP JUMPDEST DUP3 PUSH1 0x84 SWAP3 MLOAD SWAP2 PUSH3 0x461BCD PUSH1 0xE5 SHL DUP4 MSTORE DUP3 ADD MSTORE PUSH1 0x31 PUSH1 0x24 DUP3 ADD MSTORE PUSH32 0x43616E6E6F74206C65617665206173206C617374206F776E6572207769746820 PUSH1 0x44 DUP3 ADD MSTORE PUSH17 0x6E6F2061646D696E6973747261746F7273 PUSH1 0x78 SHL PUSH1 0x64 DUP3 ADD MSTORE REVERT JUMPDEST SWAP1 POP DUP7 PUSH2 0x3188 JUMP JUMPDEST DUP3 PUSH1 0x84 SWAP3 MLOAD SWAP2 PUSH3 0x461BCD PUSH1 0xE5 SHL DUP4 MSTORE DUP3 ADD MSTORE PUSH1 0x23 PUSH1 0x24 DUP3 ADD MSTORE PUSH32 0x596F7520617265206E6F7420616E206F776E6572206F66207468697320726563 PUSH1 0x44 DUP3 ADD MSTORE PUSH3 0x1BDC99 PUSH1 0xEA SHL PUSH1 0x64 DUP3 ADD MSTORE REVERT JUMPDEST SWAP1 POP CALLVALUE PUSH2 0x369 JUMPI PUSH2 0x32B2 CALLDATASIZE PUSH2 0x4339 JUMP JUMPDEST SWAP2 SWAP3 SWAP1 PUSH2 0x32C1 PUSH2 0x408 CALLER PUSH2 0x4D3D JUMP JUMPDEST PUSH2 0x32CC DUP5 ISZERO ISZERO PUSH2 0x495D JUMP JUMPDEST PUSH1 0x1 PUSH1 0x1 PUSH1 0xA0 SHL SUB AND PUSH2 0x32E0 DUP2 ISZERO ISZERO PUSH2 0x49A9 JUMP JUMPDEST PUSH2 0x32EC PUSH2 0x9B2 DUP5 PUSH2 0x50F1 JUMP JUMPDEST CALLER PUSH0 MSTORE PUSH1 0x20 SWAP4 PUSH1 0x1 DUP6 MSTORE DUP6 PUSH0 KECCAK256 SLOAD SWAP2 PUSH0 MSTORE DUP6 PUSH0 KECCAK256 SLOAD SWAP3 PUSH2 0x330D DUP5 ISZERO ISZERO PUSH2 0x45C7 JUMP JUMPDEST DUP5 MLOAD DUP7 DUP7 ADD KECCAK256 SWAP6 PUSH2 0x331E DUP6 DUP5 PUSH2 0x4FE4 JUMP JUMPDEST DUP1 PUSH0 MSTORE PUSH1 0x6 DUP3 MSTORE PUSH2 0x3337 PUSH1 0xFF PUSH1 0x1 DUP12 PUSH0 KECCAK256 ADD SLOAD AND PUSH2 0x4A37 JUMP JUMPDEST PUSH0 MSTORE PUSH1 0x6 DUP2 MSTORE PUSH2 0x3348 DUP9 PUSH0 KECCAK256 PUSH2 0x43C9 JUMP JUMPDEST SWAP7 DUP8 MLOAD DUP3 DUP10 ADD KECCAK256 SWAP1 DUP1 DUP3 EQ PUSH2 0x374E JUMPI PUSH2 0x335F PUSH2 0x4A8F JUMP JUMPDEST DUP4 DUP2 MLOAD SWAP2 ADD KECCAK256 DUP3 EQ PUSH2 0x36D9 JUMPI DUP5 PUSH0 MSTORE PUSH1 0x7 DUP4 MSTORE DUP10 PUSH0 KECCAK256 SLOAD ISZERO SWAP2 DUP3 ISZERO PUSH2 0x338C PUSH2 0x3385 PUSH2 0x4A8F JUMP JUMPDEST DUP10 DUP10 PUSH2 0x5149 JUMP JUMPDEST SWAP1 PUSH2 0x339F PUSH2 0x3398 PUSH2 0x4AB0 JUMP JUMPDEST DUP11 DUP11 PUSH2 0x5149 JUMP JUMPDEST SWAP1 PUSH2 0x33A8 PUSH2 0x4A8F JUMP JUMPDEST DUP1 MLOAD SWAP1 DUP9 ADD KECCAK256 DUP6 SUB PUSH2 0x3523 JUMPI ISZERO PUSH2 0x34C6 JUMPI POP ISZERO PUSH2 0x3485 JUMPI JUMPDEST PUSH2 0x33C8 PUSH2 0x4AB0 JUMP JUMPDEST DUP5 DUP2 MLOAD SWAP2 ADD KECCAK256 EQ SWAP1 DUP2 PUSH2 0x346E JUMPI JUMPDEST POP PUSH2 0x33E9 JUMPI JUMPDEST POP POP POP PUSH2 0x557 SWAP6 POP PUSH2 0x51A7 JUMP JUMPDEST PUSH2 0x33F4 JUMPI JUMPDEST DUP1 PUSH2 0x33DC JUMP JUMPDEST DUP3 PUSH0 MSTORE PUSH1 0x8 DUP2 MSTORE PUSH1 0x1 DUP9 PUSH0 KECCAK256 SLOAD GT PUSH2 0x33EE JUMPI DUP8 MLOAD PUSH3 0x461BCD PUSH1 0xE5 SHL DUP2 MSTORE SWAP2 DUP3 ADD MSTORE PUSH1 0x39 PUSH1 0x24 DUP3 ADD MSTORE PUSH32 0x43616E6E6F742064656D6F746520746865206C6173742061646D696E69737472 PUSH1 0x44 DUP3 ADD MSTORE PUSH32 0x61746F72207768656E206E6F206F776E65722065786973747300000000000000 PUSH1 0x64 DUP3 ADD MSTORE PUSH1 0x84 SWAP2 POP REVERT JUMPDEST SWAP1 POP PUSH2 0x3478 PUSH2 0x47A0 JUMP JUMPDEST DUP4 DUP2 MLOAD SWAP2 ADD KECCAK256 EQ PUSH0 PUSH2 0x33D6 JUMP JUMPDEST PUSH1 0x64 DUP6 DUP6 DUP1 DUP15 MLOAD SWAP3 PUSH3 0x461BCD PUSH1 0xE5 SHL DUP5 MSTORE DUP4 ADD MSTORE PUSH1 0x24 DUP3 ADD MSTORE PUSH32 0x4F6E6C79206F776E6572732063616E2070726F6D6F746520746F206F776E6572 PUSH1 0x44 DUP3 ADD MSTORE REVERT JUMPDEST SWAP1 POP PUSH2 0x33C0 JUMPI DUP11 MLOAD PUSH3 0x461BCD PUSH1 0xE5 SHL DUP2 MSTORE DUP1 DUP7 ADD DUP6 SWAP1 MSTORE PUSH1 0x2B PUSH1 0x24 DUP3 ADD MSTORE PUSH32 0x4F6E6C792061646D696E6973747261746F72732063616E2070726F6D6F746520 PUSH1 0x44 DUP3 ADD MSTORE PUSH11 0x3334B939BA1037BBB732B9 PUSH1 0xA9 SHL PUSH1 0x64 DUP3 ADD MSTORE PUSH1 0x84 SWAP1 REVERT JUMPDEST PUSH2 0x352B PUSH2 0x4AB0 JUMP JUMPDEST DUP1 MLOAD SWAP1 DUP9 ADD KECCAK256 DUP6 SUB PUSH2 0x35B5 JUMPI POP DUP2 ISZERO PUSH2 0x35AD JUMPI JUMPDEST POP PUSH2 0x33C0 JUMPI DUP11 MLOAD PUSH3 0x461BCD PUSH1 0xE5 SHL DUP2 MSTORE DUP1 DUP7 ADD DUP6 SWAP1 MSTORE PUSH1 0x3B PUSH1 0x24 DUP3 ADD MSTORE PUSH32 0x4F6E6C79206F776E65727320616E642061646D696E6973747261746F72732063 PUSH1 0x44 DUP3 ADD MSTORE PUSH32 0x616E2070726F6D6F746520746F2061646D696E6973747261746F720000000000 PUSH1 0x64 DUP3 ADD MSTORE PUSH1 0x84 SWAP1 REVERT JUMPDEST SWAP1 POP PUSH0 PUSH2 0x353F JUMP JUMPDEST PUSH2 0x35BD PUSH2 0x47A0 JUMP JUMPDEST DUP8 DUP2 MLOAD SWAP2 ADD KECCAK256 DUP6 EQ PUSH2 0x35D2 JUMPI JUMPDEST POP POP POP PUSH2 0x33C0 JUMP JUMPDEST ISZERO PUSH2 0x367F JUMPI DUP2 ISZERO PUSH2 0x3668 JUMPI JUMPDEST POP ISZERO PUSH2 0x35ED JUMPI JUMPDEST PUSH0 DUP1 DUP1 PUSH2 0x35CA JUMP JUMPDEST DUP11 MLOAD PUSH3 0x461BCD PUSH1 0xE5 SHL DUP2 MSTORE DUP1 DUP7 ADD DUP6 SWAP1 MSTORE PUSH1 0x49 PUSH1 0x24 DUP3 ADD MSTORE PUSH32 0x4F6E6C79206F776E6572732063616E2064656D6F7465206F74686572732E2041 PUSH1 0x44 DUP3 ADD MSTORE PUSH32 0x646D696E6973747261746F72732063616E206F6E6C792064656D6F7465207468 PUSH1 0x64 DUP3 ADD MSTORE PUSH9 0x32B6B9B2B63B32B997 PUSH1 0xB9 SHL PUSH1 0x84 DUP3 ADD MSTORE PUSH1 0xA4 SWAP1 REVERT JUMPDEST SWAP1 POP DUP1 PUSH2 0x3676 JUMPI JUMPDEST PUSH0 PUSH2 0x35DE JUMP JUMPDEST POP DUP8 DUP8 EQ PUSH2 0x3670 JUMP JUMPDEST SWAP1 POP PUSH2 0x35E5 JUMPI DUP11 MLOAD PUSH3 0x461BCD PUSH1 0xE5 SHL DUP2 MSTORE DUP1 DUP7 ADD DUP6 SWAP1 MSTORE PUSH1 0x28 PUSH1 0x24 DUP3 ADD MSTORE PUSH32 0x4F6E6C792061646D696E6973747261746F72732063616E2064656D6F74652074 PUSH1 0x44 DUP3 ADD MSTORE PUSH8 0x37903B34B2BBB2B9 PUSH1 0xC1 SHL PUSH1 0x64 DUP3 ADD MSTORE PUSH1 0x84 SWAP1 REVERT JUMPDEST DUP10 MLOAD PUSH3 0x461BCD PUSH1 0xE5 SHL DUP2 MSTORE DUP1 DUP6 ADD DUP5 SWAP1 MSTORE PUSH1 0x43 PUSH1 0x24 DUP3 ADD MSTORE PUSH32 0x4F776E6572732063616E6E6F742062652064656D6F7465642E204F776E657220 PUSH1 0x44 DUP3 ADD MSTORE PUSH32 0x6D75737420766F6C756E746172696C792072656D6F7665207468656D73656C76 PUSH1 0x64 DUP3 ADD MSTORE PUSH3 0x32B997 PUSH1 0xE9 SHL PUSH1 0x84 DUP3 ADD MSTORE PUSH1 0xA4 SWAP1 REVERT JUMPDEST DUP10 MLOAD PUSH3 0x461BCD PUSH1 0xE5 SHL DUP2 MSTORE DUP1 DUP6 ADD DUP5 SWAP1 MSTORE PUSH1 0x1C PUSH1 0x24 DUP3 ADD MSTORE PUSH32 0x54617267657420616C726561647920686173207468697320726F6C6500000000 PUSH1 0x44 DUP3 ADD MSTORE PUSH1 0x64 SWAP1 REVERT JUMPDEST DUP3 CALLVALUE PUSH2 0x369 JUMPI PUSH1 0x20 CALLDATASIZE PUSH1 0x3 NOT ADD SLT PUSH2 0x369 JUMPI PUSH1 0x20 SWAP1 PUSH2 0x12A9 PUSH2 0x37B1 PUSH2 0x4055 JUMP JUMPDEST PUSH2 0x509B JUMP JUMPDEST DUP3 CALLVALUE PUSH2 0x369 JUMPI PUSH2 0x37C5 CALLDATASIZE PUSH2 0x4308 JUMP JUMPDEST PUSH2 0x37D4 PUSH2 0x408 SWAP4 SWAP3 SWAP4 CALLER PUSH2 0x4D3D JUMP JUMPDEST CALLER PUSH0 MSTORE PUSH1 0x1 SWAP3 DUP4 SWAP3 PUSH1 0x20 SWAP1 DUP5 DUP3 MSTORE DUP1 PUSH0 KECCAK256 SLOAD SWAP3 PUSH2 0x37F3 DUP2 MLOAD ISZERO ISZERO PUSH2 0x466A JUMP JUMPDEST PUSH0 SWAP6 JUMPDEST PUSH2 0x37FC JUMPI STOP JUMPDEST DUP1 MLOAD DUP7 LT ISZERO PUSH2 0x557 JUMPI DUP7 DUP7 DUP7 DUP7 PUSH2 0x3814 DUP5 SWAP11 DUP7 PUSH2 0x478C JUMP JUMPDEST MLOAD DUP1 PUSH0 MSTORE PUSH1 0xF DUP9 MSTORE DUP7 PUSH0 KECCAK256 DUP4 PUSH0 MSTORE DUP9 MSTORE DUP7 PUSH0 KECCAK256 DUP8 MLOAD PUSH2 0x3832 DUP2 PUSH2 0x40B0 JUMP JUMPDEST DUP2 SLOAD SWAP1 DUP2 DUP2 MSTORE DUP8 DUP4 ADD SLOAD DUP12 DUP3 ADD MSTORE PUSH1 0x60 PUSH1 0x3 PUSH1 0x2 DUP6 ADD SLOAD SWAP5 DUP6 DUP14 DUP6 ADD MSTORE ADD SLOAD SWAP2 ADD MSTORE ISZERO PUSH2 0x392C JUMPI PUSH2 0x386B PUSH2 0x3864 PUSH2 0x4A8F JUMP JUMPDEST DUP5 DUP5 PUSH2 0x5149 JUMP JUMPDEST SWAP1 DUP2 ISZERO PUSH2 0x3919 JUMPI JUMPDEST DUP4 EQ ISZERO SWAP1 DUP2 PUSH2 0x3910 JUMPI JUMPDEST POP PUSH2 0x3908 JUMPI PUSH2 0x388C DUP4 DUP3 PUSH2 0x4FE4 JUMP JUMPDEST DUP1 PUSH0 MSTORE PUSH1 0x6 SWAP1 DUP2 DUP11 MSTORE PUSH1 0xFF DUP8 DUP11 PUSH0 KECCAK256 ADD SLOAD AND PUSH2 0x38D5 JUMPI JUMPDEST POP POP PUSH32 0xA232DCFFAB2D4F0F085A4D88BC617CD25DED7D3B8D8952E99D788CA25D4435B0 DUP9 DUP9 MLOAD TIMESTAMP DUP2 MSTORE LOG4 JUMPDEST ADD SWAP6 PUSH2 0x37F6 JUMP JUMPDEST PUSH2 0x38E7 PUSH2 0x38E0 PUSH2 0x47A0 JUMP JUMPDEST DUP7 DUP6 PUSH2 0x5018 JUMP JUMPDEST PUSH0 MSTORE DUP9 MSTORE DUP5 DUP8 PUSH0 KECCAK256 ADD PUSH1 0xFF NOT DUP2 SLOAD AND SWAP1 SSTORE PUSH1 0xD DUP9 MSTORE PUSH0 DUP8 DUP2 KECCAK256 SSTORE DUP13 DUP1 PUSH2 0x38A3 JUMP JUMPDEST POP POP POP PUSH2 0x38CE JUMP JUMPDEST SWAP1 POP ISZERO DUP14 PUSH2 0x387D JUMP JUMPDEST SWAP1 POP PUSH2 0x3926 PUSH2 0x3864 PUSH2 0x4AB0 JUMP JUMPDEST SWAP1 PUSH2 0x3873 JUMP JUMPDEST POP POP POP POP PUSH2 0x38CE JUMP JUMPDEST DUP3 CALLVALUE PUSH2 0x369 JUMPI PUSH2 0x3944 CALLDATASIZE PUSH2 0x42E9 JUMP JUMPDEST SWAP1 SWAP2 PUSH2 0x3952 PUSH2 0x408 CALLER PUSH2 0x4D3D JUMP JUMPDEST CALLER PUSH0 MSTORE PUSH1 0x20 SWAP2 PUSH1 0x1 DUP4 MSTORE DUP2 PUSH0 KECCAK256 SLOAD SWAP3 PUSH2 0x396C DUP6 ISZERO ISZERO PUSH2 0x483F JUMP JUMPDEST PUSH2 0x3978 DUP6 DUP6 EQ ISZERO PUSH2 0x487D JUMP JUMPDEST DUP5 PUSH0 MSTORE PUSH1 0x2 DUP2 MSTORE PUSH1 0xFF DUP4 PUSH0 KECCAK256 SLOAD AND PUSH1 0x6 DUP2 LT ISZERO PUSH2 0x7F5 JUMPI PUSH2 0x399A SWAP1 ISZERO ISZERO PUSH2 0x48C9 JUMP JUMPDEST DUP4 PUSH0 MSTORE PUSH1 0xE DUP2 MSTORE DUP3 PUSH0 KECCAK256 DUP6 PUSH0 MSTORE DUP2 MSTORE PUSH1 0xFF DUP4 PUSH0 KECCAK256 SLOAD AND DUP7 DUP2 LT ISZERO PUSH2 0x7F5 JUMPI DUP1 ISZERO SWAP1 DUP2 ISZERO PUSH2 0x3A91 JUMPI JUMPDEST POP ISZERO PUSH2 0x3A4F JUMPI DUP3 MLOAD PUSH2 0x39D3 DUP2 PUSH2 0x4081 JUMP JUMPDEST PUSH1 0x1 DUP2 MSTORE DUP2 DUP2 ADD PUSH2 0x39E4 DUP5 DUP3 PUSH2 0x491A JUMP JUMPDEST DUP6 PUSH0 MSTORE PUSH1 0xE DUP4 MSTORE DUP5 PUSH0 KECCAK256 DUP8 PUSH0 MSTORE DUP4 MSTORE DUP5 PUSH0 KECCAK256 SWAP2 MLOAD DUP9 DUP2 LT ISZERO PUSH2 0x786 JUMPI PUSH2 0x3A0A SWAP1 DUP4 PUSH2 0x4926 JUMP JUMPDEST MLOAD SWAP7 PUSH1 0x3 DUP9 LT ISZERO PUSH2 0x773 JUMPI POP PUSH32 0x494D010FDF588A0E83D626EA6963187BDDA6F88B7007F7BF280683D3F7DEA834 SWAP5 SWAP6 SWAP7 PUSH2 0x3A43 SWAP2 PUSH2 0x493E JUMP JUMPDEST PUSH2 0x1A2C DUP4 MLOAD DUP1 SWAP4 PUSH2 0x4513 JUMP JUMPDEST DUP6 PUSH1 0x64 SWAP2 DUP5 MLOAD SWAP2 PUSH3 0x461BCD PUSH1 0xE5 SHL DUP4 MSTORE DUP3 ADD MSTORE PUSH1 0x17 PUSH1 0x24 DUP3 ADD MSTORE PUSH32 0x50726F706F73616C20616C726561647920657869737473000000000000000000 PUSH1 0x44 DUP3 ADD MSTORE REVERT JUMPDEST PUSH1 0x3 SWAP2 POP EQ DUP8 PUSH2 0x39C2 JUMP JUMPDEST DUP3 CALLVALUE PUSH2 0x369 JUMPI PUSH1 0x20 CALLDATASIZE PUSH1 0x3 NOT ADD SLT PUSH2 0x369 JUMPI PUSH2 0x3AB6 PUSH2 0x4055 JUMP JUMPDEST PUSH0 SLOAD PUSH1 0x1 PUSH1 0x1 PUSH1 0xA0 SHL SUB SWAP2 SWAP1 PUSH2 0x3ACF SWAP1 DUP4 AND CALLER EQ PUSH2 0x47C2 JUMP JUMPDEST AND DUP1 PUSH0 MSTORE PUSH1 0x1 PUSH1 0x20 MSTORE PUSH2 0x3AE6 DUP3 PUSH0 KECCAK256 SLOAD ISZERO ISZERO PUSH2 0x47FB JUMP JUMPDEST DUP1 PUSH0 MSTORE PUSH1 0x1 PUSH1 0x20 MSTORE PUSH1 0xFF PUSH1 0x1 DUP4 PUSH0 KECCAK256 ADD SLOAD AND ISZERO PUSH2 0x3B16 JUMPI PUSH1 0x1 SWAP3 POP PUSH0 MSTORE DUP2 PUSH1 0x20 MSTORE PUSH0 KECCAK256 ADD PUSH1 0xFF NOT DUP2 SLOAD AND SWAP1 SSTORE PUSH0 DUP1 RETURN JUMPDEST DUP2 MLOAD PUSH3 0x461BCD PUSH1 0xE5 SHL DUP2 MSTORE PUSH1 0x20 DUP2 DUP6 ADD MSTORE PUSH1 0x17 PUSH1 0x24 DUP3 ADD MSTORE PUSH32 0x57616C6C657420616C726561647920696E616374697665000000000000000000 PUSH1 0x44 DUP3 ADD MSTORE PUSH1 0x64 SWAP1 REVERT JUMPDEST DUP3 CALLVALUE PUSH2 0x369 JUMPI PUSH1 0xA0 CALLDATASIZE PUSH1 0x3 NOT ADD SLT PUSH2 0x369 JUMPI DUP2 CALLDATALOAD PUSH1 0x1 PUSH1 0x1 PUSH1 0x40 SHL SUB DUP2 GT PUSH2 0x369 JUMPI PUSH2 0x3B88 SWAP1 CALLDATASIZE SWAP1 DUP5 ADD PUSH2 0x411E JUMP JUMPDEST SWAP1 PUSH2 0x3B91 PUSH2 0x406B JUMP JUMPDEST PUSH1 0x44 CALLDATALOAD SWAP2 PUSH1 0x64 CALLDATALOAD SWAP4 PUSH1 0x84 CALLDATALOAD PUSH2 0x3BA8 PUSH2 0x408 CALLER PUSH2 0x4D3D JUMP JUMPDEST CALLER PUSH0 MSTORE PUSH1 0x1 SWAP6 PUSH1 0x20 SWAP2 DUP8 DUP4 MSTORE DUP5 PUSH0 KECCAK256 SLOAD SWAP6 PUSH2 0x3BC5 DUP6 MLOAD ISZERO ISZERO PUSH2 0x466A JUMP JUMPDEST PUSH1 0x1 PUSH1 0x1 PUSH1 0xA0 SHL SUB DUP2 AND SWAP1 DUP2 ISZERO PUSH2 0x3E84 JUMPI DUP9 ISZERO PUSH2 0x3E4E JUMPI DUP3 ISZERO PUSH2 0x3E0B JUMPI DUP2 PUSH0 MSTORE DUP10 DUP6 MSTORE DUP9 DUP8 PUSH0 KECCAK256 SLOAD DUP1 ISZERO PUSH0 EQ PUSH2 0x3DA1 JUMPI POP POP PUSH2 0x3C37 PUSH2 0x3C46 SWAP3 DUP12 DUP10 MLOAD SWAP2 PUSH2 0x3C0B DUP4 PUSH2 0x4081 JUMP JUMPDEST DUP13 DUP4 MSTORE DUP9 DUP4 ADD SWAP1 DUP3 DUP3 MSTORE PUSH0 MSTORE DUP2 DUP10 MSTORE DUP11 PUSH0 KECCAK256 SWAP3 MLOAD DUP4 SSTORE MLOAD ISZERO ISZERO SWAP2 ADD SWAP1 PUSH1 0xFF DUP1 NOT DUP4 SLOAD AND SWAP2 ISZERO ISZERO AND OR SWAP1 SSTORE JUMP JUMPDEST DUP9 PUSH0 MSTORE PUSH1 0x3 DUP6 MSTORE DUP7 PUSH0 KECCAK256 PUSH2 0x46AC JUMP JUMPDEST DUP7 PUSH0 MSTORE PUSH1 0x2 DUP4 MSTORE DUP5 PUSH0 KECCAK256 PUSH1 0x5 PUSH1 0xFF NOT DUP3 SLOAD AND OR SWAP1 SSTORE PUSH2 0x3C64 DUP8 PUSH2 0x46E7 JUMP JUMPDEST PUSH2 0x3C6F PUSH1 0x5 SLOAD PUSH2 0x476A JUMP JUMPDEST PUSH1 0x5 SSTORE JUMPDEST TIMESTAMP ADD SWAP3 DUP4 TIMESTAMP GT PUSH2 0x3D8E JUMPI DUP8 SWAP9 POP PUSH0 SWAP8 JUMPDEST PUSH2 0x3C89 JUMPI STOP JUMPDEST DUP1 MLOAD DUP9 LT ISZERO PUSH2 0x557 JUMPI DUP9 DUP9 DUP9 DUP9 PUSH2 0x3CA1 DUP5 SWAP13 DUP7 PUSH2 0x478C JUMP JUMPDEST MLOAD PUSH2 0x3CAC DUP3 DUP3 PUSH2 0x4FE4 JUMP JUMPDEST PUSH0 MSTORE DUP10 DUP9 DUP11 PUSH1 0x6 DUP1 DUP4 MSTORE DUP11 PUSH1 0xFF SWAP5 DUP6 DUP12 DUP3 PUSH0 KECCAK256 ADD SLOAD AND ISZERO PUSH2 0x3D80 JUMPI PUSH32 0x140D483F221B1B41AA3142BE8C182589305145AAFE83BED53B908D6BAFF35C1D SWAP6 PUSH1 0x3 SWAP4 PUSH2 0x3CF6 DUP12 DUP11 PUSH2 0x4FE4 JUMP JUMPDEST PUSH0 MSTORE DUP7 MSTORE DUP12 DUP3 PUSH0 KECCAK256 ADD SLOAD AND ISZERO PUSH2 0x3D68 JUMPI JUMPDEST DUP1 MLOAD SWAP4 PUSH2 0x3D13 DUP6 PUSH2 0x40B0 JUMP JUMPDEST TIMESTAMP DUP6 MSTORE DUP6 DUP6 ADD SWAP1 DUP2 MSTORE DUP2 DUP6 ADD SWAP2 DUP10 DUP4 MSTORE PUSH1 0x60 SWAP7 DUP8 DUP8 ADD SWAP5 DUP6 MSTORE DUP10 PUSH0 MSTORE PUSH1 0xF DUP2 MSTORE DUP2 PUSH0 KECCAK256 SWAP1 DUP13 PUSH0 MSTORE MSTORE PUSH0 KECCAK256 SWAP5 MLOAD DUP6 SSTORE MLOAD DUP12 DUP6 ADD SSTORE MLOAD PUSH1 0x2 DUP5 ADD SSTORE MLOAD SWAP2 ADD SSTORE DUP12 MLOAD DUP10 DUP2 MSTORE DUP12 DUP12 DUP3 ADD MSTORE TIMESTAMP DUP14 DUP3 ADD MSTORE LOG4 JUMPDEST ADD SWAP8 PUSH2 0x3C83 JUMP JUMPDEST PUSH2 0x3D7B DUP9 PUSH2 0x3D74 PUSH2 0x47A0 JUMP JUMPDEST DUP12 DUP11 PUSH2 0x4DCF JUMP JUMPDEST PUSH2 0x3D07 JUMP JUMPDEST POP POP POP POP POP POP POP POP POP PUSH2 0x3D61 JUMP JUMPDEST PUSH1 0x11 DUP10 PUSH4 0x4E487B71 PUSH1 0xE0 SHL PUSH0 MSTORE MSTORE PUSH1 0x24 PUSH0 REVERT JUMPDEST EQ SWAP2 POP PUSH2 0x3C73 SWAP1 POP JUMPI DUP5 MLOAD PUSH3 0x461BCD PUSH1 0xE5 SHL DUP2 MSTORE DUP1 DUP11 ADD DUP5 SWAP1 MSTORE PUSH1 0x35 PUSH1 0x24 DUP3 ADD MSTORE PUSH32 0x47756573742077616C6C657420616C7265616479207265676973746572656420 PUSH1 0x44 DUP3 ADD MSTORE PUSH21 0x746F20646966666572656E74206964656E74697479 PUSH1 0x58 SHL PUSH1 0x64 DUP3 ADD MSTORE PUSH1 0x84 SWAP1 REVERT JUMPDEST DUP7 MLOAD PUSH3 0x461BCD PUSH1 0xE5 SHL DUP2 MSTORE DUP1 DUP13 ADD DUP7 SWAP1 MSTORE PUSH1 0x19 PUSH1 0x24 DUP3 ADD MSTORE PUSH32 0x4475726174696F6E206D75737420626520706F73697469766500000000000000 PUSH1 0x44 DUP3 ADD MSTORE PUSH1 0x64 SWAP1 REVERT JUMPDEST DUP7 MLOAD PUSH3 0x461BCD PUSH1 0xE5 SHL DUP2 MSTORE DUP1 DUP13 ADD DUP7 SWAP1 MSTORE PUSH1 0x10 PUSH1 0x24 DUP3 ADD MSTORE PUSH16 0x125B9D985B1A590819DD595CDD081251 PUSH1 0x82 SHL PUSH1 0x44 DUP3 ADD MSTORE PUSH1 0x64 SWAP1 REVERT JUMPDEST DUP7 MLOAD PUSH3 0x461BCD PUSH1 0xE5 SHL DUP2 MSTORE DUP1 DUP13 ADD DUP7 SWAP1 MSTORE PUSH1 0x14 PUSH1 0x24 DUP3 ADD MSTORE PUSH20 0x125B9D985B1A590819DD595CDD081DD85B1B195D PUSH1 0x62 SHL PUSH1 0x44 DUP3 ADD MSTORE PUSH1 0x64 SWAP1 REVERT JUMPDEST DUP3 CALLVALUE PUSH2 0x369 JUMPI DUP1 PUSH1 0x3 NOT CALLDATASIZE ADD SLT PUSH2 0x369 JUMPI PUSH2 0x12A9 PUSH1 0x20 SWAP3 PUSH2 0x3EDD PUSH2 0x406B JUMP JUMPDEST SWAP1 CALLDATALOAD PUSH2 0x4613 JUMP JUMPDEST SWAP1 POP CALLVALUE PUSH2 0x369 JUMPI PUSH1 0x20 SWAP1 PUSH1 0x20 PUSH1 0x3 NOT CALLDATASIZE ADD SLT PUSH2 0x369 JUMPI CALLDATALOAD PUSH0 MSTORE PUSH1 0x9 PUSH1 0x20 MSTORE DUP2 PUSH0 KECCAK256 SWAP2 DUP1 MLOAD SWAP2 DUP3 PUSH1 0x20 DUP6 SLOAD SWAP2 DUP3 DUP2 MSTORE ADD SWAP5 PUSH0 MSTORE PUSH1 0x20 PUSH0 KECCAK256 SWAP2 PUSH0 SWAP1 JUMPDEST DUP3 DUP3 LT PUSH2 0x3F36 JUMPI PUSH2 0x5E9 DUP7 DUP7 PUSH2 0x8D6 DUP3 DUP12 SUB DUP4 PUSH2 0x40E6 JUMP JUMPDEST DUP4 SLOAD DUP8 MSTORE SWAP6 DUP7 ADD SWAP6 PUSH1 0x1 SWAP4 DUP5 ADD SWAP4 SWAP1 SWAP2 ADD SWAP1 PUSH2 0x3F1E JUMP JUMPDEST DUP3 CALLVALUE PUSH2 0x369 JUMPI PUSH2 0x3F5C CALLDATASIZE PUSH2 0x41E1 JUMP JUMPDEST SWAP3 SWAP2 SWAP1 PUSH2 0x3F6B PUSH2 0x408 CALLER PUSH2 0x4D3D JUMP JUMPDEST PUSH2 0x3F78 DUP3 MLOAD DUP6 MLOAD EQ PUSH2 0x4583 JUMP JUMPDEST CALLER PUSH0 MSTORE PUSH1 0x1 SWAP4 DUP5 SWAP4 PUSH1 0x1 PUSH1 0x20 MSTORE DUP1 PUSH0 KECCAK256 SLOAD SWAP3 PUSH1 0x1 DUP1 PUSH1 0xA0 SHL SUB AND PUSH0 MSTORE PUSH0 KECCAK256 SLOAD PUSH2 0x3FA2 DUP2 ISZERO ISZERO PUSH2 0x45C7 JUMP JUMPDEST PUSH0 SWAP5 JUMPDEST PUSH2 0x3FAB JUMPI STOP JUMPDEST DUP4 MLOAD DUP6 LT ISZERO PUSH2 0x557 JUMPI DUP6 DUP6 PUSH2 0x3FCA PUSH2 0x3FC4 DUP4 SWAP9 DUP7 PUSH2 0x478C JUMP JUMPDEST MLOAD PUSH2 0x50F1 JUMP JUMPDEST ISZERO PUSH2 0x401C JUMPI PUSH2 0x3FDD DUP6 PUSH2 0x467 DUP4 DUP10 PUSH2 0x478C JUMP JUMPDEST ISZERO PUSH2 0x401C JUMPI PUSH2 0x3FF0 DUP4 PUSH2 0x467 DUP4 DUP10 PUSH2 0x478C JUMP JUMPDEST PUSH2 0x401C JUMPI PUSH2 0x4015 DUP6 PUSH2 0x4002 DUP4 DUP10 PUSH2 0x478C JUMP JUMPDEST MLOAD DUP6 PUSH2 0x400E DUP6 DUP10 PUSH2 0x478C JUMP JUMPDEST MLOAD SWAP2 PUSH2 0x4DCF JUMP JUMPDEST ADD SWAP5 PUSH2 0x3FA5 JUMP JUMPDEST PUSH2 0x4015 JUMP JUMPDEST DUP4 SWAP1 CALLVALUE PUSH2 0x369 JUMPI PUSH1 0x20 CALLDATASIZE PUSH1 0x3 NOT ADD SLT PUSH2 0x369 JUMPI PUSH1 0x20 SWAP2 PUSH1 0x1 PUSH1 0x1 PUSH1 0xA0 SHL SUB PUSH2 0x4047 PUSH2 0x4055 JUMP JUMPDEST AND PUSH0 MSTORE PUSH1 0x1 DUP4 MSTORE PUSH0 KECCAK256 SLOAD DUP2 MSTORE RETURN JUMPDEST PUSH1 0x4 CALLDATALOAD SWAP1 PUSH1 0x1 PUSH1 0x1 PUSH1 0xA0 SHL SUB DUP3 AND DUP3 SUB PUSH2 0x369 JUMPI JUMP JUMPDEST PUSH1 0x24 CALLDATALOAD SWAP1 PUSH1 0x1 PUSH1 0x1 PUSH1 0xA0 SHL SUB DUP3 AND DUP3 SUB PUSH2 0x369 JUMPI JUMP JUMPDEST PUSH1 0x40 DUP2 ADD SWAP1 DUP2 LT PUSH1 0x1 PUSH1 0x1 PUSH1 0x40 SHL SUB DUP3 GT OR PUSH2 0x409C JUMPI PUSH1 0x40 MSTORE JUMP JUMPDEST PUSH4 0x4E487B71 PUSH1 0xE0 SHL PUSH0 MSTORE PUSH1 0x41 PUSH1 0x4 MSTORE PUSH1 0x24 PUSH0 REVERT JUMPDEST PUSH1 0x80 DUP2 ADD SWAP1 DUP2 LT PUSH1 0x1 PUSH1 0x1 PUSH1 0x40 SHL SUB DUP3 GT OR PUSH2 0x409C JUMPI PUSH1 0x40 MSTORE JUMP JUMPDEST PUSH1 0x20 DUP2 ADD SWAP1 DUP2 LT PUSH1 0x1 PUSH1 0x1 PUSH1 0x40 SHL SUB DUP3 GT OR PUSH2 0x409C JUMPI PUSH1 0x40 MSTORE JUMP JUMPDEST SWAP1 PUSH1 0x1F DUP1 NOT SWAP2 ADD AND DUP2 ADD SWAP1 DUP2 LT PUSH1 0x1 PUSH1 0x1 PUSH1 0x40 SHL SUB DUP3 GT OR PUSH2 0x409C JUMPI PUSH1 0x40 MSTORE JUMP JUMPDEST PUSH1 0x1 PUSH1 0x1 PUSH1 0x40 SHL SUB DUP2 GT PUSH2 0x409C JUMPI PUSH1 0x5 SHL PUSH1 0x20 ADD SWAP1 JUMP JUMPDEST SWAP1 DUP1 PUSH1 0x1F DUP4 ADD SLT ISZERO PUSH2 0x369 JUMPI PUSH1 0x20 SWAP1 DUP3 CALLDATALOAD PUSH2 0x4138 DUP2 PUSH2 0x4107 JUMP JUMPDEST SWAP4 PUSH2 0x4146 PUSH1 0x40 MLOAD SWAP6 DUP7 PUSH2 0x40E6 JUMP JUMPDEST DUP2 DUP6 MSTORE PUSH1 0x20 DUP1 DUP7 ADD SWAP3 PUSH1 0x5 SHL DUP3 ADD ADD SWAP3 DUP4 GT PUSH2 0x369 JUMPI PUSH1 0x20 ADD SWAP1 JUMPDEST DUP3 DUP3 LT PUSH2 0x416F JUMPI POP POP POP POP SWAP1 JUMP JUMPDEST DUP2 CALLDATALOAD DUP2 MSTORE SWAP1 DUP4 ADD SWAP1 DUP4 ADD PUSH2 0x4161 JUMP JUMPDEST SWAP3 SWAP2 SWAP3 PUSH1 0x1 PUSH1 0x1 PUSH1 0x40 SHL SUB DUP3 GT PUSH2 0x409C JUMPI PUSH1 0x40 MLOAD SWAP2 PUSH2 0x41A7 PUSH1 0x1F DUP3 ADD PUSH1 0x1F NOT AND PUSH1 0x20 ADD DUP5 PUSH2 0x40E6 JUMP JUMPDEST DUP3 SWAP5 DUP2 DUP5 MSTORE DUP2 DUP4 ADD GT PUSH2 0x369 JUMPI DUP3 DUP2 PUSH1 0x20 SWAP4 DUP5 PUSH0 SWAP7 ADD CALLDATACOPY ADD ADD MSTORE JUMP JUMPDEST SWAP1 DUP1 PUSH1 0x1F DUP4 ADD SLT ISZERO PUSH2 0x369 JUMPI DUP2 PUSH1 0x20 PUSH2 0x41DE SWAP4 CALLDATALOAD SWAP2 ADD PUSH2 0x417E JUMP JUMPDEST SWAP1 JUMP JUMPDEST PUSH1 0x60 PUSH1 0x3 NOT DUP3 ADD SLT PUSH2 0x369 JUMPI PUSH1 0x1 PUSH1 0x1 PUSH1 0x40 SHL SUB SWAP2 PUSH1 0x4 CALLDATALOAD DUP4 DUP2 GT PUSH2 0x369 JUMPI DUP3 PUSH2 0x420D SWAP2 PUSH1 0x4 ADD PUSH2 0x411E JUMP JUMPDEST SWAP3 PUSH1 0x24 SWAP3 DUP4 CALLDATALOAD PUSH1 0x1 PUSH1 0x1 PUSH1 0xA0 SHL SUB DUP2 AND DUP2 SUB PUSH2 0x369 JUMPI SWAP4 PUSH1 0x44 CALLDATALOAD SWAP3 DUP1 DUP5 GT PUSH2 0x369 JUMPI DUP3 PUSH1 0x23 DUP6 ADD SLT ISZERO PUSH2 0x369 JUMPI DUP4 PUSH1 0x4 ADD CALLDATALOAD PUSH2 0x4248 DUP2 PUSH2 0x4107 JUMP JUMPDEST SWAP5 PUSH2 0x4256 PUSH1 0x40 MLOAD SWAP7 DUP8 PUSH2 0x40E6 JUMP JUMPDEST DUP2 DUP7 MSTORE PUSH1 0x20 SWAP5 PUSH1 0x24 PUSH1 0x20 DUP9 ADD SWAP4 PUSH1 0x5 SHL DUP4 ADD ADD SWAP5 DUP2 DUP7 GT PUSH2 0x369 JUMPI PUSH1 0x24 DUP4 ADD SWAP4 JUMPDEST DUP7 DUP6 LT PUSH2 0x4289 JUMPI POP POP POP POP POP POP POP POP SWAP1 JUMP JUMPDEST DUP5 CALLDATALOAD DUP7 DUP2 GT PUSH2 0x369 JUMPI DUP9 SWAP2 PUSH2 0x42A3 DUP6 DUP6 DUP6 SWAP5 DUP10 ADD ADD PUSH2 0x41C3 JUMP JUMPDEST DUP2 MSTORE ADD SWAP5 ADD SWAP4 PUSH2 0x4277 JUMP JUMPDEST PUSH1 0x20 SWAP1 PUSH1 0x20 PUSH1 0x40 DUP2 DUP4 ADD SWAP3 DUP3 DUP2 MSTORE DUP6 MLOAD DUP1 SWAP5 MSTORE ADD SWAP4 ADD SWAP2 PUSH0 JUMPDEST DUP3 DUP2 LT PUSH2 0x42D5 JUMPI POP POP POP POP SWAP1 JUMP JUMPDEST DUP4 MLOAD DUP6 MSTORE SWAP4 DUP2 ADD SWAP4 SWAP3 DUP2 ADD SWAP3 PUSH1 0x1 ADD PUSH2 0x42C7 JUMP JUMPDEST PUSH1 0x40 SWAP1 PUSH1 0x3 NOT ADD SLT PUSH2 0x369 JUMPI PUSH1 0x4 CALLDATALOAD SWAP1 PUSH1 0x24 CALLDATALOAD PUSH1 0x3 DUP2 LT ISZERO PUSH2 0x369 JUMPI SWAP1 JUMP JUMPDEST PUSH1 0x40 PUSH1 0x3 NOT DUP3 ADD SLT PUSH2 0x369 JUMPI PUSH1 0x4 CALLDATALOAD SWAP1 PUSH1 0x1 PUSH1 0x1 PUSH1 0x40 SHL SUB DUP3 GT PUSH2 0x369 JUMPI PUSH2 0x4332 SWAP2 PUSH1 0x4 ADD PUSH2 0x411E JUMP JUMPDEST SWAP1 PUSH1 0x24 CALLDATALOAD SWAP1 JUMP JUMPDEST PUSH1 0x60 PUSH1 0x3 NOT DUP3 ADD SLT PUSH2 0x369 JUMPI PUSH1 0x4 CALLDATALOAD SWAP2 PUSH1 0x24 CALLDATALOAD PUSH1 0x1 PUSH1 0x1 PUSH1 0xA0 SHL SUB DUP2 AND DUP2 SUB PUSH2 0x369 JUMPI SWAP2 PUSH1 0x44 CALLDATALOAD SWAP1 PUSH1 0x1 PUSH1 0x1 PUSH1 0x40 SHL SUB DUP3 GT PUSH2 0x369 JUMPI PUSH2 0x41DE SWAP2 PUSH1 0x4 ADD PUSH2 0x41C3 JUMP JUMPDEST PUSH1 0x40 SWAP1 PUSH1 0x3 NOT ADD SLT PUSH2 0x369 JUMPI PUSH1 0x4 CALLDATALOAD SWAP1 PUSH1 0x24 CALLDATALOAD SWAP1 JUMP JUMPDEST SWAP1 PUSH1 0x1 DUP3 DUP2 SHR SWAP3 AND DUP1 ISZERO PUSH2 0x43BF JUMPI JUMPDEST PUSH1 0x20 DUP4 LT EQ PUSH2 0x43AB JUMPI JUMP JUMPDEST PUSH4 0x4E487B71 PUSH1 0xE0 SHL PUSH0 MSTORE PUSH1 0x22 PUSH1 0x4 MSTORE PUSH1 0x24 PUSH0 REVERT JUMPDEST SWAP2 PUSH1 0x7F AND SWAP2 PUSH2 0x43A0 JUMP JUMPDEST SWAP1 PUSH1 0x40 MLOAD SWAP2 DUP3 PUSH0 DUP3 SLOAD PUSH2 0x43DB DUP2 PUSH2 0x4391 JUMP JUMPDEST SWAP1 DUP2 DUP5 MSTORE PUSH1 0x20 SWAP5 PUSH1 0x1 SWAP2 PUSH1 0x1 DUP2 AND SWAP1 DUP2 PUSH0 EQ PUSH2 0x4449 JUMPI POP PUSH1 0x1 EQ PUSH2 0x440B JUMPI JUMPDEST POP POP POP PUSH2 0x4409 SWAP3 POP SUB DUP4 PUSH2 0x40E6 JUMP JUMPDEST JUMP JUMPDEST PUSH0 SWAP1 DUP2 MSTORE DUP6 DUP2 KECCAK256 SWAP6 SWAP4 POP SWAP2 SWAP1 JUMPDEST DUP2 DUP4 LT PUSH2 0x4431 JUMPI POP POP PUSH2 0x4409 SWAP4 POP DUP3 ADD ADD PUSH0 DUP1 DUP1 PUSH2 0x43FA JUMP JUMPDEST DUP6 SLOAD DUP9 DUP5 ADD DUP6 ADD MSTORE SWAP5 DUP6 ADD SWAP5 DUP8 SWAP5 POP SWAP2 DUP4 ADD SWAP2 PUSH2 0x4418 JUMP JUMPDEST SWAP3 POP POP POP PUSH2 0x4409 SWAP5 SWAP3 POP PUSH1 0xFF NOT AND DUP3 DUP5 ADD MSTORE ISZERO ISZERO PUSH1 0x5 SHL DUP3 ADD ADD PUSH0 DUP1 DUP1 PUSH2 0x43FA JUMP JUMPDEST SWAP2 SWAP1 DUP3 MLOAD SWAP3 DUP4 DUP3 MSTORE PUSH0 JUMPDEST DUP5 DUP2 LT PUSH2 0x4495 JUMPI POP POP DUP3 PUSH0 PUSH1 0x20 DUP1 SWAP5 SWAP6 DUP5 ADD ADD MSTORE PUSH1 0x1F DUP1 NOT SWAP2 ADD AND ADD ADD SWAP1 JUMP JUMPDEST PUSH1 0x20 DUP2 DUP4 ADD DUP2 ADD MLOAD DUP5 DUP4 ADD DUP3 ADD MSTORE ADD PUSH2 0x4475 JUMP JUMPDEST SWAP1 PUSH2 0x44C1 PUSH1 0x20 SWAP2 SWAP5 SWAP4 SWAP5 PUSH1 0x40 DUP5 MSTORE PUSH1 0x40 DUP5 ADD SWAP1 PUSH2 0x446B JUMP JUMPDEST SWAP4 ISZERO ISZERO SWAP2 ADD MSTORE JUMP JUMPDEST DUP1 SLOAD DUP3 LT ISZERO PUSH2 0x44DE JUMPI PUSH0 MSTORE PUSH1 0x20 PUSH0 KECCAK256 ADD SWAP1 PUSH0 SWAP1 JUMP JUMPDEST PUSH4 0x4E487B71 PUSH1 0xE0 SHL PUSH0 MSTORE PUSH1 0x32 PUSH1 0x4 MSTORE PUSH1 0x24 PUSH0 REVERT JUMPDEST SWAP1 PUSH1 0x6 DUP3 LT ISZERO PUSH2 0x44FF JUMPI MSTORE JUMP JUMPDEST PUSH4 0x4E487B71 PUSH1 0xE0 SHL PUSH0 MSTORE PUSH1 0x21 PUSH1 0x4 MSTORE PUSH1 0x24 PUSH0 REVERT JUMPDEST SWAP1 PUSH1 0x3 DUP3 LT ISZERO PUSH2 0x44FF JUMPI MSTORE JUMP JUMPDEST SWAP1 SWAP3 SWAP2 PUSH1 0x40 DUP3 ADD SWAP4 PUSH1 0x4 DUP2 LT ISZERO PUSH2 0x44FF JUMPI DUP3 MSTORE PUSH2 0x4409 SWAP2 PUSH1 0x20 ADD SWAP1 PUSH2 0x4513 JUMP JUMPDEST ISZERO PUSH2 0x4547 JUMPI JUMP JUMPDEST PUSH1 0x40 MLOAD PUSH3 0x461BCD PUSH1 0xE5 SHL DUP2 MSTORE PUSH1 0x20 PUSH1 0x4 DUP3 ADD MSTORE PUSH1 0x14 PUSH1 0x24 DUP3 ADD MSTORE PUSH20 0x2737BA1030B71030B1BA34BB329036B2B6B132B9 PUSH1 0x61 SHL PUSH1 0x44 DUP3 ADD MSTORE PUSH1 0x64 SWAP1 REVERT JUMPDEST ISZERO PUSH2 0x458A JUMPI JUMP JUMPDEST PUSH1 0x40 MLOAD PUSH3 0x461BCD PUSH1 0xE5 SHL DUP2 MSTORE PUSH1 0x20 PUSH1 0x4 DUP3 ADD MSTORE PUSH1 0x15 PUSH1 0x24 DUP3 ADD MSTORE PUSH21 0x82E4E4C2F240D8CADCCEE8D040DAD2E6DAC2E8C6D PUSH1 0x5B SHL PUSH1 0x44 DUP3 ADD MSTORE PUSH1 0x64 SWAP1 REVERT JUMPDEST ISZERO PUSH2 0x45CE JUMPI JUMP JUMPDEST PUSH1 0x40 MLOAD PUSH3 0x461BCD PUSH1 0xE5 SHL DUP2 MSTORE PUSH1 0x20 PUSH1 0x4 DUP3 ADD MSTORE PUSH1 0x1C PUSH1 0x24 DUP3 ADD MSTORE PUSH32 0x5461726765742077616C6C6574206E6F74207265676973746572656400000000 PUSH1 0x44 DUP3 ADD MSTORE PUSH1 0x64 SWAP1 REVERT JUMPDEST PUSH1 0x1 PUSH1 0x1 PUSH1 0xA0 SHL SUB SWAP1 SWAP2 AND PUSH0 SWAP1 DUP2 MSTORE PUSH1 0x1 PUSH1 0x20 MSTORE PUSH1 0x40 SWAP1 KECCAK256 SLOAD SWAP1 DUP2 ISZERO PUSH2 0x4664 JUMPI PUSH2 0x4645 PUSH2 0x463E PUSH2 0x4A8F JUMP JUMPDEST DUP4 DUP4 PUSH2 0x5149 JUMP JUMPDEST SWAP2 DUP3 ISZERO PUSH2 0x4651 JUMPI POP POP SWAP1 JUMP JUMPDEST PUSH2 0x41DE SWAP3 POP PUSH2 0x465E PUSH2 0x4AB0 JUMP JUMPDEST SWAP2 PUSH2 0x5149 JUMP JUMPDEST POP POP PUSH0 SWAP1 JUMP JUMPDEST ISZERO PUSH2 0x4671 JUMPI JUMP JUMPDEST PUSH1 0x40 MLOAD PUSH3 0x461BCD PUSH1 0xE5 SHL DUP2 MSTORE PUSH1 0x20 PUSH1 0x4 DUP3 ADD MSTORE PUSH1 0x13 PUSH1 0x24 DUP3 ADD MSTORE PUSH19 0x139BC81C9958DBDC991CC81C1C9BDD9A591959 PUSH1 0x6A SHL PUSH1 0x44 DUP3 ADD MSTORE PUSH1 0x64 SWAP1 REVERT JUMPDEST DUP1 SLOAD PUSH1 0x1 PUSH1 0x40 SHL DUP2 LT ISZERO PUSH2 0x409C JUMPI PUSH2 0x46C9 SWAP2 PUSH1 0x1 DUP3 ADD DUP2 SSTORE PUSH2 0x44C9 JUMP JUMPDEST PUSH1 0x1 DUP1 PUSH1 0xA0 SWAP5 SWAP4 SWAP5 SHL SUB DUP1 DUP5 SLOAD SWAP3 PUSH1 0x3 SHL SWAP4 AND DUP4 SHL SWAP3 SHL NOT AND OR SWAP1 SSTORE JUMP JUMPDEST PUSH1 0x4 SLOAD PUSH1 0x1 PUSH1 0x40 SHL DUP2 LT ISZERO PUSH2 0x409C JUMPI PUSH1 0x1 DUP2 ADD DUP1 PUSH1 0x4 SSTORE DUP2 LT ISZERO PUSH2 0x44DE JUMPI PUSH1 0x4 PUSH0 MSTORE PUSH32 0x8A35ACFBC15FF81A39AE7D344FD709F28E8600B4AA8C65C6B64BFE7FE36BD19B ADD SSTORE JUMP JUMPDEST DUP1 SLOAD SWAP1 PUSH1 0x1 PUSH1 0x40 SHL DUP3 LT ISZERO PUSH2 0x409C JUMPI DUP2 PUSH2 0x4750 SWAP2 PUSH1 0x1 PUSH2 0x4766 SWAP5 ADD DUP2 SSTORE PUSH2 0x44C9 JUMP JUMPDEST DUP2 SWAP4 SWAP2 SLOAD SWAP1 PUSH1 0x3 SHL SWAP2 DUP3 SHL SWAP2 PUSH0 NOT SWAP1 SHL NOT AND OR SWAP1 JUMP JUMPDEST SWAP1 SSTORE JUMP JUMPDEST PUSH0 NOT DUP2 EQ PUSH2 0x4778 JUMPI PUSH1 0x1 ADD SWAP1 JUMP JUMPDEST PUSH4 0x4E487B71 PUSH1 0xE0 SHL PUSH0 MSTORE PUSH1 0x11 PUSH1 0x4 MSTORE PUSH1 0x24 PUSH0 REVERT JUMPDEST DUP1 MLOAD DUP3 LT ISZERO PUSH2 0x44DE JUMPI PUSH1 0x20 SWAP2 PUSH1 0x5 SHL ADD ADD SWAP1 JUMP JUMPDEST PUSH1 0x40 MLOAD SWAP1 PUSH2 0x47AD DUP3 PUSH2 0x4081 JUMP JUMPDEST PUSH1 0x6 DUP3 MSTORE PUSH6 0x3B34B2BBB2B9 PUSH1 0xD1 SHL PUSH1 0x20 DUP4 ADD MSTORE JUMP JUMPDEST ISZERO PUSH2 0x47C9 JUMPI JUMP JUMPDEST PUSH1 0x40 MLOAD PUSH3 0x461BCD PUSH1 0xE5 SHL DUP2 MSTORE PUSH1 0x20 PUSH1 0x4 DUP3 ADD MSTORE PUSH1 0xA PUSH1 0x24 DUP3 ADD MSTORE PUSH10 0x27B7363C9030B236B4B7 PUSH1 0xB1 SHL PUSH1 0x44 DUP3 ADD MSTORE PUSH1 0x64 SWAP1 REVERT JUMPDEST ISZERO PUSH2 0x4802 JUMPI JUMP JUMPDEST PUSH1 0x40 MLOAD PUSH3 0x461BCD PUSH1 0xE5 SHL DUP2 MSTORE PUSH1 0x20 PUSH1 0x4 DUP3 ADD MSTORE PUSH1 0x15 PUSH1 0x24 DUP3 ADD MSTORE PUSH21 0x15D85B1B195D081B9BDD081C9959DA5CDD195C9959 PUSH1 0x5A SHL PUSH1 0x44 DUP3 ADD MSTORE PUSH1 0x64 SWAP1 REVERT JUMPDEST ISZERO PUSH2 0x4846 JUMPI JUMP JUMPDEST PUSH1 0x40 MLOAD PUSH3 0x461BCD PUSH1 0xE5 SHL DUP2 MSTORE PUSH1 0x20 PUSH1 0x4 DUP3 ADD MSTORE PUSH1 0xF PUSH1 0x24 DUP3 ADD MSTORE PUSH15 0x496E76616C69642074727573746565 PUSH1 0x88 SHL PUSH1 0x44 DUP3 ADD MSTORE PUSH1 0x64 SWAP1 REVERT JUMPDEST ISZERO PUSH2 0x4884 JUMPI JUMP JUMPDEST PUSH1 0x40 MLOAD PUSH3 0x461BCD PUSH1 0xE5 SHL DUP2 MSTORE PUSH1 0x20 PUSH1 0x4 DUP3 ADD MSTORE PUSH1 0x17 PUSH1 0x24 DUP3 ADD MSTORE PUSH32 0x43616E6E6F74206170706F696E7420796F757273656C66000000000000000000 PUSH1 0x44 DUP3 ADD MSTORE PUSH1 0x64 SWAP1 REVERT JUMPDEST ISZERO PUSH2 0x48D0 JUMPI JUMP JUMPDEST PUSH1 0x40 MLOAD PUSH3 0x461BCD PUSH1 0xE5 SHL DUP2 MSTORE PUSH1 0x20 PUSH1 0x4 DUP3 ADD MSTORE PUSH1 0x16 PUSH1 0x24 DUP3 ADD MSTORE PUSH22 0x151C9D5CDD1959481B9BDD081C9959DA5CDD195C9959 PUSH1 0x52 SHL PUSH1 0x44 DUP3 ADD MSTORE PUSH1 0x64 SWAP1 REVERT JUMPDEST PUSH1 0x4 DUP3 LT ISZERO PUSH2 0x44FF JUMPI MSTORE JUMP JUMPDEST PUSH1 0x3 DUP3 LT ISZERO PUSH2 0x44FF JUMPI MSTORE JUMP JUMPDEST SWAP1 PUSH1 0x4 DUP2 LT ISZERO PUSH2 0x44FF JUMPI PUSH1 0xFF DUP1 NOT DUP4 SLOAD AND SWAP2 AND OR SWAP1 SSTORE JUMP JUMPDEST SWAP1 PUSH1 0x3 DUP2 LT ISZERO PUSH2 0x44FF JUMPI PUSH2 0xFF00 DUP3 SLOAD SWAP2 PUSH1 0x8 SHL AND SWAP1 PUSH2 0xFF00 NOT AND OR SWAP1 SSTORE JUMP JUMPDEST ISZERO PUSH2 0x4964 JUMPI JUMP JUMPDEST PUSH1 0x40 MLOAD PUSH3 0x461BCD PUSH1 0xE5 SHL DUP2 MSTORE PUSH1 0x20 PUSH1 0x4 DUP3 ADD MSTORE PUSH1 0x1E PUSH1 0x24 DUP3 ADD MSTORE PUSH32 0x5265636F726420494420686173682063616E6E6F7420626520656D7074790000 PUSH1 0x44 DUP3 ADD MSTORE PUSH1 0x64 SWAP1 REVERT JUMPDEST ISZERO PUSH2 0x49B0 JUMPI JUMP JUMPDEST PUSH1 0x40 MLOAD PUSH3 0x461BCD PUSH1 0xE5 SHL DUP2 MSTORE PUSH1 0x20 PUSH1 0x4 DUP3 ADD MSTORE PUSH1 0x1D PUSH1 0x24 DUP3 ADD MSTORE PUSH32 0x57616C6C657420616464726573732063616E6E6F74206265207A65726F000000 PUSH1 0x44 DUP3 ADD MSTORE PUSH1 0x64 SWAP1 REVERT JUMPDEST ISZERO PUSH2 0x49FC JUMPI JUMP JUMPDEST PUSH1 0x40 MLOAD PUSH3 0x461BCD PUSH1 0xE5 SHL DUP2 MSTORE PUSH1 0x20 PUSH1 0x4 DUP3 ADD MSTORE PUSH1 0x13 PUSH1 0x24 DUP3 ADD MSTORE PUSH19 0x496E76616C696420726F6C6520737472696E67 PUSH1 0x68 SHL PUSH1 0x44 DUP3 ADD MSTORE PUSH1 0x64 SWAP1 REVERT JUMPDEST ISZERO PUSH2 0x4A3E JUMPI JUMP JUMPDEST PUSH1 0x40 MLOAD PUSH3 0x461BCD PUSH1 0xE5 SHL DUP2 MSTORE PUSH1 0x20 PUSH1 0x4 DUP3 ADD MSTORE PUSH1 0x23 PUSH1 0x24 DUP3 ADD MSTORE PUSH32 0x54617267657420646F6573206E6F74206861766520616E206163746976652072 PUSH1 0x44 DUP3 ADD MSTORE PUSH3 0x6F6C65 PUSH1 0xE8 SHL PUSH1 0x64 DUP3 ADD MSTORE PUSH1 0x84 SWAP1 REVERT JUMPDEST PUSH1 0x40 MLOAD SWAP1 PUSH2 0x4A9C DUP3 PUSH2 0x4081 JUMP JUMPDEST PUSH1 0x5 DUP3 MSTORE PUSH5 0x37BBB732B9 PUSH1 0xD9 SHL PUSH1 0x20 DUP4 ADD MSTORE JUMP JUMPDEST PUSH1 0x40 MLOAD SWAP1 PUSH2 0x4ABD DUP3 PUSH2 0x4081 JUMP JUMPDEST PUSH1 0xD DUP3 MSTORE PUSH13 0x30B236B4B734B9BA3930BA37B9 PUSH1 0x99 SHL PUSH1 0x20 DUP4 ADD MSTORE JUMP JUMPDEST SWAP2 SWAP1 PUSH1 0x1 DUP1 PUSH1 0xA0 SHL SUB AND PUSH0 MSTORE PUSH1 0x1 PUSH1 0x20 MSTORE PUSH1 0x40 PUSH0 KECCAK256 SLOAD DUP1 ISZERO PUSH2 0x4AFE JUMPI PUSH2 0x41DE SWAP3 PUSH2 0x5149 JUMP JUMPDEST POP POP POP PUSH0 SWAP1 JUMP JUMPDEST PUSH1 0x1 PUSH1 0x1 PUSH1 0xA0 SHL SUB SWAP1 SWAP2 AND PUSH0 SWAP1 DUP2 MSTORE PUSH1 0x1 PUSH1 0x20 MSTORE PUSH1 0x40 SWAP1 KECCAK256 SLOAD SWAP1 DUP2 ISZERO PUSH2 0x4B67 JUMPI PUSH1 0x20 SWAP3 SWAP2 PUSH2 0x4B32 SWAP2 PUSH2 0x4FE4 JUMP JUMPDEST PUSH0 MSTORE PUSH1 0x6 DUP3 MSTORE PUSH1 0x40 PUSH0 KECCAK256 PUSH1 0x40 MLOAD PUSH2 0x4B48 DUP2 PUSH2 0x4081 JUMP JUMPDEST PUSH1 0xFF PUSH1 0x1 PUSH2 0x4B55 DUP5 PUSH2 0x43C9 JUMP JUMPDEST SWAP4 DUP5 DUP5 MSTORE ADD SLOAD AND ISZERO ISZERO SWAP4 DUP5 SWAP2 ADD MSTORE SWAP2 SWAP1 JUMP JUMPDEST POP POP PUSH1 0x40 MLOAD PUSH2 0x4B75 DUP2 PUSH2 0x40CB JUMP JUMPDEST PUSH0 DUP2 MSTORE SWAP1 PUSH0 SWAP1 JUMP JUMPDEST ISZERO PUSH2 0x4B84 JUMPI JUMP JUMPDEST PUSH1 0x40 MLOAD PUSH3 0x461BCD PUSH1 0xE5 SHL DUP2 MSTORE PUSH1 0x20 PUSH1 0x4 DUP3 ADD MSTORE PUSH1 0x16 PUSH1 0x24 DUP3 ADD MSTORE PUSH22 0x496E76616C69642077616C6C65742061646472657373 PUSH1 0x50 SHL PUSH1 0x44 DUP3 ADD MSTORE PUSH1 0x64 SWAP1 REVERT JUMPDEST ISZERO PUSH2 0x4BC9 JUMPI JUMP JUMPDEST PUSH1 0x40 MLOAD PUSH3 0x461BCD PUSH1 0xE5 SHL DUP2 MSTORE PUSH1 0x20 PUSH1 0x4 DUP3 ADD MSTORE PUSH1 0x14 PUSH1 0x24 DUP3 ADD MSTORE PUSH20 0x92DCECC2D8D2C840EAE6CAE440928840D0C2E6D PUSH1 0x63 SHL PUSH1 0x44 DUP3 ADD MSTORE PUSH1 0x64 SWAP1 REVERT JUMPDEST ISZERO PUSH2 0x4C0C JUMPI JUMP JUMPDEST PUSH1 0x40 MLOAD PUSH3 0x461BCD PUSH1 0xE5 SHL DUP2 MSTORE PUSH1 0x20 PUSH1 0x4 DUP3 ADD MSTORE PUSH1 0x19 PUSH1 0x24 DUP3 ADD MSTORE PUSH32 0x57616C6C657420616C7265616479207265676973746572656400000000000000 PUSH1 0x44 DUP3 ADD MSTORE PUSH1 0x64 SWAP1 REVERT JUMPDEST ISZERO PUSH2 0x4C58 JUMPI JUMP JUMPDEST PUSH1 0x40 MLOAD PUSH3 0x461BCD PUSH1 0xE5 SHL DUP2 MSTORE PUSH1 0x20 PUSH1 0x4 DUP3 ADD MSTORE PUSH1 0x1E PUSH1 0x24 DUP3 ADD MSTORE PUSH32 0x4E6F2061637469766520747275737465652072656C6174696F6E736869700000 PUSH1 0x44 DUP3 ADD MSTORE PUSH1 0x64 SWAP1 REVERT JUMPDEST PUSH2 0x4CBE PUSH1 0x40 SWAP3 SWAP6 SWAP5 SWAP4 PUSH2 0x4CB4 DUP4 PUSH1 0x60 DUP2 ADD SWAP9 PUSH2 0x4513 JUMP JUMPDEST PUSH1 0x20 DUP4 ADD SWAP1 PUSH2 0x4513 JUMP JUMPDEST ADD MSTORE JUMP JUMPDEST ISZERO PUSH2 0x4CC9 JUMPI JUMP JUMPDEST PUSH1 0x40 MLOAD PUSH3 0x461BCD PUSH1 0xE5 SHL DUP2 MSTORE PUSH1 0x20 PUSH1 0x4 DUP3 ADD MSTORE PUSH1 0xF PUSH1 0x24 DUP3 ADD MSTORE PUSH15 0x496E76616C69642061646472657373 PUSH1 0x88 SHL PUSH1 0x44 DUP3 ADD MSTORE PUSH1 0x64 SWAP1 REVERT JUMPDEST PUSH1 0x1 PUSH1 0x1 PUSH1 0xA0 SHL SUB SWAP1 SWAP2 AND PUSH0 SWAP1 DUP2 MSTORE PUSH1 0x1 PUSH1 0x20 MSTORE PUSH1 0x40 SWAP1 KECCAK256 SLOAD DUP1 ISZERO PUSH2 0x4664 JUMPI PUSH2 0x4D28 SWAP2 PUSH2 0x4FE4 JUMP JUMPDEST PUSH0 MSTORE PUSH1 0x6 PUSH1 0x20 MSTORE PUSH1 0xFF PUSH1 0x1 PUSH1 0x40 PUSH0 KECCAK256 ADD SLOAD AND SWAP1 JUMP JUMPDEST PUSH1 0x1 PUSH1 0x1 PUSH1 0xA0 SHL SUB AND PUSH0 SWAP1 DUP2 MSTORE PUSH1 0x1 PUSH1 0x20 MSTORE PUSH1 0x40 SWAP1 KECCAK256 DUP1 SLOAD SWAP1 DUP2 ISZERO SWAP1 DUP2 ISZERO PUSH2 0x4DB5 JUMPI JUMPDEST POP PUSH2 0x4DB0 JUMPI PUSH0 MSTORE PUSH1 0x2 PUSH1 0x20 MSTORE PUSH1 0xFF PUSH1 0x40 PUSH0 KECCAK256 SLOAD AND PUSH1 0x6 DUP2 LT ISZERO SWAP1 DUP2 PUSH2 0x44FF JUMPI PUSH1 0x2 DUP2 EQ SWAP2 DUP3 ISZERO PUSH2 0x4DA3 JUMPI JUMPDEST DUP3 ISZERO PUSH2 0x4D96 JUMPI POP POP SWAP1 JUMP JUMPDEST SWAP1 SWAP2 POP PUSH2 0x44FF JUMPI PUSH1 0x4 EQ SWAP1 JUMP JUMPDEST POP PUSH1 0x3 DUP2 EQ SWAP2 POP PUSH0 PUSH2 0x4D8B JUMP JUMPDEST POP PUSH0 SWAP1 JUMP JUMPDEST PUSH1 0xFF SWAP2 POP PUSH1 0x1 ADD SLOAD AND ISZERO PUSH0 PUSH2 0x4D60 JUMP JUMPDEST SWAP1 PUSH2 0x4D28 SWAP2 PUSH2 0x4FE4 JUMP JUMPDEST SWAP3 SWAP2 SWAP3 PUSH2 0x4DDC DUP3 DUP3 PUSH2 0x4FE4 JUMP JUMPDEST SWAP4 DUP5 PUSH0 MSTORE PUSH1 0x20 PUSH1 0x6 DUP2 MSTORE PUSH1 0x40 SWAP1 DUP2 PUSH0 KECCAK256 SWAP7 PUSH2 0x4DF6 DUP9 PUSH2 0x43C9 JUMP JUMPDEST SWAP8 DUP9 MLOAD ISZERO SWAP2 PUSH1 0xFF PUSH1 0x1 DUP1 SWAP4 ADD SLOAD AND SWAP2 DUP6 MLOAD SWAP1 PUSH2 0x4E11 DUP3 PUSH2 0x4081 JUMP JUMPDEST DUP8 DUP3 MSTORE DUP6 DUP3 ADD DUP2 DUP2 MSTORE DUP4 PUSH0 MSTORE PUSH1 0x6 DUP8 MSTORE DUP8 PUSH0 KECCAK256 SWAP3 MLOAD DUP1 MLOAD SWAP1 PUSH1 0x1 PUSH1 0x1 PUSH1 0x40 SHL SUB DUP3 GT PUSH2 0x409C JUMPI PUSH2 0x4E41 DUP6 SLOAD PUSH2 0x4391 JUMP JUMPDEST PUSH1 0x1F DUP2 GT PUSH2 0x4F9E JUMPI JUMPDEST POP DUP9 SWAP1 PUSH1 0x1F DUP4 GT PUSH1 0x1 EQ PUSH2 0x4F50 JUMPI PUSH2 0x4E8F SWAP6 SWAP5 SWAP4 SWAP3 SWAP2 PUSH0 SWAP2 DUP4 PUSH2 0x2310 JUMPI POP POP PUSH0 NOT PUSH1 0x3 DUP4 SWAP1 SHL SHR NOT AND SWAP1 DUP4 SHL OR DUP4 SSTORE MLOAD ISZERO ISZERO SWAP2 ADD SWAP1 PUSH1 0xFF DUP1 NOT DUP4 SLOAD AND SWAP2 ISZERO ISZERO AND OR SWAP1 SSTORE JUMP JUMPDEST PUSH0 MSTORE PUSH1 0xD DUP4 MSTORE DUP8 DUP5 PUSH0 KECCAK256 SSTORE ISZERO PUSH0 EQ PUSH2 0x4F1B JUMPI DUP6 SWAP7 SWAP8 POP PUSH2 0x4ED2 DUP5 DUP7 SWAP8 PUSH32 0xF9D17EB1340AB78960B594FF8BED1349985B800EE21199C6D5EA4A67454593AD SWAP8 PUSH2 0x546E JUMP JUMPDEST PUSH2 0x4EF5 JUMPI JUMPDEST PUSH2 0x4EEA DUP3 MLOAD SWAP4 DUP4 DUP6 SWAP5 DUP6 MSTORE DUP5 ADD SWAP1 PUSH2 0x446B JUMP JUMPDEST SWAP1 TIMESTAMP SWAP1 DUP4 ADD MSTORE SUB SWAP1 LOG4 JUMP JUMPDEST DUP6 PUSH0 MSTORE PUSH1 0xA DUP2 MSTORE PUSH2 0x4F08 DUP6 DUP4 PUSH0 KECCAK256 PUSH2 0x472E JUMP JUMPDEST PUSH2 0x4F13 PUSH1 0xB SLOAD PUSH2 0x476A JUMP JUMPDEST PUSH1 0xB SSTORE PUSH2 0x4ED7 JUMP JUMPDEST POP SWAP2 SWAP5 POP POP DUP5 MLOAD DUP2 DUP7 ADD KECCAK256 SWAP1 DUP5 MLOAD SWAP1 DUP6 ADD KECCAK256 SUB PUSH2 0x4F39 JUMPI JUMPDEST POP POP POP POP JUMP JUMPDEST PUSH2 0x230B PUSH2 0x4F47 SWAP5 DUP4 DUP4 PUSH2 0x5018 JUMP JUMPDEST PUSH0 DUP1 DUP1 DUP1 PUSH2 0x4F33 JUMP JUMPDEST SWAP1 PUSH1 0x1F NOT DUP4 AND SWAP2 DUP7 PUSH0 MSTORE DUP11 PUSH0 KECCAK256 SWAP3 PUSH0 JUMPDEST DUP13 DUP3 DUP3 LT PUSH2 0x4F8A JUMPI POP POP SWAP2 DUP7 SWAP6 SWAP5 SWAP3 SWAP2 DUP4 PUSH2 0x4E8F SWAP10 SWAP9 SWAP6 SWAP4 LT PUSH2 0x2356 JUMPI POP POP POP DUP2 SHL ADD DUP4 SSTORE PUSH2 0x224B JUMP JUMPDEST DUP4 DUP6 ADD MLOAD DUP7 SSTORE SWAP5 DUP9 ADD SWAP5 SWAP4 DUP5 ADD SWAP4 ADD PUSH2 0x4F60 JUMP JUMPDEST DUP6 PUSH0 MSTORE DUP10 PUSH0 KECCAK256 PUSH1 0x1F DUP5 ADD PUSH1 0x5 SHR DUP2 ADD SWAP2 DUP12 DUP6 LT PUSH2 0x4FDA JUMPI JUMPDEST PUSH1 0x1F ADD PUSH1 0x5 SHR ADD SWAP1 DUP6 SWAP1 JUMPDEST DUP3 DUP2 LT PUSH2 0x4FCF JUMPI POP POP PUSH2 0x4E4A JUMP JUMPDEST PUSH0 DUP2 SSTORE ADD DUP6 SWAP1 PUSH2 0x4FC1 JUMP JUMPDEST SWAP1 SWAP2 POP DUP2 SWAP1 PUSH2 0x4FB6 JUMP JUMPDEST SWAP1 PUSH1 0x40 MLOAD SWAP1 PUSH1 0x20 DUP3 ADD SWAP3 DUP4 MSTORE PUSH1 0x40 DUP3 ADD MSTORE PUSH1 0x40 DUP2 MSTORE PUSH1 0x60 DUP2 ADD DUP2 DUP2 LT PUSH1 0x1 PUSH1 0x1 PUSH1 0x40 SHL SUB DUP3 GT OR PUSH2 0x409C JUMPI PUSH1 0x40 MSTORE MLOAD SWAP1 KECCAK256 SWAP1 JUMP JUMPDEST DUP3 MLOAD PUSH1 0x20 DUP1 SWAP5 ADD KECCAK256 PUSH2 0x5028 PUSH2 0x4A8F JUMP JUMPDEST DUP1 MLOAD SWAP1 DUP6 ADD KECCAK256 DUP2 SUB PUSH2 0x5048 JUMPI POP PUSH2 0x4409 SWAP3 PUSH1 0x7 SWAP2 PUSH0 MSTORE MSTORE PUSH1 0x40 PUSH0 KECCAK256 PUSH2 0x54F1 JUMP JUMPDEST PUSH2 0x5050 PUSH2 0x4AB0 JUMP JUMPDEST DUP1 MLOAD SWAP1 DUP6 ADD KECCAK256 DUP2 SUB PUSH2 0x5070 JUMPI POP PUSH2 0x4409 SWAP3 PUSH1 0x8 SWAP2 PUSH0 MSTORE MSTORE PUSH1 0x40 PUSH0 KECCAK256 PUSH2 0x54F1 JUMP JUMPDEST PUSH2 0x5078 PUSH2 0x47A0 JUMP JUMPDEST DUP5 DUP2 MLOAD SWAP2 ADD KECCAK256 EQ PUSH2 0x5088 JUMPI POP POP POP JUMP JUMPDEST PUSH2 0x4409 SWAP3 PUSH1 0x9 SWAP2 PUSH0 MSTORE MSTORE PUSH1 0x40 PUSH0 KECCAK256 PUSH2 0x54F1 JUMP JUMPDEST PUSH1 0x1 PUSH1 0x1 PUSH1 0xA0 SHL SUB AND PUSH0 SWAP1 DUP2 MSTORE PUSH1 0x1 PUSH1 0x20 MSTORE PUSH1 0x40 SWAP1 KECCAK256 DUP1 SLOAD SWAP1 DUP2 ISZERO SWAP1 DUP2 ISZERO PUSH2 0x50E1 JUMPI JUMPDEST POP PUSH2 0x4DB0 JUMPI PUSH0 MSTORE PUSH1 0x2 PUSH1 0x20 MSTORE PUSH1 0xFF PUSH1 0x40 PUSH0 KECCAK256 SLOAD AND PUSH1 0x6 DUP2 LT ISZERO PUSH2 0x44FF JUMPI PUSH1 0x4 EQ SWAP1 JUMP JUMPDEST PUSH1 0xFF SWAP2 POP PUSH1 0x1 ADD SLOAD AND ISZERO PUSH0 PUSH2 0x50BE JUMP JUMPDEST PUSH1 0x20 DUP2 MLOAD SWAP2 ADD KECCAK256 PUSH2 0x5100 PUSH2 0x4A8F JUMP JUMPDEST PUSH1 0x20 DUP2 MLOAD SWAP2 ADD KECCAK256 DUP2 EQ SWAP1 DUP2 ISZERO PUSH2 0x5130 JUMPI JUMPDEST DUP2 ISZERO PUSH2 0x511B JUMPI POP SWAP1 JUMP JUMPDEST SWAP1 POP PUSH2 0x5125 PUSH2 0x47A0 JUMP JUMPDEST PUSH1 0x20 DUP2 MLOAD SWAP2 ADD KECCAK256 EQ SWAP1 JUMP JUMPDEST SWAP1 POP PUSH2 0x513A PUSH2 0x4AB0 JUMP JUMPDEST PUSH1 0x20 DUP2 MLOAD SWAP2 ADD KECCAK256 DUP2 EQ SWAP1 PUSH2 0x5111 JUMP JUMPDEST PUSH1 0x20 SWAP3 SWAP2 PUSH2 0x5156 SWAP2 PUSH2 0x4FE4 JUMP JUMPDEST PUSH0 MSTORE PUSH1 0x6 DUP3 MSTORE PUSH1 0x40 PUSH0 KECCAK256 PUSH1 0x40 MLOAD PUSH2 0x516C DUP2 PUSH2 0x4081 JUMP JUMPDEST PUSH1 0xFF PUSH1 0x1 PUSH2 0x5179 DUP5 PUSH2 0x43C9 JUMP JUMPDEST SWAP4 DUP5 DUP5 MSTORE ADD SLOAD AND ISZERO ISZERO SWAP4 DUP5 SWAP2 ADD MSTORE DUP3 PUSH2 0x5191 JUMPI POP POP SWAP1 JUMP JUMPDEST SWAP1 SWAP2 POP PUSH1 0x20 DUP2 MLOAD SWAP2 ADD KECCAK256 SWAP1 PUSH1 0x20 DUP2 MLOAD SWAP2 ADD KECCAK256 EQ SWAP1 JUMP JUMPDEST SWAP2 SWAP3 PUSH32 0x3AF67CF2057BA8EF414286FB626CD3EFB02F74996E18EFD455B39D8EC7EC460F SWAP2 SWAP5 PUSH2 0x5201 PUSH2 0x51F3 SWAP3 PUSH2 0x51DF DUP9 DUP3 DUP10 DUP10 PUSH2 0x4DCF JUMP JUMPDEST PUSH1 0x40 MLOAD SWAP4 DUP5 SWAP4 PUSH1 0x60 DUP6 MSTORE PUSH1 0x60 DUP6 ADD SWAP1 PUSH2 0x446B JUMP JUMPDEST SWAP1 DUP4 DUP3 SUB PUSH1 0x20 DUP6 ADD MSTORE PUSH2 0x446B JUMP JUMPDEST TIMESTAMP PUSH1 0x40 DUP4 ADD MSTORE SUB SWAP1 LOG4 JUMP JUMPDEST SWAP3 SWAP2 SWAP1 DUP4 PUSH0 MSTORE PUSH1 0x20 SWAP1 PUSH1 0x10 DUP3 MSTORE PUSH1 0x40 SWAP1 PUSH1 0x40 PUSH0 KECCAK256 DUP2 PUSH0 MSTORE DUP4 MSTORE PUSH1 0x40 PUSH0 KECCAK256 SWAP6 PUSH0 JUMPDEST DUP8 SLOAD DUP2 LT ISZERO PUSH2 0x52D7 JUMPI DUP1 PUSH2 0x5242 PUSH1 0x1 SWAP3 DUP11 PUSH2 0x44C9 JUMP JUMPDEST SWAP1 SLOAD SWAP1 PUSH1 0x3 SHL SHR PUSH2 0x5253 DUP6 DUP3 PUSH2 0x4FE4 JUMP JUMPDEST PUSH0 MSTORE PUSH1 0x6 DUP1 DUP9 MSTORE PUSH1 0xFF DUP5 DUP9 PUSH0 KECCAK256 ADD SLOAD AND ISZERO PUSH2 0x52D0 JUMPI PUSH2 0x5273 DUP10 DUP7 DUP5 PUSH2 0x536B JUMP JUMPDEST SWAP1 PUSH2 0x527D DUP3 PUSH2 0x50F1 JUMP JUMPDEST ISZERO PUSH2 0x52C8 JUMPI PUSH2 0x528C DUP8 DUP5 PUSH2 0x4FE4 JUMP JUMPDEST PUSH0 MSTORE DUP9 MSTORE PUSH2 0x529B DUP8 PUSH0 KECCAK256 PUSH2 0x43C9 JUMP JUMPDEST SWAP1 DUP7 DUP7 DUP4 MLOAD DUP12 DUP6 ADD KECCAK256 DUP4 MLOAD DUP13 DUP6 ADD KECCAK256 EQ PUSH2 0x52BE JUMPI PUSH2 0x52B8 SWAP5 PUSH2 0x51A7 JUMP JUMPDEST ADD PUSH2 0x522C JUMP JUMPDEST POP POP POP POP POP PUSH2 0x52B8 JUMP JUMPDEST POP POP POP PUSH2 0x52B8 JUMP JUMPDEST POP POP PUSH2 0x52B8 JUMP JUMPDEST POP POP POP POP POP POP SWAP1 POP JUMP JUMPDEST PUSH1 0xC SLOAD PUSH1 0x1 PUSH1 0x1 PUSH1 0xA0 SHL SUB AND SWAP2 DUP3 ISZERO PUSH2 0x4AFE JUMPI PUSH1 0x44 PUSH1 0x20 SWAP3 PUSH1 0x40 MLOAD SWAP5 DUP6 SWAP4 DUP5 SWAP3 PUSH4 0x193D8E75 PUSH1 0xE2 SHL DUP5 MSTORE PUSH1 0x4 DUP5 ADD MSTORE PUSH1 0x24 DUP4 ADD MSTORE GAS STATICCALL SWAP1 DUP2 ISZERO PUSH2 0x5360 JUMPI PUSH0 SWAP2 PUSH2 0x5328 JUMPI POP SWAP1 JUMP JUMPDEST SWAP1 POP PUSH1 0x20 DUP2 RETURNDATASIZE PUSH1 0x20 GT PUSH2 0x5358 JUMPI JUMPDEST DUP2 PUSH2 0x5343 PUSH1 0x20 SWAP4 DUP4 PUSH2 0x40E6 JUMP JUMPDEST DUP2 ADD SUB SLT PUSH2 0x369 JUMPI MLOAD DUP1 ISZERO ISZERO DUP2 SUB PUSH2 0x369 JUMPI SWAP1 JUMP JUMPDEST RETURNDATASIZE SWAP2 POP PUSH2 0x5336 JUMP JUMPDEST PUSH1 0x40 MLOAD RETURNDATASIZE PUSH0 DUP3 RETURNDATACOPY RETURNDATASIZE SWAP1 REVERT JUMPDEST PUSH1 0x3 DUP4 LT ISZERO PUSH2 0x44FF JUMPI DUP3 ISZERO PUSH2 0x53B6 JUMPI PUSH1 0x1 SWAP2 PUSH2 0x5386 SWAP2 PUSH2 0x5417 JUMP JUMPDEST SWAP2 EQ PUSH2 0x538F JUMPI SWAP1 JUMP JUMPDEST DUP1 MLOAD PUSH1 0x20 DUP3 ADD KECCAK256 PUSH2 0x539E PUSH2 0x4A8F JUMP JUMPDEST PUSH1 0x20 DUP2 MLOAD SWAP2 ADD KECCAK256 EQ PUSH2 0x53AD JUMPI SWAP1 JUMP JUMPDEST POP PUSH2 0x41DE PUSH2 0x4AB0 JUMP JUMPDEST POP POP POP PUSH2 0x41DE PUSH2 0x47A0 JUMP JUMPDEST PUSH1 0x1 PUSH1 0x1 PUSH1 0xA0 SHL SUB AND PUSH0 SWAP1 DUP2 MSTORE PUSH1 0x1 PUSH1 0x20 MSTORE PUSH1 0x40 SWAP1 KECCAK256 DUP1 SLOAD SWAP1 DUP2 ISZERO SWAP1 DUP2 ISZERO PUSH2 0x5407 JUMPI JUMPDEST POP PUSH2 0x4DB0 JUMPI PUSH0 MSTORE PUSH1 0x2 PUSH1 0x20 MSTORE PUSH1 0xFF PUSH1 0x40 PUSH0 KECCAK256 SLOAD AND PUSH1 0x6 DUP2 LT ISZERO PUSH2 0x44FF JUMPI PUSH1 0x3 EQ SWAP1 JUMP JUMPDEST PUSH1 0xFF SWAP2 POP PUSH1 0x1 ADD SLOAD AND ISZERO PUSH0 PUSH2 0x53E4 JUMP JUMPDEST SWAP1 PUSH2 0x5421 SWAP2 PUSH2 0x4FE4 JUMP JUMPDEST PUSH0 MSTORE PUSH1 0x6 PUSH1 0x20 MSTORE PUSH1 0x40 PUSH0 KECCAK256 PUSH1 0xFF PUSH1 0x1 PUSH1 0x40 MLOAD SWAP3 PUSH2 0x543D DUP5 PUSH2 0x4081 JUMP JUMPDEST PUSH2 0x5446 DUP2 PUSH2 0x43C9 JUMP JUMPDEST DUP5 MSTORE ADD SLOAD AND ISZERO DUP1 ISZERO PUSH1 0x20 DUP4 ADD MSTORE PUSH2 0x545B JUMPI MLOAD SWAP1 JUMP JUMPDEST POP PUSH1 0x40 MLOAD PUSH2 0x5468 DUP2 PUSH2 0x40CB JUMP JUMPDEST PUSH0 DUP2 MSTORE SWAP1 JUMP JUMPDEST DUP3 MLOAD PUSH1 0x20 DUP1 SWAP5 ADD KECCAK256 PUSH2 0x547E PUSH2 0x4A8F JUMP JUMPDEST DUP1 MLOAD SWAP1 DUP6 ADD KECCAK256 DUP2 SUB PUSH2 0x549E JUMPI POP PUSH2 0x4409 SWAP3 PUSH1 0x7 SWAP2 PUSH0 MSTORE MSTORE PUSH1 0x40 PUSH0 KECCAK256 PUSH2 0x472E JUMP JUMPDEST PUSH2 0x54A6 PUSH2 0x4AB0 JUMP JUMPDEST DUP1 MLOAD SWAP1 DUP6 ADD KECCAK256 DUP2 SUB PUSH2 0x54C6 JUMPI POP PUSH2 0x4409 SWAP3 PUSH1 0x8 SWAP2 PUSH0 MSTORE MSTORE PUSH1 0x40 PUSH0 KECCAK256 PUSH2 0x472E JUMP JUMPDEST PUSH2 0x54CE PUSH2 0x47A0 JUMP JUMPDEST DUP5 DUP2 MLOAD SWAP2 ADD KECCAK256 EQ PUSH2 0x54DE JUMPI POP POP POP JUMP JUMPDEST PUSH2 0x4409 SWAP3 PUSH1 0x9 SWAP2 PUSH0 MSTORE MSTORE PUSH1 0x40 PUSH0 KECCAK256 PUSH2 0x472E JUMP JUMPDEST PUSH0 JUMPDEST DUP2 SLOAD SWAP1 DUP2 DUP2 LT ISZERO PUSH2 0x4F33 JUMPI DUP4 SWAP2 PUSH2 0x550A DUP3 DUP6 PUSH2 0x44C9 JUMP JUMPDEST SWAP6 SWAP1 SLOAD PUSH1 0x3 SWAP7 DUP8 SHL SHR EQ PUSH2 0x5524 JUMPI POP SWAP1 SWAP3 POP PUSH1 0x1 ADD PUSH2 0x54F3 JUMP JUMPDEST PUSH0 NOT SWAP3 POP DUP3 DUP2 ADD SWAP1 DUP2 GT PUSH2 0x4778 JUMPI PUSH2 0x4750 PUSH2 0x5542 PUSH2 0x554F SWAP3 DUP7 PUSH2 0x44C9 JUMP JUMPDEST SWAP1 SLOAD SWAP1 DUP8 SHL SHR SWAP3 DUP6 PUSH2 0x44C9 JUMP JUMPDEST SWAP1 SSTORE DUP2 SLOAD DUP1 ISZERO PUSH2 0x5574 JUMPI DUP2 ADD SWAP3 PUSH2 0x5566 DUP5 DUP5 PUSH2 0x44C9 JUMP JUMPDEST DUP2 SWAP4 SWAP2 SLOAD SWAP3 SHL SHL NOT AND SWAP1 SSTORE SSTORE JUMP JUMPDEST PUSH4 0x4E487B71 PUSH1 0xE0 SHL PUSH0 MSTORE PUSH1 0x31 PUSH1 0x4 MSTORE PUSH1 0x24 PUSH0 REVERT JUMPDEST SWAP1 PUSH0 DUP1 SWAP2 PUSH1 0x20 DUP2 MLOAD SWAP2 ADD DUP5 GAS DELEGATECALL DUP1 DUP1 PUSH2 0x5606 JUMPI JUMPDEST ISZERO PUSH2 0x55BC JUMPI POP POP PUSH1 0x40 MLOAD RETURNDATASIZE DUP2 MSTORE RETURNDATASIZE PUSH0 PUSH1 0x20 DUP4 ADD RETURNDATACOPY PUSH1 0x20 RETURNDATASIZE DUP3 ADD ADD PUSH1 0x40 MSTORE SWAP1 JUMP JUMPDEST ISZERO PUSH2 0x55E3 JUMPI PUSH1 0x40 MLOAD PUSH4 0x9996B315 PUSH1 0xE0 SHL DUP2 MSTORE PUSH1 0x1 PUSH1 0x1 PUSH1 0xA0 SHL SUB SWAP1 SWAP2 AND PUSH1 0x4 DUP3 ADD MSTORE PUSH1 0x24 SWAP1 REVERT JUMPDEST RETURNDATASIZE ISZERO PUSH2 0x55F4 JUMPI PUSH1 0x40 MLOAD RETURNDATASIZE PUSH0 DUP3 RETURNDATACOPY RETURNDATASIZE SWAP1 REVERT JUMPDEST PUSH1 0x40 MLOAD PUSH4 0xD6BDA275 PUSH1 0xE0 SHL DUP2 MSTORE PUSH1 0x4 SWAP1 REVERT JUMPDEST POP RETURNDATASIZE ISZERO ISZERO DUP1 PUSH2 0x559C JUMPI POP DUP2 EXTCODESIZE ISZERO ISZERO PUSH2 0x559C JUMP INVALID LOG2 PUSH5 0x6970667358 0x22 SLT KECCAK256 PUSH24 0xDD43C84A8DBE34A951D978F92E6285B79FD0BC292522B602 PUSH11 0xF64E856BFF0064736F6C63 NUMBER STOP ADDMOD XOR STOP CALLER "},"methodIdentifiers":{"UPGRADE_INTERFACE_VERSION()":"ad3cb1cc","acceptTrustee(bytes32)":"b8cab84b","addMember(address,bytes32)":"49df7208","addMemberBatch(address[],bytes32)":"69ac2022","admin()":"f851a440","adminsByRecord(bytes32,uint256)":"8776cd35","bootstrapDependentTrustee(bytes32,bytes32)":"e6efcd5d","changeRole(bytes32,address,string)":"29c9087a","changeRoleBatch(bytes32[],address,string[])":"51eed472","deactivateWallet(address)":"0b3ffd1d","downgradeTrusteeLevel(bytes32,uint8)":"4d3c4a7c","getAllUsers()":"e2842d79","getGuestAccess(bytes32,bytes32)":"3256e5ab","getHealthRecordCore()":"e94ed257","getRecordAdmins(bytes32)":"41a51baa","getRecordOwners(bytes32)":"c36dc9ef","getRecordRoleStats(bytes32)":"8db7edb4","getRecordViewers(bytes32)":"033e822f","getRecordsByUser(bytes32)":"6544b05b","getRoleDetails(bytes32,address)":"422a5bb8","getRoleDetailsByUser(bytes32,bytes32)":"43e19704","getRoleGranter(bytes32,bytes32)":"aaddc345","getTotalRoles()":"4b6feb7c","getTotalUsers()":"9be572f6","getTrusteeGrantedRecords(bytes32,bytes32)":"c497d840","getTrusteeRelationship(bytes32,bytes32)":"9915b91f","getUserForWallet(address)":"00b0c809","getUserStatus(bytes32)":"f29e007b","getWalletsForUser(bytes32)":"d12a7768","grantGuestAccess(bytes32[],address,bytes32,bytes32,uint256)":"0591bdf4","grantRole(bytes32,address,string)":"dde492ea","grantRoleAsTrusteeBatch(bytes32[],bytes32)":"bafc8892","grantRoleBatch(bytes32[],address,string[])":"02ba8109","guestAccessByRecord(bytes32,bytes32)":"eec047aa","hasActiveGuestAccess(bytes32,bytes32)":"e211e89c","hasActiveRole(bytes32,address)":"c88c35fe","hasRole(bytes32,address,string)":"3befa410","healthRecordCore()":"562c788e","initialize()":"8129fc1c","initializeRecordRole(bytes32,address,string)":"726d5447","isActiveMember(address)":"45ecd02f","isActiveSubject(bytes32,bytes32)":"64f639d4","isControllerOf(bytes32,bytes32)":"557ee54f","isOwnerOrAdmin(bytes32,address)":"0519e2a0","isVerifiedMember(address)":"cb261a03","isVerifiedProvider(address)":"259ed80e","ownersByRecord(bytes32,uint256)":"55816079","proposeTrustee(bytes32,uint8)":"1c0c18d8","proxiableUUID()":"52d1902d","reactivateWallet(address)":"bb0f86d5","recordRoles(bytes32)":"33105592","recordsByUser(bytes32,uint256)":"fa7a6bcc","revokeGuestAccess(bytes32[],bytes32)":"1dc63201","revokeRole(bytes32,address)":"d547741f","revokeRoleBatch(bytes32[],address)":"f12b9ad3","revokeTrustee(bytes32,bytes32)":"c979c9bf","roleGrantedBy(bytes32)":"cda06c6e","setHealthRecordCore(address)":"c7155823","setUserStatus(bytes32,uint8)":"96207e02","totalRoles()":"790e118c","totalUsers()":"bff1f9e1","transferAdmin(address)":"75829def","trusteeRelationships(bytes32,bytes32)":"7b657d07","updateTrusteeLevel(bytes32,uint8)":"ab48384a","upgradeToAndCall(address,bytes)":"4f1ef286","userList(uint256)":"9f4216e8","userStatus(bytes32)":"6b4bed97","userWallets(bytes32,uint256)":"9443cd80","viewersByRecord(bytes32,uint256)":"93ccfba8","voluntarilyLeaveOwnership(bytes32)":"2ae8511d","wallets(address)":"89b08f11"}},"storageLayout":{"storage":[{"astId":1563,"contract":"smartContracts/MemberRoleManager.sol:MemberRoleManager","label":"admin","offset":0,"slot":"0","type":"t_address"},{"astId":1756,"contract":"smartContracts/MemberRoleManager.sol:MemberRoleManager","label":"wallets","offset":0,"slot":"1","type":"t_mapping(t_address,t_struct(UserInfo)1751_storage)"},{"astId":1761,"contract":"smartContracts/MemberRoleManager.sol:MemberRoleManager","label":"userStatus","offset":0,"slot":"2","type":"t_mapping(t_bytes32,t_enum(MemberStatus)1716)"},{"astId":1766,"contract":"smartContracts/MemberRoleManager.sol:MemberRoleManager","label":"userWallets","offset":0,"slot":"3","type":"t_mapping(t_bytes32,t_array(t_address)dyn_storage)"},{"astId":1769,"contract":"smartContracts/MemberRoleManager.sol:MemberRoleManager","label":"userList","offset":0,"slot":"4","type":"t_array(t_bytes32)dyn_storage"},{"astId":1771,"contract":"smartContracts/MemberRoleManager.sol:MemberRoleManager","label":"totalUsers","offset":0,"slot":"5","type":"t_uint256"},{"astId":2423,"contract":"smartContracts/MemberRoleManager.sol:MemberRoleManager","label":"recordRoles","offset":0,"slot":"6","type":"t_mapping(t_bytes32,t_struct(RecordRole)2418_storage)"},{"astId":2428,"contract":"smartContracts/MemberRoleManager.sol:MemberRoleManager","label":"ownersByRecord","offset":0,"slot":"7","type":"t_mapping(t_bytes32,t_array(t_bytes32)dyn_storage)"},{"astId":2433,"contract":"smartContracts/MemberRoleManager.sol:MemberRoleManager","label":"adminsByRecord","offset":0,"slot":"8","type":"t_mapping(t_bytes32,t_array(t_bytes32)dyn_storage)"},{"astId":2438,"contract":"smartContracts/MemberRoleManager.sol:MemberRoleManager","label":"viewersByRecord","offset":0,"slot":"9","type":"t_mapping(t_bytes32,t_array(t_bytes32)dyn_storage)"},{"astId":2443,"contract":"smartContracts/MemberRoleManager.sol:MemberRoleManager","label":"recordsByUser","offset":0,"slot":"10","type":"t_mapping(t_bytes32,t_array(t_bytes32)dyn_storage)"},{"astId":2445,"contract":"smartContracts/MemberRoleManager.sol:MemberRoleManager","label":"totalRoles","offset":0,"slot":"11","type":"t_uint256"},{"astId":2448,"contract":"smartContracts/MemberRoleManager.sol:MemberRoleManager","label":"healthRecordCore","offset":0,"slot":"12","type":"t_contract(HealthRecordCoreInterface)1554"},{"astId":2452,"contract":"smartContracts/MemberRoleManager.sol:MemberRoleManager","label":"roleGrantedBy","offset":0,"slot":"13","type":"t_mapping(t_bytes32,t_bytes32)"},{"astId":4250,"contract":"smartContracts/MemberRoleManager.sol:MemberRoleManager","label":"trusteeRelationships","offset":0,"slot":"14","type":"t_mapping(t_bytes32,t_mapping(t_bytes32,t_struct(TrusteeRelationship)4243_storage))"},{"astId":5808,"contract":"smartContracts/MemberRoleManager.sol:MemberRoleManager","label":"guestAccessByRecord","offset":0,"slot":"15","type":"t_mapping(t_bytes32,t_mapping(t_bytes32,t_struct(GuestAccess)5777_storage))"},{"astId":6184,"contract":"smartContracts/MemberRoleManager.sol:MemberRoleManager","label":"_trusteeGrantedRecords","offset":0,"slot":"16","type":"t_mapping(t_bytes32,t_mapping(t_bytes32,t_array(t_bytes32)dyn_storage))"},{"astId":6192,"contract":"smartContracts/MemberRoleManager.sol:MemberRoleManager","label":"_trusteeGrantedRecordSet","offset":0,"slot":"17","type":"t_mapping(t_bytes32,t_mapping(t_bytes32,t_mapping(t_bytes32,t_bool)))"},{"astId":6196,"contract":"smartContracts/MemberRoleManager.sol:MemberRoleManager","label":"__gap","offset":0,"slot":"18","type":"t_array(t_uint256)48_storage"}],"types":{"t_address":{"encoding":"inplace","label":"address","numberOfBytes":"20"},"t_array(t_address)dyn_storage":{"base":"t_address","encoding":"dynamic_array","label":"address[]","numberOfBytes":"32"},"t_array(t_bytes32)dyn_storage":{"base":"t_bytes32","encoding":"dynamic_array","label":"bytes32[]","numberOfBytes":"32"},"t_array(t_uint256)48_storage":{"base":"t_uint256","encoding":"inplace","label":"uint256[48]","numberOfBytes":"1536"},"t_bool":{"encoding":"inplace","label":"bool","numberOfBytes":"1"},"t_bytes32":{"encoding":"inplace","label":"bytes32","numberOfBytes":"32"},"t_contract(HealthRecordCoreInterface)1554":{"encoding":"inplace","label":"contract HealthRecordCoreInterface","numberOfBytes":"20"},"t_enum(MemberStatus)1716":{"encoding":"inplace","label":"enum MemberRoleManager.MemberStatus","numberOfBytes":"1"},"t_enum(TrusteeLevel)4231":{"encoding":"inplace","label":"enum MemberRoleManager.TrusteeLevel","numberOfBytes":"1"},"t_enum(TrusteeStatus)4236":{"encoding":"inplace","label":"enum MemberRoleManager.TrusteeStatus","numberOfBytes":"1"},"t_mapping(t_address,t_struct(UserInfo)1751_storage)":{"encoding":"mapping","key":"t_address","label":"mapping(address => struct MemberRoleManager.UserInfo)","numberOfBytes":"32","value":"t_struct(UserInfo)1751_storage"},"t_mapping(t_bytes32,t_array(t_address)dyn_storage)":{"encoding":"mapping","key":"t_bytes32","label":"mapping(bytes32 => address[])","numberOfBytes":"32","value":"t_array(t_address)dyn_storage"},"t_mapping(t_bytes32,t_array(t_bytes32)dyn_storage)":{"encoding":"mapping","key":"t_bytes32","label":"mapping(bytes32 => bytes32[])","numberOfBytes":"32","value":"t_array(t_bytes32)dyn_storage"},"t_mapping(t_bytes32,t_bool)":{"encoding":"mapping","key":"t_bytes32","label":"mapping(bytes32 => bool)","numberOfBytes":"32","value":"t_bool"},"t_mapping(t_bytes32,t_bytes32)":{"encoding":"mapping","key":"t_bytes32","label":"mapping(bytes32 => bytes32)","numberOfBytes":"32","value":"t_bytes32"},"t_mapping(t_bytes32,t_enum(MemberStatus)1716)":{"encoding":"mapping","key":"t_bytes32","label":"mapping(bytes32 => enum MemberRoleManager.MemberStatus)","numberOfBytes":"32","value":"t_enum(MemberStatus)1716"},"t_mapping(t_bytes32,t_mapping(t_bytes32,t_array(t_bytes32)dyn_storage))":{"encoding":"mapping","key":"t_bytes32","label":"mapping(bytes32 => mapping(bytes32 => bytes32[]))","numberOfBytes":"32","value":"t_mapping(t_bytes32,t_array(t_bytes32)dyn_storage)"},"t_mapping(t_bytes32,t_mapping(t_bytes32,t_bool))":{"encoding":"mapping","key":"t_bytes32","label":"mapping(bytes32 => mapping(bytes32 => bool))","numberOfBytes":"32","value":"t_mapping(t_bytes32,t_bool)"},"t_mapping(t_bytes32,t_mapping(t_bytes32,t_mapping(t_bytes32,t_bool)))":{"encoding":"mapping","key":"t_bytes32","label":"mapping(bytes32 => mapping(bytes32 => mapping(bytes32 => bool)))","numberOfBytes":"32","value":"t_mapping(t_bytes32,t_mapping(t_bytes32,t_bool))"},"t_mapping(t_bytes32,t_mapping(t_bytes32,t_struct(GuestAccess)5777_storage))":{"encoding":"mapping","key":"t_bytes32","label":"mapping(bytes32 => mapping(bytes32 => struct MemberRoleManager.GuestAccess))","numberOfBytes":"32","value":"t_mapping(t_bytes32,t_struct(GuestAccess)5777_storage)"},"t_mapping(t_bytes32,t_mapping(t_bytes32,t_struct(TrusteeRelationship)4243_storage))":{"encoding":"mapping","key":"t_bytes32","label":"mapping(bytes32 => mapping(bytes32 => struct MemberRoleManager.TrusteeRelationship))","numberOfBytes":"32","value":"t_mapping(t_bytes32,t_struct(TrusteeRelationship)4243_storage)"},"t_mapping(t_bytes32,t_struct(GuestAccess)5777_storage)":{"encoding":"mapping","key":"t_bytes32","label":"mapping(bytes32 => struct MemberRoleManager.GuestAccess)","numberOfBytes":"32","value":"t_struct(GuestAccess)5777_storage"},"t_mapping(t_bytes32,t_struct(RecordRole)2418_storage)":{"encoding":"mapping","key":"t_bytes32","label":"mapping(bytes32 => struct MemberRoleManager.RecordRole)","numberOfBytes":"32","value":"t_struct(RecordRole)2418_storage"},"t_mapping(t_bytes32,t_struct(TrusteeRelationship)4243_storage)":{"encoding":"mapping","key":"t_bytes32","label":"mapping(bytes32 => struct MemberRoleManager.TrusteeRelationship)","numberOfBytes":"32","value":"t_struct(TrusteeRelationship)4243_storage"},"t_string_storage":{"encoding":"bytes","label":"string","numberOfBytes":"32"},"t_struct(GuestAccess)5777_storage":{"encoding":"inplace","label":"struct MemberRoleManager.GuestAccess","members":[{"astId":5770,"contract":"smartContracts/MemberRoleManager.sol:MemberRoleManager","label":"grantedAt","offset":0,"slot":"0","type":"t_uint256"},{"astId":5772,"contract":"smartContracts/MemberRoleManager.sol:MemberRoleManager","label":"expiresAt","offset":0,"slot":"1","type":"t_uint256"},{"astId":5774,"contract":"smartContracts/MemberRoleManager.sol:MemberRoleManager","label":"grantedByIdHash","offset":0,"slot":"2","type":"t_bytes32"},{"astId":5776,"contract":"smartContracts/MemberRoleManager.sol:MemberRoleManager","label":"guestEmailHash","offset":0,"slot":"3","type":"t_bytes32"}],"numberOfBytes":"128"},"t_struct(RecordRole)2418_storage":{"encoding":"inplace","label":"struct MemberRoleManager.RecordRole","members":[{"astId":2415,"contract":"smartContracts/MemberRoleManager.sol:MemberRoleManager","label":"role","offset":0,"slot":"0","type":"t_string_storage"},{"astId":2417,"contract":"smartContracts/MemberRoleManager.sol:MemberRoleManager","label":"isActive","offset":0,"slot":"1","type":"t_bool"}],"numberOfBytes":"64"},"t_struct(TrusteeRelationship)4243_storage":{"encoding":"inplace","label":"struct MemberRoleManager.TrusteeRelationship","members":[{"astId":4239,"contract":"smartContracts/MemberRoleManager.sol:MemberRoleManager","label":"status","offset":0,"slot":"0","type":"t_enum(TrusteeStatus)4236"},{"astId":4242,"contract":"smartContracts/MemberRoleManager.sol:MemberRoleManager","label":"level","offset":1,"slot":"0","type":"t_enum(TrusteeLevel)4231"}],"numberOfBytes":"32"},"t_struct(UserInfo)1751_storage":{"encoding":"inplace","label":"struct MemberRoleManager.UserInfo","members":[{"astId":1748,"contract":"smartContracts/MemberRoleManager.sol:MemberRoleManager","label":"userIdHash","offset":0,"slot":"0","type":"t_bytes32"},{"astId":1750,"contract":"smartContracts/MemberRoleManager.sol:MemberRoleManager","label":"isWalletActive","offset":0,"slot":"1","type":"t_bool"}],"numberOfBytes":"64"},"t_uint256":{"encoding":"inplace","label":"uint256","numberOfBytes":"32"}}}}}}