{"smartContracts/MemberRoleManager.sol":{"MemberRoleManager":{"abi":[{"inputs":[],"stateMutability":"nonpayable","type":"constructor"},{"inputs":[{"internalType":"address","name":"target","type":"address"}],"name":"AddressEmptyCode","type":"error"},{"inputs":[{"internalType":"address","name":"implementation","type":"address"}],"name":"ERC1967InvalidImplementation","type":"error"},{"inputs":[],"name":"ERC1967NonPayable","type":"error"},{"inputs":[],"name":"FailedCall","type":"error"},{"inputs":[],"name":"InvalidInitialization","type":"error"},{"inputs":[],"name":"NotInitializing","type":"error"},{"inputs":[],"name":"UUPSUnauthorizedCallContext","type":"error"},{"inputs":[{"internalType":"bytes32","name":"slot","type":"bytes32"}],"name":"UUPSUnsupportedProxiableUUID","type":"error"},{"anonymous":false,"inputs":[{"indexed":true,"internalType":"address","name":"oldAdmin","type":"address"},{"indexed":true,"internalType":"address","name":"newAdmin","type":"address"},{"indexed":false,"internalType":"uint256","name":"timestamp","type":"uint256"}],"name":"AdminTransferred","type":"event"},{"anonymous":false,"inputs":[{"indexed":true,"internalType":"address","name":"newAddress","type":"address"},{"indexed":false,"internalType":"uint256","name":"timestamp","type":"uint256"}],"name":"HealthRecordCoreUpdated","type":"event"},{"anonymous":false,"inputs":[{"indexed":false,"internalType":"uint64","name":"version","type":"uint64"}],"name":"Initialized","type":"event"},{"anonymous":false,"inputs":[{"indexed":true,"internalType":"address","name":"wallet","type":"address"},{"indexed":true,"internalType":"bytes32","name":"userIdHash","type":"bytes32"},{"indexed":false,"internalType":"uint256","name":"timestamp","type":"uint256"}],"name":"MemberRegistered","type":"event"},{"anonymous":false,"inputs":[{"indexed":true,"internalType":"bytes32","name":"userIdHash","type":"bytes32"},{"indexed":false,"internalType":"enum MemberRoleManager.MemberStatus","name":"oldStatus","type":"uint8"},{"indexed":false,"internalType":"enum MemberRoleManager.MemberStatus","name":"newStatus","type":"uint8"},{"indexed":true,"internalType":"address","name":"changedBy","type":"address"},{"indexed":false,"internalType":"uint256","name":"timestamp","type":"uint256"}],"name":"MemberStatusChanged","type":"event"},{"anonymous":false,"inputs":[{"indexed":true,"internalType":"bytes32","name":"recordIdHash","type":"bytes32"},{"indexed":true,"internalType":"bytes32","name":"userIdHash","type":"bytes32"},{"indexed":false,"internalType":"uint256","name":"timestamp","type":"uint256"}],"name":"OwnershipVoluntarilyLeft","type":"event"},{"anonymous":false,"inputs":[{"indexed":true,"internalType":"bytes32","name":"recordIdHash","type":"bytes32"},{"indexed":true,"internalType":"bytes32","name":"targetIdHash","type":"bytes32"},{"indexed":false,"internalType":"string","name":"oldRole","type":"string"},{"indexed":false,"internalType":"string","name":"newRole","type":"string"},{"indexed":true,"internalType":"bytes32","name":"userIdHash","type":"bytes32"},{"indexed":false,"internalType":"uint256","name":"timestamp","type":"uint256"}],"name":"RoleChanged","type":"event"},{"anonymous":false,"inputs":[{"indexed":true,"internalType":"bytes32","name":"recordIdHash","type":"bytes32"},{"indexed":true,"internalType":"bytes32","name":"targetIdHash","type":"bytes32"},{"indexed":false,"internalType":"string","name":"role","type":"string"},{"indexed":true,"internalType":"bytes32","name":"userIdHash","type":"bytes32"},{"indexed":false,"internalType":"uint256","name":"timestamp","type":"uint256"}],"name":"RoleGranted","type":"event"},{"anonymous":false,"inputs":[{"indexed":true,"internalType":"bytes32","name":"recordIdHash","type":"bytes32"},{"indexed":true,"internalType":"bytes32","name":"targetIdHash","type":"bytes32"},{"indexed":false,"internalType":"string","name":"role","type":"string"},{"indexed":true,"internalType":"bytes32","name":"userIdHash","type":"bytes32"},{"indexed":false,"internalType":"uint256","name":"timestamp","type":"uint256"}],"name":"RoleRevoked","type":"event"},{"anonymous":false,"inputs":[{"indexed":true,"internalType":"bytes32","name":"trustorIdHash","type":"bytes32"},{"indexed":true,"internalType":"bytes32","name":"trusteeIdHash","type":"bytes32"},{"indexed":false,"internalType":"enum MemberRoleManager.TrusteeLevel","name":"level","type":"uint8"},{"indexed":false,"internalType":"uint256","name":"timestamp","type":"uint256"}],"name":"TrusteeAccepted","type":"event"},{"anonymous":false,"inputs":[{"indexed":true,"internalType":"bytes32","name":"trustorIdHash","type":"bytes32"},{"indexed":true,"internalType":"bytes32","name":"trusteeIdHash","type":"bytes32"},{"indexed":false,"internalType":"uint256","name":"timestamp","type":"uint256"}],"name":"TrusteeDeclined","type":"event"},{"anonymous":false,"inputs":[{"indexed":true,"internalType":"bytes32","name":"trustorIdHash","type":"bytes32"},{"indexed":true,"internalType":"bytes32","name":"trusteeIdHash","type":"bytes32"},{"indexed":false,"internalType":"enum MemberRoleManager.TrusteeLevel","name":"oldLevel","type":"uint8"},{"indexed":false,"internalType":"enum MemberRoleManager.TrusteeLevel","name":"newLevel","type":"uint8"},{"indexed":false,"internalType":"uint256","name":"timestamp","type":"uint256"}],"name":"TrusteeLevelUpdated","type":"event"},{"anonymous":false,"inputs":[{"indexed":true,"internalType":"bytes32","name":"trustorIdHash","type":"bytes32"},{"indexed":true,"internalType":"bytes32","name":"trusteeIdHash","type":"bytes32"},{"indexed":false,"internalType":"enum MemberRoleManager.TrusteeLevel","name":"level","type":"uint8"},{"indexed":false,"internalType":"uint256","name":"timestamp","type":"uint256"}],"name":"TrusteeProposed","type":"event"},{"anonymous":false,"inputs":[{"indexed":true,"internalType":"bytes32","name":"trustorIdHash","type":"bytes32"},{"indexed":true,"internalType":"bytes32","name":"trusteeIdHash","type":"bytes32"},{"indexed":true,"internalType":"bytes32","name":"revokedBy","type":"bytes32"},{"indexed":false,"internalType":"uint256","name":"timestamp","type":"uint256"}],"name":"TrusteeRevoked","type":"event"},{"anonymous":false,"inputs":[{"indexed":true,"internalType":"address","name":"implementation","type":"address"}],"name":"Upgraded","type":"event"},{"anonymous":false,"inputs":[{"indexed":true,"internalType":"address","name":"wallet","type":"address"},{"indexed":true,"internalType":"bytes32","name":"userIdHash","type":"bytes32"},{"indexed":false,"internalType":"uint256","name":"timestamp","type":"uint256"}],"name":"WalletLinked","type":"event"},{"inputs":[],"name":"UPGRADE_INTERFACE_VERSION","outputs":[{"internalType":"string","name":"","type":"string"}],"stateMutability":"view","type":"function"},{"inputs":[{"internalType":"bytes32","name":"trustorIdHash","type":"bytes32"}],"name":"acceptTrustee","outputs":[],"stateMutability":"nonpayable","type":"function"},{"inputs":[{"internalType":"address","name":"wallet","type":"address"},{"internalType":"bytes32","name":"userIdHash","type":"bytes32"}],"name":"addMember","outputs":[],"stateMutability":"nonpayable","type":"function"},{"inputs":[{"internalType":"address[]","name":"walletAddresses","type":"address[]"},{"internalType":"bytes32","name":"userIdHash","type":"bytes32"}],"name":"addMemberBatch","outputs":[],"stateMutability":"nonpayable","type":"function"},{"inputs":[],"name":"admin","outputs":[{"internalType":"address","name":"","type":"address"}],"stateMutability":"view","type":"function"},{"inputs":[{"internalType":"bytes32","name":"","type":"bytes32"},{"internalType":"uint256","name":"","type":"uint256"}],"name":"adminsByRecord","outputs":[{"internalType":"bytes32","name":"","type":"bytes32"}],"stateMutability":"view","type":"function"},{"inputs":[{"internalType":"bytes32","name":"trustorIdHash","type":"bytes32"},{"internalType":"bytes32","name":"trusteeIdHash","type":"bytes32"}],"name":"bootstrapDependentTrustee","outputs":[],"stateMutability":"nonpayable","type":"function"},{"inputs":[{"internalType":"bytes32","name":"recordIdHash","type":"bytes32"},{"internalType":"address","name":"targetWallet","type":"address"},{"internalType":"string","name":"newRole","type":"string"}],"name":"changeRole","outputs":[],"stateMutability":"nonpayable","type":"function"},{"inputs":[{"internalType":"bytes32[]","name":"recordIdHashes","type":"bytes32[]"},{"internalType":"address","name":"targetWallet","type":"address"},{"internalType":"string[]","name":"newRoles","type":"string[]"}],"name":"changeRoleBatch","outputs":[],"stateMutability":"nonpayable","type":"function"},{"inputs":[{"internalType":"address","name":"wallet","type":"address"}],"name":"deactivateWallet","outputs":[],"stateMutability":"nonpayable","type":"function"},{"inputs":[{"internalType":"bytes32","name":"trustorIdHash","type":"bytes32"}],"name":"declineTrustee","outputs":[],"stateMutability":"nonpayable","type":"function"},{"inputs":[{"internalType":"bytes32","name":"trustorIdHash","type":"bytes32"},{"internalType":"enum MemberRoleManager.TrusteeLevel","name":"newLevel","type":"uint8"}],"name":"downgradeTrusteeLevel","outputs":[],"stateMutability":"nonpayable","type":"function"},{"inputs":[{"internalType":"bytes32","name":"recordIdHash","type":"bytes32"}],"name":"getAllRecordParticipants","outputs":[{"internalType":"bytes32[]","name":"owners","type":"bytes32[]"},{"internalType":"bytes32[]","name":"admins","type":"bytes32[]"},{"internalType":"bytes32[]","name":"sharers","type":"bytes32[]"},{"internalType":"bytes32[]","name":"viewers","type":"bytes32[]"}],"stateMutability":"view","type":"function"},{"inputs":[],"name":"getAllUsers","outputs":[{"internalType":"bytes32[]","name":"","type":"bytes32[]"}],"stateMutability":"view","type":"function"},{"inputs":[],"name":"getHealthRecordCore","outputs":[{"internalType":"address","name":"","type":"address"}],"stateMutability":"view","type":"function"},{"inputs":[{"internalType":"bytes32","name":"recordIdHash","type":"bytes32"}],"name":"getRecordAdmins","outputs":[{"internalType":"bytes32[]","name":"","type":"bytes32[]"}],"stateMutability":"view","type":"function"},{"inputs":[{"internalType":"bytes32","name":"recordIdHash","type":"bytes32"}],"name":"getRecordOwners","outputs":[{"internalType":"bytes32[]","name":"","type":"bytes32[]"}],"stateMutability":"view","type":"function"},{"inputs":[{"internalType":"bytes32","name":"recordIdHash","type":"bytes32"}],"name":"getRecordRoleStats","outputs":[{"internalType":"uint256","name":"ownerCount","type":"uint256"},{"internalType":"uint256","name":"adminCount","type":"uint256"},{"internalType":"uint256","name":"sharerCount","type":"uint256"},{"internalType":"uint256","name":"viewerCount","type":"uint256"}],"stateMutability":"view","type":"function"},{"inputs":[{"internalType":"bytes32","name":"recordIdHash","type":"bytes32"}],"name":"getRecordSharers","outputs":[{"internalType":"bytes32[]","name":"","type":"bytes32[]"}],"stateMutability":"view","type":"function"},{"inputs":[{"internalType":"bytes32","name":"recordIdHash","type":"bytes32"}],"name":"getRecordViewers","outputs":[{"internalType":"bytes32[]","name":"","type":"bytes32[]"}],"stateMutability":"view","type":"function"},{"inputs":[{"internalType":"bytes32","name":"userIdHash","type":"bytes32"}],"name":"getRecordsByUser","outputs":[{"internalType":"bytes32[]","name":"","type":"bytes32[]"}],"stateMutability":"view","type":"function"},{"inputs":[{"internalType":"bytes32","name":"recordIdHash","type":"bytes32"},{"internalType":"address","name":"wallet","type":"address"}],"name":"getRoleDetails","outputs":[{"internalType":"string","name":"role","type":"string"},{"internalType":"bool","name":"isActive","type":"bool"}],"stateMutability":"view","type":"function"},{"inputs":[{"internalType":"bytes32","name":"recordIdHash","type":"bytes32"},{"internalType":"bytes32","name":"userIdHash","type":"bytes32"}],"name":"getRoleDetailsByUser","outputs":[{"internalType":"string","name":"role","type":"string"},{"internalType":"bool","name":"isActive","type":"bool"}],"stateMutability":"view","type":"function"},{"inputs":[{"internalType":"bytes32","name":"recordIdHash","type":"bytes32"},{"internalType":"bytes32","name":"userIdHash","type":"bytes32"}],"name":"getRoleGranter","outputs":[{"internalType":"bytes32","name":"","type":"bytes32"}],"stateMutability":"view","type":"function"},{"inputs":[],"name":"getTotalRoles","outputs":[{"internalType":"uint256","name":"","type":"uint256"}],"stateMutability":"view","type":"function"},{"inputs":[],"name":"getTotalUsers","outputs":[{"internalType":"uint256","name":"","type":"uint256"}],"stateMutability":"view","type":"function"},{"inputs":[{"internalType":"bytes32","name":"trustorIdHash","type":"bytes32"},{"internalType":"bytes32","name":"trusteeIdHash","type":"bytes32"}],"name":"getTrusteeGrantedRecords","outputs":[{"internalType":"bytes32[]","name":"","type":"bytes32[]"}],"stateMutability":"view","type":"function"},{"inputs":[{"internalType":"bytes32","name":"trustorIdHash","type":"bytes32"},{"internalType":"bytes32","name":"trusteeIdHash","type":"bytes32"}],"name":"getTrusteeRelationship","outputs":[{"internalType":"enum MemberRoleManager.TrusteeStatus","name":"status","type":"uint8"},{"internalType":"enum MemberRoleManager.TrusteeLevel","name":"level","type":"uint8"}],"stateMutability":"view","type":"function"},{"inputs":[{"internalType":"address","name":"wallet","type":"address"}],"name":"getUserForWallet","outputs":[{"internalType":"bytes32","name":"","type":"bytes32"}],"stateMutability":"view","type":"function"},{"inputs":[{"internalType":"bytes32","name":"userIdHash","type":"bytes32"}],"name":"getUserStatus","outputs":[{"internalType":"enum MemberRoleManager.MemberStatus","name":"status","type":"uint8"}],"stateMutability":"view","type":"function"},{"inputs":[{"internalType":"bytes32","name":"userIdHash","type":"bytes32"}],"name":"getWalletsForUser","outputs":[{"internalType":"address[]","name":"","type":"address[]"}],"stateMutability":"view","type":"function"},{"inputs":[{"internalType":"bytes32","name":"recordIdHash","type":"bytes32"},{"internalType":"address","name":"targetWallet","type":"address"},{"internalType":"string","name":"role","type":"string"}],"name":"grantRole","outputs":[],"stateMutability":"nonpayable","type":"function"},{"inputs":[{"internalType":"bytes32[]","name":"recordIdHashes","type":"bytes32[]"},{"internalType":"address","name":"targetWallet","type":"address"},{"internalType":"string[]","name":"roles","type":"string[]"}],"name":"grantRoleBatch","outputs":[],"stateMutability":"nonpayable","type":"function"},{"inputs":[{"internalType":"bytes32","name":"recordIdHash","type":"bytes32"},{"internalType":"address","name":"wallet","type":"address"}],"name":"hasActiveRole","outputs":[{"internalType":"bool","name":"","type":"bool"}],"stateMutability":"view","type":"function"},{"inputs":[{"internalType":"bytes32","name":"recordIdHash","type":"bytes32"},{"internalType":"address","name":"wallet","type":"address"},{"internalType":"string","name":"role","type":"string"}],"name":"hasRole","outputs":[{"internalType":"bool","name":"","type":"bool"}],"stateMutability":"view","type":"function"},{"inputs":[],"name":"healthRecordCore","outputs":[{"internalType":"contract HealthRecordCoreInterface","name":"","type":"address"}],"stateMutability":"view","type":"function"},{"inputs":[],"name":"initialize","outputs":[],"stateMutability":"nonpayable","type":"function"},{"inputs":[{"internalType":"bytes32","name":"recordIdHash","type":"bytes32"},{"internalType":"address","name":"targetWallet","type":"address"},{"internalType":"string","name":"role","type":"string"}],"name":"initializeRecordRole","outputs":[],"stateMutability":"nonpayable","type":"function"},{"inputs":[{"internalType":"address","name":"wallet","type":"address"}],"name":"isActiveMember","outputs":[{"internalType":"bool","name":"","type":"bool"}],"stateMutability":"view","type":"function"},{"inputs":[{"internalType":"bytes32","name":"recordIdHash","type":"bytes32"},{"internalType":"bytes32","name":"userIdHash","type":"bytes32"}],"name":"isActiveSubject","outputs":[{"internalType":"bool","name":"","type":"bool"}],"stateMutability":"view","type":"function"},{"inputs":[{"internalType":"bytes32","name":"trustorIdHash","type":"bytes32"},{"internalType":"bytes32","name":"trusteeIdHash","type":"bytes32"}],"name":"isControllerOf","outputs":[{"internalType":"bool","name":"","type":"bool"}],"stateMutability":"view","type":"function"},{"inputs":[{"internalType":"bytes32","name":"recordIdHash","type":"bytes32"},{"internalType":"address","name":"wallet","type":"address"}],"name":"isOwnerOrAdmin","outputs":[{"internalType":"bool","name":"","type":"bool"}],"stateMutability":"view","type":"function"},{"inputs":[{"internalType":"address","name":"wallet","type":"address"}],"name":"isVerifiedMember","outputs":[{"internalType":"bool","name":"","type":"bool"}],"stateMutability":"view","type":"function"},{"inputs":[{"internalType":"address","name":"wallet","type":"address"}],"name":"isVerifiedProvider","outputs":[{"internalType":"bool","name":"","type":"bool"}],"stateMutability":"view","type":"function"},{"inputs":[{"internalType":"bytes32","name":"","type":"bytes32"},{"internalType":"uint256","name":"","type":"uint256"}],"name":"ownersByRecord","outputs":[{"internalType":"bytes32","name":"","type":"bytes32"}],"stateMutability":"view","type":"function"},{"inputs":[{"internalType":"bytes32","name":"trusteeIdHash","type":"bytes32"},{"internalType":"enum MemberRoleManager.TrusteeLevel","name":"level","type":"uint8"},{"internalType":"bytes32[]","name":"recordIdHashes","type":"bytes32[]"}],"name":"proposeTrustee","outputs":[],"stateMutability":"nonpayable","type":"function"},{"inputs":[],"name":"proxiableUUID","outputs":[{"internalType":"bytes32","name":"","type":"bytes32"}],"stateMutability":"view","type":"function"},{"inputs":[{"internalType":"address","name":"wallet","type":"address"}],"name":"reactivateWallet","outputs":[],"stateMutability":"nonpayable","type":"function"},{"inputs":[{"internalType":"bytes32","name":"","type":"bytes32"}],"name":"recordRoles","outputs":[{"internalType":"string","name":"role","type":"string"},{"internalType":"bool","name":"isActive","type":"bool"}],"stateMutability":"view","type":"function"},{"inputs":[{"internalType":"bytes32","name":"","type":"bytes32"},{"internalType":"uint256","name":"","type":"uint256"}],"name":"recordsByUser","outputs":[{"internalType":"bytes32","name":"","type":"bytes32"}],"stateMutability":"view","type":"function"},{"inputs":[{"internalType":"bytes32","name":"recordIdHash","type":"bytes32"},{"internalType":"address","name":"targetWallet","type":"address"}],"name":"revokeRole","outputs":[],"stateMutability":"nonpayable","type":"function"},{"inputs":[{"internalType":"bytes32[]","name":"recordIdHashes","type":"bytes32[]"},{"internalType":"address","name":"targetWallet","type":"address"}],"name":"revokeRoleBatch","outputs":[],"stateMutability":"nonpayable","type":"function"},{"inputs":[{"internalType":"bytes32","name":"trustorIdHash","type":"bytes32"},{"internalType":"bytes32","name":"trusteeIdHash","type":"bytes32"}],"name":"revokeTrustee","outputs":[],"stateMutability":"nonpayable","type":"function"},{"inputs":[{"internalType":"bytes32","name":"","type":"bytes32"}],"name":"roleGrantedBy","outputs":[{"internalType":"bytes32","name":"","type":"bytes32"}],"stateMutability":"view","type":"function"},{"inputs":[{"internalType":"address","name":"_healthRecordCore","type":"address"}],"name":"setHealthRecordCore","outputs":[],"stateMutability":"nonpayable","type":"function"},{"inputs":[{"internalType":"bytes32","name":"userIdHash","type":"bytes32"},{"internalType":"enum MemberRoleManager.MemberStatus","name":"newStatus","type":"uint8"}],"name":"setUserStatus","outputs":[],"stateMutability":"nonpayable","type":"function"},{"inputs":[{"internalType":"bytes32","name":"","type":"bytes32"},{"internalType":"uint256","name":"","type":"uint256"}],"name":"sharersByRecord","outputs":[{"internalType":"bytes32","name":"","type":"bytes32"}],"stateMutability":"view","type":"function"},{"inputs":[],"name":"totalRoles","outputs":[{"internalType":"uint256","name":"","type":"uint256"}],"stateMutability":"view","type":"function"},{"inputs":[],"name":"totalUsers","outputs":[{"internalType":"uint256","name":"","type":"uint256"}],"stateMutability":"view","type":"function"},{"inputs":[{"internalType":"address","name":"newAdmin","type":"address"}],"name":"transferAdmin","outputs":[],"stateMutability":"nonpayable","type":"function"},{"inputs":[{"internalType":"bytes32","name":"","type":"bytes32"},{"internalType":"bytes32","name":"","type":"bytes32"}],"name":"trusteeRelationships","outputs":[{"internalType":"enum MemberRoleManager.TrusteeStatus","name":"status","type":"uint8"},{"internalType":"enum MemberRoleManager.TrusteeLevel","name":"level","type":"uint8"}],"stateMutability":"view","type":"function"},{"inputs":[{"internalType":"bytes32","name":"trusteeIdHash","type":"bytes32"},{"internalType":"enum MemberRoleManager.TrusteeLevel","name":"newLevel","type":"uint8"}],"name":"updateTrusteeLevel","outputs":[],"stateMutability":"nonpayable","type":"function"},{"inputs":[{"internalType":"address","name":"newImplementation","type":"address"},{"internalType":"bytes","name":"data","type":"bytes"}],"name":"upgradeToAndCall","outputs":[],"stateMutability":"payable","type":"function"},{"inputs":[{"internalType":"uint256","name":"","type":"uint256"}],"name":"userList","outputs":[{"internalType":"bytes32","name":"","type":"bytes32"}],"stateMutability":"view","type":"function"},{"inputs":[{"internalType":"bytes32","name":"","type":"bytes32"}],"name":"userStatus","outputs":[{"internalType":"enum MemberRoleManager.MemberStatus","name":"","type":"uint8"}],"stateMutability":"view","type":"function"},{"inputs":[{"internalType":"bytes32","name":"","type":"bytes32"},{"internalType":"uint256","name":"","type":"uint256"}],"name":"userWallets","outputs":[{"internalType":"address","name":"","type":"address"}],"stateMutability":"view","type":"function"},{"inputs":[{"internalType":"bytes32","name":"","type":"bytes32"},{"internalType":"uint256","name":"","type":"uint256"}],"name":"viewersByRecord","outputs":[{"internalType":"bytes32","name":"","type":"bytes32"}],"stateMutability":"view","type":"function"},{"inputs":[{"internalType":"bytes32","name":"recordIdHash","type":"bytes32"}],"name":"voluntarilyLeaveOwnership","outputs":[],"stateMutability":"nonpayable","type":"function"},{"inputs":[{"internalType":"address","name":"","type":"address"}],"name":"wallets","outputs":[{"internalType":"bytes32","name":"userIdHash","type":"bytes32"},{"internalType":"bool","name":"isWalletActive","type":"bool"}],"stateMutability":"view","type":"function"}],"evm":{"bytecode":{"linkReferences":{},"object":"60a08060405234620000d157306080527ff0c57e16840df040f15088dc2f81fe391c3923bec73e23a9662efc9c229c6a009081549060ff8260401c16620000c257506001600160401b036002600160401b0319828216016200007c575b6040516156fb9081620000d68239608051818181612c3801526130780152f35b6001600160401b031990911681179091556040519081527fc7f505b2f371ae2175ee4913f4499e1f2633a7b5936321eed1cdaeb6115181d290602090a15f80806200005c565b63f92ee8a960e01b8152600490fd5b5f80fdfe6080604090808252600480361015610015575f80fd5b5f3560e01c918262b0c809146140675750816302ba810914613f93578163033e822f14613f6a5781630519e2a014613f445781630b3ffd1d14613e87578163259ed80e14613e6257816329c9087a1461374a5781632ab5d8f3146137215781632ae8511d146135a457816333105592146135675781633befa4101461354c57816341a51baa14613523578163422a5bb8146134ef57816343e197041461349d57816345ecd02f1461347d57816349df7208146133345781634b6feb7c1461248c5781634d3c4a7c146132255781634f1ef2861461302857816351eed47214612c9c57816352d1902d14612c25578163557ee54f14612b8b5781635581607914612b5b578163562c788e1461079f57816364f639d414612b405781636544b05b14612b1757816369ac20221461291e5781636b4bed97146105a6578163726d5447146125cc57816375829def1461254e57816378ad8f5b146124aa578163790e118c1461248c5781637b657d07146124425781638129fc1c146123255781638776cd35146122f557816389b08f11146122b05781638db7edb41461226157816393ccfba8146122315781639443cd80146121eb57816396207e02146120a75781639915b91f1461201c5781639be572f614611caa5781639f4216e814611fd0578163aaddc34514611fa4578163ab48384a14611e9f578163ad3cb1cc14611e5b578163b8cab84b14611d7f578163bb0f86d514611cc8578163bff1f9e114611caa578163c36dc9ef14611c81578163c497d84014611c3f578163c715582314611bc3578163c88c35fe14611b9d578163c979c9bf1461190e578163cb261a03146118e0578163cda06c6e146118b9578163d12a77681461180a578163d547741f14611347578163dc9f96641461107d578163dde492ea14610a98578163e2842d7914610a0c578163e6efcd5d146107c7578163e94ed2571461079f578163f12b9ad3146105d9578163f29e007b146105a6578163f32b10f014610576578163f76794f11461037e57508063f851a440146103575763fa7a6bcc14610316575f80fd5b346103535761032436614486565b91905f52600b602052805f20805483101561035357602092610345916144bb565b91905490519160031b1c8152f35b5f80fd5b5034610353575f366003190112610353575f5490516001600160a01b039091168152602090f35b82346103535760209182600319360112610353578035926103a66103a133614d58565b61450f565b335f52600193848252835f205492815f52600f8352845f20845f528352845f209081549160ff918860ff85166103db816144e4565b036105335760ff1980941617905584837fc1f9bda0602b12c2f11218f87531038a6957666101c4faad39c882dcc5093dc6868951428152a3825f5260108452855f20855f528452855f20875f905b61044b575b610449888888885f5260108152825f20915f52525f20614c59565b005b815481101561052e57908882888a61046684989796866144bb565b90549060031b1c895f5260118b52815f20835f528b52815f20815f528b52815f208881541690556104978382614eb3565b5f528a60068082528887855f2001541615610524578493600e5f805160206156a6833981519152936104c98787614eb3565b93845f528082526104db845f20614386565b946104e7868a8a615034565b5f52815289835f20018d8154169055525f818120558d6105108251938385948552840190614428565b9042908301520390a45b0190919293610429565b505050505061051a565b61042e565b875162461bcd60e51b8152908101869052601e60248201527f4e6f2070656e64696e672070726f706f73616c20746f206465636c696e6500006044820152606490fd5b82346103535761058536614486565b91905f526009602052805f20805483101561035357602092610345916144bb565b823461035357602036600319011261035357602091355f526002825260ff815f2054169051906105d5816144e4565b8152f35b823461035357806003193601126103535781356001600160401b038111610353576106079036908401614149565b916106106140b1565b61061c6103a133614d58565b6001600160a01b031690811561076b5750335f52600192839260209060018252805f2054935f52805f205492610653841515614596565b5f955b61065c57005b805186101561044957868661067c86610676849a86614bbe565b516151b4565b156107665761068f876106768386614bbe565b156107665786866106aa816106a48588614bbe565b51614eb3565b805f5260068089526106bd885f20614386565b9182518a8401206106cc614830565b8b81519101201461075c576106eb846106e5888b614bbe565b51614f45565b61075c5761070483856106fe898c614bbe565b51615034565b5f52885284875f200160ff198154169055600e88525f878120555f805160206156a683398151915261074c6107398689614bbe565b519289519182918b83528b830190614428565b428c8301520390a45b0195610656565b5050505050610755565b610755565b606490602084519162461bcd60e51b8352820152600e60248201526d125b9d985b1a59081dd85b1b195d60921b6044820152fd5b8234610353575f36600319011261035357600d5490516001600160a01b039091168152602090f35b8234610353576107d636614486565b916107eb60018060a01b035f54163314614681565b81156109d8576107fc831515614c89565b61080883831415614cc7565b815f526002602081815260ff835f205416610822816144e4565b1561099d57845f5281815261084760ff845f205416610840816144e4565b1515614d13565b835f52600f8152825f20855f52815260ff835f205416610866816144e4565b8015908115610989575b5015610938578251610881816140c7565b828152818101838152855f52600f8352845f20875f5283526108b0855f2092516108aa816144e4565b83614a71565b5196600388101561092557507fc5b2e1bd4433eb4e9e181cc803520513d39d918c96bddeebca1224e1c750963d9495966108e991614b7a565b85857f494d010fdf588a0e83d626ea6963187bdda6f88b7007f7bf280683d3f7dea8348580518681524286820152a382519182524290820152a3005b602190634e487b7160e01b5f525260245ffd5b8560849184519162461bcd60e51b8352820152602660248201527f52656c6174696f6e7368697020616c726561647920616374697665206f722070604482015265656e64696e6760d01b6064820152fd5b60039150610996816144e4565b1487610870565b8560649184519162461bcd60e51b83528201526016602482015275151c9d5cdd1bdc881b9bdd081c9959da5cdd195c995960521b6044820152fd5b5162461bcd60e51b8152602081850152600f60248201526e24b73b30b634b2103a393ab9ba37b960891b6044820152606490fd5b8234610353575f366003190112610353578051908183548082526020809201945f527f8a35acfbc15ff81a39ae7d344fd709f28e8600b4aa8c65c6b64bfe7fe36bd19b915f905b828210610a8157610a7d8686610a6b828b0383614111565b519182916020835260208301906142d9565b0390f35b835487529586019560019384019390910190610a53565b90503461035357610aa83661430c565b919290610ab76103a133614d58565b610ac28415156146fe565b6001600160a01b031692610ad784151561474a565b610ae8610ae384614e3b565b614796565b335f5260209160018352855f2054945f52855f205492610b09841515614596565b845181860120610b198785614eb3565b5f526006825260ff6001895f200154161561103c57835f5260078252875f2054151590610b4e610b47614830565b8987614ee7565b91610b61610b5a614851565b8a88614ee7565b91610b74610b6d61487a565b8b89614ee7565b90610b7f8b89614f45565b90610b88614830565b8051908801208103610cc8575050505f14610c6e575015610c2c575b610bae8484614eb3565b5f526006815260ff6001885f20015416610bce57505061044994506151be565b865162461bcd60e51b815291820152603360248201527f54617267657420616c726561647920686173206120726f6c652e2055736520636044820152721a185b99d9549bdb194a0a481a5b9cdd195859606a1b606482015260849150fd5b865162461bcd60e51b815291820181905260248201527f4f6e6c79206f776e6572732063616e206772616e74206f776e657220726f6c65604482015260649150fd5b9050610ba457865162461bcd60e51b815291820152602960248201527f4f6e6c792061646d696e6973747261746f72732063616e206772616e742066696044820152683939ba1037bbb732b960b91b606482015260849150fd5b90919250610cd4614851565b8051908701208103610d66575050508115610d5e575b5015610cf6575b610ba4565b865162461bcd60e51b815291820152603b60248201527f4f6e6c79206f776e65727320616e642061646d696e6973747261746f7273206360448201527f616e206772616e742061646d696e6973747261746f7220726f6c650000000000606482015260849150fd5b90505f610cea565b610d7194929461487a565b8051908701208103610eca575081159182610ec3575b8015610ebc575b8015610eb5575b15610e3c578315610e34575b5082610e2c575b5081610e23575b5015610ba457610dbf868461547b565b51610cf157865162461bcd60e51b815291820152603460248201527f4d757374206861766520616e2061637469766520726f6c6520746f206772616e6044820152737420736861726572207065726d697373696f6e7360601b606482015260849150fd5b9050155f610daf565b91505f610da8565b92505f610da1565b8a5162461bcd60e51b8152808701869052604760248201527f4f6e6c79206f776e6572732c2061646d696e6973747261746f72732c2073686160448201527f726572732c206f72207375626a656374732063616e206772616e742073686172606482015266657220726f6c6560c81b608482015260a490fd5b5080610d95565b5083610d8e565b5082610d87565b610ed261489c565b86815191012014610ee7575b50505050610ba4565b81159182611035575b801561102e575b8015611027575b15610fae578315610fa6575b5082610f9e575b5081610f95575b50610f27575b5f808080610ede565b610f31868461547b565b51610f1e57865162461bcd60e51b815291820152603460248201527f4d757374206861766520616e2061637469766520726f6c6520746f206772616e6044820152737420766965776572207065726d697373696f6e7360601b606482015260849150fd5b9050155f610f18565b91505f610f11565b92505f610f0a565b8a5162461bcd60e51b8152808701869052604760248201527f4f6e6c79206f776e6572732c2061646d696e6973747261746f72732c2073686160448201527f726572732c206f72207375626a656374732063616e206772616e742076696577606482015266657220726f6c6560c81b608482015260a490fd5b5080610efe565b5083610ef7565b5082610ef0565b60648383808b519262461bcd60e51b845283015260248201527f596f752068617665206e6f20726f6c6520666f722074686973207265636f72646044820152fd5b8234610353576060366003190112610353578135906024356003811015610353576044356001600160401b038111610353576110bc9036908601614149565b6110c86103a133614d58565b335f52600193602091858352845f20546110e3831515614c89565b6110ef83821415614cc7565b825f526002845260ff9161110c60ff885f205416610840816144e4565b815f52600f8552865f20845f52855260ff875f20541661112b816144e4565b89811591821561132f575b821561131b575b5050156112ca57865161114f816140c7565b88815285810161115f8882614bd2565b835f52600f8752885f20865f52875261117f895f2092516108aa816144e4565b519960038b10156109255750889961119691614b7a565b83827f494d010fdf588a0e83d626ea6963187bdda6f88b7007f7bf280683d3f7dea8348980516111c6818c614502565b428a820152a35f975b6111d557005b80518810156104495788886111eb829a84614bbe565b516111f7898683615425565b61120081614e3b565b156112c35761120f8683614eb3565b5f526006808a5287858d5f20015416156112bb5761122d8984614eb3565b5f5289528587858d5f200154166112bb576112499189846151be565b845f5260118089528a5f20885f5289528a5f20825f528952868b5f20541615611277575b50505b01976111cf565b855f52601089528a5f20885f528952611292828c5f20614ad0565b855f528852895f20875f528852895f20905f528752885f208260ff198254161790558b8061126d565b505050611270565b5050611270565b865162461bcd60e51b8152808a01869052602560248201527f50726f706f73616c20616c726561647920657869737473206f722069732070656044820152646e64696e6760d81b6064820152608490fd5b909150611327816144e4565b14898b61113d565b80925061133c91506144e4565b896003821491611136565b823461035357806003193601126103535781356113626140b1565b61136d8215156146fe565b6001600160a01b03169261138284151561474a565b335f5260209260018452805f2054945f52805f2054936113a3851515614596565b6113ad8585614eb3565b805f52600682526113c660ff6001855f200154166147d8565b805f52600682526113d8835f20614386565b938451838601206113e7614830565b8481519101208114611793576113fd8888614f45565b6117045787890361150b575b611411614851565b84815191012014611476575b509083929161143b5f805160206156a6833981519152958888615034565b5f52600681526001825f200160ff198154169055600e81525f8281205561146b8251938385948552840190614428565b9042908301520390a4005b855f52600883526001845f20541160078452845f205415158115611503575b5061141d57835162461bcd60e51b8152908101839052603960248201527f43616e6e6f74207265766f6b65206c6173742061646d696e6973747261746f7260448201527f20776974686f757420616e206f776e65722070726573656e74000000000000006064820152608490fd5b905089611495565b61151d611516614830565b8a89614ee7565b61152f611528614851565b8b8a614ee7565b845f52600e86528a875f2054149061154561489c565b878151910120841480156116ee575b156116005782156115f8575b5081156115f0575b5015611574575b611409565b845162461bcd60e51b8152808301859052604a60248201527f4f6e6c79206f776e6572732c2061646d696e6973747261746f72732c206f722060448201527f746865206772616e7465722063616e207265766f6b65207669657765722f73686064820152696172657220726f6c657360b01b608482015260a490fd5b90508a611568565b91508b611560565b8215929150826116e6575b501561168b57156114095761161e614851565b848151910120810361156f57865f5260078452845f20541561156f57845162461bcd60e51b8152808301859052602560248201527f4f6e6c79206f776e6572732063616e207265766f6b652061646d696e6973747260448201526461746f727360d81b6064820152608490fd5b855162461bcd60e51b8152808401869052602f60248201527f4f6e6c79206f776e65727320616e642061646d696e6973747261746f7273206360448201526e616e207265766f6b6520726f6c657360881b6064820152608490fd5b90508b61160b565b506116f761487a565b8781519101208414611554565b845162461bcd60e51b8152808301859052605760248201527f43616e6e6f74207265766f6b6520616e20616374697665207375626a6563742760448201527f7320726f6c652e20416374697665207375626a65637473206d75737420686f6c60648201527f64206174206c656173742073686172657220726f6c652e000000000000000000608482015260a490fd5b845162461bcd60e51b8152808301859052604560248201527f4f776e6572732063616e6e6f74206265207265766f6b65642e204f776e65722060448201527f6d7573742075736520766f6c756e746172696c794c656176654f776e6572736860648201526434b814149760d91b608482015260a490fd5b9050346103535760209081600319360112610353578290355f5260038252805f208151928381835491828152019081935f52825f20905f5b81811061189c5750505084611858910385614111565b825181815293518185018190528493840192915f5b82811061187c57505050500390f35b83516001600160a01b03168552869550938101939281019260010161186d565b82546001600160a01b031684529284019260019283019201611842565b823461035357602036600319011261035357602091355f52600e8252805f20549051908152f35b82346103535760203660031901126103535760209061190561190061409b565b6153d3565b90519015158152f35b82346103535761191d36614486565b909261192b6103a133614d58565b335f52600193602091858352845f2054908282148015611b94575b15611b5357825f52600f8452855f20855f52845260ff9060ff875f20541661196d816144e4565b8860028214918215611b3f575b505015611af25750825f52600f8452855f20855f528452855f2090600360ff19926003848254161790558387867f6df3a6475fab2eed139f7e469995b04e85bfc5b4b8642587109cb72541f74fae898c51428152a4845f5260108652875f20875f528652875f20895f905b611a05575b6104498a8a8a8a5f5260108152825f20915f52525f20614c59565b8154811015611aed57908a82878b8d8c611a24869c9b9a9998886144bb565b905490891b1c918d5f5260118252805f20845f528252805f20835f528252805f208b8154169055611a558484614eb3565b5f526006908183528a88825f2001541615611ae2575f805160206156a683398151915292611a838686614eb3565b92835f52808252611a95835f20614386565b93611aa1858989615034565b5f52815288825f20018d8154169055600e81525f82812055611acc8251938385948552840190614428565b9042908301520390a45b019091929394956119e5565b505050505050611ad6565b6119ea565b865162461bcd60e51b8152908101859052602160248201527f4e6f20616374697665206f722070656e64696e672072656c6174696f6e7368696044820152600760fc1b6064820152608490fd5b909150611b4b816144e4565b14888a61197a565b606490848088519262461bcd60e51b845283015260248201527f4e6f74206120706172747920746f20746869732072656c6174696f6e736869706044820152fd5b50848214611946565b8234610353578060031936011261035357611905602092611bbc6140b1565b9035614c1c565b8234610353576020366003190112610353577fce59ad7d6dabe8a7533ed7d9bd07d276a046ac7ac9a8e8e8971da4b81104a28b6020611c0061409b565b5f546001600160a01b039190611c199083163314614681565b1692611c26841515614bde565b600d80546001600160a01b0319168517905551428152a2005b823461035357610a7d90611c5236614486565b905f526010602052815f20905f52602052611c6e815f206145e2565b90519182916020835260208301906142d9565b823461035357602036600319011261035357610a7d91355f526007602052611c6e815f206145e2565b8234610353575f366003190112610353576020906005549051908152f35b90503461035357602036600319011261035357611ce361409b565b5f546001600160a01b039190611cfc9083163314614681565b16805f5260019182602052611d15845f205415156146ba565b815f528260205260ff83855f20015416611d4457509181925f52816020525f20019060ff198254161790555f80f35b606490602085519162461bcd60e51b8352820152601560248201527457616c6c657420616c72656164792061637469766560581b6044820152fd5b8234610353576020908160031936011261035357823591611da26103a133614d58565b335f5260018152815f205493835f52600f8252825f20855f528252825f2090815490600160ff8316611dd3816144e4565b03611e22575091611e1a60ff9260027fc5b2e1bd4433eb4e9e181cc803520513d39d918c96bddeebca1224e1c750963d969585191617809155845193849160081c16614502565b4290820152a3005b845162461bcd60e51b81529081018490526013602482015272139bc81c195b991a5b99c81c1c9bdc1bdcd85b606a1b6044820152606490fd5b8234610353575f366003190112610353578051610a7d91611e7b826140c7565b60058252640352e302e360dc1b602083015251918291602083526020830190614428565b90503461035357611eaf3661449c565b91611ebc6103a133614d58565b335f526001602052835f205490815f52600f602052845f20835f52602052845f2060ff8154611ef86002838316611ef2816144e4565b14614b2e565b60081c1691600386101561092557600383101561092557858314611f6157507fb36ec3c738ef8ecd9180addc815304762374b76e91c2a321831d9906ea119ade611f59859361044998611f4c898896614b7a565b5191829189429184614b99565b0390a36150df565b606490602088519162461bcd60e51b8352820152601860248201527f416c72656164792074686973207472757374206c6576656c00000000000000006044820152fd5b823461035357602090611fbf611fb936614486565b90614eb3565b5f52600e8252805f20549051908152f35b82346103535760203660031901126103535781358254811015610353576020925f527f8a35acfbc15ff81a39ae7d344fd709f28e8600b4aa8c65c6b64bfe7fe36bd19b01549051908152f35b9050346103535761202c36614486565b905f52600f602052825f20905f52602052815f209082519161204d836140c7565b549160ff831661205c816144e4565b815261207260ff602083019460081c1684614bd2565b519161207d836144e4565b5190600382101561092557506120a590835192612099816144e4565b83526020830190614502565bf35b82346103535780600319360112610353578135906024356005811015610353576120db60018060a01b035f54163314614681565b825f5260206002815260ff835f2054166120f4816144e4565b156121b357835f526002815260ff835f20541694612111836144e4565b61211a866144e4565b82861461217c5750835f526002815261213582845f20614a71565b825194612141816144e4565b855261214c826144e4565b84015242908301527ff6277c6ee46649823db9a5c531db3112b4340c67179cae1932ba3420dcc37cc760603393a3005b60649184519162461bcd60e51b83528201526013602482015272416c726561647920746869732073746174757360681b6044820152fd5b8460649184519162461bcd60e51b83528201526013602482015272155cd95c881b9bdd081c9959da5cdd195c9959606a1b6044820152fd5b8234610353576121fa36614486565b91905f526003602052805f2080548310156103535760209261221b916144bb565b60018060a01b0391549060031b1c169051908152f35b82346103535761224036614486565b91905f52600a602052805f20805483101561035357602092610345916144bb565b82346103535760208060031936011261035357608092355f5260078152815f20549160088252805f20549060098352805f205491600a8452815f20549382519586528501528301526060820152f35b8234610353576020366003190112610353576001600160a01b036122d261409b565b165f526001602052805f2060ff6001825492015416825191825215156020820152f35b82346103535761230436614486565b91905f526008602052805f20805483101561035357602092610345916144bb565b905034610353575f366003190112610353577ff0c57e16840df040f15088dc2f81fe391c3923bec73e23a9662efc9c229c6a0090815460ff81851c1615916001600160401b0382168015908161243a575b6001149081612430575b159081612427575b50612419575067ffffffffffffffff1981166001178355816123fa575b505f80546001600160a01b031916331790556123bd57005b805468ff00000000000000001916905551600181527fc7f505b2f371ae2175ee4913f4499e1f2633a7b5936321eed1cdaeb6115181d290602090a1005b68ffffffffffffffffff1916680100000000000000011782555f6123a5565b845163f92ee8a960e01b8152fd5b9050155f612388565b303b159150612380565b849150612376565b82346103535761245136614486565b905f52600f602052815f20905f52602052805f20546120a560ff82169183519261247a816144e4565b835260ff602084019160081c16614502565b8234610353575f36600319011261035357602090600c549051908152f35b823461035357602091826003193601126103535761252692610a7d91355f5260078152612540835f209360088352805f209460098452612533825f2094600a815261251261250c612506612500875f20966145e2565b9a6145e2565b976145e2565b936145e2565b958451998a9960808b5260808b01906142d9565b91898303908a01526142d9565b91868303908701526142d9565b9083820360608501526142d9565b82346103535760203660031901126103535760209061256b61409b565b5f5491906001600160a01b03808416917f38df5fa0f7fef0d515ca1f5388cb5790ac5885d5fca8d05d9f943e563c33a4b391906125a9338514614681565b169485936125b8851515614bde565b51428152a36001600160a01b031916175f55005b905034610353576125dc3661430c565b93909260018060a01b036125f4815f54163314614681565b6125ff8415156146fe565b841661260c811515614962565b612618610ae387614e3b565b5f52600160209181835261263a845f2054966126358815156146ba565b614d58565b156128db57845f5260078352835f205415806128cc575b15612889576126608686614eb3565b91825f5260068452845f209261267584614386565b9260ff83855115960154169287519161268d836140c7565b8b835287830190828252845f5260068952895f2093518051916001600160401b03831161287657506126bf855461434e565b601f8111612830575b508990601f83116001146127c95761270f95949392915f91836127be575b50505f19600383901b1c191690831b1783555b51151591019060ff801983541691151516179055565b5f52600e84525f85812055155f1461279157509185917ff9d17eb1340ab78960b594ff8bed1349985b800ee21199c6d5ea4a67454593ad936127535f988888615569565b61276b575b61146b8251938385948552840190614428565b858752600b815261277e85838920614ad0565b612789600c54614b0c565b600c55612758565b95949392505084518186012090845190850120036127ab57005b6127b9610449948383615034565b615569565b015190505f806126e6565b90601f19831691865f528b5f20925f5b8d82821061281c5750509186959492918361270f9998959310612804575b505050811b0183556126f9565b01515f1960f88460031b161c191690555f80806127f7565b8385015186559488019493840193016127d9565b855f528a5f20601f840160051c8101918c851061286c575b601f0160051c019085905b8281106128615750506126c8565b5f8155018590612853565b9091508190612848565b604190634e487b7160e01b5f525260245ffd5b835162461bcd60e51b8152908101839052601a60248201527f5265636f726420616c726561647920696e697469616c697a65640000000000006044820152606490fd5b5060088352835f205415612651565b835162461bcd60e51b8152908101839052601860248201527f4d75737420626520616e20616374697665206d656d62657200000000000000006044820152606490fd5b82346103535780600319360112610353576001600160401b039082358281116103535736602382011215610353578084013592831161035357600560243685831b8401820111610353575f546001600160a01b039660243595916129859089163314614681565b8615612adf57506129978515156149a7565b845f526002926020926002845260ff835f2054166129b4816144e4565b15955f5b8981106129c157005b8281851b83010135908b8216918281036103535782612a478c926129e86001961515614962565b825f52612a3886808d526129ff8c5f2054156149ea565b8b5190612a0b826140c7565b8682528d8181840191818352885f52528d5f209251835551151591019060ff801983541691151516179055565b835f5260038b52895f20614a36565b821580612ad8575b15612aab57815f52898952875f208a60ff19825416179055612a7082614a89565b612a7a8754614b0c565b87557f39d132591ee0696de49ab564e4a90e430c006561917db731a2a614dd2d245591898951428152a35b016129b8565b7f1cc138f50384be7770a8e4a34eecaa0d0c718bfaa1641af49db32532e4a5b910898951428152a3612aa5565b508a612a4f565b6020606492519162461bcd60e51b83528201526013602482015272139bc81dd85b1b195d1cc81c1c9bdd9a591959606a1b6044820152fd5b823461035357602036600319011261035357610a7d91355f52600b602052611c6e815f206145e2565b823461035357602090611905612b5536614486565b90614f45565b823461035357612b6a36614486565b91905f526007602052805f20805483101561035357602092610345916144bb565b823461035357612b9a36614486565b905f52600f602052815f20905f52602052805f20906002815192612bbd846140c7565b549260ff8416612bcc816144e4565b8152612be260ff602083019560081c1685614bd2565b51612bec816144e4565b612bf5816144e4565b149182612c09575b60208383519015158152f35b9091505191600383101561092557506002602092149083612bfd565b8234610353575f366003190112610353577f00000000000000000000000000000000000000000000000000000000000000006001600160a01b03163003612c8f57602090517f360894a13ba1a3210667c828492db98dca3e2076cc3735a920a3ca505d382bbc8152f35b5163703e46dd60e11b8152fd5b823461035357612cab3661420c565b90612cb86103a133614d58565b612cc58351835114614552565b335f52600193602091858352815f20549060018060a01b03165f52815f205490612cf0821515614596565b865f96838314915b612cfe57005b8051881015610449578888612d14829a84614bbe565b51612d1f828b614bbe565b51612d2981614e3b565b1561302157612d388783614eb3565b5f526006808b5260ff80868c5f200154161561301857612d588a85614eb3565b5f52818c52858b5f200154161561301057612d738984614eb3565b5f528a52612d82895f20614386565b9088888c8451818601208d85518387012090818314612e9457612da3614830565b8481519101208314612e9457885f52600784525f205415918215612dcf612dc8614830565b878c614ee7565b90612de2612ddb614851565b888d614ee7565b90612df68c89612df061487a565b91614ee7565b612dfe614830565b8051908901208603612eb6575015612ea2575015612e94575b612e1f614851565b848151910120149283612e7a575b505081612e72575b5080612e5a575b612e5057612e4994614fcf565b0197612cf8565b5050505050612e49565b505050825f5260088b528888868c5f20541115612e3c565b90505f612e35565b90919250612e8661489c565b805191012014905f8f612e2d565b505050505050505050612e49565b9050612e1757505050505050505050612e49565b919290612ec1614851565b8051908901208603612eec57509050159081612ee3575b50612e94575b612e17565b9050155f612ed8565b612ef461487a565b8051908901208603612f7f5715612f4b57159182612f33575b5081612f1d5750612e9457612e17565b905080612f2c575b155f612ed8565b508c612f25565b90915080612f44575b15905f612f0d565b508d612f3c565b5090159081612f69575b5015612ede57505050505050505050612e49565b905080612f78575b155f612f55565b508c612f71565b612f8761489c565b8881519101208614612f9d575b50505050612e17565b15612ffc57159182612fe4575b5081612fce575b50612e94575b612fc1868a614f45565b612e94575f808080612f94565b905080612fdd575b155f612fb1565b508c612fd6565b90915080612ff5575b15905f612faa565b508d612fed565b5050612fb757505050505050505050612e49565b505050612e49565b50505050612e49565b5050612e49565b9050816003193601126103535761303d61409b565b916024356001600160401b03811161035357366023820112156103535761306d90369060248186013591016141a9565b906001600160a01b037f000000000000000000000000000000000000000000000000000000000000000081163081149081156131f7575b506131e7576130b7815f54163314614681565b8416918151946352d1902d60e01b86526020868681875afa5f96816131b3575b506130f357505051634c9c8ce360e01b81529182015260249150fd5b838593877f360894a13ba1a3210667c828492db98dca3e2076cc3735a920a3ca505d382bbc9081810361319d5750833b156131865780546001600160a01b0319168317905551907fbc7cd75a20ee27fd9adebab32041f755214dbc6bffa90cc0225b39da2e5c2d3b5f80a282511561317057506104499250615614565b9150503461317a57005b63b398979f60e01b8152fd5b8151634c9c8ce360e01b8152808701849052602490fd5b86602491845191632a87526960e21b8352820152fd5b9096506020813d6020116131df575b816131cf60209383614111565b810103126103535751955f6130d7565b3d91506131c2565b815163703e46dd60e11b81528490fd5b9050817f360894a13ba1a3210667c828492db98dca3e2076cc3735a920a3ca505d382bbc541614155f6130a4565b905034610353576132353661449c565b91906132436103a133614d58565b335f526001602052835f205491815f52600f602052845f20835f52602052845f208054613278600260ff8316611ef2816144e4565b60038610156133215760081c60ff16916003831015610925578260ff871610156132d257507fb36ec3c738ef8ecd9180addc815304762374b76e91c2a321831d9906ea119ade611f59859361044998611f4c898896614b7a565b608490602088519162461bcd60e51b8352820152602360248201527f43616e206f6e6c7920646f776e677261646520746f2061206c6f776572206c656044820152621d995b60ea1b6064820152fd5b602183634e487b7160e01b5f525260245ffd5b823461035357806003193601126103535761334d61409b565b6024359160018060a01b03613366815f54163314614681565b821691613374831515614962565b61337f8415156149a7565b825f526133e460209160018352613399845f2054156149ea565b6133d584516133a7816140c7565b8781526001858201818152885f52818752875f209251835551151591019060ff801983541691151516179055565b855f5260038352835f20614a36565b835f526002815260ff825f2054166133fb816144e4565b613454577f39d132591ee0696de49ab564e4a90e430c006561917db731a2a614dd2d24559191845f5260028252805f20600260ff1982541617905561343f85614a89565b61344a600554614b0c565b60055551428152a3005b7f1cc138f50384be7770a8e4a34eecaa0d0c718bfaa1641af49db32532e4a5b9109151428152a3005b82346103535760203660031901126103535760209061190561263561409b565b8234610353576020906134b2611fb936614486565b5f5260068252610a7d815f209180516134ca816140c7565b60ff60016134d786614386565b95868452015416151594859101525192839283614466565b8234610353578060031936011261035357613516610a7d9261350f6140b1565b90356148ea565b9290915192839283614466565b823461035357602036600319011261035357610a7d91355f526008602052611c6e815f206145e2565b8234610353576020906119056135613661430c565b916148be565b90503461035357602036600319011261035357355f526006602052805f20610a7d60ff600161359584614386565b93015416925192839283614466565b823461035357602080600319360112610353578235916135c58315156146fe565b335f5260018252805f2054936135e36135dc614830565b8686614ee7565b156136d457835f52600783526001825f20541160088452825f2054151581156136cc575b50156136715750907f68f37cc4a32f0b24153ce9237b344b20a9717039f90d7c24f35e5c217f03e1689161363b8585614eb3565b61364d613646614830565b8787615034565b5f52600682526001815f200160ff198154169055600e82525f8181205551428152a3005b82608492519162461bcd60e51b8352820152603160248201527f43616e6e6f74206c65617665206173206c617374206f776e65722077697468206044820152706e6f2061646d696e6973747261746f727360781b6064820152fd5b905086613607565b82608492519162461bcd60e51b8352820152602360248201527f596f7520617265206e6f7420616e206f776e6572206f662074686973207265636044820152621bdc9960ea1b6064820152fd5b823461035357602036600319011261035357610a7d91355f526009602052611c6e815f206145e2565b9050346103535761375a3661430c565b9192906137696103a133614d58565b6137748415156146fe565b6001600160a01b031661378881151561474a565b613794610ae384614e3b565b335f5260209360018552855f2054915f52855f2054926137b5841515614596565b845186860120956137c68584614eb3565b805f52600682526137df60ff60018b5f200154166147d8565b5f52600681526137f0885f20614386565b9687518289012090808214613e1f57613807614830565b8381519101208214613daa57845f5260078352895f20541591821561383461382d614830565b8989614ee7565b90613847613840614851565b8a8a614ee7565b9061385a61385361487a565b8b8b614ee7565b8b8b14613865614830565b8051908a012087036139e257505015613985575015613944575b613887614851565b84815191012014908161392d575b506138a8575b5050506104499550614fcf565b6138b3575b8061389b565b825f52600881526001885f2054116138ad57875162461bcd60e51b815291820152603960248201527f43616e6e6f742064656d6f746520746865206c6173742061646d696e6973747260448201527f61746f72207768656e206e6f206f776e65722065786973747300000000000000606482015260849150fd5b905061393761489c565b838151910120145f613895565b60648585808e519262461bcd60e51b845283015260248201527f4f6e6c79206f776e6572732063616e2070726f6d6f746520746f206f776e65726044820152fd5b905061387f578a5162461bcd60e51b8152808601859052602b60248201527f4f6e6c792061646d696e6973747261746f72732063616e2070726f6d6f74652060448201526a3334b939ba1037bbb732b960a91b6064820152608490fd5b90916139ec614851565b8051908a01208703613a7f575050508115613a77575b5015613a0e575b61387f565b8a5162461bcd60e51b8152808601859052603b60248201527f4f6e6c79206f776e65727320616e642061646d696e6973747261746f7273206360448201527f616e2070726f6d6f746520746f2061646d696e6973747261746f7200000000006064820152608490fd5b90505f613a02565b613a8b9391929361487a565b8051908a01208703613bec5715613b70578315613b59575b508215613b40575b505061387f578a5162461bcd60e51b8152808601859052605760248201527f4f6e6c79206f776e6572732063616e206368616e6765206f746865727320746f60448201527f207368617265722e2041646d696e7320616e6420736861726572732063616e2060648201527f6f6e6c792064656d6f7465207468656d73656c7665732e000000000000000000608482015260a490fd5b90915081613b51575b505f80613aab565b90505f613b49565b90925080613b69575b915f613aa3565b5081613b62565b92508215613bd3575b5050613a09578a5162461bcd60e51b8152808601859052602860248201527f4f6e6c792061646d696e6973747261746f72732063616e2064656d6f74652074604482015267379039b430b932b960c11b6064820152608490fd5b90915081613be4575b505f80613b79565b90505f613bdc565b613bf461489c565b8981519101208714613c0b575b505050505061387f565b15613d4e578315613d37575b508215613d1e575b505015613c97575b613c318887614f45565b613c3f575f80808080613c01565b8a5162461bcd60e51b8152808601859052602c60248201527f43616e6e6f742064656d6f746520616e20616374697665207375626a6563742060448201526b3132b637bb9039b430b932b960a11b6064820152608490fd5b8a5162461bcd60e51b8152808601859052605560248201527f4f6e6c79206f776e6572732063616e2064656d6f7465206f74686572732e204160448201527f646d696e6973747261746f727320616e6420736861726572732063616e206f6e606482015274363c903232b6b7ba32903a3432b6b9b2b63b32b99760591b608482015260a490fd5b90915081613d2f575b505f80613c1f565b90505f613d27565b90925080613d47575b915f613c17565b5081613d40565b92505050613c27578a5162461bcd60e51b8152808601859052602860248201527f4f6e6c792061646d696e6973747261746f72732063616e2064656d6f7465207460448201526737903b34b2bbb2b960c11b6064820152608490fd5b895162461bcd60e51b8152808501849052604360248201527f4f776e6572732063616e6e6f742062652064656d6f7465642e204f776e65722060448201527f6d75737420766f6c756e746172696c792072656d6f7665207468656d73656c7660648201526232b99760e91b608482015260a490fd5b895162461bcd60e51b8152808501849052601c60248201527f54617267657420616c726561647920686173207468697320726f6c65000000006044820152606490fd5b823461035357602036600319011261035357602090611905613e8261409b565b614de9565b823461035357602036600319011261035357613ea161409b565b5f546001600160a01b039190613eba9083163314614681565b16805f526001602052613ed1825f205415156146ba565b805f52600160205260ff6001835f2001541615613f0157600192505f52816020525f200160ff1981541690555f80f35b815162461bcd60e51b8152602081850152601760248201527f57616c6c657420616c726561647920696e6163746976650000000000000000006044820152606490fd5b8234610353578060031936011261035357611905602092613f636140b1565b9035614630565b823461035357602036600319011261035357610a7d91355f52600a602052611c6e815f206145e2565b823461035357613fa23661420c565b929190613fb16103a133614d58565b613fbe8251855114614552565b335f5260019384936001602052805f20549260018060a01b03165f525f2054613fe8811515614596565b5f945b613ff157005b835185101561044957858561401061400a839886614bbe565b51614e3b565b1561406257614023856106768389614bbe565b1561406257614036836106768389614bbe565b6140625761405b856140488389614bbe565b51856140548589614bbe565b51916151be565b0194613feb565b61405b565b839034610353576020366003190112610353576020916001600160a01b0361408d61409b565b165f52600183525f20548152f35b600435906001600160a01b038216820361035357565b602435906001600160a01b038216820361035357565b604081019081106001600160401b038211176140e257604052565b634e487b7160e01b5f52604160045260245ffd5b602081019081106001600160401b038211176140e257604052565b90601f801991011681019081106001600160401b038211176140e257604052565b6001600160401b0381116140e25760051b60200190565b9080601f8301121561035357602090823561416381614132565b936141716040519586614111565b81855260208086019260051b82010192831161035357602001905b82821061419a575050505090565b8135815290830190830161418c565b9291926001600160401b0382116140e257604051916141d2601f8201601f191660200184614111565b829481845281830111610353578281602093845f960137010152565b9080601f8301121561035357816020614209933591016141a9565b90565b6060600319820112610353576001600160401b0391600435838111610353578261423891600401614149565b9260249283356001600160a01b0381168103610353579360443592808411610353578260238501121561035357836004013561427381614132565b946142816040519687614111565b8186526020946024602088019360051b830101948186116103535760248301935b8685106142b457505050505050505090565b84358681116103535788916142ce858585948901016141ee565b8152019401936142a2565b9081518082526020808093019301915f5b8281106142f8575050505090565b8351855293810193928101926001016142ea565b606060031982011261035357600435916024356001600160a01b03811681036103535791604435906001600160401b03821161035357614209916004016141ee565b90600182811c9216801561437c575b602083101461436857565b634e487b7160e01b5f52602260045260245ffd5b91607f169161435d565b9060405191825f82546143988161434e565b908184526020946001916001811690815f1461440657506001146143c8575b5050506143c692500383614111565b565b5f90815285812095935091905b8183106143ee5750506143c693508201015f80806143b7565b855488840185015294850194879450918301916143d5565b925050506143c694925060ff191682840152151560051b8201015f80806143b7565b91908251928382525f5b848110614452575050825f602080949584010152601f8019910116010190565b602081830181015184830182015201614432565b9061447e602091949394604084526040840190614428565b931515910152565b6040906003190112610353576004359060243590565b6040906003190112610353576004359060243560038110156103535790565b80548210156144d0575f5260205f2001905f90565b634e487b7160e01b5f52603260045260245ffd5b600511156144ee57565b634e487b7160e01b5f52602160045260245ffd5b9060038210156144ee5752565b1561451657565b60405162461bcd60e51b81526020600482015260146024820152732737ba1030b71030b1ba34bb329036b2b6b132b960611b6044820152606490fd5b1561455957565b60405162461bcd60e51b8152602060048201526015602482015274082e4e4c2f240d8cadccee8d040dad2e6dac2e8c6d605b1b6044820152606490fd5b1561459d57565b60405162461bcd60e51b815260206004820152601c60248201527f5461726765742077616c6c6574206e6f742072656769737465726564000000006044820152606490fd5b90604051918281549182825260209260208301915f5260205f20935f905b828210614616575050506143c692500383614111565b855484526001958601958895509381019390910190614600565b6001600160a01b039091165f9081526001602052604090205490811561467b5761466261465b614830565b8383614ee7565b91821561466e57505090565b6142099250612df0614851565b50505f90565b1561468857565b60405162461bcd60e51b815260206004820152600a60248201526927b7363c9030b236b4b760b11b6044820152606490fd5b156146c157565b60405162461bcd60e51b815260206004820152601560248201527415d85b1b195d081b9bdd081c9959da5cdd195c9959605a1b6044820152606490fd5b1561470557565b60405162461bcd60e51b815260206004820152601e60248201527f5265636f726420494420686173682063616e6e6f7420626520656d70747900006044820152606490fd5b1561475157565b60405162461bcd60e51b815260206004820152601d60248201527f57616c6c657420616464726573732063616e6e6f74206265207a65726f0000006044820152606490fd5b1561479d57565b60405162461bcd60e51b8152602060048201526013602482015272496e76616c696420726f6c6520737472696e6760681b6044820152606490fd5b156147df57565b60405162461bcd60e51b815260206004820152602360248201527f54617267657420646f6573206e6f74206861766520616e2061637469766520726044820152626f6c6560e81b6064820152608490fd5b6040519061483d826140c7565b600582526437bbb732b960d91b6020830152565b6040519061485e826140c7565b600d82526c30b236b4b734b9ba3930ba37b960991b6020830152565b60405190614887826140c7565b600682526539b430b932b960d11b6020830152565b604051906148a9826140c7565b60068252653b34b2bbb2b960d11b6020830152565b919060018060a01b03165f52600160205260405f205480156148e35761420992614ee7565b5050505f90565b6001600160a01b039091165f9081526001602052604090205490811561494c576020929161491791614eb3565b5f526006825260405f2060405161492d816140c7565b60ff600161493a84614386565b93848452015416151593849101529190565b505060405161495a816140f6565b5f8152905f90565b1561496957565b60405162461bcd60e51b8152602060048201526016602482015275496e76616c69642077616c6c6574206164647265737360501b6044820152606490fd5b156149ae57565b60405162461bcd60e51b8152602060048201526014602482015273092dcecc2d8d2c840eae6cae440928840d0c2e6d60631b6044820152606490fd5b156149f157565b60405162461bcd60e51b815260206004820152601960248201527f57616c6c657420616c72656164792072656769737465726564000000000000006044820152606490fd5b8054600160401b8110156140e257614a53916001820181556144bb565b60018060a09493941b038084549260031b9316831b921b1916179055565b90614a7b816144e4565b60ff80198354169116179055565b600454600160401b8110156140e25760018101806004558110156144d05760045f527f8a35acfbc15ff81a39ae7d344fd709f28e8600b4aa8c65c6b64bfe7fe36bd19b0155565b805490600160401b8210156140e25781614af2916001614b08940181556144bb565b819391549060031b91821b915f19901b19161790565b9055565b5f198114614b1a5760010190565b634e487b7160e01b5f52601160045260245ffd5b15614b3557565b60405162461bcd60e51b815260206004820152601e60248201527f4e6f2061637469766520747275737465652072656c6174696f6e7368697000006044820152606490fd5b9060038110156144ee5761ff0082549160081b169061ff001916179055565b614bba604092959493614bb0836060810198614502565b6020830190614502565b0152565b80518210156144d05760209160051b010190565b60038210156144ee5752565b15614be557565b60405162461bcd60e51b815260206004820152600f60248201526e496e76616c6964206164647265737360881b6044820152606490fd5b6001600160a01b039091165f90815260016020526040902054801561467b57614c4491614eb3565b5f52600660205260ff600160405f2001541690565b8054905f815581614c68575050565b5f5260205f20908101905b818110614c7e575050565b5f8155600101614c73565b15614c9057565b60405162461bcd60e51b815260206004820152600f60248201526e496e76616c6964207472757374656560881b6044820152606490fd5b15614cce57565b60405162461bcd60e51b815260206004820152601760248201527f43616e6e6f74206170706f696e7420796f757273656c660000000000000000006044820152606490fd5b15614d1a57565b60405162461bcd60e51b8152602060048201526016602482015275151c9d5cdd1959481b9bdd081c9959da5cdd195c995960521b6044820152606490fd5b6001600160a01b03165f9081526001602052604090208054908115908115614dd9575b50614dd4575f52600260205260ff60405f205416614d98816144e4565b60028114908115614dbf575b8115614dae575090565b60049150614dbb816144e4565b1490565b9050614dca816144e4565b6003811490614da4565b505f90565b60ff91506001015416155f614d7b565b6001600160a01b03165f9081526001602052604090208054908115908115614e2b575b50614dd4575f526002602052600460ff60405f205416614dbb816144e4565b60ff91506001015416155f614e0c565b60208151910120614e4a614830565b602081519101208114908115614e9a575b8115614e81575b8115614e6c575090565b9050614e7661489c565b602081519101201490565b9050614e8b61487a565b60208151910120811490614e62565b9050614ea4614851565b60208151910120811490614e5b565b906040519060208201928352604082015260408152606081018181106001600160401b038211176140e25760405251902090565b60209291614ef491614eb3565b5f526006825260405f20604051614f0a816140c7565b60ff6001614f1784614386565b938484520154161515938491015282614f2f57505090565b9091506020815191012090602081519101201490565b600d546001600160a01b03169182156148e3576044602092604051948593849263193d8e7560e21b8452600484015260248301525afa908115614fc4575f91614f8c575090565b90506020813d602011614fbc575b81614fa760209383614111565b81010312610353575180151581036103535790565b3d9150614f9a565b6040513d5f823e3d90fd5b91927f3af67cf2057ba8ef414286fb626cd3efb02f74996e18efd455b39d8ec7ec460f919461502961501b92615007888289896151be565b604051938493606085526060850190614428565b908382036020850152614428565b4260408301520390a4565b8251602080940120615044614830565b805190850120810361506457506143c6926007915f525260405f206154d2565b61506c614851565b805190850120810361508c57506143c6926008915f525260405f206154d2565b61509461487a565b80519085012081036150b457506143c6926009915f525260405f206154d2565b6150bc61489c565b848151910120146150cc57505050565b6143c692600a915f525260405f206154d2565b929190835f526020906010825260409060405f20815f52835260405f20955f5b87548110156151aa57806151156001928a6144bb565b90549060031b1c6151268582614eb3565b5f52600680885260ff84885f20015416156151a357615146898684615425565b9061515082614e3b565b1561519b5761515f8784614eb3565b5f52885261516e875f20614386565b90868683518b85012083518c850120146151915761518b94614fcf565b016150ff565b505050505061518b565b50505061518b565b505061518b565b5050505050509050565b90614c4491614eb3565b9291926151cb8282614eb3565b93845f52602060068152604090815f20966151e588614386565b978851159160ff6001809301541691855190615200826140c7565b878252858201818152835f5260068752875f2092518051906001600160401b0382116140e257615230855461434e565b601f811161538d575b508890601f831160011461533f5761527e95949392915f91836127be5750505f19600383901b1c191690831b17835551151591019060ff801983541691151516179055565b5f52600e835287845f2055155f1461530a57859697506152c18486977ff9d17eb1340ab78960b594ff8bed1349985b800ee21199c6d5ea4a67454593ad97615569565b6152e4575b6152d98251938385948552840190614428565b9042908301520390a4565b855f52600b81526152f785835f20614ad0565b615302600c54614b0c565b600c556152c6565b50919450508451818601209084519085012003615328575b50505050565b6127b9615336948383615034565b5f808080615322565b90601f19831691865f528a5f20925f5b8c8282106153795750509186959492918361527e999895931061280457505050811b0183556126f9565b83850151865594880194938401930161534f565b855f52895f20601f840160051c8101918b85106153c9575b601f0160051c019085905b8281106153be575050615239565b5f81550185906153b0565b90915081906153a5565b6001600160a01b03165f9081526001602052604090208054908115908115615415575b50614dd4575f526002602052600360ff60405f205416614dbb816144e4565b60ff91506001015416155f6153f6565b60038310156144ee578215615470576001916154409161547b565b91146154495790565b80516020820120615458614830565b60208151910120146154675790565b50614209614851565b50505061420961489c565b9061548591614eb3565b5f52600660205260405f2060ff6001604051926154a1846140c7565b6154aa81614386565b845201541615801560208301526154bf575190565b506040516154cc816140f6565b5f815290565b5f5b815490818110156153225783916154eb82856144bb565b959054600396871b1c1461550557509092506001016154d4565b5f199250828101908111614b1a57614af261552361553092866144bb565b905490871b1c92856144bb565b9055815480156155555781019261554784846144bb565b81939154921b1b1916905555565b634e487b7160e01b5f52603160045260245ffd5b8251602080940120615579614830565b805190850120810361559957506143c6926007915f525260405f20614ad0565b6155a1614851565b80519085012081036155c157506143c6926008915f525260405f20614ad0565b6155c961487a565b80519085012081036155e957506143c6926009915f525260405f20614ad0565b6155f161489c565b8481519101201461560157505050565b6143c692600a915f525260405f20614ad0565b905f8091602081519101845af48080615692575b156156485750506040513d81523d5f602083013e60203d82010160405290565b1561566f57604051639996b31560e01b81526001600160a01b039091166004820152602490fd5b3d15615680576040513d5f823e3d90fd5b60405163d6bda27560e01b8152600490fd5b503d1515806156285750813b151561562856fed05ed2d3feff840c2ececa71791388fd3d19dbbbbcfa97031f534a7dc09fbf1fa26469706673582212203b9689df201f4065869a7522c900beab38d8e8b5ec4bacc23d2ba5ddf2ea3d4b64736f6c63430008180033","opcodes":"PUSH1 0xA0 DUP1 PUSH1 0x40 MSTORE CALLVALUE PUSH3 0xD1 JUMPI ADDRESS PUSH1 0x80 MSTORE PUSH32 0xF0C57E16840DF040F15088DC2F81FE391C3923BEC73E23A9662EFC9C229C6A00 SWAP1 DUP2 SLOAD SWAP1 PUSH1 0xFF DUP3 PUSH1 0x40 SHR AND PUSH3 0xC2 JUMPI POP PUSH1 0x1 PUSH1 0x1 PUSH1 0x40 SHL SUB PUSH1 0x2 PUSH1 0x1 PUSH1 0x40 SHL SUB NOT DUP3 DUP3 AND ADD PUSH3 0x7C JUMPI JUMPDEST PUSH1 0x40 MLOAD PUSH2 0x56FB SWAP1 DUP2 PUSH3 0xD6 DUP3 CODECOPY PUSH1 0x80 MLOAD DUP2 DUP2 DUP2 PUSH2 0x2C38 ADD MSTORE PUSH2 0x3078 ADD MSTORE RETURN JUMPDEST PUSH1 0x1 PUSH1 0x1 PUSH1 0x40 SHL SUB NOT SWAP1 SWAP2 AND DUP2 OR SWAP1 SWAP2 SSTORE PUSH1 0x40 MLOAD SWAP1 DUP2 MSTORE PUSH32 0xC7F505B2F371AE2175EE4913F4499E1F2633A7B5936321EED1CDAEB6115181D2 SWAP1 PUSH1 0x20 SWAP1 LOG1 PUSH0 DUP1 DUP1 PUSH3 0x5C JUMP JUMPDEST PUSH4 0xF92EE8A9 PUSH1 0xE0 SHL DUP2 MSTORE PUSH1 0x4 SWAP1 REVERT JUMPDEST PUSH0 DUP1 REVERT INVALID PUSH1 0x80 PUSH1 0x40 SWAP1 DUP1 DUP3 MSTORE PUSH1 0x4 DUP1 CALLDATASIZE LT ISZERO PUSH2 0x15 JUMPI PUSH0 DUP1 REVERT JUMPDEST PUSH0 CALLDATALOAD PUSH1 0xE0 SHR SWAP2 DUP3 PUSH3 0xB0C809 EQ PUSH2 0x4067 JUMPI POP DUP2 PUSH4 0x2BA8109 EQ PUSH2 0x3F93 JUMPI DUP2 PUSH4 0x33E822F EQ PUSH2 0x3F6A JUMPI DUP2 PUSH4 0x519E2A0 EQ PUSH2 0x3F44 JUMPI DUP2 PUSH4 0xB3FFD1D EQ PUSH2 0x3E87 JUMPI DUP2 PUSH4 0x259ED80E EQ PUSH2 0x3E62 JUMPI DUP2 PUSH4 0x29C9087A EQ PUSH2 0x374A JUMPI DUP2 PUSH4 0x2AB5D8F3 EQ PUSH2 0x3721 JUMPI DUP2 PUSH4 0x2AE8511D EQ PUSH2 0x35A4 JUMPI DUP2 PUSH4 0x33105592 EQ PUSH2 0x3567 JUMPI DUP2 PUSH4 0x3BEFA410 EQ PUSH2 0x354C JUMPI DUP2 PUSH4 0x41A51BAA EQ PUSH2 0x3523 JUMPI DUP2 PUSH4 0x422A5BB8 EQ PUSH2 0x34EF JUMPI DUP2 PUSH4 0x43E19704 EQ PUSH2 0x349D JUMPI DUP2 PUSH4 0x45ECD02F EQ PUSH2 0x347D JUMPI DUP2 PUSH4 0x49DF7208 EQ PUSH2 0x3334 JUMPI DUP2 PUSH4 0x4B6FEB7C EQ PUSH2 0x248C JUMPI DUP2 PUSH4 0x4D3C4A7C EQ PUSH2 0x3225 JUMPI DUP2 PUSH4 0x4F1EF286 EQ PUSH2 0x3028 JUMPI DUP2 PUSH4 0x51EED472 EQ PUSH2 0x2C9C JUMPI DUP2 PUSH4 0x52D1902D EQ PUSH2 0x2C25 JUMPI DUP2 PUSH4 0x557EE54F EQ PUSH2 0x2B8B JUMPI DUP2 PUSH4 0x55816079 EQ PUSH2 0x2B5B JUMPI DUP2 PUSH4 0x562C788E EQ PUSH2 0x79F JUMPI DUP2 PUSH4 0x64F639D4 EQ PUSH2 0x2B40 JUMPI DUP2 PUSH4 0x6544B05B EQ PUSH2 0x2B17 JUMPI DUP2 PUSH4 0x69AC2022 EQ PUSH2 0x291E JUMPI DUP2 PUSH4 0x6B4BED97 EQ PUSH2 0x5A6 JUMPI DUP2 PUSH4 0x726D5447 EQ PUSH2 0x25CC JUMPI DUP2 PUSH4 0x75829DEF EQ PUSH2 0x254E JUMPI DUP2 PUSH4 0x78AD8F5B EQ PUSH2 0x24AA JUMPI DUP2 PUSH4 0x790E118C EQ PUSH2 0x248C JUMPI DUP2 PUSH4 0x7B657D07 EQ PUSH2 0x2442 JUMPI DUP2 PUSH4 0x8129FC1C EQ PUSH2 0x2325 JUMPI DUP2 PUSH4 0x8776CD35 EQ PUSH2 0x22F5 JUMPI DUP2 PUSH4 0x89B08F11 EQ PUSH2 0x22B0 JUMPI DUP2 PUSH4 0x8DB7EDB4 EQ PUSH2 0x2261 JUMPI DUP2 PUSH4 0x93CCFBA8 EQ PUSH2 0x2231 JUMPI DUP2 PUSH4 0x9443CD80 EQ PUSH2 0x21EB JUMPI DUP2 PUSH4 0x96207E02 EQ PUSH2 0x20A7 JUMPI DUP2 PUSH4 0x9915B91F EQ PUSH2 0x201C JUMPI DUP2 PUSH4 0x9BE572F6 EQ PUSH2 0x1CAA JUMPI DUP2 PUSH4 0x9F4216E8 EQ PUSH2 0x1FD0 JUMPI DUP2 PUSH4 0xAADDC345 EQ PUSH2 0x1FA4 JUMPI DUP2 PUSH4 0xAB48384A EQ PUSH2 0x1E9F JUMPI DUP2 PUSH4 0xAD3CB1CC EQ PUSH2 0x1E5B JUMPI DUP2 PUSH4 0xB8CAB84B EQ PUSH2 0x1D7F JUMPI DUP2 PUSH4 0xBB0F86D5 EQ PUSH2 0x1CC8 JUMPI DUP2 PUSH4 0xBFF1F9E1 EQ PUSH2 0x1CAA JUMPI DUP2 PUSH4 0xC36DC9EF EQ PUSH2 0x1C81 JUMPI DUP2 PUSH4 0xC497D840 EQ PUSH2 0x1C3F JUMPI DUP2 PUSH4 0xC7155823 EQ PUSH2 0x1BC3 JUMPI DUP2 PUSH4 0xC88C35FE EQ PUSH2 0x1B9D JUMPI DUP2 PUSH4 0xC979C9BF EQ PUSH2 0x190E JUMPI DUP2 PUSH4 0xCB261A03 EQ PUSH2 0x18E0 JUMPI DUP2 PUSH4 0xCDA06C6E EQ PUSH2 0x18B9 JUMPI DUP2 PUSH4 0xD12A7768 EQ PUSH2 0x180A JUMPI DUP2 PUSH4 0xD547741F EQ PUSH2 0x1347 JUMPI DUP2 PUSH4 0xDC9F9664 EQ PUSH2 0x107D JUMPI DUP2 PUSH4 0xDDE492EA EQ PUSH2 0xA98 JUMPI DUP2 PUSH4 0xE2842D79 EQ PUSH2 0xA0C JUMPI DUP2 PUSH4 0xE6EFCD5D EQ PUSH2 0x7C7 JUMPI DUP2 PUSH4 0xE94ED257 EQ PUSH2 0x79F JUMPI DUP2 PUSH4 0xF12B9AD3 EQ PUSH2 0x5D9 JUMPI DUP2 PUSH4 0xF29E007B EQ PUSH2 0x5A6 JUMPI DUP2 PUSH4 0xF32B10F0 EQ PUSH2 0x576 JUMPI DUP2 PUSH4 0xF76794F1 EQ PUSH2 0x37E JUMPI POP DUP1 PUSH4 0xF851A440 EQ PUSH2 0x357 JUMPI PUSH4 0xFA7A6BCC EQ PUSH2 0x316 JUMPI PUSH0 DUP1 REVERT JUMPDEST CALLVALUE PUSH2 0x353 JUMPI PUSH2 0x324 CALLDATASIZE PUSH2 0x4486 JUMP JUMPDEST SWAP2 SWAP1 PUSH0 MSTORE PUSH1 0xB PUSH1 0x20 MSTORE DUP1 PUSH0 KECCAK256 DUP1 SLOAD DUP4 LT ISZERO PUSH2 0x353 JUMPI PUSH1 0x20 SWAP3 PUSH2 0x345 SWAP2 PUSH2 0x44BB JUMP JUMPDEST SWAP2 SWAP1 SLOAD SWAP1 MLOAD SWAP2 PUSH1 0x3 SHL SHR DUP2 MSTORE RETURN JUMPDEST PUSH0 DUP1 REVERT JUMPDEST POP CALLVALUE PUSH2 0x353 JUMPI PUSH0 CALLDATASIZE PUSH1 0x3 NOT ADD SLT PUSH2 0x353 JUMPI PUSH0 SLOAD SWAP1 MLOAD PUSH1 0x1 PUSH1 0x1 PUSH1 0xA0 SHL SUB SWAP1 SWAP2 AND DUP2 MSTORE PUSH1 0x20 SWAP1 RETURN JUMPDEST DUP3 CALLVALUE PUSH2 0x353 JUMPI PUSH1 0x20 SWAP2 DUP3 PUSH1 0x3 NOT CALLDATASIZE ADD SLT PUSH2 0x353 JUMPI DUP1 CALLDATALOAD SWAP3 PUSH2 0x3A6 PUSH2 0x3A1 CALLER PUSH2 0x4D58 JUMP JUMPDEST PUSH2 0x450F JUMP JUMPDEST CALLER PUSH0 MSTORE PUSH1 0x1 SWAP4 DUP5 DUP3 MSTORE DUP4 PUSH0 KECCAK256 SLOAD SWAP3 DUP2 PUSH0 MSTORE PUSH1 0xF DUP4 MSTORE DUP5 PUSH0 KECCAK256 DUP5 PUSH0 MSTORE DUP4 MSTORE DUP5 PUSH0 KECCAK256 SWAP1 DUP2 SLOAD SWAP2 PUSH1 0xFF SWAP2 DUP9 PUSH1 0xFF DUP6 AND PUSH2 0x3DB DUP2 PUSH2 0x44E4 JUMP JUMPDEST SUB PUSH2 0x533 JUMPI PUSH1 0xFF NOT DUP1 SWAP5 AND OR SWAP1 SSTORE DUP5 DUP4 PUSH32 0xC1F9BDA0602B12C2F11218F87531038A6957666101C4FAAD39C882DCC5093DC6 DUP7 DUP10 MLOAD TIMESTAMP DUP2 MSTORE LOG3 DUP3 PUSH0 MSTORE PUSH1 0x10 DUP5 MSTORE DUP6 PUSH0 KECCAK256 DUP6 PUSH0 MSTORE DUP5 MSTORE DUP6 PUSH0 KECCAK256 DUP8 PUSH0 SWAP1 JUMPDEST PUSH2 0x44B JUMPI JUMPDEST PUSH2 0x449 DUP9 DUP9 DUP9 DUP9 PUSH0 MSTORE PUSH1 0x10 DUP2 MSTORE DUP3 PUSH0 KECCAK256 SWAP2 PUSH0 MSTORE MSTORE PUSH0 KECCAK256 PUSH2 0x4C59 JUMP JUMPDEST STOP JUMPDEST DUP2 SLOAD DUP2 LT ISZERO PUSH2 0x52E JUMPI SWAP1 DUP9 DUP3 DUP9 DUP11 PUSH2 0x466 DUP5 SWAP9 SWAP8 SWAP7 DUP7 PUSH2 0x44BB JUMP JUMPDEST SWAP1 SLOAD SWAP1 PUSH1 0x3 SHL SHR DUP10 PUSH0 MSTORE PUSH1 0x11 DUP12 MSTORE DUP2 PUSH0 KECCAK256 DUP4 PUSH0 MSTORE DUP12 MSTORE DUP2 PUSH0 KECCAK256 DUP2 PUSH0 MSTORE DUP12 MSTORE DUP2 PUSH0 KECCAK256 DUP9 DUP2 SLOAD AND SWAP1 SSTORE PUSH2 0x497 DUP4 DUP3 PUSH2 0x4EB3 JUMP JUMPDEST PUSH0 MSTORE DUP11 PUSH1 0x6 DUP1 DUP3 MSTORE DUP9 DUP8 DUP6 PUSH0 KECCAK256 ADD SLOAD AND ISZERO PUSH2 0x524 JUMPI DUP5 SWAP4 PUSH1 0xE PUSH0 DUP1 MLOAD PUSH1 0x20 PUSH2 0x56A6 DUP4 CODECOPY DUP2 MLOAD SWAP2 MSTORE SWAP4 PUSH2 0x4C9 DUP8 DUP8 PUSH2 0x4EB3 JUMP JUMPDEST SWAP4 DUP5 PUSH0 MSTORE DUP1 DUP3 MSTORE PUSH2 0x4DB DUP5 PUSH0 KECCAK256 PUSH2 0x4386 JUMP JUMPDEST SWAP5 PUSH2 0x4E7 DUP7 DUP11 DUP11 PUSH2 0x5034 JUMP JUMPDEST PUSH0 MSTORE DUP2 MSTORE DUP10 DUP4 PUSH0 KECCAK256 ADD DUP14 DUP2 SLOAD AND SWAP1 SSTORE MSTORE PUSH0 DUP2 DUP2 KECCAK256 SSTORE DUP14 PUSH2 0x510 DUP3 MLOAD SWAP4 DUP4 DUP6 SWAP5 DUP6 MSTORE DUP5 ADD SWAP1 PUSH2 0x4428 JUMP JUMPDEST SWAP1 TIMESTAMP SWAP1 DUP4 ADD MSTORE SUB SWAP1 LOG4 JUMPDEST ADD SWAP1 SWAP2 SWAP3 SWAP4 PUSH2 0x429 JUMP JUMPDEST POP POP POP POP POP PUSH2 0x51A JUMP JUMPDEST PUSH2 0x42E JUMP JUMPDEST DUP8 MLOAD PUSH3 0x461BCD PUSH1 0xE5 SHL DUP2 MSTORE SWAP1 DUP2 ADD DUP7 SWAP1 MSTORE PUSH1 0x1E PUSH1 0x24 DUP3 ADD MSTORE PUSH32 0x4E6F2070656E64696E672070726F706F73616C20746F206465636C696E650000 PUSH1 0x44 DUP3 ADD MSTORE PUSH1 0x64 SWAP1 REVERT JUMPDEST DUP3 CALLVALUE PUSH2 0x353 JUMPI PUSH2 0x585 CALLDATASIZE PUSH2 0x4486 JUMP JUMPDEST SWAP2 SWAP1 PUSH0 MSTORE PUSH1 0x9 PUSH1 0x20 MSTORE DUP1 PUSH0 KECCAK256 DUP1 SLOAD DUP4 LT ISZERO PUSH2 0x353 JUMPI PUSH1 0x20 SWAP3 PUSH2 0x345 SWAP2 PUSH2 0x44BB JUMP JUMPDEST DUP3 CALLVALUE PUSH2 0x353 JUMPI PUSH1 0x20 CALLDATASIZE PUSH1 0x3 NOT ADD SLT PUSH2 0x353 JUMPI PUSH1 0x20 SWAP2 CALLDATALOAD PUSH0 MSTORE PUSH1 0x2 DUP3 MSTORE PUSH1 0xFF DUP2 PUSH0 KECCAK256 SLOAD AND SWAP1 MLOAD SWAP1 PUSH2 0x5D5 DUP2 PUSH2 0x44E4 JUMP JUMPDEST DUP2 MSTORE RETURN JUMPDEST DUP3 CALLVALUE PUSH2 0x353 JUMPI DUP1 PUSH1 0x3 NOT CALLDATASIZE ADD SLT PUSH2 0x353 JUMPI DUP2 CALLDATALOAD PUSH1 0x1 PUSH1 0x1 PUSH1 0x40 SHL SUB DUP2 GT PUSH2 0x353 JUMPI PUSH2 0x607 SWAP1 CALLDATASIZE SWAP1 DUP5 ADD PUSH2 0x4149 JUMP JUMPDEST SWAP2 PUSH2 0x610 PUSH2 0x40B1 JUMP JUMPDEST PUSH2 0x61C PUSH2 0x3A1 CALLER PUSH2 0x4D58 JUMP JUMPDEST PUSH1 0x1 PUSH1 0x1 PUSH1 0xA0 SHL SUB AND SWAP1 DUP2 ISZERO PUSH2 0x76B JUMPI POP CALLER PUSH0 MSTORE PUSH1 0x1 SWAP3 DUP4 SWAP3 PUSH1 0x20 SWAP1 PUSH1 0x1 DUP3 MSTORE DUP1 PUSH0 KECCAK256 SLOAD SWAP4 PUSH0 MSTORE DUP1 PUSH0 KECCAK256 SLOAD SWAP3 PUSH2 0x653 DUP5 ISZERO ISZERO PUSH2 0x4596 JUMP JUMPDEST PUSH0 SWAP6 JUMPDEST PUSH2 0x65C JUMPI STOP JUMPDEST DUP1 MLOAD DUP7 LT ISZERO PUSH2 0x449 JUMPI DUP7 DUP7 PUSH2 0x67C DUP7 PUSH2 0x676 DUP5 SWAP11 DUP7 PUSH2 0x4BBE JUMP JUMPDEST MLOAD PUSH2 0x51B4 JUMP JUMPDEST ISZERO PUSH2 0x766 JUMPI PUSH2 0x68F DUP8 PUSH2 0x676 DUP4 DUP7 PUSH2 0x4BBE JUMP JUMPDEST ISZERO PUSH2 0x766 JUMPI DUP7 DUP7 PUSH2 0x6AA DUP2 PUSH2 0x6A4 DUP6 DUP9 PUSH2 0x4BBE JUMP JUMPDEST MLOAD PUSH2 0x4EB3 JUMP JUMPDEST DUP1 PUSH0 MSTORE PUSH1 0x6 DUP1 DUP10 MSTORE PUSH2 0x6BD DUP9 PUSH0 KECCAK256 PUSH2 0x4386 JUMP JUMPDEST SWAP2 DUP3 MLOAD DUP11 DUP5 ADD KECCAK256 PUSH2 0x6CC PUSH2 0x4830 JUMP JUMPDEST DUP12 DUP2 MLOAD SWAP2 ADD KECCAK256 EQ PUSH2 0x75C JUMPI PUSH2 0x6EB DUP5 PUSH2 0x6E5 DUP9 DUP12 PUSH2 0x4BBE JUMP JUMPDEST MLOAD PUSH2 0x4F45 JUMP JUMPDEST PUSH2 0x75C JUMPI PUSH2 0x704 DUP4 DUP6 PUSH2 0x6FE DUP10 DUP13 PUSH2 0x4BBE JUMP JUMPDEST MLOAD PUSH2 0x5034 JUMP JUMPDEST PUSH0 MSTORE DUP9 MSTORE DUP5 DUP8 PUSH0 KECCAK256 ADD PUSH1 0xFF NOT DUP2 SLOAD AND SWAP1 SSTORE PUSH1 0xE DUP9 MSTORE PUSH0 DUP8 DUP2 KECCAK256 SSTORE PUSH0 DUP1 MLOAD PUSH1 0x20 PUSH2 0x56A6 DUP4 CODECOPY DUP2 MLOAD SWAP2 MSTORE PUSH2 0x74C PUSH2 0x739 DUP7 DUP10 PUSH2 0x4BBE JUMP JUMPDEST MLOAD SWAP3 DUP10 MLOAD SWAP2 DUP3 SWAP2 DUP12 DUP4 MSTORE DUP12 DUP4 ADD SWAP1 PUSH2 0x4428 JUMP JUMPDEST TIMESTAMP DUP13 DUP4 ADD MSTORE SUB SWAP1 LOG4 JUMPDEST ADD SWAP6 PUSH2 0x656 JUMP JUMPDEST POP POP POP POP POP PUSH2 0x755 JUMP JUMPDEST PUSH2 0x755 JUMP JUMPDEST PUSH1 0x64 SWAP1 PUSH1 0x20 DUP5 MLOAD SWAP2 PUSH3 0x461BCD PUSH1 0xE5 SHL DUP4 MSTORE DUP3 ADD MSTORE PUSH1 0xE PUSH1 0x24 DUP3 ADD MSTORE PUSH14 0x125B9D985B1A59081DD85B1B195D PUSH1 0x92 SHL PUSH1 0x44 DUP3 ADD MSTORE REVERT JUMPDEST DUP3 CALLVALUE PUSH2 0x353 JUMPI PUSH0 CALLDATASIZE PUSH1 0x3 NOT ADD SLT PUSH2 0x353 JUMPI PUSH1 0xD SLOAD SWAP1 MLOAD PUSH1 0x1 PUSH1 0x1 PUSH1 0xA0 SHL SUB SWAP1 SWAP2 AND DUP2 MSTORE PUSH1 0x20 SWAP1 RETURN JUMPDEST DUP3 CALLVALUE PUSH2 0x353 JUMPI PUSH2 0x7D6 CALLDATASIZE PUSH2 0x4486 JUMP JUMPDEST SWAP2 PUSH2 0x7EB PUSH1 0x1 DUP1 PUSH1 0xA0 SHL SUB PUSH0 SLOAD AND CALLER EQ PUSH2 0x4681 JUMP JUMPDEST DUP2 ISZERO PUSH2 0x9D8 JUMPI PUSH2 0x7FC DUP4 ISZERO ISZERO PUSH2 0x4C89 JUMP JUMPDEST PUSH2 0x808 DUP4 DUP4 EQ ISZERO PUSH2 0x4CC7 JUMP JUMPDEST DUP2 PUSH0 MSTORE PUSH1 0x2 PUSH1 0x20 DUP2 DUP2 MSTORE PUSH1 0xFF DUP4 PUSH0 KECCAK256 SLOAD AND PUSH2 0x822 DUP2 PUSH2 0x44E4 JUMP JUMPDEST ISZERO PUSH2 0x99D JUMPI DUP5 PUSH0 MSTORE DUP2 DUP2 MSTORE PUSH2 0x847 PUSH1 0xFF DUP5 PUSH0 KECCAK256 SLOAD AND PUSH2 0x840 DUP2 PUSH2 0x44E4 JUMP JUMPDEST ISZERO ISZERO PUSH2 0x4D13 JUMP JUMPDEST DUP4 PUSH0 MSTORE PUSH1 0xF DUP2 MSTORE DUP3 PUSH0 KECCAK256 DUP6 PUSH0 MSTORE DUP2 MSTORE PUSH1 0xFF DUP4 PUSH0 KECCAK256 SLOAD AND PUSH2 0x866 DUP2 PUSH2 0x44E4 JUMP JUMPDEST DUP1 ISZERO SWAP1 DUP2 ISZERO PUSH2 0x989 JUMPI JUMPDEST POP ISZERO PUSH2 0x938 JUMPI DUP3 MLOAD PUSH2 0x881 DUP2 PUSH2 0x40C7 JUMP JUMPDEST DUP3 DUP2 MSTORE DUP2 DUP2 ADD DUP4 DUP2 MSTORE DUP6 PUSH0 MSTORE PUSH1 0xF DUP4 MSTORE DUP5 PUSH0 KECCAK256 DUP8 PUSH0 MSTORE DUP4 MSTORE PUSH2 0x8B0 DUP6 PUSH0 KECCAK256 SWAP3 MLOAD PUSH2 0x8AA DUP2 PUSH2 0x44E4 JUMP JUMPDEST DUP4 PUSH2 0x4A71 JUMP JUMPDEST MLOAD SWAP7 PUSH1 0x3 DUP9 LT ISZERO PUSH2 0x925 JUMPI POP PUSH32 0xC5B2E1BD4433EB4E9E181CC803520513D39D918C96BDDEEBCA1224E1C750963D SWAP5 SWAP6 SWAP7 PUSH2 0x8E9 SWAP2 PUSH2 0x4B7A JUMP JUMPDEST DUP6 DUP6 PUSH32 0x494D010FDF588A0E83D626EA6963187BDDA6F88B7007F7BF280683D3F7DEA834 DUP6 DUP1 MLOAD DUP7 DUP2 MSTORE TIMESTAMP DUP7 DUP3 ADD MSTORE LOG3 DUP3 MLOAD SWAP2 DUP3 MSTORE TIMESTAMP SWAP1 DUP3 ADD MSTORE LOG3 STOP JUMPDEST PUSH1 0x21 SWAP1 PUSH4 0x4E487B71 PUSH1 0xE0 SHL PUSH0 MSTORE MSTORE PUSH1 0x24 PUSH0 REVERT JUMPDEST DUP6 PUSH1 0x84 SWAP2 DUP5 MLOAD SWAP2 PUSH3 0x461BCD PUSH1 0xE5 SHL DUP4 MSTORE DUP3 ADD MSTORE PUSH1 0x26 PUSH1 0x24 DUP3 ADD MSTORE PUSH32 0x52656C6174696F6E7368697020616C726561647920616374697665206F722070 PUSH1 0x44 DUP3 ADD MSTORE PUSH6 0x656E64696E67 PUSH1 0xD0 SHL PUSH1 0x64 DUP3 ADD MSTORE REVERT JUMPDEST PUSH1 0x3 SWAP2 POP PUSH2 0x996 DUP2 PUSH2 0x44E4 JUMP JUMPDEST EQ DUP8 PUSH2 0x870 JUMP JUMPDEST DUP6 PUSH1 0x64 SWAP2 DUP5 MLOAD SWAP2 PUSH3 0x461BCD PUSH1 0xE5 SHL DUP4 MSTORE DUP3 ADD MSTORE PUSH1 0x16 PUSH1 0x24 DUP3 ADD MSTORE PUSH22 0x151C9D5CDD1BDC881B9BDD081C9959DA5CDD195C9959 PUSH1 0x52 SHL PUSH1 0x44 DUP3 ADD MSTORE REVERT JUMPDEST MLOAD PUSH3 0x461BCD PUSH1 0xE5 SHL DUP2 MSTORE PUSH1 0x20 DUP2 DUP6 ADD MSTORE PUSH1 0xF PUSH1 0x24 DUP3 ADD MSTORE PUSH15 0x24B73B30B634B2103A393AB9BA37B9 PUSH1 0x89 SHL PUSH1 0x44 DUP3 ADD MSTORE PUSH1 0x64 SWAP1 REVERT JUMPDEST DUP3 CALLVALUE PUSH2 0x353 JUMPI PUSH0 CALLDATASIZE PUSH1 0x3 NOT ADD SLT PUSH2 0x353 JUMPI DUP1 MLOAD SWAP1 DUP2 DUP4 SLOAD DUP1 DUP3 MSTORE PUSH1 0x20 DUP1 SWAP3 ADD SWAP5 PUSH0 MSTORE PUSH32 0x8A35ACFBC15FF81A39AE7D344FD709F28E8600B4AA8C65C6B64BFE7FE36BD19B SWAP2 PUSH0 SWAP1 JUMPDEST DUP3 DUP3 LT PUSH2 0xA81 JUMPI PUSH2 0xA7D DUP7 DUP7 PUSH2 0xA6B DUP3 DUP12 SUB DUP4 PUSH2 0x4111 JUMP JUMPDEST MLOAD SWAP2 DUP3 SWAP2 PUSH1 0x20 DUP4 MSTORE PUSH1 0x20 DUP4 ADD SWAP1 PUSH2 0x42D9 JUMP JUMPDEST SUB SWAP1 RETURN JUMPDEST DUP4 SLOAD DUP8 MSTORE SWAP6 DUP7 ADD SWAP6 PUSH1 0x1 SWAP4 DUP5 ADD SWAP4 SWAP1 SWAP2 ADD SWAP1 PUSH2 0xA53 JUMP JUMPDEST SWAP1 POP CALLVALUE PUSH2 0x353 JUMPI PUSH2 0xAA8 CALLDATASIZE PUSH2 0x430C JUMP JUMPDEST SWAP2 SWAP3 SWAP1 PUSH2 0xAB7 PUSH2 0x3A1 CALLER PUSH2 0x4D58 JUMP JUMPDEST PUSH2 0xAC2 DUP5 ISZERO ISZERO PUSH2 0x46FE JUMP JUMPDEST PUSH1 0x1 PUSH1 0x1 PUSH1 0xA0 SHL SUB AND SWAP3 PUSH2 0xAD7 DUP5 ISZERO ISZERO PUSH2 0x474A JUMP JUMPDEST PUSH2 0xAE8 PUSH2 0xAE3 DUP5 PUSH2 0x4E3B JUMP JUMPDEST PUSH2 0x4796 JUMP JUMPDEST CALLER PUSH0 MSTORE PUSH1 0x20 SWAP2 PUSH1 0x1 DUP4 MSTORE DUP6 PUSH0 KECCAK256 SLOAD SWAP5 PUSH0 MSTORE DUP6 PUSH0 KECCAK256 SLOAD SWAP3 PUSH2 0xB09 DUP5 ISZERO ISZERO PUSH2 0x4596 JUMP JUMPDEST DUP5 MLOAD DUP2 DUP7 ADD KECCAK256 PUSH2 0xB19 DUP8 DUP6 PUSH2 0x4EB3 JUMP JUMPDEST PUSH0 MSTORE PUSH1 0x6 DUP3 MSTORE PUSH1 0xFF PUSH1 0x1 DUP10 PUSH0 KECCAK256 ADD SLOAD AND ISZERO PUSH2 0x103C JUMPI DUP4 PUSH0 MSTORE PUSH1 0x7 DUP3 MSTORE DUP8 PUSH0 KECCAK256 SLOAD ISZERO ISZERO SWAP1 PUSH2 0xB4E PUSH2 0xB47 PUSH2 0x4830 JUMP JUMPDEST DUP10 DUP8 PUSH2 0x4EE7 JUMP JUMPDEST SWAP2 PUSH2 0xB61 PUSH2 0xB5A PUSH2 0x4851 JUMP JUMPDEST DUP11 DUP9 PUSH2 0x4EE7 JUMP JUMPDEST SWAP2 PUSH2 0xB74 PUSH2 0xB6D PUSH2 0x487A JUMP JUMPDEST DUP12 DUP10 PUSH2 0x4EE7 JUMP JUMPDEST SWAP1 PUSH2 0xB7F DUP12 DUP10 PUSH2 0x4F45 JUMP JUMPDEST SWAP1 PUSH2 0xB88 PUSH2 0x4830 JUMP JUMPDEST DUP1 MLOAD SWAP1 DUP9 ADD KECCAK256 DUP2 SUB PUSH2 0xCC8 JUMPI POP POP POP PUSH0 EQ PUSH2 0xC6E JUMPI POP ISZERO PUSH2 0xC2C JUMPI JUMPDEST PUSH2 0xBAE DUP5 DUP5 PUSH2 0x4EB3 JUMP JUMPDEST PUSH0 MSTORE PUSH1 0x6 DUP2 MSTORE PUSH1 0xFF PUSH1 0x1 DUP9 PUSH0 KECCAK256 ADD SLOAD AND PUSH2 0xBCE JUMPI POP POP PUSH2 0x449 SWAP5 POP PUSH2 0x51BE JUMP JUMPDEST DUP7 MLOAD PUSH3 0x461BCD PUSH1 0xE5 SHL DUP2 MSTORE SWAP2 DUP3 ADD MSTORE PUSH1 0x33 PUSH1 0x24 DUP3 ADD MSTORE PUSH32 0x54617267657420616C726561647920686173206120726F6C652E205573652063 PUSH1 0x44 DUP3 ADD MSTORE PUSH19 0x1A185B99D9549BDB194A0A481A5B9CDD195859 PUSH1 0x6A SHL PUSH1 0x64 DUP3 ADD MSTORE PUSH1 0x84 SWAP2 POP REVERT JUMPDEST DUP7 MLOAD PUSH3 0x461BCD PUSH1 0xE5 SHL DUP2 MSTORE SWAP2 DUP3 ADD DUP2 SWAP1 MSTORE PUSH1 0x24 DUP3 ADD MSTORE PUSH32 0x4F6E6C79206F776E6572732063616E206772616E74206F776E657220726F6C65 PUSH1 0x44 DUP3 ADD MSTORE PUSH1 0x64 SWAP2 POP REVERT JUMPDEST SWAP1 POP PUSH2 0xBA4 JUMPI DUP7 MLOAD PUSH3 0x461BCD PUSH1 0xE5 SHL DUP2 MSTORE SWAP2 DUP3 ADD MSTORE PUSH1 0x29 PUSH1 0x24 DUP3 ADD MSTORE PUSH32 0x4F6E6C792061646D696E6973747261746F72732063616E206772616E74206669 PUSH1 0x44 DUP3 ADD MSTORE PUSH9 0x3939BA1037BBB732B9 PUSH1 0xB9 SHL PUSH1 0x64 DUP3 ADD MSTORE PUSH1 0x84 SWAP2 POP REVERT JUMPDEST SWAP1 SWAP2 SWAP3 POP PUSH2 0xCD4 PUSH2 0x4851 JUMP JUMPDEST DUP1 MLOAD SWAP1 DUP8 ADD KECCAK256 DUP2 SUB PUSH2 0xD66 JUMPI POP POP POP DUP2 ISZERO PUSH2 0xD5E JUMPI JUMPDEST POP ISZERO PUSH2 0xCF6 JUMPI JUMPDEST PUSH2 0xBA4 JUMP JUMPDEST DUP7 MLOAD PUSH3 0x461BCD PUSH1 0xE5 SHL DUP2 MSTORE SWAP2 DUP3 ADD MSTORE PUSH1 0x3B PUSH1 0x24 DUP3 ADD MSTORE PUSH32 0x4F6E6C79206F776E65727320616E642061646D696E6973747261746F72732063 PUSH1 0x44 DUP3 ADD MSTORE PUSH32 0x616E206772616E742061646D696E6973747261746F7220726F6C650000000000 PUSH1 0x64 DUP3 ADD MSTORE PUSH1 0x84 SWAP2 POP REVERT JUMPDEST SWAP1 POP PUSH0 PUSH2 0xCEA JUMP JUMPDEST PUSH2 0xD71 SWAP5 SWAP3 SWAP5 PUSH2 0x487A JUMP JUMPDEST DUP1 MLOAD SWAP1 DUP8 ADD KECCAK256 DUP2 SUB PUSH2 0xECA JUMPI POP DUP2 ISZERO SWAP2 DUP3 PUSH2 0xEC3 JUMPI JUMPDEST DUP1 ISZERO PUSH2 0xEBC JUMPI JUMPDEST DUP1 ISZERO PUSH2 0xEB5 JUMPI JUMPDEST ISZERO PUSH2 0xE3C JUMPI DUP4 ISZERO PUSH2 0xE34 JUMPI JUMPDEST POP DUP3 PUSH2 0xE2C JUMPI JUMPDEST POP DUP2 PUSH2 0xE23 JUMPI JUMPDEST POP ISZERO PUSH2 0xBA4 JUMPI PUSH2 0xDBF DUP7 DUP5 PUSH2 0x547B JUMP JUMPDEST MLOAD PUSH2 0xCF1 JUMPI DUP7 MLOAD PUSH3 0x461BCD PUSH1 0xE5 SHL DUP2 MSTORE SWAP2 DUP3 ADD MSTORE PUSH1 0x34 PUSH1 0x24 DUP3 ADD MSTORE PUSH32 0x4D757374206861766520616E2061637469766520726F6C6520746F206772616E PUSH1 0x44 DUP3 ADD MSTORE PUSH20 0x7420736861726572207065726D697373696F6E73 PUSH1 0x60 SHL PUSH1 0x64 DUP3 ADD MSTORE PUSH1 0x84 SWAP2 POP REVERT JUMPDEST SWAP1 POP ISZERO PUSH0 PUSH2 0xDAF JUMP JUMPDEST SWAP2 POP PUSH0 PUSH2 0xDA8 JUMP JUMPDEST SWAP3 POP PUSH0 PUSH2 0xDA1 JUMP JUMPDEST DUP11 MLOAD PUSH3 0x461BCD PUSH1 0xE5 SHL DUP2 MSTORE DUP1 DUP8 ADD DUP7 SWAP1 MSTORE PUSH1 0x47 PUSH1 0x24 DUP3 ADD MSTORE PUSH32 0x4F6E6C79206F776E6572732C2061646D696E6973747261746F72732C20736861 PUSH1 0x44 DUP3 ADD MSTORE PUSH32 0x726572732C206F72207375626A656374732063616E206772616E742073686172 PUSH1 0x64 DUP3 ADD MSTORE PUSH7 0x657220726F6C65 PUSH1 0xC8 SHL PUSH1 0x84 DUP3 ADD MSTORE PUSH1 0xA4 SWAP1 REVERT JUMPDEST POP DUP1 PUSH2 0xD95 JUMP JUMPDEST POP DUP4 PUSH2 0xD8E JUMP JUMPDEST POP DUP3 PUSH2 0xD87 JUMP JUMPDEST PUSH2 0xED2 PUSH2 0x489C JUMP JUMPDEST DUP7 DUP2 MLOAD SWAP2 ADD KECCAK256 EQ PUSH2 0xEE7 JUMPI JUMPDEST POP POP POP POP PUSH2 0xBA4 JUMP JUMPDEST DUP2 ISZERO SWAP2 DUP3 PUSH2 0x1035 JUMPI JUMPDEST DUP1 ISZERO PUSH2 0x102E JUMPI JUMPDEST DUP1 ISZERO PUSH2 0x1027 JUMPI JUMPDEST ISZERO PUSH2 0xFAE JUMPI DUP4 ISZERO PUSH2 0xFA6 JUMPI JUMPDEST POP DUP3 PUSH2 0xF9E JUMPI JUMPDEST POP DUP2 PUSH2 0xF95 JUMPI JUMPDEST POP PUSH2 0xF27 JUMPI JUMPDEST PUSH0 DUP1 DUP1 DUP1 PUSH2 0xEDE JUMP JUMPDEST PUSH2 0xF31 DUP7 DUP5 PUSH2 0x547B JUMP JUMPDEST MLOAD PUSH2 0xF1E JUMPI DUP7 MLOAD PUSH3 0x461BCD PUSH1 0xE5 SHL DUP2 MSTORE SWAP2 DUP3 ADD MSTORE PUSH1 0x34 PUSH1 0x24 DUP3 ADD MSTORE PUSH32 0x4D757374206861766520616E2061637469766520726F6C6520746F206772616E PUSH1 0x44 DUP3 ADD MSTORE PUSH20 0x7420766965776572207065726D697373696F6E73 PUSH1 0x60 SHL PUSH1 0x64 DUP3 ADD MSTORE PUSH1 0x84 SWAP2 POP REVERT JUMPDEST SWAP1 POP ISZERO PUSH0 PUSH2 0xF18 JUMP JUMPDEST SWAP2 POP PUSH0 PUSH2 0xF11 JUMP JUMPDEST SWAP3 POP PUSH0 PUSH2 0xF0A JUMP JUMPDEST DUP11 MLOAD PUSH3 0x461BCD PUSH1 0xE5 SHL DUP2 MSTORE DUP1 DUP8 ADD DUP7 SWAP1 MSTORE PUSH1 0x47 PUSH1 0x24 DUP3 ADD MSTORE PUSH32 0x4F6E6C79206F776E6572732C2061646D696E6973747261746F72732C20736861 PUSH1 0x44 DUP3 ADD MSTORE PUSH32 0x726572732C206F72207375626A656374732063616E206772616E742076696577 PUSH1 0x64 DUP3 ADD MSTORE PUSH7 0x657220726F6C65 PUSH1 0xC8 SHL PUSH1 0x84 DUP3 ADD MSTORE PUSH1 0xA4 SWAP1 REVERT JUMPDEST POP DUP1 PUSH2 0xEFE JUMP JUMPDEST POP DUP4 PUSH2 0xEF7 JUMP JUMPDEST POP DUP3 PUSH2 0xEF0 JUMP JUMPDEST PUSH1 0x64 DUP4 DUP4 DUP1 DUP12 MLOAD SWAP3 PUSH3 0x461BCD PUSH1 0xE5 SHL DUP5 MSTORE DUP4 ADD MSTORE PUSH1 0x24 DUP3 ADD MSTORE PUSH32 0x596F752068617665206E6F20726F6C6520666F722074686973207265636F7264 PUSH1 0x44 DUP3 ADD MSTORE REVERT JUMPDEST DUP3 CALLVALUE PUSH2 0x353 JUMPI PUSH1 0x60 CALLDATASIZE PUSH1 0x3 NOT ADD SLT PUSH2 0x353 JUMPI DUP2 CALLDATALOAD SWAP1 PUSH1 0x24 CALLDATALOAD PUSH1 0x3 DUP2 LT ISZERO PUSH2 0x353 JUMPI PUSH1 0x44 CALLDATALOAD PUSH1 0x1 PUSH1 0x1 PUSH1 0x40 SHL SUB DUP2 GT PUSH2 0x353 JUMPI PUSH2 0x10BC SWAP1 CALLDATASIZE SWAP1 DUP7 ADD PUSH2 0x4149 JUMP JUMPDEST PUSH2 0x10C8 PUSH2 0x3A1 CALLER PUSH2 0x4D58 JUMP JUMPDEST CALLER PUSH0 MSTORE PUSH1 0x1 SWAP4 PUSH1 0x20 SWAP2 DUP6 DUP4 MSTORE DUP5 PUSH0 KECCAK256 SLOAD PUSH2 0x10E3 DUP4 ISZERO ISZERO PUSH2 0x4C89 JUMP JUMPDEST PUSH2 0x10EF DUP4 DUP3 EQ ISZERO PUSH2 0x4CC7 JUMP JUMPDEST DUP3 PUSH0 MSTORE PUSH1 0x2 DUP5 MSTORE PUSH1 0xFF SWAP2 PUSH2 0x110C PUSH1 0xFF DUP9 PUSH0 KECCAK256 SLOAD AND PUSH2 0x840 DUP2 PUSH2 0x44E4 JUMP JUMPDEST DUP2 PUSH0 MSTORE PUSH1 0xF DUP6 MSTORE DUP7 PUSH0 KECCAK256 DUP5 PUSH0 MSTORE DUP6 MSTORE PUSH1 0xFF DUP8 PUSH0 KECCAK256 SLOAD AND PUSH2 0x112B DUP2 PUSH2 0x44E4 JUMP JUMPDEST DUP10 DUP2 ISZERO SWAP2 DUP3 ISZERO PUSH2 0x132F JUMPI JUMPDEST DUP3 ISZERO PUSH2 0x131B JUMPI JUMPDEST POP POP ISZERO PUSH2 0x12CA JUMPI DUP7 MLOAD PUSH2 0x114F DUP2 PUSH2 0x40C7 JUMP JUMPDEST DUP9 DUP2 MSTORE DUP6 DUP2 ADD PUSH2 0x115F DUP9 DUP3 PUSH2 0x4BD2 JUMP JUMPDEST DUP4 PUSH0 MSTORE PUSH1 0xF DUP8 MSTORE DUP9 PUSH0 KECCAK256 DUP7 PUSH0 MSTORE DUP8 MSTORE PUSH2 0x117F DUP10 PUSH0 KECCAK256 SWAP3 MLOAD PUSH2 0x8AA DUP2 PUSH2 0x44E4 JUMP JUMPDEST MLOAD SWAP10 PUSH1 0x3 DUP12 LT ISZERO PUSH2 0x925 JUMPI POP DUP9 SWAP10 PUSH2 0x1196 SWAP2 PUSH2 0x4B7A JUMP JUMPDEST DUP4 DUP3 PUSH32 0x494D010FDF588A0E83D626EA6963187BDDA6F88B7007F7BF280683D3F7DEA834 DUP10 DUP1 MLOAD PUSH2 0x11C6 DUP2 DUP13 PUSH2 0x4502 JUMP JUMPDEST TIMESTAMP DUP11 DUP3 ADD MSTORE LOG3 PUSH0 SWAP8 JUMPDEST PUSH2 0x11D5 JUMPI STOP JUMPDEST DUP1 MLOAD DUP9 LT ISZERO PUSH2 0x449 JUMPI DUP9 DUP9 PUSH2 0x11EB DUP3 SWAP11 DUP5 PUSH2 0x4BBE JUMP JUMPDEST MLOAD PUSH2 0x11F7 DUP10 DUP7 DUP4 PUSH2 0x5425 JUMP JUMPDEST PUSH2 0x1200 DUP2 PUSH2 0x4E3B JUMP JUMPDEST ISZERO PUSH2 0x12C3 JUMPI PUSH2 0x120F DUP7 DUP4 PUSH2 0x4EB3 JUMP JUMPDEST PUSH0 MSTORE PUSH1 0x6 DUP1 DUP11 MSTORE DUP8 DUP6 DUP14 PUSH0 KECCAK256 ADD SLOAD AND ISZERO PUSH2 0x12BB JUMPI PUSH2 0x122D DUP10 DUP5 PUSH2 0x4EB3 JUMP JUMPDEST PUSH0 MSTORE DUP10 MSTORE DUP6 DUP8 DUP6 DUP14 PUSH0 KECCAK256 ADD SLOAD AND PUSH2 0x12BB JUMPI PUSH2 0x1249 SWAP2 DUP10 DUP5 PUSH2 0x51BE JUMP JUMPDEST DUP5 PUSH0 MSTORE PUSH1 0x11 DUP1 DUP10 MSTORE DUP11 PUSH0 KECCAK256 DUP9 PUSH0 MSTORE DUP10 MSTORE DUP11 PUSH0 KECCAK256 DUP3 PUSH0 MSTORE DUP10 MSTORE DUP7 DUP12 PUSH0 KECCAK256 SLOAD AND ISZERO PUSH2 0x1277 JUMPI JUMPDEST POP POP JUMPDEST ADD SWAP8 PUSH2 0x11CF JUMP JUMPDEST DUP6 PUSH0 MSTORE PUSH1 0x10 DUP10 MSTORE DUP11 PUSH0 KECCAK256 DUP9 PUSH0 MSTORE DUP10 MSTORE PUSH2 0x1292 DUP3 DUP13 PUSH0 KECCAK256 PUSH2 0x4AD0 JUMP JUMPDEST DUP6 PUSH0 MSTORE DUP9 MSTORE DUP10 PUSH0 KECCAK256 DUP8 PUSH0 MSTORE DUP9 MSTORE DUP10 PUSH0 KECCAK256 SWAP1 PUSH0 MSTORE DUP8 MSTORE DUP9 PUSH0 KECCAK256 DUP3 PUSH1 0xFF NOT DUP3 SLOAD AND OR SWAP1 SSTORE DUP12 DUP1 PUSH2 0x126D JUMP JUMPDEST POP POP POP PUSH2 0x1270 JUMP JUMPDEST POP POP PUSH2 0x1270 JUMP JUMPDEST DUP7 MLOAD PUSH3 0x461BCD PUSH1 0xE5 SHL DUP2 MSTORE DUP1 DUP11 ADD DUP7 SWAP1 MSTORE PUSH1 0x25 PUSH1 0x24 DUP3 ADD MSTORE PUSH32 0x50726F706F73616C20616C726561647920657869737473206F72206973207065 PUSH1 0x44 DUP3 ADD MSTORE PUSH5 0x6E64696E67 PUSH1 0xD8 SHL PUSH1 0x64 DUP3 ADD MSTORE PUSH1 0x84 SWAP1 REVERT JUMPDEST SWAP1 SWAP2 POP PUSH2 0x1327 DUP2 PUSH2 0x44E4 JUMP JUMPDEST EQ DUP10 DUP12 PUSH2 0x113D JUMP JUMPDEST DUP1 SWAP3 POP PUSH2 0x133C SWAP2 POP PUSH2 0x44E4 JUMP JUMPDEST DUP10 PUSH1 0x3 DUP3 EQ SWAP2 PUSH2 0x1136 JUMP JUMPDEST DUP3 CALLVALUE PUSH2 0x353 JUMPI DUP1 PUSH1 0x3 NOT CALLDATASIZE ADD SLT PUSH2 0x353 JUMPI DUP2 CALLDATALOAD PUSH2 0x1362 PUSH2 0x40B1 JUMP JUMPDEST PUSH2 0x136D DUP3 ISZERO ISZERO PUSH2 0x46FE JUMP JUMPDEST PUSH1 0x1 PUSH1 0x1 PUSH1 0xA0 SHL SUB AND SWAP3 PUSH2 0x1382 DUP5 ISZERO ISZERO PUSH2 0x474A JUMP JUMPDEST CALLER PUSH0 MSTORE PUSH1 0x20 SWAP3 PUSH1 0x1 DUP5 MSTORE DUP1 PUSH0 KECCAK256 SLOAD SWAP5 PUSH0 MSTORE DUP1 PUSH0 KECCAK256 SLOAD SWAP4 PUSH2 0x13A3 DUP6 ISZERO ISZERO PUSH2 0x4596 JUMP JUMPDEST PUSH2 0x13AD DUP6 DUP6 PUSH2 0x4EB3 JUMP JUMPDEST DUP1 PUSH0 MSTORE PUSH1 0x6 DUP3 MSTORE PUSH2 0x13C6 PUSH1 0xFF PUSH1 0x1 DUP6 PUSH0 KECCAK256 ADD SLOAD AND PUSH2 0x47D8 JUMP JUMPDEST DUP1 PUSH0 MSTORE PUSH1 0x6 DUP3 MSTORE PUSH2 0x13D8 DUP4 PUSH0 KECCAK256 PUSH2 0x4386 JUMP JUMPDEST SWAP4 DUP5 MLOAD DUP4 DUP7 ADD KECCAK256 PUSH2 0x13E7 PUSH2 0x4830 JUMP JUMPDEST DUP5 DUP2 MLOAD SWAP2 ADD KECCAK256 DUP2 EQ PUSH2 0x1793 JUMPI PUSH2 0x13FD DUP9 DUP9 PUSH2 0x4F45 JUMP JUMPDEST PUSH2 0x1704 JUMPI DUP8 DUP10 SUB PUSH2 0x150B JUMPI JUMPDEST PUSH2 0x1411 PUSH2 0x4851 JUMP JUMPDEST DUP5 DUP2 MLOAD SWAP2 ADD KECCAK256 EQ PUSH2 0x1476 JUMPI JUMPDEST POP SWAP1 DUP4 SWAP3 SWAP2 PUSH2 0x143B PUSH0 DUP1 MLOAD PUSH1 0x20 PUSH2 0x56A6 DUP4 CODECOPY DUP2 MLOAD SWAP2 MSTORE SWAP6 DUP9 DUP9 PUSH2 0x5034 JUMP JUMPDEST PUSH0 MSTORE PUSH1 0x6 DUP2 MSTORE PUSH1 0x1 DUP3 PUSH0 KECCAK256 ADD PUSH1 0xFF NOT DUP2 SLOAD AND SWAP1 SSTORE PUSH1 0xE DUP2 MSTORE PUSH0 DUP3 DUP2 KECCAK256 SSTORE PUSH2 0x146B DUP3 MLOAD SWAP4 DUP4 DUP6 SWAP5 DUP6 MSTORE DUP5 ADD SWAP1 PUSH2 0x4428 JUMP JUMPDEST SWAP1 TIMESTAMP SWAP1 DUP4 ADD MSTORE SUB SWAP1 LOG4 STOP JUMPDEST DUP6 PUSH0 MSTORE PUSH1 0x8 DUP4 MSTORE PUSH1 0x1 DUP5 PUSH0 KECCAK256 SLOAD GT PUSH1 0x7 DUP5 MSTORE DUP5 PUSH0 KECCAK256 SLOAD ISZERO ISZERO DUP2 ISZERO PUSH2 0x1503 JUMPI JUMPDEST POP PUSH2 0x141D JUMPI DUP4 MLOAD PUSH3 0x461BCD PUSH1 0xE5 SHL DUP2 MSTORE SWAP1 DUP2 ADD DUP4 SWAP1 MSTORE PUSH1 0x39 PUSH1 0x24 DUP3 ADD MSTORE PUSH32 0x43616E6E6F74207265766F6B65206C6173742061646D696E6973747261746F72 PUSH1 0x44 DUP3 ADD MSTORE PUSH32 0x20776974686F757420616E206F776E65722070726573656E7400000000000000 PUSH1 0x64 DUP3 ADD MSTORE PUSH1 0x84 SWAP1 REVERT JUMPDEST SWAP1 POP DUP10 PUSH2 0x1495 JUMP JUMPDEST PUSH2 0x151D PUSH2 0x1516 PUSH2 0x4830 JUMP JUMPDEST DUP11 DUP10 PUSH2 0x4EE7 JUMP JUMPDEST PUSH2 0x152F PUSH2 0x1528 PUSH2 0x4851 JUMP JUMPDEST DUP12 DUP11 PUSH2 0x4EE7 JUMP JUMPDEST DUP5 PUSH0 MSTORE PUSH1 0xE DUP7 MSTORE DUP11 DUP8 PUSH0 KECCAK256 SLOAD EQ SWAP1 PUSH2 0x1545 PUSH2 0x489C JUMP JUMPDEST DUP8 DUP2 MLOAD SWAP2 ADD KECCAK256 DUP5 EQ DUP1 ISZERO PUSH2 0x16EE JUMPI JUMPDEST ISZERO PUSH2 0x1600 JUMPI DUP3 ISZERO PUSH2 0x15F8 JUMPI JUMPDEST POP DUP2 ISZERO PUSH2 0x15F0 JUMPI JUMPDEST POP ISZERO PUSH2 0x1574 JUMPI JUMPDEST PUSH2 0x1409 JUMP JUMPDEST DUP5 MLOAD PUSH3 0x461BCD PUSH1 0xE5 SHL DUP2 MSTORE DUP1 DUP4 ADD DUP6 SWAP1 MSTORE PUSH1 0x4A PUSH1 0x24 DUP3 ADD MSTORE PUSH32 0x4F6E6C79206F776E6572732C2061646D696E6973747261746F72732C206F7220 PUSH1 0x44 DUP3 ADD MSTORE PUSH32 0x746865206772616E7465722063616E207265766F6B65207669657765722F7368 PUSH1 0x64 DUP3 ADD MSTORE PUSH10 0x6172657220726F6C6573 PUSH1 0xB0 SHL PUSH1 0x84 DUP3 ADD MSTORE PUSH1 0xA4 SWAP1 REVERT JUMPDEST SWAP1 POP DUP11 PUSH2 0x1568 JUMP JUMPDEST SWAP2 POP DUP12 PUSH2 0x1560 JUMP JUMPDEST DUP3 ISZERO SWAP3 SWAP2 POP DUP3 PUSH2 0x16E6 JUMPI JUMPDEST POP ISZERO PUSH2 0x168B JUMPI ISZERO PUSH2 0x1409 JUMPI PUSH2 0x161E PUSH2 0x4851 JUMP JUMPDEST DUP5 DUP2 MLOAD SWAP2 ADD KECCAK256 DUP2 SUB PUSH2 0x156F JUMPI DUP7 PUSH0 MSTORE PUSH1 0x7 DUP5 MSTORE DUP5 PUSH0 KECCAK256 SLOAD ISZERO PUSH2 0x156F JUMPI DUP5 MLOAD PUSH3 0x461BCD PUSH1 0xE5 SHL DUP2 MSTORE DUP1 DUP4 ADD DUP6 SWAP1 MSTORE PUSH1 0x25 PUSH1 0x24 DUP3 ADD MSTORE PUSH32 0x4F6E6C79206F776E6572732063616E207265766F6B652061646D696E69737472 PUSH1 0x44 DUP3 ADD MSTORE PUSH5 0x61746F7273 PUSH1 0xD8 SHL PUSH1 0x64 DUP3 ADD MSTORE PUSH1 0x84 SWAP1 REVERT JUMPDEST DUP6 MLOAD PUSH3 0x461BCD PUSH1 0xE5 SHL DUP2 MSTORE DUP1 DUP5 ADD DUP7 SWAP1 MSTORE PUSH1 0x2F PUSH1 0x24 DUP3 ADD MSTORE PUSH32 0x4F6E6C79206F776E65727320616E642061646D696E6973747261746F72732063 PUSH1 0x44 DUP3 ADD MSTORE PUSH15 0x616E207265766F6B6520726F6C6573 PUSH1 0x88 SHL PUSH1 0x64 DUP3 ADD MSTORE PUSH1 0x84 SWAP1 REVERT JUMPDEST SWAP1 POP DUP12 PUSH2 0x160B JUMP JUMPDEST POP PUSH2 0x16F7 PUSH2 0x487A JUMP JUMPDEST DUP8 DUP2 MLOAD SWAP2 ADD KECCAK256 DUP5 EQ PUSH2 0x1554 JUMP JUMPDEST DUP5 MLOAD PUSH3 0x461BCD PUSH1 0xE5 SHL DUP2 MSTORE DUP1 DUP4 ADD DUP6 SWAP1 MSTORE PUSH1 0x57 PUSH1 0x24 DUP3 ADD MSTORE PUSH32 0x43616E6E6F74207265766F6B6520616E20616374697665207375626A65637427 PUSH1 0x44 DUP3 ADD MSTORE PUSH32 0x7320726F6C652E20416374697665207375626A65637473206D75737420686F6C PUSH1 0x64 DUP3 ADD MSTORE PUSH32 0x64206174206C656173742073686172657220726F6C652E000000000000000000 PUSH1 0x84 DUP3 ADD MSTORE PUSH1 0xA4 SWAP1 REVERT JUMPDEST DUP5 MLOAD PUSH3 0x461BCD PUSH1 0xE5 SHL DUP2 MSTORE DUP1 DUP4 ADD DUP6 SWAP1 MSTORE PUSH1 0x45 PUSH1 0x24 DUP3 ADD MSTORE PUSH32 0x4F776E6572732063616E6E6F74206265207265766F6B65642E204F776E657220 PUSH1 0x44 DUP3 ADD MSTORE PUSH32 0x6D7573742075736520766F6C756E746172696C794C656176654F776E65727368 PUSH1 0x64 DUP3 ADD MSTORE PUSH5 0x34B8141497 PUSH1 0xD9 SHL PUSH1 0x84 DUP3 ADD MSTORE PUSH1 0xA4 SWAP1 REVERT JUMPDEST SWAP1 POP CALLVALUE PUSH2 0x353 JUMPI PUSH1 0x20 SWAP1 DUP2 PUSH1 0x3 NOT CALLDATASIZE ADD SLT PUSH2 0x353 JUMPI DUP3 SWAP1 CALLDATALOAD PUSH0 MSTORE PUSH1 0x3 DUP3 MSTORE DUP1 PUSH0 KECCAK256 DUP2 MLOAD SWAP3 DUP4 DUP2 DUP4 SLOAD SWAP2 DUP3 DUP2 MSTORE ADD SWAP1 DUP2 SWAP4 PUSH0 MSTORE DUP3 PUSH0 KECCAK256 SWAP1 PUSH0 JUMPDEST DUP2 DUP2 LT PUSH2 0x189C JUMPI POP POP POP DUP5 PUSH2 0x1858 SWAP2 SUB DUP6 PUSH2 0x4111 JUMP JUMPDEST DUP3 MLOAD DUP2 DUP2 MSTORE SWAP4 MLOAD DUP2 DUP6 ADD DUP2 SWAP1 MSTORE DUP5 SWAP4 DUP5 ADD SWAP3 SWAP2 PUSH0 JUMPDEST DUP3 DUP2 LT PUSH2 0x187C JUMPI POP POP POP POP SUB SWAP1 RETURN JUMPDEST DUP4 MLOAD PUSH1 0x1 PUSH1 0x1 PUSH1 0xA0 SHL SUB AND DUP6 MSTORE DUP7 SWAP6 POP SWAP4 DUP2 ADD SWAP4 SWAP3 DUP2 ADD SWAP3 PUSH1 0x1 ADD PUSH2 0x186D JUMP JUMPDEST DUP3 SLOAD PUSH1 0x1 PUSH1 0x1 PUSH1 0xA0 SHL SUB AND DUP5 MSTORE SWAP3 DUP5 ADD SWAP3 PUSH1 0x1 SWAP3 DUP4 ADD SWAP3 ADD PUSH2 0x1842 JUMP JUMPDEST DUP3 CALLVALUE PUSH2 0x353 JUMPI PUSH1 0x20 CALLDATASIZE PUSH1 0x3 NOT ADD SLT PUSH2 0x353 JUMPI PUSH1 0x20 SWAP2 CALLDATALOAD PUSH0 MSTORE PUSH1 0xE DUP3 MSTORE DUP1 PUSH0 KECCAK256 SLOAD SWAP1 MLOAD SWAP1 DUP2 MSTORE RETURN JUMPDEST DUP3 CALLVALUE PUSH2 0x353 JUMPI PUSH1 0x20 CALLDATASIZE PUSH1 0x3 NOT ADD SLT PUSH2 0x353 JUMPI PUSH1 0x20 SWAP1 PUSH2 0x1905 PUSH2 0x1900 PUSH2 0x409B JUMP JUMPDEST PUSH2 0x53D3 JUMP JUMPDEST SWAP1 MLOAD SWAP1 ISZERO ISZERO DUP2 MSTORE RETURN JUMPDEST DUP3 CALLVALUE PUSH2 0x353 JUMPI PUSH2 0x191D CALLDATASIZE PUSH2 0x4486 JUMP JUMPDEST SWAP1 SWAP3 PUSH2 0x192B PUSH2 0x3A1 CALLER PUSH2 0x4D58 JUMP JUMPDEST CALLER PUSH0 MSTORE PUSH1 0x1 SWAP4 PUSH1 0x20 SWAP2 DUP6 DUP4 MSTORE DUP5 PUSH0 KECCAK256 SLOAD SWAP1 DUP3 DUP3 EQ DUP1 ISZERO PUSH2 0x1B94 JUMPI JUMPDEST ISZERO PUSH2 0x1B53 JUMPI DUP3 PUSH0 MSTORE PUSH1 0xF DUP5 MSTORE DUP6 PUSH0 KECCAK256 DUP6 PUSH0 MSTORE DUP5 MSTORE PUSH1 0xFF SWAP1 PUSH1 0xFF DUP8 PUSH0 KECCAK256 SLOAD AND PUSH2 0x196D DUP2 PUSH2 0x44E4 JUMP JUMPDEST DUP9 PUSH1 0x2 DUP3 EQ SWAP2 DUP3 ISZERO PUSH2 0x1B3F JUMPI JUMPDEST POP POP ISZERO PUSH2 0x1AF2 JUMPI POP DUP3 PUSH0 MSTORE PUSH1 0xF DUP5 MSTORE DUP6 PUSH0 KECCAK256 DUP6 PUSH0 MSTORE DUP5 MSTORE DUP6 PUSH0 KECCAK256 SWAP1 PUSH1 0x3 PUSH1 0xFF NOT SWAP3 PUSH1 0x3 DUP5 DUP3 SLOAD AND OR SWAP1 SSTORE DUP4 DUP8 DUP7 PUSH32 0x6DF3A6475FAB2EED139F7E469995B04E85BFC5B4B8642587109CB72541F74FAE DUP10 DUP13 MLOAD TIMESTAMP DUP2 MSTORE LOG4 DUP5 PUSH0 MSTORE PUSH1 0x10 DUP7 MSTORE DUP8 PUSH0 KECCAK256 DUP8 PUSH0 MSTORE DUP7 MSTORE DUP8 PUSH0 KECCAK256 DUP10 PUSH0 SWAP1 JUMPDEST PUSH2 0x1A05 JUMPI JUMPDEST PUSH2 0x449 DUP11 DUP11 DUP11 DUP11 PUSH0 MSTORE PUSH1 0x10 DUP2 MSTORE DUP3 PUSH0 KECCAK256 SWAP2 PUSH0 MSTORE MSTORE PUSH0 KECCAK256 PUSH2 0x4C59 JUMP JUMPDEST DUP2 SLOAD DUP2 LT ISZERO PUSH2 0x1AED JUMPI SWAP1 DUP11 DUP3 DUP8 DUP12 DUP14 DUP13 PUSH2 0x1A24 DUP7 SWAP13 SWAP12 SWAP11 SWAP10 SWAP9 DUP9 PUSH2 0x44BB JUMP JUMPDEST SWAP1 SLOAD SWAP1 DUP10 SHL SHR SWAP2 DUP14 PUSH0 MSTORE PUSH1 0x11 DUP3 MSTORE DUP1 PUSH0 KECCAK256 DUP5 PUSH0 MSTORE DUP3 MSTORE DUP1 PUSH0 KECCAK256 DUP4 PUSH0 MSTORE DUP3 MSTORE DUP1 PUSH0 KECCAK256 DUP12 DUP2 SLOAD AND SWAP1 SSTORE PUSH2 0x1A55 DUP5 DUP5 PUSH2 0x4EB3 JUMP JUMPDEST PUSH0 MSTORE PUSH1 0x6 SWAP1 DUP2 DUP4 MSTORE DUP11 DUP9 DUP3 PUSH0 KECCAK256 ADD SLOAD AND ISZERO PUSH2 0x1AE2 JUMPI PUSH0 DUP1 MLOAD PUSH1 0x20 PUSH2 0x56A6 DUP4 CODECOPY DUP2 MLOAD SWAP2 MSTORE SWAP3 PUSH2 0x1A83 DUP7 DUP7 PUSH2 0x4EB3 JUMP JUMPDEST SWAP3 DUP4 PUSH0 MSTORE DUP1 DUP3 MSTORE PUSH2 0x1A95 DUP4 PUSH0 KECCAK256 PUSH2 0x4386 JUMP JUMPDEST SWAP4 PUSH2 0x1AA1 DUP6 DUP10 DUP10 PUSH2 0x5034 JUMP JUMPDEST PUSH0 MSTORE DUP2 MSTORE DUP9 DUP3 PUSH0 KECCAK256 ADD DUP14 DUP2 SLOAD AND SWAP1 SSTORE PUSH1 0xE DUP2 MSTORE PUSH0 DUP3 DUP2 KECCAK256 SSTORE PUSH2 0x1ACC DUP3 MLOAD SWAP4 DUP4 DUP6 SWAP5 DUP6 MSTORE DUP5 ADD SWAP1 PUSH2 0x4428 JUMP JUMPDEST SWAP1 TIMESTAMP SWAP1 DUP4 ADD MSTORE SUB SWAP1 LOG4 JUMPDEST ADD SWAP1 SWAP2 SWAP3 SWAP4 SWAP5 SWAP6 PUSH2 0x19E5 JUMP JUMPDEST POP POP POP POP POP POP PUSH2 0x1AD6 JUMP JUMPDEST PUSH2 0x19EA JUMP JUMPDEST DUP7 MLOAD PUSH3 0x461BCD PUSH1 0xE5 SHL DUP2 MSTORE SWAP1 DUP2 ADD DUP6 SWAP1 MSTORE PUSH1 0x21 PUSH1 0x24 DUP3 ADD MSTORE PUSH32 0x4E6F20616374697665206F722070656E64696E672072656C6174696F6E736869 PUSH1 0x44 DUP3 ADD MSTORE PUSH1 0x7 PUSH1 0xFC SHL PUSH1 0x64 DUP3 ADD MSTORE PUSH1 0x84 SWAP1 REVERT JUMPDEST SWAP1 SWAP2 POP PUSH2 0x1B4B DUP2 PUSH2 0x44E4 JUMP JUMPDEST EQ DUP9 DUP11 PUSH2 0x197A JUMP JUMPDEST PUSH1 0x64 SWAP1 DUP5 DUP1 DUP9 MLOAD SWAP3 PUSH3 0x461BCD PUSH1 0xE5 SHL DUP5 MSTORE DUP4 ADD MSTORE PUSH1 0x24 DUP3 ADD MSTORE PUSH32 0x4E6F74206120706172747920746F20746869732072656C6174696F6E73686970 PUSH1 0x44 DUP3 ADD MSTORE REVERT JUMPDEST POP DUP5 DUP3 EQ PUSH2 0x1946 JUMP JUMPDEST DUP3 CALLVALUE PUSH2 0x353 JUMPI DUP1 PUSH1 0x3 NOT CALLDATASIZE ADD SLT PUSH2 0x353 JUMPI PUSH2 0x1905 PUSH1 0x20 SWAP3 PUSH2 0x1BBC PUSH2 0x40B1 JUMP JUMPDEST SWAP1 CALLDATALOAD PUSH2 0x4C1C JUMP JUMPDEST DUP3 CALLVALUE PUSH2 0x353 JUMPI PUSH1 0x20 CALLDATASIZE PUSH1 0x3 NOT ADD SLT PUSH2 0x353 JUMPI PUSH32 0xCE59AD7D6DABE8A7533ED7D9BD07D276A046AC7AC9A8E8E8971DA4B81104A28B PUSH1 0x20 PUSH2 0x1C00 PUSH2 0x409B JUMP JUMPDEST PUSH0 SLOAD PUSH1 0x1 PUSH1 0x1 PUSH1 0xA0 SHL SUB SWAP2 SWAP1 PUSH2 0x1C19 SWAP1 DUP4 AND CALLER EQ PUSH2 0x4681 JUMP JUMPDEST AND SWAP3 PUSH2 0x1C26 DUP5 ISZERO ISZERO PUSH2 0x4BDE JUMP JUMPDEST PUSH1 0xD DUP1 SLOAD PUSH1 0x1 PUSH1 0x1 PUSH1 0xA0 SHL SUB NOT AND DUP6 OR SWAP1 SSTORE MLOAD TIMESTAMP DUP2 MSTORE LOG2 STOP JUMPDEST DUP3 CALLVALUE PUSH2 0x353 JUMPI PUSH2 0xA7D SWAP1 PUSH2 0x1C52 CALLDATASIZE PUSH2 0x4486 JUMP JUMPDEST SWAP1 PUSH0 MSTORE PUSH1 0x10 PUSH1 0x20 MSTORE DUP2 PUSH0 KECCAK256 SWAP1 PUSH0 MSTORE PUSH1 0x20 MSTORE PUSH2 0x1C6E DUP2 PUSH0 KECCAK256 PUSH2 0x45E2 JUMP JUMPDEST SWAP1 MLOAD SWAP2 DUP3 SWAP2 PUSH1 0x20 DUP4 MSTORE PUSH1 0x20 DUP4 ADD SWAP1 PUSH2 0x42D9 JUMP JUMPDEST DUP3 CALLVALUE PUSH2 0x353 JUMPI PUSH1 0x20 CALLDATASIZE PUSH1 0x3 NOT ADD SLT PUSH2 0x353 JUMPI PUSH2 0xA7D SWAP2 CALLDATALOAD PUSH0 MSTORE PUSH1 0x7 PUSH1 0x20 MSTORE PUSH2 0x1C6E DUP2 PUSH0 KECCAK256 PUSH2 0x45E2 JUMP JUMPDEST DUP3 CALLVALUE PUSH2 0x353 JUMPI PUSH0 CALLDATASIZE PUSH1 0x3 NOT ADD SLT PUSH2 0x353 JUMPI PUSH1 0x20 SWAP1 PUSH1 0x5 SLOAD SWAP1 MLOAD SWAP1 DUP2 MSTORE RETURN JUMPDEST SWAP1 POP CALLVALUE PUSH2 0x353 JUMPI PUSH1 0x20 CALLDATASIZE PUSH1 0x3 NOT ADD SLT PUSH2 0x353 JUMPI PUSH2 0x1CE3 PUSH2 0x409B JUMP JUMPDEST PUSH0 SLOAD PUSH1 0x1 PUSH1 0x1 PUSH1 0xA0 SHL SUB SWAP2 SWAP1 PUSH2 0x1CFC SWAP1 DUP4 AND CALLER EQ PUSH2 0x4681 JUMP JUMPDEST AND DUP1 PUSH0 MSTORE PUSH1 0x1 SWAP2 DUP3 PUSH1 0x20 MSTORE PUSH2 0x1D15 DUP5 PUSH0 KECCAK256 SLOAD ISZERO ISZERO PUSH2 0x46BA JUMP JUMPDEST DUP2 PUSH0 MSTORE DUP3 PUSH1 0x20 MSTORE PUSH1 0xFF DUP4 DUP6 PUSH0 KECCAK256 ADD SLOAD AND PUSH2 0x1D44 JUMPI POP SWAP2 DUP2 SWAP3 PUSH0 MSTORE DUP2 PUSH1 0x20 MSTORE PUSH0 KECCAK256 ADD SWAP1 PUSH1 0xFF NOT DUP3 SLOAD AND OR SWAP1 SSTORE PUSH0 DUP1 RETURN JUMPDEST PUSH1 0x64 SWAP1 PUSH1 0x20 DUP6 MLOAD SWAP2 PUSH3 0x461BCD PUSH1 0xE5 SHL DUP4 MSTORE DUP3 ADD MSTORE PUSH1 0x15 PUSH1 0x24 DUP3 ADD MSTORE PUSH21 0x57616C6C657420616C726561647920616374697665 PUSH1 0x58 SHL PUSH1 0x44 DUP3 ADD MSTORE REVERT JUMPDEST DUP3 CALLVALUE PUSH2 0x353 JUMPI PUSH1 0x20 SWAP1 DUP2 PUSH1 0x3 NOT CALLDATASIZE ADD SLT PUSH2 0x353 JUMPI DUP3 CALLDATALOAD SWAP2 PUSH2 0x1DA2 PUSH2 0x3A1 CALLER PUSH2 0x4D58 JUMP JUMPDEST CALLER PUSH0 MSTORE PUSH1 0x1 DUP2 MSTORE DUP2 PUSH0 KECCAK256 SLOAD SWAP4 DUP4 PUSH0 MSTORE PUSH1 0xF DUP3 MSTORE DUP3 PUSH0 KECCAK256 DUP6 PUSH0 MSTORE DUP3 MSTORE DUP3 PUSH0 KECCAK256 SWAP1 DUP2 SLOAD SWAP1 PUSH1 0x1 PUSH1 0xFF DUP4 AND PUSH2 0x1DD3 DUP2 PUSH2 0x44E4 JUMP JUMPDEST SUB PUSH2 0x1E22 JUMPI POP SWAP2 PUSH2 0x1E1A PUSH1 0xFF SWAP3 PUSH1 0x2 PUSH32 0xC5B2E1BD4433EB4E9E181CC803520513D39D918C96BDDEEBCA1224E1C750963D SWAP7 SWAP6 DUP6 NOT AND OR DUP1 SWAP2 SSTORE DUP5 MLOAD SWAP4 DUP5 SWAP2 PUSH1 0x8 SHR AND PUSH2 0x4502 JUMP JUMPDEST TIMESTAMP SWAP1 DUP3 ADD MSTORE LOG3 STOP JUMPDEST DUP5 MLOAD PUSH3 0x461BCD PUSH1 0xE5 SHL DUP2 MSTORE SWAP1 DUP2 ADD DUP5 SWAP1 MSTORE PUSH1 0x13 PUSH1 0x24 DUP3 ADD MSTORE PUSH19 0x139BC81C195B991A5B99C81C1C9BDC1BDCD85B PUSH1 0x6A SHL PUSH1 0x44 DUP3 ADD MSTORE PUSH1 0x64 SWAP1 REVERT JUMPDEST DUP3 CALLVALUE PUSH2 0x353 JUMPI PUSH0 CALLDATASIZE PUSH1 0x3 NOT ADD SLT PUSH2 0x353 JUMPI DUP1 MLOAD PUSH2 0xA7D SWAP2 PUSH2 0x1E7B DUP3 PUSH2 0x40C7 JUMP JUMPDEST PUSH1 0x5 DUP3 MSTORE PUSH5 0x352E302E3 PUSH1 0xDC SHL PUSH1 0x20 DUP4 ADD MSTORE MLOAD SWAP2 DUP3 SWAP2 PUSH1 0x20 DUP4 MSTORE PUSH1 0x20 DUP4 ADD SWAP1 PUSH2 0x4428 JUMP JUMPDEST SWAP1 POP CALLVALUE PUSH2 0x353 JUMPI PUSH2 0x1EAF CALLDATASIZE PUSH2 0x449C JUMP JUMPDEST SWAP2 PUSH2 0x1EBC PUSH2 0x3A1 CALLER PUSH2 0x4D58 JUMP JUMPDEST CALLER PUSH0 MSTORE PUSH1 0x1 PUSH1 0x20 MSTORE DUP4 PUSH0 KECCAK256 SLOAD SWAP1 DUP2 PUSH0 MSTORE PUSH1 0xF PUSH1 0x20 MSTORE DUP5 PUSH0 KECCAK256 DUP4 PUSH0 MSTORE PUSH1 0x20 MSTORE DUP5 PUSH0 KECCAK256 PUSH1 0xFF DUP2 SLOAD PUSH2 0x1EF8 PUSH1 0x2 DUP4 DUP4 AND PUSH2 0x1EF2 DUP2 PUSH2 0x44E4 JUMP JUMPDEST EQ PUSH2 0x4B2E JUMP JUMPDEST PUSH1 0x8 SHR AND SWAP2 PUSH1 0x3 DUP7 LT ISZERO PUSH2 0x925 JUMPI PUSH1 0x3 DUP4 LT ISZERO PUSH2 0x925 JUMPI DUP6 DUP4 EQ PUSH2 0x1F61 JUMPI POP PUSH32 0xB36EC3C738EF8ECD9180ADDC815304762374B76E91C2A321831D9906EA119ADE PUSH2 0x1F59 DUP6 SWAP4 PUSH2 0x449 SWAP9 PUSH2 0x1F4C DUP10 DUP9 SWAP7 PUSH2 0x4B7A JUMP JUMPDEST MLOAD SWAP2 DUP3 SWAP2 DUP10 TIMESTAMP SWAP2 DUP5 PUSH2 0x4B99 JUMP JUMPDEST SUB SWAP1 LOG3 PUSH2 0x50DF JUMP JUMPDEST PUSH1 0x64 SWAP1 PUSH1 0x20 DUP9 MLOAD SWAP2 PUSH3 0x461BCD PUSH1 0xE5 SHL DUP4 MSTORE DUP3 ADD MSTORE PUSH1 0x18 PUSH1 0x24 DUP3 ADD MSTORE PUSH32 0x416C72656164792074686973207472757374206C6576656C0000000000000000 PUSH1 0x44 DUP3 ADD MSTORE REVERT JUMPDEST DUP3 CALLVALUE PUSH2 0x353 JUMPI PUSH1 0x20 SWAP1 PUSH2 0x1FBF PUSH2 0x1FB9 CALLDATASIZE PUSH2 0x4486 JUMP JUMPDEST SWAP1 PUSH2 0x4EB3 JUMP JUMPDEST PUSH0 MSTORE PUSH1 0xE DUP3 MSTORE DUP1 PUSH0 KECCAK256 SLOAD SWAP1 MLOAD SWAP1 DUP2 MSTORE RETURN JUMPDEST DUP3 CALLVALUE PUSH2 0x353 JUMPI PUSH1 0x20 CALLDATASIZE PUSH1 0x3 NOT ADD SLT PUSH2 0x353 JUMPI DUP2 CALLDATALOAD DUP3 SLOAD DUP2 LT ISZERO PUSH2 0x353 JUMPI PUSH1 0x20 SWAP3 PUSH0 MSTORE PUSH32 0x8A35ACFBC15FF81A39AE7D344FD709F28E8600B4AA8C65C6B64BFE7FE36BD19B ADD SLOAD SWAP1 MLOAD SWAP1 DUP2 MSTORE RETURN JUMPDEST SWAP1 POP CALLVALUE PUSH2 0x353 JUMPI PUSH2 0x202C CALLDATASIZE PUSH2 0x4486 JUMP JUMPDEST SWAP1 PUSH0 MSTORE PUSH1 0xF PUSH1 0x20 MSTORE DUP3 PUSH0 KECCAK256 SWAP1 PUSH0 MSTORE PUSH1 0x20 MSTORE DUP2 PUSH0 KECCAK256 SWAP1 DUP3 MLOAD SWAP2 PUSH2 0x204D DUP4 PUSH2 0x40C7 JUMP JUMPDEST SLOAD SWAP2 PUSH1 0xFF DUP4 AND PUSH2 0x205C DUP2 PUSH2 0x44E4 JUMP JUMPDEST DUP2 MSTORE PUSH2 0x2072 PUSH1 0xFF PUSH1 0x20 DUP4 ADD SWAP5 PUSH1 0x8 SHR AND DUP5 PUSH2 0x4BD2 JUMP JUMPDEST MLOAD SWAP2 PUSH2 0x207D DUP4 PUSH2 0x44E4 JUMP JUMPDEST MLOAD SWAP1 PUSH1 0x3 DUP3 LT ISZERO PUSH2 0x925 JUMPI POP PUSH2 0x20A5 SWAP1 DUP4 MLOAD SWAP3 PUSH2 0x2099 DUP2 PUSH2 0x44E4 JUMP JUMPDEST DUP4 MSTORE PUSH1 0x20 DUP4 ADD SWAP1 PUSH2 0x4502 JUMP JUMPDEST RETURN JUMPDEST DUP3 CALLVALUE PUSH2 0x353 JUMPI DUP1 PUSH1 0x3 NOT CALLDATASIZE ADD SLT PUSH2 0x353 JUMPI DUP2 CALLDATALOAD SWAP1 PUSH1 0x24 CALLDATALOAD PUSH1 0x5 DUP2 LT ISZERO PUSH2 0x353 JUMPI PUSH2 0x20DB PUSH1 0x1 DUP1 PUSH1 0xA0 SHL SUB PUSH0 SLOAD AND CALLER EQ PUSH2 0x4681 JUMP JUMPDEST DUP3 PUSH0 MSTORE PUSH1 0x20 PUSH1 0x2 DUP2 MSTORE PUSH1 0xFF DUP4 PUSH0 KECCAK256 SLOAD AND PUSH2 0x20F4 DUP2 PUSH2 0x44E4 JUMP JUMPDEST ISZERO PUSH2 0x21B3 JUMPI DUP4 PUSH0 MSTORE PUSH1 0x2 DUP2 MSTORE PUSH1 0xFF DUP4 PUSH0 KECCAK256 SLOAD AND SWAP5 PUSH2 0x2111 DUP4 PUSH2 0x44E4 JUMP JUMPDEST PUSH2 0x211A DUP7 PUSH2 0x44E4 JUMP JUMPDEST DUP3 DUP7 EQ PUSH2 0x217C JUMPI POP DUP4 PUSH0 MSTORE PUSH1 0x2 DUP2 MSTORE PUSH2 0x2135 DUP3 DUP5 PUSH0 KECCAK256 PUSH2 0x4A71 JUMP JUMPDEST DUP3 MLOAD SWAP5 PUSH2 0x2141 DUP2 PUSH2 0x44E4 JUMP JUMPDEST DUP6 MSTORE PUSH2 0x214C DUP3 PUSH2 0x44E4 JUMP JUMPDEST DUP5 ADD MSTORE TIMESTAMP SWAP1 DUP4 ADD MSTORE PUSH32 0xF6277C6EE46649823DB9A5C531DB3112B4340C67179CAE1932BA3420DCC37CC7 PUSH1 0x60 CALLER SWAP4 LOG3 STOP JUMPDEST PUSH1 0x64 SWAP2 DUP5 MLOAD SWAP2 PUSH3 0x461BCD PUSH1 0xE5 SHL DUP4 MSTORE DUP3 ADD MSTORE PUSH1 0x13 PUSH1 0x24 DUP3 ADD MSTORE PUSH19 0x416C7265616479207468697320737461747573 PUSH1 0x68 SHL PUSH1 0x44 DUP3 ADD MSTORE REVERT JUMPDEST DUP5 PUSH1 0x64 SWAP2 DUP5 MLOAD SWAP2 PUSH3 0x461BCD PUSH1 0xE5 SHL DUP4 MSTORE DUP3 ADD MSTORE PUSH1 0x13 PUSH1 0x24 DUP3 ADD MSTORE PUSH19 0x155CD95C881B9BDD081C9959DA5CDD195C9959 PUSH1 0x6A SHL PUSH1 0x44 DUP3 ADD MSTORE REVERT JUMPDEST DUP3 CALLVALUE PUSH2 0x353 JUMPI PUSH2 0x21FA CALLDATASIZE PUSH2 0x4486 JUMP JUMPDEST SWAP2 SWAP1 PUSH0 MSTORE PUSH1 0x3 PUSH1 0x20 MSTORE DUP1 PUSH0 KECCAK256 DUP1 SLOAD DUP4 LT ISZERO PUSH2 0x353 JUMPI PUSH1 0x20 SWAP3 PUSH2 0x221B SWAP2 PUSH2 0x44BB JUMP JUMPDEST PUSH1 0x1 DUP1 PUSH1 0xA0 SHL SUB SWAP2 SLOAD SWAP1 PUSH1 0x3 SHL SHR AND SWAP1 MLOAD SWAP1 DUP2 MSTORE RETURN JUMPDEST DUP3 CALLVALUE PUSH2 0x353 JUMPI PUSH2 0x2240 CALLDATASIZE PUSH2 0x4486 JUMP JUMPDEST SWAP2 SWAP1 PUSH0 MSTORE PUSH1 0xA PUSH1 0x20 MSTORE DUP1 PUSH0 KECCAK256 DUP1 SLOAD DUP4 LT ISZERO PUSH2 0x353 JUMPI PUSH1 0x20 SWAP3 PUSH2 0x345 SWAP2 PUSH2 0x44BB JUMP JUMPDEST DUP3 CALLVALUE PUSH2 0x353 JUMPI PUSH1 0x20 DUP1 PUSH1 0x3 NOT CALLDATASIZE ADD SLT PUSH2 0x353 JUMPI PUSH1 0x80 SWAP3 CALLDATALOAD PUSH0 MSTORE PUSH1 0x7 DUP2 MSTORE DUP2 PUSH0 KECCAK256 SLOAD SWAP2 PUSH1 0x8 DUP3 MSTORE DUP1 PUSH0 KECCAK256 SLOAD SWAP1 PUSH1 0x9 DUP4 MSTORE DUP1 PUSH0 KECCAK256 SLOAD SWAP2 PUSH1 0xA DUP5 MSTORE DUP2 PUSH0 KECCAK256 SLOAD SWAP4 DUP3 MLOAD SWAP6 DUP7 MSTORE DUP6 ADD MSTORE DUP4 ADD MSTORE PUSH1 0x60 DUP3 ADD MSTORE RETURN JUMPDEST DUP3 CALLVALUE PUSH2 0x353 JUMPI PUSH1 0x20 CALLDATASIZE PUSH1 0x3 NOT ADD SLT PUSH2 0x353 JUMPI PUSH1 0x1 PUSH1 0x1 PUSH1 0xA0 SHL SUB PUSH2 0x22D2 PUSH2 0x409B JUMP JUMPDEST AND PUSH0 MSTORE PUSH1 0x1 PUSH1 0x20 MSTORE DUP1 PUSH0 KECCAK256 PUSH1 0xFF PUSH1 0x1 DUP3 SLOAD SWAP3 ADD SLOAD AND DUP3 MLOAD SWAP2 DUP3 MSTORE ISZERO ISZERO PUSH1 0x20 DUP3 ADD MSTORE RETURN JUMPDEST DUP3 CALLVALUE PUSH2 0x353 JUMPI PUSH2 0x2304 CALLDATASIZE PUSH2 0x4486 JUMP JUMPDEST SWAP2 SWAP1 PUSH0 MSTORE PUSH1 0x8 PUSH1 0x20 MSTORE DUP1 PUSH0 KECCAK256 DUP1 SLOAD DUP4 LT ISZERO PUSH2 0x353 JUMPI PUSH1 0x20 SWAP3 PUSH2 0x345 SWAP2 PUSH2 0x44BB JUMP JUMPDEST SWAP1 POP CALLVALUE PUSH2 0x353 JUMPI PUSH0 CALLDATASIZE PUSH1 0x3 NOT ADD SLT PUSH2 0x353 JUMPI PUSH32 0xF0C57E16840DF040F15088DC2F81FE391C3923BEC73E23A9662EFC9C229C6A00 SWAP1 DUP2 SLOAD PUSH1 0xFF DUP2 DUP6 SHR AND ISZERO SWAP2 PUSH1 0x1 PUSH1 0x1 PUSH1 0x40 SHL SUB DUP3 AND DUP1 ISZERO SWAP1 DUP2 PUSH2 0x243A JUMPI JUMPDEST PUSH1 0x1 EQ SWAP1 DUP2 PUSH2 0x2430 JUMPI JUMPDEST ISZERO SWAP1 DUP2 PUSH2 0x2427 JUMPI JUMPDEST POP PUSH2 0x2419 JUMPI POP PUSH8 0xFFFFFFFFFFFFFFFF NOT DUP2 AND PUSH1 0x1 OR DUP4 SSTORE DUP2 PUSH2 0x23FA JUMPI JUMPDEST POP PUSH0 DUP1 SLOAD PUSH1 0x1 PUSH1 0x1 PUSH1 0xA0 SHL SUB NOT AND CALLER OR SWAP1 SSTORE PUSH2 0x23BD JUMPI STOP JUMPDEST DUP1 SLOAD PUSH9 0xFF0000000000000000 NOT AND SWAP1 SSTORE MLOAD PUSH1 0x1 DUP2 MSTORE PUSH32 0xC7F505B2F371AE2175EE4913F4499E1F2633A7B5936321EED1CDAEB6115181D2 SWAP1 PUSH1 0x20 SWAP1 LOG1 STOP JUMPDEST PUSH9 0xFFFFFFFFFFFFFFFFFF NOT AND PUSH9 0x10000000000000001 OR DUP3 SSTORE PUSH0 PUSH2 0x23A5 JUMP JUMPDEST DUP5 MLOAD PUSH4 0xF92EE8A9 PUSH1 0xE0 SHL DUP2 MSTORE REVERT JUMPDEST SWAP1 POP ISZERO PUSH0 PUSH2 0x2388 JUMP JUMPDEST ADDRESS EXTCODESIZE ISZERO SWAP2 POP PUSH2 0x2380 JUMP JUMPDEST DUP5 SWAP2 POP PUSH2 0x2376 JUMP JUMPDEST DUP3 CALLVALUE PUSH2 0x353 JUMPI PUSH2 0x2451 CALLDATASIZE PUSH2 0x4486 JUMP JUMPDEST SWAP1 PUSH0 MSTORE PUSH1 0xF PUSH1 0x20 MSTORE DUP2 PUSH0 KECCAK256 SWAP1 PUSH0 MSTORE PUSH1 0x20 MSTORE DUP1 PUSH0 KECCAK256 SLOAD PUSH2 0x20A5 PUSH1 0xFF DUP3 AND SWAP2 DUP4 MLOAD SWAP3 PUSH2 0x247A DUP2 PUSH2 0x44E4 JUMP JUMPDEST DUP4 MSTORE PUSH1 0xFF PUSH1 0x20 DUP5 ADD SWAP2 PUSH1 0x8 SHR AND PUSH2 0x4502 JUMP JUMPDEST DUP3 CALLVALUE PUSH2 0x353 JUMPI PUSH0 CALLDATASIZE PUSH1 0x3 NOT ADD SLT PUSH2 0x353 JUMPI PUSH1 0x20 SWAP1 PUSH1 0xC SLOAD SWAP1 MLOAD SWAP1 DUP2 MSTORE RETURN JUMPDEST DUP3 CALLVALUE PUSH2 0x353 JUMPI PUSH1 0x20 SWAP2 DUP3 PUSH1 0x3 NOT CALLDATASIZE ADD SLT PUSH2 0x353 JUMPI PUSH2 0x2526 SWAP3 PUSH2 0xA7D SWAP2 CALLDATALOAD PUSH0 MSTORE PUSH1 0x7 DUP2 MSTORE PUSH2 0x2540 DUP4 PUSH0 KECCAK256 SWAP4 PUSH1 0x8 DUP4 MSTORE DUP1 PUSH0 KECCAK256 SWAP5 PUSH1 0x9 DUP5 MSTORE PUSH2 0x2533 DUP3 PUSH0 KECCAK256 SWAP5 PUSH1 0xA DUP2 MSTORE PUSH2 0x2512 PUSH2 0x250C PUSH2 0x2506 PUSH2 0x2500 DUP8 PUSH0 KECCAK256 SWAP7 PUSH2 0x45E2 JUMP JUMPDEST SWAP11 PUSH2 0x45E2 JUMP JUMPDEST SWAP8 PUSH2 0x45E2 JUMP JUMPDEST SWAP4 PUSH2 0x45E2 JUMP JUMPDEST SWAP6 DUP5 MLOAD SWAP10 DUP11 SWAP10 PUSH1 0x80 DUP12 MSTORE PUSH1 0x80 DUP12 ADD SWAP1 PUSH2 0x42D9 JUMP JUMPDEST SWAP2 DUP10 DUP4 SUB SWAP1 DUP11 ADD MSTORE PUSH2 0x42D9 JUMP JUMPDEST SWAP2 DUP7 DUP4 SUB SWAP1 DUP8 ADD MSTORE PUSH2 0x42D9 JUMP JUMPDEST SWAP1 DUP4 DUP3 SUB PUSH1 0x60 DUP6 ADD MSTORE PUSH2 0x42D9 JUMP JUMPDEST DUP3 CALLVALUE PUSH2 0x353 JUMPI PUSH1 0x20 CALLDATASIZE PUSH1 0x3 NOT ADD SLT PUSH2 0x353 JUMPI PUSH1 0x20 SWAP1 PUSH2 0x256B PUSH2 0x409B JUMP JUMPDEST PUSH0 SLOAD SWAP2 SWAP1 PUSH1 0x1 PUSH1 0x1 PUSH1 0xA0 SHL SUB DUP1 DUP5 AND SWAP2 PUSH32 0x38DF5FA0F7FEF0D515CA1F5388CB5790AC5885D5FCA8D05D9F943E563C33A4B3 SWAP2 SWAP1 PUSH2 0x25A9 CALLER DUP6 EQ PUSH2 0x4681 JUMP JUMPDEST AND SWAP5 DUP6 SWAP4 PUSH2 0x25B8 DUP6 ISZERO ISZERO PUSH2 0x4BDE JUMP JUMPDEST MLOAD TIMESTAMP DUP2 MSTORE LOG3 PUSH1 0x1 PUSH1 0x1 PUSH1 0xA0 SHL SUB NOT AND OR PUSH0 SSTORE STOP JUMPDEST SWAP1 POP CALLVALUE PUSH2 0x353 JUMPI PUSH2 0x25DC CALLDATASIZE PUSH2 0x430C JUMP JUMPDEST SWAP4 SWAP1 SWAP3 PUSH1 0x1 DUP1 PUSH1 0xA0 SHL SUB PUSH2 0x25F4 DUP2 PUSH0 SLOAD AND CALLER EQ PUSH2 0x4681 JUMP JUMPDEST PUSH2 0x25FF DUP5 ISZERO ISZERO PUSH2 0x46FE JUMP JUMPDEST DUP5 AND PUSH2 0x260C DUP2 ISZERO ISZERO PUSH2 0x4962 JUMP JUMPDEST PUSH2 0x2618 PUSH2 0xAE3 DUP8 PUSH2 0x4E3B JUMP JUMPDEST PUSH0 MSTORE PUSH1 0x1 PUSH1 0x20 SWAP2 DUP2 DUP4 MSTORE PUSH2 0x263A DUP5 PUSH0 KECCAK256 SLOAD SWAP7 PUSH2 0x2635 DUP9 ISZERO ISZERO PUSH2 0x46BA JUMP JUMPDEST PUSH2 0x4D58 JUMP JUMPDEST ISZERO PUSH2 0x28DB JUMPI DUP5 PUSH0 MSTORE PUSH1 0x7 DUP4 MSTORE DUP4 PUSH0 KECCAK256 SLOAD ISZERO DUP1 PUSH2 0x28CC JUMPI JUMPDEST ISZERO PUSH2 0x2889 JUMPI PUSH2 0x2660 DUP7 DUP7 PUSH2 0x4EB3 JUMP JUMPDEST SWAP2 DUP3 PUSH0 MSTORE PUSH1 0x6 DUP5 MSTORE DUP5 PUSH0 KECCAK256 SWAP3 PUSH2 0x2675 DUP5 PUSH2 0x4386 JUMP JUMPDEST SWAP3 PUSH1 0xFF DUP4 DUP6 MLOAD ISZERO SWAP7 ADD SLOAD AND SWAP3 DUP8 MLOAD SWAP2 PUSH2 0x268D DUP4 PUSH2 0x40C7 JUMP JUMPDEST DUP12 DUP4 MSTORE DUP8 DUP4 ADD SWAP1 DUP3 DUP3 MSTORE DUP5 PUSH0 MSTORE PUSH1 0x6 DUP10 MSTORE DUP10 PUSH0 KECCAK256 SWAP4 MLOAD DUP1 MLOAD SWAP2 PUSH1 0x1 PUSH1 0x1 PUSH1 0x40 SHL SUB DUP4 GT PUSH2 0x2876 JUMPI POP PUSH2 0x26BF DUP6 SLOAD PUSH2 0x434E JUMP JUMPDEST PUSH1 0x1F DUP2 GT PUSH2 0x2830 JUMPI JUMPDEST POP DUP10 SWAP1 PUSH1 0x1F DUP4 GT PUSH1 0x1 EQ PUSH2 0x27C9 JUMPI PUSH2 0x270F SWAP6 SWAP5 SWAP4 SWAP3 SWAP2 PUSH0 SWAP2 DUP4 PUSH2 0x27BE JUMPI JUMPDEST POP POP PUSH0 NOT PUSH1 0x3 DUP4 SWAP1 SHL SHR NOT AND SWAP1 DUP4 SHL OR DUP4 SSTORE JUMPDEST MLOAD ISZERO ISZERO SWAP2 ADD SWAP1 PUSH1 0xFF DUP1 NOT DUP4 SLOAD AND SWAP2 ISZERO ISZERO AND OR SWAP1 SSTORE JUMP JUMPDEST PUSH0 MSTORE PUSH1 0xE DUP5 MSTORE PUSH0 DUP6 DUP2 KECCAK256 SSTORE ISZERO PUSH0 EQ PUSH2 0x2791 JUMPI POP SWAP2 DUP6 SWAP2 PUSH32 0xF9D17EB1340AB78960B594FF8BED1349985B800EE21199C6D5EA4A67454593AD SWAP4 PUSH2 0x2753 PUSH0 SWAP9 DUP9 DUP9 PUSH2 0x5569 JUMP JUMPDEST PUSH2 0x276B JUMPI JUMPDEST PUSH2 0x146B DUP3 MLOAD SWAP4 DUP4 DUP6 SWAP5 DUP6 MSTORE DUP5 ADD SWAP1 PUSH2 0x4428 JUMP JUMPDEST DUP6 DUP8 MSTORE PUSH1 0xB DUP2 MSTORE PUSH2 0x277E DUP6 DUP4 DUP10 KECCAK256 PUSH2 0x4AD0 JUMP JUMPDEST PUSH2 0x2789 PUSH1 0xC SLOAD PUSH2 0x4B0C JUMP JUMPDEST PUSH1 0xC SSTORE PUSH2 0x2758 JUMP JUMPDEST SWAP6 SWAP5 SWAP4 SWAP3 POP POP DUP5 MLOAD DUP2 DUP7 ADD KECCAK256 SWAP1 DUP5 MLOAD SWAP1 DUP6 ADD KECCAK256 SUB PUSH2 0x27AB JUMPI STOP JUMPDEST PUSH2 0x27B9 PUSH2 0x449 SWAP5 DUP4 DUP4 PUSH2 0x5034 JUMP JUMPDEST PUSH2 0x5569 JUMP JUMPDEST ADD MLOAD SWAP1 POP PUSH0 DUP1 PUSH2 0x26E6 JUMP JUMPDEST SWAP1 PUSH1 0x1F NOT DUP4 AND SWAP2 DUP7 PUSH0 MSTORE DUP12 PUSH0 KECCAK256 SWAP3 PUSH0 JUMPDEST DUP14 DUP3 DUP3 LT PUSH2 0x281C JUMPI POP POP SWAP2 DUP7 SWAP6 SWAP5 SWAP3 SWAP2 DUP4 PUSH2 0x270F SWAP10 SWAP9 SWAP6 SWAP4 LT PUSH2 0x2804 JUMPI JUMPDEST POP POP POP DUP2 SHL ADD DUP4 SSTORE PUSH2 0x26F9 JUMP JUMPDEST ADD MLOAD PUSH0 NOT PUSH1 0xF8 DUP5 PUSH1 0x3 SHL AND SHR NOT AND SWAP1 SSTORE PUSH0 DUP1 DUP1 PUSH2 0x27F7 JUMP JUMPDEST DUP4 DUP6 ADD MLOAD DUP7 SSTORE SWAP5 DUP9 ADD SWAP5 SWAP4 DUP5 ADD SWAP4 ADD PUSH2 0x27D9 JUMP JUMPDEST DUP6 PUSH0 MSTORE DUP11 PUSH0 KECCAK256 PUSH1 0x1F DUP5 ADD PUSH1 0x5 SHR DUP2 ADD SWAP2 DUP13 DUP6 LT PUSH2 0x286C JUMPI JUMPDEST PUSH1 0x1F ADD PUSH1 0x5 SHR ADD SWAP1 DUP6 SWAP1 JUMPDEST DUP3 DUP2 LT PUSH2 0x2861 JUMPI POP POP PUSH2 0x26C8 JUMP JUMPDEST PUSH0 DUP2 SSTORE ADD DUP6 SWAP1 PUSH2 0x2853 JUMP JUMPDEST SWAP1 SWAP2 POP DUP2 SWAP1 PUSH2 0x2848 JUMP JUMPDEST PUSH1 0x41 SWAP1 PUSH4 0x4E487B71 PUSH1 0xE0 SHL PUSH0 MSTORE MSTORE PUSH1 0x24 PUSH0 REVERT JUMPDEST DUP4 MLOAD PUSH3 0x461BCD PUSH1 0xE5 SHL DUP2 MSTORE SWAP1 DUP2 ADD DUP4 SWAP1 MSTORE PUSH1 0x1A PUSH1 0x24 DUP3 ADD MSTORE PUSH32 0x5265636F726420616C726561647920696E697469616C697A6564000000000000 PUSH1 0x44 DUP3 ADD MSTORE PUSH1 0x64 SWAP1 REVERT JUMPDEST POP PUSH1 0x8 DUP4 MSTORE DUP4 PUSH0 KECCAK256 SLOAD ISZERO PUSH2 0x2651 JUMP JUMPDEST DUP4 MLOAD PUSH3 0x461BCD PUSH1 0xE5 SHL DUP2 MSTORE SWAP1 DUP2 ADD DUP4 SWAP1 MSTORE PUSH1 0x18 PUSH1 0x24 DUP3 ADD MSTORE PUSH32 0x4D75737420626520616E20616374697665206D656D6265720000000000000000 PUSH1 0x44 DUP3 ADD MSTORE PUSH1 0x64 SWAP1 REVERT JUMPDEST DUP3 CALLVALUE PUSH2 0x353 JUMPI DUP1 PUSH1 0x3 NOT CALLDATASIZE ADD SLT PUSH2 0x353 JUMPI PUSH1 0x1 PUSH1 0x1 PUSH1 0x40 SHL SUB SWAP1 DUP3 CALLDATALOAD DUP3 DUP2 GT PUSH2 0x353 JUMPI CALLDATASIZE PUSH1 0x23 DUP3 ADD SLT ISZERO PUSH2 0x353 JUMPI DUP1 DUP5 ADD CALLDATALOAD SWAP3 DUP4 GT PUSH2 0x353 JUMPI PUSH1 0x5 PUSH1 0x24 CALLDATASIZE DUP6 DUP4 SHL DUP5 ADD DUP3 ADD GT PUSH2 0x353 JUMPI PUSH0 SLOAD PUSH1 0x1 PUSH1 0x1 PUSH1 0xA0 SHL SUB SWAP7 PUSH1 0x24 CALLDATALOAD SWAP6 SWAP2 PUSH2 0x2985 SWAP1 DUP10 AND CALLER EQ PUSH2 0x4681 JUMP JUMPDEST DUP7 ISZERO PUSH2 0x2ADF JUMPI POP PUSH2 0x2997 DUP6 ISZERO ISZERO PUSH2 0x49A7 JUMP JUMPDEST DUP5 PUSH0 MSTORE PUSH1 0x2 SWAP3 PUSH1 0x20 SWAP3 PUSH1 0x2 DUP5 MSTORE PUSH1 0xFF DUP4 PUSH0 KECCAK256 SLOAD AND PUSH2 0x29B4 DUP2 PUSH2 0x44E4 JUMP JUMPDEST ISZERO SWAP6 PUSH0 JUMPDEST DUP10 DUP2 LT PUSH2 0x29C1 JUMPI STOP JUMPDEST DUP3 DUP2 DUP6 SHL DUP4 ADD ADD CALLDATALOAD SWAP1 DUP12 DUP3 AND SWAP2 DUP3 DUP2 SUB PUSH2 0x353 JUMPI DUP3 PUSH2 0x2A47 DUP13 SWAP3 PUSH2 0x29E8 PUSH1 0x1 SWAP7 ISZERO ISZERO PUSH2 0x4962 JUMP JUMPDEST DUP3 PUSH0 MSTORE PUSH2 0x2A38 DUP7 DUP1 DUP14 MSTORE PUSH2 0x29FF DUP13 PUSH0 KECCAK256 SLOAD ISZERO PUSH2 0x49EA JUMP JUMPDEST DUP12 MLOAD SWAP1 PUSH2 0x2A0B DUP3 PUSH2 0x40C7 JUMP JUMPDEST DUP7 DUP3 MSTORE DUP14 DUP2 DUP2 DUP5 ADD SWAP2 DUP2 DUP4 MSTORE DUP9 PUSH0 MSTORE MSTORE DUP14 PUSH0 KECCAK256 SWAP3 MLOAD DUP4 SSTORE MLOAD ISZERO ISZERO SWAP2 ADD SWAP1 PUSH1 0xFF DUP1 NOT DUP4 SLOAD AND SWAP2 ISZERO ISZERO AND OR SWAP1 SSTORE JUMP JUMPDEST DUP4 PUSH0 MSTORE PUSH1 0x3 DUP12 MSTORE DUP10 PUSH0 KECCAK256 PUSH2 0x4A36 JUMP JUMPDEST DUP3 ISZERO DUP1 PUSH2 0x2AD8 JUMPI JUMPDEST ISZERO PUSH2 0x2AAB JUMPI DUP2 PUSH0 MSTORE DUP10 DUP10 MSTORE DUP8 PUSH0 KECCAK256 DUP11 PUSH1 0xFF NOT DUP3 SLOAD AND OR SWAP1 SSTORE PUSH2 0x2A70 DUP3 PUSH2 0x4A89 JUMP JUMPDEST PUSH2 0x2A7A DUP8 SLOAD PUSH2 0x4B0C JUMP JUMPDEST DUP8 SSTORE PUSH32 0x39D132591EE0696DE49AB564E4A90E430C006561917DB731A2A614DD2D245591 DUP10 DUP10 MLOAD TIMESTAMP DUP2 MSTORE LOG3 JUMPDEST ADD PUSH2 0x29B8 JUMP JUMPDEST PUSH32 0x1CC138F50384BE7770A8E4A34EECAA0D0C718BFAA1641AF49DB32532E4A5B910 DUP10 DUP10 MLOAD TIMESTAMP DUP2 MSTORE LOG3 PUSH2 0x2AA5 JUMP JUMPDEST POP DUP11 PUSH2 0x2A4F JUMP JUMPDEST PUSH1 0x20 PUSH1 0x64 SWAP3 MLOAD SWAP2 PUSH3 0x461BCD PUSH1 0xE5 SHL DUP4 MSTORE DUP3 ADD MSTORE PUSH1 0x13 PUSH1 0x24 DUP3 ADD MSTORE PUSH19 0x139BC81DD85B1B195D1CC81C1C9BDD9A591959 PUSH1 0x6A SHL PUSH1 0x44 DUP3 ADD MSTORE REVERT JUMPDEST DUP3 CALLVALUE PUSH2 0x353 JUMPI PUSH1 0x20 CALLDATASIZE PUSH1 0x3 NOT ADD SLT PUSH2 0x353 JUMPI PUSH2 0xA7D SWAP2 CALLDATALOAD PUSH0 MSTORE PUSH1 0xB PUSH1 0x20 MSTORE PUSH2 0x1C6E DUP2 PUSH0 KECCAK256 PUSH2 0x45E2 JUMP JUMPDEST DUP3 CALLVALUE PUSH2 0x353 JUMPI PUSH1 0x20 SWAP1 PUSH2 0x1905 PUSH2 0x2B55 CALLDATASIZE PUSH2 0x4486 JUMP JUMPDEST SWAP1 PUSH2 0x4F45 JUMP JUMPDEST DUP3 CALLVALUE PUSH2 0x353 JUMPI PUSH2 0x2B6A CALLDATASIZE PUSH2 0x4486 JUMP JUMPDEST SWAP2 SWAP1 PUSH0 MSTORE PUSH1 0x7 PUSH1 0x20 MSTORE DUP1 PUSH0 KECCAK256 DUP1 SLOAD DUP4 LT ISZERO PUSH2 0x353 JUMPI PUSH1 0x20 SWAP3 PUSH2 0x345 SWAP2 PUSH2 0x44BB JUMP JUMPDEST DUP3 CALLVALUE PUSH2 0x353 JUMPI PUSH2 0x2B9A CALLDATASIZE PUSH2 0x4486 JUMP JUMPDEST SWAP1 PUSH0 MSTORE PUSH1 0xF PUSH1 0x20 MSTORE DUP2 PUSH0 KECCAK256 SWAP1 PUSH0 MSTORE PUSH1 0x20 MSTORE DUP1 PUSH0 KECCAK256 SWAP1 PUSH1 0x2 DUP2 MLOAD SWAP3 PUSH2 0x2BBD DUP5 PUSH2 0x40C7 JUMP JUMPDEST SLOAD SWAP3 PUSH1 0xFF DUP5 AND PUSH2 0x2BCC DUP2 PUSH2 0x44E4 JUMP JUMPDEST DUP2 MSTORE PUSH2 0x2BE2 PUSH1 0xFF PUSH1 0x20 DUP4 ADD SWAP6 PUSH1 0x8 SHR AND DUP6 PUSH2 0x4BD2 JUMP JUMPDEST MLOAD PUSH2 0x2BEC DUP2 PUSH2 0x44E4 JUMP JUMPDEST PUSH2 0x2BF5 DUP2 PUSH2 0x44E4 JUMP JUMPDEST EQ SWAP2 DUP3 PUSH2 0x2C09 JUMPI JUMPDEST PUSH1 0x20 DUP4 DUP4 MLOAD SWAP1 ISZERO ISZERO DUP2 MSTORE RETURN JUMPDEST SWAP1 SWAP2 POP MLOAD SWAP2 PUSH1 0x3 DUP4 LT ISZERO PUSH2 0x925 JUMPI POP PUSH1 0x2 PUSH1 0x20 SWAP3 EQ SWAP1 DUP4 PUSH2 0x2BFD JUMP JUMPDEST DUP3 CALLVALUE PUSH2 0x353 JUMPI PUSH0 CALLDATASIZE PUSH1 0x3 NOT ADD SLT PUSH2 0x353 JUMPI PUSH32 0x0 PUSH1 0x1 PUSH1 0x1 PUSH1 0xA0 SHL SUB AND ADDRESS SUB PUSH2 0x2C8F JUMPI PUSH1 0x20 SWAP1 MLOAD PUSH32 0x360894A13BA1A3210667C828492DB98DCA3E2076CC3735A920A3CA505D382BBC DUP2 MSTORE RETURN JUMPDEST MLOAD PUSH4 0x703E46DD PUSH1 0xE1 SHL DUP2 MSTORE REVERT JUMPDEST DUP3 CALLVALUE PUSH2 0x353 JUMPI PUSH2 0x2CAB CALLDATASIZE PUSH2 0x420C JUMP JUMPDEST SWAP1 PUSH2 0x2CB8 PUSH2 0x3A1 CALLER PUSH2 0x4D58 JUMP JUMPDEST PUSH2 0x2CC5 DUP4 MLOAD DUP4 MLOAD EQ PUSH2 0x4552 JUMP JUMPDEST CALLER PUSH0 MSTORE PUSH1 0x1 SWAP4 PUSH1 0x20 SWAP2 DUP6 DUP4 MSTORE DUP2 PUSH0 KECCAK256 SLOAD SWAP1 PUSH1 0x1 DUP1 PUSH1 0xA0 SHL SUB AND PUSH0 MSTORE DUP2 PUSH0 KECCAK256 SLOAD SWAP1 PUSH2 0x2CF0 DUP3 ISZERO ISZERO PUSH2 0x4596 JUMP JUMPDEST DUP7 PUSH0 SWAP7 DUP4 DUP4 EQ SWAP2 JUMPDEST PUSH2 0x2CFE JUMPI STOP JUMPDEST DUP1 MLOAD DUP9 LT ISZERO PUSH2 0x449 JUMPI DUP9 DUP9 PUSH2 0x2D14 DUP3 SWAP11 DUP5 PUSH2 0x4BBE JUMP JUMPDEST MLOAD PUSH2 0x2D1F DUP3 DUP12 PUSH2 0x4BBE JUMP JUMPDEST MLOAD PUSH2 0x2D29 DUP2 PUSH2 0x4E3B JUMP JUMPDEST ISZERO PUSH2 0x3021 JUMPI PUSH2 0x2D38 DUP8 DUP4 PUSH2 0x4EB3 JUMP JUMPDEST PUSH0 MSTORE PUSH1 0x6 DUP1 DUP12 MSTORE PUSH1 0xFF DUP1 DUP7 DUP13 PUSH0 KECCAK256 ADD SLOAD AND ISZERO PUSH2 0x3018 JUMPI PUSH2 0x2D58 DUP11 DUP6 PUSH2 0x4EB3 JUMP JUMPDEST PUSH0 MSTORE DUP2 DUP13 MSTORE DUP6 DUP12 PUSH0 KECCAK256 ADD SLOAD AND ISZERO PUSH2 0x3010 JUMPI PUSH2 0x2D73 DUP10 DUP5 PUSH2 0x4EB3 JUMP JUMPDEST PUSH0 MSTORE DUP11 MSTORE PUSH2 0x2D82 DUP10 PUSH0 KECCAK256 PUSH2 0x4386 JUMP JUMPDEST SWAP1 DUP9 DUP9 DUP13 DUP5 MLOAD DUP2 DUP7 ADD KECCAK256 DUP14 DUP6 MLOAD DUP4 DUP8 ADD KECCAK256 SWAP1 DUP2 DUP4 EQ PUSH2 0x2E94 JUMPI PUSH2 0x2DA3 PUSH2 0x4830 JUMP JUMPDEST DUP5 DUP2 MLOAD SWAP2 ADD KECCAK256 DUP4 EQ PUSH2 0x2E94 JUMPI DUP9 PUSH0 MSTORE PUSH1 0x7 DUP5 MSTORE PUSH0 KECCAK256 SLOAD ISZERO SWAP2 DUP3 ISZERO PUSH2 0x2DCF PUSH2 0x2DC8 PUSH2 0x4830 JUMP JUMPDEST DUP8 DUP13 PUSH2 0x4EE7 JUMP JUMPDEST SWAP1 PUSH2 0x2DE2 PUSH2 0x2DDB PUSH2 0x4851 JUMP JUMPDEST DUP9 DUP14 PUSH2 0x4EE7 JUMP JUMPDEST SWAP1 PUSH2 0x2DF6 DUP13 DUP10 PUSH2 0x2DF0 PUSH2 0x487A JUMP JUMPDEST SWAP2 PUSH2 0x4EE7 JUMP JUMPDEST PUSH2 0x2DFE PUSH2 0x4830 JUMP JUMPDEST DUP1 MLOAD SWAP1 DUP10 ADD KECCAK256 DUP7 SUB PUSH2 0x2EB6 JUMPI POP ISZERO PUSH2 0x2EA2 JUMPI POP ISZERO PUSH2 0x2E94 JUMPI JUMPDEST PUSH2 0x2E1F PUSH2 0x4851 JUMP JUMPDEST DUP5 DUP2 MLOAD SWAP2 ADD KECCAK256 EQ SWAP3 DUP4 PUSH2 0x2E7A JUMPI JUMPDEST POP POP DUP2 PUSH2 0x2E72 JUMPI JUMPDEST POP DUP1 PUSH2 0x2E5A JUMPI JUMPDEST PUSH2 0x2E50 JUMPI PUSH2 0x2E49 SWAP5 PUSH2 0x4FCF JUMP JUMPDEST ADD SWAP8 PUSH2 0x2CF8 JUMP JUMPDEST POP POP POP POP POP PUSH2 0x2E49 JUMP JUMPDEST POP POP POP DUP3 PUSH0 MSTORE PUSH1 0x8 DUP12 MSTORE DUP9 DUP9 DUP7 DUP13 PUSH0 KECCAK256 SLOAD GT ISZERO PUSH2 0x2E3C JUMP JUMPDEST SWAP1 POP PUSH0 PUSH2 0x2E35 JUMP JUMPDEST SWAP1 SWAP2 SWAP3 POP PUSH2 0x2E86 PUSH2 0x489C JUMP JUMPDEST DUP1 MLOAD SWAP2 ADD KECCAK256 EQ SWAP1 PUSH0 DUP16 PUSH2 0x2E2D JUMP JUMPDEST POP POP POP POP POP POP POP POP POP PUSH2 0x2E49 JUMP JUMPDEST SWAP1 POP PUSH2 0x2E17 JUMPI POP POP POP POP POP POP POP POP POP PUSH2 0x2E49 JUMP JUMPDEST SWAP2 SWAP3 SWAP1 PUSH2 0x2EC1 PUSH2 0x4851 JUMP JUMPDEST DUP1 MLOAD SWAP1 DUP10 ADD KECCAK256 DUP7 SUB PUSH2 0x2EEC JUMPI POP SWAP1 POP ISZERO SWAP1 DUP2 PUSH2 0x2EE3 JUMPI JUMPDEST POP PUSH2 0x2E94 JUMPI JUMPDEST PUSH2 0x2E17 JUMP JUMPDEST SWAP1 POP ISZERO PUSH0 PUSH2 0x2ED8 JUMP JUMPDEST PUSH2 0x2EF4 PUSH2 0x487A JUMP JUMPDEST DUP1 MLOAD SWAP1 DUP10 ADD KECCAK256 DUP7 SUB PUSH2 0x2F7F JUMPI ISZERO PUSH2 0x2F4B JUMPI ISZERO SWAP2 DUP3 PUSH2 0x2F33 JUMPI JUMPDEST POP DUP2 PUSH2 0x2F1D JUMPI POP PUSH2 0x2E94 JUMPI PUSH2 0x2E17 JUMP JUMPDEST SWAP1 POP DUP1 PUSH2 0x2F2C JUMPI JUMPDEST ISZERO PUSH0 PUSH2 0x2ED8 JUMP JUMPDEST POP DUP13 PUSH2 0x2F25 JUMP JUMPDEST SWAP1 SWAP2 POP DUP1 PUSH2 0x2F44 JUMPI JUMPDEST ISZERO SWAP1 PUSH0 PUSH2 0x2F0D JUMP JUMPDEST POP DUP14 PUSH2 0x2F3C JUMP JUMPDEST POP SWAP1 ISZERO SWAP1 DUP2 PUSH2 0x2F69 JUMPI JUMPDEST POP ISZERO PUSH2 0x2EDE JUMPI POP POP POP POP POP POP POP POP POP PUSH2 0x2E49 JUMP JUMPDEST SWAP1 POP DUP1 PUSH2 0x2F78 JUMPI JUMPDEST ISZERO PUSH0 PUSH2 0x2F55 JUMP JUMPDEST POP DUP13 PUSH2 0x2F71 JUMP JUMPDEST PUSH2 0x2F87 PUSH2 0x489C JUMP JUMPDEST DUP9 DUP2 MLOAD SWAP2 ADD KECCAK256 DUP7 EQ PUSH2 0x2F9D JUMPI JUMPDEST POP POP POP POP PUSH2 0x2E17 JUMP JUMPDEST ISZERO PUSH2 0x2FFC JUMPI ISZERO SWAP2 DUP3 PUSH2 0x2FE4 JUMPI JUMPDEST POP DUP2 PUSH2 0x2FCE JUMPI JUMPDEST POP PUSH2 0x2E94 JUMPI JUMPDEST PUSH2 0x2FC1 DUP7 DUP11 PUSH2 0x4F45 JUMP JUMPDEST PUSH2 0x2E94 JUMPI PUSH0 DUP1 DUP1 DUP1 PUSH2 0x2F94 JUMP JUMPDEST SWAP1 POP DUP1 PUSH2 0x2FDD JUMPI JUMPDEST ISZERO PUSH0 PUSH2 0x2FB1 JUMP JUMPDEST POP DUP13 PUSH2 0x2FD6 JUMP JUMPDEST SWAP1 SWAP2 POP DUP1 PUSH2 0x2FF5 JUMPI JUMPDEST ISZERO SWAP1 PUSH0 PUSH2 0x2FAA JUMP JUMPDEST POP DUP14 PUSH2 0x2FED JUMP JUMPDEST POP POP PUSH2 0x2FB7 JUMPI POP POP POP POP POP POP POP POP POP PUSH2 0x2E49 JUMP JUMPDEST POP POP POP PUSH2 0x2E49 JUMP JUMPDEST POP POP POP POP PUSH2 0x2E49 JUMP JUMPDEST POP POP PUSH2 0x2E49 JUMP JUMPDEST SWAP1 POP DUP2 PUSH1 0x3 NOT CALLDATASIZE ADD SLT PUSH2 0x353 JUMPI PUSH2 0x303D PUSH2 0x409B JUMP JUMPDEST SWAP2 PUSH1 0x24 CALLDATALOAD PUSH1 0x1 PUSH1 0x1 PUSH1 0x40 SHL SUB DUP2 GT PUSH2 0x353 JUMPI CALLDATASIZE PUSH1 0x23 DUP3 ADD SLT ISZERO PUSH2 0x353 JUMPI PUSH2 0x306D SWAP1 CALLDATASIZE SWAP1 PUSH1 0x24 DUP2 DUP7 ADD CALLDATALOAD SWAP2 ADD PUSH2 0x41A9 JUMP JUMPDEST SWAP1 PUSH1 0x1 PUSH1 0x1 PUSH1 0xA0 SHL SUB PUSH32 0x0 DUP2 AND ADDRESS DUP2 EQ SWAP1 DUP2 ISZERO PUSH2 0x31F7 JUMPI JUMPDEST POP PUSH2 0x31E7 JUMPI PUSH2 0x30B7 DUP2 PUSH0 SLOAD AND CALLER EQ PUSH2 0x4681 JUMP JUMPDEST DUP5 AND SWAP2 DUP2 MLOAD SWAP5 PUSH4 0x52D1902D PUSH1 0xE0 SHL DUP7 MSTORE PUSH1 0x20 DUP7 DUP7 DUP2 DUP8 GAS STATICCALL PUSH0 SWAP7 DUP2 PUSH2 0x31B3 JUMPI JUMPDEST POP PUSH2 0x30F3 JUMPI POP POP MLOAD PUSH4 0x4C9C8CE3 PUSH1 0xE0 SHL DUP2 MSTORE SWAP2 DUP3 ADD MSTORE PUSH1 0x24 SWAP2 POP REVERT JUMPDEST DUP4 DUP6 SWAP4 DUP8 PUSH32 0x360894A13BA1A3210667C828492DB98DCA3E2076CC3735A920A3CA505D382BBC SWAP1 DUP2 DUP2 SUB PUSH2 0x319D JUMPI POP DUP4 EXTCODESIZE ISZERO PUSH2 0x3186 JUMPI DUP1 SLOAD PUSH1 0x1 PUSH1 0x1 PUSH1 0xA0 SHL SUB NOT AND DUP4 OR SWAP1 SSTORE MLOAD SWAP1 PUSH32 0xBC7CD75A20EE27FD9ADEBAB32041F755214DBC6BFFA90CC0225B39DA2E5C2D3B PUSH0 DUP1 LOG2 DUP3 MLOAD ISZERO PUSH2 0x3170 JUMPI POP PUSH2 0x449 SWAP3 POP PUSH2 0x5614 JUMP JUMPDEST SWAP2 POP POP CALLVALUE PUSH2 0x317A JUMPI STOP JUMPDEST PUSH4 0xB398979F PUSH1 0xE0 SHL DUP2 MSTORE REVERT JUMPDEST DUP2 MLOAD PUSH4 0x4C9C8CE3 PUSH1 0xE0 SHL DUP2 MSTORE DUP1 DUP8 ADD DUP5 SWAP1 MSTORE PUSH1 0x24 SWAP1 REVERT JUMPDEST DUP7 PUSH1 0x24 SWAP2 DUP5 MLOAD SWAP2 PUSH4 0x2A875269 PUSH1 0xE2 SHL DUP4 MSTORE DUP3 ADD MSTORE REVERT JUMPDEST SWAP1 SWAP7 POP PUSH1 0x20 DUP2 RETURNDATASIZE PUSH1 0x20 GT PUSH2 0x31DF JUMPI JUMPDEST DUP2 PUSH2 0x31CF PUSH1 0x20 SWAP4 DUP4 PUSH2 0x4111 JUMP JUMPDEST DUP2 ADD SUB SLT PUSH2 0x353 JUMPI MLOAD SWAP6 PUSH0 PUSH2 0x30D7 JUMP JUMPDEST RETURNDATASIZE SWAP2 POP PUSH2 0x31C2 JUMP JUMPDEST DUP2 MLOAD PUSH4 0x703E46DD PUSH1 0xE1 SHL DUP2 MSTORE DUP5 SWAP1 REVERT JUMPDEST SWAP1 POP DUP2 PUSH32 0x360894A13BA1A3210667C828492DB98DCA3E2076CC3735A920A3CA505D382BBC SLOAD AND EQ ISZERO PUSH0 PUSH2 0x30A4 JUMP JUMPDEST SWAP1 POP CALLVALUE PUSH2 0x353 JUMPI PUSH2 0x3235 CALLDATASIZE PUSH2 0x449C JUMP JUMPDEST SWAP2 SWAP1 PUSH2 0x3243 PUSH2 0x3A1 CALLER PUSH2 0x4D58 JUMP JUMPDEST CALLER PUSH0 MSTORE PUSH1 0x1 PUSH1 0x20 MSTORE DUP4 PUSH0 KECCAK256 SLOAD SWAP2 DUP2 PUSH0 MSTORE PUSH1 0xF PUSH1 0x20 MSTORE DUP5 PUSH0 KECCAK256 DUP4 PUSH0 MSTORE PUSH1 0x20 MSTORE DUP5 PUSH0 KECCAK256 DUP1 SLOAD PUSH2 0x3278 PUSH1 0x2 PUSH1 0xFF DUP4 AND PUSH2 0x1EF2 DUP2 PUSH2 0x44E4 JUMP JUMPDEST PUSH1 0x3 DUP7 LT ISZERO PUSH2 0x3321 JUMPI PUSH1 0x8 SHR PUSH1 0xFF AND SWAP2 PUSH1 0x3 DUP4 LT ISZERO PUSH2 0x925 JUMPI DUP3 PUSH1 0xFF DUP8 AND LT ISZERO PUSH2 0x32D2 JUMPI POP PUSH32 0xB36EC3C738EF8ECD9180ADDC815304762374B76E91C2A321831D9906EA119ADE PUSH2 0x1F59 DUP6 SWAP4 PUSH2 0x449 SWAP9 PUSH2 0x1F4C DUP10 DUP9 SWAP7 PUSH2 0x4B7A JUMP JUMPDEST PUSH1 0x84 SWAP1 PUSH1 0x20 DUP9 MLOAD SWAP2 PUSH3 0x461BCD PUSH1 0xE5 SHL DUP4 MSTORE DUP3 ADD MSTORE PUSH1 0x23 PUSH1 0x24 DUP3 ADD MSTORE PUSH32 0x43616E206F6E6C7920646F776E677261646520746F2061206C6F776572206C65 PUSH1 0x44 DUP3 ADD MSTORE PUSH3 0x1D995B PUSH1 0xEA SHL PUSH1 0x64 DUP3 ADD MSTORE REVERT JUMPDEST PUSH1 0x21 DUP4 PUSH4 0x4E487B71 PUSH1 0xE0 SHL PUSH0 MSTORE MSTORE PUSH1 0x24 PUSH0 REVERT JUMPDEST DUP3 CALLVALUE PUSH2 0x353 JUMPI DUP1 PUSH1 0x3 NOT CALLDATASIZE ADD SLT PUSH2 0x353 JUMPI PUSH2 0x334D PUSH2 0x409B JUMP JUMPDEST PUSH1 0x24 CALLDATALOAD SWAP2 PUSH1 0x1 DUP1 PUSH1 0xA0 SHL SUB PUSH2 0x3366 DUP2 PUSH0 SLOAD AND CALLER EQ PUSH2 0x4681 JUMP JUMPDEST DUP3 AND SWAP2 PUSH2 0x3374 DUP4 ISZERO ISZERO PUSH2 0x4962 JUMP JUMPDEST PUSH2 0x337F DUP5 ISZERO ISZERO PUSH2 0x49A7 JUMP JUMPDEST DUP3 PUSH0 MSTORE PUSH2 0x33E4 PUSH1 0x20 SWAP2 PUSH1 0x1 DUP4 MSTORE PUSH2 0x3399 DUP5 PUSH0 KECCAK256 SLOAD ISZERO PUSH2 0x49EA JUMP JUMPDEST PUSH2 0x33D5 DUP5 MLOAD PUSH2 0x33A7 DUP2 PUSH2 0x40C7 JUMP JUMPDEST DUP8 DUP2 MSTORE PUSH1 0x1 DUP6 DUP3 ADD DUP2 DUP2 MSTORE DUP9 PUSH0 MSTORE DUP2 DUP8 MSTORE DUP8 PUSH0 KECCAK256 SWAP3 MLOAD DUP4 SSTORE MLOAD ISZERO ISZERO SWAP2 ADD SWAP1 PUSH1 0xFF DUP1 NOT DUP4 SLOAD AND SWAP2 ISZERO ISZERO AND OR SWAP1 SSTORE JUMP JUMPDEST DUP6 PUSH0 MSTORE PUSH1 0x3 DUP4 MSTORE DUP4 PUSH0 KECCAK256 PUSH2 0x4A36 JUMP JUMPDEST DUP4 PUSH0 MSTORE PUSH1 0x2 DUP2 MSTORE PUSH1 0xFF DUP3 PUSH0 KECCAK256 SLOAD AND PUSH2 0x33FB DUP2 PUSH2 0x44E4 JUMP JUMPDEST PUSH2 0x3454 JUMPI PUSH32 0x39D132591EE0696DE49AB564E4A90E430C006561917DB731A2A614DD2D245591 SWAP2 DUP5 PUSH0 MSTORE PUSH1 0x2 DUP3 MSTORE DUP1 PUSH0 KECCAK256 PUSH1 0x2 PUSH1 0xFF NOT DUP3 SLOAD AND OR SWAP1 SSTORE PUSH2 0x343F DUP6 PUSH2 0x4A89 JUMP JUMPDEST PUSH2 0x344A PUSH1 0x5 SLOAD PUSH2 0x4B0C JUMP JUMPDEST PUSH1 0x5 SSTORE MLOAD TIMESTAMP DUP2 MSTORE LOG3 STOP JUMPDEST PUSH32 0x1CC138F50384BE7770A8E4A34EECAA0D0C718BFAA1641AF49DB32532E4A5B910 SWAP2 MLOAD TIMESTAMP DUP2 MSTORE LOG3 STOP JUMPDEST DUP3 CALLVALUE PUSH2 0x353 JUMPI PUSH1 0x20 CALLDATASIZE PUSH1 0x3 NOT ADD SLT PUSH2 0x353 JUMPI PUSH1 0x20 SWAP1 PUSH2 0x1905 PUSH2 0x2635 PUSH2 0x409B JUMP JUMPDEST DUP3 CALLVALUE PUSH2 0x353 JUMPI PUSH1 0x20 SWAP1 PUSH2 0x34B2 PUSH2 0x1FB9 CALLDATASIZE PUSH2 0x4486 JUMP JUMPDEST PUSH0 MSTORE PUSH1 0x6 DUP3 MSTORE PUSH2 0xA7D DUP2 PUSH0 KECCAK256 SWAP2 DUP1 MLOAD PUSH2 0x34CA DUP2 PUSH2 0x40C7 JUMP JUMPDEST PUSH1 0xFF PUSH1 0x1 PUSH2 0x34D7 DUP7 PUSH2 0x4386 JUMP JUMPDEST SWAP6 DUP7 DUP5 MSTORE ADD SLOAD AND ISZERO ISZERO SWAP5 DUP6 SWAP2 ADD MSTORE MLOAD SWAP3 DUP4 SWAP3 DUP4 PUSH2 0x4466 JUMP JUMPDEST DUP3 CALLVALUE PUSH2 0x353 JUMPI DUP1 PUSH1 0x3 NOT CALLDATASIZE ADD SLT PUSH2 0x353 JUMPI PUSH2 0x3516 PUSH2 0xA7D SWAP3 PUSH2 0x350F PUSH2 0x40B1 JUMP JUMPDEST SWAP1 CALLDATALOAD PUSH2 0x48EA JUMP JUMPDEST SWAP3 SWAP1 SWAP2 MLOAD SWAP3 DUP4 SWAP3 DUP4 PUSH2 0x4466 JUMP JUMPDEST DUP3 CALLVALUE PUSH2 0x353 JUMPI PUSH1 0x20 CALLDATASIZE PUSH1 0x3 NOT ADD SLT PUSH2 0x353 JUMPI PUSH2 0xA7D SWAP2 CALLDATALOAD PUSH0 MSTORE PUSH1 0x8 PUSH1 0x20 MSTORE PUSH2 0x1C6E DUP2 PUSH0 KECCAK256 PUSH2 0x45E2 JUMP JUMPDEST DUP3 CALLVALUE PUSH2 0x353 JUMPI PUSH1 0x20 SWAP1 PUSH2 0x1905 PUSH2 0x3561 CALLDATASIZE PUSH2 0x430C JUMP JUMPDEST SWAP2 PUSH2 0x48BE JUMP JUMPDEST SWAP1 POP CALLVALUE PUSH2 0x353 JUMPI PUSH1 0x20 CALLDATASIZE PUSH1 0x3 NOT ADD SLT PUSH2 0x353 JUMPI CALLDATALOAD PUSH0 MSTORE PUSH1 0x6 PUSH1 0x20 MSTORE DUP1 PUSH0 KECCAK256 PUSH2 0xA7D PUSH1 0xFF PUSH1 0x1 PUSH2 0x3595 DUP5 PUSH2 0x4386 JUMP JUMPDEST SWAP4 ADD SLOAD AND SWAP3 MLOAD SWAP3 DUP4 SWAP3 DUP4 PUSH2 0x4466 JUMP JUMPDEST DUP3 CALLVALUE PUSH2 0x353 JUMPI PUSH1 0x20 DUP1 PUSH1 0x3 NOT CALLDATASIZE ADD SLT PUSH2 0x353 JUMPI DUP3 CALLDATALOAD SWAP2 PUSH2 0x35C5 DUP4 ISZERO ISZERO PUSH2 0x46FE JUMP JUMPDEST CALLER PUSH0 MSTORE PUSH1 0x1 DUP3 MSTORE DUP1 PUSH0 KECCAK256 SLOAD SWAP4 PUSH2 0x35E3 PUSH2 0x35DC PUSH2 0x4830 JUMP JUMPDEST DUP7 DUP7 PUSH2 0x4EE7 JUMP JUMPDEST ISZERO PUSH2 0x36D4 JUMPI DUP4 PUSH0 MSTORE PUSH1 0x7 DUP4 MSTORE PUSH1 0x1 DUP3 PUSH0 KECCAK256 SLOAD GT PUSH1 0x8 DUP5 MSTORE DUP3 PUSH0 KECCAK256 SLOAD ISZERO ISZERO DUP2 ISZERO PUSH2 0x36CC JUMPI JUMPDEST POP ISZERO PUSH2 0x3671 JUMPI POP SWAP1 PUSH32 0x68F37CC4A32F0B24153CE9237B344B20A9717039F90D7C24F35E5C217F03E168 SWAP2 PUSH2 0x363B DUP6 DUP6 PUSH2 0x4EB3 JUMP JUMPDEST PUSH2 0x364D PUSH2 0x3646 PUSH2 0x4830 JUMP JUMPDEST DUP8 DUP8 PUSH2 0x5034 JUMP JUMPDEST PUSH0 MSTORE PUSH1 0x6 DUP3 MSTORE PUSH1 0x1 DUP2 PUSH0 KECCAK256 ADD PUSH1 0xFF NOT DUP2 SLOAD AND SWAP1 SSTORE PUSH1 0xE DUP3 MSTORE PUSH0 DUP2 DUP2 KECCAK256 SSTORE MLOAD TIMESTAMP DUP2 MSTORE LOG3 STOP JUMPDEST DUP3 PUSH1 0x84 SWAP3 MLOAD SWAP2 PUSH3 0x461BCD PUSH1 0xE5 SHL DUP4 MSTORE DUP3 ADD MSTORE PUSH1 0x31 PUSH1 0x24 DUP3 ADD MSTORE PUSH32 0x43616E6E6F74206C65617665206173206C617374206F776E6572207769746820 PUSH1 0x44 DUP3 ADD MSTORE PUSH17 0x6E6F2061646D696E6973747261746F7273 PUSH1 0x78 SHL PUSH1 0x64 DUP3 ADD MSTORE REVERT JUMPDEST SWAP1 POP DUP7 PUSH2 0x3607 JUMP JUMPDEST DUP3 PUSH1 0x84 SWAP3 MLOAD SWAP2 PUSH3 0x461BCD PUSH1 0xE5 SHL DUP4 MSTORE DUP3 ADD MSTORE PUSH1 0x23 PUSH1 0x24 DUP3 ADD MSTORE PUSH32 0x596F7520617265206E6F7420616E206F776E6572206F66207468697320726563 PUSH1 0x44 DUP3 ADD MSTORE PUSH3 0x1BDC99 PUSH1 0xEA SHL PUSH1 0x64 DUP3 ADD MSTORE REVERT JUMPDEST DUP3 CALLVALUE PUSH2 0x353 JUMPI PUSH1 0x20 CALLDATASIZE PUSH1 0x3 NOT ADD SLT PUSH2 0x353 JUMPI PUSH2 0xA7D SWAP2 CALLDATALOAD PUSH0 MSTORE PUSH1 0x9 PUSH1 0x20 MSTORE PUSH2 0x1C6E DUP2 PUSH0 KECCAK256 PUSH2 0x45E2 JUMP JUMPDEST SWAP1 POP CALLVALUE PUSH2 0x353 JUMPI PUSH2 0x375A CALLDATASIZE PUSH2 0x430C JUMP JUMPDEST SWAP2 SWAP3 SWAP1 PUSH2 0x3769 PUSH2 0x3A1 CALLER PUSH2 0x4D58 JUMP JUMPDEST PUSH2 0x3774 DUP5 ISZERO ISZERO PUSH2 0x46FE JUMP JUMPDEST PUSH1 0x1 PUSH1 0x1 PUSH1 0xA0 SHL SUB AND PUSH2 0x3788 DUP2 ISZERO ISZERO PUSH2 0x474A JUMP JUMPDEST PUSH2 0x3794 PUSH2 0xAE3 DUP5 PUSH2 0x4E3B JUMP JUMPDEST CALLER PUSH0 MSTORE PUSH1 0x20 SWAP4 PUSH1 0x1 DUP6 MSTORE DUP6 PUSH0 KECCAK256 SLOAD SWAP2 PUSH0 MSTORE DUP6 PUSH0 KECCAK256 SLOAD SWAP3 PUSH2 0x37B5 DUP5 ISZERO ISZERO PUSH2 0x4596 JUMP JUMPDEST DUP5 MLOAD DUP7 DUP7 ADD KECCAK256 SWAP6 PUSH2 0x37C6 DUP6 DUP5 PUSH2 0x4EB3 JUMP JUMPDEST DUP1 PUSH0 MSTORE PUSH1 0x6 DUP3 MSTORE PUSH2 0x37DF PUSH1 0xFF PUSH1 0x1 DUP12 PUSH0 KECCAK256 ADD SLOAD AND PUSH2 0x47D8 JUMP JUMPDEST PUSH0 MSTORE PUSH1 0x6 DUP2 MSTORE PUSH2 0x37F0 DUP9 PUSH0 KECCAK256 PUSH2 0x4386 JUMP JUMPDEST SWAP7 DUP8 MLOAD DUP3 DUP10 ADD KECCAK256 SWAP1 DUP1 DUP3 EQ PUSH2 0x3E1F JUMPI PUSH2 0x3807 PUSH2 0x4830 JUMP JUMPDEST DUP4 DUP2 MLOAD SWAP2 ADD KECCAK256 DUP3 EQ PUSH2 0x3DAA JUMPI DUP5 PUSH0 MSTORE PUSH1 0x7 DUP4 MSTORE DUP10 PUSH0 KECCAK256 SLOAD ISZERO SWAP2 DUP3 ISZERO PUSH2 0x3834 PUSH2 0x382D PUSH2 0x4830 JUMP JUMPDEST DUP10 DUP10 PUSH2 0x4EE7 JUMP JUMPDEST SWAP1 PUSH2 0x3847 PUSH2 0x3840 PUSH2 0x4851 JUMP JUMPDEST DUP11 DUP11 PUSH2 0x4EE7 JUMP JUMPDEST SWAP1 PUSH2 0x385A PUSH2 0x3853 PUSH2 0x487A JUMP JUMPDEST DUP12 DUP12 PUSH2 0x4EE7 JUMP JUMPDEST DUP12 DUP12 EQ PUSH2 0x3865 PUSH2 0x4830 JUMP JUMPDEST DUP1 MLOAD SWAP1 DUP11 ADD KECCAK256 DUP8 SUB PUSH2 0x39E2 JUMPI POP POP ISZERO PUSH2 0x3985 JUMPI POP ISZERO PUSH2 0x3944 JUMPI JUMPDEST PUSH2 0x3887 PUSH2 0x4851 JUMP JUMPDEST DUP5 DUP2 MLOAD SWAP2 ADD KECCAK256 EQ SWAP1 DUP2 PUSH2 0x392D JUMPI JUMPDEST POP PUSH2 0x38A8 JUMPI JUMPDEST POP POP POP PUSH2 0x449 SWAP6 POP PUSH2 0x4FCF JUMP JUMPDEST PUSH2 0x38B3 JUMPI JUMPDEST DUP1 PUSH2 0x389B JUMP JUMPDEST DUP3 PUSH0 MSTORE PUSH1 0x8 DUP2 MSTORE PUSH1 0x1 DUP9 PUSH0 KECCAK256 SLOAD GT PUSH2 0x38AD JUMPI DUP8 MLOAD PUSH3 0x461BCD PUSH1 0xE5 SHL DUP2 MSTORE SWAP2 DUP3 ADD MSTORE PUSH1 0x39 PUSH1 0x24 DUP3 ADD MSTORE PUSH32 0x43616E6E6F742064656D6F746520746865206C6173742061646D696E69737472 PUSH1 0x44 DUP3 ADD MSTORE PUSH32 0x61746F72207768656E206E6F206F776E65722065786973747300000000000000 PUSH1 0x64 DUP3 ADD MSTORE PUSH1 0x84 SWAP2 POP REVERT JUMPDEST SWAP1 POP PUSH2 0x3937 PUSH2 0x489C JUMP JUMPDEST DUP4 DUP2 MLOAD SWAP2 ADD KECCAK256 EQ PUSH0 PUSH2 0x3895 JUMP JUMPDEST PUSH1 0x64 DUP6 DUP6 DUP1 DUP15 MLOAD SWAP3 PUSH3 0x461BCD PUSH1 0xE5 SHL DUP5 MSTORE DUP4 ADD MSTORE PUSH1 0x24 DUP3 ADD MSTORE PUSH32 0x4F6E6C79206F776E6572732063616E2070726F6D6F746520746F206F776E6572 PUSH1 0x44 DUP3 ADD MSTORE REVERT JUMPDEST SWAP1 POP PUSH2 0x387F JUMPI DUP11 MLOAD PUSH3 0x461BCD PUSH1 0xE5 SHL DUP2 MSTORE DUP1 DUP7 ADD DUP6 SWAP1 MSTORE PUSH1 0x2B PUSH1 0x24 DUP3 ADD MSTORE PUSH32 0x4F6E6C792061646D696E6973747261746F72732063616E2070726F6D6F746520 PUSH1 0x44 DUP3 ADD MSTORE PUSH11 0x3334B939BA1037BBB732B9 PUSH1 0xA9 SHL PUSH1 0x64 DUP3 ADD MSTORE PUSH1 0x84 SWAP1 REVERT JUMPDEST SWAP1 SWAP2 PUSH2 0x39EC PUSH2 0x4851 JUMP JUMPDEST DUP1 MLOAD SWAP1 DUP11 ADD KECCAK256 DUP8 SUB PUSH2 0x3A7F JUMPI POP POP POP DUP2 ISZERO PUSH2 0x3A77 JUMPI JUMPDEST POP ISZERO PUSH2 0x3A0E JUMPI JUMPDEST PUSH2 0x387F JUMP JUMPDEST DUP11 MLOAD PUSH3 0x461BCD PUSH1 0xE5 SHL DUP2 MSTORE DUP1 DUP7 ADD DUP6 SWAP1 MSTORE PUSH1 0x3B PUSH1 0x24 DUP3 ADD MSTORE PUSH32 0x4F6E6C79206F776E65727320616E642061646D696E6973747261746F72732063 PUSH1 0x44 DUP3 ADD MSTORE PUSH32 0x616E2070726F6D6F746520746F2061646D696E6973747261746F720000000000 PUSH1 0x64 DUP3 ADD MSTORE PUSH1 0x84 SWAP1 REVERT JUMPDEST SWAP1 POP PUSH0 PUSH2 0x3A02 JUMP JUMPDEST PUSH2 0x3A8B SWAP4 SWAP2 SWAP3 SWAP4 PUSH2 0x487A JUMP JUMPDEST DUP1 MLOAD SWAP1 DUP11 ADD KECCAK256 DUP8 SUB PUSH2 0x3BEC JUMPI ISZERO PUSH2 0x3B70 JUMPI DUP4 ISZERO PUSH2 0x3B59 JUMPI JUMPDEST POP DUP3 ISZERO PUSH2 0x3B40 JUMPI JUMPDEST POP POP PUSH2 0x387F JUMPI DUP11 MLOAD PUSH3 0x461BCD PUSH1 0xE5 SHL DUP2 MSTORE DUP1 DUP7 ADD DUP6 SWAP1 MSTORE PUSH1 0x57 PUSH1 0x24 DUP3 ADD MSTORE PUSH32 0x4F6E6C79206F776E6572732063616E206368616E6765206F746865727320746F PUSH1 0x44 DUP3 ADD MSTORE PUSH32 0x207368617265722E2041646D696E7320616E6420736861726572732063616E20 PUSH1 0x64 DUP3 ADD MSTORE PUSH32 0x6F6E6C792064656D6F7465207468656D73656C7665732E000000000000000000 PUSH1 0x84 DUP3 ADD MSTORE PUSH1 0xA4 SWAP1 REVERT JUMPDEST SWAP1 SWAP2 POP DUP2 PUSH2 0x3B51 JUMPI JUMPDEST POP PUSH0 DUP1 PUSH2 0x3AAB JUMP JUMPDEST SWAP1 POP PUSH0 PUSH2 0x3B49 JUMP JUMPDEST SWAP1 SWAP3 POP DUP1 PUSH2 0x3B69 JUMPI JUMPDEST SWAP2 PUSH0 PUSH2 0x3AA3 JUMP JUMPDEST POP DUP2 PUSH2 0x3B62 JUMP JUMPDEST SWAP3 POP DUP3 ISZERO PUSH2 0x3BD3 JUMPI JUMPDEST POP POP PUSH2 0x3A09 JUMPI DUP11 MLOAD PUSH3 0x461BCD PUSH1 0xE5 SHL DUP2 MSTORE DUP1 DUP7 ADD DUP6 SWAP1 MSTORE PUSH1 0x28 PUSH1 0x24 DUP3 ADD MSTORE PUSH32 0x4F6E6C792061646D696E6973747261746F72732063616E2064656D6F74652074 PUSH1 0x44 DUP3 ADD MSTORE PUSH8 0x379039B430B932B9 PUSH1 0xC1 SHL PUSH1 0x64 DUP3 ADD MSTORE PUSH1 0x84 SWAP1 REVERT JUMPDEST SWAP1 SWAP2 POP DUP2 PUSH2 0x3BE4 JUMPI JUMPDEST POP PUSH0 DUP1 PUSH2 0x3B79 JUMP JUMPDEST SWAP1 POP PUSH0 PUSH2 0x3BDC JUMP JUMPDEST PUSH2 0x3BF4 PUSH2 0x489C JUMP JUMPDEST DUP10 DUP2 MLOAD SWAP2 ADD KECCAK256 DUP8 EQ PUSH2 0x3C0B JUMPI JUMPDEST POP POP POP POP POP PUSH2 0x387F JUMP JUMPDEST ISZERO PUSH2 0x3D4E JUMPI DUP4 ISZERO PUSH2 0x3D37 JUMPI JUMPDEST POP DUP3 ISZERO PUSH2 0x3D1E JUMPI JUMPDEST POP POP ISZERO PUSH2 0x3C97 JUMPI JUMPDEST PUSH2 0x3C31 DUP9 DUP8 PUSH2 0x4F45 JUMP JUMPDEST PUSH2 0x3C3F JUMPI PUSH0 DUP1 DUP1 DUP1 DUP1 PUSH2 0x3C01 JUMP JUMPDEST DUP11 MLOAD PUSH3 0x461BCD PUSH1 0xE5 SHL DUP2 MSTORE DUP1 DUP7 ADD DUP6 SWAP1 MSTORE PUSH1 0x2C PUSH1 0x24 DUP3 ADD MSTORE PUSH32 0x43616E6E6F742064656D6F746520616E20616374697665207375626A65637420 PUSH1 0x44 DUP3 ADD MSTORE PUSH12 0x3132B637BB9039B430B932B9 PUSH1 0xA1 SHL PUSH1 0x64 DUP3 ADD MSTORE PUSH1 0x84 SWAP1 REVERT JUMPDEST DUP11 MLOAD PUSH3 0x461BCD PUSH1 0xE5 SHL DUP2 MSTORE DUP1 DUP7 ADD DUP6 SWAP1 MSTORE PUSH1 0x55 PUSH1 0x24 DUP3 ADD MSTORE PUSH32 0x4F6E6C79206F776E6572732063616E2064656D6F7465206F74686572732E2041 PUSH1 0x44 DUP3 ADD MSTORE PUSH32 0x646D696E6973747261746F727320616E6420736861726572732063616E206F6E PUSH1 0x64 DUP3 ADD MSTORE PUSH21 0x363C903232B6B7BA32903A3432B6B9B2B63B32B997 PUSH1 0x59 SHL PUSH1 0x84 DUP3 ADD MSTORE PUSH1 0xA4 SWAP1 REVERT JUMPDEST SWAP1 SWAP2 POP DUP2 PUSH2 0x3D2F JUMPI JUMPDEST POP PUSH0 DUP1 PUSH2 0x3C1F JUMP JUMPDEST SWAP1 POP PUSH0 PUSH2 0x3D27 JUMP JUMPDEST SWAP1 SWAP3 POP DUP1 PUSH2 0x3D47 JUMPI JUMPDEST SWAP2 PUSH0 PUSH2 0x3C17 JUMP JUMPDEST POP DUP2 PUSH2 0x3D40 JUMP JUMPDEST SWAP3 POP POP POP PUSH2 0x3C27 JUMPI DUP11 MLOAD PUSH3 0x461BCD PUSH1 0xE5 SHL DUP2 MSTORE DUP1 DUP7 ADD DUP6 SWAP1 MSTORE PUSH1 0x28 PUSH1 0x24 DUP3 ADD MSTORE PUSH32 0x4F6E6C792061646D696E6973747261746F72732063616E2064656D6F74652074 PUSH1 0x44 DUP3 ADD MSTORE PUSH8 0x37903B34B2BBB2B9 PUSH1 0xC1 SHL PUSH1 0x64 DUP3 ADD MSTORE PUSH1 0x84 SWAP1 REVERT JUMPDEST DUP10 MLOAD PUSH3 0x461BCD PUSH1 0xE5 SHL DUP2 MSTORE DUP1 DUP6 ADD DUP5 SWAP1 MSTORE PUSH1 0x43 PUSH1 0x24 DUP3 ADD MSTORE PUSH32 0x4F776E6572732063616E6E6F742062652064656D6F7465642E204F776E657220 PUSH1 0x44 DUP3 ADD MSTORE PUSH32 0x6D75737420766F6C756E746172696C792072656D6F7665207468656D73656C76 PUSH1 0x64 DUP3 ADD MSTORE PUSH3 0x32B997 PUSH1 0xE9 SHL PUSH1 0x84 DUP3 ADD MSTORE PUSH1 0xA4 SWAP1 REVERT JUMPDEST DUP10 MLOAD PUSH3 0x461BCD PUSH1 0xE5 SHL DUP2 MSTORE DUP1 DUP6 ADD DUP5 SWAP1 MSTORE PUSH1 0x1C PUSH1 0x24 DUP3 ADD MSTORE PUSH32 0x54617267657420616C726561647920686173207468697320726F6C6500000000 PUSH1 0x44 DUP3 ADD MSTORE PUSH1 0x64 SWAP1 REVERT JUMPDEST DUP3 CALLVALUE PUSH2 0x353 JUMPI PUSH1 0x20 CALLDATASIZE PUSH1 0x3 NOT ADD SLT PUSH2 0x353 JUMPI PUSH1 0x20 SWAP1 PUSH2 0x1905 PUSH2 0x3E82 PUSH2 0x409B JUMP JUMPDEST PUSH2 0x4DE9 JUMP JUMPDEST DUP3 CALLVALUE PUSH2 0x353 JUMPI PUSH1 0x20 CALLDATASIZE PUSH1 0x3 NOT ADD SLT PUSH2 0x353 JUMPI PUSH2 0x3EA1 PUSH2 0x409B JUMP JUMPDEST PUSH0 SLOAD PUSH1 0x1 PUSH1 0x1 PUSH1 0xA0 SHL SUB SWAP2 SWAP1 PUSH2 0x3EBA SWAP1 DUP4 AND CALLER EQ PUSH2 0x4681 JUMP JUMPDEST AND DUP1 PUSH0 MSTORE PUSH1 0x1 PUSH1 0x20 MSTORE PUSH2 0x3ED1 DUP3 PUSH0 KECCAK256 SLOAD ISZERO ISZERO PUSH2 0x46BA JUMP JUMPDEST DUP1 PUSH0 MSTORE PUSH1 0x1 PUSH1 0x20 MSTORE PUSH1 0xFF PUSH1 0x1 DUP4 PUSH0 KECCAK256 ADD SLOAD AND ISZERO PUSH2 0x3F01 JUMPI PUSH1 0x1 SWAP3 POP PUSH0 MSTORE DUP2 PUSH1 0x20 MSTORE PUSH0 KECCAK256 ADD PUSH1 0xFF NOT DUP2 SLOAD AND SWAP1 SSTORE PUSH0 DUP1 RETURN JUMPDEST DUP2 MLOAD PUSH3 0x461BCD PUSH1 0xE5 SHL DUP2 MSTORE PUSH1 0x20 DUP2 DUP6 ADD MSTORE PUSH1 0x17 PUSH1 0x24 DUP3 ADD MSTORE PUSH32 0x57616C6C657420616C726561647920696E616374697665000000000000000000 PUSH1 0x44 DUP3 ADD MSTORE PUSH1 0x64 SWAP1 REVERT JUMPDEST DUP3 CALLVALUE PUSH2 0x353 JUMPI DUP1 PUSH1 0x3 NOT CALLDATASIZE ADD SLT PUSH2 0x353 JUMPI PUSH2 0x1905 PUSH1 0x20 SWAP3 PUSH2 0x3F63 PUSH2 0x40B1 JUMP JUMPDEST SWAP1 CALLDATALOAD PUSH2 0x4630 JUMP JUMPDEST DUP3 CALLVALUE PUSH2 0x353 JUMPI PUSH1 0x20 CALLDATASIZE PUSH1 0x3 NOT ADD SLT PUSH2 0x353 JUMPI PUSH2 0xA7D SWAP2 CALLDATALOAD PUSH0 MSTORE PUSH1 0xA PUSH1 0x20 MSTORE PUSH2 0x1C6E DUP2 PUSH0 KECCAK256 PUSH2 0x45E2 JUMP JUMPDEST DUP3 CALLVALUE PUSH2 0x353 JUMPI PUSH2 0x3FA2 CALLDATASIZE PUSH2 0x420C JUMP JUMPDEST SWAP3 SWAP2 SWAP1 PUSH2 0x3FB1 PUSH2 0x3A1 CALLER PUSH2 0x4D58 JUMP JUMPDEST PUSH2 0x3FBE DUP3 MLOAD DUP6 MLOAD EQ PUSH2 0x4552 JUMP JUMPDEST CALLER PUSH0 MSTORE PUSH1 0x1 SWAP4 DUP5 SWAP4 PUSH1 0x1 PUSH1 0x20 MSTORE DUP1 PUSH0 KECCAK256 SLOAD SWAP3 PUSH1 0x1 DUP1 PUSH1 0xA0 SHL SUB AND PUSH0 MSTORE PUSH0 KECCAK256 SLOAD PUSH2 0x3FE8 DUP2 ISZERO ISZERO PUSH2 0x4596 JUMP JUMPDEST PUSH0 SWAP5 JUMPDEST PUSH2 0x3FF1 JUMPI STOP JUMPDEST DUP4 MLOAD DUP6 LT ISZERO PUSH2 0x449 JUMPI DUP6 DUP6 PUSH2 0x4010 PUSH2 0x400A DUP4 SWAP9 DUP7 PUSH2 0x4BBE JUMP JUMPDEST MLOAD PUSH2 0x4E3B JUMP JUMPDEST ISZERO PUSH2 0x4062 JUMPI PUSH2 0x4023 DUP6 PUSH2 0x676 DUP4 DUP10 PUSH2 0x4BBE JUMP JUMPDEST ISZERO PUSH2 0x4062 JUMPI PUSH2 0x4036 DUP4 PUSH2 0x676 DUP4 DUP10 PUSH2 0x4BBE JUMP JUMPDEST PUSH2 0x4062 JUMPI PUSH2 0x405B DUP6 PUSH2 0x4048 DUP4 DUP10 PUSH2 0x4BBE JUMP JUMPDEST MLOAD DUP6 PUSH2 0x4054 DUP6 DUP10 PUSH2 0x4BBE JUMP JUMPDEST MLOAD SWAP2 PUSH2 0x51BE JUMP JUMPDEST ADD SWAP5 PUSH2 0x3FEB JUMP JUMPDEST PUSH2 0x405B JUMP JUMPDEST DUP4 SWAP1 CALLVALUE PUSH2 0x353 JUMPI PUSH1 0x20 CALLDATASIZE PUSH1 0x3 NOT ADD SLT PUSH2 0x353 JUMPI PUSH1 0x20 SWAP2 PUSH1 0x1 PUSH1 0x1 PUSH1 0xA0 SHL SUB PUSH2 0x408D PUSH2 0x409B JUMP JUMPDEST AND PUSH0 MSTORE PUSH1 0x1 DUP4 MSTORE PUSH0 KECCAK256 SLOAD DUP2 MSTORE RETURN JUMPDEST PUSH1 0x4 CALLDATALOAD SWAP1 PUSH1 0x1 PUSH1 0x1 PUSH1 0xA0 SHL SUB DUP3 AND DUP3 SUB PUSH2 0x353 JUMPI JUMP JUMPDEST PUSH1 0x24 CALLDATALOAD SWAP1 PUSH1 0x1 PUSH1 0x1 PUSH1 0xA0 SHL SUB DUP3 AND DUP3 SUB PUSH2 0x353 JUMPI JUMP JUMPDEST PUSH1 0x40 DUP2 ADD SWAP1 DUP2 LT PUSH1 0x1 PUSH1 0x1 PUSH1 0x40 SHL SUB DUP3 GT OR PUSH2 0x40E2 JUMPI PUSH1 0x40 MSTORE JUMP JUMPDEST PUSH4 0x4E487B71 PUSH1 0xE0 SHL PUSH0 MSTORE PUSH1 0x41 PUSH1 0x4 MSTORE PUSH1 0x24 PUSH0 REVERT JUMPDEST PUSH1 0x20 DUP2 ADD SWAP1 DUP2 LT PUSH1 0x1 PUSH1 0x1 PUSH1 0x40 SHL SUB DUP3 GT OR PUSH2 0x40E2 JUMPI PUSH1 0x40 MSTORE JUMP JUMPDEST SWAP1 PUSH1 0x1F DUP1 NOT SWAP2 ADD AND DUP2 ADD SWAP1 DUP2 LT PUSH1 0x1 PUSH1 0x1 PUSH1 0x40 SHL SUB DUP3 GT OR PUSH2 0x40E2 JUMPI PUSH1 0x40 MSTORE JUMP JUMPDEST PUSH1 0x1 PUSH1 0x1 PUSH1 0x40 SHL SUB DUP2 GT PUSH2 0x40E2 JUMPI PUSH1 0x5 SHL PUSH1 0x20 ADD SWAP1 JUMP JUMPDEST SWAP1 DUP1 PUSH1 0x1F DUP4 ADD SLT ISZERO PUSH2 0x353 JUMPI PUSH1 0x20 SWAP1 DUP3 CALLDATALOAD PUSH2 0x4163 DUP2 PUSH2 0x4132 JUMP JUMPDEST SWAP4 PUSH2 0x4171 PUSH1 0x40 MLOAD SWAP6 DUP7 PUSH2 0x4111 JUMP JUMPDEST DUP2 DUP6 MSTORE PUSH1 0x20 DUP1 DUP7 ADD SWAP3 PUSH1 0x5 SHL DUP3 ADD ADD SWAP3 DUP4 GT PUSH2 0x353 JUMPI PUSH1 0x20 ADD SWAP1 JUMPDEST DUP3 DUP3 LT PUSH2 0x419A JUMPI POP POP POP POP SWAP1 JUMP JUMPDEST DUP2 CALLDATALOAD DUP2 MSTORE SWAP1 DUP4 ADD SWAP1 DUP4 ADD PUSH2 0x418C JUMP JUMPDEST SWAP3 SWAP2 SWAP3 PUSH1 0x1 PUSH1 0x1 PUSH1 0x40 SHL SUB DUP3 GT PUSH2 0x40E2 JUMPI PUSH1 0x40 MLOAD SWAP2 PUSH2 0x41D2 PUSH1 0x1F DUP3 ADD PUSH1 0x1F NOT AND PUSH1 0x20 ADD DUP5 PUSH2 0x4111 JUMP JUMPDEST DUP3 SWAP5 DUP2 DUP5 MSTORE DUP2 DUP4 ADD GT PUSH2 0x353 JUMPI DUP3 DUP2 PUSH1 0x20 SWAP4 DUP5 PUSH0 SWAP7 ADD CALLDATACOPY ADD ADD MSTORE JUMP JUMPDEST SWAP1 DUP1 PUSH1 0x1F DUP4 ADD SLT ISZERO PUSH2 0x353 JUMPI DUP2 PUSH1 0x20 PUSH2 0x4209 SWAP4 CALLDATALOAD SWAP2 ADD PUSH2 0x41A9 JUMP JUMPDEST SWAP1 JUMP JUMPDEST PUSH1 0x60 PUSH1 0x3 NOT DUP3 ADD SLT PUSH2 0x353 JUMPI PUSH1 0x1 PUSH1 0x1 PUSH1 0x40 SHL SUB SWAP2 PUSH1 0x4 CALLDATALOAD DUP4 DUP2 GT PUSH2 0x353 JUMPI DUP3 PUSH2 0x4238 SWAP2 PUSH1 0x4 ADD PUSH2 0x4149 JUMP JUMPDEST SWAP3 PUSH1 0x24 SWAP3 DUP4 CALLDATALOAD PUSH1 0x1 PUSH1 0x1 PUSH1 0xA0 SHL SUB DUP2 AND DUP2 SUB PUSH2 0x353 JUMPI SWAP4 PUSH1 0x44 CALLDATALOAD SWAP3 DUP1 DUP5 GT PUSH2 0x353 JUMPI DUP3 PUSH1 0x23 DUP6 ADD SLT ISZERO PUSH2 0x353 JUMPI DUP4 PUSH1 0x4 ADD CALLDATALOAD PUSH2 0x4273 DUP2 PUSH2 0x4132 JUMP JUMPDEST SWAP5 PUSH2 0x4281 PUSH1 0x40 MLOAD SWAP7 DUP8 PUSH2 0x4111 JUMP JUMPDEST DUP2 DUP7 MSTORE PUSH1 0x20 SWAP5 PUSH1 0x24 PUSH1 0x20 DUP9 ADD SWAP4 PUSH1 0x5 SHL DUP4 ADD ADD SWAP5 DUP2 DUP7 GT PUSH2 0x353 JUMPI PUSH1 0x24 DUP4 ADD SWAP4 JUMPDEST DUP7 DUP6 LT PUSH2 0x42B4 JUMPI POP POP POP POP POP POP POP POP SWAP1 JUMP JUMPDEST DUP5 CALLDATALOAD DUP7 DUP2 GT PUSH2 0x353 JUMPI DUP9 SWAP2 PUSH2 0x42CE DUP6 DUP6 DUP6 SWAP5 DUP10 ADD ADD PUSH2 0x41EE JUMP JUMPDEST DUP2 MSTORE ADD SWAP5 ADD SWAP4 PUSH2 0x42A2 JUMP JUMPDEST SWAP1 DUP2 MLOAD DUP1 DUP3 MSTORE PUSH1 0x20 DUP1 DUP1 SWAP4 ADD SWAP4 ADD SWAP2 PUSH0 JUMPDEST DUP3 DUP2 LT PUSH2 0x42F8 JUMPI POP POP POP POP SWAP1 JUMP JUMPDEST DUP4 MLOAD DUP6 MSTORE SWAP4 DUP2 ADD SWAP4 SWAP3 DUP2 ADD SWAP3 PUSH1 0x1 ADD PUSH2 0x42EA JUMP JUMPDEST PUSH1 0x60 PUSH1 0x3 NOT DUP3 ADD SLT PUSH2 0x353 JUMPI PUSH1 0x4 CALLDATALOAD SWAP2 PUSH1 0x24 CALLDATALOAD PUSH1 0x1 PUSH1 0x1 PUSH1 0xA0 SHL SUB DUP2 AND DUP2 SUB PUSH2 0x353 JUMPI SWAP2 PUSH1 0x44 CALLDATALOAD SWAP1 PUSH1 0x1 PUSH1 0x1 PUSH1 0x40 SHL SUB DUP3 GT PUSH2 0x353 JUMPI PUSH2 0x4209 SWAP2 PUSH1 0x4 ADD PUSH2 0x41EE JUMP JUMPDEST SWAP1 PUSH1 0x1 DUP3 DUP2 SHR SWAP3 AND DUP1 ISZERO PUSH2 0x437C JUMPI JUMPDEST PUSH1 0x20 DUP4 LT EQ PUSH2 0x4368 JUMPI JUMP JUMPDEST PUSH4 0x4E487B71 PUSH1 0xE0 SHL PUSH0 MSTORE PUSH1 0x22 PUSH1 0x4 MSTORE PUSH1 0x24 PUSH0 REVERT JUMPDEST SWAP2 PUSH1 0x7F AND SWAP2 PUSH2 0x435D JUMP JUMPDEST SWAP1 PUSH1 0x40 MLOAD SWAP2 DUP3 PUSH0 DUP3 SLOAD PUSH2 0x4398 DUP2 PUSH2 0x434E JUMP JUMPDEST SWAP1 DUP2 DUP5 MSTORE PUSH1 0x20 SWAP5 PUSH1 0x1 SWAP2 PUSH1 0x1 DUP2 AND SWAP1 DUP2 PUSH0 EQ PUSH2 0x4406 JUMPI POP PUSH1 0x1 EQ PUSH2 0x43C8 JUMPI JUMPDEST POP POP POP PUSH2 0x43C6 SWAP3 POP SUB DUP4 PUSH2 0x4111 JUMP JUMPDEST JUMP JUMPDEST PUSH0 SWAP1 DUP2 MSTORE DUP6 DUP2 KECCAK256 SWAP6 SWAP4 POP SWAP2 SWAP1 JUMPDEST DUP2 DUP4 LT PUSH2 0x43EE JUMPI POP POP PUSH2 0x43C6 SWAP4 POP DUP3 ADD ADD PUSH0 DUP1 DUP1 PUSH2 0x43B7 JUMP JUMPDEST DUP6 SLOAD DUP9 DUP5 ADD DUP6 ADD MSTORE SWAP5 DUP6 ADD SWAP5 DUP8 SWAP5 POP SWAP2 DUP4 ADD SWAP2 PUSH2 0x43D5 JUMP JUMPDEST SWAP3 POP POP POP PUSH2 0x43C6 SWAP5 SWAP3 POP PUSH1 0xFF NOT AND DUP3 DUP5 ADD MSTORE ISZERO ISZERO PUSH1 0x5 SHL DUP3 ADD ADD PUSH0 DUP1 DUP1 PUSH2 0x43B7 JUMP JUMPDEST SWAP2 SWAP1 DUP3 MLOAD SWAP3 DUP4 DUP3 MSTORE PUSH0 JUMPDEST DUP5 DUP2 LT PUSH2 0x4452 JUMPI POP POP DUP3 PUSH0 PUSH1 0x20 DUP1 SWAP5 SWAP6 DUP5 ADD ADD MSTORE PUSH1 0x1F DUP1 NOT SWAP2 ADD AND ADD ADD SWAP1 JUMP JUMPDEST PUSH1 0x20 DUP2 DUP4 ADD DUP2 ADD MLOAD DUP5 DUP4 ADD DUP3 ADD MSTORE ADD PUSH2 0x4432 JUMP JUMPDEST SWAP1 PUSH2 0x447E PUSH1 0x20 SWAP2 SWAP5 SWAP4 SWAP5 PUSH1 0x40 DUP5 MSTORE PUSH1 0x40 DUP5 ADD SWAP1 PUSH2 0x4428 JUMP JUMPDEST SWAP4 ISZERO ISZERO SWAP2 ADD MSTORE JUMP JUMPDEST PUSH1 0x40 SWAP1 PUSH1 0x3 NOT ADD SLT PUSH2 0x353 JUMPI PUSH1 0x4 CALLDATALOAD SWAP1 PUSH1 0x24 CALLDATALOAD SWAP1 JUMP JUMPDEST PUSH1 0x40 SWAP1 PUSH1 0x3 NOT ADD SLT PUSH2 0x353 JUMPI PUSH1 0x4 CALLDATALOAD SWAP1 PUSH1 0x24 CALLDATALOAD PUSH1 0x3 DUP2 LT ISZERO PUSH2 0x353 JUMPI SWAP1 JUMP JUMPDEST DUP1 SLOAD DUP3 LT ISZERO PUSH2 0x44D0 JUMPI PUSH0 MSTORE PUSH1 0x20 PUSH0 KECCAK256 ADD SWAP1 PUSH0 SWAP1 JUMP JUMPDEST PUSH4 0x4E487B71 PUSH1 0xE0 SHL PUSH0 MSTORE PUSH1 0x32 PUSH1 0x4 MSTORE PUSH1 0x24 PUSH0 REVERT JUMPDEST PUSH1 0x5 GT ISZERO PUSH2 0x44EE JUMPI JUMP JUMPDEST PUSH4 0x4E487B71 PUSH1 0xE0 SHL PUSH0 MSTORE PUSH1 0x21 PUSH1 0x4 MSTORE PUSH1 0x24 PUSH0 REVERT JUMPDEST SWAP1 PUSH1 0x3 DUP3 LT ISZERO PUSH2 0x44EE JUMPI MSTORE JUMP JUMPDEST ISZERO PUSH2 0x4516 JUMPI JUMP JUMPDEST PUSH1 0x40 MLOAD PUSH3 0x461BCD PUSH1 0xE5 SHL DUP2 MSTORE PUSH1 0x20 PUSH1 0x4 DUP3 ADD MSTORE PUSH1 0x14 PUSH1 0x24 DUP3 ADD MSTORE PUSH20 0x2737BA1030B71030B1BA34BB329036B2B6B132B9 PUSH1 0x61 SHL PUSH1 0x44 DUP3 ADD MSTORE PUSH1 0x64 SWAP1 REVERT JUMPDEST ISZERO PUSH2 0x4559 JUMPI JUMP JUMPDEST PUSH1 0x40 MLOAD PUSH3 0x461BCD PUSH1 0xE5 SHL DUP2 MSTORE PUSH1 0x20 PUSH1 0x4 DUP3 ADD MSTORE PUSH1 0x15 PUSH1 0x24 DUP3 ADD MSTORE PUSH21 0x82E4E4C2F240D8CADCCEE8D040DAD2E6DAC2E8C6D PUSH1 0x5B SHL PUSH1 0x44 DUP3 ADD MSTORE PUSH1 0x64 SWAP1 REVERT JUMPDEST ISZERO PUSH2 0x459D JUMPI JUMP JUMPDEST PUSH1 0x40 MLOAD PUSH3 0x461BCD PUSH1 0xE5 SHL DUP2 MSTORE PUSH1 0x20 PUSH1 0x4 DUP3 ADD MSTORE PUSH1 0x1C PUSH1 0x24 DUP3 ADD MSTORE PUSH32 0x5461726765742077616C6C6574206E6F74207265676973746572656400000000 PUSH1 0x44 DUP3 ADD MSTORE PUSH1 0x64 SWAP1 REVERT JUMPDEST SWAP1 PUSH1 0x40 MLOAD SWAP2 DUP3 DUP2 SLOAD SWAP2 DUP3 DUP3 MSTORE PUSH1 0x20 SWAP3 PUSH1 0x20 DUP4 ADD SWAP2 PUSH0 MSTORE PUSH1 0x20 PUSH0 KECCAK256 SWAP4 PUSH0 SWAP1 JUMPDEST DUP3 DUP3 LT PUSH2 0x4616 JUMPI POP POP POP PUSH2 0x43C6 SWAP3 POP SUB DUP4 PUSH2 0x4111 JUMP JUMPDEST DUP6 SLOAD DUP5 MSTORE PUSH1 0x1 SWAP6 DUP7 ADD SWAP6 DUP9 SWAP6 POP SWAP4 DUP2 ADD SWAP4 SWAP1 SWAP2 ADD SWAP1 PUSH2 0x4600 JUMP JUMPDEST PUSH1 0x1 PUSH1 0x1 PUSH1 0xA0 SHL SUB SWAP1 SWAP2 AND PUSH0 SWAP1 DUP2 MSTORE PUSH1 0x1 PUSH1 0x20 MSTORE PUSH1 0x40 SWAP1 KECCAK256 SLOAD SWAP1 DUP2 ISZERO PUSH2 0x467B JUMPI PUSH2 0x4662 PUSH2 0x465B PUSH2 0x4830 JUMP JUMPDEST DUP4 DUP4 PUSH2 0x4EE7 JUMP JUMPDEST SWAP2 DUP3 ISZERO PUSH2 0x466E JUMPI POP POP SWAP1 JUMP JUMPDEST PUSH2 0x4209 SWAP3 POP PUSH2 0x2DF0 PUSH2 0x4851 JUMP JUMPDEST POP POP PUSH0 SWAP1 JUMP JUMPDEST ISZERO PUSH2 0x4688 JUMPI JUMP JUMPDEST PUSH1 0x40 MLOAD PUSH3 0x461BCD PUSH1 0xE5 SHL DUP2 MSTORE PUSH1 0x20 PUSH1 0x4 DUP3 ADD MSTORE PUSH1 0xA PUSH1 0x24 DUP3 ADD MSTORE PUSH10 0x27B7363C9030B236B4B7 PUSH1 0xB1 SHL PUSH1 0x44 DUP3 ADD MSTORE PUSH1 0x64 SWAP1 REVERT JUMPDEST ISZERO PUSH2 0x46C1 JUMPI JUMP JUMPDEST PUSH1 0x40 MLOAD PUSH3 0x461BCD PUSH1 0xE5 SHL DUP2 MSTORE PUSH1 0x20 PUSH1 0x4 DUP3 ADD MSTORE PUSH1 0x15 PUSH1 0x24 DUP3 ADD MSTORE PUSH21 0x15D85B1B195D081B9BDD081C9959DA5CDD195C9959 PUSH1 0x5A SHL PUSH1 0x44 DUP3 ADD MSTORE PUSH1 0x64 SWAP1 REVERT JUMPDEST ISZERO PUSH2 0x4705 JUMPI JUMP JUMPDEST PUSH1 0x40 MLOAD PUSH3 0x461BCD PUSH1 0xE5 SHL DUP2 MSTORE PUSH1 0x20 PUSH1 0x4 DUP3 ADD MSTORE PUSH1 0x1E PUSH1 0x24 DUP3 ADD MSTORE PUSH32 0x5265636F726420494420686173682063616E6E6F7420626520656D7074790000 PUSH1 0x44 DUP3 ADD MSTORE PUSH1 0x64 SWAP1 REVERT JUMPDEST ISZERO PUSH2 0x4751 JUMPI JUMP JUMPDEST PUSH1 0x40 MLOAD PUSH3 0x461BCD PUSH1 0xE5 SHL DUP2 MSTORE PUSH1 0x20 PUSH1 0x4 DUP3 ADD MSTORE PUSH1 0x1D PUSH1 0x24 DUP3 ADD MSTORE PUSH32 0x57616C6C657420616464726573732063616E6E6F74206265207A65726F000000 PUSH1 0x44 DUP3 ADD MSTORE PUSH1 0x64 SWAP1 REVERT JUMPDEST ISZERO PUSH2 0x479D JUMPI JUMP JUMPDEST PUSH1 0x40 MLOAD PUSH3 0x461BCD PUSH1 0xE5 SHL DUP2 MSTORE PUSH1 0x20 PUSH1 0x4 DUP3 ADD MSTORE PUSH1 0x13 PUSH1 0x24 DUP3 ADD MSTORE PUSH19 0x496E76616C696420726F6C6520737472696E67 PUSH1 0x68 SHL PUSH1 0x44 DUP3 ADD MSTORE PUSH1 0x64 SWAP1 REVERT JUMPDEST ISZERO PUSH2 0x47DF JUMPI JUMP JUMPDEST PUSH1 0x40 MLOAD PUSH3 0x461BCD PUSH1 0xE5 SHL DUP2 MSTORE PUSH1 0x20 PUSH1 0x4 DUP3 ADD MSTORE PUSH1 0x23 PUSH1 0x24 DUP3 ADD MSTORE PUSH32 0x54617267657420646F6573206E6F74206861766520616E206163746976652072 PUSH1 0x44 DUP3 ADD MSTORE PUSH3 0x6F6C65 PUSH1 0xE8 SHL PUSH1 0x64 DUP3 ADD MSTORE PUSH1 0x84 SWAP1 REVERT JUMPDEST PUSH1 0x40 MLOAD SWAP1 PUSH2 0x483D DUP3 PUSH2 0x40C7 JUMP JUMPDEST PUSH1 0x5 DUP3 MSTORE PUSH5 0x37BBB732B9 PUSH1 0xD9 SHL PUSH1 0x20 DUP4 ADD MSTORE JUMP JUMPDEST PUSH1 0x40 MLOAD SWAP1 PUSH2 0x485E DUP3 PUSH2 0x40C7 JUMP JUMPDEST PUSH1 0xD DUP3 MSTORE PUSH13 0x30B236B4B734B9BA3930BA37B9 PUSH1 0x99 SHL PUSH1 0x20 DUP4 ADD MSTORE JUMP JUMPDEST PUSH1 0x40 MLOAD SWAP1 PUSH2 0x4887 DUP3 PUSH2 0x40C7 JUMP JUMPDEST PUSH1 0x6 DUP3 MSTORE PUSH6 0x39B430B932B9 PUSH1 0xD1 SHL PUSH1 0x20 DUP4 ADD MSTORE JUMP JUMPDEST PUSH1 0x40 MLOAD SWAP1 PUSH2 0x48A9 DUP3 PUSH2 0x40C7 JUMP JUMPDEST PUSH1 0x6 DUP3 MSTORE PUSH6 0x3B34B2BBB2B9 PUSH1 0xD1 SHL PUSH1 0x20 DUP4 ADD MSTORE JUMP JUMPDEST SWAP2 SWAP1 PUSH1 0x1 DUP1 PUSH1 0xA0 SHL SUB AND PUSH0 MSTORE PUSH1 0x1 PUSH1 0x20 MSTORE PUSH1 0x40 PUSH0 KECCAK256 SLOAD DUP1 ISZERO PUSH2 0x48E3 JUMPI PUSH2 0x4209 SWAP3 PUSH2 0x4EE7 JUMP JUMPDEST POP POP POP PUSH0 SWAP1 JUMP JUMPDEST PUSH1 0x1 PUSH1 0x1 PUSH1 0xA0 SHL SUB SWAP1 SWAP2 AND PUSH0 SWAP1 DUP2 MSTORE PUSH1 0x1 PUSH1 0x20 MSTORE PUSH1 0x40 SWAP1 KECCAK256 SLOAD SWAP1 DUP2 ISZERO PUSH2 0x494C JUMPI PUSH1 0x20 SWAP3 SWAP2 PUSH2 0x4917 SWAP2 PUSH2 0x4EB3 JUMP JUMPDEST PUSH0 MSTORE PUSH1 0x6 DUP3 MSTORE PUSH1 0x40 PUSH0 KECCAK256 PUSH1 0x40 MLOAD PUSH2 0x492D DUP2 PUSH2 0x40C7 JUMP JUMPDEST PUSH1 0xFF PUSH1 0x1 PUSH2 0x493A DUP5 PUSH2 0x4386 JUMP JUMPDEST SWAP4 DUP5 DUP5 MSTORE ADD SLOAD AND ISZERO ISZERO SWAP4 DUP5 SWAP2 ADD MSTORE SWAP2 SWAP1 JUMP JUMPDEST POP POP PUSH1 0x40 MLOAD PUSH2 0x495A DUP2 PUSH2 0x40F6 JUMP JUMPDEST PUSH0 DUP2 MSTORE SWAP1 PUSH0 SWAP1 JUMP JUMPDEST ISZERO PUSH2 0x4969 JUMPI JUMP JUMPDEST PUSH1 0x40 MLOAD PUSH3 0x461BCD PUSH1 0xE5 SHL DUP2 MSTORE PUSH1 0x20 PUSH1 0x4 DUP3 ADD MSTORE PUSH1 0x16 PUSH1 0x24 DUP3 ADD MSTORE PUSH22 0x496E76616C69642077616C6C65742061646472657373 PUSH1 0x50 SHL PUSH1 0x44 DUP3 ADD MSTORE PUSH1 0x64 SWAP1 REVERT JUMPDEST ISZERO PUSH2 0x49AE JUMPI JUMP JUMPDEST PUSH1 0x40 MLOAD PUSH3 0x461BCD PUSH1 0xE5 SHL DUP2 MSTORE PUSH1 0x20 PUSH1 0x4 DUP3 ADD MSTORE PUSH1 0x14 PUSH1 0x24 DUP3 ADD MSTORE PUSH20 0x92DCECC2D8D2C840EAE6CAE440928840D0C2E6D PUSH1 0x63 SHL PUSH1 0x44 DUP3 ADD MSTORE PUSH1 0x64 SWAP1 REVERT JUMPDEST ISZERO PUSH2 0x49F1 JUMPI JUMP JUMPDEST PUSH1 0x40 MLOAD PUSH3 0x461BCD PUSH1 0xE5 SHL DUP2 MSTORE PUSH1 0x20 PUSH1 0x4 DUP3 ADD MSTORE PUSH1 0x19 PUSH1 0x24 DUP3 ADD MSTORE PUSH32 0x57616C6C657420616C7265616479207265676973746572656400000000000000 PUSH1 0x44 DUP3 ADD MSTORE PUSH1 0x64 SWAP1 REVERT JUMPDEST DUP1 SLOAD PUSH1 0x1 PUSH1 0x40 SHL DUP2 LT ISZERO PUSH2 0x40E2 JUMPI PUSH2 0x4A53 SWAP2 PUSH1 0x1 DUP3 ADD DUP2 SSTORE PUSH2 0x44BB JUMP JUMPDEST PUSH1 0x1 DUP1 PUSH1 0xA0 SWAP5 SWAP4 SWAP5 SHL SUB DUP1 DUP5 SLOAD SWAP3 PUSH1 0x3 SHL SWAP4 AND DUP4 SHL SWAP3 SHL NOT AND OR SWAP1 SSTORE JUMP JUMPDEST SWAP1 PUSH2 0x4A7B DUP2 PUSH2 0x44E4 JUMP JUMPDEST PUSH1 0xFF DUP1 NOT DUP4 SLOAD AND SWAP2 AND OR SWAP1 SSTORE JUMP JUMPDEST PUSH1 0x4 SLOAD PUSH1 0x1 PUSH1 0x40 SHL DUP2 LT ISZERO PUSH2 0x40E2 JUMPI PUSH1 0x1 DUP2 ADD DUP1 PUSH1 0x4 SSTORE DUP2 LT ISZERO PUSH2 0x44D0 JUMPI PUSH1 0x4 PUSH0 MSTORE PUSH32 0x8A35ACFBC15FF81A39AE7D344FD709F28E8600B4AA8C65C6B64BFE7FE36BD19B ADD SSTORE JUMP JUMPDEST DUP1 SLOAD SWAP1 PUSH1 0x1 PUSH1 0x40 SHL DUP3 LT ISZERO PUSH2 0x40E2 JUMPI DUP2 PUSH2 0x4AF2 SWAP2 PUSH1 0x1 PUSH2 0x4B08 SWAP5 ADD DUP2 SSTORE PUSH2 0x44BB JUMP JUMPDEST DUP2 SWAP4 SWAP2 SLOAD SWAP1 PUSH1 0x3 SHL SWAP2 DUP3 SHL SWAP2 PUSH0 NOT SWAP1 SHL NOT AND OR SWAP1 JUMP JUMPDEST SWAP1 SSTORE JUMP JUMPDEST PUSH0 NOT DUP2 EQ PUSH2 0x4B1A JUMPI PUSH1 0x1 ADD SWAP1 JUMP JUMPDEST PUSH4 0x4E487B71 PUSH1 0xE0 SHL PUSH0 MSTORE PUSH1 0x11 PUSH1 0x4 MSTORE PUSH1 0x24 PUSH0 REVERT JUMPDEST ISZERO PUSH2 0x4B35 JUMPI JUMP JUMPDEST PUSH1 0x40 MLOAD PUSH3 0x461BCD PUSH1 0xE5 SHL DUP2 MSTORE PUSH1 0x20 PUSH1 0x4 DUP3 ADD MSTORE PUSH1 0x1E PUSH1 0x24 DUP3 ADD MSTORE PUSH32 0x4E6F2061637469766520747275737465652072656C6174696F6E736869700000 PUSH1 0x44 DUP3 ADD MSTORE PUSH1 0x64 SWAP1 REVERT JUMPDEST SWAP1 PUSH1 0x3 DUP2 LT ISZERO PUSH2 0x44EE JUMPI PUSH2 0xFF00 DUP3 SLOAD SWAP2 PUSH1 0x8 SHL AND SWAP1 PUSH2 0xFF00 NOT AND OR SWAP1 SSTORE JUMP JUMPDEST PUSH2 0x4BBA PUSH1 0x40 SWAP3 SWAP6 SWAP5 SWAP4 PUSH2 0x4BB0 DUP4 PUSH1 0x60 DUP2 ADD SWAP9 PUSH2 0x4502 JUMP JUMPDEST PUSH1 0x20 DUP4 ADD SWAP1 PUSH2 0x4502 JUMP JUMPDEST ADD MSTORE JUMP JUMPDEST DUP1 MLOAD DUP3 LT ISZERO PUSH2 0x44D0 JUMPI PUSH1 0x20 SWAP2 PUSH1 0x5 SHL ADD ADD SWAP1 JUMP JUMPDEST PUSH1 0x3 DUP3 LT ISZERO PUSH2 0x44EE JUMPI MSTORE JUMP JUMPDEST ISZERO PUSH2 0x4BE5 JUMPI JUMP JUMPDEST PUSH1 0x40 MLOAD PUSH3 0x461BCD PUSH1 0xE5 SHL DUP2 MSTORE PUSH1 0x20 PUSH1 0x4 DUP3 ADD MSTORE PUSH1 0xF PUSH1 0x24 DUP3 ADD MSTORE PUSH15 0x496E76616C69642061646472657373 PUSH1 0x88 SHL PUSH1 0x44 DUP3 ADD MSTORE PUSH1 0x64 SWAP1 REVERT JUMPDEST PUSH1 0x1 PUSH1 0x1 PUSH1 0xA0 SHL SUB SWAP1 SWAP2 AND PUSH0 SWAP1 DUP2 MSTORE PUSH1 0x1 PUSH1 0x20 MSTORE PUSH1 0x40 SWAP1 KECCAK256 SLOAD DUP1 ISZERO PUSH2 0x467B JUMPI PUSH2 0x4C44 SWAP2 PUSH2 0x4EB3 JUMP JUMPDEST PUSH0 MSTORE PUSH1 0x6 PUSH1 0x20 MSTORE PUSH1 0xFF PUSH1 0x1 PUSH1 0x40 PUSH0 KECCAK256 ADD SLOAD AND SWAP1 JUMP JUMPDEST DUP1 SLOAD SWAP1 PUSH0 DUP2 SSTORE DUP2 PUSH2 0x4C68 JUMPI POP POP JUMP JUMPDEST PUSH0 MSTORE PUSH1 0x20 PUSH0 KECCAK256 SWAP1 DUP2 ADD SWAP1 JUMPDEST DUP2 DUP2 LT PUSH2 0x4C7E JUMPI POP POP JUMP JUMPDEST PUSH0 DUP2 SSTORE PUSH1 0x1 ADD PUSH2 0x4C73 JUMP JUMPDEST ISZERO PUSH2 0x4C90 JUMPI JUMP JUMPDEST PUSH1 0x40 MLOAD PUSH3 0x461BCD PUSH1 0xE5 SHL DUP2 MSTORE PUSH1 0x20 PUSH1 0x4 DUP3 ADD MSTORE PUSH1 0xF PUSH1 0x24 DUP3 ADD MSTORE PUSH15 0x496E76616C69642074727573746565 PUSH1 0x88 SHL PUSH1 0x44 DUP3 ADD MSTORE PUSH1 0x64 SWAP1 REVERT JUMPDEST ISZERO PUSH2 0x4CCE JUMPI JUMP JUMPDEST PUSH1 0x40 MLOAD PUSH3 0x461BCD PUSH1 0xE5 SHL DUP2 MSTORE PUSH1 0x20 PUSH1 0x4 DUP3 ADD MSTORE PUSH1 0x17 PUSH1 0x24 DUP3 ADD MSTORE PUSH32 0x43616E6E6F74206170706F696E7420796F757273656C66000000000000000000 PUSH1 0x44 DUP3 ADD MSTORE PUSH1 0x64 SWAP1 REVERT JUMPDEST ISZERO PUSH2 0x4D1A JUMPI JUMP JUMPDEST PUSH1 0x40 MLOAD PUSH3 0x461BCD PUSH1 0xE5 SHL DUP2 MSTORE PUSH1 0x20 PUSH1 0x4 DUP3 ADD MSTORE PUSH1 0x16 PUSH1 0x24 DUP3 ADD MSTORE PUSH22 0x151C9D5CDD1959481B9BDD081C9959DA5CDD195C9959 PUSH1 0x52 SHL PUSH1 0x44 DUP3 ADD MSTORE PUSH1 0x64 SWAP1 REVERT JUMPDEST PUSH1 0x1 PUSH1 0x1 PUSH1 0xA0 SHL SUB AND PUSH0 SWAP1 DUP2 MSTORE PUSH1 0x1 PUSH1 0x20 MSTORE PUSH1 0x40 SWAP1 KECCAK256 DUP1 SLOAD SWAP1 DUP2 ISZERO SWAP1 DUP2 ISZERO PUSH2 0x4DD9 JUMPI JUMPDEST POP PUSH2 0x4DD4 JUMPI PUSH0 MSTORE PUSH1 0x2 PUSH1 0x20 MSTORE PUSH1 0xFF PUSH1 0x40 PUSH0 KECCAK256 SLOAD AND PUSH2 0x4D98 DUP2 PUSH2 0x44E4 JUMP JUMPDEST PUSH1 0x2 DUP2 EQ SWAP1 DUP2 ISZERO PUSH2 0x4DBF JUMPI JUMPDEST DUP2 ISZERO PUSH2 0x4DAE JUMPI POP SWAP1 JUMP JUMPDEST PUSH1 0x4 SWAP2 POP PUSH2 0x4DBB DUP2 PUSH2 0x44E4 JUMP JUMPDEST EQ SWAP1 JUMP JUMPDEST SWAP1 POP PUSH2 0x4DCA DUP2 PUSH2 0x44E4 JUMP JUMPDEST PUSH1 0x3 DUP2 EQ SWAP1 PUSH2 0x4DA4 JUMP JUMPDEST POP PUSH0 SWAP1 JUMP JUMPDEST PUSH1 0xFF SWAP2 POP PUSH1 0x1 ADD SLOAD AND ISZERO PUSH0 PUSH2 0x4D7B JUMP JUMPDEST PUSH1 0x1 PUSH1 0x1 PUSH1 0xA0 SHL SUB AND PUSH0 SWAP1 DUP2 MSTORE PUSH1 0x1 PUSH1 0x20 MSTORE PUSH1 0x40 SWAP1 KECCAK256 DUP1 SLOAD SWAP1 DUP2 ISZERO SWAP1 DUP2 ISZERO PUSH2 0x4E2B JUMPI JUMPDEST POP PUSH2 0x4DD4 JUMPI PUSH0 MSTORE PUSH1 0x2 PUSH1 0x20 MSTORE PUSH1 0x4 PUSH1 0xFF PUSH1 0x40 PUSH0 KECCAK256 SLOAD AND PUSH2 0x4DBB DUP2 PUSH2 0x44E4 JUMP JUMPDEST PUSH1 0xFF SWAP2 POP PUSH1 0x1 ADD SLOAD AND ISZERO PUSH0 PUSH2 0x4E0C JUMP JUMPDEST PUSH1 0x20 DUP2 MLOAD SWAP2 ADD KECCAK256 PUSH2 0x4E4A PUSH2 0x4830 JUMP JUMPDEST PUSH1 0x20 DUP2 MLOAD SWAP2 ADD KECCAK256 DUP2 EQ SWAP1 DUP2 ISZERO PUSH2 0x4E9A JUMPI JUMPDEST DUP2 ISZERO PUSH2 0x4E81 JUMPI JUMPDEST DUP2 ISZERO PUSH2 0x4E6C JUMPI POP SWAP1 JUMP JUMPDEST SWAP1 POP PUSH2 0x4E76 PUSH2 0x489C JUMP JUMPDEST PUSH1 0x20 DUP2 MLOAD SWAP2 ADD KECCAK256 EQ SWAP1 JUMP JUMPDEST SWAP1 POP PUSH2 0x4E8B PUSH2 0x487A JUMP JUMPDEST PUSH1 0x20 DUP2 MLOAD SWAP2 ADD KECCAK256 DUP2 EQ SWAP1 PUSH2 0x4E62 JUMP JUMPDEST SWAP1 POP PUSH2 0x4EA4 PUSH2 0x4851 JUMP JUMPDEST PUSH1 0x20 DUP2 MLOAD SWAP2 ADD KECCAK256 DUP2 EQ SWAP1 PUSH2 0x4E5B JUMP JUMPDEST SWAP1 PUSH1 0x40 MLOAD SWAP1 PUSH1 0x20 DUP3 ADD SWAP3 DUP4 MSTORE PUSH1 0x40 DUP3 ADD MSTORE PUSH1 0x40 DUP2 MSTORE PUSH1 0x60 DUP2 ADD DUP2 DUP2 LT PUSH1 0x1 PUSH1 0x1 PUSH1 0x40 SHL SUB DUP3 GT OR PUSH2 0x40E2 JUMPI PUSH1 0x40 MSTORE MLOAD SWAP1 KECCAK256 SWAP1 JUMP JUMPDEST PUSH1 0x20 SWAP3 SWAP2 PUSH2 0x4EF4 SWAP2 PUSH2 0x4EB3 JUMP JUMPDEST PUSH0 MSTORE PUSH1 0x6 DUP3 MSTORE PUSH1 0x40 PUSH0 KECCAK256 PUSH1 0x40 MLOAD PUSH2 0x4F0A DUP2 PUSH2 0x40C7 JUMP JUMPDEST PUSH1 0xFF PUSH1 0x1 PUSH2 0x4F17 DUP5 PUSH2 0x4386 JUMP JUMPDEST SWAP4 DUP5 DUP5 MSTORE ADD SLOAD AND ISZERO ISZERO SWAP4 DUP5 SWAP2 ADD MSTORE DUP3 PUSH2 0x4F2F JUMPI POP POP SWAP1 JUMP JUMPDEST SWAP1 SWAP2 POP PUSH1 0x20 DUP2 MLOAD SWAP2 ADD KECCAK256 SWAP1 PUSH1 0x20 DUP2 MLOAD SWAP2 ADD KECCAK256 EQ SWAP1 JUMP JUMPDEST PUSH1 0xD SLOAD PUSH1 0x1 PUSH1 0x1 PUSH1 0xA0 SHL SUB AND SWAP2 DUP3 ISZERO PUSH2 0x48E3 JUMPI PUSH1 0x44 PUSH1 0x20 SWAP3 PUSH1 0x40 MLOAD SWAP5 DUP6 SWAP4 DUP5 SWAP3 PUSH4 0x193D8E75 PUSH1 0xE2 SHL DUP5 MSTORE PUSH1 0x4 DUP5 ADD MSTORE PUSH1 0x24 DUP4 ADD MSTORE GAS STATICCALL SWAP1 DUP2 ISZERO PUSH2 0x4FC4 JUMPI PUSH0 SWAP2 PUSH2 0x4F8C JUMPI POP SWAP1 JUMP JUMPDEST SWAP1 POP PUSH1 0x20 DUP2 RETURNDATASIZE PUSH1 0x20 GT PUSH2 0x4FBC JUMPI JUMPDEST DUP2 PUSH2 0x4FA7 PUSH1 0x20 SWAP4 DUP4 PUSH2 0x4111 JUMP JUMPDEST DUP2 ADD SUB SLT PUSH2 0x353 JUMPI MLOAD DUP1 ISZERO ISZERO DUP2 SUB PUSH2 0x353 JUMPI SWAP1 JUMP JUMPDEST RETURNDATASIZE SWAP2 POP PUSH2 0x4F9A JUMP JUMPDEST PUSH1 0x40 MLOAD RETURNDATASIZE PUSH0 DUP3 RETURNDATACOPY RETURNDATASIZE SWAP1 REVERT JUMPDEST SWAP2 SWAP3 PUSH32 0x3AF67CF2057BA8EF414286FB626CD3EFB02F74996E18EFD455B39D8EC7EC460F SWAP2 SWAP5 PUSH2 0x5029 PUSH2 0x501B SWAP3 PUSH2 0x5007 DUP9 DUP3 DUP10 DUP10 PUSH2 0x51BE JUMP JUMPDEST PUSH1 0x40 MLOAD SWAP4 DUP5 SWAP4 PUSH1 0x60 DUP6 MSTORE PUSH1 0x60 DUP6 ADD SWAP1 PUSH2 0x4428 JUMP JUMPDEST SWAP1 DUP4 DUP3 SUB PUSH1 0x20 DUP6 ADD MSTORE PUSH2 0x4428 JUMP JUMPDEST TIMESTAMP PUSH1 0x40 DUP4 ADD MSTORE SUB SWAP1 LOG4 JUMP JUMPDEST DUP3 MLOAD PUSH1 0x20 DUP1 SWAP5 ADD KECCAK256 PUSH2 0x5044 PUSH2 0x4830 JUMP JUMPDEST DUP1 MLOAD SWAP1 DUP6 ADD KECCAK256 DUP2 SUB PUSH2 0x5064 JUMPI POP PUSH2 0x43C6 SWAP3 PUSH1 0x7 SWAP2 PUSH0 MSTORE MSTORE PUSH1 0x40 PUSH0 KECCAK256 PUSH2 0x54D2 JUMP JUMPDEST PUSH2 0x506C PUSH2 0x4851 JUMP JUMPDEST DUP1 MLOAD SWAP1 DUP6 ADD KECCAK256 DUP2 SUB PUSH2 0x508C JUMPI POP PUSH2 0x43C6 SWAP3 PUSH1 0x8 SWAP2 PUSH0 MSTORE MSTORE PUSH1 0x40 PUSH0 KECCAK256 PUSH2 0x54D2 JUMP JUMPDEST PUSH2 0x5094 PUSH2 0x487A JUMP JUMPDEST DUP1 MLOAD SWAP1 DUP6 ADD KECCAK256 DUP2 SUB PUSH2 0x50B4 JUMPI POP PUSH2 0x43C6 SWAP3 PUSH1 0x9 SWAP2 PUSH0 MSTORE MSTORE PUSH1 0x40 PUSH0 KECCAK256 PUSH2 0x54D2 JUMP JUMPDEST PUSH2 0x50BC PUSH2 0x489C JUMP JUMPDEST DUP5 DUP2 MLOAD SWAP2 ADD KECCAK256 EQ PUSH2 0x50CC JUMPI POP POP POP JUMP JUMPDEST PUSH2 0x43C6 SWAP3 PUSH1 0xA SWAP2 PUSH0 MSTORE MSTORE PUSH1 0x40 PUSH0 KECCAK256 PUSH2 0x54D2 JUMP JUMPDEST SWAP3 SWAP2 SWAP1 DUP4 PUSH0 MSTORE PUSH1 0x20 SWAP1 PUSH1 0x10 DUP3 MSTORE PUSH1 0x40 SWAP1 PUSH1 0x40 PUSH0 KECCAK256 DUP2 PUSH0 MSTORE DUP4 MSTORE PUSH1 0x40 PUSH0 KECCAK256 SWAP6 PUSH0 JUMPDEST DUP8 SLOAD DUP2 LT ISZERO PUSH2 0x51AA JUMPI DUP1 PUSH2 0x5115 PUSH1 0x1 SWAP3 DUP11 PUSH2 0x44BB JUMP JUMPDEST SWAP1 SLOAD SWAP1 PUSH1 0x3 SHL SHR PUSH2 0x5126 DUP6 DUP3 PUSH2 0x4EB3 JUMP JUMPDEST PUSH0 MSTORE PUSH1 0x6 DUP1 DUP9 MSTORE PUSH1 0xFF DUP5 DUP9 PUSH0 KECCAK256 ADD SLOAD AND ISZERO PUSH2 0x51A3 JUMPI PUSH2 0x5146 DUP10 DUP7 DUP5 PUSH2 0x5425 JUMP JUMPDEST SWAP1 PUSH2 0x5150 DUP3 PUSH2 0x4E3B JUMP JUMPDEST ISZERO PUSH2 0x519B JUMPI PUSH2 0x515F DUP8 DUP5 PUSH2 0x4EB3 JUMP JUMPDEST PUSH0 MSTORE DUP9 MSTORE PUSH2 0x516E DUP8 PUSH0 KECCAK256 PUSH2 0x4386 JUMP JUMPDEST SWAP1 DUP7 DUP7 DUP4 MLOAD DUP12 DUP6 ADD KECCAK256 DUP4 MLOAD DUP13 DUP6 ADD KECCAK256 EQ PUSH2 0x5191 JUMPI PUSH2 0x518B SWAP5 PUSH2 0x4FCF JUMP JUMPDEST ADD PUSH2 0x50FF JUMP JUMPDEST POP POP POP POP POP PUSH2 0x518B JUMP JUMPDEST POP POP POP PUSH2 0x518B JUMP JUMPDEST POP POP PUSH2 0x518B JUMP JUMPDEST POP POP POP POP POP POP SWAP1 POP JUMP JUMPDEST SWAP1 PUSH2 0x4C44 SWAP2 PUSH2 0x4EB3 JUMP JUMPDEST SWAP3 SWAP2 SWAP3 PUSH2 0x51CB DUP3 DUP3 PUSH2 0x4EB3 JUMP JUMPDEST SWAP4 DUP5 PUSH0 MSTORE PUSH1 0x20 PUSH1 0x6 DUP2 MSTORE PUSH1 0x40 SWAP1 DUP2 PUSH0 KECCAK256 SWAP7 PUSH2 0x51E5 DUP9 PUSH2 0x4386 JUMP JUMPDEST SWAP8 DUP9 MLOAD ISZERO SWAP2 PUSH1 0xFF PUSH1 0x1 DUP1 SWAP4 ADD SLOAD AND SWAP2 DUP6 MLOAD SWAP1 PUSH2 0x5200 DUP3 PUSH2 0x40C7 JUMP JUMPDEST DUP8 DUP3 MSTORE DUP6 DUP3 ADD DUP2 DUP2 MSTORE DUP4 PUSH0 MSTORE PUSH1 0x6 DUP8 MSTORE DUP8 PUSH0 KECCAK256 SWAP3 MLOAD DUP1 MLOAD SWAP1 PUSH1 0x1 PUSH1 0x1 PUSH1 0x40 SHL SUB DUP3 GT PUSH2 0x40E2 JUMPI PUSH2 0x5230 DUP6 SLOAD PUSH2 0x434E JUMP JUMPDEST PUSH1 0x1F DUP2 GT PUSH2 0x538D JUMPI JUMPDEST POP DUP9 SWAP1 PUSH1 0x1F DUP4 GT PUSH1 0x1 EQ PUSH2 0x533F JUMPI PUSH2 0x527E SWAP6 SWAP5 SWAP4 SWAP3 SWAP2 PUSH0 SWAP2 DUP4 PUSH2 0x27BE JUMPI POP POP PUSH0 NOT PUSH1 0x3 DUP4 SWAP1 SHL SHR NOT AND SWAP1 DUP4 SHL OR DUP4 SSTORE MLOAD ISZERO ISZERO SWAP2 ADD SWAP1 PUSH1 0xFF DUP1 NOT DUP4 SLOAD AND SWAP2 ISZERO ISZERO AND OR SWAP1 SSTORE JUMP JUMPDEST PUSH0 MSTORE PUSH1 0xE DUP4 MSTORE DUP8 DUP5 PUSH0 KECCAK256 SSTORE ISZERO PUSH0 EQ PUSH2 0x530A JUMPI DUP6 SWAP7 SWAP8 POP PUSH2 0x52C1 DUP5 DUP7 SWAP8 PUSH32 0xF9D17EB1340AB78960B594FF8BED1349985B800EE21199C6D5EA4A67454593AD SWAP8 PUSH2 0x5569 JUMP JUMPDEST PUSH2 0x52E4 JUMPI JUMPDEST PUSH2 0x52D9 DUP3 MLOAD SWAP4 DUP4 DUP6 SWAP5 DUP6 MSTORE DUP5 ADD SWAP1 PUSH2 0x4428 JUMP JUMPDEST SWAP1 TIMESTAMP SWAP1 DUP4 ADD MSTORE SUB SWAP1 LOG4 JUMP JUMPDEST DUP6 PUSH0 MSTORE PUSH1 0xB DUP2 MSTORE PUSH2 0x52F7 DUP6 DUP4 PUSH0 KECCAK256 PUSH2 0x4AD0 JUMP JUMPDEST PUSH2 0x5302 PUSH1 0xC SLOAD PUSH2 0x4B0C JUMP JUMPDEST PUSH1 0xC SSTORE PUSH2 0x52C6 JUMP JUMPDEST POP SWAP2 SWAP5 POP POP DUP5 MLOAD DUP2 DUP7 ADD KECCAK256 SWAP1 DUP5 MLOAD SWAP1 DUP6 ADD KECCAK256 SUB PUSH2 0x5328 JUMPI JUMPDEST POP POP POP POP JUMP JUMPDEST PUSH2 0x27B9 PUSH2 0x5336 SWAP5 DUP4 DUP4 PUSH2 0x5034 JUMP JUMPDEST PUSH0 DUP1 DUP1 DUP1 PUSH2 0x5322 JUMP JUMPDEST SWAP1 PUSH1 0x1F NOT DUP4 AND SWAP2 DUP7 PUSH0 MSTORE DUP11 PUSH0 KECCAK256 SWAP3 PUSH0 JUMPDEST DUP13 DUP3 DUP3 LT PUSH2 0x5379 JUMPI POP POP SWAP2 DUP7 SWAP6 SWAP5 SWAP3 SWAP2 DUP4 PUSH2 0x527E SWAP10 SWAP9 SWAP6 SWAP4 LT PUSH2 0x2804 JUMPI POP POP POP DUP2 SHL ADD DUP4 SSTORE PUSH2 0x26F9 JUMP JUMPDEST DUP4 DUP6 ADD MLOAD DUP7 SSTORE SWAP5 DUP9 ADD SWAP5 SWAP4 DUP5 ADD SWAP4 ADD PUSH2 0x534F JUMP JUMPDEST DUP6 PUSH0 MSTORE DUP10 PUSH0 KECCAK256 PUSH1 0x1F DUP5 ADD PUSH1 0x5 SHR DUP2 ADD SWAP2 DUP12 DUP6 LT PUSH2 0x53C9 JUMPI JUMPDEST PUSH1 0x1F ADD PUSH1 0x5 SHR ADD SWAP1 DUP6 SWAP1 JUMPDEST DUP3 DUP2 LT PUSH2 0x53BE JUMPI POP POP PUSH2 0x5239 JUMP JUMPDEST PUSH0 DUP2 SSTORE ADD DUP6 SWAP1 PUSH2 0x53B0 JUMP JUMPDEST SWAP1 SWAP2 POP DUP2 SWAP1 PUSH2 0x53A5 JUMP JUMPDEST PUSH1 0x1 PUSH1 0x1 PUSH1 0xA0 SHL SUB AND PUSH0 SWAP1 DUP2 MSTORE PUSH1 0x1 PUSH1 0x20 MSTORE PUSH1 0x40 SWAP1 KECCAK256 DUP1 SLOAD SWAP1 DUP2 ISZERO SWAP1 DUP2 ISZERO PUSH2 0x5415 JUMPI JUMPDEST POP PUSH2 0x4DD4 JUMPI PUSH0 MSTORE PUSH1 0x2 PUSH1 0x20 MSTORE PUSH1 0x3 PUSH1 0xFF PUSH1 0x40 PUSH0 KECCAK256 SLOAD AND PUSH2 0x4DBB DUP2 PUSH2 0x44E4 JUMP JUMPDEST PUSH1 0xFF SWAP2 POP PUSH1 0x1 ADD SLOAD AND ISZERO PUSH0 PUSH2 0x53F6 JUMP JUMPDEST PUSH1 0x3 DUP4 LT ISZERO PUSH2 0x44EE JUMPI DUP3 ISZERO PUSH2 0x5470 JUMPI PUSH1 0x1 SWAP2 PUSH2 0x5440 SWAP2 PUSH2 0x547B JUMP JUMPDEST SWAP2 EQ PUSH2 0x5449 JUMPI SWAP1 JUMP JUMPDEST DUP1 MLOAD PUSH1 0x20 DUP3 ADD KECCAK256 PUSH2 0x5458 PUSH2 0x4830 JUMP JUMPDEST PUSH1 0x20 DUP2 MLOAD SWAP2 ADD KECCAK256 EQ PUSH2 0x5467 JUMPI SWAP1 JUMP JUMPDEST POP PUSH2 0x4209 PUSH2 0x4851 JUMP JUMPDEST POP POP POP PUSH2 0x4209 PUSH2 0x489C JUMP JUMPDEST SWAP1 PUSH2 0x5485 SWAP2 PUSH2 0x4EB3 JUMP JUMPDEST PUSH0 MSTORE PUSH1 0x6 PUSH1 0x20 MSTORE PUSH1 0x40 PUSH0 KECCAK256 PUSH1 0xFF PUSH1 0x1 PUSH1 0x40 MLOAD SWAP3 PUSH2 0x54A1 DUP5 PUSH2 0x40C7 JUMP JUMPDEST PUSH2 0x54AA DUP2 PUSH2 0x4386 JUMP JUMPDEST DUP5 MSTORE ADD SLOAD AND ISZERO DUP1 ISZERO PUSH1 0x20 DUP4 ADD MSTORE PUSH2 0x54BF JUMPI MLOAD SWAP1 JUMP JUMPDEST POP PUSH1 0x40 MLOAD PUSH2 0x54CC DUP2 PUSH2 0x40F6 JUMP JUMPDEST PUSH0 DUP2 MSTORE SWAP1 JUMP JUMPDEST PUSH0 JUMPDEST DUP2 SLOAD SWAP1 DUP2 DUP2 LT ISZERO PUSH2 0x5322 JUMPI DUP4 SWAP2 PUSH2 0x54EB DUP3 DUP6 PUSH2 0x44BB JUMP JUMPDEST SWAP6 SWAP1 SLOAD PUSH1 0x3 SWAP7 DUP8 SHL SHR EQ PUSH2 0x5505 JUMPI POP SWAP1 SWAP3 POP PUSH1 0x1 ADD PUSH2 0x54D4 JUMP JUMPDEST PUSH0 NOT SWAP3 POP DUP3 DUP2 ADD SWAP1 DUP2 GT PUSH2 0x4B1A JUMPI PUSH2 0x4AF2 PUSH2 0x5523 PUSH2 0x5530 SWAP3 DUP7 PUSH2 0x44BB JUMP JUMPDEST SWAP1 SLOAD SWAP1 DUP8 SHL SHR SWAP3 DUP6 PUSH2 0x44BB JUMP JUMPDEST SWAP1 SSTORE DUP2 SLOAD DUP1 ISZERO PUSH2 0x5555 JUMPI DUP2 ADD SWAP3 PUSH2 0x5547 DUP5 DUP5 PUSH2 0x44BB JUMP JUMPDEST DUP2 SWAP4 SWAP2 SLOAD SWAP3 SHL SHL NOT AND SWAP1 SSTORE SSTORE JUMP JUMPDEST PUSH4 0x4E487B71 PUSH1 0xE0 SHL PUSH0 MSTORE PUSH1 0x31 PUSH1 0x4 MSTORE PUSH1 0x24 PUSH0 REVERT JUMPDEST DUP3 MLOAD PUSH1 0x20 DUP1 SWAP5 ADD KECCAK256 PUSH2 0x5579 PUSH2 0x4830 JUMP JUMPDEST DUP1 MLOAD SWAP1 DUP6 ADD KECCAK256 DUP2 SUB PUSH2 0x5599 JUMPI POP PUSH2 0x43C6 SWAP3 PUSH1 0x7 SWAP2 PUSH0 MSTORE MSTORE PUSH1 0x40 PUSH0 KECCAK256 PUSH2 0x4AD0 JUMP JUMPDEST PUSH2 0x55A1 PUSH2 0x4851 JUMP JUMPDEST DUP1 MLOAD SWAP1 DUP6 ADD KECCAK256 DUP2 SUB PUSH2 0x55C1 JUMPI POP PUSH2 0x43C6 SWAP3 PUSH1 0x8 SWAP2 PUSH0 MSTORE MSTORE PUSH1 0x40 PUSH0 KECCAK256 PUSH2 0x4AD0 JUMP JUMPDEST PUSH2 0x55C9 PUSH2 0x487A JUMP JUMPDEST DUP1 MLOAD SWAP1 DUP6 ADD KECCAK256 DUP2 SUB PUSH2 0x55E9 JUMPI POP PUSH2 0x43C6 SWAP3 PUSH1 0x9 SWAP2 PUSH0 MSTORE MSTORE PUSH1 0x40 PUSH0 KECCAK256 PUSH2 0x4AD0 JUMP JUMPDEST PUSH2 0x55F1 PUSH2 0x489C JUMP JUMPDEST DUP5 DUP2 MLOAD SWAP2 ADD KECCAK256 EQ PUSH2 0x5601 JUMPI POP POP POP JUMP JUMPDEST PUSH2 0x43C6 SWAP3 PUSH1 0xA SWAP2 PUSH0 MSTORE MSTORE PUSH1 0x40 PUSH0 KECCAK256 PUSH2 0x4AD0 JUMP JUMPDEST SWAP1 PUSH0 DUP1 SWAP2 PUSH1 0x20 DUP2 MLOAD SWAP2 ADD DUP5 GAS DELEGATECALL DUP1 DUP1 PUSH2 0x5692 JUMPI JUMPDEST ISZERO PUSH2 0x5648 JUMPI POP POP PUSH1 0x40 MLOAD RETURNDATASIZE DUP2 MSTORE RETURNDATASIZE PUSH0 PUSH1 0x20 DUP4 ADD RETURNDATACOPY PUSH1 0x20 RETURNDATASIZE DUP3 ADD ADD PUSH1 0x40 MSTORE SWAP1 JUMP JUMPDEST ISZERO PUSH2 0x566F JUMPI PUSH1 0x40 MLOAD PUSH4 0x9996B315 PUSH1 0xE0 SHL DUP2 MSTORE PUSH1 0x1 PUSH1 0x1 PUSH1 0xA0 SHL SUB SWAP1 SWAP2 AND PUSH1 0x4 DUP3 ADD MSTORE PUSH1 0x24 SWAP1 REVERT JUMPDEST RETURNDATASIZE ISZERO PUSH2 0x5680 JUMPI PUSH1 0x40 MLOAD RETURNDATASIZE PUSH0 DUP3 RETURNDATACOPY RETURNDATASIZE SWAP1 REVERT JUMPDEST PUSH1 0x40 MLOAD PUSH4 0xD6BDA275 PUSH1 0xE0 SHL DUP2 MSTORE PUSH1 0x4 SWAP1 REVERT JUMPDEST POP RETURNDATASIZE ISZERO ISZERO DUP1 PUSH2 0x5628 JUMPI POP DUP2 EXTCODESIZE ISZERO ISZERO PUSH2 0x5628 JUMP INVALID 0xD0 MCOPY 0xD2 0xD3 INVALID SELFDESTRUCT DUP5 0xC 0x2E 0xCE 0xCA PUSH18 0x791388FD3D19DBBBBCFA97031F534A7DC09F 0xBF 0x1F LOG2 PUSH5 0x6970667358 0x22 SLT KECCAK256 EXTCODESIZE SWAP7 DUP10 0xDF KECCAK256 0x1F BLOCKHASH PUSH6 0x869A7522C900 0xBE 0xAB CODESIZE 0xD8 0xE8 0xB5 0xEC 0x4B 0xAC 0xC2 RETURNDATASIZE 0x2B 0xA5 0xDD CALLCODE 0xEA RETURNDATASIZE 0x4B PUSH5 0x736F6C6343 STOP ADDMOD XOR STOP CALLER "},"methodIdentifiers":{"UPGRADE_INTERFACE_VERSION()":"ad3cb1cc","acceptTrustee(bytes32)":"b8cab84b","addMember(address,bytes32)":"49df7208","addMemberBatch(address[],bytes32)":"69ac2022","admin()":"f851a440","adminsByRecord(bytes32,uint256)":"8776cd35","bootstrapDependentTrustee(bytes32,bytes32)":"e6efcd5d","changeRole(bytes32,address,string)":"29c9087a","changeRoleBatch(bytes32[],address,string[])":"51eed472","deactivateWallet(address)":"0b3ffd1d","declineTrustee(bytes32)":"f76794f1","downgradeTrusteeLevel(bytes32,uint8)":"4d3c4a7c","getAllRecordParticipants(bytes32)":"78ad8f5b","getAllUsers()":"e2842d79","getHealthRecordCore()":"e94ed257","getRecordAdmins(bytes32)":"41a51baa","getRecordOwners(bytes32)":"c36dc9ef","getRecordRoleStats(bytes32)":"8db7edb4","getRecordSharers(bytes32)":"2ab5d8f3","getRecordViewers(bytes32)":"033e822f","getRecordsByUser(bytes32)":"6544b05b","getRoleDetails(bytes32,address)":"422a5bb8","getRoleDetailsByUser(bytes32,bytes32)":"43e19704","getRoleGranter(bytes32,bytes32)":"aaddc345","getTotalRoles()":"4b6feb7c","getTotalUsers()":"9be572f6","getTrusteeGrantedRecords(bytes32,bytes32)":"c497d840","getTrusteeRelationship(bytes32,bytes32)":"9915b91f","getUserForWallet(address)":"00b0c809","getUserStatus(bytes32)":"f29e007b","getWalletsForUser(bytes32)":"d12a7768","grantRole(bytes32,address,string)":"dde492ea","grantRoleBatch(bytes32[],address,string[])":"02ba8109","hasActiveRole(bytes32,address)":"c88c35fe","hasRole(bytes32,address,string)":"3befa410","healthRecordCore()":"562c788e","initialize()":"8129fc1c","initializeRecordRole(bytes32,address,string)":"726d5447","isActiveMember(address)":"45ecd02f","isActiveSubject(bytes32,bytes32)":"64f639d4","isControllerOf(bytes32,bytes32)":"557ee54f","isOwnerOrAdmin(bytes32,address)":"0519e2a0","isVerifiedMember(address)":"cb261a03","isVerifiedProvider(address)":"259ed80e","ownersByRecord(bytes32,uint256)":"55816079","proposeTrustee(bytes32,uint8,bytes32[])":"dc9f9664","proxiableUUID()":"52d1902d","reactivateWallet(address)":"bb0f86d5","recordRoles(bytes32)":"33105592","recordsByUser(bytes32,uint256)":"fa7a6bcc","revokeRole(bytes32,address)":"d547741f","revokeRoleBatch(bytes32[],address)":"f12b9ad3","revokeTrustee(bytes32,bytes32)":"c979c9bf","roleGrantedBy(bytes32)":"cda06c6e","setHealthRecordCore(address)":"c7155823","setUserStatus(bytes32,uint8)":"96207e02","sharersByRecord(bytes32,uint256)":"f32b10f0","totalRoles()":"790e118c","totalUsers()":"bff1f9e1","transferAdmin(address)":"75829def","trusteeRelationships(bytes32,bytes32)":"7b657d07","updateTrusteeLevel(bytes32,uint8)":"ab48384a","upgradeToAndCall(address,bytes)":"4f1ef286","userList(uint256)":"9f4216e8","userStatus(bytes32)":"6b4bed97","userWallets(bytes32,uint256)":"9443cd80","viewersByRecord(bytes32,uint256)":"93ccfba8","voluntarilyLeaveOwnership(bytes32)":"2ae8511d","wallets(address)":"89b08f11"}},"storageLayout":{"storage":[{"astId":1563,"contract":"smartContracts/MemberRoleManager.sol:MemberRoleManager","label":"admin","offset":0,"slot":"0","type":"t_address"},{"astId":1755,"contract":"smartContracts/MemberRoleManager.sol:MemberRoleManager","label":"wallets","offset":0,"slot":"1","type":"t_mapping(t_address,t_struct(UserInfo)1750_storage)"},{"astId":1760,"contract":"smartContracts/MemberRoleManager.sol:MemberRoleManager","label":"userStatus","offset":0,"slot":"2","type":"t_mapping(t_bytes32,t_enum(MemberStatus)1715)"},{"astId":1765,"contract":"smartContracts/MemberRoleManager.sol:MemberRoleManager","label":"userWallets","offset":0,"slot":"3","type":"t_mapping(t_bytes32,t_array(t_address)dyn_storage)"},{"astId":1768,"contract":"smartContracts/MemberRoleManager.sol:MemberRoleManager","label":"userList","offset":0,"slot":"4","type":"t_array(t_bytes32)dyn_storage"},{"astId":1770,"contract":"smartContracts/MemberRoleManager.sol:MemberRoleManager","label":"totalUsers","offset":0,"slot":"5","type":"t_uint256"},{"astId":2422,"contract":"smartContracts/MemberRoleManager.sol:MemberRoleManager","label":"recordRoles","offset":0,"slot":"6","type":"t_mapping(t_bytes32,t_struct(RecordRole)2417_storage)"},{"astId":2427,"contract":"smartContracts/MemberRoleManager.sol:MemberRoleManager","label":"ownersByRecord","offset":0,"slot":"7","type":"t_mapping(t_bytes32,t_array(t_bytes32)dyn_storage)"},{"astId":2432,"contract":"smartContracts/MemberRoleManager.sol:MemberRoleManager","label":"adminsByRecord","offset":0,"slot":"8","type":"t_mapping(t_bytes32,t_array(t_bytes32)dyn_storage)"},{"astId":2437,"contract":"smartContracts/MemberRoleManager.sol:MemberRoleManager","label":"sharersByRecord","offset":0,"slot":"9","type":"t_mapping(t_bytes32,t_array(t_bytes32)dyn_storage)"},{"astId":2442,"contract":"smartContracts/MemberRoleManager.sol:MemberRoleManager","label":"viewersByRecord","offset":0,"slot":"10","type":"t_mapping(t_bytes32,t_array(t_bytes32)dyn_storage)"},{"astId":2447,"contract":"smartContracts/MemberRoleManager.sol:MemberRoleManager","label":"recordsByUser","offset":0,"slot":"11","type":"t_mapping(t_bytes32,t_array(t_bytes32)dyn_storage)"},{"astId":2449,"contract":"smartContracts/MemberRoleManager.sol:MemberRoleManager","label":"totalRoles","offset":0,"slot":"12","type":"t_uint256"},{"astId":2452,"contract":"smartContracts/MemberRoleManager.sol:MemberRoleManager","label":"healthRecordCore","offset":0,"slot":"13","type":"t_contract(HealthRecordCoreInterface)1554"},{"astId":2456,"contract":"smartContracts/MemberRoleManager.sol:MemberRoleManager","label":"roleGrantedBy","offset":0,"slot":"14","type":"t_mapping(t_bytes32,t_bytes32)"},{"astId":4522,"contract":"smartContracts/MemberRoleManager.sol:MemberRoleManager","label":"trusteeRelationships","offset":0,"slot":"15","type":"t_mapping(t_bytes32,t_mapping(t_bytes32,t_struct(TrusteeRelationship)4515_storage))"},{"astId":4529,"contract":"smartContracts/MemberRoleManager.sol:MemberRoleManager","label":"_trusteeGrantedRecords","offset":0,"slot":"16","type":"t_mapping(t_bytes32,t_mapping(t_bytes32,t_array(t_bytes32)dyn_storage))"},{"astId":4537,"contract":"smartContracts/MemberRoleManager.sol:MemberRoleManager","label":"_trusteeGrantedRecordSet","offset":0,"slot":"17","type":"t_mapping(t_bytes32,t_mapping(t_bytes32,t_mapping(t_bytes32,t_bool)))"},{"astId":6247,"contract":"smartContracts/MemberRoleManager.sol:MemberRoleManager","label":"__gap","offset":0,"slot":"18","type":"t_array(t_uint256)50_storage"}],"types":{"t_address":{"encoding":"inplace","label":"address","numberOfBytes":"20"},"t_array(t_address)dyn_storage":{"base":"t_address","encoding":"dynamic_array","label":"address[]","numberOfBytes":"32"},"t_array(t_bytes32)dyn_storage":{"base":"t_bytes32","encoding":"dynamic_array","label":"bytes32[]","numberOfBytes":"32"},"t_array(t_uint256)50_storage":{"base":"t_uint256","encoding":"inplace","label":"uint256[50]","numberOfBytes":"1600"},"t_bool":{"encoding":"inplace","label":"bool","numberOfBytes":"1"},"t_bytes32":{"encoding":"inplace","label":"bytes32","numberOfBytes":"32"},"t_contract(HealthRecordCoreInterface)1554":{"encoding":"inplace","label":"contract HealthRecordCoreInterface","numberOfBytes":"20"},"t_enum(MemberStatus)1715":{"encoding":"inplace","label":"enum MemberRoleManager.MemberStatus","numberOfBytes":"1"},"t_enum(TrusteeLevel)4502":{"encoding":"inplace","label":"enum MemberRoleManager.TrusteeLevel","numberOfBytes":"1"},"t_enum(TrusteeStatus)4508":{"encoding":"inplace","label":"enum MemberRoleManager.TrusteeStatus","numberOfBytes":"1"},"t_mapping(t_address,t_struct(UserInfo)1750_storage)":{"encoding":"mapping","key":"t_address","label":"mapping(address => struct MemberRoleManager.UserInfo)","numberOfBytes":"32","value":"t_struct(UserInfo)1750_storage"},"t_mapping(t_bytes32,t_array(t_address)dyn_storage)":{"encoding":"mapping","key":"t_bytes32","label":"mapping(bytes32 => address[])","numberOfBytes":"32","value":"t_array(t_address)dyn_storage"},"t_mapping(t_bytes32,t_array(t_bytes32)dyn_storage)":{"encoding":"mapping","key":"t_bytes32","label":"mapping(bytes32 => bytes32[])","numberOfBytes":"32","value":"t_array(t_bytes32)dyn_storage"},"t_mapping(t_bytes32,t_bool)":{"encoding":"mapping","key":"t_bytes32","label":"mapping(bytes32 => bool)","numberOfBytes":"32","value":"t_bool"},"t_mapping(t_bytes32,t_bytes32)":{"encoding":"mapping","key":"t_bytes32","label":"mapping(bytes32 => bytes32)","numberOfBytes":"32","value":"t_bytes32"},"t_mapping(t_bytes32,t_enum(MemberStatus)1715)":{"encoding":"mapping","key":"t_bytes32","label":"mapping(bytes32 => enum MemberRoleManager.MemberStatus)","numberOfBytes":"32","value":"t_enum(MemberStatus)1715"},"t_mapping(t_bytes32,t_mapping(t_bytes32,t_array(t_bytes32)dyn_storage))":{"encoding":"mapping","key":"t_bytes32","label":"mapping(bytes32 => mapping(bytes32 => bytes32[]))","numberOfBytes":"32","value":"t_mapping(t_bytes32,t_array(t_bytes32)dyn_storage)"},"t_mapping(t_bytes32,t_mapping(t_bytes32,t_bool))":{"encoding":"mapping","key":"t_bytes32","label":"mapping(bytes32 => mapping(bytes32 => bool))","numberOfBytes":"32","value":"t_mapping(t_bytes32,t_bool)"},"t_mapping(t_bytes32,t_mapping(t_bytes32,t_mapping(t_bytes32,t_bool)))":{"encoding":"mapping","key":"t_bytes32","label":"mapping(bytes32 => mapping(bytes32 => mapping(bytes32 => bool)))","numberOfBytes":"32","value":"t_mapping(t_bytes32,t_mapping(t_bytes32,t_bool))"},"t_mapping(t_bytes32,t_mapping(t_bytes32,t_struct(TrusteeRelationship)4515_storage))":{"encoding":"mapping","key":"t_bytes32","label":"mapping(bytes32 => mapping(bytes32 => struct MemberRoleManager.TrusteeRelationship))","numberOfBytes":"32","value":"t_mapping(t_bytes32,t_struct(TrusteeRelationship)4515_storage)"},"t_mapping(t_bytes32,t_struct(RecordRole)2417_storage)":{"encoding":"mapping","key":"t_bytes32","label":"mapping(bytes32 => struct MemberRoleManager.RecordRole)","numberOfBytes":"32","value":"t_struct(RecordRole)2417_storage"},"t_mapping(t_bytes32,t_struct(TrusteeRelationship)4515_storage)":{"encoding":"mapping","key":"t_bytes32","label":"mapping(bytes32 => struct MemberRoleManager.TrusteeRelationship)","numberOfBytes":"32","value":"t_struct(TrusteeRelationship)4515_storage"},"t_string_storage":{"encoding":"bytes","label":"string","numberOfBytes":"32"},"t_struct(RecordRole)2417_storage":{"encoding":"inplace","label":"struct MemberRoleManager.RecordRole","members":[{"astId":2414,"contract":"smartContracts/MemberRoleManager.sol:MemberRoleManager","label":"role","offset":0,"slot":"0","type":"t_string_storage"},{"astId":2416,"contract":"smartContracts/MemberRoleManager.sol:MemberRoleManager","label":"isActive","offset":0,"slot":"1","type":"t_bool"}],"numberOfBytes":"64"},"t_struct(TrusteeRelationship)4515_storage":{"encoding":"inplace","label":"struct MemberRoleManager.TrusteeRelationship","members":[{"astId":4511,"contract":"smartContracts/MemberRoleManager.sol:MemberRoleManager","label":"status","offset":0,"slot":"0","type":"t_enum(TrusteeStatus)4508"},{"astId":4514,"contract":"smartContracts/MemberRoleManager.sol:MemberRoleManager","label":"level","offset":1,"slot":"0","type":"t_enum(TrusteeLevel)4502"}],"numberOfBytes":"32"},"t_struct(UserInfo)1750_storage":{"encoding":"inplace","label":"struct MemberRoleManager.UserInfo","members":[{"astId":1747,"contract":"smartContracts/MemberRoleManager.sol:MemberRoleManager","label":"userIdHash","offset":0,"slot":"0","type":"t_bytes32"},{"astId":1749,"contract":"smartContracts/MemberRoleManager.sol:MemberRoleManager","label":"isWalletActive","offset":0,"slot":"1","type":"t_bool"}],"numberOfBytes":"64"},"t_uint256":{"encoding":"inplace","label":"uint256","numberOfBytes":"32"}}}}}}