{"smartContracts/MemberRoleManager.sol":{"MemberRoleManager":{"abi":[{"inputs":[],"stateMutability":"nonpayable","type":"constructor"},{"inputs":[{"internalType":"address","name":"target","type":"address"}],"name":"AddressEmptyCode","type":"error"},{"inputs":[{"internalType":"address","name":"implementation","type":"address"}],"name":"ERC1967InvalidImplementation","type":"error"},{"inputs":[],"name":"ERC1967NonPayable","type":"error"},{"inputs":[],"name":"FailedCall","type":"error"},{"inputs":[],"name":"InvalidInitialization","type":"error"},{"inputs":[],"name":"NotInitializing","type":"error"},{"inputs":[],"name":"UUPSUnauthorizedCallContext","type":"error"},{"inputs":[{"internalType":"bytes32","name":"slot","type":"bytes32"}],"name":"UUPSUnsupportedProxiableUUID","type":"error"},{"anonymous":false,"inputs":[{"indexed":true,"internalType":"address","name":"oldAdmin","type":"address"},{"indexed":true,"internalType":"address","name":"newAdmin","type":"address"},{"indexed":false,"internalType":"uint256","name":"timestamp","type":"uint256"}],"name":"AdminTransferred","type":"event"},{"anonymous":false,"inputs":[{"indexed":true,"internalType":"bytes32","name":"recordIdHash","type":"bytes32"},{"indexed":true,"internalType":"bytes32","name":"grantedByIdHash","type":"bytes32"},{"indexed":true,"internalType":"bytes32","name":"guestIdHash","type":"bytes32"},{"indexed":false,"internalType":"bytes32","name":"guestEmailHash","type":"bytes32"},{"indexed":false,"internalType":"uint256","name":"expiresAt","type":"uint256"},{"indexed":false,"internalType":"uint256","name":"timestamp","type":"uint256"}],"name":"GuestAccessGranted","type":"event"},{"anonymous":false,"inputs":[{"indexed":true,"internalType":"bytes32","name":"recordIdHash","type":"bytes32"},{"indexed":true,"internalType":"bytes32","name":"revokedByIdHash","type":"bytes32"},{"indexed":true,"internalType":"bytes32","name":"guestIdHash","type":"bytes32"},{"indexed":false,"internalType":"uint256","name":"timestamp","type":"uint256"}],"name":"GuestAccessRevoked","type":"event"},{"anonymous":false,"inputs":[{"indexed":true,"internalType":"address","name":"newAddress","type":"address"},{"indexed":false,"internalType":"uint256","name":"timestamp","type":"uint256"}],"name":"HealthRecordCoreUpdated","type":"event"},{"anonymous":false,"inputs":[{"indexed":false,"internalType":"uint64","name":"version","type":"uint64"}],"name":"Initialized","type":"event"},{"anonymous":false,"inputs":[{"indexed":true,"internalType":"address","name":"wallet","type":"address"},{"indexed":true,"internalType":"bytes32","name":"userIdHash","type":"bytes32"},{"indexed":false,"internalType":"uint256","name":"timestamp","type":"uint256"}],"name":"MemberRegistered","type":"event"},{"anonymous":false,"inputs":[{"indexed":true,"internalType":"bytes32","name":"userIdHash","type":"bytes32"},{"indexed":false,"internalType":"enum MemberRoleManager.MemberStatus","name":"oldStatus","type":"uint8"},{"indexed":false,"internalType":"enum MemberRoleManager.MemberStatus","name":"newStatus","type":"uint8"},{"indexed":true,"internalType":"address","name":"changedBy","type":"address"},{"indexed":false,"internalType":"uint256","name":"timestamp","type":"uint256"}],"name":"MemberStatusChanged","type":"event"},{"anonymous":false,"inputs":[{"indexed":true,"internalType":"bytes32","name":"recordIdHash","type":"bytes32"},{"indexed":true,"internalType":"bytes32","name":"userIdHash","type":"bytes32"},{"indexed":false,"internalType":"uint256","name":"timestamp","type":"uint256"}],"name":"OwnershipVoluntarilyLeft","type":"event"},{"anonymous":false,"inputs":[{"indexed":true,"internalType":"bytes32","name":"recordIdHash","type":"bytes32"},{"indexed":true,"internalType":"bytes32","name":"targetIdHash","type":"bytes32"},{"indexed":false,"internalType":"string","name":"oldRole","type":"string"},{"indexed":false,"internalType":"string","name":"newRole","type":"string"},{"indexed":true,"internalType":"bytes32","name":"userIdHash","type":"bytes32"},{"indexed":false,"internalType":"uint256","name":"timestamp","type":"uint256"}],"name":"RoleChanged","type":"event"},{"anonymous":false,"inputs":[{"indexed":true,"internalType":"bytes32","name":"recordIdHash","type":"bytes32"},{"indexed":true,"internalType":"bytes32","name":"targetIdHash","type":"bytes32"},{"indexed":false,"internalType":"string","name":"role","type":"string"},{"indexed":true,"internalType":"bytes32","name":"userIdHash","type":"bytes32"},{"indexed":false,"internalType":"uint256","name":"timestamp","type":"uint256"}],"name":"RoleGranted","type":"event"},{"anonymous":false,"inputs":[{"indexed":true,"internalType":"bytes32","name":"recordIdHash","type":"bytes32"},{"indexed":true,"internalType":"bytes32","name":"targetIdHash","type":"bytes32"},{"indexed":false,"internalType":"string","name":"role","type":"string"},{"indexed":true,"internalType":"bytes32","name":"userIdHash","type":"bytes32"},{"indexed":false,"internalType":"uint256","name":"timestamp","type":"uint256"}],"name":"RoleRevoked","type":"event"},{"anonymous":false,"inputs":[{"indexed":true,"internalType":"bytes32","name":"trustorIdHash","type":"bytes32"},{"indexed":true,"internalType":"bytes32","name":"trusteeIdHash","type":"bytes32"},{"indexed":false,"internalType":"enum MemberRoleManager.TrusteeLevel","name":"level","type":"uint8"},{"indexed":false,"internalType":"uint256","name":"timestamp","type":"uint256"}],"name":"TrusteeAccepted","type":"event"},{"anonymous":false,"inputs":[{"indexed":true,"internalType":"bytes32","name":"trustorIdHash","type":"bytes32"},{"indexed":true,"internalType":"bytes32","name":"trusteeIdHash","type":"bytes32"},{"indexed":false,"internalType":"enum MemberRoleManager.TrusteeLevel","name":"oldLevel","type":"uint8"},{"indexed":false,"internalType":"enum MemberRoleManager.TrusteeLevel","name":"newLevel","type":"uint8"},{"indexed":false,"internalType":"uint256","name":"timestamp","type":"uint256"}],"name":"TrusteeLevelUpdated","type":"event"},{"anonymous":false,"inputs":[{"indexed":true,"internalType":"bytes32","name":"trustorIdHash","type":"bytes32"},{"indexed":true,"internalType":"bytes32","name":"trusteeIdHash","type":"bytes32"},{"indexed":false,"internalType":"enum MemberRoleManager.TrusteeLevel","name":"level","type":"uint8"},{"indexed":false,"internalType":"uint256","name":"timestamp","type":"uint256"}],"name":"TrusteeProposed","type":"event"},{"anonymous":false,"inputs":[{"indexed":true,"internalType":"bytes32","name":"trustorIdHash","type":"bytes32"},{"indexed":true,"internalType":"bytes32","name":"trusteeIdHash","type":"bytes32"},{"indexed":true,"internalType":"bytes32","name":"revokedBy","type":"bytes32"},{"indexed":false,"internalType":"uint256","name":"timestamp","type":"uint256"}],"name":"TrusteeRevoked","type":"event"},{"anonymous":false,"inputs":[{"indexed":true,"internalType":"address","name":"implementation","type":"address"}],"name":"Upgraded","type":"event"},{"anonymous":false,"inputs":[{"indexed":true,"internalType":"address","name":"wallet","type":"address"},{"indexed":true,"internalType":"bytes32","name":"userIdHash","type":"bytes32"},{"indexed":false,"internalType":"uint256","name":"timestamp","type":"uint256"}],"name":"WalletLinked","type":"event"},{"inputs":[],"name":"UPGRADE_INTERFACE_VERSION","outputs":[{"internalType":"string","name":"","type":"string"}],"stateMutability":"view","type":"function"},{"inputs":[{"internalType":"bytes32","name":"trustorIdHash","type":"bytes32"}],"name":"acceptTrustee","outputs":[],"stateMutability":"nonpayable","type":"function"},{"inputs":[{"internalType":"address","name":"wallet","type":"address"},{"internalType":"bytes32","name":"userIdHash","type":"bytes32"}],"name":"addMember","outputs":[],"stateMutability":"nonpayable","type":"function"},{"inputs":[{"internalType":"address[]","name":"walletAddresses","type":"address[]"},{"internalType":"bytes32","name":"userIdHash","type":"bytes32"}],"name":"addMemberBatch","outputs":[],"stateMutability":"nonpayable","type":"function"},{"inputs":[],"name":"admin","outputs":[{"internalType":"address","name":"","type":"address"}],"stateMutability":"view","type":"function"},{"inputs":[{"internalType":"bytes32","name":"","type":"bytes32"},{"internalType":"uint256","name":"","type":"uint256"}],"name":"adminsByRecord","outputs":[{"internalType":"bytes32","name":"","type":"bytes32"}],"stateMutability":"view","type":"function"},{"inputs":[{"internalType":"bytes32","name":"trustorIdHash","type":"bytes32"},{"internalType":"bytes32","name":"trusteeIdHash","type":"bytes32"}],"name":"bootstrapDependentTrustee","outputs":[],"stateMutability":"nonpayable","type":"function"},{"inputs":[{"internalType":"bytes32","name":"recordIdHash","type":"bytes32"},{"internalType":"address","name":"targetWallet","type":"address"},{"internalType":"string","name":"newRole","type":"string"}],"name":"changeRole","outputs":[],"stateMutability":"nonpayable","type":"function"},{"inputs":[{"internalType":"bytes32[]","name":"recordIdHashes","type":"bytes32[]"},{"internalType":"address","name":"targetWallet","type":"address"},{"internalType":"string[]","name":"newRoles","type":"string[]"}],"name":"changeRoleBatch","outputs":[],"stateMutability":"nonpayable","type":"function"},{"inputs":[{"internalType":"address","name":"wallet","type":"address"}],"name":"deactivateWallet","outputs":[],"stateMutability":"nonpayable","type":"function"},{"inputs":[],"name":"getAllUsers","outputs":[{"internalType":"bytes32[]","name":"","type":"bytes32[]"}],"stateMutability":"view","type":"function"},{"inputs":[{"internalType":"bytes32","name":"recordIdHash","type":"bytes32"},{"internalType":"bytes32","name":"guestIdHash","type":"bytes32"}],"name":"getGuestAccess","outputs":[{"internalType":"uint256","name":"grantedAt","type":"uint256"},{"internalType":"uint256","name":"expiresAt","type":"uint256"},{"internalType":"bytes32","name":"grantedByIdHash","type":"bytes32"},{"internalType":"bytes32","name":"guestEmailHash","type":"bytes32"}],"stateMutability":"view","type":"function"},{"inputs":[],"name":"getHealthRecordCore","outputs":[{"internalType":"address","name":"","type":"address"}],"stateMutability":"view","type":"function"},{"inputs":[{"internalType":"bytes32","name":"recordIdHash","type":"bytes32"}],"name":"getRecordAdmins","outputs":[{"internalType":"bytes32[]","name":"","type":"bytes32[]"}],"stateMutability":"view","type":"function"},{"inputs":[{"internalType":"bytes32","name":"recordIdHash","type":"bytes32"}],"name":"getRecordOwners","outputs":[{"internalType":"bytes32[]","name":"","type":"bytes32[]"}],"stateMutability":"view","type":"function"},{"inputs":[{"internalType":"bytes32","name":"recordIdHash","type":"bytes32"}],"name":"getRecordRoleStats","outputs":[{"internalType":"uint256","name":"ownerCount","type":"uint256"},{"internalType":"uint256","name":"adminCount","type":"uint256"},{"internalType":"uint256","name":"viewerCount","type":"uint256"}],"stateMutability":"view","type":"function"},{"inputs":[{"internalType":"bytes32","name":"recordIdHash","type":"bytes32"}],"name":"getRecordViewers","outputs":[{"internalType":"bytes32[]","name":"","type":"bytes32[]"}],"stateMutability":"view","type":"function"},{"inputs":[{"internalType":"bytes32","name":"userIdHash","type":"bytes32"}],"name":"getRecordsByUser","outputs":[{"internalType":"bytes32[]","name":"","type":"bytes32[]"}],"stateMutability":"view","type":"function"},{"inputs":[{"internalType":"bytes32","name":"recordIdHash","type":"bytes32"},{"internalType":"address","name":"wallet","type":"address"}],"name":"getRoleDetails","outputs":[{"internalType":"string","name":"role","type":"string"},{"internalType":"bool","name":"isActive","type":"bool"}],"stateMutability":"view","type":"function"},{"inputs":[{"internalType":"bytes32","name":"recordIdHash","type":"bytes32"},{"internalType":"bytes32","name":"userIdHash","type":"bytes32"}],"name":"getRoleDetailsByUser","outputs":[{"internalType":"string","name":"role","type":"string"},{"internalType":"bool","name":"isActive","type":"bool"}],"stateMutability":"view","type":"function"},{"inputs":[{"internalType":"bytes32","name":"recordIdHash","type":"bytes32"},{"internalType":"bytes32","name":"userIdHash","type":"bytes32"}],"name":"getRoleGranter","outputs":[{"internalType":"bytes32","name":"","type":"bytes32"}],"stateMutability":"view","type":"function"},{"inputs":[],"name":"getTotalRoles","outputs":[{"internalType":"uint256","name":"","type":"uint256"}],"stateMutability":"view","type":"function"},{"inputs":[],"name":"getTotalUsers","outputs":[{"internalType":"uint256","name":"","type":"uint256"}],"stateMutability":"view","type":"function"},{"inputs":[{"internalType":"bytes32","name":"trustorIdHash","type":"bytes32"},{"internalType":"bytes32","name":"trusteeIdHash","type":"bytes32"}],"name":"getTrusteeRelationship","outputs":[{"internalType":"enum MemberRoleManager.TrusteeStatus","name":"status","type":"uint8"},{"internalType":"enum MemberRoleManager.TrusteeLevel","name":"level","type":"uint8"}],"stateMutability":"view","type":"function"},{"inputs":[{"internalType":"address","name":"wallet","type":"address"}],"name":"getUserForWallet","outputs":[{"internalType":"bytes32","name":"","type":"bytes32"}],"stateMutability":"view","type":"function"},{"inputs":[{"internalType":"bytes32","name":"userIdHash","type":"bytes32"}],"name":"getUserStatus","outputs":[{"internalType":"enum MemberRoleManager.MemberStatus","name":"status","type":"uint8"}],"stateMutability":"view","type":"function"},{"inputs":[{"internalType":"bytes32","name":"userIdHash","type":"bytes32"}],"name":"getWalletsForUser","outputs":[{"internalType":"address[]","name":"","type":"address[]"}],"stateMutability":"view","type":"function"},{"inputs":[{"internalType":"bytes32[]","name":"recordIdHashes","type":"bytes32[]"},{"internalType":"address","name":"guestWallet","type":"address"},{"internalType":"bytes32","name":"guestIdHash","type":"bytes32"},{"internalType":"bytes32","name":"guestEmailHash","type":"bytes32"},{"internalType":"uint256","name":"durationSeconds","type":"uint256"}],"name":"grantGuestAccess","outputs":[],"stateMutability":"nonpayable","type":"function"},{"inputs":[{"internalType":"bytes32","name":"recordIdHash","type":"bytes32"},{"internalType":"address","name":"targetWallet","type":"address"},{"internalType":"string","name":"role","type":"string"}],"name":"grantRole","outputs":[],"stateMutability":"nonpayable","type":"function"},{"inputs":[{"internalType":"bytes32[]","name":"recordIdHashes","type":"bytes32[]"},{"internalType":"bytes32","name":"trustorIdHash","type":"bytes32"}],"name":"grantRoleAsTrusteeBatch","outputs":[],"stateMutability":"nonpayable","type":"function"},{"inputs":[{"internalType":"bytes32[]","name":"recordIdHashes","type":"bytes32[]"},{"internalType":"address","name":"targetWallet","type":"address"},{"internalType":"string[]","name":"roles","type":"string[]"}],"name":"grantRoleBatch","outputs":[],"stateMutability":"nonpayable","type":"function"},{"inputs":[{"internalType":"bytes32","name":"","type":"bytes32"},{"internalType":"bytes32","name":"","type":"bytes32"}],"name":"guestAccessByRecord","outputs":[{"internalType":"uint256","name":"grantedAt","type":"uint256"},{"internalType":"uint256","name":"expiresAt","type":"uint256"},{"internalType":"bytes32","name":"grantedByIdHash","type":"bytes32"},{"internalType":"bytes32","name":"guestEmailHash","type":"bytes32"}],"stateMutability":"view","type":"function"},{"inputs":[{"internalType":"bytes32","name":"recordIdHash","type":"bytes32"},{"internalType":"bytes32","name":"guestIdHash","type":"bytes32"}],"name":"hasActiveGuestAccess","outputs":[{"internalType":"bool","name":"","type":"bool"}],"stateMutability":"view","type":"function"},{"inputs":[{"internalType":"bytes32","name":"recordIdHash","type":"bytes32"},{"internalType":"address","name":"wallet","type":"address"}],"name":"hasActiveRole","outputs":[{"internalType":"bool","name":"","type":"bool"}],"stateMutability":"view","type":"function"},{"inputs":[{"internalType":"bytes32","name":"recordIdHash","type":"bytes32"},{"internalType":"address","name":"wallet","type":"address"},{"internalType":"string","name":"role","type":"string"}],"name":"hasRole","outputs":[{"internalType":"bool","name":"","type":"bool"}],"stateMutability":"view","type":"function"},{"inputs":[],"name":"healthRecordCore","outputs":[{"internalType":"contract HealthRecordCoreInterface","name":"","type":"address"}],"stateMutability":"view","type":"function"},{"inputs":[],"name":"initialize","outputs":[],"stateMutability":"nonpayable","type":"function"},{"inputs":[{"internalType":"bytes32","name":"recordIdHash","type":"bytes32"},{"internalType":"address","name":"targetWallet","type":"address"},{"internalType":"string","name":"role","type":"string"}],"name":"initializeRecordRole","outputs":[],"stateMutability":"nonpayable","type":"function"},{"inputs":[{"internalType":"address","name":"wallet","type":"address"}],"name":"isActiveMember","outputs":[{"internalType":"bool","name":"","type":"bool"}],"stateMutability":"view","type":"function"},{"inputs":[{"internalType":"bytes32","name":"recordIdHash","type":"bytes32"},{"internalType":"bytes32","name":"userIdHash","type":"bytes32"}],"name":"isActiveSubject","outputs":[{"internalType":"bool","name":"","type":"bool"}],"stateMutability":"view","type":"function"},{"inputs":[{"internalType":"bytes32","name":"trustorIdHash","type":"bytes32"},{"internalType":"bytes32","name":"trusteeIdHash","type":"bytes32"}],"name":"isControllerOf","outputs":[{"internalType":"bool","name":"","type":"bool"}],"stateMutability":"view","type":"function"},{"inputs":[{"internalType":"bytes32","name":"recordIdHash","type":"bytes32"},{"internalType":"address","name":"wallet","type":"address"}],"name":"isOwnerOrAdmin","outputs":[{"internalType":"bool","name":"","type":"bool"}],"stateMutability":"view","type":"function"},{"inputs":[{"internalType":"address","name":"wallet","type":"address"}],"name":"isVerifiedMember","outputs":[{"internalType":"bool","name":"","type":"bool"}],"stateMutability":"view","type":"function"},{"inputs":[{"internalType":"address","name":"wallet","type":"address"}],"name":"isVerifiedProvider","outputs":[{"internalType":"bool","name":"","type":"bool"}],"stateMutability":"view","type":"function"},{"inputs":[{"internalType":"bytes32","name":"","type":"bytes32"},{"internalType":"uint256","name":"","type":"uint256"}],"name":"ownersByRecord","outputs":[{"internalType":"bytes32","name":"","type":"bytes32"}],"stateMutability":"view","type":"function"},{"inputs":[{"internalType":"bytes32","name":"trusteeIdHash","type":"bytes32"},{"internalType":"enum MemberRoleManager.TrusteeLevel","name":"level","type":"uint8"}],"name":"proposeTrustee","outputs":[],"stateMutability":"nonpayable","type":"function"},{"inputs":[],"name":"proxiableUUID","outputs":[{"internalType":"bytes32","name":"","type":"bytes32"}],"stateMutability":"view","type":"function"},{"inputs":[{"internalType":"address","name":"wallet","type":"address"}],"name":"reactivateWallet","outputs":[],"stateMutability":"nonpayable","type":"function"},{"inputs":[{"internalType":"bytes32","name":"","type":"bytes32"}],"name":"recordRoles","outputs":[{"internalType":"string","name":"role","type":"string"},{"internalType":"bool","name":"isActive","type":"bool"}],"stateMutability":"view","type":"function"},{"inputs":[{"internalType":"bytes32","name":"","type":"bytes32"},{"internalType":"uint256","name":"","type":"uint256"}],"name":"recordsByUser","outputs":[{"internalType":"bytes32","name":"","type":"bytes32"}],"stateMutability":"view","type":"function"},{"inputs":[{"internalType":"bytes32[]","name":"recordIdHashes","type":"bytes32[]"},{"internalType":"bytes32","name":"guestIdHash","type":"bytes32"}],"name":"revokeGuestAccess","outputs":[],"stateMutability":"nonpayable","type":"function"},{"inputs":[{"internalType":"bytes32","name":"recordIdHash","type":"bytes32"},{"internalType":"address","name":"targetWallet","type":"address"}],"name":"revokeRole","outputs":[],"stateMutability":"nonpayable","type":"function"},{"inputs":[{"internalType":"bytes32[]","name":"recordIdHashes","type":"bytes32[]"},{"internalType":"address","name":"targetWallet","type":"address"}],"name":"revokeRoleBatch","outputs":[],"stateMutability":"nonpayable","type":"function"},{"inputs":[{"internalType":"bytes32","name":"trustorIdHash","type":"bytes32"},{"internalType":"bytes32","name":"trusteeIdHash","type":"bytes32"}],"name":"revokeTrustee","outputs":[],"stateMutability":"nonpayable","type":"function"},{"inputs":[{"internalType":"bytes32","name":"","type":"bytes32"}],"name":"roleGrantedBy","outputs":[{"internalType":"bytes32","name":"","type":"bytes32"}],"stateMutability":"view","type":"function"},{"inputs":[{"internalType":"address","name":"_healthRecordCore","type":"address"}],"name":"setHealthRecordCore","outputs":[],"stateMutability":"nonpayable","type":"function"},{"inputs":[{"internalType":"bytes32","name":"userIdHash","type":"bytes32"},{"internalType":"enum MemberRoleManager.MemberStatus","name":"newStatus","type":"uint8"}],"name":"setUserStatus","outputs":[],"stateMutability":"nonpayable","type":"function"},{"inputs":[],"name":"totalRoles","outputs":[{"internalType":"uint256","name":"","type":"uint256"}],"stateMutability":"view","type":"function"},{"inputs":[],"name":"totalUsers","outputs":[{"internalType":"uint256","name":"","type":"uint256"}],"stateMutability":"view","type":"function"},{"inputs":[{"internalType":"address","name":"newAdmin","type":"address"}],"name":"transferAdmin","outputs":[],"stateMutability":"nonpayable","type":"function"},{"inputs":[{"internalType":"bytes32","name":"","type":"bytes32"},{"internalType":"bytes32","name":"","type":"bytes32"}],"name":"trusteeRelationships","outputs":[{"internalType":"enum MemberRoleManager.TrusteeStatus","name":"status","type":"uint8"},{"internalType":"enum MemberRoleManager.TrusteeLevel","name":"level","type":"uint8"}],"stateMutability":"view","type":"function"},{"inputs":[{"internalType":"bytes32","name":"trusteeIdHash","type":"bytes32"},{"internalType":"enum MemberRoleManager.TrusteeLevel","name":"newLevel","type":"uint8"}],"name":"updateTrusteeLevel","outputs":[],"stateMutability":"nonpayable","type":"function"},{"inputs":[{"internalType":"address","name":"newImplementation","type":"address"},{"internalType":"bytes","name":"data","type":"bytes"}],"name":"upgradeToAndCall","outputs":[],"stateMutability":"payable","type":"function"},{"inputs":[{"internalType":"uint256","name":"","type":"uint256"}],"name":"userList","outputs":[{"internalType":"bytes32","name":"","type":"bytes32"}],"stateMutability":"view","type":"function"},{"inputs":[{"internalType":"bytes32","name":"","type":"bytes32"}],"name":"userStatus","outputs":[{"internalType":"enum MemberRoleManager.MemberStatus","name":"","type":"uint8"}],"stateMutability":"view","type":"function"},{"inputs":[{"internalType":"bytes32","name":"","type":"bytes32"},{"internalType":"uint256","name":"","type":"uint256"}],"name":"userWallets","outputs":[{"internalType":"address","name":"","type":"address"}],"stateMutability":"view","type":"function"},{"inputs":[{"internalType":"bytes32","name":"","type":"bytes32"},{"internalType":"uint256","name":"","type":"uint256"}],"name":"viewersByRecord","outputs":[{"internalType":"bytes32","name":"","type":"bytes32"}],"stateMutability":"view","type":"function"},{"inputs":[{"internalType":"bytes32","name":"recordIdHash","type":"bytes32"}],"name":"voluntarilyLeaveOwnership","outputs":[],"stateMutability":"nonpayable","type":"function"},{"inputs":[{"internalType":"address","name":"","type":"address"}],"name":"wallets","outputs":[{"internalType":"bytes32","name":"userIdHash","type":"bytes32"},{"internalType":"bool","name":"isWalletActive","type":"bool"}],"stateMutability":"view","type":"function"}],"evm":{"bytecode":{"linkReferences":{},"object":"60a08060405234620000d157306080527ff0c57e16840df040f15088dc2f81fe391c3923bec73e23a9662efc9c229c6a009081549060ff8260401c16620000c257506001600160401b036002600160401b0319828216016200007c575b6040516150879081620000d6823960805181818161256b01526127770152f35b6001600160401b031990911681179091556040519081527fc7f505b2f371ae2175ee4913f4499e1f2633a7b5936321eed1cdaeb6115181d290602090a15f80806200005c565b63f92ee8a960e01b8152600490fd5b5f80fdfe6080604090808252600480361015610015575f80fd5b5f3560e01c918262b0c80914613b155750816302ba810914613ab8578163033e822f14613a4f5781630519e2a014613a295781630591bdf4146136c45781630b3ffd1d146136075781631c0c18d8146134a05781631dc6320114613321578163259ed80e146132fc57816329c9087a14612dd15781632ae8511d14612c545781633256e5ab14612bd85781633310559214612b9b5781633befa41014612b8057816341a51baa14612b17578163422a5bb814612ae357816343e1970414612a9157816345ecd02f14612a7157816349df7208146129245781634b6feb7c14611e2a5781634f1ef2861461272757816351eed472146125cf57816352d1902d14612558578163557ee54f146124ca578163558160791461249a578163562c788e146105d757816364f639d41461247f5781636544b05b1461241657816369ac2022146122185781636b4bed971461037e578163726d544714611ec657816375829def14611e48578163790e118c14611e2a5781637b657d0714611ded5781638129fc1c14611cd05781638776cd3514611ca057816389b08f1114611c5b5781638db7edb414611c1657816393ccfba814611be65781639443cd8014611ba057816396207e0214611a625781639915b91f146119eb5781639be572f61461150b5781639f4216e81461199f578163aaddc34514611973578163ab48384a14611858578163ad3cb1cc14611814578163b8cab84b14611739578163bafc8892146115e0578163bb0f86d514611529578163bff1f9e11461150b578163c36dc9ef146114a2578163c715582314611426578163c88c35fe14611400578163c979c9bf1461129c578163cb261a031461126e578163cda06c6e14611247578163d12a776814611198578163d547741f14610d90578163dde492ea14610951578163e211e89c146108e1578163e2842d7914610861578163e6efcd5d146105ff578163e94ed257146105d7578163eec047aa14610577578163f12b9ad3146103af578163f29e007b1461037e57508063f851a440146103575763fa7a6bcc14610316575f80fd5b346103535761032436613e6f565b91905f52600a602052805f2080548310156103535760209261034591613fbd565b91905490519160031b1c8152f35b5f80fd5b5034610353575f366003190112610353575f5490516001600160a01b039091168152602090f35b823461035357602036600319011261035357602091355f52600282526103ad60ff825f20541691518092613fe6565bf35b823461035357806003193601126103535781356001600160401b038111610353576103dd9036908401613c12565b916103e6613b5f565b6103f76103f23361483a565b614034565b6001600160a01b03169081156105435750335f52600192839260209060018252805f2054935f52805f20549261042e8415156140bb565b5f955b61043757005b805186101561054157868661045786610451849a86614280565b51614937565b1561053c5761046a876104518386614280565b1561053c5786866104858161047f8588614280565b51614b56565b805f526006808952610498885f20613ebd565b9182518a8401206104a7614583565b8b815191012014610532576104c783856104c1898c614280565b51614b8a565b5f52885284875f200160ff198154169055600d88525f878120557fd05ed2d3feff840c2ececa71791388fd3d19dbbbbcfa97031f534a7dc09fbf1f61052261050f8689614280565b519289519182918b83528b830190613f5f565b428c8301520390a45b0195610431565b505050505061052b565b61052b565b005b606490602084519162461bcd60e51b8352820152600e60248201526d125b9d985b1a59081dd85b1b195d60921b6044820152fd5b82346103535761058636613e6f565b905f52600f602052815f20905f52602052805f20906105d3825491600184015493600360028201549101549151948594859094939260609260808301968352602083015260408201520152565b0390f35b8234610353575f36600319011261035357600c5490516001600160a01b039091168152602090f35b82346103535761060e36613e6f565b9161062360018060a01b035f541633146142b6565b811561082d57610634831515614333565b61064083831415614371565b815f526002602081815260ff835f20541660068110156107df57156107f257845f5281815260ff835f20541660068110156107df576106809015156143bd565b835f52600e8152825f20855f52815260ff835f205416868110156107df5780159081156107d4575b50156107835782516106b981613b75565b828152818101838152855f52600e8352845f20875f528352845f20915188811015610770576106e8908361441a565b5196600388101561075d57507fc5b2e1bd4433eb4e9e181cc803520513d39d918c96bddeebca1224e1c750963d94959661072191614432565b85857f494d010fdf588a0e83d626ea6963187bdda6f88b7007f7bf280683d3f7dea8348580518681524286820152a382519182524290820152a3005b602190634e487b7160e01b5f525260245ffd5b602189634e487b7160e01b5f525260245ffd5b8560849184519162461bcd60e51b8352820152602660248201527f52656c6174696f6e7368697020616c726561647920616374697665206f722070604482015265656e64696e6760d01b6064820152fd5b6003915014876106a8565b602187634e487b7160e01b5f525260245ffd5b8560649184519162461bcd60e51b83528201526016602482015275151c9d5cdd1bdc881b9bdd081c9959da5cdd195c995960521b6044820152fd5b5162461bcd60e51b8152602081850152600f60248201526e24b73b30b634b2103a393ab9ba37b960891b6044820152606490fd5b8234610353575f366003190112610353578051908183548082526020809201945f527f8a35acfbc15ff81a39ae7d344fd709f28e8600b4aa8c65c6b64bfe7fe36bd19b915f905b8282106108ca576105d386866108c0828b0383613bda565b5191829182613da2565b8354875295860195600193840193909101906108a8565b8234610353576020906108f336613e6f565b905f52600f8352815f20905f528252805f2090805161091181613ba4565b825490818152606060036001860154958688850152600281015486850152015491015215159182610946575b50519015158152f35b42111591508361093d565b9050346103535761096136613e2d565b9192906109706103f23361483a565b61097b841515614451565b6001600160a01b03169261099084151561449d565b6109a161099c84614c63565b6144e9565b335f5260209160018352855f2054945f52855f2054926109c28415156140bb565b8451818601206109d28785614b56565b5f526006825260ff6001895f2001541615610d4f57835f5260078252875f2054151590610a07610a00614583565b8987614cbb565b91610a1a610a136145a4565b8a88614cbb565b91610a258a88614d19565b90610a2e614583565b8051908701208103610b6c57505015610b12575015610ad0575b610a528484614b56565b5f526006815260ff6001885f20015416610a725750506105419450614941565b865162461bcd60e51b815291820152603360248201527f54617267657420616c726561647920686173206120726f6c652e2055736520636044820152721a185b99d9549bdb194a0a481a5b9cdd195859606a1b606482015260849150fd5b865162461bcd60e51b815291820181905260248201527f4f6e6c79206f776e6572732063616e206772616e74206f776e657220726f6c65604482015260649150fd5b9050610a4857865162461bcd60e51b815291820152602960248201527f4f6e6c792061646d696e6973747261746f72732063616e206772616e742066696044820152683939ba1037bbb732b960b91b606482015260849150fd5b909150610b776145a4565b8051908601208103610c015750508115610bf9575b50610a4857865162461bcd60e51b815291820152603b60248201527f4f6e6c79206f776e65727320616e642061646d696e6973747261746f7273206360448201527f616e206772616e742061646d696e6973747261746f7220726f6c650000000000606482015260849150fd5b90505f610b8c565b610c0c939193614294565b85815191012014610c20575b505050610a48565b80159081610d48575b8015610d41575b15610cd85782610cd0575b5081610cc7575b50610c50575b5f8080610c18565b610c5a8684614e4f565b51610c4857865162461bcd60e51b815291820152603c60248201527f5375626a656374206d757374206861766520616e2061637469766520726f6c6560448201527f20746f206772616e7420766965776572207065726d697373696f6e7300000000606482015260849150fd5b9050155f610c42565b91505f610c3b565b895162461bcd60e51b8152808601859052603e60248201527f4f6e6c79206f776e6572732c2061646d696e6973747261746f72732c206f722060448201527f7375626a656374732063616e206772616e742076696577657220726f6c6500006064820152608490fd5b5082610c30565b5081610c29565b60648383808b519262461bcd60e51b845283015260248201527f596f752068617665206e6f20726f6c6520666f722074686973207265636f72646044820152fd5b82346103535780600319360112610353578135610dab613b5f565b610db6821515614451565b6001600160a01b031692610dcb84151561449d565b335f5260209260018452805f2054945f52805f205493610dec8515156140bb565b610df68585614b56565b805f5260068252610e0f60ff6001855f2001541661452b565b805f5260068252610e21835f20613ebd565b93845183860120610e30614583565b848151910120811461112157878903610f59575b610e4c6145a4565b84815191012014610ec4575b5090839291610e897fd05ed2d3feff840c2ececa71791388fd3d19dbbbbcfa97031f534a7dc09fbf1f958888614b8a565b5f52600681526001825f200160ff198154169055600d81525f82812055610eb98251938385948552840190613f5f565b9042908301520390a4005b855f52600883526001845f20541160078452845f205415158115610f51575b50610e5857835162461bcd60e51b8152908101839052603960248201527f43616e6e6f74207265766f6b65206c6173742061646d696e6973747261746f7260448201527f20776974686f757420616e206f776e65722070726573656e74000000000000006064820152608490fd5b905089610ee3565b610f6b610f64614583565b8a89614cbb565b610f7d610f766145a4565b8b8a614cbb565b845f52600d86528a875f20541490610f93614294565b805190880120840361103357821561102b575b508115611023575b5015610fba575b610e44565b845162461bcd60e51b8152808301859052603e60248201527f4f6e6c79206f776e6572732c2061646d696e6973747261746f72732c206f722060448201527f746865206772616e7465722063616e207265766f6b65207669657765727300006064820152608490fd5b90508a610fae565b91508b610fa6565b821592915082611119575b50156110be5715610e44576110516145a4565b8481519101208103610fb557865f5260078452845f205415610fb557845162461bcd60e51b8152808301859052602560248201527f4f6e6c79206f776e6572732063616e207265766f6b652061646d696e6973747260448201526461746f727360d81b6064820152608490fd5b855162461bcd60e51b8152808401869052602f60248201527f4f6e6c79206f776e65727320616e642061646d696e6973747261746f7273206360448201526e616e207265766f6b6520726f6c657360881b6064820152608490fd5b90508b61103e565b845162461bcd60e51b8152808301859052604560248201527f4f776e6572732063616e6e6f74206265207265766f6b65642e204f776e65722060448201527f6d7573742075736520766f6c756e746172696c794c656176654f776e6572736860648201526434b814149760d91b608482015260a490fd5b9050346103535760209081600319360112610353578290355f5260038252805f208151928381835491828152019081935f52825f20905f5b81811061122a57505050846111e6910385613bda565b825181815293518185018190528493840192915f5b82811061120a57505050500390f35b83516001600160a01b0316855286955093810193928101926001016111fb565b82546001600160a01b0316845292840192600192830192016111d0565b823461035357602036600319011261035357602091355f52600d8252805f20549051908152f35b82346103535760203660031901126103535760209061129361128e613b49565b614df9565b90519015158152f35b8234610353576112ab36613e6f565b916112b86103f23361483a565b335f5260209060018252805f20549483861480156113f7575b156113b757835f52600e8352815f20855f52835260ff825f205416818110156113a45760028114908115611399575b501561134e5750907f6df3a6475fab2eed139f7e469995b04e85bfc5b4b8642587109cb72541f74fae91835f52600e8252805f20855f528252805f20600360ff1982541617905551428152a4005b82608492519162461bcd60e51b8352820152602160248201527f4e6f20616374697665206f722070656e64696e672072656c6174696f6e7368696044820152600760fc1b6064820152fd5b600191501487611300565b602182634e487b7160e01b5f525260245ffd5b8280606493519262461bcd60e51b845283015260248201527f4e6f74206120706172747920746f20746869732072656c6174696f6e736869706044820152fd5b508486146112d1565b823461035357806003193601126103535761129360209261141f613b5f565b90356147fd565b8234610353576020366003190112610353577fce59ad7d6dabe8a7533ed7d9bd07d276a046ac7ac9a8e8e8971da4b81104a28b6020611463613b49565b5f546001600160a01b03919061147c90831633146142b6565b1692611489841515614773565b600c80546001600160a01b0319168517905551428152a2005b90503461035357602090602060031936011261035357355f526007602052815f209180519182602085549182815201945f5260205f20915f905b8282106114f4576105d386866108c0828b0383613bda565b8354875295860195600193840193909101906114dc565b8234610353575f366003190112610353576020906005549051908152f35b90503461035357602036600319011261035357611544613b49565b5f546001600160a01b03919061155d90831633146142b6565b16805f5260019182602052611576845f205415156142ef565b815f528260205260ff83855f200154166115a557509181925f52816020525f20019060ff198254161790555f80f35b606490602085519162461bcd60e51b8352820152601560248201527457616c6c657420616c72656164792061637469766560581b6044820152fd5b8234610353576115ef36613dfc565b9190926115fe6103f23361483a565b335f5260019360209160018352835f205492855f52600e8152845f20845f528152845f209085519161162f83613b75565b549161163e60ff841682614402565b61165160ff8383019460081c168461440e565b518381101561172657600261166691146147b1565b835161167d61167482613bfb565b97519788613bda565b80875261168c601f1991613bfb565b015f5b81811061171757505050865f905b6116af575b50505061054194506148c2565b8351811015611712576116c28185614280565b5182519060038210156116ff57916116e08a959493928a8794614da3565b6116ea828a614280565b526116f58189614280565b500190919261169d565b602185634e487b7160e01b5f525260245ffd5b6116a2565b6060888201840152820161168f565b602184634e487b7160e01b5f525260245ffd5b823461035357602090816003193601126103535782359161175c6103f23361483a565b335f5260018152815f205493835f52600e8252825f20855f528252825f209081549060ff8216818110156113a4576001036117db5750916117d360ff9260027fc5b2e1bd4433eb4e9e181cc803520513d39d918c96bddeebca1224e1c750963d969585191617809155845193849160081c16614007565b4290820152a3005b845162461bcd60e51b81529081018490526013602482015272139bc81c195b991a5b99c81c1c9bdc1bdcd85b606a1b6044820152606490fd5b8234610353575f3660031901126103535780516105d39161183482613b75565b60058252640352e302e360dc1b602083015251918291602083526020830190613f5f565b9050346103535761186836613ddd565b9190926118776103f23361483a565b335f526001602052805f205492835f52600e602052815f20855f52602052815f20805460ff81168581101561196057906118b5600260ff93146147b1565b60081c1693600383101561075d57600385101561075d5782851461191d5750916117d3826119077fb36ec3c738ef8ecd9180addc815304762374b76e91c2a321831d9906ea119ade9694606096614432565b61191383518095614007565b6020840190614007565b606490602085519162461bcd60e51b8352820152601860248201527f416c72656164792074686973207472757374206c6576656c00000000000000006044820152fd5b602186634e487b7160e01b5f525260245ffd5b82346103535760209061198e61198836613e6f565b90614b56565b5f52600d8252805f20549051908152f35b82346103535760203660031901126103535781358254811015610353576020925f527f8a35acfbc15ff81a39ae7d344fd709f28e8600b4aa8c65c6b64bfe7fe36bd19b01549051908152f35b8234610353576119fa36613e6f565b905f52600e602052815f20905f52602052805f2090805191611a1b83613b75565b5491611a2a60ff841682614402565b611a3e60ff602083019460081c168461440e565b519183831015611726575192600384101561075d57506105d3905192839283614014565b8234610353578060031936011261035357813590602435600681101561035357611a9660018060a01b035f541633146142b6565b825f5260206002815260ff835f20541660068110156119605715611b6857835f526002815260ff835f20541694600686101561075d57828614611b31575090611b0491845f5260028152835f2060ff1981541660ff8416179055611afc84518097613fe6565b850190613fe6565b42908301527ff6277c6ee46649823db9a5c531db3112b4340c67179cae1932ba3420dcc37cc760603393a3005b60649184519162461bcd60e51b83528201526013602482015272416c726561647920746869732073746174757360681b6044820152fd5b8460649184519162461bcd60e51b83528201526013602482015272155cd95c881b9bdd081c9959da5cdd195c9959606a1b6044820152fd5b823461035357611baf36613e6f565b91905f526003602052805f20805483101561035357602092611bd091613fbd565b60018060a01b0391549060031b1c169051908152f35b823461035357611bf536613e6f565b91905f526009602052805f2080548310156103535760209261034591613fbd565b823461035357602036600319011261035357606091355f526007602052805f2054906008602052805f2054906009602052805f20549181519384526020840152820152f35b8234610353576020366003190112610353576001600160a01b03611c7d613b49565b165f526001602052805f2060ff6001825492015416825191825215156020820152f35b823461035357611caf36613e6f565b91905f526008602052805f2080548310156103535760209261034591613fbd565b905034610353575f366003190112610353577ff0c57e16840df040f15088dc2f81fe391c3923bec73e23a9662efc9c229c6a0090815460ff81851c1615916001600160401b03821680159081611de5575b6001149081611ddb575b159081611dd2575b50611dc4575067ffffffffffffffff198116600117835581611da5575b505f80546001600160a01b03191633179055611d6857005b805468ff00000000000000001916905551600181527fc7f505b2f371ae2175ee4913f4499e1f2633a7b5936321eed1cdaeb6115181d290602090a1005b68ffffffffffffffffff1916680100000000000000011782555f611d50565b845163f92ee8a960e01b8152fd5b9050155f611d33565b303b159150611d2b565b849150611d21565b8234610353576105d390611e0036613e6f565b905f52600e602052815f20905f52602052805f20549051918160ff80859460081c16911683614014565b8234610353575f36600319011261035357602090600b549051908152f35b823461035357602036600319011261035357602090611e65613b49565b5f5491906001600160a01b03808416917f38df5fa0f7fef0d515ca1f5388cb5790ac5885d5fca8d05d9f943e563c33a4b39190611ea33385146142b6565b16948593611eb2851515614773565b51428152a36001600160a01b031916175f55005b90503461035357611ed636613e2d565b93909260018060a01b03611eee815f541633146142b6565b611ef9841515614451565b8416611f0681151561469f565b611f1261099c87614c63565b5f526001602091818352611f34845f205496611f2f8815156142ef565b61483a565b156121d557845f5260078352835f205415806121c6575b1561218357611f5a8686614b56565b91825f5260068452845f2092611f6f84613ebd565b9260ff838551159601541692875191611f8783613b75565b8b835287830190828252845f5260068952895f2093518051916001600160401b0383116121705750611fb98554613e85565b601f811161212a575b508990601f83116001146120c35761200995949392915f91836120b8575b50505f19600383901b1c191690831b1783555b51151591019060ff801983541691151516179055565b5f52600d84525f85812055155f1461208b57509185917ff9d17eb1340ab78960b594ff8bed1349985b800ee21199c6d5ea4a67454593ad9361204d5f988888614ea6565b612065575b610eb98251938385948552840190613f5f565b858752600a815261207885838920614222565b612083600b5461425e565b600b55612052565b95949392505084518186012090845190850120036120a557005b6120b3610541948383614b8a565b614ea6565b015190505f80611fe0565b90601f19831691865f528b5f20925f5b8d8282106121165750509186959492918361200999989593106120fe575b505050811b018355611ff3565b01515f1960f88460031b161c191690555f80806120f1565b8385015186559488019493840193016120d3565b855f528a5f20601f840160051c8101918c8510612166575b601f0160051c019085905b82811061215b575050611fc2565b5f815501859061214d565b9091508190612142565b604190634e487b7160e01b5f525260245ffd5b835162461bcd60e51b8152908101839052601a60248201527f5265636f726420616c726561647920696e697469616c697a65640000000000006044820152606490fd5b5060088352835f205415611f4b565b835162461bcd60e51b8152908101839052601860248201527f4d75737420626520616e20616374697665206d656d62657200000000000000006044820152606490fd5b82346103535780600319360112610353576001600160401b03908235828111610353573660238201121561035357808401359283116103535760246005943660248660051b85010111610353575f546001600160a01b0396602435959161228290891633146142b6565b86156123dd576122938615156146e4565b855f526002936020936002855260ff845f20541690600682101561075d575015955f5b8981106122bf57005b8281851b83010135908b82169182810361035357826123458c926122e6600196151561469f565b825f5261233686808d526122fd8c5f205415614727565b8b519061230982613b75565b8682528d8181840191818352885f52528d5f209251835551151591019060ff801983541691151516179055565b835f5260038b52895f206141a0565b8215806123d6575b156123a957815f52898952875f208a60ff1982541617905561236e826141db565b612378875461425e565b87557f39d132591ee0696de49ab564e4a90e430c006561917db731a2a614dd2d245591898951428152a35b016122b6565b7f1cc138f50384be7770a8e4a34eecaa0d0c718bfaa1641af49db32532e4a5b910898951428152a36123a3565b508a61234d565b815162461bcd60e51b81526020818501526013602482015272139bc81dd85b1b195d1cc81c1c9bdd9a591959606a1b6044820152606490fd5b90503461035357602090602060031936011261035357355f52600a602052815f209180519182602085549182815201945f5260205f20915f905b828210612468576105d386866108c0828b0383613bda565b835487529586019560019384019390910190612450565b82346103535760209061129361249436613e6f565b90614d19565b8234610353576124a936613e6f565b91905f526007602052805f2080548310156103535760209261034591613fbd565b8234610353576124d936613e6f565b905f52600e602052815f20905f52602052805f20908051916124fa83613b75565b549161250960ff841682614402565b61251d60ff602083019460081c168461440e565b518381101561172657600214918261253c575b60208383519015158152f35b9091505191600383101561075d57506002602092149083612530565b8234610353575f366003190112610353577f00000000000000000000000000000000000000000000000000000000000000006001600160a01b031630036125c257602090517f360894a13ba1a3210667c828492db98dca3e2076cc3735a920a3ca505d382bbc8152f35b5163703e46dd60e11b8152fd5b8234610353576125de36613cd5565b926125eb6103f23361483a565b6125f88351855114614077565b335f5260019384936020906001602052835f20549460018060a01b03165f52835f2054936126278515156140bb565b5f965b61263057005b815187101561054157878761264f612649839a88614280565b51614c63565b1561272257612662886104518387614280565b156127225787878585848a8a61267c866104518588614280565b15612716576126bc836126b5816126af6126c39860068c976126a58f9b61047f8f918c92614280565b5f52525f20613ebd565b98614280565b5193614280565b5191614941565b7f3af67cf2057ba8ef414286fb626cd3efb02f74996e18efd455b39d8ec7ec460f6126ee8589614280565b51916126fa868c614280565b5161270b89519283924291846145cd565b0390a45b019661262a565b5050505050505061270f565b61270f565b9050816003193601126103535761273c613b49565b916024356001600160401b03811161035357366023820112156103535761276c9036906024818601359101613c72565b906001600160a01b037f000000000000000000000000000000000000000000000000000000000000000081163081149081156128f6575b506128e6576127b6815f541633146142b6565b8416918151946352d1902d60e01b86526020868681875afa5f96816128b2575b506127f257505051634c9c8ce360e01b81529182015260249150fd5b838593877f360894a13ba1a3210667c828492db98dca3e2076cc3735a920a3ca505d382bbc9081810361289c5750833b156128855780546001600160a01b0319168317905551907fbc7cd75a20ee27fd9adebab32041f755214dbc6bffa90cc0225b39da2e5c2d3b5f80a282511561286f57506105419250614fc0565b9150503461287957005b63b398979f60e01b8152fd5b8151634c9c8ce360e01b8152808701849052602490fd5b86602491845191632a87526960e21b8352820152fd5b9096506020813d6020116128de575b816128ce60209383613bda565b810103126103535751955f6127d6565b3d91506128c1565b815163703e46dd60e11b81528490fd5b9050817f360894a13ba1a3210667c828492db98dca3e2076cc3735a920a3ca505d382bbc541614155f6127a3565b90503461035357816003193601126103535761293e613b49565b916024359260018060a01b03612958815f541633146142b6565b81169261296684151561469f565b6129718515156146e4565b835f526129d66020926001845261298b855f205415614727565b6129c7855161299981613b75565b8881526001868201818152895f52818852885f209251835551151591019060ff801983541691151516179055565b865f5260038452845f206141a0565b845f526002825260ff835f20541690600682101561075d5750612a48577f39d132591ee0696de49ab564e4a90e430c006561917db731a2a614dd2d24559191845f5260028252805f20600260ff19825416179055612a33856141db565b612a3e60055461425e565b60055551428152a3005b7f1cc138f50384be7770a8e4a34eecaa0d0c718bfaa1641af49db32532e4a5b9109151428152a3005b823461035357602036600319011261035357602090611293611f2f613b49565b823461035357602090612aa661198836613e6f565b5f52600682526105d3815f20918051612abe81613b75565b60ff6001612acb86613ebd565b95868452015416151594859101525192839283613f9d565b8234610353578060031936011261035357612b0a6105d392612b03613b5f565b9035614627565b9290915192839283613f9d565b90503461035357602090602060031936011261035357355f526008602052815f209180519182602085549182815201945f5260205f20915f905b828210612b69576105d386866108c0828b0383613bda565b835487529586019560019384019390910190612b51565b823461035357602090611293612b9536613e2d565b916145fb565b90503461035357602036600319011261035357355f526006602052805f206105d360ff6001612bc984613ebd565b93015416925192839283613f9d565b823461035357612be736613e6f565b905f52600f602052815f20905f52602052805f20906105d36060825193612c0d85613ba4565b805493848652600182015495866020820152600360028401549384848401520154938491015251948594859094939260609260808301968352602083015260408201520152565b82346103535760208060031936011261035357823591612c75831515614451565b335f5260018252805f205493612c93612c8c614583565b8686614cbb565b15612d8457835f52600783526001825f20541160088452825f205415158115612d7c575b5015612d215750907f68f37cc4a32f0b24153ce9237b344b20a9717039f90d7c24f35e5c217f03e16891612ceb8585614b56565b612cfd612cf6614583565b8787614b8a565b5f52600682526001815f200160ff198154169055600d82525f8181205551428152a3005b82608492519162461bcd60e51b8352820152603160248201527f43616e6e6f74206c65617665206173206c617374206f776e65722077697468206044820152706e6f2061646d696e6973747261746f727360781b6064820152fd5b905086612cb7565b82608492519162461bcd60e51b8352820152602360248201527f596f7520617265206e6f7420616e206f776e6572206f662074686973207265636044820152621bdc9960ea1b6064820152fd5b90503461035357612de136613e2d565b9390612def6103f23361483a565b612dfa831515614451565b6001600160a01b031693612e0f85151561449d565b612e1b61099c82614c63565b335f5260209160018352805f2054955f52805f205494612e3c8615156140bb565b82518484012093612e4d8787614b56565b805f5260068252612e6660ff6001865f2001541661452b565b5f5260068152612e77835f20613ebd565b94855182870120908082146132ba57612e8e614583565b838151910120821461324657875f5260078352845f205415918215612ebb612eb4614583565b8d8c614cbb565b90612ecf8d612ec86145a4565b908d614cbb565b90612ed8614583565b805190880120850361308d571561302f575015612fed575b612ef86145a4565b848151910120149081612fd6575b50612f53575b50505090612f4e7f3af67cf2057ba8ef414286fb626cd3efb02f74996e18efd455b39d8ec7ec460f9392612f4288848989614941565b519283924291846145cd565b0390a4005b612f5e575b80612f0c565b855f52600881526001835f205411612f5857608492519162461bcd60e51b8352820152603960248201527f43616e6e6f742064656d6f746520746865206c6173742061646d696e6973747260448201527f61746f72207768656e206e6f206f776e657220657869737473000000000000006064820152fd5b9050612fe0614294565b838151910120145f612f06565b50505080606493519262461bcd60e51b845283015260248201527f4f6e6c79206f776e6572732063616e2070726f6d6f746520746f206f776e65726044820152fd5b9050612ef0575050925162461bcd60e51b815291820152602b60248201527f4f6e6c792061646d696e6973747261746f72732063616e2070726f6d6f74652060448201526a3334b939ba1037bbb732b960a91b606482015260849150fd5b6130956145a4565b805190880120850361312057508115613118575b50612ef0575050925162461bcd60e51b815291820152603b60248201527f4f6e6c79206f776e65727320616e642061646d696e6973747261746f7273206360448201527f616e2070726f6d6f746520746f2061646d696e6973747261746f720000000000606482015260849150fd5b90505f6130a9565b613128614294565b878151910120851461313d575b505050612ef0565b156131eb5781156131d4575b5015613158575b5f8080613135565b5050925162461bcd60e51b815291820152604960248201527f4f6e6c79206f776e6572732063616e2064656d6f7465206f74686572732e204160448201527f646d696e6973747261746f72732063616e206f6e6c792064656d6f746520746860648201526832b6b9b2b63b32b99760b91b608482015260a49150fd5b9050806131e2575b5f613149565b50898b146131dc565b9050613150575050925162461bcd60e51b815291820152602860248201527f4f6e6c792061646d696e6973747261746f72732063616e2064656d6f7465207460448201526737903b34b2bbb2b960c11b606482015260849150fd5b505060a492519162461bcd60e51b8352820152604360248201527f4f776e6572732063616e6e6f742062652064656d6f7465642e204f776e65722060448201527f6d75737420766f6c756e746172696c792072656d6f7665207468656d73656c7660648201526232b99760e91b6084820152fd5b5050606492519162461bcd60e51b8352820152601c60248201527f54617267657420616c726561647920686173207468697320726f6c65000000006044820152fd5b82346103535760203660031901126103535760209061129361331c613b49565b614c0d565b82346103535761333036613dfc565b61333f6103f29392933361483a565b335f526001928392602090848252805f20549261335e8151151561415e565b5f955b61336757005b8051861015610541578686868661337f849a86614280565b51805f52600f8852865f20835f528852865f20875161339d81613ba4565b815490818152878301548b82015260606003600285015494858d850152015491015215613497576133d66133cf614583565b8484614cbb565b908115613484575b831415908161347b575b50613473576133f78382614b56565b805f52600690818a5260ff878a5f20015416613440575b50507fa232dcffab2d4f0f085a4d88bc617cd25ded7d3b8d8952e99d788ca25d4435b0888851428152a45b0195613361565b61345261344b614294565b8685614b8a565b5f52885284875f200160ff198154169055600d88525f878120558c8061340e565b505050613439565b9050158d6133e8565b90506134916133cf6145a4565b906133de565b50505050613439565b8234610353576134af36613ddd565b90916134bd6103f23361483a565b335f5260209160018352815f2054926134d7851515614333565b6134e385851415614371565b845f526002815260ff835f20541660068110156107df576135059015156143bd565b835f52600e8152825f20855f52815260ff835f205416868110156107df5780159081156135fc575b50156135ba57825161353e81613b75565b6001815281810161354f848261440e565b855f52600e8352845f20875f528352845f2091518881101561077057613575908361441a565b5196600388101561075d57507f494d010fdf588a0e83d626ea6963187bdda6f88b7007f7bf280683d3f7dea8349495966135ae91614432565b6117d383518093614007565b8560649184519162461bcd60e51b8352820152601760248201527f50726f706f73616c20616c7265616479206578697374730000000000000000006044820152fd5b60039150148761352d565b823461035357602036600319011261035357613621613b49565b5f546001600160a01b03919061363a90831633146142b6565b16805f526001602052613651825f205415156142ef565b805f52600160205260ff6001835f200154161561368157600192505f52816020525f200160ff1981541690555f80f35b815162461bcd60e51b8152602081850152601760248201527f57616c6c657420616c726561647920696e6163746976650000000000000000006044820152606490fd5b82346103535760a03660031901126103535781356001600160401b038111610353576136f39036908401613c12565b906136fc613b5f565b60443591606435936084356137136103f23361483a565b335f52600195602091878352845f2054956137308551151561415e565b6001600160a01b0381169081156139ef5788156139b957821561397657815f5289855288875f205480155f1461390c5750506137a26137b1928b89519161377683613b75565b8c8352888301908282525f528189528a5f209251835551151591019060ff801983541691151516179055565b885f5260038552865f206141a0565b865f5260028352845f20600560ff198254161790556137cf876141db565b6137da60055461425e565b6005555b4201928342116138f9578798505f975b6137f457005b8051881015610541578888888861380c849c86614280565b516138178282614b56565b5f5289888a60068083528a60ff94858b825f20015416156138eb577f140d483f221b1b41aa3142be8c182589305145aafe83bed53b908d6baff35c1d956003936138618b8a614b56565b5f5286528b825f20015416156138d3575b80519361387e85613ba4565b42855285850190815281850191898352606096878701948552895f52600f8152815f20908c5f52525f2094518555518b850155516002840155519101558b518981528b8b820152428d820152a45b01976137ee565b6138e6886138df614294565b8b8a614941565b613872565b5050505050505050506138cc565b601189634e487b7160e01b5f525260245ffd5b1491506137de905057845162461bcd60e51b8152808a01849052603560248201527f47756573742077616c6c657420616c7265616479207265676973746572656420604482015274746f20646966666572656e74206964656e7469747960581b6064820152608490fd5b865162461bcd60e51b8152808c01869052601960248201527f4475726174696f6e206d75737420626520706f736974697665000000000000006044820152606490fd5b865162461bcd60e51b8152808c01869052601060248201526f125b9d985b1a590819dd595cdd08125160821b6044820152606490fd5b865162461bcd60e51b8152808c018690526014602482015273125b9d985b1a590819dd595cdd081dd85b1b195d60621b6044820152606490fd5b8234610353578060031936011261035357611293602092613a48613b5f565b9035614107565b90503461035357602090602060031936011261035357355f526009602052815f209180519182602085549182815201945f5260205f20915f905b828210613aa1576105d386866108c0828b0383613bda565b835487529586019560019384019390910190613a89565b82346103535761054190613acb36613cd5565b919092613ada6103f23361483a565b613ae78251845114614077565b335f9081526001602052818120546001600160a01b039095168152205490613b108215156140bb565b6148c2565b839034610353576020366003190112610353576020916001600160a01b03613b3b613b49565b165f52600183525f20548152f35b600435906001600160a01b038216820361035357565b602435906001600160a01b038216820361035357565b604081019081106001600160401b03821117613b9057604052565b634e487b7160e01b5f52604160045260245ffd5b608081019081106001600160401b03821117613b9057604052565b602081019081106001600160401b03821117613b9057604052565b90601f801991011681019081106001600160401b03821117613b9057604052565b6001600160401b038111613b905760051b60200190565b9080601f83011215610353576020908235613c2c81613bfb565b93613c3a6040519586613bda565b81855260208086019260051b82010192831161035357602001905b828210613c63575050505090565b81358152908301908301613c55565b9291926001600160401b038211613b905760405191613c9b601f8201601f191660200184613bda565b829481845281830111610353578281602093845f960137010152565b9080601f8301121561035357816020613cd293359101613c72565b90565b6060600319820112610353576001600160401b03916004358381116103535782613d0191600401613c12565b9260249283356001600160a01b03811681036103535793604435928084116103535782602385011215610353578360040135613d3c81613bfb565b94613d4a6040519687613bda565b8186526020946024602088019360051b830101948186116103535760248301935b868510613d7d57505050505050505090565b8435868111610353578891613d9785858594890101613cb7565b815201940193613d6b565b60209060206040818301928281528551809452019301915f5b828110613dc9575050505090565b835185529381019392810192600101613dbb565b6040906003190112610353576004359060243560038110156103535790565b604060031982011261035357600435906001600160401b03821161035357613e2691600401613c12565b9060243590565b606060031982011261035357600435916024356001600160a01b03811681036103535791604435906001600160401b03821161035357613cd291600401613cb7565b6040906003190112610353576004359060243590565b90600182811c92168015613eb3575b6020831014613e9f57565b634e487b7160e01b5f52602260045260245ffd5b91607f1691613e94565b9060405191825f8254613ecf81613e85565b908184526020946001916001811690815f14613f3d5750600114613eff575b505050613efd92500383613bda565b565b5f90815285812095935091905b818310613f25575050613efd93508201015f8080613eee565b85548884018501529485019487945091830191613f0c565b92505050613efd94925060ff191682840152151560051b8201015f8080613eee565b91908251928382525f5b848110613f89575050825f602080949584010152601f8019910116010190565b602081830181015184830182015201613f69565b90613fb5602091949394604084526040840190613f5f565b931515910152565b8054821015613fd2575f5260205f2001905f90565b634e487b7160e01b5f52603260045260245ffd5b906006821015613ff35752565b634e487b7160e01b5f52602160045260245ffd5b906003821015613ff35752565b90929160408201936004811015613ff3578252613efd9160200190614007565b1561403b57565b60405162461bcd60e51b81526020600482015260146024820152732737ba1030b71030b1ba34bb329036b2b6b132b960611b6044820152606490fd5b1561407e57565b60405162461bcd60e51b8152602060048201526015602482015274082e4e4c2f240d8cadccee8d040dad2e6dac2e8c6d605b1b6044820152606490fd5b156140c257565b60405162461bcd60e51b815260206004820152601c60248201527f5461726765742077616c6c6574206e6f742072656769737465726564000000006044820152606490fd5b6001600160a01b039091165f9081526001602052604090205490811561415857614139614132614583565b8383614cbb565b91821561414557505090565b613cd292506141526145a4565b91614cbb565b50505f90565b1561416557565b60405162461bcd60e51b8152602060048201526013602482015272139bc81c9958dbdc991cc81c1c9bdd9a591959606a1b6044820152606490fd5b8054600160401b811015613b90576141bd91600182018155613fbd565b60018060a09493941b038084549260031b9316831b921b1916179055565b600454600160401b811015613b90576001810180600455811015613fd25760045f527f8a35acfbc15ff81a39ae7d344fd709f28e8600b4aa8c65c6b64bfe7fe36bd19b0155565b805490600160401b821015613b90578161424491600161425a94018155613fbd565b819391549060031b91821b915f19901b19161790565b9055565b5f19811461426c5760010190565b634e487b7160e01b5f52601160045260245ffd5b8051821015613fd25760209160051b010190565b604051906142a182613b75565b60068252653b34b2bbb2b960d11b6020830152565b156142bd57565b60405162461bcd60e51b815260206004820152600a60248201526927b7363c9030b236b4b760b11b6044820152606490fd5b156142f657565b60405162461bcd60e51b815260206004820152601560248201527415d85b1b195d081b9bdd081c9959da5cdd195c9959605a1b6044820152606490fd5b1561433a57565b60405162461bcd60e51b815260206004820152600f60248201526e496e76616c6964207472757374656560881b6044820152606490fd5b1561437857565b60405162461bcd60e51b815260206004820152601760248201527f43616e6e6f74206170706f696e7420796f757273656c660000000000000000006044820152606490fd5b156143c457565b60405162461bcd60e51b8152602060048201526016602482015275151c9d5cdd1959481b9bdd081c9959da5cdd195c995960521b6044820152606490fd5b6004821015613ff35752565b6003821015613ff35752565b906004811015613ff35760ff80198354169116179055565b906003811015613ff35761ff0082549160081b169061ff001916179055565b1561445857565b60405162461bcd60e51b815260206004820152601e60248201527f5265636f726420494420686173682063616e6e6f7420626520656d70747900006044820152606490fd5b156144a457565b60405162461bcd60e51b815260206004820152601d60248201527f57616c6c657420616464726573732063616e6e6f74206265207a65726f0000006044820152606490fd5b156144f057565b60405162461bcd60e51b8152602060048201526013602482015272496e76616c696420726f6c6520737472696e6760681b6044820152606490fd5b1561453257565b60405162461bcd60e51b815260206004820152602360248201527f54617267657420646f6573206e6f74206861766520616e2061637469766520726044820152626f6c6560e81b6064820152608490fd5b6040519061459082613b75565b600582526437bbb732b960d91b6020830152565b604051906145b182613b75565b600d82526c30b236b4b734b9ba3930ba37b960991b6020830152565b9392916145f6906145e8604093606088526060880190613f5f565b908682036020880152613f5f565b930152565b919060018060a01b03165f52600160205260405f2054801561462057613cd292614cbb565b5050505f90565b6001600160a01b039091165f90815260016020526040902054908115614689576020929161465491614b56565b5f526006825260405f2060405161466a81613b75565b60ff600161467784613ebd565b93848452015416151593849101529190565b505060405161469781613bbf565b5f8152905f90565b156146a657565b60405162461bcd60e51b8152602060048201526016602482015275496e76616c69642077616c6c6574206164647265737360501b6044820152606490fd5b156146eb57565b60405162461bcd60e51b8152602060048201526014602482015273092dcecc2d8d2c840eae6cae440928840d0c2e6d60631b6044820152606490fd5b1561472e57565b60405162461bcd60e51b815260206004820152601960248201527f57616c6c657420616c72656164792072656769737465726564000000000000006044820152606490fd5b1561477a57565b60405162461bcd60e51b815260206004820152600f60248201526e496e76616c6964206164647265737360881b6044820152606490fd5b156147b857565b60405162461bcd60e51b815260206004820152601e60248201527f4e6f2061637469766520747275737465652072656c6174696f6e7368697000006044820152606490fd5b6001600160a01b039091165f9081526001602052604090205480156141585761482591614b56565b5f52600660205260ff600160405f2001541690565b6001600160a01b03165f90815260016020526040902080549081159081156148b2575b506148ad575f52600260205260ff60405f20541660068110159081613ff357600281149182156148a0575b821561489357505090565b909150613ff35760041490565b506003811491505f614888565b505f90565b60ff91506001015416155f61485d565b9392935f5b815181101561492f57806148e061264960019387614280565b1561492a576148f3876104518386614280565b1561492a57614906846104518386614280565b61492a57614924876149188386614280565b51866126bc858a614280565b016148c7565b614924565b505050509050565b9061482591614b56565b92919261494e8282614b56565b93845f52602060068152604090815f209661496888613ebd565b978851159160ff600180930154169185519061498382613b75565b878252858201818152835f5260068752875f2092518051906001600160401b038211613b90576149b38554613e85565b601f8111614b10575b508890601f8311600114614ac257614a0195949392915f91836120b85750505f19600383901b1c191690831b17835551151591019060ff801983541691151516179055565b5f52600d835287845f2055155f14614a8d5785969750614a448486977ff9d17eb1340ab78960b594ff8bed1349985b800ee21199c6d5ea4a67454593ad97614ea6565b614a67575b614a5c8251938385948552840190613f5f565b9042908301520390a4565b855f52600a8152614a7a85835f20614222565b614a85600b5461425e565b600b55614a49565b50919450508451818601209084519085012003614aab575b50505050565b6120b3614ab9948383614b8a565b5f808080614aa5565b90601f19831691865f528a5f20925f5b8c828210614afc57505091869594929183614a0199989593106120fe57505050811b018355611ff3565b838501518655948801949384019301614ad2565b855f52895f20601f840160051c8101918b8510614b4c575b601f0160051c019085905b828110614b415750506149bc565b5f8155018590614b33565b9091508190614b28565b906040519060208201928352604082015260408152606081018181106001600160401b03821117613b905760405251902090565b8251602080940120614b9a614583565b8051908501208103614bba5750613efd926007915f525260405f20614f29565b614bc26145a4565b8051908501208103614be25750613efd926008915f525260405f20614f29565b614bea614294565b84815191012014614bfa57505050565b613efd926009915f525260405f20614f29565b6001600160a01b03165f9081526001602052604090208054908115908115614c53575b506148ad575f52600260205260ff60405f2054166006811015613ff35760041490565b60ff91506001015416155f614c30565b60208151910120614c72614583565b602081519101208114908115614ca2575b8115614c8d575090565b9050614c97614294565b602081519101201490565b9050614cac6145a4565b60208151910120811490614c83565b60209291614cc891614b56565b5f526006825260405f20604051614cde81613b75565b60ff6001614ceb84613ebd565b938484520154161515938491015282614d0357505090565b9091506020815191012090602081519101201490565b600c546001600160a01b0316918215614620576044602092604051948593849263193d8e7560e21b8452600484015260248301525afa908115614d98575f91614d60575090565b90506020813d602011614d90575b81614d7b60209383613bda565b81010312610353575180151581036103535790565b3d9150614d6e565b6040513d5f823e3d90fd5b6003831015613ff3578215614dee57600191614dbe91614e4f565b9114614dc75790565b80516020820120614dd6614583565b6020815191012014614de55790565b50613cd26145a4565b505050613cd2614294565b6001600160a01b03165f9081526001602052604090208054908115908115614e3f575b506148ad575f52600260205260ff60405f2054166006811015613ff35760031490565b60ff91506001015416155f614e1c565b90614e5991614b56565b5f52600660205260405f2060ff600160405192614e7584613b75565b614e7e81613ebd565b84520154161580156020830152614e93575190565b50604051614ea081613bbf565b5f815290565b8251602080940120614eb6614583565b8051908501208103614ed65750613efd926007915f525260405f20614222565b614ede6145a4565b8051908501208103614efe5750613efd926008915f525260405f20614222565b614f06614294565b84815191012014614f1657505050565b613efd926009915f525260405f20614222565b5f5b81549081811015614aa5578391614f428285613fbd565b959054600396871b1c14614f5c5750909250600101614f2b565b5f19925082810190811161426c57614244614f7a614f879286613fbd565b905490871b1c9285613fbd565b905581548015614fac57810192614f9e8484613fbd565b81939154921b1b1916905555565b634e487b7160e01b5f52603160045260245ffd5b905f8091602081519101845af4808061503e575b15614ff45750506040513d81523d5f602083013e60203d82010160405290565b1561501b57604051639996b31560e01b81526001600160a01b039091166004820152602490fd5b3d1561502c576040513d5f823e3d90fd5b60405163d6bda27560e01b8152600490fd5b503d151580614fd45750813b1515614fd456fea2646970667358221220e9bc4019f36307c403afaa71fdf9894dde26537fa228f303401726cbe86ad77f64736f6c63430008180033","opcodes":"PUSH1 0xA0 DUP1 PUSH1 0x40 MSTORE CALLVALUE PUSH3 0xD1 JUMPI ADDRESS PUSH1 0x80 MSTORE PUSH32 0xF0C57E16840DF040F15088DC2F81FE391C3923BEC73E23A9662EFC9C229C6A00 SWAP1 DUP2 SLOAD SWAP1 PUSH1 0xFF DUP3 PUSH1 0x40 SHR AND PUSH3 0xC2 JUMPI POP PUSH1 0x1 PUSH1 0x1 PUSH1 0x40 SHL SUB PUSH1 0x2 PUSH1 0x1 PUSH1 0x40 SHL SUB NOT DUP3 DUP3 AND ADD PUSH3 0x7C JUMPI JUMPDEST PUSH1 0x40 MLOAD PUSH2 0x5087 SWAP1 DUP2 PUSH3 0xD6 DUP3 CODECOPY PUSH1 0x80 MLOAD DUP2 DUP2 DUP2 PUSH2 0x256B ADD MSTORE PUSH2 0x2777 ADD MSTORE RETURN JUMPDEST PUSH1 0x1 PUSH1 0x1 PUSH1 0x40 SHL SUB NOT SWAP1 SWAP2 AND DUP2 OR SWAP1 SWAP2 SSTORE PUSH1 0x40 MLOAD SWAP1 DUP2 MSTORE PUSH32 0xC7F505B2F371AE2175EE4913F4499E1F2633A7B5936321EED1CDAEB6115181D2 SWAP1 PUSH1 0x20 SWAP1 LOG1 PUSH0 DUP1 DUP1 PUSH3 0x5C JUMP JUMPDEST PUSH4 0xF92EE8A9 PUSH1 0xE0 SHL DUP2 MSTORE PUSH1 0x4 SWAP1 REVERT JUMPDEST PUSH0 DUP1 REVERT INVALID PUSH1 0x80 PUSH1 0x40 SWAP1 DUP1 DUP3 MSTORE PUSH1 0x4 DUP1 CALLDATASIZE LT ISZERO PUSH2 0x15 JUMPI PUSH0 DUP1 REVERT JUMPDEST PUSH0 CALLDATALOAD PUSH1 0xE0 SHR SWAP2 DUP3 PUSH3 0xB0C809 EQ PUSH2 0x3B15 JUMPI POP DUP2 PUSH4 0x2BA8109 EQ PUSH2 0x3AB8 JUMPI DUP2 PUSH4 0x33E822F EQ PUSH2 0x3A4F JUMPI DUP2 PUSH4 0x519E2A0 EQ PUSH2 0x3A29 JUMPI DUP2 PUSH4 0x591BDF4 EQ PUSH2 0x36C4 JUMPI DUP2 PUSH4 0xB3FFD1D EQ PUSH2 0x3607 JUMPI DUP2 PUSH4 0x1C0C18D8 EQ PUSH2 0x34A0 JUMPI DUP2 PUSH4 0x1DC63201 EQ PUSH2 0x3321 JUMPI DUP2 PUSH4 0x259ED80E EQ PUSH2 0x32FC JUMPI DUP2 PUSH4 0x29C9087A EQ PUSH2 0x2DD1 JUMPI DUP2 PUSH4 0x2AE8511D EQ PUSH2 0x2C54 JUMPI DUP2 PUSH4 0x3256E5AB EQ PUSH2 0x2BD8 JUMPI DUP2 PUSH4 0x33105592 EQ PUSH2 0x2B9B JUMPI DUP2 PUSH4 0x3BEFA410 EQ PUSH2 0x2B80 JUMPI DUP2 PUSH4 0x41A51BAA EQ PUSH2 0x2B17 JUMPI DUP2 PUSH4 0x422A5BB8 EQ PUSH2 0x2AE3 JUMPI DUP2 PUSH4 0x43E19704 EQ PUSH2 0x2A91 JUMPI DUP2 PUSH4 0x45ECD02F EQ PUSH2 0x2A71 JUMPI DUP2 PUSH4 0x49DF7208 EQ PUSH2 0x2924 JUMPI DUP2 PUSH4 0x4B6FEB7C EQ PUSH2 0x1E2A JUMPI DUP2 PUSH4 0x4F1EF286 EQ PUSH2 0x2727 JUMPI DUP2 PUSH4 0x51EED472 EQ PUSH2 0x25CF JUMPI DUP2 PUSH4 0x52D1902D EQ PUSH2 0x2558 JUMPI DUP2 PUSH4 0x557EE54F EQ PUSH2 0x24CA JUMPI DUP2 PUSH4 0x55816079 EQ PUSH2 0x249A JUMPI DUP2 PUSH4 0x562C788E EQ PUSH2 0x5D7 JUMPI DUP2 PUSH4 0x64F639D4 EQ PUSH2 0x247F JUMPI DUP2 PUSH4 0x6544B05B EQ PUSH2 0x2416 JUMPI DUP2 PUSH4 0x69AC2022 EQ PUSH2 0x2218 JUMPI DUP2 PUSH4 0x6B4BED97 EQ PUSH2 0x37E JUMPI DUP2 PUSH4 0x726D5447 EQ PUSH2 0x1EC6 JUMPI DUP2 PUSH4 0x75829DEF EQ PUSH2 0x1E48 JUMPI DUP2 PUSH4 0x790E118C EQ PUSH2 0x1E2A JUMPI DUP2 PUSH4 0x7B657D07 EQ PUSH2 0x1DED JUMPI DUP2 PUSH4 0x8129FC1C EQ PUSH2 0x1CD0 JUMPI DUP2 PUSH4 0x8776CD35 EQ PUSH2 0x1CA0 JUMPI DUP2 PUSH4 0x89B08F11 EQ PUSH2 0x1C5B JUMPI DUP2 PUSH4 0x8DB7EDB4 EQ PUSH2 0x1C16 JUMPI DUP2 PUSH4 0x93CCFBA8 EQ PUSH2 0x1BE6 JUMPI DUP2 PUSH4 0x9443CD80 EQ PUSH2 0x1BA0 JUMPI DUP2 PUSH4 0x96207E02 EQ PUSH2 0x1A62 JUMPI DUP2 PUSH4 0x9915B91F EQ PUSH2 0x19EB JUMPI DUP2 PUSH4 0x9BE572F6 EQ PUSH2 0x150B JUMPI DUP2 PUSH4 0x9F4216E8 EQ PUSH2 0x199F JUMPI DUP2 PUSH4 0xAADDC345 EQ PUSH2 0x1973 JUMPI DUP2 PUSH4 0xAB48384A EQ PUSH2 0x1858 JUMPI DUP2 PUSH4 0xAD3CB1CC EQ PUSH2 0x1814 JUMPI DUP2 PUSH4 0xB8CAB84B EQ PUSH2 0x1739 JUMPI DUP2 PUSH4 0xBAFC8892 EQ PUSH2 0x15E0 JUMPI DUP2 PUSH4 0xBB0F86D5 EQ PUSH2 0x1529 JUMPI DUP2 PUSH4 0xBFF1F9E1 EQ PUSH2 0x150B JUMPI DUP2 PUSH4 0xC36DC9EF EQ PUSH2 0x14A2 JUMPI DUP2 PUSH4 0xC7155823 EQ PUSH2 0x1426 JUMPI DUP2 PUSH4 0xC88C35FE EQ PUSH2 0x1400 JUMPI DUP2 PUSH4 0xC979C9BF EQ PUSH2 0x129C JUMPI DUP2 PUSH4 0xCB261A03 EQ PUSH2 0x126E JUMPI DUP2 PUSH4 0xCDA06C6E EQ PUSH2 0x1247 JUMPI DUP2 PUSH4 0xD12A7768 EQ PUSH2 0x1198 JUMPI DUP2 PUSH4 0xD547741F EQ PUSH2 0xD90 JUMPI DUP2 PUSH4 0xDDE492EA EQ PUSH2 0x951 JUMPI DUP2 PUSH4 0xE211E89C EQ PUSH2 0x8E1 JUMPI DUP2 PUSH4 0xE2842D79 EQ PUSH2 0x861 JUMPI DUP2 PUSH4 0xE6EFCD5D EQ PUSH2 0x5FF JUMPI DUP2 PUSH4 0xE94ED257 EQ PUSH2 0x5D7 JUMPI DUP2 PUSH4 0xEEC047AA EQ PUSH2 0x577 JUMPI DUP2 PUSH4 0xF12B9AD3 EQ PUSH2 0x3AF JUMPI DUP2 PUSH4 0xF29E007B EQ PUSH2 0x37E JUMPI POP DUP1 PUSH4 0xF851A440 EQ PUSH2 0x357 JUMPI PUSH4 0xFA7A6BCC EQ PUSH2 0x316 JUMPI PUSH0 DUP1 REVERT JUMPDEST CALLVALUE PUSH2 0x353 JUMPI PUSH2 0x324 CALLDATASIZE PUSH2 0x3E6F JUMP JUMPDEST SWAP2 SWAP1 PUSH0 MSTORE PUSH1 0xA PUSH1 0x20 MSTORE DUP1 PUSH0 KECCAK256 DUP1 SLOAD DUP4 LT ISZERO PUSH2 0x353 JUMPI PUSH1 0x20 SWAP3 PUSH2 0x345 SWAP2 PUSH2 0x3FBD JUMP JUMPDEST SWAP2 SWAP1 SLOAD SWAP1 MLOAD SWAP2 PUSH1 0x3 SHL SHR DUP2 MSTORE RETURN JUMPDEST PUSH0 DUP1 REVERT JUMPDEST POP CALLVALUE PUSH2 0x353 JUMPI PUSH0 CALLDATASIZE PUSH1 0x3 NOT ADD SLT PUSH2 0x353 JUMPI PUSH0 SLOAD SWAP1 MLOAD PUSH1 0x1 PUSH1 0x1 PUSH1 0xA0 SHL SUB SWAP1 SWAP2 AND DUP2 MSTORE PUSH1 0x20 SWAP1 RETURN JUMPDEST DUP3 CALLVALUE PUSH2 0x353 JUMPI PUSH1 0x20 CALLDATASIZE PUSH1 0x3 NOT ADD SLT PUSH2 0x353 JUMPI PUSH1 0x20 SWAP2 CALLDATALOAD PUSH0 MSTORE PUSH1 0x2 DUP3 MSTORE PUSH2 0x3AD PUSH1 0xFF DUP3 PUSH0 KECCAK256 SLOAD AND SWAP2 MLOAD DUP1 SWAP3 PUSH2 0x3FE6 JUMP JUMPDEST RETURN JUMPDEST DUP3 CALLVALUE PUSH2 0x353 JUMPI DUP1 PUSH1 0x3 NOT CALLDATASIZE ADD SLT PUSH2 0x353 JUMPI DUP2 CALLDATALOAD PUSH1 0x1 PUSH1 0x1 PUSH1 0x40 SHL SUB DUP2 GT PUSH2 0x353 JUMPI PUSH2 0x3DD SWAP1 CALLDATASIZE SWAP1 DUP5 ADD PUSH2 0x3C12 JUMP JUMPDEST SWAP2 PUSH2 0x3E6 PUSH2 0x3B5F JUMP JUMPDEST PUSH2 0x3F7 PUSH2 0x3F2 CALLER PUSH2 0x483A JUMP JUMPDEST PUSH2 0x4034 JUMP JUMPDEST PUSH1 0x1 PUSH1 0x1 PUSH1 0xA0 SHL SUB AND SWAP1 DUP2 ISZERO PUSH2 0x543 JUMPI POP CALLER PUSH0 MSTORE PUSH1 0x1 SWAP3 DUP4 SWAP3 PUSH1 0x20 SWAP1 PUSH1 0x1 DUP3 MSTORE DUP1 PUSH0 KECCAK256 SLOAD SWAP4 PUSH0 MSTORE DUP1 PUSH0 KECCAK256 SLOAD SWAP3 PUSH2 0x42E DUP5 ISZERO ISZERO PUSH2 0x40BB JUMP JUMPDEST PUSH0 SWAP6 JUMPDEST PUSH2 0x437 JUMPI STOP JUMPDEST DUP1 MLOAD DUP7 LT ISZERO PUSH2 0x541 JUMPI DUP7 DUP7 PUSH2 0x457 DUP7 PUSH2 0x451 DUP5 SWAP11 DUP7 PUSH2 0x4280 JUMP JUMPDEST MLOAD PUSH2 0x4937 JUMP JUMPDEST ISZERO PUSH2 0x53C JUMPI PUSH2 0x46A DUP8 PUSH2 0x451 DUP4 DUP7 PUSH2 0x4280 JUMP JUMPDEST ISZERO PUSH2 0x53C JUMPI DUP7 DUP7 PUSH2 0x485 DUP2 PUSH2 0x47F DUP6 DUP9 PUSH2 0x4280 JUMP JUMPDEST MLOAD PUSH2 0x4B56 JUMP JUMPDEST DUP1 PUSH0 MSTORE PUSH1 0x6 DUP1 DUP10 MSTORE PUSH2 0x498 DUP9 PUSH0 KECCAK256 PUSH2 0x3EBD JUMP JUMPDEST SWAP2 DUP3 MLOAD DUP11 DUP5 ADD KECCAK256 PUSH2 0x4A7 PUSH2 0x4583 JUMP JUMPDEST DUP12 DUP2 MLOAD SWAP2 ADD KECCAK256 EQ PUSH2 0x532 JUMPI PUSH2 0x4C7 DUP4 DUP6 PUSH2 0x4C1 DUP10 DUP13 PUSH2 0x4280 JUMP JUMPDEST MLOAD PUSH2 0x4B8A JUMP JUMPDEST PUSH0 MSTORE DUP9 MSTORE DUP5 DUP8 PUSH0 KECCAK256 ADD PUSH1 0xFF NOT DUP2 SLOAD AND SWAP1 SSTORE PUSH1 0xD DUP9 MSTORE PUSH0 DUP8 DUP2 KECCAK256 SSTORE PUSH32 0xD05ED2D3FEFF840C2ECECA71791388FD3D19DBBBBCFA97031F534A7DC09FBF1F PUSH2 0x522 PUSH2 0x50F DUP7 DUP10 PUSH2 0x4280 JUMP JUMPDEST MLOAD SWAP3 DUP10 MLOAD SWAP2 DUP3 SWAP2 DUP12 DUP4 MSTORE DUP12 DUP4 ADD SWAP1 PUSH2 0x3F5F JUMP JUMPDEST TIMESTAMP DUP13 DUP4 ADD MSTORE SUB SWAP1 LOG4 JUMPDEST ADD SWAP6 PUSH2 0x431 JUMP JUMPDEST POP POP POP POP POP PUSH2 0x52B JUMP JUMPDEST PUSH2 0x52B JUMP JUMPDEST STOP JUMPDEST PUSH1 0x64 SWAP1 PUSH1 0x20 DUP5 MLOAD SWAP2 PUSH3 0x461BCD PUSH1 0xE5 SHL DUP4 MSTORE DUP3 ADD MSTORE PUSH1 0xE PUSH1 0x24 DUP3 ADD MSTORE PUSH14 0x125B9D985B1A59081DD85B1B195D PUSH1 0x92 SHL PUSH1 0x44 DUP3 ADD MSTORE REVERT JUMPDEST DUP3 CALLVALUE PUSH2 0x353 JUMPI PUSH2 0x586 CALLDATASIZE PUSH2 0x3E6F JUMP JUMPDEST SWAP1 PUSH0 MSTORE PUSH1 0xF PUSH1 0x20 MSTORE DUP2 PUSH0 KECCAK256 SWAP1 PUSH0 MSTORE PUSH1 0x20 MSTORE DUP1 PUSH0 KECCAK256 SWAP1 PUSH2 0x5D3 DUP3 SLOAD SWAP2 PUSH1 0x1 DUP5 ADD SLOAD SWAP4 PUSH1 0x3 PUSH1 0x2 DUP3 ADD SLOAD SWAP2 ADD SLOAD SWAP2 MLOAD SWAP5 DUP6 SWAP5 DUP6 SWAP1 SWAP5 SWAP4 SWAP3 PUSH1 0x60 SWAP3 PUSH1 0x80 DUP4 ADD SWAP7 DUP4 MSTORE PUSH1 0x20 DUP4 ADD MSTORE PUSH1 0x40 DUP3 ADD MSTORE ADD MSTORE JUMP JUMPDEST SUB SWAP1 RETURN JUMPDEST DUP3 CALLVALUE PUSH2 0x353 JUMPI PUSH0 CALLDATASIZE PUSH1 0x3 NOT ADD SLT PUSH2 0x353 JUMPI PUSH1 0xC SLOAD SWAP1 MLOAD PUSH1 0x1 PUSH1 0x1 PUSH1 0xA0 SHL SUB SWAP1 SWAP2 AND DUP2 MSTORE PUSH1 0x20 SWAP1 RETURN JUMPDEST DUP3 CALLVALUE PUSH2 0x353 JUMPI PUSH2 0x60E CALLDATASIZE PUSH2 0x3E6F JUMP JUMPDEST SWAP2 PUSH2 0x623 PUSH1 0x1 DUP1 PUSH1 0xA0 SHL SUB PUSH0 SLOAD AND CALLER EQ PUSH2 0x42B6 JUMP JUMPDEST DUP2 ISZERO PUSH2 0x82D JUMPI PUSH2 0x634 DUP4 ISZERO ISZERO PUSH2 0x4333 JUMP JUMPDEST PUSH2 0x640 DUP4 DUP4 EQ ISZERO PUSH2 0x4371 JUMP JUMPDEST DUP2 PUSH0 MSTORE PUSH1 0x2 PUSH1 0x20 DUP2 DUP2 MSTORE PUSH1 0xFF DUP4 PUSH0 KECCAK256 SLOAD AND PUSH1 0x6 DUP2 LT ISZERO PUSH2 0x7DF JUMPI ISZERO PUSH2 0x7F2 JUMPI DUP5 PUSH0 MSTORE DUP2 DUP2 MSTORE PUSH1 0xFF DUP4 PUSH0 KECCAK256 SLOAD AND PUSH1 0x6 DUP2 LT ISZERO PUSH2 0x7DF JUMPI PUSH2 0x680 SWAP1 ISZERO ISZERO PUSH2 0x43BD JUMP JUMPDEST DUP4 PUSH0 MSTORE PUSH1 0xE DUP2 MSTORE DUP3 PUSH0 KECCAK256 DUP6 PUSH0 MSTORE DUP2 MSTORE PUSH1 0xFF DUP4 PUSH0 KECCAK256 SLOAD AND DUP7 DUP2 LT ISZERO PUSH2 0x7DF JUMPI DUP1 ISZERO SWAP1 DUP2 ISZERO PUSH2 0x7D4 JUMPI JUMPDEST POP ISZERO PUSH2 0x783 JUMPI DUP3 MLOAD PUSH2 0x6B9 DUP2 PUSH2 0x3B75 JUMP JUMPDEST DUP3 DUP2 MSTORE DUP2 DUP2 ADD DUP4 DUP2 MSTORE DUP6 PUSH0 MSTORE PUSH1 0xE DUP4 MSTORE DUP5 PUSH0 KECCAK256 DUP8 PUSH0 MSTORE DUP4 MSTORE DUP5 PUSH0 KECCAK256 SWAP2 MLOAD DUP9 DUP2 LT ISZERO PUSH2 0x770 JUMPI PUSH2 0x6E8 SWAP1 DUP4 PUSH2 0x441A JUMP JUMPDEST MLOAD SWAP7 PUSH1 0x3 DUP9 LT ISZERO PUSH2 0x75D JUMPI POP PUSH32 0xC5B2E1BD4433EB4E9E181CC803520513D39D918C96BDDEEBCA1224E1C750963D SWAP5 SWAP6 SWAP7 PUSH2 0x721 SWAP2 PUSH2 0x4432 JUMP JUMPDEST DUP6 DUP6 PUSH32 0x494D010FDF588A0E83D626EA6963187BDDA6F88B7007F7BF280683D3F7DEA834 DUP6 DUP1 MLOAD DUP7 DUP2 MSTORE TIMESTAMP DUP7 DUP3 ADD MSTORE LOG3 DUP3 MLOAD SWAP2 DUP3 MSTORE TIMESTAMP SWAP1 DUP3 ADD MSTORE LOG3 STOP JUMPDEST PUSH1 0x21 SWAP1 PUSH4 0x4E487B71 PUSH1 0xE0 SHL PUSH0 MSTORE MSTORE PUSH1 0x24 PUSH0 REVERT JUMPDEST PUSH1 0x21 DUP10 PUSH4 0x4E487B71 PUSH1 0xE0 SHL PUSH0 MSTORE MSTORE PUSH1 0x24 PUSH0 REVERT JUMPDEST DUP6 PUSH1 0x84 SWAP2 DUP5 MLOAD SWAP2 PUSH3 0x461BCD PUSH1 0xE5 SHL DUP4 MSTORE DUP3 ADD MSTORE PUSH1 0x26 PUSH1 0x24 DUP3 ADD MSTORE PUSH32 0x52656C6174696F6E7368697020616C726561647920616374697665206F722070 PUSH1 0x44 DUP3 ADD MSTORE PUSH6 0x656E64696E67 PUSH1 0xD0 SHL PUSH1 0x64 DUP3 ADD MSTORE REVERT JUMPDEST PUSH1 0x3 SWAP2 POP EQ DUP8 PUSH2 0x6A8 JUMP JUMPDEST PUSH1 0x21 DUP8 PUSH4 0x4E487B71 PUSH1 0xE0 SHL PUSH0 MSTORE MSTORE PUSH1 0x24 PUSH0 REVERT JUMPDEST DUP6 PUSH1 0x64 SWAP2 DUP5 MLOAD SWAP2 PUSH3 0x461BCD PUSH1 0xE5 SHL DUP4 MSTORE DUP3 ADD MSTORE PUSH1 0x16 PUSH1 0x24 DUP3 ADD MSTORE PUSH22 0x151C9D5CDD1BDC881B9BDD081C9959DA5CDD195C9959 PUSH1 0x52 SHL PUSH1 0x44 DUP3 ADD MSTORE REVERT JUMPDEST MLOAD PUSH3 0x461BCD PUSH1 0xE5 SHL DUP2 MSTORE PUSH1 0x20 DUP2 DUP6 ADD MSTORE PUSH1 0xF PUSH1 0x24 DUP3 ADD MSTORE PUSH15 0x24B73B30B634B2103A393AB9BA37B9 PUSH1 0x89 SHL PUSH1 0x44 DUP3 ADD MSTORE PUSH1 0x64 SWAP1 REVERT JUMPDEST DUP3 CALLVALUE PUSH2 0x353 JUMPI PUSH0 CALLDATASIZE PUSH1 0x3 NOT ADD SLT PUSH2 0x353 JUMPI DUP1 MLOAD SWAP1 DUP2 DUP4 SLOAD DUP1 DUP3 MSTORE PUSH1 0x20 DUP1 SWAP3 ADD SWAP5 PUSH0 MSTORE PUSH32 0x8A35ACFBC15FF81A39AE7D344FD709F28E8600B4AA8C65C6B64BFE7FE36BD19B SWAP2 PUSH0 SWAP1 JUMPDEST DUP3 DUP3 LT PUSH2 0x8CA JUMPI PUSH2 0x5D3 DUP7 DUP7 PUSH2 0x8C0 DUP3 DUP12 SUB DUP4 PUSH2 0x3BDA JUMP JUMPDEST MLOAD SWAP2 DUP3 SWAP2 DUP3 PUSH2 0x3DA2 JUMP JUMPDEST DUP4 SLOAD DUP8 MSTORE SWAP6 DUP7 ADD SWAP6 PUSH1 0x1 SWAP4 DUP5 ADD SWAP4 SWAP1 SWAP2 ADD SWAP1 PUSH2 0x8A8 JUMP JUMPDEST DUP3 CALLVALUE PUSH2 0x353 JUMPI PUSH1 0x20 SWAP1 PUSH2 0x8F3 CALLDATASIZE PUSH2 0x3E6F JUMP JUMPDEST SWAP1 PUSH0 MSTORE PUSH1 0xF DUP4 MSTORE DUP2 PUSH0 KECCAK256 SWAP1 PUSH0 MSTORE DUP3 MSTORE DUP1 PUSH0 KECCAK256 SWAP1 DUP1 MLOAD PUSH2 0x911 DUP2 PUSH2 0x3BA4 JUMP JUMPDEST DUP3 SLOAD SWAP1 DUP2 DUP2 MSTORE PUSH1 0x60 PUSH1 0x3 PUSH1 0x1 DUP7 ADD SLOAD SWAP6 DUP7 DUP9 DUP6 ADD MSTORE PUSH1 0x2 DUP2 ADD SLOAD DUP7 DUP6 ADD MSTORE ADD SLOAD SWAP2 ADD MSTORE ISZERO ISZERO SWAP2 DUP3 PUSH2 0x946 JUMPI JUMPDEST POP MLOAD SWAP1 ISZERO ISZERO DUP2 MSTORE RETURN JUMPDEST TIMESTAMP GT ISZERO SWAP2 POP DUP4 PUSH2 0x93D JUMP JUMPDEST SWAP1 POP CALLVALUE PUSH2 0x353 JUMPI PUSH2 0x961 CALLDATASIZE PUSH2 0x3E2D JUMP JUMPDEST SWAP2 SWAP3 SWAP1 PUSH2 0x970 PUSH2 0x3F2 CALLER PUSH2 0x483A JUMP JUMPDEST PUSH2 0x97B DUP5 ISZERO ISZERO PUSH2 0x4451 JUMP JUMPDEST PUSH1 0x1 PUSH1 0x1 PUSH1 0xA0 SHL SUB AND SWAP3 PUSH2 0x990 DUP5 ISZERO ISZERO PUSH2 0x449D JUMP JUMPDEST PUSH2 0x9A1 PUSH2 0x99C DUP5 PUSH2 0x4C63 JUMP JUMPDEST PUSH2 0x44E9 JUMP JUMPDEST CALLER PUSH0 MSTORE PUSH1 0x20 SWAP2 PUSH1 0x1 DUP4 MSTORE DUP6 PUSH0 KECCAK256 SLOAD SWAP5 PUSH0 MSTORE DUP6 PUSH0 KECCAK256 SLOAD SWAP3 PUSH2 0x9C2 DUP5 ISZERO ISZERO PUSH2 0x40BB JUMP JUMPDEST DUP5 MLOAD DUP2 DUP7 ADD KECCAK256 PUSH2 0x9D2 DUP8 DUP6 PUSH2 0x4B56 JUMP JUMPDEST PUSH0 MSTORE PUSH1 0x6 DUP3 MSTORE PUSH1 0xFF PUSH1 0x1 DUP10 PUSH0 KECCAK256 ADD SLOAD AND ISZERO PUSH2 0xD4F JUMPI DUP4 PUSH0 MSTORE PUSH1 0x7 DUP3 MSTORE DUP8 PUSH0 KECCAK256 SLOAD ISZERO ISZERO SWAP1 PUSH2 0xA07 PUSH2 0xA00 PUSH2 0x4583 JUMP JUMPDEST DUP10 DUP8 PUSH2 0x4CBB JUMP JUMPDEST SWAP2 PUSH2 0xA1A PUSH2 0xA13 PUSH2 0x45A4 JUMP JUMPDEST DUP11 DUP9 PUSH2 0x4CBB JUMP JUMPDEST SWAP2 PUSH2 0xA25 DUP11 DUP9 PUSH2 0x4D19 JUMP JUMPDEST SWAP1 PUSH2 0xA2E PUSH2 0x4583 JUMP JUMPDEST DUP1 MLOAD SWAP1 DUP8 ADD KECCAK256 DUP2 SUB PUSH2 0xB6C JUMPI POP POP ISZERO PUSH2 0xB12 JUMPI POP ISZERO PUSH2 0xAD0 JUMPI JUMPDEST PUSH2 0xA52 DUP5 DUP5 PUSH2 0x4B56 JUMP JUMPDEST PUSH0 MSTORE PUSH1 0x6 DUP2 MSTORE PUSH1 0xFF PUSH1 0x1 DUP9 PUSH0 KECCAK256 ADD SLOAD AND PUSH2 0xA72 JUMPI POP POP PUSH2 0x541 SWAP5 POP PUSH2 0x4941 JUMP JUMPDEST DUP7 MLOAD PUSH3 0x461BCD PUSH1 0xE5 SHL DUP2 MSTORE SWAP2 DUP3 ADD MSTORE PUSH1 0x33 PUSH1 0x24 DUP3 ADD MSTORE PUSH32 0x54617267657420616C726561647920686173206120726F6C652E205573652063 PUSH1 0x44 DUP3 ADD MSTORE PUSH19 0x1A185B99D9549BDB194A0A481A5B9CDD195859 PUSH1 0x6A SHL PUSH1 0x64 DUP3 ADD MSTORE PUSH1 0x84 SWAP2 POP REVERT JUMPDEST DUP7 MLOAD PUSH3 0x461BCD PUSH1 0xE5 SHL DUP2 MSTORE SWAP2 DUP3 ADD DUP2 SWAP1 MSTORE PUSH1 0x24 DUP3 ADD MSTORE PUSH32 0x4F6E6C79206F776E6572732063616E206772616E74206F776E657220726F6C65 PUSH1 0x44 DUP3 ADD MSTORE PUSH1 0x64 SWAP2 POP REVERT JUMPDEST SWAP1 POP PUSH2 0xA48 JUMPI DUP7 MLOAD PUSH3 0x461BCD PUSH1 0xE5 SHL DUP2 MSTORE SWAP2 DUP3 ADD MSTORE PUSH1 0x29 PUSH1 0x24 DUP3 ADD MSTORE PUSH32 0x4F6E6C792061646D696E6973747261746F72732063616E206772616E74206669 PUSH1 0x44 DUP3 ADD MSTORE PUSH9 0x3939BA1037BBB732B9 PUSH1 0xB9 SHL PUSH1 0x64 DUP3 ADD MSTORE PUSH1 0x84 SWAP2 POP REVERT JUMPDEST SWAP1 SWAP2 POP PUSH2 0xB77 PUSH2 0x45A4 JUMP JUMPDEST DUP1 MLOAD SWAP1 DUP7 ADD KECCAK256 DUP2 SUB PUSH2 0xC01 JUMPI POP POP DUP2 ISZERO PUSH2 0xBF9 JUMPI JUMPDEST POP PUSH2 0xA48 JUMPI DUP7 MLOAD PUSH3 0x461BCD PUSH1 0xE5 SHL DUP2 MSTORE SWAP2 DUP3 ADD MSTORE PUSH1 0x3B PUSH1 0x24 DUP3 ADD MSTORE PUSH32 0x4F6E6C79206F776E65727320616E642061646D696E6973747261746F72732063 PUSH1 0x44 DUP3 ADD MSTORE PUSH32 0x616E206772616E742061646D696E6973747261746F7220726F6C650000000000 PUSH1 0x64 DUP3 ADD MSTORE PUSH1 0x84 SWAP2 POP REVERT JUMPDEST SWAP1 POP PUSH0 PUSH2 0xB8C JUMP JUMPDEST PUSH2 0xC0C SWAP4 SWAP2 SWAP4 PUSH2 0x4294 JUMP JUMPDEST DUP6 DUP2 MLOAD SWAP2 ADD KECCAK256 EQ PUSH2 0xC20 JUMPI JUMPDEST POP POP POP PUSH2 0xA48 JUMP JUMPDEST DUP1 ISZERO SWAP1 DUP2 PUSH2 0xD48 JUMPI JUMPDEST DUP1 ISZERO PUSH2 0xD41 JUMPI JUMPDEST ISZERO PUSH2 0xCD8 JUMPI DUP3 PUSH2 0xCD0 JUMPI JUMPDEST POP DUP2 PUSH2 0xCC7 JUMPI JUMPDEST POP PUSH2 0xC50 JUMPI JUMPDEST PUSH0 DUP1 DUP1 PUSH2 0xC18 JUMP JUMPDEST PUSH2 0xC5A DUP7 DUP5 PUSH2 0x4E4F JUMP JUMPDEST MLOAD PUSH2 0xC48 JUMPI DUP7 MLOAD PUSH3 0x461BCD PUSH1 0xE5 SHL DUP2 MSTORE SWAP2 DUP3 ADD MSTORE PUSH1 0x3C PUSH1 0x24 DUP3 ADD MSTORE PUSH32 0x5375626A656374206D757374206861766520616E2061637469766520726F6C65 PUSH1 0x44 DUP3 ADD MSTORE PUSH32 0x20746F206772616E7420766965776572207065726D697373696F6E7300000000 PUSH1 0x64 DUP3 ADD MSTORE PUSH1 0x84 SWAP2 POP REVERT JUMPDEST SWAP1 POP ISZERO PUSH0 PUSH2 0xC42 JUMP JUMPDEST SWAP2 POP PUSH0 PUSH2 0xC3B JUMP JUMPDEST DUP10 MLOAD PUSH3 0x461BCD PUSH1 0xE5 SHL DUP2 MSTORE DUP1 DUP7 ADD DUP6 SWAP1 MSTORE PUSH1 0x3E PUSH1 0x24 DUP3 ADD MSTORE PUSH32 0x4F6E6C79206F776E6572732C2061646D696E6973747261746F72732C206F7220 PUSH1 0x44 DUP3 ADD MSTORE PUSH32 0x7375626A656374732063616E206772616E742076696577657220726F6C650000 PUSH1 0x64 DUP3 ADD MSTORE PUSH1 0x84 SWAP1 REVERT JUMPDEST POP DUP3 PUSH2 0xC30 JUMP JUMPDEST POP DUP2 PUSH2 0xC29 JUMP JUMPDEST PUSH1 0x64 DUP4 DUP4 DUP1 DUP12 MLOAD SWAP3 PUSH3 0x461BCD PUSH1 0xE5 SHL DUP5 MSTORE DUP4 ADD MSTORE PUSH1 0x24 DUP3 ADD MSTORE PUSH32 0x596F752068617665206E6F20726F6C6520666F722074686973207265636F7264 PUSH1 0x44 DUP3 ADD MSTORE REVERT JUMPDEST DUP3 CALLVALUE PUSH2 0x353 JUMPI DUP1 PUSH1 0x3 NOT CALLDATASIZE ADD SLT PUSH2 0x353 JUMPI DUP2 CALLDATALOAD PUSH2 0xDAB PUSH2 0x3B5F JUMP JUMPDEST PUSH2 0xDB6 DUP3 ISZERO ISZERO PUSH2 0x4451 JUMP JUMPDEST PUSH1 0x1 PUSH1 0x1 PUSH1 0xA0 SHL SUB AND SWAP3 PUSH2 0xDCB DUP5 ISZERO ISZERO PUSH2 0x449D JUMP JUMPDEST CALLER PUSH0 MSTORE PUSH1 0x20 SWAP3 PUSH1 0x1 DUP5 MSTORE DUP1 PUSH0 KECCAK256 SLOAD SWAP5 PUSH0 MSTORE DUP1 PUSH0 KECCAK256 SLOAD SWAP4 PUSH2 0xDEC DUP6 ISZERO ISZERO PUSH2 0x40BB JUMP JUMPDEST PUSH2 0xDF6 DUP6 DUP6 PUSH2 0x4B56 JUMP JUMPDEST DUP1 PUSH0 MSTORE PUSH1 0x6 DUP3 MSTORE PUSH2 0xE0F PUSH1 0xFF PUSH1 0x1 DUP6 PUSH0 KECCAK256 ADD SLOAD AND PUSH2 0x452B JUMP JUMPDEST DUP1 PUSH0 MSTORE PUSH1 0x6 DUP3 MSTORE PUSH2 0xE21 DUP4 PUSH0 KECCAK256 PUSH2 0x3EBD JUMP JUMPDEST SWAP4 DUP5 MLOAD DUP4 DUP7 ADD KECCAK256 PUSH2 0xE30 PUSH2 0x4583 JUMP JUMPDEST DUP5 DUP2 MLOAD SWAP2 ADD KECCAK256 DUP2 EQ PUSH2 0x1121 JUMPI DUP8 DUP10 SUB PUSH2 0xF59 JUMPI JUMPDEST PUSH2 0xE4C PUSH2 0x45A4 JUMP JUMPDEST DUP5 DUP2 MLOAD SWAP2 ADD KECCAK256 EQ PUSH2 0xEC4 JUMPI JUMPDEST POP SWAP1 DUP4 SWAP3 SWAP2 PUSH2 0xE89 PUSH32 0xD05ED2D3FEFF840C2ECECA71791388FD3D19DBBBBCFA97031F534A7DC09FBF1F SWAP6 DUP9 DUP9 PUSH2 0x4B8A JUMP JUMPDEST PUSH0 MSTORE PUSH1 0x6 DUP2 MSTORE PUSH1 0x1 DUP3 PUSH0 KECCAK256 ADD PUSH1 0xFF NOT DUP2 SLOAD AND SWAP1 SSTORE PUSH1 0xD DUP2 MSTORE PUSH0 DUP3 DUP2 KECCAK256 SSTORE PUSH2 0xEB9 DUP3 MLOAD SWAP4 DUP4 DUP6 SWAP5 DUP6 MSTORE DUP5 ADD SWAP1 PUSH2 0x3F5F JUMP JUMPDEST SWAP1 TIMESTAMP SWAP1 DUP4 ADD MSTORE SUB SWAP1 LOG4 STOP JUMPDEST DUP6 PUSH0 MSTORE PUSH1 0x8 DUP4 MSTORE PUSH1 0x1 DUP5 PUSH0 KECCAK256 SLOAD GT PUSH1 0x7 DUP5 MSTORE DUP5 PUSH0 KECCAK256 SLOAD ISZERO ISZERO DUP2 ISZERO PUSH2 0xF51 JUMPI JUMPDEST POP PUSH2 0xE58 JUMPI DUP4 MLOAD PUSH3 0x461BCD PUSH1 0xE5 SHL DUP2 MSTORE SWAP1 DUP2 ADD DUP4 SWAP1 MSTORE PUSH1 0x39 PUSH1 0x24 DUP3 ADD MSTORE PUSH32 0x43616E6E6F74207265766F6B65206C6173742061646D696E6973747261746F72 PUSH1 0x44 DUP3 ADD MSTORE PUSH32 0x20776974686F757420616E206F776E65722070726573656E7400000000000000 PUSH1 0x64 DUP3 ADD MSTORE PUSH1 0x84 SWAP1 REVERT JUMPDEST SWAP1 POP DUP10 PUSH2 0xEE3 JUMP JUMPDEST PUSH2 0xF6B PUSH2 0xF64 PUSH2 0x4583 JUMP JUMPDEST DUP11 DUP10 PUSH2 0x4CBB JUMP JUMPDEST PUSH2 0xF7D PUSH2 0xF76 PUSH2 0x45A4 JUMP JUMPDEST DUP12 DUP11 PUSH2 0x4CBB JUMP JUMPDEST DUP5 PUSH0 MSTORE PUSH1 0xD DUP7 MSTORE DUP11 DUP8 PUSH0 KECCAK256 SLOAD EQ SWAP1 PUSH2 0xF93 PUSH2 0x4294 JUMP JUMPDEST DUP1 MLOAD SWAP1 DUP9 ADD KECCAK256 DUP5 SUB PUSH2 0x1033 JUMPI DUP3 ISZERO PUSH2 0x102B JUMPI JUMPDEST POP DUP2 ISZERO PUSH2 0x1023 JUMPI JUMPDEST POP ISZERO PUSH2 0xFBA JUMPI JUMPDEST PUSH2 0xE44 JUMP JUMPDEST DUP5 MLOAD PUSH3 0x461BCD PUSH1 0xE5 SHL DUP2 MSTORE DUP1 DUP4 ADD DUP6 SWAP1 MSTORE PUSH1 0x3E PUSH1 0x24 DUP3 ADD MSTORE PUSH32 0x4F6E6C79206F776E6572732C2061646D696E6973747261746F72732C206F7220 PUSH1 0x44 DUP3 ADD MSTORE PUSH32 0x746865206772616E7465722063616E207265766F6B6520766965776572730000 PUSH1 0x64 DUP3 ADD MSTORE PUSH1 0x84 SWAP1 REVERT JUMPDEST SWAP1 POP DUP11 PUSH2 0xFAE JUMP JUMPDEST SWAP2 POP DUP12 PUSH2 0xFA6 JUMP JUMPDEST DUP3 ISZERO SWAP3 SWAP2 POP DUP3 PUSH2 0x1119 JUMPI JUMPDEST POP ISZERO PUSH2 0x10BE JUMPI ISZERO PUSH2 0xE44 JUMPI PUSH2 0x1051 PUSH2 0x45A4 JUMP JUMPDEST DUP5 DUP2 MLOAD SWAP2 ADD KECCAK256 DUP2 SUB PUSH2 0xFB5 JUMPI DUP7 PUSH0 MSTORE PUSH1 0x7 DUP5 MSTORE DUP5 PUSH0 KECCAK256 SLOAD ISZERO PUSH2 0xFB5 JUMPI DUP5 MLOAD PUSH3 0x461BCD PUSH1 0xE5 SHL DUP2 MSTORE DUP1 DUP4 ADD DUP6 SWAP1 MSTORE PUSH1 0x25 PUSH1 0x24 DUP3 ADD MSTORE PUSH32 0x4F6E6C79206F776E6572732063616E207265766F6B652061646D696E69737472 PUSH1 0x44 DUP3 ADD MSTORE PUSH5 0x61746F7273 PUSH1 0xD8 SHL PUSH1 0x64 DUP3 ADD MSTORE PUSH1 0x84 SWAP1 REVERT JUMPDEST DUP6 MLOAD PUSH3 0x461BCD PUSH1 0xE5 SHL DUP2 MSTORE DUP1 DUP5 ADD DUP7 SWAP1 MSTORE PUSH1 0x2F PUSH1 0x24 DUP3 ADD MSTORE PUSH32 0x4F6E6C79206F776E65727320616E642061646D696E6973747261746F72732063 PUSH1 0x44 DUP3 ADD MSTORE PUSH15 0x616E207265766F6B6520726F6C6573 PUSH1 0x88 SHL PUSH1 0x64 DUP3 ADD MSTORE PUSH1 0x84 SWAP1 REVERT JUMPDEST SWAP1 POP DUP12 PUSH2 0x103E JUMP JUMPDEST DUP5 MLOAD PUSH3 0x461BCD PUSH1 0xE5 SHL DUP2 MSTORE DUP1 DUP4 ADD DUP6 SWAP1 MSTORE PUSH1 0x45 PUSH1 0x24 DUP3 ADD MSTORE PUSH32 0x4F776E6572732063616E6E6F74206265207265766F6B65642E204F776E657220 PUSH1 0x44 DUP3 ADD MSTORE PUSH32 0x6D7573742075736520766F6C756E746172696C794C656176654F776E65727368 PUSH1 0x64 DUP3 ADD MSTORE PUSH5 0x34B8141497 PUSH1 0xD9 SHL PUSH1 0x84 DUP3 ADD MSTORE PUSH1 0xA4 SWAP1 REVERT JUMPDEST SWAP1 POP CALLVALUE PUSH2 0x353 JUMPI PUSH1 0x20 SWAP1 DUP2 PUSH1 0x3 NOT CALLDATASIZE ADD SLT PUSH2 0x353 JUMPI DUP3 SWAP1 CALLDATALOAD PUSH0 MSTORE PUSH1 0x3 DUP3 MSTORE DUP1 PUSH0 KECCAK256 DUP2 MLOAD SWAP3 DUP4 DUP2 DUP4 SLOAD SWAP2 DUP3 DUP2 MSTORE ADD SWAP1 DUP2 SWAP4 PUSH0 MSTORE DUP3 PUSH0 KECCAK256 SWAP1 PUSH0 JUMPDEST DUP2 DUP2 LT PUSH2 0x122A JUMPI POP POP POP DUP5 PUSH2 0x11E6 SWAP2 SUB DUP6 PUSH2 0x3BDA JUMP JUMPDEST DUP3 MLOAD DUP2 DUP2 MSTORE SWAP4 MLOAD DUP2 DUP6 ADD DUP2 SWAP1 MSTORE DUP5 SWAP4 DUP5 ADD SWAP3 SWAP2 PUSH0 JUMPDEST DUP3 DUP2 LT PUSH2 0x120A JUMPI POP POP POP POP SUB SWAP1 RETURN JUMPDEST DUP4 MLOAD PUSH1 0x1 PUSH1 0x1 PUSH1 0xA0 SHL SUB AND DUP6 MSTORE DUP7 SWAP6 POP SWAP4 DUP2 ADD SWAP4 SWAP3 DUP2 ADD SWAP3 PUSH1 0x1 ADD PUSH2 0x11FB JUMP JUMPDEST DUP3 SLOAD PUSH1 0x1 PUSH1 0x1 PUSH1 0xA0 SHL SUB AND DUP5 MSTORE SWAP3 DUP5 ADD SWAP3 PUSH1 0x1 SWAP3 DUP4 ADD SWAP3 ADD PUSH2 0x11D0 JUMP JUMPDEST DUP3 CALLVALUE PUSH2 0x353 JUMPI PUSH1 0x20 CALLDATASIZE PUSH1 0x3 NOT ADD SLT PUSH2 0x353 JUMPI PUSH1 0x20 SWAP2 CALLDATALOAD PUSH0 MSTORE PUSH1 0xD DUP3 MSTORE DUP1 PUSH0 KECCAK256 SLOAD SWAP1 MLOAD SWAP1 DUP2 MSTORE RETURN JUMPDEST DUP3 CALLVALUE PUSH2 0x353 JUMPI PUSH1 0x20 CALLDATASIZE PUSH1 0x3 NOT ADD SLT PUSH2 0x353 JUMPI PUSH1 0x20 SWAP1 PUSH2 0x1293 PUSH2 0x128E PUSH2 0x3B49 JUMP JUMPDEST PUSH2 0x4DF9 JUMP JUMPDEST SWAP1 MLOAD SWAP1 ISZERO ISZERO DUP2 MSTORE RETURN JUMPDEST DUP3 CALLVALUE PUSH2 0x353 JUMPI PUSH2 0x12AB CALLDATASIZE PUSH2 0x3E6F JUMP JUMPDEST SWAP2 PUSH2 0x12B8 PUSH2 0x3F2 CALLER PUSH2 0x483A JUMP JUMPDEST CALLER PUSH0 MSTORE PUSH1 0x20 SWAP1 PUSH1 0x1 DUP3 MSTORE DUP1 PUSH0 KECCAK256 SLOAD SWAP5 DUP4 DUP7 EQ DUP1 ISZERO PUSH2 0x13F7 JUMPI JUMPDEST ISZERO PUSH2 0x13B7 JUMPI DUP4 PUSH0 MSTORE PUSH1 0xE DUP4 MSTORE DUP2 PUSH0 KECCAK256 DUP6 PUSH0 MSTORE DUP4 MSTORE PUSH1 0xFF DUP3 PUSH0 KECCAK256 SLOAD AND DUP2 DUP2 LT ISZERO PUSH2 0x13A4 JUMPI PUSH1 0x2 DUP2 EQ SWAP1 DUP2 ISZERO PUSH2 0x1399 JUMPI JUMPDEST POP ISZERO PUSH2 0x134E JUMPI POP SWAP1 PUSH32 0x6DF3A6475FAB2EED139F7E469995B04E85BFC5B4B8642587109CB72541F74FAE SWAP2 DUP4 PUSH0 MSTORE PUSH1 0xE DUP3 MSTORE DUP1 PUSH0 KECCAK256 DUP6 PUSH0 MSTORE DUP3 MSTORE DUP1 PUSH0 KECCAK256 PUSH1 0x3 PUSH1 0xFF NOT DUP3 SLOAD AND OR SWAP1 SSTORE MLOAD TIMESTAMP DUP2 MSTORE LOG4 STOP JUMPDEST DUP3 PUSH1 0x84 SWAP3 MLOAD SWAP2 PUSH3 0x461BCD PUSH1 0xE5 SHL DUP4 MSTORE DUP3 ADD MSTORE PUSH1 0x21 PUSH1 0x24 DUP3 ADD MSTORE PUSH32 0x4E6F20616374697665206F722070656E64696E672072656C6174696F6E736869 PUSH1 0x44 DUP3 ADD MSTORE PUSH1 0x7 PUSH1 0xFC SHL PUSH1 0x64 DUP3 ADD MSTORE REVERT JUMPDEST PUSH1 0x1 SWAP2 POP EQ DUP8 PUSH2 0x1300 JUMP JUMPDEST PUSH1 0x21 DUP3 PUSH4 0x4E487B71 PUSH1 0xE0 SHL PUSH0 MSTORE MSTORE PUSH1 0x24 PUSH0 REVERT JUMPDEST DUP3 DUP1 PUSH1 0x64 SWAP4 MLOAD SWAP3 PUSH3 0x461BCD PUSH1 0xE5 SHL DUP5 MSTORE DUP4 ADD MSTORE PUSH1 0x24 DUP3 ADD MSTORE PUSH32 0x4E6F74206120706172747920746F20746869732072656C6174696F6E73686970 PUSH1 0x44 DUP3 ADD MSTORE REVERT JUMPDEST POP DUP5 DUP7 EQ PUSH2 0x12D1 JUMP JUMPDEST DUP3 CALLVALUE PUSH2 0x353 JUMPI DUP1 PUSH1 0x3 NOT CALLDATASIZE ADD SLT PUSH2 0x353 JUMPI PUSH2 0x1293 PUSH1 0x20 SWAP3 PUSH2 0x141F PUSH2 0x3B5F JUMP JUMPDEST SWAP1 CALLDATALOAD PUSH2 0x47FD JUMP JUMPDEST DUP3 CALLVALUE PUSH2 0x353 JUMPI PUSH1 0x20 CALLDATASIZE PUSH1 0x3 NOT ADD SLT PUSH2 0x353 JUMPI PUSH32 0xCE59AD7D6DABE8A7533ED7D9BD07D276A046AC7AC9A8E8E8971DA4B81104A28B PUSH1 0x20 PUSH2 0x1463 PUSH2 0x3B49 JUMP JUMPDEST PUSH0 SLOAD PUSH1 0x1 PUSH1 0x1 PUSH1 0xA0 SHL SUB SWAP2 SWAP1 PUSH2 0x147C SWAP1 DUP4 AND CALLER EQ PUSH2 0x42B6 JUMP JUMPDEST AND SWAP3 PUSH2 0x1489 DUP5 ISZERO ISZERO PUSH2 0x4773 JUMP JUMPDEST PUSH1 0xC DUP1 SLOAD PUSH1 0x1 PUSH1 0x1 PUSH1 0xA0 SHL SUB NOT AND DUP6 OR SWAP1 SSTORE MLOAD TIMESTAMP DUP2 MSTORE LOG2 STOP JUMPDEST SWAP1 POP CALLVALUE PUSH2 0x353 JUMPI PUSH1 0x20 SWAP1 PUSH1 0x20 PUSH1 0x3 NOT CALLDATASIZE ADD SLT PUSH2 0x353 JUMPI CALLDATALOAD PUSH0 MSTORE PUSH1 0x7 PUSH1 0x20 MSTORE DUP2 PUSH0 KECCAK256 SWAP2 DUP1 MLOAD SWAP2 DUP3 PUSH1 0x20 DUP6 SLOAD SWAP2 DUP3 DUP2 MSTORE ADD SWAP5 PUSH0 MSTORE PUSH1 0x20 PUSH0 KECCAK256 SWAP2 PUSH0 SWAP1 JUMPDEST DUP3 DUP3 LT PUSH2 0x14F4 JUMPI PUSH2 0x5D3 DUP7 DUP7 PUSH2 0x8C0 DUP3 DUP12 SUB DUP4 PUSH2 0x3BDA JUMP JUMPDEST DUP4 SLOAD DUP8 MSTORE SWAP6 DUP7 ADD SWAP6 PUSH1 0x1 SWAP4 DUP5 ADD SWAP4 SWAP1 SWAP2 ADD SWAP1 PUSH2 0x14DC JUMP JUMPDEST DUP3 CALLVALUE PUSH2 0x353 JUMPI PUSH0 CALLDATASIZE PUSH1 0x3 NOT ADD SLT PUSH2 0x353 JUMPI PUSH1 0x20 SWAP1 PUSH1 0x5 SLOAD SWAP1 MLOAD SWAP1 DUP2 MSTORE RETURN JUMPDEST SWAP1 POP CALLVALUE PUSH2 0x353 JUMPI PUSH1 0x20 CALLDATASIZE PUSH1 0x3 NOT ADD SLT PUSH2 0x353 JUMPI PUSH2 0x1544 PUSH2 0x3B49 JUMP JUMPDEST PUSH0 SLOAD PUSH1 0x1 PUSH1 0x1 PUSH1 0xA0 SHL SUB SWAP2 SWAP1 PUSH2 0x155D SWAP1 DUP4 AND CALLER EQ PUSH2 0x42B6 JUMP JUMPDEST AND DUP1 PUSH0 MSTORE PUSH1 0x1 SWAP2 DUP3 PUSH1 0x20 MSTORE PUSH2 0x1576 DUP5 PUSH0 KECCAK256 SLOAD ISZERO ISZERO PUSH2 0x42EF JUMP JUMPDEST DUP2 PUSH0 MSTORE DUP3 PUSH1 0x20 MSTORE PUSH1 0xFF DUP4 DUP6 PUSH0 KECCAK256 ADD SLOAD AND PUSH2 0x15A5 JUMPI POP SWAP2 DUP2 SWAP3 PUSH0 MSTORE DUP2 PUSH1 0x20 MSTORE PUSH0 KECCAK256 ADD SWAP1 PUSH1 0xFF NOT DUP3 SLOAD AND OR SWAP1 SSTORE PUSH0 DUP1 RETURN JUMPDEST PUSH1 0x64 SWAP1 PUSH1 0x20 DUP6 MLOAD SWAP2 PUSH3 0x461BCD PUSH1 0xE5 SHL DUP4 MSTORE DUP3 ADD MSTORE PUSH1 0x15 PUSH1 0x24 DUP3 ADD MSTORE PUSH21 0x57616C6C657420616C726561647920616374697665 PUSH1 0x58 SHL PUSH1 0x44 DUP3 ADD MSTORE REVERT JUMPDEST DUP3 CALLVALUE PUSH2 0x353 JUMPI PUSH2 0x15EF CALLDATASIZE PUSH2 0x3DFC JUMP JUMPDEST SWAP2 SWAP1 SWAP3 PUSH2 0x15FE PUSH2 0x3F2 CALLER PUSH2 0x483A JUMP JUMPDEST CALLER PUSH0 MSTORE PUSH1 0x1 SWAP4 PUSH1 0x20 SWAP2 PUSH1 0x1 DUP4 MSTORE DUP4 PUSH0 KECCAK256 SLOAD SWAP3 DUP6 PUSH0 MSTORE PUSH1 0xE DUP2 MSTORE DUP5 PUSH0 KECCAK256 DUP5 PUSH0 MSTORE DUP2 MSTORE DUP5 PUSH0 KECCAK256 SWAP1 DUP6 MLOAD SWAP2 PUSH2 0x162F DUP4 PUSH2 0x3B75 JUMP JUMPDEST SLOAD SWAP2 PUSH2 0x163E PUSH1 0xFF DUP5 AND DUP3 PUSH2 0x4402 JUMP JUMPDEST PUSH2 0x1651 PUSH1 0xFF DUP4 DUP4 ADD SWAP5 PUSH1 0x8 SHR AND DUP5 PUSH2 0x440E JUMP JUMPDEST MLOAD DUP4 DUP2 LT ISZERO PUSH2 0x1726 JUMPI PUSH1 0x2 PUSH2 0x1666 SWAP2 EQ PUSH2 0x47B1 JUMP JUMPDEST DUP4 MLOAD PUSH2 0x167D PUSH2 0x1674 DUP3 PUSH2 0x3BFB JUMP JUMPDEST SWAP8 MLOAD SWAP8 DUP9 PUSH2 0x3BDA JUMP JUMPDEST DUP1 DUP8 MSTORE PUSH2 0x168C PUSH1 0x1F NOT SWAP2 PUSH2 0x3BFB JUMP JUMPDEST ADD PUSH0 JUMPDEST DUP2 DUP2 LT PUSH2 0x1717 JUMPI POP POP POP DUP7 PUSH0 SWAP1 JUMPDEST PUSH2 0x16AF JUMPI JUMPDEST POP POP POP PUSH2 0x541 SWAP5 POP PUSH2 0x48C2 JUMP JUMPDEST DUP4 MLOAD DUP2 LT ISZERO PUSH2 0x1712 JUMPI PUSH2 0x16C2 DUP2 DUP6 PUSH2 0x4280 JUMP JUMPDEST MLOAD DUP3 MLOAD SWAP1 PUSH1 0x3 DUP3 LT ISZERO PUSH2 0x16FF JUMPI SWAP2 PUSH2 0x16E0 DUP11 SWAP6 SWAP5 SWAP4 SWAP3 DUP11 DUP8 SWAP5 PUSH2 0x4DA3 JUMP JUMPDEST PUSH2 0x16EA DUP3 DUP11 PUSH2 0x4280 JUMP JUMPDEST MSTORE PUSH2 0x16F5 DUP2 DUP10 PUSH2 0x4280 JUMP JUMPDEST POP ADD SWAP1 SWAP2 SWAP3 PUSH2 0x169D JUMP JUMPDEST PUSH1 0x21 DUP6 PUSH4 0x4E487B71 PUSH1 0xE0 SHL PUSH0 MSTORE MSTORE PUSH1 0x24 PUSH0 REVERT JUMPDEST PUSH2 0x16A2 JUMP JUMPDEST PUSH1 0x60 DUP9 DUP3 ADD DUP5 ADD MSTORE DUP3 ADD PUSH2 0x168F JUMP JUMPDEST PUSH1 0x21 DUP5 PUSH4 0x4E487B71 PUSH1 0xE0 SHL PUSH0 MSTORE MSTORE PUSH1 0x24 PUSH0 REVERT JUMPDEST DUP3 CALLVALUE PUSH2 0x353 JUMPI PUSH1 0x20 SWAP1 DUP2 PUSH1 0x3 NOT CALLDATASIZE ADD SLT PUSH2 0x353 JUMPI DUP3 CALLDATALOAD SWAP2 PUSH2 0x175C PUSH2 0x3F2 CALLER PUSH2 0x483A JUMP JUMPDEST CALLER PUSH0 MSTORE PUSH1 0x1 DUP2 MSTORE DUP2 PUSH0 KECCAK256 SLOAD SWAP4 DUP4 PUSH0 MSTORE PUSH1 0xE DUP3 MSTORE DUP3 PUSH0 KECCAK256 DUP6 PUSH0 MSTORE DUP3 MSTORE DUP3 PUSH0 KECCAK256 SWAP1 DUP2 SLOAD SWAP1 PUSH1 0xFF DUP3 AND DUP2 DUP2 LT ISZERO PUSH2 0x13A4 JUMPI PUSH1 0x1 SUB PUSH2 0x17DB JUMPI POP SWAP2 PUSH2 0x17D3 PUSH1 0xFF SWAP3 PUSH1 0x2 PUSH32 0xC5B2E1BD4433EB4E9E181CC803520513D39D918C96BDDEEBCA1224E1C750963D SWAP7 SWAP6 DUP6 NOT AND OR DUP1 SWAP2 SSTORE DUP5 MLOAD SWAP4 DUP5 SWAP2 PUSH1 0x8 SHR AND PUSH2 0x4007 JUMP JUMPDEST TIMESTAMP SWAP1 DUP3 ADD MSTORE LOG3 STOP JUMPDEST DUP5 MLOAD PUSH3 0x461BCD PUSH1 0xE5 SHL DUP2 MSTORE SWAP1 DUP2 ADD DUP5 SWAP1 MSTORE PUSH1 0x13 PUSH1 0x24 DUP3 ADD MSTORE PUSH19 0x139BC81C195B991A5B99C81C1C9BDC1BDCD85B PUSH1 0x6A SHL PUSH1 0x44 DUP3 ADD MSTORE PUSH1 0x64 SWAP1 REVERT JUMPDEST DUP3 CALLVALUE PUSH2 0x353 JUMPI PUSH0 CALLDATASIZE PUSH1 0x3 NOT ADD SLT PUSH2 0x353 JUMPI DUP1 MLOAD PUSH2 0x5D3 SWAP2 PUSH2 0x1834 DUP3 PUSH2 0x3B75 JUMP JUMPDEST PUSH1 0x5 DUP3 MSTORE PUSH5 0x352E302E3 PUSH1 0xDC SHL PUSH1 0x20 DUP4 ADD MSTORE MLOAD SWAP2 DUP3 SWAP2 PUSH1 0x20 DUP4 MSTORE PUSH1 0x20 DUP4 ADD SWAP1 PUSH2 0x3F5F JUMP JUMPDEST SWAP1 POP CALLVALUE PUSH2 0x353 JUMPI PUSH2 0x1868 CALLDATASIZE PUSH2 0x3DDD JUMP JUMPDEST SWAP2 SWAP1 SWAP3 PUSH2 0x1877 PUSH2 0x3F2 CALLER PUSH2 0x483A JUMP JUMPDEST CALLER PUSH0 MSTORE PUSH1 0x1 PUSH1 0x20 MSTORE DUP1 PUSH0 KECCAK256 SLOAD SWAP3 DUP4 PUSH0 MSTORE PUSH1 0xE PUSH1 0x20 MSTORE DUP2 PUSH0 KECCAK256 DUP6 PUSH0 MSTORE PUSH1 0x20 MSTORE DUP2 PUSH0 KECCAK256 DUP1 SLOAD PUSH1 0xFF DUP2 AND DUP6 DUP2 LT ISZERO PUSH2 0x1960 JUMPI SWAP1 PUSH2 0x18B5 PUSH1 0x2 PUSH1 0xFF SWAP4 EQ PUSH2 0x47B1 JUMP JUMPDEST PUSH1 0x8 SHR AND SWAP4 PUSH1 0x3 DUP4 LT ISZERO PUSH2 0x75D JUMPI PUSH1 0x3 DUP6 LT ISZERO PUSH2 0x75D JUMPI DUP3 DUP6 EQ PUSH2 0x191D JUMPI POP SWAP2 PUSH2 0x17D3 DUP3 PUSH2 0x1907 PUSH32 0xB36EC3C738EF8ECD9180ADDC815304762374B76E91C2A321831D9906EA119ADE SWAP7 SWAP5 PUSH1 0x60 SWAP7 PUSH2 0x4432 JUMP JUMPDEST PUSH2 0x1913 DUP4 MLOAD DUP1 SWAP6 PUSH2 0x4007 JUMP JUMPDEST PUSH1 0x20 DUP5 ADD SWAP1 PUSH2 0x4007 JUMP JUMPDEST PUSH1 0x64 SWAP1 PUSH1 0x20 DUP6 MLOAD SWAP2 PUSH3 0x461BCD PUSH1 0xE5 SHL DUP4 MSTORE DUP3 ADD MSTORE PUSH1 0x18 PUSH1 0x24 DUP3 ADD MSTORE PUSH32 0x416C72656164792074686973207472757374206C6576656C0000000000000000 PUSH1 0x44 DUP3 ADD MSTORE REVERT JUMPDEST PUSH1 0x21 DUP7 PUSH4 0x4E487B71 PUSH1 0xE0 SHL PUSH0 MSTORE MSTORE PUSH1 0x24 PUSH0 REVERT JUMPDEST DUP3 CALLVALUE PUSH2 0x353 JUMPI PUSH1 0x20 SWAP1 PUSH2 0x198E PUSH2 0x1988 CALLDATASIZE PUSH2 0x3E6F JUMP JUMPDEST SWAP1 PUSH2 0x4B56 JUMP JUMPDEST PUSH0 MSTORE PUSH1 0xD DUP3 MSTORE DUP1 PUSH0 KECCAK256 SLOAD SWAP1 MLOAD SWAP1 DUP2 MSTORE RETURN JUMPDEST DUP3 CALLVALUE PUSH2 0x353 JUMPI PUSH1 0x20 CALLDATASIZE PUSH1 0x3 NOT ADD SLT PUSH2 0x353 JUMPI DUP2 CALLDATALOAD DUP3 SLOAD DUP2 LT ISZERO PUSH2 0x353 JUMPI PUSH1 0x20 SWAP3 PUSH0 MSTORE PUSH32 0x8A35ACFBC15FF81A39AE7D344FD709F28E8600B4AA8C65C6B64BFE7FE36BD19B ADD SLOAD SWAP1 MLOAD SWAP1 DUP2 MSTORE RETURN JUMPDEST DUP3 CALLVALUE PUSH2 0x353 JUMPI PUSH2 0x19FA CALLDATASIZE PUSH2 0x3E6F JUMP JUMPDEST SWAP1 PUSH0 MSTORE PUSH1 0xE PUSH1 0x20 MSTORE DUP2 PUSH0 KECCAK256 SWAP1 PUSH0 MSTORE PUSH1 0x20 MSTORE DUP1 PUSH0 KECCAK256 SWAP1 DUP1 MLOAD SWAP2 PUSH2 0x1A1B DUP4 PUSH2 0x3B75 JUMP JUMPDEST SLOAD SWAP2 PUSH2 0x1A2A PUSH1 0xFF DUP5 AND DUP3 PUSH2 0x4402 JUMP JUMPDEST PUSH2 0x1A3E PUSH1 0xFF PUSH1 0x20 DUP4 ADD SWAP5 PUSH1 0x8 SHR AND DUP5 PUSH2 0x440E JUMP JUMPDEST MLOAD SWAP2 DUP4 DUP4 LT ISZERO PUSH2 0x1726 JUMPI MLOAD SWAP3 PUSH1 0x3 DUP5 LT ISZERO PUSH2 0x75D JUMPI POP PUSH2 0x5D3 SWAP1 MLOAD SWAP3 DUP4 SWAP3 DUP4 PUSH2 0x4014 JUMP JUMPDEST DUP3 CALLVALUE PUSH2 0x353 JUMPI DUP1 PUSH1 0x3 NOT CALLDATASIZE ADD SLT PUSH2 0x353 JUMPI DUP2 CALLDATALOAD SWAP1 PUSH1 0x24 CALLDATALOAD PUSH1 0x6 DUP2 LT ISZERO PUSH2 0x353 JUMPI PUSH2 0x1A96 PUSH1 0x1 DUP1 PUSH1 0xA0 SHL SUB PUSH0 SLOAD AND CALLER EQ PUSH2 0x42B6 JUMP JUMPDEST DUP3 PUSH0 MSTORE PUSH1 0x20 PUSH1 0x2 DUP2 MSTORE PUSH1 0xFF DUP4 PUSH0 KECCAK256 SLOAD AND PUSH1 0x6 DUP2 LT ISZERO PUSH2 0x1960 JUMPI ISZERO PUSH2 0x1B68 JUMPI DUP4 PUSH0 MSTORE PUSH1 0x2 DUP2 MSTORE PUSH1 0xFF DUP4 PUSH0 KECCAK256 SLOAD AND SWAP5 PUSH1 0x6 DUP7 LT ISZERO PUSH2 0x75D JUMPI DUP3 DUP7 EQ PUSH2 0x1B31 JUMPI POP SWAP1 PUSH2 0x1B04 SWAP2 DUP5 PUSH0 MSTORE PUSH1 0x2 DUP2 MSTORE DUP4 PUSH0 KECCAK256 PUSH1 0xFF NOT DUP2 SLOAD AND PUSH1 0xFF DUP5 AND OR SWAP1 SSTORE PUSH2 0x1AFC DUP5 MLOAD DUP1 SWAP8 PUSH2 0x3FE6 JUMP JUMPDEST DUP6 ADD SWAP1 PUSH2 0x3FE6 JUMP JUMPDEST TIMESTAMP SWAP1 DUP4 ADD MSTORE PUSH32 0xF6277C6EE46649823DB9A5C531DB3112B4340C67179CAE1932BA3420DCC37CC7 PUSH1 0x60 CALLER SWAP4 LOG3 STOP JUMPDEST PUSH1 0x64 SWAP2 DUP5 MLOAD SWAP2 PUSH3 0x461BCD PUSH1 0xE5 SHL DUP4 MSTORE DUP3 ADD MSTORE PUSH1 0x13 PUSH1 0x24 DUP3 ADD MSTORE PUSH19 0x416C7265616479207468697320737461747573 PUSH1 0x68 SHL PUSH1 0x44 DUP3 ADD MSTORE REVERT JUMPDEST DUP5 PUSH1 0x64 SWAP2 DUP5 MLOAD SWAP2 PUSH3 0x461BCD PUSH1 0xE5 SHL DUP4 MSTORE DUP3 ADD MSTORE PUSH1 0x13 PUSH1 0x24 DUP3 ADD MSTORE PUSH19 0x155CD95C881B9BDD081C9959DA5CDD195C9959 PUSH1 0x6A SHL PUSH1 0x44 DUP3 ADD MSTORE REVERT JUMPDEST DUP3 CALLVALUE PUSH2 0x353 JUMPI PUSH2 0x1BAF CALLDATASIZE PUSH2 0x3E6F JUMP JUMPDEST SWAP2 SWAP1 PUSH0 MSTORE PUSH1 0x3 PUSH1 0x20 MSTORE DUP1 PUSH0 KECCAK256 DUP1 SLOAD DUP4 LT ISZERO PUSH2 0x353 JUMPI PUSH1 0x20 SWAP3 PUSH2 0x1BD0 SWAP2 PUSH2 0x3FBD JUMP JUMPDEST PUSH1 0x1 DUP1 PUSH1 0xA0 SHL SUB SWAP2 SLOAD SWAP1 PUSH1 0x3 SHL SHR AND SWAP1 MLOAD SWAP1 DUP2 MSTORE RETURN JUMPDEST DUP3 CALLVALUE PUSH2 0x353 JUMPI PUSH2 0x1BF5 CALLDATASIZE PUSH2 0x3E6F JUMP JUMPDEST SWAP2 SWAP1 PUSH0 MSTORE PUSH1 0x9 PUSH1 0x20 MSTORE DUP1 PUSH0 KECCAK256 DUP1 SLOAD DUP4 LT ISZERO PUSH2 0x353 JUMPI PUSH1 0x20 SWAP3 PUSH2 0x345 SWAP2 PUSH2 0x3FBD JUMP JUMPDEST DUP3 CALLVALUE PUSH2 0x353 JUMPI PUSH1 0x20 CALLDATASIZE PUSH1 0x3 NOT ADD SLT PUSH2 0x353 JUMPI PUSH1 0x60 SWAP2 CALLDATALOAD PUSH0 MSTORE PUSH1 0x7 PUSH1 0x20 MSTORE DUP1 PUSH0 KECCAK256 SLOAD SWAP1 PUSH1 0x8 PUSH1 0x20 MSTORE DUP1 PUSH0 KECCAK256 SLOAD SWAP1 PUSH1 0x9 PUSH1 0x20 MSTORE DUP1 PUSH0 KECCAK256 SLOAD SWAP2 DUP2 MLOAD SWAP4 DUP5 MSTORE PUSH1 0x20 DUP5 ADD MSTORE DUP3 ADD MSTORE RETURN JUMPDEST DUP3 CALLVALUE PUSH2 0x353 JUMPI PUSH1 0x20 CALLDATASIZE PUSH1 0x3 NOT ADD SLT PUSH2 0x353 JUMPI PUSH1 0x1 PUSH1 0x1 PUSH1 0xA0 SHL SUB PUSH2 0x1C7D PUSH2 0x3B49 JUMP JUMPDEST AND PUSH0 MSTORE PUSH1 0x1 PUSH1 0x20 MSTORE DUP1 PUSH0 KECCAK256 PUSH1 0xFF PUSH1 0x1 DUP3 SLOAD SWAP3 ADD SLOAD AND DUP3 MLOAD SWAP2 DUP3 MSTORE ISZERO ISZERO PUSH1 0x20 DUP3 ADD MSTORE RETURN JUMPDEST DUP3 CALLVALUE PUSH2 0x353 JUMPI PUSH2 0x1CAF CALLDATASIZE PUSH2 0x3E6F JUMP JUMPDEST SWAP2 SWAP1 PUSH0 MSTORE PUSH1 0x8 PUSH1 0x20 MSTORE DUP1 PUSH0 KECCAK256 DUP1 SLOAD DUP4 LT ISZERO PUSH2 0x353 JUMPI PUSH1 0x20 SWAP3 PUSH2 0x345 SWAP2 PUSH2 0x3FBD JUMP JUMPDEST SWAP1 POP CALLVALUE PUSH2 0x353 JUMPI PUSH0 CALLDATASIZE PUSH1 0x3 NOT ADD SLT PUSH2 0x353 JUMPI PUSH32 0xF0C57E16840DF040F15088DC2F81FE391C3923BEC73E23A9662EFC9C229C6A00 SWAP1 DUP2 SLOAD PUSH1 0xFF DUP2 DUP6 SHR AND ISZERO SWAP2 PUSH1 0x1 PUSH1 0x1 PUSH1 0x40 SHL SUB DUP3 AND DUP1 ISZERO SWAP1 DUP2 PUSH2 0x1DE5 JUMPI JUMPDEST PUSH1 0x1 EQ SWAP1 DUP2 PUSH2 0x1DDB JUMPI JUMPDEST ISZERO SWAP1 DUP2 PUSH2 0x1DD2 JUMPI JUMPDEST POP PUSH2 0x1DC4 JUMPI POP PUSH8 0xFFFFFFFFFFFFFFFF NOT DUP2 AND PUSH1 0x1 OR DUP4 SSTORE DUP2 PUSH2 0x1DA5 JUMPI JUMPDEST POP PUSH0 DUP1 SLOAD PUSH1 0x1 PUSH1 0x1 PUSH1 0xA0 SHL SUB NOT AND CALLER OR SWAP1 SSTORE PUSH2 0x1D68 JUMPI STOP JUMPDEST DUP1 SLOAD PUSH9 0xFF0000000000000000 NOT AND SWAP1 SSTORE MLOAD PUSH1 0x1 DUP2 MSTORE PUSH32 0xC7F505B2F371AE2175EE4913F4499E1F2633A7B5936321EED1CDAEB6115181D2 SWAP1 PUSH1 0x20 SWAP1 LOG1 STOP JUMPDEST PUSH9 0xFFFFFFFFFFFFFFFFFF NOT AND PUSH9 0x10000000000000001 OR DUP3 SSTORE PUSH0 PUSH2 0x1D50 JUMP JUMPDEST DUP5 MLOAD PUSH4 0xF92EE8A9 PUSH1 0xE0 SHL DUP2 MSTORE REVERT JUMPDEST SWAP1 POP ISZERO PUSH0 PUSH2 0x1D33 JUMP JUMPDEST ADDRESS EXTCODESIZE ISZERO SWAP2 POP PUSH2 0x1D2B JUMP JUMPDEST DUP5 SWAP2 POP PUSH2 0x1D21 JUMP JUMPDEST DUP3 CALLVALUE PUSH2 0x353 JUMPI PUSH2 0x5D3 SWAP1 PUSH2 0x1E00 CALLDATASIZE PUSH2 0x3E6F JUMP JUMPDEST SWAP1 PUSH0 MSTORE PUSH1 0xE PUSH1 0x20 MSTORE DUP2 PUSH0 KECCAK256 SWAP1 PUSH0 MSTORE PUSH1 0x20 MSTORE DUP1 PUSH0 KECCAK256 SLOAD SWAP1 MLOAD SWAP2 DUP2 PUSH1 0xFF DUP1 DUP6 SWAP5 PUSH1 0x8 SHR AND SWAP2 AND DUP4 PUSH2 0x4014 JUMP JUMPDEST DUP3 CALLVALUE PUSH2 0x353 JUMPI PUSH0 CALLDATASIZE PUSH1 0x3 NOT ADD SLT PUSH2 0x353 JUMPI PUSH1 0x20 SWAP1 PUSH1 0xB SLOAD SWAP1 MLOAD SWAP1 DUP2 MSTORE RETURN JUMPDEST DUP3 CALLVALUE PUSH2 0x353 JUMPI PUSH1 0x20 CALLDATASIZE PUSH1 0x3 NOT ADD SLT PUSH2 0x353 JUMPI PUSH1 0x20 SWAP1 PUSH2 0x1E65 PUSH2 0x3B49 JUMP JUMPDEST PUSH0 SLOAD SWAP2 SWAP1 PUSH1 0x1 PUSH1 0x1 PUSH1 0xA0 SHL SUB DUP1 DUP5 AND SWAP2 PUSH32 0x38DF5FA0F7FEF0D515CA1F5388CB5790AC5885D5FCA8D05D9F943E563C33A4B3 SWAP2 SWAP1 PUSH2 0x1EA3 CALLER DUP6 EQ PUSH2 0x42B6 JUMP JUMPDEST AND SWAP5 DUP6 SWAP4 PUSH2 0x1EB2 DUP6 ISZERO ISZERO PUSH2 0x4773 JUMP JUMPDEST MLOAD TIMESTAMP DUP2 MSTORE LOG3 PUSH1 0x1 PUSH1 0x1 PUSH1 0xA0 SHL SUB NOT AND OR PUSH0 SSTORE STOP JUMPDEST SWAP1 POP CALLVALUE PUSH2 0x353 JUMPI PUSH2 0x1ED6 CALLDATASIZE PUSH2 0x3E2D JUMP JUMPDEST SWAP4 SWAP1 SWAP3 PUSH1 0x1 DUP1 PUSH1 0xA0 SHL SUB PUSH2 0x1EEE DUP2 PUSH0 SLOAD AND CALLER EQ PUSH2 0x42B6 JUMP JUMPDEST PUSH2 0x1EF9 DUP5 ISZERO ISZERO PUSH2 0x4451 JUMP JUMPDEST DUP5 AND PUSH2 0x1F06 DUP2 ISZERO ISZERO PUSH2 0x469F JUMP JUMPDEST PUSH2 0x1F12 PUSH2 0x99C DUP8 PUSH2 0x4C63 JUMP JUMPDEST PUSH0 MSTORE PUSH1 0x1 PUSH1 0x20 SWAP2 DUP2 DUP4 MSTORE PUSH2 0x1F34 DUP5 PUSH0 KECCAK256 SLOAD SWAP7 PUSH2 0x1F2F DUP9 ISZERO ISZERO PUSH2 0x42EF JUMP JUMPDEST PUSH2 0x483A JUMP JUMPDEST ISZERO PUSH2 0x21D5 JUMPI DUP5 PUSH0 MSTORE PUSH1 0x7 DUP4 MSTORE DUP4 PUSH0 KECCAK256 SLOAD ISZERO DUP1 PUSH2 0x21C6 JUMPI JUMPDEST ISZERO PUSH2 0x2183 JUMPI PUSH2 0x1F5A DUP7 DUP7 PUSH2 0x4B56 JUMP JUMPDEST SWAP2 DUP3 PUSH0 MSTORE PUSH1 0x6 DUP5 MSTORE DUP5 PUSH0 KECCAK256 SWAP3 PUSH2 0x1F6F DUP5 PUSH2 0x3EBD JUMP JUMPDEST SWAP3 PUSH1 0xFF DUP4 DUP6 MLOAD ISZERO SWAP7 ADD SLOAD AND SWAP3 DUP8 MLOAD SWAP2 PUSH2 0x1F87 DUP4 PUSH2 0x3B75 JUMP JUMPDEST DUP12 DUP4 MSTORE DUP8 DUP4 ADD SWAP1 DUP3 DUP3 MSTORE DUP5 PUSH0 MSTORE PUSH1 0x6 DUP10 MSTORE DUP10 PUSH0 KECCAK256 SWAP4 MLOAD DUP1 MLOAD SWAP2 PUSH1 0x1 PUSH1 0x1 PUSH1 0x40 SHL SUB DUP4 GT PUSH2 0x2170 JUMPI POP PUSH2 0x1FB9 DUP6 SLOAD PUSH2 0x3E85 JUMP JUMPDEST PUSH1 0x1F DUP2 GT PUSH2 0x212A JUMPI JUMPDEST POP DUP10 SWAP1 PUSH1 0x1F DUP4 GT PUSH1 0x1 EQ PUSH2 0x20C3 JUMPI PUSH2 0x2009 SWAP6 SWAP5 SWAP4 SWAP3 SWAP2 PUSH0 SWAP2 DUP4 PUSH2 0x20B8 JUMPI JUMPDEST POP POP PUSH0 NOT PUSH1 0x3 DUP4 SWAP1 SHL SHR NOT AND SWAP1 DUP4 SHL OR DUP4 SSTORE JUMPDEST MLOAD ISZERO ISZERO SWAP2 ADD SWAP1 PUSH1 0xFF DUP1 NOT DUP4 SLOAD AND SWAP2 ISZERO ISZERO AND OR SWAP1 SSTORE JUMP JUMPDEST PUSH0 MSTORE PUSH1 0xD DUP5 MSTORE PUSH0 DUP6 DUP2 KECCAK256 SSTORE ISZERO PUSH0 EQ PUSH2 0x208B JUMPI POP SWAP2 DUP6 SWAP2 PUSH32 0xF9D17EB1340AB78960B594FF8BED1349985B800EE21199C6D5EA4A67454593AD SWAP4 PUSH2 0x204D PUSH0 SWAP9 DUP9 DUP9 PUSH2 0x4EA6 JUMP JUMPDEST PUSH2 0x2065 JUMPI JUMPDEST PUSH2 0xEB9 DUP3 MLOAD SWAP4 DUP4 DUP6 SWAP5 DUP6 MSTORE DUP5 ADD SWAP1 PUSH2 0x3F5F JUMP JUMPDEST DUP6 DUP8 MSTORE PUSH1 0xA DUP2 MSTORE PUSH2 0x2078 DUP6 DUP4 DUP10 KECCAK256 PUSH2 0x4222 JUMP JUMPDEST PUSH2 0x2083 PUSH1 0xB SLOAD PUSH2 0x425E JUMP JUMPDEST PUSH1 0xB SSTORE PUSH2 0x2052 JUMP JUMPDEST SWAP6 SWAP5 SWAP4 SWAP3 POP POP DUP5 MLOAD DUP2 DUP7 ADD KECCAK256 SWAP1 DUP5 MLOAD SWAP1 DUP6 ADD KECCAK256 SUB PUSH2 0x20A5 JUMPI STOP JUMPDEST PUSH2 0x20B3 PUSH2 0x541 SWAP5 DUP4 DUP4 PUSH2 0x4B8A JUMP JUMPDEST PUSH2 0x4EA6 JUMP JUMPDEST ADD MLOAD SWAP1 POP PUSH0 DUP1 PUSH2 0x1FE0 JUMP JUMPDEST SWAP1 PUSH1 0x1F NOT DUP4 AND SWAP2 DUP7 PUSH0 MSTORE DUP12 PUSH0 KECCAK256 SWAP3 PUSH0 JUMPDEST DUP14 DUP3 DUP3 LT PUSH2 0x2116 JUMPI POP POP SWAP2 DUP7 SWAP6 SWAP5 SWAP3 SWAP2 DUP4 PUSH2 0x2009 SWAP10 SWAP9 SWAP6 SWAP4 LT PUSH2 0x20FE JUMPI JUMPDEST POP POP POP DUP2 SHL ADD DUP4 SSTORE PUSH2 0x1FF3 JUMP JUMPDEST ADD MLOAD PUSH0 NOT PUSH1 0xF8 DUP5 PUSH1 0x3 SHL AND SHR NOT AND SWAP1 SSTORE PUSH0 DUP1 DUP1 PUSH2 0x20F1 JUMP JUMPDEST DUP4 DUP6 ADD MLOAD DUP7 SSTORE SWAP5 DUP9 ADD SWAP5 SWAP4 DUP5 ADD SWAP4 ADD PUSH2 0x20D3 JUMP JUMPDEST DUP6 PUSH0 MSTORE DUP11 PUSH0 KECCAK256 PUSH1 0x1F DUP5 ADD PUSH1 0x5 SHR DUP2 ADD SWAP2 DUP13 DUP6 LT PUSH2 0x2166 JUMPI JUMPDEST PUSH1 0x1F ADD PUSH1 0x5 SHR ADD SWAP1 DUP6 SWAP1 JUMPDEST DUP3 DUP2 LT PUSH2 0x215B JUMPI POP POP PUSH2 0x1FC2 JUMP JUMPDEST PUSH0 DUP2 SSTORE ADD DUP6 SWAP1 PUSH2 0x214D JUMP JUMPDEST SWAP1 SWAP2 POP DUP2 SWAP1 PUSH2 0x2142 JUMP JUMPDEST PUSH1 0x41 SWAP1 PUSH4 0x4E487B71 PUSH1 0xE0 SHL PUSH0 MSTORE MSTORE PUSH1 0x24 PUSH0 REVERT JUMPDEST DUP4 MLOAD PUSH3 0x461BCD PUSH1 0xE5 SHL DUP2 MSTORE SWAP1 DUP2 ADD DUP4 SWAP1 MSTORE PUSH1 0x1A PUSH1 0x24 DUP3 ADD MSTORE PUSH32 0x5265636F726420616C726561647920696E697469616C697A6564000000000000 PUSH1 0x44 DUP3 ADD MSTORE PUSH1 0x64 SWAP1 REVERT JUMPDEST POP PUSH1 0x8 DUP4 MSTORE DUP4 PUSH0 KECCAK256 SLOAD ISZERO PUSH2 0x1F4B JUMP JUMPDEST DUP4 MLOAD PUSH3 0x461BCD PUSH1 0xE5 SHL DUP2 MSTORE SWAP1 DUP2 ADD DUP4 SWAP1 MSTORE PUSH1 0x18 PUSH1 0x24 DUP3 ADD MSTORE PUSH32 0x4D75737420626520616E20616374697665206D656D6265720000000000000000 PUSH1 0x44 DUP3 ADD MSTORE PUSH1 0x64 SWAP1 REVERT JUMPDEST DUP3 CALLVALUE PUSH2 0x353 JUMPI DUP1 PUSH1 0x3 NOT CALLDATASIZE ADD SLT PUSH2 0x353 JUMPI PUSH1 0x1 PUSH1 0x1 PUSH1 0x40 SHL SUB SWAP1 DUP3 CALLDATALOAD DUP3 DUP2 GT PUSH2 0x353 JUMPI CALLDATASIZE PUSH1 0x23 DUP3 ADD SLT ISZERO PUSH2 0x353 JUMPI DUP1 DUP5 ADD CALLDATALOAD SWAP3 DUP4 GT PUSH2 0x353 JUMPI PUSH1 0x24 PUSH1 0x5 SWAP5 CALLDATASIZE PUSH1 0x24 DUP7 PUSH1 0x5 SHL DUP6 ADD ADD GT PUSH2 0x353 JUMPI PUSH0 SLOAD PUSH1 0x1 PUSH1 0x1 PUSH1 0xA0 SHL SUB SWAP7 PUSH1 0x24 CALLDATALOAD SWAP6 SWAP2 PUSH2 0x2282 SWAP1 DUP10 AND CALLER EQ PUSH2 0x42B6 JUMP JUMPDEST DUP7 ISZERO PUSH2 0x23DD JUMPI PUSH2 0x2293 DUP7 ISZERO ISZERO PUSH2 0x46E4 JUMP JUMPDEST DUP6 PUSH0 MSTORE PUSH1 0x2 SWAP4 PUSH1 0x20 SWAP4 PUSH1 0x2 DUP6 MSTORE PUSH1 0xFF DUP5 PUSH0 KECCAK256 SLOAD AND SWAP1 PUSH1 0x6 DUP3 LT ISZERO PUSH2 0x75D JUMPI POP ISZERO SWAP6 PUSH0 JUMPDEST DUP10 DUP2 LT PUSH2 0x22BF JUMPI STOP JUMPDEST DUP3 DUP2 DUP6 SHL DUP4 ADD ADD CALLDATALOAD SWAP1 DUP12 DUP3 AND SWAP2 DUP3 DUP2 SUB PUSH2 0x353 JUMPI DUP3 PUSH2 0x2345 DUP13 SWAP3 PUSH2 0x22E6 PUSH1 0x1 SWAP7 ISZERO ISZERO PUSH2 0x469F JUMP JUMPDEST DUP3 PUSH0 MSTORE PUSH2 0x2336 DUP7 DUP1 DUP14 MSTORE PUSH2 0x22FD DUP13 PUSH0 KECCAK256 SLOAD ISZERO PUSH2 0x4727 JUMP JUMPDEST DUP12 MLOAD SWAP1 PUSH2 0x2309 DUP3 PUSH2 0x3B75 JUMP JUMPDEST DUP7 DUP3 MSTORE DUP14 DUP2 DUP2 DUP5 ADD SWAP2 DUP2 DUP4 MSTORE DUP9 PUSH0 MSTORE MSTORE DUP14 PUSH0 KECCAK256 SWAP3 MLOAD DUP4 SSTORE MLOAD ISZERO ISZERO SWAP2 ADD SWAP1 PUSH1 0xFF DUP1 NOT DUP4 SLOAD AND SWAP2 ISZERO ISZERO AND OR SWAP1 SSTORE JUMP JUMPDEST DUP4 PUSH0 MSTORE PUSH1 0x3 DUP12 MSTORE DUP10 PUSH0 KECCAK256 PUSH2 0x41A0 JUMP JUMPDEST DUP3 ISZERO DUP1 PUSH2 0x23D6 JUMPI JUMPDEST ISZERO PUSH2 0x23A9 JUMPI DUP2 PUSH0 MSTORE DUP10 DUP10 MSTORE DUP8 PUSH0 KECCAK256 DUP11 PUSH1 0xFF NOT DUP3 SLOAD AND OR SWAP1 SSTORE PUSH2 0x236E DUP3 PUSH2 0x41DB JUMP JUMPDEST PUSH2 0x2378 DUP8 SLOAD PUSH2 0x425E JUMP JUMPDEST DUP8 SSTORE PUSH32 0x39D132591EE0696DE49AB564E4A90E430C006561917DB731A2A614DD2D245591 DUP10 DUP10 MLOAD TIMESTAMP DUP2 MSTORE LOG3 JUMPDEST ADD PUSH2 0x22B6 JUMP JUMPDEST PUSH32 0x1CC138F50384BE7770A8E4A34EECAA0D0C718BFAA1641AF49DB32532E4A5B910 DUP10 DUP10 MLOAD TIMESTAMP DUP2 MSTORE LOG3 PUSH2 0x23A3 JUMP JUMPDEST POP DUP11 PUSH2 0x234D JUMP JUMPDEST DUP2 MLOAD PUSH3 0x461BCD PUSH1 0xE5 SHL DUP2 MSTORE PUSH1 0x20 DUP2 DUP6 ADD MSTORE PUSH1 0x13 PUSH1 0x24 DUP3 ADD MSTORE PUSH19 0x139BC81DD85B1B195D1CC81C1C9BDD9A591959 PUSH1 0x6A SHL PUSH1 0x44 DUP3 ADD MSTORE PUSH1 0x64 SWAP1 REVERT JUMPDEST SWAP1 POP CALLVALUE PUSH2 0x353 JUMPI PUSH1 0x20 SWAP1 PUSH1 0x20 PUSH1 0x3 NOT CALLDATASIZE ADD SLT PUSH2 0x353 JUMPI CALLDATALOAD PUSH0 MSTORE PUSH1 0xA PUSH1 0x20 MSTORE DUP2 PUSH0 KECCAK256 SWAP2 DUP1 MLOAD SWAP2 DUP3 PUSH1 0x20 DUP6 SLOAD SWAP2 DUP3 DUP2 MSTORE ADD SWAP5 PUSH0 MSTORE PUSH1 0x20 PUSH0 KECCAK256 SWAP2 PUSH0 SWAP1 JUMPDEST DUP3 DUP3 LT PUSH2 0x2468 JUMPI PUSH2 0x5D3 DUP7 DUP7 PUSH2 0x8C0 DUP3 DUP12 SUB DUP4 PUSH2 0x3BDA JUMP JUMPDEST DUP4 SLOAD DUP8 MSTORE SWAP6 DUP7 ADD SWAP6 PUSH1 0x1 SWAP4 DUP5 ADD SWAP4 SWAP1 SWAP2 ADD SWAP1 PUSH2 0x2450 JUMP JUMPDEST DUP3 CALLVALUE PUSH2 0x353 JUMPI PUSH1 0x20 SWAP1 PUSH2 0x1293 PUSH2 0x2494 CALLDATASIZE PUSH2 0x3E6F JUMP JUMPDEST SWAP1 PUSH2 0x4D19 JUMP JUMPDEST DUP3 CALLVALUE PUSH2 0x353 JUMPI PUSH2 0x24A9 CALLDATASIZE PUSH2 0x3E6F JUMP JUMPDEST SWAP2 SWAP1 PUSH0 MSTORE PUSH1 0x7 PUSH1 0x20 MSTORE DUP1 PUSH0 KECCAK256 DUP1 SLOAD DUP4 LT ISZERO PUSH2 0x353 JUMPI PUSH1 0x20 SWAP3 PUSH2 0x345 SWAP2 PUSH2 0x3FBD JUMP JUMPDEST DUP3 CALLVALUE PUSH2 0x353 JUMPI PUSH2 0x24D9 CALLDATASIZE PUSH2 0x3E6F JUMP JUMPDEST SWAP1 PUSH0 MSTORE PUSH1 0xE PUSH1 0x20 MSTORE DUP2 PUSH0 KECCAK256 SWAP1 PUSH0 MSTORE PUSH1 0x20 MSTORE DUP1 PUSH0 KECCAK256 SWAP1 DUP1 MLOAD SWAP2 PUSH2 0x24FA DUP4 PUSH2 0x3B75 JUMP JUMPDEST SLOAD SWAP2 PUSH2 0x2509 PUSH1 0xFF DUP5 AND DUP3 PUSH2 0x4402 JUMP JUMPDEST PUSH2 0x251D PUSH1 0xFF PUSH1 0x20 DUP4 ADD SWAP5 PUSH1 0x8 SHR AND DUP5 PUSH2 0x440E JUMP JUMPDEST MLOAD DUP4 DUP2 LT ISZERO PUSH2 0x1726 JUMPI PUSH1 0x2 EQ SWAP2 DUP3 PUSH2 0x253C JUMPI JUMPDEST PUSH1 0x20 DUP4 DUP4 MLOAD SWAP1 ISZERO ISZERO DUP2 MSTORE RETURN JUMPDEST SWAP1 SWAP2 POP MLOAD SWAP2 PUSH1 0x3 DUP4 LT ISZERO PUSH2 0x75D JUMPI POP PUSH1 0x2 PUSH1 0x20 SWAP3 EQ SWAP1 DUP4 PUSH2 0x2530 JUMP JUMPDEST DUP3 CALLVALUE PUSH2 0x353 JUMPI PUSH0 CALLDATASIZE PUSH1 0x3 NOT ADD SLT PUSH2 0x353 JUMPI PUSH32 0x0 PUSH1 0x1 PUSH1 0x1 PUSH1 0xA0 SHL SUB AND ADDRESS SUB PUSH2 0x25C2 JUMPI PUSH1 0x20 SWAP1 MLOAD PUSH32 0x360894A13BA1A3210667C828492DB98DCA3E2076CC3735A920A3CA505D382BBC DUP2 MSTORE RETURN JUMPDEST MLOAD PUSH4 0x703E46DD PUSH1 0xE1 SHL DUP2 MSTORE REVERT JUMPDEST DUP3 CALLVALUE PUSH2 0x353 JUMPI PUSH2 0x25DE CALLDATASIZE PUSH2 0x3CD5 JUMP JUMPDEST SWAP3 PUSH2 0x25EB PUSH2 0x3F2 CALLER PUSH2 0x483A JUMP JUMPDEST PUSH2 0x25F8 DUP4 MLOAD DUP6 MLOAD EQ PUSH2 0x4077 JUMP JUMPDEST CALLER PUSH0 MSTORE PUSH1 0x1 SWAP4 DUP5 SWAP4 PUSH1 0x20 SWAP1 PUSH1 0x1 PUSH1 0x20 MSTORE DUP4 PUSH0 KECCAK256 SLOAD SWAP5 PUSH1 0x1 DUP1 PUSH1 0xA0 SHL SUB AND PUSH0 MSTORE DUP4 PUSH0 KECCAK256 SLOAD SWAP4 PUSH2 0x2627 DUP6 ISZERO ISZERO PUSH2 0x40BB JUMP JUMPDEST PUSH0 SWAP7 JUMPDEST PUSH2 0x2630 JUMPI STOP JUMPDEST DUP2 MLOAD DUP8 LT ISZERO PUSH2 0x541 JUMPI DUP8 DUP8 PUSH2 0x264F PUSH2 0x2649 DUP4 SWAP11 DUP9 PUSH2 0x4280 JUMP JUMPDEST MLOAD PUSH2 0x4C63 JUMP JUMPDEST ISZERO PUSH2 0x2722 JUMPI PUSH2 0x2662 DUP9 PUSH2 0x451 DUP4 DUP8 PUSH2 0x4280 JUMP JUMPDEST ISZERO PUSH2 0x2722 JUMPI DUP8 DUP8 DUP6 DUP6 DUP5 DUP11 DUP11 PUSH2 0x267C DUP7 PUSH2 0x451 DUP6 DUP9 PUSH2 0x4280 JUMP JUMPDEST ISZERO PUSH2 0x2716 JUMPI PUSH2 0x26BC DUP4 PUSH2 0x26B5 DUP2 PUSH2 0x26AF PUSH2 0x26C3 SWAP9 PUSH1 0x6 DUP13 SWAP8 PUSH2 0x26A5 DUP16 SWAP12 PUSH2 0x47F DUP16 SWAP2 DUP13 SWAP3 PUSH2 0x4280 JUMP JUMPDEST PUSH0 MSTORE MSTORE PUSH0 KECCAK256 PUSH2 0x3EBD JUMP JUMPDEST SWAP9 PUSH2 0x4280 JUMP JUMPDEST MLOAD SWAP4 PUSH2 0x4280 JUMP JUMPDEST MLOAD SWAP2 PUSH2 0x4941 JUMP JUMPDEST PUSH32 0x3AF67CF2057BA8EF414286FB626CD3EFB02F74996E18EFD455B39D8EC7EC460F PUSH2 0x26EE DUP6 DUP10 PUSH2 0x4280 JUMP JUMPDEST MLOAD SWAP2 PUSH2 0x26FA DUP7 DUP13 PUSH2 0x4280 JUMP JUMPDEST MLOAD PUSH2 0x270B DUP10 MLOAD SWAP3 DUP4 SWAP3 TIMESTAMP SWAP2 DUP5 PUSH2 0x45CD JUMP JUMPDEST SUB SWAP1 LOG4 JUMPDEST ADD SWAP7 PUSH2 0x262A JUMP JUMPDEST POP POP POP POP POP POP POP PUSH2 0x270F JUMP JUMPDEST PUSH2 0x270F JUMP JUMPDEST SWAP1 POP DUP2 PUSH1 0x3 NOT CALLDATASIZE ADD SLT PUSH2 0x353 JUMPI PUSH2 0x273C PUSH2 0x3B49 JUMP JUMPDEST SWAP2 PUSH1 0x24 CALLDATALOAD PUSH1 0x1 PUSH1 0x1 PUSH1 0x40 SHL SUB DUP2 GT PUSH2 0x353 JUMPI CALLDATASIZE PUSH1 0x23 DUP3 ADD SLT ISZERO PUSH2 0x353 JUMPI PUSH2 0x276C SWAP1 CALLDATASIZE SWAP1 PUSH1 0x24 DUP2 DUP7 ADD CALLDATALOAD SWAP2 ADD PUSH2 0x3C72 JUMP JUMPDEST SWAP1 PUSH1 0x1 PUSH1 0x1 PUSH1 0xA0 SHL SUB PUSH32 0x0 DUP2 AND ADDRESS DUP2 EQ SWAP1 DUP2 ISZERO PUSH2 0x28F6 JUMPI JUMPDEST POP PUSH2 0x28E6 JUMPI PUSH2 0x27B6 DUP2 PUSH0 SLOAD AND CALLER EQ PUSH2 0x42B6 JUMP JUMPDEST DUP5 AND SWAP2 DUP2 MLOAD SWAP5 PUSH4 0x52D1902D PUSH1 0xE0 SHL DUP7 MSTORE PUSH1 0x20 DUP7 DUP7 DUP2 DUP8 GAS STATICCALL PUSH0 SWAP7 DUP2 PUSH2 0x28B2 JUMPI JUMPDEST POP PUSH2 0x27F2 JUMPI POP POP MLOAD PUSH4 0x4C9C8CE3 PUSH1 0xE0 SHL DUP2 MSTORE SWAP2 DUP3 ADD MSTORE PUSH1 0x24 SWAP2 POP REVERT JUMPDEST DUP4 DUP6 SWAP4 DUP8 PUSH32 0x360894A13BA1A3210667C828492DB98DCA3E2076CC3735A920A3CA505D382BBC SWAP1 DUP2 DUP2 SUB PUSH2 0x289C JUMPI POP DUP4 EXTCODESIZE ISZERO PUSH2 0x2885 JUMPI DUP1 SLOAD PUSH1 0x1 PUSH1 0x1 PUSH1 0xA0 SHL SUB NOT AND DUP4 OR SWAP1 SSTORE MLOAD SWAP1 PUSH32 0xBC7CD75A20EE27FD9ADEBAB32041F755214DBC6BFFA90CC0225B39DA2E5C2D3B PUSH0 DUP1 LOG2 DUP3 MLOAD ISZERO PUSH2 0x286F JUMPI POP PUSH2 0x541 SWAP3 POP PUSH2 0x4FC0 JUMP JUMPDEST SWAP2 POP POP CALLVALUE PUSH2 0x2879 JUMPI STOP JUMPDEST PUSH4 0xB398979F PUSH1 0xE0 SHL DUP2 MSTORE REVERT JUMPDEST DUP2 MLOAD PUSH4 0x4C9C8CE3 PUSH1 0xE0 SHL DUP2 MSTORE DUP1 DUP8 ADD DUP5 SWAP1 MSTORE PUSH1 0x24 SWAP1 REVERT JUMPDEST DUP7 PUSH1 0x24 SWAP2 DUP5 MLOAD SWAP2 PUSH4 0x2A875269 PUSH1 0xE2 SHL DUP4 MSTORE DUP3 ADD MSTORE REVERT JUMPDEST SWAP1 SWAP7 POP PUSH1 0x20 DUP2 RETURNDATASIZE PUSH1 0x20 GT PUSH2 0x28DE JUMPI JUMPDEST DUP2 PUSH2 0x28CE PUSH1 0x20 SWAP4 DUP4 PUSH2 0x3BDA JUMP JUMPDEST DUP2 ADD SUB SLT PUSH2 0x353 JUMPI MLOAD SWAP6 PUSH0 PUSH2 0x27D6 JUMP JUMPDEST RETURNDATASIZE SWAP2 POP PUSH2 0x28C1 JUMP JUMPDEST DUP2 MLOAD PUSH4 0x703E46DD PUSH1 0xE1 SHL DUP2 MSTORE DUP5 SWAP1 REVERT JUMPDEST SWAP1 POP DUP2 PUSH32 0x360894A13BA1A3210667C828492DB98DCA3E2076CC3735A920A3CA505D382BBC SLOAD AND EQ ISZERO PUSH0 PUSH2 0x27A3 JUMP JUMPDEST SWAP1 POP CALLVALUE PUSH2 0x353 JUMPI DUP2 PUSH1 0x3 NOT CALLDATASIZE ADD SLT PUSH2 0x353 JUMPI PUSH2 0x293E PUSH2 0x3B49 JUMP JUMPDEST SWAP2 PUSH1 0x24 CALLDATALOAD SWAP3 PUSH1 0x1 DUP1 PUSH1 0xA0 SHL SUB PUSH2 0x2958 DUP2 PUSH0 SLOAD AND CALLER EQ PUSH2 0x42B6 JUMP JUMPDEST DUP2 AND SWAP3 PUSH2 0x2966 DUP5 ISZERO ISZERO PUSH2 0x469F JUMP JUMPDEST PUSH2 0x2971 DUP6 ISZERO ISZERO PUSH2 0x46E4 JUMP JUMPDEST DUP4 PUSH0 MSTORE PUSH2 0x29D6 PUSH1 0x20 SWAP3 PUSH1 0x1 DUP5 MSTORE PUSH2 0x298B DUP6 PUSH0 KECCAK256 SLOAD ISZERO PUSH2 0x4727 JUMP JUMPDEST PUSH2 0x29C7 DUP6 MLOAD PUSH2 0x2999 DUP2 PUSH2 0x3B75 JUMP JUMPDEST DUP9 DUP2 MSTORE PUSH1 0x1 DUP7 DUP3 ADD DUP2 DUP2 MSTORE DUP10 PUSH0 MSTORE DUP2 DUP9 MSTORE DUP9 PUSH0 KECCAK256 SWAP3 MLOAD DUP4 SSTORE MLOAD ISZERO ISZERO SWAP2 ADD SWAP1 PUSH1 0xFF DUP1 NOT DUP4 SLOAD AND SWAP2 ISZERO ISZERO AND OR SWAP1 SSTORE JUMP JUMPDEST DUP7 PUSH0 MSTORE PUSH1 0x3 DUP5 MSTORE DUP5 PUSH0 KECCAK256 PUSH2 0x41A0 JUMP JUMPDEST DUP5 PUSH0 MSTORE PUSH1 0x2 DUP3 MSTORE PUSH1 0xFF DUP4 PUSH0 KECCAK256 SLOAD AND SWAP1 PUSH1 0x6 DUP3 LT ISZERO PUSH2 0x75D JUMPI POP PUSH2 0x2A48 JUMPI PUSH32 0x39D132591EE0696DE49AB564E4A90E430C006561917DB731A2A614DD2D245591 SWAP2 DUP5 PUSH0 MSTORE PUSH1 0x2 DUP3 MSTORE DUP1 PUSH0 KECCAK256 PUSH1 0x2 PUSH1 0xFF NOT DUP3 SLOAD AND OR SWAP1 SSTORE PUSH2 0x2A33 DUP6 PUSH2 0x41DB JUMP JUMPDEST PUSH2 0x2A3E PUSH1 0x5 SLOAD PUSH2 0x425E JUMP JUMPDEST PUSH1 0x5 SSTORE MLOAD TIMESTAMP DUP2 MSTORE LOG3 STOP JUMPDEST PUSH32 0x1CC138F50384BE7770A8E4A34EECAA0D0C718BFAA1641AF49DB32532E4A5B910 SWAP2 MLOAD TIMESTAMP DUP2 MSTORE LOG3 STOP JUMPDEST DUP3 CALLVALUE PUSH2 0x353 JUMPI PUSH1 0x20 CALLDATASIZE PUSH1 0x3 NOT ADD SLT PUSH2 0x353 JUMPI PUSH1 0x20 SWAP1 PUSH2 0x1293 PUSH2 0x1F2F PUSH2 0x3B49 JUMP JUMPDEST DUP3 CALLVALUE PUSH2 0x353 JUMPI PUSH1 0x20 SWAP1 PUSH2 0x2AA6 PUSH2 0x1988 CALLDATASIZE PUSH2 0x3E6F JUMP JUMPDEST PUSH0 MSTORE PUSH1 0x6 DUP3 MSTORE PUSH2 0x5D3 DUP2 PUSH0 KECCAK256 SWAP2 DUP1 MLOAD PUSH2 0x2ABE DUP2 PUSH2 0x3B75 JUMP JUMPDEST PUSH1 0xFF PUSH1 0x1 PUSH2 0x2ACB DUP7 PUSH2 0x3EBD JUMP JUMPDEST SWAP6 DUP7 DUP5 MSTORE ADD SLOAD AND ISZERO ISZERO SWAP5 DUP6 SWAP2 ADD MSTORE MLOAD SWAP3 DUP4 SWAP3 DUP4 PUSH2 0x3F9D JUMP JUMPDEST DUP3 CALLVALUE PUSH2 0x353 JUMPI DUP1 PUSH1 0x3 NOT CALLDATASIZE ADD SLT PUSH2 0x353 JUMPI PUSH2 0x2B0A PUSH2 0x5D3 SWAP3 PUSH2 0x2B03 PUSH2 0x3B5F JUMP JUMPDEST SWAP1 CALLDATALOAD PUSH2 0x4627 JUMP JUMPDEST SWAP3 SWAP1 SWAP2 MLOAD SWAP3 DUP4 SWAP3 DUP4 PUSH2 0x3F9D JUMP JUMPDEST SWAP1 POP CALLVALUE PUSH2 0x353 JUMPI PUSH1 0x20 SWAP1 PUSH1 0x20 PUSH1 0x3 NOT CALLDATASIZE ADD SLT PUSH2 0x353 JUMPI CALLDATALOAD PUSH0 MSTORE PUSH1 0x8 PUSH1 0x20 MSTORE DUP2 PUSH0 KECCAK256 SWAP2 DUP1 MLOAD SWAP2 DUP3 PUSH1 0x20 DUP6 SLOAD SWAP2 DUP3 DUP2 MSTORE ADD SWAP5 PUSH0 MSTORE PUSH1 0x20 PUSH0 KECCAK256 SWAP2 PUSH0 SWAP1 JUMPDEST DUP3 DUP3 LT PUSH2 0x2B69 JUMPI PUSH2 0x5D3 DUP7 DUP7 PUSH2 0x8C0 DUP3 DUP12 SUB DUP4 PUSH2 0x3BDA JUMP JUMPDEST DUP4 SLOAD DUP8 MSTORE SWAP6 DUP7 ADD SWAP6 PUSH1 0x1 SWAP4 DUP5 ADD SWAP4 SWAP1 SWAP2 ADD SWAP1 PUSH2 0x2B51 JUMP JUMPDEST DUP3 CALLVALUE PUSH2 0x353 JUMPI PUSH1 0x20 SWAP1 PUSH2 0x1293 PUSH2 0x2B95 CALLDATASIZE PUSH2 0x3E2D JUMP JUMPDEST SWAP2 PUSH2 0x45FB JUMP JUMPDEST SWAP1 POP CALLVALUE PUSH2 0x353 JUMPI PUSH1 0x20 CALLDATASIZE PUSH1 0x3 NOT ADD SLT PUSH2 0x353 JUMPI CALLDATALOAD PUSH0 MSTORE PUSH1 0x6 PUSH1 0x20 MSTORE DUP1 PUSH0 KECCAK256 PUSH2 0x5D3 PUSH1 0xFF PUSH1 0x1 PUSH2 0x2BC9 DUP5 PUSH2 0x3EBD JUMP JUMPDEST SWAP4 ADD SLOAD AND SWAP3 MLOAD SWAP3 DUP4 SWAP3 DUP4 PUSH2 0x3F9D JUMP JUMPDEST DUP3 CALLVALUE PUSH2 0x353 JUMPI PUSH2 0x2BE7 CALLDATASIZE PUSH2 0x3E6F JUMP JUMPDEST SWAP1 PUSH0 MSTORE PUSH1 0xF PUSH1 0x20 MSTORE DUP2 PUSH0 KECCAK256 SWAP1 PUSH0 MSTORE PUSH1 0x20 MSTORE DUP1 PUSH0 KECCAK256 SWAP1 PUSH2 0x5D3 PUSH1 0x60 DUP3 MLOAD SWAP4 PUSH2 0x2C0D DUP6 PUSH2 0x3BA4 JUMP JUMPDEST DUP1 SLOAD SWAP4 DUP5 DUP7 MSTORE PUSH1 0x1 DUP3 ADD SLOAD SWAP6 DUP7 PUSH1 0x20 DUP3 ADD MSTORE PUSH1 0x3 PUSH1 0x2 DUP5 ADD SLOAD SWAP4 DUP5 DUP5 DUP5 ADD MSTORE ADD SLOAD SWAP4 DUP5 SWAP2 ADD MSTORE MLOAD SWAP5 DUP6 SWAP5 DUP6 SWAP1 SWAP5 SWAP4 SWAP3 PUSH1 0x60 SWAP3 PUSH1 0x80 DUP4 ADD SWAP7 DUP4 MSTORE PUSH1 0x20 DUP4 ADD MSTORE PUSH1 0x40 DUP3 ADD MSTORE ADD MSTORE JUMP JUMPDEST DUP3 CALLVALUE PUSH2 0x353 JUMPI PUSH1 0x20 DUP1 PUSH1 0x3 NOT CALLDATASIZE ADD SLT PUSH2 0x353 JUMPI DUP3 CALLDATALOAD SWAP2 PUSH2 0x2C75 DUP4 ISZERO ISZERO PUSH2 0x4451 JUMP JUMPDEST CALLER PUSH0 MSTORE PUSH1 0x1 DUP3 MSTORE DUP1 PUSH0 KECCAK256 SLOAD SWAP4 PUSH2 0x2C93 PUSH2 0x2C8C PUSH2 0x4583 JUMP JUMPDEST DUP7 DUP7 PUSH2 0x4CBB JUMP JUMPDEST ISZERO PUSH2 0x2D84 JUMPI DUP4 PUSH0 MSTORE PUSH1 0x7 DUP4 MSTORE PUSH1 0x1 DUP3 PUSH0 KECCAK256 SLOAD GT PUSH1 0x8 DUP5 MSTORE DUP3 PUSH0 KECCAK256 SLOAD ISZERO ISZERO DUP2 ISZERO PUSH2 0x2D7C JUMPI JUMPDEST POP ISZERO PUSH2 0x2D21 JUMPI POP SWAP1 PUSH32 0x68F37CC4A32F0B24153CE9237B344B20A9717039F90D7C24F35E5C217F03E168 SWAP2 PUSH2 0x2CEB DUP6 DUP6 PUSH2 0x4B56 JUMP JUMPDEST PUSH2 0x2CFD PUSH2 0x2CF6 PUSH2 0x4583 JUMP JUMPDEST DUP8 DUP8 PUSH2 0x4B8A JUMP JUMPDEST PUSH0 MSTORE PUSH1 0x6 DUP3 MSTORE PUSH1 0x1 DUP2 PUSH0 KECCAK256 ADD PUSH1 0xFF NOT DUP2 SLOAD AND SWAP1 SSTORE PUSH1 0xD DUP3 MSTORE PUSH0 DUP2 DUP2 KECCAK256 SSTORE MLOAD TIMESTAMP DUP2 MSTORE LOG3 STOP JUMPDEST DUP3 PUSH1 0x84 SWAP3 MLOAD SWAP2 PUSH3 0x461BCD PUSH1 0xE5 SHL DUP4 MSTORE DUP3 ADD MSTORE PUSH1 0x31 PUSH1 0x24 DUP3 ADD MSTORE PUSH32 0x43616E6E6F74206C65617665206173206C617374206F776E6572207769746820 PUSH1 0x44 DUP3 ADD MSTORE PUSH17 0x6E6F2061646D696E6973747261746F7273 PUSH1 0x78 SHL PUSH1 0x64 DUP3 ADD MSTORE REVERT JUMPDEST SWAP1 POP DUP7 PUSH2 0x2CB7 JUMP JUMPDEST DUP3 PUSH1 0x84 SWAP3 MLOAD SWAP2 PUSH3 0x461BCD PUSH1 0xE5 SHL DUP4 MSTORE DUP3 ADD MSTORE PUSH1 0x23 PUSH1 0x24 DUP3 ADD MSTORE PUSH32 0x596F7520617265206E6F7420616E206F776E6572206F66207468697320726563 PUSH1 0x44 DUP3 ADD MSTORE PUSH3 0x1BDC99 PUSH1 0xEA SHL PUSH1 0x64 DUP3 ADD MSTORE REVERT JUMPDEST SWAP1 POP CALLVALUE PUSH2 0x353 JUMPI PUSH2 0x2DE1 CALLDATASIZE PUSH2 0x3E2D JUMP JUMPDEST SWAP4 SWAP1 PUSH2 0x2DEF PUSH2 0x3F2 CALLER PUSH2 0x483A JUMP JUMPDEST PUSH2 0x2DFA DUP4 ISZERO ISZERO PUSH2 0x4451 JUMP JUMPDEST PUSH1 0x1 PUSH1 0x1 PUSH1 0xA0 SHL SUB AND SWAP4 PUSH2 0x2E0F DUP6 ISZERO ISZERO PUSH2 0x449D JUMP JUMPDEST PUSH2 0x2E1B PUSH2 0x99C DUP3 PUSH2 0x4C63 JUMP JUMPDEST CALLER PUSH0 MSTORE PUSH1 0x20 SWAP2 PUSH1 0x1 DUP4 MSTORE DUP1 PUSH0 KECCAK256 SLOAD SWAP6 PUSH0 MSTORE DUP1 PUSH0 KECCAK256 SLOAD SWAP5 PUSH2 0x2E3C DUP7 ISZERO ISZERO PUSH2 0x40BB JUMP JUMPDEST DUP3 MLOAD DUP5 DUP5 ADD KECCAK256 SWAP4 PUSH2 0x2E4D DUP8 DUP8 PUSH2 0x4B56 JUMP JUMPDEST DUP1 PUSH0 MSTORE PUSH1 0x6 DUP3 MSTORE PUSH2 0x2E66 PUSH1 0xFF PUSH1 0x1 DUP7 PUSH0 KECCAK256 ADD SLOAD AND PUSH2 0x452B JUMP JUMPDEST PUSH0 MSTORE PUSH1 0x6 DUP2 MSTORE PUSH2 0x2E77 DUP4 PUSH0 KECCAK256 PUSH2 0x3EBD JUMP JUMPDEST SWAP5 DUP6 MLOAD DUP3 DUP8 ADD KECCAK256 SWAP1 DUP1 DUP3 EQ PUSH2 0x32BA JUMPI PUSH2 0x2E8E PUSH2 0x4583 JUMP JUMPDEST DUP4 DUP2 MLOAD SWAP2 ADD KECCAK256 DUP3 EQ PUSH2 0x3246 JUMPI DUP8 PUSH0 MSTORE PUSH1 0x7 DUP4 MSTORE DUP5 PUSH0 KECCAK256 SLOAD ISZERO SWAP2 DUP3 ISZERO PUSH2 0x2EBB PUSH2 0x2EB4 PUSH2 0x4583 JUMP JUMPDEST DUP14 DUP13 PUSH2 0x4CBB JUMP JUMPDEST SWAP1 PUSH2 0x2ECF DUP14 PUSH2 0x2EC8 PUSH2 0x45A4 JUMP JUMPDEST SWAP1 DUP14 PUSH2 0x4CBB JUMP JUMPDEST SWAP1 PUSH2 0x2ED8 PUSH2 0x4583 JUMP JUMPDEST DUP1 MLOAD SWAP1 DUP9 ADD KECCAK256 DUP6 SUB PUSH2 0x308D JUMPI ISZERO PUSH2 0x302F JUMPI POP ISZERO PUSH2 0x2FED JUMPI JUMPDEST PUSH2 0x2EF8 PUSH2 0x45A4 JUMP JUMPDEST DUP5 DUP2 MLOAD SWAP2 ADD KECCAK256 EQ SWAP1 DUP2 PUSH2 0x2FD6 JUMPI JUMPDEST POP PUSH2 0x2F53 JUMPI JUMPDEST POP POP POP SWAP1 PUSH2 0x2F4E PUSH32 0x3AF67CF2057BA8EF414286FB626CD3EFB02F74996E18EFD455B39D8EC7EC460F SWAP4 SWAP3 PUSH2 0x2F42 DUP9 DUP5 DUP10 DUP10 PUSH2 0x4941 JUMP JUMPDEST MLOAD SWAP3 DUP4 SWAP3 TIMESTAMP SWAP2 DUP5 PUSH2 0x45CD JUMP JUMPDEST SUB SWAP1 LOG4 STOP JUMPDEST PUSH2 0x2F5E JUMPI JUMPDEST DUP1 PUSH2 0x2F0C JUMP JUMPDEST DUP6 PUSH0 MSTORE PUSH1 0x8 DUP2 MSTORE PUSH1 0x1 DUP4 PUSH0 KECCAK256 SLOAD GT PUSH2 0x2F58 JUMPI PUSH1 0x84 SWAP3 MLOAD SWAP2 PUSH3 0x461BCD PUSH1 0xE5 SHL DUP4 MSTORE DUP3 ADD MSTORE PUSH1 0x39 PUSH1 0x24 DUP3 ADD MSTORE PUSH32 0x43616E6E6F742064656D6F746520746865206C6173742061646D696E69737472 PUSH1 0x44 DUP3 ADD MSTORE PUSH32 0x61746F72207768656E206E6F206F776E65722065786973747300000000000000 PUSH1 0x64 DUP3 ADD MSTORE REVERT JUMPDEST SWAP1 POP PUSH2 0x2FE0 PUSH2 0x4294 JUMP JUMPDEST DUP4 DUP2 MLOAD SWAP2 ADD KECCAK256 EQ PUSH0 PUSH2 0x2F06 JUMP JUMPDEST POP POP POP DUP1 PUSH1 0x64 SWAP4 MLOAD SWAP3 PUSH3 0x461BCD PUSH1 0xE5 SHL DUP5 MSTORE DUP4 ADD MSTORE PUSH1 0x24 DUP3 ADD MSTORE PUSH32 0x4F6E6C79206F776E6572732063616E2070726F6D6F746520746F206F776E6572 PUSH1 0x44 DUP3 ADD MSTORE REVERT JUMPDEST SWAP1 POP PUSH2 0x2EF0 JUMPI POP POP SWAP3 MLOAD PUSH3 0x461BCD PUSH1 0xE5 SHL DUP2 MSTORE SWAP2 DUP3 ADD MSTORE PUSH1 0x2B PUSH1 0x24 DUP3 ADD MSTORE PUSH32 0x4F6E6C792061646D696E6973747261746F72732063616E2070726F6D6F746520 PUSH1 0x44 DUP3 ADD MSTORE PUSH11 0x3334B939BA1037BBB732B9 PUSH1 0xA9 SHL PUSH1 0x64 DUP3 ADD MSTORE PUSH1 0x84 SWAP2 POP REVERT JUMPDEST PUSH2 0x3095 PUSH2 0x45A4 JUMP JUMPDEST DUP1 MLOAD SWAP1 DUP9 ADD KECCAK256 DUP6 SUB PUSH2 0x3120 JUMPI POP DUP2 ISZERO PUSH2 0x3118 JUMPI JUMPDEST POP PUSH2 0x2EF0 JUMPI POP POP SWAP3 MLOAD PUSH3 0x461BCD PUSH1 0xE5 SHL DUP2 MSTORE SWAP2 DUP3 ADD MSTORE PUSH1 0x3B PUSH1 0x24 DUP3 ADD MSTORE PUSH32 0x4F6E6C79206F776E65727320616E642061646D696E6973747261746F72732063 PUSH1 0x44 DUP3 ADD MSTORE PUSH32 0x616E2070726F6D6F746520746F2061646D696E6973747261746F720000000000 PUSH1 0x64 DUP3 ADD MSTORE PUSH1 0x84 SWAP2 POP REVERT JUMPDEST SWAP1 POP PUSH0 PUSH2 0x30A9 JUMP JUMPDEST PUSH2 0x3128 PUSH2 0x4294 JUMP JUMPDEST DUP8 DUP2 MLOAD SWAP2 ADD KECCAK256 DUP6 EQ PUSH2 0x313D JUMPI JUMPDEST POP POP POP PUSH2 0x2EF0 JUMP JUMPDEST ISZERO PUSH2 0x31EB JUMPI DUP2 ISZERO PUSH2 0x31D4 JUMPI JUMPDEST POP ISZERO PUSH2 0x3158 JUMPI JUMPDEST PUSH0 DUP1 DUP1 PUSH2 0x3135 JUMP JUMPDEST POP POP SWAP3 MLOAD PUSH3 0x461BCD PUSH1 0xE5 SHL DUP2 MSTORE SWAP2 DUP3 ADD MSTORE PUSH1 0x49 PUSH1 0x24 DUP3 ADD MSTORE PUSH32 0x4F6E6C79206F776E6572732063616E2064656D6F7465206F74686572732E2041 PUSH1 0x44 DUP3 ADD MSTORE PUSH32 0x646D696E6973747261746F72732063616E206F6E6C792064656D6F7465207468 PUSH1 0x64 DUP3 ADD MSTORE PUSH9 0x32B6B9B2B63B32B997 PUSH1 0xB9 SHL PUSH1 0x84 DUP3 ADD MSTORE PUSH1 0xA4 SWAP2 POP REVERT JUMPDEST SWAP1 POP DUP1 PUSH2 0x31E2 JUMPI JUMPDEST PUSH0 PUSH2 0x3149 JUMP JUMPDEST POP DUP10 DUP12 EQ PUSH2 0x31DC JUMP JUMPDEST SWAP1 POP PUSH2 0x3150 JUMPI POP POP SWAP3 MLOAD PUSH3 0x461BCD PUSH1 0xE5 SHL DUP2 MSTORE SWAP2 DUP3 ADD MSTORE PUSH1 0x28 PUSH1 0x24 DUP3 ADD MSTORE PUSH32 0x4F6E6C792061646D696E6973747261746F72732063616E2064656D6F74652074 PUSH1 0x44 DUP3 ADD MSTORE PUSH8 0x37903B34B2BBB2B9 PUSH1 0xC1 SHL PUSH1 0x64 DUP3 ADD MSTORE PUSH1 0x84 SWAP2 POP REVERT JUMPDEST POP POP PUSH1 0xA4 SWAP3 MLOAD SWAP2 PUSH3 0x461BCD PUSH1 0xE5 SHL DUP4 MSTORE DUP3 ADD MSTORE PUSH1 0x43 PUSH1 0x24 DUP3 ADD MSTORE PUSH32 0x4F776E6572732063616E6E6F742062652064656D6F7465642E204F776E657220 PUSH1 0x44 DUP3 ADD MSTORE PUSH32 0x6D75737420766F6C756E746172696C792072656D6F7665207468656D73656C76 PUSH1 0x64 DUP3 ADD MSTORE PUSH3 0x32B997 PUSH1 0xE9 SHL PUSH1 0x84 DUP3 ADD MSTORE REVERT JUMPDEST POP POP PUSH1 0x64 SWAP3 MLOAD SWAP2 PUSH3 0x461BCD PUSH1 0xE5 SHL DUP4 MSTORE DUP3 ADD MSTORE PUSH1 0x1C PUSH1 0x24 DUP3 ADD MSTORE PUSH32 0x54617267657420616C726561647920686173207468697320726F6C6500000000 PUSH1 0x44 DUP3 ADD MSTORE REVERT JUMPDEST DUP3 CALLVALUE PUSH2 0x353 JUMPI PUSH1 0x20 CALLDATASIZE PUSH1 0x3 NOT ADD SLT PUSH2 0x353 JUMPI PUSH1 0x20 SWAP1 PUSH2 0x1293 PUSH2 0x331C PUSH2 0x3B49 JUMP JUMPDEST PUSH2 0x4C0D JUMP JUMPDEST DUP3 CALLVALUE PUSH2 0x353 JUMPI PUSH2 0x3330 CALLDATASIZE PUSH2 0x3DFC JUMP JUMPDEST PUSH2 0x333F PUSH2 0x3F2 SWAP4 SWAP3 SWAP4 CALLER PUSH2 0x483A JUMP JUMPDEST CALLER PUSH0 MSTORE PUSH1 0x1 SWAP3 DUP4 SWAP3 PUSH1 0x20 SWAP1 DUP5 DUP3 MSTORE DUP1 PUSH0 KECCAK256 SLOAD SWAP3 PUSH2 0x335E DUP2 MLOAD ISZERO ISZERO PUSH2 0x415E JUMP JUMPDEST PUSH0 SWAP6 JUMPDEST PUSH2 0x3367 JUMPI STOP JUMPDEST DUP1 MLOAD DUP7 LT ISZERO PUSH2 0x541 JUMPI DUP7 DUP7 DUP7 DUP7 PUSH2 0x337F DUP5 SWAP11 DUP7 PUSH2 0x4280 JUMP JUMPDEST MLOAD DUP1 PUSH0 MSTORE PUSH1 0xF DUP9 MSTORE DUP7 PUSH0 KECCAK256 DUP4 PUSH0 MSTORE DUP9 MSTORE DUP7 PUSH0 KECCAK256 DUP8 MLOAD PUSH2 0x339D DUP2 PUSH2 0x3BA4 JUMP JUMPDEST DUP2 SLOAD SWAP1 DUP2 DUP2 MSTORE DUP8 DUP4 ADD SLOAD DUP12 DUP3 ADD MSTORE PUSH1 0x60 PUSH1 0x3 PUSH1 0x2 DUP6 ADD SLOAD SWAP5 DUP6 DUP14 DUP6 ADD MSTORE ADD SLOAD SWAP2 ADD MSTORE ISZERO PUSH2 0x3497 JUMPI PUSH2 0x33D6 PUSH2 0x33CF PUSH2 0x4583 JUMP JUMPDEST DUP5 DUP5 PUSH2 0x4CBB JUMP JUMPDEST SWAP1 DUP2 ISZERO PUSH2 0x3484 JUMPI JUMPDEST DUP4 EQ ISZERO SWAP1 DUP2 PUSH2 0x347B JUMPI JUMPDEST POP PUSH2 0x3473 JUMPI PUSH2 0x33F7 DUP4 DUP3 PUSH2 0x4B56 JUMP JUMPDEST DUP1 PUSH0 MSTORE PUSH1 0x6 SWAP1 DUP2 DUP11 MSTORE PUSH1 0xFF DUP8 DUP11 PUSH0 KECCAK256 ADD SLOAD AND PUSH2 0x3440 JUMPI JUMPDEST POP POP PUSH32 0xA232DCFFAB2D4F0F085A4D88BC617CD25DED7D3B8D8952E99D788CA25D4435B0 DUP9 DUP9 MLOAD TIMESTAMP DUP2 MSTORE LOG4 JUMPDEST ADD SWAP6 PUSH2 0x3361 JUMP JUMPDEST PUSH2 0x3452 PUSH2 0x344B PUSH2 0x4294 JUMP JUMPDEST DUP7 DUP6 PUSH2 0x4B8A JUMP JUMPDEST PUSH0 MSTORE DUP9 MSTORE DUP5 DUP8 PUSH0 KECCAK256 ADD PUSH1 0xFF NOT DUP2 SLOAD AND SWAP1 SSTORE PUSH1 0xD DUP9 MSTORE PUSH0 DUP8 DUP2 KECCAK256 SSTORE DUP13 DUP1 PUSH2 0x340E JUMP JUMPDEST POP POP POP PUSH2 0x3439 JUMP JUMPDEST SWAP1 POP ISZERO DUP14 PUSH2 0x33E8 JUMP JUMPDEST SWAP1 POP PUSH2 0x3491 PUSH2 0x33CF PUSH2 0x45A4 JUMP JUMPDEST SWAP1 PUSH2 0x33DE JUMP JUMPDEST POP POP POP POP PUSH2 0x3439 JUMP JUMPDEST DUP3 CALLVALUE PUSH2 0x353 JUMPI PUSH2 0x34AF CALLDATASIZE PUSH2 0x3DDD JUMP JUMPDEST SWAP1 SWAP2 PUSH2 0x34BD PUSH2 0x3F2 CALLER PUSH2 0x483A JUMP JUMPDEST CALLER PUSH0 MSTORE PUSH1 0x20 SWAP2 PUSH1 0x1 DUP4 MSTORE DUP2 PUSH0 KECCAK256 SLOAD SWAP3 PUSH2 0x34D7 DUP6 ISZERO ISZERO PUSH2 0x4333 JUMP JUMPDEST PUSH2 0x34E3 DUP6 DUP6 EQ ISZERO PUSH2 0x4371 JUMP JUMPDEST DUP5 PUSH0 MSTORE PUSH1 0x2 DUP2 MSTORE PUSH1 0xFF DUP4 PUSH0 KECCAK256 SLOAD AND PUSH1 0x6 DUP2 LT ISZERO PUSH2 0x7DF JUMPI PUSH2 0x3505 SWAP1 ISZERO ISZERO PUSH2 0x43BD JUMP JUMPDEST DUP4 PUSH0 MSTORE PUSH1 0xE DUP2 MSTORE DUP3 PUSH0 KECCAK256 DUP6 PUSH0 MSTORE DUP2 MSTORE PUSH1 0xFF DUP4 PUSH0 KECCAK256 SLOAD AND DUP7 DUP2 LT ISZERO PUSH2 0x7DF JUMPI DUP1 ISZERO SWAP1 DUP2 ISZERO PUSH2 0x35FC JUMPI JUMPDEST POP ISZERO PUSH2 0x35BA JUMPI DUP3 MLOAD PUSH2 0x353E DUP2 PUSH2 0x3B75 JUMP JUMPDEST PUSH1 0x1 DUP2 MSTORE DUP2 DUP2 ADD PUSH2 0x354F DUP5 DUP3 PUSH2 0x440E JUMP JUMPDEST DUP6 PUSH0 MSTORE PUSH1 0xE DUP4 MSTORE DUP5 PUSH0 KECCAK256 DUP8 PUSH0 MSTORE DUP4 MSTORE DUP5 PUSH0 KECCAK256 SWAP2 MLOAD DUP9 DUP2 LT ISZERO PUSH2 0x770 JUMPI PUSH2 0x3575 SWAP1 DUP4 PUSH2 0x441A JUMP JUMPDEST MLOAD SWAP7 PUSH1 0x3 DUP9 LT ISZERO PUSH2 0x75D JUMPI POP PUSH32 0x494D010FDF588A0E83D626EA6963187BDDA6F88B7007F7BF280683D3F7DEA834 SWAP5 SWAP6 SWAP7 PUSH2 0x35AE SWAP2 PUSH2 0x4432 JUMP JUMPDEST PUSH2 0x17D3 DUP4 MLOAD DUP1 SWAP4 PUSH2 0x4007 JUMP JUMPDEST DUP6 PUSH1 0x64 SWAP2 DUP5 MLOAD SWAP2 PUSH3 0x461BCD PUSH1 0xE5 SHL DUP4 MSTORE DUP3 ADD MSTORE PUSH1 0x17 PUSH1 0x24 DUP3 ADD MSTORE PUSH32 0x50726F706F73616C20616C726561647920657869737473000000000000000000 PUSH1 0x44 DUP3 ADD MSTORE REVERT JUMPDEST PUSH1 0x3 SWAP2 POP EQ DUP8 PUSH2 0x352D JUMP JUMPDEST DUP3 CALLVALUE PUSH2 0x353 JUMPI PUSH1 0x20 CALLDATASIZE PUSH1 0x3 NOT ADD SLT PUSH2 0x353 JUMPI PUSH2 0x3621 PUSH2 0x3B49 JUMP JUMPDEST PUSH0 SLOAD PUSH1 0x1 PUSH1 0x1 PUSH1 0xA0 SHL SUB SWAP2 SWAP1 PUSH2 0x363A SWAP1 DUP4 AND CALLER EQ PUSH2 0x42B6 JUMP JUMPDEST AND DUP1 PUSH0 MSTORE PUSH1 0x1 PUSH1 0x20 MSTORE PUSH2 0x3651 DUP3 PUSH0 KECCAK256 SLOAD ISZERO ISZERO PUSH2 0x42EF JUMP JUMPDEST DUP1 PUSH0 MSTORE PUSH1 0x1 PUSH1 0x20 MSTORE PUSH1 0xFF PUSH1 0x1 DUP4 PUSH0 KECCAK256 ADD SLOAD AND ISZERO PUSH2 0x3681 JUMPI PUSH1 0x1 SWAP3 POP PUSH0 MSTORE DUP2 PUSH1 0x20 MSTORE PUSH0 KECCAK256 ADD PUSH1 0xFF NOT DUP2 SLOAD AND SWAP1 SSTORE PUSH0 DUP1 RETURN JUMPDEST DUP2 MLOAD PUSH3 0x461BCD PUSH1 0xE5 SHL DUP2 MSTORE PUSH1 0x20 DUP2 DUP6 ADD MSTORE PUSH1 0x17 PUSH1 0x24 DUP3 ADD MSTORE PUSH32 0x57616C6C657420616C726561647920696E616374697665000000000000000000 PUSH1 0x44 DUP3 ADD MSTORE PUSH1 0x64 SWAP1 REVERT JUMPDEST DUP3 CALLVALUE PUSH2 0x353 JUMPI PUSH1 0xA0 CALLDATASIZE PUSH1 0x3 NOT ADD SLT PUSH2 0x353 JUMPI DUP2 CALLDATALOAD PUSH1 0x1 PUSH1 0x1 PUSH1 0x40 SHL SUB DUP2 GT PUSH2 0x353 JUMPI PUSH2 0x36F3 SWAP1 CALLDATASIZE SWAP1 DUP5 ADD PUSH2 0x3C12 JUMP JUMPDEST SWAP1 PUSH2 0x36FC PUSH2 0x3B5F JUMP JUMPDEST PUSH1 0x44 CALLDATALOAD SWAP2 PUSH1 0x64 CALLDATALOAD SWAP4 PUSH1 0x84 CALLDATALOAD PUSH2 0x3713 PUSH2 0x3F2 CALLER PUSH2 0x483A JUMP JUMPDEST CALLER PUSH0 MSTORE PUSH1 0x1 SWAP6 PUSH1 0x20 SWAP2 DUP8 DUP4 MSTORE DUP5 PUSH0 KECCAK256 SLOAD SWAP6 PUSH2 0x3730 DUP6 MLOAD ISZERO ISZERO PUSH2 0x415E JUMP JUMPDEST PUSH1 0x1 PUSH1 0x1 PUSH1 0xA0 SHL SUB DUP2 AND SWAP1 DUP2 ISZERO PUSH2 0x39EF JUMPI DUP9 ISZERO PUSH2 0x39B9 JUMPI DUP3 ISZERO PUSH2 0x3976 JUMPI DUP2 PUSH0 MSTORE DUP10 DUP6 MSTORE DUP9 DUP8 PUSH0 KECCAK256 SLOAD DUP1 ISZERO PUSH0 EQ PUSH2 0x390C JUMPI POP POP PUSH2 0x37A2 PUSH2 0x37B1 SWAP3 DUP12 DUP10 MLOAD SWAP2 PUSH2 0x3776 DUP4 PUSH2 0x3B75 JUMP JUMPDEST DUP13 DUP4 MSTORE DUP9 DUP4 ADD SWAP1 DUP3 DUP3 MSTORE PUSH0 MSTORE DUP2 DUP10 MSTORE DUP11 PUSH0 KECCAK256 SWAP3 MLOAD DUP4 SSTORE MLOAD ISZERO ISZERO SWAP2 ADD SWAP1 PUSH1 0xFF DUP1 NOT DUP4 SLOAD AND SWAP2 ISZERO ISZERO AND OR SWAP1 SSTORE JUMP JUMPDEST DUP9 PUSH0 MSTORE PUSH1 0x3 DUP6 MSTORE DUP7 PUSH0 KECCAK256 PUSH2 0x41A0 JUMP JUMPDEST DUP7 PUSH0 MSTORE PUSH1 0x2 DUP4 MSTORE DUP5 PUSH0 KECCAK256 PUSH1 0x5 PUSH1 0xFF NOT DUP3 SLOAD AND OR SWAP1 SSTORE PUSH2 0x37CF DUP8 PUSH2 0x41DB JUMP JUMPDEST PUSH2 0x37DA PUSH1 0x5 SLOAD PUSH2 0x425E JUMP JUMPDEST PUSH1 0x5 SSTORE JUMPDEST TIMESTAMP ADD SWAP3 DUP4 TIMESTAMP GT PUSH2 0x38F9 JUMPI DUP8 SWAP9 POP PUSH0 SWAP8 JUMPDEST PUSH2 0x37F4 JUMPI STOP JUMPDEST DUP1 MLOAD DUP9 LT ISZERO PUSH2 0x541 JUMPI DUP9 DUP9 DUP9 DUP9 PUSH2 0x380C DUP5 SWAP13 DUP7 PUSH2 0x4280 JUMP JUMPDEST MLOAD PUSH2 0x3817 DUP3 DUP3 PUSH2 0x4B56 JUMP JUMPDEST PUSH0 MSTORE DUP10 DUP9 DUP11 PUSH1 0x6 DUP1 DUP4 MSTORE DUP11 PUSH1 0xFF SWAP5 DUP6 DUP12 DUP3 PUSH0 KECCAK256 ADD SLOAD AND ISZERO PUSH2 0x38EB JUMPI PUSH32 0x140D483F221B1B41AA3142BE8C182589305145AAFE83BED53B908D6BAFF35C1D SWAP6 PUSH1 0x3 SWAP4 PUSH2 0x3861 DUP12 DUP11 PUSH2 0x4B56 JUMP JUMPDEST PUSH0 MSTORE DUP7 MSTORE DUP12 DUP3 PUSH0 KECCAK256 ADD SLOAD AND ISZERO PUSH2 0x38D3 JUMPI JUMPDEST DUP1 MLOAD SWAP4 PUSH2 0x387E DUP6 PUSH2 0x3BA4 JUMP JUMPDEST TIMESTAMP DUP6 MSTORE DUP6 DUP6 ADD SWAP1 DUP2 MSTORE DUP2 DUP6 ADD SWAP2 DUP10 DUP4 MSTORE PUSH1 0x60 SWAP7 DUP8 DUP8 ADD SWAP5 DUP6 MSTORE DUP10 PUSH0 MSTORE PUSH1 0xF DUP2 MSTORE DUP2 PUSH0 KECCAK256 SWAP1 DUP13 PUSH0 MSTORE MSTORE PUSH0 KECCAK256 SWAP5 MLOAD DUP6 SSTORE MLOAD DUP12 DUP6 ADD SSTORE MLOAD PUSH1 0x2 DUP5 ADD SSTORE MLOAD SWAP2 ADD SSTORE DUP12 MLOAD DUP10 DUP2 MSTORE DUP12 DUP12 DUP3 ADD MSTORE TIMESTAMP DUP14 DUP3 ADD MSTORE LOG4 JUMPDEST ADD SWAP8 PUSH2 0x37EE JUMP JUMPDEST PUSH2 0x38E6 DUP9 PUSH2 0x38DF PUSH2 0x4294 JUMP JUMPDEST DUP12 DUP11 PUSH2 0x4941 JUMP JUMPDEST PUSH2 0x3872 JUMP JUMPDEST POP POP POP POP POP POP POP POP POP PUSH2 0x38CC JUMP JUMPDEST PUSH1 0x11 DUP10 PUSH4 0x4E487B71 PUSH1 0xE0 SHL PUSH0 MSTORE MSTORE PUSH1 0x24 PUSH0 REVERT JUMPDEST EQ SWAP2 POP PUSH2 0x37DE SWAP1 POP JUMPI DUP5 MLOAD PUSH3 0x461BCD PUSH1 0xE5 SHL DUP2 MSTORE DUP1 DUP11 ADD DUP5 SWAP1 MSTORE PUSH1 0x35 PUSH1 0x24 DUP3 ADD MSTORE PUSH32 0x47756573742077616C6C657420616C7265616479207265676973746572656420 PUSH1 0x44 DUP3 ADD MSTORE PUSH21 0x746F20646966666572656E74206964656E74697479 PUSH1 0x58 SHL PUSH1 0x64 DUP3 ADD MSTORE PUSH1 0x84 SWAP1 REVERT JUMPDEST DUP7 MLOAD PUSH3 0x461BCD PUSH1 0xE5 SHL DUP2 MSTORE DUP1 DUP13 ADD DUP7 SWAP1 MSTORE PUSH1 0x19 PUSH1 0x24 DUP3 ADD MSTORE PUSH32 0x4475726174696F6E206D75737420626520706F73697469766500000000000000 PUSH1 0x44 DUP3 ADD MSTORE PUSH1 0x64 SWAP1 REVERT JUMPDEST DUP7 MLOAD PUSH3 0x461BCD PUSH1 0xE5 SHL DUP2 MSTORE DUP1 DUP13 ADD DUP7 SWAP1 MSTORE PUSH1 0x10 PUSH1 0x24 DUP3 ADD MSTORE PUSH16 0x125B9D985B1A590819DD595CDD081251 PUSH1 0x82 SHL PUSH1 0x44 DUP3 ADD MSTORE PUSH1 0x64 SWAP1 REVERT JUMPDEST DUP7 MLOAD PUSH3 0x461BCD PUSH1 0xE5 SHL DUP2 MSTORE DUP1 DUP13 ADD DUP7 SWAP1 MSTORE PUSH1 0x14 PUSH1 0x24 DUP3 ADD MSTORE PUSH20 0x125B9D985B1A590819DD595CDD081DD85B1B195D PUSH1 0x62 SHL PUSH1 0x44 DUP3 ADD MSTORE PUSH1 0x64 SWAP1 REVERT JUMPDEST DUP3 CALLVALUE PUSH2 0x353 JUMPI DUP1 PUSH1 0x3 NOT CALLDATASIZE ADD SLT PUSH2 0x353 JUMPI PUSH2 0x1293 PUSH1 0x20 SWAP3 PUSH2 0x3A48 PUSH2 0x3B5F JUMP JUMPDEST SWAP1 CALLDATALOAD PUSH2 0x4107 JUMP JUMPDEST SWAP1 POP CALLVALUE PUSH2 0x353 JUMPI PUSH1 0x20 SWAP1 PUSH1 0x20 PUSH1 0x3 NOT CALLDATASIZE ADD SLT PUSH2 0x353 JUMPI CALLDATALOAD PUSH0 MSTORE PUSH1 0x9 PUSH1 0x20 MSTORE DUP2 PUSH0 KECCAK256 SWAP2 DUP1 MLOAD SWAP2 DUP3 PUSH1 0x20 DUP6 SLOAD SWAP2 DUP3 DUP2 MSTORE ADD SWAP5 PUSH0 MSTORE PUSH1 0x20 PUSH0 KECCAK256 SWAP2 PUSH0 SWAP1 JUMPDEST DUP3 DUP3 LT PUSH2 0x3AA1 JUMPI PUSH2 0x5D3 DUP7 DUP7 PUSH2 0x8C0 DUP3 DUP12 SUB DUP4 PUSH2 0x3BDA JUMP JUMPDEST DUP4 SLOAD DUP8 MSTORE SWAP6 DUP7 ADD SWAP6 PUSH1 0x1 SWAP4 DUP5 ADD SWAP4 SWAP1 SWAP2 ADD SWAP1 PUSH2 0x3A89 JUMP JUMPDEST DUP3 CALLVALUE PUSH2 0x353 JUMPI PUSH2 0x541 SWAP1 PUSH2 0x3ACB CALLDATASIZE PUSH2 0x3CD5 JUMP JUMPDEST SWAP2 SWAP1 SWAP3 PUSH2 0x3ADA PUSH2 0x3F2 CALLER PUSH2 0x483A JUMP JUMPDEST PUSH2 0x3AE7 DUP3 MLOAD DUP5 MLOAD EQ PUSH2 0x4077 JUMP JUMPDEST CALLER PUSH0 SWAP1 DUP2 MSTORE PUSH1 0x1 PUSH1 0x20 MSTORE DUP2 DUP2 KECCAK256 SLOAD PUSH1 0x1 PUSH1 0x1 PUSH1 0xA0 SHL SUB SWAP1 SWAP6 AND DUP2 MSTORE KECCAK256 SLOAD SWAP1 PUSH2 0x3B10 DUP3 ISZERO ISZERO PUSH2 0x40BB JUMP JUMPDEST PUSH2 0x48C2 JUMP JUMPDEST DUP4 SWAP1 CALLVALUE PUSH2 0x353 JUMPI PUSH1 0x20 CALLDATASIZE PUSH1 0x3 NOT ADD SLT PUSH2 0x353 JUMPI PUSH1 0x20 SWAP2 PUSH1 0x1 PUSH1 0x1 PUSH1 0xA0 SHL SUB PUSH2 0x3B3B PUSH2 0x3B49 JUMP JUMPDEST AND PUSH0 MSTORE PUSH1 0x1 DUP4 MSTORE PUSH0 KECCAK256 SLOAD DUP2 MSTORE RETURN JUMPDEST PUSH1 0x4 CALLDATALOAD SWAP1 PUSH1 0x1 PUSH1 0x1 PUSH1 0xA0 SHL SUB DUP3 AND DUP3 SUB PUSH2 0x353 JUMPI JUMP JUMPDEST PUSH1 0x24 CALLDATALOAD SWAP1 PUSH1 0x1 PUSH1 0x1 PUSH1 0xA0 SHL SUB DUP3 AND DUP3 SUB PUSH2 0x353 JUMPI JUMP JUMPDEST PUSH1 0x40 DUP2 ADD SWAP1 DUP2 LT PUSH1 0x1 PUSH1 0x1 PUSH1 0x40 SHL SUB DUP3 GT OR PUSH2 0x3B90 JUMPI PUSH1 0x40 MSTORE JUMP JUMPDEST PUSH4 0x4E487B71 PUSH1 0xE0 SHL PUSH0 MSTORE PUSH1 0x41 PUSH1 0x4 MSTORE PUSH1 0x24 PUSH0 REVERT JUMPDEST PUSH1 0x80 DUP2 ADD SWAP1 DUP2 LT PUSH1 0x1 PUSH1 0x1 PUSH1 0x40 SHL SUB DUP3 GT OR PUSH2 0x3B90 JUMPI PUSH1 0x40 MSTORE JUMP JUMPDEST PUSH1 0x20 DUP2 ADD SWAP1 DUP2 LT PUSH1 0x1 PUSH1 0x1 PUSH1 0x40 SHL SUB DUP3 GT OR PUSH2 0x3B90 JUMPI PUSH1 0x40 MSTORE JUMP JUMPDEST SWAP1 PUSH1 0x1F DUP1 NOT SWAP2 ADD AND DUP2 ADD SWAP1 DUP2 LT PUSH1 0x1 PUSH1 0x1 PUSH1 0x40 SHL SUB DUP3 GT OR PUSH2 0x3B90 JUMPI PUSH1 0x40 MSTORE JUMP JUMPDEST PUSH1 0x1 PUSH1 0x1 PUSH1 0x40 SHL SUB DUP2 GT PUSH2 0x3B90 JUMPI PUSH1 0x5 SHL PUSH1 0x20 ADD SWAP1 JUMP JUMPDEST SWAP1 DUP1 PUSH1 0x1F DUP4 ADD SLT ISZERO PUSH2 0x353 JUMPI PUSH1 0x20 SWAP1 DUP3 CALLDATALOAD PUSH2 0x3C2C DUP2 PUSH2 0x3BFB JUMP JUMPDEST SWAP4 PUSH2 0x3C3A PUSH1 0x40 MLOAD SWAP6 DUP7 PUSH2 0x3BDA JUMP JUMPDEST DUP2 DUP6 MSTORE PUSH1 0x20 DUP1 DUP7 ADD SWAP3 PUSH1 0x5 SHL DUP3 ADD ADD SWAP3 DUP4 GT PUSH2 0x353 JUMPI PUSH1 0x20 ADD SWAP1 JUMPDEST DUP3 DUP3 LT PUSH2 0x3C63 JUMPI POP POP POP POP SWAP1 JUMP JUMPDEST DUP2 CALLDATALOAD DUP2 MSTORE SWAP1 DUP4 ADD SWAP1 DUP4 ADD PUSH2 0x3C55 JUMP JUMPDEST SWAP3 SWAP2 SWAP3 PUSH1 0x1 PUSH1 0x1 PUSH1 0x40 SHL SUB DUP3 GT PUSH2 0x3B90 JUMPI PUSH1 0x40 MLOAD SWAP2 PUSH2 0x3C9B PUSH1 0x1F DUP3 ADD PUSH1 0x1F NOT AND PUSH1 0x20 ADD DUP5 PUSH2 0x3BDA JUMP JUMPDEST DUP3 SWAP5 DUP2 DUP5 MSTORE DUP2 DUP4 ADD GT PUSH2 0x353 JUMPI DUP3 DUP2 PUSH1 0x20 SWAP4 DUP5 PUSH0 SWAP7 ADD CALLDATACOPY ADD ADD MSTORE JUMP JUMPDEST SWAP1 DUP1 PUSH1 0x1F DUP4 ADD SLT ISZERO PUSH2 0x353 JUMPI DUP2 PUSH1 0x20 PUSH2 0x3CD2 SWAP4 CALLDATALOAD SWAP2 ADD PUSH2 0x3C72 JUMP JUMPDEST SWAP1 JUMP JUMPDEST PUSH1 0x60 PUSH1 0x3 NOT DUP3 ADD SLT PUSH2 0x353 JUMPI PUSH1 0x1 PUSH1 0x1 PUSH1 0x40 SHL SUB SWAP2 PUSH1 0x4 CALLDATALOAD DUP4 DUP2 GT PUSH2 0x353 JUMPI DUP3 PUSH2 0x3D01 SWAP2 PUSH1 0x4 ADD PUSH2 0x3C12 JUMP JUMPDEST SWAP3 PUSH1 0x24 SWAP3 DUP4 CALLDATALOAD PUSH1 0x1 PUSH1 0x1 PUSH1 0xA0 SHL SUB DUP2 AND DUP2 SUB PUSH2 0x353 JUMPI SWAP4 PUSH1 0x44 CALLDATALOAD SWAP3 DUP1 DUP5 GT PUSH2 0x353 JUMPI DUP3 PUSH1 0x23 DUP6 ADD SLT ISZERO PUSH2 0x353 JUMPI DUP4 PUSH1 0x4 ADD CALLDATALOAD PUSH2 0x3D3C DUP2 PUSH2 0x3BFB JUMP JUMPDEST SWAP5 PUSH2 0x3D4A PUSH1 0x40 MLOAD SWAP7 DUP8 PUSH2 0x3BDA JUMP JUMPDEST DUP2 DUP7 MSTORE PUSH1 0x20 SWAP5 PUSH1 0x24 PUSH1 0x20 DUP9 ADD SWAP4 PUSH1 0x5 SHL DUP4 ADD ADD SWAP5 DUP2 DUP7 GT PUSH2 0x353 JUMPI PUSH1 0x24 DUP4 ADD SWAP4 JUMPDEST DUP7 DUP6 LT PUSH2 0x3D7D JUMPI POP POP POP POP POP POP POP POP SWAP1 JUMP JUMPDEST DUP5 CALLDATALOAD DUP7 DUP2 GT PUSH2 0x353 JUMPI DUP9 SWAP2 PUSH2 0x3D97 DUP6 DUP6 DUP6 SWAP5 DUP10 ADD ADD PUSH2 0x3CB7 JUMP JUMPDEST DUP2 MSTORE ADD SWAP5 ADD SWAP4 PUSH2 0x3D6B JUMP JUMPDEST PUSH1 0x20 SWAP1 PUSH1 0x20 PUSH1 0x40 DUP2 DUP4 ADD SWAP3 DUP3 DUP2 MSTORE DUP6 MLOAD DUP1 SWAP5 MSTORE ADD SWAP4 ADD SWAP2 PUSH0 JUMPDEST DUP3 DUP2 LT PUSH2 0x3DC9 JUMPI POP POP POP POP SWAP1 JUMP JUMPDEST DUP4 MLOAD DUP6 MSTORE SWAP4 DUP2 ADD SWAP4 SWAP3 DUP2 ADD SWAP3 PUSH1 0x1 ADD PUSH2 0x3DBB JUMP JUMPDEST PUSH1 0x40 SWAP1 PUSH1 0x3 NOT ADD SLT PUSH2 0x353 JUMPI PUSH1 0x4 CALLDATALOAD SWAP1 PUSH1 0x24 CALLDATALOAD PUSH1 0x3 DUP2 LT ISZERO PUSH2 0x353 JUMPI SWAP1 JUMP JUMPDEST PUSH1 0x40 PUSH1 0x3 NOT DUP3 ADD SLT PUSH2 0x353 JUMPI PUSH1 0x4 CALLDATALOAD SWAP1 PUSH1 0x1 PUSH1 0x1 PUSH1 0x40 SHL SUB DUP3 GT PUSH2 0x353 JUMPI PUSH2 0x3E26 SWAP2 PUSH1 0x4 ADD PUSH2 0x3C12 JUMP JUMPDEST SWAP1 PUSH1 0x24 CALLDATALOAD SWAP1 JUMP JUMPDEST PUSH1 0x60 PUSH1 0x3 NOT DUP3 ADD SLT PUSH2 0x353 JUMPI PUSH1 0x4 CALLDATALOAD SWAP2 PUSH1 0x24 CALLDATALOAD PUSH1 0x1 PUSH1 0x1 PUSH1 0xA0 SHL SUB DUP2 AND DUP2 SUB PUSH2 0x353 JUMPI SWAP2 PUSH1 0x44 CALLDATALOAD SWAP1 PUSH1 0x1 PUSH1 0x1 PUSH1 0x40 SHL SUB DUP3 GT PUSH2 0x353 JUMPI PUSH2 0x3CD2 SWAP2 PUSH1 0x4 ADD PUSH2 0x3CB7 JUMP JUMPDEST PUSH1 0x40 SWAP1 PUSH1 0x3 NOT ADD SLT PUSH2 0x353 JUMPI PUSH1 0x4 CALLDATALOAD SWAP1 PUSH1 0x24 CALLDATALOAD SWAP1 JUMP JUMPDEST SWAP1 PUSH1 0x1 DUP3 DUP2 SHR SWAP3 AND DUP1 ISZERO PUSH2 0x3EB3 JUMPI JUMPDEST PUSH1 0x20 DUP4 LT EQ PUSH2 0x3E9F JUMPI JUMP JUMPDEST PUSH4 0x4E487B71 PUSH1 0xE0 SHL PUSH0 MSTORE PUSH1 0x22 PUSH1 0x4 MSTORE PUSH1 0x24 PUSH0 REVERT JUMPDEST SWAP2 PUSH1 0x7F AND SWAP2 PUSH2 0x3E94 JUMP JUMPDEST SWAP1 PUSH1 0x40 MLOAD SWAP2 DUP3 PUSH0 DUP3 SLOAD PUSH2 0x3ECF DUP2 PUSH2 0x3E85 JUMP JUMPDEST SWAP1 DUP2 DUP5 MSTORE PUSH1 0x20 SWAP5 PUSH1 0x1 SWAP2 PUSH1 0x1 DUP2 AND SWAP1 DUP2 PUSH0 EQ PUSH2 0x3F3D JUMPI POP PUSH1 0x1 EQ PUSH2 0x3EFF JUMPI JUMPDEST POP POP POP PUSH2 0x3EFD SWAP3 POP SUB DUP4 PUSH2 0x3BDA JUMP JUMPDEST JUMP JUMPDEST PUSH0 SWAP1 DUP2 MSTORE DUP6 DUP2 KECCAK256 SWAP6 SWAP4 POP SWAP2 SWAP1 JUMPDEST DUP2 DUP4 LT PUSH2 0x3F25 JUMPI POP POP PUSH2 0x3EFD SWAP4 POP DUP3 ADD ADD PUSH0 DUP1 DUP1 PUSH2 0x3EEE JUMP JUMPDEST DUP6 SLOAD DUP9 DUP5 ADD DUP6 ADD MSTORE SWAP5 DUP6 ADD SWAP5 DUP8 SWAP5 POP SWAP2 DUP4 ADD SWAP2 PUSH2 0x3F0C JUMP JUMPDEST SWAP3 POP POP POP PUSH2 0x3EFD SWAP5 SWAP3 POP PUSH1 0xFF NOT AND DUP3 DUP5 ADD MSTORE ISZERO ISZERO PUSH1 0x5 SHL DUP3 ADD ADD PUSH0 DUP1 DUP1 PUSH2 0x3EEE JUMP JUMPDEST SWAP2 SWAP1 DUP3 MLOAD SWAP3 DUP4 DUP3 MSTORE PUSH0 JUMPDEST DUP5 DUP2 LT PUSH2 0x3F89 JUMPI POP POP DUP3 PUSH0 PUSH1 0x20 DUP1 SWAP5 SWAP6 DUP5 ADD ADD MSTORE PUSH1 0x1F DUP1 NOT SWAP2 ADD AND ADD ADD SWAP1 JUMP JUMPDEST PUSH1 0x20 DUP2 DUP4 ADD DUP2 ADD MLOAD DUP5 DUP4 ADD DUP3 ADD MSTORE ADD PUSH2 0x3F69 JUMP JUMPDEST SWAP1 PUSH2 0x3FB5 PUSH1 0x20 SWAP2 SWAP5 SWAP4 SWAP5 PUSH1 0x40 DUP5 MSTORE PUSH1 0x40 DUP5 ADD SWAP1 PUSH2 0x3F5F JUMP JUMPDEST SWAP4 ISZERO ISZERO SWAP2 ADD MSTORE JUMP JUMPDEST DUP1 SLOAD DUP3 LT ISZERO PUSH2 0x3FD2 JUMPI PUSH0 MSTORE PUSH1 0x20 PUSH0 KECCAK256 ADD SWAP1 PUSH0 SWAP1 JUMP JUMPDEST PUSH4 0x4E487B71 PUSH1 0xE0 SHL PUSH0 MSTORE PUSH1 0x32 PUSH1 0x4 MSTORE PUSH1 0x24 PUSH0 REVERT JUMPDEST SWAP1 PUSH1 0x6 DUP3 LT ISZERO PUSH2 0x3FF3 JUMPI MSTORE JUMP JUMPDEST PUSH4 0x4E487B71 PUSH1 0xE0 SHL PUSH0 MSTORE PUSH1 0x21 PUSH1 0x4 MSTORE PUSH1 0x24 PUSH0 REVERT JUMPDEST SWAP1 PUSH1 0x3 DUP3 LT ISZERO PUSH2 0x3FF3 JUMPI MSTORE JUMP JUMPDEST SWAP1 SWAP3 SWAP2 PUSH1 0x40 DUP3 ADD SWAP4 PUSH1 0x4 DUP2 LT ISZERO PUSH2 0x3FF3 JUMPI DUP3 MSTORE PUSH2 0x3EFD SWAP2 PUSH1 0x20 ADD SWAP1 PUSH2 0x4007 JUMP JUMPDEST ISZERO PUSH2 0x403B JUMPI JUMP JUMPDEST PUSH1 0x40 MLOAD PUSH3 0x461BCD PUSH1 0xE5 SHL DUP2 MSTORE PUSH1 0x20 PUSH1 0x4 DUP3 ADD MSTORE PUSH1 0x14 PUSH1 0x24 DUP3 ADD MSTORE PUSH20 0x2737BA1030B71030B1BA34BB329036B2B6B132B9 PUSH1 0x61 SHL PUSH1 0x44 DUP3 ADD MSTORE PUSH1 0x64 SWAP1 REVERT JUMPDEST ISZERO PUSH2 0x407E JUMPI JUMP JUMPDEST PUSH1 0x40 MLOAD PUSH3 0x461BCD PUSH1 0xE5 SHL DUP2 MSTORE PUSH1 0x20 PUSH1 0x4 DUP3 ADD MSTORE PUSH1 0x15 PUSH1 0x24 DUP3 ADD MSTORE PUSH21 0x82E4E4C2F240D8CADCCEE8D040DAD2E6DAC2E8C6D PUSH1 0x5B SHL PUSH1 0x44 DUP3 ADD MSTORE PUSH1 0x64 SWAP1 REVERT JUMPDEST ISZERO PUSH2 0x40C2 JUMPI JUMP JUMPDEST PUSH1 0x40 MLOAD PUSH3 0x461BCD PUSH1 0xE5 SHL DUP2 MSTORE PUSH1 0x20 PUSH1 0x4 DUP3 ADD MSTORE PUSH1 0x1C PUSH1 0x24 DUP3 ADD MSTORE PUSH32 0x5461726765742077616C6C6574206E6F74207265676973746572656400000000 PUSH1 0x44 DUP3 ADD MSTORE PUSH1 0x64 SWAP1 REVERT JUMPDEST PUSH1 0x1 PUSH1 0x1 PUSH1 0xA0 SHL SUB SWAP1 SWAP2 AND PUSH0 SWAP1 DUP2 MSTORE PUSH1 0x1 PUSH1 0x20 MSTORE PUSH1 0x40 SWAP1 KECCAK256 SLOAD SWAP1 DUP2 ISZERO PUSH2 0x4158 JUMPI PUSH2 0x4139 PUSH2 0x4132 PUSH2 0x4583 JUMP JUMPDEST DUP4 DUP4 PUSH2 0x4CBB JUMP JUMPDEST SWAP2 DUP3 ISZERO PUSH2 0x4145 JUMPI POP POP SWAP1 JUMP JUMPDEST PUSH2 0x3CD2 SWAP3 POP PUSH2 0x4152 PUSH2 0x45A4 JUMP JUMPDEST SWAP2 PUSH2 0x4CBB JUMP JUMPDEST POP POP PUSH0 SWAP1 JUMP JUMPDEST ISZERO PUSH2 0x4165 JUMPI JUMP JUMPDEST PUSH1 0x40 MLOAD PUSH3 0x461BCD PUSH1 0xE5 SHL DUP2 MSTORE PUSH1 0x20 PUSH1 0x4 DUP3 ADD MSTORE PUSH1 0x13 PUSH1 0x24 DUP3 ADD MSTORE PUSH19 0x139BC81C9958DBDC991CC81C1C9BDD9A591959 PUSH1 0x6A SHL PUSH1 0x44 DUP3 ADD MSTORE PUSH1 0x64 SWAP1 REVERT JUMPDEST DUP1 SLOAD PUSH1 0x1 PUSH1 0x40 SHL DUP2 LT ISZERO PUSH2 0x3B90 JUMPI PUSH2 0x41BD SWAP2 PUSH1 0x1 DUP3 ADD DUP2 SSTORE PUSH2 0x3FBD JUMP JUMPDEST PUSH1 0x1 DUP1 PUSH1 0xA0 SWAP5 SWAP4 SWAP5 SHL SUB DUP1 DUP5 SLOAD SWAP3 PUSH1 0x3 SHL SWAP4 AND DUP4 SHL SWAP3 SHL NOT AND OR SWAP1 SSTORE JUMP JUMPDEST PUSH1 0x4 SLOAD PUSH1 0x1 PUSH1 0x40 SHL DUP2 LT ISZERO PUSH2 0x3B90 JUMPI PUSH1 0x1 DUP2 ADD DUP1 PUSH1 0x4 SSTORE DUP2 LT ISZERO PUSH2 0x3FD2 JUMPI PUSH1 0x4 PUSH0 MSTORE PUSH32 0x8A35ACFBC15FF81A39AE7D344FD709F28E8600B4AA8C65C6B64BFE7FE36BD19B ADD SSTORE JUMP JUMPDEST DUP1 SLOAD SWAP1 PUSH1 0x1 PUSH1 0x40 SHL DUP3 LT ISZERO PUSH2 0x3B90 JUMPI DUP2 PUSH2 0x4244 SWAP2 PUSH1 0x1 PUSH2 0x425A SWAP5 ADD DUP2 SSTORE PUSH2 0x3FBD JUMP JUMPDEST DUP2 SWAP4 SWAP2 SLOAD SWAP1 PUSH1 0x3 SHL SWAP2 DUP3 SHL SWAP2 PUSH0 NOT SWAP1 SHL NOT AND OR SWAP1 JUMP JUMPDEST SWAP1 SSTORE JUMP JUMPDEST PUSH0 NOT DUP2 EQ PUSH2 0x426C JUMPI PUSH1 0x1 ADD SWAP1 JUMP JUMPDEST PUSH4 0x4E487B71 PUSH1 0xE0 SHL PUSH0 MSTORE PUSH1 0x11 PUSH1 0x4 MSTORE PUSH1 0x24 PUSH0 REVERT JUMPDEST DUP1 MLOAD DUP3 LT ISZERO PUSH2 0x3FD2 JUMPI PUSH1 0x20 SWAP2 PUSH1 0x5 SHL ADD ADD SWAP1 JUMP JUMPDEST PUSH1 0x40 MLOAD SWAP1 PUSH2 0x42A1 DUP3 PUSH2 0x3B75 JUMP JUMPDEST PUSH1 0x6 DUP3 MSTORE PUSH6 0x3B34B2BBB2B9 PUSH1 0xD1 SHL PUSH1 0x20 DUP4 ADD MSTORE JUMP JUMPDEST ISZERO PUSH2 0x42BD JUMPI JUMP JUMPDEST PUSH1 0x40 MLOAD PUSH3 0x461BCD PUSH1 0xE5 SHL DUP2 MSTORE PUSH1 0x20 PUSH1 0x4 DUP3 ADD MSTORE PUSH1 0xA PUSH1 0x24 DUP3 ADD MSTORE PUSH10 0x27B7363C9030B236B4B7 PUSH1 0xB1 SHL PUSH1 0x44 DUP3 ADD MSTORE PUSH1 0x64 SWAP1 REVERT JUMPDEST ISZERO PUSH2 0x42F6 JUMPI JUMP JUMPDEST PUSH1 0x40 MLOAD PUSH3 0x461BCD PUSH1 0xE5 SHL DUP2 MSTORE PUSH1 0x20 PUSH1 0x4 DUP3 ADD MSTORE PUSH1 0x15 PUSH1 0x24 DUP3 ADD MSTORE PUSH21 0x15D85B1B195D081B9BDD081C9959DA5CDD195C9959 PUSH1 0x5A SHL PUSH1 0x44 DUP3 ADD MSTORE PUSH1 0x64 SWAP1 REVERT JUMPDEST ISZERO PUSH2 0x433A JUMPI JUMP JUMPDEST PUSH1 0x40 MLOAD PUSH3 0x461BCD PUSH1 0xE5 SHL DUP2 MSTORE PUSH1 0x20 PUSH1 0x4 DUP3 ADD MSTORE PUSH1 0xF PUSH1 0x24 DUP3 ADD MSTORE PUSH15 0x496E76616C69642074727573746565 PUSH1 0x88 SHL PUSH1 0x44 DUP3 ADD MSTORE PUSH1 0x64 SWAP1 REVERT JUMPDEST ISZERO PUSH2 0x4378 JUMPI JUMP JUMPDEST PUSH1 0x40 MLOAD PUSH3 0x461BCD PUSH1 0xE5 SHL DUP2 MSTORE PUSH1 0x20 PUSH1 0x4 DUP3 ADD MSTORE PUSH1 0x17 PUSH1 0x24 DUP3 ADD MSTORE PUSH32 0x43616E6E6F74206170706F696E7420796F757273656C66000000000000000000 PUSH1 0x44 DUP3 ADD MSTORE PUSH1 0x64 SWAP1 REVERT JUMPDEST ISZERO PUSH2 0x43C4 JUMPI JUMP JUMPDEST PUSH1 0x40 MLOAD PUSH3 0x461BCD PUSH1 0xE5 SHL DUP2 MSTORE PUSH1 0x20 PUSH1 0x4 DUP3 ADD MSTORE PUSH1 0x16 PUSH1 0x24 DUP3 ADD MSTORE PUSH22 0x151C9D5CDD1959481B9BDD081C9959DA5CDD195C9959 PUSH1 0x52 SHL PUSH1 0x44 DUP3 ADD MSTORE PUSH1 0x64 SWAP1 REVERT JUMPDEST PUSH1 0x4 DUP3 LT ISZERO PUSH2 0x3FF3 JUMPI MSTORE JUMP JUMPDEST PUSH1 0x3 DUP3 LT ISZERO PUSH2 0x3FF3 JUMPI MSTORE JUMP JUMPDEST SWAP1 PUSH1 0x4 DUP2 LT ISZERO PUSH2 0x3FF3 JUMPI PUSH1 0xFF DUP1 NOT DUP4 SLOAD AND SWAP2 AND OR SWAP1 SSTORE JUMP JUMPDEST SWAP1 PUSH1 0x3 DUP2 LT ISZERO PUSH2 0x3FF3 JUMPI PUSH2 0xFF00 DUP3 SLOAD SWAP2 PUSH1 0x8 SHL AND SWAP1 PUSH2 0xFF00 NOT AND OR SWAP1 SSTORE JUMP JUMPDEST ISZERO PUSH2 0x4458 JUMPI JUMP JUMPDEST PUSH1 0x40 MLOAD PUSH3 0x461BCD PUSH1 0xE5 SHL DUP2 MSTORE PUSH1 0x20 PUSH1 0x4 DUP3 ADD MSTORE PUSH1 0x1E PUSH1 0x24 DUP3 ADD MSTORE PUSH32 0x5265636F726420494420686173682063616E6E6F7420626520656D7074790000 PUSH1 0x44 DUP3 ADD MSTORE PUSH1 0x64 SWAP1 REVERT JUMPDEST ISZERO PUSH2 0x44A4 JUMPI JUMP JUMPDEST PUSH1 0x40 MLOAD PUSH3 0x461BCD PUSH1 0xE5 SHL DUP2 MSTORE PUSH1 0x20 PUSH1 0x4 DUP3 ADD MSTORE PUSH1 0x1D PUSH1 0x24 DUP3 ADD MSTORE PUSH32 0x57616C6C657420616464726573732063616E6E6F74206265207A65726F000000 PUSH1 0x44 DUP3 ADD MSTORE PUSH1 0x64 SWAP1 REVERT JUMPDEST ISZERO PUSH2 0x44F0 JUMPI JUMP JUMPDEST PUSH1 0x40 MLOAD PUSH3 0x461BCD PUSH1 0xE5 SHL DUP2 MSTORE PUSH1 0x20 PUSH1 0x4 DUP3 ADD MSTORE PUSH1 0x13 PUSH1 0x24 DUP3 ADD MSTORE PUSH19 0x496E76616C696420726F6C6520737472696E67 PUSH1 0x68 SHL PUSH1 0x44 DUP3 ADD MSTORE PUSH1 0x64 SWAP1 REVERT JUMPDEST ISZERO PUSH2 0x4532 JUMPI JUMP JUMPDEST PUSH1 0x40 MLOAD PUSH3 0x461BCD PUSH1 0xE5 SHL DUP2 MSTORE PUSH1 0x20 PUSH1 0x4 DUP3 ADD MSTORE PUSH1 0x23 PUSH1 0x24 DUP3 ADD MSTORE PUSH32 0x54617267657420646F6573206E6F74206861766520616E206163746976652072 PUSH1 0x44 DUP3 ADD MSTORE PUSH3 0x6F6C65 PUSH1 0xE8 SHL PUSH1 0x64 DUP3 ADD MSTORE PUSH1 0x84 SWAP1 REVERT JUMPDEST PUSH1 0x40 MLOAD SWAP1 PUSH2 0x4590 DUP3 PUSH2 0x3B75 JUMP JUMPDEST PUSH1 0x5 DUP3 MSTORE PUSH5 0x37BBB732B9 PUSH1 0xD9 SHL PUSH1 0x20 DUP4 ADD MSTORE JUMP JUMPDEST PUSH1 0x40 MLOAD SWAP1 PUSH2 0x45B1 DUP3 PUSH2 0x3B75 JUMP JUMPDEST PUSH1 0xD DUP3 MSTORE PUSH13 0x30B236B4B734B9BA3930BA37B9 PUSH1 0x99 SHL PUSH1 0x20 DUP4 ADD MSTORE JUMP JUMPDEST SWAP4 SWAP3 SWAP2 PUSH2 0x45F6 SWAP1 PUSH2 0x45E8 PUSH1 0x40 SWAP4 PUSH1 0x60 DUP9 MSTORE PUSH1 0x60 DUP9 ADD SWAP1 PUSH2 0x3F5F JUMP JUMPDEST SWAP1 DUP7 DUP3 SUB PUSH1 0x20 DUP9 ADD MSTORE PUSH2 0x3F5F JUMP JUMPDEST SWAP4 ADD MSTORE JUMP JUMPDEST SWAP2 SWAP1 PUSH1 0x1 DUP1 PUSH1 0xA0 SHL SUB AND PUSH0 MSTORE PUSH1 0x1 PUSH1 0x20 MSTORE PUSH1 0x40 PUSH0 KECCAK256 SLOAD DUP1 ISZERO PUSH2 0x4620 JUMPI PUSH2 0x3CD2 SWAP3 PUSH2 0x4CBB JUMP JUMPDEST POP POP POP PUSH0 SWAP1 JUMP JUMPDEST PUSH1 0x1 PUSH1 0x1 PUSH1 0xA0 SHL SUB SWAP1 SWAP2 AND PUSH0 SWAP1 DUP2 MSTORE PUSH1 0x1 PUSH1 0x20 MSTORE PUSH1 0x40 SWAP1 KECCAK256 SLOAD SWAP1 DUP2 ISZERO PUSH2 0x4689 JUMPI PUSH1 0x20 SWAP3 SWAP2 PUSH2 0x4654 SWAP2 PUSH2 0x4B56 JUMP JUMPDEST PUSH0 MSTORE PUSH1 0x6 DUP3 MSTORE PUSH1 0x40 PUSH0 KECCAK256 PUSH1 0x40 MLOAD PUSH2 0x466A DUP2 PUSH2 0x3B75 JUMP JUMPDEST PUSH1 0xFF PUSH1 0x1 PUSH2 0x4677 DUP5 PUSH2 0x3EBD JUMP JUMPDEST SWAP4 DUP5 DUP5 MSTORE ADD SLOAD AND ISZERO ISZERO SWAP4 DUP5 SWAP2 ADD MSTORE SWAP2 SWAP1 JUMP JUMPDEST POP POP PUSH1 0x40 MLOAD PUSH2 0x4697 DUP2 PUSH2 0x3BBF JUMP JUMPDEST PUSH0 DUP2 MSTORE SWAP1 PUSH0 SWAP1 JUMP JUMPDEST ISZERO PUSH2 0x46A6 JUMPI JUMP JUMPDEST PUSH1 0x40 MLOAD PUSH3 0x461BCD PUSH1 0xE5 SHL DUP2 MSTORE PUSH1 0x20 PUSH1 0x4 DUP3 ADD MSTORE PUSH1 0x16 PUSH1 0x24 DUP3 ADD MSTORE PUSH22 0x496E76616C69642077616C6C65742061646472657373 PUSH1 0x50 SHL PUSH1 0x44 DUP3 ADD MSTORE PUSH1 0x64 SWAP1 REVERT JUMPDEST ISZERO PUSH2 0x46EB JUMPI JUMP JUMPDEST PUSH1 0x40 MLOAD PUSH3 0x461BCD PUSH1 0xE5 SHL DUP2 MSTORE PUSH1 0x20 PUSH1 0x4 DUP3 ADD MSTORE PUSH1 0x14 PUSH1 0x24 DUP3 ADD MSTORE PUSH20 0x92DCECC2D8D2C840EAE6CAE440928840D0C2E6D PUSH1 0x63 SHL PUSH1 0x44 DUP3 ADD MSTORE PUSH1 0x64 SWAP1 REVERT JUMPDEST ISZERO PUSH2 0x472E JUMPI JUMP JUMPDEST PUSH1 0x40 MLOAD PUSH3 0x461BCD PUSH1 0xE5 SHL DUP2 MSTORE PUSH1 0x20 PUSH1 0x4 DUP3 ADD MSTORE PUSH1 0x19 PUSH1 0x24 DUP3 ADD MSTORE PUSH32 0x57616C6C657420616C7265616479207265676973746572656400000000000000 PUSH1 0x44 DUP3 ADD MSTORE PUSH1 0x64 SWAP1 REVERT JUMPDEST ISZERO PUSH2 0x477A JUMPI JUMP JUMPDEST PUSH1 0x40 MLOAD PUSH3 0x461BCD PUSH1 0xE5 SHL DUP2 MSTORE PUSH1 0x20 PUSH1 0x4 DUP3 ADD MSTORE PUSH1 0xF PUSH1 0x24 DUP3 ADD MSTORE PUSH15 0x496E76616C69642061646472657373 PUSH1 0x88 SHL PUSH1 0x44 DUP3 ADD MSTORE PUSH1 0x64 SWAP1 REVERT JUMPDEST ISZERO PUSH2 0x47B8 JUMPI JUMP JUMPDEST PUSH1 0x40 MLOAD PUSH3 0x461BCD PUSH1 0xE5 SHL DUP2 MSTORE PUSH1 0x20 PUSH1 0x4 DUP3 ADD MSTORE PUSH1 0x1E PUSH1 0x24 DUP3 ADD MSTORE PUSH32 0x4E6F2061637469766520747275737465652072656C6174696F6E736869700000 PUSH1 0x44 DUP3 ADD MSTORE PUSH1 0x64 SWAP1 REVERT JUMPDEST PUSH1 0x1 PUSH1 0x1 PUSH1 0xA0 SHL SUB SWAP1 SWAP2 AND PUSH0 SWAP1 DUP2 MSTORE PUSH1 0x1 PUSH1 0x20 MSTORE PUSH1 0x40 SWAP1 KECCAK256 SLOAD DUP1 ISZERO PUSH2 0x4158 JUMPI PUSH2 0x4825 SWAP2 PUSH2 0x4B56 JUMP JUMPDEST PUSH0 MSTORE PUSH1 0x6 PUSH1 0x20 MSTORE PUSH1 0xFF PUSH1 0x1 PUSH1 0x40 PUSH0 KECCAK256 ADD SLOAD AND SWAP1 JUMP JUMPDEST PUSH1 0x1 PUSH1 0x1 PUSH1 0xA0 SHL SUB AND PUSH0 SWAP1 DUP2 MSTORE PUSH1 0x1 PUSH1 0x20 MSTORE PUSH1 0x40 SWAP1 KECCAK256 DUP1 SLOAD SWAP1 DUP2 ISZERO SWAP1 DUP2 ISZERO PUSH2 0x48B2 JUMPI JUMPDEST POP PUSH2 0x48AD JUMPI PUSH0 MSTORE PUSH1 0x2 PUSH1 0x20 MSTORE PUSH1 0xFF PUSH1 0x40 PUSH0 KECCAK256 SLOAD AND PUSH1 0x6 DUP2 LT ISZERO SWAP1 DUP2 PUSH2 0x3FF3 JUMPI PUSH1 0x2 DUP2 EQ SWAP2 DUP3 ISZERO PUSH2 0x48A0 JUMPI JUMPDEST DUP3 ISZERO PUSH2 0x4893 JUMPI POP POP SWAP1 JUMP JUMPDEST SWAP1 SWAP2 POP PUSH2 0x3FF3 JUMPI PUSH1 0x4 EQ SWAP1 JUMP JUMPDEST POP PUSH1 0x3 DUP2 EQ SWAP2 POP PUSH0 PUSH2 0x4888 JUMP JUMPDEST POP PUSH0 SWAP1 JUMP JUMPDEST PUSH1 0xFF SWAP2 POP PUSH1 0x1 ADD SLOAD AND ISZERO PUSH0 PUSH2 0x485D JUMP JUMPDEST SWAP4 SWAP3 SWAP4 PUSH0 JUMPDEST DUP2 MLOAD DUP2 LT ISZERO PUSH2 0x492F JUMPI DUP1 PUSH2 0x48E0 PUSH2 0x2649 PUSH1 0x1 SWAP4 DUP8 PUSH2 0x4280 JUMP JUMPDEST ISZERO PUSH2 0x492A JUMPI PUSH2 0x48F3 DUP8 PUSH2 0x451 DUP4 DUP7 PUSH2 0x4280 JUMP JUMPDEST ISZERO PUSH2 0x492A JUMPI PUSH2 0x4906 DUP5 PUSH2 0x451 DUP4 DUP7 PUSH2 0x4280 JUMP JUMPDEST PUSH2 0x492A JUMPI PUSH2 0x4924 DUP8 PUSH2 0x4918 DUP4 DUP7 PUSH2 0x4280 JUMP JUMPDEST MLOAD DUP7 PUSH2 0x26BC DUP6 DUP11 PUSH2 0x4280 JUMP JUMPDEST ADD PUSH2 0x48C7 JUMP JUMPDEST PUSH2 0x4924 JUMP JUMPDEST POP POP POP POP SWAP1 POP JUMP JUMPDEST SWAP1 PUSH2 0x4825 SWAP2 PUSH2 0x4B56 JUMP JUMPDEST SWAP3 SWAP2 SWAP3 PUSH2 0x494E DUP3 DUP3 PUSH2 0x4B56 JUMP JUMPDEST SWAP4 DUP5 PUSH0 MSTORE PUSH1 0x20 PUSH1 0x6 DUP2 MSTORE PUSH1 0x40 SWAP1 DUP2 PUSH0 KECCAK256 SWAP7 PUSH2 0x4968 DUP9 PUSH2 0x3EBD JUMP JUMPDEST SWAP8 DUP9 MLOAD ISZERO SWAP2 PUSH1 0xFF PUSH1 0x1 DUP1 SWAP4 ADD SLOAD AND SWAP2 DUP6 MLOAD SWAP1 PUSH2 0x4983 DUP3 PUSH2 0x3B75 JUMP JUMPDEST DUP8 DUP3 MSTORE DUP6 DUP3 ADD DUP2 DUP2 MSTORE DUP4 PUSH0 MSTORE PUSH1 0x6 DUP8 MSTORE DUP8 PUSH0 KECCAK256 SWAP3 MLOAD DUP1 MLOAD SWAP1 PUSH1 0x1 PUSH1 0x1 PUSH1 0x40 SHL SUB DUP3 GT PUSH2 0x3B90 JUMPI PUSH2 0x49B3 DUP6 SLOAD PUSH2 0x3E85 JUMP JUMPDEST PUSH1 0x1F DUP2 GT PUSH2 0x4B10 JUMPI JUMPDEST POP DUP9 SWAP1 PUSH1 0x1F DUP4 GT PUSH1 0x1 EQ PUSH2 0x4AC2 JUMPI PUSH2 0x4A01 SWAP6 SWAP5 SWAP4 SWAP3 SWAP2 PUSH0 SWAP2 DUP4 PUSH2 0x20B8 JUMPI POP POP PUSH0 NOT PUSH1 0x3 DUP4 SWAP1 SHL SHR NOT AND SWAP1 DUP4 SHL OR DUP4 SSTORE MLOAD ISZERO ISZERO SWAP2 ADD SWAP1 PUSH1 0xFF DUP1 NOT DUP4 SLOAD AND SWAP2 ISZERO ISZERO AND OR SWAP1 SSTORE JUMP JUMPDEST PUSH0 MSTORE PUSH1 0xD DUP4 MSTORE DUP8 DUP5 PUSH0 KECCAK256 SSTORE ISZERO PUSH0 EQ PUSH2 0x4A8D JUMPI DUP6 SWAP7 SWAP8 POP PUSH2 0x4A44 DUP5 DUP7 SWAP8 PUSH32 0xF9D17EB1340AB78960B594FF8BED1349985B800EE21199C6D5EA4A67454593AD SWAP8 PUSH2 0x4EA6 JUMP JUMPDEST PUSH2 0x4A67 JUMPI JUMPDEST PUSH2 0x4A5C DUP3 MLOAD SWAP4 DUP4 DUP6 SWAP5 DUP6 MSTORE DUP5 ADD SWAP1 PUSH2 0x3F5F JUMP JUMPDEST SWAP1 TIMESTAMP SWAP1 DUP4 ADD MSTORE SUB SWAP1 LOG4 JUMP JUMPDEST DUP6 PUSH0 MSTORE PUSH1 0xA DUP2 MSTORE PUSH2 0x4A7A DUP6 DUP4 PUSH0 KECCAK256 PUSH2 0x4222 JUMP JUMPDEST PUSH2 0x4A85 PUSH1 0xB SLOAD PUSH2 0x425E JUMP JUMPDEST PUSH1 0xB SSTORE PUSH2 0x4A49 JUMP JUMPDEST POP SWAP2 SWAP5 POP POP DUP5 MLOAD DUP2 DUP7 ADD KECCAK256 SWAP1 DUP5 MLOAD SWAP1 DUP6 ADD KECCAK256 SUB PUSH2 0x4AAB JUMPI JUMPDEST POP POP POP POP JUMP JUMPDEST PUSH2 0x20B3 PUSH2 0x4AB9 SWAP5 DUP4 DUP4 PUSH2 0x4B8A JUMP JUMPDEST PUSH0 DUP1 DUP1 DUP1 PUSH2 0x4AA5 JUMP JUMPDEST SWAP1 PUSH1 0x1F NOT DUP4 AND SWAP2 DUP7 PUSH0 MSTORE DUP11 PUSH0 KECCAK256 SWAP3 PUSH0 JUMPDEST DUP13 DUP3 DUP3 LT PUSH2 0x4AFC JUMPI POP POP SWAP2 DUP7 SWAP6 SWAP5 SWAP3 SWAP2 DUP4 PUSH2 0x4A01 SWAP10 SWAP9 SWAP6 SWAP4 LT PUSH2 0x20FE JUMPI POP POP POP DUP2 SHL ADD DUP4 SSTORE PUSH2 0x1FF3 JUMP JUMPDEST DUP4 DUP6 ADD MLOAD DUP7 SSTORE SWAP5 DUP9 ADD SWAP5 SWAP4 DUP5 ADD SWAP4 ADD PUSH2 0x4AD2 JUMP JUMPDEST DUP6 PUSH0 MSTORE DUP10 PUSH0 KECCAK256 PUSH1 0x1F DUP5 ADD PUSH1 0x5 SHR DUP2 ADD SWAP2 DUP12 DUP6 LT PUSH2 0x4B4C JUMPI JUMPDEST PUSH1 0x1F ADD PUSH1 0x5 SHR ADD SWAP1 DUP6 SWAP1 JUMPDEST DUP3 DUP2 LT PUSH2 0x4B41 JUMPI POP POP PUSH2 0x49BC JUMP JUMPDEST PUSH0 DUP2 SSTORE ADD DUP6 SWAP1 PUSH2 0x4B33 JUMP JUMPDEST SWAP1 SWAP2 POP DUP2 SWAP1 PUSH2 0x4B28 JUMP JUMPDEST SWAP1 PUSH1 0x40 MLOAD SWAP1 PUSH1 0x20 DUP3 ADD SWAP3 DUP4 MSTORE PUSH1 0x40 DUP3 ADD MSTORE PUSH1 0x40 DUP2 MSTORE PUSH1 0x60 DUP2 ADD DUP2 DUP2 LT PUSH1 0x1 PUSH1 0x1 PUSH1 0x40 SHL SUB DUP3 GT OR PUSH2 0x3B90 JUMPI PUSH1 0x40 MSTORE MLOAD SWAP1 KECCAK256 SWAP1 JUMP JUMPDEST DUP3 MLOAD PUSH1 0x20 DUP1 SWAP5 ADD KECCAK256 PUSH2 0x4B9A PUSH2 0x4583 JUMP JUMPDEST DUP1 MLOAD SWAP1 DUP6 ADD KECCAK256 DUP2 SUB PUSH2 0x4BBA JUMPI POP PUSH2 0x3EFD SWAP3 PUSH1 0x7 SWAP2 PUSH0 MSTORE MSTORE PUSH1 0x40 PUSH0 KECCAK256 PUSH2 0x4F29 JUMP JUMPDEST PUSH2 0x4BC2 PUSH2 0x45A4 JUMP JUMPDEST DUP1 MLOAD SWAP1 DUP6 ADD KECCAK256 DUP2 SUB PUSH2 0x4BE2 JUMPI POP PUSH2 0x3EFD SWAP3 PUSH1 0x8 SWAP2 PUSH0 MSTORE MSTORE PUSH1 0x40 PUSH0 KECCAK256 PUSH2 0x4F29 JUMP JUMPDEST PUSH2 0x4BEA PUSH2 0x4294 JUMP JUMPDEST DUP5 DUP2 MLOAD SWAP2 ADD KECCAK256 EQ PUSH2 0x4BFA JUMPI POP POP POP JUMP JUMPDEST PUSH2 0x3EFD SWAP3 PUSH1 0x9 SWAP2 PUSH0 MSTORE MSTORE PUSH1 0x40 PUSH0 KECCAK256 PUSH2 0x4F29 JUMP JUMPDEST PUSH1 0x1 PUSH1 0x1 PUSH1 0xA0 SHL SUB AND PUSH0 SWAP1 DUP2 MSTORE PUSH1 0x1 PUSH1 0x20 MSTORE PUSH1 0x40 SWAP1 KECCAK256 DUP1 SLOAD SWAP1 DUP2 ISZERO SWAP1 DUP2 ISZERO PUSH2 0x4C53 JUMPI JUMPDEST POP PUSH2 0x48AD JUMPI PUSH0 MSTORE PUSH1 0x2 PUSH1 0x20 MSTORE PUSH1 0xFF PUSH1 0x40 PUSH0 KECCAK256 SLOAD AND PUSH1 0x6 DUP2 LT ISZERO PUSH2 0x3FF3 JUMPI PUSH1 0x4 EQ SWAP1 JUMP JUMPDEST PUSH1 0xFF SWAP2 POP PUSH1 0x1 ADD SLOAD AND ISZERO PUSH0 PUSH2 0x4C30 JUMP JUMPDEST PUSH1 0x20 DUP2 MLOAD SWAP2 ADD KECCAK256 PUSH2 0x4C72 PUSH2 0x4583 JUMP JUMPDEST PUSH1 0x20 DUP2 MLOAD SWAP2 ADD KECCAK256 DUP2 EQ SWAP1 DUP2 ISZERO PUSH2 0x4CA2 JUMPI JUMPDEST DUP2 ISZERO PUSH2 0x4C8D JUMPI POP SWAP1 JUMP JUMPDEST SWAP1 POP PUSH2 0x4C97 PUSH2 0x4294 JUMP JUMPDEST PUSH1 0x20 DUP2 MLOAD SWAP2 ADD KECCAK256 EQ SWAP1 JUMP JUMPDEST SWAP1 POP PUSH2 0x4CAC PUSH2 0x45A4 JUMP JUMPDEST PUSH1 0x20 DUP2 MLOAD SWAP2 ADD KECCAK256 DUP2 EQ SWAP1 PUSH2 0x4C83 JUMP JUMPDEST PUSH1 0x20 SWAP3 SWAP2 PUSH2 0x4CC8 SWAP2 PUSH2 0x4B56 JUMP JUMPDEST PUSH0 MSTORE PUSH1 0x6 DUP3 MSTORE PUSH1 0x40 PUSH0 KECCAK256 PUSH1 0x40 MLOAD PUSH2 0x4CDE DUP2 PUSH2 0x3B75 JUMP JUMPDEST PUSH1 0xFF PUSH1 0x1 PUSH2 0x4CEB DUP5 PUSH2 0x3EBD JUMP JUMPDEST SWAP4 DUP5 DUP5 MSTORE ADD SLOAD AND ISZERO ISZERO SWAP4 DUP5 SWAP2 ADD MSTORE DUP3 PUSH2 0x4D03 JUMPI POP POP SWAP1 JUMP JUMPDEST SWAP1 SWAP2 POP PUSH1 0x20 DUP2 MLOAD SWAP2 ADD KECCAK256 SWAP1 PUSH1 0x20 DUP2 MLOAD SWAP2 ADD KECCAK256 EQ SWAP1 JUMP JUMPDEST PUSH1 0xC SLOAD PUSH1 0x1 PUSH1 0x1 PUSH1 0xA0 SHL SUB AND SWAP2 DUP3 ISZERO PUSH2 0x4620 JUMPI PUSH1 0x44 PUSH1 0x20 SWAP3 PUSH1 0x40 MLOAD SWAP5 DUP6 SWAP4 DUP5 SWAP3 PUSH4 0x193D8E75 PUSH1 0xE2 SHL DUP5 MSTORE PUSH1 0x4 DUP5 ADD MSTORE PUSH1 0x24 DUP4 ADD MSTORE GAS STATICCALL SWAP1 DUP2 ISZERO PUSH2 0x4D98 JUMPI PUSH0 SWAP2 PUSH2 0x4D60 JUMPI POP SWAP1 JUMP JUMPDEST SWAP1 POP PUSH1 0x20 DUP2 RETURNDATASIZE PUSH1 0x20 GT PUSH2 0x4D90 JUMPI JUMPDEST DUP2 PUSH2 0x4D7B PUSH1 0x20 SWAP4 DUP4 PUSH2 0x3BDA JUMP JUMPDEST DUP2 ADD SUB SLT PUSH2 0x353 JUMPI MLOAD DUP1 ISZERO ISZERO DUP2 SUB PUSH2 0x353 JUMPI SWAP1 JUMP JUMPDEST RETURNDATASIZE SWAP2 POP PUSH2 0x4D6E JUMP JUMPDEST PUSH1 0x40 MLOAD RETURNDATASIZE PUSH0 DUP3 RETURNDATACOPY RETURNDATASIZE SWAP1 REVERT JUMPDEST PUSH1 0x3 DUP4 LT ISZERO PUSH2 0x3FF3 JUMPI DUP3 ISZERO PUSH2 0x4DEE JUMPI PUSH1 0x1 SWAP2 PUSH2 0x4DBE SWAP2 PUSH2 0x4E4F JUMP JUMPDEST SWAP2 EQ PUSH2 0x4DC7 JUMPI SWAP1 JUMP JUMPDEST DUP1 MLOAD PUSH1 0x20 DUP3 ADD KECCAK256 PUSH2 0x4DD6 PUSH2 0x4583 JUMP JUMPDEST PUSH1 0x20 DUP2 MLOAD SWAP2 ADD KECCAK256 EQ PUSH2 0x4DE5 JUMPI SWAP1 JUMP JUMPDEST POP PUSH2 0x3CD2 PUSH2 0x45A4 JUMP JUMPDEST POP POP POP PUSH2 0x3CD2 PUSH2 0x4294 JUMP JUMPDEST PUSH1 0x1 PUSH1 0x1 PUSH1 0xA0 SHL SUB AND PUSH0 SWAP1 DUP2 MSTORE PUSH1 0x1 PUSH1 0x20 MSTORE PUSH1 0x40 SWAP1 KECCAK256 DUP1 SLOAD SWAP1 DUP2 ISZERO SWAP1 DUP2 ISZERO PUSH2 0x4E3F JUMPI JUMPDEST POP PUSH2 0x48AD JUMPI PUSH0 MSTORE PUSH1 0x2 PUSH1 0x20 MSTORE PUSH1 0xFF PUSH1 0x40 PUSH0 KECCAK256 SLOAD AND PUSH1 0x6 DUP2 LT ISZERO PUSH2 0x3FF3 JUMPI PUSH1 0x3 EQ SWAP1 JUMP JUMPDEST PUSH1 0xFF SWAP2 POP PUSH1 0x1 ADD SLOAD AND ISZERO PUSH0 PUSH2 0x4E1C JUMP JUMPDEST SWAP1 PUSH2 0x4E59 SWAP2 PUSH2 0x4B56 JUMP JUMPDEST PUSH0 MSTORE PUSH1 0x6 PUSH1 0x20 MSTORE PUSH1 0x40 PUSH0 KECCAK256 PUSH1 0xFF PUSH1 0x1 PUSH1 0x40 MLOAD SWAP3 PUSH2 0x4E75 DUP5 PUSH2 0x3B75 JUMP JUMPDEST PUSH2 0x4E7E DUP2 PUSH2 0x3EBD JUMP JUMPDEST DUP5 MSTORE ADD SLOAD AND ISZERO DUP1 ISZERO PUSH1 0x20 DUP4 ADD MSTORE PUSH2 0x4E93 JUMPI MLOAD SWAP1 JUMP JUMPDEST POP PUSH1 0x40 MLOAD PUSH2 0x4EA0 DUP2 PUSH2 0x3BBF JUMP JUMPDEST PUSH0 DUP2 MSTORE SWAP1 JUMP JUMPDEST DUP3 MLOAD PUSH1 0x20 DUP1 SWAP5 ADD KECCAK256 PUSH2 0x4EB6 PUSH2 0x4583 JUMP JUMPDEST DUP1 MLOAD SWAP1 DUP6 ADD KECCAK256 DUP2 SUB PUSH2 0x4ED6 JUMPI POP PUSH2 0x3EFD SWAP3 PUSH1 0x7 SWAP2 PUSH0 MSTORE MSTORE PUSH1 0x40 PUSH0 KECCAK256 PUSH2 0x4222 JUMP JUMPDEST PUSH2 0x4EDE PUSH2 0x45A4 JUMP JUMPDEST DUP1 MLOAD SWAP1 DUP6 ADD KECCAK256 DUP2 SUB PUSH2 0x4EFE JUMPI POP PUSH2 0x3EFD SWAP3 PUSH1 0x8 SWAP2 PUSH0 MSTORE MSTORE PUSH1 0x40 PUSH0 KECCAK256 PUSH2 0x4222 JUMP JUMPDEST PUSH2 0x4F06 PUSH2 0x4294 JUMP JUMPDEST DUP5 DUP2 MLOAD SWAP2 ADD KECCAK256 EQ PUSH2 0x4F16 JUMPI POP POP POP JUMP JUMPDEST PUSH2 0x3EFD SWAP3 PUSH1 0x9 SWAP2 PUSH0 MSTORE MSTORE PUSH1 0x40 PUSH0 KECCAK256 PUSH2 0x4222 JUMP JUMPDEST PUSH0 JUMPDEST DUP2 SLOAD SWAP1 DUP2 DUP2 LT ISZERO PUSH2 0x4AA5 JUMPI DUP4 SWAP2 PUSH2 0x4F42 DUP3 DUP6 PUSH2 0x3FBD JUMP JUMPDEST SWAP6 SWAP1 SLOAD PUSH1 0x3 SWAP7 DUP8 SHL SHR EQ PUSH2 0x4F5C JUMPI POP SWAP1 SWAP3 POP PUSH1 0x1 ADD PUSH2 0x4F2B JUMP JUMPDEST PUSH0 NOT SWAP3 POP DUP3 DUP2 ADD SWAP1 DUP2 GT PUSH2 0x426C JUMPI PUSH2 0x4244 PUSH2 0x4F7A PUSH2 0x4F87 SWAP3 DUP7 PUSH2 0x3FBD JUMP JUMPDEST SWAP1 SLOAD SWAP1 DUP8 SHL SHR SWAP3 DUP6 PUSH2 0x3FBD JUMP JUMPDEST SWAP1 SSTORE DUP2 SLOAD DUP1 ISZERO PUSH2 0x4FAC JUMPI DUP2 ADD SWAP3 PUSH2 0x4F9E DUP5 DUP5 PUSH2 0x3FBD JUMP JUMPDEST DUP2 SWAP4 SWAP2 SLOAD SWAP3 SHL SHL NOT AND SWAP1 SSTORE SSTORE JUMP JUMPDEST PUSH4 0x4E487B71 PUSH1 0xE0 SHL PUSH0 MSTORE PUSH1 0x31 PUSH1 0x4 MSTORE PUSH1 0x24 PUSH0 REVERT JUMPDEST SWAP1 PUSH0 DUP1 SWAP2 PUSH1 0x20 DUP2 MLOAD SWAP2 ADD DUP5 GAS DELEGATECALL DUP1 DUP1 PUSH2 0x503E JUMPI JUMPDEST ISZERO PUSH2 0x4FF4 JUMPI POP POP PUSH1 0x40 MLOAD RETURNDATASIZE DUP2 MSTORE RETURNDATASIZE PUSH0 PUSH1 0x20 DUP4 ADD RETURNDATACOPY PUSH1 0x20 RETURNDATASIZE DUP3 ADD ADD PUSH1 0x40 MSTORE SWAP1 JUMP JUMPDEST ISZERO PUSH2 0x501B JUMPI PUSH1 0x40 MLOAD PUSH4 0x9996B315 PUSH1 0xE0 SHL DUP2 MSTORE PUSH1 0x1 PUSH1 0x1 PUSH1 0xA0 SHL SUB SWAP1 SWAP2 AND PUSH1 0x4 DUP3 ADD MSTORE PUSH1 0x24 SWAP1 REVERT JUMPDEST RETURNDATASIZE ISZERO PUSH2 0x502C JUMPI PUSH1 0x40 MLOAD RETURNDATASIZE PUSH0 DUP3 RETURNDATACOPY RETURNDATASIZE SWAP1 REVERT JUMPDEST PUSH1 0x40 MLOAD PUSH4 0xD6BDA275 PUSH1 0xE0 SHL DUP2 MSTORE PUSH1 0x4 SWAP1 REVERT JUMPDEST POP RETURNDATASIZE ISZERO ISZERO DUP1 PUSH2 0x4FD4 JUMPI POP DUP2 EXTCODESIZE ISZERO ISZERO PUSH2 0x4FD4 JUMP INVALID LOG2 PUSH5 0x6970667358 0x22 SLT KECCAK256 0xE9 0xBC BLOCKHASH NOT RETURN PUSH4 0x7C403AF 0xAA PUSH18 0xFDF9894DDE26537FA228F303401726CBE86A 0xD7 PUSH32 0x64736F6C63430008180033000000000000000000000000000000000000000000 "},"methodIdentifiers":{"UPGRADE_INTERFACE_VERSION()":"ad3cb1cc","acceptTrustee(bytes32)":"b8cab84b","addMember(address,bytes32)":"49df7208","addMemberBatch(address[],bytes32)":"69ac2022","admin()":"f851a440","adminsByRecord(bytes32,uint256)":"8776cd35","bootstrapDependentTrustee(bytes32,bytes32)":"e6efcd5d","changeRole(bytes32,address,string)":"29c9087a","changeRoleBatch(bytes32[],address,string[])":"51eed472","deactivateWallet(address)":"0b3ffd1d","getAllUsers()":"e2842d79","getGuestAccess(bytes32,bytes32)":"3256e5ab","getHealthRecordCore()":"e94ed257","getRecordAdmins(bytes32)":"41a51baa","getRecordOwners(bytes32)":"c36dc9ef","getRecordRoleStats(bytes32)":"8db7edb4","getRecordViewers(bytes32)":"033e822f","getRecordsByUser(bytes32)":"6544b05b","getRoleDetails(bytes32,address)":"422a5bb8","getRoleDetailsByUser(bytes32,bytes32)":"43e19704","getRoleGranter(bytes32,bytes32)":"aaddc345","getTotalRoles()":"4b6feb7c","getTotalUsers()":"9be572f6","getTrusteeRelationship(bytes32,bytes32)":"9915b91f","getUserForWallet(address)":"00b0c809","getUserStatus(bytes32)":"f29e007b","getWalletsForUser(bytes32)":"d12a7768","grantGuestAccess(bytes32[],address,bytes32,bytes32,uint256)":"0591bdf4","grantRole(bytes32,address,string)":"dde492ea","grantRoleAsTrusteeBatch(bytes32[],bytes32)":"bafc8892","grantRoleBatch(bytes32[],address,string[])":"02ba8109","guestAccessByRecord(bytes32,bytes32)":"eec047aa","hasActiveGuestAccess(bytes32,bytes32)":"e211e89c","hasActiveRole(bytes32,address)":"c88c35fe","hasRole(bytes32,address,string)":"3befa410","healthRecordCore()":"562c788e","initialize()":"8129fc1c","initializeRecordRole(bytes32,address,string)":"726d5447","isActiveMember(address)":"45ecd02f","isActiveSubject(bytes32,bytes32)":"64f639d4","isControllerOf(bytes32,bytes32)":"557ee54f","isOwnerOrAdmin(bytes32,address)":"0519e2a0","isVerifiedMember(address)":"cb261a03","isVerifiedProvider(address)":"259ed80e","ownersByRecord(bytes32,uint256)":"55816079","proposeTrustee(bytes32,uint8)":"1c0c18d8","proxiableUUID()":"52d1902d","reactivateWallet(address)":"bb0f86d5","recordRoles(bytes32)":"33105592","recordsByUser(bytes32,uint256)":"fa7a6bcc","revokeGuestAccess(bytes32[],bytes32)":"1dc63201","revokeRole(bytes32,address)":"d547741f","revokeRoleBatch(bytes32[],address)":"f12b9ad3","revokeTrustee(bytes32,bytes32)":"c979c9bf","roleGrantedBy(bytes32)":"cda06c6e","setHealthRecordCore(address)":"c7155823","setUserStatus(bytes32,uint8)":"96207e02","totalRoles()":"790e118c","totalUsers()":"bff1f9e1","transferAdmin(address)":"75829def","trusteeRelationships(bytes32,bytes32)":"7b657d07","updateTrusteeLevel(bytes32,uint8)":"ab48384a","upgradeToAndCall(address,bytes)":"4f1ef286","userList(uint256)":"9f4216e8","userStatus(bytes32)":"6b4bed97","userWallets(bytes32,uint256)":"9443cd80","viewersByRecord(bytes32,uint256)":"93ccfba8","voluntarilyLeaveOwnership(bytes32)":"2ae8511d","wallets(address)":"89b08f11"}},"storageLayout":{"storage":[{"astId":1563,"contract":"smartContracts/MemberRoleManager.sol:MemberRoleManager","label":"admin","offset":0,"slot":"0","type":"t_address"},{"astId":1756,"contract":"smartContracts/MemberRoleManager.sol:MemberRoleManager","label":"wallets","offset":0,"slot":"1","type":"t_mapping(t_address,t_struct(UserInfo)1751_storage)"},{"astId":1761,"contract":"smartContracts/MemberRoleManager.sol:MemberRoleManager","label":"userStatus","offset":0,"slot":"2","type":"t_mapping(t_bytes32,t_enum(MemberStatus)1716)"},{"astId":1766,"contract":"smartContracts/MemberRoleManager.sol:MemberRoleManager","label":"userWallets","offset":0,"slot":"3","type":"t_mapping(t_bytes32,t_array(t_address)dyn_storage)"},{"astId":1769,"contract":"smartContracts/MemberRoleManager.sol:MemberRoleManager","label":"userList","offset":0,"slot":"4","type":"t_array(t_bytes32)dyn_storage"},{"astId":1771,"contract":"smartContracts/MemberRoleManager.sol:MemberRoleManager","label":"totalUsers","offset":0,"slot":"5","type":"t_uint256"},{"astId":2423,"contract":"smartContracts/MemberRoleManager.sol:MemberRoleManager","label":"recordRoles","offset":0,"slot":"6","type":"t_mapping(t_bytes32,t_struct(RecordRole)2418_storage)"},{"astId":2428,"contract":"smartContracts/MemberRoleManager.sol:MemberRoleManager","label":"ownersByRecord","offset":0,"slot":"7","type":"t_mapping(t_bytes32,t_array(t_bytes32)dyn_storage)"},{"astId":2433,"contract":"smartContracts/MemberRoleManager.sol:MemberRoleManager","label":"adminsByRecord","offset":0,"slot":"8","type":"t_mapping(t_bytes32,t_array(t_bytes32)dyn_storage)"},{"astId":2438,"contract":"smartContracts/MemberRoleManager.sol:MemberRoleManager","label":"viewersByRecord","offset":0,"slot":"9","type":"t_mapping(t_bytes32,t_array(t_bytes32)dyn_storage)"},{"astId":2443,"contract":"smartContracts/MemberRoleManager.sol:MemberRoleManager","label":"recordsByUser","offset":0,"slot":"10","type":"t_mapping(t_bytes32,t_array(t_bytes32)dyn_storage)"},{"astId":2445,"contract":"smartContracts/MemberRoleManager.sol:MemberRoleManager","label":"totalRoles","offset":0,"slot":"11","type":"t_uint256"},{"astId":2448,"contract":"smartContracts/MemberRoleManager.sol:MemberRoleManager","label":"healthRecordCore","offset":0,"slot":"12","type":"t_contract(HealthRecordCoreInterface)1554"},{"astId":2452,"contract":"smartContracts/MemberRoleManager.sol:MemberRoleManager","label":"roleGrantedBy","offset":0,"slot":"13","type":"t_mapping(t_bytes32,t_bytes32)"},{"astId":4259,"contract":"smartContracts/MemberRoleManager.sol:MemberRoleManager","label":"trusteeRelationships","offset":0,"slot":"14","type":"t_mapping(t_bytes32,t_mapping(t_bytes32,t_struct(TrusteeRelationship)4252_storage))"},{"astId":5307,"contract":"smartContracts/MemberRoleManager.sol:MemberRoleManager","label":"guestAccessByRecord","offset":0,"slot":"15","type":"t_mapping(t_bytes32,t_mapping(t_bytes32,t_struct(GuestAccess)5276_storage))"},{"astId":5680,"contract":"smartContracts/MemberRoleManager.sol:MemberRoleManager","label":"__gap","offset":0,"slot":"16","type":"t_array(t_uint256)50_storage"}],"types":{"t_address":{"encoding":"inplace","label":"address","numberOfBytes":"20"},"t_array(t_address)dyn_storage":{"base":"t_address","encoding":"dynamic_array","label":"address[]","numberOfBytes":"32"},"t_array(t_bytes32)dyn_storage":{"base":"t_bytes32","encoding":"dynamic_array","label":"bytes32[]","numberOfBytes":"32"},"t_array(t_uint256)50_storage":{"base":"t_uint256","encoding":"inplace","label":"uint256[50]","numberOfBytes":"1600"},"t_bool":{"encoding":"inplace","label":"bool","numberOfBytes":"1"},"t_bytes32":{"encoding":"inplace","label":"bytes32","numberOfBytes":"32"},"t_contract(HealthRecordCoreInterface)1554":{"encoding":"inplace","label":"contract HealthRecordCoreInterface","numberOfBytes":"20"},"t_enum(MemberStatus)1716":{"encoding":"inplace","label":"enum MemberRoleManager.MemberStatus","numberOfBytes":"1"},"t_enum(TrusteeLevel)4240":{"encoding":"inplace","label":"enum MemberRoleManager.TrusteeLevel","numberOfBytes":"1"},"t_enum(TrusteeStatus)4245":{"encoding":"inplace","label":"enum MemberRoleManager.TrusteeStatus","numberOfBytes":"1"},"t_mapping(t_address,t_struct(UserInfo)1751_storage)":{"encoding":"mapping","key":"t_address","label":"mapping(address => struct MemberRoleManager.UserInfo)","numberOfBytes":"32","value":"t_struct(UserInfo)1751_storage"},"t_mapping(t_bytes32,t_array(t_address)dyn_storage)":{"encoding":"mapping","key":"t_bytes32","label":"mapping(bytes32 => address[])","numberOfBytes":"32","value":"t_array(t_address)dyn_storage"},"t_mapping(t_bytes32,t_array(t_bytes32)dyn_storage)":{"encoding":"mapping","key":"t_bytes32","label":"mapping(bytes32 => bytes32[])","numberOfBytes":"32","value":"t_array(t_bytes32)dyn_storage"},"t_mapping(t_bytes32,t_bytes32)":{"encoding":"mapping","key":"t_bytes32","label":"mapping(bytes32 => bytes32)","numberOfBytes":"32","value":"t_bytes32"},"t_mapping(t_bytes32,t_enum(MemberStatus)1716)":{"encoding":"mapping","key":"t_bytes32","label":"mapping(bytes32 => enum MemberRoleManager.MemberStatus)","numberOfBytes":"32","value":"t_enum(MemberStatus)1716"},"t_mapping(t_bytes32,t_mapping(t_bytes32,t_struct(GuestAccess)5276_storage))":{"encoding":"mapping","key":"t_bytes32","label":"mapping(bytes32 => mapping(bytes32 => struct MemberRoleManager.GuestAccess))","numberOfBytes":"32","value":"t_mapping(t_bytes32,t_struct(GuestAccess)5276_storage)"},"t_mapping(t_bytes32,t_mapping(t_bytes32,t_struct(TrusteeRelationship)4252_storage))":{"encoding":"mapping","key":"t_bytes32","label":"mapping(bytes32 => mapping(bytes32 => struct MemberRoleManager.TrusteeRelationship))","numberOfBytes":"32","value":"t_mapping(t_bytes32,t_struct(TrusteeRelationship)4252_storage)"},"t_mapping(t_bytes32,t_struct(GuestAccess)5276_storage)":{"encoding":"mapping","key":"t_bytes32","label":"mapping(bytes32 => struct MemberRoleManager.GuestAccess)","numberOfBytes":"32","value":"t_struct(GuestAccess)5276_storage"},"t_mapping(t_bytes32,t_struct(RecordRole)2418_storage)":{"encoding":"mapping","key":"t_bytes32","label":"mapping(bytes32 => struct MemberRoleManager.RecordRole)","numberOfBytes":"32","value":"t_struct(RecordRole)2418_storage"},"t_mapping(t_bytes32,t_struct(TrusteeRelationship)4252_storage)":{"encoding":"mapping","key":"t_bytes32","label":"mapping(bytes32 => struct MemberRoleManager.TrusteeRelationship)","numberOfBytes":"32","value":"t_struct(TrusteeRelationship)4252_storage"},"t_string_storage":{"encoding":"bytes","label":"string","numberOfBytes":"32"},"t_struct(GuestAccess)5276_storage":{"encoding":"inplace","label":"struct MemberRoleManager.GuestAccess","members":[{"astId":5269,"contract":"smartContracts/MemberRoleManager.sol:MemberRoleManager","label":"grantedAt","offset":0,"slot":"0","type":"t_uint256"},{"astId":5271,"contract":"smartContracts/MemberRoleManager.sol:MemberRoleManager","label":"expiresAt","offset":0,"slot":"1","type":"t_uint256"},{"astId":5273,"contract":"smartContracts/MemberRoleManager.sol:MemberRoleManager","label":"grantedByIdHash","offset":0,"slot":"2","type":"t_bytes32"},{"astId":5275,"contract":"smartContracts/MemberRoleManager.sol:MemberRoleManager","label":"guestEmailHash","offset":0,"slot":"3","type":"t_bytes32"}],"numberOfBytes":"128"},"t_struct(RecordRole)2418_storage":{"encoding":"inplace","label":"struct MemberRoleManager.RecordRole","members":[{"astId":2415,"contract":"smartContracts/MemberRoleManager.sol:MemberRoleManager","label":"role","offset":0,"slot":"0","type":"t_string_storage"},{"astId":2417,"contract":"smartContracts/MemberRoleManager.sol:MemberRoleManager","label":"isActive","offset":0,"slot":"1","type":"t_bool"}],"numberOfBytes":"64"},"t_struct(TrusteeRelationship)4252_storage":{"encoding":"inplace","label":"struct MemberRoleManager.TrusteeRelationship","members":[{"astId":4248,"contract":"smartContracts/MemberRoleManager.sol:MemberRoleManager","label":"status","offset":0,"slot":"0","type":"t_enum(TrusteeStatus)4245"},{"astId":4251,"contract":"smartContracts/MemberRoleManager.sol:MemberRoleManager","label":"level","offset":1,"slot":"0","type":"t_enum(TrusteeLevel)4240"}],"numberOfBytes":"32"},"t_struct(UserInfo)1751_storage":{"encoding":"inplace","label":"struct MemberRoleManager.UserInfo","members":[{"astId":1748,"contract":"smartContracts/MemberRoleManager.sol:MemberRoleManager","label":"userIdHash","offset":0,"slot":"0","type":"t_bytes32"},{"astId":1750,"contract":"smartContracts/MemberRoleManager.sol:MemberRoleManager","label":"isWalletActive","offset":0,"slot":"1","type":"t_bool"}],"numberOfBytes":"64"},"t_uint256":{"encoding":"inplace","label":"uint256","numberOfBytes":"32"}}}}}}