{"smartContracts/HealthRecordCore.sol":{"HealthRecordCore":{"abi":[{"inputs":[],"stateMutability":"nonpayable","type":"constructor"},{"inputs":[{"internalType":"address","name":"target","type":"address"}],"name":"AddressEmptyCode","type":"error"},{"inputs":[{"internalType":"address","name":"implementation","type":"address"}],"name":"ERC1967InvalidImplementation","type":"error"},{"inputs":[],"name":"ERC1967NonPayable","type":"error"},{"inputs":[],"name":"FailedCall","type":"error"},{"inputs":[],"name":"InvalidInitialization","type":"error"},{"inputs":[],"name":"NotInitializing","type":"error"},{"inputs":[],"name":"UUPSUnauthorizedCallContext","type":"error"},{"inputs":[{"internalType":"bytes32","name":"slot","type":"bytes32"}],"name":"UUPSUnsupportedProxiableUUID","type":"error"},{"anonymous":false,"inputs":[{"indexed":true,"internalType":"address","name":"oldAdmin","type":"address"},{"indexed":true,"internalType":"address","name":"newAdmin","type":"address"},{"indexed":false,"internalType":"uint256","name":"timestamp","type":"uint256"}],"name":"AdminTransferred","type":"event"},{"anonymous":false,"inputs":[{"indexed":true,"internalType":"bytes32","name":"recordHash","type":"bytes32"},{"indexed":true,"internalType":"bytes32","name":"disputerIdHash","type":"bytes32"},{"indexed":false,"internalType":"enum HealthRecordCore.DisputeSeverity","name":"oldSeverity","type":"uint8"},{"indexed":false,"internalType":"enum HealthRecordCore.DisputeSeverity","name":"newSeverity","type":"uint8"},{"indexed":false,"internalType":"enum HealthRecordCore.DisputeCulpability","name":"oldCulpability","type":"uint8"},{"indexed":false,"internalType":"enum HealthRecordCore.DisputeCulpability","name":"newCulpability","type":"uint8"},{"indexed":false,"internalType":"uint256","name":"timestamp","type":"uint256"}],"name":"DisputeModification","type":"event"},{"anonymous":false,"inputs":[{"indexed":true,"internalType":"bytes32","name":"recordHash","type":"bytes32"},{"indexed":true,"internalType":"bytes32","name":"disputerIdHash","type":"bytes32"},{"indexed":false,"internalType":"uint256","name":"timestamp","type":"uint256"}],"name":"DisputeRetracted","type":"event"},{"anonymous":false,"inputs":[{"indexed":false,"internalType":"uint64","name":"version","type":"uint64"}],"name":"Initialized","type":"event"},{"anonymous":false,"inputs":[{"indexed":true,"internalType":"bytes32","name":"recordIdHash","type":"bytes32"},{"indexed":true,"internalType":"bytes32","name":"recordHash","type":"bytes32"},{"indexed":true,"internalType":"bytes32","name":"subjectIdHash","type":"bytes32"},{"indexed":false,"internalType":"uint256","name":"timestamp","type":"uint256"}],"name":"RecordAnchored","type":"event"},{"anonymous":false,"inputs":[{"indexed":true,"internalType":"bytes32","name":"recordHash","type":"bytes32"},{"indexed":true,"internalType":"bytes32","name":"recordIdHash","type":"bytes32"},{"indexed":true,"internalType":"bytes32","name":"disputerIdHash","type":"bytes32"},{"indexed":false,"internalType":"enum HealthRecordCore.DisputeSeverity","name":"severity","type":"uint8"},{"indexed":false,"internalType":"enum HealthRecordCore.DisputeCulpability","name":"culpability","type":"uint8"},{"indexed":false,"internalType":"uint256","name":"timestamp","type":"uint256"}],"name":"RecordDisputed","type":"event"},{"anonymous":false,"inputs":[{"indexed":true,"internalType":"bytes32","name":"recordIdHash","type":"bytes32"},{"indexed":true,"internalType":"bytes32","name":"newHash","type":"bytes32"},{"indexed":false,"internalType":"bytes32","name":"addedBy","type":"bytes32"},{"indexed":false,"internalType":"uint256","name":"timestamp","type":"uint256"}],"name":"RecordHashAdded","type":"event"},{"anonymous":false,"inputs":[{"indexed":true,"internalType":"bytes32","name":"recordIdHash","type":"bytes32"},{"indexed":true,"internalType":"bytes32","name":"recordHash","type":"bytes32"},{"indexed":false,"internalType":"uint256","name":"timestamp","type":"uint256"}],"name":"RecordHashRetracted","type":"event"},{"anonymous":false,"inputs":[{"indexed":true,"internalType":"bytes32","name":"recordIdHash","type":"bytes32"},{"indexed":true,"internalType":"bytes32","name":"subjectIdHash","type":"bytes32"},{"indexed":false,"internalType":"uint256","name":"timestamp","type":"uint256"}],"name":"RecordReanchored","type":"event"},{"anonymous":false,"inputs":[{"indexed":true,"internalType":"bytes32","name":"recordIdHash","type":"bytes32"},{"indexed":true,"internalType":"bytes32","name":"subjectIdHash","type":"bytes32"},{"indexed":false,"internalType":"uint256","name":"timestamp","type":"uint256"}],"name":"RecordUnanchored","type":"event"},{"anonymous":false,"inputs":[{"indexed":true,"internalType":"bytes32","name":"recordHash","type":"bytes32"},{"indexed":true,"internalType":"bytes32","name":"recordIdHash","type":"bytes32"},{"indexed":true,"internalType":"bytes32","name":"verifierIdHash","type":"bytes32"},{"indexed":false,"internalType":"enum HealthRecordCore.VerificationLevel","name":"level","type":"uint8"},{"indexed":false,"internalType":"uint256","name":"timestamp","type":"uint256"}],"name":"RecordVerified","type":"event"},{"anonymous":false,"inputs":[{"indexed":true,"internalType":"bytes32","name":"subjectIdHash","type":"bytes32"},{"indexed":true,"internalType":"bytes32","name":"recordIdHash","type":"bytes32"},{"indexed":true,"internalType":"bytes32","name":"reporterIdHash","type":"bytes32"},{"indexed":false,"internalType":"uint256","name":"timestamp","type":"uint256"}],"name":"UnacceptedUpdateFlagRevoked","type":"event"},{"anonymous":false,"inputs":[{"indexed":true,"internalType":"bytes32","name":"subjectIdHash","type":"bytes32"},{"indexed":true,"internalType":"bytes32","name":"recordIdHash","type":"bytes32"},{"indexed":true,"internalType":"bytes32","name":"reporterIdHash","type":"bytes32"},{"indexed":false,"internalType":"bytes32","name":"recordHash","type":"bytes32"},{"indexed":false,"internalType":"uint256","name":"timestamp","type":"uint256"}],"name":"UnacceptedUpdateFlagged","type":"event"},{"anonymous":false,"inputs":[{"indexed":true,"internalType":"address","name":"implementation","type":"address"}],"name":"Upgraded","type":"event"},{"anonymous":false,"inputs":[{"indexed":true,"internalType":"bytes32","name":"recordHash","type":"bytes32"},{"indexed":true,"internalType":"bytes32","name":"verifierIdHash","type":"bytes32"},{"indexed":false,"internalType":"enum HealthRecordCore.VerificationLevel","name":"oldLevel","type":"uint8"},{"indexed":false,"internalType":"enum HealthRecordCore.VerificationLevel","name":"newLevel","type":"uint8"},{"indexed":false,"internalType":"uint256","name":"timestamp","type":"uint256"}],"name":"VerificationLevelModified","type":"event"},{"anonymous":false,"inputs":[{"indexed":true,"internalType":"bytes32","name":"recordHash","type":"bytes32"},{"indexed":true,"internalType":"bytes32","name":"verifierIdHash","type":"bytes32"},{"indexed":false,"internalType":"uint256","name":"timestamp","type":"uint256"}],"name":"VerificationRetracted","type":"event"},{"inputs":[],"name":"UPGRADE_INTERFACE_VERSION","outputs":[{"internalType":"string","name":"","type":"string"}],"stateMutability":"view","type":"function"},{"inputs":[{"internalType":"bytes32","name":"","type":"bytes32"}],"name":"activeUnacceptedFlagCount","outputs":[{"internalType":"uint256","name":"","type":"uint256"}],"stateMutability":"view","type":"function"},{"inputs":[{"internalType":"bytes32","name":"recordIdHash","type":"bytes32"},{"internalType":"bytes32","name":"newHash","type":"bytes32"}],"name":"addRecordHash","outputs":[],"stateMutability":"nonpayable","type":"function"},{"inputs":[],"name":"admin","outputs":[{"internalType":"address","name":"","type":"address"}],"stateMutability":"view","type":"function"},{"inputs":[{"internalType":"bytes32","name":"recordIdHash","type":"bytes32"},{"internalType":"bytes32","name":"recordHash","type":"bytes32"},{"internalType":"bytes32","name":"subjectIdHash","type":"bytes32"}],"name":"anchorRecord","outputs":[],"stateMutability":"nonpayable","type":"function"},{"inputs":[{"internalType":"bytes32","name":"","type":"bytes32"},{"internalType":"bytes32","name":"","type":"bytes32"}],"name":"currentlyDisputed","outputs":[{"internalType":"bool","name":"","type":"bool"}],"stateMutability":"view","type":"function"},{"inputs":[{"internalType":"bytes32","name":"","type":"bytes32"},{"internalType":"bytes32","name":"","type":"bytes32"}],"name":"currentlyVerified","outputs":[{"internalType":"bool","name":"","type":"bool"}],"stateMutability":"view","type":"function"},{"inputs":[{"internalType":"bytes32","name":"","type":"bytes32"},{"internalType":"bytes32","name":"","type":"bytes32"}],"name":"disputeIndex","outputs":[{"internalType":"uint256","name":"","type":"uint256"}],"stateMutability":"view","type":"function"},{"inputs":[{"internalType":"bytes32","name":"recordIdHash","type":"bytes32"},{"internalType":"bytes32","name":"recordHash","type":"bytes32"},{"internalType":"uint8","name":"severity","type":"uint8"},{"internalType":"uint8","name":"culpability","type":"uint8"},{"internalType":"string","name":"notes","type":"string"}],"name":"disputeRecord","outputs":[],"stateMutability":"nonpayable","type":"function"},{"inputs":[{"internalType":"bytes32","name":"","type":"bytes32"},{"internalType":"uint256","name":"","type":"uint256"}],"name":"disputes","outputs":[{"internalType":"bytes32","name":"disputerIdHash","type":"bytes32"},{"internalType":"bytes32","name":"recordIdHash","type":"bytes32"},{"internalType":"enum HealthRecordCore.DisputeSeverity","name":"severity","type":"uint8"},{"internalType":"enum HealthRecordCore.DisputeCulpability","name":"culpability","type":"uint8"},{"internalType":"string","name":"notes","type":"string"},{"internalType":"uint256","name":"createdAt","type":"uint256"},{"internalType":"bool","name":"isActive","type":"bool"}],"stateMutability":"view","type":"function"},{"inputs":[{"internalType":"bytes32","name":"","type":"bytes32"},{"internalType":"uint256","name":"","type":"uint256"}],"name":"disputesByUser","outputs":[{"internalType":"bytes32","name":"","type":"bytes32"}],"stateMutability":"view","type":"function"},{"inputs":[{"internalType":"bytes32","name":"recordHash","type":"bytes32"}],"name":"doesHashExist","outputs":[{"internalType":"bool","name":"","type":"bool"}],"stateMutability":"view","type":"function"},{"inputs":[{"internalType":"bytes32","name":"subjectIdHash","type":"bytes32"},{"internalType":"bytes32","name":"recordIdHash","type":"bytes32"},{"internalType":"bytes32","name":"reporterIdHash","type":"bytes32"},{"internalType":"bytes32","name":"recordHash","type":"bytes32"}],"name":"flagUnacceptedUpdate","outputs":[],"stateMutability":"nonpayable","type":"function"},{"inputs":[{"internalType":"bytes32","name":"recordIdHash","type":"bytes32"}],"name":"getActiveRecordSubjects","outputs":[{"internalType":"bytes32[]","name":"","type":"bytes32[]"}],"stateMutability":"view","type":"function"},{"inputs":[{"internalType":"bytes32","name":"subjectIdHash","type":"bytes32"}],"name":"getActiveUnacceptedFlagCount","outputs":[{"internalType":"uint256","name":"","type":"uint256"}],"stateMutability":"view","type":"function"},{"inputs":[{"internalType":"bytes32","name":"recordHash","type":"bytes32"}],"name":"getDisputeStats","outputs":[{"internalType":"uint256","name":"total","type":"uint256"},{"internalType":"uint256","name":"active","type":"uint256"}],"stateMutability":"view","type":"function"},{"inputs":[{"internalType":"bytes32","name":"recordHash","type":"bytes32"}],"name":"getDisputes","outputs":[{"components":[{"internalType":"bytes32","name":"disputerIdHash","type":"bytes32"},{"internalType":"bytes32","name":"recordIdHash","type":"bytes32"},{"internalType":"enum HealthRecordCore.DisputeSeverity","name":"severity","type":"uint8"},{"internalType":"enum HealthRecordCore.DisputeCulpability","name":"culpability","type":"uint8"},{"internalType":"string","name":"notes","type":"string"},{"internalType":"uint256","name":"createdAt","type":"uint256"},{"internalType":"bool","name":"isActive","type":"bool"}],"internalType":"struct HealthRecordCore.Dispute[]","name":"","type":"tuple[]"}],"stateMutability":"view","type":"function"},{"inputs":[{"internalType":"bytes32","name":"recordHash","type":"bytes32"}],"name":"getRecordIdForHash","outputs":[{"internalType":"bytes32","name":"","type":"bytes32"}],"stateMutability":"view","type":"function"},{"inputs":[{"internalType":"bytes32","name":"recordIdHash","type":"bytes32"}],"name":"getRecordSubjects","outputs":[{"internalType":"bytes32[]","name":"","type":"bytes32[]"}],"stateMutability":"view","type":"function"},{"inputs":[{"internalType":"bytes32","name":"recordIdHash","type":"bytes32"}],"name":"getRecordVersionHistory","outputs":[{"internalType":"bytes32[]","name":"","type":"bytes32[]"}],"stateMutability":"view","type":"function"},{"inputs":[{"internalType":"bytes32","name":"userIdHash","type":"bytes32"}],"name":"getSubjectMedicalHistory","outputs":[{"internalType":"bytes32[]","name":"","type":"bytes32[]"}],"stateMutability":"view","type":"function"},{"inputs":[{"internalType":"bytes32","name":"recordIdHash","type":"bytes32"}],"name":"getSubjectStats","outputs":[{"internalType":"uint256","name":"total","type":"uint256"},{"internalType":"uint256","name":"active","type":"uint256"}],"stateMutability":"view","type":"function"},{"inputs":[],"name":"getTotalAnchoredRecords","outputs":[{"internalType":"uint256","name":"","type":"uint256"}],"stateMutability":"view","type":"function"},{"inputs":[{"internalType":"bytes32","name":"subjectIdHash","type":"bytes32"},{"internalType":"bytes32","name":"recordIdHash","type":"bytes32"}],"name":"getUnacceptedFlag","outputs":[{"internalType":"bool","name":"exists","type":"bool"},{"internalType":"bool","name":"isActive","type":"bool"},{"internalType":"bytes32","name":"reporterIdHash","type":"bytes32"},{"internalType":"bytes32","name":"recordHash","type":"bytes32"},{"internalType":"uint256","name":"createdAt","type":"uint256"}],"stateMutability":"view","type":"function"},{"inputs":[{"internalType":"bytes32","name":"subjectIdHash","type":"bytes32"}],"name":"getUnacceptedFlags","outputs":[{"components":[{"internalType":"bytes32","name":"recordIdHash","type":"bytes32"},{"internalType":"bytes32","name":"reporterIdHash","type":"bytes32"},{"internalType":"bytes32","name":"recordHash","type":"bytes32"},{"internalType":"uint256","name":"createdAt","type":"uint256"},{"internalType":"bool","name":"isActive","type":"bool"}],"internalType":"struct HealthRecordCore.UnacceptedFlag[]","name":"","type":"tuple[]"}],"stateMutability":"view","type":"function"},{"inputs":[{"internalType":"bytes32","name":"recordHash","type":"bytes32"},{"internalType":"bytes32","name":"userIdHash","type":"bytes32"}],"name":"getUserDispute","outputs":[{"internalType":"bool","name":"exists","type":"bool"},{"internalType":"bytes32","name":"recordIdHash","type":"bytes32"},{"internalType":"enum HealthRecordCore.DisputeSeverity","name":"severity","type":"uint8"},{"internalType":"enum HealthRecordCore.DisputeCulpability","name":"culpability","type":"uint8"},{"internalType":"string","name":"notes","type":"string"},{"internalType":"uint256","name":"createdAt","type":"uint256"},{"internalType":"bool","name":"isActive","type":"bool"}],"stateMutability":"view","type":"function"},{"inputs":[{"internalType":"bytes32","name":"userIdHash","type":"bytes32"}],"name":"getUserDisputes","outputs":[{"internalType":"bytes32[]","name":"","type":"bytes32[]"}],"stateMutability":"view","type":"function"},{"inputs":[{"internalType":"bytes32","name":"recordHash","type":"bytes32"},{"internalType":"bytes32","name":"userIdHash","type":"bytes32"}],"name":"getUserVerification","outputs":[{"internalType":"bool","name":"exists","type":"bool"},{"internalType":"bytes32","name":"recordIdHash","type":"bytes32"},{"internalType":"enum HealthRecordCore.VerificationLevel","name":"level","type":"uint8"},{"internalType":"uint256","name":"createdAt","type":"uint256"},{"internalType":"bool","name":"isActive","type":"bool"}],"stateMutability":"view","type":"function"},{"inputs":[{"internalType":"bytes32","name":"userIdHash","type":"bytes32"}],"name":"getUserVerifications","outputs":[{"internalType":"bytes32[]","name":"","type":"bytes32[]"}],"stateMutability":"view","type":"function"},{"inputs":[{"internalType":"bytes32","name":"recordHash","type":"bytes32"}],"name":"getVerificationStats","outputs":[{"internalType":"uint256","name":"total","type":"uint256"},{"internalType":"uint256","name":"active","type":"uint256"}],"stateMutability":"view","type":"function"},{"inputs":[{"internalType":"bytes32","name":"recordHash","type":"bytes32"}],"name":"getVerifications","outputs":[{"components":[{"internalType":"bytes32","name":"verifierIdHash","type":"bytes32"},{"internalType":"bytes32","name":"recordIdHash","type":"bytes32"},{"internalType":"enum HealthRecordCore.VerificationLevel","name":"level","type":"uint8"},{"internalType":"uint256","name":"createdAt","type":"uint256"},{"internalType":"bool","name":"isActive","type":"bool"}],"internalType":"struct HealthRecordCore.Verification[]","name":"","type":"tuple[]"}],"stateMutability":"view","type":"function"},{"inputs":[{"internalType":"bytes32","name":"recordIdHash","type":"bytes32"}],"name":"getVersionCount","outputs":[{"internalType":"uint256","name":"","type":"uint256"}],"stateMutability":"view","type":"function"},{"inputs":[{"internalType":"bytes32","name":"subjectIdHash","type":"bytes32"}],"name":"hasActiveUnacceptedFlags","outputs":[{"internalType":"bool","name":"","type":"bool"}],"stateMutability":"view","type":"function"},{"inputs":[{"internalType":"bytes32","name":"recordHash","type":"bytes32"},{"internalType":"bytes32","name":"userIdHash","type":"bytes32"}],"name":"hasUserDisputed","outputs":[{"internalType":"bool","name":"","type":"bool"}],"stateMutability":"view","type":"function"},{"inputs":[{"internalType":"bytes32","name":"recordHash","type":"bytes32"},{"internalType":"bytes32","name":"userIdHash","type":"bytes32"}],"name":"hasUserVerified","outputs":[{"internalType":"bool","name":"","type":"bool"}],"stateMutability":"view","type":"function"},{"inputs":[{"internalType":"address","name":"_memberRoleManager","type":"address"}],"name":"initialize","outputs":[],"stateMutability":"nonpayable","type":"function"},{"inputs":[{"internalType":"bytes32","name":"recordIdHash","type":"bytes32"},{"internalType":"bytes32","name":"userIdHash","type":"bytes32"}],"name":"isActiveSubject","outputs":[{"internalType":"bool","name":"","type":"bool"}],"stateMutability":"view","type":"function"},{"inputs":[{"internalType":"bytes32","name":"","type":"bytes32"}],"name":"isHashActive","outputs":[{"internalType":"bool","name":"","type":"bool"}],"stateMutability":"view","type":"function"},{"inputs":[{"internalType":"bytes32","name":"recordIdHash","type":"bytes32"},{"internalType":"bytes32","name":"userIdHash","type":"bytes32"}],"name":"isSubject","outputs":[{"internalType":"bool","name":"","type":"bool"}],"stateMutability":"view","type":"function"},{"inputs":[{"internalType":"bytes32","name":"","type":"bytes32"},{"internalType":"bytes32","name":"","type":"bytes32"}],"name":"isSubjectActive","outputs":[{"internalType":"bool","name":"","type":"bool"}],"stateMutability":"view","type":"function"},{"inputs":[{"internalType":"bytes32","name":"","type":"bytes32"},{"internalType":"bytes32","name":"","type":"bytes32"}],"name":"isSubjectOfRecord","outputs":[{"internalType":"bool","name":"","type":"bool"}],"stateMutability":"view","type":"function"},{"inputs":[],"name":"memberRoleManager","outputs":[{"internalType":"contract MemberRoleManagerInterface","name":"","type":"address"}],"stateMutability":"view","type":"function"},{"inputs":[{"internalType":"bytes32","name":"recordHash","type":"bytes32"},{"internalType":"uint8","name":"newSeverity","type":"uint8"},{"internalType":"uint8","name":"newCulpability","type":"uint8"}],"name":"modifyDispute","outputs":[],"stateMutability":"nonpayable","type":"function"},{"inputs":[{"internalType":"bytes32","name":"recordHash","type":"bytes32"},{"internalType":"uint8","name":"newLevel","type":"uint8"}],"name":"modifyVerificationLevel","outputs":[],"stateMutability":"nonpayable","type":"function"},{"inputs":[],"name":"proxiableUUID","outputs":[{"internalType":"bytes32","name":"","type":"bytes32"}],"stateMutability":"view","type":"function"},{"inputs":[{"internalType":"bytes32","name":"recordIdHash","type":"bytes32"},{"internalType":"bytes32","name":"subjectIdHash","type":"bytes32"}],"name":"reanchorRecord","outputs":[],"stateMutability":"nonpayable","type":"function"},{"inputs":[{"internalType":"bytes32","name":"","type":"bytes32"}],"name":"recordIdForHash","outputs":[{"internalType":"bytes32","name":"","type":"bytes32"}],"stateMutability":"view","type":"function"},{"inputs":[{"internalType":"bytes32","name":"","type":"bytes32"},{"internalType":"uint256","name":"","type":"uint256"}],"name":"recordSubjects","outputs":[{"internalType":"bytes32","name":"","type":"bytes32"}],"stateMutability":"view","type":"function"},{"inputs":[{"internalType":"bytes32","name":"","type":"bytes32"},{"internalType":"uint256","name":"","type":"uint256"}],"name":"recordVersionHistory","outputs":[{"internalType":"bytes32","name":"","type":"bytes32"}],"stateMutability":"view","type":"function"},{"inputs":[{"internalType":"bytes32","name":"recordHash","type":"bytes32"}],"name":"retractDispute","outputs":[],"stateMutability":"nonpayable","type":"function"},{"inputs":[{"internalType":"bytes32","name":"recordIdHash","type":"bytes32"},{"internalType":"bytes32","name":"recordHash","type":"bytes32"}],"name":"retractRecordHash","outputs":[],"stateMutability":"nonpayable","type":"function"},{"inputs":[{"internalType":"bytes32","name":"recordHash","type":"bytes32"}],"name":"retractVerification","outputs":[],"stateMutability":"nonpayable","type":"function"},{"inputs":[{"internalType":"bytes32","name":"subjectIdHash","type":"bytes32"},{"internalType":"bytes32","name":"recordIdHash","type":"bytes32"}],"name":"revokeUnacceptedFlag","outputs":[],"stateMutability":"nonpayable","type":"function"},{"inputs":[{"internalType":"address","name":"_memberRoleManager","type":"address"}],"name":"setMemberRoleManager","outputs":[],"stateMutability":"nonpayable","type":"function"},{"inputs":[{"internalType":"bytes32","name":"","type":"bytes32"},{"internalType":"uint256","name":"","type":"uint256"}],"name":"subjectMedicalHistory","outputs":[{"internalType":"bytes32","name":"","type":"bytes32"}],"stateMutability":"view","type":"function"},{"inputs":[],"name":"totalAnchoredRecords","outputs":[{"internalType":"uint256","name":"","type":"uint256"}],"stateMutability":"view","type":"function"},{"inputs":[],"name":"totalDisputes","outputs":[{"internalType":"uint256","name":"","type":"uint256"}],"stateMutability":"view","type":"function"},{"inputs":[],"name":"totalUnacceptedFlags","outputs":[{"internalType":"uint256","name":"","type":"uint256"}],"stateMutability":"view","type":"function"},{"inputs":[],"name":"totalVerifications","outputs":[{"internalType":"uint256","name":"","type":"uint256"}],"stateMutability":"view","type":"function"},{"inputs":[{"internalType":"address","name":"newAdmin","type":"address"}],"name":"transferAdmin","outputs":[],"stateMutability":"nonpayable","type":"function"},{"inputs":[{"internalType":"bytes32","name":"","type":"bytes32"},{"internalType":"bytes32","name":"","type":"bytes32"}],"name":"unacceptedFlagIndex","outputs":[{"internalType":"uint256","name":"","type":"uint256"}],"stateMutability":"view","type":"function"},{"inputs":[{"internalType":"bytes32","name":"","type":"bytes32"},{"internalType":"uint256","name":"","type":"uint256"}],"name":"unacceptedFlagsBySubject","outputs":[{"internalType":"bytes32","name":"recordIdHash","type":"bytes32"},{"internalType":"bytes32","name":"reporterIdHash","type":"bytes32"},{"internalType":"bytes32","name":"recordHash","type":"bytes32"},{"internalType":"uint256","name":"createdAt","type":"uint256"},{"internalType":"bool","name":"isActive","type":"bool"}],"stateMutability":"view","type":"function"},{"inputs":[{"internalType":"bytes32","name":"recordIdHash","type":"bytes32"},{"internalType":"bytes32","name":"subjectIdHash","type":"bytes32"}],"name":"unanchorRecord","outputs":[],"stateMutability":"nonpayable","type":"function"},{"inputs":[{"internalType":"address","name":"newImplementation","type":"address"},{"internalType":"bytes","name":"data","type":"bytes"}],"name":"upgradeToAndCall","outputs":[],"stateMutability":"payable","type":"function"},{"inputs":[{"internalType":"bytes32","name":"","type":"bytes32"},{"internalType":"bytes32","name":"","type":"bytes32"}],"name":"verificationIndex","outputs":[{"internalType":"uint256","name":"","type":"uint256"}],"stateMutability":"view","type":"function"},{"inputs":[{"internalType":"bytes32","name":"","type":"bytes32"},{"internalType":"uint256","name":"","type":"uint256"}],"name":"verifications","outputs":[{"internalType":"bytes32","name":"verifierIdHash","type":"bytes32"},{"internalType":"bytes32","name":"recordIdHash","type":"bytes32"},{"internalType":"enum HealthRecordCore.VerificationLevel","name":"level","type":"uint8"},{"internalType":"uint256","name":"createdAt","type":"uint256"},{"internalType":"bool","name":"isActive","type":"bool"}],"stateMutability":"view","type":"function"},{"inputs":[{"internalType":"bytes32","name":"","type":"bytes32"},{"internalType":"uint256","name":"","type":"uint256"}],"name":"verificationsByUser","outputs":[{"internalType":"bytes32","name":"","type":"bytes32"}],"stateMutability":"view","type":"function"},{"inputs":[{"internalType":"bytes32","name":"recordIdHash","type":"bytes32"},{"internalType":"bytes32","name":"recordHash","type":"bytes32"},{"internalType":"uint8","name":"level","type":"uint8"}],"name":"verifyRecord","outputs":[],"stateMutability":"nonpayable","type":"function"}],"evm":{"bytecode":{"linkReferences":{},"object":"60a08060405234620000d157306080527ff0c57e16840df040f15088dc2f81fe391c3923bec73e23a9662efc9c229c6a009081549060ff8260401c16620000c257506001600160401b036002600160401b0319828216016200007c575b60405161467a9081620000d682396080518181816126d601526127b30152f35b6001600160401b031990911681179091556040519081527fc7f505b2f371ae2175ee4913f4499e1f2633a7b5936321eed1cdaeb6115181d290602090a15f80806200005c565b63f92ee8a960e01b8152600490fd5b5f80fdfe604060808152600480361015610013575f80fd5b5f9060e05f35811c90816301f6993514613848578163045524a214613814578163056c925f1461353457816308d865171461350357816310466a67146121595781631166c38914613452578163153707031461342b5781631cf8cbe81461340d5781631ee6677014612ce2578163249dda2e146133e557816328837450146133215781633533d58c14612d4b5781633fa8ea8114612d0f57816340ec2e9a14612ce25781634244222614612c9557816342deec2514612ad3578163438b17cf146129615781634f1ef286146127625781635211e3b61461273a57816352d1902d146126c25781635a3ba1fa146124115781635d28a342146123e757816364f639d41461238b5781636e95a05114612236578163741bfc1d1461220a57816375829def1461218a5781637628262e146121595781637b470f6a14611d8657816384debbf114611d0f5781638651933514611bc457816386fe96e11461196b5781638a7f882c1461193f5781638fc751ee146119135781639afd307c146118e35781639e3432c1146116b9578163a208f96c14611688578163ac90c14014611669578163ac9243361461164a578163aca5964f14611617578163ad3cb1cc146115ac578163adcee10214611579578163aeb2a19f146114cd578163b27bb4d51461149b578163b5e6b7a21461145a578163be4f907714611380578163bf52046514611317578163c4d66de814611178578163c5e4ccc414611159578163c7567dfa14610f19578163c7695bab14610eb1578163d08c800d14610e48578163d19d366114610d1e57508063d1e94e5714610ca9578063d46e082f14610c8a578063d6989f0914610c59578063d9e551fc14610ad2578063dbc7b84214610aa9578063dd0bc08214610a57578063de4920f414610a2e578063def0dec8146108d6578063dfe368431461096f578063e08f1ac314610907578063e1628f0b146108d6578063e76ba1931461085c578063f36ddb4f1461048f578063f536eb2b14610422578063f851a440146103f95763fcdd52611461030c575f80fd5b346103f557602090816003193601126103f157919091358152600a825282812090815461033881613fcd565b9061034586519283613b57565b8082528482018094845285842084915b8383106103cc5750505050845193808501918186525180925285850193925b8281106103815785850386f35b909192938260a060019287518051825283810151848301528a8101516103a681613ab9565b828c01526060818101519083015260809081015115159082015201950193929101610374565b6005886001926103df859b98999b613deb565b81520192019201919096949396610355565b8280fd5b5080fd5b8284346103f557816003193601126103f55760015490516001600160a01b039091168152602090f35b5082346103f15761043236613aa3565b93908152601060205281812090815485101561048c575060a09361045591613d77565b5080549260018201549260ff6002840154926003850154940154169381519586526020860152840152606083015215156080820152f35b80fd5b5091346103f55760603660031901126103f557815481516345ecd02f60e01b8152338186015260209460249392813592853592916001600160a01b03919082169089818981855afa90811561085257906104f0918a91610835575b50614011565b85516364461aff60e11b815283810186815233602082015290918a918391908290819060400103915afa90811561082b57906105339189916107fe575b50614054565b61053e8415156140a0565b6105498315156140ec565b610554604435614475565b9284885260038952858820848952895260ff86892054166107ac5784885260028952858820541561066c575b8390857faed20eb4df1031f98b6ee943999c834d0a9a777b4aae82671c972b33c8b937508a9b610602838b8e828152600285526105bf8983832061419c565b82815260038552818120898252855281812060ff1990600182825416179055838252600586528282208a835286526001838320918254161790558a85522061419c565b61060d600954613dc9565b6009558951428152a486541690813b156106685786604492819587519889968795630c35c99760e21b87528601528401525af190811561065f575061064f5750f35b61065890613b43565b61048c5780f35b513d84823e3d90fd5b8680fd5b80885260068952858820548590801561070057036106c0578390857faed20eb4df1031f98b6ee943999c834d0a9a777b4aae82671c972b33c8b937508a9b610602838b8e5b505050509b5050509050610580565b6064838a89818a519362461bcd60e51b85528401528201527f486173682062656c6f6e677320746f20646966666572656e74207265636f72646044820152fd5b50506008895260ff86892054166107765780857faed20eb4df1031f98b6ee943999c834d0a9a777b4aae82671c972b33c8b937508a9b610602838b8e8b9881526006855282828220558281526007855261075c8883832061419c565b87815260088552818120805460ff191660011790556106b1565b855162461bcd60e51b81528084018a90526011818901527012185cda08185b1c9958591e481d5cd959607a1b6044820152606490fd5b855162461bcd60e51b81528084018a90526027818901527f5265636f726420616c726561647920616e63686f72656420746f2074686973206044820152661cdd589a9958dd60ca1b6064820152608490fd5b61081e91508a3d8c11610824575b6108168183613b57565b810190613ff9565b5f61052d565b503d61080c565b86513d8a823e3d90fd5b61084c91508b3d8d11610824576108168183613b57565b5f6104ea565b87513d8b823e3d90fd5b5082346103f15760209160206003193601126108d257358352600760205280832092815180936020865492838152019583526020832092905b8282106108bb576108b786866108ad828b0383613b57565b5191829182613c20565b0390f35b835487529586019560019384019390910190610895565b8380fd5b8284346103f55760ff816020936108ec36613aa3565b908252600b8652828220908252855220541690519015158152f35b5082346103f15760209160206003193601126108d257358352601360205280832092815180936020865492838152019583526020832092905b828210610958576108b786866108ad828b0383613b57565b835487529586019560019384019390910190610940565b508290346103f157602091826003193601126108d2578391358452600d835280842093845461099d81613fcd565b956109aa84519788613b57565b81875282528482208290868089015b848410610a0f5750505050508451905b8551811015610a025760c06109de8288613fe5565b5101516109ee575b6001016109c9565b926109fa600191613dc9565b9390506109e6565b5082848351928352820152f35b600191600691610a1e85614287565b81520192019201919087906109b9565b508290346103f15760203660031901126103f15760209282913581526007845220549051908152f35b823461048c57602036600319011261048c57610a71613c0a565b6001546001600160a01b039190610a8b9083163314613d90565b16610a978115156143f7565b81546001600160a01b03191617815580f35b508290346103f15760203660031901126103f15760209282913581526012845220549051908152f35b508290346103f1576020806003193601126108d2578354835162b0c80960e01b815233818501529383359390918390869060249082906001600160a01b03165afa948515610c4f578695610c1c575b50610b2d851515613f52565b838652600e8352818620858752835260ff828720541615610be35750907f6ce2cfa8c67a8eeddab297878ec995418cc57aa7857d4fe81c4f22c06842af0d91838652600f825280862085875282526005610bb782610ba860ff84610b9f8c8581205495818d889352600d8c5220613c84565b500154166143b7565b868952600d8552838920613c84565b500160ff1990818154169055848752600e8352818720868852835281872090815416905551428152a380f35b82606492519162461bcd60e51b83528201526015602482015274139bc8191a5cdc1d5d19481d1bc81c995d1c9858dd605a1b6044820152fd5b9094508281813d8311610c48575b610c348183613b57565b81010312610c4457519386610b21565b5f80fd5b503d610c2a565b82513d88823e3d90fd5b8284346103f55760ff81602093610c6f36613aa3565b90825260038652828220908252855220541690519015158152f35b8284346103f557816003193601126103f5576020906009549051908152f35b5082346103f157610cb936613aa3565b93908152600a60205281812090815485101561048c575060a093610cdc91613d77565b5080549260018201549260ff80600285015416926003850154940154169381519586526020860152610d0d82613ab9565b840152606083015215156080820152f35b8483853461048c57602091826003193601126103f557358152600d825282812091825490610d4b82613fcd565b91610d5886519384613b57565b8083528183018095855282852085915b838310610e235750505050845194818601928287525180935280860190808460051b8801019594975b848910610d9e5787870388f35b9091929394958480600192603f198b820301875289519081518152828201518382015286820151610dce81613ab9565b87820152610de460608084015190830190613bbf565b610dfb608087818501519184015287830190613bcc565b9160a0808201519083015260c080910151151591015298019401980197919094939294610d91565b600685600192610e36859a98999a614287565b81520192019201919095949395610d68565b505082346103f15760209160206003193601126108d257358352601460205280832092815180936020865492838152019583526020832092905b828210610e9a576108b786866108ad828b0383613b57565b835487529586019560019384019390910190610e82565b505082346103f15760209160206003193601126108d2578035845260205280832092815180936020865492838152019583526020832092905b828210610f02576108b786866108ad828b0383613b57565b835487529586019560019384019390910190610eea565b505082346103f157610f2a36613aa3565b92909160018060a01b03855416918151906345ecd02f60e01b825233818301526020918281602481885afa9081156111325790610f6d91899161113c5750614011565b82516364461aff60e11b81528181018681523360208201528390829081906040010381885afa9081156111325790610fab9189916111155750614054565b85875260068252828720546110d457851561109c578190602484518096819362b0c80960e01b835233908301525afa908115610c4f57869161104d575b7fa2dc124b7dcc6ee378406493edc477d456cb2e3946e74b015c868704e9f1628093508587526006815284838820558487526007815261102a8684892061419c565b85875260088152828720805460ff1916600117905582519182524290820152a380f35b80915083813d8311611095575b6110648183613b57565b81010312610c44577fa2dc124b7dcc6ee378406493edc477d456cb2e3946e74b015c868704e9f16280925190610fe8565b503d61105a565b915162461bcd60e51b8152918201526014602482015273486173682063616e6e6f7420626520656d70747960601b6044820152606490fd5b915162461bcd60e51b815291820152601e60248201527f4861736820616c726561647920626f756e6420746f2061207265636f726400006044820152606490fd5b61112c9150843d8611610824576108168183613b57565b8961052d565b84513d8a823e3d90fd5b6111539150843d8611610824576108168183613b57565b896104ea565b8385346103f557816003193601126103f5576020906016549051908152f35b838584346103f15760203660031901126103f157611194613c0a565b7ff0c57e16840df040f15088dc2f81fe391c3923bec73e23a9662efc9c229c6a009182549160ff83861c16159267ffffffffffffffff81168015908161130f575b6001149081611305575b1590816112fc575b506112ec5767ffffffffffffffff1981166001178555836112cd575b506001600160a01b031690811561128057506bffffffffffffffffffffffff60a01b90818654161785553390600154161760015561123f578280f35b805468ff00000000000000001916905551600181527fc7f505b2f371ae2175ee4913f4499e1f2633a7b5936321eed1cdaeb6115181d290602090a181808280f35b608490602086519162461bcd60e51b8352820152602160248201527f496e76616c6964204d656d626572526f6c654d616e61676572206164647265736044820152607360f81b6064820152fd5b68ffffffffffffffffff19166801000000000000000117845586611203565b855163f92ee8a960e01b81528390fd5b905015886111e7565b303b1591506111df565b8591506111d5565b505082346103f15760209160206003193601126108d257358352600260205280832092815180936020865492838152019583526020832092905b828210611369576108b786866108ad828b0383613b57565b835487529586019560019384019390910190611351565b5050346103f557602090816003193601126103f157919091358152601082528281209081546113ae81613fcd565b906113bb86519283613b57565b8082528482018094845285842084915b8383106114355750505050845193808501918186525180925285850193925b8281106113f75785850386f35b835180518652808301518684015287810151888701526060808201519087015260809081015115159086015260a090940193928101926001016113ea565b600588600192611448859b98999b6141d0565b815201920192019190969493966113cb565b8385346103f55761146a36613aa3565b92908152601360205281812090815484101561048c575060209261148d91613c5b565b91905490519160031b1c8152f35b8285853461048c576114ac36613aa3565b9390825260205281812090815484101561048c575060209261148d91613c5b565b8285853461048c576114de36613aa3565b91908152600d60205282812090815483101561048c5750906114ff91613c84565b509061156882549360018401549561155a600286015460ff811660ff600561152960038b01613cd5565b968a0154990154169680519a8b9a8b5260208b015261154782613ab9565b89015260ff606089019160081c16613bbf565b806080870152850190613bcc565b9160a0840152151560c08301520390f35b8385346103f55761158936613aa3565b92908152601460205281812090815484101561048c575060209261148d91613c5b565b8285853461048c578060031936011261048c575080519080820182811067ffffffffffffffff821117611604576108b79350815260058252640352e302e360dc1b602083015251918291602083526020830190613bcc565b604184634e487b7160e01b5f525260245ffd5b8385346103f55761162736613aa3565b92908152600260205281812090815484101561048c575060209261148d91613c5b565b8385346103f557816003193601126103f5576020906017549051908152f35b8385346103f557816003193601126103f5576020906015549051908152f35b8385346103f55760ff8160209361169e36613aa3565b90825260058652828220908252855220541690519015158152f35b50508234610c44576116ca36613aa3565b5f5483516345ecd02f60e01b815233818701529294926020926001600160a01b03929091908316908481602481855afa9081156118d95790611712915f916118bc5750614011565b85516364461aff60e11b8152858101888152336020820152909185918391908290819060400103915afa9081156118b25761175d9291611758915f916118955750614054565b614475565b91855f5260038152845f20835f52815260ff855f2054161561185d57855f5260058152845f20835f52815260ff855f20541661182a57857f34ca5296a801df9003d17df2e6ea45b29101067ae1a058cef45a9b8995d2cdfc8492825f5260058152875f20845f528152875f20600160ff198254161790558751428152a35f5416803b15610c44575f928360449286519788958694630c35c99760e21b865285015260248401525af19081156118215750611815575080f35b61181f9150613b43565b005b513d5f823e3d90fd5b8360649186519162461bcd60e51b8352820152600e60248201526d416c72656164792061637469766560901b6044820152fd5b8360649186519162461bcd60e51b8352820152601360248201527215d85cc81b995d995c8818481cdd589a9958dd606a1b6044820152fd5b6118ac9150863d8811610824576108168183613b57565b8a61052d565b86513d5f823e3d90fd5b6118d39150863d8811610824576108168183613b57565b8a6104ea565b87513d5f823e3d90fd5b8434610c44576118f236613aa3565b91905f526007602052805f208054831015610c445760209261148d91613c5b565b8434610c445760209061192536613aa3565b905f52600f8352815f20905f528252805f20549051908152f35b8434610c445760209061195136613aa3565b905f5260118352815f20905f528252805f20549051908152f35b848334610c445781600319360112610c445780359060ff61198a613ad7565b1692600184101580611bb9575b6119a090614435565b5f54815162b0c80960e01b8152338482015294906020908190879060249082906001600160a01b03165afa958615611baf575f96611b80575b506119e5861515613f52565b845f52600b8152825f20865f52815260ff835f20541615611b3e57845f52600c8152825f20865f528152611a25835f2054865f52600a8352845f20613d77565b5060ff858201541615611afb5760020160ff81541694611a4484613ab9565b611a4d84613ab9565b611a5686613ab9565b838614611ac357509160609391611a98827f2ceaf6828ee12b3a0561fe551f858011031c9f47cf65d027f4462777e3c63a8d9795611a9382613ab9565b613f96565b611aa182613ab9565b825193611aad81613ab9565b8452611ab882613ab9565b8301524290820152a3005b845162461bcd60e51b81529081018390526012602482015271105b1c9958591e481d1a1a5cc81b195d995b60721b6044820152606490fd5b835162461bcd60e51b8152808601839052601f60248201527f566572696669636174696f6e20686173206265656e20726574726163746564006044820152606490fd5b8360649184519162461bcd60e51b8352820152601960248201527f4e6f20766572696669636174696f6e20746f206d6f64696679000000000000006044820152fd5b9080965081813d8311611ba8575b611b988183613b57565b81010312610c44575194866119d9565b503d611b8e565b83513d5f823e3d90fd5b506003841115611997565b848334610c445760209081600319360112610c44573590815f5260028152825f2083518082848294549384815201905f52845f20925f5b86828210611cf957505050611c1292500382613b57565b5f915f5b8251811015611c6057845f5260058252855f20611c338285613fe5565b515f52825260ff865f205416611c4c575b600101611c16565b92611c58600191613dc9565b939050611c44565b5090611c6b83613fcd565b92611c7886519485613b57565b808452611c87601f1991613fcd565b0136838501375f915f5b8251811015611cec57600190865f5260058352875f20611cb18286613fe5565b515f52835260ff885f205416611cc8575b01611c91565b611cd28185613fe5565b51611ce6611cdf87613dc9565b9688613fe5565b52611cc2565b8651806108b78782613c20565b8554845260019586019587955093019201611bfb565b828534610c44576020366003190112610c44578135805f52600860205260ff825f20541615611d4d57602092505f5260068252805f20549051908152f35b815162461bcd60e51b8152602081850152601360248201527212185cda08191bd95cc81b9bdd08195e1a5cdd606a1b6044820152606490fd5b828534610c44576060366003190112610c44578135602491823590611da9613ae7565b5f5482516345ecd02f60e01b8152338882015291966001600160a01b03909116916020919082818981875afa9081156121385790611ded915f916121425750614011565b83516364461aff60e11b81528181018781523360208201528390829081906040010381875afa908115612138578899611e30859360ff935f9161211b5750614054565b611e3b8915156140a0565b611e468815156140ec565b1693600185101580612110575b611e5c90614435565b855162b0c80960e01b8152338482015298899182905afa968715612106575f976120d7575b50611e8d871515613f52565b845f5260068252611ea286855f205414614138565b845f52600b8252835f20875f52825260ff845f20541661209757845f52600e8252835f20875f52825260ff845f20541661203f57845f52600a8252835f2090815491611eed85613ab9565b8551611ef881613af7565b89815284810189815287820190611f0e88613ab9565b8782526060830192428452608081019460018652600160401b88101561202d5787611f3e91600182018155613d77565b9e909e61201c57507f9f44978447988782ba02b3e977811604129dc2032d4cfc97aaadacb68bea9f359a9b9c9d9492611faf969492611f939251875551600187015551611f8a81613ab9565b60028601613f96565b51600384015551151591019060ff801983541691151516179055565b855f52600b8252835f20885f528252835f20600160ff19825416179055855f52600c8252835f20885f528252835f205560138152611fef85845f2061419c565b611ffa601554613dc9565b60155561200682613ab9565b82519161201281613ab9565b82524290820152a4005b634e487b7160e01b5f908152808852fd5b8e604188634e487b7160e01b5f52525ffd5b602f8860849386519362461bcd60e51b85528401528201527f43616e6e6f74207665726966792061206861736820796f75206172652061637460448201526e6976656c7920646973707574696e6760881b6064820152fd5b601a8860649386519362461bcd60e51b85528401528201527f416c7265616479207665726966696564207468697320686173680000000000006044820152fd5b9096508181813d83116120ff575b6120ef8183613b57565b81010312610c4457519588611e81565b503d6120e5565b84513d5f823e3d90fd5b506003851115611e53565b6121329150853d8711610824576108168183613b57565b8d61052d565b85513d5f823e3d90fd5b6118d39150843d8611610824576108168183613b57565b8434610c445760209061216b36613aa3565b905f52600e8352815f20905f52825260ff815f20541690519015158152f35b8434610c44576020366003190112610c44576020906121a7613c0a565b60015491906001600160a01b03808416917f38df5fa0f7fef0d515ca1f5388cb5790ac5885d5fca8d05d9f943e563c33a4b391906121e6338514613d90565b169485936121f58515156143f7565b51428152a36001600160a01b03191617600155005b8434610c445760209061221c36613aa3565b905f52600c8352815f20905f528252805f20549051908152f35b828534610c445761224636613aa3565b9061225c60018060a01b03600154163314613d90565b805f52602060118152835f20835f528152835f2054938415612357575f19948086019081116123445761229890845f5260108452825f20613d77565b509486860180549660ff88161561230a57600101549660ff19169055835f5260128352815f2090815480156122f7577f147d74bfb2412c7ed232eabeb9f52ec3783a909e5c2a94b9da2af7f2bdb18ae6959697985001905551428152a4005b601189634e487b7160e01b5f525260245ffd5b835162461bcd60e51b8152808a018690526014602482015273119b1859c8185b1c9958591e481c995d9bdad95960621b6044820152606490fd5b601187634e487b7160e01b5f525260245ffd5b5162461bcd60e51b815280860191909152600e60248201526d4e6f20666c61672065786973747360901b6044820152606490fd5b8434610c445760209061239d36613aa3565b5f8281526003855283812082825285528390205460ff169291836123c6575b5050519015158152f35b909192505f5260058352815f20905f52825260ff815f2054169083806123bc565b828534610c44576020366003190112610c4457602091355f5260128252805f205415159051908152f35b848334610c445761242136613aa3565b5f5484516345ecd02f60e01b8152338582015292949192602092916001600160a01b0316908381602481855afa908115611baf5790612466915f916126a55750614011565b81516228cf1560e51b8152858101878152336020820152909184918391908290819060400103915afa90811561269b575f9161267e575b501561264757825f526006825284815f20540361260f57825f52600880835260ff926124ce60ff845f2054166143b7565b5f94875f5260078252835f20978451808a85829c549384815201905f52855f20925f5b878282106125f9575050506125089250038a613b57565b5f5b895181101561254a5761251d818b613fe5565b515f5284845286865f205416612536575b60010161250a565b96612542600191613dc9565b97905061252e565b5082858960018a111561259d57505f84815260088352818120805460ff191690556006835281812055514281527f6640c4cae266bfafee4b79ae3b57e1391d8cf826d2b9781aa698e99ca7157c7e9190a3005b82608492519162461bcd60e51b8352820152603260248201527f43616e6e6f74207265747261637420746865206c617374206163746976652076604482015271195c9cda5bdb881bd98818481c9958dbdc9960721b6064820152fd5b855484526001958601958f9550930192016124f1565b5162461bcd60e51b815292830152506014602482015273090c2e6d05aa4cac6dee4c840dad2e6dac2e8c6d60631b6044820152606490fd5b5162461bcd60e51b81529283015250601360248201527227b7363c9037bbb732b91037b91030b236b4b760691b6044820152606490fd5b6126959150833d8511610824576108168183613b57565b8661249d565b82513d5f823e3d90fd5b6126bc9150853d8711610824576108168183613b57565b886104ea565b828534610c44575f366003190112610c44577f00000000000000000000000000000000000000000000000000000000000000006001600160a01b0316300361272d57602090517f360894a13ba1a3210667c828492db98dca3e2076cc3735a920a3ca505d382bbc8152f35b5163703e46dd60e11b8152fd5b828534610c44576020366003190112610c4457602091355f5260068252805f20549051908152f35b848381600319360112610c4457612777613c0a565b9160243567ffffffffffffffff8111610c445736602382011215610c44576127a89036906024818601359101613b79565b906001600160a01b037f00000000000000000000000000000000000000000000000000000000000000008116308114908115612933575b50612923576127f381600154163314613d90565b8416918151946352d1902d60e01b86526020868681875afa5f96816128ef575b5061282f57505051634c9c8ce360e01b81529182015260249150fd5b838593877f360894a13ba1a3210667c828492db98dca3e2076cc3735a920a3ca505d382bbc908181036128d95750833b156128c25780546001600160a01b0319168317905551907fbc7cd75a20ee27fd9adebab32041f755214dbc6bffa90cc0225b39da2e5c2d3b5f80a28251156128ac575061181f92506145b3565b915050346128b657005b63b398979f60e01b8152fd5b8151634c9c8ce360e01b8152808701849052602490fd5b86602491845191632a87526960e21b8352820152fd5b9096506020813d60201161291b575b8161290b60209383613b57565b81010312610c4457519587612813565b3d91506128fe565b815163703e46dd60e11b81528490fd5b9050817f360894a13ba1a3210667c828492db98dca3e2076cc3735a920a3ca505d382bbc54161415866127df565b848334610c4457602080600319360112610c44575f54835162b0c80960e01b815233818501529383359390918390869060249082906001600160a01b03165afa94851561269b575f95612aa4575b506129bb851515613f52565b835f52600b8352815f20855f52835260ff825f20541615612a6357907f7ec0e3ca85e47c77a1ed99ff37570ab8878cb21ced66baead633becff47a8f0e9291845f52600c8352815f20865f528352612a38825f2054865f52600a8552612a2960ff84610b9f84885f20613d77565b865f52600a8552835f20613d77565b500160ff1990818154169055845f52600b8352815f20865f528352815f2090815416905551428152a3005b82606492519162461bcd60e51b8352820152601a60248201527f4e6f20766572696669636174696f6e20746f20726574726163740000000000006044820152fd5b9094508281813d8311612acc575b612abc8183613b57565b81010312610c44575193856129af565b503d612ab2565b828534610c4457612ae336613aa3565b5f5483516345ecd02f60e01b8152338682015292936020939092916001600160a01b0316908481602481855afa9081156121065790612b28915f91612c7e5750614011565b82516364461aff60e11b8152868101868152336020820152909185918391908290819060400103915afa908115611baf57612b6e9291611758915f91612c615750614054565b93835f5260038352815f20855f52835260ff825f20541615612c2057835f5260058352815f20855f52835260ff825f20541615612bea5750907f8aefa795ccfdf03e334bd6a4fe20e8c4f5d5202e0320dc267fde988bd5f1674f91835f5260058252805f20855f528252805f2060ff19815416905551428152a3005b82606492519162461bcd60e51b83528201526012602482015271105b1c9958591e481d5b985b98da1bdc995960721b6044820152fd5b82606492519162461bcd60e51b8352820152601c60248201527f4e6f742061207375626a656374206f662074686973207265636f7264000000006044820152fd5b612c789150863d8811610824576108168183613b57565b8861052d565b6126bc9150863d8811610824576108168183613b57565b849034610c445761155a611568612cb4612cae36613aa3565b906142f6565b9695989390979291949980519a8b9a15158b5260208b0152612cd582613ab9565b8901526060880190613bbf565b828534610c44576020366003190112610c4457602091355f526008825260ff815f20541690519015158152f35b8434610c445760a090612d2a612d2436613aa3565b90614211565b93949092815195151586521515602086015284015260608301526080820152f35b828534610c445760a0366003190112610c4457813590602492833591612d6f613ae7565b6064359060ff8216809203610c445767ffffffffffffffff93608435858111610c445736602382011215610c4457612daf9036908a818501359101613b79565b9460018060a01b035f5416918551936345ecd02f60e01b8552338286015260209485818d81885afa9081156132d25790612def915f916133045750614011565b86516364461aff60e11b81528281018b81523360208201528690829081906040010381885afa9081156132d25791612e3460ff928e979695945f916132e75750614054565b612e3f8c15156140a0565b612e4a8b15156140ec565b169785600194858b1015806132dc575b612e6390613ec3565b612e7060058a1115613f06565b895162b0c80960e01b815233858201529d8e9182905afa9b8c156132d2575f9c6132a3575b50612ea18c1515613f52565b895f5260068652612eb68b895f205414614138565b895f52600e8652875f208c5f52865260ff885f20541661326157895f52600b8652875f208c5f52865260ff885f20541661320657895f52600d8652875f2092835495612f018b613ab9565b60068910156131f457918c918e9594938b5196612f1d88613b27565b87528987019384528b8701612f318e613ab9565b8d815260608801612f428d82614190565b6080890194855260a089019542875260c08a01988b8a52600160401b8d10156131e2578c612f74918d82018155613c84565b9a909a6131d157518a55518a8a0155612f9b60028a019251612f9581613ab9565b83613f96565b519060068210156131bf5790612fb091613fae565b6003870192519081519283116131ad5750612fcb8354613c9d565b601f8111613167575b508990601f83116001146130d157946130529460609d9b98947f19c1298d442e6dcfc61025509382dd2c8a2d96c75e684d78c38c95624674c9a99f9d9a9794806130be9d9a956005975f926130c6575b50505f19600383901b1c191690891b1790555b519084015551151591019060ff801983541691151516179055565b895f52600e8352855f208c5f528352855f209060ff19825416179055885f52600f8252845f208b5f528252845f20556014815261309188855f2061419c565b61309c601654613dc9565b6016556130a885613ab9565b8351946130b481613ab9565b8552840190613bbf565b4290820152a4005b015190505f80613024565b90601f19831691845f528b5f20925f5b8181106131525750947f19c1298d442e6dcfc61025509382dd2c8a2d96c75e684d78c38c95624674c9a99f9d9a60609f9d9a96956130be9d9a95829a956130529a958360059a1061313a575b505050811b019055613037565b01515f1960f88460031b161c191690555f808061312d565b828401518555938b0193928d01928d016130e1565b835f528a5f20601f840160051c8101918c85106131a3575b601f0160051c019089905b828110613198575050612fd4565b5f815501899061318a565b909150819061317f565b634e487b7160e01b5f90815260418752fd5b82602188634e487b7160e01b5f52525ffd5b845f8a634e487b7160e01b8252525ffd5b8460418a634e487b7160e01b5f52525ffd5b634e487b7160e01b5f90815260218552fd5b875162461bcd60e51b81528083018790526030818701527f43616e6e6f7420646973707574652061206861736820796f752061726520616360448201526f746976656c7920766572696679696e6760801b6064820152608490fd5b875162461bcd60e51b8152808301879052601a818701527f416c7265616479206469737075746564207468697320686173680000000000006044820152606490fd5b909b508581813d83116132cb575b6132bb8183613b57565b81010312610c4457519a8c612e95565b503d6132b1565b88513d5f823e3d90fd5b5060038b1115612e5a565b6132fe9150893d8b11610824576108168183613b57565b8f61052d565b61331b9150873d8911610824576108168183613b57565b8d6104ea565b848334610c445760209081600319360112610c445735905f90825f5260028152835f209084518083838295549384815201905f52835f20925f5b858282106133cf5750505061337292500383613b57565b8151935f5b83518110156133c157815f5260058352865f206133948286613fe5565b515f52835260ff875f2054166133ad575b600101613377565b936133b9600191613dc9565b9490506133a5565b505090508351928352820152f35b855484526001958601958895509301920161335b565b828534610c44576020366003190112610c4457602091355f5260128252805f20549051908152f35b8434610c44575f366003190112610c44576020906009549051908152f35b8434610c44575f366003190112610c44575f5490516001600160a01b039091168152602090f35b848334610c445760209081600319360112610c44575f90355f52600a8252825f2092835461347f81613fcd565b9461348c83519687613b57565b8186525f908152848120858088015b8484106134e457505050505083515f5b8551811015610a025760806134c08288613fe5565b5101516134d0575b6001016134ab565b926134dc600191613dc9565b9390506134c8565b6001916005916134f385613deb565b815201920192019190869061349b565b8434610c445760209061351536613aa3565b905f5260038352815f20905f52825260ff815f20541690519015158152f35b848334610c44576060366003190112610c4457803590613552613ad7565b9261355b613ae7565b9360ff8080921695600187101580613809575b61357790613ec3565b16946135866005871115613f06565b5f54835162b0c80960e01b8152338682015296602094916024919086908a90849082906001600160a01b03165afa988915611baf575f996137da575b506135ce891515613f52565b875f52600e8652825f20895f52865284835f205416156137a157875f52600f8652825f20895f52865261360d835f2054895f52600d8852845f20613c84565b50856005820154161561375f576002019182549786808a169960081c169561363481613ab9565b61363d81613ab9565b6136468a613ab9565b808a14801590613731575b156136fd578061366361366992613ab9565b85613f96565b60068310156136ec5750506136e39360a09693836136ad6136d5947f0fe65316e02c3dce1bca5a3132e022178971267d711982849c99758da3cfc7ed9b9996613fae565b5494848616908251986136bf81613ab9565b89526136ca82613ab9565b880152860190613bbf565b606084019160081c16613bbf565b426080820152a3005b602190634e487b7160e01b5f52525ffd5b5060106064928987519362461bcd60e51b85528401528201526f15985b1d595cc81d5b98da185b99d95960821b6044820152fd5b50600684101561374d57600687101561374d5783871415613651565b50602190634e487b7160e01b5f52525ffd5b835162461bcd60e51b8152808901889052601a818501527f4469737075746520686173206265656e207265747261637465640000000000006044820152606490fd5b825162461bcd60e51b8152808801879052601481840152734e6f206469737075746520746f206d6f6469667960601b6044820152606490fd5b9098508581813d8311613802575b6137f28183613b57565b81010312610c44575197896135c2565b503d6137e8565b50600387111561356e565b8434610c445760a09061382f61382936613aa3565b90613e37565b93949092815195151586526020860152610d0d82613ab9565b828534610c44576080366003190112610c44578135602491823592604435946064359161388060018060a01b03600154163314613d90565b8415613a6f578515613a3c578615613a0757845f5260209160118352845f20875f528352845f20546139d557855f5260108352845f2054600181018091116139c357865f5260118452855f20885f528452855f2055855f5260108352845f2085516138ea81613af7565b8881528481018a8152878201908782526060830192428452608081019460018652805490600160401b8210156139b1579061392a91600182018155613d77565b97909761201c5750518655516001860155516002850155516003840155519101805460ff191691151560ff169190911790557fd975a013e674f51ff6b9d1144095cbe8d88c8a4ebac520ffdce1b92eee22e99b929190845f5260128152825f206139948154613dc9565b90556139a1601754613dc9565b60175582519182524290820152a4005b88604189634e487b7160e01b5f52525ffd5b50601190634e487b7160e01b5f52525ffd5b600f6064928487519362461bcd60e51b85528401528201526e105b1c9958591e48199b1859d9d959608a1b6044820152fd5b906010606492602086519362461bcd60e51b85528401528201526f24b73b30b634b210383937bb34b232b960811b6044820152fd5b90600e606492602086519362461bcd60e51b85528401528201526d125b9d985b1a59081c9958dbdc9960921b6044820152fd5b90600f606492602086519362461bcd60e51b85528401528201526e125b9d985b1a59081cdd589a9958dd608a1b6044820152fd5b6040906003190112610c44576004359060243590565b60041115613ac357565b634e487b7160e01b5f52602160045260245ffd5b6024359060ff82168203610c4457565b6044359060ff82168203610c4457565b60a0810190811067ffffffffffffffff821117613b1357604052565b634e487b7160e01b5f52604160045260245ffd5b60e0810190811067ffffffffffffffff821117613b1357604052565b67ffffffffffffffff8111613b1357604052565b90601f8019910116810190811067ffffffffffffffff821117613b1357604052565b92919267ffffffffffffffff8211613b135760405191613ba3601f8201601f191660200184613b57565b829481845281830111610c44578281602093845f960137010152565b906006821015613ac35752565b91908251928382525f5b848110613bf6575050825f602080949584010152601f8019910116010190565b602081830181015184830182015201613bd6565b600435906001600160a01b0382168203610c4457565b60209060206040818301928281528551809452019301915f5b828110613c47575050505090565b835185529381019392810192600101613c39565b8054821015613c70575f5260205f2001905f90565b634e487b7160e01b5f52603260045260245ffd5b8054821015613c70575f52600660205f20910201905f90565b90600182811c92168015613ccb575b6020831014613cb757565b634e487b7160e01b5f52602260045260245ffd5b91607f1691613cac565b9060405191825f8254613ce781613c9d565b908184526020946001916001811690815f14613d555750600114613d17575b505050613d1592500383613b57565b565b5f90815285812095935091905b818310613d3d575050613d1593508201015f8080613d06565b85548884018501529485019487945091830191613d24565b92505050613d1594925060ff191682840152151560051b8201015f8080613d06565b8054821015613c70575f52600560205f20910201905f90565b15613d9757565b60405162461bcd60e51b815260206004820152600a60248201526927b7363c9030b236b4b760b11b6044820152606490fd5b5f198114613dd75760010190565b634e487b7160e01b5f52601160045260245ffd5b90604051613df881613af7565b608060ff60048395805485526001810154602086015282600282015416613e1e81613ab9565b6040860152600381015460608601520154161515910152565b919091805f52602090600b8252604093845f20815f52835260ff855f20541615613eb35781613e8591613e8b935f52600c8552865f20905f528452855f2054905f52600a8452855f20613d77565b50613deb565b908101519281015191613e9d83613ab9565b6080606083015192015115159060019493929190565b505f935083928392508291508190565b15613eca57565b60405162461bcd60e51b81526020600482015260146024820152735365766572697479206d75737420626520312d3360601b6044820152606490fd5b15613f0d57565b60405162461bcd60e51b815260206004820152601760248201527f43756c706162696c697479206d75737420626520302d350000000000000000006044820152606490fd5b15613f5957565b60405162461bcd60e51b815260206004820152601560248201527415d85b1b195d081b9bdd081c9959da5cdd195c9959605a1b6044820152606490fd5b90613fa081613ab9565b60ff80198354169116179055565b906006811015613ac35761ff0082549160081b169061ff001916179055565b67ffffffffffffffff8111613b135760051b60200190565b8051821015613c705760209160051b010190565b90816020910312610c4457518015158103610c445790565b1561401857565b60405162461bcd60e51b81526020600482015260146024820152732737ba1030b71030b1ba34bb329036b2b6b132b960611b6044820152606490fd5b1561405b57565b60405162461bcd60e51b815260206004820152601860248201527f4e6f2061636365737320746f2074686973207265636f726400000000000000006044820152606490fd5b156140a757565b60405162461bcd60e51b815260206004820152601960248201527f5265636f72642049442063616e6e6f7420626520656d707479000000000000006044820152606490fd5b156140f357565b60405162461bcd60e51b815260206004820152601b60248201527f5265636f726420686173682063616e6e6f7420626520656d70747900000000006044820152606490fd5b1561413f57565b60405162461bcd60e51b815260206004820152602360248201527f4861736820646f6573206e6f742062656c6f6e6720746f2074686973207265636044820152621bdc9960ea1b6064820152608490fd5b6006821015613ac35752565b8054600160401b811015613b13576141b991600182018155613c5b565b819291549060031b91821b915f19901b1916179055565b906040516141dd81613af7565b608060ff60048395805485526001810154602086015260028101546040860152600381015460608601520154161515910152565b90815f52601160205260405f20905f5260205260405f2054908115614279575f52601060205260405f205f198201918211613dd7576142599161425391613d77565b506141d0565b608081015160208201516040830151606090930151600194921515939192565b50505f905f905f905f905f90565b9060405161429481613b27565b60c060ff6005839580548552600181015460208601526142d18360028301548181166142bf81613ab9565b604089015260081c1660608701614190565b6142dd60038201613cd5565b6080860152600481015460a08601520154161515910152565b919091805f52602090600e8252604093845f20815f52835260ff855f2054161561438957816143449161434a935f52600f8552865f20905f528452855f2054905f52600d8452855f20613c84565b50614287565b90810151928101519161435c83613ab9565b6060820151916006831015613ac35760808101519160c060a0830151920151151590600196959493929190565b50505f925f925f925f9280519182019082821067ffffffffffffffff831117613b1357525f8152905f905f90565b156143be57565b60405162461bcd60e51b8152602060048201526011602482015270105b1c9958591e481c995d1c9858dd1959607a1b6044820152606490fd5b156143fe57565b60405162461bcd60e51b815260206004820152600f60248201526e496e76616c6964206164647265737360881b6044820152606490fd5b1561443c57565b60405162461bcd60e51b81526020600482015260116024820152704c6576656c206d75737420626520312d3360781b6044820152606490fd5b5f5460405162b0c80960e01b81523360048201526020916001600160a01b0316908281602481855afa90811561456b575f91614586575b506144b8811515613f52565b8315801561457d575b61457657829060446040518094819363557ee54f60e01b835288600484015260248301525afa90811561456b575f9161454e575b50156144ff575090565b6084906040519062461bcd60e51b82526004820152602260248201527f4e6f74206120636f6e74726f6c6c657220666f722074686973206964656e7469604482015261747960f01b6064820152fd5b6145659150823d8411610824576108168183613b57565b5f6144f5565b6040513d5f823e3d90fd5b9250505090565b508084146144c1565b90508281813d83116145ac575b61459d8183613b57565b81010312610c4457515f6144ac565b503d614593565b905f8091602081519101845af48080614631575b156145e75750506040513d81523d5f602083013e60203d82010160405290565b1561460e57604051639996b31560e01b81526001600160a01b039091166004820152602490fd5b3d1561461f576040513d5f823e3d90fd5b60405163d6bda27560e01b8152600490fd5b503d1515806145c75750813b15156145c756fea26469706673582212202aef31c16feb66c4071ccfbbcfe3d2b38adb27bc93945b2978d4e17d4fc6a04f64736f6c63430008180033","opcodes":"PUSH1 0xA0 DUP1 PUSH1 0x40 MSTORE CALLVALUE PUSH3 0xD1 JUMPI ADDRESS PUSH1 0x80 MSTORE PUSH32 0xF0C57E16840DF040F15088DC2F81FE391C3923BEC73E23A9662EFC9C229C6A00 SWAP1 DUP2 SLOAD SWAP1 PUSH1 0xFF DUP3 PUSH1 0x40 SHR AND PUSH3 0xC2 JUMPI POP PUSH1 0x1 PUSH1 0x1 PUSH1 0x40 SHL SUB PUSH1 0x2 PUSH1 0x1 PUSH1 0x40 SHL SUB NOT DUP3 DUP3 AND ADD PUSH3 0x7C JUMPI JUMPDEST PUSH1 0x40 MLOAD PUSH2 0x467A SWAP1 DUP2 PUSH3 0xD6 DUP3 CODECOPY PUSH1 0x80 MLOAD DUP2 DUP2 DUP2 PUSH2 0x26D6 ADD MSTORE PUSH2 0x27B3 ADD MSTORE RETURN JUMPDEST PUSH1 0x1 PUSH1 0x1 PUSH1 0x40 SHL SUB NOT SWAP1 SWAP2 AND DUP2 OR SWAP1 SWAP2 SSTORE PUSH1 0x40 MLOAD SWAP1 DUP2 MSTORE PUSH32 0xC7F505B2F371AE2175EE4913F4499E1F2633A7B5936321EED1CDAEB6115181D2 SWAP1 PUSH1 0x20 SWAP1 LOG1 PUSH0 DUP1 DUP1 PUSH3 0x5C JUMP JUMPDEST PUSH4 0xF92EE8A9 PUSH1 0xE0 SHL DUP2 MSTORE PUSH1 0x4 SWAP1 REVERT JUMPDEST PUSH0 DUP1 REVERT INVALID PUSH1 0x40 PUSH1 0x80 DUP2 MSTORE PUSH1 0x4 DUP1 CALLDATASIZE LT ISZERO PUSH2 0x13 JUMPI PUSH0 DUP1 REVERT JUMPDEST PUSH0 SWAP1 PUSH1 0xE0 PUSH0 CALLDATALOAD DUP2 SHR SWAP1 DUP2 PUSH4 0x1F69935 EQ PUSH2 0x3848 JUMPI DUP2 PUSH4 0x45524A2 EQ PUSH2 0x3814 JUMPI DUP2 PUSH4 0x56C925F EQ PUSH2 0x3534 JUMPI DUP2 PUSH4 0x8D86517 EQ PUSH2 0x3503 JUMPI DUP2 PUSH4 0x10466A67 EQ PUSH2 0x2159 JUMPI DUP2 PUSH4 0x1166C389 EQ PUSH2 0x3452 JUMPI DUP2 PUSH4 0x15370703 EQ PUSH2 0x342B JUMPI DUP2 PUSH4 0x1CF8CBE8 EQ PUSH2 0x340D JUMPI DUP2 PUSH4 0x1EE66770 EQ PUSH2 0x2CE2 JUMPI DUP2 PUSH4 0x249DDA2E EQ PUSH2 0x33E5 JUMPI DUP2 PUSH4 0x28837450 EQ PUSH2 0x3321 JUMPI DUP2 PUSH4 0x3533D58C EQ PUSH2 0x2D4B JUMPI DUP2 PUSH4 0x3FA8EA81 EQ PUSH2 0x2D0F JUMPI DUP2 PUSH4 0x40EC2E9A EQ PUSH2 0x2CE2 JUMPI DUP2 PUSH4 0x42442226 EQ PUSH2 0x2C95 JUMPI DUP2 PUSH4 0x42DEEC25 EQ PUSH2 0x2AD3 JUMPI DUP2 PUSH4 0x438B17CF EQ PUSH2 0x2961 JUMPI DUP2 PUSH4 0x4F1EF286 EQ PUSH2 0x2762 JUMPI DUP2 PUSH4 0x5211E3B6 EQ PUSH2 0x273A JUMPI DUP2 PUSH4 0x52D1902D EQ PUSH2 0x26C2 JUMPI DUP2 PUSH4 0x5A3BA1FA EQ PUSH2 0x2411 JUMPI DUP2 PUSH4 0x5D28A342 EQ PUSH2 0x23E7 JUMPI DUP2 PUSH4 0x64F639D4 EQ PUSH2 0x238B JUMPI DUP2 PUSH4 0x6E95A051 EQ PUSH2 0x2236 JUMPI DUP2 PUSH4 0x741BFC1D EQ PUSH2 0x220A JUMPI DUP2 PUSH4 0x75829DEF EQ PUSH2 0x218A JUMPI DUP2 PUSH4 0x7628262E EQ PUSH2 0x2159 JUMPI DUP2 PUSH4 0x7B470F6A EQ PUSH2 0x1D86 JUMPI DUP2 PUSH4 0x84DEBBF1 EQ PUSH2 0x1D0F JUMPI DUP2 PUSH4 0x86519335 EQ PUSH2 0x1BC4 JUMPI DUP2 PUSH4 0x86FE96E1 EQ PUSH2 0x196B JUMPI DUP2 PUSH4 0x8A7F882C EQ PUSH2 0x193F JUMPI DUP2 PUSH4 0x8FC751EE EQ PUSH2 0x1913 JUMPI DUP2 PUSH4 0x9AFD307C EQ PUSH2 0x18E3 JUMPI DUP2 PUSH4 0x9E3432C1 EQ PUSH2 0x16B9 JUMPI DUP2 PUSH4 0xA208F96C EQ PUSH2 0x1688 JUMPI DUP2 PUSH4 0xAC90C140 EQ PUSH2 0x1669 JUMPI DUP2 PUSH4 0xAC924336 EQ PUSH2 0x164A JUMPI DUP2 PUSH4 0xACA5964F EQ PUSH2 0x1617 JUMPI DUP2 PUSH4 0xAD3CB1CC EQ PUSH2 0x15AC JUMPI DUP2 PUSH4 0xADCEE102 EQ PUSH2 0x1579 JUMPI DUP2 PUSH4 0xAEB2A19F EQ PUSH2 0x14CD JUMPI DUP2 PUSH4 0xB27BB4D5 EQ PUSH2 0x149B JUMPI DUP2 PUSH4 0xB5E6B7A2 EQ PUSH2 0x145A JUMPI DUP2 PUSH4 0xBE4F9077 EQ PUSH2 0x1380 JUMPI DUP2 PUSH4 0xBF520465 EQ PUSH2 0x1317 JUMPI DUP2 PUSH4 0xC4D66DE8 EQ PUSH2 0x1178 JUMPI DUP2 PUSH4 0xC5E4CCC4 EQ PUSH2 0x1159 JUMPI DUP2 PUSH4 0xC7567DFA EQ PUSH2 0xF19 JUMPI DUP2 PUSH4 0xC7695BAB EQ PUSH2 0xEB1 JUMPI DUP2 PUSH4 0xD08C800D EQ PUSH2 0xE48 JUMPI DUP2 PUSH4 0xD19D3661 EQ PUSH2 0xD1E JUMPI POP DUP1 PUSH4 0xD1E94E57 EQ PUSH2 0xCA9 JUMPI DUP1 PUSH4 0xD46E082F EQ PUSH2 0xC8A JUMPI DUP1 PUSH4 0xD6989F09 EQ PUSH2 0xC59 JUMPI DUP1 PUSH4 0xD9E551FC EQ PUSH2 0xAD2 JUMPI DUP1 PUSH4 0xDBC7B842 EQ PUSH2 0xAA9 JUMPI DUP1 PUSH4 0xDD0BC082 EQ PUSH2 0xA57 JUMPI DUP1 PUSH4 0xDE4920F4 EQ PUSH2 0xA2E JUMPI DUP1 PUSH4 0xDEF0DEC8 EQ PUSH2 0x8D6 JUMPI DUP1 PUSH4 0xDFE36843 EQ PUSH2 0x96F JUMPI DUP1 PUSH4 0xE08F1AC3 EQ PUSH2 0x907 JUMPI DUP1 PUSH4 0xE1628F0B EQ PUSH2 0x8D6 JUMPI DUP1 PUSH4 0xE76BA193 EQ PUSH2 0x85C JUMPI DUP1 PUSH4 0xF36DDB4F EQ PUSH2 0x48F JUMPI DUP1 PUSH4 0xF536EB2B EQ PUSH2 0x422 JUMPI DUP1 PUSH4 0xF851A440 EQ PUSH2 0x3F9 JUMPI PUSH4 0xFCDD5261 EQ PUSH2 0x30C JUMPI PUSH0 DUP1 REVERT JUMPDEST CALLVALUE PUSH2 0x3F5 JUMPI PUSH1 0x20 SWAP1 DUP2 PUSH1 0x3 NOT CALLDATASIZE ADD SLT PUSH2 0x3F1 JUMPI SWAP2 SWAP1 SWAP2 CALLDATALOAD DUP2 MSTORE PUSH1 0xA DUP3 MSTORE DUP3 DUP2 KECCAK256 SWAP1 DUP2 SLOAD PUSH2 0x338 DUP2 PUSH2 0x3FCD JUMP JUMPDEST SWAP1 PUSH2 0x345 DUP7 MLOAD SWAP3 DUP4 PUSH2 0x3B57 JUMP JUMPDEST DUP1 DUP3 MSTORE DUP5 DUP3 ADD DUP1 SWAP5 DUP5 MSTORE DUP6 DUP5 KECCAK256 DUP5 SWAP2 JUMPDEST DUP4 DUP4 LT PUSH2 0x3CC JUMPI POP POP POP POP DUP5 MLOAD SWAP4 DUP1 DUP6 ADD SWAP2 DUP2 DUP7 MSTORE MLOAD DUP1 SWAP3 MSTORE DUP6 DUP6 ADD SWAP4 SWAP3 JUMPDEST DUP3 DUP2 LT PUSH2 0x381 JUMPI DUP6 DUP6 SUB DUP7 RETURN JUMPDEST SWAP1 SWAP2 SWAP3 SWAP4 DUP3 PUSH1 0xA0 PUSH1 0x1 SWAP3 DUP8 MLOAD DUP1 MLOAD DUP3 MSTORE DUP4 DUP2 ADD MLOAD DUP5 DUP4 ADD MSTORE DUP11 DUP2 ADD MLOAD PUSH2 0x3A6 DUP2 PUSH2 0x3AB9 JUMP JUMPDEST DUP3 DUP13 ADD MSTORE PUSH1 0x60 DUP2 DUP2 ADD MLOAD SWAP1 DUP4 ADD MSTORE PUSH1 0x80 SWAP1 DUP2 ADD MLOAD ISZERO ISZERO SWAP1 DUP3 ADD MSTORE ADD SWAP6 ADD SWAP4 SWAP3 SWAP2 ADD PUSH2 0x374 JUMP JUMPDEST PUSH1 0x5 DUP9 PUSH1 0x1 SWAP3 PUSH2 0x3DF DUP6 SWAP12 SWAP9 SWAP10 SWAP12 PUSH2 0x3DEB JUMP JUMPDEST DUP2 MSTORE ADD SWAP3 ADD SWAP3 ADD SWAP2 SWAP1 SWAP7 SWAP5 SWAP4 SWAP7 PUSH2 0x355 JUMP JUMPDEST DUP3 DUP1 REVERT JUMPDEST POP DUP1 REVERT JUMPDEST DUP3 DUP5 CALLVALUE PUSH2 0x3F5 JUMPI DUP2 PUSH1 0x3 NOT CALLDATASIZE ADD SLT PUSH2 0x3F5 JUMPI PUSH1 0x1 SLOAD SWAP1 MLOAD PUSH1 0x1 PUSH1 0x1 PUSH1 0xA0 SHL SUB SWAP1 SWAP2 AND DUP2 MSTORE PUSH1 0x20 SWAP1 RETURN JUMPDEST POP DUP3 CALLVALUE PUSH2 0x3F1 JUMPI PUSH2 0x432 CALLDATASIZE PUSH2 0x3AA3 JUMP JUMPDEST SWAP4 SWAP1 DUP2 MSTORE PUSH1 0x10 PUSH1 0x20 MSTORE DUP2 DUP2 KECCAK256 SWAP1 DUP2 SLOAD DUP6 LT ISZERO PUSH2 0x48C JUMPI POP PUSH1 0xA0 SWAP4 PUSH2 0x455 SWAP2 PUSH2 0x3D77 JUMP JUMPDEST POP DUP1 SLOAD SWAP3 PUSH1 0x1 DUP3 ADD SLOAD SWAP3 PUSH1 0xFF PUSH1 0x2 DUP5 ADD SLOAD SWAP3 PUSH1 0x3 DUP6 ADD SLOAD SWAP5 ADD SLOAD AND SWAP4 DUP2 MLOAD SWAP6 DUP7 MSTORE PUSH1 0x20 DUP7 ADD MSTORE DUP5 ADD MSTORE PUSH1 0x60 DUP4 ADD MSTORE ISZERO ISZERO PUSH1 0x80 DUP3 ADD MSTORE RETURN JUMPDEST DUP1 REVERT JUMPDEST POP SWAP2 CALLVALUE PUSH2 0x3F5 JUMPI PUSH1 0x60 CALLDATASIZE PUSH1 0x3 NOT ADD SLT PUSH2 0x3F5 JUMPI DUP2 SLOAD DUP2 MLOAD PUSH4 0x45ECD02F PUSH1 0xE0 SHL DUP2 MSTORE CALLER DUP2 DUP7 ADD MSTORE PUSH1 0x20 SWAP5 PUSH1 0x24 SWAP4 SWAP3 DUP2 CALLDATALOAD SWAP3 DUP6 CALLDATALOAD SWAP3 SWAP2 PUSH1 0x1 PUSH1 0x1 PUSH1 0xA0 SHL SUB SWAP2 SWAP1 DUP3 AND SWAP1 DUP10 DUP2 DUP10 DUP2 DUP6 GAS STATICCALL SWAP1 DUP2 ISZERO PUSH2 0x852 JUMPI SWAP1 PUSH2 0x4F0 SWAP2 DUP11 SWAP2 PUSH2 0x835 JUMPI JUMPDEST POP PUSH2 0x4011 JUMP JUMPDEST DUP6 MLOAD PUSH4 0x64461AFF PUSH1 0xE1 SHL DUP2 MSTORE DUP4 DUP2 ADD DUP7 DUP2 MSTORE CALLER PUSH1 0x20 DUP3 ADD MSTORE SWAP1 SWAP2 DUP11 SWAP2 DUP4 SWAP2 SWAP1 DUP3 SWAP1 DUP2 SWAP1 PUSH1 0x40 ADD SUB SWAP2 GAS STATICCALL SWAP1 DUP2 ISZERO PUSH2 0x82B JUMPI SWAP1 PUSH2 0x533 SWAP2 DUP10 SWAP2 PUSH2 0x7FE JUMPI JUMPDEST POP PUSH2 0x4054 JUMP JUMPDEST PUSH2 0x53E DUP5 ISZERO ISZERO PUSH2 0x40A0 JUMP JUMPDEST PUSH2 0x549 DUP4 ISZERO ISZERO PUSH2 0x40EC JUMP JUMPDEST PUSH2 0x554 PUSH1 0x44 CALLDATALOAD PUSH2 0x4475 JUMP JUMPDEST SWAP3 DUP5 DUP9 MSTORE PUSH1 0x3 DUP10 MSTORE DUP6 DUP9 KECCAK256 DUP5 DUP10 MSTORE DUP10 MSTORE PUSH1 0xFF DUP7 DUP10 KECCAK256 SLOAD AND PUSH2 0x7AC JUMPI DUP5 DUP9 MSTORE PUSH1 0x2 DUP10 MSTORE DUP6 DUP9 KECCAK256 SLOAD ISZERO PUSH2 0x66C JUMPI JUMPDEST DUP4 SWAP1 DUP6 PUSH32 0xAED20EB4DF1031F98B6EE943999C834D0A9A777B4AAE82671C972B33C8B93750 DUP11 SWAP12 PUSH2 0x602 DUP4 DUP12 DUP15 DUP3 DUP2 MSTORE PUSH1 0x2 DUP6 MSTORE PUSH2 0x5BF DUP10 DUP4 DUP4 KECCAK256 PUSH2 0x419C JUMP JUMPDEST DUP3 DUP2 MSTORE PUSH1 0x3 DUP6 MSTORE DUP2 DUP2 KECCAK256 DUP10 DUP3 MSTORE DUP6 MSTORE DUP2 DUP2 KECCAK256 PUSH1 0xFF NOT SWAP1 PUSH1 0x1 DUP3 DUP3 SLOAD AND OR SWAP1 SSTORE DUP4 DUP3 MSTORE PUSH1 0x5 DUP7 MSTORE DUP3 DUP3 KECCAK256 DUP11 DUP4 MSTORE DUP7 MSTORE PUSH1 0x1 DUP4 DUP4 KECCAK256 SWAP2 DUP3 SLOAD AND OR SWAP1 SSTORE DUP11 DUP6 MSTORE KECCAK256 PUSH2 0x419C JUMP JUMPDEST PUSH2 0x60D PUSH1 0x9 SLOAD PUSH2 0x3DC9 JUMP JUMPDEST PUSH1 0x9 SSTORE DUP10 MLOAD TIMESTAMP DUP2 MSTORE LOG4 DUP7 SLOAD AND SWAP1 DUP2 EXTCODESIZE ISZERO PUSH2 0x668 JUMPI DUP7 PUSH1 0x44 SWAP3 DUP2 SWAP6 DUP8 MLOAD SWAP9 DUP10 SWAP7 DUP8 SWAP6 PUSH4 0xC35C997 PUSH1 0xE2 SHL DUP8 MSTORE DUP7 ADD MSTORE DUP5 ADD MSTORE GAS CALL SWAP1 DUP2 ISZERO PUSH2 0x65F JUMPI POP PUSH2 0x64F JUMPI POP RETURN JUMPDEST PUSH2 0x658 SWAP1 PUSH2 0x3B43 JUMP JUMPDEST PUSH2 0x48C JUMPI DUP1 RETURN JUMPDEST MLOAD RETURNDATASIZE DUP5 DUP3 RETURNDATACOPY RETURNDATASIZE SWAP1 REVERT JUMPDEST DUP7 DUP1 REVERT JUMPDEST DUP1 DUP9 MSTORE PUSH1 0x6 DUP10 MSTORE DUP6 DUP9 KECCAK256 SLOAD DUP6 SWAP1 DUP1 ISZERO PUSH2 0x700 JUMPI SUB PUSH2 0x6C0 JUMPI DUP4 SWAP1 DUP6 PUSH32 0xAED20EB4DF1031F98B6EE943999C834D0A9A777B4AAE82671C972B33C8B93750 DUP11 SWAP12 PUSH2 0x602 DUP4 DUP12 DUP15 JUMPDEST POP POP POP POP SWAP12 POP POP POP SWAP1 POP PUSH2 0x580 JUMP JUMPDEST PUSH1 0x64 DUP4 DUP11 DUP10 DUP2 DUP11 MLOAD SWAP4 PUSH3 0x461BCD PUSH1 0xE5 SHL DUP6 MSTORE DUP5 ADD MSTORE DUP3 ADD MSTORE PUSH32 0x486173682062656C6F6E677320746F20646966666572656E74207265636F7264 PUSH1 0x44 DUP3 ADD MSTORE REVERT JUMPDEST POP POP PUSH1 0x8 DUP10 MSTORE PUSH1 0xFF DUP7 DUP10 KECCAK256 SLOAD AND PUSH2 0x776 JUMPI DUP1 DUP6 PUSH32 0xAED20EB4DF1031F98B6EE943999C834D0A9A777B4AAE82671C972B33C8B93750 DUP11 SWAP12 PUSH2 0x602 DUP4 DUP12 DUP15 DUP12 SWAP9 DUP2 MSTORE PUSH1 0x6 DUP6 MSTORE DUP3 DUP3 DUP3 KECCAK256 SSTORE DUP3 DUP2 MSTORE PUSH1 0x7 DUP6 MSTORE PUSH2 0x75C DUP9 DUP4 DUP4 KECCAK256 PUSH2 0x419C JUMP JUMPDEST DUP8 DUP2 MSTORE PUSH1 0x8 DUP6 MSTORE DUP2 DUP2 KECCAK256 DUP1 SLOAD PUSH1 0xFF NOT AND PUSH1 0x1 OR SWAP1 SSTORE PUSH2 0x6B1 JUMP JUMPDEST DUP6 MLOAD PUSH3 0x461BCD PUSH1 0xE5 SHL DUP2 MSTORE DUP1 DUP5 ADD DUP11 SWAP1 MSTORE PUSH1 0x11 DUP2 DUP10 ADD MSTORE PUSH17 0x12185CDA08185B1C9958591E481D5CD959 PUSH1 0x7A SHL PUSH1 0x44 DUP3 ADD MSTORE PUSH1 0x64 SWAP1 REVERT JUMPDEST DUP6 MLOAD PUSH3 0x461BCD PUSH1 0xE5 SHL DUP2 MSTORE DUP1 DUP5 ADD DUP11 SWAP1 MSTORE PUSH1 0x27 DUP2 DUP10 ADD MSTORE PUSH32 0x5265636F726420616C726561647920616E63686F72656420746F207468697320 PUSH1 0x44 DUP3 ADD MSTORE PUSH7 0x1CDD589A9958DD PUSH1 0xCA SHL PUSH1 0x64 DUP3 ADD MSTORE PUSH1 0x84 SWAP1 REVERT JUMPDEST PUSH2 0x81E SWAP2 POP DUP11 RETURNDATASIZE DUP13 GT PUSH2 0x824 JUMPI JUMPDEST PUSH2 0x816 DUP2 DUP4 PUSH2 0x3B57 JUMP JUMPDEST DUP2 ADD SWAP1 PUSH2 0x3FF9 JUMP JUMPDEST PUSH0 PUSH2 0x52D JUMP JUMPDEST POP RETURNDATASIZE PUSH2 0x80C JUMP JUMPDEST DUP7 MLOAD RETURNDATASIZE DUP11 DUP3 RETURNDATACOPY RETURNDATASIZE SWAP1 REVERT JUMPDEST PUSH2 0x84C SWAP2 POP DUP12 RETURNDATASIZE DUP14 GT PUSH2 0x824 JUMPI PUSH2 0x816 DUP2 DUP4 PUSH2 0x3B57 JUMP JUMPDEST PUSH0 PUSH2 0x4EA JUMP JUMPDEST DUP8 MLOAD RETURNDATASIZE DUP12 DUP3 RETURNDATACOPY RETURNDATASIZE SWAP1 REVERT JUMPDEST POP DUP3 CALLVALUE PUSH2 0x3F1 JUMPI PUSH1 0x20 SWAP2 PUSH1 0x20 PUSH1 0x3 NOT CALLDATASIZE ADD SLT PUSH2 0x8D2 JUMPI CALLDATALOAD DUP4 MSTORE PUSH1 0x7 PUSH1 0x20 MSTORE DUP1 DUP4 KECCAK256 SWAP3 DUP2 MLOAD DUP1 SWAP4 PUSH1 0x20 DUP7 SLOAD SWAP3 DUP4 DUP2 MSTORE ADD SWAP6 DUP4 MSTORE PUSH1 0x20 DUP4 KECCAK256 SWAP3 SWAP1 JUMPDEST DUP3 DUP3 LT PUSH2 0x8BB JUMPI PUSH2 0x8B7 DUP7 DUP7 PUSH2 0x8AD DUP3 DUP12 SUB DUP4 PUSH2 0x3B57 JUMP JUMPDEST MLOAD SWAP2 DUP3 SWAP2 DUP3 PUSH2 0x3C20 JUMP JUMPDEST SUB SWAP1 RETURN JUMPDEST DUP4 SLOAD DUP8 MSTORE SWAP6 DUP7 ADD SWAP6 PUSH1 0x1 SWAP4 DUP5 ADD SWAP4 SWAP1 SWAP2 ADD SWAP1 PUSH2 0x895 JUMP JUMPDEST DUP4 DUP1 REVERT JUMPDEST DUP3 DUP5 CALLVALUE PUSH2 0x3F5 JUMPI PUSH1 0xFF DUP2 PUSH1 0x20 SWAP4 PUSH2 0x8EC CALLDATASIZE PUSH2 0x3AA3 JUMP JUMPDEST SWAP1 DUP3 MSTORE PUSH1 0xB DUP7 MSTORE DUP3 DUP3 KECCAK256 SWAP1 DUP3 MSTORE DUP6 MSTORE KECCAK256 SLOAD AND SWAP1 MLOAD SWAP1 ISZERO ISZERO DUP2 MSTORE RETURN JUMPDEST POP DUP3 CALLVALUE PUSH2 0x3F1 JUMPI PUSH1 0x20 SWAP2 PUSH1 0x20 PUSH1 0x3 NOT CALLDATASIZE ADD SLT PUSH2 0x8D2 JUMPI CALLDATALOAD DUP4 MSTORE PUSH1 0x13 PUSH1 0x20 MSTORE DUP1 DUP4 KECCAK256 SWAP3 DUP2 MLOAD DUP1 SWAP4 PUSH1 0x20 DUP7 SLOAD SWAP3 DUP4 DUP2 MSTORE ADD SWAP6 DUP4 MSTORE PUSH1 0x20 DUP4 KECCAK256 SWAP3 SWAP1 JUMPDEST DUP3 DUP3 LT PUSH2 0x958 JUMPI PUSH2 0x8B7 DUP7 DUP7 PUSH2 0x8AD DUP3 DUP12 SUB DUP4 PUSH2 0x3B57 JUMP JUMPDEST DUP4 SLOAD DUP8 MSTORE SWAP6 DUP7 ADD SWAP6 PUSH1 0x1 SWAP4 DUP5 ADD SWAP4 SWAP1 SWAP2 ADD SWAP1 PUSH2 0x940 JUMP JUMPDEST POP DUP3 SWAP1 CALLVALUE PUSH2 0x3F1 JUMPI PUSH1 0x20 SWAP2 DUP3 PUSH1 0x3 NOT CALLDATASIZE ADD SLT PUSH2 0x8D2 JUMPI DUP4 SWAP2 CALLDATALOAD DUP5 MSTORE PUSH1 0xD DUP4 MSTORE DUP1 DUP5 KECCAK256 SWAP4 DUP5 SLOAD PUSH2 0x99D DUP2 PUSH2 0x3FCD JUMP JUMPDEST SWAP6 PUSH2 0x9AA DUP5 MLOAD SWAP8 DUP9 PUSH2 0x3B57 JUMP JUMPDEST DUP2 DUP8 MSTORE DUP3 MSTORE DUP5 DUP3 KECCAK256 DUP3 SWAP1 DUP7 DUP1 DUP10 ADD JUMPDEST DUP5 DUP5 LT PUSH2 0xA0F JUMPI POP POP POP POP POP DUP5 MLOAD SWAP1 JUMPDEST DUP6 MLOAD DUP2 LT ISZERO PUSH2 0xA02 JUMPI PUSH1 0xC0 PUSH2 0x9DE DUP3 DUP9 PUSH2 0x3FE5 JUMP JUMPDEST MLOAD ADD MLOAD PUSH2 0x9EE JUMPI JUMPDEST PUSH1 0x1 ADD PUSH2 0x9C9 JUMP JUMPDEST SWAP3 PUSH2 0x9FA PUSH1 0x1 SWAP2 PUSH2 0x3DC9 JUMP JUMPDEST SWAP4 SWAP1 POP PUSH2 0x9E6 JUMP JUMPDEST POP DUP3 DUP5 DUP4 MLOAD SWAP3 DUP4 MSTORE DUP3 ADD MSTORE RETURN JUMPDEST PUSH1 0x1 SWAP2 PUSH1 0x6 SWAP2 PUSH2 0xA1E DUP6 PUSH2 0x4287 JUMP JUMPDEST DUP2 MSTORE ADD SWAP3 ADD SWAP3 ADD SWAP2 SWAP1 DUP8 SWAP1 PUSH2 0x9B9 JUMP JUMPDEST POP DUP3 SWAP1 CALLVALUE PUSH2 0x3F1 JUMPI PUSH1 0x20 CALLDATASIZE PUSH1 0x3 NOT ADD SLT PUSH2 0x3F1 JUMPI PUSH1 0x20 SWAP3 DUP3 SWAP2 CALLDATALOAD DUP2 MSTORE PUSH1 0x7 DUP5 MSTORE KECCAK256 SLOAD SWAP1 MLOAD SWAP1 DUP2 MSTORE RETURN JUMPDEST DUP3 CALLVALUE PUSH2 0x48C JUMPI PUSH1 0x20 CALLDATASIZE PUSH1 0x3 NOT ADD SLT PUSH2 0x48C JUMPI PUSH2 0xA71 PUSH2 0x3C0A JUMP JUMPDEST PUSH1 0x1 SLOAD PUSH1 0x1 PUSH1 0x1 PUSH1 0xA0 SHL SUB SWAP2 SWAP1 PUSH2 0xA8B SWAP1 DUP4 AND CALLER EQ PUSH2 0x3D90 JUMP JUMPDEST AND PUSH2 0xA97 DUP2 ISZERO ISZERO PUSH2 0x43F7 JUMP JUMPDEST DUP2 SLOAD PUSH1 0x1 PUSH1 0x1 PUSH1 0xA0 SHL SUB NOT AND OR DUP2 SSTORE DUP1 RETURN JUMPDEST POP DUP3 SWAP1 CALLVALUE PUSH2 0x3F1 JUMPI PUSH1 0x20 CALLDATASIZE PUSH1 0x3 NOT ADD SLT PUSH2 0x3F1 JUMPI PUSH1 0x20 SWAP3 DUP3 SWAP2 CALLDATALOAD DUP2 MSTORE PUSH1 0x12 DUP5 MSTORE KECCAK256 SLOAD SWAP1 MLOAD SWAP1 DUP2 MSTORE RETURN JUMPDEST POP DUP3 SWAP1 CALLVALUE PUSH2 0x3F1 JUMPI PUSH1 0x20 DUP1 PUSH1 0x3 NOT CALLDATASIZE ADD SLT PUSH2 0x8D2 JUMPI DUP4 SLOAD DUP4 MLOAD PUSH3 0xB0C809 PUSH1 0xE0 SHL DUP2 MSTORE CALLER DUP2 DUP6 ADD MSTORE SWAP4 DUP4 CALLDATALOAD SWAP4 SWAP1 SWAP2 DUP4 SWAP1 DUP7 SWAP1 PUSH1 0x24 SWAP1 DUP3 SWAP1 PUSH1 0x1 PUSH1 0x1 PUSH1 0xA0 SHL SUB AND GAS STATICCALL SWAP5 DUP6 ISZERO PUSH2 0xC4F JUMPI DUP7 SWAP6 PUSH2 0xC1C JUMPI JUMPDEST POP PUSH2 0xB2D DUP6 ISZERO ISZERO PUSH2 0x3F52 JUMP JUMPDEST DUP4 DUP7 MSTORE PUSH1 0xE DUP4 MSTORE DUP2 DUP7 KECCAK256 DUP6 DUP8 MSTORE DUP4 MSTORE PUSH1 0xFF DUP3 DUP8 KECCAK256 SLOAD AND ISZERO PUSH2 0xBE3 JUMPI POP SWAP1 PUSH32 0x6CE2CFA8C67A8EEDDAB297878EC995418CC57AA7857D4FE81C4F22C06842AF0D SWAP2 DUP4 DUP7 MSTORE PUSH1 0xF DUP3 MSTORE DUP1 DUP7 KECCAK256 DUP6 DUP8 MSTORE DUP3 MSTORE PUSH1 0x5 PUSH2 0xBB7 DUP3 PUSH2 0xBA8 PUSH1 0xFF DUP5 PUSH2 0xB9F DUP13 DUP6 DUP2 KECCAK256 SLOAD SWAP6 DUP2 DUP14 DUP9 SWAP4 MSTORE PUSH1 0xD DUP13 MSTORE KECCAK256 PUSH2 0x3C84 JUMP JUMPDEST POP ADD SLOAD AND PUSH2 0x43B7 JUMP JUMPDEST DUP7 DUP10 MSTORE PUSH1 0xD DUP6 MSTORE DUP4 DUP10 KECCAK256 PUSH2 0x3C84 JUMP JUMPDEST POP ADD PUSH1 0xFF NOT SWAP1 DUP2 DUP2 SLOAD AND SWAP1 SSTORE DUP5 DUP8 MSTORE PUSH1 0xE DUP4 MSTORE DUP2 DUP8 KECCAK256 DUP7 DUP9 MSTORE DUP4 MSTORE DUP2 DUP8 KECCAK256 SWAP1 DUP2 SLOAD AND SWAP1 SSTORE MLOAD TIMESTAMP DUP2 MSTORE LOG3 DUP1 RETURN JUMPDEST DUP3 PUSH1 0x64 SWAP3 MLOAD SWAP2 PUSH3 0x461BCD PUSH1 0xE5 SHL DUP4 MSTORE DUP3 ADD MSTORE PUSH1 0x15 PUSH1 0x24 DUP3 ADD MSTORE PUSH21 0x139BC8191A5CDC1D5D19481D1BC81C995D1C9858DD PUSH1 0x5A SHL PUSH1 0x44 DUP3 ADD MSTORE REVERT JUMPDEST SWAP1 SWAP5 POP DUP3 DUP2 DUP2 RETURNDATASIZE DUP4 GT PUSH2 0xC48 JUMPI JUMPDEST PUSH2 0xC34 DUP2 DUP4 PUSH2 0x3B57 JUMP JUMPDEST DUP2 ADD SUB SLT PUSH2 0xC44 JUMPI MLOAD SWAP4 DUP7 PUSH2 0xB21 JUMP JUMPDEST PUSH0 DUP1 REVERT JUMPDEST POP RETURNDATASIZE PUSH2 0xC2A JUMP JUMPDEST DUP3 MLOAD RETURNDATASIZE DUP9 DUP3 RETURNDATACOPY RETURNDATASIZE SWAP1 REVERT JUMPDEST DUP3 DUP5 CALLVALUE PUSH2 0x3F5 JUMPI PUSH1 0xFF DUP2 PUSH1 0x20 SWAP4 PUSH2 0xC6F CALLDATASIZE PUSH2 0x3AA3 JUMP JUMPDEST SWAP1 DUP3 MSTORE PUSH1 0x3 DUP7 MSTORE DUP3 DUP3 KECCAK256 SWAP1 DUP3 MSTORE DUP6 MSTORE KECCAK256 SLOAD AND SWAP1 MLOAD SWAP1 ISZERO ISZERO DUP2 MSTORE RETURN JUMPDEST DUP3 DUP5 CALLVALUE PUSH2 0x3F5 JUMPI DUP2 PUSH1 0x3 NOT CALLDATASIZE ADD SLT PUSH2 0x3F5 JUMPI PUSH1 0x20 SWAP1 PUSH1 0x9 SLOAD SWAP1 MLOAD SWAP1 DUP2 MSTORE RETURN JUMPDEST POP DUP3 CALLVALUE PUSH2 0x3F1 JUMPI PUSH2 0xCB9 CALLDATASIZE PUSH2 0x3AA3 JUMP JUMPDEST SWAP4 SWAP1 DUP2 MSTORE PUSH1 0xA PUSH1 0x20 MSTORE DUP2 DUP2 KECCAK256 SWAP1 DUP2 SLOAD DUP6 LT ISZERO PUSH2 0x48C JUMPI POP PUSH1 0xA0 SWAP4 PUSH2 0xCDC SWAP2 PUSH2 0x3D77 JUMP JUMPDEST POP DUP1 SLOAD SWAP3 PUSH1 0x1 DUP3 ADD SLOAD SWAP3 PUSH1 0xFF DUP1 PUSH1 0x2 DUP6 ADD SLOAD AND SWAP3 PUSH1 0x3 DUP6 ADD SLOAD SWAP5 ADD SLOAD AND SWAP4 DUP2 MLOAD SWAP6 DUP7 MSTORE PUSH1 0x20 DUP7 ADD MSTORE PUSH2 0xD0D DUP3 PUSH2 0x3AB9 JUMP JUMPDEST DUP5 ADD MSTORE PUSH1 0x60 DUP4 ADD MSTORE ISZERO ISZERO PUSH1 0x80 DUP3 ADD MSTORE RETURN JUMPDEST DUP5 DUP4 DUP6 CALLVALUE PUSH2 0x48C JUMPI PUSH1 0x20 SWAP2 DUP3 PUSH1 0x3 NOT CALLDATASIZE ADD SLT PUSH2 0x3F5 JUMPI CALLDATALOAD DUP2 MSTORE PUSH1 0xD DUP3 MSTORE DUP3 DUP2 KECCAK256 SWAP2 DUP3 SLOAD SWAP1 PUSH2 0xD4B DUP3 PUSH2 0x3FCD JUMP JUMPDEST SWAP2 PUSH2 0xD58 DUP7 MLOAD SWAP4 DUP5 PUSH2 0x3B57 JUMP JUMPDEST DUP1 DUP4 MSTORE DUP2 DUP4 ADD DUP1 SWAP6 DUP6 MSTORE DUP3 DUP6 KECCAK256 DUP6 SWAP2 JUMPDEST DUP4 DUP4 LT PUSH2 0xE23 JUMPI POP POP POP POP DUP5 MLOAD SWAP5 DUP2 DUP7 ADD SWAP3 DUP3 DUP8 MSTORE MLOAD DUP1 SWAP4 MSTORE DUP1 DUP7 ADD SWAP1 DUP1 DUP5 PUSH1 0x5 SHL DUP9 ADD ADD SWAP6 SWAP5 SWAP8 JUMPDEST DUP5 DUP10 LT PUSH2 0xD9E JUMPI DUP8 DUP8 SUB DUP9 RETURN JUMPDEST SWAP1 SWAP2 SWAP3 SWAP4 SWAP5 SWAP6 DUP5 DUP1 PUSH1 0x1 SWAP3 PUSH1 0x3F NOT DUP12 DUP3 SUB ADD DUP8 MSTORE DUP10 MLOAD SWAP1 DUP2 MLOAD DUP2 MSTORE DUP3 DUP3 ADD MLOAD DUP4 DUP3 ADD MSTORE DUP7 DUP3 ADD MLOAD PUSH2 0xDCE DUP2 PUSH2 0x3AB9 JUMP JUMPDEST DUP8 DUP3 ADD MSTORE PUSH2 0xDE4 PUSH1 0x60 DUP1 DUP5 ADD MLOAD SWAP1 DUP4 ADD SWAP1 PUSH2 0x3BBF JUMP JUMPDEST PUSH2 0xDFB PUSH1 0x80 DUP8 DUP2 DUP6 ADD MLOAD SWAP2 DUP5 ADD MSTORE DUP8 DUP4 ADD SWAP1 PUSH2 0x3BCC JUMP JUMPDEST SWAP2 PUSH1 0xA0 DUP1 DUP3 ADD MLOAD SWAP1 DUP4 ADD MSTORE PUSH1 0xC0 DUP1 SWAP2 ADD MLOAD ISZERO ISZERO SWAP2 ADD MSTORE SWAP9 ADD SWAP5 ADD SWAP9 ADD SWAP8 SWAP2 SWAP1 SWAP5 SWAP4 SWAP3 SWAP5 PUSH2 0xD91 JUMP JUMPDEST PUSH1 0x6 DUP6 PUSH1 0x1 SWAP3 PUSH2 0xE36 DUP6 SWAP11 SWAP9 SWAP10 SWAP11 PUSH2 0x4287 JUMP JUMPDEST DUP2 MSTORE ADD SWAP3 ADD SWAP3 ADD SWAP2 SWAP1 SWAP6 SWAP5 SWAP4 SWAP6 PUSH2 0xD68 JUMP JUMPDEST POP POP DUP3 CALLVALUE PUSH2 0x3F1 JUMPI PUSH1 0x20 SWAP2 PUSH1 0x20 PUSH1 0x3 NOT CALLDATASIZE ADD SLT PUSH2 0x8D2 JUMPI CALLDATALOAD DUP4 MSTORE PUSH1 0x14 PUSH1 0x20 MSTORE DUP1 DUP4 KECCAK256 SWAP3 DUP2 MLOAD DUP1 SWAP4 PUSH1 0x20 DUP7 SLOAD SWAP3 DUP4 DUP2 MSTORE ADD SWAP6 DUP4 MSTORE PUSH1 0x20 DUP4 KECCAK256 SWAP3 SWAP1 JUMPDEST DUP3 DUP3 LT PUSH2 0xE9A JUMPI PUSH2 0x8B7 DUP7 DUP7 PUSH2 0x8AD DUP3 DUP12 SUB DUP4 PUSH2 0x3B57 JUMP JUMPDEST DUP4 SLOAD DUP8 MSTORE SWAP6 DUP7 ADD SWAP6 PUSH1 0x1 SWAP4 DUP5 ADD SWAP4 SWAP1 SWAP2 ADD SWAP1 PUSH2 0xE82 JUMP JUMPDEST POP POP DUP3 CALLVALUE PUSH2 0x3F1 JUMPI PUSH1 0x20 SWAP2 PUSH1 0x20 PUSH1 0x3 NOT CALLDATASIZE ADD SLT PUSH2 0x8D2 JUMPI DUP1 CALLDATALOAD DUP5 MSTORE PUSH1 0x20 MSTORE DUP1 DUP4 KECCAK256 SWAP3 DUP2 MLOAD DUP1 SWAP4 PUSH1 0x20 DUP7 SLOAD SWAP3 DUP4 DUP2 MSTORE ADD SWAP6 DUP4 MSTORE PUSH1 0x20 DUP4 KECCAK256 SWAP3 SWAP1 JUMPDEST DUP3 DUP3 LT PUSH2 0xF02 JUMPI PUSH2 0x8B7 DUP7 DUP7 PUSH2 0x8AD DUP3 DUP12 SUB DUP4 PUSH2 0x3B57 JUMP JUMPDEST DUP4 SLOAD DUP8 MSTORE SWAP6 DUP7 ADD SWAP6 PUSH1 0x1 SWAP4 DUP5 ADD SWAP4 SWAP1 SWAP2 ADD SWAP1 PUSH2 0xEEA JUMP JUMPDEST POP POP DUP3 CALLVALUE PUSH2 0x3F1 JUMPI PUSH2 0xF2A CALLDATASIZE PUSH2 0x3AA3 JUMP JUMPDEST SWAP3 SWAP1 SWAP2 PUSH1 0x1 DUP1 PUSH1 0xA0 SHL SUB DUP6 SLOAD AND SWAP2 DUP2 MLOAD SWAP1 PUSH4 0x45ECD02F PUSH1 0xE0 SHL DUP3 MSTORE CALLER DUP2 DUP4 ADD MSTORE PUSH1 0x20 SWAP2 DUP3 DUP2 PUSH1 0x24 DUP2 DUP9 GAS STATICCALL SWAP1 DUP2 ISZERO PUSH2 0x1132 JUMPI SWAP1 PUSH2 0xF6D SWAP2 DUP10 SWAP2 PUSH2 0x113C JUMPI POP PUSH2 0x4011 JUMP JUMPDEST DUP3 MLOAD PUSH4 0x64461AFF PUSH1 0xE1 SHL DUP2 MSTORE DUP2 DUP2 ADD DUP7 DUP2 MSTORE CALLER PUSH1 0x20 DUP3 ADD MSTORE DUP4 SWAP1 DUP3 SWAP1 DUP2 SWAP1 PUSH1 0x40 ADD SUB DUP2 DUP9 GAS STATICCALL SWAP1 DUP2 ISZERO PUSH2 0x1132 JUMPI SWAP1 PUSH2 0xFAB SWAP2 DUP10 SWAP2 PUSH2 0x1115 JUMPI POP PUSH2 0x4054 JUMP JUMPDEST DUP6 DUP8 MSTORE PUSH1 0x6 DUP3 MSTORE DUP3 DUP8 KECCAK256 SLOAD PUSH2 0x10D4 JUMPI DUP6 ISZERO PUSH2 0x109C JUMPI DUP2 SWAP1 PUSH1 0x24 DUP5 MLOAD DUP1 SWAP7 DUP2 SWAP4 PUSH3 0xB0C809 PUSH1 0xE0 SHL DUP4 MSTORE CALLER SWAP1 DUP4 ADD MSTORE GAS STATICCALL SWAP1 DUP2 ISZERO PUSH2 0xC4F JUMPI DUP7 SWAP2 PUSH2 0x104D JUMPI JUMPDEST PUSH32 0xA2DC124B7DCC6EE378406493EDC477D456CB2E3946E74B015C868704E9F16280 SWAP4 POP DUP6 DUP8 MSTORE PUSH1 0x6 DUP2 MSTORE DUP5 DUP4 DUP9 KECCAK256 SSTORE DUP5 DUP8 MSTORE PUSH1 0x7 DUP2 MSTORE PUSH2 0x102A DUP7 DUP5 DUP10 KECCAK256 PUSH2 0x419C JUMP JUMPDEST DUP6 DUP8 MSTORE PUSH1 0x8 DUP2 MSTORE DUP3 DUP8 KECCAK256 DUP1 SLOAD PUSH1 0xFF NOT AND PUSH1 0x1 OR SWAP1 SSTORE DUP3 MLOAD SWAP2 DUP3 MSTORE TIMESTAMP SWAP1 DUP3 ADD MSTORE LOG3 DUP1 RETURN JUMPDEST DUP1 SWAP2 POP DUP4 DUP2 RETURNDATASIZE DUP4 GT PUSH2 0x1095 JUMPI JUMPDEST PUSH2 0x1064 DUP2 DUP4 PUSH2 0x3B57 JUMP JUMPDEST DUP2 ADD SUB SLT PUSH2 0xC44 JUMPI PUSH32 0xA2DC124B7DCC6EE378406493EDC477D456CB2E3946E74B015C868704E9F16280 SWAP3 MLOAD SWAP1 PUSH2 0xFE8 JUMP JUMPDEST POP RETURNDATASIZE PUSH2 0x105A JUMP JUMPDEST SWAP2 MLOAD PUSH3 0x461BCD PUSH1 0xE5 SHL DUP2 MSTORE SWAP2 DUP3 ADD MSTORE PUSH1 0x14 PUSH1 0x24 DUP3 ADD MSTORE PUSH20 0x486173682063616E6E6F7420626520656D707479 PUSH1 0x60 SHL PUSH1 0x44 DUP3 ADD MSTORE PUSH1 0x64 SWAP1 REVERT JUMPDEST SWAP2 MLOAD PUSH3 0x461BCD PUSH1 0xE5 SHL DUP2 MSTORE SWAP2 DUP3 ADD MSTORE PUSH1 0x1E PUSH1 0x24 DUP3 ADD MSTORE PUSH32 0x4861736820616C726561647920626F756E6420746F2061207265636F72640000 PUSH1 0x44 DUP3 ADD MSTORE PUSH1 0x64 SWAP1 REVERT JUMPDEST PUSH2 0x112C SWAP2 POP DUP5 RETURNDATASIZE DUP7 GT PUSH2 0x824 JUMPI PUSH2 0x816 DUP2 DUP4 PUSH2 0x3B57 JUMP JUMPDEST DUP10 PUSH2 0x52D JUMP JUMPDEST DUP5 MLOAD RETURNDATASIZE DUP11 DUP3 RETURNDATACOPY RETURNDATASIZE SWAP1 REVERT JUMPDEST PUSH2 0x1153 SWAP2 POP DUP5 RETURNDATASIZE DUP7 GT PUSH2 0x824 JUMPI PUSH2 0x816 DUP2 DUP4 PUSH2 0x3B57 JUMP JUMPDEST DUP10 PUSH2 0x4EA JUMP JUMPDEST DUP4 DUP6 CALLVALUE PUSH2 0x3F5 JUMPI DUP2 PUSH1 0x3 NOT CALLDATASIZE ADD SLT PUSH2 0x3F5 JUMPI PUSH1 0x20 SWAP1 PUSH1 0x16 SLOAD SWAP1 MLOAD SWAP1 DUP2 MSTORE RETURN JUMPDEST DUP4 DUP6 DUP5 CALLVALUE PUSH2 0x3F1 JUMPI PUSH1 0x20 CALLDATASIZE PUSH1 0x3 NOT ADD SLT PUSH2 0x3F1 JUMPI PUSH2 0x1194 PUSH2 0x3C0A JUMP JUMPDEST PUSH32 0xF0C57E16840DF040F15088DC2F81FE391C3923BEC73E23A9662EFC9C229C6A00 SWAP2 DUP3 SLOAD SWAP2 PUSH1 0xFF DUP4 DUP7 SHR AND ISZERO SWAP3 PUSH8 0xFFFFFFFFFFFFFFFF DUP2 AND DUP1 ISZERO SWAP1 DUP2 PUSH2 0x130F JUMPI JUMPDEST PUSH1 0x1 EQ SWAP1 DUP2 PUSH2 0x1305 JUMPI JUMPDEST ISZERO SWAP1 DUP2 PUSH2 0x12FC JUMPI JUMPDEST POP PUSH2 0x12EC JUMPI PUSH8 0xFFFFFFFFFFFFFFFF NOT DUP2 AND PUSH1 0x1 OR DUP6 SSTORE DUP4 PUSH2 0x12CD JUMPI JUMPDEST POP PUSH1 0x1 PUSH1 0x1 PUSH1 0xA0 SHL SUB AND SWAP1 DUP2 ISZERO PUSH2 0x1280 JUMPI POP PUSH12 0xFFFFFFFFFFFFFFFFFFFFFFFF PUSH1 0xA0 SHL SWAP1 DUP2 DUP7 SLOAD AND OR DUP6 SSTORE CALLER SWAP1 PUSH1 0x1 SLOAD AND OR PUSH1 0x1 SSTORE PUSH2 0x123F JUMPI DUP3 DUP1 RETURN JUMPDEST DUP1 SLOAD PUSH9 0xFF0000000000000000 NOT AND SWAP1 SSTORE MLOAD PUSH1 0x1 DUP2 MSTORE PUSH32 0xC7F505B2F371AE2175EE4913F4499E1F2633A7B5936321EED1CDAEB6115181D2 SWAP1 PUSH1 0x20 SWAP1 LOG1 DUP2 DUP1 DUP3 DUP1 RETURN JUMPDEST PUSH1 0x84 SWAP1 PUSH1 0x20 DUP7 MLOAD SWAP2 PUSH3 0x461BCD PUSH1 0xE5 SHL DUP4 MSTORE DUP3 ADD MSTORE PUSH1 0x21 PUSH1 0x24 DUP3 ADD MSTORE PUSH32 0x496E76616C6964204D656D626572526F6C654D616E6167657220616464726573 PUSH1 0x44 DUP3 ADD MSTORE PUSH1 0x73 PUSH1 0xF8 SHL PUSH1 0x64 DUP3 ADD MSTORE REVERT JUMPDEST PUSH9 0xFFFFFFFFFFFFFFFFFF NOT AND PUSH9 0x10000000000000001 OR DUP5 SSTORE DUP7 PUSH2 0x1203 JUMP JUMPDEST DUP6 MLOAD PUSH4 0xF92EE8A9 PUSH1 0xE0 SHL DUP2 MSTORE DUP4 SWAP1 REVERT JUMPDEST SWAP1 POP ISZERO DUP9 PUSH2 0x11E7 JUMP JUMPDEST ADDRESS EXTCODESIZE ISZERO SWAP2 POP PUSH2 0x11DF JUMP JUMPDEST DUP6 SWAP2 POP PUSH2 0x11D5 JUMP JUMPDEST POP POP DUP3 CALLVALUE PUSH2 0x3F1 JUMPI PUSH1 0x20 SWAP2 PUSH1 0x20 PUSH1 0x3 NOT CALLDATASIZE ADD SLT PUSH2 0x8D2 JUMPI CALLDATALOAD DUP4 MSTORE PUSH1 0x2 PUSH1 0x20 MSTORE DUP1 DUP4 KECCAK256 SWAP3 DUP2 MLOAD DUP1 SWAP4 PUSH1 0x20 DUP7 SLOAD SWAP3 DUP4 DUP2 MSTORE ADD SWAP6 DUP4 MSTORE PUSH1 0x20 DUP4 KECCAK256 SWAP3 SWAP1 JUMPDEST DUP3 DUP3 LT PUSH2 0x1369 JUMPI PUSH2 0x8B7 DUP7 DUP7 PUSH2 0x8AD DUP3 DUP12 SUB DUP4 PUSH2 0x3B57 JUMP JUMPDEST DUP4 SLOAD DUP8 MSTORE SWAP6 DUP7 ADD SWAP6 PUSH1 0x1 SWAP4 DUP5 ADD SWAP4 SWAP1 SWAP2 ADD SWAP1 PUSH2 0x1351 JUMP JUMPDEST POP POP CALLVALUE PUSH2 0x3F5 JUMPI PUSH1 0x20 SWAP1 DUP2 PUSH1 0x3 NOT CALLDATASIZE ADD SLT PUSH2 0x3F1 JUMPI SWAP2 SWAP1 SWAP2 CALLDATALOAD DUP2 MSTORE PUSH1 0x10 DUP3 MSTORE DUP3 DUP2 KECCAK256 SWAP1 DUP2 SLOAD PUSH2 0x13AE DUP2 PUSH2 0x3FCD JUMP JUMPDEST SWAP1 PUSH2 0x13BB DUP7 MLOAD SWAP3 DUP4 PUSH2 0x3B57 JUMP JUMPDEST DUP1 DUP3 MSTORE DUP5 DUP3 ADD DUP1 SWAP5 DUP5 MSTORE DUP6 DUP5 KECCAK256 DUP5 SWAP2 JUMPDEST DUP4 DUP4 LT PUSH2 0x1435 JUMPI POP POP POP POP DUP5 MLOAD SWAP4 DUP1 DUP6 ADD SWAP2 DUP2 DUP7 MSTORE MLOAD DUP1 SWAP3 MSTORE DUP6 DUP6 ADD SWAP4 SWAP3 JUMPDEST DUP3 DUP2 LT PUSH2 0x13F7 JUMPI DUP6 DUP6 SUB DUP7 RETURN JUMPDEST DUP4 MLOAD DUP1 MLOAD DUP7 MSTORE DUP1 DUP4 ADD MLOAD DUP7 DUP5 ADD MSTORE DUP8 DUP2 ADD MLOAD DUP9 DUP8 ADD MSTORE PUSH1 0x60 DUP1 DUP3 ADD MLOAD SWAP1 DUP8 ADD MSTORE PUSH1 0x80 SWAP1 DUP2 ADD MLOAD ISZERO ISZERO SWAP1 DUP7 ADD MSTORE PUSH1 0xA0 SWAP1 SWAP5 ADD SWAP4 SWAP3 DUP2 ADD SWAP3 PUSH1 0x1 ADD PUSH2 0x13EA JUMP JUMPDEST PUSH1 0x5 DUP9 PUSH1 0x1 SWAP3 PUSH2 0x1448 DUP6 SWAP12 SWAP9 SWAP10 SWAP12 PUSH2 0x41D0 JUMP JUMPDEST DUP2 MSTORE ADD SWAP3 ADD SWAP3 ADD SWAP2 SWAP1 SWAP7 SWAP5 SWAP4 SWAP7 PUSH2 0x13CB JUMP JUMPDEST DUP4 DUP6 CALLVALUE PUSH2 0x3F5 JUMPI PUSH2 0x146A CALLDATASIZE PUSH2 0x3AA3 JUMP JUMPDEST SWAP3 SWAP1 DUP2 MSTORE PUSH1 0x13 PUSH1 0x20 MSTORE DUP2 DUP2 KECCAK256 SWAP1 DUP2 SLOAD DUP5 LT ISZERO PUSH2 0x48C JUMPI POP PUSH1 0x20 SWAP3 PUSH2 0x148D SWAP2 PUSH2 0x3C5B JUMP JUMPDEST SWAP2 SWAP1 SLOAD SWAP1 MLOAD SWAP2 PUSH1 0x3 SHL SHR DUP2 MSTORE RETURN JUMPDEST DUP3 DUP6 DUP6 CALLVALUE PUSH2 0x48C JUMPI PUSH2 0x14AC CALLDATASIZE PUSH2 0x3AA3 JUMP JUMPDEST SWAP4 SWAP1 DUP3 MSTORE PUSH1 0x20 MSTORE DUP2 DUP2 KECCAK256 SWAP1 DUP2 SLOAD DUP5 LT ISZERO PUSH2 0x48C JUMPI POP PUSH1 0x20 SWAP3 PUSH2 0x148D SWAP2 PUSH2 0x3C5B JUMP JUMPDEST DUP3 DUP6 DUP6 CALLVALUE PUSH2 0x48C JUMPI PUSH2 0x14DE CALLDATASIZE PUSH2 0x3AA3 JUMP JUMPDEST SWAP2 SWAP1 DUP2 MSTORE PUSH1 0xD PUSH1 0x20 MSTORE DUP3 DUP2 KECCAK256 SWAP1 DUP2 SLOAD DUP4 LT ISZERO PUSH2 0x48C JUMPI POP SWAP1 PUSH2 0x14FF SWAP2 PUSH2 0x3C84 JUMP JUMPDEST POP SWAP1 PUSH2 0x1568 DUP3 SLOAD SWAP4 PUSH1 0x1 DUP5 ADD SLOAD SWAP6 PUSH2 0x155A PUSH1 0x2 DUP7 ADD SLOAD PUSH1 0xFF DUP2 AND PUSH1 0xFF PUSH1 0x5 PUSH2 0x1529 PUSH1 0x3 DUP12 ADD PUSH2 0x3CD5 JUMP JUMPDEST SWAP7 DUP11 ADD SLOAD SWAP10 ADD SLOAD AND SWAP7 DUP1 MLOAD SWAP11 DUP12 SWAP11 DUP12 MSTORE PUSH1 0x20 DUP12 ADD MSTORE PUSH2 0x1547 DUP3 PUSH2 0x3AB9 JUMP JUMPDEST DUP10 ADD MSTORE PUSH1 0xFF PUSH1 0x60 DUP10 ADD SWAP2 PUSH1 0x8 SHR AND PUSH2 0x3BBF JUMP JUMPDEST DUP1 PUSH1 0x80 DUP8 ADD MSTORE DUP6 ADD SWAP1 PUSH2 0x3BCC JUMP JUMPDEST SWAP2 PUSH1 0xA0 DUP5 ADD MSTORE ISZERO ISZERO PUSH1 0xC0 DUP4 ADD MSTORE SUB SWAP1 RETURN JUMPDEST DUP4 DUP6 CALLVALUE PUSH2 0x3F5 JUMPI PUSH2 0x1589 CALLDATASIZE PUSH2 0x3AA3 JUMP JUMPDEST SWAP3 SWAP1 DUP2 MSTORE PUSH1 0x14 PUSH1 0x20 MSTORE DUP2 DUP2 KECCAK256 SWAP1 DUP2 SLOAD DUP5 LT ISZERO PUSH2 0x48C JUMPI POP PUSH1 0x20 SWAP3 PUSH2 0x148D SWAP2 PUSH2 0x3C5B JUMP JUMPDEST DUP3 DUP6 DUP6 CALLVALUE PUSH2 0x48C JUMPI DUP1 PUSH1 0x3 NOT CALLDATASIZE ADD SLT PUSH2 0x48C JUMPI POP DUP1 MLOAD SWAP1 DUP1 DUP3 ADD DUP3 DUP2 LT PUSH8 0xFFFFFFFFFFFFFFFF DUP3 GT OR PUSH2 0x1604 JUMPI PUSH2 0x8B7 SWAP4 POP DUP2 MSTORE PUSH1 0x5 DUP3 MSTORE PUSH5 0x352E302E3 PUSH1 0xDC SHL PUSH1 0x20 DUP4 ADD MSTORE MLOAD SWAP2 DUP3 SWAP2 PUSH1 0x20 DUP4 MSTORE PUSH1 0x20 DUP4 ADD SWAP1 PUSH2 0x3BCC JUMP JUMPDEST PUSH1 0x41 DUP5 PUSH4 0x4E487B71 PUSH1 0xE0 SHL PUSH0 MSTORE MSTORE PUSH1 0x24 PUSH0 REVERT JUMPDEST DUP4 DUP6 CALLVALUE PUSH2 0x3F5 JUMPI PUSH2 0x1627 CALLDATASIZE PUSH2 0x3AA3 JUMP JUMPDEST SWAP3 SWAP1 DUP2 MSTORE PUSH1 0x2 PUSH1 0x20 MSTORE DUP2 DUP2 KECCAK256 SWAP1 DUP2 SLOAD DUP5 LT ISZERO PUSH2 0x48C JUMPI POP PUSH1 0x20 SWAP3 PUSH2 0x148D SWAP2 PUSH2 0x3C5B JUMP JUMPDEST DUP4 DUP6 CALLVALUE PUSH2 0x3F5 JUMPI DUP2 PUSH1 0x3 NOT CALLDATASIZE ADD SLT PUSH2 0x3F5 JUMPI PUSH1 0x20 SWAP1 PUSH1 0x17 SLOAD SWAP1 MLOAD SWAP1 DUP2 MSTORE RETURN JUMPDEST DUP4 DUP6 CALLVALUE PUSH2 0x3F5 JUMPI DUP2 PUSH1 0x3 NOT CALLDATASIZE ADD SLT PUSH2 0x3F5 JUMPI PUSH1 0x20 SWAP1 PUSH1 0x15 SLOAD SWAP1 MLOAD SWAP1 DUP2 MSTORE RETURN JUMPDEST DUP4 DUP6 CALLVALUE PUSH2 0x3F5 JUMPI PUSH1 0xFF DUP2 PUSH1 0x20 SWAP4 PUSH2 0x169E CALLDATASIZE PUSH2 0x3AA3 JUMP JUMPDEST SWAP1 DUP3 MSTORE PUSH1 0x5 DUP7 MSTORE DUP3 DUP3 KECCAK256 SWAP1 DUP3 MSTORE DUP6 MSTORE KECCAK256 SLOAD AND SWAP1 MLOAD SWAP1 ISZERO ISZERO DUP2 MSTORE RETURN JUMPDEST POP POP DUP3 CALLVALUE PUSH2 0xC44 JUMPI PUSH2 0x16CA CALLDATASIZE PUSH2 0x3AA3 JUMP JUMPDEST PUSH0 SLOAD DUP4 MLOAD PUSH4 0x45ECD02F PUSH1 0xE0 SHL DUP2 MSTORE CALLER DUP2 DUP8 ADD MSTORE SWAP3 SWAP5 SWAP3 PUSH1 0x20 SWAP3 PUSH1 0x1 PUSH1 0x1 PUSH1 0xA0 SHL SUB SWAP3 SWAP1 SWAP2 SWAP1 DUP4 AND SWAP1 DUP5 DUP2 PUSH1 0x24 DUP2 DUP6 GAS STATICCALL SWAP1 DUP2 ISZERO PUSH2 0x18D9 JUMPI SWAP1 PUSH2 0x1712 SWAP2 PUSH0 SWAP2 PUSH2 0x18BC JUMPI POP PUSH2 0x4011 JUMP JUMPDEST DUP6 MLOAD PUSH4 0x64461AFF PUSH1 0xE1 SHL DUP2 MSTORE DUP6 DUP2 ADD DUP9 DUP2 MSTORE CALLER PUSH1 0x20 DUP3 ADD MSTORE SWAP1 SWAP2 DUP6 SWAP2 DUP4 SWAP2 SWAP1 DUP3 SWAP1 DUP2 SWAP1 PUSH1 0x40 ADD SUB SWAP2 GAS STATICCALL SWAP1 DUP2 ISZERO PUSH2 0x18B2 JUMPI PUSH2 0x175D SWAP3 SWAP2 PUSH2 0x1758 SWAP2 PUSH0 SWAP2 PUSH2 0x1895 JUMPI POP PUSH2 0x4054 JUMP JUMPDEST PUSH2 0x4475 JUMP JUMPDEST SWAP2 DUP6 PUSH0 MSTORE PUSH1 0x3 DUP2 MSTORE DUP5 PUSH0 KECCAK256 DUP4 PUSH0 MSTORE DUP2 MSTORE PUSH1 0xFF DUP6 PUSH0 KECCAK256 SLOAD AND ISZERO PUSH2 0x185D JUMPI DUP6 PUSH0 MSTORE PUSH1 0x5 DUP2 MSTORE DUP5 PUSH0 KECCAK256 DUP4 PUSH0 MSTORE DUP2 MSTORE PUSH1 0xFF DUP6 PUSH0 KECCAK256 SLOAD AND PUSH2 0x182A JUMPI DUP6 PUSH32 0x34CA5296A801DF9003D17DF2E6EA45B29101067AE1A058CEF45A9B8995D2CDFC DUP5 SWAP3 DUP3 PUSH0 MSTORE PUSH1 0x5 DUP2 MSTORE DUP8 PUSH0 KECCAK256 DUP5 PUSH0 MSTORE DUP2 MSTORE DUP8 PUSH0 KECCAK256 PUSH1 0x1 PUSH1 0xFF NOT DUP3 SLOAD AND OR SWAP1 SSTORE DUP8 MLOAD TIMESTAMP DUP2 MSTORE LOG3 PUSH0 SLOAD AND DUP1 EXTCODESIZE ISZERO PUSH2 0xC44 JUMPI PUSH0 SWAP3 DUP4 PUSH1 0x44 SWAP3 DUP7 MLOAD SWAP8 DUP9 SWAP6 DUP7 SWAP5 PUSH4 0xC35C997 PUSH1 0xE2 SHL DUP7 MSTORE DUP6 ADD MSTORE PUSH1 0x24 DUP5 ADD MSTORE GAS CALL SWAP1 DUP2 ISZERO PUSH2 0x1821 JUMPI POP PUSH2 0x1815 JUMPI POP DUP1 RETURN JUMPDEST PUSH2 0x181F SWAP2 POP PUSH2 0x3B43 JUMP JUMPDEST STOP JUMPDEST MLOAD RETURNDATASIZE PUSH0 DUP3 RETURNDATACOPY RETURNDATASIZE SWAP1 REVERT JUMPDEST DUP4 PUSH1 0x64 SWAP2 DUP7 MLOAD SWAP2 PUSH3 0x461BCD PUSH1 0xE5 SHL DUP4 MSTORE DUP3 ADD MSTORE PUSH1 0xE PUSH1 0x24 DUP3 ADD MSTORE PUSH14 0x416C726561647920616374697665 PUSH1 0x90 SHL PUSH1 0x44 DUP3 ADD MSTORE REVERT JUMPDEST DUP4 PUSH1 0x64 SWAP2 DUP7 MLOAD SWAP2 PUSH3 0x461BCD PUSH1 0xE5 SHL DUP4 MSTORE DUP3 ADD MSTORE PUSH1 0x13 PUSH1 0x24 DUP3 ADD MSTORE PUSH19 0x15D85CC81B995D995C8818481CDD589A9958DD PUSH1 0x6A SHL PUSH1 0x44 DUP3 ADD MSTORE REVERT JUMPDEST PUSH2 0x18AC SWAP2 POP DUP7 RETURNDATASIZE DUP9 GT PUSH2 0x824 JUMPI PUSH2 0x816 DUP2 DUP4 PUSH2 0x3B57 JUMP JUMPDEST DUP11 PUSH2 0x52D JUMP JUMPDEST DUP7 MLOAD RETURNDATASIZE PUSH0 DUP3 RETURNDATACOPY RETURNDATASIZE SWAP1 REVERT JUMPDEST PUSH2 0x18D3 SWAP2 POP DUP7 RETURNDATASIZE DUP9 GT PUSH2 0x824 JUMPI PUSH2 0x816 DUP2 DUP4 PUSH2 0x3B57 JUMP JUMPDEST DUP11 PUSH2 0x4EA JUMP JUMPDEST DUP8 MLOAD RETURNDATASIZE PUSH0 DUP3 RETURNDATACOPY RETURNDATASIZE SWAP1 REVERT JUMPDEST DUP5 CALLVALUE PUSH2 0xC44 JUMPI PUSH2 0x18F2 CALLDATASIZE PUSH2 0x3AA3 JUMP JUMPDEST SWAP2 SWAP1 PUSH0 MSTORE PUSH1 0x7 PUSH1 0x20 MSTORE DUP1 PUSH0 KECCAK256 DUP1 SLOAD DUP4 LT ISZERO PUSH2 0xC44 JUMPI PUSH1 0x20 SWAP3 PUSH2 0x148D SWAP2 PUSH2 0x3C5B JUMP JUMPDEST DUP5 CALLVALUE PUSH2 0xC44 JUMPI PUSH1 0x20 SWAP1 PUSH2 0x1925 CALLDATASIZE PUSH2 0x3AA3 JUMP JUMPDEST SWAP1 PUSH0 MSTORE PUSH1 0xF DUP4 MSTORE DUP2 PUSH0 KECCAK256 SWAP1 PUSH0 MSTORE DUP3 MSTORE DUP1 PUSH0 KECCAK256 SLOAD SWAP1 MLOAD SWAP1 DUP2 MSTORE RETURN JUMPDEST DUP5 CALLVALUE PUSH2 0xC44 JUMPI PUSH1 0x20 SWAP1 PUSH2 0x1951 CALLDATASIZE PUSH2 0x3AA3 JUMP JUMPDEST SWAP1 PUSH0 MSTORE PUSH1 0x11 DUP4 MSTORE DUP2 PUSH0 KECCAK256 SWAP1 PUSH0 MSTORE DUP3 MSTORE DUP1 PUSH0 KECCAK256 SLOAD SWAP1 MLOAD SWAP1 DUP2 MSTORE RETURN JUMPDEST DUP5 DUP4 CALLVALUE PUSH2 0xC44 JUMPI DUP2 PUSH1 0x3 NOT CALLDATASIZE ADD SLT PUSH2 0xC44 JUMPI DUP1 CALLDATALOAD SWAP1 PUSH1 0xFF PUSH2 0x198A PUSH2 0x3AD7 JUMP JUMPDEST AND SWAP3 PUSH1 0x1 DUP5 LT ISZERO DUP1 PUSH2 0x1BB9 JUMPI JUMPDEST PUSH2 0x19A0 SWAP1 PUSH2 0x4435 JUMP JUMPDEST PUSH0 SLOAD DUP2 MLOAD PUSH3 0xB0C809 PUSH1 0xE0 SHL DUP2 MSTORE CALLER DUP5 DUP3 ADD MSTORE SWAP5 SWAP1 PUSH1 0x20 SWAP1 DUP2 SWAP1 DUP8 SWAP1 PUSH1 0x24 SWAP1 DUP3 SWAP1 PUSH1 0x1 PUSH1 0x1 PUSH1 0xA0 SHL SUB AND GAS STATICCALL SWAP6 DUP7 ISZERO PUSH2 0x1BAF JUMPI PUSH0 SWAP7 PUSH2 0x1B80 JUMPI JUMPDEST POP PUSH2 0x19E5 DUP7 ISZERO ISZERO PUSH2 0x3F52 JUMP JUMPDEST DUP5 PUSH0 MSTORE PUSH1 0xB DUP2 MSTORE DUP3 PUSH0 KECCAK256 DUP7 PUSH0 MSTORE DUP2 MSTORE PUSH1 0xFF DUP4 PUSH0 KECCAK256 SLOAD AND ISZERO PUSH2 0x1B3E JUMPI DUP5 PUSH0 MSTORE PUSH1 0xC DUP2 MSTORE DUP3 PUSH0 KECCAK256 DUP7 PUSH0 MSTORE DUP2 MSTORE PUSH2 0x1A25 DUP4 PUSH0 KECCAK256 SLOAD DUP7 PUSH0 MSTORE PUSH1 0xA DUP4 MSTORE DUP5 PUSH0 KECCAK256 PUSH2 0x3D77 JUMP JUMPDEST POP PUSH1 0xFF DUP6 DUP3 ADD SLOAD AND ISZERO PUSH2 0x1AFB JUMPI PUSH1 0x2 ADD PUSH1 0xFF DUP2 SLOAD AND SWAP5 PUSH2 0x1A44 DUP5 PUSH2 0x3AB9 JUMP JUMPDEST PUSH2 0x1A4D DUP5 PUSH2 0x3AB9 JUMP JUMPDEST PUSH2 0x1A56 DUP7 PUSH2 0x3AB9 JUMP JUMPDEST DUP4 DUP7 EQ PUSH2 0x1AC3 JUMPI POP SWAP2 PUSH1 0x60 SWAP4 SWAP2 PUSH2 0x1A98 DUP3 PUSH32 0x2CEAF6828EE12B3A0561FE551F858011031C9F47CF65D027F4462777E3C63A8D SWAP8 SWAP6 PUSH2 0x1A93 DUP3 PUSH2 0x3AB9 JUMP JUMPDEST PUSH2 0x3F96 JUMP JUMPDEST PUSH2 0x1AA1 DUP3 PUSH2 0x3AB9 JUMP JUMPDEST DUP3 MLOAD SWAP4 PUSH2 0x1AAD DUP2 PUSH2 0x3AB9 JUMP JUMPDEST DUP5 MSTORE PUSH2 0x1AB8 DUP3 PUSH2 0x3AB9 JUMP JUMPDEST DUP4 ADD MSTORE TIMESTAMP SWAP1 DUP3 ADD MSTORE LOG3 STOP JUMPDEST DUP5 MLOAD PUSH3 0x461BCD PUSH1 0xE5 SHL DUP2 MSTORE SWAP1 DUP2 ADD DUP4 SWAP1 MSTORE PUSH1 0x12 PUSH1 0x24 DUP3 ADD MSTORE PUSH18 0x105B1C9958591E481D1A1A5CC81B195D995B PUSH1 0x72 SHL PUSH1 0x44 DUP3 ADD MSTORE PUSH1 0x64 SWAP1 REVERT JUMPDEST DUP4 MLOAD PUSH3 0x461BCD PUSH1 0xE5 SHL DUP2 MSTORE DUP1 DUP7 ADD DUP4 SWAP1 MSTORE PUSH1 0x1F PUSH1 0x24 DUP3 ADD MSTORE PUSH32 0x566572696669636174696F6E20686173206265656E2072657472616374656400 PUSH1 0x44 DUP3 ADD MSTORE PUSH1 0x64 SWAP1 REVERT JUMPDEST DUP4 PUSH1 0x64 SWAP2 DUP5 MLOAD SWAP2 PUSH3 0x461BCD PUSH1 0xE5 SHL DUP4 MSTORE DUP3 ADD MSTORE PUSH1 0x19 PUSH1 0x24 DUP3 ADD MSTORE PUSH32 0x4E6F20766572696669636174696F6E20746F206D6F6469667900000000000000 PUSH1 0x44 DUP3 ADD MSTORE REVERT JUMPDEST SWAP1 DUP1 SWAP7 POP DUP2 DUP2 RETURNDATASIZE DUP4 GT PUSH2 0x1BA8 JUMPI JUMPDEST PUSH2 0x1B98 DUP2 DUP4 PUSH2 0x3B57 JUMP JUMPDEST DUP2 ADD SUB SLT PUSH2 0xC44 JUMPI MLOAD SWAP5 DUP7 PUSH2 0x19D9 JUMP JUMPDEST POP RETURNDATASIZE PUSH2 0x1B8E JUMP JUMPDEST DUP4 MLOAD RETURNDATASIZE PUSH0 DUP3 RETURNDATACOPY RETURNDATASIZE SWAP1 REVERT JUMPDEST POP PUSH1 0x3 DUP5 GT ISZERO PUSH2 0x1997 JUMP JUMPDEST DUP5 DUP4 CALLVALUE PUSH2 0xC44 JUMPI PUSH1 0x20 SWAP1 DUP2 PUSH1 0x3 NOT CALLDATASIZE ADD SLT PUSH2 0xC44 JUMPI CALLDATALOAD SWAP1 DUP2 PUSH0 MSTORE PUSH1 0x2 DUP2 MSTORE DUP3 PUSH0 KECCAK256 DUP4 MLOAD DUP1 DUP3 DUP5 DUP3 SWAP5 SLOAD SWAP4 DUP5 DUP2 MSTORE ADD SWAP1 PUSH0 MSTORE DUP5 PUSH0 KECCAK256 SWAP3 PUSH0 JUMPDEST DUP7 DUP3 DUP3 LT PUSH2 0x1CF9 JUMPI POP POP POP PUSH2 0x1C12 SWAP3 POP SUB DUP3 PUSH2 0x3B57 JUMP JUMPDEST PUSH0 SWAP2 PUSH0 JUMPDEST DUP3 MLOAD DUP2 LT ISZERO PUSH2 0x1C60 JUMPI DUP5 PUSH0 MSTORE PUSH1 0x5 DUP3 MSTORE DUP6 PUSH0 KECCAK256 PUSH2 0x1C33 DUP3 DUP6 PUSH2 0x3FE5 JUMP JUMPDEST MLOAD PUSH0 MSTORE DUP3 MSTORE PUSH1 0xFF DUP7 PUSH0 KECCAK256 SLOAD AND PUSH2 0x1C4C JUMPI JUMPDEST PUSH1 0x1 ADD PUSH2 0x1C16 JUMP JUMPDEST SWAP3 PUSH2 0x1C58 PUSH1 0x1 SWAP2 PUSH2 0x3DC9 JUMP JUMPDEST SWAP4 SWAP1 POP PUSH2 0x1C44 JUMP JUMPDEST POP SWAP1 PUSH2 0x1C6B DUP4 PUSH2 0x3FCD JUMP JUMPDEST SWAP3 PUSH2 0x1C78 DUP7 MLOAD SWAP5 DUP6 PUSH2 0x3B57 JUMP JUMPDEST DUP1 DUP5 MSTORE PUSH2 0x1C87 PUSH1 0x1F NOT SWAP2 PUSH2 0x3FCD JUMP JUMPDEST ADD CALLDATASIZE DUP4 DUP6 ADD CALLDATACOPY PUSH0 SWAP2 PUSH0 JUMPDEST DUP3 MLOAD DUP2 LT ISZERO PUSH2 0x1CEC JUMPI PUSH1 0x1 SWAP1 DUP7 PUSH0 MSTORE PUSH1 0x5 DUP4 MSTORE DUP8 PUSH0 KECCAK256 PUSH2 0x1CB1 DUP3 DUP7 PUSH2 0x3FE5 JUMP JUMPDEST MLOAD PUSH0 MSTORE DUP4 MSTORE PUSH1 0xFF DUP9 PUSH0 KECCAK256 SLOAD AND PUSH2 0x1CC8 JUMPI JUMPDEST ADD PUSH2 0x1C91 JUMP JUMPDEST PUSH2 0x1CD2 DUP2 DUP6 PUSH2 0x3FE5 JUMP JUMPDEST MLOAD PUSH2 0x1CE6 PUSH2 0x1CDF DUP8 PUSH2 0x3DC9 JUMP JUMPDEST SWAP7 DUP9 PUSH2 0x3FE5 JUMP JUMPDEST MSTORE PUSH2 0x1CC2 JUMP JUMPDEST DUP7 MLOAD DUP1 PUSH2 0x8B7 DUP8 DUP3 PUSH2 0x3C20 JUMP JUMPDEST DUP6 SLOAD DUP5 MSTORE PUSH1 0x1 SWAP6 DUP7 ADD SWAP6 DUP8 SWAP6 POP SWAP4 ADD SWAP3 ADD PUSH2 0x1BFB JUMP JUMPDEST DUP3 DUP6 CALLVALUE PUSH2 0xC44 JUMPI PUSH1 0x20 CALLDATASIZE PUSH1 0x3 NOT ADD SLT PUSH2 0xC44 JUMPI DUP2 CALLDATALOAD DUP1 PUSH0 MSTORE PUSH1 0x8 PUSH1 0x20 MSTORE PUSH1 0xFF DUP3 PUSH0 KECCAK256 SLOAD AND ISZERO PUSH2 0x1D4D JUMPI PUSH1 0x20 SWAP3 POP PUSH0 MSTORE PUSH1 0x6 DUP3 MSTORE DUP1 PUSH0 KECCAK256 SLOAD SWAP1 MLOAD SWAP1 DUP2 MSTORE RETURN JUMPDEST DUP2 MLOAD PUSH3 0x461BCD PUSH1 0xE5 SHL DUP2 MSTORE PUSH1 0x20 DUP2 DUP6 ADD MSTORE PUSH1 0x13 PUSH1 0x24 DUP3 ADD MSTORE PUSH19 0x12185CDA08191BD95CC81B9BDD08195E1A5CDD PUSH1 0x6A SHL PUSH1 0x44 DUP3 ADD MSTORE PUSH1 0x64 SWAP1 REVERT JUMPDEST DUP3 DUP6 CALLVALUE PUSH2 0xC44 JUMPI PUSH1 0x60 CALLDATASIZE PUSH1 0x3 NOT ADD SLT PUSH2 0xC44 JUMPI DUP2 CALLDATALOAD PUSH1 0x24 SWAP2 DUP3 CALLDATALOAD SWAP1 PUSH2 0x1DA9 PUSH2 0x3AE7 JUMP JUMPDEST PUSH0 SLOAD DUP3 MLOAD PUSH4 0x45ECD02F PUSH1 0xE0 SHL DUP2 MSTORE CALLER DUP9 DUP3 ADD MSTORE SWAP2 SWAP7 PUSH1 0x1 PUSH1 0x1 PUSH1 0xA0 SHL SUB SWAP1 SWAP2 AND SWAP2 PUSH1 0x20 SWAP2 SWAP1 DUP3 DUP2 DUP10 DUP2 DUP8 GAS STATICCALL SWAP1 DUP2 ISZERO PUSH2 0x2138 JUMPI SWAP1 PUSH2 0x1DED SWAP2 PUSH0 SWAP2 PUSH2 0x2142 JUMPI POP PUSH2 0x4011 JUMP JUMPDEST DUP4 MLOAD PUSH4 0x64461AFF PUSH1 0xE1 SHL DUP2 MSTORE DUP2 DUP2 ADD DUP8 DUP2 MSTORE CALLER PUSH1 0x20 DUP3 ADD MSTORE DUP4 SWAP1 DUP3 SWAP1 DUP2 SWAP1 PUSH1 0x40 ADD SUB DUP2 DUP8 GAS STATICCALL SWAP1 DUP2 ISZERO PUSH2 0x2138 JUMPI DUP9 SWAP10 PUSH2 0x1E30 DUP6 SWAP4 PUSH1 0xFF SWAP4 PUSH0 SWAP2 PUSH2 0x211B JUMPI POP PUSH2 0x4054 JUMP JUMPDEST PUSH2 0x1E3B DUP10 ISZERO ISZERO PUSH2 0x40A0 JUMP JUMPDEST PUSH2 0x1E46 DUP9 ISZERO ISZERO PUSH2 0x40EC JUMP JUMPDEST AND SWAP4 PUSH1 0x1 DUP6 LT ISZERO DUP1 PUSH2 0x2110 JUMPI JUMPDEST PUSH2 0x1E5C SWAP1 PUSH2 0x4435 JUMP JUMPDEST DUP6 MLOAD PUSH3 0xB0C809 PUSH1 0xE0 SHL DUP2 MSTORE CALLER DUP5 DUP3 ADD MSTORE SWAP9 DUP10 SWAP2 DUP3 SWAP1 GAS STATICCALL SWAP7 DUP8 ISZERO PUSH2 0x2106 JUMPI PUSH0 SWAP8 PUSH2 0x20D7 JUMPI JUMPDEST POP PUSH2 0x1E8D DUP8 ISZERO ISZERO PUSH2 0x3F52 JUMP JUMPDEST DUP5 PUSH0 MSTORE PUSH1 0x6 DUP3 MSTORE PUSH2 0x1EA2 DUP7 DUP6 PUSH0 KECCAK256 SLOAD EQ PUSH2 0x4138 JUMP JUMPDEST DUP5 PUSH0 MSTORE PUSH1 0xB DUP3 MSTORE DUP4 PUSH0 KECCAK256 DUP8 PUSH0 MSTORE DUP3 MSTORE PUSH1 0xFF DUP5 PUSH0 KECCAK256 SLOAD AND PUSH2 0x2097 JUMPI DUP5 PUSH0 MSTORE PUSH1 0xE DUP3 MSTORE DUP4 PUSH0 KECCAK256 DUP8 PUSH0 MSTORE DUP3 MSTORE PUSH1 0xFF DUP5 PUSH0 KECCAK256 SLOAD AND PUSH2 0x203F JUMPI DUP5 PUSH0 MSTORE PUSH1 0xA DUP3 MSTORE DUP4 PUSH0 KECCAK256 SWAP1 DUP2 SLOAD SWAP2 PUSH2 0x1EED DUP6 PUSH2 0x3AB9 JUMP JUMPDEST DUP6 MLOAD PUSH2 0x1EF8 DUP2 PUSH2 0x3AF7 JUMP JUMPDEST DUP10 DUP2 MSTORE DUP5 DUP2 ADD DUP10 DUP2 MSTORE DUP8 DUP3 ADD SWAP1 PUSH2 0x1F0E DUP9 PUSH2 0x3AB9 JUMP JUMPDEST DUP8 DUP3 MSTORE PUSH1 0x60 DUP4 ADD SWAP3 TIMESTAMP DUP5 MSTORE PUSH1 0x80 DUP2 ADD SWAP5 PUSH1 0x1 DUP7 MSTORE PUSH1 0x1 PUSH1 0x40 SHL DUP9 LT ISZERO PUSH2 0x202D JUMPI DUP8 PUSH2 0x1F3E SWAP2 PUSH1 0x1 DUP3 ADD DUP2 SSTORE PUSH2 0x3D77 JUMP JUMPDEST SWAP15 SWAP1 SWAP15 PUSH2 0x201C JUMPI POP PUSH32 0x9F44978447988782BA02B3E977811604129DC2032D4CFC97AAADACB68BEA9F35 SWAP11 SWAP12 SWAP13 SWAP14 SWAP5 SWAP3 PUSH2 0x1FAF SWAP7 SWAP5 SWAP3 PUSH2 0x1F93 SWAP3 MLOAD DUP8 SSTORE MLOAD PUSH1 0x1 DUP8 ADD SSTORE MLOAD PUSH2 0x1F8A DUP2 PUSH2 0x3AB9 JUMP JUMPDEST PUSH1 0x2 DUP7 ADD PUSH2 0x3F96 JUMP JUMPDEST MLOAD PUSH1 0x3 DUP5 ADD SSTORE MLOAD ISZERO ISZERO SWAP2 ADD SWAP1 PUSH1 0xFF DUP1 NOT DUP4 SLOAD AND SWAP2 ISZERO ISZERO AND OR SWAP1 SSTORE JUMP JUMPDEST DUP6 PUSH0 MSTORE PUSH1 0xB DUP3 MSTORE DUP4 PUSH0 KECCAK256 DUP9 PUSH0 MSTORE DUP3 MSTORE DUP4 PUSH0 KECCAK256 PUSH1 0x1 PUSH1 0xFF NOT DUP3 SLOAD AND OR SWAP1 SSTORE DUP6 PUSH0 MSTORE PUSH1 0xC DUP3 MSTORE DUP4 PUSH0 KECCAK256 DUP9 PUSH0 MSTORE DUP3 MSTORE DUP4 PUSH0 KECCAK256 SSTORE PUSH1 0x13 DUP2 MSTORE PUSH2 0x1FEF DUP6 DUP5 PUSH0 KECCAK256 PUSH2 0x419C JUMP JUMPDEST PUSH2 0x1FFA PUSH1 0x15 SLOAD PUSH2 0x3DC9 JUMP JUMPDEST PUSH1 0x15 SSTORE PUSH2 0x2006 DUP3 PUSH2 0x3AB9 JUMP JUMPDEST DUP3 MLOAD SWAP2 PUSH2 0x2012 DUP2 PUSH2 0x3AB9 JUMP JUMPDEST DUP3 MSTORE TIMESTAMP SWAP1 DUP3 ADD MSTORE LOG4 STOP JUMPDEST PUSH4 0x4E487B71 PUSH1 0xE0 SHL PUSH0 SWAP1 DUP2 MSTORE DUP1 DUP9 MSTORE REVERT JUMPDEST DUP15 PUSH1 0x41 DUP9 PUSH4 0x4E487B71 PUSH1 0xE0 SHL PUSH0 MSTORE MSTORE PUSH0 REVERT JUMPDEST PUSH1 0x2F DUP9 PUSH1 0x84 SWAP4 DUP7 MLOAD SWAP4 PUSH3 0x461BCD PUSH1 0xE5 SHL DUP6 MSTORE DUP5 ADD MSTORE DUP3 ADD MSTORE PUSH32 0x43616E6E6F74207665726966792061206861736820796F752061726520616374 PUSH1 0x44 DUP3 ADD MSTORE PUSH15 0x6976656C7920646973707574696E67 PUSH1 0x88 SHL PUSH1 0x64 DUP3 ADD MSTORE REVERT JUMPDEST PUSH1 0x1A DUP9 PUSH1 0x64 SWAP4 DUP7 MLOAD SWAP4 PUSH3 0x461BCD PUSH1 0xE5 SHL DUP6 MSTORE DUP5 ADD MSTORE DUP3 ADD MSTORE PUSH32 0x416C726561647920766572696669656420746869732068617368000000000000 PUSH1 0x44 DUP3 ADD MSTORE REVERT JUMPDEST SWAP1 SWAP7 POP DUP2 DUP2 DUP2 RETURNDATASIZE DUP4 GT PUSH2 0x20FF JUMPI JUMPDEST PUSH2 0x20EF DUP2 DUP4 PUSH2 0x3B57 JUMP JUMPDEST DUP2 ADD SUB SLT PUSH2 0xC44 JUMPI MLOAD SWAP6 DUP9 PUSH2 0x1E81 JUMP JUMPDEST POP RETURNDATASIZE PUSH2 0x20E5 JUMP JUMPDEST DUP5 MLOAD RETURNDATASIZE PUSH0 DUP3 RETURNDATACOPY RETURNDATASIZE SWAP1 REVERT JUMPDEST POP PUSH1 0x3 DUP6 GT ISZERO PUSH2 0x1E53 JUMP JUMPDEST PUSH2 0x2132 SWAP2 POP DUP6 RETURNDATASIZE DUP8 GT PUSH2 0x824 JUMPI PUSH2 0x816 DUP2 DUP4 PUSH2 0x3B57 JUMP JUMPDEST DUP14 PUSH2 0x52D JUMP JUMPDEST DUP6 MLOAD RETURNDATASIZE PUSH0 DUP3 RETURNDATACOPY RETURNDATASIZE SWAP1 REVERT JUMPDEST PUSH2 0x18D3 SWAP2 POP DUP5 RETURNDATASIZE DUP7 GT PUSH2 0x824 JUMPI PUSH2 0x816 DUP2 DUP4 PUSH2 0x3B57 JUMP JUMPDEST DUP5 CALLVALUE PUSH2 0xC44 JUMPI PUSH1 0x20 SWAP1 PUSH2 0x216B CALLDATASIZE PUSH2 0x3AA3 JUMP JUMPDEST SWAP1 PUSH0 MSTORE PUSH1 0xE DUP4 MSTORE DUP2 PUSH0 KECCAK256 SWAP1 PUSH0 MSTORE DUP3 MSTORE PUSH1 0xFF DUP2 PUSH0 KECCAK256 SLOAD AND SWAP1 MLOAD SWAP1 ISZERO ISZERO DUP2 MSTORE RETURN JUMPDEST DUP5 CALLVALUE PUSH2 0xC44 JUMPI PUSH1 0x20 CALLDATASIZE PUSH1 0x3 NOT ADD SLT PUSH2 0xC44 JUMPI PUSH1 0x20 SWAP1 PUSH2 0x21A7 PUSH2 0x3C0A JUMP JUMPDEST PUSH1 0x1 SLOAD SWAP2 SWAP1 PUSH1 0x1 PUSH1 0x1 PUSH1 0xA0 SHL SUB DUP1 DUP5 AND SWAP2 PUSH32 0x38DF5FA0F7FEF0D515CA1F5388CB5790AC5885D5FCA8D05D9F943E563C33A4B3 SWAP2 SWAP1 PUSH2 0x21E6 CALLER DUP6 EQ PUSH2 0x3D90 JUMP JUMPDEST AND SWAP5 DUP6 SWAP4 PUSH2 0x21F5 DUP6 ISZERO ISZERO PUSH2 0x43F7 JUMP JUMPDEST MLOAD TIMESTAMP DUP2 MSTORE LOG3 PUSH1 0x1 PUSH1 0x1 PUSH1 0xA0 SHL SUB NOT AND OR PUSH1 0x1 SSTORE STOP JUMPDEST DUP5 CALLVALUE PUSH2 0xC44 JUMPI PUSH1 0x20 SWAP1 PUSH2 0x221C CALLDATASIZE PUSH2 0x3AA3 JUMP JUMPDEST SWAP1 PUSH0 MSTORE PUSH1 0xC DUP4 MSTORE DUP2 PUSH0 KECCAK256 SWAP1 PUSH0 MSTORE DUP3 MSTORE DUP1 PUSH0 KECCAK256 SLOAD SWAP1 MLOAD SWAP1 DUP2 MSTORE RETURN JUMPDEST DUP3 DUP6 CALLVALUE PUSH2 0xC44 JUMPI PUSH2 0x2246 CALLDATASIZE PUSH2 0x3AA3 JUMP JUMPDEST SWAP1 PUSH2 0x225C PUSH1 0x1 DUP1 PUSH1 0xA0 SHL SUB PUSH1 0x1 SLOAD AND CALLER EQ PUSH2 0x3D90 JUMP JUMPDEST DUP1 PUSH0 MSTORE PUSH1 0x20 PUSH1 0x11 DUP2 MSTORE DUP4 PUSH0 KECCAK256 DUP4 PUSH0 MSTORE DUP2 MSTORE DUP4 PUSH0 KECCAK256 SLOAD SWAP4 DUP5 ISZERO PUSH2 0x2357 JUMPI PUSH0 NOT SWAP5 DUP1 DUP7 ADD SWAP1 DUP2 GT PUSH2 0x2344 JUMPI PUSH2 0x2298 SWAP1 DUP5 PUSH0 MSTORE PUSH1 0x10 DUP5 MSTORE DUP3 PUSH0 KECCAK256 PUSH2 0x3D77 JUMP JUMPDEST POP SWAP5 DUP7 DUP7 ADD DUP1 SLOAD SWAP7 PUSH1 0xFF DUP9 AND ISZERO PUSH2 0x230A JUMPI PUSH1 0x1 ADD SLOAD SWAP7 PUSH1 0xFF NOT AND SWAP1 SSTORE DUP4 PUSH0 MSTORE PUSH1 0x12 DUP4 MSTORE DUP2 PUSH0 KECCAK256 SWAP1 DUP2 SLOAD DUP1 ISZERO PUSH2 0x22F7 JUMPI PUSH32 0x147D74BFB2412C7ED232EABEB9F52EC3783A909E5C2A94B9DA2AF7F2BDB18AE6 SWAP6 SWAP7 SWAP8 SWAP9 POP ADD SWAP1 SSTORE MLOAD TIMESTAMP DUP2 MSTORE LOG4 STOP JUMPDEST PUSH1 0x11 DUP10 PUSH4 0x4E487B71 PUSH1 0xE0 SHL PUSH0 MSTORE MSTORE PUSH1 0x24 PUSH0 REVERT JUMPDEST DUP4 MLOAD PUSH3 0x461BCD PUSH1 0xE5 SHL DUP2 MSTORE DUP1 DUP11 ADD DUP7 SWAP1 MSTORE PUSH1 0x14 PUSH1 0x24 DUP3 ADD MSTORE PUSH20 0x119B1859C8185B1C9958591E481C995D9BDAD959 PUSH1 0x62 SHL PUSH1 0x44 DUP3 ADD MSTORE PUSH1 0x64 SWAP1 REVERT JUMPDEST PUSH1 0x11 DUP8 PUSH4 0x4E487B71 PUSH1 0xE0 SHL PUSH0 MSTORE MSTORE PUSH1 0x24 PUSH0 REVERT JUMPDEST MLOAD PUSH3 0x461BCD PUSH1 0xE5 SHL DUP2 MSTORE DUP1 DUP7 ADD SWAP2 SWAP1 SWAP2 MSTORE PUSH1 0xE PUSH1 0x24 DUP3 ADD MSTORE PUSH14 0x4E6F20666C616720657869737473 PUSH1 0x90 SHL PUSH1 0x44 DUP3 ADD MSTORE PUSH1 0x64 SWAP1 REVERT JUMPDEST DUP5 CALLVALUE PUSH2 0xC44 JUMPI PUSH1 0x20 SWAP1 PUSH2 0x239D CALLDATASIZE PUSH2 0x3AA3 JUMP JUMPDEST PUSH0 DUP3 DUP2 MSTORE PUSH1 0x3 DUP6 MSTORE DUP4 DUP2 KECCAK256 DUP3 DUP3 MSTORE DUP6 MSTORE DUP4 SWAP1 KECCAK256 SLOAD PUSH1 0xFF AND SWAP3 SWAP2 DUP4 PUSH2 0x23C6 JUMPI JUMPDEST POP POP MLOAD SWAP1 ISZERO ISZERO DUP2 MSTORE RETURN JUMPDEST SWAP1 SWAP2 SWAP3 POP PUSH0 MSTORE PUSH1 0x5 DUP4 MSTORE DUP2 PUSH0 KECCAK256 SWAP1 PUSH0 MSTORE DUP3 MSTORE PUSH1 0xFF DUP2 PUSH0 KECCAK256 SLOAD AND SWAP1 DUP4 DUP1 PUSH2 0x23BC JUMP JUMPDEST DUP3 DUP6 CALLVALUE PUSH2 0xC44 JUMPI PUSH1 0x20 CALLDATASIZE PUSH1 0x3 NOT ADD SLT PUSH2 0xC44 JUMPI PUSH1 0x20 SWAP2 CALLDATALOAD PUSH0 MSTORE PUSH1 0x12 DUP3 MSTORE DUP1 PUSH0 KECCAK256 SLOAD ISZERO ISZERO SWAP1 MLOAD SWAP1 DUP2 MSTORE RETURN JUMPDEST DUP5 DUP4 CALLVALUE PUSH2 0xC44 JUMPI PUSH2 0x2421 CALLDATASIZE PUSH2 0x3AA3 JUMP JUMPDEST PUSH0 SLOAD DUP5 MLOAD PUSH4 0x45ECD02F PUSH1 0xE0 SHL DUP2 MSTORE CALLER DUP6 DUP3 ADD MSTORE SWAP3 SWAP5 SWAP2 SWAP3 PUSH1 0x20 SWAP3 SWAP2 PUSH1 0x1 PUSH1 0x1 PUSH1 0xA0 SHL SUB AND SWAP1 DUP4 DUP2 PUSH1 0x24 DUP2 DUP6 GAS STATICCALL SWAP1 DUP2 ISZERO PUSH2 0x1BAF JUMPI SWAP1 PUSH2 0x2466 SWAP2 PUSH0 SWAP2 PUSH2 0x26A5 JUMPI POP PUSH2 0x4011 JUMP JUMPDEST DUP2 MLOAD PUSH3 0x28CF15 PUSH1 0xE5 SHL DUP2 MSTORE DUP6 DUP2 ADD DUP8 DUP2 MSTORE CALLER PUSH1 0x20 DUP3 ADD MSTORE SWAP1 SWAP2 DUP5 SWAP2 DUP4 SWAP2 SWAP1 DUP3 SWAP1 DUP2 SWAP1 PUSH1 0x40 ADD SUB SWAP2 GAS STATICCALL SWAP1 DUP2 ISZERO PUSH2 0x269B JUMPI PUSH0 SWAP2 PUSH2 0x267E JUMPI JUMPDEST POP ISZERO PUSH2 0x2647 JUMPI DUP3 PUSH0 MSTORE PUSH1 0x6 DUP3 MSTORE DUP5 DUP2 PUSH0 KECCAK256 SLOAD SUB PUSH2 0x260F JUMPI DUP3 PUSH0 MSTORE PUSH1 0x8 DUP1 DUP4 MSTORE PUSH1 0xFF SWAP3 PUSH2 0x24CE PUSH1 0xFF DUP5 PUSH0 KECCAK256 SLOAD AND PUSH2 0x43B7 JUMP JUMPDEST PUSH0 SWAP5 DUP8 PUSH0 MSTORE PUSH1 0x7 DUP3 MSTORE DUP4 PUSH0 KECCAK256 SWAP8 DUP5 MLOAD DUP1 DUP11 DUP6 DUP3 SWAP13 SLOAD SWAP4 DUP5 DUP2 MSTORE ADD SWAP1 PUSH0 MSTORE DUP6 PUSH0 KECCAK256 SWAP3 PUSH0 JUMPDEST DUP8 DUP3 DUP3 LT PUSH2 0x25F9 JUMPI POP POP POP PUSH2 0x2508 SWAP3 POP SUB DUP11 PUSH2 0x3B57 JUMP JUMPDEST PUSH0 JUMPDEST DUP10 MLOAD DUP2 LT ISZERO PUSH2 0x254A JUMPI PUSH2 0x251D DUP2 DUP12 PUSH2 0x3FE5 JUMP JUMPDEST MLOAD PUSH0 MSTORE DUP5 DUP5 MSTORE DUP7 DUP7 PUSH0 KECCAK256 SLOAD AND PUSH2 0x2536 JUMPI JUMPDEST PUSH1 0x1 ADD PUSH2 0x250A JUMP JUMPDEST SWAP7 PUSH2 0x2542 PUSH1 0x1 SWAP2 PUSH2 0x3DC9 JUMP JUMPDEST SWAP8 SWAP1 POP PUSH2 0x252E JUMP JUMPDEST POP DUP3 DUP6 DUP10 PUSH1 0x1 DUP11 GT ISZERO PUSH2 0x259D JUMPI POP PUSH0 DUP5 DUP2 MSTORE PUSH1 0x8 DUP4 MSTORE DUP2 DUP2 KECCAK256 DUP1 SLOAD PUSH1 0xFF NOT AND SWAP1 SSTORE PUSH1 0x6 DUP4 MSTORE DUP2 DUP2 KECCAK256 SSTORE MLOAD TIMESTAMP DUP2 MSTORE PUSH32 0x6640C4CAE266BFAFEE4B79AE3B57E1391D8CF826D2B9781AA698E99CA7157C7E SWAP2 SWAP1 LOG3 STOP JUMPDEST DUP3 PUSH1 0x84 SWAP3 MLOAD SWAP2 PUSH3 0x461BCD PUSH1 0xE5 SHL DUP4 MSTORE DUP3 ADD MSTORE PUSH1 0x32 PUSH1 0x24 DUP3 ADD MSTORE PUSH32 0x43616E6E6F74207265747261637420746865206C617374206163746976652076 PUSH1 0x44 DUP3 ADD MSTORE PUSH18 0x195C9CDA5BDB881BD98818481C9958DBDC99 PUSH1 0x72 SHL PUSH1 0x64 DUP3 ADD MSTORE REVERT JUMPDEST DUP6 SLOAD DUP5 MSTORE PUSH1 0x1 SWAP6 DUP7 ADD SWAP6 DUP16 SWAP6 POP SWAP4 ADD SWAP3 ADD PUSH2 0x24F1 JUMP JUMPDEST MLOAD PUSH3 0x461BCD PUSH1 0xE5 SHL DUP2 MSTORE SWAP3 DUP4 ADD MSTORE POP PUSH1 0x14 PUSH1 0x24 DUP3 ADD MSTORE PUSH20 0x90C2E6D05AA4CAC6DEE4C840DAD2E6DAC2E8C6D PUSH1 0x63 SHL PUSH1 0x44 DUP3 ADD MSTORE PUSH1 0x64 SWAP1 REVERT JUMPDEST MLOAD PUSH3 0x461BCD PUSH1 0xE5 SHL DUP2 MSTORE SWAP3 DUP4 ADD MSTORE POP PUSH1 0x13 PUSH1 0x24 DUP3 ADD MSTORE PUSH19 0x27B7363C9037BBB732B91037B91030B236B4B7 PUSH1 0x69 SHL PUSH1 0x44 DUP3 ADD MSTORE PUSH1 0x64 SWAP1 REVERT JUMPDEST PUSH2 0x2695 SWAP2 POP DUP4 RETURNDATASIZE DUP6 GT PUSH2 0x824 JUMPI PUSH2 0x816 DUP2 DUP4 PUSH2 0x3B57 JUMP JUMPDEST DUP7 PUSH2 0x249D JUMP JUMPDEST DUP3 MLOAD RETURNDATASIZE PUSH0 DUP3 RETURNDATACOPY RETURNDATASIZE SWAP1 REVERT JUMPDEST PUSH2 0x26BC SWAP2 POP DUP6 RETURNDATASIZE DUP8 GT PUSH2 0x824 JUMPI PUSH2 0x816 DUP2 DUP4 PUSH2 0x3B57 JUMP JUMPDEST DUP9 PUSH2 0x4EA JUMP JUMPDEST DUP3 DUP6 CALLVALUE PUSH2 0xC44 JUMPI PUSH0 CALLDATASIZE PUSH1 0x3 NOT ADD SLT PUSH2 0xC44 JUMPI PUSH32 0x0 PUSH1 0x1 PUSH1 0x1 PUSH1 0xA0 SHL SUB AND ADDRESS SUB PUSH2 0x272D JUMPI PUSH1 0x20 SWAP1 MLOAD PUSH32 0x360894A13BA1A3210667C828492DB98DCA3E2076CC3735A920A3CA505D382BBC DUP2 MSTORE RETURN JUMPDEST MLOAD PUSH4 0x703E46DD PUSH1 0xE1 SHL DUP2 MSTORE REVERT JUMPDEST DUP3 DUP6 CALLVALUE PUSH2 0xC44 JUMPI PUSH1 0x20 CALLDATASIZE PUSH1 0x3 NOT ADD SLT PUSH2 0xC44 JUMPI PUSH1 0x20 SWAP2 CALLDATALOAD PUSH0 MSTORE PUSH1 0x6 DUP3 MSTORE DUP1 PUSH0 KECCAK256 SLOAD SWAP1 MLOAD SWAP1 DUP2 MSTORE RETURN JUMPDEST DUP5 DUP4 DUP2 PUSH1 0x3 NOT CALLDATASIZE ADD SLT PUSH2 0xC44 JUMPI PUSH2 0x2777 PUSH2 0x3C0A JUMP JUMPDEST SWAP2 PUSH1 0x24 CALLDATALOAD PUSH8 0xFFFFFFFFFFFFFFFF DUP2 GT PUSH2 0xC44 JUMPI CALLDATASIZE PUSH1 0x23 DUP3 ADD SLT ISZERO PUSH2 0xC44 JUMPI PUSH2 0x27A8 SWAP1 CALLDATASIZE SWAP1 PUSH1 0x24 DUP2 DUP7 ADD CALLDATALOAD SWAP2 ADD PUSH2 0x3B79 JUMP JUMPDEST SWAP1 PUSH1 0x1 PUSH1 0x1 PUSH1 0xA0 SHL SUB PUSH32 0x0 DUP2 AND ADDRESS DUP2 EQ SWAP1 DUP2 ISZERO PUSH2 0x2933 JUMPI JUMPDEST POP PUSH2 0x2923 JUMPI PUSH2 0x27F3 DUP2 PUSH1 0x1 SLOAD AND CALLER EQ PUSH2 0x3D90 JUMP JUMPDEST DUP5 AND SWAP2 DUP2 MLOAD SWAP5 PUSH4 0x52D1902D PUSH1 0xE0 SHL DUP7 MSTORE PUSH1 0x20 DUP7 DUP7 DUP2 DUP8 GAS STATICCALL PUSH0 SWAP7 DUP2 PUSH2 0x28EF JUMPI JUMPDEST POP PUSH2 0x282F JUMPI POP POP MLOAD PUSH4 0x4C9C8CE3 PUSH1 0xE0 SHL DUP2 MSTORE SWAP2 DUP3 ADD MSTORE PUSH1 0x24 SWAP2 POP REVERT JUMPDEST DUP4 DUP6 SWAP4 DUP8 PUSH32 0x360894A13BA1A3210667C828492DB98DCA3E2076CC3735A920A3CA505D382BBC SWAP1 DUP2 DUP2 SUB PUSH2 0x28D9 JUMPI POP DUP4 EXTCODESIZE ISZERO PUSH2 0x28C2 JUMPI DUP1 SLOAD PUSH1 0x1 PUSH1 0x1 PUSH1 0xA0 SHL SUB NOT AND DUP4 OR SWAP1 SSTORE MLOAD SWAP1 PUSH32 0xBC7CD75A20EE27FD9ADEBAB32041F755214DBC6BFFA90CC0225B39DA2E5C2D3B PUSH0 DUP1 LOG2 DUP3 MLOAD ISZERO PUSH2 0x28AC JUMPI POP PUSH2 0x181F SWAP3 POP PUSH2 0x45B3 JUMP JUMPDEST SWAP2 POP POP CALLVALUE PUSH2 0x28B6 JUMPI STOP JUMPDEST PUSH4 0xB398979F PUSH1 0xE0 SHL DUP2 MSTORE REVERT JUMPDEST DUP2 MLOAD PUSH4 0x4C9C8CE3 PUSH1 0xE0 SHL DUP2 MSTORE DUP1 DUP8 ADD DUP5 SWAP1 MSTORE PUSH1 0x24 SWAP1 REVERT JUMPDEST DUP7 PUSH1 0x24 SWAP2 DUP5 MLOAD SWAP2 PUSH4 0x2A875269 PUSH1 0xE2 SHL DUP4 MSTORE DUP3 ADD MSTORE REVERT JUMPDEST SWAP1 SWAP7 POP PUSH1 0x20 DUP2 RETURNDATASIZE PUSH1 0x20 GT PUSH2 0x291B JUMPI JUMPDEST DUP2 PUSH2 0x290B PUSH1 0x20 SWAP4 DUP4 PUSH2 0x3B57 JUMP JUMPDEST DUP2 ADD SUB SLT PUSH2 0xC44 JUMPI MLOAD SWAP6 DUP8 PUSH2 0x2813 JUMP JUMPDEST RETURNDATASIZE SWAP2 POP PUSH2 0x28FE JUMP JUMPDEST DUP2 MLOAD PUSH4 0x703E46DD PUSH1 0xE1 SHL DUP2 MSTORE DUP5 SWAP1 REVERT JUMPDEST SWAP1 POP DUP2 PUSH32 0x360894A13BA1A3210667C828492DB98DCA3E2076CC3735A920A3CA505D382BBC SLOAD AND EQ ISZERO DUP7 PUSH2 0x27DF JUMP JUMPDEST DUP5 DUP4 CALLVALUE PUSH2 0xC44 JUMPI PUSH1 0x20 DUP1 PUSH1 0x3 NOT CALLDATASIZE ADD SLT PUSH2 0xC44 JUMPI PUSH0 SLOAD DUP4 MLOAD PUSH3 0xB0C809 PUSH1 0xE0 SHL DUP2 MSTORE CALLER DUP2 DUP6 ADD MSTORE SWAP4 DUP4 CALLDATALOAD SWAP4 SWAP1 SWAP2 DUP4 SWAP1 DUP7 SWAP1 PUSH1 0x24 SWAP1 DUP3 SWAP1 PUSH1 0x1 PUSH1 0x1 PUSH1 0xA0 SHL SUB AND GAS STATICCALL SWAP5 DUP6 ISZERO PUSH2 0x269B JUMPI PUSH0 SWAP6 PUSH2 0x2AA4 JUMPI JUMPDEST POP PUSH2 0x29BB DUP6 ISZERO ISZERO PUSH2 0x3F52 JUMP JUMPDEST DUP4 PUSH0 MSTORE PUSH1 0xB DUP4 MSTORE DUP2 PUSH0 KECCAK256 DUP6 PUSH0 MSTORE DUP4 MSTORE PUSH1 0xFF DUP3 PUSH0 KECCAK256 SLOAD AND ISZERO PUSH2 0x2A63 JUMPI SWAP1 PUSH32 0x7EC0E3CA85E47C77A1ED99FF37570AB8878CB21CED66BAEAD633BECFF47A8F0E SWAP3 SWAP2 DUP5 PUSH0 MSTORE PUSH1 0xC DUP4 MSTORE DUP2 PUSH0 KECCAK256 DUP7 PUSH0 MSTORE DUP4 MSTORE PUSH2 0x2A38 DUP3 PUSH0 KECCAK256 SLOAD DUP7 PUSH0 MSTORE PUSH1 0xA DUP6 MSTORE PUSH2 0x2A29 PUSH1 0xFF DUP5 PUSH2 0xB9F DUP5 DUP9 PUSH0 KECCAK256 PUSH2 0x3D77 JUMP JUMPDEST DUP7 PUSH0 MSTORE PUSH1 0xA DUP6 MSTORE DUP4 PUSH0 KECCAK256 PUSH2 0x3D77 JUMP JUMPDEST POP ADD PUSH1 0xFF NOT SWAP1 DUP2 DUP2 SLOAD AND SWAP1 SSTORE DUP5 PUSH0 MSTORE PUSH1 0xB DUP4 MSTORE DUP2 PUSH0 KECCAK256 DUP7 PUSH0 MSTORE DUP4 MSTORE DUP2 PUSH0 KECCAK256 SWAP1 DUP2 SLOAD AND SWAP1 SSTORE MLOAD TIMESTAMP DUP2 MSTORE LOG3 STOP JUMPDEST DUP3 PUSH1 0x64 SWAP3 MLOAD SWAP2 PUSH3 0x461BCD PUSH1 0xE5 SHL DUP4 MSTORE DUP3 ADD MSTORE PUSH1 0x1A PUSH1 0x24 DUP3 ADD MSTORE PUSH32 0x4E6F20766572696669636174696F6E20746F2072657472616374000000000000 PUSH1 0x44 DUP3 ADD MSTORE REVERT JUMPDEST SWAP1 SWAP5 POP DUP3 DUP2 DUP2 RETURNDATASIZE DUP4 GT PUSH2 0x2ACC JUMPI JUMPDEST PUSH2 0x2ABC DUP2 DUP4 PUSH2 0x3B57 JUMP JUMPDEST DUP2 ADD SUB SLT PUSH2 0xC44 JUMPI MLOAD SWAP4 DUP6 PUSH2 0x29AF JUMP JUMPDEST POP RETURNDATASIZE PUSH2 0x2AB2 JUMP JUMPDEST DUP3 DUP6 CALLVALUE PUSH2 0xC44 JUMPI PUSH2 0x2AE3 CALLDATASIZE PUSH2 0x3AA3 JUMP JUMPDEST PUSH0 SLOAD DUP4 MLOAD PUSH4 0x45ECD02F PUSH1 0xE0 SHL DUP2 MSTORE CALLER DUP7 DUP3 ADD MSTORE SWAP3 SWAP4 PUSH1 0x20 SWAP4 SWAP1 SWAP3 SWAP2 PUSH1 0x1 PUSH1 0x1 PUSH1 0xA0 SHL SUB AND SWAP1 DUP5 DUP2 PUSH1 0x24 DUP2 DUP6 GAS STATICCALL SWAP1 DUP2 ISZERO PUSH2 0x2106 JUMPI SWAP1 PUSH2 0x2B28 SWAP2 PUSH0 SWAP2 PUSH2 0x2C7E JUMPI POP PUSH2 0x4011 JUMP JUMPDEST DUP3 MLOAD PUSH4 0x64461AFF PUSH1 0xE1 SHL DUP2 MSTORE DUP7 DUP2 ADD DUP7 DUP2 MSTORE CALLER PUSH1 0x20 DUP3 ADD MSTORE SWAP1 SWAP2 DUP6 SWAP2 DUP4 SWAP2 SWAP1 DUP3 SWAP1 DUP2 SWAP1 PUSH1 0x40 ADD SUB SWAP2 GAS STATICCALL SWAP1 DUP2 ISZERO PUSH2 0x1BAF JUMPI PUSH2 0x2B6E SWAP3 SWAP2 PUSH2 0x1758 SWAP2 PUSH0 SWAP2 PUSH2 0x2C61 JUMPI POP PUSH2 0x4054 JUMP JUMPDEST SWAP4 DUP4 PUSH0 MSTORE PUSH1 0x3 DUP4 MSTORE DUP2 PUSH0 KECCAK256 DUP6 PUSH0 MSTORE DUP4 MSTORE PUSH1 0xFF DUP3 PUSH0 KECCAK256 SLOAD AND ISZERO PUSH2 0x2C20 JUMPI DUP4 PUSH0 MSTORE PUSH1 0x5 DUP4 MSTORE DUP2 PUSH0 KECCAK256 DUP6 PUSH0 MSTORE DUP4 MSTORE PUSH1 0xFF DUP3 PUSH0 KECCAK256 SLOAD AND ISZERO PUSH2 0x2BEA JUMPI POP SWAP1 PUSH32 0x8AEFA795CCFDF03E334BD6A4FE20E8C4F5D5202E0320DC267FDE988BD5F1674F SWAP2 DUP4 PUSH0 MSTORE PUSH1 0x5 DUP3 MSTORE DUP1 PUSH0 KECCAK256 DUP6 PUSH0 MSTORE DUP3 MSTORE DUP1 PUSH0 KECCAK256 PUSH1 0xFF NOT DUP2 SLOAD AND SWAP1 SSTORE MLOAD TIMESTAMP DUP2 MSTORE LOG3 STOP JUMPDEST DUP3 PUSH1 0x64 SWAP3 MLOAD SWAP2 PUSH3 0x461BCD PUSH1 0xE5 SHL DUP4 MSTORE DUP3 ADD MSTORE PUSH1 0x12 PUSH1 0x24 DUP3 ADD MSTORE PUSH18 0x105B1C9958591E481D5B985B98DA1BDC9959 PUSH1 0x72 SHL PUSH1 0x44 DUP3 ADD MSTORE REVERT JUMPDEST DUP3 PUSH1 0x64 SWAP3 MLOAD SWAP2 PUSH3 0x461BCD PUSH1 0xE5 SHL DUP4 MSTORE DUP3 ADD MSTORE PUSH1 0x1C PUSH1 0x24 DUP3 ADD MSTORE PUSH32 0x4E6F742061207375626A656374206F662074686973207265636F726400000000 PUSH1 0x44 DUP3 ADD MSTORE REVERT JUMPDEST PUSH2 0x2C78 SWAP2 POP DUP7 RETURNDATASIZE DUP9 GT PUSH2 0x824 JUMPI PUSH2 0x816 DUP2 DUP4 PUSH2 0x3B57 JUMP JUMPDEST DUP9 PUSH2 0x52D JUMP JUMPDEST PUSH2 0x26BC SWAP2 POP DUP7 RETURNDATASIZE DUP9 GT PUSH2 0x824 JUMPI PUSH2 0x816 DUP2 DUP4 PUSH2 0x3B57 JUMP JUMPDEST DUP5 SWAP1 CALLVALUE PUSH2 0xC44 JUMPI PUSH2 0x155A PUSH2 0x1568 PUSH2 0x2CB4 PUSH2 0x2CAE CALLDATASIZE PUSH2 0x3AA3 JUMP JUMPDEST SWAP1 PUSH2 0x42F6 JUMP JUMPDEST SWAP7 SWAP6 SWAP9 SWAP4 SWAP1 SWAP8 SWAP3 SWAP2 SWAP5 SWAP10 DUP1 MLOAD SWAP11 DUP12 SWAP11 ISZERO ISZERO DUP12 MSTORE PUSH1 0x20 DUP12 ADD MSTORE PUSH2 0x2CD5 DUP3 PUSH2 0x3AB9 JUMP JUMPDEST DUP10 ADD MSTORE PUSH1 0x60 DUP9 ADD SWAP1 PUSH2 0x3BBF JUMP JUMPDEST DUP3 DUP6 CALLVALUE PUSH2 0xC44 JUMPI PUSH1 0x20 CALLDATASIZE PUSH1 0x3 NOT ADD SLT PUSH2 0xC44 JUMPI PUSH1 0x20 SWAP2 CALLDATALOAD PUSH0 MSTORE PUSH1 0x8 DUP3 MSTORE PUSH1 0xFF DUP2 PUSH0 KECCAK256 SLOAD AND SWAP1 MLOAD SWAP1 ISZERO ISZERO DUP2 MSTORE RETURN JUMPDEST DUP5 CALLVALUE PUSH2 0xC44 JUMPI PUSH1 0xA0 SWAP1 PUSH2 0x2D2A PUSH2 0x2D24 CALLDATASIZE PUSH2 0x3AA3 JUMP JUMPDEST SWAP1 PUSH2 0x4211 JUMP JUMPDEST SWAP4 SWAP5 SWAP1 SWAP3 DUP2 MLOAD SWAP6 ISZERO ISZERO DUP7 MSTORE ISZERO ISZERO PUSH1 0x20 DUP7 ADD MSTORE DUP5 ADD MSTORE PUSH1 0x60 DUP4 ADD MSTORE PUSH1 0x80 DUP3 ADD MSTORE RETURN JUMPDEST DUP3 DUP6 CALLVALUE PUSH2 0xC44 JUMPI PUSH1 0xA0 CALLDATASIZE PUSH1 0x3 NOT ADD SLT PUSH2 0xC44 JUMPI DUP2 CALLDATALOAD SWAP1 PUSH1 0x24 SWAP3 DUP4 CALLDATALOAD SWAP2 PUSH2 0x2D6F PUSH2 0x3AE7 JUMP JUMPDEST PUSH1 0x64 CALLDATALOAD SWAP1 PUSH1 0xFF DUP3 AND DUP1 SWAP3 SUB PUSH2 0xC44 JUMPI PUSH8 0xFFFFFFFFFFFFFFFF SWAP4 PUSH1 0x84 CALLDATALOAD DUP6 DUP2 GT PUSH2 0xC44 JUMPI CALLDATASIZE PUSH1 0x23 DUP3 ADD SLT ISZERO PUSH2 0xC44 JUMPI PUSH2 0x2DAF SWAP1 CALLDATASIZE SWAP1 DUP11 DUP2 DUP6 ADD CALLDATALOAD SWAP2 ADD PUSH2 0x3B79 JUMP JUMPDEST SWAP5 PUSH1 0x1 DUP1 PUSH1 0xA0 SHL SUB PUSH0 SLOAD AND SWAP2 DUP6 MLOAD SWAP4 PUSH4 0x45ECD02F PUSH1 0xE0 SHL DUP6 MSTORE CALLER DUP3 DUP7 ADD MSTORE PUSH1 0x20 SWAP5 DUP6 DUP2 DUP14 DUP2 DUP9 GAS STATICCALL SWAP1 DUP2 ISZERO PUSH2 0x32D2 JUMPI SWAP1 PUSH2 0x2DEF SWAP2 PUSH0 SWAP2 PUSH2 0x3304 JUMPI POP PUSH2 0x4011 JUMP JUMPDEST DUP7 MLOAD PUSH4 0x64461AFF PUSH1 0xE1 SHL DUP2 MSTORE DUP3 DUP2 ADD DUP12 DUP2 MSTORE CALLER PUSH1 0x20 DUP3 ADD MSTORE DUP7 SWAP1 DUP3 SWAP1 DUP2 SWAP1 PUSH1 0x40 ADD SUB DUP2 DUP9 GAS STATICCALL SWAP1 DUP2 ISZERO PUSH2 0x32D2 JUMPI SWAP2 PUSH2 0x2E34 PUSH1 0xFF SWAP3 DUP15 SWAP8 SWAP7 SWAP6 SWAP5 PUSH0 SWAP2 PUSH2 0x32E7 JUMPI POP PUSH2 0x4054 JUMP JUMPDEST PUSH2 0x2E3F DUP13 ISZERO ISZERO PUSH2 0x40A0 JUMP JUMPDEST PUSH2 0x2E4A DUP12 ISZERO ISZERO PUSH2 0x40EC JUMP JUMPDEST AND SWAP8 DUP6 PUSH1 0x1 SWAP5 DUP6 DUP12 LT ISZERO DUP1 PUSH2 0x32DC JUMPI JUMPDEST PUSH2 0x2E63 SWAP1 PUSH2 0x3EC3 JUMP JUMPDEST PUSH2 0x2E70 PUSH1 0x5 DUP11 GT ISZERO PUSH2 0x3F06 JUMP JUMPDEST DUP10 MLOAD PUSH3 0xB0C809 PUSH1 0xE0 SHL DUP2 MSTORE CALLER DUP6 DUP3 ADD MSTORE SWAP14 DUP15 SWAP2 DUP3 SWAP1 GAS STATICCALL SWAP12 DUP13 ISZERO PUSH2 0x32D2 JUMPI PUSH0 SWAP13 PUSH2 0x32A3 JUMPI JUMPDEST POP PUSH2 0x2EA1 DUP13 ISZERO ISZERO PUSH2 0x3F52 JUMP JUMPDEST DUP10 PUSH0 MSTORE PUSH1 0x6 DUP7 MSTORE PUSH2 0x2EB6 DUP12 DUP10 PUSH0 KECCAK256 SLOAD EQ PUSH2 0x4138 JUMP JUMPDEST DUP10 PUSH0 MSTORE PUSH1 0xE DUP7 MSTORE DUP8 PUSH0 KECCAK256 DUP13 PUSH0 MSTORE DUP7 MSTORE PUSH1 0xFF DUP9 PUSH0 KECCAK256 SLOAD AND PUSH2 0x3261 JUMPI DUP10 PUSH0 MSTORE PUSH1 0xB DUP7 MSTORE DUP8 PUSH0 KECCAK256 DUP13 PUSH0 MSTORE DUP7 MSTORE PUSH1 0xFF DUP9 PUSH0 KECCAK256 SLOAD AND PUSH2 0x3206 JUMPI DUP10 PUSH0 MSTORE PUSH1 0xD DUP7 MSTORE DUP8 PUSH0 KECCAK256 SWAP3 DUP4 SLOAD SWAP6 PUSH2 0x2F01 DUP12 PUSH2 0x3AB9 JUMP JUMPDEST PUSH1 0x6 DUP10 LT ISZERO PUSH2 0x31F4 JUMPI SWAP2 DUP13 SWAP2 DUP15 SWAP6 SWAP5 SWAP4 DUP12 MLOAD SWAP7 PUSH2 0x2F1D DUP9 PUSH2 0x3B27 JUMP JUMPDEST DUP8 MSTORE DUP10 DUP8 ADD SWAP4 DUP5 MSTORE DUP12 DUP8 ADD PUSH2 0x2F31 DUP15 PUSH2 0x3AB9 JUMP JUMPDEST DUP14 DUP2 MSTORE PUSH1 0x60 DUP9 ADD PUSH2 0x2F42 DUP14 DUP3 PUSH2 0x4190 JUMP JUMPDEST PUSH1 0x80 DUP10 ADD SWAP5 DUP6 MSTORE PUSH1 0xA0 DUP10 ADD SWAP6 TIMESTAMP DUP8 MSTORE PUSH1 0xC0 DUP11 ADD SWAP9 DUP12 DUP11 MSTORE PUSH1 0x1 PUSH1 0x40 SHL DUP14 LT ISZERO PUSH2 0x31E2 JUMPI DUP13 PUSH2 0x2F74 SWAP2 DUP14 DUP3 ADD DUP2 SSTORE PUSH2 0x3C84 JUMP JUMPDEST SWAP11 SWAP1 SWAP11 PUSH2 0x31D1 JUMPI MLOAD DUP11 SSTORE MLOAD DUP11 DUP11 ADD SSTORE PUSH2 0x2F9B PUSH1 0x2 DUP11 ADD SWAP3 MLOAD PUSH2 0x2F95 DUP2 PUSH2 0x3AB9 JUMP JUMPDEST DUP4 PUSH2 0x3F96 JUMP JUMPDEST MLOAD SWAP1 PUSH1 0x6 DUP3 LT ISZERO PUSH2 0x31BF JUMPI SWAP1 PUSH2 0x2FB0 SWAP2 PUSH2 0x3FAE JUMP JUMPDEST PUSH1 0x3 DUP8 ADD SWAP3 MLOAD SWAP1 DUP2 MLOAD SWAP3 DUP4 GT PUSH2 0x31AD JUMPI POP PUSH2 0x2FCB DUP4 SLOAD PUSH2 0x3C9D JUMP JUMPDEST PUSH1 0x1F DUP2 GT PUSH2 0x3167 JUMPI JUMPDEST POP DUP10 SWAP1 PUSH1 0x1F DUP4 GT PUSH1 0x1 EQ PUSH2 0x30D1 JUMPI SWAP5 PUSH2 0x3052 SWAP5 PUSH1 0x60 SWAP14 SWAP12 SWAP9 SWAP5 PUSH32 0x19C1298D442E6DCFC61025509382DD2C8A2D96C75E684D78C38C95624674C9A9 SWAP16 SWAP14 SWAP11 SWAP8 SWAP5 DUP1 PUSH2 0x30BE SWAP14 SWAP11 SWAP6 PUSH1 0x5 SWAP8 PUSH0 SWAP3 PUSH2 0x30C6 JUMPI JUMPDEST POP POP PUSH0 NOT PUSH1 0x3 DUP4 SWAP1 SHL SHR NOT AND SWAP1 DUP10 SHL OR SWAP1 SSTORE JUMPDEST MLOAD SWAP1 DUP5 ADD SSTORE MLOAD ISZERO ISZERO SWAP2 ADD SWAP1 PUSH1 0xFF DUP1 NOT DUP4 SLOAD AND SWAP2 ISZERO ISZERO AND OR SWAP1 SSTORE JUMP JUMPDEST DUP10 PUSH0 MSTORE PUSH1 0xE DUP4 MSTORE DUP6 PUSH0 KECCAK256 DUP13 PUSH0 MSTORE DUP4 MSTORE DUP6 PUSH0 KECCAK256 SWAP1 PUSH1 0xFF NOT DUP3 SLOAD AND OR SWAP1 SSTORE DUP9 PUSH0 MSTORE PUSH1 0xF DUP3 MSTORE DUP5 PUSH0 KECCAK256 DUP12 PUSH0 MSTORE DUP3 MSTORE DUP5 PUSH0 KECCAK256 SSTORE PUSH1 0x14 DUP2 MSTORE PUSH2 0x3091 DUP9 DUP6 PUSH0 KECCAK256 PUSH2 0x419C JUMP JUMPDEST PUSH2 0x309C PUSH1 0x16 SLOAD PUSH2 0x3DC9 JUMP JUMPDEST PUSH1 0x16 SSTORE PUSH2 0x30A8 DUP6 PUSH2 0x3AB9 JUMP JUMPDEST DUP4 MLOAD SWAP5 PUSH2 0x30B4 DUP2 PUSH2 0x3AB9 JUMP JUMPDEST DUP6 MSTORE DUP5 ADD SWAP1 PUSH2 0x3BBF JUMP JUMPDEST TIMESTAMP SWAP1 DUP3 ADD MSTORE LOG4 STOP JUMPDEST ADD MLOAD SWAP1 POP PUSH0 DUP1 PUSH2 0x3024 JUMP JUMPDEST SWAP1 PUSH1 0x1F NOT DUP4 AND SWAP2 DUP5 PUSH0 MSTORE DUP12 PUSH0 KECCAK256 SWAP3 PUSH0 JUMPDEST DUP2 DUP2 LT PUSH2 0x3152 JUMPI POP SWAP5 PUSH32 0x19C1298D442E6DCFC61025509382DD2C8A2D96C75E684D78C38C95624674C9A9 SWAP16 SWAP14 SWAP11 PUSH1 0x60 SWAP16 SWAP14 SWAP11 SWAP7 SWAP6 PUSH2 0x30BE SWAP14 SWAP11 SWAP6 DUP3 SWAP11 SWAP6 PUSH2 0x3052 SWAP11 SWAP6 DUP4 PUSH1 0x5 SWAP11 LT PUSH2 0x313A JUMPI JUMPDEST POP POP POP DUP2 SHL ADD SWAP1 SSTORE PUSH2 0x3037 JUMP JUMPDEST ADD MLOAD PUSH0 NOT PUSH1 0xF8 DUP5 PUSH1 0x3 SHL AND SHR NOT AND SWAP1 SSTORE PUSH0 DUP1 DUP1 PUSH2 0x312D JUMP JUMPDEST DUP3 DUP5 ADD MLOAD DUP6 SSTORE SWAP4 DUP12 ADD SWAP4 SWAP3 DUP14 ADD SWAP3 DUP14 ADD PUSH2 0x30E1 JUMP JUMPDEST DUP4 PUSH0 MSTORE DUP11 PUSH0 KECCAK256 PUSH1 0x1F DUP5 ADD PUSH1 0x5 SHR DUP2 ADD SWAP2 DUP13 DUP6 LT PUSH2 0x31A3 JUMPI JUMPDEST PUSH1 0x1F ADD PUSH1 0x5 SHR ADD SWAP1 DUP10 SWAP1 JUMPDEST DUP3 DUP2 LT PUSH2 0x3198 JUMPI POP POP PUSH2 0x2FD4 JUMP JUMPDEST PUSH0 DUP2 SSTORE ADD DUP10 SWAP1 PUSH2 0x318A JUMP JUMPDEST SWAP1 SWAP2 POP DUP2 SWAP1 PUSH2 0x317F JUMP JUMPDEST PUSH4 0x4E487B71 PUSH1 0xE0 SHL PUSH0 SWAP1 DUP2 MSTORE PUSH1 0x41 DUP8 MSTORE REVERT JUMPDEST DUP3 PUSH1 0x21 DUP9 PUSH4 0x4E487B71 PUSH1 0xE0 SHL PUSH0 MSTORE MSTORE PUSH0 REVERT JUMPDEST DUP5 PUSH0 DUP11 PUSH4 0x4E487B71 PUSH1 0xE0 SHL DUP3 MSTORE MSTORE PUSH0 REVERT JUMPDEST DUP5 PUSH1 0x41 DUP11 PUSH4 0x4E487B71 PUSH1 0xE0 SHL PUSH0 MSTORE MSTORE PUSH0 REVERT JUMPDEST PUSH4 0x4E487B71 PUSH1 0xE0 SHL PUSH0 SWAP1 DUP2 MSTORE PUSH1 0x21 DUP6 MSTORE REVERT JUMPDEST DUP8 MLOAD PUSH3 0x461BCD PUSH1 0xE5 SHL DUP2 MSTORE DUP1 DUP4 ADD DUP8 SWAP1 MSTORE PUSH1 0x30 DUP2 DUP8 ADD MSTORE PUSH32 0x43616E6E6F7420646973707574652061206861736820796F7520617265206163 PUSH1 0x44 DUP3 ADD MSTORE PUSH16 0x746976656C7920766572696679696E67 PUSH1 0x80 SHL PUSH1 0x64 DUP3 ADD MSTORE PUSH1 0x84 SWAP1 REVERT JUMPDEST DUP8 MLOAD PUSH3 0x461BCD PUSH1 0xE5 SHL DUP2 MSTORE DUP1 DUP4 ADD DUP8 SWAP1 MSTORE PUSH1 0x1A DUP2 DUP8 ADD MSTORE PUSH32 0x416C726561647920646973707574656420746869732068617368000000000000 PUSH1 0x44 DUP3 ADD MSTORE PUSH1 0x64 SWAP1 REVERT JUMPDEST SWAP1 SWAP12 POP DUP6 DUP2 DUP2 RETURNDATASIZE DUP4 GT PUSH2 0x32CB JUMPI JUMPDEST PUSH2 0x32BB DUP2 DUP4 PUSH2 0x3B57 JUMP JUMPDEST DUP2 ADD SUB SLT PUSH2 0xC44 JUMPI MLOAD SWAP11 DUP13 PUSH2 0x2E95 JUMP JUMPDEST POP RETURNDATASIZE PUSH2 0x32B1 JUMP JUMPDEST DUP9 MLOAD RETURNDATASIZE PUSH0 DUP3 RETURNDATACOPY RETURNDATASIZE SWAP1 REVERT JUMPDEST POP PUSH1 0x3 DUP12 GT ISZERO PUSH2 0x2E5A JUMP JUMPDEST PUSH2 0x32FE SWAP2 POP DUP10 RETURNDATASIZE DUP12 GT PUSH2 0x824 JUMPI PUSH2 0x816 DUP2 DUP4 PUSH2 0x3B57 JUMP JUMPDEST DUP16 PUSH2 0x52D JUMP JUMPDEST PUSH2 0x331B SWAP2 POP DUP8 RETURNDATASIZE DUP10 GT PUSH2 0x824 JUMPI PUSH2 0x816 DUP2 DUP4 PUSH2 0x3B57 JUMP JUMPDEST DUP14 PUSH2 0x4EA JUMP JUMPDEST DUP5 DUP4 CALLVALUE PUSH2 0xC44 JUMPI PUSH1 0x20 SWAP1 DUP2 PUSH1 0x3 NOT CALLDATASIZE ADD SLT PUSH2 0xC44 JUMPI CALLDATALOAD SWAP1 PUSH0 SWAP1 DUP3 PUSH0 MSTORE PUSH1 0x2 DUP2 MSTORE DUP4 PUSH0 KECCAK256 SWAP1 DUP5 MLOAD DUP1 DUP4 DUP4 DUP3 SWAP6 SLOAD SWAP4 DUP5 DUP2 MSTORE ADD SWAP1 PUSH0 MSTORE DUP4 PUSH0 KECCAK256 SWAP3 PUSH0 JUMPDEST DUP6 DUP3 DUP3 LT PUSH2 0x33CF JUMPI POP POP POP PUSH2 0x3372 SWAP3 POP SUB DUP4 PUSH2 0x3B57 JUMP JUMPDEST DUP2 MLOAD SWAP4 PUSH0 JUMPDEST DUP4 MLOAD DUP2 LT ISZERO PUSH2 0x33C1 JUMPI DUP2 PUSH0 MSTORE PUSH1 0x5 DUP4 MSTORE DUP7 PUSH0 KECCAK256 PUSH2 0x3394 DUP3 DUP7 PUSH2 0x3FE5 JUMP JUMPDEST MLOAD PUSH0 MSTORE DUP4 MSTORE PUSH1 0xFF DUP8 PUSH0 KECCAK256 SLOAD AND PUSH2 0x33AD JUMPI JUMPDEST PUSH1 0x1 ADD PUSH2 0x3377 JUMP JUMPDEST SWAP4 PUSH2 0x33B9 PUSH1 0x1 SWAP2 PUSH2 0x3DC9 JUMP JUMPDEST SWAP5 SWAP1 POP PUSH2 0x33A5 JUMP JUMPDEST POP POP SWAP1 POP DUP4 MLOAD SWAP3 DUP4 MSTORE DUP3 ADD MSTORE RETURN JUMPDEST DUP6 SLOAD DUP5 MSTORE PUSH1 0x1 SWAP6 DUP7 ADD SWAP6 DUP9 SWAP6 POP SWAP4 ADD SWAP3 ADD PUSH2 0x335B JUMP JUMPDEST DUP3 DUP6 CALLVALUE PUSH2 0xC44 JUMPI PUSH1 0x20 CALLDATASIZE PUSH1 0x3 NOT ADD SLT PUSH2 0xC44 JUMPI PUSH1 0x20 SWAP2 CALLDATALOAD PUSH0 MSTORE PUSH1 0x12 DUP3 MSTORE DUP1 PUSH0 KECCAK256 SLOAD SWAP1 MLOAD SWAP1 DUP2 MSTORE RETURN JUMPDEST DUP5 CALLVALUE PUSH2 0xC44 JUMPI PUSH0 CALLDATASIZE PUSH1 0x3 NOT ADD SLT PUSH2 0xC44 JUMPI PUSH1 0x20 SWAP1 PUSH1 0x9 SLOAD SWAP1 MLOAD SWAP1 DUP2 MSTORE RETURN JUMPDEST DUP5 CALLVALUE PUSH2 0xC44 JUMPI PUSH0 CALLDATASIZE PUSH1 0x3 NOT ADD SLT PUSH2 0xC44 JUMPI PUSH0 SLOAD SWAP1 MLOAD PUSH1 0x1 PUSH1 0x1 PUSH1 0xA0 SHL SUB SWAP1 SWAP2 AND DUP2 MSTORE PUSH1 0x20 SWAP1 RETURN JUMPDEST DUP5 DUP4 CALLVALUE PUSH2 0xC44 JUMPI PUSH1 0x20 SWAP1 DUP2 PUSH1 0x3 NOT CALLDATASIZE ADD SLT PUSH2 0xC44 JUMPI PUSH0 SWAP1 CALLDATALOAD PUSH0 MSTORE PUSH1 0xA DUP3 MSTORE DUP3 PUSH0 KECCAK256 SWAP3 DUP4 SLOAD PUSH2 0x347F DUP2 PUSH2 0x3FCD JUMP JUMPDEST SWAP5 PUSH2 0x348C DUP4 MLOAD SWAP7 DUP8 PUSH2 0x3B57 JUMP JUMPDEST DUP2 DUP7 MSTORE PUSH0 SWAP1 DUP2 MSTORE DUP5 DUP2 KECCAK256 DUP6 DUP1 DUP9 ADD JUMPDEST DUP5 DUP5 LT PUSH2 0x34E4 JUMPI POP POP POP POP POP DUP4 MLOAD PUSH0 JUMPDEST DUP6 MLOAD DUP2 LT ISZERO PUSH2 0xA02 JUMPI PUSH1 0x80 PUSH2 0x34C0 DUP3 DUP9 PUSH2 0x3FE5 JUMP JUMPDEST MLOAD ADD MLOAD PUSH2 0x34D0 JUMPI JUMPDEST PUSH1 0x1 ADD PUSH2 0x34AB JUMP JUMPDEST SWAP3 PUSH2 0x34DC PUSH1 0x1 SWAP2 PUSH2 0x3DC9 JUMP JUMPDEST SWAP4 SWAP1 POP PUSH2 0x34C8 JUMP JUMPDEST PUSH1 0x1 SWAP2 PUSH1 0x5 SWAP2 PUSH2 0x34F3 DUP6 PUSH2 0x3DEB JUMP JUMPDEST DUP2 MSTORE ADD SWAP3 ADD SWAP3 ADD SWAP2 SWAP1 DUP7 SWAP1 PUSH2 0x349B JUMP JUMPDEST DUP5 CALLVALUE PUSH2 0xC44 JUMPI PUSH1 0x20 SWAP1 PUSH2 0x3515 CALLDATASIZE PUSH2 0x3AA3 JUMP JUMPDEST SWAP1 PUSH0 MSTORE PUSH1 0x3 DUP4 MSTORE DUP2 PUSH0 KECCAK256 SWAP1 PUSH0 MSTORE DUP3 MSTORE PUSH1 0xFF DUP2 PUSH0 KECCAK256 SLOAD AND SWAP1 MLOAD SWAP1 ISZERO ISZERO DUP2 MSTORE RETURN JUMPDEST DUP5 DUP4 CALLVALUE PUSH2 0xC44 JUMPI PUSH1 0x60 CALLDATASIZE PUSH1 0x3 NOT ADD SLT PUSH2 0xC44 JUMPI DUP1 CALLDATALOAD SWAP1 PUSH2 0x3552 PUSH2 0x3AD7 JUMP JUMPDEST SWAP3 PUSH2 0x355B PUSH2 0x3AE7 JUMP JUMPDEST SWAP4 PUSH1 0xFF DUP1 DUP1 SWAP3 AND SWAP6 PUSH1 0x1 DUP8 LT ISZERO DUP1 PUSH2 0x3809 JUMPI JUMPDEST PUSH2 0x3577 SWAP1 PUSH2 0x3EC3 JUMP JUMPDEST AND SWAP5 PUSH2 0x3586 PUSH1 0x5 DUP8 GT ISZERO PUSH2 0x3F06 JUMP JUMPDEST PUSH0 SLOAD DUP4 MLOAD PUSH3 0xB0C809 PUSH1 0xE0 SHL DUP2 MSTORE CALLER DUP7 DUP3 ADD MSTORE SWAP7 PUSH1 0x20 SWAP5 SWAP2 PUSH1 0x24 SWAP2 SWAP1 DUP7 SWAP1 DUP11 SWAP1 DUP5 SWAP1 DUP3 SWAP1 PUSH1 0x1 PUSH1 0x1 PUSH1 0xA0 SHL SUB AND GAS STATICCALL SWAP9 DUP10 ISZERO PUSH2 0x1BAF JUMPI PUSH0 SWAP10 PUSH2 0x37DA JUMPI JUMPDEST POP PUSH2 0x35CE DUP10 ISZERO ISZERO PUSH2 0x3F52 JUMP JUMPDEST DUP8 PUSH0 MSTORE PUSH1 0xE DUP7 MSTORE DUP3 PUSH0 KECCAK256 DUP10 PUSH0 MSTORE DUP7 MSTORE DUP5 DUP4 PUSH0 KECCAK256 SLOAD AND ISZERO PUSH2 0x37A1 JUMPI DUP8 PUSH0 MSTORE PUSH1 0xF DUP7 MSTORE DUP3 PUSH0 KECCAK256 DUP10 PUSH0 MSTORE DUP7 MSTORE PUSH2 0x360D DUP4 PUSH0 KECCAK256 SLOAD DUP10 PUSH0 MSTORE PUSH1 0xD DUP9 MSTORE DUP5 PUSH0 KECCAK256 PUSH2 0x3C84 JUMP JUMPDEST POP DUP6 PUSH1 0x5 DUP3 ADD SLOAD AND ISZERO PUSH2 0x375F JUMPI PUSH1 0x2 ADD SWAP2 DUP3 SLOAD SWAP8 DUP7 DUP1 DUP11 AND SWAP10 PUSH1 0x8 SHR AND SWAP6 PUSH2 0x3634 DUP2 PUSH2 0x3AB9 JUMP JUMPDEST PUSH2 0x363D DUP2 PUSH2 0x3AB9 JUMP JUMPDEST PUSH2 0x3646 DUP11 PUSH2 0x3AB9 JUMP JUMPDEST DUP1 DUP11 EQ DUP1 ISZERO SWAP1 PUSH2 0x3731 JUMPI JUMPDEST ISZERO PUSH2 0x36FD JUMPI DUP1 PUSH2 0x3663 PUSH2 0x3669 SWAP3 PUSH2 0x3AB9 JUMP JUMPDEST DUP6 PUSH2 0x3F96 JUMP JUMPDEST PUSH1 0x6 DUP4 LT ISZERO PUSH2 0x36EC JUMPI POP POP PUSH2 0x36E3 SWAP4 PUSH1 0xA0 SWAP7 SWAP4 DUP4 PUSH2 0x36AD PUSH2 0x36D5 SWAP5 PUSH32 0xFE65316E02C3DCE1BCA5A3132E022178971267D711982849C99758DA3CFC7ED SWAP12 SWAP10 SWAP7 PUSH2 0x3FAE JUMP JUMPDEST SLOAD SWAP5 DUP5 DUP7 AND SWAP1 DUP3 MLOAD SWAP9 PUSH2 0x36BF DUP2 PUSH2 0x3AB9 JUMP JUMPDEST DUP10 MSTORE PUSH2 0x36CA DUP3 PUSH2 0x3AB9 JUMP JUMPDEST DUP9 ADD MSTORE DUP7 ADD SWAP1 PUSH2 0x3BBF JUMP JUMPDEST PUSH1 0x60 DUP5 ADD SWAP2 PUSH1 0x8 SHR AND PUSH2 0x3BBF JUMP JUMPDEST TIMESTAMP PUSH1 0x80 DUP3 ADD MSTORE LOG3 STOP JUMPDEST PUSH1 0x21 SWAP1 PUSH4 0x4E487B71 PUSH1 0xE0 SHL PUSH0 MSTORE MSTORE PUSH0 REVERT JUMPDEST POP PUSH1 0x10 PUSH1 0x64 SWAP3 DUP10 DUP8 MLOAD SWAP4 PUSH3 0x461BCD PUSH1 0xE5 SHL DUP6 MSTORE DUP5 ADD MSTORE DUP3 ADD MSTORE PUSH16 0x15985B1D595CC81D5B98DA185B99D959 PUSH1 0x82 SHL PUSH1 0x44 DUP3 ADD MSTORE REVERT JUMPDEST POP PUSH1 0x6 DUP5 LT ISZERO PUSH2 0x374D JUMPI PUSH1 0x6 DUP8 LT ISZERO PUSH2 0x374D JUMPI DUP4 DUP8 EQ ISZERO PUSH2 0x3651 JUMP JUMPDEST POP PUSH1 0x21 SWAP1 PUSH4 0x4E487B71 PUSH1 0xE0 SHL PUSH0 MSTORE MSTORE PUSH0 REVERT JUMPDEST DUP4 MLOAD PUSH3 0x461BCD PUSH1 0xE5 SHL DUP2 MSTORE DUP1 DUP10 ADD DUP9 SWAP1 MSTORE PUSH1 0x1A DUP2 DUP6 ADD MSTORE PUSH32 0x4469737075746520686173206265656E20726574726163746564000000000000 PUSH1 0x44 DUP3 ADD MSTORE PUSH1 0x64 SWAP1 REVERT JUMPDEST DUP3 MLOAD PUSH3 0x461BCD PUSH1 0xE5 SHL DUP2 MSTORE DUP1 DUP9 ADD DUP8 SWAP1 MSTORE PUSH1 0x14 DUP2 DUP5 ADD MSTORE PUSH20 0x4E6F206469737075746520746F206D6F64696679 PUSH1 0x60 SHL PUSH1 0x44 DUP3 ADD MSTORE PUSH1 0x64 SWAP1 REVERT JUMPDEST SWAP1 SWAP9 POP DUP6 DUP2 DUP2 RETURNDATASIZE DUP4 GT PUSH2 0x3802 JUMPI JUMPDEST PUSH2 0x37F2 DUP2 DUP4 PUSH2 0x3B57 JUMP JUMPDEST DUP2 ADD SUB SLT PUSH2 0xC44 JUMPI MLOAD SWAP8 DUP10 PUSH2 0x35C2 JUMP JUMPDEST POP RETURNDATASIZE PUSH2 0x37E8 JUMP JUMPDEST POP PUSH1 0x3 DUP8 GT ISZERO PUSH2 0x356E JUMP JUMPDEST DUP5 CALLVALUE PUSH2 0xC44 JUMPI PUSH1 0xA0 SWAP1 PUSH2 0x382F PUSH2 0x3829 CALLDATASIZE PUSH2 0x3AA3 JUMP JUMPDEST SWAP1 PUSH2 0x3E37 JUMP JUMPDEST SWAP4 SWAP5 SWAP1 SWAP3 DUP2 MLOAD SWAP6 ISZERO ISZERO DUP7 MSTORE PUSH1 0x20 DUP7 ADD MSTORE PUSH2 0xD0D DUP3 PUSH2 0x3AB9 JUMP JUMPDEST DUP3 DUP6 CALLVALUE PUSH2 0xC44 JUMPI PUSH1 0x80 CALLDATASIZE PUSH1 0x3 NOT ADD SLT PUSH2 0xC44 JUMPI DUP2 CALLDATALOAD PUSH1 0x24 SWAP2 DUP3 CALLDATALOAD SWAP3 PUSH1 0x44 CALLDATALOAD SWAP5 PUSH1 0x64 CALLDATALOAD SWAP2 PUSH2 0x3880 PUSH1 0x1 DUP1 PUSH1 0xA0 SHL SUB PUSH1 0x1 SLOAD AND CALLER EQ PUSH2 0x3D90 JUMP JUMPDEST DUP5 ISZERO PUSH2 0x3A6F JUMPI DUP6 ISZERO PUSH2 0x3A3C JUMPI DUP7 ISZERO PUSH2 0x3A07 JUMPI DUP5 PUSH0 MSTORE PUSH1 0x20 SWAP2 PUSH1 0x11 DUP4 MSTORE DUP5 PUSH0 KECCAK256 DUP8 PUSH0 MSTORE DUP4 MSTORE DUP5 PUSH0 KECCAK256 SLOAD PUSH2 0x39D5 JUMPI DUP6 PUSH0 MSTORE PUSH1 0x10 DUP4 MSTORE DUP5 PUSH0 KECCAK256 SLOAD PUSH1 0x1 DUP2 ADD DUP1 SWAP2 GT PUSH2 0x39C3 JUMPI DUP7 PUSH0 MSTORE PUSH1 0x11 DUP5 MSTORE DUP6 PUSH0 KECCAK256 DUP9 PUSH0 MSTORE DUP5 MSTORE DUP6 PUSH0 KECCAK256 SSTORE DUP6 PUSH0 MSTORE PUSH1 0x10 DUP4 MSTORE DUP5 PUSH0 KECCAK256 DUP6 MLOAD PUSH2 0x38EA DUP2 PUSH2 0x3AF7 JUMP JUMPDEST DUP9 DUP2 MSTORE DUP5 DUP2 ADD DUP11 DUP2 MSTORE DUP8 DUP3 ADD SWAP1 DUP8 DUP3 MSTORE PUSH1 0x60 DUP4 ADD SWAP3 TIMESTAMP DUP5 MSTORE PUSH1 0x80 DUP2 ADD SWAP5 PUSH1 0x1 DUP7 MSTORE DUP1 SLOAD SWAP1 PUSH1 0x1 PUSH1 0x40 SHL DUP3 LT ISZERO PUSH2 0x39B1 JUMPI SWAP1 PUSH2 0x392A SWAP2 PUSH1 0x1 DUP3 ADD DUP2 SSTORE PUSH2 0x3D77 JUMP JUMPDEST SWAP8 SWAP1 SWAP8 PUSH2 0x201C JUMPI POP MLOAD DUP7 SSTORE MLOAD PUSH1 0x1 DUP7 ADD SSTORE MLOAD PUSH1 0x2 DUP6 ADD SSTORE MLOAD PUSH1 0x3 DUP5 ADD SSTORE MLOAD SWAP2 ADD DUP1 SLOAD PUSH1 0xFF NOT AND SWAP2 ISZERO ISZERO PUSH1 0xFF AND SWAP2 SWAP1 SWAP2 OR SWAP1 SSTORE PUSH32 0xD975A013E674F51FF6B9D1144095CBE8D88C8A4EBAC520FFDCE1B92EEE22E99B SWAP3 SWAP2 SWAP1 DUP5 PUSH0 MSTORE PUSH1 0x12 DUP2 MSTORE DUP3 PUSH0 KECCAK256 PUSH2 0x3994 DUP2 SLOAD PUSH2 0x3DC9 JUMP JUMPDEST SWAP1 SSTORE PUSH2 0x39A1 PUSH1 0x17 SLOAD PUSH2 0x3DC9 JUMP JUMPDEST PUSH1 0x17 SSTORE DUP3 MLOAD SWAP2 DUP3 MSTORE TIMESTAMP SWAP1 DUP3 ADD MSTORE LOG4 STOP JUMPDEST DUP9 PUSH1 0x41 DUP10 PUSH4 0x4E487B71 PUSH1 0xE0 SHL PUSH0 MSTORE MSTORE PUSH0 REVERT JUMPDEST POP PUSH1 0x11 SWAP1 PUSH4 0x4E487B71 PUSH1 0xE0 SHL PUSH0 MSTORE MSTORE PUSH0 REVERT JUMPDEST PUSH1 0xF PUSH1 0x64 SWAP3 DUP5 DUP8 MLOAD SWAP4 PUSH3 0x461BCD PUSH1 0xE5 SHL DUP6 MSTORE DUP5 ADD MSTORE DUP3 ADD MSTORE PUSH15 0x105B1C9958591E48199B1859D9D959 PUSH1 0x8A SHL PUSH1 0x44 DUP3 ADD MSTORE REVERT JUMPDEST SWAP1 PUSH1 0x10 PUSH1 0x64 SWAP3 PUSH1 0x20 DUP7 MLOAD SWAP4 PUSH3 0x461BCD PUSH1 0xE5 SHL DUP6 MSTORE DUP5 ADD MSTORE DUP3 ADD MSTORE PUSH16 0x24B73B30B634B210383937BB34B232B9 PUSH1 0x81 SHL PUSH1 0x44 DUP3 ADD MSTORE REVERT JUMPDEST SWAP1 PUSH1 0xE PUSH1 0x64 SWAP3 PUSH1 0x20 DUP7 MLOAD SWAP4 PUSH3 0x461BCD PUSH1 0xE5 SHL DUP6 MSTORE DUP5 ADD MSTORE DUP3 ADD MSTORE PUSH14 0x125B9D985B1A59081C9958DBDC99 PUSH1 0x92 SHL PUSH1 0x44 DUP3 ADD MSTORE REVERT JUMPDEST SWAP1 PUSH1 0xF PUSH1 0x64 SWAP3 PUSH1 0x20 DUP7 MLOAD SWAP4 PUSH3 0x461BCD PUSH1 0xE5 SHL DUP6 MSTORE DUP5 ADD MSTORE DUP3 ADD MSTORE PUSH15 0x125B9D985B1A59081CDD589A9958DD PUSH1 0x8A SHL PUSH1 0x44 DUP3 ADD MSTORE REVERT JUMPDEST PUSH1 0x40 SWAP1 PUSH1 0x3 NOT ADD SLT PUSH2 0xC44 JUMPI PUSH1 0x4 CALLDATALOAD SWAP1 PUSH1 0x24 CALLDATALOAD SWAP1 JUMP JUMPDEST PUSH1 0x4 GT ISZERO PUSH2 0x3AC3 JUMPI JUMP JUMPDEST PUSH4 0x4E487B71 PUSH1 0xE0 SHL PUSH0 MSTORE PUSH1 0x21 PUSH1 0x4 MSTORE PUSH1 0x24 PUSH0 REVERT JUMPDEST PUSH1 0x24 CALLDATALOAD SWAP1 PUSH1 0xFF DUP3 AND DUP3 SUB PUSH2 0xC44 JUMPI JUMP JUMPDEST PUSH1 0x44 CALLDATALOAD SWAP1 PUSH1 0xFF DUP3 AND DUP3 SUB PUSH2 0xC44 JUMPI JUMP JUMPDEST PUSH1 0xA0 DUP2 ADD SWAP1 DUP2 LT PUSH8 0xFFFFFFFFFFFFFFFF DUP3 GT OR PUSH2 0x3B13 JUMPI PUSH1 0x40 MSTORE JUMP JUMPDEST PUSH4 0x4E487B71 PUSH1 0xE0 SHL PUSH0 MSTORE PUSH1 0x41 PUSH1 0x4 MSTORE PUSH1 0x24 PUSH0 REVERT JUMPDEST PUSH1 0xE0 DUP2 ADD SWAP1 DUP2 LT PUSH8 0xFFFFFFFFFFFFFFFF DUP3 GT OR PUSH2 0x3B13 JUMPI PUSH1 0x40 MSTORE JUMP JUMPDEST PUSH8 0xFFFFFFFFFFFFFFFF DUP2 GT PUSH2 0x3B13 JUMPI PUSH1 0x40 MSTORE JUMP JUMPDEST SWAP1 PUSH1 0x1F DUP1 NOT SWAP2 ADD AND DUP2 ADD SWAP1 DUP2 LT PUSH8 0xFFFFFFFFFFFFFFFF DUP3 GT OR PUSH2 0x3B13 JUMPI PUSH1 0x40 MSTORE JUMP JUMPDEST SWAP3 SWAP2 SWAP3 PUSH8 0xFFFFFFFFFFFFFFFF DUP3 GT PUSH2 0x3B13 JUMPI PUSH1 0x40 MLOAD SWAP2 PUSH2 0x3BA3 PUSH1 0x1F DUP3 ADD PUSH1 0x1F NOT AND PUSH1 0x20 ADD DUP5 PUSH2 0x3B57 JUMP JUMPDEST DUP3 SWAP5 DUP2 DUP5 MSTORE DUP2 DUP4 ADD GT PUSH2 0xC44 JUMPI DUP3 DUP2 PUSH1 0x20 SWAP4 DUP5 PUSH0 SWAP7 ADD CALLDATACOPY ADD ADD MSTORE JUMP JUMPDEST SWAP1 PUSH1 0x6 DUP3 LT ISZERO PUSH2 0x3AC3 JUMPI MSTORE JUMP JUMPDEST SWAP2 SWAP1 DUP3 MLOAD SWAP3 DUP4 DUP3 MSTORE PUSH0 JUMPDEST DUP5 DUP2 LT PUSH2 0x3BF6 JUMPI POP POP DUP3 PUSH0 PUSH1 0x20 DUP1 SWAP5 SWAP6 DUP5 ADD ADD MSTORE PUSH1 0x1F DUP1 NOT SWAP2 ADD AND ADD ADD SWAP1 JUMP JUMPDEST PUSH1 0x20 DUP2 DUP4 ADD DUP2 ADD MLOAD DUP5 DUP4 ADD DUP3 ADD MSTORE ADD PUSH2 0x3BD6 JUMP JUMPDEST PUSH1 0x4 CALLDATALOAD SWAP1 PUSH1 0x1 PUSH1 0x1 PUSH1 0xA0 SHL SUB DUP3 AND DUP3 SUB PUSH2 0xC44 JUMPI JUMP JUMPDEST PUSH1 0x20 SWAP1 PUSH1 0x20 PUSH1 0x40 DUP2 DUP4 ADD SWAP3 DUP3 DUP2 MSTORE DUP6 MLOAD DUP1 SWAP5 MSTORE ADD SWAP4 ADD SWAP2 PUSH0 JUMPDEST DUP3 DUP2 LT PUSH2 0x3C47 JUMPI POP POP POP POP SWAP1 JUMP JUMPDEST DUP4 MLOAD DUP6 MSTORE SWAP4 DUP2 ADD SWAP4 SWAP3 DUP2 ADD SWAP3 PUSH1 0x1 ADD PUSH2 0x3C39 JUMP JUMPDEST DUP1 SLOAD DUP3 LT ISZERO PUSH2 0x3C70 JUMPI PUSH0 MSTORE PUSH1 0x20 PUSH0 KECCAK256 ADD SWAP1 PUSH0 SWAP1 JUMP JUMPDEST PUSH4 0x4E487B71 PUSH1 0xE0 SHL PUSH0 MSTORE PUSH1 0x32 PUSH1 0x4 MSTORE PUSH1 0x24 PUSH0 REVERT JUMPDEST DUP1 SLOAD DUP3 LT ISZERO PUSH2 0x3C70 JUMPI PUSH0 MSTORE PUSH1 0x6 PUSH1 0x20 PUSH0 KECCAK256 SWAP2 MUL ADD SWAP1 PUSH0 SWAP1 JUMP JUMPDEST SWAP1 PUSH1 0x1 DUP3 DUP2 SHR SWAP3 AND DUP1 ISZERO PUSH2 0x3CCB JUMPI JUMPDEST PUSH1 0x20 DUP4 LT EQ PUSH2 0x3CB7 JUMPI JUMP JUMPDEST PUSH4 0x4E487B71 PUSH1 0xE0 SHL PUSH0 MSTORE PUSH1 0x22 PUSH1 0x4 MSTORE PUSH1 0x24 PUSH0 REVERT JUMPDEST SWAP2 PUSH1 0x7F AND SWAP2 PUSH2 0x3CAC JUMP JUMPDEST SWAP1 PUSH1 0x40 MLOAD SWAP2 DUP3 PUSH0 DUP3 SLOAD PUSH2 0x3CE7 DUP2 PUSH2 0x3C9D JUMP JUMPDEST SWAP1 DUP2 DUP5 MSTORE PUSH1 0x20 SWAP5 PUSH1 0x1 SWAP2 PUSH1 0x1 DUP2 AND SWAP1 DUP2 PUSH0 EQ PUSH2 0x3D55 JUMPI POP PUSH1 0x1 EQ PUSH2 0x3D17 JUMPI JUMPDEST POP POP POP PUSH2 0x3D15 SWAP3 POP SUB DUP4 PUSH2 0x3B57 JUMP JUMPDEST JUMP JUMPDEST PUSH0 SWAP1 DUP2 MSTORE DUP6 DUP2 KECCAK256 SWAP6 SWAP4 POP SWAP2 SWAP1 JUMPDEST DUP2 DUP4 LT PUSH2 0x3D3D JUMPI POP POP PUSH2 0x3D15 SWAP4 POP DUP3 ADD ADD PUSH0 DUP1 DUP1 PUSH2 0x3D06 JUMP JUMPDEST DUP6 SLOAD DUP9 DUP5 ADD DUP6 ADD MSTORE SWAP5 DUP6 ADD SWAP5 DUP8 SWAP5 POP SWAP2 DUP4 ADD SWAP2 PUSH2 0x3D24 JUMP JUMPDEST SWAP3 POP POP POP PUSH2 0x3D15 SWAP5 SWAP3 POP PUSH1 0xFF NOT AND DUP3 DUP5 ADD MSTORE ISZERO ISZERO PUSH1 0x5 SHL DUP3 ADD ADD PUSH0 DUP1 DUP1 PUSH2 0x3D06 JUMP JUMPDEST DUP1 SLOAD DUP3 LT ISZERO PUSH2 0x3C70 JUMPI PUSH0 MSTORE PUSH1 0x5 PUSH1 0x20 PUSH0 KECCAK256 SWAP2 MUL ADD SWAP1 PUSH0 SWAP1 JUMP JUMPDEST ISZERO PUSH2 0x3D97 JUMPI JUMP JUMPDEST PUSH1 0x40 MLOAD PUSH3 0x461BCD PUSH1 0xE5 SHL DUP2 MSTORE PUSH1 0x20 PUSH1 0x4 DUP3 ADD MSTORE PUSH1 0xA PUSH1 0x24 DUP3 ADD MSTORE PUSH10 0x27B7363C9030B236B4B7 PUSH1 0xB1 SHL PUSH1 0x44 DUP3 ADD MSTORE PUSH1 0x64 SWAP1 REVERT JUMPDEST PUSH0 NOT DUP2 EQ PUSH2 0x3DD7 JUMPI PUSH1 0x1 ADD SWAP1 JUMP JUMPDEST PUSH4 0x4E487B71 PUSH1 0xE0 SHL PUSH0 MSTORE PUSH1 0x11 PUSH1 0x4 MSTORE PUSH1 0x24 PUSH0 REVERT JUMPDEST SWAP1 PUSH1 0x40 MLOAD PUSH2 0x3DF8 DUP2 PUSH2 0x3AF7 JUMP JUMPDEST PUSH1 0x80 PUSH1 0xFF PUSH1 0x4 DUP4 SWAP6 DUP1 SLOAD DUP6 MSTORE PUSH1 0x1 DUP2 ADD SLOAD PUSH1 0x20 DUP7 ADD MSTORE DUP3 PUSH1 0x2 DUP3 ADD SLOAD AND PUSH2 0x3E1E DUP2 PUSH2 0x3AB9 JUMP JUMPDEST PUSH1 0x40 DUP7 ADD MSTORE PUSH1 0x3 DUP2 ADD SLOAD PUSH1 0x60 DUP7 ADD MSTORE ADD SLOAD AND ISZERO ISZERO SWAP2 ADD MSTORE JUMP JUMPDEST SWAP2 SWAP1 SWAP2 DUP1 PUSH0 MSTORE PUSH1 0x20 SWAP1 PUSH1 0xB DUP3 MSTORE PUSH1 0x40 SWAP4 DUP5 PUSH0 KECCAK256 DUP2 PUSH0 MSTORE DUP4 MSTORE PUSH1 0xFF DUP6 PUSH0 KECCAK256 SLOAD AND ISZERO PUSH2 0x3EB3 JUMPI DUP2 PUSH2 0x3E85 SWAP2 PUSH2 0x3E8B SWAP4 PUSH0 MSTORE PUSH1 0xC DUP6 MSTORE DUP7 PUSH0 KECCAK256 SWAP1 PUSH0 MSTORE DUP5 MSTORE DUP6 PUSH0 KECCAK256 SLOAD SWAP1 PUSH0 MSTORE PUSH1 0xA DUP5 MSTORE DUP6 PUSH0 KECCAK256 PUSH2 0x3D77 JUMP JUMPDEST POP PUSH2 0x3DEB JUMP JUMPDEST SWAP1 DUP2 ADD MLOAD SWAP3 DUP2 ADD MLOAD SWAP2 PUSH2 0x3E9D DUP4 PUSH2 0x3AB9 JUMP JUMPDEST PUSH1 0x80 PUSH1 0x60 DUP4 ADD MLOAD SWAP3 ADD MLOAD ISZERO ISZERO SWAP1 PUSH1 0x1 SWAP5 SWAP4 SWAP3 SWAP2 SWAP1 JUMP JUMPDEST POP PUSH0 SWAP4 POP DUP4 SWAP3 DUP4 SWAP3 POP DUP3 SWAP2 POP DUP2 SWAP1 JUMP JUMPDEST ISZERO PUSH2 0x3ECA JUMPI JUMP JUMPDEST PUSH1 0x40 MLOAD PUSH3 0x461BCD PUSH1 0xE5 SHL DUP2 MSTORE PUSH1 0x20 PUSH1 0x4 DUP3 ADD MSTORE PUSH1 0x14 PUSH1 0x24 DUP3 ADD MSTORE PUSH20 0x5365766572697479206D75737420626520312D33 PUSH1 0x60 SHL PUSH1 0x44 DUP3 ADD MSTORE PUSH1 0x64 SWAP1 REVERT JUMPDEST ISZERO PUSH2 0x3F0D JUMPI JUMP JUMPDEST PUSH1 0x40 MLOAD PUSH3 0x461BCD PUSH1 0xE5 SHL DUP2 MSTORE PUSH1 0x20 PUSH1 0x4 DUP3 ADD MSTORE PUSH1 0x17 PUSH1 0x24 DUP3 ADD MSTORE PUSH32 0x43756C706162696C697479206D75737420626520302D35000000000000000000 PUSH1 0x44 DUP3 ADD MSTORE PUSH1 0x64 SWAP1 REVERT JUMPDEST ISZERO PUSH2 0x3F59 JUMPI JUMP JUMPDEST PUSH1 0x40 MLOAD PUSH3 0x461BCD PUSH1 0xE5 SHL DUP2 MSTORE PUSH1 0x20 PUSH1 0x4 DUP3 ADD MSTORE PUSH1 0x15 PUSH1 0x24 DUP3 ADD MSTORE PUSH21 0x15D85B1B195D081B9BDD081C9959DA5CDD195C9959 PUSH1 0x5A SHL PUSH1 0x44 DUP3 ADD MSTORE PUSH1 0x64 SWAP1 REVERT JUMPDEST SWAP1 PUSH2 0x3FA0 DUP2 PUSH2 0x3AB9 JUMP JUMPDEST PUSH1 0xFF DUP1 NOT DUP4 SLOAD AND SWAP2 AND OR SWAP1 SSTORE JUMP JUMPDEST SWAP1 PUSH1 0x6 DUP2 LT ISZERO PUSH2 0x3AC3 JUMPI PUSH2 0xFF00 DUP3 SLOAD SWAP2 PUSH1 0x8 SHL AND SWAP1 PUSH2 0xFF00 NOT AND OR SWAP1 SSTORE JUMP JUMPDEST PUSH8 0xFFFFFFFFFFFFFFFF DUP2 GT PUSH2 0x3B13 JUMPI PUSH1 0x5 SHL PUSH1 0x20 ADD SWAP1 JUMP JUMPDEST DUP1 MLOAD DUP3 LT ISZERO PUSH2 0x3C70 JUMPI PUSH1 0x20 SWAP2 PUSH1 0x5 SHL ADD ADD SWAP1 JUMP JUMPDEST SWAP1 DUP2 PUSH1 0x20 SWAP2 SUB SLT PUSH2 0xC44 JUMPI MLOAD DUP1 ISZERO ISZERO DUP2 SUB PUSH2 0xC44 JUMPI SWAP1 JUMP JUMPDEST ISZERO PUSH2 0x4018 JUMPI JUMP JUMPDEST PUSH1 0x40 MLOAD PUSH3 0x461BCD PUSH1 0xE5 SHL DUP2 MSTORE PUSH1 0x20 PUSH1 0x4 DUP3 ADD MSTORE PUSH1 0x14 PUSH1 0x24 DUP3 ADD MSTORE PUSH20 0x2737BA1030B71030B1BA34BB329036B2B6B132B9 PUSH1 0x61 SHL PUSH1 0x44 DUP3 ADD MSTORE PUSH1 0x64 SWAP1 REVERT JUMPDEST ISZERO PUSH2 0x405B JUMPI JUMP JUMPDEST PUSH1 0x40 MLOAD PUSH3 0x461BCD PUSH1 0xE5 SHL DUP2 MSTORE PUSH1 0x20 PUSH1 0x4 DUP3 ADD MSTORE PUSH1 0x18 PUSH1 0x24 DUP3 ADD MSTORE PUSH32 0x4E6F2061636365737320746F2074686973207265636F72640000000000000000 PUSH1 0x44 DUP3 ADD MSTORE PUSH1 0x64 SWAP1 REVERT JUMPDEST ISZERO PUSH2 0x40A7 JUMPI JUMP JUMPDEST PUSH1 0x40 MLOAD PUSH3 0x461BCD PUSH1 0xE5 SHL DUP2 MSTORE PUSH1 0x20 PUSH1 0x4 DUP3 ADD MSTORE PUSH1 0x19 PUSH1 0x24 DUP3 ADD MSTORE PUSH32 0x5265636F72642049442063616E6E6F7420626520656D70747900000000000000 PUSH1 0x44 DUP3 ADD MSTORE PUSH1 0x64 SWAP1 REVERT JUMPDEST ISZERO PUSH2 0x40F3 JUMPI JUMP JUMPDEST PUSH1 0x40 MLOAD PUSH3 0x461BCD PUSH1 0xE5 SHL DUP2 MSTORE PUSH1 0x20 PUSH1 0x4 DUP3 ADD MSTORE PUSH1 0x1B PUSH1 0x24 DUP3 ADD MSTORE PUSH32 0x5265636F726420686173682063616E6E6F7420626520656D7074790000000000 PUSH1 0x44 DUP3 ADD MSTORE PUSH1 0x64 SWAP1 REVERT JUMPDEST ISZERO PUSH2 0x413F JUMPI JUMP JUMPDEST PUSH1 0x40 MLOAD PUSH3 0x461BCD PUSH1 0xE5 SHL DUP2 MSTORE PUSH1 0x20 PUSH1 0x4 DUP3 ADD MSTORE PUSH1 0x23 PUSH1 0x24 DUP3 ADD MSTORE PUSH32 0x4861736820646F6573206E6F742062656C6F6E6720746F207468697320726563 PUSH1 0x44 DUP3 ADD MSTORE PUSH3 0x1BDC99 PUSH1 0xEA SHL PUSH1 0x64 DUP3 ADD MSTORE PUSH1 0x84 SWAP1 REVERT JUMPDEST PUSH1 0x6 DUP3 LT ISZERO PUSH2 0x3AC3 JUMPI MSTORE JUMP JUMPDEST DUP1 SLOAD PUSH1 0x1 PUSH1 0x40 SHL DUP2 LT ISZERO PUSH2 0x3B13 JUMPI PUSH2 0x41B9 SWAP2 PUSH1 0x1 DUP3 ADD DUP2 SSTORE PUSH2 0x3C5B JUMP JUMPDEST DUP2 SWAP3 SWAP2 SLOAD SWAP1 PUSH1 0x3 SHL SWAP2 DUP3 SHL SWAP2 PUSH0 NOT SWAP1 SHL NOT AND OR SWAP1 SSTORE JUMP JUMPDEST SWAP1 PUSH1 0x40 MLOAD PUSH2 0x41DD DUP2 PUSH2 0x3AF7 JUMP JUMPDEST PUSH1 0x80 PUSH1 0xFF PUSH1 0x4 DUP4 SWAP6 DUP1 SLOAD DUP6 MSTORE PUSH1 0x1 DUP2 ADD SLOAD PUSH1 0x20 DUP7 ADD MSTORE PUSH1 0x2 DUP2 ADD SLOAD PUSH1 0x40 DUP7 ADD MSTORE PUSH1 0x3 DUP2 ADD SLOAD PUSH1 0x60 DUP7 ADD MSTORE ADD SLOAD AND ISZERO ISZERO SWAP2 ADD MSTORE JUMP JUMPDEST SWAP1 DUP2 PUSH0 MSTORE PUSH1 0x11 PUSH1 0x20 MSTORE PUSH1 0x40 PUSH0 KECCAK256 SWAP1 PUSH0 MSTORE PUSH1 0x20 MSTORE PUSH1 0x40 PUSH0 KECCAK256 SLOAD SWAP1 DUP2 ISZERO PUSH2 0x4279 JUMPI PUSH0 MSTORE PUSH1 0x10 PUSH1 0x20 MSTORE PUSH1 0x40 PUSH0 KECCAK256 PUSH0 NOT DUP3 ADD SWAP2 DUP3 GT PUSH2 0x3DD7 JUMPI PUSH2 0x4259 SWAP2 PUSH2 0x4253 SWAP2 PUSH2 0x3D77 JUMP JUMPDEST POP PUSH2 0x41D0 JUMP JUMPDEST PUSH1 0x80 DUP2 ADD MLOAD PUSH1 0x20 DUP3 ADD MLOAD PUSH1 0x40 DUP4 ADD MLOAD PUSH1 0x60 SWAP1 SWAP4 ADD MLOAD PUSH1 0x1 SWAP5 SWAP3 ISZERO ISZERO SWAP4 SWAP2 SWAP3 JUMP JUMPDEST POP POP PUSH0 SWAP1 PUSH0 SWAP1 PUSH0 SWAP1 PUSH0 SWAP1 PUSH0 SWAP1 JUMP JUMPDEST SWAP1 PUSH1 0x40 MLOAD PUSH2 0x4294 DUP2 PUSH2 0x3B27 JUMP JUMPDEST PUSH1 0xC0 PUSH1 0xFF PUSH1 0x5 DUP4 SWAP6 DUP1 SLOAD DUP6 MSTORE PUSH1 0x1 DUP2 ADD SLOAD PUSH1 0x20 DUP7 ADD MSTORE PUSH2 0x42D1 DUP4 PUSH1 0x2 DUP4 ADD SLOAD DUP2 DUP2 AND PUSH2 0x42BF DUP2 PUSH2 0x3AB9 JUMP JUMPDEST PUSH1 0x40 DUP10 ADD MSTORE PUSH1 0x8 SHR AND PUSH1 0x60 DUP8 ADD PUSH2 0x4190 JUMP JUMPDEST PUSH2 0x42DD PUSH1 0x3 DUP3 ADD PUSH2 0x3CD5 JUMP JUMPDEST PUSH1 0x80 DUP7 ADD MSTORE PUSH1 0x4 DUP2 ADD SLOAD PUSH1 0xA0 DUP7 ADD MSTORE ADD SLOAD AND ISZERO ISZERO SWAP2 ADD MSTORE JUMP JUMPDEST SWAP2 SWAP1 SWAP2 DUP1 PUSH0 MSTORE PUSH1 0x20 SWAP1 PUSH1 0xE DUP3 MSTORE PUSH1 0x40 SWAP4 DUP5 PUSH0 KECCAK256 DUP2 PUSH0 MSTORE DUP4 MSTORE PUSH1 0xFF DUP6 PUSH0 KECCAK256 SLOAD AND ISZERO PUSH2 0x4389 JUMPI DUP2 PUSH2 0x4344 SWAP2 PUSH2 0x434A SWAP4 PUSH0 MSTORE PUSH1 0xF DUP6 MSTORE DUP7 PUSH0 KECCAK256 SWAP1 PUSH0 MSTORE DUP5 MSTORE DUP6 PUSH0 KECCAK256 SLOAD SWAP1 PUSH0 MSTORE PUSH1 0xD DUP5 MSTORE DUP6 PUSH0 KECCAK256 PUSH2 0x3C84 JUMP JUMPDEST POP PUSH2 0x4287 JUMP JUMPDEST SWAP1 DUP2 ADD MLOAD SWAP3 DUP2 ADD MLOAD SWAP2 PUSH2 0x435C DUP4 PUSH2 0x3AB9 JUMP JUMPDEST PUSH1 0x60 DUP3 ADD MLOAD SWAP2 PUSH1 0x6 DUP4 LT ISZERO PUSH2 0x3AC3 JUMPI PUSH1 0x80 DUP2 ADD MLOAD SWAP2 PUSH1 0xC0 PUSH1 0xA0 DUP4 ADD MLOAD SWAP3 ADD MLOAD ISZERO ISZERO SWAP1 PUSH1 0x1 SWAP7 SWAP6 SWAP5 SWAP4 SWAP3 SWAP2 SWAP1 JUMP JUMPDEST POP POP PUSH0 SWAP3 PUSH0 SWAP3 PUSH0 SWAP3 PUSH0 SWAP3 DUP1 MLOAD SWAP2 DUP3 ADD SWAP1 DUP3 DUP3 LT PUSH8 0xFFFFFFFFFFFFFFFF DUP4 GT OR PUSH2 0x3B13 JUMPI MSTORE PUSH0 DUP2 MSTORE SWAP1 PUSH0 SWAP1 PUSH0 SWAP1 JUMP JUMPDEST ISZERO PUSH2 0x43BE JUMPI JUMP JUMPDEST PUSH1 0x40 MLOAD PUSH3 0x461BCD PUSH1 0xE5 SHL DUP2 MSTORE PUSH1 0x20 PUSH1 0x4 DUP3 ADD MSTORE PUSH1 0x11 PUSH1 0x24 DUP3 ADD MSTORE PUSH17 0x105B1C9958591E481C995D1C9858DD1959 PUSH1 0x7A SHL PUSH1 0x44 DUP3 ADD MSTORE PUSH1 0x64 SWAP1 REVERT JUMPDEST ISZERO PUSH2 0x43FE JUMPI JUMP JUMPDEST PUSH1 0x40 MLOAD PUSH3 0x461BCD PUSH1 0xE5 SHL DUP2 MSTORE PUSH1 0x20 PUSH1 0x4 DUP3 ADD MSTORE PUSH1 0xF PUSH1 0x24 DUP3 ADD MSTORE PUSH15 0x496E76616C69642061646472657373 PUSH1 0x88 SHL PUSH1 0x44 DUP3 ADD MSTORE PUSH1 0x64 SWAP1 REVERT JUMPDEST ISZERO PUSH2 0x443C JUMPI JUMP JUMPDEST PUSH1 0x40 MLOAD PUSH3 0x461BCD PUSH1 0xE5 SHL DUP2 MSTORE PUSH1 0x20 PUSH1 0x4 DUP3 ADD MSTORE PUSH1 0x11 PUSH1 0x24 DUP3 ADD MSTORE PUSH17 0x4C6576656C206D75737420626520312D33 PUSH1 0x78 SHL PUSH1 0x44 DUP3 ADD MSTORE PUSH1 0x64 SWAP1 REVERT JUMPDEST PUSH0 SLOAD PUSH1 0x40 MLOAD PUSH3 0xB0C809 PUSH1 0xE0 SHL DUP2 MSTORE CALLER PUSH1 0x4 DUP3 ADD MSTORE PUSH1 0x20 SWAP2 PUSH1 0x1 PUSH1 0x1 PUSH1 0xA0 SHL SUB AND SWAP1 DUP3 DUP2 PUSH1 0x24 DUP2 DUP6 GAS STATICCALL SWAP1 DUP2 ISZERO PUSH2 0x456B JUMPI PUSH0 SWAP2 PUSH2 0x4586 JUMPI JUMPDEST POP PUSH2 0x44B8 DUP2 ISZERO ISZERO PUSH2 0x3F52 JUMP JUMPDEST DUP4 ISZERO DUP1 ISZERO PUSH2 0x457D JUMPI JUMPDEST PUSH2 0x4576 JUMPI DUP3 SWAP1 PUSH1 0x44 PUSH1 0x40 MLOAD DUP1 SWAP5 DUP2 SWAP4 PUSH4 0x557EE54F PUSH1 0xE0 SHL DUP4 MSTORE DUP9 PUSH1 0x4 DUP5 ADD MSTORE PUSH1 0x24 DUP4 ADD MSTORE GAS STATICCALL SWAP1 DUP2 ISZERO PUSH2 0x456B JUMPI PUSH0 SWAP2 PUSH2 0x454E JUMPI JUMPDEST POP ISZERO PUSH2 0x44FF JUMPI POP SWAP1 JUMP JUMPDEST PUSH1 0x84 SWAP1 PUSH1 0x40 MLOAD SWAP1 PUSH3 0x461BCD PUSH1 0xE5 SHL DUP3 MSTORE PUSH1 0x4 DUP3 ADD MSTORE PUSH1 0x22 PUSH1 0x24 DUP3 ADD MSTORE PUSH32 0x4E6F74206120636F6E74726F6C6C657220666F722074686973206964656E7469 PUSH1 0x44 DUP3 ADD MSTORE PUSH2 0x7479 PUSH1 0xF0 SHL PUSH1 0x64 DUP3 ADD MSTORE REVERT JUMPDEST PUSH2 0x4565 SWAP2 POP DUP3 RETURNDATASIZE DUP5 GT PUSH2 0x824 JUMPI PUSH2 0x816 DUP2 DUP4 PUSH2 0x3B57 JUMP JUMPDEST PUSH0 PUSH2 0x44F5 JUMP JUMPDEST PUSH1 0x40 MLOAD RETURNDATASIZE PUSH0 DUP3 RETURNDATACOPY RETURNDATASIZE SWAP1 REVERT JUMPDEST SWAP3 POP POP POP SWAP1 JUMP JUMPDEST POP DUP1 DUP5 EQ PUSH2 0x44C1 JUMP JUMPDEST SWAP1 POP DUP3 DUP2 DUP2 RETURNDATASIZE DUP4 GT PUSH2 0x45AC JUMPI JUMPDEST PUSH2 0x459D DUP2 DUP4 PUSH2 0x3B57 JUMP JUMPDEST DUP2 ADD SUB SLT PUSH2 0xC44 JUMPI MLOAD PUSH0 PUSH2 0x44AC JUMP JUMPDEST POP RETURNDATASIZE PUSH2 0x4593 JUMP JUMPDEST SWAP1 PUSH0 DUP1 SWAP2 PUSH1 0x20 DUP2 MLOAD SWAP2 ADD DUP5 GAS DELEGATECALL DUP1 DUP1 PUSH2 0x4631 JUMPI JUMPDEST ISZERO PUSH2 0x45E7 JUMPI POP POP PUSH1 0x40 MLOAD RETURNDATASIZE DUP2 MSTORE RETURNDATASIZE PUSH0 PUSH1 0x20 DUP4 ADD RETURNDATACOPY PUSH1 0x20 RETURNDATASIZE DUP3 ADD ADD PUSH1 0x40 MSTORE SWAP1 JUMP JUMPDEST ISZERO PUSH2 0x460E JUMPI PUSH1 0x40 MLOAD PUSH4 0x9996B315 PUSH1 0xE0 SHL DUP2 MSTORE PUSH1 0x1 PUSH1 0x1 PUSH1 0xA0 SHL SUB SWAP1 SWAP2 AND PUSH1 0x4 DUP3 ADD MSTORE PUSH1 0x24 SWAP1 REVERT JUMPDEST RETURNDATASIZE ISZERO PUSH2 0x461F JUMPI PUSH1 0x40 MLOAD RETURNDATASIZE PUSH0 DUP3 RETURNDATACOPY RETURNDATASIZE SWAP1 REVERT JUMPDEST PUSH1 0x40 MLOAD PUSH4 0xD6BDA275 PUSH1 0xE0 SHL DUP2 MSTORE PUSH1 0x4 SWAP1 REVERT JUMPDEST POP RETURNDATASIZE ISZERO ISZERO DUP1 PUSH2 0x45C7 JUMPI POP DUP2 EXTCODESIZE ISZERO ISZERO PUSH2 0x45C7 JUMP INVALID LOG2 PUSH5 0x6970667358 0x22 SLT KECCAK256 0x2A 0xEF BALANCE 0xC1 PUSH16 0xEB66C4071CCFBBCFE3D2B38ADB27BC93 SWAP5 JUMPDEST 0x29 PUSH25 0xD4E17D4FC6A04F64736F6C6343000818003300000000000000 "},"methodIdentifiers":{"UPGRADE_INTERFACE_VERSION()":"ad3cb1cc","activeUnacceptedFlagCount(bytes32)":"dbc7b842","addRecordHash(bytes32,bytes32)":"c7567dfa","admin()":"f851a440","anchorRecord(bytes32,bytes32,bytes32)":"f36ddb4f","currentlyDisputed(bytes32,bytes32)":"10466a67","currentlyVerified(bytes32,bytes32)":"def0dec8","disputeIndex(bytes32,bytes32)":"8fc751ee","disputeRecord(bytes32,bytes32,uint8,uint8,string)":"3533d58c","disputes(bytes32,uint256)":"aeb2a19f","disputesByUser(bytes32,uint256)":"adcee102","doesHashExist(bytes32)":"1ee66770","flagUnacceptedUpdate(bytes32,bytes32,bytes32,bytes32)":"01f69935","getActiveRecordSubjects(bytes32)":"86519335","getActiveUnacceptedFlagCount(bytes32)":"249dda2e","getDisputeStats(bytes32)":"dfe36843","getDisputes(bytes32)":"d19d3661","getRecordIdForHash(bytes32)":"84debbf1","getRecordSubjects(bytes32)":"bf520465","getRecordVersionHistory(bytes32)":"e76ba193","getSubjectMedicalHistory(bytes32)":"c7695bab","getSubjectStats(bytes32)":"28837450","getTotalAnchoredRecords()":"d46e082f","getUnacceptedFlag(bytes32,bytes32)":"3fa8ea81","getUnacceptedFlags(bytes32)":"be4f9077","getUserDispute(bytes32,bytes32)":"42442226","getUserDisputes(bytes32)":"d08c800d","getUserVerification(bytes32,bytes32)":"045524a2","getUserVerifications(bytes32)":"e08f1ac3","getVerificationStats(bytes32)":"1166c389","getVerifications(bytes32)":"fcdd5261","getVersionCount(bytes32)":"de4920f4","hasActiveUnacceptedFlags(bytes32)":"5d28a342","hasUserDisputed(bytes32,bytes32)":"7628262e","hasUserVerified(bytes32,bytes32)":"e1628f0b","initialize(address)":"c4d66de8","isActiveSubject(bytes32,bytes32)":"64f639d4","isHashActive(bytes32)":"40ec2e9a","isSubject(bytes32,bytes32)":"d6989f09","isSubjectActive(bytes32,bytes32)":"a208f96c","isSubjectOfRecord(bytes32,bytes32)":"08d86517","memberRoleManager()":"15370703","modifyDispute(bytes32,uint8,uint8)":"056c925f","modifyVerificationLevel(bytes32,uint8)":"86fe96e1","proxiableUUID()":"52d1902d","reanchorRecord(bytes32,bytes32)":"9e3432c1","recordIdForHash(bytes32)":"5211e3b6","recordSubjects(bytes32,uint256)":"aca5964f","recordVersionHistory(bytes32,uint256)":"9afd307c","retractDispute(bytes32)":"d9e551fc","retractRecordHash(bytes32,bytes32)":"5a3ba1fa","retractVerification(bytes32)":"438b17cf","revokeUnacceptedFlag(bytes32,bytes32)":"6e95a051","setMemberRoleManager(address)":"dd0bc082","subjectMedicalHistory(bytes32,uint256)":"b27bb4d5","totalAnchoredRecords()":"1cf8cbe8","totalDisputes()":"c5e4ccc4","totalUnacceptedFlags()":"ac924336","totalVerifications()":"ac90c140","transferAdmin(address)":"75829def","unacceptedFlagIndex(bytes32,bytes32)":"8a7f882c","unacceptedFlagsBySubject(bytes32,uint256)":"f536eb2b","unanchorRecord(bytes32,bytes32)":"42deec25","upgradeToAndCall(address,bytes)":"4f1ef286","verificationIndex(bytes32,bytes32)":"741bfc1d","verifications(bytes32,uint256)":"d1e94e57","verificationsByUser(bytes32,uint256)":"b5e6b7a2","verifyRecord(bytes32,bytes32,uint8)":"7b470f6a"}},"storageLayout":{"storage":[{"astId":1551,"contract":"smartContracts/HealthRecordCore.sol:HealthRecordCore","label":"memberRoleManager","offset":0,"slot":"0","type":"t_contract(MemberRoleManagerInterface)1543"},{"astId":1553,"contract":"smartContracts/HealthRecordCore.sol:HealthRecordCore","label":"admin","offset":0,"slot":"1","type":"t_address"},{"astId":1851,"contract":"smartContracts/HealthRecordCore.sol:HealthRecordCore","label":"recordSubjects","offset":0,"slot":"2","type":"t_mapping(t_bytes32,t_array(t_bytes32)dyn_storage)"},{"astId":1857,"contract":"smartContracts/HealthRecordCore.sol:HealthRecordCore","label":"isSubjectOfRecord","offset":0,"slot":"3","type":"t_mapping(t_bytes32,t_mapping(t_bytes32,t_bool))"},{"astId":1862,"contract":"smartContracts/HealthRecordCore.sol:HealthRecordCore","label":"subjectMedicalHistory","offset":0,"slot":"4","type":"t_mapping(t_bytes32,t_array(t_bytes32)dyn_storage)"},{"astId":1868,"contract":"smartContracts/HealthRecordCore.sol:HealthRecordCore","label":"isSubjectActive","offset":0,"slot":"5","type":"t_mapping(t_bytes32,t_mapping(t_bytes32,t_bool))"},{"astId":1872,"contract":"smartContracts/HealthRecordCore.sol:HealthRecordCore","label":"recordIdForHash","offset":0,"slot":"6","type":"t_mapping(t_bytes32,t_bytes32)"},{"astId":1877,"contract":"smartContracts/HealthRecordCore.sol:HealthRecordCore","label":"recordVersionHistory","offset":0,"slot":"7","type":"t_mapping(t_bytes32,t_array(t_bytes32)dyn_storage)"},{"astId":1881,"contract":"smartContracts/HealthRecordCore.sol:HealthRecordCore","label":"isHashActive","offset":0,"slot":"8","type":"t_mapping(t_bytes32,t_bool)"},{"astId":1883,"contract":"smartContracts/HealthRecordCore.sol:HealthRecordCore","label":"totalAnchoredRecords","offset":0,"slot":"9","type":"t_uint256"},{"astId":2772,"contract":"smartContracts/HealthRecordCore.sol:HealthRecordCore","label":"verifications","offset":0,"slot":"10","type":"t_mapping(t_bytes32,t_array(t_struct(Verification)2738_storage)dyn_storage)"},{"astId":2778,"contract":"smartContracts/HealthRecordCore.sol:HealthRecordCore","label":"currentlyVerified","offset":0,"slot":"11","type":"t_mapping(t_bytes32,t_mapping(t_bytes32,t_bool))"},{"astId":2784,"contract":"smartContracts/HealthRecordCore.sol:HealthRecordCore","label":"verificationIndex","offset":0,"slot":"12","type":"t_mapping(t_bytes32,t_mapping(t_bytes32,t_uint256))"},{"astId":2790,"contract":"smartContracts/HealthRecordCore.sol:HealthRecordCore","label":"disputes","offset":0,"slot":"13","type":"t_mapping(t_bytes32,t_array(t_struct(Dispute)2755_storage)dyn_storage)"},{"astId":2796,"contract":"smartContracts/HealthRecordCore.sol:HealthRecordCore","label":"currentlyDisputed","offset":0,"slot":"14","type":"t_mapping(t_bytes32,t_mapping(t_bytes32,t_bool))"},{"astId":2802,"contract":"smartContracts/HealthRecordCore.sol:HealthRecordCore","label":"disputeIndex","offset":0,"slot":"15","type":"t_mapping(t_bytes32,t_mapping(t_bytes32,t_uint256))"},{"astId":2808,"contract":"smartContracts/HealthRecordCore.sol:HealthRecordCore","label":"unacceptedFlagsBySubject","offset":0,"slot":"16","type":"t_mapping(t_bytes32,t_array(t_struct(UnacceptedFlag)2766_storage)dyn_storage)"},{"astId":2814,"contract":"smartContracts/HealthRecordCore.sol:HealthRecordCore","label":"unacceptedFlagIndex","offset":0,"slot":"17","type":"t_mapping(t_bytes32,t_mapping(t_bytes32,t_uint256))"},{"astId":2818,"contract":"smartContracts/HealthRecordCore.sol:HealthRecordCore","label":"activeUnacceptedFlagCount","offset":0,"slot":"18","type":"t_mapping(t_bytes32,t_uint256)"},{"astId":2823,"contract":"smartContracts/HealthRecordCore.sol:HealthRecordCore","label":"verificationsByUser","offset":0,"slot":"19","type":"t_mapping(t_bytes32,t_array(t_bytes32)dyn_storage)"},{"astId":2828,"contract":"smartContracts/HealthRecordCore.sol:HealthRecordCore","label":"disputesByUser","offset":0,"slot":"20","type":"t_mapping(t_bytes32,t_array(t_bytes32)dyn_storage)"},{"astId":2830,"contract":"smartContracts/HealthRecordCore.sol:HealthRecordCore","label":"totalVerifications","offset":0,"slot":"21","type":"t_uint256"},{"astId":2832,"contract":"smartContracts/HealthRecordCore.sol:HealthRecordCore","label":"totalDisputes","offset":0,"slot":"22","type":"t_uint256"},{"astId":2834,"contract":"smartContracts/HealthRecordCore.sol:HealthRecordCore","label":"totalUnacceptedFlags","offset":0,"slot":"23","type":"t_uint256"},{"astId":4180,"contract":"smartContracts/HealthRecordCore.sol:HealthRecordCore","label":"__gap","offset":0,"slot":"24","type":"t_array(t_uint256)50_storage"}],"types":{"t_address":{"encoding":"inplace","label":"address","numberOfBytes":"20"},"t_array(t_bytes32)dyn_storage":{"base":"t_bytes32","encoding":"dynamic_array","label":"bytes32[]","numberOfBytes":"32"},"t_array(t_struct(Dispute)2755_storage)dyn_storage":{"base":"t_struct(Dispute)2755_storage","encoding":"dynamic_array","label":"struct HealthRecordCore.Dispute[]","numberOfBytes":"32"},"t_array(t_struct(UnacceptedFlag)2766_storage)dyn_storage":{"base":"t_struct(UnacceptedFlag)2766_storage","encoding":"dynamic_array","label":"struct HealthRecordCore.UnacceptedFlag[]","numberOfBytes":"32"},"t_array(t_struct(Verification)2738_storage)dyn_storage":{"base":"t_struct(Verification)2738_storage","encoding":"dynamic_array","label":"struct HealthRecordCore.Verification[]","numberOfBytes":"32"},"t_array(t_uint256)50_storage":{"base":"t_uint256","encoding":"inplace","label":"uint256[50]","numberOfBytes":"1600"},"t_bool":{"encoding":"inplace","label":"bool","numberOfBytes":"1"},"t_bytes32":{"encoding":"inplace","label":"bytes32","numberOfBytes":"32"},"t_contract(MemberRoleManagerInterface)1543":{"encoding":"inplace","label":"contract MemberRoleManagerInterface","numberOfBytes":"20"},"t_enum(DisputeCulpability)2726":{"encoding":"inplace","label":"enum HealthRecordCore.DisputeCulpability","numberOfBytes":"1"},"t_enum(DisputeSeverity)2719":{"encoding":"inplace","label":"enum HealthRecordCore.DisputeSeverity","numberOfBytes":"1"},"t_enum(VerificationLevel)2714":{"encoding":"inplace","label":"enum HealthRecordCore.VerificationLevel","numberOfBytes":"1"},"t_mapping(t_bytes32,t_array(t_bytes32)dyn_storage)":{"encoding":"mapping","key":"t_bytes32","label":"mapping(bytes32 => bytes32[])","numberOfBytes":"32","value":"t_array(t_bytes32)dyn_storage"},"t_mapping(t_bytes32,t_array(t_struct(Dispute)2755_storage)dyn_storage)":{"encoding":"mapping","key":"t_bytes32","label":"mapping(bytes32 => struct HealthRecordCore.Dispute[])","numberOfBytes":"32","value":"t_array(t_struct(Dispute)2755_storage)dyn_storage"},"t_mapping(t_bytes32,t_array(t_struct(UnacceptedFlag)2766_storage)dyn_storage)":{"encoding":"mapping","key":"t_bytes32","label":"mapping(bytes32 => struct HealthRecordCore.UnacceptedFlag[])","numberOfBytes":"32","value":"t_array(t_struct(UnacceptedFlag)2766_storage)dyn_storage"},"t_mapping(t_bytes32,t_array(t_struct(Verification)2738_storage)dyn_storage)":{"encoding":"mapping","key":"t_bytes32","label":"mapping(bytes32 => struct HealthRecordCore.Verification[])","numberOfBytes":"32","value":"t_array(t_struct(Verification)2738_storage)dyn_storage"},"t_mapping(t_bytes32,t_bool)":{"encoding":"mapping","key":"t_bytes32","label":"mapping(bytes32 => bool)","numberOfBytes":"32","value":"t_bool"},"t_mapping(t_bytes32,t_bytes32)":{"encoding":"mapping","key":"t_bytes32","label":"mapping(bytes32 => bytes32)","numberOfBytes":"32","value":"t_bytes32"},"t_mapping(t_bytes32,t_mapping(t_bytes32,t_bool))":{"encoding":"mapping","key":"t_bytes32","label":"mapping(bytes32 => mapping(bytes32 => bool))","numberOfBytes":"32","value":"t_mapping(t_bytes32,t_bool)"},"t_mapping(t_bytes32,t_mapping(t_bytes32,t_uint256))":{"encoding":"mapping","key":"t_bytes32","label":"mapping(bytes32 => mapping(bytes32 => uint256))","numberOfBytes":"32","value":"t_mapping(t_bytes32,t_uint256)"},"t_mapping(t_bytes32,t_uint256)":{"encoding":"mapping","key":"t_bytes32","label":"mapping(bytes32 => uint256)","numberOfBytes":"32","value":"t_uint256"},"t_string_storage":{"encoding":"bytes","label":"string","numberOfBytes":"32"},"t_struct(Dispute)2755_storage":{"encoding":"inplace","label":"struct HealthRecordCore.Dispute","members":[{"astId":2740,"contract":"smartContracts/HealthRecordCore.sol:HealthRecordCore","label":"disputerIdHash","offset":0,"slot":"0","type":"t_bytes32"},{"astId":2742,"contract":"smartContracts/HealthRecordCore.sol:HealthRecordCore","label":"recordIdHash","offset":0,"slot":"1","type":"t_bytes32"},{"astId":2745,"contract":"smartContracts/HealthRecordCore.sol:HealthRecordCore","label":"severity","offset":0,"slot":"2","type":"t_enum(DisputeSeverity)2719"},{"astId":2748,"contract":"smartContracts/HealthRecordCore.sol:HealthRecordCore","label":"culpability","offset":1,"slot":"2","type":"t_enum(DisputeCulpability)2726"},{"astId":2750,"contract":"smartContracts/HealthRecordCore.sol:HealthRecordCore","label":"notes","offset":0,"slot":"3","type":"t_string_storage"},{"astId":2752,"contract":"smartContracts/HealthRecordCore.sol:HealthRecordCore","label":"createdAt","offset":0,"slot":"4","type":"t_uint256"},{"astId":2754,"contract":"smartContracts/HealthRecordCore.sol:HealthRecordCore","label":"isActive","offset":0,"slot":"5","type":"t_bool"}],"numberOfBytes":"192"},"t_struct(UnacceptedFlag)2766_storage":{"encoding":"inplace","label":"struct HealthRecordCore.UnacceptedFlag","members":[{"astId":2757,"contract":"smartContracts/HealthRecordCore.sol:HealthRecordCore","label":"recordIdHash","offset":0,"slot":"0","type":"t_bytes32"},{"astId":2759,"contract":"smartContracts/HealthRecordCore.sol:HealthRecordCore","label":"reporterIdHash","offset":0,"slot":"1","type":"t_bytes32"},{"astId":2761,"contract":"smartContracts/HealthRecordCore.sol:HealthRecordCore","label":"recordHash","offset":0,"slot":"2","type":"t_bytes32"},{"astId":2763,"contract":"smartContracts/HealthRecordCore.sol:HealthRecordCore","label":"createdAt","offset":0,"slot":"3","type":"t_uint256"},{"astId":2765,"contract":"smartContracts/HealthRecordCore.sol:HealthRecordCore","label":"isActive","offset":0,"slot":"4","type":"t_bool"}],"numberOfBytes":"160"},"t_struct(Verification)2738_storage":{"encoding":"inplace","label":"struct HealthRecordCore.Verification","members":[{"astId":2728,"contract":"smartContracts/HealthRecordCore.sol:HealthRecordCore","label":"verifierIdHash","offset":0,"slot":"0","type":"t_bytes32"},{"astId":2730,"contract":"smartContracts/HealthRecordCore.sol:HealthRecordCore","label":"recordIdHash","offset":0,"slot":"1","type":"t_bytes32"},{"astId":2733,"contract":"smartContracts/HealthRecordCore.sol:HealthRecordCore","label":"level","offset":0,"slot":"2","type":"t_enum(VerificationLevel)2714"},{"astId":2735,"contract":"smartContracts/HealthRecordCore.sol:HealthRecordCore","label":"createdAt","offset":0,"slot":"3","type":"t_uint256"},{"astId":2737,"contract":"smartContracts/HealthRecordCore.sol:HealthRecordCore","label":"isActive","offset":0,"slot":"4","type":"t_bool"}],"numberOfBytes":"160"},"t_uint256":{"encoding":"inplace","label":"uint256","numberOfBytes":"32"}}}}}}