{"smartContracts/MemberRoleManager.sol":{"MemberRoleManager":{"abi":[{"inputs":[],"stateMutability":"nonpayable","type":"constructor"},{"inputs":[{"internalType":"address","name":"target","type":"address"}],"name":"AddressEmptyCode","type":"error"},{"inputs":[{"internalType":"address","name":"implementation","type":"address"}],"name":"ERC1967InvalidImplementation","type":"error"},{"inputs":[],"name":"ERC1967NonPayable","type":"error"},{"inputs":[],"name":"FailedCall","type":"error"},{"inputs":[],"name":"InvalidInitialization","type":"error"},{"inputs":[],"name":"NotInitializing","type":"error"},{"inputs":[],"name":"UUPSUnauthorizedCallContext","type":"error"},{"inputs":[{"internalType":"bytes32","name":"slot","type":"bytes32"}],"name":"UUPSUnsupportedProxiableUUID","type":"error"},{"anonymous":false,"inputs":[{"indexed":true,"internalType":"address","name":"oldAdmin","type":"address"},{"indexed":true,"internalType":"address","name":"newAdmin","type":"address"},{"indexed":false,"internalType":"uint256","name":"timestamp","type":"uint256"}],"name":"AdminTransferred","type":"event"},{"anonymous":false,"inputs":[{"indexed":true,"internalType":"address","name":"newAddress","type":"address"},{"indexed":false,"internalType":"uint256","name":"timestamp","type":"uint256"}],"name":"HealthRecordCoreUpdated","type":"event"},{"anonymous":false,"inputs":[{"indexed":false,"internalType":"uint64","name":"version","type":"uint64"}],"name":"Initialized","type":"event"},{"anonymous":false,"inputs":[{"indexed":true,"internalType":"address","name":"wallet","type":"address"},{"indexed":true,"internalType":"bytes32","name":"userIdHash","type":"bytes32"},{"indexed":false,"internalType":"uint256","name":"timestamp","type":"uint256"}],"name":"MemberRegistered","type":"event"},{"anonymous":false,"inputs":[{"indexed":true,"internalType":"bytes32","name":"userIdHash","type":"bytes32"},{"indexed":false,"internalType":"enum MemberRoleManager.MemberStatus","name":"oldStatus","type":"uint8"},{"indexed":false,"internalType":"enum MemberRoleManager.MemberStatus","name":"newStatus","type":"uint8"},{"indexed":true,"internalType":"address","name":"changedBy","type":"address"},{"indexed":false,"internalType":"uint256","name":"timestamp","type":"uint256"}],"name":"MemberStatusChanged","type":"event"},{"anonymous":false,"inputs":[{"indexed":true,"internalType":"bytes32","name":"recordIdHash","type":"bytes32"},{"indexed":true,"internalType":"bytes32","name":"userIdHash","type":"bytes32"},{"indexed":false,"internalType":"uint256","name":"timestamp","type":"uint256"}],"name":"OwnershipVoluntarilyLeft","type":"event"},{"anonymous":false,"inputs":[{"indexed":true,"internalType":"bytes32","name":"recordIdHash","type":"bytes32"},{"indexed":true,"internalType":"bytes32","name":"targetIdHash","type":"bytes32"},{"indexed":false,"internalType":"string","name":"oldRole","type":"string"},{"indexed":false,"internalType":"string","name":"newRole","type":"string"},{"indexed":true,"internalType":"bytes32","name":"userIdHash","type":"bytes32"},{"indexed":false,"internalType":"uint256","name":"timestamp","type":"uint256"}],"name":"RoleChanged","type":"event"},{"anonymous":false,"inputs":[{"indexed":true,"internalType":"bytes32","name":"recordIdHash","type":"bytes32"},{"indexed":true,"internalType":"bytes32","name":"targetIdHash","type":"bytes32"},{"indexed":false,"internalType":"string","name":"role","type":"string"},{"indexed":true,"internalType":"bytes32","name":"userIdHash","type":"bytes32"},{"indexed":false,"internalType":"uint256","name":"timestamp","type":"uint256"}],"name":"RoleGranted","type":"event"},{"anonymous":false,"inputs":[{"indexed":true,"internalType":"bytes32","name":"recordIdHash","type":"bytes32"},{"indexed":true,"internalType":"bytes32","name":"targetIdHash","type":"bytes32"},{"indexed":false,"internalType":"string","name":"role","type":"string"},{"indexed":true,"internalType":"bytes32","name":"userIdHash","type":"bytes32"},{"indexed":false,"internalType":"uint256","name":"timestamp","type":"uint256"}],"name":"RoleRevoked","type":"event"},{"anonymous":false,"inputs":[{"indexed":true,"internalType":"bytes32","name":"trustorIdHash","type":"bytes32"},{"indexed":true,"internalType":"bytes32","name":"trusteeIdHash","type":"bytes32"},{"indexed":false,"internalType":"enum MemberRoleManager.TrusteeLevel","name":"level","type":"uint8"},{"indexed":false,"internalType":"uint256","name":"timestamp","type":"uint256"}],"name":"TrusteeAccepted","type":"event"},{"anonymous":false,"inputs":[{"indexed":true,"internalType":"bytes32","name":"trustorIdHash","type":"bytes32"},{"indexed":true,"internalType":"bytes32","name":"trusteeIdHash","type":"bytes32"},{"indexed":false,"internalType":"uint256","name":"timestamp","type":"uint256"}],"name":"TrusteeDeclined","type":"event"},{"anonymous":false,"inputs":[{"indexed":true,"internalType":"bytes32","name":"trustorIdHash","type":"bytes32"},{"indexed":true,"internalType":"bytes32","name":"trusteeIdHash","type":"bytes32"},{"indexed":false,"internalType":"enum MemberRoleManager.TrusteeLevel","name":"oldLevel","type":"uint8"},{"indexed":false,"internalType":"enum MemberRoleManager.TrusteeLevel","name":"newLevel","type":"uint8"},{"indexed":false,"internalType":"uint256","name":"timestamp","type":"uint256"}],"name":"TrusteeLevelUpdated","type":"event"},{"anonymous":false,"inputs":[{"indexed":true,"internalType":"bytes32","name":"trustorIdHash","type":"bytes32"},{"indexed":true,"internalType":"bytes32","name":"trusteeIdHash","type":"bytes32"},{"indexed":false,"internalType":"enum MemberRoleManager.TrusteeLevel","name":"level","type":"uint8"},{"indexed":false,"internalType":"uint256","name":"timestamp","type":"uint256"}],"name":"TrusteeProposed","type":"event"},{"anonymous":false,"inputs":[{"indexed":true,"internalType":"bytes32","name":"trustorIdHash","type":"bytes32"},{"indexed":true,"internalType":"bytes32","name":"trusteeIdHash","type":"bytes32"},{"indexed":true,"internalType":"bytes32","name":"revokedBy","type":"bytes32"},{"indexed":false,"internalType":"uint256","name":"timestamp","type":"uint256"}],"name":"TrusteeRevoked","type":"event"},{"anonymous":false,"inputs":[{"indexed":true,"internalType":"address","name":"implementation","type":"address"}],"name":"Upgraded","type":"event"},{"anonymous":false,"inputs":[{"indexed":true,"internalType":"bytes32","name":"voucherIdHash","type":"bytes32"},{"indexed":true,"internalType":"bytes32","name":"voucheeIdHash","type":"bytes32"},{"indexed":false,"internalType":"uint256","name":"timestamp","type":"uint256"}],"name":"VouchGiven","type":"event"},{"anonymous":false,"inputs":[{"indexed":true,"internalType":"bytes32","name":"voucherIdHash","type":"bytes32"},{"indexed":true,"internalType":"bytes32","name":"voucheeIdHash","type":"bytes32"},{"indexed":false,"internalType":"uint256","name":"timestamp","type":"uint256"}],"name":"VouchRetracted","type":"event"},{"anonymous":false,"inputs":[{"indexed":true,"internalType":"address","name":"wallet","type":"address"},{"indexed":true,"internalType":"bytes32","name":"userIdHash","type":"bytes32"},{"indexed":false,"internalType":"uint256","name":"timestamp","type":"uint256"}],"name":"WalletLinked","type":"event"},{"inputs":[],"name":"UPGRADE_INTERFACE_VERSION","outputs":[{"internalType":"string","name":"","type":"string"}],"stateMutability":"view","type":"function"},{"inputs":[{"internalType":"bytes32","name":"trustorIdHash","type":"bytes32"}],"name":"acceptTrustee","outputs":[],"stateMutability":"nonpayable","type":"function"},{"inputs":[{"internalType":"address","name":"wallet","type":"address"},{"internalType":"bytes32","name":"userIdHash","type":"bytes32"}],"name":"addMember","outputs":[],"stateMutability":"nonpayable","type":"function"},{"inputs":[{"internalType":"address[]","name":"walletAddresses","type":"address[]"},{"internalType":"bytes32","name":"userIdHash","type":"bytes32"}],"name":"addMemberBatch","outputs":[],"stateMutability":"nonpayable","type":"function"},{"inputs":[],"name":"admin","outputs":[{"internalType":"address","name":"","type":"address"}],"stateMutability":"view","type":"function"},{"inputs":[{"internalType":"bytes32","name":"","type":"bytes32"},{"internalType":"uint256","name":"","type":"uint256"}],"name":"adminsByRecord","outputs":[{"internalType":"bytes32","name":"","type":"bytes32"}],"stateMutability":"view","type":"function"},{"inputs":[{"internalType":"bytes32","name":"trustorIdHash","type":"bytes32"},{"internalType":"bytes32","name":"trusteeIdHash","type":"bytes32"}],"name":"bootstrapDependentTrustee","outputs":[],"stateMutability":"nonpayable","type":"function"},{"inputs":[{"internalType":"bytes32","name":"recordIdHash","type":"bytes32"},{"internalType":"address","name":"targetWallet","type":"address"},{"internalType":"string","name":"newRole","type":"string"}],"name":"changeRole","outputs":[],"stateMutability":"nonpayable","type":"function"},{"inputs":[{"internalType":"bytes32[]","name":"recordIdHashes","type":"bytes32[]"},{"internalType":"address","name":"targetWallet","type":"address"},{"internalType":"string[]","name":"newRoles","type":"string[]"}],"name":"changeRoleBatch","outputs":[],"stateMutability":"nonpayable","type":"function"},{"inputs":[{"internalType":"address","name":"wallet","type":"address"}],"name":"deactivateWallet","outputs":[],"stateMutability":"nonpayable","type":"function"},{"inputs":[{"internalType":"bytes32","name":"trustorIdHash","type":"bytes32"}],"name":"declineTrustee","outputs":[],"stateMutability":"nonpayable","type":"function"},{"inputs":[{"internalType":"bytes32","name":"trustorIdHash","type":"bytes32"},{"internalType":"enum MemberRoleManager.TrusteeLevel","name":"newLevel","type":"uint8"}],"name":"downgradeTrusteeLevel","outputs":[],"stateMutability":"nonpayable","type":"function"},{"inputs":[{"internalType":"bytes32","name":"subjectIdHash","type":"bytes32"},{"internalType":"bytes32","name":"recordIdHash","type":"bytes32"}],"name":"extendTrusteeGrantsOnAnchor","outputs":[],"stateMutability":"nonpayable","type":"function"},{"inputs":[{"internalType":"bytes32","name":"recordIdHash","type":"bytes32"}],"name":"getAllRecordParticipants","outputs":[{"internalType":"bytes32[]","name":"owners","type":"bytes32[]"},{"internalType":"bytes32[]","name":"admins","type":"bytes32[]"},{"internalType":"bytes32[]","name":"sharers","type":"bytes32[]"},{"internalType":"bytes32[]","name":"viewers","type":"bytes32[]"}],"stateMutability":"view","type":"function"},{"inputs":[],"name":"getHealthRecordCore","outputs":[{"internalType":"address","name":"","type":"address"}],"stateMutability":"view","type":"function"},{"inputs":[{"internalType":"bytes32","name":"recordIdHash","type":"bytes32"}],"name":"getRecordAdmins","outputs":[{"internalType":"bytes32[]","name":"","type":"bytes32[]"}],"stateMutability":"view","type":"function"},{"inputs":[{"internalType":"bytes32","name":"recordIdHash","type":"bytes32"}],"name":"getRecordOwners","outputs":[{"internalType":"bytes32[]","name":"","type":"bytes32[]"}],"stateMutability":"view","type":"function"},{"inputs":[{"internalType":"bytes32","name":"recordIdHash","type":"bytes32"}],"name":"getRecordRoleStats","outputs":[{"internalType":"uint256","name":"ownerCount","type":"uint256"},{"internalType":"uint256","name":"adminCount","type":"uint256"},{"internalType":"uint256","name":"sharerCount","type":"uint256"},{"internalType":"uint256","name":"viewerCount","type":"uint256"}],"stateMutability":"view","type":"function"},{"inputs":[{"internalType":"bytes32","name":"recordIdHash","type":"bytes32"}],"name":"getRecordSharers","outputs":[{"internalType":"bytes32[]","name":"","type":"bytes32[]"}],"stateMutability":"view","type":"function"},{"inputs":[{"internalType":"bytes32","name":"recordIdHash","type":"bytes32"}],"name":"getRecordViewers","outputs":[{"internalType":"bytes32[]","name":"","type":"bytes32[]"}],"stateMutability":"view","type":"function"},{"inputs":[{"internalType":"bytes32","name":"recordIdHash","type":"bytes32"},{"internalType":"address","name":"wallet","type":"address"}],"name":"getRoleDetails","outputs":[{"internalType":"string","name":"role","type":"string"},{"internalType":"bool","name":"isActive","type":"bool"}],"stateMutability":"view","type":"function"},{"inputs":[{"internalType":"bytes32","name":"recordIdHash","type":"bytes32"},{"internalType":"bytes32","name":"userIdHash","type":"bytes32"}],"name":"getRoleDetailsByUser","outputs":[{"internalType":"string","name":"role","type":"string"},{"internalType":"bool","name":"isActive","type":"bool"}],"stateMutability":"view","type":"function"},{"inputs":[{"internalType":"bytes32","name":"recordIdHash","type":"bytes32"},{"internalType":"bytes32","name":"userIdHash","type":"bytes32"}],"name":"getRoleGranter","outputs":[{"internalType":"bytes32","name":"","type":"bytes32"}],"stateMutability":"view","type":"function"},{"inputs":[],"name":"getTotalUsers","outputs":[{"internalType":"uint256","name":"","type":"uint256"}],"stateMutability":"view","type":"function"},{"inputs":[{"internalType":"bytes32","name":"trustorIdHash","type":"bytes32"},{"internalType":"bytes32","name":"trusteeIdHash","type":"bytes32"}],"name":"getTrusteeGrantedRecords","outputs":[{"internalType":"bytes32[]","name":"","type":"bytes32[]"}],"stateMutability":"view","type":"function"},{"inputs":[{"internalType":"bytes32","name":"trustorIdHash","type":"bytes32"},{"internalType":"bytes32","name":"trusteeIdHash","type":"bytes32"}],"name":"getTrusteeRelationship","outputs":[{"internalType":"enum MemberRoleManager.TrusteeStatus","name":"status","type":"uint8"},{"internalType":"enum MemberRoleManager.TrusteeLevel","name":"level","type":"uint8"}],"stateMutability":"view","type":"function"},{"inputs":[{"internalType":"bytes32","name":"trustorIdHash","type":"bytes32"}],"name":"getTrusteesForTrustor","outputs":[{"internalType":"bytes32[]","name":"","type":"bytes32[]"}],"stateMutability":"view","type":"function"},{"inputs":[{"internalType":"address","name":"wallet","type":"address"}],"name":"getUserForWallet","outputs":[{"internalType":"bytes32","name":"","type":"bytes32"}],"stateMutability":"view","type":"function"},{"inputs":[{"internalType":"bytes32","name":"userIdHash","type":"bytes32"}],"name":"getUserStatus","outputs":[{"internalType":"enum MemberRoleManager.MemberStatus","name":"status","type":"uint8"}],"stateMutability":"view","type":"function"},{"inputs":[{"internalType":"bytes32","name":"voucherIdHash","type":"bytes32"},{"internalType":"bytes32","name":"voucheeIdHash","type":"bytes32"}],"name":"getVouchStatus","outputs":[{"internalType":"enum MemberRoleManager.VouchStatus","name":"","type":"uint8"}],"stateMutability":"view","type":"function"},{"inputs":[{"internalType":"bytes32","name":"voucherIdHash","type":"bytes32"}],"name":"getVouchesGiven","outputs":[{"internalType":"bytes32[]","name":"","type":"bytes32[]"}],"stateMutability":"view","type":"function"},{"inputs":[{"internalType":"bytes32","name":"voucheeIdHash","type":"bytes32"}],"name":"getVouchesReceived","outputs":[{"internalType":"bytes32[]","name":"","type":"bytes32[]"}],"stateMutability":"view","type":"function"},{"inputs":[{"internalType":"bytes32","name":"userIdHash","type":"bytes32"}],"name":"getWalletsForUser","outputs":[{"internalType":"address[]","name":"","type":"address[]"}],"stateMutability":"view","type":"function"},{"inputs":[{"internalType":"bytes32","name":"voucheeIdHash","type":"bytes32"}],"name":"giveVouch","outputs":[],"stateMutability":"nonpayable","type":"function"},{"inputs":[{"internalType":"bytes32","name":"recordIdHash","type":"bytes32"},{"internalType":"address","name":"targetWallet","type":"address"},{"internalType":"string","name":"role","type":"string"}],"name":"grantRole","outputs":[],"stateMutability":"nonpayable","type":"function"},{"inputs":[{"internalType":"bytes32[]","name":"recordIdHashes","type":"bytes32[]"},{"internalType":"address","name":"targetWallet","type":"address"},{"internalType":"string[]","name":"roles","type":"string[]"}],"name":"grantRoleBatch","outputs":[],"stateMutability":"nonpayable","type":"function"},{"inputs":[{"internalType":"bytes32","name":"recordIdHash","type":"bytes32"},{"internalType":"address","name":"wallet","type":"address"}],"name":"hasActiveRole","outputs":[{"internalType":"bool","name":"","type":"bool"}],"stateMutability":"view","type":"function"},{"inputs":[{"internalType":"bytes32","name":"recordIdHash","type":"bytes32"},{"internalType":"address","name":"wallet","type":"address"},{"internalType":"string","name":"role","type":"string"}],"name":"hasRole","outputs":[{"internalType":"bool","name":"","type":"bool"}],"stateMutability":"view","type":"function"},{"inputs":[{"internalType":"bytes32","name":"voucherIdHash","type":"bytes32"},{"internalType":"bytes32","name":"voucheeIdHash","type":"bytes32"}],"name":"hasVouched","outputs":[{"internalType":"bool","name":"","type":"bool"}],"stateMutability":"view","type":"function"},{"inputs":[],"name":"healthRecordCore","outputs":[{"internalType":"contract HealthRecordCoreInterface","name":"","type":"address"}],"stateMutability":"view","type":"function"},{"inputs":[],"name":"initialize","outputs":[],"stateMutability":"nonpayable","type":"function"},{"inputs":[{"internalType":"bytes32","name":"recordIdHash","type":"bytes32"},{"internalType":"address","name":"targetWallet","type":"address"},{"internalType":"string","name":"role","type":"string"}],"name":"initializeRecordRole","outputs":[],"stateMutability":"nonpayable","type":"function"},{"inputs":[{"internalType":"address","name":"wallet","type":"address"}],"name":"isActiveMember","outputs":[{"internalType":"bool","name":"","type":"bool"}],"stateMutability":"view","type":"function"},{"inputs":[{"internalType":"bytes32","name":"recordIdHash","type":"bytes32"},{"internalType":"bytes32","name":"userIdHash","type":"bytes32"}],"name":"isActiveSubject","outputs":[{"internalType":"bool","name":"","type":"bool"}],"stateMutability":"view","type":"function"},{"inputs":[{"internalType":"bytes32","name":"trustorIdHash","type":"bytes32"},{"internalType":"bytes32","name":"trusteeIdHash","type":"bytes32"}],"name":"isControllerOf","outputs":[{"internalType":"bool","name":"","type":"bool"}],"stateMutability":"view","type":"function"},{"inputs":[{"internalType":"bytes32","name":"recordIdHash","type":"bytes32"},{"internalType":"address","name":"wallet","type":"address"}],"name":"isOwnerOrAdmin","outputs":[{"internalType":"bool","name":"","type":"bool"}],"stateMutability":"view","type":"function"},{"inputs":[{"internalType":"address","name":"wallet","type":"address"}],"name":"isVerifiedMember","outputs":[{"internalType":"bool","name":"","type":"bool"}],"stateMutability":"view","type":"function"},{"inputs":[{"internalType":"address","name":"wallet","type":"address"}],"name":"isVerifiedProvider","outputs":[{"internalType":"bool","name":"","type":"bool"}],"stateMutability":"view","type":"function"},{"inputs":[{"internalType":"bytes32","name":"","type":"bytes32"},{"internalType":"uint256","name":"","type":"uint256"}],"name":"ownersByRecord","outputs":[{"internalType":"bytes32","name":"","type":"bytes32"}],"stateMutability":"view","type":"function"},{"inputs":[{"internalType":"bytes32","name":"trusteeIdHash","type":"bytes32"},{"internalType":"enum MemberRoleManager.TrusteeLevel","name":"level","type":"uint8"},{"internalType":"bytes32[]","name":"recordIdHashes","type":"bytes32[]"}],"name":"proposeTrustee","outputs":[],"stateMutability":"nonpayable","type":"function"},{"inputs":[],"name":"proxiableUUID","outputs":[{"internalType":"bytes32","name":"","type":"bytes32"}],"stateMutability":"view","type":"function"},{"inputs":[{"internalType":"address","name":"wallet","type":"address"}],"name":"reactivateWallet","outputs":[],"stateMutability":"nonpayable","type":"function"},{"inputs":[{"internalType":"bytes32","name":"","type":"bytes32"}],"name":"recordRoles","outputs":[{"internalType":"string","name":"role","type":"string"},{"internalType":"bool","name":"isActive","type":"bool"}],"stateMutability":"view","type":"function"},{"inputs":[{"internalType":"bytes32","name":"voucheeIdHash","type":"bytes32"}],"name":"retractVouch","outputs":[],"stateMutability":"nonpayable","type":"function"},{"inputs":[{"internalType":"bytes32","name":"recordIdHash","type":"bytes32"},{"internalType":"address","name":"targetWallet","type":"address"}],"name":"revokeRole","outputs":[],"stateMutability":"nonpayable","type":"function"},{"inputs":[{"internalType":"bytes32[]","name":"recordIdHashes","type":"bytes32[]"},{"internalType":"address","name":"targetWallet","type":"address"}],"name":"revokeRoleBatch","outputs":[],"stateMutability":"nonpayable","type":"function"},{"inputs":[{"internalType":"bytes32","name":"trustorIdHash","type":"bytes32"},{"internalType":"bytes32","name":"trusteeIdHash","type":"bytes32"}],"name":"revokeTrustee","outputs":[],"stateMutability":"nonpayable","type":"function"},{"inputs":[{"internalType":"bytes32","name":"","type":"bytes32"}],"name":"roleGrantedBy","outputs":[{"internalType":"bytes32","name":"","type":"bytes32"}],"stateMutability":"view","type":"function"},{"inputs":[{"internalType":"address","name":"_healthRecordCore","type":"address"}],"name":"setHealthRecordCore","outputs":[],"stateMutability":"nonpayable","type":"function"},{"inputs":[{"internalType":"bytes32","name":"userIdHash","type":"bytes32"},{"internalType":"enum MemberRoleManager.MemberStatus","name":"newStatus","type":"uint8"}],"name":"setUserStatus","outputs":[],"stateMutability":"nonpayable","type":"function"},{"inputs":[{"internalType":"bytes32","name":"","type":"bytes32"},{"internalType":"uint256","name":"","type":"uint256"}],"name":"sharersByRecord","outputs":[{"internalType":"bytes32","name":"","type":"bytes32"}],"stateMutability":"view","type":"function"},{"inputs":[],"name":"totalUsers","outputs":[{"internalType":"uint256","name":"","type":"uint256"}],"stateMutability":"view","type":"function"},{"inputs":[{"internalType":"address","name":"newAdmin","type":"address"}],"name":"transferAdmin","outputs":[],"stateMutability":"nonpayable","type":"function"},{"inputs":[{"internalType":"bytes32","name":"","type":"bytes32"},{"internalType":"bytes32","name":"","type":"bytes32"}],"name":"trusteeRelationships","outputs":[{"internalType":"enum MemberRoleManager.TrusteeStatus","name":"status","type":"uint8"},{"internalType":"enum MemberRoleManager.TrusteeLevel","name":"level","type":"uint8"}],"stateMutability":"view","type":"function"},{"inputs":[{"internalType":"bytes32","name":"","type":"bytes32"},{"internalType":"uint256","name":"","type":"uint256"}],"name":"trusteesByTrustor","outputs":[{"internalType":"bytes32","name":"","type":"bytes32"}],"stateMutability":"view","type":"function"},{"inputs":[{"internalType":"bytes32","name":"trusteeIdHash","type":"bytes32"},{"internalType":"enum MemberRoleManager.TrusteeLevel","name":"newLevel","type":"uint8"}],"name":"updateTrusteeLevel","outputs":[],"stateMutability":"nonpayable","type":"function"},{"inputs":[{"internalType":"address","name":"newImplementation","type":"address"},{"internalType":"bytes","name":"data","type":"bytes"}],"name":"upgradeToAndCall","outputs":[],"stateMutability":"payable","type":"function"},{"inputs":[{"internalType":"bytes32","name":"","type":"bytes32"}],"name":"userStatus","outputs":[{"internalType":"enum MemberRoleManager.MemberStatus","name":"","type":"uint8"}],"stateMutability":"view","type":"function"},{"inputs":[{"internalType":"bytes32","name":"","type":"bytes32"},{"internalType":"uint256","name":"","type":"uint256"}],"name":"userWallets","outputs":[{"internalType":"address","name":"","type":"address"}],"stateMutability":"view","type":"function"},{"inputs":[{"internalType":"bytes32","name":"","type":"bytes32"},{"internalType":"uint256","name":"","type":"uint256"}],"name":"viewersByRecord","outputs":[{"internalType":"bytes32","name":"","type":"bytes32"}],"stateMutability":"view","type":"function"},{"inputs":[{"internalType":"bytes32","name":"recordIdHash","type":"bytes32"}],"name":"voluntarilyLeaveOwnership","outputs":[],"stateMutability":"nonpayable","type":"function"},{"inputs":[{"internalType":"bytes32","name":"","type":"bytes32"},{"internalType":"bytes32","name":"","type":"bytes32"}],"name":"vouches","outputs":[{"internalType":"enum MemberRoleManager.VouchStatus","name":"","type":"uint8"}],"stateMutability":"view","type":"function"},{"inputs":[{"internalType":"bytes32","name":"","type":"bytes32"},{"internalType":"uint256","name":"","type":"uint256"}],"name":"vouchesGiven","outputs":[{"internalType":"bytes32","name":"","type":"bytes32"}],"stateMutability":"view","type":"function"},{"inputs":[{"internalType":"bytes32","name":"","type":"bytes32"},{"internalType":"uint256","name":"","type":"uint256"}],"name":"vouchesReceived","outputs":[{"internalType":"bytes32","name":"","type":"bytes32"}],"stateMutability":"view","type":"function"},{"inputs":[{"internalType":"address","name":"","type":"address"}],"name":"wallets","outputs":[{"internalType":"bytes32","name":"userIdHash","type":"bytes32"},{"internalType":"bool","name":"isWalletActive","type":"bool"}],"stateMutability":"view","type":"function"}],"evm":{"bytecode":{"linkReferences":{},"object":"60a08060405234620000d157306080527ff0c57e16840df040f15088dc2f81fe391c3923bec73e23a9662efc9c229c6a009081549060ff8260401c16620000c257506001600160401b036002600160401b0319828216016200007c575b604051615c219081620000d68239608051818181612e8601526132b10152f35b6001600160401b031990911681179091556040519081527fc7f505b2f371ae2175ee4913f4499e1f2633a7b5936321eed1cdaeb6115181d290602090a15f80806200005c565b63f92ee8a960e01b8152600490fd5b5f80fdfe6080604090808252600480361015610015575f80fd5b5f3560e01c918262b0c809146144a75750816302ba8109146142aa578163033e822f146142815781630519e2a01461425b5781630a296a7b146142495781630b3ffd1d1461418c578163259ed80e1461416757816329c9087a14613a845781632ab5d8f314613a5b5781632ae8511d146138d257816330d7265c146137c057816333105592146137835781633befa4101461376857816341a51baa1461373f578163422a5bb81461370b57816343e19704146136b957816345ecd02f1461369957816349df7208146135595781634d3c4a7c1461345e5781634f1ef2861461326157816351eed47214612eea57816352d1902d14612e73578163557ee54f14612dd75781635581607914612da7578163562c788e146109ec57816364f639d414612d8c57816368309c8914612d5c57816369ac202214612b695781636b4bed9714610660578163726d54471461284957816373c19c8d1461274c57816375829def146126ce57816378ad8f5b1461262a5781637b657d07146125ed5781638129fc1c146124d05781638776cd35146124a05781638806e5911461247757816389b08f11146124325781638db7edb4146123e357816393ccfba8146123b35781639443cd801461236d57816396207e021461222957816396a03f8d146121f95781639915b91f146121815781639be572f614611e5b578163aaddc34514612155578163ab48384a14612050578163ad3cb1cc1461200c578163b8cab84b14611f2e578163bb0f86d514611e77578163bff1f9e114611e5b578163c36dc9ef14611e32578163c497d84014611e03578163c715582314611d87578163c88c35fe14611d61578163c979c9bf14611ad2578163cb261a0314611aa4578163cda06c6e14611a7d578163d12a7768146119ce578163d1f616dd146119a5578163d547741f146114e9578163db54f7b7146112c6578163dc9f9664146110b6578163dde492ea14610ca6578163dff1bea014610c6b578163e6efcd5d14610a14578163e94ed257146109ec578163f12b9ad31461068f578163f29e007b14610660578163f32b10f014610630578163f50936c9146105f0578163f76794f1146103f857508063f851a440146103d1578063fc78f177146103995763fdd9887e14610358575f80fd5b34610395576103663661474c565b91905f52600d602052805f2080548310156103955760209261038791614919565b91905490519160031b1c8152f35b5f80fd5b5034610395576020906103ab3661474c565b905f5260108352815f20905f52825260ff815f2054169051906103cd81614762565b8152f35b5034610395575f366003190112610395575f5490516001600160a01b039091168152602090f35b823461039557602091826003193601126103955780359261042061041b33615167565b61496f565b335f52600193848252835f205492815f52600c8352845f20845f528352845f209081549160ff918860ff851661045581614942565b036105ad5760ff1980941617905584837fc1f9bda0602b12c2f11218f87531038a6957666101c4faad39c882dcc5093dc6868951428152a3825f52600e8452855f20855f528452855f20875f905b6104c5575b6104c3888888885f52600e8152825f20915f52525f2061502c565b005b81548110156105a857908882888a6104e08498979686614919565b90549060031b1c895f52600f8b52815f20835f528b52815f20815f528b52815f2088815416905561051183826152c2565b5f528a60058082528887855f200154161561059e578493600b5f80516020615bac8339815191529361054387876152c2565b93845f52808252610555845f206147fa565b94610561868a8a615443565b5f52815289835f20018d8154169055525f818120558d61058a825193838594855284019061489c565b9042908301520390a45b01909192936104a3565b5050505050610594565b6104a8565b875162461bcd60e51b8152908101869052601e60248201527f4e6f2070656e64696e672070726f706f73616c20746f206465636c696e6500006044820152606490fd5b82346103955760203660031901126103955761062c91355f526012602052610619815f20614a42565b9051918291602083526020830190614719565b0390f35b82346103955761063f3661474c565b91905f526008602052805f2080548310156103955760209261038791614919565b823461039557602036600319011261039557602091355f526002825260ff815f2054169051906103cd81614942565b823461039557806003193601126103955781356001600160401b038111610395576106bd9036908401614589565b916106c66144f1565b6106d261041b33615167565b6001600160a01b03169081156109b85750335f52600192602060018152835f2054925f52835f2054916107068315156149f6565b855f9584861415915b61071557005b82518710156104c35787876107358761072f849b88614f9d565b516156ae565b156109b35787876107508161074a858a614f9d565b516152c2565b805f526005808a52610763875f206147fa565b91858b8a8c865183880120610776614c90565b84815191012081146109a457610796896107908785614f9d565b51615354565b6109a4578793899361087a575b6107ab614cb1565b805191012014610821575b6107c9936107c391614f9d565b51615443565b5f52895284865f200160ff198154169055600b89525f868120555f80516020615bac8339815191526108116107fe868b614f9d565b519288519182918a83528a83019061489c565b428d8301520390a45b019661070f565b905061082e929150614f9d565b515f5260068b52858a895f2054158061085a575b61084e578585916107b6565b5050505050505061081a565b509061086591614f9d565b515f5260078b52858a888a5f20541115610842565b925092508b61089c61088c8684614f9d565b518b610896614c90565b916152f6565b8a6108b46108aa8886614f9d565b5182610896614cb1565b928a8c6108bf614cfc565b8881519101208914801561098e575b1561091e575050885f52600b86525f20541490159182610915575b508161090c575b506108fe57869288926107a3565b50505050505050505061081a565b9050155f6108f0565b1591505f6108e9565b969392509693905061092e614cb1565b8381519101208414610942575b50506107a3565b9194509194506109528684614f9d565b515f908152600685528e902054156109765750155b6108fe57869288925f8061093b565b90159081610985575b50610967565b9050155f61097f565b50610997614cda565b88815191012089146108ce565b5050505050505050505061081a565b61081a565b606490602084519162461bcd60e51b8352820152600e60248201526d125b9d985b1a59081dd85b1b195d60921b6044820152fd5b8234610395575f36600319011261039557600a5490516001600160a01b039091168152602090f35b823461039557610a233661474c565b91610a3860018060a01b035f54163314614ae1565b8115610c3757610a49831515615098565b610a55838314156150d6565b815f526002602081815260ff835f205416610a6f81614942565b15610bfc57845f52818152610a9460ff845f205416610a8d81614942565b1515615122565b835f52600c8152825f20855f52815260ff835f20541695610ab487614942565b861590818015610be9575b15610b975750610af17fc5b2e1bd4433eb4e9e181cc803520513d39d918c96bddeebca1224e1c750963d959697614942565b610b7f575b610b438351610b0481614507565b838152828101848152875f52600c8452855f20895f528452610b33865f209251610b2d81614942565b83614ed1565b5190610b3e82614762565b614f57565b85857f494d010fdf588a0e83d626ea6963187bdda6f88b7007f7bf280683d3f7dea8348580518681524286820152a382519182524290820152a3005b845f52600d8152610b9286845f2061505c565b610af6565b845162461bcd60e51b8152908101839052602660248201527f52656c6174696f6e7368697020616c726561647920616374697665206f722070604482015265656e64696e6760d01b6064820152608490fd5b50610bf388614942565b60038814610abf565b8560649184519162461bcd60e51b83528201526016602482015275151c9d5cdd1bdc881b9bdd081c9959da5cdd195c995960521b6044820152fd5b5162461bcd60e51b8152602081850152600f60248201526e24b73b30b634b2103a393ab9ba37b960891b6044820152606490fd5b823461039557602090610c7d3661474c565b905f5260108352815f20905f528252600160ff825f20541691610c9f83614762565b5191148152f35b90503461039557610cb636614780565b919290610cc561041b33615167565b610cd0841515614b5e565b6001600160a01b031692610ce5841515614baa565b610cf6610cf18461524a565b614bf6565b335f5260209160018352855f2054945f52855f205492610d178415156149f6565b845181860120610d2787856152c2565b5f526005825260ff6001895f200154161561107557835f5260068252875f2054151590610d5c610d55614c90565b89876152f6565b91610d6f610d68614cb1565b8a886152f6565b91610d82610d7b614cda565b8b896152f6565b90610d8b614c90565b8051908701208103610ec957505015610e6f575015610e2d575b610daf84846152c2565b5f526005815260ff6001885f20015416610dcf5750506104c394506156b8565b865162461bcd60e51b815291820152603360248201527f54617267657420616c726561647920686173206120726f6c652e2055736520636044820152721a185b99d9549bdb194a0a481a5b9cdd195859606a1b606482015260849150fd5b865162461bcd60e51b815291820181905260248201527f4f6e6c79206f776e6572732063616e206772616e74206f776e657220726f6c65604482015260649150fd5b9050610da557865162461bcd60e51b815291820152602960248201527f4f6e6c792061646d696e6973747261746f72732063616e206772616e742066696044820152683939ba1037bbb732b960b91b606482015260849150fd5b90929150610ed5614cb1565b8051908601208103610f4d575090508115610f45575b50610da557865162461bcd60e51b815291820152603b60248201525f80516020615bcc83398151915260448201527f616e206772616e742061646d696e6973747261746f7220726f6c650000000000606482015260849150fd5b90505f610eeb565b610f55614cda565b8051908601208103610fc4575090508115610fbc575b50610da557865162461bcd60e51b815291820152603460248201525f80516020615bcc833981519152604482015273616e206772616e742073686172657220726f6c6560601b606482015260849150fd5b90505f610f6b565b610fcc614cfc565b85815191012014610fe0575b505050610da5565b821561106d575b508115611065575b5015610ffd575f8080610fd8565b865162461bcd60e51b815291820152603e60248201527f4f6e6c79206f776e6572732c2061646d696e6973747261746f72732c20616e6460448201527f20736861726572732063616e206772616e742076696577657220726f6c650000606482015260849150fd5b90505f610fef565b91505f610fe7565b60648383808b519262461bcd60e51b845283015260248201527f596f752068617665206e6f20726f6c6520666f722074686973207265636f72646044820152fd5b9050346103955760603660031901126103955780356024356003811015610395576044356001600160401b038111610395576110f59036908501614589565b9161110261041b33615167565b335f52600193602060018152865f20549161111e841515615098565b61112a848414156150d6565b835f526002825261114460ff895f205416610a8d81614942565b825f52600c8252875f20845f52825260ff885f20541661116381614942565b8015918280156112b3575b80156112a1575b1561125057508798859385936111ab7f494d010fdf588a0e83d626ea6963187bdda6f88b7007f7bf280683d3f7dea83494614942565b611238575b6111f182516111be81614507565b600181528281016111ce8b614762565b8a8152865f52600c8452845f20885f528452610b33855f209251610b2d81614942565b8151906111fd89614762565b8882524290820152a35f945b61120f57005b83518510156104c357858561123185858561122b869b8b614f9d565b516154ee565b0194611209565b835f52600d815261124b85835f2061505c565b6111b0565b895162461bcd60e51b8152908101849052602560248201527f50726f706f73616c20616c726561647920657869737473206f722069732070656044820152646e64696e6760d81b6064820152608490fd5b506112ab82614942565b808214611175565b506112bd82614942565b6003821461116e565b90503461039557602080600319360112610395578135926112e961041b33615167565b335f5260018252805f20549284156114b65784841461147557845f526002835260ff825f20541661131981614942565b816002821491821561145d575b8215611449575b50501561140957835f5260108352815f20855f528352600160ff835f20541661135581614762565b146113c85750907fbc7e6071d162923d46a4378af39747cea2ccb6f4a57f09aefc6e92047c5bf1be91835f5260108252805f20855f528252805f20600160ff19825416179055835f52601182526113ae85825f2061505c565b845f52601282526113c184825f2061505c565b51428152a3005b82606492519162461bcd60e51b8352820152601e60248201527f416c726561647920766f756368696e6720666f722074686973207573657200006044820152fd5b8280606493519262461bcd60e51b845283015260248201527f566f7563686565206d75737420626520616e20616374697665206d656d6265726044820152fd5b90915061145581614942565b14815f61132d565b80925061146a9150614942565b816003821491611326565b82606492519162461bcd60e51b8352820152601960248201527f43616e6e6f7420766f75636820666f7220796f757273656c66000000000000006044820152fd5b82606492519162461bcd60e51b8352820152600f60248201526e496e76616c696420766f756368656560881b6044820152fd5b823461039557806003193601126103955781356115046144f1565b61151061041b33615167565b61151b821515614b5e565b6001600160a01b031692611530841515614baa565b335f5260209260018452805f2054945f52805f2054936115518515156149f6565b61155b85856152c2565b805f526005825261157460ff6001855f20015416614c38565b805f5260058252611586835f206147fa565b93845183860120611595614c90565b848151910120811461192e576115ab8888615354565b61189f578789036116b9575b6115bf614cb1565b84815191012014611624575b50908392916115e95f80516020615bac833981519152958888615443565b5f52600581526001825f200160ff198154169055600b81525f82812055611619825193838594855284019061489c565b9042908301520390a4005b855f52600783526001845f20541160068452845f2054151581156116b1575b506115cb57835162461bcd60e51b8152908101839052603960248201527f43616e6e6f74207265766f6b65206c6173742061646d696e6973747261746f7260448201527f20776974686f757420616e206f776e65722070726573656e74000000000000006064820152608490fd5b905089611643565b6116cb6116c4614c90565b8a896152f6565b6116dd6116d6614cb1565b8b8a6152f6565b845f52600b86528a875f205414906116f3614cfc565b87815191012084148015611889575b156117ae5782156117a6575b50811561179e575b5015611722575b6115b7565b845162461bcd60e51b8152808301859052604a60248201527f4f6e6c79206f776e6572732c2061646d696e6973747261746f72732c206f722060448201527f746865206772616e7465722063616e207265766f6b65207669657765722f73686064820152696172657220726f6c657360b01b608482015260a490fd5b90508a611716565b91508b61170e565b821592915082611881575b501561183957156115b7576117cc614cb1565b848151910120810361171d57865f5260068452845f20541561171d57845162461bcd60e51b8152808301859052602560248201527f4f6e6c79206f776e6572732063616e207265766f6b652061646d696e6973747260448201526461746f727360d81b6064820152608490fd5b855162461bcd60e51b8152808401869052602f60248201525f80516020615bcc83398151915260448201526e616e207265766f6b6520726f6c657360881b6064820152608490fd5b90508b6117b9565b50611892614cda565b8781519101208414611702565b845162461bcd60e51b8152808301859052605760248201527f43616e6e6f74207265766f6b6520616e20616374697665207375626a6563742760448201527f7320726f6c652e20416374697665207375626a65637473206d75737420686f6c60648201527f64206174206c656173742073686172657220726f6c652e000000000000000000608482015260a490fd5b845162461bcd60e51b8152808301859052604560248201527f4f776e6572732063616e6e6f74206265207265766f6b65642e204f776e65722060448201527f6d7573742075736520766f6c756e746172696c794c656176654f776e6572736860648201526434b814149760d91b608482015260a490fd5b82346103955760203660031901126103955761062c91355f52600d602052610619815f20614a42565b9050346103955760209081600319360112610395578290355f5260038252805f208151928381835491828152019081935f52825f20905f5b818110611a605750505084611a1c910385614551565b825181815293518185018190528493840192915f5b828110611a4057505050500390f35b83516001600160a01b031685528695509381019392810192600101611a31565b82546001600160a01b031684529284019260019283019201611a06565b823461039557602036600319011261039557602091355f52600b8252805f20549051908152f35b823461039557602036600319011261039557602090611ac9611ac46144db565b615931565b90519015158152f35b823461039557611ae13661474c565b9092611aef61041b33615167565b335f52600193602091858352845f2054908282148015611d58575b15611d1757825f52600c8452855f20855f52845260ff9060ff875f205416611b3181614942565b8860028214918215611d03575b505015611cb65750825f52600c8452855f20855f528452855f2090600360ff19926003848254161790558387867f6df3a6475fab2eed139f7e469995b04e85bfc5b4b8642587109cb72541f74fae898c51428152a4845f52600e8652875f20875f528652875f20895f905b611bc9575b6104c38a8a8a8a5f52600e8152825f20915f52525f2061502c565b8154811015611cb157908a82878b8d8c611be8869c9b9a999888614919565b905490891b1c918d5f52600f8252805f20845f528252805f20835f528252805f208b8154169055611c1984846152c2565b5f526005908183528a88825f2001541615611ca6575f80516020615bac83398151915292611c4786866152c2565b92835f52808252611c59835f206147fa565b93611c65858989615443565b5f52815288825f20018d8154169055600b81525f82812055611c90825193838594855284019061489c565b9042908301520390a45b01909192939495611ba9565b505050505050611c9a565b611bae565b865162461bcd60e51b8152908101859052602160248201527f4e6f20616374697665206f722070656e64696e672072656c6174696f6e7368696044820152600760fc1b6064820152608490fd5b909150611d0f81614942565b14888a611b3e565b606490848088519262461bcd60e51b845283015260248201527f4e6f74206120706172747920746f20746869732072656c6174696f6e736869706044820152fd5b50848214611b0a565b8234610395578060031936011261039557611ac9602092611d806144f1565b9035614fef565b8234610395576020366003190112610395577fce59ad7d6dabe8a7533ed7d9bd07d276a046ac7ac9a8e8e8971da4b81104a28b6020611dc46144db565b5f546001600160a01b039190611ddd9083163314614ae1565b1692611dea841515614fb1565b600a80546001600160a01b0319168517905551428152a2005b82346103955761062c90611e163661474c565b905f52600e602052815f20905f52602052610619815f20614a42565b82346103955760203660031901126103955761062c91355f526006602052610619815f20614a42565b8234610395575f36600319011261039557602091549051908152f35b90503461039557602036600319011261039557611e926144db565b5f546001600160a01b039190611eab9083163314614ae1565b16805f5260019182602052611ec4845f20541515614b1a565b815f528260205260ff83855f20015416611ef357509181925f52816020525f20019060ff198254161790555f80f35b606490602085519162461bcd60e51b8352820152601560248201527457616c6c657420616c72656164792061637469766560581b6044820152fd5b8234610395576020908160031936011261039557823591611f5161041b33615167565b335f5260018152815f205493835f52600c8252825f20855f528252825f2090815490600160ff8316611f8281614942565b03611fd3575060ff19166002179081905582517fc5b2e1bd4433eb4e9e181cc803520513d39d918c96bddeebca1224e1c750963d9392909160081c60ff16611fc981614762565b82524290820152a3005b845162461bcd60e51b81529081018490526013602482015272139bc81c195b991a5b99c81c1c9bdc1bdcd85b606a1b6044820152606490fd5b8234610395575f36600319011261039557805161062c9161202c82614507565b60058252640352e302e360dc1b60208301525191829160208352602083019061489c565b90503461039557612060366148fa565b9161206d61041b33615167565b335f526001602052835f205490815f52600c602052845f20835f52602052845f2060ff81546120a960028383166120a381614942565b14614f0b565b60081c16916120b786614762565b6120c083614762565b85831461211257507fb36ec3c738ef8ecd9180addc815304762374b76e91c2a321831d9906ea119ade61210a85936104c3986120fd898896614f57565b5191829189429184614f76565b0390a36155d9565b606490602088519162461bcd60e51b8352820152601860248201527f416c72656164792074686973207472757374206c6576656c00000000000000006044820152fd5b82346103955760209061217061216a3661474c565b906152c2565b5f52600b8252805f20549051908152f35b8234610395576121903661474c565b905f52600c602052815f20905f52602052805f2061062c60ff8351926121b584614507565b548181166121c281614942565b845260081c169160208101926121d781614762565b835251916121e483614942565b51926121ef84614762565b519283928361494c565b8234610395576122083661474c565b91905f526012602052805f2080548310156103955760209261038791614919565b823461039557806003193601126103955781359060243560058110156103955761225d60018060a01b035f54163314614ae1565b825f5260206002815260ff835f20541661227681614942565b1561233557835f526002815260ff835f2054169461229383614942565b61229c86614942565b8286146122fe5750835f52600281526122b782845f20614ed1565b8251946122c381614942565b85526122ce82614942565b84015242908301527ff6277c6ee46649823db9a5c531db3112b4340c67179cae1932ba3420dcc37cc760603393a3005b60649184519162461bcd60e51b83528201526013602482015272416c726561647920746869732073746174757360681b6044820152fd5b8460649184519162461bcd60e51b83528201526013602482015272155cd95c881b9bdd081c9959da5cdd195c9959606a1b6044820152fd5b82346103955761237c3661474c565b91905f526003602052805f2080548310156103955760209261239d91614919565b60018060a01b0391549060031b1c169051908152f35b8234610395576123c23661474c565b91905f526009602052805f2080548310156103955760209261038791614919565b82346103955760208060031936011261039557608092355f5260068152815f20549160078252805f20549060088352805f20549160098452815f20549382519586528501528301526060820152f35b8234610395576020366003190112610395576001600160a01b036124546144db565b165f526001602052805f2060ff6001825492015416825191825215156020820152f35b82346103955760203660031901126103955761062c91355f526011602052610619815f20614a42565b8234610395576124af3661474c565b91905f526007602052805f2080548310156103955760209261038791614919565b905034610395575f366003190112610395577ff0c57e16840df040f15088dc2f81fe391c3923bec73e23a9662efc9c229c6a0090815460ff81851c1615916001600160401b038216801590816125e5575b60011490816125db575b1590816125d2575b506125c4575067ffffffffffffffff1981166001178355816125a5575b505f80546001600160a01b0319163317905561256857005b805468ff00000000000000001916905551600181527fc7f505b2f371ae2175ee4913f4499e1f2633a7b5936321eed1cdaeb6115181d290602090a1005b68ffffffffffffffffff1916680100000000000000011782555f612550565b845163f92ee8a960e01b8152fd5b9050155f612533565b303b15915061252b565b849150612521565b82346103955761062c906126003661474c565b905f52600c602052815f20905f52602052805f20549051918160ff80859460081c1691168361494c565b82346103955760209182600319360112610395576126a69261062c91355f52600681526126c0835f209360078352805f2094600884526126b3825f20946009815261269261268c612686612680875f2096614a42565b9a614a42565b97614a42565b93614a42565b958451998a9960808b5260808b0190614719565b91898303908a0152614719565b9186830390870152614719565b908382036060850152614719565b8234610395576020366003190112610395576020906126eb6144db565b5f5491906001600160a01b03808416917f38df5fa0f7fef0d515ca1f5388cb5790ac5885d5fca8d05d9f943e563c33a4b39190612729338514614ae1565b16948593612738851515614fb1565b51428152a36001600160a01b031916175f55005b905034610395576020806003193601126103955781359261276f61041b33615167565b335f5260018252805f205492835f5260108352815f20855f528352600160ff835f20541661279c81614762565b036128085750907f0972fd04571d170dafa6fe5d3822da50a1fd8596d166c4ca101dff5fc760533e91835f5260108252805f20855f528252805f20600260ff19825416179055835f52601182526127f585825f2061589a565b845f52601282526113c184825f2061589a565b82606492519162461bcd60e51b8352820152601d60248201527f4e6f2061637469766520766f75636820666f72207468697320757365720000006044820152fd5b9050346103955761285936614780565b93909260018060a01b03612871815f54163314614ae1565b61287c841515614b5e565b8416612889811515614dc2565b612895610cf18761524a565b5f5260016020918183526128b7845f2054966128b2881515614b1a565b615167565b15612b2657845f5260068352835f20541580612b17575b15612ad4576128dd86866152c2565b91825f5260058452845f209160ff826128f5856147fa565b940154169186519161290683614507565b8a835286830190828252865f5260058852885f2093518051916001600160401b038311612ac1575061293885546147c2565b601f8111612a7b575b508890601f8311600114612a145761298895949392915f9183612a09575b50505f19600383901b1c191690831b1783555b51151591019060ff801983541691151516179055565b6129dc5750915f95917ff9d17eb1340ab78960b594ff8bed1349985b800ee21199c6d5ea4a67454593ad938752600b815286828120556129c9838787615a6f565b611619825193838594855284019061489c565b95949392505084518186012090845190850120036129f657005b612a046104c3948383615443565b615a6f565b015190505f8061295f565b90601f19831691865f528a5f20925f5b8c828210612a67575050918695949291836129889998959310612a4f575b505050811b018355612972565b01515f1960f88460031b161c191690555f8080612a42565b838501518655948801949384019301612a24565b855f52895f20601f840160051c8101918b8510612ab7575b601f0160051c019085905b828110612aac575050612941565b5f8155018590612a9e565b9091508190612a93565b604190634e487b7160e01b5f525260245ffd5b835162461bcd60e51b8152908101839052601a60248201527f5265636f726420616c726561647920696e697469616c697a65640000000000006044820152606490fd5b5060078352835f2054156128ce565b835162461bcd60e51b8152908101839052601860248201527f4d75737420626520616e20616374697665206d656d62657200000000000000006044820152606490fd5b82346103955780600319360112610395576001600160401b03908235828111610395573660238201121561039557808401359283116103955760246005913660248660051b83010111610395575f546001600160a01b03966024359591612bd39089163314614ae1565b8615612d2457612be4861515614e07565b855f526002936020936002855260ff845f205416612c0181614942565b15965f5b8a8110612c0e57005b8381831b84010135908c8216918281036103955782612c958d92612c356001961515614dc2565b825f52612c868b8d8890818152612c4f835f205415614e4a565b825192612c5b84614507565b8884528282850192818452895f52525f209251835551151591019060ff801983541691151516179055565b835f5260038c528a5f20614e96565b821580612d1d575b15612cf057815f528a8a52885f208b60ff19825416179055612cbf8854614ee9565b88557f39d132591ee0696de49ab564e4a90e430c006561917db731a2a614dd2d2455918a8a51428152a35b01612c05565b7f1cc138f50384be7770a8e4a34eecaa0d0c718bfaa1641af49db32532e4a5b9108a8a51428152a3612cea565b508b612c9d565b6020606492519162461bcd60e51b83528201526013602482015272139bc81dd85b1b195d1cc81c1c9bdd9a591959606a1b6044820152fd5b823461039557612d6b3661474c565b91905f526011602052805f2080548310156103955760209261038791614919565b823461039557602090611ac9612da13661474c565b90615354565b823461039557612db63661474c565b91905f526006602052805f2080548310156103955760209261038791614919565b823461039557602090612de93661474c565b905f52600c8352815f20905f528252805f2090600260ff825193612e0c85614507565b54818116612e1981614942565b855260081c169284810193612e2d81614762565b845251612e3981614942565b612e4281614942565b149182612e53575b50519015158152f35b600291925051612e6281614762565b612e6b81614762565b149083612e4a565b8234610395575f366003190112610395577f00000000000000000000000000000000000000000000000000000000000000006001600160a01b03163003612edd57602090517f360894a13ba1a3210667c828492db98dca3e2076cc3735a920a3ca505d382bbc8152f35b5163703e46dd60e11b8152fd5b823461039557612ef93661464c565b90612f0661041b33615167565b612f1383518351146149b2565b335f52600193602091858352815f20549060018060a01b03165f52815f205490612f3e8215156149f6565b865f96838314915b612f4c57005b80518810156104c3578888612f62829a84614f9d565b51612f6d828b614f9d565b51612f778161524a565b1561325a57612f8687836152c2565b5f526005808b5260ff80868c5f200154161561325157612fa68a856152c2565b5f52818c52858b5f200154161561324957612fc189846152c2565b5f528a52612fd0895f206147fa565b9088888c8451818601208d855183870120908183146130dc57612ff1614c90565b84815191012083146130dc57885f52600684525f20541591821561301d613016614c90565b878c6152f6565b90613030613029614cb1565b888d6152f6565b9061303e8c89610896614cda565b613046614c90565b80519089012086036130fe5750156130ea5750156130dc575b613067614cb1565b8481519101201492836130c2575b5050816130ba575b50806130a2575b61309857613091946153de565b0197612f46565b5050505050613091565b505050825f5260078b528888868c5f20541115613084565b90505f61307d565b909192506130ce614cfc565b805191012014905f8f613075565b505050505050505050613091565b905061305f57505050505050505050613091565b919290613109614cb1565b80519089012086036131345750905015908161312b575b506130dc575b61305f565b9050155f613120565b61313c614cda565b80519089012086036131b857156131845715918261317b575b508161316557506130dc5761305f565b905080613174575b155f613120565b508c61316d565b1591505f613155565b50901590816131a2575b501561312657505050505050505050613091565b9050806131b1575b155f61318e565b508c6131aa565b6131c0614cfc565b88815191012086146131d6575b5050505061305f565b156132355715918261321d575b5081613207575b506130dc575b6131fa868a615354565b6130dc575f8080806131cd565b905080613216575b155f6131ea565b508c61320f565b9091508061322e575b15905f6131e3565b508d613226565b50506131f057505050505050505050613091565b505050613091565b50505050613091565b5050613091565b905081600319360112610395576132766144db565b916024356001600160401b0381116103955736602382011215610395576132a690369060248186013591016145e9565b906001600160a01b037f00000000000000000000000000000000000000000000000000000000000000008116308114908115613430575b50613420576132f0815f54163314614ae1565b8416918151946352d1902d60e01b86526020868681875afa5f96816133ec575b5061332c57505051634c9c8ce360e01b81529182015260249150fd5b838593877f360894a13ba1a3210667c828492db98dca3e2076cc3735a920a3ca505d382bbc908181036133d65750833b156133bf5780546001600160a01b0319168317905551907fbc7cd75a20ee27fd9adebab32041f755214dbc6bffa90cc0225b39da2e5c2d3b5f80a28251156133a957506104c39250615b1a565b915050346133b357005b63b398979f60e01b8152fd5b8151634c9c8ce360e01b8152808701849052602490fd5b86602491845191632a87526960e21b8352820152fd5b9096506020813d602011613418575b8161340860209383614551565b810103126103955751955f613310565b3d91506133fb565b815163703e46dd60e11b81528490fd5b9050817f360894a13ba1a3210667c828492db98dca3e2076cc3735a920a3ca505d382bbc541614155f6132dd565b9050346103955761346e366148fa565b919061347c61041b33615167565b335f526001602052835f205491815f52600c602052845f20835f52602052845f2060ff81546134b260028383166120a381614942565b6134bb87614762565b60081c16916134c983614762565b8260ff8716101561350a57507fb36ec3c738ef8ecd9180addc815304762374b76e91c2a321831d9906ea119ade61210a85936104c3986120fd898896614f57565b608490602088519162461bcd60e51b8352820152602360248201527f43616e206f6e6c7920646f776e677261646520746f2061206c6f776572206c656044820152621d995b60ea1b6064820152fd5b82346103955780600319360112610395576135726144db565b916024359260018060a01b0361358c815f54163314614ae1565b81169261359a841515614dc2565b6135a5851515614e07565b835f5261360a602092600184526135bf835f205415614e4a565b6135fb83516135cd81614507565b8881526001868201818152895f52818852865f209251835551151591019060ff801983541691151516179055565b865f5260038452825f20614e96565b845f526002825260ff815f20541661362181614942565b61366f577f39d132591ee0696de49ab564e4a90e430c006561917db731a2a614dd2d24559192855f5260028352815f20600260ff198254161790556136668154614ee9565b905551428152a3005b7f1cc138f50384be7770a8e4a34eecaa0d0c718bfaa1641af49db32532e4a5b910925051428152a3005b823461039557602036600319011261039557602090611ac96128b26144db565b8234610395576020906136ce61216a3661474c565b5f526005825261062c815f209180516136e681614507565b60ff60016136f3866147fa565b958684520154161515948591015251928392836148da565b823461039557806003193601126103955761373261062c9261372b6144f1565b9035614d4a565b92909151928392836148da565b82346103955760203660031901126103955761062c91355f526007602052610619815f20614a42565b823461039557602090611ac961377d36614780565b91614d1e565b90503461039557602036600319011261039557355f526005602052805f2061062c60ff60016137b1846147fa565b930154169251928392836148da565b905034610395576137d03661474c565b600a54919290916001600160a01b031633036138975750815f52602090600d602052835f20935f5b85548110156104c3578061380e60019288614919565b90549060031b1c865f52600c8652835f20815f528652835f2090600285519261383684614507565b5460ff9081811661384681614942565b855260081c16928881019361385a81614762565b84525161386681614942565b61386f81614942565b036138905761388a91519061388382614762565b88876154ee565b016137f8565b505061388a565b606490602085519162461bcd60e51b835282015260156024820152744f6e6c79204865616c74685265636f7264436f726560581b6044820152fd5b823461039557602080600319360112610395578235916138f461041b33615167565b6138ff831515614b5e565b335f5260018252805f20549361391d613916614c90565b86866152f6565b15613a0e57835f52600683526001825f20541160078452825f205415158115613a06575b50156139ab5750907f68f37cc4a32f0b24153ce9237b344b20a9717039f90d7c24f35e5c217f03e1689161397585856152c2565b613987613980614c90565b8787615443565b5f52600582526001815f200160ff198154169055600b82525f8181205551428152a3005b82608492519162461bcd60e51b8352820152603160248201527f43616e6e6f74206c65617665206173206c617374206f776e65722077697468206044820152706e6f2061646d696e6973747261746f727360781b6064820152fd5b905086613941565b82608492519162461bcd60e51b8352820152602360248201527f596f7520617265206e6f7420616e206f776e6572206f662074686973207265636044820152621bdc9960ea1b6064820152fd5b82346103955760203660031901126103955761062c91355f526008602052610619815f20614a42565b90503461039557613a9436614780565b919290613aa361041b33615167565b613aae841515614b5e565b6001600160a01b0316613ac2811515614baa565b613ace610cf18461524a565b335f5260209360018552855f2054915f52855f205492613aef8415156149f6565b84518686012095613b0085846152c2565b805f5260058252613b1960ff60018b5f20015416614c38565b5f5260058152613b2a885f206147fa565b968751828901209080821461412457613b41614c90565b83815191012082146140af57845f5260068352895f205415918215613b6e613b67614c90565b89896152f6565b90613b81613b7a614cb1565b8a8a6152f6565b90613b94613b8d614cda565b8b8b6152f6565b8b8b14613b9f614c90565b8051908a01208703613d1c57505015613cbf575015613c7e575b613bc1614cb1565b848151910120149081613c67575b50613be2575b5050506104c395506153de565b613bed575b80613bd5565b825f52600781526001885f205411613be757875162461bcd60e51b815291820152603960248201527f43616e6e6f742064656d6f746520746865206c6173742061646d696e6973747260448201527f61746f72207768656e206e6f206f776e65722065786973747300000000000000606482015260849150fd5b9050613c71614cfc565b838151910120145f613bcf565b60648585808e519262461bcd60e51b845283015260248201527f4f6e6c79206f776e6572732063616e2070726f6d6f746520746f206f776e65726044820152fd5b9050613bb9578a5162461bcd60e51b8152808601859052602b60248201527f4f6e6c792061646d696e6973747261746f72732063616e2070726f6d6f74652060448201526a3334b939ba1037bbb732b960a91b6064820152608490fd5b9091613d26614cb1565b8051908a01208703613da6575050508115613d9e575b5015613d48575b613bb9565b8a5162461bcd60e51b8152808601859052603b60248201525f80516020615bcc83398151915260448201527f616e2070726f6d6f746520746f2061646d696e6973747261746f7200000000006064820152608490fd5b90505f613d3c565b613db293919293614cda565b8051908a01208703613ef15715613e75578315613e6d575b508215613e54575b5050613bb9578a5162461bcd60e51b8152808601859052605f60248201525f80516020615bcc83398151915260448201527f616e206368616e6765206f746865727320746f207368617265722e205368617260648201527f6572732063616e206f6e6c792064656d6f7465207468656d73656c7665732e00608482015260a490fd5b90915081613e65575b505f80613dd2565b90505f613e5d565b92505f613dca565b92508215613ed8575b5050613d43578a5162461bcd60e51b8152808601859052602860248201527f4f6e6c792061646d696e6973747261746f72732063616e206368616e67652074604482015267379039b430b932b960c11b6064820152608490fd5b90915081613ee9575b505f80613e7e565b90505f613ee1565b613ef9614cfc565b8981519101208714613f10575b5050505050613bb9565b1561405357831561403c575b508215614023575b505015613f9c575b613f368887615354565b613f44575f80808080613f06565b8a5162461bcd60e51b8152808601859052602c60248201527f43616e6e6f742064656d6f746520616e20616374697665207375626a6563742060448201526b3132b637bb9039b430b932b960a11b6064820152608490fd5b8a5162461bcd60e51b8152808601859052605560248201527f4f6e6c79206f776e6572732063616e2064656d6f7465206f74686572732e204160448201527f646d696e6973747261746f727320616e6420736861726572732063616e206f6e606482015274363c903232b6b7ba32903a3432b6b9b2b63b32b99760591b608482015260a490fd5b90915081614034575b505f80613f24565b90505f61402c565b9092508061404c575b915f613f1c565b5081614045565b92505050613f2c578a5162461bcd60e51b8152808601859052602860248201527f4f6e6c792061646d696e6973747261746f72732063616e2064656d6f7465207460448201526737903b34b2bbb2b960c11b6064820152608490fd5b895162461bcd60e51b8152808501849052604360248201527f4f776e6572732063616e6e6f742062652064656d6f7465642e204f776e65722060448201527f6d75737420766f6c756e746172696c792072656d6f7665207468656d73656c7660648201526232b99760e91b608482015260a490fd5b895162461bcd60e51b8152808501849052601c60248201527f54617267657420616c726561647920686173207468697320726f6c65000000006044820152606490fd5b823461039557602036600319011261039557602090611ac96141876144db565b6151f8565b8234610395576020366003190112610395576141a66144db565b5f546001600160a01b0391906141bf9083163314614ae1565b16805f5260016020526141d6825f20541515614b1a565b805f52600160205260ff6001835f200154161561420657600192505f52816020525f200160ff1981541690555f80f35b815162461bcd60e51b8152602081850152601760248201527f57616c6c657420616c726561647920696e6163746976650000000000000000006044820152606490fd5b8234610395576020906103ab3661474c565b8234610395578060031936011261039557611ac960209261427a6144f1565b9035614a90565b82346103955760203660031901126103955761062c91355f526009602052610619815f20614a42565b8234610395576142b93661464c565b92906142c761041b33615167565b6142d483518551146149b2565b335f52600193849360209060018252845f20549360018060a01b03165f52845f2054916143028315156149f6565b5f965b61430b57005b81518710156104c357878761432a614324839a88614f9d565b5161524a565b156143f65761433d8761072f8387614f9d565b156143f6576143508561072f8387614f9d565b6143f65761435e8187614f9d565b5183815191012061437c6143728387614f9d565b5189610896614c90565b6143936143898488614f9d565b518a610896614cb1565b9161439c614c90565b80519087012081036144035750906143b48387614f9d565b515f908152600686528a902054156143fb5750155b6143f6575b6143ef876143dc8387614f9d565b51876143e8858b614f9d565b51916156b8565b0196614305565b6143ef565b9050156143c9565b61440b614cb1565b8051908701208103614434575015908161442b575b506143f6575b6143ce565b9050158b614420565b61443c614cda565b805190870120036144635715908161445a575b50156143ce576143ef565b9050158b61444f565b61447a6144708488614f9d565b518a610896614cda565b9015918261449e575b5081614495575b5015614426576143ef565b9050158b61448a565b1591508c614483565b839034610395576020366003190112610395576020916001600160a01b036144cd6144db565b165f52600183525f20548152f35b600435906001600160a01b038216820361039557565b602435906001600160a01b038216820361039557565b604081019081106001600160401b0382111761452257604052565b634e487b7160e01b5f52604160045260245ffd5b602081019081106001600160401b0382111761452257604052565b90601f801991011681019081106001600160401b0382111761452257604052565b6001600160401b0381116145225760051b60200190565b9080601f830112156103955760209082356145a381614572565b936145b16040519586614551565b81855260208086019260051b82010192831161039557602001905b8282106145da575050505090565b813581529083019083016145cc565b9291926001600160401b0382116145225760405191614612601f8201601f191660200184614551565b829481845281830111610395578281602093845f960137010152565b9080601f8301121561039557816020614649933591016145e9565b90565b6060600319820112610395576001600160401b0391600435838111610395578261467891600401614589565b9260249283356001600160a01b038116810361039557936044359280841161039557826023850112156103955783600401356146b381614572565b946146c16040519687614551565b8186526020946024602088019360051b830101948186116103955760248301935b8685106146f457505050505050505090565b843586811161039557889161470e8585859489010161462e565b8152019401936146e2565b9081518082526020808093019301915f5b828110614738575050505090565b83518552938101939281019260010161472a565b6040906003190112610395576004359060243590565b6003111561476c57565b634e487b7160e01b5f52602160045260245ffd5b606060031982011261039557600435916024356001600160a01b03811681036103955791604435906001600160401b038211610395576146499160040161462e565b90600182811c921680156147f0575b60208310146147dc57565b634e487b7160e01b5f52602260045260245ffd5b91607f16916147d1565b9060405191825f825461480c816147c2565b908184526020946001916001811690815f1461487a575060011461483c575b50505061483a92500383614551565b565b5f90815285812095935091905b81831061486257505061483a93508201015f808061482b565b85548884018501529485019487945091830191614849565b9250505061483a94925060ff191682840152151560051b8201015f808061482b565b91908251928382525f5b8481106148c6575050825f602080949584010152601f8019910116010190565b6020818301810151848301820152016148a6565b906148f260209194939460408452604084019061489c565b931515910152565b6040906003190112610395576004359060243560038110156103955790565b805482101561492e575f5260205f2001905f90565b634e487b7160e01b5f52603260045260245ffd5b6005111561476c57565b604081019392916020919061496081614942565b815261496b83614762565b0152565b1561497657565b60405162461bcd60e51b81526020600482015260146024820152732737ba1030b71030b1ba34bb329036b2b6b132b960611b6044820152606490fd5b156149b957565b60405162461bcd60e51b8152602060048201526015602482015274082e4e4c2f240d8cadccee8d040dad2e6dac2e8c6d605b1b6044820152606490fd5b156149fd57565b60405162461bcd60e51b815260206004820152601c60248201527f5461726765742077616c6c6574206e6f742072656769737465726564000000006044820152606490fd5b90604051918281549182825260209260208301915f5260205f20935f905b828210614a765750505061483a92500383614551565b855484526001958601958895509381019390910190614a60565b6001600160a01b039091165f90815260016020526040902054908115614adb57614ac2614abb614c90565b83836152f6565b918215614ace57505090565b6146499250610896614cb1565b50505f90565b15614ae857565b60405162461bcd60e51b815260206004820152600a60248201526927b7363c9030b236b4b760b11b6044820152606490fd5b15614b2157565b60405162461bcd60e51b815260206004820152601560248201527415d85b1b195d081b9bdd081c9959da5cdd195c9959605a1b6044820152606490fd5b15614b6557565b60405162461bcd60e51b815260206004820152601e60248201527f5265636f726420494420686173682063616e6e6f7420626520656d70747900006044820152606490fd5b15614bb157565b60405162461bcd60e51b815260206004820152601d60248201527f57616c6c657420616464726573732063616e6e6f74206265207a65726f0000006044820152606490fd5b15614bfd57565b60405162461bcd60e51b8152602060048201526013602482015272496e76616c696420726f6c6520737472696e6760681b6044820152606490fd5b15614c3f57565b60405162461bcd60e51b815260206004820152602360248201527f54617267657420646f6573206e6f74206861766520616e2061637469766520726044820152626f6c6560e81b6064820152608490fd5b60405190614c9d82614507565b600582526437bbb732b960d91b6020830152565b60405190614cbe82614507565b600d82526c30b236b4b734b9ba3930ba37b960991b6020830152565b60405190614ce782614507565b600682526539b430b932b960d11b6020830152565b60405190614d0982614507565b60068252653b34b2bbb2b960d11b6020830152565b919060018060a01b03165f52600160205260405f20548015614d4357614649926152f6565b5050505f90565b6001600160a01b039091165f90815260016020526040902054908115614dac5760209291614d77916152c2565b5f526005825260405f20604051614d8d81614507565b60ff6001614d9a846147fa565b93848452015416151593849101529190565b5050604051614dba81614536565b5f8152905f90565b15614dc957565b60405162461bcd60e51b8152602060048201526016602482015275496e76616c69642077616c6c6574206164647265737360501b6044820152606490fd5b15614e0e57565b60405162461bcd60e51b8152602060048201526014602482015273092dcecc2d8d2c840eae6cae440928840d0c2e6d60631b6044820152606490fd5b15614e5157565b60405162461bcd60e51b815260206004820152601960248201527f57616c6c657420616c72656164792072656769737465726564000000000000006044820152606490fd5b8054600160401b81101561452257614eb391600182018155614919565b60018060a09493941b038084549260031b9316831b921b1916179055565b90614edb81614942565b60ff80198354169116179055565b5f198114614ef75760010190565b634e487b7160e01b5f52601160045260245ffd5b15614f1257565b60405162461bcd60e51b815260206004820152601e60248201527f4e6f2061637469766520747275737465652072656c6174696f6e7368697000006044820152606490fd5b90614f6181614762565b61ff0082549160081b169061ff001916179055565b60608101949392604092614f8981614762565b8252614f9481614762565b60208201520152565b805182101561492e5760209160051b010190565b15614fb857565b60405162461bcd60e51b815260206004820152600f60248201526e496e76616c6964206164647265737360881b6044820152606490fd5b6001600160a01b039091165f908152600160205260409020548015614adb57615017916152c2565b5f52600560205260ff600160405f2001541690565b8054905f81558161503b575050565b5f5260205f20908101905b818110615051575050565b5f8155600101615046565b805490600160401b821015614522578161507e91600161509494018155614919565b819391549060031b91821b915f19901b19161790565b9055565b1561509f57565b60405162461bcd60e51b815260206004820152600f60248201526e496e76616c6964207472757374656560881b6044820152606490fd5b156150dd57565b60405162461bcd60e51b815260206004820152601760248201527f43616e6e6f74206170706f696e7420796f757273656c660000000000000000006044820152606490fd5b1561512957565b60405162461bcd60e51b8152602060048201526016602482015275151c9d5cdd1959481b9bdd081c9959da5cdd195c995960521b6044820152606490fd5b6001600160a01b03165f90815260016020526040902080549081159081156151e8575b506151e3575f52600260205260ff60405f2054166151a781614942565b600281149081156151ce575b81156151bd575090565b600491506151ca81614942565b1490565b90506151d981614942565b60038114906151b3565b505f90565b60ff91506001015416155f61518a565b6001600160a01b03165f908152600160205260409020805490811590811561523a575b506151e3575f526002602052600460ff60405f2054166151ca81614942565b60ff91506001015416155f61521b565b60208151910120615259614c90565b6020815191012081149081156152a9575b8115615290575b811561527b575090565b9050615285614cfc565b602081519101201490565b905061529a614cda565b60208151910120811490615271565b90506152b3614cb1565b6020815191012081149061526a565b906040519060208201928352604082015260408152606081018181106001600160401b038211176145225760405251902090565b60209291615303916152c2565b5f526005825260405f2060405161531981614507565b60ff6001615326846147fa565b93848452015416151593849101528261533e57505090565b9091506020815191012090602081519101201490565b600a546001600160a01b0316918215614d43576044602092604051948593849263193d8e7560e21b8452600484015260248301525afa9081156153d3575f9161539b575090565b90506020813d6020116153cb575b816153b660209383614551565b81010312610395575180151581036103955790565b3d91506153a9565b6040513d5f823e3d90fd5b91927f3af67cf2057ba8ef414286fb626cd3efb02f74996e18efd455b39d8ec7ec460f919461543861542a92615416888289896156b8565b60405193849360608552606085019061489c565b90838203602085015261489c565b4260408301520390a4565b8251602080940120615453614c90565b8051908501208103615473575061483a926006915f525260405f2061589a565b61547b614cb1565b805190850120810361549b575061483a926007915f525260405f2061589a565b6154a3614cda565b80519085012081036154c3575061483a926008915f525260405f2061589a565b6154cb614cfc565b848151910120146154db57505050565b61483a926009915f525260405f2061589a565b91926154fb908284615983565b926155058461524a565b156155d35761551482846152c2565b5f526020916005835260409460ff6001875f20015416156155cb5761553983866152c2565b5f526005845260ff6001875f200154166155cb57816155599184876156b8565b805f52600f8352845f20825f528352845f20845f52835260ff855f20541615615584575b5050505050565b805f52600e8352845f20825f52835261559f84865f2061505c565b5f52600f8252835f20905f528152825f20915f52525f20600160ff198254161790555f8080808061557d565b505050505050565b50505050565b929190835f52602090600e825260409060405f20815f52835260405f20955f5b87548110156156a4578061560f6001928a614919565b90549060031b1c61562085826152c2565b5f52600580885260ff84885f200154161561569d57615640898684615983565b9061564a8261524a565b156156955761565987846152c2565b5f528852615668875f206147fa565b90868683518b85012083518c8501201461568b57615685946153de565b016155f9565b5050505050615685565b505050615685565b5050615685565b5050505050509050565b90615017916152c2565b9291926156c582826152c2565b93845f52602060058152604090815f20966156df886147fa565b9760ff60018092015416908451906156f682614507565b868252848201818152845f5260058652865f2092518051906001600160401b0382116145225761572685546147c2565b601f8111615854575b508790601f83116001146158065761577495949392915f9183612a095750505f19600383901b1c191690831b17835551151591019060ff801983541691151516179055565b6157d2577ff9d17eb1340ab78960b594ff8bed1349985b800ee21199c6d5ea4a67454593ad94959697505f52600b815286825f20556157b4838787615a6f565b6157c7825193838594855284019061489c565b9042908301520390a4565b509194505084518186012090845190850120036157ef5750505050565b612a046157fd948383615443565b5f8080806155d3565b90601f19831691865f52895f20925f5b8b828210615840575050918695949291836157749998959310612a4f57505050811b018355612972565b838501518655948801949384019301615816565b855f52885f20601f840160051c8101918a8510615890575b601f0160051c019085905b82811061588557505061572f565b5f8155018590615877565b909150819061586c565b5f5b815490818110156155d35783916158b38285614919565b959054600396871b1c146158cd575090925060010161589c565b5f199250828101908111614ef75761507e6158eb6158f89286614919565b905490871b1c9285614919565b90558154801561591d5781019261590f8484614919565b81939154921b1b1916905555565b634e487b7160e01b5f52603160045260245ffd5b6001600160a01b03165f9081526001602052604090208054908115908115615973575b506151e3575f526002602052600360ff60405f2054166151ca81614942565b60ff91506001015416155f615954565b9061598d83614762565b8215615a645761599c916152c2565b5f526020906005825260405f2060ff6001604051926159ba84614507565b6159c3816147fa565b845201541615801584830152615a4e5751915b825181840120916159e5614cda565b82815191012083148015615a38575b615a2c5780615a04600192614762565b14615a0e57505090565b615a16614c90565b805191012014615a235790565b50614649614cb1565b50505050614649614cfc565b50615a41614cfc565b82815191012083146159f4565b50604051615a5b81614536565b5f8152916159d6565b505050614649614cfc565b8251602080940120615a7f614c90565b8051908501208103615a9f575061483a926006915f525260405f2061505c565b615aa7614cb1565b8051908501208103615ac7575061483a926007915f525260405f2061505c565b615acf614cda565b8051908501208103615aef575061483a926008915f525260405f2061505c565b615af7614cfc565b84815191012014615b0757505050565b61483a926009915f525260405f2061505c565b905f8091602081519101845af48080615b98575b15615b4e5750506040513d81523d5f602083013e60203d82010160405290565b15615b7557604051639996b31560e01b81526001600160a01b039091166004820152602490fd5b3d15615b86576040513d5f823e3d90fd5b60405163d6bda27560e01b8152600490fd5b503d151580615b2e5750813b1515615b2e56fed05ed2d3feff840c2ececa71791388fd3d19dbbbbcfa97031f534a7dc09fbf1f4f6e6c79206f776e65727320616e642061646d696e6973747261746f72732063a2646970667358221220fd5289ebd984327fc58d9f5f7555a009e3771cd17307b9fb4788babd6757e5b264736f6c63430008180033","opcodes":"PUSH1 0xA0 DUP1 PUSH1 0x40 MSTORE CALLVALUE PUSH3 0xD1 JUMPI ADDRESS PUSH1 0x80 MSTORE PUSH32 0xF0C57E16840DF040F15088DC2F81FE391C3923BEC73E23A9662EFC9C229C6A00 SWAP1 DUP2 SLOAD SWAP1 PUSH1 0xFF DUP3 PUSH1 0x40 SHR AND PUSH3 0xC2 JUMPI POP PUSH1 0x1 PUSH1 0x1 PUSH1 0x40 SHL SUB PUSH1 0x2 PUSH1 0x1 PUSH1 0x40 SHL SUB NOT DUP3 DUP3 AND ADD PUSH3 0x7C JUMPI JUMPDEST PUSH1 0x40 MLOAD PUSH2 0x5C21 SWAP1 DUP2 PUSH3 0xD6 DUP3 CODECOPY PUSH1 0x80 MLOAD DUP2 DUP2 DUP2 PUSH2 0x2E86 ADD MSTORE PUSH2 0x32B1 ADD MSTORE RETURN JUMPDEST PUSH1 0x1 PUSH1 0x1 PUSH1 0x40 SHL SUB NOT SWAP1 SWAP2 AND DUP2 OR SWAP1 SWAP2 SSTORE PUSH1 0x40 MLOAD SWAP1 DUP2 MSTORE PUSH32 0xC7F505B2F371AE2175EE4913F4499E1F2633A7B5936321EED1CDAEB6115181D2 SWAP1 PUSH1 0x20 SWAP1 LOG1 PUSH0 DUP1 DUP1 PUSH3 0x5C JUMP JUMPDEST PUSH4 0xF92EE8A9 PUSH1 0xE0 SHL DUP2 MSTORE PUSH1 0x4 SWAP1 REVERT JUMPDEST PUSH0 DUP1 REVERT INVALID PUSH1 0x80 PUSH1 0x40 SWAP1 DUP1 DUP3 MSTORE PUSH1 0x4 DUP1 CALLDATASIZE LT ISZERO PUSH2 0x15 JUMPI PUSH0 DUP1 REVERT JUMPDEST PUSH0 CALLDATALOAD PUSH1 0xE0 SHR SWAP2 DUP3 PUSH3 0xB0C809 EQ PUSH2 0x44A7 JUMPI POP DUP2 PUSH4 0x2BA8109 EQ PUSH2 0x42AA JUMPI DUP2 PUSH4 0x33E822F EQ PUSH2 0x4281 JUMPI DUP2 PUSH4 0x519E2A0 EQ PUSH2 0x425B JUMPI DUP2 PUSH4 0xA296A7B EQ PUSH2 0x4249 JUMPI DUP2 PUSH4 0xB3FFD1D EQ PUSH2 0x418C JUMPI DUP2 PUSH4 0x259ED80E EQ PUSH2 0x4167 JUMPI DUP2 PUSH4 0x29C9087A EQ PUSH2 0x3A84 JUMPI DUP2 PUSH4 0x2AB5D8F3 EQ PUSH2 0x3A5B JUMPI DUP2 PUSH4 0x2AE8511D EQ PUSH2 0x38D2 JUMPI DUP2 PUSH4 0x30D7265C EQ PUSH2 0x37C0 JUMPI DUP2 PUSH4 0x33105592 EQ PUSH2 0x3783 JUMPI DUP2 PUSH4 0x3BEFA410 EQ PUSH2 0x3768 JUMPI DUP2 PUSH4 0x41A51BAA EQ PUSH2 0x373F JUMPI DUP2 PUSH4 0x422A5BB8 EQ PUSH2 0x370B JUMPI DUP2 PUSH4 0x43E19704 EQ PUSH2 0x36B9 JUMPI DUP2 PUSH4 0x45ECD02F EQ PUSH2 0x3699 JUMPI DUP2 PUSH4 0x49DF7208 EQ PUSH2 0x3559 JUMPI DUP2 PUSH4 0x4D3C4A7C EQ PUSH2 0x345E JUMPI DUP2 PUSH4 0x4F1EF286 EQ PUSH2 0x3261 JUMPI DUP2 PUSH4 0x51EED472 EQ PUSH2 0x2EEA JUMPI DUP2 PUSH4 0x52D1902D EQ PUSH2 0x2E73 JUMPI DUP2 PUSH4 0x557EE54F EQ PUSH2 0x2DD7 JUMPI DUP2 PUSH4 0x55816079 EQ PUSH2 0x2DA7 JUMPI DUP2 PUSH4 0x562C788E EQ PUSH2 0x9EC JUMPI DUP2 PUSH4 0x64F639D4 EQ PUSH2 0x2D8C JUMPI DUP2 PUSH4 0x68309C89 EQ PUSH2 0x2D5C JUMPI DUP2 PUSH4 0x69AC2022 EQ PUSH2 0x2B69 JUMPI DUP2 PUSH4 0x6B4BED97 EQ PUSH2 0x660 JUMPI DUP2 PUSH4 0x726D5447 EQ PUSH2 0x2849 JUMPI DUP2 PUSH4 0x73C19C8D EQ PUSH2 0x274C JUMPI DUP2 PUSH4 0x75829DEF EQ PUSH2 0x26CE JUMPI DUP2 PUSH4 0x78AD8F5B EQ PUSH2 0x262A JUMPI DUP2 PUSH4 0x7B657D07 EQ PUSH2 0x25ED JUMPI DUP2 PUSH4 0x8129FC1C EQ PUSH2 0x24D0 JUMPI DUP2 PUSH4 0x8776CD35 EQ PUSH2 0x24A0 JUMPI DUP2 PUSH4 0x8806E591 EQ PUSH2 0x2477 JUMPI DUP2 PUSH4 0x89B08F11 EQ PUSH2 0x2432 JUMPI DUP2 PUSH4 0x8DB7EDB4 EQ PUSH2 0x23E3 JUMPI DUP2 PUSH4 0x93CCFBA8 EQ PUSH2 0x23B3 JUMPI DUP2 PUSH4 0x9443CD80 EQ PUSH2 0x236D JUMPI DUP2 PUSH4 0x96207E02 EQ PUSH2 0x2229 JUMPI DUP2 PUSH4 0x96A03F8D EQ PUSH2 0x21F9 JUMPI DUP2 PUSH4 0x9915B91F EQ PUSH2 0x2181 JUMPI DUP2 PUSH4 0x9BE572F6 EQ PUSH2 0x1E5B JUMPI DUP2 PUSH4 0xAADDC345 EQ PUSH2 0x2155 JUMPI DUP2 PUSH4 0xAB48384A EQ PUSH2 0x2050 JUMPI DUP2 PUSH4 0xAD3CB1CC EQ PUSH2 0x200C JUMPI DUP2 PUSH4 0xB8CAB84B EQ PUSH2 0x1F2E JUMPI DUP2 PUSH4 0xBB0F86D5 EQ PUSH2 0x1E77 JUMPI DUP2 PUSH4 0xBFF1F9E1 EQ PUSH2 0x1E5B JUMPI DUP2 PUSH4 0xC36DC9EF EQ PUSH2 0x1E32 JUMPI DUP2 PUSH4 0xC497D840 EQ PUSH2 0x1E03 JUMPI DUP2 PUSH4 0xC7155823 EQ PUSH2 0x1D87 JUMPI DUP2 PUSH4 0xC88C35FE EQ PUSH2 0x1D61 JUMPI DUP2 PUSH4 0xC979C9BF EQ PUSH2 0x1AD2 JUMPI DUP2 PUSH4 0xCB261A03 EQ PUSH2 0x1AA4 JUMPI DUP2 PUSH4 0xCDA06C6E EQ PUSH2 0x1A7D JUMPI DUP2 PUSH4 0xD12A7768 EQ PUSH2 0x19CE JUMPI DUP2 PUSH4 0xD1F616DD EQ PUSH2 0x19A5 JUMPI DUP2 PUSH4 0xD547741F EQ PUSH2 0x14E9 JUMPI DUP2 PUSH4 0xDB54F7B7 EQ PUSH2 0x12C6 JUMPI DUP2 PUSH4 0xDC9F9664 EQ PUSH2 0x10B6 JUMPI DUP2 PUSH4 0xDDE492EA EQ PUSH2 0xCA6 JUMPI DUP2 PUSH4 0xDFF1BEA0 EQ PUSH2 0xC6B JUMPI DUP2 PUSH4 0xE6EFCD5D EQ PUSH2 0xA14 JUMPI DUP2 PUSH4 0xE94ED257 EQ PUSH2 0x9EC JUMPI DUP2 PUSH4 0xF12B9AD3 EQ PUSH2 0x68F JUMPI DUP2 PUSH4 0xF29E007B EQ PUSH2 0x660 JUMPI DUP2 PUSH4 0xF32B10F0 EQ PUSH2 0x630 JUMPI DUP2 PUSH4 0xF50936C9 EQ PUSH2 0x5F0 JUMPI DUP2 PUSH4 0xF76794F1 EQ PUSH2 0x3F8 JUMPI POP DUP1 PUSH4 0xF851A440 EQ PUSH2 0x3D1 JUMPI DUP1 PUSH4 0xFC78F177 EQ PUSH2 0x399 JUMPI PUSH4 0xFDD9887E EQ PUSH2 0x358 JUMPI PUSH0 DUP1 REVERT JUMPDEST CALLVALUE PUSH2 0x395 JUMPI PUSH2 0x366 CALLDATASIZE PUSH2 0x474C JUMP JUMPDEST SWAP2 SWAP1 PUSH0 MSTORE PUSH1 0xD PUSH1 0x20 MSTORE DUP1 PUSH0 KECCAK256 DUP1 SLOAD DUP4 LT ISZERO PUSH2 0x395 JUMPI PUSH1 0x20 SWAP3 PUSH2 0x387 SWAP2 PUSH2 0x4919 JUMP JUMPDEST SWAP2 SWAP1 SLOAD SWAP1 MLOAD SWAP2 PUSH1 0x3 SHL SHR DUP2 MSTORE RETURN JUMPDEST PUSH0 DUP1 REVERT JUMPDEST POP CALLVALUE PUSH2 0x395 JUMPI PUSH1 0x20 SWAP1 PUSH2 0x3AB CALLDATASIZE PUSH2 0x474C JUMP JUMPDEST SWAP1 PUSH0 MSTORE PUSH1 0x10 DUP4 MSTORE DUP2 PUSH0 KECCAK256 SWAP1 PUSH0 MSTORE DUP3 MSTORE PUSH1 0xFF DUP2 PUSH0 KECCAK256 SLOAD AND SWAP1 MLOAD SWAP1 PUSH2 0x3CD DUP2 PUSH2 0x4762 JUMP JUMPDEST DUP2 MSTORE RETURN JUMPDEST POP CALLVALUE PUSH2 0x395 JUMPI PUSH0 CALLDATASIZE PUSH1 0x3 NOT ADD SLT PUSH2 0x395 JUMPI PUSH0 SLOAD SWAP1 MLOAD PUSH1 0x1 PUSH1 0x1 PUSH1 0xA0 SHL SUB SWAP1 SWAP2 AND DUP2 MSTORE PUSH1 0x20 SWAP1 RETURN JUMPDEST DUP3 CALLVALUE PUSH2 0x395 JUMPI PUSH1 0x20 SWAP2 DUP3 PUSH1 0x3 NOT CALLDATASIZE ADD SLT PUSH2 0x395 JUMPI DUP1 CALLDATALOAD SWAP3 PUSH2 0x420 PUSH2 0x41B CALLER PUSH2 0x5167 JUMP JUMPDEST PUSH2 0x496F JUMP JUMPDEST CALLER PUSH0 MSTORE PUSH1 0x1 SWAP4 DUP5 DUP3 MSTORE DUP4 PUSH0 KECCAK256 SLOAD SWAP3 DUP2 PUSH0 MSTORE PUSH1 0xC DUP4 MSTORE DUP5 PUSH0 KECCAK256 DUP5 PUSH0 MSTORE DUP4 MSTORE DUP5 PUSH0 KECCAK256 SWAP1 DUP2 SLOAD SWAP2 PUSH1 0xFF SWAP2 DUP9 PUSH1 0xFF DUP6 AND PUSH2 0x455 DUP2 PUSH2 0x4942 JUMP JUMPDEST SUB PUSH2 0x5AD JUMPI PUSH1 0xFF NOT DUP1 SWAP5 AND OR SWAP1 SSTORE DUP5 DUP4 PUSH32 0xC1F9BDA0602B12C2F11218F87531038A6957666101C4FAAD39C882DCC5093DC6 DUP7 DUP10 MLOAD TIMESTAMP DUP2 MSTORE LOG3 DUP3 PUSH0 MSTORE PUSH1 0xE DUP5 MSTORE DUP6 PUSH0 KECCAK256 DUP6 PUSH0 MSTORE DUP5 MSTORE DUP6 PUSH0 KECCAK256 DUP8 PUSH0 SWAP1 JUMPDEST PUSH2 0x4C5 JUMPI JUMPDEST PUSH2 0x4C3 DUP9 DUP9 DUP9 DUP9 PUSH0 MSTORE PUSH1 0xE DUP2 MSTORE DUP3 PUSH0 KECCAK256 SWAP2 PUSH0 MSTORE MSTORE PUSH0 KECCAK256 PUSH2 0x502C JUMP JUMPDEST STOP JUMPDEST DUP2 SLOAD DUP2 LT ISZERO PUSH2 0x5A8 JUMPI SWAP1 DUP9 DUP3 DUP9 DUP11 PUSH2 0x4E0 DUP5 SWAP9 SWAP8 SWAP7 DUP7 PUSH2 0x4919 JUMP JUMPDEST SWAP1 SLOAD SWAP1 PUSH1 0x3 SHL SHR DUP10 PUSH0 MSTORE PUSH1 0xF DUP12 MSTORE DUP2 PUSH0 KECCAK256 DUP4 PUSH0 MSTORE DUP12 MSTORE DUP2 PUSH0 KECCAK256 DUP2 PUSH0 MSTORE DUP12 MSTORE DUP2 PUSH0 KECCAK256 DUP9 DUP2 SLOAD AND SWAP1 SSTORE PUSH2 0x511 DUP4 DUP3 PUSH2 0x52C2 JUMP JUMPDEST PUSH0 MSTORE DUP11 PUSH1 0x5 DUP1 DUP3 MSTORE DUP9 DUP8 DUP6 PUSH0 KECCAK256 ADD SLOAD AND ISZERO PUSH2 0x59E JUMPI DUP5 SWAP4 PUSH1 0xB PUSH0 DUP1 MLOAD PUSH1 0x20 PUSH2 0x5BAC DUP4 CODECOPY DUP2 MLOAD SWAP2 MSTORE SWAP4 PUSH2 0x543 DUP8 DUP8 PUSH2 0x52C2 JUMP JUMPDEST SWAP4 DUP5 PUSH0 MSTORE DUP1 DUP3 MSTORE PUSH2 0x555 DUP5 PUSH0 KECCAK256 PUSH2 0x47FA JUMP JUMPDEST SWAP5 PUSH2 0x561 DUP7 DUP11 DUP11 PUSH2 0x5443 JUMP JUMPDEST PUSH0 MSTORE DUP2 MSTORE DUP10 DUP4 PUSH0 KECCAK256 ADD DUP14 DUP2 SLOAD AND SWAP1 SSTORE MSTORE PUSH0 DUP2 DUP2 KECCAK256 SSTORE DUP14 PUSH2 0x58A DUP3 MLOAD SWAP4 DUP4 DUP6 SWAP5 DUP6 MSTORE DUP5 ADD SWAP1 PUSH2 0x489C JUMP JUMPDEST SWAP1 TIMESTAMP SWAP1 DUP4 ADD MSTORE SUB SWAP1 LOG4 JUMPDEST ADD SWAP1 SWAP2 SWAP3 SWAP4 PUSH2 0x4A3 JUMP JUMPDEST POP POP POP POP POP PUSH2 0x594 JUMP JUMPDEST PUSH2 0x4A8 JUMP JUMPDEST DUP8 MLOAD PUSH3 0x461BCD PUSH1 0xE5 SHL DUP2 MSTORE SWAP1 DUP2 ADD DUP7 SWAP1 MSTORE PUSH1 0x1E PUSH1 0x24 DUP3 ADD MSTORE PUSH32 0x4E6F2070656E64696E672070726F706F73616C20746F206465636C696E650000 PUSH1 0x44 DUP3 ADD MSTORE PUSH1 0x64 SWAP1 REVERT JUMPDEST DUP3 CALLVALUE PUSH2 0x395 JUMPI PUSH1 0x20 CALLDATASIZE PUSH1 0x3 NOT ADD SLT PUSH2 0x395 JUMPI PUSH2 0x62C SWAP2 CALLDATALOAD PUSH0 MSTORE PUSH1 0x12 PUSH1 0x20 MSTORE PUSH2 0x619 DUP2 PUSH0 KECCAK256 PUSH2 0x4A42 JUMP JUMPDEST SWAP1 MLOAD SWAP2 DUP3 SWAP2 PUSH1 0x20 DUP4 MSTORE PUSH1 0x20 DUP4 ADD SWAP1 PUSH2 0x4719 JUMP JUMPDEST SUB SWAP1 RETURN JUMPDEST DUP3 CALLVALUE PUSH2 0x395 JUMPI PUSH2 0x63F CALLDATASIZE PUSH2 0x474C JUMP JUMPDEST SWAP2 SWAP1 PUSH0 MSTORE PUSH1 0x8 PUSH1 0x20 MSTORE DUP1 PUSH0 KECCAK256 DUP1 SLOAD DUP4 LT ISZERO PUSH2 0x395 JUMPI PUSH1 0x20 SWAP3 PUSH2 0x387 SWAP2 PUSH2 0x4919 JUMP JUMPDEST DUP3 CALLVALUE PUSH2 0x395 JUMPI PUSH1 0x20 CALLDATASIZE PUSH1 0x3 NOT ADD SLT PUSH2 0x395 JUMPI PUSH1 0x20 SWAP2 CALLDATALOAD PUSH0 MSTORE PUSH1 0x2 DUP3 MSTORE PUSH1 0xFF DUP2 PUSH0 KECCAK256 SLOAD AND SWAP1 MLOAD SWAP1 PUSH2 0x3CD DUP2 PUSH2 0x4942 JUMP JUMPDEST DUP3 CALLVALUE PUSH2 0x395 JUMPI DUP1 PUSH1 0x3 NOT CALLDATASIZE ADD SLT PUSH2 0x395 JUMPI DUP2 CALLDATALOAD PUSH1 0x1 PUSH1 0x1 PUSH1 0x40 SHL SUB DUP2 GT PUSH2 0x395 JUMPI PUSH2 0x6BD SWAP1 CALLDATASIZE SWAP1 DUP5 ADD PUSH2 0x4589 JUMP JUMPDEST SWAP2 PUSH2 0x6C6 PUSH2 0x44F1 JUMP JUMPDEST PUSH2 0x6D2 PUSH2 0x41B CALLER PUSH2 0x5167 JUMP JUMPDEST PUSH1 0x1 PUSH1 0x1 PUSH1 0xA0 SHL SUB AND SWAP1 DUP2 ISZERO PUSH2 0x9B8 JUMPI POP CALLER PUSH0 MSTORE PUSH1 0x1 SWAP3 PUSH1 0x20 PUSH1 0x1 DUP2 MSTORE DUP4 PUSH0 KECCAK256 SLOAD SWAP3 PUSH0 MSTORE DUP4 PUSH0 KECCAK256 SLOAD SWAP2 PUSH2 0x706 DUP4 ISZERO ISZERO PUSH2 0x49F6 JUMP JUMPDEST DUP6 PUSH0 SWAP6 DUP5 DUP7 EQ ISZERO SWAP2 JUMPDEST PUSH2 0x715 JUMPI STOP JUMPDEST DUP3 MLOAD DUP8 LT ISZERO PUSH2 0x4C3 JUMPI DUP8 DUP8 PUSH2 0x735 DUP8 PUSH2 0x72F DUP5 SWAP12 DUP9 PUSH2 0x4F9D JUMP JUMPDEST MLOAD PUSH2 0x56AE JUMP JUMPDEST ISZERO PUSH2 0x9B3 JUMPI DUP8 DUP8 PUSH2 0x750 DUP2 PUSH2 0x74A DUP6 DUP11 PUSH2 0x4F9D JUMP JUMPDEST MLOAD PUSH2 0x52C2 JUMP JUMPDEST DUP1 PUSH0 MSTORE PUSH1 0x5 DUP1 DUP11 MSTORE PUSH2 0x763 DUP8 PUSH0 KECCAK256 PUSH2 0x47FA JUMP JUMPDEST SWAP2 DUP6 DUP12 DUP11 DUP13 DUP7 MLOAD DUP4 DUP9 ADD KECCAK256 PUSH2 0x776 PUSH2 0x4C90 JUMP JUMPDEST DUP5 DUP2 MLOAD SWAP2 ADD KECCAK256 DUP2 EQ PUSH2 0x9A4 JUMPI PUSH2 0x796 DUP10 PUSH2 0x790 DUP8 DUP6 PUSH2 0x4F9D JUMP JUMPDEST MLOAD PUSH2 0x5354 JUMP JUMPDEST PUSH2 0x9A4 JUMPI DUP8 SWAP4 DUP10 SWAP4 PUSH2 0x87A JUMPI JUMPDEST PUSH2 0x7AB PUSH2 0x4CB1 JUMP JUMPDEST DUP1 MLOAD SWAP2 ADD KECCAK256 EQ PUSH2 0x821 JUMPI JUMPDEST PUSH2 0x7C9 SWAP4 PUSH2 0x7C3 SWAP2 PUSH2 0x4F9D JUMP JUMPDEST MLOAD PUSH2 0x5443 JUMP JUMPDEST PUSH0 MSTORE DUP10 MSTORE DUP5 DUP7 PUSH0 KECCAK256 ADD PUSH1 0xFF NOT DUP2 SLOAD AND SWAP1 SSTORE PUSH1 0xB DUP10 MSTORE PUSH0 DUP7 DUP2 KECCAK256 SSTORE PUSH0 DUP1 MLOAD PUSH1 0x20 PUSH2 0x5BAC DUP4 CODECOPY DUP2 MLOAD SWAP2 MSTORE PUSH2 0x811 PUSH2 0x7FE DUP7 DUP12 PUSH2 0x4F9D JUMP JUMPDEST MLOAD SWAP3 DUP9 MLOAD SWAP2 DUP3 SWAP2 DUP11 DUP4 MSTORE DUP11 DUP4 ADD SWAP1 PUSH2 0x489C JUMP JUMPDEST TIMESTAMP DUP14 DUP4 ADD MSTORE SUB SWAP1 LOG4 JUMPDEST ADD SWAP7 PUSH2 0x70F JUMP JUMPDEST SWAP1 POP PUSH2 0x82E SWAP3 SWAP2 POP PUSH2 0x4F9D JUMP JUMPDEST MLOAD PUSH0 MSTORE PUSH1 0x6 DUP12 MSTORE DUP6 DUP11 DUP10 PUSH0 KECCAK256 SLOAD ISZERO DUP1 PUSH2 0x85A JUMPI JUMPDEST PUSH2 0x84E JUMPI DUP6 DUP6 SWAP2 PUSH2 0x7B6 JUMP JUMPDEST POP POP POP POP POP POP POP PUSH2 0x81A JUMP JUMPDEST POP SWAP1 PUSH2 0x865 SWAP2 PUSH2 0x4F9D JUMP JUMPDEST MLOAD PUSH0 MSTORE PUSH1 0x7 DUP12 MSTORE DUP6 DUP11 DUP9 DUP11 PUSH0 KECCAK256 SLOAD GT ISZERO PUSH2 0x842 JUMP JUMPDEST SWAP3 POP SWAP3 POP DUP12 PUSH2 0x89C PUSH2 0x88C DUP7 DUP5 PUSH2 0x4F9D JUMP JUMPDEST MLOAD DUP12 PUSH2 0x896 PUSH2 0x4C90 JUMP JUMPDEST SWAP2 PUSH2 0x52F6 JUMP JUMPDEST DUP11 PUSH2 0x8B4 PUSH2 0x8AA DUP9 DUP7 PUSH2 0x4F9D JUMP JUMPDEST MLOAD DUP3 PUSH2 0x896 PUSH2 0x4CB1 JUMP JUMPDEST SWAP3 DUP11 DUP13 PUSH2 0x8BF PUSH2 0x4CFC JUMP JUMPDEST DUP9 DUP2 MLOAD SWAP2 ADD KECCAK256 DUP10 EQ DUP1 ISZERO PUSH2 0x98E JUMPI JUMPDEST ISZERO PUSH2 0x91E JUMPI POP POP DUP9 PUSH0 MSTORE PUSH1 0xB DUP7 MSTORE PUSH0 KECCAK256 SLOAD EQ SWAP1 ISZERO SWAP2 DUP3 PUSH2 0x915 JUMPI JUMPDEST POP DUP2 PUSH2 0x90C JUMPI JUMPDEST POP PUSH2 0x8FE JUMPI DUP7 SWAP3 DUP9 SWAP3 PUSH2 0x7A3 JUMP JUMPDEST POP POP POP POP POP POP POP POP POP PUSH2 0x81A JUMP JUMPDEST SWAP1 POP ISZERO PUSH0 PUSH2 0x8F0 JUMP JUMPDEST ISZERO SWAP2 POP PUSH0 PUSH2 0x8E9 JUMP JUMPDEST SWAP7 SWAP4 SWAP3 POP SWAP7 SWAP4 SWAP1 POP PUSH2 0x92E PUSH2 0x4CB1 JUMP JUMPDEST DUP4 DUP2 MLOAD SWAP2 ADD KECCAK256 DUP5 EQ PUSH2 0x942 JUMPI JUMPDEST POP POP PUSH2 0x7A3 JUMP JUMPDEST SWAP2 SWAP5 POP SWAP2 SWAP5 POP PUSH2 0x952 DUP7 DUP5 PUSH2 0x4F9D JUMP JUMPDEST MLOAD PUSH0 SWAP1 DUP2 MSTORE PUSH1 0x6 DUP6 MSTORE DUP15 SWAP1 KECCAK256 SLOAD ISZERO PUSH2 0x976 JUMPI POP ISZERO JUMPDEST PUSH2 0x8FE JUMPI DUP7 SWAP3 DUP9 SWAP3 PUSH0 DUP1 PUSH2 0x93B JUMP JUMPDEST SWAP1 ISZERO SWAP1 DUP2 PUSH2 0x985 JUMPI JUMPDEST POP PUSH2 0x967 JUMP JUMPDEST SWAP1 POP ISZERO PUSH0 PUSH2 0x97F JUMP JUMPDEST POP PUSH2 0x997 PUSH2 0x4CDA JUMP JUMPDEST DUP9 DUP2 MLOAD SWAP2 ADD KECCAK256 DUP10 EQ PUSH2 0x8CE JUMP JUMPDEST POP POP POP POP POP POP POP POP POP POP PUSH2 0x81A JUMP JUMPDEST PUSH2 0x81A JUMP JUMPDEST PUSH1 0x64 SWAP1 PUSH1 0x20 DUP5 MLOAD SWAP2 PUSH3 0x461BCD PUSH1 0xE5 SHL DUP4 MSTORE DUP3 ADD MSTORE PUSH1 0xE PUSH1 0x24 DUP3 ADD MSTORE PUSH14 0x125B9D985B1A59081DD85B1B195D PUSH1 0x92 SHL PUSH1 0x44 DUP3 ADD MSTORE REVERT JUMPDEST DUP3 CALLVALUE PUSH2 0x395 JUMPI PUSH0 CALLDATASIZE PUSH1 0x3 NOT ADD SLT PUSH2 0x395 JUMPI PUSH1 0xA SLOAD SWAP1 MLOAD PUSH1 0x1 PUSH1 0x1 PUSH1 0xA0 SHL SUB SWAP1 SWAP2 AND DUP2 MSTORE PUSH1 0x20 SWAP1 RETURN JUMPDEST DUP3 CALLVALUE PUSH2 0x395 JUMPI PUSH2 0xA23 CALLDATASIZE PUSH2 0x474C JUMP JUMPDEST SWAP2 PUSH2 0xA38 PUSH1 0x1 DUP1 PUSH1 0xA0 SHL SUB PUSH0 SLOAD AND CALLER EQ PUSH2 0x4AE1 JUMP JUMPDEST DUP2 ISZERO PUSH2 0xC37 JUMPI PUSH2 0xA49 DUP4 ISZERO ISZERO PUSH2 0x5098 JUMP JUMPDEST PUSH2 0xA55 DUP4 DUP4 EQ ISZERO PUSH2 0x50D6 JUMP JUMPDEST DUP2 PUSH0 MSTORE PUSH1 0x2 PUSH1 0x20 DUP2 DUP2 MSTORE PUSH1 0xFF DUP4 PUSH0 KECCAK256 SLOAD AND PUSH2 0xA6F DUP2 PUSH2 0x4942 JUMP JUMPDEST ISZERO PUSH2 0xBFC JUMPI DUP5 PUSH0 MSTORE DUP2 DUP2 MSTORE PUSH2 0xA94 PUSH1 0xFF DUP5 PUSH0 KECCAK256 SLOAD AND PUSH2 0xA8D DUP2 PUSH2 0x4942 JUMP JUMPDEST ISZERO ISZERO PUSH2 0x5122 JUMP JUMPDEST DUP4 PUSH0 MSTORE PUSH1 0xC DUP2 MSTORE DUP3 PUSH0 KECCAK256 DUP6 PUSH0 MSTORE DUP2 MSTORE PUSH1 0xFF DUP4 PUSH0 KECCAK256 SLOAD AND SWAP6 PUSH2 0xAB4 DUP8 PUSH2 0x4942 JUMP JUMPDEST DUP7 ISZERO SWAP1 DUP2 DUP1 ISZERO PUSH2 0xBE9 JUMPI JUMPDEST ISZERO PUSH2 0xB97 JUMPI POP PUSH2 0xAF1 PUSH32 0xC5B2E1BD4433EB4E9E181CC803520513D39D918C96BDDEEBCA1224E1C750963D SWAP6 SWAP7 SWAP8 PUSH2 0x4942 JUMP JUMPDEST PUSH2 0xB7F JUMPI JUMPDEST PUSH2 0xB43 DUP4 MLOAD PUSH2 0xB04 DUP2 PUSH2 0x4507 JUMP JUMPDEST DUP4 DUP2 MSTORE DUP3 DUP2 ADD DUP5 DUP2 MSTORE DUP8 PUSH0 MSTORE PUSH1 0xC DUP5 MSTORE DUP6 PUSH0 KECCAK256 DUP10 PUSH0 MSTORE DUP5 MSTORE PUSH2 0xB33 DUP7 PUSH0 KECCAK256 SWAP3 MLOAD PUSH2 0xB2D DUP2 PUSH2 0x4942 JUMP JUMPDEST DUP4 PUSH2 0x4ED1 JUMP JUMPDEST MLOAD SWAP1 PUSH2 0xB3E DUP3 PUSH2 0x4762 JUMP JUMPDEST PUSH2 0x4F57 JUMP JUMPDEST DUP6 DUP6 PUSH32 0x494D010FDF588A0E83D626EA6963187BDDA6F88B7007F7BF280683D3F7DEA834 DUP6 DUP1 MLOAD DUP7 DUP2 MSTORE TIMESTAMP DUP7 DUP3 ADD MSTORE LOG3 DUP3 MLOAD SWAP2 DUP3 MSTORE TIMESTAMP SWAP1 DUP3 ADD MSTORE LOG3 STOP JUMPDEST DUP5 PUSH0 MSTORE PUSH1 0xD DUP2 MSTORE PUSH2 0xB92 DUP7 DUP5 PUSH0 KECCAK256 PUSH2 0x505C JUMP JUMPDEST PUSH2 0xAF6 JUMP JUMPDEST DUP5 MLOAD PUSH3 0x461BCD PUSH1 0xE5 SHL DUP2 MSTORE SWAP1 DUP2 ADD DUP4 SWAP1 MSTORE PUSH1 0x26 PUSH1 0x24 DUP3 ADD MSTORE PUSH32 0x52656C6174696F6E7368697020616C726561647920616374697665206F722070 PUSH1 0x44 DUP3 ADD MSTORE PUSH6 0x656E64696E67 PUSH1 0xD0 SHL PUSH1 0x64 DUP3 ADD MSTORE PUSH1 0x84 SWAP1 REVERT JUMPDEST POP PUSH2 0xBF3 DUP9 PUSH2 0x4942 JUMP JUMPDEST PUSH1 0x3 DUP9 EQ PUSH2 0xABF JUMP JUMPDEST DUP6 PUSH1 0x64 SWAP2 DUP5 MLOAD SWAP2 PUSH3 0x461BCD PUSH1 0xE5 SHL DUP4 MSTORE DUP3 ADD MSTORE PUSH1 0x16 PUSH1 0x24 DUP3 ADD MSTORE PUSH22 0x151C9D5CDD1BDC881B9BDD081C9959DA5CDD195C9959 PUSH1 0x52 SHL PUSH1 0x44 DUP3 ADD MSTORE REVERT JUMPDEST MLOAD PUSH3 0x461BCD PUSH1 0xE5 SHL DUP2 MSTORE PUSH1 0x20 DUP2 DUP6 ADD MSTORE PUSH1 0xF PUSH1 0x24 DUP3 ADD MSTORE PUSH15 0x24B73B30B634B2103A393AB9BA37B9 PUSH1 0x89 SHL PUSH1 0x44 DUP3 ADD MSTORE PUSH1 0x64 SWAP1 REVERT JUMPDEST DUP3 CALLVALUE PUSH2 0x395 JUMPI PUSH1 0x20 SWAP1 PUSH2 0xC7D CALLDATASIZE PUSH2 0x474C JUMP JUMPDEST SWAP1 PUSH0 MSTORE PUSH1 0x10 DUP4 MSTORE DUP2 PUSH0 KECCAK256 SWAP1 PUSH0 MSTORE DUP3 MSTORE PUSH1 0x1 PUSH1 0xFF DUP3 PUSH0 KECCAK256 SLOAD AND SWAP2 PUSH2 0xC9F DUP4 PUSH2 0x4762 JUMP JUMPDEST MLOAD SWAP2 EQ DUP2 MSTORE RETURN JUMPDEST SWAP1 POP CALLVALUE PUSH2 0x395 JUMPI PUSH2 0xCB6 CALLDATASIZE PUSH2 0x4780 JUMP JUMPDEST SWAP2 SWAP3 SWAP1 PUSH2 0xCC5 PUSH2 0x41B CALLER PUSH2 0x5167 JUMP JUMPDEST PUSH2 0xCD0 DUP5 ISZERO ISZERO PUSH2 0x4B5E JUMP JUMPDEST PUSH1 0x1 PUSH1 0x1 PUSH1 0xA0 SHL SUB AND SWAP3 PUSH2 0xCE5 DUP5 ISZERO ISZERO PUSH2 0x4BAA JUMP JUMPDEST PUSH2 0xCF6 PUSH2 0xCF1 DUP5 PUSH2 0x524A JUMP JUMPDEST PUSH2 0x4BF6 JUMP JUMPDEST CALLER PUSH0 MSTORE PUSH1 0x20 SWAP2 PUSH1 0x1 DUP4 MSTORE DUP6 PUSH0 KECCAK256 SLOAD SWAP5 PUSH0 MSTORE DUP6 PUSH0 KECCAK256 SLOAD SWAP3 PUSH2 0xD17 DUP5 ISZERO ISZERO PUSH2 0x49F6 JUMP JUMPDEST DUP5 MLOAD DUP2 DUP7 ADD KECCAK256 PUSH2 0xD27 DUP8 DUP6 PUSH2 0x52C2 JUMP JUMPDEST PUSH0 MSTORE PUSH1 0x5 DUP3 MSTORE PUSH1 0xFF PUSH1 0x1 DUP10 PUSH0 KECCAK256 ADD SLOAD AND ISZERO PUSH2 0x1075 JUMPI DUP4 PUSH0 MSTORE PUSH1 0x6 DUP3 MSTORE DUP8 PUSH0 KECCAK256 SLOAD ISZERO ISZERO SWAP1 PUSH2 0xD5C PUSH2 0xD55 PUSH2 0x4C90 JUMP JUMPDEST DUP10 DUP8 PUSH2 0x52F6 JUMP JUMPDEST SWAP2 PUSH2 0xD6F PUSH2 0xD68 PUSH2 0x4CB1 JUMP JUMPDEST DUP11 DUP9 PUSH2 0x52F6 JUMP JUMPDEST SWAP2 PUSH2 0xD82 PUSH2 0xD7B PUSH2 0x4CDA JUMP JUMPDEST DUP12 DUP10 PUSH2 0x52F6 JUMP JUMPDEST SWAP1 PUSH2 0xD8B PUSH2 0x4C90 JUMP JUMPDEST DUP1 MLOAD SWAP1 DUP8 ADD KECCAK256 DUP2 SUB PUSH2 0xEC9 JUMPI POP POP ISZERO PUSH2 0xE6F JUMPI POP ISZERO PUSH2 0xE2D JUMPI JUMPDEST PUSH2 0xDAF DUP5 DUP5 PUSH2 0x52C2 JUMP JUMPDEST PUSH0 MSTORE PUSH1 0x5 DUP2 MSTORE PUSH1 0xFF PUSH1 0x1 DUP9 PUSH0 KECCAK256 ADD SLOAD AND PUSH2 0xDCF JUMPI POP POP PUSH2 0x4C3 SWAP5 POP PUSH2 0x56B8 JUMP JUMPDEST DUP7 MLOAD PUSH3 0x461BCD PUSH1 0xE5 SHL DUP2 MSTORE SWAP2 DUP3 ADD MSTORE PUSH1 0x33 PUSH1 0x24 DUP3 ADD MSTORE PUSH32 0x54617267657420616C726561647920686173206120726F6C652E205573652063 PUSH1 0x44 DUP3 ADD MSTORE PUSH19 0x1A185B99D9549BDB194A0A481A5B9CDD195859 PUSH1 0x6A SHL PUSH1 0x64 DUP3 ADD MSTORE PUSH1 0x84 SWAP2 POP REVERT JUMPDEST DUP7 MLOAD PUSH3 0x461BCD PUSH1 0xE5 SHL DUP2 MSTORE SWAP2 DUP3 ADD DUP2 SWAP1 MSTORE PUSH1 0x24 DUP3 ADD MSTORE PUSH32 0x4F6E6C79206F776E6572732063616E206772616E74206F776E657220726F6C65 PUSH1 0x44 DUP3 ADD MSTORE PUSH1 0x64 SWAP2 POP REVERT JUMPDEST SWAP1 POP PUSH2 0xDA5 JUMPI DUP7 MLOAD PUSH3 0x461BCD PUSH1 0xE5 SHL DUP2 MSTORE SWAP2 DUP3 ADD MSTORE PUSH1 0x29 PUSH1 0x24 DUP3 ADD MSTORE PUSH32 0x4F6E6C792061646D696E6973747261746F72732063616E206772616E74206669 PUSH1 0x44 DUP3 ADD MSTORE PUSH9 0x3939BA1037BBB732B9 PUSH1 0xB9 SHL PUSH1 0x64 DUP3 ADD MSTORE PUSH1 0x84 SWAP2 POP REVERT JUMPDEST SWAP1 SWAP3 SWAP2 POP PUSH2 0xED5 PUSH2 0x4CB1 JUMP JUMPDEST DUP1 MLOAD SWAP1 DUP7 ADD KECCAK256 DUP2 SUB PUSH2 0xF4D JUMPI POP SWAP1 POP DUP2 ISZERO PUSH2 0xF45 JUMPI JUMPDEST POP PUSH2 0xDA5 JUMPI DUP7 MLOAD PUSH3 0x461BCD PUSH1 0xE5 SHL DUP2 MSTORE SWAP2 DUP3 ADD MSTORE PUSH1 0x3B PUSH1 0x24 DUP3 ADD MSTORE PUSH0 DUP1 MLOAD PUSH1 0x20 PUSH2 0x5BCC DUP4 CODECOPY DUP2 MLOAD SWAP2 MSTORE PUSH1 0x44 DUP3 ADD MSTORE PUSH32 0x616E206772616E742061646D696E6973747261746F7220726F6C650000000000 PUSH1 0x64 DUP3 ADD MSTORE PUSH1 0x84 SWAP2 POP REVERT JUMPDEST SWAP1 POP PUSH0 PUSH2 0xEEB JUMP JUMPDEST PUSH2 0xF55 PUSH2 0x4CDA JUMP JUMPDEST DUP1 MLOAD SWAP1 DUP7 ADD KECCAK256 DUP2 SUB PUSH2 0xFC4 JUMPI POP SWAP1 POP DUP2 ISZERO PUSH2 0xFBC JUMPI JUMPDEST POP PUSH2 0xDA5 JUMPI DUP7 MLOAD PUSH3 0x461BCD PUSH1 0xE5 SHL DUP2 MSTORE SWAP2 DUP3 ADD MSTORE PUSH1 0x34 PUSH1 0x24 DUP3 ADD MSTORE PUSH0 DUP1 MLOAD PUSH1 0x20 PUSH2 0x5BCC DUP4 CODECOPY DUP2 MLOAD SWAP2 MSTORE PUSH1 0x44 DUP3 ADD MSTORE PUSH20 0x616E206772616E742073686172657220726F6C65 PUSH1 0x60 SHL PUSH1 0x64 DUP3 ADD MSTORE PUSH1 0x84 SWAP2 POP REVERT JUMPDEST SWAP1 POP PUSH0 PUSH2 0xF6B JUMP JUMPDEST PUSH2 0xFCC PUSH2 0x4CFC JUMP JUMPDEST DUP6 DUP2 MLOAD SWAP2 ADD KECCAK256 EQ PUSH2 0xFE0 JUMPI JUMPDEST POP POP POP PUSH2 0xDA5 JUMP JUMPDEST DUP3 ISZERO PUSH2 0x106D JUMPI JUMPDEST POP DUP2 ISZERO PUSH2 0x1065 JUMPI JUMPDEST POP ISZERO PUSH2 0xFFD JUMPI PUSH0 DUP1 DUP1 PUSH2 0xFD8 JUMP JUMPDEST DUP7 MLOAD PUSH3 0x461BCD PUSH1 0xE5 SHL DUP2 MSTORE SWAP2 DUP3 ADD MSTORE PUSH1 0x3E PUSH1 0x24 DUP3 ADD MSTORE PUSH32 0x4F6E6C79206F776E6572732C2061646D696E6973747261746F72732C20616E64 PUSH1 0x44 DUP3 ADD MSTORE PUSH32 0x20736861726572732063616E206772616E742076696577657220726F6C650000 PUSH1 0x64 DUP3 ADD MSTORE PUSH1 0x84 SWAP2 POP REVERT JUMPDEST SWAP1 POP PUSH0 PUSH2 0xFEF JUMP JUMPDEST SWAP2 POP PUSH0 PUSH2 0xFE7 JUMP JUMPDEST PUSH1 0x64 DUP4 DUP4 DUP1 DUP12 MLOAD SWAP3 PUSH3 0x461BCD PUSH1 0xE5 SHL DUP5 MSTORE DUP4 ADD MSTORE PUSH1 0x24 DUP3 ADD MSTORE PUSH32 0x596F752068617665206E6F20726F6C6520666F722074686973207265636F7264 PUSH1 0x44 DUP3 ADD MSTORE REVERT JUMPDEST SWAP1 POP CALLVALUE PUSH2 0x395 JUMPI PUSH1 0x60 CALLDATASIZE PUSH1 0x3 NOT ADD SLT PUSH2 0x395 JUMPI DUP1 CALLDATALOAD PUSH1 0x24 CALLDATALOAD PUSH1 0x3 DUP2 LT ISZERO PUSH2 0x395 JUMPI PUSH1 0x44 CALLDATALOAD PUSH1 0x1 PUSH1 0x1 PUSH1 0x40 SHL SUB DUP2 GT PUSH2 0x395 JUMPI PUSH2 0x10F5 SWAP1 CALLDATASIZE SWAP1 DUP6 ADD PUSH2 0x4589 JUMP JUMPDEST SWAP2 PUSH2 0x1102 PUSH2 0x41B CALLER PUSH2 0x5167 JUMP JUMPDEST CALLER PUSH0 MSTORE PUSH1 0x1 SWAP4 PUSH1 0x20 PUSH1 0x1 DUP2 MSTORE DUP7 PUSH0 KECCAK256 SLOAD SWAP2 PUSH2 0x111E DUP5 ISZERO ISZERO PUSH2 0x5098 JUMP JUMPDEST PUSH2 0x112A DUP5 DUP5 EQ ISZERO PUSH2 0x50D6 JUMP JUMPDEST DUP4 PUSH0 MSTORE PUSH1 0x2 DUP3 MSTORE PUSH2 0x1144 PUSH1 0xFF DUP10 PUSH0 KECCAK256 SLOAD AND PUSH2 0xA8D DUP2 PUSH2 0x4942 JUMP JUMPDEST DUP3 PUSH0 MSTORE PUSH1 0xC DUP3 MSTORE DUP8 PUSH0 KECCAK256 DUP5 PUSH0 MSTORE DUP3 MSTORE PUSH1 0xFF DUP9 PUSH0 KECCAK256 SLOAD AND PUSH2 0x1163 DUP2 PUSH2 0x4942 JUMP JUMPDEST DUP1 ISZERO SWAP2 DUP3 DUP1 ISZERO PUSH2 0x12B3 JUMPI JUMPDEST DUP1 ISZERO PUSH2 0x12A1 JUMPI JUMPDEST ISZERO PUSH2 0x1250 JUMPI POP DUP8 SWAP9 DUP6 SWAP4 DUP6 SWAP4 PUSH2 0x11AB PUSH32 0x494D010FDF588A0E83D626EA6963187BDDA6F88B7007F7BF280683D3F7DEA834 SWAP5 PUSH2 0x4942 JUMP JUMPDEST PUSH2 0x1238 JUMPI JUMPDEST PUSH2 0x11F1 DUP3 MLOAD PUSH2 0x11BE DUP2 PUSH2 0x4507 JUMP JUMPDEST PUSH1 0x1 DUP2 MSTORE DUP3 DUP2 ADD PUSH2 0x11CE DUP12 PUSH2 0x4762 JUMP JUMPDEST DUP11 DUP2 MSTORE DUP7 PUSH0 MSTORE PUSH1 0xC DUP5 MSTORE DUP5 PUSH0 KECCAK256 DUP9 PUSH0 MSTORE DUP5 MSTORE PUSH2 0xB33 DUP6 PUSH0 KECCAK256 SWAP3 MLOAD PUSH2 0xB2D DUP2 PUSH2 0x4942 JUMP JUMPDEST DUP2 MLOAD SWAP1 PUSH2 0x11FD DUP10 PUSH2 0x4762 JUMP JUMPDEST DUP9 DUP3 MSTORE TIMESTAMP SWAP1 DUP3 ADD MSTORE LOG3 PUSH0 SWAP5 JUMPDEST PUSH2 0x120F JUMPI STOP JUMPDEST DUP4 MLOAD DUP6 LT ISZERO PUSH2 0x4C3 JUMPI DUP6 DUP6 PUSH2 0x1231 DUP6 DUP6 DUP6 PUSH2 0x122B DUP7 SWAP12 DUP12 PUSH2 0x4F9D JUMP JUMPDEST MLOAD PUSH2 0x54EE JUMP JUMPDEST ADD SWAP5 PUSH2 0x1209 JUMP JUMPDEST DUP4 PUSH0 MSTORE PUSH1 0xD DUP2 MSTORE PUSH2 0x124B DUP6 DUP4 PUSH0 KECCAK256 PUSH2 0x505C JUMP JUMPDEST PUSH2 0x11B0 JUMP JUMPDEST DUP10 MLOAD PUSH3 0x461BCD PUSH1 0xE5 SHL DUP2 MSTORE SWAP1 DUP2 ADD DUP5 SWAP1 MSTORE PUSH1 0x25 PUSH1 0x24 DUP3 ADD MSTORE PUSH32 0x50726F706F73616C20616C726561647920657869737473206F72206973207065 PUSH1 0x44 DUP3 ADD MSTORE PUSH5 0x6E64696E67 PUSH1 0xD8 SHL PUSH1 0x64 DUP3 ADD MSTORE PUSH1 0x84 SWAP1 REVERT JUMPDEST POP PUSH2 0x12AB DUP3 PUSH2 0x4942 JUMP JUMPDEST DUP1 DUP3 EQ PUSH2 0x1175 JUMP JUMPDEST POP PUSH2 0x12BD DUP3 PUSH2 0x4942 JUMP JUMPDEST PUSH1 0x3 DUP3 EQ PUSH2 0x116E JUMP JUMPDEST SWAP1 POP CALLVALUE PUSH2 0x395 JUMPI PUSH1 0x20 DUP1 PUSH1 0x3 NOT CALLDATASIZE ADD SLT PUSH2 0x395 JUMPI DUP2 CALLDATALOAD SWAP3 PUSH2 0x12E9 PUSH2 0x41B CALLER PUSH2 0x5167 JUMP JUMPDEST CALLER PUSH0 MSTORE PUSH1 0x1 DUP3 MSTORE DUP1 PUSH0 KECCAK256 SLOAD SWAP3 DUP5 ISZERO PUSH2 0x14B6 JUMPI DUP5 DUP5 EQ PUSH2 0x1475 JUMPI DUP5 PUSH0 MSTORE PUSH1 0x2 DUP4 MSTORE PUSH1 0xFF DUP3 PUSH0 KECCAK256 SLOAD AND PUSH2 0x1319 DUP2 PUSH2 0x4942 JUMP JUMPDEST DUP2 PUSH1 0x2 DUP3 EQ SWAP2 DUP3 ISZERO PUSH2 0x145D JUMPI JUMPDEST DUP3 ISZERO PUSH2 0x1449 JUMPI JUMPDEST POP POP ISZERO PUSH2 0x1409 JUMPI DUP4 PUSH0 MSTORE PUSH1 0x10 DUP4 MSTORE DUP2 PUSH0 KECCAK256 DUP6 PUSH0 MSTORE DUP4 MSTORE PUSH1 0x1 PUSH1 0xFF DUP4 PUSH0 KECCAK256 SLOAD AND PUSH2 0x1355 DUP2 PUSH2 0x4762 JUMP JUMPDEST EQ PUSH2 0x13C8 JUMPI POP SWAP1 PUSH32 0xBC7E6071D162923D46A4378AF39747CEA2CCB6F4A57F09AEFC6E92047C5BF1BE SWAP2 DUP4 PUSH0 MSTORE PUSH1 0x10 DUP3 MSTORE DUP1 PUSH0 KECCAK256 DUP6 PUSH0 MSTORE DUP3 MSTORE DUP1 PUSH0 KECCAK256 PUSH1 0x1 PUSH1 0xFF NOT DUP3 SLOAD AND OR SWAP1 SSTORE DUP4 PUSH0 MSTORE PUSH1 0x11 DUP3 MSTORE PUSH2 0x13AE DUP6 DUP3 PUSH0 KECCAK256 PUSH2 0x505C JUMP JUMPDEST DUP5 PUSH0 MSTORE PUSH1 0x12 DUP3 MSTORE PUSH2 0x13C1 DUP5 DUP3 PUSH0 KECCAK256 PUSH2 0x505C JUMP JUMPDEST MLOAD TIMESTAMP DUP2 MSTORE LOG3 STOP JUMPDEST DUP3 PUSH1 0x64 SWAP3 MLOAD SWAP2 PUSH3 0x461BCD PUSH1 0xE5 SHL DUP4 MSTORE DUP3 ADD MSTORE PUSH1 0x1E PUSH1 0x24 DUP3 ADD MSTORE PUSH32 0x416C726561647920766F756368696E6720666F72207468697320757365720000 PUSH1 0x44 DUP3 ADD MSTORE REVERT JUMPDEST DUP3 DUP1 PUSH1 0x64 SWAP4 MLOAD SWAP3 PUSH3 0x461BCD PUSH1 0xE5 SHL DUP5 MSTORE DUP4 ADD MSTORE PUSH1 0x24 DUP3 ADD MSTORE PUSH32 0x566F7563686565206D75737420626520616E20616374697665206D656D626572 PUSH1 0x44 DUP3 ADD MSTORE REVERT JUMPDEST SWAP1 SWAP2 POP PUSH2 0x1455 DUP2 PUSH2 0x4942 JUMP JUMPDEST EQ DUP2 PUSH0 PUSH2 0x132D JUMP JUMPDEST DUP1 SWAP3 POP PUSH2 0x146A SWAP2 POP PUSH2 0x4942 JUMP JUMPDEST DUP2 PUSH1 0x3 DUP3 EQ SWAP2 PUSH2 0x1326 JUMP JUMPDEST DUP3 PUSH1 0x64 SWAP3 MLOAD SWAP2 PUSH3 0x461BCD PUSH1 0xE5 SHL DUP4 MSTORE DUP3 ADD MSTORE PUSH1 0x19 PUSH1 0x24 DUP3 ADD MSTORE PUSH32 0x43616E6E6F7420766F75636820666F7220796F757273656C6600000000000000 PUSH1 0x44 DUP3 ADD MSTORE REVERT JUMPDEST DUP3 PUSH1 0x64 SWAP3 MLOAD SWAP2 PUSH3 0x461BCD PUSH1 0xE5 SHL DUP4 MSTORE DUP3 ADD MSTORE PUSH1 0xF PUSH1 0x24 DUP3 ADD MSTORE PUSH15 0x496E76616C696420766F7563686565 PUSH1 0x88 SHL PUSH1 0x44 DUP3 ADD MSTORE REVERT JUMPDEST DUP3 CALLVALUE PUSH2 0x395 JUMPI DUP1 PUSH1 0x3 NOT CALLDATASIZE ADD SLT PUSH2 0x395 JUMPI DUP2 CALLDATALOAD PUSH2 0x1504 PUSH2 0x44F1 JUMP JUMPDEST PUSH2 0x1510 PUSH2 0x41B CALLER PUSH2 0x5167 JUMP JUMPDEST PUSH2 0x151B DUP3 ISZERO ISZERO PUSH2 0x4B5E JUMP JUMPDEST PUSH1 0x1 PUSH1 0x1 PUSH1 0xA0 SHL SUB AND SWAP3 PUSH2 0x1530 DUP5 ISZERO ISZERO PUSH2 0x4BAA JUMP JUMPDEST CALLER PUSH0 MSTORE PUSH1 0x20 SWAP3 PUSH1 0x1 DUP5 MSTORE DUP1 PUSH0 KECCAK256 SLOAD SWAP5 PUSH0 MSTORE DUP1 PUSH0 KECCAK256 SLOAD SWAP4 PUSH2 0x1551 DUP6 ISZERO ISZERO PUSH2 0x49F6 JUMP JUMPDEST PUSH2 0x155B DUP6 DUP6 PUSH2 0x52C2 JUMP JUMPDEST DUP1 PUSH0 MSTORE PUSH1 0x5 DUP3 MSTORE PUSH2 0x1574 PUSH1 0xFF PUSH1 0x1 DUP6 PUSH0 KECCAK256 ADD SLOAD AND PUSH2 0x4C38 JUMP JUMPDEST DUP1 PUSH0 MSTORE PUSH1 0x5 DUP3 MSTORE PUSH2 0x1586 DUP4 PUSH0 KECCAK256 PUSH2 0x47FA JUMP JUMPDEST SWAP4 DUP5 MLOAD DUP4 DUP7 ADD KECCAK256 PUSH2 0x1595 PUSH2 0x4C90 JUMP JUMPDEST DUP5 DUP2 MLOAD SWAP2 ADD KECCAK256 DUP2 EQ PUSH2 0x192E JUMPI PUSH2 0x15AB DUP9 DUP9 PUSH2 0x5354 JUMP JUMPDEST PUSH2 0x189F JUMPI DUP8 DUP10 SUB PUSH2 0x16B9 JUMPI JUMPDEST PUSH2 0x15BF PUSH2 0x4CB1 JUMP JUMPDEST DUP5 DUP2 MLOAD SWAP2 ADD KECCAK256 EQ PUSH2 0x1624 JUMPI JUMPDEST POP SWAP1 DUP4 SWAP3 SWAP2 PUSH2 0x15E9 PUSH0 DUP1 MLOAD PUSH1 0x20 PUSH2 0x5BAC DUP4 CODECOPY DUP2 MLOAD SWAP2 MSTORE SWAP6 DUP9 DUP9 PUSH2 0x5443 JUMP JUMPDEST PUSH0 MSTORE PUSH1 0x5 DUP2 MSTORE PUSH1 0x1 DUP3 PUSH0 KECCAK256 ADD PUSH1 0xFF NOT DUP2 SLOAD AND SWAP1 SSTORE PUSH1 0xB DUP2 MSTORE PUSH0 DUP3 DUP2 KECCAK256 SSTORE PUSH2 0x1619 DUP3 MLOAD SWAP4 DUP4 DUP6 SWAP5 DUP6 MSTORE DUP5 ADD SWAP1 PUSH2 0x489C JUMP JUMPDEST SWAP1 TIMESTAMP SWAP1 DUP4 ADD MSTORE SUB SWAP1 LOG4 STOP JUMPDEST DUP6 PUSH0 MSTORE PUSH1 0x7 DUP4 MSTORE PUSH1 0x1 DUP5 PUSH0 KECCAK256 SLOAD GT PUSH1 0x6 DUP5 MSTORE DUP5 PUSH0 KECCAK256 SLOAD ISZERO ISZERO DUP2 ISZERO PUSH2 0x16B1 JUMPI JUMPDEST POP PUSH2 0x15CB JUMPI DUP4 MLOAD PUSH3 0x461BCD PUSH1 0xE5 SHL DUP2 MSTORE SWAP1 DUP2 ADD DUP4 SWAP1 MSTORE PUSH1 0x39 PUSH1 0x24 DUP3 ADD MSTORE PUSH32 0x43616E6E6F74207265766F6B65206C6173742061646D696E6973747261746F72 PUSH1 0x44 DUP3 ADD MSTORE PUSH32 0x20776974686F757420616E206F776E65722070726573656E7400000000000000 PUSH1 0x64 DUP3 ADD MSTORE PUSH1 0x84 SWAP1 REVERT JUMPDEST SWAP1 POP DUP10 PUSH2 0x1643 JUMP JUMPDEST PUSH2 0x16CB PUSH2 0x16C4 PUSH2 0x4C90 JUMP JUMPDEST DUP11 DUP10 PUSH2 0x52F6 JUMP JUMPDEST PUSH2 0x16DD PUSH2 0x16D6 PUSH2 0x4CB1 JUMP JUMPDEST DUP12 DUP11 PUSH2 0x52F6 JUMP JUMPDEST DUP5 PUSH0 MSTORE PUSH1 0xB DUP7 MSTORE DUP11 DUP8 PUSH0 KECCAK256 SLOAD EQ SWAP1 PUSH2 0x16F3 PUSH2 0x4CFC JUMP JUMPDEST DUP8 DUP2 MLOAD SWAP2 ADD KECCAK256 DUP5 EQ DUP1 ISZERO PUSH2 0x1889 JUMPI JUMPDEST ISZERO PUSH2 0x17AE JUMPI DUP3 ISZERO PUSH2 0x17A6 JUMPI JUMPDEST POP DUP2 ISZERO PUSH2 0x179E JUMPI JUMPDEST POP ISZERO PUSH2 0x1722 JUMPI JUMPDEST PUSH2 0x15B7 JUMP JUMPDEST DUP5 MLOAD PUSH3 0x461BCD PUSH1 0xE5 SHL DUP2 MSTORE DUP1 DUP4 ADD DUP6 SWAP1 MSTORE PUSH1 0x4A PUSH1 0x24 DUP3 ADD MSTORE PUSH32 0x4F6E6C79206F776E6572732C2061646D696E6973747261746F72732C206F7220 PUSH1 0x44 DUP3 ADD MSTORE PUSH32 0x746865206772616E7465722063616E207265766F6B65207669657765722F7368 PUSH1 0x64 DUP3 ADD MSTORE PUSH10 0x6172657220726F6C6573 PUSH1 0xB0 SHL PUSH1 0x84 DUP3 ADD MSTORE PUSH1 0xA4 SWAP1 REVERT JUMPDEST SWAP1 POP DUP11 PUSH2 0x1716 JUMP JUMPDEST SWAP2 POP DUP12 PUSH2 0x170E JUMP JUMPDEST DUP3 ISZERO SWAP3 SWAP2 POP DUP3 PUSH2 0x1881 JUMPI JUMPDEST POP ISZERO PUSH2 0x1839 JUMPI ISZERO PUSH2 0x15B7 JUMPI PUSH2 0x17CC PUSH2 0x4CB1 JUMP JUMPDEST DUP5 DUP2 MLOAD SWAP2 ADD KECCAK256 DUP2 SUB PUSH2 0x171D JUMPI DUP7 PUSH0 MSTORE PUSH1 0x6 DUP5 MSTORE DUP5 PUSH0 KECCAK256 SLOAD ISZERO PUSH2 0x171D JUMPI DUP5 MLOAD PUSH3 0x461BCD PUSH1 0xE5 SHL DUP2 MSTORE DUP1 DUP4 ADD DUP6 SWAP1 MSTORE PUSH1 0x25 PUSH1 0x24 DUP3 ADD MSTORE PUSH32 0x4F6E6C79206F776E6572732063616E207265766F6B652061646D696E69737472 PUSH1 0x44 DUP3 ADD MSTORE PUSH5 0x61746F7273 PUSH1 0xD8 SHL PUSH1 0x64 DUP3 ADD MSTORE PUSH1 0x84 SWAP1 REVERT JUMPDEST DUP6 MLOAD PUSH3 0x461BCD PUSH1 0xE5 SHL DUP2 MSTORE DUP1 DUP5 ADD DUP7 SWAP1 MSTORE PUSH1 0x2F PUSH1 0x24 DUP3 ADD MSTORE PUSH0 DUP1 MLOAD PUSH1 0x20 PUSH2 0x5BCC DUP4 CODECOPY DUP2 MLOAD SWAP2 MSTORE PUSH1 0x44 DUP3 ADD MSTORE PUSH15 0x616E207265766F6B6520726F6C6573 PUSH1 0x88 SHL PUSH1 0x64 DUP3 ADD MSTORE PUSH1 0x84 SWAP1 REVERT JUMPDEST SWAP1 POP DUP12 PUSH2 0x17B9 JUMP JUMPDEST POP PUSH2 0x1892 PUSH2 0x4CDA JUMP JUMPDEST DUP8 DUP2 MLOAD SWAP2 ADD KECCAK256 DUP5 EQ PUSH2 0x1702 JUMP JUMPDEST DUP5 MLOAD PUSH3 0x461BCD PUSH1 0xE5 SHL DUP2 MSTORE DUP1 DUP4 ADD DUP6 SWAP1 MSTORE PUSH1 0x57 PUSH1 0x24 DUP3 ADD MSTORE PUSH32 0x43616E6E6F74207265766F6B6520616E20616374697665207375626A65637427 PUSH1 0x44 DUP3 ADD MSTORE PUSH32 0x7320726F6C652E20416374697665207375626A65637473206D75737420686F6C PUSH1 0x64 DUP3 ADD MSTORE PUSH32 0x64206174206C656173742073686172657220726F6C652E000000000000000000 PUSH1 0x84 DUP3 ADD MSTORE PUSH1 0xA4 SWAP1 REVERT JUMPDEST DUP5 MLOAD PUSH3 0x461BCD PUSH1 0xE5 SHL DUP2 MSTORE DUP1 DUP4 ADD DUP6 SWAP1 MSTORE PUSH1 0x45 PUSH1 0x24 DUP3 ADD MSTORE PUSH32 0x4F776E6572732063616E6E6F74206265207265766F6B65642E204F776E657220 PUSH1 0x44 DUP3 ADD MSTORE PUSH32 0x6D7573742075736520766F6C756E746172696C794C656176654F776E65727368 PUSH1 0x64 DUP3 ADD MSTORE PUSH5 0x34B8141497 PUSH1 0xD9 SHL PUSH1 0x84 DUP3 ADD MSTORE PUSH1 0xA4 SWAP1 REVERT JUMPDEST DUP3 CALLVALUE PUSH2 0x395 JUMPI PUSH1 0x20 CALLDATASIZE PUSH1 0x3 NOT ADD SLT PUSH2 0x395 JUMPI PUSH2 0x62C SWAP2 CALLDATALOAD PUSH0 MSTORE PUSH1 0xD PUSH1 0x20 MSTORE PUSH2 0x619 DUP2 PUSH0 KECCAK256 PUSH2 0x4A42 JUMP JUMPDEST SWAP1 POP CALLVALUE PUSH2 0x395 JUMPI PUSH1 0x20 SWAP1 DUP2 PUSH1 0x3 NOT CALLDATASIZE ADD SLT PUSH2 0x395 JUMPI DUP3 SWAP1 CALLDATALOAD PUSH0 MSTORE PUSH1 0x3 DUP3 MSTORE DUP1 PUSH0 KECCAK256 DUP2 MLOAD SWAP3 DUP4 DUP2 DUP4 SLOAD SWAP2 DUP3 DUP2 MSTORE ADD SWAP1 DUP2 SWAP4 PUSH0 MSTORE DUP3 PUSH0 KECCAK256 SWAP1 PUSH0 JUMPDEST DUP2 DUP2 LT PUSH2 0x1A60 JUMPI POP POP POP DUP5 PUSH2 0x1A1C SWAP2 SUB DUP6 PUSH2 0x4551 JUMP JUMPDEST DUP3 MLOAD DUP2 DUP2 MSTORE SWAP4 MLOAD DUP2 DUP6 ADD DUP2 SWAP1 MSTORE DUP5 SWAP4 DUP5 ADD SWAP3 SWAP2 PUSH0 JUMPDEST DUP3 DUP2 LT PUSH2 0x1A40 JUMPI POP POP POP POP SUB SWAP1 RETURN JUMPDEST DUP4 MLOAD PUSH1 0x1 PUSH1 0x1 PUSH1 0xA0 SHL SUB AND DUP6 MSTORE DUP7 SWAP6 POP SWAP4 DUP2 ADD SWAP4 SWAP3 DUP2 ADD SWAP3 PUSH1 0x1 ADD PUSH2 0x1A31 JUMP JUMPDEST DUP3 SLOAD PUSH1 0x1 PUSH1 0x1 PUSH1 0xA0 SHL SUB AND DUP5 MSTORE SWAP3 DUP5 ADD SWAP3 PUSH1 0x1 SWAP3 DUP4 ADD SWAP3 ADD PUSH2 0x1A06 JUMP JUMPDEST DUP3 CALLVALUE PUSH2 0x395 JUMPI PUSH1 0x20 CALLDATASIZE PUSH1 0x3 NOT ADD SLT PUSH2 0x395 JUMPI PUSH1 0x20 SWAP2 CALLDATALOAD PUSH0 MSTORE PUSH1 0xB DUP3 MSTORE DUP1 PUSH0 KECCAK256 SLOAD SWAP1 MLOAD SWAP1 DUP2 MSTORE RETURN JUMPDEST DUP3 CALLVALUE PUSH2 0x395 JUMPI PUSH1 0x20 CALLDATASIZE PUSH1 0x3 NOT ADD SLT PUSH2 0x395 JUMPI PUSH1 0x20 SWAP1 PUSH2 0x1AC9 PUSH2 0x1AC4 PUSH2 0x44DB JUMP JUMPDEST PUSH2 0x5931 JUMP JUMPDEST SWAP1 MLOAD SWAP1 ISZERO ISZERO DUP2 MSTORE RETURN JUMPDEST DUP3 CALLVALUE PUSH2 0x395 JUMPI PUSH2 0x1AE1 CALLDATASIZE PUSH2 0x474C JUMP JUMPDEST SWAP1 SWAP3 PUSH2 0x1AEF PUSH2 0x41B CALLER PUSH2 0x5167 JUMP JUMPDEST CALLER PUSH0 MSTORE PUSH1 0x1 SWAP4 PUSH1 0x20 SWAP2 DUP6 DUP4 MSTORE DUP5 PUSH0 KECCAK256 SLOAD SWAP1 DUP3 DUP3 EQ DUP1 ISZERO PUSH2 0x1D58 JUMPI JUMPDEST ISZERO PUSH2 0x1D17 JUMPI DUP3 PUSH0 MSTORE PUSH1 0xC DUP5 MSTORE DUP6 PUSH0 KECCAK256 DUP6 PUSH0 MSTORE DUP5 MSTORE PUSH1 0xFF SWAP1 PUSH1 0xFF DUP8 PUSH0 KECCAK256 SLOAD AND PUSH2 0x1B31 DUP2 PUSH2 0x4942 JUMP JUMPDEST DUP9 PUSH1 0x2 DUP3 EQ SWAP2 DUP3 ISZERO PUSH2 0x1D03 JUMPI JUMPDEST POP POP ISZERO PUSH2 0x1CB6 JUMPI POP DUP3 PUSH0 MSTORE PUSH1 0xC DUP5 MSTORE DUP6 PUSH0 KECCAK256 DUP6 PUSH0 MSTORE DUP5 MSTORE DUP6 PUSH0 KECCAK256 SWAP1 PUSH1 0x3 PUSH1 0xFF NOT SWAP3 PUSH1 0x3 DUP5 DUP3 SLOAD AND OR SWAP1 SSTORE DUP4 DUP8 DUP7 PUSH32 0x6DF3A6475FAB2EED139F7E469995B04E85BFC5B4B8642587109CB72541F74FAE DUP10 DUP13 MLOAD TIMESTAMP DUP2 MSTORE LOG4 DUP5 PUSH0 MSTORE PUSH1 0xE DUP7 MSTORE DUP8 PUSH0 KECCAK256 DUP8 PUSH0 MSTORE DUP7 MSTORE DUP8 PUSH0 KECCAK256 DUP10 PUSH0 SWAP1 JUMPDEST PUSH2 0x1BC9 JUMPI JUMPDEST PUSH2 0x4C3 DUP11 DUP11 DUP11 DUP11 PUSH0 MSTORE PUSH1 0xE DUP2 MSTORE DUP3 PUSH0 KECCAK256 SWAP2 PUSH0 MSTORE MSTORE PUSH0 KECCAK256 PUSH2 0x502C JUMP JUMPDEST DUP2 SLOAD DUP2 LT ISZERO PUSH2 0x1CB1 JUMPI SWAP1 DUP11 DUP3 DUP8 DUP12 DUP14 DUP13 PUSH2 0x1BE8 DUP7 SWAP13 SWAP12 SWAP11 SWAP10 SWAP9 DUP9 PUSH2 0x4919 JUMP JUMPDEST SWAP1 SLOAD SWAP1 DUP10 SHL SHR SWAP2 DUP14 PUSH0 MSTORE PUSH1 0xF DUP3 MSTORE DUP1 PUSH0 KECCAK256 DUP5 PUSH0 MSTORE DUP3 MSTORE DUP1 PUSH0 KECCAK256 DUP4 PUSH0 MSTORE DUP3 MSTORE DUP1 PUSH0 KECCAK256 DUP12 DUP2 SLOAD AND SWAP1 SSTORE PUSH2 0x1C19 DUP5 DUP5 PUSH2 0x52C2 JUMP JUMPDEST PUSH0 MSTORE PUSH1 0x5 SWAP1 DUP2 DUP4 MSTORE DUP11 DUP9 DUP3 PUSH0 KECCAK256 ADD SLOAD AND ISZERO PUSH2 0x1CA6 JUMPI PUSH0 DUP1 MLOAD PUSH1 0x20 PUSH2 0x5BAC DUP4 CODECOPY DUP2 MLOAD SWAP2 MSTORE SWAP3 PUSH2 0x1C47 DUP7 DUP7 PUSH2 0x52C2 JUMP JUMPDEST SWAP3 DUP4 PUSH0 MSTORE DUP1 DUP3 MSTORE PUSH2 0x1C59 DUP4 PUSH0 KECCAK256 PUSH2 0x47FA JUMP JUMPDEST SWAP4 PUSH2 0x1C65 DUP6 DUP10 DUP10 PUSH2 0x5443 JUMP JUMPDEST PUSH0 MSTORE DUP2 MSTORE DUP9 DUP3 PUSH0 KECCAK256 ADD DUP14 DUP2 SLOAD AND SWAP1 SSTORE PUSH1 0xB DUP2 MSTORE PUSH0 DUP3 DUP2 KECCAK256 SSTORE PUSH2 0x1C90 DUP3 MLOAD SWAP4 DUP4 DUP6 SWAP5 DUP6 MSTORE DUP5 ADD SWAP1 PUSH2 0x489C JUMP JUMPDEST SWAP1 TIMESTAMP SWAP1 DUP4 ADD MSTORE SUB SWAP1 LOG4 JUMPDEST ADD SWAP1 SWAP2 SWAP3 SWAP4 SWAP5 SWAP6 PUSH2 0x1BA9 JUMP JUMPDEST POP POP POP POP POP POP PUSH2 0x1C9A JUMP JUMPDEST PUSH2 0x1BAE JUMP JUMPDEST DUP7 MLOAD PUSH3 0x461BCD PUSH1 0xE5 SHL DUP2 MSTORE SWAP1 DUP2 ADD DUP6 SWAP1 MSTORE PUSH1 0x21 PUSH1 0x24 DUP3 ADD MSTORE PUSH32 0x4E6F20616374697665206F722070656E64696E672072656C6174696F6E736869 PUSH1 0x44 DUP3 ADD MSTORE PUSH1 0x7 PUSH1 0xFC SHL PUSH1 0x64 DUP3 ADD MSTORE PUSH1 0x84 SWAP1 REVERT JUMPDEST SWAP1 SWAP2 POP PUSH2 0x1D0F DUP2 PUSH2 0x4942 JUMP JUMPDEST EQ DUP9 DUP11 PUSH2 0x1B3E JUMP JUMPDEST PUSH1 0x64 SWAP1 DUP5 DUP1 DUP9 MLOAD SWAP3 PUSH3 0x461BCD PUSH1 0xE5 SHL DUP5 MSTORE DUP4 ADD MSTORE PUSH1 0x24 DUP3 ADD MSTORE PUSH32 0x4E6F74206120706172747920746F20746869732072656C6174696F6E73686970 PUSH1 0x44 DUP3 ADD MSTORE REVERT JUMPDEST POP DUP5 DUP3 EQ PUSH2 0x1B0A JUMP JUMPDEST DUP3 CALLVALUE PUSH2 0x395 JUMPI DUP1 PUSH1 0x3 NOT CALLDATASIZE ADD SLT PUSH2 0x395 JUMPI PUSH2 0x1AC9 PUSH1 0x20 SWAP3 PUSH2 0x1D80 PUSH2 0x44F1 JUMP JUMPDEST SWAP1 CALLDATALOAD PUSH2 0x4FEF JUMP JUMPDEST DUP3 CALLVALUE PUSH2 0x395 JUMPI PUSH1 0x20 CALLDATASIZE PUSH1 0x3 NOT ADD SLT PUSH2 0x395 JUMPI PUSH32 0xCE59AD7D6DABE8A7533ED7D9BD07D276A046AC7AC9A8E8E8971DA4B81104A28B PUSH1 0x20 PUSH2 0x1DC4 PUSH2 0x44DB JUMP JUMPDEST PUSH0 SLOAD PUSH1 0x1 PUSH1 0x1 PUSH1 0xA0 SHL SUB SWAP2 SWAP1 PUSH2 0x1DDD SWAP1 DUP4 AND CALLER EQ PUSH2 0x4AE1 JUMP JUMPDEST AND SWAP3 PUSH2 0x1DEA DUP5 ISZERO ISZERO PUSH2 0x4FB1 JUMP JUMPDEST PUSH1 0xA DUP1 SLOAD PUSH1 0x1 PUSH1 0x1 PUSH1 0xA0 SHL SUB NOT AND DUP6 OR SWAP1 SSTORE MLOAD TIMESTAMP DUP2 MSTORE LOG2 STOP JUMPDEST DUP3 CALLVALUE PUSH2 0x395 JUMPI PUSH2 0x62C SWAP1 PUSH2 0x1E16 CALLDATASIZE PUSH2 0x474C JUMP JUMPDEST SWAP1 PUSH0 MSTORE PUSH1 0xE PUSH1 0x20 MSTORE DUP2 PUSH0 KECCAK256 SWAP1 PUSH0 MSTORE PUSH1 0x20 MSTORE PUSH2 0x619 DUP2 PUSH0 KECCAK256 PUSH2 0x4A42 JUMP JUMPDEST DUP3 CALLVALUE PUSH2 0x395 JUMPI PUSH1 0x20 CALLDATASIZE PUSH1 0x3 NOT ADD SLT PUSH2 0x395 JUMPI PUSH2 0x62C SWAP2 CALLDATALOAD PUSH0 MSTORE PUSH1 0x6 PUSH1 0x20 MSTORE PUSH2 0x619 DUP2 PUSH0 KECCAK256 PUSH2 0x4A42 JUMP JUMPDEST DUP3 CALLVALUE PUSH2 0x395 JUMPI PUSH0 CALLDATASIZE PUSH1 0x3 NOT ADD SLT PUSH2 0x395 JUMPI PUSH1 0x20 SWAP2 SLOAD SWAP1 MLOAD SWAP1 DUP2 MSTORE RETURN JUMPDEST SWAP1 POP CALLVALUE PUSH2 0x395 JUMPI PUSH1 0x20 CALLDATASIZE PUSH1 0x3 NOT ADD SLT PUSH2 0x395 JUMPI PUSH2 0x1E92 PUSH2 0x44DB JUMP JUMPDEST PUSH0 SLOAD PUSH1 0x1 PUSH1 0x1 PUSH1 0xA0 SHL SUB SWAP2 SWAP1 PUSH2 0x1EAB SWAP1 DUP4 AND CALLER EQ PUSH2 0x4AE1 JUMP JUMPDEST AND DUP1 PUSH0 MSTORE PUSH1 0x1 SWAP2 DUP3 PUSH1 0x20 MSTORE PUSH2 0x1EC4 DUP5 PUSH0 KECCAK256 SLOAD ISZERO ISZERO PUSH2 0x4B1A JUMP JUMPDEST DUP2 PUSH0 MSTORE DUP3 PUSH1 0x20 MSTORE PUSH1 0xFF DUP4 DUP6 PUSH0 KECCAK256 ADD SLOAD AND PUSH2 0x1EF3 JUMPI POP SWAP2 DUP2 SWAP3 PUSH0 MSTORE DUP2 PUSH1 0x20 MSTORE PUSH0 KECCAK256 ADD SWAP1 PUSH1 0xFF NOT DUP3 SLOAD AND OR SWAP1 SSTORE PUSH0 DUP1 RETURN JUMPDEST PUSH1 0x64 SWAP1 PUSH1 0x20 DUP6 MLOAD SWAP2 PUSH3 0x461BCD PUSH1 0xE5 SHL DUP4 MSTORE DUP3 ADD MSTORE PUSH1 0x15 PUSH1 0x24 DUP3 ADD MSTORE PUSH21 0x57616C6C657420616C726561647920616374697665 PUSH1 0x58 SHL PUSH1 0x44 DUP3 ADD MSTORE REVERT JUMPDEST DUP3 CALLVALUE PUSH2 0x395 JUMPI PUSH1 0x20 SWAP1 DUP2 PUSH1 0x3 NOT CALLDATASIZE ADD SLT PUSH2 0x395 JUMPI DUP3 CALLDATALOAD SWAP2 PUSH2 0x1F51 PUSH2 0x41B CALLER PUSH2 0x5167 JUMP JUMPDEST CALLER PUSH0 MSTORE PUSH1 0x1 DUP2 MSTORE DUP2 PUSH0 KECCAK256 SLOAD SWAP4 DUP4 PUSH0 MSTORE PUSH1 0xC DUP3 MSTORE DUP3 PUSH0 KECCAK256 DUP6 PUSH0 MSTORE DUP3 MSTORE DUP3 PUSH0 KECCAK256 SWAP1 DUP2 SLOAD SWAP1 PUSH1 0x1 PUSH1 0xFF DUP4 AND PUSH2 0x1F82 DUP2 PUSH2 0x4942 JUMP JUMPDEST SUB PUSH2 0x1FD3 JUMPI POP PUSH1 0xFF NOT AND PUSH1 0x2 OR SWAP1 DUP2 SWAP1 SSTORE DUP3 MLOAD PUSH32 0xC5B2E1BD4433EB4E9E181CC803520513D39D918C96BDDEEBCA1224E1C750963D SWAP4 SWAP3 SWAP1 SWAP2 PUSH1 0x8 SHR PUSH1 0xFF AND PUSH2 0x1FC9 DUP2 PUSH2 0x4762 JUMP JUMPDEST DUP3 MSTORE TIMESTAMP SWAP1 DUP3 ADD MSTORE LOG3 STOP JUMPDEST DUP5 MLOAD PUSH3 0x461BCD PUSH1 0xE5 SHL DUP2 MSTORE SWAP1 DUP2 ADD DUP5 SWAP1 MSTORE PUSH1 0x13 PUSH1 0x24 DUP3 ADD MSTORE PUSH19 0x139BC81C195B991A5B99C81C1C9BDC1BDCD85B PUSH1 0x6A SHL PUSH1 0x44 DUP3 ADD MSTORE PUSH1 0x64 SWAP1 REVERT JUMPDEST DUP3 CALLVALUE PUSH2 0x395 JUMPI PUSH0 CALLDATASIZE PUSH1 0x3 NOT ADD SLT PUSH2 0x395 JUMPI DUP1 MLOAD PUSH2 0x62C SWAP2 PUSH2 0x202C DUP3 PUSH2 0x4507 JUMP JUMPDEST PUSH1 0x5 DUP3 MSTORE PUSH5 0x352E302E3 PUSH1 0xDC SHL PUSH1 0x20 DUP4 ADD MSTORE MLOAD SWAP2 DUP3 SWAP2 PUSH1 0x20 DUP4 MSTORE PUSH1 0x20 DUP4 ADD SWAP1 PUSH2 0x489C JUMP JUMPDEST SWAP1 POP CALLVALUE PUSH2 0x395 JUMPI PUSH2 0x2060 CALLDATASIZE PUSH2 0x48FA JUMP JUMPDEST SWAP2 PUSH2 0x206D PUSH2 0x41B CALLER PUSH2 0x5167 JUMP JUMPDEST CALLER PUSH0 MSTORE PUSH1 0x1 PUSH1 0x20 MSTORE DUP4 PUSH0 KECCAK256 SLOAD SWAP1 DUP2 PUSH0 MSTORE PUSH1 0xC PUSH1 0x20 MSTORE DUP5 PUSH0 KECCAK256 DUP4 PUSH0 MSTORE PUSH1 0x20 MSTORE DUP5 PUSH0 KECCAK256 PUSH1 0xFF DUP2 SLOAD PUSH2 0x20A9 PUSH1 0x2 DUP4 DUP4 AND PUSH2 0x20A3 DUP2 PUSH2 0x4942 JUMP JUMPDEST EQ PUSH2 0x4F0B JUMP JUMPDEST PUSH1 0x8 SHR AND SWAP2 PUSH2 0x20B7 DUP7 PUSH2 0x4762 JUMP JUMPDEST PUSH2 0x20C0 DUP4 PUSH2 0x4762 JUMP JUMPDEST DUP6 DUP4 EQ PUSH2 0x2112 JUMPI POP PUSH32 0xB36EC3C738EF8ECD9180ADDC815304762374B76E91C2A321831D9906EA119ADE PUSH2 0x210A DUP6 SWAP4 PUSH2 0x4C3 SWAP9 PUSH2 0x20FD DUP10 DUP9 SWAP7 PUSH2 0x4F57 JUMP JUMPDEST MLOAD SWAP2 DUP3 SWAP2 DUP10 TIMESTAMP SWAP2 DUP5 PUSH2 0x4F76 JUMP JUMPDEST SUB SWAP1 LOG3 PUSH2 0x55D9 JUMP JUMPDEST PUSH1 0x64 SWAP1 PUSH1 0x20 DUP9 MLOAD SWAP2 PUSH3 0x461BCD PUSH1 0xE5 SHL DUP4 MSTORE DUP3 ADD MSTORE PUSH1 0x18 PUSH1 0x24 DUP3 ADD MSTORE PUSH32 0x416C72656164792074686973207472757374206C6576656C0000000000000000 PUSH1 0x44 DUP3 ADD MSTORE REVERT JUMPDEST DUP3 CALLVALUE PUSH2 0x395 JUMPI PUSH1 0x20 SWAP1 PUSH2 0x2170 PUSH2 0x216A CALLDATASIZE PUSH2 0x474C JUMP JUMPDEST SWAP1 PUSH2 0x52C2 JUMP JUMPDEST PUSH0 MSTORE PUSH1 0xB DUP3 MSTORE DUP1 PUSH0 KECCAK256 SLOAD SWAP1 MLOAD SWAP1 DUP2 MSTORE RETURN JUMPDEST DUP3 CALLVALUE PUSH2 0x395 JUMPI PUSH2 0x2190 CALLDATASIZE PUSH2 0x474C JUMP JUMPDEST SWAP1 PUSH0 MSTORE PUSH1 0xC PUSH1 0x20 MSTORE DUP2 PUSH0 KECCAK256 SWAP1 PUSH0 MSTORE PUSH1 0x20 MSTORE DUP1 PUSH0 KECCAK256 PUSH2 0x62C PUSH1 0xFF DUP4 MLOAD SWAP3 PUSH2 0x21B5 DUP5 PUSH2 0x4507 JUMP JUMPDEST SLOAD DUP2 DUP2 AND PUSH2 0x21C2 DUP2 PUSH2 0x4942 JUMP JUMPDEST DUP5 MSTORE PUSH1 0x8 SHR AND SWAP2 PUSH1 0x20 DUP2 ADD SWAP3 PUSH2 0x21D7 DUP2 PUSH2 0x4762 JUMP JUMPDEST DUP4 MSTORE MLOAD SWAP2 PUSH2 0x21E4 DUP4 PUSH2 0x4942 JUMP JUMPDEST MLOAD SWAP3 PUSH2 0x21EF DUP5 PUSH2 0x4762 JUMP JUMPDEST MLOAD SWAP3 DUP4 SWAP3 DUP4 PUSH2 0x494C JUMP JUMPDEST DUP3 CALLVALUE PUSH2 0x395 JUMPI PUSH2 0x2208 CALLDATASIZE PUSH2 0x474C JUMP JUMPDEST SWAP2 SWAP1 PUSH0 MSTORE PUSH1 0x12 PUSH1 0x20 MSTORE DUP1 PUSH0 KECCAK256 DUP1 SLOAD DUP4 LT ISZERO PUSH2 0x395 JUMPI PUSH1 0x20 SWAP3 PUSH2 0x387 SWAP2 PUSH2 0x4919 JUMP JUMPDEST DUP3 CALLVALUE PUSH2 0x395 JUMPI DUP1 PUSH1 0x3 NOT CALLDATASIZE ADD SLT PUSH2 0x395 JUMPI DUP2 CALLDATALOAD SWAP1 PUSH1 0x24 CALLDATALOAD PUSH1 0x5 DUP2 LT ISZERO PUSH2 0x395 JUMPI PUSH2 0x225D PUSH1 0x1 DUP1 PUSH1 0xA0 SHL SUB PUSH0 SLOAD AND CALLER EQ PUSH2 0x4AE1 JUMP JUMPDEST DUP3 PUSH0 MSTORE PUSH1 0x20 PUSH1 0x2 DUP2 MSTORE PUSH1 0xFF DUP4 PUSH0 KECCAK256 SLOAD AND PUSH2 0x2276 DUP2 PUSH2 0x4942 JUMP JUMPDEST ISZERO PUSH2 0x2335 JUMPI DUP4 PUSH0 MSTORE PUSH1 0x2 DUP2 MSTORE PUSH1 0xFF DUP4 PUSH0 KECCAK256 SLOAD AND SWAP5 PUSH2 0x2293 DUP4 PUSH2 0x4942 JUMP JUMPDEST PUSH2 0x229C DUP7 PUSH2 0x4942 JUMP JUMPDEST DUP3 DUP7 EQ PUSH2 0x22FE JUMPI POP DUP4 PUSH0 MSTORE PUSH1 0x2 DUP2 MSTORE PUSH2 0x22B7 DUP3 DUP5 PUSH0 KECCAK256 PUSH2 0x4ED1 JUMP JUMPDEST DUP3 MLOAD SWAP5 PUSH2 0x22C3 DUP2 PUSH2 0x4942 JUMP JUMPDEST DUP6 MSTORE PUSH2 0x22CE DUP3 PUSH2 0x4942 JUMP JUMPDEST DUP5 ADD MSTORE TIMESTAMP SWAP1 DUP4 ADD MSTORE PUSH32 0xF6277C6EE46649823DB9A5C531DB3112B4340C67179CAE1932BA3420DCC37CC7 PUSH1 0x60 CALLER SWAP4 LOG3 STOP JUMPDEST PUSH1 0x64 SWAP2 DUP5 MLOAD SWAP2 PUSH3 0x461BCD PUSH1 0xE5 SHL DUP4 MSTORE DUP3 ADD MSTORE PUSH1 0x13 PUSH1 0x24 DUP3 ADD MSTORE PUSH19 0x416C7265616479207468697320737461747573 PUSH1 0x68 SHL PUSH1 0x44 DUP3 ADD MSTORE REVERT JUMPDEST DUP5 PUSH1 0x64 SWAP2 DUP5 MLOAD SWAP2 PUSH3 0x461BCD PUSH1 0xE5 SHL DUP4 MSTORE DUP3 ADD MSTORE PUSH1 0x13 PUSH1 0x24 DUP3 ADD MSTORE PUSH19 0x155CD95C881B9BDD081C9959DA5CDD195C9959 PUSH1 0x6A SHL PUSH1 0x44 DUP3 ADD MSTORE REVERT JUMPDEST DUP3 CALLVALUE PUSH2 0x395 JUMPI PUSH2 0x237C CALLDATASIZE PUSH2 0x474C JUMP JUMPDEST SWAP2 SWAP1 PUSH0 MSTORE PUSH1 0x3 PUSH1 0x20 MSTORE DUP1 PUSH0 KECCAK256 DUP1 SLOAD DUP4 LT ISZERO PUSH2 0x395 JUMPI PUSH1 0x20 SWAP3 PUSH2 0x239D SWAP2 PUSH2 0x4919 JUMP JUMPDEST PUSH1 0x1 DUP1 PUSH1 0xA0 SHL SUB SWAP2 SLOAD SWAP1 PUSH1 0x3 SHL SHR AND SWAP1 MLOAD SWAP1 DUP2 MSTORE RETURN JUMPDEST DUP3 CALLVALUE PUSH2 0x395 JUMPI PUSH2 0x23C2 CALLDATASIZE PUSH2 0x474C JUMP JUMPDEST SWAP2 SWAP1 PUSH0 MSTORE PUSH1 0x9 PUSH1 0x20 MSTORE DUP1 PUSH0 KECCAK256 DUP1 SLOAD DUP4 LT ISZERO PUSH2 0x395 JUMPI PUSH1 0x20 SWAP3 PUSH2 0x387 SWAP2 PUSH2 0x4919 JUMP JUMPDEST DUP3 CALLVALUE PUSH2 0x395 JUMPI PUSH1 0x20 DUP1 PUSH1 0x3 NOT CALLDATASIZE ADD SLT PUSH2 0x395 JUMPI PUSH1 0x80 SWAP3 CALLDATALOAD PUSH0 MSTORE PUSH1 0x6 DUP2 MSTORE DUP2 PUSH0 KECCAK256 SLOAD SWAP2 PUSH1 0x7 DUP3 MSTORE DUP1 PUSH0 KECCAK256 SLOAD SWAP1 PUSH1 0x8 DUP4 MSTORE DUP1 PUSH0 KECCAK256 SLOAD SWAP2 PUSH1 0x9 DUP5 MSTORE DUP2 PUSH0 KECCAK256 SLOAD SWAP4 DUP3 MLOAD SWAP6 DUP7 MSTORE DUP6 ADD MSTORE DUP4 ADD MSTORE PUSH1 0x60 DUP3 ADD MSTORE RETURN JUMPDEST DUP3 CALLVALUE PUSH2 0x395 JUMPI PUSH1 0x20 CALLDATASIZE PUSH1 0x3 NOT ADD SLT PUSH2 0x395 JUMPI PUSH1 0x1 PUSH1 0x1 PUSH1 0xA0 SHL SUB PUSH2 0x2454 PUSH2 0x44DB JUMP JUMPDEST AND PUSH0 MSTORE PUSH1 0x1 PUSH1 0x20 MSTORE DUP1 PUSH0 KECCAK256 PUSH1 0xFF PUSH1 0x1 DUP3 SLOAD SWAP3 ADD SLOAD AND DUP3 MLOAD SWAP2 DUP3 MSTORE ISZERO ISZERO PUSH1 0x20 DUP3 ADD MSTORE RETURN JUMPDEST DUP3 CALLVALUE PUSH2 0x395 JUMPI PUSH1 0x20 CALLDATASIZE PUSH1 0x3 NOT ADD SLT PUSH2 0x395 JUMPI PUSH2 0x62C SWAP2 CALLDATALOAD PUSH0 MSTORE PUSH1 0x11 PUSH1 0x20 MSTORE PUSH2 0x619 DUP2 PUSH0 KECCAK256 PUSH2 0x4A42 JUMP JUMPDEST DUP3 CALLVALUE PUSH2 0x395 JUMPI PUSH2 0x24AF CALLDATASIZE PUSH2 0x474C JUMP JUMPDEST SWAP2 SWAP1 PUSH0 MSTORE PUSH1 0x7 PUSH1 0x20 MSTORE DUP1 PUSH0 KECCAK256 DUP1 SLOAD DUP4 LT ISZERO PUSH2 0x395 JUMPI PUSH1 0x20 SWAP3 PUSH2 0x387 SWAP2 PUSH2 0x4919 JUMP JUMPDEST SWAP1 POP CALLVALUE PUSH2 0x395 JUMPI PUSH0 CALLDATASIZE PUSH1 0x3 NOT ADD SLT PUSH2 0x395 JUMPI PUSH32 0xF0C57E16840DF040F15088DC2F81FE391C3923BEC73E23A9662EFC9C229C6A00 SWAP1 DUP2 SLOAD PUSH1 0xFF DUP2 DUP6 SHR AND ISZERO SWAP2 PUSH1 0x1 PUSH1 0x1 PUSH1 0x40 SHL SUB DUP3 AND DUP1 ISZERO SWAP1 DUP2 PUSH2 0x25E5 JUMPI JUMPDEST PUSH1 0x1 EQ SWAP1 DUP2 PUSH2 0x25DB JUMPI JUMPDEST ISZERO SWAP1 DUP2 PUSH2 0x25D2 JUMPI JUMPDEST POP PUSH2 0x25C4 JUMPI POP PUSH8 0xFFFFFFFFFFFFFFFF NOT DUP2 AND PUSH1 0x1 OR DUP4 SSTORE DUP2 PUSH2 0x25A5 JUMPI JUMPDEST POP PUSH0 DUP1 SLOAD PUSH1 0x1 PUSH1 0x1 PUSH1 0xA0 SHL SUB NOT AND CALLER OR SWAP1 SSTORE PUSH2 0x2568 JUMPI STOP JUMPDEST DUP1 SLOAD PUSH9 0xFF0000000000000000 NOT AND SWAP1 SSTORE MLOAD PUSH1 0x1 DUP2 MSTORE PUSH32 0xC7F505B2F371AE2175EE4913F4499E1F2633A7B5936321EED1CDAEB6115181D2 SWAP1 PUSH1 0x20 SWAP1 LOG1 STOP JUMPDEST PUSH9 0xFFFFFFFFFFFFFFFFFF NOT AND PUSH9 0x10000000000000001 OR DUP3 SSTORE PUSH0 PUSH2 0x2550 JUMP JUMPDEST DUP5 MLOAD PUSH4 0xF92EE8A9 PUSH1 0xE0 SHL DUP2 MSTORE REVERT JUMPDEST SWAP1 POP ISZERO PUSH0 PUSH2 0x2533 JUMP JUMPDEST ADDRESS EXTCODESIZE ISZERO SWAP2 POP PUSH2 0x252B JUMP JUMPDEST DUP5 SWAP2 POP PUSH2 0x2521 JUMP JUMPDEST DUP3 CALLVALUE PUSH2 0x395 JUMPI PUSH2 0x62C SWAP1 PUSH2 0x2600 CALLDATASIZE PUSH2 0x474C JUMP JUMPDEST SWAP1 PUSH0 MSTORE PUSH1 0xC PUSH1 0x20 MSTORE DUP2 PUSH0 KECCAK256 SWAP1 PUSH0 MSTORE PUSH1 0x20 MSTORE DUP1 PUSH0 KECCAK256 SLOAD SWAP1 MLOAD SWAP2 DUP2 PUSH1 0xFF DUP1 DUP6 SWAP5 PUSH1 0x8 SHR AND SWAP2 AND DUP4 PUSH2 0x494C JUMP JUMPDEST DUP3 CALLVALUE PUSH2 0x395 JUMPI PUSH1 0x20 SWAP2 DUP3 PUSH1 0x3 NOT CALLDATASIZE ADD SLT PUSH2 0x395 JUMPI PUSH2 0x26A6 SWAP3 PUSH2 0x62C SWAP2 CALLDATALOAD PUSH0 MSTORE PUSH1 0x6 DUP2 MSTORE PUSH2 0x26C0 DUP4 PUSH0 KECCAK256 SWAP4 PUSH1 0x7 DUP4 MSTORE DUP1 PUSH0 KECCAK256 SWAP5 PUSH1 0x8 DUP5 MSTORE PUSH2 0x26B3 DUP3 PUSH0 KECCAK256 SWAP5 PUSH1 0x9 DUP2 MSTORE PUSH2 0x2692 PUSH2 0x268C PUSH2 0x2686 PUSH2 0x2680 DUP8 PUSH0 KECCAK256 SWAP7 PUSH2 0x4A42 JUMP JUMPDEST SWAP11 PUSH2 0x4A42 JUMP JUMPDEST SWAP8 PUSH2 0x4A42 JUMP JUMPDEST SWAP4 PUSH2 0x4A42 JUMP JUMPDEST SWAP6 DUP5 MLOAD SWAP10 DUP11 SWAP10 PUSH1 0x80 DUP12 MSTORE PUSH1 0x80 DUP12 ADD SWAP1 PUSH2 0x4719 JUMP JUMPDEST SWAP2 DUP10 DUP4 SUB SWAP1 DUP11 ADD MSTORE PUSH2 0x4719 JUMP JUMPDEST SWAP2 DUP7 DUP4 SUB SWAP1 DUP8 ADD MSTORE PUSH2 0x4719 JUMP JUMPDEST SWAP1 DUP4 DUP3 SUB PUSH1 0x60 DUP6 ADD MSTORE PUSH2 0x4719 JUMP JUMPDEST DUP3 CALLVALUE PUSH2 0x395 JUMPI PUSH1 0x20 CALLDATASIZE PUSH1 0x3 NOT ADD SLT PUSH2 0x395 JUMPI PUSH1 0x20 SWAP1 PUSH2 0x26EB PUSH2 0x44DB JUMP JUMPDEST PUSH0 SLOAD SWAP2 SWAP1 PUSH1 0x1 PUSH1 0x1 PUSH1 0xA0 SHL SUB DUP1 DUP5 AND SWAP2 PUSH32 0x38DF5FA0F7FEF0D515CA1F5388CB5790AC5885D5FCA8D05D9F943E563C33A4B3 SWAP2 SWAP1 PUSH2 0x2729 CALLER DUP6 EQ PUSH2 0x4AE1 JUMP JUMPDEST AND SWAP5 DUP6 SWAP4 PUSH2 0x2738 DUP6 ISZERO ISZERO PUSH2 0x4FB1 JUMP JUMPDEST MLOAD TIMESTAMP DUP2 MSTORE LOG3 PUSH1 0x1 PUSH1 0x1 PUSH1 0xA0 SHL SUB NOT AND OR PUSH0 SSTORE STOP JUMPDEST SWAP1 POP CALLVALUE PUSH2 0x395 JUMPI PUSH1 0x20 DUP1 PUSH1 0x3 NOT CALLDATASIZE ADD SLT PUSH2 0x395 JUMPI DUP2 CALLDATALOAD SWAP3 PUSH2 0x276F PUSH2 0x41B CALLER PUSH2 0x5167 JUMP JUMPDEST CALLER PUSH0 MSTORE PUSH1 0x1 DUP3 MSTORE DUP1 PUSH0 KECCAK256 SLOAD SWAP3 DUP4 PUSH0 MSTORE PUSH1 0x10 DUP4 MSTORE DUP2 PUSH0 KECCAK256 DUP6 PUSH0 MSTORE DUP4 MSTORE PUSH1 0x1 PUSH1 0xFF DUP4 PUSH0 KECCAK256 SLOAD AND PUSH2 0x279C DUP2 PUSH2 0x4762 JUMP JUMPDEST SUB PUSH2 0x2808 JUMPI POP SWAP1 PUSH32 0x972FD04571D170DAFA6FE5D3822DA50A1FD8596D166C4CA101DFF5FC760533E SWAP2 DUP4 PUSH0 MSTORE PUSH1 0x10 DUP3 MSTORE DUP1 PUSH0 KECCAK256 DUP6 PUSH0 MSTORE DUP3 MSTORE DUP1 PUSH0 KECCAK256 PUSH1 0x2 PUSH1 0xFF NOT DUP3 SLOAD AND OR SWAP1 SSTORE DUP4 PUSH0 MSTORE PUSH1 0x11 DUP3 MSTORE PUSH2 0x27F5 DUP6 DUP3 PUSH0 KECCAK256 PUSH2 0x589A JUMP JUMPDEST DUP5 PUSH0 MSTORE PUSH1 0x12 DUP3 MSTORE PUSH2 0x13C1 DUP5 DUP3 PUSH0 KECCAK256 PUSH2 0x589A JUMP JUMPDEST DUP3 PUSH1 0x64 SWAP3 MLOAD SWAP2 PUSH3 0x461BCD PUSH1 0xE5 SHL DUP4 MSTORE DUP3 ADD MSTORE PUSH1 0x1D PUSH1 0x24 DUP3 ADD MSTORE PUSH32 0x4E6F2061637469766520766F75636820666F7220746869732075736572000000 PUSH1 0x44 DUP3 ADD MSTORE REVERT JUMPDEST SWAP1 POP CALLVALUE PUSH2 0x395 JUMPI PUSH2 0x2859 CALLDATASIZE PUSH2 0x4780 JUMP JUMPDEST SWAP4 SWAP1 SWAP3 PUSH1 0x1 DUP1 PUSH1 0xA0 SHL SUB PUSH2 0x2871 DUP2 PUSH0 SLOAD AND CALLER EQ PUSH2 0x4AE1 JUMP JUMPDEST PUSH2 0x287C DUP5 ISZERO ISZERO PUSH2 0x4B5E JUMP JUMPDEST DUP5 AND PUSH2 0x2889 DUP2 ISZERO ISZERO PUSH2 0x4DC2 JUMP JUMPDEST PUSH2 0x2895 PUSH2 0xCF1 DUP8 PUSH2 0x524A JUMP JUMPDEST PUSH0 MSTORE PUSH1 0x1 PUSH1 0x20 SWAP2 DUP2 DUP4 MSTORE PUSH2 0x28B7 DUP5 PUSH0 KECCAK256 SLOAD SWAP7 PUSH2 0x28B2 DUP9 ISZERO ISZERO PUSH2 0x4B1A JUMP JUMPDEST PUSH2 0x5167 JUMP JUMPDEST ISZERO PUSH2 0x2B26 JUMPI DUP5 PUSH0 MSTORE PUSH1 0x6 DUP4 MSTORE DUP4 PUSH0 KECCAK256 SLOAD ISZERO DUP1 PUSH2 0x2B17 JUMPI JUMPDEST ISZERO PUSH2 0x2AD4 JUMPI PUSH2 0x28DD DUP7 DUP7 PUSH2 0x52C2 JUMP JUMPDEST SWAP2 DUP3 PUSH0 MSTORE PUSH1 0x5 DUP5 MSTORE DUP5 PUSH0 KECCAK256 SWAP2 PUSH1 0xFF DUP3 PUSH2 0x28F5 DUP6 PUSH2 0x47FA JUMP JUMPDEST SWAP5 ADD SLOAD AND SWAP2 DUP7 MLOAD SWAP2 PUSH2 0x2906 DUP4 PUSH2 0x4507 JUMP JUMPDEST DUP11 DUP4 MSTORE DUP7 DUP4 ADD SWAP1 DUP3 DUP3 MSTORE DUP7 PUSH0 MSTORE PUSH1 0x5 DUP9 MSTORE DUP9 PUSH0 KECCAK256 SWAP4 MLOAD DUP1 MLOAD SWAP2 PUSH1 0x1 PUSH1 0x1 PUSH1 0x40 SHL SUB DUP4 GT PUSH2 0x2AC1 JUMPI POP PUSH2 0x2938 DUP6 SLOAD PUSH2 0x47C2 JUMP JUMPDEST PUSH1 0x1F DUP2 GT PUSH2 0x2A7B JUMPI JUMPDEST POP DUP9 SWAP1 PUSH1 0x1F DUP4 GT PUSH1 0x1 EQ PUSH2 0x2A14 JUMPI PUSH2 0x2988 SWAP6 SWAP5 SWAP4 SWAP3 SWAP2 PUSH0 SWAP2 DUP4 PUSH2 0x2A09 JUMPI JUMPDEST POP POP PUSH0 NOT PUSH1 0x3 DUP4 SWAP1 SHL SHR NOT AND SWAP1 DUP4 SHL OR DUP4 SSTORE JUMPDEST MLOAD ISZERO ISZERO SWAP2 ADD SWAP1 PUSH1 0xFF DUP1 NOT DUP4 SLOAD AND SWAP2 ISZERO ISZERO AND OR SWAP1 SSTORE JUMP JUMPDEST PUSH2 0x29DC JUMPI POP SWAP2 PUSH0 SWAP6 SWAP2 PUSH32 0xF9D17EB1340AB78960B594FF8BED1349985B800EE21199C6D5EA4A67454593AD SWAP4 DUP8 MSTORE PUSH1 0xB DUP2 MSTORE DUP7 DUP3 DUP2 KECCAK256 SSTORE PUSH2 0x29C9 DUP4 DUP8 DUP8 PUSH2 0x5A6F JUMP JUMPDEST PUSH2 0x1619 DUP3 MLOAD SWAP4 DUP4 DUP6 SWAP5 DUP6 MSTORE DUP5 ADD SWAP1 PUSH2 0x489C JUMP JUMPDEST SWAP6 SWAP5 SWAP4 SWAP3 POP POP DUP5 MLOAD DUP2 DUP7 ADD KECCAK256 SWAP1 DUP5 MLOAD SWAP1 DUP6 ADD KECCAK256 SUB PUSH2 0x29F6 JUMPI STOP JUMPDEST PUSH2 0x2A04 PUSH2 0x4C3 SWAP5 DUP4 DUP4 PUSH2 0x5443 JUMP JUMPDEST PUSH2 0x5A6F JUMP JUMPDEST ADD MLOAD SWAP1 POP PUSH0 DUP1 PUSH2 0x295F JUMP JUMPDEST SWAP1 PUSH1 0x1F NOT DUP4 AND SWAP2 DUP7 PUSH0 MSTORE DUP11 PUSH0 KECCAK256 SWAP3 PUSH0 JUMPDEST DUP13 DUP3 DUP3 LT PUSH2 0x2A67 JUMPI POP POP SWAP2 DUP7 SWAP6 SWAP5 SWAP3 SWAP2 DUP4 PUSH2 0x2988 SWAP10 SWAP9 SWAP6 SWAP4 LT PUSH2 0x2A4F JUMPI JUMPDEST POP POP POP DUP2 SHL ADD DUP4 SSTORE PUSH2 0x2972 JUMP JUMPDEST ADD MLOAD PUSH0 NOT PUSH1 0xF8 DUP5 PUSH1 0x3 SHL AND SHR NOT AND SWAP1 SSTORE PUSH0 DUP1 DUP1 PUSH2 0x2A42 JUMP JUMPDEST DUP4 DUP6 ADD MLOAD DUP7 SSTORE SWAP5 DUP9 ADD SWAP5 SWAP4 DUP5 ADD SWAP4 ADD PUSH2 0x2A24 JUMP JUMPDEST DUP6 PUSH0 MSTORE DUP10 PUSH0 KECCAK256 PUSH1 0x1F DUP5 ADD PUSH1 0x5 SHR DUP2 ADD SWAP2 DUP12 DUP6 LT PUSH2 0x2AB7 JUMPI JUMPDEST PUSH1 0x1F ADD PUSH1 0x5 SHR ADD SWAP1 DUP6 SWAP1 JUMPDEST DUP3 DUP2 LT PUSH2 0x2AAC JUMPI POP POP PUSH2 0x2941 JUMP JUMPDEST PUSH0 DUP2 SSTORE ADD DUP6 SWAP1 PUSH2 0x2A9E JUMP JUMPDEST SWAP1 SWAP2 POP DUP2 SWAP1 PUSH2 0x2A93 JUMP JUMPDEST PUSH1 0x41 SWAP1 PUSH4 0x4E487B71 PUSH1 0xE0 SHL PUSH0 MSTORE MSTORE PUSH1 0x24 PUSH0 REVERT JUMPDEST DUP4 MLOAD PUSH3 0x461BCD PUSH1 0xE5 SHL DUP2 MSTORE SWAP1 DUP2 ADD DUP4 SWAP1 MSTORE PUSH1 0x1A PUSH1 0x24 DUP3 ADD MSTORE PUSH32 0x5265636F726420616C726561647920696E697469616C697A6564000000000000 PUSH1 0x44 DUP3 ADD MSTORE PUSH1 0x64 SWAP1 REVERT JUMPDEST POP PUSH1 0x7 DUP4 MSTORE DUP4 PUSH0 KECCAK256 SLOAD ISZERO PUSH2 0x28CE JUMP JUMPDEST DUP4 MLOAD PUSH3 0x461BCD PUSH1 0xE5 SHL DUP2 MSTORE SWAP1 DUP2 ADD DUP4 SWAP1 MSTORE PUSH1 0x18 PUSH1 0x24 DUP3 ADD MSTORE PUSH32 0x4D75737420626520616E20616374697665206D656D6265720000000000000000 PUSH1 0x44 DUP3 ADD MSTORE PUSH1 0x64 SWAP1 REVERT JUMPDEST DUP3 CALLVALUE PUSH2 0x395 JUMPI DUP1 PUSH1 0x3 NOT CALLDATASIZE ADD SLT PUSH2 0x395 JUMPI PUSH1 0x1 PUSH1 0x1 PUSH1 0x40 SHL SUB SWAP1 DUP3 CALLDATALOAD DUP3 DUP2 GT PUSH2 0x395 JUMPI CALLDATASIZE PUSH1 0x23 DUP3 ADD SLT ISZERO PUSH2 0x395 JUMPI DUP1 DUP5 ADD CALLDATALOAD SWAP3 DUP4 GT PUSH2 0x395 JUMPI PUSH1 0x24 PUSH1 0x5 SWAP2 CALLDATASIZE PUSH1 0x24 DUP7 PUSH1 0x5 SHL DUP4 ADD ADD GT PUSH2 0x395 JUMPI PUSH0 SLOAD PUSH1 0x1 PUSH1 0x1 PUSH1 0xA0 SHL SUB SWAP7 PUSH1 0x24 CALLDATALOAD SWAP6 SWAP2 PUSH2 0x2BD3 SWAP1 DUP10 AND CALLER EQ PUSH2 0x4AE1 JUMP JUMPDEST DUP7 ISZERO PUSH2 0x2D24 JUMPI PUSH2 0x2BE4 DUP7 ISZERO ISZERO PUSH2 0x4E07 JUMP JUMPDEST DUP6 PUSH0 MSTORE PUSH1 0x2 SWAP4 PUSH1 0x20 SWAP4 PUSH1 0x2 DUP6 MSTORE PUSH1 0xFF DUP5 PUSH0 KECCAK256 SLOAD AND PUSH2 0x2C01 DUP2 PUSH2 0x4942 JUMP JUMPDEST ISZERO SWAP7 PUSH0 JUMPDEST DUP11 DUP2 LT PUSH2 0x2C0E JUMPI STOP JUMPDEST DUP4 DUP2 DUP4 SHL DUP5 ADD ADD CALLDATALOAD SWAP1 DUP13 DUP3 AND SWAP2 DUP3 DUP2 SUB PUSH2 0x395 JUMPI DUP3 PUSH2 0x2C95 DUP14 SWAP3 PUSH2 0x2C35 PUSH1 0x1 SWAP7 ISZERO ISZERO PUSH2 0x4DC2 JUMP JUMPDEST DUP3 PUSH0 MSTORE PUSH2 0x2C86 DUP12 DUP14 DUP9 SWAP1 DUP2 DUP2 MSTORE PUSH2 0x2C4F DUP4 PUSH0 KECCAK256 SLOAD ISZERO PUSH2 0x4E4A JUMP JUMPDEST DUP3 MLOAD SWAP3 PUSH2 0x2C5B DUP5 PUSH2 0x4507 JUMP JUMPDEST DUP9 DUP5 MSTORE DUP3 DUP3 DUP6 ADD SWAP3 DUP2 DUP5 MSTORE DUP10 PUSH0 MSTORE MSTORE PUSH0 KECCAK256 SWAP3 MLOAD DUP4 SSTORE MLOAD ISZERO ISZERO SWAP2 ADD SWAP1 PUSH1 0xFF DUP1 NOT DUP4 SLOAD AND SWAP2 ISZERO ISZERO AND OR SWAP1 SSTORE JUMP JUMPDEST DUP4 PUSH0 MSTORE PUSH1 0x3 DUP13 MSTORE DUP11 PUSH0 KECCAK256 PUSH2 0x4E96 JUMP JUMPDEST DUP3 ISZERO DUP1 PUSH2 0x2D1D JUMPI JUMPDEST ISZERO PUSH2 0x2CF0 JUMPI DUP2 PUSH0 MSTORE DUP11 DUP11 MSTORE DUP9 PUSH0 KECCAK256 DUP12 PUSH1 0xFF NOT DUP3 SLOAD AND OR SWAP1 SSTORE PUSH2 0x2CBF DUP9 SLOAD PUSH2 0x4EE9 JUMP JUMPDEST DUP9 SSTORE PUSH32 0x39D132591EE0696DE49AB564E4A90E430C006561917DB731A2A614DD2D245591 DUP11 DUP11 MLOAD TIMESTAMP DUP2 MSTORE LOG3 JUMPDEST ADD PUSH2 0x2C05 JUMP JUMPDEST PUSH32 0x1CC138F50384BE7770A8E4A34EECAA0D0C718BFAA1641AF49DB32532E4A5B910 DUP11 DUP11 MLOAD TIMESTAMP DUP2 MSTORE LOG3 PUSH2 0x2CEA JUMP JUMPDEST POP DUP12 PUSH2 0x2C9D JUMP JUMPDEST PUSH1 0x20 PUSH1 0x64 SWAP3 MLOAD SWAP2 PUSH3 0x461BCD PUSH1 0xE5 SHL DUP4 MSTORE DUP3 ADD MSTORE PUSH1 0x13 PUSH1 0x24 DUP3 ADD MSTORE PUSH19 0x139BC81DD85B1B195D1CC81C1C9BDD9A591959 PUSH1 0x6A SHL PUSH1 0x44 DUP3 ADD MSTORE REVERT JUMPDEST DUP3 CALLVALUE PUSH2 0x395 JUMPI PUSH2 0x2D6B CALLDATASIZE PUSH2 0x474C JUMP JUMPDEST SWAP2 SWAP1 PUSH0 MSTORE PUSH1 0x11 PUSH1 0x20 MSTORE DUP1 PUSH0 KECCAK256 DUP1 SLOAD DUP4 LT ISZERO PUSH2 0x395 JUMPI PUSH1 0x20 SWAP3 PUSH2 0x387 SWAP2 PUSH2 0x4919 JUMP JUMPDEST DUP3 CALLVALUE PUSH2 0x395 JUMPI PUSH1 0x20 SWAP1 PUSH2 0x1AC9 PUSH2 0x2DA1 CALLDATASIZE PUSH2 0x474C JUMP JUMPDEST SWAP1 PUSH2 0x5354 JUMP JUMPDEST DUP3 CALLVALUE PUSH2 0x395 JUMPI PUSH2 0x2DB6 CALLDATASIZE PUSH2 0x474C JUMP JUMPDEST SWAP2 SWAP1 PUSH0 MSTORE PUSH1 0x6 PUSH1 0x20 MSTORE DUP1 PUSH0 KECCAK256 DUP1 SLOAD DUP4 LT ISZERO PUSH2 0x395 JUMPI PUSH1 0x20 SWAP3 PUSH2 0x387 SWAP2 PUSH2 0x4919 JUMP JUMPDEST DUP3 CALLVALUE PUSH2 0x395 JUMPI PUSH1 0x20 SWAP1 PUSH2 0x2DE9 CALLDATASIZE PUSH2 0x474C JUMP JUMPDEST SWAP1 PUSH0 MSTORE PUSH1 0xC DUP4 MSTORE DUP2 PUSH0 KECCAK256 SWAP1 PUSH0 MSTORE DUP3 MSTORE DUP1 PUSH0 KECCAK256 SWAP1 PUSH1 0x2 PUSH1 0xFF DUP3 MLOAD SWAP4 PUSH2 0x2E0C DUP6 PUSH2 0x4507 JUMP JUMPDEST SLOAD DUP2 DUP2 AND PUSH2 0x2E19 DUP2 PUSH2 0x4942 JUMP JUMPDEST DUP6 MSTORE PUSH1 0x8 SHR AND SWAP3 DUP5 DUP2 ADD SWAP4 PUSH2 0x2E2D DUP2 PUSH2 0x4762 JUMP JUMPDEST DUP5 MSTORE MLOAD PUSH2 0x2E39 DUP2 PUSH2 0x4942 JUMP JUMPDEST PUSH2 0x2E42 DUP2 PUSH2 0x4942 JUMP JUMPDEST EQ SWAP2 DUP3 PUSH2 0x2E53 JUMPI JUMPDEST POP MLOAD SWAP1 ISZERO ISZERO DUP2 MSTORE RETURN JUMPDEST PUSH1 0x2 SWAP2 SWAP3 POP MLOAD PUSH2 0x2E62 DUP2 PUSH2 0x4762 JUMP JUMPDEST PUSH2 0x2E6B DUP2 PUSH2 0x4762 JUMP JUMPDEST EQ SWAP1 DUP4 PUSH2 0x2E4A JUMP JUMPDEST DUP3 CALLVALUE PUSH2 0x395 JUMPI PUSH0 CALLDATASIZE PUSH1 0x3 NOT ADD SLT PUSH2 0x395 JUMPI PUSH32 0x0 PUSH1 0x1 PUSH1 0x1 PUSH1 0xA0 SHL SUB AND ADDRESS SUB PUSH2 0x2EDD JUMPI PUSH1 0x20 SWAP1 MLOAD PUSH32 0x360894A13BA1A3210667C828492DB98DCA3E2076CC3735A920A3CA505D382BBC DUP2 MSTORE RETURN JUMPDEST MLOAD PUSH4 0x703E46DD PUSH1 0xE1 SHL DUP2 MSTORE REVERT JUMPDEST DUP3 CALLVALUE PUSH2 0x395 JUMPI PUSH2 0x2EF9 CALLDATASIZE PUSH2 0x464C JUMP JUMPDEST SWAP1 PUSH2 0x2F06 PUSH2 0x41B CALLER PUSH2 0x5167 JUMP JUMPDEST PUSH2 0x2F13 DUP4 MLOAD DUP4 MLOAD EQ PUSH2 0x49B2 JUMP JUMPDEST CALLER PUSH0 MSTORE PUSH1 0x1 SWAP4 PUSH1 0x20 SWAP2 DUP6 DUP4 MSTORE DUP2 PUSH0 KECCAK256 SLOAD SWAP1 PUSH1 0x1 DUP1 PUSH1 0xA0 SHL SUB AND PUSH0 MSTORE DUP2 PUSH0 KECCAK256 SLOAD SWAP1 PUSH2 0x2F3E DUP3 ISZERO ISZERO PUSH2 0x49F6 JUMP JUMPDEST DUP7 PUSH0 SWAP7 DUP4 DUP4 EQ SWAP2 JUMPDEST PUSH2 0x2F4C JUMPI STOP JUMPDEST DUP1 MLOAD DUP9 LT ISZERO PUSH2 0x4C3 JUMPI DUP9 DUP9 PUSH2 0x2F62 DUP3 SWAP11 DUP5 PUSH2 0x4F9D JUMP JUMPDEST MLOAD PUSH2 0x2F6D DUP3 DUP12 PUSH2 0x4F9D JUMP JUMPDEST MLOAD PUSH2 0x2F77 DUP2 PUSH2 0x524A JUMP JUMPDEST ISZERO PUSH2 0x325A JUMPI PUSH2 0x2F86 DUP8 DUP4 PUSH2 0x52C2 JUMP JUMPDEST PUSH0 MSTORE PUSH1 0x5 DUP1 DUP12 MSTORE PUSH1 0xFF DUP1 DUP7 DUP13 PUSH0 KECCAK256 ADD SLOAD AND ISZERO PUSH2 0x3251 JUMPI PUSH2 0x2FA6 DUP11 DUP6 PUSH2 0x52C2 JUMP JUMPDEST PUSH0 MSTORE DUP2 DUP13 MSTORE DUP6 DUP12 PUSH0 KECCAK256 ADD SLOAD AND ISZERO PUSH2 0x3249 JUMPI PUSH2 0x2FC1 DUP10 DUP5 PUSH2 0x52C2 JUMP JUMPDEST PUSH0 MSTORE DUP11 MSTORE PUSH2 0x2FD0 DUP10 PUSH0 KECCAK256 PUSH2 0x47FA JUMP JUMPDEST SWAP1 DUP9 DUP9 DUP13 DUP5 MLOAD DUP2 DUP7 ADD KECCAK256 DUP14 DUP6 MLOAD DUP4 DUP8 ADD KECCAK256 SWAP1 DUP2 DUP4 EQ PUSH2 0x30DC JUMPI PUSH2 0x2FF1 PUSH2 0x4C90 JUMP JUMPDEST DUP5 DUP2 MLOAD SWAP2 ADD KECCAK256 DUP4 EQ PUSH2 0x30DC JUMPI DUP9 PUSH0 MSTORE PUSH1 0x6 DUP5 MSTORE PUSH0 KECCAK256 SLOAD ISZERO SWAP2 DUP3 ISZERO PUSH2 0x301D PUSH2 0x3016 PUSH2 0x4C90 JUMP JUMPDEST DUP8 DUP13 PUSH2 0x52F6 JUMP JUMPDEST SWAP1 PUSH2 0x3030 PUSH2 0x3029 PUSH2 0x4CB1 JUMP JUMPDEST DUP9 DUP14 PUSH2 0x52F6 JUMP JUMPDEST SWAP1 PUSH2 0x303E DUP13 DUP10 PUSH2 0x896 PUSH2 0x4CDA JUMP JUMPDEST PUSH2 0x3046 PUSH2 0x4C90 JUMP JUMPDEST DUP1 MLOAD SWAP1 DUP10 ADD KECCAK256 DUP7 SUB PUSH2 0x30FE JUMPI POP ISZERO PUSH2 0x30EA JUMPI POP ISZERO PUSH2 0x30DC JUMPI JUMPDEST PUSH2 0x3067 PUSH2 0x4CB1 JUMP JUMPDEST DUP5 DUP2 MLOAD SWAP2 ADD KECCAK256 EQ SWAP3 DUP4 PUSH2 0x30C2 JUMPI JUMPDEST POP POP DUP2 PUSH2 0x30BA JUMPI JUMPDEST POP DUP1 PUSH2 0x30A2 JUMPI JUMPDEST PUSH2 0x3098 JUMPI PUSH2 0x3091 SWAP5 PUSH2 0x53DE JUMP JUMPDEST ADD SWAP8 PUSH2 0x2F46 JUMP JUMPDEST POP POP POP POP POP PUSH2 0x3091 JUMP JUMPDEST POP POP POP DUP3 PUSH0 MSTORE PUSH1 0x7 DUP12 MSTORE DUP9 DUP9 DUP7 DUP13 PUSH0 KECCAK256 SLOAD GT ISZERO PUSH2 0x3084 JUMP JUMPDEST SWAP1 POP PUSH0 PUSH2 0x307D JUMP JUMPDEST SWAP1 SWAP2 SWAP3 POP PUSH2 0x30CE PUSH2 0x4CFC JUMP JUMPDEST DUP1 MLOAD SWAP2 ADD KECCAK256 EQ SWAP1 PUSH0 DUP16 PUSH2 0x3075 JUMP JUMPDEST POP POP POP POP POP POP POP POP POP PUSH2 0x3091 JUMP JUMPDEST SWAP1 POP PUSH2 0x305F JUMPI POP POP POP POP POP POP POP POP POP PUSH2 0x3091 JUMP JUMPDEST SWAP2 SWAP3 SWAP1 PUSH2 0x3109 PUSH2 0x4CB1 JUMP JUMPDEST DUP1 MLOAD SWAP1 DUP10 ADD KECCAK256 DUP7 SUB PUSH2 0x3134 JUMPI POP SWAP1 POP ISZERO SWAP1 DUP2 PUSH2 0x312B JUMPI JUMPDEST POP PUSH2 0x30DC JUMPI JUMPDEST PUSH2 0x305F JUMP JUMPDEST SWAP1 POP ISZERO PUSH0 PUSH2 0x3120 JUMP JUMPDEST PUSH2 0x313C PUSH2 0x4CDA JUMP JUMPDEST DUP1 MLOAD SWAP1 DUP10 ADD KECCAK256 DUP7 SUB PUSH2 0x31B8 JUMPI ISZERO PUSH2 0x3184 JUMPI ISZERO SWAP2 DUP3 PUSH2 0x317B JUMPI JUMPDEST POP DUP2 PUSH2 0x3165 JUMPI POP PUSH2 0x30DC JUMPI PUSH2 0x305F JUMP JUMPDEST SWAP1 POP DUP1 PUSH2 0x3174 JUMPI JUMPDEST ISZERO PUSH0 PUSH2 0x3120 JUMP JUMPDEST POP DUP13 PUSH2 0x316D JUMP JUMPDEST ISZERO SWAP2 POP PUSH0 PUSH2 0x3155 JUMP JUMPDEST POP SWAP1 ISZERO SWAP1 DUP2 PUSH2 0x31A2 JUMPI JUMPDEST POP ISZERO PUSH2 0x3126 JUMPI POP POP POP POP POP POP POP POP POP PUSH2 0x3091 JUMP JUMPDEST SWAP1 POP DUP1 PUSH2 0x31B1 JUMPI JUMPDEST ISZERO PUSH0 PUSH2 0x318E JUMP JUMPDEST POP DUP13 PUSH2 0x31AA JUMP JUMPDEST PUSH2 0x31C0 PUSH2 0x4CFC JUMP JUMPDEST DUP9 DUP2 MLOAD SWAP2 ADD KECCAK256 DUP7 EQ PUSH2 0x31D6 JUMPI JUMPDEST POP POP POP POP PUSH2 0x305F JUMP JUMPDEST ISZERO PUSH2 0x3235 JUMPI ISZERO SWAP2 DUP3 PUSH2 0x321D JUMPI JUMPDEST POP DUP2 PUSH2 0x3207 JUMPI JUMPDEST POP PUSH2 0x30DC JUMPI JUMPDEST PUSH2 0x31FA DUP7 DUP11 PUSH2 0x5354 JUMP JUMPDEST PUSH2 0x30DC JUMPI PUSH0 DUP1 DUP1 DUP1 PUSH2 0x31CD JUMP JUMPDEST SWAP1 POP DUP1 PUSH2 0x3216 JUMPI JUMPDEST ISZERO PUSH0 PUSH2 0x31EA JUMP JUMPDEST POP DUP13 PUSH2 0x320F JUMP JUMPDEST SWAP1 SWAP2 POP DUP1 PUSH2 0x322E JUMPI JUMPDEST ISZERO SWAP1 PUSH0 PUSH2 0x31E3 JUMP JUMPDEST POP DUP14 PUSH2 0x3226 JUMP JUMPDEST POP POP PUSH2 0x31F0 JUMPI POP POP POP POP POP POP POP POP POP PUSH2 0x3091 JUMP JUMPDEST POP POP POP PUSH2 0x3091 JUMP JUMPDEST POP POP POP POP PUSH2 0x3091 JUMP JUMPDEST POP POP PUSH2 0x3091 JUMP JUMPDEST SWAP1 POP DUP2 PUSH1 0x3 NOT CALLDATASIZE ADD SLT PUSH2 0x395 JUMPI PUSH2 0x3276 PUSH2 0x44DB JUMP JUMPDEST SWAP2 PUSH1 0x24 CALLDATALOAD PUSH1 0x1 PUSH1 0x1 PUSH1 0x40 SHL SUB DUP2 GT PUSH2 0x395 JUMPI CALLDATASIZE PUSH1 0x23 DUP3 ADD SLT ISZERO PUSH2 0x395 JUMPI PUSH2 0x32A6 SWAP1 CALLDATASIZE SWAP1 PUSH1 0x24 DUP2 DUP7 ADD CALLDATALOAD SWAP2 ADD PUSH2 0x45E9 JUMP JUMPDEST SWAP1 PUSH1 0x1 PUSH1 0x1 PUSH1 0xA0 SHL SUB PUSH32 0x0 DUP2 AND ADDRESS DUP2 EQ SWAP1 DUP2 ISZERO PUSH2 0x3430 JUMPI JUMPDEST POP PUSH2 0x3420 JUMPI PUSH2 0x32F0 DUP2 PUSH0 SLOAD AND CALLER EQ PUSH2 0x4AE1 JUMP JUMPDEST DUP5 AND SWAP2 DUP2 MLOAD SWAP5 PUSH4 0x52D1902D PUSH1 0xE0 SHL DUP7 MSTORE PUSH1 0x20 DUP7 DUP7 DUP2 DUP8 GAS STATICCALL PUSH0 SWAP7 DUP2 PUSH2 0x33EC JUMPI JUMPDEST POP PUSH2 0x332C JUMPI POP POP MLOAD PUSH4 0x4C9C8CE3 PUSH1 0xE0 SHL DUP2 MSTORE SWAP2 DUP3 ADD MSTORE PUSH1 0x24 SWAP2 POP REVERT JUMPDEST DUP4 DUP6 SWAP4 DUP8 PUSH32 0x360894A13BA1A3210667C828492DB98DCA3E2076CC3735A920A3CA505D382BBC SWAP1 DUP2 DUP2 SUB PUSH2 0x33D6 JUMPI POP DUP4 EXTCODESIZE ISZERO PUSH2 0x33BF JUMPI DUP1 SLOAD PUSH1 0x1 PUSH1 0x1 PUSH1 0xA0 SHL SUB NOT AND DUP4 OR SWAP1 SSTORE MLOAD SWAP1 PUSH32 0xBC7CD75A20EE27FD9ADEBAB32041F755214DBC6BFFA90CC0225B39DA2E5C2D3B PUSH0 DUP1 LOG2 DUP3 MLOAD ISZERO PUSH2 0x33A9 JUMPI POP PUSH2 0x4C3 SWAP3 POP PUSH2 0x5B1A JUMP JUMPDEST SWAP2 POP POP CALLVALUE PUSH2 0x33B3 JUMPI STOP JUMPDEST PUSH4 0xB398979F PUSH1 0xE0 SHL DUP2 MSTORE REVERT JUMPDEST DUP2 MLOAD PUSH4 0x4C9C8CE3 PUSH1 0xE0 SHL DUP2 MSTORE DUP1 DUP8 ADD DUP5 SWAP1 MSTORE PUSH1 0x24 SWAP1 REVERT JUMPDEST DUP7 PUSH1 0x24 SWAP2 DUP5 MLOAD SWAP2 PUSH4 0x2A875269 PUSH1 0xE2 SHL DUP4 MSTORE DUP3 ADD MSTORE REVERT JUMPDEST SWAP1 SWAP7 POP PUSH1 0x20 DUP2 RETURNDATASIZE PUSH1 0x20 GT PUSH2 0x3418 JUMPI JUMPDEST DUP2 PUSH2 0x3408 PUSH1 0x20 SWAP4 DUP4 PUSH2 0x4551 JUMP JUMPDEST DUP2 ADD SUB SLT PUSH2 0x395 JUMPI MLOAD SWAP6 PUSH0 PUSH2 0x3310 JUMP JUMPDEST RETURNDATASIZE SWAP2 POP PUSH2 0x33FB JUMP JUMPDEST DUP2 MLOAD PUSH4 0x703E46DD PUSH1 0xE1 SHL DUP2 MSTORE DUP5 SWAP1 REVERT JUMPDEST SWAP1 POP DUP2 PUSH32 0x360894A13BA1A3210667C828492DB98DCA3E2076CC3735A920A3CA505D382BBC SLOAD AND EQ ISZERO PUSH0 PUSH2 0x32DD JUMP JUMPDEST SWAP1 POP CALLVALUE PUSH2 0x395 JUMPI PUSH2 0x346E CALLDATASIZE PUSH2 0x48FA JUMP JUMPDEST SWAP2 SWAP1 PUSH2 0x347C PUSH2 0x41B CALLER PUSH2 0x5167 JUMP JUMPDEST CALLER PUSH0 MSTORE PUSH1 0x1 PUSH1 0x20 MSTORE DUP4 PUSH0 KECCAK256 SLOAD SWAP2 DUP2 PUSH0 MSTORE PUSH1 0xC PUSH1 0x20 MSTORE DUP5 PUSH0 KECCAK256 DUP4 PUSH0 MSTORE PUSH1 0x20 MSTORE DUP5 PUSH0 KECCAK256 PUSH1 0xFF DUP2 SLOAD PUSH2 0x34B2 PUSH1 0x2 DUP4 DUP4 AND PUSH2 0x20A3 DUP2 PUSH2 0x4942 JUMP JUMPDEST PUSH2 0x34BB DUP8 PUSH2 0x4762 JUMP JUMPDEST PUSH1 0x8 SHR AND SWAP2 PUSH2 0x34C9 DUP4 PUSH2 0x4762 JUMP JUMPDEST DUP3 PUSH1 0xFF DUP8 AND LT ISZERO PUSH2 0x350A JUMPI POP PUSH32 0xB36EC3C738EF8ECD9180ADDC815304762374B76E91C2A321831D9906EA119ADE PUSH2 0x210A DUP6 SWAP4 PUSH2 0x4C3 SWAP9 PUSH2 0x20FD DUP10 DUP9 SWAP7 PUSH2 0x4F57 JUMP JUMPDEST PUSH1 0x84 SWAP1 PUSH1 0x20 DUP9 MLOAD SWAP2 PUSH3 0x461BCD PUSH1 0xE5 SHL DUP4 MSTORE DUP3 ADD MSTORE PUSH1 0x23 PUSH1 0x24 DUP3 ADD MSTORE PUSH32 0x43616E206F6E6C7920646F776E677261646520746F2061206C6F776572206C65 PUSH1 0x44 DUP3 ADD MSTORE PUSH3 0x1D995B PUSH1 0xEA SHL PUSH1 0x64 DUP3 ADD MSTORE REVERT JUMPDEST DUP3 CALLVALUE PUSH2 0x395 JUMPI DUP1 PUSH1 0x3 NOT CALLDATASIZE ADD SLT PUSH2 0x395 JUMPI PUSH2 0x3572 PUSH2 0x44DB JUMP JUMPDEST SWAP2 PUSH1 0x24 CALLDATALOAD SWAP3 PUSH1 0x1 DUP1 PUSH1 0xA0 SHL SUB PUSH2 0x358C DUP2 PUSH0 SLOAD AND CALLER EQ PUSH2 0x4AE1 JUMP JUMPDEST DUP2 AND SWAP3 PUSH2 0x359A DUP5 ISZERO ISZERO PUSH2 0x4DC2 JUMP JUMPDEST PUSH2 0x35A5 DUP6 ISZERO ISZERO PUSH2 0x4E07 JUMP JUMPDEST DUP4 PUSH0 MSTORE PUSH2 0x360A PUSH1 0x20 SWAP3 PUSH1 0x1 DUP5 MSTORE PUSH2 0x35BF DUP4 PUSH0 KECCAK256 SLOAD ISZERO PUSH2 0x4E4A JUMP JUMPDEST PUSH2 0x35FB DUP4 MLOAD PUSH2 0x35CD DUP2 PUSH2 0x4507 JUMP JUMPDEST DUP9 DUP2 MSTORE PUSH1 0x1 DUP7 DUP3 ADD DUP2 DUP2 MSTORE DUP10 PUSH0 MSTORE DUP2 DUP9 MSTORE DUP7 PUSH0 KECCAK256 SWAP3 MLOAD DUP4 SSTORE MLOAD ISZERO ISZERO SWAP2 ADD SWAP1 PUSH1 0xFF DUP1 NOT DUP4 SLOAD AND SWAP2 ISZERO ISZERO AND OR SWAP1 SSTORE JUMP JUMPDEST DUP7 PUSH0 MSTORE PUSH1 0x3 DUP5 MSTORE DUP3 PUSH0 KECCAK256 PUSH2 0x4E96 JUMP JUMPDEST DUP5 PUSH0 MSTORE PUSH1 0x2 DUP3 MSTORE PUSH1 0xFF DUP2 PUSH0 KECCAK256 SLOAD AND PUSH2 0x3621 DUP2 PUSH2 0x4942 JUMP JUMPDEST PUSH2 0x366F JUMPI PUSH32 0x39D132591EE0696DE49AB564E4A90E430C006561917DB731A2A614DD2D245591 SWAP3 DUP6 PUSH0 MSTORE PUSH1 0x2 DUP4 MSTORE DUP2 PUSH0 KECCAK256 PUSH1 0x2 PUSH1 0xFF NOT DUP3 SLOAD AND OR SWAP1 SSTORE PUSH2 0x3666 DUP2 SLOAD PUSH2 0x4EE9 JUMP JUMPDEST SWAP1 SSTORE MLOAD TIMESTAMP DUP2 MSTORE LOG3 STOP JUMPDEST PUSH32 0x1CC138F50384BE7770A8E4A34EECAA0D0C718BFAA1641AF49DB32532E4A5B910 SWAP3 POP MLOAD TIMESTAMP DUP2 MSTORE LOG3 STOP JUMPDEST DUP3 CALLVALUE PUSH2 0x395 JUMPI PUSH1 0x20 CALLDATASIZE PUSH1 0x3 NOT ADD SLT PUSH2 0x395 JUMPI PUSH1 0x20 SWAP1 PUSH2 0x1AC9 PUSH2 0x28B2 PUSH2 0x44DB JUMP JUMPDEST DUP3 CALLVALUE PUSH2 0x395 JUMPI PUSH1 0x20 SWAP1 PUSH2 0x36CE PUSH2 0x216A CALLDATASIZE PUSH2 0x474C JUMP JUMPDEST PUSH0 MSTORE PUSH1 0x5 DUP3 MSTORE PUSH2 0x62C DUP2 PUSH0 KECCAK256 SWAP2 DUP1 MLOAD PUSH2 0x36E6 DUP2 PUSH2 0x4507 JUMP JUMPDEST PUSH1 0xFF PUSH1 0x1 PUSH2 0x36F3 DUP7 PUSH2 0x47FA JUMP JUMPDEST SWAP6 DUP7 DUP5 MSTORE ADD SLOAD AND ISZERO ISZERO SWAP5 DUP6 SWAP2 ADD MSTORE MLOAD SWAP3 DUP4 SWAP3 DUP4 PUSH2 0x48DA JUMP JUMPDEST DUP3 CALLVALUE PUSH2 0x395 JUMPI DUP1 PUSH1 0x3 NOT CALLDATASIZE ADD SLT PUSH2 0x395 JUMPI PUSH2 0x3732 PUSH2 0x62C SWAP3 PUSH2 0x372B PUSH2 0x44F1 JUMP JUMPDEST SWAP1 CALLDATALOAD PUSH2 0x4D4A JUMP JUMPDEST SWAP3 SWAP1 SWAP2 MLOAD SWAP3 DUP4 SWAP3 DUP4 PUSH2 0x48DA JUMP JUMPDEST DUP3 CALLVALUE PUSH2 0x395 JUMPI PUSH1 0x20 CALLDATASIZE PUSH1 0x3 NOT ADD SLT PUSH2 0x395 JUMPI PUSH2 0x62C SWAP2 CALLDATALOAD PUSH0 MSTORE PUSH1 0x7 PUSH1 0x20 MSTORE PUSH2 0x619 DUP2 PUSH0 KECCAK256 PUSH2 0x4A42 JUMP JUMPDEST DUP3 CALLVALUE PUSH2 0x395 JUMPI PUSH1 0x20 SWAP1 PUSH2 0x1AC9 PUSH2 0x377D CALLDATASIZE PUSH2 0x4780 JUMP JUMPDEST SWAP2 PUSH2 0x4D1E JUMP JUMPDEST SWAP1 POP CALLVALUE PUSH2 0x395 JUMPI PUSH1 0x20 CALLDATASIZE PUSH1 0x3 NOT ADD SLT PUSH2 0x395 JUMPI CALLDATALOAD PUSH0 MSTORE PUSH1 0x5 PUSH1 0x20 MSTORE DUP1 PUSH0 KECCAK256 PUSH2 0x62C PUSH1 0xFF PUSH1 0x1 PUSH2 0x37B1 DUP5 PUSH2 0x47FA JUMP JUMPDEST SWAP4 ADD SLOAD AND SWAP3 MLOAD SWAP3 DUP4 SWAP3 DUP4 PUSH2 0x48DA JUMP JUMPDEST SWAP1 POP CALLVALUE PUSH2 0x395 JUMPI PUSH2 0x37D0 CALLDATASIZE PUSH2 0x474C JUMP JUMPDEST PUSH1 0xA SLOAD SWAP2 SWAP3 SWAP1 SWAP2 PUSH1 0x1 PUSH1 0x1 PUSH1 0xA0 SHL SUB AND CALLER SUB PUSH2 0x3897 JUMPI POP DUP2 PUSH0 MSTORE PUSH1 0x20 SWAP1 PUSH1 0xD PUSH1 0x20 MSTORE DUP4 PUSH0 KECCAK256 SWAP4 PUSH0 JUMPDEST DUP6 SLOAD DUP2 LT ISZERO PUSH2 0x4C3 JUMPI DUP1 PUSH2 0x380E PUSH1 0x1 SWAP3 DUP9 PUSH2 0x4919 JUMP JUMPDEST SWAP1 SLOAD SWAP1 PUSH1 0x3 SHL SHR DUP7 PUSH0 MSTORE PUSH1 0xC DUP7 MSTORE DUP4 PUSH0 KECCAK256 DUP2 PUSH0 MSTORE DUP7 MSTORE DUP4 PUSH0 KECCAK256 SWAP1 PUSH1 0x2 DUP6 MLOAD SWAP3 PUSH2 0x3836 DUP5 PUSH2 0x4507 JUMP JUMPDEST SLOAD PUSH1 0xFF SWAP1 DUP2 DUP2 AND PUSH2 0x3846 DUP2 PUSH2 0x4942 JUMP JUMPDEST DUP6 MSTORE PUSH1 0x8 SHR AND SWAP3 DUP9 DUP2 ADD SWAP4 PUSH2 0x385A DUP2 PUSH2 0x4762 JUMP JUMPDEST DUP5 MSTORE MLOAD PUSH2 0x3866 DUP2 PUSH2 0x4942 JUMP JUMPDEST PUSH2 0x386F DUP2 PUSH2 0x4942 JUMP JUMPDEST SUB PUSH2 0x3890 JUMPI PUSH2 0x388A SWAP2 MLOAD SWAP1 PUSH2 0x3883 DUP3 PUSH2 0x4762 JUMP JUMPDEST DUP9 DUP8 PUSH2 0x54EE JUMP JUMPDEST ADD PUSH2 0x37F8 JUMP JUMPDEST POP POP PUSH2 0x388A JUMP JUMPDEST PUSH1 0x64 SWAP1 PUSH1 0x20 DUP6 MLOAD SWAP2 PUSH3 0x461BCD PUSH1 0xE5 SHL DUP4 MSTORE DUP3 ADD MSTORE PUSH1 0x15 PUSH1 0x24 DUP3 ADD MSTORE PUSH21 0x4F6E6C79204865616C74685265636F7264436F7265 PUSH1 0x58 SHL PUSH1 0x44 DUP3 ADD MSTORE REVERT JUMPDEST DUP3 CALLVALUE PUSH2 0x395 JUMPI PUSH1 0x20 DUP1 PUSH1 0x3 NOT CALLDATASIZE ADD SLT PUSH2 0x395 JUMPI DUP3 CALLDATALOAD SWAP2 PUSH2 0x38F4 PUSH2 0x41B CALLER PUSH2 0x5167 JUMP JUMPDEST PUSH2 0x38FF DUP4 ISZERO ISZERO PUSH2 0x4B5E JUMP JUMPDEST CALLER PUSH0 MSTORE PUSH1 0x1 DUP3 MSTORE DUP1 PUSH0 KECCAK256 SLOAD SWAP4 PUSH2 0x391D PUSH2 0x3916 PUSH2 0x4C90 JUMP JUMPDEST DUP7 DUP7 PUSH2 0x52F6 JUMP JUMPDEST ISZERO PUSH2 0x3A0E JUMPI DUP4 PUSH0 MSTORE PUSH1 0x6 DUP4 MSTORE PUSH1 0x1 DUP3 PUSH0 KECCAK256 SLOAD GT PUSH1 0x7 DUP5 MSTORE DUP3 PUSH0 KECCAK256 SLOAD ISZERO ISZERO DUP2 ISZERO PUSH2 0x3A06 JUMPI JUMPDEST POP ISZERO PUSH2 0x39AB JUMPI POP SWAP1 PUSH32 0x68F37CC4A32F0B24153CE9237B344B20A9717039F90D7C24F35E5C217F03E168 SWAP2 PUSH2 0x3975 DUP6 DUP6 PUSH2 0x52C2 JUMP JUMPDEST PUSH2 0x3987 PUSH2 0x3980 PUSH2 0x4C90 JUMP JUMPDEST DUP8 DUP8 PUSH2 0x5443 JUMP JUMPDEST PUSH0 MSTORE PUSH1 0x5 DUP3 MSTORE PUSH1 0x1 DUP2 PUSH0 KECCAK256 ADD PUSH1 0xFF NOT DUP2 SLOAD AND SWAP1 SSTORE PUSH1 0xB DUP3 MSTORE PUSH0 DUP2 DUP2 KECCAK256 SSTORE MLOAD TIMESTAMP DUP2 MSTORE LOG3 STOP JUMPDEST DUP3 PUSH1 0x84 SWAP3 MLOAD SWAP2 PUSH3 0x461BCD PUSH1 0xE5 SHL DUP4 MSTORE DUP3 ADD MSTORE PUSH1 0x31 PUSH1 0x24 DUP3 ADD MSTORE PUSH32 0x43616E6E6F74206C65617665206173206C617374206F776E6572207769746820 PUSH1 0x44 DUP3 ADD MSTORE PUSH17 0x6E6F2061646D696E6973747261746F7273 PUSH1 0x78 SHL PUSH1 0x64 DUP3 ADD MSTORE REVERT JUMPDEST SWAP1 POP DUP7 PUSH2 0x3941 JUMP JUMPDEST DUP3 PUSH1 0x84 SWAP3 MLOAD SWAP2 PUSH3 0x461BCD PUSH1 0xE5 SHL DUP4 MSTORE DUP3 ADD MSTORE PUSH1 0x23 PUSH1 0x24 DUP3 ADD MSTORE PUSH32 0x596F7520617265206E6F7420616E206F776E6572206F66207468697320726563 PUSH1 0x44 DUP3 ADD MSTORE PUSH3 0x1BDC99 PUSH1 0xEA SHL PUSH1 0x64 DUP3 ADD MSTORE REVERT JUMPDEST DUP3 CALLVALUE PUSH2 0x395 JUMPI PUSH1 0x20 CALLDATASIZE PUSH1 0x3 NOT ADD SLT PUSH2 0x395 JUMPI PUSH2 0x62C SWAP2 CALLDATALOAD PUSH0 MSTORE PUSH1 0x8 PUSH1 0x20 MSTORE PUSH2 0x619 DUP2 PUSH0 KECCAK256 PUSH2 0x4A42 JUMP JUMPDEST SWAP1 POP CALLVALUE PUSH2 0x395 JUMPI PUSH2 0x3A94 CALLDATASIZE PUSH2 0x4780 JUMP JUMPDEST SWAP2 SWAP3 SWAP1 PUSH2 0x3AA3 PUSH2 0x41B CALLER PUSH2 0x5167 JUMP JUMPDEST PUSH2 0x3AAE DUP5 ISZERO ISZERO PUSH2 0x4B5E JUMP JUMPDEST PUSH1 0x1 PUSH1 0x1 PUSH1 0xA0 SHL SUB AND PUSH2 0x3AC2 DUP2 ISZERO ISZERO PUSH2 0x4BAA JUMP JUMPDEST PUSH2 0x3ACE PUSH2 0xCF1 DUP5 PUSH2 0x524A JUMP JUMPDEST CALLER PUSH0 MSTORE PUSH1 0x20 SWAP4 PUSH1 0x1 DUP6 MSTORE DUP6 PUSH0 KECCAK256 SLOAD SWAP2 PUSH0 MSTORE DUP6 PUSH0 KECCAK256 SLOAD SWAP3 PUSH2 0x3AEF DUP5 ISZERO ISZERO PUSH2 0x49F6 JUMP JUMPDEST DUP5 MLOAD DUP7 DUP7 ADD KECCAK256 SWAP6 PUSH2 0x3B00 DUP6 DUP5 PUSH2 0x52C2 JUMP JUMPDEST DUP1 PUSH0 MSTORE PUSH1 0x5 DUP3 MSTORE PUSH2 0x3B19 PUSH1 0xFF PUSH1 0x1 DUP12 PUSH0 KECCAK256 ADD SLOAD AND PUSH2 0x4C38 JUMP JUMPDEST PUSH0 MSTORE PUSH1 0x5 DUP2 MSTORE PUSH2 0x3B2A DUP9 PUSH0 KECCAK256 PUSH2 0x47FA JUMP JUMPDEST SWAP7 DUP8 MLOAD DUP3 DUP10 ADD KECCAK256 SWAP1 DUP1 DUP3 EQ PUSH2 0x4124 JUMPI PUSH2 0x3B41 PUSH2 0x4C90 JUMP JUMPDEST DUP4 DUP2 MLOAD SWAP2 ADD KECCAK256 DUP3 EQ PUSH2 0x40AF JUMPI DUP5 PUSH0 MSTORE PUSH1 0x6 DUP4 MSTORE DUP10 PUSH0 KECCAK256 SLOAD ISZERO SWAP2 DUP3 ISZERO PUSH2 0x3B6E PUSH2 0x3B67 PUSH2 0x4C90 JUMP JUMPDEST DUP10 DUP10 PUSH2 0x52F6 JUMP JUMPDEST SWAP1 PUSH2 0x3B81 PUSH2 0x3B7A PUSH2 0x4CB1 JUMP JUMPDEST DUP11 DUP11 PUSH2 0x52F6 JUMP JUMPDEST SWAP1 PUSH2 0x3B94 PUSH2 0x3B8D PUSH2 0x4CDA JUMP JUMPDEST DUP12 DUP12 PUSH2 0x52F6 JUMP JUMPDEST DUP12 DUP12 EQ PUSH2 0x3B9F PUSH2 0x4C90 JUMP JUMPDEST DUP1 MLOAD SWAP1 DUP11 ADD KECCAK256 DUP8 SUB PUSH2 0x3D1C JUMPI POP POP ISZERO PUSH2 0x3CBF JUMPI POP ISZERO PUSH2 0x3C7E JUMPI JUMPDEST PUSH2 0x3BC1 PUSH2 0x4CB1 JUMP JUMPDEST DUP5 DUP2 MLOAD SWAP2 ADD KECCAK256 EQ SWAP1 DUP2 PUSH2 0x3C67 JUMPI JUMPDEST POP PUSH2 0x3BE2 JUMPI JUMPDEST POP POP POP PUSH2 0x4C3 SWAP6 POP PUSH2 0x53DE JUMP JUMPDEST PUSH2 0x3BED JUMPI JUMPDEST DUP1 PUSH2 0x3BD5 JUMP JUMPDEST DUP3 PUSH0 MSTORE PUSH1 0x7 DUP2 MSTORE PUSH1 0x1 DUP9 PUSH0 KECCAK256 SLOAD GT PUSH2 0x3BE7 JUMPI DUP8 MLOAD PUSH3 0x461BCD PUSH1 0xE5 SHL DUP2 MSTORE SWAP2 DUP3 ADD MSTORE PUSH1 0x39 PUSH1 0x24 DUP3 ADD MSTORE PUSH32 0x43616E6E6F742064656D6F746520746865206C6173742061646D696E69737472 PUSH1 0x44 DUP3 ADD MSTORE PUSH32 0x61746F72207768656E206E6F206F776E65722065786973747300000000000000 PUSH1 0x64 DUP3 ADD MSTORE PUSH1 0x84 SWAP2 POP REVERT JUMPDEST SWAP1 POP PUSH2 0x3C71 PUSH2 0x4CFC JUMP JUMPDEST DUP4 DUP2 MLOAD SWAP2 ADD KECCAK256 EQ PUSH0 PUSH2 0x3BCF JUMP JUMPDEST PUSH1 0x64 DUP6 DUP6 DUP1 DUP15 MLOAD SWAP3 PUSH3 0x461BCD PUSH1 0xE5 SHL DUP5 MSTORE DUP4 ADD MSTORE PUSH1 0x24 DUP3 ADD MSTORE PUSH32 0x4F6E6C79206F776E6572732063616E2070726F6D6F746520746F206F776E6572 PUSH1 0x44 DUP3 ADD MSTORE REVERT JUMPDEST SWAP1 POP PUSH2 0x3BB9 JUMPI DUP11 MLOAD PUSH3 0x461BCD PUSH1 0xE5 SHL DUP2 MSTORE DUP1 DUP7 ADD DUP6 SWAP1 MSTORE PUSH1 0x2B PUSH1 0x24 DUP3 ADD MSTORE PUSH32 0x4F6E6C792061646D696E6973747261746F72732063616E2070726F6D6F746520 PUSH1 0x44 DUP3 ADD MSTORE PUSH11 0x3334B939BA1037BBB732B9 PUSH1 0xA9 SHL PUSH1 0x64 DUP3 ADD MSTORE PUSH1 0x84 SWAP1 REVERT JUMPDEST SWAP1 SWAP2 PUSH2 0x3D26 PUSH2 0x4CB1 JUMP JUMPDEST DUP1 MLOAD SWAP1 DUP11 ADD KECCAK256 DUP8 SUB PUSH2 0x3DA6 JUMPI POP POP POP DUP2 ISZERO PUSH2 0x3D9E JUMPI JUMPDEST POP ISZERO PUSH2 0x3D48 JUMPI JUMPDEST PUSH2 0x3BB9 JUMP JUMPDEST DUP11 MLOAD PUSH3 0x461BCD PUSH1 0xE5 SHL DUP2 MSTORE DUP1 DUP7 ADD DUP6 SWAP1 MSTORE PUSH1 0x3B PUSH1 0x24 DUP3 ADD MSTORE PUSH0 DUP1 MLOAD PUSH1 0x20 PUSH2 0x5BCC DUP4 CODECOPY DUP2 MLOAD SWAP2 MSTORE PUSH1 0x44 DUP3 ADD MSTORE PUSH32 0x616E2070726F6D6F746520746F2061646D696E6973747261746F720000000000 PUSH1 0x64 DUP3 ADD MSTORE PUSH1 0x84 SWAP1 REVERT JUMPDEST SWAP1 POP PUSH0 PUSH2 0x3D3C JUMP JUMPDEST PUSH2 0x3DB2 SWAP4 SWAP2 SWAP3 SWAP4 PUSH2 0x4CDA JUMP JUMPDEST DUP1 MLOAD SWAP1 DUP11 ADD KECCAK256 DUP8 SUB PUSH2 0x3EF1 JUMPI ISZERO PUSH2 0x3E75 JUMPI DUP4 ISZERO PUSH2 0x3E6D JUMPI JUMPDEST POP DUP3 ISZERO PUSH2 0x3E54 JUMPI JUMPDEST POP POP PUSH2 0x3BB9 JUMPI DUP11 MLOAD PUSH3 0x461BCD PUSH1 0xE5 SHL DUP2 MSTORE DUP1 DUP7 ADD DUP6 SWAP1 MSTORE PUSH1 0x5F PUSH1 0x24 DUP3 ADD MSTORE PUSH0 DUP1 MLOAD PUSH1 0x20 PUSH2 0x5BCC DUP4 CODECOPY DUP2 MLOAD SWAP2 MSTORE PUSH1 0x44 DUP3 ADD MSTORE PUSH32 0x616E206368616E6765206F746865727320746F207368617265722E2053686172 PUSH1 0x64 DUP3 ADD MSTORE PUSH32 0x6572732063616E206F6E6C792064656D6F7465207468656D73656C7665732E00 PUSH1 0x84 DUP3 ADD MSTORE PUSH1 0xA4 SWAP1 REVERT JUMPDEST SWAP1 SWAP2 POP DUP2 PUSH2 0x3E65 JUMPI JUMPDEST POP PUSH0 DUP1 PUSH2 0x3DD2 JUMP JUMPDEST SWAP1 POP PUSH0 PUSH2 0x3E5D JUMP JUMPDEST SWAP3 POP PUSH0 PUSH2 0x3DCA JUMP JUMPDEST SWAP3 POP DUP3 ISZERO PUSH2 0x3ED8 JUMPI JUMPDEST POP POP PUSH2 0x3D43 JUMPI DUP11 MLOAD PUSH3 0x461BCD PUSH1 0xE5 SHL DUP2 MSTORE DUP1 DUP7 ADD DUP6 SWAP1 MSTORE PUSH1 0x28 PUSH1 0x24 DUP3 ADD MSTORE PUSH32 0x4F6E6C792061646D696E6973747261746F72732063616E206368616E67652074 PUSH1 0x44 DUP3 ADD MSTORE PUSH8 0x379039B430B932B9 PUSH1 0xC1 SHL PUSH1 0x64 DUP3 ADD MSTORE PUSH1 0x84 SWAP1 REVERT JUMPDEST SWAP1 SWAP2 POP DUP2 PUSH2 0x3EE9 JUMPI JUMPDEST POP PUSH0 DUP1 PUSH2 0x3E7E JUMP JUMPDEST SWAP1 POP PUSH0 PUSH2 0x3EE1 JUMP JUMPDEST PUSH2 0x3EF9 PUSH2 0x4CFC JUMP JUMPDEST DUP10 DUP2 MLOAD SWAP2 ADD KECCAK256 DUP8 EQ PUSH2 0x3F10 JUMPI JUMPDEST POP POP POP POP POP PUSH2 0x3BB9 JUMP JUMPDEST ISZERO PUSH2 0x4053 JUMPI DUP4 ISZERO PUSH2 0x403C JUMPI JUMPDEST POP DUP3 ISZERO PUSH2 0x4023 JUMPI JUMPDEST POP POP ISZERO PUSH2 0x3F9C JUMPI JUMPDEST PUSH2 0x3F36 DUP9 DUP8 PUSH2 0x5354 JUMP JUMPDEST PUSH2 0x3F44 JUMPI PUSH0 DUP1 DUP1 DUP1 DUP1 PUSH2 0x3F06 JUMP JUMPDEST DUP11 MLOAD PUSH3 0x461BCD PUSH1 0xE5 SHL DUP2 MSTORE DUP1 DUP7 ADD DUP6 SWAP1 MSTORE PUSH1 0x2C PUSH1 0x24 DUP3 ADD MSTORE PUSH32 0x43616E6E6F742064656D6F746520616E20616374697665207375626A65637420 PUSH1 0x44 DUP3 ADD MSTORE PUSH12 0x3132B637BB9039B430B932B9 PUSH1 0xA1 SHL PUSH1 0x64 DUP3 ADD MSTORE PUSH1 0x84 SWAP1 REVERT JUMPDEST DUP11 MLOAD PUSH3 0x461BCD PUSH1 0xE5 SHL DUP2 MSTORE DUP1 DUP7 ADD DUP6 SWAP1 MSTORE PUSH1 0x55 PUSH1 0x24 DUP3 ADD MSTORE PUSH32 0x4F6E6C79206F776E6572732063616E2064656D6F7465206F74686572732E2041 PUSH1 0x44 DUP3 ADD MSTORE PUSH32 0x646D696E6973747261746F727320616E6420736861726572732063616E206F6E PUSH1 0x64 DUP3 ADD MSTORE PUSH21 0x363C903232B6B7BA32903A3432B6B9B2B63B32B997 PUSH1 0x59 SHL PUSH1 0x84 DUP3 ADD MSTORE PUSH1 0xA4 SWAP1 REVERT JUMPDEST SWAP1 SWAP2 POP DUP2 PUSH2 0x4034 JUMPI JUMPDEST POP PUSH0 DUP1 PUSH2 0x3F24 JUMP JUMPDEST SWAP1 POP PUSH0 PUSH2 0x402C JUMP JUMPDEST SWAP1 SWAP3 POP DUP1 PUSH2 0x404C JUMPI JUMPDEST SWAP2 PUSH0 PUSH2 0x3F1C JUMP JUMPDEST POP DUP2 PUSH2 0x4045 JUMP JUMPDEST SWAP3 POP POP POP PUSH2 0x3F2C JUMPI DUP11 MLOAD PUSH3 0x461BCD PUSH1 0xE5 SHL DUP2 MSTORE DUP1 DUP7 ADD DUP6 SWAP1 MSTORE PUSH1 0x28 PUSH1 0x24 DUP3 ADD MSTORE PUSH32 0x4F6E6C792061646D696E6973747261746F72732063616E2064656D6F74652074 PUSH1 0x44 DUP3 ADD MSTORE PUSH8 0x37903B34B2BBB2B9 PUSH1 0xC1 SHL PUSH1 0x64 DUP3 ADD MSTORE PUSH1 0x84 SWAP1 REVERT JUMPDEST DUP10 MLOAD PUSH3 0x461BCD PUSH1 0xE5 SHL DUP2 MSTORE DUP1 DUP6 ADD DUP5 SWAP1 MSTORE PUSH1 0x43 PUSH1 0x24 DUP3 ADD MSTORE PUSH32 0x4F776E6572732063616E6E6F742062652064656D6F7465642E204F776E657220 PUSH1 0x44 DUP3 ADD MSTORE PUSH32 0x6D75737420766F6C756E746172696C792072656D6F7665207468656D73656C76 PUSH1 0x64 DUP3 ADD MSTORE PUSH3 0x32B997 PUSH1 0xE9 SHL PUSH1 0x84 DUP3 ADD MSTORE PUSH1 0xA4 SWAP1 REVERT JUMPDEST DUP10 MLOAD PUSH3 0x461BCD PUSH1 0xE5 SHL DUP2 MSTORE DUP1 DUP6 ADD DUP5 SWAP1 MSTORE PUSH1 0x1C PUSH1 0x24 DUP3 ADD MSTORE PUSH32 0x54617267657420616C726561647920686173207468697320726F6C6500000000 PUSH1 0x44 DUP3 ADD MSTORE PUSH1 0x64 SWAP1 REVERT JUMPDEST DUP3 CALLVALUE PUSH2 0x395 JUMPI PUSH1 0x20 CALLDATASIZE PUSH1 0x3 NOT ADD SLT PUSH2 0x395 JUMPI PUSH1 0x20 SWAP1 PUSH2 0x1AC9 PUSH2 0x4187 PUSH2 0x44DB JUMP JUMPDEST PUSH2 0x51F8 JUMP JUMPDEST DUP3 CALLVALUE PUSH2 0x395 JUMPI PUSH1 0x20 CALLDATASIZE PUSH1 0x3 NOT ADD SLT PUSH2 0x395 JUMPI PUSH2 0x41A6 PUSH2 0x44DB JUMP JUMPDEST PUSH0 SLOAD PUSH1 0x1 PUSH1 0x1 PUSH1 0xA0 SHL SUB SWAP2 SWAP1 PUSH2 0x41BF SWAP1 DUP4 AND CALLER EQ PUSH2 0x4AE1 JUMP JUMPDEST AND DUP1 PUSH0 MSTORE PUSH1 0x1 PUSH1 0x20 MSTORE PUSH2 0x41D6 DUP3 PUSH0 KECCAK256 SLOAD ISZERO ISZERO PUSH2 0x4B1A JUMP JUMPDEST DUP1 PUSH0 MSTORE PUSH1 0x1 PUSH1 0x20 MSTORE PUSH1 0xFF PUSH1 0x1 DUP4 PUSH0 KECCAK256 ADD SLOAD AND ISZERO PUSH2 0x4206 JUMPI PUSH1 0x1 SWAP3 POP PUSH0 MSTORE DUP2 PUSH1 0x20 MSTORE PUSH0 KECCAK256 ADD PUSH1 0xFF NOT DUP2 SLOAD AND SWAP1 SSTORE PUSH0 DUP1 RETURN JUMPDEST DUP2 MLOAD PUSH3 0x461BCD PUSH1 0xE5 SHL DUP2 MSTORE PUSH1 0x20 DUP2 DUP6 ADD MSTORE PUSH1 0x17 PUSH1 0x24 DUP3 ADD MSTORE PUSH32 0x57616C6C657420616C726561647920696E616374697665000000000000000000 PUSH1 0x44 DUP3 ADD MSTORE PUSH1 0x64 SWAP1 REVERT JUMPDEST DUP3 CALLVALUE PUSH2 0x395 JUMPI PUSH1 0x20 SWAP1 PUSH2 0x3AB CALLDATASIZE PUSH2 0x474C JUMP JUMPDEST DUP3 CALLVALUE PUSH2 0x395 JUMPI DUP1 PUSH1 0x3 NOT CALLDATASIZE ADD SLT PUSH2 0x395 JUMPI PUSH2 0x1AC9 PUSH1 0x20 SWAP3 PUSH2 0x427A PUSH2 0x44F1 JUMP JUMPDEST SWAP1 CALLDATALOAD PUSH2 0x4A90 JUMP JUMPDEST DUP3 CALLVALUE PUSH2 0x395 JUMPI PUSH1 0x20 CALLDATASIZE PUSH1 0x3 NOT ADD SLT PUSH2 0x395 JUMPI PUSH2 0x62C SWAP2 CALLDATALOAD PUSH0 MSTORE PUSH1 0x9 PUSH1 0x20 MSTORE PUSH2 0x619 DUP2 PUSH0 KECCAK256 PUSH2 0x4A42 JUMP JUMPDEST DUP3 CALLVALUE PUSH2 0x395 JUMPI PUSH2 0x42B9 CALLDATASIZE PUSH2 0x464C JUMP JUMPDEST SWAP3 SWAP1 PUSH2 0x42C7 PUSH2 0x41B CALLER PUSH2 0x5167 JUMP JUMPDEST PUSH2 0x42D4 DUP4 MLOAD DUP6 MLOAD EQ PUSH2 0x49B2 JUMP JUMPDEST CALLER PUSH0 MSTORE PUSH1 0x1 SWAP4 DUP5 SWAP4 PUSH1 0x20 SWAP1 PUSH1 0x1 DUP3 MSTORE DUP5 PUSH0 KECCAK256 SLOAD SWAP4 PUSH1 0x1 DUP1 PUSH1 0xA0 SHL SUB AND PUSH0 MSTORE DUP5 PUSH0 KECCAK256 SLOAD SWAP2 PUSH2 0x4302 DUP4 ISZERO ISZERO PUSH2 0x49F6 JUMP JUMPDEST PUSH0 SWAP7 JUMPDEST PUSH2 0x430B JUMPI STOP JUMPDEST DUP2 MLOAD DUP8 LT ISZERO PUSH2 0x4C3 JUMPI DUP8 DUP8 PUSH2 0x432A PUSH2 0x4324 DUP4 SWAP11 DUP9 PUSH2 0x4F9D JUMP JUMPDEST MLOAD PUSH2 0x524A JUMP JUMPDEST ISZERO PUSH2 0x43F6 JUMPI PUSH2 0x433D DUP8 PUSH2 0x72F DUP4 DUP8 PUSH2 0x4F9D JUMP JUMPDEST ISZERO PUSH2 0x43F6 JUMPI PUSH2 0x4350 DUP6 PUSH2 0x72F DUP4 DUP8 PUSH2 0x4F9D JUMP JUMPDEST PUSH2 0x43F6 JUMPI PUSH2 0x435E DUP2 DUP8 PUSH2 0x4F9D JUMP JUMPDEST MLOAD DUP4 DUP2 MLOAD SWAP2 ADD KECCAK256 PUSH2 0x437C PUSH2 0x4372 DUP4 DUP8 PUSH2 0x4F9D JUMP JUMPDEST MLOAD DUP10 PUSH2 0x896 PUSH2 0x4C90 JUMP JUMPDEST PUSH2 0x4393 PUSH2 0x4389 DUP5 DUP9 PUSH2 0x4F9D JUMP JUMPDEST MLOAD DUP11 PUSH2 0x896 PUSH2 0x4CB1 JUMP JUMPDEST SWAP2 PUSH2 0x439C PUSH2 0x4C90 JUMP JUMPDEST DUP1 MLOAD SWAP1 DUP8 ADD KECCAK256 DUP2 SUB PUSH2 0x4403 JUMPI POP SWAP1 PUSH2 0x43B4 DUP4 DUP8 PUSH2 0x4F9D JUMP JUMPDEST MLOAD PUSH0 SWAP1 DUP2 MSTORE PUSH1 0x6 DUP7 MSTORE DUP11 SWAP1 KECCAK256 SLOAD ISZERO PUSH2 0x43FB JUMPI POP ISZERO JUMPDEST PUSH2 0x43F6 JUMPI JUMPDEST PUSH2 0x43EF DUP8 PUSH2 0x43DC DUP4 DUP8 PUSH2 0x4F9D JUMP JUMPDEST MLOAD DUP8 PUSH2 0x43E8 DUP6 DUP12 PUSH2 0x4F9D JUMP JUMPDEST MLOAD SWAP2 PUSH2 0x56B8 JUMP JUMPDEST ADD SWAP7 PUSH2 0x4305 JUMP JUMPDEST PUSH2 0x43EF JUMP JUMPDEST SWAP1 POP ISZERO PUSH2 0x43C9 JUMP JUMPDEST PUSH2 0x440B PUSH2 0x4CB1 JUMP JUMPDEST DUP1 MLOAD SWAP1 DUP8 ADD KECCAK256 DUP2 SUB PUSH2 0x4434 JUMPI POP ISZERO SWAP1 DUP2 PUSH2 0x442B JUMPI JUMPDEST POP PUSH2 0x43F6 JUMPI JUMPDEST PUSH2 0x43CE JUMP JUMPDEST SWAP1 POP ISZERO DUP12 PUSH2 0x4420 JUMP JUMPDEST PUSH2 0x443C PUSH2 0x4CDA JUMP JUMPDEST DUP1 MLOAD SWAP1 DUP8 ADD KECCAK256 SUB PUSH2 0x4463 JUMPI ISZERO SWAP1 DUP2 PUSH2 0x445A JUMPI JUMPDEST POP ISZERO PUSH2 0x43CE JUMPI PUSH2 0x43EF JUMP JUMPDEST SWAP1 POP ISZERO DUP12 PUSH2 0x444F JUMP JUMPDEST PUSH2 0x447A PUSH2 0x4470 DUP5 DUP9 PUSH2 0x4F9D JUMP JUMPDEST MLOAD DUP11 PUSH2 0x896 PUSH2 0x4CDA JUMP JUMPDEST SWAP1 ISZERO SWAP2 DUP3 PUSH2 0x449E JUMPI JUMPDEST POP DUP2 PUSH2 0x4495 JUMPI JUMPDEST POP ISZERO PUSH2 0x4426 JUMPI PUSH2 0x43EF JUMP JUMPDEST SWAP1 POP ISZERO DUP12 PUSH2 0x448A JUMP JUMPDEST ISZERO SWAP2 POP DUP13 PUSH2 0x4483 JUMP JUMPDEST DUP4 SWAP1 CALLVALUE PUSH2 0x395 JUMPI PUSH1 0x20 CALLDATASIZE PUSH1 0x3 NOT ADD SLT PUSH2 0x395 JUMPI PUSH1 0x20 SWAP2 PUSH1 0x1 PUSH1 0x1 PUSH1 0xA0 SHL SUB PUSH2 0x44CD PUSH2 0x44DB JUMP JUMPDEST AND PUSH0 MSTORE PUSH1 0x1 DUP4 MSTORE PUSH0 KECCAK256 SLOAD DUP2 MSTORE RETURN JUMPDEST PUSH1 0x4 CALLDATALOAD SWAP1 PUSH1 0x1 PUSH1 0x1 PUSH1 0xA0 SHL SUB DUP3 AND DUP3 SUB PUSH2 0x395 JUMPI JUMP JUMPDEST PUSH1 0x24 CALLDATALOAD SWAP1 PUSH1 0x1 PUSH1 0x1 PUSH1 0xA0 SHL SUB DUP3 AND DUP3 SUB PUSH2 0x395 JUMPI JUMP JUMPDEST PUSH1 0x40 DUP2 ADD SWAP1 DUP2 LT PUSH1 0x1 PUSH1 0x1 PUSH1 0x40 SHL SUB DUP3 GT OR PUSH2 0x4522 JUMPI PUSH1 0x40 MSTORE JUMP JUMPDEST PUSH4 0x4E487B71 PUSH1 0xE0 SHL PUSH0 MSTORE PUSH1 0x41 PUSH1 0x4 MSTORE PUSH1 0x24 PUSH0 REVERT JUMPDEST PUSH1 0x20 DUP2 ADD SWAP1 DUP2 LT PUSH1 0x1 PUSH1 0x1 PUSH1 0x40 SHL SUB DUP3 GT OR PUSH2 0x4522 JUMPI PUSH1 0x40 MSTORE JUMP JUMPDEST SWAP1 PUSH1 0x1F DUP1 NOT SWAP2 ADD AND DUP2 ADD SWAP1 DUP2 LT PUSH1 0x1 PUSH1 0x1 PUSH1 0x40 SHL SUB DUP3 GT OR PUSH2 0x4522 JUMPI PUSH1 0x40 MSTORE JUMP JUMPDEST PUSH1 0x1 PUSH1 0x1 PUSH1 0x40 SHL SUB DUP2 GT PUSH2 0x4522 JUMPI PUSH1 0x5 SHL PUSH1 0x20 ADD SWAP1 JUMP JUMPDEST SWAP1 DUP1 PUSH1 0x1F DUP4 ADD SLT ISZERO PUSH2 0x395 JUMPI PUSH1 0x20 SWAP1 DUP3 CALLDATALOAD PUSH2 0x45A3 DUP2 PUSH2 0x4572 JUMP JUMPDEST SWAP4 PUSH2 0x45B1 PUSH1 0x40 MLOAD SWAP6 DUP7 PUSH2 0x4551 JUMP JUMPDEST DUP2 DUP6 MSTORE PUSH1 0x20 DUP1 DUP7 ADD SWAP3 PUSH1 0x5 SHL DUP3 ADD ADD SWAP3 DUP4 GT PUSH2 0x395 JUMPI PUSH1 0x20 ADD SWAP1 JUMPDEST DUP3 DUP3 LT PUSH2 0x45DA JUMPI POP POP POP POP SWAP1 JUMP JUMPDEST DUP2 CALLDATALOAD DUP2 MSTORE SWAP1 DUP4 ADD SWAP1 DUP4 ADD PUSH2 0x45CC JUMP JUMPDEST SWAP3 SWAP2 SWAP3 PUSH1 0x1 PUSH1 0x1 PUSH1 0x40 SHL SUB DUP3 GT PUSH2 0x4522 JUMPI PUSH1 0x40 MLOAD SWAP2 PUSH2 0x4612 PUSH1 0x1F DUP3 ADD PUSH1 0x1F NOT AND PUSH1 0x20 ADD DUP5 PUSH2 0x4551 JUMP JUMPDEST DUP3 SWAP5 DUP2 DUP5 MSTORE DUP2 DUP4 ADD GT PUSH2 0x395 JUMPI DUP3 DUP2 PUSH1 0x20 SWAP4 DUP5 PUSH0 SWAP7 ADD CALLDATACOPY ADD ADD MSTORE JUMP JUMPDEST SWAP1 DUP1 PUSH1 0x1F DUP4 ADD SLT ISZERO PUSH2 0x395 JUMPI DUP2 PUSH1 0x20 PUSH2 0x4649 SWAP4 CALLDATALOAD SWAP2 ADD PUSH2 0x45E9 JUMP JUMPDEST SWAP1 JUMP JUMPDEST PUSH1 0x60 PUSH1 0x3 NOT DUP3 ADD SLT PUSH2 0x395 JUMPI PUSH1 0x1 PUSH1 0x1 PUSH1 0x40 SHL SUB SWAP2 PUSH1 0x4 CALLDATALOAD DUP4 DUP2 GT PUSH2 0x395 JUMPI DUP3 PUSH2 0x4678 SWAP2 PUSH1 0x4 ADD PUSH2 0x4589 JUMP JUMPDEST SWAP3 PUSH1 0x24 SWAP3 DUP4 CALLDATALOAD PUSH1 0x1 PUSH1 0x1 PUSH1 0xA0 SHL SUB DUP2 AND DUP2 SUB PUSH2 0x395 JUMPI SWAP4 PUSH1 0x44 CALLDATALOAD SWAP3 DUP1 DUP5 GT PUSH2 0x395 JUMPI DUP3 PUSH1 0x23 DUP6 ADD SLT ISZERO PUSH2 0x395 JUMPI DUP4 PUSH1 0x4 ADD CALLDATALOAD PUSH2 0x46B3 DUP2 PUSH2 0x4572 JUMP JUMPDEST SWAP5 PUSH2 0x46C1 PUSH1 0x40 MLOAD SWAP7 DUP8 PUSH2 0x4551 JUMP JUMPDEST DUP2 DUP7 MSTORE PUSH1 0x20 SWAP5 PUSH1 0x24 PUSH1 0x20 DUP9 ADD SWAP4 PUSH1 0x5 SHL DUP4 ADD ADD SWAP5 DUP2 DUP7 GT PUSH2 0x395 JUMPI PUSH1 0x24 DUP4 ADD SWAP4 JUMPDEST DUP7 DUP6 LT PUSH2 0x46F4 JUMPI POP POP POP POP POP POP POP POP SWAP1 JUMP JUMPDEST DUP5 CALLDATALOAD DUP7 DUP2 GT PUSH2 0x395 JUMPI DUP9 SWAP2 PUSH2 0x470E DUP6 DUP6 DUP6 SWAP5 DUP10 ADD ADD PUSH2 0x462E JUMP JUMPDEST DUP2 MSTORE ADD SWAP5 ADD SWAP4 PUSH2 0x46E2 JUMP JUMPDEST SWAP1 DUP2 MLOAD DUP1 DUP3 MSTORE PUSH1 0x20 DUP1 DUP1 SWAP4 ADD SWAP4 ADD SWAP2 PUSH0 JUMPDEST DUP3 DUP2 LT PUSH2 0x4738 JUMPI POP POP POP POP SWAP1 JUMP JUMPDEST DUP4 MLOAD DUP6 MSTORE SWAP4 DUP2 ADD SWAP4 SWAP3 DUP2 ADD SWAP3 PUSH1 0x1 ADD PUSH2 0x472A JUMP JUMPDEST PUSH1 0x40 SWAP1 PUSH1 0x3 NOT ADD SLT PUSH2 0x395 JUMPI PUSH1 0x4 CALLDATALOAD SWAP1 PUSH1 0x24 CALLDATALOAD SWAP1 JUMP JUMPDEST PUSH1 0x3 GT ISZERO PUSH2 0x476C JUMPI JUMP JUMPDEST PUSH4 0x4E487B71 PUSH1 0xE0 SHL PUSH0 MSTORE PUSH1 0x21 PUSH1 0x4 MSTORE PUSH1 0x24 PUSH0 REVERT JUMPDEST PUSH1 0x60 PUSH1 0x3 NOT DUP3 ADD SLT PUSH2 0x395 JUMPI PUSH1 0x4 CALLDATALOAD SWAP2 PUSH1 0x24 CALLDATALOAD PUSH1 0x1 PUSH1 0x1 PUSH1 0xA0 SHL SUB DUP2 AND DUP2 SUB PUSH2 0x395 JUMPI SWAP2 PUSH1 0x44 CALLDATALOAD SWAP1 PUSH1 0x1 PUSH1 0x1 PUSH1 0x40 SHL SUB DUP3 GT PUSH2 0x395 JUMPI PUSH2 0x4649 SWAP2 PUSH1 0x4 ADD PUSH2 0x462E JUMP JUMPDEST SWAP1 PUSH1 0x1 DUP3 DUP2 SHR SWAP3 AND DUP1 ISZERO PUSH2 0x47F0 JUMPI JUMPDEST PUSH1 0x20 DUP4 LT EQ PUSH2 0x47DC JUMPI JUMP JUMPDEST PUSH4 0x4E487B71 PUSH1 0xE0 SHL PUSH0 MSTORE PUSH1 0x22 PUSH1 0x4 MSTORE PUSH1 0x24 PUSH0 REVERT JUMPDEST SWAP2 PUSH1 0x7F AND SWAP2 PUSH2 0x47D1 JUMP JUMPDEST SWAP1 PUSH1 0x40 MLOAD SWAP2 DUP3 PUSH0 DUP3 SLOAD PUSH2 0x480C DUP2 PUSH2 0x47C2 JUMP JUMPDEST SWAP1 DUP2 DUP5 MSTORE PUSH1 0x20 SWAP5 PUSH1 0x1 SWAP2 PUSH1 0x1 DUP2 AND SWAP1 DUP2 PUSH0 EQ PUSH2 0x487A JUMPI POP PUSH1 0x1 EQ PUSH2 0x483C JUMPI JUMPDEST POP POP POP PUSH2 0x483A SWAP3 POP SUB DUP4 PUSH2 0x4551 JUMP JUMPDEST JUMP JUMPDEST PUSH0 SWAP1 DUP2 MSTORE DUP6 DUP2 KECCAK256 SWAP6 SWAP4 POP SWAP2 SWAP1 JUMPDEST DUP2 DUP4 LT PUSH2 0x4862 JUMPI POP POP PUSH2 0x483A SWAP4 POP DUP3 ADD ADD PUSH0 DUP1 DUP1 PUSH2 0x482B JUMP JUMPDEST DUP6 SLOAD DUP9 DUP5 ADD DUP6 ADD MSTORE SWAP5 DUP6 ADD SWAP5 DUP8 SWAP5 POP SWAP2 DUP4 ADD SWAP2 PUSH2 0x4849 JUMP JUMPDEST SWAP3 POP POP POP PUSH2 0x483A SWAP5 SWAP3 POP PUSH1 0xFF NOT AND DUP3 DUP5 ADD MSTORE ISZERO ISZERO PUSH1 0x5 SHL DUP3 ADD ADD PUSH0 DUP1 DUP1 PUSH2 0x482B JUMP JUMPDEST SWAP2 SWAP1 DUP3 MLOAD SWAP3 DUP4 DUP3 MSTORE PUSH0 JUMPDEST DUP5 DUP2 LT PUSH2 0x48C6 JUMPI POP POP DUP3 PUSH0 PUSH1 0x20 DUP1 SWAP5 SWAP6 DUP5 ADD ADD MSTORE PUSH1 0x1F DUP1 NOT SWAP2 ADD AND ADD ADD SWAP1 JUMP JUMPDEST PUSH1 0x20 DUP2 DUP4 ADD DUP2 ADD MLOAD DUP5 DUP4 ADD DUP3 ADD MSTORE ADD PUSH2 0x48A6 JUMP JUMPDEST SWAP1 PUSH2 0x48F2 PUSH1 0x20 SWAP2 SWAP5 SWAP4 SWAP5 PUSH1 0x40 DUP5 MSTORE PUSH1 0x40 DUP5 ADD SWAP1 PUSH2 0x489C JUMP JUMPDEST SWAP4 ISZERO ISZERO SWAP2 ADD MSTORE JUMP JUMPDEST PUSH1 0x40 SWAP1 PUSH1 0x3 NOT ADD SLT PUSH2 0x395 JUMPI PUSH1 0x4 CALLDATALOAD SWAP1 PUSH1 0x24 CALLDATALOAD PUSH1 0x3 DUP2 LT ISZERO PUSH2 0x395 JUMPI SWAP1 JUMP JUMPDEST DUP1 SLOAD DUP3 LT ISZERO PUSH2 0x492E JUMPI PUSH0 MSTORE PUSH1 0x20 PUSH0 KECCAK256 ADD SWAP1 PUSH0 SWAP1 JUMP JUMPDEST PUSH4 0x4E487B71 PUSH1 0xE0 SHL PUSH0 MSTORE PUSH1 0x32 PUSH1 0x4 MSTORE PUSH1 0x24 PUSH0 REVERT JUMPDEST PUSH1 0x5 GT ISZERO PUSH2 0x476C JUMPI JUMP JUMPDEST PUSH1 0x40 DUP2 ADD SWAP4 SWAP3 SWAP2 PUSH1 0x20 SWAP2 SWAP1 PUSH2 0x4960 DUP2 PUSH2 0x4942 JUMP JUMPDEST DUP2 MSTORE PUSH2 0x496B DUP4 PUSH2 0x4762 JUMP JUMPDEST ADD MSTORE JUMP JUMPDEST ISZERO PUSH2 0x4976 JUMPI JUMP JUMPDEST PUSH1 0x40 MLOAD PUSH3 0x461BCD PUSH1 0xE5 SHL DUP2 MSTORE PUSH1 0x20 PUSH1 0x4 DUP3 ADD MSTORE PUSH1 0x14 PUSH1 0x24 DUP3 ADD MSTORE PUSH20 0x2737BA1030B71030B1BA34BB329036B2B6B132B9 PUSH1 0x61 SHL PUSH1 0x44 DUP3 ADD MSTORE PUSH1 0x64 SWAP1 REVERT JUMPDEST ISZERO PUSH2 0x49B9 JUMPI JUMP JUMPDEST PUSH1 0x40 MLOAD PUSH3 0x461BCD PUSH1 0xE5 SHL DUP2 MSTORE PUSH1 0x20 PUSH1 0x4 DUP3 ADD MSTORE PUSH1 0x15 PUSH1 0x24 DUP3 ADD MSTORE PUSH21 0x82E4E4C2F240D8CADCCEE8D040DAD2E6DAC2E8C6D PUSH1 0x5B SHL PUSH1 0x44 DUP3 ADD MSTORE PUSH1 0x64 SWAP1 REVERT JUMPDEST ISZERO PUSH2 0x49FD JUMPI JUMP JUMPDEST PUSH1 0x40 MLOAD PUSH3 0x461BCD PUSH1 0xE5 SHL DUP2 MSTORE PUSH1 0x20 PUSH1 0x4 DUP3 ADD MSTORE PUSH1 0x1C PUSH1 0x24 DUP3 ADD MSTORE PUSH32 0x5461726765742077616C6C6574206E6F74207265676973746572656400000000 PUSH1 0x44 DUP3 ADD MSTORE PUSH1 0x64 SWAP1 REVERT JUMPDEST SWAP1 PUSH1 0x40 MLOAD SWAP2 DUP3 DUP2 SLOAD SWAP2 DUP3 DUP3 MSTORE PUSH1 0x20 SWAP3 PUSH1 0x20 DUP4 ADD SWAP2 PUSH0 MSTORE PUSH1 0x20 PUSH0 KECCAK256 SWAP4 PUSH0 SWAP1 JUMPDEST DUP3 DUP3 LT PUSH2 0x4A76 JUMPI POP POP POP PUSH2 0x483A SWAP3 POP SUB DUP4 PUSH2 0x4551 JUMP JUMPDEST DUP6 SLOAD DUP5 MSTORE PUSH1 0x1 SWAP6 DUP7 ADD SWAP6 DUP9 SWAP6 POP SWAP4 DUP2 ADD SWAP4 SWAP1 SWAP2 ADD SWAP1 PUSH2 0x4A60 JUMP JUMPDEST PUSH1 0x1 PUSH1 0x1 PUSH1 0xA0 SHL SUB SWAP1 SWAP2 AND PUSH0 SWAP1 DUP2 MSTORE PUSH1 0x1 PUSH1 0x20 MSTORE PUSH1 0x40 SWAP1 KECCAK256 SLOAD SWAP1 DUP2 ISZERO PUSH2 0x4ADB JUMPI PUSH2 0x4AC2 PUSH2 0x4ABB PUSH2 0x4C90 JUMP JUMPDEST DUP4 DUP4 PUSH2 0x52F6 JUMP JUMPDEST SWAP2 DUP3 ISZERO PUSH2 0x4ACE JUMPI POP POP SWAP1 JUMP JUMPDEST PUSH2 0x4649 SWAP3 POP PUSH2 0x896 PUSH2 0x4CB1 JUMP JUMPDEST POP POP PUSH0 SWAP1 JUMP JUMPDEST ISZERO PUSH2 0x4AE8 JUMPI JUMP JUMPDEST PUSH1 0x40 MLOAD PUSH3 0x461BCD PUSH1 0xE5 SHL DUP2 MSTORE PUSH1 0x20 PUSH1 0x4 DUP3 ADD MSTORE PUSH1 0xA PUSH1 0x24 DUP3 ADD MSTORE PUSH10 0x27B7363C9030B236B4B7 PUSH1 0xB1 SHL PUSH1 0x44 DUP3 ADD MSTORE PUSH1 0x64 SWAP1 REVERT JUMPDEST ISZERO PUSH2 0x4B21 JUMPI JUMP JUMPDEST PUSH1 0x40 MLOAD PUSH3 0x461BCD PUSH1 0xE5 SHL DUP2 MSTORE PUSH1 0x20 PUSH1 0x4 DUP3 ADD MSTORE PUSH1 0x15 PUSH1 0x24 DUP3 ADD MSTORE PUSH21 0x15D85B1B195D081B9BDD081C9959DA5CDD195C9959 PUSH1 0x5A SHL PUSH1 0x44 DUP3 ADD MSTORE PUSH1 0x64 SWAP1 REVERT JUMPDEST ISZERO PUSH2 0x4B65 JUMPI JUMP JUMPDEST PUSH1 0x40 MLOAD PUSH3 0x461BCD PUSH1 0xE5 SHL DUP2 MSTORE PUSH1 0x20 PUSH1 0x4 DUP3 ADD MSTORE PUSH1 0x1E PUSH1 0x24 DUP3 ADD MSTORE PUSH32 0x5265636F726420494420686173682063616E6E6F7420626520656D7074790000 PUSH1 0x44 DUP3 ADD MSTORE PUSH1 0x64 SWAP1 REVERT JUMPDEST ISZERO PUSH2 0x4BB1 JUMPI JUMP JUMPDEST PUSH1 0x40 MLOAD PUSH3 0x461BCD PUSH1 0xE5 SHL DUP2 MSTORE PUSH1 0x20 PUSH1 0x4 DUP3 ADD MSTORE PUSH1 0x1D PUSH1 0x24 DUP3 ADD MSTORE PUSH32 0x57616C6C657420616464726573732063616E6E6F74206265207A65726F000000 PUSH1 0x44 DUP3 ADD MSTORE PUSH1 0x64 SWAP1 REVERT JUMPDEST ISZERO PUSH2 0x4BFD JUMPI JUMP JUMPDEST PUSH1 0x40 MLOAD PUSH3 0x461BCD PUSH1 0xE5 SHL DUP2 MSTORE PUSH1 0x20 PUSH1 0x4 DUP3 ADD MSTORE PUSH1 0x13 PUSH1 0x24 DUP3 ADD MSTORE PUSH19 0x496E76616C696420726F6C6520737472696E67 PUSH1 0x68 SHL PUSH1 0x44 DUP3 ADD MSTORE PUSH1 0x64 SWAP1 REVERT JUMPDEST ISZERO PUSH2 0x4C3F JUMPI JUMP JUMPDEST PUSH1 0x40 MLOAD PUSH3 0x461BCD PUSH1 0xE5 SHL DUP2 MSTORE PUSH1 0x20 PUSH1 0x4 DUP3 ADD MSTORE PUSH1 0x23 PUSH1 0x24 DUP3 ADD MSTORE PUSH32 0x54617267657420646F6573206E6F74206861766520616E206163746976652072 PUSH1 0x44 DUP3 ADD MSTORE PUSH3 0x6F6C65 PUSH1 0xE8 SHL PUSH1 0x64 DUP3 ADD MSTORE PUSH1 0x84 SWAP1 REVERT JUMPDEST PUSH1 0x40 MLOAD SWAP1 PUSH2 0x4C9D DUP3 PUSH2 0x4507 JUMP JUMPDEST PUSH1 0x5 DUP3 MSTORE PUSH5 0x37BBB732B9 PUSH1 0xD9 SHL PUSH1 0x20 DUP4 ADD MSTORE JUMP JUMPDEST PUSH1 0x40 MLOAD SWAP1 PUSH2 0x4CBE DUP3 PUSH2 0x4507 JUMP JUMPDEST PUSH1 0xD DUP3 MSTORE PUSH13 0x30B236B4B734B9BA3930BA37B9 PUSH1 0x99 SHL PUSH1 0x20 DUP4 ADD MSTORE JUMP JUMPDEST PUSH1 0x40 MLOAD SWAP1 PUSH2 0x4CE7 DUP3 PUSH2 0x4507 JUMP JUMPDEST PUSH1 0x6 DUP3 MSTORE PUSH6 0x39B430B932B9 PUSH1 0xD1 SHL PUSH1 0x20 DUP4 ADD MSTORE JUMP JUMPDEST PUSH1 0x40 MLOAD SWAP1 PUSH2 0x4D09 DUP3 PUSH2 0x4507 JUMP JUMPDEST PUSH1 0x6 DUP3 MSTORE PUSH6 0x3B34B2BBB2B9 PUSH1 0xD1 SHL PUSH1 0x20 DUP4 ADD MSTORE JUMP JUMPDEST SWAP2 SWAP1 PUSH1 0x1 DUP1 PUSH1 0xA0 SHL SUB AND PUSH0 MSTORE PUSH1 0x1 PUSH1 0x20 MSTORE PUSH1 0x40 PUSH0 KECCAK256 SLOAD DUP1 ISZERO PUSH2 0x4D43 JUMPI PUSH2 0x4649 SWAP3 PUSH2 0x52F6 JUMP JUMPDEST POP POP POP PUSH0 SWAP1 JUMP JUMPDEST PUSH1 0x1 PUSH1 0x1 PUSH1 0xA0 SHL SUB SWAP1 SWAP2 AND PUSH0 SWAP1 DUP2 MSTORE PUSH1 0x1 PUSH1 0x20 MSTORE PUSH1 0x40 SWAP1 KECCAK256 SLOAD SWAP1 DUP2 ISZERO PUSH2 0x4DAC JUMPI PUSH1 0x20 SWAP3 SWAP2 PUSH2 0x4D77 SWAP2 PUSH2 0x52C2 JUMP JUMPDEST PUSH0 MSTORE PUSH1 0x5 DUP3 MSTORE PUSH1 0x40 PUSH0 KECCAK256 PUSH1 0x40 MLOAD PUSH2 0x4D8D DUP2 PUSH2 0x4507 JUMP JUMPDEST PUSH1 0xFF PUSH1 0x1 PUSH2 0x4D9A DUP5 PUSH2 0x47FA JUMP JUMPDEST SWAP4 DUP5 DUP5 MSTORE ADD SLOAD AND ISZERO ISZERO SWAP4 DUP5 SWAP2 ADD MSTORE SWAP2 SWAP1 JUMP JUMPDEST POP POP PUSH1 0x40 MLOAD PUSH2 0x4DBA DUP2 PUSH2 0x4536 JUMP JUMPDEST PUSH0 DUP2 MSTORE SWAP1 PUSH0 SWAP1 JUMP JUMPDEST ISZERO PUSH2 0x4DC9 JUMPI JUMP JUMPDEST PUSH1 0x40 MLOAD PUSH3 0x461BCD PUSH1 0xE5 SHL DUP2 MSTORE PUSH1 0x20 PUSH1 0x4 DUP3 ADD MSTORE PUSH1 0x16 PUSH1 0x24 DUP3 ADD MSTORE PUSH22 0x496E76616C69642077616C6C65742061646472657373 PUSH1 0x50 SHL PUSH1 0x44 DUP3 ADD MSTORE PUSH1 0x64 SWAP1 REVERT JUMPDEST ISZERO PUSH2 0x4E0E JUMPI JUMP JUMPDEST PUSH1 0x40 MLOAD PUSH3 0x461BCD PUSH1 0xE5 SHL DUP2 MSTORE PUSH1 0x20 PUSH1 0x4 DUP3 ADD MSTORE PUSH1 0x14 PUSH1 0x24 DUP3 ADD MSTORE PUSH20 0x92DCECC2D8D2C840EAE6CAE440928840D0C2E6D PUSH1 0x63 SHL PUSH1 0x44 DUP3 ADD MSTORE PUSH1 0x64 SWAP1 REVERT JUMPDEST ISZERO PUSH2 0x4E51 JUMPI JUMP JUMPDEST PUSH1 0x40 MLOAD PUSH3 0x461BCD PUSH1 0xE5 SHL DUP2 MSTORE PUSH1 0x20 PUSH1 0x4 DUP3 ADD MSTORE PUSH1 0x19 PUSH1 0x24 DUP3 ADD MSTORE PUSH32 0x57616C6C657420616C7265616479207265676973746572656400000000000000 PUSH1 0x44 DUP3 ADD MSTORE PUSH1 0x64 SWAP1 REVERT JUMPDEST DUP1 SLOAD PUSH1 0x1 PUSH1 0x40 SHL DUP2 LT ISZERO PUSH2 0x4522 JUMPI PUSH2 0x4EB3 SWAP2 PUSH1 0x1 DUP3 ADD DUP2 SSTORE PUSH2 0x4919 JUMP JUMPDEST PUSH1 0x1 DUP1 PUSH1 0xA0 SWAP5 SWAP4 SWAP5 SHL SUB DUP1 DUP5 SLOAD SWAP3 PUSH1 0x3 SHL SWAP4 AND DUP4 SHL SWAP3 SHL NOT AND OR SWAP1 SSTORE JUMP JUMPDEST SWAP1 PUSH2 0x4EDB DUP2 PUSH2 0x4942 JUMP JUMPDEST PUSH1 0xFF DUP1 NOT DUP4 SLOAD AND SWAP2 AND OR SWAP1 SSTORE JUMP JUMPDEST PUSH0 NOT DUP2 EQ PUSH2 0x4EF7 JUMPI PUSH1 0x1 ADD SWAP1 JUMP JUMPDEST PUSH4 0x4E487B71 PUSH1 0xE0 SHL PUSH0 MSTORE PUSH1 0x11 PUSH1 0x4 MSTORE PUSH1 0x24 PUSH0 REVERT JUMPDEST ISZERO PUSH2 0x4F12 JUMPI JUMP JUMPDEST PUSH1 0x40 MLOAD PUSH3 0x461BCD PUSH1 0xE5 SHL DUP2 MSTORE PUSH1 0x20 PUSH1 0x4 DUP3 ADD MSTORE PUSH1 0x1E PUSH1 0x24 DUP3 ADD MSTORE PUSH32 0x4E6F2061637469766520747275737465652072656C6174696F6E736869700000 PUSH1 0x44 DUP3 ADD MSTORE PUSH1 0x64 SWAP1 REVERT JUMPDEST SWAP1 PUSH2 0x4F61 DUP2 PUSH2 0x4762 JUMP JUMPDEST PUSH2 0xFF00 DUP3 SLOAD SWAP2 PUSH1 0x8 SHL AND SWAP1 PUSH2 0xFF00 NOT AND OR SWAP1 SSTORE JUMP JUMPDEST PUSH1 0x60 DUP2 ADD SWAP5 SWAP4 SWAP3 PUSH1 0x40 SWAP3 PUSH2 0x4F89 DUP2 PUSH2 0x4762 JUMP JUMPDEST DUP3 MSTORE PUSH2 0x4F94 DUP2 PUSH2 0x4762 JUMP JUMPDEST PUSH1 0x20 DUP3 ADD MSTORE ADD MSTORE JUMP JUMPDEST DUP1 MLOAD DUP3 LT ISZERO PUSH2 0x492E JUMPI PUSH1 0x20 SWAP2 PUSH1 0x5 SHL ADD ADD SWAP1 JUMP JUMPDEST ISZERO PUSH2 0x4FB8 JUMPI JUMP JUMPDEST PUSH1 0x40 MLOAD PUSH3 0x461BCD PUSH1 0xE5 SHL DUP2 MSTORE PUSH1 0x20 PUSH1 0x4 DUP3 ADD MSTORE PUSH1 0xF PUSH1 0x24 DUP3 ADD MSTORE PUSH15 0x496E76616C69642061646472657373 PUSH1 0x88 SHL PUSH1 0x44 DUP3 ADD MSTORE PUSH1 0x64 SWAP1 REVERT JUMPDEST PUSH1 0x1 PUSH1 0x1 PUSH1 0xA0 SHL SUB SWAP1 SWAP2 AND PUSH0 SWAP1 DUP2 MSTORE PUSH1 0x1 PUSH1 0x20 MSTORE PUSH1 0x40 SWAP1 KECCAK256 SLOAD DUP1 ISZERO PUSH2 0x4ADB JUMPI PUSH2 0x5017 SWAP2 PUSH2 0x52C2 JUMP JUMPDEST PUSH0 MSTORE PUSH1 0x5 PUSH1 0x20 MSTORE PUSH1 0xFF PUSH1 0x1 PUSH1 0x40 PUSH0 KECCAK256 ADD SLOAD AND SWAP1 JUMP JUMPDEST DUP1 SLOAD SWAP1 PUSH0 DUP2 SSTORE DUP2 PUSH2 0x503B JUMPI POP POP JUMP JUMPDEST PUSH0 MSTORE PUSH1 0x20 PUSH0 KECCAK256 SWAP1 DUP2 ADD SWAP1 JUMPDEST DUP2 DUP2 LT PUSH2 0x5051 JUMPI POP POP JUMP JUMPDEST PUSH0 DUP2 SSTORE PUSH1 0x1 ADD PUSH2 0x5046 JUMP JUMPDEST DUP1 SLOAD SWAP1 PUSH1 0x1 PUSH1 0x40 SHL DUP3 LT ISZERO PUSH2 0x4522 JUMPI DUP2 PUSH2 0x507E SWAP2 PUSH1 0x1 PUSH2 0x5094 SWAP5 ADD DUP2 SSTORE PUSH2 0x4919 JUMP JUMPDEST DUP2 SWAP4 SWAP2 SLOAD SWAP1 PUSH1 0x3 SHL SWAP2 DUP3 SHL SWAP2 PUSH0 NOT SWAP1 SHL NOT AND OR SWAP1 JUMP JUMPDEST SWAP1 SSTORE JUMP JUMPDEST ISZERO PUSH2 0x509F JUMPI JUMP JUMPDEST PUSH1 0x40 MLOAD PUSH3 0x461BCD PUSH1 0xE5 SHL DUP2 MSTORE PUSH1 0x20 PUSH1 0x4 DUP3 ADD MSTORE PUSH1 0xF PUSH1 0x24 DUP3 ADD MSTORE PUSH15 0x496E76616C69642074727573746565 PUSH1 0x88 SHL PUSH1 0x44 DUP3 ADD MSTORE PUSH1 0x64 SWAP1 REVERT JUMPDEST ISZERO PUSH2 0x50DD JUMPI JUMP JUMPDEST PUSH1 0x40 MLOAD PUSH3 0x461BCD PUSH1 0xE5 SHL DUP2 MSTORE PUSH1 0x20 PUSH1 0x4 DUP3 ADD MSTORE PUSH1 0x17 PUSH1 0x24 DUP3 ADD MSTORE PUSH32 0x43616E6E6F74206170706F696E7420796F757273656C66000000000000000000 PUSH1 0x44 DUP3 ADD MSTORE PUSH1 0x64 SWAP1 REVERT JUMPDEST ISZERO PUSH2 0x5129 JUMPI JUMP JUMPDEST PUSH1 0x40 MLOAD PUSH3 0x461BCD PUSH1 0xE5 SHL DUP2 MSTORE PUSH1 0x20 PUSH1 0x4 DUP3 ADD MSTORE PUSH1 0x16 PUSH1 0x24 DUP3 ADD MSTORE PUSH22 0x151C9D5CDD1959481B9BDD081C9959DA5CDD195C9959 PUSH1 0x52 SHL PUSH1 0x44 DUP3 ADD MSTORE PUSH1 0x64 SWAP1 REVERT JUMPDEST PUSH1 0x1 PUSH1 0x1 PUSH1 0xA0 SHL SUB AND PUSH0 SWAP1 DUP2 MSTORE PUSH1 0x1 PUSH1 0x20 MSTORE PUSH1 0x40 SWAP1 KECCAK256 DUP1 SLOAD SWAP1 DUP2 ISZERO SWAP1 DUP2 ISZERO PUSH2 0x51E8 JUMPI JUMPDEST POP PUSH2 0x51E3 JUMPI PUSH0 MSTORE PUSH1 0x2 PUSH1 0x20 MSTORE PUSH1 0xFF PUSH1 0x40 PUSH0 KECCAK256 SLOAD AND PUSH2 0x51A7 DUP2 PUSH2 0x4942 JUMP JUMPDEST PUSH1 0x2 DUP2 EQ SWAP1 DUP2 ISZERO PUSH2 0x51CE JUMPI JUMPDEST DUP2 ISZERO PUSH2 0x51BD JUMPI POP SWAP1 JUMP JUMPDEST PUSH1 0x4 SWAP2 POP PUSH2 0x51CA DUP2 PUSH2 0x4942 JUMP JUMPDEST EQ SWAP1 JUMP JUMPDEST SWAP1 POP PUSH2 0x51D9 DUP2 PUSH2 0x4942 JUMP JUMPDEST PUSH1 0x3 DUP2 EQ SWAP1 PUSH2 0x51B3 JUMP JUMPDEST POP PUSH0 SWAP1 JUMP JUMPDEST PUSH1 0xFF SWAP2 POP PUSH1 0x1 ADD SLOAD AND ISZERO PUSH0 PUSH2 0x518A JUMP JUMPDEST PUSH1 0x1 PUSH1 0x1 PUSH1 0xA0 SHL SUB AND PUSH0 SWAP1 DUP2 MSTORE PUSH1 0x1 PUSH1 0x20 MSTORE PUSH1 0x40 SWAP1 KECCAK256 DUP1 SLOAD SWAP1 DUP2 ISZERO SWAP1 DUP2 ISZERO PUSH2 0x523A JUMPI JUMPDEST POP PUSH2 0x51E3 JUMPI PUSH0 MSTORE PUSH1 0x2 PUSH1 0x20 MSTORE PUSH1 0x4 PUSH1 0xFF PUSH1 0x40 PUSH0 KECCAK256 SLOAD AND PUSH2 0x51CA DUP2 PUSH2 0x4942 JUMP JUMPDEST PUSH1 0xFF SWAP2 POP PUSH1 0x1 ADD SLOAD AND ISZERO PUSH0 PUSH2 0x521B JUMP JUMPDEST PUSH1 0x20 DUP2 MLOAD SWAP2 ADD KECCAK256 PUSH2 0x5259 PUSH2 0x4C90 JUMP JUMPDEST PUSH1 0x20 DUP2 MLOAD SWAP2 ADD KECCAK256 DUP2 EQ SWAP1 DUP2 ISZERO PUSH2 0x52A9 JUMPI JUMPDEST DUP2 ISZERO PUSH2 0x5290 JUMPI JUMPDEST DUP2 ISZERO PUSH2 0x527B JUMPI POP SWAP1 JUMP JUMPDEST SWAP1 POP PUSH2 0x5285 PUSH2 0x4CFC JUMP JUMPDEST PUSH1 0x20 DUP2 MLOAD SWAP2 ADD KECCAK256 EQ SWAP1 JUMP JUMPDEST SWAP1 POP PUSH2 0x529A PUSH2 0x4CDA JUMP JUMPDEST PUSH1 0x20 DUP2 MLOAD SWAP2 ADD KECCAK256 DUP2 EQ SWAP1 PUSH2 0x5271 JUMP JUMPDEST SWAP1 POP PUSH2 0x52B3 PUSH2 0x4CB1 JUMP JUMPDEST PUSH1 0x20 DUP2 MLOAD SWAP2 ADD KECCAK256 DUP2 EQ SWAP1 PUSH2 0x526A JUMP JUMPDEST SWAP1 PUSH1 0x40 MLOAD SWAP1 PUSH1 0x20 DUP3 ADD SWAP3 DUP4 MSTORE PUSH1 0x40 DUP3 ADD MSTORE PUSH1 0x40 DUP2 MSTORE PUSH1 0x60 DUP2 ADD DUP2 DUP2 LT PUSH1 0x1 PUSH1 0x1 PUSH1 0x40 SHL SUB DUP3 GT OR PUSH2 0x4522 JUMPI PUSH1 0x40 MSTORE MLOAD SWAP1 KECCAK256 SWAP1 JUMP JUMPDEST PUSH1 0x20 SWAP3 SWAP2 PUSH2 0x5303 SWAP2 PUSH2 0x52C2 JUMP JUMPDEST PUSH0 MSTORE PUSH1 0x5 DUP3 MSTORE PUSH1 0x40 PUSH0 KECCAK256 PUSH1 0x40 MLOAD PUSH2 0x5319 DUP2 PUSH2 0x4507 JUMP JUMPDEST PUSH1 0xFF PUSH1 0x1 PUSH2 0x5326 DUP5 PUSH2 0x47FA JUMP JUMPDEST SWAP4 DUP5 DUP5 MSTORE ADD SLOAD AND ISZERO ISZERO SWAP4 DUP5 SWAP2 ADD MSTORE DUP3 PUSH2 0x533E JUMPI POP POP SWAP1 JUMP JUMPDEST SWAP1 SWAP2 POP PUSH1 0x20 DUP2 MLOAD SWAP2 ADD KECCAK256 SWAP1 PUSH1 0x20 DUP2 MLOAD SWAP2 ADD KECCAK256 EQ SWAP1 JUMP JUMPDEST PUSH1 0xA SLOAD PUSH1 0x1 PUSH1 0x1 PUSH1 0xA0 SHL SUB AND SWAP2 DUP3 ISZERO PUSH2 0x4D43 JUMPI PUSH1 0x44 PUSH1 0x20 SWAP3 PUSH1 0x40 MLOAD SWAP5 DUP6 SWAP4 DUP5 SWAP3 PUSH4 0x193D8E75 PUSH1 0xE2 SHL DUP5 MSTORE PUSH1 0x4 DUP5 ADD MSTORE PUSH1 0x24 DUP4 ADD MSTORE GAS STATICCALL SWAP1 DUP2 ISZERO PUSH2 0x53D3 JUMPI PUSH0 SWAP2 PUSH2 0x539B JUMPI POP SWAP1 JUMP JUMPDEST SWAP1 POP PUSH1 0x20 DUP2 RETURNDATASIZE PUSH1 0x20 GT PUSH2 0x53CB JUMPI JUMPDEST DUP2 PUSH2 0x53B6 PUSH1 0x20 SWAP4 DUP4 PUSH2 0x4551 JUMP JUMPDEST DUP2 ADD SUB SLT PUSH2 0x395 JUMPI MLOAD DUP1 ISZERO ISZERO DUP2 SUB PUSH2 0x395 JUMPI SWAP1 JUMP JUMPDEST RETURNDATASIZE SWAP2 POP PUSH2 0x53A9 JUMP JUMPDEST PUSH1 0x40 MLOAD RETURNDATASIZE PUSH0 DUP3 RETURNDATACOPY RETURNDATASIZE SWAP1 REVERT JUMPDEST SWAP2 SWAP3 PUSH32 0x3AF67CF2057BA8EF414286FB626CD3EFB02F74996E18EFD455B39D8EC7EC460F SWAP2 SWAP5 PUSH2 0x5438 PUSH2 0x542A SWAP3 PUSH2 0x5416 DUP9 DUP3 DUP10 DUP10 PUSH2 0x56B8 JUMP JUMPDEST PUSH1 0x40 MLOAD SWAP4 DUP5 SWAP4 PUSH1 0x60 DUP6 MSTORE PUSH1 0x60 DUP6 ADD SWAP1 PUSH2 0x489C JUMP JUMPDEST SWAP1 DUP4 DUP3 SUB PUSH1 0x20 DUP6 ADD MSTORE PUSH2 0x489C JUMP JUMPDEST TIMESTAMP PUSH1 0x40 DUP4 ADD MSTORE SUB SWAP1 LOG4 JUMP JUMPDEST DUP3 MLOAD PUSH1 0x20 DUP1 SWAP5 ADD KECCAK256 PUSH2 0x5453 PUSH2 0x4C90 JUMP JUMPDEST DUP1 MLOAD SWAP1 DUP6 ADD KECCAK256 DUP2 SUB PUSH2 0x5473 JUMPI POP PUSH2 0x483A SWAP3 PUSH1 0x6 SWAP2 PUSH0 MSTORE MSTORE PUSH1 0x40 PUSH0 KECCAK256 PUSH2 0x589A JUMP JUMPDEST PUSH2 0x547B PUSH2 0x4CB1 JUMP JUMPDEST DUP1 MLOAD SWAP1 DUP6 ADD KECCAK256 DUP2 SUB PUSH2 0x549B JUMPI POP PUSH2 0x483A SWAP3 PUSH1 0x7 SWAP2 PUSH0 MSTORE MSTORE PUSH1 0x40 PUSH0 KECCAK256 PUSH2 0x589A JUMP JUMPDEST PUSH2 0x54A3 PUSH2 0x4CDA JUMP JUMPDEST DUP1 MLOAD SWAP1 DUP6 ADD KECCAK256 DUP2 SUB PUSH2 0x54C3 JUMPI POP PUSH2 0x483A SWAP3 PUSH1 0x8 SWAP2 PUSH0 MSTORE MSTORE PUSH1 0x40 PUSH0 KECCAK256 PUSH2 0x589A JUMP JUMPDEST PUSH2 0x54CB PUSH2 0x4CFC JUMP JUMPDEST DUP5 DUP2 MLOAD SWAP2 ADD KECCAK256 EQ PUSH2 0x54DB JUMPI POP POP POP JUMP JUMPDEST PUSH2 0x483A SWAP3 PUSH1 0x9 SWAP2 PUSH0 MSTORE MSTORE PUSH1 0x40 PUSH0 KECCAK256 PUSH2 0x589A JUMP JUMPDEST SWAP2 SWAP3 PUSH2 0x54FB SWAP1 DUP3 DUP5 PUSH2 0x5983 JUMP JUMPDEST SWAP3 PUSH2 0x5505 DUP5 PUSH2 0x524A JUMP JUMPDEST ISZERO PUSH2 0x55D3 JUMPI PUSH2 0x5514 DUP3 DUP5 PUSH2 0x52C2 JUMP JUMPDEST PUSH0 MSTORE PUSH1 0x20 SWAP2 PUSH1 0x5 DUP4 MSTORE PUSH1 0x40 SWAP5 PUSH1 0xFF PUSH1 0x1 DUP8 PUSH0 KECCAK256 ADD SLOAD AND ISZERO PUSH2 0x55CB JUMPI PUSH2 0x5539 DUP4 DUP7 PUSH2 0x52C2 JUMP JUMPDEST PUSH0 MSTORE PUSH1 0x5 DUP5 MSTORE PUSH1 0xFF PUSH1 0x1 DUP8 PUSH0 KECCAK256 ADD SLOAD AND PUSH2 0x55CB JUMPI DUP2 PUSH2 0x5559 SWAP2 DUP5 DUP8 PUSH2 0x56B8 JUMP JUMPDEST DUP1 PUSH0 MSTORE PUSH1 0xF DUP4 MSTORE DUP5 PUSH0 KECCAK256 DUP3 PUSH0 MSTORE DUP4 MSTORE DUP5 PUSH0 KECCAK256 DUP5 PUSH0 MSTORE DUP4 MSTORE PUSH1 0xFF DUP6 PUSH0 KECCAK256 SLOAD AND ISZERO PUSH2 0x5584 JUMPI JUMPDEST POP POP POP POP POP JUMP JUMPDEST DUP1 PUSH0 MSTORE PUSH1 0xE DUP4 MSTORE DUP5 PUSH0 KECCAK256 DUP3 PUSH0 MSTORE DUP4 MSTORE PUSH2 0x559F DUP5 DUP7 PUSH0 KECCAK256 PUSH2 0x505C JUMP JUMPDEST PUSH0 MSTORE PUSH1 0xF DUP3 MSTORE DUP4 PUSH0 KECCAK256 SWAP1 PUSH0 MSTORE DUP2 MSTORE DUP3 PUSH0 KECCAK256 SWAP2 PUSH0 MSTORE MSTORE PUSH0 KECCAK256 PUSH1 0x1 PUSH1 0xFF NOT DUP3 SLOAD AND OR SWAP1 SSTORE PUSH0 DUP1 DUP1 DUP1 DUP1 PUSH2 0x557D JUMP JUMPDEST POP POP POP POP POP POP JUMP JUMPDEST POP POP POP POP JUMP JUMPDEST SWAP3 SWAP2 SWAP1 DUP4 PUSH0 MSTORE PUSH1 0x20 SWAP1 PUSH1 0xE DUP3 MSTORE PUSH1 0x40 SWAP1 PUSH1 0x40 PUSH0 KECCAK256 DUP2 PUSH0 MSTORE DUP4 MSTORE PUSH1 0x40 PUSH0 KECCAK256 SWAP6 PUSH0 JUMPDEST DUP8 SLOAD DUP2 LT ISZERO PUSH2 0x56A4 JUMPI DUP1 PUSH2 0x560F PUSH1 0x1 SWAP3 DUP11 PUSH2 0x4919 JUMP JUMPDEST SWAP1 SLOAD SWAP1 PUSH1 0x3 SHL SHR PUSH2 0x5620 DUP6 DUP3 PUSH2 0x52C2 JUMP JUMPDEST PUSH0 MSTORE PUSH1 0x5 DUP1 DUP9 MSTORE PUSH1 0xFF DUP5 DUP9 PUSH0 KECCAK256 ADD SLOAD AND ISZERO PUSH2 0x569D JUMPI PUSH2 0x5640 DUP10 DUP7 DUP5 PUSH2 0x5983 JUMP JUMPDEST SWAP1 PUSH2 0x564A DUP3 PUSH2 0x524A JUMP JUMPDEST ISZERO PUSH2 0x5695 JUMPI PUSH2 0x5659 DUP8 DUP5 PUSH2 0x52C2 JUMP JUMPDEST PUSH0 MSTORE DUP9 MSTORE PUSH2 0x5668 DUP8 PUSH0 KECCAK256 PUSH2 0x47FA JUMP JUMPDEST SWAP1 DUP7 DUP7 DUP4 MLOAD DUP12 DUP6 ADD KECCAK256 DUP4 MLOAD DUP13 DUP6 ADD KECCAK256 EQ PUSH2 0x568B JUMPI PUSH2 0x5685 SWAP5 PUSH2 0x53DE JUMP JUMPDEST ADD PUSH2 0x55F9 JUMP JUMPDEST POP POP POP POP POP PUSH2 0x5685 JUMP JUMPDEST POP POP POP PUSH2 0x5685 JUMP JUMPDEST POP POP PUSH2 0x5685 JUMP JUMPDEST POP POP POP POP POP POP SWAP1 POP JUMP JUMPDEST SWAP1 PUSH2 0x5017 SWAP2 PUSH2 0x52C2 JUMP JUMPDEST SWAP3 SWAP2 SWAP3 PUSH2 0x56C5 DUP3 DUP3 PUSH2 0x52C2 JUMP JUMPDEST SWAP4 DUP5 PUSH0 MSTORE PUSH1 0x20 PUSH1 0x5 DUP2 MSTORE PUSH1 0x40 SWAP1 DUP2 PUSH0 KECCAK256 SWAP7 PUSH2 0x56DF DUP9 PUSH2 0x47FA JUMP JUMPDEST SWAP8 PUSH1 0xFF PUSH1 0x1 DUP1 SWAP3 ADD SLOAD AND SWAP1 DUP5 MLOAD SWAP1 PUSH2 0x56F6 DUP3 PUSH2 0x4507 JUMP JUMPDEST DUP7 DUP3 MSTORE DUP5 DUP3 ADD DUP2 DUP2 MSTORE DUP5 PUSH0 MSTORE PUSH1 0x5 DUP7 MSTORE DUP7 PUSH0 KECCAK256 SWAP3 MLOAD DUP1 MLOAD SWAP1 PUSH1 0x1 PUSH1 0x1 PUSH1 0x40 SHL SUB DUP3 GT PUSH2 0x4522 JUMPI PUSH2 0x5726 DUP6 SLOAD PUSH2 0x47C2 JUMP JUMPDEST PUSH1 0x1F DUP2 GT PUSH2 0x5854 JUMPI JUMPDEST POP DUP8 SWAP1 PUSH1 0x1F DUP4 GT PUSH1 0x1 EQ PUSH2 0x5806 JUMPI PUSH2 0x5774 SWAP6 SWAP5 SWAP4 SWAP3 SWAP2 PUSH0 SWAP2 DUP4 PUSH2 0x2A09 JUMPI POP POP PUSH0 NOT PUSH1 0x3 DUP4 SWAP1 SHL SHR NOT AND SWAP1 DUP4 SHL OR DUP4 SSTORE MLOAD ISZERO ISZERO SWAP2 ADD SWAP1 PUSH1 0xFF DUP1 NOT DUP4 SLOAD AND SWAP2 ISZERO ISZERO AND OR SWAP1 SSTORE JUMP JUMPDEST PUSH2 0x57D2 JUMPI PUSH32 0xF9D17EB1340AB78960B594FF8BED1349985B800EE21199C6D5EA4A67454593AD SWAP5 SWAP6 SWAP7 SWAP8 POP PUSH0 MSTORE PUSH1 0xB DUP2 MSTORE DUP7 DUP3 PUSH0 KECCAK256 SSTORE PUSH2 0x57B4 DUP4 DUP8 DUP8 PUSH2 0x5A6F JUMP JUMPDEST PUSH2 0x57C7 DUP3 MLOAD SWAP4 DUP4 DUP6 SWAP5 DUP6 MSTORE DUP5 ADD SWAP1 PUSH2 0x489C JUMP JUMPDEST SWAP1 TIMESTAMP SWAP1 DUP4 ADD MSTORE SUB SWAP1 LOG4 JUMP JUMPDEST POP SWAP2 SWAP5 POP POP DUP5 MLOAD DUP2 DUP7 ADD KECCAK256 SWAP1 DUP5 MLOAD SWAP1 DUP6 ADD KECCAK256 SUB PUSH2 0x57EF JUMPI POP POP POP POP JUMP JUMPDEST PUSH2 0x2A04 PUSH2 0x57FD SWAP5 DUP4 DUP4 PUSH2 0x5443 JUMP JUMPDEST PUSH0 DUP1 DUP1 DUP1 PUSH2 0x55D3 JUMP JUMPDEST SWAP1 PUSH1 0x1F NOT DUP4 AND SWAP2 DUP7 PUSH0 MSTORE DUP10 PUSH0 KECCAK256 SWAP3 PUSH0 JUMPDEST DUP12 DUP3 DUP3 LT PUSH2 0x5840 JUMPI POP POP SWAP2 DUP7 SWAP6 SWAP5 SWAP3 SWAP2 DUP4 PUSH2 0x5774 SWAP10 SWAP9 SWAP6 SWAP4 LT PUSH2 0x2A4F JUMPI POP POP POP DUP2 SHL ADD DUP4 SSTORE PUSH2 0x2972 JUMP JUMPDEST DUP4 DUP6 ADD MLOAD DUP7 SSTORE SWAP5 DUP9 ADD SWAP5 SWAP4 DUP5 ADD SWAP4 ADD PUSH2 0x5816 JUMP JUMPDEST DUP6 PUSH0 MSTORE DUP9 PUSH0 KECCAK256 PUSH1 0x1F DUP5 ADD PUSH1 0x5 SHR DUP2 ADD SWAP2 DUP11 DUP6 LT PUSH2 0x5890 JUMPI JUMPDEST PUSH1 0x1F ADD PUSH1 0x5 SHR ADD SWAP1 DUP6 SWAP1 JUMPDEST DUP3 DUP2 LT PUSH2 0x5885 JUMPI POP POP PUSH2 0x572F JUMP JUMPDEST PUSH0 DUP2 SSTORE ADD DUP6 SWAP1 PUSH2 0x5877 JUMP JUMPDEST SWAP1 SWAP2 POP DUP2 SWAP1 PUSH2 0x586C JUMP JUMPDEST PUSH0 JUMPDEST DUP2 SLOAD SWAP1 DUP2 DUP2 LT ISZERO PUSH2 0x55D3 JUMPI DUP4 SWAP2 PUSH2 0x58B3 DUP3 DUP6 PUSH2 0x4919 JUMP JUMPDEST SWAP6 SWAP1 SLOAD PUSH1 0x3 SWAP7 DUP8 SHL SHR EQ PUSH2 0x58CD JUMPI POP SWAP1 SWAP3 POP PUSH1 0x1 ADD PUSH2 0x589C JUMP JUMPDEST PUSH0 NOT SWAP3 POP DUP3 DUP2 ADD SWAP1 DUP2 GT PUSH2 0x4EF7 JUMPI PUSH2 0x507E PUSH2 0x58EB PUSH2 0x58F8 SWAP3 DUP7 PUSH2 0x4919 JUMP JUMPDEST SWAP1 SLOAD SWAP1 DUP8 SHL SHR SWAP3 DUP6 PUSH2 0x4919 JUMP JUMPDEST SWAP1 SSTORE DUP2 SLOAD DUP1 ISZERO PUSH2 0x591D JUMPI DUP2 ADD SWAP3 PUSH2 0x590F DUP5 DUP5 PUSH2 0x4919 JUMP JUMPDEST DUP2 SWAP4 SWAP2 SLOAD SWAP3 SHL SHL NOT AND SWAP1 SSTORE SSTORE JUMP JUMPDEST PUSH4 0x4E487B71 PUSH1 0xE0 SHL PUSH0 MSTORE PUSH1 0x31 PUSH1 0x4 MSTORE PUSH1 0x24 PUSH0 REVERT JUMPDEST PUSH1 0x1 PUSH1 0x1 PUSH1 0xA0 SHL SUB AND PUSH0 SWAP1 DUP2 MSTORE PUSH1 0x1 PUSH1 0x20 MSTORE PUSH1 0x40 SWAP1 KECCAK256 DUP1 SLOAD SWAP1 DUP2 ISZERO SWAP1 DUP2 ISZERO PUSH2 0x5973 JUMPI JUMPDEST POP PUSH2 0x51E3 JUMPI PUSH0 MSTORE PUSH1 0x2 PUSH1 0x20 MSTORE PUSH1 0x3 PUSH1 0xFF PUSH1 0x40 PUSH0 KECCAK256 SLOAD AND PUSH2 0x51CA DUP2 PUSH2 0x4942 JUMP JUMPDEST PUSH1 0xFF SWAP2 POP PUSH1 0x1 ADD SLOAD AND ISZERO PUSH0 PUSH2 0x5954 JUMP JUMPDEST SWAP1 PUSH2 0x598D DUP4 PUSH2 0x4762 JUMP JUMPDEST DUP3 ISZERO PUSH2 0x5A64 JUMPI PUSH2 0x599C SWAP2 PUSH2 0x52C2 JUMP JUMPDEST PUSH0 MSTORE PUSH1 0x20 SWAP1 PUSH1 0x5 DUP3 MSTORE PUSH1 0x40 PUSH0 KECCAK256 PUSH1 0xFF PUSH1 0x1 PUSH1 0x40 MLOAD SWAP3 PUSH2 0x59BA DUP5 PUSH2 0x4507 JUMP JUMPDEST PUSH2 0x59C3 DUP2 PUSH2 0x47FA JUMP JUMPDEST DUP5 MSTORE ADD SLOAD AND ISZERO DUP1 ISZERO DUP5 DUP4 ADD MSTORE PUSH2 0x5A4E JUMPI MLOAD SWAP2 JUMPDEST DUP3 MLOAD DUP2 DUP5 ADD KECCAK256 SWAP2 PUSH2 0x59E5 PUSH2 0x4CDA JUMP JUMPDEST DUP3 DUP2 MLOAD SWAP2 ADD KECCAK256 DUP4 EQ DUP1 ISZERO PUSH2 0x5A38 JUMPI JUMPDEST PUSH2 0x5A2C JUMPI DUP1 PUSH2 0x5A04 PUSH1 0x1 SWAP3 PUSH2 0x4762 JUMP JUMPDEST EQ PUSH2 0x5A0E JUMPI POP POP SWAP1 JUMP JUMPDEST PUSH2 0x5A16 PUSH2 0x4C90 JUMP JUMPDEST DUP1 MLOAD SWAP2 ADD KECCAK256 EQ PUSH2 0x5A23 JUMPI SWAP1 JUMP JUMPDEST POP PUSH2 0x4649 PUSH2 0x4CB1 JUMP JUMPDEST POP POP POP POP PUSH2 0x4649 PUSH2 0x4CFC JUMP JUMPDEST POP PUSH2 0x5A41 PUSH2 0x4CFC JUMP JUMPDEST DUP3 DUP2 MLOAD SWAP2 ADD KECCAK256 DUP4 EQ PUSH2 0x59F4 JUMP JUMPDEST POP PUSH1 0x40 MLOAD PUSH2 0x5A5B DUP2 PUSH2 0x4536 JUMP JUMPDEST PUSH0 DUP2 MSTORE SWAP2 PUSH2 0x59D6 JUMP JUMPDEST POP POP POP PUSH2 0x4649 PUSH2 0x4CFC JUMP JUMPDEST DUP3 MLOAD PUSH1 0x20 DUP1 SWAP5 ADD KECCAK256 PUSH2 0x5A7F PUSH2 0x4C90 JUMP JUMPDEST DUP1 MLOAD SWAP1 DUP6 ADD KECCAK256 DUP2 SUB PUSH2 0x5A9F JUMPI POP PUSH2 0x483A SWAP3 PUSH1 0x6 SWAP2 PUSH0 MSTORE MSTORE PUSH1 0x40 PUSH0 KECCAK256 PUSH2 0x505C JUMP JUMPDEST PUSH2 0x5AA7 PUSH2 0x4CB1 JUMP JUMPDEST DUP1 MLOAD SWAP1 DUP6 ADD KECCAK256 DUP2 SUB PUSH2 0x5AC7 JUMPI POP PUSH2 0x483A SWAP3 PUSH1 0x7 SWAP2 PUSH0 MSTORE MSTORE PUSH1 0x40 PUSH0 KECCAK256 PUSH2 0x505C JUMP JUMPDEST PUSH2 0x5ACF PUSH2 0x4CDA JUMP JUMPDEST DUP1 MLOAD SWAP1 DUP6 ADD KECCAK256 DUP2 SUB PUSH2 0x5AEF JUMPI POP PUSH2 0x483A SWAP3 PUSH1 0x8 SWAP2 PUSH0 MSTORE MSTORE PUSH1 0x40 PUSH0 KECCAK256 PUSH2 0x505C JUMP JUMPDEST PUSH2 0x5AF7 PUSH2 0x4CFC JUMP JUMPDEST DUP5 DUP2 MLOAD SWAP2 ADD KECCAK256 EQ PUSH2 0x5B07 JUMPI POP POP POP JUMP JUMPDEST PUSH2 0x483A SWAP3 PUSH1 0x9 SWAP2 PUSH0 MSTORE MSTORE PUSH1 0x40 PUSH0 KECCAK256 PUSH2 0x505C JUMP JUMPDEST SWAP1 PUSH0 DUP1 SWAP2 PUSH1 0x20 DUP2 MLOAD SWAP2 ADD DUP5 GAS DELEGATECALL DUP1 DUP1 PUSH2 0x5B98 JUMPI JUMPDEST ISZERO PUSH2 0x5B4E JUMPI POP POP PUSH1 0x40 MLOAD RETURNDATASIZE DUP2 MSTORE RETURNDATASIZE PUSH0 PUSH1 0x20 DUP4 ADD RETURNDATACOPY PUSH1 0x20 RETURNDATASIZE DUP3 ADD ADD PUSH1 0x40 MSTORE SWAP1 JUMP JUMPDEST ISZERO PUSH2 0x5B75 JUMPI PUSH1 0x40 MLOAD PUSH4 0x9996B315 PUSH1 0xE0 SHL DUP2 MSTORE PUSH1 0x1 PUSH1 0x1 PUSH1 0xA0 SHL SUB SWAP1 SWAP2 AND PUSH1 0x4 DUP3 ADD MSTORE PUSH1 0x24 SWAP1 REVERT JUMPDEST RETURNDATASIZE ISZERO PUSH2 0x5B86 JUMPI PUSH1 0x40 MLOAD RETURNDATASIZE PUSH0 DUP3 RETURNDATACOPY RETURNDATASIZE SWAP1 REVERT JUMPDEST PUSH1 0x40 MLOAD PUSH4 0xD6BDA275 PUSH1 0xE0 SHL DUP2 MSTORE PUSH1 0x4 SWAP1 REVERT JUMPDEST POP RETURNDATASIZE ISZERO ISZERO DUP1 PUSH2 0x5B2E JUMPI POP DUP2 EXTCODESIZE ISZERO ISZERO PUSH2 0x5B2E JUMP INVALID 0xD0 MCOPY 0xD2 0xD3 INVALID SELFDESTRUCT DUP5 0xC 0x2E 0xCE 0xCA PUSH18 0x791388FD3D19DBBBBCFA97031F534A7DC09F 0xBF 0x1F 0x4F PUSH15 0x6C79206F776E65727320616E642061 PUSH5 0x6D696E6973 PUSH21 0x7261746F72732063A2646970667358221220FD5289 0xEB 0xD9 DUP5 ORIGIN PUSH32 0xC58D9F5F7555A009E3771CD17307B9FB4788BABD6757E5B264736F6C63430008 XOR STOP CALLER "},"methodIdentifiers":{"UPGRADE_INTERFACE_VERSION()":"ad3cb1cc","acceptTrustee(bytes32)":"b8cab84b","addMember(address,bytes32)":"49df7208","addMemberBatch(address[],bytes32)":"69ac2022","admin()":"f851a440","adminsByRecord(bytes32,uint256)":"8776cd35","bootstrapDependentTrustee(bytes32,bytes32)":"e6efcd5d","changeRole(bytes32,address,string)":"29c9087a","changeRoleBatch(bytes32[],address,string[])":"51eed472","deactivateWallet(address)":"0b3ffd1d","declineTrustee(bytes32)":"f76794f1","downgradeTrusteeLevel(bytes32,uint8)":"4d3c4a7c","extendTrusteeGrantsOnAnchor(bytes32,bytes32)":"30d7265c","getAllRecordParticipants(bytes32)":"78ad8f5b","getHealthRecordCore()":"e94ed257","getRecordAdmins(bytes32)":"41a51baa","getRecordOwners(bytes32)":"c36dc9ef","getRecordRoleStats(bytes32)":"8db7edb4","getRecordSharers(bytes32)":"2ab5d8f3","getRecordViewers(bytes32)":"033e822f","getRoleDetails(bytes32,address)":"422a5bb8","getRoleDetailsByUser(bytes32,bytes32)":"43e19704","getRoleGranter(bytes32,bytes32)":"aaddc345","getTotalUsers()":"9be572f6","getTrusteeGrantedRecords(bytes32,bytes32)":"c497d840","getTrusteeRelationship(bytes32,bytes32)":"9915b91f","getTrusteesForTrustor(bytes32)":"d1f616dd","getUserForWallet(address)":"00b0c809","getUserStatus(bytes32)":"f29e007b","getVouchStatus(bytes32,bytes32)":"0a296a7b","getVouchesGiven(bytes32)":"8806e591","getVouchesReceived(bytes32)":"f50936c9","getWalletsForUser(bytes32)":"d12a7768","giveVouch(bytes32)":"db54f7b7","grantRole(bytes32,address,string)":"dde492ea","grantRoleBatch(bytes32[],address,string[])":"02ba8109","hasActiveRole(bytes32,address)":"c88c35fe","hasRole(bytes32,address,string)":"3befa410","hasVouched(bytes32,bytes32)":"dff1bea0","healthRecordCore()":"562c788e","initialize()":"8129fc1c","initializeRecordRole(bytes32,address,string)":"726d5447","isActiveMember(address)":"45ecd02f","isActiveSubject(bytes32,bytes32)":"64f639d4","isControllerOf(bytes32,bytes32)":"557ee54f","isOwnerOrAdmin(bytes32,address)":"0519e2a0","isVerifiedMember(address)":"cb261a03","isVerifiedProvider(address)":"259ed80e","ownersByRecord(bytes32,uint256)":"55816079","proposeTrustee(bytes32,uint8,bytes32[])":"dc9f9664","proxiableUUID()":"52d1902d","reactivateWallet(address)":"bb0f86d5","recordRoles(bytes32)":"33105592","retractVouch(bytes32)":"73c19c8d","revokeRole(bytes32,address)":"d547741f","revokeRoleBatch(bytes32[],address)":"f12b9ad3","revokeTrustee(bytes32,bytes32)":"c979c9bf","roleGrantedBy(bytes32)":"cda06c6e","setHealthRecordCore(address)":"c7155823","setUserStatus(bytes32,uint8)":"96207e02","sharersByRecord(bytes32,uint256)":"f32b10f0","totalUsers()":"bff1f9e1","transferAdmin(address)":"75829def","trusteeRelationships(bytes32,bytes32)":"7b657d07","trusteesByTrustor(bytes32,uint256)":"fdd9887e","updateTrusteeLevel(bytes32,uint8)":"ab48384a","upgradeToAndCall(address,bytes)":"4f1ef286","userStatus(bytes32)":"6b4bed97","userWallets(bytes32,uint256)":"9443cd80","viewersByRecord(bytes32,uint256)":"93ccfba8","voluntarilyLeaveOwnership(bytes32)":"2ae8511d","vouches(bytes32,bytes32)":"fc78f177","vouchesGiven(bytes32,uint256)":"68309c89","vouchesReceived(bytes32,uint256)":"96a03f8d","wallets(address)":"89b08f11"}},"storageLayout":{"storage":[{"astId":4273,"contract":"smartContracts/MemberRoleManager.sol:MemberRoleManager","label":"admin","offset":0,"slot":"0","type":"t_address"},{"astId":4465,"contract":"smartContracts/MemberRoleManager.sol:MemberRoleManager","label":"wallets","offset":0,"slot":"1","type":"t_mapping(t_address,t_struct(UserInfo)4460_storage)"},{"astId":4470,"contract":"smartContracts/MemberRoleManager.sol:MemberRoleManager","label":"userStatus","offset":0,"slot":"2","type":"t_mapping(t_bytes32,t_enum(MemberStatus)4425)"},{"astId":4475,"contract":"smartContracts/MemberRoleManager.sol:MemberRoleManager","label":"userWallets","offset":0,"slot":"3","type":"t_mapping(t_bytes32,t_array(t_address)dyn_storage)"},{"astId":4477,"contract":"smartContracts/MemberRoleManager.sol:MemberRoleManager","label":"totalUsers","offset":0,"slot":"4","type":"t_uint256"},{"astId":5107,"contract":"smartContracts/MemberRoleManager.sol:MemberRoleManager","label":"recordRoles","offset":0,"slot":"5","type":"t_mapping(t_bytes32,t_struct(RecordRole)5102_storage)"},{"astId":5112,"contract":"smartContracts/MemberRoleManager.sol:MemberRoleManager","label":"ownersByRecord","offset":0,"slot":"6","type":"t_mapping(t_bytes32,t_array(t_bytes32)dyn_storage)"},{"astId":5117,"contract":"smartContracts/MemberRoleManager.sol:MemberRoleManager","label":"adminsByRecord","offset":0,"slot":"7","type":"t_mapping(t_bytes32,t_array(t_bytes32)dyn_storage)"},{"astId":5122,"contract":"smartContracts/MemberRoleManager.sol:MemberRoleManager","label":"sharersByRecord","offset":0,"slot":"8","type":"t_mapping(t_bytes32,t_array(t_bytes32)dyn_storage)"},{"astId":5127,"contract":"smartContracts/MemberRoleManager.sol:MemberRoleManager","label":"viewersByRecord","offset":0,"slot":"9","type":"t_mapping(t_bytes32,t_array(t_bytes32)dyn_storage)"},{"astId":5130,"contract":"smartContracts/MemberRoleManager.sol:MemberRoleManager","label":"healthRecordCore","offset":0,"slot":"10","type":"t_contract(HealthRecordCoreInterface)4264"},{"astId":5134,"contract":"smartContracts/MemberRoleManager.sol:MemberRoleManager","label":"roleGrantedBy","offset":0,"slot":"11","type":"t_mapping(t_bytes32,t_bytes32)"},{"astId":7081,"contract":"smartContracts/MemberRoleManager.sol:MemberRoleManager","label":"trusteeRelationships","offset":0,"slot":"12","type":"t_mapping(t_bytes32,t_mapping(t_bytes32,t_struct(TrusteeRelationship)7074_storage))"},{"astId":7086,"contract":"smartContracts/MemberRoleManager.sol:MemberRoleManager","label":"trusteesByTrustor","offset":0,"slot":"13","type":"t_mapping(t_bytes32,t_array(t_bytes32)dyn_storage)"},{"astId":7093,"contract":"smartContracts/MemberRoleManager.sol:MemberRoleManager","label":"_trusteeGrantedRecords","offset":0,"slot":"14","type":"t_mapping(t_bytes32,t_mapping(t_bytes32,t_array(t_bytes32)dyn_storage))"},{"astId":7101,"contract":"smartContracts/MemberRoleManager.sol:MemberRoleManager","label":"_trusteeGrantedRecordSet","offset":0,"slot":"15","type":"t_mapping(t_bytes32,t_mapping(t_bytes32,t_mapping(t_bytes32,t_bool)))"},{"astId":9225,"contract":"smartContracts/MemberRoleManager.sol:MemberRoleManager","label":"vouches","offset":0,"slot":"16","type":"t_mapping(t_bytes32,t_mapping(t_bytes32,t_enum(VouchStatus)9202))"},{"astId":9230,"contract":"smartContracts/MemberRoleManager.sol:MemberRoleManager","label":"vouchesGiven","offset":0,"slot":"17","type":"t_mapping(t_bytes32,t_array(t_bytes32)dyn_storage)"},{"astId":9235,"contract":"smartContracts/MemberRoleManager.sol:MemberRoleManager","label":"vouchesReceived","offset":0,"slot":"18","type":"t_mapping(t_bytes32,t_array(t_bytes32)dyn_storage)"},{"astId":9459,"contract":"smartContracts/MemberRoleManager.sol:MemberRoleManager","label":"__gap","offset":0,"slot":"19","type":"t_array(t_uint256)50_storage"}],"types":{"t_address":{"encoding":"inplace","label":"address","numberOfBytes":"20"},"t_array(t_address)dyn_storage":{"base":"t_address","encoding":"dynamic_array","label":"address[]","numberOfBytes":"32"},"t_array(t_bytes32)dyn_storage":{"base":"t_bytes32","encoding":"dynamic_array","label":"bytes32[]","numberOfBytes":"32"},"t_array(t_uint256)50_storage":{"base":"t_uint256","encoding":"inplace","label":"uint256[50]","numberOfBytes":"1600"},"t_bool":{"encoding":"inplace","label":"bool","numberOfBytes":"1"},"t_bytes32":{"encoding":"inplace","label":"bytes32","numberOfBytes":"32"},"t_contract(HealthRecordCoreInterface)4264":{"encoding":"inplace","label":"contract HealthRecordCoreInterface","numberOfBytes":"20"},"t_enum(MemberStatus)4425":{"encoding":"inplace","label":"enum MemberRoleManager.MemberStatus","numberOfBytes":"1"},"t_enum(TrusteeLevel)7061":{"encoding":"inplace","label":"enum MemberRoleManager.TrusteeLevel","numberOfBytes":"1"},"t_enum(TrusteeStatus)7067":{"encoding":"inplace","label":"enum MemberRoleManager.TrusteeStatus","numberOfBytes":"1"},"t_enum(VouchStatus)9202":{"encoding":"inplace","label":"enum MemberRoleManager.VouchStatus","numberOfBytes":"1"},"t_mapping(t_address,t_struct(UserInfo)4460_storage)":{"encoding":"mapping","key":"t_address","label":"mapping(address => struct MemberRoleManager.UserInfo)","numberOfBytes":"32","value":"t_struct(UserInfo)4460_storage"},"t_mapping(t_bytes32,t_array(t_address)dyn_storage)":{"encoding":"mapping","key":"t_bytes32","label":"mapping(bytes32 => address[])","numberOfBytes":"32","value":"t_array(t_address)dyn_storage"},"t_mapping(t_bytes32,t_array(t_bytes32)dyn_storage)":{"encoding":"mapping","key":"t_bytes32","label":"mapping(bytes32 => bytes32[])","numberOfBytes":"32","value":"t_array(t_bytes32)dyn_storage"},"t_mapping(t_bytes32,t_bool)":{"encoding":"mapping","key":"t_bytes32","label":"mapping(bytes32 => bool)","numberOfBytes":"32","value":"t_bool"},"t_mapping(t_bytes32,t_bytes32)":{"encoding":"mapping","key":"t_bytes32","label":"mapping(bytes32 => bytes32)","numberOfBytes":"32","value":"t_bytes32"},"t_mapping(t_bytes32,t_enum(MemberStatus)4425)":{"encoding":"mapping","key":"t_bytes32","label":"mapping(bytes32 => enum MemberRoleManager.MemberStatus)","numberOfBytes":"32","value":"t_enum(MemberStatus)4425"},"t_mapping(t_bytes32,t_enum(VouchStatus)9202)":{"encoding":"mapping","key":"t_bytes32","label":"mapping(bytes32 => enum MemberRoleManager.VouchStatus)","numberOfBytes":"32","value":"t_enum(VouchStatus)9202"},"t_mapping(t_bytes32,t_mapping(t_bytes32,t_array(t_bytes32)dyn_storage))":{"encoding":"mapping","key":"t_bytes32","label":"mapping(bytes32 => mapping(bytes32 => bytes32[]))","numberOfBytes":"32","value":"t_mapping(t_bytes32,t_array(t_bytes32)dyn_storage)"},"t_mapping(t_bytes32,t_mapping(t_bytes32,t_bool))":{"encoding":"mapping","key":"t_bytes32","label":"mapping(bytes32 => mapping(bytes32 => bool))","numberOfBytes":"32","value":"t_mapping(t_bytes32,t_bool)"},"t_mapping(t_bytes32,t_mapping(t_bytes32,t_enum(VouchStatus)9202))":{"encoding":"mapping","key":"t_bytes32","label":"mapping(bytes32 => mapping(bytes32 => enum MemberRoleManager.VouchStatus))","numberOfBytes":"32","value":"t_mapping(t_bytes32,t_enum(VouchStatus)9202)"},"t_mapping(t_bytes32,t_mapping(t_bytes32,t_mapping(t_bytes32,t_bool)))":{"encoding":"mapping","key":"t_bytes32","label":"mapping(bytes32 => mapping(bytes32 => mapping(bytes32 => bool)))","numberOfBytes":"32","value":"t_mapping(t_bytes32,t_mapping(t_bytes32,t_bool))"},"t_mapping(t_bytes32,t_mapping(t_bytes32,t_struct(TrusteeRelationship)7074_storage))":{"encoding":"mapping","key":"t_bytes32","label":"mapping(bytes32 => mapping(bytes32 => struct MemberRoleManager.TrusteeRelationship))","numberOfBytes":"32","value":"t_mapping(t_bytes32,t_struct(TrusteeRelationship)7074_storage)"},"t_mapping(t_bytes32,t_struct(RecordRole)5102_storage)":{"encoding":"mapping","key":"t_bytes32","label":"mapping(bytes32 => struct MemberRoleManager.RecordRole)","numberOfBytes":"32","value":"t_struct(RecordRole)5102_storage"},"t_mapping(t_bytes32,t_struct(TrusteeRelationship)7074_storage)":{"encoding":"mapping","key":"t_bytes32","label":"mapping(bytes32 => struct MemberRoleManager.TrusteeRelationship)","numberOfBytes":"32","value":"t_struct(TrusteeRelationship)7074_storage"},"t_string_storage":{"encoding":"bytes","label":"string","numberOfBytes":"32"},"t_struct(RecordRole)5102_storage":{"encoding":"inplace","label":"struct MemberRoleManager.RecordRole","members":[{"astId":5099,"contract":"smartContracts/MemberRoleManager.sol:MemberRoleManager","label":"role","offset":0,"slot":"0","type":"t_string_storage"},{"astId":5101,"contract":"smartContracts/MemberRoleManager.sol:MemberRoleManager","label":"isActive","offset":0,"slot":"1","type":"t_bool"}],"numberOfBytes":"64"},"t_struct(TrusteeRelationship)7074_storage":{"encoding":"inplace","label":"struct MemberRoleManager.TrusteeRelationship","members":[{"astId":7070,"contract":"smartContracts/MemberRoleManager.sol:MemberRoleManager","label":"status","offset":0,"slot":"0","type":"t_enum(TrusteeStatus)7067"},{"astId":7073,"contract":"smartContracts/MemberRoleManager.sol:MemberRoleManager","label":"level","offset":1,"slot":"0","type":"t_enum(TrusteeLevel)7061"}],"numberOfBytes":"32"},"t_struct(UserInfo)4460_storage":{"encoding":"inplace","label":"struct MemberRoleManager.UserInfo","members":[{"astId":4457,"contract":"smartContracts/MemberRoleManager.sol:MemberRoleManager","label":"userIdHash","offset":0,"slot":"0","type":"t_bytes32"},{"astId":4459,"contract":"smartContracts/MemberRoleManager.sol:MemberRoleManager","label":"isWalletActive","offset":0,"slot":"1","type":"t_bool"}],"numberOfBytes":"64"},"t_uint256":{"encoding":"inplace","label":"uint256","numberOfBytes":"32"}}}}}}