{"smartContracts/MemberRoleManager.sol":{"MemberRoleManager":{"abi":[{"inputs":[],"stateMutability":"nonpayable","type":"constructor"},{"inputs":[{"internalType":"address","name":"target","type":"address"}],"name":"AddressEmptyCode","type":"error"},{"inputs":[{"internalType":"address","name":"implementation","type":"address"}],"name":"ERC1967InvalidImplementation","type":"error"},{"inputs":[],"name":"ERC1967NonPayable","type":"error"},{"inputs":[],"name":"FailedCall","type":"error"},{"inputs":[],"name":"InvalidInitialization","type":"error"},{"inputs":[],"name":"NotInitializing","type":"error"},{"inputs":[],"name":"UUPSUnauthorizedCallContext","type":"error"},{"inputs":[{"internalType":"bytes32","name":"slot","type":"bytes32"}],"name":"UUPSUnsupportedProxiableUUID","type":"error"},{"anonymous":false,"inputs":[{"indexed":true,"internalType":"address","name":"oldAdmin","type":"address"},{"indexed":true,"internalType":"address","name":"newAdmin","type":"address"},{"indexed":false,"internalType":"uint256","name":"timestamp","type":"uint256"}],"name":"AdminTransferred","type":"event"},{"anonymous":false,"inputs":[{"indexed":true,"internalType":"address","name":"newAddress","type":"address"},{"indexed":false,"internalType":"uint256","name":"timestamp","type":"uint256"}],"name":"HealthRecordCoreUpdated","type":"event"},{"anonymous":false,"inputs":[{"indexed":false,"internalType":"uint64","name":"version","type":"uint64"}],"name":"Initialized","type":"event"},{"anonymous":false,"inputs":[{"indexed":true,"internalType":"address","name":"wallet","type":"address"},{"indexed":true,"internalType":"bytes32","name":"userIdHash","type":"bytes32"},{"indexed":false,"internalType":"uint256","name":"timestamp","type":"uint256"}],"name":"MemberRegistered","type":"event"},{"anonymous":false,"inputs":[{"indexed":true,"internalType":"bytes32","name":"userIdHash","type":"bytes32"},{"indexed":false,"internalType":"enum MemberRoleManager.MemberStatus","name":"oldStatus","type":"uint8"},{"indexed":false,"internalType":"enum MemberRoleManager.MemberStatus","name":"newStatus","type":"uint8"},{"indexed":true,"internalType":"address","name":"changedBy","type":"address"},{"indexed":false,"internalType":"uint256","name":"timestamp","type":"uint256"}],"name":"MemberStatusChanged","type":"event"},{"anonymous":false,"inputs":[{"indexed":true,"internalType":"bytes32","name":"recordIdHash","type":"bytes32"},{"indexed":true,"internalType":"bytes32","name":"userIdHash","type":"bytes32"},{"indexed":false,"internalType":"uint256","name":"timestamp","type":"uint256"}],"name":"OwnershipVoluntarilyLeft","type":"event"},{"anonymous":false,"inputs":[{"indexed":true,"internalType":"bytes32","name":"recordIdHash","type":"bytes32"},{"indexed":true,"internalType":"bytes32","name":"targetIdHash","type":"bytes32"},{"indexed":false,"internalType":"string","name":"oldRole","type":"string"},{"indexed":false,"internalType":"string","name":"newRole","type":"string"},{"indexed":true,"internalType":"bytes32","name":"userIdHash","type":"bytes32"},{"indexed":false,"internalType":"uint256","name":"timestamp","type":"uint256"}],"name":"RoleChanged","type":"event"},{"anonymous":false,"inputs":[{"indexed":true,"internalType":"bytes32","name":"recordIdHash","type":"bytes32"},{"indexed":true,"internalType":"bytes32","name":"targetIdHash","type":"bytes32"},{"indexed":false,"internalType":"string","name":"role","type":"string"},{"indexed":true,"internalType":"bytes32","name":"userIdHash","type":"bytes32"},{"indexed":false,"internalType":"uint256","name":"timestamp","type":"uint256"}],"name":"RoleGranted","type":"event"},{"anonymous":false,"inputs":[{"indexed":true,"internalType":"bytes32","name":"recordIdHash","type":"bytes32"},{"indexed":true,"internalType":"bytes32","name":"targetIdHash","type":"bytes32"},{"indexed":false,"internalType":"string","name":"role","type":"string"},{"indexed":true,"internalType":"bytes32","name":"userIdHash","type":"bytes32"},{"indexed":false,"internalType":"uint256","name":"timestamp","type":"uint256"}],"name":"RoleRevoked","type":"event"},{"anonymous":false,"inputs":[{"indexed":true,"internalType":"bytes32","name":"trustorIdHash","type":"bytes32"},{"indexed":true,"internalType":"bytes32","name":"trusteeIdHash","type":"bytes32"},{"indexed":false,"internalType":"enum MemberRoleManager.TrusteeLevel","name":"level","type":"uint8"},{"indexed":false,"internalType":"uint256","name":"timestamp","type":"uint256"}],"name":"TrusteeAccepted","type":"event"},{"anonymous":false,"inputs":[{"indexed":true,"internalType":"bytes32","name":"trustorIdHash","type":"bytes32"},{"indexed":true,"internalType":"bytes32","name":"trusteeIdHash","type":"bytes32"},{"indexed":false,"internalType":"uint256","name":"timestamp","type":"uint256"}],"name":"TrusteeDeclined","type":"event"},{"anonymous":false,"inputs":[{"indexed":true,"internalType":"bytes32","name":"trustorIdHash","type":"bytes32"},{"indexed":true,"internalType":"bytes32","name":"trusteeIdHash","type":"bytes32"},{"indexed":false,"internalType":"enum MemberRoleManager.TrusteeLevel","name":"oldLevel","type":"uint8"},{"indexed":false,"internalType":"enum MemberRoleManager.TrusteeLevel","name":"newLevel","type":"uint8"},{"indexed":false,"internalType":"uint256","name":"timestamp","type":"uint256"}],"name":"TrusteeLevelUpdated","type":"event"},{"anonymous":false,"inputs":[{"indexed":true,"internalType":"bytes32","name":"trustorIdHash","type":"bytes32"},{"indexed":true,"internalType":"bytes32","name":"trusteeIdHash","type":"bytes32"},{"indexed":false,"internalType":"enum MemberRoleManager.TrusteeLevel","name":"level","type":"uint8"},{"indexed":false,"internalType":"uint256","name":"timestamp","type":"uint256"}],"name":"TrusteeProposed","type":"event"},{"anonymous":false,"inputs":[{"indexed":true,"internalType":"bytes32","name":"trustorIdHash","type":"bytes32"},{"indexed":true,"internalType":"bytes32","name":"trusteeIdHash","type":"bytes32"},{"indexed":true,"internalType":"bytes32","name":"revokedBy","type":"bytes32"},{"indexed":false,"internalType":"uint256","name":"timestamp","type":"uint256"}],"name":"TrusteeRevoked","type":"event"},{"anonymous":false,"inputs":[{"indexed":true,"internalType":"address","name":"implementation","type":"address"}],"name":"Upgraded","type":"event"},{"anonymous":false,"inputs":[{"indexed":true,"internalType":"address","name":"wallet","type":"address"},{"indexed":true,"internalType":"bytes32","name":"userIdHash","type":"bytes32"},{"indexed":false,"internalType":"uint256","name":"timestamp","type":"uint256"}],"name":"WalletLinked","type":"event"},{"inputs":[],"name":"UPGRADE_INTERFACE_VERSION","outputs":[{"internalType":"string","name":"","type":"string"}],"stateMutability":"view","type":"function"},{"inputs":[{"internalType":"bytes32","name":"trustorIdHash","type":"bytes32"}],"name":"acceptTrustee","outputs":[],"stateMutability":"nonpayable","type":"function"},{"inputs":[{"internalType":"address","name":"wallet","type":"address"},{"internalType":"bytes32","name":"userIdHash","type":"bytes32"}],"name":"addMember","outputs":[],"stateMutability":"nonpayable","type":"function"},{"inputs":[{"internalType":"address[]","name":"walletAddresses","type":"address[]"},{"internalType":"bytes32","name":"userIdHash","type":"bytes32"}],"name":"addMemberBatch","outputs":[],"stateMutability":"nonpayable","type":"function"},{"inputs":[],"name":"admin","outputs":[{"internalType":"address","name":"","type":"address"}],"stateMutability":"view","type":"function"},{"inputs":[{"internalType":"bytes32","name":"","type":"bytes32"},{"internalType":"uint256","name":"","type":"uint256"}],"name":"adminsByRecord","outputs":[{"internalType":"bytes32","name":"","type":"bytes32"}],"stateMutability":"view","type":"function"},{"inputs":[{"internalType":"bytes32","name":"trustorIdHash","type":"bytes32"},{"internalType":"bytes32","name":"trusteeIdHash","type":"bytes32"}],"name":"bootstrapDependentTrustee","outputs":[],"stateMutability":"nonpayable","type":"function"},{"inputs":[{"internalType":"bytes32","name":"recordIdHash","type":"bytes32"},{"internalType":"address","name":"targetWallet","type":"address"},{"internalType":"string","name":"newRole","type":"string"}],"name":"changeRole","outputs":[],"stateMutability":"nonpayable","type":"function"},{"inputs":[{"internalType":"bytes32[]","name":"recordIdHashes","type":"bytes32[]"},{"internalType":"address","name":"targetWallet","type":"address"},{"internalType":"string[]","name":"newRoles","type":"string[]"}],"name":"changeRoleBatch","outputs":[],"stateMutability":"nonpayable","type":"function"},{"inputs":[{"internalType":"address","name":"wallet","type":"address"}],"name":"deactivateWallet","outputs":[],"stateMutability":"nonpayable","type":"function"},{"inputs":[{"internalType":"bytes32","name":"trustorIdHash","type":"bytes32"}],"name":"declineTrustee","outputs":[],"stateMutability":"nonpayable","type":"function"},{"inputs":[{"internalType":"bytes32","name":"trustorIdHash","type":"bytes32"},{"internalType":"enum MemberRoleManager.TrusteeLevel","name":"newLevel","type":"uint8"}],"name":"downgradeTrusteeLevel","outputs":[],"stateMutability":"nonpayable","type":"function"},{"inputs":[{"internalType":"bytes32","name":"recordIdHash","type":"bytes32"}],"name":"getAllRecordParticipants","outputs":[{"internalType":"bytes32[]","name":"owners","type":"bytes32[]"},{"internalType":"bytes32[]","name":"admins","type":"bytes32[]"},{"internalType":"bytes32[]","name":"sharers","type":"bytes32[]"},{"internalType":"bytes32[]","name":"viewers","type":"bytes32[]"}],"stateMutability":"view","type":"function"},{"inputs":[],"name":"getHealthRecordCore","outputs":[{"internalType":"address","name":"","type":"address"}],"stateMutability":"view","type":"function"},{"inputs":[{"internalType":"bytes32","name":"recordIdHash","type":"bytes32"}],"name":"getRecordAdmins","outputs":[{"internalType":"bytes32[]","name":"","type":"bytes32[]"}],"stateMutability":"view","type":"function"},{"inputs":[{"internalType":"bytes32","name":"recordIdHash","type":"bytes32"}],"name":"getRecordOwners","outputs":[{"internalType":"bytes32[]","name":"","type":"bytes32[]"}],"stateMutability":"view","type":"function"},{"inputs":[{"internalType":"bytes32","name":"recordIdHash","type":"bytes32"}],"name":"getRecordRoleStats","outputs":[{"internalType":"uint256","name":"ownerCount","type":"uint256"},{"internalType":"uint256","name":"adminCount","type":"uint256"},{"internalType":"uint256","name":"sharerCount","type":"uint256"},{"internalType":"uint256","name":"viewerCount","type":"uint256"}],"stateMutability":"view","type":"function"},{"inputs":[{"internalType":"bytes32","name":"recordIdHash","type":"bytes32"}],"name":"getRecordSharers","outputs":[{"internalType":"bytes32[]","name":"","type":"bytes32[]"}],"stateMutability":"view","type":"function"},{"inputs":[{"internalType":"bytes32","name":"recordIdHash","type":"bytes32"}],"name":"getRecordViewers","outputs":[{"internalType":"bytes32[]","name":"","type":"bytes32[]"}],"stateMutability":"view","type":"function"},{"inputs":[{"internalType":"bytes32","name":"userIdHash","type":"bytes32"}],"name":"getRecordsByUser","outputs":[{"internalType":"bytes32[]","name":"","type":"bytes32[]"}],"stateMutability":"view","type":"function"},{"inputs":[{"internalType":"bytes32","name":"recordIdHash","type":"bytes32"},{"internalType":"address","name":"wallet","type":"address"}],"name":"getRoleDetails","outputs":[{"internalType":"string","name":"role","type":"string"},{"internalType":"bool","name":"isActive","type":"bool"}],"stateMutability":"view","type":"function"},{"inputs":[{"internalType":"bytes32","name":"recordIdHash","type":"bytes32"},{"internalType":"bytes32","name":"userIdHash","type":"bytes32"}],"name":"getRoleDetailsByUser","outputs":[{"internalType":"string","name":"role","type":"string"},{"internalType":"bool","name":"isActive","type":"bool"}],"stateMutability":"view","type":"function"},{"inputs":[{"internalType":"bytes32","name":"recordIdHash","type":"bytes32"},{"internalType":"bytes32","name":"userIdHash","type":"bytes32"}],"name":"getRoleGranter","outputs":[{"internalType":"bytes32","name":"","type":"bytes32"}],"stateMutability":"view","type":"function"},{"inputs":[],"name":"getTotalRoles","outputs":[{"internalType":"uint256","name":"","type":"uint256"}],"stateMutability":"view","type":"function"},{"inputs":[],"name":"getTotalUsers","outputs":[{"internalType":"uint256","name":"","type":"uint256"}],"stateMutability":"view","type":"function"},{"inputs":[{"internalType":"bytes32","name":"trustorIdHash","type":"bytes32"},{"internalType":"bytes32","name":"trusteeIdHash","type":"bytes32"}],"name":"getTrusteeGrantedRecords","outputs":[{"internalType":"bytes32[]","name":"","type":"bytes32[]"}],"stateMutability":"view","type":"function"},{"inputs":[{"internalType":"bytes32","name":"trustorIdHash","type":"bytes32"},{"internalType":"bytes32","name":"trusteeIdHash","type":"bytes32"}],"name":"getTrusteeRelationship","outputs":[{"internalType":"enum MemberRoleManager.TrusteeStatus","name":"status","type":"uint8"},{"internalType":"enum MemberRoleManager.TrusteeLevel","name":"level","type":"uint8"}],"stateMutability":"view","type":"function"},{"inputs":[{"internalType":"address","name":"wallet","type":"address"}],"name":"getUserForWallet","outputs":[{"internalType":"bytes32","name":"","type":"bytes32"}],"stateMutability":"view","type":"function"},{"inputs":[{"internalType":"bytes32","name":"userIdHash","type":"bytes32"}],"name":"getUserStatus","outputs":[{"internalType":"enum MemberRoleManager.MemberStatus","name":"status","type":"uint8"}],"stateMutability":"view","type":"function"},{"inputs":[{"internalType":"bytes32","name":"userIdHash","type":"bytes32"}],"name":"getWalletsForUser","outputs":[{"internalType":"address[]","name":"","type":"address[]"}],"stateMutability":"view","type":"function"},{"inputs":[{"internalType":"bytes32","name":"recordIdHash","type":"bytes32"},{"internalType":"address","name":"targetWallet","type":"address"},{"internalType":"string","name":"role","type":"string"}],"name":"grantRole","outputs":[],"stateMutability":"nonpayable","type":"function"},{"inputs":[{"internalType":"bytes32[]","name":"recordIdHashes","type":"bytes32[]"},{"internalType":"address","name":"targetWallet","type":"address"},{"internalType":"string[]","name":"roles","type":"string[]"}],"name":"grantRoleBatch","outputs":[],"stateMutability":"nonpayable","type":"function"},{"inputs":[{"internalType":"bytes32","name":"recordIdHash","type":"bytes32"},{"internalType":"address","name":"wallet","type":"address"}],"name":"hasActiveRole","outputs":[{"internalType":"bool","name":"","type":"bool"}],"stateMutability":"view","type":"function"},{"inputs":[{"internalType":"bytes32","name":"recordIdHash","type":"bytes32"},{"internalType":"address","name":"wallet","type":"address"},{"internalType":"string","name":"role","type":"string"}],"name":"hasRole","outputs":[{"internalType":"bool","name":"","type":"bool"}],"stateMutability":"view","type":"function"},{"inputs":[],"name":"healthRecordCore","outputs":[{"internalType":"contract HealthRecordCoreInterface","name":"","type":"address"}],"stateMutability":"view","type":"function"},{"inputs":[],"name":"initialize","outputs":[],"stateMutability":"nonpayable","type":"function"},{"inputs":[{"internalType":"bytes32","name":"recordIdHash","type":"bytes32"},{"internalType":"address","name":"targetWallet","type":"address"},{"internalType":"string","name":"role","type":"string"}],"name":"initializeRecordRole","outputs":[],"stateMutability":"nonpayable","type":"function"},{"inputs":[{"internalType":"address","name":"wallet","type":"address"}],"name":"isActiveMember","outputs":[{"internalType":"bool","name":"","type":"bool"}],"stateMutability":"view","type":"function"},{"inputs":[{"internalType":"bytes32","name":"recordIdHash","type":"bytes32"},{"internalType":"bytes32","name":"userIdHash","type":"bytes32"}],"name":"isActiveSubject","outputs":[{"internalType":"bool","name":"","type":"bool"}],"stateMutability":"view","type":"function"},{"inputs":[{"internalType":"bytes32","name":"trustorIdHash","type":"bytes32"},{"internalType":"bytes32","name":"trusteeIdHash","type":"bytes32"}],"name":"isControllerOf","outputs":[{"internalType":"bool","name":"","type":"bool"}],"stateMutability":"view","type":"function"},{"inputs":[{"internalType":"bytes32","name":"recordIdHash","type":"bytes32"},{"internalType":"address","name":"wallet","type":"address"}],"name":"isOwnerOrAdmin","outputs":[{"internalType":"bool","name":"","type":"bool"}],"stateMutability":"view","type":"function"},{"inputs":[{"internalType":"address","name":"wallet","type":"address"}],"name":"isVerifiedMember","outputs":[{"internalType":"bool","name":"","type":"bool"}],"stateMutability":"view","type":"function"},{"inputs":[{"internalType":"address","name":"wallet","type":"address"}],"name":"isVerifiedProvider","outputs":[{"internalType":"bool","name":"","type":"bool"}],"stateMutability":"view","type":"function"},{"inputs":[{"internalType":"bytes32","name":"","type":"bytes32"},{"internalType":"uint256","name":"","type":"uint256"}],"name":"ownersByRecord","outputs":[{"internalType":"bytes32","name":"","type":"bytes32"}],"stateMutability":"view","type":"function"},{"inputs":[{"internalType":"bytes32","name":"trusteeIdHash","type":"bytes32"},{"internalType":"enum MemberRoleManager.TrusteeLevel","name":"level","type":"uint8"},{"internalType":"bytes32[]","name":"recordIdHashes","type":"bytes32[]"}],"name":"proposeTrustee","outputs":[],"stateMutability":"nonpayable","type":"function"},{"inputs":[],"name":"proxiableUUID","outputs":[{"internalType":"bytes32","name":"","type":"bytes32"}],"stateMutability":"view","type":"function"},{"inputs":[{"internalType":"address","name":"wallet","type":"address"}],"name":"reactivateWallet","outputs":[],"stateMutability":"nonpayable","type":"function"},{"inputs":[{"internalType":"bytes32","name":"","type":"bytes32"}],"name":"recordRoles","outputs":[{"internalType":"string","name":"role","type":"string"},{"internalType":"bool","name":"isActive","type":"bool"}],"stateMutability":"view","type":"function"},{"inputs":[{"internalType":"bytes32","name":"","type":"bytes32"},{"internalType":"uint256","name":"","type":"uint256"}],"name":"recordsByUser","outputs":[{"internalType":"bytes32","name":"","type":"bytes32"}],"stateMutability":"view","type":"function"},{"inputs":[{"internalType":"bytes32","name":"recordIdHash","type":"bytes32"},{"internalType":"address","name":"targetWallet","type":"address"}],"name":"revokeRole","outputs":[],"stateMutability":"nonpayable","type":"function"},{"inputs":[{"internalType":"bytes32[]","name":"recordIdHashes","type":"bytes32[]"},{"internalType":"address","name":"targetWallet","type":"address"}],"name":"revokeRoleBatch","outputs":[],"stateMutability":"nonpayable","type":"function"},{"inputs":[{"internalType":"bytes32","name":"trustorIdHash","type":"bytes32"},{"internalType":"bytes32","name":"trusteeIdHash","type":"bytes32"}],"name":"revokeTrustee","outputs":[],"stateMutability":"nonpayable","type":"function"},{"inputs":[{"internalType":"bytes32","name":"","type":"bytes32"}],"name":"roleGrantedBy","outputs":[{"internalType":"bytes32","name":"","type":"bytes32"}],"stateMutability":"view","type":"function"},{"inputs":[{"internalType":"address","name":"_healthRecordCore","type":"address"}],"name":"setHealthRecordCore","outputs":[],"stateMutability":"nonpayable","type":"function"},{"inputs":[{"internalType":"bytes32","name":"userIdHash","type":"bytes32"},{"internalType":"enum MemberRoleManager.MemberStatus","name":"newStatus","type":"uint8"}],"name":"setUserStatus","outputs":[],"stateMutability":"nonpayable","type":"function"},{"inputs":[{"internalType":"bytes32","name":"","type":"bytes32"},{"internalType":"uint256","name":"","type":"uint256"}],"name":"sharersByRecord","outputs":[{"internalType":"bytes32","name":"","type":"bytes32"}],"stateMutability":"view","type":"function"},{"inputs":[],"name":"totalRoles","outputs":[{"internalType":"uint256","name":"","type":"uint256"}],"stateMutability":"view","type":"function"},{"inputs":[],"name":"totalUsers","outputs":[{"internalType":"uint256","name":"","type":"uint256"}],"stateMutability":"view","type":"function"},{"inputs":[{"internalType":"address","name":"newAdmin","type":"address"}],"name":"transferAdmin","outputs":[],"stateMutability":"nonpayable","type":"function"},{"inputs":[{"internalType":"bytes32","name":"","type":"bytes32"},{"internalType":"bytes32","name":"","type":"bytes32"}],"name":"trusteeRelationships","outputs":[{"internalType":"enum MemberRoleManager.TrusteeStatus","name":"status","type":"uint8"},{"internalType":"enum MemberRoleManager.TrusteeLevel","name":"level","type":"uint8"}],"stateMutability":"view","type":"function"},{"inputs":[{"internalType":"bytes32","name":"trusteeIdHash","type":"bytes32"},{"internalType":"enum MemberRoleManager.TrusteeLevel","name":"newLevel","type":"uint8"}],"name":"updateTrusteeLevel","outputs":[],"stateMutability":"nonpayable","type":"function"},{"inputs":[{"internalType":"address","name":"newImplementation","type":"address"},{"internalType":"bytes","name":"data","type":"bytes"}],"name":"upgradeToAndCall","outputs":[],"stateMutability":"payable","type":"function"},{"inputs":[{"internalType":"bytes32","name":"","type":"bytes32"}],"name":"userStatus","outputs":[{"internalType":"enum MemberRoleManager.MemberStatus","name":"","type":"uint8"}],"stateMutability":"view","type":"function"},{"inputs":[{"internalType":"bytes32","name":"","type":"bytes32"},{"internalType":"uint256","name":"","type":"uint256"}],"name":"userWallets","outputs":[{"internalType":"address","name":"","type":"address"}],"stateMutability":"view","type":"function"},{"inputs":[{"internalType":"bytes32","name":"","type":"bytes32"},{"internalType":"uint256","name":"","type":"uint256"}],"name":"viewersByRecord","outputs":[{"internalType":"bytes32","name":"","type":"bytes32"}],"stateMutability":"view","type":"function"},{"inputs":[{"internalType":"bytes32","name":"recordIdHash","type":"bytes32"}],"name":"voluntarilyLeaveOwnership","outputs":[],"stateMutability":"nonpayable","type":"function"},{"inputs":[{"internalType":"address","name":"","type":"address"}],"name":"wallets","outputs":[{"internalType":"bytes32","name":"userIdHash","type":"bytes32"},{"internalType":"bool","name":"isWalletActive","type":"bool"}],"stateMutability":"view","type":"function"}],"evm":{"bytecode":{"linkReferences":{},"object":"60a08060405234620000d157306080527ff0c57e16840df040f15088dc2f81fe391c3923bec73e23a9662efc9c229c6a009081549060ff8260401c16620000c257506001600160401b036002600160401b0319828216016200007c575b6040516155b99081620000d68239608051818181612b460152612f860152f35b6001600160401b031990911681179091556040519081527fc7f505b2f371ae2175ee4913f4499e1f2633a7b5936321eed1cdaeb6115181d290602090a15f80806200005c565b63f92ee8a960e01b8152600490fd5b5f80fdfe6080604090808252600480361015610015575f80fd5b5f3560e01c918262b0c80914613f6c5750816302ba810914613e98578163033e822f14613e6f5781630519e2a014613e495781630b3ffd1d14613d8c578163259ed80e14613d6757816329c9087a1461364f5781632ab5d8f3146136265781632ae8511d146134a9578163331055921461346c5781633befa4101461345157816341a51baa14613428578163422a5bb8146133f457816343e19704146133a257816345ecd02f1461338257816349df7208146132425781634b6feb7c146123a05781634d3c4a7c146131335781634f1ef28614612f3657816351eed47214612baa57816352d1902d14612b33578163557ee54f14612a995781635581607914612a69578163562c788e1461078957816364f639d414612a4e5781636544b05b14612a2557816369ac2022146128325781636b4bed9714610590578163726d5447146124e057816375829def1461246257816378ad8f5b146123be578163790e118c146123a05781637b657d07146123565781638129fc1c146122395781638776cd351461220957816389b08f11146121c45781638db7edb41461217557816393ccfba8146121455781639443cd80146120ff57816396207e0214611fbb5781639915b91f14611f305781639be572f614611c0c578163aaddc34514611f04578163ab48384a14611dff578163ad3cb1cc14611dbb578163b8cab84b14611cdf578163bb0f86d514611c28578163bff1f9e114611c0c578163c36dc9ef14611be3578163c497d84014611b9d578163c715582314611b21578163c88c35fe14611afb578163c979c9bf1461186c578163cb261a031461183e578163cda06c6e14611817578163d12a776814611768578163d547741f146112a5578163dc9f966414610fdb578163dde492ea146109f6578163e6efcd5d146107b1578163e94ed25714610789578163f12b9ad3146105c3578163f29e007b14610590578163f32b10f014610560578163f76794f11461036857508063f851a440146103415763fa7a6bcc14610300575f80fd5b3461033d5761030e3661438b565b91905f52600a602052805f20805483101561033d5760209261032f916143c0565b91905490519160031b1c8152f35b5f80fd5b503461033d575f36600319011261033d575f5490516001600160a01b039091168152602090f35b823461033d576020918260031936011261033d5780359261039061038b33614c16565b614414565b335f52600193848252835f205492815f52600e8352845f20845f528352845f209081549160ff918860ff85166103c5816143e9565b0361051d5760ff1980941617905584837fc1f9bda0602b12c2f11218f87531038a6957666101c4faad39c882dcc5093dc6868951428152a3825f52600f8452855f20855f528452855f20875f905b610435575b610433888888885f52600f8152825f20915f52525f20614adb565b005b815481101561051857908882888a61045084989796866143c0565b90549060031b1c895f5260108b52815f20835f528b52815f20815f528b52815f208881541690556104818382614d71565b5f528a60058082528887855f200154161561050e578493600d5f80516020615564833981519152936104b38787614d71565b93845f528082526104c5845f2061428b565b946104d1868a8a614ef2565b5f52815289835f20018d8154169055525f818120558d6104fa825193838594855284019061432d565b9042908301520390a45b0190919293610413565b5050505050610504565b610418565b875162461bcd60e51b8152908101869052601e60248201527f4e6f2070656e64696e672070726f706f73616c20746f206465636c696e6500006044820152606490fd5b823461033d5761056f3661438b565b91905f526008602052805f20805483101561033d5760209261032f916143c0565b823461033d57602036600319011261033d57602091355f526002825260ff815f2054169051906105bf816143e9565b8152f35b823461033d578060031936011261033d5781356001600160401b03811161033d576105f1903690840161404e565b916105fa613fb6565b61060661038b33614c16565b6001600160a01b03169081156107555750335f52600192839260209060018252805f2054935f52805f20549261063d84151561449b565b5f955b61064657005b805186101561043357868661066686610660849a86614a40565b51615072565b1561075057610679876106608386614a40565b156107505786866106948161068e8588614a40565b51614d71565b805f5260058089526106a7885f2061428b565b9182518a8401206106b6614735565b8b815191012014610746576106d5846106cf888b614a40565b51614e03565b610746576106ee83856106e8898c614a40565b51614ef2565b5f52885284875f200160ff198154169055600d88525f878120555f805160206155648339815191526107366107238689614a40565b519289519182918b83528b83019061432d565b428c8301520390a45b0195610640565b505050505061073f565b61073f565b606490602084519162461bcd60e51b8352820152600e60248201526d125b9d985b1a59081dd85b1b195d60921b6044820152fd5b823461033d575f36600319011261033d57600c5490516001600160a01b039091168152602090f35b823461033d576107c03661438b565b916107d560018060a01b035f54163314614586565b81156109c2576107e6831515614b0b565b6107f283831415614b49565b815f526002602081815260ff835f20541661080c816143e9565b1561098757845f5281815261083160ff845f20541661082a816143e9565b1515614b95565b835f52600e8152825f20855f52815260ff835f205416610850816143e9565b8015908115610973575b501561092257825161086b81613fcc565b828152818101838152855f52600e8352845f20875f52835261089a855f209251610894816143e9565b83614976565b5196600388101561090f57507fc5b2e1bd4433eb4e9e181cc803520513d39d918c96bddeebca1224e1c750963d9495966108d3916149fc565b85857f494d010fdf588a0e83d626ea6963187bdda6f88b7007f7bf280683d3f7dea8348580518681524286820152a382519182524290820152a3005b602190634e487b7160e01b5f525260245ffd5b8560849184519162461bcd60e51b8352820152602660248201527f52656c6174696f6e7368697020616c726561647920616374697665206f722070604482015265656e64696e6760d01b6064820152fd5b60039150610980816143e9565b148761085a565b8560649184519162461bcd60e51b83528201526016602482015275151c9d5cdd1bdc881b9bdd081c9959da5cdd195c995960521b6044820152fd5b5162461bcd60e51b8152602081850152600f60248201526e24b73b30b634b2103a393ab9ba37b960891b6044820152606490fd5b90503461033d57610a0636614211565b919290610a1561038b33614c16565b610a20841515614603565b6001600160a01b031692610a3584151561464f565b610a46610a4184614cf9565b61469b565b335f5260209160018352855f2054945f52855f205492610a6784151561449b565b845181860120610a778785614d71565b5f526005825260ff6001895f2001541615610f9a57835f5260068252875f2054151590610aac610aa5614735565b8987614da5565b91610abf610ab8614756565b8a88614da5565b91610ad2610acb61477f565b8b89614da5565b90610add8b89614e03565b90610ae6614735565b8051908801208103610c26575050505f14610bcc575015610b8a575b610b0c8484614d71565b5f526005815260ff6001885f20015416610b2c575050610433945061507c565b865162461bcd60e51b815291820152603360248201527f54617267657420616c726561647920686173206120726f6c652e2055736520636044820152721a185b99d9549bdb194a0a481a5b9cdd195859606a1b606482015260849150fd5b865162461bcd60e51b815291820181905260248201527f4f6e6c79206f776e6572732063616e206772616e74206f776e657220726f6c65604482015260649150fd5b9050610b0257865162461bcd60e51b815291820152602960248201527f4f6e6c792061646d696e6973747261746f72732063616e206772616e742066696044820152683939ba1037bbb732b960b91b606482015260849150fd5b90919250610c32614756565b8051908701208103610cc4575050508115610cbc575b5015610c54575b610b02565b865162461bcd60e51b815291820152603b60248201527f4f6e6c79206f776e65727320616e642061646d696e6973747261746f7273206360448201527f616e206772616e742061646d696e6973747261746f7220726f6c650000000000606482015260849150fd5b90505f610c48565b610ccf94929461477f565b8051908701208103610e28575081159182610e21575b8015610e1a575b8015610e13575b15610d9a578315610d92575b5082610d8a575b5081610d81575b5015610b0257610d1d8684615339565b51610c4f57865162461bcd60e51b815291820152603460248201527f4d757374206861766520616e2061637469766520726f6c6520746f206772616e6044820152737420736861726572207065726d697373696f6e7360601b606482015260849150fd5b9050155f610d0d565b91505f610d06565b92505f610cff565b8a5162461bcd60e51b8152808701869052604760248201527f4f6e6c79206f776e6572732c2061646d696e6973747261746f72732c2073686160448201527f726572732c206f72207375626a656374732063616e206772616e742073686172606482015266657220726f6c6560c81b608482015260a490fd5b5080610cf3565b5083610cec565b5082610ce5565b610e306147a1565b86815191012014610e45575b50505050610b02565b81159182610f93575b8015610f8c575b8015610f85575b15610f0c578315610f04575b5082610efc575b5081610ef3575b50610e85575b5f808080610e3c565b610e8f8684615339565b51610e7c57865162461bcd60e51b815291820152603460248201527f4d757374206861766520616e2061637469766520726f6c6520746f206772616e6044820152737420766965776572207065726d697373696f6e7360601b606482015260849150fd5b9050155f610e76565b91505f610e6f565b92505f610e68565b8a5162461bcd60e51b8152808701869052604760248201527f4f6e6c79206f776e6572732c2061646d696e6973747261746f72732c2073686160448201527f726572732c206f72207375626a656374732063616e206772616e742076696577606482015266657220726f6c6560c81b608482015260a490fd5b5080610e5c565b5083610e55565b5082610e4e565b60648383808b519262461bcd60e51b845283015260248201527f596f752068617665206e6f20726f6c6520666f722074686973207265636f72646044820152fd5b823461033d57606036600319011261033d57813590602435600381101561033d576044356001600160401b03811161033d5761101a903690860161404e565b61102661038b33614c16565b335f52600193602091858352845f2054611041831515614b0b565b61104d83821415614b49565b825f526002845260ff9161106a60ff885f20541661082a816143e9565b815f52600e8552865f20845f52855260ff875f205416611089816143e9565b89811591821561128d575b8215611279575b5050156112285786516110ad81613fcc565b8881528581016110bd8882614a54565b835f52600e8752885f20865f5287526110dd895f209251610894816143e9565b519960038b101561090f575088996110f4916149fc565b83827f494d010fdf588a0e83d626ea6963187bdda6f88b7007f7bf280683d3f7dea834898051611124818c614407565b428a820152a35f975b61113357005b8051881015610433578888611149829a84614a40565b516111558986836152e3565b61115e81614cf9565b156112215761116d8683614d71565b5f526005808a5287858d5f20015416156112195761118b8984614d71565b5f5289528587858d5f20015416611219576111a791898461507c565b845f5260108089528a5f20885f5289528a5f20825f528952868b5f205416156111d5575b50505b019761112d565b855f52600f89528a5f20885f5289526111f0828c5f20614bda565b855f528852895f20875f528852895f20905f528752885f208260ff198254161790558b806111cb565b5050506111ce565b50506111ce565b865162461bcd60e51b8152808a01869052602560248201527f50726f706f73616c20616c726561647920657869737473206f722069732070656044820152646e64696e6760d81b6064820152608490fd5b909150611285816143e9565b14898b61109b565b80925061129a91506143e9565b896003821491611094565b823461033d578060031936011261033d5781356112c0613fb6565b6112cb821515614603565b6001600160a01b0316926112e084151561464f565b335f5260209260018452805f2054945f52805f20549361130185151561449b565b61130b8585614d71565b805f526005825261132460ff6001855f200154166146dd565b805f5260058252611336835f2061428b565b93845183860120611345614735565b84815191012081146116f15761135b8888614e03565b61166257878903611469575b61136f614756565b848151910120146113d4575b50908392916113995f80516020615564833981519152958888614ef2565b5f52600581526001825f200160ff198154169055600d81525f828120556113c9825193838594855284019061432d565b9042908301520390a4005b855f52600783526001845f20541160068452845f205415158115611461575b5061137b57835162461bcd60e51b8152908101839052603960248201527f43616e6e6f74207265766f6b65206c6173742061646d696e6973747261746f7260448201527f20776974686f757420616e206f776e65722070726573656e74000000000000006064820152608490fd5b9050896113f3565b61147b611474614735565b8a89614da5565b61148d611486614756565b8b8a614da5565b845f52600d86528a875f205414906114a36147a1565b8781519101208414801561164c575b1561155e578215611556575b50811561154e575b50156114d2575b611367565b845162461bcd60e51b8152808301859052604a60248201527f4f6e6c79206f776e6572732c2061646d696e6973747261746f72732c206f722060448201527f746865206772616e7465722063616e207265766f6b65207669657765722f73686064820152696172657220726f6c657360b01b608482015260a490fd5b90508a6114c6565b91508b6114be565b821592915082611644575b50156115e957156113675761157c614756565b84815191012081036114cd57865f5260068452845f2054156114cd57845162461bcd60e51b8152808301859052602560248201527f4f6e6c79206f776e6572732063616e207265766f6b652061646d696e6973747260448201526461746f727360d81b6064820152608490fd5b855162461bcd60e51b8152808401869052602f60248201527f4f6e6c79206f776e65727320616e642061646d696e6973747261746f7273206360448201526e616e207265766f6b6520726f6c657360881b6064820152608490fd5b90508b611569565b5061165561477f565b87815191012084146114b2565b845162461bcd60e51b8152808301859052605760248201527f43616e6e6f74207265766f6b6520616e20616374697665207375626a6563742760448201527f7320726f6c652e20416374697665207375626a65637473206d75737420686f6c60648201527f64206174206c656173742073686172657220726f6c652e000000000000000000608482015260a490fd5b845162461bcd60e51b8152808301859052604560248201527f4f776e6572732063616e6e6f74206265207265766f6b65642e204f776e65722060448201527f6d7573742075736520766f6c756e746172696c794c656176654f776e6572736860648201526434b814149760d91b608482015260a490fd5b90503461033d576020908160031936011261033d578290355f5260038252805f208151928381835491828152019081935f52825f20905f5b8181106117fa57505050846117b6910385614016565b825181815293518185018190528493840192915f5b8281106117da57505050500390f35b83516001600160a01b0316855286955093810193928101926001016117cb565b82546001600160a01b0316845292840192600192830192016117a0565b823461033d57602036600319011261033d57602091355f52600d8252805f20549051908152f35b823461033d57602036600319011261033d5760209061186361185e613fa0565b615291565b90519015158152f35b823461033d5761187b3661438b565b909261188961038b33614c16565b335f52600193602091858352845f2054908282148015611af2575b15611ab157825f52600e8452855f20855f52845260ff9060ff875f2054166118cb816143e9565b8860028214918215611a9d575b505015611a505750825f52600e8452855f20855f528452855f2090600360ff19926003848254161790558387867f6df3a6475fab2eed139f7e469995b04e85bfc5b4b8642587109cb72541f74fae898c51428152a4845f52600f8652875f20875f528652875f20895f905b611963575b6104338a8a8a8a5f52600f8152825f20915f52525f20614adb565b8154811015611a4b57908a82878b8d8c611982869c9b9a9998886143c0565b905490891b1c918d5f5260108252805f20845f528252805f20835f528252805f208b81541690556119b38484614d71565b5f526005908183528a88825f2001541615611a40575f80516020615564833981519152926119e18686614d71565b92835f528082526119f3835f2061428b565b936119ff858989614ef2565b5f52815288825f20018d8154169055600d81525f82812055611a2a825193838594855284019061432d565b9042908301520390a45b01909192939495611943565b505050505050611a34565b611948565b865162461bcd60e51b8152908101859052602160248201527f4e6f20616374697665206f722070656e64696e672072656c6174696f6e7368696044820152600760fc1b6064820152608490fd5b909150611aa9816143e9565b14888a6118d8565b606490848088519262461bcd60e51b845283015260248201527f4e6f74206120706172747920746f20746869732072656c6174696f6e736869706044820152fd5b508482146118a4565b823461033d578060031936011261033d57611863602092611b1a613fb6565b9035614a9e565b823461033d57602036600319011261033d577fce59ad7d6dabe8a7533ed7d9bd07d276a046ac7ac9a8e8e8971da4b81104a28b6020611b5e613fa0565b5f546001600160a01b039190611b779083163314614586565b1692611b84841515614a60565b600c80546001600160a01b0319168517905551428152a2005b823461033d57611bdf90611bb03661438b565b905f52600f602052815f20905f52602052611bcc815f206144e7565b90519182916020835260208301906141de565b0390f35b823461033d57602036600319011261033d57611bdf91355f526006602052611bcc815f206144e7565b823461033d575f36600319011261033d57602091549051908152f35b90503461033d57602036600319011261033d57611c43613fa0565b5f546001600160a01b039190611c5c9083163314614586565b16805f5260019182602052611c75845f205415156145bf565b815f528260205260ff83855f20015416611ca457509181925f52816020525f20019060ff198254161790555f80f35b606490602085519162461bcd60e51b8352820152601560248201527457616c6c657420616c72656164792061637469766560581b6044820152fd5b823461033d576020908160031936011261033d57823591611d0261038b33614c16565b335f5260018152815f205493835f52600e8252825f20855f528252825f2090815490600160ff8316611d33816143e9565b03611d82575091611d7a60ff9260027fc5b2e1bd4433eb4e9e181cc803520513d39d918c96bddeebca1224e1c750963d969585191617809155845193849160081c16614407565b4290820152a3005b845162461bcd60e51b81529081018490526013602482015272139bc81c195b991a5b99c81c1c9bdc1bdcd85b606a1b6044820152606490fd5b823461033d575f36600319011261033d578051611bdf91611ddb82613fcc565b60058252640352e302e360dc1b60208301525191829160208352602083019061432d565b90503461033d57611e0f366143a1565b91611e1c61038b33614c16565b335f526001602052835f205490815f52600e602052845f20835f52602052845f2060ff8154611e586002838316611e52816143e9565b146149b0565b60081c1691600386101561090f57600383101561090f57858314611ec157507fb36ec3c738ef8ecd9180addc815304762374b76e91c2a321831d9906ea119ade611eb9859361043398611eac8988966149fc565b5191829189429184614a1b565b0390a3614f9d565b606490602088519162461bcd60e51b8352820152601860248201527f416c72656164792074686973207472757374206c6576656c00000000000000006044820152fd5b823461033d57602090611f1f611f193661438b565b90614d71565b5f52600d8252805f20549051908152f35b90503461033d57611f403661438b565b905f52600e602052825f20905f52602052815f2090825191611f6183613fcc565b549160ff8316611f70816143e9565b8152611f8660ff602083019460081c1684614a54565b5191611f91836143e9565b5190600382101561090f5750611fb990835192611fad816143e9565b83526020830190614407565bf35b823461033d578060031936011261033d57813590602435600581101561033d57611fef60018060a01b035f54163314614586565b825f5260206002815260ff835f205416612008816143e9565b156120c757835f526002815260ff835f20541694612025836143e9565b61202e866143e9565b8286146120905750835f526002815261204982845f20614976565b825194612055816143e9565b8552612060826143e9565b84015242908301527ff6277c6ee46649823db9a5c531db3112b4340c67179cae1932ba3420dcc37cc760603393a3005b60649184519162461bcd60e51b83528201526013602482015272416c726561647920746869732073746174757360681b6044820152fd5b8460649184519162461bcd60e51b83528201526013602482015272155cd95c881b9bdd081c9959da5cdd195c9959606a1b6044820152fd5b823461033d5761210e3661438b565b91905f526003602052805f20805483101561033d5760209261212f916143c0565b60018060a01b0391549060031b1c169051908152f35b823461033d576121543661438b565b91905f526009602052805f20805483101561033d5760209261032f916143c0565b823461033d5760208060031936011261033d57608092355f5260068152815f20549160078252805f20549060088352805f20549160098452815f20549382519586528501528301526060820152f35b823461033d57602036600319011261033d576001600160a01b036121e6613fa0565b165f526001602052805f2060ff6001825492015416825191825215156020820152f35b823461033d576122183661438b565b91905f526007602052805f20805483101561033d5760209261032f916143c0565b90503461033d575f36600319011261033d577ff0c57e16840df040f15088dc2f81fe391c3923bec73e23a9662efc9c229c6a0090815460ff81851c1615916001600160401b0382168015908161234e575b6001149081612344575b15908161233b575b5061232d575067ffffffffffffffff19811660011783558161230e575b505f80546001600160a01b031916331790556122d157005b805468ff00000000000000001916905551600181527fc7f505b2f371ae2175ee4913f4499e1f2633a7b5936321eed1cdaeb6115181d290602090a1005b68ffffffffffffffffff1916680100000000000000011782555f6122b9565b845163f92ee8a960e01b8152fd5b9050155f61229c565b303b159150612294565b84915061228a565b823461033d576123653661438b565b905f52600e602052815f20905f52602052805f2054611fb960ff82169183519261238e816143e9565b835260ff602084019160081c16614407565b823461033d575f36600319011261033d57602090600b549051908152f35b823461033d576020918260031936011261033d5761243a92611bdf91355f5260068152612454835f209360078352805f209460088452612447825f20946009815261242661242061241a612414875f20966144e7565b9a6144e7565b976144e7565b936144e7565b958451998a9960808b5260808b01906141de565b91898303908a01526141de565b91868303908701526141de565b9083820360608501526141de565b823461033d57602036600319011261033d5760209061247f613fa0565b5f5491906001600160a01b03808416917f38df5fa0f7fef0d515ca1f5388cb5790ac5885d5fca8d05d9f943e563c33a4b391906124bd338514614586565b169485936124cc851515614a60565b51428152a36001600160a01b031916175f55005b90503461033d576124f036614211565b93909260018060a01b03612508815f54163314614586565b612513841515614603565b8416612520811515614867565b61252c610a4187614cf9565b5f52600160209181835261254e845f2054966125498815156145bf565b614c16565b156127ef57845f5260068352835f205415806127e0575b1561279d576125748686614d71565b91825f5260058452845f20926125898461428b565b9260ff8385511596015416928751916125a183613fcc565b8b835287830190828252845f5260058952895f2093518051916001600160401b03831161278a57506125d38554614253565b601f8111612744575b508990601f83116001146126dd5761262395949392915f91836126d2575b50505f19600383901b1c191690831b1783555b51151591019060ff801983541691151516179055565b5f52600d84525f85812055155f146126a557509185917ff9d17eb1340ab78960b594ff8bed1349985b800ee21199c6d5ea4a67454593ad936126675f988888615427565b61267f575b6113c9825193838594855284019061432d565b858752600a815261269285838920614bda565b61269d600b5461498e565b600b5561266c565b95949392505084518186012090845190850120036126bf57005b6126cd610433948383614ef2565b615427565b015190505f806125fa565b90601f19831691865f528b5f20925f5b8d828210612730575050918695949291836126239998959310612718575b505050811b01835561260d565b01515f1960f88460031b161c191690555f808061270b565b8385015186559488019493840193016126ed565b855f528a5f20601f840160051c8101918c8510612780575b601f0160051c019085905b8281106127755750506125dc565b5f8155018590612767565b909150819061275c565b604190634e487b7160e01b5f525260245ffd5b835162461bcd60e51b8152908101839052601a60248201527f5265636f726420616c726561647920696e697469616c697a65640000000000006044820152606490fd5b5060078352835f205415612565565b835162461bcd60e51b8152908101839052601860248201527f4d75737420626520616e20616374697665206d656d62657200000000000000006044820152606490fd5b823461033d578060031936011261033d576001600160401b0390823582811161033d573660238201121561033d578084013592831161033d5760246005913660248660051b8301011161033d575f546001600160a01b0396602435959161289c9089163314614586565b86156129ed576128ad8615156148ac565b855f526002936020936002855260ff845f2054166128ca816143e9565b15965f5b8a81106128d757005b8381831b84010135908c82169182810361033d578261295e8d926128fe6001961515614867565b825f5261294f8b8d8890818152612918835f2054156148ef565b82519261292484613fcc565b8884528282850192818452895f52525f209251835551151591019060ff801983541691151516179055565b835f5260038c528a5f2061493b565b8215806129e6575b156129b957815f528a8a52885f208b60ff19825416179055612988885461498e565b88557f39d132591ee0696de49ab564e4a90e430c006561917db731a2a614dd2d2455918a8a51428152a35b016128ce565b7f1cc138f50384be7770a8e4a34eecaa0d0c718bfaa1641af49db32532e4a5b9108a8a51428152a36129b3565b508b612966565b6020606492519162461bcd60e51b83528201526013602482015272139bc81dd85b1b195d1cc81c1c9bdd9a591959606a1b6044820152fd5b823461033d57602036600319011261033d57611bdf91355f52600a602052611bcc815f206144e7565b823461033d57602090611863612a633661438b565b90614e03565b823461033d57612a783661438b565b91905f526006602052805f20805483101561033d5760209261032f916143c0565b823461033d57612aa83661438b565b905f52600e602052815f20905f52602052805f20906002815192612acb84613fcc565b549260ff8416612ada816143e9565b8152612af060ff602083019560081c1685614a54565b51612afa816143e9565b612b03816143e9565b149182612b17575b60208383519015158152f35b9091505191600383101561090f57506002602092149083612b0b565b823461033d575f36600319011261033d577f00000000000000000000000000000000000000000000000000000000000000006001600160a01b03163003612b9d57602090517f360894a13ba1a3210667c828492db98dca3e2076cc3735a920a3ca505d382bbc8152f35b5163703e46dd60e11b8152fd5b823461033d57612bb936614111565b90612bc661038b33614c16565b612bd38351835114614457565b335f52600193602091858352815f20549060018060a01b03165f52815f205490612bfe82151561449b565b865f96838314915b612c0c57005b8051881015610433578888612c22829a84614a40565b51612c2d828b614a40565b51612c3781614cf9565b15612f2f57612c468783614d71565b5f526005808b5260ff80868c5f2001541615612f2657612c668a85614d71565b5f52818c52858b5f2001541615612f1e57612c818984614d71565b5f528a52612c90895f2061428b565b9088888c8451818601208d85518387012090818314612da257612cb1614735565b8481519101208314612da257885f52600684525f205415918215612cdd612cd6614735565b878c614da5565b90612cf0612ce9614756565b888d614da5565b90612d048c89612cfe61477f565b91614da5565b612d0c614735565b8051908901208603612dc4575015612db0575015612da2575b612d2d614756565b848151910120149283612d88575b505081612d80575b5080612d68575b612d5e57612d5794614e8d565b0197612c06565b5050505050612d57565b505050825f5260078b528888868c5f20541115612d4a565b90505f612d43565b90919250612d946147a1565b805191012014905f8f612d3b565b505050505050505050612d57565b9050612d2557505050505050505050612d57565b919290612dcf614756565b8051908901208603612dfa57509050159081612df1575b50612da2575b612d25565b9050155f612de6565b612e0261477f565b8051908901208603612e8d5715612e5957159182612e41575b5081612e2b5750612da257612d25565b905080612e3a575b155f612de6565b508c612e33565b90915080612e52575b15905f612e1b565b508d612e4a565b5090159081612e77575b5015612dec57505050505050505050612d57565b905080612e86575b155f612e63565b508c612e7f565b612e956147a1565b8881519101208614612eab575b50505050612d25565b15612f0a57159182612ef2575b5081612edc575b50612da2575b612ecf868a614e03565b612da2575f808080612ea2565b905080612eeb575b155f612ebf565b508c612ee4565b90915080612f03575b15905f612eb8565b508d612efb565b5050612ec557505050505050505050612d57565b505050612d57565b50505050612d57565b5050612d57565b90508160031936011261033d57612f4b613fa0565b916024356001600160401b03811161033d573660238201121561033d57612f7b90369060248186013591016140ae565b906001600160a01b037f00000000000000000000000000000000000000000000000000000000000000008116308114908115613105575b506130f557612fc5815f54163314614586565b8416918151946352d1902d60e01b86526020868681875afa5f96816130c1575b5061300157505051634c9c8ce360e01b81529182015260249150fd5b838593877f360894a13ba1a3210667c828492db98dca3e2076cc3735a920a3ca505d382bbc908181036130ab5750833b156130945780546001600160a01b0319168317905551907fbc7cd75a20ee27fd9adebab32041f755214dbc6bffa90cc0225b39da2e5c2d3b5f80a282511561307e575061043392506154d2565b9150503461308857005b63b398979f60e01b8152fd5b8151634c9c8ce360e01b8152808701849052602490fd5b86602491845191632a87526960e21b8352820152fd5b9096506020813d6020116130ed575b816130dd60209383614016565b8101031261033d5751955f612fe5565b3d91506130d0565b815163703e46dd60e11b81528490fd5b9050817f360894a13ba1a3210667c828492db98dca3e2076cc3735a920a3ca505d382bbc541614155f612fb2565b90503461033d57613143366143a1565b919061315161038b33614c16565b335f526001602052835f205491815f52600e602052845f20835f52602052845f208054613186600260ff8316611e52816143e9565b600386101561322f5760081c60ff1691600383101561090f578260ff871610156131e057507fb36ec3c738ef8ecd9180addc815304762374b76e91c2a321831d9906ea119ade611eb9859361043398611eac8988966149fc565b608490602088519162461bcd60e51b8352820152602360248201527f43616e206f6e6c7920646f776e677261646520746f2061206c6f776572206c656044820152621d995b60ea1b6064820152fd5b602183634e487b7160e01b5f525260245ffd5b823461033d578060031936011261033d5761325b613fa0565b916024359260018060a01b03613275815f54163314614586565b811692613283841515614867565b61328e8515156148ac565b835f526132f3602092600184526132a8835f2054156148ef565b6132e483516132b681613fcc565b8881526001868201818152895f52818852865f209251835551151591019060ff801983541691151516179055565b865f5260038452825f2061493b565b845f526002825260ff815f20541661330a816143e9565b613358577f39d132591ee0696de49ab564e4a90e430c006561917db731a2a614dd2d24559192855f5260028352815f20600260ff1982541617905561334f815461498e565b905551428152a3005b7f1cc138f50384be7770a8e4a34eecaa0d0c718bfaa1641af49db32532e4a5b910925051428152a3005b823461033d57602036600319011261033d57602090611863612549613fa0565b823461033d576020906133b7611f193661438b565b5f5260058252611bdf815f209180516133cf81613fcc565b60ff60016133dc8661428b565b9586845201541615159485910152519283928361436b565b823461033d578060031936011261033d5761341b611bdf92613414613fb6565b90356147ef565b929091519283928361436b565b823461033d57602036600319011261033d57611bdf91355f526007602052611bcc815f206144e7565b823461033d5760209061186361346636614211565b916147c3565b90503461033d57602036600319011261033d57355f526005602052805f20611bdf60ff600161349a8461428b565b9301541692519283928361436b565b823461033d5760208060031936011261033d578235916134ca831515614603565b335f5260018252805f2054936134e86134e1614735565b8686614da5565b156135d957835f52600683526001825f20541160078452825f2054151581156135d1575b50156135765750907f68f37cc4a32f0b24153ce9237b344b20a9717039f90d7c24f35e5c217f03e168916135408585614d71565b61355261354b614735565b8787614ef2565b5f52600582526001815f200160ff198154169055600d82525f8181205551428152a3005b82608492519162461bcd60e51b8352820152603160248201527f43616e6e6f74206c65617665206173206c617374206f776e65722077697468206044820152706e6f2061646d696e6973747261746f727360781b6064820152fd5b90508661350c565b82608492519162461bcd60e51b8352820152602360248201527f596f7520617265206e6f7420616e206f776e6572206f662074686973207265636044820152621bdc9960ea1b6064820152fd5b823461033d57602036600319011261033d57611bdf91355f526008602052611bcc815f206144e7565b90503461033d5761365f36614211565b91929061366e61038b33614c16565b613679841515614603565b6001600160a01b031661368d81151561464f565b613699610a4184614cf9565b335f5260209360018552855f2054915f52855f2054926136ba84151561449b565b845186860120956136cb8584614d71565b805f52600582526136e460ff60018b5f200154166146dd565b5f52600581526136f5885f2061428b565b9687518289012090808214613d245761370c614735565b8381519101208214613caf57845f5260068352895f205415918215613739613732614735565b8989614da5565b9061374c613745614756565b8a8a614da5565b9061375f61375861477f565b8b8b614da5565b8b8b1461376a614735565b8051908a012087036138e75750501561388a575015613849575b61378c614756565b848151910120149081613832575b506137ad575b5050506104339550614e8d565b6137b8575b806137a0565b825f52600781526001885f2054116137b257875162461bcd60e51b815291820152603960248201527f43616e6e6f742064656d6f746520746865206c6173742061646d696e6973747260448201527f61746f72207768656e206e6f206f776e65722065786973747300000000000000606482015260849150fd5b905061383c6147a1565b838151910120145f61379a565b60648585808e519262461bcd60e51b845283015260248201527f4f6e6c79206f776e6572732063616e2070726f6d6f746520746f206f776e65726044820152fd5b9050613784578a5162461bcd60e51b8152808601859052602b60248201527f4f6e6c792061646d696e6973747261746f72732063616e2070726f6d6f74652060448201526a3334b939ba1037bbb732b960a91b6064820152608490fd5b90916138f1614756565b8051908a0120870361398457505050811561397c575b5015613913575b613784565b8a5162461bcd60e51b8152808601859052603b60248201527f4f6e6c79206f776e65727320616e642061646d696e6973747261746f7273206360448201527f616e2070726f6d6f746520746f2061646d696e6973747261746f7200000000006064820152608490fd5b90505f613907565b6139909391929361477f565b8051908a01208703613af15715613a75578315613a5e575b508215613a45575b5050613784578a5162461bcd60e51b8152808601859052605760248201527f4f6e6c79206f776e6572732063616e206368616e6765206f746865727320746f60448201527f207368617265722e2041646d696e7320616e6420736861726572732063616e2060648201527f6f6e6c792064656d6f7465207468656d73656c7665732e000000000000000000608482015260a490fd5b90915081613a56575b505f806139b0565b90505f613a4e565b90925080613a6e575b915f6139a8565b5081613a67565b92508215613ad8575b505061390e578a5162461bcd60e51b8152808601859052602860248201527f4f6e6c792061646d696e6973747261746f72732063616e2064656d6f74652074604482015267379039b430b932b960c11b6064820152608490fd5b90915081613ae9575b505f80613a7e565b90505f613ae1565b613af96147a1565b8981519101208714613b10575b5050505050613784565b15613c53578315613c3c575b508215613c23575b505015613b9c575b613b368887614e03565b613b44575f80808080613b06565b8a5162461bcd60e51b8152808601859052602c60248201527f43616e6e6f742064656d6f746520616e20616374697665207375626a6563742060448201526b3132b637bb9039b430b932b960a11b6064820152608490fd5b8a5162461bcd60e51b8152808601859052605560248201527f4f6e6c79206f776e6572732063616e2064656d6f7465206f74686572732e204160448201527f646d696e6973747261746f727320616e6420736861726572732063616e206f6e606482015274363c903232b6b7ba32903a3432b6b9b2b63b32b99760591b608482015260a490fd5b90915081613c34575b505f80613b24565b90505f613c2c565b90925080613c4c575b915f613b1c565b5081613c45565b92505050613b2c578a5162461bcd60e51b8152808601859052602860248201527f4f6e6c792061646d696e6973747261746f72732063616e2064656d6f7465207460448201526737903b34b2bbb2b960c11b6064820152608490fd5b895162461bcd60e51b8152808501849052604360248201527f4f776e6572732063616e6e6f742062652064656d6f7465642e204f776e65722060448201527f6d75737420766f6c756e746172696c792072656d6f7665207468656d73656c7660648201526232b99760e91b608482015260a490fd5b895162461bcd60e51b8152808501849052601c60248201527f54617267657420616c726561647920686173207468697320726f6c65000000006044820152606490fd5b823461033d57602036600319011261033d57602090611863613d87613fa0565b614ca7565b823461033d57602036600319011261033d57613da6613fa0565b5f546001600160a01b039190613dbf9083163314614586565b16805f526001602052613dd6825f205415156145bf565b805f52600160205260ff6001835f2001541615613e0657600192505f52816020525f200160ff1981541690555f80f35b815162461bcd60e51b8152602081850152601760248201527f57616c6c657420616c726561647920696e6163746976650000000000000000006044820152606490fd5b823461033d578060031936011261033d57611863602092613e68613fb6565b9035614535565b823461033d57602036600319011261033d57611bdf91355f526009602052611bcc815f206144e7565b823461033d57613ea736614111565b929190613eb661038b33614c16565b613ec38251855114614457565b335f5260019384936001602052805f20549260018060a01b03165f525f2054613eed81151561449b565b5f945b613ef657005b8351851015610433578585613f15613f0f839886614a40565b51614cf9565b15613f6757613f28856106608389614a40565b15613f6757613f3b836106608389614a40565b613f6757613f6085613f4d8389614a40565b5185613f598589614a40565b519161507c565b0194613ef0565b613f60565b83903461033d57602036600319011261033d576020916001600160a01b03613f92613fa0565b165f52600183525f20548152f35b600435906001600160a01b038216820361033d57565b602435906001600160a01b038216820361033d57565b604081019081106001600160401b03821117613fe757604052565b634e487b7160e01b5f52604160045260245ffd5b602081019081106001600160401b03821117613fe757604052565b90601f801991011681019081106001600160401b03821117613fe757604052565b6001600160401b038111613fe75760051b60200190565b9080601f8301121561033d57602090823561406881614037565b936140766040519586614016565b81855260208086019260051b82010192831161033d57602001905b82821061409f575050505090565b81358152908301908301614091565b9291926001600160401b038211613fe757604051916140d7601f8201601f191660200184614016565b82948184528183011161033d578281602093845f960137010152565b9080601f8301121561033d5781602061410e933591016140ae565b90565b606060031982011261033d576001600160401b039160043583811161033d578261413d9160040161404e565b9260249283356001600160a01b038116810361033d57936044359280841161033d578260238501121561033d57836004013561417881614037565b946141866040519687614016565b8186526020946024602088019360051b8301019481861161033d5760248301935b8685106141b957505050505050505090565b843586811161033d5788916141d3858585948901016140f3565b8152019401936141a7565b9081518082526020808093019301915f5b8281106141fd575050505090565b8351855293810193928101926001016141ef565b606060031982011261033d57600435916024356001600160a01b038116810361033d5791604435906001600160401b03821161033d5761410e916004016140f3565b90600182811c92168015614281575b602083101461426d57565b634e487b7160e01b5f52602260045260245ffd5b91607f1691614262565b9060405191825f825461429d81614253565b908184526020946001916001811690815f1461430b57506001146142cd575b5050506142cb92500383614016565b565b5f90815285812095935091905b8183106142f35750506142cb93508201015f80806142bc565b855488840185015294850194879450918301916142da565b925050506142cb94925060ff191682840152151560051b8201015f80806142bc565b91908251928382525f5b848110614357575050825f602080949584010152601f8019910116010190565b602081830181015184830182015201614337565b9061438360209194939460408452604084019061432d565b931515910152565b604090600319011261033d576004359060243590565b604090600319011261033d5760043590602435600381101561033d5790565b80548210156143d5575f5260205f2001905f90565b634e487b7160e01b5f52603260045260245ffd5b600511156143f357565b634e487b7160e01b5f52602160045260245ffd5b9060038210156143f35752565b1561441b57565b60405162461bcd60e51b81526020600482015260146024820152732737ba1030b71030b1ba34bb329036b2b6b132b960611b6044820152606490fd5b1561445e57565b60405162461bcd60e51b8152602060048201526015602482015274082e4e4c2f240d8cadccee8d040dad2e6dac2e8c6d605b1b6044820152606490fd5b156144a257565b60405162461bcd60e51b815260206004820152601c60248201527f5461726765742077616c6c6574206e6f742072656769737465726564000000006044820152606490fd5b90604051918281549182825260209260208301915f5260205f20935f905b82821061451b575050506142cb92500383614016565b855484526001958601958895509381019390910190614505565b6001600160a01b039091165f9081526001602052604090205490811561458057614567614560614735565b8383614da5565b91821561457357505090565b61410e9250612cfe614756565b50505f90565b1561458d57565b60405162461bcd60e51b815260206004820152600a60248201526927b7363c9030b236b4b760b11b6044820152606490fd5b156145c657565b60405162461bcd60e51b815260206004820152601560248201527415d85b1b195d081b9bdd081c9959da5cdd195c9959605a1b6044820152606490fd5b1561460a57565b60405162461bcd60e51b815260206004820152601e60248201527f5265636f726420494420686173682063616e6e6f7420626520656d70747900006044820152606490fd5b1561465657565b60405162461bcd60e51b815260206004820152601d60248201527f57616c6c657420616464726573732063616e6e6f74206265207a65726f0000006044820152606490fd5b156146a257565b60405162461bcd60e51b8152602060048201526013602482015272496e76616c696420726f6c6520737472696e6760681b6044820152606490fd5b156146e457565b60405162461bcd60e51b815260206004820152602360248201527f54617267657420646f6573206e6f74206861766520616e2061637469766520726044820152626f6c6560e81b6064820152608490fd5b6040519061474282613fcc565b600582526437bbb732b960d91b6020830152565b6040519061476382613fcc565b600d82526c30b236b4b734b9ba3930ba37b960991b6020830152565b6040519061478c82613fcc565b600682526539b430b932b960d11b6020830152565b604051906147ae82613fcc565b60068252653b34b2bbb2b960d11b6020830152565b919060018060a01b03165f52600160205260405f205480156147e85761410e92614da5565b5050505f90565b6001600160a01b039091165f90815260016020526040902054908115614851576020929161481c91614d71565b5f526005825260405f2060405161483281613fcc565b60ff600161483f8461428b565b93848452015416151593849101529190565b505060405161485f81613ffb565b5f8152905f90565b1561486e57565b60405162461bcd60e51b8152602060048201526016602482015275496e76616c69642077616c6c6574206164647265737360501b6044820152606490fd5b156148b357565b60405162461bcd60e51b8152602060048201526014602482015273092dcecc2d8d2c840eae6cae440928840d0c2e6d60631b6044820152606490fd5b156148f657565b60405162461bcd60e51b815260206004820152601960248201527f57616c6c657420616c72656164792072656769737465726564000000000000006044820152606490fd5b8054600160401b811015613fe757614958916001820181556143c0565b60018060a09493941b038084549260031b9316831b921b1916179055565b90614980816143e9565b60ff80198354169116179055565b5f19811461499c5760010190565b634e487b7160e01b5f52601160045260245ffd5b156149b757565b60405162461bcd60e51b815260206004820152601e60248201527f4e6f2061637469766520747275737465652072656c6174696f6e7368697000006044820152606490fd5b9060038110156143f35761ff0082549160081b169061ff001916179055565b614a3c604092959493614a32836060810198614407565b6020830190614407565b0152565b80518210156143d55760209160051b010190565b60038210156143f35752565b15614a6757565b60405162461bcd60e51b815260206004820152600f60248201526e496e76616c6964206164647265737360881b6044820152606490fd5b6001600160a01b039091165f90815260016020526040902054801561458057614ac691614d71565b5f52600560205260ff600160405f2001541690565b8054905f815581614aea575050565b5f5260205f20908101905b818110614b00575050565b5f8155600101614af5565b15614b1257565b60405162461bcd60e51b815260206004820152600f60248201526e496e76616c6964207472757374656560881b6044820152606490fd5b15614b5057565b60405162461bcd60e51b815260206004820152601760248201527f43616e6e6f74206170706f696e7420796f757273656c660000000000000000006044820152606490fd5b15614b9c57565b60405162461bcd60e51b8152602060048201526016602482015275151c9d5cdd1959481b9bdd081c9959da5cdd195c995960521b6044820152606490fd5b805490600160401b821015613fe75781614bfc916001614c12940181556143c0565b819391549060031b91821b915f19901b19161790565b9055565b6001600160a01b03165f9081526001602052604090208054908115908115614c97575b50614c92575f52600260205260ff60405f205416614c56816143e9565b60028114908115614c7d575b8115614c6c575090565b60049150614c79816143e9565b1490565b9050614c88816143e9565b6003811490614c62565b505f90565b60ff91506001015416155f614c39565b6001600160a01b03165f9081526001602052604090208054908115908115614ce9575b50614c92575f526002602052600460ff60405f205416614c79816143e9565b60ff91506001015416155f614cca565b60208151910120614d08614735565b602081519101208114908115614d58575b8115614d3f575b8115614d2a575090565b9050614d346147a1565b602081519101201490565b9050614d4961477f565b60208151910120811490614d20565b9050614d62614756565b60208151910120811490614d19565b906040519060208201928352604082015260408152606081018181106001600160401b03821117613fe75760405251902090565b60209291614db291614d71565b5f526005825260405f20604051614dc881613fcc565b60ff6001614dd58461428b565b938484520154161515938491015282614ded57505090565b9091506020815191012090602081519101201490565b600c546001600160a01b03169182156147e8576044602092604051948593849263193d8e7560e21b8452600484015260248301525afa908115614e82575f91614e4a575090565b90506020813d602011614e7a575b81614e6560209383614016565b8101031261033d5751801515810361033d5790565b3d9150614e58565b6040513d5f823e3d90fd5b91927f3af67cf2057ba8ef414286fb626cd3efb02f74996e18efd455b39d8ec7ec460f9194614ee7614ed992614ec58882898961507c565b60405193849360608552606085019061432d565b90838203602085015261432d565b4260408301520390a4565b8251602080940120614f02614735565b8051908501208103614f2257506142cb926006915f525260405f20615390565b614f2a614756565b8051908501208103614f4a57506142cb926007915f525260405f20615390565b614f5261477f565b8051908501208103614f7257506142cb926008915f525260405f20615390565b614f7a6147a1565b84815191012014614f8a57505050565b6142cb926009915f525260405f20615390565b929190835f52602090600f825260409060405f20815f52835260405f20955f5b87548110156150685780614fd36001928a6143c0565b90549060031b1c614fe48582614d71565b5f52600580885260ff84885f2001541615615061576150048986846152e3565b9061500e82614cf9565b156150595761501d8784614d71565b5f52885261502c875f2061428b565b90868683518b85012083518c8501201461504f5761504994614e8d565b01614fbd565b5050505050615049565b505050615049565b5050615049565b5050505050509050565b90614ac691614d71565b9291926150898282614d71565b93845f52602060058152604090815f20966150a38861428b565b978851159160ff60018093015416918551906150be82613fcc565b878252858201818152835f5260058752875f2092518051906001600160401b038211613fe7576150ee8554614253565b601f811161524b575b508890601f83116001146151fd5761513c95949392915f91836126d25750505f19600383901b1c191690831b17835551151591019060ff801983541691151516179055565b5f52600d835287845f2055155f146151c8578596975061517f8486977ff9d17eb1340ab78960b594ff8bed1349985b800ee21199c6d5ea4a67454593ad97615427565b6151a2575b615197825193838594855284019061432d565b9042908301520390a4565b855f52600a81526151b585835f20614bda565b6151c0600b5461498e565b600b55615184565b509194505084518186012090845190850120036151e6575b50505050565b6126cd6151f4948383614ef2565b5f8080806151e0565b90601f19831691865f528a5f20925f5b8c8282106152375750509186959492918361513c999895931061271857505050811b01835561260d565b83850151865594880194938401930161520d565b855f52895f20601f840160051c8101918b8510615287575b601f0160051c019085905b82811061527c5750506150f7565b5f815501859061526e565b9091508190615263565b6001600160a01b03165f90815260016020526040902080549081159081156152d3575b50614c92575f526002602052600360ff60405f205416614c79816143e9565b60ff91506001015416155f6152b4565b60038310156143f357821561532e576001916152fe91615339565b91146153075790565b80516020820120615316614735565b60208151910120146153255790565b5061410e614756565b50505061410e6147a1565b9061534391614d71565b5f52600560205260405f2060ff60016040519261535f84613fcc565b6153688161428b565b8452015416158015602083015261537d575190565b5060405161538a81613ffb565b5f815290565b5f5b815490818110156151e05783916153a982856143c0565b959054600396871b1c146153c35750909250600101615392565b5f19925082810190811161499c57614bfc6153e16153ee92866143c0565b905490871b1c92856143c0565b9055815480156154135781019261540584846143c0565b81939154921b1b1916905555565b634e487b7160e01b5f52603160045260245ffd5b8251602080940120615437614735565b805190850120810361545757506142cb926006915f525260405f20614bda565b61545f614756565b805190850120810361547f57506142cb926007915f525260405f20614bda565b61548761477f565b80519085012081036154a757506142cb926008915f525260405f20614bda565b6154af6147a1565b848151910120146154bf57505050565b6142cb926009915f525260405f20614bda565b905f8091602081519101845af48080615550575b156155065750506040513d81523d5f602083013e60203d82010160405290565b1561552d57604051639996b31560e01b81526001600160a01b039091166004820152602490fd5b3d1561553e576040513d5f823e3d90fd5b60405163d6bda27560e01b8152600490fd5b503d1515806154e65750813b15156154e656fed05ed2d3feff840c2ececa71791388fd3d19dbbbbcfa97031f534a7dc09fbf1fa2646970667358221220c630be7b501ba59f8311e6cb4a9d751df5d33f8a3750b6ce10c7153e6785071f64736f6c63430008180033","opcodes":"PUSH1 0xA0 DUP1 PUSH1 0x40 MSTORE CALLVALUE PUSH3 0xD1 JUMPI ADDRESS PUSH1 0x80 MSTORE PUSH32 0xF0C57E16840DF040F15088DC2F81FE391C3923BEC73E23A9662EFC9C229C6A00 SWAP1 DUP2 SLOAD SWAP1 PUSH1 0xFF DUP3 PUSH1 0x40 SHR AND PUSH3 0xC2 JUMPI POP PUSH1 0x1 PUSH1 0x1 PUSH1 0x40 SHL SUB PUSH1 0x2 PUSH1 0x1 PUSH1 0x40 SHL SUB NOT DUP3 DUP3 AND ADD PUSH3 0x7C JUMPI JUMPDEST PUSH1 0x40 MLOAD PUSH2 0x55B9 SWAP1 DUP2 PUSH3 0xD6 DUP3 CODECOPY PUSH1 0x80 MLOAD DUP2 DUP2 DUP2 PUSH2 0x2B46 ADD MSTORE PUSH2 0x2F86 ADD MSTORE RETURN JUMPDEST PUSH1 0x1 PUSH1 0x1 PUSH1 0x40 SHL SUB NOT SWAP1 SWAP2 AND DUP2 OR SWAP1 SWAP2 SSTORE PUSH1 0x40 MLOAD SWAP1 DUP2 MSTORE PUSH32 0xC7F505B2F371AE2175EE4913F4499E1F2633A7B5936321EED1CDAEB6115181D2 SWAP1 PUSH1 0x20 SWAP1 LOG1 PUSH0 DUP1 DUP1 PUSH3 0x5C JUMP JUMPDEST PUSH4 0xF92EE8A9 PUSH1 0xE0 SHL DUP2 MSTORE PUSH1 0x4 SWAP1 REVERT JUMPDEST PUSH0 DUP1 REVERT INVALID PUSH1 0x80 PUSH1 0x40 SWAP1 DUP1 DUP3 MSTORE PUSH1 0x4 DUP1 CALLDATASIZE LT ISZERO PUSH2 0x15 JUMPI PUSH0 DUP1 REVERT JUMPDEST PUSH0 CALLDATALOAD PUSH1 0xE0 SHR SWAP2 DUP3 PUSH3 0xB0C809 EQ PUSH2 0x3F6C JUMPI POP DUP2 PUSH4 0x2BA8109 EQ PUSH2 0x3E98 JUMPI DUP2 PUSH4 0x33E822F EQ PUSH2 0x3E6F JUMPI DUP2 PUSH4 0x519E2A0 EQ PUSH2 0x3E49 JUMPI DUP2 PUSH4 0xB3FFD1D EQ PUSH2 0x3D8C JUMPI DUP2 PUSH4 0x259ED80E EQ PUSH2 0x3D67 JUMPI DUP2 PUSH4 0x29C9087A EQ PUSH2 0x364F JUMPI DUP2 PUSH4 0x2AB5D8F3 EQ PUSH2 0x3626 JUMPI DUP2 PUSH4 0x2AE8511D EQ PUSH2 0x34A9 JUMPI DUP2 PUSH4 0x33105592 EQ PUSH2 0x346C JUMPI DUP2 PUSH4 0x3BEFA410 EQ PUSH2 0x3451 JUMPI DUP2 PUSH4 0x41A51BAA EQ PUSH2 0x3428 JUMPI DUP2 PUSH4 0x422A5BB8 EQ PUSH2 0x33F4 JUMPI DUP2 PUSH4 0x43E19704 EQ PUSH2 0x33A2 JUMPI DUP2 PUSH4 0x45ECD02F EQ PUSH2 0x3382 JUMPI DUP2 PUSH4 0x49DF7208 EQ PUSH2 0x3242 JUMPI DUP2 PUSH4 0x4B6FEB7C EQ PUSH2 0x23A0 JUMPI DUP2 PUSH4 0x4D3C4A7C EQ PUSH2 0x3133 JUMPI DUP2 PUSH4 0x4F1EF286 EQ PUSH2 0x2F36 JUMPI DUP2 PUSH4 0x51EED472 EQ PUSH2 0x2BAA JUMPI DUP2 PUSH4 0x52D1902D EQ PUSH2 0x2B33 JUMPI DUP2 PUSH4 0x557EE54F EQ PUSH2 0x2A99 JUMPI DUP2 PUSH4 0x55816079 EQ PUSH2 0x2A69 JUMPI DUP2 PUSH4 0x562C788E EQ PUSH2 0x789 JUMPI DUP2 PUSH4 0x64F639D4 EQ PUSH2 0x2A4E JUMPI DUP2 PUSH4 0x6544B05B EQ PUSH2 0x2A25 JUMPI DUP2 PUSH4 0x69AC2022 EQ PUSH2 0x2832 JUMPI DUP2 PUSH4 0x6B4BED97 EQ PUSH2 0x590 JUMPI DUP2 PUSH4 0x726D5447 EQ PUSH2 0x24E0 JUMPI DUP2 PUSH4 0x75829DEF EQ PUSH2 0x2462 JUMPI DUP2 PUSH4 0x78AD8F5B EQ PUSH2 0x23BE JUMPI DUP2 PUSH4 0x790E118C EQ PUSH2 0x23A0 JUMPI DUP2 PUSH4 0x7B657D07 EQ PUSH2 0x2356 JUMPI DUP2 PUSH4 0x8129FC1C EQ PUSH2 0x2239 JUMPI DUP2 PUSH4 0x8776CD35 EQ PUSH2 0x2209 JUMPI DUP2 PUSH4 0x89B08F11 EQ PUSH2 0x21C4 JUMPI DUP2 PUSH4 0x8DB7EDB4 EQ PUSH2 0x2175 JUMPI DUP2 PUSH4 0x93CCFBA8 EQ PUSH2 0x2145 JUMPI DUP2 PUSH4 0x9443CD80 EQ PUSH2 0x20FF JUMPI DUP2 PUSH4 0x96207E02 EQ PUSH2 0x1FBB JUMPI DUP2 PUSH4 0x9915B91F EQ PUSH2 0x1F30 JUMPI DUP2 PUSH4 0x9BE572F6 EQ PUSH2 0x1C0C JUMPI DUP2 PUSH4 0xAADDC345 EQ PUSH2 0x1F04 JUMPI DUP2 PUSH4 0xAB48384A EQ PUSH2 0x1DFF JUMPI DUP2 PUSH4 0xAD3CB1CC EQ PUSH2 0x1DBB JUMPI DUP2 PUSH4 0xB8CAB84B EQ PUSH2 0x1CDF JUMPI DUP2 PUSH4 0xBB0F86D5 EQ PUSH2 0x1C28 JUMPI DUP2 PUSH4 0xBFF1F9E1 EQ PUSH2 0x1C0C JUMPI DUP2 PUSH4 0xC36DC9EF EQ PUSH2 0x1BE3 JUMPI DUP2 PUSH4 0xC497D840 EQ PUSH2 0x1B9D JUMPI DUP2 PUSH4 0xC7155823 EQ PUSH2 0x1B21 JUMPI DUP2 PUSH4 0xC88C35FE EQ PUSH2 0x1AFB JUMPI DUP2 PUSH4 0xC979C9BF EQ PUSH2 0x186C JUMPI DUP2 PUSH4 0xCB261A03 EQ PUSH2 0x183E JUMPI DUP2 PUSH4 0xCDA06C6E EQ PUSH2 0x1817 JUMPI DUP2 PUSH4 0xD12A7768 EQ PUSH2 0x1768 JUMPI DUP2 PUSH4 0xD547741F EQ PUSH2 0x12A5 JUMPI DUP2 PUSH4 0xDC9F9664 EQ PUSH2 0xFDB JUMPI DUP2 PUSH4 0xDDE492EA EQ PUSH2 0x9F6 JUMPI DUP2 PUSH4 0xE6EFCD5D EQ PUSH2 0x7B1 JUMPI DUP2 PUSH4 0xE94ED257 EQ PUSH2 0x789 JUMPI DUP2 PUSH4 0xF12B9AD3 EQ PUSH2 0x5C3 JUMPI DUP2 PUSH4 0xF29E007B EQ PUSH2 0x590 JUMPI DUP2 PUSH4 0xF32B10F0 EQ PUSH2 0x560 JUMPI DUP2 PUSH4 0xF76794F1 EQ PUSH2 0x368 JUMPI POP DUP1 PUSH4 0xF851A440 EQ PUSH2 0x341 JUMPI PUSH4 0xFA7A6BCC EQ PUSH2 0x300 JUMPI PUSH0 DUP1 REVERT JUMPDEST CALLVALUE PUSH2 0x33D JUMPI PUSH2 0x30E CALLDATASIZE PUSH2 0x438B JUMP JUMPDEST SWAP2 SWAP1 PUSH0 MSTORE PUSH1 0xA PUSH1 0x20 MSTORE DUP1 PUSH0 KECCAK256 DUP1 SLOAD DUP4 LT ISZERO PUSH2 0x33D JUMPI PUSH1 0x20 SWAP3 PUSH2 0x32F SWAP2 PUSH2 0x43C0 JUMP JUMPDEST SWAP2 SWAP1 SLOAD SWAP1 MLOAD SWAP2 PUSH1 0x3 SHL SHR DUP2 MSTORE RETURN JUMPDEST PUSH0 DUP1 REVERT JUMPDEST POP CALLVALUE PUSH2 0x33D JUMPI PUSH0 CALLDATASIZE PUSH1 0x3 NOT ADD SLT PUSH2 0x33D JUMPI PUSH0 SLOAD SWAP1 MLOAD PUSH1 0x1 PUSH1 0x1 PUSH1 0xA0 SHL SUB SWAP1 SWAP2 AND DUP2 MSTORE PUSH1 0x20 SWAP1 RETURN JUMPDEST DUP3 CALLVALUE PUSH2 0x33D JUMPI PUSH1 0x20 SWAP2 DUP3 PUSH1 0x3 NOT CALLDATASIZE ADD SLT PUSH2 0x33D JUMPI DUP1 CALLDATALOAD SWAP3 PUSH2 0x390 PUSH2 0x38B CALLER PUSH2 0x4C16 JUMP JUMPDEST PUSH2 0x4414 JUMP JUMPDEST CALLER PUSH0 MSTORE PUSH1 0x1 SWAP4 DUP5 DUP3 MSTORE DUP4 PUSH0 KECCAK256 SLOAD SWAP3 DUP2 PUSH0 MSTORE PUSH1 0xE DUP4 MSTORE DUP5 PUSH0 KECCAK256 DUP5 PUSH0 MSTORE DUP4 MSTORE DUP5 PUSH0 KECCAK256 SWAP1 DUP2 SLOAD SWAP2 PUSH1 0xFF SWAP2 DUP9 PUSH1 0xFF DUP6 AND PUSH2 0x3C5 DUP2 PUSH2 0x43E9 JUMP JUMPDEST SUB PUSH2 0x51D JUMPI PUSH1 0xFF NOT DUP1 SWAP5 AND OR SWAP1 SSTORE DUP5 DUP4 PUSH32 0xC1F9BDA0602B12C2F11218F87531038A6957666101C4FAAD39C882DCC5093DC6 DUP7 DUP10 MLOAD TIMESTAMP DUP2 MSTORE LOG3 DUP3 PUSH0 MSTORE PUSH1 0xF DUP5 MSTORE DUP6 PUSH0 KECCAK256 DUP6 PUSH0 MSTORE DUP5 MSTORE DUP6 PUSH0 KECCAK256 DUP8 PUSH0 SWAP1 JUMPDEST PUSH2 0x435 JUMPI JUMPDEST PUSH2 0x433 DUP9 DUP9 DUP9 DUP9 PUSH0 MSTORE PUSH1 0xF DUP2 MSTORE DUP3 PUSH0 KECCAK256 SWAP2 PUSH0 MSTORE MSTORE PUSH0 KECCAK256 PUSH2 0x4ADB JUMP JUMPDEST STOP JUMPDEST DUP2 SLOAD DUP2 LT ISZERO PUSH2 0x518 JUMPI SWAP1 DUP9 DUP3 DUP9 DUP11 PUSH2 0x450 DUP5 SWAP9 SWAP8 SWAP7 DUP7 PUSH2 0x43C0 JUMP JUMPDEST SWAP1 SLOAD SWAP1 PUSH1 0x3 SHL SHR DUP10 PUSH0 MSTORE PUSH1 0x10 DUP12 MSTORE DUP2 PUSH0 KECCAK256 DUP4 PUSH0 MSTORE DUP12 MSTORE DUP2 PUSH0 KECCAK256 DUP2 PUSH0 MSTORE DUP12 MSTORE DUP2 PUSH0 KECCAK256 DUP9 DUP2 SLOAD AND SWAP1 SSTORE PUSH2 0x481 DUP4 DUP3 PUSH2 0x4D71 JUMP JUMPDEST PUSH0 MSTORE DUP11 PUSH1 0x5 DUP1 DUP3 MSTORE DUP9 DUP8 DUP6 PUSH0 KECCAK256 ADD SLOAD AND ISZERO PUSH2 0x50E JUMPI DUP5 SWAP4 PUSH1 0xD PUSH0 DUP1 MLOAD PUSH1 0x20 PUSH2 0x5564 DUP4 CODECOPY DUP2 MLOAD SWAP2 MSTORE SWAP4 PUSH2 0x4B3 DUP8 DUP8 PUSH2 0x4D71 JUMP JUMPDEST SWAP4 DUP5 PUSH0 MSTORE DUP1 DUP3 MSTORE PUSH2 0x4C5 DUP5 PUSH0 KECCAK256 PUSH2 0x428B JUMP JUMPDEST SWAP5 PUSH2 0x4D1 DUP7 DUP11 DUP11 PUSH2 0x4EF2 JUMP JUMPDEST PUSH0 MSTORE DUP2 MSTORE DUP10 DUP4 PUSH0 KECCAK256 ADD DUP14 DUP2 SLOAD AND SWAP1 SSTORE MSTORE PUSH0 DUP2 DUP2 KECCAK256 SSTORE DUP14 PUSH2 0x4FA DUP3 MLOAD SWAP4 DUP4 DUP6 SWAP5 DUP6 MSTORE DUP5 ADD SWAP1 PUSH2 0x432D JUMP JUMPDEST SWAP1 TIMESTAMP SWAP1 DUP4 ADD MSTORE SUB SWAP1 LOG4 JUMPDEST ADD SWAP1 SWAP2 SWAP3 SWAP4 PUSH2 0x413 JUMP JUMPDEST POP POP POP POP POP PUSH2 0x504 JUMP JUMPDEST PUSH2 0x418 JUMP JUMPDEST DUP8 MLOAD PUSH3 0x461BCD PUSH1 0xE5 SHL DUP2 MSTORE SWAP1 DUP2 ADD DUP7 SWAP1 MSTORE PUSH1 0x1E PUSH1 0x24 DUP3 ADD MSTORE PUSH32 0x4E6F2070656E64696E672070726F706F73616C20746F206465636C696E650000 PUSH1 0x44 DUP3 ADD MSTORE PUSH1 0x64 SWAP1 REVERT JUMPDEST DUP3 CALLVALUE PUSH2 0x33D JUMPI PUSH2 0x56F CALLDATASIZE PUSH2 0x438B JUMP JUMPDEST SWAP2 SWAP1 PUSH0 MSTORE PUSH1 0x8 PUSH1 0x20 MSTORE DUP1 PUSH0 KECCAK256 DUP1 SLOAD DUP4 LT ISZERO PUSH2 0x33D JUMPI PUSH1 0x20 SWAP3 PUSH2 0x32F SWAP2 PUSH2 0x43C0 JUMP JUMPDEST DUP3 CALLVALUE PUSH2 0x33D JUMPI PUSH1 0x20 CALLDATASIZE PUSH1 0x3 NOT ADD SLT PUSH2 0x33D JUMPI PUSH1 0x20 SWAP2 CALLDATALOAD PUSH0 MSTORE PUSH1 0x2 DUP3 MSTORE PUSH1 0xFF DUP2 PUSH0 KECCAK256 SLOAD AND SWAP1 MLOAD SWAP1 PUSH2 0x5BF DUP2 PUSH2 0x43E9 JUMP JUMPDEST DUP2 MSTORE RETURN JUMPDEST DUP3 CALLVALUE PUSH2 0x33D JUMPI DUP1 PUSH1 0x3 NOT CALLDATASIZE ADD SLT PUSH2 0x33D JUMPI DUP2 CALLDATALOAD PUSH1 0x1 PUSH1 0x1 PUSH1 0x40 SHL SUB DUP2 GT PUSH2 0x33D JUMPI PUSH2 0x5F1 SWAP1 CALLDATASIZE SWAP1 DUP5 ADD PUSH2 0x404E JUMP JUMPDEST SWAP2 PUSH2 0x5FA PUSH2 0x3FB6 JUMP JUMPDEST PUSH2 0x606 PUSH2 0x38B CALLER PUSH2 0x4C16 JUMP JUMPDEST PUSH1 0x1 PUSH1 0x1 PUSH1 0xA0 SHL SUB AND SWAP1 DUP2 ISZERO PUSH2 0x755 JUMPI POP CALLER PUSH0 MSTORE PUSH1 0x1 SWAP3 DUP4 SWAP3 PUSH1 0x20 SWAP1 PUSH1 0x1 DUP3 MSTORE DUP1 PUSH0 KECCAK256 SLOAD SWAP4 PUSH0 MSTORE DUP1 PUSH0 KECCAK256 SLOAD SWAP3 PUSH2 0x63D DUP5 ISZERO ISZERO PUSH2 0x449B JUMP JUMPDEST PUSH0 SWAP6 JUMPDEST PUSH2 0x646 JUMPI STOP JUMPDEST DUP1 MLOAD DUP7 LT ISZERO PUSH2 0x433 JUMPI DUP7 DUP7 PUSH2 0x666 DUP7 PUSH2 0x660 DUP5 SWAP11 DUP7 PUSH2 0x4A40 JUMP JUMPDEST MLOAD PUSH2 0x5072 JUMP JUMPDEST ISZERO PUSH2 0x750 JUMPI PUSH2 0x679 DUP8 PUSH2 0x660 DUP4 DUP7 PUSH2 0x4A40 JUMP JUMPDEST ISZERO PUSH2 0x750 JUMPI DUP7 DUP7 PUSH2 0x694 DUP2 PUSH2 0x68E DUP6 DUP9 PUSH2 0x4A40 JUMP JUMPDEST MLOAD PUSH2 0x4D71 JUMP JUMPDEST DUP1 PUSH0 MSTORE PUSH1 0x5 DUP1 DUP10 MSTORE PUSH2 0x6A7 DUP9 PUSH0 KECCAK256 PUSH2 0x428B JUMP JUMPDEST SWAP2 DUP3 MLOAD DUP11 DUP5 ADD KECCAK256 PUSH2 0x6B6 PUSH2 0x4735 JUMP JUMPDEST DUP12 DUP2 MLOAD SWAP2 ADD KECCAK256 EQ PUSH2 0x746 JUMPI PUSH2 0x6D5 DUP5 PUSH2 0x6CF DUP9 DUP12 PUSH2 0x4A40 JUMP JUMPDEST MLOAD PUSH2 0x4E03 JUMP JUMPDEST PUSH2 0x746 JUMPI PUSH2 0x6EE DUP4 DUP6 PUSH2 0x6E8 DUP10 DUP13 PUSH2 0x4A40 JUMP JUMPDEST MLOAD PUSH2 0x4EF2 JUMP JUMPDEST PUSH0 MSTORE DUP9 MSTORE DUP5 DUP8 PUSH0 KECCAK256 ADD PUSH1 0xFF NOT DUP2 SLOAD AND SWAP1 SSTORE PUSH1 0xD DUP9 MSTORE PUSH0 DUP8 DUP2 KECCAK256 SSTORE PUSH0 DUP1 MLOAD PUSH1 0x20 PUSH2 0x5564 DUP4 CODECOPY DUP2 MLOAD SWAP2 MSTORE PUSH2 0x736 PUSH2 0x723 DUP7 DUP10 PUSH2 0x4A40 JUMP JUMPDEST MLOAD SWAP3 DUP10 MLOAD SWAP2 DUP3 SWAP2 DUP12 DUP4 MSTORE DUP12 DUP4 ADD SWAP1 PUSH2 0x432D JUMP JUMPDEST TIMESTAMP DUP13 DUP4 ADD MSTORE SUB SWAP1 LOG4 JUMPDEST ADD SWAP6 PUSH2 0x640 JUMP JUMPDEST POP POP POP POP POP PUSH2 0x73F JUMP JUMPDEST PUSH2 0x73F JUMP JUMPDEST PUSH1 0x64 SWAP1 PUSH1 0x20 DUP5 MLOAD SWAP2 PUSH3 0x461BCD PUSH1 0xE5 SHL DUP4 MSTORE DUP3 ADD MSTORE PUSH1 0xE PUSH1 0x24 DUP3 ADD MSTORE PUSH14 0x125B9D985B1A59081DD85B1B195D PUSH1 0x92 SHL PUSH1 0x44 DUP3 ADD MSTORE REVERT JUMPDEST DUP3 CALLVALUE PUSH2 0x33D JUMPI PUSH0 CALLDATASIZE PUSH1 0x3 NOT ADD SLT PUSH2 0x33D JUMPI PUSH1 0xC SLOAD SWAP1 MLOAD PUSH1 0x1 PUSH1 0x1 PUSH1 0xA0 SHL SUB SWAP1 SWAP2 AND DUP2 MSTORE PUSH1 0x20 SWAP1 RETURN JUMPDEST DUP3 CALLVALUE PUSH2 0x33D JUMPI PUSH2 0x7C0 CALLDATASIZE PUSH2 0x438B JUMP JUMPDEST SWAP2 PUSH2 0x7D5 PUSH1 0x1 DUP1 PUSH1 0xA0 SHL SUB PUSH0 SLOAD AND CALLER EQ PUSH2 0x4586 JUMP JUMPDEST DUP2 ISZERO PUSH2 0x9C2 JUMPI PUSH2 0x7E6 DUP4 ISZERO ISZERO PUSH2 0x4B0B JUMP JUMPDEST PUSH2 0x7F2 DUP4 DUP4 EQ ISZERO PUSH2 0x4B49 JUMP JUMPDEST DUP2 PUSH0 MSTORE PUSH1 0x2 PUSH1 0x20 DUP2 DUP2 MSTORE PUSH1 0xFF DUP4 PUSH0 KECCAK256 SLOAD AND PUSH2 0x80C DUP2 PUSH2 0x43E9 JUMP JUMPDEST ISZERO PUSH2 0x987 JUMPI DUP5 PUSH0 MSTORE DUP2 DUP2 MSTORE PUSH2 0x831 PUSH1 0xFF DUP5 PUSH0 KECCAK256 SLOAD AND PUSH2 0x82A DUP2 PUSH2 0x43E9 JUMP JUMPDEST ISZERO ISZERO PUSH2 0x4B95 JUMP JUMPDEST DUP4 PUSH0 MSTORE PUSH1 0xE DUP2 MSTORE DUP3 PUSH0 KECCAK256 DUP6 PUSH0 MSTORE DUP2 MSTORE PUSH1 0xFF DUP4 PUSH0 KECCAK256 SLOAD AND PUSH2 0x850 DUP2 PUSH2 0x43E9 JUMP JUMPDEST DUP1 ISZERO SWAP1 DUP2 ISZERO PUSH2 0x973 JUMPI JUMPDEST POP ISZERO PUSH2 0x922 JUMPI DUP3 MLOAD PUSH2 0x86B DUP2 PUSH2 0x3FCC JUMP JUMPDEST DUP3 DUP2 MSTORE DUP2 DUP2 ADD DUP4 DUP2 MSTORE DUP6 PUSH0 MSTORE PUSH1 0xE DUP4 MSTORE DUP5 PUSH0 KECCAK256 DUP8 PUSH0 MSTORE DUP4 MSTORE PUSH2 0x89A DUP6 PUSH0 KECCAK256 SWAP3 MLOAD PUSH2 0x894 DUP2 PUSH2 0x43E9 JUMP JUMPDEST DUP4 PUSH2 0x4976 JUMP JUMPDEST MLOAD SWAP7 PUSH1 0x3 DUP9 LT ISZERO PUSH2 0x90F JUMPI POP PUSH32 0xC5B2E1BD4433EB4E9E181CC803520513D39D918C96BDDEEBCA1224E1C750963D SWAP5 SWAP6 SWAP7 PUSH2 0x8D3 SWAP2 PUSH2 0x49FC JUMP JUMPDEST DUP6 DUP6 PUSH32 0x494D010FDF588A0E83D626EA6963187BDDA6F88B7007F7BF280683D3F7DEA834 DUP6 DUP1 MLOAD DUP7 DUP2 MSTORE TIMESTAMP DUP7 DUP3 ADD MSTORE LOG3 DUP3 MLOAD SWAP2 DUP3 MSTORE TIMESTAMP SWAP1 DUP3 ADD MSTORE LOG3 STOP JUMPDEST PUSH1 0x21 SWAP1 PUSH4 0x4E487B71 PUSH1 0xE0 SHL PUSH0 MSTORE MSTORE PUSH1 0x24 PUSH0 REVERT JUMPDEST DUP6 PUSH1 0x84 SWAP2 DUP5 MLOAD SWAP2 PUSH3 0x461BCD PUSH1 0xE5 SHL DUP4 MSTORE DUP3 ADD MSTORE PUSH1 0x26 PUSH1 0x24 DUP3 ADD MSTORE PUSH32 0x52656C6174696F6E7368697020616C726561647920616374697665206F722070 PUSH1 0x44 DUP3 ADD MSTORE PUSH6 0x656E64696E67 PUSH1 0xD0 SHL PUSH1 0x64 DUP3 ADD MSTORE REVERT JUMPDEST PUSH1 0x3 SWAP2 POP PUSH2 0x980 DUP2 PUSH2 0x43E9 JUMP JUMPDEST EQ DUP8 PUSH2 0x85A JUMP JUMPDEST DUP6 PUSH1 0x64 SWAP2 DUP5 MLOAD SWAP2 PUSH3 0x461BCD PUSH1 0xE5 SHL DUP4 MSTORE DUP3 ADD MSTORE PUSH1 0x16 PUSH1 0x24 DUP3 ADD MSTORE PUSH22 0x151C9D5CDD1BDC881B9BDD081C9959DA5CDD195C9959 PUSH1 0x52 SHL PUSH1 0x44 DUP3 ADD MSTORE REVERT JUMPDEST MLOAD PUSH3 0x461BCD PUSH1 0xE5 SHL DUP2 MSTORE PUSH1 0x20 DUP2 DUP6 ADD MSTORE PUSH1 0xF PUSH1 0x24 DUP3 ADD MSTORE PUSH15 0x24B73B30B634B2103A393AB9BA37B9 PUSH1 0x89 SHL PUSH1 0x44 DUP3 ADD MSTORE PUSH1 0x64 SWAP1 REVERT JUMPDEST SWAP1 POP CALLVALUE PUSH2 0x33D JUMPI PUSH2 0xA06 CALLDATASIZE PUSH2 0x4211 JUMP JUMPDEST SWAP2 SWAP3 SWAP1 PUSH2 0xA15 PUSH2 0x38B CALLER PUSH2 0x4C16 JUMP JUMPDEST PUSH2 0xA20 DUP5 ISZERO ISZERO PUSH2 0x4603 JUMP JUMPDEST PUSH1 0x1 PUSH1 0x1 PUSH1 0xA0 SHL SUB AND SWAP3 PUSH2 0xA35 DUP5 ISZERO ISZERO PUSH2 0x464F JUMP JUMPDEST PUSH2 0xA46 PUSH2 0xA41 DUP5 PUSH2 0x4CF9 JUMP JUMPDEST PUSH2 0x469B JUMP JUMPDEST CALLER PUSH0 MSTORE PUSH1 0x20 SWAP2 PUSH1 0x1 DUP4 MSTORE DUP6 PUSH0 KECCAK256 SLOAD SWAP5 PUSH0 MSTORE DUP6 PUSH0 KECCAK256 SLOAD SWAP3 PUSH2 0xA67 DUP5 ISZERO ISZERO PUSH2 0x449B JUMP JUMPDEST DUP5 MLOAD DUP2 DUP7 ADD KECCAK256 PUSH2 0xA77 DUP8 DUP6 PUSH2 0x4D71 JUMP JUMPDEST PUSH0 MSTORE PUSH1 0x5 DUP3 MSTORE PUSH1 0xFF PUSH1 0x1 DUP10 PUSH0 KECCAK256 ADD SLOAD AND ISZERO PUSH2 0xF9A JUMPI DUP4 PUSH0 MSTORE PUSH1 0x6 DUP3 MSTORE DUP8 PUSH0 KECCAK256 SLOAD ISZERO ISZERO SWAP1 PUSH2 0xAAC PUSH2 0xAA5 PUSH2 0x4735 JUMP JUMPDEST DUP10 DUP8 PUSH2 0x4DA5 JUMP JUMPDEST SWAP2 PUSH2 0xABF PUSH2 0xAB8 PUSH2 0x4756 JUMP JUMPDEST DUP11 DUP9 PUSH2 0x4DA5 JUMP JUMPDEST SWAP2 PUSH2 0xAD2 PUSH2 0xACB PUSH2 0x477F JUMP JUMPDEST DUP12 DUP10 PUSH2 0x4DA5 JUMP JUMPDEST SWAP1 PUSH2 0xADD DUP12 DUP10 PUSH2 0x4E03 JUMP JUMPDEST SWAP1 PUSH2 0xAE6 PUSH2 0x4735 JUMP JUMPDEST DUP1 MLOAD SWAP1 DUP9 ADD KECCAK256 DUP2 SUB PUSH2 0xC26 JUMPI POP POP POP PUSH0 EQ PUSH2 0xBCC JUMPI POP ISZERO PUSH2 0xB8A JUMPI JUMPDEST PUSH2 0xB0C DUP5 DUP5 PUSH2 0x4D71 JUMP JUMPDEST PUSH0 MSTORE PUSH1 0x5 DUP2 MSTORE PUSH1 0xFF PUSH1 0x1 DUP9 PUSH0 KECCAK256 ADD SLOAD AND PUSH2 0xB2C JUMPI POP POP PUSH2 0x433 SWAP5 POP PUSH2 0x507C JUMP JUMPDEST DUP7 MLOAD PUSH3 0x461BCD PUSH1 0xE5 SHL DUP2 MSTORE SWAP2 DUP3 ADD MSTORE PUSH1 0x33 PUSH1 0x24 DUP3 ADD MSTORE PUSH32 0x54617267657420616C726561647920686173206120726F6C652E205573652063 PUSH1 0x44 DUP3 ADD MSTORE PUSH19 0x1A185B99D9549BDB194A0A481A5B9CDD195859 PUSH1 0x6A SHL PUSH1 0x64 DUP3 ADD MSTORE PUSH1 0x84 SWAP2 POP REVERT JUMPDEST DUP7 MLOAD PUSH3 0x461BCD PUSH1 0xE5 SHL DUP2 MSTORE SWAP2 DUP3 ADD DUP2 SWAP1 MSTORE PUSH1 0x24 DUP3 ADD MSTORE PUSH32 0x4F6E6C79206F776E6572732063616E206772616E74206F776E657220726F6C65 PUSH1 0x44 DUP3 ADD MSTORE PUSH1 0x64 SWAP2 POP REVERT JUMPDEST SWAP1 POP PUSH2 0xB02 JUMPI DUP7 MLOAD PUSH3 0x461BCD PUSH1 0xE5 SHL DUP2 MSTORE SWAP2 DUP3 ADD MSTORE PUSH1 0x29 PUSH1 0x24 DUP3 ADD MSTORE PUSH32 0x4F6E6C792061646D696E6973747261746F72732063616E206772616E74206669 PUSH1 0x44 DUP3 ADD MSTORE PUSH9 0x3939BA1037BBB732B9 PUSH1 0xB9 SHL PUSH1 0x64 DUP3 ADD MSTORE PUSH1 0x84 SWAP2 POP REVERT JUMPDEST SWAP1 SWAP2 SWAP3 POP PUSH2 0xC32 PUSH2 0x4756 JUMP JUMPDEST DUP1 MLOAD SWAP1 DUP8 ADD KECCAK256 DUP2 SUB PUSH2 0xCC4 JUMPI POP POP POP DUP2 ISZERO PUSH2 0xCBC JUMPI JUMPDEST POP ISZERO PUSH2 0xC54 JUMPI JUMPDEST PUSH2 0xB02 JUMP JUMPDEST DUP7 MLOAD PUSH3 0x461BCD PUSH1 0xE5 SHL DUP2 MSTORE SWAP2 DUP3 ADD MSTORE PUSH1 0x3B PUSH1 0x24 DUP3 ADD MSTORE PUSH32 0x4F6E6C79206F776E65727320616E642061646D696E6973747261746F72732063 PUSH1 0x44 DUP3 ADD MSTORE PUSH32 0x616E206772616E742061646D696E6973747261746F7220726F6C650000000000 PUSH1 0x64 DUP3 ADD MSTORE PUSH1 0x84 SWAP2 POP REVERT JUMPDEST SWAP1 POP PUSH0 PUSH2 0xC48 JUMP JUMPDEST PUSH2 0xCCF SWAP5 SWAP3 SWAP5 PUSH2 0x477F JUMP JUMPDEST DUP1 MLOAD SWAP1 DUP8 ADD KECCAK256 DUP2 SUB PUSH2 0xE28 JUMPI POP DUP2 ISZERO SWAP2 DUP3 PUSH2 0xE21 JUMPI JUMPDEST DUP1 ISZERO PUSH2 0xE1A JUMPI JUMPDEST DUP1 ISZERO PUSH2 0xE13 JUMPI JUMPDEST ISZERO PUSH2 0xD9A JUMPI DUP4 ISZERO PUSH2 0xD92 JUMPI JUMPDEST POP DUP3 PUSH2 0xD8A JUMPI JUMPDEST POP DUP2 PUSH2 0xD81 JUMPI JUMPDEST POP ISZERO PUSH2 0xB02 JUMPI PUSH2 0xD1D DUP7 DUP5 PUSH2 0x5339 JUMP JUMPDEST MLOAD PUSH2 0xC4F JUMPI DUP7 MLOAD PUSH3 0x461BCD PUSH1 0xE5 SHL DUP2 MSTORE SWAP2 DUP3 ADD MSTORE PUSH1 0x34 PUSH1 0x24 DUP3 ADD MSTORE PUSH32 0x4D757374206861766520616E2061637469766520726F6C6520746F206772616E PUSH1 0x44 DUP3 ADD MSTORE PUSH20 0x7420736861726572207065726D697373696F6E73 PUSH1 0x60 SHL PUSH1 0x64 DUP3 ADD MSTORE PUSH1 0x84 SWAP2 POP REVERT JUMPDEST SWAP1 POP ISZERO PUSH0 PUSH2 0xD0D JUMP JUMPDEST SWAP2 POP PUSH0 PUSH2 0xD06 JUMP JUMPDEST SWAP3 POP PUSH0 PUSH2 0xCFF JUMP JUMPDEST DUP11 MLOAD PUSH3 0x461BCD PUSH1 0xE5 SHL DUP2 MSTORE DUP1 DUP8 ADD DUP7 SWAP1 MSTORE PUSH1 0x47 PUSH1 0x24 DUP3 ADD MSTORE PUSH32 0x4F6E6C79206F776E6572732C2061646D696E6973747261746F72732C20736861 PUSH1 0x44 DUP3 ADD MSTORE PUSH32 0x726572732C206F72207375626A656374732063616E206772616E742073686172 PUSH1 0x64 DUP3 ADD MSTORE PUSH7 0x657220726F6C65 PUSH1 0xC8 SHL PUSH1 0x84 DUP3 ADD MSTORE PUSH1 0xA4 SWAP1 REVERT JUMPDEST POP DUP1 PUSH2 0xCF3 JUMP JUMPDEST POP DUP4 PUSH2 0xCEC JUMP JUMPDEST POP DUP3 PUSH2 0xCE5 JUMP JUMPDEST PUSH2 0xE30 PUSH2 0x47A1 JUMP JUMPDEST DUP7 DUP2 MLOAD SWAP2 ADD KECCAK256 EQ PUSH2 0xE45 JUMPI JUMPDEST POP POP POP POP PUSH2 0xB02 JUMP JUMPDEST DUP2 ISZERO SWAP2 DUP3 PUSH2 0xF93 JUMPI JUMPDEST DUP1 ISZERO PUSH2 0xF8C JUMPI JUMPDEST DUP1 ISZERO PUSH2 0xF85 JUMPI JUMPDEST ISZERO PUSH2 0xF0C JUMPI DUP4 ISZERO PUSH2 0xF04 JUMPI JUMPDEST POP DUP3 PUSH2 0xEFC JUMPI JUMPDEST POP DUP2 PUSH2 0xEF3 JUMPI JUMPDEST POP PUSH2 0xE85 JUMPI JUMPDEST PUSH0 DUP1 DUP1 DUP1 PUSH2 0xE3C JUMP JUMPDEST PUSH2 0xE8F DUP7 DUP5 PUSH2 0x5339 JUMP JUMPDEST MLOAD PUSH2 0xE7C JUMPI DUP7 MLOAD PUSH3 0x461BCD PUSH1 0xE5 SHL DUP2 MSTORE SWAP2 DUP3 ADD MSTORE PUSH1 0x34 PUSH1 0x24 DUP3 ADD MSTORE PUSH32 0x4D757374206861766520616E2061637469766520726F6C6520746F206772616E PUSH1 0x44 DUP3 ADD MSTORE PUSH20 0x7420766965776572207065726D697373696F6E73 PUSH1 0x60 SHL PUSH1 0x64 DUP3 ADD MSTORE PUSH1 0x84 SWAP2 POP REVERT JUMPDEST SWAP1 POP ISZERO PUSH0 PUSH2 0xE76 JUMP JUMPDEST SWAP2 POP PUSH0 PUSH2 0xE6F JUMP JUMPDEST SWAP3 POP PUSH0 PUSH2 0xE68 JUMP JUMPDEST DUP11 MLOAD PUSH3 0x461BCD PUSH1 0xE5 SHL DUP2 MSTORE DUP1 DUP8 ADD DUP7 SWAP1 MSTORE PUSH1 0x47 PUSH1 0x24 DUP3 ADD MSTORE PUSH32 0x4F6E6C79206F776E6572732C2061646D696E6973747261746F72732C20736861 PUSH1 0x44 DUP3 ADD MSTORE PUSH32 0x726572732C206F72207375626A656374732063616E206772616E742076696577 PUSH1 0x64 DUP3 ADD MSTORE PUSH7 0x657220726F6C65 PUSH1 0xC8 SHL PUSH1 0x84 DUP3 ADD MSTORE PUSH1 0xA4 SWAP1 REVERT JUMPDEST POP DUP1 PUSH2 0xE5C JUMP JUMPDEST POP DUP4 PUSH2 0xE55 JUMP JUMPDEST POP DUP3 PUSH2 0xE4E JUMP JUMPDEST PUSH1 0x64 DUP4 DUP4 DUP1 DUP12 MLOAD SWAP3 PUSH3 0x461BCD PUSH1 0xE5 SHL DUP5 MSTORE DUP4 ADD MSTORE PUSH1 0x24 DUP3 ADD MSTORE PUSH32 0x596F752068617665206E6F20726F6C6520666F722074686973207265636F7264 PUSH1 0x44 DUP3 ADD MSTORE REVERT JUMPDEST DUP3 CALLVALUE PUSH2 0x33D JUMPI PUSH1 0x60 CALLDATASIZE PUSH1 0x3 NOT ADD SLT PUSH2 0x33D JUMPI DUP2 CALLDATALOAD SWAP1 PUSH1 0x24 CALLDATALOAD PUSH1 0x3 DUP2 LT ISZERO PUSH2 0x33D JUMPI PUSH1 0x44 CALLDATALOAD PUSH1 0x1 PUSH1 0x1 PUSH1 0x40 SHL SUB DUP2 GT PUSH2 0x33D JUMPI PUSH2 0x101A SWAP1 CALLDATASIZE SWAP1 DUP7 ADD PUSH2 0x404E JUMP JUMPDEST PUSH2 0x1026 PUSH2 0x38B CALLER PUSH2 0x4C16 JUMP JUMPDEST CALLER PUSH0 MSTORE PUSH1 0x1 SWAP4 PUSH1 0x20 SWAP2 DUP6 DUP4 MSTORE DUP5 PUSH0 KECCAK256 SLOAD PUSH2 0x1041 DUP4 ISZERO ISZERO PUSH2 0x4B0B JUMP JUMPDEST PUSH2 0x104D DUP4 DUP3 EQ ISZERO PUSH2 0x4B49 JUMP JUMPDEST DUP3 PUSH0 MSTORE PUSH1 0x2 DUP5 MSTORE PUSH1 0xFF SWAP2 PUSH2 0x106A PUSH1 0xFF DUP9 PUSH0 KECCAK256 SLOAD AND PUSH2 0x82A DUP2 PUSH2 0x43E9 JUMP JUMPDEST DUP2 PUSH0 MSTORE PUSH1 0xE DUP6 MSTORE DUP7 PUSH0 KECCAK256 DUP5 PUSH0 MSTORE DUP6 MSTORE PUSH1 0xFF DUP8 PUSH0 KECCAK256 SLOAD AND PUSH2 0x1089 DUP2 PUSH2 0x43E9 JUMP JUMPDEST DUP10 DUP2 ISZERO SWAP2 DUP3 ISZERO PUSH2 0x128D JUMPI JUMPDEST DUP3 ISZERO PUSH2 0x1279 JUMPI JUMPDEST POP POP ISZERO PUSH2 0x1228 JUMPI DUP7 MLOAD PUSH2 0x10AD DUP2 PUSH2 0x3FCC JUMP JUMPDEST DUP9 DUP2 MSTORE DUP6 DUP2 ADD PUSH2 0x10BD DUP9 DUP3 PUSH2 0x4A54 JUMP JUMPDEST DUP4 PUSH0 MSTORE PUSH1 0xE DUP8 MSTORE DUP9 PUSH0 KECCAK256 DUP7 PUSH0 MSTORE DUP8 MSTORE PUSH2 0x10DD DUP10 PUSH0 KECCAK256 SWAP3 MLOAD PUSH2 0x894 DUP2 PUSH2 0x43E9 JUMP JUMPDEST MLOAD SWAP10 PUSH1 0x3 DUP12 LT ISZERO PUSH2 0x90F JUMPI POP DUP9 SWAP10 PUSH2 0x10F4 SWAP2 PUSH2 0x49FC JUMP JUMPDEST DUP4 DUP3 PUSH32 0x494D010FDF588A0E83D626EA6963187BDDA6F88B7007F7BF280683D3F7DEA834 DUP10 DUP1 MLOAD PUSH2 0x1124 DUP2 DUP13 PUSH2 0x4407 JUMP JUMPDEST TIMESTAMP DUP11 DUP3 ADD MSTORE LOG3 PUSH0 SWAP8 JUMPDEST PUSH2 0x1133 JUMPI STOP JUMPDEST DUP1 MLOAD DUP9 LT ISZERO PUSH2 0x433 JUMPI DUP9 DUP9 PUSH2 0x1149 DUP3 SWAP11 DUP5 PUSH2 0x4A40 JUMP JUMPDEST MLOAD PUSH2 0x1155 DUP10 DUP7 DUP4 PUSH2 0x52E3 JUMP JUMPDEST PUSH2 0x115E DUP2 PUSH2 0x4CF9 JUMP JUMPDEST ISZERO PUSH2 0x1221 JUMPI PUSH2 0x116D DUP7 DUP4 PUSH2 0x4D71 JUMP JUMPDEST PUSH0 MSTORE PUSH1 0x5 DUP1 DUP11 MSTORE DUP8 DUP6 DUP14 PUSH0 KECCAK256 ADD SLOAD AND ISZERO PUSH2 0x1219 JUMPI PUSH2 0x118B DUP10 DUP5 PUSH2 0x4D71 JUMP JUMPDEST PUSH0 MSTORE DUP10 MSTORE DUP6 DUP8 DUP6 DUP14 PUSH0 KECCAK256 ADD SLOAD AND PUSH2 0x1219 JUMPI PUSH2 0x11A7 SWAP2 DUP10 DUP5 PUSH2 0x507C JUMP JUMPDEST DUP5 PUSH0 MSTORE PUSH1 0x10 DUP1 DUP10 MSTORE DUP11 PUSH0 KECCAK256 DUP9 PUSH0 MSTORE DUP10 MSTORE DUP11 PUSH0 KECCAK256 DUP3 PUSH0 MSTORE DUP10 MSTORE DUP7 DUP12 PUSH0 KECCAK256 SLOAD AND ISZERO PUSH2 0x11D5 JUMPI JUMPDEST POP POP JUMPDEST ADD SWAP8 PUSH2 0x112D JUMP JUMPDEST DUP6 PUSH0 MSTORE PUSH1 0xF DUP10 MSTORE DUP11 PUSH0 KECCAK256 DUP9 PUSH0 MSTORE DUP10 MSTORE PUSH2 0x11F0 DUP3 DUP13 PUSH0 KECCAK256 PUSH2 0x4BDA JUMP JUMPDEST DUP6 PUSH0 MSTORE DUP9 MSTORE DUP10 PUSH0 KECCAK256 DUP8 PUSH0 MSTORE DUP9 MSTORE DUP10 PUSH0 KECCAK256 SWAP1 PUSH0 MSTORE DUP8 MSTORE DUP9 PUSH0 KECCAK256 DUP3 PUSH1 0xFF NOT DUP3 SLOAD AND OR SWAP1 SSTORE DUP12 DUP1 PUSH2 0x11CB JUMP JUMPDEST POP POP POP PUSH2 0x11CE JUMP JUMPDEST POP POP PUSH2 0x11CE JUMP JUMPDEST DUP7 MLOAD PUSH3 0x461BCD PUSH1 0xE5 SHL DUP2 MSTORE DUP1 DUP11 ADD DUP7 SWAP1 MSTORE PUSH1 0x25 PUSH1 0x24 DUP3 ADD MSTORE PUSH32 0x50726F706F73616C20616C726561647920657869737473206F72206973207065 PUSH1 0x44 DUP3 ADD MSTORE PUSH5 0x6E64696E67 PUSH1 0xD8 SHL PUSH1 0x64 DUP3 ADD MSTORE PUSH1 0x84 SWAP1 REVERT JUMPDEST SWAP1 SWAP2 POP PUSH2 0x1285 DUP2 PUSH2 0x43E9 JUMP JUMPDEST EQ DUP10 DUP12 PUSH2 0x109B JUMP JUMPDEST DUP1 SWAP3 POP PUSH2 0x129A SWAP2 POP PUSH2 0x43E9 JUMP JUMPDEST DUP10 PUSH1 0x3 DUP3 EQ SWAP2 PUSH2 0x1094 JUMP JUMPDEST DUP3 CALLVALUE PUSH2 0x33D JUMPI DUP1 PUSH1 0x3 NOT CALLDATASIZE ADD SLT PUSH2 0x33D JUMPI DUP2 CALLDATALOAD PUSH2 0x12C0 PUSH2 0x3FB6 JUMP JUMPDEST PUSH2 0x12CB DUP3 ISZERO ISZERO PUSH2 0x4603 JUMP JUMPDEST PUSH1 0x1 PUSH1 0x1 PUSH1 0xA0 SHL SUB AND SWAP3 PUSH2 0x12E0 DUP5 ISZERO ISZERO PUSH2 0x464F JUMP JUMPDEST CALLER PUSH0 MSTORE PUSH1 0x20 SWAP3 PUSH1 0x1 DUP5 MSTORE DUP1 PUSH0 KECCAK256 SLOAD SWAP5 PUSH0 MSTORE DUP1 PUSH0 KECCAK256 SLOAD SWAP4 PUSH2 0x1301 DUP6 ISZERO ISZERO PUSH2 0x449B JUMP JUMPDEST PUSH2 0x130B DUP6 DUP6 PUSH2 0x4D71 JUMP JUMPDEST DUP1 PUSH0 MSTORE PUSH1 0x5 DUP3 MSTORE PUSH2 0x1324 PUSH1 0xFF PUSH1 0x1 DUP6 PUSH0 KECCAK256 ADD SLOAD AND PUSH2 0x46DD JUMP JUMPDEST DUP1 PUSH0 MSTORE PUSH1 0x5 DUP3 MSTORE PUSH2 0x1336 DUP4 PUSH0 KECCAK256 PUSH2 0x428B JUMP JUMPDEST SWAP4 DUP5 MLOAD DUP4 DUP7 ADD KECCAK256 PUSH2 0x1345 PUSH2 0x4735 JUMP JUMPDEST DUP5 DUP2 MLOAD SWAP2 ADD KECCAK256 DUP2 EQ PUSH2 0x16F1 JUMPI PUSH2 0x135B DUP9 DUP9 PUSH2 0x4E03 JUMP JUMPDEST PUSH2 0x1662 JUMPI DUP8 DUP10 SUB PUSH2 0x1469 JUMPI JUMPDEST PUSH2 0x136F PUSH2 0x4756 JUMP JUMPDEST DUP5 DUP2 MLOAD SWAP2 ADD KECCAK256 EQ PUSH2 0x13D4 JUMPI JUMPDEST POP SWAP1 DUP4 SWAP3 SWAP2 PUSH2 0x1399 PUSH0 DUP1 MLOAD PUSH1 0x20 PUSH2 0x5564 DUP4 CODECOPY DUP2 MLOAD SWAP2 MSTORE SWAP6 DUP9 DUP9 PUSH2 0x4EF2 JUMP JUMPDEST PUSH0 MSTORE PUSH1 0x5 DUP2 MSTORE PUSH1 0x1 DUP3 PUSH0 KECCAK256 ADD PUSH1 0xFF NOT DUP2 SLOAD AND SWAP1 SSTORE PUSH1 0xD DUP2 MSTORE PUSH0 DUP3 DUP2 KECCAK256 SSTORE PUSH2 0x13C9 DUP3 MLOAD SWAP4 DUP4 DUP6 SWAP5 DUP6 MSTORE DUP5 ADD SWAP1 PUSH2 0x432D JUMP JUMPDEST SWAP1 TIMESTAMP SWAP1 DUP4 ADD MSTORE SUB SWAP1 LOG4 STOP JUMPDEST DUP6 PUSH0 MSTORE PUSH1 0x7 DUP4 MSTORE PUSH1 0x1 DUP5 PUSH0 KECCAK256 SLOAD GT PUSH1 0x6 DUP5 MSTORE DUP5 PUSH0 KECCAK256 SLOAD ISZERO ISZERO DUP2 ISZERO PUSH2 0x1461 JUMPI JUMPDEST POP PUSH2 0x137B JUMPI DUP4 MLOAD PUSH3 0x461BCD PUSH1 0xE5 SHL DUP2 MSTORE SWAP1 DUP2 ADD DUP4 SWAP1 MSTORE PUSH1 0x39 PUSH1 0x24 DUP3 ADD MSTORE PUSH32 0x43616E6E6F74207265766F6B65206C6173742061646D696E6973747261746F72 PUSH1 0x44 DUP3 ADD MSTORE PUSH32 0x20776974686F757420616E206F776E65722070726573656E7400000000000000 PUSH1 0x64 DUP3 ADD MSTORE PUSH1 0x84 SWAP1 REVERT JUMPDEST SWAP1 POP DUP10 PUSH2 0x13F3 JUMP JUMPDEST PUSH2 0x147B PUSH2 0x1474 PUSH2 0x4735 JUMP JUMPDEST DUP11 DUP10 PUSH2 0x4DA5 JUMP JUMPDEST PUSH2 0x148D PUSH2 0x1486 PUSH2 0x4756 JUMP JUMPDEST DUP12 DUP11 PUSH2 0x4DA5 JUMP JUMPDEST DUP5 PUSH0 MSTORE PUSH1 0xD DUP7 MSTORE DUP11 DUP8 PUSH0 KECCAK256 SLOAD EQ SWAP1 PUSH2 0x14A3 PUSH2 0x47A1 JUMP JUMPDEST DUP8 DUP2 MLOAD SWAP2 ADD KECCAK256 DUP5 EQ DUP1 ISZERO PUSH2 0x164C JUMPI JUMPDEST ISZERO PUSH2 0x155E JUMPI DUP3 ISZERO PUSH2 0x1556 JUMPI JUMPDEST POP DUP2 ISZERO PUSH2 0x154E JUMPI JUMPDEST POP ISZERO PUSH2 0x14D2 JUMPI JUMPDEST PUSH2 0x1367 JUMP JUMPDEST DUP5 MLOAD PUSH3 0x461BCD PUSH1 0xE5 SHL DUP2 MSTORE DUP1 DUP4 ADD DUP6 SWAP1 MSTORE PUSH1 0x4A PUSH1 0x24 DUP3 ADD MSTORE PUSH32 0x4F6E6C79206F776E6572732C2061646D696E6973747261746F72732C206F7220 PUSH1 0x44 DUP3 ADD MSTORE PUSH32 0x746865206772616E7465722063616E207265766F6B65207669657765722F7368 PUSH1 0x64 DUP3 ADD MSTORE PUSH10 0x6172657220726F6C6573 PUSH1 0xB0 SHL PUSH1 0x84 DUP3 ADD MSTORE PUSH1 0xA4 SWAP1 REVERT JUMPDEST SWAP1 POP DUP11 PUSH2 0x14C6 JUMP JUMPDEST SWAP2 POP DUP12 PUSH2 0x14BE JUMP JUMPDEST DUP3 ISZERO SWAP3 SWAP2 POP DUP3 PUSH2 0x1644 JUMPI JUMPDEST POP ISZERO PUSH2 0x15E9 JUMPI ISZERO PUSH2 0x1367 JUMPI PUSH2 0x157C PUSH2 0x4756 JUMP JUMPDEST DUP5 DUP2 MLOAD SWAP2 ADD KECCAK256 DUP2 SUB PUSH2 0x14CD JUMPI DUP7 PUSH0 MSTORE PUSH1 0x6 DUP5 MSTORE DUP5 PUSH0 KECCAK256 SLOAD ISZERO PUSH2 0x14CD JUMPI DUP5 MLOAD PUSH3 0x461BCD PUSH1 0xE5 SHL DUP2 MSTORE DUP1 DUP4 ADD DUP6 SWAP1 MSTORE PUSH1 0x25 PUSH1 0x24 DUP3 ADD MSTORE PUSH32 0x4F6E6C79206F776E6572732063616E207265766F6B652061646D696E69737472 PUSH1 0x44 DUP3 ADD MSTORE PUSH5 0x61746F7273 PUSH1 0xD8 SHL PUSH1 0x64 DUP3 ADD MSTORE PUSH1 0x84 SWAP1 REVERT JUMPDEST DUP6 MLOAD PUSH3 0x461BCD PUSH1 0xE5 SHL DUP2 MSTORE DUP1 DUP5 ADD DUP7 SWAP1 MSTORE PUSH1 0x2F PUSH1 0x24 DUP3 ADD MSTORE PUSH32 0x4F6E6C79206F776E65727320616E642061646D696E6973747261746F72732063 PUSH1 0x44 DUP3 ADD MSTORE PUSH15 0x616E207265766F6B6520726F6C6573 PUSH1 0x88 SHL PUSH1 0x64 DUP3 ADD MSTORE PUSH1 0x84 SWAP1 REVERT JUMPDEST SWAP1 POP DUP12 PUSH2 0x1569 JUMP JUMPDEST POP PUSH2 0x1655 PUSH2 0x477F JUMP JUMPDEST DUP8 DUP2 MLOAD SWAP2 ADD KECCAK256 DUP5 EQ PUSH2 0x14B2 JUMP JUMPDEST DUP5 MLOAD PUSH3 0x461BCD PUSH1 0xE5 SHL DUP2 MSTORE DUP1 DUP4 ADD DUP6 SWAP1 MSTORE PUSH1 0x57 PUSH1 0x24 DUP3 ADD MSTORE PUSH32 0x43616E6E6F74207265766F6B6520616E20616374697665207375626A65637427 PUSH1 0x44 DUP3 ADD MSTORE PUSH32 0x7320726F6C652E20416374697665207375626A65637473206D75737420686F6C PUSH1 0x64 DUP3 ADD MSTORE PUSH32 0x64206174206C656173742073686172657220726F6C652E000000000000000000 PUSH1 0x84 DUP3 ADD MSTORE PUSH1 0xA4 SWAP1 REVERT JUMPDEST DUP5 MLOAD PUSH3 0x461BCD PUSH1 0xE5 SHL DUP2 MSTORE DUP1 DUP4 ADD DUP6 SWAP1 MSTORE PUSH1 0x45 PUSH1 0x24 DUP3 ADD MSTORE PUSH32 0x4F776E6572732063616E6E6F74206265207265766F6B65642E204F776E657220 PUSH1 0x44 DUP3 ADD MSTORE PUSH32 0x6D7573742075736520766F6C756E746172696C794C656176654F776E65727368 PUSH1 0x64 DUP3 ADD MSTORE PUSH5 0x34B8141497 PUSH1 0xD9 SHL PUSH1 0x84 DUP3 ADD MSTORE PUSH1 0xA4 SWAP1 REVERT JUMPDEST SWAP1 POP CALLVALUE PUSH2 0x33D JUMPI PUSH1 0x20 SWAP1 DUP2 PUSH1 0x3 NOT CALLDATASIZE ADD SLT PUSH2 0x33D JUMPI DUP3 SWAP1 CALLDATALOAD PUSH0 MSTORE PUSH1 0x3 DUP3 MSTORE DUP1 PUSH0 KECCAK256 DUP2 MLOAD SWAP3 DUP4 DUP2 DUP4 SLOAD SWAP2 DUP3 DUP2 MSTORE ADD SWAP1 DUP2 SWAP4 PUSH0 MSTORE DUP3 PUSH0 KECCAK256 SWAP1 PUSH0 JUMPDEST DUP2 DUP2 LT PUSH2 0x17FA JUMPI POP POP POP DUP5 PUSH2 0x17B6 SWAP2 SUB DUP6 PUSH2 0x4016 JUMP JUMPDEST DUP3 MLOAD DUP2 DUP2 MSTORE SWAP4 MLOAD DUP2 DUP6 ADD DUP2 SWAP1 MSTORE DUP5 SWAP4 DUP5 ADD SWAP3 SWAP2 PUSH0 JUMPDEST DUP3 DUP2 LT PUSH2 0x17DA JUMPI POP POP POP POP SUB SWAP1 RETURN JUMPDEST DUP4 MLOAD PUSH1 0x1 PUSH1 0x1 PUSH1 0xA0 SHL SUB AND DUP6 MSTORE DUP7 SWAP6 POP SWAP4 DUP2 ADD SWAP4 SWAP3 DUP2 ADD SWAP3 PUSH1 0x1 ADD PUSH2 0x17CB JUMP JUMPDEST DUP3 SLOAD PUSH1 0x1 PUSH1 0x1 PUSH1 0xA0 SHL SUB AND DUP5 MSTORE SWAP3 DUP5 ADD SWAP3 PUSH1 0x1 SWAP3 DUP4 ADD SWAP3 ADD PUSH2 0x17A0 JUMP JUMPDEST DUP3 CALLVALUE PUSH2 0x33D JUMPI PUSH1 0x20 CALLDATASIZE PUSH1 0x3 NOT ADD SLT PUSH2 0x33D JUMPI PUSH1 0x20 SWAP2 CALLDATALOAD PUSH0 MSTORE PUSH1 0xD DUP3 MSTORE DUP1 PUSH0 KECCAK256 SLOAD SWAP1 MLOAD SWAP1 DUP2 MSTORE RETURN JUMPDEST DUP3 CALLVALUE PUSH2 0x33D JUMPI PUSH1 0x20 CALLDATASIZE PUSH1 0x3 NOT ADD SLT PUSH2 0x33D JUMPI PUSH1 0x20 SWAP1 PUSH2 0x1863 PUSH2 0x185E PUSH2 0x3FA0 JUMP JUMPDEST PUSH2 0x5291 JUMP JUMPDEST SWAP1 MLOAD SWAP1 ISZERO ISZERO DUP2 MSTORE RETURN JUMPDEST DUP3 CALLVALUE PUSH2 0x33D JUMPI PUSH2 0x187B CALLDATASIZE PUSH2 0x438B JUMP JUMPDEST SWAP1 SWAP3 PUSH2 0x1889 PUSH2 0x38B CALLER PUSH2 0x4C16 JUMP JUMPDEST CALLER PUSH0 MSTORE PUSH1 0x1 SWAP4 PUSH1 0x20 SWAP2 DUP6 DUP4 MSTORE DUP5 PUSH0 KECCAK256 SLOAD SWAP1 DUP3 DUP3 EQ DUP1 ISZERO PUSH2 0x1AF2 JUMPI JUMPDEST ISZERO PUSH2 0x1AB1 JUMPI DUP3 PUSH0 MSTORE PUSH1 0xE DUP5 MSTORE DUP6 PUSH0 KECCAK256 DUP6 PUSH0 MSTORE DUP5 MSTORE PUSH1 0xFF SWAP1 PUSH1 0xFF DUP8 PUSH0 KECCAK256 SLOAD AND PUSH2 0x18CB DUP2 PUSH2 0x43E9 JUMP JUMPDEST DUP9 PUSH1 0x2 DUP3 EQ SWAP2 DUP3 ISZERO PUSH2 0x1A9D JUMPI JUMPDEST POP POP ISZERO PUSH2 0x1A50 JUMPI POP DUP3 PUSH0 MSTORE PUSH1 0xE DUP5 MSTORE DUP6 PUSH0 KECCAK256 DUP6 PUSH0 MSTORE DUP5 MSTORE DUP6 PUSH0 KECCAK256 SWAP1 PUSH1 0x3 PUSH1 0xFF NOT SWAP3 PUSH1 0x3 DUP5 DUP3 SLOAD AND OR SWAP1 SSTORE DUP4 DUP8 DUP7 PUSH32 0x6DF3A6475FAB2EED139F7E469995B04E85BFC5B4B8642587109CB72541F74FAE DUP10 DUP13 MLOAD TIMESTAMP DUP2 MSTORE LOG4 DUP5 PUSH0 MSTORE PUSH1 0xF DUP7 MSTORE DUP8 PUSH0 KECCAK256 DUP8 PUSH0 MSTORE DUP7 MSTORE DUP8 PUSH0 KECCAK256 DUP10 PUSH0 SWAP1 JUMPDEST PUSH2 0x1963 JUMPI JUMPDEST PUSH2 0x433 DUP11 DUP11 DUP11 DUP11 PUSH0 MSTORE PUSH1 0xF DUP2 MSTORE DUP3 PUSH0 KECCAK256 SWAP2 PUSH0 MSTORE MSTORE PUSH0 KECCAK256 PUSH2 0x4ADB JUMP JUMPDEST DUP2 SLOAD DUP2 LT ISZERO PUSH2 0x1A4B JUMPI SWAP1 DUP11 DUP3 DUP8 DUP12 DUP14 DUP13 PUSH2 0x1982 DUP7 SWAP13 SWAP12 SWAP11 SWAP10 SWAP9 DUP9 PUSH2 0x43C0 JUMP JUMPDEST SWAP1 SLOAD SWAP1 DUP10 SHL SHR SWAP2 DUP14 PUSH0 MSTORE PUSH1 0x10 DUP3 MSTORE DUP1 PUSH0 KECCAK256 DUP5 PUSH0 MSTORE DUP3 MSTORE DUP1 PUSH0 KECCAK256 DUP4 PUSH0 MSTORE DUP3 MSTORE DUP1 PUSH0 KECCAK256 DUP12 DUP2 SLOAD AND SWAP1 SSTORE PUSH2 0x19B3 DUP5 DUP5 PUSH2 0x4D71 JUMP JUMPDEST PUSH0 MSTORE PUSH1 0x5 SWAP1 DUP2 DUP4 MSTORE DUP11 DUP9 DUP3 PUSH0 KECCAK256 ADD SLOAD AND ISZERO PUSH2 0x1A40 JUMPI PUSH0 DUP1 MLOAD PUSH1 0x20 PUSH2 0x5564 DUP4 CODECOPY DUP2 MLOAD SWAP2 MSTORE SWAP3 PUSH2 0x19E1 DUP7 DUP7 PUSH2 0x4D71 JUMP JUMPDEST SWAP3 DUP4 PUSH0 MSTORE DUP1 DUP3 MSTORE PUSH2 0x19F3 DUP4 PUSH0 KECCAK256 PUSH2 0x428B JUMP JUMPDEST SWAP4 PUSH2 0x19FF DUP6 DUP10 DUP10 PUSH2 0x4EF2 JUMP JUMPDEST PUSH0 MSTORE DUP2 MSTORE DUP9 DUP3 PUSH0 KECCAK256 ADD DUP14 DUP2 SLOAD AND SWAP1 SSTORE PUSH1 0xD DUP2 MSTORE PUSH0 DUP3 DUP2 KECCAK256 SSTORE PUSH2 0x1A2A DUP3 MLOAD SWAP4 DUP4 DUP6 SWAP5 DUP6 MSTORE DUP5 ADD SWAP1 PUSH2 0x432D JUMP JUMPDEST SWAP1 TIMESTAMP SWAP1 DUP4 ADD MSTORE SUB SWAP1 LOG4 JUMPDEST ADD SWAP1 SWAP2 SWAP3 SWAP4 SWAP5 SWAP6 PUSH2 0x1943 JUMP JUMPDEST POP POP POP POP POP POP PUSH2 0x1A34 JUMP JUMPDEST PUSH2 0x1948 JUMP JUMPDEST DUP7 MLOAD PUSH3 0x461BCD PUSH1 0xE5 SHL DUP2 MSTORE SWAP1 DUP2 ADD DUP6 SWAP1 MSTORE PUSH1 0x21 PUSH1 0x24 DUP3 ADD MSTORE PUSH32 0x4E6F20616374697665206F722070656E64696E672072656C6174696F6E736869 PUSH1 0x44 DUP3 ADD MSTORE PUSH1 0x7 PUSH1 0xFC SHL PUSH1 0x64 DUP3 ADD MSTORE PUSH1 0x84 SWAP1 REVERT JUMPDEST SWAP1 SWAP2 POP PUSH2 0x1AA9 DUP2 PUSH2 0x43E9 JUMP JUMPDEST EQ DUP9 DUP11 PUSH2 0x18D8 JUMP JUMPDEST PUSH1 0x64 SWAP1 DUP5 DUP1 DUP9 MLOAD SWAP3 PUSH3 0x461BCD PUSH1 0xE5 SHL DUP5 MSTORE DUP4 ADD MSTORE PUSH1 0x24 DUP3 ADD MSTORE PUSH32 0x4E6F74206120706172747920746F20746869732072656C6174696F6E73686970 PUSH1 0x44 DUP3 ADD MSTORE REVERT JUMPDEST POP DUP5 DUP3 EQ PUSH2 0x18A4 JUMP JUMPDEST DUP3 CALLVALUE PUSH2 0x33D JUMPI DUP1 PUSH1 0x3 NOT CALLDATASIZE ADD SLT PUSH2 0x33D JUMPI PUSH2 0x1863 PUSH1 0x20 SWAP3 PUSH2 0x1B1A PUSH2 0x3FB6 JUMP JUMPDEST SWAP1 CALLDATALOAD PUSH2 0x4A9E JUMP JUMPDEST DUP3 CALLVALUE PUSH2 0x33D JUMPI PUSH1 0x20 CALLDATASIZE PUSH1 0x3 NOT ADD SLT PUSH2 0x33D JUMPI PUSH32 0xCE59AD7D6DABE8A7533ED7D9BD07D276A046AC7AC9A8E8E8971DA4B81104A28B PUSH1 0x20 PUSH2 0x1B5E PUSH2 0x3FA0 JUMP JUMPDEST PUSH0 SLOAD PUSH1 0x1 PUSH1 0x1 PUSH1 0xA0 SHL SUB SWAP2 SWAP1 PUSH2 0x1B77 SWAP1 DUP4 AND CALLER EQ PUSH2 0x4586 JUMP JUMPDEST AND SWAP3 PUSH2 0x1B84 DUP5 ISZERO ISZERO PUSH2 0x4A60 JUMP JUMPDEST PUSH1 0xC DUP1 SLOAD PUSH1 0x1 PUSH1 0x1 PUSH1 0xA0 SHL SUB NOT AND DUP6 OR SWAP1 SSTORE MLOAD TIMESTAMP DUP2 MSTORE LOG2 STOP JUMPDEST DUP3 CALLVALUE PUSH2 0x33D JUMPI PUSH2 0x1BDF SWAP1 PUSH2 0x1BB0 CALLDATASIZE PUSH2 0x438B JUMP JUMPDEST SWAP1 PUSH0 MSTORE PUSH1 0xF PUSH1 0x20 MSTORE DUP2 PUSH0 KECCAK256 SWAP1 PUSH0 MSTORE PUSH1 0x20 MSTORE PUSH2 0x1BCC DUP2 PUSH0 KECCAK256 PUSH2 0x44E7 JUMP JUMPDEST SWAP1 MLOAD SWAP2 DUP3 SWAP2 PUSH1 0x20 DUP4 MSTORE PUSH1 0x20 DUP4 ADD SWAP1 PUSH2 0x41DE JUMP JUMPDEST SUB SWAP1 RETURN JUMPDEST DUP3 CALLVALUE PUSH2 0x33D JUMPI PUSH1 0x20 CALLDATASIZE PUSH1 0x3 NOT ADD SLT PUSH2 0x33D JUMPI PUSH2 0x1BDF SWAP2 CALLDATALOAD PUSH0 MSTORE PUSH1 0x6 PUSH1 0x20 MSTORE PUSH2 0x1BCC DUP2 PUSH0 KECCAK256 PUSH2 0x44E7 JUMP JUMPDEST DUP3 CALLVALUE PUSH2 0x33D JUMPI PUSH0 CALLDATASIZE PUSH1 0x3 NOT ADD SLT PUSH2 0x33D JUMPI PUSH1 0x20 SWAP2 SLOAD SWAP1 MLOAD SWAP1 DUP2 MSTORE RETURN JUMPDEST SWAP1 POP CALLVALUE PUSH2 0x33D JUMPI PUSH1 0x20 CALLDATASIZE PUSH1 0x3 NOT ADD SLT PUSH2 0x33D JUMPI PUSH2 0x1C43 PUSH2 0x3FA0 JUMP JUMPDEST PUSH0 SLOAD PUSH1 0x1 PUSH1 0x1 PUSH1 0xA0 SHL SUB SWAP2 SWAP1 PUSH2 0x1C5C SWAP1 DUP4 AND CALLER EQ PUSH2 0x4586 JUMP JUMPDEST AND DUP1 PUSH0 MSTORE PUSH1 0x1 SWAP2 DUP3 PUSH1 0x20 MSTORE PUSH2 0x1C75 DUP5 PUSH0 KECCAK256 SLOAD ISZERO ISZERO PUSH2 0x45BF JUMP JUMPDEST DUP2 PUSH0 MSTORE DUP3 PUSH1 0x20 MSTORE PUSH1 0xFF DUP4 DUP6 PUSH0 KECCAK256 ADD SLOAD AND PUSH2 0x1CA4 JUMPI POP SWAP2 DUP2 SWAP3 PUSH0 MSTORE DUP2 PUSH1 0x20 MSTORE PUSH0 KECCAK256 ADD SWAP1 PUSH1 0xFF NOT DUP3 SLOAD AND OR SWAP1 SSTORE PUSH0 DUP1 RETURN JUMPDEST PUSH1 0x64 SWAP1 PUSH1 0x20 DUP6 MLOAD SWAP2 PUSH3 0x461BCD PUSH1 0xE5 SHL DUP4 MSTORE DUP3 ADD MSTORE PUSH1 0x15 PUSH1 0x24 DUP3 ADD MSTORE PUSH21 0x57616C6C657420616C726561647920616374697665 PUSH1 0x58 SHL PUSH1 0x44 DUP3 ADD MSTORE REVERT JUMPDEST DUP3 CALLVALUE PUSH2 0x33D JUMPI PUSH1 0x20 SWAP1 DUP2 PUSH1 0x3 NOT CALLDATASIZE ADD SLT PUSH2 0x33D JUMPI DUP3 CALLDATALOAD SWAP2 PUSH2 0x1D02 PUSH2 0x38B CALLER PUSH2 0x4C16 JUMP JUMPDEST CALLER PUSH0 MSTORE PUSH1 0x1 DUP2 MSTORE DUP2 PUSH0 KECCAK256 SLOAD SWAP4 DUP4 PUSH0 MSTORE PUSH1 0xE DUP3 MSTORE DUP3 PUSH0 KECCAK256 DUP6 PUSH0 MSTORE DUP3 MSTORE DUP3 PUSH0 KECCAK256 SWAP1 DUP2 SLOAD SWAP1 PUSH1 0x1 PUSH1 0xFF DUP4 AND PUSH2 0x1D33 DUP2 PUSH2 0x43E9 JUMP JUMPDEST SUB PUSH2 0x1D82 JUMPI POP SWAP2 PUSH2 0x1D7A PUSH1 0xFF SWAP3 PUSH1 0x2 PUSH32 0xC5B2E1BD4433EB4E9E181CC803520513D39D918C96BDDEEBCA1224E1C750963D SWAP7 SWAP6 DUP6 NOT AND OR DUP1 SWAP2 SSTORE DUP5 MLOAD SWAP4 DUP5 SWAP2 PUSH1 0x8 SHR AND PUSH2 0x4407 JUMP JUMPDEST TIMESTAMP SWAP1 DUP3 ADD MSTORE LOG3 STOP JUMPDEST DUP5 MLOAD PUSH3 0x461BCD PUSH1 0xE5 SHL DUP2 MSTORE SWAP1 DUP2 ADD DUP5 SWAP1 MSTORE PUSH1 0x13 PUSH1 0x24 DUP3 ADD MSTORE PUSH19 0x139BC81C195B991A5B99C81C1C9BDC1BDCD85B PUSH1 0x6A SHL PUSH1 0x44 DUP3 ADD MSTORE PUSH1 0x64 SWAP1 REVERT JUMPDEST DUP3 CALLVALUE PUSH2 0x33D JUMPI PUSH0 CALLDATASIZE PUSH1 0x3 NOT ADD SLT PUSH2 0x33D JUMPI DUP1 MLOAD PUSH2 0x1BDF SWAP2 PUSH2 0x1DDB DUP3 PUSH2 0x3FCC JUMP JUMPDEST PUSH1 0x5 DUP3 MSTORE PUSH5 0x352E302E3 PUSH1 0xDC SHL PUSH1 0x20 DUP4 ADD MSTORE MLOAD SWAP2 DUP3 SWAP2 PUSH1 0x20 DUP4 MSTORE PUSH1 0x20 DUP4 ADD SWAP1 PUSH2 0x432D JUMP JUMPDEST SWAP1 POP CALLVALUE PUSH2 0x33D JUMPI PUSH2 0x1E0F CALLDATASIZE PUSH2 0x43A1 JUMP JUMPDEST SWAP2 PUSH2 0x1E1C PUSH2 0x38B CALLER PUSH2 0x4C16 JUMP JUMPDEST CALLER PUSH0 MSTORE PUSH1 0x1 PUSH1 0x20 MSTORE DUP4 PUSH0 KECCAK256 SLOAD SWAP1 DUP2 PUSH0 MSTORE PUSH1 0xE PUSH1 0x20 MSTORE DUP5 PUSH0 KECCAK256 DUP4 PUSH0 MSTORE PUSH1 0x20 MSTORE DUP5 PUSH0 KECCAK256 PUSH1 0xFF DUP2 SLOAD PUSH2 0x1E58 PUSH1 0x2 DUP4 DUP4 AND PUSH2 0x1E52 DUP2 PUSH2 0x43E9 JUMP JUMPDEST EQ PUSH2 0x49B0 JUMP JUMPDEST PUSH1 0x8 SHR AND SWAP2 PUSH1 0x3 DUP7 LT ISZERO PUSH2 0x90F JUMPI PUSH1 0x3 DUP4 LT ISZERO PUSH2 0x90F JUMPI DUP6 DUP4 EQ PUSH2 0x1EC1 JUMPI POP PUSH32 0xB36EC3C738EF8ECD9180ADDC815304762374B76E91C2A321831D9906EA119ADE PUSH2 0x1EB9 DUP6 SWAP4 PUSH2 0x433 SWAP9 PUSH2 0x1EAC DUP10 DUP9 SWAP7 PUSH2 0x49FC JUMP JUMPDEST MLOAD SWAP2 DUP3 SWAP2 DUP10 TIMESTAMP SWAP2 DUP5 PUSH2 0x4A1B JUMP JUMPDEST SUB SWAP1 LOG3 PUSH2 0x4F9D JUMP JUMPDEST PUSH1 0x64 SWAP1 PUSH1 0x20 DUP9 MLOAD SWAP2 PUSH3 0x461BCD PUSH1 0xE5 SHL DUP4 MSTORE DUP3 ADD MSTORE PUSH1 0x18 PUSH1 0x24 DUP3 ADD MSTORE PUSH32 0x416C72656164792074686973207472757374206C6576656C0000000000000000 PUSH1 0x44 DUP3 ADD MSTORE REVERT JUMPDEST DUP3 CALLVALUE PUSH2 0x33D JUMPI PUSH1 0x20 SWAP1 PUSH2 0x1F1F PUSH2 0x1F19 CALLDATASIZE PUSH2 0x438B JUMP JUMPDEST SWAP1 PUSH2 0x4D71 JUMP JUMPDEST PUSH0 MSTORE PUSH1 0xD DUP3 MSTORE DUP1 PUSH0 KECCAK256 SLOAD SWAP1 MLOAD SWAP1 DUP2 MSTORE RETURN JUMPDEST SWAP1 POP CALLVALUE PUSH2 0x33D JUMPI PUSH2 0x1F40 CALLDATASIZE PUSH2 0x438B JUMP JUMPDEST SWAP1 PUSH0 MSTORE PUSH1 0xE PUSH1 0x20 MSTORE DUP3 PUSH0 KECCAK256 SWAP1 PUSH0 MSTORE PUSH1 0x20 MSTORE DUP2 PUSH0 KECCAK256 SWAP1 DUP3 MLOAD SWAP2 PUSH2 0x1F61 DUP4 PUSH2 0x3FCC JUMP JUMPDEST SLOAD SWAP2 PUSH1 0xFF DUP4 AND PUSH2 0x1F70 DUP2 PUSH2 0x43E9 JUMP JUMPDEST DUP2 MSTORE PUSH2 0x1F86 PUSH1 0xFF PUSH1 0x20 DUP4 ADD SWAP5 PUSH1 0x8 SHR AND DUP5 PUSH2 0x4A54 JUMP JUMPDEST MLOAD SWAP2 PUSH2 0x1F91 DUP4 PUSH2 0x43E9 JUMP JUMPDEST MLOAD SWAP1 PUSH1 0x3 DUP3 LT ISZERO PUSH2 0x90F JUMPI POP PUSH2 0x1FB9 SWAP1 DUP4 MLOAD SWAP3 PUSH2 0x1FAD DUP2 PUSH2 0x43E9 JUMP JUMPDEST DUP4 MSTORE PUSH1 0x20 DUP4 ADD SWAP1 PUSH2 0x4407 JUMP JUMPDEST RETURN JUMPDEST DUP3 CALLVALUE PUSH2 0x33D JUMPI DUP1 PUSH1 0x3 NOT CALLDATASIZE ADD SLT PUSH2 0x33D JUMPI DUP2 CALLDATALOAD SWAP1 PUSH1 0x24 CALLDATALOAD PUSH1 0x5 DUP2 LT ISZERO PUSH2 0x33D JUMPI PUSH2 0x1FEF PUSH1 0x1 DUP1 PUSH1 0xA0 SHL SUB PUSH0 SLOAD AND CALLER EQ PUSH2 0x4586 JUMP JUMPDEST DUP3 PUSH0 MSTORE PUSH1 0x20 PUSH1 0x2 DUP2 MSTORE PUSH1 0xFF DUP4 PUSH0 KECCAK256 SLOAD AND PUSH2 0x2008 DUP2 PUSH2 0x43E9 JUMP JUMPDEST ISZERO PUSH2 0x20C7 JUMPI DUP4 PUSH0 MSTORE PUSH1 0x2 DUP2 MSTORE PUSH1 0xFF DUP4 PUSH0 KECCAK256 SLOAD AND SWAP5 PUSH2 0x2025 DUP4 PUSH2 0x43E9 JUMP JUMPDEST PUSH2 0x202E DUP7 PUSH2 0x43E9 JUMP JUMPDEST DUP3 DUP7 EQ PUSH2 0x2090 JUMPI POP DUP4 PUSH0 MSTORE PUSH1 0x2 DUP2 MSTORE PUSH2 0x2049 DUP3 DUP5 PUSH0 KECCAK256 PUSH2 0x4976 JUMP JUMPDEST DUP3 MLOAD SWAP5 PUSH2 0x2055 DUP2 PUSH2 0x43E9 JUMP JUMPDEST DUP6 MSTORE PUSH2 0x2060 DUP3 PUSH2 0x43E9 JUMP JUMPDEST DUP5 ADD MSTORE TIMESTAMP SWAP1 DUP4 ADD MSTORE PUSH32 0xF6277C6EE46649823DB9A5C531DB3112B4340C67179CAE1932BA3420DCC37CC7 PUSH1 0x60 CALLER SWAP4 LOG3 STOP JUMPDEST PUSH1 0x64 SWAP2 DUP5 MLOAD SWAP2 PUSH3 0x461BCD PUSH1 0xE5 SHL DUP4 MSTORE DUP3 ADD MSTORE PUSH1 0x13 PUSH1 0x24 DUP3 ADD MSTORE PUSH19 0x416C7265616479207468697320737461747573 PUSH1 0x68 SHL PUSH1 0x44 DUP3 ADD MSTORE REVERT JUMPDEST DUP5 PUSH1 0x64 SWAP2 DUP5 MLOAD SWAP2 PUSH3 0x461BCD PUSH1 0xE5 SHL DUP4 MSTORE DUP3 ADD MSTORE PUSH1 0x13 PUSH1 0x24 DUP3 ADD MSTORE PUSH19 0x155CD95C881B9BDD081C9959DA5CDD195C9959 PUSH1 0x6A SHL PUSH1 0x44 DUP3 ADD MSTORE REVERT JUMPDEST DUP3 CALLVALUE PUSH2 0x33D JUMPI PUSH2 0x210E CALLDATASIZE PUSH2 0x438B JUMP JUMPDEST SWAP2 SWAP1 PUSH0 MSTORE PUSH1 0x3 PUSH1 0x20 MSTORE DUP1 PUSH0 KECCAK256 DUP1 SLOAD DUP4 LT ISZERO PUSH2 0x33D JUMPI PUSH1 0x20 SWAP3 PUSH2 0x212F SWAP2 PUSH2 0x43C0 JUMP JUMPDEST PUSH1 0x1 DUP1 PUSH1 0xA0 SHL SUB SWAP2 SLOAD SWAP1 PUSH1 0x3 SHL SHR AND SWAP1 MLOAD SWAP1 DUP2 MSTORE RETURN JUMPDEST DUP3 CALLVALUE PUSH2 0x33D JUMPI PUSH2 0x2154 CALLDATASIZE PUSH2 0x438B JUMP JUMPDEST SWAP2 SWAP1 PUSH0 MSTORE PUSH1 0x9 PUSH1 0x20 MSTORE DUP1 PUSH0 KECCAK256 DUP1 SLOAD DUP4 LT ISZERO PUSH2 0x33D JUMPI PUSH1 0x20 SWAP3 PUSH2 0x32F SWAP2 PUSH2 0x43C0 JUMP JUMPDEST DUP3 CALLVALUE PUSH2 0x33D JUMPI PUSH1 0x20 DUP1 PUSH1 0x3 NOT CALLDATASIZE ADD SLT PUSH2 0x33D JUMPI PUSH1 0x80 SWAP3 CALLDATALOAD PUSH0 MSTORE PUSH1 0x6 DUP2 MSTORE DUP2 PUSH0 KECCAK256 SLOAD SWAP2 PUSH1 0x7 DUP3 MSTORE DUP1 PUSH0 KECCAK256 SLOAD SWAP1 PUSH1 0x8 DUP4 MSTORE DUP1 PUSH0 KECCAK256 SLOAD SWAP2 PUSH1 0x9 DUP5 MSTORE DUP2 PUSH0 KECCAK256 SLOAD SWAP4 DUP3 MLOAD SWAP6 DUP7 MSTORE DUP6 ADD MSTORE DUP4 ADD MSTORE PUSH1 0x60 DUP3 ADD MSTORE RETURN JUMPDEST DUP3 CALLVALUE PUSH2 0x33D JUMPI PUSH1 0x20 CALLDATASIZE PUSH1 0x3 NOT ADD SLT PUSH2 0x33D JUMPI PUSH1 0x1 PUSH1 0x1 PUSH1 0xA0 SHL SUB PUSH2 0x21E6 PUSH2 0x3FA0 JUMP JUMPDEST AND PUSH0 MSTORE PUSH1 0x1 PUSH1 0x20 MSTORE DUP1 PUSH0 KECCAK256 PUSH1 0xFF PUSH1 0x1 DUP3 SLOAD SWAP3 ADD SLOAD AND DUP3 MLOAD SWAP2 DUP3 MSTORE ISZERO ISZERO PUSH1 0x20 DUP3 ADD MSTORE RETURN JUMPDEST DUP3 CALLVALUE PUSH2 0x33D JUMPI PUSH2 0x2218 CALLDATASIZE PUSH2 0x438B JUMP JUMPDEST SWAP2 SWAP1 PUSH0 MSTORE PUSH1 0x7 PUSH1 0x20 MSTORE DUP1 PUSH0 KECCAK256 DUP1 SLOAD DUP4 LT ISZERO PUSH2 0x33D JUMPI PUSH1 0x20 SWAP3 PUSH2 0x32F SWAP2 PUSH2 0x43C0 JUMP JUMPDEST SWAP1 POP CALLVALUE PUSH2 0x33D JUMPI PUSH0 CALLDATASIZE PUSH1 0x3 NOT ADD SLT PUSH2 0x33D JUMPI PUSH32 0xF0C57E16840DF040F15088DC2F81FE391C3923BEC73E23A9662EFC9C229C6A00 SWAP1 DUP2 SLOAD PUSH1 0xFF DUP2 DUP6 SHR AND ISZERO SWAP2 PUSH1 0x1 PUSH1 0x1 PUSH1 0x40 SHL SUB DUP3 AND DUP1 ISZERO SWAP1 DUP2 PUSH2 0x234E JUMPI JUMPDEST PUSH1 0x1 EQ SWAP1 DUP2 PUSH2 0x2344 JUMPI JUMPDEST ISZERO SWAP1 DUP2 PUSH2 0x233B JUMPI JUMPDEST POP PUSH2 0x232D JUMPI POP PUSH8 0xFFFFFFFFFFFFFFFF NOT DUP2 AND PUSH1 0x1 OR DUP4 SSTORE DUP2 PUSH2 0x230E JUMPI JUMPDEST POP PUSH0 DUP1 SLOAD PUSH1 0x1 PUSH1 0x1 PUSH1 0xA0 SHL SUB NOT AND CALLER OR SWAP1 SSTORE PUSH2 0x22D1 JUMPI STOP JUMPDEST DUP1 SLOAD PUSH9 0xFF0000000000000000 NOT AND SWAP1 SSTORE MLOAD PUSH1 0x1 DUP2 MSTORE PUSH32 0xC7F505B2F371AE2175EE4913F4499E1F2633A7B5936321EED1CDAEB6115181D2 SWAP1 PUSH1 0x20 SWAP1 LOG1 STOP JUMPDEST PUSH9 0xFFFFFFFFFFFFFFFFFF NOT AND PUSH9 0x10000000000000001 OR DUP3 SSTORE PUSH0 PUSH2 0x22B9 JUMP JUMPDEST DUP5 MLOAD PUSH4 0xF92EE8A9 PUSH1 0xE0 SHL DUP2 MSTORE REVERT JUMPDEST SWAP1 POP ISZERO PUSH0 PUSH2 0x229C JUMP JUMPDEST ADDRESS EXTCODESIZE ISZERO SWAP2 POP PUSH2 0x2294 JUMP JUMPDEST DUP5 SWAP2 POP PUSH2 0x228A JUMP JUMPDEST DUP3 CALLVALUE PUSH2 0x33D JUMPI PUSH2 0x2365 CALLDATASIZE PUSH2 0x438B JUMP JUMPDEST SWAP1 PUSH0 MSTORE PUSH1 0xE PUSH1 0x20 MSTORE DUP2 PUSH0 KECCAK256 SWAP1 PUSH0 MSTORE PUSH1 0x20 MSTORE DUP1 PUSH0 KECCAK256 SLOAD PUSH2 0x1FB9 PUSH1 0xFF DUP3 AND SWAP2 DUP4 MLOAD SWAP3 PUSH2 0x238E DUP2 PUSH2 0x43E9 JUMP JUMPDEST DUP4 MSTORE PUSH1 0xFF PUSH1 0x20 DUP5 ADD SWAP2 PUSH1 0x8 SHR AND PUSH2 0x4407 JUMP JUMPDEST DUP3 CALLVALUE PUSH2 0x33D JUMPI PUSH0 CALLDATASIZE PUSH1 0x3 NOT ADD SLT PUSH2 0x33D JUMPI PUSH1 0x20 SWAP1 PUSH1 0xB SLOAD SWAP1 MLOAD SWAP1 DUP2 MSTORE RETURN JUMPDEST DUP3 CALLVALUE PUSH2 0x33D JUMPI PUSH1 0x20 SWAP2 DUP3 PUSH1 0x3 NOT CALLDATASIZE ADD SLT PUSH2 0x33D JUMPI PUSH2 0x243A SWAP3 PUSH2 0x1BDF SWAP2 CALLDATALOAD PUSH0 MSTORE PUSH1 0x6 DUP2 MSTORE PUSH2 0x2454 DUP4 PUSH0 KECCAK256 SWAP4 PUSH1 0x7 DUP4 MSTORE DUP1 PUSH0 KECCAK256 SWAP5 PUSH1 0x8 DUP5 MSTORE PUSH2 0x2447 DUP3 PUSH0 KECCAK256 SWAP5 PUSH1 0x9 DUP2 MSTORE PUSH2 0x2426 PUSH2 0x2420 PUSH2 0x241A PUSH2 0x2414 DUP8 PUSH0 KECCAK256 SWAP7 PUSH2 0x44E7 JUMP JUMPDEST SWAP11 PUSH2 0x44E7 JUMP JUMPDEST SWAP8 PUSH2 0x44E7 JUMP JUMPDEST SWAP4 PUSH2 0x44E7 JUMP JUMPDEST SWAP6 DUP5 MLOAD SWAP10 DUP11 SWAP10 PUSH1 0x80 DUP12 MSTORE PUSH1 0x80 DUP12 ADD SWAP1 PUSH2 0x41DE JUMP JUMPDEST SWAP2 DUP10 DUP4 SUB SWAP1 DUP11 ADD MSTORE PUSH2 0x41DE JUMP JUMPDEST SWAP2 DUP7 DUP4 SUB SWAP1 DUP8 ADD MSTORE PUSH2 0x41DE JUMP JUMPDEST SWAP1 DUP4 DUP3 SUB PUSH1 0x60 DUP6 ADD MSTORE PUSH2 0x41DE JUMP JUMPDEST DUP3 CALLVALUE PUSH2 0x33D JUMPI PUSH1 0x20 CALLDATASIZE PUSH1 0x3 NOT ADD SLT PUSH2 0x33D JUMPI PUSH1 0x20 SWAP1 PUSH2 0x247F PUSH2 0x3FA0 JUMP JUMPDEST PUSH0 SLOAD SWAP2 SWAP1 PUSH1 0x1 PUSH1 0x1 PUSH1 0xA0 SHL SUB DUP1 DUP5 AND SWAP2 PUSH32 0x38DF5FA0F7FEF0D515CA1F5388CB5790AC5885D5FCA8D05D9F943E563C33A4B3 SWAP2 SWAP1 PUSH2 0x24BD CALLER DUP6 EQ PUSH2 0x4586 JUMP JUMPDEST AND SWAP5 DUP6 SWAP4 PUSH2 0x24CC DUP6 ISZERO ISZERO PUSH2 0x4A60 JUMP JUMPDEST MLOAD TIMESTAMP DUP2 MSTORE LOG3 PUSH1 0x1 PUSH1 0x1 PUSH1 0xA0 SHL SUB NOT AND OR PUSH0 SSTORE STOP JUMPDEST SWAP1 POP CALLVALUE PUSH2 0x33D JUMPI PUSH2 0x24F0 CALLDATASIZE PUSH2 0x4211 JUMP JUMPDEST SWAP4 SWAP1 SWAP3 PUSH1 0x1 DUP1 PUSH1 0xA0 SHL SUB PUSH2 0x2508 DUP2 PUSH0 SLOAD AND CALLER EQ PUSH2 0x4586 JUMP JUMPDEST PUSH2 0x2513 DUP5 ISZERO ISZERO PUSH2 0x4603 JUMP JUMPDEST DUP5 AND PUSH2 0x2520 DUP2 ISZERO ISZERO PUSH2 0x4867 JUMP JUMPDEST PUSH2 0x252C PUSH2 0xA41 DUP8 PUSH2 0x4CF9 JUMP JUMPDEST PUSH0 MSTORE PUSH1 0x1 PUSH1 0x20 SWAP2 DUP2 DUP4 MSTORE PUSH2 0x254E DUP5 PUSH0 KECCAK256 SLOAD SWAP7 PUSH2 0x2549 DUP9 ISZERO ISZERO PUSH2 0x45BF JUMP JUMPDEST PUSH2 0x4C16 JUMP JUMPDEST ISZERO PUSH2 0x27EF JUMPI DUP5 PUSH0 MSTORE PUSH1 0x6 DUP4 MSTORE DUP4 PUSH0 KECCAK256 SLOAD ISZERO DUP1 PUSH2 0x27E0 JUMPI JUMPDEST ISZERO PUSH2 0x279D JUMPI PUSH2 0x2574 DUP7 DUP7 PUSH2 0x4D71 JUMP JUMPDEST SWAP2 DUP3 PUSH0 MSTORE PUSH1 0x5 DUP5 MSTORE DUP5 PUSH0 KECCAK256 SWAP3 PUSH2 0x2589 DUP5 PUSH2 0x428B JUMP JUMPDEST SWAP3 PUSH1 0xFF DUP4 DUP6 MLOAD ISZERO SWAP7 ADD SLOAD AND SWAP3 DUP8 MLOAD SWAP2 PUSH2 0x25A1 DUP4 PUSH2 0x3FCC JUMP JUMPDEST DUP12 DUP4 MSTORE DUP8 DUP4 ADD SWAP1 DUP3 DUP3 MSTORE DUP5 PUSH0 MSTORE PUSH1 0x5 DUP10 MSTORE DUP10 PUSH0 KECCAK256 SWAP4 MLOAD DUP1 MLOAD SWAP2 PUSH1 0x1 PUSH1 0x1 PUSH1 0x40 SHL SUB DUP4 GT PUSH2 0x278A JUMPI POP PUSH2 0x25D3 DUP6 SLOAD PUSH2 0x4253 JUMP JUMPDEST PUSH1 0x1F DUP2 GT PUSH2 0x2744 JUMPI JUMPDEST POP DUP10 SWAP1 PUSH1 0x1F DUP4 GT PUSH1 0x1 EQ PUSH2 0x26DD JUMPI PUSH2 0x2623 SWAP6 SWAP5 SWAP4 SWAP3 SWAP2 PUSH0 SWAP2 DUP4 PUSH2 0x26D2 JUMPI JUMPDEST POP POP PUSH0 NOT PUSH1 0x3 DUP4 SWAP1 SHL SHR NOT AND SWAP1 DUP4 SHL OR DUP4 SSTORE JUMPDEST MLOAD ISZERO ISZERO SWAP2 ADD SWAP1 PUSH1 0xFF DUP1 NOT DUP4 SLOAD AND SWAP2 ISZERO ISZERO AND OR SWAP1 SSTORE JUMP JUMPDEST PUSH0 MSTORE PUSH1 0xD DUP5 MSTORE PUSH0 DUP6 DUP2 KECCAK256 SSTORE ISZERO PUSH0 EQ PUSH2 0x26A5 JUMPI POP SWAP2 DUP6 SWAP2 PUSH32 0xF9D17EB1340AB78960B594FF8BED1349985B800EE21199C6D5EA4A67454593AD SWAP4 PUSH2 0x2667 PUSH0 SWAP9 DUP9 DUP9 PUSH2 0x5427 JUMP JUMPDEST PUSH2 0x267F JUMPI JUMPDEST PUSH2 0x13C9 DUP3 MLOAD SWAP4 DUP4 DUP6 SWAP5 DUP6 MSTORE DUP5 ADD SWAP1 PUSH2 0x432D JUMP JUMPDEST DUP6 DUP8 MSTORE PUSH1 0xA DUP2 MSTORE PUSH2 0x2692 DUP6 DUP4 DUP10 KECCAK256 PUSH2 0x4BDA JUMP JUMPDEST PUSH2 0x269D PUSH1 0xB SLOAD PUSH2 0x498E JUMP JUMPDEST PUSH1 0xB SSTORE PUSH2 0x266C JUMP JUMPDEST SWAP6 SWAP5 SWAP4 SWAP3 POP POP DUP5 MLOAD DUP2 DUP7 ADD KECCAK256 SWAP1 DUP5 MLOAD SWAP1 DUP6 ADD KECCAK256 SUB PUSH2 0x26BF JUMPI STOP JUMPDEST PUSH2 0x26CD PUSH2 0x433 SWAP5 DUP4 DUP4 PUSH2 0x4EF2 JUMP JUMPDEST PUSH2 0x5427 JUMP JUMPDEST ADD MLOAD SWAP1 POP PUSH0 DUP1 PUSH2 0x25FA JUMP JUMPDEST SWAP1 PUSH1 0x1F NOT DUP4 AND SWAP2 DUP7 PUSH0 MSTORE DUP12 PUSH0 KECCAK256 SWAP3 PUSH0 JUMPDEST DUP14 DUP3 DUP3 LT PUSH2 0x2730 JUMPI POP POP SWAP2 DUP7 SWAP6 SWAP5 SWAP3 SWAP2 DUP4 PUSH2 0x2623 SWAP10 SWAP9 SWAP6 SWAP4 LT PUSH2 0x2718 JUMPI JUMPDEST POP POP POP DUP2 SHL ADD DUP4 SSTORE PUSH2 0x260D JUMP JUMPDEST ADD MLOAD PUSH0 NOT PUSH1 0xF8 DUP5 PUSH1 0x3 SHL AND SHR NOT AND SWAP1 SSTORE PUSH0 DUP1 DUP1 PUSH2 0x270B JUMP JUMPDEST DUP4 DUP6 ADD MLOAD DUP7 SSTORE SWAP5 DUP9 ADD SWAP5 SWAP4 DUP5 ADD SWAP4 ADD PUSH2 0x26ED JUMP JUMPDEST DUP6 PUSH0 MSTORE DUP11 PUSH0 KECCAK256 PUSH1 0x1F DUP5 ADD PUSH1 0x5 SHR DUP2 ADD SWAP2 DUP13 DUP6 LT PUSH2 0x2780 JUMPI JUMPDEST PUSH1 0x1F ADD PUSH1 0x5 SHR ADD SWAP1 DUP6 SWAP1 JUMPDEST DUP3 DUP2 LT PUSH2 0x2775 JUMPI POP POP PUSH2 0x25DC JUMP JUMPDEST PUSH0 DUP2 SSTORE ADD DUP6 SWAP1 PUSH2 0x2767 JUMP JUMPDEST SWAP1 SWAP2 POP DUP2 SWAP1 PUSH2 0x275C JUMP JUMPDEST PUSH1 0x41 SWAP1 PUSH4 0x4E487B71 PUSH1 0xE0 SHL PUSH0 MSTORE MSTORE PUSH1 0x24 PUSH0 REVERT JUMPDEST DUP4 MLOAD PUSH3 0x461BCD PUSH1 0xE5 SHL DUP2 MSTORE SWAP1 DUP2 ADD DUP4 SWAP1 MSTORE PUSH1 0x1A PUSH1 0x24 DUP3 ADD MSTORE PUSH32 0x5265636F726420616C726561647920696E697469616C697A6564000000000000 PUSH1 0x44 DUP3 ADD MSTORE PUSH1 0x64 SWAP1 REVERT JUMPDEST POP PUSH1 0x7 DUP4 MSTORE DUP4 PUSH0 KECCAK256 SLOAD ISZERO PUSH2 0x2565 JUMP JUMPDEST DUP4 MLOAD PUSH3 0x461BCD PUSH1 0xE5 SHL DUP2 MSTORE SWAP1 DUP2 ADD DUP4 SWAP1 MSTORE PUSH1 0x18 PUSH1 0x24 DUP3 ADD MSTORE PUSH32 0x4D75737420626520616E20616374697665206D656D6265720000000000000000 PUSH1 0x44 DUP3 ADD MSTORE PUSH1 0x64 SWAP1 REVERT JUMPDEST DUP3 CALLVALUE PUSH2 0x33D JUMPI DUP1 PUSH1 0x3 NOT CALLDATASIZE ADD SLT PUSH2 0x33D JUMPI PUSH1 0x1 PUSH1 0x1 PUSH1 0x40 SHL SUB SWAP1 DUP3 CALLDATALOAD DUP3 DUP2 GT PUSH2 0x33D JUMPI CALLDATASIZE PUSH1 0x23 DUP3 ADD SLT ISZERO PUSH2 0x33D JUMPI DUP1 DUP5 ADD CALLDATALOAD SWAP3 DUP4 GT PUSH2 0x33D JUMPI PUSH1 0x24 PUSH1 0x5 SWAP2 CALLDATASIZE PUSH1 0x24 DUP7 PUSH1 0x5 SHL DUP4 ADD ADD GT PUSH2 0x33D JUMPI PUSH0 SLOAD PUSH1 0x1 PUSH1 0x1 PUSH1 0xA0 SHL SUB SWAP7 PUSH1 0x24 CALLDATALOAD SWAP6 SWAP2 PUSH2 0x289C SWAP1 DUP10 AND CALLER EQ PUSH2 0x4586 JUMP JUMPDEST DUP7 ISZERO PUSH2 0x29ED JUMPI PUSH2 0x28AD DUP7 ISZERO ISZERO PUSH2 0x48AC JUMP JUMPDEST DUP6 PUSH0 MSTORE PUSH1 0x2 SWAP4 PUSH1 0x20 SWAP4 PUSH1 0x2 DUP6 MSTORE PUSH1 0xFF DUP5 PUSH0 KECCAK256 SLOAD AND PUSH2 0x28CA DUP2 PUSH2 0x43E9 JUMP JUMPDEST ISZERO SWAP7 PUSH0 JUMPDEST DUP11 DUP2 LT PUSH2 0x28D7 JUMPI STOP JUMPDEST DUP4 DUP2 DUP4 SHL DUP5 ADD ADD CALLDATALOAD SWAP1 DUP13 DUP3 AND SWAP2 DUP3 DUP2 SUB PUSH2 0x33D JUMPI DUP3 PUSH2 0x295E DUP14 SWAP3 PUSH2 0x28FE PUSH1 0x1 SWAP7 ISZERO ISZERO PUSH2 0x4867 JUMP JUMPDEST DUP3 PUSH0 MSTORE PUSH2 0x294F DUP12 DUP14 DUP9 SWAP1 DUP2 DUP2 MSTORE PUSH2 0x2918 DUP4 PUSH0 KECCAK256 SLOAD ISZERO PUSH2 0x48EF JUMP JUMPDEST DUP3 MLOAD SWAP3 PUSH2 0x2924 DUP5 PUSH2 0x3FCC JUMP JUMPDEST DUP9 DUP5 MSTORE DUP3 DUP3 DUP6 ADD SWAP3 DUP2 DUP5 MSTORE DUP10 PUSH0 MSTORE MSTORE PUSH0 KECCAK256 SWAP3 MLOAD DUP4 SSTORE MLOAD ISZERO ISZERO SWAP2 ADD SWAP1 PUSH1 0xFF DUP1 NOT DUP4 SLOAD AND SWAP2 ISZERO ISZERO AND OR SWAP1 SSTORE JUMP JUMPDEST DUP4 PUSH0 MSTORE PUSH1 0x3 DUP13 MSTORE DUP11 PUSH0 KECCAK256 PUSH2 0x493B JUMP JUMPDEST DUP3 ISZERO DUP1 PUSH2 0x29E6 JUMPI JUMPDEST ISZERO PUSH2 0x29B9 JUMPI DUP2 PUSH0 MSTORE DUP11 DUP11 MSTORE DUP9 PUSH0 KECCAK256 DUP12 PUSH1 0xFF NOT DUP3 SLOAD AND OR SWAP1 SSTORE PUSH2 0x2988 DUP9 SLOAD PUSH2 0x498E JUMP JUMPDEST DUP9 SSTORE PUSH32 0x39D132591EE0696DE49AB564E4A90E430C006561917DB731A2A614DD2D245591 DUP11 DUP11 MLOAD TIMESTAMP DUP2 MSTORE LOG3 JUMPDEST ADD PUSH2 0x28CE JUMP JUMPDEST PUSH32 0x1CC138F50384BE7770A8E4A34EECAA0D0C718BFAA1641AF49DB32532E4A5B910 DUP11 DUP11 MLOAD TIMESTAMP DUP2 MSTORE LOG3 PUSH2 0x29B3 JUMP JUMPDEST POP DUP12 PUSH2 0x2966 JUMP JUMPDEST PUSH1 0x20 PUSH1 0x64 SWAP3 MLOAD SWAP2 PUSH3 0x461BCD PUSH1 0xE5 SHL DUP4 MSTORE DUP3 ADD MSTORE PUSH1 0x13 PUSH1 0x24 DUP3 ADD MSTORE PUSH19 0x139BC81DD85B1B195D1CC81C1C9BDD9A591959 PUSH1 0x6A SHL PUSH1 0x44 DUP3 ADD MSTORE REVERT JUMPDEST DUP3 CALLVALUE PUSH2 0x33D JUMPI PUSH1 0x20 CALLDATASIZE PUSH1 0x3 NOT ADD SLT PUSH2 0x33D JUMPI PUSH2 0x1BDF SWAP2 CALLDATALOAD PUSH0 MSTORE PUSH1 0xA PUSH1 0x20 MSTORE PUSH2 0x1BCC DUP2 PUSH0 KECCAK256 PUSH2 0x44E7 JUMP JUMPDEST DUP3 CALLVALUE PUSH2 0x33D JUMPI PUSH1 0x20 SWAP1 PUSH2 0x1863 PUSH2 0x2A63 CALLDATASIZE PUSH2 0x438B JUMP JUMPDEST SWAP1 PUSH2 0x4E03 JUMP JUMPDEST DUP3 CALLVALUE PUSH2 0x33D JUMPI PUSH2 0x2A78 CALLDATASIZE PUSH2 0x438B JUMP JUMPDEST SWAP2 SWAP1 PUSH0 MSTORE PUSH1 0x6 PUSH1 0x20 MSTORE DUP1 PUSH0 KECCAK256 DUP1 SLOAD DUP4 LT ISZERO PUSH2 0x33D JUMPI PUSH1 0x20 SWAP3 PUSH2 0x32F SWAP2 PUSH2 0x43C0 JUMP JUMPDEST DUP3 CALLVALUE PUSH2 0x33D JUMPI PUSH2 0x2AA8 CALLDATASIZE PUSH2 0x438B JUMP JUMPDEST SWAP1 PUSH0 MSTORE PUSH1 0xE PUSH1 0x20 MSTORE DUP2 PUSH0 KECCAK256 SWAP1 PUSH0 MSTORE PUSH1 0x20 MSTORE DUP1 PUSH0 KECCAK256 SWAP1 PUSH1 0x2 DUP2 MLOAD SWAP3 PUSH2 0x2ACB DUP5 PUSH2 0x3FCC JUMP JUMPDEST SLOAD SWAP3 PUSH1 0xFF DUP5 AND PUSH2 0x2ADA DUP2 PUSH2 0x43E9 JUMP JUMPDEST DUP2 MSTORE PUSH2 0x2AF0 PUSH1 0xFF PUSH1 0x20 DUP4 ADD SWAP6 PUSH1 0x8 SHR AND DUP6 PUSH2 0x4A54 JUMP JUMPDEST MLOAD PUSH2 0x2AFA DUP2 PUSH2 0x43E9 JUMP JUMPDEST PUSH2 0x2B03 DUP2 PUSH2 0x43E9 JUMP JUMPDEST EQ SWAP2 DUP3 PUSH2 0x2B17 JUMPI JUMPDEST PUSH1 0x20 DUP4 DUP4 MLOAD SWAP1 ISZERO ISZERO DUP2 MSTORE RETURN JUMPDEST SWAP1 SWAP2 POP MLOAD SWAP2 PUSH1 0x3 DUP4 LT ISZERO PUSH2 0x90F JUMPI POP PUSH1 0x2 PUSH1 0x20 SWAP3 EQ SWAP1 DUP4 PUSH2 0x2B0B JUMP JUMPDEST DUP3 CALLVALUE PUSH2 0x33D JUMPI PUSH0 CALLDATASIZE PUSH1 0x3 NOT ADD SLT PUSH2 0x33D JUMPI PUSH32 0x0 PUSH1 0x1 PUSH1 0x1 PUSH1 0xA0 SHL SUB AND ADDRESS SUB PUSH2 0x2B9D JUMPI PUSH1 0x20 SWAP1 MLOAD PUSH32 0x360894A13BA1A3210667C828492DB98DCA3E2076CC3735A920A3CA505D382BBC DUP2 MSTORE RETURN JUMPDEST MLOAD PUSH4 0x703E46DD PUSH1 0xE1 SHL DUP2 MSTORE REVERT JUMPDEST DUP3 CALLVALUE PUSH2 0x33D JUMPI PUSH2 0x2BB9 CALLDATASIZE PUSH2 0x4111 JUMP JUMPDEST SWAP1 PUSH2 0x2BC6 PUSH2 0x38B CALLER PUSH2 0x4C16 JUMP JUMPDEST PUSH2 0x2BD3 DUP4 MLOAD DUP4 MLOAD EQ PUSH2 0x4457 JUMP JUMPDEST CALLER PUSH0 MSTORE PUSH1 0x1 SWAP4 PUSH1 0x20 SWAP2 DUP6 DUP4 MSTORE DUP2 PUSH0 KECCAK256 SLOAD SWAP1 PUSH1 0x1 DUP1 PUSH1 0xA0 SHL SUB AND PUSH0 MSTORE DUP2 PUSH0 KECCAK256 SLOAD SWAP1 PUSH2 0x2BFE DUP3 ISZERO ISZERO PUSH2 0x449B JUMP JUMPDEST DUP7 PUSH0 SWAP7 DUP4 DUP4 EQ SWAP2 JUMPDEST PUSH2 0x2C0C JUMPI STOP JUMPDEST DUP1 MLOAD DUP9 LT ISZERO PUSH2 0x433 JUMPI DUP9 DUP9 PUSH2 0x2C22 DUP3 SWAP11 DUP5 PUSH2 0x4A40 JUMP JUMPDEST MLOAD PUSH2 0x2C2D DUP3 DUP12 PUSH2 0x4A40 JUMP JUMPDEST MLOAD PUSH2 0x2C37 DUP2 PUSH2 0x4CF9 JUMP JUMPDEST ISZERO PUSH2 0x2F2F JUMPI PUSH2 0x2C46 DUP8 DUP4 PUSH2 0x4D71 JUMP JUMPDEST PUSH0 MSTORE PUSH1 0x5 DUP1 DUP12 MSTORE PUSH1 0xFF DUP1 DUP7 DUP13 PUSH0 KECCAK256 ADD SLOAD AND ISZERO PUSH2 0x2F26 JUMPI PUSH2 0x2C66 DUP11 DUP6 PUSH2 0x4D71 JUMP JUMPDEST PUSH0 MSTORE DUP2 DUP13 MSTORE DUP6 DUP12 PUSH0 KECCAK256 ADD SLOAD AND ISZERO PUSH2 0x2F1E JUMPI PUSH2 0x2C81 DUP10 DUP5 PUSH2 0x4D71 JUMP JUMPDEST PUSH0 MSTORE DUP11 MSTORE PUSH2 0x2C90 DUP10 PUSH0 KECCAK256 PUSH2 0x428B JUMP JUMPDEST SWAP1 DUP9 DUP9 DUP13 DUP5 MLOAD DUP2 DUP7 ADD KECCAK256 DUP14 DUP6 MLOAD DUP4 DUP8 ADD KECCAK256 SWAP1 DUP2 DUP4 EQ PUSH2 0x2DA2 JUMPI PUSH2 0x2CB1 PUSH2 0x4735 JUMP JUMPDEST DUP5 DUP2 MLOAD SWAP2 ADD KECCAK256 DUP4 EQ PUSH2 0x2DA2 JUMPI DUP9 PUSH0 MSTORE PUSH1 0x6 DUP5 MSTORE PUSH0 KECCAK256 SLOAD ISZERO SWAP2 DUP3 ISZERO PUSH2 0x2CDD PUSH2 0x2CD6 PUSH2 0x4735 JUMP JUMPDEST DUP8 DUP13 PUSH2 0x4DA5 JUMP JUMPDEST SWAP1 PUSH2 0x2CF0 PUSH2 0x2CE9 PUSH2 0x4756 JUMP JUMPDEST DUP9 DUP14 PUSH2 0x4DA5 JUMP JUMPDEST SWAP1 PUSH2 0x2D04 DUP13 DUP10 PUSH2 0x2CFE PUSH2 0x477F JUMP JUMPDEST SWAP2 PUSH2 0x4DA5 JUMP JUMPDEST PUSH2 0x2D0C PUSH2 0x4735 JUMP JUMPDEST DUP1 MLOAD SWAP1 DUP10 ADD KECCAK256 DUP7 SUB PUSH2 0x2DC4 JUMPI POP ISZERO PUSH2 0x2DB0 JUMPI POP ISZERO PUSH2 0x2DA2 JUMPI JUMPDEST PUSH2 0x2D2D PUSH2 0x4756 JUMP JUMPDEST DUP5 DUP2 MLOAD SWAP2 ADD KECCAK256 EQ SWAP3 DUP4 PUSH2 0x2D88 JUMPI JUMPDEST POP POP DUP2 PUSH2 0x2D80 JUMPI JUMPDEST POP DUP1 PUSH2 0x2D68 JUMPI JUMPDEST PUSH2 0x2D5E JUMPI PUSH2 0x2D57 SWAP5 PUSH2 0x4E8D JUMP JUMPDEST ADD SWAP8 PUSH2 0x2C06 JUMP JUMPDEST POP POP POP POP POP PUSH2 0x2D57 JUMP JUMPDEST POP POP POP DUP3 PUSH0 MSTORE PUSH1 0x7 DUP12 MSTORE DUP9 DUP9 DUP7 DUP13 PUSH0 KECCAK256 SLOAD GT ISZERO PUSH2 0x2D4A JUMP JUMPDEST SWAP1 POP PUSH0 PUSH2 0x2D43 JUMP JUMPDEST SWAP1 SWAP2 SWAP3 POP PUSH2 0x2D94 PUSH2 0x47A1 JUMP JUMPDEST DUP1 MLOAD SWAP2 ADD KECCAK256 EQ SWAP1 PUSH0 DUP16 PUSH2 0x2D3B JUMP JUMPDEST POP POP POP POP POP POP POP POP POP PUSH2 0x2D57 JUMP JUMPDEST SWAP1 POP PUSH2 0x2D25 JUMPI POP POP POP POP POP POP POP POP POP PUSH2 0x2D57 JUMP JUMPDEST SWAP2 SWAP3 SWAP1 PUSH2 0x2DCF PUSH2 0x4756 JUMP JUMPDEST DUP1 MLOAD SWAP1 DUP10 ADD KECCAK256 DUP7 SUB PUSH2 0x2DFA JUMPI POP SWAP1 POP ISZERO SWAP1 DUP2 PUSH2 0x2DF1 JUMPI JUMPDEST POP PUSH2 0x2DA2 JUMPI JUMPDEST PUSH2 0x2D25 JUMP JUMPDEST SWAP1 POP ISZERO PUSH0 PUSH2 0x2DE6 JUMP JUMPDEST PUSH2 0x2E02 PUSH2 0x477F JUMP JUMPDEST DUP1 MLOAD SWAP1 DUP10 ADD KECCAK256 DUP7 SUB PUSH2 0x2E8D JUMPI ISZERO PUSH2 0x2E59 JUMPI ISZERO SWAP2 DUP3 PUSH2 0x2E41 JUMPI JUMPDEST POP DUP2 PUSH2 0x2E2B JUMPI POP PUSH2 0x2DA2 JUMPI PUSH2 0x2D25 JUMP JUMPDEST SWAP1 POP DUP1 PUSH2 0x2E3A JUMPI JUMPDEST ISZERO PUSH0 PUSH2 0x2DE6 JUMP JUMPDEST POP DUP13 PUSH2 0x2E33 JUMP JUMPDEST SWAP1 SWAP2 POP DUP1 PUSH2 0x2E52 JUMPI JUMPDEST ISZERO SWAP1 PUSH0 PUSH2 0x2E1B JUMP JUMPDEST POP DUP14 PUSH2 0x2E4A JUMP JUMPDEST POP SWAP1 ISZERO SWAP1 DUP2 PUSH2 0x2E77 JUMPI JUMPDEST POP ISZERO PUSH2 0x2DEC JUMPI POP POP POP POP POP POP POP POP POP PUSH2 0x2D57 JUMP JUMPDEST SWAP1 POP DUP1 PUSH2 0x2E86 JUMPI JUMPDEST ISZERO PUSH0 PUSH2 0x2E63 JUMP JUMPDEST POP DUP13 PUSH2 0x2E7F JUMP JUMPDEST PUSH2 0x2E95 PUSH2 0x47A1 JUMP JUMPDEST DUP9 DUP2 MLOAD SWAP2 ADD KECCAK256 DUP7 EQ PUSH2 0x2EAB JUMPI JUMPDEST POP POP POP POP PUSH2 0x2D25 JUMP JUMPDEST ISZERO PUSH2 0x2F0A JUMPI ISZERO SWAP2 DUP3 PUSH2 0x2EF2 JUMPI JUMPDEST POP DUP2 PUSH2 0x2EDC JUMPI JUMPDEST POP PUSH2 0x2DA2 JUMPI JUMPDEST PUSH2 0x2ECF DUP7 DUP11 PUSH2 0x4E03 JUMP JUMPDEST PUSH2 0x2DA2 JUMPI PUSH0 DUP1 DUP1 DUP1 PUSH2 0x2EA2 JUMP JUMPDEST SWAP1 POP DUP1 PUSH2 0x2EEB JUMPI JUMPDEST ISZERO PUSH0 PUSH2 0x2EBF JUMP JUMPDEST POP DUP13 PUSH2 0x2EE4 JUMP JUMPDEST SWAP1 SWAP2 POP DUP1 PUSH2 0x2F03 JUMPI JUMPDEST ISZERO SWAP1 PUSH0 PUSH2 0x2EB8 JUMP JUMPDEST POP DUP14 PUSH2 0x2EFB JUMP JUMPDEST POP POP PUSH2 0x2EC5 JUMPI POP POP POP POP POP POP POP POP POP PUSH2 0x2D57 JUMP JUMPDEST POP POP POP PUSH2 0x2D57 JUMP JUMPDEST POP POP POP POP PUSH2 0x2D57 JUMP JUMPDEST POP POP PUSH2 0x2D57 JUMP JUMPDEST SWAP1 POP DUP2 PUSH1 0x3 NOT CALLDATASIZE ADD SLT PUSH2 0x33D JUMPI PUSH2 0x2F4B PUSH2 0x3FA0 JUMP JUMPDEST SWAP2 PUSH1 0x24 CALLDATALOAD PUSH1 0x1 PUSH1 0x1 PUSH1 0x40 SHL SUB DUP2 GT PUSH2 0x33D JUMPI CALLDATASIZE PUSH1 0x23 DUP3 ADD SLT ISZERO PUSH2 0x33D JUMPI PUSH2 0x2F7B SWAP1 CALLDATASIZE SWAP1 PUSH1 0x24 DUP2 DUP7 ADD CALLDATALOAD SWAP2 ADD PUSH2 0x40AE JUMP JUMPDEST SWAP1 PUSH1 0x1 PUSH1 0x1 PUSH1 0xA0 SHL SUB PUSH32 0x0 DUP2 AND ADDRESS DUP2 EQ SWAP1 DUP2 ISZERO PUSH2 0x3105 JUMPI JUMPDEST POP PUSH2 0x30F5 JUMPI PUSH2 0x2FC5 DUP2 PUSH0 SLOAD AND CALLER EQ PUSH2 0x4586 JUMP JUMPDEST DUP5 AND SWAP2 DUP2 MLOAD SWAP5 PUSH4 0x52D1902D PUSH1 0xE0 SHL DUP7 MSTORE PUSH1 0x20 DUP7 DUP7 DUP2 DUP8 GAS STATICCALL PUSH0 SWAP7 DUP2 PUSH2 0x30C1 JUMPI JUMPDEST POP PUSH2 0x3001 JUMPI POP POP MLOAD PUSH4 0x4C9C8CE3 PUSH1 0xE0 SHL DUP2 MSTORE SWAP2 DUP3 ADD MSTORE PUSH1 0x24 SWAP2 POP REVERT JUMPDEST DUP4 DUP6 SWAP4 DUP8 PUSH32 0x360894A13BA1A3210667C828492DB98DCA3E2076CC3735A920A3CA505D382BBC SWAP1 DUP2 DUP2 SUB PUSH2 0x30AB JUMPI POP DUP4 EXTCODESIZE ISZERO PUSH2 0x3094 JUMPI DUP1 SLOAD PUSH1 0x1 PUSH1 0x1 PUSH1 0xA0 SHL SUB NOT AND DUP4 OR SWAP1 SSTORE MLOAD SWAP1 PUSH32 0xBC7CD75A20EE27FD9ADEBAB32041F755214DBC6BFFA90CC0225B39DA2E5C2D3B PUSH0 DUP1 LOG2 DUP3 MLOAD ISZERO PUSH2 0x307E JUMPI POP PUSH2 0x433 SWAP3 POP PUSH2 0x54D2 JUMP JUMPDEST SWAP2 POP POP CALLVALUE PUSH2 0x3088 JUMPI STOP JUMPDEST PUSH4 0xB398979F PUSH1 0xE0 SHL DUP2 MSTORE REVERT JUMPDEST DUP2 MLOAD PUSH4 0x4C9C8CE3 PUSH1 0xE0 SHL DUP2 MSTORE DUP1 DUP8 ADD DUP5 SWAP1 MSTORE PUSH1 0x24 SWAP1 REVERT JUMPDEST DUP7 PUSH1 0x24 SWAP2 DUP5 MLOAD SWAP2 PUSH4 0x2A875269 PUSH1 0xE2 SHL DUP4 MSTORE DUP3 ADD MSTORE REVERT JUMPDEST SWAP1 SWAP7 POP PUSH1 0x20 DUP2 RETURNDATASIZE PUSH1 0x20 GT PUSH2 0x30ED JUMPI JUMPDEST DUP2 PUSH2 0x30DD PUSH1 0x20 SWAP4 DUP4 PUSH2 0x4016 JUMP JUMPDEST DUP2 ADD SUB SLT PUSH2 0x33D JUMPI MLOAD SWAP6 PUSH0 PUSH2 0x2FE5 JUMP JUMPDEST RETURNDATASIZE SWAP2 POP PUSH2 0x30D0 JUMP JUMPDEST DUP2 MLOAD PUSH4 0x703E46DD PUSH1 0xE1 SHL DUP2 MSTORE DUP5 SWAP1 REVERT JUMPDEST SWAP1 POP DUP2 PUSH32 0x360894A13BA1A3210667C828492DB98DCA3E2076CC3735A920A3CA505D382BBC SLOAD AND EQ ISZERO PUSH0 PUSH2 0x2FB2 JUMP JUMPDEST SWAP1 POP CALLVALUE PUSH2 0x33D JUMPI PUSH2 0x3143 CALLDATASIZE PUSH2 0x43A1 JUMP JUMPDEST SWAP2 SWAP1 PUSH2 0x3151 PUSH2 0x38B CALLER PUSH2 0x4C16 JUMP JUMPDEST CALLER PUSH0 MSTORE PUSH1 0x1 PUSH1 0x20 MSTORE DUP4 PUSH0 KECCAK256 SLOAD SWAP2 DUP2 PUSH0 MSTORE PUSH1 0xE PUSH1 0x20 MSTORE DUP5 PUSH0 KECCAK256 DUP4 PUSH0 MSTORE PUSH1 0x20 MSTORE DUP5 PUSH0 KECCAK256 DUP1 SLOAD PUSH2 0x3186 PUSH1 0x2 PUSH1 0xFF DUP4 AND PUSH2 0x1E52 DUP2 PUSH2 0x43E9 JUMP JUMPDEST PUSH1 0x3 DUP7 LT ISZERO PUSH2 0x322F JUMPI PUSH1 0x8 SHR PUSH1 0xFF AND SWAP2 PUSH1 0x3 DUP4 LT ISZERO PUSH2 0x90F JUMPI DUP3 PUSH1 0xFF DUP8 AND LT ISZERO PUSH2 0x31E0 JUMPI POP PUSH32 0xB36EC3C738EF8ECD9180ADDC815304762374B76E91C2A321831D9906EA119ADE PUSH2 0x1EB9 DUP6 SWAP4 PUSH2 0x433 SWAP9 PUSH2 0x1EAC DUP10 DUP9 SWAP7 PUSH2 0x49FC JUMP JUMPDEST PUSH1 0x84 SWAP1 PUSH1 0x20 DUP9 MLOAD SWAP2 PUSH3 0x461BCD PUSH1 0xE5 SHL DUP4 MSTORE DUP3 ADD MSTORE PUSH1 0x23 PUSH1 0x24 DUP3 ADD MSTORE PUSH32 0x43616E206F6E6C7920646F776E677261646520746F2061206C6F776572206C65 PUSH1 0x44 DUP3 ADD MSTORE PUSH3 0x1D995B PUSH1 0xEA SHL PUSH1 0x64 DUP3 ADD MSTORE REVERT JUMPDEST PUSH1 0x21 DUP4 PUSH4 0x4E487B71 PUSH1 0xE0 SHL PUSH0 MSTORE MSTORE PUSH1 0x24 PUSH0 REVERT JUMPDEST DUP3 CALLVALUE PUSH2 0x33D JUMPI DUP1 PUSH1 0x3 NOT CALLDATASIZE ADD SLT PUSH2 0x33D JUMPI PUSH2 0x325B PUSH2 0x3FA0 JUMP JUMPDEST SWAP2 PUSH1 0x24 CALLDATALOAD SWAP3 PUSH1 0x1 DUP1 PUSH1 0xA0 SHL SUB PUSH2 0x3275 DUP2 PUSH0 SLOAD AND CALLER EQ PUSH2 0x4586 JUMP JUMPDEST DUP2 AND SWAP3 PUSH2 0x3283 DUP5 ISZERO ISZERO PUSH2 0x4867 JUMP JUMPDEST PUSH2 0x328E DUP6 ISZERO ISZERO PUSH2 0x48AC JUMP JUMPDEST DUP4 PUSH0 MSTORE PUSH2 0x32F3 PUSH1 0x20 SWAP3 PUSH1 0x1 DUP5 MSTORE PUSH2 0x32A8 DUP4 PUSH0 KECCAK256 SLOAD ISZERO PUSH2 0x48EF JUMP JUMPDEST PUSH2 0x32E4 DUP4 MLOAD PUSH2 0x32B6 DUP2 PUSH2 0x3FCC JUMP JUMPDEST DUP9 DUP2 MSTORE PUSH1 0x1 DUP7 DUP3 ADD DUP2 DUP2 MSTORE DUP10 PUSH0 MSTORE DUP2 DUP9 MSTORE DUP7 PUSH0 KECCAK256 SWAP3 MLOAD DUP4 SSTORE MLOAD ISZERO ISZERO SWAP2 ADD SWAP1 PUSH1 0xFF DUP1 NOT DUP4 SLOAD AND SWAP2 ISZERO ISZERO AND OR SWAP1 SSTORE JUMP JUMPDEST DUP7 PUSH0 MSTORE PUSH1 0x3 DUP5 MSTORE DUP3 PUSH0 KECCAK256 PUSH2 0x493B JUMP JUMPDEST DUP5 PUSH0 MSTORE PUSH1 0x2 DUP3 MSTORE PUSH1 0xFF DUP2 PUSH0 KECCAK256 SLOAD AND PUSH2 0x330A DUP2 PUSH2 0x43E9 JUMP JUMPDEST PUSH2 0x3358 JUMPI PUSH32 0x39D132591EE0696DE49AB564E4A90E430C006561917DB731A2A614DD2D245591 SWAP3 DUP6 PUSH0 MSTORE PUSH1 0x2 DUP4 MSTORE DUP2 PUSH0 KECCAK256 PUSH1 0x2 PUSH1 0xFF NOT DUP3 SLOAD AND OR SWAP1 SSTORE PUSH2 0x334F DUP2 SLOAD PUSH2 0x498E JUMP JUMPDEST SWAP1 SSTORE MLOAD TIMESTAMP DUP2 MSTORE LOG3 STOP JUMPDEST PUSH32 0x1CC138F50384BE7770A8E4A34EECAA0D0C718BFAA1641AF49DB32532E4A5B910 SWAP3 POP MLOAD TIMESTAMP DUP2 MSTORE LOG3 STOP JUMPDEST DUP3 CALLVALUE PUSH2 0x33D JUMPI PUSH1 0x20 CALLDATASIZE PUSH1 0x3 NOT ADD SLT PUSH2 0x33D JUMPI PUSH1 0x20 SWAP1 PUSH2 0x1863 PUSH2 0x2549 PUSH2 0x3FA0 JUMP JUMPDEST DUP3 CALLVALUE PUSH2 0x33D JUMPI PUSH1 0x20 SWAP1 PUSH2 0x33B7 PUSH2 0x1F19 CALLDATASIZE PUSH2 0x438B JUMP JUMPDEST PUSH0 MSTORE PUSH1 0x5 DUP3 MSTORE PUSH2 0x1BDF DUP2 PUSH0 KECCAK256 SWAP2 DUP1 MLOAD PUSH2 0x33CF DUP2 PUSH2 0x3FCC JUMP JUMPDEST PUSH1 0xFF PUSH1 0x1 PUSH2 0x33DC DUP7 PUSH2 0x428B JUMP JUMPDEST SWAP6 DUP7 DUP5 MSTORE ADD SLOAD AND ISZERO ISZERO SWAP5 DUP6 SWAP2 ADD MSTORE MLOAD SWAP3 DUP4 SWAP3 DUP4 PUSH2 0x436B JUMP JUMPDEST DUP3 CALLVALUE PUSH2 0x33D JUMPI DUP1 PUSH1 0x3 NOT CALLDATASIZE ADD SLT PUSH2 0x33D JUMPI PUSH2 0x341B PUSH2 0x1BDF SWAP3 PUSH2 0x3414 PUSH2 0x3FB6 JUMP JUMPDEST SWAP1 CALLDATALOAD PUSH2 0x47EF JUMP JUMPDEST SWAP3 SWAP1 SWAP2 MLOAD SWAP3 DUP4 SWAP3 DUP4 PUSH2 0x436B JUMP JUMPDEST DUP3 CALLVALUE PUSH2 0x33D JUMPI PUSH1 0x20 CALLDATASIZE PUSH1 0x3 NOT ADD SLT PUSH2 0x33D JUMPI PUSH2 0x1BDF SWAP2 CALLDATALOAD PUSH0 MSTORE PUSH1 0x7 PUSH1 0x20 MSTORE PUSH2 0x1BCC DUP2 PUSH0 KECCAK256 PUSH2 0x44E7 JUMP JUMPDEST DUP3 CALLVALUE PUSH2 0x33D JUMPI PUSH1 0x20 SWAP1 PUSH2 0x1863 PUSH2 0x3466 CALLDATASIZE PUSH2 0x4211 JUMP JUMPDEST SWAP2 PUSH2 0x47C3 JUMP JUMPDEST SWAP1 POP CALLVALUE PUSH2 0x33D JUMPI PUSH1 0x20 CALLDATASIZE PUSH1 0x3 NOT ADD SLT PUSH2 0x33D JUMPI CALLDATALOAD PUSH0 MSTORE PUSH1 0x5 PUSH1 0x20 MSTORE DUP1 PUSH0 KECCAK256 PUSH2 0x1BDF PUSH1 0xFF PUSH1 0x1 PUSH2 0x349A DUP5 PUSH2 0x428B JUMP JUMPDEST SWAP4 ADD SLOAD AND SWAP3 MLOAD SWAP3 DUP4 SWAP3 DUP4 PUSH2 0x436B JUMP JUMPDEST DUP3 CALLVALUE PUSH2 0x33D JUMPI PUSH1 0x20 DUP1 PUSH1 0x3 NOT CALLDATASIZE ADD SLT PUSH2 0x33D JUMPI DUP3 CALLDATALOAD SWAP2 PUSH2 0x34CA DUP4 ISZERO ISZERO PUSH2 0x4603 JUMP JUMPDEST CALLER PUSH0 MSTORE PUSH1 0x1 DUP3 MSTORE DUP1 PUSH0 KECCAK256 SLOAD SWAP4 PUSH2 0x34E8 PUSH2 0x34E1 PUSH2 0x4735 JUMP JUMPDEST DUP7 DUP7 PUSH2 0x4DA5 JUMP JUMPDEST ISZERO PUSH2 0x35D9 JUMPI DUP4 PUSH0 MSTORE PUSH1 0x6 DUP4 MSTORE PUSH1 0x1 DUP3 PUSH0 KECCAK256 SLOAD GT PUSH1 0x7 DUP5 MSTORE DUP3 PUSH0 KECCAK256 SLOAD ISZERO ISZERO DUP2 ISZERO PUSH2 0x35D1 JUMPI JUMPDEST POP ISZERO PUSH2 0x3576 JUMPI POP SWAP1 PUSH32 0x68F37CC4A32F0B24153CE9237B344B20A9717039F90D7C24F35E5C217F03E168 SWAP2 PUSH2 0x3540 DUP6 DUP6 PUSH2 0x4D71 JUMP JUMPDEST PUSH2 0x3552 PUSH2 0x354B PUSH2 0x4735 JUMP JUMPDEST DUP8 DUP8 PUSH2 0x4EF2 JUMP JUMPDEST PUSH0 MSTORE PUSH1 0x5 DUP3 MSTORE PUSH1 0x1 DUP2 PUSH0 KECCAK256 ADD PUSH1 0xFF NOT DUP2 SLOAD AND SWAP1 SSTORE PUSH1 0xD DUP3 MSTORE PUSH0 DUP2 DUP2 KECCAK256 SSTORE MLOAD TIMESTAMP DUP2 MSTORE LOG3 STOP JUMPDEST DUP3 PUSH1 0x84 SWAP3 MLOAD SWAP2 PUSH3 0x461BCD PUSH1 0xE5 SHL DUP4 MSTORE DUP3 ADD MSTORE PUSH1 0x31 PUSH1 0x24 DUP3 ADD MSTORE PUSH32 0x43616E6E6F74206C65617665206173206C617374206F776E6572207769746820 PUSH1 0x44 DUP3 ADD MSTORE PUSH17 0x6E6F2061646D696E6973747261746F7273 PUSH1 0x78 SHL PUSH1 0x64 DUP3 ADD MSTORE REVERT JUMPDEST SWAP1 POP DUP7 PUSH2 0x350C JUMP JUMPDEST DUP3 PUSH1 0x84 SWAP3 MLOAD SWAP2 PUSH3 0x461BCD PUSH1 0xE5 SHL DUP4 MSTORE DUP3 ADD MSTORE PUSH1 0x23 PUSH1 0x24 DUP3 ADD MSTORE PUSH32 0x596F7520617265206E6F7420616E206F776E6572206F66207468697320726563 PUSH1 0x44 DUP3 ADD MSTORE PUSH3 0x1BDC99 PUSH1 0xEA SHL PUSH1 0x64 DUP3 ADD MSTORE REVERT JUMPDEST DUP3 CALLVALUE PUSH2 0x33D JUMPI PUSH1 0x20 CALLDATASIZE PUSH1 0x3 NOT ADD SLT PUSH2 0x33D JUMPI PUSH2 0x1BDF SWAP2 CALLDATALOAD PUSH0 MSTORE PUSH1 0x8 PUSH1 0x20 MSTORE PUSH2 0x1BCC DUP2 PUSH0 KECCAK256 PUSH2 0x44E7 JUMP JUMPDEST SWAP1 POP CALLVALUE PUSH2 0x33D JUMPI PUSH2 0x365F CALLDATASIZE PUSH2 0x4211 JUMP JUMPDEST SWAP2 SWAP3 SWAP1 PUSH2 0x366E PUSH2 0x38B CALLER PUSH2 0x4C16 JUMP JUMPDEST PUSH2 0x3679 DUP5 ISZERO ISZERO PUSH2 0x4603 JUMP JUMPDEST PUSH1 0x1 PUSH1 0x1 PUSH1 0xA0 SHL SUB AND PUSH2 0x368D DUP2 ISZERO ISZERO PUSH2 0x464F JUMP JUMPDEST PUSH2 0x3699 PUSH2 0xA41 DUP5 PUSH2 0x4CF9 JUMP JUMPDEST CALLER PUSH0 MSTORE PUSH1 0x20 SWAP4 PUSH1 0x1 DUP6 MSTORE DUP6 PUSH0 KECCAK256 SLOAD SWAP2 PUSH0 MSTORE DUP6 PUSH0 KECCAK256 SLOAD SWAP3 PUSH2 0x36BA DUP5 ISZERO ISZERO PUSH2 0x449B JUMP JUMPDEST DUP5 MLOAD DUP7 DUP7 ADD KECCAK256 SWAP6 PUSH2 0x36CB DUP6 DUP5 PUSH2 0x4D71 JUMP JUMPDEST DUP1 PUSH0 MSTORE PUSH1 0x5 DUP3 MSTORE PUSH2 0x36E4 PUSH1 0xFF PUSH1 0x1 DUP12 PUSH0 KECCAK256 ADD SLOAD AND PUSH2 0x46DD JUMP JUMPDEST PUSH0 MSTORE PUSH1 0x5 DUP2 MSTORE PUSH2 0x36F5 DUP9 PUSH0 KECCAK256 PUSH2 0x428B JUMP JUMPDEST SWAP7 DUP8 MLOAD DUP3 DUP10 ADD KECCAK256 SWAP1 DUP1 DUP3 EQ PUSH2 0x3D24 JUMPI PUSH2 0x370C PUSH2 0x4735 JUMP JUMPDEST DUP4 DUP2 MLOAD SWAP2 ADD KECCAK256 DUP3 EQ PUSH2 0x3CAF JUMPI DUP5 PUSH0 MSTORE PUSH1 0x6 DUP4 MSTORE DUP10 PUSH0 KECCAK256 SLOAD ISZERO SWAP2 DUP3 ISZERO PUSH2 0x3739 PUSH2 0x3732 PUSH2 0x4735 JUMP JUMPDEST DUP10 DUP10 PUSH2 0x4DA5 JUMP JUMPDEST SWAP1 PUSH2 0x374C PUSH2 0x3745 PUSH2 0x4756 JUMP JUMPDEST DUP11 DUP11 PUSH2 0x4DA5 JUMP JUMPDEST SWAP1 PUSH2 0x375F PUSH2 0x3758 PUSH2 0x477F JUMP JUMPDEST DUP12 DUP12 PUSH2 0x4DA5 JUMP JUMPDEST DUP12 DUP12 EQ PUSH2 0x376A PUSH2 0x4735 JUMP JUMPDEST DUP1 MLOAD SWAP1 DUP11 ADD KECCAK256 DUP8 SUB PUSH2 0x38E7 JUMPI POP POP ISZERO PUSH2 0x388A JUMPI POP ISZERO PUSH2 0x3849 JUMPI JUMPDEST PUSH2 0x378C PUSH2 0x4756 JUMP JUMPDEST DUP5 DUP2 MLOAD SWAP2 ADD KECCAK256 EQ SWAP1 DUP2 PUSH2 0x3832 JUMPI JUMPDEST POP PUSH2 0x37AD JUMPI JUMPDEST POP POP POP PUSH2 0x433 SWAP6 POP PUSH2 0x4E8D JUMP JUMPDEST PUSH2 0x37B8 JUMPI JUMPDEST DUP1 PUSH2 0x37A0 JUMP JUMPDEST DUP3 PUSH0 MSTORE PUSH1 0x7 DUP2 MSTORE PUSH1 0x1 DUP9 PUSH0 KECCAK256 SLOAD GT PUSH2 0x37B2 JUMPI DUP8 MLOAD PUSH3 0x461BCD PUSH1 0xE5 SHL DUP2 MSTORE SWAP2 DUP3 ADD MSTORE PUSH1 0x39 PUSH1 0x24 DUP3 ADD MSTORE PUSH32 0x43616E6E6F742064656D6F746520746865206C6173742061646D696E69737472 PUSH1 0x44 DUP3 ADD MSTORE PUSH32 0x61746F72207768656E206E6F206F776E65722065786973747300000000000000 PUSH1 0x64 DUP3 ADD MSTORE PUSH1 0x84 SWAP2 POP REVERT JUMPDEST SWAP1 POP PUSH2 0x383C PUSH2 0x47A1 JUMP JUMPDEST DUP4 DUP2 MLOAD SWAP2 ADD KECCAK256 EQ PUSH0 PUSH2 0x379A JUMP JUMPDEST PUSH1 0x64 DUP6 DUP6 DUP1 DUP15 MLOAD SWAP3 PUSH3 0x461BCD PUSH1 0xE5 SHL DUP5 MSTORE DUP4 ADD MSTORE PUSH1 0x24 DUP3 ADD MSTORE PUSH32 0x4F6E6C79206F776E6572732063616E2070726F6D6F746520746F206F776E6572 PUSH1 0x44 DUP3 ADD MSTORE REVERT JUMPDEST SWAP1 POP PUSH2 0x3784 JUMPI DUP11 MLOAD PUSH3 0x461BCD PUSH1 0xE5 SHL DUP2 MSTORE DUP1 DUP7 ADD DUP6 SWAP1 MSTORE PUSH1 0x2B PUSH1 0x24 DUP3 ADD MSTORE PUSH32 0x4F6E6C792061646D696E6973747261746F72732063616E2070726F6D6F746520 PUSH1 0x44 DUP3 ADD MSTORE PUSH11 0x3334B939BA1037BBB732B9 PUSH1 0xA9 SHL PUSH1 0x64 DUP3 ADD MSTORE PUSH1 0x84 SWAP1 REVERT JUMPDEST SWAP1 SWAP2 PUSH2 0x38F1 PUSH2 0x4756 JUMP JUMPDEST DUP1 MLOAD SWAP1 DUP11 ADD KECCAK256 DUP8 SUB PUSH2 0x3984 JUMPI POP POP POP DUP2 ISZERO PUSH2 0x397C JUMPI JUMPDEST POP ISZERO PUSH2 0x3913 JUMPI JUMPDEST PUSH2 0x3784 JUMP JUMPDEST DUP11 MLOAD PUSH3 0x461BCD PUSH1 0xE5 SHL DUP2 MSTORE DUP1 DUP7 ADD DUP6 SWAP1 MSTORE PUSH1 0x3B PUSH1 0x24 DUP3 ADD MSTORE PUSH32 0x4F6E6C79206F776E65727320616E642061646D696E6973747261746F72732063 PUSH1 0x44 DUP3 ADD MSTORE PUSH32 0x616E2070726F6D6F746520746F2061646D696E6973747261746F720000000000 PUSH1 0x64 DUP3 ADD MSTORE PUSH1 0x84 SWAP1 REVERT JUMPDEST SWAP1 POP PUSH0 PUSH2 0x3907 JUMP JUMPDEST PUSH2 0x3990 SWAP4 SWAP2 SWAP3 SWAP4 PUSH2 0x477F JUMP JUMPDEST DUP1 MLOAD SWAP1 DUP11 ADD KECCAK256 DUP8 SUB PUSH2 0x3AF1 JUMPI ISZERO PUSH2 0x3A75 JUMPI DUP4 ISZERO PUSH2 0x3A5E JUMPI JUMPDEST POP DUP3 ISZERO PUSH2 0x3A45 JUMPI JUMPDEST POP POP PUSH2 0x3784 JUMPI DUP11 MLOAD PUSH3 0x461BCD PUSH1 0xE5 SHL DUP2 MSTORE DUP1 DUP7 ADD DUP6 SWAP1 MSTORE PUSH1 0x57 PUSH1 0x24 DUP3 ADD MSTORE PUSH32 0x4F6E6C79206F776E6572732063616E206368616E6765206F746865727320746F PUSH1 0x44 DUP3 ADD MSTORE PUSH32 0x207368617265722E2041646D696E7320616E6420736861726572732063616E20 PUSH1 0x64 DUP3 ADD MSTORE PUSH32 0x6F6E6C792064656D6F7465207468656D73656C7665732E000000000000000000 PUSH1 0x84 DUP3 ADD MSTORE PUSH1 0xA4 SWAP1 REVERT JUMPDEST SWAP1 SWAP2 POP DUP2 PUSH2 0x3A56 JUMPI JUMPDEST POP PUSH0 DUP1 PUSH2 0x39B0 JUMP JUMPDEST SWAP1 POP PUSH0 PUSH2 0x3A4E JUMP JUMPDEST SWAP1 SWAP3 POP DUP1 PUSH2 0x3A6E JUMPI JUMPDEST SWAP2 PUSH0 PUSH2 0x39A8 JUMP JUMPDEST POP DUP2 PUSH2 0x3A67 JUMP JUMPDEST SWAP3 POP DUP3 ISZERO PUSH2 0x3AD8 JUMPI JUMPDEST POP POP PUSH2 0x390E JUMPI DUP11 MLOAD PUSH3 0x461BCD PUSH1 0xE5 SHL DUP2 MSTORE DUP1 DUP7 ADD DUP6 SWAP1 MSTORE PUSH1 0x28 PUSH1 0x24 DUP3 ADD MSTORE PUSH32 0x4F6E6C792061646D696E6973747261746F72732063616E2064656D6F74652074 PUSH1 0x44 DUP3 ADD MSTORE PUSH8 0x379039B430B932B9 PUSH1 0xC1 SHL PUSH1 0x64 DUP3 ADD MSTORE PUSH1 0x84 SWAP1 REVERT JUMPDEST SWAP1 SWAP2 POP DUP2 PUSH2 0x3AE9 JUMPI JUMPDEST POP PUSH0 DUP1 PUSH2 0x3A7E JUMP JUMPDEST SWAP1 POP PUSH0 PUSH2 0x3AE1 JUMP JUMPDEST PUSH2 0x3AF9 PUSH2 0x47A1 JUMP JUMPDEST DUP10 DUP2 MLOAD SWAP2 ADD KECCAK256 DUP8 EQ PUSH2 0x3B10 JUMPI JUMPDEST POP POP POP POP POP PUSH2 0x3784 JUMP JUMPDEST ISZERO PUSH2 0x3C53 JUMPI DUP4 ISZERO PUSH2 0x3C3C JUMPI JUMPDEST POP DUP3 ISZERO PUSH2 0x3C23 JUMPI JUMPDEST POP POP ISZERO PUSH2 0x3B9C JUMPI JUMPDEST PUSH2 0x3B36 DUP9 DUP8 PUSH2 0x4E03 JUMP JUMPDEST PUSH2 0x3B44 JUMPI PUSH0 DUP1 DUP1 DUP1 DUP1 PUSH2 0x3B06 JUMP JUMPDEST DUP11 MLOAD PUSH3 0x461BCD PUSH1 0xE5 SHL DUP2 MSTORE DUP1 DUP7 ADD DUP6 SWAP1 MSTORE PUSH1 0x2C PUSH1 0x24 DUP3 ADD MSTORE PUSH32 0x43616E6E6F742064656D6F746520616E20616374697665207375626A65637420 PUSH1 0x44 DUP3 ADD MSTORE PUSH12 0x3132B637BB9039B430B932B9 PUSH1 0xA1 SHL PUSH1 0x64 DUP3 ADD MSTORE PUSH1 0x84 SWAP1 REVERT JUMPDEST DUP11 MLOAD PUSH3 0x461BCD PUSH1 0xE5 SHL DUP2 MSTORE DUP1 DUP7 ADD DUP6 SWAP1 MSTORE PUSH1 0x55 PUSH1 0x24 DUP3 ADD MSTORE PUSH32 0x4F6E6C79206F776E6572732063616E2064656D6F7465206F74686572732E2041 PUSH1 0x44 DUP3 ADD MSTORE PUSH32 0x646D696E6973747261746F727320616E6420736861726572732063616E206F6E PUSH1 0x64 DUP3 ADD MSTORE PUSH21 0x363C903232B6B7BA32903A3432B6B9B2B63B32B997 PUSH1 0x59 SHL PUSH1 0x84 DUP3 ADD MSTORE PUSH1 0xA4 SWAP1 REVERT JUMPDEST SWAP1 SWAP2 POP DUP2 PUSH2 0x3C34 JUMPI JUMPDEST POP PUSH0 DUP1 PUSH2 0x3B24 JUMP JUMPDEST SWAP1 POP PUSH0 PUSH2 0x3C2C JUMP JUMPDEST SWAP1 SWAP3 POP DUP1 PUSH2 0x3C4C JUMPI JUMPDEST SWAP2 PUSH0 PUSH2 0x3B1C JUMP JUMPDEST POP DUP2 PUSH2 0x3C45 JUMP JUMPDEST SWAP3 POP POP POP PUSH2 0x3B2C JUMPI DUP11 MLOAD PUSH3 0x461BCD PUSH1 0xE5 SHL DUP2 MSTORE DUP1 DUP7 ADD DUP6 SWAP1 MSTORE PUSH1 0x28 PUSH1 0x24 DUP3 ADD MSTORE PUSH32 0x4F6E6C792061646D696E6973747261746F72732063616E2064656D6F74652074 PUSH1 0x44 DUP3 ADD MSTORE PUSH8 0x37903B34B2BBB2B9 PUSH1 0xC1 SHL PUSH1 0x64 DUP3 ADD MSTORE PUSH1 0x84 SWAP1 REVERT JUMPDEST DUP10 MLOAD PUSH3 0x461BCD PUSH1 0xE5 SHL DUP2 MSTORE DUP1 DUP6 ADD DUP5 SWAP1 MSTORE PUSH1 0x43 PUSH1 0x24 DUP3 ADD MSTORE PUSH32 0x4F776E6572732063616E6E6F742062652064656D6F7465642E204F776E657220 PUSH1 0x44 DUP3 ADD MSTORE PUSH32 0x6D75737420766F6C756E746172696C792072656D6F7665207468656D73656C76 PUSH1 0x64 DUP3 ADD MSTORE PUSH3 0x32B997 PUSH1 0xE9 SHL PUSH1 0x84 DUP3 ADD MSTORE PUSH1 0xA4 SWAP1 REVERT JUMPDEST DUP10 MLOAD PUSH3 0x461BCD PUSH1 0xE5 SHL DUP2 MSTORE DUP1 DUP6 ADD DUP5 SWAP1 MSTORE PUSH1 0x1C PUSH1 0x24 DUP3 ADD MSTORE PUSH32 0x54617267657420616C726561647920686173207468697320726F6C6500000000 PUSH1 0x44 DUP3 ADD MSTORE PUSH1 0x64 SWAP1 REVERT JUMPDEST DUP3 CALLVALUE PUSH2 0x33D JUMPI PUSH1 0x20 CALLDATASIZE PUSH1 0x3 NOT ADD SLT PUSH2 0x33D JUMPI PUSH1 0x20 SWAP1 PUSH2 0x1863 PUSH2 0x3D87 PUSH2 0x3FA0 JUMP JUMPDEST PUSH2 0x4CA7 JUMP JUMPDEST DUP3 CALLVALUE PUSH2 0x33D JUMPI PUSH1 0x20 CALLDATASIZE PUSH1 0x3 NOT ADD SLT PUSH2 0x33D JUMPI PUSH2 0x3DA6 PUSH2 0x3FA0 JUMP JUMPDEST PUSH0 SLOAD PUSH1 0x1 PUSH1 0x1 PUSH1 0xA0 SHL SUB SWAP2 SWAP1 PUSH2 0x3DBF SWAP1 DUP4 AND CALLER EQ PUSH2 0x4586 JUMP JUMPDEST AND DUP1 PUSH0 MSTORE PUSH1 0x1 PUSH1 0x20 MSTORE PUSH2 0x3DD6 DUP3 PUSH0 KECCAK256 SLOAD ISZERO ISZERO PUSH2 0x45BF JUMP JUMPDEST DUP1 PUSH0 MSTORE PUSH1 0x1 PUSH1 0x20 MSTORE PUSH1 0xFF PUSH1 0x1 DUP4 PUSH0 KECCAK256 ADD SLOAD AND ISZERO PUSH2 0x3E06 JUMPI PUSH1 0x1 SWAP3 POP PUSH0 MSTORE DUP2 PUSH1 0x20 MSTORE PUSH0 KECCAK256 ADD PUSH1 0xFF NOT DUP2 SLOAD AND SWAP1 SSTORE PUSH0 DUP1 RETURN JUMPDEST DUP2 MLOAD PUSH3 0x461BCD PUSH1 0xE5 SHL DUP2 MSTORE PUSH1 0x20 DUP2 DUP6 ADD MSTORE PUSH1 0x17 PUSH1 0x24 DUP3 ADD MSTORE PUSH32 0x57616C6C657420616C726561647920696E616374697665000000000000000000 PUSH1 0x44 DUP3 ADD MSTORE PUSH1 0x64 SWAP1 REVERT JUMPDEST DUP3 CALLVALUE PUSH2 0x33D JUMPI DUP1 PUSH1 0x3 NOT CALLDATASIZE ADD SLT PUSH2 0x33D JUMPI PUSH2 0x1863 PUSH1 0x20 SWAP3 PUSH2 0x3E68 PUSH2 0x3FB6 JUMP JUMPDEST SWAP1 CALLDATALOAD PUSH2 0x4535 JUMP JUMPDEST DUP3 CALLVALUE PUSH2 0x33D JUMPI PUSH1 0x20 CALLDATASIZE PUSH1 0x3 NOT ADD SLT PUSH2 0x33D JUMPI PUSH2 0x1BDF SWAP2 CALLDATALOAD PUSH0 MSTORE PUSH1 0x9 PUSH1 0x20 MSTORE PUSH2 0x1BCC DUP2 PUSH0 KECCAK256 PUSH2 0x44E7 JUMP JUMPDEST DUP3 CALLVALUE PUSH2 0x33D JUMPI PUSH2 0x3EA7 CALLDATASIZE PUSH2 0x4111 JUMP JUMPDEST SWAP3 SWAP2 SWAP1 PUSH2 0x3EB6 PUSH2 0x38B CALLER PUSH2 0x4C16 JUMP JUMPDEST PUSH2 0x3EC3 DUP3 MLOAD DUP6 MLOAD EQ PUSH2 0x4457 JUMP JUMPDEST CALLER PUSH0 MSTORE PUSH1 0x1 SWAP4 DUP5 SWAP4 PUSH1 0x1 PUSH1 0x20 MSTORE DUP1 PUSH0 KECCAK256 SLOAD SWAP3 PUSH1 0x1 DUP1 PUSH1 0xA0 SHL SUB AND PUSH0 MSTORE PUSH0 KECCAK256 SLOAD PUSH2 0x3EED DUP2 ISZERO ISZERO PUSH2 0x449B JUMP JUMPDEST PUSH0 SWAP5 JUMPDEST PUSH2 0x3EF6 JUMPI STOP JUMPDEST DUP4 MLOAD DUP6 LT ISZERO PUSH2 0x433 JUMPI DUP6 DUP6 PUSH2 0x3F15 PUSH2 0x3F0F DUP4 SWAP9 DUP7 PUSH2 0x4A40 JUMP JUMPDEST MLOAD PUSH2 0x4CF9 JUMP JUMPDEST ISZERO PUSH2 0x3F67 JUMPI PUSH2 0x3F28 DUP6 PUSH2 0x660 DUP4 DUP10 PUSH2 0x4A40 JUMP JUMPDEST ISZERO PUSH2 0x3F67 JUMPI PUSH2 0x3F3B DUP4 PUSH2 0x660 DUP4 DUP10 PUSH2 0x4A40 JUMP JUMPDEST PUSH2 0x3F67 JUMPI PUSH2 0x3F60 DUP6 PUSH2 0x3F4D DUP4 DUP10 PUSH2 0x4A40 JUMP JUMPDEST MLOAD DUP6 PUSH2 0x3F59 DUP6 DUP10 PUSH2 0x4A40 JUMP JUMPDEST MLOAD SWAP2 PUSH2 0x507C JUMP JUMPDEST ADD SWAP5 PUSH2 0x3EF0 JUMP JUMPDEST PUSH2 0x3F60 JUMP JUMPDEST DUP4 SWAP1 CALLVALUE PUSH2 0x33D JUMPI PUSH1 0x20 CALLDATASIZE PUSH1 0x3 NOT ADD SLT PUSH2 0x33D JUMPI PUSH1 0x20 SWAP2 PUSH1 0x1 PUSH1 0x1 PUSH1 0xA0 SHL SUB PUSH2 0x3F92 PUSH2 0x3FA0 JUMP JUMPDEST AND PUSH0 MSTORE PUSH1 0x1 DUP4 MSTORE PUSH0 KECCAK256 SLOAD DUP2 MSTORE RETURN JUMPDEST PUSH1 0x4 CALLDATALOAD SWAP1 PUSH1 0x1 PUSH1 0x1 PUSH1 0xA0 SHL SUB DUP3 AND DUP3 SUB PUSH2 0x33D JUMPI JUMP JUMPDEST PUSH1 0x24 CALLDATALOAD SWAP1 PUSH1 0x1 PUSH1 0x1 PUSH1 0xA0 SHL SUB DUP3 AND DUP3 SUB PUSH2 0x33D JUMPI JUMP JUMPDEST PUSH1 0x40 DUP2 ADD SWAP1 DUP2 LT PUSH1 0x1 PUSH1 0x1 PUSH1 0x40 SHL SUB DUP3 GT OR PUSH2 0x3FE7 JUMPI PUSH1 0x40 MSTORE JUMP JUMPDEST PUSH4 0x4E487B71 PUSH1 0xE0 SHL PUSH0 MSTORE PUSH1 0x41 PUSH1 0x4 MSTORE PUSH1 0x24 PUSH0 REVERT JUMPDEST PUSH1 0x20 DUP2 ADD SWAP1 DUP2 LT PUSH1 0x1 PUSH1 0x1 PUSH1 0x40 SHL SUB DUP3 GT OR PUSH2 0x3FE7 JUMPI PUSH1 0x40 MSTORE JUMP JUMPDEST SWAP1 PUSH1 0x1F DUP1 NOT SWAP2 ADD AND DUP2 ADD SWAP1 DUP2 LT PUSH1 0x1 PUSH1 0x1 PUSH1 0x40 SHL SUB DUP3 GT OR PUSH2 0x3FE7 JUMPI PUSH1 0x40 MSTORE JUMP JUMPDEST PUSH1 0x1 PUSH1 0x1 PUSH1 0x40 SHL SUB DUP2 GT PUSH2 0x3FE7 JUMPI PUSH1 0x5 SHL PUSH1 0x20 ADD SWAP1 JUMP JUMPDEST SWAP1 DUP1 PUSH1 0x1F DUP4 ADD SLT ISZERO PUSH2 0x33D JUMPI PUSH1 0x20 SWAP1 DUP3 CALLDATALOAD PUSH2 0x4068 DUP2 PUSH2 0x4037 JUMP JUMPDEST SWAP4 PUSH2 0x4076 PUSH1 0x40 MLOAD SWAP6 DUP7 PUSH2 0x4016 JUMP JUMPDEST DUP2 DUP6 MSTORE PUSH1 0x20 DUP1 DUP7 ADD SWAP3 PUSH1 0x5 SHL DUP3 ADD ADD SWAP3 DUP4 GT PUSH2 0x33D JUMPI PUSH1 0x20 ADD SWAP1 JUMPDEST DUP3 DUP3 LT PUSH2 0x409F JUMPI POP POP POP POP SWAP1 JUMP JUMPDEST DUP2 CALLDATALOAD DUP2 MSTORE SWAP1 DUP4 ADD SWAP1 DUP4 ADD PUSH2 0x4091 JUMP JUMPDEST SWAP3 SWAP2 SWAP3 PUSH1 0x1 PUSH1 0x1 PUSH1 0x40 SHL SUB DUP3 GT PUSH2 0x3FE7 JUMPI PUSH1 0x40 MLOAD SWAP2 PUSH2 0x40D7 PUSH1 0x1F DUP3 ADD PUSH1 0x1F NOT AND PUSH1 0x20 ADD DUP5 PUSH2 0x4016 JUMP JUMPDEST DUP3 SWAP5 DUP2 DUP5 MSTORE DUP2 DUP4 ADD GT PUSH2 0x33D JUMPI DUP3 DUP2 PUSH1 0x20 SWAP4 DUP5 PUSH0 SWAP7 ADD CALLDATACOPY ADD ADD MSTORE JUMP JUMPDEST SWAP1 DUP1 PUSH1 0x1F DUP4 ADD SLT ISZERO PUSH2 0x33D JUMPI DUP2 PUSH1 0x20 PUSH2 0x410E SWAP4 CALLDATALOAD SWAP2 ADD PUSH2 0x40AE JUMP JUMPDEST SWAP1 JUMP JUMPDEST PUSH1 0x60 PUSH1 0x3 NOT DUP3 ADD SLT PUSH2 0x33D JUMPI PUSH1 0x1 PUSH1 0x1 PUSH1 0x40 SHL SUB SWAP2 PUSH1 0x4 CALLDATALOAD DUP4 DUP2 GT PUSH2 0x33D JUMPI DUP3 PUSH2 0x413D SWAP2 PUSH1 0x4 ADD PUSH2 0x404E JUMP JUMPDEST SWAP3 PUSH1 0x24 SWAP3 DUP4 CALLDATALOAD PUSH1 0x1 PUSH1 0x1 PUSH1 0xA0 SHL SUB DUP2 AND DUP2 SUB PUSH2 0x33D JUMPI SWAP4 PUSH1 0x44 CALLDATALOAD SWAP3 DUP1 DUP5 GT PUSH2 0x33D JUMPI DUP3 PUSH1 0x23 DUP6 ADD SLT ISZERO PUSH2 0x33D JUMPI DUP4 PUSH1 0x4 ADD CALLDATALOAD PUSH2 0x4178 DUP2 PUSH2 0x4037 JUMP JUMPDEST SWAP5 PUSH2 0x4186 PUSH1 0x40 MLOAD SWAP7 DUP8 PUSH2 0x4016 JUMP JUMPDEST DUP2 DUP7 MSTORE PUSH1 0x20 SWAP5 PUSH1 0x24 PUSH1 0x20 DUP9 ADD SWAP4 PUSH1 0x5 SHL DUP4 ADD ADD SWAP5 DUP2 DUP7 GT PUSH2 0x33D JUMPI PUSH1 0x24 DUP4 ADD SWAP4 JUMPDEST DUP7 DUP6 LT PUSH2 0x41B9 JUMPI POP POP POP POP POP POP POP POP SWAP1 JUMP JUMPDEST DUP5 CALLDATALOAD DUP7 DUP2 GT PUSH2 0x33D JUMPI DUP9 SWAP2 PUSH2 0x41D3 DUP6 DUP6 DUP6 SWAP5 DUP10 ADD ADD PUSH2 0x40F3 JUMP JUMPDEST DUP2 MSTORE ADD SWAP5 ADD SWAP4 PUSH2 0x41A7 JUMP JUMPDEST SWAP1 DUP2 MLOAD DUP1 DUP3 MSTORE PUSH1 0x20 DUP1 DUP1 SWAP4 ADD SWAP4 ADD SWAP2 PUSH0 JUMPDEST DUP3 DUP2 LT PUSH2 0x41FD JUMPI POP POP POP POP SWAP1 JUMP JUMPDEST DUP4 MLOAD DUP6 MSTORE SWAP4 DUP2 ADD SWAP4 SWAP3 DUP2 ADD SWAP3 PUSH1 0x1 ADD PUSH2 0x41EF JUMP JUMPDEST PUSH1 0x60 PUSH1 0x3 NOT DUP3 ADD SLT PUSH2 0x33D JUMPI PUSH1 0x4 CALLDATALOAD SWAP2 PUSH1 0x24 CALLDATALOAD PUSH1 0x1 PUSH1 0x1 PUSH1 0xA0 SHL SUB DUP2 AND DUP2 SUB PUSH2 0x33D JUMPI SWAP2 PUSH1 0x44 CALLDATALOAD SWAP1 PUSH1 0x1 PUSH1 0x1 PUSH1 0x40 SHL SUB DUP3 GT PUSH2 0x33D JUMPI PUSH2 0x410E SWAP2 PUSH1 0x4 ADD PUSH2 0x40F3 JUMP JUMPDEST SWAP1 PUSH1 0x1 DUP3 DUP2 SHR SWAP3 AND DUP1 ISZERO PUSH2 0x4281 JUMPI JUMPDEST PUSH1 0x20 DUP4 LT EQ PUSH2 0x426D JUMPI JUMP JUMPDEST PUSH4 0x4E487B71 PUSH1 0xE0 SHL PUSH0 MSTORE PUSH1 0x22 PUSH1 0x4 MSTORE PUSH1 0x24 PUSH0 REVERT JUMPDEST SWAP2 PUSH1 0x7F AND SWAP2 PUSH2 0x4262 JUMP JUMPDEST SWAP1 PUSH1 0x40 MLOAD SWAP2 DUP3 PUSH0 DUP3 SLOAD PUSH2 0x429D DUP2 PUSH2 0x4253 JUMP JUMPDEST SWAP1 DUP2 DUP5 MSTORE PUSH1 0x20 SWAP5 PUSH1 0x1 SWAP2 PUSH1 0x1 DUP2 AND SWAP1 DUP2 PUSH0 EQ PUSH2 0x430B JUMPI POP PUSH1 0x1 EQ PUSH2 0x42CD JUMPI JUMPDEST POP POP POP PUSH2 0x42CB SWAP3 POP SUB DUP4 PUSH2 0x4016 JUMP JUMPDEST JUMP JUMPDEST PUSH0 SWAP1 DUP2 MSTORE DUP6 DUP2 KECCAK256 SWAP6 SWAP4 POP SWAP2 SWAP1 JUMPDEST DUP2 DUP4 LT PUSH2 0x42F3 JUMPI POP POP PUSH2 0x42CB SWAP4 POP DUP3 ADD ADD PUSH0 DUP1 DUP1 PUSH2 0x42BC JUMP JUMPDEST DUP6 SLOAD DUP9 DUP5 ADD DUP6 ADD MSTORE SWAP5 DUP6 ADD SWAP5 DUP8 SWAP5 POP SWAP2 DUP4 ADD SWAP2 PUSH2 0x42DA JUMP JUMPDEST SWAP3 POP POP POP PUSH2 0x42CB SWAP5 SWAP3 POP PUSH1 0xFF NOT AND DUP3 DUP5 ADD MSTORE ISZERO ISZERO PUSH1 0x5 SHL DUP3 ADD ADD PUSH0 DUP1 DUP1 PUSH2 0x42BC JUMP JUMPDEST SWAP2 SWAP1 DUP3 MLOAD SWAP3 DUP4 DUP3 MSTORE PUSH0 JUMPDEST DUP5 DUP2 LT PUSH2 0x4357 JUMPI POP POP DUP3 PUSH0 PUSH1 0x20 DUP1 SWAP5 SWAP6 DUP5 ADD ADD MSTORE PUSH1 0x1F DUP1 NOT SWAP2 ADD AND ADD ADD SWAP1 JUMP JUMPDEST PUSH1 0x20 DUP2 DUP4 ADD DUP2 ADD MLOAD DUP5 DUP4 ADD DUP3 ADD MSTORE ADD PUSH2 0x4337 JUMP JUMPDEST SWAP1 PUSH2 0x4383 PUSH1 0x20 SWAP2 SWAP5 SWAP4 SWAP5 PUSH1 0x40 DUP5 MSTORE PUSH1 0x40 DUP5 ADD SWAP1 PUSH2 0x432D JUMP JUMPDEST SWAP4 ISZERO ISZERO SWAP2 ADD MSTORE JUMP JUMPDEST PUSH1 0x40 SWAP1 PUSH1 0x3 NOT ADD SLT PUSH2 0x33D JUMPI PUSH1 0x4 CALLDATALOAD SWAP1 PUSH1 0x24 CALLDATALOAD SWAP1 JUMP JUMPDEST PUSH1 0x40 SWAP1 PUSH1 0x3 NOT ADD SLT PUSH2 0x33D JUMPI PUSH1 0x4 CALLDATALOAD SWAP1 PUSH1 0x24 CALLDATALOAD PUSH1 0x3 DUP2 LT ISZERO PUSH2 0x33D JUMPI SWAP1 JUMP JUMPDEST DUP1 SLOAD DUP3 LT ISZERO PUSH2 0x43D5 JUMPI PUSH0 MSTORE PUSH1 0x20 PUSH0 KECCAK256 ADD SWAP1 PUSH0 SWAP1 JUMP JUMPDEST PUSH4 0x4E487B71 PUSH1 0xE0 SHL PUSH0 MSTORE PUSH1 0x32 PUSH1 0x4 MSTORE PUSH1 0x24 PUSH0 REVERT JUMPDEST PUSH1 0x5 GT ISZERO PUSH2 0x43F3 JUMPI JUMP JUMPDEST PUSH4 0x4E487B71 PUSH1 0xE0 SHL PUSH0 MSTORE PUSH1 0x21 PUSH1 0x4 MSTORE PUSH1 0x24 PUSH0 REVERT JUMPDEST SWAP1 PUSH1 0x3 DUP3 LT ISZERO PUSH2 0x43F3 JUMPI MSTORE JUMP JUMPDEST ISZERO PUSH2 0x441B JUMPI JUMP JUMPDEST PUSH1 0x40 MLOAD PUSH3 0x461BCD PUSH1 0xE5 SHL DUP2 MSTORE PUSH1 0x20 PUSH1 0x4 DUP3 ADD MSTORE PUSH1 0x14 PUSH1 0x24 DUP3 ADD MSTORE PUSH20 0x2737BA1030B71030B1BA34BB329036B2B6B132B9 PUSH1 0x61 SHL PUSH1 0x44 DUP3 ADD MSTORE PUSH1 0x64 SWAP1 REVERT JUMPDEST ISZERO PUSH2 0x445E JUMPI JUMP JUMPDEST PUSH1 0x40 MLOAD PUSH3 0x461BCD PUSH1 0xE5 SHL DUP2 MSTORE PUSH1 0x20 PUSH1 0x4 DUP3 ADD MSTORE PUSH1 0x15 PUSH1 0x24 DUP3 ADD MSTORE PUSH21 0x82E4E4C2F240D8CADCCEE8D040DAD2E6DAC2E8C6D PUSH1 0x5B SHL PUSH1 0x44 DUP3 ADD MSTORE PUSH1 0x64 SWAP1 REVERT JUMPDEST ISZERO PUSH2 0x44A2 JUMPI JUMP JUMPDEST PUSH1 0x40 MLOAD PUSH3 0x461BCD PUSH1 0xE5 SHL DUP2 MSTORE PUSH1 0x20 PUSH1 0x4 DUP3 ADD MSTORE PUSH1 0x1C PUSH1 0x24 DUP3 ADD MSTORE PUSH32 0x5461726765742077616C6C6574206E6F74207265676973746572656400000000 PUSH1 0x44 DUP3 ADD MSTORE PUSH1 0x64 SWAP1 REVERT JUMPDEST SWAP1 PUSH1 0x40 MLOAD SWAP2 DUP3 DUP2 SLOAD SWAP2 DUP3 DUP3 MSTORE PUSH1 0x20 SWAP3 PUSH1 0x20 DUP4 ADD SWAP2 PUSH0 MSTORE PUSH1 0x20 PUSH0 KECCAK256 SWAP4 PUSH0 SWAP1 JUMPDEST DUP3 DUP3 LT PUSH2 0x451B JUMPI POP POP POP PUSH2 0x42CB SWAP3 POP SUB DUP4 PUSH2 0x4016 JUMP JUMPDEST DUP6 SLOAD DUP5 MSTORE PUSH1 0x1 SWAP6 DUP7 ADD SWAP6 DUP9 SWAP6 POP SWAP4 DUP2 ADD SWAP4 SWAP1 SWAP2 ADD SWAP1 PUSH2 0x4505 JUMP JUMPDEST PUSH1 0x1 PUSH1 0x1 PUSH1 0xA0 SHL SUB SWAP1 SWAP2 AND PUSH0 SWAP1 DUP2 MSTORE PUSH1 0x1 PUSH1 0x20 MSTORE PUSH1 0x40 SWAP1 KECCAK256 SLOAD SWAP1 DUP2 ISZERO PUSH2 0x4580 JUMPI PUSH2 0x4567 PUSH2 0x4560 PUSH2 0x4735 JUMP JUMPDEST DUP4 DUP4 PUSH2 0x4DA5 JUMP JUMPDEST SWAP2 DUP3 ISZERO PUSH2 0x4573 JUMPI POP POP SWAP1 JUMP JUMPDEST PUSH2 0x410E SWAP3 POP PUSH2 0x2CFE PUSH2 0x4756 JUMP JUMPDEST POP POP PUSH0 SWAP1 JUMP JUMPDEST ISZERO PUSH2 0x458D JUMPI JUMP JUMPDEST PUSH1 0x40 MLOAD PUSH3 0x461BCD PUSH1 0xE5 SHL DUP2 MSTORE PUSH1 0x20 PUSH1 0x4 DUP3 ADD MSTORE PUSH1 0xA PUSH1 0x24 DUP3 ADD MSTORE PUSH10 0x27B7363C9030B236B4B7 PUSH1 0xB1 SHL PUSH1 0x44 DUP3 ADD MSTORE PUSH1 0x64 SWAP1 REVERT JUMPDEST ISZERO PUSH2 0x45C6 JUMPI JUMP JUMPDEST PUSH1 0x40 MLOAD PUSH3 0x461BCD PUSH1 0xE5 SHL DUP2 MSTORE PUSH1 0x20 PUSH1 0x4 DUP3 ADD MSTORE PUSH1 0x15 PUSH1 0x24 DUP3 ADD MSTORE PUSH21 0x15D85B1B195D081B9BDD081C9959DA5CDD195C9959 PUSH1 0x5A SHL PUSH1 0x44 DUP3 ADD MSTORE PUSH1 0x64 SWAP1 REVERT JUMPDEST ISZERO PUSH2 0x460A JUMPI JUMP JUMPDEST PUSH1 0x40 MLOAD PUSH3 0x461BCD PUSH1 0xE5 SHL DUP2 MSTORE PUSH1 0x20 PUSH1 0x4 DUP3 ADD MSTORE PUSH1 0x1E PUSH1 0x24 DUP3 ADD MSTORE PUSH32 0x5265636F726420494420686173682063616E6E6F7420626520656D7074790000 PUSH1 0x44 DUP3 ADD MSTORE PUSH1 0x64 SWAP1 REVERT JUMPDEST ISZERO PUSH2 0x4656 JUMPI JUMP JUMPDEST PUSH1 0x40 MLOAD PUSH3 0x461BCD PUSH1 0xE5 SHL DUP2 MSTORE PUSH1 0x20 PUSH1 0x4 DUP3 ADD MSTORE PUSH1 0x1D PUSH1 0x24 DUP3 ADD MSTORE PUSH32 0x57616C6C657420616464726573732063616E6E6F74206265207A65726F000000 PUSH1 0x44 DUP3 ADD MSTORE PUSH1 0x64 SWAP1 REVERT JUMPDEST ISZERO PUSH2 0x46A2 JUMPI JUMP JUMPDEST PUSH1 0x40 MLOAD PUSH3 0x461BCD PUSH1 0xE5 SHL DUP2 MSTORE PUSH1 0x20 PUSH1 0x4 DUP3 ADD MSTORE PUSH1 0x13 PUSH1 0x24 DUP3 ADD MSTORE PUSH19 0x496E76616C696420726F6C6520737472696E67 PUSH1 0x68 SHL PUSH1 0x44 DUP3 ADD MSTORE PUSH1 0x64 SWAP1 REVERT JUMPDEST ISZERO PUSH2 0x46E4 JUMPI JUMP JUMPDEST PUSH1 0x40 MLOAD PUSH3 0x461BCD PUSH1 0xE5 SHL DUP2 MSTORE PUSH1 0x20 PUSH1 0x4 DUP3 ADD MSTORE PUSH1 0x23 PUSH1 0x24 DUP3 ADD MSTORE PUSH32 0x54617267657420646F6573206E6F74206861766520616E206163746976652072 PUSH1 0x44 DUP3 ADD MSTORE PUSH3 0x6F6C65 PUSH1 0xE8 SHL PUSH1 0x64 DUP3 ADD MSTORE PUSH1 0x84 SWAP1 REVERT JUMPDEST PUSH1 0x40 MLOAD SWAP1 PUSH2 0x4742 DUP3 PUSH2 0x3FCC JUMP JUMPDEST PUSH1 0x5 DUP3 MSTORE PUSH5 0x37BBB732B9 PUSH1 0xD9 SHL PUSH1 0x20 DUP4 ADD MSTORE JUMP JUMPDEST PUSH1 0x40 MLOAD SWAP1 PUSH2 0x4763 DUP3 PUSH2 0x3FCC JUMP JUMPDEST PUSH1 0xD DUP3 MSTORE PUSH13 0x30B236B4B734B9BA3930BA37B9 PUSH1 0x99 SHL PUSH1 0x20 DUP4 ADD MSTORE JUMP JUMPDEST PUSH1 0x40 MLOAD SWAP1 PUSH2 0x478C DUP3 PUSH2 0x3FCC JUMP JUMPDEST PUSH1 0x6 DUP3 MSTORE PUSH6 0x39B430B932B9 PUSH1 0xD1 SHL PUSH1 0x20 DUP4 ADD MSTORE JUMP JUMPDEST PUSH1 0x40 MLOAD SWAP1 PUSH2 0x47AE DUP3 PUSH2 0x3FCC JUMP JUMPDEST PUSH1 0x6 DUP3 MSTORE PUSH6 0x3B34B2BBB2B9 PUSH1 0xD1 SHL PUSH1 0x20 DUP4 ADD MSTORE JUMP JUMPDEST SWAP2 SWAP1 PUSH1 0x1 DUP1 PUSH1 0xA0 SHL SUB AND PUSH0 MSTORE PUSH1 0x1 PUSH1 0x20 MSTORE PUSH1 0x40 PUSH0 KECCAK256 SLOAD DUP1 ISZERO PUSH2 0x47E8 JUMPI PUSH2 0x410E SWAP3 PUSH2 0x4DA5 JUMP JUMPDEST POP POP POP PUSH0 SWAP1 JUMP JUMPDEST PUSH1 0x1 PUSH1 0x1 PUSH1 0xA0 SHL SUB SWAP1 SWAP2 AND PUSH0 SWAP1 DUP2 MSTORE PUSH1 0x1 PUSH1 0x20 MSTORE PUSH1 0x40 SWAP1 KECCAK256 SLOAD SWAP1 DUP2 ISZERO PUSH2 0x4851 JUMPI PUSH1 0x20 SWAP3 SWAP2 PUSH2 0x481C SWAP2 PUSH2 0x4D71 JUMP JUMPDEST PUSH0 MSTORE PUSH1 0x5 DUP3 MSTORE PUSH1 0x40 PUSH0 KECCAK256 PUSH1 0x40 MLOAD PUSH2 0x4832 DUP2 PUSH2 0x3FCC JUMP JUMPDEST PUSH1 0xFF PUSH1 0x1 PUSH2 0x483F DUP5 PUSH2 0x428B JUMP JUMPDEST SWAP4 DUP5 DUP5 MSTORE ADD SLOAD AND ISZERO ISZERO SWAP4 DUP5 SWAP2 ADD MSTORE SWAP2 SWAP1 JUMP JUMPDEST POP POP PUSH1 0x40 MLOAD PUSH2 0x485F DUP2 PUSH2 0x3FFB JUMP JUMPDEST PUSH0 DUP2 MSTORE SWAP1 PUSH0 SWAP1 JUMP JUMPDEST ISZERO PUSH2 0x486E JUMPI JUMP JUMPDEST PUSH1 0x40 MLOAD PUSH3 0x461BCD PUSH1 0xE5 SHL DUP2 MSTORE PUSH1 0x20 PUSH1 0x4 DUP3 ADD MSTORE PUSH1 0x16 PUSH1 0x24 DUP3 ADD MSTORE PUSH22 0x496E76616C69642077616C6C65742061646472657373 PUSH1 0x50 SHL PUSH1 0x44 DUP3 ADD MSTORE PUSH1 0x64 SWAP1 REVERT JUMPDEST ISZERO PUSH2 0x48B3 JUMPI JUMP JUMPDEST PUSH1 0x40 MLOAD PUSH3 0x461BCD PUSH1 0xE5 SHL DUP2 MSTORE PUSH1 0x20 PUSH1 0x4 DUP3 ADD MSTORE PUSH1 0x14 PUSH1 0x24 DUP3 ADD MSTORE PUSH20 0x92DCECC2D8D2C840EAE6CAE440928840D0C2E6D PUSH1 0x63 SHL PUSH1 0x44 DUP3 ADD MSTORE PUSH1 0x64 SWAP1 REVERT JUMPDEST ISZERO PUSH2 0x48F6 JUMPI JUMP JUMPDEST PUSH1 0x40 MLOAD PUSH3 0x461BCD PUSH1 0xE5 SHL DUP2 MSTORE PUSH1 0x20 PUSH1 0x4 DUP3 ADD MSTORE PUSH1 0x19 PUSH1 0x24 DUP3 ADD MSTORE PUSH32 0x57616C6C657420616C7265616479207265676973746572656400000000000000 PUSH1 0x44 DUP3 ADD MSTORE PUSH1 0x64 SWAP1 REVERT JUMPDEST DUP1 SLOAD PUSH1 0x1 PUSH1 0x40 SHL DUP2 LT ISZERO PUSH2 0x3FE7 JUMPI PUSH2 0x4958 SWAP2 PUSH1 0x1 DUP3 ADD DUP2 SSTORE PUSH2 0x43C0 JUMP JUMPDEST PUSH1 0x1 DUP1 PUSH1 0xA0 SWAP5 SWAP4 SWAP5 SHL SUB DUP1 DUP5 SLOAD SWAP3 PUSH1 0x3 SHL SWAP4 AND DUP4 SHL SWAP3 SHL NOT AND OR SWAP1 SSTORE JUMP JUMPDEST SWAP1 PUSH2 0x4980 DUP2 PUSH2 0x43E9 JUMP JUMPDEST PUSH1 0xFF DUP1 NOT DUP4 SLOAD AND SWAP2 AND OR SWAP1 SSTORE JUMP JUMPDEST PUSH0 NOT DUP2 EQ PUSH2 0x499C JUMPI PUSH1 0x1 ADD SWAP1 JUMP JUMPDEST PUSH4 0x4E487B71 PUSH1 0xE0 SHL PUSH0 MSTORE PUSH1 0x11 PUSH1 0x4 MSTORE PUSH1 0x24 PUSH0 REVERT JUMPDEST ISZERO PUSH2 0x49B7 JUMPI JUMP JUMPDEST PUSH1 0x40 MLOAD PUSH3 0x461BCD PUSH1 0xE5 SHL DUP2 MSTORE PUSH1 0x20 PUSH1 0x4 DUP3 ADD MSTORE PUSH1 0x1E PUSH1 0x24 DUP3 ADD MSTORE PUSH32 0x4E6F2061637469766520747275737465652072656C6174696F6E736869700000 PUSH1 0x44 DUP3 ADD MSTORE PUSH1 0x64 SWAP1 REVERT JUMPDEST SWAP1 PUSH1 0x3 DUP2 LT ISZERO PUSH2 0x43F3 JUMPI PUSH2 0xFF00 DUP3 SLOAD SWAP2 PUSH1 0x8 SHL AND SWAP1 PUSH2 0xFF00 NOT AND OR SWAP1 SSTORE JUMP JUMPDEST PUSH2 0x4A3C PUSH1 0x40 SWAP3 SWAP6 SWAP5 SWAP4 PUSH2 0x4A32 DUP4 PUSH1 0x60 DUP2 ADD SWAP9 PUSH2 0x4407 JUMP JUMPDEST PUSH1 0x20 DUP4 ADD SWAP1 PUSH2 0x4407 JUMP JUMPDEST ADD MSTORE JUMP JUMPDEST DUP1 MLOAD DUP3 LT ISZERO PUSH2 0x43D5 JUMPI PUSH1 0x20 SWAP2 PUSH1 0x5 SHL ADD ADD SWAP1 JUMP JUMPDEST PUSH1 0x3 DUP3 LT ISZERO PUSH2 0x43F3 JUMPI MSTORE JUMP JUMPDEST ISZERO PUSH2 0x4A67 JUMPI JUMP JUMPDEST PUSH1 0x40 MLOAD PUSH3 0x461BCD PUSH1 0xE5 SHL DUP2 MSTORE PUSH1 0x20 PUSH1 0x4 DUP3 ADD MSTORE PUSH1 0xF PUSH1 0x24 DUP3 ADD MSTORE PUSH15 0x496E76616C69642061646472657373 PUSH1 0x88 SHL PUSH1 0x44 DUP3 ADD MSTORE PUSH1 0x64 SWAP1 REVERT JUMPDEST PUSH1 0x1 PUSH1 0x1 PUSH1 0xA0 SHL SUB SWAP1 SWAP2 AND PUSH0 SWAP1 DUP2 MSTORE PUSH1 0x1 PUSH1 0x20 MSTORE PUSH1 0x40 SWAP1 KECCAK256 SLOAD DUP1 ISZERO PUSH2 0x4580 JUMPI PUSH2 0x4AC6 SWAP2 PUSH2 0x4D71 JUMP JUMPDEST PUSH0 MSTORE PUSH1 0x5 PUSH1 0x20 MSTORE PUSH1 0xFF PUSH1 0x1 PUSH1 0x40 PUSH0 KECCAK256 ADD SLOAD AND SWAP1 JUMP JUMPDEST DUP1 SLOAD SWAP1 PUSH0 DUP2 SSTORE DUP2 PUSH2 0x4AEA JUMPI POP POP JUMP JUMPDEST PUSH0 MSTORE PUSH1 0x20 PUSH0 KECCAK256 SWAP1 DUP2 ADD SWAP1 JUMPDEST DUP2 DUP2 LT PUSH2 0x4B00 JUMPI POP POP JUMP JUMPDEST PUSH0 DUP2 SSTORE PUSH1 0x1 ADD PUSH2 0x4AF5 JUMP JUMPDEST ISZERO PUSH2 0x4B12 JUMPI JUMP JUMPDEST PUSH1 0x40 MLOAD PUSH3 0x461BCD PUSH1 0xE5 SHL DUP2 MSTORE PUSH1 0x20 PUSH1 0x4 DUP3 ADD MSTORE PUSH1 0xF PUSH1 0x24 DUP3 ADD MSTORE PUSH15 0x496E76616C69642074727573746565 PUSH1 0x88 SHL PUSH1 0x44 DUP3 ADD MSTORE PUSH1 0x64 SWAP1 REVERT JUMPDEST ISZERO PUSH2 0x4B50 JUMPI JUMP JUMPDEST PUSH1 0x40 MLOAD PUSH3 0x461BCD PUSH1 0xE5 SHL DUP2 MSTORE PUSH1 0x20 PUSH1 0x4 DUP3 ADD MSTORE PUSH1 0x17 PUSH1 0x24 DUP3 ADD MSTORE PUSH32 0x43616E6E6F74206170706F696E7420796F757273656C66000000000000000000 PUSH1 0x44 DUP3 ADD MSTORE PUSH1 0x64 SWAP1 REVERT JUMPDEST ISZERO PUSH2 0x4B9C JUMPI JUMP JUMPDEST PUSH1 0x40 MLOAD PUSH3 0x461BCD PUSH1 0xE5 SHL DUP2 MSTORE PUSH1 0x20 PUSH1 0x4 DUP3 ADD MSTORE PUSH1 0x16 PUSH1 0x24 DUP3 ADD MSTORE PUSH22 0x151C9D5CDD1959481B9BDD081C9959DA5CDD195C9959 PUSH1 0x52 SHL PUSH1 0x44 DUP3 ADD MSTORE PUSH1 0x64 SWAP1 REVERT JUMPDEST DUP1 SLOAD SWAP1 PUSH1 0x1 PUSH1 0x40 SHL DUP3 LT ISZERO PUSH2 0x3FE7 JUMPI DUP2 PUSH2 0x4BFC SWAP2 PUSH1 0x1 PUSH2 0x4C12 SWAP5 ADD DUP2 SSTORE PUSH2 0x43C0 JUMP JUMPDEST DUP2 SWAP4 SWAP2 SLOAD SWAP1 PUSH1 0x3 SHL SWAP2 DUP3 SHL SWAP2 PUSH0 NOT SWAP1 SHL NOT AND OR SWAP1 JUMP JUMPDEST SWAP1 SSTORE JUMP JUMPDEST PUSH1 0x1 PUSH1 0x1 PUSH1 0xA0 SHL SUB AND PUSH0 SWAP1 DUP2 MSTORE PUSH1 0x1 PUSH1 0x20 MSTORE PUSH1 0x40 SWAP1 KECCAK256 DUP1 SLOAD SWAP1 DUP2 ISZERO SWAP1 DUP2 ISZERO PUSH2 0x4C97 JUMPI JUMPDEST POP PUSH2 0x4C92 JUMPI PUSH0 MSTORE PUSH1 0x2 PUSH1 0x20 MSTORE PUSH1 0xFF PUSH1 0x40 PUSH0 KECCAK256 SLOAD AND PUSH2 0x4C56 DUP2 PUSH2 0x43E9 JUMP JUMPDEST PUSH1 0x2 DUP2 EQ SWAP1 DUP2 ISZERO PUSH2 0x4C7D JUMPI JUMPDEST DUP2 ISZERO PUSH2 0x4C6C JUMPI POP SWAP1 JUMP JUMPDEST PUSH1 0x4 SWAP2 POP PUSH2 0x4C79 DUP2 PUSH2 0x43E9 JUMP JUMPDEST EQ SWAP1 JUMP JUMPDEST SWAP1 POP PUSH2 0x4C88 DUP2 PUSH2 0x43E9 JUMP JUMPDEST PUSH1 0x3 DUP2 EQ SWAP1 PUSH2 0x4C62 JUMP JUMPDEST POP PUSH0 SWAP1 JUMP JUMPDEST PUSH1 0xFF SWAP2 POP PUSH1 0x1 ADD SLOAD AND ISZERO PUSH0 PUSH2 0x4C39 JUMP JUMPDEST PUSH1 0x1 PUSH1 0x1 PUSH1 0xA0 SHL SUB AND PUSH0 SWAP1 DUP2 MSTORE PUSH1 0x1 PUSH1 0x20 MSTORE PUSH1 0x40 SWAP1 KECCAK256 DUP1 SLOAD SWAP1 DUP2 ISZERO SWAP1 DUP2 ISZERO PUSH2 0x4CE9 JUMPI JUMPDEST POP PUSH2 0x4C92 JUMPI PUSH0 MSTORE PUSH1 0x2 PUSH1 0x20 MSTORE PUSH1 0x4 PUSH1 0xFF PUSH1 0x40 PUSH0 KECCAK256 SLOAD AND PUSH2 0x4C79 DUP2 PUSH2 0x43E9 JUMP JUMPDEST PUSH1 0xFF SWAP2 POP PUSH1 0x1 ADD SLOAD AND ISZERO PUSH0 PUSH2 0x4CCA JUMP JUMPDEST PUSH1 0x20 DUP2 MLOAD SWAP2 ADD KECCAK256 PUSH2 0x4D08 PUSH2 0x4735 JUMP JUMPDEST PUSH1 0x20 DUP2 MLOAD SWAP2 ADD KECCAK256 DUP2 EQ SWAP1 DUP2 ISZERO PUSH2 0x4D58 JUMPI JUMPDEST DUP2 ISZERO PUSH2 0x4D3F JUMPI JUMPDEST DUP2 ISZERO PUSH2 0x4D2A JUMPI POP SWAP1 JUMP JUMPDEST SWAP1 POP PUSH2 0x4D34 PUSH2 0x47A1 JUMP JUMPDEST PUSH1 0x20 DUP2 MLOAD SWAP2 ADD KECCAK256 EQ SWAP1 JUMP JUMPDEST SWAP1 POP PUSH2 0x4D49 PUSH2 0x477F JUMP JUMPDEST PUSH1 0x20 DUP2 MLOAD SWAP2 ADD KECCAK256 DUP2 EQ SWAP1 PUSH2 0x4D20 JUMP JUMPDEST SWAP1 POP PUSH2 0x4D62 PUSH2 0x4756 JUMP JUMPDEST PUSH1 0x20 DUP2 MLOAD SWAP2 ADD KECCAK256 DUP2 EQ SWAP1 PUSH2 0x4D19 JUMP JUMPDEST SWAP1 PUSH1 0x40 MLOAD SWAP1 PUSH1 0x20 DUP3 ADD SWAP3 DUP4 MSTORE PUSH1 0x40 DUP3 ADD MSTORE PUSH1 0x40 DUP2 MSTORE PUSH1 0x60 DUP2 ADD DUP2 DUP2 LT PUSH1 0x1 PUSH1 0x1 PUSH1 0x40 SHL SUB DUP3 GT OR PUSH2 0x3FE7 JUMPI PUSH1 0x40 MSTORE MLOAD SWAP1 KECCAK256 SWAP1 JUMP JUMPDEST PUSH1 0x20 SWAP3 SWAP2 PUSH2 0x4DB2 SWAP2 PUSH2 0x4D71 JUMP JUMPDEST PUSH0 MSTORE PUSH1 0x5 DUP3 MSTORE PUSH1 0x40 PUSH0 KECCAK256 PUSH1 0x40 MLOAD PUSH2 0x4DC8 DUP2 PUSH2 0x3FCC JUMP JUMPDEST PUSH1 0xFF PUSH1 0x1 PUSH2 0x4DD5 DUP5 PUSH2 0x428B JUMP JUMPDEST SWAP4 DUP5 DUP5 MSTORE ADD SLOAD AND ISZERO ISZERO SWAP4 DUP5 SWAP2 ADD MSTORE DUP3 PUSH2 0x4DED JUMPI POP POP SWAP1 JUMP JUMPDEST SWAP1 SWAP2 POP PUSH1 0x20 DUP2 MLOAD SWAP2 ADD KECCAK256 SWAP1 PUSH1 0x20 DUP2 MLOAD SWAP2 ADD KECCAK256 EQ SWAP1 JUMP JUMPDEST PUSH1 0xC SLOAD PUSH1 0x1 PUSH1 0x1 PUSH1 0xA0 SHL SUB AND SWAP2 DUP3 ISZERO PUSH2 0x47E8 JUMPI PUSH1 0x44 PUSH1 0x20 SWAP3 PUSH1 0x40 MLOAD SWAP5 DUP6 SWAP4 DUP5 SWAP3 PUSH4 0x193D8E75 PUSH1 0xE2 SHL DUP5 MSTORE PUSH1 0x4 DUP5 ADD MSTORE PUSH1 0x24 DUP4 ADD MSTORE GAS STATICCALL SWAP1 DUP2 ISZERO PUSH2 0x4E82 JUMPI PUSH0 SWAP2 PUSH2 0x4E4A JUMPI POP SWAP1 JUMP JUMPDEST SWAP1 POP PUSH1 0x20 DUP2 RETURNDATASIZE PUSH1 0x20 GT PUSH2 0x4E7A JUMPI JUMPDEST DUP2 PUSH2 0x4E65 PUSH1 0x20 SWAP4 DUP4 PUSH2 0x4016 JUMP JUMPDEST DUP2 ADD SUB SLT PUSH2 0x33D JUMPI MLOAD DUP1 ISZERO ISZERO DUP2 SUB PUSH2 0x33D JUMPI SWAP1 JUMP JUMPDEST RETURNDATASIZE SWAP2 POP PUSH2 0x4E58 JUMP JUMPDEST PUSH1 0x40 MLOAD RETURNDATASIZE PUSH0 DUP3 RETURNDATACOPY RETURNDATASIZE SWAP1 REVERT JUMPDEST SWAP2 SWAP3 PUSH32 0x3AF67CF2057BA8EF414286FB626CD3EFB02F74996E18EFD455B39D8EC7EC460F SWAP2 SWAP5 PUSH2 0x4EE7 PUSH2 0x4ED9 SWAP3 PUSH2 0x4EC5 DUP9 DUP3 DUP10 DUP10 PUSH2 0x507C JUMP JUMPDEST PUSH1 0x40 MLOAD SWAP4 DUP5 SWAP4 PUSH1 0x60 DUP6 MSTORE PUSH1 0x60 DUP6 ADD SWAP1 PUSH2 0x432D JUMP JUMPDEST SWAP1 DUP4 DUP3 SUB PUSH1 0x20 DUP6 ADD MSTORE PUSH2 0x432D JUMP JUMPDEST TIMESTAMP PUSH1 0x40 DUP4 ADD MSTORE SUB SWAP1 LOG4 JUMP JUMPDEST DUP3 MLOAD PUSH1 0x20 DUP1 SWAP5 ADD KECCAK256 PUSH2 0x4F02 PUSH2 0x4735 JUMP JUMPDEST DUP1 MLOAD SWAP1 DUP6 ADD KECCAK256 DUP2 SUB PUSH2 0x4F22 JUMPI POP PUSH2 0x42CB SWAP3 PUSH1 0x6 SWAP2 PUSH0 MSTORE MSTORE PUSH1 0x40 PUSH0 KECCAK256 PUSH2 0x5390 JUMP JUMPDEST PUSH2 0x4F2A PUSH2 0x4756 JUMP JUMPDEST DUP1 MLOAD SWAP1 DUP6 ADD KECCAK256 DUP2 SUB PUSH2 0x4F4A JUMPI POP PUSH2 0x42CB SWAP3 PUSH1 0x7 SWAP2 PUSH0 MSTORE MSTORE PUSH1 0x40 PUSH0 KECCAK256 PUSH2 0x5390 JUMP JUMPDEST PUSH2 0x4F52 PUSH2 0x477F JUMP JUMPDEST DUP1 MLOAD SWAP1 DUP6 ADD KECCAK256 DUP2 SUB PUSH2 0x4F72 JUMPI POP PUSH2 0x42CB SWAP3 PUSH1 0x8 SWAP2 PUSH0 MSTORE MSTORE PUSH1 0x40 PUSH0 KECCAK256 PUSH2 0x5390 JUMP JUMPDEST PUSH2 0x4F7A PUSH2 0x47A1 JUMP JUMPDEST DUP5 DUP2 MLOAD SWAP2 ADD KECCAK256 EQ PUSH2 0x4F8A JUMPI POP POP POP JUMP JUMPDEST PUSH2 0x42CB SWAP3 PUSH1 0x9 SWAP2 PUSH0 MSTORE MSTORE PUSH1 0x40 PUSH0 KECCAK256 PUSH2 0x5390 JUMP JUMPDEST SWAP3 SWAP2 SWAP1 DUP4 PUSH0 MSTORE PUSH1 0x20 SWAP1 PUSH1 0xF DUP3 MSTORE PUSH1 0x40 SWAP1 PUSH1 0x40 PUSH0 KECCAK256 DUP2 PUSH0 MSTORE DUP4 MSTORE PUSH1 0x40 PUSH0 KECCAK256 SWAP6 PUSH0 JUMPDEST DUP8 SLOAD DUP2 LT ISZERO PUSH2 0x5068 JUMPI DUP1 PUSH2 0x4FD3 PUSH1 0x1 SWAP3 DUP11 PUSH2 0x43C0 JUMP JUMPDEST SWAP1 SLOAD SWAP1 PUSH1 0x3 SHL SHR PUSH2 0x4FE4 DUP6 DUP3 PUSH2 0x4D71 JUMP JUMPDEST PUSH0 MSTORE PUSH1 0x5 DUP1 DUP9 MSTORE PUSH1 0xFF DUP5 DUP9 PUSH0 KECCAK256 ADD SLOAD AND ISZERO PUSH2 0x5061 JUMPI PUSH2 0x5004 DUP10 DUP7 DUP5 PUSH2 0x52E3 JUMP JUMPDEST SWAP1 PUSH2 0x500E DUP3 PUSH2 0x4CF9 JUMP JUMPDEST ISZERO PUSH2 0x5059 JUMPI PUSH2 0x501D DUP8 DUP5 PUSH2 0x4D71 JUMP JUMPDEST PUSH0 MSTORE DUP9 MSTORE PUSH2 0x502C DUP8 PUSH0 KECCAK256 PUSH2 0x428B JUMP JUMPDEST SWAP1 DUP7 DUP7 DUP4 MLOAD DUP12 DUP6 ADD KECCAK256 DUP4 MLOAD DUP13 DUP6 ADD KECCAK256 EQ PUSH2 0x504F JUMPI PUSH2 0x5049 SWAP5 PUSH2 0x4E8D JUMP JUMPDEST ADD PUSH2 0x4FBD JUMP JUMPDEST POP POP POP POP POP PUSH2 0x5049 JUMP JUMPDEST POP POP POP PUSH2 0x5049 JUMP JUMPDEST POP POP PUSH2 0x5049 JUMP JUMPDEST POP POP POP POP POP POP SWAP1 POP JUMP JUMPDEST SWAP1 PUSH2 0x4AC6 SWAP2 PUSH2 0x4D71 JUMP JUMPDEST SWAP3 SWAP2 SWAP3 PUSH2 0x5089 DUP3 DUP3 PUSH2 0x4D71 JUMP JUMPDEST SWAP4 DUP5 PUSH0 MSTORE PUSH1 0x20 PUSH1 0x5 DUP2 MSTORE PUSH1 0x40 SWAP1 DUP2 PUSH0 KECCAK256 SWAP7 PUSH2 0x50A3 DUP9 PUSH2 0x428B JUMP JUMPDEST SWAP8 DUP9 MLOAD ISZERO SWAP2 PUSH1 0xFF PUSH1 0x1 DUP1 SWAP4 ADD SLOAD AND SWAP2 DUP6 MLOAD SWAP1 PUSH2 0x50BE DUP3 PUSH2 0x3FCC JUMP JUMPDEST DUP8 DUP3 MSTORE DUP6 DUP3 ADD DUP2 DUP2 MSTORE DUP4 PUSH0 MSTORE PUSH1 0x5 DUP8 MSTORE DUP8 PUSH0 KECCAK256 SWAP3 MLOAD DUP1 MLOAD SWAP1 PUSH1 0x1 PUSH1 0x1 PUSH1 0x40 SHL SUB DUP3 GT PUSH2 0x3FE7 JUMPI PUSH2 0x50EE DUP6 SLOAD PUSH2 0x4253 JUMP JUMPDEST PUSH1 0x1F DUP2 GT PUSH2 0x524B JUMPI JUMPDEST POP DUP9 SWAP1 PUSH1 0x1F DUP4 GT PUSH1 0x1 EQ PUSH2 0x51FD JUMPI PUSH2 0x513C SWAP6 SWAP5 SWAP4 SWAP3 SWAP2 PUSH0 SWAP2 DUP4 PUSH2 0x26D2 JUMPI POP POP PUSH0 NOT PUSH1 0x3 DUP4 SWAP1 SHL SHR NOT AND SWAP1 DUP4 SHL OR DUP4 SSTORE MLOAD ISZERO ISZERO SWAP2 ADD SWAP1 PUSH1 0xFF DUP1 NOT DUP4 SLOAD AND SWAP2 ISZERO ISZERO AND OR SWAP1 SSTORE JUMP JUMPDEST PUSH0 MSTORE PUSH1 0xD DUP4 MSTORE DUP8 DUP5 PUSH0 KECCAK256 SSTORE ISZERO PUSH0 EQ PUSH2 0x51C8 JUMPI DUP6 SWAP7 SWAP8 POP PUSH2 0x517F DUP5 DUP7 SWAP8 PUSH32 0xF9D17EB1340AB78960B594FF8BED1349985B800EE21199C6D5EA4A67454593AD SWAP8 PUSH2 0x5427 JUMP JUMPDEST PUSH2 0x51A2 JUMPI JUMPDEST PUSH2 0x5197 DUP3 MLOAD SWAP4 DUP4 DUP6 SWAP5 DUP6 MSTORE DUP5 ADD SWAP1 PUSH2 0x432D JUMP JUMPDEST SWAP1 TIMESTAMP SWAP1 DUP4 ADD MSTORE SUB SWAP1 LOG4 JUMP JUMPDEST DUP6 PUSH0 MSTORE PUSH1 0xA DUP2 MSTORE PUSH2 0x51B5 DUP6 DUP4 PUSH0 KECCAK256 PUSH2 0x4BDA JUMP JUMPDEST PUSH2 0x51C0 PUSH1 0xB SLOAD PUSH2 0x498E JUMP JUMPDEST PUSH1 0xB SSTORE PUSH2 0x5184 JUMP JUMPDEST POP SWAP2 SWAP5 POP POP DUP5 MLOAD DUP2 DUP7 ADD KECCAK256 SWAP1 DUP5 MLOAD SWAP1 DUP6 ADD KECCAK256 SUB PUSH2 0x51E6 JUMPI JUMPDEST POP POP POP POP JUMP JUMPDEST PUSH2 0x26CD PUSH2 0x51F4 SWAP5 DUP4 DUP4 PUSH2 0x4EF2 JUMP JUMPDEST PUSH0 DUP1 DUP1 DUP1 PUSH2 0x51E0 JUMP JUMPDEST SWAP1 PUSH1 0x1F NOT DUP4 AND SWAP2 DUP7 PUSH0 MSTORE DUP11 PUSH0 KECCAK256 SWAP3 PUSH0 JUMPDEST DUP13 DUP3 DUP3 LT PUSH2 0x5237 JUMPI POP POP SWAP2 DUP7 SWAP6 SWAP5 SWAP3 SWAP2 DUP4 PUSH2 0x513C SWAP10 SWAP9 SWAP6 SWAP4 LT PUSH2 0x2718 JUMPI POP POP POP DUP2 SHL ADD DUP4 SSTORE PUSH2 0x260D JUMP JUMPDEST DUP4 DUP6 ADD MLOAD DUP7 SSTORE SWAP5 DUP9 ADD SWAP5 SWAP4 DUP5 ADD SWAP4 ADD PUSH2 0x520D JUMP JUMPDEST DUP6 PUSH0 MSTORE DUP10 PUSH0 KECCAK256 PUSH1 0x1F DUP5 ADD PUSH1 0x5 SHR DUP2 ADD SWAP2 DUP12 DUP6 LT PUSH2 0x5287 JUMPI JUMPDEST PUSH1 0x1F ADD PUSH1 0x5 SHR ADD SWAP1 DUP6 SWAP1 JUMPDEST DUP3 DUP2 LT PUSH2 0x527C JUMPI POP POP PUSH2 0x50F7 JUMP JUMPDEST PUSH0 DUP2 SSTORE ADD DUP6 SWAP1 PUSH2 0x526E JUMP JUMPDEST SWAP1 SWAP2 POP DUP2 SWAP1 PUSH2 0x5263 JUMP JUMPDEST PUSH1 0x1 PUSH1 0x1 PUSH1 0xA0 SHL SUB AND PUSH0 SWAP1 DUP2 MSTORE PUSH1 0x1 PUSH1 0x20 MSTORE PUSH1 0x40 SWAP1 KECCAK256 DUP1 SLOAD SWAP1 DUP2 ISZERO SWAP1 DUP2 ISZERO PUSH2 0x52D3 JUMPI JUMPDEST POP PUSH2 0x4C92 JUMPI PUSH0 MSTORE PUSH1 0x2 PUSH1 0x20 MSTORE PUSH1 0x3 PUSH1 0xFF PUSH1 0x40 PUSH0 KECCAK256 SLOAD AND PUSH2 0x4C79 DUP2 PUSH2 0x43E9 JUMP JUMPDEST PUSH1 0xFF SWAP2 POP PUSH1 0x1 ADD SLOAD AND ISZERO PUSH0 PUSH2 0x52B4 JUMP JUMPDEST PUSH1 0x3 DUP4 LT ISZERO PUSH2 0x43F3 JUMPI DUP3 ISZERO PUSH2 0x532E JUMPI PUSH1 0x1 SWAP2 PUSH2 0x52FE SWAP2 PUSH2 0x5339 JUMP JUMPDEST SWAP2 EQ PUSH2 0x5307 JUMPI SWAP1 JUMP JUMPDEST DUP1 MLOAD PUSH1 0x20 DUP3 ADD KECCAK256 PUSH2 0x5316 PUSH2 0x4735 JUMP JUMPDEST PUSH1 0x20 DUP2 MLOAD SWAP2 ADD KECCAK256 EQ PUSH2 0x5325 JUMPI SWAP1 JUMP JUMPDEST POP PUSH2 0x410E PUSH2 0x4756 JUMP JUMPDEST POP POP POP PUSH2 0x410E PUSH2 0x47A1 JUMP JUMPDEST SWAP1 PUSH2 0x5343 SWAP2 PUSH2 0x4D71 JUMP JUMPDEST PUSH0 MSTORE PUSH1 0x5 PUSH1 0x20 MSTORE PUSH1 0x40 PUSH0 KECCAK256 PUSH1 0xFF PUSH1 0x1 PUSH1 0x40 MLOAD SWAP3 PUSH2 0x535F DUP5 PUSH2 0x3FCC JUMP JUMPDEST PUSH2 0x5368 DUP2 PUSH2 0x428B JUMP JUMPDEST DUP5 MSTORE ADD SLOAD AND ISZERO DUP1 ISZERO PUSH1 0x20 DUP4 ADD MSTORE PUSH2 0x537D JUMPI MLOAD SWAP1 JUMP JUMPDEST POP PUSH1 0x40 MLOAD PUSH2 0x538A DUP2 PUSH2 0x3FFB JUMP JUMPDEST PUSH0 DUP2 MSTORE SWAP1 JUMP JUMPDEST PUSH0 JUMPDEST DUP2 SLOAD SWAP1 DUP2 DUP2 LT ISZERO PUSH2 0x51E0 JUMPI DUP4 SWAP2 PUSH2 0x53A9 DUP3 DUP6 PUSH2 0x43C0 JUMP JUMPDEST SWAP6 SWAP1 SLOAD PUSH1 0x3 SWAP7 DUP8 SHL SHR EQ PUSH2 0x53C3 JUMPI POP SWAP1 SWAP3 POP PUSH1 0x1 ADD PUSH2 0x5392 JUMP JUMPDEST PUSH0 NOT SWAP3 POP DUP3 DUP2 ADD SWAP1 DUP2 GT PUSH2 0x499C JUMPI PUSH2 0x4BFC PUSH2 0x53E1 PUSH2 0x53EE SWAP3 DUP7 PUSH2 0x43C0 JUMP JUMPDEST SWAP1 SLOAD SWAP1 DUP8 SHL SHR SWAP3 DUP6 PUSH2 0x43C0 JUMP JUMPDEST SWAP1 SSTORE DUP2 SLOAD DUP1 ISZERO PUSH2 0x5413 JUMPI DUP2 ADD SWAP3 PUSH2 0x5405 DUP5 DUP5 PUSH2 0x43C0 JUMP JUMPDEST DUP2 SWAP4 SWAP2 SLOAD SWAP3 SHL SHL NOT AND SWAP1 SSTORE SSTORE JUMP JUMPDEST PUSH4 0x4E487B71 PUSH1 0xE0 SHL PUSH0 MSTORE PUSH1 0x31 PUSH1 0x4 MSTORE PUSH1 0x24 PUSH0 REVERT JUMPDEST DUP3 MLOAD PUSH1 0x20 DUP1 SWAP5 ADD KECCAK256 PUSH2 0x5437 PUSH2 0x4735 JUMP JUMPDEST DUP1 MLOAD SWAP1 DUP6 ADD KECCAK256 DUP2 SUB PUSH2 0x5457 JUMPI POP PUSH2 0x42CB SWAP3 PUSH1 0x6 SWAP2 PUSH0 MSTORE MSTORE PUSH1 0x40 PUSH0 KECCAK256 PUSH2 0x4BDA JUMP JUMPDEST PUSH2 0x545F PUSH2 0x4756 JUMP JUMPDEST DUP1 MLOAD SWAP1 DUP6 ADD KECCAK256 DUP2 SUB PUSH2 0x547F JUMPI POP PUSH2 0x42CB SWAP3 PUSH1 0x7 SWAP2 PUSH0 MSTORE MSTORE PUSH1 0x40 PUSH0 KECCAK256 PUSH2 0x4BDA JUMP JUMPDEST PUSH2 0x5487 PUSH2 0x477F JUMP JUMPDEST DUP1 MLOAD SWAP1 DUP6 ADD KECCAK256 DUP2 SUB PUSH2 0x54A7 JUMPI POP PUSH2 0x42CB SWAP3 PUSH1 0x8 SWAP2 PUSH0 MSTORE MSTORE PUSH1 0x40 PUSH0 KECCAK256 PUSH2 0x4BDA JUMP JUMPDEST PUSH2 0x54AF PUSH2 0x47A1 JUMP JUMPDEST DUP5 DUP2 MLOAD SWAP2 ADD KECCAK256 EQ PUSH2 0x54BF JUMPI POP POP POP JUMP JUMPDEST PUSH2 0x42CB SWAP3 PUSH1 0x9 SWAP2 PUSH0 MSTORE MSTORE PUSH1 0x40 PUSH0 KECCAK256 PUSH2 0x4BDA JUMP JUMPDEST SWAP1 PUSH0 DUP1 SWAP2 PUSH1 0x20 DUP2 MLOAD SWAP2 ADD DUP5 GAS DELEGATECALL DUP1 DUP1 PUSH2 0x5550 JUMPI JUMPDEST ISZERO PUSH2 0x5506 JUMPI POP POP PUSH1 0x40 MLOAD RETURNDATASIZE DUP2 MSTORE RETURNDATASIZE PUSH0 PUSH1 0x20 DUP4 ADD RETURNDATACOPY PUSH1 0x20 RETURNDATASIZE DUP3 ADD ADD PUSH1 0x40 MSTORE SWAP1 JUMP JUMPDEST ISZERO PUSH2 0x552D JUMPI PUSH1 0x40 MLOAD PUSH4 0x9996B315 PUSH1 0xE0 SHL DUP2 MSTORE PUSH1 0x1 PUSH1 0x1 PUSH1 0xA0 SHL SUB SWAP1 SWAP2 AND PUSH1 0x4 DUP3 ADD MSTORE PUSH1 0x24 SWAP1 REVERT JUMPDEST RETURNDATASIZE ISZERO PUSH2 0x553E JUMPI PUSH1 0x40 MLOAD RETURNDATASIZE PUSH0 DUP3 RETURNDATACOPY RETURNDATASIZE SWAP1 REVERT JUMPDEST PUSH1 0x40 MLOAD PUSH4 0xD6BDA275 PUSH1 0xE0 SHL DUP2 MSTORE PUSH1 0x4 SWAP1 REVERT JUMPDEST POP RETURNDATASIZE ISZERO ISZERO DUP1 PUSH2 0x54E6 JUMPI POP DUP2 EXTCODESIZE ISZERO ISZERO PUSH2 0x54E6 JUMP INVALID 0xD0 MCOPY 0xD2 0xD3 INVALID SELFDESTRUCT DUP5 0xC 0x2E 0xCE 0xCA PUSH18 0x791388FD3D19DBBBBCFA97031F534A7DC09F 0xBF 0x1F LOG2 PUSH5 0x6970667358 0x22 SLT KECCAK256 0xC6 ADDRESS 0xBE PUSH28 0x501BA59F8311E6CB4A9D751DF5D33F8A3750B6CE10C7153E6785071F PUSH5 0x736F6C6343 STOP ADDMOD XOR STOP CALLER "},"methodIdentifiers":{"UPGRADE_INTERFACE_VERSION()":"ad3cb1cc","acceptTrustee(bytes32)":"b8cab84b","addMember(address,bytes32)":"49df7208","addMemberBatch(address[],bytes32)":"69ac2022","admin()":"f851a440","adminsByRecord(bytes32,uint256)":"8776cd35","bootstrapDependentTrustee(bytes32,bytes32)":"e6efcd5d","changeRole(bytes32,address,string)":"29c9087a","changeRoleBatch(bytes32[],address,string[])":"51eed472","deactivateWallet(address)":"0b3ffd1d","declineTrustee(bytes32)":"f76794f1","downgradeTrusteeLevel(bytes32,uint8)":"4d3c4a7c","getAllRecordParticipants(bytes32)":"78ad8f5b","getHealthRecordCore()":"e94ed257","getRecordAdmins(bytes32)":"41a51baa","getRecordOwners(bytes32)":"c36dc9ef","getRecordRoleStats(bytes32)":"8db7edb4","getRecordSharers(bytes32)":"2ab5d8f3","getRecordViewers(bytes32)":"033e822f","getRecordsByUser(bytes32)":"6544b05b","getRoleDetails(bytes32,address)":"422a5bb8","getRoleDetailsByUser(bytes32,bytes32)":"43e19704","getRoleGranter(bytes32,bytes32)":"aaddc345","getTotalRoles()":"4b6feb7c","getTotalUsers()":"9be572f6","getTrusteeGrantedRecords(bytes32,bytes32)":"c497d840","getTrusteeRelationship(bytes32,bytes32)":"9915b91f","getUserForWallet(address)":"00b0c809","getUserStatus(bytes32)":"f29e007b","getWalletsForUser(bytes32)":"d12a7768","grantRole(bytes32,address,string)":"dde492ea","grantRoleBatch(bytes32[],address,string[])":"02ba8109","hasActiveRole(bytes32,address)":"c88c35fe","hasRole(bytes32,address,string)":"3befa410","healthRecordCore()":"562c788e","initialize()":"8129fc1c","initializeRecordRole(bytes32,address,string)":"726d5447","isActiveMember(address)":"45ecd02f","isActiveSubject(bytes32,bytes32)":"64f639d4","isControllerOf(bytes32,bytes32)":"557ee54f","isOwnerOrAdmin(bytes32,address)":"0519e2a0","isVerifiedMember(address)":"cb261a03","isVerifiedProvider(address)":"259ed80e","ownersByRecord(bytes32,uint256)":"55816079","proposeTrustee(bytes32,uint8,bytes32[])":"dc9f9664","proxiableUUID()":"52d1902d","reactivateWallet(address)":"bb0f86d5","recordRoles(bytes32)":"33105592","recordsByUser(bytes32,uint256)":"fa7a6bcc","revokeRole(bytes32,address)":"d547741f","revokeRoleBatch(bytes32[],address)":"f12b9ad3","revokeTrustee(bytes32,bytes32)":"c979c9bf","roleGrantedBy(bytes32)":"cda06c6e","setHealthRecordCore(address)":"c7155823","setUserStatus(bytes32,uint8)":"96207e02","sharersByRecord(bytes32,uint256)":"f32b10f0","totalRoles()":"790e118c","totalUsers()":"bff1f9e1","transferAdmin(address)":"75829def","trusteeRelationships(bytes32,bytes32)":"7b657d07","updateTrusteeLevel(bytes32,uint8)":"ab48384a","upgradeToAndCall(address,bytes)":"4f1ef286","userStatus(bytes32)":"6b4bed97","userWallets(bytes32,uint256)":"9443cd80","viewersByRecord(bytes32,uint256)":"93ccfba8","voluntarilyLeaveOwnership(bytes32)":"2ae8511d","wallets(address)":"89b08f11"}},"storageLayout":{"storage":[{"astId":1563,"contract":"smartContracts/MemberRoleManager.sol:MemberRoleManager","label":"admin","offset":0,"slot":"0","type":"t_address"},{"astId":1755,"contract":"smartContracts/MemberRoleManager.sol:MemberRoleManager","label":"wallets","offset":0,"slot":"1","type":"t_mapping(t_address,t_struct(UserInfo)1750_storage)"},{"astId":1760,"contract":"smartContracts/MemberRoleManager.sol:MemberRoleManager","label":"userStatus","offset":0,"slot":"2","type":"t_mapping(t_bytes32,t_enum(MemberStatus)1715)"},{"astId":1765,"contract":"smartContracts/MemberRoleManager.sol:MemberRoleManager","label":"userWallets","offset":0,"slot":"3","type":"t_mapping(t_bytes32,t_array(t_address)dyn_storage)"},{"astId":1767,"contract":"smartContracts/MemberRoleManager.sol:MemberRoleManager","label":"totalUsers","offset":0,"slot":"4","type":"t_uint256"},{"astId":2397,"contract":"smartContracts/MemberRoleManager.sol:MemberRoleManager","label":"recordRoles","offset":0,"slot":"5","type":"t_mapping(t_bytes32,t_struct(RecordRole)2392_storage)"},{"astId":2402,"contract":"smartContracts/MemberRoleManager.sol:MemberRoleManager","label":"ownersByRecord","offset":0,"slot":"6","type":"t_mapping(t_bytes32,t_array(t_bytes32)dyn_storage)"},{"astId":2407,"contract":"smartContracts/MemberRoleManager.sol:MemberRoleManager","label":"adminsByRecord","offset":0,"slot":"7","type":"t_mapping(t_bytes32,t_array(t_bytes32)dyn_storage)"},{"astId":2412,"contract":"smartContracts/MemberRoleManager.sol:MemberRoleManager","label":"sharersByRecord","offset":0,"slot":"8","type":"t_mapping(t_bytes32,t_array(t_bytes32)dyn_storage)"},{"astId":2417,"contract":"smartContracts/MemberRoleManager.sol:MemberRoleManager","label":"viewersByRecord","offset":0,"slot":"9","type":"t_mapping(t_bytes32,t_array(t_bytes32)dyn_storage)"},{"astId":2422,"contract":"smartContracts/MemberRoleManager.sol:MemberRoleManager","label":"recordsByUser","offset":0,"slot":"10","type":"t_mapping(t_bytes32,t_array(t_bytes32)dyn_storage)"},{"astId":2424,"contract":"smartContracts/MemberRoleManager.sol:MemberRoleManager","label":"totalRoles","offset":0,"slot":"11","type":"t_uint256"},{"astId":2427,"contract":"smartContracts/MemberRoleManager.sol:MemberRoleManager","label":"healthRecordCore","offset":0,"slot":"12","type":"t_contract(HealthRecordCoreInterface)1554"},{"astId":2431,"contract":"smartContracts/MemberRoleManager.sol:MemberRoleManager","label":"roleGrantedBy","offset":0,"slot":"13","type":"t_mapping(t_bytes32,t_bytes32)"},{"astId":4497,"contract":"smartContracts/MemberRoleManager.sol:MemberRoleManager","label":"trusteeRelationships","offset":0,"slot":"14","type":"t_mapping(t_bytes32,t_mapping(t_bytes32,t_struct(TrusteeRelationship)4490_storage))"},{"astId":4504,"contract":"smartContracts/MemberRoleManager.sol:MemberRoleManager","label":"_trusteeGrantedRecords","offset":0,"slot":"15","type":"t_mapping(t_bytes32,t_mapping(t_bytes32,t_array(t_bytes32)dyn_storage))"},{"astId":4512,"contract":"smartContracts/MemberRoleManager.sol:MemberRoleManager","label":"_trusteeGrantedRecordSet","offset":0,"slot":"16","type":"t_mapping(t_bytes32,t_mapping(t_bytes32,t_mapping(t_bytes32,t_bool)))"},{"astId":6222,"contract":"smartContracts/MemberRoleManager.sol:MemberRoleManager","label":"__gap","offset":0,"slot":"17","type":"t_array(t_uint256)50_storage"}],"types":{"t_address":{"encoding":"inplace","label":"address","numberOfBytes":"20"},"t_array(t_address)dyn_storage":{"base":"t_address","encoding":"dynamic_array","label":"address[]","numberOfBytes":"32"},"t_array(t_bytes32)dyn_storage":{"base":"t_bytes32","encoding":"dynamic_array","label":"bytes32[]","numberOfBytes":"32"},"t_array(t_uint256)50_storage":{"base":"t_uint256","encoding":"inplace","label":"uint256[50]","numberOfBytes":"1600"},"t_bool":{"encoding":"inplace","label":"bool","numberOfBytes":"1"},"t_bytes32":{"encoding":"inplace","label":"bytes32","numberOfBytes":"32"},"t_contract(HealthRecordCoreInterface)1554":{"encoding":"inplace","label":"contract HealthRecordCoreInterface","numberOfBytes":"20"},"t_enum(MemberStatus)1715":{"encoding":"inplace","label":"enum MemberRoleManager.MemberStatus","numberOfBytes":"1"},"t_enum(TrusteeLevel)4477":{"encoding":"inplace","label":"enum MemberRoleManager.TrusteeLevel","numberOfBytes":"1"},"t_enum(TrusteeStatus)4483":{"encoding":"inplace","label":"enum MemberRoleManager.TrusteeStatus","numberOfBytes":"1"},"t_mapping(t_address,t_struct(UserInfo)1750_storage)":{"encoding":"mapping","key":"t_address","label":"mapping(address => struct MemberRoleManager.UserInfo)","numberOfBytes":"32","value":"t_struct(UserInfo)1750_storage"},"t_mapping(t_bytes32,t_array(t_address)dyn_storage)":{"encoding":"mapping","key":"t_bytes32","label":"mapping(bytes32 => address[])","numberOfBytes":"32","value":"t_array(t_address)dyn_storage"},"t_mapping(t_bytes32,t_array(t_bytes32)dyn_storage)":{"encoding":"mapping","key":"t_bytes32","label":"mapping(bytes32 => bytes32[])","numberOfBytes":"32","value":"t_array(t_bytes32)dyn_storage"},"t_mapping(t_bytes32,t_bool)":{"encoding":"mapping","key":"t_bytes32","label":"mapping(bytes32 => bool)","numberOfBytes":"32","value":"t_bool"},"t_mapping(t_bytes32,t_bytes32)":{"encoding":"mapping","key":"t_bytes32","label":"mapping(bytes32 => bytes32)","numberOfBytes":"32","value":"t_bytes32"},"t_mapping(t_bytes32,t_enum(MemberStatus)1715)":{"encoding":"mapping","key":"t_bytes32","label":"mapping(bytes32 => enum MemberRoleManager.MemberStatus)","numberOfBytes":"32","value":"t_enum(MemberStatus)1715"},"t_mapping(t_bytes32,t_mapping(t_bytes32,t_array(t_bytes32)dyn_storage))":{"encoding":"mapping","key":"t_bytes32","label":"mapping(bytes32 => mapping(bytes32 => bytes32[]))","numberOfBytes":"32","value":"t_mapping(t_bytes32,t_array(t_bytes32)dyn_storage)"},"t_mapping(t_bytes32,t_mapping(t_bytes32,t_bool))":{"encoding":"mapping","key":"t_bytes32","label":"mapping(bytes32 => mapping(bytes32 => bool))","numberOfBytes":"32","value":"t_mapping(t_bytes32,t_bool)"},"t_mapping(t_bytes32,t_mapping(t_bytes32,t_mapping(t_bytes32,t_bool)))":{"encoding":"mapping","key":"t_bytes32","label":"mapping(bytes32 => mapping(bytes32 => mapping(bytes32 => bool)))","numberOfBytes":"32","value":"t_mapping(t_bytes32,t_mapping(t_bytes32,t_bool))"},"t_mapping(t_bytes32,t_mapping(t_bytes32,t_struct(TrusteeRelationship)4490_storage))":{"encoding":"mapping","key":"t_bytes32","label":"mapping(bytes32 => mapping(bytes32 => struct MemberRoleManager.TrusteeRelationship))","numberOfBytes":"32","value":"t_mapping(t_bytes32,t_struct(TrusteeRelationship)4490_storage)"},"t_mapping(t_bytes32,t_struct(RecordRole)2392_storage)":{"encoding":"mapping","key":"t_bytes32","label":"mapping(bytes32 => struct MemberRoleManager.RecordRole)","numberOfBytes":"32","value":"t_struct(RecordRole)2392_storage"},"t_mapping(t_bytes32,t_struct(TrusteeRelationship)4490_storage)":{"encoding":"mapping","key":"t_bytes32","label":"mapping(bytes32 => struct MemberRoleManager.TrusteeRelationship)","numberOfBytes":"32","value":"t_struct(TrusteeRelationship)4490_storage"},"t_string_storage":{"encoding":"bytes","label":"string","numberOfBytes":"32"},"t_struct(RecordRole)2392_storage":{"encoding":"inplace","label":"struct MemberRoleManager.RecordRole","members":[{"astId":2389,"contract":"smartContracts/MemberRoleManager.sol:MemberRoleManager","label":"role","offset":0,"slot":"0","type":"t_string_storage"},{"astId":2391,"contract":"smartContracts/MemberRoleManager.sol:MemberRoleManager","label":"isActive","offset":0,"slot":"1","type":"t_bool"}],"numberOfBytes":"64"},"t_struct(TrusteeRelationship)4490_storage":{"encoding":"inplace","label":"struct MemberRoleManager.TrusteeRelationship","members":[{"astId":4486,"contract":"smartContracts/MemberRoleManager.sol:MemberRoleManager","label":"status","offset":0,"slot":"0","type":"t_enum(TrusteeStatus)4483"},{"astId":4489,"contract":"smartContracts/MemberRoleManager.sol:MemberRoleManager","label":"level","offset":1,"slot":"0","type":"t_enum(TrusteeLevel)4477"}],"numberOfBytes":"32"},"t_struct(UserInfo)1750_storage":{"encoding":"inplace","label":"struct MemberRoleManager.UserInfo","members":[{"astId":1747,"contract":"smartContracts/MemberRoleManager.sol:MemberRoleManager","label":"userIdHash","offset":0,"slot":"0","type":"t_bytes32"},{"astId":1749,"contract":"smartContracts/MemberRoleManager.sol:MemberRoleManager","label":"isWalletActive","offset":0,"slot":"1","type":"t_bool"}],"numberOfBytes":"64"},"t_uint256":{"encoding":"inplace","label":"uint256","numberOfBytes":"32"}}}}}}