{"smartContracts/MemberRoleManager.sol":{"MemberRoleManager":{"abi":[{"inputs":[],"stateMutability":"nonpayable","type":"constructor"},{"inputs":[{"internalType":"address","name":"target","type":"address"}],"name":"AddressEmptyCode","type":"error"},{"inputs":[{"internalType":"address","name":"implementation","type":"address"}],"name":"ERC1967InvalidImplementation","type":"error"},{"inputs":[],"name":"ERC1967NonPayable","type":"error"},{"inputs":[],"name":"FailedCall","type":"error"},{"inputs":[],"name":"InvalidInitialization","type":"error"},{"inputs":[],"name":"NotInitializing","type":"error"},{"inputs":[],"name":"UUPSUnauthorizedCallContext","type":"error"},{"inputs":[{"internalType":"bytes32","name":"slot","type":"bytes32"}],"name":"UUPSUnsupportedProxiableUUID","type":"error"},{"anonymous":false,"inputs":[{"indexed":true,"internalType":"address","name":"oldAdmin","type":"address"},{"indexed":true,"internalType":"address","name":"newAdmin","type":"address"},{"indexed":false,"internalType":"uint256","name":"timestamp","type":"uint256"}],"name":"AdminTransferred","type":"event"},{"anonymous":false,"inputs":[{"indexed":true,"internalType":"bytes32","name":"recordIdHash","type":"bytes32"},{"indexed":true,"internalType":"bytes32","name":"grantedByIdHash","type":"bytes32"},{"indexed":true,"internalType":"bytes32","name":"guestIdHash","type":"bytes32"},{"indexed":false,"internalType":"bytes32","name":"guestEmailHash","type":"bytes32"},{"indexed":false,"internalType":"uint256","name":"expiresAt","type":"uint256"},{"indexed":false,"internalType":"uint256","name":"timestamp","type":"uint256"}],"name":"GuestAccessGranted","type":"event"},{"anonymous":false,"inputs":[{"indexed":true,"internalType":"bytes32","name":"recordIdHash","type":"bytes32"},{"indexed":true,"internalType":"bytes32","name":"revokedByIdHash","type":"bytes32"},{"indexed":true,"internalType":"bytes32","name":"guestIdHash","type":"bytes32"},{"indexed":false,"internalType":"uint256","name":"timestamp","type":"uint256"}],"name":"GuestAccessRevoked","type":"event"},{"anonymous":false,"inputs":[{"indexed":true,"internalType":"address","name":"newAddress","type":"address"},{"indexed":false,"internalType":"uint256","name":"timestamp","type":"uint256"}],"name":"HealthRecordCoreUpdated","type":"event"},{"anonymous":false,"inputs":[{"indexed":false,"internalType":"uint64","name":"version","type":"uint64"}],"name":"Initialized","type":"event"},{"anonymous":false,"inputs":[{"indexed":true,"internalType":"address","name":"wallet","type":"address"},{"indexed":true,"internalType":"bytes32","name":"userIdHash","type":"bytes32"},{"indexed":false,"internalType":"uint256","name":"timestamp","type":"uint256"}],"name":"MemberRegistered","type":"event"},{"anonymous":false,"inputs":[{"indexed":true,"internalType":"bytes32","name":"userIdHash","type":"bytes32"},{"indexed":false,"internalType":"enum MemberRoleManager.MemberStatus","name":"oldStatus","type":"uint8"},{"indexed":false,"internalType":"enum MemberRoleManager.MemberStatus","name":"newStatus","type":"uint8"},{"indexed":true,"internalType":"address","name":"changedBy","type":"address"},{"indexed":false,"internalType":"uint256","name":"timestamp","type":"uint256"}],"name":"MemberStatusChanged","type":"event"},{"anonymous":false,"inputs":[{"indexed":true,"internalType":"bytes32","name":"recordIdHash","type":"bytes32"},{"indexed":true,"internalType":"bytes32","name":"userIdHash","type":"bytes32"},{"indexed":false,"internalType":"uint256","name":"timestamp","type":"uint256"}],"name":"OwnershipVoluntarilyLeft","type":"event"},{"anonymous":false,"inputs":[{"indexed":true,"internalType":"bytes32","name":"recordIdHash","type":"bytes32"},{"indexed":true,"internalType":"bytes32","name":"targetIdHash","type":"bytes32"},{"indexed":false,"internalType":"string","name":"oldRole","type":"string"},{"indexed":false,"internalType":"string","name":"newRole","type":"string"},{"indexed":true,"internalType":"bytes32","name":"userIdHash","type":"bytes32"},{"indexed":false,"internalType":"uint256","name":"timestamp","type":"uint256"}],"name":"RoleChanged","type":"event"},{"anonymous":false,"inputs":[{"indexed":true,"internalType":"bytes32","name":"recordIdHash","type":"bytes32"},{"indexed":true,"internalType":"bytes32","name":"targetIdHash","type":"bytes32"},{"indexed":false,"internalType":"string","name":"role","type":"string"},{"indexed":true,"internalType":"bytes32","name":"userIdHash","type":"bytes32"},{"indexed":false,"internalType":"uint256","name":"timestamp","type":"uint256"}],"name":"RoleGranted","type":"event"},{"anonymous":false,"inputs":[{"indexed":true,"internalType":"bytes32","name":"recordIdHash","type":"bytes32"},{"indexed":true,"internalType":"bytes32","name":"targetIdHash","type":"bytes32"},{"indexed":false,"internalType":"string","name":"role","type":"string"},{"indexed":true,"internalType":"bytes32","name":"userIdHash","type":"bytes32"},{"indexed":false,"internalType":"uint256","name":"timestamp","type":"uint256"}],"name":"RoleRevoked","type":"event"},{"anonymous":false,"inputs":[{"indexed":true,"internalType":"bytes32","name":"trustorIdHash","type":"bytes32"},{"indexed":true,"internalType":"bytes32","name":"trusteeIdHash","type":"bytes32"},{"indexed":false,"internalType":"enum MemberRoleManager.TrusteeLevel","name":"level","type":"uint8"},{"indexed":false,"internalType":"uint256","name":"timestamp","type":"uint256"}],"name":"TrusteeAccepted","type":"event"},{"anonymous":false,"inputs":[{"indexed":true,"internalType":"bytes32","name":"trustorIdHash","type":"bytes32"},{"indexed":true,"internalType":"bytes32","name":"trusteeIdHash","type":"bytes32"},{"indexed":false,"internalType":"enum MemberRoleManager.TrusteeLevel","name":"oldLevel","type":"uint8"},{"indexed":false,"internalType":"enum MemberRoleManager.TrusteeLevel","name":"newLevel","type":"uint8"},{"indexed":false,"internalType":"uint256","name":"timestamp","type":"uint256"}],"name":"TrusteeLevelUpdated","type":"event"},{"anonymous":false,"inputs":[{"indexed":true,"internalType":"bytes32","name":"trustorIdHash","type":"bytes32"},{"indexed":true,"internalType":"bytes32","name":"trusteeIdHash","type":"bytes32"},{"indexed":false,"internalType":"enum MemberRoleManager.TrusteeLevel","name":"level","type":"uint8"},{"indexed":false,"internalType":"uint256","name":"timestamp","type":"uint256"}],"name":"TrusteeProposed","type":"event"},{"anonymous":false,"inputs":[{"indexed":true,"internalType":"bytes32","name":"trustorIdHash","type":"bytes32"},{"indexed":true,"internalType":"bytes32","name":"trusteeIdHash","type":"bytes32"},{"indexed":true,"internalType":"bytes32","name":"revokedBy","type":"bytes32"},{"indexed":false,"internalType":"uint256","name":"timestamp","type":"uint256"}],"name":"TrusteeRevoked","type":"event"},{"anonymous":false,"inputs":[{"indexed":true,"internalType":"address","name":"implementation","type":"address"}],"name":"Upgraded","type":"event"},{"anonymous":false,"inputs":[{"indexed":true,"internalType":"address","name":"wallet","type":"address"},{"indexed":true,"internalType":"bytes32","name":"userIdHash","type":"bytes32"},{"indexed":false,"internalType":"uint256","name":"timestamp","type":"uint256"}],"name":"WalletLinked","type":"event"},{"inputs":[],"name":"UPGRADE_INTERFACE_VERSION","outputs":[{"internalType":"string","name":"","type":"string"}],"stateMutability":"view","type":"function"},{"inputs":[{"internalType":"bytes32","name":"trustorIdHash","type":"bytes32"}],"name":"acceptTrustee","outputs":[],"stateMutability":"nonpayable","type":"function"},{"inputs":[{"internalType":"address","name":"wallet","type":"address"},{"internalType":"bytes32","name":"userIdHash","type":"bytes32"}],"name":"addMember","outputs":[],"stateMutability":"nonpayable","type":"function"},{"inputs":[{"internalType":"address[]","name":"walletAddresses","type":"address[]"},{"internalType":"bytes32","name":"userIdHash","type":"bytes32"}],"name":"addMemberBatch","outputs":[],"stateMutability":"nonpayable","type":"function"},{"inputs":[],"name":"admin","outputs":[{"internalType":"address","name":"","type":"address"}],"stateMutability":"view","type":"function"},{"inputs":[{"internalType":"bytes32","name":"","type":"bytes32"},{"internalType":"uint256","name":"","type":"uint256"}],"name":"adminsByRecord","outputs":[{"internalType":"bytes32","name":"","type":"bytes32"}],"stateMutability":"view","type":"function"},{"inputs":[{"internalType":"bytes32","name":"recordIdHash","type":"bytes32"},{"internalType":"address","name":"targetWallet","type":"address"},{"internalType":"string","name":"newRole","type":"string"}],"name":"changeRole","outputs":[],"stateMutability":"nonpayable","type":"function"},{"inputs":[{"internalType":"bytes32[]","name":"recordIdHashes","type":"bytes32[]"},{"internalType":"address","name":"targetWallet","type":"address"},{"internalType":"string[]","name":"newRoles","type":"string[]"}],"name":"changeRoleBatch","outputs":[],"stateMutability":"nonpayable","type":"function"},{"inputs":[{"internalType":"address","name":"wallet","type":"address"}],"name":"deactivateWallet","outputs":[],"stateMutability":"nonpayable","type":"function"},{"inputs":[],"name":"getAllUsers","outputs":[{"internalType":"bytes32[]","name":"","type":"bytes32[]"}],"stateMutability":"view","type":"function"},{"inputs":[{"internalType":"bytes32","name":"recordIdHash","type":"bytes32"},{"internalType":"bytes32","name":"guestIdHash","type":"bytes32"}],"name":"getGuestAccess","outputs":[{"internalType":"uint256","name":"grantedAt","type":"uint256"},{"internalType":"uint256","name":"expiresAt","type":"uint256"},{"internalType":"bytes32","name":"grantedByIdHash","type":"bytes32"},{"internalType":"bytes32","name":"guestEmailHash","type":"bytes32"}],"stateMutability":"view","type":"function"},{"inputs":[],"name":"getHealthRecordCore","outputs":[{"internalType":"address","name":"","type":"address"}],"stateMutability":"view","type":"function"},{"inputs":[{"internalType":"bytes32","name":"recordIdHash","type":"bytes32"}],"name":"getRecordAdmins","outputs":[{"internalType":"bytes32[]","name":"","type":"bytes32[]"}],"stateMutability":"view","type":"function"},{"inputs":[{"internalType":"bytes32","name":"recordIdHash","type":"bytes32"}],"name":"getRecordOwners","outputs":[{"internalType":"bytes32[]","name":"","type":"bytes32[]"}],"stateMutability":"view","type":"function"},{"inputs":[{"internalType":"bytes32","name":"recordIdHash","type":"bytes32"}],"name":"getRecordRoleStats","outputs":[{"internalType":"uint256","name":"ownerCount","type":"uint256"},{"internalType":"uint256","name":"adminCount","type":"uint256"},{"internalType":"uint256","name":"viewerCount","type":"uint256"}],"stateMutability":"view","type":"function"},{"inputs":[{"internalType":"bytes32","name":"recordIdHash","type":"bytes32"}],"name":"getRecordViewers","outputs":[{"internalType":"bytes32[]","name":"","type":"bytes32[]"}],"stateMutability":"view","type":"function"},{"inputs":[{"internalType":"bytes32","name":"userIdHash","type":"bytes32"}],"name":"getRecordsByUser","outputs":[{"internalType":"bytes32[]","name":"","type":"bytes32[]"}],"stateMutability":"view","type":"function"},{"inputs":[{"internalType":"bytes32","name":"recordIdHash","type":"bytes32"},{"internalType":"address","name":"wallet","type":"address"}],"name":"getRoleDetails","outputs":[{"internalType":"string","name":"role","type":"string"},{"internalType":"bool","name":"isActive","type":"bool"}],"stateMutability":"view","type":"function"},{"inputs":[{"internalType":"bytes32","name":"recordIdHash","type":"bytes32"},{"internalType":"bytes32","name":"userIdHash","type":"bytes32"}],"name":"getRoleDetailsByUser","outputs":[{"internalType":"string","name":"role","type":"string"},{"internalType":"bool","name":"isActive","type":"bool"}],"stateMutability":"view","type":"function"},{"inputs":[{"internalType":"bytes32","name":"recordIdHash","type":"bytes32"},{"internalType":"bytes32","name":"userIdHash","type":"bytes32"}],"name":"getRoleGranter","outputs":[{"internalType":"bytes32","name":"","type":"bytes32"}],"stateMutability":"view","type":"function"},{"inputs":[],"name":"getTotalRoles","outputs":[{"internalType":"uint256","name":"","type":"uint256"}],"stateMutability":"view","type":"function"},{"inputs":[],"name":"getTotalUsers","outputs":[{"internalType":"uint256","name":"","type":"uint256"}],"stateMutability":"view","type":"function"},{"inputs":[{"internalType":"bytes32","name":"trustorIdHash","type":"bytes32"},{"internalType":"bytes32","name":"trusteeIdHash","type":"bytes32"}],"name":"getTrusteeRelationship","outputs":[{"internalType":"enum MemberRoleManager.TrusteeStatus","name":"status","type":"uint8"},{"internalType":"enum MemberRoleManager.TrusteeLevel","name":"level","type":"uint8"}],"stateMutability":"view","type":"function"},{"inputs":[{"internalType":"address","name":"wallet","type":"address"}],"name":"getUserForWallet","outputs":[{"internalType":"bytes32","name":"","type":"bytes32"}],"stateMutability":"view","type":"function"},{"inputs":[{"internalType":"bytes32","name":"userIdHash","type":"bytes32"}],"name":"getUserStatus","outputs":[{"internalType":"enum MemberRoleManager.MemberStatus","name":"status","type":"uint8"}],"stateMutability":"view","type":"function"},{"inputs":[{"internalType":"bytes32","name":"userIdHash","type":"bytes32"}],"name":"getWalletsForUser","outputs":[{"internalType":"address[]","name":"","type":"address[]"}],"stateMutability":"view","type":"function"},{"inputs":[{"internalType":"bytes32[]","name":"recordIdHashes","type":"bytes32[]"},{"internalType":"address","name":"guestWallet","type":"address"},{"internalType":"bytes32","name":"guestIdHash","type":"bytes32"},{"internalType":"bytes32","name":"guestEmailHash","type":"bytes32"},{"internalType":"uint256","name":"durationSeconds","type":"uint256"}],"name":"grantGuestAccess","outputs":[],"stateMutability":"nonpayable","type":"function"},{"inputs":[{"internalType":"bytes32","name":"recordIdHash","type":"bytes32"},{"internalType":"address","name":"targetWallet","type":"address"},{"internalType":"string","name":"role","type":"string"}],"name":"grantRole","outputs":[],"stateMutability":"nonpayable","type":"function"},{"inputs":[{"internalType":"bytes32[]","name":"recordIdHashes","type":"bytes32[]"},{"internalType":"bytes32","name":"trustorIdHash","type":"bytes32"}],"name":"grantRoleAsTrusteeBatch","outputs":[],"stateMutability":"nonpayable","type":"function"},{"inputs":[{"internalType":"bytes32[]","name":"recordIdHashes","type":"bytes32[]"},{"internalType":"address","name":"targetWallet","type":"address"},{"internalType":"string[]","name":"roles","type":"string[]"}],"name":"grantRoleBatch","outputs":[],"stateMutability":"nonpayable","type":"function"},{"inputs":[{"internalType":"bytes32","name":"","type":"bytes32"},{"internalType":"bytes32","name":"","type":"bytes32"}],"name":"guestAccessByRecord","outputs":[{"internalType":"uint256","name":"grantedAt","type":"uint256"},{"internalType":"uint256","name":"expiresAt","type":"uint256"},{"internalType":"bytes32","name":"grantedByIdHash","type":"bytes32"},{"internalType":"bytes32","name":"guestEmailHash","type":"bytes32"}],"stateMutability":"view","type":"function"},{"inputs":[{"internalType":"bytes32","name":"recordIdHash","type":"bytes32"},{"internalType":"bytes32","name":"guestIdHash","type":"bytes32"}],"name":"hasActiveGuestAccess","outputs":[{"internalType":"bool","name":"","type":"bool"}],"stateMutability":"view","type":"function"},{"inputs":[{"internalType":"bytes32","name":"recordIdHash","type":"bytes32"},{"internalType":"address","name":"wallet","type":"address"}],"name":"hasActiveRole","outputs":[{"internalType":"bool","name":"","type":"bool"}],"stateMutability":"view","type":"function"},{"inputs":[{"internalType":"bytes32","name":"recordIdHash","type":"bytes32"},{"internalType":"address","name":"wallet","type":"address"},{"internalType":"string","name":"role","type":"string"}],"name":"hasRole","outputs":[{"internalType":"bool","name":"","type":"bool"}],"stateMutability":"view","type":"function"},{"inputs":[],"name":"healthRecordCore","outputs":[{"internalType":"contract HealthRecordCoreInterface","name":"","type":"address"}],"stateMutability":"view","type":"function"},{"inputs":[],"name":"initialize","outputs":[],"stateMutability":"nonpayable","type":"function"},{"inputs":[{"internalType":"bytes32","name":"recordIdHash","type":"bytes32"},{"internalType":"address","name":"targetWallet","type":"address"},{"internalType":"string","name":"role","type":"string"}],"name":"initializeRecordRole","outputs":[],"stateMutability":"nonpayable","type":"function"},{"inputs":[{"internalType":"address","name":"wallet","type":"address"}],"name":"isActiveMember","outputs":[{"internalType":"bool","name":"","type":"bool"}],"stateMutability":"view","type":"function"},{"inputs":[{"internalType":"bytes32","name":"recordIdHash","type":"bytes32"},{"internalType":"bytes32","name":"userIdHash","type":"bytes32"}],"name":"isActiveSubject","outputs":[{"internalType":"bool","name":"","type":"bool"}],"stateMutability":"view","type":"function"},{"inputs":[{"internalType":"bytes32","name":"trustorIdHash","type":"bytes32"},{"internalType":"bytes32","name":"trusteeIdHash","type":"bytes32"}],"name":"isControllerOf","outputs":[{"internalType":"bool","name":"","type":"bool"}],"stateMutability":"view","type":"function"},{"inputs":[{"internalType":"bytes32","name":"recordIdHash","type":"bytes32"},{"internalType":"address","name":"wallet","type":"address"}],"name":"isOwnerOrAdmin","outputs":[{"internalType":"bool","name":"","type":"bool"}],"stateMutability":"view","type":"function"},{"inputs":[{"internalType":"address","name":"wallet","type":"address"}],"name":"isVerifiedMember","outputs":[{"internalType":"bool","name":"","type":"bool"}],"stateMutability":"view","type":"function"},{"inputs":[{"internalType":"address","name":"wallet","type":"address"}],"name":"isVerifiedProvider","outputs":[{"internalType":"bool","name":"","type":"bool"}],"stateMutability":"view","type":"function"},{"inputs":[{"internalType":"bytes32","name":"","type":"bytes32"},{"internalType":"uint256","name":"","type":"uint256"}],"name":"ownersByRecord","outputs":[{"internalType":"bytes32","name":"","type":"bytes32"}],"stateMutability":"view","type":"function"},{"inputs":[{"internalType":"bytes32","name":"trusteeIdHash","type":"bytes32"},{"internalType":"enum MemberRoleManager.TrusteeLevel","name":"level","type":"uint8"}],"name":"proposeTrustee","outputs":[],"stateMutability":"nonpayable","type":"function"},{"inputs":[],"name":"proxiableUUID","outputs":[{"internalType":"bytes32","name":"","type":"bytes32"}],"stateMutability":"view","type":"function"},{"inputs":[{"internalType":"address","name":"wallet","type":"address"}],"name":"reactivateWallet","outputs":[],"stateMutability":"nonpayable","type":"function"},{"inputs":[{"internalType":"bytes32","name":"","type":"bytes32"}],"name":"recordRoles","outputs":[{"internalType":"string","name":"role","type":"string"},{"internalType":"bool","name":"isActive","type":"bool"}],"stateMutability":"view","type":"function"},{"inputs":[{"internalType":"bytes32","name":"","type":"bytes32"},{"internalType":"uint256","name":"","type":"uint256"}],"name":"recordsByUser","outputs":[{"internalType":"bytes32","name":"","type":"bytes32"}],"stateMutability":"view","type":"function"},{"inputs":[{"internalType":"bytes32[]","name":"recordIdHashes","type":"bytes32[]"},{"internalType":"bytes32","name":"guestIdHash","type":"bytes32"}],"name":"revokeGuestAccess","outputs":[],"stateMutability":"nonpayable","type":"function"},{"inputs":[{"internalType":"bytes32","name":"recordIdHash","type":"bytes32"},{"internalType":"address","name":"targetWallet","type":"address"}],"name":"revokeRole","outputs":[],"stateMutability":"nonpayable","type":"function"},{"inputs":[{"internalType":"bytes32[]","name":"recordIdHashes","type":"bytes32[]"},{"internalType":"address","name":"targetWallet","type":"address"}],"name":"revokeRoleBatch","outputs":[],"stateMutability":"nonpayable","type":"function"},{"inputs":[{"internalType":"bytes32","name":"trustorIdHash","type":"bytes32"},{"internalType":"bytes32","name":"trusteeIdHash","type":"bytes32"}],"name":"revokeTrustee","outputs":[],"stateMutability":"nonpayable","type":"function"},{"inputs":[{"internalType":"bytes32","name":"","type":"bytes32"}],"name":"roleGrantedBy","outputs":[{"internalType":"bytes32","name":"","type":"bytes32"}],"stateMutability":"view","type":"function"},{"inputs":[{"internalType":"address","name":"_healthRecordCore","type":"address"}],"name":"setHealthRecordCore","outputs":[],"stateMutability":"nonpayable","type":"function"},{"inputs":[{"internalType":"bytes32","name":"userIdHash","type":"bytes32"},{"internalType":"enum MemberRoleManager.MemberStatus","name":"newStatus","type":"uint8"}],"name":"setUserStatus","outputs":[],"stateMutability":"nonpayable","type":"function"},{"inputs":[],"name":"totalRoles","outputs":[{"internalType":"uint256","name":"","type":"uint256"}],"stateMutability":"view","type":"function"},{"inputs":[],"name":"totalUsers","outputs":[{"internalType":"uint256","name":"","type":"uint256"}],"stateMutability":"view","type":"function"},{"inputs":[{"internalType":"address","name":"newAdmin","type":"address"}],"name":"transferAdmin","outputs":[],"stateMutability":"nonpayable","type":"function"},{"inputs":[{"internalType":"bytes32","name":"","type":"bytes32"},{"internalType":"bytes32","name":"","type":"bytes32"}],"name":"trusteeRelationships","outputs":[{"internalType":"enum MemberRoleManager.TrusteeStatus","name":"status","type":"uint8"},{"internalType":"enum MemberRoleManager.TrusteeLevel","name":"level","type":"uint8"}],"stateMutability":"view","type":"function"},{"inputs":[{"internalType":"bytes32","name":"trusteeIdHash","type":"bytes32"},{"internalType":"enum MemberRoleManager.TrusteeLevel","name":"newLevel","type":"uint8"}],"name":"updateTrusteeLevel","outputs":[],"stateMutability":"nonpayable","type":"function"},{"inputs":[{"internalType":"address","name":"newImplementation","type":"address"},{"internalType":"bytes","name":"data","type":"bytes"}],"name":"upgradeToAndCall","outputs":[],"stateMutability":"payable","type":"function"},{"inputs":[{"internalType":"uint256","name":"","type":"uint256"}],"name":"userList","outputs":[{"internalType":"bytes32","name":"","type":"bytes32"}],"stateMutability":"view","type":"function"},{"inputs":[{"internalType":"bytes32","name":"","type":"bytes32"}],"name":"userStatus","outputs":[{"internalType":"enum MemberRoleManager.MemberStatus","name":"","type":"uint8"}],"stateMutability":"view","type":"function"},{"inputs":[{"internalType":"bytes32","name":"","type":"bytes32"},{"internalType":"uint256","name":"","type":"uint256"}],"name":"userWallets","outputs":[{"internalType":"address","name":"","type":"address"}],"stateMutability":"view","type":"function"},{"inputs":[{"internalType":"bytes32","name":"","type":"bytes32"},{"internalType":"uint256","name":"","type":"uint256"}],"name":"viewersByRecord","outputs":[{"internalType":"bytes32","name":"","type":"bytes32"}],"stateMutability":"view","type":"function"},{"inputs":[{"internalType":"bytes32","name":"recordIdHash","type":"bytes32"}],"name":"voluntarilyLeaveOwnership","outputs":[],"stateMutability":"nonpayable","type":"function"},{"inputs":[{"internalType":"address","name":"","type":"address"}],"name":"wallets","outputs":[{"internalType":"bytes32","name":"userIdHash","type":"bytes32"},{"internalType":"bool","name":"isWalletActive","type":"bool"}],"stateMutability":"view","type":"function"}],"evm":{"bytecode":{"linkReferences":{},"object":"60a08060405234620000d157306080527ff0c57e16840df040f15088dc2f81fe391c3923bec73e23a9662efc9c229c6a009081549060ff8260401c16620000c257506001600160401b036002600160401b0319828216016200007c575b604051614e0f9081620000d68239608051818181612311015261251d0152f35b6001600160401b031990911681179091556040519081527fc7f505b2f371ae2175ee4913f4499e1f2633a7b5936321eed1cdaeb6115181d290602090a15f80806200005c565b63f92ee8a960e01b8152600490fd5b5f80fdfe6080604090808252600480361015610015575f80fd5b5f3560e01c918262b0c809146139845750816302ba810914613927578163033e822f146138be5781630519e2a0146138985781630591bdf4146135335781630b3ffd1d146134765781631c0c18d8146132465781631dc63201146130c7578163259ed80e146130a257816329c9087a14612b775781632ae8511d146129fa5781633256e5ab1461297e57816333105592146129415781633befa4101461292657816341a51baa146128bd578163422a5bb81461288957816343e197041461283757816345ecd02f1461281757816349df7208146126ca5781634b6feb7c14611bd05781634f1ef286146124cd57816351eed4721461237557816352d1902d146122fe578163557ee54f146122705781635581607914612240578163562c788e146105cc57816364f639d4146122255781636544b05b146121bc57816369ac202214611fbe5781636b4bed9714610373578163726d544714611c6c57816375829def14611bee578163790e118c14611bd05781637b657d0714611b935781638129fc1c14611a765781638776cd3514611a4657816389b08f1114611a015781638db7edb4146119bc57816393ccfba81461198c5781639443cd801461194657816396207e02146118085781639915b91f146117915781639be572f61461129e5781639f4216e814611745578163aaddc34514611719578163ab48384a146115eb578163ad3cb1cc146115a7578163b8cab84b146114cc578163bafc889214611373578163bb0f86d5146112bc578163bff1f9e11461129e578163c36dc9ef14611235578163c7155823146111b9578163c88c35fe14611193578163c979c9bf1461102f578163cb261a0314611001578163cda06c6e14610fda578163d12a776814610f2b578163d547741f14610b23578163dde492ea146106e4578163e211e89c14610674578163e2842d79146105f4578163e94ed257146105cc578163eec047aa1461056c578163f12b9ad3146103a4578163f29e007b1461037357508063f851a4401461034c5763fa7a6bcc1461030b575f80fd5b346103485761031936613cde565b91905f52600a602052805f2080548310156103485760209261033a91613e2c565b91905490519160031b1c8152f35b5f80fd5b5034610348575f366003190112610348575f5490516001600160a01b039091168152602090f35b823461034857602036600319011261034857602091355f52600282526103a260ff825f20541691518092613e55565bf35b823461034857806003193601126103485781356001600160401b038111610348576103d29036908401613a81565b916103db6139ce565b6103ec6103e7336145c2565b613ea3565b6001600160a01b03169081156105385750335f52600192839260209060018252805f2054935f52805f205492610423841515613f2a565b5f955b61042c57005b805186101561053657868661044c86610446849a866140ef565b516146bf565b156105315761045f8761044683866140ef565b1561053157868661047a8161047485886140ef565b516148de565b805f52600680895261048d885f20613d2c565b9182518a84012061049c61430b565b8b815191012014610527576104bc83856104b6898c6140ef565b51614912565b5f52885284875f200160ff198154169055600d88525f878120557fd05ed2d3feff840c2ececa71791388fd3d19dbbbbcfa97031f534a7dc09fbf1f61051761050486896140ef565b519289519182918b83528b830190613dce565b428c8301520390a45b0195610426565b5050505050610520565b610520565b005b606490602084519162461bcd60e51b8352820152600e60248201526d125b9d985b1a59081dd85b1b195d60921b6044820152fd5b82346103485761057b36613cde565b905f52600f602052815f20905f52602052805f20906105c8825491600184015493600360028201549101549151948594859094939260609260808301968352602083015260408201520152565b0390f35b8234610348575f36600319011261034857600c5490516001600160a01b039091168152602090f35b8234610348575f366003190112610348578051908183548082526020809201945f527f8a35acfbc15ff81a39ae7d344fd709f28e8600b4aa8c65c6b64bfe7fe36bd19b915f905b82821061065d576105c88686610653828b0383613a49565b5191829182613c11565b83548752958601956001938401939091019061063b565b82346103485760209061068636613cde565b905f52600f8352815f20905f528252805f209080516106a481613a13565b8254908181526060600360018601549586888501526002810154868501520154910152151591826106d9575b50519015158152f35b4211159150836106d0565b905034610348576106f436613c9c565b9192906107036103e7336145c2565b61070e8415156141d9565b6001600160a01b031692610723841515614225565b61073461072f846149eb565b614271565b335f5260209160018352855f2054945f52855f205492610755841515613f2a565b84518186012061076587856148de565b5f526006825260ff6001895f2001541615610ae257835f5260078252875f205415159061079a61079361430b565b8987614a43565b916107ad6107a661432c565b8a88614a43565b916107b88a88614aa1565b906107c161430b565b80519087012081036108ff575050156108a5575015610863575b6107e584846148de565b5f526006815260ff6001885f2001541661080557505061053694506146c9565b865162461bcd60e51b815291820152603360248201527f54617267657420616c726561647920686173206120726f6c652e2055736520636044820152721a185b99d9549bdb194a0a481a5b9cdd195859606a1b606482015260849150fd5b865162461bcd60e51b815291820181905260248201527f4f6e6c79206f776e6572732063616e206772616e74206f776e657220726f6c65604482015260649150fd5b90506107db57865162461bcd60e51b815291820152602960248201527f4f6e6c792061646d696e6973747261746f72732063616e206772616e742066696044820152683939ba1037bbb732b960b91b606482015260849150fd5b90915061090a61432c565b8051908601208103610994575050811561098c575b506107db57865162461bcd60e51b815291820152603b60248201527f4f6e6c79206f776e65727320616e642061646d696e6973747261746f7273206360448201527f616e206772616e742061646d696e6973747261746f7220726f6c650000000000606482015260849150fd5b90505f61091f565b61099f939193614103565b858151910120146109b3575b5050506107db565b80159081610adb575b8015610ad4575b15610a6b5782610a63575b5081610a5a575b506109e3575b5f80806109ab565b6109ed8684614bd7565b516109db57865162461bcd60e51b815291820152603c60248201527f5375626a656374206d757374206861766520616e2061637469766520726f6c6560448201527f20746f206772616e7420766965776572207065726d697373696f6e7300000000606482015260849150fd5b9050155f6109d5565b91505f6109ce565b895162461bcd60e51b8152808601859052603e60248201527f4f6e6c79206f776e6572732c2061646d696e6973747261746f72732c206f722060448201527f7375626a656374732063616e206772616e742076696577657220726f6c6500006064820152608490fd5b50826109c3565b50816109bc565b60648383808b519262461bcd60e51b845283015260248201527f596f752068617665206e6f20726f6c6520666f722074686973207265636f72646044820152fd5b82346103485780600319360112610348578135610b3e6139ce565b610b498215156141d9565b6001600160a01b031692610b5e841515614225565b335f5260209260018452805f2054945f52805f205493610b7f851515613f2a565b610b8985856148de565b805f5260068252610ba260ff6001855f200154166142b3565b805f5260068252610bb4835f20613d2c565b93845183860120610bc361430b565b8481519101208114610eb457878903610cec575b610bdf61432c565b84815191012014610c57575b5090839291610c1c7fd05ed2d3feff840c2ececa71791388fd3d19dbbbbcfa97031f534a7dc09fbf1f958888614912565b5f52600681526001825f200160ff198154169055600d81525f82812055610c4c8251938385948552840190613dce565b9042908301520390a4005b855f52600883526001845f20541160078452845f205415158115610ce4575b50610beb57835162461bcd60e51b8152908101839052603960248201527f43616e6e6f74207265766f6b65206c6173742061646d696e6973747261746f7260448201527f20776974686f757420616e206f776e65722070726573656e74000000000000006064820152608490fd5b905089610c76565b610cfe610cf761430b565b8a89614a43565b610d10610d0961432c565b8b8a614a43565b845f52600d86528a875f20541490610d26614103565b8051908801208403610dc6578215610dbe575b508115610db6575b5015610d4d575b610bd7565b845162461bcd60e51b8152808301859052603e60248201527f4f6e6c79206f776e6572732c2061646d696e6973747261746f72732c206f722060448201527f746865206772616e7465722063616e207265766f6b65207669657765727300006064820152608490fd5b90508a610d41565b91508b610d39565b821592915082610eac575b5015610e515715610bd757610de461432c565b8481519101208103610d4857865f5260078452845f205415610d4857845162461bcd60e51b8152808301859052602560248201527f4f6e6c79206f776e6572732063616e207265766f6b652061646d696e6973747260448201526461746f727360d81b6064820152608490fd5b855162461bcd60e51b8152808401869052602f60248201527f4f6e6c79206f776e65727320616e642061646d696e6973747261746f7273206360448201526e616e207265766f6b6520726f6c657360881b6064820152608490fd5b90508b610dd1565b845162461bcd60e51b8152808301859052604560248201527f4f776e6572732063616e6e6f74206265207265766f6b65642e204f776e65722060448201527f6d7573742075736520766f6c756e746172696c794c656176654f776e6572736860648201526434b814149760d91b608482015260a490fd5b9050346103485760209081600319360112610348578290355f5260038252805f208151928381835491828152019081935f52825f20905f5b818110610fbd5750505084610f79910385613a49565b825181815293518185018190528493840192915f5b828110610f9d57505050500390f35b83516001600160a01b031685528695509381019392810192600101610f8e565b82546001600160a01b031684529284019260019283019201610f63565b823461034857602036600319011261034857602091355f52600d8252805f20549051908152f35b8234610348576020366003190112610348576020906110266110216139b8565b614b81565b90519015158152f35b82346103485761103e36613cde565b9161104b6103e7336145c2565b335f5260209060018252805f205494838614801561118a575b1561114a57835f52600e8352815f20855f52835260ff825f20541681811015611137576002811490811561112c575b50156110e15750907f6df3a6475fab2eed139f7e469995b04e85bfc5b4b8642587109cb72541f74fae91835f52600e8252805f20855f528252805f20600360ff1982541617905551428152a4005b82608492519162461bcd60e51b8352820152602160248201527f4e6f20616374697665206f722070656e64696e672072656c6174696f6e7368696044820152600760fc1b6064820152fd5b600191501487611093565b602182634e487b7160e01b5f525260245ffd5b8280606493519262461bcd60e51b845283015260248201527f4e6f74206120706172747920746f20746869732072656c6174696f6e736869706044820152fd5b50848614611064565b82346103485780600319360112610348576110266020926111b26139ce565b9035614585565b8234610348576020366003190112610348577fce59ad7d6dabe8a7533ed7d9bd07d276a046ac7ac9a8e8e8971da4b81104a28b60206111f66139b8565b5f546001600160a01b03919061120f9083163314614125565b169261121c8415156144fb565b600c80546001600160a01b0319168517905551428152a2005b90503461034857602090602060031936011261034857355f526007602052815f209180519182602085549182815201945f5260205f20915f905b828210611287576105c88686610653828b0383613a49565b83548752958601956001938401939091019061126f565b8234610348575f366003190112610348576020906005549051908152f35b905034610348576020366003190112610348576112d76139b8565b5f546001600160a01b0391906112f09083163314614125565b16805f5260019182602052611309845f2054151561415e565b815f528260205260ff83855f2001541661133857509181925f52816020525f20019060ff198254161790555f80f35b606490602085519162461bcd60e51b8352820152601560248201527457616c6c657420616c72656164792061637469766560581b6044820152fd5b82346103485761138236613c6b565b9190926113916103e7336145c2565b335f5260019360209160018352835f205492855f52600e8152845f20845f528152845f20908551916113c2836139e4565b54916113d160ff8416826141a2565b6113e460ff8383019460081c16846141ae565b51838110156114b95760026113f99114614539565b835161141061140782613a6a565b97519788613a49565b80875261141f601f1991613a6a565b015f5b8181106114aa57505050865f905b611442575b505050610536945061464a565b83518110156114a55761145581856140ef565b51825190600382101561149257916114738a959493928a8794614b2b565b61147d828a6140ef565b5261148881896140ef565b5001909192611430565b602185634e487b7160e01b5f525260245ffd5b611435565b60608882018401528201611422565b602184634e487b7160e01b5f525260245ffd5b82346103485760209081600319360112610348578235916114ef6103e7336145c2565b335f5260018152815f205493835f52600e8252825f20855f528252825f209081549060ff8216818110156111375760010361156e57509161156660ff9260027fc5b2e1bd4433eb4e9e181cc803520513d39d918c96bddeebca1224e1c750963d969585191617809155845193849160081c16613e76565b4290820152a3005b845162461bcd60e51b81529081018490526013602482015272139bc81c195b991a5b99c81c1c9bdc1bdcd85b606a1b6044820152606490fd5b8234610348575f3660031901126103485780516105c8916115c7826139e4565b60058252640352e302e360dc1b602083015251918291602083526020830190613dce565b905034610348576115fb36613c4c565b91909261160a6103e7336145c2565b335f526001602052805f205492835f52600e602052815f20855f52602052815f20805460ff8116858110156117065790611648600260ff9314614539565b60081c169360038310156116f35760038510156116f3578285146116b05750916115668261169a7fb36ec3c738ef8ecd9180addc815304762374b76e91c2a321831d9906ea119ade96946060966141ba565b6116a683518095613e76565b6020840190613e76565b606490602085519162461bcd60e51b8352820152601860248201527f416c72656164792074686973207472757374206c6576656c00000000000000006044820152fd5b602190634e487b7160e01b5f525260245ffd5b602186634e487b7160e01b5f525260245ffd5b82346103485760209061173461172e36613cde565b906148de565b5f52600d8252805f20549051908152f35b82346103485760203660031901126103485781358254811015610348576020925f527f8a35acfbc15ff81a39ae7d344fd709f28e8600b4aa8c65c6b64bfe7fe36bd19b01549051908152f35b8234610348576117a036613cde565b905f52600e602052815f20905f52602052805f20908051916117c1836139e4565b54916117d060ff8416826141a2565b6117e460ff602083019460081c16846141ae565b5191838310156114b957519260038410156116f357506105c8905192839283613e83565b823461034857806003193601126103485781359060243560068110156103485761183c60018060a01b035f54163314614125565b825f5260206002815260ff835f2054166006811015611706571561190e57835f526002815260ff835f2054169460068610156116f3578286146118d75750906118aa91845f5260028152835f2060ff1981541660ff84161790556118a284518097613e55565b850190613e55565b42908301527ff6277c6ee46649823db9a5c531db3112b4340c67179cae1932ba3420dcc37cc760603393a3005b60649184519162461bcd60e51b83528201526013602482015272416c726561647920746869732073746174757360681b6044820152fd5b8460649184519162461bcd60e51b83528201526013602482015272155cd95c881b9bdd081c9959da5cdd195c9959606a1b6044820152fd5b82346103485761195536613cde565b91905f526003602052805f2080548310156103485760209261197691613e2c565b60018060a01b0391549060031b1c169051908152f35b82346103485761199b36613cde565b91905f526009602052805f2080548310156103485760209261033a91613e2c565b823461034857602036600319011261034857606091355f526007602052805f2054906008602052805f2054906009602052805f20549181519384526020840152820152f35b8234610348576020366003190112610348576001600160a01b03611a236139b8565b165f526001602052805f2060ff6001825492015416825191825215156020820152f35b823461034857611a5536613cde565b91905f526008602052805f2080548310156103485760209261033a91613e2c565b905034610348575f366003190112610348577ff0c57e16840df040f15088dc2f81fe391c3923bec73e23a9662efc9c229c6a0090815460ff81851c1615916001600160401b03821680159081611b8b575b6001149081611b81575b159081611b78575b50611b6a575067ffffffffffffffff198116600117835581611b4b575b505f80546001600160a01b03191633179055611b0e57005b805468ff00000000000000001916905551600181527fc7f505b2f371ae2175ee4913f4499e1f2633a7b5936321eed1cdaeb6115181d290602090a1005b68ffffffffffffffffff1916680100000000000000011782555f611af6565b845163f92ee8a960e01b8152fd5b9050155f611ad9565b303b159150611ad1565b849150611ac7565b8234610348576105c890611ba636613cde565b905f52600e602052815f20905f52602052805f20549051918160ff80859460081c16911683613e83565b8234610348575f36600319011261034857602090600b549051908152f35b823461034857602036600319011261034857602090611c0b6139b8565b5f5491906001600160a01b03808416917f38df5fa0f7fef0d515ca1f5388cb5790ac5885d5fca8d05d9f943e563c33a4b39190611c49338514614125565b16948593611c588515156144fb565b51428152a36001600160a01b031916175f55005b90503461034857611c7c36613c9c565b93909260018060a01b03611c94815f54163314614125565b611c9f8415156141d9565b8416611cac811515614427565b611cb861072f876149eb565b5f526001602091818352611cda845f205496611cd588151561415e565b6145c2565b15611f7b57845f5260078352835f20541580611f6c575b15611f2957611d0086866148de565b91825f5260068452845f2092611d1584613d2c565b9260ff838551159601541692875191611d2d836139e4565b8b835287830190828252845f5260068952895f2093518051916001600160401b038311611f165750611d5f8554613cf4565b601f8111611ed0575b508990601f8311600114611e6957611daf95949392915f9183611e5e575b50505f19600383901b1c191690831b1783555b51151591019060ff801983541691151516179055565b5f52600d84525f85812055155f14611e3157509185917ff9d17eb1340ab78960b594ff8bed1349985b800ee21199c6d5ea4a67454593ad93611df35f988888614c2e565b611e0b575b610c4c8251938385948552840190613dce565b858752600a8152611e1e85838920614091565b611e29600b546140cd565b600b55611df8565b9594939250508451818601209084519085012003611e4b57005b611e59610536948383614912565b614c2e565b015190505f80611d86565b90601f19831691865f528b5f20925f5b8d828210611ebc57505091869594929183611daf9998959310611ea4575b505050811b018355611d99565b01515f1960f88460031b161c191690555f8080611e97565b838501518655948801949384019301611e79565b855f528a5f20601f840160051c8101918c8510611f0c575b601f0160051c019085905b828110611f01575050611d68565b5f8155018590611ef3565b9091508190611ee8565b604190634e487b7160e01b5f525260245ffd5b835162461bcd60e51b8152908101839052601a60248201527f5265636f726420616c726561647920696e697469616c697a65640000000000006044820152606490fd5b5060088352835f205415611cf1565b835162461bcd60e51b8152908101839052601860248201527f4d75737420626520616e20616374697665206d656d62657200000000000000006044820152606490fd5b82346103485780600319360112610348576001600160401b03908235828111610348573660238201121561034857808401359283116103485760246005943660248660051b85010111610348575f546001600160a01b039660243595916120289089163314614125565b86156121835761203986151561446c565b855f526002936020936002855260ff845f2054169060068210156116f3575015955f5b89811061206557005b8281851b83010135908b82169182810361034857826120eb8c9261208c6001961515614427565b825f526120dc86808d526120a38c5f2054156144af565b8b51906120af826139e4565b8682528d8181840191818352885f52528d5f209251835551151591019060ff801983541691151516179055565b835f5260038b52895f2061400f565b82158061217c575b1561214f57815f52898952875f208a60ff198254161790556121148261404a565b61211e87546140cd565b87557f39d132591ee0696de49ab564e4a90e430c006561917db731a2a614dd2d245591898951428152a35b0161205c565b7f1cc138f50384be7770a8e4a34eecaa0d0c718bfaa1641af49db32532e4a5b910898951428152a3612149565b508a6120f3565b815162461bcd60e51b81526020818501526013602482015272139bc81dd85b1b195d1cc81c1c9bdd9a591959606a1b6044820152606490fd5b90503461034857602090602060031936011261034857355f52600a602052815f209180519182602085549182815201945f5260205f20915f905b82821061220e576105c88686610653828b0383613a49565b8354875295860195600193840193909101906121f6565b82346103485760209061102661223a36613cde565b90614aa1565b82346103485761224f36613cde565b91905f526007602052805f2080548310156103485760209261033a91613e2c565b82346103485761227f36613cde565b905f52600e602052815f20905f52602052805f20908051916122a0836139e4565b54916122af60ff8416826141a2565b6122c360ff602083019460081c16846141ae565b51838110156114b95760021491826122e2575b60208383519015158152f35b909150519160038310156116f3575060026020921490836122d6565b8234610348575f366003190112610348577f00000000000000000000000000000000000000000000000000000000000000006001600160a01b0316300361236857602090517f360894a13ba1a3210667c828492db98dca3e2076cc3735a920a3ca505d382bbc8152f35b5163703e46dd60e11b8152fd5b82346103485761238436613b44565b926123916103e7336145c2565b61239e8351855114613ee6565b335f5260019384936020906001602052835f20549460018060a01b03165f52835f2054936123cd851515613f2a565b5f965b6123d657005b81518710156105365787876123f56123ef839a886140ef565b516149eb565b156124c8576124088861044683876140ef565b156124c85787878585848a8a6124228661044685886140ef565b156124bc576124628361245b816124556124699860068c9761244b8f9b6104748f918c926140ef565b5f52525f20613d2c565b986140ef565b51936140ef565b51916146c9565b7f3af67cf2057ba8ef414286fb626cd3efb02f74996e18efd455b39d8ec7ec460f61249485896140ef565b51916124a0868c6140ef565b516124b18951928392429184614355565b0390a45b01966123d0565b505050505050506124b5565b6124b5565b905081600319360112610348576124e26139b8565b916024356001600160401b0381116103485736602382011215610348576125129036906024818601359101613ae1565b906001600160a01b037f0000000000000000000000000000000000000000000000000000000000000000811630811490811561269c575b5061268c5761255c815f54163314614125565b8416918151946352d1902d60e01b86526020868681875afa5f9681612658575b5061259857505051634c9c8ce360e01b81529182015260249150fd5b838593877f360894a13ba1a3210667c828492db98dca3e2076cc3735a920a3ca505d382bbc908181036126425750833b1561262b5780546001600160a01b0319168317905551907fbc7cd75a20ee27fd9adebab32041f755214dbc6bffa90cc0225b39da2e5c2d3b5f80a282511561261557506105369250614d48565b9150503461261f57005b63b398979f60e01b8152fd5b8151634c9c8ce360e01b8152808701849052602490fd5b86602491845191632a87526960e21b8352820152fd5b9096506020813d602011612684575b8161267460209383613a49565b810103126103485751955f61257c565b3d9150612667565b815163703e46dd60e11b81528490fd5b9050817f360894a13ba1a3210667c828492db98dca3e2076cc3735a920a3ca505d382bbc541614155f612549565b9050346103485781600319360112610348576126e46139b8565b916024359260018060a01b036126fe815f54163314614125565b81169261270c841515614427565b61271785151561446c565b835f5261277c60209260018452612731855f2054156144af565b61276d855161273f816139e4565b8881526001868201818152895f52818852885f209251835551151591019060ff801983541691151516179055565b865f5260038452845f2061400f565b845f526002825260ff835f2054169060068210156116f357506127ee577f39d132591ee0696de49ab564e4a90e430c006561917db731a2a614dd2d24559191845f5260028252805f20600260ff198254161790556127d98561404a565b6127e46005546140cd565b60055551428152a3005b7f1cc138f50384be7770a8e4a34eecaa0d0c718bfaa1641af49db32532e4a5b9109151428152a3005b823461034857602036600319011261034857602090611026611cd56139b8565b82346103485760209061284c61172e36613cde565b5f52600682526105c8815f20918051612864816139e4565b60ff600161287186613d2c565b95868452015416151594859101525192839283613e0c565b82346103485780600319360112610348576128b06105c8926128a96139ce565b90356143af565b9290915192839283613e0c565b90503461034857602090602060031936011261034857355f526008602052815f209180519182602085549182815201945f5260205f20915f905b82821061290f576105c88686610653828b0383613a49565b8354875295860195600193840193909101906128f7565b82346103485760209061102661293b36613c9c565b91614383565b90503461034857602036600319011261034857355f526006602052805f206105c860ff600161296f84613d2c565b93015416925192839283613e0c565b82346103485761298d36613cde565b905f52600f602052815f20905f52602052805f20906105c860608251936129b385613a13565b805493848652600182015495866020820152600360028401549384848401520154938491015251948594859094939260609260808301968352602083015260408201520152565b82346103485760208060031936011261034857823591612a1b8315156141d9565b335f5260018252805f205493612a39612a3261430b565b8686614a43565b15612b2a57835f52600783526001825f20541160088452825f205415158115612b22575b5015612ac75750907f68f37cc4a32f0b24153ce9237b344b20a9717039f90d7c24f35e5c217f03e16891612a9185856148de565b612aa3612a9c61430b565b8787614912565b5f52600682526001815f200160ff198154169055600d82525f8181205551428152a3005b82608492519162461bcd60e51b8352820152603160248201527f43616e6e6f74206c65617665206173206c617374206f776e65722077697468206044820152706e6f2061646d696e6973747261746f727360781b6064820152fd5b905086612a5d565b82608492519162461bcd60e51b8352820152602360248201527f596f7520617265206e6f7420616e206f776e6572206f662074686973207265636044820152621bdc9960ea1b6064820152fd5b90503461034857612b8736613c9c565b9390612b956103e7336145c2565b612ba08315156141d9565b6001600160a01b031693612bb5851515614225565b612bc161072f826149eb565b335f5260209160018352805f2054955f52805f205494612be2861515613f2a565b82518484012093612bf387876148de565b805f5260068252612c0c60ff6001865f200154166142b3565b5f5260068152612c1d835f20613d2c565b948551828701209080821461306057612c3461430b565b8381519101208214612fec57875f5260078352845f205415918215612c61612c5a61430b565b8d8c614a43565b90612c758d612c6e61432c565b908d614a43565b90612c7e61430b565b8051908801208503612e335715612dd5575015612d93575b612c9e61432c565b848151910120149081612d7c575b50612cf9575b50505090612cf47f3af67cf2057ba8ef414286fb626cd3efb02f74996e18efd455b39d8ec7ec460f9392612ce8888489896146c9565b51928392429184614355565b0390a4005b612d04575b80612cb2565b855f52600881526001835f205411612cfe57608492519162461bcd60e51b8352820152603960248201527f43616e6e6f742064656d6f746520746865206c6173742061646d696e6973747260448201527f61746f72207768656e206e6f206f776e657220657869737473000000000000006064820152fd5b9050612d86614103565b838151910120145f612cac565b50505080606493519262461bcd60e51b845283015260248201527f4f6e6c79206f776e6572732063616e2070726f6d6f746520746f206f776e65726044820152fd5b9050612c96575050925162461bcd60e51b815291820152602b60248201527f4f6e6c792061646d696e6973747261746f72732063616e2070726f6d6f74652060448201526a3334b939ba1037bbb732b960a91b606482015260849150fd5b612e3b61432c565b8051908801208503612ec657508115612ebe575b50612c96575050925162461bcd60e51b815291820152603b60248201527f4f6e6c79206f776e65727320616e642061646d696e6973747261746f7273206360448201527f616e2070726f6d6f746520746f2061646d696e6973747261746f720000000000606482015260849150fd5b90505f612e4f565b612ece614103565b8781519101208514612ee3575b505050612c96565b15612f91578115612f7a575b5015612efe575b5f8080612edb565b5050925162461bcd60e51b815291820152604960248201527f4f6e6c79206f776e6572732063616e2064656d6f7465206f74686572732e204160448201527f646d696e6973747261746f72732063616e206f6e6c792064656d6f746520746860648201526832b6b9b2b63b32b99760b91b608482015260a49150fd5b905080612f88575b5f612eef565b50898b14612f82565b9050612ef6575050925162461bcd60e51b815291820152602860248201527f4f6e6c792061646d696e6973747261746f72732063616e2064656d6f7465207460448201526737903b34b2bbb2b960c11b606482015260849150fd5b505060a492519162461bcd60e51b8352820152604360248201527f4f776e6572732063616e6e6f742062652064656d6f7465642e204f776e65722060448201527f6d75737420766f6c756e746172696c792072656d6f7665207468656d73656c7660648201526232b99760e91b6084820152fd5b5050606492519162461bcd60e51b8352820152601c60248201527f54617267657420616c726561647920686173207468697320726f6c65000000006044820152fd5b8234610348576020366003190112610348576020906110266130c26139b8565b614995565b8234610348576130d636613c6b565b6130e56103e7939293336145c2565b335f526001928392602090848252805f20549261310481511515613fcd565b5f955b61310d57005b80518610156105365786868686613125849a866140ef565b51805f52600f8852865f20835f528852865f20875161314381613a13565b815490818152878301548b82015260606003600285015494858d85015201549101521561323d5761317c61317561430b565b8484614a43565b90811561322a575b8314159081613221575b506132195761319d83826148de565b805f52600690818a5260ff878a5f200154166131e6575b50507fa232dcffab2d4f0f085a4d88bc617cd25ded7d3b8d8952e99d788ca25d4435b0888851428152a45b0195613107565b6131f86131f1614103565b8685614912565b5f52885284875f200160ff198154169055600d88525f878120558c806131b4565b5050506131df565b9050158d61318e565b905061323761317561432c565b90613184565b505050506131df565b82346103485761325536613c4c565b90916132636103e7336145c2565b335f5260209160018352815f20549284156134425784841461340057845f526002815260ff835f20541660068110156133b257156133c557835f52600e8152825f20855f52815260ff835f205416868110156133b25780159081156133a7575b50156133655782516132d4816139e4565b600181528181016132e584826141ae565b855f52600e8352845f20875f528352845f209151888110156133525760ff80198454169116178255519660038810156116f357507f494d010fdf588a0e83d626ea6963187bdda6f88b7007f7bf280683d3f7dea834949596613346916141ba565b61156683518093613e76565b602189634e487b7160e01b5f525260245ffd5b8560649184519162461bcd60e51b8352820152601760248201527f50726f706f73616c20616c7265616479206578697374730000000000000000006044820152fd5b6003915014876132c3565b602187634e487b7160e01b5f525260245ffd5b8560649184519162461bcd60e51b83528201526016602482015275151c9d5cdd1959481b9bdd081c9959da5cdd195c995960521b6044820152fd5b8560649184519162461bcd60e51b8352820152601760248201527f43616e6e6f74206170706f696e7420796f757273656c660000000000000000006044820152fd5b8560649184519162461bcd60e51b8352820152600f60248201526e496e76616c6964207472757374656560881b6044820152fd5b8234610348576020366003190112610348576134906139b8565b5f546001600160a01b0391906134a99083163314614125565b16805f5260016020526134c0825f2054151561415e565b805f52600160205260ff6001835f20015416156134f057600192505f52816020525f200160ff1981541690555f80f35b815162461bcd60e51b8152602081850152601760248201527f57616c6c657420616c726561647920696e6163746976650000000000000000006044820152606490fd5b82346103485760a03660031901126103485781356001600160401b038111610348576135629036908401613a81565b9061356b6139ce565b60443591606435936084356135826103e7336145c2565b335f52600195602091878352845f20549561359f85511515613fcd565b6001600160a01b03811690811561385e5788156138285782156137e557815f5289855288875f205480155f1461377b575050613611613620928b8951916135e5836139e4565b8c8352888301908282525f528189528a5f209251835551151591019060ff801983541691151516179055565b885f5260038552865f2061400f565b865f5260028352845f20600560ff1982541617905561363e8761404a565b6136496005546140cd565b6005555b420192834211613768578798505f975b61366357005b8051881015610536578888888861367b849c866140ef565b5161368682826148de565b5f5289888a60068083528a60ff94858b825f200154161561375a577f140d483f221b1b41aa3142be8c182589305145aafe83bed53b908d6baff35c1d956003936136d08b8a6148de565b5f5286528b825f2001541615613742575b8051936136ed85613a13565b42855285850190815281850191898352606096878701948552895f52600f8152815f20908c5f52525f2094518555518b850155516002840155519101558b518981528b8b820152428d820152a45b019761365d565b6137558861374e614103565b8b8a6146c9565b6136e1565b50505050505050505061373b565b601189634e487b7160e01b5f525260245ffd5b14915061364d905057845162461bcd60e51b8152808a01849052603560248201527f47756573742077616c6c657420616c7265616479207265676973746572656420604482015274746f20646966666572656e74206964656e7469747960581b6064820152608490fd5b865162461bcd60e51b8152808c01869052601960248201527f4475726174696f6e206d75737420626520706f736974697665000000000000006044820152606490fd5b865162461bcd60e51b8152808c01869052601060248201526f125b9d985b1a590819dd595cdd08125160821b6044820152606490fd5b865162461bcd60e51b8152808c018690526014602482015273125b9d985b1a590819dd595cdd081dd85b1b195d60621b6044820152606490fd5b82346103485780600319360112610348576110266020926138b76139ce565b9035613f76565b90503461034857602090602060031936011261034857355f526009602052815f209180519182602085549182815201945f5260205f20915f905b828210613910576105c88686610653828b0383613a49565b8354875295860195600193840193909101906138f8565b8234610348576105369061393a36613b44565b9190926139496103e7336145c2565b6139568251845114613ee6565b335f9081526001602052818120546001600160a01b03909516815220549061397f821515613f2a565b61464a565b839034610348576020366003190112610348576020916001600160a01b036139aa6139b8565b165f52600183525f20548152f35b600435906001600160a01b038216820361034857565b602435906001600160a01b038216820361034857565b604081019081106001600160401b038211176139ff57604052565b634e487b7160e01b5f52604160045260245ffd5b608081019081106001600160401b038211176139ff57604052565b602081019081106001600160401b038211176139ff57604052565b90601f801991011681019081106001600160401b038211176139ff57604052565b6001600160401b0381116139ff5760051b60200190565b9080601f83011215610348576020908235613a9b81613a6a565b93613aa96040519586613a49565b81855260208086019260051b82010192831161034857602001905b828210613ad2575050505090565b81358152908301908301613ac4565b9291926001600160401b0382116139ff5760405191613b0a601f8201601f191660200184613a49565b829481845281830111610348578281602093845f960137010152565b9080601f8301121561034857816020613b4193359101613ae1565b90565b6060600319820112610348576001600160401b03916004358381116103485782613b7091600401613a81565b9260249283356001600160a01b03811681036103485793604435928084116103485782602385011215610348578360040135613bab81613a6a565b94613bb96040519687613a49565b8186526020946024602088019360051b830101948186116103485760248301935b868510613bec57505050505050505090565b8435868111610348578891613c0685858594890101613b26565b815201940193613bda565b60209060206040818301928281528551809452019301915f5b828110613c38575050505090565b835185529381019392810192600101613c2a565b6040906003190112610348576004359060243560038110156103485790565b604060031982011261034857600435906001600160401b03821161034857613c9591600401613a81565b9060243590565b606060031982011261034857600435916024356001600160a01b03811681036103485791604435906001600160401b03821161034857613b4191600401613b26565b6040906003190112610348576004359060243590565b90600182811c92168015613d22575b6020831014613d0e57565b634e487b7160e01b5f52602260045260245ffd5b91607f1691613d03565b9060405191825f8254613d3e81613cf4565b908184526020946001916001811690815f14613dac5750600114613d6e575b505050613d6c92500383613a49565b565b5f90815285812095935091905b818310613d94575050613d6c93508201015f8080613d5d565b85548884018501529485019487945091830191613d7b565b92505050613d6c94925060ff191682840152151560051b8201015f8080613d5d565b91908251928382525f5b848110613df8575050825f602080949584010152601f8019910116010190565b602081830181015184830182015201613dd8565b90613e24602091949394604084526040840190613dce565b931515910152565b8054821015613e41575f5260205f2001905f90565b634e487b7160e01b5f52603260045260245ffd5b906006821015613e625752565b634e487b7160e01b5f52602160045260245ffd5b906003821015613e625752565b90929160408201936004811015613e62578252613d6c9160200190613e76565b15613eaa57565b60405162461bcd60e51b81526020600482015260146024820152732737ba1030b71030b1ba34bb329036b2b6b132b960611b6044820152606490fd5b15613eed57565b60405162461bcd60e51b8152602060048201526015602482015274082e4e4c2f240d8cadccee8d040dad2e6dac2e8c6d605b1b6044820152606490fd5b15613f3157565b60405162461bcd60e51b815260206004820152601c60248201527f5461726765742077616c6c6574206e6f742072656769737465726564000000006044820152606490fd5b6001600160a01b039091165f90815260016020526040902054908115613fc757613fa8613fa161430b565b8383614a43565b918215613fb457505090565b613b419250613fc161432c565b91614a43565b50505f90565b15613fd457565b60405162461bcd60e51b8152602060048201526013602482015272139bc81c9958dbdc991cc81c1c9bdd9a591959606a1b6044820152606490fd5b8054600160401b8110156139ff5761402c91600182018155613e2c565b60018060a09493941b038084549260031b9316831b921b1916179055565b600454600160401b8110156139ff576001810180600455811015613e415760045f527f8a35acfbc15ff81a39ae7d344fd709f28e8600b4aa8c65c6b64bfe7fe36bd19b0155565b805490600160401b8210156139ff57816140b39160016140c994018155613e2c565b819391549060031b91821b915f19901b19161790565b9055565b5f1981146140db5760010190565b634e487b7160e01b5f52601160045260245ffd5b8051821015613e415760209160051b010190565b60405190614110826139e4565b60068252653b34b2bbb2b960d11b6020830152565b1561412c57565b60405162461bcd60e51b815260206004820152600a60248201526927b7363c9030b236b4b760b11b6044820152606490fd5b1561416557565b60405162461bcd60e51b815260206004820152601560248201527415d85b1b195d081b9bdd081c9959da5cdd195c9959605a1b6044820152606490fd5b6004821015613e625752565b6003821015613e625752565b906003811015613e625761ff0082549160081b169061ff001916179055565b156141e057565b60405162461bcd60e51b815260206004820152601e60248201527f5265636f726420494420686173682063616e6e6f7420626520656d70747900006044820152606490fd5b1561422c57565b60405162461bcd60e51b815260206004820152601d60248201527f57616c6c657420616464726573732063616e6e6f74206265207a65726f0000006044820152606490fd5b1561427857565b60405162461bcd60e51b8152602060048201526013602482015272496e76616c696420726f6c6520737472696e6760681b6044820152606490fd5b156142ba57565b60405162461bcd60e51b815260206004820152602360248201527f54617267657420646f6573206e6f74206861766520616e2061637469766520726044820152626f6c6560e81b6064820152608490fd5b60405190614318826139e4565b600582526437bbb732b960d91b6020830152565b60405190614339826139e4565b600d82526c30b236b4b734b9ba3930ba37b960991b6020830152565b93929161437e90614370604093606088526060880190613dce565b908682036020880152613dce565b930152565b919060018060a01b03165f52600160205260405f205480156143a857613b4192614a43565b5050505f90565b6001600160a01b039091165f9081526001602052604090205490811561441157602092916143dc916148de565b5f526006825260405f206040516143f2816139e4565b60ff60016143ff84613d2c565b93848452015416151593849101529190565b505060405161441f81613a2e565b5f8152905f90565b1561442e57565b60405162461bcd60e51b8152602060048201526016602482015275496e76616c69642077616c6c6574206164647265737360501b6044820152606490fd5b1561447357565b60405162461bcd60e51b8152602060048201526014602482015273092dcecc2d8d2c840eae6cae440928840d0c2e6d60631b6044820152606490fd5b156144b657565b60405162461bcd60e51b815260206004820152601960248201527f57616c6c657420616c72656164792072656769737465726564000000000000006044820152606490fd5b1561450257565b60405162461bcd60e51b815260206004820152600f60248201526e496e76616c6964206164647265737360881b6044820152606490fd5b1561454057565b60405162461bcd60e51b815260206004820152601e60248201527f4e6f2061637469766520747275737465652072656c6174696f6e7368697000006044820152606490fd5b6001600160a01b039091165f908152600160205260409020548015613fc7576145ad916148de565b5f52600660205260ff600160405f2001541690565b6001600160a01b03165f908152600160205260409020805490811590811561463a575b50614635575f52600260205260ff60405f20541660068110159081613e625760028114918215614628575b821561461b57505090565b909150613e625760041490565b506003811491505f614610565b505f90565b60ff91506001015416155f6145e5565b9392935f5b81518110156146b757806146686123ef600193876140ef565b156146b25761467b8761044683866140ef565b156146b25761468e8461044683866140ef565b6146b2576146ac876146a083866140ef565b5186612462858a6140ef565b0161464f565b6146ac565b505050509050565b906145ad916148de565b9291926146d682826148de565b93845f52602060068152604090815f20966146f088613d2c565b978851159160ff600180930154169185519061470b826139e4565b878252858201818152835f5260068752875f2092518051906001600160401b0382116139ff5761473b8554613cf4565b601f8111614898575b508890601f831160011461484a5761478995949392915f9183611e5e5750505f19600383901b1c191690831b17835551151591019060ff801983541691151516179055565b5f52600d835287845f2055155f1461481557859697506147cc8486977ff9d17eb1340ab78960b594ff8bed1349985b800ee21199c6d5ea4a67454593ad97614c2e565b6147ef575b6147e48251938385948552840190613dce565b9042908301520390a4565b855f52600a815261480285835f20614091565b61480d600b546140cd565b600b556147d1565b50919450508451818601209084519085012003614833575b50505050565b611e59614841948383614912565b5f80808061482d565b90601f19831691865f528a5f20925f5b8c828210614884575050918695949291836147899998959310611ea457505050811b018355611d99565b83850151865594880194938401930161485a565b855f52895f20601f840160051c8101918b85106148d4575b601f0160051c019085905b8281106148c9575050614744565b5f81550185906148bb565b90915081906148b0565b906040519060208201928352604082015260408152606081018181106001600160401b038211176139ff5760405251902090565b825160208094012061492261430b565b80519085012081036149425750613d6c926007915f525260405f20614cb1565b61494a61432c565b805190850120810361496a5750613d6c926008915f525260405f20614cb1565b614972614103565b8481519101201461498257505050565b613d6c926009915f525260405f20614cb1565b6001600160a01b03165f90815260016020526040902080549081159081156149db575b50614635575f52600260205260ff60405f2054166006811015613e625760041490565b60ff91506001015416155f6149b8565b602081519101206149fa61430b565b602081519101208114908115614a2a575b8115614a15575090565b9050614a1f614103565b602081519101201490565b9050614a3461432c565b60208151910120811490614a0b565b60209291614a50916148de565b5f526006825260405f20604051614a66816139e4565b60ff6001614a7384613d2c565b938484520154161515938491015282614a8b57505090565b9091506020815191012090602081519101201490565b600c546001600160a01b03169182156143a8576044602092604051948593849263193d8e7560e21b8452600484015260248301525afa908115614b20575f91614ae8575090565b90506020813d602011614b18575b81614b0360209383613a49565b81010312610348575180151581036103485790565b3d9150614af6565b6040513d5f823e3d90fd5b6003831015613e62578215614b7657600191614b4691614bd7565b9114614b4f5790565b80516020820120614b5e61430b565b6020815191012014614b6d5790565b50613b4161432c565b505050613b41614103565b6001600160a01b03165f9081526001602052604090208054908115908115614bc7575b50614635575f52600260205260ff60405f2054166006811015613e625760031490565b60ff91506001015416155f614ba4565b90614be1916148de565b5f52600660205260405f2060ff600160405192614bfd846139e4565b614c0681613d2c565b84520154161580156020830152614c1b575190565b50604051614c2881613a2e565b5f815290565b8251602080940120614c3e61430b565b8051908501208103614c5e5750613d6c926007915f525260405f20614091565b614c6661432c565b8051908501208103614c865750613d6c926008915f525260405f20614091565b614c8e614103565b84815191012014614c9e57505050565b613d6c926009915f525260405f20614091565b5f5b8154908181101561482d578391614cca8285613e2c565b959054600396871b1c14614ce45750909250600101614cb3565b5f1992508281019081116140db576140b3614d02614d0f9286613e2c565b905490871b1c9285613e2c565b905581548015614d3457810192614d268484613e2c565b81939154921b1b1916905555565b634e487b7160e01b5f52603160045260245ffd5b905f8091602081519101845af48080614dc6575b15614d7c5750506040513d81523d5f602083013e60203d82010160405290565b15614da357604051639996b31560e01b81526001600160a01b039091166004820152602490fd5b3d15614db4576040513d5f823e3d90fd5b60405163d6bda27560e01b8152600490fd5b503d151580614d5c5750813b1515614d5c56fea26469706673582212209d6c68b818ab0535a390bc40fdd79f1421d1cd8f222021ef1203ac14499db0f064736f6c63430008180033","opcodes":"PUSH1 0xA0 DUP1 PUSH1 0x40 MSTORE CALLVALUE PUSH3 0xD1 JUMPI ADDRESS PUSH1 0x80 MSTORE PUSH32 0xF0C57E16840DF040F15088DC2F81FE391C3923BEC73E23A9662EFC9C229C6A00 SWAP1 DUP2 SLOAD SWAP1 PUSH1 0xFF DUP3 PUSH1 0x40 SHR AND PUSH3 0xC2 JUMPI POP PUSH1 0x1 PUSH1 0x1 PUSH1 0x40 SHL SUB PUSH1 0x2 PUSH1 0x1 PUSH1 0x40 SHL SUB NOT DUP3 DUP3 AND ADD PUSH3 0x7C JUMPI JUMPDEST PUSH1 0x40 MLOAD PUSH2 0x4E0F SWAP1 DUP2 PUSH3 0xD6 DUP3 CODECOPY PUSH1 0x80 MLOAD DUP2 DUP2 DUP2 PUSH2 0x2311 ADD MSTORE PUSH2 0x251D ADD MSTORE RETURN JUMPDEST PUSH1 0x1 PUSH1 0x1 PUSH1 0x40 SHL SUB NOT SWAP1 SWAP2 AND DUP2 OR SWAP1 SWAP2 SSTORE PUSH1 0x40 MLOAD SWAP1 DUP2 MSTORE PUSH32 0xC7F505B2F371AE2175EE4913F4499E1F2633A7B5936321EED1CDAEB6115181D2 SWAP1 PUSH1 0x20 SWAP1 LOG1 PUSH0 DUP1 DUP1 PUSH3 0x5C JUMP JUMPDEST PUSH4 0xF92EE8A9 PUSH1 0xE0 SHL DUP2 MSTORE PUSH1 0x4 SWAP1 REVERT JUMPDEST PUSH0 DUP1 REVERT INVALID PUSH1 0x80 PUSH1 0x40 SWAP1 DUP1 DUP3 MSTORE PUSH1 0x4 DUP1 CALLDATASIZE LT ISZERO PUSH2 0x15 JUMPI PUSH0 DUP1 REVERT JUMPDEST PUSH0 CALLDATALOAD PUSH1 0xE0 SHR SWAP2 DUP3 PUSH3 0xB0C809 EQ PUSH2 0x3984 JUMPI POP DUP2 PUSH4 0x2BA8109 EQ PUSH2 0x3927 JUMPI DUP2 PUSH4 0x33E822F EQ PUSH2 0x38BE JUMPI DUP2 PUSH4 0x519E2A0 EQ PUSH2 0x3898 JUMPI DUP2 PUSH4 0x591BDF4 EQ PUSH2 0x3533 JUMPI DUP2 PUSH4 0xB3FFD1D EQ PUSH2 0x3476 JUMPI DUP2 PUSH4 0x1C0C18D8 EQ PUSH2 0x3246 JUMPI DUP2 PUSH4 0x1DC63201 EQ PUSH2 0x30C7 JUMPI DUP2 PUSH4 0x259ED80E EQ PUSH2 0x30A2 JUMPI DUP2 PUSH4 0x29C9087A EQ PUSH2 0x2B77 JUMPI DUP2 PUSH4 0x2AE8511D EQ PUSH2 0x29FA JUMPI DUP2 PUSH4 0x3256E5AB EQ PUSH2 0x297E JUMPI DUP2 PUSH4 0x33105592 EQ PUSH2 0x2941 JUMPI DUP2 PUSH4 0x3BEFA410 EQ PUSH2 0x2926 JUMPI DUP2 PUSH4 0x41A51BAA EQ PUSH2 0x28BD JUMPI DUP2 PUSH4 0x422A5BB8 EQ PUSH2 0x2889 JUMPI DUP2 PUSH4 0x43E19704 EQ PUSH2 0x2837 JUMPI DUP2 PUSH4 0x45ECD02F EQ PUSH2 0x2817 JUMPI DUP2 PUSH4 0x49DF7208 EQ PUSH2 0x26CA JUMPI DUP2 PUSH4 0x4B6FEB7C EQ PUSH2 0x1BD0 JUMPI DUP2 PUSH4 0x4F1EF286 EQ PUSH2 0x24CD JUMPI DUP2 PUSH4 0x51EED472 EQ PUSH2 0x2375 JUMPI DUP2 PUSH4 0x52D1902D EQ PUSH2 0x22FE JUMPI DUP2 PUSH4 0x557EE54F EQ PUSH2 0x2270 JUMPI DUP2 PUSH4 0x55816079 EQ PUSH2 0x2240 JUMPI DUP2 PUSH4 0x562C788E EQ PUSH2 0x5CC JUMPI DUP2 PUSH4 0x64F639D4 EQ PUSH2 0x2225 JUMPI DUP2 PUSH4 0x6544B05B EQ PUSH2 0x21BC JUMPI DUP2 PUSH4 0x69AC2022 EQ PUSH2 0x1FBE JUMPI DUP2 PUSH4 0x6B4BED97 EQ PUSH2 0x373 JUMPI DUP2 PUSH4 0x726D5447 EQ PUSH2 0x1C6C JUMPI DUP2 PUSH4 0x75829DEF EQ PUSH2 0x1BEE JUMPI DUP2 PUSH4 0x790E118C EQ PUSH2 0x1BD0 JUMPI DUP2 PUSH4 0x7B657D07 EQ PUSH2 0x1B93 JUMPI DUP2 PUSH4 0x8129FC1C EQ PUSH2 0x1A76 JUMPI DUP2 PUSH4 0x8776CD35 EQ PUSH2 0x1A46 JUMPI DUP2 PUSH4 0x89B08F11 EQ PUSH2 0x1A01 JUMPI DUP2 PUSH4 0x8DB7EDB4 EQ PUSH2 0x19BC JUMPI DUP2 PUSH4 0x93CCFBA8 EQ PUSH2 0x198C JUMPI DUP2 PUSH4 0x9443CD80 EQ PUSH2 0x1946 JUMPI DUP2 PUSH4 0x96207E02 EQ PUSH2 0x1808 JUMPI DUP2 PUSH4 0x9915B91F EQ PUSH2 0x1791 JUMPI DUP2 PUSH4 0x9BE572F6 EQ PUSH2 0x129E JUMPI DUP2 PUSH4 0x9F4216E8 EQ PUSH2 0x1745 JUMPI DUP2 PUSH4 0xAADDC345 EQ PUSH2 0x1719 JUMPI DUP2 PUSH4 0xAB48384A EQ PUSH2 0x15EB JUMPI DUP2 PUSH4 0xAD3CB1CC EQ PUSH2 0x15A7 JUMPI DUP2 PUSH4 0xB8CAB84B EQ PUSH2 0x14CC JUMPI DUP2 PUSH4 0xBAFC8892 EQ PUSH2 0x1373 JUMPI DUP2 PUSH4 0xBB0F86D5 EQ PUSH2 0x12BC JUMPI DUP2 PUSH4 0xBFF1F9E1 EQ PUSH2 0x129E JUMPI DUP2 PUSH4 0xC36DC9EF EQ PUSH2 0x1235 JUMPI DUP2 PUSH4 0xC7155823 EQ PUSH2 0x11B9 JUMPI DUP2 PUSH4 0xC88C35FE EQ PUSH2 0x1193 JUMPI DUP2 PUSH4 0xC979C9BF EQ PUSH2 0x102F JUMPI DUP2 PUSH4 0xCB261A03 EQ PUSH2 0x1001 JUMPI DUP2 PUSH4 0xCDA06C6E EQ PUSH2 0xFDA JUMPI DUP2 PUSH4 0xD12A7768 EQ PUSH2 0xF2B JUMPI DUP2 PUSH4 0xD547741F EQ PUSH2 0xB23 JUMPI DUP2 PUSH4 0xDDE492EA EQ PUSH2 0x6E4 JUMPI DUP2 PUSH4 0xE211E89C EQ PUSH2 0x674 JUMPI DUP2 PUSH4 0xE2842D79 EQ PUSH2 0x5F4 JUMPI DUP2 PUSH4 0xE94ED257 EQ PUSH2 0x5CC JUMPI DUP2 PUSH4 0xEEC047AA EQ PUSH2 0x56C JUMPI DUP2 PUSH4 0xF12B9AD3 EQ PUSH2 0x3A4 JUMPI DUP2 PUSH4 0xF29E007B EQ PUSH2 0x373 JUMPI POP DUP1 PUSH4 0xF851A440 EQ PUSH2 0x34C JUMPI PUSH4 0xFA7A6BCC EQ PUSH2 0x30B JUMPI PUSH0 DUP1 REVERT JUMPDEST CALLVALUE PUSH2 0x348 JUMPI PUSH2 0x319 CALLDATASIZE PUSH2 0x3CDE JUMP JUMPDEST SWAP2 SWAP1 PUSH0 MSTORE PUSH1 0xA PUSH1 0x20 MSTORE DUP1 PUSH0 KECCAK256 DUP1 SLOAD DUP4 LT ISZERO PUSH2 0x348 JUMPI PUSH1 0x20 SWAP3 PUSH2 0x33A SWAP2 PUSH2 0x3E2C JUMP JUMPDEST SWAP2 SWAP1 SLOAD SWAP1 MLOAD SWAP2 PUSH1 0x3 SHL SHR DUP2 MSTORE RETURN JUMPDEST PUSH0 DUP1 REVERT JUMPDEST POP CALLVALUE PUSH2 0x348 JUMPI PUSH0 CALLDATASIZE PUSH1 0x3 NOT ADD SLT PUSH2 0x348 JUMPI PUSH0 SLOAD SWAP1 MLOAD PUSH1 0x1 PUSH1 0x1 PUSH1 0xA0 SHL SUB SWAP1 SWAP2 AND DUP2 MSTORE PUSH1 0x20 SWAP1 RETURN JUMPDEST DUP3 CALLVALUE PUSH2 0x348 JUMPI PUSH1 0x20 CALLDATASIZE PUSH1 0x3 NOT ADD SLT PUSH2 0x348 JUMPI PUSH1 0x20 SWAP2 CALLDATALOAD PUSH0 MSTORE PUSH1 0x2 DUP3 MSTORE PUSH2 0x3A2 PUSH1 0xFF DUP3 PUSH0 KECCAK256 SLOAD AND SWAP2 MLOAD DUP1 SWAP3 PUSH2 0x3E55 JUMP JUMPDEST RETURN JUMPDEST DUP3 CALLVALUE PUSH2 0x348 JUMPI DUP1 PUSH1 0x3 NOT CALLDATASIZE ADD SLT PUSH2 0x348 JUMPI DUP2 CALLDATALOAD PUSH1 0x1 PUSH1 0x1 PUSH1 0x40 SHL SUB DUP2 GT PUSH2 0x348 JUMPI PUSH2 0x3D2 SWAP1 CALLDATASIZE SWAP1 DUP5 ADD PUSH2 0x3A81 JUMP JUMPDEST SWAP2 PUSH2 0x3DB PUSH2 0x39CE JUMP JUMPDEST PUSH2 0x3EC PUSH2 0x3E7 CALLER PUSH2 0x45C2 JUMP JUMPDEST PUSH2 0x3EA3 JUMP JUMPDEST PUSH1 0x1 PUSH1 0x1 PUSH1 0xA0 SHL SUB AND SWAP1 DUP2 ISZERO PUSH2 0x538 JUMPI POP CALLER PUSH0 MSTORE PUSH1 0x1 SWAP3 DUP4 SWAP3 PUSH1 0x20 SWAP1 PUSH1 0x1 DUP3 MSTORE DUP1 PUSH0 KECCAK256 SLOAD SWAP4 PUSH0 MSTORE DUP1 PUSH0 KECCAK256 SLOAD SWAP3 PUSH2 0x423 DUP5 ISZERO ISZERO PUSH2 0x3F2A JUMP JUMPDEST PUSH0 SWAP6 JUMPDEST PUSH2 0x42C JUMPI STOP JUMPDEST DUP1 MLOAD DUP7 LT ISZERO PUSH2 0x536 JUMPI DUP7 DUP7 PUSH2 0x44C DUP7 PUSH2 0x446 DUP5 SWAP11 DUP7 PUSH2 0x40EF JUMP JUMPDEST MLOAD PUSH2 0x46BF JUMP JUMPDEST ISZERO PUSH2 0x531 JUMPI PUSH2 0x45F DUP8 PUSH2 0x446 DUP4 DUP7 PUSH2 0x40EF JUMP JUMPDEST ISZERO PUSH2 0x531 JUMPI DUP7 DUP7 PUSH2 0x47A DUP2 PUSH2 0x474 DUP6 DUP9 PUSH2 0x40EF JUMP JUMPDEST MLOAD PUSH2 0x48DE JUMP JUMPDEST DUP1 PUSH0 MSTORE PUSH1 0x6 DUP1 DUP10 MSTORE PUSH2 0x48D DUP9 PUSH0 KECCAK256 PUSH2 0x3D2C JUMP JUMPDEST SWAP2 DUP3 MLOAD DUP11 DUP5 ADD KECCAK256 PUSH2 0x49C PUSH2 0x430B JUMP JUMPDEST DUP12 DUP2 MLOAD SWAP2 ADD KECCAK256 EQ PUSH2 0x527 JUMPI PUSH2 0x4BC DUP4 DUP6 PUSH2 0x4B6 DUP10 DUP13 PUSH2 0x40EF JUMP JUMPDEST MLOAD PUSH2 0x4912 JUMP JUMPDEST PUSH0 MSTORE DUP9 MSTORE DUP5 DUP8 PUSH0 KECCAK256 ADD PUSH1 0xFF NOT DUP2 SLOAD AND SWAP1 SSTORE PUSH1 0xD DUP9 MSTORE PUSH0 DUP8 DUP2 KECCAK256 SSTORE PUSH32 0xD05ED2D3FEFF840C2ECECA71791388FD3D19DBBBBCFA97031F534A7DC09FBF1F PUSH2 0x517 PUSH2 0x504 DUP7 DUP10 PUSH2 0x40EF JUMP JUMPDEST MLOAD SWAP3 DUP10 MLOAD SWAP2 DUP3 SWAP2 DUP12 DUP4 MSTORE DUP12 DUP4 ADD SWAP1 PUSH2 0x3DCE JUMP JUMPDEST TIMESTAMP DUP13 DUP4 ADD MSTORE SUB SWAP1 LOG4 JUMPDEST ADD SWAP6 PUSH2 0x426 JUMP JUMPDEST POP POP POP POP POP PUSH2 0x520 JUMP JUMPDEST PUSH2 0x520 JUMP JUMPDEST STOP JUMPDEST PUSH1 0x64 SWAP1 PUSH1 0x20 DUP5 MLOAD SWAP2 PUSH3 0x461BCD PUSH1 0xE5 SHL DUP4 MSTORE DUP3 ADD MSTORE PUSH1 0xE PUSH1 0x24 DUP3 ADD MSTORE PUSH14 0x125B9D985B1A59081DD85B1B195D PUSH1 0x92 SHL PUSH1 0x44 DUP3 ADD MSTORE REVERT JUMPDEST DUP3 CALLVALUE PUSH2 0x348 JUMPI PUSH2 0x57B CALLDATASIZE PUSH2 0x3CDE JUMP JUMPDEST SWAP1 PUSH0 MSTORE PUSH1 0xF PUSH1 0x20 MSTORE DUP2 PUSH0 KECCAK256 SWAP1 PUSH0 MSTORE PUSH1 0x20 MSTORE DUP1 PUSH0 KECCAK256 SWAP1 PUSH2 0x5C8 DUP3 SLOAD SWAP2 PUSH1 0x1 DUP5 ADD SLOAD SWAP4 PUSH1 0x3 PUSH1 0x2 DUP3 ADD SLOAD SWAP2 ADD SLOAD SWAP2 MLOAD SWAP5 DUP6 SWAP5 DUP6 SWAP1 SWAP5 SWAP4 SWAP3 PUSH1 0x60 SWAP3 PUSH1 0x80 DUP4 ADD SWAP7 DUP4 MSTORE PUSH1 0x20 DUP4 ADD MSTORE PUSH1 0x40 DUP3 ADD MSTORE ADD MSTORE JUMP JUMPDEST SUB SWAP1 RETURN JUMPDEST DUP3 CALLVALUE PUSH2 0x348 JUMPI PUSH0 CALLDATASIZE PUSH1 0x3 NOT ADD SLT PUSH2 0x348 JUMPI PUSH1 0xC SLOAD SWAP1 MLOAD PUSH1 0x1 PUSH1 0x1 PUSH1 0xA0 SHL SUB SWAP1 SWAP2 AND DUP2 MSTORE PUSH1 0x20 SWAP1 RETURN JUMPDEST DUP3 CALLVALUE PUSH2 0x348 JUMPI PUSH0 CALLDATASIZE PUSH1 0x3 NOT ADD SLT PUSH2 0x348 JUMPI DUP1 MLOAD SWAP1 DUP2 DUP4 SLOAD DUP1 DUP3 MSTORE PUSH1 0x20 DUP1 SWAP3 ADD SWAP5 PUSH0 MSTORE PUSH32 0x8A35ACFBC15FF81A39AE7D344FD709F28E8600B4AA8C65C6B64BFE7FE36BD19B SWAP2 PUSH0 SWAP1 JUMPDEST DUP3 DUP3 LT PUSH2 0x65D JUMPI PUSH2 0x5C8 DUP7 DUP7 PUSH2 0x653 DUP3 DUP12 SUB DUP4 PUSH2 0x3A49 JUMP JUMPDEST MLOAD SWAP2 DUP3 SWAP2 DUP3 PUSH2 0x3C11 JUMP JUMPDEST DUP4 SLOAD DUP8 MSTORE SWAP6 DUP7 ADD SWAP6 PUSH1 0x1 SWAP4 DUP5 ADD SWAP4 SWAP1 SWAP2 ADD SWAP1 PUSH2 0x63B JUMP JUMPDEST DUP3 CALLVALUE PUSH2 0x348 JUMPI PUSH1 0x20 SWAP1 PUSH2 0x686 CALLDATASIZE PUSH2 0x3CDE JUMP JUMPDEST SWAP1 PUSH0 MSTORE PUSH1 0xF DUP4 MSTORE DUP2 PUSH0 KECCAK256 SWAP1 PUSH0 MSTORE DUP3 MSTORE DUP1 PUSH0 KECCAK256 SWAP1 DUP1 MLOAD PUSH2 0x6A4 DUP2 PUSH2 0x3A13 JUMP JUMPDEST DUP3 SLOAD SWAP1 DUP2 DUP2 MSTORE PUSH1 0x60 PUSH1 0x3 PUSH1 0x1 DUP7 ADD SLOAD SWAP6 DUP7 DUP9 DUP6 ADD MSTORE PUSH1 0x2 DUP2 ADD SLOAD DUP7 DUP6 ADD MSTORE ADD SLOAD SWAP2 ADD MSTORE ISZERO ISZERO SWAP2 DUP3 PUSH2 0x6D9 JUMPI JUMPDEST POP MLOAD SWAP1 ISZERO ISZERO DUP2 MSTORE RETURN JUMPDEST TIMESTAMP GT ISZERO SWAP2 POP DUP4 PUSH2 0x6D0 JUMP JUMPDEST SWAP1 POP CALLVALUE PUSH2 0x348 JUMPI PUSH2 0x6F4 CALLDATASIZE PUSH2 0x3C9C JUMP JUMPDEST SWAP2 SWAP3 SWAP1 PUSH2 0x703 PUSH2 0x3E7 CALLER PUSH2 0x45C2 JUMP JUMPDEST PUSH2 0x70E DUP5 ISZERO ISZERO PUSH2 0x41D9 JUMP JUMPDEST PUSH1 0x1 PUSH1 0x1 PUSH1 0xA0 SHL SUB AND SWAP3 PUSH2 0x723 DUP5 ISZERO ISZERO PUSH2 0x4225 JUMP JUMPDEST PUSH2 0x734 PUSH2 0x72F DUP5 PUSH2 0x49EB JUMP JUMPDEST PUSH2 0x4271 JUMP JUMPDEST CALLER PUSH0 MSTORE PUSH1 0x20 SWAP2 PUSH1 0x1 DUP4 MSTORE DUP6 PUSH0 KECCAK256 SLOAD SWAP5 PUSH0 MSTORE DUP6 PUSH0 KECCAK256 SLOAD SWAP3 PUSH2 0x755 DUP5 ISZERO ISZERO PUSH2 0x3F2A JUMP JUMPDEST DUP5 MLOAD DUP2 DUP7 ADD KECCAK256 PUSH2 0x765 DUP8 DUP6 PUSH2 0x48DE JUMP JUMPDEST PUSH0 MSTORE PUSH1 0x6 DUP3 MSTORE PUSH1 0xFF PUSH1 0x1 DUP10 PUSH0 KECCAK256 ADD SLOAD AND ISZERO PUSH2 0xAE2 JUMPI DUP4 PUSH0 MSTORE PUSH1 0x7 DUP3 MSTORE DUP8 PUSH0 KECCAK256 SLOAD ISZERO ISZERO SWAP1 PUSH2 0x79A PUSH2 0x793 PUSH2 0x430B JUMP JUMPDEST DUP10 DUP8 PUSH2 0x4A43 JUMP JUMPDEST SWAP2 PUSH2 0x7AD PUSH2 0x7A6 PUSH2 0x432C JUMP JUMPDEST DUP11 DUP9 PUSH2 0x4A43 JUMP JUMPDEST SWAP2 PUSH2 0x7B8 DUP11 DUP9 PUSH2 0x4AA1 JUMP JUMPDEST SWAP1 PUSH2 0x7C1 PUSH2 0x430B JUMP JUMPDEST DUP1 MLOAD SWAP1 DUP8 ADD KECCAK256 DUP2 SUB PUSH2 0x8FF JUMPI POP POP ISZERO PUSH2 0x8A5 JUMPI POP ISZERO PUSH2 0x863 JUMPI JUMPDEST PUSH2 0x7E5 DUP5 DUP5 PUSH2 0x48DE JUMP JUMPDEST PUSH0 MSTORE PUSH1 0x6 DUP2 MSTORE PUSH1 0xFF PUSH1 0x1 DUP9 PUSH0 KECCAK256 ADD SLOAD AND PUSH2 0x805 JUMPI POP POP PUSH2 0x536 SWAP5 POP PUSH2 0x46C9 JUMP JUMPDEST DUP7 MLOAD PUSH3 0x461BCD PUSH1 0xE5 SHL DUP2 MSTORE SWAP2 DUP3 ADD MSTORE PUSH1 0x33 PUSH1 0x24 DUP3 ADD MSTORE PUSH32 0x54617267657420616C726561647920686173206120726F6C652E205573652063 PUSH1 0x44 DUP3 ADD MSTORE PUSH19 0x1A185B99D9549BDB194A0A481A5B9CDD195859 PUSH1 0x6A SHL PUSH1 0x64 DUP3 ADD MSTORE PUSH1 0x84 SWAP2 POP REVERT JUMPDEST DUP7 MLOAD PUSH3 0x461BCD PUSH1 0xE5 SHL DUP2 MSTORE SWAP2 DUP3 ADD DUP2 SWAP1 MSTORE PUSH1 0x24 DUP3 ADD MSTORE PUSH32 0x4F6E6C79206F776E6572732063616E206772616E74206F776E657220726F6C65 PUSH1 0x44 DUP3 ADD MSTORE PUSH1 0x64 SWAP2 POP REVERT JUMPDEST SWAP1 POP PUSH2 0x7DB JUMPI DUP7 MLOAD PUSH3 0x461BCD PUSH1 0xE5 SHL DUP2 MSTORE SWAP2 DUP3 ADD MSTORE PUSH1 0x29 PUSH1 0x24 DUP3 ADD MSTORE PUSH32 0x4F6E6C792061646D696E6973747261746F72732063616E206772616E74206669 PUSH1 0x44 DUP3 ADD MSTORE PUSH9 0x3939BA1037BBB732B9 PUSH1 0xB9 SHL PUSH1 0x64 DUP3 ADD MSTORE PUSH1 0x84 SWAP2 POP REVERT JUMPDEST SWAP1 SWAP2 POP PUSH2 0x90A PUSH2 0x432C JUMP JUMPDEST DUP1 MLOAD SWAP1 DUP7 ADD KECCAK256 DUP2 SUB PUSH2 0x994 JUMPI POP POP DUP2 ISZERO PUSH2 0x98C JUMPI JUMPDEST POP PUSH2 0x7DB JUMPI DUP7 MLOAD PUSH3 0x461BCD PUSH1 0xE5 SHL DUP2 MSTORE SWAP2 DUP3 ADD MSTORE PUSH1 0x3B PUSH1 0x24 DUP3 ADD MSTORE PUSH32 0x4F6E6C79206F776E65727320616E642061646D696E6973747261746F72732063 PUSH1 0x44 DUP3 ADD MSTORE PUSH32 0x616E206772616E742061646D696E6973747261746F7220726F6C650000000000 PUSH1 0x64 DUP3 ADD MSTORE PUSH1 0x84 SWAP2 POP REVERT JUMPDEST SWAP1 POP PUSH0 PUSH2 0x91F JUMP JUMPDEST PUSH2 0x99F SWAP4 SWAP2 SWAP4 PUSH2 0x4103 JUMP JUMPDEST DUP6 DUP2 MLOAD SWAP2 ADD KECCAK256 EQ PUSH2 0x9B3 JUMPI JUMPDEST POP POP POP PUSH2 0x7DB JUMP JUMPDEST DUP1 ISZERO SWAP1 DUP2 PUSH2 0xADB JUMPI JUMPDEST DUP1 ISZERO PUSH2 0xAD4 JUMPI JUMPDEST ISZERO PUSH2 0xA6B JUMPI DUP3 PUSH2 0xA63 JUMPI JUMPDEST POP DUP2 PUSH2 0xA5A JUMPI JUMPDEST POP PUSH2 0x9E3 JUMPI JUMPDEST PUSH0 DUP1 DUP1 PUSH2 0x9AB JUMP JUMPDEST PUSH2 0x9ED DUP7 DUP5 PUSH2 0x4BD7 JUMP JUMPDEST MLOAD PUSH2 0x9DB JUMPI DUP7 MLOAD PUSH3 0x461BCD PUSH1 0xE5 SHL DUP2 MSTORE SWAP2 DUP3 ADD MSTORE PUSH1 0x3C PUSH1 0x24 DUP3 ADD MSTORE PUSH32 0x5375626A656374206D757374206861766520616E2061637469766520726F6C65 PUSH1 0x44 DUP3 ADD MSTORE PUSH32 0x20746F206772616E7420766965776572207065726D697373696F6E7300000000 PUSH1 0x64 DUP3 ADD MSTORE PUSH1 0x84 SWAP2 POP REVERT JUMPDEST SWAP1 POP ISZERO PUSH0 PUSH2 0x9D5 JUMP JUMPDEST SWAP2 POP PUSH0 PUSH2 0x9CE JUMP JUMPDEST DUP10 MLOAD PUSH3 0x461BCD PUSH1 0xE5 SHL DUP2 MSTORE DUP1 DUP7 ADD DUP6 SWAP1 MSTORE PUSH1 0x3E PUSH1 0x24 DUP3 ADD MSTORE PUSH32 0x4F6E6C79206F776E6572732C2061646D696E6973747261746F72732C206F7220 PUSH1 0x44 DUP3 ADD MSTORE PUSH32 0x7375626A656374732063616E206772616E742076696577657220726F6C650000 PUSH1 0x64 DUP3 ADD MSTORE PUSH1 0x84 SWAP1 REVERT JUMPDEST POP DUP3 PUSH2 0x9C3 JUMP JUMPDEST POP DUP2 PUSH2 0x9BC JUMP JUMPDEST PUSH1 0x64 DUP4 DUP4 DUP1 DUP12 MLOAD SWAP3 PUSH3 0x461BCD PUSH1 0xE5 SHL DUP5 MSTORE DUP4 ADD MSTORE PUSH1 0x24 DUP3 ADD MSTORE PUSH32 0x596F752068617665206E6F20726F6C6520666F722074686973207265636F7264 PUSH1 0x44 DUP3 ADD MSTORE REVERT JUMPDEST DUP3 CALLVALUE PUSH2 0x348 JUMPI DUP1 PUSH1 0x3 NOT CALLDATASIZE ADD SLT PUSH2 0x348 JUMPI DUP2 CALLDATALOAD PUSH2 0xB3E PUSH2 0x39CE JUMP JUMPDEST PUSH2 0xB49 DUP3 ISZERO ISZERO PUSH2 0x41D9 JUMP JUMPDEST PUSH1 0x1 PUSH1 0x1 PUSH1 0xA0 SHL SUB AND SWAP3 PUSH2 0xB5E DUP5 ISZERO ISZERO PUSH2 0x4225 JUMP JUMPDEST CALLER PUSH0 MSTORE PUSH1 0x20 SWAP3 PUSH1 0x1 DUP5 MSTORE DUP1 PUSH0 KECCAK256 SLOAD SWAP5 PUSH0 MSTORE DUP1 PUSH0 KECCAK256 SLOAD SWAP4 PUSH2 0xB7F DUP6 ISZERO ISZERO PUSH2 0x3F2A JUMP JUMPDEST PUSH2 0xB89 DUP6 DUP6 PUSH2 0x48DE JUMP JUMPDEST DUP1 PUSH0 MSTORE PUSH1 0x6 DUP3 MSTORE PUSH2 0xBA2 PUSH1 0xFF PUSH1 0x1 DUP6 PUSH0 KECCAK256 ADD SLOAD AND PUSH2 0x42B3 JUMP JUMPDEST DUP1 PUSH0 MSTORE PUSH1 0x6 DUP3 MSTORE PUSH2 0xBB4 DUP4 PUSH0 KECCAK256 PUSH2 0x3D2C JUMP JUMPDEST SWAP4 DUP5 MLOAD DUP4 DUP7 ADD KECCAK256 PUSH2 0xBC3 PUSH2 0x430B JUMP JUMPDEST DUP5 DUP2 MLOAD SWAP2 ADD KECCAK256 DUP2 EQ PUSH2 0xEB4 JUMPI DUP8 DUP10 SUB PUSH2 0xCEC JUMPI JUMPDEST PUSH2 0xBDF PUSH2 0x432C JUMP JUMPDEST DUP5 DUP2 MLOAD SWAP2 ADD KECCAK256 EQ PUSH2 0xC57 JUMPI JUMPDEST POP SWAP1 DUP4 SWAP3 SWAP2 PUSH2 0xC1C PUSH32 0xD05ED2D3FEFF840C2ECECA71791388FD3D19DBBBBCFA97031F534A7DC09FBF1F SWAP6 DUP9 DUP9 PUSH2 0x4912 JUMP JUMPDEST PUSH0 MSTORE PUSH1 0x6 DUP2 MSTORE PUSH1 0x1 DUP3 PUSH0 KECCAK256 ADD PUSH1 0xFF NOT DUP2 SLOAD AND SWAP1 SSTORE PUSH1 0xD DUP2 MSTORE PUSH0 DUP3 DUP2 KECCAK256 SSTORE PUSH2 0xC4C DUP3 MLOAD SWAP4 DUP4 DUP6 SWAP5 DUP6 MSTORE DUP5 ADD SWAP1 PUSH2 0x3DCE JUMP JUMPDEST SWAP1 TIMESTAMP SWAP1 DUP4 ADD MSTORE SUB SWAP1 LOG4 STOP JUMPDEST DUP6 PUSH0 MSTORE PUSH1 0x8 DUP4 MSTORE PUSH1 0x1 DUP5 PUSH0 KECCAK256 SLOAD GT PUSH1 0x7 DUP5 MSTORE DUP5 PUSH0 KECCAK256 SLOAD ISZERO ISZERO DUP2 ISZERO PUSH2 0xCE4 JUMPI JUMPDEST POP PUSH2 0xBEB JUMPI DUP4 MLOAD PUSH3 0x461BCD PUSH1 0xE5 SHL DUP2 MSTORE SWAP1 DUP2 ADD DUP4 SWAP1 MSTORE PUSH1 0x39 PUSH1 0x24 DUP3 ADD MSTORE PUSH32 0x43616E6E6F74207265766F6B65206C6173742061646D696E6973747261746F72 PUSH1 0x44 DUP3 ADD MSTORE PUSH32 0x20776974686F757420616E206F776E65722070726573656E7400000000000000 PUSH1 0x64 DUP3 ADD MSTORE PUSH1 0x84 SWAP1 REVERT JUMPDEST SWAP1 POP DUP10 PUSH2 0xC76 JUMP JUMPDEST PUSH2 0xCFE PUSH2 0xCF7 PUSH2 0x430B JUMP JUMPDEST DUP11 DUP10 PUSH2 0x4A43 JUMP JUMPDEST PUSH2 0xD10 PUSH2 0xD09 PUSH2 0x432C JUMP JUMPDEST DUP12 DUP11 PUSH2 0x4A43 JUMP JUMPDEST DUP5 PUSH0 MSTORE PUSH1 0xD DUP7 MSTORE DUP11 DUP8 PUSH0 KECCAK256 SLOAD EQ SWAP1 PUSH2 0xD26 PUSH2 0x4103 JUMP JUMPDEST DUP1 MLOAD SWAP1 DUP9 ADD KECCAK256 DUP5 SUB PUSH2 0xDC6 JUMPI DUP3 ISZERO PUSH2 0xDBE JUMPI JUMPDEST POP DUP2 ISZERO PUSH2 0xDB6 JUMPI JUMPDEST POP ISZERO PUSH2 0xD4D JUMPI JUMPDEST PUSH2 0xBD7 JUMP JUMPDEST DUP5 MLOAD PUSH3 0x461BCD PUSH1 0xE5 SHL DUP2 MSTORE DUP1 DUP4 ADD DUP6 SWAP1 MSTORE PUSH1 0x3E PUSH1 0x24 DUP3 ADD MSTORE PUSH32 0x4F6E6C79206F776E6572732C2061646D696E6973747261746F72732C206F7220 PUSH1 0x44 DUP3 ADD MSTORE PUSH32 0x746865206772616E7465722063616E207265766F6B6520766965776572730000 PUSH1 0x64 DUP3 ADD MSTORE PUSH1 0x84 SWAP1 REVERT JUMPDEST SWAP1 POP DUP11 PUSH2 0xD41 JUMP JUMPDEST SWAP2 POP DUP12 PUSH2 0xD39 JUMP JUMPDEST DUP3 ISZERO SWAP3 SWAP2 POP DUP3 PUSH2 0xEAC JUMPI JUMPDEST POP ISZERO PUSH2 0xE51 JUMPI ISZERO PUSH2 0xBD7 JUMPI PUSH2 0xDE4 PUSH2 0x432C JUMP JUMPDEST DUP5 DUP2 MLOAD SWAP2 ADD KECCAK256 DUP2 SUB PUSH2 0xD48 JUMPI DUP7 PUSH0 MSTORE PUSH1 0x7 DUP5 MSTORE DUP5 PUSH0 KECCAK256 SLOAD ISZERO PUSH2 0xD48 JUMPI DUP5 MLOAD PUSH3 0x461BCD PUSH1 0xE5 SHL DUP2 MSTORE DUP1 DUP4 ADD DUP6 SWAP1 MSTORE PUSH1 0x25 PUSH1 0x24 DUP3 ADD MSTORE PUSH32 0x4F6E6C79206F776E6572732063616E207265766F6B652061646D696E69737472 PUSH1 0x44 DUP3 ADD MSTORE PUSH5 0x61746F7273 PUSH1 0xD8 SHL PUSH1 0x64 DUP3 ADD MSTORE PUSH1 0x84 SWAP1 REVERT JUMPDEST DUP6 MLOAD PUSH3 0x461BCD PUSH1 0xE5 SHL DUP2 MSTORE DUP1 DUP5 ADD DUP7 SWAP1 MSTORE PUSH1 0x2F PUSH1 0x24 DUP3 ADD MSTORE PUSH32 0x4F6E6C79206F776E65727320616E642061646D696E6973747261746F72732063 PUSH1 0x44 DUP3 ADD MSTORE PUSH15 0x616E207265766F6B6520726F6C6573 PUSH1 0x88 SHL PUSH1 0x64 DUP3 ADD MSTORE PUSH1 0x84 SWAP1 REVERT JUMPDEST SWAP1 POP DUP12 PUSH2 0xDD1 JUMP JUMPDEST DUP5 MLOAD PUSH3 0x461BCD PUSH1 0xE5 SHL DUP2 MSTORE DUP1 DUP4 ADD DUP6 SWAP1 MSTORE PUSH1 0x45 PUSH1 0x24 DUP3 ADD MSTORE PUSH32 0x4F776E6572732063616E6E6F74206265207265766F6B65642E204F776E657220 PUSH1 0x44 DUP3 ADD MSTORE PUSH32 0x6D7573742075736520766F6C756E746172696C794C656176654F776E65727368 PUSH1 0x64 DUP3 ADD MSTORE PUSH5 0x34B8141497 PUSH1 0xD9 SHL PUSH1 0x84 DUP3 ADD MSTORE PUSH1 0xA4 SWAP1 REVERT JUMPDEST SWAP1 POP CALLVALUE PUSH2 0x348 JUMPI PUSH1 0x20 SWAP1 DUP2 PUSH1 0x3 NOT CALLDATASIZE ADD SLT PUSH2 0x348 JUMPI DUP3 SWAP1 CALLDATALOAD PUSH0 MSTORE PUSH1 0x3 DUP3 MSTORE DUP1 PUSH0 KECCAK256 DUP2 MLOAD SWAP3 DUP4 DUP2 DUP4 SLOAD SWAP2 DUP3 DUP2 MSTORE ADD SWAP1 DUP2 SWAP4 PUSH0 MSTORE DUP3 PUSH0 KECCAK256 SWAP1 PUSH0 JUMPDEST DUP2 DUP2 LT PUSH2 0xFBD JUMPI POP POP POP DUP5 PUSH2 0xF79 SWAP2 SUB DUP6 PUSH2 0x3A49 JUMP JUMPDEST DUP3 MLOAD DUP2 DUP2 MSTORE SWAP4 MLOAD DUP2 DUP6 ADD DUP2 SWAP1 MSTORE DUP5 SWAP4 DUP5 ADD SWAP3 SWAP2 PUSH0 JUMPDEST DUP3 DUP2 LT PUSH2 0xF9D JUMPI POP POP POP POP SUB SWAP1 RETURN JUMPDEST DUP4 MLOAD PUSH1 0x1 PUSH1 0x1 PUSH1 0xA0 SHL SUB AND DUP6 MSTORE DUP7 SWAP6 POP SWAP4 DUP2 ADD SWAP4 SWAP3 DUP2 ADD SWAP3 PUSH1 0x1 ADD PUSH2 0xF8E JUMP JUMPDEST DUP3 SLOAD PUSH1 0x1 PUSH1 0x1 PUSH1 0xA0 SHL SUB AND DUP5 MSTORE SWAP3 DUP5 ADD SWAP3 PUSH1 0x1 SWAP3 DUP4 ADD SWAP3 ADD PUSH2 0xF63 JUMP JUMPDEST DUP3 CALLVALUE PUSH2 0x348 JUMPI PUSH1 0x20 CALLDATASIZE PUSH1 0x3 NOT ADD SLT PUSH2 0x348 JUMPI PUSH1 0x20 SWAP2 CALLDATALOAD PUSH0 MSTORE PUSH1 0xD DUP3 MSTORE DUP1 PUSH0 KECCAK256 SLOAD SWAP1 MLOAD SWAP1 DUP2 MSTORE RETURN JUMPDEST DUP3 CALLVALUE PUSH2 0x348 JUMPI PUSH1 0x20 CALLDATASIZE PUSH1 0x3 NOT ADD SLT PUSH2 0x348 JUMPI PUSH1 0x20 SWAP1 PUSH2 0x1026 PUSH2 0x1021 PUSH2 0x39B8 JUMP JUMPDEST PUSH2 0x4B81 JUMP JUMPDEST SWAP1 MLOAD SWAP1 ISZERO ISZERO DUP2 MSTORE RETURN JUMPDEST DUP3 CALLVALUE PUSH2 0x348 JUMPI PUSH2 0x103E CALLDATASIZE PUSH2 0x3CDE JUMP JUMPDEST SWAP2 PUSH2 0x104B PUSH2 0x3E7 CALLER PUSH2 0x45C2 JUMP JUMPDEST CALLER PUSH0 MSTORE PUSH1 0x20 SWAP1 PUSH1 0x1 DUP3 MSTORE DUP1 PUSH0 KECCAK256 SLOAD SWAP5 DUP4 DUP7 EQ DUP1 ISZERO PUSH2 0x118A JUMPI JUMPDEST ISZERO PUSH2 0x114A JUMPI DUP4 PUSH0 MSTORE PUSH1 0xE DUP4 MSTORE DUP2 PUSH0 KECCAK256 DUP6 PUSH0 MSTORE DUP4 MSTORE PUSH1 0xFF DUP3 PUSH0 KECCAK256 SLOAD AND DUP2 DUP2 LT ISZERO PUSH2 0x1137 JUMPI PUSH1 0x2 DUP2 EQ SWAP1 DUP2 ISZERO PUSH2 0x112C JUMPI JUMPDEST POP ISZERO PUSH2 0x10E1 JUMPI POP SWAP1 PUSH32 0x6DF3A6475FAB2EED139F7E469995B04E85BFC5B4B8642587109CB72541F74FAE SWAP2 DUP4 PUSH0 MSTORE PUSH1 0xE DUP3 MSTORE DUP1 PUSH0 KECCAK256 DUP6 PUSH0 MSTORE DUP3 MSTORE DUP1 PUSH0 KECCAK256 PUSH1 0x3 PUSH1 0xFF NOT DUP3 SLOAD AND OR SWAP1 SSTORE MLOAD TIMESTAMP DUP2 MSTORE LOG4 STOP JUMPDEST DUP3 PUSH1 0x84 SWAP3 MLOAD SWAP2 PUSH3 0x461BCD PUSH1 0xE5 SHL DUP4 MSTORE DUP3 ADD MSTORE PUSH1 0x21 PUSH1 0x24 DUP3 ADD MSTORE PUSH32 0x4E6F20616374697665206F722070656E64696E672072656C6174696F6E736869 PUSH1 0x44 DUP3 ADD MSTORE PUSH1 0x7 PUSH1 0xFC SHL PUSH1 0x64 DUP3 ADD MSTORE REVERT JUMPDEST PUSH1 0x1 SWAP2 POP EQ DUP8 PUSH2 0x1093 JUMP JUMPDEST PUSH1 0x21 DUP3 PUSH4 0x4E487B71 PUSH1 0xE0 SHL PUSH0 MSTORE MSTORE PUSH1 0x24 PUSH0 REVERT JUMPDEST DUP3 DUP1 PUSH1 0x64 SWAP4 MLOAD SWAP3 PUSH3 0x461BCD PUSH1 0xE5 SHL DUP5 MSTORE DUP4 ADD MSTORE PUSH1 0x24 DUP3 ADD MSTORE PUSH32 0x4E6F74206120706172747920746F20746869732072656C6174696F6E73686970 PUSH1 0x44 DUP3 ADD MSTORE REVERT JUMPDEST POP DUP5 DUP7 EQ PUSH2 0x1064 JUMP JUMPDEST DUP3 CALLVALUE PUSH2 0x348 JUMPI DUP1 PUSH1 0x3 NOT CALLDATASIZE ADD SLT PUSH2 0x348 JUMPI PUSH2 0x1026 PUSH1 0x20 SWAP3 PUSH2 0x11B2 PUSH2 0x39CE JUMP JUMPDEST SWAP1 CALLDATALOAD PUSH2 0x4585 JUMP JUMPDEST DUP3 CALLVALUE PUSH2 0x348 JUMPI PUSH1 0x20 CALLDATASIZE PUSH1 0x3 NOT ADD SLT PUSH2 0x348 JUMPI PUSH32 0xCE59AD7D6DABE8A7533ED7D9BD07D276A046AC7AC9A8E8E8971DA4B81104A28B PUSH1 0x20 PUSH2 0x11F6 PUSH2 0x39B8 JUMP JUMPDEST PUSH0 SLOAD PUSH1 0x1 PUSH1 0x1 PUSH1 0xA0 SHL SUB SWAP2 SWAP1 PUSH2 0x120F SWAP1 DUP4 AND CALLER EQ PUSH2 0x4125 JUMP JUMPDEST AND SWAP3 PUSH2 0x121C DUP5 ISZERO ISZERO PUSH2 0x44FB JUMP JUMPDEST PUSH1 0xC DUP1 SLOAD PUSH1 0x1 PUSH1 0x1 PUSH1 0xA0 SHL SUB NOT AND DUP6 OR SWAP1 SSTORE MLOAD TIMESTAMP DUP2 MSTORE LOG2 STOP JUMPDEST SWAP1 POP CALLVALUE PUSH2 0x348 JUMPI PUSH1 0x20 SWAP1 PUSH1 0x20 PUSH1 0x3 NOT CALLDATASIZE ADD SLT PUSH2 0x348 JUMPI CALLDATALOAD PUSH0 MSTORE PUSH1 0x7 PUSH1 0x20 MSTORE DUP2 PUSH0 KECCAK256 SWAP2 DUP1 MLOAD SWAP2 DUP3 PUSH1 0x20 DUP6 SLOAD SWAP2 DUP3 DUP2 MSTORE ADD SWAP5 PUSH0 MSTORE PUSH1 0x20 PUSH0 KECCAK256 SWAP2 PUSH0 SWAP1 JUMPDEST DUP3 DUP3 LT PUSH2 0x1287 JUMPI PUSH2 0x5C8 DUP7 DUP7 PUSH2 0x653 DUP3 DUP12 SUB DUP4 PUSH2 0x3A49 JUMP JUMPDEST DUP4 SLOAD DUP8 MSTORE SWAP6 DUP7 ADD SWAP6 PUSH1 0x1 SWAP4 DUP5 ADD SWAP4 SWAP1 SWAP2 ADD SWAP1 PUSH2 0x126F JUMP JUMPDEST DUP3 CALLVALUE PUSH2 0x348 JUMPI PUSH0 CALLDATASIZE PUSH1 0x3 NOT ADD SLT PUSH2 0x348 JUMPI PUSH1 0x20 SWAP1 PUSH1 0x5 SLOAD SWAP1 MLOAD SWAP1 DUP2 MSTORE RETURN JUMPDEST SWAP1 POP CALLVALUE PUSH2 0x348 JUMPI PUSH1 0x20 CALLDATASIZE PUSH1 0x3 NOT ADD SLT PUSH2 0x348 JUMPI PUSH2 0x12D7 PUSH2 0x39B8 JUMP JUMPDEST PUSH0 SLOAD PUSH1 0x1 PUSH1 0x1 PUSH1 0xA0 SHL SUB SWAP2 SWAP1 PUSH2 0x12F0 SWAP1 DUP4 AND CALLER EQ PUSH2 0x4125 JUMP JUMPDEST AND DUP1 PUSH0 MSTORE PUSH1 0x1 SWAP2 DUP3 PUSH1 0x20 MSTORE PUSH2 0x1309 DUP5 PUSH0 KECCAK256 SLOAD ISZERO ISZERO PUSH2 0x415E JUMP JUMPDEST DUP2 PUSH0 MSTORE DUP3 PUSH1 0x20 MSTORE PUSH1 0xFF DUP4 DUP6 PUSH0 KECCAK256 ADD SLOAD AND PUSH2 0x1338 JUMPI POP SWAP2 DUP2 SWAP3 PUSH0 MSTORE DUP2 PUSH1 0x20 MSTORE PUSH0 KECCAK256 ADD SWAP1 PUSH1 0xFF NOT DUP3 SLOAD AND OR SWAP1 SSTORE PUSH0 DUP1 RETURN JUMPDEST PUSH1 0x64 SWAP1 PUSH1 0x20 DUP6 MLOAD SWAP2 PUSH3 0x461BCD PUSH1 0xE5 SHL DUP4 MSTORE DUP3 ADD MSTORE PUSH1 0x15 PUSH1 0x24 DUP3 ADD MSTORE PUSH21 0x57616C6C657420616C726561647920616374697665 PUSH1 0x58 SHL PUSH1 0x44 DUP3 ADD MSTORE REVERT JUMPDEST DUP3 CALLVALUE PUSH2 0x348 JUMPI PUSH2 0x1382 CALLDATASIZE PUSH2 0x3C6B JUMP JUMPDEST SWAP2 SWAP1 SWAP3 PUSH2 0x1391 PUSH2 0x3E7 CALLER PUSH2 0x45C2 JUMP JUMPDEST CALLER PUSH0 MSTORE PUSH1 0x1 SWAP4 PUSH1 0x20 SWAP2 PUSH1 0x1 DUP4 MSTORE DUP4 PUSH0 KECCAK256 SLOAD SWAP3 DUP6 PUSH0 MSTORE PUSH1 0xE DUP2 MSTORE DUP5 PUSH0 KECCAK256 DUP5 PUSH0 MSTORE DUP2 MSTORE DUP5 PUSH0 KECCAK256 SWAP1 DUP6 MLOAD SWAP2 PUSH2 0x13C2 DUP4 PUSH2 0x39E4 JUMP JUMPDEST SLOAD SWAP2 PUSH2 0x13D1 PUSH1 0xFF DUP5 AND DUP3 PUSH2 0x41A2 JUMP JUMPDEST PUSH2 0x13E4 PUSH1 0xFF DUP4 DUP4 ADD SWAP5 PUSH1 0x8 SHR AND DUP5 PUSH2 0x41AE JUMP JUMPDEST MLOAD DUP4 DUP2 LT ISZERO PUSH2 0x14B9 JUMPI PUSH1 0x2 PUSH2 0x13F9 SWAP2 EQ PUSH2 0x4539 JUMP JUMPDEST DUP4 MLOAD PUSH2 0x1410 PUSH2 0x1407 DUP3 PUSH2 0x3A6A JUMP JUMPDEST SWAP8 MLOAD SWAP8 DUP9 PUSH2 0x3A49 JUMP JUMPDEST DUP1 DUP8 MSTORE PUSH2 0x141F PUSH1 0x1F NOT SWAP2 PUSH2 0x3A6A JUMP JUMPDEST ADD PUSH0 JUMPDEST DUP2 DUP2 LT PUSH2 0x14AA JUMPI POP POP POP DUP7 PUSH0 SWAP1 JUMPDEST PUSH2 0x1442 JUMPI JUMPDEST POP POP POP PUSH2 0x536 SWAP5 POP PUSH2 0x464A JUMP JUMPDEST DUP4 MLOAD DUP2 LT ISZERO PUSH2 0x14A5 JUMPI PUSH2 0x1455 DUP2 DUP6 PUSH2 0x40EF JUMP JUMPDEST MLOAD DUP3 MLOAD SWAP1 PUSH1 0x3 DUP3 LT ISZERO PUSH2 0x1492 JUMPI SWAP2 PUSH2 0x1473 DUP11 SWAP6 SWAP5 SWAP4 SWAP3 DUP11 DUP8 SWAP5 PUSH2 0x4B2B JUMP JUMPDEST PUSH2 0x147D DUP3 DUP11 PUSH2 0x40EF JUMP JUMPDEST MSTORE PUSH2 0x1488 DUP2 DUP10 PUSH2 0x40EF JUMP JUMPDEST POP ADD SWAP1 SWAP2 SWAP3 PUSH2 0x1430 JUMP JUMPDEST PUSH1 0x21 DUP6 PUSH4 0x4E487B71 PUSH1 0xE0 SHL PUSH0 MSTORE MSTORE PUSH1 0x24 PUSH0 REVERT JUMPDEST PUSH2 0x1435 JUMP JUMPDEST PUSH1 0x60 DUP9 DUP3 ADD DUP5 ADD MSTORE DUP3 ADD PUSH2 0x1422 JUMP JUMPDEST PUSH1 0x21 DUP5 PUSH4 0x4E487B71 PUSH1 0xE0 SHL PUSH0 MSTORE MSTORE PUSH1 0x24 PUSH0 REVERT JUMPDEST DUP3 CALLVALUE PUSH2 0x348 JUMPI PUSH1 0x20 SWAP1 DUP2 PUSH1 0x3 NOT CALLDATASIZE ADD SLT PUSH2 0x348 JUMPI DUP3 CALLDATALOAD SWAP2 PUSH2 0x14EF PUSH2 0x3E7 CALLER PUSH2 0x45C2 JUMP JUMPDEST CALLER PUSH0 MSTORE PUSH1 0x1 DUP2 MSTORE DUP2 PUSH0 KECCAK256 SLOAD SWAP4 DUP4 PUSH0 MSTORE PUSH1 0xE DUP3 MSTORE DUP3 PUSH0 KECCAK256 DUP6 PUSH0 MSTORE DUP3 MSTORE DUP3 PUSH0 KECCAK256 SWAP1 DUP2 SLOAD SWAP1 PUSH1 0xFF DUP3 AND DUP2 DUP2 LT ISZERO PUSH2 0x1137 JUMPI PUSH1 0x1 SUB PUSH2 0x156E JUMPI POP SWAP2 PUSH2 0x1566 PUSH1 0xFF SWAP3 PUSH1 0x2 PUSH32 0xC5B2E1BD4433EB4E9E181CC803520513D39D918C96BDDEEBCA1224E1C750963D SWAP7 SWAP6 DUP6 NOT AND OR DUP1 SWAP2 SSTORE DUP5 MLOAD SWAP4 DUP5 SWAP2 PUSH1 0x8 SHR AND PUSH2 0x3E76 JUMP JUMPDEST TIMESTAMP SWAP1 DUP3 ADD MSTORE LOG3 STOP JUMPDEST DUP5 MLOAD PUSH3 0x461BCD PUSH1 0xE5 SHL DUP2 MSTORE SWAP1 DUP2 ADD DUP5 SWAP1 MSTORE PUSH1 0x13 PUSH1 0x24 DUP3 ADD MSTORE PUSH19 0x139BC81C195B991A5B99C81C1C9BDC1BDCD85B PUSH1 0x6A SHL PUSH1 0x44 DUP3 ADD MSTORE PUSH1 0x64 SWAP1 REVERT JUMPDEST DUP3 CALLVALUE PUSH2 0x348 JUMPI PUSH0 CALLDATASIZE PUSH1 0x3 NOT ADD SLT PUSH2 0x348 JUMPI DUP1 MLOAD PUSH2 0x5C8 SWAP2 PUSH2 0x15C7 DUP3 PUSH2 0x39E4 JUMP JUMPDEST PUSH1 0x5 DUP3 MSTORE PUSH5 0x352E302E3 PUSH1 0xDC SHL PUSH1 0x20 DUP4 ADD MSTORE MLOAD SWAP2 DUP3 SWAP2 PUSH1 0x20 DUP4 MSTORE PUSH1 0x20 DUP4 ADD SWAP1 PUSH2 0x3DCE JUMP JUMPDEST SWAP1 POP CALLVALUE PUSH2 0x348 JUMPI PUSH2 0x15FB CALLDATASIZE PUSH2 0x3C4C JUMP JUMPDEST SWAP2 SWAP1 SWAP3 PUSH2 0x160A PUSH2 0x3E7 CALLER PUSH2 0x45C2 JUMP JUMPDEST CALLER PUSH0 MSTORE PUSH1 0x1 PUSH1 0x20 MSTORE DUP1 PUSH0 KECCAK256 SLOAD SWAP3 DUP4 PUSH0 MSTORE PUSH1 0xE PUSH1 0x20 MSTORE DUP2 PUSH0 KECCAK256 DUP6 PUSH0 MSTORE PUSH1 0x20 MSTORE DUP2 PUSH0 KECCAK256 DUP1 SLOAD PUSH1 0xFF DUP2 AND DUP6 DUP2 LT ISZERO PUSH2 0x1706 JUMPI SWAP1 PUSH2 0x1648 PUSH1 0x2 PUSH1 0xFF SWAP4 EQ PUSH2 0x4539 JUMP JUMPDEST PUSH1 0x8 SHR AND SWAP4 PUSH1 0x3 DUP4 LT ISZERO PUSH2 0x16F3 JUMPI PUSH1 0x3 DUP6 LT ISZERO PUSH2 0x16F3 JUMPI DUP3 DUP6 EQ PUSH2 0x16B0 JUMPI POP SWAP2 PUSH2 0x1566 DUP3 PUSH2 0x169A PUSH32 0xB36EC3C738EF8ECD9180ADDC815304762374B76E91C2A321831D9906EA119ADE SWAP7 SWAP5 PUSH1 0x60 SWAP7 PUSH2 0x41BA JUMP JUMPDEST PUSH2 0x16A6 DUP4 MLOAD DUP1 SWAP6 PUSH2 0x3E76 JUMP JUMPDEST PUSH1 0x20 DUP5 ADD SWAP1 PUSH2 0x3E76 JUMP JUMPDEST PUSH1 0x64 SWAP1 PUSH1 0x20 DUP6 MLOAD SWAP2 PUSH3 0x461BCD PUSH1 0xE5 SHL DUP4 MSTORE DUP3 ADD MSTORE PUSH1 0x18 PUSH1 0x24 DUP3 ADD MSTORE PUSH32 0x416C72656164792074686973207472757374206C6576656C0000000000000000 PUSH1 0x44 DUP3 ADD MSTORE REVERT JUMPDEST PUSH1 0x21 SWAP1 PUSH4 0x4E487B71 PUSH1 0xE0 SHL PUSH0 MSTORE MSTORE PUSH1 0x24 PUSH0 REVERT JUMPDEST PUSH1 0x21 DUP7 PUSH4 0x4E487B71 PUSH1 0xE0 SHL PUSH0 MSTORE MSTORE PUSH1 0x24 PUSH0 REVERT JUMPDEST DUP3 CALLVALUE PUSH2 0x348 JUMPI PUSH1 0x20 SWAP1 PUSH2 0x1734 PUSH2 0x172E CALLDATASIZE PUSH2 0x3CDE JUMP JUMPDEST SWAP1 PUSH2 0x48DE JUMP JUMPDEST PUSH0 MSTORE PUSH1 0xD DUP3 MSTORE DUP1 PUSH0 KECCAK256 SLOAD SWAP1 MLOAD SWAP1 DUP2 MSTORE RETURN JUMPDEST DUP3 CALLVALUE PUSH2 0x348 JUMPI PUSH1 0x20 CALLDATASIZE PUSH1 0x3 NOT ADD SLT PUSH2 0x348 JUMPI DUP2 CALLDATALOAD DUP3 SLOAD DUP2 LT ISZERO PUSH2 0x348 JUMPI PUSH1 0x20 SWAP3 PUSH0 MSTORE PUSH32 0x8A35ACFBC15FF81A39AE7D344FD709F28E8600B4AA8C65C6B64BFE7FE36BD19B ADD SLOAD SWAP1 MLOAD SWAP1 DUP2 MSTORE RETURN JUMPDEST DUP3 CALLVALUE PUSH2 0x348 JUMPI PUSH2 0x17A0 CALLDATASIZE PUSH2 0x3CDE JUMP JUMPDEST SWAP1 PUSH0 MSTORE PUSH1 0xE PUSH1 0x20 MSTORE DUP2 PUSH0 KECCAK256 SWAP1 PUSH0 MSTORE PUSH1 0x20 MSTORE DUP1 PUSH0 KECCAK256 SWAP1 DUP1 MLOAD SWAP2 PUSH2 0x17C1 DUP4 PUSH2 0x39E4 JUMP JUMPDEST SLOAD SWAP2 PUSH2 0x17D0 PUSH1 0xFF DUP5 AND DUP3 PUSH2 0x41A2 JUMP JUMPDEST PUSH2 0x17E4 PUSH1 0xFF PUSH1 0x20 DUP4 ADD SWAP5 PUSH1 0x8 SHR AND DUP5 PUSH2 0x41AE JUMP JUMPDEST MLOAD SWAP2 DUP4 DUP4 LT ISZERO PUSH2 0x14B9 JUMPI MLOAD SWAP3 PUSH1 0x3 DUP5 LT ISZERO PUSH2 0x16F3 JUMPI POP PUSH2 0x5C8 SWAP1 MLOAD SWAP3 DUP4 SWAP3 DUP4 PUSH2 0x3E83 JUMP JUMPDEST DUP3 CALLVALUE PUSH2 0x348 JUMPI DUP1 PUSH1 0x3 NOT CALLDATASIZE ADD SLT PUSH2 0x348 JUMPI DUP2 CALLDATALOAD SWAP1 PUSH1 0x24 CALLDATALOAD PUSH1 0x6 DUP2 LT ISZERO PUSH2 0x348 JUMPI PUSH2 0x183C PUSH1 0x1 DUP1 PUSH1 0xA0 SHL SUB PUSH0 SLOAD AND CALLER EQ PUSH2 0x4125 JUMP JUMPDEST DUP3 PUSH0 MSTORE PUSH1 0x20 PUSH1 0x2 DUP2 MSTORE PUSH1 0xFF DUP4 PUSH0 KECCAK256 SLOAD AND PUSH1 0x6 DUP2 LT ISZERO PUSH2 0x1706 JUMPI ISZERO PUSH2 0x190E JUMPI DUP4 PUSH0 MSTORE PUSH1 0x2 DUP2 MSTORE PUSH1 0xFF DUP4 PUSH0 KECCAK256 SLOAD AND SWAP5 PUSH1 0x6 DUP7 LT ISZERO PUSH2 0x16F3 JUMPI DUP3 DUP7 EQ PUSH2 0x18D7 JUMPI POP SWAP1 PUSH2 0x18AA SWAP2 DUP5 PUSH0 MSTORE PUSH1 0x2 DUP2 MSTORE DUP4 PUSH0 KECCAK256 PUSH1 0xFF NOT DUP2 SLOAD AND PUSH1 0xFF DUP5 AND OR SWAP1 SSTORE PUSH2 0x18A2 DUP5 MLOAD DUP1 SWAP8 PUSH2 0x3E55 JUMP JUMPDEST DUP6 ADD SWAP1 PUSH2 0x3E55 JUMP JUMPDEST TIMESTAMP SWAP1 DUP4 ADD MSTORE PUSH32 0xF6277C6EE46649823DB9A5C531DB3112B4340C67179CAE1932BA3420DCC37CC7 PUSH1 0x60 CALLER SWAP4 LOG3 STOP JUMPDEST PUSH1 0x64 SWAP2 DUP5 MLOAD SWAP2 PUSH3 0x461BCD PUSH1 0xE5 SHL DUP4 MSTORE DUP3 ADD MSTORE PUSH1 0x13 PUSH1 0x24 DUP3 ADD MSTORE PUSH19 0x416C7265616479207468697320737461747573 PUSH1 0x68 SHL PUSH1 0x44 DUP3 ADD MSTORE REVERT JUMPDEST DUP5 PUSH1 0x64 SWAP2 DUP5 MLOAD SWAP2 PUSH3 0x461BCD PUSH1 0xE5 SHL DUP4 MSTORE DUP3 ADD MSTORE PUSH1 0x13 PUSH1 0x24 DUP3 ADD MSTORE PUSH19 0x155CD95C881B9BDD081C9959DA5CDD195C9959 PUSH1 0x6A SHL PUSH1 0x44 DUP3 ADD MSTORE REVERT JUMPDEST DUP3 CALLVALUE PUSH2 0x348 JUMPI PUSH2 0x1955 CALLDATASIZE PUSH2 0x3CDE JUMP JUMPDEST SWAP2 SWAP1 PUSH0 MSTORE PUSH1 0x3 PUSH1 0x20 MSTORE DUP1 PUSH0 KECCAK256 DUP1 SLOAD DUP4 LT ISZERO PUSH2 0x348 JUMPI PUSH1 0x20 SWAP3 PUSH2 0x1976 SWAP2 PUSH2 0x3E2C JUMP JUMPDEST PUSH1 0x1 DUP1 PUSH1 0xA0 SHL SUB SWAP2 SLOAD SWAP1 PUSH1 0x3 SHL SHR AND SWAP1 MLOAD SWAP1 DUP2 MSTORE RETURN JUMPDEST DUP3 CALLVALUE PUSH2 0x348 JUMPI PUSH2 0x199B CALLDATASIZE PUSH2 0x3CDE JUMP JUMPDEST SWAP2 SWAP1 PUSH0 MSTORE PUSH1 0x9 PUSH1 0x20 MSTORE DUP1 PUSH0 KECCAK256 DUP1 SLOAD DUP4 LT ISZERO PUSH2 0x348 JUMPI PUSH1 0x20 SWAP3 PUSH2 0x33A SWAP2 PUSH2 0x3E2C JUMP JUMPDEST DUP3 CALLVALUE PUSH2 0x348 JUMPI PUSH1 0x20 CALLDATASIZE PUSH1 0x3 NOT ADD SLT PUSH2 0x348 JUMPI PUSH1 0x60 SWAP2 CALLDATALOAD PUSH0 MSTORE PUSH1 0x7 PUSH1 0x20 MSTORE DUP1 PUSH0 KECCAK256 SLOAD SWAP1 PUSH1 0x8 PUSH1 0x20 MSTORE DUP1 PUSH0 KECCAK256 SLOAD SWAP1 PUSH1 0x9 PUSH1 0x20 MSTORE DUP1 PUSH0 KECCAK256 SLOAD SWAP2 DUP2 MLOAD SWAP4 DUP5 MSTORE PUSH1 0x20 DUP5 ADD MSTORE DUP3 ADD MSTORE RETURN JUMPDEST DUP3 CALLVALUE PUSH2 0x348 JUMPI PUSH1 0x20 CALLDATASIZE PUSH1 0x3 NOT ADD SLT PUSH2 0x348 JUMPI PUSH1 0x1 PUSH1 0x1 PUSH1 0xA0 SHL SUB PUSH2 0x1A23 PUSH2 0x39B8 JUMP JUMPDEST AND PUSH0 MSTORE PUSH1 0x1 PUSH1 0x20 MSTORE DUP1 PUSH0 KECCAK256 PUSH1 0xFF PUSH1 0x1 DUP3 SLOAD SWAP3 ADD SLOAD AND DUP3 MLOAD SWAP2 DUP3 MSTORE ISZERO ISZERO PUSH1 0x20 DUP3 ADD MSTORE RETURN JUMPDEST DUP3 CALLVALUE PUSH2 0x348 JUMPI PUSH2 0x1A55 CALLDATASIZE PUSH2 0x3CDE JUMP JUMPDEST SWAP2 SWAP1 PUSH0 MSTORE PUSH1 0x8 PUSH1 0x20 MSTORE DUP1 PUSH0 KECCAK256 DUP1 SLOAD DUP4 LT ISZERO PUSH2 0x348 JUMPI PUSH1 0x20 SWAP3 PUSH2 0x33A SWAP2 PUSH2 0x3E2C JUMP JUMPDEST SWAP1 POP CALLVALUE PUSH2 0x348 JUMPI PUSH0 CALLDATASIZE PUSH1 0x3 NOT ADD SLT PUSH2 0x348 JUMPI PUSH32 0xF0C57E16840DF040F15088DC2F81FE391C3923BEC73E23A9662EFC9C229C6A00 SWAP1 DUP2 SLOAD PUSH1 0xFF DUP2 DUP6 SHR AND ISZERO SWAP2 PUSH1 0x1 PUSH1 0x1 PUSH1 0x40 SHL SUB DUP3 AND DUP1 ISZERO SWAP1 DUP2 PUSH2 0x1B8B JUMPI JUMPDEST PUSH1 0x1 EQ SWAP1 DUP2 PUSH2 0x1B81 JUMPI JUMPDEST ISZERO SWAP1 DUP2 PUSH2 0x1B78 JUMPI JUMPDEST POP PUSH2 0x1B6A JUMPI POP PUSH8 0xFFFFFFFFFFFFFFFF NOT DUP2 AND PUSH1 0x1 OR DUP4 SSTORE DUP2 PUSH2 0x1B4B JUMPI JUMPDEST POP PUSH0 DUP1 SLOAD PUSH1 0x1 PUSH1 0x1 PUSH1 0xA0 SHL SUB NOT AND CALLER OR SWAP1 SSTORE PUSH2 0x1B0E JUMPI STOP JUMPDEST DUP1 SLOAD PUSH9 0xFF0000000000000000 NOT AND SWAP1 SSTORE MLOAD PUSH1 0x1 DUP2 MSTORE PUSH32 0xC7F505B2F371AE2175EE4913F4499E1F2633A7B5936321EED1CDAEB6115181D2 SWAP1 PUSH1 0x20 SWAP1 LOG1 STOP JUMPDEST PUSH9 0xFFFFFFFFFFFFFFFFFF NOT AND PUSH9 0x10000000000000001 OR DUP3 SSTORE PUSH0 PUSH2 0x1AF6 JUMP JUMPDEST DUP5 MLOAD PUSH4 0xF92EE8A9 PUSH1 0xE0 SHL DUP2 MSTORE REVERT JUMPDEST SWAP1 POP ISZERO PUSH0 PUSH2 0x1AD9 JUMP JUMPDEST ADDRESS EXTCODESIZE ISZERO SWAP2 POP PUSH2 0x1AD1 JUMP JUMPDEST DUP5 SWAP2 POP PUSH2 0x1AC7 JUMP JUMPDEST DUP3 CALLVALUE PUSH2 0x348 JUMPI PUSH2 0x5C8 SWAP1 PUSH2 0x1BA6 CALLDATASIZE PUSH2 0x3CDE JUMP JUMPDEST SWAP1 PUSH0 MSTORE PUSH1 0xE PUSH1 0x20 MSTORE DUP2 PUSH0 KECCAK256 SWAP1 PUSH0 MSTORE PUSH1 0x20 MSTORE DUP1 PUSH0 KECCAK256 SLOAD SWAP1 MLOAD SWAP2 DUP2 PUSH1 0xFF DUP1 DUP6 SWAP5 PUSH1 0x8 SHR AND SWAP2 AND DUP4 PUSH2 0x3E83 JUMP JUMPDEST DUP3 CALLVALUE PUSH2 0x348 JUMPI PUSH0 CALLDATASIZE PUSH1 0x3 NOT ADD SLT PUSH2 0x348 JUMPI PUSH1 0x20 SWAP1 PUSH1 0xB SLOAD SWAP1 MLOAD SWAP1 DUP2 MSTORE RETURN JUMPDEST DUP3 CALLVALUE PUSH2 0x348 JUMPI PUSH1 0x20 CALLDATASIZE PUSH1 0x3 NOT ADD SLT PUSH2 0x348 JUMPI PUSH1 0x20 SWAP1 PUSH2 0x1C0B PUSH2 0x39B8 JUMP JUMPDEST PUSH0 SLOAD SWAP2 SWAP1 PUSH1 0x1 PUSH1 0x1 PUSH1 0xA0 SHL SUB DUP1 DUP5 AND SWAP2 PUSH32 0x38DF5FA0F7FEF0D515CA1F5388CB5790AC5885D5FCA8D05D9F943E563C33A4B3 SWAP2 SWAP1 PUSH2 0x1C49 CALLER DUP6 EQ PUSH2 0x4125 JUMP JUMPDEST AND SWAP5 DUP6 SWAP4 PUSH2 0x1C58 DUP6 ISZERO ISZERO PUSH2 0x44FB JUMP JUMPDEST MLOAD TIMESTAMP DUP2 MSTORE LOG3 PUSH1 0x1 PUSH1 0x1 PUSH1 0xA0 SHL SUB NOT AND OR PUSH0 SSTORE STOP JUMPDEST SWAP1 POP CALLVALUE PUSH2 0x348 JUMPI PUSH2 0x1C7C CALLDATASIZE PUSH2 0x3C9C JUMP JUMPDEST SWAP4 SWAP1 SWAP3 PUSH1 0x1 DUP1 PUSH1 0xA0 SHL SUB PUSH2 0x1C94 DUP2 PUSH0 SLOAD AND CALLER EQ PUSH2 0x4125 JUMP JUMPDEST PUSH2 0x1C9F DUP5 ISZERO ISZERO PUSH2 0x41D9 JUMP JUMPDEST DUP5 AND PUSH2 0x1CAC DUP2 ISZERO ISZERO PUSH2 0x4427 JUMP JUMPDEST PUSH2 0x1CB8 PUSH2 0x72F DUP8 PUSH2 0x49EB JUMP JUMPDEST PUSH0 MSTORE PUSH1 0x1 PUSH1 0x20 SWAP2 DUP2 DUP4 MSTORE PUSH2 0x1CDA DUP5 PUSH0 KECCAK256 SLOAD SWAP7 PUSH2 0x1CD5 DUP9 ISZERO ISZERO PUSH2 0x415E JUMP JUMPDEST PUSH2 0x45C2 JUMP JUMPDEST ISZERO PUSH2 0x1F7B JUMPI DUP5 PUSH0 MSTORE PUSH1 0x7 DUP4 MSTORE DUP4 PUSH0 KECCAK256 SLOAD ISZERO DUP1 PUSH2 0x1F6C JUMPI JUMPDEST ISZERO PUSH2 0x1F29 JUMPI PUSH2 0x1D00 DUP7 DUP7 PUSH2 0x48DE JUMP JUMPDEST SWAP2 DUP3 PUSH0 MSTORE PUSH1 0x6 DUP5 MSTORE DUP5 PUSH0 KECCAK256 SWAP3 PUSH2 0x1D15 DUP5 PUSH2 0x3D2C JUMP JUMPDEST SWAP3 PUSH1 0xFF DUP4 DUP6 MLOAD ISZERO SWAP7 ADD SLOAD AND SWAP3 DUP8 MLOAD SWAP2 PUSH2 0x1D2D DUP4 PUSH2 0x39E4 JUMP JUMPDEST DUP12 DUP4 MSTORE DUP8 DUP4 ADD SWAP1 DUP3 DUP3 MSTORE DUP5 PUSH0 MSTORE PUSH1 0x6 DUP10 MSTORE DUP10 PUSH0 KECCAK256 SWAP4 MLOAD DUP1 MLOAD SWAP2 PUSH1 0x1 PUSH1 0x1 PUSH1 0x40 SHL SUB DUP4 GT PUSH2 0x1F16 JUMPI POP PUSH2 0x1D5F DUP6 SLOAD PUSH2 0x3CF4 JUMP JUMPDEST PUSH1 0x1F DUP2 GT PUSH2 0x1ED0 JUMPI JUMPDEST POP DUP10 SWAP1 PUSH1 0x1F DUP4 GT PUSH1 0x1 EQ PUSH2 0x1E69 JUMPI PUSH2 0x1DAF SWAP6 SWAP5 SWAP4 SWAP3 SWAP2 PUSH0 SWAP2 DUP4 PUSH2 0x1E5E JUMPI JUMPDEST POP POP PUSH0 NOT PUSH1 0x3 DUP4 SWAP1 SHL SHR NOT AND SWAP1 DUP4 SHL OR DUP4 SSTORE JUMPDEST MLOAD ISZERO ISZERO SWAP2 ADD SWAP1 PUSH1 0xFF DUP1 NOT DUP4 SLOAD AND SWAP2 ISZERO ISZERO AND OR SWAP1 SSTORE JUMP JUMPDEST PUSH0 MSTORE PUSH1 0xD DUP5 MSTORE PUSH0 DUP6 DUP2 KECCAK256 SSTORE ISZERO PUSH0 EQ PUSH2 0x1E31 JUMPI POP SWAP2 DUP6 SWAP2 PUSH32 0xF9D17EB1340AB78960B594FF8BED1349985B800EE21199C6D5EA4A67454593AD SWAP4 PUSH2 0x1DF3 PUSH0 SWAP9 DUP9 DUP9 PUSH2 0x4C2E JUMP JUMPDEST PUSH2 0x1E0B JUMPI JUMPDEST PUSH2 0xC4C DUP3 MLOAD SWAP4 DUP4 DUP6 SWAP5 DUP6 MSTORE DUP5 ADD SWAP1 PUSH2 0x3DCE JUMP JUMPDEST DUP6 DUP8 MSTORE PUSH1 0xA DUP2 MSTORE PUSH2 0x1E1E DUP6 DUP4 DUP10 KECCAK256 PUSH2 0x4091 JUMP JUMPDEST PUSH2 0x1E29 PUSH1 0xB SLOAD PUSH2 0x40CD JUMP JUMPDEST PUSH1 0xB SSTORE PUSH2 0x1DF8 JUMP JUMPDEST SWAP6 SWAP5 SWAP4 SWAP3 POP POP DUP5 MLOAD DUP2 DUP7 ADD KECCAK256 SWAP1 DUP5 MLOAD SWAP1 DUP6 ADD KECCAK256 SUB PUSH2 0x1E4B JUMPI STOP JUMPDEST PUSH2 0x1E59 PUSH2 0x536 SWAP5 DUP4 DUP4 PUSH2 0x4912 JUMP JUMPDEST PUSH2 0x4C2E JUMP JUMPDEST ADD MLOAD SWAP1 POP PUSH0 DUP1 PUSH2 0x1D86 JUMP JUMPDEST SWAP1 PUSH1 0x1F NOT DUP4 AND SWAP2 DUP7 PUSH0 MSTORE DUP12 PUSH0 KECCAK256 SWAP3 PUSH0 JUMPDEST DUP14 DUP3 DUP3 LT PUSH2 0x1EBC JUMPI POP POP SWAP2 DUP7 SWAP6 SWAP5 SWAP3 SWAP2 DUP4 PUSH2 0x1DAF SWAP10 SWAP9 SWAP6 SWAP4 LT PUSH2 0x1EA4 JUMPI JUMPDEST POP POP POP DUP2 SHL ADD DUP4 SSTORE PUSH2 0x1D99 JUMP JUMPDEST ADD MLOAD PUSH0 NOT PUSH1 0xF8 DUP5 PUSH1 0x3 SHL AND SHR NOT AND SWAP1 SSTORE PUSH0 DUP1 DUP1 PUSH2 0x1E97 JUMP JUMPDEST DUP4 DUP6 ADD MLOAD DUP7 SSTORE SWAP5 DUP9 ADD SWAP5 SWAP4 DUP5 ADD SWAP4 ADD PUSH2 0x1E79 JUMP JUMPDEST DUP6 PUSH0 MSTORE DUP11 PUSH0 KECCAK256 PUSH1 0x1F DUP5 ADD PUSH1 0x5 SHR DUP2 ADD SWAP2 DUP13 DUP6 LT PUSH2 0x1F0C JUMPI JUMPDEST PUSH1 0x1F ADD PUSH1 0x5 SHR ADD SWAP1 DUP6 SWAP1 JUMPDEST DUP3 DUP2 LT PUSH2 0x1F01 JUMPI POP POP PUSH2 0x1D68 JUMP JUMPDEST PUSH0 DUP2 SSTORE ADD DUP6 SWAP1 PUSH2 0x1EF3 JUMP JUMPDEST SWAP1 SWAP2 POP DUP2 SWAP1 PUSH2 0x1EE8 JUMP JUMPDEST PUSH1 0x41 SWAP1 PUSH4 0x4E487B71 PUSH1 0xE0 SHL PUSH0 MSTORE MSTORE PUSH1 0x24 PUSH0 REVERT JUMPDEST DUP4 MLOAD PUSH3 0x461BCD PUSH1 0xE5 SHL DUP2 MSTORE SWAP1 DUP2 ADD DUP4 SWAP1 MSTORE PUSH1 0x1A PUSH1 0x24 DUP3 ADD MSTORE PUSH32 0x5265636F726420616C726561647920696E697469616C697A6564000000000000 PUSH1 0x44 DUP3 ADD MSTORE PUSH1 0x64 SWAP1 REVERT JUMPDEST POP PUSH1 0x8 DUP4 MSTORE DUP4 PUSH0 KECCAK256 SLOAD ISZERO PUSH2 0x1CF1 JUMP JUMPDEST DUP4 MLOAD PUSH3 0x461BCD PUSH1 0xE5 SHL DUP2 MSTORE SWAP1 DUP2 ADD DUP4 SWAP1 MSTORE PUSH1 0x18 PUSH1 0x24 DUP3 ADD MSTORE PUSH32 0x4D75737420626520616E20616374697665206D656D6265720000000000000000 PUSH1 0x44 DUP3 ADD MSTORE PUSH1 0x64 SWAP1 REVERT JUMPDEST DUP3 CALLVALUE PUSH2 0x348 JUMPI DUP1 PUSH1 0x3 NOT CALLDATASIZE ADD SLT PUSH2 0x348 JUMPI PUSH1 0x1 PUSH1 0x1 PUSH1 0x40 SHL SUB SWAP1 DUP3 CALLDATALOAD DUP3 DUP2 GT PUSH2 0x348 JUMPI CALLDATASIZE PUSH1 0x23 DUP3 ADD SLT ISZERO PUSH2 0x348 JUMPI DUP1 DUP5 ADD CALLDATALOAD SWAP3 DUP4 GT PUSH2 0x348 JUMPI PUSH1 0x24 PUSH1 0x5 SWAP5 CALLDATASIZE PUSH1 0x24 DUP7 PUSH1 0x5 SHL DUP6 ADD ADD GT PUSH2 0x348 JUMPI PUSH0 SLOAD PUSH1 0x1 PUSH1 0x1 PUSH1 0xA0 SHL SUB SWAP7 PUSH1 0x24 CALLDATALOAD SWAP6 SWAP2 PUSH2 0x2028 SWAP1 DUP10 AND CALLER EQ PUSH2 0x4125 JUMP JUMPDEST DUP7 ISZERO PUSH2 0x2183 JUMPI PUSH2 0x2039 DUP7 ISZERO ISZERO PUSH2 0x446C JUMP JUMPDEST DUP6 PUSH0 MSTORE PUSH1 0x2 SWAP4 PUSH1 0x20 SWAP4 PUSH1 0x2 DUP6 MSTORE PUSH1 0xFF DUP5 PUSH0 KECCAK256 SLOAD AND SWAP1 PUSH1 0x6 DUP3 LT ISZERO PUSH2 0x16F3 JUMPI POP ISZERO SWAP6 PUSH0 JUMPDEST DUP10 DUP2 LT PUSH2 0x2065 JUMPI STOP JUMPDEST DUP3 DUP2 DUP6 SHL DUP4 ADD ADD CALLDATALOAD SWAP1 DUP12 DUP3 AND SWAP2 DUP3 DUP2 SUB PUSH2 0x348 JUMPI DUP3 PUSH2 0x20EB DUP13 SWAP3 PUSH2 0x208C PUSH1 0x1 SWAP7 ISZERO ISZERO PUSH2 0x4427 JUMP JUMPDEST DUP3 PUSH0 MSTORE PUSH2 0x20DC DUP7 DUP1 DUP14 MSTORE PUSH2 0x20A3 DUP13 PUSH0 KECCAK256 SLOAD ISZERO PUSH2 0x44AF JUMP JUMPDEST DUP12 MLOAD SWAP1 PUSH2 0x20AF DUP3 PUSH2 0x39E4 JUMP JUMPDEST DUP7 DUP3 MSTORE DUP14 DUP2 DUP2 DUP5 ADD SWAP2 DUP2 DUP4 MSTORE DUP9 PUSH0 MSTORE MSTORE DUP14 PUSH0 KECCAK256 SWAP3 MLOAD DUP4 SSTORE MLOAD ISZERO ISZERO SWAP2 ADD SWAP1 PUSH1 0xFF DUP1 NOT DUP4 SLOAD AND SWAP2 ISZERO ISZERO AND OR SWAP1 SSTORE JUMP JUMPDEST DUP4 PUSH0 MSTORE PUSH1 0x3 DUP12 MSTORE DUP10 PUSH0 KECCAK256 PUSH2 0x400F JUMP JUMPDEST DUP3 ISZERO DUP1 PUSH2 0x217C JUMPI JUMPDEST ISZERO PUSH2 0x214F JUMPI DUP2 PUSH0 MSTORE DUP10 DUP10 MSTORE DUP8 PUSH0 KECCAK256 DUP11 PUSH1 0xFF NOT DUP3 SLOAD AND OR SWAP1 SSTORE PUSH2 0x2114 DUP3 PUSH2 0x404A JUMP JUMPDEST PUSH2 0x211E DUP8 SLOAD PUSH2 0x40CD JUMP JUMPDEST DUP8 SSTORE PUSH32 0x39D132591EE0696DE49AB564E4A90E430C006561917DB731A2A614DD2D245591 DUP10 DUP10 MLOAD TIMESTAMP DUP2 MSTORE LOG3 JUMPDEST ADD PUSH2 0x205C JUMP JUMPDEST PUSH32 0x1CC138F50384BE7770A8E4A34EECAA0D0C718BFAA1641AF49DB32532E4A5B910 DUP10 DUP10 MLOAD TIMESTAMP DUP2 MSTORE LOG3 PUSH2 0x2149 JUMP JUMPDEST POP DUP11 PUSH2 0x20F3 JUMP JUMPDEST DUP2 MLOAD PUSH3 0x461BCD PUSH1 0xE5 SHL DUP2 MSTORE PUSH1 0x20 DUP2 DUP6 ADD MSTORE PUSH1 0x13 PUSH1 0x24 DUP3 ADD MSTORE PUSH19 0x139BC81DD85B1B195D1CC81C1C9BDD9A591959 PUSH1 0x6A SHL PUSH1 0x44 DUP3 ADD MSTORE PUSH1 0x64 SWAP1 REVERT JUMPDEST SWAP1 POP CALLVALUE PUSH2 0x348 JUMPI PUSH1 0x20 SWAP1 PUSH1 0x20 PUSH1 0x3 NOT CALLDATASIZE ADD SLT PUSH2 0x348 JUMPI CALLDATALOAD PUSH0 MSTORE PUSH1 0xA PUSH1 0x20 MSTORE DUP2 PUSH0 KECCAK256 SWAP2 DUP1 MLOAD SWAP2 DUP3 PUSH1 0x20 DUP6 SLOAD SWAP2 DUP3 DUP2 MSTORE ADD SWAP5 PUSH0 MSTORE PUSH1 0x20 PUSH0 KECCAK256 SWAP2 PUSH0 SWAP1 JUMPDEST DUP3 DUP3 LT PUSH2 0x220E JUMPI PUSH2 0x5C8 DUP7 DUP7 PUSH2 0x653 DUP3 DUP12 SUB DUP4 PUSH2 0x3A49 JUMP JUMPDEST DUP4 SLOAD DUP8 MSTORE SWAP6 DUP7 ADD SWAP6 PUSH1 0x1 SWAP4 DUP5 ADD SWAP4 SWAP1 SWAP2 ADD SWAP1 PUSH2 0x21F6 JUMP JUMPDEST DUP3 CALLVALUE PUSH2 0x348 JUMPI PUSH1 0x20 SWAP1 PUSH2 0x1026 PUSH2 0x223A CALLDATASIZE PUSH2 0x3CDE JUMP JUMPDEST SWAP1 PUSH2 0x4AA1 JUMP JUMPDEST DUP3 CALLVALUE PUSH2 0x348 JUMPI PUSH2 0x224F CALLDATASIZE PUSH2 0x3CDE JUMP JUMPDEST SWAP2 SWAP1 PUSH0 MSTORE PUSH1 0x7 PUSH1 0x20 MSTORE DUP1 PUSH0 KECCAK256 DUP1 SLOAD DUP4 LT ISZERO PUSH2 0x348 JUMPI PUSH1 0x20 SWAP3 PUSH2 0x33A SWAP2 PUSH2 0x3E2C JUMP JUMPDEST DUP3 CALLVALUE PUSH2 0x348 JUMPI PUSH2 0x227F CALLDATASIZE PUSH2 0x3CDE JUMP JUMPDEST SWAP1 PUSH0 MSTORE PUSH1 0xE PUSH1 0x20 MSTORE DUP2 PUSH0 KECCAK256 SWAP1 PUSH0 MSTORE PUSH1 0x20 MSTORE DUP1 PUSH0 KECCAK256 SWAP1 DUP1 MLOAD SWAP2 PUSH2 0x22A0 DUP4 PUSH2 0x39E4 JUMP JUMPDEST SLOAD SWAP2 PUSH2 0x22AF PUSH1 0xFF DUP5 AND DUP3 PUSH2 0x41A2 JUMP JUMPDEST PUSH2 0x22C3 PUSH1 0xFF PUSH1 0x20 DUP4 ADD SWAP5 PUSH1 0x8 SHR AND DUP5 PUSH2 0x41AE JUMP JUMPDEST MLOAD DUP4 DUP2 LT ISZERO PUSH2 0x14B9 JUMPI PUSH1 0x2 EQ SWAP2 DUP3 PUSH2 0x22E2 JUMPI JUMPDEST PUSH1 0x20 DUP4 DUP4 MLOAD SWAP1 ISZERO ISZERO DUP2 MSTORE RETURN JUMPDEST SWAP1 SWAP2 POP MLOAD SWAP2 PUSH1 0x3 DUP4 LT ISZERO PUSH2 0x16F3 JUMPI POP PUSH1 0x2 PUSH1 0x20 SWAP3 EQ SWAP1 DUP4 PUSH2 0x22D6 JUMP JUMPDEST DUP3 CALLVALUE PUSH2 0x348 JUMPI PUSH0 CALLDATASIZE PUSH1 0x3 NOT ADD SLT PUSH2 0x348 JUMPI PUSH32 0x0 PUSH1 0x1 PUSH1 0x1 PUSH1 0xA0 SHL SUB AND ADDRESS SUB PUSH2 0x2368 JUMPI PUSH1 0x20 SWAP1 MLOAD PUSH32 0x360894A13BA1A3210667C828492DB98DCA3E2076CC3735A920A3CA505D382BBC DUP2 MSTORE RETURN JUMPDEST MLOAD PUSH4 0x703E46DD PUSH1 0xE1 SHL DUP2 MSTORE REVERT JUMPDEST DUP3 CALLVALUE PUSH2 0x348 JUMPI PUSH2 0x2384 CALLDATASIZE PUSH2 0x3B44 JUMP JUMPDEST SWAP3 PUSH2 0x2391 PUSH2 0x3E7 CALLER PUSH2 0x45C2 JUMP JUMPDEST PUSH2 0x239E DUP4 MLOAD DUP6 MLOAD EQ PUSH2 0x3EE6 JUMP JUMPDEST CALLER PUSH0 MSTORE PUSH1 0x1 SWAP4 DUP5 SWAP4 PUSH1 0x20 SWAP1 PUSH1 0x1 PUSH1 0x20 MSTORE DUP4 PUSH0 KECCAK256 SLOAD SWAP5 PUSH1 0x1 DUP1 PUSH1 0xA0 SHL SUB AND PUSH0 MSTORE DUP4 PUSH0 KECCAK256 SLOAD SWAP4 PUSH2 0x23CD DUP6 ISZERO ISZERO PUSH2 0x3F2A JUMP JUMPDEST PUSH0 SWAP7 JUMPDEST PUSH2 0x23D6 JUMPI STOP JUMPDEST DUP2 MLOAD DUP8 LT ISZERO PUSH2 0x536 JUMPI DUP8 DUP8 PUSH2 0x23F5 PUSH2 0x23EF DUP4 SWAP11 DUP9 PUSH2 0x40EF JUMP JUMPDEST MLOAD PUSH2 0x49EB JUMP JUMPDEST ISZERO PUSH2 0x24C8 JUMPI PUSH2 0x2408 DUP9 PUSH2 0x446 DUP4 DUP8 PUSH2 0x40EF JUMP JUMPDEST ISZERO PUSH2 0x24C8 JUMPI DUP8 DUP8 DUP6 DUP6 DUP5 DUP11 DUP11 PUSH2 0x2422 DUP7 PUSH2 0x446 DUP6 DUP9 PUSH2 0x40EF JUMP JUMPDEST ISZERO PUSH2 0x24BC JUMPI PUSH2 0x2462 DUP4 PUSH2 0x245B DUP2 PUSH2 0x2455 PUSH2 0x2469 SWAP9 PUSH1 0x6 DUP13 SWAP8 PUSH2 0x244B DUP16 SWAP12 PUSH2 0x474 DUP16 SWAP2 DUP13 SWAP3 PUSH2 0x40EF JUMP JUMPDEST PUSH0 MSTORE MSTORE PUSH0 KECCAK256 PUSH2 0x3D2C JUMP JUMPDEST SWAP9 PUSH2 0x40EF JUMP JUMPDEST MLOAD SWAP4 PUSH2 0x40EF JUMP JUMPDEST MLOAD SWAP2 PUSH2 0x46C9 JUMP JUMPDEST PUSH32 0x3AF67CF2057BA8EF414286FB626CD3EFB02F74996E18EFD455B39D8EC7EC460F PUSH2 0x2494 DUP6 DUP10 PUSH2 0x40EF JUMP JUMPDEST MLOAD SWAP2 PUSH2 0x24A0 DUP7 DUP13 PUSH2 0x40EF JUMP JUMPDEST MLOAD PUSH2 0x24B1 DUP10 MLOAD SWAP3 DUP4 SWAP3 TIMESTAMP SWAP2 DUP5 PUSH2 0x4355 JUMP JUMPDEST SUB SWAP1 LOG4 JUMPDEST ADD SWAP7 PUSH2 0x23D0 JUMP JUMPDEST POP POP POP POP POP POP POP PUSH2 0x24B5 JUMP JUMPDEST PUSH2 0x24B5 JUMP JUMPDEST SWAP1 POP DUP2 PUSH1 0x3 NOT CALLDATASIZE ADD SLT PUSH2 0x348 JUMPI PUSH2 0x24E2 PUSH2 0x39B8 JUMP JUMPDEST SWAP2 PUSH1 0x24 CALLDATALOAD PUSH1 0x1 PUSH1 0x1 PUSH1 0x40 SHL SUB DUP2 GT PUSH2 0x348 JUMPI CALLDATASIZE PUSH1 0x23 DUP3 ADD SLT ISZERO PUSH2 0x348 JUMPI PUSH2 0x2512 SWAP1 CALLDATASIZE SWAP1 PUSH1 0x24 DUP2 DUP7 ADD CALLDATALOAD SWAP2 ADD PUSH2 0x3AE1 JUMP JUMPDEST SWAP1 PUSH1 0x1 PUSH1 0x1 PUSH1 0xA0 SHL SUB PUSH32 0x0 DUP2 AND ADDRESS DUP2 EQ SWAP1 DUP2 ISZERO PUSH2 0x269C JUMPI JUMPDEST POP PUSH2 0x268C JUMPI PUSH2 0x255C DUP2 PUSH0 SLOAD AND CALLER EQ PUSH2 0x4125 JUMP JUMPDEST DUP5 AND SWAP2 DUP2 MLOAD SWAP5 PUSH4 0x52D1902D PUSH1 0xE0 SHL DUP7 MSTORE PUSH1 0x20 DUP7 DUP7 DUP2 DUP8 GAS STATICCALL PUSH0 SWAP7 DUP2 PUSH2 0x2658 JUMPI JUMPDEST POP PUSH2 0x2598 JUMPI POP POP MLOAD PUSH4 0x4C9C8CE3 PUSH1 0xE0 SHL DUP2 MSTORE SWAP2 DUP3 ADD MSTORE PUSH1 0x24 SWAP2 POP REVERT JUMPDEST DUP4 DUP6 SWAP4 DUP8 PUSH32 0x360894A13BA1A3210667C828492DB98DCA3E2076CC3735A920A3CA505D382BBC SWAP1 DUP2 DUP2 SUB PUSH2 0x2642 JUMPI POP DUP4 EXTCODESIZE ISZERO PUSH2 0x262B JUMPI DUP1 SLOAD PUSH1 0x1 PUSH1 0x1 PUSH1 0xA0 SHL SUB NOT AND DUP4 OR SWAP1 SSTORE MLOAD SWAP1 PUSH32 0xBC7CD75A20EE27FD9ADEBAB32041F755214DBC6BFFA90CC0225B39DA2E5C2D3B PUSH0 DUP1 LOG2 DUP3 MLOAD ISZERO PUSH2 0x2615 JUMPI POP PUSH2 0x536 SWAP3 POP PUSH2 0x4D48 JUMP JUMPDEST SWAP2 POP POP CALLVALUE PUSH2 0x261F JUMPI STOP JUMPDEST PUSH4 0xB398979F PUSH1 0xE0 SHL DUP2 MSTORE REVERT JUMPDEST DUP2 MLOAD PUSH4 0x4C9C8CE3 PUSH1 0xE0 SHL DUP2 MSTORE DUP1 DUP8 ADD DUP5 SWAP1 MSTORE PUSH1 0x24 SWAP1 REVERT JUMPDEST DUP7 PUSH1 0x24 SWAP2 DUP5 MLOAD SWAP2 PUSH4 0x2A875269 PUSH1 0xE2 SHL DUP4 MSTORE DUP3 ADD MSTORE REVERT JUMPDEST SWAP1 SWAP7 POP PUSH1 0x20 DUP2 RETURNDATASIZE PUSH1 0x20 GT PUSH2 0x2684 JUMPI JUMPDEST DUP2 PUSH2 0x2674 PUSH1 0x20 SWAP4 DUP4 PUSH2 0x3A49 JUMP JUMPDEST DUP2 ADD SUB SLT PUSH2 0x348 JUMPI MLOAD SWAP6 PUSH0 PUSH2 0x257C JUMP JUMPDEST RETURNDATASIZE SWAP2 POP PUSH2 0x2667 JUMP JUMPDEST DUP2 MLOAD PUSH4 0x703E46DD PUSH1 0xE1 SHL DUP2 MSTORE DUP5 SWAP1 REVERT JUMPDEST SWAP1 POP DUP2 PUSH32 0x360894A13BA1A3210667C828492DB98DCA3E2076CC3735A920A3CA505D382BBC SLOAD AND EQ ISZERO PUSH0 PUSH2 0x2549 JUMP JUMPDEST SWAP1 POP CALLVALUE PUSH2 0x348 JUMPI DUP2 PUSH1 0x3 NOT CALLDATASIZE ADD SLT PUSH2 0x348 JUMPI PUSH2 0x26E4 PUSH2 0x39B8 JUMP JUMPDEST SWAP2 PUSH1 0x24 CALLDATALOAD SWAP3 PUSH1 0x1 DUP1 PUSH1 0xA0 SHL SUB PUSH2 0x26FE DUP2 PUSH0 SLOAD AND CALLER EQ PUSH2 0x4125 JUMP JUMPDEST DUP2 AND SWAP3 PUSH2 0x270C DUP5 ISZERO ISZERO PUSH2 0x4427 JUMP JUMPDEST PUSH2 0x2717 DUP6 ISZERO ISZERO PUSH2 0x446C JUMP JUMPDEST DUP4 PUSH0 MSTORE PUSH2 0x277C PUSH1 0x20 SWAP3 PUSH1 0x1 DUP5 MSTORE PUSH2 0x2731 DUP6 PUSH0 KECCAK256 SLOAD ISZERO PUSH2 0x44AF JUMP JUMPDEST PUSH2 0x276D DUP6 MLOAD PUSH2 0x273F DUP2 PUSH2 0x39E4 JUMP JUMPDEST DUP9 DUP2 MSTORE PUSH1 0x1 DUP7 DUP3 ADD DUP2 DUP2 MSTORE DUP10 PUSH0 MSTORE DUP2 DUP9 MSTORE DUP9 PUSH0 KECCAK256 SWAP3 MLOAD DUP4 SSTORE MLOAD ISZERO ISZERO SWAP2 ADD SWAP1 PUSH1 0xFF DUP1 NOT DUP4 SLOAD AND SWAP2 ISZERO ISZERO AND OR SWAP1 SSTORE JUMP JUMPDEST DUP7 PUSH0 MSTORE PUSH1 0x3 DUP5 MSTORE DUP5 PUSH0 KECCAK256 PUSH2 0x400F JUMP JUMPDEST DUP5 PUSH0 MSTORE PUSH1 0x2 DUP3 MSTORE PUSH1 0xFF DUP4 PUSH0 KECCAK256 SLOAD AND SWAP1 PUSH1 0x6 DUP3 LT ISZERO PUSH2 0x16F3 JUMPI POP PUSH2 0x27EE JUMPI PUSH32 0x39D132591EE0696DE49AB564E4A90E430C006561917DB731A2A614DD2D245591 SWAP2 DUP5 PUSH0 MSTORE PUSH1 0x2 DUP3 MSTORE DUP1 PUSH0 KECCAK256 PUSH1 0x2 PUSH1 0xFF NOT DUP3 SLOAD AND OR SWAP1 SSTORE PUSH2 0x27D9 DUP6 PUSH2 0x404A JUMP JUMPDEST PUSH2 0x27E4 PUSH1 0x5 SLOAD PUSH2 0x40CD JUMP JUMPDEST PUSH1 0x5 SSTORE MLOAD TIMESTAMP DUP2 MSTORE LOG3 STOP JUMPDEST PUSH32 0x1CC138F50384BE7770A8E4A34EECAA0D0C718BFAA1641AF49DB32532E4A5B910 SWAP2 MLOAD TIMESTAMP DUP2 MSTORE LOG3 STOP JUMPDEST DUP3 CALLVALUE PUSH2 0x348 JUMPI PUSH1 0x20 CALLDATASIZE PUSH1 0x3 NOT ADD SLT PUSH2 0x348 JUMPI PUSH1 0x20 SWAP1 PUSH2 0x1026 PUSH2 0x1CD5 PUSH2 0x39B8 JUMP JUMPDEST DUP3 CALLVALUE PUSH2 0x348 JUMPI PUSH1 0x20 SWAP1 PUSH2 0x284C PUSH2 0x172E CALLDATASIZE PUSH2 0x3CDE JUMP JUMPDEST PUSH0 MSTORE PUSH1 0x6 DUP3 MSTORE PUSH2 0x5C8 DUP2 PUSH0 KECCAK256 SWAP2 DUP1 MLOAD PUSH2 0x2864 DUP2 PUSH2 0x39E4 JUMP JUMPDEST PUSH1 0xFF PUSH1 0x1 PUSH2 0x2871 DUP7 PUSH2 0x3D2C JUMP JUMPDEST SWAP6 DUP7 DUP5 MSTORE ADD SLOAD AND ISZERO ISZERO SWAP5 DUP6 SWAP2 ADD MSTORE MLOAD SWAP3 DUP4 SWAP3 DUP4 PUSH2 0x3E0C JUMP JUMPDEST DUP3 CALLVALUE PUSH2 0x348 JUMPI DUP1 PUSH1 0x3 NOT CALLDATASIZE ADD SLT PUSH2 0x348 JUMPI PUSH2 0x28B0 PUSH2 0x5C8 SWAP3 PUSH2 0x28A9 PUSH2 0x39CE JUMP JUMPDEST SWAP1 CALLDATALOAD PUSH2 0x43AF JUMP JUMPDEST SWAP3 SWAP1 SWAP2 MLOAD SWAP3 DUP4 SWAP3 DUP4 PUSH2 0x3E0C JUMP JUMPDEST SWAP1 POP CALLVALUE PUSH2 0x348 JUMPI PUSH1 0x20 SWAP1 PUSH1 0x20 PUSH1 0x3 NOT CALLDATASIZE ADD SLT PUSH2 0x348 JUMPI CALLDATALOAD PUSH0 MSTORE PUSH1 0x8 PUSH1 0x20 MSTORE DUP2 PUSH0 KECCAK256 SWAP2 DUP1 MLOAD SWAP2 DUP3 PUSH1 0x20 DUP6 SLOAD SWAP2 DUP3 DUP2 MSTORE ADD SWAP5 PUSH0 MSTORE PUSH1 0x20 PUSH0 KECCAK256 SWAP2 PUSH0 SWAP1 JUMPDEST DUP3 DUP3 LT PUSH2 0x290F JUMPI PUSH2 0x5C8 DUP7 DUP7 PUSH2 0x653 DUP3 DUP12 SUB DUP4 PUSH2 0x3A49 JUMP JUMPDEST DUP4 SLOAD DUP8 MSTORE SWAP6 DUP7 ADD SWAP6 PUSH1 0x1 SWAP4 DUP5 ADD SWAP4 SWAP1 SWAP2 ADD SWAP1 PUSH2 0x28F7 JUMP JUMPDEST DUP3 CALLVALUE PUSH2 0x348 JUMPI PUSH1 0x20 SWAP1 PUSH2 0x1026 PUSH2 0x293B CALLDATASIZE PUSH2 0x3C9C JUMP JUMPDEST SWAP2 PUSH2 0x4383 JUMP JUMPDEST SWAP1 POP CALLVALUE PUSH2 0x348 JUMPI PUSH1 0x20 CALLDATASIZE PUSH1 0x3 NOT ADD SLT PUSH2 0x348 JUMPI CALLDATALOAD PUSH0 MSTORE PUSH1 0x6 PUSH1 0x20 MSTORE DUP1 PUSH0 KECCAK256 PUSH2 0x5C8 PUSH1 0xFF PUSH1 0x1 PUSH2 0x296F DUP5 PUSH2 0x3D2C JUMP JUMPDEST SWAP4 ADD SLOAD AND SWAP3 MLOAD SWAP3 DUP4 SWAP3 DUP4 PUSH2 0x3E0C JUMP JUMPDEST DUP3 CALLVALUE PUSH2 0x348 JUMPI PUSH2 0x298D CALLDATASIZE PUSH2 0x3CDE JUMP JUMPDEST SWAP1 PUSH0 MSTORE PUSH1 0xF PUSH1 0x20 MSTORE DUP2 PUSH0 KECCAK256 SWAP1 PUSH0 MSTORE PUSH1 0x20 MSTORE DUP1 PUSH0 KECCAK256 SWAP1 PUSH2 0x5C8 PUSH1 0x60 DUP3 MLOAD SWAP4 PUSH2 0x29B3 DUP6 PUSH2 0x3A13 JUMP JUMPDEST DUP1 SLOAD SWAP4 DUP5 DUP7 MSTORE PUSH1 0x1 DUP3 ADD SLOAD SWAP6 DUP7 PUSH1 0x20 DUP3 ADD MSTORE PUSH1 0x3 PUSH1 0x2 DUP5 ADD SLOAD SWAP4 DUP5 DUP5 DUP5 ADD MSTORE ADD SLOAD SWAP4 DUP5 SWAP2 ADD MSTORE MLOAD SWAP5 DUP6 SWAP5 DUP6 SWAP1 SWAP5 SWAP4 SWAP3 PUSH1 0x60 SWAP3 PUSH1 0x80 DUP4 ADD SWAP7 DUP4 MSTORE PUSH1 0x20 DUP4 ADD MSTORE PUSH1 0x40 DUP3 ADD MSTORE ADD MSTORE JUMP JUMPDEST DUP3 CALLVALUE PUSH2 0x348 JUMPI PUSH1 0x20 DUP1 PUSH1 0x3 NOT CALLDATASIZE ADD SLT PUSH2 0x348 JUMPI DUP3 CALLDATALOAD SWAP2 PUSH2 0x2A1B DUP4 ISZERO ISZERO PUSH2 0x41D9 JUMP JUMPDEST CALLER PUSH0 MSTORE PUSH1 0x1 DUP3 MSTORE DUP1 PUSH0 KECCAK256 SLOAD SWAP4 PUSH2 0x2A39 PUSH2 0x2A32 PUSH2 0x430B JUMP JUMPDEST DUP7 DUP7 PUSH2 0x4A43 JUMP JUMPDEST ISZERO PUSH2 0x2B2A JUMPI DUP4 PUSH0 MSTORE PUSH1 0x7 DUP4 MSTORE PUSH1 0x1 DUP3 PUSH0 KECCAK256 SLOAD GT PUSH1 0x8 DUP5 MSTORE DUP3 PUSH0 KECCAK256 SLOAD ISZERO ISZERO DUP2 ISZERO PUSH2 0x2B22 JUMPI JUMPDEST POP ISZERO PUSH2 0x2AC7 JUMPI POP SWAP1 PUSH32 0x68F37CC4A32F0B24153CE9237B344B20A9717039F90D7C24F35E5C217F03E168 SWAP2 PUSH2 0x2A91 DUP6 DUP6 PUSH2 0x48DE JUMP JUMPDEST PUSH2 0x2AA3 PUSH2 0x2A9C PUSH2 0x430B JUMP JUMPDEST DUP8 DUP8 PUSH2 0x4912 JUMP JUMPDEST PUSH0 MSTORE PUSH1 0x6 DUP3 MSTORE PUSH1 0x1 DUP2 PUSH0 KECCAK256 ADD PUSH1 0xFF NOT DUP2 SLOAD AND SWAP1 SSTORE PUSH1 0xD DUP3 MSTORE PUSH0 DUP2 DUP2 KECCAK256 SSTORE MLOAD TIMESTAMP DUP2 MSTORE LOG3 STOP JUMPDEST DUP3 PUSH1 0x84 SWAP3 MLOAD SWAP2 PUSH3 0x461BCD PUSH1 0xE5 SHL DUP4 MSTORE DUP3 ADD MSTORE PUSH1 0x31 PUSH1 0x24 DUP3 ADD MSTORE PUSH32 0x43616E6E6F74206C65617665206173206C617374206F776E6572207769746820 PUSH1 0x44 DUP3 ADD MSTORE PUSH17 0x6E6F2061646D696E6973747261746F7273 PUSH1 0x78 SHL PUSH1 0x64 DUP3 ADD MSTORE REVERT JUMPDEST SWAP1 POP DUP7 PUSH2 0x2A5D JUMP JUMPDEST DUP3 PUSH1 0x84 SWAP3 MLOAD SWAP2 PUSH3 0x461BCD PUSH1 0xE5 SHL DUP4 MSTORE DUP3 ADD MSTORE PUSH1 0x23 PUSH1 0x24 DUP3 ADD MSTORE PUSH32 0x596F7520617265206E6F7420616E206F776E6572206F66207468697320726563 PUSH1 0x44 DUP3 ADD MSTORE PUSH3 0x1BDC99 PUSH1 0xEA SHL PUSH1 0x64 DUP3 ADD MSTORE REVERT JUMPDEST SWAP1 POP CALLVALUE PUSH2 0x348 JUMPI PUSH2 0x2B87 CALLDATASIZE PUSH2 0x3C9C JUMP JUMPDEST SWAP4 SWAP1 PUSH2 0x2B95 PUSH2 0x3E7 CALLER PUSH2 0x45C2 JUMP JUMPDEST PUSH2 0x2BA0 DUP4 ISZERO ISZERO PUSH2 0x41D9 JUMP JUMPDEST PUSH1 0x1 PUSH1 0x1 PUSH1 0xA0 SHL SUB AND SWAP4 PUSH2 0x2BB5 DUP6 ISZERO ISZERO PUSH2 0x4225 JUMP JUMPDEST PUSH2 0x2BC1 PUSH2 0x72F DUP3 PUSH2 0x49EB JUMP JUMPDEST CALLER PUSH0 MSTORE PUSH1 0x20 SWAP2 PUSH1 0x1 DUP4 MSTORE DUP1 PUSH0 KECCAK256 SLOAD SWAP6 PUSH0 MSTORE DUP1 PUSH0 KECCAK256 SLOAD SWAP5 PUSH2 0x2BE2 DUP7 ISZERO ISZERO PUSH2 0x3F2A JUMP JUMPDEST DUP3 MLOAD DUP5 DUP5 ADD KECCAK256 SWAP4 PUSH2 0x2BF3 DUP8 DUP8 PUSH2 0x48DE JUMP JUMPDEST DUP1 PUSH0 MSTORE PUSH1 0x6 DUP3 MSTORE PUSH2 0x2C0C PUSH1 0xFF PUSH1 0x1 DUP7 PUSH0 KECCAK256 ADD SLOAD AND PUSH2 0x42B3 JUMP JUMPDEST PUSH0 MSTORE PUSH1 0x6 DUP2 MSTORE PUSH2 0x2C1D DUP4 PUSH0 KECCAK256 PUSH2 0x3D2C JUMP JUMPDEST SWAP5 DUP6 MLOAD DUP3 DUP8 ADD KECCAK256 SWAP1 DUP1 DUP3 EQ PUSH2 0x3060 JUMPI PUSH2 0x2C34 PUSH2 0x430B JUMP JUMPDEST DUP4 DUP2 MLOAD SWAP2 ADD KECCAK256 DUP3 EQ PUSH2 0x2FEC JUMPI DUP8 PUSH0 MSTORE PUSH1 0x7 DUP4 MSTORE DUP5 PUSH0 KECCAK256 SLOAD ISZERO SWAP2 DUP3 ISZERO PUSH2 0x2C61 PUSH2 0x2C5A PUSH2 0x430B JUMP JUMPDEST DUP14 DUP13 PUSH2 0x4A43 JUMP JUMPDEST SWAP1 PUSH2 0x2C75 DUP14 PUSH2 0x2C6E PUSH2 0x432C JUMP JUMPDEST SWAP1 DUP14 PUSH2 0x4A43 JUMP JUMPDEST SWAP1 PUSH2 0x2C7E PUSH2 0x430B JUMP JUMPDEST DUP1 MLOAD SWAP1 DUP9 ADD KECCAK256 DUP6 SUB PUSH2 0x2E33 JUMPI ISZERO PUSH2 0x2DD5 JUMPI POP ISZERO PUSH2 0x2D93 JUMPI JUMPDEST PUSH2 0x2C9E PUSH2 0x432C JUMP JUMPDEST DUP5 DUP2 MLOAD SWAP2 ADD KECCAK256 EQ SWAP1 DUP2 PUSH2 0x2D7C JUMPI JUMPDEST POP PUSH2 0x2CF9 JUMPI JUMPDEST POP POP POP SWAP1 PUSH2 0x2CF4 PUSH32 0x3AF67CF2057BA8EF414286FB626CD3EFB02F74996E18EFD455B39D8EC7EC460F SWAP4 SWAP3 PUSH2 0x2CE8 DUP9 DUP5 DUP10 DUP10 PUSH2 0x46C9 JUMP JUMPDEST MLOAD SWAP3 DUP4 SWAP3 TIMESTAMP SWAP2 DUP5 PUSH2 0x4355 JUMP JUMPDEST SUB SWAP1 LOG4 STOP JUMPDEST PUSH2 0x2D04 JUMPI JUMPDEST DUP1 PUSH2 0x2CB2 JUMP JUMPDEST DUP6 PUSH0 MSTORE PUSH1 0x8 DUP2 MSTORE PUSH1 0x1 DUP4 PUSH0 KECCAK256 SLOAD GT PUSH2 0x2CFE JUMPI PUSH1 0x84 SWAP3 MLOAD SWAP2 PUSH3 0x461BCD PUSH1 0xE5 SHL DUP4 MSTORE DUP3 ADD MSTORE PUSH1 0x39 PUSH1 0x24 DUP3 ADD MSTORE PUSH32 0x43616E6E6F742064656D6F746520746865206C6173742061646D696E69737472 PUSH1 0x44 DUP3 ADD MSTORE PUSH32 0x61746F72207768656E206E6F206F776E65722065786973747300000000000000 PUSH1 0x64 DUP3 ADD MSTORE REVERT JUMPDEST SWAP1 POP PUSH2 0x2D86 PUSH2 0x4103 JUMP JUMPDEST DUP4 DUP2 MLOAD SWAP2 ADD KECCAK256 EQ PUSH0 PUSH2 0x2CAC JUMP JUMPDEST POP POP POP DUP1 PUSH1 0x64 SWAP4 MLOAD SWAP3 PUSH3 0x461BCD PUSH1 0xE5 SHL DUP5 MSTORE DUP4 ADD MSTORE PUSH1 0x24 DUP3 ADD MSTORE PUSH32 0x4F6E6C79206F776E6572732063616E2070726F6D6F746520746F206F776E6572 PUSH1 0x44 DUP3 ADD MSTORE REVERT JUMPDEST SWAP1 POP PUSH2 0x2C96 JUMPI POP POP SWAP3 MLOAD PUSH3 0x461BCD PUSH1 0xE5 SHL DUP2 MSTORE SWAP2 DUP3 ADD MSTORE PUSH1 0x2B PUSH1 0x24 DUP3 ADD MSTORE PUSH32 0x4F6E6C792061646D696E6973747261746F72732063616E2070726F6D6F746520 PUSH1 0x44 DUP3 ADD MSTORE PUSH11 0x3334B939BA1037BBB732B9 PUSH1 0xA9 SHL PUSH1 0x64 DUP3 ADD MSTORE PUSH1 0x84 SWAP2 POP REVERT JUMPDEST PUSH2 0x2E3B PUSH2 0x432C JUMP JUMPDEST DUP1 MLOAD SWAP1 DUP9 ADD KECCAK256 DUP6 SUB PUSH2 0x2EC6 JUMPI POP DUP2 ISZERO PUSH2 0x2EBE JUMPI JUMPDEST POP PUSH2 0x2C96 JUMPI POP POP SWAP3 MLOAD PUSH3 0x461BCD PUSH1 0xE5 SHL DUP2 MSTORE SWAP2 DUP3 ADD MSTORE PUSH1 0x3B PUSH1 0x24 DUP3 ADD MSTORE PUSH32 0x4F6E6C79206F776E65727320616E642061646D696E6973747261746F72732063 PUSH1 0x44 DUP3 ADD MSTORE PUSH32 0x616E2070726F6D6F746520746F2061646D696E6973747261746F720000000000 PUSH1 0x64 DUP3 ADD MSTORE PUSH1 0x84 SWAP2 POP REVERT JUMPDEST SWAP1 POP PUSH0 PUSH2 0x2E4F JUMP JUMPDEST PUSH2 0x2ECE PUSH2 0x4103 JUMP JUMPDEST DUP8 DUP2 MLOAD SWAP2 ADD KECCAK256 DUP6 EQ PUSH2 0x2EE3 JUMPI JUMPDEST POP POP POP PUSH2 0x2C96 JUMP JUMPDEST ISZERO PUSH2 0x2F91 JUMPI DUP2 ISZERO PUSH2 0x2F7A JUMPI JUMPDEST POP ISZERO PUSH2 0x2EFE JUMPI JUMPDEST PUSH0 DUP1 DUP1 PUSH2 0x2EDB JUMP JUMPDEST POP POP SWAP3 MLOAD PUSH3 0x461BCD PUSH1 0xE5 SHL DUP2 MSTORE SWAP2 DUP3 ADD MSTORE PUSH1 0x49 PUSH1 0x24 DUP3 ADD MSTORE PUSH32 0x4F6E6C79206F776E6572732063616E2064656D6F7465206F74686572732E2041 PUSH1 0x44 DUP3 ADD MSTORE PUSH32 0x646D696E6973747261746F72732063616E206F6E6C792064656D6F7465207468 PUSH1 0x64 DUP3 ADD MSTORE PUSH9 0x32B6B9B2B63B32B997 PUSH1 0xB9 SHL PUSH1 0x84 DUP3 ADD MSTORE PUSH1 0xA4 SWAP2 POP REVERT JUMPDEST SWAP1 POP DUP1 PUSH2 0x2F88 JUMPI JUMPDEST PUSH0 PUSH2 0x2EEF JUMP JUMPDEST POP DUP10 DUP12 EQ PUSH2 0x2F82 JUMP JUMPDEST SWAP1 POP PUSH2 0x2EF6 JUMPI POP POP SWAP3 MLOAD PUSH3 0x461BCD PUSH1 0xE5 SHL DUP2 MSTORE SWAP2 DUP3 ADD MSTORE PUSH1 0x28 PUSH1 0x24 DUP3 ADD MSTORE PUSH32 0x4F6E6C792061646D696E6973747261746F72732063616E2064656D6F74652074 PUSH1 0x44 DUP3 ADD MSTORE PUSH8 0x37903B34B2BBB2B9 PUSH1 0xC1 SHL PUSH1 0x64 DUP3 ADD MSTORE PUSH1 0x84 SWAP2 POP REVERT JUMPDEST POP POP PUSH1 0xA4 SWAP3 MLOAD SWAP2 PUSH3 0x461BCD PUSH1 0xE5 SHL DUP4 MSTORE DUP3 ADD MSTORE PUSH1 0x43 PUSH1 0x24 DUP3 ADD MSTORE PUSH32 0x4F776E6572732063616E6E6F742062652064656D6F7465642E204F776E657220 PUSH1 0x44 DUP3 ADD MSTORE PUSH32 0x6D75737420766F6C756E746172696C792072656D6F7665207468656D73656C76 PUSH1 0x64 DUP3 ADD MSTORE PUSH3 0x32B997 PUSH1 0xE9 SHL PUSH1 0x84 DUP3 ADD MSTORE REVERT JUMPDEST POP POP PUSH1 0x64 SWAP3 MLOAD SWAP2 PUSH3 0x461BCD PUSH1 0xE5 SHL DUP4 MSTORE DUP3 ADD MSTORE PUSH1 0x1C PUSH1 0x24 DUP3 ADD MSTORE PUSH32 0x54617267657420616C726561647920686173207468697320726F6C6500000000 PUSH1 0x44 DUP3 ADD MSTORE REVERT JUMPDEST DUP3 CALLVALUE PUSH2 0x348 JUMPI PUSH1 0x20 CALLDATASIZE PUSH1 0x3 NOT ADD SLT PUSH2 0x348 JUMPI PUSH1 0x20 SWAP1 PUSH2 0x1026 PUSH2 0x30C2 PUSH2 0x39B8 JUMP JUMPDEST PUSH2 0x4995 JUMP JUMPDEST DUP3 CALLVALUE PUSH2 0x348 JUMPI PUSH2 0x30D6 CALLDATASIZE PUSH2 0x3C6B JUMP JUMPDEST PUSH2 0x30E5 PUSH2 0x3E7 SWAP4 SWAP3 SWAP4 CALLER PUSH2 0x45C2 JUMP JUMPDEST CALLER PUSH0 MSTORE PUSH1 0x1 SWAP3 DUP4 SWAP3 PUSH1 0x20 SWAP1 DUP5 DUP3 MSTORE DUP1 PUSH0 KECCAK256 SLOAD SWAP3 PUSH2 0x3104 DUP2 MLOAD ISZERO ISZERO PUSH2 0x3FCD JUMP JUMPDEST PUSH0 SWAP6 JUMPDEST PUSH2 0x310D JUMPI STOP JUMPDEST DUP1 MLOAD DUP7 LT ISZERO PUSH2 0x536 JUMPI DUP7 DUP7 DUP7 DUP7 PUSH2 0x3125 DUP5 SWAP11 DUP7 PUSH2 0x40EF JUMP JUMPDEST MLOAD DUP1 PUSH0 MSTORE PUSH1 0xF DUP9 MSTORE DUP7 PUSH0 KECCAK256 DUP4 PUSH0 MSTORE DUP9 MSTORE DUP7 PUSH0 KECCAK256 DUP8 MLOAD PUSH2 0x3143 DUP2 PUSH2 0x3A13 JUMP JUMPDEST DUP2 SLOAD SWAP1 DUP2 DUP2 MSTORE DUP8 DUP4 ADD SLOAD DUP12 DUP3 ADD MSTORE PUSH1 0x60 PUSH1 0x3 PUSH1 0x2 DUP6 ADD SLOAD SWAP5 DUP6 DUP14 DUP6 ADD MSTORE ADD SLOAD SWAP2 ADD MSTORE ISZERO PUSH2 0x323D JUMPI PUSH2 0x317C PUSH2 0x3175 PUSH2 0x430B JUMP JUMPDEST DUP5 DUP5 PUSH2 0x4A43 JUMP JUMPDEST SWAP1 DUP2 ISZERO PUSH2 0x322A JUMPI JUMPDEST DUP4 EQ ISZERO SWAP1 DUP2 PUSH2 0x3221 JUMPI JUMPDEST POP PUSH2 0x3219 JUMPI PUSH2 0x319D DUP4 DUP3 PUSH2 0x48DE JUMP JUMPDEST DUP1 PUSH0 MSTORE PUSH1 0x6 SWAP1 DUP2 DUP11 MSTORE PUSH1 0xFF DUP8 DUP11 PUSH0 KECCAK256 ADD SLOAD AND PUSH2 0x31E6 JUMPI JUMPDEST POP POP PUSH32 0xA232DCFFAB2D4F0F085A4D88BC617CD25DED7D3B8D8952E99D788CA25D4435B0 DUP9 DUP9 MLOAD TIMESTAMP DUP2 MSTORE LOG4 JUMPDEST ADD SWAP6 PUSH2 0x3107 JUMP JUMPDEST PUSH2 0x31F8 PUSH2 0x31F1 PUSH2 0x4103 JUMP JUMPDEST DUP7 DUP6 PUSH2 0x4912 JUMP JUMPDEST PUSH0 MSTORE DUP9 MSTORE DUP5 DUP8 PUSH0 KECCAK256 ADD PUSH1 0xFF NOT DUP2 SLOAD AND SWAP1 SSTORE PUSH1 0xD DUP9 MSTORE PUSH0 DUP8 DUP2 KECCAK256 SSTORE DUP13 DUP1 PUSH2 0x31B4 JUMP JUMPDEST POP POP POP PUSH2 0x31DF JUMP JUMPDEST SWAP1 POP ISZERO DUP14 PUSH2 0x318E JUMP JUMPDEST SWAP1 POP PUSH2 0x3237 PUSH2 0x3175 PUSH2 0x432C JUMP JUMPDEST SWAP1 PUSH2 0x3184 JUMP JUMPDEST POP POP POP POP PUSH2 0x31DF JUMP JUMPDEST DUP3 CALLVALUE PUSH2 0x348 JUMPI PUSH2 0x3255 CALLDATASIZE PUSH2 0x3C4C JUMP JUMPDEST SWAP1 SWAP2 PUSH2 0x3263 PUSH2 0x3E7 CALLER PUSH2 0x45C2 JUMP JUMPDEST CALLER PUSH0 MSTORE PUSH1 0x20 SWAP2 PUSH1 0x1 DUP4 MSTORE DUP2 PUSH0 KECCAK256 SLOAD SWAP3 DUP5 ISZERO PUSH2 0x3442 JUMPI DUP5 DUP5 EQ PUSH2 0x3400 JUMPI DUP5 PUSH0 MSTORE PUSH1 0x2 DUP2 MSTORE PUSH1 0xFF DUP4 PUSH0 KECCAK256 SLOAD AND PUSH1 0x6 DUP2 LT ISZERO PUSH2 0x33B2 JUMPI ISZERO PUSH2 0x33C5 JUMPI DUP4 PUSH0 MSTORE PUSH1 0xE DUP2 MSTORE DUP3 PUSH0 KECCAK256 DUP6 PUSH0 MSTORE DUP2 MSTORE PUSH1 0xFF DUP4 PUSH0 KECCAK256 SLOAD AND DUP7 DUP2 LT ISZERO PUSH2 0x33B2 JUMPI DUP1 ISZERO SWAP1 DUP2 ISZERO PUSH2 0x33A7 JUMPI JUMPDEST POP ISZERO PUSH2 0x3365 JUMPI DUP3 MLOAD PUSH2 0x32D4 DUP2 PUSH2 0x39E4 JUMP JUMPDEST PUSH1 0x1 DUP2 MSTORE DUP2 DUP2 ADD PUSH2 0x32E5 DUP5 DUP3 PUSH2 0x41AE JUMP JUMPDEST DUP6 PUSH0 MSTORE PUSH1 0xE DUP4 MSTORE DUP5 PUSH0 KECCAK256 DUP8 PUSH0 MSTORE DUP4 MSTORE DUP5 PUSH0 KECCAK256 SWAP2 MLOAD DUP9 DUP2 LT ISZERO PUSH2 0x3352 JUMPI PUSH1 0xFF DUP1 NOT DUP5 SLOAD AND SWAP2 AND OR DUP3 SSTORE MLOAD SWAP7 PUSH1 0x3 DUP9 LT ISZERO PUSH2 0x16F3 JUMPI POP PUSH32 0x494D010FDF588A0E83D626EA6963187BDDA6F88B7007F7BF280683D3F7DEA834 SWAP5 SWAP6 SWAP7 PUSH2 0x3346 SWAP2 PUSH2 0x41BA JUMP JUMPDEST PUSH2 0x1566 DUP4 MLOAD DUP1 SWAP4 PUSH2 0x3E76 JUMP JUMPDEST PUSH1 0x21 DUP10 PUSH4 0x4E487B71 PUSH1 0xE0 SHL PUSH0 MSTORE MSTORE PUSH1 0x24 PUSH0 REVERT JUMPDEST DUP6 PUSH1 0x64 SWAP2 DUP5 MLOAD SWAP2 PUSH3 0x461BCD PUSH1 0xE5 SHL DUP4 MSTORE DUP3 ADD MSTORE PUSH1 0x17 PUSH1 0x24 DUP3 ADD MSTORE PUSH32 0x50726F706F73616C20616C726561647920657869737473000000000000000000 PUSH1 0x44 DUP3 ADD MSTORE REVERT JUMPDEST PUSH1 0x3 SWAP2 POP EQ DUP8 PUSH2 0x32C3 JUMP JUMPDEST PUSH1 0x21 DUP8 PUSH4 0x4E487B71 PUSH1 0xE0 SHL PUSH0 MSTORE MSTORE PUSH1 0x24 PUSH0 REVERT JUMPDEST DUP6 PUSH1 0x64 SWAP2 DUP5 MLOAD SWAP2 PUSH3 0x461BCD PUSH1 0xE5 SHL DUP4 MSTORE DUP3 ADD MSTORE PUSH1 0x16 PUSH1 0x24 DUP3 ADD MSTORE PUSH22 0x151C9D5CDD1959481B9BDD081C9959DA5CDD195C9959 PUSH1 0x52 SHL PUSH1 0x44 DUP3 ADD MSTORE REVERT JUMPDEST DUP6 PUSH1 0x64 SWAP2 DUP5 MLOAD SWAP2 PUSH3 0x461BCD PUSH1 0xE5 SHL DUP4 MSTORE DUP3 ADD MSTORE PUSH1 0x17 PUSH1 0x24 DUP3 ADD MSTORE PUSH32 0x43616E6E6F74206170706F696E7420796F757273656C66000000000000000000 PUSH1 0x44 DUP3 ADD MSTORE REVERT JUMPDEST DUP6 PUSH1 0x64 SWAP2 DUP5 MLOAD SWAP2 PUSH3 0x461BCD PUSH1 0xE5 SHL DUP4 MSTORE DUP3 ADD MSTORE PUSH1 0xF PUSH1 0x24 DUP3 ADD MSTORE PUSH15 0x496E76616C69642074727573746565 PUSH1 0x88 SHL PUSH1 0x44 DUP3 ADD MSTORE REVERT JUMPDEST DUP3 CALLVALUE PUSH2 0x348 JUMPI PUSH1 0x20 CALLDATASIZE PUSH1 0x3 NOT ADD SLT PUSH2 0x348 JUMPI PUSH2 0x3490 PUSH2 0x39B8 JUMP JUMPDEST PUSH0 SLOAD PUSH1 0x1 PUSH1 0x1 PUSH1 0xA0 SHL SUB SWAP2 SWAP1 PUSH2 0x34A9 SWAP1 DUP4 AND CALLER EQ PUSH2 0x4125 JUMP JUMPDEST AND DUP1 PUSH0 MSTORE PUSH1 0x1 PUSH1 0x20 MSTORE PUSH2 0x34C0 DUP3 PUSH0 KECCAK256 SLOAD ISZERO ISZERO PUSH2 0x415E JUMP JUMPDEST DUP1 PUSH0 MSTORE PUSH1 0x1 PUSH1 0x20 MSTORE PUSH1 0xFF PUSH1 0x1 DUP4 PUSH0 KECCAK256 ADD SLOAD AND ISZERO PUSH2 0x34F0 JUMPI PUSH1 0x1 SWAP3 POP PUSH0 MSTORE DUP2 PUSH1 0x20 MSTORE PUSH0 KECCAK256 ADD PUSH1 0xFF NOT DUP2 SLOAD AND SWAP1 SSTORE PUSH0 DUP1 RETURN JUMPDEST DUP2 MLOAD PUSH3 0x461BCD PUSH1 0xE5 SHL DUP2 MSTORE PUSH1 0x20 DUP2 DUP6 ADD MSTORE PUSH1 0x17 PUSH1 0x24 DUP3 ADD MSTORE PUSH32 0x57616C6C657420616C726561647920696E616374697665000000000000000000 PUSH1 0x44 DUP3 ADD MSTORE PUSH1 0x64 SWAP1 REVERT JUMPDEST DUP3 CALLVALUE PUSH2 0x348 JUMPI PUSH1 0xA0 CALLDATASIZE PUSH1 0x3 NOT ADD SLT PUSH2 0x348 JUMPI DUP2 CALLDATALOAD PUSH1 0x1 PUSH1 0x1 PUSH1 0x40 SHL SUB DUP2 GT PUSH2 0x348 JUMPI PUSH2 0x3562 SWAP1 CALLDATASIZE SWAP1 DUP5 ADD PUSH2 0x3A81 JUMP JUMPDEST SWAP1 PUSH2 0x356B PUSH2 0x39CE JUMP JUMPDEST PUSH1 0x44 CALLDATALOAD SWAP2 PUSH1 0x64 CALLDATALOAD SWAP4 PUSH1 0x84 CALLDATALOAD PUSH2 0x3582 PUSH2 0x3E7 CALLER PUSH2 0x45C2 JUMP JUMPDEST CALLER PUSH0 MSTORE PUSH1 0x1 SWAP6 PUSH1 0x20 SWAP2 DUP8 DUP4 MSTORE DUP5 PUSH0 KECCAK256 SLOAD SWAP6 PUSH2 0x359F DUP6 MLOAD ISZERO ISZERO PUSH2 0x3FCD JUMP JUMPDEST PUSH1 0x1 PUSH1 0x1 PUSH1 0xA0 SHL SUB DUP2 AND SWAP1 DUP2 ISZERO PUSH2 0x385E JUMPI DUP9 ISZERO PUSH2 0x3828 JUMPI DUP3 ISZERO PUSH2 0x37E5 JUMPI DUP2 PUSH0 MSTORE DUP10 DUP6 MSTORE DUP9 DUP8 PUSH0 KECCAK256 SLOAD DUP1 ISZERO PUSH0 EQ PUSH2 0x377B JUMPI POP POP PUSH2 0x3611 PUSH2 0x3620 SWAP3 DUP12 DUP10 MLOAD SWAP2 PUSH2 0x35E5 DUP4 PUSH2 0x39E4 JUMP JUMPDEST DUP13 DUP4 MSTORE DUP9 DUP4 ADD SWAP1 DUP3 DUP3 MSTORE PUSH0 MSTORE DUP2 DUP10 MSTORE DUP11 PUSH0 KECCAK256 SWAP3 MLOAD DUP4 SSTORE MLOAD ISZERO ISZERO SWAP2 ADD SWAP1 PUSH1 0xFF DUP1 NOT DUP4 SLOAD AND SWAP2 ISZERO ISZERO AND OR SWAP1 SSTORE JUMP JUMPDEST DUP9 PUSH0 MSTORE PUSH1 0x3 DUP6 MSTORE DUP7 PUSH0 KECCAK256 PUSH2 0x400F JUMP JUMPDEST DUP7 PUSH0 MSTORE PUSH1 0x2 DUP4 MSTORE DUP5 PUSH0 KECCAK256 PUSH1 0x5 PUSH1 0xFF NOT DUP3 SLOAD AND OR SWAP1 SSTORE PUSH2 0x363E DUP8 PUSH2 0x404A JUMP JUMPDEST PUSH2 0x3649 PUSH1 0x5 SLOAD PUSH2 0x40CD JUMP JUMPDEST PUSH1 0x5 SSTORE JUMPDEST TIMESTAMP ADD SWAP3 DUP4 TIMESTAMP GT PUSH2 0x3768 JUMPI DUP8 SWAP9 POP PUSH0 SWAP8 JUMPDEST PUSH2 0x3663 JUMPI STOP JUMPDEST DUP1 MLOAD DUP9 LT ISZERO PUSH2 0x536 JUMPI DUP9 DUP9 DUP9 DUP9 PUSH2 0x367B DUP5 SWAP13 DUP7 PUSH2 0x40EF JUMP JUMPDEST MLOAD PUSH2 0x3686 DUP3 DUP3 PUSH2 0x48DE JUMP JUMPDEST PUSH0 MSTORE DUP10 DUP9 DUP11 PUSH1 0x6 DUP1 DUP4 MSTORE DUP11 PUSH1 0xFF SWAP5 DUP6 DUP12 DUP3 PUSH0 KECCAK256 ADD SLOAD AND ISZERO PUSH2 0x375A JUMPI PUSH32 0x140D483F221B1B41AA3142BE8C182589305145AAFE83BED53B908D6BAFF35C1D SWAP6 PUSH1 0x3 SWAP4 PUSH2 0x36D0 DUP12 DUP11 PUSH2 0x48DE JUMP JUMPDEST PUSH0 MSTORE DUP7 MSTORE DUP12 DUP3 PUSH0 KECCAK256 ADD SLOAD AND ISZERO PUSH2 0x3742 JUMPI JUMPDEST DUP1 MLOAD SWAP4 PUSH2 0x36ED DUP6 PUSH2 0x3A13 JUMP JUMPDEST TIMESTAMP DUP6 MSTORE DUP6 DUP6 ADD SWAP1 DUP2 MSTORE DUP2 DUP6 ADD SWAP2 DUP10 DUP4 MSTORE PUSH1 0x60 SWAP7 DUP8 DUP8 ADD SWAP5 DUP6 MSTORE DUP10 PUSH0 MSTORE PUSH1 0xF DUP2 MSTORE DUP2 PUSH0 KECCAK256 SWAP1 DUP13 PUSH0 MSTORE MSTORE PUSH0 KECCAK256 SWAP5 MLOAD DUP6 SSTORE MLOAD DUP12 DUP6 ADD SSTORE MLOAD PUSH1 0x2 DUP5 ADD SSTORE MLOAD SWAP2 ADD SSTORE DUP12 MLOAD DUP10 DUP2 MSTORE DUP12 DUP12 DUP3 ADD MSTORE TIMESTAMP DUP14 DUP3 ADD MSTORE LOG4 JUMPDEST ADD SWAP8 PUSH2 0x365D JUMP JUMPDEST PUSH2 0x3755 DUP9 PUSH2 0x374E PUSH2 0x4103 JUMP JUMPDEST DUP12 DUP11 PUSH2 0x46C9 JUMP JUMPDEST PUSH2 0x36E1 JUMP JUMPDEST POP POP POP POP POP POP POP POP POP PUSH2 0x373B JUMP JUMPDEST PUSH1 0x11 DUP10 PUSH4 0x4E487B71 PUSH1 0xE0 SHL PUSH0 MSTORE MSTORE PUSH1 0x24 PUSH0 REVERT JUMPDEST EQ SWAP2 POP PUSH2 0x364D SWAP1 POP JUMPI DUP5 MLOAD PUSH3 0x461BCD PUSH1 0xE5 SHL DUP2 MSTORE DUP1 DUP11 ADD DUP5 SWAP1 MSTORE PUSH1 0x35 PUSH1 0x24 DUP3 ADD MSTORE PUSH32 0x47756573742077616C6C657420616C7265616479207265676973746572656420 PUSH1 0x44 DUP3 ADD MSTORE PUSH21 0x746F20646966666572656E74206964656E74697479 PUSH1 0x58 SHL PUSH1 0x64 DUP3 ADD MSTORE PUSH1 0x84 SWAP1 REVERT JUMPDEST DUP7 MLOAD PUSH3 0x461BCD PUSH1 0xE5 SHL DUP2 MSTORE DUP1 DUP13 ADD DUP7 SWAP1 MSTORE PUSH1 0x19 PUSH1 0x24 DUP3 ADD MSTORE PUSH32 0x4475726174696F6E206D75737420626520706F73697469766500000000000000 PUSH1 0x44 DUP3 ADD MSTORE PUSH1 0x64 SWAP1 REVERT JUMPDEST DUP7 MLOAD PUSH3 0x461BCD PUSH1 0xE5 SHL DUP2 MSTORE DUP1 DUP13 ADD DUP7 SWAP1 MSTORE PUSH1 0x10 PUSH1 0x24 DUP3 ADD MSTORE PUSH16 0x125B9D985B1A590819DD595CDD081251 PUSH1 0x82 SHL PUSH1 0x44 DUP3 ADD MSTORE PUSH1 0x64 SWAP1 REVERT JUMPDEST DUP7 MLOAD PUSH3 0x461BCD PUSH1 0xE5 SHL DUP2 MSTORE DUP1 DUP13 ADD DUP7 SWAP1 MSTORE PUSH1 0x14 PUSH1 0x24 DUP3 ADD MSTORE PUSH20 0x125B9D985B1A590819DD595CDD081DD85B1B195D PUSH1 0x62 SHL PUSH1 0x44 DUP3 ADD MSTORE PUSH1 0x64 SWAP1 REVERT JUMPDEST DUP3 CALLVALUE PUSH2 0x348 JUMPI DUP1 PUSH1 0x3 NOT CALLDATASIZE ADD SLT PUSH2 0x348 JUMPI PUSH2 0x1026 PUSH1 0x20 SWAP3 PUSH2 0x38B7 PUSH2 0x39CE JUMP JUMPDEST SWAP1 CALLDATALOAD PUSH2 0x3F76 JUMP JUMPDEST SWAP1 POP CALLVALUE PUSH2 0x348 JUMPI PUSH1 0x20 SWAP1 PUSH1 0x20 PUSH1 0x3 NOT CALLDATASIZE ADD SLT PUSH2 0x348 JUMPI CALLDATALOAD PUSH0 MSTORE PUSH1 0x9 PUSH1 0x20 MSTORE DUP2 PUSH0 KECCAK256 SWAP2 DUP1 MLOAD SWAP2 DUP3 PUSH1 0x20 DUP6 SLOAD SWAP2 DUP3 DUP2 MSTORE ADD SWAP5 PUSH0 MSTORE PUSH1 0x20 PUSH0 KECCAK256 SWAP2 PUSH0 SWAP1 JUMPDEST DUP3 DUP3 LT PUSH2 0x3910 JUMPI PUSH2 0x5C8 DUP7 DUP7 PUSH2 0x653 DUP3 DUP12 SUB DUP4 PUSH2 0x3A49 JUMP JUMPDEST DUP4 SLOAD DUP8 MSTORE SWAP6 DUP7 ADD SWAP6 PUSH1 0x1 SWAP4 DUP5 ADD SWAP4 SWAP1 SWAP2 ADD SWAP1 PUSH2 0x38F8 JUMP JUMPDEST DUP3 CALLVALUE PUSH2 0x348 JUMPI PUSH2 0x536 SWAP1 PUSH2 0x393A CALLDATASIZE PUSH2 0x3B44 JUMP JUMPDEST SWAP2 SWAP1 SWAP3 PUSH2 0x3949 PUSH2 0x3E7 CALLER PUSH2 0x45C2 JUMP JUMPDEST PUSH2 0x3956 DUP3 MLOAD DUP5 MLOAD EQ PUSH2 0x3EE6 JUMP JUMPDEST CALLER PUSH0 SWAP1 DUP2 MSTORE PUSH1 0x1 PUSH1 0x20 MSTORE DUP2 DUP2 KECCAK256 SLOAD PUSH1 0x1 PUSH1 0x1 PUSH1 0xA0 SHL SUB SWAP1 SWAP6 AND DUP2 MSTORE KECCAK256 SLOAD SWAP1 PUSH2 0x397F DUP3 ISZERO ISZERO PUSH2 0x3F2A JUMP JUMPDEST PUSH2 0x464A JUMP JUMPDEST DUP4 SWAP1 CALLVALUE PUSH2 0x348 JUMPI PUSH1 0x20 CALLDATASIZE PUSH1 0x3 NOT ADD SLT PUSH2 0x348 JUMPI PUSH1 0x20 SWAP2 PUSH1 0x1 PUSH1 0x1 PUSH1 0xA0 SHL SUB PUSH2 0x39AA PUSH2 0x39B8 JUMP JUMPDEST AND PUSH0 MSTORE PUSH1 0x1 DUP4 MSTORE PUSH0 KECCAK256 SLOAD DUP2 MSTORE RETURN JUMPDEST PUSH1 0x4 CALLDATALOAD SWAP1 PUSH1 0x1 PUSH1 0x1 PUSH1 0xA0 SHL SUB DUP3 AND DUP3 SUB PUSH2 0x348 JUMPI JUMP JUMPDEST PUSH1 0x24 CALLDATALOAD SWAP1 PUSH1 0x1 PUSH1 0x1 PUSH1 0xA0 SHL SUB DUP3 AND DUP3 SUB PUSH2 0x348 JUMPI JUMP JUMPDEST PUSH1 0x40 DUP2 ADD SWAP1 DUP2 LT PUSH1 0x1 PUSH1 0x1 PUSH1 0x40 SHL SUB DUP3 GT OR PUSH2 0x39FF JUMPI PUSH1 0x40 MSTORE JUMP JUMPDEST PUSH4 0x4E487B71 PUSH1 0xE0 SHL PUSH0 MSTORE PUSH1 0x41 PUSH1 0x4 MSTORE PUSH1 0x24 PUSH0 REVERT JUMPDEST PUSH1 0x80 DUP2 ADD SWAP1 DUP2 LT PUSH1 0x1 PUSH1 0x1 PUSH1 0x40 SHL SUB DUP3 GT OR PUSH2 0x39FF JUMPI PUSH1 0x40 MSTORE JUMP JUMPDEST PUSH1 0x20 DUP2 ADD SWAP1 DUP2 LT PUSH1 0x1 PUSH1 0x1 PUSH1 0x40 SHL SUB DUP3 GT OR PUSH2 0x39FF JUMPI PUSH1 0x40 MSTORE JUMP JUMPDEST SWAP1 PUSH1 0x1F DUP1 NOT SWAP2 ADD AND DUP2 ADD SWAP1 DUP2 LT PUSH1 0x1 PUSH1 0x1 PUSH1 0x40 SHL SUB DUP3 GT OR PUSH2 0x39FF JUMPI PUSH1 0x40 MSTORE JUMP JUMPDEST PUSH1 0x1 PUSH1 0x1 PUSH1 0x40 SHL SUB DUP2 GT PUSH2 0x39FF JUMPI PUSH1 0x5 SHL PUSH1 0x20 ADD SWAP1 JUMP JUMPDEST SWAP1 DUP1 PUSH1 0x1F DUP4 ADD SLT ISZERO PUSH2 0x348 JUMPI PUSH1 0x20 SWAP1 DUP3 CALLDATALOAD PUSH2 0x3A9B DUP2 PUSH2 0x3A6A JUMP JUMPDEST SWAP4 PUSH2 0x3AA9 PUSH1 0x40 MLOAD SWAP6 DUP7 PUSH2 0x3A49 JUMP JUMPDEST DUP2 DUP6 MSTORE PUSH1 0x20 DUP1 DUP7 ADD SWAP3 PUSH1 0x5 SHL DUP3 ADD ADD SWAP3 DUP4 GT PUSH2 0x348 JUMPI PUSH1 0x20 ADD SWAP1 JUMPDEST DUP3 DUP3 LT PUSH2 0x3AD2 JUMPI POP POP POP POP SWAP1 JUMP JUMPDEST DUP2 CALLDATALOAD DUP2 MSTORE SWAP1 DUP4 ADD SWAP1 DUP4 ADD PUSH2 0x3AC4 JUMP JUMPDEST SWAP3 SWAP2 SWAP3 PUSH1 0x1 PUSH1 0x1 PUSH1 0x40 SHL SUB DUP3 GT PUSH2 0x39FF JUMPI PUSH1 0x40 MLOAD SWAP2 PUSH2 0x3B0A PUSH1 0x1F DUP3 ADD PUSH1 0x1F NOT AND PUSH1 0x20 ADD DUP5 PUSH2 0x3A49 JUMP JUMPDEST DUP3 SWAP5 DUP2 DUP5 MSTORE DUP2 DUP4 ADD GT PUSH2 0x348 JUMPI DUP3 DUP2 PUSH1 0x20 SWAP4 DUP5 PUSH0 SWAP7 ADD CALLDATACOPY ADD ADD MSTORE JUMP JUMPDEST SWAP1 DUP1 PUSH1 0x1F DUP4 ADD SLT ISZERO PUSH2 0x348 JUMPI DUP2 PUSH1 0x20 PUSH2 0x3B41 SWAP4 CALLDATALOAD SWAP2 ADD PUSH2 0x3AE1 JUMP JUMPDEST SWAP1 JUMP JUMPDEST PUSH1 0x60 PUSH1 0x3 NOT DUP3 ADD SLT PUSH2 0x348 JUMPI PUSH1 0x1 PUSH1 0x1 PUSH1 0x40 SHL SUB SWAP2 PUSH1 0x4 CALLDATALOAD DUP4 DUP2 GT PUSH2 0x348 JUMPI DUP3 PUSH2 0x3B70 SWAP2 PUSH1 0x4 ADD PUSH2 0x3A81 JUMP JUMPDEST SWAP3 PUSH1 0x24 SWAP3 DUP4 CALLDATALOAD PUSH1 0x1 PUSH1 0x1 PUSH1 0xA0 SHL SUB DUP2 AND DUP2 SUB PUSH2 0x348 JUMPI SWAP4 PUSH1 0x44 CALLDATALOAD SWAP3 DUP1 DUP5 GT PUSH2 0x348 JUMPI DUP3 PUSH1 0x23 DUP6 ADD SLT ISZERO PUSH2 0x348 JUMPI DUP4 PUSH1 0x4 ADD CALLDATALOAD PUSH2 0x3BAB DUP2 PUSH2 0x3A6A JUMP JUMPDEST SWAP5 PUSH2 0x3BB9 PUSH1 0x40 MLOAD SWAP7 DUP8 PUSH2 0x3A49 JUMP JUMPDEST DUP2 DUP7 MSTORE PUSH1 0x20 SWAP5 PUSH1 0x24 PUSH1 0x20 DUP9 ADD SWAP4 PUSH1 0x5 SHL DUP4 ADD ADD SWAP5 DUP2 DUP7 GT PUSH2 0x348 JUMPI PUSH1 0x24 DUP4 ADD SWAP4 JUMPDEST DUP7 DUP6 LT PUSH2 0x3BEC JUMPI POP POP POP POP POP POP POP POP SWAP1 JUMP JUMPDEST DUP5 CALLDATALOAD DUP7 DUP2 GT PUSH2 0x348 JUMPI DUP9 SWAP2 PUSH2 0x3C06 DUP6 DUP6 DUP6 SWAP5 DUP10 ADD ADD PUSH2 0x3B26 JUMP JUMPDEST DUP2 MSTORE ADD SWAP5 ADD SWAP4 PUSH2 0x3BDA JUMP JUMPDEST PUSH1 0x20 SWAP1 PUSH1 0x20 PUSH1 0x40 DUP2 DUP4 ADD SWAP3 DUP3 DUP2 MSTORE DUP6 MLOAD DUP1 SWAP5 MSTORE ADD SWAP4 ADD SWAP2 PUSH0 JUMPDEST DUP3 DUP2 LT PUSH2 0x3C38 JUMPI POP POP POP POP SWAP1 JUMP JUMPDEST DUP4 MLOAD DUP6 MSTORE SWAP4 DUP2 ADD SWAP4 SWAP3 DUP2 ADD SWAP3 PUSH1 0x1 ADD PUSH2 0x3C2A JUMP JUMPDEST PUSH1 0x40 SWAP1 PUSH1 0x3 NOT ADD SLT PUSH2 0x348 JUMPI PUSH1 0x4 CALLDATALOAD SWAP1 PUSH1 0x24 CALLDATALOAD PUSH1 0x3 DUP2 LT ISZERO PUSH2 0x348 JUMPI SWAP1 JUMP JUMPDEST PUSH1 0x40 PUSH1 0x3 NOT DUP3 ADD SLT PUSH2 0x348 JUMPI PUSH1 0x4 CALLDATALOAD SWAP1 PUSH1 0x1 PUSH1 0x1 PUSH1 0x40 SHL SUB DUP3 GT PUSH2 0x348 JUMPI PUSH2 0x3C95 SWAP2 PUSH1 0x4 ADD PUSH2 0x3A81 JUMP JUMPDEST SWAP1 PUSH1 0x24 CALLDATALOAD SWAP1 JUMP JUMPDEST PUSH1 0x60 PUSH1 0x3 NOT DUP3 ADD SLT PUSH2 0x348 JUMPI PUSH1 0x4 CALLDATALOAD SWAP2 PUSH1 0x24 CALLDATALOAD PUSH1 0x1 PUSH1 0x1 PUSH1 0xA0 SHL SUB DUP2 AND DUP2 SUB PUSH2 0x348 JUMPI SWAP2 PUSH1 0x44 CALLDATALOAD SWAP1 PUSH1 0x1 PUSH1 0x1 PUSH1 0x40 SHL SUB DUP3 GT PUSH2 0x348 JUMPI PUSH2 0x3B41 SWAP2 PUSH1 0x4 ADD PUSH2 0x3B26 JUMP JUMPDEST PUSH1 0x40 SWAP1 PUSH1 0x3 NOT ADD SLT PUSH2 0x348 JUMPI PUSH1 0x4 CALLDATALOAD SWAP1 PUSH1 0x24 CALLDATALOAD SWAP1 JUMP JUMPDEST SWAP1 PUSH1 0x1 DUP3 DUP2 SHR SWAP3 AND DUP1 ISZERO PUSH2 0x3D22 JUMPI JUMPDEST PUSH1 0x20 DUP4 LT EQ PUSH2 0x3D0E JUMPI JUMP JUMPDEST PUSH4 0x4E487B71 PUSH1 0xE0 SHL PUSH0 MSTORE PUSH1 0x22 PUSH1 0x4 MSTORE PUSH1 0x24 PUSH0 REVERT JUMPDEST SWAP2 PUSH1 0x7F AND SWAP2 PUSH2 0x3D03 JUMP JUMPDEST SWAP1 PUSH1 0x40 MLOAD SWAP2 DUP3 PUSH0 DUP3 SLOAD PUSH2 0x3D3E DUP2 PUSH2 0x3CF4 JUMP JUMPDEST SWAP1 DUP2 DUP5 MSTORE PUSH1 0x20 SWAP5 PUSH1 0x1 SWAP2 PUSH1 0x1 DUP2 AND SWAP1 DUP2 PUSH0 EQ PUSH2 0x3DAC JUMPI POP PUSH1 0x1 EQ PUSH2 0x3D6E JUMPI JUMPDEST POP POP POP PUSH2 0x3D6C SWAP3 POP SUB DUP4 PUSH2 0x3A49 JUMP JUMPDEST JUMP JUMPDEST PUSH0 SWAP1 DUP2 MSTORE DUP6 DUP2 KECCAK256 SWAP6 SWAP4 POP SWAP2 SWAP1 JUMPDEST DUP2 DUP4 LT PUSH2 0x3D94 JUMPI POP POP PUSH2 0x3D6C SWAP4 POP DUP3 ADD ADD PUSH0 DUP1 DUP1 PUSH2 0x3D5D JUMP JUMPDEST DUP6 SLOAD DUP9 DUP5 ADD DUP6 ADD MSTORE SWAP5 DUP6 ADD SWAP5 DUP8 SWAP5 POP SWAP2 DUP4 ADD SWAP2 PUSH2 0x3D7B JUMP JUMPDEST SWAP3 POP POP POP PUSH2 0x3D6C SWAP5 SWAP3 POP PUSH1 0xFF NOT AND DUP3 DUP5 ADD MSTORE ISZERO ISZERO PUSH1 0x5 SHL DUP3 ADD ADD PUSH0 DUP1 DUP1 PUSH2 0x3D5D JUMP JUMPDEST SWAP2 SWAP1 DUP3 MLOAD SWAP3 DUP4 DUP3 MSTORE PUSH0 JUMPDEST DUP5 DUP2 LT PUSH2 0x3DF8 JUMPI POP POP DUP3 PUSH0 PUSH1 0x20 DUP1 SWAP5 SWAP6 DUP5 ADD ADD MSTORE PUSH1 0x1F DUP1 NOT SWAP2 ADD AND ADD ADD SWAP1 JUMP JUMPDEST PUSH1 0x20 DUP2 DUP4 ADD DUP2 ADD MLOAD DUP5 DUP4 ADD DUP3 ADD MSTORE ADD PUSH2 0x3DD8 JUMP JUMPDEST SWAP1 PUSH2 0x3E24 PUSH1 0x20 SWAP2 SWAP5 SWAP4 SWAP5 PUSH1 0x40 DUP5 MSTORE PUSH1 0x40 DUP5 ADD SWAP1 PUSH2 0x3DCE JUMP JUMPDEST SWAP4 ISZERO ISZERO SWAP2 ADD MSTORE JUMP JUMPDEST DUP1 SLOAD DUP3 LT ISZERO PUSH2 0x3E41 JUMPI PUSH0 MSTORE PUSH1 0x20 PUSH0 KECCAK256 ADD SWAP1 PUSH0 SWAP1 JUMP JUMPDEST PUSH4 0x4E487B71 PUSH1 0xE0 SHL PUSH0 MSTORE PUSH1 0x32 PUSH1 0x4 MSTORE PUSH1 0x24 PUSH0 REVERT JUMPDEST SWAP1 PUSH1 0x6 DUP3 LT ISZERO PUSH2 0x3E62 JUMPI MSTORE JUMP JUMPDEST PUSH4 0x4E487B71 PUSH1 0xE0 SHL PUSH0 MSTORE PUSH1 0x21 PUSH1 0x4 MSTORE PUSH1 0x24 PUSH0 REVERT JUMPDEST SWAP1 PUSH1 0x3 DUP3 LT ISZERO PUSH2 0x3E62 JUMPI MSTORE JUMP JUMPDEST SWAP1 SWAP3 SWAP2 PUSH1 0x40 DUP3 ADD SWAP4 PUSH1 0x4 DUP2 LT ISZERO PUSH2 0x3E62 JUMPI DUP3 MSTORE PUSH2 0x3D6C SWAP2 PUSH1 0x20 ADD SWAP1 PUSH2 0x3E76 JUMP JUMPDEST ISZERO PUSH2 0x3EAA JUMPI JUMP JUMPDEST PUSH1 0x40 MLOAD PUSH3 0x461BCD PUSH1 0xE5 SHL DUP2 MSTORE PUSH1 0x20 PUSH1 0x4 DUP3 ADD MSTORE PUSH1 0x14 PUSH1 0x24 DUP3 ADD MSTORE PUSH20 0x2737BA1030B71030B1BA34BB329036B2B6B132B9 PUSH1 0x61 SHL PUSH1 0x44 DUP3 ADD MSTORE PUSH1 0x64 SWAP1 REVERT JUMPDEST ISZERO PUSH2 0x3EED JUMPI JUMP JUMPDEST PUSH1 0x40 MLOAD PUSH3 0x461BCD PUSH1 0xE5 SHL DUP2 MSTORE PUSH1 0x20 PUSH1 0x4 DUP3 ADD MSTORE PUSH1 0x15 PUSH1 0x24 DUP3 ADD MSTORE PUSH21 0x82E4E4C2F240D8CADCCEE8D040DAD2E6DAC2E8C6D PUSH1 0x5B SHL PUSH1 0x44 DUP3 ADD MSTORE PUSH1 0x64 SWAP1 REVERT JUMPDEST ISZERO PUSH2 0x3F31 JUMPI JUMP JUMPDEST PUSH1 0x40 MLOAD PUSH3 0x461BCD PUSH1 0xE5 SHL DUP2 MSTORE PUSH1 0x20 PUSH1 0x4 DUP3 ADD MSTORE PUSH1 0x1C PUSH1 0x24 DUP3 ADD MSTORE PUSH32 0x5461726765742077616C6C6574206E6F74207265676973746572656400000000 PUSH1 0x44 DUP3 ADD MSTORE PUSH1 0x64 SWAP1 REVERT JUMPDEST PUSH1 0x1 PUSH1 0x1 PUSH1 0xA0 SHL SUB SWAP1 SWAP2 AND PUSH0 SWAP1 DUP2 MSTORE PUSH1 0x1 PUSH1 0x20 MSTORE PUSH1 0x40 SWAP1 KECCAK256 SLOAD SWAP1 DUP2 ISZERO PUSH2 0x3FC7 JUMPI PUSH2 0x3FA8 PUSH2 0x3FA1 PUSH2 0x430B JUMP JUMPDEST DUP4 DUP4 PUSH2 0x4A43 JUMP JUMPDEST SWAP2 DUP3 ISZERO PUSH2 0x3FB4 JUMPI POP POP SWAP1 JUMP JUMPDEST PUSH2 0x3B41 SWAP3 POP PUSH2 0x3FC1 PUSH2 0x432C JUMP JUMPDEST SWAP2 PUSH2 0x4A43 JUMP JUMPDEST POP POP PUSH0 SWAP1 JUMP JUMPDEST ISZERO PUSH2 0x3FD4 JUMPI JUMP JUMPDEST PUSH1 0x40 MLOAD PUSH3 0x461BCD PUSH1 0xE5 SHL DUP2 MSTORE PUSH1 0x20 PUSH1 0x4 DUP3 ADD MSTORE PUSH1 0x13 PUSH1 0x24 DUP3 ADD MSTORE PUSH19 0x139BC81C9958DBDC991CC81C1C9BDD9A591959 PUSH1 0x6A SHL PUSH1 0x44 DUP3 ADD MSTORE PUSH1 0x64 SWAP1 REVERT JUMPDEST DUP1 SLOAD PUSH1 0x1 PUSH1 0x40 SHL DUP2 LT ISZERO PUSH2 0x39FF JUMPI PUSH2 0x402C SWAP2 PUSH1 0x1 DUP3 ADD DUP2 SSTORE PUSH2 0x3E2C JUMP JUMPDEST PUSH1 0x1 DUP1 PUSH1 0xA0 SWAP5 SWAP4 SWAP5 SHL SUB DUP1 DUP5 SLOAD SWAP3 PUSH1 0x3 SHL SWAP4 AND DUP4 SHL SWAP3 SHL NOT AND OR SWAP1 SSTORE JUMP JUMPDEST PUSH1 0x4 SLOAD PUSH1 0x1 PUSH1 0x40 SHL DUP2 LT ISZERO PUSH2 0x39FF JUMPI PUSH1 0x1 DUP2 ADD DUP1 PUSH1 0x4 SSTORE DUP2 LT ISZERO PUSH2 0x3E41 JUMPI PUSH1 0x4 PUSH0 MSTORE PUSH32 0x8A35ACFBC15FF81A39AE7D344FD709F28E8600B4AA8C65C6B64BFE7FE36BD19B ADD SSTORE JUMP JUMPDEST DUP1 SLOAD SWAP1 PUSH1 0x1 PUSH1 0x40 SHL DUP3 LT ISZERO PUSH2 0x39FF JUMPI DUP2 PUSH2 0x40B3 SWAP2 PUSH1 0x1 PUSH2 0x40C9 SWAP5 ADD DUP2 SSTORE PUSH2 0x3E2C JUMP JUMPDEST DUP2 SWAP4 SWAP2 SLOAD SWAP1 PUSH1 0x3 SHL SWAP2 DUP3 SHL SWAP2 PUSH0 NOT SWAP1 SHL NOT AND OR SWAP1 JUMP JUMPDEST SWAP1 SSTORE JUMP JUMPDEST PUSH0 NOT DUP2 EQ PUSH2 0x40DB JUMPI PUSH1 0x1 ADD SWAP1 JUMP JUMPDEST PUSH4 0x4E487B71 PUSH1 0xE0 SHL PUSH0 MSTORE PUSH1 0x11 PUSH1 0x4 MSTORE PUSH1 0x24 PUSH0 REVERT JUMPDEST DUP1 MLOAD DUP3 LT ISZERO PUSH2 0x3E41 JUMPI PUSH1 0x20 SWAP2 PUSH1 0x5 SHL ADD ADD SWAP1 JUMP JUMPDEST PUSH1 0x40 MLOAD SWAP1 PUSH2 0x4110 DUP3 PUSH2 0x39E4 JUMP JUMPDEST PUSH1 0x6 DUP3 MSTORE PUSH6 0x3B34B2BBB2B9 PUSH1 0xD1 SHL PUSH1 0x20 DUP4 ADD MSTORE JUMP JUMPDEST ISZERO PUSH2 0x412C JUMPI JUMP JUMPDEST PUSH1 0x40 MLOAD PUSH3 0x461BCD PUSH1 0xE5 SHL DUP2 MSTORE PUSH1 0x20 PUSH1 0x4 DUP3 ADD MSTORE PUSH1 0xA PUSH1 0x24 DUP3 ADD MSTORE PUSH10 0x27B7363C9030B236B4B7 PUSH1 0xB1 SHL PUSH1 0x44 DUP3 ADD MSTORE PUSH1 0x64 SWAP1 REVERT JUMPDEST ISZERO PUSH2 0x4165 JUMPI JUMP JUMPDEST PUSH1 0x40 MLOAD PUSH3 0x461BCD PUSH1 0xE5 SHL DUP2 MSTORE PUSH1 0x20 PUSH1 0x4 DUP3 ADD MSTORE PUSH1 0x15 PUSH1 0x24 DUP3 ADD MSTORE PUSH21 0x15D85B1B195D081B9BDD081C9959DA5CDD195C9959 PUSH1 0x5A SHL PUSH1 0x44 DUP3 ADD MSTORE PUSH1 0x64 SWAP1 REVERT JUMPDEST PUSH1 0x4 DUP3 LT ISZERO PUSH2 0x3E62 JUMPI MSTORE JUMP JUMPDEST PUSH1 0x3 DUP3 LT ISZERO PUSH2 0x3E62 JUMPI MSTORE JUMP JUMPDEST SWAP1 PUSH1 0x3 DUP2 LT ISZERO PUSH2 0x3E62 JUMPI PUSH2 0xFF00 DUP3 SLOAD SWAP2 PUSH1 0x8 SHL AND SWAP1 PUSH2 0xFF00 NOT AND OR SWAP1 SSTORE JUMP JUMPDEST ISZERO PUSH2 0x41E0 JUMPI JUMP JUMPDEST PUSH1 0x40 MLOAD PUSH3 0x461BCD PUSH1 0xE5 SHL DUP2 MSTORE PUSH1 0x20 PUSH1 0x4 DUP3 ADD MSTORE PUSH1 0x1E PUSH1 0x24 DUP3 ADD MSTORE PUSH32 0x5265636F726420494420686173682063616E6E6F7420626520656D7074790000 PUSH1 0x44 DUP3 ADD MSTORE PUSH1 0x64 SWAP1 REVERT JUMPDEST ISZERO PUSH2 0x422C JUMPI JUMP JUMPDEST PUSH1 0x40 MLOAD PUSH3 0x461BCD PUSH1 0xE5 SHL DUP2 MSTORE PUSH1 0x20 PUSH1 0x4 DUP3 ADD MSTORE PUSH1 0x1D PUSH1 0x24 DUP3 ADD MSTORE PUSH32 0x57616C6C657420616464726573732063616E6E6F74206265207A65726F000000 PUSH1 0x44 DUP3 ADD MSTORE PUSH1 0x64 SWAP1 REVERT JUMPDEST ISZERO PUSH2 0x4278 JUMPI JUMP JUMPDEST PUSH1 0x40 MLOAD PUSH3 0x461BCD PUSH1 0xE5 SHL DUP2 MSTORE PUSH1 0x20 PUSH1 0x4 DUP3 ADD MSTORE PUSH1 0x13 PUSH1 0x24 DUP3 ADD MSTORE PUSH19 0x496E76616C696420726F6C6520737472696E67 PUSH1 0x68 SHL PUSH1 0x44 DUP3 ADD MSTORE PUSH1 0x64 SWAP1 REVERT JUMPDEST ISZERO PUSH2 0x42BA JUMPI JUMP JUMPDEST PUSH1 0x40 MLOAD PUSH3 0x461BCD PUSH1 0xE5 SHL DUP2 MSTORE PUSH1 0x20 PUSH1 0x4 DUP3 ADD MSTORE PUSH1 0x23 PUSH1 0x24 DUP3 ADD MSTORE PUSH32 0x54617267657420646F6573206E6F74206861766520616E206163746976652072 PUSH1 0x44 DUP3 ADD MSTORE PUSH3 0x6F6C65 PUSH1 0xE8 SHL PUSH1 0x64 DUP3 ADD MSTORE PUSH1 0x84 SWAP1 REVERT JUMPDEST PUSH1 0x40 MLOAD SWAP1 PUSH2 0x4318 DUP3 PUSH2 0x39E4 JUMP JUMPDEST PUSH1 0x5 DUP3 MSTORE PUSH5 0x37BBB732B9 PUSH1 0xD9 SHL PUSH1 0x20 DUP4 ADD MSTORE JUMP JUMPDEST PUSH1 0x40 MLOAD SWAP1 PUSH2 0x4339 DUP3 PUSH2 0x39E4 JUMP JUMPDEST PUSH1 0xD DUP3 MSTORE PUSH13 0x30B236B4B734B9BA3930BA37B9 PUSH1 0x99 SHL PUSH1 0x20 DUP4 ADD MSTORE JUMP JUMPDEST SWAP4 SWAP3 SWAP2 PUSH2 0x437E SWAP1 PUSH2 0x4370 PUSH1 0x40 SWAP4 PUSH1 0x60 DUP9 MSTORE PUSH1 0x60 DUP9 ADD SWAP1 PUSH2 0x3DCE JUMP JUMPDEST SWAP1 DUP7 DUP3 SUB PUSH1 0x20 DUP9 ADD MSTORE PUSH2 0x3DCE JUMP JUMPDEST SWAP4 ADD MSTORE JUMP JUMPDEST SWAP2 SWAP1 PUSH1 0x1 DUP1 PUSH1 0xA0 SHL SUB AND PUSH0 MSTORE PUSH1 0x1 PUSH1 0x20 MSTORE PUSH1 0x40 PUSH0 KECCAK256 SLOAD DUP1 ISZERO PUSH2 0x43A8 JUMPI PUSH2 0x3B41 SWAP3 PUSH2 0x4A43 JUMP JUMPDEST POP POP POP PUSH0 SWAP1 JUMP JUMPDEST PUSH1 0x1 PUSH1 0x1 PUSH1 0xA0 SHL SUB SWAP1 SWAP2 AND PUSH0 SWAP1 DUP2 MSTORE PUSH1 0x1 PUSH1 0x20 MSTORE PUSH1 0x40 SWAP1 KECCAK256 SLOAD SWAP1 DUP2 ISZERO PUSH2 0x4411 JUMPI PUSH1 0x20 SWAP3 SWAP2 PUSH2 0x43DC SWAP2 PUSH2 0x48DE JUMP JUMPDEST PUSH0 MSTORE PUSH1 0x6 DUP3 MSTORE PUSH1 0x40 PUSH0 KECCAK256 PUSH1 0x40 MLOAD PUSH2 0x43F2 DUP2 PUSH2 0x39E4 JUMP JUMPDEST PUSH1 0xFF PUSH1 0x1 PUSH2 0x43FF DUP5 PUSH2 0x3D2C JUMP JUMPDEST SWAP4 DUP5 DUP5 MSTORE ADD SLOAD AND ISZERO ISZERO SWAP4 DUP5 SWAP2 ADD MSTORE SWAP2 SWAP1 JUMP JUMPDEST POP POP PUSH1 0x40 MLOAD PUSH2 0x441F DUP2 PUSH2 0x3A2E JUMP JUMPDEST PUSH0 DUP2 MSTORE SWAP1 PUSH0 SWAP1 JUMP JUMPDEST ISZERO PUSH2 0x442E JUMPI JUMP JUMPDEST PUSH1 0x40 MLOAD PUSH3 0x461BCD PUSH1 0xE5 SHL DUP2 MSTORE PUSH1 0x20 PUSH1 0x4 DUP3 ADD MSTORE PUSH1 0x16 PUSH1 0x24 DUP3 ADD MSTORE PUSH22 0x496E76616C69642077616C6C65742061646472657373 PUSH1 0x50 SHL PUSH1 0x44 DUP3 ADD MSTORE PUSH1 0x64 SWAP1 REVERT JUMPDEST ISZERO PUSH2 0x4473 JUMPI JUMP JUMPDEST PUSH1 0x40 MLOAD PUSH3 0x461BCD PUSH1 0xE5 SHL DUP2 MSTORE PUSH1 0x20 PUSH1 0x4 DUP3 ADD MSTORE PUSH1 0x14 PUSH1 0x24 DUP3 ADD MSTORE PUSH20 0x92DCECC2D8D2C840EAE6CAE440928840D0C2E6D PUSH1 0x63 SHL PUSH1 0x44 DUP3 ADD MSTORE PUSH1 0x64 SWAP1 REVERT JUMPDEST ISZERO PUSH2 0x44B6 JUMPI JUMP JUMPDEST PUSH1 0x40 MLOAD PUSH3 0x461BCD PUSH1 0xE5 SHL DUP2 MSTORE PUSH1 0x20 PUSH1 0x4 DUP3 ADD MSTORE PUSH1 0x19 PUSH1 0x24 DUP3 ADD MSTORE PUSH32 0x57616C6C657420616C7265616479207265676973746572656400000000000000 PUSH1 0x44 DUP3 ADD MSTORE PUSH1 0x64 SWAP1 REVERT JUMPDEST ISZERO PUSH2 0x4502 JUMPI JUMP JUMPDEST PUSH1 0x40 MLOAD PUSH3 0x461BCD PUSH1 0xE5 SHL DUP2 MSTORE PUSH1 0x20 PUSH1 0x4 DUP3 ADD MSTORE PUSH1 0xF PUSH1 0x24 DUP3 ADD MSTORE PUSH15 0x496E76616C69642061646472657373 PUSH1 0x88 SHL PUSH1 0x44 DUP3 ADD MSTORE PUSH1 0x64 SWAP1 REVERT JUMPDEST ISZERO PUSH2 0x4540 JUMPI JUMP JUMPDEST PUSH1 0x40 MLOAD PUSH3 0x461BCD PUSH1 0xE5 SHL DUP2 MSTORE PUSH1 0x20 PUSH1 0x4 DUP3 ADD MSTORE PUSH1 0x1E PUSH1 0x24 DUP3 ADD MSTORE PUSH32 0x4E6F2061637469766520747275737465652072656C6174696F6E736869700000 PUSH1 0x44 DUP3 ADD MSTORE PUSH1 0x64 SWAP1 REVERT JUMPDEST PUSH1 0x1 PUSH1 0x1 PUSH1 0xA0 SHL SUB SWAP1 SWAP2 AND PUSH0 SWAP1 DUP2 MSTORE PUSH1 0x1 PUSH1 0x20 MSTORE PUSH1 0x40 SWAP1 KECCAK256 SLOAD DUP1 ISZERO PUSH2 0x3FC7 JUMPI PUSH2 0x45AD SWAP2 PUSH2 0x48DE JUMP JUMPDEST PUSH0 MSTORE PUSH1 0x6 PUSH1 0x20 MSTORE PUSH1 0xFF PUSH1 0x1 PUSH1 0x40 PUSH0 KECCAK256 ADD SLOAD AND SWAP1 JUMP JUMPDEST PUSH1 0x1 PUSH1 0x1 PUSH1 0xA0 SHL SUB AND PUSH0 SWAP1 DUP2 MSTORE PUSH1 0x1 PUSH1 0x20 MSTORE PUSH1 0x40 SWAP1 KECCAK256 DUP1 SLOAD SWAP1 DUP2 ISZERO SWAP1 DUP2 ISZERO PUSH2 0x463A JUMPI JUMPDEST POP PUSH2 0x4635 JUMPI PUSH0 MSTORE PUSH1 0x2 PUSH1 0x20 MSTORE PUSH1 0xFF PUSH1 0x40 PUSH0 KECCAK256 SLOAD AND PUSH1 0x6 DUP2 LT ISZERO SWAP1 DUP2 PUSH2 0x3E62 JUMPI PUSH1 0x2 DUP2 EQ SWAP2 DUP3 ISZERO PUSH2 0x4628 JUMPI JUMPDEST DUP3 ISZERO PUSH2 0x461B JUMPI POP POP SWAP1 JUMP JUMPDEST SWAP1 SWAP2 POP PUSH2 0x3E62 JUMPI PUSH1 0x4 EQ SWAP1 JUMP JUMPDEST POP PUSH1 0x3 DUP2 EQ SWAP2 POP PUSH0 PUSH2 0x4610 JUMP JUMPDEST POP PUSH0 SWAP1 JUMP JUMPDEST PUSH1 0xFF SWAP2 POP PUSH1 0x1 ADD SLOAD AND ISZERO PUSH0 PUSH2 0x45E5 JUMP JUMPDEST SWAP4 SWAP3 SWAP4 PUSH0 JUMPDEST DUP2 MLOAD DUP2 LT ISZERO PUSH2 0x46B7 JUMPI DUP1 PUSH2 0x4668 PUSH2 0x23EF PUSH1 0x1 SWAP4 DUP8 PUSH2 0x40EF JUMP JUMPDEST ISZERO PUSH2 0x46B2 JUMPI PUSH2 0x467B DUP8 PUSH2 0x446 DUP4 DUP7 PUSH2 0x40EF JUMP JUMPDEST ISZERO PUSH2 0x46B2 JUMPI PUSH2 0x468E DUP5 PUSH2 0x446 DUP4 DUP7 PUSH2 0x40EF JUMP JUMPDEST PUSH2 0x46B2 JUMPI PUSH2 0x46AC DUP8 PUSH2 0x46A0 DUP4 DUP7 PUSH2 0x40EF JUMP JUMPDEST MLOAD DUP7 PUSH2 0x2462 DUP6 DUP11 PUSH2 0x40EF JUMP JUMPDEST ADD PUSH2 0x464F JUMP JUMPDEST PUSH2 0x46AC JUMP JUMPDEST POP POP POP POP SWAP1 POP JUMP JUMPDEST SWAP1 PUSH2 0x45AD SWAP2 PUSH2 0x48DE JUMP JUMPDEST SWAP3 SWAP2 SWAP3 PUSH2 0x46D6 DUP3 DUP3 PUSH2 0x48DE JUMP JUMPDEST SWAP4 DUP5 PUSH0 MSTORE PUSH1 0x20 PUSH1 0x6 DUP2 MSTORE PUSH1 0x40 SWAP1 DUP2 PUSH0 KECCAK256 SWAP7 PUSH2 0x46F0 DUP9 PUSH2 0x3D2C JUMP JUMPDEST SWAP8 DUP9 MLOAD ISZERO SWAP2 PUSH1 0xFF PUSH1 0x1 DUP1 SWAP4 ADD SLOAD AND SWAP2 DUP6 MLOAD SWAP1 PUSH2 0x470B DUP3 PUSH2 0x39E4 JUMP JUMPDEST DUP8 DUP3 MSTORE DUP6 DUP3 ADD DUP2 DUP2 MSTORE DUP4 PUSH0 MSTORE PUSH1 0x6 DUP8 MSTORE DUP8 PUSH0 KECCAK256 SWAP3 MLOAD DUP1 MLOAD SWAP1 PUSH1 0x1 PUSH1 0x1 PUSH1 0x40 SHL SUB DUP3 GT PUSH2 0x39FF JUMPI PUSH2 0x473B DUP6 SLOAD PUSH2 0x3CF4 JUMP JUMPDEST PUSH1 0x1F DUP2 GT PUSH2 0x4898 JUMPI JUMPDEST POP DUP9 SWAP1 PUSH1 0x1F DUP4 GT PUSH1 0x1 EQ PUSH2 0x484A JUMPI PUSH2 0x4789 SWAP6 SWAP5 SWAP4 SWAP3 SWAP2 PUSH0 SWAP2 DUP4 PUSH2 0x1E5E JUMPI POP POP PUSH0 NOT PUSH1 0x3 DUP4 SWAP1 SHL SHR NOT AND SWAP1 DUP4 SHL OR DUP4 SSTORE MLOAD ISZERO ISZERO SWAP2 ADD SWAP1 PUSH1 0xFF DUP1 NOT DUP4 SLOAD AND SWAP2 ISZERO ISZERO AND OR SWAP1 SSTORE JUMP JUMPDEST PUSH0 MSTORE PUSH1 0xD DUP4 MSTORE DUP8 DUP5 PUSH0 KECCAK256 SSTORE ISZERO PUSH0 EQ PUSH2 0x4815 JUMPI DUP6 SWAP7 SWAP8 POP PUSH2 0x47CC DUP5 DUP7 SWAP8 PUSH32 0xF9D17EB1340AB78960B594FF8BED1349985B800EE21199C6D5EA4A67454593AD SWAP8 PUSH2 0x4C2E JUMP JUMPDEST PUSH2 0x47EF JUMPI JUMPDEST PUSH2 0x47E4 DUP3 MLOAD SWAP4 DUP4 DUP6 SWAP5 DUP6 MSTORE DUP5 ADD SWAP1 PUSH2 0x3DCE JUMP JUMPDEST SWAP1 TIMESTAMP SWAP1 DUP4 ADD MSTORE SUB SWAP1 LOG4 JUMP JUMPDEST DUP6 PUSH0 MSTORE PUSH1 0xA DUP2 MSTORE PUSH2 0x4802 DUP6 DUP4 PUSH0 KECCAK256 PUSH2 0x4091 JUMP JUMPDEST PUSH2 0x480D PUSH1 0xB SLOAD PUSH2 0x40CD JUMP JUMPDEST PUSH1 0xB SSTORE PUSH2 0x47D1 JUMP JUMPDEST POP SWAP2 SWAP5 POP POP DUP5 MLOAD DUP2 DUP7 ADD KECCAK256 SWAP1 DUP5 MLOAD SWAP1 DUP6 ADD KECCAK256 SUB PUSH2 0x4833 JUMPI JUMPDEST POP POP POP POP JUMP JUMPDEST PUSH2 0x1E59 PUSH2 0x4841 SWAP5 DUP4 DUP4 PUSH2 0x4912 JUMP JUMPDEST PUSH0 DUP1 DUP1 DUP1 PUSH2 0x482D JUMP JUMPDEST SWAP1 PUSH1 0x1F NOT DUP4 AND SWAP2 DUP7 PUSH0 MSTORE DUP11 PUSH0 KECCAK256 SWAP3 PUSH0 JUMPDEST DUP13 DUP3 DUP3 LT PUSH2 0x4884 JUMPI POP POP SWAP2 DUP7 SWAP6 SWAP5 SWAP3 SWAP2 DUP4 PUSH2 0x4789 SWAP10 SWAP9 SWAP6 SWAP4 LT PUSH2 0x1EA4 JUMPI POP POP POP DUP2 SHL ADD DUP4 SSTORE PUSH2 0x1D99 JUMP JUMPDEST DUP4 DUP6 ADD MLOAD DUP7 SSTORE SWAP5 DUP9 ADD SWAP5 SWAP4 DUP5 ADD SWAP4 ADD PUSH2 0x485A JUMP JUMPDEST DUP6 PUSH0 MSTORE DUP10 PUSH0 KECCAK256 PUSH1 0x1F DUP5 ADD PUSH1 0x5 SHR DUP2 ADD SWAP2 DUP12 DUP6 LT PUSH2 0x48D4 JUMPI JUMPDEST PUSH1 0x1F ADD PUSH1 0x5 SHR ADD SWAP1 DUP6 SWAP1 JUMPDEST DUP3 DUP2 LT PUSH2 0x48C9 JUMPI POP POP PUSH2 0x4744 JUMP JUMPDEST PUSH0 DUP2 SSTORE ADD DUP6 SWAP1 PUSH2 0x48BB JUMP JUMPDEST SWAP1 SWAP2 POP DUP2 SWAP1 PUSH2 0x48B0 JUMP JUMPDEST SWAP1 PUSH1 0x40 MLOAD SWAP1 PUSH1 0x20 DUP3 ADD SWAP3 DUP4 MSTORE PUSH1 0x40 DUP3 ADD MSTORE PUSH1 0x40 DUP2 MSTORE PUSH1 0x60 DUP2 ADD DUP2 DUP2 LT PUSH1 0x1 PUSH1 0x1 PUSH1 0x40 SHL SUB DUP3 GT OR PUSH2 0x39FF JUMPI PUSH1 0x40 MSTORE MLOAD SWAP1 KECCAK256 SWAP1 JUMP JUMPDEST DUP3 MLOAD PUSH1 0x20 DUP1 SWAP5 ADD KECCAK256 PUSH2 0x4922 PUSH2 0x430B JUMP JUMPDEST DUP1 MLOAD SWAP1 DUP6 ADD KECCAK256 DUP2 SUB PUSH2 0x4942 JUMPI POP PUSH2 0x3D6C SWAP3 PUSH1 0x7 SWAP2 PUSH0 MSTORE MSTORE PUSH1 0x40 PUSH0 KECCAK256 PUSH2 0x4CB1 JUMP JUMPDEST PUSH2 0x494A PUSH2 0x432C JUMP JUMPDEST DUP1 MLOAD SWAP1 DUP6 ADD KECCAK256 DUP2 SUB PUSH2 0x496A JUMPI POP PUSH2 0x3D6C SWAP3 PUSH1 0x8 SWAP2 PUSH0 MSTORE MSTORE PUSH1 0x40 PUSH0 KECCAK256 PUSH2 0x4CB1 JUMP JUMPDEST PUSH2 0x4972 PUSH2 0x4103 JUMP JUMPDEST DUP5 DUP2 MLOAD SWAP2 ADD KECCAK256 EQ PUSH2 0x4982 JUMPI POP POP POP JUMP JUMPDEST PUSH2 0x3D6C SWAP3 PUSH1 0x9 SWAP2 PUSH0 MSTORE MSTORE PUSH1 0x40 PUSH0 KECCAK256 PUSH2 0x4CB1 JUMP JUMPDEST PUSH1 0x1 PUSH1 0x1 PUSH1 0xA0 SHL SUB AND PUSH0 SWAP1 DUP2 MSTORE PUSH1 0x1 PUSH1 0x20 MSTORE PUSH1 0x40 SWAP1 KECCAK256 DUP1 SLOAD SWAP1 DUP2 ISZERO SWAP1 DUP2 ISZERO PUSH2 0x49DB JUMPI JUMPDEST POP PUSH2 0x4635 JUMPI PUSH0 MSTORE PUSH1 0x2 PUSH1 0x20 MSTORE PUSH1 0xFF PUSH1 0x40 PUSH0 KECCAK256 SLOAD AND PUSH1 0x6 DUP2 LT ISZERO PUSH2 0x3E62 JUMPI PUSH1 0x4 EQ SWAP1 JUMP JUMPDEST PUSH1 0xFF SWAP2 POP PUSH1 0x1 ADD SLOAD AND ISZERO PUSH0 PUSH2 0x49B8 JUMP JUMPDEST PUSH1 0x20 DUP2 MLOAD SWAP2 ADD KECCAK256 PUSH2 0x49FA PUSH2 0x430B JUMP JUMPDEST PUSH1 0x20 DUP2 MLOAD SWAP2 ADD KECCAK256 DUP2 EQ SWAP1 DUP2 ISZERO PUSH2 0x4A2A JUMPI JUMPDEST DUP2 ISZERO PUSH2 0x4A15 JUMPI POP SWAP1 JUMP JUMPDEST SWAP1 POP PUSH2 0x4A1F PUSH2 0x4103 JUMP JUMPDEST PUSH1 0x20 DUP2 MLOAD SWAP2 ADD KECCAK256 EQ SWAP1 JUMP JUMPDEST SWAP1 POP PUSH2 0x4A34 PUSH2 0x432C JUMP JUMPDEST PUSH1 0x20 DUP2 MLOAD SWAP2 ADD KECCAK256 DUP2 EQ SWAP1 PUSH2 0x4A0B JUMP JUMPDEST PUSH1 0x20 SWAP3 SWAP2 PUSH2 0x4A50 SWAP2 PUSH2 0x48DE JUMP JUMPDEST PUSH0 MSTORE PUSH1 0x6 DUP3 MSTORE PUSH1 0x40 PUSH0 KECCAK256 PUSH1 0x40 MLOAD PUSH2 0x4A66 DUP2 PUSH2 0x39E4 JUMP JUMPDEST PUSH1 0xFF PUSH1 0x1 PUSH2 0x4A73 DUP5 PUSH2 0x3D2C JUMP JUMPDEST SWAP4 DUP5 DUP5 MSTORE ADD SLOAD AND ISZERO ISZERO SWAP4 DUP5 SWAP2 ADD MSTORE DUP3 PUSH2 0x4A8B JUMPI POP POP SWAP1 JUMP JUMPDEST SWAP1 SWAP2 POP PUSH1 0x20 DUP2 MLOAD SWAP2 ADD KECCAK256 SWAP1 PUSH1 0x20 DUP2 MLOAD SWAP2 ADD KECCAK256 EQ SWAP1 JUMP JUMPDEST PUSH1 0xC SLOAD PUSH1 0x1 PUSH1 0x1 PUSH1 0xA0 SHL SUB AND SWAP2 DUP3 ISZERO PUSH2 0x43A8 JUMPI PUSH1 0x44 PUSH1 0x20 SWAP3 PUSH1 0x40 MLOAD SWAP5 DUP6 SWAP4 DUP5 SWAP3 PUSH4 0x193D8E75 PUSH1 0xE2 SHL DUP5 MSTORE PUSH1 0x4 DUP5 ADD MSTORE PUSH1 0x24 DUP4 ADD MSTORE GAS STATICCALL SWAP1 DUP2 ISZERO PUSH2 0x4B20 JUMPI PUSH0 SWAP2 PUSH2 0x4AE8 JUMPI POP SWAP1 JUMP JUMPDEST SWAP1 POP PUSH1 0x20 DUP2 RETURNDATASIZE PUSH1 0x20 GT PUSH2 0x4B18 JUMPI JUMPDEST DUP2 PUSH2 0x4B03 PUSH1 0x20 SWAP4 DUP4 PUSH2 0x3A49 JUMP JUMPDEST DUP2 ADD SUB SLT PUSH2 0x348 JUMPI MLOAD DUP1 ISZERO ISZERO DUP2 SUB PUSH2 0x348 JUMPI SWAP1 JUMP JUMPDEST RETURNDATASIZE SWAP2 POP PUSH2 0x4AF6 JUMP JUMPDEST PUSH1 0x40 MLOAD RETURNDATASIZE PUSH0 DUP3 RETURNDATACOPY RETURNDATASIZE SWAP1 REVERT JUMPDEST PUSH1 0x3 DUP4 LT ISZERO PUSH2 0x3E62 JUMPI DUP3 ISZERO PUSH2 0x4B76 JUMPI PUSH1 0x1 SWAP2 PUSH2 0x4B46 SWAP2 PUSH2 0x4BD7 JUMP JUMPDEST SWAP2 EQ PUSH2 0x4B4F JUMPI SWAP1 JUMP JUMPDEST DUP1 MLOAD PUSH1 0x20 DUP3 ADD KECCAK256 PUSH2 0x4B5E PUSH2 0x430B JUMP JUMPDEST PUSH1 0x20 DUP2 MLOAD SWAP2 ADD KECCAK256 EQ PUSH2 0x4B6D JUMPI SWAP1 JUMP JUMPDEST POP PUSH2 0x3B41 PUSH2 0x432C JUMP JUMPDEST POP POP POP PUSH2 0x3B41 PUSH2 0x4103 JUMP JUMPDEST PUSH1 0x1 PUSH1 0x1 PUSH1 0xA0 SHL SUB AND PUSH0 SWAP1 DUP2 MSTORE PUSH1 0x1 PUSH1 0x20 MSTORE PUSH1 0x40 SWAP1 KECCAK256 DUP1 SLOAD SWAP1 DUP2 ISZERO SWAP1 DUP2 ISZERO PUSH2 0x4BC7 JUMPI JUMPDEST POP PUSH2 0x4635 JUMPI PUSH0 MSTORE PUSH1 0x2 PUSH1 0x20 MSTORE PUSH1 0xFF PUSH1 0x40 PUSH0 KECCAK256 SLOAD AND PUSH1 0x6 DUP2 LT ISZERO PUSH2 0x3E62 JUMPI PUSH1 0x3 EQ SWAP1 JUMP JUMPDEST PUSH1 0xFF SWAP2 POP PUSH1 0x1 ADD SLOAD AND ISZERO PUSH0 PUSH2 0x4BA4 JUMP JUMPDEST SWAP1 PUSH2 0x4BE1 SWAP2 PUSH2 0x48DE JUMP JUMPDEST PUSH0 MSTORE PUSH1 0x6 PUSH1 0x20 MSTORE PUSH1 0x40 PUSH0 KECCAK256 PUSH1 0xFF PUSH1 0x1 PUSH1 0x40 MLOAD SWAP3 PUSH2 0x4BFD DUP5 PUSH2 0x39E4 JUMP JUMPDEST PUSH2 0x4C06 DUP2 PUSH2 0x3D2C JUMP JUMPDEST DUP5 MSTORE ADD SLOAD AND ISZERO DUP1 ISZERO PUSH1 0x20 DUP4 ADD MSTORE PUSH2 0x4C1B JUMPI MLOAD SWAP1 JUMP JUMPDEST POP PUSH1 0x40 MLOAD PUSH2 0x4C28 DUP2 PUSH2 0x3A2E JUMP JUMPDEST PUSH0 DUP2 MSTORE SWAP1 JUMP JUMPDEST DUP3 MLOAD PUSH1 0x20 DUP1 SWAP5 ADD KECCAK256 PUSH2 0x4C3E PUSH2 0x430B JUMP JUMPDEST DUP1 MLOAD SWAP1 DUP6 ADD KECCAK256 DUP2 SUB PUSH2 0x4C5E JUMPI POP PUSH2 0x3D6C SWAP3 PUSH1 0x7 SWAP2 PUSH0 MSTORE MSTORE PUSH1 0x40 PUSH0 KECCAK256 PUSH2 0x4091 JUMP JUMPDEST PUSH2 0x4C66 PUSH2 0x432C JUMP JUMPDEST DUP1 MLOAD SWAP1 DUP6 ADD KECCAK256 DUP2 SUB PUSH2 0x4C86 JUMPI POP PUSH2 0x3D6C SWAP3 PUSH1 0x8 SWAP2 PUSH0 MSTORE MSTORE PUSH1 0x40 PUSH0 KECCAK256 PUSH2 0x4091 JUMP JUMPDEST PUSH2 0x4C8E PUSH2 0x4103 JUMP JUMPDEST DUP5 DUP2 MLOAD SWAP2 ADD KECCAK256 EQ PUSH2 0x4C9E JUMPI POP POP POP JUMP JUMPDEST PUSH2 0x3D6C SWAP3 PUSH1 0x9 SWAP2 PUSH0 MSTORE MSTORE PUSH1 0x40 PUSH0 KECCAK256 PUSH2 0x4091 JUMP JUMPDEST PUSH0 JUMPDEST DUP2 SLOAD SWAP1 DUP2 DUP2 LT ISZERO PUSH2 0x482D JUMPI DUP4 SWAP2 PUSH2 0x4CCA DUP3 DUP6 PUSH2 0x3E2C JUMP JUMPDEST SWAP6 SWAP1 SLOAD PUSH1 0x3 SWAP7 DUP8 SHL SHR EQ PUSH2 0x4CE4 JUMPI POP SWAP1 SWAP3 POP PUSH1 0x1 ADD PUSH2 0x4CB3 JUMP JUMPDEST PUSH0 NOT SWAP3 POP DUP3 DUP2 ADD SWAP1 DUP2 GT PUSH2 0x40DB JUMPI PUSH2 0x40B3 PUSH2 0x4D02 PUSH2 0x4D0F SWAP3 DUP7 PUSH2 0x3E2C JUMP JUMPDEST SWAP1 SLOAD SWAP1 DUP8 SHL SHR SWAP3 DUP6 PUSH2 0x3E2C JUMP JUMPDEST SWAP1 SSTORE DUP2 SLOAD DUP1 ISZERO PUSH2 0x4D34 JUMPI DUP2 ADD SWAP3 PUSH2 0x4D26 DUP5 DUP5 PUSH2 0x3E2C JUMP JUMPDEST DUP2 SWAP4 SWAP2 SLOAD SWAP3 SHL SHL NOT AND SWAP1 SSTORE SSTORE JUMP JUMPDEST PUSH4 0x4E487B71 PUSH1 0xE0 SHL PUSH0 MSTORE PUSH1 0x31 PUSH1 0x4 MSTORE PUSH1 0x24 PUSH0 REVERT JUMPDEST SWAP1 PUSH0 DUP1 SWAP2 PUSH1 0x20 DUP2 MLOAD SWAP2 ADD DUP5 GAS DELEGATECALL DUP1 DUP1 PUSH2 0x4DC6 JUMPI JUMPDEST ISZERO PUSH2 0x4D7C JUMPI POP POP PUSH1 0x40 MLOAD RETURNDATASIZE DUP2 MSTORE RETURNDATASIZE PUSH0 PUSH1 0x20 DUP4 ADD RETURNDATACOPY PUSH1 0x20 RETURNDATASIZE DUP3 ADD ADD PUSH1 0x40 MSTORE SWAP1 JUMP JUMPDEST ISZERO PUSH2 0x4DA3 JUMPI PUSH1 0x40 MLOAD PUSH4 0x9996B315 PUSH1 0xE0 SHL DUP2 MSTORE PUSH1 0x1 PUSH1 0x1 PUSH1 0xA0 SHL SUB SWAP1 SWAP2 AND PUSH1 0x4 DUP3 ADD MSTORE PUSH1 0x24 SWAP1 REVERT JUMPDEST RETURNDATASIZE ISZERO PUSH2 0x4DB4 JUMPI PUSH1 0x40 MLOAD RETURNDATASIZE PUSH0 DUP3 RETURNDATACOPY RETURNDATASIZE SWAP1 REVERT JUMPDEST PUSH1 0x40 MLOAD PUSH4 0xD6BDA275 PUSH1 0xE0 SHL DUP2 MSTORE PUSH1 0x4 SWAP1 REVERT JUMPDEST POP RETURNDATASIZE ISZERO ISZERO DUP1 PUSH2 0x4D5C JUMPI POP DUP2 EXTCODESIZE ISZERO ISZERO PUSH2 0x4D5C JUMP INVALID LOG2 PUSH5 0x6970667358 0x22 SLT KECCAK256 SWAP14 PUSH13 0x68B818AB0535A390BC40FDD79F EQ 0x21 0xD1 0xCD DUP16 0x22 KECCAK256 0x21 0xEF SLT SUB 0xAC EQ BLOBHASH SWAP14 0xB0 CREATE PUSH5 0x736F6C6343 STOP ADDMOD XOR STOP CALLER "},"methodIdentifiers":{"UPGRADE_INTERFACE_VERSION()":"ad3cb1cc","acceptTrustee(bytes32)":"b8cab84b","addMember(address,bytes32)":"49df7208","addMemberBatch(address[],bytes32)":"69ac2022","admin()":"f851a440","adminsByRecord(bytes32,uint256)":"8776cd35","changeRole(bytes32,address,string)":"29c9087a","changeRoleBatch(bytes32[],address,string[])":"51eed472","deactivateWallet(address)":"0b3ffd1d","getAllUsers()":"e2842d79","getGuestAccess(bytes32,bytes32)":"3256e5ab","getHealthRecordCore()":"e94ed257","getRecordAdmins(bytes32)":"41a51baa","getRecordOwners(bytes32)":"c36dc9ef","getRecordRoleStats(bytes32)":"8db7edb4","getRecordViewers(bytes32)":"033e822f","getRecordsByUser(bytes32)":"6544b05b","getRoleDetails(bytes32,address)":"422a5bb8","getRoleDetailsByUser(bytes32,bytes32)":"43e19704","getRoleGranter(bytes32,bytes32)":"aaddc345","getTotalRoles()":"4b6feb7c","getTotalUsers()":"9be572f6","getTrusteeRelationship(bytes32,bytes32)":"9915b91f","getUserForWallet(address)":"00b0c809","getUserStatus(bytes32)":"f29e007b","getWalletsForUser(bytes32)":"d12a7768","grantGuestAccess(bytes32[],address,bytes32,bytes32,uint256)":"0591bdf4","grantRole(bytes32,address,string)":"dde492ea","grantRoleAsTrusteeBatch(bytes32[],bytes32)":"bafc8892","grantRoleBatch(bytes32[],address,string[])":"02ba8109","guestAccessByRecord(bytes32,bytes32)":"eec047aa","hasActiveGuestAccess(bytes32,bytes32)":"e211e89c","hasActiveRole(bytes32,address)":"c88c35fe","hasRole(bytes32,address,string)":"3befa410","healthRecordCore()":"562c788e","initialize()":"8129fc1c","initializeRecordRole(bytes32,address,string)":"726d5447","isActiveMember(address)":"45ecd02f","isActiveSubject(bytes32,bytes32)":"64f639d4","isControllerOf(bytes32,bytes32)":"557ee54f","isOwnerOrAdmin(bytes32,address)":"0519e2a0","isVerifiedMember(address)":"cb261a03","isVerifiedProvider(address)":"259ed80e","ownersByRecord(bytes32,uint256)":"55816079","proposeTrustee(bytes32,uint8)":"1c0c18d8","proxiableUUID()":"52d1902d","reactivateWallet(address)":"bb0f86d5","recordRoles(bytes32)":"33105592","recordsByUser(bytes32,uint256)":"fa7a6bcc","revokeGuestAccess(bytes32[],bytes32)":"1dc63201","revokeRole(bytes32,address)":"d547741f","revokeRoleBatch(bytes32[],address)":"f12b9ad3","revokeTrustee(bytes32,bytes32)":"c979c9bf","roleGrantedBy(bytes32)":"cda06c6e","setHealthRecordCore(address)":"c7155823","setUserStatus(bytes32,uint8)":"96207e02","totalRoles()":"790e118c","totalUsers()":"bff1f9e1","transferAdmin(address)":"75829def","trusteeRelationships(bytes32,bytes32)":"7b657d07","updateTrusteeLevel(bytes32,uint8)":"ab48384a","upgradeToAndCall(address,bytes)":"4f1ef286","userList(uint256)":"9f4216e8","userStatus(bytes32)":"6b4bed97","userWallets(bytes32,uint256)":"9443cd80","viewersByRecord(bytes32,uint256)":"93ccfba8","voluntarilyLeaveOwnership(bytes32)":"2ae8511d","wallets(address)":"89b08f11"}},"storageLayout":{"storage":[{"astId":4207,"contract":"smartContracts/MemberRoleManager.sol:MemberRoleManager","label":"admin","offset":0,"slot":"0","type":"t_address"},{"astId":4400,"contract":"smartContracts/MemberRoleManager.sol:MemberRoleManager","label":"wallets","offset":0,"slot":"1","type":"t_mapping(t_address,t_struct(UserInfo)4395_storage)"},{"astId":4405,"contract":"smartContracts/MemberRoleManager.sol:MemberRoleManager","label":"userStatus","offset":0,"slot":"2","type":"t_mapping(t_bytes32,t_enum(MemberStatus)4360)"},{"astId":4410,"contract":"smartContracts/MemberRoleManager.sol:MemberRoleManager","label":"userWallets","offset":0,"slot":"3","type":"t_mapping(t_bytes32,t_array(t_address)dyn_storage)"},{"astId":4413,"contract":"smartContracts/MemberRoleManager.sol:MemberRoleManager","label":"userList","offset":0,"slot":"4","type":"t_array(t_bytes32)dyn_storage"},{"astId":4415,"contract":"smartContracts/MemberRoleManager.sol:MemberRoleManager","label":"totalUsers","offset":0,"slot":"5","type":"t_uint256"},{"astId":5067,"contract":"smartContracts/MemberRoleManager.sol:MemberRoleManager","label":"recordRoles","offset":0,"slot":"6","type":"t_mapping(t_bytes32,t_struct(RecordRole)5062_storage)"},{"astId":5072,"contract":"smartContracts/MemberRoleManager.sol:MemberRoleManager","label":"ownersByRecord","offset":0,"slot":"7","type":"t_mapping(t_bytes32,t_array(t_bytes32)dyn_storage)"},{"astId":5077,"contract":"smartContracts/MemberRoleManager.sol:MemberRoleManager","label":"adminsByRecord","offset":0,"slot":"8","type":"t_mapping(t_bytes32,t_array(t_bytes32)dyn_storage)"},{"astId":5082,"contract":"smartContracts/MemberRoleManager.sol:MemberRoleManager","label":"viewersByRecord","offset":0,"slot":"9","type":"t_mapping(t_bytes32,t_array(t_bytes32)dyn_storage)"},{"astId":5087,"contract":"smartContracts/MemberRoleManager.sol:MemberRoleManager","label":"recordsByUser","offset":0,"slot":"10","type":"t_mapping(t_bytes32,t_array(t_bytes32)dyn_storage)"},{"astId":5089,"contract":"smartContracts/MemberRoleManager.sol:MemberRoleManager","label":"totalRoles","offset":0,"slot":"11","type":"t_uint256"},{"astId":5092,"contract":"smartContracts/MemberRoleManager.sol:MemberRoleManager","label":"healthRecordCore","offset":0,"slot":"12","type":"t_contract(HealthRecordCoreInterface)4198"},{"astId":5096,"contract":"smartContracts/MemberRoleManager.sol:MemberRoleManager","label":"roleGrantedBy","offset":0,"slot":"13","type":"t_mapping(t_bytes32,t_bytes32)"},{"astId":6903,"contract":"smartContracts/MemberRoleManager.sol:MemberRoleManager","label":"trusteeRelationships","offset":0,"slot":"14","type":"t_mapping(t_bytes32,t_mapping(t_bytes32,t_struct(TrusteeRelationship)6896_storage))"},{"astId":7839,"contract":"smartContracts/MemberRoleManager.sol:MemberRoleManager","label":"guestAccessByRecord","offset":0,"slot":"15","type":"t_mapping(t_bytes32,t_mapping(t_bytes32,t_struct(GuestAccess)7808_storage))"},{"astId":8212,"contract":"smartContracts/MemberRoleManager.sol:MemberRoleManager","label":"__gap","offset":0,"slot":"16","type":"t_array(t_uint256)50_storage"}],"types":{"t_address":{"encoding":"inplace","label":"address","numberOfBytes":"20"},"t_array(t_address)dyn_storage":{"base":"t_address","encoding":"dynamic_array","label":"address[]","numberOfBytes":"32"},"t_array(t_bytes32)dyn_storage":{"base":"t_bytes32","encoding":"dynamic_array","label":"bytes32[]","numberOfBytes":"32"},"t_array(t_uint256)50_storage":{"base":"t_uint256","encoding":"inplace","label":"uint256[50]","numberOfBytes":"1600"},"t_bool":{"encoding":"inplace","label":"bool","numberOfBytes":"1"},"t_bytes32":{"encoding":"inplace","label":"bytes32","numberOfBytes":"32"},"t_contract(HealthRecordCoreInterface)4198":{"encoding":"inplace","label":"contract HealthRecordCoreInterface","numberOfBytes":"20"},"t_enum(MemberStatus)4360":{"encoding":"inplace","label":"enum MemberRoleManager.MemberStatus","numberOfBytes":"1"},"t_enum(TrusteeLevel)6884":{"encoding":"inplace","label":"enum MemberRoleManager.TrusteeLevel","numberOfBytes":"1"},"t_enum(TrusteeStatus)6889":{"encoding":"inplace","label":"enum MemberRoleManager.TrusteeStatus","numberOfBytes":"1"},"t_mapping(t_address,t_struct(UserInfo)4395_storage)":{"encoding":"mapping","key":"t_address","label":"mapping(address => struct MemberRoleManager.UserInfo)","numberOfBytes":"32","value":"t_struct(UserInfo)4395_storage"},"t_mapping(t_bytes32,t_array(t_address)dyn_storage)":{"encoding":"mapping","key":"t_bytes32","label":"mapping(bytes32 => address[])","numberOfBytes":"32","value":"t_array(t_address)dyn_storage"},"t_mapping(t_bytes32,t_array(t_bytes32)dyn_storage)":{"encoding":"mapping","key":"t_bytes32","label":"mapping(bytes32 => bytes32[])","numberOfBytes":"32","value":"t_array(t_bytes32)dyn_storage"},"t_mapping(t_bytes32,t_bytes32)":{"encoding":"mapping","key":"t_bytes32","label":"mapping(bytes32 => bytes32)","numberOfBytes":"32","value":"t_bytes32"},"t_mapping(t_bytes32,t_enum(MemberStatus)4360)":{"encoding":"mapping","key":"t_bytes32","label":"mapping(bytes32 => enum MemberRoleManager.MemberStatus)","numberOfBytes":"32","value":"t_enum(MemberStatus)4360"},"t_mapping(t_bytes32,t_mapping(t_bytes32,t_struct(GuestAccess)7808_storage))":{"encoding":"mapping","key":"t_bytes32","label":"mapping(bytes32 => mapping(bytes32 => struct MemberRoleManager.GuestAccess))","numberOfBytes":"32","value":"t_mapping(t_bytes32,t_struct(GuestAccess)7808_storage)"},"t_mapping(t_bytes32,t_mapping(t_bytes32,t_struct(TrusteeRelationship)6896_storage))":{"encoding":"mapping","key":"t_bytes32","label":"mapping(bytes32 => mapping(bytes32 => struct MemberRoleManager.TrusteeRelationship))","numberOfBytes":"32","value":"t_mapping(t_bytes32,t_struct(TrusteeRelationship)6896_storage)"},"t_mapping(t_bytes32,t_struct(GuestAccess)7808_storage)":{"encoding":"mapping","key":"t_bytes32","label":"mapping(bytes32 => struct MemberRoleManager.GuestAccess)","numberOfBytes":"32","value":"t_struct(GuestAccess)7808_storage"},"t_mapping(t_bytes32,t_struct(RecordRole)5062_storage)":{"encoding":"mapping","key":"t_bytes32","label":"mapping(bytes32 => struct MemberRoleManager.RecordRole)","numberOfBytes":"32","value":"t_struct(RecordRole)5062_storage"},"t_mapping(t_bytes32,t_struct(TrusteeRelationship)6896_storage)":{"encoding":"mapping","key":"t_bytes32","label":"mapping(bytes32 => struct MemberRoleManager.TrusteeRelationship)","numberOfBytes":"32","value":"t_struct(TrusteeRelationship)6896_storage"},"t_string_storage":{"encoding":"bytes","label":"string","numberOfBytes":"32"},"t_struct(GuestAccess)7808_storage":{"encoding":"inplace","label":"struct MemberRoleManager.GuestAccess","members":[{"astId":7801,"contract":"smartContracts/MemberRoleManager.sol:MemberRoleManager","label":"grantedAt","offset":0,"slot":"0","type":"t_uint256"},{"astId":7803,"contract":"smartContracts/MemberRoleManager.sol:MemberRoleManager","label":"expiresAt","offset":0,"slot":"1","type":"t_uint256"},{"astId":7805,"contract":"smartContracts/MemberRoleManager.sol:MemberRoleManager","label":"grantedByIdHash","offset":0,"slot":"2","type":"t_bytes32"},{"astId":7807,"contract":"smartContracts/MemberRoleManager.sol:MemberRoleManager","label":"guestEmailHash","offset":0,"slot":"3","type":"t_bytes32"}],"numberOfBytes":"128"},"t_struct(RecordRole)5062_storage":{"encoding":"inplace","label":"struct MemberRoleManager.RecordRole","members":[{"astId":5059,"contract":"smartContracts/MemberRoleManager.sol:MemberRoleManager","label":"role","offset":0,"slot":"0","type":"t_string_storage"},{"astId":5061,"contract":"smartContracts/MemberRoleManager.sol:MemberRoleManager","label":"isActive","offset":0,"slot":"1","type":"t_bool"}],"numberOfBytes":"64"},"t_struct(TrusteeRelationship)6896_storage":{"encoding":"inplace","label":"struct MemberRoleManager.TrusteeRelationship","members":[{"astId":6892,"contract":"smartContracts/MemberRoleManager.sol:MemberRoleManager","label":"status","offset":0,"slot":"0","type":"t_enum(TrusteeStatus)6889"},{"astId":6895,"contract":"smartContracts/MemberRoleManager.sol:MemberRoleManager","label":"level","offset":1,"slot":"0","type":"t_enum(TrusteeLevel)6884"}],"numberOfBytes":"32"},"t_struct(UserInfo)4395_storage":{"encoding":"inplace","label":"struct MemberRoleManager.UserInfo","members":[{"astId":4392,"contract":"smartContracts/MemberRoleManager.sol:MemberRoleManager","label":"userIdHash","offset":0,"slot":"0","type":"t_bytes32"},{"astId":4394,"contract":"smartContracts/MemberRoleManager.sol:MemberRoleManager","label":"isWalletActive","offset":0,"slot":"1","type":"t_bool"}],"numberOfBytes":"64"},"t_uint256":{"encoding":"inplace","label":"uint256","numberOfBytes":"32"}}}}}}