{"smartContracts/HealthRecordCore.sol":{"HealthRecordCore":{"abi":[{"inputs":[],"stateMutability":"nonpayable","type":"constructor"},{"inputs":[{"internalType":"address","name":"target","type":"address"}],"name":"AddressEmptyCode","type":"error"},{"inputs":[{"internalType":"address","name":"implementation","type":"address"}],"name":"ERC1967InvalidImplementation","type":"error"},{"inputs":[],"name":"ERC1967NonPayable","type":"error"},{"inputs":[],"name":"FailedCall","type":"error"},{"inputs":[],"name":"InvalidInitialization","type":"error"},{"inputs":[],"name":"NotInitializing","type":"error"},{"inputs":[],"name":"UUPSUnauthorizedCallContext","type":"error"},{"inputs":[{"internalType":"bytes32","name":"slot","type":"bytes32"}],"name":"UUPSUnsupportedProxiableUUID","type":"error"},{"anonymous":false,"inputs":[{"indexed":true,"internalType":"address","name":"oldAdmin","type":"address"},{"indexed":true,"internalType":"address","name":"newAdmin","type":"address"},{"indexed":false,"internalType":"uint256","name":"timestamp","type":"uint256"}],"name":"AdminTransferred","type":"event"},{"anonymous":false,"inputs":[{"indexed":true,"internalType":"bytes32","name":"recordHash","type":"bytes32"},{"indexed":true,"internalType":"bytes32","name":"disputerIdHash","type":"bytes32"},{"indexed":false,"internalType":"enum HealthRecordCore.DisputeSeverity","name":"oldSeverity","type":"uint8"},{"indexed":false,"internalType":"enum HealthRecordCore.DisputeSeverity","name":"newSeverity","type":"uint8"},{"indexed":false,"internalType":"enum HealthRecordCore.DisputeCulpability","name":"oldCulpability","type":"uint8"},{"indexed":false,"internalType":"enum HealthRecordCore.DisputeCulpability","name":"newCulpability","type":"uint8"},{"indexed":false,"internalType":"uint256","name":"timestamp","type":"uint256"}],"name":"DisputeModification","type":"event"},{"anonymous":false,"inputs":[{"indexed":true,"internalType":"bytes32","name":"recordHash","type":"bytes32"},{"indexed":true,"internalType":"bytes32","name":"disputerIdHash","type":"bytes32"},{"indexed":false,"internalType":"uint256","name":"timestamp","type":"uint256"}],"name":"DisputeRetracted","type":"event"},{"anonymous":false,"inputs":[{"indexed":false,"internalType":"uint64","name":"version","type":"uint64"}],"name":"Initialized","type":"event"},{"anonymous":false,"inputs":[{"indexed":true,"internalType":"bytes32","name":"recordIdHash","type":"bytes32"},{"indexed":true,"internalType":"bytes32","name":"recordHash","type":"bytes32"},{"indexed":true,"internalType":"bytes32","name":"subjectIdHash","type":"bytes32"},{"indexed":false,"internalType":"uint256","name":"timestamp","type":"uint256"}],"name":"RecordAnchored","type":"event"},{"anonymous":false,"inputs":[{"indexed":true,"internalType":"bytes32","name":"recordHash","type":"bytes32"},{"indexed":true,"internalType":"bytes32","name":"recordIdHash","type":"bytes32"},{"indexed":true,"internalType":"bytes32","name":"disputerIdHash","type":"bytes32"},{"indexed":false,"internalType":"enum HealthRecordCore.DisputeSeverity","name":"severity","type":"uint8"},{"indexed":false,"internalType":"enum HealthRecordCore.DisputeCulpability","name":"culpability","type":"uint8"},{"indexed":false,"internalType":"uint256","name":"timestamp","type":"uint256"}],"name":"RecordDisputed","type":"event"},{"anonymous":false,"inputs":[{"indexed":true,"internalType":"bytes32","name":"recordIdHash","type":"bytes32"},{"indexed":true,"internalType":"bytes32","name":"newHash","type":"bytes32"},{"indexed":false,"internalType":"bytes32","name":"addedBy","type":"bytes32"},{"indexed":false,"internalType":"uint256","name":"timestamp","type":"uint256"}],"name":"RecordHashAdded","type":"event"},{"anonymous":false,"inputs":[{"indexed":true,"internalType":"bytes32","name":"recordIdHash","type":"bytes32"},{"indexed":true,"internalType":"bytes32","name":"recordHash","type":"bytes32"},{"indexed":false,"internalType":"uint256","name":"timestamp","type":"uint256"}],"name":"RecordHashRetracted","type":"event"},{"anonymous":false,"inputs":[{"indexed":true,"internalType":"bytes32","name":"recordIdHash","type":"bytes32"},{"indexed":true,"internalType":"bytes32","name":"subjectIdHash","type":"bytes32"},{"indexed":false,"internalType":"uint256","name":"timestamp","type":"uint256"}],"name":"RecordReanchored","type":"event"},{"anonymous":false,"inputs":[{"indexed":true,"internalType":"bytes32","name":"recordIdHash","type":"bytes32"},{"indexed":true,"internalType":"bytes32","name":"subjectIdHash","type":"bytes32"},{"indexed":false,"internalType":"uint256","name":"timestamp","type":"uint256"}],"name":"RecordUnanchored","type":"event"},{"anonymous":false,"inputs":[{"indexed":true,"internalType":"bytes32","name":"recordHash","type":"bytes32"},{"indexed":true,"internalType":"bytes32","name":"recordIdHash","type":"bytes32"},{"indexed":true,"internalType":"bytes32","name":"verifierIdHash","type":"bytes32"},{"indexed":false,"internalType":"enum HealthRecordCore.VerificationLevel","name":"level","type":"uint8"},{"indexed":false,"internalType":"uint256","name":"timestamp","type":"uint256"}],"name":"RecordVerified","type":"event"},{"anonymous":false,"inputs":[{"indexed":true,"internalType":"bytes32","name":"subjectIdHash","type":"bytes32"},{"indexed":true,"internalType":"bytes32","name":"recordIdHash","type":"bytes32"},{"indexed":true,"internalType":"bytes32","name":"reporterIdHash","type":"bytes32"},{"indexed":false,"internalType":"uint256","name":"timestamp","type":"uint256"}],"name":"UnacceptedUpdateFlagRevoked","type":"event"},{"anonymous":false,"inputs":[{"indexed":true,"internalType":"bytes32","name":"subjectIdHash","type":"bytes32"},{"indexed":true,"internalType":"bytes32","name":"recordIdHash","type":"bytes32"},{"indexed":true,"internalType":"bytes32","name":"reporterIdHash","type":"bytes32"},{"indexed":false,"internalType":"bytes32","name":"recordHash","type":"bytes32"},{"indexed":false,"internalType":"uint256","name":"timestamp","type":"uint256"}],"name":"UnacceptedUpdateFlagged","type":"event"},{"anonymous":false,"inputs":[{"indexed":true,"internalType":"address","name":"implementation","type":"address"}],"name":"Upgraded","type":"event"},{"anonymous":false,"inputs":[{"indexed":true,"internalType":"bytes32","name":"recordHash","type":"bytes32"},{"indexed":true,"internalType":"bytes32","name":"verifierIdHash","type":"bytes32"},{"indexed":false,"internalType":"enum HealthRecordCore.VerificationLevel","name":"oldLevel","type":"uint8"},{"indexed":false,"internalType":"enum HealthRecordCore.VerificationLevel","name":"newLevel","type":"uint8"},{"indexed":false,"internalType":"uint256","name":"timestamp","type":"uint256"}],"name":"VerificationLevelModified","type":"event"},{"anonymous":false,"inputs":[{"indexed":true,"internalType":"bytes32","name":"recordHash","type":"bytes32"},{"indexed":true,"internalType":"bytes32","name":"verifierIdHash","type":"bytes32"},{"indexed":false,"internalType":"uint256","name":"timestamp","type":"uint256"}],"name":"VerificationRetracted","type":"event"},{"inputs":[],"name":"UPGRADE_INTERFACE_VERSION","outputs":[{"internalType":"string","name":"","type":"string"}],"stateMutability":"view","type":"function"},{"inputs":[{"internalType":"bytes32","name":"","type":"bytes32"}],"name":"activeUnacceptedFlagCount","outputs":[{"internalType":"uint256","name":"","type":"uint256"}],"stateMutability":"view","type":"function"},{"inputs":[{"internalType":"bytes32","name":"recordIdHash","type":"bytes32"},{"internalType":"bytes32","name":"newHash","type":"bytes32"}],"name":"addRecordHash","outputs":[],"stateMutability":"nonpayable","type":"function"},{"inputs":[],"name":"admin","outputs":[{"internalType":"address","name":"","type":"address"}],"stateMutability":"view","type":"function"},{"inputs":[{"internalType":"bytes32","name":"recordIdHash","type":"bytes32"},{"internalType":"bytes32","name":"recordHash","type":"bytes32"},{"internalType":"bytes32","name":"subjectIdHash","type":"bytes32"}],"name":"anchorRecord","outputs":[],"stateMutability":"nonpayable","type":"function"},{"inputs":[{"internalType":"bytes32","name":"","type":"bytes32"},{"internalType":"bytes32","name":"","type":"bytes32"}],"name":"currentlyDisputed","outputs":[{"internalType":"bool","name":"","type":"bool"}],"stateMutability":"view","type":"function"},{"inputs":[{"internalType":"bytes32","name":"","type":"bytes32"},{"internalType":"bytes32","name":"","type":"bytes32"}],"name":"currentlyVerified","outputs":[{"internalType":"bool","name":"","type":"bool"}],"stateMutability":"view","type":"function"},{"inputs":[{"internalType":"bytes32","name":"","type":"bytes32"},{"internalType":"bytes32","name":"","type":"bytes32"}],"name":"disputeIndex","outputs":[{"internalType":"uint256","name":"","type":"uint256"}],"stateMutability":"view","type":"function"},{"inputs":[{"internalType":"bytes32","name":"recordIdHash","type":"bytes32"},{"internalType":"bytes32","name":"recordHash","type":"bytes32"},{"internalType":"uint8","name":"severity","type":"uint8"},{"internalType":"uint8","name":"culpability","type":"uint8"},{"internalType":"string","name":"notes","type":"string"}],"name":"disputeRecord","outputs":[],"stateMutability":"nonpayable","type":"function"},{"inputs":[{"internalType":"bytes32","name":"","type":"bytes32"},{"internalType":"uint256","name":"","type":"uint256"}],"name":"disputes","outputs":[{"internalType":"bytes32","name":"disputerIdHash","type":"bytes32"},{"internalType":"bytes32","name":"recordIdHash","type":"bytes32"},{"internalType":"enum HealthRecordCore.DisputeSeverity","name":"severity","type":"uint8"},{"internalType":"enum HealthRecordCore.DisputeCulpability","name":"culpability","type":"uint8"},{"internalType":"string","name":"notes","type":"string"},{"internalType":"uint256","name":"createdAt","type":"uint256"},{"internalType":"bool","name":"isActive","type":"bool"}],"stateMutability":"view","type":"function"},{"inputs":[{"internalType":"bytes32","name":"","type":"bytes32"},{"internalType":"uint256","name":"","type":"uint256"}],"name":"disputesByUser","outputs":[{"internalType":"bytes32","name":"","type":"bytes32"}],"stateMutability":"view","type":"function"},{"inputs":[{"internalType":"bytes32","name":"recordHash","type":"bytes32"}],"name":"doesHashExist","outputs":[{"internalType":"bool","name":"","type":"bool"}],"stateMutability":"view","type":"function"},{"inputs":[{"internalType":"bytes32","name":"subjectIdHash","type":"bytes32"},{"internalType":"bytes32","name":"recordIdHash","type":"bytes32"},{"internalType":"bytes32","name":"reporterIdHash","type":"bytes32"},{"internalType":"bytes32","name":"recordHash","type":"bytes32"}],"name":"flagUnacceptedUpdate","outputs":[],"stateMutability":"nonpayable","type":"function"},{"inputs":[{"internalType":"bytes32","name":"recordIdHash","type":"bytes32"}],"name":"getActiveRecordSubjects","outputs":[{"internalType":"bytes32[]","name":"","type":"bytes32[]"}],"stateMutability":"view","type":"function"},{"inputs":[{"internalType":"bytes32","name":"subjectIdHash","type":"bytes32"}],"name":"getActiveUnacceptedFlagCount","outputs":[{"internalType":"uint256","name":"","type":"uint256"}],"stateMutability":"view","type":"function"},{"inputs":[{"internalType":"bytes32","name":"recordHash","type":"bytes32"}],"name":"getDisputeStats","outputs":[{"internalType":"uint256","name":"total","type":"uint256"},{"internalType":"uint256","name":"active","type":"uint256"}],"stateMutability":"view","type":"function"},{"inputs":[{"internalType":"bytes32","name":"recordHash","type":"bytes32"}],"name":"getDisputes","outputs":[{"components":[{"internalType":"bytes32","name":"disputerIdHash","type":"bytes32"},{"internalType":"bytes32","name":"recordIdHash","type":"bytes32"},{"internalType":"enum HealthRecordCore.DisputeSeverity","name":"severity","type":"uint8"},{"internalType":"enum HealthRecordCore.DisputeCulpability","name":"culpability","type":"uint8"},{"internalType":"string","name":"notes","type":"string"},{"internalType":"uint256","name":"createdAt","type":"uint256"},{"internalType":"bool","name":"isActive","type":"bool"}],"internalType":"struct HealthRecordCore.Dispute[]","name":"","type":"tuple[]"}],"stateMutability":"view","type":"function"},{"inputs":[{"internalType":"bytes32","name":"recordHash","type":"bytes32"}],"name":"getRecordIdForHash","outputs":[{"internalType":"bytes32","name":"","type":"bytes32"}],"stateMutability":"view","type":"function"},{"inputs":[{"internalType":"bytes32","name":"recordIdHash","type":"bytes32"}],"name":"getRecordSubjects","outputs":[{"internalType":"bytes32[]","name":"","type":"bytes32[]"}],"stateMutability":"view","type":"function"},{"inputs":[{"internalType":"bytes32","name":"recordIdHash","type":"bytes32"}],"name":"getRecordVersionHistory","outputs":[{"internalType":"bytes32[]","name":"","type":"bytes32[]"}],"stateMutability":"view","type":"function"},{"inputs":[{"internalType":"bytes32","name":"userIdHash","type":"bytes32"}],"name":"getSubjectMedicalHistory","outputs":[{"internalType":"bytes32[]","name":"","type":"bytes32[]"}],"stateMutability":"view","type":"function"},{"inputs":[{"internalType":"bytes32","name":"recordIdHash","type":"bytes32"}],"name":"getSubjectStats","outputs":[{"internalType":"uint256","name":"total","type":"uint256"},{"internalType":"uint256","name":"active","type":"uint256"}],"stateMutability":"view","type":"function"},{"inputs":[],"name":"getTotalAnchoredRecords","outputs":[{"internalType":"uint256","name":"","type":"uint256"}],"stateMutability":"view","type":"function"},{"inputs":[{"internalType":"bytes32","name":"subjectIdHash","type":"bytes32"},{"internalType":"bytes32","name":"recordIdHash","type":"bytes32"}],"name":"getUnacceptedFlag","outputs":[{"internalType":"bool","name":"exists","type":"bool"},{"internalType":"bool","name":"isActive","type":"bool"},{"internalType":"bytes32","name":"reporterIdHash","type":"bytes32"},{"internalType":"bytes32","name":"recordHash","type":"bytes32"},{"internalType":"uint256","name":"createdAt","type":"uint256"}],"stateMutability":"view","type":"function"},{"inputs":[{"internalType":"bytes32","name":"subjectIdHash","type":"bytes32"}],"name":"getUnacceptedFlags","outputs":[{"components":[{"internalType":"bytes32","name":"recordIdHash","type":"bytes32"},{"internalType":"bytes32","name":"reporterIdHash","type":"bytes32"},{"internalType":"bytes32","name":"recordHash","type":"bytes32"},{"internalType":"uint256","name":"createdAt","type":"uint256"},{"internalType":"bool","name":"isActive","type":"bool"}],"internalType":"struct HealthRecordCore.UnacceptedFlag[]","name":"","type":"tuple[]"}],"stateMutability":"view","type":"function"},{"inputs":[{"internalType":"bytes32","name":"recordHash","type":"bytes32"},{"internalType":"bytes32","name":"userIdHash","type":"bytes32"}],"name":"getUserDispute","outputs":[{"internalType":"bool","name":"exists","type":"bool"},{"internalType":"bytes32","name":"recordIdHash","type":"bytes32"},{"internalType":"enum HealthRecordCore.DisputeSeverity","name":"severity","type":"uint8"},{"internalType":"enum HealthRecordCore.DisputeCulpability","name":"culpability","type":"uint8"},{"internalType":"string","name":"notes","type":"string"},{"internalType":"uint256","name":"createdAt","type":"uint256"},{"internalType":"bool","name":"isActive","type":"bool"}],"stateMutability":"view","type":"function"},{"inputs":[{"internalType":"bytes32","name":"userIdHash","type":"bytes32"}],"name":"getUserDisputes","outputs":[{"internalType":"bytes32[]","name":"","type":"bytes32[]"}],"stateMutability":"view","type":"function"},{"inputs":[{"internalType":"bytes32","name":"recordHash","type":"bytes32"},{"internalType":"bytes32","name":"userIdHash","type":"bytes32"}],"name":"getUserVerification","outputs":[{"internalType":"bool","name":"exists","type":"bool"},{"internalType":"bytes32","name":"recordIdHash","type":"bytes32"},{"internalType":"enum HealthRecordCore.VerificationLevel","name":"level","type":"uint8"},{"internalType":"uint256","name":"createdAt","type":"uint256"},{"internalType":"bool","name":"isActive","type":"bool"}],"stateMutability":"view","type":"function"},{"inputs":[{"internalType":"bytes32","name":"userIdHash","type":"bytes32"}],"name":"getUserVerifications","outputs":[{"internalType":"bytes32[]","name":"","type":"bytes32[]"}],"stateMutability":"view","type":"function"},{"inputs":[{"internalType":"bytes32","name":"recordHash","type":"bytes32"}],"name":"getVerificationStats","outputs":[{"internalType":"uint256","name":"total","type":"uint256"},{"internalType":"uint256","name":"active","type":"uint256"}],"stateMutability":"view","type":"function"},{"inputs":[{"internalType":"bytes32","name":"recordHash","type":"bytes32"}],"name":"getVerifications","outputs":[{"components":[{"internalType":"bytes32","name":"verifierIdHash","type":"bytes32"},{"internalType":"bytes32","name":"recordIdHash","type":"bytes32"},{"internalType":"enum HealthRecordCore.VerificationLevel","name":"level","type":"uint8"},{"internalType":"uint256","name":"createdAt","type":"uint256"},{"internalType":"bool","name":"isActive","type":"bool"}],"internalType":"struct HealthRecordCore.Verification[]","name":"","type":"tuple[]"}],"stateMutability":"view","type":"function"},{"inputs":[{"internalType":"bytes32","name":"recordIdHash","type":"bytes32"}],"name":"getVersionCount","outputs":[{"internalType":"uint256","name":"","type":"uint256"}],"stateMutability":"view","type":"function"},{"inputs":[{"internalType":"bytes32","name":"subjectIdHash","type":"bytes32"}],"name":"hasActiveUnacceptedFlags","outputs":[{"internalType":"bool","name":"","type":"bool"}],"stateMutability":"view","type":"function"},{"inputs":[{"internalType":"bytes32","name":"recordHash","type":"bytes32"},{"internalType":"bytes32","name":"userIdHash","type":"bytes32"}],"name":"hasUserDisputed","outputs":[{"internalType":"bool","name":"","type":"bool"}],"stateMutability":"view","type":"function"},{"inputs":[{"internalType":"bytes32","name":"recordHash","type":"bytes32"},{"internalType":"bytes32","name":"userIdHash","type":"bytes32"}],"name":"hasUserVerified","outputs":[{"internalType":"bool","name":"","type":"bool"}],"stateMutability":"view","type":"function"},{"inputs":[{"internalType":"address","name":"_memberRoleManager","type":"address"}],"name":"initialize","outputs":[],"stateMutability":"nonpayable","type":"function"},{"inputs":[{"internalType":"bytes32","name":"recordIdHash","type":"bytes32"},{"internalType":"bytes32","name":"userIdHash","type":"bytes32"}],"name":"isActiveSubject","outputs":[{"internalType":"bool","name":"","type":"bool"}],"stateMutability":"view","type":"function"},{"inputs":[{"internalType":"bytes32","name":"","type":"bytes32"}],"name":"isHashActive","outputs":[{"internalType":"bool","name":"","type":"bool"}],"stateMutability":"view","type":"function"},{"inputs":[{"internalType":"bytes32","name":"recordIdHash","type":"bytes32"},{"internalType":"bytes32","name":"userIdHash","type":"bytes32"}],"name":"isSubject","outputs":[{"internalType":"bool","name":"","type":"bool"}],"stateMutability":"view","type":"function"},{"inputs":[{"internalType":"bytes32","name":"","type":"bytes32"},{"internalType":"bytes32","name":"","type":"bytes32"}],"name":"isSubjectActive","outputs":[{"internalType":"bool","name":"","type":"bool"}],"stateMutability":"view","type":"function"},{"inputs":[{"internalType":"bytes32","name":"","type":"bytes32"},{"internalType":"bytes32","name":"","type":"bytes32"}],"name":"isSubjectOfRecord","outputs":[{"internalType":"bool","name":"","type":"bool"}],"stateMutability":"view","type":"function"},{"inputs":[],"name":"memberRoleManager","outputs":[{"internalType":"contract MemberRoleManagerInterface","name":"","type":"address"}],"stateMutability":"view","type":"function"},{"inputs":[{"internalType":"bytes32","name":"recordHash","type":"bytes32"},{"internalType":"uint8","name":"newSeverity","type":"uint8"},{"internalType":"uint8","name":"newCulpability","type":"uint8"}],"name":"modifyDispute","outputs":[],"stateMutability":"nonpayable","type":"function"},{"inputs":[{"internalType":"bytes32","name":"recordHash","type":"bytes32"},{"internalType":"uint8","name":"newLevel","type":"uint8"}],"name":"modifyVerificationLevel","outputs":[],"stateMutability":"nonpayable","type":"function"},{"inputs":[],"name":"proxiableUUID","outputs":[{"internalType":"bytes32","name":"","type":"bytes32"}],"stateMutability":"view","type":"function"},{"inputs":[{"internalType":"bytes32","name":"recordIdHash","type":"bytes32"},{"internalType":"bytes32","name":"subjectIdHash","type":"bytes32"}],"name":"reanchorRecord","outputs":[],"stateMutability":"nonpayable","type":"function"},{"inputs":[{"internalType":"bytes32","name":"","type":"bytes32"}],"name":"recordIdForHash","outputs":[{"internalType":"bytes32","name":"","type":"bytes32"}],"stateMutability":"view","type":"function"},{"inputs":[{"internalType":"bytes32","name":"","type":"bytes32"},{"internalType":"uint256","name":"","type":"uint256"}],"name":"recordSubjects","outputs":[{"internalType":"bytes32","name":"","type":"bytes32"}],"stateMutability":"view","type":"function"},{"inputs":[{"internalType":"bytes32","name":"","type":"bytes32"},{"internalType":"uint256","name":"","type":"uint256"}],"name":"recordVersionHistory","outputs":[{"internalType":"bytes32","name":"","type":"bytes32"}],"stateMutability":"view","type":"function"},{"inputs":[{"internalType":"bytes32","name":"recordHash","type":"bytes32"}],"name":"retractDispute","outputs":[],"stateMutability":"nonpayable","type":"function"},{"inputs":[{"internalType":"bytes32","name":"recordIdHash","type":"bytes32"},{"internalType":"bytes32","name":"recordHash","type":"bytes32"}],"name":"retractRecordHash","outputs":[],"stateMutability":"nonpayable","type":"function"},{"inputs":[{"internalType":"bytes32","name":"recordHash","type":"bytes32"}],"name":"retractVerification","outputs":[],"stateMutability":"nonpayable","type":"function"},{"inputs":[{"internalType":"bytes32","name":"subjectIdHash","type":"bytes32"},{"internalType":"bytes32","name":"recordIdHash","type":"bytes32"}],"name":"revokeUnacceptedFlag","outputs":[],"stateMutability":"nonpayable","type":"function"},{"inputs":[{"internalType":"address","name":"_memberRoleManager","type":"address"}],"name":"setMemberRoleManager","outputs":[],"stateMutability":"nonpayable","type":"function"},{"inputs":[{"internalType":"bytes32","name":"","type":"bytes32"},{"internalType":"uint256","name":"","type":"uint256"}],"name":"subjectMedicalHistory","outputs":[{"internalType":"bytes32","name":"","type":"bytes32"}],"stateMutability":"view","type":"function"},{"inputs":[],"name":"totalAnchoredRecords","outputs":[{"internalType":"uint256","name":"","type":"uint256"}],"stateMutability":"view","type":"function"},{"inputs":[],"name":"totalDisputes","outputs":[{"internalType":"uint256","name":"","type":"uint256"}],"stateMutability":"view","type":"function"},{"inputs":[],"name":"totalUnacceptedFlags","outputs":[{"internalType":"uint256","name":"","type":"uint256"}],"stateMutability":"view","type":"function"},{"inputs":[],"name":"totalVerifications","outputs":[{"internalType":"uint256","name":"","type":"uint256"}],"stateMutability":"view","type":"function"},{"inputs":[{"internalType":"address","name":"newAdmin","type":"address"}],"name":"transferAdmin","outputs":[],"stateMutability":"nonpayable","type":"function"},{"inputs":[{"internalType":"bytes32","name":"","type":"bytes32"},{"internalType":"bytes32","name":"","type":"bytes32"}],"name":"unacceptedFlagIndex","outputs":[{"internalType":"uint256","name":"","type":"uint256"}],"stateMutability":"view","type":"function"},{"inputs":[{"internalType":"bytes32","name":"","type":"bytes32"},{"internalType":"uint256","name":"","type":"uint256"}],"name":"unacceptedFlagsBySubject","outputs":[{"internalType":"bytes32","name":"recordIdHash","type":"bytes32"},{"internalType":"bytes32","name":"reporterIdHash","type":"bytes32"},{"internalType":"bytes32","name":"recordHash","type":"bytes32"},{"internalType":"uint256","name":"createdAt","type":"uint256"},{"internalType":"bool","name":"isActive","type":"bool"}],"stateMutability":"view","type":"function"},{"inputs":[{"internalType":"bytes32","name":"recordIdHash","type":"bytes32"},{"internalType":"bytes32","name":"subjectIdHash","type":"bytes32"}],"name":"unanchorRecord","outputs":[],"stateMutability":"nonpayable","type":"function"},{"inputs":[{"internalType":"address","name":"newImplementation","type":"address"},{"internalType":"bytes","name":"data","type":"bytes"}],"name":"upgradeToAndCall","outputs":[],"stateMutability":"payable","type":"function"},{"inputs":[{"internalType":"bytes32","name":"","type":"bytes32"},{"internalType":"bytes32","name":"","type":"bytes32"}],"name":"verificationIndex","outputs":[{"internalType":"uint256","name":"","type":"uint256"}],"stateMutability":"view","type":"function"},{"inputs":[{"internalType":"bytes32","name":"","type":"bytes32"},{"internalType":"uint256","name":"","type":"uint256"}],"name":"verifications","outputs":[{"internalType":"bytes32","name":"verifierIdHash","type":"bytes32"},{"internalType":"bytes32","name":"recordIdHash","type":"bytes32"},{"internalType":"enum HealthRecordCore.VerificationLevel","name":"level","type":"uint8"},{"internalType":"uint256","name":"createdAt","type":"uint256"},{"internalType":"bool","name":"isActive","type":"bool"}],"stateMutability":"view","type":"function"},{"inputs":[{"internalType":"bytes32","name":"","type":"bytes32"},{"internalType":"uint256","name":"","type":"uint256"}],"name":"verificationsByUser","outputs":[{"internalType":"bytes32","name":"","type":"bytes32"}],"stateMutability":"view","type":"function"},{"inputs":[{"internalType":"bytes32","name":"recordIdHash","type":"bytes32"},{"internalType":"bytes32","name":"recordHash","type":"bytes32"},{"internalType":"uint8","name":"level","type":"uint8"}],"name":"verifyRecord","outputs":[],"stateMutability":"nonpayable","type":"function"}],"evm":{"bytecode":{"linkReferences":{},"object":"60a08060405234620000d157306080527ff0c57e16840df040f15088dc2f81fe391c3923bec73e23a9662efc9c229c6a009081549060ff8260401c16620000c257506001600160401b036002600160401b0319828216016200007c575b6040516142d89081620000d682396080518181816124e701526125c40152f35b6001600160401b031990911681179091556040519081527fc7f505b2f371ae2175ee4913f4499e1f2633a7b5936321eed1cdaeb6115181d290602090a15f80806200005c565b63f92ee8a960e01b8152600490fd5b5f80fdfe604060808152600480361015610013575f80fd5b60e05f35811c90816301f6993514613512578163045524a2146134de578163056c925f1461327b57816308d865171461326957816310466a6714611f915781631166c389146131b857816315370703146131915781631cf8cbe8146131735781631ee6677014612ac1578163249dda2e1461314b57816328837450146130875781633533d58c14612b2a5781633fa8ea8114612aee57816340ec2e9a14612ac15781634244222614612a7457816342deec25146128e6578163438b17cf146127745781634f1ef286146125735781635211e3b61461254b57816352d1902d146124d35781635a3ba1fa146122495781635d28a3421461221f57816364f639d4146121c35781636e95a0511461206e578163741bfc1d1461204257816375829def14611fc25781637628262e14611f915781637b470f6a14611c4957816384debbf114611bd25781638651933514611a8757816386fe96e1146118385781638a7f882c1461180c5781638fc751ee146117e05781639afd307c146117b05781639e3432c1146115fb578163a208f96c146115ca578163ac90c140146115ac578163ac9243361461158e578163aca5964f1461155e578163ad3cb1cc146114f5578163adcee102146114c5578163aeb2a19f1461141d578163b27bb4d5146113ee578163b5e6b7a2146113b0578163be4f9077146112da578163bf52046514611271578163c4d66de8146110d9578163c5e4ccc4146110bb578163c7567dfa14610e7d578163c7695bab14610e15578163d08c800d14610dac578163d19d366114610c7f57508063d1e94e5714610c0d578063d46e082f14610bef578063d6989f0914610bbe578063d9e551fc14610a4a578063dbc7b84214610a22578063dd0bc082146109c9578063de4920f4146109a1578063def0dec81461084b578063dfe36843146108e4578063e08f1ac31461087c578063e1628f0b1461084b578063e76ba193146107d5578063f36ddb4f1461047e578063f536eb2b14610417578063f851a440146103ef5763fcdd52611461030a575f80fd5b346103eb57602090816003193601126103eb57355f52600a8152815f2080549161033383613c83565b926103408551948561380d565b80845281840180935f52825f205f915b8383106103c85750505050835192818401908285525180915284840192915f5b82811061037d5785850386f35b909192938260a060019287518051825283810151848301528a8101516103a281613783565b828c01526060818101519083015260809081015115159082015201950193929101610370565b6005856001926103da859a989a613aa1565b815201920192019190959395610350565b5f80fd5b82346103eb575f3660031901126103eb5760015490516001600160a01b039091168152602090f35b50346103eb576104263661376d565b92905f526010602052805f2080548410156103eb5760a09361044791613a2d565b5080549260018201549260ff6002840154926003850154940154169381519586526020860152840152606083015215156080820152f35b5090346103eb5760603660031901126103eb5781356024359160018060a01b035f5416908051916345ecd02f60e01b835233868401526020928381602481855afa9081156107cb57906104d8915f916107ae575b50613cc7565b81516364461aff60e11b8152868101858152336020820152909184918391908290819060400103915afa9081156107a4579061051b915f91610777575b50613d0a565b610526831515613d56565b610531841515613da2565b61053c6044356140d3565b94835f5260038352815f20865f52835260ff825f20541661072657835f5260028352815f2054156105fc575b907faed20eb4df1031f98b6ee943999c834d0a9a777b4aae82671c972b33c8b937509291845f526002835261059f87835f20613dfa565b845f5260038352815f20875f528352815f2060ff1990600182825416179055855f5260058452825f20885f5284526001835f209182541617905582526105e784825f20613dfa565b6105f2600954613a7f565b60095551428152a4005b5f858152600684528290205484908015610683570361064357907faed20eb4df1031f98b6ee943999c834d0a9a777b4aae82671c972b33c8b9375092915b90919250610568565b8280606493519262461bcd60e51b845283015260248201527f486173682062656c6f6e677320746f20646966666572656e74207265636f72646044820152fd5b50506008835260ff825f2054166106f157907faed20eb4df1031f98b6ee943999c834d0a9a777b4aae82671c972b33c8b937509291855f526006835284825f2055845f52600783526106d786835f20613dfa565b855f5260088352815f20600160ff1982541617905561063a565b82606492519162461bcd60e51b8352820152601160248201527012185cda08185b1c9958591e481d5cd959607a1b6044820152fd5b82608492519162461bcd60e51b8352820152602760248201527f5265636f726420616c726561647920616e63686f72656420746f2074686973206044820152661cdd589a9958dd60ca1b6064820152fd5b6107979150843d861161079d575b61078f818361380d565b810190613caf565b5f610515565b503d610785565b82513d5f823e3d90fd5b6107c59150853d871161079d5761078f818361380d565b5f6104d2565b83513d5f823e3d90fd5b50346103eb5760209060206003193601126103eb57355f526007602052815f209180519182602085549182815201945f5260205f20915f905b828210610834576108308686610826828b038361380d565b51918291826138d6565b0390f35b83548752958601956001938401939091019061080e565b82346103eb5760209061085d3661376d565b905f52600b8352815f20905f52825260ff815f20541690519015158152f35b50346103eb5760209060206003193601126103eb57355f526013602052815f209180519182602085549182815201945f5260205f20915f905b8282106108cd576108308686610826828b038361380d565b8354875295860195600193840193909101906108b5565b50346103eb57602090816003193601126103eb575f90355f52600d8252825f2092835461091081613c83565b9461091d8351968761380d565b8186525f908152848120858088015b84841061098257505050505083515f5b85518110156109755760c06109518288613c9b565b510151610961575b60010161093c565b9261096d600191613a7f565b939050610959565b5082848351928352820152f35b60019160069161099185613ee5565b815201920192019190869061092c565b5090346103eb5760203660031901126103eb57602091355f5260078252805f20549051908152f35b346103eb5760203660031901126103eb576109e26138c0565b6001546001600160a01b0391906109fc9083163314613a46565b16610a08811515614055565b6bffffffffffffffffffffffff60a01b5f5416175f555f80f35b5090346103eb5760203660031901126103eb57602091355f5260128252805f20549051908152f35b50346103eb576020806003193601126103eb575f54835162b0c80960e01b815233818501529383359390918390869060249082906001600160a01b03165afa9485156107a4575f95610b8f575b50610aa3851515613c08565b835f52600e8352815f20855f52835260ff825f20541615610b565750907f6ce2cfa8c67a8eeddab297878ec995418cc57aa7857d4fe81c4f22c06842af0d91835f52600f8252805f20855f5282526005610b2b825f2054865f52600d8552610b1c60ff84610b1384885f2061393a565b50015416614015565b865f52600d8552835f2061393a565b500160ff1990818154169055845f52600e8352815f20865f528352815f2090815416905551428152a3005b82606492519162461bcd60e51b83528201526015602482015274139bc8191a5cdc1d5d19481d1bc81c995d1c9858dd605a1b6044820152fd5b9094508281813d8311610bb7575b610ba7818361380d565b810103126103eb5751935f610a97565b503d610b9d565b82346103eb57602090610bd03661376d565b905f5260038352815f20905f52825260ff815f20541690519015158152f35b82346103eb575f3660031901126103eb576020906009549051908152f35b50346103eb57610c1c3661376d565b92905f52600a602052805f2080548410156103eb5760a093610c3d91613a2d565b5080549260018201549260ff80600285015416926003850154940154169381519586526020860152610c6e82613783565b840152606083015215156080820152f35b919050346103eb57602090816003193601126103eb578390355f52600d8252805f20908154610cad81613c83565b90610cba8351928361380d565b80825284820180945f52855f205f915b838310610d8557505050508151938085019181865251809252828501838360051b87010194935f975b848910610d005787870388f35b9091929394958480600192603f198b820301875289519081518152828201518382015286820151610d3081613783565b87820152610d4660608084015190830190613875565b610d5d608087818501519184015287830190613882565b9160a0808201519083015260c080910151151591015298019401980197919094939294610cf3565b600688600192610d99859c9b98999c613ee5565b8152019201920191909794939697610cca565b5050346103eb5760209060206003193601126103eb57355f526014602052815f209180519182602085549182815201945f5260205f20915f905b828210610dfe576108308686610826828b038361380d565b835487529586019560019384019390910190610de6565b5050346103eb5760209060206003193601126103eb5780355f52602052815f209180519182602085549182815201945f5260205f20915f905b828210610e66576108308686610826828b038361380d565b835487529586019560019384019390910190610e4e565b8284346103eb57610e8d3661376d565b92909160018060a01b035f5416918151906345ecd02f60e01b825233818301526020918281602481885afa9081156110945790610ed0915f9161109e5750613cc7565b82516364461aff60e11b81528181018681523360208201528390829081906040010381885afa9081156110945790610f0e915f916110775750613d0a565b855f5260068252825f2054611036578515610ffe578190602484518096819362b0c80960e01b835233908301525afa9081156107a4575f91610faf575b7fa2dc124b7dcc6ee378406493edc477d456cb2e3946e74b015c868704e9f162809350855f526006815284835f2055845f5260078152610f8d86845f20613dfa565b855f5260088152825f20600160ff1982541617905582519182524290820152a3005b80915083813d8311610ff7575b610fc6818361380d565b810103126103eb577fa2dc124b7dcc6ee378406493edc477d456cb2e3946e74b015c868704e9f16280925190610f4b565b503d610fbc565b915162461bcd60e51b8152918201526014602482015273486173682063616e6e6f7420626520656d70747960601b6044820152606490fd5b915162461bcd60e51b815291820152601e60248201527f4861736820616c726561647920626f756e6420746f2061207265636f726400006044820152606490fd5b61108e9150843d861161079d5761078f818361380d565b88610515565b84513d5f823e3d90fd5b6110b59150843d861161079d5761078f818361380d565b886104d2565b83346103eb575f3660031901126103eb576020906016549051908152f35b5050346103eb5760203660031901126103eb576110f46138c0565b7ff0c57e16840df040f15088dc2f81fe391c3923bec73e23a9662efc9c229c6a009182549160ff83861c16159267ffffffffffffffff811680159081611269575b600114908161125f575b159081611256575b506112465767ffffffffffffffff198116600117855583611227575b506001600160a01b03169081156111da57506bffffffffffffffffffffffff60a01b90815f5416175f553390600154161760015561119d57005b805468ff00000000000000001916905551600181527fc7f505b2f371ae2175ee4913f4499e1f2633a7b5936321eed1cdaeb6115181d290602090a1005b608490602086519162461bcd60e51b8352820152602160248201527f496e76616c6964204d656d626572526f6c654d616e61676572206164647265736044820152607360f81b6064820152fd5b68ffffffffffffffffff1916680100000000000000011784555f611163565b855163f92ee8a960e01b81528390fd5b9050155f611147565b303b15915061113f565b859150611135565b5050346103eb5760209060206003193601126103eb57355f526002602052815f209180519182602085549182815201945f5260205f20915f905b8282106112c3576108308686610826828b038361380d565b8354875295860195600193840193909101906112ab565b5050346103eb57602090816003193601126103eb57355f5260108152815f2080549161130583613c83565b926113128551948561380d565b80845281840180935f52825f205f915b83831061138d5750505050835192818401908285525180915284840192915f5b82811061134f5785850386f35b835180518652808301518684015287810151888701526060808201519087015260809081015115159086015260a09094019392810192600101611342565b60058560019261139f859a989a613e2e565b815201920192019190959395611322565b83346103eb576113bf3661376d565b91905f526013602052805f2080548310156103eb576020926113e091613911565b91905490519160031b1c8152f35b8284346103eb576113fe3661376d565b92905f52602052805f2080548310156103eb576020926113e091613911565b8284346103eb5761142d3661376d565b905f52600d602052815f209081548110156103eb5761144b9161393a565b50906114b48254936001840154956114a6600286015460ff811660ff600561147560038b0161398b565b968a0154990154169680519a8b9a8b5260208b015261149382613783565b89015260ff606089019160081c16613875565b806080870152850190613882565b9160a0840152151560c08301520390f35b83346103eb576114d43661376d565b91905f526014602052805f2080548310156103eb576020926113e091613911565b8284346103eb575f3660031901126103eb5780519080820182811067ffffffffffffffff82111761154b576108309350815260058252640352e302e360dc1b602083015251918291602083526020830190613882565b604184634e487b7160e01b5f525260245ffd5b83346103eb5761156d3661376d565b91905f526002602052805f2080548310156103eb576020926113e091613911565b83346103eb575f3660031901126103eb576020906017549051908152f35b83346103eb575f3660031901126103eb576020906015549051908152f35b83346103eb576020906115dc3661376d565b905f5260058352815f20905f52825260ff815f20541690519015158152f35b8284346103eb5761160b3661376d565b5f5483516345ecd02f60e01b8152338682015292936020939092916001600160a01b0316908481602481855afa9081156110945790611650915f916117995750613cc7565b82516364461aff60e11b8152868101868152336020820152909185918391908290819060400103915afa9081156107cb5761169b9291611696915f916117825750613d0a565b6140d3565b93835f5260038352815f20855f52835260ff825f2054161561174b57835f5260058352815f20855f52835260ff825f2054166117195750907f34ca5296a801df9003d17df2e6ea45b29101067ae1a058cef45a9b8995d2cdfc91835f5260058252805f20855f528252805f20600160ff1982541617905551428152a3005b82606492519162461bcd60e51b8352820152600e60248201526d416c72656164792061637469766560901b6044820152fd5b82606492519162461bcd60e51b8352820152601360248201527215d85cc81b995d995c8818481cdd589a9958dd606a1b6044820152fd5b61108e9150863d881161079d5761078f818361380d565b6110b59150863d881161079d5761078f818361380d565b83346103eb576117bf3661376d565b91905f526007602052805f2080548310156103eb576020926113e091613911565b83346103eb576020906117f23661376d565b905f52600f8352815f20905f528252805f20549051908152f35b83346103eb5760209061181e3661376d565b905f5260118352815f20905f528252805f20549051908152f35b5050346103eb57816003193601126103eb5780359060ff6118576137a1565b1692600184101580611a7c575b61186d90614093565b5f54815162b0c80960e01b8152338482015294906020908190879060249082906001600160a01b03165afa9586156107cb575f96611a4d575b506118b2861515613c08565b845f52600b8152825f20865f52815260ff835f20541615611a0b57845f52600c8152825f20865f5281526118f2835f2054865f52600a8352845f20613a2d565b5060ff8582015416156119c85760020160ff8154169461191184613783565b61191a84613783565b61192386613783565b83861461199057509160609391611965827f2ceaf6828ee12b3a0561fe551f858011031c9f47cf65d027f4462777e3c63a8d979561196082613783565b613c4c565b61196e82613783565b82519361197a81613783565b845261198582613783565b8301524290820152a3005b845162461bcd60e51b81529081018390526012602482015271105b1c9958591e481d1a1a5cc81b195d995b60721b6044820152606490fd5b835162461bcd60e51b8152808601839052601f60248201527f566572696669636174696f6e20686173206265656e20726574726163746564006044820152606490fd5b8360649184519162461bcd60e51b8352820152601960248201527f4e6f20766572696669636174696f6e20746f206d6f64696679000000000000006044820152fd5b9080965081813d8311611a75575b611a65818361380d565b810103126103eb5751945f6118a6565b503d611a5b565b506003841115611864565b5050346103eb57602090816003193601126103eb573590815f5260028152825f2083518082848294549384815201905f52845f20925f5b86828210611bbc57505050611ad59250038261380d565b5f915f5b8251811015611b2357845f5260058252855f20611af68285613c9b565b515f52825260ff865f205416611b0f575b600101611ad9565b92611b1b600191613a7f565b939050611b07565b5090611b2e83613c83565b92611b3b8651948561380d565b808452611b4a601f1991613c83565b0136838501375f915f5b8251811015611baf57600190865f5260058352875f20611b748286613c9b565b515f52835260ff885f205416611b8b575b01611b54565b611b958185613c9b565b51611ba9611ba287613a7f565b9688613c9b565b52611b85565b86518061083087826138d6565b8554845260019586019587955093019201611abe565b8284346103eb5760203660031901126103eb578135805f52600860205260ff825f20541615611c1057602092505f5260068252805f20549051908152f35b815162461bcd60e51b8152602081850152601360248201527212185cda08191bd95cc81b9bdd08195e1a5cdd606a1b6044820152606490fd5b8284346103eb5760603660031901126103eb578135602491823590611c6c6137b1565b5f5482516345ecd02f60e01b8152338882015291966001600160a01b03909116916020919082818981875afa908115611f6a5790611cb0915f91611f745750613cc7565b83516364461aff60e11b81528181018781523360208201528390829081906040010381875afa908115611f6a578899611cf3859360ff935f91611f4d5750613d0a565b611cfe891515613d56565b611d09881515613da2565b1693600185101580611f42575b611d1f90614093565b855162b0c80960e01b8152338482015298899182905afa968715611094575f97611f13575b50611d50871515613c08565b845f52600b8252835f20875f52825260ff845f205416611ed357845f52600a8252835f2090815491611d8185613783565b8551611d8c816137c1565b89815284810189815287820190611da288613783565b8782526060830192428452608081019460018652600160401b881015611ec15787611dd291600182018155613a2d565b9e909e611eb057507f9f44978447988782ba02b3e977811604129dc2032d4cfc97aaadacb68bea9f359a9b9c9d9492611e43969492611e279251875551600187015551611e1e81613783565b60028601613c4c565b51600384015551151591019060ff801983541691151516179055565b855f52600b8252835f20885f528252835f20600160ff19825416179055855f52600c8252835f20885f528252835f205560138152611e8385845f20613dfa565b611e8e601554613a7f565b601555611e9a82613783565b825191611ea681613783565b82524290820152a4005b634e487b7160e01b5f908152808852fd5b8e604188634e487b7160e01b5f52525ffd5b601a8860649386519362461bcd60e51b85528401528201527f416c7265616479207665726966696564207468697320686173680000000000006044820152fd5b9096508181813d8311611f3b575b611f2b818361380d565b810103126103eb57519588611d44565b503d611f21565b506003851115611d16565b611f649150853d871161079d5761078f818361380d565b8d610515565b85513d5f823e3d90fd5b611f8b9150843d861161079d5761078f818361380d565b8a6104d2565b83346103eb57602090611fa33661376d565b905f52600e8352815f20905f52825260ff815f20541690519015158152f35b83346103eb5760203660031901126103eb57602090611fdf6138c0565b60015491906001600160a01b03808416917f38df5fa0f7fef0d515ca1f5388cb5790ac5885d5fca8d05d9f943e563c33a4b3919061201e338514613a46565b1694859361202d851515614055565b51428152a36001600160a01b03191617600155005b83346103eb576020906120543661376d565b905f52600c8352815f20905f528252805f20549051908152f35b8284346103eb5761207e3661376d565b9061209460018060a01b03600154163314613a46565b805f52602060118152835f20835f528152835f205493841561218f575f199480860190811161217c576120d090845f5260108452825f20613a2d565b509486860180549660ff88161561214257600101549660ff19169055835f5260128352815f20908154801561212f577f147d74bfb2412c7ed232eabeb9f52ec3783a909e5c2a94b9da2af7f2bdb18ae6959697985001905551428152a4005b601189634e487b7160e01b5f525260245ffd5b835162461bcd60e51b8152808a018690526014602482015273119b1859c8185b1c9958591e481c995d9bdad95960621b6044820152606490fd5b601187634e487b7160e01b5f525260245ffd5b5162461bcd60e51b815280860191909152600e60248201526d4e6f20666c61672065786973747360901b6044820152606490fd5b83346103eb576020906121d53661376d565b5f8281526003855283812082825285528390205460ff169291836121fe575b5050519015158152f35b909192505f5260058352815f20905f52825260ff815f2054169083806121f4565b8284346103eb5760203660031901126103eb57602091355f5260128252805f205415159051908152f35b5050346103eb576122593661376d565b5f5484516345ecd02f60e01b8152338582015292949192602092916001600160a01b0316908381602481855afa9081156107cb579061229e915f916107ae5750613cc7565b81516228cf1560e51b8152858101878152336020820152909184918391908290819060400103915afa9081156107a4575f916124b6575b501561247f57825f526006825284815f20540361244757825f52600880835260ff9261230660ff845f205416614015565b5f94875f5260078252835f20978451808a85829c549384815201905f52855f20925f5b87828210612431575050506123409250038a61380d565b5f5b895181101561238257612355818b613c9b565b515f5284845286865f20541661236e575b600101612342565b9661237a600191613a7f565b979050612366565b5082858960018a11156123d557505f84815260088352818120805460ff191690556006835281812055514281527f6640c4cae266bfafee4b79ae3b57e1391d8cf826d2b9781aa698e99ca7157c7e9190a3005b82608492519162461bcd60e51b8352820152603260248201527f43616e6e6f74207265747261637420746865206c617374206163746976652076604482015271195c9cda5bdb881bd98818481c9958dbdc9960721b6064820152fd5b855484526001958601958f955093019201612329565b5162461bcd60e51b815292830152506014602482015273090c2e6d05aa4cac6dee4c840dad2e6dac2e8c6d60631b6044820152606490fd5b5162461bcd60e51b81529283015250601360248201527227b7363c9037bbb732b91037b91030b236b4b760691b6044820152606490fd5b6124cd9150833d851161079d5761078f818361380d565b5f6122d5565b8284346103eb575f3660031901126103eb577f00000000000000000000000000000000000000000000000000000000000000006001600160a01b0316300361253e57602090517f360894a13ba1a3210667c828492db98dca3e2076cc3735a920a3ca505d382bbc8152f35b5163703e46dd60e11b8152fd5b8284346103eb5760203660031901126103eb57602091355f5260068252805f20549051908152f35b5050816003193601126103eb576125886138c0565b9160243567ffffffffffffffff81116103eb57366023820112156103eb576125b9903690602481860135910161382f565b906001600160a01b037f00000000000000000000000000000000000000000000000000000000000000008116308114908115612746575b506127365761260481600154163314613a46565b8416918151946352d1902d60e01b86526020868681875afa5f9681612702575b5061264057505051634c9c8ce360e01b81529182015260249150fd5b838593877f360894a13ba1a3210667c828492db98dca3e2076cc3735a920a3ca505d382bbc908181036126ec5750833b156126d55780546001600160a01b0319168317905551907fbc7cd75a20ee27fd9adebab32041f755214dbc6bffa90cc0225b39da2e5c2d3b5f80a28251156126bf57506126bd9250614211565b005b915050346126c957005b63b398979f60e01b8152fd5b8151634c9c8ce360e01b8152808701849052602490fd5b86602491845191632a87526960e21b8352820152fd5b9096506020813d60201161272e575b8161271e6020938361380d565b810103126103eb5751955f612624565b3d9150612711565b815163703e46dd60e11b81528490fd5b9050817f360894a13ba1a3210667c828492db98dca3e2076cc3735a920a3ca505d382bbc541614155f6125f0565b5050346103eb576020806003193601126103eb575f54835162b0c80960e01b815233818501529383359390918390869060249082906001600160a01b03165afa9485156107a4575f956128b7575b506127ce851515613c08565b835f52600b8352815f20855f52835260ff825f2054161561287657907f7ec0e3ca85e47c77a1ed99ff37570ab8878cb21ced66baead633becff47a8f0e9291845f52600c8352815f20865f52835261284b825f2054865f52600a855261283c60ff84610b1384885f20613a2d565b865f52600a8552835f20613a2d565b500160ff1990818154169055845f52600b8352815f20865f528352815f2090815416905551428152a3005b82606492519162461bcd60e51b8352820152601a60248201527f4e6f20766572696669636174696f6e20746f20726574726163740000000000006044820152fd5b9094508281813d83116128df575b6128cf818361380d565b810103126103eb5751935f6127c2565b503d6128c5565b8284346103eb576128f63661376d565b5f5483516345ecd02f60e01b8152338682015292936020939092916001600160a01b0316908481602481855afa908115611094579061293b915f916117995750613cc7565b82516364461aff60e11b8152868101868152336020820152909185918391908290819060400103915afa9081156107cb576129819291611696915f916117825750613d0a565b93835f5260038352815f20855f52835260ff825f20541615612a3357835f5260058352815f20855f52835260ff825f205416156129fd5750907f8aefa795ccfdf03e334bd6a4fe20e8c4f5d5202e0320dc267fde988bd5f1674f91835f5260058252805f20855f528252805f2060ff19815416905551428152a3005b82606492519162461bcd60e51b83528201526012602482015271105b1c9958591e481d5b985b98da1bdc995960721b6044820152fd5b82606492519162461bcd60e51b8352820152601c60248201527f4e6f742061207375626a656374206f662074686973207265636f7264000000006044820152fd5b8390346103eb576114a66114b4612a93612a8d3661376d565b90613f54565b9695989390979291949980519a8b9a15158b5260208b0152612ab482613783565b8901526060880190613875565b8284346103eb5760203660031901126103eb57602091355f526008825260ff815f20541690519015158152f35b83346103eb5760a090612b09612b033661376d565b90613e6f565b93949092815195151586521515602086015284015260608301526080820152f35b8284346103eb5760a03660031901126103eb57813590602492833591612b4e6137b1565b6064359060ff82168092036103eb5767ffffffffffffffff936084358581116103eb57366023820112156103eb57612b8e9036908a81850135910161382f565b9460018060a01b035f5416918551936345ecd02f60e01b8552338286015260209485818d81885afa90811561302d5790612bce915f9161306a5750613cc7565b86516364461aff60e11b81528281018b81523360208201528690829081906040010381885afa90811561302d5791612c1360ff928e979695945f9161304d5750613d0a565b612c1e8c1515613d56565b612c298b1515613da2565b169785600194858b101580613042575b612c4290613b79565b8589101580613037575b612c5590613bbc565b895162b0c80960e01b815233858201529d8e9182905afa9b8c1561302d575f9c612ffe575b50612c868c1515613c08565b895f52600e8652875f208c5f52865260ff885f205416612fbc57895f52600d8652875f2092835495612cb78b613783565b6006891015612faa57918c918e9594938b5196612cd3886137f1565b87528987019384528b8701612ce78e613783565b8d815260608801612cf88d82613dee565b6080890194855260a089019542875260c08a01988b8a52600160401b8d1015612f98578c612d2a918d8201815561393a565b9a909a612f8757518a55518a8a0155612d5160028a019251612d4b81613783565b83613c4c565b51906006821015612f755790612d6691613c64565b600387019251908151928311612f635750612d818354613953565b601f8111612f1d575b508990601f8311600114612e875794612e089460609d9b98947f19c1298d442e6dcfc61025509382dd2c8a2d96c75e684d78c38c95624674c9a99f9d9a979480612e749d9a956005975f92612e7c575b50505f19600383901b1c191690891b1790555b519084015551151591019060ff801983541691151516179055565b895f52600e8352855f208c5f528352855f209060ff19825416179055885f52600f8252845f208b5f528252845f205560148152612e4788855f20613dfa565b612e52601654613a7f565b601655612e5e85613783565b835194612e6a81613783565b8552840190613875565b4290820152a4005b015190505f80612dda565b90601f19831691845f528b5f20925f5b818110612f085750947f19c1298d442e6dcfc61025509382dd2c8a2d96c75e684d78c38c95624674c9a99f9d9a60609f9d9a9695612e749d9a95829a95612e089a958360059a10612ef0575b505050811b019055612ded565b01515f1960f88460031b161c191690555f8080612ee3565b828401518555938b0193928d01928d01612e97565b835f528a5f20601f840160051c8101918c8510612f59575b601f0160051c019089905b828110612f4e575050612d8a565b5f8155018990612f40565b9091508190612f35565b634e487b7160e01b5f90815260418752fd5b82602188634e487b7160e01b5f52525ffd5b845f8a634e487b7160e01b8252525ffd5b8460418a634e487b7160e01b5f52525ffd5b634e487b7160e01b5f90815260218552fd5b875162461bcd60e51b8152808301879052601a818701527f416c7265616479206469737075746564207468697320686173680000000000006044820152606490fd5b909b508581813d8311613026575b613016818361380d565b810103126103eb57519a8c612c7a565b503d61300c565b88513d5f823e3d90fd5b506005891115612c4c565b5060038b1115612c39565b6130649150893d8b1161079d5761078f818361380d565b8f610515565b6130819150873d891161079d5761078f818361380d565b8d6104d2565b5050346103eb57602090816003193601126103eb5735905f90825f5260028152835f209084518083838295549384815201905f52835f20925f5b85828210613135575050506130d89250038361380d565b8151935f5b835181101561312757815f5260058352865f206130fa8286613c9b565b515f52835260ff875f205416613113575b6001016130dd565b9361311f600191613a7f565b94905061310b565b505090508351928352820152f35b85548452600195860195889550930192016130c1565b8284346103eb5760203660031901126103eb57602091355f5260128252805f20549051908152f35b83346103eb575f3660031901126103eb576020906009549051908152f35b83346103eb575f3660031901126103eb575f5490516001600160a01b039091168152602090f35b5050346103eb57602090816003193601126103eb575f90355f52600a8252825f209283546131e581613c83565b946131f28351968761380d565b8186525f908152848120858088015b84841061324a57505050505083515f5b85518110156109755760806132268288613c9b565b510151613236575b600101613211565b92613242600191613a7f565b93905061322e565b60019160059161325985613aa1565b8152019201920191908690613201565b83346103eb57602090610bd03661376d565b8284346103eb5760603660031901126103eb578135906132996137a1565b906132a26137b1565b9160ff80809216936001851015806134d3575b6132be90613b79565b16946001861015806134c8575b6132d490613bbc565b5f54835162b0c80960e01b8152338382015296602094918590899060249082906001600160a01b03165afa9788156107a4575f98613499575b50613319881515613c08565b865f52600e8552815f20885f52855283825f2054161561345f57865f52600f8552815f20885f528552613358825f2054885f52600d8752835f2061393a565b50846005820154161561341c57600201908154936133828686169861337c81613783565b84613c4c565b60068210156134095750613400938560a09794846133c66133f2957f0fe65316e02c3dce1bca5a3132e022178971267d711982849c99758da3cfc7ed9c9a97613c64565b5495828716908251996133d881613783565b8a526133e382613783565b89015287019160081c16613875565b606084019160081c16613875565b426080820152a3005b602190634e487b7160e01b5f525260245ffd5b825162461bcd60e51b8152808501879052601a60248201527f4469737075746520686173206265656e207265747261637465640000000000006044820152606490fd5b815162461bcd60e51b815280840186905260146024820152734e6f206469737075746520746f206d6f6469667960601b6044820152606490fd5b9097508481813d83116134c1575b6134b1818361380d565b810103126103eb5751968861330d565b503d6134a7565b5060058611156132cb565b5060038511156132b5565b83346103eb5760a0906134f96134f33661376d565b90613aed565b93949092815195151586526020860152610c6e82613783565b8284346103eb5760803660031901126103eb578135602491823592604435946064359161354a60018060a01b03600154163314613a46565b84156137395785156137065786156136d157845f5260209160118352845f20875f528352845f205461369f57855f5260108352845f20546001810180911161368d57865f5260118452855f20885f528452855f2055855f5260108352845f2085516135b4816137c1565b8881528481018a8152878201908782526060830192428452608081019460018652805490600160401b82101561367b57906135f491600182018155613a2d565b979097611eb05750518655516001860155516002850155516003840155519101805460ff191691151560ff169190911790557fd975a013e674f51ff6b9d1144095cbe8d88c8a4ebac520ffdce1b92eee22e99b929190845f5260128152825f2061365e8154613a7f565b905561366b601754613a7f565b60175582519182524290820152a4005b88604189634e487b7160e01b5f52525ffd5b50601190634e487b7160e01b5f52525ffd5b600f6064928487519362461bcd60e51b85528401528201526e105b1c9958591e48199b1859d9d959608a1b6044820152fd5b906010606492602086519362461bcd60e51b85528401528201526f24b73b30b634b210383937bb34b232b960811b6044820152fd5b90600e606492602086519362461bcd60e51b85528401528201526d125b9d985b1a59081c9958dbdc9960921b6044820152fd5b90600f606492602086519362461bcd60e51b85528401528201526e125b9d985b1a59081cdd589a9958dd608a1b6044820152fd5b60409060031901126103eb576004359060243590565b6004111561378d57565b634e487b7160e01b5f52602160045260245ffd5b6024359060ff821682036103eb57565b6044359060ff821682036103eb57565b60a0810190811067ffffffffffffffff8211176137dd57604052565b634e487b7160e01b5f52604160045260245ffd5b60e0810190811067ffffffffffffffff8211176137dd57604052565b90601f8019910116810190811067ffffffffffffffff8211176137dd57604052565b92919267ffffffffffffffff82116137dd5760405191613859601f8201601f19166020018461380d565b8294818452818301116103eb578281602093845f960137010152565b90600682101561378d5752565b91908251928382525f5b8481106138ac575050825f602080949584010152601f8019910116010190565b60208183018101518483018201520161388c565b600435906001600160a01b03821682036103eb57565b60209060206040818301928281528551809452019301915f5b8281106138fd575050505090565b8351855293810193928101926001016138ef565b8054821015613926575f5260205f2001905f90565b634e487b7160e01b5f52603260045260245ffd5b8054821015613926575f52600660205f20910201905f90565b90600182811c92168015613981575b602083101461396d57565b634e487b7160e01b5f52602260045260245ffd5b91607f1691613962565b9060405191825f825461399d81613953565b908184526020946001916001811690815f14613a0b57506001146139cd575b5050506139cb9250038361380d565b565b5f90815285812095935091905b8183106139f35750506139cb93508201015f80806139bc565b855488840185015294850194879450918301916139da565b925050506139cb94925060ff191682840152151560051b8201015f80806139bc565b8054821015613926575f52600560205f20910201905f90565b15613a4d57565b60405162461bcd60e51b815260206004820152600a60248201526927b7363c9030b236b4b760b11b6044820152606490fd5b5f198114613a8d5760010190565b634e487b7160e01b5f52601160045260245ffd5b90604051613aae816137c1565b608060ff60048395805485526001810154602086015282600282015416613ad481613783565b6040860152600381015460608601520154161515910152565b919091805f52602090600b8252604093845f20815f52835260ff855f20541615613b695781613b3b91613b41935f52600c8552865f20905f528452855f2054905f52600a8452855f20613a2d565b50613aa1565b908101519281015191613b5383613783565b6080606083015192015115159060019493929190565b505f935083928392508291508190565b15613b8057565b60405162461bcd60e51b81526020600482015260146024820152735365766572697479206d75737420626520312d3360601b6044820152606490fd5b15613bc357565b60405162461bcd60e51b815260206004820152601760248201527f43756c706162696c697479206d75737420626520312d350000000000000000006044820152606490fd5b15613c0f57565b60405162461bcd60e51b815260206004820152601560248201527415d85b1b195d081b9bdd081c9959da5cdd195c9959605a1b6044820152606490fd5b90613c5681613783565b60ff80198354169116179055565b90600681101561378d5761ff0082549160081b169061ff001916179055565b67ffffffffffffffff81116137dd5760051b60200190565b80518210156139265760209160051b010190565b908160209103126103eb575180151581036103eb5790565b15613cce57565b60405162461bcd60e51b81526020600482015260146024820152732737ba1030b71030b1ba34bb329036b2b6b132b960611b6044820152606490fd5b15613d1157565b60405162461bcd60e51b815260206004820152601860248201527f4e6f2061636365737320746f2074686973207265636f726400000000000000006044820152606490fd5b15613d5d57565b60405162461bcd60e51b815260206004820152601960248201527f5265636f72642049442063616e6e6f7420626520656d707479000000000000006044820152606490fd5b15613da957565b60405162461bcd60e51b815260206004820152601b60248201527f5265636f726420686173682063616e6e6f7420626520656d70747900000000006044820152606490fd5b600682101561378d5752565b8054600160401b8110156137dd57613e1791600182018155613911565b819291549060031b91821b915f19901b1916179055565b90604051613e3b816137c1565b608060ff60048395805485526001810154602086015260028101546040860152600381015460608601520154161515910152565b90815f52601160205260405f20905f5260205260405f2054908115613ed7575f52601060205260405f205f198201918211613a8d57613eb791613eb191613a2d565b50613e2e565b608081015160208201516040830151606090930151600194921515939192565b50505f905f905f905f905f90565b90604051613ef2816137f1565b60c060ff600583958054855260018101546020860152613f2f836002830154818116613f1d81613783565b604089015260081c1660608701613dee565b613f3b6003820161398b565b6080860152600481015460a08601520154161515910152565b919091805f52602090600e8252604093845f20815f52835260ff855f20541615613fe75781613fa291613fa8935f52600f8552865f20905f528452855f2054905f52600d8452855f2061393a565b50613ee5565b908101519281015191613fba83613783565b606082015191600683101561378d5760808101519160c060a0830151920151151590600196959493929190565b50505f925f925f925f9280519182019082821067ffffffffffffffff8311176137dd57525f8152905f905f90565b1561401c57565b60405162461bcd60e51b8152602060048201526011602482015270105b1c9958591e481c995d1c9858dd1959607a1b6044820152606490fd5b1561405c57565b60405162461bcd60e51b815260206004820152600f60248201526e496e76616c6964206164647265737360881b6044820152606490fd5b1561409a57565b60405162461bcd60e51b81526020600482015260116024820152704c6576656c206d75737420626520312d3360781b6044820152606490fd5b5f5460405162b0c80960e01b81523360048201526020916001600160a01b0316908281602481855afa9081156141c9575f916141e4575b50614116811515613c08565b831580156141db575b6141d457829060446040518094819363557ee54f60e01b835288600484015260248301525afa9081156141c9575f916141ac575b501561415d575090565b6084906040519062461bcd60e51b82526004820152602260248201527f4e6f74206120636f6e74726f6c6c657220666f722074686973206964656e7469604482015261747960f01b6064820152fd5b6141c39150823d841161079d5761078f818361380d565b5f614153565b6040513d5f823e3d90fd5b9250505090565b5080841461411f565b90508281813d831161420a575b6141fb818361380d565b810103126103eb57515f61410a565b503d6141f1565b905f8091602081519101845af4808061428f575b156142455750506040513d81523d5f602083013e60203d82010160405290565b1561426c57604051639996b31560e01b81526001600160a01b039091166004820152602490fd5b3d1561427d576040513d5f823e3d90fd5b60405163d6bda27560e01b8152600490fd5b503d1515806142255750813b151561422556fea2646970667358221220396647b909ca41902f25911e3a28365613091d269747bd9cdce35db775fd9f2c64736f6c63430008180033","opcodes":"PUSH1 0xA0 DUP1 PUSH1 0x40 MSTORE CALLVALUE PUSH3 0xD1 JUMPI ADDRESS PUSH1 0x80 MSTORE PUSH32 0xF0C57E16840DF040F15088DC2F81FE391C3923BEC73E23A9662EFC9C229C6A00 SWAP1 DUP2 SLOAD SWAP1 PUSH1 0xFF DUP3 PUSH1 0x40 SHR AND PUSH3 0xC2 JUMPI POP PUSH1 0x1 PUSH1 0x1 PUSH1 0x40 SHL SUB PUSH1 0x2 PUSH1 0x1 PUSH1 0x40 SHL SUB NOT DUP3 DUP3 AND ADD PUSH3 0x7C JUMPI JUMPDEST PUSH1 0x40 MLOAD PUSH2 0x42D8 SWAP1 DUP2 PUSH3 0xD6 DUP3 CODECOPY PUSH1 0x80 MLOAD DUP2 DUP2 DUP2 PUSH2 0x24E7 ADD MSTORE PUSH2 0x25C4 ADD MSTORE RETURN JUMPDEST PUSH1 0x1 PUSH1 0x1 PUSH1 0x40 SHL SUB NOT SWAP1 SWAP2 AND DUP2 OR SWAP1 SWAP2 SSTORE PUSH1 0x40 MLOAD SWAP1 DUP2 MSTORE PUSH32 0xC7F505B2F371AE2175EE4913F4499E1F2633A7B5936321EED1CDAEB6115181D2 SWAP1 PUSH1 0x20 SWAP1 LOG1 PUSH0 DUP1 DUP1 PUSH3 0x5C JUMP JUMPDEST PUSH4 0xF92EE8A9 PUSH1 0xE0 SHL DUP2 MSTORE PUSH1 0x4 SWAP1 REVERT JUMPDEST PUSH0 DUP1 REVERT INVALID PUSH1 0x40 PUSH1 0x80 DUP2 MSTORE PUSH1 0x4 DUP1 CALLDATASIZE LT ISZERO PUSH2 0x13 JUMPI PUSH0 DUP1 REVERT JUMPDEST PUSH1 0xE0 PUSH0 CALLDATALOAD DUP2 SHR SWAP1 DUP2 PUSH4 0x1F69935 EQ PUSH2 0x3512 JUMPI DUP2 PUSH4 0x45524A2 EQ PUSH2 0x34DE JUMPI DUP2 PUSH4 0x56C925F EQ PUSH2 0x327B JUMPI DUP2 PUSH4 0x8D86517 EQ PUSH2 0x3269 JUMPI DUP2 PUSH4 0x10466A67 EQ PUSH2 0x1F91 JUMPI DUP2 PUSH4 0x1166C389 EQ PUSH2 0x31B8 JUMPI DUP2 PUSH4 0x15370703 EQ PUSH2 0x3191 JUMPI DUP2 PUSH4 0x1CF8CBE8 EQ PUSH2 0x3173 JUMPI DUP2 PUSH4 0x1EE66770 EQ PUSH2 0x2AC1 JUMPI DUP2 PUSH4 0x249DDA2E EQ PUSH2 0x314B JUMPI DUP2 PUSH4 0x28837450 EQ PUSH2 0x3087 JUMPI DUP2 PUSH4 0x3533D58C EQ PUSH2 0x2B2A JUMPI DUP2 PUSH4 0x3FA8EA81 EQ PUSH2 0x2AEE JUMPI DUP2 PUSH4 0x40EC2E9A EQ PUSH2 0x2AC1 JUMPI DUP2 PUSH4 0x42442226 EQ PUSH2 0x2A74 JUMPI DUP2 PUSH4 0x42DEEC25 EQ PUSH2 0x28E6 JUMPI DUP2 PUSH4 0x438B17CF EQ PUSH2 0x2774 JUMPI DUP2 PUSH4 0x4F1EF286 EQ PUSH2 0x2573 JUMPI DUP2 PUSH4 0x5211E3B6 EQ PUSH2 0x254B JUMPI DUP2 PUSH4 0x52D1902D EQ PUSH2 0x24D3 JUMPI DUP2 PUSH4 0x5A3BA1FA EQ PUSH2 0x2249 JUMPI DUP2 PUSH4 0x5D28A342 EQ PUSH2 0x221F JUMPI DUP2 PUSH4 0x64F639D4 EQ PUSH2 0x21C3 JUMPI DUP2 PUSH4 0x6E95A051 EQ PUSH2 0x206E JUMPI DUP2 PUSH4 0x741BFC1D EQ PUSH2 0x2042 JUMPI DUP2 PUSH4 0x75829DEF EQ PUSH2 0x1FC2 JUMPI DUP2 PUSH4 0x7628262E EQ PUSH2 0x1F91 JUMPI DUP2 PUSH4 0x7B470F6A EQ PUSH2 0x1C49 JUMPI DUP2 PUSH4 0x84DEBBF1 EQ PUSH2 0x1BD2 JUMPI DUP2 PUSH4 0x86519335 EQ PUSH2 0x1A87 JUMPI DUP2 PUSH4 0x86FE96E1 EQ PUSH2 0x1838 JUMPI DUP2 PUSH4 0x8A7F882C EQ PUSH2 0x180C JUMPI DUP2 PUSH4 0x8FC751EE EQ PUSH2 0x17E0 JUMPI DUP2 PUSH4 0x9AFD307C EQ PUSH2 0x17B0 JUMPI DUP2 PUSH4 0x9E3432C1 EQ PUSH2 0x15FB JUMPI DUP2 PUSH4 0xA208F96C EQ PUSH2 0x15CA JUMPI DUP2 PUSH4 0xAC90C140 EQ PUSH2 0x15AC JUMPI DUP2 PUSH4 0xAC924336 EQ PUSH2 0x158E JUMPI DUP2 PUSH4 0xACA5964F EQ PUSH2 0x155E JUMPI DUP2 PUSH4 0xAD3CB1CC EQ PUSH2 0x14F5 JUMPI DUP2 PUSH4 0xADCEE102 EQ PUSH2 0x14C5 JUMPI DUP2 PUSH4 0xAEB2A19F EQ PUSH2 0x141D JUMPI DUP2 PUSH4 0xB27BB4D5 EQ PUSH2 0x13EE JUMPI DUP2 PUSH4 0xB5E6B7A2 EQ PUSH2 0x13B0 JUMPI DUP2 PUSH4 0xBE4F9077 EQ PUSH2 0x12DA JUMPI DUP2 PUSH4 0xBF520465 EQ PUSH2 0x1271 JUMPI DUP2 PUSH4 0xC4D66DE8 EQ PUSH2 0x10D9 JUMPI DUP2 PUSH4 0xC5E4CCC4 EQ PUSH2 0x10BB JUMPI DUP2 PUSH4 0xC7567DFA EQ PUSH2 0xE7D JUMPI DUP2 PUSH4 0xC7695BAB EQ PUSH2 0xE15 JUMPI DUP2 PUSH4 0xD08C800D EQ PUSH2 0xDAC JUMPI DUP2 PUSH4 0xD19D3661 EQ PUSH2 0xC7F JUMPI POP DUP1 PUSH4 0xD1E94E57 EQ PUSH2 0xC0D JUMPI DUP1 PUSH4 0xD46E082F EQ PUSH2 0xBEF JUMPI DUP1 PUSH4 0xD6989F09 EQ PUSH2 0xBBE JUMPI DUP1 PUSH4 0xD9E551FC EQ PUSH2 0xA4A JUMPI DUP1 PUSH4 0xDBC7B842 EQ PUSH2 0xA22 JUMPI DUP1 PUSH4 0xDD0BC082 EQ PUSH2 0x9C9 JUMPI DUP1 PUSH4 0xDE4920F4 EQ PUSH2 0x9A1 JUMPI DUP1 PUSH4 0xDEF0DEC8 EQ PUSH2 0x84B JUMPI DUP1 PUSH4 0xDFE36843 EQ PUSH2 0x8E4 JUMPI DUP1 PUSH4 0xE08F1AC3 EQ PUSH2 0x87C JUMPI DUP1 PUSH4 0xE1628F0B EQ PUSH2 0x84B JUMPI DUP1 PUSH4 0xE76BA193 EQ PUSH2 0x7D5 JUMPI DUP1 PUSH4 0xF36DDB4F EQ PUSH2 0x47E JUMPI DUP1 PUSH4 0xF536EB2B EQ PUSH2 0x417 JUMPI DUP1 PUSH4 0xF851A440 EQ PUSH2 0x3EF JUMPI PUSH4 0xFCDD5261 EQ PUSH2 0x30A JUMPI PUSH0 DUP1 REVERT JUMPDEST CALLVALUE PUSH2 0x3EB JUMPI PUSH1 0x20 SWAP1 DUP2 PUSH1 0x3 NOT CALLDATASIZE ADD SLT PUSH2 0x3EB JUMPI CALLDATALOAD PUSH0 MSTORE PUSH1 0xA DUP2 MSTORE DUP2 PUSH0 KECCAK256 DUP1 SLOAD SWAP2 PUSH2 0x333 DUP4 PUSH2 0x3C83 JUMP JUMPDEST SWAP3 PUSH2 0x340 DUP6 MLOAD SWAP5 DUP6 PUSH2 0x380D JUMP JUMPDEST DUP1 DUP5 MSTORE DUP2 DUP5 ADD DUP1 SWAP4 PUSH0 MSTORE DUP3 PUSH0 KECCAK256 PUSH0 SWAP2 JUMPDEST DUP4 DUP4 LT PUSH2 0x3C8 JUMPI POP POP POP POP DUP4 MLOAD SWAP3 DUP2 DUP5 ADD SWAP1 DUP3 DUP6 MSTORE MLOAD DUP1 SWAP2 MSTORE DUP5 DUP5 ADD SWAP3 SWAP2 PUSH0 JUMPDEST DUP3 DUP2 LT PUSH2 0x37D JUMPI DUP6 DUP6 SUB DUP7 RETURN JUMPDEST SWAP1 SWAP2 SWAP3 SWAP4 DUP3 PUSH1 0xA0 PUSH1 0x1 SWAP3 DUP8 MLOAD DUP1 MLOAD DUP3 MSTORE DUP4 DUP2 ADD MLOAD DUP5 DUP4 ADD MSTORE DUP11 DUP2 ADD MLOAD PUSH2 0x3A2 DUP2 PUSH2 0x3783 JUMP JUMPDEST DUP3 DUP13 ADD MSTORE PUSH1 0x60 DUP2 DUP2 ADD MLOAD SWAP1 DUP4 ADD MSTORE PUSH1 0x80 SWAP1 DUP2 ADD MLOAD ISZERO ISZERO SWAP1 DUP3 ADD MSTORE ADD SWAP6 ADD SWAP4 SWAP3 SWAP2 ADD PUSH2 0x370 JUMP JUMPDEST PUSH1 0x5 DUP6 PUSH1 0x1 SWAP3 PUSH2 0x3DA DUP6 SWAP11 SWAP9 SWAP11 PUSH2 0x3AA1 JUMP JUMPDEST DUP2 MSTORE ADD SWAP3 ADD SWAP3 ADD SWAP2 SWAP1 SWAP6 SWAP4 SWAP6 PUSH2 0x350 JUMP JUMPDEST PUSH0 DUP1 REVERT JUMPDEST DUP3 CALLVALUE PUSH2 0x3EB JUMPI PUSH0 CALLDATASIZE PUSH1 0x3 NOT ADD SLT PUSH2 0x3EB JUMPI PUSH1 0x1 SLOAD SWAP1 MLOAD PUSH1 0x1 PUSH1 0x1 PUSH1 0xA0 SHL SUB SWAP1 SWAP2 AND DUP2 MSTORE PUSH1 0x20 SWAP1 RETURN JUMPDEST POP CALLVALUE PUSH2 0x3EB JUMPI PUSH2 0x426 CALLDATASIZE PUSH2 0x376D JUMP JUMPDEST SWAP3 SWAP1 PUSH0 MSTORE PUSH1 0x10 PUSH1 0x20 MSTORE DUP1 PUSH0 KECCAK256 DUP1 SLOAD DUP5 LT ISZERO PUSH2 0x3EB JUMPI PUSH1 0xA0 SWAP4 PUSH2 0x447 SWAP2 PUSH2 0x3A2D JUMP JUMPDEST POP DUP1 SLOAD SWAP3 PUSH1 0x1 DUP3 ADD SLOAD SWAP3 PUSH1 0xFF PUSH1 0x2 DUP5 ADD SLOAD SWAP3 PUSH1 0x3 DUP6 ADD SLOAD SWAP5 ADD SLOAD AND SWAP4 DUP2 MLOAD SWAP6 DUP7 MSTORE PUSH1 0x20 DUP7 ADD MSTORE DUP5 ADD MSTORE PUSH1 0x60 DUP4 ADD MSTORE ISZERO ISZERO PUSH1 0x80 DUP3 ADD MSTORE RETURN JUMPDEST POP SWAP1 CALLVALUE PUSH2 0x3EB JUMPI PUSH1 0x60 CALLDATASIZE PUSH1 0x3 NOT ADD SLT PUSH2 0x3EB JUMPI DUP2 CALLDATALOAD PUSH1 0x24 CALLDATALOAD SWAP2 PUSH1 0x1 DUP1 PUSH1 0xA0 SHL SUB PUSH0 SLOAD AND SWAP1 DUP1 MLOAD SWAP2 PUSH4 0x45ECD02F PUSH1 0xE0 SHL DUP4 MSTORE CALLER DUP7 DUP5 ADD MSTORE PUSH1 0x20 SWAP3 DUP4 DUP2 PUSH1 0x24 DUP2 DUP6 GAS STATICCALL SWAP1 DUP2 ISZERO PUSH2 0x7CB JUMPI SWAP1 PUSH2 0x4D8 SWAP2 PUSH0 SWAP2 PUSH2 0x7AE JUMPI JUMPDEST POP PUSH2 0x3CC7 JUMP JUMPDEST DUP2 MLOAD PUSH4 0x64461AFF PUSH1 0xE1 SHL DUP2 MSTORE DUP7 DUP2 ADD DUP6 DUP2 MSTORE CALLER PUSH1 0x20 DUP3 ADD MSTORE SWAP1 SWAP2 DUP5 SWAP2 DUP4 SWAP2 SWAP1 DUP3 SWAP1 DUP2 SWAP1 PUSH1 0x40 ADD SUB SWAP2 GAS STATICCALL SWAP1 DUP2 ISZERO PUSH2 0x7A4 JUMPI SWAP1 PUSH2 0x51B SWAP2 PUSH0 SWAP2 PUSH2 0x777 JUMPI JUMPDEST POP PUSH2 0x3D0A JUMP JUMPDEST PUSH2 0x526 DUP4 ISZERO ISZERO PUSH2 0x3D56 JUMP JUMPDEST PUSH2 0x531 DUP5 ISZERO ISZERO PUSH2 0x3DA2 JUMP JUMPDEST PUSH2 0x53C PUSH1 0x44 CALLDATALOAD PUSH2 0x40D3 JUMP JUMPDEST SWAP5 DUP4 PUSH0 MSTORE PUSH1 0x3 DUP4 MSTORE DUP2 PUSH0 KECCAK256 DUP7 PUSH0 MSTORE DUP4 MSTORE PUSH1 0xFF DUP3 PUSH0 KECCAK256 SLOAD AND PUSH2 0x726 JUMPI DUP4 PUSH0 MSTORE PUSH1 0x2 DUP4 MSTORE DUP2 PUSH0 KECCAK256 SLOAD ISZERO PUSH2 0x5FC JUMPI JUMPDEST SWAP1 PUSH32 0xAED20EB4DF1031F98B6EE943999C834D0A9A777B4AAE82671C972B33C8B93750 SWAP3 SWAP2 DUP5 PUSH0 MSTORE PUSH1 0x2 DUP4 MSTORE PUSH2 0x59F DUP8 DUP4 PUSH0 KECCAK256 PUSH2 0x3DFA JUMP JUMPDEST DUP5 PUSH0 MSTORE PUSH1 0x3 DUP4 MSTORE DUP2 PUSH0 KECCAK256 DUP8 PUSH0 MSTORE DUP4 MSTORE DUP2 PUSH0 KECCAK256 PUSH1 0xFF NOT SWAP1 PUSH1 0x1 DUP3 DUP3 SLOAD AND OR SWAP1 SSTORE DUP6 PUSH0 MSTORE PUSH1 0x5 DUP5 MSTORE DUP3 PUSH0 KECCAK256 DUP9 PUSH0 MSTORE DUP5 MSTORE PUSH1 0x1 DUP4 PUSH0 KECCAK256 SWAP2 DUP3 SLOAD AND OR SWAP1 SSTORE DUP3 MSTORE PUSH2 0x5E7 DUP5 DUP3 PUSH0 KECCAK256 PUSH2 0x3DFA JUMP JUMPDEST PUSH2 0x5F2 PUSH1 0x9 SLOAD PUSH2 0x3A7F JUMP JUMPDEST PUSH1 0x9 SSTORE MLOAD TIMESTAMP DUP2 MSTORE LOG4 STOP JUMPDEST PUSH0 DUP6 DUP2 MSTORE PUSH1 0x6 DUP5 MSTORE DUP3 SWAP1 KECCAK256 SLOAD DUP5 SWAP1 DUP1 ISZERO PUSH2 0x683 JUMPI SUB PUSH2 0x643 JUMPI SWAP1 PUSH32 0xAED20EB4DF1031F98B6EE943999C834D0A9A777B4AAE82671C972B33C8B93750 SWAP3 SWAP2 JUMPDEST SWAP1 SWAP2 SWAP3 POP PUSH2 0x568 JUMP JUMPDEST DUP3 DUP1 PUSH1 0x64 SWAP4 MLOAD SWAP3 PUSH3 0x461BCD PUSH1 0xE5 SHL DUP5 MSTORE DUP4 ADD MSTORE PUSH1 0x24 DUP3 ADD MSTORE PUSH32 0x486173682062656C6F6E677320746F20646966666572656E74207265636F7264 PUSH1 0x44 DUP3 ADD MSTORE REVERT JUMPDEST POP POP PUSH1 0x8 DUP4 MSTORE PUSH1 0xFF DUP3 PUSH0 KECCAK256 SLOAD AND PUSH2 0x6F1 JUMPI SWAP1 PUSH32 0xAED20EB4DF1031F98B6EE943999C834D0A9A777B4AAE82671C972B33C8B93750 SWAP3 SWAP2 DUP6 PUSH0 MSTORE PUSH1 0x6 DUP4 MSTORE DUP5 DUP3 PUSH0 KECCAK256 SSTORE DUP5 PUSH0 MSTORE PUSH1 0x7 DUP4 MSTORE PUSH2 0x6D7 DUP7 DUP4 PUSH0 KECCAK256 PUSH2 0x3DFA JUMP JUMPDEST DUP6 PUSH0 MSTORE PUSH1 0x8 DUP4 MSTORE DUP2 PUSH0 KECCAK256 PUSH1 0x1 PUSH1 0xFF NOT DUP3 SLOAD AND OR SWAP1 SSTORE PUSH2 0x63A JUMP JUMPDEST DUP3 PUSH1 0x64 SWAP3 MLOAD SWAP2 PUSH3 0x461BCD PUSH1 0xE5 SHL DUP4 MSTORE DUP3 ADD MSTORE PUSH1 0x11 PUSH1 0x24 DUP3 ADD MSTORE PUSH17 0x12185CDA08185B1C9958591E481D5CD959 PUSH1 0x7A SHL PUSH1 0x44 DUP3 ADD MSTORE REVERT JUMPDEST DUP3 PUSH1 0x84 SWAP3 MLOAD SWAP2 PUSH3 0x461BCD PUSH1 0xE5 SHL DUP4 MSTORE DUP3 ADD MSTORE PUSH1 0x27 PUSH1 0x24 DUP3 ADD MSTORE PUSH32 0x5265636F726420616C726561647920616E63686F72656420746F207468697320 PUSH1 0x44 DUP3 ADD MSTORE PUSH7 0x1CDD589A9958DD PUSH1 0xCA SHL PUSH1 0x64 DUP3 ADD MSTORE REVERT JUMPDEST PUSH2 0x797 SWAP2 POP DUP5 RETURNDATASIZE DUP7 GT PUSH2 0x79D JUMPI JUMPDEST PUSH2 0x78F DUP2 DUP4 PUSH2 0x380D JUMP JUMPDEST DUP2 ADD SWAP1 PUSH2 0x3CAF JUMP JUMPDEST PUSH0 PUSH2 0x515 JUMP JUMPDEST POP RETURNDATASIZE PUSH2 0x785 JUMP JUMPDEST DUP3 MLOAD RETURNDATASIZE PUSH0 DUP3 RETURNDATACOPY RETURNDATASIZE SWAP1 REVERT JUMPDEST PUSH2 0x7C5 SWAP2 POP DUP6 RETURNDATASIZE DUP8 GT PUSH2 0x79D JUMPI PUSH2 0x78F DUP2 DUP4 PUSH2 0x380D JUMP JUMPDEST PUSH0 PUSH2 0x4D2 JUMP JUMPDEST DUP4 MLOAD RETURNDATASIZE PUSH0 DUP3 RETURNDATACOPY RETURNDATASIZE SWAP1 REVERT JUMPDEST POP CALLVALUE PUSH2 0x3EB JUMPI PUSH1 0x20 SWAP1 PUSH1 0x20 PUSH1 0x3 NOT CALLDATASIZE ADD SLT PUSH2 0x3EB JUMPI CALLDATALOAD PUSH0 MSTORE PUSH1 0x7 PUSH1 0x20 MSTORE DUP2 PUSH0 KECCAK256 SWAP2 DUP1 MLOAD SWAP2 DUP3 PUSH1 0x20 DUP6 SLOAD SWAP2 DUP3 DUP2 MSTORE ADD SWAP5 PUSH0 MSTORE PUSH1 0x20 PUSH0 KECCAK256 SWAP2 PUSH0 SWAP1 JUMPDEST DUP3 DUP3 LT PUSH2 0x834 JUMPI PUSH2 0x830 DUP7 DUP7 PUSH2 0x826 DUP3 DUP12 SUB DUP4 PUSH2 0x380D JUMP JUMPDEST MLOAD SWAP2 DUP3 SWAP2 DUP3 PUSH2 0x38D6 JUMP JUMPDEST SUB SWAP1 RETURN JUMPDEST DUP4 SLOAD DUP8 MSTORE SWAP6 DUP7 ADD SWAP6 PUSH1 0x1 SWAP4 DUP5 ADD SWAP4 SWAP1 SWAP2 ADD SWAP1 PUSH2 0x80E JUMP JUMPDEST DUP3 CALLVALUE PUSH2 0x3EB JUMPI PUSH1 0x20 SWAP1 PUSH2 0x85D CALLDATASIZE PUSH2 0x376D JUMP JUMPDEST SWAP1 PUSH0 MSTORE PUSH1 0xB DUP4 MSTORE DUP2 PUSH0 KECCAK256 SWAP1 PUSH0 MSTORE DUP3 MSTORE PUSH1 0xFF DUP2 PUSH0 KECCAK256 SLOAD AND SWAP1 MLOAD SWAP1 ISZERO ISZERO DUP2 MSTORE RETURN JUMPDEST POP CALLVALUE PUSH2 0x3EB JUMPI PUSH1 0x20 SWAP1 PUSH1 0x20 PUSH1 0x3 NOT CALLDATASIZE ADD SLT PUSH2 0x3EB JUMPI CALLDATALOAD PUSH0 MSTORE PUSH1 0x13 PUSH1 0x20 MSTORE DUP2 PUSH0 KECCAK256 SWAP2 DUP1 MLOAD SWAP2 DUP3 PUSH1 0x20 DUP6 SLOAD SWAP2 DUP3 DUP2 MSTORE ADD SWAP5 PUSH0 MSTORE PUSH1 0x20 PUSH0 KECCAK256 SWAP2 PUSH0 SWAP1 JUMPDEST DUP3 DUP3 LT PUSH2 0x8CD JUMPI PUSH2 0x830 DUP7 DUP7 PUSH2 0x826 DUP3 DUP12 SUB DUP4 PUSH2 0x380D JUMP JUMPDEST DUP4 SLOAD DUP8 MSTORE SWAP6 DUP7 ADD SWAP6 PUSH1 0x1 SWAP4 DUP5 ADD SWAP4 SWAP1 SWAP2 ADD SWAP1 PUSH2 0x8B5 JUMP JUMPDEST POP CALLVALUE PUSH2 0x3EB JUMPI PUSH1 0x20 SWAP1 DUP2 PUSH1 0x3 NOT CALLDATASIZE ADD SLT PUSH2 0x3EB JUMPI PUSH0 SWAP1 CALLDATALOAD PUSH0 MSTORE PUSH1 0xD DUP3 MSTORE DUP3 PUSH0 KECCAK256 SWAP3 DUP4 SLOAD PUSH2 0x910 DUP2 PUSH2 0x3C83 JUMP JUMPDEST SWAP5 PUSH2 0x91D DUP4 MLOAD SWAP7 DUP8 PUSH2 0x380D JUMP JUMPDEST DUP2 DUP7 MSTORE PUSH0 SWAP1 DUP2 MSTORE DUP5 DUP2 KECCAK256 DUP6 DUP1 DUP9 ADD JUMPDEST DUP5 DUP5 LT PUSH2 0x982 JUMPI POP POP POP POP POP DUP4 MLOAD PUSH0 JUMPDEST DUP6 MLOAD DUP2 LT ISZERO PUSH2 0x975 JUMPI PUSH1 0xC0 PUSH2 0x951 DUP3 DUP9 PUSH2 0x3C9B JUMP JUMPDEST MLOAD ADD MLOAD PUSH2 0x961 JUMPI JUMPDEST PUSH1 0x1 ADD PUSH2 0x93C JUMP JUMPDEST SWAP3 PUSH2 0x96D PUSH1 0x1 SWAP2 PUSH2 0x3A7F JUMP JUMPDEST SWAP4 SWAP1 POP PUSH2 0x959 JUMP JUMPDEST POP DUP3 DUP5 DUP4 MLOAD SWAP3 DUP4 MSTORE DUP3 ADD MSTORE RETURN JUMPDEST PUSH1 0x1 SWAP2 PUSH1 0x6 SWAP2 PUSH2 0x991 DUP6 PUSH2 0x3EE5 JUMP JUMPDEST DUP2 MSTORE ADD SWAP3 ADD SWAP3 ADD SWAP2 SWAP1 DUP7 SWAP1 PUSH2 0x92C JUMP JUMPDEST POP SWAP1 CALLVALUE PUSH2 0x3EB JUMPI PUSH1 0x20 CALLDATASIZE PUSH1 0x3 NOT ADD SLT PUSH2 0x3EB JUMPI PUSH1 0x20 SWAP2 CALLDATALOAD PUSH0 MSTORE PUSH1 0x7 DUP3 MSTORE DUP1 PUSH0 KECCAK256 SLOAD SWAP1 MLOAD SWAP1 DUP2 MSTORE RETURN JUMPDEST CALLVALUE PUSH2 0x3EB JUMPI PUSH1 0x20 CALLDATASIZE PUSH1 0x3 NOT ADD SLT PUSH2 0x3EB JUMPI PUSH2 0x9E2 PUSH2 0x38C0 JUMP JUMPDEST PUSH1 0x1 SLOAD PUSH1 0x1 PUSH1 0x1 PUSH1 0xA0 SHL SUB SWAP2 SWAP1 PUSH2 0x9FC SWAP1 DUP4 AND CALLER EQ PUSH2 0x3A46 JUMP JUMPDEST AND PUSH2 0xA08 DUP2 ISZERO ISZERO PUSH2 0x4055 JUMP JUMPDEST PUSH12 0xFFFFFFFFFFFFFFFFFFFFFFFF PUSH1 0xA0 SHL PUSH0 SLOAD AND OR PUSH0 SSTORE PUSH0 DUP1 RETURN JUMPDEST POP SWAP1 CALLVALUE PUSH2 0x3EB JUMPI PUSH1 0x20 CALLDATASIZE PUSH1 0x3 NOT ADD SLT PUSH2 0x3EB JUMPI PUSH1 0x20 SWAP2 CALLDATALOAD PUSH0 MSTORE PUSH1 0x12 DUP3 MSTORE DUP1 PUSH0 KECCAK256 SLOAD SWAP1 MLOAD SWAP1 DUP2 MSTORE RETURN JUMPDEST POP CALLVALUE PUSH2 0x3EB JUMPI PUSH1 0x20 DUP1 PUSH1 0x3 NOT CALLDATASIZE ADD SLT PUSH2 0x3EB JUMPI PUSH0 SLOAD DUP4 MLOAD PUSH3 0xB0C809 PUSH1 0xE0 SHL DUP2 MSTORE CALLER DUP2 DUP6 ADD MSTORE SWAP4 DUP4 CALLDATALOAD SWAP4 SWAP1 SWAP2 DUP4 SWAP1 DUP7 SWAP1 PUSH1 0x24 SWAP1 DUP3 SWAP1 PUSH1 0x1 PUSH1 0x1 PUSH1 0xA0 SHL SUB AND GAS STATICCALL SWAP5 DUP6 ISZERO PUSH2 0x7A4 JUMPI PUSH0 SWAP6 PUSH2 0xB8F JUMPI JUMPDEST POP PUSH2 0xAA3 DUP6 ISZERO ISZERO PUSH2 0x3C08 JUMP JUMPDEST DUP4 PUSH0 MSTORE PUSH1 0xE DUP4 MSTORE DUP2 PUSH0 KECCAK256 DUP6 PUSH0 MSTORE DUP4 MSTORE PUSH1 0xFF DUP3 PUSH0 KECCAK256 SLOAD AND ISZERO PUSH2 0xB56 JUMPI POP SWAP1 PUSH32 0x6CE2CFA8C67A8EEDDAB297878EC995418CC57AA7857D4FE81C4F22C06842AF0D SWAP2 DUP4 PUSH0 MSTORE PUSH1 0xF DUP3 MSTORE DUP1 PUSH0 KECCAK256 DUP6 PUSH0 MSTORE DUP3 MSTORE PUSH1 0x5 PUSH2 0xB2B DUP3 PUSH0 KECCAK256 SLOAD DUP7 PUSH0 MSTORE PUSH1 0xD DUP6 MSTORE PUSH2 0xB1C PUSH1 0xFF DUP5 PUSH2 0xB13 DUP5 DUP9 PUSH0 KECCAK256 PUSH2 0x393A JUMP JUMPDEST POP ADD SLOAD AND PUSH2 0x4015 JUMP JUMPDEST DUP7 PUSH0 MSTORE PUSH1 0xD DUP6 MSTORE DUP4 PUSH0 KECCAK256 PUSH2 0x393A JUMP JUMPDEST POP ADD PUSH1 0xFF NOT SWAP1 DUP2 DUP2 SLOAD AND SWAP1 SSTORE DUP5 PUSH0 MSTORE PUSH1 0xE DUP4 MSTORE DUP2 PUSH0 KECCAK256 DUP7 PUSH0 MSTORE DUP4 MSTORE DUP2 PUSH0 KECCAK256 SWAP1 DUP2 SLOAD AND SWAP1 SSTORE MLOAD TIMESTAMP DUP2 MSTORE LOG3 STOP JUMPDEST DUP3 PUSH1 0x64 SWAP3 MLOAD SWAP2 PUSH3 0x461BCD PUSH1 0xE5 SHL DUP4 MSTORE DUP3 ADD MSTORE PUSH1 0x15 PUSH1 0x24 DUP3 ADD MSTORE PUSH21 0x139BC8191A5CDC1D5D19481D1BC81C995D1C9858DD PUSH1 0x5A SHL PUSH1 0x44 DUP3 ADD MSTORE REVERT JUMPDEST SWAP1 SWAP5 POP DUP3 DUP2 DUP2 RETURNDATASIZE DUP4 GT PUSH2 0xBB7 JUMPI JUMPDEST PUSH2 0xBA7 DUP2 DUP4 PUSH2 0x380D JUMP JUMPDEST DUP2 ADD SUB SLT PUSH2 0x3EB JUMPI MLOAD SWAP4 PUSH0 PUSH2 0xA97 JUMP JUMPDEST POP RETURNDATASIZE PUSH2 0xB9D JUMP JUMPDEST DUP3 CALLVALUE PUSH2 0x3EB JUMPI PUSH1 0x20 SWAP1 PUSH2 0xBD0 CALLDATASIZE PUSH2 0x376D JUMP JUMPDEST SWAP1 PUSH0 MSTORE PUSH1 0x3 DUP4 MSTORE DUP2 PUSH0 KECCAK256 SWAP1 PUSH0 MSTORE DUP3 MSTORE PUSH1 0xFF DUP2 PUSH0 KECCAK256 SLOAD AND SWAP1 MLOAD SWAP1 ISZERO ISZERO DUP2 MSTORE RETURN JUMPDEST DUP3 CALLVALUE PUSH2 0x3EB JUMPI PUSH0 CALLDATASIZE PUSH1 0x3 NOT ADD SLT PUSH2 0x3EB JUMPI PUSH1 0x20 SWAP1 PUSH1 0x9 SLOAD SWAP1 MLOAD SWAP1 DUP2 MSTORE RETURN JUMPDEST POP CALLVALUE PUSH2 0x3EB JUMPI PUSH2 0xC1C CALLDATASIZE PUSH2 0x376D JUMP JUMPDEST SWAP3 SWAP1 PUSH0 MSTORE PUSH1 0xA PUSH1 0x20 MSTORE DUP1 PUSH0 KECCAK256 DUP1 SLOAD DUP5 LT ISZERO PUSH2 0x3EB JUMPI PUSH1 0xA0 SWAP4 PUSH2 0xC3D SWAP2 PUSH2 0x3A2D JUMP JUMPDEST POP DUP1 SLOAD SWAP3 PUSH1 0x1 DUP3 ADD SLOAD SWAP3 PUSH1 0xFF DUP1 PUSH1 0x2 DUP6 ADD SLOAD AND SWAP3 PUSH1 0x3 DUP6 ADD SLOAD SWAP5 ADD SLOAD AND SWAP4 DUP2 MLOAD SWAP6 DUP7 MSTORE PUSH1 0x20 DUP7 ADD MSTORE PUSH2 0xC6E DUP3 PUSH2 0x3783 JUMP JUMPDEST DUP5 ADD MSTORE PUSH1 0x60 DUP4 ADD MSTORE ISZERO ISZERO PUSH1 0x80 DUP3 ADD MSTORE RETURN JUMPDEST SWAP2 SWAP1 POP CALLVALUE PUSH2 0x3EB JUMPI PUSH1 0x20 SWAP1 DUP2 PUSH1 0x3 NOT CALLDATASIZE ADD SLT PUSH2 0x3EB JUMPI DUP4 SWAP1 CALLDATALOAD PUSH0 MSTORE PUSH1 0xD DUP3 MSTORE DUP1 PUSH0 KECCAK256 SWAP1 DUP2 SLOAD PUSH2 0xCAD DUP2 PUSH2 0x3C83 JUMP JUMPDEST SWAP1 PUSH2 0xCBA DUP4 MLOAD SWAP3 DUP4 PUSH2 0x380D JUMP JUMPDEST DUP1 DUP3 MSTORE DUP5 DUP3 ADD DUP1 SWAP5 PUSH0 MSTORE DUP6 PUSH0 KECCAK256 PUSH0 SWAP2 JUMPDEST DUP4 DUP4 LT PUSH2 0xD85 JUMPI POP POP POP POP DUP2 MLOAD SWAP4 DUP1 DUP6 ADD SWAP2 DUP2 DUP7 MSTORE MLOAD DUP1 SWAP3 MSTORE DUP3 DUP6 ADD DUP4 DUP4 PUSH1 0x5 SHL DUP8 ADD ADD SWAP5 SWAP4 PUSH0 SWAP8 JUMPDEST DUP5 DUP10 LT PUSH2 0xD00 JUMPI DUP8 DUP8 SUB DUP9 RETURN JUMPDEST SWAP1 SWAP2 SWAP3 SWAP4 SWAP5 SWAP6 DUP5 DUP1 PUSH1 0x1 SWAP3 PUSH1 0x3F NOT DUP12 DUP3 SUB ADD DUP8 MSTORE DUP10 MLOAD SWAP1 DUP2 MLOAD DUP2 MSTORE DUP3 DUP3 ADD MLOAD DUP4 DUP3 ADD MSTORE DUP7 DUP3 ADD MLOAD PUSH2 0xD30 DUP2 PUSH2 0x3783 JUMP JUMPDEST DUP8 DUP3 ADD MSTORE PUSH2 0xD46 PUSH1 0x60 DUP1 DUP5 ADD MLOAD SWAP1 DUP4 ADD SWAP1 PUSH2 0x3875 JUMP JUMPDEST PUSH2 0xD5D PUSH1 0x80 DUP8 DUP2 DUP6 ADD MLOAD SWAP2 DUP5 ADD MSTORE DUP8 DUP4 ADD SWAP1 PUSH2 0x3882 JUMP JUMPDEST SWAP2 PUSH1 0xA0 DUP1 DUP3 ADD MLOAD SWAP1 DUP4 ADD MSTORE PUSH1 0xC0 DUP1 SWAP2 ADD MLOAD ISZERO ISZERO SWAP2 ADD MSTORE SWAP9 ADD SWAP5 ADD SWAP9 ADD SWAP8 SWAP2 SWAP1 SWAP5 SWAP4 SWAP3 SWAP5 PUSH2 0xCF3 JUMP JUMPDEST PUSH1 0x6 DUP9 PUSH1 0x1 SWAP3 PUSH2 0xD99 DUP6 SWAP13 SWAP12 SWAP9 SWAP10 SWAP13 PUSH2 0x3EE5 JUMP JUMPDEST DUP2 MSTORE ADD SWAP3 ADD SWAP3 ADD SWAP2 SWAP1 SWAP8 SWAP5 SWAP4 SWAP7 SWAP8 PUSH2 0xCCA JUMP JUMPDEST POP POP CALLVALUE PUSH2 0x3EB JUMPI PUSH1 0x20 SWAP1 PUSH1 0x20 PUSH1 0x3 NOT CALLDATASIZE ADD SLT PUSH2 0x3EB JUMPI CALLDATALOAD PUSH0 MSTORE PUSH1 0x14 PUSH1 0x20 MSTORE DUP2 PUSH0 KECCAK256 SWAP2 DUP1 MLOAD SWAP2 DUP3 PUSH1 0x20 DUP6 SLOAD SWAP2 DUP3 DUP2 MSTORE ADD SWAP5 PUSH0 MSTORE PUSH1 0x20 PUSH0 KECCAK256 SWAP2 PUSH0 SWAP1 JUMPDEST DUP3 DUP3 LT PUSH2 0xDFE JUMPI PUSH2 0x830 DUP7 DUP7 PUSH2 0x826 DUP3 DUP12 SUB DUP4 PUSH2 0x380D JUMP JUMPDEST DUP4 SLOAD DUP8 MSTORE SWAP6 DUP7 ADD SWAP6 PUSH1 0x1 SWAP4 DUP5 ADD SWAP4 SWAP1 SWAP2 ADD SWAP1 PUSH2 0xDE6 JUMP JUMPDEST POP POP CALLVALUE PUSH2 0x3EB JUMPI PUSH1 0x20 SWAP1 PUSH1 0x20 PUSH1 0x3 NOT CALLDATASIZE ADD SLT PUSH2 0x3EB JUMPI DUP1 CALLDATALOAD PUSH0 MSTORE PUSH1 0x20 MSTORE DUP2 PUSH0 KECCAK256 SWAP2 DUP1 MLOAD SWAP2 DUP3 PUSH1 0x20 DUP6 SLOAD SWAP2 DUP3 DUP2 MSTORE ADD SWAP5 PUSH0 MSTORE PUSH1 0x20 PUSH0 KECCAK256 SWAP2 PUSH0 SWAP1 JUMPDEST DUP3 DUP3 LT PUSH2 0xE66 JUMPI PUSH2 0x830 DUP7 DUP7 PUSH2 0x826 DUP3 DUP12 SUB DUP4 PUSH2 0x380D JUMP JUMPDEST DUP4 SLOAD DUP8 MSTORE SWAP6 DUP7 ADD SWAP6 PUSH1 0x1 SWAP4 DUP5 ADD SWAP4 SWAP1 SWAP2 ADD SWAP1 PUSH2 0xE4E JUMP JUMPDEST DUP3 DUP5 CALLVALUE PUSH2 0x3EB JUMPI PUSH2 0xE8D CALLDATASIZE PUSH2 0x376D JUMP JUMPDEST SWAP3 SWAP1 SWAP2 PUSH1 0x1 DUP1 PUSH1 0xA0 SHL SUB PUSH0 SLOAD AND SWAP2 DUP2 MLOAD SWAP1 PUSH4 0x45ECD02F PUSH1 0xE0 SHL DUP3 MSTORE CALLER DUP2 DUP4 ADD MSTORE PUSH1 0x20 SWAP2 DUP3 DUP2 PUSH1 0x24 DUP2 DUP9 GAS STATICCALL SWAP1 DUP2 ISZERO PUSH2 0x1094 JUMPI SWAP1 PUSH2 0xED0 SWAP2 PUSH0 SWAP2 PUSH2 0x109E JUMPI POP PUSH2 0x3CC7 JUMP JUMPDEST DUP3 MLOAD PUSH4 0x64461AFF PUSH1 0xE1 SHL DUP2 MSTORE DUP2 DUP2 ADD DUP7 DUP2 MSTORE CALLER PUSH1 0x20 DUP3 ADD MSTORE DUP4 SWAP1 DUP3 SWAP1 DUP2 SWAP1 PUSH1 0x40 ADD SUB DUP2 DUP9 GAS STATICCALL SWAP1 DUP2 ISZERO PUSH2 0x1094 JUMPI SWAP1 PUSH2 0xF0E SWAP2 PUSH0 SWAP2 PUSH2 0x1077 JUMPI POP PUSH2 0x3D0A JUMP JUMPDEST DUP6 PUSH0 MSTORE PUSH1 0x6 DUP3 MSTORE DUP3 PUSH0 KECCAK256 SLOAD PUSH2 0x1036 JUMPI DUP6 ISZERO PUSH2 0xFFE JUMPI DUP2 SWAP1 PUSH1 0x24 DUP5 MLOAD DUP1 SWAP7 DUP2 SWAP4 PUSH3 0xB0C809 PUSH1 0xE0 SHL DUP4 MSTORE CALLER SWAP1 DUP4 ADD MSTORE GAS STATICCALL SWAP1 DUP2 ISZERO PUSH2 0x7A4 JUMPI PUSH0 SWAP2 PUSH2 0xFAF JUMPI JUMPDEST PUSH32 0xA2DC124B7DCC6EE378406493EDC477D456CB2E3946E74B015C868704E9F16280 SWAP4 POP DUP6 PUSH0 MSTORE PUSH1 0x6 DUP2 MSTORE DUP5 DUP4 PUSH0 KECCAK256 SSTORE DUP5 PUSH0 MSTORE PUSH1 0x7 DUP2 MSTORE PUSH2 0xF8D DUP7 DUP5 PUSH0 KECCAK256 PUSH2 0x3DFA JUMP JUMPDEST DUP6 PUSH0 MSTORE PUSH1 0x8 DUP2 MSTORE DUP3 PUSH0 KECCAK256 PUSH1 0x1 PUSH1 0xFF NOT DUP3 SLOAD AND OR SWAP1 SSTORE DUP3 MLOAD SWAP2 DUP3 MSTORE TIMESTAMP SWAP1 DUP3 ADD MSTORE LOG3 STOP JUMPDEST DUP1 SWAP2 POP DUP4 DUP2 RETURNDATASIZE DUP4 GT PUSH2 0xFF7 JUMPI JUMPDEST PUSH2 0xFC6 DUP2 DUP4 PUSH2 0x380D JUMP JUMPDEST DUP2 ADD SUB SLT PUSH2 0x3EB JUMPI PUSH32 0xA2DC124B7DCC6EE378406493EDC477D456CB2E3946E74B015C868704E9F16280 SWAP3 MLOAD SWAP1 PUSH2 0xF4B JUMP JUMPDEST POP RETURNDATASIZE PUSH2 0xFBC JUMP JUMPDEST SWAP2 MLOAD PUSH3 0x461BCD PUSH1 0xE5 SHL DUP2 MSTORE SWAP2 DUP3 ADD MSTORE PUSH1 0x14 PUSH1 0x24 DUP3 ADD MSTORE PUSH20 0x486173682063616E6E6F7420626520656D707479 PUSH1 0x60 SHL PUSH1 0x44 DUP3 ADD MSTORE PUSH1 0x64 SWAP1 REVERT JUMPDEST SWAP2 MLOAD PUSH3 0x461BCD PUSH1 0xE5 SHL DUP2 MSTORE SWAP2 DUP3 ADD MSTORE PUSH1 0x1E PUSH1 0x24 DUP3 ADD MSTORE PUSH32 0x4861736820616C726561647920626F756E6420746F2061207265636F72640000 PUSH1 0x44 DUP3 ADD MSTORE PUSH1 0x64 SWAP1 REVERT JUMPDEST PUSH2 0x108E SWAP2 POP DUP5 RETURNDATASIZE DUP7 GT PUSH2 0x79D JUMPI PUSH2 0x78F DUP2 DUP4 PUSH2 0x380D JUMP JUMPDEST DUP9 PUSH2 0x515 JUMP JUMPDEST DUP5 MLOAD RETURNDATASIZE PUSH0 DUP3 RETURNDATACOPY RETURNDATASIZE SWAP1 REVERT JUMPDEST PUSH2 0x10B5 SWAP2 POP DUP5 RETURNDATASIZE DUP7 GT PUSH2 0x79D JUMPI PUSH2 0x78F DUP2 DUP4 PUSH2 0x380D JUMP JUMPDEST DUP9 PUSH2 0x4D2 JUMP JUMPDEST DUP4 CALLVALUE PUSH2 0x3EB JUMPI PUSH0 CALLDATASIZE PUSH1 0x3 NOT ADD SLT PUSH2 0x3EB JUMPI PUSH1 0x20 SWAP1 PUSH1 0x16 SLOAD SWAP1 MLOAD SWAP1 DUP2 MSTORE RETURN JUMPDEST POP POP CALLVALUE PUSH2 0x3EB JUMPI PUSH1 0x20 CALLDATASIZE PUSH1 0x3 NOT ADD SLT PUSH2 0x3EB JUMPI PUSH2 0x10F4 PUSH2 0x38C0 JUMP JUMPDEST PUSH32 0xF0C57E16840DF040F15088DC2F81FE391C3923BEC73E23A9662EFC9C229C6A00 SWAP2 DUP3 SLOAD SWAP2 PUSH1 0xFF DUP4 DUP7 SHR AND ISZERO SWAP3 PUSH8 0xFFFFFFFFFFFFFFFF DUP2 AND DUP1 ISZERO SWAP1 DUP2 PUSH2 0x1269 JUMPI JUMPDEST PUSH1 0x1 EQ SWAP1 DUP2 PUSH2 0x125F JUMPI JUMPDEST ISZERO SWAP1 DUP2 PUSH2 0x1256 JUMPI JUMPDEST POP PUSH2 0x1246 JUMPI PUSH8 0xFFFFFFFFFFFFFFFF NOT DUP2 AND PUSH1 0x1 OR DUP6 SSTORE DUP4 PUSH2 0x1227 JUMPI JUMPDEST POP PUSH1 0x1 PUSH1 0x1 PUSH1 0xA0 SHL SUB AND SWAP1 DUP2 ISZERO PUSH2 0x11DA JUMPI POP PUSH12 0xFFFFFFFFFFFFFFFFFFFFFFFF PUSH1 0xA0 SHL SWAP1 DUP2 PUSH0 SLOAD AND OR PUSH0 SSTORE CALLER SWAP1 PUSH1 0x1 SLOAD AND OR PUSH1 0x1 SSTORE PUSH2 0x119D JUMPI STOP JUMPDEST DUP1 SLOAD PUSH9 0xFF0000000000000000 NOT AND SWAP1 SSTORE MLOAD PUSH1 0x1 DUP2 MSTORE PUSH32 0xC7F505B2F371AE2175EE4913F4499E1F2633A7B5936321EED1CDAEB6115181D2 SWAP1 PUSH1 0x20 SWAP1 LOG1 STOP JUMPDEST PUSH1 0x84 SWAP1 PUSH1 0x20 DUP7 MLOAD SWAP2 PUSH3 0x461BCD PUSH1 0xE5 SHL DUP4 MSTORE DUP3 ADD MSTORE PUSH1 0x21 PUSH1 0x24 DUP3 ADD MSTORE PUSH32 0x496E76616C6964204D656D626572526F6C654D616E6167657220616464726573 PUSH1 0x44 DUP3 ADD MSTORE PUSH1 0x73 PUSH1 0xF8 SHL PUSH1 0x64 DUP3 ADD MSTORE REVERT JUMPDEST PUSH9 0xFFFFFFFFFFFFFFFFFF NOT AND PUSH9 0x10000000000000001 OR DUP5 SSTORE PUSH0 PUSH2 0x1163 JUMP JUMPDEST DUP6 MLOAD PUSH4 0xF92EE8A9 PUSH1 0xE0 SHL DUP2 MSTORE DUP4 SWAP1 REVERT JUMPDEST SWAP1 POP ISZERO PUSH0 PUSH2 0x1147 JUMP JUMPDEST ADDRESS EXTCODESIZE ISZERO SWAP2 POP PUSH2 0x113F JUMP JUMPDEST DUP6 SWAP2 POP PUSH2 0x1135 JUMP JUMPDEST POP POP CALLVALUE PUSH2 0x3EB JUMPI PUSH1 0x20 SWAP1 PUSH1 0x20 PUSH1 0x3 NOT CALLDATASIZE ADD SLT PUSH2 0x3EB JUMPI CALLDATALOAD PUSH0 MSTORE PUSH1 0x2 PUSH1 0x20 MSTORE DUP2 PUSH0 KECCAK256 SWAP2 DUP1 MLOAD SWAP2 DUP3 PUSH1 0x20 DUP6 SLOAD SWAP2 DUP3 DUP2 MSTORE ADD SWAP5 PUSH0 MSTORE PUSH1 0x20 PUSH0 KECCAK256 SWAP2 PUSH0 SWAP1 JUMPDEST DUP3 DUP3 LT PUSH2 0x12C3 JUMPI PUSH2 0x830 DUP7 DUP7 PUSH2 0x826 DUP3 DUP12 SUB DUP4 PUSH2 0x380D JUMP JUMPDEST DUP4 SLOAD DUP8 MSTORE SWAP6 DUP7 ADD SWAP6 PUSH1 0x1 SWAP4 DUP5 ADD SWAP4 SWAP1 SWAP2 ADD SWAP1 PUSH2 0x12AB JUMP JUMPDEST POP POP CALLVALUE PUSH2 0x3EB JUMPI PUSH1 0x20 SWAP1 DUP2 PUSH1 0x3 NOT CALLDATASIZE ADD SLT PUSH2 0x3EB JUMPI CALLDATALOAD PUSH0 MSTORE PUSH1 0x10 DUP2 MSTORE DUP2 PUSH0 KECCAK256 DUP1 SLOAD SWAP2 PUSH2 0x1305 DUP4 PUSH2 0x3C83 JUMP JUMPDEST SWAP3 PUSH2 0x1312 DUP6 MLOAD SWAP5 DUP6 PUSH2 0x380D JUMP JUMPDEST DUP1 DUP5 MSTORE DUP2 DUP5 ADD DUP1 SWAP4 PUSH0 MSTORE DUP3 PUSH0 KECCAK256 PUSH0 SWAP2 JUMPDEST DUP4 DUP4 LT PUSH2 0x138D JUMPI POP POP POP POP DUP4 MLOAD SWAP3 DUP2 DUP5 ADD SWAP1 DUP3 DUP6 MSTORE MLOAD DUP1 SWAP2 MSTORE DUP5 DUP5 ADD SWAP3 SWAP2 PUSH0 JUMPDEST DUP3 DUP2 LT PUSH2 0x134F JUMPI DUP6 DUP6 SUB DUP7 RETURN JUMPDEST DUP4 MLOAD DUP1 MLOAD DUP7 MSTORE DUP1 DUP4 ADD MLOAD DUP7 DUP5 ADD MSTORE DUP8 DUP2 ADD MLOAD DUP9 DUP8 ADD MSTORE PUSH1 0x60 DUP1 DUP3 ADD MLOAD SWAP1 DUP8 ADD MSTORE PUSH1 0x80 SWAP1 DUP2 ADD MLOAD ISZERO ISZERO SWAP1 DUP7 ADD MSTORE PUSH1 0xA0 SWAP1 SWAP5 ADD SWAP4 SWAP3 DUP2 ADD SWAP3 PUSH1 0x1 ADD PUSH2 0x1342 JUMP JUMPDEST PUSH1 0x5 DUP6 PUSH1 0x1 SWAP3 PUSH2 0x139F DUP6 SWAP11 SWAP9 SWAP11 PUSH2 0x3E2E JUMP JUMPDEST DUP2 MSTORE ADD SWAP3 ADD SWAP3 ADD SWAP2 SWAP1 SWAP6 SWAP4 SWAP6 PUSH2 0x1322 JUMP JUMPDEST DUP4 CALLVALUE PUSH2 0x3EB JUMPI PUSH2 0x13BF CALLDATASIZE PUSH2 0x376D JUMP JUMPDEST SWAP2 SWAP1 PUSH0 MSTORE PUSH1 0x13 PUSH1 0x20 MSTORE DUP1 PUSH0 KECCAK256 DUP1 SLOAD DUP4 LT ISZERO PUSH2 0x3EB JUMPI PUSH1 0x20 SWAP3 PUSH2 0x13E0 SWAP2 PUSH2 0x3911 JUMP JUMPDEST SWAP2 SWAP1 SLOAD SWAP1 MLOAD SWAP2 PUSH1 0x3 SHL SHR DUP2 MSTORE RETURN JUMPDEST DUP3 DUP5 CALLVALUE PUSH2 0x3EB JUMPI PUSH2 0x13FE CALLDATASIZE PUSH2 0x376D JUMP JUMPDEST SWAP3 SWAP1 PUSH0 MSTORE PUSH1 0x20 MSTORE DUP1 PUSH0 KECCAK256 DUP1 SLOAD DUP4 LT ISZERO PUSH2 0x3EB JUMPI PUSH1 0x20 SWAP3 PUSH2 0x13E0 SWAP2 PUSH2 0x3911 JUMP JUMPDEST DUP3 DUP5 CALLVALUE PUSH2 0x3EB JUMPI PUSH2 0x142D CALLDATASIZE PUSH2 0x376D JUMP JUMPDEST SWAP1 PUSH0 MSTORE PUSH1 0xD PUSH1 0x20 MSTORE DUP2 PUSH0 KECCAK256 SWAP1 DUP2 SLOAD DUP2 LT ISZERO PUSH2 0x3EB JUMPI PUSH2 0x144B SWAP2 PUSH2 0x393A JUMP JUMPDEST POP SWAP1 PUSH2 0x14B4 DUP3 SLOAD SWAP4 PUSH1 0x1 DUP5 ADD SLOAD SWAP6 PUSH2 0x14A6 PUSH1 0x2 DUP7 ADD SLOAD PUSH1 0xFF DUP2 AND PUSH1 0xFF PUSH1 0x5 PUSH2 0x1475 PUSH1 0x3 DUP12 ADD PUSH2 0x398B JUMP JUMPDEST SWAP7 DUP11 ADD SLOAD SWAP10 ADD SLOAD AND SWAP7 DUP1 MLOAD SWAP11 DUP12 SWAP11 DUP12 MSTORE PUSH1 0x20 DUP12 ADD MSTORE PUSH2 0x1493 DUP3 PUSH2 0x3783 JUMP JUMPDEST DUP10 ADD MSTORE PUSH1 0xFF PUSH1 0x60 DUP10 ADD SWAP2 PUSH1 0x8 SHR AND PUSH2 0x3875 JUMP JUMPDEST DUP1 PUSH1 0x80 DUP8 ADD MSTORE DUP6 ADD SWAP1 PUSH2 0x3882 JUMP JUMPDEST SWAP2 PUSH1 0xA0 DUP5 ADD MSTORE ISZERO ISZERO PUSH1 0xC0 DUP4 ADD MSTORE SUB SWAP1 RETURN JUMPDEST DUP4 CALLVALUE PUSH2 0x3EB JUMPI PUSH2 0x14D4 CALLDATASIZE PUSH2 0x376D JUMP JUMPDEST SWAP2 SWAP1 PUSH0 MSTORE PUSH1 0x14 PUSH1 0x20 MSTORE DUP1 PUSH0 KECCAK256 DUP1 SLOAD DUP4 LT ISZERO PUSH2 0x3EB JUMPI PUSH1 0x20 SWAP3 PUSH2 0x13E0 SWAP2 PUSH2 0x3911 JUMP JUMPDEST DUP3 DUP5 CALLVALUE PUSH2 0x3EB JUMPI PUSH0 CALLDATASIZE PUSH1 0x3 NOT ADD SLT PUSH2 0x3EB JUMPI DUP1 MLOAD SWAP1 DUP1 DUP3 ADD DUP3 DUP2 LT PUSH8 0xFFFFFFFFFFFFFFFF DUP3 GT OR PUSH2 0x154B JUMPI PUSH2 0x830 SWAP4 POP DUP2 MSTORE PUSH1 0x5 DUP3 MSTORE PUSH5 0x352E302E3 PUSH1 0xDC SHL PUSH1 0x20 DUP4 ADD MSTORE MLOAD SWAP2 DUP3 SWAP2 PUSH1 0x20 DUP4 MSTORE PUSH1 0x20 DUP4 ADD SWAP1 PUSH2 0x3882 JUMP JUMPDEST PUSH1 0x41 DUP5 PUSH4 0x4E487B71 PUSH1 0xE0 SHL PUSH0 MSTORE MSTORE PUSH1 0x24 PUSH0 REVERT JUMPDEST DUP4 CALLVALUE PUSH2 0x3EB JUMPI PUSH2 0x156D CALLDATASIZE PUSH2 0x376D JUMP JUMPDEST SWAP2 SWAP1 PUSH0 MSTORE PUSH1 0x2 PUSH1 0x20 MSTORE DUP1 PUSH0 KECCAK256 DUP1 SLOAD DUP4 LT ISZERO PUSH2 0x3EB JUMPI PUSH1 0x20 SWAP3 PUSH2 0x13E0 SWAP2 PUSH2 0x3911 JUMP JUMPDEST DUP4 CALLVALUE PUSH2 0x3EB JUMPI PUSH0 CALLDATASIZE PUSH1 0x3 NOT ADD SLT PUSH2 0x3EB JUMPI PUSH1 0x20 SWAP1 PUSH1 0x17 SLOAD SWAP1 MLOAD SWAP1 DUP2 MSTORE RETURN JUMPDEST DUP4 CALLVALUE PUSH2 0x3EB JUMPI PUSH0 CALLDATASIZE PUSH1 0x3 NOT ADD SLT PUSH2 0x3EB JUMPI PUSH1 0x20 SWAP1 PUSH1 0x15 SLOAD SWAP1 MLOAD SWAP1 DUP2 MSTORE RETURN JUMPDEST DUP4 CALLVALUE PUSH2 0x3EB JUMPI PUSH1 0x20 SWAP1 PUSH2 0x15DC CALLDATASIZE PUSH2 0x376D JUMP JUMPDEST SWAP1 PUSH0 MSTORE PUSH1 0x5 DUP4 MSTORE DUP2 PUSH0 KECCAK256 SWAP1 PUSH0 MSTORE DUP3 MSTORE PUSH1 0xFF DUP2 PUSH0 KECCAK256 SLOAD AND SWAP1 MLOAD SWAP1 ISZERO ISZERO DUP2 MSTORE RETURN JUMPDEST DUP3 DUP5 CALLVALUE PUSH2 0x3EB JUMPI PUSH2 0x160B CALLDATASIZE PUSH2 0x376D JUMP JUMPDEST PUSH0 SLOAD DUP4 MLOAD PUSH4 0x45ECD02F PUSH1 0xE0 SHL DUP2 MSTORE CALLER DUP7 DUP3 ADD MSTORE SWAP3 SWAP4 PUSH1 0x20 SWAP4 SWAP1 SWAP3 SWAP2 PUSH1 0x1 PUSH1 0x1 PUSH1 0xA0 SHL SUB AND SWAP1 DUP5 DUP2 PUSH1 0x24 DUP2 DUP6 GAS STATICCALL SWAP1 DUP2 ISZERO PUSH2 0x1094 JUMPI SWAP1 PUSH2 0x1650 SWAP2 PUSH0 SWAP2 PUSH2 0x1799 JUMPI POP PUSH2 0x3CC7 JUMP JUMPDEST DUP3 MLOAD PUSH4 0x64461AFF PUSH1 0xE1 SHL DUP2 MSTORE DUP7 DUP2 ADD DUP7 DUP2 MSTORE CALLER PUSH1 0x20 DUP3 ADD MSTORE SWAP1 SWAP2 DUP6 SWAP2 DUP4 SWAP2 SWAP1 DUP3 SWAP1 DUP2 SWAP1 PUSH1 0x40 ADD SUB SWAP2 GAS STATICCALL SWAP1 DUP2 ISZERO PUSH2 0x7CB JUMPI PUSH2 0x169B SWAP3 SWAP2 PUSH2 0x1696 SWAP2 PUSH0 SWAP2 PUSH2 0x1782 JUMPI POP PUSH2 0x3D0A JUMP JUMPDEST PUSH2 0x40D3 JUMP JUMPDEST SWAP4 DUP4 PUSH0 MSTORE PUSH1 0x3 DUP4 MSTORE DUP2 PUSH0 KECCAK256 DUP6 PUSH0 MSTORE DUP4 MSTORE PUSH1 0xFF DUP3 PUSH0 KECCAK256 SLOAD AND ISZERO PUSH2 0x174B JUMPI DUP4 PUSH0 MSTORE PUSH1 0x5 DUP4 MSTORE DUP2 PUSH0 KECCAK256 DUP6 PUSH0 MSTORE DUP4 MSTORE PUSH1 0xFF DUP3 PUSH0 KECCAK256 SLOAD AND PUSH2 0x1719 JUMPI POP SWAP1 PUSH32 0x34CA5296A801DF9003D17DF2E6EA45B29101067AE1A058CEF45A9B8995D2CDFC SWAP2 DUP4 PUSH0 MSTORE PUSH1 0x5 DUP3 MSTORE DUP1 PUSH0 KECCAK256 DUP6 PUSH0 MSTORE DUP3 MSTORE DUP1 PUSH0 KECCAK256 PUSH1 0x1 PUSH1 0xFF NOT DUP3 SLOAD AND OR SWAP1 SSTORE MLOAD TIMESTAMP DUP2 MSTORE LOG3 STOP JUMPDEST DUP3 PUSH1 0x64 SWAP3 MLOAD SWAP2 PUSH3 0x461BCD PUSH1 0xE5 SHL DUP4 MSTORE DUP3 ADD MSTORE PUSH1 0xE PUSH1 0x24 DUP3 ADD MSTORE PUSH14 0x416C726561647920616374697665 PUSH1 0x90 SHL PUSH1 0x44 DUP3 ADD MSTORE REVERT JUMPDEST DUP3 PUSH1 0x64 SWAP3 MLOAD SWAP2 PUSH3 0x461BCD PUSH1 0xE5 SHL DUP4 MSTORE DUP3 ADD MSTORE PUSH1 0x13 PUSH1 0x24 DUP3 ADD MSTORE PUSH19 0x15D85CC81B995D995C8818481CDD589A9958DD PUSH1 0x6A SHL PUSH1 0x44 DUP3 ADD MSTORE REVERT JUMPDEST PUSH2 0x108E SWAP2 POP DUP7 RETURNDATASIZE DUP9 GT PUSH2 0x79D JUMPI PUSH2 0x78F DUP2 DUP4 PUSH2 0x380D JUMP JUMPDEST PUSH2 0x10B5 SWAP2 POP DUP7 RETURNDATASIZE DUP9 GT PUSH2 0x79D JUMPI PUSH2 0x78F DUP2 DUP4 PUSH2 0x380D JUMP JUMPDEST DUP4 CALLVALUE PUSH2 0x3EB JUMPI PUSH2 0x17BF CALLDATASIZE PUSH2 0x376D JUMP JUMPDEST SWAP2 SWAP1 PUSH0 MSTORE PUSH1 0x7 PUSH1 0x20 MSTORE DUP1 PUSH0 KECCAK256 DUP1 SLOAD DUP4 LT ISZERO PUSH2 0x3EB JUMPI PUSH1 0x20 SWAP3 PUSH2 0x13E0 SWAP2 PUSH2 0x3911 JUMP JUMPDEST DUP4 CALLVALUE PUSH2 0x3EB JUMPI PUSH1 0x20 SWAP1 PUSH2 0x17F2 CALLDATASIZE PUSH2 0x376D JUMP JUMPDEST SWAP1 PUSH0 MSTORE PUSH1 0xF DUP4 MSTORE DUP2 PUSH0 KECCAK256 SWAP1 PUSH0 MSTORE DUP3 MSTORE DUP1 PUSH0 KECCAK256 SLOAD SWAP1 MLOAD SWAP1 DUP2 MSTORE RETURN JUMPDEST DUP4 CALLVALUE PUSH2 0x3EB JUMPI PUSH1 0x20 SWAP1 PUSH2 0x181E CALLDATASIZE PUSH2 0x376D JUMP JUMPDEST SWAP1 PUSH0 MSTORE PUSH1 0x11 DUP4 MSTORE DUP2 PUSH0 KECCAK256 SWAP1 PUSH0 MSTORE DUP3 MSTORE DUP1 PUSH0 KECCAK256 SLOAD SWAP1 MLOAD SWAP1 DUP2 MSTORE RETURN JUMPDEST POP POP CALLVALUE PUSH2 0x3EB JUMPI DUP2 PUSH1 0x3 NOT CALLDATASIZE ADD SLT PUSH2 0x3EB JUMPI DUP1 CALLDATALOAD SWAP1 PUSH1 0xFF PUSH2 0x1857 PUSH2 0x37A1 JUMP JUMPDEST AND SWAP3 PUSH1 0x1 DUP5 LT ISZERO DUP1 PUSH2 0x1A7C JUMPI JUMPDEST PUSH2 0x186D SWAP1 PUSH2 0x4093 JUMP JUMPDEST PUSH0 SLOAD DUP2 MLOAD PUSH3 0xB0C809 PUSH1 0xE0 SHL DUP2 MSTORE CALLER DUP5 DUP3 ADD MSTORE SWAP5 SWAP1 PUSH1 0x20 SWAP1 DUP2 SWAP1 DUP8 SWAP1 PUSH1 0x24 SWAP1 DUP3 SWAP1 PUSH1 0x1 PUSH1 0x1 PUSH1 0xA0 SHL SUB AND GAS STATICCALL SWAP6 DUP7 ISZERO PUSH2 0x7CB JUMPI PUSH0 SWAP7 PUSH2 0x1A4D JUMPI JUMPDEST POP PUSH2 0x18B2 DUP7 ISZERO ISZERO PUSH2 0x3C08 JUMP JUMPDEST DUP5 PUSH0 MSTORE PUSH1 0xB DUP2 MSTORE DUP3 PUSH0 KECCAK256 DUP7 PUSH0 MSTORE DUP2 MSTORE PUSH1 0xFF DUP4 PUSH0 KECCAK256 SLOAD AND ISZERO PUSH2 0x1A0B JUMPI DUP5 PUSH0 MSTORE PUSH1 0xC DUP2 MSTORE DUP3 PUSH0 KECCAK256 DUP7 PUSH0 MSTORE DUP2 MSTORE PUSH2 0x18F2 DUP4 PUSH0 KECCAK256 SLOAD DUP7 PUSH0 MSTORE PUSH1 0xA DUP4 MSTORE DUP5 PUSH0 KECCAK256 PUSH2 0x3A2D JUMP JUMPDEST POP PUSH1 0xFF DUP6 DUP3 ADD SLOAD AND ISZERO PUSH2 0x19C8 JUMPI PUSH1 0x2 ADD PUSH1 0xFF DUP2 SLOAD AND SWAP5 PUSH2 0x1911 DUP5 PUSH2 0x3783 JUMP JUMPDEST PUSH2 0x191A DUP5 PUSH2 0x3783 JUMP JUMPDEST PUSH2 0x1923 DUP7 PUSH2 0x3783 JUMP JUMPDEST DUP4 DUP7 EQ PUSH2 0x1990 JUMPI POP SWAP2 PUSH1 0x60 SWAP4 SWAP2 PUSH2 0x1965 DUP3 PUSH32 0x2CEAF6828EE12B3A0561FE551F858011031C9F47CF65D027F4462777E3C63A8D SWAP8 SWAP6 PUSH2 0x1960 DUP3 PUSH2 0x3783 JUMP JUMPDEST PUSH2 0x3C4C JUMP JUMPDEST PUSH2 0x196E DUP3 PUSH2 0x3783 JUMP JUMPDEST DUP3 MLOAD SWAP4 PUSH2 0x197A DUP2 PUSH2 0x3783 JUMP JUMPDEST DUP5 MSTORE PUSH2 0x1985 DUP3 PUSH2 0x3783 JUMP JUMPDEST DUP4 ADD MSTORE TIMESTAMP SWAP1 DUP3 ADD MSTORE LOG3 STOP JUMPDEST DUP5 MLOAD PUSH3 0x461BCD PUSH1 0xE5 SHL DUP2 MSTORE SWAP1 DUP2 ADD DUP4 SWAP1 MSTORE PUSH1 0x12 PUSH1 0x24 DUP3 ADD MSTORE PUSH18 0x105B1C9958591E481D1A1A5CC81B195D995B PUSH1 0x72 SHL PUSH1 0x44 DUP3 ADD MSTORE PUSH1 0x64 SWAP1 REVERT JUMPDEST DUP4 MLOAD PUSH3 0x461BCD PUSH1 0xE5 SHL DUP2 MSTORE DUP1 DUP7 ADD DUP4 SWAP1 MSTORE PUSH1 0x1F PUSH1 0x24 DUP3 ADD MSTORE PUSH32 0x566572696669636174696F6E20686173206265656E2072657472616374656400 PUSH1 0x44 DUP3 ADD MSTORE PUSH1 0x64 SWAP1 REVERT JUMPDEST DUP4 PUSH1 0x64 SWAP2 DUP5 MLOAD SWAP2 PUSH3 0x461BCD PUSH1 0xE5 SHL DUP4 MSTORE DUP3 ADD MSTORE PUSH1 0x19 PUSH1 0x24 DUP3 ADD MSTORE PUSH32 0x4E6F20766572696669636174696F6E20746F206D6F6469667900000000000000 PUSH1 0x44 DUP3 ADD MSTORE REVERT JUMPDEST SWAP1 DUP1 SWAP7 POP DUP2 DUP2 RETURNDATASIZE DUP4 GT PUSH2 0x1A75 JUMPI JUMPDEST PUSH2 0x1A65 DUP2 DUP4 PUSH2 0x380D JUMP JUMPDEST DUP2 ADD SUB SLT PUSH2 0x3EB JUMPI MLOAD SWAP5 PUSH0 PUSH2 0x18A6 JUMP JUMPDEST POP RETURNDATASIZE PUSH2 0x1A5B JUMP JUMPDEST POP PUSH1 0x3 DUP5 GT ISZERO PUSH2 0x1864 JUMP JUMPDEST POP POP CALLVALUE PUSH2 0x3EB JUMPI PUSH1 0x20 SWAP1 DUP2 PUSH1 0x3 NOT CALLDATASIZE ADD SLT PUSH2 0x3EB JUMPI CALLDATALOAD SWAP1 DUP2 PUSH0 MSTORE PUSH1 0x2 DUP2 MSTORE DUP3 PUSH0 KECCAK256 DUP4 MLOAD DUP1 DUP3 DUP5 DUP3 SWAP5 SLOAD SWAP4 DUP5 DUP2 MSTORE ADD SWAP1 PUSH0 MSTORE DUP5 PUSH0 KECCAK256 SWAP3 PUSH0 JUMPDEST DUP7 DUP3 DUP3 LT PUSH2 0x1BBC JUMPI POP POP POP PUSH2 0x1AD5 SWAP3 POP SUB DUP3 PUSH2 0x380D JUMP JUMPDEST PUSH0 SWAP2 PUSH0 JUMPDEST DUP3 MLOAD DUP2 LT ISZERO PUSH2 0x1B23 JUMPI DUP5 PUSH0 MSTORE PUSH1 0x5 DUP3 MSTORE DUP6 PUSH0 KECCAK256 PUSH2 0x1AF6 DUP3 DUP6 PUSH2 0x3C9B JUMP JUMPDEST MLOAD PUSH0 MSTORE DUP3 MSTORE PUSH1 0xFF DUP7 PUSH0 KECCAK256 SLOAD AND PUSH2 0x1B0F JUMPI JUMPDEST PUSH1 0x1 ADD PUSH2 0x1AD9 JUMP JUMPDEST SWAP3 PUSH2 0x1B1B PUSH1 0x1 SWAP2 PUSH2 0x3A7F JUMP JUMPDEST SWAP4 SWAP1 POP PUSH2 0x1B07 JUMP JUMPDEST POP SWAP1 PUSH2 0x1B2E DUP4 PUSH2 0x3C83 JUMP JUMPDEST SWAP3 PUSH2 0x1B3B DUP7 MLOAD SWAP5 DUP6 PUSH2 0x380D JUMP JUMPDEST DUP1 DUP5 MSTORE PUSH2 0x1B4A PUSH1 0x1F NOT SWAP2 PUSH2 0x3C83 JUMP JUMPDEST ADD CALLDATASIZE DUP4 DUP6 ADD CALLDATACOPY PUSH0 SWAP2 PUSH0 JUMPDEST DUP3 MLOAD DUP2 LT ISZERO PUSH2 0x1BAF JUMPI PUSH1 0x1 SWAP1 DUP7 PUSH0 MSTORE PUSH1 0x5 DUP4 MSTORE DUP8 PUSH0 KECCAK256 PUSH2 0x1B74 DUP3 DUP7 PUSH2 0x3C9B JUMP JUMPDEST MLOAD PUSH0 MSTORE DUP4 MSTORE PUSH1 0xFF DUP9 PUSH0 KECCAK256 SLOAD AND PUSH2 0x1B8B JUMPI JUMPDEST ADD PUSH2 0x1B54 JUMP JUMPDEST PUSH2 0x1B95 DUP2 DUP6 PUSH2 0x3C9B JUMP JUMPDEST MLOAD PUSH2 0x1BA9 PUSH2 0x1BA2 DUP8 PUSH2 0x3A7F JUMP JUMPDEST SWAP7 DUP9 PUSH2 0x3C9B JUMP JUMPDEST MSTORE PUSH2 0x1B85 JUMP JUMPDEST DUP7 MLOAD DUP1 PUSH2 0x830 DUP8 DUP3 PUSH2 0x38D6 JUMP JUMPDEST DUP6 SLOAD DUP5 MSTORE PUSH1 0x1 SWAP6 DUP7 ADD SWAP6 DUP8 SWAP6 POP SWAP4 ADD SWAP3 ADD PUSH2 0x1ABE JUMP JUMPDEST DUP3 DUP5 CALLVALUE PUSH2 0x3EB JUMPI PUSH1 0x20 CALLDATASIZE PUSH1 0x3 NOT ADD SLT PUSH2 0x3EB JUMPI DUP2 CALLDATALOAD DUP1 PUSH0 MSTORE PUSH1 0x8 PUSH1 0x20 MSTORE PUSH1 0xFF DUP3 PUSH0 KECCAK256 SLOAD AND ISZERO PUSH2 0x1C10 JUMPI PUSH1 0x20 SWAP3 POP PUSH0 MSTORE PUSH1 0x6 DUP3 MSTORE DUP1 PUSH0 KECCAK256 SLOAD SWAP1 MLOAD SWAP1 DUP2 MSTORE RETURN JUMPDEST DUP2 MLOAD PUSH3 0x461BCD PUSH1 0xE5 SHL DUP2 MSTORE PUSH1 0x20 DUP2 DUP6 ADD MSTORE PUSH1 0x13 PUSH1 0x24 DUP3 ADD MSTORE PUSH19 0x12185CDA08191BD95CC81B9BDD08195E1A5CDD PUSH1 0x6A SHL PUSH1 0x44 DUP3 ADD MSTORE PUSH1 0x64 SWAP1 REVERT JUMPDEST DUP3 DUP5 CALLVALUE PUSH2 0x3EB JUMPI PUSH1 0x60 CALLDATASIZE PUSH1 0x3 NOT ADD SLT PUSH2 0x3EB JUMPI DUP2 CALLDATALOAD PUSH1 0x24 SWAP2 DUP3 CALLDATALOAD SWAP1 PUSH2 0x1C6C PUSH2 0x37B1 JUMP JUMPDEST PUSH0 SLOAD DUP3 MLOAD PUSH4 0x45ECD02F PUSH1 0xE0 SHL DUP2 MSTORE CALLER DUP9 DUP3 ADD MSTORE SWAP2 SWAP7 PUSH1 0x1 PUSH1 0x1 PUSH1 0xA0 SHL SUB SWAP1 SWAP2 AND SWAP2 PUSH1 0x20 SWAP2 SWAP1 DUP3 DUP2 DUP10 DUP2 DUP8 GAS STATICCALL SWAP1 DUP2 ISZERO PUSH2 0x1F6A JUMPI SWAP1 PUSH2 0x1CB0 SWAP2 PUSH0 SWAP2 PUSH2 0x1F74 JUMPI POP PUSH2 0x3CC7 JUMP JUMPDEST DUP4 MLOAD PUSH4 0x64461AFF PUSH1 0xE1 SHL DUP2 MSTORE DUP2 DUP2 ADD DUP8 DUP2 MSTORE CALLER PUSH1 0x20 DUP3 ADD MSTORE DUP4 SWAP1 DUP3 SWAP1 DUP2 SWAP1 PUSH1 0x40 ADD SUB DUP2 DUP8 GAS STATICCALL SWAP1 DUP2 ISZERO PUSH2 0x1F6A JUMPI DUP9 SWAP10 PUSH2 0x1CF3 DUP6 SWAP4 PUSH1 0xFF SWAP4 PUSH0 SWAP2 PUSH2 0x1F4D JUMPI POP PUSH2 0x3D0A JUMP JUMPDEST PUSH2 0x1CFE DUP10 ISZERO ISZERO PUSH2 0x3D56 JUMP JUMPDEST PUSH2 0x1D09 DUP9 ISZERO ISZERO PUSH2 0x3DA2 JUMP JUMPDEST AND SWAP4 PUSH1 0x1 DUP6 LT ISZERO DUP1 PUSH2 0x1F42 JUMPI JUMPDEST PUSH2 0x1D1F SWAP1 PUSH2 0x4093 JUMP JUMPDEST DUP6 MLOAD PUSH3 0xB0C809 PUSH1 0xE0 SHL DUP2 MSTORE CALLER DUP5 DUP3 ADD MSTORE SWAP9 DUP10 SWAP2 DUP3 SWAP1 GAS STATICCALL SWAP7 DUP8 ISZERO PUSH2 0x1094 JUMPI PUSH0 SWAP8 PUSH2 0x1F13 JUMPI JUMPDEST POP PUSH2 0x1D50 DUP8 ISZERO ISZERO PUSH2 0x3C08 JUMP JUMPDEST DUP5 PUSH0 MSTORE PUSH1 0xB DUP3 MSTORE DUP4 PUSH0 KECCAK256 DUP8 PUSH0 MSTORE DUP3 MSTORE PUSH1 0xFF DUP5 PUSH0 KECCAK256 SLOAD AND PUSH2 0x1ED3 JUMPI DUP5 PUSH0 MSTORE PUSH1 0xA DUP3 MSTORE DUP4 PUSH0 KECCAK256 SWAP1 DUP2 SLOAD SWAP2 PUSH2 0x1D81 DUP6 PUSH2 0x3783 JUMP JUMPDEST DUP6 MLOAD PUSH2 0x1D8C DUP2 PUSH2 0x37C1 JUMP JUMPDEST DUP10 DUP2 MSTORE DUP5 DUP2 ADD DUP10 DUP2 MSTORE DUP8 DUP3 ADD SWAP1 PUSH2 0x1DA2 DUP9 PUSH2 0x3783 JUMP JUMPDEST DUP8 DUP3 MSTORE PUSH1 0x60 DUP4 ADD SWAP3 TIMESTAMP DUP5 MSTORE PUSH1 0x80 DUP2 ADD SWAP5 PUSH1 0x1 DUP7 MSTORE PUSH1 0x1 PUSH1 0x40 SHL DUP9 LT ISZERO PUSH2 0x1EC1 JUMPI DUP8 PUSH2 0x1DD2 SWAP2 PUSH1 0x1 DUP3 ADD DUP2 SSTORE PUSH2 0x3A2D JUMP JUMPDEST SWAP15 SWAP1 SWAP15 PUSH2 0x1EB0 JUMPI POP PUSH32 0x9F44978447988782BA02B3E977811604129DC2032D4CFC97AAADACB68BEA9F35 SWAP11 SWAP12 SWAP13 SWAP14 SWAP5 SWAP3 PUSH2 0x1E43 SWAP7 SWAP5 SWAP3 PUSH2 0x1E27 SWAP3 MLOAD DUP8 SSTORE MLOAD PUSH1 0x1 DUP8 ADD SSTORE MLOAD PUSH2 0x1E1E DUP2 PUSH2 0x3783 JUMP JUMPDEST PUSH1 0x2 DUP7 ADD PUSH2 0x3C4C JUMP JUMPDEST MLOAD PUSH1 0x3 DUP5 ADD SSTORE MLOAD ISZERO ISZERO SWAP2 ADD SWAP1 PUSH1 0xFF DUP1 NOT DUP4 SLOAD AND SWAP2 ISZERO ISZERO AND OR SWAP1 SSTORE JUMP JUMPDEST DUP6 PUSH0 MSTORE PUSH1 0xB DUP3 MSTORE DUP4 PUSH0 KECCAK256 DUP9 PUSH0 MSTORE DUP3 MSTORE DUP4 PUSH0 KECCAK256 PUSH1 0x1 PUSH1 0xFF NOT DUP3 SLOAD AND OR SWAP1 SSTORE DUP6 PUSH0 MSTORE PUSH1 0xC DUP3 MSTORE DUP4 PUSH0 KECCAK256 DUP9 PUSH0 MSTORE DUP3 MSTORE DUP4 PUSH0 KECCAK256 SSTORE PUSH1 0x13 DUP2 MSTORE PUSH2 0x1E83 DUP6 DUP5 PUSH0 KECCAK256 PUSH2 0x3DFA JUMP JUMPDEST PUSH2 0x1E8E PUSH1 0x15 SLOAD PUSH2 0x3A7F JUMP JUMPDEST PUSH1 0x15 SSTORE PUSH2 0x1E9A DUP3 PUSH2 0x3783 JUMP JUMPDEST DUP3 MLOAD SWAP2 PUSH2 0x1EA6 DUP2 PUSH2 0x3783 JUMP JUMPDEST DUP3 MSTORE TIMESTAMP SWAP1 DUP3 ADD MSTORE LOG4 STOP JUMPDEST PUSH4 0x4E487B71 PUSH1 0xE0 SHL PUSH0 SWAP1 DUP2 MSTORE DUP1 DUP9 MSTORE REVERT JUMPDEST DUP15 PUSH1 0x41 DUP9 PUSH4 0x4E487B71 PUSH1 0xE0 SHL PUSH0 MSTORE MSTORE PUSH0 REVERT JUMPDEST PUSH1 0x1A DUP9 PUSH1 0x64 SWAP4 DUP7 MLOAD SWAP4 PUSH3 0x461BCD PUSH1 0xE5 SHL DUP6 MSTORE DUP5 ADD MSTORE DUP3 ADD MSTORE PUSH32 0x416C726561647920766572696669656420746869732068617368000000000000 PUSH1 0x44 DUP3 ADD MSTORE REVERT JUMPDEST SWAP1 SWAP7 POP DUP2 DUP2 DUP2 RETURNDATASIZE DUP4 GT PUSH2 0x1F3B JUMPI JUMPDEST PUSH2 0x1F2B DUP2 DUP4 PUSH2 0x380D JUMP JUMPDEST DUP2 ADD SUB SLT PUSH2 0x3EB JUMPI MLOAD SWAP6 DUP9 PUSH2 0x1D44 JUMP JUMPDEST POP RETURNDATASIZE PUSH2 0x1F21 JUMP JUMPDEST POP PUSH1 0x3 DUP6 GT ISZERO PUSH2 0x1D16 JUMP JUMPDEST PUSH2 0x1F64 SWAP2 POP DUP6 RETURNDATASIZE DUP8 GT PUSH2 0x79D JUMPI PUSH2 0x78F DUP2 DUP4 PUSH2 0x380D JUMP JUMPDEST DUP14 PUSH2 0x515 JUMP JUMPDEST DUP6 MLOAD RETURNDATASIZE PUSH0 DUP3 RETURNDATACOPY RETURNDATASIZE SWAP1 REVERT JUMPDEST PUSH2 0x1F8B SWAP2 POP DUP5 RETURNDATASIZE DUP7 GT PUSH2 0x79D JUMPI PUSH2 0x78F DUP2 DUP4 PUSH2 0x380D JUMP JUMPDEST DUP11 PUSH2 0x4D2 JUMP JUMPDEST DUP4 CALLVALUE PUSH2 0x3EB JUMPI PUSH1 0x20 SWAP1 PUSH2 0x1FA3 CALLDATASIZE PUSH2 0x376D JUMP JUMPDEST SWAP1 PUSH0 MSTORE PUSH1 0xE DUP4 MSTORE DUP2 PUSH0 KECCAK256 SWAP1 PUSH0 MSTORE DUP3 MSTORE PUSH1 0xFF DUP2 PUSH0 KECCAK256 SLOAD AND SWAP1 MLOAD SWAP1 ISZERO ISZERO DUP2 MSTORE RETURN JUMPDEST DUP4 CALLVALUE PUSH2 0x3EB JUMPI PUSH1 0x20 CALLDATASIZE PUSH1 0x3 NOT ADD SLT PUSH2 0x3EB JUMPI PUSH1 0x20 SWAP1 PUSH2 0x1FDF PUSH2 0x38C0 JUMP JUMPDEST PUSH1 0x1 SLOAD SWAP2 SWAP1 PUSH1 0x1 PUSH1 0x1 PUSH1 0xA0 SHL SUB DUP1 DUP5 AND SWAP2 PUSH32 0x38DF5FA0F7FEF0D515CA1F5388CB5790AC5885D5FCA8D05D9F943E563C33A4B3 SWAP2 SWAP1 PUSH2 0x201E CALLER DUP6 EQ PUSH2 0x3A46 JUMP JUMPDEST AND SWAP5 DUP6 SWAP4 PUSH2 0x202D DUP6 ISZERO ISZERO PUSH2 0x4055 JUMP JUMPDEST MLOAD TIMESTAMP DUP2 MSTORE LOG3 PUSH1 0x1 PUSH1 0x1 PUSH1 0xA0 SHL SUB NOT AND OR PUSH1 0x1 SSTORE STOP JUMPDEST DUP4 CALLVALUE PUSH2 0x3EB JUMPI PUSH1 0x20 SWAP1 PUSH2 0x2054 CALLDATASIZE PUSH2 0x376D JUMP JUMPDEST SWAP1 PUSH0 MSTORE PUSH1 0xC DUP4 MSTORE DUP2 PUSH0 KECCAK256 SWAP1 PUSH0 MSTORE DUP3 MSTORE DUP1 PUSH0 KECCAK256 SLOAD SWAP1 MLOAD SWAP1 DUP2 MSTORE RETURN JUMPDEST DUP3 DUP5 CALLVALUE PUSH2 0x3EB JUMPI PUSH2 0x207E CALLDATASIZE PUSH2 0x376D JUMP JUMPDEST SWAP1 PUSH2 0x2094 PUSH1 0x1 DUP1 PUSH1 0xA0 SHL SUB PUSH1 0x1 SLOAD AND CALLER EQ PUSH2 0x3A46 JUMP JUMPDEST DUP1 PUSH0 MSTORE PUSH1 0x20 PUSH1 0x11 DUP2 MSTORE DUP4 PUSH0 KECCAK256 DUP4 PUSH0 MSTORE DUP2 MSTORE DUP4 PUSH0 KECCAK256 SLOAD SWAP4 DUP5 ISZERO PUSH2 0x218F JUMPI PUSH0 NOT SWAP5 DUP1 DUP7 ADD SWAP1 DUP2 GT PUSH2 0x217C JUMPI PUSH2 0x20D0 SWAP1 DUP5 PUSH0 MSTORE PUSH1 0x10 DUP5 MSTORE DUP3 PUSH0 KECCAK256 PUSH2 0x3A2D JUMP JUMPDEST POP SWAP5 DUP7 DUP7 ADD DUP1 SLOAD SWAP7 PUSH1 0xFF DUP9 AND ISZERO PUSH2 0x2142 JUMPI PUSH1 0x1 ADD SLOAD SWAP7 PUSH1 0xFF NOT AND SWAP1 SSTORE DUP4 PUSH0 MSTORE PUSH1 0x12 DUP4 MSTORE DUP2 PUSH0 KECCAK256 SWAP1 DUP2 SLOAD DUP1 ISZERO PUSH2 0x212F JUMPI PUSH32 0x147D74BFB2412C7ED232EABEB9F52EC3783A909E5C2A94B9DA2AF7F2BDB18AE6 SWAP6 SWAP7 SWAP8 SWAP9 POP ADD SWAP1 SSTORE MLOAD TIMESTAMP DUP2 MSTORE LOG4 STOP JUMPDEST PUSH1 0x11 DUP10 PUSH4 0x4E487B71 PUSH1 0xE0 SHL PUSH0 MSTORE MSTORE PUSH1 0x24 PUSH0 REVERT JUMPDEST DUP4 MLOAD PUSH3 0x461BCD PUSH1 0xE5 SHL DUP2 MSTORE DUP1 DUP11 ADD DUP7 SWAP1 MSTORE PUSH1 0x14 PUSH1 0x24 DUP3 ADD MSTORE PUSH20 0x119B1859C8185B1C9958591E481C995D9BDAD959 PUSH1 0x62 SHL PUSH1 0x44 DUP3 ADD MSTORE PUSH1 0x64 SWAP1 REVERT JUMPDEST PUSH1 0x11 DUP8 PUSH4 0x4E487B71 PUSH1 0xE0 SHL PUSH0 MSTORE MSTORE PUSH1 0x24 PUSH0 REVERT JUMPDEST MLOAD PUSH3 0x461BCD PUSH1 0xE5 SHL DUP2 MSTORE DUP1 DUP7 ADD SWAP2 SWAP1 SWAP2 MSTORE PUSH1 0xE PUSH1 0x24 DUP3 ADD MSTORE PUSH14 0x4E6F20666C616720657869737473 PUSH1 0x90 SHL PUSH1 0x44 DUP3 ADD MSTORE PUSH1 0x64 SWAP1 REVERT JUMPDEST DUP4 CALLVALUE PUSH2 0x3EB JUMPI PUSH1 0x20 SWAP1 PUSH2 0x21D5 CALLDATASIZE PUSH2 0x376D JUMP JUMPDEST PUSH0 DUP3 DUP2 MSTORE PUSH1 0x3 DUP6 MSTORE DUP4 DUP2 KECCAK256 DUP3 DUP3 MSTORE DUP6 MSTORE DUP4 SWAP1 KECCAK256 SLOAD PUSH1 0xFF AND SWAP3 SWAP2 DUP4 PUSH2 0x21FE JUMPI JUMPDEST POP POP MLOAD SWAP1 ISZERO ISZERO DUP2 MSTORE RETURN JUMPDEST SWAP1 SWAP2 SWAP3 POP PUSH0 MSTORE PUSH1 0x5 DUP4 MSTORE DUP2 PUSH0 KECCAK256 SWAP1 PUSH0 MSTORE DUP3 MSTORE PUSH1 0xFF DUP2 PUSH0 KECCAK256 SLOAD AND SWAP1 DUP4 DUP1 PUSH2 0x21F4 JUMP JUMPDEST DUP3 DUP5 CALLVALUE PUSH2 0x3EB JUMPI PUSH1 0x20 CALLDATASIZE PUSH1 0x3 NOT ADD SLT PUSH2 0x3EB JUMPI PUSH1 0x20 SWAP2 CALLDATALOAD PUSH0 MSTORE PUSH1 0x12 DUP3 MSTORE DUP1 PUSH0 KECCAK256 SLOAD ISZERO ISZERO SWAP1 MLOAD SWAP1 DUP2 MSTORE RETURN JUMPDEST POP POP CALLVALUE PUSH2 0x3EB JUMPI PUSH2 0x2259 CALLDATASIZE PUSH2 0x376D JUMP JUMPDEST PUSH0 SLOAD DUP5 MLOAD PUSH4 0x45ECD02F PUSH1 0xE0 SHL DUP2 MSTORE CALLER DUP6 DUP3 ADD MSTORE SWAP3 SWAP5 SWAP2 SWAP3 PUSH1 0x20 SWAP3 SWAP2 PUSH1 0x1 PUSH1 0x1 PUSH1 0xA0 SHL SUB AND SWAP1 DUP4 DUP2 PUSH1 0x24 DUP2 DUP6 GAS STATICCALL SWAP1 DUP2 ISZERO PUSH2 0x7CB JUMPI SWAP1 PUSH2 0x229E SWAP2 PUSH0 SWAP2 PUSH2 0x7AE JUMPI POP PUSH2 0x3CC7 JUMP JUMPDEST DUP2 MLOAD PUSH3 0x28CF15 PUSH1 0xE5 SHL DUP2 MSTORE DUP6 DUP2 ADD DUP8 DUP2 MSTORE CALLER PUSH1 0x20 DUP3 ADD MSTORE SWAP1 SWAP2 DUP5 SWAP2 DUP4 SWAP2 SWAP1 DUP3 SWAP1 DUP2 SWAP1 PUSH1 0x40 ADD SUB SWAP2 GAS STATICCALL SWAP1 DUP2 ISZERO PUSH2 0x7A4 JUMPI PUSH0 SWAP2 PUSH2 0x24B6 JUMPI JUMPDEST POP ISZERO PUSH2 0x247F JUMPI DUP3 PUSH0 MSTORE PUSH1 0x6 DUP3 MSTORE DUP5 DUP2 PUSH0 KECCAK256 SLOAD SUB PUSH2 0x2447 JUMPI DUP3 PUSH0 MSTORE PUSH1 0x8 DUP1 DUP4 MSTORE PUSH1 0xFF SWAP3 PUSH2 0x2306 PUSH1 0xFF DUP5 PUSH0 KECCAK256 SLOAD AND PUSH2 0x4015 JUMP JUMPDEST PUSH0 SWAP5 DUP8 PUSH0 MSTORE PUSH1 0x7 DUP3 MSTORE DUP4 PUSH0 KECCAK256 SWAP8 DUP5 MLOAD DUP1 DUP11 DUP6 DUP3 SWAP13 SLOAD SWAP4 DUP5 DUP2 MSTORE ADD SWAP1 PUSH0 MSTORE DUP6 PUSH0 KECCAK256 SWAP3 PUSH0 JUMPDEST DUP8 DUP3 DUP3 LT PUSH2 0x2431 JUMPI POP POP POP PUSH2 0x2340 SWAP3 POP SUB DUP11 PUSH2 0x380D JUMP JUMPDEST PUSH0 JUMPDEST DUP10 MLOAD DUP2 LT ISZERO PUSH2 0x2382 JUMPI PUSH2 0x2355 DUP2 DUP12 PUSH2 0x3C9B JUMP JUMPDEST MLOAD PUSH0 MSTORE DUP5 DUP5 MSTORE DUP7 DUP7 PUSH0 KECCAK256 SLOAD AND PUSH2 0x236E JUMPI JUMPDEST PUSH1 0x1 ADD PUSH2 0x2342 JUMP JUMPDEST SWAP7 PUSH2 0x237A PUSH1 0x1 SWAP2 PUSH2 0x3A7F JUMP JUMPDEST SWAP8 SWAP1 POP PUSH2 0x2366 JUMP JUMPDEST POP DUP3 DUP6 DUP10 PUSH1 0x1 DUP11 GT ISZERO PUSH2 0x23D5 JUMPI POP PUSH0 DUP5 DUP2 MSTORE PUSH1 0x8 DUP4 MSTORE DUP2 DUP2 KECCAK256 DUP1 SLOAD PUSH1 0xFF NOT AND SWAP1 SSTORE PUSH1 0x6 DUP4 MSTORE DUP2 DUP2 KECCAK256 SSTORE MLOAD TIMESTAMP DUP2 MSTORE PUSH32 0x6640C4CAE266BFAFEE4B79AE3B57E1391D8CF826D2B9781AA698E99CA7157C7E SWAP2 SWAP1 LOG3 STOP JUMPDEST DUP3 PUSH1 0x84 SWAP3 MLOAD SWAP2 PUSH3 0x461BCD PUSH1 0xE5 SHL DUP4 MSTORE DUP3 ADD MSTORE PUSH1 0x32 PUSH1 0x24 DUP3 ADD MSTORE PUSH32 0x43616E6E6F74207265747261637420746865206C617374206163746976652076 PUSH1 0x44 DUP3 ADD MSTORE PUSH18 0x195C9CDA5BDB881BD98818481C9958DBDC99 PUSH1 0x72 SHL PUSH1 0x64 DUP3 ADD MSTORE REVERT JUMPDEST DUP6 SLOAD DUP5 MSTORE PUSH1 0x1 SWAP6 DUP7 ADD SWAP6 DUP16 SWAP6 POP SWAP4 ADD SWAP3 ADD PUSH2 0x2329 JUMP JUMPDEST MLOAD PUSH3 0x461BCD PUSH1 0xE5 SHL DUP2 MSTORE SWAP3 DUP4 ADD MSTORE POP PUSH1 0x14 PUSH1 0x24 DUP3 ADD MSTORE PUSH20 0x90C2E6D05AA4CAC6DEE4C840DAD2E6DAC2E8C6D PUSH1 0x63 SHL PUSH1 0x44 DUP3 ADD MSTORE PUSH1 0x64 SWAP1 REVERT JUMPDEST MLOAD PUSH3 0x461BCD PUSH1 0xE5 SHL DUP2 MSTORE SWAP3 DUP4 ADD MSTORE POP PUSH1 0x13 PUSH1 0x24 DUP3 ADD MSTORE PUSH19 0x27B7363C9037BBB732B91037B91030B236B4B7 PUSH1 0x69 SHL PUSH1 0x44 DUP3 ADD MSTORE PUSH1 0x64 SWAP1 REVERT JUMPDEST PUSH2 0x24CD SWAP2 POP DUP4 RETURNDATASIZE DUP6 GT PUSH2 0x79D JUMPI PUSH2 0x78F DUP2 DUP4 PUSH2 0x380D JUMP JUMPDEST PUSH0 PUSH2 0x22D5 JUMP JUMPDEST DUP3 DUP5 CALLVALUE PUSH2 0x3EB JUMPI PUSH0 CALLDATASIZE PUSH1 0x3 NOT ADD SLT PUSH2 0x3EB JUMPI PUSH32 0x0 PUSH1 0x1 PUSH1 0x1 PUSH1 0xA0 SHL SUB AND ADDRESS SUB PUSH2 0x253E JUMPI PUSH1 0x20 SWAP1 MLOAD PUSH32 0x360894A13BA1A3210667C828492DB98DCA3E2076CC3735A920A3CA505D382BBC DUP2 MSTORE RETURN JUMPDEST MLOAD PUSH4 0x703E46DD PUSH1 0xE1 SHL DUP2 MSTORE REVERT JUMPDEST DUP3 DUP5 CALLVALUE PUSH2 0x3EB JUMPI PUSH1 0x20 CALLDATASIZE PUSH1 0x3 NOT ADD SLT PUSH2 0x3EB JUMPI PUSH1 0x20 SWAP2 CALLDATALOAD PUSH0 MSTORE PUSH1 0x6 DUP3 MSTORE DUP1 PUSH0 KECCAK256 SLOAD SWAP1 MLOAD SWAP1 DUP2 MSTORE RETURN JUMPDEST POP POP DUP2 PUSH1 0x3 NOT CALLDATASIZE ADD SLT PUSH2 0x3EB JUMPI PUSH2 0x2588 PUSH2 0x38C0 JUMP JUMPDEST SWAP2 PUSH1 0x24 CALLDATALOAD PUSH8 0xFFFFFFFFFFFFFFFF DUP2 GT PUSH2 0x3EB JUMPI CALLDATASIZE PUSH1 0x23 DUP3 ADD SLT ISZERO PUSH2 0x3EB JUMPI PUSH2 0x25B9 SWAP1 CALLDATASIZE SWAP1 PUSH1 0x24 DUP2 DUP7 ADD CALLDATALOAD SWAP2 ADD PUSH2 0x382F JUMP JUMPDEST SWAP1 PUSH1 0x1 PUSH1 0x1 PUSH1 0xA0 SHL SUB PUSH32 0x0 DUP2 AND ADDRESS DUP2 EQ SWAP1 DUP2 ISZERO PUSH2 0x2746 JUMPI JUMPDEST POP PUSH2 0x2736 JUMPI PUSH2 0x2604 DUP2 PUSH1 0x1 SLOAD AND CALLER EQ PUSH2 0x3A46 JUMP JUMPDEST DUP5 AND SWAP2 DUP2 MLOAD SWAP5 PUSH4 0x52D1902D PUSH1 0xE0 SHL DUP7 MSTORE PUSH1 0x20 DUP7 DUP7 DUP2 DUP8 GAS STATICCALL PUSH0 SWAP7 DUP2 PUSH2 0x2702 JUMPI JUMPDEST POP PUSH2 0x2640 JUMPI POP POP MLOAD PUSH4 0x4C9C8CE3 PUSH1 0xE0 SHL DUP2 MSTORE SWAP2 DUP3 ADD MSTORE PUSH1 0x24 SWAP2 POP REVERT JUMPDEST DUP4 DUP6 SWAP4 DUP8 PUSH32 0x360894A13BA1A3210667C828492DB98DCA3E2076CC3735A920A3CA505D382BBC SWAP1 DUP2 DUP2 SUB PUSH2 0x26EC JUMPI POP DUP4 EXTCODESIZE ISZERO PUSH2 0x26D5 JUMPI DUP1 SLOAD PUSH1 0x1 PUSH1 0x1 PUSH1 0xA0 SHL SUB NOT AND DUP4 OR SWAP1 SSTORE MLOAD SWAP1 PUSH32 0xBC7CD75A20EE27FD9ADEBAB32041F755214DBC6BFFA90CC0225B39DA2E5C2D3B PUSH0 DUP1 LOG2 DUP3 MLOAD ISZERO PUSH2 0x26BF JUMPI POP PUSH2 0x26BD SWAP3 POP PUSH2 0x4211 JUMP JUMPDEST STOP JUMPDEST SWAP2 POP POP CALLVALUE PUSH2 0x26C9 JUMPI STOP JUMPDEST PUSH4 0xB398979F PUSH1 0xE0 SHL DUP2 MSTORE REVERT JUMPDEST DUP2 MLOAD PUSH4 0x4C9C8CE3 PUSH1 0xE0 SHL DUP2 MSTORE DUP1 DUP8 ADD DUP5 SWAP1 MSTORE PUSH1 0x24 SWAP1 REVERT JUMPDEST DUP7 PUSH1 0x24 SWAP2 DUP5 MLOAD SWAP2 PUSH4 0x2A875269 PUSH1 0xE2 SHL DUP4 MSTORE DUP3 ADD MSTORE REVERT JUMPDEST SWAP1 SWAP7 POP PUSH1 0x20 DUP2 RETURNDATASIZE PUSH1 0x20 GT PUSH2 0x272E JUMPI JUMPDEST DUP2 PUSH2 0x271E PUSH1 0x20 SWAP4 DUP4 PUSH2 0x380D JUMP JUMPDEST DUP2 ADD SUB SLT PUSH2 0x3EB JUMPI MLOAD SWAP6 PUSH0 PUSH2 0x2624 JUMP JUMPDEST RETURNDATASIZE SWAP2 POP PUSH2 0x2711 JUMP JUMPDEST DUP2 MLOAD PUSH4 0x703E46DD PUSH1 0xE1 SHL DUP2 MSTORE DUP5 SWAP1 REVERT JUMPDEST SWAP1 POP DUP2 PUSH32 0x360894A13BA1A3210667C828492DB98DCA3E2076CC3735A920A3CA505D382BBC SLOAD AND EQ ISZERO PUSH0 PUSH2 0x25F0 JUMP JUMPDEST POP POP CALLVALUE PUSH2 0x3EB JUMPI PUSH1 0x20 DUP1 PUSH1 0x3 NOT CALLDATASIZE ADD SLT PUSH2 0x3EB JUMPI PUSH0 SLOAD DUP4 MLOAD PUSH3 0xB0C809 PUSH1 0xE0 SHL DUP2 MSTORE CALLER DUP2 DUP6 ADD MSTORE SWAP4 DUP4 CALLDATALOAD SWAP4 SWAP1 SWAP2 DUP4 SWAP1 DUP7 SWAP1 PUSH1 0x24 SWAP1 DUP3 SWAP1 PUSH1 0x1 PUSH1 0x1 PUSH1 0xA0 SHL SUB AND GAS STATICCALL SWAP5 DUP6 ISZERO PUSH2 0x7A4 JUMPI PUSH0 SWAP6 PUSH2 0x28B7 JUMPI JUMPDEST POP PUSH2 0x27CE DUP6 ISZERO ISZERO PUSH2 0x3C08 JUMP JUMPDEST DUP4 PUSH0 MSTORE PUSH1 0xB DUP4 MSTORE DUP2 PUSH0 KECCAK256 DUP6 PUSH0 MSTORE DUP4 MSTORE PUSH1 0xFF DUP3 PUSH0 KECCAK256 SLOAD AND ISZERO PUSH2 0x2876 JUMPI SWAP1 PUSH32 0x7EC0E3CA85E47C77A1ED99FF37570AB8878CB21CED66BAEAD633BECFF47A8F0E SWAP3 SWAP2 DUP5 PUSH0 MSTORE PUSH1 0xC DUP4 MSTORE DUP2 PUSH0 KECCAK256 DUP7 PUSH0 MSTORE DUP4 MSTORE PUSH2 0x284B DUP3 PUSH0 KECCAK256 SLOAD DUP7 PUSH0 MSTORE PUSH1 0xA DUP6 MSTORE PUSH2 0x283C PUSH1 0xFF DUP5 PUSH2 0xB13 DUP5 DUP9 PUSH0 KECCAK256 PUSH2 0x3A2D JUMP JUMPDEST DUP7 PUSH0 MSTORE PUSH1 0xA DUP6 MSTORE DUP4 PUSH0 KECCAK256 PUSH2 0x3A2D JUMP JUMPDEST POP ADD PUSH1 0xFF NOT SWAP1 DUP2 DUP2 SLOAD AND SWAP1 SSTORE DUP5 PUSH0 MSTORE PUSH1 0xB DUP4 MSTORE DUP2 PUSH0 KECCAK256 DUP7 PUSH0 MSTORE DUP4 MSTORE DUP2 PUSH0 KECCAK256 SWAP1 DUP2 SLOAD AND SWAP1 SSTORE MLOAD TIMESTAMP DUP2 MSTORE LOG3 STOP JUMPDEST DUP3 PUSH1 0x64 SWAP3 MLOAD SWAP2 PUSH3 0x461BCD PUSH1 0xE5 SHL DUP4 MSTORE DUP3 ADD MSTORE PUSH1 0x1A PUSH1 0x24 DUP3 ADD MSTORE PUSH32 0x4E6F20766572696669636174696F6E20746F2072657472616374000000000000 PUSH1 0x44 DUP3 ADD MSTORE REVERT JUMPDEST SWAP1 SWAP5 POP DUP3 DUP2 DUP2 RETURNDATASIZE DUP4 GT PUSH2 0x28DF JUMPI JUMPDEST PUSH2 0x28CF DUP2 DUP4 PUSH2 0x380D JUMP JUMPDEST DUP2 ADD SUB SLT PUSH2 0x3EB JUMPI MLOAD SWAP4 PUSH0 PUSH2 0x27C2 JUMP JUMPDEST POP RETURNDATASIZE PUSH2 0x28C5 JUMP JUMPDEST DUP3 DUP5 CALLVALUE PUSH2 0x3EB JUMPI PUSH2 0x28F6 CALLDATASIZE PUSH2 0x376D JUMP JUMPDEST PUSH0 SLOAD DUP4 MLOAD PUSH4 0x45ECD02F PUSH1 0xE0 SHL DUP2 MSTORE CALLER DUP7 DUP3 ADD MSTORE SWAP3 SWAP4 PUSH1 0x20 SWAP4 SWAP1 SWAP3 SWAP2 PUSH1 0x1 PUSH1 0x1 PUSH1 0xA0 SHL SUB AND SWAP1 DUP5 DUP2 PUSH1 0x24 DUP2 DUP6 GAS STATICCALL SWAP1 DUP2 ISZERO PUSH2 0x1094 JUMPI SWAP1 PUSH2 0x293B SWAP2 PUSH0 SWAP2 PUSH2 0x1799 JUMPI POP PUSH2 0x3CC7 JUMP JUMPDEST DUP3 MLOAD PUSH4 0x64461AFF PUSH1 0xE1 SHL DUP2 MSTORE DUP7 DUP2 ADD DUP7 DUP2 MSTORE CALLER PUSH1 0x20 DUP3 ADD MSTORE SWAP1 SWAP2 DUP6 SWAP2 DUP4 SWAP2 SWAP1 DUP3 SWAP1 DUP2 SWAP1 PUSH1 0x40 ADD SUB SWAP2 GAS STATICCALL SWAP1 DUP2 ISZERO PUSH2 0x7CB JUMPI PUSH2 0x2981 SWAP3 SWAP2 PUSH2 0x1696 SWAP2 PUSH0 SWAP2 PUSH2 0x1782 JUMPI POP PUSH2 0x3D0A JUMP JUMPDEST SWAP4 DUP4 PUSH0 MSTORE PUSH1 0x3 DUP4 MSTORE DUP2 PUSH0 KECCAK256 DUP6 PUSH0 MSTORE DUP4 MSTORE PUSH1 0xFF DUP3 PUSH0 KECCAK256 SLOAD AND ISZERO PUSH2 0x2A33 JUMPI DUP4 PUSH0 MSTORE PUSH1 0x5 DUP4 MSTORE DUP2 PUSH0 KECCAK256 DUP6 PUSH0 MSTORE DUP4 MSTORE PUSH1 0xFF DUP3 PUSH0 KECCAK256 SLOAD AND ISZERO PUSH2 0x29FD JUMPI POP SWAP1 PUSH32 0x8AEFA795CCFDF03E334BD6A4FE20E8C4F5D5202E0320DC267FDE988BD5F1674F SWAP2 DUP4 PUSH0 MSTORE PUSH1 0x5 DUP3 MSTORE DUP1 PUSH0 KECCAK256 DUP6 PUSH0 MSTORE DUP3 MSTORE DUP1 PUSH0 KECCAK256 PUSH1 0xFF NOT DUP2 SLOAD AND SWAP1 SSTORE MLOAD TIMESTAMP DUP2 MSTORE LOG3 STOP JUMPDEST DUP3 PUSH1 0x64 SWAP3 MLOAD SWAP2 PUSH3 0x461BCD PUSH1 0xE5 SHL DUP4 MSTORE DUP3 ADD MSTORE PUSH1 0x12 PUSH1 0x24 DUP3 ADD MSTORE PUSH18 0x105B1C9958591E481D5B985B98DA1BDC9959 PUSH1 0x72 SHL PUSH1 0x44 DUP3 ADD MSTORE REVERT JUMPDEST DUP3 PUSH1 0x64 SWAP3 MLOAD SWAP2 PUSH3 0x461BCD PUSH1 0xE5 SHL DUP4 MSTORE DUP3 ADD MSTORE PUSH1 0x1C PUSH1 0x24 DUP3 ADD MSTORE PUSH32 0x4E6F742061207375626A656374206F662074686973207265636F726400000000 PUSH1 0x44 DUP3 ADD MSTORE REVERT JUMPDEST DUP4 SWAP1 CALLVALUE PUSH2 0x3EB JUMPI PUSH2 0x14A6 PUSH2 0x14B4 PUSH2 0x2A93 PUSH2 0x2A8D CALLDATASIZE PUSH2 0x376D JUMP JUMPDEST SWAP1 PUSH2 0x3F54 JUMP JUMPDEST SWAP7 SWAP6 SWAP9 SWAP4 SWAP1 SWAP8 SWAP3 SWAP2 SWAP5 SWAP10 DUP1 MLOAD SWAP11 DUP12 SWAP11 ISZERO ISZERO DUP12 MSTORE PUSH1 0x20 DUP12 ADD MSTORE PUSH2 0x2AB4 DUP3 PUSH2 0x3783 JUMP JUMPDEST DUP10 ADD MSTORE PUSH1 0x60 DUP9 ADD SWAP1 PUSH2 0x3875 JUMP JUMPDEST DUP3 DUP5 CALLVALUE PUSH2 0x3EB JUMPI PUSH1 0x20 CALLDATASIZE PUSH1 0x3 NOT ADD SLT PUSH2 0x3EB JUMPI PUSH1 0x20 SWAP2 CALLDATALOAD PUSH0 MSTORE PUSH1 0x8 DUP3 MSTORE PUSH1 0xFF DUP2 PUSH0 KECCAK256 SLOAD AND SWAP1 MLOAD SWAP1 ISZERO ISZERO DUP2 MSTORE RETURN JUMPDEST DUP4 CALLVALUE PUSH2 0x3EB JUMPI PUSH1 0xA0 SWAP1 PUSH2 0x2B09 PUSH2 0x2B03 CALLDATASIZE PUSH2 0x376D JUMP JUMPDEST SWAP1 PUSH2 0x3E6F JUMP JUMPDEST SWAP4 SWAP5 SWAP1 SWAP3 DUP2 MLOAD SWAP6 ISZERO ISZERO DUP7 MSTORE ISZERO ISZERO PUSH1 0x20 DUP7 ADD MSTORE DUP5 ADD MSTORE PUSH1 0x60 DUP4 ADD MSTORE PUSH1 0x80 DUP3 ADD MSTORE RETURN JUMPDEST DUP3 DUP5 CALLVALUE PUSH2 0x3EB JUMPI PUSH1 0xA0 CALLDATASIZE PUSH1 0x3 NOT ADD SLT PUSH2 0x3EB JUMPI DUP2 CALLDATALOAD SWAP1 PUSH1 0x24 SWAP3 DUP4 CALLDATALOAD SWAP2 PUSH2 0x2B4E PUSH2 0x37B1 JUMP JUMPDEST PUSH1 0x64 CALLDATALOAD SWAP1 PUSH1 0xFF DUP3 AND DUP1 SWAP3 SUB PUSH2 0x3EB JUMPI PUSH8 0xFFFFFFFFFFFFFFFF SWAP4 PUSH1 0x84 CALLDATALOAD DUP6 DUP2 GT PUSH2 0x3EB JUMPI CALLDATASIZE PUSH1 0x23 DUP3 ADD SLT ISZERO PUSH2 0x3EB JUMPI PUSH2 0x2B8E SWAP1 CALLDATASIZE SWAP1 DUP11 DUP2 DUP6 ADD CALLDATALOAD SWAP2 ADD PUSH2 0x382F JUMP JUMPDEST SWAP5 PUSH1 0x1 DUP1 PUSH1 0xA0 SHL SUB PUSH0 SLOAD AND SWAP2 DUP6 MLOAD SWAP4 PUSH4 0x45ECD02F PUSH1 0xE0 SHL DUP6 MSTORE CALLER DUP3 DUP7 ADD MSTORE PUSH1 0x20 SWAP5 DUP6 DUP2 DUP14 DUP2 DUP9 GAS STATICCALL SWAP1 DUP2 ISZERO PUSH2 0x302D JUMPI SWAP1 PUSH2 0x2BCE SWAP2 PUSH0 SWAP2 PUSH2 0x306A JUMPI POP PUSH2 0x3CC7 JUMP JUMPDEST DUP7 MLOAD PUSH4 0x64461AFF PUSH1 0xE1 SHL DUP2 MSTORE DUP3 DUP2 ADD DUP12 DUP2 MSTORE CALLER PUSH1 0x20 DUP3 ADD MSTORE DUP7 SWAP1 DUP3 SWAP1 DUP2 SWAP1 PUSH1 0x40 ADD SUB DUP2 DUP9 GAS STATICCALL SWAP1 DUP2 ISZERO PUSH2 0x302D JUMPI SWAP2 PUSH2 0x2C13 PUSH1 0xFF SWAP3 DUP15 SWAP8 SWAP7 SWAP6 SWAP5 PUSH0 SWAP2 PUSH2 0x304D JUMPI POP PUSH2 0x3D0A JUMP JUMPDEST PUSH2 0x2C1E DUP13 ISZERO ISZERO PUSH2 0x3D56 JUMP JUMPDEST PUSH2 0x2C29 DUP12 ISZERO ISZERO PUSH2 0x3DA2 JUMP JUMPDEST AND SWAP8 DUP6 PUSH1 0x1 SWAP5 DUP6 DUP12 LT ISZERO DUP1 PUSH2 0x3042 JUMPI JUMPDEST PUSH2 0x2C42 SWAP1 PUSH2 0x3B79 JUMP JUMPDEST DUP6 DUP10 LT ISZERO DUP1 PUSH2 0x3037 JUMPI JUMPDEST PUSH2 0x2C55 SWAP1 PUSH2 0x3BBC JUMP JUMPDEST DUP10 MLOAD PUSH3 0xB0C809 PUSH1 0xE0 SHL DUP2 MSTORE CALLER DUP6 DUP3 ADD MSTORE SWAP14 DUP15 SWAP2 DUP3 SWAP1 GAS STATICCALL SWAP12 DUP13 ISZERO PUSH2 0x302D JUMPI PUSH0 SWAP13 PUSH2 0x2FFE JUMPI JUMPDEST POP PUSH2 0x2C86 DUP13 ISZERO ISZERO PUSH2 0x3C08 JUMP JUMPDEST DUP10 PUSH0 MSTORE PUSH1 0xE DUP7 MSTORE DUP8 PUSH0 KECCAK256 DUP13 PUSH0 MSTORE DUP7 MSTORE PUSH1 0xFF DUP9 PUSH0 KECCAK256 SLOAD AND PUSH2 0x2FBC JUMPI DUP10 PUSH0 MSTORE PUSH1 0xD DUP7 MSTORE DUP8 PUSH0 KECCAK256 SWAP3 DUP4 SLOAD SWAP6 PUSH2 0x2CB7 DUP12 PUSH2 0x3783 JUMP JUMPDEST PUSH1 0x6 DUP10 LT ISZERO PUSH2 0x2FAA JUMPI SWAP2 DUP13 SWAP2 DUP15 SWAP6 SWAP5 SWAP4 DUP12 MLOAD SWAP7 PUSH2 0x2CD3 DUP9 PUSH2 0x37F1 JUMP JUMPDEST DUP8 MSTORE DUP10 DUP8 ADD SWAP4 DUP5 MSTORE DUP12 DUP8 ADD PUSH2 0x2CE7 DUP15 PUSH2 0x3783 JUMP JUMPDEST DUP14 DUP2 MSTORE PUSH1 0x60 DUP9 ADD PUSH2 0x2CF8 DUP14 DUP3 PUSH2 0x3DEE JUMP JUMPDEST PUSH1 0x80 DUP10 ADD SWAP5 DUP6 MSTORE PUSH1 0xA0 DUP10 ADD SWAP6 TIMESTAMP DUP8 MSTORE PUSH1 0xC0 DUP11 ADD SWAP9 DUP12 DUP11 MSTORE PUSH1 0x1 PUSH1 0x40 SHL DUP14 LT ISZERO PUSH2 0x2F98 JUMPI DUP13 PUSH2 0x2D2A SWAP2 DUP14 DUP3 ADD DUP2 SSTORE PUSH2 0x393A JUMP JUMPDEST SWAP11 SWAP1 SWAP11 PUSH2 0x2F87 JUMPI MLOAD DUP11 SSTORE MLOAD DUP11 DUP11 ADD SSTORE PUSH2 0x2D51 PUSH1 0x2 DUP11 ADD SWAP3 MLOAD PUSH2 0x2D4B DUP2 PUSH2 0x3783 JUMP JUMPDEST DUP4 PUSH2 0x3C4C JUMP JUMPDEST MLOAD SWAP1 PUSH1 0x6 DUP3 LT ISZERO PUSH2 0x2F75 JUMPI SWAP1 PUSH2 0x2D66 SWAP2 PUSH2 0x3C64 JUMP JUMPDEST PUSH1 0x3 DUP8 ADD SWAP3 MLOAD SWAP1 DUP2 MLOAD SWAP3 DUP4 GT PUSH2 0x2F63 JUMPI POP PUSH2 0x2D81 DUP4 SLOAD PUSH2 0x3953 JUMP JUMPDEST PUSH1 0x1F DUP2 GT PUSH2 0x2F1D JUMPI JUMPDEST POP DUP10 SWAP1 PUSH1 0x1F DUP4 GT PUSH1 0x1 EQ PUSH2 0x2E87 JUMPI SWAP5 PUSH2 0x2E08 SWAP5 PUSH1 0x60 SWAP14 SWAP12 SWAP9 SWAP5 PUSH32 0x19C1298D442E6DCFC61025509382DD2C8A2D96C75E684D78C38C95624674C9A9 SWAP16 SWAP14 SWAP11 SWAP8 SWAP5 DUP1 PUSH2 0x2E74 SWAP14 SWAP11 SWAP6 PUSH1 0x5 SWAP8 PUSH0 SWAP3 PUSH2 0x2E7C JUMPI JUMPDEST POP POP PUSH0 NOT PUSH1 0x3 DUP4 SWAP1 SHL SHR NOT AND SWAP1 DUP10 SHL OR SWAP1 SSTORE JUMPDEST MLOAD SWAP1 DUP5 ADD SSTORE MLOAD ISZERO ISZERO SWAP2 ADD SWAP1 PUSH1 0xFF DUP1 NOT DUP4 SLOAD AND SWAP2 ISZERO ISZERO AND OR SWAP1 SSTORE JUMP JUMPDEST DUP10 PUSH0 MSTORE PUSH1 0xE DUP4 MSTORE DUP6 PUSH0 KECCAK256 DUP13 PUSH0 MSTORE DUP4 MSTORE DUP6 PUSH0 KECCAK256 SWAP1 PUSH1 0xFF NOT DUP3 SLOAD AND OR SWAP1 SSTORE DUP9 PUSH0 MSTORE PUSH1 0xF DUP3 MSTORE DUP5 PUSH0 KECCAK256 DUP12 PUSH0 MSTORE DUP3 MSTORE DUP5 PUSH0 KECCAK256 SSTORE PUSH1 0x14 DUP2 MSTORE PUSH2 0x2E47 DUP9 DUP6 PUSH0 KECCAK256 PUSH2 0x3DFA JUMP JUMPDEST PUSH2 0x2E52 PUSH1 0x16 SLOAD PUSH2 0x3A7F JUMP JUMPDEST PUSH1 0x16 SSTORE PUSH2 0x2E5E DUP6 PUSH2 0x3783 JUMP JUMPDEST DUP4 MLOAD SWAP5 PUSH2 0x2E6A DUP2 PUSH2 0x3783 JUMP JUMPDEST DUP6 MSTORE DUP5 ADD SWAP1 PUSH2 0x3875 JUMP JUMPDEST TIMESTAMP SWAP1 DUP3 ADD MSTORE LOG4 STOP JUMPDEST ADD MLOAD SWAP1 POP PUSH0 DUP1 PUSH2 0x2DDA JUMP JUMPDEST SWAP1 PUSH1 0x1F NOT DUP4 AND SWAP2 DUP5 PUSH0 MSTORE DUP12 PUSH0 KECCAK256 SWAP3 PUSH0 JUMPDEST DUP2 DUP2 LT PUSH2 0x2F08 JUMPI POP SWAP5 PUSH32 0x19C1298D442E6DCFC61025509382DD2C8A2D96C75E684D78C38C95624674C9A9 SWAP16 SWAP14 SWAP11 PUSH1 0x60 SWAP16 SWAP14 SWAP11 SWAP7 SWAP6 PUSH2 0x2E74 SWAP14 SWAP11 SWAP6 DUP3 SWAP11 SWAP6 PUSH2 0x2E08 SWAP11 SWAP6 DUP4 PUSH1 0x5 SWAP11 LT PUSH2 0x2EF0 JUMPI JUMPDEST POP POP POP DUP2 SHL ADD SWAP1 SSTORE PUSH2 0x2DED JUMP JUMPDEST ADD MLOAD PUSH0 NOT PUSH1 0xF8 DUP5 PUSH1 0x3 SHL AND SHR NOT AND SWAP1 SSTORE PUSH0 DUP1 DUP1 PUSH2 0x2EE3 JUMP JUMPDEST DUP3 DUP5 ADD MLOAD DUP6 SSTORE SWAP4 DUP12 ADD SWAP4 SWAP3 DUP14 ADD SWAP3 DUP14 ADD PUSH2 0x2E97 JUMP JUMPDEST DUP4 PUSH0 MSTORE DUP11 PUSH0 KECCAK256 PUSH1 0x1F DUP5 ADD PUSH1 0x5 SHR DUP2 ADD SWAP2 DUP13 DUP6 LT PUSH2 0x2F59 JUMPI JUMPDEST PUSH1 0x1F ADD PUSH1 0x5 SHR ADD SWAP1 DUP10 SWAP1 JUMPDEST DUP3 DUP2 LT PUSH2 0x2F4E JUMPI POP POP PUSH2 0x2D8A JUMP JUMPDEST PUSH0 DUP2 SSTORE ADD DUP10 SWAP1 PUSH2 0x2F40 JUMP JUMPDEST SWAP1 SWAP2 POP DUP2 SWAP1 PUSH2 0x2F35 JUMP JUMPDEST PUSH4 0x4E487B71 PUSH1 0xE0 SHL PUSH0 SWAP1 DUP2 MSTORE PUSH1 0x41 DUP8 MSTORE REVERT JUMPDEST DUP3 PUSH1 0x21 DUP9 PUSH4 0x4E487B71 PUSH1 0xE0 SHL PUSH0 MSTORE MSTORE PUSH0 REVERT JUMPDEST DUP5 PUSH0 DUP11 PUSH4 0x4E487B71 PUSH1 0xE0 SHL DUP3 MSTORE MSTORE PUSH0 REVERT JUMPDEST DUP5 PUSH1 0x41 DUP11 PUSH4 0x4E487B71 PUSH1 0xE0 SHL PUSH0 MSTORE MSTORE PUSH0 REVERT JUMPDEST PUSH4 0x4E487B71 PUSH1 0xE0 SHL PUSH0 SWAP1 DUP2 MSTORE PUSH1 0x21 DUP6 MSTORE REVERT JUMPDEST DUP8 MLOAD PUSH3 0x461BCD PUSH1 0xE5 SHL DUP2 MSTORE DUP1 DUP4 ADD DUP8 SWAP1 MSTORE PUSH1 0x1A DUP2 DUP8 ADD MSTORE PUSH32 0x416C726561647920646973707574656420746869732068617368000000000000 PUSH1 0x44 DUP3 ADD MSTORE PUSH1 0x64 SWAP1 REVERT JUMPDEST SWAP1 SWAP12 POP DUP6 DUP2 DUP2 RETURNDATASIZE DUP4 GT PUSH2 0x3026 JUMPI JUMPDEST PUSH2 0x3016 DUP2 DUP4 PUSH2 0x380D JUMP JUMPDEST DUP2 ADD SUB SLT PUSH2 0x3EB JUMPI MLOAD SWAP11 DUP13 PUSH2 0x2C7A JUMP JUMPDEST POP RETURNDATASIZE PUSH2 0x300C JUMP JUMPDEST DUP9 MLOAD RETURNDATASIZE PUSH0 DUP3 RETURNDATACOPY RETURNDATASIZE SWAP1 REVERT JUMPDEST POP PUSH1 0x5 DUP10 GT ISZERO PUSH2 0x2C4C JUMP JUMPDEST POP PUSH1 0x3 DUP12 GT ISZERO PUSH2 0x2C39 JUMP JUMPDEST PUSH2 0x3064 SWAP2 POP DUP10 RETURNDATASIZE DUP12 GT PUSH2 0x79D JUMPI PUSH2 0x78F DUP2 DUP4 PUSH2 0x380D JUMP JUMPDEST DUP16 PUSH2 0x515 JUMP JUMPDEST PUSH2 0x3081 SWAP2 POP DUP8 RETURNDATASIZE DUP10 GT PUSH2 0x79D JUMPI PUSH2 0x78F DUP2 DUP4 PUSH2 0x380D JUMP JUMPDEST DUP14 PUSH2 0x4D2 JUMP JUMPDEST POP POP CALLVALUE PUSH2 0x3EB JUMPI PUSH1 0x20 SWAP1 DUP2 PUSH1 0x3 NOT CALLDATASIZE ADD SLT PUSH2 0x3EB JUMPI CALLDATALOAD SWAP1 PUSH0 SWAP1 DUP3 PUSH0 MSTORE PUSH1 0x2 DUP2 MSTORE DUP4 PUSH0 KECCAK256 SWAP1 DUP5 MLOAD DUP1 DUP4 DUP4 DUP3 SWAP6 SLOAD SWAP4 DUP5 DUP2 MSTORE ADD SWAP1 PUSH0 MSTORE DUP4 PUSH0 KECCAK256 SWAP3 PUSH0 JUMPDEST DUP6 DUP3 DUP3 LT PUSH2 0x3135 JUMPI POP POP POP PUSH2 0x30D8 SWAP3 POP SUB DUP4 PUSH2 0x380D JUMP JUMPDEST DUP2 MLOAD SWAP4 PUSH0 JUMPDEST DUP4 MLOAD DUP2 LT ISZERO PUSH2 0x3127 JUMPI DUP2 PUSH0 MSTORE PUSH1 0x5 DUP4 MSTORE DUP7 PUSH0 KECCAK256 PUSH2 0x30FA DUP3 DUP7 PUSH2 0x3C9B JUMP JUMPDEST MLOAD PUSH0 MSTORE DUP4 MSTORE PUSH1 0xFF DUP8 PUSH0 KECCAK256 SLOAD AND PUSH2 0x3113 JUMPI JUMPDEST PUSH1 0x1 ADD PUSH2 0x30DD JUMP JUMPDEST SWAP4 PUSH2 0x311F PUSH1 0x1 SWAP2 PUSH2 0x3A7F JUMP JUMPDEST SWAP5 SWAP1 POP PUSH2 0x310B JUMP JUMPDEST POP POP SWAP1 POP DUP4 MLOAD SWAP3 DUP4 MSTORE DUP3 ADD MSTORE RETURN JUMPDEST DUP6 SLOAD DUP5 MSTORE PUSH1 0x1 SWAP6 DUP7 ADD SWAP6 DUP9 SWAP6 POP SWAP4 ADD SWAP3 ADD PUSH2 0x30C1 JUMP JUMPDEST DUP3 DUP5 CALLVALUE PUSH2 0x3EB JUMPI PUSH1 0x20 CALLDATASIZE PUSH1 0x3 NOT ADD SLT PUSH2 0x3EB JUMPI PUSH1 0x20 SWAP2 CALLDATALOAD PUSH0 MSTORE PUSH1 0x12 DUP3 MSTORE DUP1 PUSH0 KECCAK256 SLOAD SWAP1 MLOAD SWAP1 DUP2 MSTORE RETURN JUMPDEST DUP4 CALLVALUE PUSH2 0x3EB JUMPI PUSH0 CALLDATASIZE PUSH1 0x3 NOT ADD SLT PUSH2 0x3EB JUMPI PUSH1 0x20 SWAP1 PUSH1 0x9 SLOAD SWAP1 MLOAD SWAP1 DUP2 MSTORE RETURN JUMPDEST DUP4 CALLVALUE PUSH2 0x3EB JUMPI PUSH0 CALLDATASIZE PUSH1 0x3 NOT ADD SLT PUSH2 0x3EB JUMPI PUSH0 SLOAD SWAP1 MLOAD PUSH1 0x1 PUSH1 0x1 PUSH1 0xA0 SHL SUB SWAP1 SWAP2 AND DUP2 MSTORE PUSH1 0x20 SWAP1 RETURN JUMPDEST POP POP CALLVALUE PUSH2 0x3EB JUMPI PUSH1 0x20 SWAP1 DUP2 PUSH1 0x3 NOT CALLDATASIZE ADD SLT PUSH2 0x3EB JUMPI PUSH0 SWAP1 CALLDATALOAD PUSH0 MSTORE PUSH1 0xA DUP3 MSTORE DUP3 PUSH0 KECCAK256 SWAP3 DUP4 SLOAD PUSH2 0x31E5 DUP2 PUSH2 0x3C83 JUMP JUMPDEST SWAP5 PUSH2 0x31F2 DUP4 MLOAD SWAP7 DUP8 PUSH2 0x380D JUMP JUMPDEST DUP2 DUP7 MSTORE PUSH0 SWAP1 DUP2 MSTORE DUP5 DUP2 KECCAK256 DUP6 DUP1 DUP9 ADD JUMPDEST DUP5 DUP5 LT PUSH2 0x324A JUMPI POP POP POP POP POP DUP4 MLOAD PUSH0 JUMPDEST DUP6 MLOAD DUP2 LT ISZERO PUSH2 0x975 JUMPI PUSH1 0x80 PUSH2 0x3226 DUP3 DUP9 PUSH2 0x3C9B JUMP JUMPDEST MLOAD ADD MLOAD PUSH2 0x3236 JUMPI JUMPDEST PUSH1 0x1 ADD PUSH2 0x3211 JUMP JUMPDEST SWAP3 PUSH2 0x3242 PUSH1 0x1 SWAP2 PUSH2 0x3A7F JUMP JUMPDEST SWAP4 SWAP1 POP PUSH2 0x322E JUMP JUMPDEST PUSH1 0x1 SWAP2 PUSH1 0x5 SWAP2 PUSH2 0x3259 DUP6 PUSH2 0x3AA1 JUMP JUMPDEST DUP2 MSTORE ADD SWAP3 ADD SWAP3 ADD SWAP2 SWAP1 DUP7 SWAP1 PUSH2 0x3201 JUMP JUMPDEST DUP4 CALLVALUE PUSH2 0x3EB JUMPI PUSH1 0x20 SWAP1 PUSH2 0xBD0 CALLDATASIZE PUSH2 0x376D JUMP JUMPDEST DUP3 DUP5 CALLVALUE PUSH2 0x3EB JUMPI PUSH1 0x60 CALLDATASIZE PUSH1 0x3 NOT ADD SLT PUSH2 0x3EB JUMPI DUP2 CALLDATALOAD SWAP1 PUSH2 0x3299 PUSH2 0x37A1 JUMP JUMPDEST SWAP1 PUSH2 0x32A2 PUSH2 0x37B1 JUMP JUMPDEST SWAP2 PUSH1 0xFF DUP1 DUP1 SWAP3 AND SWAP4 PUSH1 0x1 DUP6 LT ISZERO DUP1 PUSH2 0x34D3 JUMPI JUMPDEST PUSH2 0x32BE SWAP1 PUSH2 0x3B79 JUMP JUMPDEST AND SWAP5 PUSH1 0x1 DUP7 LT ISZERO DUP1 PUSH2 0x34C8 JUMPI JUMPDEST PUSH2 0x32D4 SWAP1 PUSH2 0x3BBC JUMP JUMPDEST PUSH0 SLOAD DUP4 MLOAD PUSH3 0xB0C809 PUSH1 0xE0 SHL DUP2 MSTORE CALLER DUP4 DUP3 ADD MSTORE SWAP7 PUSH1 0x20 SWAP5 SWAP2 DUP6 SWAP1 DUP10 SWAP1 PUSH1 0x24 SWAP1 DUP3 SWAP1 PUSH1 0x1 PUSH1 0x1 PUSH1 0xA0 SHL SUB AND GAS STATICCALL SWAP8 DUP9 ISZERO PUSH2 0x7A4 JUMPI PUSH0 SWAP9 PUSH2 0x3499 JUMPI JUMPDEST POP PUSH2 0x3319 DUP9 ISZERO ISZERO PUSH2 0x3C08 JUMP JUMPDEST DUP7 PUSH0 MSTORE PUSH1 0xE DUP6 MSTORE DUP2 PUSH0 KECCAK256 DUP9 PUSH0 MSTORE DUP6 MSTORE DUP4 DUP3 PUSH0 KECCAK256 SLOAD AND ISZERO PUSH2 0x345F JUMPI DUP7 PUSH0 MSTORE PUSH1 0xF DUP6 MSTORE DUP2 PUSH0 KECCAK256 DUP9 PUSH0 MSTORE DUP6 MSTORE PUSH2 0x3358 DUP3 PUSH0 KECCAK256 SLOAD DUP9 PUSH0 MSTORE PUSH1 0xD DUP8 MSTORE DUP4 PUSH0 KECCAK256 PUSH2 0x393A JUMP JUMPDEST POP DUP5 PUSH1 0x5 DUP3 ADD SLOAD AND ISZERO PUSH2 0x341C JUMPI PUSH1 0x2 ADD SWAP1 DUP2 SLOAD SWAP4 PUSH2 0x3382 DUP7 DUP7 AND SWAP9 PUSH2 0x337C DUP2 PUSH2 0x3783 JUMP JUMPDEST DUP5 PUSH2 0x3C4C JUMP JUMPDEST PUSH1 0x6 DUP3 LT ISZERO PUSH2 0x3409 JUMPI POP PUSH2 0x3400 SWAP4 DUP6 PUSH1 0xA0 SWAP8 SWAP5 DUP5 PUSH2 0x33C6 PUSH2 0x33F2 SWAP6 PUSH32 0xFE65316E02C3DCE1BCA5A3132E022178971267D711982849C99758DA3CFC7ED SWAP13 SWAP11 SWAP8 PUSH2 0x3C64 JUMP JUMPDEST SLOAD SWAP6 DUP3 DUP8 AND SWAP1 DUP3 MLOAD SWAP10 PUSH2 0x33D8 DUP2 PUSH2 0x3783 JUMP JUMPDEST DUP11 MSTORE PUSH2 0x33E3 DUP3 PUSH2 0x3783 JUMP JUMPDEST DUP10 ADD MSTORE DUP8 ADD SWAP2 PUSH1 0x8 SHR AND PUSH2 0x3875 JUMP JUMPDEST PUSH1 0x60 DUP5 ADD SWAP2 PUSH1 0x8 SHR AND PUSH2 0x3875 JUMP JUMPDEST TIMESTAMP PUSH1 0x80 DUP3 ADD MSTORE LOG3 STOP JUMPDEST PUSH1 0x21 SWAP1 PUSH4 0x4E487B71 PUSH1 0xE0 SHL PUSH0 MSTORE MSTORE PUSH1 0x24 PUSH0 REVERT JUMPDEST DUP3 MLOAD PUSH3 0x461BCD PUSH1 0xE5 SHL DUP2 MSTORE DUP1 DUP6 ADD DUP8 SWAP1 MSTORE PUSH1 0x1A PUSH1 0x24 DUP3 ADD MSTORE PUSH32 0x4469737075746520686173206265656E20726574726163746564000000000000 PUSH1 0x44 DUP3 ADD MSTORE PUSH1 0x64 SWAP1 REVERT JUMPDEST DUP2 MLOAD PUSH3 0x461BCD PUSH1 0xE5 SHL DUP2 MSTORE DUP1 DUP5 ADD DUP7 SWAP1 MSTORE PUSH1 0x14 PUSH1 0x24 DUP3 ADD MSTORE PUSH20 0x4E6F206469737075746520746F206D6F64696679 PUSH1 0x60 SHL PUSH1 0x44 DUP3 ADD MSTORE PUSH1 0x64 SWAP1 REVERT JUMPDEST SWAP1 SWAP8 POP DUP5 DUP2 DUP2 RETURNDATASIZE DUP4 GT PUSH2 0x34C1 JUMPI JUMPDEST PUSH2 0x34B1 DUP2 DUP4 PUSH2 0x380D JUMP JUMPDEST DUP2 ADD SUB SLT PUSH2 0x3EB JUMPI MLOAD SWAP7 DUP9 PUSH2 0x330D JUMP JUMPDEST POP RETURNDATASIZE PUSH2 0x34A7 JUMP JUMPDEST POP PUSH1 0x5 DUP7 GT ISZERO PUSH2 0x32CB JUMP JUMPDEST POP PUSH1 0x3 DUP6 GT ISZERO PUSH2 0x32B5 JUMP JUMPDEST DUP4 CALLVALUE PUSH2 0x3EB JUMPI PUSH1 0xA0 SWAP1 PUSH2 0x34F9 PUSH2 0x34F3 CALLDATASIZE PUSH2 0x376D JUMP JUMPDEST SWAP1 PUSH2 0x3AED JUMP JUMPDEST SWAP4 SWAP5 SWAP1 SWAP3 DUP2 MLOAD SWAP6 ISZERO ISZERO DUP7 MSTORE PUSH1 0x20 DUP7 ADD MSTORE PUSH2 0xC6E DUP3 PUSH2 0x3783 JUMP JUMPDEST DUP3 DUP5 CALLVALUE PUSH2 0x3EB JUMPI PUSH1 0x80 CALLDATASIZE PUSH1 0x3 NOT ADD SLT PUSH2 0x3EB JUMPI DUP2 CALLDATALOAD PUSH1 0x24 SWAP2 DUP3 CALLDATALOAD SWAP3 PUSH1 0x44 CALLDATALOAD SWAP5 PUSH1 0x64 CALLDATALOAD SWAP2 PUSH2 0x354A PUSH1 0x1 DUP1 PUSH1 0xA0 SHL SUB PUSH1 0x1 SLOAD AND CALLER EQ PUSH2 0x3A46 JUMP JUMPDEST DUP5 ISZERO PUSH2 0x3739 JUMPI DUP6 ISZERO PUSH2 0x3706 JUMPI DUP7 ISZERO PUSH2 0x36D1 JUMPI DUP5 PUSH0 MSTORE PUSH1 0x20 SWAP2 PUSH1 0x11 DUP4 MSTORE DUP5 PUSH0 KECCAK256 DUP8 PUSH0 MSTORE DUP4 MSTORE DUP5 PUSH0 KECCAK256 SLOAD PUSH2 0x369F JUMPI DUP6 PUSH0 MSTORE PUSH1 0x10 DUP4 MSTORE DUP5 PUSH0 KECCAK256 SLOAD PUSH1 0x1 DUP2 ADD DUP1 SWAP2 GT PUSH2 0x368D JUMPI DUP7 PUSH0 MSTORE PUSH1 0x11 DUP5 MSTORE DUP6 PUSH0 KECCAK256 DUP9 PUSH0 MSTORE DUP5 MSTORE DUP6 PUSH0 KECCAK256 SSTORE DUP6 PUSH0 MSTORE PUSH1 0x10 DUP4 MSTORE DUP5 PUSH0 KECCAK256 DUP6 MLOAD PUSH2 0x35B4 DUP2 PUSH2 0x37C1 JUMP JUMPDEST DUP9 DUP2 MSTORE DUP5 DUP2 ADD DUP11 DUP2 MSTORE DUP8 DUP3 ADD SWAP1 DUP8 DUP3 MSTORE PUSH1 0x60 DUP4 ADD SWAP3 TIMESTAMP DUP5 MSTORE PUSH1 0x80 DUP2 ADD SWAP5 PUSH1 0x1 DUP7 MSTORE DUP1 SLOAD SWAP1 PUSH1 0x1 PUSH1 0x40 SHL DUP3 LT ISZERO PUSH2 0x367B JUMPI SWAP1 PUSH2 0x35F4 SWAP2 PUSH1 0x1 DUP3 ADD DUP2 SSTORE PUSH2 0x3A2D JUMP JUMPDEST SWAP8 SWAP1 SWAP8 PUSH2 0x1EB0 JUMPI POP MLOAD DUP7 SSTORE MLOAD PUSH1 0x1 DUP7 ADD SSTORE MLOAD PUSH1 0x2 DUP6 ADD SSTORE MLOAD PUSH1 0x3 DUP5 ADD SSTORE MLOAD SWAP2 ADD DUP1 SLOAD PUSH1 0xFF NOT AND SWAP2 ISZERO ISZERO PUSH1 0xFF AND SWAP2 SWAP1 SWAP2 OR SWAP1 SSTORE PUSH32 0xD975A013E674F51FF6B9D1144095CBE8D88C8A4EBAC520FFDCE1B92EEE22E99B SWAP3 SWAP2 SWAP1 DUP5 PUSH0 MSTORE PUSH1 0x12 DUP2 MSTORE DUP3 PUSH0 KECCAK256 PUSH2 0x365E DUP2 SLOAD PUSH2 0x3A7F JUMP JUMPDEST SWAP1 SSTORE PUSH2 0x366B PUSH1 0x17 SLOAD PUSH2 0x3A7F JUMP JUMPDEST PUSH1 0x17 SSTORE DUP3 MLOAD SWAP2 DUP3 MSTORE TIMESTAMP SWAP1 DUP3 ADD MSTORE LOG4 STOP JUMPDEST DUP9 PUSH1 0x41 DUP10 PUSH4 0x4E487B71 PUSH1 0xE0 SHL PUSH0 MSTORE MSTORE PUSH0 REVERT JUMPDEST POP PUSH1 0x11 SWAP1 PUSH4 0x4E487B71 PUSH1 0xE0 SHL PUSH0 MSTORE MSTORE PUSH0 REVERT JUMPDEST PUSH1 0xF PUSH1 0x64 SWAP3 DUP5 DUP8 MLOAD SWAP4 PUSH3 0x461BCD PUSH1 0xE5 SHL DUP6 MSTORE DUP5 ADD MSTORE DUP3 ADD MSTORE PUSH15 0x105B1C9958591E48199B1859D9D959 PUSH1 0x8A SHL PUSH1 0x44 DUP3 ADD MSTORE REVERT JUMPDEST SWAP1 PUSH1 0x10 PUSH1 0x64 SWAP3 PUSH1 0x20 DUP7 MLOAD SWAP4 PUSH3 0x461BCD PUSH1 0xE5 SHL DUP6 MSTORE DUP5 ADD MSTORE DUP3 ADD MSTORE PUSH16 0x24B73B30B634B210383937BB34B232B9 PUSH1 0x81 SHL PUSH1 0x44 DUP3 ADD MSTORE REVERT JUMPDEST SWAP1 PUSH1 0xE PUSH1 0x64 SWAP3 PUSH1 0x20 DUP7 MLOAD SWAP4 PUSH3 0x461BCD PUSH1 0xE5 SHL DUP6 MSTORE DUP5 ADD MSTORE DUP3 ADD MSTORE PUSH14 0x125B9D985B1A59081C9958DBDC99 PUSH1 0x92 SHL PUSH1 0x44 DUP3 ADD MSTORE REVERT JUMPDEST SWAP1 PUSH1 0xF PUSH1 0x64 SWAP3 PUSH1 0x20 DUP7 MLOAD SWAP4 PUSH3 0x461BCD PUSH1 0xE5 SHL DUP6 MSTORE DUP5 ADD MSTORE DUP3 ADD MSTORE PUSH15 0x125B9D985B1A59081CDD589A9958DD PUSH1 0x8A SHL PUSH1 0x44 DUP3 ADD MSTORE REVERT JUMPDEST PUSH1 0x40 SWAP1 PUSH1 0x3 NOT ADD SLT PUSH2 0x3EB JUMPI PUSH1 0x4 CALLDATALOAD SWAP1 PUSH1 0x24 CALLDATALOAD SWAP1 JUMP JUMPDEST PUSH1 0x4 GT ISZERO PUSH2 0x378D JUMPI JUMP JUMPDEST PUSH4 0x4E487B71 PUSH1 0xE0 SHL PUSH0 MSTORE PUSH1 0x21 PUSH1 0x4 MSTORE PUSH1 0x24 PUSH0 REVERT JUMPDEST PUSH1 0x24 CALLDATALOAD SWAP1 PUSH1 0xFF DUP3 AND DUP3 SUB PUSH2 0x3EB JUMPI JUMP JUMPDEST PUSH1 0x44 CALLDATALOAD SWAP1 PUSH1 0xFF DUP3 AND DUP3 SUB PUSH2 0x3EB JUMPI JUMP JUMPDEST PUSH1 0xA0 DUP2 ADD SWAP1 DUP2 LT PUSH8 0xFFFFFFFFFFFFFFFF DUP3 GT OR PUSH2 0x37DD JUMPI PUSH1 0x40 MSTORE JUMP JUMPDEST PUSH4 0x4E487B71 PUSH1 0xE0 SHL PUSH0 MSTORE PUSH1 0x41 PUSH1 0x4 MSTORE PUSH1 0x24 PUSH0 REVERT JUMPDEST PUSH1 0xE0 DUP2 ADD SWAP1 DUP2 LT PUSH8 0xFFFFFFFFFFFFFFFF DUP3 GT OR PUSH2 0x37DD JUMPI PUSH1 0x40 MSTORE JUMP JUMPDEST SWAP1 PUSH1 0x1F DUP1 NOT SWAP2 ADD AND DUP2 ADD SWAP1 DUP2 LT PUSH8 0xFFFFFFFFFFFFFFFF DUP3 GT OR PUSH2 0x37DD JUMPI PUSH1 0x40 MSTORE JUMP JUMPDEST SWAP3 SWAP2 SWAP3 PUSH8 0xFFFFFFFFFFFFFFFF DUP3 GT PUSH2 0x37DD JUMPI PUSH1 0x40 MLOAD SWAP2 PUSH2 0x3859 PUSH1 0x1F DUP3 ADD PUSH1 0x1F NOT AND PUSH1 0x20 ADD DUP5 PUSH2 0x380D JUMP JUMPDEST DUP3 SWAP5 DUP2 DUP5 MSTORE DUP2 DUP4 ADD GT PUSH2 0x3EB JUMPI DUP3 DUP2 PUSH1 0x20 SWAP4 DUP5 PUSH0 SWAP7 ADD CALLDATACOPY ADD ADD MSTORE JUMP JUMPDEST SWAP1 PUSH1 0x6 DUP3 LT ISZERO PUSH2 0x378D JUMPI MSTORE JUMP JUMPDEST SWAP2 SWAP1 DUP3 MLOAD SWAP3 DUP4 DUP3 MSTORE PUSH0 JUMPDEST DUP5 DUP2 LT PUSH2 0x38AC JUMPI POP POP DUP3 PUSH0 PUSH1 0x20 DUP1 SWAP5 SWAP6 DUP5 ADD ADD MSTORE PUSH1 0x1F DUP1 NOT SWAP2 ADD AND ADD ADD SWAP1 JUMP JUMPDEST PUSH1 0x20 DUP2 DUP4 ADD DUP2 ADD MLOAD DUP5 DUP4 ADD DUP3 ADD MSTORE ADD PUSH2 0x388C JUMP JUMPDEST PUSH1 0x4 CALLDATALOAD SWAP1 PUSH1 0x1 PUSH1 0x1 PUSH1 0xA0 SHL SUB DUP3 AND DUP3 SUB PUSH2 0x3EB JUMPI JUMP JUMPDEST PUSH1 0x20 SWAP1 PUSH1 0x20 PUSH1 0x40 DUP2 DUP4 ADD SWAP3 DUP3 DUP2 MSTORE DUP6 MLOAD DUP1 SWAP5 MSTORE ADD SWAP4 ADD SWAP2 PUSH0 JUMPDEST DUP3 DUP2 LT PUSH2 0x38FD JUMPI POP POP POP POP SWAP1 JUMP JUMPDEST DUP4 MLOAD DUP6 MSTORE SWAP4 DUP2 ADD SWAP4 SWAP3 DUP2 ADD SWAP3 PUSH1 0x1 ADD PUSH2 0x38EF JUMP JUMPDEST DUP1 SLOAD DUP3 LT ISZERO PUSH2 0x3926 JUMPI PUSH0 MSTORE PUSH1 0x20 PUSH0 KECCAK256 ADD SWAP1 PUSH0 SWAP1 JUMP JUMPDEST PUSH4 0x4E487B71 PUSH1 0xE0 SHL PUSH0 MSTORE PUSH1 0x32 PUSH1 0x4 MSTORE PUSH1 0x24 PUSH0 REVERT JUMPDEST DUP1 SLOAD DUP3 LT ISZERO PUSH2 0x3926 JUMPI PUSH0 MSTORE PUSH1 0x6 PUSH1 0x20 PUSH0 KECCAK256 SWAP2 MUL ADD SWAP1 PUSH0 SWAP1 JUMP JUMPDEST SWAP1 PUSH1 0x1 DUP3 DUP2 SHR SWAP3 AND DUP1 ISZERO PUSH2 0x3981 JUMPI JUMPDEST PUSH1 0x20 DUP4 LT EQ PUSH2 0x396D JUMPI JUMP JUMPDEST PUSH4 0x4E487B71 PUSH1 0xE0 SHL PUSH0 MSTORE PUSH1 0x22 PUSH1 0x4 MSTORE PUSH1 0x24 PUSH0 REVERT JUMPDEST SWAP2 PUSH1 0x7F AND SWAP2 PUSH2 0x3962 JUMP JUMPDEST SWAP1 PUSH1 0x40 MLOAD SWAP2 DUP3 PUSH0 DUP3 SLOAD PUSH2 0x399D DUP2 PUSH2 0x3953 JUMP JUMPDEST SWAP1 DUP2 DUP5 MSTORE PUSH1 0x20 SWAP5 PUSH1 0x1 SWAP2 PUSH1 0x1 DUP2 AND SWAP1 DUP2 PUSH0 EQ PUSH2 0x3A0B JUMPI POP PUSH1 0x1 EQ PUSH2 0x39CD JUMPI JUMPDEST POP POP POP PUSH2 0x39CB SWAP3 POP SUB DUP4 PUSH2 0x380D JUMP JUMPDEST JUMP JUMPDEST PUSH0 SWAP1 DUP2 MSTORE DUP6 DUP2 KECCAK256 SWAP6 SWAP4 POP SWAP2 SWAP1 JUMPDEST DUP2 DUP4 LT PUSH2 0x39F3 JUMPI POP POP PUSH2 0x39CB SWAP4 POP DUP3 ADD ADD PUSH0 DUP1 DUP1 PUSH2 0x39BC JUMP JUMPDEST DUP6 SLOAD DUP9 DUP5 ADD DUP6 ADD MSTORE SWAP5 DUP6 ADD SWAP5 DUP8 SWAP5 POP SWAP2 DUP4 ADD SWAP2 PUSH2 0x39DA JUMP JUMPDEST SWAP3 POP POP POP PUSH2 0x39CB SWAP5 SWAP3 POP PUSH1 0xFF NOT AND DUP3 DUP5 ADD MSTORE ISZERO ISZERO PUSH1 0x5 SHL DUP3 ADD ADD PUSH0 DUP1 DUP1 PUSH2 0x39BC JUMP JUMPDEST DUP1 SLOAD DUP3 LT ISZERO PUSH2 0x3926 JUMPI PUSH0 MSTORE PUSH1 0x5 PUSH1 0x20 PUSH0 KECCAK256 SWAP2 MUL ADD SWAP1 PUSH0 SWAP1 JUMP JUMPDEST ISZERO PUSH2 0x3A4D JUMPI JUMP JUMPDEST PUSH1 0x40 MLOAD PUSH3 0x461BCD PUSH1 0xE5 SHL DUP2 MSTORE PUSH1 0x20 PUSH1 0x4 DUP3 ADD MSTORE PUSH1 0xA PUSH1 0x24 DUP3 ADD MSTORE PUSH10 0x27B7363C9030B236B4B7 PUSH1 0xB1 SHL PUSH1 0x44 DUP3 ADD MSTORE PUSH1 0x64 SWAP1 REVERT JUMPDEST PUSH0 NOT DUP2 EQ PUSH2 0x3A8D JUMPI PUSH1 0x1 ADD SWAP1 JUMP JUMPDEST PUSH4 0x4E487B71 PUSH1 0xE0 SHL PUSH0 MSTORE PUSH1 0x11 PUSH1 0x4 MSTORE PUSH1 0x24 PUSH0 REVERT JUMPDEST SWAP1 PUSH1 0x40 MLOAD PUSH2 0x3AAE DUP2 PUSH2 0x37C1 JUMP JUMPDEST PUSH1 0x80 PUSH1 0xFF PUSH1 0x4 DUP4 SWAP6 DUP1 SLOAD DUP6 MSTORE PUSH1 0x1 DUP2 ADD SLOAD PUSH1 0x20 DUP7 ADD MSTORE DUP3 PUSH1 0x2 DUP3 ADD SLOAD AND PUSH2 0x3AD4 DUP2 PUSH2 0x3783 JUMP JUMPDEST PUSH1 0x40 DUP7 ADD MSTORE PUSH1 0x3 DUP2 ADD SLOAD PUSH1 0x60 DUP7 ADD MSTORE ADD SLOAD AND ISZERO ISZERO SWAP2 ADD MSTORE JUMP JUMPDEST SWAP2 SWAP1 SWAP2 DUP1 PUSH0 MSTORE PUSH1 0x20 SWAP1 PUSH1 0xB DUP3 MSTORE PUSH1 0x40 SWAP4 DUP5 PUSH0 KECCAK256 DUP2 PUSH0 MSTORE DUP4 MSTORE PUSH1 0xFF DUP6 PUSH0 KECCAK256 SLOAD AND ISZERO PUSH2 0x3B69 JUMPI DUP2 PUSH2 0x3B3B SWAP2 PUSH2 0x3B41 SWAP4 PUSH0 MSTORE PUSH1 0xC DUP6 MSTORE DUP7 PUSH0 KECCAK256 SWAP1 PUSH0 MSTORE DUP5 MSTORE DUP6 PUSH0 KECCAK256 SLOAD SWAP1 PUSH0 MSTORE PUSH1 0xA DUP5 MSTORE DUP6 PUSH0 KECCAK256 PUSH2 0x3A2D JUMP JUMPDEST POP PUSH2 0x3AA1 JUMP JUMPDEST SWAP1 DUP2 ADD MLOAD SWAP3 DUP2 ADD MLOAD SWAP2 PUSH2 0x3B53 DUP4 PUSH2 0x3783 JUMP JUMPDEST PUSH1 0x80 PUSH1 0x60 DUP4 ADD MLOAD SWAP3 ADD MLOAD ISZERO ISZERO SWAP1 PUSH1 0x1 SWAP5 SWAP4 SWAP3 SWAP2 SWAP1 JUMP JUMPDEST POP PUSH0 SWAP4 POP DUP4 SWAP3 DUP4 SWAP3 POP DUP3 SWAP2 POP DUP2 SWAP1 JUMP JUMPDEST ISZERO PUSH2 0x3B80 JUMPI JUMP JUMPDEST PUSH1 0x40 MLOAD PUSH3 0x461BCD PUSH1 0xE5 SHL DUP2 MSTORE PUSH1 0x20 PUSH1 0x4 DUP3 ADD MSTORE PUSH1 0x14 PUSH1 0x24 DUP3 ADD MSTORE PUSH20 0x5365766572697479206D75737420626520312D33 PUSH1 0x60 SHL PUSH1 0x44 DUP3 ADD MSTORE PUSH1 0x64 SWAP1 REVERT JUMPDEST ISZERO PUSH2 0x3BC3 JUMPI JUMP JUMPDEST PUSH1 0x40 MLOAD PUSH3 0x461BCD PUSH1 0xE5 SHL DUP2 MSTORE PUSH1 0x20 PUSH1 0x4 DUP3 ADD MSTORE PUSH1 0x17 PUSH1 0x24 DUP3 ADD MSTORE PUSH32 0x43756C706162696C697479206D75737420626520312D35000000000000000000 PUSH1 0x44 DUP3 ADD MSTORE PUSH1 0x64 SWAP1 REVERT JUMPDEST ISZERO PUSH2 0x3C0F JUMPI JUMP JUMPDEST PUSH1 0x40 MLOAD PUSH3 0x461BCD PUSH1 0xE5 SHL DUP2 MSTORE PUSH1 0x20 PUSH1 0x4 DUP3 ADD MSTORE PUSH1 0x15 PUSH1 0x24 DUP3 ADD MSTORE PUSH21 0x15D85B1B195D081B9BDD081C9959DA5CDD195C9959 PUSH1 0x5A SHL PUSH1 0x44 DUP3 ADD MSTORE PUSH1 0x64 SWAP1 REVERT JUMPDEST SWAP1 PUSH2 0x3C56 DUP2 PUSH2 0x3783 JUMP JUMPDEST PUSH1 0xFF DUP1 NOT DUP4 SLOAD AND SWAP2 AND OR SWAP1 SSTORE JUMP JUMPDEST SWAP1 PUSH1 0x6 DUP2 LT ISZERO PUSH2 0x378D JUMPI PUSH2 0xFF00 DUP3 SLOAD SWAP2 PUSH1 0x8 SHL AND SWAP1 PUSH2 0xFF00 NOT AND OR SWAP1 SSTORE JUMP JUMPDEST PUSH8 0xFFFFFFFFFFFFFFFF DUP2 GT PUSH2 0x37DD JUMPI PUSH1 0x5 SHL PUSH1 0x20 ADD SWAP1 JUMP JUMPDEST DUP1 MLOAD DUP3 LT ISZERO PUSH2 0x3926 JUMPI PUSH1 0x20 SWAP2 PUSH1 0x5 SHL ADD ADD SWAP1 JUMP JUMPDEST SWAP1 DUP2 PUSH1 0x20 SWAP2 SUB SLT PUSH2 0x3EB JUMPI MLOAD DUP1 ISZERO ISZERO DUP2 SUB PUSH2 0x3EB JUMPI SWAP1 JUMP JUMPDEST ISZERO PUSH2 0x3CCE JUMPI JUMP JUMPDEST PUSH1 0x40 MLOAD PUSH3 0x461BCD PUSH1 0xE5 SHL DUP2 MSTORE PUSH1 0x20 PUSH1 0x4 DUP3 ADD MSTORE PUSH1 0x14 PUSH1 0x24 DUP3 ADD MSTORE PUSH20 0x2737BA1030B71030B1BA34BB329036B2B6B132B9 PUSH1 0x61 SHL PUSH1 0x44 DUP3 ADD MSTORE PUSH1 0x64 SWAP1 REVERT JUMPDEST ISZERO PUSH2 0x3D11 JUMPI JUMP JUMPDEST PUSH1 0x40 MLOAD PUSH3 0x461BCD PUSH1 0xE5 SHL DUP2 MSTORE PUSH1 0x20 PUSH1 0x4 DUP3 ADD MSTORE PUSH1 0x18 PUSH1 0x24 DUP3 ADD MSTORE PUSH32 0x4E6F2061636365737320746F2074686973207265636F72640000000000000000 PUSH1 0x44 DUP3 ADD MSTORE PUSH1 0x64 SWAP1 REVERT JUMPDEST ISZERO PUSH2 0x3D5D JUMPI JUMP JUMPDEST PUSH1 0x40 MLOAD PUSH3 0x461BCD PUSH1 0xE5 SHL DUP2 MSTORE PUSH1 0x20 PUSH1 0x4 DUP3 ADD MSTORE PUSH1 0x19 PUSH1 0x24 DUP3 ADD MSTORE PUSH32 0x5265636F72642049442063616E6E6F7420626520656D70747900000000000000 PUSH1 0x44 DUP3 ADD MSTORE PUSH1 0x64 SWAP1 REVERT JUMPDEST ISZERO PUSH2 0x3DA9 JUMPI JUMP JUMPDEST PUSH1 0x40 MLOAD PUSH3 0x461BCD PUSH1 0xE5 SHL DUP2 MSTORE PUSH1 0x20 PUSH1 0x4 DUP3 ADD MSTORE PUSH1 0x1B PUSH1 0x24 DUP3 ADD MSTORE PUSH32 0x5265636F726420686173682063616E6E6F7420626520656D7074790000000000 PUSH1 0x44 DUP3 ADD MSTORE PUSH1 0x64 SWAP1 REVERT JUMPDEST PUSH1 0x6 DUP3 LT ISZERO PUSH2 0x378D JUMPI MSTORE JUMP JUMPDEST DUP1 SLOAD PUSH1 0x1 PUSH1 0x40 SHL DUP2 LT ISZERO PUSH2 0x37DD JUMPI PUSH2 0x3E17 SWAP2 PUSH1 0x1 DUP3 ADD DUP2 SSTORE PUSH2 0x3911 JUMP JUMPDEST DUP2 SWAP3 SWAP2 SLOAD SWAP1 PUSH1 0x3 SHL SWAP2 DUP3 SHL SWAP2 PUSH0 NOT SWAP1 SHL NOT AND OR SWAP1 SSTORE JUMP JUMPDEST SWAP1 PUSH1 0x40 MLOAD PUSH2 0x3E3B DUP2 PUSH2 0x37C1 JUMP JUMPDEST PUSH1 0x80 PUSH1 0xFF PUSH1 0x4 DUP4 SWAP6 DUP1 SLOAD DUP6 MSTORE PUSH1 0x1 DUP2 ADD SLOAD PUSH1 0x20 DUP7 ADD MSTORE PUSH1 0x2 DUP2 ADD SLOAD PUSH1 0x40 DUP7 ADD MSTORE PUSH1 0x3 DUP2 ADD SLOAD PUSH1 0x60 DUP7 ADD MSTORE ADD SLOAD AND ISZERO ISZERO SWAP2 ADD MSTORE JUMP JUMPDEST SWAP1 DUP2 PUSH0 MSTORE PUSH1 0x11 PUSH1 0x20 MSTORE PUSH1 0x40 PUSH0 KECCAK256 SWAP1 PUSH0 MSTORE PUSH1 0x20 MSTORE PUSH1 0x40 PUSH0 KECCAK256 SLOAD SWAP1 DUP2 ISZERO PUSH2 0x3ED7 JUMPI PUSH0 MSTORE PUSH1 0x10 PUSH1 0x20 MSTORE PUSH1 0x40 PUSH0 KECCAK256 PUSH0 NOT DUP3 ADD SWAP2 DUP3 GT PUSH2 0x3A8D JUMPI PUSH2 0x3EB7 SWAP2 PUSH2 0x3EB1 SWAP2 PUSH2 0x3A2D JUMP JUMPDEST POP PUSH2 0x3E2E JUMP JUMPDEST PUSH1 0x80 DUP2 ADD MLOAD PUSH1 0x20 DUP3 ADD MLOAD PUSH1 0x40 DUP4 ADD MLOAD PUSH1 0x60 SWAP1 SWAP4 ADD MLOAD PUSH1 0x1 SWAP5 SWAP3 ISZERO ISZERO SWAP4 SWAP2 SWAP3 JUMP JUMPDEST POP POP PUSH0 SWAP1 PUSH0 SWAP1 PUSH0 SWAP1 PUSH0 SWAP1 PUSH0 SWAP1 JUMP JUMPDEST SWAP1 PUSH1 0x40 MLOAD PUSH2 0x3EF2 DUP2 PUSH2 0x37F1 JUMP JUMPDEST PUSH1 0xC0 PUSH1 0xFF PUSH1 0x5 DUP4 SWAP6 DUP1 SLOAD DUP6 MSTORE PUSH1 0x1 DUP2 ADD SLOAD PUSH1 0x20 DUP7 ADD MSTORE PUSH2 0x3F2F DUP4 PUSH1 0x2 DUP4 ADD SLOAD DUP2 DUP2 AND PUSH2 0x3F1D DUP2 PUSH2 0x3783 JUMP JUMPDEST PUSH1 0x40 DUP10 ADD MSTORE PUSH1 0x8 SHR AND PUSH1 0x60 DUP8 ADD PUSH2 0x3DEE JUMP JUMPDEST PUSH2 0x3F3B PUSH1 0x3 DUP3 ADD PUSH2 0x398B JUMP JUMPDEST PUSH1 0x80 DUP7 ADD MSTORE PUSH1 0x4 DUP2 ADD SLOAD PUSH1 0xA0 DUP7 ADD MSTORE ADD SLOAD AND ISZERO ISZERO SWAP2 ADD MSTORE JUMP JUMPDEST SWAP2 SWAP1 SWAP2 DUP1 PUSH0 MSTORE PUSH1 0x20 SWAP1 PUSH1 0xE DUP3 MSTORE PUSH1 0x40 SWAP4 DUP5 PUSH0 KECCAK256 DUP2 PUSH0 MSTORE DUP4 MSTORE PUSH1 0xFF DUP6 PUSH0 KECCAK256 SLOAD AND ISZERO PUSH2 0x3FE7 JUMPI DUP2 PUSH2 0x3FA2 SWAP2 PUSH2 0x3FA8 SWAP4 PUSH0 MSTORE PUSH1 0xF DUP6 MSTORE DUP7 PUSH0 KECCAK256 SWAP1 PUSH0 MSTORE DUP5 MSTORE DUP6 PUSH0 KECCAK256 SLOAD SWAP1 PUSH0 MSTORE PUSH1 0xD DUP5 MSTORE DUP6 PUSH0 KECCAK256 PUSH2 0x393A JUMP JUMPDEST POP PUSH2 0x3EE5 JUMP JUMPDEST SWAP1 DUP2 ADD MLOAD SWAP3 DUP2 ADD MLOAD SWAP2 PUSH2 0x3FBA DUP4 PUSH2 0x3783 JUMP JUMPDEST PUSH1 0x60 DUP3 ADD MLOAD SWAP2 PUSH1 0x6 DUP4 LT ISZERO PUSH2 0x378D JUMPI PUSH1 0x80 DUP2 ADD MLOAD SWAP2 PUSH1 0xC0 PUSH1 0xA0 DUP4 ADD MLOAD SWAP3 ADD MLOAD ISZERO ISZERO SWAP1 PUSH1 0x1 SWAP7 SWAP6 SWAP5 SWAP4 SWAP3 SWAP2 SWAP1 JUMP JUMPDEST POP POP PUSH0 SWAP3 PUSH0 SWAP3 PUSH0 SWAP3 PUSH0 SWAP3 DUP1 MLOAD SWAP2 DUP3 ADD SWAP1 DUP3 DUP3 LT PUSH8 0xFFFFFFFFFFFFFFFF DUP4 GT OR PUSH2 0x37DD JUMPI MSTORE PUSH0 DUP2 MSTORE SWAP1 PUSH0 SWAP1 PUSH0 SWAP1 JUMP JUMPDEST ISZERO PUSH2 0x401C JUMPI JUMP JUMPDEST PUSH1 0x40 MLOAD PUSH3 0x461BCD PUSH1 0xE5 SHL DUP2 MSTORE PUSH1 0x20 PUSH1 0x4 DUP3 ADD MSTORE PUSH1 0x11 PUSH1 0x24 DUP3 ADD MSTORE PUSH17 0x105B1C9958591E481C995D1C9858DD1959 PUSH1 0x7A SHL PUSH1 0x44 DUP3 ADD MSTORE PUSH1 0x64 SWAP1 REVERT JUMPDEST ISZERO PUSH2 0x405C JUMPI JUMP JUMPDEST PUSH1 0x40 MLOAD PUSH3 0x461BCD PUSH1 0xE5 SHL DUP2 MSTORE PUSH1 0x20 PUSH1 0x4 DUP3 ADD MSTORE PUSH1 0xF PUSH1 0x24 DUP3 ADD MSTORE PUSH15 0x496E76616C69642061646472657373 PUSH1 0x88 SHL PUSH1 0x44 DUP3 ADD MSTORE PUSH1 0x64 SWAP1 REVERT JUMPDEST ISZERO PUSH2 0x409A JUMPI JUMP JUMPDEST PUSH1 0x40 MLOAD PUSH3 0x461BCD PUSH1 0xE5 SHL DUP2 MSTORE PUSH1 0x20 PUSH1 0x4 DUP3 ADD MSTORE PUSH1 0x11 PUSH1 0x24 DUP3 ADD MSTORE PUSH17 0x4C6576656C206D75737420626520312D33 PUSH1 0x78 SHL PUSH1 0x44 DUP3 ADD MSTORE PUSH1 0x64 SWAP1 REVERT JUMPDEST PUSH0 SLOAD PUSH1 0x40 MLOAD PUSH3 0xB0C809 PUSH1 0xE0 SHL DUP2 MSTORE CALLER PUSH1 0x4 DUP3 ADD MSTORE PUSH1 0x20 SWAP2 PUSH1 0x1 PUSH1 0x1 PUSH1 0xA0 SHL SUB AND SWAP1 DUP3 DUP2 PUSH1 0x24 DUP2 DUP6 GAS STATICCALL SWAP1 DUP2 ISZERO PUSH2 0x41C9 JUMPI PUSH0 SWAP2 PUSH2 0x41E4 JUMPI JUMPDEST POP PUSH2 0x4116 DUP2 ISZERO ISZERO PUSH2 0x3C08 JUMP JUMPDEST DUP4 ISZERO DUP1 ISZERO PUSH2 0x41DB JUMPI JUMPDEST PUSH2 0x41D4 JUMPI DUP3 SWAP1 PUSH1 0x44 PUSH1 0x40 MLOAD DUP1 SWAP5 DUP2 SWAP4 PUSH4 0x557EE54F PUSH1 0xE0 SHL DUP4 MSTORE DUP9 PUSH1 0x4 DUP5 ADD MSTORE PUSH1 0x24 DUP4 ADD MSTORE GAS STATICCALL SWAP1 DUP2 ISZERO PUSH2 0x41C9 JUMPI PUSH0 SWAP2 PUSH2 0x41AC JUMPI JUMPDEST POP ISZERO PUSH2 0x415D JUMPI POP SWAP1 JUMP JUMPDEST PUSH1 0x84 SWAP1 PUSH1 0x40 MLOAD SWAP1 PUSH3 0x461BCD PUSH1 0xE5 SHL DUP3 MSTORE PUSH1 0x4 DUP3 ADD MSTORE PUSH1 0x22 PUSH1 0x24 DUP3 ADD MSTORE PUSH32 0x4E6F74206120636F6E74726F6C6C657220666F722074686973206964656E7469 PUSH1 0x44 DUP3 ADD MSTORE PUSH2 0x7479 PUSH1 0xF0 SHL PUSH1 0x64 DUP3 ADD MSTORE REVERT JUMPDEST PUSH2 0x41C3 SWAP2 POP DUP3 RETURNDATASIZE DUP5 GT PUSH2 0x79D JUMPI PUSH2 0x78F DUP2 DUP4 PUSH2 0x380D JUMP JUMPDEST PUSH0 PUSH2 0x4153 JUMP JUMPDEST PUSH1 0x40 MLOAD RETURNDATASIZE PUSH0 DUP3 RETURNDATACOPY RETURNDATASIZE SWAP1 REVERT JUMPDEST SWAP3 POP POP POP SWAP1 JUMP JUMPDEST POP DUP1 DUP5 EQ PUSH2 0x411F JUMP JUMPDEST SWAP1 POP DUP3 DUP2 DUP2 RETURNDATASIZE DUP4 GT PUSH2 0x420A JUMPI JUMPDEST PUSH2 0x41FB DUP2 DUP4 PUSH2 0x380D JUMP JUMPDEST DUP2 ADD SUB SLT PUSH2 0x3EB JUMPI MLOAD PUSH0 PUSH2 0x410A JUMP JUMPDEST POP RETURNDATASIZE PUSH2 0x41F1 JUMP JUMPDEST SWAP1 PUSH0 DUP1 SWAP2 PUSH1 0x20 DUP2 MLOAD SWAP2 ADD DUP5 GAS DELEGATECALL DUP1 DUP1 PUSH2 0x428F JUMPI JUMPDEST ISZERO PUSH2 0x4245 JUMPI POP POP PUSH1 0x40 MLOAD RETURNDATASIZE DUP2 MSTORE RETURNDATASIZE PUSH0 PUSH1 0x20 DUP4 ADD RETURNDATACOPY PUSH1 0x20 RETURNDATASIZE DUP3 ADD ADD PUSH1 0x40 MSTORE SWAP1 JUMP JUMPDEST ISZERO PUSH2 0x426C JUMPI PUSH1 0x40 MLOAD PUSH4 0x9996B315 PUSH1 0xE0 SHL DUP2 MSTORE PUSH1 0x1 PUSH1 0x1 PUSH1 0xA0 SHL SUB SWAP1 SWAP2 AND PUSH1 0x4 DUP3 ADD MSTORE PUSH1 0x24 SWAP1 REVERT JUMPDEST RETURNDATASIZE ISZERO PUSH2 0x427D JUMPI PUSH1 0x40 MLOAD RETURNDATASIZE PUSH0 DUP3 RETURNDATACOPY RETURNDATASIZE SWAP1 REVERT JUMPDEST PUSH1 0x40 MLOAD PUSH4 0xD6BDA275 PUSH1 0xE0 SHL DUP2 MSTORE PUSH1 0x4 SWAP1 REVERT JUMPDEST POP RETURNDATASIZE ISZERO ISZERO DUP1 PUSH2 0x4225 JUMPI POP DUP2 EXTCODESIZE ISZERO ISZERO PUSH2 0x4225 JUMP INVALID LOG2 PUSH5 0x6970667358 0x22 SLT KECCAK256 CODECOPY PUSH7 0x47B909CA41902F 0x25 SWAP2 0x1E GASPRICE 0x28 CALLDATASIZE JUMP SGT MULMOD SAR 0x26 SWAP8 SELFBALANCE 0xBD SWAP13 0xDC 0xE3 TSTORE 0xB7 PUSH22 0xFD9F2C64736F6C634300081800330000000000000000 "},"methodIdentifiers":{"UPGRADE_INTERFACE_VERSION()":"ad3cb1cc","activeUnacceptedFlagCount(bytes32)":"dbc7b842","addRecordHash(bytes32,bytes32)":"c7567dfa","admin()":"f851a440","anchorRecord(bytes32,bytes32,bytes32)":"f36ddb4f","currentlyDisputed(bytes32,bytes32)":"10466a67","currentlyVerified(bytes32,bytes32)":"def0dec8","disputeIndex(bytes32,bytes32)":"8fc751ee","disputeRecord(bytes32,bytes32,uint8,uint8,string)":"3533d58c","disputes(bytes32,uint256)":"aeb2a19f","disputesByUser(bytes32,uint256)":"adcee102","doesHashExist(bytes32)":"1ee66770","flagUnacceptedUpdate(bytes32,bytes32,bytes32,bytes32)":"01f69935","getActiveRecordSubjects(bytes32)":"86519335","getActiveUnacceptedFlagCount(bytes32)":"249dda2e","getDisputeStats(bytes32)":"dfe36843","getDisputes(bytes32)":"d19d3661","getRecordIdForHash(bytes32)":"84debbf1","getRecordSubjects(bytes32)":"bf520465","getRecordVersionHistory(bytes32)":"e76ba193","getSubjectMedicalHistory(bytes32)":"c7695bab","getSubjectStats(bytes32)":"28837450","getTotalAnchoredRecords()":"d46e082f","getUnacceptedFlag(bytes32,bytes32)":"3fa8ea81","getUnacceptedFlags(bytes32)":"be4f9077","getUserDispute(bytes32,bytes32)":"42442226","getUserDisputes(bytes32)":"d08c800d","getUserVerification(bytes32,bytes32)":"045524a2","getUserVerifications(bytes32)":"e08f1ac3","getVerificationStats(bytes32)":"1166c389","getVerifications(bytes32)":"fcdd5261","getVersionCount(bytes32)":"de4920f4","hasActiveUnacceptedFlags(bytes32)":"5d28a342","hasUserDisputed(bytes32,bytes32)":"7628262e","hasUserVerified(bytes32,bytes32)":"e1628f0b","initialize(address)":"c4d66de8","isActiveSubject(bytes32,bytes32)":"64f639d4","isHashActive(bytes32)":"40ec2e9a","isSubject(bytes32,bytes32)":"d6989f09","isSubjectActive(bytes32,bytes32)":"a208f96c","isSubjectOfRecord(bytes32,bytes32)":"08d86517","memberRoleManager()":"15370703","modifyDispute(bytes32,uint8,uint8)":"056c925f","modifyVerificationLevel(bytes32,uint8)":"86fe96e1","proxiableUUID()":"52d1902d","reanchorRecord(bytes32,bytes32)":"9e3432c1","recordIdForHash(bytes32)":"5211e3b6","recordSubjects(bytes32,uint256)":"aca5964f","recordVersionHistory(bytes32,uint256)":"9afd307c","retractDispute(bytes32)":"d9e551fc","retractRecordHash(bytes32,bytes32)":"5a3ba1fa","retractVerification(bytes32)":"438b17cf","revokeUnacceptedFlag(bytes32,bytes32)":"6e95a051","setMemberRoleManager(address)":"dd0bc082","subjectMedicalHistory(bytes32,uint256)":"b27bb4d5","totalAnchoredRecords()":"1cf8cbe8","totalDisputes()":"c5e4ccc4","totalUnacceptedFlags()":"ac924336","totalVerifications()":"ac90c140","transferAdmin(address)":"75829def","unacceptedFlagIndex(bytes32,bytes32)":"8a7f882c","unacceptedFlagsBySubject(bytes32,uint256)":"f536eb2b","unanchorRecord(bytes32,bytes32)":"42deec25","upgradeToAndCall(address,bytes)":"4f1ef286","verificationIndex(bytes32,bytes32)":"741bfc1d","verifications(bytes32,uint256)":"d1e94e57","verificationsByUser(bytes32,uint256)":"b5e6b7a2","verifyRecord(bytes32,bytes32,uint8)":"7b470f6a"}},"storageLayout":{"storage":[{"astId":1544,"contract":"smartContracts/HealthRecordCore.sol:HealthRecordCore","label":"memberRoleManager","offset":0,"slot":"0","type":"t_contract(MemberRoleManagerInterface)1536"},{"astId":1546,"contract":"smartContracts/HealthRecordCore.sol:HealthRecordCore","label":"admin","offset":0,"slot":"1","type":"t_address"},{"astId":1844,"contract":"smartContracts/HealthRecordCore.sol:HealthRecordCore","label":"recordSubjects","offset":0,"slot":"2","type":"t_mapping(t_bytes32,t_array(t_bytes32)dyn_storage)"},{"astId":1850,"contract":"smartContracts/HealthRecordCore.sol:HealthRecordCore","label":"isSubjectOfRecord","offset":0,"slot":"3","type":"t_mapping(t_bytes32,t_mapping(t_bytes32,t_bool))"},{"astId":1855,"contract":"smartContracts/HealthRecordCore.sol:HealthRecordCore","label":"subjectMedicalHistory","offset":0,"slot":"4","type":"t_mapping(t_bytes32,t_array(t_bytes32)dyn_storage)"},{"astId":1861,"contract":"smartContracts/HealthRecordCore.sol:HealthRecordCore","label":"isSubjectActive","offset":0,"slot":"5","type":"t_mapping(t_bytes32,t_mapping(t_bytes32,t_bool))"},{"astId":1865,"contract":"smartContracts/HealthRecordCore.sol:HealthRecordCore","label":"recordIdForHash","offset":0,"slot":"6","type":"t_mapping(t_bytes32,t_bytes32)"},{"astId":1870,"contract":"smartContracts/HealthRecordCore.sol:HealthRecordCore","label":"recordVersionHistory","offset":0,"slot":"7","type":"t_mapping(t_bytes32,t_array(t_bytes32)dyn_storage)"},{"astId":1874,"contract":"smartContracts/HealthRecordCore.sol:HealthRecordCore","label":"isHashActive","offset":0,"slot":"8","type":"t_mapping(t_bytes32,t_bool)"},{"astId":1876,"contract":"smartContracts/HealthRecordCore.sol:HealthRecordCore","label":"totalAnchoredRecords","offset":0,"slot":"9","type":"t_uint256"},{"astId":2751,"contract":"smartContracts/HealthRecordCore.sol:HealthRecordCore","label":"verifications","offset":0,"slot":"10","type":"t_mapping(t_bytes32,t_array(t_struct(Verification)2717_storage)dyn_storage)"},{"astId":2757,"contract":"smartContracts/HealthRecordCore.sol:HealthRecordCore","label":"currentlyVerified","offset":0,"slot":"11","type":"t_mapping(t_bytes32,t_mapping(t_bytes32,t_bool))"},{"astId":2763,"contract":"smartContracts/HealthRecordCore.sol:HealthRecordCore","label":"verificationIndex","offset":0,"slot":"12","type":"t_mapping(t_bytes32,t_mapping(t_bytes32,t_uint256))"},{"astId":2769,"contract":"smartContracts/HealthRecordCore.sol:HealthRecordCore","label":"disputes","offset":0,"slot":"13","type":"t_mapping(t_bytes32,t_array(t_struct(Dispute)2734_storage)dyn_storage)"},{"astId":2775,"contract":"smartContracts/HealthRecordCore.sol:HealthRecordCore","label":"currentlyDisputed","offset":0,"slot":"14","type":"t_mapping(t_bytes32,t_mapping(t_bytes32,t_bool))"},{"astId":2781,"contract":"smartContracts/HealthRecordCore.sol:HealthRecordCore","label":"disputeIndex","offset":0,"slot":"15","type":"t_mapping(t_bytes32,t_mapping(t_bytes32,t_uint256))"},{"astId":2787,"contract":"smartContracts/HealthRecordCore.sol:HealthRecordCore","label":"unacceptedFlagsBySubject","offset":0,"slot":"16","type":"t_mapping(t_bytes32,t_array(t_struct(UnacceptedFlag)2745_storage)dyn_storage)"},{"astId":2793,"contract":"smartContracts/HealthRecordCore.sol:HealthRecordCore","label":"unacceptedFlagIndex","offset":0,"slot":"17","type":"t_mapping(t_bytes32,t_mapping(t_bytes32,t_uint256))"},{"astId":2797,"contract":"smartContracts/HealthRecordCore.sol:HealthRecordCore","label":"activeUnacceptedFlagCount","offset":0,"slot":"18","type":"t_mapping(t_bytes32,t_uint256)"},{"astId":2802,"contract":"smartContracts/HealthRecordCore.sol:HealthRecordCore","label":"verificationsByUser","offset":0,"slot":"19","type":"t_mapping(t_bytes32,t_array(t_bytes32)dyn_storage)"},{"astId":2807,"contract":"smartContracts/HealthRecordCore.sol:HealthRecordCore","label":"disputesByUser","offset":0,"slot":"20","type":"t_mapping(t_bytes32,t_array(t_bytes32)dyn_storage)"},{"astId":2809,"contract":"smartContracts/HealthRecordCore.sol:HealthRecordCore","label":"totalVerifications","offset":0,"slot":"21","type":"t_uint256"},{"astId":2811,"contract":"smartContracts/HealthRecordCore.sol:HealthRecordCore","label":"totalDisputes","offset":0,"slot":"22","type":"t_uint256"},{"astId":2813,"contract":"smartContracts/HealthRecordCore.sol:HealthRecordCore","label":"totalUnacceptedFlags","offset":0,"slot":"23","type":"t_uint256"},{"astId":4114,"contract":"smartContracts/HealthRecordCore.sol:HealthRecordCore","label":"__gap","offset":0,"slot":"24","type":"t_array(t_uint256)50_storage"}],"types":{"t_address":{"encoding":"inplace","label":"address","numberOfBytes":"20"},"t_array(t_bytes32)dyn_storage":{"base":"t_bytes32","encoding":"dynamic_array","label":"bytes32[]","numberOfBytes":"32"},"t_array(t_struct(Dispute)2734_storage)dyn_storage":{"base":"t_struct(Dispute)2734_storage","encoding":"dynamic_array","label":"struct HealthRecordCore.Dispute[]","numberOfBytes":"32"},"t_array(t_struct(UnacceptedFlag)2745_storage)dyn_storage":{"base":"t_struct(UnacceptedFlag)2745_storage","encoding":"dynamic_array","label":"struct HealthRecordCore.UnacceptedFlag[]","numberOfBytes":"32"},"t_array(t_struct(Verification)2717_storage)dyn_storage":{"base":"t_struct(Verification)2717_storage","encoding":"dynamic_array","label":"struct HealthRecordCore.Verification[]","numberOfBytes":"32"},"t_array(t_uint256)50_storage":{"base":"t_uint256","encoding":"inplace","label":"uint256[50]","numberOfBytes":"1600"},"t_bool":{"encoding":"inplace","label":"bool","numberOfBytes":"1"},"t_bytes32":{"encoding":"inplace","label":"bytes32","numberOfBytes":"32"},"t_contract(MemberRoleManagerInterface)1536":{"encoding":"inplace","label":"contract MemberRoleManagerInterface","numberOfBytes":"20"},"t_enum(DisputeCulpability)2705":{"encoding":"inplace","label":"enum HealthRecordCore.DisputeCulpability","numberOfBytes":"1"},"t_enum(DisputeSeverity)2698":{"encoding":"inplace","label":"enum HealthRecordCore.DisputeSeverity","numberOfBytes":"1"},"t_enum(VerificationLevel)2693":{"encoding":"inplace","label":"enum HealthRecordCore.VerificationLevel","numberOfBytes":"1"},"t_mapping(t_bytes32,t_array(t_bytes32)dyn_storage)":{"encoding":"mapping","key":"t_bytes32","label":"mapping(bytes32 => bytes32[])","numberOfBytes":"32","value":"t_array(t_bytes32)dyn_storage"},"t_mapping(t_bytes32,t_array(t_struct(Dispute)2734_storage)dyn_storage)":{"encoding":"mapping","key":"t_bytes32","label":"mapping(bytes32 => struct HealthRecordCore.Dispute[])","numberOfBytes":"32","value":"t_array(t_struct(Dispute)2734_storage)dyn_storage"},"t_mapping(t_bytes32,t_array(t_struct(UnacceptedFlag)2745_storage)dyn_storage)":{"encoding":"mapping","key":"t_bytes32","label":"mapping(bytes32 => struct HealthRecordCore.UnacceptedFlag[])","numberOfBytes":"32","value":"t_array(t_struct(UnacceptedFlag)2745_storage)dyn_storage"},"t_mapping(t_bytes32,t_array(t_struct(Verification)2717_storage)dyn_storage)":{"encoding":"mapping","key":"t_bytes32","label":"mapping(bytes32 => struct HealthRecordCore.Verification[])","numberOfBytes":"32","value":"t_array(t_struct(Verification)2717_storage)dyn_storage"},"t_mapping(t_bytes32,t_bool)":{"encoding":"mapping","key":"t_bytes32","label":"mapping(bytes32 => bool)","numberOfBytes":"32","value":"t_bool"},"t_mapping(t_bytes32,t_bytes32)":{"encoding":"mapping","key":"t_bytes32","label":"mapping(bytes32 => bytes32)","numberOfBytes":"32","value":"t_bytes32"},"t_mapping(t_bytes32,t_mapping(t_bytes32,t_bool))":{"encoding":"mapping","key":"t_bytes32","label":"mapping(bytes32 => mapping(bytes32 => bool))","numberOfBytes":"32","value":"t_mapping(t_bytes32,t_bool)"},"t_mapping(t_bytes32,t_mapping(t_bytes32,t_uint256))":{"encoding":"mapping","key":"t_bytes32","label":"mapping(bytes32 => mapping(bytes32 => uint256))","numberOfBytes":"32","value":"t_mapping(t_bytes32,t_uint256)"},"t_mapping(t_bytes32,t_uint256)":{"encoding":"mapping","key":"t_bytes32","label":"mapping(bytes32 => uint256)","numberOfBytes":"32","value":"t_uint256"},"t_string_storage":{"encoding":"bytes","label":"string","numberOfBytes":"32"},"t_struct(Dispute)2734_storage":{"encoding":"inplace","label":"struct HealthRecordCore.Dispute","members":[{"astId":2719,"contract":"smartContracts/HealthRecordCore.sol:HealthRecordCore","label":"disputerIdHash","offset":0,"slot":"0","type":"t_bytes32"},{"astId":2721,"contract":"smartContracts/HealthRecordCore.sol:HealthRecordCore","label":"recordIdHash","offset":0,"slot":"1","type":"t_bytes32"},{"astId":2724,"contract":"smartContracts/HealthRecordCore.sol:HealthRecordCore","label":"severity","offset":0,"slot":"2","type":"t_enum(DisputeSeverity)2698"},{"astId":2727,"contract":"smartContracts/HealthRecordCore.sol:HealthRecordCore","label":"culpability","offset":1,"slot":"2","type":"t_enum(DisputeCulpability)2705"},{"astId":2729,"contract":"smartContracts/HealthRecordCore.sol:HealthRecordCore","label":"notes","offset":0,"slot":"3","type":"t_string_storage"},{"astId":2731,"contract":"smartContracts/HealthRecordCore.sol:HealthRecordCore","label":"createdAt","offset":0,"slot":"4","type":"t_uint256"},{"astId":2733,"contract":"smartContracts/HealthRecordCore.sol:HealthRecordCore","label":"isActive","offset":0,"slot":"5","type":"t_bool"}],"numberOfBytes":"192"},"t_struct(UnacceptedFlag)2745_storage":{"encoding":"inplace","label":"struct HealthRecordCore.UnacceptedFlag","members":[{"astId":2736,"contract":"smartContracts/HealthRecordCore.sol:HealthRecordCore","label":"recordIdHash","offset":0,"slot":"0","type":"t_bytes32"},{"astId":2738,"contract":"smartContracts/HealthRecordCore.sol:HealthRecordCore","label":"reporterIdHash","offset":0,"slot":"1","type":"t_bytes32"},{"astId":2740,"contract":"smartContracts/HealthRecordCore.sol:HealthRecordCore","label":"recordHash","offset":0,"slot":"2","type":"t_bytes32"},{"astId":2742,"contract":"smartContracts/HealthRecordCore.sol:HealthRecordCore","label":"createdAt","offset":0,"slot":"3","type":"t_uint256"},{"astId":2744,"contract":"smartContracts/HealthRecordCore.sol:HealthRecordCore","label":"isActive","offset":0,"slot":"4","type":"t_bool"}],"numberOfBytes":"160"},"t_struct(Verification)2717_storage":{"encoding":"inplace","label":"struct HealthRecordCore.Verification","members":[{"astId":2707,"contract":"smartContracts/HealthRecordCore.sol:HealthRecordCore","label":"verifierIdHash","offset":0,"slot":"0","type":"t_bytes32"},{"astId":2709,"contract":"smartContracts/HealthRecordCore.sol:HealthRecordCore","label":"recordIdHash","offset":0,"slot":"1","type":"t_bytes32"},{"astId":2712,"contract":"smartContracts/HealthRecordCore.sol:HealthRecordCore","label":"level","offset":0,"slot":"2","type":"t_enum(VerificationLevel)2693"},{"astId":2714,"contract":"smartContracts/HealthRecordCore.sol:HealthRecordCore","label":"createdAt","offset":0,"slot":"3","type":"t_uint256"},{"astId":2716,"contract":"smartContracts/HealthRecordCore.sol:HealthRecordCore","label":"isActive","offset":0,"slot":"4","type":"t_bool"}],"numberOfBytes":"160"},"t_uint256":{"encoding":"inplace","label":"uint256","numberOfBytes":"32"}}}}}}