{"smartContracts/MemberRoleManager.sol":{"MemberRoleManager":{"abi":[{"inputs":[],"stateMutability":"nonpayable","type":"constructor"},{"inputs":[{"internalType":"address","name":"target","type":"address"}],"name":"AddressEmptyCode","type":"error"},{"inputs":[{"internalType":"address","name":"implementation","type":"address"}],"name":"ERC1967InvalidImplementation","type":"error"},{"inputs":[],"name":"ERC1967NonPayable","type":"error"},{"inputs":[],"name":"FailedCall","type":"error"},{"inputs":[],"name":"InvalidInitialization","type":"error"},{"inputs":[],"name":"NotInitializing","type":"error"},{"inputs":[],"name":"UUPSUnauthorizedCallContext","type":"error"},{"inputs":[{"internalType":"bytes32","name":"slot","type":"bytes32"}],"name":"UUPSUnsupportedProxiableUUID","type":"error"},{"anonymous":false,"inputs":[{"indexed":true,"internalType":"address","name":"oldAdmin","type":"address"},{"indexed":true,"internalType":"address","name":"newAdmin","type":"address"},{"indexed":false,"internalType":"uint256","name":"timestamp","type":"uint256"}],"name":"AdminTransferred","type":"event"},{"anonymous":false,"inputs":[{"indexed":true,"internalType":"bytes32","name":"recordIdHash","type":"bytes32"},{"indexed":true,"internalType":"bytes32","name":"grantedByIdHash","type":"bytes32"},{"indexed":true,"internalType":"bytes32","name":"guestIdHash","type":"bytes32"},{"indexed":false,"internalType":"bytes32","name":"guestEmailHash","type":"bytes32"},{"indexed":false,"internalType":"uint256","name":"expiresAt","type":"uint256"},{"indexed":false,"internalType":"uint256","name":"timestamp","type":"uint256"}],"name":"GuestAccessGranted","type":"event"},{"anonymous":false,"inputs":[{"indexed":true,"internalType":"bytes32","name":"recordIdHash","type":"bytes32"},{"indexed":true,"internalType":"bytes32","name":"revokedByIdHash","type":"bytes32"},{"indexed":true,"internalType":"bytes32","name":"guestIdHash","type":"bytes32"},{"indexed":false,"internalType":"uint256","name":"timestamp","type":"uint256"}],"name":"GuestAccessRevoked","type":"event"},{"anonymous":false,"inputs":[{"indexed":true,"internalType":"address","name":"newAddress","type":"address"},{"indexed":false,"internalType":"uint256","name":"timestamp","type":"uint256"}],"name":"HealthRecordCoreUpdated","type":"event"},{"anonymous":false,"inputs":[{"indexed":false,"internalType":"uint64","name":"version","type":"uint64"}],"name":"Initialized","type":"event"},{"anonymous":false,"inputs":[{"indexed":true,"internalType":"address","name":"wallet","type":"address"},{"indexed":true,"internalType":"bytes32","name":"userIdHash","type":"bytes32"},{"indexed":false,"internalType":"uint256","name":"timestamp","type":"uint256"}],"name":"MemberRegistered","type":"event"},{"anonymous":false,"inputs":[{"indexed":true,"internalType":"bytes32","name":"userIdHash","type":"bytes32"},{"indexed":false,"internalType":"enum MemberRoleManager.MemberStatus","name":"oldStatus","type":"uint8"},{"indexed":false,"internalType":"enum MemberRoleManager.MemberStatus","name":"newStatus","type":"uint8"},{"indexed":true,"internalType":"address","name":"changedBy","type":"address"},{"indexed":false,"internalType":"uint256","name":"timestamp","type":"uint256"}],"name":"MemberStatusChanged","type":"event"},{"anonymous":false,"inputs":[{"indexed":true,"internalType":"bytes32","name":"recordIdHash","type":"bytes32"},{"indexed":true,"internalType":"bytes32","name":"userIdHash","type":"bytes32"},{"indexed":false,"internalType":"uint256","name":"timestamp","type":"uint256"}],"name":"OwnershipVoluntarilyLeft","type":"event"},{"anonymous":false,"inputs":[{"indexed":true,"internalType":"bytes32","name":"recordIdHash","type":"bytes32"},{"indexed":true,"internalType":"bytes32","name":"targetIdHash","type":"bytes32"},{"indexed":false,"internalType":"string","name":"oldRole","type":"string"},{"indexed":false,"internalType":"string","name":"newRole","type":"string"},{"indexed":true,"internalType":"bytes32","name":"userIdHash","type":"bytes32"},{"indexed":false,"internalType":"uint256","name":"timestamp","type":"uint256"}],"name":"RoleChanged","type":"event"},{"anonymous":false,"inputs":[{"indexed":true,"internalType":"bytes32","name":"recordIdHash","type":"bytes32"},{"indexed":true,"internalType":"bytes32","name":"targetIdHash","type":"bytes32"},{"indexed":false,"internalType":"string","name":"role","type":"string"},{"indexed":true,"internalType":"bytes32","name":"userIdHash","type":"bytes32"},{"indexed":false,"internalType":"uint256","name":"timestamp","type":"uint256"}],"name":"RoleGranted","type":"event"},{"anonymous":false,"inputs":[{"indexed":true,"internalType":"bytes32","name":"recordIdHash","type":"bytes32"},{"indexed":true,"internalType":"bytes32","name":"targetIdHash","type":"bytes32"},{"indexed":false,"internalType":"string","name":"role","type":"string"},{"indexed":true,"internalType":"bytes32","name":"userIdHash","type":"bytes32"},{"indexed":false,"internalType":"uint256","name":"timestamp","type":"uint256"}],"name":"RoleRevoked","type":"event"},{"anonymous":false,"inputs":[{"indexed":true,"internalType":"bytes32","name":"trustorIdHash","type":"bytes32"},{"indexed":true,"internalType":"bytes32","name":"trusteeIdHash","type":"bytes32"},{"indexed":false,"internalType":"enum MemberRoleManager.TrusteeLevel","name":"level","type":"uint8"},{"indexed":false,"internalType":"uint256","name":"timestamp","type":"uint256"}],"name":"TrusteeAccepted","type":"event"},{"anonymous":false,"inputs":[{"indexed":true,"internalType":"bytes32","name":"trustorIdHash","type":"bytes32"},{"indexed":true,"internalType":"bytes32","name":"trusteeIdHash","type":"bytes32"},{"indexed":false,"internalType":"enum MemberRoleManager.TrusteeLevel","name":"oldLevel","type":"uint8"},{"indexed":false,"internalType":"enum MemberRoleManager.TrusteeLevel","name":"newLevel","type":"uint8"},{"indexed":false,"internalType":"uint256","name":"timestamp","type":"uint256"}],"name":"TrusteeLevelUpdated","type":"event"},{"anonymous":false,"inputs":[{"indexed":true,"internalType":"bytes32","name":"trustorIdHash","type":"bytes32"},{"indexed":true,"internalType":"bytes32","name":"trusteeIdHash","type":"bytes32"},{"indexed":false,"internalType":"enum MemberRoleManager.TrusteeLevel","name":"level","type":"uint8"},{"indexed":false,"internalType":"uint256","name":"timestamp","type":"uint256"}],"name":"TrusteeProposed","type":"event"},{"anonymous":false,"inputs":[{"indexed":true,"internalType":"bytes32","name":"trustorIdHash","type":"bytes32"},{"indexed":true,"internalType":"bytes32","name":"trusteeIdHash","type":"bytes32"},{"indexed":true,"internalType":"bytes32","name":"revokedBy","type":"bytes32"},{"indexed":false,"internalType":"uint256","name":"timestamp","type":"uint256"}],"name":"TrusteeRevoked","type":"event"},{"anonymous":false,"inputs":[{"indexed":true,"internalType":"address","name":"implementation","type":"address"}],"name":"Upgraded","type":"event"},{"anonymous":false,"inputs":[{"indexed":true,"internalType":"address","name":"wallet","type":"address"},{"indexed":true,"internalType":"bytes32","name":"userIdHash","type":"bytes32"},{"indexed":false,"internalType":"uint256","name":"timestamp","type":"uint256"}],"name":"WalletLinked","type":"event"},{"inputs":[],"name":"UPGRADE_INTERFACE_VERSION","outputs":[{"internalType":"string","name":"","type":"string"}],"stateMutability":"view","type":"function"},{"inputs":[{"internalType":"bytes32","name":"trustorIdHash","type":"bytes32"}],"name":"acceptTrustee","outputs":[],"stateMutability":"nonpayable","type":"function"},{"inputs":[{"internalType":"address","name":"wallet","type":"address"},{"internalType":"bytes32","name":"userIdHash","type":"bytes32"}],"name":"addMember","outputs":[],"stateMutability":"nonpayable","type":"function"},{"inputs":[{"internalType":"address[]","name":"walletAddresses","type":"address[]"},{"internalType":"bytes32","name":"userIdHash","type":"bytes32"}],"name":"addMemberBatch","outputs":[],"stateMutability":"nonpayable","type":"function"},{"inputs":[],"name":"admin","outputs":[{"internalType":"address","name":"","type":"address"}],"stateMutability":"view","type":"function"},{"inputs":[{"internalType":"bytes32","name":"","type":"bytes32"},{"internalType":"uint256","name":"","type":"uint256"}],"name":"adminsByRecord","outputs":[{"internalType":"bytes32","name":"","type":"bytes32"}],"stateMutability":"view","type":"function"},{"inputs":[{"internalType":"bytes32","name":"trustorIdHash","type":"bytes32"},{"internalType":"bytes32","name":"trusteeIdHash","type":"bytes32"}],"name":"bootstrapDependentTrustee","outputs":[],"stateMutability":"nonpayable","type":"function"},{"inputs":[{"internalType":"bytes32","name":"recordIdHash","type":"bytes32"},{"internalType":"address","name":"targetWallet","type":"address"},{"internalType":"string","name":"newRole","type":"string"}],"name":"changeRole","outputs":[],"stateMutability":"nonpayable","type":"function"},{"inputs":[{"internalType":"bytes32[]","name":"recordIdHashes","type":"bytes32[]"},{"internalType":"address","name":"targetWallet","type":"address"},{"internalType":"string[]","name":"newRoles","type":"string[]"}],"name":"changeRoleBatch","outputs":[],"stateMutability":"nonpayable","type":"function"},{"inputs":[{"internalType":"address","name":"wallet","type":"address"}],"name":"deactivateWallet","outputs":[],"stateMutability":"nonpayable","type":"function"},{"inputs":[{"internalType":"bytes32","name":"trustorIdHash","type":"bytes32"},{"internalType":"enum MemberRoleManager.TrusteeLevel","name":"newLevel","type":"uint8"}],"name":"downgradeTrusteeLevel","outputs":[],"stateMutability":"nonpayable","type":"function"},{"inputs":[],"name":"getAllUsers","outputs":[{"internalType":"bytes32[]","name":"","type":"bytes32[]"}],"stateMutability":"view","type":"function"},{"inputs":[{"internalType":"bytes32","name":"recordIdHash","type":"bytes32"},{"internalType":"bytes32","name":"guestIdHash","type":"bytes32"}],"name":"getGuestAccess","outputs":[{"internalType":"uint256","name":"grantedAt","type":"uint256"},{"internalType":"uint256","name":"expiresAt","type":"uint256"},{"internalType":"bytes32","name":"grantedByIdHash","type":"bytes32"},{"internalType":"bytes32","name":"guestEmailHash","type":"bytes32"}],"stateMutability":"view","type":"function"},{"inputs":[],"name":"getHealthRecordCore","outputs":[{"internalType":"address","name":"","type":"address"}],"stateMutability":"view","type":"function"},{"inputs":[{"internalType":"bytes32","name":"recordIdHash","type":"bytes32"}],"name":"getRecordAdmins","outputs":[{"internalType":"bytes32[]","name":"","type":"bytes32[]"}],"stateMutability":"view","type":"function"},{"inputs":[{"internalType":"bytes32","name":"recordIdHash","type":"bytes32"}],"name":"getRecordOwners","outputs":[{"internalType":"bytes32[]","name":"","type":"bytes32[]"}],"stateMutability":"view","type":"function"},{"inputs":[{"internalType":"bytes32","name":"recordIdHash","type":"bytes32"}],"name":"getRecordRoleStats","outputs":[{"internalType":"uint256","name":"ownerCount","type":"uint256"},{"internalType":"uint256","name":"adminCount","type":"uint256"},{"internalType":"uint256","name":"sharerCount","type":"uint256"},{"internalType":"uint256","name":"viewerCount","type":"uint256"}],"stateMutability":"view","type":"function"},{"inputs":[{"internalType":"bytes32","name":"recordIdHash","type":"bytes32"}],"name":"getRecordSharers","outputs":[{"internalType":"bytes32[]","name":"","type":"bytes32[]"}],"stateMutability":"view","type":"function"},{"inputs":[{"internalType":"bytes32","name":"recordIdHash","type":"bytes32"}],"name":"getRecordViewers","outputs":[{"internalType":"bytes32[]","name":"","type":"bytes32[]"}],"stateMutability":"view","type":"function"},{"inputs":[{"internalType":"bytes32","name":"userIdHash","type":"bytes32"}],"name":"getRecordsByUser","outputs":[{"internalType":"bytes32[]","name":"","type":"bytes32[]"}],"stateMutability":"view","type":"function"},{"inputs":[{"internalType":"bytes32","name":"recordIdHash","type":"bytes32"},{"internalType":"address","name":"wallet","type":"address"}],"name":"getRoleDetails","outputs":[{"internalType":"string","name":"role","type":"string"},{"internalType":"bool","name":"isActive","type":"bool"}],"stateMutability":"view","type":"function"},{"inputs":[{"internalType":"bytes32","name":"recordIdHash","type":"bytes32"},{"internalType":"bytes32","name":"userIdHash","type":"bytes32"}],"name":"getRoleDetailsByUser","outputs":[{"internalType":"string","name":"role","type":"string"},{"internalType":"bool","name":"isActive","type":"bool"}],"stateMutability":"view","type":"function"},{"inputs":[{"internalType":"bytes32","name":"recordIdHash","type":"bytes32"},{"internalType":"bytes32","name":"userIdHash","type":"bytes32"}],"name":"getRoleGranter","outputs":[{"internalType":"bytes32","name":"","type":"bytes32"}],"stateMutability":"view","type":"function"},{"inputs":[],"name":"getTotalRoles","outputs":[{"internalType":"uint256","name":"","type":"uint256"}],"stateMutability":"view","type":"function"},{"inputs":[],"name":"getTotalUsers","outputs":[{"internalType":"uint256","name":"","type":"uint256"}],"stateMutability":"view","type":"function"},{"inputs":[{"internalType":"bytes32","name":"trustorIdHash","type":"bytes32"},{"internalType":"bytes32","name":"trusteeIdHash","type":"bytes32"}],"name":"getTrusteeGrantedRecords","outputs":[{"internalType":"bytes32[]","name":"","type":"bytes32[]"}],"stateMutability":"view","type":"function"},{"inputs":[{"internalType":"bytes32","name":"trustorIdHash","type":"bytes32"},{"internalType":"bytes32","name":"trusteeIdHash","type":"bytes32"}],"name":"getTrusteeRelationship","outputs":[{"internalType":"enum MemberRoleManager.TrusteeStatus","name":"status","type":"uint8"},{"internalType":"enum MemberRoleManager.TrusteeLevel","name":"level","type":"uint8"}],"stateMutability":"view","type":"function"},{"inputs":[{"internalType":"address","name":"wallet","type":"address"}],"name":"getUserForWallet","outputs":[{"internalType":"bytes32","name":"","type":"bytes32"}],"stateMutability":"view","type":"function"},{"inputs":[{"internalType":"bytes32","name":"userIdHash","type":"bytes32"}],"name":"getUserStatus","outputs":[{"internalType":"enum MemberRoleManager.MemberStatus","name":"status","type":"uint8"}],"stateMutability":"view","type":"function"},{"inputs":[{"internalType":"bytes32","name":"userIdHash","type":"bytes32"}],"name":"getWalletsForUser","outputs":[{"internalType":"address[]","name":"","type":"address[]"}],"stateMutability":"view","type":"function"},{"inputs":[{"internalType":"bytes32[]","name":"recordIdHashes","type":"bytes32[]"},{"internalType":"address","name":"guestWallet","type":"address"},{"internalType":"bytes32","name":"guestIdHash","type":"bytes32"},{"internalType":"bytes32","name":"guestEmailHash","type":"bytes32"},{"internalType":"uint256","name":"durationSeconds","type":"uint256"}],"name":"grantGuestAccess","outputs":[],"stateMutability":"nonpayable","type":"function"},{"inputs":[{"internalType":"bytes32","name":"recordIdHash","type":"bytes32"},{"internalType":"address","name":"targetWallet","type":"address"},{"internalType":"string","name":"role","type":"string"}],"name":"grantRole","outputs":[],"stateMutability":"nonpayable","type":"function"},{"inputs":[{"internalType":"bytes32[]","name":"recordIdHashes","type":"bytes32[]"},{"internalType":"bytes32","name":"trustorIdHash","type":"bytes32"}],"name":"grantRoleAsTrusteeBatch","outputs":[],"stateMutability":"nonpayable","type":"function"},{"inputs":[{"internalType":"bytes32[]","name":"recordIdHashes","type":"bytes32[]"},{"internalType":"address","name":"targetWallet","type":"address"},{"internalType":"string[]","name":"roles","type":"string[]"}],"name":"grantRoleBatch","outputs":[],"stateMutability":"nonpayable","type":"function"},{"inputs":[{"internalType":"bytes32","name":"","type":"bytes32"},{"internalType":"bytes32","name":"","type":"bytes32"}],"name":"guestAccessByRecord","outputs":[{"internalType":"uint256","name":"grantedAt","type":"uint256"},{"internalType":"uint256","name":"expiresAt","type":"uint256"},{"internalType":"bytes32","name":"grantedByIdHash","type":"bytes32"},{"internalType":"bytes32","name":"guestEmailHash","type":"bytes32"}],"stateMutability":"view","type":"function"},{"inputs":[{"internalType":"bytes32","name":"recordIdHash","type":"bytes32"},{"internalType":"bytes32","name":"guestIdHash","type":"bytes32"}],"name":"hasActiveGuestAccess","outputs":[{"internalType":"bool","name":"","type":"bool"}],"stateMutability":"view","type":"function"},{"inputs":[{"internalType":"bytes32","name":"recordIdHash","type":"bytes32"},{"internalType":"address","name":"wallet","type":"address"}],"name":"hasActiveRole","outputs":[{"internalType":"bool","name":"","type":"bool"}],"stateMutability":"view","type":"function"},{"inputs":[{"internalType":"bytes32","name":"recordIdHash","type":"bytes32"},{"internalType":"address","name":"wallet","type":"address"},{"internalType":"string","name":"role","type":"string"}],"name":"hasRole","outputs":[{"internalType":"bool","name":"","type":"bool"}],"stateMutability":"view","type":"function"},{"inputs":[],"name":"healthRecordCore","outputs":[{"internalType":"contract HealthRecordCoreInterface","name":"","type":"address"}],"stateMutability":"view","type":"function"},{"inputs":[],"name":"initialize","outputs":[],"stateMutability":"nonpayable","type":"function"},{"inputs":[{"internalType":"bytes32","name":"recordIdHash","type":"bytes32"},{"internalType":"address","name":"targetWallet","type":"address"},{"internalType":"string","name":"role","type":"string"}],"name":"initializeRecordRole","outputs":[],"stateMutability":"nonpayable","type":"function"},{"inputs":[{"internalType":"address","name":"wallet","type":"address"}],"name":"isActiveMember","outputs":[{"internalType":"bool","name":"","type":"bool"}],"stateMutability":"view","type":"function"},{"inputs":[{"internalType":"bytes32","name":"recordIdHash","type":"bytes32"},{"internalType":"bytes32","name":"userIdHash","type":"bytes32"}],"name":"isActiveSubject","outputs":[{"internalType":"bool","name":"","type":"bool"}],"stateMutability":"view","type":"function"},{"inputs":[{"internalType":"bytes32","name":"trustorIdHash","type":"bytes32"},{"internalType":"bytes32","name":"trusteeIdHash","type":"bytes32"}],"name":"isControllerOf","outputs":[{"internalType":"bool","name":"","type":"bool"}],"stateMutability":"view","type":"function"},{"inputs":[{"internalType":"bytes32","name":"recordIdHash","type":"bytes32"},{"internalType":"address","name":"wallet","type":"address"}],"name":"isOwnerOrAdmin","outputs":[{"internalType":"bool","name":"","type":"bool"}],"stateMutability":"view","type":"function"},{"inputs":[{"internalType":"address","name":"wallet","type":"address"}],"name":"isVerifiedMember","outputs":[{"internalType":"bool","name":"","type":"bool"}],"stateMutability":"view","type":"function"},{"inputs":[{"internalType":"address","name":"wallet","type":"address"}],"name":"isVerifiedProvider","outputs":[{"internalType":"bool","name":"","type":"bool"}],"stateMutability":"view","type":"function"},{"inputs":[{"internalType":"bytes32","name":"","type":"bytes32"},{"internalType":"uint256","name":"","type":"uint256"}],"name":"ownersByRecord","outputs":[{"internalType":"bytes32","name":"","type":"bytes32"}],"stateMutability":"view","type":"function"},{"inputs":[{"internalType":"bytes32","name":"trusteeIdHash","type":"bytes32"},{"internalType":"enum MemberRoleManager.TrusteeLevel","name":"level","type":"uint8"}],"name":"proposeTrustee","outputs":[],"stateMutability":"nonpayable","type":"function"},{"inputs":[],"name":"proxiableUUID","outputs":[{"internalType":"bytes32","name":"","type":"bytes32"}],"stateMutability":"view","type":"function"},{"inputs":[{"internalType":"address","name":"wallet","type":"address"}],"name":"reactivateWallet","outputs":[],"stateMutability":"nonpayable","type":"function"},{"inputs":[{"internalType":"bytes32","name":"","type":"bytes32"}],"name":"recordRoles","outputs":[{"internalType":"string","name":"role","type":"string"},{"internalType":"bool","name":"isActive","type":"bool"}],"stateMutability":"view","type":"function"},{"inputs":[{"internalType":"bytes32","name":"","type":"bytes32"},{"internalType":"uint256","name":"","type":"uint256"}],"name":"recordsByUser","outputs":[{"internalType":"bytes32","name":"","type":"bytes32"}],"stateMutability":"view","type":"function"},{"inputs":[{"internalType":"bytes32[]","name":"recordIdHashes","type":"bytes32[]"},{"internalType":"bytes32","name":"guestIdHash","type":"bytes32"}],"name":"revokeGuestAccess","outputs":[],"stateMutability":"nonpayable","type":"function"},{"inputs":[{"internalType":"bytes32","name":"recordIdHash","type":"bytes32"},{"internalType":"address","name":"targetWallet","type":"address"}],"name":"revokeRole","outputs":[],"stateMutability":"nonpayable","type":"function"},{"inputs":[{"internalType":"bytes32[]","name":"recordIdHashes","type":"bytes32[]"},{"internalType":"address","name":"targetWallet","type":"address"}],"name":"revokeRoleBatch","outputs":[],"stateMutability":"nonpayable","type":"function"},{"inputs":[{"internalType":"bytes32","name":"trustorIdHash","type":"bytes32"},{"internalType":"bytes32","name":"trusteeIdHash","type":"bytes32"}],"name":"revokeTrustee","outputs":[],"stateMutability":"nonpayable","type":"function"},{"inputs":[{"internalType":"bytes32","name":"","type":"bytes32"}],"name":"roleGrantedBy","outputs":[{"internalType":"bytes32","name":"","type":"bytes32"}],"stateMutability":"view","type":"function"},{"inputs":[{"internalType":"address","name":"_healthRecordCore","type":"address"}],"name":"setHealthRecordCore","outputs":[],"stateMutability":"nonpayable","type":"function"},{"inputs":[{"internalType":"bytes32","name":"userIdHash","type":"bytes32"},{"internalType":"enum MemberRoleManager.MemberStatus","name":"newStatus","type":"uint8"}],"name":"setUserStatus","outputs":[],"stateMutability":"nonpayable","type":"function"},{"inputs":[{"internalType":"bytes32","name":"","type":"bytes32"},{"internalType":"uint256","name":"","type":"uint256"}],"name":"sharersByRecord","outputs":[{"internalType":"bytes32","name":"","type":"bytes32"}],"stateMutability":"view","type":"function"},{"inputs":[],"name":"totalRoles","outputs":[{"internalType":"uint256","name":"","type":"uint256"}],"stateMutability":"view","type":"function"},{"inputs":[],"name":"totalUsers","outputs":[{"internalType":"uint256","name":"","type":"uint256"}],"stateMutability":"view","type":"function"},{"inputs":[{"internalType":"address","name":"newAdmin","type":"address"}],"name":"transferAdmin","outputs":[],"stateMutability":"nonpayable","type":"function"},{"inputs":[{"internalType":"bytes32","name":"","type":"bytes32"},{"internalType":"bytes32","name":"","type":"bytes32"}],"name":"trusteeRelationships","outputs":[{"internalType":"enum MemberRoleManager.TrusteeStatus","name":"status","type":"uint8"},{"internalType":"enum MemberRoleManager.TrusteeLevel","name":"level","type":"uint8"}],"stateMutability":"view","type":"function"},{"inputs":[{"internalType":"bytes32","name":"trusteeIdHash","type":"bytes32"},{"internalType":"enum MemberRoleManager.TrusteeLevel","name":"newLevel","type":"uint8"}],"name":"updateTrusteeLevel","outputs":[],"stateMutability":"nonpayable","type":"function"},{"inputs":[{"internalType":"address","name":"newImplementation","type":"address"},{"internalType":"bytes","name":"data","type":"bytes"}],"name":"upgradeToAndCall","outputs":[],"stateMutability":"payable","type":"function"},{"inputs":[{"internalType":"uint256","name":"","type":"uint256"}],"name":"userList","outputs":[{"internalType":"bytes32","name":"","type":"bytes32"}],"stateMutability":"view","type":"function"},{"inputs":[{"internalType":"bytes32","name":"","type":"bytes32"}],"name":"userStatus","outputs":[{"internalType":"enum MemberRoleManager.MemberStatus","name":"","type":"uint8"}],"stateMutability":"view","type":"function"},{"inputs":[{"internalType":"bytes32","name":"","type":"bytes32"},{"internalType":"uint256","name":"","type":"uint256"}],"name":"userWallets","outputs":[{"internalType":"address","name":"","type":"address"}],"stateMutability":"view","type":"function"},{"inputs":[{"internalType":"bytes32","name":"","type":"bytes32"},{"internalType":"uint256","name":"","type":"uint256"}],"name":"viewersByRecord","outputs":[{"internalType":"bytes32","name":"","type":"bytes32"}],"stateMutability":"view","type":"function"},{"inputs":[{"internalType":"bytes32","name":"recordIdHash","type":"bytes32"}],"name":"voluntarilyLeaveOwnership","outputs":[],"stateMutability":"nonpayable","type":"function"},{"inputs":[{"internalType":"address","name":"","type":"address"}],"name":"wallets","outputs":[{"internalType":"bytes32","name":"userIdHash","type":"bytes32"},{"internalType":"bool","name":"isWalletActive","type":"bool"}],"stateMutability":"view","type":"function"}],"evm":{"bytecode":{"linkReferences":{},"object":"60a08060405234620000d157306080527ff0c57e16840df040f15088dc2f81fe391c3923bec73e23a9662efc9c229c6a009081549060ff8260401c16620000c257506001600160401b036002600160401b0319828216016200007c575b604051615d199081620000d68239608051818181612a9f0152612edf0152f35b6001600160401b031990911681179091556040519081527fc7f505b2f371ae2175ee4913f4499e1f2633a7b5936321eed1cdaeb6115181d290602090a15f80806200005c565b63f92ee8a960e01b8152600490fd5b5f80fdfe6080604090808252600480361015610015575f80fd5b5f3560e01c918262b0c8091461465f5750816302ba81091461458b578163033e822f146145225781630519e2a0146144fc5781630591bdf4146141975781630b3ffd1d146140da5781631c0c18d814613f735781631dc6320114613df4578163259ed80e14613dcf57816329c9087a146136b75781632ab5d8f31461364e5781632ae8511d146134d15781633256e5ab1461345557816333105592146134185781633befa410146133fd57816341a51baa14613394578163422a5bb81461336057816343e197041461330e57816345ecd02f146132ee57816349df7208146131a15781634b6feb7c1461235e5781634d3c4a7c1461308c5781634f1ef28614612e8f57816351eed47214612b0357816352d1902d14612a8c578163557ee54f146129fe57816355816079146129ce578163562c788e1461064b57816364f639d4146129b35781636544b05b1461294a57816369ac20221461274c5781636b4bed97146103da578163726d5447146123fa57816375829def1461237c578163790e118c1461235e5781637b657d07146123215781638129fc1c146122045781638776cd35146121d457816389b08f111461218f5781638db7edb41461214057816393ccfba8146121105781639443cd80146120ca57816396207e0214611f795781639915b91f14611f025781639be572f6146119cd5781639f4216e814611eb6578163aaddc34514611e8a578163ab48384a14611d83578163ad3cb1cc14611d3f578163b8cab84b14611c64578163bafc889214611aa2578163bb0f86d5146119eb578163bff1f9e1146119cd578163c36dc9ef14611964578163c497d840146118f6578163c71558231461187a578163c88c35fe14611854578163c979c9bf14611584578163cb261a0314611556578163cda06c6e1461152f578163d12a776814611480578163d547741f14610faa578163dde492ea146109c5578163e211e89c14610955578163e2842d79146108d5578163e6efcd5d14610673578163e94ed2571461064b578163eec047aa146105eb578163f12b9ad31461040b578163f29e007b146103da57508063f32b10f0146103aa578063f851a440146103835763fa7a6bcc14610342575f80fd5b3461037f57610350366149b9565b91905f52600b602052805f20805483101561037f5760209261037191614b07565b91905490519160031b1c8152f35b5f80fd5b503461037f575f36600319011261037f575f5490516001600160a01b039091168152602090f35b503461037f576103b9366149b9565b91905f526009602052805f20805483101561037f5760209261037191614b07565b823461037f57602036600319011261037f57602091355f526002825261040960ff825f20541691518092614b30565bf35b823461037f578060031936011261037f5781356001600160401b03811161037f57610439903690840161475c565b916104426146a9565b61045361044e33615397565b614b7e565b6001600160a01b03169081156105b75750335f52600192839260209060018252805f2054935f52805f20549261048a841515614c05565b5f955b61049357005b80518610156105b55786866104b3866104ad849a86614dc4565b5161541f565b156105b0576104c6876104ad8386614dc4565b156105b05786866104e1816104db8588614dc4565b5161563e565b805f5260068089526104f4885f20614a07565b9182518a8401206105036150c7565b8b8151910120146105a6576105228461051c888b614dc4565b51615849565b6105a65761053b8385610535898c614dc4565b51615672565b5f52885284875f200160ff198154169055600e88525f878120557fd05ed2d3feff840c2ececa71791388fd3d19dbbbbcfa97031f534a7dc09fbf1f6105966105838689614dc4565b519289519182918b83528b830190614aa9565b428c8301520390a45b019561048d565b505050505061059f565b61059f565b005b606490602084519162461bcd60e51b8352820152600e60248201526d125b9d985b1a59081dd85b1b195d60921b6044820152fd5b823461037f576105fa366149b9565b905f526012602052815f20905f52602052805f2090610647825491600184015493600360028201549101549151948594859094939260609260808301968352602083015260408201520152565b0390f35b823461037f575f36600319011261037f57600d5490516001600160a01b039091168152602090f35b823461037f57610682366149b9565b9161069760018060a01b035f54163314614dfa565b81156108a1576106a8831515614e77565b6106b483831415614eb5565b815f526002602081815260ff835f2054166006811015610853571561086657845f5281815260ff835f2054166006811015610853576106f4901515614f01565b835f52600f8152825f20855f52815260ff835f20541686811015610853578015908115610848575b50156107f757825161072d816146bf565b828152818101838152855f52600f8352845f20875f528352845f209151888110156107e45761075c9083614f5e565b519660038810156107d157507fc5b2e1bd4433eb4e9e181cc803520513d39d918c96bddeebca1224e1c750963d94959661079591614f76565b85857f494d010fdf588a0e83d626ea6963187bdda6f88b7007f7bf280683d3f7dea8348580518681524286820152a382519182524290820152a3005b602190634e487b7160e01b5f525260245ffd5b602189634e487b7160e01b5f525260245ffd5b8560849184519162461bcd60e51b8352820152602660248201527f52656c6174696f6e7368697020616c726561647920616374697665206f722070604482015265656e64696e6760d01b6064820152fd5b60039150148761071c565b602187634e487b7160e01b5f525260245ffd5b8560649184519162461bcd60e51b83528201526016602482015275151c9d5cdd1bdc881b9bdd081c9959da5cdd195c995960521b6044820152fd5b5162461bcd60e51b8152602081850152600f60248201526e24b73b30b634b2103a393ab9ba37b960891b6044820152606490fd5b823461037f575f36600319011261037f578051908183548082526020809201945f527f8a35acfbc15ff81a39ae7d344fd709f28e8600b4aa8c65c6b64bfe7fe36bd19b915f905b82821061093e576106478686610934828b0383614724565b51918291826148ec565b83548752958601956001938401939091019061091c565b823461037f57602090610967366149b9565b905f5260128352815f20905f528252805f20908051610985816146ee565b8254908181526060600360018601549586888501526002810154868501520154910152151591826109ba575b50519015158152f35b4211159150836109b1565b90503461037f576109d536614977565b9192906109e461044e33615397565b6109ef841515614f95565b6001600160a01b031692610a04841515614fe1565b610a15610a1084615773565b61502d565b335f5260209160018352855f2054945f52855f205492610a36841515614c05565b845181860120610a46878561563e565b5f526006825260ff6001895f2001541615610f6957835f5260078252875f2054151590610a7b610a746150c7565b89876157eb565b91610a8e610a876150e8565b8a886157eb565b91610aa1610a9a615111565b8b896157eb565b90610aac8b89615849565b90610ab56150c7565b8051908801208103610bf5575050505f14610b9b575015610b59575b610adb848461563e565b5f526006815260ff6001885f20015416610afb5750506105b59450615429565b865162461bcd60e51b815291820152603360248201527f54617267657420616c726561647920686173206120726f6c652e2055736520636044820152721a185b99d9549bdb194a0a481a5b9cdd195859606a1b606482015260849150fd5b865162461bcd60e51b815291820181905260248201527f4f6e6c79206f776e6572732063616e206772616e74206f776e657220726f6c65604482015260649150fd5b9050610ad157865162461bcd60e51b815291820152602960248201527f4f6e6c792061646d696e6973747261746f72732063616e206772616e742066696044820152683939ba1037bbb732b960b91b606482015260849150fd5b90919250610c016150e8565b8051908701208103610c93575050508115610c8b575b5015610c23575b610ad1565b865162461bcd60e51b815291820152603b60248201527f4f6e6c79206f776e65727320616e642061646d696e6973747261746f7273206360448201527f616e206772616e742061646d696e6973747261746f7220726f6c650000000000606482015260849150fd5b90505f610c17565b610c9e949294615111565b8051908701208103610df7575081159182610df0575b8015610de9575b8015610de2575b15610d69578315610d61575b5082610d59575b5081610d50575b5015610ad157610cec8684615ab9565b51610c1e57865162461bcd60e51b815291820152603460248201527f4d757374206861766520616e2061637469766520726f6c6520746f206772616e6044820152737420736861726572207065726d697373696f6e7360601b606482015260849150fd5b9050155f610cdc565b91505f610cd5565b92505f610cce565b8a5162461bcd60e51b8152808701869052604760248201527f4f6e6c79206f776e6572732c2061646d696e6973747261746f72732c2073686160448201527f726572732c206f72207375626a656374732063616e206772616e742073686172606482015266657220726f6c6560c81b608482015260a490fd5b5080610cc2565b5083610cbb565b5082610cb4565b610dff614dd8565b86815191012014610e14575b50505050610ad1565b81159182610f62575b8015610f5b575b8015610f54575b15610edb578315610ed3575b5082610ecb575b5081610ec2575b50610e54575b5f808080610e0b565b610e5e8684615ab9565b51610e4b57865162461bcd60e51b815291820152603460248201527f4d757374206861766520616e2061637469766520726f6c6520746f206772616e6044820152737420766965776572207065726d697373696f6e7360601b606482015260849150fd5b9050155f610e45565b91505f610e3e565b92505f610e37565b8a5162461bcd60e51b8152808701869052604760248201527f4f6e6c79206f776e6572732c2061646d696e6973747261746f72732c2073686160448201527f726572732c206f72207375626a656374732063616e206772616e742076696577606482015266657220726f6c6560c81b608482015260a490fd5b5080610e2b565b5083610e24565b5082610e1d565b60648383808b519262461bcd60e51b845283015260248201527f596f752068617665206e6f20726f6c6520666f722074686973207265636f72646044820152fd5b823461037f578060031936011261037f578135610fc56146a9565b610fd0821515614f95565b6001600160a01b031692610fe5841515614fe1565b335f5260209260018452805f2054945f52805f205493611006851515614c05565b611010858561563e565b805f526006825261102960ff6001855f2001541661506f565b805f526006825261103b835f20614a07565b9384518386012061104a6150c7565b8481519101208114611409576110608888615849565b61137a57878903611181575b6110746150e8565b848151910120146110ec575b50908392916110b17fd05ed2d3feff840c2ececa71791388fd3d19dbbbbcfa97031f534a7dc09fbf1f958888615672565b5f52600681526001825f200160ff198154169055600e81525f828120556110e18251938385948552840190614aa9565b9042908301520390a4005b855f52600883526001845f20541160078452845f205415158115611179575b5061108057835162461bcd60e51b8152908101839052603960248201527f43616e6e6f74207265766f6b65206c6173742061646d696e6973747261746f7260448201527f20776974686f757420616e206f776e65722070726573656e74000000000000006064820152608490fd5b90508961110b565b61119361118c6150c7565b8a896157eb565b6111a561119e6150e8565b8b8a6157eb565b845f52600e86528a875f205414906111bb614dd8565b87815191012084148015611364575b1561127657821561126e575b508115611266575b50156111ea575b61106c565b845162461bcd60e51b8152808301859052604a60248201527f4f6e6c79206f776e6572732c2061646d696e6973747261746f72732c206f722060448201527f746865206772616e7465722063616e207265766f6b65207669657765722f73686064820152696172657220726f6c657360b01b608482015260a490fd5b90508a6111de565b91508b6111d6565b82159291508261135c575b5015611301571561106c576112946150e8565b84815191012081036111e557865f5260078452845f2054156111e557845162461bcd60e51b8152808301859052602560248201527f4f6e6c79206f776e6572732063616e207265766f6b652061646d696e6973747260448201526461746f727360d81b6064820152608490fd5b855162461bcd60e51b8152808401869052602f60248201527f4f6e6c79206f776e65727320616e642061646d696e6973747261746f7273206360448201526e616e207265766f6b6520726f6c657360881b6064820152608490fd5b90508b611281565b5061136d615111565b87815191012084146111ca565b845162461bcd60e51b8152808301859052605760248201527f43616e6e6f74207265766f6b6520616e20616374697665207375626a6563742760448201527f7320726f6c652e20416374697665207375626a65637473206d75737420686f6c60648201527f64206174206c656173742073686172657220726f6c652e000000000000000000608482015260a490fd5b845162461bcd60e51b8152808301859052604560248201527f4f776e6572732063616e6e6f74206265207265766f6b65642e204f776e65722060448201527f6d7573742075736520766f6c756e746172696c794c656176654f776e6572736860648201526434b814149760d91b608482015260a490fd5b90503461037f576020908160031936011261037f578290355f5260038252805f208151928381835491828152019081935f52825f20905f5b81811061151257505050846114ce910385614724565b825181815293518185018190528493840192915f5b8281106114f257505050500390f35b83516001600160a01b0316855286955093810193928101926001016114e3565b82546001600160a01b0316845292840192600192830192016114b8565b823461037f57602036600319011261037f57602091355f52600e8252805f20549051908152f35b823461037f57602036600319011261037f5760209061157b611576614693565b615a63565b90519015158152f35b90503461037f57611594366149b9565b6115a361044e94929433615397565b335f52600193602093858552835f205490828214801561184b575b1561180a57825f52600f8652845f20845f52865260ff9060ff865f205416818110156117f75788600282149182156117ed575b5050156117a05750908691835f52600f8752855f20855f528752855f2090600360ff19926003848254161790558387877f6df3a6475fab2eed139f7e469995b04e85bfc5b4b8642587109cb72541f74fae8c8c51428152a4855f5260108952875f20875f528952875f2088865f905b6116a7575b50505050505050505f5260108352815f20905f5282525f20908154915f81558261168b57005b5f525f20908101905b81811061169d57005b5f81558201611694565b8b8a845483101561179957899389926116c08588614b07565b905490891b1c918d5f5260118252805f20845f528252805f20835f528252805f208b81541690556116f1848461563e565b5f526006908183528a88825f200154161561178e577fd05ed2d3feff840c2ececa71791388fd3d19dbbbbcfa97031f534a7dc09fbf1f92611732868661563e565b92835f52808252611744835f20614a07565b93611750858989615672565b5f52815288825f20018d8154169055600e81525f8281205561177b8251938385948552840190614aa9565b9042908301520390a45b01899087611660565b505050505050611785565b5050611665565b855162461bcd60e51b8152908101879052602160248201527f4e6f20616374697665206f722070656e64696e672072656c6174696f6e7368696044820152600760fc1b6064820152608490fd5b149050885f6115f1565b602182634e487b7160e01b5f525260245ffd5b606490868087519262461bcd60e51b845283015260248201527f4e6f74206120706172747920746f20746869732072656c6174696f6e736869706044820152fd5b508382146115be565b823461037f578060031936011261037f5761157b6020926118736146a9565b903561535a565b823461037f57602036600319011261037f577fce59ad7d6dabe8a7533ed7d9bd07d276a046ac7ac9a8e8e8971da4b81104a28b60206118b7614693565b5f546001600160a01b0391906118d09083163314614dfa565b16926118dd84151561531c565b600d80546001600160a01b0319168517905551428152a2005b823461037f57611905366149b9565b905f526020906010602052825f20905f52602052815f209180519182602085549182815201945f5260205f20915f905b82821061194d576106478686610934828b0383614724565b835487529586019560019384019390910190611935565b90503461037f57602090602060031936011261037f57355f526007602052815f209180519182602085549182815201945f5260205f20915f905b8282106119b6576106478686610934828b0383614724565b83548752958601956001938401939091019061199e565b823461037f575f36600319011261037f576020906005549051908152f35b90503461037f57602036600319011261037f57611a06614693565b5f546001600160a01b039190611a1f9083163314614dfa565b16805f5260019182602052611a38845f20541515614e33565b815f528260205260ff83855f20015416611a6757509181925f52816020525f20019060ff198254161790555f80f35b606490602085519162461bcd60e51b8352820152601560248201527457616c6c657420616c72656164792061637469766560581b6044820152fd5b823461037f57611ab136614946565b919092611ac061044e33615397565b335f52600192602090848252835f205490805f52600f8352845f20825f528352845f2090855191611af0836146bf565b549460ff92611b0260ff881682614f46565b611b1560ff8783019860081c1688614f52565b5198818a10156117f757611b2c60028a9b146152ab565b5f995b611b3557005b80518a10156105b557611b488a82614dc4565b519987516003811015611c5157908b8886888e9f8f968f90611b6d8e91868b95615a0d565b95611b7787615773565b15611c4457611b86868961563e565b5f526006918282528585855f2001541615611c3657611ba5908961563e565b5f52525f20015416611c2e57611bbc918a84615429565b855f526011808a528b5f20895f528a528b5f20825f528a52878c5f20541615611bea575b50505b0199611b2f565b865f5260108a528b5f20895f528a52611c05828d5f20614d66565b865f5289528a5f20885f5289528a5f20905f528852895f208260ff198254161790558c80611be0565b505050611be3565b505050505050505050611be3565b5050505050505050611be3565b602184634e487b7160e01b5f525260245ffd5b823461037f576020908160031936011261037f57823591611c8761044e33615397565b335f5260018152815f205493835f52600f8252825f20855f528252825f209081549060ff8216818110156117f757600103611d06575091611cfe60ff9260027fc5b2e1bd4433eb4e9e181cc803520513d39d918c96bddeebca1224e1c750963d969585191617809155845193849160081c16614b51565b4290820152a3005b845162461bcd60e51b81529081018490526013602482015272139bc81c195b991a5b99c81c1c9bdc1bdcd85b606a1b6044820152606490fd5b823461037f575f36600319011261037f57805161064791611d5f826146bf565b60058252640352e302e360dc1b602083015251918291602083526020830190614aa9565b90503461037f57611d9336614927565b91611da061044e33615397565b335f526001602052835f205490815f52600f602052845f20835f52602052845f20805460ff811683811015611c515790611dde600260ff93146152ab565b60081c169160038610156107d15760038310156107d157858314611e4757507fb36ec3c738ef8ecd9180addc815304762374b76e91c2a321831d9906ea119ade611e3f85936105b598611e32898896614f76565b51918291894291846152f7565b0390a3615938565b606490602088519162461bcd60e51b8352820152601860248201527f416c72656164792074686973207472757374206c6576656c00000000000000006044820152fd5b823461037f57602090611ea5611e9f366149b9565b9061563e565b5f52600e8252805f20549051908152f35b823461037f57602036600319011261037f578135825481101561037f576020925f527f8a35acfbc15ff81a39ae7d344fd709f28e8600b4aa8c65c6b64bfe7fe36bd19b01549051908152f35b823461037f57611f11366149b9565b905f52600f602052815f20905f52602052805f2090805191611f32836146bf565b5491611f4160ff841682614f46565b611f5560ff602083019460081c1684614f52565b519183831015611c5157519260038410156107d15750610647905192839283614b5e565b823461037f578060031936011261037f57813590602435600681101561037f57611fad60018060a01b035f54163314614dfa565b825f5260206002815260ff835f20541660068110156120b7571561207f57835f526002815260ff835f2054169460068610156107d15782861461204857509061201b91845f5260028152835f2060ff1981541660ff841617905561201384518097614b30565b850190614b30565b42908301527ff6277c6ee46649823db9a5c531db3112b4340c67179cae1932ba3420dcc37cc760603393a3005b60649184519162461bcd60e51b83528201526013602482015272416c726561647920746869732073746174757360681b6044820152fd5b8460649184519162461bcd60e51b83528201526013602482015272155cd95c881b9bdd081c9959da5cdd195c9959606a1b6044820152fd5b602186634e487b7160e01b5f525260245ffd5b823461037f576120d9366149b9565b91905f526003602052805f20805483101561037f576020926120fa91614b07565b60018060a01b0391549060031b1c169051908152f35b823461037f5761211f366149b9565b91905f52600a602052805f20805483101561037f5760209261037191614b07565b823461037f5760208060031936011261037f57608092355f5260078152815f20549160088252805f20549060098352805f205491600a8452815f20549382519586528501528301526060820152f35b823461037f57602036600319011261037f576001600160a01b036121b1614693565b165f526001602052805f2060ff6001825492015416825191825215156020820152f35b823461037f576121e3366149b9565b91905f526008602052805f20805483101561037f5760209261037191614b07565b90503461037f575f36600319011261037f577ff0c57e16840df040f15088dc2f81fe391c3923bec73e23a9662efc9c229c6a0090815460ff81851c1615916001600160401b03821680159081612319575b600114908161230f575b159081612306575b506122f8575067ffffffffffffffff1981166001178355816122d9575b505f80546001600160a01b0319163317905561229c57005b805468ff00000000000000001916905551600181527fc7f505b2f371ae2175ee4913f4499e1f2633a7b5936321eed1cdaeb6115181d290602090a1005b68ffffffffffffffffff1916680100000000000000011782555f612284565b845163f92ee8a960e01b8152fd5b9050155f612267565b303b15915061225f565b849150612255565b823461037f5761064790612334366149b9565b905f52600f602052815f20905f52602052805f20549051918160ff80859460081c16911683614b5e565b823461037f575f36600319011261037f57602090600c549051908152f35b823461037f57602036600319011261037f57602090612399614693565b5f5491906001600160a01b03808416917f38df5fa0f7fef0d515ca1f5388cb5790ac5885d5fca8d05d9f943e563c33a4b391906123d7338514614dfa565b169485936123e685151561531c565b51428152a36001600160a01b031916175f55005b90503461037f5761240a36614977565b93909260018060a01b03612422815f54163314614dfa565b61242d841515614f95565b841661243a8115156151d7565b612446610a1087615773565b5f526001602091818352612468845f205496612463881515614e33565b615397565b1561270957845f5260078352835f205415806126fa575b156126b75761248e868661563e565b91825f5260068452845f20926124a384614a07565b9260ff8385511596015416928751916124bb836146bf565b8b835287830190828252845f5260068952895f2093518051916001600160401b0383116126a457506124ed85546149cf565b601f811161265e575b508990601f83116001146125f75761253d95949392915f91836125ec575b50505f19600383901b1c191690831b1783555b51151591019060ff801983541691151516179055565b5f52600e84525f85812055155f146125bf57509185917ff9d17eb1340ab78960b594ff8bed1349985b800ee21199c6d5ea4a67454593ad936125815f988888615b10565b612599575b6110e18251938385948552840190614aa9565b858752600b81526125ac85838920614d66565b6125b7600c54614da2565b600c55612586565b95949392505084518186012090845190850120036125d957005b6125e76105b5948383615672565b615b10565b015190505f80612514565b90601f19831691865f528b5f20925f5b8d82821061264a5750509186959492918361253d9998959310612632575b505050811b018355612527565b01515f1960f88460031b161c191690555f8080612625565b838501518655948801949384019301612607565b855f528a5f20601f840160051c8101918c851061269a575b601f0160051c019085905b82811061268f5750506124f6565b5f8155018590612681565b9091508190612676565b604190634e487b7160e01b5f525260245ffd5b835162461bcd60e51b8152908101839052601a60248201527f5265636f726420616c726561647920696e697469616c697a65640000000000006044820152606490fd5b5060088352835f20541561247f565b835162461bcd60e51b8152908101839052601860248201527f4d75737420626520616e20616374697665206d656d62657200000000000000006044820152606490fd5b823461037f578060031936011261037f576001600160401b0390823582811161037f573660238201121561037f578084013592831161037f5760246005943660248660051b8501011161037f575f546001600160a01b039660243595916127b69089163314614dfa565b8615612911576127c786151561521c565b855f526002936020936002855260ff845f2054169060068210156107d1575015955f5b8981106127f357005b8281851b83010135908b82169182810361037f57826128798c9261281a60019615156151d7565b825f5261286a86808d526128318c5f20541561525f565b8b519061283d826146bf565b8682528d8181840191818352885f52528d5f209251835551151591019060ff801983541691151516179055565b835f5260038b52895f20614ce4565b82158061290a575b156128dd57815f52898952875f208a60ff198254161790556128a282614d1f565b6128ac8754614da2565b87557f39d132591ee0696de49ab564e4a90e430c006561917db731a2a614dd2d245591898951428152a35b016127ea565b7f1cc138f50384be7770a8e4a34eecaa0d0c718bfaa1641af49db32532e4a5b910898951428152a36128d7565b508a612881565b815162461bcd60e51b81526020818501526013602482015272139bc81dd85b1b195d1cc81c1c9bdd9a591959606a1b6044820152606490fd5b90503461037f57602090602060031936011261037f57355f52600b602052815f209180519182602085549182815201945f5260205f20915f905b82821061299c576106478686610934828b0383614724565b835487529586019560019384019390910190612984565b823461037f5760209061157b6129c8366149b9565b90615849565b823461037f576129dd366149b9565b91905f526007602052805f20805483101561037f5760209261037191614b07565b823461037f57612a0d366149b9565b905f52600f602052815f20905f52602052805f2090805191612a2e836146bf565b5491612a3d60ff841682614f46565b612a5160ff602083019460081c1684614f52565b5183811015611c51576002149182612a70575b60208383519015158152f35b909150519160038310156107d157506002602092149083612a64565b823461037f575f36600319011261037f577f00000000000000000000000000000000000000000000000000000000000000006001600160a01b03163003612af657602090517f360894a13ba1a3210667c828492db98dca3e2076cc3735a920a3ca505d382bbc8152f35b5163703e46dd60e11b8152fd5b823461037f57612b123661481f565b90612b1f61044e33615397565b612b2c8351835114614bc1565b335f52600193602091858352815f20549060018060a01b03165f52815f205490612b57821515614c05565b865f96838314915b612b6557005b80518810156105b5578888612b7b829a84614dc4565b51612b86828b614dc4565b51612b9081615773565b15612e8857612b9f878361563e565b5f526006808b5260ff80868c5f2001541615612e7f57612bbf8a8561563e565b5f52818c52858b5f2001541615612e7757612bda898461563e565b5f528a52612be9895f20614a07565b9088888c8451818601208d85518387012090818314612cfb57612c0a6150c7565b8481519101208314612cfb57885f52600784525f205415918215612c36612c2f6150c7565b878c6157eb565b90612c49612c426150e8565b888d6157eb565b90612c5d8c89612c57615111565b916157eb565b612c656150c7565b8051908901208603612d1d575015612d09575015612cfb575b612c866150e8565b848151910120149283612ce1575b505081612cd9575b5080612cc1575b612cb757612cb0946158d3565b0197612b5f565b5050505050612cb0565b505050825f5260088b528888868c5f20541115612ca3565b90505f612c9c565b90919250612ced614dd8565b805191012014905f8f612c94565b505050505050505050612cb0565b9050612c7e57505050505050505050612cb0565b919290612d286150e8565b8051908901208603612d5357509050159081612d4a575b50612cfb575b612c7e565b9050155f612d3f565b612d5b615111565b8051908901208603612de65715612db257159182612d9a575b5081612d845750612cfb57612c7e565b905080612d93575b155f612d3f565b508c612d8c565b90915080612dab575b15905f612d74565b508d612da3565b5090159081612dd0575b5015612d4557505050505050505050612cb0565b905080612ddf575b155f612dbc565b508c612dd8565b612dee614dd8565b8881519101208614612e04575b50505050612c7e565b15612e6357159182612e4b575b5081612e35575b50612cfb575b612e28868a615849565b612cfb575f808080612dfb565b905080612e44575b155f612e18565b508c612e3d565b90915080612e5c575b15905f612e11565b508d612e54565b5050612e1e57505050505050505050612cb0565b505050612cb0565b50505050612cb0565b5050612cb0565b90508160031936011261037f57612ea4614693565b916024356001600160401b03811161037f573660238201121561037f57612ed490369060248186013591016147bc565b906001600160a01b037f0000000000000000000000000000000000000000000000000000000000000000811630811490811561305e575b5061304e57612f1e815f54163314614dfa565b8416918151946352d1902d60e01b86526020868681875afa5f968161301a575b50612f5a57505051634c9c8ce360e01b81529182015260249150fd5b838593877f360894a13ba1a3210667c828492db98dca3e2076cc3735a920a3ca505d382bbc908181036130045750833b15612fed5780546001600160a01b0319168317905551907fbc7cd75a20ee27fd9adebab32041f755214dbc6bffa90cc0225b39da2e5c2d3b5f80a2825115612fd757506105b59250615c52565b91505034612fe157005b63b398979f60e01b8152fd5b8151634c9c8ce360e01b8152808701849052602490fd5b86602491845191632a87526960e21b8352820152fd5b9096506020813d602011613046575b8161303660209383614724565b8101031261037f5751955f612f3e565b3d9150613029565b815163703e46dd60e11b81528490fd5b9050817f360894a13ba1a3210667c828492db98dca3e2076cc3735a920a3ca505d382bbc541614155f612f0b565b90503461037f5761309c36614927565b91906130aa61044e33615397565b335f526001602052835f205491815f52600f602052845f20835f52602052845f20805460ff811683811015611c515760026130e591146152ab565b600386101561318e5760081c60ff169160038310156107d1578260ff8716101561313f57507fb36ec3c738ef8ecd9180addc815304762374b76e91c2a321831d9906ea119ade611e3f85936105b598611e32898896614f76565b608490602088519162461bcd60e51b8352820152602360248201527f43616e206f6e6c7920646f776e677261646520746f2061206c6f776572206c656044820152621d995b60ea1b6064820152fd5b602183634e487b7160e01b5f525260245ffd5b90503461037f578160031936011261037f576131bb614693565b916024359260018060a01b036131d5815f54163314614dfa565b8116926131e38415156151d7565b6131ee85151561521c565b835f5261325360209260018452613208855f20541561525f565b6132448551613216816146bf565b8881526001868201818152895f52818852885f209251835551151591019060ff801983541691151516179055565b865f5260038452845f20614ce4565b845f526002825260ff835f2054169060068210156107d157506132c5577f39d132591ee0696de49ab564e4a90e430c006561917db731a2a614dd2d24559191845f5260028252805f20600260ff198254161790556132b085614d1f565b6132bb600554614da2565b60055551428152a3005b7f1cc138f50384be7770a8e4a34eecaa0d0c718bfaa1641af49db32532e4a5b9109151428152a3005b823461037f57602036600319011261037f5760209061157b612463614693565b823461037f57602090613323611e9f366149b9565b5f5260068252610647815f2091805161333b816146bf565b60ff600161334886614a07565b95868452015416151594859101525192839283614ae7565b823461037f578060031936011261037f57613387610647926133806146a9565b903561515f565b9290915192839283614ae7565b90503461037f57602090602060031936011261037f57355f526008602052815f209180519182602085549182815201945f5260205f20915f905b8282106133e6576106478686610934828b0383614724565b8354875295860195600193840193909101906133ce565b823461037f5760209061157b61341236614977565b91615133565b90503461037f57602036600319011261037f57355f526006602052805f2061064760ff600161344684614a07565b93015416925192839283614ae7565b823461037f57613464366149b9565b905f526012602052815f20905f52602052805f2090610647606082519361348a856146ee565b805493848652600182015495866020820152600360028401549384848401520154938491015251948594859094939260609260808301968352602083015260408201520152565b823461037f5760208060031936011261037f578235916134f2831515614f95565b335f5260018252805f2054936135106135096150c7565b86866157eb565b1561360157835f52600783526001825f20541160088452825f2054151581156135f9575b501561359e5750907f68f37cc4a32f0b24153ce9237b344b20a9717039f90d7c24f35e5c217f03e16891613568858561563e565b61357a6135736150c7565b8787615672565b5f52600682526001815f200160ff198154169055600e82525f8181205551428152a3005b82608492519162461bcd60e51b8352820152603160248201527f43616e6e6f74206c65617665206173206c617374206f776e65722077697468206044820152706e6f2061646d696e6973747261746f727360781b6064820152fd5b905086613534565b82608492519162461bcd60e51b8352820152602360248201527f596f7520617265206e6f7420616e206f776e6572206f662074686973207265636044820152621bdc9960ea1b6064820152fd5b90503461037f57602090602060031936011261037f57355f526009602052815f209180519182602085549182815201945f5260205f20915f905b8282106136a0576106478686610934828b0383614724565b835487529586019560019384019390910190613688565b90503461037f576136c736614977565b9192906136d661044e33615397565b6136e1841515614f95565b6001600160a01b03166136f5811515614fe1565b613701610a1084615773565b335f5260209360018552855f2054915f52855f205492613722841515614c05565b84518686012095613733858461563e565b805f526006825261374c60ff60018b5f2001541661506f565b5f526006815261375d885f20614a07565b9687518289012090808214613d8c576137746150c7565b8381519101208214613d1757845f5260078352895f2054159182156137a161379a6150c7565b89896157eb565b906137b46137ad6150e8565b8a8a6157eb565b906137c76137c0615111565b8b8b6157eb565b8b8b146137d26150c7565b8051908a0120870361394f575050156138f25750156138b1575b6137f46150e8565b84815191012014908161389a575b50613815575b5050506105b595506158d3565b613820575b80613808565b825f52600881526001885f20541161381a57875162461bcd60e51b815291820152603960248201527f43616e6e6f742064656d6f746520746865206c6173742061646d696e6973747260448201527f61746f72207768656e206e6f206f776e65722065786973747300000000000000606482015260849150fd5b90506138a4614dd8565b838151910120145f613802565b60648585808e519262461bcd60e51b845283015260248201527f4f6e6c79206f776e6572732063616e2070726f6d6f746520746f206f776e65726044820152fd5b90506137ec578a5162461bcd60e51b8152808601859052602b60248201527f4f6e6c792061646d696e6973747261746f72732063616e2070726f6d6f74652060448201526a3334b939ba1037bbb732b960a91b6064820152608490fd5b90916139596150e8565b8051908a012087036139ec5750505081156139e4575b501561397b575b6137ec565b8a5162461bcd60e51b8152808601859052603b60248201527f4f6e6c79206f776e65727320616e642061646d696e6973747261746f7273206360448201527f616e2070726f6d6f746520746f2061646d696e6973747261746f7200000000006064820152608490fd5b90505f61396f565b6139f893919293615111565b8051908a01208703613b595715613add578315613ac6575b508215613aad575b50506137ec578a5162461bcd60e51b8152808601859052605760248201527f4f6e6c79206f776e6572732063616e206368616e6765206f746865727320746f60448201527f207368617265722e2041646d696e7320616e6420736861726572732063616e2060648201527f6f6e6c792064656d6f7465207468656d73656c7665732e000000000000000000608482015260a490fd5b90915081613abe575b505f80613a18565b90505f613ab6565b90925080613ad6575b915f613a10565b5081613acf565b92508215613b40575b5050613976578a5162461bcd60e51b8152808601859052602860248201527f4f6e6c792061646d696e6973747261746f72732063616e2064656d6f74652074604482015267379039b430b932b960c11b6064820152608490fd5b90915081613b51575b505f80613ae6565b90505f613b49565b613b61614dd8565b8981519101208714613b78575b50505050506137ec565b15613cbb578315613ca4575b508215613c8b575b505015613c04575b613b9e8887615849565b613bac575f80808080613b6e565b8a5162461bcd60e51b8152808601859052602c60248201527f43616e6e6f742064656d6f746520616e20616374697665207375626a6563742060448201526b3132b637bb9039b430b932b960a11b6064820152608490fd5b8a5162461bcd60e51b8152808601859052605560248201527f4f6e6c79206f776e6572732063616e2064656d6f7465206f74686572732e204160448201527f646d696e6973747261746f727320616e6420736861726572732063616e206f6e606482015274363c903232b6b7ba32903a3432b6b9b2b63b32b99760591b608482015260a490fd5b90915081613c9c575b505f80613b8c565b90505f613c94565b90925080613cb4575b915f613b84565b5081613cad565b92505050613b94578a5162461bcd60e51b8152808601859052602860248201527f4f6e6c792061646d696e6973747261746f72732063616e2064656d6f7465207460448201526737903b34b2bbb2b960c11b6064820152608490fd5b895162461bcd60e51b8152808501849052604360248201527f4f776e6572732063616e6e6f742062652064656d6f7465642e204f776e65722060448201527f6d75737420766f6c756e746172696c792072656d6f7665207468656d73656c7660648201526232b99760e91b608482015260a490fd5b895162461bcd60e51b8152808501849052601c60248201527f54617267657420616c726561647920686173207468697320726f6c65000000006044820152606490fd5b823461037f57602036600319011261037f5760209061157b613def614693565b61571d565b823461037f57613e0336614946565b613e1261044e93929333615397565b335f526001928392602090848252805f205492613e3181511515614ca2565b5f955b613e3a57005b80518610156105b55786868686613e52849a86614dc4565b51805f5260128852865f20835f528852865f208751613e70816146ee565b815490818152878301548b82015260606003600285015494858d850152015491015215613f6a57613ea9613ea26150c7565b84846157eb565b908115613f57575b8314159081613f4e575b50613f4657613eca838261563e565b805f52600690818a5260ff878a5f20015416613f13575b50507fa232dcffab2d4f0f085a4d88bc617cd25ded7d3b8d8952e99d788ca25d4435b0888851428152a45b0195613e34565b613f25613f1e614dd8565b8685615672565b5f52885284875f200160ff198154169055600e88525f878120558c80613ee1565b505050613f0c565b9050158d613ebb565b9050613f64613ea26150e8565b90613eb1565b50505050613f0c565b823461037f57613f8236614927565b9091613f9061044e33615397565b335f5260209160018352815f205492613faa851515614e77565b613fb685851415614eb5565b845f526002815260ff835f205416600681101561085357613fd8901515614f01565b835f52600f8152825f20855f52815260ff835f205416868110156108535780159081156140cf575b501561408d578251614011816146bf565b600181528181016140228482614f52565b855f52600f8352845f20875f528352845f209151888110156107e4576140489083614f5e565b519660038810156107d157507f494d010fdf588a0e83d626ea6963187bdda6f88b7007f7bf280683d3f7dea83494959661408191614f76565b611cfe83518093614b51565b8560649184519162461bcd60e51b8352820152601760248201527f50726f706f73616c20616c7265616479206578697374730000000000000000006044820152fd5b600391501487614000565b823461037f57602036600319011261037f576140f4614693565b5f546001600160a01b03919061410d9083163314614dfa565b16805f526001602052614124825f20541515614e33565b805f52600160205260ff6001835f200154161561415457600192505f52816020525f200160ff1981541690555f80f35b815162461bcd60e51b8152602081850152601760248201527f57616c6c657420616c726561647920696e6163746976650000000000000000006044820152606490fd5b823461037f5760a036600319011261037f5781356001600160401b03811161037f576141c6903690840161475c565b906141cf6146a9565b60443591606435936084356141e661044e33615397565b335f52600195602091878352845f20549561420385511515614ca2565b6001600160a01b0381169081156144c257881561448c57821561444957815f5289855288875f205480155f146143df575050614275614284928b895191614249836146bf565b8c8352888301908282525f528189528a5f209251835551151591019060ff801983541691151516179055565b885f5260038552865f20614ce4565b865f5260028352845f20600560ff198254161790556142a287614d1f565b6142ad600554614da2565b6005555b4201928342116143cc578798505f975b6142c757005b80518810156105b557888888886142df849c86614dc4565b516142ea828261563e565b5f5289888a60068083528a60ff94858b825f20015416156143be577f140d483f221b1b41aa3142be8c182589305145aafe83bed53b908d6baff35c1d956003936143348b8a61563e565b5f5286528b825f20015416156143a6575b805193614351856146ee565b42855285850190815281850191898352606096878701948552895f5260128152815f20908c5f52525f2094518555518b850155516002840155519101558b518981528b8b820152428d820152a45b01976142c1565b6143b9886143b2614dd8565b8b8a615429565b614345565b50505050505050505061439f565b601189634e487b7160e01b5f525260245ffd5b1491506142b1905057845162461bcd60e51b8152808a01849052603560248201527f47756573742077616c6c657420616c7265616479207265676973746572656420604482015274746f20646966666572656e74206964656e7469747960581b6064820152608490fd5b865162461bcd60e51b8152808c01869052601960248201527f4475726174696f6e206d75737420626520706f736974697665000000000000006044820152606490fd5b865162461bcd60e51b8152808c01869052601060248201526f125b9d985b1a590819dd595cdd08125160821b6044820152606490fd5b865162461bcd60e51b8152808c018690526014602482015273125b9d985b1a590819dd595cdd081dd85b1b195d60621b6044820152606490fd5b823461037f578060031936011261037f5761157b60209261451b6146a9565b9035614c51565b90503461037f57602090602060031936011261037f57355f52600a602052815f209180519182602085549182815201945f5260205f20915f905b828210614574576106478686610934828b0383614724565b83548752958601956001938401939091019061455c565b823461037f5761459a3661481f565b9291906145a961044e33615397565b6145b68251855114614bc1565b335f5260019384936001602052805f20549260018060a01b03165f525f20546145e0811515614c05565b5f945b6145e957005b83518510156105b5578585614608614602839886614dc4565b51615773565b1561465a5761461b856104ad8389614dc4565b1561465a5761462e836104ad8389614dc4565b61465a57614653856146408389614dc4565b518561464c8589614dc4565b5191615429565b01946145e3565b614653565b83903461037f57602036600319011261037f576020916001600160a01b03614685614693565b165f52600183525f20548152f35b600435906001600160a01b038216820361037f57565b602435906001600160a01b038216820361037f57565b604081019081106001600160401b038211176146da57604052565b634e487b7160e01b5f52604160045260245ffd5b608081019081106001600160401b038211176146da57604052565b602081019081106001600160401b038211176146da57604052565b90601f801991011681019081106001600160401b038211176146da57604052565b6001600160401b0381116146da5760051b60200190565b9080601f8301121561037f57602090823561477681614745565b936147846040519586614724565b81855260208086019260051b82010192831161037f57602001905b8282106147ad575050505090565b8135815290830190830161479f565b9291926001600160401b0382116146da57604051916147e5601f8201601f191660200184614724565b82948184528183011161037f578281602093845f960137010152565b9080601f8301121561037f5781602061481c933591016147bc565b90565b606060031982011261037f576001600160401b039160043583811161037f578261484b9160040161475c565b9260249283356001600160a01b038116810361037f57936044359280841161037f578260238501121561037f57836004013561488681614745565b946148946040519687614724565b8186526020946024602088019360051b8301019481861161037f5760248301935b8685106148c757505050505050505090565b843586811161037f5788916148e185858594890101614801565b8152019401936148b5565b60209060206040818301928281528551809452019301915f5b828110614913575050505090565b835185529381019392810192600101614905565b604090600319011261037f5760043590602435600381101561037f5790565b604060031982011261037f57600435906001600160401b03821161037f576149709160040161475c565b9060243590565b606060031982011261037f57600435916024356001600160a01b038116810361037f5791604435906001600160401b03821161037f5761481c91600401614801565b604090600319011261037f576004359060243590565b90600182811c921680156149fd575b60208310146149e957565b634e487b7160e01b5f52602260045260245ffd5b91607f16916149de565b9060405191825f8254614a19816149cf565b908184526020946001916001811690815f14614a875750600114614a49575b505050614a4792500383614724565b565b5f90815285812095935091905b818310614a6f575050614a4793508201015f8080614a38565b85548884018501529485019487945091830191614a56565b92505050614a4794925060ff191682840152151560051b8201015f8080614a38565b91908251928382525f5b848110614ad3575050825f602080949584010152601f8019910116010190565b602081830181015184830182015201614ab3565b90614aff602091949394604084526040840190614aa9565b931515910152565b8054821015614b1c575f5260205f2001905f90565b634e487b7160e01b5f52603260045260245ffd5b906006821015614b3d5752565b634e487b7160e01b5f52602160045260245ffd5b906003821015614b3d5752565b90929160408201936004811015614b3d578252614a479160200190614b51565b15614b8557565b60405162461bcd60e51b81526020600482015260146024820152732737ba1030b71030b1ba34bb329036b2b6b132b960611b6044820152606490fd5b15614bc857565b60405162461bcd60e51b8152602060048201526015602482015274082e4e4c2f240d8cadccee8d040dad2e6dac2e8c6d605b1b6044820152606490fd5b15614c0c57565b60405162461bcd60e51b815260206004820152601c60248201527f5461726765742077616c6c6574206e6f742072656769737465726564000000006044820152606490fd5b6001600160a01b039091165f90815260016020526040902054908115614c9c57614c83614c7c6150c7565b83836157eb565b918215614c8f57505090565b61481c9250612c576150e8565b50505f90565b15614ca957565b60405162461bcd60e51b8152602060048201526013602482015272139bc81c9958dbdc991cc81c1c9bdd9a591959606a1b6044820152606490fd5b8054600160401b8110156146da57614d0191600182018155614b07565b60018060a09493941b038084549260031b9316831b921b1916179055565b600454600160401b8110156146da576001810180600455811015614b1c5760045f527f8a35acfbc15ff81a39ae7d344fd709f28e8600b4aa8c65c6b64bfe7fe36bd19b0155565b805490600160401b8210156146da5781614d88916001614d9e94018155614b07565b819391549060031b91821b915f19901b19161790565b9055565b5f198114614db05760010190565b634e487b7160e01b5f52601160045260245ffd5b8051821015614b1c5760209160051b010190565b60405190614de5826146bf565b60068252653b34b2bbb2b960d11b6020830152565b15614e0157565b60405162461bcd60e51b815260206004820152600a60248201526927b7363c9030b236b4b760b11b6044820152606490fd5b15614e3a57565b60405162461bcd60e51b815260206004820152601560248201527415d85b1b195d081b9bdd081c9959da5cdd195c9959605a1b6044820152606490fd5b15614e7e57565b60405162461bcd60e51b815260206004820152600f60248201526e496e76616c6964207472757374656560881b6044820152606490fd5b15614ebc57565b60405162461bcd60e51b815260206004820152601760248201527f43616e6e6f74206170706f696e7420796f757273656c660000000000000000006044820152606490fd5b15614f0857565b60405162461bcd60e51b8152602060048201526016602482015275151c9d5cdd1959481b9bdd081c9959da5cdd195c995960521b6044820152606490fd5b6004821015614b3d5752565b6003821015614b3d5752565b906004811015614b3d5760ff80198354169116179055565b906003811015614b3d5761ff0082549160081b169061ff001916179055565b15614f9c57565b60405162461bcd60e51b815260206004820152601e60248201527f5265636f726420494420686173682063616e6e6f7420626520656d70747900006044820152606490fd5b15614fe857565b60405162461bcd60e51b815260206004820152601d60248201527f57616c6c657420616464726573732063616e6e6f74206265207a65726f0000006044820152606490fd5b1561503457565b60405162461bcd60e51b8152602060048201526013602482015272496e76616c696420726f6c6520737472696e6760681b6044820152606490fd5b1561507657565b60405162461bcd60e51b815260206004820152602360248201527f54617267657420646f6573206e6f74206861766520616e2061637469766520726044820152626f6c6560e81b6064820152608490fd5b604051906150d4826146bf565b600582526437bbb732b960d91b6020830152565b604051906150f5826146bf565b600d82526c30b236b4b734b9ba3930ba37b960991b6020830152565b6040519061511e826146bf565b600682526539b430b932b960d11b6020830152565b919060018060a01b03165f52600160205260405f205480156151585761481c926157eb565b5050505f90565b6001600160a01b039091165f908152600160205260409020549081156151c1576020929161518c9161563e565b5f526006825260405f206040516151a2816146bf565b60ff60016151af84614a07565b93848452015416151593849101529190565b50506040516151cf81614709565b5f8152905f90565b156151de57565b60405162461bcd60e51b8152602060048201526016602482015275496e76616c69642077616c6c6574206164647265737360501b6044820152606490fd5b1561522357565b60405162461bcd60e51b8152602060048201526014602482015273092dcecc2d8d2c840eae6cae440928840d0c2e6d60631b6044820152606490fd5b1561526657565b60405162461bcd60e51b815260206004820152601960248201527f57616c6c657420616c72656164792072656769737465726564000000000000006044820152606490fd5b156152b257565b60405162461bcd60e51b815260206004820152601e60248201527f4e6f2061637469766520747275737465652072656c6174696f6e7368697000006044820152606490fd5b61531860409295949361530e836060810198614b51565b6020830190614b51565b0152565b1561532357565b60405162461bcd60e51b815260206004820152600f60248201526e496e76616c6964206164647265737360881b6044820152606490fd5b6001600160a01b039091165f908152600160205260409020548015614c9c576153829161563e565b5f52600660205260ff600160405f2001541690565b6001600160a01b03165f908152600160205260409020805490811590811561540f575b5061540a575f52600260205260ff60405f20541660068110159081614b3d57600281149182156153fd575b82156153f057505090565b909150614b3d5760041490565b506003811491505f6153e5565b505f90565b60ff91506001015416155f6153ba565b906153829161563e565b929192615436828261563e565b93845f52602060068152604090815f209661545088614a07565b978851159160ff600180930154169185519061546b826146bf565b878252858201818152835f5260068752875f2092518051906001600160401b0382116146da5761549b85546149cf565b601f81116155f8575b508890601f83116001146155aa576154e995949392915f91836125ec5750505f19600383901b1c191690831b17835551151591019060ff801983541691151516179055565b5f52600e835287845f2055155f14615575578596975061552c8486977ff9d17eb1340ab78960b594ff8bed1349985b800ee21199c6d5ea4a67454593ad97615b10565b61554f575b6155448251938385948552840190614aa9565b9042908301520390a4565b855f52600b815261556285835f20614d66565b61556d600c54614da2565b600c55615531565b50919450508451818601209084519085012003615593575b50505050565b6125e76155a1948383615672565b5f80808061558d565b90601f19831691865f528a5f20925f5b8c8282106155e4575050918695949291836154e9999895931061263257505050811b018355612527565b8385015186559488019493840193016155ba565b855f52895f20601f840160051c8101918b8510615634575b601f0160051c019085905b8281106156295750506154a4565b5f815501859061561b565b9091508190615610565b906040519060208201928352604082015260408152606081018181106001600160401b038211176146da5760405251902090565b82516020809401206156826150c7565b80519085012081036156a25750614a47926007915f525260405f20615bbb565b6156aa6150e8565b80519085012081036156ca5750614a47926008915f525260405f20615bbb565b6156d2615111565b80519085012081036156f25750614a47926009915f525260405f20615bbb565b6156fa614dd8565b8481519101201461570a57505050565b614a4792600a915f525260405f20615bbb565b6001600160a01b03165f9081526001602052604090208054908115908115615763575b5061540a575f52600260205260ff60405f2054166006811015614b3d5760041490565b60ff91506001015416155f615740565b602081519101206157826150c7565b6020815191012081149081156157d2575b81156157b9575b81156157a4575090565b90506157ae614dd8565b602081519101201490565b90506157c3615111565b6020815191012081149061579a565b90506157dc6150e8565b60208151910120811490615793565b602092916157f89161563e565b5f526006825260405f2060405161580e816146bf565b60ff600161581b84614a07565b93848452015416151593849101528261583357505090565b9091506020815191012090602081519101201490565b600d546001600160a01b0316918215615158576044602092604051948593849263193d8e7560e21b8452600484015260248301525afa9081156158c8575f91615890575090565b90506020813d6020116158c0575b816158ab60209383614724565b8101031261037f5751801515810361037f5790565b3d915061589e565b6040513d5f823e3d90fd5b91927f3af67cf2057ba8ef414286fb626cd3efb02f74996e18efd455b39d8ec7ec460f919461592d61591f9261590b88828989615429565b604051938493606085526060850190614aa9565b908382036020850152614aa9565b4260408301520390a4565b929190835f526020906010825260409060405f20815f52835260405f20955f5b8754811015615a03578061596e6001928a614b07565b90549060031b1c61597f858261563e565b5f52600680885260ff84885f20015416156159fc5761599f898684615a0d565b906159a982615773565b156159f4576159b8878461563e565b5f5288526159c7875f20614a07565b90868683518b85012083518c850120146159ea576159e4946158d3565b01615958565b50505050506159e4565b5050506159e4565b50506159e4565b5050505050509050565b6003831015614b3d578215615a5857600191615a2891615ab9565b9114615a315790565b80516020820120615a406150c7565b6020815191012014615a4f5790565b5061481c6150e8565b50505061481c614dd8565b6001600160a01b03165f9081526001602052604090208054908115908115615aa9575b5061540a575f52600260205260ff60405f2054166006811015614b3d5760031490565b60ff91506001015416155f615a86565b90615ac39161563e565b5f52600660205260405f2060ff600160405192615adf846146bf565b615ae881614a07565b84520154161580156020830152615afd575190565b50604051615b0a81614709565b5f815290565b8251602080940120615b206150c7565b8051908501208103615b405750614a47926007915f525260405f20614d66565b615b486150e8565b8051908501208103615b685750614a47926008915f525260405f20614d66565b615b70615111565b8051908501208103615b905750614a47926009915f525260405f20614d66565b615b98614dd8565b84815191012014615ba857505050565b614a4792600a915f525260405f20614d66565b5f5b8154908181101561558d578391615bd48285614b07565b959054600396871b1c14615bee5750909250600101615bbd565b5f199250828101908111614db057614d88615c0c615c199286614b07565b905490871b1c9285614b07565b905581548015615c3e57810192615c308484614b07565b81939154921b1b1916905555565b634e487b7160e01b5f52603160045260245ffd5b905f8091602081519101845af48080615cd0575b15615c865750506040513d81523d5f602083013e60203d82010160405290565b15615cad57604051639996b31560e01b81526001600160a01b039091166004820152602490fd5b3d15615cbe576040513d5f823e3d90fd5b60405163d6bda27560e01b8152600490fd5b503d151580615c665750813b1515615c6656fea264697066735822122073d818a1344245192e2c3d426f613c1222e8ad4f61550b03220fd9529390158164736f6c63430008180033","opcodes":"PUSH1 0xA0 DUP1 PUSH1 0x40 MSTORE CALLVALUE PUSH3 0xD1 JUMPI ADDRESS PUSH1 0x80 MSTORE PUSH32 0xF0C57E16840DF040F15088DC2F81FE391C3923BEC73E23A9662EFC9C229C6A00 SWAP1 DUP2 SLOAD SWAP1 PUSH1 0xFF DUP3 PUSH1 0x40 SHR AND PUSH3 0xC2 JUMPI POP PUSH1 0x1 PUSH1 0x1 PUSH1 0x40 SHL SUB PUSH1 0x2 PUSH1 0x1 PUSH1 0x40 SHL SUB NOT DUP3 DUP3 AND ADD PUSH3 0x7C JUMPI JUMPDEST PUSH1 0x40 MLOAD PUSH2 0x5D19 SWAP1 DUP2 PUSH3 0xD6 DUP3 CODECOPY PUSH1 0x80 MLOAD DUP2 DUP2 DUP2 PUSH2 0x2A9F ADD MSTORE PUSH2 0x2EDF ADD MSTORE RETURN JUMPDEST PUSH1 0x1 PUSH1 0x1 PUSH1 0x40 SHL SUB NOT SWAP1 SWAP2 AND DUP2 OR SWAP1 SWAP2 SSTORE PUSH1 0x40 MLOAD SWAP1 DUP2 MSTORE PUSH32 0xC7F505B2F371AE2175EE4913F4499E1F2633A7B5936321EED1CDAEB6115181D2 SWAP1 PUSH1 0x20 SWAP1 LOG1 PUSH0 DUP1 DUP1 PUSH3 0x5C JUMP JUMPDEST PUSH4 0xF92EE8A9 PUSH1 0xE0 SHL DUP2 MSTORE PUSH1 0x4 SWAP1 REVERT JUMPDEST PUSH0 DUP1 REVERT INVALID PUSH1 0x80 PUSH1 0x40 SWAP1 DUP1 DUP3 MSTORE PUSH1 0x4 DUP1 CALLDATASIZE LT ISZERO PUSH2 0x15 JUMPI PUSH0 DUP1 REVERT JUMPDEST PUSH0 CALLDATALOAD PUSH1 0xE0 SHR SWAP2 DUP3 PUSH3 0xB0C809 EQ PUSH2 0x465F JUMPI POP DUP2 PUSH4 0x2BA8109 EQ PUSH2 0x458B JUMPI DUP2 PUSH4 0x33E822F EQ PUSH2 0x4522 JUMPI DUP2 PUSH4 0x519E2A0 EQ PUSH2 0x44FC JUMPI DUP2 PUSH4 0x591BDF4 EQ PUSH2 0x4197 JUMPI DUP2 PUSH4 0xB3FFD1D EQ PUSH2 0x40DA JUMPI DUP2 PUSH4 0x1C0C18D8 EQ PUSH2 0x3F73 JUMPI DUP2 PUSH4 0x1DC63201 EQ PUSH2 0x3DF4 JUMPI DUP2 PUSH4 0x259ED80E EQ PUSH2 0x3DCF JUMPI DUP2 PUSH4 0x29C9087A EQ PUSH2 0x36B7 JUMPI DUP2 PUSH4 0x2AB5D8F3 EQ PUSH2 0x364E JUMPI DUP2 PUSH4 0x2AE8511D EQ PUSH2 0x34D1 JUMPI DUP2 PUSH4 0x3256E5AB EQ PUSH2 0x3455 JUMPI DUP2 PUSH4 0x33105592 EQ PUSH2 0x3418 JUMPI DUP2 PUSH4 0x3BEFA410 EQ PUSH2 0x33FD JUMPI DUP2 PUSH4 0x41A51BAA EQ PUSH2 0x3394 JUMPI DUP2 PUSH4 0x422A5BB8 EQ PUSH2 0x3360 JUMPI DUP2 PUSH4 0x43E19704 EQ PUSH2 0x330E JUMPI DUP2 PUSH4 0x45ECD02F EQ PUSH2 0x32EE JUMPI DUP2 PUSH4 0x49DF7208 EQ PUSH2 0x31A1 JUMPI DUP2 PUSH4 0x4B6FEB7C EQ PUSH2 0x235E JUMPI DUP2 PUSH4 0x4D3C4A7C EQ PUSH2 0x308C JUMPI DUP2 PUSH4 0x4F1EF286 EQ PUSH2 0x2E8F JUMPI DUP2 PUSH4 0x51EED472 EQ PUSH2 0x2B03 JUMPI DUP2 PUSH4 0x52D1902D EQ PUSH2 0x2A8C JUMPI DUP2 PUSH4 0x557EE54F EQ PUSH2 0x29FE JUMPI DUP2 PUSH4 0x55816079 EQ PUSH2 0x29CE JUMPI DUP2 PUSH4 0x562C788E EQ PUSH2 0x64B JUMPI DUP2 PUSH4 0x64F639D4 EQ PUSH2 0x29B3 JUMPI DUP2 PUSH4 0x6544B05B EQ PUSH2 0x294A JUMPI DUP2 PUSH4 0x69AC2022 EQ PUSH2 0x274C JUMPI DUP2 PUSH4 0x6B4BED97 EQ PUSH2 0x3DA JUMPI DUP2 PUSH4 0x726D5447 EQ PUSH2 0x23FA JUMPI DUP2 PUSH4 0x75829DEF EQ PUSH2 0x237C JUMPI DUP2 PUSH4 0x790E118C EQ PUSH2 0x235E JUMPI DUP2 PUSH4 0x7B657D07 EQ PUSH2 0x2321 JUMPI DUP2 PUSH4 0x8129FC1C EQ PUSH2 0x2204 JUMPI DUP2 PUSH4 0x8776CD35 EQ PUSH2 0x21D4 JUMPI DUP2 PUSH4 0x89B08F11 EQ PUSH2 0x218F JUMPI DUP2 PUSH4 0x8DB7EDB4 EQ PUSH2 0x2140 JUMPI DUP2 PUSH4 0x93CCFBA8 EQ PUSH2 0x2110 JUMPI DUP2 PUSH4 0x9443CD80 EQ PUSH2 0x20CA JUMPI DUP2 PUSH4 0x96207E02 EQ PUSH2 0x1F79 JUMPI DUP2 PUSH4 0x9915B91F EQ PUSH2 0x1F02 JUMPI DUP2 PUSH4 0x9BE572F6 EQ PUSH2 0x19CD JUMPI DUP2 PUSH4 0x9F4216E8 EQ PUSH2 0x1EB6 JUMPI DUP2 PUSH4 0xAADDC345 EQ PUSH2 0x1E8A JUMPI DUP2 PUSH4 0xAB48384A EQ PUSH2 0x1D83 JUMPI DUP2 PUSH4 0xAD3CB1CC EQ PUSH2 0x1D3F JUMPI DUP2 PUSH4 0xB8CAB84B EQ PUSH2 0x1C64 JUMPI DUP2 PUSH4 0xBAFC8892 EQ PUSH2 0x1AA2 JUMPI DUP2 PUSH4 0xBB0F86D5 EQ PUSH2 0x19EB JUMPI DUP2 PUSH4 0xBFF1F9E1 EQ PUSH2 0x19CD JUMPI DUP2 PUSH4 0xC36DC9EF EQ PUSH2 0x1964 JUMPI DUP2 PUSH4 0xC497D840 EQ PUSH2 0x18F6 JUMPI DUP2 PUSH4 0xC7155823 EQ PUSH2 0x187A JUMPI DUP2 PUSH4 0xC88C35FE EQ PUSH2 0x1854 JUMPI DUP2 PUSH4 0xC979C9BF EQ PUSH2 0x1584 JUMPI DUP2 PUSH4 0xCB261A03 EQ PUSH2 0x1556 JUMPI DUP2 PUSH4 0xCDA06C6E EQ PUSH2 0x152F JUMPI DUP2 PUSH4 0xD12A7768 EQ PUSH2 0x1480 JUMPI DUP2 PUSH4 0xD547741F EQ PUSH2 0xFAA JUMPI DUP2 PUSH4 0xDDE492EA EQ PUSH2 0x9C5 JUMPI DUP2 PUSH4 0xE211E89C EQ PUSH2 0x955 JUMPI DUP2 PUSH4 0xE2842D79 EQ PUSH2 0x8D5 JUMPI DUP2 PUSH4 0xE6EFCD5D EQ PUSH2 0x673 JUMPI DUP2 PUSH4 0xE94ED257 EQ PUSH2 0x64B JUMPI DUP2 PUSH4 0xEEC047AA EQ PUSH2 0x5EB JUMPI DUP2 PUSH4 0xF12B9AD3 EQ PUSH2 0x40B JUMPI DUP2 PUSH4 0xF29E007B EQ PUSH2 0x3DA JUMPI POP DUP1 PUSH4 0xF32B10F0 EQ PUSH2 0x3AA JUMPI DUP1 PUSH4 0xF851A440 EQ PUSH2 0x383 JUMPI PUSH4 0xFA7A6BCC EQ PUSH2 0x342 JUMPI PUSH0 DUP1 REVERT JUMPDEST CALLVALUE PUSH2 0x37F JUMPI PUSH2 0x350 CALLDATASIZE PUSH2 0x49B9 JUMP JUMPDEST SWAP2 SWAP1 PUSH0 MSTORE PUSH1 0xB PUSH1 0x20 MSTORE DUP1 PUSH0 KECCAK256 DUP1 SLOAD DUP4 LT ISZERO PUSH2 0x37F JUMPI PUSH1 0x20 SWAP3 PUSH2 0x371 SWAP2 PUSH2 0x4B07 JUMP JUMPDEST SWAP2 SWAP1 SLOAD SWAP1 MLOAD SWAP2 PUSH1 0x3 SHL SHR DUP2 MSTORE RETURN JUMPDEST PUSH0 DUP1 REVERT JUMPDEST POP CALLVALUE PUSH2 0x37F JUMPI PUSH0 CALLDATASIZE PUSH1 0x3 NOT ADD SLT PUSH2 0x37F JUMPI PUSH0 SLOAD SWAP1 MLOAD PUSH1 0x1 PUSH1 0x1 PUSH1 0xA0 SHL SUB SWAP1 SWAP2 AND DUP2 MSTORE PUSH1 0x20 SWAP1 RETURN JUMPDEST POP CALLVALUE PUSH2 0x37F JUMPI PUSH2 0x3B9 CALLDATASIZE PUSH2 0x49B9 JUMP JUMPDEST SWAP2 SWAP1 PUSH0 MSTORE PUSH1 0x9 PUSH1 0x20 MSTORE DUP1 PUSH0 KECCAK256 DUP1 SLOAD DUP4 LT ISZERO PUSH2 0x37F JUMPI PUSH1 0x20 SWAP3 PUSH2 0x371 SWAP2 PUSH2 0x4B07 JUMP JUMPDEST DUP3 CALLVALUE PUSH2 0x37F JUMPI PUSH1 0x20 CALLDATASIZE PUSH1 0x3 NOT ADD SLT PUSH2 0x37F JUMPI PUSH1 0x20 SWAP2 CALLDATALOAD PUSH0 MSTORE PUSH1 0x2 DUP3 MSTORE PUSH2 0x409 PUSH1 0xFF DUP3 PUSH0 KECCAK256 SLOAD AND SWAP2 MLOAD DUP1 SWAP3 PUSH2 0x4B30 JUMP JUMPDEST RETURN JUMPDEST DUP3 CALLVALUE PUSH2 0x37F JUMPI DUP1 PUSH1 0x3 NOT CALLDATASIZE ADD SLT PUSH2 0x37F JUMPI DUP2 CALLDATALOAD PUSH1 0x1 PUSH1 0x1 PUSH1 0x40 SHL SUB DUP2 GT PUSH2 0x37F JUMPI PUSH2 0x439 SWAP1 CALLDATASIZE SWAP1 DUP5 ADD PUSH2 0x475C JUMP JUMPDEST SWAP2 PUSH2 0x442 PUSH2 0x46A9 JUMP JUMPDEST PUSH2 0x453 PUSH2 0x44E CALLER PUSH2 0x5397 JUMP JUMPDEST PUSH2 0x4B7E JUMP JUMPDEST PUSH1 0x1 PUSH1 0x1 PUSH1 0xA0 SHL SUB AND SWAP1 DUP2 ISZERO PUSH2 0x5B7 JUMPI POP CALLER PUSH0 MSTORE PUSH1 0x1 SWAP3 DUP4 SWAP3 PUSH1 0x20 SWAP1 PUSH1 0x1 DUP3 MSTORE DUP1 PUSH0 KECCAK256 SLOAD SWAP4 PUSH0 MSTORE DUP1 PUSH0 KECCAK256 SLOAD SWAP3 PUSH2 0x48A DUP5 ISZERO ISZERO PUSH2 0x4C05 JUMP JUMPDEST PUSH0 SWAP6 JUMPDEST PUSH2 0x493 JUMPI STOP JUMPDEST DUP1 MLOAD DUP7 LT ISZERO PUSH2 0x5B5 JUMPI DUP7 DUP7 PUSH2 0x4B3 DUP7 PUSH2 0x4AD DUP5 SWAP11 DUP7 PUSH2 0x4DC4 JUMP JUMPDEST MLOAD PUSH2 0x541F JUMP JUMPDEST ISZERO PUSH2 0x5B0 JUMPI PUSH2 0x4C6 DUP8 PUSH2 0x4AD DUP4 DUP7 PUSH2 0x4DC4 JUMP JUMPDEST ISZERO PUSH2 0x5B0 JUMPI DUP7 DUP7 PUSH2 0x4E1 DUP2 PUSH2 0x4DB DUP6 DUP9 PUSH2 0x4DC4 JUMP JUMPDEST MLOAD PUSH2 0x563E JUMP JUMPDEST DUP1 PUSH0 MSTORE PUSH1 0x6 DUP1 DUP10 MSTORE PUSH2 0x4F4 DUP9 PUSH0 KECCAK256 PUSH2 0x4A07 JUMP JUMPDEST SWAP2 DUP3 MLOAD DUP11 DUP5 ADD KECCAK256 PUSH2 0x503 PUSH2 0x50C7 JUMP JUMPDEST DUP12 DUP2 MLOAD SWAP2 ADD KECCAK256 EQ PUSH2 0x5A6 JUMPI PUSH2 0x522 DUP5 PUSH2 0x51C DUP9 DUP12 PUSH2 0x4DC4 JUMP JUMPDEST MLOAD PUSH2 0x5849 JUMP JUMPDEST PUSH2 0x5A6 JUMPI PUSH2 0x53B DUP4 DUP6 PUSH2 0x535 DUP10 DUP13 PUSH2 0x4DC4 JUMP JUMPDEST MLOAD PUSH2 0x5672 JUMP JUMPDEST PUSH0 MSTORE DUP9 MSTORE DUP5 DUP8 PUSH0 KECCAK256 ADD PUSH1 0xFF NOT DUP2 SLOAD AND SWAP1 SSTORE PUSH1 0xE DUP9 MSTORE PUSH0 DUP8 DUP2 KECCAK256 SSTORE PUSH32 0xD05ED2D3FEFF840C2ECECA71791388FD3D19DBBBBCFA97031F534A7DC09FBF1F PUSH2 0x596 PUSH2 0x583 DUP7 DUP10 PUSH2 0x4DC4 JUMP JUMPDEST MLOAD SWAP3 DUP10 MLOAD SWAP2 DUP3 SWAP2 DUP12 DUP4 MSTORE DUP12 DUP4 ADD SWAP1 PUSH2 0x4AA9 JUMP JUMPDEST TIMESTAMP DUP13 DUP4 ADD MSTORE SUB SWAP1 LOG4 JUMPDEST ADD SWAP6 PUSH2 0x48D JUMP JUMPDEST POP POP POP POP POP PUSH2 0x59F JUMP JUMPDEST PUSH2 0x59F JUMP JUMPDEST STOP JUMPDEST PUSH1 0x64 SWAP1 PUSH1 0x20 DUP5 MLOAD SWAP2 PUSH3 0x461BCD PUSH1 0xE5 SHL DUP4 MSTORE DUP3 ADD MSTORE PUSH1 0xE PUSH1 0x24 DUP3 ADD MSTORE PUSH14 0x125B9D985B1A59081DD85B1B195D PUSH1 0x92 SHL PUSH1 0x44 DUP3 ADD MSTORE REVERT JUMPDEST DUP3 CALLVALUE PUSH2 0x37F JUMPI PUSH2 0x5FA CALLDATASIZE PUSH2 0x49B9 JUMP JUMPDEST SWAP1 PUSH0 MSTORE PUSH1 0x12 PUSH1 0x20 MSTORE DUP2 PUSH0 KECCAK256 SWAP1 PUSH0 MSTORE PUSH1 0x20 MSTORE DUP1 PUSH0 KECCAK256 SWAP1 PUSH2 0x647 DUP3 SLOAD SWAP2 PUSH1 0x1 DUP5 ADD SLOAD SWAP4 PUSH1 0x3 PUSH1 0x2 DUP3 ADD SLOAD SWAP2 ADD SLOAD SWAP2 MLOAD SWAP5 DUP6 SWAP5 DUP6 SWAP1 SWAP5 SWAP4 SWAP3 PUSH1 0x60 SWAP3 PUSH1 0x80 DUP4 ADD SWAP7 DUP4 MSTORE PUSH1 0x20 DUP4 ADD MSTORE PUSH1 0x40 DUP3 ADD MSTORE ADD MSTORE JUMP JUMPDEST SUB SWAP1 RETURN JUMPDEST DUP3 CALLVALUE PUSH2 0x37F JUMPI PUSH0 CALLDATASIZE PUSH1 0x3 NOT ADD SLT PUSH2 0x37F JUMPI PUSH1 0xD SLOAD SWAP1 MLOAD PUSH1 0x1 PUSH1 0x1 PUSH1 0xA0 SHL SUB SWAP1 SWAP2 AND DUP2 MSTORE PUSH1 0x20 SWAP1 RETURN JUMPDEST DUP3 CALLVALUE PUSH2 0x37F JUMPI PUSH2 0x682 CALLDATASIZE PUSH2 0x49B9 JUMP JUMPDEST SWAP2 PUSH2 0x697 PUSH1 0x1 DUP1 PUSH1 0xA0 SHL SUB PUSH0 SLOAD AND CALLER EQ PUSH2 0x4DFA JUMP JUMPDEST DUP2 ISZERO PUSH2 0x8A1 JUMPI PUSH2 0x6A8 DUP4 ISZERO ISZERO PUSH2 0x4E77 JUMP JUMPDEST PUSH2 0x6B4 DUP4 DUP4 EQ ISZERO PUSH2 0x4EB5 JUMP JUMPDEST DUP2 PUSH0 MSTORE PUSH1 0x2 PUSH1 0x20 DUP2 DUP2 MSTORE PUSH1 0xFF DUP4 PUSH0 KECCAK256 SLOAD AND PUSH1 0x6 DUP2 LT ISZERO PUSH2 0x853 JUMPI ISZERO PUSH2 0x866 JUMPI DUP5 PUSH0 MSTORE DUP2 DUP2 MSTORE PUSH1 0xFF DUP4 PUSH0 KECCAK256 SLOAD AND PUSH1 0x6 DUP2 LT ISZERO PUSH2 0x853 JUMPI PUSH2 0x6F4 SWAP1 ISZERO ISZERO PUSH2 0x4F01 JUMP JUMPDEST DUP4 PUSH0 MSTORE PUSH1 0xF DUP2 MSTORE DUP3 PUSH0 KECCAK256 DUP6 PUSH0 MSTORE DUP2 MSTORE PUSH1 0xFF DUP4 PUSH0 KECCAK256 SLOAD AND DUP7 DUP2 LT ISZERO PUSH2 0x853 JUMPI DUP1 ISZERO SWAP1 DUP2 ISZERO PUSH2 0x848 JUMPI JUMPDEST POP ISZERO PUSH2 0x7F7 JUMPI DUP3 MLOAD PUSH2 0x72D DUP2 PUSH2 0x46BF JUMP JUMPDEST DUP3 DUP2 MSTORE DUP2 DUP2 ADD DUP4 DUP2 MSTORE DUP6 PUSH0 MSTORE PUSH1 0xF DUP4 MSTORE DUP5 PUSH0 KECCAK256 DUP8 PUSH0 MSTORE DUP4 MSTORE DUP5 PUSH0 KECCAK256 SWAP2 MLOAD DUP9 DUP2 LT ISZERO PUSH2 0x7E4 JUMPI PUSH2 0x75C SWAP1 DUP4 PUSH2 0x4F5E JUMP JUMPDEST MLOAD SWAP7 PUSH1 0x3 DUP9 LT ISZERO PUSH2 0x7D1 JUMPI POP PUSH32 0xC5B2E1BD4433EB4E9E181CC803520513D39D918C96BDDEEBCA1224E1C750963D SWAP5 SWAP6 SWAP7 PUSH2 0x795 SWAP2 PUSH2 0x4F76 JUMP JUMPDEST DUP6 DUP6 PUSH32 0x494D010FDF588A0E83D626EA6963187BDDA6F88B7007F7BF280683D3F7DEA834 DUP6 DUP1 MLOAD DUP7 DUP2 MSTORE TIMESTAMP DUP7 DUP3 ADD MSTORE LOG3 DUP3 MLOAD SWAP2 DUP3 MSTORE TIMESTAMP SWAP1 DUP3 ADD MSTORE LOG3 STOP JUMPDEST PUSH1 0x21 SWAP1 PUSH4 0x4E487B71 PUSH1 0xE0 SHL PUSH0 MSTORE MSTORE PUSH1 0x24 PUSH0 REVERT JUMPDEST PUSH1 0x21 DUP10 PUSH4 0x4E487B71 PUSH1 0xE0 SHL PUSH0 MSTORE MSTORE PUSH1 0x24 PUSH0 REVERT JUMPDEST DUP6 PUSH1 0x84 SWAP2 DUP5 MLOAD SWAP2 PUSH3 0x461BCD PUSH1 0xE5 SHL DUP4 MSTORE DUP3 ADD MSTORE PUSH1 0x26 PUSH1 0x24 DUP3 ADD MSTORE PUSH32 0x52656C6174696F6E7368697020616C726561647920616374697665206F722070 PUSH1 0x44 DUP3 ADD MSTORE PUSH6 0x656E64696E67 PUSH1 0xD0 SHL PUSH1 0x64 DUP3 ADD MSTORE REVERT JUMPDEST PUSH1 0x3 SWAP2 POP EQ DUP8 PUSH2 0x71C JUMP JUMPDEST PUSH1 0x21 DUP8 PUSH4 0x4E487B71 PUSH1 0xE0 SHL PUSH0 MSTORE MSTORE PUSH1 0x24 PUSH0 REVERT JUMPDEST DUP6 PUSH1 0x64 SWAP2 DUP5 MLOAD SWAP2 PUSH3 0x461BCD PUSH1 0xE5 SHL DUP4 MSTORE DUP3 ADD MSTORE PUSH1 0x16 PUSH1 0x24 DUP3 ADD MSTORE PUSH22 0x151C9D5CDD1BDC881B9BDD081C9959DA5CDD195C9959 PUSH1 0x52 SHL PUSH1 0x44 DUP3 ADD MSTORE REVERT JUMPDEST MLOAD PUSH3 0x461BCD PUSH1 0xE5 SHL DUP2 MSTORE PUSH1 0x20 DUP2 DUP6 ADD MSTORE PUSH1 0xF PUSH1 0x24 DUP3 ADD MSTORE PUSH15 0x24B73B30B634B2103A393AB9BA37B9 PUSH1 0x89 SHL PUSH1 0x44 DUP3 ADD MSTORE PUSH1 0x64 SWAP1 REVERT JUMPDEST DUP3 CALLVALUE PUSH2 0x37F JUMPI PUSH0 CALLDATASIZE PUSH1 0x3 NOT ADD SLT PUSH2 0x37F JUMPI DUP1 MLOAD SWAP1 DUP2 DUP4 SLOAD DUP1 DUP3 MSTORE PUSH1 0x20 DUP1 SWAP3 ADD SWAP5 PUSH0 MSTORE PUSH32 0x8A35ACFBC15FF81A39AE7D344FD709F28E8600B4AA8C65C6B64BFE7FE36BD19B SWAP2 PUSH0 SWAP1 JUMPDEST DUP3 DUP3 LT PUSH2 0x93E JUMPI PUSH2 0x647 DUP7 DUP7 PUSH2 0x934 DUP3 DUP12 SUB DUP4 PUSH2 0x4724 JUMP JUMPDEST MLOAD SWAP2 DUP3 SWAP2 DUP3 PUSH2 0x48EC JUMP JUMPDEST DUP4 SLOAD DUP8 MSTORE SWAP6 DUP7 ADD SWAP6 PUSH1 0x1 SWAP4 DUP5 ADD SWAP4 SWAP1 SWAP2 ADD SWAP1 PUSH2 0x91C JUMP JUMPDEST DUP3 CALLVALUE PUSH2 0x37F JUMPI PUSH1 0x20 SWAP1 PUSH2 0x967 CALLDATASIZE PUSH2 0x49B9 JUMP JUMPDEST SWAP1 PUSH0 MSTORE PUSH1 0x12 DUP4 MSTORE DUP2 PUSH0 KECCAK256 SWAP1 PUSH0 MSTORE DUP3 MSTORE DUP1 PUSH0 KECCAK256 SWAP1 DUP1 MLOAD PUSH2 0x985 DUP2 PUSH2 0x46EE JUMP JUMPDEST DUP3 SLOAD SWAP1 DUP2 DUP2 MSTORE PUSH1 0x60 PUSH1 0x3 PUSH1 0x1 DUP7 ADD SLOAD SWAP6 DUP7 DUP9 DUP6 ADD MSTORE PUSH1 0x2 DUP2 ADD SLOAD DUP7 DUP6 ADD MSTORE ADD SLOAD SWAP2 ADD MSTORE ISZERO ISZERO SWAP2 DUP3 PUSH2 0x9BA JUMPI JUMPDEST POP MLOAD SWAP1 ISZERO ISZERO DUP2 MSTORE RETURN JUMPDEST TIMESTAMP GT ISZERO SWAP2 POP DUP4 PUSH2 0x9B1 JUMP JUMPDEST SWAP1 POP CALLVALUE PUSH2 0x37F JUMPI PUSH2 0x9D5 CALLDATASIZE PUSH2 0x4977 JUMP JUMPDEST SWAP2 SWAP3 SWAP1 PUSH2 0x9E4 PUSH2 0x44E CALLER PUSH2 0x5397 JUMP JUMPDEST PUSH2 0x9EF DUP5 ISZERO ISZERO PUSH2 0x4F95 JUMP JUMPDEST PUSH1 0x1 PUSH1 0x1 PUSH1 0xA0 SHL SUB AND SWAP3 PUSH2 0xA04 DUP5 ISZERO ISZERO PUSH2 0x4FE1 JUMP JUMPDEST PUSH2 0xA15 PUSH2 0xA10 DUP5 PUSH2 0x5773 JUMP JUMPDEST PUSH2 0x502D JUMP JUMPDEST CALLER PUSH0 MSTORE PUSH1 0x20 SWAP2 PUSH1 0x1 DUP4 MSTORE DUP6 PUSH0 KECCAK256 SLOAD SWAP5 PUSH0 MSTORE DUP6 PUSH0 KECCAK256 SLOAD SWAP3 PUSH2 0xA36 DUP5 ISZERO ISZERO PUSH2 0x4C05 JUMP JUMPDEST DUP5 MLOAD DUP2 DUP7 ADD KECCAK256 PUSH2 0xA46 DUP8 DUP6 PUSH2 0x563E JUMP JUMPDEST PUSH0 MSTORE PUSH1 0x6 DUP3 MSTORE PUSH1 0xFF PUSH1 0x1 DUP10 PUSH0 KECCAK256 ADD SLOAD AND ISZERO PUSH2 0xF69 JUMPI DUP4 PUSH0 MSTORE PUSH1 0x7 DUP3 MSTORE DUP8 PUSH0 KECCAK256 SLOAD ISZERO ISZERO SWAP1 PUSH2 0xA7B PUSH2 0xA74 PUSH2 0x50C7 JUMP JUMPDEST DUP10 DUP8 PUSH2 0x57EB JUMP JUMPDEST SWAP2 PUSH2 0xA8E PUSH2 0xA87 PUSH2 0x50E8 JUMP JUMPDEST DUP11 DUP9 PUSH2 0x57EB JUMP JUMPDEST SWAP2 PUSH2 0xAA1 PUSH2 0xA9A PUSH2 0x5111 JUMP JUMPDEST DUP12 DUP10 PUSH2 0x57EB JUMP JUMPDEST SWAP1 PUSH2 0xAAC DUP12 DUP10 PUSH2 0x5849 JUMP JUMPDEST SWAP1 PUSH2 0xAB5 PUSH2 0x50C7 JUMP JUMPDEST DUP1 MLOAD SWAP1 DUP9 ADD KECCAK256 DUP2 SUB PUSH2 0xBF5 JUMPI POP POP POP PUSH0 EQ PUSH2 0xB9B JUMPI POP ISZERO PUSH2 0xB59 JUMPI JUMPDEST PUSH2 0xADB DUP5 DUP5 PUSH2 0x563E JUMP JUMPDEST PUSH0 MSTORE PUSH1 0x6 DUP2 MSTORE PUSH1 0xFF PUSH1 0x1 DUP9 PUSH0 KECCAK256 ADD SLOAD AND PUSH2 0xAFB JUMPI POP POP PUSH2 0x5B5 SWAP5 POP PUSH2 0x5429 JUMP JUMPDEST DUP7 MLOAD PUSH3 0x461BCD PUSH1 0xE5 SHL DUP2 MSTORE SWAP2 DUP3 ADD MSTORE PUSH1 0x33 PUSH1 0x24 DUP3 ADD MSTORE PUSH32 0x54617267657420616C726561647920686173206120726F6C652E205573652063 PUSH1 0x44 DUP3 ADD MSTORE PUSH19 0x1A185B99D9549BDB194A0A481A5B9CDD195859 PUSH1 0x6A SHL PUSH1 0x64 DUP3 ADD MSTORE PUSH1 0x84 SWAP2 POP REVERT JUMPDEST DUP7 MLOAD PUSH3 0x461BCD PUSH1 0xE5 SHL DUP2 MSTORE SWAP2 DUP3 ADD DUP2 SWAP1 MSTORE PUSH1 0x24 DUP3 ADD MSTORE PUSH32 0x4F6E6C79206F776E6572732063616E206772616E74206F776E657220726F6C65 PUSH1 0x44 DUP3 ADD MSTORE PUSH1 0x64 SWAP2 POP REVERT JUMPDEST SWAP1 POP PUSH2 0xAD1 JUMPI DUP7 MLOAD PUSH3 0x461BCD PUSH1 0xE5 SHL DUP2 MSTORE SWAP2 DUP3 ADD MSTORE PUSH1 0x29 PUSH1 0x24 DUP3 ADD MSTORE PUSH32 0x4F6E6C792061646D696E6973747261746F72732063616E206772616E74206669 PUSH1 0x44 DUP3 ADD MSTORE PUSH9 0x3939BA1037BBB732B9 PUSH1 0xB9 SHL PUSH1 0x64 DUP3 ADD MSTORE PUSH1 0x84 SWAP2 POP REVERT JUMPDEST SWAP1 SWAP2 SWAP3 POP PUSH2 0xC01 PUSH2 0x50E8 JUMP JUMPDEST DUP1 MLOAD SWAP1 DUP8 ADD KECCAK256 DUP2 SUB PUSH2 0xC93 JUMPI POP POP POP DUP2 ISZERO PUSH2 0xC8B JUMPI JUMPDEST POP ISZERO PUSH2 0xC23 JUMPI JUMPDEST PUSH2 0xAD1 JUMP JUMPDEST DUP7 MLOAD PUSH3 0x461BCD PUSH1 0xE5 SHL DUP2 MSTORE SWAP2 DUP3 ADD MSTORE PUSH1 0x3B PUSH1 0x24 DUP3 ADD MSTORE PUSH32 0x4F6E6C79206F776E65727320616E642061646D696E6973747261746F72732063 PUSH1 0x44 DUP3 ADD MSTORE PUSH32 0x616E206772616E742061646D696E6973747261746F7220726F6C650000000000 PUSH1 0x64 DUP3 ADD MSTORE PUSH1 0x84 SWAP2 POP REVERT JUMPDEST SWAP1 POP PUSH0 PUSH2 0xC17 JUMP JUMPDEST PUSH2 0xC9E SWAP5 SWAP3 SWAP5 PUSH2 0x5111 JUMP JUMPDEST DUP1 MLOAD SWAP1 DUP8 ADD KECCAK256 DUP2 SUB PUSH2 0xDF7 JUMPI POP DUP2 ISZERO SWAP2 DUP3 PUSH2 0xDF0 JUMPI JUMPDEST DUP1 ISZERO PUSH2 0xDE9 JUMPI JUMPDEST DUP1 ISZERO PUSH2 0xDE2 JUMPI JUMPDEST ISZERO PUSH2 0xD69 JUMPI DUP4 ISZERO PUSH2 0xD61 JUMPI JUMPDEST POP DUP3 PUSH2 0xD59 JUMPI JUMPDEST POP DUP2 PUSH2 0xD50 JUMPI JUMPDEST POP ISZERO PUSH2 0xAD1 JUMPI PUSH2 0xCEC DUP7 DUP5 PUSH2 0x5AB9 JUMP JUMPDEST MLOAD PUSH2 0xC1E JUMPI DUP7 MLOAD PUSH3 0x461BCD PUSH1 0xE5 SHL DUP2 MSTORE SWAP2 DUP3 ADD MSTORE PUSH1 0x34 PUSH1 0x24 DUP3 ADD MSTORE PUSH32 0x4D757374206861766520616E2061637469766520726F6C6520746F206772616E PUSH1 0x44 DUP3 ADD MSTORE PUSH20 0x7420736861726572207065726D697373696F6E73 PUSH1 0x60 SHL PUSH1 0x64 DUP3 ADD MSTORE PUSH1 0x84 SWAP2 POP REVERT JUMPDEST SWAP1 POP ISZERO PUSH0 PUSH2 0xCDC JUMP JUMPDEST SWAP2 POP PUSH0 PUSH2 0xCD5 JUMP JUMPDEST SWAP3 POP PUSH0 PUSH2 0xCCE JUMP JUMPDEST DUP11 MLOAD PUSH3 0x461BCD PUSH1 0xE5 SHL DUP2 MSTORE DUP1 DUP8 ADD DUP7 SWAP1 MSTORE PUSH1 0x47 PUSH1 0x24 DUP3 ADD MSTORE PUSH32 0x4F6E6C79206F776E6572732C2061646D696E6973747261746F72732C20736861 PUSH1 0x44 DUP3 ADD MSTORE PUSH32 0x726572732C206F72207375626A656374732063616E206772616E742073686172 PUSH1 0x64 DUP3 ADD MSTORE PUSH7 0x657220726F6C65 PUSH1 0xC8 SHL PUSH1 0x84 DUP3 ADD MSTORE PUSH1 0xA4 SWAP1 REVERT JUMPDEST POP DUP1 PUSH2 0xCC2 JUMP JUMPDEST POP DUP4 PUSH2 0xCBB JUMP JUMPDEST POP DUP3 PUSH2 0xCB4 JUMP JUMPDEST PUSH2 0xDFF PUSH2 0x4DD8 JUMP JUMPDEST DUP7 DUP2 MLOAD SWAP2 ADD KECCAK256 EQ PUSH2 0xE14 JUMPI JUMPDEST POP POP POP POP PUSH2 0xAD1 JUMP JUMPDEST DUP2 ISZERO SWAP2 DUP3 PUSH2 0xF62 JUMPI JUMPDEST DUP1 ISZERO PUSH2 0xF5B JUMPI JUMPDEST DUP1 ISZERO PUSH2 0xF54 JUMPI JUMPDEST ISZERO PUSH2 0xEDB JUMPI DUP4 ISZERO PUSH2 0xED3 JUMPI JUMPDEST POP DUP3 PUSH2 0xECB JUMPI JUMPDEST POP DUP2 PUSH2 0xEC2 JUMPI JUMPDEST POP PUSH2 0xE54 JUMPI JUMPDEST PUSH0 DUP1 DUP1 DUP1 PUSH2 0xE0B JUMP JUMPDEST PUSH2 0xE5E DUP7 DUP5 PUSH2 0x5AB9 JUMP JUMPDEST MLOAD PUSH2 0xE4B JUMPI DUP7 MLOAD PUSH3 0x461BCD PUSH1 0xE5 SHL DUP2 MSTORE SWAP2 DUP3 ADD MSTORE PUSH1 0x34 PUSH1 0x24 DUP3 ADD MSTORE PUSH32 0x4D757374206861766520616E2061637469766520726F6C6520746F206772616E PUSH1 0x44 DUP3 ADD MSTORE PUSH20 0x7420766965776572207065726D697373696F6E73 PUSH1 0x60 SHL PUSH1 0x64 DUP3 ADD MSTORE PUSH1 0x84 SWAP2 POP REVERT JUMPDEST SWAP1 POP ISZERO PUSH0 PUSH2 0xE45 JUMP JUMPDEST SWAP2 POP PUSH0 PUSH2 0xE3E JUMP JUMPDEST SWAP3 POP PUSH0 PUSH2 0xE37 JUMP JUMPDEST DUP11 MLOAD PUSH3 0x461BCD PUSH1 0xE5 SHL DUP2 MSTORE DUP1 DUP8 ADD DUP7 SWAP1 MSTORE PUSH1 0x47 PUSH1 0x24 DUP3 ADD MSTORE PUSH32 0x4F6E6C79206F776E6572732C2061646D696E6973747261746F72732C20736861 PUSH1 0x44 DUP3 ADD MSTORE PUSH32 0x726572732C206F72207375626A656374732063616E206772616E742076696577 PUSH1 0x64 DUP3 ADD MSTORE PUSH7 0x657220726F6C65 PUSH1 0xC8 SHL PUSH1 0x84 DUP3 ADD MSTORE PUSH1 0xA4 SWAP1 REVERT JUMPDEST POP DUP1 PUSH2 0xE2B JUMP JUMPDEST POP DUP4 PUSH2 0xE24 JUMP JUMPDEST POP DUP3 PUSH2 0xE1D JUMP JUMPDEST PUSH1 0x64 DUP4 DUP4 DUP1 DUP12 MLOAD SWAP3 PUSH3 0x461BCD PUSH1 0xE5 SHL DUP5 MSTORE DUP4 ADD MSTORE PUSH1 0x24 DUP3 ADD MSTORE PUSH32 0x596F752068617665206E6F20726F6C6520666F722074686973207265636F7264 PUSH1 0x44 DUP3 ADD MSTORE REVERT JUMPDEST DUP3 CALLVALUE PUSH2 0x37F JUMPI DUP1 PUSH1 0x3 NOT CALLDATASIZE ADD SLT PUSH2 0x37F JUMPI DUP2 CALLDATALOAD PUSH2 0xFC5 PUSH2 0x46A9 JUMP JUMPDEST PUSH2 0xFD0 DUP3 ISZERO ISZERO PUSH2 0x4F95 JUMP JUMPDEST PUSH1 0x1 PUSH1 0x1 PUSH1 0xA0 SHL SUB AND SWAP3 PUSH2 0xFE5 DUP5 ISZERO ISZERO PUSH2 0x4FE1 JUMP JUMPDEST CALLER PUSH0 MSTORE PUSH1 0x20 SWAP3 PUSH1 0x1 DUP5 MSTORE DUP1 PUSH0 KECCAK256 SLOAD SWAP5 PUSH0 MSTORE DUP1 PUSH0 KECCAK256 SLOAD SWAP4 PUSH2 0x1006 DUP6 ISZERO ISZERO PUSH2 0x4C05 JUMP JUMPDEST PUSH2 0x1010 DUP6 DUP6 PUSH2 0x563E JUMP JUMPDEST DUP1 PUSH0 MSTORE PUSH1 0x6 DUP3 MSTORE PUSH2 0x1029 PUSH1 0xFF PUSH1 0x1 DUP6 PUSH0 KECCAK256 ADD SLOAD AND PUSH2 0x506F JUMP JUMPDEST DUP1 PUSH0 MSTORE PUSH1 0x6 DUP3 MSTORE PUSH2 0x103B DUP4 PUSH0 KECCAK256 PUSH2 0x4A07 JUMP JUMPDEST SWAP4 DUP5 MLOAD DUP4 DUP7 ADD KECCAK256 PUSH2 0x104A PUSH2 0x50C7 JUMP JUMPDEST DUP5 DUP2 MLOAD SWAP2 ADD KECCAK256 DUP2 EQ PUSH2 0x1409 JUMPI PUSH2 0x1060 DUP9 DUP9 PUSH2 0x5849 JUMP JUMPDEST PUSH2 0x137A JUMPI DUP8 DUP10 SUB PUSH2 0x1181 JUMPI JUMPDEST PUSH2 0x1074 PUSH2 0x50E8 JUMP JUMPDEST DUP5 DUP2 MLOAD SWAP2 ADD KECCAK256 EQ PUSH2 0x10EC JUMPI JUMPDEST POP SWAP1 DUP4 SWAP3 SWAP2 PUSH2 0x10B1 PUSH32 0xD05ED2D3FEFF840C2ECECA71791388FD3D19DBBBBCFA97031F534A7DC09FBF1F SWAP6 DUP9 DUP9 PUSH2 0x5672 JUMP JUMPDEST PUSH0 MSTORE PUSH1 0x6 DUP2 MSTORE PUSH1 0x1 DUP3 PUSH0 KECCAK256 ADD PUSH1 0xFF NOT DUP2 SLOAD AND SWAP1 SSTORE PUSH1 0xE DUP2 MSTORE PUSH0 DUP3 DUP2 KECCAK256 SSTORE PUSH2 0x10E1 DUP3 MLOAD SWAP4 DUP4 DUP6 SWAP5 DUP6 MSTORE DUP5 ADD SWAP1 PUSH2 0x4AA9 JUMP JUMPDEST SWAP1 TIMESTAMP SWAP1 DUP4 ADD MSTORE SUB SWAP1 LOG4 STOP JUMPDEST DUP6 PUSH0 MSTORE PUSH1 0x8 DUP4 MSTORE PUSH1 0x1 DUP5 PUSH0 KECCAK256 SLOAD GT PUSH1 0x7 DUP5 MSTORE DUP5 PUSH0 KECCAK256 SLOAD ISZERO ISZERO DUP2 ISZERO PUSH2 0x1179 JUMPI JUMPDEST POP PUSH2 0x1080 JUMPI DUP4 MLOAD PUSH3 0x461BCD PUSH1 0xE5 SHL DUP2 MSTORE SWAP1 DUP2 ADD DUP4 SWAP1 MSTORE PUSH1 0x39 PUSH1 0x24 DUP3 ADD MSTORE PUSH32 0x43616E6E6F74207265766F6B65206C6173742061646D696E6973747261746F72 PUSH1 0x44 DUP3 ADD MSTORE PUSH32 0x20776974686F757420616E206F776E65722070726573656E7400000000000000 PUSH1 0x64 DUP3 ADD MSTORE PUSH1 0x84 SWAP1 REVERT JUMPDEST SWAP1 POP DUP10 PUSH2 0x110B JUMP JUMPDEST PUSH2 0x1193 PUSH2 0x118C PUSH2 0x50C7 JUMP JUMPDEST DUP11 DUP10 PUSH2 0x57EB JUMP JUMPDEST PUSH2 0x11A5 PUSH2 0x119E PUSH2 0x50E8 JUMP JUMPDEST DUP12 DUP11 PUSH2 0x57EB JUMP JUMPDEST DUP5 PUSH0 MSTORE PUSH1 0xE DUP7 MSTORE DUP11 DUP8 PUSH0 KECCAK256 SLOAD EQ SWAP1 PUSH2 0x11BB PUSH2 0x4DD8 JUMP JUMPDEST DUP8 DUP2 MLOAD SWAP2 ADD KECCAK256 DUP5 EQ DUP1 ISZERO PUSH2 0x1364 JUMPI JUMPDEST ISZERO PUSH2 0x1276 JUMPI DUP3 ISZERO PUSH2 0x126E JUMPI JUMPDEST POP DUP2 ISZERO PUSH2 0x1266 JUMPI JUMPDEST POP ISZERO PUSH2 0x11EA JUMPI JUMPDEST PUSH2 0x106C JUMP JUMPDEST DUP5 MLOAD PUSH3 0x461BCD PUSH1 0xE5 SHL DUP2 MSTORE DUP1 DUP4 ADD DUP6 SWAP1 MSTORE PUSH1 0x4A PUSH1 0x24 DUP3 ADD MSTORE PUSH32 0x4F6E6C79206F776E6572732C2061646D696E6973747261746F72732C206F7220 PUSH1 0x44 DUP3 ADD MSTORE PUSH32 0x746865206772616E7465722063616E207265766F6B65207669657765722F7368 PUSH1 0x64 DUP3 ADD MSTORE PUSH10 0x6172657220726F6C6573 PUSH1 0xB0 SHL PUSH1 0x84 DUP3 ADD MSTORE PUSH1 0xA4 SWAP1 REVERT JUMPDEST SWAP1 POP DUP11 PUSH2 0x11DE JUMP JUMPDEST SWAP2 POP DUP12 PUSH2 0x11D6 JUMP JUMPDEST DUP3 ISZERO SWAP3 SWAP2 POP DUP3 PUSH2 0x135C JUMPI JUMPDEST POP ISZERO PUSH2 0x1301 JUMPI ISZERO PUSH2 0x106C JUMPI PUSH2 0x1294 PUSH2 0x50E8 JUMP JUMPDEST DUP5 DUP2 MLOAD SWAP2 ADD KECCAK256 DUP2 SUB PUSH2 0x11E5 JUMPI DUP7 PUSH0 MSTORE PUSH1 0x7 DUP5 MSTORE DUP5 PUSH0 KECCAK256 SLOAD ISZERO PUSH2 0x11E5 JUMPI DUP5 MLOAD PUSH3 0x461BCD PUSH1 0xE5 SHL DUP2 MSTORE DUP1 DUP4 ADD DUP6 SWAP1 MSTORE PUSH1 0x25 PUSH1 0x24 DUP3 ADD MSTORE PUSH32 0x4F6E6C79206F776E6572732063616E207265766F6B652061646D696E69737472 PUSH1 0x44 DUP3 ADD MSTORE PUSH5 0x61746F7273 PUSH1 0xD8 SHL PUSH1 0x64 DUP3 ADD MSTORE PUSH1 0x84 SWAP1 REVERT JUMPDEST DUP6 MLOAD PUSH3 0x461BCD PUSH1 0xE5 SHL DUP2 MSTORE DUP1 DUP5 ADD DUP7 SWAP1 MSTORE PUSH1 0x2F PUSH1 0x24 DUP3 ADD MSTORE PUSH32 0x4F6E6C79206F776E65727320616E642061646D696E6973747261746F72732063 PUSH1 0x44 DUP3 ADD MSTORE PUSH15 0x616E207265766F6B6520726F6C6573 PUSH1 0x88 SHL PUSH1 0x64 DUP3 ADD MSTORE PUSH1 0x84 SWAP1 REVERT JUMPDEST SWAP1 POP DUP12 PUSH2 0x1281 JUMP JUMPDEST POP PUSH2 0x136D PUSH2 0x5111 JUMP JUMPDEST DUP8 DUP2 MLOAD SWAP2 ADD KECCAK256 DUP5 EQ PUSH2 0x11CA JUMP JUMPDEST DUP5 MLOAD PUSH3 0x461BCD PUSH1 0xE5 SHL DUP2 MSTORE DUP1 DUP4 ADD DUP6 SWAP1 MSTORE PUSH1 0x57 PUSH1 0x24 DUP3 ADD MSTORE PUSH32 0x43616E6E6F74207265766F6B6520616E20616374697665207375626A65637427 PUSH1 0x44 DUP3 ADD MSTORE PUSH32 0x7320726F6C652E20416374697665207375626A65637473206D75737420686F6C PUSH1 0x64 DUP3 ADD MSTORE PUSH32 0x64206174206C656173742073686172657220726F6C652E000000000000000000 PUSH1 0x84 DUP3 ADD MSTORE PUSH1 0xA4 SWAP1 REVERT JUMPDEST DUP5 MLOAD PUSH3 0x461BCD PUSH1 0xE5 SHL DUP2 MSTORE DUP1 DUP4 ADD DUP6 SWAP1 MSTORE PUSH1 0x45 PUSH1 0x24 DUP3 ADD MSTORE PUSH32 0x4F776E6572732063616E6E6F74206265207265766F6B65642E204F776E657220 PUSH1 0x44 DUP3 ADD MSTORE PUSH32 0x6D7573742075736520766F6C756E746172696C794C656176654F776E65727368 PUSH1 0x64 DUP3 ADD MSTORE PUSH5 0x34B8141497 PUSH1 0xD9 SHL PUSH1 0x84 DUP3 ADD MSTORE PUSH1 0xA4 SWAP1 REVERT JUMPDEST SWAP1 POP CALLVALUE PUSH2 0x37F JUMPI PUSH1 0x20 SWAP1 DUP2 PUSH1 0x3 NOT CALLDATASIZE ADD SLT PUSH2 0x37F JUMPI DUP3 SWAP1 CALLDATALOAD PUSH0 MSTORE PUSH1 0x3 DUP3 MSTORE DUP1 PUSH0 KECCAK256 DUP2 MLOAD SWAP3 DUP4 DUP2 DUP4 SLOAD SWAP2 DUP3 DUP2 MSTORE ADD SWAP1 DUP2 SWAP4 PUSH0 MSTORE DUP3 PUSH0 KECCAK256 SWAP1 PUSH0 JUMPDEST DUP2 DUP2 LT PUSH2 0x1512 JUMPI POP POP POP DUP5 PUSH2 0x14CE SWAP2 SUB DUP6 PUSH2 0x4724 JUMP JUMPDEST DUP3 MLOAD DUP2 DUP2 MSTORE SWAP4 MLOAD DUP2 DUP6 ADD DUP2 SWAP1 MSTORE DUP5 SWAP4 DUP5 ADD SWAP3 SWAP2 PUSH0 JUMPDEST DUP3 DUP2 LT PUSH2 0x14F2 JUMPI POP POP POP POP SUB SWAP1 RETURN JUMPDEST DUP4 MLOAD PUSH1 0x1 PUSH1 0x1 PUSH1 0xA0 SHL SUB AND DUP6 MSTORE DUP7 SWAP6 POP SWAP4 DUP2 ADD SWAP4 SWAP3 DUP2 ADD SWAP3 PUSH1 0x1 ADD PUSH2 0x14E3 JUMP JUMPDEST DUP3 SLOAD PUSH1 0x1 PUSH1 0x1 PUSH1 0xA0 SHL SUB AND DUP5 MSTORE SWAP3 DUP5 ADD SWAP3 PUSH1 0x1 SWAP3 DUP4 ADD SWAP3 ADD PUSH2 0x14B8 JUMP JUMPDEST DUP3 CALLVALUE PUSH2 0x37F JUMPI PUSH1 0x20 CALLDATASIZE PUSH1 0x3 NOT ADD SLT PUSH2 0x37F JUMPI PUSH1 0x20 SWAP2 CALLDATALOAD PUSH0 MSTORE PUSH1 0xE DUP3 MSTORE DUP1 PUSH0 KECCAK256 SLOAD SWAP1 MLOAD SWAP1 DUP2 MSTORE RETURN JUMPDEST DUP3 CALLVALUE PUSH2 0x37F JUMPI PUSH1 0x20 CALLDATASIZE PUSH1 0x3 NOT ADD SLT PUSH2 0x37F JUMPI PUSH1 0x20 SWAP1 PUSH2 0x157B PUSH2 0x1576 PUSH2 0x4693 JUMP JUMPDEST PUSH2 0x5A63 JUMP JUMPDEST SWAP1 MLOAD SWAP1 ISZERO ISZERO DUP2 MSTORE RETURN JUMPDEST SWAP1 POP CALLVALUE PUSH2 0x37F JUMPI PUSH2 0x1594 CALLDATASIZE PUSH2 0x49B9 JUMP JUMPDEST PUSH2 0x15A3 PUSH2 0x44E SWAP5 SWAP3 SWAP5 CALLER PUSH2 0x5397 JUMP JUMPDEST CALLER PUSH0 MSTORE PUSH1 0x1 SWAP4 PUSH1 0x20 SWAP4 DUP6 DUP6 MSTORE DUP4 PUSH0 KECCAK256 SLOAD SWAP1 DUP3 DUP3 EQ DUP1 ISZERO PUSH2 0x184B JUMPI JUMPDEST ISZERO PUSH2 0x180A JUMPI DUP3 PUSH0 MSTORE PUSH1 0xF DUP7 MSTORE DUP5 PUSH0 KECCAK256 DUP5 PUSH0 MSTORE DUP7 MSTORE PUSH1 0xFF SWAP1 PUSH1 0xFF DUP7 PUSH0 KECCAK256 SLOAD AND DUP2 DUP2 LT ISZERO PUSH2 0x17F7 JUMPI DUP9 PUSH1 0x2 DUP3 EQ SWAP2 DUP3 ISZERO PUSH2 0x17ED JUMPI JUMPDEST POP POP ISZERO PUSH2 0x17A0 JUMPI POP SWAP1 DUP7 SWAP2 DUP4 PUSH0 MSTORE PUSH1 0xF DUP8 MSTORE DUP6 PUSH0 KECCAK256 DUP6 PUSH0 MSTORE DUP8 MSTORE DUP6 PUSH0 KECCAK256 SWAP1 PUSH1 0x3 PUSH1 0xFF NOT SWAP3 PUSH1 0x3 DUP5 DUP3 SLOAD AND OR SWAP1 SSTORE DUP4 DUP8 DUP8 PUSH32 0x6DF3A6475FAB2EED139F7E469995B04E85BFC5B4B8642587109CB72541F74FAE DUP13 DUP13 MLOAD TIMESTAMP DUP2 MSTORE LOG4 DUP6 PUSH0 MSTORE PUSH1 0x10 DUP10 MSTORE DUP8 PUSH0 KECCAK256 DUP8 PUSH0 MSTORE DUP10 MSTORE DUP8 PUSH0 KECCAK256 DUP9 DUP7 PUSH0 SWAP1 JUMPDEST PUSH2 0x16A7 JUMPI JUMPDEST POP POP POP POP POP POP POP POP PUSH0 MSTORE PUSH1 0x10 DUP4 MSTORE DUP2 PUSH0 KECCAK256 SWAP1 PUSH0 MSTORE DUP3 MSTORE PUSH0 KECCAK256 SWAP1 DUP2 SLOAD SWAP2 PUSH0 DUP2 SSTORE DUP3 PUSH2 0x168B JUMPI STOP JUMPDEST PUSH0 MSTORE PUSH0 KECCAK256 SWAP1 DUP2 ADD SWAP1 JUMPDEST DUP2 DUP2 LT PUSH2 0x169D JUMPI STOP JUMPDEST PUSH0 DUP2 SSTORE DUP3 ADD PUSH2 0x1694 JUMP JUMPDEST DUP12 DUP11 DUP5 SLOAD DUP4 LT ISZERO PUSH2 0x1799 JUMPI DUP10 SWAP4 DUP10 SWAP3 PUSH2 0x16C0 DUP6 DUP9 PUSH2 0x4B07 JUMP JUMPDEST SWAP1 SLOAD SWAP1 DUP10 SHL SHR SWAP2 DUP14 PUSH0 MSTORE PUSH1 0x11 DUP3 MSTORE DUP1 PUSH0 KECCAK256 DUP5 PUSH0 MSTORE DUP3 MSTORE DUP1 PUSH0 KECCAK256 DUP4 PUSH0 MSTORE DUP3 MSTORE DUP1 PUSH0 KECCAK256 DUP12 DUP2 SLOAD AND SWAP1 SSTORE PUSH2 0x16F1 DUP5 DUP5 PUSH2 0x563E JUMP JUMPDEST PUSH0 MSTORE PUSH1 0x6 SWAP1 DUP2 DUP4 MSTORE DUP11 DUP9 DUP3 PUSH0 KECCAK256 ADD SLOAD AND ISZERO PUSH2 0x178E JUMPI PUSH32 0xD05ED2D3FEFF840C2ECECA71791388FD3D19DBBBBCFA97031F534A7DC09FBF1F SWAP3 PUSH2 0x1732 DUP7 DUP7 PUSH2 0x563E JUMP JUMPDEST SWAP3 DUP4 PUSH0 MSTORE DUP1 DUP3 MSTORE PUSH2 0x1744 DUP4 PUSH0 KECCAK256 PUSH2 0x4A07 JUMP JUMPDEST SWAP4 PUSH2 0x1750 DUP6 DUP10 DUP10 PUSH2 0x5672 JUMP JUMPDEST PUSH0 MSTORE DUP2 MSTORE DUP9 DUP3 PUSH0 KECCAK256 ADD DUP14 DUP2 SLOAD AND SWAP1 SSTORE PUSH1 0xE DUP2 MSTORE PUSH0 DUP3 DUP2 KECCAK256 SSTORE PUSH2 0x177B DUP3 MLOAD SWAP4 DUP4 DUP6 SWAP5 DUP6 MSTORE DUP5 ADD SWAP1 PUSH2 0x4AA9 JUMP JUMPDEST SWAP1 TIMESTAMP SWAP1 DUP4 ADD MSTORE SUB SWAP1 LOG4 JUMPDEST ADD DUP10 SWAP1 DUP8 PUSH2 0x1660 JUMP JUMPDEST POP POP POP POP POP POP PUSH2 0x1785 JUMP JUMPDEST POP POP PUSH2 0x1665 JUMP JUMPDEST DUP6 MLOAD PUSH3 0x461BCD PUSH1 0xE5 SHL DUP2 MSTORE SWAP1 DUP2 ADD DUP8 SWAP1 MSTORE PUSH1 0x21 PUSH1 0x24 DUP3 ADD MSTORE PUSH32 0x4E6F20616374697665206F722070656E64696E672072656C6174696F6E736869 PUSH1 0x44 DUP3 ADD MSTORE PUSH1 0x7 PUSH1 0xFC SHL PUSH1 0x64 DUP3 ADD MSTORE PUSH1 0x84 SWAP1 REVERT JUMPDEST EQ SWAP1 POP DUP9 PUSH0 PUSH2 0x15F1 JUMP JUMPDEST PUSH1 0x21 DUP3 PUSH4 0x4E487B71 PUSH1 0xE0 SHL PUSH0 MSTORE MSTORE PUSH1 0x24 PUSH0 REVERT JUMPDEST PUSH1 0x64 SWAP1 DUP7 DUP1 DUP8 MLOAD SWAP3 PUSH3 0x461BCD PUSH1 0xE5 SHL DUP5 MSTORE DUP4 ADD MSTORE PUSH1 0x24 DUP3 ADD MSTORE PUSH32 0x4E6F74206120706172747920746F20746869732072656C6174696F6E73686970 PUSH1 0x44 DUP3 ADD MSTORE REVERT JUMPDEST POP DUP4 DUP3 EQ PUSH2 0x15BE JUMP JUMPDEST DUP3 CALLVALUE PUSH2 0x37F JUMPI DUP1 PUSH1 0x3 NOT CALLDATASIZE ADD SLT PUSH2 0x37F JUMPI PUSH2 0x157B PUSH1 0x20 SWAP3 PUSH2 0x1873 PUSH2 0x46A9 JUMP JUMPDEST SWAP1 CALLDATALOAD PUSH2 0x535A JUMP JUMPDEST DUP3 CALLVALUE PUSH2 0x37F JUMPI PUSH1 0x20 CALLDATASIZE PUSH1 0x3 NOT ADD SLT PUSH2 0x37F JUMPI PUSH32 0xCE59AD7D6DABE8A7533ED7D9BD07D276A046AC7AC9A8E8E8971DA4B81104A28B PUSH1 0x20 PUSH2 0x18B7 PUSH2 0x4693 JUMP JUMPDEST PUSH0 SLOAD PUSH1 0x1 PUSH1 0x1 PUSH1 0xA0 SHL SUB SWAP2 SWAP1 PUSH2 0x18D0 SWAP1 DUP4 AND CALLER EQ PUSH2 0x4DFA JUMP JUMPDEST AND SWAP3 PUSH2 0x18DD DUP5 ISZERO ISZERO PUSH2 0x531C JUMP JUMPDEST PUSH1 0xD DUP1 SLOAD PUSH1 0x1 PUSH1 0x1 PUSH1 0xA0 SHL SUB NOT AND DUP6 OR SWAP1 SSTORE MLOAD TIMESTAMP DUP2 MSTORE LOG2 STOP JUMPDEST DUP3 CALLVALUE PUSH2 0x37F JUMPI PUSH2 0x1905 CALLDATASIZE PUSH2 0x49B9 JUMP JUMPDEST SWAP1 PUSH0 MSTORE PUSH1 0x20 SWAP1 PUSH1 0x10 PUSH1 0x20 MSTORE DUP3 PUSH0 KECCAK256 SWAP1 PUSH0 MSTORE PUSH1 0x20 MSTORE DUP2 PUSH0 KECCAK256 SWAP2 DUP1 MLOAD SWAP2 DUP3 PUSH1 0x20 DUP6 SLOAD SWAP2 DUP3 DUP2 MSTORE ADD SWAP5 PUSH0 MSTORE PUSH1 0x20 PUSH0 KECCAK256 SWAP2 PUSH0 SWAP1 JUMPDEST DUP3 DUP3 LT PUSH2 0x194D JUMPI PUSH2 0x647 DUP7 DUP7 PUSH2 0x934 DUP3 DUP12 SUB DUP4 PUSH2 0x4724 JUMP JUMPDEST DUP4 SLOAD DUP8 MSTORE SWAP6 DUP7 ADD SWAP6 PUSH1 0x1 SWAP4 DUP5 ADD SWAP4 SWAP1 SWAP2 ADD SWAP1 PUSH2 0x1935 JUMP JUMPDEST SWAP1 POP CALLVALUE PUSH2 0x37F JUMPI PUSH1 0x20 SWAP1 PUSH1 0x20 PUSH1 0x3 NOT CALLDATASIZE ADD SLT PUSH2 0x37F JUMPI CALLDATALOAD PUSH0 MSTORE PUSH1 0x7 PUSH1 0x20 MSTORE DUP2 PUSH0 KECCAK256 SWAP2 DUP1 MLOAD SWAP2 DUP3 PUSH1 0x20 DUP6 SLOAD SWAP2 DUP3 DUP2 MSTORE ADD SWAP5 PUSH0 MSTORE PUSH1 0x20 PUSH0 KECCAK256 SWAP2 PUSH0 SWAP1 JUMPDEST DUP3 DUP3 LT PUSH2 0x19B6 JUMPI PUSH2 0x647 DUP7 DUP7 PUSH2 0x934 DUP3 DUP12 SUB DUP4 PUSH2 0x4724 JUMP JUMPDEST DUP4 SLOAD DUP8 MSTORE SWAP6 DUP7 ADD SWAP6 PUSH1 0x1 SWAP4 DUP5 ADD SWAP4 SWAP1 SWAP2 ADD SWAP1 PUSH2 0x199E JUMP JUMPDEST DUP3 CALLVALUE PUSH2 0x37F JUMPI PUSH0 CALLDATASIZE PUSH1 0x3 NOT ADD SLT PUSH2 0x37F JUMPI PUSH1 0x20 SWAP1 PUSH1 0x5 SLOAD SWAP1 MLOAD SWAP1 DUP2 MSTORE RETURN JUMPDEST SWAP1 POP CALLVALUE PUSH2 0x37F JUMPI PUSH1 0x20 CALLDATASIZE PUSH1 0x3 NOT ADD SLT PUSH2 0x37F JUMPI PUSH2 0x1A06 PUSH2 0x4693 JUMP JUMPDEST PUSH0 SLOAD PUSH1 0x1 PUSH1 0x1 PUSH1 0xA0 SHL SUB SWAP2 SWAP1 PUSH2 0x1A1F SWAP1 DUP4 AND CALLER EQ PUSH2 0x4DFA JUMP JUMPDEST AND DUP1 PUSH0 MSTORE PUSH1 0x1 SWAP2 DUP3 PUSH1 0x20 MSTORE PUSH2 0x1A38 DUP5 PUSH0 KECCAK256 SLOAD ISZERO ISZERO PUSH2 0x4E33 JUMP JUMPDEST DUP2 PUSH0 MSTORE DUP3 PUSH1 0x20 MSTORE PUSH1 0xFF DUP4 DUP6 PUSH0 KECCAK256 ADD SLOAD AND PUSH2 0x1A67 JUMPI POP SWAP2 DUP2 SWAP3 PUSH0 MSTORE DUP2 PUSH1 0x20 MSTORE PUSH0 KECCAK256 ADD SWAP1 PUSH1 0xFF NOT DUP3 SLOAD AND OR SWAP1 SSTORE PUSH0 DUP1 RETURN JUMPDEST PUSH1 0x64 SWAP1 PUSH1 0x20 DUP6 MLOAD SWAP2 PUSH3 0x461BCD PUSH1 0xE5 SHL DUP4 MSTORE DUP3 ADD MSTORE PUSH1 0x15 PUSH1 0x24 DUP3 ADD MSTORE PUSH21 0x57616C6C657420616C726561647920616374697665 PUSH1 0x58 SHL PUSH1 0x44 DUP3 ADD MSTORE REVERT JUMPDEST DUP3 CALLVALUE PUSH2 0x37F JUMPI PUSH2 0x1AB1 CALLDATASIZE PUSH2 0x4946 JUMP JUMPDEST SWAP2 SWAP1 SWAP3 PUSH2 0x1AC0 PUSH2 0x44E CALLER PUSH2 0x5397 JUMP JUMPDEST CALLER PUSH0 MSTORE PUSH1 0x1 SWAP3 PUSH1 0x20 SWAP1 DUP5 DUP3 MSTORE DUP4 PUSH0 KECCAK256 SLOAD SWAP1 DUP1 PUSH0 MSTORE PUSH1 0xF DUP4 MSTORE DUP5 PUSH0 KECCAK256 DUP3 PUSH0 MSTORE DUP4 MSTORE DUP5 PUSH0 KECCAK256 SWAP1 DUP6 MLOAD SWAP2 PUSH2 0x1AF0 DUP4 PUSH2 0x46BF JUMP JUMPDEST SLOAD SWAP5 PUSH1 0xFF SWAP3 PUSH2 0x1B02 PUSH1 0xFF DUP9 AND DUP3 PUSH2 0x4F46 JUMP JUMPDEST PUSH2 0x1B15 PUSH1 0xFF DUP8 DUP4 ADD SWAP9 PUSH1 0x8 SHR AND DUP9 PUSH2 0x4F52 JUMP JUMPDEST MLOAD SWAP9 DUP2 DUP11 LT ISZERO PUSH2 0x17F7 JUMPI PUSH2 0x1B2C PUSH1 0x2 DUP11 SWAP12 EQ PUSH2 0x52AB JUMP JUMPDEST PUSH0 SWAP10 JUMPDEST PUSH2 0x1B35 JUMPI STOP JUMPDEST DUP1 MLOAD DUP11 LT ISZERO PUSH2 0x5B5 JUMPI PUSH2 0x1B48 DUP11 DUP3 PUSH2 0x4DC4 JUMP JUMPDEST MLOAD SWAP10 DUP8 MLOAD PUSH1 0x3 DUP2 LT ISZERO PUSH2 0x1C51 JUMPI SWAP1 DUP12 DUP9 DUP7 DUP9 DUP15 SWAP16 DUP16 SWAP7 DUP16 SWAP1 PUSH2 0x1B6D DUP15 SWAP2 DUP7 DUP12 SWAP6 PUSH2 0x5A0D JUMP JUMPDEST SWAP6 PUSH2 0x1B77 DUP8 PUSH2 0x5773 JUMP JUMPDEST ISZERO PUSH2 0x1C44 JUMPI PUSH2 0x1B86 DUP7 DUP10 PUSH2 0x563E JUMP JUMPDEST PUSH0 MSTORE PUSH1 0x6 SWAP2 DUP3 DUP3 MSTORE DUP6 DUP6 DUP6 PUSH0 KECCAK256 ADD SLOAD AND ISZERO PUSH2 0x1C36 JUMPI PUSH2 0x1BA5 SWAP1 DUP10 PUSH2 0x563E JUMP JUMPDEST PUSH0 MSTORE MSTORE PUSH0 KECCAK256 ADD SLOAD AND PUSH2 0x1C2E JUMPI PUSH2 0x1BBC SWAP2 DUP11 DUP5 PUSH2 0x5429 JUMP JUMPDEST DUP6 PUSH0 MSTORE PUSH1 0x11 DUP1 DUP11 MSTORE DUP12 PUSH0 KECCAK256 DUP10 PUSH0 MSTORE DUP11 MSTORE DUP12 PUSH0 KECCAK256 DUP3 PUSH0 MSTORE DUP11 MSTORE DUP8 DUP13 PUSH0 KECCAK256 SLOAD AND ISZERO PUSH2 0x1BEA JUMPI JUMPDEST POP POP JUMPDEST ADD SWAP10 PUSH2 0x1B2F JUMP JUMPDEST DUP7 PUSH0 MSTORE PUSH1 0x10 DUP11 MSTORE DUP12 PUSH0 KECCAK256 DUP10 PUSH0 MSTORE DUP11 MSTORE PUSH2 0x1C05 DUP3 DUP14 PUSH0 KECCAK256 PUSH2 0x4D66 JUMP JUMPDEST DUP7 PUSH0 MSTORE DUP10 MSTORE DUP11 PUSH0 KECCAK256 DUP9 PUSH0 MSTORE DUP10 MSTORE DUP11 PUSH0 KECCAK256 SWAP1 PUSH0 MSTORE DUP9 MSTORE DUP10 PUSH0 KECCAK256 DUP3 PUSH1 0xFF NOT DUP3 SLOAD AND OR SWAP1 SSTORE DUP13 DUP1 PUSH2 0x1BE0 JUMP JUMPDEST POP POP POP PUSH2 0x1BE3 JUMP JUMPDEST POP POP POP POP POP POP POP POP POP PUSH2 0x1BE3 JUMP JUMPDEST POP POP POP POP POP POP POP POP PUSH2 0x1BE3 JUMP JUMPDEST PUSH1 0x21 DUP5 PUSH4 0x4E487B71 PUSH1 0xE0 SHL PUSH0 MSTORE MSTORE PUSH1 0x24 PUSH0 REVERT JUMPDEST DUP3 CALLVALUE PUSH2 0x37F JUMPI PUSH1 0x20 SWAP1 DUP2 PUSH1 0x3 NOT CALLDATASIZE ADD SLT PUSH2 0x37F JUMPI DUP3 CALLDATALOAD SWAP2 PUSH2 0x1C87 PUSH2 0x44E CALLER PUSH2 0x5397 JUMP JUMPDEST CALLER PUSH0 MSTORE PUSH1 0x1 DUP2 MSTORE DUP2 PUSH0 KECCAK256 SLOAD SWAP4 DUP4 PUSH0 MSTORE PUSH1 0xF DUP3 MSTORE DUP3 PUSH0 KECCAK256 DUP6 PUSH0 MSTORE DUP3 MSTORE DUP3 PUSH0 KECCAK256 SWAP1 DUP2 SLOAD SWAP1 PUSH1 0xFF DUP3 AND DUP2 DUP2 LT ISZERO PUSH2 0x17F7 JUMPI PUSH1 0x1 SUB PUSH2 0x1D06 JUMPI POP SWAP2 PUSH2 0x1CFE PUSH1 0xFF SWAP3 PUSH1 0x2 PUSH32 0xC5B2E1BD4433EB4E9E181CC803520513D39D918C96BDDEEBCA1224E1C750963D SWAP7 SWAP6 DUP6 NOT AND OR DUP1 SWAP2 SSTORE DUP5 MLOAD SWAP4 DUP5 SWAP2 PUSH1 0x8 SHR AND PUSH2 0x4B51 JUMP JUMPDEST TIMESTAMP SWAP1 DUP3 ADD MSTORE LOG3 STOP JUMPDEST DUP5 MLOAD PUSH3 0x461BCD PUSH1 0xE5 SHL DUP2 MSTORE SWAP1 DUP2 ADD DUP5 SWAP1 MSTORE PUSH1 0x13 PUSH1 0x24 DUP3 ADD MSTORE PUSH19 0x139BC81C195B991A5B99C81C1C9BDC1BDCD85B PUSH1 0x6A SHL PUSH1 0x44 DUP3 ADD MSTORE PUSH1 0x64 SWAP1 REVERT JUMPDEST DUP3 CALLVALUE PUSH2 0x37F JUMPI PUSH0 CALLDATASIZE PUSH1 0x3 NOT ADD SLT PUSH2 0x37F JUMPI DUP1 MLOAD PUSH2 0x647 SWAP2 PUSH2 0x1D5F DUP3 PUSH2 0x46BF JUMP JUMPDEST PUSH1 0x5 DUP3 MSTORE PUSH5 0x352E302E3 PUSH1 0xDC SHL PUSH1 0x20 DUP4 ADD MSTORE MLOAD SWAP2 DUP3 SWAP2 PUSH1 0x20 DUP4 MSTORE PUSH1 0x20 DUP4 ADD SWAP1 PUSH2 0x4AA9 JUMP JUMPDEST SWAP1 POP CALLVALUE PUSH2 0x37F JUMPI PUSH2 0x1D93 CALLDATASIZE PUSH2 0x4927 JUMP JUMPDEST SWAP2 PUSH2 0x1DA0 PUSH2 0x44E CALLER PUSH2 0x5397 JUMP JUMPDEST CALLER PUSH0 MSTORE PUSH1 0x1 PUSH1 0x20 MSTORE DUP4 PUSH0 KECCAK256 SLOAD SWAP1 DUP2 PUSH0 MSTORE PUSH1 0xF PUSH1 0x20 MSTORE DUP5 PUSH0 KECCAK256 DUP4 PUSH0 MSTORE PUSH1 0x20 MSTORE DUP5 PUSH0 KECCAK256 DUP1 SLOAD PUSH1 0xFF DUP2 AND DUP4 DUP2 LT ISZERO PUSH2 0x1C51 JUMPI SWAP1 PUSH2 0x1DDE PUSH1 0x2 PUSH1 0xFF SWAP4 EQ PUSH2 0x52AB JUMP JUMPDEST PUSH1 0x8 SHR AND SWAP2 PUSH1 0x3 DUP7 LT ISZERO PUSH2 0x7D1 JUMPI PUSH1 0x3 DUP4 LT ISZERO PUSH2 0x7D1 JUMPI DUP6 DUP4 EQ PUSH2 0x1E47 JUMPI POP PUSH32 0xB36EC3C738EF8ECD9180ADDC815304762374B76E91C2A321831D9906EA119ADE PUSH2 0x1E3F DUP6 SWAP4 PUSH2 0x5B5 SWAP9 PUSH2 0x1E32 DUP10 DUP9 SWAP7 PUSH2 0x4F76 JUMP JUMPDEST MLOAD SWAP2 DUP3 SWAP2 DUP10 TIMESTAMP SWAP2 DUP5 PUSH2 0x52F7 JUMP JUMPDEST SUB SWAP1 LOG3 PUSH2 0x5938 JUMP JUMPDEST PUSH1 0x64 SWAP1 PUSH1 0x20 DUP9 MLOAD SWAP2 PUSH3 0x461BCD PUSH1 0xE5 SHL DUP4 MSTORE DUP3 ADD MSTORE PUSH1 0x18 PUSH1 0x24 DUP3 ADD MSTORE PUSH32 0x416C72656164792074686973207472757374206C6576656C0000000000000000 PUSH1 0x44 DUP3 ADD MSTORE REVERT JUMPDEST DUP3 CALLVALUE PUSH2 0x37F JUMPI PUSH1 0x20 SWAP1 PUSH2 0x1EA5 PUSH2 0x1E9F CALLDATASIZE PUSH2 0x49B9 JUMP JUMPDEST SWAP1 PUSH2 0x563E JUMP JUMPDEST PUSH0 MSTORE PUSH1 0xE DUP3 MSTORE DUP1 PUSH0 KECCAK256 SLOAD SWAP1 MLOAD SWAP1 DUP2 MSTORE RETURN JUMPDEST DUP3 CALLVALUE PUSH2 0x37F JUMPI PUSH1 0x20 CALLDATASIZE PUSH1 0x3 NOT ADD SLT PUSH2 0x37F JUMPI DUP2 CALLDATALOAD DUP3 SLOAD DUP2 LT ISZERO PUSH2 0x37F JUMPI PUSH1 0x20 SWAP3 PUSH0 MSTORE PUSH32 0x8A35ACFBC15FF81A39AE7D344FD709F28E8600B4AA8C65C6B64BFE7FE36BD19B ADD SLOAD SWAP1 MLOAD SWAP1 DUP2 MSTORE RETURN JUMPDEST DUP3 CALLVALUE PUSH2 0x37F JUMPI PUSH2 0x1F11 CALLDATASIZE PUSH2 0x49B9 JUMP JUMPDEST SWAP1 PUSH0 MSTORE PUSH1 0xF PUSH1 0x20 MSTORE DUP2 PUSH0 KECCAK256 SWAP1 PUSH0 MSTORE PUSH1 0x20 MSTORE DUP1 PUSH0 KECCAK256 SWAP1 DUP1 MLOAD SWAP2 PUSH2 0x1F32 DUP4 PUSH2 0x46BF JUMP JUMPDEST SLOAD SWAP2 PUSH2 0x1F41 PUSH1 0xFF DUP5 AND DUP3 PUSH2 0x4F46 JUMP JUMPDEST PUSH2 0x1F55 PUSH1 0xFF PUSH1 0x20 DUP4 ADD SWAP5 PUSH1 0x8 SHR AND DUP5 PUSH2 0x4F52 JUMP JUMPDEST MLOAD SWAP2 DUP4 DUP4 LT ISZERO PUSH2 0x1C51 JUMPI MLOAD SWAP3 PUSH1 0x3 DUP5 LT ISZERO PUSH2 0x7D1 JUMPI POP PUSH2 0x647 SWAP1 MLOAD SWAP3 DUP4 SWAP3 DUP4 PUSH2 0x4B5E JUMP JUMPDEST DUP3 CALLVALUE PUSH2 0x37F JUMPI DUP1 PUSH1 0x3 NOT CALLDATASIZE ADD SLT PUSH2 0x37F JUMPI DUP2 CALLDATALOAD SWAP1 PUSH1 0x24 CALLDATALOAD PUSH1 0x6 DUP2 LT ISZERO PUSH2 0x37F JUMPI PUSH2 0x1FAD PUSH1 0x1 DUP1 PUSH1 0xA0 SHL SUB PUSH0 SLOAD AND CALLER EQ PUSH2 0x4DFA JUMP JUMPDEST DUP3 PUSH0 MSTORE PUSH1 0x20 PUSH1 0x2 DUP2 MSTORE PUSH1 0xFF DUP4 PUSH0 KECCAK256 SLOAD AND PUSH1 0x6 DUP2 LT ISZERO PUSH2 0x20B7 JUMPI ISZERO PUSH2 0x207F JUMPI DUP4 PUSH0 MSTORE PUSH1 0x2 DUP2 MSTORE PUSH1 0xFF DUP4 PUSH0 KECCAK256 SLOAD AND SWAP5 PUSH1 0x6 DUP7 LT ISZERO PUSH2 0x7D1 JUMPI DUP3 DUP7 EQ PUSH2 0x2048 JUMPI POP SWAP1 PUSH2 0x201B SWAP2 DUP5 PUSH0 MSTORE PUSH1 0x2 DUP2 MSTORE DUP4 PUSH0 KECCAK256 PUSH1 0xFF NOT DUP2 SLOAD AND PUSH1 0xFF DUP5 AND OR SWAP1 SSTORE PUSH2 0x2013 DUP5 MLOAD DUP1 SWAP8 PUSH2 0x4B30 JUMP JUMPDEST DUP6 ADD SWAP1 PUSH2 0x4B30 JUMP JUMPDEST TIMESTAMP SWAP1 DUP4 ADD MSTORE PUSH32 0xF6277C6EE46649823DB9A5C531DB3112B4340C67179CAE1932BA3420DCC37CC7 PUSH1 0x60 CALLER SWAP4 LOG3 STOP JUMPDEST PUSH1 0x64 SWAP2 DUP5 MLOAD SWAP2 PUSH3 0x461BCD PUSH1 0xE5 SHL DUP4 MSTORE DUP3 ADD MSTORE PUSH1 0x13 PUSH1 0x24 DUP3 ADD MSTORE PUSH19 0x416C7265616479207468697320737461747573 PUSH1 0x68 SHL PUSH1 0x44 DUP3 ADD MSTORE REVERT JUMPDEST DUP5 PUSH1 0x64 SWAP2 DUP5 MLOAD SWAP2 PUSH3 0x461BCD PUSH1 0xE5 SHL DUP4 MSTORE DUP3 ADD MSTORE PUSH1 0x13 PUSH1 0x24 DUP3 ADD MSTORE PUSH19 0x155CD95C881B9BDD081C9959DA5CDD195C9959 PUSH1 0x6A SHL PUSH1 0x44 DUP3 ADD MSTORE REVERT JUMPDEST PUSH1 0x21 DUP7 PUSH4 0x4E487B71 PUSH1 0xE0 SHL PUSH0 MSTORE MSTORE PUSH1 0x24 PUSH0 REVERT JUMPDEST DUP3 CALLVALUE PUSH2 0x37F JUMPI PUSH2 0x20D9 CALLDATASIZE PUSH2 0x49B9 JUMP JUMPDEST SWAP2 SWAP1 PUSH0 MSTORE PUSH1 0x3 PUSH1 0x20 MSTORE DUP1 PUSH0 KECCAK256 DUP1 SLOAD DUP4 LT ISZERO PUSH2 0x37F JUMPI PUSH1 0x20 SWAP3 PUSH2 0x20FA SWAP2 PUSH2 0x4B07 JUMP JUMPDEST PUSH1 0x1 DUP1 PUSH1 0xA0 SHL SUB SWAP2 SLOAD SWAP1 PUSH1 0x3 SHL SHR AND SWAP1 MLOAD SWAP1 DUP2 MSTORE RETURN JUMPDEST DUP3 CALLVALUE PUSH2 0x37F JUMPI PUSH2 0x211F CALLDATASIZE PUSH2 0x49B9 JUMP JUMPDEST SWAP2 SWAP1 PUSH0 MSTORE PUSH1 0xA PUSH1 0x20 MSTORE DUP1 PUSH0 KECCAK256 DUP1 SLOAD DUP4 LT ISZERO PUSH2 0x37F JUMPI PUSH1 0x20 SWAP3 PUSH2 0x371 SWAP2 PUSH2 0x4B07 JUMP JUMPDEST DUP3 CALLVALUE PUSH2 0x37F JUMPI PUSH1 0x20 DUP1 PUSH1 0x3 NOT CALLDATASIZE ADD SLT PUSH2 0x37F JUMPI PUSH1 0x80 SWAP3 CALLDATALOAD PUSH0 MSTORE PUSH1 0x7 DUP2 MSTORE DUP2 PUSH0 KECCAK256 SLOAD SWAP2 PUSH1 0x8 DUP3 MSTORE DUP1 PUSH0 KECCAK256 SLOAD SWAP1 PUSH1 0x9 DUP4 MSTORE DUP1 PUSH0 KECCAK256 SLOAD SWAP2 PUSH1 0xA DUP5 MSTORE DUP2 PUSH0 KECCAK256 SLOAD SWAP4 DUP3 MLOAD SWAP6 DUP7 MSTORE DUP6 ADD MSTORE DUP4 ADD MSTORE PUSH1 0x60 DUP3 ADD MSTORE RETURN JUMPDEST DUP3 CALLVALUE PUSH2 0x37F JUMPI PUSH1 0x20 CALLDATASIZE PUSH1 0x3 NOT ADD SLT PUSH2 0x37F JUMPI PUSH1 0x1 PUSH1 0x1 PUSH1 0xA0 SHL SUB PUSH2 0x21B1 PUSH2 0x4693 JUMP JUMPDEST AND PUSH0 MSTORE PUSH1 0x1 PUSH1 0x20 MSTORE DUP1 PUSH0 KECCAK256 PUSH1 0xFF PUSH1 0x1 DUP3 SLOAD SWAP3 ADD SLOAD AND DUP3 MLOAD SWAP2 DUP3 MSTORE ISZERO ISZERO PUSH1 0x20 DUP3 ADD MSTORE RETURN JUMPDEST DUP3 CALLVALUE PUSH2 0x37F JUMPI PUSH2 0x21E3 CALLDATASIZE PUSH2 0x49B9 JUMP JUMPDEST SWAP2 SWAP1 PUSH0 MSTORE PUSH1 0x8 PUSH1 0x20 MSTORE DUP1 PUSH0 KECCAK256 DUP1 SLOAD DUP4 LT ISZERO PUSH2 0x37F JUMPI PUSH1 0x20 SWAP3 PUSH2 0x371 SWAP2 PUSH2 0x4B07 JUMP JUMPDEST SWAP1 POP CALLVALUE PUSH2 0x37F JUMPI PUSH0 CALLDATASIZE PUSH1 0x3 NOT ADD SLT PUSH2 0x37F JUMPI PUSH32 0xF0C57E16840DF040F15088DC2F81FE391C3923BEC73E23A9662EFC9C229C6A00 SWAP1 DUP2 SLOAD PUSH1 0xFF DUP2 DUP6 SHR AND ISZERO SWAP2 PUSH1 0x1 PUSH1 0x1 PUSH1 0x40 SHL SUB DUP3 AND DUP1 ISZERO SWAP1 DUP2 PUSH2 0x2319 JUMPI JUMPDEST PUSH1 0x1 EQ SWAP1 DUP2 PUSH2 0x230F JUMPI JUMPDEST ISZERO SWAP1 DUP2 PUSH2 0x2306 JUMPI JUMPDEST POP PUSH2 0x22F8 JUMPI POP PUSH8 0xFFFFFFFFFFFFFFFF NOT DUP2 AND PUSH1 0x1 OR DUP4 SSTORE DUP2 PUSH2 0x22D9 JUMPI JUMPDEST POP PUSH0 DUP1 SLOAD PUSH1 0x1 PUSH1 0x1 PUSH1 0xA0 SHL SUB NOT AND CALLER OR SWAP1 SSTORE PUSH2 0x229C JUMPI STOP JUMPDEST DUP1 SLOAD PUSH9 0xFF0000000000000000 NOT AND SWAP1 SSTORE MLOAD PUSH1 0x1 DUP2 MSTORE PUSH32 0xC7F505B2F371AE2175EE4913F4499E1F2633A7B5936321EED1CDAEB6115181D2 SWAP1 PUSH1 0x20 SWAP1 LOG1 STOP JUMPDEST PUSH9 0xFFFFFFFFFFFFFFFFFF NOT AND PUSH9 0x10000000000000001 OR DUP3 SSTORE PUSH0 PUSH2 0x2284 JUMP JUMPDEST DUP5 MLOAD PUSH4 0xF92EE8A9 PUSH1 0xE0 SHL DUP2 MSTORE REVERT JUMPDEST SWAP1 POP ISZERO PUSH0 PUSH2 0x2267 JUMP JUMPDEST ADDRESS EXTCODESIZE ISZERO SWAP2 POP PUSH2 0x225F JUMP JUMPDEST DUP5 SWAP2 POP PUSH2 0x2255 JUMP JUMPDEST DUP3 CALLVALUE PUSH2 0x37F JUMPI PUSH2 0x647 SWAP1 PUSH2 0x2334 CALLDATASIZE PUSH2 0x49B9 JUMP JUMPDEST SWAP1 PUSH0 MSTORE PUSH1 0xF PUSH1 0x20 MSTORE DUP2 PUSH0 KECCAK256 SWAP1 PUSH0 MSTORE PUSH1 0x20 MSTORE DUP1 PUSH0 KECCAK256 SLOAD SWAP1 MLOAD SWAP2 DUP2 PUSH1 0xFF DUP1 DUP6 SWAP5 PUSH1 0x8 SHR AND SWAP2 AND DUP4 PUSH2 0x4B5E JUMP JUMPDEST DUP3 CALLVALUE PUSH2 0x37F JUMPI PUSH0 CALLDATASIZE PUSH1 0x3 NOT ADD SLT PUSH2 0x37F JUMPI PUSH1 0x20 SWAP1 PUSH1 0xC SLOAD SWAP1 MLOAD SWAP1 DUP2 MSTORE RETURN JUMPDEST DUP3 CALLVALUE PUSH2 0x37F JUMPI PUSH1 0x20 CALLDATASIZE PUSH1 0x3 NOT ADD SLT PUSH2 0x37F JUMPI PUSH1 0x20 SWAP1 PUSH2 0x2399 PUSH2 0x4693 JUMP JUMPDEST PUSH0 SLOAD SWAP2 SWAP1 PUSH1 0x1 PUSH1 0x1 PUSH1 0xA0 SHL SUB DUP1 DUP5 AND SWAP2 PUSH32 0x38DF5FA0F7FEF0D515CA1F5388CB5790AC5885D5FCA8D05D9F943E563C33A4B3 SWAP2 SWAP1 PUSH2 0x23D7 CALLER DUP6 EQ PUSH2 0x4DFA JUMP JUMPDEST AND SWAP5 DUP6 SWAP4 PUSH2 0x23E6 DUP6 ISZERO ISZERO PUSH2 0x531C JUMP JUMPDEST MLOAD TIMESTAMP DUP2 MSTORE LOG3 PUSH1 0x1 PUSH1 0x1 PUSH1 0xA0 SHL SUB NOT AND OR PUSH0 SSTORE STOP JUMPDEST SWAP1 POP CALLVALUE PUSH2 0x37F JUMPI PUSH2 0x240A CALLDATASIZE PUSH2 0x4977 JUMP JUMPDEST SWAP4 SWAP1 SWAP3 PUSH1 0x1 DUP1 PUSH1 0xA0 SHL SUB PUSH2 0x2422 DUP2 PUSH0 SLOAD AND CALLER EQ PUSH2 0x4DFA JUMP JUMPDEST PUSH2 0x242D DUP5 ISZERO ISZERO PUSH2 0x4F95 JUMP JUMPDEST DUP5 AND PUSH2 0x243A DUP2 ISZERO ISZERO PUSH2 0x51D7 JUMP JUMPDEST PUSH2 0x2446 PUSH2 0xA10 DUP8 PUSH2 0x5773 JUMP JUMPDEST PUSH0 MSTORE PUSH1 0x1 PUSH1 0x20 SWAP2 DUP2 DUP4 MSTORE PUSH2 0x2468 DUP5 PUSH0 KECCAK256 SLOAD SWAP7 PUSH2 0x2463 DUP9 ISZERO ISZERO PUSH2 0x4E33 JUMP JUMPDEST PUSH2 0x5397 JUMP JUMPDEST ISZERO PUSH2 0x2709 JUMPI DUP5 PUSH0 MSTORE PUSH1 0x7 DUP4 MSTORE DUP4 PUSH0 KECCAK256 SLOAD ISZERO DUP1 PUSH2 0x26FA JUMPI JUMPDEST ISZERO PUSH2 0x26B7 JUMPI PUSH2 0x248E DUP7 DUP7 PUSH2 0x563E JUMP JUMPDEST SWAP2 DUP3 PUSH0 MSTORE PUSH1 0x6 DUP5 MSTORE DUP5 PUSH0 KECCAK256 SWAP3 PUSH2 0x24A3 DUP5 PUSH2 0x4A07 JUMP JUMPDEST SWAP3 PUSH1 0xFF DUP4 DUP6 MLOAD ISZERO SWAP7 ADD SLOAD AND SWAP3 DUP8 MLOAD SWAP2 PUSH2 0x24BB DUP4 PUSH2 0x46BF JUMP JUMPDEST DUP12 DUP4 MSTORE DUP8 DUP4 ADD SWAP1 DUP3 DUP3 MSTORE DUP5 PUSH0 MSTORE PUSH1 0x6 DUP10 MSTORE DUP10 PUSH0 KECCAK256 SWAP4 MLOAD DUP1 MLOAD SWAP2 PUSH1 0x1 PUSH1 0x1 PUSH1 0x40 SHL SUB DUP4 GT PUSH2 0x26A4 JUMPI POP PUSH2 0x24ED DUP6 SLOAD PUSH2 0x49CF JUMP JUMPDEST PUSH1 0x1F DUP2 GT PUSH2 0x265E JUMPI JUMPDEST POP DUP10 SWAP1 PUSH1 0x1F DUP4 GT PUSH1 0x1 EQ PUSH2 0x25F7 JUMPI PUSH2 0x253D SWAP6 SWAP5 SWAP4 SWAP3 SWAP2 PUSH0 SWAP2 DUP4 PUSH2 0x25EC JUMPI JUMPDEST POP POP PUSH0 NOT PUSH1 0x3 DUP4 SWAP1 SHL SHR NOT AND SWAP1 DUP4 SHL OR DUP4 SSTORE JUMPDEST MLOAD ISZERO ISZERO SWAP2 ADD SWAP1 PUSH1 0xFF DUP1 NOT DUP4 SLOAD AND SWAP2 ISZERO ISZERO AND OR SWAP1 SSTORE JUMP JUMPDEST PUSH0 MSTORE PUSH1 0xE DUP5 MSTORE PUSH0 DUP6 DUP2 KECCAK256 SSTORE ISZERO PUSH0 EQ PUSH2 0x25BF JUMPI POP SWAP2 DUP6 SWAP2 PUSH32 0xF9D17EB1340AB78960B594FF8BED1349985B800EE21199C6D5EA4A67454593AD SWAP4 PUSH2 0x2581 PUSH0 SWAP9 DUP9 DUP9 PUSH2 0x5B10 JUMP JUMPDEST PUSH2 0x2599 JUMPI JUMPDEST PUSH2 0x10E1 DUP3 MLOAD SWAP4 DUP4 DUP6 SWAP5 DUP6 MSTORE DUP5 ADD SWAP1 PUSH2 0x4AA9 JUMP JUMPDEST DUP6 DUP8 MSTORE PUSH1 0xB DUP2 MSTORE PUSH2 0x25AC DUP6 DUP4 DUP10 KECCAK256 PUSH2 0x4D66 JUMP JUMPDEST PUSH2 0x25B7 PUSH1 0xC SLOAD PUSH2 0x4DA2 JUMP JUMPDEST PUSH1 0xC SSTORE PUSH2 0x2586 JUMP JUMPDEST SWAP6 SWAP5 SWAP4 SWAP3 POP POP DUP5 MLOAD DUP2 DUP7 ADD KECCAK256 SWAP1 DUP5 MLOAD SWAP1 DUP6 ADD KECCAK256 SUB PUSH2 0x25D9 JUMPI STOP JUMPDEST PUSH2 0x25E7 PUSH2 0x5B5 SWAP5 DUP4 DUP4 PUSH2 0x5672 JUMP JUMPDEST PUSH2 0x5B10 JUMP JUMPDEST ADD MLOAD SWAP1 POP PUSH0 DUP1 PUSH2 0x2514 JUMP JUMPDEST SWAP1 PUSH1 0x1F NOT DUP4 AND SWAP2 DUP7 PUSH0 MSTORE DUP12 PUSH0 KECCAK256 SWAP3 PUSH0 JUMPDEST DUP14 DUP3 DUP3 LT PUSH2 0x264A JUMPI POP POP SWAP2 DUP7 SWAP6 SWAP5 SWAP3 SWAP2 DUP4 PUSH2 0x253D SWAP10 SWAP9 SWAP6 SWAP4 LT PUSH2 0x2632 JUMPI JUMPDEST POP POP POP DUP2 SHL ADD DUP4 SSTORE PUSH2 0x2527 JUMP JUMPDEST ADD MLOAD PUSH0 NOT PUSH1 0xF8 DUP5 PUSH1 0x3 SHL AND SHR NOT AND SWAP1 SSTORE PUSH0 DUP1 DUP1 PUSH2 0x2625 JUMP JUMPDEST DUP4 DUP6 ADD MLOAD DUP7 SSTORE SWAP5 DUP9 ADD SWAP5 SWAP4 DUP5 ADD SWAP4 ADD PUSH2 0x2607 JUMP JUMPDEST DUP6 PUSH0 MSTORE DUP11 PUSH0 KECCAK256 PUSH1 0x1F DUP5 ADD PUSH1 0x5 SHR DUP2 ADD SWAP2 DUP13 DUP6 LT PUSH2 0x269A JUMPI JUMPDEST PUSH1 0x1F ADD PUSH1 0x5 SHR ADD SWAP1 DUP6 SWAP1 JUMPDEST DUP3 DUP2 LT PUSH2 0x268F JUMPI POP POP PUSH2 0x24F6 JUMP JUMPDEST PUSH0 DUP2 SSTORE ADD DUP6 SWAP1 PUSH2 0x2681 JUMP JUMPDEST SWAP1 SWAP2 POP DUP2 SWAP1 PUSH2 0x2676 JUMP JUMPDEST PUSH1 0x41 SWAP1 PUSH4 0x4E487B71 PUSH1 0xE0 SHL PUSH0 MSTORE MSTORE PUSH1 0x24 PUSH0 REVERT JUMPDEST DUP4 MLOAD PUSH3 0x461BCD PUSH1 0xE5 SHL DUP2 MSTORE SWAP1 DUP2 ADD DUP4 SWAP1 MSTORE PUSH1 0x1A PUSH1 0x24 DUP3 ADD MSTORE PUSH32 0x5265636F726420616C726561647920696E697469616C697A6564000000000000 PUSH1 0x44 DUP3 ADD MSTORE PUSH1 0x64 SWAP1 REVERT JUMPDEST POP PUSH1 0x8 DUP4 MSTORE DUP4 PUSH0 KECCAK256 SLOAD ISZERO PUSH2 0x247F JUMP JUMPDEST DUP4 MLOAD PUSH3 0x461BCD PUSH1 0xE5 SHL DUP2 MSTORE SWAP1 DUP2 ADD DUP4 SWAP1 MSTORE PUSH1 0x18 PUSH1 0x24 DUP3 ADD MSTORE PUSH32 0x4D75737420626520616E20616374697665206D656D6265720000000000000000 PUSH1 0x44 DUP3 ADD MSTORE PUSH1 0x64 SWAP1 REVERT JUMPDEST DUP3 CALLVALUE PUSH2 0x37F JUMPI DUP1 PUSH1 0x3 NOT CALLDATASIZE ADD SLT PUSH2 0x37F JUMPI PUSH1 0x1 PUSH1 0x1 PUSH1 0x40 SHL SUB SWAP1 DUP3 CALLDATALOAD DUP3 DUP2 GT PUSH2 0x37F JUMPI CALLDATASIZE PUSH1 0x23 DUP3 ADD SLT ISZERO PUSH2 0x37F JUMPI DUP1 DUP5 ADD CALLDATALOAD SWAP3 DUP4 GT PUSH2 0x37F JUMPI PUSH1 0x24 PUSH1 0x5 SWAP5 CALLDATASIZE PUSH1 0x24 DUP7 PUSH1 0x5 SHL DUP6 ADD ADD GT PUSH2 0x37F JUMPI PUSH0 SLOAD PUSH1 0x1 PUSH1 0x1 PUSH1 0xA0 SHL SUB SWAP7 PUSH1 0x24 CALLDATALOAD SWAP6 SWAP2 PUSH2 0x27B6 SWAP1 DUP10 AND CALLER EQ PUSH2 0x4DFA JUMP JUMPDEST DUP7 ISZERO PUSH2 0x2911 JUMPI PUSH2 0x27C7 DUP7 ISZERO ISZERO PUSH2 0x521C JUMP JUMPDEST DUP6 PUSH0 MSTORE PUSH1 0x2 SWAP4 PUSH1 0x20 SWAP4 PUSH1 0x2 DUP6 MSTORE PUSH1 0xFF DUP5 PUSH0 KECCAK256 SLOAD AND SWAP1 PUSH1 0x6 DUP3 LT ISZERO PUSH2 0x7D1 JUMPI POP ISZERO SWAP6 PUSH0 JUMPDEST DUP10 DUP2 LT PUSH2 0x27F3 JUMPI STOP JUMPDEST DUP3 DUP2 DUP6 SHL DUP4 ADD ADD CALLDATALOAD SWAP1 DUP12 DUP3 AND SWAP2 DUP3 DUP2 SUB PUSH2 0x37F JUMPI DUP3 PUSH2 0x2879 DUP13 SWAP3 PUSH2 0x281A PUSH1 0x1 SWAP7 ISZERO ISZERO PUSH2 0x51D7 JUMP JUMPDEST DUP3 PUSH0 MSTORE PUSH2 0x286A DUP7 DUP1 DUP14 MSTORE PUSH2 0x2831 DUP13 PUSH0 KECCAK256 SLOAD ISZERO PUSH2 0x525F JUMP JUMPDEST DUP12 MLOAD SWAP1 PUSH2 0x283D DUP3 PUSH2 0x46BF JUMP JUMPDEST DUP7 DUP3 MSTORE DUP14 DUP2 DUP2 DUP5 ADD SWAP2 DUP2 DUP4 MSTORE DUP9 PUSH0 MSTORE MSTORE DUP14 PUSH0 KECCAK256 SWAP3 MLOAD DUP4 SSTORE MLOAD ISZERO ISZERO SWAP2 ADD SWAP1 PUSH1 0xFF DUP1 NOT DUP4 SLOAD AND SWAP2 ISZERO ISZERO AND OR SWAP1 SSTORE JUMP JUMPDEST DUP4 PUSH0 MSTORE PUSH1 0x3 DUP12 MSTORE DUP10 PUSH0 KECCAK256 PUSH2 0x4CE4 JUMP JUMPDEST DUP3 ISZERO DUP1 PUSH2 0x290A JUMPI JUMPDEST ISZERO PUSH2 0x28DD JUMPI DUP2 PUSH0 MSTORE DUP10 DUP10 MSTORE DUP8 PUSH0 KECCAK256 DUP11 PUSH1 0xFF NOT DUP3 SLOAD AND OR SWAP1 SSTORE PUSH2 0x28A2 DUP3 PUSH2 0x4D1F JUMP JUMPDEST PUSH2 0x28AC DUP8 SLOAD PUSH2 0x4DA2 JUMP JUMPDEST DUP8 SSTORE PUSH32 0x39D132591EE0696DE49AB564E4A90E430C006561917DB731A2A614DD2D245591 DUP10 DUP10 MLOAD TIMESTAMP DUP2 MSTORE LOG3 JUMPDEST ADD PUSH2 0x27EA JUMP JUMPDEST PUSH32 0x1CC138F50384BE7770A8E4A34EECAA0D0C718BFAA1641AF49DB32532E4A5B910 DUP10 DUP10 MLOAD TIMESTAMP DUP2 MSTORE LOG3 PUSH2 0x28D7 JUMP JUMPDEST POP DUP11 PUSH2 0x2881 JUMP JUMPDEST DUP2 MLOAD PUSH3 0x461BCD PUSH1 0xE5 SHL DUP2 MSTORE PUSH1 0x20 DUP2 DUP6 ADD MSTORE PUSH1 0x13 PUSH1 0x24 DUP3 ADD MSTORE PUSH19 0x139BC81DD85B1B195D1CC81C1C9BDD9A591959 PUSH1 0x6A SHL PUSH1 0x44 DUP3 ADD MSTORE PUSH1 0x64 SWAP1 REVERT JUMPDEST SWAP1 POP CALLVALUE PUSH2 0x37F JUMPI PUSH1 0x20 SWAP1 PUSH1 0x20 PUSH1 0x3 NOT CALLDATASIZE ADD SLT PUSH2 0x37F JUMPI CALLDATALOAD PUSH0 MSTORE PUSH1 0xB PUSH1 0x20 MSTORE DUP2 PUSH0 KECCAK256 SWAP2 DUP1 MLOAD SWAP2 DUP3 PUSH1 0x20 DUP6 SLOAD SWAP2 DUP3 DUP2 MSTORE ADD SWAP5 PUSH0 MSTORE PUSH1 0x20 PUSH0 KECCAK256 SWAP2 PUSH0 SWAP1 JUMPDEST DUP3 DUP3 LT PUSH2 0x299C JUMPI PUSH2 0x647 DUP7 DUP7 PUSH2 0x934 DUP3 DUP12 SUB DUP4 PUSH2 0x4724 JUMP JUMPDEST DUP4 SLOAD DUP8 MSTORE SWAP6 DUP7 ADD SWAP6 PUSH1 0x1 SWAP4 DUP5 ADD SWAP4 SWAP1 SWAP2 ADD SWAP1 PUSH2 0x2984 JUMP JUMPDEST DUP3 CALLVALUE PUSH2 0x37F JUMPI PUSH1 0x20 SWAP1 PUSH2 0x157B PUSH2 0x29C8 CALLDATASIZE PUSH2 0x49B9 JUMP JUMPDEST SWAP1 PUSH2 0x5849 JUMP JUMPDEST DUP3 CALLVALUE PUSH2 0x37F JUMPI PUSH2 0x29DD CALLDATASIZE PUSH2 0x49B9 JUMP JUMPDEST SWAP2 SWAP1 PUSH0 MSTORE PUSH1 0x7 PUSH1 0x20 MSTORE DUP1 PUSH0 KECCAK256 DUP1 SLOAD DUP4 LT ISZERO PUSH2 0x37F JUMPI PUSH1 0x20 SWAP3 PUSH2 0x371 SWAP2 PUSH2 0x4B07 JUMP JUMPDEST DUP3 CALLVALUE PUSH2 0x37F JUMPI PUSH2 0x2A0D CALLDATASIZE PUSH2 0x49B9 JUMP JUMPDEST SWAP1 PUSH0 MSTORE PUSH1 0xF PUSH1 0x20 MSTORE DUP2 PUSH0 KECCAK256 SWAP1 PUSH0 MSTORE PUSH1 0x20 MSTORE DUP1 PUSH0 KECCAK256 SWAP1 DUP1 MLOAD SWAP2 PUSH2 0x2A2E DUP4 PUSH2 0x46BF JUMP JUMPDEST SLOAD SWAP2 PUSH2 0x2A3D PUSH1 0xFF DUP5 AND DUP3 PUSH2 0x4F46 JUMP JUMPDEST PUSH2 0x2A51 PUSH1 0xFF PUSH1 0x20 DUP4 ADD SWAP5 PUSH1 0x8 SHR AND DUP5 PUSH2 0x4F52 JUMP JUMPDEST MLOAD DUP4 DUP2 LT ISZERO PUSH2 0x1C51 JUMPI PUSH1 0x2 EQ SWAP2 DUP3 PUSH2 0x2A70 JUMPI JUMPDEST PUSH1 0x20 DUP4 DUP4 MLOAD SWAP1 ISZERO ISZERO DUP2 MSTORE RETURN JUMPDEST SWAP1 SWAP2 POP MLOAD SWAP2 PUSH1 0x3 DUP4 LT ISZERO PUSH2 0x7D1 JUMPI POP PUSH1 0x2 PUSH1 0x20 SWAP3 EQ SWAP1 DUP4 PUSH2 0x2A64 JUMP JUMPDEST DUP3 CALLVALUE PUSH2 0x37F JUMPI PUSH0 CALLDATASIZE PUSH1 0x3 NOT ADD SLT PUSH2 0x37F JUMPI PUSH32 0x0 PUSH1 0x1 PUSH1 0x1 PUSH1 0xA0 SHL SUB AND ADDRESS SUB PUSH2 0x2AF6 JUMPI PUSH1 0x20 SWAP1 MLOAD PUSH32 0x360894A13BA1A3210667C828492DB98DCA3E2076CC3735A920A3CA505D382BBC DUP2 MSTORE RETURN JUMPDEST MLOAD PUSH4 0x703E46DD PUSH1 0xE1 SHL DUP2 MSTORE REVERT JUMPDEST DUP3 CALLVALUE PUSH2 0x37F JUMPI PUSH2 0x2B12 CALLDATASIZE PUSH2 0x481F JUMP JUMPDEST SWAP1 PUSH2 0x2B1F PUSH2 0x44E CALLER PUSH2 0x5397 JUMP JUMPDEST PUSH2 0x2B2C DUP4 MLOAD DUP4 MLOAD EQ PUSH2 0x4BC1 JUMP JUMPDEST CALLER PUSH0 MSTORE PUSH1 0x1 SWAP4 PUSH1 0x20 SWAP2 DUP6 DUP4 MSTORE DUP2 PUSH0 KECCAK256 SLOAD SWAP1 PUSH1 0x1 DUP1 PUSH1 0xA0 SHL SUB AND PUSH0 MSTORE DUP2 PUSH0 KECCAK256 SLOAD SWAP1 PUSH2 0x2B57 DUP3 ISZERO ISZERO PUSH2 0x4C05 JUMP JUMPDEST DUP7 PUSH0 SWAP7 DUP4 DUP4 EQ SWAP2 JUMPDEST PUSH2 0x2B65 JUMPI STOP JUMPDEST DUP1 MLOAD DUP9 LT ISZERO PUSH2 0x5B5 JUMPI DUP9 DUP9 PUSH2 0x2B7B DUP3 SWAP11 DUP5 PUSH2 0x4DC4 JUMP JUMPDEST MLOAD PUSH2 0x2B86 DUP3 DUP12 PUSH2 0x4DC4 JUMP JUMPDEST MLOAD PUSH2 0x2B90 DUP2 PUSH2 0x5773 JUMP JUMPDEST ISZERO PUSH2 0x2E88 JUMPI PUSH2 0x2B9F DUP8 DUP4 PUSH2 0x563E JUMP JUMPDEST PUSH0 MSTORE PUSH1 0x6 DUP1 DUP12 MSTORE PUSH1 0xFF DUP1 DUP7 DUP13 PUSH0 KECCAK256 ADD SLOAD AND ISZERO PUSH2 0x2E7F JUMPI PUSH2 0x2BBF DUP11 DUP6 PUSH2 0x563E JUMP JUMPDEST PUSH0 MSTORE DUP2 DUP13 MSTORE DUP6 DUP12 PUSH0 KECCAK256 ADD SLOAD AND ISZERO PUSH2 0x2E77 JUMPI PUSH2 0x2BDA DUP10 DUP5 PUSH2 0x563E JUMP JUMPDEST PUSH0 MSTORE DUP11 MSTORE PUSH2 0x2BE9 DUP10 PUSH0 KECCAK256 PUSH2 0x4A07 JUMP JUMPDEST SWAP1 DUP9 DUP9 DUP13 DUP5 MLOAD DUP2 DUP7 ADD KECCAK256 DUP14 DUP6 MLOAD DUP4 DUP8 ADD KECCAK256 SWAP1 DUP2 DUP4 EQ PUSH2 0x2CFB JUMPI PUSH2 0x2C0A PUSH2 0x50C7 JUMP JUMPDEST DUP5 DUP2 MLOAD SWAP2 ADD KECCAK256 DUP4 EQ PUSH2 0x2CFB JUMPI DUP9 PUSH0 MSTORE PUSH1 0x7 DUP5 MSTORE PUSH0 KECCAK256 SLOAD ISZERO SWAP2 DUP3 ISZERO PUSH2 0x2C36 PUSH2 0x2C2F PUSH2 0x50C7 JUMP JUMPDEST DUP8 DUP13 PUSH2 0x57EB JUMP JUMPDEST SWAP1 PUSH2 0x2C49 PUSH2 0x2C42 PUSH2 0x50E8 JUMP JUMPDEST DUP9 DUP14 PUSH2 0x57EB JUMP JUMPDEST SWAP1 PUSH2 0x2C5D DUP13 DUP10 PUSH2 0x2C57 PUSH2 0x5111 JUMP JUMPDEST SWAP2 PUSH2 0x57EB JUMP JUMPDEST PUSH2 0x2C65 PUSH2 0x50C7 JUMP JUMPDEST DUP1 MLOAD SWAP1 DUP10 ADD KECCAK256 DUP7 SUB PUSH2 0x2D1D JUMPI POP ISZERO PUSH2 0x2D09 JUMPI POP ISZERO PUSH2 0x2CFB JUMPI JUMPDEST PUSH2 0x2C86 PUSH2 0x50E8 JUMP JUMPDEST DUP5 DUP2 MLOAD SWAP2 ADD KECCAK256 EQ SWAP3 DUP4 PUSH2 0x2CE1 JUMPI JUMPDEST POP POP DUP2 PUSH2 0x2CD9 JUMPI JUMPDEST POP DUP1 PUSH2 0x2CC1 JUMPI JUMPDEST PUSH2 0x2CB7 JUMPI PUSH2 0x2CB0 SWAP5 PUSH2 0x58D3 JUMP JUMPDEST ADD SWAP8 PUSH2 0x2B5F JUMP JUMPDEST POP POP POP POP POP PUSH2 0x2CB0 JUMP JUMPDEST POP POP POP DUP3 PUSH0 MSTORE PUSH1 0x8 DUP12 MSTORE DUP9 DUP9 DUP7 DUP13 PUSH0 KECCAK256 SLOAD GT ISZERO PUSH2 0x2CA3 JUMP JUMPDEST SWAP1 POP PUSH0 PUSH2 0x2C9C JUMP JUMPDEST SWAP1 SWAP2 SWAP3 POP PUSH2 0x2CED PUSH2 0x4DD8 JUMP JUMPDEST DUP1 MLOAD SWAP2 ADD KECCAK256 EQ SWAP1 PUSH0 DUP16 PUSH2 0x2C94 JUMP JUMPDEST POP POP POP POP POP POP POP POP POP PUSH2 0x2CB0 JUMP JUMPDEST SWAP1 POP PUSH2 0x2C7E JUMPI POP POP POP POP POP POP POP POP POP PUSH2 0x2CB0 JUMP JUMPDEST SWAP2 SWAP3 SWAP1 PUSH2 0x2D28 PUSH2 0x50E8 JUMP JUMPDEST DUP1 MLOAD SWAP1 DUP10 ADD KECCAK256 DUP7 SUB PUSH2 0x2D53 JUMPI POP SWAP1 POP ISZERO SWAP1 DUP2 PUSH2 0x2D4A JUMPI JUMPDEST POP PUSH2 0x2CFB JUMPI JUMPDEST PUSH2 0x2C7E JUMP JUMPDEST SWAP1 POP ISZERO PUSH0 PUSH2 0x2D3F JUMP JUMPDEST PUSH2 0x2D5B PUSH2 0x5111 JUMP JUMPDEST DUP1 MLOAD SWAP1 DUP10 ADD KECCAK256 DUP7 SUB PUSH2 0x2DE6 JUMPI ISZERO PUSH2 0x2DB2 JUMPI ISZERO SWAP2 DUP3 PUSH2 0x2D9A JUMPI JUMPDEST POP DUP2 PUSH2 0x2D84 JUMPI POP PUSH2 0x2CFB JUMPI PUSH2 0x2C7E JUMP JUMPDEST SWAP1 POP DUP1 PUSH2 0x2D93 JUMPI JUMPDEST ISZERO PUSH0 PUSH2 0x2D3F JUMP JUMPDEST POP DUP13 PUSH2 0x2D8C JUMP JUMPDEST SWAP1 SWAP2 POP DUP1 PUSH2 0x2DAB JUMPI JUMPDEST ISZERO SWAP1 PUSH0 PUSH2 0x2D74 JUMP JUMPDEST POP DUP14 PUSH2 0x2DA3 JUMP JUMPDEST POP SWAP1 ISZERO SWAP1 DUP2 PUSH2 0x2DD0 JUMPI JUMPDEST POP ISZERO PUSH2 0x2D45 JUMPI POP POP POP POP POP POP POP POP POP PUSH2 0x2CB0 JUMP JUMPDEST SWAP1 POP DUP1 PUSH2 0x2DDF JUMPI JUMPDEST ISZERO PUSH0 PUSH2 0x2DBC JUMP JUMPDEST POP DUP13 PUSH2 0x2DD8 JUMP JUMPDEST PUSH2 0x2DEE PUSH2 0x4DD8 JUMP JUMPDEST DUP9 DUP2 MLOAD SWAP2 ADD KECCAK256 DUP7 EQ PUSH2 0x2E04 JUMPI JUMPDEST POP POP POP POP PUSH2 0x2C7E JUMP JUMPDEST ISZERO PUSH2 0x2E63 JUMPI ISZERO SWAP2 DUP3 PUSH2 0x2E4B JUMPI JUMPDEST POP DUP2 PUSH2 0x2E35 JUMPI JUMPDEST POP PUSH2 0x2CFB JUMPI JUMPDEST PUSH2 0x2E28 DUP7 DUP11 PUSH2 0x5849 JUMP JUMPDEST PUSH2 0x2CFB JUMPI PUSH0 DUP1 DUP1 DUP1 PUSH2 0x2DFB JUMP JUMPDEST SWAP1 POP DUP1 PUSH2 0x2E44 JUMPI JUMPDEST ISZERO PUSH0 PUSH2 0x2E18 JUMP JUMPDEST POP DUP13 PUSH2 0x2E3D JUMP JUMPDEST SWAP1 SWAP2 POP DUP1 PUSH2 0x2E5C JUMPI JUMPDEST ISZERO SWAP1 PUSH0 PUSH2 0x2E11 JUMP JUMPDEST POP DUP14 PUSH2 0x2E54 JUMP JUMPDEST POP POP PUSH2 0x2E1E JUMPI POP POP POP POP POP POP POP POP POP PUSH2 0x2CB0 JUMP JUMPDEST POP POP POP PUSH2 0x2CB0 JUMP JUMPDEST POP POP POP POP PUSH2 0x2CB0 JUMP JUMPDEST POP POP PUSH2 0x2CB0 JUMP JUMPDEST SWAP1 POP DUP2 PUSH1 0x3 NOT CALLDATASIZE ADD SLT PUSH2 0x37F JUMPI PUSH2 0x2EA4 PUSH2 0x4693 JUMP JUMPDEST SWAP2 PUSH1 0x24 CALLDATALOAD PUSH1 0x1 PUSH1 0x1 PUSH1 0x40 SHL SUB DUP2 GT PUSH2 0x37F JUMPI CALLDATASIZE PUSH1 0x23 DUP3 ADD SLT ISZERO PUSH2 0x37F JUMPI PUSH2 0x2ED4 SWAP1 CALLDATASIZE SWAP1 PUSH1 0x24 DUP2 DUP7 ADD CALLDATALOAD SWAP2 ADD PUSH2 0x47BC JUMP JUMPDEST SWAP1 PUSH1 0x1 PUSH1 0x1 PUSH1 0xA0 SHL SUB PUSH32 0x0 DUP2 AND ADDRESS DUP2 EQ SWAP1 DUP2 ISZERO PUSH2 0x305E JUMPI JUMPDEST POP PUSH2 0x304E JUMPI PUSH2 0x2F1E DUP2 PUSH0 SLOAD AND CALLER EQ PUSH2 0x4DFA JUMP JUMPDEST DUP5 AND SWAP2 DUP2 MLOAD SWAP5 PUSH4 0x52D1902D PUSH1 0xE0 SHL DUP7 MSTORE PUSH1 0x20 DUP7 DUP7 DUP2 DUP8 GAS STATICCALL PUSH0 SWAP7 DUP2 PUSH2 0x301A JUMPI JUMPDEST POP PUSH2 0x2F5A JUMPI POP POP MLOAD PUSH4 0x4C9C8CE3 PUSH1 0xE0 SHL DUP2 MSTORE SWAP2 DUP3 ADD MSTORE PUSH1 0x24 SWAP2 POP REVERT JUMPDEST DUP4 DUP6 SWAP4 DUP8 PUSH32 0x360894A13BA1A3210667C828492DB98DCA3E2076CC3735A920A3CA505D382BBC SWAP1 DUP2 DUP2 SUB PUSH2 0x3004 JUMPI POP DUP4 EXTCODESIZE ISZERO PUSH2 0x2FED JUMPI DUP1 SLOAD PUSH1 0x1 PUSH1 0x1 PUSH1 0xA0 SHL SUB NOT AND DUP4 OR SWAP1 SSTORE MLOAD SWAP1 PUSH32 0xBC7CD75A20EE27FD9ADEBAB32041F755214DBC6BFFA90CC0225B39DA2E5C2D3B PUSH0 DUP1 LOG2 DUP3 MLOAD ISZERO PUSH2 0x2FD7 JUMPI POP PUSH2 0x5B5 SWAP3 POP PUSH2 0x5C52 JUMP JUMPDEST SWAP2 POP POP CALLVALUE PUSH2 0x2FE1 JUMPI STOP JUMPDEST PUSH4 0xB398979F PUSH1 0xE0 SHL DUP2 MSTORE REVERT JUMPDEST DUP2 MLOAD PUSH4 0x4C9C8CE3 PUSH1 0xE0 SHL DUP2 MSTORE DUP1 DUP8 ADD DUP5 SWAP1 MSTORE PUSH1 0x24 SWAP1 REVERT JUMPDEST DUP7 PUSH1 0x24 SWAP2 DUP5 MLOAD SWAP2 PUSH4 0x2A875269 PUSH1 0xE2 SHL DUP4 MSTORE DUP3 ADD MSTORE REVERT JUMPDEST SWAP1 SWAP7 POP PUSH1 0x20 DUP2 RETURNDATASIZE PUSH1 0x20 GT PUSH2 0x3046 JUMPI JUMPDEST DUP2 PUSH2 0x3036 PUSH1 0x20 SWAP4 DUP4 PUSH2 0x4724 JUMP JUMPDEST DUP2 ADD SUB SLT PUSH2 0x37F JUMPI MLOAD SWAP6 PUSH0 PUSH2 0x2F3E JUMP JUMPDEST RETURNDATASIZE SWAP2 POP PUSH2 0x3029 JUMP JUMPDEST DUP2 MLOAD PUSH4 0x703E46DD PUSH1 0xE1 SHL DUP2 MSTORE DUP5 SWAP1 REVERT JUMPDEST SWAP1 POP DUP2 PUSH32 0x360894A13BA1A3210667C828492DB98DCA3E2076CC3735A920A3CA505D382BBC SLOAD AND EQ ISZERO PUSH0 PUSH2 0x2F0B JUMP JUMPDEST SWAP1 POP CALLVALUE PUSH2 0x37F JUMPI PUSH2 0x309C CALLDATASIZE PUSH2 0x4927 JUMP JUMPDEST SWAP2 SWAP1 PUSH2 0x30AA PUSH2 0x44E CALLER PUSH2 0x5397 JUMP JUMPDEST CALLER PUSH0 MSTORE PUSH1 0x1 PUSH1 0x20 MSTORE DUP4 PUSH0 KECCAK256 SLOAD SWAP2 DUP2 PUSH0 MSTORE PUSH1 0xF PUSH1 0x20 MSTORE DUP5 PUSH0 KECCAK256 DUP4 PUSH0 MSTORE PUSH1 0x20 MSTORE DUP5 PUSH0 KECCAK256 DUP1 SLOAD PUSH1 0xFF DUP2 AND DUP4 DUP2 LT ISZERO PUSH2 0x1C51 JUMPI PUSH1 0x2 PUSH2 0x30E5 SWAP2 EQ PUSH2 0x52AB JUMP JUMPDEST PUSH1 0x3 DUP7 LT ISZERO PUSH2 0x318E JUMPI PUSH1 0x8 SHR PUSH1 0xFF AND SWAP2 PUSH1 0x3 DUP4 LT ISZERO PUSH2 0x7D1 JUMPI DUP3 PUSH1 0xFF DUP8 AND LT ISZERO PUSH2 0x313F JUMPI POP PUSH32 0xB36EC3C738EF8ECD9180ADDC815304762374B76E91C2A321831D9906EA119ADE PUSH2 0x1E3F DUP6 SWAP4 PUSH2 0x5B5 SWAP9 PUSH2 0x1E32 DUP10 DUP9 SWAP7 PUSH2 0x4F76 JUMP JUMPDEST PUSH1 0x84 SWAP1 PUSH1 0x20 DUP9 MLOAD SWAP2 PUSH3 0x461BCD PUSH1 0xE5 SHL DUP4 MSTORE DUP3 ADD MSTORE PUSH1 0x23 PUSH1 0x24 DUP3 ADD MSTORE PUSH32 0x43616E206F6E6C7920646F776E677261646520746F2061206C6F776572206C65 PUSH1 0x44 DUP3 ADD MSTORE PUSH3 0x1D995B PUSH1 0xEA SHL PUSH1 0x64 DUP3 ADD MSTORE REVERT JUMPDEST PUSH1 0x21 DUP4 PUSH4 0x4E487B71 PUSH1 0xE0 SHL PUSH0 MSTORE MSTORE PUSH1 0x24 PUSH0 REVERT JUMPDEST SWAP1 POP CALLVALUE PUSH2 0x37F JUMPI DUP2 PUSH1 0x3 NOT CALLDATASIZE ADD SLT PUSH2 0x37F JUMPI PUSH2 0x31BB PUSH2 0x4693 JUMP JUMPDEST SWAP2 PUSH1 0x24 CALLDATALOAD SWAP3 PUSH1 0x1 DUP1 PUSH1 0xA0 SHL SUB PUSH2 0x31D5 DUP2 PUSH0 SLOAD AND CALLER EQ PUSH2 0x4DFA JUMP JUMPDEST DUP2 AND SWAP3 PUSH2 0x31E3 DUP5 ISZERO ISZERO PUSH2 0x51D7 JUMP JUMPDEST PUSH2 0x31EE DUP6 ISZERO ISZERO PUSH2 0x521C JUMP JUMPDEST DUP4 PUSH0 MSTORE PUSH2 0x3253 PUSH1 0x20 SWAP3 PUSH1 0x1 DUP5 MSTORE PUSH2 0x3208 DUP6 PUSH0 KECCAK256 SLOAD ISZERO PUSH2 0x525F JUMP JUMPDEST PUSH2 0x3244 DUP6 MLOAD PUSH2 0x3216 DUP2 PUSH2 0x46BF JUMP JUMPDEST DUP9 DUP2 MSTORE PUSH1 0x1 DUP7 DUP3 ADD DUP2 DUP2 MSTORE DUP10 PUSH0 MSTORE DUP2 DUP9 MSTORE DUP9 PUSH0 KECCAK256 SWAP3 MLOAD DUP4 SSTORE MLOAD ISZERO ISZERO SWAP2 ADD SWAP1 PUSH1 0xFF DUP1 NOT DUP4 SLOAD AND SWAP2 ISZERO ISZERO AND OR SWAP1 SSTORE JUMP JUMPDEST DUP7 PUSH0 MSTORE PUSH1 0x3 DUP5 MSTORE DUP5 PUSH0 KECCAK256 PUSH2 0x4CE4 JUMP JUMPDEST DUP5 PUSH0 MSTORE PUSH1 0x2 DUP3 MSTORE PUSH1 0xFF DUP4 PUSH0 KECCAK256 SLOAD AND SWAP1 PUSH1 0x6 DUP3 LT ISZERO PUSH2 0x7D1 JUMPI POP PUSH2 0x32C5 JUMPI PUSH32 0x39D132591EE0696DE49AB564E4A90E430C006561917DB731A2A614DD2D245591 SWAP2 DUP5 PUSH0 MSTORE PUSH1 0x2 DUP3 MSTORE DUP1 PUSH0 KECCAK256 PUSH1 0x2 PUSH1 0xFF NOT DUP3 SLOAD AND OR SWAP1 SSTORE PUSH2 0x32B0 DUP6 PUSH2 0x4D1F JUMP JUMPDEST PUSH2 0x32BB PUSH1 0x5 SLOAD PUSH2 0x4DA2 JUMP JUMPDEST PUSH1 0x5 SSTORE MLOAD TIMESTAMP DUP2 MSTORE LOG3 STOP JUMPDEST PUSH32 0x1CC138F50384BE7770A8E4A34EECAA0D0C718BFAA1641AF49DB32532E4A5B910 SWAP2 MLOAD TIMESTAMP DUP2 MSTORE LOG3 STOP JUMPDEST DUP3 CALLVALUE PUSH2 0x37F JUMPI PUSH1 0x20 CALLDATASIZE PUSH1 0x3 NOT ADD SLT PUSH2 0x37F JUMPI PUSH1 0x20 SWAP1 PUSH2 0x157B PUSH2 0x2463 PUSH2 0x4693 JUMP JUMPDEST DUP3 CALLVALUE PUSH2 0x37F JUMPI PUSH1 0x20 SWAP1 PUSH2 0x3323 PUSH2 0x1E9F CALLDATASIZE PUSH2 0x49B9 JUMP JUMPDEST PUSH0 MSTORE PUSH1 0x6 DUP3 MSTORE PUSH2 0x647 DUP2 PUSH0 KECCAK256 SWAP2 DUP1 MLOAD PUSH2 0x333B DUP2 PUSH2 0x46BF JUMP JUMPDEST PUSH1 0xFF PUSH1 0x1 PUSH2 0x3348 DUP7 PUSH2 0x4A07 JUMP JUMPDEST SWAP6 DUP7 DUP5 MSTORE ADD SLOAD AND ISZERO ISZERO SWAP5 DUP6 SWAP2 ADD MSTORE MLOAD SWAP3 DUP4 SWAP3 DUP4 PUSH2 0x4AE7 JUMP JUMPDEST DUP3 CALLVALUE PUSH2 0x37F JUMPI DUP1 PUSH1 0x3 NOT CALLDATASIZE ADD SLT PUSH2 0x37F JUMPI PUSH2 0x3387 PUSH2 0x647 SWAP3 PUSH2 0x3380 PUSH2 0x46A9 JUMP JUMPDEST SWAP1 CALLDATALOAD PUSH2 0x515F JUMP JUMPDEST SWAP3 SWAP1 SWAP2 MLOAD SWAP3 DUP4 SWAP3 DUP4 PUSH2 0x4AE7 JUMP JUMPDEST SWAP1 POP CALLVALUE PUSH2 0x37F JUMPI PUSH1 0x20 SWAP1 PUSH1 0x20 PUSH1 0x3 NOT CALLDATASIZE ADD SLT PUSH2 0x37F JUMPI CALLDATALOAD PUSH0 MSTORE PUSH1 0x8 PUSH1 0x20 MSTORE DUP2 PUSH0 KECCAK256 SWAP2 DUP1 MLOAD SWAP2 DUP3 PUSH1 0x20 DUP6 SLOAD SWAP2 DUP3 DUP2 MSTORE ADD SWAP5 PUSH0 MSTORE PUSH1 0x20 PUSH0 KECCAK256 SWAP2 PUSH0 SWAP1 JUMPDEST DUP3 DUP3 LT PUSH2 0x33E6 JUMPI PUSH2 0x647 DUP7 DUP7 PUSH2 0x934 DUP3 DUP12 SUB DUP4 PUSH2 0x4724 JUMP JUMPDEST DUP4 SLOAD DUP8 MSTORE SWAP6 DUP7 ADD SWAP6 PUSH1 0x1 SWAP4 DUP5 ADD SWAP4 SWAP1 SWAP2 ADD SWAP1 PUSH2 0x33CE JUMP JUMPDEST DUP3 CALLVALUE PUSH2 0x37F JUMPI PUSH1 0x20 SWAP1 PUSH2 0x157B PUSH2 0x3412 CALLDATASIZE PUSH2 0x4977 JUMP JUMPDEST SWAP2 PUSH2 0x5133 JUMP JUMPDEST SWAP1 POP CALLVALUE PUSH2 0x37F JUMPI PUSH1 0x20 CALLDATASIZE PUSH1 0x3 NOT ADD SLT PUSH2 0x37F JUMPI CALLDATALOAD PUSH0 MSTORE PUSH1 0x6 PUSH1 0x20 MSTORE DUP1 PUSH0 KECCAK256 PUSH2 0x647 PUSH1 0xFF PUSH1 0x1 PUSH2 0x3446 DUP5 PUSH2 0x4A07 JUMP JUMPDEST SWAP4 ADD SLOAD AND SWAP3 MLOAD SWAP3 DUP4 SWAP3 DUP4 PUSH2 0x4AE7 JUMP JUMPDEST DUP3 CALLVALUE PUSH2 0x37F JUMPI PUSH2 0x3464 CALLDATASIZE PUSH2 0x49B9 JUMP JUMPDEST SWAP1 PUSH0 MSTORE PUSH1 0x12 PUSH1 0x20 MSTORE DUP2 PUSH0 KECCAK256 SWAP1 PUSH0 MSTORE PUSH1 0x20 MSTORE DUP1 PUSH0 KECCAK256 SWAP1 PUSH2 0x647 PUSH1 0x60 DUP3 MLOAD SWAP4 PUSH2 0x348A DUP6 PUSH2 0x46EE JUMP JUMPDEST DUP1 SLOAD SWAP4 DUP5 DUP7 MSTORE PUSH1 0x1 DUP3 ADD SLOAD SWAP6 DUP7 PUSH1 0x20 DUP3 ADD MSTORE PUSH1 0x3 PUSH1 0x2 DUP5 ADD SLOAD SWAP4 DUP5 DUP5 DUP5 ADD MSTORE ADD SLOAD SWAP4 DUP5 SWAP2 ADD MSTORE MLOAD SWAP5 DUP6 SWAP5 DUP6 SWAP1 SWAP5 SWAP4 SWAP3 PUSH1 0x60 SWAP3 PUSH1 0x80 DUP4 ADD SWAP7 DUP4 MSTORE PUSH1 0x20 DUP4 ADD MSTORE PUSH1 0x40 DUP3 ADD MSTORE ADD MSTORE JUMP JUMPDEST DUP3 CALLVALUE PUSH2 0x37F JUMPI PUSH1 0x20 DUP1 PUSH1 0x3 NOT CALLDATASIZE ADD SLT PUSH2 0x37F JUMPI DUP3 CALLDATALOAD SWAP2 PUSH2 0x34F2 DUP4 ISZERO ISZERO PUSH2 0x4F95 JUMP JUMPDEST CALLER PUSH0 MSTORE PUSH1 0x1 DUP3 MSTORE DUP1 PUSH0 KECCAK256 SLOAD SWAP4 PUSH2 0x3510 PUSH2 0x3509 PUSH2 0x50C7 JUMP JUMPDEST DUP7 DUP7 PUSH2 0x57EB JUMP JUMPDEST ISZERO PUSH2 0x3601 JUMPI DUP4 PUSH0 MSTORE PUSH1 0x7 DUP4 MSTORE PUSH1 0x1 DUP3 PUSH0 KECCAK256 SLOAD GT PUSH1 0x8 DUP5 MSTORE DUP3 PUSH0 KECCAK256 SLOAD ISZERO ISZERO DUP2 ISZERO PUSH2 0x35F9 JUMPI JUMPDEST POP ISZERO PUSH2 0x359E JUMPI POP SWAP1 PUSH32 0x68F37CC4A32F0B24153CE9237B344B20A9717039F90D7C24F35E5C217F03E168 SWAP2 PUSH2 0x3568 DUP6 DUP6 PUSH2 0x563E JUMP JUMPDEST PUSH2 0x357A PUSH2 0x3573 PUSH2 0x50C7 JUMP JUMPDEST DUP8 DUP8 PUSH2 0x5672 JUMP JUMPDEST PUSH0 MSTORE PUSH1 0x6 DUP3 MSTORE PUSH1 0x1 DUP2 PUSH0 KECCAK256 ADD PUSH1 0xFF NOT DUP2 SLOAD AND SWAP1 SSTORE PUSH1 0xE DUP3 MSTORE PUSH0 DUP2 DUP2 KECCAK256 SSTORE MLOAD TIMESTAMP DUP2 MSTORE LOG3 STOP JUMPDEST DUP3 PUSH1 0x84 SWAP3 MLOAD SWAP2 PUSH3 0x461BCD PUSH1 0xE5 SHL DUP4 MSTORE DUP3 ADD MSTORE PUSH1 0x31 PUSH1 0x24 DUP3 ADD MSTORE PUSH32 0x43616E6E6F74206C65617665206173206C617374206F776E6572207769746820 PUSH1 0x44 DUP3 ADD MSTORE PUSH17 0x6E6F2061646D696E6973747261746F7273 PUSH1 0x78 SHL PUSH1 0x64 DUP3 ADD MSTORE REVERT JUMPDEST SWAP1 POP DUP7 PUSH2 0x3534 JUMP JUMPDEST DUP3 PUSH1 0x84 SWAP3 MLOAD SWAP2 PUSH3 0x461BCD PUSH1 0xE5 SHL DUP4 MSTORE DUP3 ADD MSTORE PUSH1 0x23 PUSH1 0x24 DUP3 ADD MSTORE PUSH32 0x596F7520617265206E6F7420616E206F776E6572206F66207468697320726563 PUSH1 0x44 DUP3 ADD MSTORE PUSH3 0x1BDC99 PUSH1 0xEA SHL PUSH1 0x64 DUP3 ADD MSTORE REVERT JUMPDEST SWAP1 POP CALLVALUE PUSH2 0x37F JUMPI PUSH1 0x20 SWAP1 PUSH1 0x20 PUSH1 0x3 NOT CALLDATASIZE ADD SLT PUSH2 0x37F JUMPI CALLDATALOAD PUSH0 MSTORE PUSH1 0x9 PUSH1 0x20 MSTORE DUP2 PUSH0 KECCAK256 SWAP2 DUP1 MLOAD SWAP2 DUP3 PUSH1 0x20 DUP6 SLOAD SWAP2 DUP3 DUP2 MSTORE ADD SWAP5 PUSH0 MSTORE PUSH1 0x20 PUSH0 KECCAK256 SWAP2 PUSH0 SWAP1 JUMPDEST DUP3 DUP3 LT PUSH2 0x36A0 JUMPI PUSH2 0x647 DUP7 DUP7 PUSH2 0x934 DUP3 DUP12 SUB DUP4 PUSH2 0x4724 JUMP JUMPDEST DUP4 SLOAD DUP8 MSTORE SWAP6 DUP7 ADD SWAP6 PUSH1 0x1 SWAP4 DUP5 ADD SWAP4 SWAP1 SWAP2 ADD SWAP1 PUSH2 0x3688 JUMP JUMPDEST SWAP1 POP CALLVALUE PUSH2 0x37F JUMPI PUSH2 0x36C7 CALLDATASIZE PUSH2 0x4977 JUMP JUMPDEST SWAP2 SWAP3 SWAP1 PUSH2 0x36D6 PUSH2 0x44E CALLER PUSH2 0x5397 JUMP JUMPDEST PUSH2 0x36E1 DUP5 ISZERO ISZERO PUSH2 0x4F95 JUMP JUMPDEST PUSH1 0x1 PUSH1 0x1 PUSH1 0xA0 SHL SUB AND PUSH2 0x36F5 DUP2 ISZERO ISZERO PUSH2 0x4FE1 JUMP JUMPDEST PUSH2 0x3701 PUSH2 0xA10 DUP5 PUSH2 0x5773 JUMP JUMPDEST CALLER PUSH0 MSTORE PUSH1 0x20 SWAP4 PUSH1 0x1 DUP6 MSTORE DUP6 PUSH0 KECCAK256 SLOAD SWAP2 PUSH0 MSTORE DUP6 PUSH0 KECCAK256 SLOAD SWAP3 PUSH2 0x3722 DUP5 ISZERO ISZERO PUSH2 0x4C05 JUMP JUMPDEST DUP5 MLOAD DUP7 DUP7 ADD KECCAK256 SWAP6 PUSH2 0x3733 DUP6 DUP5 PUSH2 0x563E JUMP JUMPDEST DUP1 PUSH0 MSTORE PUSH1 0x6 DUP3 MSTORE PUSH2 0x374C PUSH1 0xFF PUSH1 0x1 DUP12 PUSH0 KECCAK256 ADD SLOAD AND PUSH2 0x506F JUMP JUMPDEST PUSH0 MSTORE PUSH1 0x6 DUP2 MSTORE PUSH2 0x375D DUP9 PUSH0 KECCAK256 PUSH2 0x4A07 JUMP JUMPDEST SWAP7 DUP8 MLOAD DUP3 DUP10 ADD KECCAK256 SWAP1 DUP1 DUP3 EQ PUSH2 0x3D8C JUMPI PUSH2 0x3774 PUSH2 0x50C7 JUMP JUMPDEST DUP4 DUP2 MLOAD SWAP2 ADD KECCAK256 DUP3 EQ PUSH2 0x3D17 JUMPI DUP5 PUSH0 MSTORE PUSH1 0x7 DUP4 MSTORE DUP10 PUSH0 KECCAK256 SLOAD ISZERO SWAP2 DUP3 ISZERO PUSH2 0x37A1 PUSH2 0x379A PUSH2 0x50C7 JUMP JUMPDEST DUP10 DUP10 PUSH2 0x57EB JUMP JUMPDEST SWAP1 PUSH2 0x37B4 PUSH2 0x37AD PUSH2 0x50E8 JUMP JUMPDEST DUP11 DUP11 PUSH2 0x57EB JUMP JUMPDEST SWAP1 PUSH2 0x37C7 PUSH2 0x37C0 PUSH2 0x5111 JUMP JUMPDEST DUP12 DUP12 PUSH2 0x57EB JUMP JUMPDEST DUP12 DUP12 EQ PUSH2 0x37D2 PUSH2 0x50C7 JUMP JUMPDEST DUP1 MLOAD SWAP1 DUP11 ADD KECCAK256 DUP8 SUB PUSH2 0x394F JUMPI POP POP ISZERO PUSH2 0x38F2 JUMPI POP ISZERO PUSH2 0x38B1 JUMPI JUMPDEST PUSH2 0x37F4 PUSH2 0x50E8 JUMP JUMPDEST DUP5 DUP2 MLOAD SWAP2 ADD KECCAK256 EQ SWAP1 DUP2 PUSH2 0x389A JUMPI JUMPDEST POP PUSH2 0x3815 JUMPI JUMPDEST POP POP POP PUSH2 0x5B5 SWAP6 POP PUSH2 0x58D3 JUMP JUMPDEST PUSH2 0x3820 JUMPI JUMPDEST DUP1 PUSH2 0x3808 JUMP JUMPDEST DUP3 PUSH0 MSTORE PUSH1 0x8 DUP2 MSTORE PUSH1 0x1 DUP9 PUSH0 KECCAK256 SLOAD GT PUSH2 0x381A JUMPI DUP8 MLOAD PUSH3 0x461BCD PUSH1 0xE5 SHL DUP2 MSTORE SWAP2 DUP3 ADD MSTORE PUSH1 0x39 PUSH1 0x24 DUP3 ADD MSTORE PUSH32 0x43616E6E6F742064656D6F746520746865206C6173742061646D696E69737472 PUSH1 0x44 DUP3 ADD MSTORE PUSH32 0x61746F72207768656E206E6F206F776E65722065786973747300000000000000 PUSH1 0x64 DUP3 ADD MSTORE PUSH1 0x84 SWAP2 POP REVERT JUMPDEST SWAP1 POP PUSH2 0x38A4 PUSH2 0x4DD8 JUMP JUMPDEST DUP4 DUP2 MLOAD SWAP2 ADD KECCAK256 EQ PUSH0 PUSH2 0x3802 JUMP JUMPDEST PUSH1 0x64 DUP6 DUP6 DUP1 DUP15 MLOAD SWAP3 PUSH3 0x461BCD PUSH1 0xE5 SHL DUP5 MSTORE DUP4 ADD MSTORE PUSH1 0x24 DUP3 ADD MSTORE PUSH32 0x4F6E6C79206F776E6572732063616E2070726F6D6F746520746F206F776E6572 PUSH1 0x44 DUP3 ADD MSTORE REVERT JUMPDEST SWAP1 POP PUSH2 0x37EC JUMPI DUP11 MLOAD PUSH3 0x461BCD PUSH1 0xE5 SHL DUP2 MSTORE DUP1 DUP7 ADD DUP6 SWAP1 MSTORE PUSH1 0x2B PUSH1 0x24 DUP3 ADD MSTORE PUSH32 0x4F6E6C792061646D696E6973747261746F72732063616E2070726F6D6F746520 PUSH1 0x44 DUP3 ADD MSTORE PUSH11 0x3334B939BA1037BBB732B9 PUSH1 0xA9 SHL PUSH1 0x64 DUP3 ADD MSTORE PUSH1 0x84 SWAP1 REVERT JUMPDEST SWAP1 SWAP2 PUSH2 0x3959 PUSH2 0x50E8 JUMP JUMPDEST DUP1 MLOAD SWAP1 DUP11 ADD KECCAK256 DUP8 SUB PUSH2 0x39EC JUMPI POP POP POP DUP2 ISZERO PUSH2 0x39E4 JUMPI JUMPDEST POP ISZERO PUSH2 0x397B JUMPI JUMPDEST PUSH2 0x37EC JUMP JUMPDEST DUP11 MLOAD PUSH3 0x461BCD PUSH1 0xE5 SHL DUP2 MSTORE DUP1 DUP7 ADD DUP6 SWAP1 MSTORE PUSH1 0x3B PUSH1 0x24 DUP3 ADD MSTORE PUSH32 0x4F6E6C79206F776E65727320616E642061646D696E6973747261746F72732063 PUSH1 0x44 DUP3 ADD MSTORE PUSH32 0x616E2070726F6D6F746520746F2061646D696E6973747261746F720000000000 PUSH1 0x64 DUP3 ADD MSTORE PUSH1 0x84 SWAP1 REVERT JUMPDEST SWAP1 POP PUSH0 PUSH2 0x396F JUMP JUMPDEST PUSH2 0x39F8 SWAP4 SWAP2 SWAP3 SWAP4 PUSH2 0x5111 JUMP JUMPDEST DUP1 MLOAD SWAP1 DUP11 ADD KECCAK256 DUP8 SUB PUSH2 0x3B59 JUMPI ISZERO PUSH2 0x3ADD JUMPI DUP4 ISZERO PUSH2 0x3AC6 JUMPI JUMPDEST POP DUP3 ISZERO PUSH2 0x3AAD JUMPI JUMPDEST POP POP PUSH2 0x37EC JUMPI DUP11 MLOAD PUSH3 0x461BCD PUSH1 0xE5 SHL DUP2 MSTORE DUP1 DUP7 ADD DUP6 SWAP1 MSTORE PUSH1 0x57 PUSH1 0x24 DUP3 ADD MSTORE PUSH32 0x4F6E6C79206F776E6572732063616E206368616E6765206F746865727320746F PUSH1 0x44 DUP3 ADD MSTORE PUSH32 0x207368617265722E2041646D696E7320616E6420736861726572732063616E20 PUSH1 0x64 DUP3 ADD MSTORE PUSH32 0x6F6E6C792064656D6F7465207468656D73656C7665732E000000000000000000 PUSH1 0x84 DUP3 ADD MSTORE PUSH1 0xA4 SWAP1 REVERT JUMPDEST SWAP1 SWAP2 POP DUP2 PUSH2 0x3ABE JUMPI JUMPDEST POP PUSH0 DUP1 PUSH2 0x3A18 JUMP JUMPDEST SWAP1 POP PUSH0 PUSH2 0x3AB6 JUMP JUMPDEST SWAP1 SWAP3 POP DUP1 PUSH2 0x3AD6 JUMPI JUMPDEST SWAP2 PUSH0 PUSH2 0x3A10 JUMP JUMPDEST POP DUP2 PUSH2 0x3ACF JUMP JUMPDEST SWAP3 POP DUP3 ISZERO PUSH2 0x3B40 JUMPI JUMPDEST POP POP PUSH2 0x3976 JUMPI DUP11 MLOAD PUSH3 0x461BCD PUSH1 0xE5 SHL DUP2 MSTORE DUP1 DUP7 ADD DUP6 SWAP1 MSTORE PUSH1 0x28 PUSH1 0x24 DUP3 ADD MSTORE PUSH32 0x4F6E6C792061646D696E6973747261746F72732063616E2064656D6F74652074 PUSH1 0x44 DUP3 ADD MSTORE PUSH8 0x379039B430B932B9 PUSH1 0xC1 SHL PUSH1 0x64 DUP3 ADD MSTORE PUSH1 0x84 SWAP1 REVERT JUMPDEST SWAP1 SWAP2 POP DUP2 PUSH2 0x3B51 JUMPI JUMPDEST POP PUSH0 DUP1 PUSH2 0x3AE6 JUMP JUMPDEST SWAP1 POP PUSH0 PUSH2 0x3B49 JUMP JUMPDEST PUSH2 0x3B61 PUSH2 0x4DD8 JUMP JUMPDEST DUP10 DUP2 MLOAD SWAP2 ADD KECCAK256 DUP8 EQ PUSH2 0x3B78 JUMPI JUMPDEST POP POP POP POP POP PUSH2 0x37EC JUMP JUMPDEST ISZERO PUSH2 0x3CBB JUMPI DUP4 ISZERO PUSH2 0x3CA4 JUMPI JUMPDEST POP DUP3 ISZERO PUSH2 0x3C8B JUMPI JUMPDEST POP POP ISZERO PUSH2 0x3C04 JUMPI JUMPDEST PUSH2 0x3B9E DUP9 DUP8 PUSH2 0x5849 JUMP JUMPDEST PUSH2 0x3BAC JUMPI PUSH0 DUP1 DUP1 DUP1 DUP1 PUSH2 0x3B6E JUMP JUMPDEST DUP11 MLOAD PUSH3 0x461BCD PUSH1 0xE5 SHL DUP2 MSTORE DUP1 DUP7 ADD DUP6 SWAP1 MSTORE PUSH1 0x2C PUSH1 0x24 DUP3 ADD MSTORE PUSH32 0x43616E6E6F742064656D6F746520616E20616374697665207375626A65637420 PUSH1 0x44 DUP3 ADD MSTORE PUSH12 0x3132B637BB9039B430B932B9 PUSH1 0xA1 SHL PUSH1 0x64 DUP3 ADD MSTORE PUSH1 0x84 SWAP1 REVERT JUMPDEST DUP11 MLOAD PUSH3 0x461BCD PUSH1 0xE5 SHL DUP2 MSTORE DUP1 DUP7 ADD DUP6 SWAP1 MSTORE PUSH1 0x55 PUSH1 0x24 DUP3 ADD MSTORE PUSH32 0x4F6E6C79206F776E6572732063616E2064656D6F7465206F74686572732E2041 PUSH1 0x44 DUP3 ADD MSTORE PUSH32 0x646D696E6973747261746F727320616E6420736861726572732063616E206F6E PUSH1 0x64 DUP3 ADD MSTORE PUSH21 0x363C903232B6B7BA32903A3432B6B9B2B63B32B997 PUSH1 0x59 SHL PUSH1 0x84 DUP3 ADD MSTORE PUSH1 0xA4 SWAP1 REVERT JUMPDEST SWAP1 SWAP2 POP DUP2 PUSH2 0x3C9C JUMPI JUMPDEST POP PUSH0 DUP1 PUSH2 0x3B8C JUMP JUMPDEST SWAP1 POP PUSH0 PUSH2 0x3C94 JUMP JUMPDEST SWAP1 SWAP3 POP DUP1 PUSH2 0x3CB4 JUMPI JUMPDEST SWAP2 PUSH0 PUSH2 0x3B84 JUMP JUMPDEST POP DUP2 PUSH2 0x3CAD JUMP JUMPDEST SWAP3 POP POP POP PUSH2 0x3B94 JUMPI DUP11 MLOAD PUSH3 0x461BCD PUSH1 0xE5 SHL DUP2 MSTORE DUP1 DUP7 ADD DUP6 SWAP1 MSTORE PUSH1 0x28 PUSH1 0x24 DUP3 ADD MSTORE PUSH32 0x4F6E6C792061646D696E6973747261746F72732063616E2064656D6F74652074 PUSH1 0x44 DUP3 ADD MSTORE PUSH8 0x37903B34B2BBB2B9 PUSH1 0xC1 SHL PUSH1 0x64 DUP3 ADD MSTORE PUSH1 0x84 SWAP1 REVERT JUMPDEST DUP10 MLOAD PUSH3 0x461BCD PUSH1 0xE5 SHL DUP2 MSTORE DUP1 DUP6 ADD DUP5 SWAP1 MSTORE PUSH1 0x43 PUSH1 0x24 DUP3 ADD MSTORE PUSH32 0x4F776E6572732063616E6E6F742062652064656D6F7465642E204F776E657220 PUSH1 0x44 DUP3 ADD MSTORE PUSH32 0x6D75737420766F6C756E746172696C792072656D6F7665207468656D73656C76 PUSH1 0x64 DUP3 ADD MSTORE PUSH3 0x32B997 PUSH1 0xE9 SHL PUSH1 0x84 DUP3 ADD MSTORE PUSH1 0xA4 SWAP1 REVERT JUMPDEST DUP10 MLOAD PUSH3 0x461BCD PUSH1 0xE5 SHL DUP2 MSTORE DUP1 DUP6 ADD DUP5 SWAP1 MSTORE PUSH1 0x1C PUSH1 0x24 DUP3 ADD MSTORE PUSH32 0x54617267657420616C726561647920686173207468697320726F6C6500000000 PUSH1 0x44 DUP3 ADD MSTORE PUSH1 0x64 SWAP1 REVERT JUMPDEST DUP3 CALLVALUE PUSH2 0x37F JUMPI PUSH1 0x20 CALLDATASIZE PUSH1 0x3 NOT ADD SLT PUSH2 0x37F JUMPI PUSH1 0x20 SWAP1 PUSH2 0x157B PUSH2 0x3DEF PUSH2 0x4693 JUMP JUMPDEST PUSH2 0x571D JUMP JUMPDEST DUP3 CALLVALUE PUSH2 0x37F JUMPI PUSH2 0x3E03 CALLDATASIZE PUSH2 0x4946 JUMP JUMPDEST PUSH2 0x3E12 PUSH2 0x44E SWAP4 SWAP3 SWAP4 CALLER PUSH2 0x5397 JUMP JUMPDEST CALLER PUSH0 MSTORE PUSH1 0x1 SWAP3 DUP4 SWAP3 PUSH1 0x20 SWAP1 DUP5 DUP3 MSTORE DUP1 PUSH0 KECCAK256 SLOAD SWAP3 PUSH2 0x3E31 DUP2 MLOAD ISZERO ISZERO PUSH2 0x4CA2 JUMP JUMPDEST PUSH0 SWAP6 JUMPDEST PUSH2 0x3E3A JUMPI STOP JUMPDEST DUP1 MLOAD DUP7 LT ISZERO PUSH2 0x5B5 JUMPI DUP7 DUP7 DUP7 DUP7 PUSH2 0x3E52 DUP5 SWAP11 DUP7 PUSH2 0x4DC4 JUMP JUMPDEST MLOAD DUP1 PUSH0 MSTORE PUSH1 0x12 DUP9 MSTORE DUP7 PUSH0 KECCAK256 DUP4 PUSH0 MSTORE DUP9 MSTORE DUP7 PUSH0 KECCAK256 DUP8 MLOAD PUSH2 0x3E70 DUP2 PUSH2 0x46EE JUMP JUMPDEST DUP2 SLOAD SWAP1 DUP2 DUP2 MSTORE DUP8 DUP4 ADD SLOAD DUP12 DUP3 ADD MSTORE PUSH1 0x60 PUSH1 0x3 PUSH1 0x2 DUP6 ADD SLOAD SWAP5 DUP6 DUP14 DUP6 ADD MSTORE ADD SLOAD SWAP2 ADD MSTORE ISZERO PUSH2 0x3F6A JUMPI PUSH2 0x3EA9 PUSH2 0x3EA2 PUSH2 0x50C7 JUMP JUMPDEST DUP5 DUP5 PUSH2 0x57EB JUMP JUMPDEST SWAP1 DUP2 ISZERO PUSH2 0x3F57 JUMPI JUMPDEST DUP4 EQ ISZERO SWAP1 DUP2 PUSH2 0x3F4E JUMPI JUMPDEST POP PUSH2 0x3F46 JUMPI PUSH2 0x3ECA DUP4 DUP3 PUSH2 0x563E JUMP JUMPDEST DUP1 PUSH0 MSTORE PUSH1 0x6 SWAP1 DUP2 DUP11 MSTORE PUSH1 0xFF DUP8 DUP11 PUSH0 KECCAK256 ADD SLOAD AND PUSH2 0x3F13 JUMPI JUMPDEST POP POP PUSH32 0xA232DCFFAB2D4F0F085A4D88BC617CD25DED7D3B8D8952E99D788CA25D4435B0 DUP9 DUP9 MLOAD TIMESTAMP DUP2 MSTORE LOG4 JUMPDEST ADD SWAP6 PUSH2 0x3E34 JUMP JUMPDEST PUSH2 0x3F25 PUSH2 0x3F1E PUSH2 0x4DD8 JUMP JUMPDEST DUP7 DUP6 PUSH2 0x5672 JUMP JUMPDEST PUSH0 MSTORE DUP9 MSTORE DUP5 DUP8 PUSH0 KECCAK256 ADD PUSH1 0xFF NOT DUP2 SLOAD AND SWAP1 SSTORE PUSH1 0xE DUP9 MSTORE PUSH0 DUP8 DUP2 KECCAK256 SSTORE DUP13 DUP1 PUSH2 0x3EE1 JUMP JUMPDEST POP POP POP PUSH2 0x3F0C JUMP JUMPDEST SWAP1 POP ISZERO DUP14 PUSH2 0x3EBB JUMP JUMPDEST SWAP1 POP PUSH2 0x3F64 PUSH2 0x3EA2 PUSH2 0x50E8 JUMP JUMPDEST SWAP1 PUSH2 0x3EB1 JUMP JUMPDEST POP POP POP POP PUSH2 0x3F0C JUMP JUMPDEST DUP3 CALLVALUE PUSH2 0x37F JUMPI PUSH2 0x3F82 CALLDATASIZE PUSH2 0x4927 JUMP JUMPDEST SWAP1 SWAP2 PUSH2 0x3F90 PUSH2 0x44E CALLER PUSH2 0x5397 JUMP JUMPDEST CALLER PUSH0 MSTORE PUSH1 0x20 SWAP2 PUSH1 0x1 DUP4 MSTORE DUP2 PUSH0 KECCAK256 SLOAD SWAP3 PUSH2 0x3FAA DUP6 ISZERO ISZERO PUSH2 0x4E77 JUMP JUMPDEST PUSH2 0x3FB6 DUP6 DUP6 EQ ISZERO PUSH2 0x4EB5 JUMP JUMPDEST DUP5 PUSH0 MSTORE PUSH1 0x2 DUP2 MSTORE PUSH1 0xFF DUP4 PUSH0 KECCAK256 SLOAD AND PUSH1 0x6 DUP2 LT ISZERO PUSH2 0x853 JUMPI PUSH2 0x3FD8 SWAP1 ISZERO ISZERO PUSH2 0x4F01 JUMP JUMPDEST DUP4 PUSH0 MSTORE PUSH1 0xF DUP2 MSTORE DUP3 PUSH0 KECCAK256 DUP6 PUSH0 MSTORE DUP2 MSTORE PUSH1 0xFF DUP4 PUSH0 KECCAK256 SLOAD AND DUP7 DUP2 LT ISZERO PUSH2 0x853 JUMPI DUP1 ISZERO SWAP1 DUP2 ISZERO PUSH2 0x40CF JUMPI JUMPDEST POP ISZERO PUSH2 0x408D JUMPI DUP3 MLOAD PUSH2 0x4011 DUP2 PUSH2 0x46BF JUMP JUMPDEST PUSH1 0x1 DUP2 MSTORE DUP2 DUP2 ADD PUSH2 0x4022 DUP5 DUP3 PUSH2 0x4F52 JUMP JUMPDEST DUP6 PUSH0 MSTORE PUSH1 0xF DUP4 MSTORE DUP5 PUSH0 KECCAK256 DUP8 PUSH0 MSTORE DUP4 MSTORE DUP5 PUSH0 KECCAK256 SWAP2 MLOAD DUP9 DUP2 LT ISZERO PUSH2 0x7E4 JUMPI PUSH2 0x4048 SWAP1 DUP4 PUSH2 0x4F5E JUMP JUMPDEST MLOAD SWAP7 PUSH1 0x3 DUP9 LT ISZERO PUSH2 0x7D1 JUMPI POP PUSH32 0x494D010FDF588A0E83D626EA6963187BDDA6F88B7007F7BF280683D3F7DEA834 SWAP5 SWAP6 SWAP7 PUSH2 0x4081 SWAP2 PUSH2 0x4F76 JUMP JUMPDEST PUSH2 0x1CFE DUP4 MLOAD DUP1 SWAP4 PUSH2 0x4B51 JUMP JUMPDEST DUP6 PUSH1 0x64 SWAP2 DUP5 MLOAD SWAP2 PUSH3 0x461BCD PUSH1 0xE5 SHL DUP4 MSTORE DUP3 ADD MSTORE PUSH1 0x17 PUSH1 0x24 DUP3 ADD MSTORE PUSH32 0x50726F706F73616C20616C726561647920657869737473000000000000000000 PUSH1 0x44 DUP3 ADD MSTORE REVERT JUMPDEST PUSH1 0x3 SWAP2 POP EQ DUP8 PUSH2 0x4000 JUMP JUMPDEST DUP3 CALLVALUE PUSH2 0x37F JUMPI PUSH1 0x20 CALLDATASIZE PUSH1 0x3 NOT ADD SLT PUSH2 0x37F JUMPI PUSH2 0x40F4 PUSH2 0x4693 JUMP JUMPDEST PUSH0 SLOAD PUSH1 0x1 PUSH1 0x1 PUSH1 0xA0 SHL SUB SWAP2 SWAP1 PUSH2 0x410D SWAP1 DUP4 AND CALLER EQ PUSH2 0x4DFA JUMP JUMPDEST AND DUP1 PUSH0 MSTORE PUSH1 0x1 PUSH1 0x20 MSTORE PUSH2 0x4124 DUP3 PUSH0 KECCAK256 SLOAD ISZERO ISZERO PUSH2 0x4E33 JUMP JUMPDEST DUP1 PUSH0 MSTORE PUSH1 0x1 PUSH1 0x20 MSTORE PUSH1 0xFF PUSH1 0x1 DUP4 PUSH0 KECCAK256 ADD SLOAD AND ISZERO PUSH2 0x4154 JUMPI PUSH1 0x1 SWAP3 POP PUSH0 MSTORE DUP2 PUSH1 0x20 MSTORE PUSH0 KECCAK256 ADD PUSH1 0xFF NOT DUP2 SLOAD AND SWAP1 SSTORE PUSH0 DUP1 RETURN JUMPDEST DUP2 MLOAD PUSH3 0x461BCD PUSH1 0xE5 SHL DUP2 MSTORE PUSH1 0x20 DUP2 DUP6 ADD MSTORE PUSH1 0x17 PUSH1 0x24 DUP3 ADD MSTORE PUSH32 0x57616C6C657420616C726561647920696E616374697665000000000000000000 PUSH1 0x44 DUP3 ADD MSTORE PUSH1 0x64 SWAP1 REVERT JUMPDEST DUP3 CALLVALUE PUSH2 0x37F JUMPI PUSH1 0xA0 CALLDATASIZE PUSH1 0x3 NOT ADD SLT PUSH2 0x37F JUMPI DUP2 CALLDATALOAD PUSH1 0x1 PUSH1 0x1 PUSH1 0x40 SHL SUB DUP2 GT PUSH2 0x37F JUMPI PUSH2 0x41C6 SWAP1 CALLDATASIZE SWAP1 DUP5 ADD PUSH2 0x475C JUMP JUMPDEST SWAP1 PUSH2 0x41CF PUSH2 0x46A9 JUMP JUMPDEST PUSH1 0x44 CALLDATALOAD SWAP2 PUSH1 0x64 CALLDATALOAD SWAP4 PUSH1 0x84 CALLDATALOAD PUSH2 0x41E6 PUSH2 0x44E CALLER PUSH2 0x5397 JUMP JUMPDEST CALLER PUSH0 MSTORE PUSH1 0x1 SWAP6 PUSH1 0x20 SWAP2 DUP8 DUP4 MSTORE DUP5 PUSH0 KECCAK256 SLOAD SWAP6 PUSH2 0x4203 DUP6 MLOAD ISZERO ISZERO PUSH2 0x4CA2 JUMP JUMPDEST PUSH1 0x1 PUSH1 0x1 PUSH1 0xA0 SHL SUB DUP2 AND SWAP1 DUP2 ISZERO PUSH2 0x44C2 JUMPI DUP9 ISZERO PUSH2 0x448C JUMPI DUP3 ISZERO PUSH2 0x4449 JUMPI DUP2 PUSH0 MSTORE DUP10 DUP6 MSTORE DUP9 DUP8 PUSH0 KECCAK256 SLOAD DUP1 ISZERO PUSH0 EQ PUSH2 0x43DF JUMPI POP POP PUSH2 0x4275 PUSH2 0x4284 SWAP3 DUP12 DUP10 MLOAD SWAP2 PUSH2 0x4249 DUP4 PUSH2 0x46BF JUMP JUMPDEST DUP13 DUP4 MSTORE DUP9 DUP4 ADD SWAP1 DUP3 DUP3 MSTORE PUSH0 MSTORE DUP2 DUP10 MSTORE DUP11 PUSH0 KECCAK256 SWAP3 MLOAD DUP4 SSTORE MLOAD ISZERO ISZERO SWAP2 ADD SWAP1 PUSH1 0xFF DUP1 NOT DUP4 SLOAD AND SWAP2 ISZERO ISZERO AND OR SWAP1 SSTORE JUMP JUMPDEST DUP9 PUSH0 MSTORE PUSH1 0x3 DUP6 MSTORE DUP7 PUSH0 KECCAK256 PUSH2 0x4CE4 JUMP JUMPDEST DUP7 PUSH0 MSTORE PUSH1 0x2 DUP4 MSTORE DUP5 PUSH0 KECCAK256 PUSH1 0x5 PUSH1 0xFF NOT DUP3 SLOAD AND OR SWAP1 SSTORE PUSH2 0x42A2 DUP8 PUSH2 0x4D1F JUMP JUMPDEST PUSH2 0x42AD PUSH1 0x5 SLOAD PUSH2 0x4DA2 JUMP JUMPDEST PUSH1 0x5 SSTORE JUMPDEST TIMESTAMP ADD SWAP3 DUP4 TIMESTAMP GT PUSH2 0x43CC JUMPI DUP8 SWAP9 POP PUSH0 SWAP8 JUMPDEST PUSH2 0x42C7 JUMPI STOP JUMPDEST DUP1 MLOAD DUP9 LT ISZERO PUSH2 0x5B5 JUMPI DUP9 DUP9 DUP9 DUP9 PUSH2 0x42DF DUP5 SWAP13 DUP7 PUSH2 0x4DC4 JUMP JUMPDEST MLOAD PUSH2 0x42EA DUP3 DUP3 PUSH2 0x563E JUMP JUMPDEST PUSH0 MSTORE DUP10 DUP9 DUP11 PUSH1 0x6 DUP1 DUP4 MSTORE DUP11 PUSH1 0xFF SWAP5 DUP6 DUP12 DUP3 PUSH0 KECCAK256 ADD SLOAD AND ISZERO PUSH2 0x43BE JUMPI PUSH32 0x140D483F221B1B41AA3142BE8C182589305145AAFE83BED53B908D6BAFF35C1D SWAP6 PUSH1 0x3 SWAP4 PUSH2 0x4334 DUP12 DUP11 PUSH2 0x563E JUMP JUMPDEST PUSH0 MSTORE DUP7 MSTORE DUP12 DUP3 PUSH0 KECCAK256 ADD SLOAD AND ISZERO PUSH2 0x43A6 JUMPI JUMPDEST DUP1 MLOAD SWAP4 PUSH2 0x4351 DUP6 PUSH2 0x46EE JUMP JUMPDEST TIMESTAMP DUP6 MSTORE DUP6 DUP6 ADD SWAP1 DUP2 MSTORE DUP2 DUP6 ADD SWAP2 DUP10 DUP4 MSTORE PUSH1 0x60 SWAP7 DUP8 DUP8 ADD SWAP5 DUP6 MSTORE DUP10 PUSH0 MSTORE PUSH1 0x12 DUP2 MSTORE DUP2 PUSH0 KECCAK256 SWAP1 DUP13 PUSH0 MSTORE MSTORE PUSH0 KECCAK256 SWAP5 MLOAD DUP6 SSTORE MLOAD DUP12 DUP6 ADD SSTORE MLOAD PUSH1 0x2 DUP5 ADD SSTORE MLOAD SWAP2 ADD SSTORE DUP12 MLOAD DUP10 DUP2 MSTORE DUP12 DUP12 DUP3 ADD MSTORE TIMESTAMP DUP14 DUP3 ADD MSTORE LOG4 JUMPDEST ADD SWAP8 PUSH2 0x42C1 JUMP JUMPDEST PUSH2 0x43B9 DUP9 PUSH2 0x43B2 PUSH2 0x4DD8 JUMP JUMPDEST DUP12 DUP11 PUSH2 0x5429 JUMP JUMPDEST PUSH2 0x4345 JUMP JUMPDEST POP POP POP POP POP POP POP POP POP PUSH2 0x439F JUMP JUMPDEST PUSH1 0x11 DUP10 PUSH4 0x4E487B71 PUSH1 0xE0 SHL PUSH0 MSTORE MSTORE PUSH1 0x24 PUSH0 REVERT JUMPDEST EQ SWAP2 POP PUSH2 0x42B1 SWAP1 POP JUMPI DUP5 MLOAD PUSH3 0x461BCD PUSH1 0xE5 SHL DUP2 MSTORE DUP1 DUP11 ADD DUP5 SWAP1 MSTORE PUSH1 0x35 PUSH1 0x24 DUP3 ADD MSTORE PUSH32 0x47756573742077616C6C657420616C7265616479207265676973746572656420 PUSH1 0x44 DUP3 ADD MSTORE PUSH21 0x746F20646966666572656E74206964656E74697479 PUSH1 0x58 SHL PUSH1 0x64 DUP3 ADD MSTORE PUSH1 0x84 SWAP1 REVERT JUMPDEST DUP7 MLOAD PUSH3 0x461BCD PUSH1 0xE5 SHL DUP2 MSTORE DUP1 DUP13 ADD DUP7 SWAP1 MSTORE PUSH1 0x19 PUSH1 0x24 DUP3 ADD MSTORE PUSH32 0x4475726174696F6E206D75737420626520706F73697469766500000000000000 PUSH1 0x44 DUP3 ADD MSTORE PUSH1 0x64 SWAP1 REVERT JUMPDEST DUP7 MLOAD PUSH3 0x461BCD PUSH1 0xE5 SHL DUP2 MSTORE DUP1 DUP13 ADD DUP7 SWAP1 MSTORE PUSH1 0x10 PUSH1 0x24 DUP3 ADD MSTORE PUSH16 0x125B9D985B1A590819DD595CDD081251 PUSH1 0x82 SHL PUSH1 0x44 DUP3 ADD MSTORE PUSH1 0x64 SWAP1 REVERT JUMPDEST DUP7 MLOAD PUSH3 0x461BCD PUSH1 0xE5 SHL DUP2 MSTORE DUP1 DUP13 ADD DUP7 SWAP1 MSTORE PUSH1 0x14 PUSH1 0x24 DUP3 ADD MSTORE PUSH20 0x125B9D985B1A590819DD595CDD081DD85B1B195D PUSH1 0x62 SHL PUSH1 0x44 DUP3 ADD MSTORE PUSH1 0x64 SWAP1 REVERT JUMPDEST DUP3 CALLVALUE PUSH2 0x37F JUMPI DUP1 PUSH1 0x3 NOT CALLDATASIZE ADD SLT PUSH2 0x37F JUMPI PUSH2 0x157B PUSH1 0x20 SWAP3 PUSH2 0x451B PUSH2 0x46A9 JUMP JUMPDEST SWAP1 CALLDATALOAD PUSH2 0x4C51 JUMP JUMPDEST SWAP1 POP CALLVALUE PUSH2 0x37F JUMPI PUSH1 0x20 SWAP1 PUSH1 0x20 PUSH1 0x3 NOT CALLDATASIZE ADD SLT PUSH2 0x37F JUMPI CALLDATALOAD PUSH0 MSTORE PUSH1 0xA PUSH1 0x20 MSTORE DUP2 PUSH0 KECCAK256 SWAP2 DUP1 MLOAD SWAP2 DUP3 PUSH1 0x20 DUP6 SLOAD SWAP2 DUP3 DUP2 MSTORE ADD SWAP5 PUSH0 MSTORE PUSH1 0x20 PUSH0 KECCAK256 SWAP2 PUSH0 SWAP1 JUMPDEST DUP3 DUP3 LT PUSH2 0x4574 JUMPI PUSH2 0x647 DUP7 DUP7 PUSH2 0x934 DUP3 DUP12 SUB DUP4 PUSH2 0x4724 JUMP JUMPDEST DUP4 SLOAD DUP8 MSTORE SWAP6 DUP7 ADD SWAP6 PUSH1 0x1 SWAP4 DUP5 ADD SWAP4 SWAP1 SWAP2 ADD SWAP1 PUSH2 0x455C JUMP JUMPDEST DUP3 CALLVALUE PUSH2 0x37F JUMPI PUSH2 0x459A CALLDATASIZE PUSH2 0x481F JUMP JUMPDEST SWAP3 SWAP2 SWAP1 PUSH2 0x45A9 PUSH2 0x44E CALLER PUSH2 0x5397 JUMP JUMPDEST PUSH2 0x45B6 DUP3 MLOAD DUP6 MLOAD EQ PUSH2 0x4BC1 JUMP JUMPDEST CALLER PUSH0 MSTORE PUSH1 0x1 SWAP4 DUP5 SWAP4 PUSH1 0x1 PUSH1 0x20 MSTORE DUP1 PUSH0 KECCAK256 SLOAD SWAP3 PUSH1 0x1 DUP1 PUSH1 0xA0 SHL SUB AND PUSH0 MSTORE PUSH0 KECCAK256 SLOAD PUSH2 0x45E0 DUP2 ISZERO ISZERO PUSH2 0x4C05 JUMP JUMPDEST PUSH0 SWAP5 JUMPDEST PUSH2 0x45E9 JUMPI STOP JUMPDEST DUP4 MLOAD DUP6 LT ISZERO PUSH2 0x5B5 JUMPI DUP6 DUP6 PUSH2 0x4608 PUSH2 0x4602 DUP4 SWAP9 DUP7 PUSH2 0x4DC4 JUMP JUMPDEST MLOAD PUSH2 0x5773 JUMP JUMPDEST ISZERO PUSH2 0x465A JUMPI PUSH2 0x461B DUP6 PUSH2 0x4AD DUP4 DUP10 PUSH2 0x4DC4 JUMP JUMPDEST ISZERO PUSH2 0x465A JUMPI PUSH2 0x462E DUP4 PUSH2 0x4AD DUP4 DUP10 PUSH2 0x4DC4 JUMP JUMPDEST PUSH2 0x465A JUMPI PUSH2 0x4653 DUP6 PUSH2 0x4640 DUP4 DUP10 PUSH2 0x4DC4 JUMP JUMPDEST MLOAD DUP6 PUSH2 0x464C DUP6 DUP10 PUSH2 0x4DC4 JUMP JUMPDEST MLOAD SWAP2 PUSH2 0x5429 JUMP JUMPDEST ADD SWAP5 PUSH2 0x45E3 JUMP JUMPDEST PUSH2 0x4653 JUMP JUMPDEST DUP4 SWAP1 CALLVALUE PUSH2 0x37F JUMPI PUSH1 0x20 CALLDATASIZE PUSH1 0x3 NOT ADD SLT PUSH2 0x37F JUMPI PUSH1 0x20 SWAP2 PUSH1 0x1 PUSH1 0x1 PUSH1 0xA0 SHL SUB PUSH2 0x4685 PUSH2 0x4693 JUMP JUMPDEST AND PUSH0 MSTORE PUSH1 0x1 DUP4 MSTORE PUSH0 KECCAK256 SLOAD DUP2 MSTORE RETURN JUMPDEST PUSH1 0x4 CALLDATALOAD SWAP1 PUSH1 0x1 PUSH1 0x1 PUSH1 0xA0 SHL SUB DUP3 AND DUP3 SUB PUSH2 0x37F JUMPI JUMP JUMPDEST PUSH1 0x24 CALLDATALOAD SWAP1 PUSH1 0x1 PUSH1 0x1 PUSH1 0xA0 SHL SUB DUP3 AND DUP3 SUB PUSH2 0x37F JUMPI JUMP JUMPDEST PUSH1 0x40 DUP2 ADD SWAP1 DUP2 LT PUSH1 0x1 PUSH1 0x1 PUSH1 0x40 SHL SUB DUP3 GT OR PUSH2 0x46DA JUMPI PUSH1 0x40 MSTORE JUMP JUMPDEST PUSH4 0x4E487B71 PUSH1 0xE0 SHL PUSH0 MSTORE PUSH1 0x41 PUSH1 0x4 MSTORE PUSH1 0x24 PUSH0 REVERT JUMPDEST PUSH1 0x80 DUP2 ADD SWAP1 DUP2 LT PUSH1 0x1 PUSH1 0x1 PUSH1 0x40 SHL SUB DUP3 GT OR PUSH2 0x46DA JUMPI PUSH1 0x40 MSTORE JUMP JUMPDEST PUSH1 0x20 DUP2 ADD SWAP1 DUP2 LT PUSH1 0x1 PUSH1 0x1 PUSH1 0x40 SHL SUB DUP3 GT OR PUSH2 0x46DA JUMPI PUSH1 0x40 MSTORE JUMP JUMPDEST SWAP1 PUSH1 0x1F DUP1 NOT SWAP2 ADD AND DUP2 ADD SWAP1 DUP2 LT PUSH1 0x1 PUSH1 0x1 PUSH1 0x40 SHL SUB DUP3 GT OR PUSH2 0x46DA JUMPI PUSH1 0x40 MSTORE JUMP JUMPDEST PUSH1 0x1 PUSH1 0x1 PUSH1 0x40 SHL SUB DUP2 GT PUSH2 0x46DA JUMPI PUSH1 0x5 SHL PUSH1 0x20 ADD SWAP1 JUMP JUMPDEST SWAP1 DUP1 PUSH1 0x1F DUP4 ADD SLT ISZERO PUSH2 0x37F JUMPI PUSH1 0x20 SWAP1 DUP3 CALLDATALOAD PUSH2 0x4776 DUP2 PUSH2 0x4745 JUMP JUMPDEST SWAP4 PUSH2 0x4784 PUSH1 0x40 MLOAD SWAP6 DUP7 PUSH2 0x4724 JUMP JUMPDEST DUP2 DUP6 MSTORE PUSH1 0x20 DUP1 DUP7 ADD SWAP3 PUSH1 0x5 SHL DUP3 ADD ADD SWAP3 DUP4 GT PUSH2 0x37F JUMPI PUSH1 0x20 ADD SWAP1 JUMPDEST DUP3 DUP3 LT PUSH2 0x47AD JUMPI POP POP POP POP SWAP1 JUMP JUMPDEST DUP2 CALLDATALOAD DUP2 MSTORE SWAP1 DUP4 ADD SWAP1 DUP4 ADD PUSH2 0x479F JUMP JUMPDEST SWAP3 SWAP2 SWAP3 PUSH1 0x1 PUSH1 0x1 PUSH1 0x40 SHL SUB DUP3 GT PUSH2 0x46DA JUMPI PUSH1 0x40 MLOAD SWAP2 PUSH2 0x47E5 PUSH1 0x1F DUP3 ADD PUSH1 0x1F NOT AND PUSH1 0x20 ADD DUP5 PUSH2 0x4724 JUMP JUMPDEST DUP3 SWAP5 DUP2 DUP5 MSTORE DUP2 DUP4 ADD GT PUSH2 0x37F JUMPI DUP3 DUP2 PUSH1 0x20 SWAP4 DUP5 PUSH0 SWAP7 ADD CALLDATACOPY ADD ADD MSTORE JUMP JUMPDEST SWAP1 DUP1 PUSH1 0x1F DUP4 ADD SLT ISZERO PUSH2 0x37F JUMPI DUP2 PUSH1 0x20 PUSH2 0x481C SWAP4 CALLDATALOAD SWAP2 ADD PUSH2 0x47BC JUMP JUMPDEST SWAP1 JUMP JUMPDEST PUSH1 0x60 PUSH1 0x3 NOT DUP3 ADD SLT PUSH2 0x37F JUMPI PUSH1 0x1 PUSH1 0x1 PUSH1 0x40 SHL SUB SWAP2 PUSH1 0x4 CALLDATALOAD DUP4 DUP2 GT PUSH2 0x37F JUMPI DUP3 PUSH2 0x484B SWAP2 PUSH1 0x4 ADD PUSH2 0x475C JUMP JUMPDEST SWAP3 PUSH1 0x24 SWAP3 DUP4 CALLDATALOAD PUSH1 0x1 PUSH1 0x1 PUSH1 0xA0 SHL SUB DUP2 AND DUP2 SUB PUSH2 0x37F JUMPI SWAP4 PUSH1 0x44 CALLDATALOAD SWAP3 DUP1 DUP5 GT PUSH2 0x37F JUMPI DUP3 PUSH1 0x23 DUP6 ADD SLT ISZERO PUSH2 0x37F JUMPI DUP4 PUSH1 0x4 ADD CALLDATALOAD PUSH2 0x4886 DUP2 PUSH2 0x4745 JUMP JUMPDEST SWAP5 PUSH2 0x4894 PUSH1 0x40 MLOAD SWAP7 DUP8 PUSH2 0x4724 JUMP JUMPDEST DUP2 DUP7 MSTORE PUSH1 0x20 SWAP5 PUSH1 0x24 PUSH1 0x20 DUP9 ADD SWAP4 PUSH1 0x5 SHL DUP4 ADD ADD SWAP5 DUP2 DUP7 GT PUSH2 0x37F JUMPI PUSH1 0x24 DUP4 ADD SWAP4 JUMPDEST DUP7 DUP6 LT PUSH2 0x48C7 JUMPI POP POP POP POP POP POP POP POP SWAP1 JUMP JUMPDEST DUP5 CALLDATALOAD DUP7 DUP2 GT PUSH2 0x37F JUMPI DUP9 SWAP2 PUSH2 0x48E1 DUP6 DUP6 DUP6 SWAP5 DUP10 ADD ADD PUSH2 0x4801 JUMP JUMPDEST DUP2 MSTORE ADD SWAP5 ADD SWAP4 PUSH2 0x48B5 JUMP JUMPDEST PUSH1 0x20 SWAP1 PUSH1 0x20 PUSH1 0x40 DUP2 DUP4 ADD SWAP3 DUP3 DUP2 MSTORE DUP6 MLOAD DUP1 SWAP5 MSTORE ADD SWAP4 ADD SWAP2 PUSH0 JUMPDEST DUP3 DUP2 LT PUSH2 0x4913 JUMPI POP POP POP POP SWAP1 JUMP JUMPDEST DUP4 MLOAD DUP6 MSTORE SWAP4 DUP2 ADD SWAP4 SWAP3 DUP2 ADD SWAP3 PUSH1 0x1 ADD PUSH2 0x4905 JUMP JUMPDEST PUSH1 0x40 SWAP1 PUSH1 0x3 NOT ADD SLT PUSH2 0x37F JUMPI PUSH1 0x4 CALLDATALOAD SWAP1 PUSH1 0x24 CALLDATALOAD PUSH1 0x3 DUP2 LT ISZERO PUSH2 0x37F JUMPI SWAP1 JUMP JUMPDEST PUSH1 0x40 PUSH1 0x3 NOT DUP3 ADD SLT PUSH2 0x37F JUMPI PUSH1 0x4 CALLDATALOAD SWAP1 PUSH1 0x1 PUSH1 0x1 PUSH1 0x40 SHL SUB DUP3 GT PUSH2 0x37F JUMPI PUSH2 0x4970 SWAP2 PUSH1 0x4 ADD PUSH2 0x475C JUMP JUMPDEST SWAP1 PUSH1 0x24 CALLDATALOAD SWAP1 JUMP JUMPDEST PUSH1 0x60 PUSH1 0x3 NOT DUP3 ADD SLT PUSH2 0x37F JUMPI PUSH1 0x4 CALLDATALOAD SWAP2 PUSH1 0x24 CALLDATALOAD PUSH1 0x1 PUSH1 0x1 PUSH1 0xA0 SHL SUB DUP2 AND DUP2 SUB PUSH2 0x37F JUMPI SWAP2 PUSH1 0x44 CALLDATALOAD SWAP1 PUSH1 0x1 PUSH1 0x1 PUSH1 0x40 SHL SUB DUP3 GT PUSH2 0x37F JUMPI PUSH2 0x481C SWAP2 PUSH1 0x4 ADD PUSH2 0x4801 JUMP JUMPDEST PUSH1 0x40 SWAP1 PUSH1 0x3 NOT ADD SLT PUSH2 0x37F JUMPI PUSH1 0x4 CALLDATALOAD SWAP1 PUSH1 0x24 CALLDATALOAD SWAP1 JUMP JUMPDEST SWAP1 PUSH1 0x1 DUP3 DUP2 SHR SWAP3 AND DUP1 ISZERO PUSH2 0x49FD JUMPI JUMPDEST PUSH1 0x20 DUP4 LT EQ PUSH2 0x49E9 JUMPI JUMP JUMPDEST PUSH4 0x4E487B71 PUSH1 0xE0 SHL PUSH0 MSTORE PUSH1 0x22 PUSH1 0x4 MSTORE PUSH1 0x24 PUSH0 REVERT JUMPDEST SWAP2 PUSH1 0x7F AND SWAP2 PUSH2 0x49DE JUMP JUMPDEST SWAP1 PUSH1 0x40 MLOAD SWAP2 DUP3 PUSH0 DUP3 SLOAD PUSH2 0x4A19 DUP2 PUSH2 0x49CF JUMP JUMPDEST SWAP1 DUP2 DUP5 MSTORE PUSH1 0x20 SWAP5 PUSH1 0x1 SWAP2 PUSH1 0x1 DUP2 AND SWAP1 DUP2 PUSH0 EQ PUSH2 0x4A87 JUMPI POP PUSH1 0x1 EQ PUSH2 0x4A49 JUMPI JUMPDEST POP POP POP PUSH2 0x4A47 SWAP3 POP SUB DUP4 PUSH2 0x4724 JUMP JUMPDEST JUMP JUMPDEST PUSH0 SWAP1 DUP2 MSTORE DUP6 DUP2 KECCAK256 SWAP6 SWAP4 POP SWAP2 SWAP1 JUMPDEST DUP2 DUP4 LT PUSH2 0x4A6F JUMPI POP POP PUSH2 0x4A47 SWAP4 POP DUP3 ADD ADD PUSH0 DUP1 DUP1 PUSH2 0x4A38 JUMP JUMPDEST DUP6 SLOAD DUP9 DUP5 ADD DUP6 ADD MSTORE SWAP5 DUP6 ADD SWAP5 DUP8 SWAP5 POP SWAP2 DUP4 ADD SWAP2 PUSH2 0x4A56 JUMP JUMPDEST SWAP3 POP POP POP PUSH2 0x4A47 SWAP5 SWAP3 POP PUSH1 0xFF NOT AND DUP3 DUP5 ADD MSTORE ISZERO ISZERO PUSH1 0x5 SHL DUP3 ADD ADD PUSH0 DUP1 DUP1 PUSH2 0x4A38 JUMP JUMPDEST SWAP2 SWAP1 DUP3 MLOAD SWAP3 DUP4 DUP3 MSTORE PUSH0 JUMPDEST DUP5 DUP2 LT PUSH2 0x4AD3 JUMPI POP POP DUP3 PUSH0 PUSH1 0x20 DUP1 SWAP5 SWAP6 DUP5 ADD ADD MSTORE PUSH1 0x1F DUP1 NOT SWAP2 ADD AND ADD ADD SWAP1 JUMP JUMPDEST PUSH1 0x20 DUP2 DUP4 ADD DUP2 ADD MLOAD DUP5 DUP4 ADD DUP3 ADD MSTORE ADD PUSH2 0x4AB3 JUMP JUMPDEST SWAP1 PUSH2 0x4AFF PUSH1 0x20 SWAP2 SWAP5 SWAP4 SWAP5 PUSH1 0x40 DUP5 MSTORE PUSH1 0x40 DUP5 ADD SWAP1 PUSH2 0x4AA9 JUMP JUMPDEST SWAP4 ISZERO ISZERO SWAP2 ADD MSTORE JUMP JUMPDEST DUP1 SLOAD DUP3 LT ISZERO PUSH2 0x4B1C JUMPI PUSH0 MSTORE PUSH1 0x20 PUSH0 KECCAK256 ADD SWAP1 PUSH0 SWAP1 JUMP JUMPDEST PUSH4 0x4E487B71 PUSH1 0xE0 SHL PUSH0 MSTORE PUSH1 0x32 PUSH1 0x4 MSTORE PUSH1 0x24 PUSH0 REVERT JUMPDEST SWAP1 PUSH1 0x6 DUP3 LT ISZERO PUSH2 0x4B3D JUMPI MSTORE JUMP JUMPDEST PUSH4 0x4E487B71 PUSH1 0xE0 SHL PUSH0 MSTORE PUSH1 0x21 PUSH1 0x4 MSTORE PUSH1 0x24 PUSH0 REVERT JUMPDEST SWAP1 PUSH1 0x3 DUP3 LT ISZERO PUSH2 0x4B3D JUMPI MSTORE JUMP JUMPDEST SWAP1 SWAP3 SWAP2 PUSH1 0x40 DUP3 ADD SWAP4 PUSH1 0x4 DUP2 LT ISZERO PUSH2 0x4B3D JUMPI DUP3 MSTORE PUSH2 0x4A47 SWAP2 PUSH1 0x20 ADD SWAP1 PUSH2 0x4B51 JUMP JUMPDEST ISZERO PUSH2 0x4B85 JUMPI JUMP JUMPDEST PUSH1 0x40 MLOAD PUSH3 0x461BCD PUSH1 0xE5 SHL DUP2 MSTORE PUSH1 0x20 PUSH1 0x4 DUP3 ADD MSTORE PUSH1 0x14 PUSH1 0x24 DUP3 ADD MSTORE PUSH20 0x2737BA1030B71030B1BA34BB329036B2B6B132B9 PUSH1 0x61 SHL PUSH1 0x44 DUP3 ADD MSTORE PUSH1 0x64 SWAP1 REVERT JUMPDEST ISZERO PUSH2 0x4BC8 JUMPI JUMP JUMPDEST PUSH1 0x40 MLOAD PUSH3 0x461BCD PUSH1 0xE5 SHL DUP2 MSTORE PUSH1 0x20 PUSH1 0x4 DUP3 ADD MSTORE PUSH1 0x15 PUSH1 0x24 DUP3 ADD MSTORE PUSH21 0x82E4E4C2F240D8CADCCEE8D040DAD2E6DAC2E8C6D PUSH1 0x5B SHL PUSH1 0x44 DUP3 ADD MSTORE PUSH1 0x64 SWAP1 REVERT JUMPDEST ISZERO PUSH2 0x4C0C JUMPI JUMP JUMPDEST PUSH1 0x40 MLOAD PUSH3 0x461BCD PUSH1 0xE5 SHL DUP2 MSTORE PUSH1 0x20 PUSH1 0x4 DUP3 ADD MSTORE PUSH1 0x1C PUSH1 0x24 DUP3 ADD MSTORE PUSH32 0x5461726765742077616C6C6574206E6F74207265676973746572656400000000 PUSH1 0x44 DUP3 ADD MSTORE PUSH1 0x64 SWAP1 REVERT JUMPDEST PUSH1 0x1 PUSH1 0x1 PUSH1 0xA0 SHL SUB SWAP1 SWAP2 AND PUSH0 SWAP1 DUP2 MSTORE PUSH1 0x1 PUSH1 0x20 MSTORE PUSH1 0x40 SWAP1 KECCAK256 SLOAD SWAP1 DUP2 ISZERO PUSH2 0x4C9C JUMPI PUSH2 0x4C83 PUSH2 0x4C7C PUSH2 0x50C7 JUMP JUMPDEST DUP4 DUP4 PUSH2 0x57EB JUMP JUMPDEST SWAP2 DUP3 ISZERO PUSH2 0x4C8F JUMPI POP POP SWAP1 JUMP JUMPDEST PUSH2 0x481C SWAP3 POP PUSH2 0x2C57 PUSH2 0x50E8 JUMP JUMPDEST POP POP PUSH0 SWAP1 JUMP JUMPDEST ISZERO PUSH2 0x4CA9 JUMPI JUMP JUMPDEST PUSH1 0x40 MLOAD PUSH3 0x461BCD PUSH1 0xE5 SHL DUP2 MSTORE PUSH1 0x20 PUSH1 0x4 DUP3 ADD MSTORE PUSH1 0x13 PUSH1 0x24 DUP3 ADD MSTORE PUSH19 0x139BC81C9958DBDC991CC81C1C9BDD9A591959 PUSH1 0x6A SHL PUSH1 0x44 DUP3 ADD MSTORE PUSH1 0x64 SWAP1 REVERT JUMPDEST DUP1 SLOAD PUSH1 0x1 PUSH1 0x40 SHL DUP2 LT ISZERO PUSH2 0x46DA JUMPI PUSH2 0x4D01 SWAP2 PUSH1 0x1 DUP3 ADD DUP2 SSTORE PUSH2 0x4B07 JUMP JUMPDEST PUSH1 0x1 DUP1 PUSH1 0xA0 SWAP5 SWAP4 SWAP5 SHL SUB DUP1 DUP5 SLOAD SWAP3 PUSH1 0x3 SHL SWAP4 AND DUP4 SHL SWAP3 SHL NOT AND OR SWAP1 SSTORE JUMP JUMPDEST PUSH1 0x4 SLOAD PUSH1 0x1 PUSH1 0x40 SHL DUP2 LT ISZERO PUSH2 0x46DA JUMPI PUSH1 0x1 DUP2 ADD DUP1 PUSH1 0x4 SSTORE DUP2 LT ISZERO PUSH2 0x4B1C JUMPI PUSH1 0x4 PUSH0 MSTORE PUSH32 0x8A35ACFBC15FF81A39AE7D344FD709F28E8600B4AA8C65C6B64BFE7FE36BD19B ADD SSTORE JUMP JUMPDEST DUP1 SLOAD SWAP1 PUSH1 0x1 PUSH1 0x40 SHL DUP3 LT ISZERO PUSH2 0x46DA JUMPI DUP2 PUSH2 0x4D88 SWAP2 PUSH1 0x1 PUSH2 0x4D9E SWAP5 ADD DUP2 SSTORE PUSH2 0x4B07 JUMP JUMPDEST DUP2 SWAP4 SWAP2 SLOAD SWAP1 PUSH1 0x3 SHL SWAP2 DUP3 SHL SWAP2 PUSH0 NOT SWAP1 SHL NOT AND OR SWAP1 JUMP JUMPDEST SWAP1 SSTORE JUMP JUMPDEST PUSH0 NOT DUP2 EQ PUSH2 0x4DB0 JUMPI PUSH1 0x1 ADD SWAP1 JUMP JUMPDEST PUSH4 0x4E487B71 PUSH1 0xE0 SHL PUSH0 MSTORE PUSH1 0x11 PUSH1 0x4 MSTORE PUSH1 0x24 PUSH0 REVERT JUMPDEST DUP1 MLOAD DUP3 LT ISZERO PUSH2 0x4B1C JUMPI PUSH1 0x20 SWAP2 PUSH1 0x5 SHL ADD ADD SWAP1 JUMP JUMPDEST PUSH1 0x40 MLOAD SWAP1 PUSH2 0x4DE5 DUP3 PUSH2 0x46BF JUMP JUMPDEST PUSH1 0x6 DUP3 MSTORE PUSH6 0x3B34B2BBB2B9 PUSH1 0xD1 SHL PUSH1 0x20 DUP4 ADD MSTORE JUMP JUMPDEST ISZERO PUSH2 0x4E01 JUMPI JUMP JUMPDEST PUSH1 0x40 MLOAD PUSH3 0x461BCD PUSH1 0xE5 SHL DUP2 MSTORE PUSH1 0x20 PUSH1 0x4 DUP3 ADD MSTORE PUSH1 0xA PUSH1 0x24 DUP3 ADD MSTORE PUSH10 0x27B7363C9030B236B4B7 PUSH1 0xB1 SHL PUSH1 0x44 DUP3 ADD MSTORE PUSH1 0x64 SWAP1 REVERT JUMPDEST ISZERO PUSH2 0x4E3A JUMPI JUMP JUMPDEST PUSH1 0x40 MLOAD PUSH3 0x461BCD PUSH1 0xE5 SHL DUP2 MSTORE PUSH1 0x20 PUSH1 0x4 DUP3 ADD MSTORE PUSH1 0x15 PUSH1 0x24 DUP3 ADD MSTORE PUSH21 0x15D85B1B195D081B9BDD081C9959DA5CDD195C9959 PUSH1 0x5A SHL PUSH1 0x44 DUP3 ADD MSTORE PUSH1 0x64 SWAP1 REVERT JUMPDEST ISZERO PUSH2 0x4E7E JUMPI JUMP JUMPDEST PUSH1 0x40 MLOAD PUSH3 0x461BCD PUSH1 0xE5 SHL DUP2 MSTORE PUSH1 0x20 PUSH1 0x4 DUP3 ADD MSTORE PUSH1 0xF PUSH1 0x24 DUP3 ADD MSTORE PUSH15 0x496E76616C69642074727573746565 PUSH1 0x88 SHL PUSH1 0x44 DUP3 ADD MSTORE PUSH1 0x64 SWAP1 REVERT JUMPDEST ISZERO PUSH2 0x4EBC JUMPI JUMP JUMPDEST PUSH1 0x40 MLOAD PUSH3 0x461BCD PUSH1 0xE5 SHL DUP2 MSTORE PUSH1 0x20 PUSH1 0x4 DUP3 ADD MSTORE PUSH1 0x17 PUSH1 0x24 DUP3 ADD MSTORE PUSH32 0x43616E6E6F74206170706F696E7420796F757273656C66000000000000000000 PUSH1 0x44 DUP3 ADD MSTORE PUSH1 0x64 SWAP1 REVERT JUMPDEST ISZERO PUSH2 0x4F08 JUMPI JUMP JUMPDEST PUSH1 0x40 MLOAD PUSH3 0x461BCD PUSH1 0xE5 SHL DUP2 MSTORE PUSH1 0x20 PUSH1 0x4 DUP3 ADD MSTORE PUSH1 0x16 PUSH1 0x24 DUP3 ADD MSTORE PUSH22 0x151C9D5CDD1959481B9BDD081C9959DA5CDD195C9959 PUSH1 0x52 SHL PUSH1 0x44 DUP3 ADD MSTORE PUSH1 0x64 SWAP1 REVERT JUMPDEST PUSH1 0x4 DUP3 LT ISZERO PUSH2 0x4B3D JUMPI MSTORE JUMP JUMPDEST PUSH1 0x3 DUP3 LT ISZERO PUSH2 0x4B3D JUMPI MSTORE JUMP JUMPDEST SWAP1 PUSH1 0x4 DUP2 LT ISZERO PUSH2 0x4B3D JUMPI PUSH1 0xFF DUP1 NOT DUP4 SLOAD AND SWAP2 AND OR SWAP1 SSTORE JUMP JUMPDEST SWAP1 PUSH1 0x3 DUP2 LT ISZERO PUSH2 0x4B3D JUMPI PUSH2 0xFF00 DUP3 SLOAD SWAP2 PUSH1 0x8 SHL AND SWAP1 PUSH2 0xFF00 NOT AND OR SWAP1 SSTORE JUMP JUMPDEST ISZERO PUSH2 0x4F9C JUMPI JUMP JUMPDEST PUSH1 0x40 MLOAD PUSH3 0x461BCD PUSH1 0xE5 SHL DUP2 MSTORE PUSH1 0x20 PUSH1 0x4 DUP3 ADD MSTORE PUSH1 0x1E PUSH1 0x24 DUP3 ADD MSTORE PUSH32 0x5265636F726420494420686173682063616E6E6F7420626520656D7074790000 PUSH1 0x44 DUP3 ADD MSTORE PUSH1 0x64 SWAP1 REVERT JUMPDEST ISZERO PUSH2 0x4FE8 JUMPI JUMP JUMPDEST PUSH1 0x40 MLOAD PUSH3 0x461BCD PUSH1 0xE5 SHL DUP2 MSTORE PUSH1 0x20 PUSH1 0x4 DUP3 ADD MSTORE PUSH1 0x1D PUSH1 0x24 DUP3 ADD MSTORE PUSH32 0x57616C6C657420616464726573732063616E6E6F74206265207A65726F000000 PUSH1 0x44 DUP3 ADD MSTORE PUSH1 0x64 SWAP1 REVERT JUMPDEST ISZERO PUSH2 0x5034 JUMPI JUMP JUMPDEST PUSH1 0x40 MLOAD PUSH3 0x461BCD PUSH1 0xE5 SHL DUP2 MSTORE PUSH1 0x20 PUSH1 0x4 DUP3 ADD MSTORE PUSH1 0x13 PUSH1 0x24 DUP3 ADD MSTORE PUSH19 0x496E76616C696420726F6C6520737472696E67 PUSH1 0x68 SHL PUSH1 0x44 DUP3 ADD MSTORE PUSH1 0x64 SWAP1 REVERT JUMPDEST ISZERO PUSH2 0x5076 JUMPI JUMP JUMPDEST PUSH1 0x40 MLOAD PUSH3 0x461BCD PUSH1 0xE5 SHL DUP2 MSTORE PUSH1 0x20 PUSH1 0x4 DUP3 ADD MSTORE PUSH1 0x23 PUSH1 0x24 DUP3 ADD MSTORE PUSH32 0x54617267657420646F6573206E6F74206861766520616E206163746976652072 PUSH1 0x44 DUP3 ADD MSTORE PUSH3 0x6F6C65 PUSH1 0xE8 SHL PUSH1 0x64 DUP3 ADD MSTORE PUSH1 0x84 SWAP1 REVERT JUMPDEST PUSH1 0x40 MLOAD SWAP1 PUSH2 0x50D4 DUP3 PUSH2 0x46BF JUMP JUMPDEST PUSH1 0x5 DUP3 MSTORE PUSH5 0x37BBB732B9 PUSH1 0xD9 SHL PUSH1 0x20 DUP4 ADD MSTORE JUMP JUMPDEST PUSH1 0x40 MLOAD SWAP1 PUSH2 0x50F5 DUP3 PUSH2 0x46BF JUMP JUMPDEST PUSH1 0xD DUP3 MSTORE PUSH13 0x30B236B4B734B9BA3930BA37B9 PUSH1 0x99 SHL PUSH1 0x20 DUP4 ADD MSTORE JUMP JUMPDEST PUSH1 0x40 MLOAD SWAP1 PUSH2 0x511E DUP3 PUSH2 0x46BF JUMP JUMPDEST PUSH1 0x6 DUP3 MSTORE PUSH6 0x39B430B932B9 PUSH1 0xD1 SHL PUSH1 0x20 DUP4 ADD MSTORE JUMP JUMPDEST SWAP2 SWAP1 PUSH1 0x1 DUP1 PUSH1 0xA0 SHL SUB AND PUSH0 MSTORE PUSH1 0x1 PUSH1 0x20 MSTORE PUSH1 0x40 PUSH0 KECCAK256 SLOAD DUP1 ISZERO PUSH2 0x5158 JUMPI PUSH2 0x481C SWAP3 PUSH2 0x57EB JUMP JUMPDEST POP POP POP PUSH0 SWAP1 JUMP JUMPDEST PUSH1 0x1 PUSH1 0x1 PUSH1 0xA0 SHL SUB SWAP1 SWAP2 AND PUSH0 SWAP1 DUP2 MSTORE PUSH1 0x1 PUSH1 0x20 MSTORE PUSH1 0x40 SWAP1 KECCAK256 SLOAD SWAP1 DUP2 ISZERO PUSH2 0x51C1 JUMPI PUSH1 0x20 SWAP3 SWAP2 PUSH2 0x518C SWAP2 PUSH2 0x563E JUMP JUMPDEST PUSH0 MSTORE PUSH1 0x6 DUP3 MSTORE PUSH1 0x40 PUSH0 KECCAK256 PUSH1 0x40 MLOAD PUSH2 0x51A2 DUP2 PUSH2 0x46BF JUMP JUMPDEST PUSH1 0xFF PUSH1 0x1 PUSH2 0x51AF DUP5 PUSH2 0x4A07 JUMP JUMPDEST SWAP4 DUP5 DUP5 MSTORE ADD SLOAD AND ISZERO ISZERO SWAP4 DUP5 SWAP2 ADD MSTORE SWAP2 SWAP1 JUMP JUMPDEST POP POP PUSH1 0x40 MLOAD PUSH2 0x51CF DUP2 PUSH2 0x4709 JUMP JUMPDEST PUSH0 DUP2 MSTORE SWAP1 PUSH0 SWAP1 JUMP JUMPDEST ISZERO PUSH2 0x51DE JUMPI JUMP JUMPDEST PUSH1 0x40 MLOAD PUSH3 0x461BCD PUSH1 0xE5 SHL DUP2 MSTORE PUSH1 0x20 PUSH1 0x4 DUP3 ADD MSTORE PUSH1 0x16 PUSH1 0x24 DUP3 ADD MSTORE PUSH22 0x496E76616C69642077616C6C65742061646472657373 PUSH1 0x50 SHL PUSH1 0x44 DUP3 ADD MSTORE PUSH1 0x64 SWAP1 REVERT JUMPDEST ISZERO PUSH2 0x5223 JUMPI JUMP JUMPDEST PUSH1 0x40 MLOAD PUSH3 0x461BCD PUSH1 0xE5 SHL DUP2 MSTORE PUSH1 0x20 PUSH1 0x4 DUP3 ADD MSTORE PUSH1 0x14 PUSH1 0x24 DUP3 ADD MSTORE PUSH20 0x92DCECC2D8D2C840EAE6CAE440928840D0C2E6D PUSH1 0x63 SHL PUSH1 0x44 DUP3 ADD MSTORE PUSH1 0x64 SWAP1 REVERT JUMPDEST ISZERO PUSH2 0x5266 JUMPI JUMP JUMPDEST PUSH1 0x40 MLOAD PUSH3 0x461BCD PUSH1 0xE5 SHL DUP2 MSTORE PUSH1 0x20 PUSH1 0x4 DUP3 ADD MSTORE PUSH1 0x19 PUSH1 0x24 DUP3 ADD MSTORE PUSH32 0x57616C6C657420616C7265616479207265676973746572656400000000000000 PUSH1 0x44 DUP3 ADD MSTORE PUSH1 0x64 SWAP1 REVERT JUMPDEST ISZERO PUSH2 0x52B2 JUMPI JUMP JUMPDEST PUSH1 0x40 MLOAD PUSH3 0x461BCD PUSH1 0xE5 SHL DUP2 MSTORE PUSH1 0x20 PUSH1 0x4 DUP3 ADD MSTORE PUSH1 0x1E PUSH1 0x24 DUP3 ADD MSTORE PUSH32 0x4E6F2061637469766520747275737465652072656C6174696F6E736869700000 PUSH1 0x44 DUP3 ADD MSTORE PUSH1 0x64 SWAP1 REVERT JUMPDEST PUSH2 0x5318 PUSH1 0x40 SWAP3 SWAP6 SWAP5 SWAP4 PUSH2 0x530E DUP4 PUSH1 0x60 DUP2 ADD SWAP9 PUSH2 0x4B51 JUMP JUMPDEST PUSH1 0x20 DUP4 ADD SWAP1 PUSH2 0x4B51 JUMP JUMPDEST ADD MSTORE JUMP JUMPDEST ISZERO PUSH2 0x5323 JUMPI JUMP JUMPDEST PUSH1 0x40 MLOAD PUSH3 0x461BCD PUSH1 0xE5 SHL DUP2 MSTORE PUSH1 0x20 PUSH1 0x4 DUP3 ADD MSTORE PUSH1 0xF PUSH1 0x24 DUP3 ADD MSTORE PUSH15 0x496E76616C69642061646472657373 PUSH1 0x88 SHL PUSH1 0x44 DUP3 ADD MSTORE PUSH1 0x64 SWAP1 REVERT JUMPDEST PUSH1 0x1 PUSH1 0x1 PUSH1 0xA0 SHL SUB SWAP1 SWAP2 AND PUSH0 SWAP1 DUP2 MSTORE PUSH1 0x1 PUSH1 0x20 MSTORE PUSH1 0x40 SWAP1 KECCAK256 SLOAD DUP1 ISZERO PUSH2 0x4C9C JUMPI PUSH2 0x5382 SWAP2 PUSH2 0x563E JUMP JUMPDEST PUSH0 MSTORE PUSH1 0x6 PUSH1 0x20 MSTORE PUSH1 0xFF PUSH1 0x1 PUSH1 0x40 PUSH0 KECCAK256 ADD SLOAD AND SWAP1 JUMP JUMPDEST PUSH1 0x1 PUSH1 0x1 PUSH1 0xA0 SHL SUB AND PUSH0 SWAP1 DUP2 MSTORE PUSH1 0x1 PUSH1 0x20 MSTORE PUSH1 0x40 SWAP1 KECCAK256 DUP1 SLOAD SWAP1 DUP2 ISZERO SWAP1 DUP2 ISZERO PUSH2 0x540F JUMPI JUMPDEST POP PUSH2 0x540A JUMPI PUSH0 MSTORE PUSH1 0x2 PUSH1 0x20 MSTORE PUSH1 0xFF PUSH1 0x40 PUSH0 KECCAK256 SLOAD AND PUSH1 0x6 DUP2 LT ISZERO SWAP1 DUP2 PUSH2 0x4B3D JUMPI PUSH1 0x2 DUP2 EQ SWAP2 DUP3 ISZERO PUSH2 0x53FD JUMPI JUMPDEST DUP3 ISZERO PUSH2 0x53F0 JUMPI POP POP SWAP1 JUMP JUMPDEST SWAP1 SWAP2 POP PUSH2 0x4B3D JUMPI PUSH1 0x4 EQ SWAP1 JUMP JUMPDEST POP PUSH1 0x3 DUP2 EQ SWAP2 POP PUSH0 PUSH2 0x53E5 JUMP JUMPDEST POP PUSH0 SWAP1 JUMP JUMPDEST PUSH1 0xFF SWAP2 POP PUSH1 0x1 ADD SLOAD AND ISZERO PUSH0 PUSH2 0x53BA JUMP JUMPDEST SWAP1 PUSH2 0x5382 SWAP2 PUSH2 0x563E JUMP JUMPDEST SWAP3 SWAP2 SWAP3 PUSH2 0x5436 DUP3 DUP3 PUSH2 0x563E JUMP JUMPDEST SWAP4 DUP5 PUSH0 MSTORE PUSH1 0x20 PUSH1 0x6 DUP2 MSTORE PUSH1 0x40 SWAP1 DUP2 PUSH0 KECCAK256 SWAP7 PUSH2 0x5450 DUP9 PUSH2 0x4A07 JUMP JUMPDEST SWAP8 DUP9 MLOAD ISZERO SWAP2 PUSH1 0xFF PUSH1 0x1 DUP1 SWAP4 ADD SLOAD AND SWAP2 DUP6 MLOAD SWAP1 PUSH2 0x546B DUP3 PUSH2 0x46BF JUMP JUMPDEST DUP8 DUP3 MSTORE DUP6 DUP3 ADD DUP2 DUP2 MSTORE DUP4 PUSH0 MSTORE PUSH1 0x6 DUP8 MSTORE DUP8 PUSH0 KECCAK256 SWAP3 MLOAD DUP1 MLOAD SWAP1 PUSH1 0x1 PUSH1 0x1 PUSH1 0x40 SHL SUB DUP3 GT PUSH2 0x46DA JUMPI PUSH2 0x549B DUP6 SLOAD PUSH2 0x49CF JUMP JUMPDEST PUSH1 0x1F DUP2 GT PUSH2 0x55F8 JUMPI JUMPDEST POP DUP9 SWAP1 PUSH1 0x1F DUP4 GT PUSH1 0x1 EQ PUSH2 0x55AA JUMPI PUSH2 0x54E9 SWAP6 SWAP5 SWAP4 SWAP3 SWAP2 PUSH0 SWAP2 DUP4 PUSH2 0x25EC JUMPI POP POP PUSH0 NOT PUSH1 0x3 DUP4 SWAP1 SHL SHR NOT AND SWAP1 DUP4 SHL OR DUP4 SSTORE MLOAD ISZERO ISZERO SWAP2 ADD SWAP1 PUSH1 0xFF DUP1 NOT DUP4 SLOAD AND SWAP2 ISZERO ISZERO AND OR SWAP1 SSTORE JUMP JUMPDEST PUSH0 MSTORE PUSH1 0xE DUP4 MSTORE DUP8 DUP5 PUSH0 KECCAK256 SSTORE ISZERO PUSH0 EQ PUSH2 0x5575 JUMPI DUP6 SWAP7 SWAP8 POP PUSH2 0x552C DUP5 DUP7 SWAP8 PUSH32 0xF9D17EB1340AB78960B594FF8BED1349985B800EE21199C6D5EA4A67454593AD SWAP8 PUSH2 0x5B10 JUMP JUMPDEST PUSH2 0x554F JUMPI JUMPDEST PUSH2 0x5544 DUP3 MLOAD SWAP4 DUP4 DUP6 SWAP5 DUP6 MSTORE DUP5 ADD SWAP1 PUSH2 0x4AA9 JUMP JUMPDEST SWAP1 TIMESTAMP SWAP1 DUP4 ADD MSTORE SUB SWAP1 LOG4 JUMP JUMPDEST DUP6 PUSH0 MSTORE PUSH1 0xB DUP2 MSTORE PUSH2 0x5562 DUP6 DUP4 PUSH0 KECCAK256 PUSH2 0x4D66 JUMP JUMPDEST PUSH2 0x556D PUSH1 0xC SLOAD PUSH2 0x4DA2 JUMP JUMPDEST PUSH1 0xC SSTORE PUSH2 0x5531 JUMP JUMPDEST POP SWAP2 SWAP5 POP POP DUP5 MLOAD DUP2 DUP7 ADD KECCAK256 SWAP1 DUP5 MLOAD SWAP1 DUP6 ADD KECCAK256 SUB PUSH2 0x5593 JUMPI JUMPDEST POP POP POP POP JUMP JUMPDEST PUSH2 0x25E7 PUSH2 0x55A1 SWAP5 DUP4 DUP4 PUSH2 0x5672 JUMP JUMPDEST PUSH0 DUP1 DUP1 DUP1 PUSH2 0x558D JUMP JUMPDEST SWAP1 PUSH1 0x1F NOT DUP4 AND SWAP2 DUP7 PUSH0 MSTORE DUP11 PUSH0 KECCAK256 SWAP3 PUSH0 JUMPDEST DUP13 DUP3 DUP3 LT PUSH2 0x55E4 JUMPI POP POP SWAP2 DUP7 SWAP6 SWAP5 SWAP3 SWAP2 DUP4 PUSH2 0x54E9 SWAP10 SWAP9 SWAP6 SWAP4 LT PUSH2 0x2632 JUMPI POP POP POP DUP2 SHL ADD DUP4 SSTORE PUSH2 0x2527 JUMP JUMPDEST DUP4 DUP6 ADD MLOAD DUP7 SSTORE SWAP5 DUP9 ADD SWAP5 SWAP4 DUP5 ADD SWAP4 ADD PUSH2 0x55BA JUMP JUMPDEST DUP6 PUSH0 MSTORE DUP10 PUSH0 KECCAK256 PUSH1 0x1F DUP5 ADD PUSH1 0x5 SHR DUP2 ADD SWAP2 DUP12 DUP6 LT PUSH2 0x5634 JUMPI JUMPDEST PUSH1 0x1F ADD PUSH1 0x5 SHR ADD SWAP1 DUP6 SWAP1 JUMPDEST DUP3 DUP2 LT PUSH2 0x5629 JUMPI POP POP PUSH2 0x54A4 JUMP JUMPDEST PUSH0 DUP2 SSTORE ADD DUP6 SWAP1 PUSH2 0x561B JUMP JUMPDEST SWAP1 SWAP2 POP DUP2 SWAP1 PUSH2 0x5610 JUMP JUMPDEST SWAP1 PUSH1 0x40 MLOAD SWAP1 PUSH1 0x20 DUP3 ADD SWAP3 DUP4 MSTORE PUSH1 0x40 DUP3 ADD MSTORE PUSH1 0x40 DUP2 MSTORE PUSH1 0x60 DUP2 ADD DUP2 DUP2 LT PUSH1 0x1 PUSH1 0x1 PUSH1 0x40 SHL SUB DUP3 GT OR PUSH2 0x46DA JUMPI PUSH1 0x40 MSTORE MLOAD SWAP1 KECCAK256 SWAP1 JUMP JUMPDEST DUP3 MLOAD PUSH1 0x20 DUP1 SWAP5 ADD KECCAK256 PUSH2 0x5682 PUSH2 0x50C7 JUMP JUMPDEST DUP1 MLOAD SWAP1 DUP6 ADD KECCAK256 DUP2 SUB PUSH2 0x56A2 JUMPI POP PUSH2 0x4A47 SWAP3 PUSH1 0x7 SWAP2 PUSH0 MSTORE MSTORE PUSH1 0x40 PUSH0 KECCAK256 PUSH2 0x5BBB JUMP JUMPDEST PUSH2 0x56AA PUSH2 0x50E8 JUMP JUMPDEST DUP1 MLOAD SWAP1 DUP6 ADD KECCAK256 DUP2 SUB PUSH2 0x56CA JUMPI POP PUSH2 0x4A47 SWAP3 PUSH1 0x8 SWAP2 PUSH0 MSTORE MSTORE PUSH1 0x40 PUSH0 KECCAK256 PUSH2 0x5BBB JUMP JUMPDEST PUSH2 0x56D2 PUSH2 0x5111 JUMP JUMPDEST DUP1 MLOAD SWAP1 DUP6 ADD KECCAK256 DUP2 SUB PUSH2 0x56F2 JUMPI POP PUSH2 0x4A47 SWAP3 PUSH1 0x9 SWAP2 PUSH0 MSTORE MSTORE PUSH1 0x40 PUSH0 KECCAK256 PUSH2 0x5BBB JUMP JUMPDEST PUSH2 0x56FA PUSH2 0x4DD8 JUMP JUMPDEST DUP5 DUP2 MLOAD SWAP2 ADD KECCAK256 EQ PUSH2 0x570A JUMPI POP POP POP JUMP JUMPDEST PUSH2 0x4A47 SWAP3 PUSH1 0xA SWAP2 PUSH0 MSTORE MSTORE PUSH1 0x40 PUSH0 KECCAK256 PUSH2 0x5BBB JUMP JUMPDEST PUSH1 0x1 PUSH1 0x1 PUSH1 0xA0 SHL SUB AND PUSH0 SWAP1 DUP2 MSTORE PUSH1 0x1 PUSH1 0x20 MSTORE PUSH1 0x40 SWAP1 KECCAK256 DUP1 SLOAD SWAP1 DUP2 ISZERO SWAP1 DUP2 ISZERO PUSH2 0x5763 JUMPI JUMPDEST POP PUSH2 0x540A JUMPI PUSH0 MSTORE PUSH1 0x2 PUSH1 0x20 MSTORE PUSH1 0xFF PUSH1 0x40 PUSH0 KECCAK256 SLOAD AND PUSH1 0x6 DUP2 LT ISZERO PUSH2 0x4B3D JUMPI PUSH1 0x4 EQ SWAP1 JUMP JUMPDEST PUSH1 0xFF SWAP2 POP PUSH1 0x1 ADD SLOAD AND ISZERO PUSH0 PUSH2 0x5740 JUMP JUMPDEST PUSH1 0x20 DUP2 MLOAD SWAP2 ADD KECCAK256 PUSH2 0x5782 PUSH2 0x50C7 JUMP JUMPDEST PUSH1 0x20 DUP2 MLOAD SWAP2 ADD KECCAK256 DUP2 EQ SWAP1 DUP2 ISZERO PUSH2 0x57D2 JUMPI JUMPDEST DUP2 ISZERO PUSH2 0x57B9 JUMPI JUMPDEST DUP2 ISZERO PUSH2 0x57A4 JUMPI POP SWAP1 JUMP JUMPDEST SWAP1 POP PUSH2 0x57AE PUSH2 0x4DD8 JUMP JUMPDEST PUSH1 0x20 DUP2 MLOAD SWAP2 ADD KECCAK256 EQ SWAP1 JUMP JUMPDEST SWAP1 POP PUSH2 0x57C3 PUSH2 0x5111 JUMP JUMPDEST PUSH1 0x20 DUP2 MLOAD SWAP2 ADD KECCAK256 DUP2 EQ SWAP1 PUSH2 0x579A JUMP JUMPDEST SWAP1 POP PUSH2 0x57DC PUSH2 0x50E8 JUMP JUMPDEST PUSH1 0x20 DUP2 MLOAD SWAP2 ADD KECCAK256 DUP2 EQ SWAP1 PUSH2 0x5793 JUMP JUMPDEST PUSH1 0x20 SWAP3 SWAP2 PUSH2 0x57F8 SWAP2 PUSH2 0x563E JUMP JUMPDEST PUSH0 MSTORE PUSH1 0x6 DUP3 MSTORE PUSH1 0x40 PUSH0 KECCAK256 PUSH1 0x40 MLOAD PUSH2 0x580E DUP2 PUSH2 0x46BF JUMP JUMPDEST PUSH1 0xFF PUSH1 0x1 PUSH2 0x581B DUP5 PUSH2 0x4A07 JUMP JUMPDEST SWAP4 DUP5 DUP5 MSTORE ADD SLOAD AND ISZERO ISZERO SWAP4 DUP5 SWAP2 ADD MSTORE DUP3 PUSH2 0x5833 JUMPI POP POP SWAP1 JUMP JUMPDEST SWAP1 SWAP2 POP PUSH1 0x20 DUP2 MLOAD SWAP2 ADD KECCAK256 SWAP1 PUSH1 0x20 DUP2 MLOAD SWAP2 ADD KECCAK256 EQ SWAP1 JUMP JUMPDEST PUSH1 0xD SLOAD PUSH1 0x1 PUSH1 0x1 PUSH1 0xA0 SHL SUB AND SWAP2 DUP3 ISZERO PUSH2 0x5158 JUMPI PUSH1 0x44 PUSH1 0x20 SWAP3 PUSH1 0x40 MLOAD SWAP5 DUP6 SWAP4 DUP5 SWAP3 PUSH4 0x193D8E75 PUSH1 0xE2 SHL DUP5 MSTORE PUSH1 0x4 DUP5 ADD MSTORE PUSH1 0x24 DUP4 ADD MSTORE GAS STATICCALL SWAP1 DUP2 ISZERO PUSH2 0x58C8 JUMPI PUSH0 SWAP2 PUSH2 0x5890 JUMPI POP SWAP1 JUMP JUMPDEST SWAP1 POP PUSH1 0x20 DUP2 RETURNDATASIZE PUSH1 0x20 GT PUSH2 0x58C0 JUMPI JUMPDEST DUP2 PUSH2 0x58AB PUSH1 0x20 SWAP4 DUP4 PUSH2 0x4724 JUMP JUMPDEST DUP2 ADD SUB SLT PUSH2 0x37F JUMPI MLOAD DUP1 ISZERO ISZERO DUP2 SUB PUSH2 0x37F JUMPI SWAP1 JUMP JUMPDEST RETURNDATASIZE SWAP2 POP PUSH2 0x589E JUMP JUMPDEST PUSH1 0x40 MLOAD RETURNDATASIZE PUSH0 DUP3 RETURNDATACOPY RETURNDATASIZE SWAP1 REVERT JUMPDEST SWAP2 SWAP3 PUSH32 0x3AF67CF2057BA8EF414286FB626CD3EFB02F74996E18EFD455B39D8EC7EC460F SWAP2 SWAP5 PUSH2 0x592D PUSH2 0x591F SWAP3 PUSH2 0x590B DUP9 DUP3 DUP10 DUP10 PUSH2 0x5429 JUMP JUMPDEST PUSH1 0x40 MLOAD SWAP4 DUP5 SWAP4 PUSH1 0x60 DUP6 MSTORE PUSH1 0x60 DUP6 ADD SWAP1 PUSH2 0x4AA9 JUMP JUMPDEST SWAP1 DUP4 DUP3 SUB PUSH1 0x20 DUP6 ADD MSTORE PUSH2 0x4AA9 JUMP JUMPDEST TIMESTAMP PUSH1 0x40 DUP4 ADD MSTORE SUB SWAP1 LOG4 JUMP JUMPDEST SWAP3 SWAP2 SWAP1 DUP4 PUSH0 MSTORE PUSH1 0x20 SWAP1 PUSH1 0x10 DUP3 MSTORE PUSH1 0x40 SWAP1 PUSH1 0x40 PUSH0 KECCAK256 DUP2 PUSH0 MSTORE DUP4 MSTORE PUSH1 0x40 PUSH0 KECCAK256 SWAP6 PUSH0 JUMPDEST DUP8 SLOAD DUP2 LT ISZERO PUSH2 0x5A03 JUMPI DUP1 PUSH2 0x596E PUSH1 0x1 SWAP3 DUP11 PUSH2 0x4B07 JUMP JUMPDEST SWAP1 SLOAD SWAP1 PUSH1 0x3 SHL SHR PUSH2 0x597F DUP6 DUP3 PUSH2 0x563E JUMP JUMPDEST PUSH0 MSTORE PUSH1 0x6 DUP1 DUP9 MSTORE PUSH1 0xFF DUP5 DUP9 PUSH0 KECCAK256 ADD SLOAD AND ISZERO PUSH2 0x59FC JUMPI PUSH2 0x599F DUP10 DUP7 DUP5 PUSH2 0x5A0D JUMP JUMPDEST SWAP1 PUSH2 0x59A9 DUP3 PUSH2 0x5773 JUMP JUMPDEST ISZERO PUSH2 0x59F4 JUMPI PUSH2 0x59B8 DUP8 DUP5 PUSH2 0x563E JUMP JUMPDEST PUSH0 MSTORE DUP9 MSTORE PUSH2 0x59C7 DUP8 PUSH0 KECCAK256 PUSH2 0x4A07 JUMP JUMPDEST SWAP1 DUP7 DUP7 DUP4 MLOAD DUP12 DUP6 ADD KECCAK256 DUP4 MLOAD DUP13 DUP6 ADD KECCAK256 EQ PUSH2 0x59EA JUMPI PUSH2 0x59E4 SWAP5 PUSH2 0x58D3 JUMP JUMPDEST ADD PUSH2 0x5958 JUMP JUMPDEST POP POP POP POP POP PUSH2 0x59E4 JUMP JUMPDEST POP POP POP PUSH2 0x59E4 JUMP JUMPDEST POP POP PUSH2 0x59E4 JUMP JUMPDEST POP POP POP POP POP POP SWAP1 POP JUMP JUMPDEST PUSH1 0x3 DUP4 LT ISZERO PUSH2 0x4B3D JUMPI DUP3 ISZERO PUSH2 0x5A58 JUMPI PUSH1 0x1 SWAP2 PUSH2 0x5A28 SWAP2 PUSH2 0x5AB9 JUMP JUMPDEST SWAP2 EQ PUSH2 0x5A31 JUMPI SWAP1 JUMP JUMPDEST DUP1 MLOAD PUSH1 0x20 DUP3 ADD KECCAK256 PUSH2 0x5A40 PUSH2 0x50C7 JUMP JUMPDEST PUSH1 0x20 DUP2 MLOAD SWAP2 ADD KECCAK256 EQ PUSH2 0x5A4F JUMPI SWAP1 JUMP JUMPDEST POP PUSH2 0x481C PUSH2 0x50E8 JUMP JUMPDEST POP POP POP PUSH2 0x481C PUSH2 0x4DD8 JUMP JUMPDEST PUSH1 0x1 PUSH1 0x1 PUSH1 0xA0 SHL SUB AND PUSH0 SWAP1 DUP2 MSTORE PUSH1 0x1 PUSH1 0x20 MSTORE PUSH1 0x40 SWAP1 KECCAK256 DUP1 SLOAD SWAP1 DUP2 ISZERO SWAP1 DUP2 ISZERO PUSH2 0x5AA9 JUMPI JUMPDEST POP PUSH2 0x540A JUMPI PUSH0 MSTORE PUSH1 0x2 PUSH1 0x20 MSTORE PUSH1 0xFF PUSH1 0x40 PUSH0 KECCAK256 SLOAD AND PUSH1 0x6 DUP2 LT ISZERO PUSH2 0x4B3D JUMPI PUSH1 0x3 EQ SWAP1 JUMP JUMPDEST PUSH1 0xFF SWAP2 POP PUSH1 0x1 ADD SLOAD AND ISZERO PUSH0 PUSH2 0x5A86 JUMP JUMPDEST SWAP1 PUSH2 0x5AC3 SWAP2 PUSH2 0x563E JUMP JUMPDEST PUSH0 MSTORE PUSH1 0x6 PUSH1 0x20 MSTORE PUSH1 0x40 PUSH0 KECCAK256 PUSH1 0xFF PUSH1 0x1 PUSH1 0x40 MLOAD SWAP3 PUSH2 0x5ADF DUP5 PUSH2 0x46BF JUMP JUMPDEST PUSH2 0x5AE8 DUP2 PUSH2 0x4A07 JUMP JUMPDEST DUP5 MSTORE ADD SLOAD AND ISZERO DUP1 ISZERO PUSH1 0x20 DUP4 ADD MSTORE PUSH2 0x5AFD JUMPI MLOAD SWAP1 JUMP JUMPDEST POP PUSH1 0x40 MLOAD PUSH2 0x5B0A DUP2 PUSH2 0x4709 JUMP JUMPDEST PUSH0 DUP2 MSTORE SWAP1 JUMP JUMPDEST DUP3 MLOAD PUSH1 0x20 DUP1 SWAP5 ADD KECCAK256 PUSH2 0x5B20 PUSH2 0x50C7 JUMP JUMPDEST DUP1 MLOAD SWAP1 DUP6 ADD KECCAK256 DUP2 SUB PUSH2 0x5B40 JUMPI POP PUSH2 0x4A47 SWAP3 PUSH1 0x7 SWAP2 PUSH0 MSTORE MSTORE PUSH1 0x40 PUSH0 KECCAK256 PUSH2 0x4D66 JUMP JUMPDEST PUSH2 0x5B48 PUSH2 0x50E8 JUMP JUMPDEST DUP1 MLOAD SWAP1 DUP6 ADD KECCAK256 DUP2 SUB PUSH2 0x5B68 JUMPI POP PUSH2 0x4A47 SWAP3 PUSH1 0x8 SWAP2 PUSH0 MSTORE MSTORE PUSH1 0x40 PUSH0 KECCAK256 PUSH2 0x4D66 JUMP JUMPDEST PUSH2 0x5B70 PUSH2 0x5111 JUMP JUMPDEST DUP1 MLOAD SWAP1 DUP6 ADD KECCAK256 DUP2 SUB PUSH2 0x5B90 JUMPI POP PUSH2 0x4A47 SWAP3 PUSH1 0x9 SWAP2 PUSH0 MSTORE MSTORE PUSH1 0x40 PUSH0 KECCAK256 PUSH2 0x4D66 JUMP JUMPDEST PUSH2 0x5B98 PUSH2 0x4DD8 JUMP JUMPDEST DUP5 DUP2 MLOAD SWAP2 ADD KECCAK256 EQ PUSH2 0x5BA8 JUMPI POP POP POP JUMP JUMPDEST PUSH2 0x4A47 SWAP3 PUSH1 0xA SWAP2 PUSH0 MSTORE MSTORE PUSH1 0x40 PUSH0 KECCAK256 PUSH2 0x4D66 JUMP JUMPDEST PUSH0 JUMPDEST DUP2 SLOAD SWAP1 DUP2 DUP2 LT ISZERO PUSH2 0x558D JUMPI DUP4 SWAP2 PUSH2 0x5BD4 DUP3 DUP6 PUSH2 0x4B07 JUMP JUMPDEST SWAP6 SWAP1 SLOAD PUSH1 0x3 SWAP7 DUP8 SHL SHR EQ PUSH2 0x5BEE JUMPI POP SWAP1 SWAP3 POP PUSH1 0x1 ADD PUSH2 0x5BBD JUMP JUMPDEST PUSH0 NOT SWAP3 POP DUP3 DUP2 ADD SWAP1 DUP2 GT PUSH2 0x4DB0 JUMPI PUSH2 0x4D88 PUSH2 0x5C0C PUSH2 0x5C19 SWAP3 DUP7 PUSH2 0x4B07 JUMP JUMPDEST SWAP1 SLOAD SWAP1 DUP8 SHL SHR SWAP3 DUP6 PUSH2 0x4B07 JUMP JUMPDEST SWAP1 SSTORE DUP2 SLOAD DUP1 ISZERO PUSH2 0x5C3E JUMPI DUP2 ADD SWAP3 PUSH2 0x5C30 DUP5 DUP5 PUSH2 0x4B07 JUMP JUMPDEST DUP2 SWAP4 SWAP2 SLOAD SWAP3 SHL SHL NOT AND SWAP1 SSTORE SSTORE JUMP JUMPDEST PUSH4 0x4E487B71 PUSH1 0xE0 SHL PUSH0 MSTORE PUSH1 0x31 PUSH1 0x4 MSTORE PUSH1 0x24 PUSH0 REVERT JUMPDEST SWAP1 PUSH0 DUP1 SWAP2 PUSH1 0x20 DUP2 MLOAD SWAP2 ADD DUP5 GAS DELEGATECALL DUP1 DUP1 PUSH2 0x5CD0 JUMPI JUMPDEST ISZERO PUSH2 0x5C86 JUMPI POP POP PUSH1 0x40 MLOAD RETURNDATASIZE DUP2 MSTORE RETURNDATASIZE PUSH0 PUSH1 0x20 DUP4 ADD RETURNDATACOPY PUSH1 0x20 RETURNDATASIZE DUP3 ADD ADD PUSH1 0x40 MSTORE SWAP1 JUMP JUMPDEST ISZERO PUSH2 0x5CAD JUMPI PUSH1 0x40 MLOAD PUSH4 0x9996B315 PUSH1 0xE0 SHL DUP2 MSTORE PUSH1 0x1 PUSH1 0x1 PUSH1 0xA0 SHL SUB SWAP1 SWAP2 AND PUSH1 0x4 DUP3 ADD MSTORE PUSH1 0x24 SWAP1 REVERT JUMPDEST RETURNDATASIZE ISZERO PUSH2 0x5CBE JUMPI PUSH1 0x40 MLOAD RETURNDATASIZE PUSH0 DUP3 RETURNDATACOPY RETURNDATASIZE SWAP1 REVERT JUMPDEST PUSH1 0x40 MLOAD PUSH4 0xD6BDA275 PUSH1 0xE0 SHL DUP2 MSTORE PUSH1 0x4 SWAP1 REVERT JUMPDEST POP RETURNDATASIZE ISZERO ISZERO DUP1 PUSH2 0x5C66 JUMPI POP DUP2 EXTCODESIZE ISZERO ISZERO PUSH2 0x5C66 JUMP INVALID LOG2 PUSH5 0x6970667358 0x22 SLT KECCAK256 PUSH20 0xD818A1344245192E2C3D426F613C1222E8AD4F61 SSTORE SIGNEXTEND SUB 0x22 0xF 0xD9 MSTORE SWAP4 SWAP1 ISZERO DUP2 PUSH5 0x736F6C6343 STOP ADDMOD XOR STOP CALLER "},"methodIdentifiers":{"UPGRADE_INTERFACE_VERSION()":"ad3cb1cc","acceptTrustee(bytes32)":"b8cab84b","addMember(address,bytes32)":"49df7208","addMemberBatch(address[],bytes32)":"69ac2022","admin()":"f851a440","adminsByRecord(bytes32,uint256)":"8776cd35","bootstrapDependentTrustee(bytes32,bytes32)":"e6efcd5d","changeRole(bytes32,address,string)":"29c9087a","changeRoleBatch(bytes32[],address,string[])":"51eed472","deactivateWallet(address)":"0b3ffd1d","downgradeTrusteeLevel(bytes32,uint8)":"4d3c4a7c","getAllUsers()":"e2842d79","getGuestAccess(bytes32,bytes32)":"3256e5ab","getHealthRecordCore()":"e94ed257","getRecordAdmins(bytes32)":"41a51baa","getRecordOwners(bytes32)":"c36dc9ef","getRecordRoleStats(bytes32)":"8db7edb4","getRecordSharers(bytes32)":"2ab5d8f3","getRecordViewers(bytes32)":"033e822f","getRecordsByUser(bytes32)":"6544b05b","getRoleDetails(bytes32,address)":"422a5bb8","getRoleDetailsByUser(bytes32,bytes32)":"43e19704","getRoleGranter(bytes32,bytes32)":"aaddc345","getTotalRoles()":"4b6feb7c","getTotalUsers()":"9be572f6","getTrusteeGrantedRecords(bytes32,bytes32)":"c497d840","getTrusteeRelationship(bytes32,bytes32)":"9915b91f","getUserForWallet(address)":"00b0c809","getUserStatus(bytes32)":"f29e007b","getWalletsForUser(bytes32)":"d12a7768","grantGuestAccess(bytes32[],address,bytes32,bytes32,uint256)":"0591bdf4","grantRole(bytes32,address,string)":"dde492ea","grantRoleAsTrusteeBatch(bytes32[],bytes32)":"bafc8892","grantRoleBatch(bytes32[],address,string[])":"02ba8109","guestAccessByRecord(bytes32,bytes32)":"eec047aa","hasActiveGuestAccess(bytes32,bytes32)":"e211e89c","hasActiveRole(bytes32,address)":"c88c35fe","hasRole(bytes32,address,string)":"3befa410","healthRecordCore()":"562c788e","initialize()":"8129fc1c","initializeRecordRole(bytes32,address,string)":"726d5447","isActiveMember(address)":"45ecd02f","isActiveSubject(bytes32,bytes32)":"64f639d4","isControllerOf(bytes32,bytes32)":"557ee54f","isOwnerOrAdmin(bytes32,address)":"0519e2a0","isVerifiedMember(address)":"cb261a03","isVerifiedProvider(address)":"259ed80e","ownersByRecord(bytes32,uint256)":"55816079","proposeTrustee(bytes32,uint8)":"1c0c18d8","proxiableUUID()":"52d1902d","reactivateWallet(address)":"bb0f86d5","recordRoles(bytes32)":"33105592","recordsByUser(bytes32,uint256)":"fa7a6bcc","revokeGuestAccess(bytes32[],bytes32)":"1dc63201","revokeRole(bytes32,address)":"d547741f","revokeRoleBatch(bytes32[],address)":"f12b9ad3","revokeTrustee(bytes32,bytes32)":"c979c9bf","roleGrantedBy(bytes32)":"cda06c6e","setHealthRecordCore(address)":"c7155823","setUserStatus(bytes32,uint8)":"96207e02","sharersByRecord(bytes32,uint256)":"f32b10f0","totalRoles()":"790e118c","totalUsers()":"bff1f9e1","transferAdmin(address)":"75829def","trusteeRelationships(bytes32,bytes32)":"7b657d07","updateTrusteeLevel(bytes32,uint8)":"ab48384a","upgradeToAndCall(address,bytes)":"4f1ef286","userList(uint256)":"9f4216e8","userStatus(bytes32)":"6b4bed97","userWallets(bytes32,uint256)":"9443cd80","viewersByRecord(bytes32,uint256)":"93ccfba8","voluntarilyLeaveOwnership(bytes32)":"2ae8511d","wallets(address)":"89b08f11"}},"storageLayout":{"storage":[{"astId":1563,"contract":"smartContracts/MemberRoleManager.sol:MemberRoleManager","label":"admin","offset":0,"slot":"0","type":"t_address"},{"astId":1756,"contract":"smartContracts/MemberRoleManager.sol:MemberRoleManager","label":"wallets","offset":0,"slot":"1","type":"t_mapping(t_address,t_struct(UserInfo)1751_storage)"},{"astId":1761,"contract":"smartContracts/MemberRoleManager.sol:MemberRoleManager","label":"userStatus","offset":0,"slot":"2","type":"t_mapping(t_bytes32,t_enum(MemberStatus)1716)"},{"astId":1766,"contract":"smartContracts/MemberRoleManager.sol:MemberRoleManager","label":"userWallets","offset":0,"slot":"3","type":"t_mapping(t_bytes32,t_array(t_address)dyn_storage)"},{"astId":1769,"contract":"smartContracts/MemberRoleManager.sol:MemberRoleManager","label":"userList","offset":0,"slot":"4","type":"t_array(t_bytes32)dyn_storage"},{"astId":1771,"contract":"smartContracts/MemberRoleManager.sol:MemberRoleManager","label":"totalUsers","offset":0,"slot":"5","type":"t_uint256"},{"astId":2423,"contract":"smartContracts/MemberRoleManager.sol:MemberRoleManager","label":"recordRoles","offset":0,"slot":"6","type":"t_mapping(t_bytes32,t_struct(RecordRole)2418_storage)"},{"astId":2428,"contract":"smartContracts/MemberRoleManager.sol:MemberRoleManager","label":"ownersByRecord","offset":0,"slot":"7","type":"t_mapping(t_bytes32,t_array(t_bytes32)dyn_storage)"},{"astId":2433,"contract":"smartContracts/MemberRoleManager.sol:MemberRoleManager","label":"adminsByRecord","offset":0,"slot":"8","type":"t_mapping(t_bytes32,t_array(t_bytes32)dyn_storage)"},{"astId":2438,"contract":"smartContracts/MemberRoleManager.sol:MemberRoleManager","label":"sharersByRecord","offset":0,"slot":"9","type":"t_mapping(t_bytes32,t_array(t_bytes32)dyn_storage)"},{"astId":2443,"contract":"smartContracts/MemberRoleManager.sol:MemberRoleManager","label":"viewersByRecord","offset":0,"slot":"10","type":"t_mapping(t_bytes32,t_array(t_bytes32)dyn_storage)"},{"astId":2448,"contract":"smartContracts/MemberRoleManager.sol:MemberRoleManager","label":"recordsByUser","offset":0,"slot":"11","type":"t_mapping(t_bytes32,t_array(t_bytes32)dyn_storage)"},{"astId":2450,"contract":"smartContracts/MemberRoleManager.sol:MemberRoleManager","label":"totalRoles","offset":0,"slot":"12","type":"t_uint256"},{"astId":2453,"contract":"smartContracts/MemberRoleManager.sol:MemberRoleManager","label":"healthRecordCore","offset":0,"slot":"13","type":"t_contract(HealthRecordCoreInterface)1554"},{"astId":2457,"contract":"smartContracts/MemberRoleManager.sol:MemberRoleManager","label":"roleGrantedBy","offset":0,"slot":"14","type":"t_mapping(t_bytes32,t_bytes32)"},{"astId":4489,"contract":"smartContracts/MemberRoleManager.sol:MemberRoleManager","label":"trusteeRelationships","offset":0,"slot":"15","type":"t_mapping(t_bytes32,t_mapping(t_bytes32,t_struct(TrusteeRelationship)4482_storage))"},{"astId":4496,"contract":"smartContracts/MemberRoleManager.sol:MemberRoleManager","label":"_trusteeGrantedRecords","offset":0,"slot":"16","type":"t_mapping(t_bytes32,t_mapping(t_bytes32,t_array(t_bytes32)dyn_storage))"},{"astId":4504,"contract":"smartContracts/MemberRoleManager.sol:MemberRoleManager","label":"_trusteeGrantedRecordSet","offset":0,"slot":"17","type":"t_mapping(t_bytes32,t_mapping(t_bytes32,t_mapping(t_bytes32,t_bool)))"},{"astId":6130,"contract":"smartContracts/MemberRoleManager.sol:MemberRoleManager","label":"guestAccessByRecord","offset":0,"slot":"18","type":"t_mapping(t_bytes32,t_mapping(t_bytes32,t_struct(GuestAccess)6099_storage))"},{"astId":6503,"contract":"smartContracts/MemberRoleManager.sol:MemberRoleManager","label":"__gap","offset":0,"slot":"19","type":"t_array(t_uint256)50_storage"}],"types":{"t_address":{"encoding":"inplace","label":"address","numberOfBytes":"20"},"t_array(t_address)dyn_storage":{"base":"t_address","encoding":"dynamic_array","label":"address[]","numberOfBytes":"32"},"t_array(t_bytes32)dyn_storage":{"base":"t_bytes32","encoding":"dynamic_array","label":"bytes32[]","numberOfBytes":"32"},"t_array(t_uint256)50_storage":{"base":"t_uint256","encoding":"inplace","label":"uint256[50]","numberOfBytes":"1600"},"t_bool":{"encoding":"inplace","label":"bool","numberOfBytes":"1"},"t_bytes32":{"encoding":"inplace","label":"bytes32","numberOfBytes":"32"},"t_contract(HealthRecordCoreInterface)1554":{"encoding":"inplace","label":"contract HealthRecordCoreInterface","numberOfBytes":"20"},"t_enum(MemberStatus)1716":{"encoding":"inplace","label":"enum MemberRoleManager.MemberStatus","numberOfBytes":"1"},"t_enum(TrusteeLevel)4470":{"encoding":"inplace","label":"enum MemberRoleManager.TrusteeLevel","numberOfBytes":"1"},"t_enum(TrusteeStatus)4475":{"encoding":"inplace","label":"enum MemberRoleManager.TrusteeStatus","numberOfBytes":"1"},"t_mapping(t_address,t_struct(UserInfo)1751_storage)":{"encoding":"mapping","key":"t_address","label":"mapping(address => struct MemberRoleManager.UserInfo)","numberOfBytes":"32","value":"t_struct(UserInfo)1751_storage"},"t_mapping(t_bytes32,t_array(t_address)dyn_storage)":{"encoding":"mapping","key":"t_bytes32","label":"mapping(bytes32 => address[])","numberOfBytes":"32","value":"t_array(t_address)dyn_storage"},"t_mapping(t_bytes32,t_array(t_bytes32)dyn_storage)":{"encoding":"mapping","key":"t_bytes32","label":"mapping(bytes32 => bytes32[])","numberOfBytes":"32","value":"t_array(t_bytes32)dyn_storage"},"t_mapping(t_bytes32,t_bool)":{"encoding":"mapping","key":"t_bytes32","label":"mapping(bytes32 => bool)","numberOfBytes":"32","value":"t_bool"},"t_mapping(t_bytes32,t_bytes32)":{"encoding":"mapping","key":"t_bytes32","label":"mapping(bytes32 => bytes32)","numberOfBytes":"32","value":"t_bytes32"},"t_mapping(t_bytes32,t_enum(MemberStatus)1716)":{"encoding":"mapping","key":"t_bytes32","label":"mapping(bytes32 => enum MemberRoleManager.MemberStatus)","numberOfBytes":"32","value":"t_enum(MemberStatus)1716"},"t_mapping(t_bytes32,t_mapping(t_bytes32,t_array(t_bytes32)dyn_storage))":{"encoding":"mapping","key":"t_bytes32","label":"mapping(bytes32 => mapping(bytes32 => bytes32[]))","numberOfBytes":"32","value":"t_mapping(t_bytes32,t_array(t_bytes32)dyn_storage)"},"t_mapping(t_bytes32,t_mapping(t_bytes32,t_bool))":{"encoding":"mapping","key":"t_bytes32","label":"mapping(bytes32 => mapping(bytes32 => bool))","numberOfBytes":"32","value":"t_mapping(t_bytes32,t_bool)"},"t_mapping(t_bytes32,t_mapping(t_bytes32,t_mapping(t_bytes32,t_bool)))":{"encoding":"mapping","key":"t_bytes32","label":"mapping(bytes32 => mapping(bytes32 => mapping(bytes32 => bool)))","numberOfBytes":"32","value":"t_mapping(t_bytes32,t_mapping(t_bytes32,t_bool))"},"t_mapping(t_bytes32,t_mapping(t_bytes32,t_struct(GuestAccess)6099_storage))":{"encoding":"mapping","key":"t_bytes32","label":"mapping(bytes32 => mapping(bytes32 => struct MemberRoleManager.GuestAccess))","numberOfBytes":"32","value":"t_mapping(t_bytes32,t_struct(GuestAccess)6099_storage)"},"t_mapping(t_bytes32,t_mapping(t_bytes32,t_struct(TrusteeRelationship)4482_storage))":{"encoding":"mapping","key":"t_bytes32","label":"mapping(bytes32 => mapping(bytes32 => struct MemberRoleManager.TrusteeRelationship))","numberOfBytes":"32","value":"t_mapping(t_bytes32,t_struct(TrusteeRelationship)4482_storage)"},"t_mapping(t_bytes32,t_struct(GuestAccess)6099_storage)":{"encoding":"mapping","key":"t_bytes32","label":"mapping(bytes32 => struct MemberRoleManager.GuestAccess)","numberOfBytes":"32","value":"t_struct(GuestAccess)6099_storage"},"t_mapping(t_bytes32,t_struct(RecordRole)2418_storage)":{"encoding":"mapping","key":"t_bytes32","label":"mapping(bytes32 => struct MemberRoleManager.RecordRole)","numberOfBytes":"32","value":"t_struct(RecordRole)2418_storage"},"t_mapping(t_bytes32,t_struct(TrusteeRelationship)4482_storage)":{"encoding":"mapping","key":"t_bytes32","label":"mapping(bytes32 => struct MemberRoleManager.TrusteeRelationship)","numberOfBytes":"32","value":"t_struct(TrusteeRelationship)4482_storage"},"t_string_storage":{"encoding":"bytes","label":"string","numberOfBytes":"32"},"t_struct(GuestAccess)6099_storage":{"encoding":"inplace","label":"struct MemberRoleManager.GuestAccess","members":[{"astId":6092,"contract":"smartContracts/MemberRoleManager.sol:MemberRoleManager","label":"grantedAt","offset":0,"slot":"0","type":"t_uint256"},{"astId":6094,"contract":"smartContracts/MemberRoleManager.sol:MemberRoleManager","label":"expiresAt","offset":0,"slot":"1","type":"t_uint256"},{"astId":6096,"contract":"smartContracts/MemberRoleManager.sol:MemberRoleManager","label":"grantedByIdHash","offset":0,"slot":"2","type":"t_bytes32"},{"astId":6098,"contract":"smartContracts/MemberRoleManager.sol:MemberRoleManager","label":"guestEmailHash","offset":0,"slot":"3","type":"t_bytes32"}],"numberOfBytes":"128"},"t_struct(RecordRole)2418_storage":{"encoding":"inplace","label":"struct MemberRoleManager.RecordRole","members":[{"astId":2415,"contract":"smartContracts/MemberRoleManager.sol:MemberRoleManager","label":"role","offset":0,"slot":"0","type":"t_string_storage"},{"astId":2417,"contract":"smartContracts/MemberRoleManager.sol:MemberRoleManager","label":"isActive","offset":0,"slot":"1","type":"t_bool"}],"numberOfBytes":"64"},"t_struct(TrusteeRelationship)4482_storage":{"encoding":"inplace","label":"struct MemberRoleManager.TrusteeRelationship","members":[{"astId":4478,"contract":"smartContracts/MemberRoleManager.sol:MemberRoleManager","label":"status","offset":0,"slot":"0","type":"t_enum(TrusteeStatus)4475"},{"astId":4481,"contract":"smartContracts/MemberRoleManager.sol:MemberRoleManager","label":"level","offset":1,"slot":"0","type":"t_enum(TrusteeLevel)4470"}],"numberOfBytes":"32"},"t_struct(UserInfo)1751_storage":{"encoding":"inplace","label":"struct MemberRoleManager.UserInfo","members":[{"astId":1748,"contract":"smartContracts/MemberRoleManager.sol:MemberRoleManager","label":"userIdHash","offset":0,"slot":"0","type":"t_bytes32"},{"astId":1750,"contract":"smartContracts/MemberRoleManager.sol:MemberRoleManager","label":"isWalletActive","offset":0,"slot":"1","type":"t_bool"}],"numberOfBytes":"64"},"t_uint256":{"encoding":"inplace","label":"uint256","numberOfBytes":"32"}}}}}}