{"smartContracts/MemberRoleManager.sol":{"MemberRoleManager":{"abi":[{"inputs":[],"stateMutability":"nonpayable","type":"constructor"},{"inputs":[{"internalType":"address","name":"target","type":"address"}],"name":"AddressEmptyCode","type":"error"},{"inputs":[{"internalType":"address","name":"implementation","type":"address"}],"name":"ERC1967InvalidImplementation","type":"error"},{"inputs":[],"name":"ERC1967NonPayable","type":"error"},{"inputs":[],"name":"FailedCall","type":"error"},{"inputs":[],"name":"InvalidInitialization","type":"error"},{"inputs":[],"name":"NotInitializing","type":"error"},{"inputs":[],"name":"UUPSUnauthorizedCallContext","type":"error"},{"inputs":[{"internalType":"bytes32","name":"slot","type":"bytes32"}],"name":"UUPSUnsupportedProxiableUUID","type":"error"},{"anonymous":false,"inputs":[{"indexed":true,"internalType":"address","name":"oldAdmin","type":"address"},{"indexed":true,"internalType":"address","name":"newAdmin","type":"address"},{"indexed":false,"internalType":"uint256","name":"timestamp","type":"uint256"}],"name":"AdminTransferred","type":"event"},{"anonymous":false,"inputs":[{"indexed":true,"internalType":"address","name":"newAddress","type":"address"},{"indexed":false,"internalType":"uint256","name":"timestamp","type":"uint256"}],"name":"HealthRecordCoreUpdated","type":"event"},{"anonymous":false,"inputs":[{"indexed":false,"internalType":"uint64","name":"version","type":"uint64"}],"name":"Initialized","type":"event"},{"anonymous":false,"inputs":[{"indexed":true,"internalType":"address","name":"wallet","type":"address"},{"indexed":true,"internalType":"bytes32","name":"userIdHash","type":"bytes32"},{"indexed":false,"internalType":"uint256","name":"timestamp","type":"uint256"}],"name":"MemberRegistered","type":"event"},{"anonymous":false,"inputs":[{"indexed":true,"internalType":"bytes32","name":"userIdHash","type":"bytes32"},{"indexed":false,"internalType":"enum MemberRoleManager.MemberStatus","name":"oldStatus","type":"uint8"},{"indexed":false,"internalType":"enum MemberRoleManager.MemberStatus","name":"newStatus","type":"uint8"},{"indexed":true,"internalType":"address","name":"changedBy","type":"address"},{"indexed":false,"internalType":"uint256","name":"timestamp","type":"uint256"}],"name":"MemberStatusChanged","type":"event"},{"anonymous":false,"inputs":[{"indexed":true,"internalType":"bytes32","name":"recordIdHash","type":"bytes32"},{"indexed":true,"internalType":"bytes32","name":"userIdHash","type":"bytes32"},{"indexed":false,"internalType":"uint256","name":"timestamp","type":"uint256"}],"name":"OwnershipVoluntarilyLeft","type":"event"},{"anonymous":false,"inputs":[{"indexed":true,"internalType":"bytes32","name":"recordIdHash","type":"bytes32"},{"indexed":true,"internalType":"bytes32","name":"targetIdHash","type":"bytes32"},{"indexed":false,"internalType":"string","name":"oldRole","type":"string"},{"indexed":false,"internalType":"string","name":"newRole","type":"string"},{"indexed":true,"internalType":"bytes32","name":"userIdHash","type":"bytes32"},{"indexed":false,"internalType":"uint256","name":"timestamp","type":"uint256"}],"name":"RoleChanged","type":"event"},{"anonymous":false,"inputs":[{"indexed":true,"internalType":"bytes32","name":"recordIdHash","type":"bytes32"},{"indexed":true,"internalType":"bytes32","name":"targetIdHash","type":"bytes32"},{"indexed":false,"internalType":"string","name":"role","type":"string"},{"indexed":true,"internalType":"bytes32","name":"userIdHash","type":"bytes32"},{"indexed":false,"internalType":"uint256","name":"timestamp","type":"uint256"}],"name":"RoleGranted","type":"event"},{"anonymous":false,"inputs":[{"indexed":true,"internalType":"bytes32","name":"recordIdHash","type":"bytes32"},{"indexed":true,"internalType":"bytes32","name":"targetIdHash","type":"bytes32"},{"indexed":false,"internalType":"string","name":"role","type":"string"},{"indexed":true,"internalType":"bytes32","name":"userIdHash","type":"bytes32"},{"indexed":false,"internalType":"uint256","name":"timestamp","type":"uint256"}],"name":"RoleRevoked","type":"event"},{"anonymous":false,"inputs":[{"indexed":true,"internalType":"bytes32","name":"trustorIdHash","type":"bytes32"},{"indexed":true,"internalType":"bytes32","name":"trusteeIdHash","type":"bytes32"},{"indexed":false,"internalType":"enum MemberRoleManager.TrusteeLevel","name":"level","type":"uint8"},{"indexed":false,"internalType":"uint256","name":"timestamp","type":"uint256"}],"name":"TrusteeAccepted","type":"event"},{"anonymous":false,"inputs":[{"indexed":true,"internalType":"bytes32","name":"trustorIdHash","type":"bytes32"},{"indexed":true,"internalType":"bytes32","name":"trusteeIdHash","type":"bytes32"},{"indexed":false,"internalType":"uint256","name":"timestamp","type":"uint256"}],"name":"TrusteeDeclined","type":"event"},{"anonymous":false,"inputs":[{"indexed":true,"internalType":"bytes32","name":"trustorIdHash","type":"bytes32"},{"indexed":true,"internalType":"bytes32","name":"trusteeIdHash","type":"bytes32"},{"indexed":false,"internalType":"enum MemberRoleManager.TrusteeLevel","name":"oldLevel","type":"uint8"},{"indexed":false,"internalType":"enum MemberRoleManager.TrusteeLevel","name":"newLevel","type":"uint8"},{"indexed":false,"internalType":"uint256","name":"timestamp","type":"uint256"}],"name":"TrusteeLevelUpdated","type":"event"},{"anonymous":false,"inputs":[{"indexed":true,"internalType":"bytes32","name":"trustorIdHash","type":"bytes32"},{"indexed":true,"internalType":"bytes32","name":"trusteeIdHash","type":"bytes32"},{"indexed":false,"internalType":"enum MemberRoleManager.TrusteeLevel","name":"level","type":"uint8"},{"indexed":false,"internalType":"uint256","name":"timestamp","type":"uint256"}],"name":"TrusteeProposed","type":"event"},{"anonymous":false,"inputs":[{"indexed":true,"internalType":"bytes32","name":"trustorIdHash","type":"bytes32"},{"indexed":true,"internalType":"bytes32","name":"trusteeIdHash","type":"bytes32"},{"indexed":true,"internalType":"bytes32","name":"revokedBy","type":"bytes32"},{"indexed":false,"internalType":"uint256","name":"timestamp","type":"uint256"}],"name":"TrusteeRevoked","type":"event"},{"anonymous":false,"inputs":[{"indexed":true,"internalType":"address","name":"implementation","type":"address"}],"name":"Upgraded","type":"event"},{"anonymous":false,"inputs":[{"indexed":true,"internalType":"address","name":"wallet","type":"address"},{"indexed":true,"internalType":"bytes32","name":"userIdHash","type":"bytes32"},{"indexed":false,"internalType":"uint256","name":"timestamp","type":"uint256"}],"name":"WalletLinked","type":"event"},{"inputs":[],"name":"UPGRADE_INTERFACE_VERSION","outputs":[{"internalType":"string","name":"","type":"string"}],"stateMutability":"view","type":"function"},{"inputs":[{"internalType":"bytes32","name":"trustorIdHash","type":"bytes32"}],"name":"acceptTrustee","outputs":[],"stateMutability":"nonpayable","type":"function"},{"inputs":[{"internalType":"address","name":"wallet","type":"address"},{"internalType":"bytes32","name":"userIdHash","type":"bytes32"}],"name":"addMember","outputs":[],"stateMutability":"nonpayable","type":"function"},{"inputs":[{"internalType":"address[]","name":"walletAddresses","type":"address[]"},{"internalType":"bytes32","name":"userIdHash","type":"bytes32"}],"name":"addMemberBatch","outputs":[],"stateMutability":"nonpayable","type":"function"},{"inputs":[],"name":"admin","outputs":[{"internalType":"address","name":"","type":"address"}],"stateMutability":"view","type":"function"},{"inputs":[{"internalType":"bytes32","name":"","type":"bytes32"},{"internalType":"uint256","name":"","type":"uint256"}],"name":"adminsByRecord","outputs":[{"internalType":"bytes32","name":"","type":"bytes32"}],"stateMutability":"view","type":"function"},{"inputs":[{"internalType":"bytes32","name":"trustorIdHash","type":"bytes32"},{"internalType":"bytes32","name":"trusteeIdHash","type":"bytes32"}],"name":"bootstrapDependentTrustee","outputs":[],"stateMutability":"nonpayable","type":"function"},{"inputs":[{"internalType":"bytes32","name":"recordIdHash","type":"bytes32"},{"internalType":"address","name":"targetWallet","type":"address"},{"internalType":"string","name":"newRole","type":"string"}],"name":"changeRole","outputs":[],"stateMutability":"nonpayable","type":"function"},{"inputs":[{"internalType":"bytes32[]","name":"recordIdHashes","type":"bytes32[]"},{"internalType":"address","name":"targetWallet","type":"address"},{"internalType":"string[]","name":"newRoles","type":"string[]"}],"name":"changeRoleBatch","outputs":[],"stateMutability":"nonpayable","type":"function"},{"inputs":[{"internalType":"address","name":"wallet","type":"address"}],"name":"deactivateWallet","outputs":[],"stateMutability":"nonpayable","type":"function"},{"inputs":[{"internalType":"bytes32","name":"trustorIdHash","type":"bytes32"}],"name":"declineTrustee","outputs":[],"stateMutability":"nonpayable","type":"function"},{"inputs":[{"internalType":"bytes32","name":"trustorIdHash","type":"bytes32"},{"internalType":"enum MemberRoleManager.TrusteeLevel","name":"newLevel","type":"uint8"}],"name":"downgradeTrusteeLevel","outputs":[],"stateMutability":"nonpayable","type":"function"},{"inputs":[{"internalType":"bytes32","name":"recordIdHash","type":"bytes32"}],"name":"getAllRecordParticipants","outputs":[{"internalType":"bytes32[]","name":"owners","type":"bytes32[]"},{"internalType":"bytes32[]","name":"admins","type":"bytes32[]"},{"internalType":"bytes32[]","name":"sharers","type":"bytes32[]"},{"internalType":"bytes32[]","name":"viewers","type":"bytes32[]"}],"stateMutability":"view","type":"function"},{"inputs":[],"name":"getHealthRecordCore","outputs":[{"internalType":"address","name":"","type":"address"}],"stateMutability":"view","type":"function"},{"inputs":[{"internalType":"bytes32","name":"recordIdHash","type":"bytes32"}],"name":"getRecordAdmins","outputs":[{"internalType":"bytes32[]","name":"","type":"bytes32[]"}],"stateMutability":"view","type":"function"},{"inputs":[{"internalType":"bytes32","name":"recordIdHash","type":"bytes32"}],"name":"getRecordOwners","outputs":[{"internalType":"bytes32[]","name":"","type":"bytes32[]"}],"stateMutability":"view","type":"function"},{"inputs":[{"internalType":"bytes32","name":"recordIdHash","type":"bytes32"}],"name":"getRecordRoleStats","outputs":[{"internalType":"uint256","name":"ownerCount","type":"uint256"},{"internalType":"uint256","name":"adminCount","type":"uint256"},{"internalType":"uint256","name":"sharerCount","type":"uint256"},{"internalType":"uint256","name":"viewerCount","type":"uint256"}],"stateMutability":"view","type":"function"},{"inputs":[{"internalType":"bytes32","name":"recordIdHash","type":"bytes32"}],"name":"getRecordSharers","outputs":[{"internalType":"bytes32[]","name":"","type":"bytes32[]"}],"stateMutability":"view","type":"function"},{"inputs":[{"internalType":"bytes32","name":"recordIdHash","type":"bytes32"}],"name":"getRecordViewers","outputs":[{"internalType":"bytes32[]","name":"","type":"bytes32[]"}],"stateMutability":"view","type":"function"},{"inputs":[{"internalType":"bytes32","name":"recordIdHash","type":"bytes32"},{"internalType":"address","name":"wallet","type":"address"}],"name":"getRoleDetails","outputs":[{"internalType":"string","name":"role","type":"string"},{"internalType":"bool","name":"isActive","type":"bool"}],"stateMutability":"view","type":"function"},{"inputs":[{"internalType":"bytes32","name":"recordIdHash","type":"bytes32"},{"internalType":"bytes32","name":"userIdHash","type":"bytes32"}],"name":"getRoleDetailsByUser","outputs":[{"internalType":"string","name":"role","type":"string"},{"internalType":"bool","name":"isActive","type":"bool"}],"stateMutability":"view","type":"function"},{"inputs":[{"internalType":"bytes32","name":"recordIdHash","type":"bytes32"},{"internalType":"bytes32","name":"userIdHash","type":"bytes32"}],"name":"getRoleGranter","outputs":[{"internalType":"bytes32","name":"","type":"bytes32"}],"stateMutability":"view","type":"function"},{"inputs":[],"name":"getTotalUsers","outputs":[{"internalType":"uint256","name":"","type":"uint256"}],"stateMutability":"view","type":"function"},{"inputs":[{"internalType":"bytes32","name":"trustorIdHash","type":"bytes32"},{"internalType":"bytes32","name":"trusteeIdHash","type":"bytes32"}],"name":"getTrusteeGrantedRecords","outputs":[{"internalType":"bytes32[]","name":"","type":"bytes32[]"}],"stateMutability":"view","type":"function"},{"inputs":[{"internalType":"bytes32","name":"trustorIdHash","type":"bytes32"},{"internalType":"bytes32","name":"trusteeIdHash","type":"bytes32"}],"name":"getTrusteeRelationship","outputs":[{"internalType":"enum MemberRoleManager.TrusteeStatus","name":"status","type":"uint8"},{"internalType":"enum MemberRoleManager.TrusteeLevel","name":"level","type":"uint8"}],"stateMutability":"view","type":"function"},{"inputs":[{"internalType":"address","name":"wallet","type":"address"}],"name":"getUserForWallet","outputs":[{"internalType":"bytes32","name":"","type":"bytes32"}],"stateMutability":"view","type":"function"},{"inputs":[{"internalType":"bytes32","name":"userIdHash","type":"bytes32"}],"name":"getUserStatus","outputs":[{"internalType":"enum MemberRoleManager.MemberStatus","name":"status","type":"uint8"}],"stateMutability":"view","type":"function"},{"inputs":[{"internalType":"bytes32","name":"userIdHash","type":"bytes32"}],"name":"getWalletsForUser","outputs":[{"internalType":"address[]","name":"","type":"address[]"}],"stateMutability":"view","type":"function"},{"inputs":[{"internalType":"bytes32","name":"recordIdHash","type":"bytes32"},{"internalType":"address","name":"targetWallet","type":"address"},{"internalType":"string","name":"role","type":"string"}],"name":"grantRole","outputs":[],"stateMutability":"nonpayable","type":"function"},{"inputs":[{"internalType":"bytes32[]","name":"recordIdHashes","type":"bytes32[]"},{"internalType":"address","name":"targetWallet","type":"address"},{"internalType":"string[]","name":"roles","type":"string[]"}],"name":"grantRoleBatch","outputs":[],"stateMutability":"nonpayable","type":"function"},{"inputs":[{"internalType":"bytes32","name":"recordIdHash","type":"bytes32"},{"internalType":"address","name":"wallet","type":"address"}],"name":"hasActiveRole","outputs":[{"internalType":"bool","name":"","type":"bool"}],"stateMutability":"view","type":"function"},{"inputs":[{"internalType":"bytes32","name":"recordIdHash","type":"bytes32"},{"internalType":"address","name":"wallet","type":"address"},{"internalType":"string","name":"role","type":"string"}],"name":"hasRole","outputs":[{"internalType":"bool","name":"","type":"bool"}],"stateMutability":"view","type":"function"},{"inputs":[],"name":"healthRecordCore","outputs":[{"internalType":"contract HealthRecordCoreInterface","name":"","type":"address"}],"stateMutability":"view","type":"function"},{"inputs":[],"name":"initialize","outputs":[],"stateMutability":"nonpayable","type":"function"},{"inputs":[{"internalType":"bytes32","name":"recordIdHash","type":"bytes32"},{"internalType":"address","name":"targetWallet","type":"address"},{"internalType":"string","name":"role","type":"string"}],"name":"initializeRecordRole","outputs":[],"stateMutability":"nonpayable","type":"function"},{"inputs":[{"internalType":"address","name":"wallet","type":"address"}],"name":"isActiveMember","outputs":[{"internalType":"bool","name":"","type":"bool"}],"stateMutability":"view","type":"function"},{"inputs":[{"internalType":"bytes32","name":"recordIdHash","type":"bytes32"},{"internalType":"bytes32","name":"userIdHash","type":"bytes32"}],"name":"isActiveSubject","outputs":[{"internalType":"bool","name":"","type":"bool"}],"stateMutability":"view","type":"function"},{"inputs":[{"internalType":"bytes32","name":"trustorIdHash","type":"bytes32"},{"internalType":"bytes32","name":"trusteeIdHash","type":"bytes32"}],"name":"isControllerOf","outputs":[{"internalType":"bool","name":"","type":"bool"}],"stateMutability":"view","type":"function"},{"inputs":[{"internalType":"bytes32","name":"recordIdHash","type":"bytes32"},{"internalType":"address","name":"wallet","type":"address"}],"name":"isOwnerOrAdmin","outputs":[{"internalType":"bool","name":"","type":"bool"}],"stateMutability":"view","type":"function"},{"inputs":[{"internalType":"address","name":"wallet","type":"address"}],"name":"isVerifiedMember","outputs":[{"internalType":"bool","name":"","type":"bool"}],"stateMutability":"view","type":"function"},{"inputs":[{"internalType":"address","name":"wallet","type":"address"}],"name":"isVerifiedProvider","outputs":[{"internalType":"bool","name":"","type":"bool"}],"stateMutability":"view","type":"function"},{"inputs":[{"internalType":"bytes32","name":"","type":"bytes32"},{"internalType":"uint256","name":"","type":"uint256"}],"name":"ownersByRecord","outputs":[{"internalType":"bytes32","name":"","type":"bytes32"}],"stateMutability":"view","type":"function"},{"inputs":[{"internalType":"bytes32","name":"trusteeIdHash","type":"bytes32"},{"internalType":"enum MemberRoleManager.TrusteeLevel","name":"level","type":"uint8"},{"internalType":"bytes32[]","name":"recordIdHashes","type":"bytes32[]"}],"name":"proposeTrustee","outputs":[],"stateMutability":"nonpayable","type":"function"},{"inputs":[],"name":"proxiableUUID","outputs":[{"internalType":"bytes32","name":"","type":"bytes32"}],"stateMutability":"view","type":"function"},{"inputs":[{"internalType":"address","name":"wallet","type":"address"}],"name":"reactivateWallet","outputs":[],"stateMutability":"nonpayable","type":"function"},{"inputs":[{"internalType":"bytes32","name":"","type":"bytes32"}],"name":"recordRoles","outputs":[{"internalType":"string","name":"role","type":"string"},{"internalType":"bool","name":"isActive","type":"bool"}],"stateMutability":"view","type":"function"},{"inputs":[{"internalType":"bytes32","name":"recordIdHash","type":"bytes32"},{"internalType":"address","name":"targetWallet","type":"address"}],"name":"revokeRole","outputs":[],"stateMutability":"nonpayable","type":"function"},{"inputs":[{"internalType":"bytes32[]","name":"recordIdHashes","type":"bytes32[]"},{"internalType":"address","name":"targetWallet","type":"address"}],"name":"revokeRoleBatch","outputs":[],"stateMutability":"nonpayable","type":"function"},{"inputs":[{"internalType":"bytes32","name":"trustorIdHash","type":"bytes32"},{"internalType":"bytes32","name":"trusteeIdHash","type":"bytes32"}],"name":"revokeTrustee","outputs":[],"stateMutability":"nonpayable","type":"function"},{"inputs":[{"internalType":"bytes32","name":"","type":"bytes32"}],"name":"roleGrantedBy","outputs":[{"internalType":"bytes32","name":"","type":"bytes32"}],"stateMutability":"view","type":"function"},{"inputs":[{"internalType":"address","name":"_healthRecordCore","type":"address"}],"name":"setHealthRecordCore","outputs":[],"stateMutability":"nonpayable","type":"function"},{"inputs":[{"internalType":"bytes32","name":"userIdHash","type":"bytes32"},{"internalType":"enum MemberRoleManager.MemberStatus","name":"newStatus","type":"uint8"}],"name":"setUserStatus","outputs":[],"stateMutability":"nonpayable","type":"function"},{"inputs":[{"internalType":"bytes32","name":"","type":"bytes32"},{"internalType":"uint256","name":"","type":"uint256"}],"name":"sharersByRecord","outputs":[{"internalType":"bytes32","name":"","type":"bytes32"}],"stateMutability":"view","type":"function"},{"inputs":[],"name":"totalUsers","outputs":[{"internalType":"uint256","name":"","type":"uint256"}],"stateMutability":"view","type":"function"},{"inputs":[{"internalType":"address","name":"newAdmin","type":"address"}],"name":"transferAdmin","outputs":[],"stateMutability":"nonpayable","type":"function"},{"inputs":[{"internalType":"bytes32","name":"","type":"bytes32"},{"internalType":"bytes32","name":"","type":"bytes32"}],"name":"trusteeRelationships","outputs":[{"internalType":"enum MemberRoleManager.TrusteeStatus","name":"status","type":"uint8"},{"internalType":"enum MemberRoleManager.TrusteeLevel","name":"level","type":"uint8"}],"stateMutability":"view","type":"function"},{"inputs":[{"internalType":"bytes32","name":"trusteeIdHash","type":"bytes32"},{"internalType":"enum MemberRoleManager.TrusteeLevel","name":"newLevel","type":"uint8"}],"name":"updateTrusteeLevel","outputs":[],"stateMutability":"nonpayable","type":"function"},{"inputs":[{"internalType":"address","name":"newImplementation","type":"address"},{"internalType":"bytes","name":"data","type":"bytes"}],"name":"upgradeToAndCall","outputs":[],"stateMutability":"payable","type":"function"},{"inputs":[{"internalType":"bytes32","name":"","type":"bytes32"}],"name":"userStatus","outputs":[{"internalType":"enum MemberRoleManager.MemberStatus","name":"","type":"uint8"}],"stateMutability":"view","type":"function"},{"inputs":[{"internalType":"bytes32","name":"","type":"bytes32"},{"internalType":"uint256","name":"","type":"uint256"}],"name":"userWallets","outputs":[{"internalType":"address","name":"","type":"address"}],"stateMutability":"view","type":"function"},{"inputs":[{"internalType":"bytes32","name":"","type":"bytes32"},{"internalType":"uint256","name":"","type":"uint256"}],"name":"viewersByRecord","outputs":[{"internalType":"bytes32","name":"","type":"bytes32"}],"stateMutability":"view","type":"function"},{"inputs":[{"internalType":"bytes32","name":"recordIdHash","type":"bytes32"}],"name":"voluntarilyLeaveOwnership","outputs":[],"stateMutability":"nonpayable","type":"function"},{"inputs":[{"internalType":"address","name":"","type":"address"}],"name":"wallets","outputs":[{"internalType":"bytes32","name":"userIdHash","type":"bytes32"},{"internalType":"bool","name":"isWalletActive","type":"bool"}],"stateMutability":"view","type":"function"}],"evm":{"bytecode":{"linkReferences":{},"object":"60a08060405234620000d157306080527ff0c57e16840df040f15088dc2f81fe391c3923bec73e23a9662efc9c229c6a009081549060ff8260401c16620000c257506001600160401b036002600160401b0319828216016200007c575b6040516155de9081620000d68239608051818181612a2c0152612e660152f35b6001600160401b031990911681179091556040519081527fc7f505b2f371ae2175ee4913f4499e1f2633a7b5936321eed1cdaeb6115181d290602090a15f80806200005c565b63f92ee8a960e01b8152600490fd5b5f80fdfe6080604090808252600480361015610015575f80fd5b5f3560e01c918262b0c80914613f6e5750816302ba810914613d71578163033e822f14613d485781630519e2a014613d225781630b3ffd1d14613c65578163259ed80e14613c4057816329c9087a1461353b5781632ab5d8f3146135125781632ae8511d14613389578163331055921461334c5781633befa4101461333157816341a51baa14613308578163422a5bb8146132d457816343e197041461328257816345ecd02f1461326257816349df7208146131225781634d3c4a7c146130135781634f1ef28614612e1657816351eed47214612a9057816352d1902d14612a19578163557ee54f1461297f578163558160791461294f578163562c788e146108c457816364f639d41461293457816369ac2022146127415781636b4bed9714610534578163726d54471461242157816375829def146123a357816378ad8f5b146122ff5781637b657d07146122b55781638129fc1c146121985781638776cd351461216857816389b08f11146121235781638db7edb4146120d457816393ccfba8146120a45781639443cd801461205e57816396207e0214611f1a5781639915b91f14611e8f5781639be572f614611b6b578163aaddc34514611e63578163ab48384a14611d5e578163ad3cb1cc14611d1a578163b8cab84b14611c3e578163bb0f86d514611b87578163bff1f9e114611b6b578163c36dc9ef14611b42578163c497d84014611afc578163c715582314611a80578163c88c35fe14611a5a578163c979c9bf146117cb578163cb261a031461179d578163cda06c6e14611776578163d12a7768146116c7578163d547741f1461120b578163dc9f966414610f41578163dde492ea14610b31578163e6efcd5d146108ec578163e94ed257146108c4578163f12b9ad314610567578163f29e007b14610534578163f32b10f0146104f6578163f76794f1146102fe575063f851a440146102d4575f80fd5b346102fa575f3660031901126102fa575f5490516001600160a01b039091168152602090f35b5f80fd5b82346102fa57602091826003193601126102fa5780359261032661032133614c18565b614416565b335f52600193848252835f205492815f52600c8352845f20845f528352845f209081549160ff918860ff851661035b816143eb565b036104b35760ff1980941617905584837fc1f9bda0602b12c2f11218f87531038a6957666101c4faad39c882dcc5093dc6868951428152a3825f52600d8452855f20855f528452855f20875f905b6103cb575b6103c9888888885f52600d8152825f20915f52525f20614add565b005b81548110156104ae57908882888a6103e684989796866143c2565b90549060031b1c895f52600e8b52815f20835f528b52815f20815f528b52815f208881541690556104178382614d73565b5f528a60058082528887855f20015416156104a4578493600b5f80516020615569833981519152936104498787614d73565b93845f5280825261045b845f2061428d565b94610467868a8a614ef4565b5f52815289835f20018d8154169055525f818120558d610490825193838594855284019061432f565b9042908301520390a45b01909192936103a9565b505050505061049a565b6103ae565b875162461bcd60e51b8152908101869052601e60248201527f4e6f2070656e64696e672070726f706f73616c20746f206465636c696e6500006044820152606490fd5b82346102fa576105053661438d565b91905f526008602052805f2080548310156102fa57602092610526916143c2565b91905490519160031b1c8152f35b82346102fa5760203660031901126102fa57602091355f526002825260ff815f205416905190610563816143eb565b8152f35b82346102fa57806003193601126102fa5781356001600160401b0381116102fa576105959036908401614050565b9161059e613fb8565b6105aa61032133614c18565b6001600160a01b03169081156108905750335f52600192602060018152835f2054925f52835f2054916105de83151561449d565b855f9584861415915b6105ed57005b82518710156103c957878761060d87610607849b88614a42565b51615074565b1561088b57878761062881610622858a614a42565b51614d73565b805f526005808a5261063b875f2061428d565b91858b8a8c86518388012061064e614737565b848151910120811461087c5761066e896106688785614a42565b51614e05565b61087c5787938993610752575b610683614758565b8051910120146106f9575b6106a19361069b91614a42565b51614ef4565b5f52895284865f200160ff198154169055600b89525f868120555f805160206155698339815191526106e96106d6868b614a42565b519288519182918a83528a83019061432f565b428d8301520390a45b01966105e7565b9050610706929150614a42565b515f5260068b52858a895f20541580610732575b6107265785859161068e565b505050505050506106f2565b509061073d91614a42565b515f5260078b52858a888a5f2054111561071a565b925092508b6107746107648684614a42565b518b61076e614737565b91614da7565b8a61078c6107828886614a42565b518261076e614758565b928a8c6107976147a3565b88815191012089148015610866575b156107f6575050885f52600b86525f205414901591826107ed575b50816107e4575b506107d6578692889261067b565b5050505050505050506106f2565b9050155f6107c8565b1591505f6107c1565b9693925096939050610806614758565b838151910120841461081a575b505061067b565b91945091945061082a8684614a42565b515f908152600685528e9020541561084e5750155b6107d657869288925f80610813565b9015908161085d575b5061083f565b9050155f610857565b5061086f614781565b88815191012089146107a6565b505050505050505050506106f2565b6106f2565b606490602084519162461bcd60e51b8352820152600e60248201526d125b9d985b1a59081dd85b1b195d60921b6044820152fd5b82346102fa575f3660031901126102fa57600a5490516001600160a01b039091168152602090f35b82346102fa576108fb3661438d565b9161091060018060a01b035f54163314614588565b8115610afd57610921831515614b0d565b61092d83831415614b4b565b815f526002602081815260ff835f205416610947816143eb565b15610ac257845f5281815261096c60ff845f205416610965816143eb565b1515614b97565b835f52600c8152825f20855f52815260ff835f20541661098b816143eb565b8015908115610aae575b5015610a5d5782516109a681613fce565b828152818101838152855f52600c8352845f20875f5283526109d5855f2092516109cf816143eb565b83614978565b51966003881015610a4a57507fc5b2e1bd4433eb4e9e181cc803520513d39d918c96bddeebca1224e1c750963d949596610a0e916149fe565b85857f494d010fdf588a0e83d626ea6963187bdda6f88b7007f7bf280683d3f7dea8348580518681524286820152a382519182524290820152a3005b602190634e487b7160e01b5f525260245ffd5b8560849184519162461bcd60e51b8352820152602660248201527f52656c6174696f6e7368697020616c726561647920616374697665206f722070604482015265656e64696e6760d01b6064820152fd5b60039150610abb816143eb565b1487610995565b8560649184519162461bcd60e51b83528201526016602482015275151c9d5cdd1bdc881b9bdd081c9959da5cdd195c995960521b6044820152fd5b5162461bcd60e51b8152602081850152600f60248201526e24b73b30b634b2103a393ab9ba37b960891b6044820152606490fd5b9050346102fa57610b4136614213565b919290610b5061032133614c18565b610b5b841515614605565b6001600160a01b031692610b70841515614651565b610b81610b7c84614cfb565b61469d565b335f5260209160018352855f2054945f52855f205492610ba284151561449d565b845181860120610bb28785614d73565b5f526005825260ff6001895f2001541615610f0057835f5260068252875f2054151590610be7610be0614737565b8987614da7565b91610bfa610bf3614758565b8a88614da7565b91610c0d610c06614781565b8b89614da7565b90610c16614737565b8051908701208103610d5457505015610cfa575015610cb8575b610c3a8484614d73565b5f526005815260ff6001885f20015416610c5a5750506103c9945061507e565b865162461bcd60e51b815291820152603360248201527f54617267657420616c726561647920686173206120726f6c652e2055736520636044820152721a185b99d9549bdb194a0a481a5b9cdd195859606a1b606482015260849150fd5b865162461bcd60e51b815291820181905260248201527f4f6e6c79206f776e6572732063616e206772616e74206f776e657220726f6c65604482015260649150fd5b9050610c3057865162461bcd60e51b815291820152602960248201527f4f6e6c792061646d696e6973747261746f72732063616e206772616e742066696044820152683939ba1037bbb732b960b91b606482015260849150fd5b90929150610d60614758565b8051908601208103610dd8575090508115610dd0575b50610c3057865162461bcd60e51b815291820152603b60248201525f8051602061558983398151915260448201527f616e206772616e742061646d696e6973747261746f7220726f6c650000000000606482015260849150fd5b90505f610d76565b610de0614781565b8051908601208103610e4f575090508115610e47575b50610c3057865162461bcd60e51b815291820152603460248201525f80516020615589833981519152604482015273616e206772616e742073686172657220726f6c6560601b606482015260849150fd5b90505f610df6565b610e576147a3565b85815191012014610e6b575b505050610c30565b8215610ef8575b508115610ef0575b5015610e88575f8080610e63565b865162461bcd60e51b815291820152603e60248201527f4f6e6c79206f776e6572732c2061646d696e6973747261746f72732c20616e6460448201527f20736861726572732063616e206772616e742076696577657220726f6c650000606482015260849150fd5b90505f610e7a565b91505f610e72565b60648383808b519262461bcd60e51b845283015260248201527f596f752068617665206e6f20726f6c6520666f722074686973207265636f72646044820152fd5b82346102fa5760603660031901126102fa5781359060243560038110156102fa576044356001600160401b0381116102fa57610f809036908601614050565b610f8c61032133614c18565b335f52600193602091858352845f2054610fa7831515614b0d565b610fb383821415614b4b565b825f526002845260ff91610fd060ff885f205416610965816143eb565b815f52600c8552865f20845f52855260ff875f205416610fef816143eb565b8981159182156111f3575b82156111df575b50501561118e57865161101381613fce565b8881528581016110238882614a56565b835f52600c8752885f20865f528752611043895f2092516109cf816143eb565b519960038b1015610a4a5750889961105a916149fe565b83827f494d010fdf588a0e83d626ea6963187bdda6f88b7007f7bf280683d3f7dea83489805161108a818c614409565b428a820152a35f975b61109957005b80518810156103c95788886110af829a84614a42565b516110bb8986836152b3565b6110c481614cfb565b15611187576110d38683614d73565b5f526005808a5287858d5f200154161561117f576110f18984614d73565b5f5289528587858d5f2001541661117f5761110d91898461507e565b845f52600e8089528a5f20885f5289528a5f20825f528952868b5f2054161561113b575b50505b0197611093565b855f52600d89528a5f20885f528952611156828c5f20614bdc565b855f528852895f20875f528852895f20905f528752885f208260ff198254161790558b80611131565b505050611134565b5050611134565b865162461bcd60e51b8152808a01869052602560248201527f50726f706f73616c20616c726561647920657869737473206f722069732070656044820152646e64696e6760d81b6064820152608490fd5b9091506111eb816143eb565b14898b611001565b80925061120091506143eb565b896003821491610ffa565b82346102fa57806003193601126102fa578135611226613fb8565b61123261032133614c18565b61123d821515614605565b6001600160a01b031692611252841515614651565b335f5260209260018452805f2054945f52805f20549361127385151561449d565b61127d8585614d73565b805f526005825261129660ff6001855f200154166146df565b805f52600582526112a8835f2061428d565b938451838601206112b7614737565b8481519101208114611650576112cd8888614e05565b6115c1578789036113db575b6112e1614758565b84815191012014611346575b509083929161130b5f80516020615569833981519152958888614ef4565b5f52600581526001825f200160ff198154169055600b81525f8281205561133b825193838594855284019061432f565b9042908301520390a4005b855f52600783526001845f20541160068452845f2054151581156113d3575b506112ed57835162461bcd60e51b8152908101839052603960248201527f43616e6e6f74207265766f6b65206c6173742061646d696e6973747261746f7260448201527f20776974686f757420616e206f776e65722070726573656e74000000000000006064820152608490fd5b905089611365565b6113ed6113e6614737565b8a89614da7565b6113ff6113f8614758565b8b8a614da7565b845f52600b86528a875f205414906114156147a3565b878151910120841480156115ab575b156114d05782156114c8575b5081156114c0575b5015611444575b6112d9565b845162461bcd60e51b8152808301859052604a60248201527f4f6e6c79206f776e6572732c2061646d696e6973747261746f72732c206f722060448201527f746865206772616e7465722063616e207265766f6b65207669657765722f73686064820152696172657220726f6c657360b01b608482015260a490fd5b90508a611438565b91508b611430565b8215929150826115a3575b501561155b57156112d9576114ee614758565b848151910120810361143f57865f5260068452845f20541561143f57845162461bcd60e51b8152808301859052602560248201527f4f6e6c79206f776e6572732063616e207265766f6b652061646d696e6973747260448201526461746f727360d81b6064820152608490fd5b855162461bcd60e51b8152808401869052602f60248201525f8051602061558983398151915260448201526e616e207265766f6b6520726f6c657360881b6064820152608490fd5b90508b6114db565b506115b4614781565b8781519101208414611424565b845162461bcd60e51b8152808301859052605760248201527f43616e6e6f74207265766f6b6520616e20616374697665207375626a6563742760448201527f7320726f6c652e20416374697665207375626a65637473206d75737420686f6c60648201527f64206174206c656173742073686172657220726f6c652e000000000000000000608482015260a490fd5b845162461bcd60e51b8152808301859052604560248201527f4f776e6572732063616e6e6f74206265207265766f6b65642e204f776e65722060448201527f6d7573742075736520766f6c756e746172696c794c656176654f776e6572736860648201526434b814149760d91b608482015260a490fd5b9050346102fa57602090816003193601126102fa578290355f5260038252805f208151928381835491828152019081935f52825f20905f5b8181106117595750505084611715910385614018565b825181815293518185018190528493840192915f5b82811061173957505050500390f35b83516001600160a01b03168552869550938101939281019260010161172a565b82546001600160a01b0316845292840192600192830192016116ff565b82346102fa5760203660031901126102fa57602091355f52600b8252805f20549051908152f35b82346102fa5760203660031901126102fa576020906117c26117bd613fa2565b615261565b90519015158152f35b82346102fa576117da3661438d565b90926117e861032133614c18565b335f52600193602091858352845f2054908282148015611a51575b15611a1057825f52600c8452855f20855f52845260ff9060ff875f20541661182a816143eb565b88600282149182156119fc575b5050156119af5750825f52600c8452855f20855f528452855f2090600360ff19926003848254161790558387867f6df3a6475fab2eed139f7e469995b04e85bfc5b4b8642587109cb72541f74fae898c51428152a4845f52600d8652875f20875f528652875f20895f905b6118c2575b6103c98a8a8a8a5f52600d8152825f20915f52525f20614add565b81548110156119aa57908a82878b8d8c6118e1869c9b9a9998886143c2565b905490891b1c918d5f52600e8252805f20845f528252805f20835f528252805f208b81541690556119128484614d73565b5f526005908183528a88825f200154161561199f575f80516020615569833981519152926119408686614d73565b92835f52808252611952835f2061428d565b9361195e858989614ef4565b5f52815288825f20018d8154169055600b81525f82812055611989825193838594855284019061432f565b9042908301520390a45b019091929394956118a2565b505050505050611993565b6118a7565b865162461bcd60e51b8152908101859052602160248201527f4e6f20616374697665206f722070656e64696e672072656c6174696f6e7368696044820152600760fc1b6064820152608490fd5b909150611a08816143eb565b14888a611837565b606490848088519262461bcd60e51b845283015260248201527f4e6f74206120706172747920746f20746869732072656c6174696f6e736869706044820152fd5b50848214611803565b82346102fa57806003193601126102fa576117c2602092611a79613fb8565b9035614aa0565b82346102fa5760203660031901126102fa577fce59ad7d6dabe8a7533ed7d9bd07d276a046ac7ac9a8e8e8971da4b81104a28b6020611abd613fa2565b5f546001600160a01b039190611ad69083163314614588565b1692611ae3841515614a62565b600a80546001600160a01b0319168517905551428152a2005b82346102fa57611b3e90611b0f3661438d565b905f52600d602052815f20905f52602052611b2b815f206144e9565b90519182916020835260208301906141e0565b0390f35b82346102fa5760203660031901126102fa57611b3e91355f526006602052611b2b815f206144e9565b82346102fa575f3660031901126102fa57602091549051908152f35b9050346102fa5760203660031901126102fa57611ba2613fa2565b5f546001600160a01b039190611bbb9083163314614588565b16805f5260019182602052611bd4845f205415156145c1565b815f528260205260ff83855f20015416611c0357509181925f52816020525f20019060ff198254161790555f80f35b606490602085519162461bcd60e51b8352820152601560248201527457616c6c657420616c72656164792061637469766560581b6044820152fd5b82346102fa57602090816003193601126102fa57823591611c6161032133614c18565b335f5260018152815f205493835f52600c8252825f20855f528252825f2090815490600160ff8316611c92816143eb565b03611ce1575091611cd960ff9260027fc5b2e1bd4433eb4e9e181cc803520513d39d918c96bddeebca1224e1c750963d969585191617809155845193849160081c16614409565b4290820152a3005b845162461bcd60e51b81529081018490526013602482015272139bc81c195b991a5b99c81c1c9bdc1bdcd85b606a1b6044820152606490fd5b82346102fa575f3660031901126102fa578051611b3e91611d3a82613fce565b60058252640352e302e360dc1b60208301525191829160208352602083019061432f565b9050346102fa57611d6e366143a3565b91611d7b61032133614c18565b335f526001602052835f205490815f52600c602052845f20835f52602052845f2060ff8154611db76002838316611db1816143eb565b146149b2565b60081c16916003861015610a4a576003831015610a4a57858314611e2057507fb36ec3c738ef8ecd9180addc815304762374b76e91c2a321831d9906ea119ade611e1885936103c998611e0b8988966149fe565b5191829189429184614a1d565b0390a3614f9f565b606490602088519162461bcd60e51b8352820152601860248201527f416c72656164792074686973207472757374206c6576656c00000000000000006044820152fd5b82346102fa57602090611e7e611e783661438d565b90614d73565b5f52600b8252805f20549051908152f35b9050346102fa57611e9f3661438d565b905f52600c602052825f20905f52602052815f2090825191611ec083613fce565b549160ff8316611ecf816143eb565b8152611ee560ff602083019460081c1684614a56565b5191611ef0836143eb565b51906003821015610a4a5750611f1890835192611f0c816143eb565b83526020830190614409565bf35b82346102fa57806003193601126102fa5781359060243560058110156102fa57611f4e60018060a01b035f54163314614588565b825f5260206002815260ff835f205416611f67816143eb565b1561202657835f526002815260ff835f20541694611f84836143eb565b611f8d866143eb565b828614611fef5750835f5260028152611fa882845f20614978565b825194611fb4816143eb565b8552611fbf826143eb565b84015242908301527ff6277c6ee46649823db9a5c531db3112b4340c67179cae1932ba3420dcc37cc760603393a3005b60649184519162461bcd60e51b83528201526013602482015272416c726561647920746869732073746174757360681b6044820152fd5b8460649184519162461bcd60e51b83528201526013602482015272155cd95c881b9bdd081c9959da5cdd195c9959606a1b6044820152fd5b82346102fa5761206d3661438d565b91905f526003602052805f2080548310156102fa5760209261208e916143c2565b60018060a01b0391549060031b1c169051908152f35b82346102fa576120b33661438d565b91905f526009602052805f2080548310156102fa57602092610526916143c2565b82346102fa576020806003193601126102fa57608092355f5260068152815f20549160078252805f20549060088352805f20549160098452815f20549382519586528501528301526060820152f35b82346102fa5760203660031901126102fa576001600160a01b03612145613fa2565b165f526001602052805f2060ff6001825492015416825191825215156020820152f35b82346102fa576121773661438d565b91905f526007602052805f2080548310156102fa57602092610526916143c2565b9050346102fa575f3660031901126102fa577ff0c57e16840df040f15088dc2f81fe391c3923bec73e23a9662efc9c229c6a0090815460ff81851c1615916001600160401b038216801590816122ad575b60011490816122a3575b15908161229a575b5061228c575067ffffffffffffffff19811660011783558161226d575b505f80546001600160a01b0319163317905561223057005b805468ff00000000000000001916905551600181527fc7f505b2f371ae2175ee4913f4499e1f2633a7b5936321eed1cdaeb6115181d290602090a1005b68ffffffffffffffffff1916680100000000000000011782555f612218565b845163f92ee8a960e01b8152fd5b9050155f6121fb565b303b1591506121f3565b8491506121e9565b82346102fa576122c43661438d565b905f52600c602052815f20905f52602052805f2054611f1860ff8216918351926122ed816143eb565b835260ff602084019160081c16614409565b82346102fa57602091826003193601126102fa5761237b92611b3e91355f5260068152612395835f209360078352805f209460088452612388825f20946009815261236761236161235b612355875f20966144e9565b9a6144e9565b976144e9565b936144e9565b958451998a9960808b5260808b01906141e0565b91898303908a01526141e0565b91868303908701526141e0565b9083820360608501526141e0565b82346102fa5760203660031901126102fa576020906123c0613fa2565b5f5491906001600160a01b03808416917f38df5fa0f7fef0d515ca1f5388cb5790ac5885d5fca8d05d9f943e563c33a4b391906123fe338514614588565b1694859361240d851515614a62565b51428152a36001600160a01b031916175f55005b9050346102fa5761243136614213565b93909260018060a01b03612449815f54163314614588565b612454841515614605565b8416612461811515614869565b61246d610b7c87614cfb565b5f52600160209181835261248f845f20549661248a8815156145c1565b614c18565b156126fe57845f5260068352835f205415806126ef575b156126ac576124b58686614d73565b91825f5260058452845f209160ff826124cd8561428d565b94015416918651916124de83613fce565b8a835286830190828252865f5260058852885f2093518051916001600160401b03831161269957506125108554614255565b601f8111612653575b508890601f83116001146125ec5761256095949392915f91836125e1575b50505f19600383901b1c191690831b1783555b51151591019060ff801983541691151516179055565b6125b45750915f95917ff9d17eb1340ab78960b594ff8bed1349985b800ee21199c6d5ea4a67454593ad938752600b815286828120556125a183878761542c565b61133b825193838594855284019061432f565b95949392505084518186012090845190850120036125ce57005b6125dc6103c9948383614ef4565b61542c565b015190505f80612537565b90601f19831691865f528a5f20925f5b8c82821061263f575050918695949291836125609998959310612627575b505050811b01835561254a565b01515f1960f88460031b161c191690555f808061261a565b8385015186559488019493840193016125fc565b855f52895f20601f840160051c8101918b851061268f575b601f0160051c019085905b828110612684575050612519565b5f8155018590612676565b909150819061266b565b604190634e487b7160e01b5f525260245ffd5b835162461bcd60e51b8152908101839052601a60248201527f5265636f726420616c726561647920696e697469616c697a65640000000000006044820152606490fd5b5060078352835f2054156124a6565b835162461bcd60e51b8152908101839052601860248201527f4d75737420626520616e20616374697665206d656d62657200000000000000006044820152606490fd5b82346102fa57806003193601126102fa576001600160401b039082358281116102fa57366023820112156102fa57808401359283116102fa5760246005913660248660051b830101116102fa575f546001600160a01b039660243595916127ab9089163314614588565b86156128fc576127bc8615156148ae565b855f526002936020936002855260ff845f2054166127d9816143eb565b15965f5b8a81106127e657005b8381831b84010135908c8216918281036102fa578261286d8d9261280d6001961515614869565b825f5261285e8b8d8890818152612827835f2054156148f1565b82519261283384613fce565b8884528282850192818452895f52525f209251835551151591019060ff801983541691151516179055565b835f5260038c528a5f2061493d565b8215806128f5575b156128c857815f528a8a52885f208b60ff198254161790556128978854614990565b88557f39d132591ee0696de49ab564e4a90e430c006561917db731a2a614dd2d2455918a8a51428152a35b016127dd565b7f1cc138f50384be7770a8e4a34eecaa0d0c718bfaa1641af49db32532e4a5b9108a8a51428152a36128c2565b508b612875565b6020606492519162461bcd60e51b83528201526013602482015272139bc81dd85b1b195d1cc81c1c9bdd9a591959606a1b6044820152fd5b82346102fa576020906117c26129493661438d565b90614e05565b82346102fa5761295e3661438d565b91905f526006602052805f2080548310156102fa57602092610526916143c2565b82346102fa5761298e3661438d565b905f52600c602052815f20905f52602052805f209060028151926129b184613fce565b549260ff84166129c0816143eb565b81526129d660ff602083019560081c1685614a56565b516129e0816143eb565b6129e9816143eb565b1491826129fd575b60208383519015158152f35b90915051916003831015610a4a575060026020921490836129f1565b82346102fa575f3660031901126102fa577f00000000000000000000000000000000000000000000000000000000000000006001600160a01b03163003612a8357602090517f360894a13ba1a3210667c828492db98dca3e2076cc3735a920a3ca505d382bbc8152f35b5163703e46dd60e11b8152fd5b82346102fa57612a9f36614113565b90612aac61032133614c18565b612ab98351835114614459565b335f52600193602091858352815f20549060018060a01b03165f52815f205490612ae482151561449d565b865f96838314915b612af257005b80518810156103c9578888612b08829a84614a42565b51612b13828b614a42565b51612b1d81614cfb565b15612e0f57612b2c8783614d73565b5f526005808b5260ff80868c5f2001541615612e0657612b4c8a85614d73565b5f52818c52858b5f2001541615612dfe57612b678984614d73565b5f528a52612b76895f2061428d565b9088888c8451818601208d85518387012090818314612c8257612b97614737565b8481519101208314612c8257885f52600684525f205415918215612bc3612bbc614737565b878c614da7565b90612bd6612bcf614758565b888d614da7565b90612be48c8961076e614781565b612bec614737565b8051908901208603612ca4575015612c90575015612c82575b612c0d614758565b848151910120149283612c68575b505081612c60575b5080612c48575b612c3e57612c3794614e8f565b0197612aec565b5050505050612c37565b505050825f5260078b528888868c5f20541115612c2a565b90505f612c23565b90919250612c746147a3565b805191012014905f8f612c1b565b505050505050505050612c37565b9050612c0557505050505050505050612c37565b919290612caf614758565b8051908901208603612cda57509050159081612cd1575b50612c82575b612c05565b9050155f612cc6565b612ce2614781565b8051908901208603612d6d5715612d3957159182612d21575b5081612d0b5750612c8257612c05565b905080612d1a575b155f612cc6565b508c612d13565b90915080612d32575b15905f612cfb565b508d612d2a565b5090159081612d57575b5015612ccc57505050505050505050612c37565b905080612d66575b155f612d43565b508c612d5f565b612d756147a3565b8881519101208614612d8b575b50505050612c05565b15612dea57159182612dd2575b5081612dbc575b50612c82575b612daf868a614e05565b612c82575f808080612d82565b905080612dcb575b155f612d9f565b508c612dc4565b90915080612de3575b15905f612d98565b508d612ddb565b5050612da557505050505050505050612c37565b505050612c37565b50505050612c37565b5050612c37565b9050816003193601126102fa57612e2b613fa2565b916024356001600160401b0381116102fa57366023820112156102fa57612e5b90369060248186013591016140b0565b906001600160a01b037f00000000000000000000000000000000000000000000000000000000000000008116308114908115612fe5575b50612fd557612ea5815f54163314614588565b8416918151946352d1902d60e01b86526020868681875afa5f9681612fa1575b50612ee157505051634c9c8ce360e01b81529182015260249150fd5b838593877f360894a13ba1a3210667c828492db98dca3e2076cc3735a920a3ca505d382bbc90818103612f8b5750833b15612f745780546001600160a01b0319168317905551907fbc7cd75a20ee27fd9adebab32041f755214dbc6bffa90cc0225b39da2e5c2d3b5f80a2825115612f5e57506103c992506154d7565b91505034612f6857005b63b398979f60e01b8152fd5b8151634c9c8ce360e01b8152808701849052602490fd5b86602491845191632a87526960e21b8352820152fd5b9096506020813d602011612fcd575b81612fbd60209383614018565b810103126102fa5751955f612ec5565b3d9150612fb0565b815163703e46dd60e11b81528490fd5b9050817f360894a13ba1a3210667c828492db98dca3e2076cc3735a920a3ca505d382bbc541614155f612e92565b9050346102fa57613023366143a3565b919061303161032133614c18565b335f526001602052835f205491815f52600c602052845f20835f52602052845f208054613066600260ff8316611db1816143eb565b600386101561310f5760081c60ff16916003831015610a4a578260ff871610156130c057507fb36ec3c738ef8ecd9180addc815304762374b76e91c2a321831d9906ea119ade611e1885936103c998611e0b8988966149fe565b608490602088519162461bcd60e51b8352820152602360248201527f43616e206f6e6c7920646f776e677261646520746f2061206c6f776572206c656044820152621d995b60ea1b6064820152fd5b602183634e487b7160e01b5f525260245ffd5b82346102fa57806003193601126102fa5761313b613fa2565b916024359260018060a01b03613155815f54163314614588565b811692613163841515614869565b61316e8515156148ae565b835f526131d360209260018452613188835f2054156148f1565b6131c4835161319681613fce565b8881526001868201818152895f52818852865f209251835551151591019060ff801983541691151516179055565b865f5260038452825f2061493d565b845f526002825260ff815f2054166131ea816143eb565b613238577f39d132591ee0696de49ab564e4a90e430c006561917db731a2a614dd2d24559192855f5260028352815f20600260ff1982541617905561322f8154614990565b905551428152a3005b7f1cc138f50384be7770a8e4a34eecaa0d0c718bfaa1641af49db32532e4a5b910925051428152a3005b82346102fa5760203660031901126102fa576020906117c261248a613fa2565b82346102fa57602090613297611e783661438d565b5f5260058252611b3e815f209180516132af81613fce565b60ff60016132bc8661428d565b9586845201541615159485910152519283928361436d565b82346102fa57806003193601126102fa576132fb611b3e926132f4613fb8565b90356147f1565b929091519283928361436d565b82346102fa5760203660031901126102fa57611b3e91355f526007602052611b2b815f206144e9565b82346102fa576020906117c261334636614213565b916147c5565b9050346102fa5760203660031901126102fa57355f526005602052805f20611b3e60ff600161337a8461428d565b9301541692519283928361436d565b82346102fa576020806003193601126102fa578235916133ab61032133614c18565b6133b6831515614605565b335f5260018252805f2054936133d46133cd614737565b8686614da7565b156134c557835f52600683526001825f20541160078452825f2054151581156134bd575b50156134625750907f68f37cc4a32f0b24153ce9237b344b20a9717039f90d7c24f35e5c217f03e1689161342c8585614d73565b61343e613437614737565b8787614ef4565b5f52600582526001815f200160ff198154169055600b82525f8181205551428152a3005b82608492519162461bcd60e51b8352820152603160248201527f43616e6e6f74206c65617665206173206c617374206f776e65722077697468206044820152706e6f2061646d696e6973747261746f727360781b6064820152fd5b9050866133f8565b82608492519162461bcd60e51b8352820152602360248201527f596f7520617265206e6f7420616e206f776e6572206f662074686973207265636044820152621bdc9960ea1b6064820152fd5b82346102fa5760203660031901126102fa57611b3e91355f526008602052611b2b815f206144e9565b9050346102fa5761354b36614213565b91929061355a61032133614c18565b613565841515614605565b6001600160a01b0316613579811515614651565b613585610b7c84614cfb565b335f5260209360018552855f2054915f52855f2054926135a684151561449d565b845186860120956135b78584614d73565b805f52600582526135d060ff60018b5f200154166146df565b5f52600581526135e1885f2061428d565b9687518289012090808214613bfd576135f8614737565b8381519101208214613b8857845f5260068352895f20541591821561362561361e614737565b8989614da7565b90613638613631614758565b8a8a614da7565b9061364b613644614781565b8b8b614da7565b8b8b14613656614737565b8051908a012087036137d357505015613776575015613735575b613678614758565b84815191012014908161371e575b50613699575b5050506103c99550614e8f565b6136a4575b8061368c565b825f52600781526001885f20541161369e57875162461bcd60e51b815291820152603960248201527f43616e6e6f742064656d6f746520746865206c6173742061646d696e6973747260448201527f61746f72207768656e206e6f206f776e65722065786973747300000000000000606482015260849150fd5b90506137286147a3565b838151910120145f613686565b60648585808e519262461bcd60e51b845283015260248201527f4f6e6c79206f776e6572732063616e2070726f6d6f746520746f206f776e65726044820152fd5b9050613670578a5162461bcd60e51b8152808601859052602b60248201527f4f6e6c792061646d696e6973747261746f72732063616e2070726f6d6f74652060448201526a3334b939ba1037bbb732b960a91b6064820152608490fd5b90916137dd614758565b8051908a0120870361385d575050508115613855575b50156137ff575b613670565b8a5162461bcd60e51b8152808601859052603b60248201525f8051602061558983398151915260448201527f616e2070726f6d6f746520746f2061646d696e6973747261746f7200000000006064820152608490fd5b90505f6137f3565b61386993919293614781565b8051908a012087036139ca571561394e578315613937575b50821561391e575b5050613670578a5162461bcd60e51b8152808601859052605760248201527f4f6e6c79206f776e6572732063616e206368616e6765206f746865727320746f60448201527f207368617265722e2041646d696e7320616e6420736861726572732063616e2060648201527f6f6e6c792064656d6f7465207468656d73656c7665732e000000000000000000608482015260a490fd5b9091508161392f575b505f80613889565b90505f613927565b90925080613947575b915f613881565b5081613940565b925082156139b1575b50506137fa578a5162461bcd60e51b8152808601859052602860248201527f4f6e6c792061646d696e6973747261746f72732063616e2064656d6f74652074604482015267379039b430b932b960c11b6064820152608490fd5b909150816139c2575b505f80613957565b90505f6139ba565b6139d26147a3565b89815191012087146139e9575b5050505050613670565b15613b2c578315613b15575b508215613afc575b505015613a75575b613a0f8887614e05565b613a1d575f808080806139df565b8a5162461bcd60e51b8152808601859052602c60248201527f43616e6e6f742064656d6f746520616e20616374697665207375626a6563742060448201526b3132b637bb9039b430b932b960a11b6064820152608490fd5b8a5162461bcd60e51b8152808601859052605560248201527f4f6e6c79206f776e6572732063616e2064656d6f7465206f74686572732e204160448201527f646d696e6973747261746f727320616e6420736861726572732063616e206f6e606482015274363c903232b6b7ba32903a3432b6b9b2b63b32b99760591b608482015260a490fd5b90915081613b0d575b505f806139fd565b90505f613b05565b90925080613b25575b915f6139f5565b5081613b1e565b92505050613a05578a5162461bcd60e51b8152808601859052602860248201527f4f6e6c792061646d696e6973747261746f72732063616e2064656d6f7465207460448201526737903b34b2bbb2b960c11b6064820152608490fd5b895162461bcd60e51b8152808501849052604360248201527f4f776e6572732063616e6e6f742062652064656d6f7465642e204f776e65722060448201527f6d75737420766f6c756e746172696c792072656d6f7665207468656d73656c7660648201526232b99760e91b608482015260a490fd5b895162461bcd60e51b8152808501849052601c60248201527f54617267657420616c726561647920686173207468697320726f6c65000000006044820152606490fd5b82346102fa5760203660031901126102fa576020906117c2613c60613fa2565b614ca9565b82346102fa5760203660031901126102fa57613c7f613fa2565b5f546001600160a01b039190613c989083163314614588565b16805f526001602052613caf825f205415156145c1565b805f52600160205260ff6001835f2001541615613cdf57600192505f52816020525f200160ff1981541690555f80f35b815162461bcd60e51b8152602081850152601760248201527f57616c6c657420616c726561647920696e6163746976650000000000000000006044820152606490fd5b82346102fa57806003193601126102fa576117c2602092613d41613fb8565b9035614537565b82346102fa5760203660031901126102fa57611b3e91355f526009602052611b2b815f206144e9565b82346102fa57613d8036614113565b9290613d8e61032133614c18565b613d9b8351855114614459565b335f52600193849360209060018252845f20549360018060a01b03165f52845f205491613dc983151561449d565b5f965b613dd257005b81518710156103c9578787613df1613deb839a88614a42565b51614cfb565b15613ebd57613e04876106078387614a42565b15613ebd57613e17856106078387614a42565b613ebd57613e258187614a42565b51838151910120613e43613e398387614a42565b518961076e614737565b613e5a613e508488614a42565b518a61076e614758565b91613e63614737565b8051908701208103613eca575090613e7b8387614a42565b515f908152600686528a90205415613ec25750155b613ebd575b613eb687613ea38387614a42565b5187613eaf858b614a42565b519161507e565b0196613dcc565b613eb6565b905015613e90565b613ed2614758565b8051908701208103613efb5750159081613ef2575b50613ebd575b613e95565b9050158b613ee7565b613f03614781565b80519087012003613f2a57159081613f21575b5015613e9557613eb6565b9050158b613f16565b613f41613f378488614a42565b518a61076e614781565b90159182613f65575b5081613f5c575b5015613eed57613eb6565b9050158b613f51565b1591508c613f4a565b8390346102fa5760203660031901126102fa576020916001600160a01b03613f94613fa2565b165f52600183525f20548152f35b600435906001600160a01b03821682036102fa57565b602435906001600160a01b03821682036102fa57565b604081019081106001600160401b03821117613fe957604052565b634e487b7160e01b5f52604160045260245ffd5b602081019081106001600160401b03821117613fe957604052565b90601f801991011681019081106001600160401b03821117613fe957604052565b6001600160401b038111613fe95760051b60200190565b9080601f830112156102fa57602090823561406a81614039565b936140786040519586614018565b81855260208086019260051b8201019283116102fa57602001905b8282106140a1575050505090565b81358152908301908301614093565b9291926001600160401b038211613fe957604051916140d9601f8201601f191660200184614018565b8294818452818301116102fa578281602093845f960137010152565b9080601f830112156102fa57816020614110933591016140b0565b90565b60606003198201126102fa576001600160401b03916004358381116102fa578261413f91600401614050565b9260249283356001600160a01b03811681036102fa5793604435928084116102fa57826023850112156102fa57836004013561417a81614039565b946141886040519687614018565b8186526020946024602088019360051b830101948186116102fa5760248301935b8685106141bb57505050505050505090565b84358681116102fa5788916141d5858585948901016140f5565b8152019401936141a9565b9081518082526020808093019301915f5b8281106141ff575050505090565b8351855293810193928101926001016141f1565b60606003198201126102fa57600435916024356001600160a01b03811681036102fa5791604435906001600160401b0382116102fa57614110916004016140f5565b90600182811c92168015614283575b602083101461426f57565b634e487b7160e01b5f52602260045260245ffd5b91607f1691614264565b9060405191825f825461429f81614255565b908184526020946001916001811690815f1461430d57506001146142cf575b5050506142cd92500383614018565b565b5f90815285812095935091905b8183106142f55750506142cd93508201015f80806142be565b855488840185015294850194879450918301916142dc565b925050506142cd94925060ff191682840152151560051b8201015f80806142be565b91908251928382525f5b848110614359575050825f602080949584010152601f8019910116010190565b602081830181015184830182015201614339565b9061438560209194939460408452604084019061432f565b931515910152565b60409060031901126102fa576004359060243590565b60409060031901126102fa576004359060243560038110156102fa5790565b80548210156143d7575f5260205f2001905f90565b634e487b7160e01b5f52603260045260245ffd5b600511156143f557565b634e487b7160e01b5f52602160045260245ffd5b9060038210156143f55752565b1561441d57565b60405162461bcd60e51b81526020600482015260146024820152732737ba1030b71030b1ba34bb329036b2b6b132b960611b6044820152606490fd5b1561446057565b60405162461bcd60e51b8152602060048201526015602482015274082e4e4c2f240d8cadccee8d040dad2e6dac2e8c6d605b1b6044820152606490fd5b156144a457565b60405162461bcd60e51b815260206004820152601c60248201527f5461726765742077616c6c6574206e6f742072656769737465726564000000006044820152606490fd5b90604051918281549182825260209260208301915f5260205f20935f905b82821061451d575050506142cd92500383614018565b855484526001958601958895509381019390910190614507565b6001600160a01b039091165f9081526001602052604090205490811561458257614569614562614737565b8383614da7565b91821561457557505090565b614110925061076e614758565b50505f90565b1561458f57565b60405162461bcd60e51b815260206004820152600a60248201526927b7363c9030b236b4b760b11b6044820152606490fd5b156145c857565b60405162461bcd60e51b815260206004820152601560248201527415d85b1b195d081b9bdd081c9959da5cdd195c9959605a1b6044820152606490fd5b1561460c57565b60405162461bcd60e51b815260206004820152601e60248201527f5265636f726420494420686173682063616e6e6f7420626520656d70747900006044820152606490fd5b1561465857565b60405162461bcd60e51b815260206004820152601d60248201527f57616c6c657420616464726573732063616e6e6f74206265207a65726f0000006044820152606490fd5b156146a457565b60405162461bcd60e51b8152602060048201526013602482015272496e76616c696420726f6c6520737472696e6760681b6044820152606490fd5b156146e657565b60405162461bcd60e51b815260206004820152602360248201527f54617267657420646f6573206e6f74206861766520616e2061637469766520726044820152626f6c6560e81b6064820152608490fd5b6040519061474482613fce565b600582526437bbb732b960d91b6020830152565b6040519061476582613fce565b600d82526c30b236b4b734b9ba3930ba37b960991b6020830152565b6040519061478e82613fce565b600682526539b430b932b960d11b6020830152565b604051906147b082613fce565b60068252653b34b2bbb2b960d11b6020830152565b919060018060a01b03165f52600160205260405f205480156147ea5761411092614da7565b5050505f90565b6001600160a01b039091165f90815260016020526040902054908115614853576020929161481e91614d73565b5f526005825260405f2060405161483481613fce565b60ff60016148418461428d565b93848452015416151593849101529190565b505060405161486181613ffd565b5f8152905f90565b1561487057565b60405162461bcd60e51b8152602060048201526016602482015275496e76616c69642077616c6c6574206164647265737360501b6044820152606490fd5b156148b557565b60405162461bcd60e51b8152602060048201526014602482015273092dcecc2d8d2c840eae6cae440928840d0c2e6d60631b6044820152606490fd5b156148f857565b60405162461bcd60e51b815260206004820152601960248201527f57616c6c657420616c72656164792072656769737465726564000000000000006044820152606490fd5b8054600160401b811015613fe95761495a916001820181556143c2565b60018060a09493941b038084549260031b9316831b921b1916179055565b90614982816143eb565b60ff80198354169116179055565b5f19811461499e5760010190565b634e487b7160e01b5f52601160045260245ffd5b156149b957565b60405162461bcd60e51b815260206004820152601e60248201527f4e6f2061637469766520747275737465652072656c6174696f6e7368697000006044820152606490fd5b9060038110156143f55761ff0082549160081b169061ff001916179055565b614a3e604092959493614a34836060810198614409565b6020830190614409565b0152565b80518210156143d75760209160051b010190565b60038210156143f55752565b15614a6957565b60405162461bcd60e51b815260206004820152600f60248201526e496e76616c6964206164647265737360881b6044820152606490fd5b6001600160a01b039091165f90815260016020526040902054801561458257614ac891614d73565b5f52600560205260ff600160405f2001541690565b8054905f815581614aec575050565b5f5260205f20908101905b818110614b02575050565b5f8155600101614af7565b15614b1457565b60405162461bcd60e51b815260206004820152600f60248201526e496e76616c6964207472757374656560881b6044820152606490fd5b15614b5257565b60405162461bcd60e51b815260206004820152601760248201527f43616e6e6f74206170706f696e7420796f757273656c660000000000000000006044820152606490fd5b15614b9e57565b60405162461bcd60e51b8152602060048201526016602482015275151c9d5cdd1959481b9bdd081c9959da5cdd195c995960521b6044820152606490fd5b805490600160401b821015613fe95781614bfe916001614c14940181556143c2565b819391549060031b91821b915f19901b19161790565b9055565b6001600160a01b03165f9081526001602052604090208054908115908115614c99575b50614c94575f52600260205260ff60405f205416614c58816143eb565b60028114908115614c7f575b8115614c6e575090565b60049150614c7b816143eb565b1490565b9050614c8a816143eb565b6003811490614c64565b505f90565b60ff91506001015416155f614c3b565b6001600160a01b03165f9081526001602052604090208054908115908115614ceb575b50614c94575f526002602052600460ff60405f205416614c7b816143eb565b60ff91506001015416155f614ccc565b60208151910120614d0a614737565b602081519101208114908115614d5a575b8115614d41575b8115614d2c575090565b9050614d366147a3565b602081519101201490565b9050614d4b614781565b60208151910120811490614d22565b9050614d64614758565b60208151910120811490614d1b565b906040519060208201928352604082015260408152606081018181106001600160401b03821117613fe95760405251902090565b60209291614db491614d73565b5f526005825260405f20604051614dca81613fce565b60ff6001614dd78461428d565b938484520154161515938491015282614def57505090565b9091506020815191012090602081519101201490565b600a546001600160a01b03169182156147ea576044602092604051948593849263193d8e7560e21b8452600484015260248301525afa908115614e84575f91614e4c575090565b90506020813d602011614e7c575b81614e6760209383614018565b810103126102fa575180151581036102fa5790565b3d9150614e5a565b6040513d5f823e3d90fd5b91927f3af67cf2057ba8ef414286fb626cd3efb02f74996e18efd455b39d8ec7ec460f9194614ee9614edb92614ec78882898961507e565b60405193849360608552606085019061432f565b90838203602085015261432f565b4260408301520390a4565b8251602080940120614f04614737565b8051908501208103614f2457506142cd926006915f525260405f20615395565b614f2c614758565b8051908501208103614f4c57506142cd926007915f525260405f20615395565b614f54614781565b8051908501208103614f7457506142cd926008915f525260405f20615395565b614f7c6147a3565b84815191012014614f8c57505050565b6142cd926009915f525260405f20615395565b929190835f52602090600d825260409060405f20815f52835260405f20955f5b875481101561506a5780614fd56001928a6143c2565b90549060031b1c614fe68582614d73565b5f52600580885260ff84885f2001541615615063576150068986846152b3565b9061501082614cfb565b1561505b5761501f8784614d73565b5f52885261502e875f2061428d565b90868683518b85012083518c850120146150515761504b94614e8f565b01614fbf565b505050505061504b565b50505061504b565b505061504b565b5050505050509050565b90614ac891614d73565b92919261508b8282614d73565b93845f52602060058152604090815f20966150a58861428d565b9760ff60018092015416908451906150bc82613fce565b868252848201818152845f5260058652865f2092518051906001600160401b038211613fe9576150ec8554614255565b601f811161521b575b508790601f83116001146151cd5761513a95949392915f91836125e15750505f19600383901b1c191690831b17835551151591019060ff801983541691151516179055565b615198577ff9d17eb1340ab78960b594ff8bed1349985b800ee21199c6d5ea4a67454593ad94959697505f52600b815286825f205561517a83878761542c565b61518d825193838594855284019061432f565b9042908301520390a4565b509194505084518186012090845190850120036151b6575b50505050565b6125dc6151c4948383614ef4565b5f8080806151b0565b90601f19831691865f52895f20925f5b8b8282106152075750509186959492918361513a999895931061262757505050811b01835561254a565b8385015186559488019493840193016151dd565b855f52885f20601f840160051c8101918a8510615257575b601f0160051c019085905b82811061524c5750506150f5565b5f815501859061523e565b9091508190615233565b6001600160a01b03165f90815260016020526040902080549081159081156152a3575b50614c94575f526002602052600360ff60405f205416614c7b816143eb565b60ff91506001015416155f615284565b9060038310156143f557821561538a576152cc91614d73565b5f526020906005825260405f2060ff6001604051926152ea84613fce565b6152f38161428d565b8452015416158015848301526153745751915b82518184012091615315614781565b8281519101208314801561535e575b6153525760011461533457505090565b61533c614737565b8051910120146153495790565b50614110614758565b505050506141106147a3565b506153676147a3565b8281519101208314615324565b5060405161538181613ffd565b5f815291615306565b5050506141106147a3565b5f5b815490818110156151b05783916153ae82856143c2565b959054600396871b1c146153c85750909250600101615397565b5f19925082810190811161499e57614bfe6153e66153f392866143c2565b905490871b1c92856143c2565b9055815480156154185781019261540a84846143c2565b81939154921b1b1916905555565b634e487b7160e01b5f52603160045260245ffd5b825160208094012061543c614737565b805190850120810361545c57506142cd926006915f525260405f20614bdc565b615464614758565b805190850120810361548457506142cd926007915f525260405f20614bdc565b61548c614781565b80519085012081036154ac57506142cd926008915f525260405f20614bdc565b6154b46147a3565b848151910120146154c457505050565b6142cd926009915f525260405f20614bdc565b905f8091602081519101845af48080615555575b1561550b5750506040513d81523d5f602083013e60203d82010160405290565b1561553257604051639996b31560e01b81526001600160a01b039091166004820152602490fd5b3d15615543576040513d5f823e3d90fd5b60405163d6bda27560e01b8152600490fd5b503d1515806154eb5750813b15156154eb56fed05ed2d3feff840c2ececa71791388fd3d19dbbbbcfa97031f534a7dc09fbf1f4f6e6c79206f776e65727320616e642061646d696e6973747261746f72732063a264697066735822122010f83db1c2aba04a075c60ec6d9997a211c317e5928e1ca76f3c4b7b5797619264736f6c63430008180033","opcodes":"PUSH1 0xA0 DUP1 PUSH1 0x40 MSTORE CALLVALUE PUSH3 0xD1 JUMPI ADDRESS PUSH1 0x80 MSTORE PUSH32 0xF0C57E16840DF040F15088DC2F81FE391C3923BEC73E23A9662EFC9C229C6A00 SWAP1 DUP2 SLOAD SWAP1 PUSH1 0xFF DUP3 PUSH1 0x40 SHR AND PUSH3 0xC2 JUMPI POP PUSH1 0x1 PUSH1 0x1 PUSH1 0x40 SHL SUB PUSH1 0x2 PUSH1 0x1 PUSH1 0x40 SHL SUB NOT DUP3 DUP3 AND ADD PUSH3 0x7C JUMPI JUMPDEST PUSH1 0x40 MLOAD PUSH2 0x55DE SWAP1 DUP2 PUSH3 0xD6 DUP3 CODECOPY PUSH1 0x80 MLOAD DUP2 DUP2 DUP2 PUSH2 0x2A2C ADD MSTORE PUSH2 0x2E66 ADD MSTORE RETURN JUMPDEST PUSH1 0x1 PUSH1 0x1 PUSH1 0x40 SHL SUB NOT SWAP1 SWAP2 AND DUP2 OR SWAP1 SWAP2 SSTORE PUSH1 0x40 MLOAD SWAP1 DUP2 MSTORE PUSH32 0xC7F505B2F371AE2175EE4913F4499E1F2633A7B5936321EED1CDAEB6115181D2 SWAP1 PUSH1 0x20 SWAP1 LOG1 PUSH0 DUP1 DUP1 PUSH3 0x5C JUMP JUMPDEST PUSH4 0xF92EE8A9 PUSH1 0xE0 SHL DUP2 MSTORE PUSH1 0x4 SWAP1 REVERT JUMPDEST PUSH0 DUP1 REVERT INVALID PUSH1 0x80 PUSH1 0x40 SWAP1 DUP1 DUP3 MSTORE PUSH1 0x4 DUP1 CALLDATASIZE LT ISZERO PUSH2 0x15 JUMPI PUSH0 DUP1 REVERT JUMPDEST PUSH0 CALLDATALOAD PUSH1 0xE0 SHR SWAP2 DUP3 PUSH3 0xB0C809 EQ PUSH2 0x3F6E JUMPI POP DUP2 PUSH4 0x2BA8109 EQ PUSH2 0x3D71 JUMPI DUP2 PUSH4 0x33E822F EQ PUSH2 0x3D48 JUMPI DUP2 PUSH4 0x519E2A0 EQ PUSH2 0x3D22 JUMPI DUP2 PUSH4 0xB3FFD1D EQ PUSH2 0x3C65 JUMPI DUP2 PUSH4 0x259ED80E EQ PUSH2 0x3C40 JUMPI DUP2 PUSH4 0x29C9087A EQ PUSH2 0x353B JUMPI DUP2 PUSH4 0x2AB5D8F3 EQ PUSH2 0x3512 JUMPI DUP2 PUSH4 0x2AE8511D EQ PUSH2 0x3389 JUMPI DUP2 PUSH4 0x33105592 EQ PUSH2 0x334C JUMPI DUP2 PUSH4 0x3BEFA410 EQ PUSH2 0x3331 JUMPI DUP2 PUSH4 0x41A51BAA EQ PUSH2 0x3308 JUMPI DUP2 PUSH4 0x422A5BB8 EQ PUSH2 0x32D4 JUMPI DUP2 PUSH4 0x43E19704 EQ PUSH2 0x3282 JUMPI DUP2 PUSH4 0x45ECD02F EQ PUSH2 0x3262 JUMPI DUP2 PUSH4 0x49DF7208 EQ PUSH2 0x3122 JUMPI DUP2 PUSH4 0x4D3C4A7C EQ PUSH2 0x3013 JUMPI DUP2 PUSH4 0x4F1EF286 EQ PUSH2 0x2E16 JUMPI DUP2 PUSH4 0x51EED472 EQ PUSH2 0x2A90 JUMPI DUP2 PUSH4 0x52D1902D EQ PUSH2 0x2A19 JUMPI DUP2 PUSH4 0x557EE54F EQ PUSH2 0x297F JUMPI DUP2 PUSH4 0x55816079 EQ PUSH2 0x294F JUMPI DUP2 PUSH4 0x562C788E EQ PUSH2 0x8C4 JUMPI DUP2 PUSH4 0x64F639D4 EQ PUSH2 0x2934 JUMPI DUP2 PUSH4 0x69AC2022 EQ PUSH2 0x2741 JUMPI DUP2 PUSH4 0x6B4BED97 EQ PUSH2 0x534 JUMPI DUP2 PUSH4 0x726D5447 EQ PUSH2 0x2421 JUMPI DUP2 PUSH4 0x75829DEF EQ PUSH2 0x23A3 JUMPI DUP2 PUSH4 0x78AD8F5B EQ PUSH2 0x22FF JUMPI DUP2 PUSH4 0x7B657D07 EQ PUSH2 0x22B5 JUMPI DUP2 PUSH4 0x8129FC1C EQ PUSH2 0x2198 JUMPI DUP2 PUSH4 0x8776CD35 EQ PUSH2 0x2168 JUMPI DUP2 PUSH4 0x89B08F11 EQ PUSH2 0x2123 JUMPI DUP2 PUSH4 0x8DB7EDB4 EQ PUSH2 0x20D4 JUMPI DUP2 PUSH4 0x93CCFBA8 EQ PUSH2 0x20A4 JUMPI DUP2 PUSH4 0x9443CD80 EQ PUSH2 0x205E JUMPI DUP2 PUSH4 0x96207E02 EQ PUSH2 0x1F1A JUMPI DUP2 PUSH4 0x9915B91F EQ PUSH2 0x1E8F JUMPI DUP2 PUSH4 0x9BE572F6 EQ PUSH2 0x1B6B JUMPI DUP2 PUSH4 0xAADDC345 EQ PUSH2 0x1E63 JUMPI DUP2 PUSH4 0xAB48384A EQ PUSH2 0x1D5E JUMPI DUP2 PUSH4 0xAD3CB1CC EQ PUSH2 0x1D1A JUMPI DUP2 PUSH4 0xB8CAB84B EQ PUSH2 0x1C3E JUMPI DUP2 PUSH4 0xBB0F86D5 EQ PUSH2 0x1B87 JUMPI DUP2 PUSH4 0xBFF1F9E1 EQ PUSH2 0x1B6B JUMPI DUP2 PUSH4 0xC36DC9EF EQ PUSH2 0x1B42 JUMPI DUP2 PUSH4 0xC497D840 EQ PUSH2 0x1AFC JUMPI DUP2 PUSH4 0xC7155823 EQ PUSH2 0x1A80 JUMPI DUP2 PUSH4 0xC88C35FE EQ PUSH2 0x1A5A JUMPI DUP2 PUSH4 0xC979C9BF EQ PUSH2 0x17CB JUMPI DUP2 PUSH4 0xCB261A03 EQ PUSH2 0x179D JUMPI DUP2 PUSH4 0xCDA06C6E EQ PUSH2 0x1776 JUMPI DUP2 PUSH4 0xD12A7768 EQ PUSH2 0x16C7 JUMPI DUP2 PUSH4 0xD547741F EQ PUSH2 0x120B JUMPI DUP2 PUSH4 0xDC9F9664 EQ PUSH2 0xF41 JUMPI DUP2 PUSH4 0xDDE492EA EQ PUSH2 0xB31 JUMPI DUP2 PUSH4 0xE6EFCD5D EQ PUSH2 0x8EC JUMPI DUP2 PUSH4 0xE94ED257 EQ PUSH2 0x8C4 JUMPI DUP2 PUSH4 0xF12B9AD3 EQ PUSH2 0x567 JUMPI DUP2 PUSH4 0xF29E007B EQ PUSH2 0x534 JUMPI DUP2 PUSH4 0xF32B10F0 EQ PUSH2 0x4F6 JUMPI DUP2 PUSH4 0xF76794F1 EQ PUSH2 0x2FE JUMPI POP PUSH4 0xF851A440 EQ PUSH2 0x2D4 JUMPI PUSH0 DUP1 REVERT JUMPDEST CALLVALUE PUSH2 0x2FA JUMPI PUSH0 CALLDATASIZE PUSH1 0x3 NOT ADD SLT PUSH2 0x2FA JUMPI PUSH0 SLOAD SWAP1 MLOAD PUSH1 0x1 PUSH1 0x1 PUSH1 0xA0 SHL SUB SWAP1 SWAP2 AND DUP2 MSTORE PUSH1 0x20 SWAP1 RETURN JUMPDEST PUSH0 DUP1 REVERT JUMPDEST DUP3 CALLVALUE PUSH2 0x2FA JUMPI PUSH1 0x20 SWAP2 DUP3 PUSH1 0x3 NOT CALLDATASIZE ADD SLT PUSH2 0x2FA JUMPI DUP1 CALLDATALOAD SWAP3 PUSH2 0x326 PUSH2 0x321 CALLER PUSH2 0x4C18 JUMP JUMPDEST PUSH2 0x4416 JUMP JUMPDEST CALLER PUSH0 MSTORE PUSH1 0x1 SWAP4 DUP5 DUP3 MSTORE DUP4 PUSH0 KECCAK256 SLOAD SWAP3 DUP2 PUSH0 MSTORE PUSH1 0xC DUP4 MSTORE DUP5 PUSH0 KECCAK256 DUP5 PUSH0 MSTORE DUP4 MSTORE DUP5 PUSH0 KECCAK256 SWAP1 DUP2 SLOAD SWAP2 PUSH1 0xFF SWAP2 DUP9 PUSH1 0xFF DUP6 AND PUSH2 0x35B DUP2 PUSH2 0x43EB JUMP JUMPDEST SUB PUSH2 0x4B3 JUMPI PUSH1 0xFF NOT DUP1 SWAP5 AND OR SWAP1 SSTORE DUP5 DUP4 PUSH32 0xC1F9BDA0602B12C2F11218F87531038A6957666101C4FAAD39C882DCC5093DC6 DUP7 DUP10 MLOAD TIMESTAMP DUP2 MSTORE LOG3 DUP3 PUSH0 MSTORE PUSH1 0xD DUP5 MSTORE DUP6 PUSH0 KECCAK256 DUP6 PUSH0 MSTORE DUP5 MSTORE DUP6 PUSH0 KECCAK256 DUP8 PUSH0 SWAP1 JUMPDEST PUSH2 0x3CB JUMPI JUMPDEST PUSH2 0x3C9 DUP9 DUP9 DUP9 DUP9 PUSH0 MSTORE PUSH1 0xD DUP2 MSTORE DUP3 PUSH0 KECCAK256 SWAP2 PUSH0 MSTORE MSTORE PUSH0 KECCAK256 PUSH2 0x4ADD JUMP JUMPDEST STOP JUMPDEST DUP2 SLOAD DUP2 LT ISZERO PUSH2 0x4AE JUMPI SWAP1 DUP9 DUP3 DUP9 DUP11 PUSH2 0x3E6 DUP5 SWAP9 SWAP8 SWAP7 DUP7 PUSH2 0x43C2 JUMP JUMPDEST SWAP1 SLOAD SWAP1 PUSH1 0x3 SHL SHR DUP10 PUSH0 MSTORE PUSH1 0xE DUP12 MSTORE DUP2 PUSH0 KECCAK256 DUP4 PUSH0 MSTORE DUP12 MSTORE DUP2 PUSH0 KECCAK256 DUP2 PUSH0 MSTORE DUP12 MSTORE DUP2 PUSH0 KECCAK256 DUP9 DUP2 SLOAD AND SWAP1 SSTORE PUSH2 0x417 DUP4 DUP3 PUSH2 0x4D73 JUMP JUMPDEST PUSH0 MSTORE DUP11 PUSH1 0x5 DUP1 DUP3 MSTORE DUP9 DUP8 DUP6 PUSH0 KECCAK256 ADD SLOAD AND ISZERO PUSH2 0x4A4 JUMPI DUP5 SWAP4 PUSH1 0xB PUSH0 DUP1 MLOAD PUSH1 0x20 PUSH2 0x5569 DUP4 CODECOPY DUP2 MLOAD SWAP2 MSTORE SWAP4 PUSH2 0x449 DUP8 DUP8 PUSH2 0x4D73 JUMP JUMPDEST SWAP4 DUP5 PUSH0 MSTORE DUP1 DUP3 MSTORE PUSH2 0x45B DUP5 PUSH0 KECCAK256 PUSH2 0x428D JUMP JUMPDEST SWAP5 PUSH2 0x467 DUP7 DUP11 DUP11 PUSH2 0x4EF4 JUMP JUMPDEST PUSH0 MSTORE DUP2 MSTORE DUP10 DUP4 PUSH0 KECCAK256 ADD DUP14 DUP2 SLOAD AND SWAP1 SSTORE MSTORE PUSH0 DUP2 DUP2 KECCAK256 SSTORE DUP14 PUSH2 0x490 DUP3 MLOAD SWAP4 DUP4 DUP6 SWAP5 DUP6 MSTORE DUP5 ADD SWAP1 PUSH2 0x432F JUMP JUMPDEST SWAP1 TIMESTAMP SWAP1 DUP4 ADD MSTORE SUB SWAP1 LOG4 JUMPDEST ADD SWAP1 SWAP2 SWAP3 SWAP4 PUSH2 0x3A9 JUMP JUMPDEST POP POP POP POP POP PUSH2 0x49A JUMP JUMPDEST PUSH2 0x3AE JUMP JUMPDEST DUP8 MLOAD PUSH3 0x461BCD PUSH1 0xE5 SHL DUP2 MSTORE SWAP1 DUP2 ADD DUP7 SWAP1 MSTORE PUSH1 0x1E PUSH1 0x24 DUP3 ADD MSTORE PUSH32 0x4E6F2070656E64696E672070726F706F73616C20746F206465636C696E650000 PUSH1 0x44 DUP3 ADD MSTORE PUSH1 0x64 SWAP1 REVERT JUMPDEST DUP3 CALLVALUE PUSH2 0x2FA JUMPI PUSH2 0x505 CALLDATASIZE PUSH2 0x438D JUMP JUMPDEST SWAP2 SWAP1 PUSH0 MSTORE PUSH1 0x8 PUSH1 0x20 MSTORE DUP1 PUSH0 KECCAK256 DUP1 SLOAD DUP4 LT ISZERO PUSH2 0x2FA JUMPI PUSH1 0x20 SWAP3 PUSH2 0x526 SWAP2 PUSH2 0x43C2 JUMP JUMPDEST SWAP2 SWAP1 SLOAD SWAP1 MLOAD SWAP2 PUSH1 0x3 SHL SHR DUP2 MSTORE RETURN JUMPDEST DUP3 CALLVALUE PUSH2 0x2FA JUMPI PUSH1 0x20 CALLDATASIZE PUSH1 0x3 NOT ADD SLT PUSH2 0x2FA JUMPI PUSH1 0x20 SWAP2 CALLDATALOAD PUSH0 MSTORE PUSH1 0x2 DUP3 MSTORE PUSH1 0xFF DUP2 PUSH0 KECCAK256 SLOAD AND SWAP1 MLOAD SWAP1 PUSH2 0x563 DUP2 PUSH2 0x43EB JUMP JUMPDEST DUP2 MSTORE RETURN JUMPDEST DUP3 CALLVALUE PUSH2 0x2FA JUMPI DUP1 PUSH1 0x3 NOT CALLDATASIZE ADD SLT PUSH2 0x2FA JUMPI DUP2 CALLDATALOAD PUSH1 0x1 PUSH1 0x1 PUSH1 0x40 SHL SUB DUP2 GT PUSH2 0x2FA JUMPI PUSH2 0x595 SWAP1 CALLDATASIZE SWAP1 DUP5 ADD PUSH2 0x4050 JUMP JUMPDEST SWAP2 PUSH2 0x59E PUSH2 0x3FB8 JUMP JUMPDEST PUSH2 0x5AA PUSH2 0x321 CALLER PUSH2 0x4C18 JUMP JUMPDEST PUSH1 0x1 PUSH1 0x1 PUSH1 0xA0 SHL SUB AND SWAP1 DUP2 ISZERO PUSH2 0x890 JUMPI POP CALLER PUSH0 MSTORE PUSH1 0x1 SWAP3 PUSH1 0x20 PUSH1 0x1 DUP2 MSTORE DUP4 PUSH0 KECCAK256 SLOAD SWAP3 PUSH0 MSTORE DUP4 PUSH0 KECCAK256 SLOAD SWAP2 PUSH2 0x5DE DUP4 ISZERO ISZERO PUSH2 0x449D JUMP JUMPDEST DUP6 PUSH0 SWAP6 DUP5 DUP7 EQ ISZERO SWAP2 JUMPDEST PUSH2 0x5ED JUMPI STOP JUMPDEST DUP3 MLOAD DUP8 LT ISZERO PUSH2 0x3C9 JUMPI DUP8 DUP8 PUSH2 0x60D DUP8 PUSH2 0x607 DUP5 SWAP12 DUP9 PUSH2 0x4A42 JUMP JUMPDEST MLOAD PUSH2 0x5074 JUMP JUMPDEST ISZERO PUSH2 0x88B JUMPI DUP8 DUP8 PUSH2 0x628 DUP2 PUSH2 0x622 DUP6 DUP11 PUSH2 0x4A42 JUMP JUMPDEST MLOAD PUSH2 0x4D73 JUMP JUMPDEST DUP1 PUSH0 MSTORE PUSH1 0x5 DUP1 DUP11 MSTORE PUSH2 0x63B DUP8 PUSH0 KECCAK256 PUSH2 0x428D JUMP JUMPDEST SWAP2 DUP6 DUP12 DUP11 DUP13 DUP7 MLOAD DUP4 DUP9 ADD KECCAK256 PUSH2 0x64E PUSH2 0x4737 JUMP JUMPDEST DUP5 DUP2 MLOAD SWAP2 ADD KECCAK256 DUP2 EQ PUSH2 0x87C JUMPI PUSH2 0x66E DUP10 PUSH2 0x668 DUP8 DUP6 PUSH2 0x4A42 JUMP JUMPDEST MLOAD PUSH2 0x4E05 JUMP JUMPDEST PUSH2 0x87C JUMPI DUP8 SWAP4 DUP10 SWAP4 PUSH2 0x752 JUMPI JUMPDEST PUSH2 0x683 PUSH2 0x4758 JUMP JUMPDEST DUP1 MLOAD SWAP2 ADD KECCAK256 EQ PUSH2 0x6F9 JUMPI JUMPDEST PUSH2 0x6A1 SWAP4 PUSH2 0x69B SWAP2 PUSH2 0x4A42 JUMP JUMPDEST MLOAD PUSH2 0x4EF4 JUMP JUMPDEST PUSH0 MSTORE DUP10 MSTORE DUP5 DUP7 PUSH0 KECCAK256 ADD PUSH1 0xFF NOT DUP2 SLOAD AND SWAP1 SSTORE PUSH1 0xB DUP10 MSTORE PUSH0 DUP7 DUP2 KECCAK256 SSTORE PUSH0 DUP1 MLOAD PUSH1 0x20 PUSH2 0x5569 DUP4 CODECOPY DUP2 MLOAD SWAP2 MSTORE PUSH2 0x6E9 PUSH2 0x6D6 DUP7 DUP12 PUSH2 0x4A42 JUMP JUMPDEST MLOAD SWAP3 DUP9 MLOAD SWAP2 DUP3 SWAP2 DUP11 DUP4 MSTORE DUP11 DUP4 ADD SWAP1 PUSH2 0x432F JUMP JUMPDEST TIMESTAMP DUP14 DUP4 ADD MSTORE SUB SWAP1 LOG4 JUMPDEST ADD SWAP7 PUSH2 0x5E7 JUMP JUMPDEST SWAP1 POP PUSH2 0x706 SWAP3 SWAP2 POP PUSH2 0x4A42 JUMP JUMPDEST MLOAD PUSH0 MSTORE PUSH1 0x6 DUP12 MSTORE DUP6 DUP11 DUP10 PUSH0 KECCAK256 SLOAD ISZERO DUP1 PUSH2 0x732 JUMPI JUMPDEST PUSH2 0x726 JUMPI DUP6 DUP6 SWAP2 PUSH2 0x68E JUMP JUMPDEST POP POP POP POP POP POP POP PUSH2 0x6F2 JUMP JUMPDEST POP SWAP1 PUSH2 0x73D SWAP2 PUSH2 0x4A42 JUMP JUMPDEST MLOAD PUSH0 MSTORE PUSH1 0x7 DUP12 MSTORE DUP6 DUP11 DUP9 DUP11 PUSH0 KECCAK256 SLOAD GT ISZERO PUSH2 0x71A JUMP JUMPDEST SWAP3 POP SWAP3 POP DUP12 PUSH2 0x774 PUSH2 0x764 DUP7 DUP5 PUSH2 0x4A42 JUMP JUMPDEST MLOAD DUP12 PUSH2 0x76E PUSH2 0x4737 JUMP JUMPDEST SWAP2 PUSH2 0x4DA7 JUMP JUMPDEST DUP11 PUSH2 0x78C PUSH2 0x782 DUP9 DUP7 PUSH2 0x4A42 JUMP JUMPDEST MLOAD DUP3 PUSH2 0x76E PUSH2 0x4758 JUMP JUMPDEST SWAP3 DUP11 DUP13 PUSH2 0x797 PUSH2 0x47A3 JUMP JUMPDEST DUP9 DUP2 MLOAD SWAP2 ADD KECCAK256 DUP10 EQ DUP1 ISZERO PUSH2 0x866 JUMPI JUMPDEST ISZERO PUSH2 0x7F6 JUMPI POP POP DUP9 PUSH0 MSTORE PUSH1 0xB DUP7 MSTORE PUSH0 KECCAK256 SLOAD EQ SWAP1 ISZERO SWAP2 DUP3 PUSH2 0x7ED JUMPI JUMPDEST POP DUP2 PUSH2 0x7E4 JUMPI JUMPDEST POP PUSH2 0x7D6 JUMPI DUP7 SWAP3 DUP9 SWAP3 PUSH2 0x67B JUMP JUMPDEST POP POP POP POP POP POP POP POP POP PUSH2 0x6F2 JUMP JUMPDEST SWAP1 POP ISZERO PUSH0 PUSH2 0x7C8 JUMP JUMPDEST ISZERO SWAP2 POP PUSH0 PUSH2 0x7C1 JUMP JUMPDEST SWAP7 SWAP4 SWAP3 POP SWAP7 SWAP4 SWAP1 POP PUSH2 0x806 PUSH2 0x4758 JUMP JUMPDEST DUP4 DUP2 MLOAD SWAP2 ADD KECCAK256 DUP5 EQ PUSH2 0x81A JUMPI JUMPDEST POP POP PUSH2 0x67B JUMP JUMPDEST SWAP2 SWAP5 POP SWAP2 SWAP5 POP PUSH2 0x82A DUP7 DUP5 PUSH2 0x4A42 JUMP JUMPDEST MLOAD PUSH0 SWAP1 DUP2 MSTORE PUSH1 0x6 DUP6 MSTORE DUP15 SWAP1 KECCAK256 SLOAD ISZERO PUSH2 0x84E JUMPI POP ISZERO JUMPDEST PUSH2 0x7D6 JUMPI DUP7 SWAP3 DUP9 SWAP3 PUSH0 DUP1 PUSH2 0x813 JUMP JUMPDEST SWAP1 ISZERO SWAP1 DUP2 PUSH2 0x85D JUMPI JUMPDEST POP PUSH2 0x83F JUMP JUMPDEST SWAP1 POP ISZERO PUSH0 PUSH2 0x857 JUMP JUMPDEST POP PUSH2 0x86F PUSH2 0x4781 JUMP JUMPDEST DUP9 DUP2 MLOAD SWAP2 ADD KECCAK256 DUP10 EQ PUSH2 0x7A6 JUMP JUMPDEST POP POP POP POP POP POP POP POP POP POP PUSH2 0x6F2 JUMP JUMPDEST PUSH2 0x6F2 JUMP JUMPDEST PUSH1 0x64 SWAP1 PUSH1 0x20 DUP5 MLOAD SWAP2 PUSH3 0x461BCD PUSH1 0xE5 SHL DUP4 MSTORE DUP3 ADD MSTORE PUSH1 0xE PUSH1 0x24 DUP3 ADD MSTORE PUSH14 0x125B9D985B1A59081DD85B1B195D PUSH1 0x92 SHL PUSH1 0x44 DUP3 ADD MSTORE REVERT JUMPDEST DUP3 CALLVALUE PUSH2 0x2FA JUMPI PUSH0 CALLDATASIZE PUSH1 0x3 NOT ADD SLT PUSH2 0x2FA JUMPI PUSH1 0xA SLOAD SWAP1 MLOAD PUSH1 0x1 PUSH1 0x1 PUSH1 0xA0 SHL SUB SWAP1 SWAP2 AND DUP2 MSTORE PUSH1 0x20 SWAP1 RETURN JUMPDEST DUP3 CALLVALUE PUSH2 0x2FA JUMPI PUSH2 0x8FB CALLDATASIZE PUSH2 0x438D JUMP JUMPDEST SWAP2 PUSH2 0x910 PUSH1 0x1 DUP1 PUSH1 0xA0 SHL SUB PUSH0 SLOAD AND CALLER EQ PUSH2 0x4588 JUMP JUMPDEST DUP2 ISZERO PUSH2 0xAFD JUMPI PUSH2 0x921 DUP4 ISZERO ISZERO PUSH2 0x4B0D JUMP JUMPDEST PUSH2 0x92D DUP4 DUP4 EQ ISZERO PUSH2 0x4B4B JUMP JUMPDEST DUP2 PUSH0 MSTORE PUSH1 0x2 PUSH1 0x20 DUP2 DUP2 MSTORE PUSH1 0xFF DUP4 PUSH0 KECCAK256 SLOAD AND PUSH2 0x947 DUP2 PUSH2 0x43EB JUMP JUMPDEST ISZERO PUSH2 0xAC2 JUMPI DUP5 PUSH0 MSTORE DUP2 DUP2 MSTORE PUSH2 0x96C PUSH1 0xFF DUP5 PUSH0 KECCAK256 SLOAD AND PUSH2 0x965 DUP2 PUSH2 0x43EB JUMP JUMPDEST ISZERO ISZERO PUSH2 0x4B97 JUMP JUMPDEST DUP4 PUSH0 MSTORE PUSH1 0xC DUP2 MSTORE DUP3 PUSH0 KECCAK256 DUP6 PUSH0 MSTORE DUP2 MSTORE PUSH1 0xFF DUP4 PUSH0 KECCAK256 SLOAD AND PUSH2 0x98B DUP2 PUSH2 0x43EB JUMP JUMPDEST DUP1 ISZERO SWAP1 DUP2 ISZERO PUSH2 0xAAE JUMPI JUMPDEST POP ISZERO PUSH2 0xA5D JUMPI DUP3 MLOAD PUSH2 0x9A6 DUP2 PUSH2 0x3FCE JUMP JUMPDEST DUP3 DUP2 MSTORE DUP2 DUP2 ADD DUP4 DUP2 MSTORE DUP6 PUSH0 MSTORE PUSH1 0xC DUP4 MSTORE DUP5 PUSH0 KECCAK256 DUP8 PUSH0 MSTORE DUP4 MSTORE PUSH2 0x9D5 DUP6 PUSH0 KECCAK256 SWAP3 MLOAD PUSH2 0x9CF DUP2 PUSH2 0x43EB JUMP JUMPDEST DUP4 PUSH2 0x4978 JUMP JUMPDEST MLOAD SWAP7 PUSH1 0x3 DUP9 LT ISZERO PUSH2 0xA4A JUMPI POP PUSH32 0xC5B2E1BD4433EB4E9E181CC803520513D39D918C96BDDEEBCA1224E1C750963D SWAP5 SWAP6 SWAP7 PUSH2 0xA0E SWAP2 PUSH2 0x49FE JUMP JUMPDEST DUP6 DUP6 PUSH32 0x494D010FDF588A0E83D626EA6963187BDDA6F88B7007F7BF280683D3F7DEA834 DUP6 DUP1 MLOAD DUP7 DUP2 MSTORE TIMESTAMP DUP7 DUP3 ADD MSTORE LOG3 DUP3 MLOAD SWAP2 DUP3 MSTORE TIMESTAMP SWAP1 DUP3 ADD MSTORE LOG3 STOP JUMPDEST PUSH1 0x21 SWAP1 PUSH4 0x4E487B71 PUSH1 0xE0 SHL PUSH0 MSTORE MSTORE PUSH1 0x24 PUSH0 REVERT JUMPDEST DUP6 PUSH1 0x84 SWAP2 DUP5 MLOAD SWAP2 PUSH3 0x461BCD PUSH1 0xE5 SHL DUP4 MSTORE DUP3 ADD MSTORE PUSH1 0x26 PUSH1 0x24 DUP3 ADD MSTORE PUSH32 0x52656C6174696F6E7368697020616C726561647920616374697665206F722070 PUSH1 0x44 DUP3 ADD MSTORE PUSH6 0x656E64696E67 PUSH1 0xD0 SHL PUSH1 0x64 DUP3 ADD MSTORE REVERT JUMPDEST PUSH1 0x3 SWAP2 POP PUSH2 0xABB DUP2 PUSH2 0x43EB JUMP JUMPDEST EQ DUP8 PUSH2 0x995 JUMP JUMPDEST DUP6 PUSH1 0x64 SWAP2 DUP5 MLOAD SWAP2 PUSH3 0x461BCD PUSH1 0xE5 SHL DUP4 MSTORE DUP3 ADD MSTORE PUSH1 0x16 PUSH1 0x24 DUP3 ADD MSTORE PUSH22 0x151C9D5CDD1BDC881B9BDD081C9959DA5CDD195C9959 PUSH1 0x52 SHL PUSH1 0x44 DUP3 ADD MSTORE REVERT JUMPDEST MLOAD PUSH3 0x461BCD PUSH1 0xE5 SHL DUP2 MSTORE PUSH1 0x20 DUP2 DUP6 ADD MSTORE PUSH1 0xF PUSH1 0x24 DUP3 ADD MSTORE PUSH15 0x24B73B30B634B2103A393AB9BA37B9 PUSH1 0x89 SHL PUSH1 0x44 DUP3 ADD MSTORE PUSH1 0x64 SWAP1 REVERT JUMPDEST SWAP1 POP CALLVALUE PUSH2 0x2FA JUMPI PUSH2 0xB41 CALLDATASIZE PUSH2 0x4213 JUMP JUMPDEST SWAP2 SWAP3 SWAP1 PUSH2 0xB50 PUSH2 0x321 CALLER PUSH2 0x4C18 JUMP JUMPDEST PUSH2 0xB5B DUP5 ISZERO ISZERO PUSH2 0x4605 JUMP JUMPDEST PUSH1 0x1 PUSH1 0x1 PUSH1 0xA0 SHL SUB AND SWAP3 PUSH2 0xB70 DUP5 ISZERO ISZERO PUSH2 0x4651 JUMP JUMPDEST PUSH2 0xB81 PUSH2 0xB7C DUP5 PUSH2 0x4CFB JUMP JUMPDEST PUSH2 0x469D JUMP JUMPDEST CALLER PUSH0 MSTORE PUSH1 0x20 SWAP2 PUSH1 0x1 DUP4 MSTORE DUP6 PUSH0 KECCAK256 SLOAD SWAP5 PUSH0 MSTORE DUP6 PUSH0 KECCAK256 SLOAD SWAP3 PUSH2 0xBA2 DUP5 ISZERO ISZERO PUSH2 0x449D JUMP JUMPDEST DUP5 MLOAD DUP2 DUP7 ADD KECCAK256 PUSH2 0xBB2 DUP8 DUP6 PUSH2 0x4D73 JUMP JUMPDEST PUSH0 MSTORE PUSH1 0x5 DUP3 MSTORE PUSH1 0xFF PUSH1 0x1 DUP10 PUSH0 KECCAK256 ADD SLOAD AND ISZERO PUSH2 0xF00 JUMPI DUP4 PUSH0 MSTORE PUSH1 0x6 DUP3 MSTORE DUP8 PUSH0 KECCAK256 SLOAD ISZERO ISZERO SWAP1 PUSH2 0xBE7 PUSH2 0xBE0 PUSH2 0x4737 JUMP JUMPDEST DUP10 DUP8 PUSH2 0x4DA7 JUMP JUMPDEST SWAP2 PUSH2 0xBFA PUSH2 0xBF3 PUSH2 0x4758 JUMP JUMPDEST DUP11 DUP9 PUSH2 0x4DA7 JUMP JUMPDEST SWAP2 PUSH2 0xC0D PUSH2 0xC06 PUSH2 0x4781 JUMP JUMPDEST DUP12 DUP10 PUSH2 0x4DA7 JUMP JUMPDEST SWAP1 PUSH2 0xC16 PUSH2 0x4737 JUMP JUMPDEST DUP1 MLOAD SWAP1 DUP8 ADD KECCAK256 DUP2 SUB PUSH2 0xD54 JUMPI POP POP ISZERO PUSH2 0xCFA JUMPI POP ISZERO PUSH2 0xCB8 JUMPI JUMPDEST PUSH2 0xC3A DUP5 DUP5 PUSH2 0x4D73 JUMP JUMPDEST PUSH0 MSTORE PUSH1 0x5 DUP2 MSTORE PUSH1 0xFF PUSH1 0x1 DUP9 PUSH0 KECCAK256 ADD SLOAD AND PUSH2 0xC5A JUMPI POP POP PUSH2 0x3C9 SWAP5 POP PUSH2 0x507E JUMP JUMPDEST DUP7 MLOAD PUSH3 0x461BCD PUSH1 0xE5 SHL DUP2 MSTORE SWAP2 DUP3 ADD MSTORE PUSH1 0x33 PUSH1 0x24 DUP3 ADD MSTORE PUSH32 0x54617267657420616C726561647920686173206120726F6C652E205573652063 PUSH1 0x44 DUP3 ADD MSTORE PUSH19 0x1A185B99D9549BDB194A0A481A5B9CDD195859 PUSH1 0x6A SHL PUSH1 0x64 DUP3 ADD MSTORE PUSH1 0x84 SWAP2 POP REVERT JUMPDEST DUP7 MLOAD PUSH3 0x461BCD PUSH1 0xE5 SHL DUP2 MSTORE SWAP2 DUP3 ADD DUP2 SWAP1 MSTORE PUSH1 0x24 DUP3 ADD MSTORE PUSH32 0x4F6E6C79206F776E6572732063616E206772616E74206F776E657220726F6C65 PUSH1 0x44 DUP3 ADD MSTORE PUSH1 0x64 SWAP2 POP REVERT JUMPDEST SWAP1 POP PUSH2 0xC30 JUMPI DUP7 MLOAD PUSH3 0x461BCD PUSH1 0xE5 SHL DUP2 MSTORE SWAP2 DUP3 ADD MSTORE PUSH1 0x29 PUSH1 0x24 DUP3 ADD MSTORE PUSH32 0x4F6E6C792061646D696E6973747261746F72732063616E206772616E74206669 PUSH1 0x44 DUP3 ADD MSTORE PUSH9 0x3939BA1037BBB732B9 PUSH1 0xB9 SHL PUSH1 0x64 DUP3 ADD MSTORE PUSH1 0x84 SWAP2 POP REVERT JUMPDEST SWAP1 SWAP3 SWAP2 POP PUSH2 0xD60 PUSH2 0x4758 JUMP JUMPDEST DUP1 MLOAD SWAP1 DUP7 ADD KECCAK256 DUP2 SUB PUSH2 0xDD8 JUMPI POP SWAP1 POP DUP2 ISZERO PUSH2 0xDD0 JUMPI JUMPDEST POP PUSH2 0xC30 JUMPI DUP7 MLOAD PUSH3 0x461BCD PUSH1 0xE5 SHL DUP2 MSTORE SWAP2 DUP3 ADD MSTORE PUSH1 0x3B PUSH1 0x24 DUP3 ADD MSTORE PUSH0 DUP1 MLOAD PUSH1 0x20 PUSH2 0x5589 DUP4 CODECOPY DUP2 MLOAD SWAP2 MSTORE PUSH1 0x44 DUP3 ADD MSTORE PUSH32 0x616E206772616E742061646D696E6973747261746F7220726F6C650000000000 PUSH1 0x64 DUP3 ADD MSTORE PUSH1 0x84 SWAP2 POP REVERT JUMPDEST SWAP1 POP PUSH0 PUSH2 0xD76 JUMP JUMPDEST PUSH2 0xDE0 PUSH2 0x4781 JUMP JUMPDEST DUP1 MLOAD SWAP1 DUP7 ADD KECCAK256 DUP2 SUB PUSH2 0xE4F JUMPI POP SWAP1 POP DUP2 ISZERO PUSH2 0xE47 JUMPI JUMPDEST POP PUSH2 0xC30 JUMPI DUP7 MLOAD PUSH3 0x461BCD PUSH1 0xE5 SHL DUP2 MSTORE SWAP2 DUP3 ADD MSTORE PUSH1 0x34 PUSH1 0x24 DUP3 ADD MSTORE PUSH0 DUP1 MLOAD PUSH1 0x20 PUSH2 0x5589 DUP4 CODECOPY DUP2 MLOAD SWAP2 MSTORE PUSH1 0x44 DUP3 ADD MSTORE PUSH20 0x616E206772616E742073686172657220726F6C65 PUSH1 0x60 SHL PUSH1 0x64 DUP3 ADD MSTORE PUSH1 0x84 SWAP2 POP REVERT JUMPDEST SWAP1 POP PUSH0 PUSH2 0xDF6 JUMP JUMPDEST PUSH2 0xE57 PUSH2 0x47A3 JUMP JUMPDEST DUP6 DUP2 MLOAD SWAP2 ADD KECCAK256 EQ PUSH2 0xE6B JUMPI JUMPDEST POP POP POP PUSH2 0xC30 JUMP JUMPDEST DUP3 ISZERO PUSH2 0xEF8 JUMPI JUMPDEST POP DUP2 ISZERO PUSH2 0xEF0 JUMPI JUMPDEST POP ISZERO PUSH2 0xE88 JUMPI PUSH0 DUP1 DUP1 PUSH2 0xE63 JUMP JUMPDEST DUP7 MLOAD PUSH3 0x461BCD PUSH1 0xE5 SHL DUP2 MSTORE SWAP2 DUP3 ADD MSTORE PUSH1 0x3E PUSH1 0x24 DUP3 ADD MSTORE PUSH32 0x4F6E6C79206F776E6572732C2061646D696E6973747261746F72732C20616E64 PUSH1 0x44 DUP3 ADD MSTORE PUSH32 0x20736861726572732063616E206772616E742076696577657220726F6C650000 PUSH1 0x64 DUP3 ADD MSTORE PUSH1 0x84 SWAP2 POP REVERT JUMPDEST SWAP1 POP PUSH0 PUSH2 0xE7A JUMP JUMPDEST SWAP2 POP PUSH0 PUSH2 0xE72 JUMP JUMPDEST PUSH1 0x64 DUP4 DUP4 DUP1 DUP12 MLOAD SWAP3 PUSH3 0x461BCD PUSH1 0xE5 SHL DUP5 MSTORE DUP4 ADD MSTORE PUSH1 0x24 DUP3 ADD MSTORE PUSH32 0x596F752068617665206E6F20726F6C6520666F722074686973207265636F7264 PUSH1 0x44 DUP3 ADD MSTORE REVERT JUMPDEST DUP3 CALLVALUE PUSH2 0x2FA JUMPI PUSH1 0x60 CALLDATASIZE PUSH1 0x3 NOT ADD SLT PUSH2 0x2FA JUMPI DUP2 CALLDATALOAD SWAP1 PUSH1 0x24 CALLDATALOAD PUSH1 0x3 DUP2 LT ISZERO PUSH2 0x2FA JUMPI PUSH1 0x44 CALLDATALOAD PUSH1 0x1 PUSH1 0x1 PUSH1 0x40 SHL SUB DUP2 GT PUSH2 0x2FA JUMPI PUSH2 0xF80 SWAP1 CALLDATASIZE SWAP1 DUP7 ADD PUSH2 0x4050 JUMP JUMPDEST PUSH2 0xF8C PUSH2 0x321 CALLER PUSH2 0x4C18 JUMP JUMPDEST CALLER PUSH0 MSTORE PUSH1 0x1 SWAP4 PUSH1 0x20 SWAP2 DUP6 DUP4 MSTORE DUP5 PUSH0 KECCAK256 SLOAD PUSH2 0xFA7 DUP4 ISZERO ISZERO PUSH2 0x4B0D JUMP JUMPDEST PUSH2 0xFB3 DUP4 DUP3 EQ ISZERO PUSH2 0x4B4B JUMP JUMPDEST DUP3 PUSH0 MSTORE PUSH1 0x2 DUP5 MSTORE PUSH1 0xFF SWAP2 PUSH2 0xFD0 PUSH1 0xFF DUP9 PUSH0 KECCAK256 SLOAD AND PUSH2 0x965 DUP2 PUSH2 0x43EB JUMP JUMPDEST DUP2 PUSH0 MSTORE PUSH1 0xC DUP6 MSTORE DUP7 PUSH0 KECCAK256 DUP5 PUSH0 MSTORE DUP6 MSTORE PUSH1 0xFF DUP8 PUSH0 KECCAK256 SLOAD AND PUSH2 0xFEF DUP2 PUSH2 0x43EB JUMP JUMPDEST DUP10 DUP2 ISZERO SWAP2 DUP3 ISZERO PUSH2 0x11F3 JUMPI JUMPDEST DUP3 ISZERO PUSH2 0x11DF JUMPI JUMPDEST POP POP ISZERO PUSH2 0x118E JUMPI DUP7 MLOAD PUSH2 0x1013 DUP2 PUSH2 0x3FCE JUMP JUMPDEST DUP9 DUP2 MSTORE DUP6 DUP2 ADD PUSH2 0x1023 DUP9 DUP3 PUSH2 0x4A56 JUMP JUMPDEST DUP4 PUSH0 MSTORE PUSH1 0xC DUP8 MSTORE DUP9 PUSH0 KECCAK256 DUP7 PUSH0 MSTORE DUP8 MSTORE PUSH2 0x1043 DUP10 PUSH0 KECCAK256 SWAP3 MLOAD PUSH2 0x9CF DUP2 PUSH2 0x43EB JUMP JUMPDEST MLOAD SWAP10 PUSH1 0x3 DUP12 LT ISZERO PUSH2 0xA4A JUMPI POP DUP9 SWAP10 PUSH2 0x105A SWAP2 PUSH2 0x49FE JUMP JUMPDEST DUP4 DUP3 PUSH32 0x494D010FDF588A0E83D626EA6963187BDDA6F88B7007F7BF280683D3F7DEA834 DUP10 DUP1 MLOAD PUSH2 0x108A DUP2 DUP13 PUSH2 0x4409 JUMP JUMPDEST TIMESTAMP DUP11 DUP3 ADD MSTORE LOG3 PUSH0 SWAP8 JUMPDEST PUSH2 0x1099 JUMPI STOP JUMPDEST DUP1 MLOAD DUP9 LT ISZERO PUSH2 0x3C9 JUMPI DUP9 DUP9 PUSH2 0x10AF DUP3 SWAP11 DUP5 PUSH2 0x4A42 JUMP JUMPDEST MLOAD PUSH2 0x10BB DUP10 DUP7 DUP4 PUSH2 0x52B3 JUMP JUMPDEST PUSH2 0x10C4 DUP2 PUSH2 0x4CFB JUMP JUMPDEST ISZERO PUSH2 0x1187 JUMPI PUSH2 0x10D3 DUP7 DUP4 PUSH2 0x4D73 JUMP JUMPDEST PUSH0 MSTORE PUSH1 0x5 DUP1 DUP11 MSTORE DUP8 DUP6 DUP14 PUSH0 KECCAK256 ADD SLOAD AND ISZERO PUSH2 0x117F JUMPI PUSH2 0x10F1 DUP10 DUP5 PUSH2 0x4D73 JUMP JUMPDEST PUSH0 MSTORE DUP10 MSTORE DUP6 DUP8 DUP6 DUP14 PUSH0 KECCAK256 ADD SLOAD AND PUSH2 0x117F JUMPI PUSH2 0x110D SWAP2 DUP10 DUP5 PUSH2 0x507E JUMP JUMPDEST DUP5 PUSH0 MSTORE PUSH1 0xE DUP1 DUP10 MSTORE DUP11 PUSH0 KECCAK256 DUP9 PUSH0 MSTORE DUP10 MSTORE DUP11 PUSH0 KECCAK256 DUP3 PUSH0 MSTORE DUP10 MSTORE DUP7 DUP12 PUSH0 KECCAK256 SLOAD AND ISZERO PUSH2 0x113B JUMPI JUMPDEST POP POP JUMPDEST ADD SWAP8 PUSH2 0x1093 JUMP JUMPDEST DUP6 PUSH0 MSTORE PUSH1 0xD DUP10 MSTORE DUP11 PUSH0 KECCAK256 DUP9 PUSH0 MSTORE DUP10 MSTORE PUSH2 0x1156 DUP3 DUP13 PUSH0 KECCAK256 PUSH2 0x4BDC JUMP JUMPDEST DUP6 PUSH0 MSTORE DUP9 MSTORE DUP10 PUSH0 KECCAK256 DUP8 PUSH0 MSTORE DUP9 MSTORE DUP10 PUSH0 KECCAK256 SWAP1 PUSH0 MSTORE DUP8 MSTORE DUP9 PUSH0 KECCAK256 DUP3 PUSH1 0xFF NOT DUP3 SLOAD AND OR SWAP1 SSTORE DUP12 DUP1 PUSH2 0x1131 JUMP JUMPDEST POP POP POP PUSH2 0x1134 JUMP JUMPDEST POP POP PUSH2 0x1134 JUMP JUMPDEST DUP7 MLOAD PUSH3 0x461BCD PUSH1 0xE5 SHL DUP2 MSTORE DUP1 DUP11 ADD DUP7 SWAP1 MSTORE PUSH1 0x25 PUSH1 0x24 DUP3 ADD MSTORE PUSH32 0x50726F706F73616C20616C726561647920657869737473206F72206973207065 PUSH1 0x44 DUP3 ADD MSTORE PUSH5 0x6E64696E67 PUSH1 0xD8 SHL PUSH1 0x64 DUP3 ADD MSTORE PUSH1 0x84 SWAP1 REVERT JUMPDEST SWAP1 SWAP2 POP PUSH2 0x11EB DUP2 PUSH2 0x43EB JUMP JUMPDEST EQ DUP10 DUP12 PUSH2 0x1001 JUMP JUMPDEST DUP1 SWAP3 POP PUSH2 0x1200 SWAP2 POP PUSH2 0x43EB JUMP JUMPDEST DUP10 PUSH1 0x3 DUP3 EQ SWAP2 PUSH2 0xFFA JUMP JUMPDEST DUP3 CALLVALUE PUSH2 0x2FA JUMPI DUP1 PUSH1 0x3 NOT CALLDATASIZE ADD SLT PUSH2 0x2FA JUMPI DUP2 CALLDATALOAD PUSH2 0x1226 PUSH2 0x3FB8 JUMP JUMPDEST PUSH2 0x1232 PUSH2 0x321 CALLER PUSH2 0x4C18 JUMP JUMPDEST PUSH2 0x123D DUP3 ISZERO ISZERO PUSH2 0x4605 JUMP JUMPDEST PUSH1 0x1 PUSH1 0x1 PUSH1 0xA0 SHL SUB AND SWAP3 PUSH2 0x1252 DUP5 ISZERO ISZERO PUSH2 0x4651 JUMP JUMPDEST CALLER PUSH0 MSTORE PUSH1 0x20 SWAP3 PUSH1 0x1 DUP5 MSTORE DUP1 PUSH0 KECCAK256 SLOAD SWAP5 PUSH0 MSTORE DUP1 PUSH0 KECCAK256 SLOAD SWAP4 PUSH2 0x1273 DUP6 ISZERO ISZERO PUSH2 0x449D JUMP JUMPDEST PUSH2 0x127D DUP6 DUP6 PUSH2 0x4D73 JUMP JUMPDEST DUP1 PUSH0 MSTORE PUSH1 0x5 DUP3 MSTORE PUSH2 0x1296 PUSH1 0xFF PUSH1 0x1 DUP6 PUSH0 KECCAK256 ADD SLOAD AND PUSH2 0x46DF JUMP JUMPDEST DUP1 PUSH0 MSTORE PUSH1 0x5 DUP3 MSTORE PUSH2 0x12A8 DUP4 PUSH0 KECCAK256 PUSH2 0x428D JUMP JUMPDEST SWAP4 DUP5 MLOAD DUP4 DUP7 ADD KECCAK256 PUSH2 0x12B7 PUSH2 0x4737 JUMP JUMPDEST DUP5 DUP2 MLOAD SWAP2 ADD KECCAK256 DUP2 EQ PUSH2 0x1650 JUMPI PUSH2 0x12CD DUP9 DUP9 PUSH2 0x4E05 JUMP JUMPDEST PUSH2 0x15C1 JUMPI DUP8 DUP10 SUB PUSH2 0x13DB JUMPI JUMPDEST PUSH2 0x12E1 PUSH2 0x4758 JUMP JUMPDEST DUP5 DUP2 MLOAD SWAP2 ADD KECCAK256 EQ PUSH2 0x1346 JUMPI JUMPDEST POP SWAP1 DUP4 SWAP3 SWAP2 PUSH2 0x130B PUSH0 DUP1 MLOAD PUSH1 0x20 PUSH2 0x5569 DUP4 CODECOPY DUP2 MLOAD SWAP2 MSTORE SWAP6 DUP9 DUP9 PUSH2 0x4EF4 JUMP JUMPDEST PUSH0 MSTORE PUSH1 0x5 DUP2 MSTORE PUSH1 0x1 DUP3 PUSH0 KECCAK256 ADD PUSH1 0xFF NOT DUP2 SLOAD AND SWAP1 SSTORE PUSH1 0xB DUP2 MSTORE PUSH0 DUP3 DUP2 KECCAK256 SSTORE PUSH2 0x133B DUP3 MLOAD SWAP4 DUP4 DUP6 SWAP5 DUP6 MSTORE DUP5 ADD SWAP1 PUSH2 0x432F JUMP JUMPDEST SWAP1 TIMESTAMP SWAP1 DUP4 ADD MSTORE SUB SWAP1 LOG4 STOP JUMPDEST DUP6 PUSH0 MSTORE PUSH1 0x7 DUP4 MSTORE PUSH1 0x1 DUP5 PUSH0 KECCAK256 SLOAD GT PUSH1 0x6 DUP5 MSTORE DUP5 PUSH0 KECCAK256 SLOAD ISZERO ISZERO DUP2 ISZERO PUSH2 0x13D3 JUMPI JUMPDEST POP PUSH2 0x12ED JUMPI DUP4 MLOAD PUSH3 0x461BCD PUSH1 0xE5 SHL DUP2 MSTORE SWAP1 DUP2 ADD DUP4 SWAP1 MSTORE PUSH1 0x39 PUSH1 0x24 DUP3 ADD MSTORE PUSH32 0x43616E6E6F74207265766F6B65206C6173742061646D696E6973747261746F72 PUSH1 0x44 DUP3 ADD MSTORE PUSH32 0x20776974686F757420616E206F776E65722070726573656E7400000000000000 PUSH1 0x64 DUP3 ADD MSTORE PUSH1 0x84 SWAP1 REVERT JUMPDEST SWAP1 POP DUP10 PUSH2 0x1365 JUMP JUMPDEST PUSH2 0x13ED PUSH2 0x13E6 PUSH2 0x4737 JUMP JUMPDEST DUP11 DUP10 PUSH2 0x4DA7 JUMP JUMPDEST PUSH2 0x13FF PUSH2 0x13F8 PUSH2 0x4758 JUMP JUMPDEST DUP12 DUP11 PUSH2 0x4DA7 JUMP JUMPDEST DUP5 PUSH0 MSTORE PUSH1 0xB DUP7 MSTORE DUP11 DUP8 PUSH0 KECCAK256 SLOAD EQ SWAP1 PUSH2 0x1415 PUSH2 0x47A3 JUMP JUMPDEST DUP8 DUP2 MLOAD SWAP2 ADD KECCAK256 DUP5 EQ DUP1 ISZERO PUSH2 0x15AB JUMPI JUMPDEST ISZERO PUSH2 0x14D0 JUMPI DUP3 ISZERO PUSH2 0x14C8 JUMPI JUMPDEST POP DUP2 ISZERO PUSH2 0x14C0 JUMPI JUMPDEST POP ISZERO PUSH2 0x1444 JUMPI JUMPDEST PUSH2 0x12D9 JUMP JUMPDEST DUP5 MLOAD PUSH3 0x461BCD PUSH1 0xE5 SHL DUP2 MSTORE DUP1 DUP4 ADD DUP6 SWAP1 MSTORE PUSH1 0x4A PUSH1 0x24 DUP3 ADD MSTORE PUSH32 0x4F6E6C79206F776E6572732C2061646D696E6973747261746F72732C206F7220 PUSH1 0x44 DUP3 ADD MSTORE PUSH32 0x746865206772616E7465722063616E207265766F6B65207669657765722F7368 PUSH1 0x64 DUP3 ADD MSTORE PUSH10 0x6172657220726F6C6573 PUSH1 0xB0 SHL PUSH1 0x84 DUP3 ADD MSTORE PUSH1 0xA4 SWAP1 REVERT JUMPDEST SWAP1 POP DUP11 PUSH2 0x1438 JUMP JUMPDEST SWAP2 POP DUP12 PUSH2 0x1430 JUMP JUMPDEST DUP3 ISZERO SWAP3 SWAP2 POP DUP3 PUSH2 0x15A3 JUMPI JUMPDEST POP ISZERO PUSH2 0x155B JUMPI ISZERO PUSH2 0x12D9 JUMPI PUSH2 0x14EE PUSH2 0x4758 JUMP JUMPDEST DUP5 DUP2 MLOAD SWAP2 ADD KECCAK256 DUP2 SUB PUSH2 0x143F JUMPI DUP7 PUSH0 MSTORE PUSH1 0x6 DUP5 MSTORE DUP5 PUSH0 KECCAK256 SLOAD ISZERO PUSH2 0x143F JUMPI DUP5 MLOAD PUSH3 0x461BCD PUSH1 0xE5 SHL DUP2 MSTORE DUP1 DUP4 ADD DUP6 SWAP1 MSTORE PUSH1 0x25 PUSH1 0x24 DUP3 ADD MSTORE PUSH32 0x4F6E6C79206F776E6572732063616E207265766F6B652061646D696E69737472 PUSH1 0x44 DUP3 ADD MSTORE PUSH5 0x61746F7273 PUSH1 0xD8 SHL PUSH1 0x64 DUP3 ADD MSTORE PUSH1 0x84 SWAP1 REVERT JUMPDEST DUP6 MLOAD PUSH3 0x461BCD PUSH1 0xE5 SHL DUP2 MSTORE DUP1 DUP5 ADD DUP7 SWAP1 MSTORE PUSH1 0x2F PUSH1 0x24 DUP3 ADD MSTORE PUSH0 DUP1 MLOAD PUSH1 0x20 PUSH2 0x5589 DUP4 CODECOPY DUP2 MLOAD SWAP2 MSTORE PUSH1 0x44 DUP3 ADD MSTORE PUSH15 0x616E207265766F6B6520726F6C6573 PUSH1 0x88 SHL PUSH1 0x64 DUP3 ADD MSTORE PUSH1 0x84 SWAP1 REVERT JUMPDEST SWAP1 POP DUP12 PUSH2 0x14DB JUMP JUMPDEST POP PUSH2 0x15B4 PUSH2 0x4781 JUMP JUMPDEST DUP8 DUP2 MLOAD SWAP2 ADD KECCAK256 DUP5 EQ PUSH2 0x1424 JUMP JUMPDEST DUP5 MLOAD PUSH3 0x461BCD PUSH1 0xE5 SHL DUP2 MSTORE DUP1 DUP4 ADD DUP6 SWAP1 MSTORE PUSH1 0x57 PUSH1 0x24 DUP3 ADD MSTORE PUSH32 0x43616E6E6F74207265766F6B6520616E20616374697665207375626A65637427 PUSH1 0x44 DUP3 ADD MSTORE PUSH32 0x7320726F6C652E20416374697665207375626A65637473206D75737420686F6C PUSH1 0x64 DUP3 ADD MSTORE PUSH32 0x64206174206C656173742073686172657220726F6C652E000000000000000000 PUSH1 0x84 DUP3 ADD MSTORE PUSH1 0xA4 SWAP1 REVERT JUMPDEST DUP5 MLOAD PUSH3 0x461BCD PUSH1 0xE5 SHL DUP2 MSTORE DUP1 DUP4 ADD DUP6 SWAP1 MSTORE PUSH1 0x45 PUSH1 0x24 DUP3 ADD MSTORE PUSH32 0x4F776E6572732063616E6E6F74206265207265766F6B65642E204F776E657220 PUSH1 0x44 DUP3 ADD MSTORE PUSH32 0x6D7573742075736520766F6C756E746172696C794C656176654F776E65727368 PUSH1 0x64 DUP3 ADD MSTORE PUSH5 0x34B8141497 PUSH1 0xD9 SHL PUSH1 0x84 DUP3 ADD MSTORE PUSH1 0xA4 SWAP1 REVERT JUMPDEST SWAP1 POP CALLVALUE PUSH2 0x2FA JUMPI PUSH1 0x20 SWAP1 DUP2 PUSH1 0x3 NOT CALLDATASIZE ADD SLT PUSH2 0x2FA JUMPI DUP3 SWAP1 CALLDATALOAD PUSH0 MSTORE PUSH1 0x3 DUP3 MSTORE DUP1 PUSH0 KECCAK256 DUP2 MLOAD SWAP3 DUP4 DUP2 DUP4 SLOAD SWAP2 DUP3 DUP2 MSTORE ADD SWAP1 DUP2 SWAP4 PUSH0 MSTORE DUP3 PUSH0 KECCAK256 SWAP1 PUSH0 JUMPDEST DUP2 DUP2 LT PUSH2 0x1759 JUMPI POP POP POP DUP5 PUSH2 0x1715 SWAP2 SUB DUP6 PUSH2 0x4018 JUMP JUMPDEST DUP3 MLOAD DUP2 DUP2 MSTORE SWAP4 MLOAD DUP2 DUP6 ADD DUP2 SWAP1 MSTORE DUP5 SWAP4 DUP5 ADD SWAP3 SWAP2 PUSH0 JUMPDEST DUP3 DUP2 LT PUSH2 0x1739 JUMPI POP POP POP POP SUB SWAP1 RETURN JUMPDEST DUP4 MLOAD PUSH1 0x1 PUSH1 0x1 PUSH1 0xA0 SHL SUB AND DUP6 MSTORE DUP7 SWAP6 POP SWAP4 DUP2 ADD SWAP4 SWAP3 DUP2 ADD SWAP3 PUSH1 0x1 ADD PUSH2 0x172A JUMP JUMPDEST DUP3 SLOAD PUSH1 0x1 PUSH1 0x1 PUSH1 0xA0 SHL SUB AND DUP5 MSTORE SWAP3 DUP5 ADD SWAP3 PUSH1 0x1 SWAP3 DUP4 ADD SWAP3 ADD PUSH2 0x16FF JUMP JUMPDEST DUP3 CALLVALUE PUSH2 0x2FA JUMPI PUSH1 0x20 CALLDATASIZE PUSH1 0x3 NOT ADD SLT PUSH2 0x2FA JUMPI PUSH1 0x20 SWAP2 CALLDATALOAD PUSH0 MSTORE PUSH1 0xB DUP3 MSTORE DUP1 PUSH0 KECCAK256 SLOAD SWAP1 MLOAD SWAP1 DUP2 MSTORE RETURN JUMPDEST DUP3 CALLVALUE PUSH2 0x2FA JUMPI PUSH1 0x20 CALLDATASIZE PUSH1 0x3 NOT ADD SLT PUSH2 0x2FA JUMPI PUSH1 0x20 SWAP1 PUSH2 0x17C2 PUSH2 0x17BD PUSH2 0x3FA2 JUMP JUMPDEST PUSH2 0x5261 JUMP JUMPDEST SWAP1 MLOAD SWAP1 ISZERO ISZERO DUP2 MSTORE RETURN JUMPDEST DUP3 CALLVALUE PUSH2 0x2FA JUMPI PUSH2 0x17DA CALLDATASIZE PUSH2 0x438D JUMP JUMPDEST SWAP1 SWAP3 PUSH2 0x17E8 PUSH2 0x321 CALLER PUSH2 0x4C18 JUMP JUMPDEST CALLER PUSH0 MSTORE PUSH1 0x1 SWAP4 PUSH1 0x20 SWAP2 DUP6 DUP4 MSTORE DUP5 PUSH0 KECCAK256 SLOAD SWAP1 DUP3 DUP3 EQ DUP1 ISZERO PUSH2 0x1A51 JUMPI JUMPDEST ISZERO PUSH2 0x1A10 JUMPI DUP3 PUSH0 MSTORE PUSH1 0xC DUP5 MSTORE DUP6 PUSH0 KECCAK256 DUP6 PUSH0 MSTORE DUP5 MSTORE PUSH1 0xFF SWAP1 PUSH1 0xFF DUP8 PUSH0 KECCAK256 SLOAD AND PUSH2 0x182A DUP2 PUSH2 0x43EB JUMP JUMPDEST DUP9 PUSH1 0x2 DUP3 EQ SWAP2 DUP3 ISZERO PUSH2 0x19FC JUMPI JUMPDEST POP POP ISZERO PUSH2 0x19AF JUMPI POP DUP3 PUSH0 MSTORE PUSH1 0xC DUP5 MSTORE DUP6 PUSH0 KECCAK256 DUP6 PUSH0 MSTORE DUP5 MSTORE DUP6 PUSH0 KECCAK256 SWAP1 PUSH1 0x3 PUSH1 0xFF NOT SWAP3 PUSH1 0x3 DUP5 DUP3 SLOAD AND OR SWAP1 SSTORE DUP4 DUP8 DUP7 PUSH32 0x6DF3A6475FAB2EED139F7E469995B04E85BFC5B4B8642587109CB72541F74FAE DUP10 DUP13 MLOAD TIMESTAMP DUP2 MSTORE LOG4 DUP5 PUSH0 MSTORE PUSH1 0xD DUP7 MSTORE DUP8 PUSH0 KECCAK256 DUP8 PUSH0 MSTORE DUP7 MSTORE DUP8 PUSH0 KECCAK256 DUP10 PUSH0 SWAP1 JUMPDEST PUSH2 0x18C2 JUMPI JUMPDEST PUSH2 0x3C9 DUP11 DUP11 DUP11 DUP11 PUSH0 MSTORE PUSH1 0xD DUP2 MSTORE DUP3 PUSH0 KECCAK256 SWAP2 PUSH0 MSTORE MSTORE PUSH0 KECCAK256 PUSH2 0x4ADD JUMP JUMPDEST DUP2 SLOAD DUP2 LT ISZERO PUSH2 0x19AA JUMPI SWAP1 DUP11 DUP3 DUP8 DUP12 DUP14 DUP13 PUSH2 0x18E1 DUP7 SWAP13 SWAP12 SWAP11 SWAP10 SWAP9 DUP9 PUSH2 0x43C2 JUMP JUMPDEST SWAP1 SLOAD SWAP1 DUP10 SHL SHR SWAP2 DUP14 PUSH0 MSTORE PUSH1 0xE DUP3 MSTORE DUP1 PUSH0 KECCAK256 DUP5 PUSH0 MSTORE DUP3 MSTORE DUP1 PUSH0 KECCAK256 DUP4 PUSH0 MSTORE DUP3 MSTORE DUP1 PUSH0 KECCAK256 DUP12 DUP2 SLOAD AND SWAP1 SSTORE PUSH2 0x1912 DUP5 DUP5 PUSH2 0x4D73 JUMP JUMPDEST PUSH0 MSTORE PUSH1 0x5 SWAP1 DUP2 DUP4 MSTORE DUP11 DUP9 DUP3 PUSH0 KECCAK256 ADD SLOAD AND ISZERO PUSH2 0x199F JUMPI PUSH0 DUP1 MLOAD PUSH1 0x20 PUSH2 0x5569 DUP4 CODECOPY DUP2 MLOAD SWAP2 MSTORE SWAP3 PUSH2 0x1940 DUP7 DUP7 PUSH2 0x4D73 JUMP JUMPDEST SWAP3 DUP4 PUSH0 MSTORE DUP1 DUP3 MSTORE PUSH2 0x1952 DUP4 PUSH0 KECCAK256 PUSH2 0x428D JUMP JUMPDEST SWAP4 PUSH2 0x195E DUP6 DUP10 DUP10 PUSH2 0x4EF4 JUMP JUMPDEST PUSH0 MSTORE DUP2 MSTORE DUP9 DUP3 PUSH0 KECCAK256 ADD DUP14 DUP2 SLOAD AND SWAP1 SSTORE PUSH1 0xB DUP2 MSTORE PUSH0 DUP3 DUP2 KECCAK256 SSTORE PUSH2 0x1989 DUP3 MLOAD SWAP4 DUP4 DUP6 SWAP5 DUP6 MSTORE DUP5 ADD SWAP1 PUSH2 0x432F JUMP JUMPDEST SWAP1 TIMESTAMP SWAP1 DUP4 ADD MSTORE SUB SWAP1 LOG4 JUMPDEST ADD SWAP1 SWAP2 SWAP3 SWAP4 SWAP5 SWAP6 PUSH2 0x18A2 JUMP JUMPDEST POP POP POP POP POP POP PUSH2 0x1993 JUMP JUMPDEST PUSH2 0x18A7 JUMP JUMPDEST DUP7 MLOAD PUSH3 0x461BCD PUSH1 0xE5 SHL DUP2 MSTORE SWAP1 DUP2 ADD DUP6 SWAP1 MSTORE PUSH1 0x21 PUSH1 0x24 DUP3 ADD MSTORE PUSH32 0x4E6F20616374697665206F722070656E64696E672072656C6174696F6E736869 PUSH1 0x44 DUP3 ADD MSTORE PUSH1 0x7 PUSH1 0xFC SHL PUSH1 0x64 DUP3 ADD MSTORE PUSH1 0x84 SWAP1 REVERT JUMPDEST SWAP1 SWAP2 POP PUSH2 0x1A08 DUP2 PUSH2 0x43EB JUMP JUMPDEST EQ DUP9 DUP11 PUSH2 0x1837 JUMP JUMPDEST PUSH1 0x64 SWAP1 DUP5 DUP1 DUP9 MLOAD SWAP3 PUSH3 0x461BCD PUSH1 0xE5 SHL DUP5 MSTORE DUP4 ADD MSTORE PUSH1 0x24 DUP3 ADD MSTORE PUSH32 0x4E6F74206120706172747920746F20746869732072656C6174696F6E73686970 PUSH1 0x44 DUP3 ADD MSTORE REVERT JUMPDEST POP DUP5 DUP3 EQ PUSH2 0x1803 JUMP JUMPDEST DUP3 CALLVALUE PUSH2 0x2FA JUMPI DUP1 PUSH1 0x3 NOT CALLDATASIZE ADD SLT PUSH2 0x2FA JUMPI PUSH2 0x17C2 PUSH1 0x20 SWAP3 PUSH2 0x1A79 PUSH2 0x3FB8 JUMP JUMPDEST SWAP1 CALLDATALOAD PUSH2 0x4AA0 JUMP JUMPDEST DUP3 CALLVALUE PUSH2 0x2FA JUMPI PUSH1 0x20 CALLDATASIZE PUSH1 0x3 NOT ADD SLT PUSH2 0x2FA JUMPI PUSH32 0xCE59AD7D6DABE8A7533ED7D9BD07D276A046AC7AC9A8E8E8971DA4B81104A28B PUSH1 0x20 PUSH2 0x1ABD PUSH2 0x3FA2 JUMP JUMPDEST PUSH0 SLOAD PUSH1 0x1 PUSH1 0x1 PUSH1 0xA0 SHL SUB SWAP2 SWAP1 PUSH2 0x1AD6 SWAP1 DUP4 AND CALLER EQ PUSH2 0x4588 JUMP JUMPDEST AND SWAP3 PUSH2 0x1AE3 DUP5 ISZERO ISZERO PUSH2 0x4A62 JUMP JUMPDEST PUSH1 0xA DUP1 SLOAD PUSH1 0x1 PUSH1 0x1 PUSH1 0xA0 SHL SUB NOT AND DUP6 OR SWAP1 SSTORE MLOAD TIMESTAMP DUP2 MSTORE LOG2 STOP JUMPDEST DUP3 CALLVALUE PUSH2 0x2FA JUMPI PUSH2 0x1B3E SWAP1 PUSH2 0x1B0F CALLDATASIZE PUSH2 0x438D JUMP JUMPDEST SWAP1 PUSH0 MSTORE PUSH1 0xD PUSH1 0x20 MSTORE DUP2 PUSH0 KECCAK256 SWAP1 PUSH0 MSTORE PUSH1 0x20 MSTORE PUSH2 0x1B2B DUP2 PUSH0 KECCAK256 PUSH2 0x44E9 JUMP JUMPDEST SWAP1 MLOAD SWAP2 DUP3 SWAP2 PUSH1 0x20 DUP4 MSTORE PUSH1 0x20 DUP4 ADD SWAP1 PUSH2 0x41E0 JUMP JUMPDEST SUB SWAP1 RETURN JUMPDEST DUP3 CALLVALUE PUSH2 0x2FA JUMPI PUSH1 0x20 CALLDATASIZE PUSH1 0x3 NOT ADD SLT PUSH2 0x2FA JUMPI PUSH2 0x1B3E SWAP2 CALLDATALOAD PUSH0 MSTORE PUSH1 0x6 PUSH1 0x20 MSTORE PUSH2 0x1B2B DUP2 PUSH0 KECCAK256 PUSH2 0x44E9 JUMP JUMPDEST DUP3 CALLVALUE PUSH2 0x2FA JUMPI PUSH0 CALLDATASIZE PUSH1 0x3 NOT ADD SLT PUSH2 0x2FA JUMPI PUSH1 0x20 SWAP2 SLOAD SWAP1 MLOAD SWAP1 DUP2 MSTORE RETURN JUMPDEST SWAP1 POP CALLVALUE PUSH2 0x2FA JUMPI PUSH1 0x20 CALLDATASIZE PUSH1 0x3 NOT ADD SLT PUSH2 0x2FA JUMPI PUSH2 0x1BA2 PUSH2 0x3FA2 JUMP JUMPDEST PUSH0 SLOAD PUSH1 0x1 PUSH1 0x1 PUSH1 0xA0 SHL SUB SWAP2 SWAP1 PUSH2 0x1BBB SWAP1 DUP4 AND CALLER EQ PUSH2 0x4588 JUMP JUMPDEST AND DUP1 PUSH0 MSTORE PUSH1 0x1 SWAP2 DUP3 PUSH1 0x20 MSTORE PUSH2 0x1BD4 DUP5 PUSH0 KECCAK256 SLOAD ISZERO ISZERO PUSH2 0x45C1 JUMP JUMPDEST DUP2 PUSH0 MSTORE DUP3 PUSH1 0x20 MSTORE PUSH1 0xFF DUP4 DUP6 PUSH0 KECCAK256 ADD SLOAD AND PUSH2 0x1C03 JUMPI POP SWAP2 DUP2 SWAP3 PUSH0 MSTORE DUP2 PUSH1 0x20 MSTORE PUSH0 KECCAK256 ADD SWAP1 PUSH1 0xFF NOT DUP3 SLOAD AND OR SWAP1 SSTORE PUSH0 DUP1 RETURN JUMPDEST PUSH1 0x64 SWAP1 PUSH1 0x20 DUP6 MLOAD SWAP2 PUSH3 0x461BCD PUSH1 0xE5 SHL DUP4 MSTORE DUP3 ADD MSTORE PUSH1 0x15 PUSH1 0x24 DUP3 ADD MSTORE PUSH21 0x57616C6C657420616C726561647920616374697665 PUSH1 0x58 SHL PUSH1 0x44 DUP3 ADD MSTORE REVERT JUMPDEST DUP3 CALLVALUE PUSH2 0x2FA JUMPI PUSH1 0x20 SWAP1 DUP2 PUSH1 0x3 NOT CALLDATASIZE ADD SLT PUSH2 0x2FA JUMPI DUP3 CALLDATALOAD SWAP2 PUSH2 0x1C61 PUSH2 0x321 CALLER PUSH2 0x4C18 JUMP JUMPDEST CALLER PUSH0 MSTORE PUSH1 0x1 DUP2 MSTORE DUP2 PUSH0 KECCAK256 SLOAD SWAP4 DUP4 PUSH0 MSTORE PUSH1 0xC DUP3 MSTORE DUP3 PUSH0 KECCAK256 DUP6 PUSH0 MSTORE DUP3 MSTORE DUP3 PUSH0 KECCAK256 SWAP1 DUP2 SLOAD SWAP1 PUSH1 0x1 PUSH1 0xFF DUP4 AND PUSH2 0x1C92 DUP2 PUSH2 0x43EB JUMP JUMPDEST SUB PUSH2 0x1CE1 JUMPI POP SWAP2 PUSH2 0x1CD9 PUSH1 0xFF SWAP3 PUSH1 0x2 PUSH32 0xC5B2E1BD4433EB4E9E181CC803520513D39D918C96BDDEEBCA1224E1C750963D SWAP7 SWAP6 DUP6 NOT AND OR DUP1 SWAP2 SSTORE DUP5 MLOAD SWAP4 DUP5 SWAP2 PUSH1 0x8 SHR AND PUSH2 0x4409 JUMP JUMPDEST TIMESTAMP SWAP1 DUP3 ADD MSTORE LOG3 STOP JUMPDEST DUP5 MLOAD PUSH3 0x461BCD PUSH1 0xE5 SHL DUP2 MSTORE SWAP1 DUP2 ADD DUP5 SWAP1 MSTORE PUSH1 0x13 PUSH1 0x24 DUP3 ADD MSTORE PUSH19 0x139BC81C195B991A5B99C81C1C9BDC1BDCD85B PUSH1 0x6A SHL PUSH1 0x44 DUP3 ADD MSTORE PUSH1 0x64 SWAP1 REVERT JUMPDEST DUP3 CALLVALUE PUSH2 0x2FA JUMPI PUSH0 CALLDATASIZE PUSH1 0x3 NOT ADD SLT PUSH2 0x2FA JUMPI DUP1 MLOAD PUSH2 0x1B3E SWAP2 PUSH2 0x1D3A DUP3 PUSH2 0x3FCE JUMP JUMPDEST PUSH1 0x5 DUP3 MSTORE PUSH5 0x352E302E3 PUSH1 0xDC SHL PUSH1 0x20 DUP4 ADD MSTORE MLOAD SWAP2 DUP3 SWAP2 PUSH1 0x20 DUP4 MSTORE PUSH1 0x20 DUP4 ADD SWAP1 PUSH2 0x432F JUMP JUMPDEST SWAP1 POP CALLVALUE PUSH2 0x2FA JUMPI PUSH2 0x1D6E CALLDATASIZE PUSH2 0x43A3 JUMP JUMPDEST SWAP2 PUSH2 0x1D7B PUSH2 0x321 CALLER PUSH2 0x4C18 JUMP JUMPDEST CALLER PUSH0 MSTORE PUSH1 0x1 PUSH1 0x20 MSTORE DUP4 PUSH0 KECCAK256 SLOAD SWAP1 DUP2 PUSH0 MSTORE PUSH1 0xC PUSH1 0x20 MSTORE DUP5 PUSH0 KECCAK256 DUP4 PUSH0 MSTORE PUSH1 0x20 MSTORE DUP5 PUSH0 KECCAK256 PUSH1 0xFF DUP2 SLOAD PUSH2 0x1DB7 PUSH1 0x2 DUP4 DUP4 AND PUSH2 0x1DB1 DUP2 PUSH2 0x43EB JUMP JUMPDEST EQ PUSH2 0x49B2 JUMP JUMPDEST PUSH1 0x8 SHR AND SWAP2 PUSH1 0x3 DUP7 LT ISZERO PUSH2 0xA4A JUMPI PUSH1 0x3 DUP4 LT ISZERO PUSH2 0xA4A JUMPI DUP6 DUP4 EQ PUSH2 0x1E20 JUMPI POP PUSH32 0xB36EC3C738EF8ECD9180ADDC815304762374B76E91C2A321831D9906EA119ADE PUSH2 0x1E18 DUP6 SWAP4 PUSH2 0x3C9 SWAP9 PUSH2 0x1E0B DUP10 DUP9 SWAP7 PUSH2 0x49FE JUMP JUMPDEST MLOAD SWAP2 DUP3 SWAP2 DUP10 TIMESTAMP SWAP2 DUP5 PUSH2 0x4A1D JUMP JUMPDEST SUB SWAP1 LOG3 PUSH2 0x4F9F JUMP JUMPDEST PUSH1 0x64 SWAP1 PUSH1 0x20 DUP9 MLOAD SWAP2 PUSH3 0x461BCD PUSH1 0xE5 SHL DUP4 MSTORE DUP3 ADD MSTORE PUSH1 0x18 PUSH1 0x24 DUP3 ADD MSTORE PUSH32 0x416C72656164792074686973207472757374206C6576656C0000000000000000 PUSH1 0x44 DUP3 ADD MSTORE REVERT JUMPDEST DUP3 CALLVALUE PUSH2 0x2FA JUMPI PUSH1 0x20 SWAP1 PUSH2 0x1E7E PUSH2 0x1E78 CALLDATASIZE PUSH2 0x438D JUMP JUMPDEST SWAP1 PUSH2 0x4D73 JUMP JUMPDEST PUSH0 MSTORE PUSH1 0xB DUP3 MSTORE DUP1 PUSH0 KECCAK256 SLOAD SWAP1 MLOAD SWAP1 DUP2 MSTORE RETURN JUMPDEST SWAP1 POP CALLVALUE PUSH2 0x2FA JUMPI PUSH2 0x1E9F CALLDATASIZE PUSH2 0x438D JUMP JUMPDEST SWAP1 PUSH0 MSTORE PUSH1 0xC PUSH1 0x20 MSTORE DUP3 PUSH0 KECCAK256 SWAP1 PUSH0 MSTORE PUSH1 0x20 MSTORE DUP2 PUSH0 KECCAK256 SWAP1 DUP3 MLOAD SWAP2 PUSH2 0x1EC0 DUP4 PUSH2 0x3FCE JUMP JUMPDEST SLOAD SWAP2 PUSH1 0xFF DUP4 AND PUSH2 0x1ECF DUP2 PUSH2 0x43EB JUMP JUMPDEST DUP2 MSTORE PUSH2 0x1EE5 PUSH1 0xFF PUSH1 0x20 DUP4 ADD SWAP5 PUSH1 0x8 SHR AND DUP5 PUSH2 0x4A56 JUMP JUMPDEST MLOAD SWAP2 PUSH2 0x1EF0 DUP4 PUSH2 0x43EB JUMP JUMPDEST MLOAD SWAP1 PUSH1 0x3 DUP3 LT ISZERO PUSH2 0xA4A JUMPI POP PUSH2 0x1F18 SWAP1 DUP4 MLOAD SWAP3 PUSH2 0x1F0C DUP2 PUSH2 0x43EB JUMP JUMPDEST DUP4 MSTORE PUSH1 0x20 DUP4 ADD SWAP1 PUSH2 0x4409 JUMP JUMPDEST RETURN JUMPDEST DUP3 CALLVALUE PUSH2 0x2FA JUMPI DUP1 PUSH1 0x3 NOT CALLDATASIZE ADD SLT PUSH2 0x2FA JUMPI DUP2 CALLDATALOAD SWAP1 PUSH1 0x24 CALLDATALOAD PUSH1 0x5 DUP2 LT ISZERO PUSH2 0x2FA JUMPI PUSH2 0x1F4E PUSH1 0x1 DUP1 PUSH1 0xA0 SHL SUB PUSH0 SLOAD AND CALLER EQ PUSH2 0x4588 JUMP JUMPDEST DUP3 PUSH0 MSTORE PUSH1 0x20 PUSH1 0x2 DUP2 MSTORE PUSH1 0xFF DUP4 PUSH0 KECCAK256 SLOAD AND PUSH2 0x1F67 DUP2 PUSH2 0x43EB JUMP JUMPDEST ISZERO PUSH2 0x2026 JUMPI DUP4 PUSH0 MSTORE PUSH1 0x2 DUP2 MSTORE PUSH1 0xFF DUP4 PUSH0 KECCAK256 SLOAD AND SWAP5 PUSH2 0x1F84 DUP4 PUSH2 0x43EB JUMP JUMPDEST PUSH2 0x1F8D DUP7 PUSH2 0x43EB JUMP JUMPDEST DUP3 DUP7 EQ PUSH2 0x1FEF JUMPI POP DUP4 PUSH0 MSTORE PUSH1 0x2 DUP2 MSTORE PUSH2 0x1FA8 DUP3 DUP5 PUSH0 KECCAK256 PUSH2 0x4978 JUMP JUMPDEST DUP3 MLOAD SWAP5 PUSH2 0x1FB4 DUP2 PUSH2 0x43EB JUMP JUMPDEST DUP6 MSTORE PUSH2 0x1FBF DUP3 PUSH2 0x43EB JUMP JUMPDEST DUP5 ADD MSTORE TIMESTAMP SWAP1 DUP4 ADD MSTORE PUSH32 0xF6277C6EE46649823DB9A5C531DB3112B4340C67179CAE1932BA3420DCC37CC7 PUSH1 0x60 CALLER SWAP4 LOG3 STOP JUMPDEST PUSH1 0x64 SWAP2 DUP5 MLOAD SWAP2 PUSH3 0x461BCD PUSH1 0xE5 SHL DUP4 MSTORE DUP3 ADD MSTORE PUSH1 0x13 PUSH1 0x24 DUP3 ADD MSTORE PUSH19 0x416C7265616479207468697320737461747573 PUSH1 0x68 SHL PUSH1 0x44 DUP3 ADD MSTORE REVERT JUMPDEST DUP5 PUSH1 0x64 SWAP2 DUP5 MLOAD SWAP2 PUSH3 0x461BCD PUSH1 0xE5 SHL DUP4 MSTORE DUP3 ADD MSTORE PUSH1 0x13 PUSH1 0x24 DUP3 ADD MSTORE PUSH19 0x155CD95C881B9BDD081C9959DA5CDD195C9959 PUSH1 0x6A SHL PUSH1 0x44 DUP3 ADD MSTORE REVERT JUMPDEST DUP3 CALLVALUE PUSH2 0x2FA JUMPI PUSH2 0x206D CALLDATASIZE PUSH2 0x438D JUMP JUMPDEST SWAP2 SWAP1 PUSH0 MSTORE PUSH1 0x3 PUSH1 0x20 MSTORE DUP1 PUSH0 KECCAK256 DUP1 SLOAD DUP4 LT ISZERO PUSH2 0x2FA JUMPI PUSH1 0x20 SWAP3 PUSH2 0x208E SWAP2 PUSH2 0x43C2 JUMP JUMPDEST PUSH1 0x1 DUP1 PUSH1 0xA0 SHL SUB SWAP2 SLOAD SWAP1 PUSH1 0x3 SHL SHR AND SWAP1 MLOAD SWAP1 DUP2 MSTORE RETURN JUMPDEST DUP3 CALLVALUE PUSH2 0x2FA JUMPI PUSH2 0x20B3 CALLDATASIZE PUSH2 0x438D JUMP JUMPDEST SWAP2 SWAP1 PUSH0 MSTORE PUSH1 0x9 PUSH1 0x20 MSTORE DUP1 PUSH0 KECCAK256 DUP1 SLOAD DUP4 LT ISZERO PUSH2 0x2FA JUMPI PUSH1 0x20 SWAP3 PUSH2 0x526 SWAP2 PUSH2 0x43C2 JUMP JUMPDEST DUP3 CALLVALUE PUSH2 0x2FA JUMPI PUSH1 0x20 DUP1 PUSH1 0x3 NOT CALLDATASIZE ADD SLT PUSH2 0x2FA JUMPI PUSH1 0x80 SWAP3 CALLDATALOAD PUSH0 MSTORE PUSH1 0x6 DUP2 MSTORE DUP2 PUSH0 KECCAK256 SLOAD SWAP2 PUSH1 0x7 DUP3 MSTORE DUP1 PUSH0 KECCAK256 SLOAD SWAP1 PUSH1 0x8 DUP4 MSTORE DUP1 PUSH0 KECCAK256 SLOAD SWAP2 PUSH1 0x9 DUP5 MSTORE DUP2 PUSH0 KECCAK256 SLOAD SWAP4 DUP3 MLOAD SWAP6 DUP7 MSTORE DUP6 ADD MSTORE DUP4 ADD MSTORE PUSH1 0x60 DUP3 ADD MSTORE RETURN JUMPDEST DUP3 CALLVALUE PUSH2 0x2FA JUMPI PUSH1 0x20 CALLDATASIZE PUSH1 0x3 NOT ADD SLT PUSH2 0x2FA JUMPI PUSH1 0x1 PUSH1 0x1 PUSH1 0xA0 SHL SUB PUSH2 0x2145 PUSH2 0x3FA2 JUMP JUMPDEST AND PUSH0 MSTORE PUSH1 0x1 PUSH1 0x20 MSTORE DUP1 PUSH0 KECCAK256 PUSH1 0xFF PUSH1 0x1 DUP3 SLOAD SWAP3 ADD SLOAD AND DUP3 MLOAD SWAP2 DUP3 MSTORE ISZERO ISZERO PUSH1 0x20 DUP3 ADD MSTORE RETURN JUMPDEST DUP3 CALLVALUE PUSH2 0x2FA JUMPI PUSH2 0x2177 CALLDATASIZE PUSH2 0x438D JUMP JUMPDEST SWAP2 SWAP1 PUSH0 MSTORE PUSH1 0x7 PUSH1 0x20 MSTORE DUP1 PUSH0 KECCAK256 DUP1 SLOAD DUP4 LT ISZERO PUSH2 0x2FA JUMPI PUSH1 0x20 SWAP3 PUSH2 0x526 SWAP2 PUSH2 0x43C2 JUMP JUMPDEST SWAP1 POP CALLVALUE PUSH2 0x2FA JUMPI PUSH0 CALLDATASIZE PUSH1 0x3 NOT ADD SLT PUSH2 0x2FA JUMPI PUSH32 0xF0C57E16840DF040F15088DC2F81FE391C3923BEC73E23A9662EFC9C229C6A00 SWAP1 DUP2 SLOAD PUSH1 0xFF DUP2 DUP6 SHR AND ISZERO SWAP2 PUSH1 0x1 PUSH1 0x1 PUSH1 0x40 SHL SUB DUP3 AND DUP1 ISZERO SWAP1 DUP2 PUSH2 0x22AD JUMPI JUMPDEST PUSH1 0x1 EQ SWAP1 DUP2 PUSH2 0x22A3 JUMPI JUMPDEST ISZERO SWAP1 DUP2 PUSH2 0x229A JUMPI JUMPDEST POP PUSH2 0x228C JUMPI POP PUSH8 0xFFFFFFFFFFFFFFFF NOT DUP2 AND PUSH1 0x1 OR DUP4 SSTORE DUP2 PUSH2 0x226D JUMPI JUMPDEST POP PUSH0 DUP1 SLOAD PUSH1 0x1 PUSH1 0x1 PUSH1 0xA0 SHL SUB NOT AND CALLER OR SWAP1 SSTORE PUSH2 0x2230 JUMPI STOP JUMPDEST DUP1 SLOAD PUSH9 0xFF0000000000000000 NOT AND SWAP1 SSTORE MLOAD PUSH1 0x1 DUP2 MSTORE PUSH32 0xC7F505B2F371AE2175EE4913F4499E1F2633A7B5936321EED1CDAEB6115181D2 SWAP1 PUSH1 0x20 SWAP1 LOG1 STOP JUMPDEST PUSH9 0xFFFFFFFFFFFFFFFFFF NOT AND PUSH9 0x10000000000000001 OR DUP3 SSTORE PUSH0 PUSH2 0x2218 JUMP JUMPDEST DUP5 MLOAD PUSH4 0xF92EE8A9 PUSH1 0xE0 SHL DUP2 MSTORE REVERT JUMPDEST SWAP1 POP ISZERO PUSH0 PUSH2 0x21FB JUMP JUMPDEST ADDRESS EXTCODESIZE ISZERO SWAP2 POP PUSH2 0x21F3 JUMP JUMPDEST DUP5 SWAP2 POP PUSH2 0x21E9 JUMP JUMPDEST DUP3 CALLVALUE PUSH2 0x2FA JUMPI PUSH2 0x22C4 CALLDATASIZE PUSH2 0x438D JUMP JUMPDEST SWAP1 PUSH0 MSTORE PUSH1 0xC PUSH1 0x20 MSTORE DUP2 PUSH0 KECCAK256 SWAP1 PUSH0 MSTORE PUSH1 0x20 MSTORE DUP1 PUSH0 KECCAK256 SLOAD PUSH2 0x1F18 PUSH1 0xFF DUP3 AND SWAP2 DUP4 MLOAD SWAP3 PUSH2 0x22ED DUP2 PUSH2 0x43EB JUMP JUMPDEST DUP4 MSTORE PUSH1 0xFF PUSH1 0x20 DUP5 ADD SWAP2 PUSH1 0x8 SHR AND PUSH2 0x4409 JUMP JUMPDEST DUP3 CALLVALUE PUSH2 0x2FA JUMPI PUSH1 0x20 SWAP2 DUP3 PUSH1 0x3 NOT CALLDATASIZE ADD SLT PUSH2 0x2FA JUMPI PUSH2 0x237B SWAP3 PUSH2 0x1B3E SWAP2 CALLDATALOAD PUSH0 MSTORE PUSH1 0x6 DUP2 MSTORE PUSH2 0x2395 DUP4 PUSH0 KECCAK256 SWAP4 PUSH1 0x7 DUP4 MSTORE DUP1 PUSH0 KECCAK256 SWAP5 PUSH1 0x8 DUP5 MSTORE PUSH2 0x2388 DUP3 PUSH0 KECCAK256 SWAP5 PUSH1 0x9 DUP2 MSTORE PUSH2 0x2367 PUSH2 0x2361 PUSH2 0x235B PUSH2 0x2355 DUP8 PUSH0 KECCAK256 SWAP7 PUSH2 0x44E9 JUMP JUMPDEST SWAP11 PUSH2 0x44E9 JUMP JUMPDEST SWAP8 PUSH2 0x44E9 JUMP JUMPDEST SWAP4 PUSH2 0x44E9 JUMP JUMPDEST SWAP6 DUP5 MLOAD SWAP10 DUP11 SWAP10 PUSH1 0x80 DUP12 MSTORE PUSH1 0x80 DUP12 ADD SWAP1 PUSH2 0x41E0 JUMP JUMPDEST SWAP2 DUP10 DUP4 SUB SWAP1 DUP11 ADD MSTORE PUSH2 0x41E0 JUMP JUMPDEST SWAP2 DUP7 DUP4 SUB SWAP1 DUP8 ADD MSTORE PUSH2 0x41E0 JUMP JUMPDEST SWAP1 DUP4 DUP3 SUB PUSH1 0x60 DUP6 ADD MSTORE PUSH2 0x41E0 JUMP JUMPDEST DUP3 CALLVALUE PUSH2 0x2FA JUMPI PUSH1 0x20 CALLDATASIZE PUSH1 0x3 NOT ADD SLT PUSH2 0x2FA JUMPI PUSH1 0x20 SWAP1 PUSH2 0x23C0 PUSH2 0x3FA2 JUMP JUMPDEST PUSH0 SLOAD SWAP2 SWAP1 PUSH1 0x1 PUSH1 0x1 PUSH1 0xA0 SHL SUB DUP1 DUP5 AND SWAP2 PUSH32 0x38DF5FA0F7FEF0D515CA1F5388CB5790AC5885D5FCA8D05D9F943E563C33A4B3 SWAP2 SWAP1 PUSH2 0x23FE CALLER DUP6 EQ PUSH2 0x4588 JUMP JUMPDEST AND SWAP5 DUP6 SWAP4 PUSH2 0x240D DUP6 ISZERO ISZERO PUSH2 0x4A62 JUMP JUMPDEST MLOAD TIMESTAMP DUP2 MSTORE LOG3 PUSH1 0x1 PUSH1 0x1 PUSH1 0xA0 SHL SUB NOT AND OR PUSH0 SSTORE STOP JUMPDEST SWAP1 POP CALLVALUE PUSH2 0x2FA JUMPI PUSH2 0x2431 CALLDATASIZE PUSH2 0x4213 JUMP JUMPDEST SWAP4 SWAP1 SWAP3 PUSH1 0x1 DUP1 PUSH1 0xA0 SHL SUB PUSH2 0x2449 DUP2 PUSH0 SLOAD AND CALLER EQ PUSH2 0x4588 JUMP JUMPDEST PUSH2 0x2454 DUP5 ISZERO ISZERO PUSH2 0x4605 JUMP JUMPDEST DUP5 AND PUSH2 0x2461 DUP2 ISZERO ISZERO PUSH2 0x4869 JUMP JUMPDEST PUSH2 0x246D PUSH2 0xB7C DUP8 PUSH2 0x4CFB JUMP JUMPDEST PUSH0 MSTORE PUSH1 0x1 PUSH1 0x20 SWAP2 DUP2 DUP4 MSTORE PUSH2 0x248F DUP5 PUSH0 KECCAK256 SLOAD SWAP7 PUSH2 0x248A DUP9 ISZERO ISZERO PUSH2 0x45C1 JUMP JUMPDEST PUSH2 0x4C18 JUMP JUMPDEST ISZERO PUSH2 0x26FE JUMPI DUP5 PUSH0 MSTORE PUSH1 0x6 DUP4 MSTORE DUP4 PUSH0 KECCAK256 SLOAD ISZERO DUP1 PUSH2 0x26EF JUMPI JUMPDEST ISZERO PUSH2 0x26AC JUMPI PUSH2 0x24B5 DUP7 DUP7 PUSH2 0x4D73 JUMP JUMPDEST SWAP2 DUP3 PUSH0 MSTORE PUSH1 0x5 DUP5 MSTORE DUP5 PUSH0 KECCAK256 SWAP2 PUSH1 0xFF DUP3 PUSH2 0x24CD DUP6 PUSH2 0x428D JUMP JUMPDEST SWAP5 ADD SLOAD AND SWAP2 DUP7 MLOAD SWAP2 PUSH2 0x24DE DUP4 PUSH2 0x3FCE JUMP JUMPDEST DUP11 DUP4 MSTORE DUP7 DUP4 ADD SWAP1 DUP3 DUP3 MSTORE DUP7 PUSH0 MSTORE PUSH1 0x5 DUP9 MSTORE DUP9 PUSH0 KECCAK256 SWAP4 MLOAD DUP1 MLOAD SWAP2 PUSH1 0x1 PUSH1 0x1 PUSH1 0x40 SHL SUB DUP4 GT PUSH2 0x2699 JUMPI POP PUSH2 0x2510 DUP6 SLOAD PUSH2 0x4255 JUMP JUMPDEST PUSH1 0x1F DUP2 GT PUSH2 0x2653 JUMPI JUMPDEST POP DUP9 SWAP1 PUSH1 0x1F DUP4 GT PUSH1 0x1 EQ PUSH2 0x25EC JUMPI PUSH2 0x2560 SWAP6 SWAP5 SWAP4 SWAP3 SWAP2 PUSH0 SWAP2 DUP4 PUSH2 0x25E1 JUMPI JUMPDEST POP POP PUSH0 NOT PUSH1 0x3 DUP4 SWAP1 SHL SHR NOT AND SWAP1 DUP4 SHL OR DUP4 SSTORE JUMPDEST MLOAD ISZERO ISZERO SWAP2 ADD SWAP1 PUSH1 0xFF DUP1 NOT DUP4 SLOAD AND SWAP2 ISZERO ISZERO AND OR SWAP1 SSTORE JUMP JUMPDEST PUSH2 0x25B4 JUMPI POP SWAP2 PUSH0 SWAP6 SWAP2 PUSH32 0xF9D17EB1340AB78960B594FF8BED1349985B800EE21199C6D5EA4A67454593AD SWAP4 DUP8 MSTORE PUSH1 0xB DUP2 MSTORE DUP7 DUP3 DUP2 KECCAK256 SSTORE PUSH2 0x25A1 DUP4 DUP8 DUP8 PUSH2 0x542C JUMP JUMPDEST PUSH2 0x133B DUP3 MLOAD SWAP4 DUP4 DUP6 SWAP5 DUP6 MSTORE DUP5 ADD SWAP1 PUSH2 0x432F JUMP JUMPDEST SWAP6 SWAP5 SWAP4 SWAP3 POP POP DUP5 MLOAD DUP2 DUP7 ADD KECCAK256 SWAP1 DUP5 MLOAD SWAP1 DUP6 ADD KECCAK256 SUB PUSH2 0x25CE JUMPI STOP JUMPDEST PUSH2 0x25DC PUSH2 0x3C9 SWAP5 DUP4 DUP4 PUSH2 0x4EF4 JUMP JUMPDEST PUSH2 0x542C JUMP JUMPDEST ADD MLOAD SWAP1 POP PUSH0 DUP1 PUSH2 0x2537 JUMP JUMPDEST SWAP1 PUSH1 0x1F NOT DUP4 AND SWAP2 DUP7 PUSH0 MSTORE DUP11 PUSH0 KECCAK256 SWAP3 PUSH0 JUMPDEST DUP13 DUP3 DUP3 LT PUSH2 0x263F JUMPI POP POP SWAP2 DUP7 SWAP6 SWAP5 SWAP3 SWAP2 DUP4 PUSH2 0x2560 SWAP10 SWAP9 SWAP6 SWAP4 LT PUSH2 0x2627 JUMPI JUMPDEST POP POP POP DUP2 SHL ADD DUP4 SSTORE PUSH2 0x254A JUMP JUMPDEST ADD MLOAD PUSH0 NOT PUSH1 0xF8 DUP5 PUSH1 0x3 SHL AND SHR NOT AND SWAP1 SSTORE PUSH0 DUP1 DUP1 PUSH2 0x261A JUMP JUMPDEST DUP4 DUP6 ADD MLOAD DUP7 SSTORE SWAP5 DUP9 ADD SWAP5 SWAP4 DUP5 ADD SWAP4 ADD PUSH2 0x25FC JUMP JUMPDEST DUP6 PUSH0 MSTORE DUP10 PUSH0 KECCAK256 PUSH1 0x1F DUP5 ADD PUSH1 0x5 SHR DUP2 ADD SWAP2 DUP12 DUP6 LT PUSH2 0x268F JUMPI JUMPDEST PUSH1 0x1F ADD PUSH1 0x5 SHR ADD SWAP1 DUP6 SWAP1 JUMPDEST DUP3 DUP2 LT PUSH2 0x2684 JUMPI POP POP PUSH2 0x2519 JUMP JUMPDEST PUSH0 DUP2 SSTORE ADD DUP6 SWAP1 PUSH2 0x2676 JUMP JUMPDEST SWAP1 SWAP2 POP DUP2 SWAP1 PUSH2 0x266B JUMP JUMPDEST PUSH1 0x41 SWAP1 PUSH4 0x4E487B71 PUSH1 0xE0 SHL PUSH0 MSTORE MSTORE PUSH1 0x24 PUSH0 REVERT JUMPDEST DUP4 MLOAD PUSH3 0x461BCD PUSH1 0xE5 SHL DUP2 MSTORE SWAP1 DUP2 ADD DUP4 SWAP1 MSTORE PUSH1 0x1A PUSH1 0x24 DUP3 ADD MSTORE PUSH32 0x5265636F726420616C726561647920696E697469616C697A6564000000000000 PUSH1 0x44 DUP3 ADD MSTORE PUSH1 0x64 SWAP1 REVERT JUMPDEST POP PUSH1 0x7 DUP4 MSTORE DUP4 PUSH0 KECCAK256 SLOAD ISZERO PUSH2 0x24A6 JUMP JUMPDEST DUP4 MLOAD PUSH3 0x461BCD PUSH1 0xE5 SHL DUP2 MSTORE SWAP1 DUP2 ADD DUP4 SWAP1 MSTORE PUSH1 0x18 PUSH1 0x24 DUP3 ADD MSTORE PUSH32 0x4D75737420626520616E20616374697665206D656D6265720000000000000000 PUSH1 0x44 DUP3 ADD MSTORE PUSH1 0x64 SWAP1 REVERT JUMPDEST DUP3 CALLVALUE PUSH2 0x2FA JUMPI DUP1 PUSH1 0x3 NOT CALLDATASIZE ADD SLT PUSH2 0x2FA JUMPI PUSH1 0x1 PUSH1 0x1 PUSH1 0x40 SHL SUB SWAP1 DUP3 CALLDATALOAD DUP3 DUP2 GT PUSH2 0x2FA JUMPI CALLDATASIZE PUSH1 0x23 DUP3 ADD SLT ISZERO PUSH2 0x2FA JUMPI DUP1 DUP5 ADD CALLDATALOAD SWAP3 DUP4 GT PUSH2 0x2FA JUMPI PUSH1 0x24 PUSH1 0x5 SWAP2 CALLDATASIZE PUSH1 0x24 DUP7 PUSH1 0x5 SHL DUP4 ADD ADD GT PUSH2 0x2FA JUMPI PUSH0 SLOAD PUSH1 0x1 PUSH1 0x1 PUSH1 0xA0 SHL SUB SWAP7 PUSH1 0x24 CALLDATALOAD SWAP6 SWAP2 PUSH2 0x27AB SWAP1 DUP10 AND CALLER EQ PUSH2 0x4588 JUMP JUMPDEST DUP7 ISZERO PUSH2 0x28FC JUMPI PUSH2 0x27BC DUP7 ISZERO ISZERO PUSH2 0x48AE JUMP JUMPDEST DUP6 PUSH0 MSTORE PUSH1 0x2 SWAP4 PUSH1 0x20 SWAP4 PUSH1 0x2 DUP6 MSTORE PUSH1 0xFF DUP5 PUSH0 KECCAK256 SLOAD AND PUSH2 0x27D9 DUP2 PUSH2 0x43EB JUMP JUMPDEST ISZERO SWAP7 PUSH0 JUMPDEST DUP11 DUP2 LT PUSH2 0x27E6 JUMPI STOP JUMPDEST DUP4 DUP2 DUP4 SHL DUP5 ADD ADD CALLDATALOAD SWAP1 DUP13 DUP3 AND SWAP2 DUP3 DUP2 SUB PUSH2 0x2FA JUMPI DUP3 PUSH2 0x286D DUP14 SWAP3 PUSH2 0x280D PUSH1 0x1 SWAP7 ISZERO ISZERO PUSH2 0x4869 JUMP JUMPDEST DUP3 PUSH0 MSTORE PUSH2 0x285E DUP12 DUP14 DUP9 SWAP1 DUP2 DUP2 MSTORE PUSH2 0x2827 DUP4 PUSH0 KECCAK256 SLOAD ISZERO PUSH2 0x48F1 JUMP JUMPDEST DUP3 MLOAD SWAP3 PUSH2 0x2833 DUP5 PUSH2 0x3FCE JUMP JUMPDEST DUP9 DUP5 MSTORE DUP3 DUP3 DUP6 ADD SWAP3 DUP2 DUP5 MSTORE DUP10 PUSH0 MSTORE MSTORE PUSH0 KECCAK256 SWAP3 MLOAD DUP4 SSTORE MLOAD ISZERO ISZERO SWAP2 ADD SWAP1 PUSH1 0xFF DUP1 NOT DUP4 SLOAD AND SWAP2 ISZERO ISZERO AND OR SWAP1 SSTORE JUMP JUMPDEST DUP4 PUSH0 MSTORE PUSH1 0x3 DUP13 MSTORE DUP11 PUSH0 KECCAK256 PUSH2 0x493D JUMP JUMPDEST DUP3 ISZERO DUP1 PUSH2 0x28F5 JUMPI JUMPDEST ISZERO PUSH2 0x28C8 JUMPI DUP2 PUSH0 MSTORE DUP11 DUP11 MSTORE DUP9 PUSH0 KECCAK256 DUP12 PUSH1 0xFF NOT DUP3 SLOAD AND OR SWAP1 SSTORE PUSH2 0x2897 DUP9 SLOAD PUSH2 0x4990 JUMP JUMPDEST DUP9 SSTORE PUSH32 0x39D132591EE0696DE49AB564E4A90E430C006561917DB731A2A614DD2D245591 DUP11 DUP11 MLOAD TIMESTAMP DUP2 MSTORE LOG3 JUMPDEST ADD PUSH2 0x27DD JUMP JUMPDEST PUSH32 0x1CC138F50384BE7770A8E4A34EECAA0D0C718BFAA1641AF49DB32532E4A5B910 DUP11 DUP11 MLOAD TIMESTAMP DUP2 MSTORE LOG3 PUSH2 0x28C2 JUMP JUMPDEST POP DUP12 PUSH2 0x2875 JUMP JUMPDEST PUSH1 0x20 PUSH1 0x64 SWAP3 MLOAD SWAP2 PUSH3 0x461BCD PUSH1 0xE5 SHL DUP4 MSTORE DUP3 ADD MSTORE PUSH1 0x13 PUSH1 0x24 DUP3 ADD MSTORE PUSH19 0x139BC81DD85B1B195D1CC81C1C9BDD9A591959 PUSH1 0x6A SHL PUSH1 0x44 DUP3 ADD MSTORE REVERT JUMPDEST DUP3 CALLVALUE PUSH2 0x2FA JUMPI PUSH1 0x20 SWAP1 PUSH2 0x17C2 PUSH2 0x2949 CALLDATASIZE PUSH2 0x438D JUMP JUMPDEST SWAP1 PUSH2 0x4E05 JUMP JUMPDEST DUP3 CALLVALUE PUSH2 0x2FA JUMPI PUSH2 0x295E CALLDATASIZE PUSH2 0x438D JUMP JUMPDEST SWAP2 SWAP1 PUSH0 MSTORE PUSH1 0x6 PUSH1 0x20 MSTORE DUP1 PUSH0 KECCAK256 DUP1 SLOAD DUP4 LT ISZERO PUSH2 0x2FA JUMPI PUSH1 0x20 SWAP3 PUSH2 0x526 SWAP2 PUSH2 0x43C2 JUMP JUMPDEST DUP3 CALLVALUE PUSH2 0x2FA JUMPI PUSH2 0x298E CALLDATASIZE PUSH2 0x438D JUMP JUMPDEST SWAP1 PUSH0 MSTORE PUSH1 0xC PUSH1 0x20 MSTORE DUP2 PUSH0 KECCAK256 SWAP1 PUSH0 MSTORE PUSH1 0x20 MSTORE DUP1 PUSH0 KECCAK256 SWAP1 PUSH1 0x2 DUP2 MLOAD SWAP3 PUSH2 0x29B1 DUP5 PUSH2 0x3FCE JUMP JUMPDEST SLOAD SWAP3 PUSH1 0xFF DUP5 AND PUSH2 0x29C0 DUP2 PUSH2 0x43EB JUMP JUMPDEST DUP2 MSTORE PUSH2 0x29D6 PUSH1 0xFF PUSH1 0x20 DUP4 ADD SWAP6 PUSH1 0x8 SHR AND DUP6 PUSH2 0x4A56 JUMP JUMPDEST MLOAD PUSH2 0x29E0 DUP2 PUSH2 0x43EB JUMP JUMPDEST PUSH2 0x29E9 DUP2 PUSH2 0x43EB JUMP JUMPDEST EQ SWAP2 DUP3 PUSH2 0x29FD JUMPI JUMPDEST PUSH1 0x20 DUP4 DUP4 MLOAD SWAP1 ISZERO ISZERO DUP2 MSTORE RETURN JUMPDEST SWAP1 SWAP2 POP MLOAD SWAP2 PUSH1 0x3 DUP4 LT ISZERO PUSH2 0xA4A JUMPI POP PUSH1 0x2 PUSH1 0x20 SWAP3 EQ SWAP1 DUP4 PUSH2 0x29F1 JUMP JUMPDEST DUP3 CALLVALUE PUSH2 0x2FA JUMPI PUSH0 CALLDATASIZE PUSH1 0x3 NOT ADD SLT PUSH2 0x2FA JUMPI PUSH32 0x0 PUSH1 0x1 PUSH1 0x1 PUSH1 0xA0 SHL SUB AND ADDRESS SUB PUSH2 0x2A83 JUMPI PUSH1 0x20 SWAP1 MLOAD PUSH32 0x360894A13BA1A3210667C828492DB98DCA3E2076CC3735A920A3CA505D382BBC DUP2 MSTORE RETURN JUMPDEST MLOAD PUSH4 0x703E46DD PUSH1 0xE1 SHL DUP2 MSTORE REVERT JUMPDEST DUP3 CALLVALUE PUSH2 0x2FA JUMPI PUSH2 0x2A9F CALLDATASIZE PUSH2 0x4113 JUMP JUMPDEST SWAP1 PUSH2 0x2AAC PUSH2 0x321 CALLER PUSH2 0x4C18 JUMP JUMPDEST PUSH2 0x2AB9 DUP4 MLOAD DUP4 MLOAD EQ PUSH2 0x4459 JUMP JUMPDEST CALLER PUSH0 MSTORE PUSH1 0x1 SWAP4 PUSH1 0x20 SWAP2 DUP6 DUP4 MSTORE DUP2 PUSH0 KECCAK256 SLOAD SWAP1 PUSH1 0x1 DUP1 PUSH1 0xA0 SHL SUB AND PUSH0 MSTORE DUP2 PUSH0 KECCAK256 SLOAD SWAP1 PUSH2 0x2AE4 DUP3 ISZERO ISZERO PUSH2 0x449D JUMP JUMPDEST DUP7 PUSH0 SWAP7 DUP4 DUP4 EQ SWAP2 JUMPDEST PUSH2 0x2AF2 JUMPI STOP JUMPDEST DUP1 MLOAD DUP9 LT ISZERO PUSH2 0x3C9 JUMPI DUP9 DUP9 PUSH2 0x2B08 DUP3 SWAP11 DUP5 PUSH2 0x4A42 JUMP JUMPDEST MLOAD PUSH2 0x2B13 DUP3 DUP12 PUSH2 0x4A42 JUMP JUMPDEST MLOAD PUSH2 0x2B1D DUP2 PUSH2 0x4CFB JUMP JUMPDEST ISZERO PUSH2 0x2E0F JUMPI PUSH2 0x2B2C DUP8 DUP4 PUSH2 0x4D73 JUMP JUMPDEST PUSH0 MSTORE PUSH1 0x5 DUP1 DUP12 MSTORE PUSH1 0xFF DUP1 DUP7 DUP13 PUSH0 KECCAK256 ADD SLOAD AND ISZERO PUSH2 0x2E06 JUMPI PUSH2 0x2B4C DUP11 DUP6 PUSH2 0x4D73 JUMP JUMPDEST PUSH0 MSTORE DUP2 DUP13 MSTORE DUP6 DUP12 PUSH0 KECCAK256 ADD SLOAD AND ISZERO PUSH2 0x2DFE JUMPI PUSH2 0x2B67 DUP10 DUP5 PUSH2 0x4D73 JUMP JUMPDEST PUSH0 MSTORE DUP11 MSTORE PUSH2 0x2B76 DUP10 PUSH0 KECCAK256 PUSH2 0x428D JUMP JUMPDEST SWAP1 DUP9 DUP9 DUP13 DUP5 MLOAD DUP2 DUP7 ADD KECCAK256 DUP14 DUP6 MLOAD DUP4 DUP8 ADD KECCAK256 SWAP1 DUP2 DUP4 EQ PUSH2 0x2C82 JUMPI PUSH2 0x2B97 PUSH2 0x4737 JUMP JUMPDEST DUP5 DUP2 MLOAD SWAP2 ADD KECCAK256 DUP4 EQ PUSH2 0x2C82 JUMPI DUP9 PUSH0 MSTORE PUSH1 0x6 DUP5 MSTORE PUSH0 KECCAK256 SLOAD ISZERO SWAP2 DUP3 ISZERO PUSH2 0x2BC3 PUSH2 0x2BBC PUSH2 0x4737 JUMP JUMPDEST DUP8 DUP13 PUSH2 0x4DA7 JUMP JUMPDEST SWAP1 PUSH2 0x2BD6 PUSH2 0x2BCF PUSH2 0x4758 JUMP JUMPDEST DUP9 DUP14 PUSH2 0x4DA7 JUMP JUMPDEST SWAP1 PUSH2 0x2BE4 DUP13 DUP10 PUSH2 0x76E PUSH2 0x4781 JUMP JUMPDEST PUSH2 0x2BEC PUSH2 0x4737 JUMP JUMPDEST DUP1 MLOAD SWAP1 DUP10 ADD KECCAK256 DUP7 SUB PUSH2 0x2CA4 JUMPI POP ISZERO PUSH2 0x2C90 JUMPI POP ISZERO PUSH2 0x2C82 JUMPI JUMPDEST PUSH2 0x2C0D PUSH2 0x4758 JUMP JUMPDEST DUP5 DUP2 MLOAD SWAP2 ADD KECCAK256 EQ SWAP3 DUP4 PUSH2 0x2C68 JUMPI JUMPDEST POP POP DUP2 PUSH2 0x2C60 JUMPI JUMPDEST POP DUP1 PUSH2 0x2C48 JUMPI JUMPDEST PUSH2 0x2C3E JUMPI PUSH2 0x2C37 SWAP5 PUSH2 0x4E8F JUMP JUMPDEST ADD SWAP8 PUSH2 0x2AEC JUMP JUMPDEST POP POP POP POP POP PUSH2 0x2C37 JUMP JUMPDEST POP POP POP DUP3 PUSH0 MSTORE PUSH1 0x7 DUP12 MSTORE DUP9 DUP9 DUP7 DUP13 PUSH0 KECCAK256 SLOAD GT ISZERO PUSH2 0x2C2A JUMP JUMPDEST SWAP1 POP PUSH0 PUSH2 0x2C23 JUMP JUMPDEST SWAP1 SWAP2 SWAP3 POP PUSH2 0x2C74 PUSH2 0x47A3 JUMP JUMPDEST DUP1 MLOAD SWAP2 ADD KECCAK256 EQ SWAP1 PUSH0 DUP16 PUSH2 0x2C1B JUMP JUMPDEST POP POP POP POP POP POP POP POP POP PUSH2 0x2C37 JUMP JUMPDEST SWAP1 POP PUSH2 0x2C05 JUMPI POP POP POP POP POP POP POP POP POP PUSH2 0x2C37 JUMP JUMPDEST SWAP2 SWAP3 SWAP1 PUSH2 0x2CAF PUSH2 0x4758 JUMP JUMPDEST DUP1 MLOAD SWAP1 DUP10 ADD KECCAK256 DUP7 SUB PUSH2 0x2CDA JUMPI POP SWAP1 POP ISZERO SWAP1 DUP2 PUSH2 0x2CD1 JUMPI JUMPDEST POP PUSH2 0x2C82 JUMPI JUMPDEST PUSH2 0x2C05 JUMP JUMPDEST SWAP1 POP ISZERO PUSH0 PUSH2 0x2CC6 JUMP JUMPDEST PUSH2 0x2CE2 PUSH2 0x4781 JUMP JUMPDEST DUP1 MLOAD SWAP1 DUP10 ADD KECCAK256 DUP7 SUB PUSH2 0x2D6D JUMPI ISZERO PUSH2 0x2D39 JUMPI ISZERO SWAP2 DUP3 PUSH2 0x2D21 JUMPI JUMPDEST POP DUP2 PUSH2 0x2D0B JUMPI POP PUSH2 0x2C82 JUMPI PUSH2 0x2C05 JUMP JUMPDEST SWAP1 POP DUP1 PUSH2 0x2D1A JUMPI JUMPDEST ISZERO PUSH0 PUSH2 0x2CC6 JUMP JUMPDEST POP DUP13 PUSH2 0x2D13 JUMP JUMPDEST SWAP1 SWAP2 POP DUP1 PUSH2 0x2D32 JUMPI JUMPDEST ISZERO SWAP1 PUSH0 PUSH2 0x2CFB JUMP JUMPDEST POP DUP14 PUSH2 0x2D2A JUMP JUMPDEST POP SWAP1 ISZERO SWAP1 DUP2 PUSH2 0x2D57 JUMPI JUMPDEST POP ISZERO PUSH2 0x2CCC JUMPI POP POP POP POP POP POP POP POP POP PUSH2 0x2C37 JUMP JUMPDEST SWAP1 POP DUP1 PUSH2 0x2D66 JUMPI JUMPDEST ISZERO PUSH0 PUSH2 0x2D43 JUMP JUMPDEST POP DUP13 PUSH2 0x2D5F JUMP JUMPDEST PUSH2 0x2D75 PUSH2 0x47A3 JUMP JUMPDEST DUP9 DUP2 MLOAD SWAP2 ADD KECCAK256 DUP7 EQ PUSH2 0x2D8B JUMPI JUMPDEST POP POP POP POP PUSH2 0x2C05 JUMP JUMPDEST ISZERO PUSH2 0x2DEA JUMPI ISZERO SWAP2 DUP3 PUSH2 0x2DD2 JUMPI JUMPDEST POP DUP2 PUSH2 0x2DBC JUMPI JUMPDEST POP PUSH2 0x2C82 JUMPI JUMPDEST PUSH2 0x2DAF DUP7 DUP11 PUSH2 0x4E05 JUMP JUMPDEST PUSH2 0x2C82 JUMPI PUSH0 DUP1 DUP1 DUP1 PUSH2 0x2D82 JUMP JUMPDEST SWAP1 POP DUP1 PUSH2 0x2DCB JUMPI JUMPDEST ISZERO PUSH0 PUSH2 0x2D9F JUMP JUMPDEST POP DUP13 PUSH2 0x2DC4 JUMP JUMPDEST SWAP1 SWAP2 POP DUP1 PUSH2 0x2DE3 JUMPI JUMPDEST ISZERO SWAP1 PUSH0 PUSH2 0x2D98 JUMP JUMPDEST POP DUP14 PUSH2 0x2DDB JUMP JUMPDEST POP POP PUSH2 0x2DA5 JUMPI POP POP POP POP POP POP POP POP POP PUSH2 0x2C37 JUMP JUMPDEST POP POP POP PUSH2 0x2C37 JUMP JUMPDEST POP POP POP POP PUSH2 0x2C37 JUMP JUMPDEST POP POP PUSH2 0x2C37 JUMP JUMPDEST SWAP1 POP DUP2 PUSH1 0x3 NOT CALLDATASIZE ADD SLT PUSH2 0x2FA JUMPI PUSH2 0x2E2B PUSH2 0x3FA2 JUMP JUMPDEST SWAP2 PUSH1 0x24 CALLDATALOAD PUSH1 0x1 PUSH1 0x1 PUSH1 0x40 SHL SUB DUP2 GT PUSH2 0x2FA JUMPI CALLDATASIZE PUSH1 0x23 DUP3 ADD SLT ISZERO PUSH2 0x2FA JUMPI PUSH2 0x2E5B SWAP1 CALLDATASIZE SWAP1 PUSH1 0x24 DUP2 DUP7 ADD CALLDATALOAD SWAP2 ADD PUSH2 0x40B0 JUMP JUMPDEST SWAP1 PUSH1 0x1 PUSH1 0x1 PUSH1 0xA0 SHL SUB PUSH32 0x0 DUP2 AND ADDRESS DUP2 EQ SWAP1 DUP2 ISZERO PUSH2 0x2FE5 JUMPI JUMPDEST POP PUSH2 0x2FD5 JUMPI PUSH2 0x2EA5 DUP2 PUSH0 SLOAD AND CALLER EQ PUSH2 0x4588 JUMP JUMPDEST DUP5 AND SWAP2 DUP2 MLOAD SWAP5 PUSH4 0x52D1902D PUSH1 0xE0 SHL DUP7 MSTORE PUSH1 0x20 DUP7 DUP7 DUP2 DUP8 GAS STATICCALL PUSH0 SWAP7 DUP2 PUSH2 0x2FA1 JUMPI JUMPDEST POP PUSH2 0x2EE1 JUMPI POP POP MLOAD PUSH4 0x4C9C8CE3 PUSH1 0xE0 SHL DUP2 MSTORE SWAP2 DUP3 ADD MSTORE PUSH1 0x24 SWAP2 POP REVERT JUMPDEST DUP4 DUP6 SWAP4 DUP8 PUSH32 0x360894A13BA1A3210667C828492DB98DCA3E2076CC3735A920A3CA505D382BBC SWAP1 DUP2 DUP2 SUB PUSH2 0x2F8B JUMPI POP DUP4 EXTCODESIZE ISZERO PUSH2 0x2F74 JUMPI DUP1 SLOAD PUSH1 0x1 PUSH1 0x1 PUSH1 0xA0 SHL SUB NOT AND DUP4 OR SWAP1 SSTORE MLOAD SWAP1 PUSH32 0xBC7CD75A20EE27FD9ADEBAB32041F755214DBC6BFFA90CC0225B39DA2E5C2D3B PUSH0 DUP1 LOG2 DUP3 MLOAD ISZERO PUSH2 0x2F5E JUMPI POP PUSH2 0x3C9 SWAP3 POP PUSH2 0x54D7 JUMP JUMPDEST SWAP2 POP POP CALLVALUE PUSH2 0x2F68 JUMPI STOP JUMPDEST PUSH4 0xB398979F PUSH1 0xE0 SHL DUP2 MSTORE REVERT JUMPDEST DUP2 MLOAD PUSH4 0x4C9C8CE3 PUSH1 0xE0 SHL DUP2 MSTORE DUP1 DUP8 ADD DUP5 SWAP1 MSTORE PUSH1 0x24 SWAP1 REVERT JUMPDEST DUP7 PUSH1 0x24 SWAP2 DUP5 MLOAD SWAP2 PUSH4 0x2A875269 PUSH1 0xE2 SHL DUP4 MSTORE DUP3 ADD MSTORE REVERT JUMPDEST SWAP1 SWAP7 POP PUSH1 0x20 DUP2 RETURNDATASIZE PUSH1 0x20 GT PUSH2 0x2FCD JUMPI JUMPDEST DUP2 PUSH2 0x2FBD PUSH1 0x20 SWAP4 DUP4 PUSH2 0x4018 JUMP JUMPDEST DUP2 ADD SUB SLT PUSH2 0x2FA JUMPI MLOAD SWAP6 PUSH0 PUSH2 0x2EC5 JUMP JUMPDEST RETURNDATASIZE SWAP2 POP PUSH2 0x2FB0 JUMP JUMPDEST DUP2 MLOAD PUSH4 0x703E46DD PUSH1 0xE1 SHL DUP2 MSTORE DUP5 SWAP1 REVERT JUMPDEST SWAP1 POP DUP2 PUSH32 0x360894A13BA1A3210667C828492DB98DCA3E2076CC3735A920A3CA505D382BBC SLOAD AND EQ ISZERO PUSH0 PUSH2 0x2E92 JUMP JUMPDEST SWAP1 POP CALLVALUE PUSH2 0x2FA JUMPI PUSH2 0x3023 CALLDATASIZE PUSH2 0x43A3 JUMP JUMPDEST SWAP2 SWAP1 PUSH2 0x3031 PUSH2 0x321 CALLER PUSH2 0x4C18 JUMP JUMPDEST CALLER PUSH0 MSTORE PUSH1 0x1 PUSH1 0x20 MSTORE DUP4 PUSH0 KECCAK256 SLOAD SWAP2 DUP2 PUSH0 MSTORE PUSH1 0xC PUSH1 0x20 MSTORE DUP5 PUSH0 KECCAK256 DUP4 PUSH0 MSTORE PUSH1 0x20 MSTORE DUP5 PUSH0 KECCAK256 DUP1 SLOAD PUSH2 0x3066 PUSH1 0x2 PUSH1 0xFF DUP4 AND PUSH2 0x1DB1 DUP2 PUSH2 0x43EB JUMP JUMPDEST PUSH1 0x3 DUP7 LT ISZERO PUSH2 0x310F JUMPI PUSH1 0x8 SHR PUSH1 0xFF AND SWAP2 PUSH1 0x3 DUP4 LT ISZERO PUSH2 0xA4A JUMPI DUP3 PUSH1 0xFF DUP8 AND LT ISZERO PUSH2 0x30C0 JUMPI POP PUSH32 0xB36EC3C738EF8ECD9180ADDC815304762374B76E91C2A321831D9906EA119ADE PUSH2 0x1E18 DUP6 SWAP4 PUSH2 0x3C9 SWAP9 PUSH2 0x1E0B DUP10 DUP9 SWAP7 PUSH2 0x49FE JUMP JUMPDEST PUSH1 0x84 SWAP1 PUSH1 0x20 DUP9 MLOAD SWAP2 PUSH3 0x461BCD PUSH1 0xE5 SHL DUP4 MSTORE DUP3 ADD MSTORE PUSH1 0x23 PUSH1 0x24 DUP3 ADD MSTORE PUSH32 0x43616E206F6E6C7920646F776E677261646520746F2061206C6F776572206C65 PUSH1 0x44 DUP3 ADD MSTORE PUSH3 0x1D995B PUSH1 0xEA SHL PUSH1 0x64 DUP3 ADD MSTORE REVERT JUMPDEST PUSH1 0x21 DUP4 PUSH4 0x4E487B71 PUSH1 0xE0 SHL PUSH0 MSTORE MSTORE PUSH1 0x24 PUSH0 REVERT JUMPDEST DUP3 CALLVALUE PUSH2 0x2FA JUMPI DUP1 PUSH1 0x3 NOT CALLDATASIZE ADD SLT PUSH2 0x2FA JUMPI PUSH2 0x313B PUSH2 0x3FA2 JUMP JUMPDEST SWAP2 PUSH1 0x24 CALLDATALOAD SWAP3 PUSH1 0x1 DUP1 PUSH1 0xA0 SHL SUB PUSH2 0x3155 DUP2 PUSH0 SLOAD AND CALLER EQ PUSH2 0x4588 JUMP JUMPDEST DUP2 AND SWAP3 PUSH2 0x3163 DUP5 ISZERO ISZERO PUSH2 0x4869 JUMP JUMPDEST PUSH2 0x316E DUP6 ISZERO ISZERO PUSH2 0x48AE JUMP JUMPDEST DUP4 PUSH0 MSTORE PUSH2 0x31D3 PUSH1 0x20 SWAP3 PUSH1 0x1 DUP5 MSTORE PUSH2 0x3188 DUP4 PUSH0 KECCAK256 SLOAD ISZERO PUSH2 0x48F1 JUMP JUMPDEST PUSH2 0x31C4 DUP4 MLOAD PUSH2 0x3196 DUP2 PUSH2 0x3FCE JUMP JUMPDEST DUP9 DUP2 MSTORE PUSH1 0x1 DUP7 DUP3 ADD DUP2 DUP2 MSTORE DUP10 PUSH0 MSTORE DUP2 DUP9 MSTORE DUP7 PUSH0 KECCAK256 SWAP3 MLOAD DUP4 SSTORE MLOAD ISZERO ISZERO SWAP2 ADD SWAP1 PUSH1 0xFF DUP1 NOT DUP4 SLOAD AND SWAP2 ISZERO ISZERO AND OR SWAP1 SSTORE JUMP JUMPDEST DUP7 PUSH0 MSTORE PUSH1 0x3 DUP5 MSTORE DUP3 PUSH0 KECCAK256 PUSH2 0x493D JUMP JUMPDEST DUP5 PUSH0 MSTORE PUSH1 0x2 DUP3 MSTORE PUSH1 0xFF DUP2 PUSH0 KECCAK256 SLOAD AND PUSH2 0x31EA DUP2 PUSH2 0x43EB JUMP JUMPDEST PUSH2 0x3238 JUMPI PUSH32 0x39D132591EE0696DE49AB564E4A90E430C006561917DB731A2A614DD2D245591 SWAP3 DUP6 PUSH0 MSTORE PUSH1 0x2 DUP4 MSTORE DUP2 PUSH0 KECCAK256 PUSH1 0x2 PUSH1 0xFF NOT DUP3 SLOAD AND OR SWAP1 SSTORE PUSH2 0x322F DUP2 SLOAD PUSH2 0x4990 JUMP JUMPDEST SWAP1 SSTORE MLOAD TIMESTAMP DUP2 MSTORE LOG3 STOP JUMPDEST PUSH32 0x1CC138F50384BE7770A8E4A34EECAA0D0C718BFAA1641AF49DB32532E4A5B910 SWAP3 POP MLOAD TIMESTAMP DUP2 MSTORE LOG3 STOP JUMPDEST DUP3 CALLVALUE PUSH2 0x2FA JUMPI PUSH1 0x20 CALLDATASIZE PUSH1 0x3 NOT ADD SLT PUSH2 0x2FA JUMPI PUSH1 0x20 SWAP1 PUSH2 0x17C2 PUSH2 0x248A PUSH2 0x3FA2 JUMP JUMPDEST DUP3 CALLVALUE PUSH2 0x2FA JUMPI PUSH1 0x20 SWAP1 PUSH2 0x3297 PUSH2 0x1E78 CALLDATASIZE PUSH2 0x438D JUMP JUMPDEST PUSH0 MSTORE PUSH1 0x5 DUP3 MSTORE PUSH2 0x1B3E DUP2 PUSH0 KECCAK256 SWAP2 DUP1 MLOAD PUSH2 0x32AF DUP2 PUSH2 0x3FCE JUMP JUMPDEST PUSH1 0xFF PUSH1 0x1 PUSH2 0x32BC DUP7 PUSH2 0x428D JUMP JUMPDEST SWAP6 DUP7 DUP5 MSTORE ADD SLOAD AND ISZERO ISZERO SWAP5 DUP6 SWAP2 ADD MSTORE MLOAD SWAP3 DUP4 SWAP3 DUP4 PUSH2 0x436D JUMP JUMPDEST DUP3 CALLVALUE PUSH2 0x2FA JUMPI DUP1 PUSH1 0x3 NOT CALLDATASIZE ADD SLT PUSH2 0x2FA JUMPI PUSH2 0x32FB PUSH2 0x1B3E SWAP3 PUSH2 0x32F4 PUSH2 0x3FB8 JUMP JUMPDEST SWAP1 CALLDATALOAD PUSH2 0x47F1 JUMP JUMPDEST SWAP3 SWAP1 SWAP2 MLOAD SWAP3 DUP4 SWAP3 DUP4 PUSH2 0x436D JUMP JUMPDEST DUP3 CALLVALUE PUSH2 0x2FA JUMPI PUSH1 0x20 CALLDATASIZE PUSH1 0x3 NOT ADD SLT PUSH2 0x2FA JUMPI PUSH2 0x1B3E SWAP2 CALLDATALOAD PUSH0 MSTORE PUSH1 0x7 PUSH1 0x20 MSTORE PUSH2 0x1B2B DUP2 PUSH0 KECCAK256 PUSH2 0x44E9 JUMP JUMPDEST DUP3 CALLVALUE PUSH2 0x2FA JUMPI PUSH1 0x20 SWAP1 PUSH2 0x17C2 PUSH2 0x3346 CALLDATASIZE PUSH2 0x4213 JUMP JUMPDEST SWAP2 PUSH2 0x47C5 JUMP JUMPDEST SWAP1 POP CALLVALUE PUSH2 0x2FA JUMPI PUSH1 0x20 CALLDATASIZE PUSH1 0x3 NOT ADD SLT PUSH2 0x2FA JUMPI CALLDATALOAD PUSH0 MSTORE PUSH1 0x5 PUSH1 0x20 MSTORE DUP1 PUSH0 KECCAK256 PUSH2 0x1B3E PUSH1 0xFF PUSH1 0x1 PUSH2 0x337A DUP5 PUSH2 0x428D JUMP JUMPDEST SWAP4 ADD SLOAD AND SWAP3 MLOAD SWAP3 DUP4 SWAP3 DUP4 PUSH2 0x436D JUMP JUMPDEST DUP3 CALLVALUE PUSH2 0x2FA JUMPI PUSH1 0x20 DUP1 PUSH1 0x3 NOT CALLDATASIZE ADD SLT PUSH2 0x2FA JUMPI DUP3 CALLDATALOAD SWAP2 PUSH2 0x33AB PUSH2 0x321 CALLER PUSH2 0x4C18 JUMP JUMPDEST PUSH2 0x33B6 DUP4 ISZERO ISZERO PUSH2 0x4605 JUMP JUMPDEST CALLER PUSH0 MSTORE PUSH1 0x1 DUP3 MSTORE DUP1 PUSH0 KECCAK256 SLOAD SWAP4 PUSH2 0x33D4 PUSH2 0x33CD PUSH2 0x4737 JUMP JUMPDEST DUP7 DUP7 PUSH2 0x4DA7 JUMP JUMPDEST ISZERO PUSH2 0x34C5 JUMPI DUP4 PUSH0 MSTORE PUSH1 0x6 DUP4 MSTORE PUSH1 0x1 DUP3 PUSH0 KECCAK256 SLOAD GT PUSH1 0x7 DUP5 MSTORE DUP3 PUSH0 KECCAK256 SLOAD ISZERO ISZERO DUP2 ISZERO PUSH2 0x34BD JUMPI JUMPDEST POP ISZERO PUSH2 0x3462 JUMPI POP SWAP1 PUSH32 0x68F37CC4A32F0B24153CE9237B344B20A9717039F90D7C24F35E5C217F03E168 SWAP2 PUSH2 0x342C DUP6 DUP6 PUSH2 0x4D73 JUMP JUMPDEST PUSH2 0x343E PUSH2 0x3437 PUSH2 0x4737 JUMP JUMPDEST DUP8 DUP8 PUSH2 0x4EF4 JUMP JUMPDEST PUSH0 MSTORE PUSH1 0x5 DUP3 MSTORE PUSH1 0x1 DUP2 PUSH0 KECCAK256 ADD PUSH1 0xFF NOT DUP2 SLOAD AND SWAP1 SSTORE PUSH1 0xB DUP3 MSTORE PUSH0 DUP2 DUP2 KECCAK256 SSTORE MLOAD TIMESTAMP DUP2 MSTORE LOG3 STOP JUMPDEST DUP3 PUSH1 0x84 SWAP3 MLOAD SWAP2 PUSH3 0x461BCD PUSH1 0xE5 SHL DUP4 MSTORE DUP3 ADD MSTORE PUSH1 0x31 PUSH1 0x24 DUP3 ADD MSTORE PUSH32 0x43616E6E6F74206C65617665206173206C617374206F776E6572207769746820 PUSH1 0x44 DUP3 ADD MSTORE PUSH17 0x6E6F2061646D696E6973747261746F7273 PUSH1 0x78 SHL PUSH1 0x64 DUP3 ADD MSTORE REVERT JUMPDEST SWAP1 POP DUP7 PUSH2 0x33F8 JUMP JUMPDEST DUP3 PUSH1 0x84 SWAP3 MLOAD SWAP2 PUSH3 0x461BCD PUSH1 0xE5 SHL DUP4 MSTORE DUP3 ADD MSTORE PUSH1 0x23 PUSH1 0x24 DUP3 ADD MSTORE PUSH32 0x596F7520617265206E6F7420616E206F776E6572206F66207468697320726563 PUSH1 0x44 DUP3 ADD MSTORE PUSH3 0x1BDC99 PUSH1 0xEA SHL PUSH1 0x64 DUP3 ADD MSTORE REVERT JUMPDEST DUP3 CALLVALUE PUSH2 0x2FA JUMPI PUSH1 0x20 CALLDATASIZE PUSH1 0x3 NOT ADD SLT PUSH2 0x2FA JUMPI PUSH2 0x1B3E SWAP2 CALLDATALOAD PUSH0 MSTORE PUSH1 0x8 PUSH1 0x20 MSTORE PUSH2 0x1B2B DUP2 PUSH0 KECCAK256 PUSH2 0x44E9 JUMP JUMPDEST SWAP1 POP CALLVALUE PUSH2 0x2FA JUMPI PUSH2 0x354B CALLDATASIZE PUSH2 0x4213 JUMP JUMPDEST SWAP2 SWAP3 SWAP1 PUSH2 0x355A PUSH2 0x321 CALLER PUSH2 0x4C18 JUMP JUMPDEST PUSH2 0x3565 DUP5 ISZERO ISZERO PUSH2 0x4605 JUMP JUMPDEST PUSH1 0x1 PUSH1 0x1 PUSH1 0xA0 SHL SUB AND PUSH2 0x3579 DUP2 ISZERO ISZERO PUSH2 0x4651 JUMP JUMPDEST PUSH2 0x3585 PUSH2 0xB7C DUP5 PUSH2 0x4CFB JUMP JUMPDEST CALLER PUSH0 MSTORE PUSH1 0x20 SWAP4 PUSH1 0x1 DUP6 MSTORE DUP6 PUSH0 KECCAK256 SLOAD SWAP2 PUSH0 MSTORE DUP6 PUSH0 KECCAK256 SLOAD SWAP3 PUSH2 0x35A6 DUP5 ISZERO ISZERO PUSH2 0x449D JUMP JUMPDEST DUP5 MLOAD DUP7 DUP7 ADD KECCAK256 SWAP6 PUSH2 0x35B7 DUP6 DUP5 PUSH2 0x4D73 JUMP JUMPDEST DUP1 PUSH0 MSTORE PUSH1 0x5 DUP3 MSTORE PUSH2 0x35D0 PUSH1 0xFF PUSH1 0x1 DUP12 PUSH0 KECCAK256 ADD SLOAD AND PUSH2 0x46DF JUMP JUMPDEST PUSH0 MSTORE PUSH1 0x5 DUP2 MSTORE PUSH2 0x35E1 DUP9 PUSH0 KECCAK256 PUSH2 0x428D JUMP JUMPDEST SWAP7 DUP8 MLOAD DUP3 DUP10 ADD KECCAK256 SWAP1 DUP1 DUP3 EQ PUSH2 0x3BFD JUMPI PUSH2 0x35F8 PUSH2 0x4737 JUMP JUMPDEST DUP4 DUP2 MLOAD SWAP2 ADD KECCAK256 DUP3 EQ PUSH2 0x3B88 JUMPI DUP5 PUSH0 MSTORE PUSH1 0x6 DUP4 MSTORE DUP10 PUSH0 KECCAK256 SLOAD ISZERO SWAP2 DUP3 ISZERO PUSH2 0x3625 PUSH2 0x361E PUSH2 0x4737 JUMP JUMPDEST DUP10 DUP10 PUSH2 0x4DA7 JUMP JUMPDEST SWAP1 PUSH2 0x3638 PUSH2 0x3631 PUSH2 0x4758 JUMP JUMPDEST DUP11 DUP11 PUSH2 0x4DA7 JUMP JUMPDEST SWAP1 PUSH2 0x364B PUSH2 0x3644 PUSH2 0x4781 JUMP JUMPDEST DUP12 DUP12 PUSH2 0x4DA7 JUMP JUMPDEST DUP12 DUP12 EQ PUSH2 0x3656 PUSH2 0x4737 JUMP JUMPDEST DUP1 MLOAD SWAP1 DUP11 ADD KECCAK256 DUP8 SUB PUSH2 0x37D3 JUMPI POP POP ISZERO PUSH2 0x3776 JUMPI POP ISZERO PUSH2 0x3735 JUMPI JUMPDEST PUSH2 0x3678 PUSH2 0x4758 JUMP JUMPDEST DUP5 DUP2 MLOAD SWAP2 ADD KECCAK256 EQ SWAP1 DUP2 PUSH2 0x371E JUMPI JUMPDEST POP PUSH2 0x3699 JUMPI JUMPDEST POP POP POP PUSH2 0x3C9 SWAP6 POP PUSH2 0x4E8F JUMP JUMPDEST PUSH2 0x36A4 JUMPI JUMPDEST DUP1 PUSH2 0x368C JUMP JUMPDEST DUP3 PUSH0 MSTORE PUSH1 0x7 DUP2 MSTORE PUSH1 0x1 DUP9 PUSH0 KECCAK256 SLOAD GT PUSH2 0x369E JUMPI DUP8 MLOAD PUSH3 0x461BCD PUSH1 0xE5 SHL DUP2 MSTORE SWAP2 DUP3 ADD MSTORE PUSH1 0x39 PUSH1 0x24 DUP3 ADD MSTORE PUSH32 0x43616E6E6F742064656D6F746520746865206C6173742061646D696E69737472 PUSH1 0x44 DUP3 ADD MSTORE PUSH32 0x61746F72207768656E206E6F206F776E65722065786973747300000000000000 PUSH1 0x64 DUP3 ADD MSTORE PUSH1 0x84 SWAP2 POP REVERT JUMPDEST SWAP1 POP PUSH2 0x3728 PUSH2 0x47A3 JUMP JUMPDEST DUP4 DUP2 MLOAD SWAP2 ADD KECCAK256 EQ PUSH0 PUSH2 0x3686 JUMP JUMPDEST PUSH1 0x64 DUP6 DUP6 DUP1 DUP15 MLOAD SWAP3 PUSH3 0x461BCD PUSH1 0xE5 SHL DUP5 MSTORE DUP4 ADD MSTORE PUSH1 0x24 DUP3 ADD MSTORE PUSH32 0x4F6E6C79206F776E6572732063616E2070726F6D6F746520746F206F776E6572 PUSH1 0x44 DUP3 ADD MSTORE REVERT JUMPDEST SWAP1 POP PUSH2 0x3670 JUMPI DUP11 MLOAD PUSH3 0x461BCD PUSH1 0xE5 SHL DUP2 MSTORE DUP1 DUP7 ADD DUP6 SWAP1 MSTORE PUSH1 0x2B PUSH1 0x24 DUP3 ADD MSTORE PUSH32 0x4F6E6C792061646D696E6973747261746F72732063616E2070726F6D6F746520 PUSH1 0x44 DUP3 ADD MSTORE PUSH11 0x3334B939BA1037BBB732B9 PUSH1 0xA9 SHL PUSH1 0x64 DUP3 ADD MSTORE PUSH1 0x84 SWAP1 REVERT JUMPDEST SWAP1 SWAP2 PUSH2 0x37DD PUSH2 0x4758 JUMP JUMPDEST DUP1 MLOAD SWAP1 DUP11 ADD KECCAK256 DUP8 SUB PUSH2 0x385D JUMPI POP POP POP DUP2 ISZERO PUSH2 0x3855 JUMPI JUMPDEST POP ISZERO PUSH2 0x37FF JUMPI JUMPDEST PUSH2 0x3670 JUMP JUMPDEST DUP11 MLOAD PUSH3 0x461BCD PUSH1 0xE5 SHL DUP2 MSTORE DUP1 DUP7 ADD DUP6 SWAP1 MSTORE PUSH1 0x3B PUSH1 0x24 DUP3 ADD MSTORE PUSH0 DUP1 MLOAD PUSH1 0x20 PUSH2 0x5589 DUP4 CODECOPY DUP2 MLOAD SWAP2 MSTORE PUSH1 0x44 DUP3 ADD MSTORE PUSH32 0x616E2070726F6D6F746520746F2061646D696E6973747261746F720000000000 PUSH1 0x64 DUP3 ADD MSTORE PUSH1 0x84 SWAP1 REVERT JUMPDEST SWAP1 POP PUSH0 PUSH2 0x37F3 JUMP JUMPDEST PUSH2 0x3869 SWAP4 SWAP2 SWAP3 SWAP4 PUSH2 0x4781 JUMP JUMPDEST DUP1 MLOAD SWAP1 DUP11 ADD KECCAK256 DUP8 SUB PUSH2 0x39CA JUMPI ISZERO PUSH2 0x394E JUMPI DUP4 ISZERO PUSH2 0x3937 JUMPI JUMPDEST POP DUP3 ISZERO PUSH2 0x391E JUMPI JUMPDEST POP POP PUSH2 0x3670 JUMPI DUP11 MLOAD PUSH3 0x461BCD PUSH1 0xE5 SHL DUP2 MSTORE DUP1 DUP7 ADD DUP6 SWAP1 MSTORE PUSH1 0x57 PUSH1 0x24 DUP3 ADD MSTORE PUSH32 0x4F6E6C79206F776E6572732063616E206368616E6765206F746865727320746F PUSH1 0x44 DUP3 ADD MSTORE PUSH32 0x207368617265722E2041646D696E7320616E6420736861726572732063616E20 PUSH1 0x64 DUP3 ADD MSTORE PUSH32 0x6F6E6C792064656D6F7465207468656D73656C7665732E000000000000000000 PUSH1 0x84 DUP3 ADD MSTORE PUSH1 0xA4 SWAP1 REVERT JUMPDEST SWAP1 SWAP2 POP DUP2 PUSH2 0x392F JUMPI JUMPDEST POP PUSH0 DUP1 PUSH2 0x3889 JUMP JUMPDEST SWAP1 POP PUSH0 PUSH2 0x3927 JUMP JUMPDEST SWAP1 SWAP3 POP DUP1 PUSH2 0x3947 JUMPI JUMPDEST SWAP2 PUSH0 PUSH2 0x3881 JUMP JUMPDEST POP DUP2 PUSH2 0x3940 JUMP JUMPDEST SWAP3 POP DUP3 ISZERO PUSH2 0x39B1 JUMPI JUMPDEST POP POP PUSH2 0x37FA JUMPI DUP11 MLOAD PUSH3 0x461BCD PUSH1 0xE5 SHL DUP2 MSTORE DUP1 DUP7 ADD DUP6 SWAP1 MSTORE PUSH1 0x28 PUSH1 0x24 DUP3 ADD MSTORE PUSH32 0x4F6E6C792061646D696E6973747261746F72732063616E2064656D6F74652074 PUSH1 0x44 DUP3 ADD MSTORE PUSH8 0x379039B430B932B9 PUSH1 0xC1 SHL PUSH1 0x64 DUP3 ADD MSTORE PUSH1 0x84 SWAP1 REVERT JUMPDEST SWAP1 SWAP2 POP DUP2 PUSH2 0x39C2 JUMPI JUMPDEST POP PUSH0 DUP1 PUSH2 0x3957 JUMP JUMPDEST SWAP1 POP PUSH0 PUSH2 0x39BA JUMP JUMPDEST PUSH2 0x39D2 PUSH2 0x47A3 JUMP JUMPDEST DUP10 DUP2 MLOAD SWAP2 ADD KECCAK256 DUP8 EQ PUSH2 0x39E9 JUMPI JUMPDEST POP POP POP POP POP PUSH2 0x3670 JUMP JUMPDEST ISZERO PUSH2 0x3B2C JUMPI DUP4 ISZERO PUSH2 0x3B15 JUMPI JUMPDEST POP DUP3 ISZERO PUSH2 0x3AFC JUMPI JUMPDEST POP POP ISZERO PUSH2 0x3A75 JUMPI JUMPDEST PUSH2 0x3A0F DUP9 DUP8 PUSH2 0x4E05 JUMP JUMPDEST PUSH2 0x3A1D JUMPI PUSH0 DUP1 DUP1 DUP1 DUP1 PUSH2 0x39DF JUMP JUMPDEST DUP11 MLOAD PUSH3 0x461BCD PUSH1 0xE5 SHL DUP2 MSTORE DUP1 DUP7 ADD DUP6 SWAP1 MSTORE PUSH1 0x2C PUSH1 0x24 DUP3 ADD MSTORE PUSH32 0x43616E6E6F742064656D6F746520616E20616374697665207375626A65637420 PUSH1 0x44 DUP3 ADD MSTORE PUSH12 0x3132B637BB9039B430B932B9 PUSH1 0xA1 SHL PUSH1 0x64 DUP3 ADD MSTORE PUSH1 0x84 SWAP1 REVERT JUMPDEST DUP11 MLOAD PUSH3 0x461BCD PUSH1 0xE5 SHL DUP2 MSTORE DUP1 DUP7 ADD DUP6 SWAP1 MSTORE PUSH1 0x55 PUSH1 0x24 DUP3 ADD MSTORE PUSH32 0x4F6E6C79206F776E6572732063616E2064656D6F7465206F74686572732E2041 PUSH1 0x44 DUP3 ADD MSTORE PUSH32 0x646D696E6973747261746F727320616E6420736861726572732063616E206F6E PUSH1 0x64 DUP3 ADD MSTORE PUSH21 0x363C903232B6B7BA32903A3432B6B9B2B63B32B997 PUSH1 0x59 SHL PUSH1 0x84 DUP3 ADD MSTORE PUSH1 0xA4 SWAP1 REVERT JUMPDEST SWAP1 SWAP2 POP DUP2 PUSH2 0x3B0D JUMPI JUMPDEST POP PUSH0 DUP1 PUSH2 0x39FD JUMP JUMPDEST SWAP1 POP PUSH0 PUSH2 0x3B05 JUMP JUMPDEST SWAP1 SWAP3 POP DUP1 PUSH2 0x3B25 JUMPI JUMPDEST SWAP2 PUSH0 PUSH2 0x39F5 JUMP JUMPDEST POP DUP2 PUSH2 0x3B1E JUMP JUMPDEST SWAP3 POP POP POP PUSH2 0x3A05 JUMPI DUP11 MLOAD PUSH3 0x461BCD PUSH1 0xE5 SHL DUP2 MSTORE DUP1 DUP7 ADD DUP6 SWAP1 MSTORE PUSH1 0x28 PUSH1 0x24 DUP3 ADD MSTORE PUSH32 0x4F6E6C792061646D696E6973747261746F72732063616E2064656D6F74652074 PUSH1 0x44 DUP3 ADD MSTORE PUSH8 0x37903B34B2BBB2B9 PUSH1 0xC1 SHL PUSH1 0x64 DUP3 ADD MSTORE PUSH1 0x84 SWAP1 REVERT JUMPDEST DUP10 MLOAD PUSH3 0x461BCD PUSH1 0xE5 SHL DUP2 MSTORE DUP1 DUP6 ADD DUP5 SWAP1 MSTORE PUSH1 0x43 PUSH1 0x24 DUP3 ADD MSTORE PUSH32 0x4F776E6572732063616E6E6F742062652064656D6F7465642E204F776E657220 PUSH1 0x44 DUP3 ADD MSTORE PUSH32 0x6D75737420766F6C756E746172696C792072656D6F7665207468656D73656C76 PUSH1 0x64 DUP3 ADD MSTORE PUSH3 0x32B997 PUSH1 0xE9 SHL PUSH1 0x84 DUP3 ADD MSTORE PUSH1 0xA4 SWAP1 REVERT JUMPDEST DUP10 MLOAD PUSH3 0x461BCD PUSH1 0xE5 SHL DUP2 MSTORE DUP1 DUP6 ADD DUP5 SWAP1 MSTORE PUSH1 0x1C PUSH1 0x24 DUP3 ADD MSTORE PUSH32 0x54617267657420616C726561647920686173207468697320726F6C6500000000 PUSH1 0x44 DUP3 ADD MSTORE PUSH1 0x64 SWAP1 REVERT JUMPDEST DUP3 CALLVALUE PUSH2 0x2FA JUMPI PUSH1 0x20 CALLDATASIZE PUSH1 0x3 NOT ADD SLT PUSH2 0x2FA JUMPI PUSH1 0x20 SWAP1 PUSH2 0x17C2 PUSH2 0x3C60 PUSH2 0x3FA2 JUMP JUMPDEST PUSH2 0x4CA9 JUMP JUMPDEST DUP3 CALLVALUE PUSH2 0x2FA JUMPI PUSH1 0x20 CALLDATASIZE PUSH1 0x3 NOT ADD SLT PUSH2 0x2FA JUMPI PUSH2 0x3C7F PUSH2 0x3FA2 JUMP JUMPDEST PUSH0 SLOAD PUSH1 0x1 PUSH1 0x1 PUSH1 0xA0 SHL SUB SWAP2 SWAP1 PUSH2 0x3C98 SWAP1 DUP4 AND CALLER EQ PUSH2 0x4588 JUMP JUMPDEST AND DUP1 PUSH0 MSTORE PUSH1 0x1 PUSH1 0x20 MSTORE PUSH2 0x3CAF DUP3 PUSH0 KECCAK256 SLOAD ISZERO ISZERO PUSH2 0x45C1 JUMP JUMPDEST DUP1 PUSH0 MSTORE PUSH1 0x1 PUSH1 0x20 MSTORE PUSH1 0xFF PUSH1 0x1 DUP4 PUSH0 KECCAK256 ADD SLOAD AND ISZERO PUSH2 0x3CDF JUMPI PUSH1 0x1 SWAP3 POP PUSH0 MSTORE DUP2 PUSH1 0x20 MSTORE PUSH0 KECCAK256 ADD PUSH1 0xFF NOT DUP2 SLOAD AND SWAP1 SSTORE PUSH0 DUP1 RETURN JUMPDEST DUP2 MLOAD PUSH3 0x461BCD PUSH1 0xE5 SHL DUP2 MSTORE PUSH1 0x20 DUP2 DUP6 ADD MSTORE PUSH1 0x17 PUSH1 0x24 DUP3 ADD MSTORE PUSH32 0x57616C6C657420616C726561647920696E616374697665000000000000000000 PUSH1 0x44 DUP3 ADD MSTORE PUSH1 0x64 SWAP1 REVERT JUMPDEST DUP3 CALLVALUE PUSH2 0x2FA JUMPI DUP1 PUSH1 0x3 NOT CALLDATASIZE ADD SLT PUSH2 0x2FA JUMPI PUSH2 0x17C2 PUSH1 0x20 SWAP3 PUSH2 0x3D41 PUSH2 0x3FB8 JUMP JUMPDEST SWAP1 CALLDATALOAD PUSH2 0x4537 JUMP JUMPDEST DUP3 CALLVALUE PUSH2 0x2FA JUMPI PUSH1 0x20 CALLDATASIZE PUSH1 0x3 NOT ADD SLT PUSH2 0x2FA JUMPI PUSH2 0x1B3E SWAP2 CALLDATALOAD PUSH0 MSTORE PUSH1 0x9 PUSH1 0x20 MSTORE PUSH2 0x1B2B DUP2 PUSH0 KECCAK256 PUSH2 0x44E9 JUMP JUMPDEST DUP3 CALLVALUE PUSH2 0x2FA JUMPI PUSH2 0x3D80 CALLDATASIZE PUSH2 0x4113 JUMP JUMPDEST SWAP3 SWAP1 PUSH2 0x3D8E PUSH2 0x321 CALLER PUSH2 0x4C18 JUMP JUMPDEST PUSH2 0x3D9B DUP4 MLOAD DUP6 MLOAD EQ PUSH2 0x4459 JUMP JUMPDEST CALLER PUSH0 MSTORE PUSH1 0x1 SWAP4 DUP5 SWAP4 PUSH1 0x20 SWAP1 PUSH1 0x1 DUP3 MSTORE DUP5 PUSH0 KECCAK256 SLOAD SWAP4 PUSH1 0x1 DUP1 PUSH1 0xA0 SHL SUB AND PUSH0 MSTORE DUP5 PUSH0 KECCAK256 SLOAD SWAP2 PUSH2 0x3DC9 DUP4 ISZERO ISZERO PUSH2 0x449D JUMP JUMPDEST PUSH0 SWAP7 JUMPDEST PUSH2 0x3DD2 JUMPI STOP JUMPDEST DUP2 MLOAD DUP8 LT ISZERO PUSH2 0x3C9 JUMPI DUP8 DUP8 PUSH2 0x3DF1 PUSH2 0x3DEB DUP4 SWAP11 DUP9 PUSH2 0x4A42 JUMP JUMPDEST MLOAD PUSH2 0x4CFB JUMP JUMPDEST ISZERO PUSH2 0x3EBD JUMPI PUSH2 0x3E04 DUP8 PUSH2 0x607 DUP4 DUP8 PUSH2 0x4A42 JUMP JUMPDEST ISZERO PUSH2 0x3EBD JUMPI PUSH2 0x3E17 DUP6 PUSH2 0x607 DUP4 DUP8 PUSH2 0x4A42 JUMP JUMPDEST PUSH2 0x3EBD JUMPI PUSH2 0x3E25 DUP2 DUP8 PUSH2 0x4A42 JUMP JUMPDEST MLOAD DUP4 DUP2 MLOAD SWAP2 ADD KECCAK256 PUSH2 0x3E43 PUSH2 0x3E39 DUP4 DUP8 PUSH2 0x4A42 JUMP JUMPDEST MLOAD DUP10 PUSH2 0x76E PUSH2 0x4737 JUMP JUMPDEST PUSH2 0x3E5A PUSH2 0x3E50 DUP5 DUP9 PUSH2 0x4A42 JUMP JUMPDEST MLOAD DUP11 PUSH2 0x76E PUSH2 0x4758 JUMP JUMPDEST SWAP2 PUSH2 0x3E63 PUSH2 0x4737 JUMP JUMPDEST DUP1 MLOAD SWAP1 DUP8 ADD KECCAK256 DUP2 SUB PUSH2 0x3ECA JUMPI POP SWAP1 PUSH2 0x3E7B DUP4 DUP8 PUSH2 0x4A42 JUMP JUMPDEST MLOAD PUSH0 SWAP1 DUP2 MSTORE PUSH1 0x6 DUP7 MSTORE DUP11 SWAP1 KECCAK256 SLOAD ISZERO PUSH2 0x3EC2 JUMPI POP ISZERO JUMPDEST PUSH2 0x3EBD JUMPI JUMPDEST PUSH2 0x3EB6 DUP8 PUSH2 0x3EA3 DUP4 DUP8 PUSH2 0x4A42 JUMP JUMPDEST MLOAD DUP8 PUSH2 0x3EAF DUP6 DUP12 PUSH2 0x4A42 JUMP JUMPDEST MLOAD SWAP2 PUSH2 0x507E JUMP JUMPDEST ADD SWAP7 PUSH2 0x3DCC JUMP JUMPDEST PUSH2 0x3EB6 JUMP JUMPDEST SWAP1 POP ISZERO PUSH2 0x3E90 JUMP JUMPDEST PUSH2 0x3ED2 PUSH2 0x4758 JUMP JUMPDEST DUP1 MLOAD SWAP1 DUP8 ADD KECCAK256 DUP2 SUB PUSH2 0x3EFB JUMPI POP ISZERO SWAP1 DUP2 PUSH2 0x3EF2 JUMPI JUMPDEST POP PUSH2 0x3EBD JUMPI JUMPDEST PUSH2 0x3E95 JUMP JUMPDEST SWAP1 POP ISZERO DUP12 PUSH2 0x3EE7 JUMP JUMPDEST PUSH2 0x3F03 PUSH2 0x4781 JUMP JUMPDEST DUP1 MLOAD SWAP1 DUP8 ADD KECCAK256 SUB PUSH2 0x3F2A JUMPI ISZERO SWAP1 DUP2 PUSH2 0x3F21 JUMPI JUMPDEST POP ISZERO PUSH2 0x3E95 JUMPI PUSH2 0x3EB6 JUMP JUMPDEST SWAP1 POP ISZERO DUP12 PUSH2 0x3F16 JUMP JUMPDEST PUSH2 0x3F41 PUSH2 0x3F37 DUP5 DUP9 PUSH2 0x4A42 JUMP JUMPDEST MLOAD DUP11 PUSH2 0x76E PUSH2 0x4781 JUMP JUMPDEST SWAP1 ISZERO SWAP2 DUP3 PUSH2 0x3F65 JUMPI JUMPDEST POP DUP2 PUSH2 0x3F5C JUMPI JUMPDEST POP ISZERO PUSH2 0x3EED JUMPI PUSH2 0x3EB6 JUMP JUMPDEST SWAP1 POP ISZERO DUP12 PUSH2 0x3F51 JUMP JUMPDEST ISZERO SWAP2 POP DUP13 PUSH2 0x3F4A JUMP JUMPDEST DUP4 SWAP1 CALLVALUE PUSH2 0x2FA JUMPI PUSH1 0x20 CALLDATASIZE PUSH1 0x3 NOT ADD SLT PUSH2 0x2FA JUMPI PUSH1 0x20 SWAP2 PUSH1 0x1 PUSH1 0x1 PUSH1 0xA0 SHL SUB PUSH2 0x3F94 PUSH2 0x3FA2 JUMP JUMPDEST AND PUSH0 MSTORE PUSH1 0x1 DUP4 MSTORE PUSH0 KECCAK256 SLOAD DUP2 MSTORE RETURN JUMPDEST PUSH1 0x4 CALLDATALOAD SWAP1 PUSH1 0x1 PUSH1 0x1 PUSH1 0xA0 SHL SUB DUP3 AND DUP3 SUB PUSH2 0x2FA JUMPI JUMP JUMPDEST PUSH1 0x24 CALLDATALOAD SWAP1 PUSH1 0x1 PUSH1 0x1 PUSH1 0xA0 SHL SUB DUP3 AND DUP3 SUB PUSH2 0x2FA JUMPI JUMP JUMPDEST PUSH1 0x40 DUP2 ADD SWAP1 DUP2 LT PUSH1 0x1 PUSH1 0x1 PUSH1 0x40 SHL SUB DUP3 GT OR PUSH2 0x3FE9 JUMPI PUSH1 0x40 MSTORE JUMP JUMPDEST PUSH4 0x4E487B71 PUSH1 0xE0 SHL PUSH0 MSTORE PUSH1 0x41 PUSH1 0x4 MSTORE PUSH1 0x24 PUSH0 REVERT JUMPDEST PUSH1 0x20 DUP2 ADD SWAP1 DUP2 LT PUSH1 0x1 PUSH1 0x1 PUSH1 0x40 SHL SUB DUP3 GT OR PUSH2 0x3FE9 JUMPI PUSH1 0x40 MSTORE JUMP JUMPDEST SWAP1 PUSH1 0x1F DUP1 NOT SWAP2 ADD AND DUP2 ADD SWAP1 DUP2 LT PUSH1 0x1 PUSH1 0x1 PUSH1 0x40 SHL SUB DUP3 GT OR PUSH2 0x3FE9 JUMPI PUSH1 0x40 MSTORE JUMP JUMPDEST PUSH1 0x1 PUSH1 0x1 PUSH1 0x40 SHL SUB DUP2 GT PUSH2 0x3FE9 JUMPI PUSH1 0x5 SHL PUSH1 0x20 ADD SWAP1 JUMP JUMPDEST SWAP1 DUP1 PUSH1 0x1F DUP4 ADD SLT ISZERO PUSH2 0x2FA JUMPI PUSH1 0x20 SWAP1 DUP3 CALLDATALOAD PUSH2 0x406A DUP2 PUSH2 0x4039 JUMP JUMPDEST SWAP4 PUSH2 0x4078 PUSH1 0x40 MLOAD SWAP6 DUP7 PUSH2 0x4018 JUMP JUMPDEST DUP2 DUP6 MSTORE PUSH1 0x20 DUP1 DUP7 ADD SWAP3 PUSH1 0x5 SHL DUP3 ADD ADD SWAP3 DUP4 GT PUSH2 0x2FA JUMPI PUSH1 0x20 ADD SWAP1 JUMPDEST DUP3 DUP3 LT PUSH2 0x40A1 JUMPI POP POP POP POP SWAP1 JUMP JUMPDEST DUP2 CALLDATALOAD DUP2 MSTORE SWAP1 DUP4 ADD SWAP1 DUP4 ADD PUSH2 0x4093 JUMP JUMPDEST SWAP3 SWAP2 SWAP3 PUSH1 0x1 PUSH1 0x1 PUSH1 0x40 SHL SUB DUP3 GT PUSH2 0x3FE9 JUMPI PUSH1 0x40 MLOAD SWAP2 PUSH2 0x40D9 PUSH1 0x1F DUP3 ADD PUSH1 0x1F NOT AND PUSH1 0x20 ADD DUP5 PUSH2 0x4018 JUMP JUMPDEST DUP3 SWAP5 DUP2 DUP5 MSTORE DUP2 DUP4 ADD GT PUSH2 0x2FA JUMPI DUP3 DUP2 PUSH1 0x20 SWAP4 DUP5 PUSH0 SWAP7 ADD CALLDATACOPY ADD ADD MSTORE JUMP JUMPDEST SWAP1 DUP1 PUSH1 0x1F DUP4 ADD SLT ISZERO PUSH2 0x2FA JUMPI DUP2 PUSH1 0x20 PUSH2 0x4110 SWAP4 CALLDATALOAD SWAP2 ADD PUSH2 0x40B0 JUMP JUMPDEST SWAP1 JUMP JUMPDEST PUSH1 0x60 PUSH1 0x3 NOT DUP3 ADD SLT PUSH2 0x2FA JUMPI PUSH1 0x1 PUSH1 0x1 PUSH1 0x40 SHL SUB SWAP2 PUSH1 0x4 CALLDATALOAD DUP4 DUP2 GT PUSH2 0x2FA JUMPI DUP3 PUSH2 0x413F SWAP2 PUSH1 0x4 ADD PUSH2 0x4050 JUMP JUMPDEST SWAP3 PUSH1 0x24 SWAP3 DUP4 CALLDATALOAD PUSH1 0x1 PUSH1 0x1 PUSH1 0xA0 SHL SUB DUP2 AND DUP2 SUB PUSH2 0x2FA JUMPI SWAP4 PUSH1 0x44 CALLDATALOAD SWAP3 DUP1 DUP5 GT PUSH2 0x2FA JUMPI DUP3 PUSH1 0x23 DUP6 ADD SLT ISZERO PUSH2 0x2FA JUMPI DUP4 PUSH1 0x4 ADD CALLDATALOAD PUSH2 0x417A DUP2 PUSH2 0x4039 JUMP JUMPDEST SWAP5 PUSH2 0x4188 PUSH1 0x40 MLOAD SWAP7 DUP8 PUSH2 0x4018 JUMP JUMPDEST DUP2 DUP7 MSTORE PUSH1 0x20 SWAP5 PUSH1 0x24 PUSH1 0x20 DUP9 ADD SWAP4 PUSH1 0x5 SHL DUP4 ADD ADD SWAP5 DUP2 DUP7 GT PUSH2 0x2FA JUMPI PUSH1 0x24 DUP4 ADD SWAP4 JUMPDEST DUP7 DUP6 LT PUSH2 0x41BB JUMPI POP POP POP POP POP POP POP POP SWAP1 JUMP JUMPDEST DUP5 CALLDATALOAD DUP7 DUP2 GT PUSH2 0x2FA JUMPI DUP9 SWAP2 PUSH2 0x41D5 DUP6 DUP6 DUP6 SWAP5 DUP10 ADD ADD PUSH2 0x40F5 JUMP JUMPDEST DUP2 MSTORE ADD SWAP5 ADD SWAP4 PUSH2 0x41A9 JUMP JUMPDEST SWAP1 DUP2 MLOAD DUP1 DUP3 MSTORE PUSH1 0x20 DUP1 DUP1 SWAP4 ADD SWAP4 ADD SWAP2 PUSH0 JUMPDEST DUP3 DUP2 LT PUSH2 0x41FF JUMPI POP POP POP POP SWAP1 JUMP JUMPDEST DUP4 MLOAD DUP6 MSTORE SWAP4 DUP2 ADD SWAP4 SWAP3 DUP2 ADD SWAP3 PUSH1 0x1 ADD PUSH2 0x41F1 JUMP JUMPDEST PUSH1 0x60 PUSH1 0x3 NOT DUP3 ADD SLT PUSH2 0x2FA JUMPI PUSH1 0x4 CALLDATALOAD SWAP2 PUSH1 0x24 CALLDATALOAD PUSH1 0x1 PUSH1 0x1 PUSH1 0xA0 SHL SUB DUP2 AND DUP2 SUB PUSH2 0x2FA JUMPI SWAP2 PUSH1 0x44 CALLDATALOAD SWAP1 PUSH1 0x1 PUSH1 0x1 PUSH1 0x40 SHL SUB DUP3 GT PUSH2 0x2FA JUMPI PUSH2 0x4110 SWAP2 PUSH1 0x4 ADD PUSH2 0x40F5 JUMP JUMPDEST SWAP1 PUSH1 0x1 DUP3 DUP2 SHR SWAP3 AND DUP1 ISZERO PUSH2 0x4283 JUMPI JUMPDEST PUSH1 0x20 DUP4 LT EQ PUSH2 0x426F JUMPI JUMP JUMPDEST PUSH4 0x4E487B71 PUSH1 0xE0 SHL PUSH0 MSTORE PUSH1 0x22 PUSH1 0x4 MSTORE PUSH1 0x24 PUSH0 REVERT JUMPDEST SWAP2 PUSH1 0x7F AND SWAP2 PUSH2 0x4264 JUMP JUMPDEST SWAP1 PUSH1 0x40 MLOAD SWAP2 DUP3 PUSH0 DUP3 SLOAD PUSH2 0x429F DUP2 PUSH2 0x4255 JUMP JUMPDEST SWAP1 DUP2 DUP5 MSTORE PUSH1 0x20 SWAP5 PUSH1 0x1 SWAP2 PUSH1 0x1 DUP2 AND SWAP1 DUP2 PUSH0 EQ PUSH2 0x430D JUMPI POP PUSH1 0x1 EQ PUSH2 0x42CF JUMPI JUMPDEST POP POP POP PUSH2 0x42CD SWAP3 POP SUB DUP4 PUSH2 0x4018 JUMP JUMPDEST JUMP JUMPDEST PUSH0 SWAP1 DUP2 MSTORE DUP6 DUP2 KECCAK256 SWAP6 SWAP4 POP SWAP2 SWAP1 JUMPDEST DUP2 DUP4 LT PUSH2 0x42F5 JUMPI POP POP PUSH2 0x42CD SWAP4 POP DUP3 ADD ADD PUSH0 DUP1 DUP1 PUSH2 0x42BE JUMP JUMPDEST DUP6 SLOAD DUP9 DUP5 ADD DUP6 ADD MSTORE SWAP5 DUP6 ADD SWAP5 DUP8 SWAP5 POP SWAP2 DUP4 ADD SWAP2 PUSH2 0x42DC JUMP JUMPDEST SWAP3 POP POP POP PUSH2 0x42CD SWAP5 SWAP3 POP PUSH1 0xFF NOT AND DUP3 DUP5 ADD MSTORE ISZERO ISZERO PUSH1 0x5 SHL DUP3 ADD ADD PUSH0 DUP1 DUP1 PUSH2 0x42BE JUMP JUMPDEST SWAP2 SWAP1 DUP3 MLOAD SWAP3 DUP4 DUP3 MSTORE PUSH0 JUMPDEST DUP5 DUP2 LT PUSH2 0x4359 JUMPI POP POP DUP3 PUSH0 PUSH1 0x20 DUP1 SWAP5 SWAP6 DUP5 ADD ADD MSTORE PUSH1 0x1F DUP1 NOT SWAP2 ADD AND ADD ADD SWAP1 JUMP JUMPDEST PUSH1 0x20 DUP2 DUP4 ADD DUP2 ADD MLOAD DUP5 DUP4 ADD DUP3 ADD MSTORE ADD PUSH2 0x4339 JUMP JUMPDEST SWAP1 PUSH2 0x4385 PUSH1 0x20 SWAP2 SWAP5 SWAP4 SWAP5 PUSH1 0x40 DUP5 MSTORE PUSH1 0x40 DUP5 ADD SWAP1 PUSH2 0x432F JUMP JUMPDEST SWAP4 ISZERO ISZERO SWAP2 ADD MSTORE JUMP JUMPDEST PUSH1 0x40 SWAP1 PUSH1 0x3 NOT ADD SLT PUSH2 0x2FA JUMPI PUSH1 0x4 CALLDATALOAD SWAP1 PUSH1 0x24 CALLDATALOAD SWAP1 JUMP JUMPDEST PUSH1 0x40 SWAP1 PUSH1 0x3 NOT ADD SLT PUSH2 0x2FA JUMPI PUSH1 0x4 CALLDATALOAD SWAP1 PUSH1 0x24 CALLDATALOAD PUSH1 0x3 DUP2 LT ISZERO PUSH2 0x2FA JUMPI SWAP1 JUMP JUMPDEST DUP1 SLOAD DUP3 LT ISZERO PUSH2 0x43D7 JUMPI PUSH0 MSTORE PUSH1 0x20 PUSH0 KECCAK256 ADD SWAP1 PUSH0 SWAP1 JUMP JUMPDEST PUSH4 0x4E487B71 PUSH1 0xE0 SHL PUSH0 MSTORE PUSH1 0x32 PUSH1 0x4 MSTORE PUSH1 0x24 PUSH0 REVERT JUMPDEST PUSH1 0x5 GT ISZERO PUSH2 0x43F5 JUMPI JUMP JUMPDEST PUSH4 0x4E487B71 PUSH1 0xE0 SHL PUSH0 MSTORE PUSH1 0x21 PUSH1 0x4 MSTORE PUSH1 0x24 PUSH0 REVERT JUMPDEST SWAP1 PUSH1 0x3 DUP3 LT ISZERO PUSH2 0x43F5 JUMPI MSTORE JUMP JUMPDEST ISZERO PUSH2 0x441D JUMPI JUMP JUMPDEST PUSH1 0x40 MLOAD PUSH3 0x461BCD PUSH1 0xE5 SHL DUP2 MSTORE PUSH1 0x20 PUSH1 0x4 DUP3 ADD MSTORE PUSH1 0x14 PUSH1 0x24 DUP3 ADD MSTORE PUSH20 0x2737BA1030B71030B1BA34BB329036B2B6B132B9 PUSH1 0x61 SHL PUSH1 0x44 DUP3 ADD MSTORE PUSH1 0x64 SWAP1 REVERT JUMPDEST ISZERO PUSH2 0x4460 JUMPI JUMP JUMPDEST PUSH1 0x40 MLOAD PUSH3 0x461BCD PUSH1 0xE5 SHL DUP2 MSTORE PUSH1 0x20 PUSH1 0x4 DUP3 ADD MSTORE PUSH1 0x15 PUSH1 0x24 DUP3 ADD MSTORE PUSH21 0x82E4E4C2F240D8CADCCEE8D040DAD2E6DAC2E8C6D PUSH1 0x5B SHL PUSH1 0x44 DUP3 ADD MSTORE PUSH1 0x64 SWAP1 REVERT JUMPDEST ISZERO PUSH2 0x44A4 JUMPI JUMP JUMPDEST PUSH1 0x40 MLOAD PUSH3 0x461BCD PUSH1 0xE5 SHL DUP2 MSTORE PUSH1 0x20 PUSH1 0x4 DUP3 ADD MSTORE PUSH1 0x1C PUSH1 0x24 DUP3 ADD MSTORE PUSH32 0x5461726765742077616C6C6574206E6F74207265676973746572656400000000 PUSH1 0x44 DUP3 ADD MSTORE PUSH1 0x64 SWAP1 REVERT JUMPDEST SWAP1 PUSH1 0x40 MLOAD SWAP2 DUP3 DUP2 SLOAD SWAP2 DUP3 DUP3 MSTORE PUSH1 0x20 SWAP3 PUSH1 0x20 DUP4 ADD SWAP2 PUSH0 MSTORE PUSH1 0x20 PUSH0 KECCAK256 SWAP4 PUSH0 SWAP1 JUMPDEST DUP3 DUP3 LT PUSH2 0x451D JUMPI POP POP POP PUSH2 0x42CD SWAP3 POP SUB DUP4 PUSH2 0x4018 JUMP JUMPDEST DUP6 SLOAD DUP5 MSTORE PUSH1 0x1 SWAP6 DUP7 ADD SWAP6 DUP9 SWAP6 POP SWAP4 DUP2 ADD SWAP4 SWAP1 SWAP2 ADD SWAP1 PUSH2 0x4507 JUMP JUMPDEST PUSH1 0x1 PUSH1 0x1 PUSH1 0xA0 SHL SUB SWAP1 SWAP2 AND PUSH0 SWAP1 DUP2 MSTORE PUSH1 0x1 PUSH1 0x20 MSTORE PUSH1 0x40 SWAP1 KECCAK256 SLOAD SWAP1 DUP2 ISZERO PUSH2 0x4582 JUMPI PUSH2 0x4569 PUSH2 0x4562 PUSH2 0x4737 JUMP JUMPDEST DUP4 DUP4 PUSH2 0x4DA7 JUMP JUMPDEST SWAP2 DUP3 ISZERO PUSH2 0x4575 JUMPI POP POP SWAP1 JUMP JUMPDEST PUSH2 0x4110 SWAP3 POP PUSH2 0x76E PUSH2 0x4758 JUMP JUMPDEST POP POP PUSH0 SWAP1 JUMP JUMPDEST ISZERO PUSH2 0x458F JUMPI JUMP JUMPDEST PUSH1 0x40 MLOAD PUSH3 0x461BCD PUSH1 0xE5 SHL DUP2 MSTORE PUSH1 0x20 PUSH1 0x4 DUP3 ADD MSTORE PUSH1 0xA PUSH1 0x24 DUP3 ADD MSTORE PUSH10 0x27B7363C9030B236B4B7 PUSH1 0xB1 SHL PUSH1 0x44 DUP3 ADD MSTORE PUSH1 0x64 SWAP1 REVERT JUMPDEST ISZERO PUSH2 0x45C8 JUMPI JUMP JUMPDEST PUSH1 0x40 MLOAD PUSH3 0x461BCD PUSH1 0xE5 SHL DUP2 MSTORE PUSH1 0x20 PUSH1 0x4 DUP3 ADD MSTORE PUSH1 0x15 PUSH1 0x24 DUP3 ADD MSTORE PUSH21 0x15D85B1B195D081B9BDD081C9959DA5CDD195C9959 PUSH1 0x5A SHL PUSH1 0x44 DUP3 ADD MSTORE PUSH1 0x64 SWAP1 REVERT JUMPDEST ISZERO PUSH2 0x460C JUMPI JUMP JUMPDEST PUSH1 0x40 MLOAD PUSH3 0x461BCD PUSH1 0xE5 SHL DUP2 MSTORE PUSH1 0x20 PUSH1 0x4 DUP3 ADD MSTORE PUSH1 0x1E PUSH1 0x24 DUP3 ADD MSTORE PUSH32 0x5265636F726420494420686173682063616E6E6F7420626520656D7074790000 PUSH1 0x44 DUP3 ADD MSTORE PUSH1 0x64 SWAP1 REVERT JUMPDEST ISZERO PUSH2 0x4658 JUMPI JUMP JUMPDEST PUSH1 0x40 MLOAD PUSH3 0x461BCD PUSH1 0xE5 SHL DUP2 MSTORE PUSH1 0x20 PUSH1 0x4 DUP3 ADD MSTORE PUSH1 0x1D PUSH1 0x24 DUP3 ADD MSTORE PUSH32 0x57616C6C657420616464726573732063616E6E6F74206265207A65726F000000 PUSH1 0x44 DUP3 ADD MSTORE PUSH1 0x64 SWAP1 REVERT JUMPDEST ISZERO PUSH2 0x46A4 JUMPI JUMP JUMPDEST PUSH1 0x40 MLOAD PUSH3 0x461BCD PUSH1 0xE5 SHL DUP2 MSTORE PUSH1 0x20 PUSH1 0x4 DUP3 ADD MSTORE PUSH1 0x13 PUSH1 0x24 DUP3 ADD MSTORE PUSH19 0x496E76616C696420726F6C6520737472696E67 PUSH1 0x68 SHL PUSH1 0x44 DUP3 ADD MSTORE PUSH1 0x64 SWAP1 REVERT JUMPDEST ISZERO PUSH2 0x46E6 JUMPI JUMP JUMPDEST PUSH1 0x40 MLOAD PUSH3 0x461BCD PUSH1 0xE5 SHL DUP2 MSTORE PUSH1 0x20 PUSH1 0x4 DUP3 ADD MSTORE PUSH1 0x23 PUSH1 0x24 DUP3 ADD MSTORE PUSH32 0x54617267657420646F6573206E6F74206861766520616E206163746976652072 PUSH1 0x44 DUP3 ADD MSTORE PUSH3 0x6F6C65 PUSH1 0xE8 SHL PUSH1 0x64 DUP3 ADD MSTORE PUSH1 0x84 SWAP1 REVERT JUMPDEST PUSH1 0x40 MLOAD SWAP1 PUSH2 0x4744 DUP3 PUSH2 0x3FCE JUMP JUMPDEST PUSH1 0x5 DUP3 MSTORE PUSH5 0x37BBB732B9 PUSH1 0xD9 SHL PUSH1 0x20 DUP4 ADD MSTORE JUMP JUMPDEST PUSH1 0x40 MLOAD SWAP1 PUSH2 0x4765 DUP3 PUSH2 0x3FCE JUMP JUMPDEST PUSH1 0xD DUP3 MSTORE PUSH13 0x30B236B4B734B9BA3930BA37B9 PUSH1 0x99 SHL PUSH1 0x20 DUP4 ADD MSTORE JUMP JUMPDEST PUSH1 0x40 MLOAD SWAP1 PUSH2 0x478E DUP3 PUSH2 0x3FCE JUMP JUMPDEST PUSH1 0x6 DUP3 MSTORE PUSH6 0x39B430B932B9 PUSH1 0xD1 SHL PUSH1 0x20 DUP4 ADD MSTORE JUMP JUMPDEST PUSH1 0x40 MLOAD SWAP1 PUSH2 0x47B0 DUP3 PUSH2 0x3FCE JUMP JUMPDEST PUSH1 0x6 DUP3 MSTORE PUSH6 0x3B34B2BBB2B9 PUSH1 0xD1 SHL PUSH1 0x20 DUP4 ADD MSTORE JUMP JUMPDEST SWAP2 SWAP1 PUSH1 0x1 DUP1 PUSH1 0xA0 SHL SUB AND PUSH0 MSTORE PUSH1 0x1 PUSH1 0x20 MSTORE PUSH1 0x40 PUSH0 KECCAK256 SLOAD DUP1 ISZERO PUSH2 0x47EA JUMPI PUSH2 0x4110 SWAP3 PUSH2 0x4DA7 JUMP JUMPDEST POP POP POP PUSH0 SWAP1 JUMP JUMPDEST PUSH1 0x1 PUSH1 0x1 PUSH1 0xA0 SHL SUB SWAP1 SWAP2 AND PUSH0 SWAP1 DUP2 MSTORE PUSH1 0x1 PUSH1 0x20 MSTORE PUSH1 0x40 SWAP1 KECCAK256 SLOAD SWAP1 DUP2 ISZERO PUSH2 0x4853 JUMPI PUSH1 0x20 SWAP3 SWAP2 PUSH2 0x481E SWAP2 PUSH2 0x4D73 JUMP JUMPDEST PUSH0 MSTORE PUSH1 0x5 DUP3 MSTORE PUSH1 0x40 PUSH0 KECCAK256 PUSH1 0x40 MLOAD PUSH2 0x4834 DUP2 PUSH2 0x3FCE JUMP JUMPDEST PUSH1 0xFF PUSH1 0x1 PUSH2 0x4841 DUP5 PUSH2 0x428D JUMP JUMPDEST SWAP4 DUP5 DUP5 MSTORE ADD SLOAD AND ISZERO ISZERO SWAP4 DUP5 SWAP2 ADD MSTORE SWAP2 SWAP1 JUMP JUMPDEST POP POP PUSH1 0x40 MLOAD PUSH2 0x4861 DUP2 PUSH2 0x3FFD JUMP JUMPDEST PUSH0 DUP2 MSTORE SWAP1 PUSH0 SWAP1 JUMP JUMPDEST ISZERO PUSH2 0x4870 JUMPI JUMP JUMPDEST PUSH1 0x40 MLOAD PUSH3 0x461BCD PUSH1 0xE5 SHL DUP2 MSTORE PUSH1 0x20 PUSH1 0x4 DUP3 ADD MSTORE PUSH1 0x16 PUSH1 0x24 DUP3 ADD MSTORE PUSH22 0x496E76616C69642077616C6C65742061646472657373 PUSH1 0x50 SHL PUSH1 0x44 DUP3 ADD MSTORE PUSH1 0x64 SWAP1 REVERT JUMPDEST ISZERO PUSH2 0x48B5 JUMPI JUMP JUMPDEST PUSH1 0x40 MLOAD PUSH3 0x461BCD PUSH1 0xE5 SHL DUP2 MSTORE PUSH1 0x20 PUSH1 0x4 DUP3 ADD MSTORE PUSH1 0x14 PUSH1 0x24 DUP3 ADD MSTORE PUSH20 0x92DCECC2D8D2C840EAE6CAE440928840D0C2E6D PUSH1 0x63 SHL PUSH1 0x44 DUP3 ADD MSTORE PUSH1 0x64 SWAP1 REVERT JUMPDEST ISZERO PUSH2 0x48F8 JUMPI JUMP JUMPDEST PUSH1 0x40 MLOAD PUSH3 0x461BCD PUSH1 0xE5 SHL DUP2 MSTORE PUSH1 0x20 PUSH1 0x4 DUP3 ADD MSTORE PUSH1 0x19 PUSH1 0x24 DUP3 ADD MSTORE PUSH32 0x57616C6C657420616C7265616479207265676973746572656400000000000000 PUSH1 0x44 DUP3 ADD MSTORE PUSH1 0x64 SWAP1 REVERT JUMPDEST DUP1 SLOAD PUSH1 0x1 PUSH1 0x40 SHL DUP2 LT ISZERO PUSH2 0x3FE9 JUMPI PUSH2 0x495A SWAP2 PUSH1 0x1 DUP3 ADD DUP2 SSTORE PUSH2 0x43C2 JUMP JUMPDEST PUSH1 0x1 DUP1 PUSH1 0xA0 SWAP5 SWAP4 SWAP5 SHL SUB DUP1 DUP5 SLOAD SWAP3 PUSH1 0x3 SHL SWAP4 AND DUP4 SHL SWAP3 SHL NOT AND OR SWAP1 SSTORE JUMP JUMPDEST SWAP1 PUSH2 0x4982 DUP2 PUSH2 0x43EB JUMP JUMPDEST PUSH1 0xFF DUP1 NOT DUP4 SLOAD AND SWAP2 AND OR SWAP1 SSTORE JUMP JUMPDEST PUSH0 NOT DUP2 EQ PUSH2 0x499E JUMPI PUSH1 0x1 ADD SWAP1 JUMP JUMPDEST PUSH4 0x4E487B71 PUSH1 0xE0 SHL PUSH0 MSTORE PUSH1 0x11 PUSH1 0x4 MSTORE PUSH1 0x24 PUSH0 REVERT JUMPDEST ISZERO PUSH2 0x49B9 JUMPI JUMP JUMPDEST PUSH1 0x40 MLOAD PUSH3 0x461BCD PUSH1 0xE5 SHL DUP2 MSTORE PUSH1 0x20 PUSH1 0x4 DUP3 ADD MSTORE PUSH1 0x1E PUSH1 0x24 DUP3 ADD MSTORE PUSH32 0x4E6F2061637469766520747275737465652072656C6174696F6E736869700000 PUSH1 0x44 DUP3 ADD MSTORE PUSH1 0x64 SWAP1 REVERT JUMPDEST SWAP1 PUSH1 0x3 DUP2 LT ISZERO PUSH2 0x43F5 JUMPI PUSH2 0xFF00 DUP3 SLOAD SWAP2 PUSH1 0x8 SHL AND SWAP1 PUSH2 0xFF00 NOT AND OR SWAP1 SSTORE JUMP JUMPDEST PUSH2 0x4A3E PUSH1 0x40 SWAP3 SWAP6 SWAP5 SWAP4 PUSH2 0x4A34 DUP4 PUSH1 0x60 DUP2 ADD SWAP9 PUSH2 0x4409 JUMP JUMPDEST PUSH1 0x20 DUP4 ADD SWAP1 PUSH2 0x4409 JUMP JUMPDEST ADD MSTORE JUMP JUMPDEST DUP1 MLOAD DUP3 LT ISZERO PUSH2 0x43D7 JUMPI PUSH1 0x20 SWAP2 PUSH1 0x5 SHL ADD ADD SWAP1 JUMP JUMPDEST PUSH1 0x3 DUP3 LT ISZERO PUSH2 0x43F5 JUMPI MSTORE JUMP JUMPDEST ISZERO PUSH2 0x4A69 JUMPI JUMP JUMPDEST PUSH1 0x40 MLOAD PUSH3 0x461BCD PUSH1 0xE5 SHL DUP2 MSTORE PUSH1 0x20 PUSH1 0x4 DUP3 ADD MSTORE PUSH1 0xF PUSH1 0x24 DUP3 ADD MSTORE PUSH15 0x496E76616C69642061646472657373 PUSH1 0x88 SHL PUSH1 0x44 DUP3 ADD MSTORE PUSH1 0x64 SWAP1 REVERT JUMPDEST PUSH1 0x1 PUSH1 0x1 PUSH1 0xA0 SHL SUB SWAP1 SWAP2 AND PUSH0 SWAP1 DUP2 MSTORE PUSH1 0x1 PUSH1 0x20 MSTORE PUSH1 0x40 SWAP1 KECCAK256 SLOAD DUP1 ISZERO PUSH2 0x4582 JUMPI PUSH2 0x4AC8 SWAP2 PUSH2 0x4D73 JUMP JUMPDEST PUSH0 MSTORE PUSH1 0x5 PUSH1 0x20 MSTORE PUSH1 0xFF PUSH1 0x1 PUSH1 0x40 PUSH0 KECCAK256 ADD SLOAD AND SWAP1 JUMP JUMPDEST DUP1 SLOAD SWAP1 PUSH0 DUP2 SSTORE DUP2 PUSH2 0x4AEC JUMPI POP POP JUMP JUMPDEST PUSH0 MSTORE PUSH1 0x20 PUSH0 KECCAK256 SWAP1 DUP2 ADD SWAP1 JUMPDEST DUP2 DUP2 LT PUSH2 0x4B02 JUMPI POP POP JUMP JUMPDEST PUSH0 DUP2 SSTORE PUSH1 0x1 ADD PUSH2 0x4AF7 JUMP JUMPDEST ISZERO PUSH2 0x4B14 JUMPI JUMP JUMPDEST PUSH1 0x40 MLOAD PUSH3 0x461BCD PUSH1 0xE5 SHL DUP2 MSTORE PUSH1 0x20 PUSH1 0x4 DUP3 ADD MSTORE PUSH1 0xF PUSH1 0x24 DUP3 ADD MSTORE PUSH15 0x496E76616C69642074727573746565 PUSH1 0x88 SHL PUSH1 0x44 DUP3 ADD MSTORE PUSH1 0x64 SWAP1 REVERT JUMPDEST ISZERO PUSH2 0x4B52 JUMPI JUMP JUMPDEST PUSH1 0x40 MLOAD PUSH3 0x461BCD PUSH1 0xE5 SHL DUP2 MSTORE PUSH1 0x20 PUSH1 0x4 DUP3 ADD MSTORE PUSH1 0x17 PUSH1 0x24 DUP3 ADD MSTORE PUSH32 0x43616E6E6F74206170706F696E7420796F757273656C66000000000000000000 PUSH1 0x44 DUP3 ADD MSTORE PUSH1 0x64 SWAP1 REVERT JUMPDEST ISZERO PUSH2 0x4B9E JUMPI JUMP JUMPDEST PUSH1 0x40 MLOAD PUSH3 0x461BCD PUSH1 0xE5 SHL DUP2 MSTORE PUSH1 0x20 PUSH1 0x4 DUP3 ADD MSTORE PUSH1 0x16 PUSH1 0x24 DUP3 ADD MSTORE PUSH22 0x151C9D5CDD1959481B9BDD081C9959DA5CDD195C9959 PUSH1 0x52 SHL PUSH1 0x44 DUP3 ADD MSTORE PUSH1 0x64 SWAP1 REVERT JUMPDEST DUP1 SLOAD SWAP1 PUSH1 0x1 PUSH1 0x40 SHL DUP3 LT ISZERO PUSH2 0x3FE9 JUMPI DUP2 PUSH2 0x4BFE SWAP2 PUSH1 0x1 PUSH2 0x4C14 SWAP5 ADD DUP2 SSTORE PUSH2 0x43C2 JUMP JUMPDEST DUP2 SWAP4 SWAP2 SLOAD SWAP1 PUSH1 0x3 SHL SWAP2 DUP3 SHL SWAP2 PUSH0 NOT SWAP1 SHL NOT AND OR SWAP1 JUMP JUMPDEST SWAP1 SSTORE JUMP JUMPDEST PUSH1 0x1 PUSH1 0x1 PUSH1 0xA0 SHL SUB AND PUSH0 SWAP1 DUP2 MSTORE PUSH1 0x1 PUSH1 0x20 MSTORE PUSH1 0x40 SWAP1 KECCAK256 DUP1 SLOAD SWAP1 DUP2 ISZERO SWAP1 DUP2 ISZERO PUSH2 0x4C99 JUMPI JUMPDEST POP PUSH2 0x4C94 JUMPI PUSH0 MSTORE PUSH1 0x2 PUSH1 0x20 MSTORE PUSH1 0xFF PUSH1 0x40 PUSH0 KECCAK256 SLOAD AND PUSH2 0x4C58 DUP2 PUSH2 0x43EB JUMP JUMPDEST PUSH1 0x2 DUP2 EQ SWAP1 DUP2 ISZERO PUSH2 0x4C7F JUMPI JUMPDEST DUP2 ISZERO PUSH2 0x4C6E JUMPI POP SWAP1 JUMP JUMPDEST PUSH1 0x4 SWAP2 POP PUSH2 0x4C7B DUP2 PUSH2 0x43EB JUMP JUMPDEST EQ SWAP1 JUMP JUMPDEST SWAP1 POP PUSH2 0x4C8A DUP2 PUSH2 0x43EB JUMP JUMPDEST PUSH1 0x3 DUP2 EQ SWAP1 PUSH2 0x4C64 JUMP JUMPDEST POP PUSH0 SWAP1 JUMP JUMPDEST PUSH1 0xFF SWAP2 POP PUSH1 0x1 ADD SLOAD AND ISZERO PUSH0 PUSH2 0x4C3B JUMP JUMPDEST PUSH1 0x1 PUSH1 0x1 PUSH1 0xA0 SHL SUB AND PUSH0 SWAP1 DUP2 MSTORE PUSH1 0x1 PUSH1 0x20 MSTORE PUSH1 0x40 SWAP1 KECCAK256 DUP1 SLOAD SWAP1 DUP2 ISZERO SWAP1 DUP2 ISZERO PUSH2 0x4CEB JUMPI JUMPDEST POP PUSH2 0x4C94 JUMPI PUSH0 MSTORE PUSH1 0x2 PUSH1 0x20 MSTORE PUSH1 0x4 PUSH1 0xFF PUSH1 0x40 PUSH0 KECCAK256 SLOAD AND PUSH2 0x4C7B DUP2 PUSH2 0x43EB JUMP JUMPDEST PUSH1 0xFF SWAP2 POP PUSH1 0x1 ADD SLOAD AND ISZERO PUSH0 PUSH2 0x4CCC JUMP JUMPDEST PUSH1 0x20 DUP2 MLOAD SWAP2 ADD KECCAK256 PUSH2 0x4D0A PUSH2 0x4737 JUMP JUMPDEST PUSH1 0x20 DUP2 MLOAD SWAP2 ADD KECCAK256 DUP2 EQ SWAP1 DUP2 ISZERO PUSH2 0x4D5A JUMPI JUMPDEST DUP2 ISZERO PUSH2 0x4D41 JUMPI JUMPDEST DUP2 ISZERO PUSH2 0x4D2C JUMPI POP SWAP1 JUMP JUMPDEST SWAP1 POP PUSH2 0x4D36 PUSH2 0x47A3 JUMP JUMPDEST PUSH1 0x20 DUP2 MLOAD SWAP2 ADD KECCAK256 EQ SWAP1 JUMP JUMPDEST SWAP1 POP PUSH2 0x4D4B PUSH2 0x4781 JUMP JUMPDEST PUSH1 0x20 DUP2 MLOAD SWAP2 ADD KECCAK256 DUP2 EQ SWAP1 PUSH2 0x4D22 JUMP JUMPDEST SWAP1 POP PUSH2 0x4D64 PUSH2 0x4758 JUMP JUMPDEST PUSH1 0x20 DUP2 MLOAD SWAP2 ADD KECCAK256 DUP2 EQ SWAP1 PUSH2 0x4D1B JUMP JUMPDEST SWAP1 PUSH1 0x40 MLOAD SWAP1 PUSH1 0x20 DUP3 ADD SWAP3 DUP4 MSTORE PUSH1 0x40 DUP3 ADD MSTORE PUSH1 0x40 DUP2 MSTORE PUSH1 0x60 DUP2 ADD DUP2 DUP2 LT PUSH1 0x1 PUSH1 0x1 PUSH1 0x40 SHL SUB DUP3 GT OR PUSH2 0x3FE9 JUMPI PUSH1 0x40 MSTORE MLOAD SWAP1 KECCAK256 SWAP1 JUMP JUMPDEST PUSH1 0x20 SWAP3 SWAP2 PUSH2 0x4DB4 SWAP2 PUSH2 0x4D73 JUMP JUMPDEST PUSH0 MSTORE PUSH1 0x5 DUP3 MSTORE PUSH1 0x40 PUSH0 KECCAK256 PUSH1 0x40 MLOAD PUSH2 0x4DCA DUP2 PUSH2 0x3FCE JUMP JUMPDEST PUSH1 0xFF PUSH1 0x1 PUSH2 0x4DD7 DUP5 PUSH2 0x428D JUMP JUMPDEST SWAP4 DUP5 DUP5 MSTORE ADD SLOAD AND ISZERO ISZERO SWAP4 DUP5 SWAP2 ADD MSTORE DUP3 PUSH2 0x4DEF JUMPI POP POP SWAP1 JUMP JUMPDEST SWAP1 SWAP2 POP PUSH1 0x20 DUP2 MLOAD SWAP2 ADD KECCAK256 SWAP1 PUSH1 0x20 DUP2 MLOAD SWAP2 ADD KECCAK256 EQ SWAP1 JUMP JUMPDEST PUSH1 0xA SLOAD PUSH1 0x1 PUSH1 0x1 PUSH1 0xA0 SHL SUB AND SWAP2 DUP3 ISZERO PUSH2 0x47EA JUMPI PUSH1 0x44 PUSH1 0x20 SWAP3 PUSH1 0x40 MLOAD SWAP5 DUP6 SWAP4 DUP5 SWAP3 PUSH4 0x193D8E75 PUSH1 0xE2 SHL DUP5 MSTORE PUSH1 0x4 DUP5 ADD MSTORE PUSH1 0x24 DUP4 ADD MSTORE GAS STATICCALL SWAP1 DUP2 ISZERO PUSH2 0x4E84 JUMPI PUSH0 SWAP2 PUSH2 0x4E4C JUMPI POP SWAP1 JUMP JUMPDEST SWAP1 POP PUSH1 0x20 DUP2 RETURNDATASIZE PUSH1 0x20 GT PUSH2 0x4E7C JUMPI JUMPDEST DUP2 PUSH2 0x4E67 PUSH1 0x20 SWAP4 DUP4 PUSH2 0x4018 JUMP JUMPDEST DUP2 ADD SUB SLT PUSH2 0x2FA JUMPI MLOAD DUP1 ISZERO ISZERO DUP2 SUB PUSH2 0x2FA JUMPI SWAP1 JUMP JUMPDEST RETURNDATASIZE SWAP2 POP PUSH2 0x4E5A JUMP JUMPDEST PUSH1 0x40 MLOAD RETURNDATASIZE PUSH0 DUP3 RETURNDATACOPY RETURNDATASIZE SWAP1 REVERT JUMPDEST SWAP2 SWAP3 PUSH32 0x3AF67CF2057BA8EF414286FB626CD3EFB02F74996E18EFD455B39D8EC7EC460F SWAP2 SWAP5 PUSH2 0x4EE9 PUSH2 0x4EDB SWAP3 PUSH2 0x4EC7 DUP9 DUP3 DUP10 DUP10 PUSH2 0x507E JUMP JUMPDEST PUSH1 0x40 MLOAD SWAP4 DUP5 SWAP4 PUSH1 0x60 DUP6 MSTORE PUSH1 0x60 DUP6 ADD SWAP1 PUSH2 0x432F JUMP JUMPDEST SWAP1 DUP4 DUP3 SUB PUSH1 0x20 DUP6 ADD MSTORE PUSH2 0x432F JUMP JUMPDEST TIMESTAMP PUSH1 0x40 DUP4 ADD MSTORE SUB SWAP1 LOG4 JUMP JUMPDEST DUP3 MLOAD PUSH1 0x20 DUP1 SWAP5 ADD KECCAK256 PUSH2 0x4F04 PUSH2 0x4737 JUMP JUMPDEST DUP1 MLOAD SWAP1 DUP6 ADD KECCAK256 DUP2 SUB PUSH2 0x4F24 JUMPI POP PUSH2 0x42CD SWAP3 PUSH1 0x6 SWAP2 PUSH0 MSTORE MSTORE PUSH1 0x40 PUSH0 KECCAK256 PUSH2 0x5395 JUMP JUMPDEST PUSH2 0x4F2C PUSH2 0x4758 JUMP JUMPDEST DUP1 MLOAD SWAP1 DUP6 ADD KECCAK256 DUP2 SUB PUSH2 0x4F4C JUMPI POP PUSH2 0x42CD SWAP3 PUSH1 0x7 SWAP2 PUSH0 MSTORE MSTORE PUSH1 0x40 PUSH0 KECCAK256 PUSH2 0x5395 JUMP JUMPDEST PUSH2 0x4F54 PUSH2 0x4781 JUMP JUMPDEST DUP1 MLOAD SWAP1 DUP6 ADD KECCAK256 DUP2 SUB PUSH2 0x4F74 JUMPI POP PUSH2 0x42CD SWAP3 PUSH1 0x8 SWAP2 PUSH0 MSTORE MSTORE PUSH1 0x40 PUSH0 KECCAK256 PUSH2 0x5395 JUMP JUMPDEST PUSH2 0x4F7C PUSH2 0x47A3 JUMP JUMPDEST DUP5 DUP2 MLOAD SWAP2 ADD KECCAK256 EQ PUSH2 0x4F8C JUMPI POP POP POP JUMP JUMPDEST PUSH2 0x42CD SWAP3 PUSH1 0x9 SWAP2 PUSH0 MSTORE MSTORE PUSH1 0x40 PUSH0 KECCAK256 PUSH2 0x5395 JUMP JUMPDEST SWAP3 SWAP2 SWAP1 DUP4 PUSH0 MSTORE PUSH1 0x20 SWAP1 PUSH1 0xD DUP3 MSTORE PUSH1 0x40 SWAP1 PUSH1 0x40 PUSH0 KECCAK256 DUP2 PUSH0 MSTORE DUP4 MSTORE PUSH1 0x40 PUSH0 KECCAK256 SWAP6 PUSH0 JUMPDEST DUP8 SLOAD DUP2 LT ISZERO PUSH2 0x506A JUMPI DUP1 PUSH2 0x4FD5 PUSH1 0x1 SWAP3 DUP11 PUSH2 0x43C2 JUMP JUMPDEST SWAP1 SLOAD SWAP1 PUSH1 0x3 SHL SHR PUSH2 0x4FE6 DUP6 DUP3 PUSH2 0x4D73 JUMP JUMPDEST PUSH0 MSTORE PUSH1 0x5 DUP1 DUP9 MSTORE PUSH1 0xFF DUP5 DUP9 PUSH0 KECCAK256 ADD SLOAD AND ISZERO PUSH2 0x5063 JUMPI PUSH2 0x5006 DUP10 DUP7 DUP5 PUSH2 0x52B3 JUMP JUMPDEST SWAP1 PUSH2 0x5010 DUP3 PUSH2 0x4CFB JUMP JUMPDEST ISZERO PUSH2 0x505B JUMPI PUSH2 0x501F DUP8 DUP5 PUSH2 0x4D73 JUMP JUMPDEST PUSH0 MSTORE DUP9 MSTORE PUSH2 0x502E DUP8 PUSH0 KECCAK256 PUSH2 0x428D JUMP JUMPDEST SWAP1 DUP7 DUP7 DUP4 MLOAD DUP12 DUP6 ADD KECCAK256 DUP4 MLOAD DUP13 DUP6 ADD KECCAK256 EQ PUSH2 0x5051 JUMPI PUSH2 0x504B SWAP5 PUSH2 0x4E8F JUMP JUMPDEST ADD PUSH2 0x4FBF JUMP JUMPDEST POP POP POP POP POP PUSH2 0x504B JUMP JUMPDEST POP POP POP PUSH2 0x504B JUMP JUMPDEST POP POP PUSH2 0x504B JUMP JUMPDEST POP POP POP POP POP POP SWAP1 POP JUMP JUMPDEST SWAP1 PUSH2 0x4AC8 SWAP2 PUSH2 0x4D73 JUMP JUMPDEST SWAP3 SWAP2 SWAP3 PUSH2 0x508B DUP3 DUP3 PUSH2 0x4D73 JUMP JUMPDEST SWAP4 DUP5 PUSH0 MSTORE PUSH1 0x20 PUSH1 0x5 DUP2 MSTORE PUSH1 0x40 SWAP1 DUP2 PUSH0 KECCAK256 SWAP7 PUSH2 0x50A5 DUP9 PUSH2 0x428D JUMP JUMPDEST SWAP8 PUSH1 0xFF PUSH1 0x1 DUP1 SWAP3 ADD SLOAD AND SWAP1 DUP5 MLOAD SWAP1 PUSH2 0x50BC DUP3 PUSH2 0x3FCE JUMP JUMPDEST DUP7 DUP3 MSTORE DUP5 DUP3 ADD DUP2 DUP2 MSTORE DUP5 PUSH0 MSTORE PUSH1 0x5 DUP7 MSTORE DUP7 PUSH0 KECCAK256 SWAP3 MLOAD DUP1 MLOAD SWAP1 PUSH1 0x1 PUSH1 0x1 PUSH1 0x40 SHL SUB DUP3 GT PUSH2 0x3FE9 JUMPI PUSH2 0x50EC DUP6 SLOAD PUSH2 0x4255 JUMP JUMPDEST PUSH1 0x1F DUP2 GT PUSH2 0x521B JUMPI JUMPDEST POP DUP8 SWAP1 PUSH1 0x1F DUP4 GT PUSH1 0x1 EQ PUSH2 0x51CD JUMPI PUSH2 0x513A SWAP6 SWAP5 SWAP4 SWAP3 SWAP2 PUSH0 SWAP2 DUP4 PUSH2 0x25E1 JUMPI POP POP PUSH0 NOT PUSH1 0x3 DUP4 SWAP1 SHL SHR NOT AND SWAP1 DUP4 SHL OR DUP4 SSTORE MLOAD ISZERO ISZERO SWAP2 ADD SWAP1 PUSH1 0xFF DUP1 NOT DUP4 SLOAD AND SWAP2 ISZERO ISZERO AND OR SWAP1 SSTORE JUMP JUMPDEST PUSH2 0x5198 JUMPI PUSH32 0xF9D17EB1340AB78960B594FF8BED1349985B800EE21199C6D5EA4A67454593AD SWAP5 SWAP6 SWAP7 SWAP8 POP PUSH0 MSTORE PUSH1 0xB DUP2 MSTORE DUP7 DUP3 PUSH0 KECCAK256 SSTORE PUSH2 0x517A DUP4 DUP8 DUP8 PUSH2 0x542C JUMP JUMPDEST PUSH2 0x518D DUP3 MLOAD SWAP4 DUP4 DUP6 SWAP5 DUP6 MSTORE DUP5 ADD SWAP1 PUSH2 0x432F JUMP JUMPDEST SWAP1 TIMESTAMP SWAP1 DUP4 ADD MSTORE SUB SWAP1 LOG4 JUMP JUMPDEST POP SWAP2 SWAP5 POP POP DUP5 MLOAD DUP2 DUP7 ADD KECCAK256 SWAP1 DUP5 MLOAD SWAP1 DUP6 ADD KECCAK256 SUB PUSH2 0x51B6 JUMPI JUMPDEST POP POP POP POP JUMP JUMPDEST PUSH2 0x25DC PUSH2 0x51C4 SWAP5 DUP4 DUP4 PUSH2 0x4EF4 JUMP JUMPDEST PUSH0 DUP1 DUP1 DUP1 PUSH2 0x51B0 JUMP JUMPDEST SWAP1 PUSH1 0x1F NOT DUP4 AND SWAP2 DUP7 PUSH0 MSTORE DUP10 PUSH0 KECCAK256 SWAP3 PUSH0 JUMPDEST DUP12 DUP3 DUP3 LT PUSH2 0x5207 JUMPI POP POP SWAP2 DUP7 SWAP6 SWAP5 SWAP3 SWAP2 DUP4 PUSH2 0x513A SWAP10 SWAP9 SWAP6 SWAP4 LT PUSH2 0x2627 JUMPI POP POP POP DUP2 SHL ADD DUP4 SSTORE PUSH2 0x254A JUMP JUMPDEST DUP4 DUP6 ADD MLOAD DUP7 SSTORE SWAP5 DUP9 ADD SWAP5 SWAP4 DUP5 ADD SWAP4 ADD PUSH2 0x51DD JUMP JUMPDEST DUP6 PUSH0 MSTORE DUP9 PUSH0 KECCAK256 PUSH1 0x1F DUP5 ADD PUSH1 0x5 SHR DUP2 ADD SWAP2 DUP11 DUP6 LT PUSH2 0x5257 JUMPI JUMPDEST PUSH1 0x1F ADD PUSH1 0x5 SHR ADD SWAP1 DUP6 SWAP1 JUMPDEST DUP3 DUP2 LT PUSH2 0x524C JUMPI POP POP PUSH2 0x50F5 JUMP JUMPDEST PUSH0 DUP2 SSTORE ADD DUP6 SWAP1 PUSH2 0x523E JUMP JUMPDEST SWAP1 SWAP2 POP DUP2 SWAP1 PUSH2 0x5233 JUMP JUMPDEST PUSH1 0x1 PUSH1 0x1 PUSH1 0xA0 SHL SUB AND PUSH0 SWAP1 DUP2 MSTORE PUSH1 0x1 PUSH1 0x20 MSTORE PUSH1 0x40 SWAP1 KECCAK256 DUP1 SLOAD SWAP1 DUP2 ISZERO SWAP1 DUP2 ISZERO PUSH2 0x52A3 JUMPI JUMPDEST POP PUSH2 0x4C94 JUMPI PUSH0 MSTORE PUSH1 0x2 PUSH1 0x20 MSTORE PUSH1 0x3 PUSH1 0xFF PUSH1 0x40 PUSH0 KECCAK256 SLOAD AND PUSH2 0x4C7B DUP2 PUSH2 0x43EB JUMP JUMPDEST PUSH1 0xFF SWAP2 POP PUSH1 0x1 ADD SLOAD AND ISZERO PUSH0 PUSH2 0x5284 JUMP JUMPDEST SWAP1 PUSH1 0x3 DUP4 LT ISZERO PUSH2 0x43F5 JUMPI DUP3 ISZERO PUSH2 0x538A JUMPI PUSH2 0x52CC SWAP2 PUSH2 0x4D73 JUMP JUMPDEST PUSH0 MSTORE PUSH1 0x20 SWAP1 PUSH1 0x5 DUP3 MSTORE PUSH1 0x40 PUSH0 KECCAK256 PUSH1 0xFF PUSH1 0x1 PUSH1 0x40 MLOAD SWAP3 PUSH2 0x52EA DUP5 PUSH2 0x3FCE JUMP JUMPDEST PUSH2 0x52F3 DUP2 PUSH2 0x428D JUMP JUMPDEST DUP5 MSTORE ADD SLOAD AND ISZERO DUP1 ISZERO DUP5 DUP4 ADD MSTORE PUSH2 0x5374 JUMPI MLOAD SWAP2 JUMPDEST DUP3 MLOAD DUP2 DUP5 ADD KECCAK256 SWAP2 PUSH2 0x5315 PUSH2 0x4781 JUMP JUMPDEST DUP3 DUP2 MLOAD SWAP2 ADD KECCAK256 DUP4 EQ DUP1 ISZERO PUSH2 0x535E JUMPI JUMPDEST PUSH2 0x5352 JUMPI PUSH1 0x1 EQ PUSH2 0x5334 JUMPI POP POP SWAP1 JUMP JUMPDEST PUSH2 0x533C PUSH2 0x4737 JUMP JUMPDEST DUP1 MLOAD SWAP2 ADD KECCAK256 EQ PUSH2 0x5349 JUMPI SWAP1 JUMP JUMPDEST POP PUSH2 0x4110 PUSH2 0x4758 JUMP JUMPDEST POP POP POP POP PUSH2 0x4110 PUSH2 0x47A3 JUMP JUMPDEST POP PUSH2 0x5367 PUSH2 0x47A3 JUMP JUMPDEST DUP3 DUP2 MLOAD SWAP2 ADD KECCAK256 DUP4 EQ PUSH2 0x5324 JUMP JUMPDEST POP PUSH1 0x40 MLOAD PUSH2 0x5381 DUP2 PUSH2 0x3FFD JUMP JUMPDEST PUSH0 DUP2 MSTORE SWAP2 PUSH2 0x5306 JUMP JUMPDEST POP POP POP PUSH2 0x4110 PUSH2 0x47A3 JUMP JUMPDEST PUSH0 JUMPDEST DUP2 SLOAD SWAP1 DUP2 DUP2 LT ISZERO PUSH2 0x51B0 JUMPI DUP4 SWAP2 PUSH2 0x53AE DUP3 DUP6 PUSH2 0x43C2 JUMP JUMPDEST SWAP6 SWAP1 SLOAD PUSH1 0x3 SWAP7 DUP8 SHL SHR EQ PUSH2 0x53C8 JUMPI POP SWAP1 SWAP3 POP PUSH1 0x1 ADD PUSH2 0x5397 JUMP JUMPDEST PUSH0 NOT SWAP3 POP DUP3 DUP2 ADD SWAP1 DUP2 GT PUSH2 0x499E JUMPI PUSH2 0x4BFE PUSH2 0x53E6 PUSH2 0x53F3 SWAP3 DUP7 PUSH2 0x43C2 JUMP JUMPDEST SWAP1 SLOAD SWAP1 DUP8 SHL SHR SWAP3 DUP6 PUSH2 0x43C2 JUMP JUMPDEST SWAP1 SSTORE DUP2 SLOAD DUP1 ISZERO PUSH2 0x5418 JUMPI DUP2 ADD SWAP3 PUSH2 0x540A DUP5 DUP5 PUSH2 0x43C2 JUMP JUMPDEST DUP2 SWAP4 SWAP2 SLOAD SWAP3 SHL SHL NOT AND SWAP1 SSTORE SSTORE JUMP JUMPDEST PUSH4 0x4E487B71 PUSH1 0xE0 SHL PUSH0 MSTORE PUSH1 0x31 PUSH1 0x4 MSTORE PUSH1 0x24 PUSH0 REVERT JUMPDEST DUP3 MLOAD PUSH1 0x20 DUP1 SWAP5 ADD KECCAK256 PUSH2 0x543C PUSH2 0x4737 JUMP JUMPDEST DUP1 MLOAD SWAP1 DUP6 ADD KECCAK256 DUP2 SUB PUSH2 0x545C JUMPI POP PUSH2 0x42CD SWAP3 PUSH1 0x6 SWAP2 PUSH0 MSTORE MSTORE PUSH1 0x40 PUSH0 KECCAK256 PUSH2 0x4BDC JUMP JUMPDEST PUSH2 0x5464 PUSH2 0x4758 JUMP JUMPDEST DUP1 MLOAD SWAP1 DUP6 ADD KECCAK256 DUP2 SUB PUSH2 0x5484 JUMPI POP PUSH2 0x42CD SWAP3 PUSH1 0x7 SWAP2 PUSH0 MSTORE MSTORE PUSH1 0x40 PUSH0 KECCAK256 PUSH2 0x4BDC JUMP JUMPDEST PUSH2 0x548C PUSH2 0x4781 JUMP JUMPDEST DUP1 MLOAD SWAP1 DUP6 ADD KECCAK256 DUP2 SUB PUSH2 0x54AC JUMPI POP PUSH2 0x42CD SWAP3 PUSH1 0x8 SWAP2 PUSH0 MSTORE MSTORE PUSH1 0x40 PUSH0 KECCAK256 PUSH2 0x4BDC JUMP JUMPDEST PUSH2 0x54B4 PUSH2 0x47A3 JUMP JUMPDEST DUP5 DUP2 MLOAD SWAP2 ADD KECCAK256 EQ PUSH2 0x54C4 JUMPI POP POP POP JUMP JUMPDEST PUSH2 0x42CD SWAP3 PUSH1 0x9 SWAP2 PUSH0 MSTORE MSTORE PUSH1 0x40 PUSH0 KECCAK256 PUSH2 0x4BDC JUMP JUMPDEST SWAP1 PUSH0 DUP1 SWAP2 PUSH1 0x20 DUP2 MLOAD SWAP2 ADD DUP5 GAS DELEGATECALL DUP1 DUP1 PUSH2 0x5555 JUMPI JUMPDEST ISZERO PUSH2 0x550B JUMPI POP POP PUSH1 0x40 MLOAD RETURNDATASIZE DUP2 MSTORE RETURNDATASIZE PUSH0 PUSH1 0x20 DUP4 ADD RETURNDATACOPY PUSH1 0x20 RETURNDATASIZE DUP3 ADD ADD PUSH1 0x40 MSTORE SWAP1 JUMP JUMPDEST ISZERO PUSH2 0x5532 JUMPI PUSH1 0x40 MLOAD PUSH4 0x9996B315 PUSH1 0xE0 SHL DUP2 MSTORE PUSH1 0x1 PUSH1 0x1 PUSH1 0xA0 SHL SUB SWAP1 SWAP2 AND PUSH1 0x4 DUP3 ADD MSTORE PUSH1 0x24 SWAP1 REVERT JUMPDEST RETURNDATASIZE ISZERO PUSH2 0x5543 JUMPI PUSH1 0x40 MLOAD RETURNDATASIZE PUSH0 DUP3 RETURNDATACOPY RETURNDATASIZE SWAP1 REVERT JUMPDEST PUSH1 0x40 MLOAD PUSH4 0xD6BDA275 PUSH1 0xE0 SHL DUP2 MSTORE PUSH1 0x4 SWAP1 REVERT JUMPDEST POP RETURNDATASIZE ISZERO ISZERO DUP1 PUSH2 0x54EB JUMPI POP DUP2 EXTCODESIZE ISZERO ISZERO PUSH2 0x54EB JUMP INVALID 0xD0 MCOPY 0xD2 0xD3 INVALID SELFDESTRUCT DUP5 0xC 0x2E 0xCE 0xCA PUSH18 0x791388FD3D19DBBBBCFA97031F534A7DC09F 0xBF 0x1F 0x4F PUSH15 0x6C79206F776E65727320616E642061 PUSH5 0x6D696E6973 PUSH21 0x7261746F72732063A264697066735822122010F83D 0xB1 0xC2 0xAB LOG0 BLOBBASEFEE SMOD TLOAD PUSH1 0xEC PUSH14 0x9997A211C317E5928E1CA76F3C4B PUSH28 0x5797619264736F6C6343000818003300000000000000000000000000 "},"methodIdentifiers":{"UPGRADE_INTERFACE_VERSION()":"ad3cb1cc","acceptTrustee(bytes32)":"b8cab84b","addMember(address,bytes32)":"49df7208","addMemberBatch(address[],bytes32)":"69ac2022","admin()":"f851a440","adminsByRecord(bytes32,uint256)":"8776cd35","bootstrapDependentTrustee(bytes32,bytes32)":"e6efcd5d","changeRole(bytes32,address,string)":"29c9087a","changeRoleBatch(bytes32[],address,string[])":"51eed472","deactivateWallet(address)":"0b3ffd1d","declineTrustee(bytes32)":"f76794f1","downgradeTrusteeLevel(bytes32,uint8)":"4d3c4a7c","getAllRecordParticipants(bytes32)":"78ad8f5b","getHealthRecordCore()":"e94ed257","getRecordAdmins(bytes32)":"41a51baa","getRecordOwners(bytes32)":"c36dc9ef","getRecordRoleStats(bytes32)":"8db7edb4","getRecordSharers(bytes32)":"2ab5d8f3","getRecordViewers(bytes32)":"033e822f","getRoleDetails(bytes32,address)":"422a5bb8","getRoleDetailsByUser(bytes32,bytes32)":"43e19704","getRoleGranter(bytes32,bytes32)":"aaddc345","getTotalUsers()":"9be572f6","getTrusteeGrantedRecords(bytes32,bytes32)":"c497d840","getTrusteeRelationship(bytes32,bytes32)":"9915b91f","getUserForWallet(address)":"00b0c809","getUserStatus(bytes32)":"f29e007b","getWalletsForUser(bytes32)":"d12a7768","grantRole(bytes32,address,string)":"dde492ea","grantRoleBatch(bytes32[],address,string[])":"02ba8109","hasActiveRole(bytes32,address)":"c88c35fe","hasRole(bytes32,address,string)":"3befa410","healthRecordCore()":"562c788e","initialize()":"8129fc1c","initializeRecordRole(bytes32,address,string)":"726d5447","isActiveMember(address)":"45ecd02f","isActiveSubject(bytes32,bytes32)":"64f639d4","isControllerOf(bytes32,bytes32)":"557ee54f","isOwnerOrAdmin(bytes32,address)":"0519e2a0","isVerifiedMember(address)":"cb261a03","isVerifiedProvider(address)":"259ed80e","ownersByRecord(bytes32,uint256)":"55816079","proposeTrustee(bytes32,uint8,bytes32[])":"dc9f9664","proxiableUUID()":"52d1902d","reactivateWallet(address)":"bb0f86d5","recordRoles(bytes32)":"33105592","revokeRole(bytes32,address)":"d547741f","revokeRoleBatch(bytes32[],address)":"f12b9ad3","revokeTrustee(bytes32,bytes32)":"c979c9bf","roleGrantedBy(bytes32)":"cda06c6e","setHealthRecordCore(address)":"c7155823","setUserStatus(bytes32,uint8)":"96207e02","sharersByRecord(bytes32,uint256)":"f32b10f0","totalUsers()":"bff1f9e1","transferAdmin(address)":"75829def","trusteeRelationships(bytes32,bytes32)":"7b657d07","updateTrusteeLevel(bytes32,uint8)":"ab48384a","upgradeToAndCall(address,bytes)":"4f1ef286","userStatus(bytes32)":"6b4bed97","userWallets(bytes32,uint256)":"9443cd80","viewersByRecord(bytes32,uint256)":"93ccfba8","voluntarilyLeaveOwnership(bytes32)":"2ae8511d","wallets(address)":"89b08f11"}},"storageLayout":{"storage":[{"astId":1563,"contract":"smartContracts/MemberRoleManager.sol:MemberRoleManager","label":"admin","offset":0,"slot":"0","type":"t_address"},{"astId":1755,"contract":"smartContracts/MemberRoleManager.sol:MemberRoleManager","label":"wallets","offset":0,"slot":"1","type":"t_mapping(t_address,t_struct(UserInfo)1750_storage)"},{"astId":1760,"contract":"smartContracts/MemberRoleManager.sol:MemberRoleManager","label":"userStatus","offset":0,"slot":"2","type":"t_mapping(t_bytes32,t_enum(MemberStatus)1715)"},{"astId":1765,"contract":"smartContracts/MemberRoleManager.sol:MemberRoleManager","label":"userWallets","offset":0,"slot":"3","type":"t_mapping(t_bytes32,t_array(t_address)dyn_storage)"},{"astId":1767,"contract":"smartContracts/MemberRoleManager.sol:MemberRoleManager","label":"totalUsers","offset":0,"slot":"4","type":"t_uint256"},{"astId":2397,"contract":"smartContracts/MemberRoleManager.sol:MemberRoleManager","label":"recordRoles","offset":0,"slot":"5","type":"t_mapping(t_bytes32,t_struct(RecordRole)2392_storage)"},{"astId":2402,"contract":"smartContracts/MemberRoleManager.sol:MemberRoleManager","label":"ownersByRecord","offset":0,"slot":"6","type":"t_mapping(t_bytes32,t_array(t_bytes32)dyn_storage)"},{"astId":2407,"contract":"smartContracts/MemberRoleManager.sol:MemberRoleManager","label":"adminsByRecord","offset":0,"slot":"7","type":"t_mapping(t_bytes32,t_array(t_bytes32)dyn_storage)"},{"astId":2412,"contract":"smartContracts/MemberRoleManager.sol:MemberRoleManager","label":"sharersByRecord","offset":0,"slot":"8","type":"t_mapping(t_bytes32,t_array(t_bytes32)dyn_storage)"},{"astId":2417,"contract":"smartContracts/MemberRoleManager.sol:MemberRoleManager","label":"viewersByRecord","offset":0,"slot":"9","type":"t_mapping(t_bytes32,t_array(t_bytes32)dyn_storage)"},{"astId":2420,"contract":"smartContracts/MemberRoleManager.sol:MemberRoleManager","label":"healthRecordCore","offset":0,"slot":"10","type":"t_contract(HealthRecordCoreInterface)1554"},{"astId":2424,"contract":"smartContracts/MemberRoleManager.sol:MemberRoleManager","label":"roleGrantedBy","offset":0,"slot":"11","type":"t_mapping(t_bytes32,t_bytes32)"},{"astId":4374,"contract":"smartContracts/MemberRoleManager.sol:MemberRoleManager","label":"trusteeRelationships","offset":0,"slot":"12","type":"t_mapping(t_bytes32,t_mapping(t_bytes32,t_struct(TrusteeRelationship)4367_storage))"},{"astId":4381,"contract":"smartContracts/MemberRoleManager.sol:MemberRoleManager","label":"_trusteeGrantedRecords","offset":0,"slot":"13","type":"t_mapping(t_bytes32,t_mapping(t_bytes32,t_array(t_bytes32)dyn_storage))"},{"astId":4389,"contract":"smartContracts/MemberRoleManager.sol:MemberRoleManager","label":"_trusteeGrantedRecordSet","offset":0,"slot":"14","type":"t_mapping(t_bytes32,t_mapping(t_bytes32,t_mapping(t_bytes32,t_bool)))"},{"astId":6364,"contract":"smartContracts/MemberRoleManager.sol:MemberRoleManager","label":"__gap","offset":0,"slot":"15","type":"t_array(t_uint256)50_storage"}],"types":{"t_address":{"encoding":"inplace","label":"address","numberOfBytes":"20"},"t_array(t_address)dyn_storage":{"base":"t_address","encoding":"dynamic_array","label":"address[]","numberOfBytes":"32"},"t_array(t_bytes32)dyn_storage":{"base":"t_bytes32","encoding":"dynamic_array","label":"bytes32[]","numberOfBytes":"32"},"t_array(t_uint256)50_storage":{"base":"t_uint256","encoding":"inplace","label":"uint256[50]","numberOfBytes":"1600"},"t_bool":{"encoding":"inplace","label":"bool","numberOfBytes":"1"},"t_bytes32":{"encoding":"inplace","label":"bytes32","numberOfBytes":"32"},"t_contract(HealthRecordCoreInterface)1554":{"encoding":"inplace","label":"contract HealthRecordCoreInterface","numberOfBytes":"20"},"t_enum(MemberStatus)1715":{"encoding":"inplace","label":"enum MemberRoleManager.MemberStatus","numberOfBytes":"1"},"t_enum(TrusteeLevel)4354":{"encoding":"inplace","label":"enum MemberRoleManager.TrusteeLevel","numberOfBytes":"1"},"t_enum(TrusteeStatus)4360":{"encoding":"inplace","label":"enum MemberRoleManager.TrusteeStatus","numberOfBytes":"1"},"t_mapping(t_address,t_struct(UserInfo)1750_storage)":{"encoding":"mapping","key":"t_address","label":"mapping(address => struct MemberRoleManager.UserInfo)","numberOfBytes":"32","value":"t_struct(UserInfo)1750_storage"},"t_mapping(t_bytes32,t_array(t_address)dyn_storage)":{"encoding":"mapping","key":"t_bytes32","label":"mapping(bytes32 => address[])","numberOfBytes":"32","value":"t_array(t_address)dyn_storage"},"t_mapping(t_bytes32,t_array(t_bytes32)dyn_storage)":{"encoding":"mapping","key":"t_bytes32","label":"mapping(bytes32 => bytes32[])","numberOfBytes":"32","value":"t_array(t_bytes32)dyn_storage"},"t_mapping(t_bytes32,t_bool)":{"encoding":"mapping","key":"t_bytes32","label":"mapping(bytes32 => bool)","numberOfBytes":"32","value":"t_bool"},"t_mapping(t_bytes32,t_bytes32)":{"encoding":"mapping","key":"t_bytes32","label":"mapping(bytes32 => bytes32)","numberOfBytes":"32","value":"t_bytes32"},"t_mapping(t_bytes32,t_enum(MemberStatus)1715)":{"encoding":"mapping","key":"t_bytes32","label":"mapping(bytes32 => enum MemberRoleManager.MemberStatus)","numberOfBytes":"32","value":"t_enum(MemberStatus)1715"},"t_mapping(t_bytes32,t_mapping(t_bytes32,t_array(t_bytes32)dyn_storage))":{"encoding":"mapping","key":"t_bytes32","label":"mapping(bytes32 => mapping(bytes32 => bytes32[]))","numberOfBytes":"32","value":"t_mapping(t_bytes32,t_array(t_bytes32)dyn_storage)"},"t_mapping(t_bytes32,t_mapping(t_bytes32,t_bool))":{"encoding":"mapping","key":"t_bytes32","label":"mapping(bytes32 => mapping(bytes32 => bool))","numberOfBytes":"32","value":"t_mapping(t_bytes32,t_bool)"},"t_mapping(t_bytes32,t_mapping(t_bytes32,t_mapping(t_bytes32,t_bool)))":{"encoding":"mapping","key":"t_bytes32","label":"mapping(bytes32 => mapping(bytes32 => mapping(bytes32 => bool)))","numberOfBytes":"32","value":"t_mapping(t_bytes32,t_mapping(t_bytes32,t_bool))"},"t_mapping(t_bytes32,t_mapping(t_bytes32,t_struct(TrusteeRelationship)4367_storage))":{"encoding":"mapping","key":"t_bytes32","label":"mapping(bytes32 => mapping(bytes32 => struct MemberRoleManager.TrusteeRelationship))","numberOfBytes":"32","value":"t_mapping(t_bytes32,t_struct(TrusteeRelationship)4367_storage)"},"t_mapping(t_bytes32,t_struct(RecordRole)2392_storage)":{"encoding":"mapping","key":"t_bytes32","label":"mapping(bytes32 => struct MemberRoleManager.RecordRole)","numberOfBytes":"32","value":"t_struct(RecordRole)2392_storage"},"t_mapping(t_bytes32,t_struct(TrusteeRelationship)4367_storage)":{"encoding":"mapping","key":"t_bytes32","label":"mapping(bytes32 => struct MemberRoleManager.TrusteeRelationship)","numberOfBytes":"32","value":"t_struct(TrusteeRelationship)4367_storage"},"t_string_storage":{"encoding":"bytes","label":"string","numberOfBytes":"32"},"t_struct(RecordRole)2392_storage":{"encoding":"inplace","label":"struct MemberRoleManager.RecordRole","members":[{"astId":2389,"contract":"smartContracts/MemberRoleManager.sol:MemberRoleManager","label":"role","offset":0,"slot":"0","type":"t_string_storage"},{"astId":2391,"contract":"smartContracts/MemberRoleManager.sol:MemberRoleManager","label":"isActive","offset":0,"slot":"1","type":"t_bool"}],"numberOfBytes":"64"},"t_struct(TrusteeRelationship)4367_storage":{"encoding":"inplace","label":"struct MemberRoleManager.TrusteeRelationship","members":[{"astId":4363,"contract":"smartContracts/MemberRoleManager.sol:MemberRoleManager","label":"status","offset":0,"slot":"0","type":"t_enum(TrusteeStatus)4360"},{"astId":4366,"contract":"smartContracts/MemberRoleManager.sol:MemberRoleManager","label":"level","offset":1,"slot":"0","type":"t_enum(TrusteeLevel)4354"}],"numberOfBytes":"32"},"t_struct(UserInfo)1750_storage":{"encoding":"inplace","label":"struct MemberRoleManager.UserInfo","members":[{"astId":1747,"contract":"smartContracts/MemberRoleManager.sol:MemberRoleManager","label":"userIdHash","offset":0,"slot":"0","type":"t_bytes32"},{"astId":1749,"contract":"smartContracts/MemberRoleManager.sol:MemberRoleManager","label":"isWalletActive","offset":0,"slot":"1","type":"t_bool"}],"numberOfBytes":"64"},"t_uint256":{"encoding":"inplace","label":"uint256","numberOfBytes":"32"}}}}}}