{"smartContracts/MemberRoleManager.sol":{"MemberRoleManager":{"abi":[{"inputs":[],"stateMutability":"nonpayable","type":"constructor"},{"inputs":[{"internalType":"address","name":"target","type":"address"}],"name":"AddressEmptyCode","type":"error"},{"inputs":[{"internalType":"address","name":"implementation","type":"address"}],"name":"ERC1967InvalidImplementation","type":"error"},{"inputs":[],"name":"ERC1967NonPayable","type":"error"},{"inputs":[],"name":"FailedCall","type":"error"},{"inputs":[],"name":"InvalidInitialization","type":"error"},{"inputs":[],"name":"NotInitializing","type":"error"},{"inputs":[],"name":"UUPSUnauthorizedCallContext","type":"error"},{"inputs":[{"internalType":"bytes32","name":"slot","type":"bytes32"}],"name":"UUPSUnsupportedProxiableUUID","type":"error"},{"anonymous":false,"inputs":[{"indexed":true,"internalType":"address","name":"oldAdmin","type":"address"},{"indexed":true,"internalType":"address","name":"newAdmin","type":"address"},{"indexed":false,"internalType":"uint256","name":"timestamp","type":"uint256"}],"name":"AdminTransferred","type":"event"},{"anonymous":false,"inputs":[{"indexed":true,"internalType":"address","name":"newAddress","type":"address"},{"indexed":false,"internalType":"uint256","name":"timestamp","type":"uint256"}],"name":"HealthRecordCoreUpdated","type":"event"},{"anonymous":false,"inputs":[{"indexed":false,"internalType":"uint64","name":"version","type":"uint64"}],"name":"Initialized","type":"event"},{"anonymous":false,"inputs":[{"indexed":true,"internalType":"address","name":"wallet","type":"address"},{"indexed":true,"internalType":"bytes32","name":"userIdHash","type":"bytes32"},{"indexed":false,"internalType":"uint256","name":"timestamp","type":"uint256"}],"name":"MemberRegistered","type":"event"},{"anonymous":false,"inputs":[{"indexed":true,"internalType":"bytes32","name":"userIdHash","type":"bytes32"},{"indexed":false,"internalType":"enum MemberRoleManager.MemberStatus","name":"oldStatus","type":"uint8"},{"indexed":false,"internalType":"enum MemberRoleManager.MemberStatus","name":"newStatus","type":"uint8"},{"indexed":true,"internalType":"address","name":"changedBy","type":"address"},{"indexed":false,"internalType":"uint256","name":"timestamp","type":"uint256"}],"name":"MemberStatusChanged","type":"event"},{"anonymous":false,"inputs":[{"indexed":true,"internalType":"bytes32","name":"recordIdHash","type":"bytes32"},{"indexed":true,"internalType":"bytes32","name":"userIdHash","type":"bytes32"},{"indexed":false,"internalType":"uint256","name":"timestamp","type":"uint256"}],"name":"OwnershipVoluntarilyLeft","type":"event"},{"anonymous":false,"inputs":[{"indexed":true,"internalType":"bytes32","name":"recordIdHash","type":"bytes32"},{"indexed":true,"internalType":"bytes32","name":"targetIdHash","type":"bytes32"},{"indexed":false,"internalType":"string","name":"oldRole","type":"string"},{"indexed":false,"internalType":"string","name":"newRole","type":"string"},{"indexed":true,"internalType":"bytes32","name":"userIdHash","type":"bytes32"},{"indexed":false,"internalType":"uint256","name":"timestamp","type":"uint256"}],"name":"RoleChanged","type":"event"},{"anonymous":false,"inputs":[{"indexed":true,"internalType":"bytes32","name":"recordIdHash","type":"bytes32"},{"indexed":true,"internalType":"bytes32","name":"targetIdHash","type":"bytes32"},{"indexed":false,"internalType":"string","name":"role","type":"string"},{"indexed":true,"internalType":"bytes32","name":"userIdHash","type":"bytes32"},{"indexed":false,"internalType":"uint256","name":"timestamp","type":"uint256"}],"name":"RoleGranted","type":"event"},{"anonymous":false,"inputs":[{"indexed":true,"internalType":"bytes32","name":"recordIdHash","type":"bytes32"},{"indexed":true,"internalType":"bytes32","name":"targetIdHash","type":"bytes32"},{"indexed":false,"internalType":"string","name":"role","type":"string"},{"indexed":true,"internalType":"bytes32","name":"userIdHash","type":"bytes32"},{"indexed":false,"internalType":"uint256","name":"timestamp","type":"uint256"}],"name":"RoleRevoked","type":"event"},{"anonymous":false,"inputs":[{"indexed":true,"internalType":"bytes32","name":"trustorIdHash","type":"bytes32"},{"indexed":true,"internalType":"bytes32","name":"trusteeIdHash","type":"bytes32"},{"indexed":false,"internalType":"enum MemberRoleManager.TrusteeLevel","name":"level","type":"uint8"},{"indexed":false,"internalType":"uint256","name":"timestamp","type":"uint256"}],"name":"TrusteeAccepted","type":"event"},{"anonymous":false,"inputs":[{"indexed":true,"internalType":"bytes32","name":"trustorIdHash","type":"bytes32"},{"indexed":true,"internalType":"bytes32","name":"trusteeIdHash","type":"bytes32"},{"indexed":false,"internalType":"uint256","name":"timestamp","type":"uint256"}],"name":"TrusteeDeclined","type":"event"},{"anonymous":false,"inputs":[{"indexed":true,"internalType":"bytes32","name":"trustorIdHash","type":"bytes32"},{"indexed":true,"internalType":"bytes32","name":"trusteeIdHash","type":"bytes32"},{"indexed":false,"internalType":"enum MemberRoleManager.TrusteeLevel","name":"oldLevel","type":"uint8"},{"indexed":false,"internalType":"enum MemberRoleManager.TrusteeLevel","name":"newLevel","type":"uint8"},{"indexed":false,"internalType":"uint256","name":"timestamp","type":"uint256"}],"name":"TrusteeLevelUpdated","type":"event"},{"anonymous":false,"inputs":[{"indexed":true,"internalType":"bytes32","name":"trustorIdHash","type":"bytes32"},{"indexed":true,"internalType":"bytes32","name":"trusteeIdHash","type":"bytes32"},{"indexed":false,"internalType":"enum MemberRoleManager.TrusteeLevel","name":"level","type":"uint8"},{"indexed":false,"internalType":"uint256","name":"timestamp","type":"uint256"}],"name":"TrusteeProposed","type":"event"},{"anonymous":false,"inputs":[{"indexed":true,"internalType":"bytes32","name":"trustorIdHash","type":"bytes32"},{"indexed":true,"internalType":"bytes32","name":"trusteeIdHash","type":"bytes32"},{"indexed":true,"internalType":"bytes32","name":"revokedBy","type":"bytes32"},{"indexed":false,"internalType":"uint256","name":"timestamp","type":"uint256"}],"name":"TrusteeRevoked","type":"event"},{"anonymous":false,"inputs":[{"indexed":true,"internalType":"address","name":"implementation","type":"address"}],"name":"Upgraded","type":"event"},{"anonymous":false,"inputs":[{"indexed":true,"internalType":"bytes32","name":"voucherIdHash","type":"bytes32"},{"indexed":true,"internalType":"bytes32","name":"voucheeIdHash","type":"bytes32"},{"indexed":false,"internalType":"uint256","name":"timestamp","type":"uint256"}],"name":"VouchGiven","type":"event"},{"anonymous":false,"inputs":[{"indexed":true,"internalType":"bytes32","name":"voucherIdHash","type":"bytes32"},{"indexed":true,"internalType":"bytes32","name":"voucheeIdHash","type":"bytes32"},{"indexed":false,"internalType":"uint256","name":"timestamp","type":"uint256"}],"name":"VouchRetracted","type":"event"},{"anonymous":false,"inputs":[{"indexed":true,"internalType":"address","name":"wallet","type":"address"},{"indexed":true,"internalType":"bytes32","name":"userIdHash","type":"bytes32"},{"indexed":false,"internalType":"uint256","name":"timestamp","type":"uint256"}],"name":"WalletLinked","type":"event"},{"inputs":[],"name":"UPGRADE_INTERFACE_VERSION","outputs":[{"internalType":"string","name":"","type":"string"}],"stateMutability":"view","type":"function"},{"inputs":[{"internalType":"bytes32","name":"trustorIdHash","type":"bytes32"}],"name":"acceptTrustee","outputs":[],"stateMutability":"nonpayable","type":"function"},{"inputs":[{"internalType":"address","name":"wallet","type":"address"},{"internalType":"bytes32","name":"userIdHash","type":"bytes32"}],"name":"addMember","outputs":[],"stateMutability":"nonpayable","type":"function"},{"inputs":[{"internalType":"address[]","name":"walletAddresses","type":"address[]"},{"internalType":"bytes32","name":"userIdHash","type":"bytes32"}],"name":"addMemberBatch","outputs":[],"stateMutability":"nonpayable","type":"function"},{"inputs":[],"name":"admin","outputs":[{"internalType":"address","name":"","type":"address"}],"stateMutability":"view","type":"function"},{"inputs":[{"internalType":"bytes32","name":"","type":"bytes32"},{"internalType":"uint256","name":"","type":"uint256"}],"name":"adminsByRecord","outputs":[{"internalType":"bytes32","name":"","type":"bytes32"}],"stateMutability":"view","type":"function"},{"inputs":[{"internalType":"bytes32","name":"trustorIdHash","type":"bytes32"},{"internalType":"bytes32","name":"trusteeIdHash","type":"bytes32"}],"name":"bootstrapDependentTrustee","outputs":[],"stateMutability":"nonpayable","type":"function"},{"inputs":[{"internalType":"bytes32","name":"recordIdHash","type":"bytes32"},{"internalType":"address","name":"targetWallet","type":"address"},{"internalType":"string","name":"newRole","type":"string"}],"name":"changeRole","outputs":[],"stateMutability":"nonpayable","type":"function"},{"inputs":[{"internalType":"bytes32[]","name":"recordIdHashes","type":"bytes32[]"},{"internalType":"address","name":"targetWallet","type":"address"},{"internalType":"string[]","name":"newRoles","type":"string[]"}],"name":"changeRoleBatch","outputs":[],"stateMutability":"nonpayable","type":"function"},{"inputs":[{"internalType":"address","name":"wallet","type":"address"}],"name":"deactivateWallet","outputs":[],"stateMutability":"nonpayable","type":"function"},{"inputs":[{"internalType":"bytes32","name":"trustorIdHash","type":"bytes32"}],"name":"declineTrustee","outputs":[],"stateMutability":"nonpayable","type":"function"},{"inputs":[{"internalType":"bytes32","name":"trustorIdHash","type":"bytes32"},{"internalType":"enum MemberRoleManager.TrusteeLevel","name":"newLevel","type":"uint8"}],"name":"downgradeTrusteeLevel","outputs":[],"stateMutability":"nonpayable","type":"function"},{"inputs":[{"internalType":"bytes32","name":"subjectIdHash","type":"bytes32"},{"internalType":"bytes32","name":"recordIdHash","type":"bytes32"}],"name":"extendTrusteeGrantsOnAnchor","outputs":[],"stateMutability":"nonpayable","type":"function"},{"inputs":[{"internalType":"bytes32","name":"recordIdHash","type":"bytes32"}],"name":"getAllRecordParticipants","outputs":[{"internalType":"bytes32[]","name":"owners","type":"bytes32[]"},{"internalType":"bytes32[]","name":"admins","type":"bytes32[]"},{"internalType":"bytes32[]","name":"sharers","type":"bytes32[]"},{"internalType":"bytes32[]","name":"viewers","type":"bytes32[]"}],"stateMutability":"view","type":"function"},{"inputs":[],"name":"getHealthRecordCore","outputs":[{"internalType":"address","name":"","type":"address"}],"stateMutability":"view","type":"function"},{"inputs":[{"internalType":"bytes32","name":"recordIdHash","type":"bytes32"}],"name":"getRecordAdmins","outputs":[{"internalType":"bytes32[]","name":"","type":"bytes32[]"}],"stateMutability":"view","type":"function"},{"inputs":[{"internalType":"bytes32","name":"recordIdHash","type":"bytes32"}],"name":"getRecordOwners","outputs":[{"internalType":"bytes32[]","name":"","type":"bytes32[]"}],"stateMutability":"view","type":"function"},{"inputs":[{"internalType":"bytes32","name":"recordIdHash","type":"bytes32"}],"name":"getRecordRoleStats","outputs":[{"internalType":"uint256","name":"ownerCount","type":"uint256"},{"internalType":"uint256","name":"adminCount","type":"uint256"},{"internalType":"uint256","name":"sharerCount","type":"uint256"},{"internalType":"uint256","name":"viewerCount","type":"uint256"}],"stateMutability":"view","type":"function"},{"inputs":[{"internalType":"bytes32","name":"recordIdHash","type":"bytes32"}],"name":"getRecordSharers","outputs":[{"internalType":"bytes32[]","name":"","type":"bytes32[]"}],"stateMutability":"view","type":"function"},{"inputs":[{"internalType":"bytes32","name":"recordIdHash","type":"bytes32"}],"name":"getRecordViewers","outputs":[{"internalType":"bytes32[]","name":"","type":"bytes32[]"}],"stateMutability":"view","type":"function"},{"inputs":[{"internalType":"bytes32","name":"recordIdHash","type":"bytes32"},{"internalType":"address","name":"wallet","type":"address"}],"name":"getRoleDetails","outputs":[{"internalType":"string","name":"role","type":"string"},{"internalType":"bool","name":"isActive","type":"bool"}],"stateMutability":"view","type":"function"},{"inputs":[{"internalType":"bytes32","name":"recordIdHash","type":"bytes32"},{"internalType":"bytes32","name":"userIdHash","type":"bytes32"}],"name":"getRoleDetailsByUser","outputs":[{"internalType":"string","name":"role","type":"string"},{"internalType":"bool","name":"isActive","type":"bool"}],"stateMutability":"view","type":"function"},{"inputs":[{"internalType":"bytes32","name":"recordIdHash","type":"bytes32"},{"internalType":"bytes32","name":"userIdHash","type":"bytes32"}],"name":"getRoleGranter","outputs":[{"internalType":"bytes32","name":"","type":"bytes32"}],"stateMutability":"view","type":"function"},{"inputs":[],"name":"getTotalUsers","outputs":[{"internalType":"uint256","name":"","type":"uint256"}],"stateMutability":"view","type":"function"},{"inputs":[{"internalType":"bytes32","name":"trustorIdHash","type":"bytes32"},{"internalType":"bytes32","name":"trusteeIdHash","type":"bytes32"}],"name":"getTrusteeGrantedRecords","outputs":[{"internalType":"bytes32[]","name":"","type":"bytes32[]"}],"stateMutability":"view","type":"function"},{"inputs":[{"internalType":"bytes32","name":"trustorIdHash","type":"bytes32"},{"internalType":"bytes32","name":"trusteeIdHash","type":"bytes32"}],"name":"getTrusteeRelationship","outputs":[{"internalType":"enum MemberRoleManager.TrusteeStatus","name":"status","type":"uint8"},{"internalType":"enum MemberRoleManager.TrusteeLevel","name":"level","type":"uint8"}],"stateMutability":"view","type":"function"},{"inputs":[{"internalType":"bytes32","name":"trustorIdHash","type":"bytes32"}],"name":"getTrusteesForTrustor","outputs":[{"internalType":"bytes32[]","name":"","type":"bytes32[]"}],"stateMutability":"view","type":"function"},{"inputs":[{"internalType":"address","name":"wallet","type":"address"}],"name":"getUserForWallet","outputs":[{"internalType":"bytes32","name":"","type":"bytes32"}],"stateMutability":"view","type":"function"},{"inputs":[{"internalType":"bytes32","name":"userIdHash","type":"bytes32"}],"name":"getUserStatus","outputs":[{"internalType":"enum MemberRoleManager.MemberStatus","name":"status","type":"uint8"}],"stateMutability":"view","type":"function"},{"inputs":[{"internalType":"bytes32","name":"voucherIdHash","type":"bytes32"},{"internalType":"bytes32","name":"voucheeIdHash","type":"bytes32"}],"name":"getVouchStatus","outputs":[{"internalType":"enum MemberRoleManager.VouchStatus","name":"","type":"uint8"}],"stateMutability":"view","type":"function"},{"inputs":[{"internalType":"bytes32","name":"voucherIdHash","type":"bytes32"}],"name":"getVouchesGiven","outputs":[{"internalType":"bytes32[]","name":"","type":"bytes32[]"}],"stateMutability":"view","type":"function"},{"inputs":[{"internalType":"bytes32","name":"voucheeIdHash","type":"bytes32"}],"name":"getVouchesReceived","outputs":[{"internalType":"bytes32[]","name":"","type":"bytes32[]"}],"stateMutability":"view","type":"function"},{"inputs":[{"internalType":"bytes32","name":"userIdHash","type":"bytes32"}],"name":"getWalletsForUser","outputs":[{"internalType":"address[]","name":"","type":"address[]"}],"stateMutability":"view","type":"function"},{"inputs":[{"internalType":"bytes32","name":"voucheeIdHash","type":"bytes32"}],"name":"giveVouch","outputs":[],"stateMutability":"nonpayable","type":"function"},{"inputs":[{"internalType":"bytes32","name":"recordIdHash","type":"bytes32"},{"internalType":"address","name":"targetWallet","type":"address"},{"internalType":"string","name":"role","type":"string"}],"name":"grantRole","outputs":[],"stateMutability":"nonpayable","type":"function"},{"inputs":[{"internalType":"bytes32[]","name":"recordIdHashes","type":"bytes32[]"},{"internalType":"address","name":"targetWallet","type":"address"},{"internalType":"string[]","name":"roles","type":"string[]"}],"name":"grantRoleBatch","outputs":[],"stateMutability":"nonpayable","type":"function"},{"inputs":[{"internalType":"bytes32","name":"recordIdHash","type":"bytes32"},{"internalType":"address","name":"wallet","type":"address"}],"name":"hasActiveRole","outputs":[{"internalType":"bool","name":"","type":"bool"}],"stateMutability":"view","type":"function"},{"inputs":[{"internalType":"bytes32","name":"recordIdHash","type":"bytes32"},{"internalType":"address","name":"wallet","type":"address"},{"internalType":"string","name":"role","type":"string"}],"name":"hasRole","outputs":[{"internalType":"bool","name":"","type":"bool"}],"stateMutability":"view","type":"function"},{"inputs":[{"internalType":"bytes32","name":"voucherIdHash","type":"bytes32"},{"internalType":"bytes32","name":"voucheeIdHash","type":"bytes32"}],"name":"hasVouched","outputs":[{"internalType":"bool","name":"","type":"bool"}],"stateMutability":"view","type":"function"},{"inputs":[],"name":"healthRecordCore","outputs":[{"internalType":"contract HealthRecordCoreInterface","name":"","type":"address"}],"stateMutability":"view","type":"function"},{"inputs":[],"name":"initialize","outputs":[],"stateMutability":"nonpayable","type":"function"},{"inputs":[{"internalType":"bytes32","name":"recordIdHash","type":"bytes32"},{"internalType":"address","name":"targetWallet","type":"address"},{"internalType":"string","name":"role","type":"string"}],"name":"initializeRecordRole","outputs":[],"stateMutability":"nonpayable","type":"function"},{"inputs":[{"internalType":"address","name":"wallet","type":"address"}],"name":"isActiveMember","outputs":[{"internalType":"bool","name":"","type":"bool"}],"stateMutability":"view","type":"function"},{"inputs":[{"internalType":"bytes32","name":"recordIdHash","type":"bytes32"},{"internalType":"bytes32","name":"userIdHash","type":"bytes32"}],"name":"isActiveSubject","outputs":[{"internalType":"bool","name":"","type":"bool"}],"stateMutability":"view","type":"function"},{"inputs":[{"internalType":"bytes32","name":"trustorIdHash","type":"bytes32"},{"internalType":"bytes32","name":"trusteeIdHash","type":"bytes32"}],"name":"isControllerOf","outputs":[{"internalType":"bool","name":"","type":"bool"}],"stateMutability":"view","type":"function"},{"inputs":[{"internalType":"bytes32","name":"recordIdHash","type":"bytes32"},{"internalType":"address","name":"wallet","type":"address"}],"name":"isOwnerOrAdmin","outputs":[{"internalType":"bool","name":"","type":"bool"}],"stateMutability":"view","type":"function"},{"inputs":[{"internalType":"address","name":"wallet","type":"address"}],"name":"isVerifiedMember","outputs":[{"internalType":"bool","name":"","type":"bool"}],"stateMutability":"view","type":"function"},{"inputs":[{"internalType":"address","name":"wallet","type":"address"}],"name":"isVerifiedProvider","outputs":[{"internalType":"bool","name":"","type":"bool"}],"stateMutability":"view","type":"function"},{"inputs":[{"internalType":"bytes32","name":"","type":"bytes32"},{"internalType":"uint256","name":"","type":"uint256"}],"name":"ownersByRecord","outputs":[{"internalType":"bytes32","name":"","type":"bytes32"}],"stateMutability":"view","type":"function"},{"inputs":[{"internalType":"bytes32","name":"trusteeIdHash","type":"bytes32"},{"internalType":"enum MemberRoleManager.TrusteeLevel","name":"level","type":"uint8"},{"internalType":"bytes32[]","name":"recordIdHashes","type":"bytes32[]"}],"name":"proposeTrustee","outputs":[],"stateMutability":"nonpayable","type":"function"},{"inputs":[],"name":"proxiableUUID","outputs":[{"internalType":"bytes32","name":"","type":"bytes32"}],"stateMutability":"view","type":"function"},{"inputs":[{"internalType":"address","name":"wallet","type":"address"}],"name":"reactivateWallet","outputs":[],"stateMutability":"nonpayable","type":"function"},{"inputs":[{"internalType":"bytes32","name":"","type":"bytes32"}],"name":"recordRoles","outputs":[{"internalType":"string","name":"role","type":"string"},{"internalType":"bool","name":"isActive","type":"bool"}],"stateMutability":"view","type":"function"},{"inputs":[{"internalType":"bytes32","name":"subjectIdHash","type":"bytes32"},{"internalType":"bytes32","name":"recordIdHash","type":"bytes32"}],"name":"retractTrusteeGrantsOnUnanchor","outputs":[],"stateMutability":"nonpayable","type":"function"},{"inputs":[{"internalType":"bytes32","name":"voucheeIdHash","type":"bytes32"}],"name":"retractVouch","outputs":[],"stateMutability":"nonpayable","type":"function"},{"inputs":[{"internalType":"bytes32","name":"recordIdHash","type":"bytes32"},{"internalType":"address","name":"targetWallet","type":"address"}],"name":"revokeRole","outputs":[],"stateMutability":"nonpayable","type":"function"},{"inputs":[{"internalType":"bytes32[]","name":"recordIdHashes","type":"bytes32[]"},{"internalType":"address","name":"targetWallet","type":"address"}],"name":"revokeRoleBatch","outputs":[],"stateMutability":"nonpayable","type":"function"},{"inputs":[{"internalType":"bytes32","name":"trustorIdHash","type":"bytes32"},{"internalType":"bytes32","name":"trusteeIdHash","type":"bytes32"}],"name":"revokeTrustee","outputs":[],"stateMutability":"nonpayable","type":"function"},{"inputs":[{"internalType":"bytes32","name":"","type":"bytes32"}],"name":"roleGrantedBy","outputs":[{"internalType":"bytes32","name":"","type":"bytes32"}],"stateMutability":"view","type":"function"},{"inputs":[{"internalType":"address","name":"_healthRecordCore","type":"address"}],"name":"setHealthRecordCore","outputs":[],"stateMutability":"nonpayable","type":"function"},{"inputs":[{"internalType":"bytes32","name":"userIdHash","type":"bytes32"},{"internalType":"enum MemberRoleManager.MemberStatus","name":"newStatus","type":"uint8"}],"name":"setUserStatus","outputs":[],"stateMutability":"nonpayable","type":"function"},{"inputs":[{"internalType":"bytes32","name":"","type":"bytes32"},{"internalType":"uint256","name":"","type":"uint256"}],"name":"sharersByRecord","outputs":[{"internalType":"bytes32","name":"","type":"bytes32"}],"stateMutability":"view","type":"function"},{"inputs":[],"name":"totalUsers","outputs":[{"internalType":"uint256","name":"","type":"uint256"}],"stateMutability":"view","type":"function"},{"inputs":[{"internalType":"address","name":"newAdmin","type":"address"}],"name":"transferAdmin","outputs":[],"stateMutability":"nonpayable","type":"function"},{"inputs":[{"internalType":"bytes32","name":"","type":"bytes32"},{"internalType":"bytes32","name":"","type":"bytes32"}],"name":"trusteeRelationships","outputs":[{"internalType":"enum MemberRoleManager.TrusteeStatus","name":"status","type":"uint8"},{"internalType":"enum MemberRoleManager.TrusteeLevel","name":"level","type":"uint8"}],"stateMutability":"view","type":"function"},{"inputs":[{"internalType":"bytes32","name":"","type":"bytes32"},{"internalType":"uint256","name":"","type":"uint256"}],"name":"trusteesByTrustor","outputs":[{"internalType":"bytes32","name":"","type":"bytes32"}],"stateMutability":"view","type":"function"},{"inputs":[{"internalType":"bytes32","name":"trusteeIdHash","type":"bytes32"},{"internalType":"enum MemberRoleManager.TrusteeLevel","name":"newLevel","type":"uint8"}],"name":"updateTrusteeLevel","outputs":[],"stateMutability":"nonpayable","type":"function"},{"inputs":[{"internalType":"address","name":"newImplementation","type":"address"},{"internalType":"bytes","name":"data","type":"bytes"}],"name":"upgradeToAndCall","outputs":[],"stateMutability":"payable","type":"function"},{"inputs":[{"internalType":"bytes32","name":"","type":"bytes32"}],"name":"userStatus","outputs":[{"internalType":"enum MemberRoleManager.MemberStatus","name":"","type":"uint8"}],"stateMutability":"view","type":"function"},{"inputs":[{"internalType":"bytes32","name":"","type":"bytes32"},{"internalType":"uint256","name":"","type":"uint256"}],"name":"userWallets","outputs":[{"internalType":"address","name":"","type":"address"}],"stateMutability":"view","type":"function"},{"inputs":[{"internalType":"bytes32","name":"","type":"bytes32"},{"internalType":"uint256","name":"","type":"uint256"}],"name":"viewersByRecord","outputs":[{"internalType":"bytes32","name":"","type":"bytes32"}],"stateMutability":"view","type":"function"},{"inputs":[{"internalType":"bytes32","name":"recordIdHash","type":"bytes32"},{"internalType":"string","name":"newRole","type":"string"}],"name":"voluntarilyLeaveOwnership","outputs":[],"stateMutability":"nonpayable","type":"function"},{"inputs":[{"internalType":"bytes32","name":"","type":"bytes32"},{"internalType":"bytes32","name":"","type":"bytes32"}],"name":"vouches","outputs":[{"internalType":"enum MemberRoleManager.VouchStatus","name":"","type":"uint8"}],"stateMutability":"view","type":"function"},{"inputs":[{"internalType":"bytes32","name":"","type":"bytes32"},{"internalType":"uint256","name":"","type":"uint256"}],"name":"vouchesGiven","outputs":[{"internalType":"bytes32","name":"","type":"bytes32"}],"stateMutability":"view","type":"function"},{"inputs":[{"internalType":"bytes32","name":"","type":"bytes32"},{"internalType":"uint256","name":"","type":"uint256"}],"name":"vouchesReceived","outputs":[{"internalType":"bytes32","name":"","type":"bytes32"}],"stateMutability":"view","type":"function"},{"inputs":[{"internalType":"address","name":"","type":"address"}],"name":"wallets","outputs":[{"internalType":"bytes32","name":"userIdHash","type":"bytes32"},{"internalType":"bool","name":"isWalletActive","type":"bool"}],"stateMutability":"view","type":"function"}],"evm":{"bytecode":{"linkReferences":{},"object":"60a08060405234620000d157306080527ff0c57e16840df040f15088dc2f81fe391c3923bec73e23a9662efc9c229c6a009081549060ff8260401c16620000c257506001600160401b036002600160401b0319828216016200007c575b604051615ee09081620000d68239608051818181612f54015261337f0152f35b6001600160401b031990911681179091556040519081527fc7f505b2f371ae2175ee4913f4499e1f2633a7b5936321eed1cdaeb6115181d290602090a15f80806200005c565b63f92ee8a960e01b8152600490fd5b5f80fdfe6080604090808252600480361015610015575f80fd5b5f3560e01c918262b0c809146145d25750816302ba8109146143d5578163033e822f146143ac5781630519e2a0146143865781630a296a7b146143745781630b3ffd1d146142b757816316a1971814614040578163259ed80e1461401b57816329c9087a1461398b5781632ab5d8f31461396257816330d7265c1461388e57816333105592146138515781633befa4101461383657816341a51baa1461380d578163422a5bb8146137d957816343e197041461378757816345ecd02f1461376757816349df7208146136275781634d3c4a7c1461352c5781634f1ef2861461332f57816351eed47214612fb857816352d1902d14612f41578163557ee54f14612ea55781635581607914612e75578163562c788e146109f757816364f639d414612e5a57816368309c8914612e2a57816369ac202214612c375781636b4bed971461066b5781636fee32fa14612b74578163726d54471461285457816373c19c8d1461275757816375829def146126d957816378ad8f5b146126355781637b657d07146125f85781638129fc1c146124db5781638776cd35146124ab5781638806e5911461248257816389b08f111461243d5781638db7edb4146123ee57816393ccfba8146123be5781639443cd801461237857816396207e021461223457816396a03f8d146122045781639915b91f1461218c5781639be572f614611e66578163aaddc34514612160578163ab48384a1461205b578163ad3cb1cc14612017578163b8cab84b14611f39578163bb0f86d514611e82578163bff1f9e114611e66578163c36dc9ef14611e3d578163c497d84014611e0e578163c715582314611d92578163c88c35fe14611d6c578163c979c9bf14611add578163cb261a0314611aaf578163cda06c6e14611a88578163d12a7768146119d9578163d1f616dd146119b0578163d547741f146114f4578163db54f7b7146112d1578163dc9f9664146110c1578163dde492ea14610cb1578163dff1bea014610c76578163e6efcd5d14610a1f578163e94ed257146109f7578163f12b9ad31461069a578163f29e007b1461066b578163f32b10f01461063b578163f50936c9146105fb578163f76794f11461040357508063f851a440146103dc578063fc78f177146103a45763fdd9887e14610363575f80fd5b346103a05761037136614877565b91905f52600d602052805f2080548310156103a05760209261039291614a44565b91905490519160031b1c8152f35b5f80fd5b50346103a0576020906103b636614877565b905f5260108352815f20905f52825260ff815f2054169051906103d88161488d565b8152f35b50346103a0575f3660031901126103a0575f5490516001600160a01b039091168152602090f35b82346103a057602091826003193601126103a05780359261042b61042633615337565b614a9a565b335f52600193848252835f205492815f52600c8352845f20845f528352845f209081549160ff918860ff851661046081614a6d565b036105b85760ff1980941617905584837fc1f9bda0602b12c2f11218f87531038a6957666101c4faad39c882dcc5093dc6868951428152a3825f52600e8452855f20855f528452855f20875f905b6104d0575b6104ce888888885f52600e8152825f20915f52525f206151fc565b005b81548110156105b357908882888a6104eb8498979686614a44565b90549060031b1c895f52600f8b52815f20835f528b52815f20815f528b52815f2088815416905561051c8382615426565b5f528a60058082528887855f20015416156105a9578493600b5f80516020615e6b8339815191529361054e8787615426565b93845f52808252610560845f20614925565b9461056c868a8a61545a565b5f52815289835f20018d8154169055525f818120558d61059582519383859485528401906149c7565b9042908301520390a45b01909192936104ae565b505050505061059f565b6104b3565b875162461bcd60e51b8152908101869052601e60248201527f4e6f2070656e64696e672070726f706f73616c20746f206465636c696e6500006044820152606490fd5b82346103a05760203660031901126103a05761063791355f526012602052610624815f20614b6d565b9051918291602083526020830190614844565b0390f35b82346103a05761064a36614877565b91905f526008602052805f2080548310156103a05760209261039291614a44565b82346103a05760203660031901126103a057602091355f526002825260ff815f2054169051906103d881614a6d565b82346103a057806003193601126103a05781356001600160401b0381116103a0576106c890369084016146b4565b916106d161461c565b6106dd61042633615337565b6001600160a01b03169081156109c35750335f52600192602060018152835f2054925f52835f205491610711831515614b21565b855f9584861415915b61072057005b82518710156104ce5787876107408761073a849b8861516d565b5161587e565b156109be57878761075b81610755858a61516d565b51615426565b805f526005808a5261076e875f20614925565b91858b8a8c865183880120610781614cd5565b84815191012081146109af576107a18961079b878561516d565b5161557d565b6109af5787938993610885575b6107b6614e5f565b80519101201461082c575b6107d4936107ce9161516d565b5161545a565b5f52895284865f200160ff198154169055600b89525f868120555f80516020615e6b83398151915261081c610809868b61516d565b519288519182918a83528a8301906149c7565b428d8301520390a45b019661071a565b905061083992915061516d565b515f5260068b52858a895f20541580610865575b610859578585916107c1565b50505050505050610825565b50906108709161516d565b515f5260078b52858a888a5f2054111561084d565b925092508b6108a7610897868461516d565b518b6108a1614cd5565b916153c8565b8a6108bf6108b5888661516d565b51826108a1614e5f565b928a8c6108ca614d38565b88815191012089148015610999575b15610929575050885f52600b86525f20541490159182610920575b5081610917575b5061090957869288926107ae565b505050505050505050610825565b9050155f6108fb565b1591505f6108f4565b9693925096939050610939614e5f565b838151910120841461094d575b50506107ae565b91945091945061095d868461516d565b515f908152600685528e902054156109815750155b61090957869288925f80610946565b90159081610990575b50610972565b9050155f61098a565b506109a2614e88565b88815191012089146108d9565b50505050505050505050610825565b610825565b606490602084519162461bcd60e51b8352820152600e60248201526d125b9d985b1a59081dd85b1b195d60921b6044820152fd5b82346103a0575f3660031901126103a057600a5490516001600160a01b039091168152602090f35b82346103a057610a2e36614877565b91610a4360018060a01b035f54163314614c0c565b8115610c4257610a54831515615268565b610a60838314156152a6565b815f526002602081815260ff835f205416610a7a81614a6d565b15610c0757845f52818152610a9f60ff845f205416610a9881614a6d565b15156152f2565b835f52600c8152825f20855f52815260ff835f20541695610abf87614a6d565b861590818015610bf4575b15610ba25750610afc7fc5b2e1bd4433eb4e9e181cc803520513d39d918c96bddeebca1224e1c750963d959697614a6d565b610b8a575b610b4e8351610b0f81614632565b838152828101848152875f52600c8452855f20895f528452610b3e865f209251610b3881614a6d565b836150a1565b5190610b498261488d565b615127565b85857f494d010fdf588a0e83d626ea6963187bdda6f88b7007f7bf280683d3f7dea8348580518681524286820152a382519182524290820152a3005b845f52600d8152610b9d86845f2061522c565b610b01565b845162461bcd60e51b8152908101839052602660248201527f52656c6174696f6e7368697020616c726561647920616374697665206f722070604482015265656e64696e6760d01b6064820152608490fd5b50610bfe88614a6d565b60038814610aca565b8560649184519162461bcd60e51b83528201526016602482015275151c9d5cdd1bdc881b9bdd081c9959da5cdd195c995960521b6044820152fd5b5162461bcd60e51b8152602081850152600f60248201526e24b73b30b634b2103a393ab9ba37b960891b6044820152606490fd5b82346103a057602090610c8836614877565b905f5260108352815f20905f528252600160ff825f20541691610caa8361488d565b5191148152f35b9050346103a057610cc1366148ab565b919290610cd061042633615337565b610cdb841515614c89565b6001600160a01b031692610cf0841515614dbb565b610d01610cfc84615505565b614cf6565b335f5260209160018352855f2054945f52855f205492610d22841515614b21565b845181860120610d328785615426565b5f526005825260ff6001895f200154161561108057835f5260068252875f2054151590610d67610d60614cd5565b89876153c8565b91610d7a610d73614e5f565b8a886153c8565b91610d8d610d86614e88565b8b896153c8565b90610d96614cd5565b8051908701208103610ed457505015610e7a575015610e38575b610dba8484615426565b5f526005815260ff6001885f20015416610dda5750506104ce9450615982565b865162461bcd60e51b815291820152603360248201527f54617267657420616c726561647920686173206120726f6c652e2055736520636044820152721a185b99d9549bdb194a0a481a5b9cdd195859606a1b606482015260849150fd5b865162461bcd60e51b815291820181905260248201527f4f6e6c79206f776e6572732063616e206772616e74206f776e657220726f6c65604482015260649150fd5b9050610db057865162461bcd60e51b815291820152602960248201527f4f6e6c792061646d696e6973747261746f72732063616e206772616e742066696044820152683939ba1037bbb732b960b91b606482015260849150fd5b90929150610ee0614e5f565b8051908601208103610f58575090508115610f50575b50610db057865162461bcd60e51b815291820152603b60248201525f80516020615e8b83398151915260448201527f616e206772616e742061646d696e6973747261746f7220726f6c650000000000606482015260849150fd5b90505f610ef6565b610f60614e88565b8051908601208103610fcf575090508115610fc7575b50610db057865162461bcd60e51b815291820152603460248201525f80516020615e8b833981519152604482015273616e206772616e742073686172657220726f6c6560601b606482015260849150fd5b90505f610f76565b610fd7614d38565b85815191012014610feb575b505050610db0565b8215611078575b508115611070575b5015611008575f8080610fe3565b865162461bcd60e51b815291820152603e60248201527f4f6e6c79206f776e6572732c2061646d696e6973747261746f72732c20616e6460448201527f20736861726572732063616e206772616e742076696577657220726f6c650000606482015260849150fd5b90505f610ffa565b91505f610ff2565b60648383808b519262461bcd60e51b845283015260248201527f596f752068617665206e6f20726f6c6520666f722074686973207265636f72646044820152fd5b9050346103a05760603660031901126103a057803560243560038110156103a0576044356001600160401b0381116103a05761110090369085016146b4565b9161110d61042633615337565b335f52600193602060018152865f205491611129841515615268565b611135848414156152a6565b835f526002825261114f60ff895f205416610a9881614a6d565b825f52600c8252875f20845f52825260ff885f20541661116e81614a6d565b8015918280156112be575b80156112ac575b1561125b57508798859385936111b67f494d010fdf588a0e83d626ea6963187bdda6f88b7007f7bf280683d3f7dea83494614a6d565b611243575b6111fc82516111c981614632565b600181528281016111d98b61488d565b8a8152865f52600c8452845f20885f528452610b3e855f209251610b3881614a6d565b8151906112088961488d565b8882524290820152a35f945b61121a57005b83518510156104ce57858561123c858585611236869b8b61516d565b516156be565b0194611214565b835f52600d815261125685835f2061522c565b6111bb565b895162461bcd60e51b8152908101849052602560248201527f50726f706f73616c20616c726561647920657869737473206f722069732070656044820152646e64696e6760d81b6064820152608490fd5b506112b682614a6d565b808214611180565b506112c882614a6d565b60038214611179565b9050346103a0576020806003193601126103a0578135926112f461042633615337565b335f5260018252805f20549284156114c15784841461148057845f526002835260ff825f20541661132481614a6d565b8160028214918215611468575b8215611454575b50501561141457835f5260108352815f20855f528352600160ff835f2054166113608161488d565b146113d35750907fbc7e6071d162923d46a4378af39747cea2ccb6f4a57f09aefc6e92047c5bf1be91835f5260108252805f20855f528252805f20600160ff19825416179055835f52601182526113b985825f2061522c565b845f52601282526113cc84825f2061522c565b51428152a3005b82606492519162461bcd60e51b8352820152601e60248201527f416c726561647920766f756368696e6720666f722074686973207573657200006044820152fd5b8280606493519262461bcd60e51b845283015260248201527f566f7563686565206d75737420626520616e20616374697665206d656d6265726044820152fd5b90915061146081614a6d565b14815f611338565b8092506114759150614a6d565b816003821491611331565b82606492519162461bcd60e51b8352820152601960248201527f43616e6e6f7420766f75636820666f7220796f757273656c66000000000000006044820152fd5b82606492519162461bcd60e51b8352820152600f60248201526e496e76616c696420766f756368656560881b6044820152fd5b82346103a057806003193601126103a057813561150f61461c565b61151b61042633615337565b611526821515614c89565b6001600160a01b03169261153b841515614dbb565b335f5260209260018452805f2054945f52805f20549361155c851515614b21565b6115668585615426565b805f526005825261157f60ff6001855f20015416614e07565b805f5260058252611591835f20614925565b938451838601206115a0614cd5565b8481519101208114611939576115b6888861557d565b6118aa578789036116c4575b6115ca614e5f565b8481519101201461162f575b50908392916115f45f80516020615e6b83398151915295888861545a565b5f52600581526001825f200160ff198154169055600b81525f8281205561162482519383859485528401906149c7565b9042908301520390a4005b855f52600783526001845f20541160068452845f2054151581156116bc575b506115d657835162461bcd60e51b8152908101839052603960248201527f43616e6e6f74207265766f6b65206c6173742061646d696e6973747261746f7260448201527f20776974686f757420616e206f776e65722070726573656e74000000000000006064820152608490fd5b90508961164e565b6116d66116cf614cd5565b8a896153c8565b6116e86116e1614e5f565b8b8a6153c8565b845f52600b86528a875f205414906116fe614d38565b87815191012084148015611894575b156117b95782156117b1575b5081156117a9575b501561172d575b6115c2565b845162461bcd60e51b8152808301859052604a60248201527f4f6e6c79206f776e6572732c2061646d696e6973747261746f72732c206f722060448201527f746865206772616e7465722063616e207265766f6b65207669657765722f73686064820152696172657220726f6c657360b01b608482015260a490fd5b90508a611721565b91508b611719565b82159291508261188c575b501561184457156115c2576117d7614e5f565b848151910120810361172857865f5260068452845f20541561172857845162461bcd60e51b8152808301859052602560248201527f4f6e6c79206f776e6572732063616e207265766f6b652061646d696e6973747260448201526461746f727360d81b6064820152608490fd5b855162461bcd60e51b8152808401869052602f60248201525f80516020615e8b83398151915260448201526e616e207265766f6b6520726f6c657360881b6064820152608490fd5b90508b6117c4565b5061189d614e88565b878151910120841461170d565b845162461bcd60e51b8152808301859052605760248201527f43616e6e6f74207265766f6b6520616e20616374697665207375626a6563742760448201527f7320726f6c652e20416374697665207375626a65637473206d75737420686f6c60648201527f64206174206c656173742073686172657220726f6c652e000000000000000000608482015260a490fd5b845162461bcd60e51b8152808301859052604560248201527f4f776e6572732063616e6e6f74206265207265766f6b65642e204f776e65722060448201527f6d7573742075736520766f6c756e746172696c794c656176654f776e6572736860648201526434b814149760d91b608482015260a490fd5b82346103a05760203660031901126103a05761063791355f52600d602052610624815f20614b6d565b9050346103a057602090816003193601126103a0578290355f5260038252805f208151928381835491828152019081935f52825f20905f5b818110611a6b5750505084611a2791038561467c565b825181815293518185018190528493840192915f5b828110611a4b57505050500390f35b83516001600160a01b031685528695509381019392810192600101611a3c565b82546001600160a01b031684529284019260019283019201611a11565b82346103a05760203660031901126103a057602091355f52600b8252805f20549051908152f35b82346103a05760203660031901126103a057602090611ad4611acf614606565b615bf0565b90519015158152f35b82346103a057611aec36614877565b9092611afa61042633615337565b335f52600193602091858352845f2054908282148015611d63575b15611d2257825f52600c8452855f20855f52845260ff9060ff875f205416611b3c81614a6d565b8860028214918215611d0e575b505015611cc15750825f52600c8452855f20855f528452855f2090600360ff19926003848254161790558387867f6df3a6475fab2eed139f7e469995b04e85bfc5b4b8642587109cb72541f74fae898c51428152a4845f52600e8652875f20875f528652875f20895f905b611bd4575b6104ce8a8a8a8a5f52600e8152825f20915f52525f206151fc565b8154811015611cbc57908a82878b8d8c611bf3869c9b9a999888614a44565b905490891b1c918d5f52600f8252805f20845f528252805f20835f528252805f208b8154169055611c248484615426565b5f526005908183528a88825f2001541615611cb1575f80516020615e6b83398151915292611c528686615426565b92835f52808252611c64835f20614925565b93611c7085898961545a565b5f52815288825f20018d8154169055600b81525f82812055611c9b82519383859485528401906149c7565b9042908301520390a45b01909192939495611bb4565b505050505050611ca5565b611bb9565b865162461bcd60e51b8152908101859052602160248201527f4e6f20616374697665206f722070656e64696e672072656c6174696f6e7368696044820152600760fc1b6064820152608490fd5b909150611d1a81614a6d565b14888a611b49565b606490848088519262461bcd60e51b845283015260248201527f4e6f74206120706172747920746f20746869732072656c6174696f6e736869706044820152fd5b50848214611b15565b82346103a057806003193601126103a057611ad4602092611d8b61461c565b90356151bf565b82346103a05760203660031901126103a0577fce59ad7d6dabe8a7533ed7d9bd07d276a046ac7ac9a8e8e8971da4b81104a28b6020611dcf614606565b5f546001600160a01b039190611de89083163314614c0c565b1692611df5841515615181565b600a80546001600160a01b0319168517905551428152a2005b82346103a05761063790611e2136614877565b905f52600e602052815f20905f52602052610624815f20614b6d565b82346103a05760203660031901126103a05761063791355f526006602052610624815f20614b6d565b82346103a0575f3660031901126103a057602091549051908152f35b9050346103a05760203660031901126103a057611e9d614606565b5f546001600160a01b039190611eb69083163314614c0c565b16805f5260019182602052611ecf845f20541515614c45565b815f528260205260ff83855f20015416611efe57509181925f52816020525f20019060ff198254161790555f80f35b606490602085519162461bcd60e51b8352820152601560248201527457616c6c657420616c72656164792061637469766560581b6044820152fd5b82346103a057602090816003193601126103a057823591611f5c61042633615337565b335f5260018152815f205493835f52600c8252825f20855f528252825f2090815490600160ff8316611f8d81614a6d565b03611fde575060ff19166002179081905582517fc5b2e1bd4433eb4e9e181cc803520513d39d918c96bddeebca1224e1c750963d9392909160081c60ff16611fd48161488d565b82524290820152a3005b845162461bcd60e51b81529081018490526013602482015272139bc81c195b991a5b99c81c1c9bdc1bdcd85b606a1b6044820152606490fd5b82346103a0575f3660031901126103a05780516106379161203782614632565b60058252640352e302e360dc1b6020830152519182916020835260208301906149c7565b9050346103a05761206b36614a25565b9161207861042633615337565b335f526001602052835f205490815f52600c602052845f20835f52602052845f2060ff81546120b460028383166120ae81614a6d565b146150db565b60081c16916120c28661488d565b6120cb8361488d565b85831461211d57507fb36ec3c738ef8ecd9180addc815304762374b76e91c2a321831d9906ea119ade61211585936104ce98612108898896615127565b5191829189429184615146565b0390a36157a9565b606490602088519162461bcd60e51b8352820152601860248201527f416c72656164792074686973207472757374206c6576656c00000000000000006044820152fd5b82346103a05760209061217b61217536614877565b90615426565b5f52600b8252805f20549051908152f35b82346103a05761219b36614877565b905f52600c602052815f20905f52602052805f2061063760ff8351926121c084614632565b548181166121cd81614a6d565b845260081c169160208101926121e28161488d565b835251916121ef83614a6d565b51926121fa8461488d565b5192839283614a77565b82346103a05761221336614877565b91905f526012602052805f2080548310156103a05760209261039291614a44565b82346103a057806003193601126103a05781359060243560058110156103a05761226860018060a01b035f54163314614c0c565b825f5260206002815260ff835f20541661228181614a6d565b1561234057835f526002815260ff835f2054169461229e83614a6d565b6122a786614a6d565b8286146123095750835f52600281526122c282845f206150a1565b8251946122ce81614a6d565b85526122d982614a6d565b84015242908301527ff6277c6ee46649823db9a5c531db3112b4340c67179cae1932ba3420dcc37cc760603393a3005b60649184519162461bcd60e51b83528201526013602482015272416c726561647920746869732073746174757360681b6044820152fd5b8460649184519162461bcd60e51b83528201526013602482015272155cd95c881b9bdd081c9959da5cdd195c9959606a1b6044820152fd5b82346103a05761238736614877565b91905f526003602052805f2080548310156103a0576020926123a891614a44565b60018060a01b0391549060031b1c169051908152f35b82346103a0576123cd36614877565b91905f526009602052805f2080548310156103a05760209261039291614a44565b82346103a0576020806003193601126103a057608092355f5260068152815f20549160078252805f20549060088352805f20549160098452815f20549382519586528501528301526060820152f35b82346103a05760203660031901126103a0576001600160a01b0361245f614606565b165f526001602052805f2060ff6001825492015416825191825215156020820152f35b82346103a05760203660031901126103a05761063791355f526011602052610624815f20614b6d565b82346103a0576124ba36614877565b91905f526007602052805f2080548310156103a05760209261039291614a44565b9050346103a0575f3660031901126103a0577ff0c57e16840df040f15088dc2f81fe391c3923bec73e23a9662efc9c229c6a0090815460ff81851c1615916001600160401b038216801590816125f0575b60011490816125e6575b1590816125dd575b506125cf575067ffffffffffffffff1981166001178355816125b0575b505f80546001600160a01b0319163317905561257357005b805468ff00000000000000001916905551600181527fc7f505b2f371ae2175ee4913f4499e1f2633a7b5936321eed1cdaeb6115181d290602090a1005b68ffffffffffffffffff1916680100000000000000011782555f61255b565b845163f92ee8a960e01b8152fd5b9050155f61253e565b303b159150612536565b84915061252c565b82346103a0576106379061260b36614877565b905f52600c602052815f20905f52602052805f20549051918160ff80859460081c16911683614a77565b82346103a057602091826003193601126103a0576126b19261063791355f52600681526126cb835f209360078352805f2094600884526126be825f20946009815261269d61269761269161268b875f2096614b6d565b9a614b6d565b97614b6d565b93614b6d565b958451998a9960808b5260808b0190614844565b91898303908a0152614844565b9186830390870152614844565b908382036060850152614844565b82346103a05760203660031901126103a0576020906126f6614606565b5f5491906001600160a01b03808416917f38df5fa0f7fef0d515ca1f5388cb5790ac5885d5fca8d05d9f943e563c33a4b39190612734338514614c0c565b16948593612743851515615181565b51428152a36001600160a01b031916175f55005b9050346103a0576020806003193601126103a05781359261277a61042633615337565b335f5260018252805f205492835f5260108352815f20855f528352600160ff835f2054166127a78161488d565b036128135750907f0972fd04571d170dafa6fe5d3822da50a1fd8596d166c4ca101dff5fc760533e91835f5260108252805f20855f528252805f20600260ff19825416179055835f526011825261280085825f20615b59565b845f52601282526113cc84825f20615b59565b82606492519162461bcd60e51b8352820152601d60248201527f4e6f2061637469766520766f75636820666f72207468697320757365720000006044820152fd5b9050346103a057612864366148ab565b93909260018060a01b0361287c815f54163314614c0c565b612887841515614c89565b8416612894811515614f92565b6128a0610cfc87615505565b5f5260016020918183526128c2845f2054966128bd881515614c45565b615337565b15612b3157845f5260068352835f20541580612b22575b15612adf576128e88686615426565b91825f5260058452845f209160ff8261290085614925565b940154169186519161291183614632565b8a835286830190828252865f5260058852885f2093518051916001600160401b038311612acc575061294385546148ed565b601f8111612a86575b508890601f8311600114612a1f5761299395949392915f9183612a14575b50505f19600383901b1c191690831b1783555b51151591019060ff801983541691151516179055565b6129e75750915f95917ff9d17eb1340ab78960b594ff8bed1349985b800ee21199c6d5ea4a67454593ad938752600b815286828120556129d4838787615d2e565b61162482519383859485528401906149c7565b9594939250508451818601209084519085012003612a0157005b612a0f6104ce94838361545a565b615d2e565b015190505f8061296a565b90601f19831691865f528a5f20925f5b8c828210612a72575050918695949291836129939998959310612a5a575b505050811b01835561297d565b01515f1960f88460031b161c191690555f8080612a4d565b838501518655948801949384019301612a2f565b855f52895f20601f840160051c8101918b8510612ac2575b601f0160051c019085905b828110612ab757505061294c565b5f8155018590612aa9565b9091508190612a9e565b604190634e487b7160e01b5f525260245ffd5b835162461bcd60e51b8152908101839052601a60248201527f5265636f726420616c726561647920696e697469616c697a65640000000000006044820152606490fd5b5060078352835f2054156128d9565b835162461bcd60e51b8152908101839052601860248201527f4d75737420626520616e20616374697665206d656d62657200000000000000006044820152606490fd5b82346103a057612b8336614877565b612b9860018060a01b03600a54163314614eaa565b815f526020600d602052835f20925f5b84548110156104ce5780612bbe60019287614a44565b90549060031b1c835f52600c8552875f20815f5285526002885f20895190612be582614632565b5460ff90818116612bf581614a6d565b835260081c16612c048161488d565b8782015251612c1281614a6d565b612c1b81614a6d565b03612c3157612c2b908487615888565b01612ba8565b50612c2b565b82346103a057806003193601126103a0576001600160401b039082358281116103a057366023820112156103a057808401359283116103a05760246005913660248660051b830101116103a0575f546001600160a01b03966024359591612ca19089163314614c0c565b8615612df257612cb2861515614fd7565b855f526002936020936002855260ff845f205416612ccf81614a6d565b15965f5b8a8110612cdc57005b8381831b84010135908c8216918281036103a05782612d638d92612d036001961515614f92565b825f52612d548b8d8890818152612d1d835f20541561501a565b825192612d2984614632565b8884528282850192818452895f52525f209251835551151591019060ff801983541691151516179055565b835f5260038c528a5f20615066565b821580612deb575b15612dbe57815f528a8a52885f208b60ff19825416179055612d8d88546150b9565b88557f39d132591ee0696de49ab564e4a90e430c006561917db731a2a614dd2d2455918a8a51428152a35b01612cd3565b7f1cc138f50384be7770a8e4a34eecaa0d0c718bfaa1641af49db32532e4a5b9108a8a51428152a3612db8565b508b612d6b565b6020606492519162461bcd60e51b83528201526013602482015272139bc81dd85b1b195d1cc81c1c9bdd9a591959606a1b6044820152fd5b82346103a057612e3936614877565b91905f526011602052805f2080548310156103a05760209261039291614a44565b82346103a057602090611ad4612e6f36614877565b9061557d565b82346103a057612e8436614877565b91905f526006602052805f2080548310156103a05760209261039291614a44565b82346103a057602090612eb736614877565b905f52600c8352815f20905f528252805f2090600260ff825193612eda85614632565b54818116612ee781614a6d565b855260081c169284810193612efb8161488d565b845251612f0781614a6d565b612f1081614a6d565b149182612f21575b50519015158152f35b600291925051612f308161488d565b612f398161488d565b149083612f18565b82346103a0575f3660031901126103a0577f00000000000000000000000000000000000000000000000000000000000000006001600160a01b03163003612fab57602090517f360894a13ba1a3210667c828492db98dca3e2076cc3735a920a3ca505d382bbc8152f35b5163703e46dd60e11b8152fd5b82346103a057612fc736614777565b90612fd461042633615337565b612fe18351835114614add565b335f52600193602091858352815f20549060018060a01b03165f52815f20549061300c821515614b21565b865f96838314915b61301a57005b80518810156104ce578888613030829a8461516d565b5161303b828b61516d565b5161304581615505565b15613328576130548783615426565b5f526005808b5260ff80868c5f200154161561331f576130748a85615426565b5f52818c52858b5f20015416156133175761308f8984615426565b5f528a5261309e895f20614925565b9088888c8451818601208d855183870120908183146131aa576130bf614cd5565b84815191012083146131aa57885f52600684525f2054159182156130eb6130e4614cd5565b878c6153c8565b906130fe6130f7614e5f565b888d6153c8565b9061310c8c896108a1614e88565b613114614cd5565b80519089012086036131cc5750156131b85750156131aa575b613135614e5f565b848151910120149283613190575b505081613188575b5080613170575b6131665761315f94615607565b0197613014565b505050505061315f565b505050825f5260078b528888868c5f20541115613152565b90505f61314b565b9091925061319c614d38565b805191012014905f8f613143565b50505050505050505061315f565b905061312d5750505050505050505061315f565b9192906131d7614e5f565b8051908901208603613202575090501590816131f9575b506131aa575b61312d565b9050155f6131ee565b61320a614e88565b8051908901208603613286571561325257159182613249575b508161323357506131aa5761312d565b905080613242575b155f6131ee565b508c61323b565b1591505f613223565b5090159081613270575b50156131f45750505050505050505061315f565b90508061327f575b155f61325c565b508c613278565b61328e614d38565b88815191012086146132a4575b5050505061312d565b15613303571591826132eb575b50816132d5575b506131aa575b6132c8868a61557d565b6131aa575f80808061329b565b9050806132e4575b155f6132b8565b508c6132dd565b909150806132fc575b15905f6132b1565b508d6132f4565b50506132be5750505050505050505061315f565b50505061315f565b5050505061315f565b505061315f565b9050816003193601126103a057613344614606565b916024356001600160401b0381116103a057366023820112156103a0576133749036906024818601359101614714565b906001600160a01b037f000000000000000000000000000000000000000000000000000000000000000081163081149081156134fe575b506134ee576133be815f54163314614c0c565b8416918151946352d1902d60e01b86526020868681875afa5f96816134ba575b506133fa57505051634c9c8ce360e01b81529182015260249150fd5b838593877f360894a13ba1a3210667c828492db98dca3e2076cc3735a920a3ca505d382bbc908181036134a45750833b1561348d5780546001600160a01b0319168317905551907fbc7cd75a20ee27fd9adebab32041f755214dbc6bffa90cc0225b39da2e5c2d3b5f80a282511561347757506104ce9250615dd9565b9150503461348157005b63b398979f60e01b8152fd5b8151634c9c8ce360e01b8152808701849052602490fd5b86602491845191632a87526960e21b8352820152fd5b9096506020813d6020116134e6575b816134d66020938361467c565b810103126103a05751955f6133de565b3d91506134c9565b815163703e46dd60e11b81528490fd5b9050817f360894a13ba1a3210667c828492db98dca3e2076cc3735a920a3ca505d382bbc541614155f6133ab565b9050346103a05761353c36614a25565b919061354a61042633615337565b335f526001602052835f205491815f52600c602052845f20835f52602052845f2060ff815461358060028383166120ae81614a6d565b6135898761488d565b60081c16916135978361488d565b8260ff871610156135d857507fb36ec3c738ef8ecd9180addc815304762374b76e91c2a321831d9906ea119ade61211585936104ce98612108898896615127565b608490602088519162461bcd60e51b8352820152602360248201527f43616e206f6e6c7920646f776e677261646520746f2061206c6f776572206c656044820152621d995b60ea1b6064820152fd5b82346103a057806003193601126103a057613640614606565b916024359260018060a01b0361365a815f54163314614c0c565b811692613668841515614f92565b613673851515614fd7565b835f526136d86020926001845261368d835f20541561501a565b6136c9835161369b81614632565b8881526001868201818152895f52818852865f209251835551151591019060ff801983541691151516179055565b865f5260038452825f20615066565b845f526002825260ff815f2054166136ef81614a6d565b61373d577f39d132591ee0696de49ab564e4a90e430c006561917db731a2a614dd2d24559192855f5260028352815f20600260ff1982541617905561373481546150b9565b905551428152a3005b7f1cc138f50384be7770a8e4a34eecaa0d0c718bfaa1641af49db32532e4a5b910925051428152a3005b82346103a05760203660031901126103a057602090611ad46128bd614606565b82346103a05760209061379c61217536614877565b5f5260058252610637815f209180516137b481614632565b60ff60016137c186614925565b95868452015416151594859101525192839283614a05565b82346103a057806003193601126103a057613800610637926137f961461c565b9035614f1a565b9290915192839283614a05565b82346103a05760203660031901126103a05761063791355f526007602052610624815f20614b6d565b82346103a057602090611ad461384b366148ab565b91614eee565b9050346103a05760203660031901126103a057355f526005602052805f2061063760ff600161387f84614925565b93015416925192839283614a05565b82346103a05761389d36614877565b6138b260018060a01b03600a54163314614eaa565b815f52602090600d602052835f20935f5b85548110156104ce57806138d960019288614a44565b90549060031b1c865f52600c8652835f20815f528652835f2090600285519261390184614632565b5460ff9081811661391181614a6d565b855260081c1692888101936139258161488d565b84525161393181614a6d565b61393a81614a6d565b0361395b5761395591519061394e8261488d565b88876156be565b016138c3565b5050613955565b82346103a05760203660031901126103a05761063791355f526008602052610624815f20614b6d565b9050346103a05761399b366148ab565b9192906139aa61042633615337565b6139b5841515614c89565b6001600160a01b03166139c9811515614dbb565b6139d5610cfc84615505565b335f5260209360018552855f2054915f52855f2054926139f6841515614b21565b84518686012095613a078584615426565b805f5260058252613a2060ff60018b5f20015416614e07565b5f5260058152613a31885f20614925565b9687518289012090808214613fd857613a48614cd5565b8381519101208214613f6357845f5260068352895f205415918215613a75613a6e614cd5565b89896153c8565b90613a88613a81614e5f565b8a8a6153c8565b90613a9b613a94614e88565b8b8b6153c8565b8b8b14613aa6614cd5565b8051908a01208703613c2357505015613bc6575015613b85575b613ac8614e5f565b848151910120149081613b6e575b50613ae9575b5050506104ce9550615607565b613af4575b80613adc565b825f52600781526001885f205411613aee57875162461bcd60e51b815291820152603960248201527f43616e6e6f742064656d6f746520746865206c6173742061646d696e6973747260448201527f61746f72207768656e206e6f206f776e65722065786973747300000000000000606482015260849150fd5b9050613b78614d38565b838151910120145f613ad6565b60648585808e519262461bcd60e51b845283015260248201527f4f6e6c79206f776e6572732063616e2070726f6d6f746520746f206f776e65726044820152fd5b9050613ac0578a5162461bcd60e51b8152808601859052602b60248201527f4f6e6c792061646d696e6973747261746f72732063616e2070726f6d6f74652060448201526a3334b939ba1037bbb732b960a91b6064820152608490fd5b9091613c2d614e5f565b8051908a01208703613cad575050508115613ca5575b5015613c4f575b613ac0565b8a5162461bcd60e51b8152808601859052603b60248201525f80516020615e8b83398151915260448201527f616e2070726f6d6f746520746f2061646d696e6973747261746f7200000000006064820152608490fd5b90505f613c43565b613cb993919293614e88565b8051908a01208703613df85715613d7c578315613d74575b508215613d5b575b5050613ac0578a5162461bcd60e51b8152808601859052605f60248201525f80516020615e8b83398151915260448201527f616e206368616e6765206f746865727320746f207368617265722e205368617260648201527f6572732063616e206f6e6c792064656d6f7465207468656d73656c7665732e00608482015260a490fd5b90915081613d6c575b505f80613cd9565b90505f613d64565b92505f613cd1565b92508215613ddf575b5050613c4a578a5162461bcd60e51b8152808601859052602860248201527f4f6e6c792061646d696e6973747261746f72732063616e206368616e67652074604482015267379039b430b932b960c11b6064820152608490fd5b90915081613df0575b505f80613d85565b90505f613de8565b613e00614d38565b8981519101208714613e17575b5050505050613ac0565b15613f07578315613ef0575b508215613ed7575b505015613e50575b613e46613e40898861557d565b15614d5a565b5f80808080613e0d565b8a5162461bcd60e51b8152808601859052605560248201527f4f6e6c79206f776e6572732063616e2064656d6f7465206f74686572732e204160448201527f646d696e6973747261746f727320616e6420736861726572732063616e206f6e606482015274363c903232b6b7ba32903a3432b6b9b2b63b32b99760591b608482015260a490fd5b90915081613ee8575b505f80613e2b565b90505f613ee0565b90925080613f00575b915f613e23565b5081613ef9565b92505050613e33578a5162461bcd60e51b8152808601859052602860248201527f4f6e6c792061646d696e6973747261746f72732063616e2064656d6f7465207460448201526737903b34b2bbb2b960c11b6064820152608490fd5b895162461bcd60e51b8152808501849052604360248201527f4f776e6572732063616e6e6f742062652064656d6f7465642e204f776e65722060448201527f6d75737420766f6c756e746172696c792072656d6f7665207468656d73656c7660648201526232b99760e91b608482015260a490fd5b895162461bcd60e51b8152808501849052601c60248201527f54617267657420616c726561647920686173207468697320726f6c65000000006044820152606490fd5b82346103a05760203660031901126103a057602090611ad461403b614606565b61566c565b9050346103a057816003193601126103a0578035906024356001600160401b0381116103a0576140739036908301614759565b9061408061042633615337565b61408b831515614c89565b335f52602060018152845f2054916140ab6140a4614cd5565b84876153c8565b1561426a57845f52600682526001865f20541160078352865f205415158115614262575b5015614207578351156141a1576140e8610cfc85615505565b8351908285019182206140f9614cd5565b8481519101201461414357506104ce95508351902090614117614d38565b805191012014614131575b8061412b614cd5565b93615607565b61413e613e40828561557d565b614122565b865162461bcd60e51b8152908101839052603260248201527f55736520616e20656d70747920737472696e6720746f206c6561766520656e746044820152716972656c792c206e6f7420276f776e65722760701b6064820152608490fd5b5090937f68f37cc4a32f0b24153ce9237b344b20a9717039f90d7c24f35e5c217f03e16892506141d18585615426565b6141e36141dc614cd5565b878761545a565b5f52600582526001815f200160ff198154169055600b82525f8181205551428152a3005b60849186519162461bcd60e51b8352820152603160248201527f43616e6e6f74206c65617665206173206c617374206f776e65722077697468206044820152706e6f2061646d696e6973747261746f727360781b6064820152fd5b90505f6140cf565b60849186519162461bcd60e51b8352820152602360248201527f596f7520617265206e6f7420616e206f776e6572206f662074686973207265636044820152621bdc9960ea1b6064820152fd5b82346103a05760203660031901126103a0576142d1614606565b5f546001600160a01b0391906142ea9083163314614c0c565b16805f526001602052614301825f20541515614c45565b805f52600160205260ff6001835f200154161561433157600192505f52816020525f200160ff1981541690555f80f35b815162461bcd60e51b8152602081850152601760248201527f57616c6c657420616c726561647920696e6163746976650000000000000000006044820152606490fd5b82346103a0576020906103b636614877565b82346103a057806003193601126103a057611ad46020926143a561461c565b9035614bbb565b82346103a05760203660031901126103a05761063791355f526009602052610624815f20614b6d565b82346103a0576143e436614777565b92906143f261042633615337565b6143ff8351855114614add565b335f52600193849360209060018252845f20549360018060a01b03165f52845f20549161442d831515614b21565b5f965b61443657005b81518710156104ce57878761445561444f839a8861516d565b51615505565b15614521576144688761073a838761516d565b156145215761447b8561073a838761516d565b61452157614489818761516d565b518381519101206144a761449d838761516d565b51896108a1614cd5565b6144be6144b4848861516d565b518a6108a1614e5f565b916144c7614cd5565b805190870120810361452e5750906144df838761516d565b515f908152600686528a902054156145265750155b614521575b61451a87614507838761516d565b5187614513858b61516d565b5191615982565b0196614430565b61451a565b9050156144f4565b614536614e5f565b805190870120810361455f5750159081614556575b50614521575b6144f9565b9050158b61454b565b614567614e88565b8051908701200361458e57159081614585575b50156144f95761451a565b9050158b61457a565b6145a561459b848861516d565b518a6108a1614e88565b901591826145c9575b50816145c0575b50156145515761451a565b9050158b6145b5565b1591508c6145ae565b8390346103a05760203660031901126103a0576020916001600160a01b036145f8614606565b165f52600183525f20548152f35b600435906001600160a01b03821682036103a057565b602435906001600160a01b03821682036103a057565b604081019081106001600160401b0382111761464d57604052565b634e487b7160e01b5f52604160045260245ffd5b602081019081106001600160401b0382111761464d57604052565b90601f801991011681019081106001600160401b0382111761464d57604052565b6001600160401b03811161464d5760051b60200190565b9080601f830112156103a05760209082356146ce8161469d565b936146dc604051958661467c565b81855260208086019260051b8201019283116103a057602001905b828210614705575050505090565b813581529083019083016146f7565b9291926001600160401b03821161464d576040519161473d601f8201601f19166020018461467c565b8294818452818301116103a0578281602093845f960137010152565b9080601f830112156103a05781602061477493359101614714565b90565b60606003198201126103a0576001600160401b03916004358381116103a057826147a3916004016146b4565b9260249283356001600160a01b03811681036103a05793604435928084116103a057826023850112156103a05783600401356147de8161469d565b946147ec604051968761467c565b8186526020946024602088019360051b830101948186116103a05760248301935b86851061481f57505050505050505090565b84358681116103a057889161483985858594890101614759565b81520194019361480d565b9081518082526020808093019301915f5b828110614863575050505090565b835185529381019392810192600101614855565b60409060031901126103a0576004359060243590565b6003111561489757565b634e487b7160e01b5f52602160045260245ffd5b60606003198201126103a057600435916024356001600160a01b03811681036103a05791604435906001600160401b0382116103a05761477491600401614759565b90600182811c9216801561491b575b602083101461490757565b634e487b7160e01b5f52602260045260245ffd5b91607f16916148fc565b9060405191825f8254614937816148ed565b908184526020946001916001811690815f146149a55750600114614967575b5050506149659250038361467c565b565b5f90815285812095935091905b81831061498d57505061496593508201015f8080614956565b85548884018501529485019487945091830191614974565b9250505061496594925060ff191682840152151560051b8201015f8080614956565b91908251928382525f5b8481106149f1575050825f602080949584010152601f8019910116010190565b6020818301810151848301820152016149d1565b90614a1d6020919493946040845260408401906149c7565b931515910152565b60409060031901126103a0576004359060243560038110156103a05790565b8054821015614a59575f5260205f2001905f90565b634e487b7160e01b5f52603260045260245ffd5b6005111561489757565b6040810193929160209190614a8b81614a6d565b8152614a968361488d565b0152565b15614aa157565b60405162461bcd60e51b81526020600482015260146024820152732737ba1030b71030b1ba34bb329036b2b6b132b960611b6044820152606490fd5b15614ae457565b60405162461bcd60e51b8152602060048201526015602482015274082e4e4c2f240d8cadccee8d040dad2e6dac2e8c6d605b1b6044820152606490fd5b15614b2857565b60405162461bcd60e51b815260206004820152601c60248201527f5461726765742077616c6c6574206e6f742072656769737465726564000000006044820152606490fd5b90604051918281549182825260209260208301915f5260205f20935f905b828210614ba1575050506149659250038361467c565b855484526001958601958895509381019390910190614b8b565b6001600160a01b039091165f90815260016020526040902054908115614c0657614bed614be6614cd5565b83836153c8565b918215614bf957505090565b61477492506108a1614e5f565b50505f90565b15614c1357565b60405162461bcd60e51b815260206004820152600a60248201526927b7363c9030b236b4b760b11b6044820152606490fd5b15614c4c57565b60405162461bcd60e51b815260206004820152601560248201527415d85b1b195d081b9bdd081c9959da5cdd195c9959605a1b6044820152606490fd5b15614c9057565b60405162461bcd60e51b815260206004820152601e60248201527f5265636f726420494420686173682063616e6e6f7420626520656d70747900006044820152606490fd5b60405190614ce282614632565b600582526437bbb732b960d91b6020830152565b15614cfd57565b60405162461bcd60e51b8152602060048201526013602482015272496e76616c696420726f6c6520737472696e6760681b6044820152606490fd5b60405190614d4582614632565b60068252653b34b2bbb2b960d11b6020830152565b15614d6157565b60405162461bcd60e51b815260206004820152602c60248201527f43616e6e6f742064656d6f746520616e20616374697665207375626a6563742060448201526b3132b637bb9039b430b932b960a11b6064820152608490fd5b15614dc257565b60405162461bcd60e51b815260206004820152601d60248201527f57616c6c657420616464726573732063616e6e6f74206265207a65726f0000006044820152606490fd5b15614e0e57565b60405162461bcd60e51b815260206004820152602360248201527f54617267657420646f6573206e6f74206861766520616e2061637469766520726044820152626f6c6560e81b6064820152608490fd5b60405190614e6c82614632565b600d82526c30b236b4b734b9ba3930ba37b960991b6020830152565b60405190614e9582614632565b600682526539b430b932b960d11b6020830152565b15614eb157565b60405162461bcd60e51b81526020600482015260156024820152744f6e6c79204865616c74685265636f7264436f726560581b6044820152606490fd5b919060018060a01b03165f52600160205260405f20548015614f1357614774926153c8565b5050505f90565b6001600160a01b039091165f90815260016020526040902054908115614f7c5760209291614f4791615426565b5f526005825260405f20604051614f5d81614632565b60ff6001614f6a84614925565b93848452015416151593849101529190565b5050604051614f8a81614661565b5f8152905f90565b15614f9957565b60405162461bcd60e51b8152602060048201526016602482015275496e76616c69642077616c6c6574206164647265737360501b6044820152606490fd5b15614fde57565b60405162461bcd60e51b8152602060048201526014602482015273092dcecc2d8d2c840eae6cae440928840d0c2e6d60631b6044820152606490fd5b1561502157565b60405162461bcd60e51b815260206004820152601960248201527f57616c6c657420616c72656164792072656769737465726564000000000000006044820152606490fd5b8054600160401b81101561464d5761508391600182018155614a44565b60018060a09493941b038084549260031b9316831b921b1916179055565b906150ab81614a6d565b60ff80198354169116179055565b5f1981146150c75760010190565b634e487b7160e01b5f52601160045260245ffd5b156150e257565b60405162461bcd60e51b815260206004820152601e60248201527f4e6f2061637469766520747275737465652072656c6174696f6e7368697000006044820152606490fd5b906151318161488d565b61ff0082549160081b169061ff001916179055565b606081019493926040926151598161488d565b82526151648161488d565b60208201520152565b8051821015614a595760209160051b010190565b1561518857565b60405162461bcd60e51b815260206004820152600f60248201526e496e76616c6964206164647265737360881b6044820152606490fd5b6001600160a01b039091165f908152600160205260409020548015614c06576151e791615426565b5f52600560205260ff600160405f2001541690565b8054905f81558161520b575050565b5f5260205f20908101905b818110615221575050565b5f8155600101615216565b805490600160401b82101561464d578161524e91600161526494018155614a44565b819391549060031b91821b915f19901b19161790565b9055565b1561526f57565b60405162461bcd60e51b815260206004820152600f60248201526e496e76616c6964207472757374656560881b6044820152606490fd5b156152ad57565b60405162461bcd60e51b815260206004820152601760248201527f43616e6e6f74206170706f696e7420796f757273656c660000000000000000006044820152606490fd5b156152f957565b60405162461bcd60e51b8152602060048201526016602482015275151c9d5cdd1959481b9bdd081c9959da5cdd195c995960521b6044820152606490fd5b6001600160a01b03165f90815260016020526040902080549081159081156153b8575b506153b3575f52600260205260ff60405f20541661537781614a6d565b6002811490811561539e575b811561538d575090565b6004915061539a81614a6d565b1490565b90506153a981614a6d565b6003811490615383565b505f90565b60ff91506001015416155f61535a565b602092916153d591615426565b5f526005825260405f206040516153eb81614632565b60ff60016153f884614925565b93848452015416151593849101528261541057505090565b9091506020815191012090602081519101201490565b906040519060208201928352604082015260408152606081018181106001600160401b0382111761464d5760405251902090565b825160208094012061546a614cd5565b805190850120810361548a5750614965926006915f525260405f20615b59565b615492614e5f565b80519085012081036154b25750614965926007915f525260405f20615b59565b6154ba614e88565b80519085012081036154da5750614965926008915f525260405f20615b59565b6154e2614d38565b848151910120146154f257505050565b614965926009915f525260405f20615b59565b60208151910120615514614cd5565b602081519101208114908115615564575b811561554b575b8115615536575090565b9050615540614d38565b602081519101201490565b9050615555614e88565b6020815191012081149061552c565b905061556e614e5f565b60208151910120811490615525565b600a546001600160a01b0316918215614f13576044602092604051948593849263193d8e7560e21b8452600484015260248301525afa9081156155fc575f916155c4575090565b90506020813d6020116155f4575b816155df6020938361467c565b810103126103a0575180151581036103a05790565b3d91506155d2565b6040513d5f823e3d90fd5b91927f3af67cf2057ba8ef414286fb626cd3efb02f74996e18efd455b39d8ec7ec460f91946156616156539261563f88828989615982565b6040519384936060855260608501906149c7565b9083820360208501526149c7565b4260408301520390a4565b6001600160a01b03165f90815260016020526040902080549081159081156156ae575b506153b3575f526002602052600460ff60405f20541661539a81614a6d565b60ff91506001015416155f61568f565b91926156cb908284615c42565b926156d584615505565b156157a3576156e48284615426565b5f526020916005835260409460ff6001875f200154161561579b576157098386615426565b5f526005845260ff6001875f2001541661579b5781615729918487615982565b805f52600f8352845f20825f528352845f20845f52835260ff855f20541615615754575b5050505050565b805f52600e8352845f20825f52835261576f84865f2061522c565b5f52600f8252835f20905f528152825f20915f52525f20600160ff198254161790555f8080808061574d565b505050505050565b50505050565b929190835f52602090600e825260409060405f20815f52835260405f20955f5b875481101561587457806157df6001928a614a44565b90549060031b1c6157f08582615426565b5f52600580885260ff84885f200154161561586d57615810898684615c42565b9061581a82615505565b15615865576158298784615426565b5f528852615838875f20614925565b90868683518b85012083518c8501201461585b5761585594615607565b016157c9565b5050505050615855565b505050615855565b5050615855565b5050505050509050565b906151e791615426565b919091825f526020600f81526040805f20845f528252805f20835f52825260ff815f2054161561574d57845f52600f8252805f20845f528252805f20835f528252805f209060ff1991828154169055855f52600e8352805f20855f5283526158f284825f20615b59565b6158fc8585615426565b5f526005835260ff6001825f200154161561579b575f80516020615e6b8339815191529261592a8686615426565b92835f526005825261593d835f20614925565b9361594985898961545a565b5f52600582526001835f2001908154169055600b81525f8281205561597782519383859485528401906149c7565b9042908301520390a4565b92919261598f8282615426565b93845f52602060058152604090815f20966159a988614925565b9760ff60018092015416908451906159c082614632565b868252848201818152845f5260058652865f2092518051906001600160401b03821161464d576159f085546148ed565b601f8111615b13575b508790601f8311600114615ac557615a3e95949392915f9183612a145750505f19600383901b1c191690831b17835551151591019060ff801983541691151516179055565b615a91577ff9d17eb1340ab78960b594ff8bed1349985b800ee21199c6d5ea4a67454593ad94959697505f52600b815286825f2055615a7e838787615d2e565b61597782519383859485528401906149c7565b50919450508451818601209084519085012003615aae5750505050565b612a0f615abc94838361545a565b5f8080806157a3565b90601f19831691865f52895f20925f5b8b828210615aff57505091869594929183615a3e9998959310612a5a57505050811b01835561297d565b838501518655948801949384019301615ad5565b855f52885f20601f840160051c8101918a8510615b4f575b601f0160051c019085905b828110615b445750506159f9565b5f8155018590615b36565b9091508190615b2b565b5f5b815490818110156157a3578391615b728285614a44565b959054600396871b1c14615b8c5750909250600101615b5b565b5f1992508281019081116150c75761524e615baa615bb79286614a44565b905490871b1c9285614a44565b905581548015615bdc57810192615bce8484614a44565b81939154921b1b1916905555565b634e487b7160e01b5f52603160045260245ffd5b6001600160a01b03165f9081526001602052604090208054908115908115615c32575b506153b3575f526002602052600360ff60405f20541661539a81614a6d565b60ff91506001015416155f615c13565b90615c4c8361488d565b8215615d2357615c5b91615426565b5f526020906005825260405f2060ff600160405192615c7984614632565b615c8281614925565b845201541615801584830152615d0d5751915b82518184012091615ca4614e88565b82815191012083148015615cf7575b615ceb5780615cc360019261488d565b14615ccd57505090565b615cd5614cd5565b805191012014615ce25790565b50614774614e5f565b50505050614774614d38565b50615d00614d38565b8281519101208314615cb3565b50604051615d1a81614661565b5f815291615c95565b505050614774614d38565b8251602080940120615d3e614cd5565b8051908501208103615d5e5750614965926006915f525260405f2061522c565b615d66614e5f565b8051908501208103615d865750614965926007915f525260405f2061522c565b615d8e614e88565b8051908501208103615dae5750614965926008915f525260405f2061522c565b615db6614d38565b84815191012014615dc657505050565b614965926009915f525260405f2061522c565b905f8091602081519101845af48080615e57575b15615e0d5750506040513d81523d5f602083013e60203d82010160405290565b15615e3457604051639996b31560e01b81526001600160a01b039091166004820152602490fd5b3d15615e45576040513d5f823e3d90fd5b60405163d6bda27560e01b8152600490fd5b503d151580615ded5750813b1515615ded56fed05ed2d3feff840c2ececa71791388fd3d19dbbbbcfa97031f534a7dc09fbf1f4f6e6c79206f776e65727320616e642061646d696e6973747261746f72732063a2646970667358221220fffd115f783daccb0435fce92960b124b405fae365fdd1f4e40ca1611bdf686b64736f6c63430008180033","opcodes":"PUSH1 0xA0 DUP1 PUSH1 0x40 MSTORE CALLVALUE PUSH3 0xD1 JUMPI ADDRESS PUSH1 0x80 MSTORE PUSH32 0xF0C57E16840DF040F15088DC2F81FE391C3923BEC73E23A9662EFC9C229C6A00 SWAP1 DUP2 SLOAD SWAP1 PUSH1 0xFF DUP3 PUSH1 0x40 SHR AND PUSH3 0xC2 JUMPI POP PUSH1 0x1 PUSH1 0x1 PUSH1 0x40 SHL SUB PUSH1 0x2 PUSH1 0x1 PUSH1 0x40 SHL SUB NOT DUP3 DUP3 AND ADD PUSH3 0x7C JUMPI JUMPDEST PUSH1 0x40 MLOAD PUSH2 0x5EE0 SWAP1 DUP2 PUSH3 0xD6 DUP3 CODECOPY PUSH1 0x80 MLOAD DUP2 DUP2 DUP2 PUSH2 0x2F54 ADD MSTORE PUSH2 0x337F ADD MSTORE RETURN JUMPDEST PUSH1 0x1 PUSH1 0x1 PUSH1 0x40 SHL SUB NOT SWAP1 SWAP2 AND DUP2 OR SWAP1 SWAP2 SSTORE PUSH1 0x40 MLOAD SWAP1 DUP2 MSTORE PUSH32 0xC7F505B2F371AE2175EE4913F4499E1F2633A7B5936321EED1CDAEB6115181D2 SWAP1 PUSH1 0x20 SWAP1 LOG1 PUSH0 DUP1 DUP1 PUSH3 0x5C JUMP JUMPDEST PUSH4 0xF92EE8A9 PUSH1 0xE0 SHL DUP2 MSTORE PUSH1 0x4 SWAP1 REVERT JUMPDEST PUSH0 DUP1 REVERT INVALID PUSH1 0x80 PUSH1 0x40 SWAP1 DUP1 DUP3 MSTORE PUSH1 0x4 DUP1 CALLDATASIZE LT ISZERO PUSH2 0x15 JUMPI PUSH0 DUP1 REVERT JUMPDEST PUSH0 CALLDATALOAD PUSH1 0xE0 SHR SWAP2 DUP3 PUSH3 0xB0C809 EQ PUSH2 0x45D2 JUMPI POP DUP2 PUSH4 0x2BA8109 EQ PUSH2 0x43D5 JUMPI DUP2 PUSH4 0x33E822F EQ PUSH2 0x43AC JUMPI DUP2 PUSH4 0x519E2A0 EQ PUSH2 0x4386 JUMPI DUP2 PUSH4 0xA296A7B EQ PUSH2 0x4374 JUMPI DUP2 PUSH4 0xB3FFD1D EQ PUSH2 0x42B7 JUMPI DUP2 PUSH4 0x16A19718 EQ PUSH2 0x4040 JUMPI DUP2 PUSH4 0x259ED80E EQ PUSH2 0x401B JUMPI DUP2 PUSH4 0x29C9087A EQ PUSH2 0x398B JUMPI DUP2 PUSH4 0x2AB5D8F3 EQ PUSH2 0x3962 JUMPI DUP2 PUSH4 0x30D7265C EQ PUSH2 0x388E JUMPI DUP2 PUSH4 0x33105592 EQ PUSH2 0x3851 JUMPI DUP2 PUSH4 0x3BEFA410 EQ PUSH2 0x3836 JUMPI DUP2 PUSH4 0x41A51BAA EQ PUSH2 0x380D JUMPI DUP2 PUSH4 0x422A5BB8 EQ PUSH2 0x37D9 JUMPI DUP2 PUSH4 0x43E19704 EQ PUSH2 0x3787 JUMPI DUP2 PUSH4 0x45ECD02F EQ PUSH2 0x3767 JUMPI DUP2 PUSH4 0x49DF7208 EQ PUSH2 0x3627 JUMPI DUP2 PUSH4 0x4D3C4A7C EQ PUSH2 0x352C JUMPI DUP2 PUSH4 0x4F1EF286 EQ PUSH2 0x332F JUMPI DUP2 PUSH4 0x51EED472 EQ PUSH2 0x2FB8 JUMPI DUP2 PUSH4 0x52D1902D EQ PUSH2 0x2F41 JUMPI DUP2 PUSH4 0x557EE54F EQ PUSH2 0x2EA5 JUMPI DUP2 PUSH4 0x55816079 EQ PUSH2 0x2E75 JUMPI DUP2 PUSH4 0x562C788E EQ PUSH2 0x9F7 JUMPI DUP2 PUSH4 0x64F639D4 EQ PUSH2 0x2E5A JUMPI DUP2 PUSH4 0x68309C89 EQ PUSH2 0x2E2A JUMPI DUP2 PUSH4 0x69AC2022 EQ PUSH2 0x2C37 JUMPI DUP2 PUSH4 0x6B4BED97 EQ PUSH2 0x66B JUMPI DUP2 PUSH4 0x6FEE32FA EQ PUSH2 0x2B74 JUMPI DUP2 PUSH4 0x726D5447 EQ PUSH2 0x2854 JUMPI DUP2 PUSH4 0x73C19C8D EQ PUSH2 0x2757 JUMPI DUP2 PUSH4 0x75829DEF EQ PUSH2 0x26D9 JUMPI DUP2 PUSH4 0x78AD8F5B EQ PUSH2 0x2635 JUMPI DUP2 PUSH4 0x7B657D07 EQ PUSH2 0x25F8 JUMPI DUP2 PUSH4 0x8129FC1C EQ PUSH2 0x24DB JUMPI DUP2 PUSH4 0x8776CD35 EQ PUSH2 0x24AB JUMPI DUP2 PUSH4 0x8806E591 EQ PUSH2 0x2482 JUMPI DUP2 PUSH4 0x89B08F11 EQ PUSH2 0x243D JUMPI DUP2 PUSH4 0x8DB7EDB4 EQ PUSH2 0x23EE JUMPI DUP2 PUSH4 0x93CCFBA8 EQ PUSH2 0x23BE JUMPI DUP2 PUSH4 0x9443CD80 EQ PUSH2 0x2378 JUMPI DUP2 PUSH4 0x96207E02 EQ PUSH2 0x2234 JUMPI DUP2 PUSH4 0x96A03F8D EQ PUSH2 0x2204 JUMPI DUP2 PUSH4 0x9915B91F EQ PUSH2 0x218C JUMPI DUP2 PUSH4 0x9BE572F6 EQ PUSH2 0x1E66 JUMPI DUP2 PUSH4 0xAADDC345 EQ PUSH2 0x2160 JUMPI DUP2 PUSH4 0xAB48384A EQ PUSH2 0x205B JUMPI DUP2 PUSH4 0xAD3CB1CC EQ PUSH2 0x2017 JUMPI DUP2 PUSH4 0xB8CAB84B EQ PUSH2 0x1F39 JUMPI DUP2 PUSH4 0xBB0F86D5 EQ PUSH2 0x1E82 JUMPI DUP2 PUSH4 0xBFF1F9E1 EQ PUSH2 0x1E66 JUMPI DUP2 PUSH4 0xC36DC9EF EQ PUSH2 0x1E3D JUMPI DUP2 PUSH4 0xC497D840 EQ PUSH2 0x1E0E JUMPI DUP2 PUSH4 0xC7155823 EQ PUSH2 0x1D92 JUMPI DUP2 PUSH4 0xC88C35FE EQ PUSH2 0x1D6C JUMPI DUP2 PUSH4 0xC979C9BF EQ PUSH2 0x1ADD JUMPI DUP2 PUSH4 0xCB261A03 EQ PUSH2 0x1AAF JUMPI DUP2 PUSH4 0xCDA06C6E EQ PUSH2 0x1A88 JUMPI DUP2 PUSH4 0xD12A7768 EQ PUSH2 0x19D9 JUMPI DUP2 PUSH4 0xD1F616DD EQ PUSH2 0x19B0 JUMPI DUP2 PUSH4 0xD547741F EQ PUSH2 0x14F4 JUMPI DUP2 PUSH4 0xDB54F7B7 EQ PUSH2 0x12D1 JUMPI DUP2 PUSH4 0xDC9F9664 EQ PUSH2 0x10C1 JUMPI DUP2 PUSH4 0xDDE492EA EQ PUSH2 0xCB1 JUMPI DUP2 PUSH4 0xDFF1BEA0 EQ PUSH2 0xC76 JUMPI DUP2 PUSH4 0xE6EFCD5D EQ PUSH2 0xA1F JUMPI DUP2 PUSH4 0xE94ED257 EQ PUSH2 0x9F7 JUMPI DUP2 PUSH4 0xF12B9AD3 EQ PUSH2 0x69A JUMPI DUP2 PUSH4 0xF29E007B EQ PUSH2 0x66B JUMPI DUP2 PUSH4 0xF32B10F0 EQ PUSH2 0x63B JUMPI DUP2 PUSH4 0xF50936C9 EQ PUSH2 0x5FB JUMPI DUP2 PUSH4 0xF76794F1 EQ PUSH2 0x403 JUMPI POP DUP1 PUSH4 0xF851A440 EQ PUSH2 0x3DC JUMPI DUP1 PUSH4 0xFC78F177 EQ PUSH2 0x3A4 JUMPI PUSH4 0xFDD9887E EQ PUSH2 0x363 JUMPI PUSH0 DUP1 REVERT JUMPDEST CALLVALUE PUSH2 0x3A0 JUMPI PUSH2 0x371 CALLDATASIZE PUSH2 0x4877 JUMP JUMPDEST SWAP2 SWAP1 PUSH0 MSTORE PUSH1 0xD PUSH1 0x20 MSTORE DUP1 PUSH0 KECCAK256 DUP1 SLOAD DUP4 LT ISZERO PUSH2 0x3A0 JUMPI PUSH1 0x20 SWAP3 PUSH2 0x392 SWAP2 PUSH2 0x4A44 JUMP JUMPDEST SWAP2 SWAP1 SLOAD SWAP1 MLOAD SWAP2 PUSH1 0x3 SHL SHR DUP2 MSTORE RETURN JUMPDEST PUSH0 DUP1 REVERT JUMPDEST POP CALLVALUE PUSH2 0x3A0 JUMPI PUSH1 0x20 SWAP1 PUSH2 0x3B6 CALLDATASIZE PUSH2 0x4877 JUMP JUMPDEST SWAP1 PUSH0 MSTORE PUSH1 0x10 DUP4 MSTORE DUP2 PUSH0 KECCAK256 SWAP1 PUSH0 MSTORE DUP3 MSTORE PUSH1 0xFF DUP2 PUSH0 KECCAK256 SLOAD AND SWAP1 MLOAD SWAP1 PUSH2 0x3D8 DUP2 PUSH2 0x488D JUMP JUMPDEST DUP2 MSTORE RETURN JUMPDEST POP CALLVALUE PUSH2 0x3A0 JUMPI PUSH0 CALLDATASIZE PUSH1 0x3 NOT ADD SLT PUSH2 0x3A0 JUMPI PUSH0 SLOAD SWAP1 MLOAD PUSH1 0x1 PUSH1 0x1 PUSH1 0xA0 SHL SUB SWAP1 SWAP2 AND DUP2 MSTORE PUSH1 0x20 SWAP1 RETURN JUMPDEST DUP3 CALLVALUE PUSH2 0x3A0 JUMPI PUSH1 0x20 SWAP2 DUP3 PUSH1 0x3 NOT CALLDATASIZE ADD SLT PUSH2 0x3A0 JUMPI DUP1 CALLDATALOAD SWAP3 PUSH2 0x42B PUSH2 0x426 CALLER PUSH2 0x5337 JUMP JUMPDEST PUSH2 0x4A9A JUMP JUMPDEST CALLER PUSH0 MSTORE PUSH1 0x1 SWAP4 DUP5 DUP3 MSTORE DUP4 PUSH0 KECCAK256 SLOAD SWAP3 DUP2 PUSH0 MSTORE PUSH1 0xC DUP4 MSTORE DUP5 PUSH0 KECCAK256 DUP5 PUSH0 MSTORE DUP4 MSTORE DUP5 PUSH0 KECCAK256 SWAP1 DUP2 SLOAD SWAP2 PUSH1 0xFF SWAP2 DUP9 PUSH1 0xFF DUP6 AND PUSH2 0x460 DUP2 PUSH2 0x4A6D JUMP JUMPDEST SUB PUSH2 0x5B8 JUMPI PUSH1 0xFF NOT DUP1 SWAP5 AND OR SWAP1 SSTORE DUP5 DUP4 PUSH32 0xC1F9BDA0602B12C2F11218F87531038A6957666101C4FAAD39C882DCC5093DC6 DUP7 DUP10 MLOAD TIMESTAMP DUP2 MSTORE LOG3 DUP3 PUSH0 MSTORE PUSH1 0xE DUP5 MSTORE DUP6 PUSH0 KECCAK256 DUP6 PUSH0 MSTORE DUP5 MSTORE DUP6 PUSH0 KECCAK256 DUP8 PUSH0 SWAP1 JUMPDEST PUSH2 0x4D0 JUMPI JUMPDEST PUSH2 0x4CE DUP9 DUP9 DUP9 DUP9 PUSH0 MSTORE PUSH1 0xE DUP2 MSTORE DUP3 PUSH0 KECCAK256 SWAP2 PUSH0 MSTORE MSTORE PUSH0 KECCAK256 PUSH2 0x51FC JUMP JUMPDEST STOP JUMPDEST DUP2 SLOAD DUP2 LT ISZERO PUSH2 0x5B3 JUMPI SWAP1 DUP9 DUP3 DUP9 DUP11 PUSH2 0x4EB DUP5 SWAP9 SWAP8 SWAP7 DUP7 PUSH2 0x4A44 JUMP JUMPDEST SWAP1 SLOAD SWAP1 PUSH1 0x3 SHL SHR DUP10 PUSH0 MSTORE PUSH1 0xF DUP12 MSTORE DUP2 PUSH0 KECCAK256 DUP4 PUSH0 MSTORE DUP12 MSTORE DUP2 PUSH0 KECCAK256 DUP2 PUSH0 MSTORE DUP12 MSTORE DUP2 PUSH0 KECCAK256 DUP9 DUP2 SLOAD AND SWAP1 SSTORE PUSH2 0x51C DUP4 DUP3 PUSH2 0x5426 JUMP JUMPDEST PUSH0 MSTORE DUP11 PUSH1 0x5 DUP1 DUP3 MSTORE DUP9 DUP8 DUP6 PUSH0 KECCAK256 ADD SLOAD AND ISZERO PUSH2 0x5A9 JUMPI DUP5 SWAP4 PUSH1 0xB PUSH0 DUP1 MLOAD PUSH1 0x20 PUSH2 0x5E6B DUP4 CODECOPY DUP2 MLOAD SWAP2 MSTORE SWAP4 PUSH2 0x54E DUP8 DUP8 PUSH2 0x5426 JUMP JUMPDEST SWAP4 DUP5 PUSH0 MSTORE DUP1 DUP3 MSTORE PUSH2 0x560 DUP5 PUSH0 KECCAK256 PUSH2 0x4925 JUMP JUMPDEST SWAP5 PUSH2 0x56C DUP7 DUP11 DUP11 PUSH2 0x545A JUMP JUMPDEST PUSH0 MSTORE DUP2 MSTORE DUP10 DUP4 PUSH0 KECCAK256 ADD DUP14 DUP2 SLOAD AND SWAP1 SSTORE MSTORE PUSH0 DUP2 DUP2 KECCAK256 SSTORE DUP14 PUSH2 0x595 DUP3 MLOAD SWAP4 DUP4 DUP6 SWAP5 DUP6 MSTORE DUP5 ADD SWAP1 PUSH2 0x49C7 JUMP JUMPDEST SWAP1 TIMESTAMP SWAP1 DUP4 ADD MSTORE SUB SWAP1 LOG4 JUMPDEST ADD SWAP1 SWAP2 SWAP3 SWAP4 PUSH2 0x4AE JUMP JUMPDEST POP POP POP POP POP PUSH2 0x59F JUMP JUMPDEST PUSH2 0x4B3 JUMP JUMPDEST DUP8 MLOAD PUSH3 0x461BCD PUSH1 0xE5 SHL DUP2 MSTORE SWAP1 DUP2 ADD DUP7 SWAP1 MSTORE PUSH1 0x1E PUSH1 0x24 DUP3 ADD MSTORE PUSH32 0x4E6F2070656E64696E672070726F706F73616C20746F206465636C696E650000 PUSH1 0x44 DUP3 ADD MSTORE PUSH1 0x64 SWAP1 REVERT JUMPDEST DUP3 CALLVALUE PUSH2 0x3A0 JUMPI PUSH1 0x20 CALLDATASIZE PUSH1 0x3 NOT ADD SLT PUSH2 0x3A0 JUMPI PUSH2 0x637 SWAP2 CALLDATALOAD PUSH0 MSTORE PUSH1 0x12 PUSH1 0x20 MSTORE PUSH2 0x624 DUP2 PUSH0 KECCAK256 PUSH2 0x4B6D JUMP JUMPDEST SWAP1 MLOAD SWAP2 DUP3 SWAP2 PUSH1 0x20 DUP4 MSTORE PUSH1 0x20 DUP4 ADD SWAP1 PUSH2 0x4844 JUMP JUMPDEST SUB SWAP1 RETURN JUMPDEST DUP3 CALLVALUE PUSH2 0x3A0 JUMPI PUSH2 0x64A CALLDATASIZE PUSH2 0x4877 JUMP JUMPDEST SWAP2 SWAP1 PUSH0 MSTORE PUSH1 0x8 PUSH1 0x20 MSTORE DUP1 PUSH0 KECCAK256 DUP1 SLOAD DUP4 LT ISZERO PUSH2 0x3A0 JUMPI PUSH1 0x20 SWAP3 PUSH2 0x392 SWAP2 PUSH2 0x4A44 JUMP JUMPDEST DUP3 CALLVALUE PUSH2 0x3A0 JUMPI PUSH1 0x20 CALLDATASIZE PUSH1 0x3 NOT ADD SLT PUSH2 0x3A0 JUMPI PUSH1 0x20 SWAP2 CALLDATALOAD PUSH0 MSTORE PUSH1 0x2 DUP3 MSTORE PUSH1 0xFF DUP2 PUSH0 KECCAK256 SLOAD AND SWAP1 MLOAD SWAP1 PUSH2 0x3D8 DUP2 PUSH2 0x4A6D JUMP JUMPDEST DUP3 CALLVALUE PUSH2 0x3A0 JUMPI DUP1 PUSH1 0x3 NOT CALLDATASIZE ADD SLT PUSH2 0x3A0 JUMPI DUP2 CALLDATALOAD PUSH1 0x1 PUSH1 0x1 PUSH1 0x40 SHL SUB DUP2 GT PUSH2 0x3A0 JUMPI PUSH2 0x6C8 SWAP1 CALLDATASIZE SWAP1 DUP5 ADD PUSH2 0x46B4 JUMP JUMPDEST SWAP2 PUSH2 0x6D1 PUSH2 0x461C JUMP JUMPDEST PUSH2 0x6DD PUSH2 0x426 CALLER PUSH2 0x5337 JUMP JUMPDEST PUSH1 0x1 PUSH1 0x1 PUSH1 0xA0 SHL SUB AND SWAP1 DUP2 ISZERO PUSH2 0x9C3 JUMPI POP CALLER PUSH0 MSTORE PUSH1 0x1 SWAP3 PUSH1 0x20 PUSH1 0x1 DUP2 MSTORE DUP4 PUSH0 KECCAK256 SLOAD SWAP3 PUSH0 MSTORE DUP4 PUSH0 KECCAK256 SLOAD SWAP2 PUSH2 0x711 DUP4 ISZERO ISZERO PUSH2 0x4B21 JUMP JUMPDEST DUP6 PUSH0 SWAP6 DUP5 DUP7 EQ ISZERO SWAP2 JUMPDEST PUSH2 0x720 JUMPI STOP JUMPDEST DUP3 MLOAD DUP8 LT ISZERO PUSH2 0x4CE JUMPI DUP8 DUP8 PUSH2 0x740 DUP8 PUSH2 0x73A DUP5 SWAP12 DUP9 PUSH2 0x516D JUMP JUMPDEST MLOAD PUSH2 0x587E JUMP JUMPDEST ISZERO PUSH2 0x9BE JUMPI DUP8 DUP8 PUSH2 0x75B DUP2 PUSH2 0x755 DUP6 DUP11 PUSH2 0x516D JUMP JUMPDEST MLOAD PUSH2 0x5426 JUMP JUMPDEST DUP1 PUSH0 MSTORE PUSH1 0x5 DUP1 DUP11 MSTORE PUSH2 0x76E DUP8 PUSH0 KECCAK256 PUSH2 0x4925 JUMP JUMPDEST SWAP2 DUP6 DUP12 DUP11 DUP13 DUP7 MLOAD DUP4 DUP9 ADD KECCAK256 PUSH2 0x781 PUSH2 0x4CD5 JUMP JUMPDEST DUP5 DUP2 MLOAD SWAP2 ADD KECCAK256 DUP2 EQ PUSH2 0x9AF JUMPI PUSH2 0x7A1 DUP10 PUSH2 0x79B DUP8 DUP6 PUSH2 0x516D JUMP JUMPDEST MLOAD PUSH2 0x557D JUMP JUMPDEST PUSH2 0x9AF JUMPI DUP8 SWAP4 DUP10 SWAP4 PUSH2 0x885 JUMPI JUMPDEST PUSH2 0x7B6 PUSH2 0x4E5F JUMP JUMPDEST DUP1 MLOAD SWAP2 ADD KECCAK256 EQ PUSH2 0x82C JUMPI JUMPDEST PUSH2 0x7D4 SWAP4 PUSH2 0x7CE SWAP2 PUSH2 0x516D JUMP JUMPDEST MLOAD PUSH2 0x545A JUMP JUMPDEST PUSH0 MSTORE DUP10 MSTORE DUP5 DUP7 PUSH0 KECCAK256 ADD PUSH1 0xFF NOT DUP2 SLOAD AND SWAP1 SSTORE PUSH1 0xB DUP10 MSTORE PUSH0 DUP7 DUP2 KECCAK256 SSTORE PUSH0 DUP1 MLOAD PUSH1 0x20 PUSH2 0x5E6B DUP4 CODECOPY DUP2 MLOAD SWAP2 MSTORE PUSH2 0x81C PUSH2 0x809 DUP7 DUP12 PUSH2 0x516D JUMP JUMPDEST MLOAD SWAP3 DUP9 MLOAD SWAP2 DUP3 SWAP2 DUP11 DUP4 MSTORE DUP11 DUP4 ADD SWAP1 PUSH2 0x49C7 JUMP JUMPDEST TIMESTAMP DUP14 DUP4 ADD MSTORE SUB SWAP1 LOG4 JUMPDEST ADD SWAP7 PUSH2 0x71A JUMP JUMPDEST SWAP1 POP PUSH2 0x839 SWAP3 SWAP2 POP PUSH2 0x516D JUMP JUMPDEST MLOAD PUSH0 MSTORE PUSH1 0x6 DUP12 MSTORE DUP6 DUP11 DUP10 PUSH0 KECCAK256 SLOAD ISZERO DUP1 PUSH2 0x865 JUMPI JUMPDEST PUSH2 0x859 JUMPI DUP6 DUP6 SWAP2 PUSH2 0x7C1 JUMP JUMPDEST POP POP POP POP POP POP POP PUSH2 0x825 JUMP JUMPDEST POP SWAP1 PUSH2 0x870 SWAP2 PUSH2 0x516D JUMP JUMPDEST MLOAD PUSH0 MSTORE PUSH1 0x7 DUP12 MSTORE DUP6 DUP11 DUP9 DUP11 PUSH0 KECCAK256 SLOAD GT ISZERO PUSH2 0x84D JUMP JUMPDEST SWAP3 POP SWAP3 POP DUP12 PUSH2 0x8A7 PUSH2 0x897 DUP7 DUP5 PUSH2 0x516D JUMP JUMPDEST MLOAD DUP12 PUSH2 0x8A1 PUSH2 0x4CD5 JUMP JUMPDEST SWAP2 PUSH2 0x53C8 JUMP JUMPDEST DUP11 PUSH2 0x8BF PUSH2 0x8B5 DUP9 DUP7 PUSH2 0x516D JUMP JUMPDEST MLOAD DUP3 PUSH2 0x8A1 PUSH2 0x4E5F JUMP JUMPDEST SWAP3 DUP11 DUP13 PUSH2 0x8CA PUSH2 0x4D38 JUMP JUMPDEST DUP9 DUP2 MLOAD SWAP2 ADD KECCAK256 DUP10 EQ DUP1 ISZERO PUSH2 0x999 JUMPI JUMPDEST ISZERO PUSH2 0x929 JUMPI POP POP DUP9 PUSH0 MSTORE PUSH1 0xB DUP7 MSTORE PUSH0 KECCAK256 SLOAD EQ SWAP1 ISZERO SWAP2 DUP3 PUSH2 0x920 JUMPI JUMPDEST POP DUP2 PUSH2 0x917 JUMPI JUMPDEST POP PUSH2 0x909 JUMPI DUP7 SWAP3 DUP9 SWAP3 PUSH2 0x7AE JUMP JUMPDEST POP POP POP POP POP POP POP POP POP PUSH2 0x825 JUMP JUMPDEST SWAP1 POP ISZERO PUSH0 PUSH2 0x8FB JUMP JUMPDEST ISZERO SWAP2 POP PUSH0 PUSH2 0x8F4 JUMP JUMPDEST SWAP7 SWAP4 SWAP3 POP SWAP7 SWAP4 SWAP1 POP PUSH2 0x939 PUSH2 0x4E5F JUMP JUMPDEST DUP4 DUP2 MLOAD SWAP2 ADD KECCAK256 DUP5 EQ PUSH2 0x94D JUMPI JUMPDEST POP POP PUSH2 0x7AE JUMP JUMPDEST SWAP2 SWAP5 POP SWAP2 SWAP5 POP PUSH2 0x95D DUP7 DUP5 PUSH2 0x516D JUMP JUMPDEST MLOAD PUSH0 SWAP1 DUP2 MSTORE PUSH1 0x6 DUP6 MSTORE DUP15 SWAP1 KECCAK256 SLOAD ISZERO PUSH2 0x981 JUMPI POP ISZERO JUMPDEST PUSH2 0x909 JUMPI DUP7 SWAP3 DUP9 SWAP3 PUSH0 DUP1 PUSH2 0x946 JUMP JUMPDEST SWAP1 ISZERO SWAP1 DUP2 PUSH2 0x990 JUMPI JUMPDEST POP PUSH2 0x972 JUMP JUMPDEST SWAP1 POP ISZERO PUSH0 PUSH2 0x98A JUMP JUMPDEST POP PUSH2 0x9A2 PUSH2 0x4E88 JUMP JUMPDEST DUP9 DUP2 MLOAD SWAP2 ADD KECCAK256 DUP10 EQ PUSH2 0x8D9 JUMP JUMPDEST POP POP POP POP POP POP POP POP POP POP PUSH2 0x825 JUMP JUMPDEST PUSH2 0x825 JUMP JUMPDEST PUSH1 0x64 SWAP1 PUSH1 0x20 DUP5 MLOAD SWAP2 PUSH3 0x461BCD PUSH1 0xE5 SHL DUP4 MSTORE DUP3 ADD MSTORE PUSH1 0xE PUSH1 0x24 DUP3 ADD MSTORE PUSH14 0x125B9D985B1A59081DD85B1B195D PUSH1 0x92 SHL PUSH1 0x44 DUP3 ADD MSTORE REVERT JUMPDEST DUP3 CALLVALUE PUSH2 0x3A0 JUMPI PUSH0 CALLDATASIZE PUSH1 0x3 NOT ADD SLT PUSH2 0x3A0 JUMPI PUSH1 0xA SLOAD SWAP1 MLOAD PUSH1 0x1 PUSH1 0x1 PUSH1 0xA0 SHL SUB SWAP1 SWAP2 AND DUP2 MSTORE PUSH1 0x20 SWAP1 RETURN JUMPDEST DUP3 CALLVALUE PUSH2 0x3A0 JUMPI PUSH2 0xA2E CALLDATASIZE PUSH2 0x4877 JUMP JUMPDEST SWAP2 PUSH2 0xA43 PUSH1 0x1 DUP1 PUSH1 0xA0 SHL SUB PUSH0 SLOAD AND CALLER EQ PUSH2 0x4C0C JUMP JUMPDEST DUP2 ISZERO PUSH2 0xC42 JUMPI PUSH2 0xA54 DUP4 ISZERO ISZERO PUSH2 0x5268 JUMP JUMPDEST PUSH2 0xA60 DUP4 DUP4 EQ ISZERO PUSH2 0x52A6 JUMP JUMPDEST DUP2 PUSH0 MSTORE PUSH1 0x2 PUSH1 0x20 DUP2 DUP2 MSTORE PUSH1 0xFF DUP4 PUSH0 KECCAK256 SLOAD AND PUSH2 0xA7A DUP2 PUSH2 0x4A6D JUMP JUMPDEST ISZERO PUSH2 0xC07 JUMPI DUP5 PUSH0 MSTORE DUP2 DUP2 MSTORE PUSH2 0xA9F PUSH1 0xFF DUP5 PUSH0 KECCAK256 SLOAD AND PUSH2 0xA98 DUP2 PUSH2 0x4A6D JUMP JUMPDEST ISZERO ISZERO PUSH2 0x52F2 JUMP JUMPDEST DUP4 PUSH0 MSTORE PUSH1 0xC DUP2 MSTORE DUP3 PUSH0 KECCAK256 DUP6 PUSH0 MSTORE DUP2 MSTORE PUSH1 0xFF DUP4 PUSH0 KECCAK256 SLOAD AND SWAP6 PUSH2 0xABF DUP8 PUSH2 0x4A6D JUMP JUMPDEST DUP7 ISZERO SWAP1 DUP2 DUP1 ISZERO PUSH2 0xBF4 JUMPI JUMPDEST ISZERO PUSH2 0xBA2 JUMPI POP PUSH2 0xAFC PUSH32 0xC5B2E1BD4433EB4E9E181CC803520513D39D918C96BDDEEBCA1224E1C750963D SWAP6 SWAP7 SWAP8 PUSH2 0x4A6D JUMP JUMPDEST PUSH2 0xB8A JUMPI JUMPDEST PUSH2 0xB4E DUP4 MLOAD PUSH2 0xB0F DUP2 PUSH2 0x4632 JUMP JUMPDEST DUP4 DUP2 MSTORE DUP3 DUP2 ADD DUP5 DUP2 MSTORE DUP8 PUSH0 MSTORE PUSH1 0xC DUP5 MSTORE DUP6 PUSH0 KECCAK256 DUP10 PUSH0 MSTORE DUP5 MSTORE PUSH2 0xB3E DUP7 PUSH0 KECCAK256 SWAP3 MLOAD PUSH2 0xB38 DUP2 PUSH2 0x4A6D JUMP JUMPDEST DUP4 PUSH2 0x50A1 JUMP JUMPDEST MLOAD SWAP1 PUSH2 0xB49 DUP3 PUSH2 0x488D JUMP JUMPDEST PUSH2 0x5127 JUMP JUMPDEST DUP6 DUP6 PUSH32 0x494D010FDF588A0E83D626EA6963187BDDA6F88B7007F7BF280683D3F7DEA834 DUP6 DUP1 MLOAD DUP7 DUP2 MSTORE TIMESTAMP DUP7 DUP3 ADD MSTORE LOG3 DUP3 MLOAD SWAP2 DUP3 MSTORE TIMESTAMP SWAP1 DUP3 ADD MSTORE LOG3 STOP JUMPDEST DUP5 PUSH0 MSTORE PUSH1 0xD DUP2 MSTORE PUSH2 0xB9D DUP7 DUP5 PUSH0 KECCAK256 PUSH2 0x522C JUMP JUMPDEST PUSH2 0xB01 JUMP JUMPDEST DUP5 MLOAD PUSH3 0x461BCD PUSH1 0xE5 SHL DUP2 MSTORE SWAP1 DUP2 ADD DUP4 SWAP1 MSTORE PUSH1 0x26 PUSH1 0x24 DUP3 ADD MSTORE PUSH32 0x52656C6174696F6E7368697020616C726561647920616374697665206F722070 PUSH1 0x44 DUP3 ADD MSTORE PUSH6 0x656E64696E67 PUSH1 0xD0 SHL PUSH1 0x64 DUP3 ADD MSTORE PUSH1 0x84 SWAP1 REVERT JUMPDEST POP PUSH2 0xBFE DUP9 PUSH2 0x4A6D JUMP JUMPDEST PUSH1 0x3 DUP9 EQ PUSH2 0xACA JUMP JUMPDEST DUP6 PUSH1 0x64 SWAP2 DUP5 MLOAD SWAP2 PUSH3 0x461BCD PUSH1 0xE5 SHL DUP4 MSTORE DUP3 ADD MSTORE PUSH1 0x16 PUSH1 0x24 DUP3 ADD MSTORE PUSH22 0x151C9D5CDD1BDC881B9BDD081C9959DA5CDD195C9959 PUSH1 0x52 SHL PUSH1 0x44 DUP3 ADD MSTORE REVERT JUMPDEST MLOAD PUSH3 0x461BCD PUSH1 0xE5 SHL DUP2 MSTORE PUSH1 0x20 DUP2 DUP6 ADD MSTORE PUSH1 0xF PUSH1 0x24 DUP3 ADD MSTORE PUSH15 0x24B73B30B634B2103A393AB9BA37B9 PUSH1 0x89 SHL PUSH1 0x44 DUP3 ADD MSTORE PUSH1 0x64 SWAP1 REVERT JUMPDEST DUP3 CALLVALUE PUSH2 0x3A0 JUMPI PUSH1 0x20 SWAP1 PUSH2 0xC88 CALLDATASIZE PUSH2 0x4877 JUMP JUMPDEST SWAP1 PUSH0 MSTORE PUSH1 0x10 DUP4 MSTORE DUP2 PUSH0 KECCAK256 SWAP1 PUSH0 MSTORE DUP3 MSTORE PUSH1 0x1 PUSH1 0xFF DUP3 PUSH0 KECCAK256 SLOAD AND SWAP2 PUSH2 0xCAA DUP4 PUSH2 0x488D JUMP JUMPDEST MLOAD SWAP2 EQ DUP2 MSTORE RETURN JUMPDEST SWAP1 POP CALLVALUE PUSH2 0x3A0 JUMPI PUSH2 0xCC1 CALLDATASIZE PUSH2 0x48AB JUMP JUMPDEST SWAP2 SWAP3 SWAP1 PUSH2 0xCD0 PUSH2 0x426 CALLER PUSH2 0x5337 JUMP JUMPDEST PUSH2 0xCDB DUP5 ISZERO ISZERO PUSH2 0x4C89 JUMP JUMPDEST PUSH1 0x1 PUSH1 0x1 PUSH1 0xA0 SHL SUB AND SWAP3 PUSH2 0xCF0 DUP5 ISZERO ISZERO PUSH2 0x4DBB JUMP JUMPDEST PUSH2 0xD01 PUSH2 0xCFC DUP5 PUSH2 0x5505 JUMP JUMPDEST PUSH2 0x4CF6 JUMP JUMPDEST CALLER PUSH0 MSTORE PUSH1 0x20 SWAP2 PUSH1 0x1 DUP4 MSTORE DUP6 PUSH0 KECCAK256 SLOAD SWAP5 PUSH0 MSTORE DUP6 PUSH0 KECCAK256 SLOAD SWAP3 PUSH2 0xD22 DUP5 ISZERO ISZERO PUSH2 0x4B21 JUMP JUMPDEST DUP5 MLOAD DUP2 DUP7 ADD KECCAK256 PUSH2 0xD32 DUP8 DUP6 PUSH2 0x5426 JUMP JUMPDEST PUSH0 MSTORE PUSH1 0x5 DUP3 MSTORE PUSH1 0xFF PUSH1 0x1 DUP10 PUSH0 KECCAK256 ADD SLOAD AND ISZERO PUSH2 0x1080 JUMPI DUP4 PUSH0 MSTORE PUSH1 0x6 DUP3 MSTORE DUP8 PUSH0 KECCAK256 SLOAD ISZERO ISZERO SWAP1 PUSH2 0xD67 PUSH2 0xD60 PUSH2 0x4CD5 JUMP JUMPDEST DUP10 DUP8 PUSH2 0x53C8 JUMP JUMPDEST SWAP2 PUSH2 0xD7A PUSH2 0xD73 PUSH2 0x4E5F JUMP JUMPDEST DUP11 DUP9 PUSH2 0x53C8 JUMP JUMPDEST SWAP2 PUSH2 0xD8D PUSH2 0xD86 PUSH2 0x4E88 JUMP JUMPDEST DUP12 DUP10 PUSH2 0x53C8 JUMP JUMPDEST SWAP1 PUSH2 0xD96 PUSH2 0x4CD5 JUMP JUMPDEST DUP1 MLOAD SWAP1 DUP8 ADD KECCAK256 DUP2 SUB PUSH2 0xED4 JUMPI POP POP ISZERO PUSH2 0xE7A JUMPI POP ISZERO PUSH2 0xE38 JUMPI JUMPDEST PUSH2 0xDBA DUP5 DUP5 PUSH2 0x5426 JUMP JUMPDEST PUSH0 MSTORE PUSH1 0x5 DUP2 MSTORE PUSH1 0xFF PUSH1 0x1 DUP9 PUSH0 KECCAK256 ADD SLOAD AND PUSH2 0xDDA JUMPI POP POP PUSH2 0x4CE SWAP5 POP PUSH2 0x5982 JUMP JUMPDEST DUP7 MLOAD PUSH3 0x461BCD PUSH1 0xE5 SHL DUP2 MSTORE SWAP2 DUP3 ADD MSTORE PUSH1 0x33 PUSH1 0x24 DUP3 ADD MSTORE PUSH32 0x54617267657420616C726561647920686173206120726F6C652E205573652063 PUSH1 0x44 DUP3 ADD MSTORE PUSH19 0x1A185B99D9549BDB194A0A481A5B9CDD195859 PUSH1 0x6A SHL PUSH1 0x64 DUP3 ADD MSTORE PUSH1 0x84 SWAP2 POP REVERT JUMPDEST DUP7 MLOAD PUSH3 0x461BCD PUSH1 0xE5 SHL DUP2 MSTORE SWAP2 DUP3 ADD DUP2 SWAP1 MSTORE PUSH1 0x24 DUP3 ADD MSTORE PUSH32 0x4F6E6C79206F776E6572732063616E206772616E74206F776E657220726F6C65 PUSH1 0x44 DUP3 ADD MSTORE PUSH1 0x64 SWAP2 POP REVERT JUMPDEST SWAP1 POP PUSH2 0xDB0 JUMPI DUP7 MLOAD PUSH3 0x461BCD PUSH1 0xE5 SHL DUP2 MSTORE SWAP2 DUP3 ADD MSTORE PUSH1 0x29 PUSH1 0x24 DUP3 ADD MSTORE PUSH32 0x4F6E6C792061646D696E6973747261746F72732063616E206772616E74206669 PUSH1 0x44 DUP3 ADD MSTORE PUSH9 0x3939BA1037BBB732B9 PUSH1 0xB9 SHL PUSH1 0x64 DUP3 ADD MSTORE PUSH1 0x84 SWAP2 POP REVERT JUMPDEST SWAP1 SWAP3 SWAP2 POP PUSH2 0xEE0 PUSH2 0x4E5F JUMP JUMPDEST DUP1 MLOAD SWAP1 DUP7 ADD KECCAK256 DUP2 SUB PUSH2 0xF58 JUMPI POP SWAP1 POP DUP2 ISZERO PUSH2 0xF50 JUMPI JUMPDEST POP PUSH2 0xDB0 JUMPI DUP7 MLOAD PUSH3 0x461BCD PUSH1 0xE5 SHL DUP2 MSTORE SWAP2 DUP3 ADD MSTORE PUSH1 0x3B PUSH1 0x24 DUP3 ADD MSTORE PUSH0 DUP1 MLOAD PUSH1 0x20 PUSH2 0x5E8B DUP4 CODECOPY DUP2 MLOAD SWAP2 MSTORE PUSH1 0x44 DUP3 ADD MSTORE PUSH32 0x616E206772616E742061646D696E6973747261746F7220726F6C650000000000 PUSH1 0x64 DUP3 ADD MSTORE PUSH1 0x84 SWAP2 POP REVERT JUMPDEST SWAP1 POP PUSH0 PUSH2 0xEF6 JUMP JUMPDEST PUSH2 0xF60 PUSH2 0x4E88 JUMP JUMPDEST DUP1 MLOAD SWAP1 DUP7 ADD KECCAK256 DUP2 SUB PUSH2 0xFCF JUMPI POP SWAP1 POP DUP2 ISZERO PUSH2 0xFC7 JUMPI JUMPDEST POP PUSH2 0xDB0 JUMPI DUP7 MLOAD PUSH3 0x461BCD PUSH1 0xE5 SHL DUP2 MSTORE SWAP2 DUP3 ADD MSTORE PUSH1 0x34 PUSH1 0x24 DUP3 ADD MSTORE PUSH0 DUP1 MLOAD PUSH1 0x20 PUSH2 0x5E8B DUP4 CODECOPY DUP2 MLOAD SWAP2 MSTORE PUSH1 0x44 DUP3 ADD MSTORE PUSH20 0x616E206772616E742073686172657220726F6C65 PUSH1 0x60 SHL PUSH1 0x64 DUP3 ADD MSTORE PUSH1 0x84 SWAP2 POP REVERT JUMPDEST SWAP1 POP PUSH0 PUSH2 0xF76 JUMP JUMPDEST PUSH2 0xFD7 PUSH2 0x4D38 JUMP JUMPDEST DUP6 DUP2 MLOAD SWAP2 ADD KECCAK256 EQ PUSH2 0xFEB JUMPI JUMPDEST POP POP POP PUSH2 0xDB0 JUMP JUMPDEST DUP3 ISZERO PUSH2 0x1078 JUMPI JUMPDEST POP DUP2 ISZERO PUSH2 0x1070 JUMPI JUMPDEST POP ISZERO PUSH2 0x1008 JUMPI PUSH0 DUP1 DUP1 PUSH2 0xFE3 JUMP JUMPDEST DUP7 MLOAD PUSH3 0x461BCD PUSH1 0xE5 SHL DUP2 MSTORE SWAP2 DUP3 ADD MSTORE PUSH1 0x3E PUSH1 0x24 DUP3 ADD MSTORE PUSH32 0x4F6E6C79206F776E6572732C2061646D696E6973747261746F72732C20616E64 PUSH1 0x44 DUP3 ADD MSTORE PUSH32 0x20736861726572732063616E206772616E742076696577657220726F6C650000 PUSH1 0x64 DUP3 ADD MSTORE PUSH1 0x84 SWAP2 POP REVERT JUMPDEST SWAP1 POP PUSH0 PUSH2 0xFFA JUMP JUMPDEST SWAP2 POP PUSH0 PUSH2 0xFF2 JUMP JUMPDEST PUSH1 0x64 DUP4 DUP4 DUP1 DUP12 MLOAD SWAP3 PUSH3 0x461BCD PUSH1 0xE5 SHL DUP5 MSTORE DUP4 ADD MSTORE PUSH1 0x24 DUP3 ADD MSTORE PUSH32 0x596F752068617665206E6F20726F6C6520666F722074686973207265636F7264 PUSH1 0x44 DUP3 ADD MSTORE REVERT JUMPDEST SWAP1 POP CALLVALUE PUSH2 0x3A0 JUMPI PUSH1 0x60 CALLDATASIZE PUSH1 0x3 NOT ADD SLT PUSH2 0x3A0 JUMPI DUP1 CALLDATALOAD PUSH1 0x24 CALLDATALOAD PUSH1 0x3 DUP2 LT ISZERO PUSH2 0x3A0 JUMPI PUSH1 0x44 CALLDATALOAD PUSH1 0x1 PUSH1 0x1 PUSH1 0x40 SHL SUB DUP2 GT PUSH2 0x3A0 JUMPI PUSH2 0x1100 SWAP1 CALLDATASIZE SWAP1 DUP6 ADD PUSH2 0x46B4 JUMP JUMPDEST SWAP2 PUSH2 0x110D PUSH2 0x426 CALLER PUSH2 0x5337 JUMP JUMPDEST CALLER PUSH0 MSTORE PUSH1 0x1 SWAP4 PUSH1 0x20 PUSH1 0x1 DUP2 MSTORE DUP7 PUSH0 KECCAK256 SLOAD SWAP2 PUSH2 0x1129 DUP5 ISZERO ISZERO PUSH2 0x5268 JUMP JUMPDEST PUSH2 0x1135 DUP5 DUP5 EQ ISZERO PUSH2 0x52A6 JUMP JUMPDEST DUP4 PUSH0 MSTORE PUSH1 0x2 DUP3 MSTORE PUSH2 0x114F PUSH1 0xFF DUP10 PUSH0 KECCAK256 SLOAD AND PUSH2 0xA98 DUP2 PUSH2 0x4A6D JUMP JUMPDEST DUP3 PUSH0 MSTORE PUSH1 0xC DUP3 MSTORE DUP8 PUSH0 KECCAK256 DUP5 PUSH0 MSTORE DUP3 MSTORE PUSH1 0xFF DUP9 PUSH0 KECCAK256 SLOAD AND PUSH2 0x116E DUP2 PUSH2 0x4A6D JUMP JUMPDEST DUP1 ISZERO SWAP2 DUP3 DUP1 ISZERO PUSH2 0x12BE JUMPI JUMPDEST DUP1 ISZERO PUSH2 0x12AC JUMPI JUMPDEST ISZERO PUSH2 0x125B JUMPI POP DUP8 SWAP9 DUP6 SWAP4 DUP6 SWAP4 PUSH2 0x11B6 PUSH32 0x494D010FDF588A0E83D626EA6963187BDDA6F88B7007F7BF280683D3F7DEA834 SWAP5 PUSH2 0x4A6D JUMP JUMPDEST PUSH2 0x1243 JUMPI JUMPDEST PUSH2 0x11FC DUP3 MLOAD PUSH2 0x11C9 DUP2 PUSH2 0x4632 JUMP JUMPDEST PUSH1 0x1 DUP2 MSTORE DUP3 DUP2 ADD PUSH2 0x11D9 DUP12 PUSH2 0x488D JUMP JUMPDEST DUP11 DUP2 MSTORE DUP7 PUSH0 MSTORE PUSH1 0xC DUP5 MSTORE DUP5 PUSH0 KECCAK256 DUP9 PUSH0 MSTORE DUP5 MSTORE PUSH2 0xB3E DUP6 PUSH0 KECCAK256 SWAP3 MLOAD PUSH2 0xB38 DUP2 PUSH2 0x4A6D JUMP JUMPDEST DUP2 MLOAD SWAP1 PUSH2 0x1208 DUP10 PUSH2 0x488D JUMP JUMPDEST DUP9 DUP3 MSTORE TIMESTAMP SWAP1 DUP3 ADD MSTORE LOG3 PUSH0 SWAP5 JUMPDEST PUSH2 0x121A JUMPI STOP JUMPDEST DUP4 MLOAD DUP6 LT ISZERO PUSH2 0x4CE JUMPI DUP6 DUP6 PUSH2 0x123C DUP6 DUP6 DUP6 PUSH2 0x1236 DUP7 SWAP12 DUP12 PUSH2 0x516D JUMP JUMPDEST MLOAD PUSH2 0x56BE JUMP JUMPDEST ADD SWAP5 PUSH2 0x1214 JUMP JUMPDEST DUP4 PUSH0 MSTORE PUSH1 0xD DUP2 MSTORE PUSH2 0x1256 DUP6 DUP4 PUSH0 KECCAK256 PUSH2 0x522C JUMP JUMPDEST PUSH2 0x11BB JUMP JUMPDEST DUP10 MLOAD PUSH3 0x461BCD PUSH1 0xE5 SHL DUP2 MSTORE SWAP1 DUP2 ADD DUP5 SWAP1 MSTORE PUSH1 0x25 PUSH1 0x24 DUP3 ADD MSTORE PUSH32 0x50726F706F73616C20616C726561647920657869737473206F72206973207065 PUSH1 0x44 DUP3 ADD MSTORE PUSH5 0x6E64696E67 PUSH1 0xD8 SHL PUSH1 0x64 DUP3 ADD MSTORE PUSH1 0x84 SWAP1 REVERT JUMPDEST POP PUSH2 0x12B6 DUP3 PUSH2 0x4A6D JUMP JUMPDEST DUP1 DUP3 EQ PUSH2 0x1180 JUMP JUMPDEST POP PUSH2 0x12C8 DUP3 PUSH2 0x4A6D JUMP JUMPDEST PUSH1 0x3 DUP3 EQ PUSH2 0x1179 JUMP JUMPDEST SWAP1 POP CALLVALUE PUSH2 0x3A0 JUMPI PUSH1 0x20 DUP1 PUSH1 0x3 NOT CALLDATASIZE ADD SLT PUSH2 0x3A0 JUMPI DUP2 CALLDATALOAD SWAP3 PUSH2 0x12F4 PUSH2 0x426 CALLER PUSH2 0x5337 JUMP JUMPDEST CALLER PUSH0 MSTORE PUSH1 0x1 DUP3 MSTORE DUP1 PUSH0 KECCAK256 SLOAD SWAP3 DUP5 ISZERO PUSH2 0x14C1 JUMPI DUP5 DUP5 EQ PUSH2 0x1480 JUMPI DUP5 PUSH0 MSTORE PUSH1 0x2 DUP4 MSTORE PUSH1 0xFF DUP3 PUSH0 KECCAK256 SLOAD AND PUSH2 0x1324 DUP2 PUSH2 0x4A6D JUMP JUMPDEST DUP2 PUSH1 0x2 DUP3 EQ SWAP2 DUP3 ISZERO PUSH2 0x1468 JUMPI JUMPDEST DUP3 ISZERO PUSH2 0x1454 JUMPI JUMPDEST POP POP ISZERO PUSH2 0x1414 JUMPI DUP4 PUSH0 MSTORE PUSH1 0x10 DUP4 MSTORE DUP2 PUSH0 KECCAK256 DUP6 PUSH0 MSTORE DUP4 MSTORE PUSH1 0x1 PUSH1 0xFF DUP4 PUSH0 KECCAK256 SLOAD AND PUSH2 0x1360 DUP2 PUSH2 0x488D JUMP JUMPDEST EQ PUSH2 0x13D3 JUMPI POP SWAP1 PUSH32 0xBC7E6071D162923D46A4378AF39747CEA2CCB6F4A57F09AEFC6E92047C5BF1BE SWAP2 DUP4 PUSH0 MSTORE PUSH1 0x10 DUP3 MSTORE DUP1 PUSH0 KECCAK256 DUP6 PUSH0 MSTORE DUP3 MSTORE DUP1 PUSH0 KECCAK256 PUSH1 0x1 PUSH1 0xFF NOT DUP3 SLOAD AND OR SWAP1 SSTORE DUP4 PUSH0 MSTORE PUSH1 0x11 DUP3 MSTORE PUSH2 0x13B9 DUP6 DUP3 PUSH0 KECCAK256 PUSH2 0x522C JUMP JUMPDEST DUP5 PUSH0 MSTORE PUSH1 0x12 DUP3 MSTORE PUSH2 0x13CC DUP5 DUP3 PUSH0 KECCAK256 PUSH2 0x522C JUMP JUMPDEST MLOAD TIMESTAMP DUP2 MSTORE LOG3 STOP JUMPDEST DUP3 PUSH1 0x64 SWAP3 MLOAD SWAP2 PUSH3 0x461BCD PUSH1 0xE5 SHL DUP4 MSTORE DUP3 ADD MSTORE PUSH1 0x1E PUSH1 0x24 DUP3 ADD MSTORE PUSH32 0x416C726561647920766F756368696E6720666F72207468697320757365720000 PUSH1 0x44 DUP3 ADD MSTORE REVERT JUMPDEST DUP3 DUP1 PUSH1 0x64 SWAP4 MLOAD SWAP3 PUSH3 0x461BCD PUSH1 0xE5 SHL DUP5 MSTORE DUP4 ADD MSTORE PUSH1 0x24 DUP3 ADD MSTORE PUSH32 0x566F7563686565206D75737420626520616E20616374697665206D656D626572 PUSH1 0x44 DUP3 ADD MSTORE REVERT JUMPDEST SWAP1 SWAP2 POP PUSH2 0x1460 DUP2 PUSH2 0x4A6D JUMP JUMPDEST EQ DUP2 PUSH0 PUSH2 0x1338 JUMP JUMPDEST DUP1 SWAP3 POP PUSH2 0x1475 SWAP2 POP PUSH2 0x4A6D JUMP JUMPDEST DUP2 PUSH1 0x3 DUP3 EQ SWAP2 PUSH2 0x1331 JUMP JUMPDEST DUP3 PUSH1 0x64 SWAP3 MLOAD SWAP2 PUSH3 0x461BCD PUSH1 0xE5 SHL DUP4 MSTORE DUP3 ADD MSTORE PUSH1 0x19 PUSH1 0x24 DUP3 ADD MSTORE PUSH32 0x43616E6E6F7420766F75636820666F7220796F757273656C6600000000000000 PUSH1 0x44 DUP3 ADD MSTORE REVERT JUMPDEST DUP3 PUSH1 0x64 SWAP3 MLOAD SWAP2 PUSH3 0x461BCD PUSH1 0xE5 SHL DUP4 MSTORE DUP3 ADD MSTORE PUSH1 0xF PUSH1 0x24 DUP3 ADD MSTORE PUSH15 0x496E76616C696420766F7563686565 PUSH1 0x88 SHL PUSH1 0x44 DUP3 ADD MSTORE REVERT JUMPDEST DUP3 CALLVALUE PUSH2 0x3A0 JUMPI DUP1 PUSH1 0x3 NOT CALLDATASIZE ADD SLT PUSH2 0x3A0 JUMPI DUP2 CALLDATALOAD PUSH2 0x150F PUSH2 0x461C JUMP JUMPDEST PUSH2 0x151B PUSH2 0x426 CALLER PUSH2 0x5337 JUMP JUMPDEST PUSH2 0x1526 DUP3 ISZERO ISZERO PUSH2 0x4C89 JUMP JUMPDEST PUSH1 0x1 PUSH1 0x1 PUSH1 0xA0 SHL SUB AND SWAP3 PUSH2 0x153B DUP5 ISZERO ISZERO PUSH2 0x4DBB JUMP JUMPDEST CALLER PUSH0 MSTORE PUSH1 0x20 SWAP3 PUSH1 0x1 DUP5 MSTORE DUP1 PUSH0 KECCAK256 SLOAD SWAP5 PUSH0 MSTORE DUP1 PUSH0 KECCAK256 SLOAD SWAP4 PUSH2 0x155C DUP6 ISZERO ISZERO PUSH2 0x4B21 JUMP JUMPDEST PUSH2 0x1566 DUP6 DUP6 PUSH2 0x5426 JUMP JUMPDEST DUP1 PUSH0 MSTORE PUSH1 0x5 DUP3 MSTORE PUSH2 0x157F PUSH1 0xFF PUSH1 0x1 DUP6 PUSH0 KECCAK256 ADD SLOAD AND PUSH2 0x4E07 JUMP JUMPDEST DUP1 PUSH0 MSTORE PUSH1 0x5 DUP3 MSTORE PUSH2 0x1591 DUP4 PUSH0 KECCAK256 PUSH2 0x4925 JUMP JUMPDEST SWAP4 DUP5 MLOAD DUP4 DUP7 ADD KECCAK256 PUSH2 0x15A0 PUSH2 0x4CD5 JUMP JUMPDEST DUP5 DUP2 MLOAD SWAP2 ADD KECCAK256 DUP2 EQ PUSH2 0x1939 JUMPI PUSH2 0x15B6 DUP9 DUP9 PUSH2 0x557D JUMP JUMPDEST PUSH2 0x18AA JUMPI DUP8 DUP10 SUB PUSH2 0x16C4 JUMPI JUMPDEST PUSH2 0x15CA PUSH2 0x4E5F JUMP JUMPDEST DUP5 DUP2 MLOAD SWAP2 ADD KECCAK256 EQ PUSH2 0x162F JUMPI JUMPDEST POP SWAP1 DUP4 SWAP3 SWAP2 PUSH2 0x15F4 PUSH0 DUP1 MLOAD PUSH1 0x20 PUSH2 0x5E6B DUP4 CODECOPY DUP2 MLOAD SWAP2 MSTORE SWAP6 DUP9 DUP9 PUSH2 0x545A JUMP JUMPDEST PUSH0 MSTORE PUSH1 0x5 DUP2 MSTORE PUSH1 0x1 DUP3 PUSH0 KECCAK256 ADD PUSH1 0xFF NOT DUP2 SLOAD AND SWAP1 SSTORE PUSH1 0xB DUP2 MSTORE PUSH0 DUP3 DUP2 KECCAK256 SSTORE PUSH2 0x1624 DUP3 MLOAD SWAP4 DUP4 DUP6 SWAP5 DUP6 MSTORE DUP5 ADD SWAP1 PUSH2 0x49C7 JUMP JUMPDEST SWAP1 TIMESTAMP SWAP1 DUP4 ADD MSTORE SUB SWAP1 LOG4 STOP JUMPDEST DUP6 PUSH0 MSTORE PUSH1 0x7 DUP4 MSTORE PUSH1 0x1 DUP5 PUSH0 KECCAK256 SLOAD GT PUSH1 0x6 DUP5 MSTORE DUP5 PUSH0 KECCAK256 SLOAD ISZERO ISZERO DUP2 ISZERO PUSH2 0x16BC JUMPI JUMPDEST POP PUSH2 0x15D6 JUMPI DUP4 MLOAD PUSH3 0x461BCD PUSH1 0xE5 SHL DUP2 MSTORE SWAP1 DUP2 ADD DUP4 SWAP1 MSTORE PUSH1 0x39 PUSH1 0x24 DUP3 ADD MSTORE PUSH32 0x43616E6E6F74207265766F6B65206C6173742061646D696E6973747261746F72 PUSH1 0x44 DUP3 ADD MSTORE PUSH32 0x20776974686F757420616E206F776E65722070726573656E7400000000000000 PUSH1 0x64 DUP3 ADD MSTORE PUSH1 0x84 SWAP1 REVERT JUMPDEST SWAP1 POP DUP10 PUSH2 0x164E JUMP JUMPDEST PUSH2 0x16D6 PUSH2 0x16CF PUSH2 0x4CD5 JUMP JUMPDEST DUP11 DUP10 PUSH2 0x53C8 JUMP JUMPDEST PUSH2 0x16E8 PUSH2 0x16E1 PUSH2 0x4E5F JUMP JUMPDEST DUP12 DUP11 PUSH2 0x53C8 JUMP JUMPDEST DUP5 PUSH0 MSTORE PUSH1 0xB DUP7 MSTORE DUP11 DUP8 PUSH0 KECCAK256 SLOAD EQ SWAP1 PUSH2 0x16FE PUSH2 0x4D38 JUMP JUMPDEST DUP8 DUP2 MLOAD SWAP2 ADD KECCAK256 DUP5 EQ DUP1 ISZERO PUSH2 0x1894 JUMPI JUMPDEST ISZERO PUSH2 0x17B9 JUMPI DUP3 ISZERO PUSH2 0x17B1 JUMPI JUMPDEST POP DUP2 ISZERO PUSH2 0x17A9 JUMPI JUMPDEST POP ISZERO PUSH2 0x172D JUMPI JUMPDEST PUSH2 0x15C2 JUMP JUMPDEST DUP5 MLOAD PUSH3 0x461BCD PUSH1 0xE5 SHL DUP2 MSTORE DUP1 DUP4 ADD DUP6 SWAP1 MSTORE PUSH1 0x4A PUSH1 0x24 DUP3 ADD MSTORE PUSH32 0x4F6E6C79206F776E6572732C2061646D696E6973747261746F72732C206F7220 PUSH1 0x44 DUP3 ADD MSTORE PUSH32 0x746865206772616E7465722063616E207265766F6B65207669657765722F7368 PUSH1 0x64 DUP3 ADD MSTORE PUSH10 0x6172657220726F6C6573 PUSH1 0xB0 SHL PUSH1 0x84 DUP3 ADD MSTORE PUSH1 0xA4 SWAP1 REVERT JUMPDEST SWAP1 POP DUP11 PUSH2 0x1721 JUMP JUMPDEST SWAP2 POP DUP12 PUSH2 0x1719 JUMP JUMPDEST DUP3 ISZERO SWAP3 SWAP2 POP DUP3 PUSH2 0x188C JUMPI JUMPDEST POP ISZERO PUSH2 0x1844 JUMPI ISZERO PUSH2 0x15C2 JUMPI PUSH2 0x17D7 PUSH2 0x4E5F JUMP JUMPDEST DUP5 DUP2 MLOAD SWAP2 ADD KECCAK256 DUP2 SUB PUSH2 0x1728 JUMPI DUP7 PUSH0 MSTORE PUSH1 0x6 DUP5 MSTORE DUP5 PUSH0 KECCAK256 SLOAD ISZERO PUSH2 0x1728 JUMPI DUP5 MLOAD PUSH3 0x461BCD PUSH1 0xE5 SHL DUP2 MSTORE DUP1 DUP4 ADD DUP6 SWAP1 MSTORE PUSH1 0x25 PUSH1 0x24 DUP3 ADD MSTORE PUSH32 0x4F6E6C79206F776E6572732063616E207265766F6B652061646D696E69737472 PUSH1 0x44 DUP3 ADD MSTORE PUSH5 0x61746F7273 PUSH1 0xD8 SHL PUSH1 0x64 DUP3 ADD MSTORE PUSH1 0x84 SWAP1 REVERT JUMPDEST DUP6 MLOAD PUSH3 0x461BCD PUSH1 0xE5 SHL DUP2 MSTORE DUP1 DUP5 ADD DUP7 SWAP1 MSTORE PUSH1 0x2F PUSH1 0x24 DUP3 ADD MSTORE PUSH0 DUP1 MLOAD PUSH1 0x20 PUSH2 0x5E8B DUP4 CODECOPY DUP2 MLOAD SWAP2 MSTORE PUSH1 0x44 DUP3 ADD MSTORE PUSH15 0x616E207265766F6B6520726F6C6573 PUSH1 0x88 SHL PUSH1 0x64 DUP3 ADD MSTORE PUSH1 0x84 SWAP1 REVERT JUMPDEST SWAP1 POP DUP12 PUSH2 0x17C4 JUMP JUMPDEST POP PUSH2 0x189D PUSH2 0x4E88 JUMP JUMPDEST DUP8 DUP2 MLOAD SWAP2 ADD KECCAK256 DUP5 EQ PUSH2 0x170D JUMP JUMPDEST DUP5 MLOAD PUSH3 0x461BCD PUSH1 0xE5 SHL DUP2 MSTORE DUP1 DUP4 ADD DUP6 SWAP1 MSTORE PUSH1 0x57 PUSH1 0x24 DUP3 ADD MSTORE PUSH32 0x43616E6E6F74207265766F6B6520616E20616374697665207375626A65637427 PUSH1 0x44 DUP3 ADD MSTORE PUSH32 0x7320726F6C652E20416374697665207375626A65637473206D75737420686F6C PUSH1 0x64 DUP3 ADD MSTORE PUSH32 0x64206174206C656173742073686172657220726F6C652E000000000000000000 PUSH1 0x84 DUP3 ADD MSTORE PUSH1 0xA4 SWAP1 REVERT JUMPDEST DUP5 MLOAD PUSH3 0x461BCD PUSH1 0xE5 SHL DUP2 MSTORE DUP1 DUP4 ADD DUP6 SWAP1 MSTORE PUSH1 0x45 PUSH1 0x24 DUP3 ADD MSTORE PUSH32 0x4F776E6572732063616E6E6F74206265207265766F6B65642E204F776E657220 PUSH1 0x44 DUP3 ADD MSTORE PUSH32 0x6D7573742075736520766F6C756E746172696C794C656176654F776E65727368 PUSH1 0x64 DUP3 ADD MSTORE PUSH5 0x34B8141497 PUSH1 0xD9 SHL PUSH1 0x84 DUP3 ADD MSTORE PUSH1 0xA4 SWAP1 REVERT JUMPDEST DUP3 CALLVALUE PUSH2 0x3A0 JUMPI PUSH1 0x20 CALLDATASIZE PUSH1 0x3 NOT ADD SLT PUSH2 0x3A0 JUMPI PUSH2 0x637 SWAP2 CALLDATALOAD PUSH0 MSTORE PUSH1 0xD PUSH1 0x20 MSTORE PUSH2 0x624 DUP2 PUSH0 KECCAK256 PUSH2 0x4B6D JUMP JUMPDEST SWAP1 POP CALLVALUE PUSH2 0x3A0 JUMPI PUSH1 0x20 SWAP1 DUP2 PUSH1 0x3 NOT CALLDATASIZE ADD SLT PUSH2 0x3A0 JUMPI DUP3 SWAP1 CALLDATALOAD PUSH0 MSTORE PUSH1 0x3 DUP3 MSTORE DUP1 PUSH0 KECCAK256 DUP2 MLOAD SWAP3 DUP4 DUP2 DUP4 SLOAD SWAP2 DUP3 DUP2 MSTORE ADD SWAP1 DUP2 SWAP4 PUSH0 MSTORE DUP3 PUSH0 KECCAK256 SWAP1 PUSH0 JUMPDEST DUP2 DUP2 LT PUSH2 0x1A6B JUMPI POP POP POP DUP5 PUSH2 0x1A27 SWAP2 SUB DUP6 PUSH2 0x467C JUMP JUMPDEST DUP3 MLOAD DUP2 DUP2 MSTORE SWAP4 MLOAD DUP2 DUP6 ADD DUP2 SWAP1 MSTORE DUP5 SWAP4 DUP5 ADD SWAP3 SWAP2 PUSH0 JUMPDEST DUP3 DUP2 LT PUSH2 0x1A4B JUMPI POP POP POP POP SUB SWAP1 RETURN JUMPDEST DUP4 MLOAD PUSH1 0x1 PUSH1 0x1 PUSH1 0xA0 SHL SUB AND DUP6 MSTORE DUP7 SWAP6 POP SWAP4 DUP2 ADD SWAP4 SWAP3 DUP2 ADD SWAP3 PUSH1 0x1 ADD PUSH2 0x1A3C JUMP JUMPDEST DUP3 SLOAD PUSH1 0x1 PUSH1 0x1 PUSH1 0xA0 SHL SUB AND DUP5 MSTORE SWAP3 DUP5 ADD SWAP3 PUSH1 0x1 SWAP3 DUP4 ADD SWAP3 ADD PUSH2 0x1A11 JUMP JUMPDEST DUP3 CALLVALUE PUSH2 0x3A0 JUMPI PUSH1 0x20 CALLDATASIZE PUSH1 0x3 NOT ADD SLT PUSH2 0x3A0 JUMPI PUSH1 0x20 SWAP2 CALLDATALOAD PUSH0 MSTORE PUSH1 0xB DUP3 MSTORE DUP1 PUSH0 KECCAK256 SLOAD SWAP1 MLOAD SWAP1 DUP2 MSTORE RETURN JUMPDEST DUP3 CALLVALUE PUSH2 0x3A0 JUMPI PUSH1 0x20 CALLDATASIZE PUSH1 0x3 NOT ADD SLT PUSH2 0x3A0 JUMPI PUSH1 0x20 SWAP1 PUSH2 0x1AD4 PUSH2 0x1ACF PUSH2 0x4606 JUMP JUMPDEST PUSH2 0x5BF0 JUMP JUMPDEST SWAP1 MLOAD SWAP1 ISZERO ISZERO DUP2 MSTORE RETURN JUMPDEST DUP3 CALLVALUE PUSH2 0x3A0 JUMPI PUSH2 0x1AEC CALLDATASIZE PUSH2 0x4877 JUMP JUMPDEST SWAP1 SWAP3 PUSH2 0x1AFA PUSH2 0x426 CALLER PUSH2 0x5337 JUMP JUMPDEST CALLER PUSH0 MSTORE PUSH1 0x1 SWAP4 PUSH1 0x20 SWAP2 DUP6 DUP4 MSTORE DUP5 PUSH0 KECCAK256 SLOAD SWAP1 DUP3 DUP3 EQ DUP1 ISZERO PUSH2 0x1D63 JUMPI JUMPDEST ISZERO PUSH2 0x1D22 JUMPI DUP3 PUSH0 MSTORE PUSH1 0xC DUP5 MSTORE DUP6 PUSH0 KECCAK256 DUP6 PUSH0 MSTORE DUP5 MSTORE PUSH1 0xFF SWAP1 PUSH1 0xFF DUP8 PUSH0 KECCAK256 SLOAD AND PUSH2 0x1B3C DUP2 PUSH2 0x4A6D JUMP JUMPDEST DUP9 PUSH1 0x2 DUP3 EQ SWAP2 DUP3 ISZERO PUSH2 0x1D0E JUMPI JUMPDEST POP POP ISZERO PUSH2 0x1CC1 JUMPI POP DUP3 PUSH0 MSTORE PUSH1 0xC DUP5 MSTORE DUP6 PUSH0 KECCAK256 DUP6 PUSH0 MSTORE DUP5 MSTORE DUP6 PUSH0 KECCAK256 SWAP1 PUSH1 0x3 PUSH1 0xFF NOT SWAP3 PUSH1 0x3 DUP5 DUP3 SLOAD AND OR SWAP1 SSTORE DUP4 DUP8 DUP7 PUSH32 0x6DF3A6475FAB2EED139F7E469995B04E85BFC5B4B8642587109CB72541F74FAE DUP10 DUP13 MLOAD TIMESTAMP DUP2 MSTORE LOG4 DUP5 PUSH0 MSTORE PUSH1 0xE DUP7 MSTORE DUP8 PUSH0 KECCAK256 DUP8 PUSH0 MSTORE DUP7 MSTORE DUP8 PUSH0 KECCAK256 DUP10 PUSH0 SWAP1 JUMPDEST PUSH2 0x1BD4 JUMPI JUMPDEST PUSH2 0x4CE DUP11 DUP11 DUP11 DUP11 PUSH0 MSTORE PUSH1 0xE DUP2 MSTORE DUP3 PUSH0 KECCAK256 SWAP2 PUSH0 MSTORE MSTORE PUSH0 KECCAK256 PUSH2 0x51FC JUMP JUMPDEST DUP2 SLOAD DUP2 LT ISZERO PUSH2 0x1CBC JUMPI SWAP1 DUP11 DUP3 DUP8 DUP12 DUP14 DUP13 PUSH2 0x1BF3 DUP7 SWAP13 SWAP12 SWAP11 SWAP10 SWAP9 DUP9 PUSH2 0x4A44 JUMP JUMPDEST SWAP1 SLOAD SWAP1 DUP10 SHL SHR SWAP2 DUP14 PUSH0 MSTORE PUSH1 0xF DUP3 MSTORE DUP1 PUSH0 KECCAK256 DUP5 PUSH0 MSTORE DUP3 MSTORE DUP1 PUSH0 KECCAK256 DUP4 PUSH0 MSTORE DUP3 MSTORE DUP1 PUSH0 KECCAK256 DUP12 DUP2 SLOAD AND SWAP1 SSTORE PUSH2 0x1C24 DUP5 DUP5 PUSH2 0x5426 JUMP JUMPDEST PUSH0 MSTORE PUSH1 0x5 SWAP1 DUP2 DUP4 MSTORE DUP11 DUP9 DUP3 PUSH0 KECCAK256 ADD SLOAD AND ISZERO PUSH2 0x1CB1 JUMPI PUSH0 DUP1 MLOAD PUSH1 0x20 PUSH2 0x5E6B DUP4 CODECOPY DUP2 MLOAD SWAP2 MSTORE SWAP3 PUSH2 0x1C52 DUP7 DUP7 PUSH2 0x5426 JUMP JUMPDEST SWAP3 DUP4 PUSH0 MSTORE DUP1 DUP3 MSTORE PUSH2 0x1C64 DUP4 PUSH0 KECCAK256 PUSH2 0x4925 JUMP JUMPDEST SWAP4 PUSH2 0x1C70 DUP6 DUP10 DUP10 PUSH2 0x545A JUMP JUMPDEST PUSH0 MSTORE DUP2 MSTORE DUP9 DUP3 PUSH0 KECCAK256 ADD DUP14 DUP2 SLOAD AND SWAP1 SSTORE PUSH1 0xB DUP2 MSTORE PUSH0 DUP3 DUP2 KECCAK256 SSTORE PUSH2 0x1C9B DUP3 MLOAD SWAP4 DUP4 DUP6 SWAP5 DUP6 MSTORE DUP5 ADD SWAP1 PUSH2 0x49C7 JUMP JUMPDEST SWAP1 TIMESTAMP SWAP1 DUP4 ADD MSTORE SUB SWAP1 LOG4 JUMPDEST ADD SWAP1 SWAP2 SWAP3 SWAP4 SWAP5 SWAP6 PUSH2 0x1BB4 JUMP JUMPDEST POP POP POP POP POP POP PUSH2 0x1CA5 JUMP JUMPDEST PUSH2 0x1BB9 JUMP JUMPDEST DUP7 MLOAD PUSH3 0x461BCD PUSH1 0xE5 SHL DUP2 MSTORE SWAP1 DUP2 ADD DUP6 SWAP1 MSTORE PUSH1 0x21 PUSH1 0x24 DUP3 ADD MSTORE PUSH32 0x4E6F20616374697665206F722070656E64696E672072656C6174696F6E736869 PUSH1 0x44 DUP3 ADD MSTORE PUSH1 0x7 PUSH1 0xFC SHL PUSH1 0x64 DUP3 ADD MSTORE PUSH1 0x84 SWAP1 REVERT JUMPDEST SWAP1 SWAP2 POP PUSH2 0x1D1A DUP2 PUSH2 0x4A6D JUMP JUMPDEST EQ DUP9 DUP11 PUSH2 0x1B49 JUMP JUMPDEST PUSH1 0x64 SWAP1 DUP5 DUP1 DUP9 MLOAD SWAP3 PUSH3 0x461BCD PUSH1 0xE5 SHL DUP5 MSTORE DUP4 ADD MSTORE PUSH1 0x24 DUP3 ADD MSTORE PUSH32 0x4E6F74206120706172747920746F20746869732072656C6174696F6E73686970 PUSH1 0x44 DUP3 ADD MSTORE REVERT JUMPDEST POP DUP5 DUP3 EQ PUSH2 0x1B15 JUMP JUMPDEST DUP3 CALLVALUE PUSH2 0x3A0 JUMPI DUP1 PUSH1 0x3 NOT CALLDATASIZE ADD SLT PUSH2 0x3A0 JUMPI PUSH2 0x1AD4 PUSH1 0x20 SWAP3 PUSH2 0x1D8B PUSH2 0x461C JUMP JUMPDEST SWAP1 CALLDATALOAD PUSH2 0x51BF JUMP JUMPDEST DUP3 CALLVALUE PUSH2 0x3A0 JUMPI PUSH1 0x20 CALLDATASIZE PUSH1 0x3 NOT ADD SLT PUSH2 0x3A0 JUMPI PUSH32 0xCE59AD7D6DABE8A7533ED7D9BD07D276A046AC7AC9A8E8E8971DA4B81104A28B PUSH1 0x20 PUSH2 0x1DCF PUSH2 0x4606 JUMP JUMPDEST PUSH0 SLOAD PUSH1 0x1 PUSH1 0x1 PUSH1 0xA0 SHL SUB SWAP2 SWAP1 PUSH2 0x1DE8 SWAP1 DUP4 AND CALLER EQ PUSH2 0x4C0C JUMP JUMPDEST AND SWAP3 PUSH2 0x1DF5 DUP5 ISZERO ISZERO PUSH2 0x5181 JUMP JUMPDEST PUSH1 0xA DUP1 SLOAD PUSH1 0x1 PUSH1 0x1 PUSH1 0xA0 SHL SUB NOT AND DUP6 OR SWAP1 SSTORE MLOAD TIMESTAMP DUP2 MSTORE LOG2 STOP JUMPDEST DUP3 CALLVALUE PUSH2 0x3A0 JUMPI PUSH2 0x637 SWAP1 PUSH2 0x1E21 CALLDATASIZE PUSH2 0x4877 JUMP JUMPDEST SWAP1 PUSH0 MSTORE PUSH1 0xE PUSH1 0x20 MSTORE DUP2 PUSH0 KECCAK256 SWAP1 PUSH0 MSTORE PUSH1 0x20 MSTORE PUSH2 0x624 DUP2 PUSH0 KECCAK256 PUSH2 0x4B6D JUMP JUMPDEST DUP3 CALLVALUE PUSH2 0x3A0 JUMPI PUSH1 0x20 CALLDATASIZE PUSH1 0x3 NOT ADD SLT PUSH2 0x3A0 JUMPI PUSH2 0x637 SWAP2 CALLDATALOAD PUSH0 MSTORE PUSH1 0x6 PUSH1 0x20 MSTORE PUSH2 0x624 DUP2 PUSH0 KECCAK256 PUSH2 0x4B6D JUMP JUMPDEST DUP3 CALLVALUE PUSH2 0x3A0 JUMPI PUSH0 CALLDATASIZE PUSH1 0x3 NOT ADD SLT PUSH2 0x3A0 JUMPI PUSH1 0x20 SWAP2 SLOAD SWAP1 MLOAD SWAP1 DUP2 MSTORE RETURN JUMPDEST SWAP1 POP CALLVALUE PUSH2 0x3A0 JUMPI PUSH1 0x20 CALLDATASIZE PUSH1 0x3 NOT ADD SLT PUSH2 0x3A0 JUMPI PUSH2 0x1E9D PUSH2 0x4606 JUMP JUMPDEST PUSH0 SLOAD PUSH1 0x1 PUSH1 0x1 PUSH1 0xA0 SHL SUB SWAP2 SWAP1 PUSH2 0x1EB6 SWAP1 DUP4 AND CALLER EQ PUSH2 0x4C0C JUMP JUMPDEST AND DUP1 PUSH0 MSTORE PUSH1 0x1 SWAP2 DUP3 PUSH1 0x20 MSTORE PUSH2 0x1ECF DUP5 PUSH0 KECCAK256 SLOAD ISZERO ISZERO PUSH2 0x4C45 JUMP JUMPDEST DUP2 PUSH0 MSTORE DUP3 PUSH1 0x20 MSTORE PUSH1 0xFF DUP4 DUP6 PUSH0 KECCAK256 ADD SLOAD AND PUSH2 0x1EFE JUMPI POP SWAP2 DUP2 SWAP3 PUSH0 MSTORE DUP2 PUSH1 0x20 MSTORE PUSH0 KECCAK256 ADD SWAP1 PUSH1 0xFF NOT DUP3 SLOAD AND OR SWAP1 SSTORE PUSH0 DUP1 RETURN JUMPDEST PUSH1 0x64 SWAP1 PUSH1 0x20 DUP6 MLOAD SWAP2 PUSH3 0x461BCD PUSH1 0xE5 SHL DUP4 MSTORE DUP3 ADD MSTORE PUSH1 0x15 PUSH1 0x24 DUP3 ADD MSTORE PUSH21 0x57616C6C657420616C726561647920616374697665 PUSH1 0x58 SHL PUSH1 0x44 DUP3 ADD MSTORE REVERT JUMPDEST DUP3 CALLVALUE PUSH2 0x3A0 JUMPI PUSH1 0x20 SWAP1 DUP2 PUSH1 0x3 NOT CALLDATASIZE ADD SLT PUSH2 0x3A0 JUMPI DUP3 CALLDATALOAD SWAP2 PUSH2 0x1F5C PUSH2 0x426 CALLER PUSH2 0x5337 JUMP JUMPDEST CALLER PUSH0 MSTORE PUSH1 0x1 DUP2 MSTORE DUP2 PUSH0 KECCAK256 SLOAD SWAP4 DUP4 PUSH0 MSTORE PUSH1 0xC DUP3 MSTORE DUP3 PUSH0 KECCAK256 DUP6 PUSH0 MSTORE DUP3 MSTORE DUP3 PUSH0 KECCAK256 SWAP1 DUP2 SLOAD SWAP1 PUSH1 0x1 PUSH1 0xFF DUP4 AND PUSH2 0x1F8D DUP2 PUSH2 0x4A6D JUMP JUMPDEST SUB PUSH2 0x1FDE JUMPI POP PUSH1 0xFF NOT AND PUSH1 0x2 OR SWAP1 DUP2 SWAP1 SSTORE DUP3 MLOAD PUSH32 0xC5B2E1BD4433EB4E9E181CC803520513D39D918C96BDDEEBCA1224E1C750963D SWAP4 SWAP3 SWAP1 SWAP2 PUSH1 0x8 SHR PUSH1 0xFF AND PUSH2 0x1FD4 DUP2 PUSH2 0x488D JUMP JUMPDEST DUP3 MSTORE TIMESTAMP SWAP1 DUP3 ADD MSTORE LOG3 STOP JUMPDEST DUP5 MLOAD PUSH3 0x461BCD PUSH1 0xE5 SHL DUP2 MSTORE SWAP1 DUP2 ADD DUP5 SWAP1 MSTORE PUSH1 0x13 PUSH1 0x24 DUP3 ADD MSTORE PUSH19 0x139BC81C195B991A5B99C81C1C9BDC1BDCD85B PUSH1 0x6A SHL PUSH1 0x44 DUP3 ADD MSTORE PUSH1 0x64 SWAP1 REVERT JUMPDEST DUP3 CALLVALUE PUSH2 0x3A0 JUMPI PUSH0 CALLDATASIZE PUSH1 0x3 NOT ADD SLT PUSH2 0x3A0 JUMPI DUP1 MLOAD PUSH2 0x637 SWAP2 PUSH2 0x2037 DUP3 PUSH2 0x4632 JUMP JUMPDEST PUSH1 0x5 DUP3 MSTORE PUSH5 0x352E302E3 PUSH1 0xDC SHL PUSH1 0x20 DUP4 ADD MSTORE MLOAD SWAP2 DUP3 SWAP2 PUSH1 0x20 DUP4 MSTORE PUSH1 0x20 DUP4 ADD SWAP1 PUSH2 0x49C7 JUMP JUMPDEST SWAP1 POP CALLVALUE PUSH2 0x3A0 JUMPI PUSH2 0x206B CALLDATASIZE PUSH2 0x4A25 JUMP JUMPDEST SWAP2 PUSH2 0x2078 PUSH2 0x426 CALLER PUSH2 0x5337 JUMP JUMPDEST CALLER PUSH0 MSTORE PUSH1 0x1 PUSH1 0x20 MSTORE DUP4 PUSH0 KECCAK256 SLOAD SWAP1 DUP2 PUSH0 MSTORE PUSH1 0xC PUSH1 0x20 MSTORE DUP5 PUSH0 KECCAK256 DUP4 PUSH0 MSTORE PUSH1 0x20 MSTORE DUP5 PUSH0 KECCAK256 PUSH1 0xFF DUP2 SLOAD PUSH2 0x20B4 PUSH1 0x2 DUP4 DUP4 AND PUSH2 0x20AE DUP2 PUSH2 0x4A6D JUMP JUMPDEST EQ PUSH2 0x50DB JUMP JUMPDEST PUSH1 0x8 SHR AND SWAP2 PUSH2 0x20C2 DUP7 PUSH2 0x488D JUMP JUMPDEST PUSH2 0x20CB DUP4 PUSH2 0x488D JUMP JUMPDEST DUP6 DUP4 EQ PUSH2 0x211D JUMPI POP PUSH32 0xB36EC3C738EF8ECD9180ADDC815304762374B76E91C2A321831D9906EA119ADE PUSH2 0x2115 DUP6 SWAP4 PUSH2 0x4CE SWAP9 PUSH2 0x2108 DUP10 DUP9 SWAP7 PUSH2 0x5127 JUMP JUMPDEST MLOAD SWAP2 DUP3 SWAP2 DUP10 TIMESTAMP SWAP2 DUP5 PUSH2 0x5146 JUMP JUMPDEST SUB SWAP1 LOG3 PUSH2 0x57A9 JUMP JUMPDEST PUSH1 0x64 SWAP1 PUSH1 0x20 DUP9 MLOAD SWAP2 PUSH3 0x461BCD PUSH1 0xE5 SHL DUP4 MSTORE DUP3 ADD MSTORE PUSH1 0x18 PUSH1 0x24 DUP3 ADD MSTORE PUSH32 0x416C72656164792074686973207472757374206C6576656C0000000000000000 PUSH1 0x44 DUP3 ADD MSTORE REVERT JUMPDEST DUP3 CALLVALUE PUSH2 0x3A0 JUMPI PUSH1 0x20 SWAP1 PUSH2 0x217B PUSH2 0x2175 CALLDATASIZE PUSH2 0x4877 JUMP JUMPDEST SWAP1 PUSH2 0x5426 JUMP JUMPDEST PUSH0 MSTORE PUSH1 0xB DUP3 MSTORE DUP1 PUSH0 KECCAK256 SLOAD SWAP1 MLOAD SWAP1 DUP2 MSTORE RETURN JUMPDEST DUP3 CALLVALUE PUSH2 0x3A0 JUMPI PUSH2 0x219B CALLDATASIZE PUSH2 0x4877 JUMP JUMPDEST SWAP1 PUSH0 MSTORE PUSH1 0xC PUSH1 0x20 MSTORE DUP2 PUSH0 KECCAK256 SWAP1 PUSH0 MSTORE PUSH1 0x20 MSTORE DUP1 PUSH0 KECCAK256 PUSH2 0x637 PUSH1 0xFF DUP4 MLOAD SWAP3 PUSH2 0x21C0 DUP5 PUSH2 0x4632 JUMP JUMPDEST SLOAD DUP2 DUP2 AND PUSH2 0x21CD DUP2 PUSH2 0x4A6D JUMP JUMPDEST DUP5 MSTORE PUSH1 0x8 SHR AND SWAP2 PUSH1 0x20 DUP2 ADD SWAP3 PUSH2 0x21E2 DUP2 PUSH2 0x488D JUMP JUMPDEST DUP4 MSTORE MLOAD SWAP2 PUSH2 0x21EF DUP4 PUSH2 0x4A6D JUMP JUMPDEST MLOAD SWAP3 PUSH2 0x21FA DUP5 PUSH2 0x488D JUMP JUMPDEST MLOAD SWAP3 DUP4 SWAP3 DUP4 PUSH2 0x4A77 JUMP JUMPDEST DUP3 CALLVALUE PUSH2 0x3A0 JUMPI PUSH2 0x2213 CALLDATASIZE PUSH2 0x4877 JUMP JUMPDEST SWAP2 SWAP1 PUSH0 MSTORE PUSH1 0x12 PUSH1 0x20 MSTORE DUP1 PUSH0 KECCAK256 DUP1 SLOAD DUP4 LT ISZERO PUSH2 0x3A0 JUMPI PUSH1 0x20 SWAP3 PUSH2 0x392 SWAP2 PUSH2 0x4A44 JUMP JUMPDEST DUP3 CALLVALUE PUSH2 0x3A0 JUMPI DUP1 PUSH1 0x3 NOT CALLDATASIZE ADD SLT PUSH2 0x3A0 JUMPI DUP2 CALLDATALOAD SWAP1 PUSH1 0x24 CALLDATALOAD PUSH1 0x5 DUP2 LT ISZERO PUSH2 0x3A0 JUMPI PUSH2 0x2268 PUSH1 0x1 DUP1 PUSH1 0xA0 SHL SUB PUSH0 SLOAD AND CALLER EQ PUSH2 0x4C0C JUMP JUMPDEST DUP3 PUSH0 MSTORE PUSH1 0x20 PUSH1 0x2 DUP2 MSTORE PUSH1 0xFF DUP4 PUSH0 KECCAK256 SLOAD AND PUSH2 0x2281 DUP2 PUSH2 0x4A6D JUMP JUMPDEST ISZERO PUSH2 0x2340 JUMPI DUP4 PUSH0 MSTORE PUSH1 0x2 DUP2 MSTORE PUSH1 0xFF DUP4 PUSH0 KECCAK256 SLOAD AND SWAP5 PUSH2 0x229E DUP4 PUSH2 0x4A6D JUMP JUMPDEST PUSH2 0x22A7 DUP7 PUSH2 0x4A6D JUMP JUMPDEST DUP3 DUP7 EQ PUSH2 0x2309 JUMPI POP DUP4 PUSH0 MSTORE PUSH1 0x2 DUP2 MSTORE PUSH2 0x22C2 DUP3 DUP5 PUSH0 KECCAK256 PUSH2 0x50A1 JUMP JUMPDEST DUP3 MLOAD SWAP5 PUSH2 0x22CE DUP2 PUSH2 0x4A6D JUMP JUMPDEST DUP6 MSTORE PUSH2 0x22D9 DUP3 PUSH2 0x4A6D JUMP JUMPDEST DUP5 ADD MSTORE TIMESTAMP SWAP1 DUP4 ADD MSTORE PUSH32 0xF6277C6EE46649823DB9A5C531DB3112B4340C67179CAE1932BA3420DCC37CC7 PUSH1 0x60 CALLER SWAP4 LOG3 STOP JUMPDEST PUSH1 0x64 SWAP2 DUP5 MLOAD SWAP2 PUSH3 0x461BCD PUSH1 0xE5 SHL DUP4 MSTORE DUP3 ADD MSTORE PUSH1 0x13 PUSH1 0x24 DUP3 ADD MSTORE PUSH19 0x416C7265616479207468697320737461747573 PUSH1 0x68 SHL PUSH1 0x44 DUP3 ADD MSTORE REVERT JUMPDEST DUP5 PUSH1 0x64 SWAP2 DUP5 MLOAD SWAP2 PUSH3 0x461BCD PUSH1 0xE5 SHL DUP4 MSTORE DUP3 ADD MSTORE PUSH1 0x13 PUSH1 0x24 DUP3 ADD MSTORE PUSH19 0x155CD95C881B9BDD081C9959DA5CDD195C9959 PUSH1 0x6A SHL PUSH1 0x44 DUP3 ADD MSTORE REVERT JUMPDEST DUP3 CALLVALUE PUSH2 0x3A0 JUMPI PUSH2 0x2387 CALLDATASIZE PUSH2 0x4877 JUMP JUMPDEST SWAP2 SWAP1 PUSH0 MSTORE PUSH1 0x3 PUSH1 0x20 MSTORE DUP1 PUSH0 KECCAK256 DUP1 SLOAD DUP4 LT ISZERO PUSH2 0x3A0 JUMPI PUSH1 0x20 SWAP3 PUSH2 0x23A8 SWAP2 PUSH2 0x4A44 JUMP JUMPDEST PUSH1 0x1 DUP1 PUSH1 0xA0 SHL SUB SWAP2 SLOAD SWAP1 PUSH1 0x3 SHL SHR AND SWAP1 MLOAD SWAP1 DUP2 MSTORE RETURN JUMPDEST DUP3 CALLVALUE PUSH2 0x3A0 JUMPI PUSH2 0x23CD CALLDATASIZE PUSH2 0x4877 JUMP JUMPDEST SWAP2 SWAP1 PUSH0 MSTORE PUSH1 0x9 PUSH1 0x20 MSTORE DUP1 PUSH0 KECCAK256 DUP1 SLOAD DUP4 LT ISZERO PUSH2 0x3A0 JUMPI PUSH1 0x20 SWAP3 PUSH2 0x392 SWAP2 PUSH2 0x4A44 JUMP JUMPDEST DUP3 CALLVALUE PUSH2 0x3A0 JUMPI PUSH1 0x20 DUP1 PUSH1 0x3 NOT CALLDATASIZE ADD SLT PUSH2 0x3A0 JUMPI PUSH1 0x80 SWAP3 CALLDATALOAD PUSH0 MSTORE PUSH1 0x6 DUP2 MSTORE DUP2 PUSH0 KECCAK256 SLOAD SWAP2 PUSH1 0x7 DUP3 MSTORE DUP1 PUSH0 KECCAK256 SLOAD SWAP1 PUSH1 0x8 DUP4 MSTORE DUP1 PUSH0 KECCAK256 SLOAD SWAP2 PUSH1 0x9 DUP5 MSTORE DUP2 PUSH0 KECCAK256 SLOAD SWAP4 DUP3 MLOAD SWAP6 DUP7 MSTORE DUP6 ADD MSTORE DUP4 ADD MSTORE PUSH1 0x60 DUP3 ADD MSTORE RETURN JUMPDEST DUP3 CALLVALUE PUSH2 0x3A0 JUMPI PUSH1 0x20 CALLDATASIZE PUSH1 0x3 NOT ADD SLT PUSH2 0x3A0 JUMPI PUSH1 0x1 PUSH1 0x1 PUSH1 0xA0 SHL SUB PUSH2 0x245F PUSH2 0x4606 JUMP JUMPDEST AND PUSH0 MSTORE PUSH1 0x1 PUSH1 0x20 MSTORE DUP1 PUSH0 KECCAK256 PUSH1 0xFF PUSH1 0x1 DUP3 SLOAD SWAP3 ADD SLOAD AND DUP3 MLOAD SWAP2 DUP3 MSTORE ISZERO ISZERO PUSH1 0x20 DUP3 ADD MSTORE RETURN JUMPDEST DUP3 CALLVALUE PUSH2 0x3A0 JUMPI PUSH1 0x20 CALLDATASIZE PUSH1 0x3 NOT ADD SLT PUSH2 0x3A0 JUMPI PUSH2 0x637 SWAP2 CALLDATALOAD PUSH0 MSTORE PUSH1 0x11 PUSH1 0x20 MSTORE PUSH2 0x624 DUP2 PUSH0 KECCAK256 PUSH2 0x4B6D JUMP JUMPDEST DUP3 CALLVALUE PUSH2 0x3A0 JUMPI PUSH2 0x24BA CALLDATASIZE PUSH2 0x4877 JUMP JUMPDEST SWAP2 SWAP1 PUSH0 MSTORE PUSH1 0x7 PUSH1 0x20 MSTORE DUP1 PUSH0 KECCAK256 DUP1 SLOAD DUP4 LT ISZERO PUSH2 0x3A0 JUMPI PUSH1 0x20 SWAP3 PUSH2 0x392 SWAP2 PUSH2 0x4A44 JUMP JUMPDEST SWAP1 POP CALLVALUE PUSH2 0x3A0 JUMPI PUSH0 CALLDATASIZE PUSH1 0x3 NOT ADD SLT PUSH2 0x3A0 JUMPI PUSH32 0xF0C57E16840DF040F15088DC2F81FE391C3923BEC73E23A9662EFC9C229C6A00 SWAP1 DUP2 SLOAD PUSH1 0xFF DUP2 DUP6 SHR AND ISZERO SWAP2 PUSH1 0x1 PUSH1 0x1 PUSH1 0x40 SHL SUB DUP3 AND DUP1 ISZERO SWAP1 DUP2 PUSH2 0x25F0 JUMPI JUMPDEST PUSH1 0x1 EQ SWAP1 DUP2 PUSH2 0x25E6 JUMPI JUMPDEST ISZERO SWAP1 DUP2 PUSH2 0x25DD JUMPI JUMPDEST POP PUSH2 0x25CF JUMPI POP PUSH8 0xFFFFFFFFFFFFFFFF NOT DUP2 AND PUSH1 0x1 OR DUP4 SSTORE DUP2 PUSH2 0x25B0 JUMPI JUMPDEST POP PUSH0 DUP1 SLOAD PUSH1 0x1 PUSH1 0x1 PUSH1 0xA0 SHL SUB NOT AND CALLER OR SWAP1 SSTORE PUSH2 0x2573 JUMPI STOP JUMPDEST DUP1 SLOAD PUSH9 0xFF0000000000000000 NOT AND SWAP1 SSTORE MLOAD PUSH1 0x1 DUP2 MSTORE PUSH32 0xC7F505B2F371AE2175EE4913F4499E1F2633A7B5936321EED1CDAEB6115181D2 SWAP1 PUSH1 0x20 SWAP1 LOG1 STOP JUMPDEST PUSH9 0xFFFFFFFFFFFFFFFFFF NOT AND PUSH9 0x10000000000000001 OR DUP3 SSTORE PUSH0 PUSH2 0x255B JUMP JUMPDEST DUP5 MLOAD PUSH4 0xF92EE8A9 PUSH1 0xE0 SHL DUP2 MSTORE REVERT JUMPDEST SWAP1 POP ISZERO PUSH0 PUSH2 0x253E JUMP JUMPDEST ADDRESS EXTCODESIZE ISZERO SWAP2 POP PUSH2 0x2536 JUMP JUMPDEST DUP5 SWAP2 POP PUSH2 0x252C JUMP JUMPDEST DUP3 CALLVALUE PUSH2 0x3A0 JUMPI PUSH2 0x637 SWAP1 PUSH2 0x260B CALLDATASIZE PUSH2 0x4877 JUMP JUMPDEST SWAP1 PUSH0 MSTORE PUSH1 0xC PUSH1 0x20 MSTORE DUP2 PUSH0 KECCAK256 SWAP1 PUSH0 MSTORE PUSH1 0x20 MSTORE DUP1 PUSH0 KECCAK256 SLOAD SWAP1 MLOAD SWAP2 DUP2 PUSH1 0xFF DUP1 DUP6 SWAP5 PUSH1 0x8 SHR AND SWAP2 AND DUP4 PUSH2 0x4A77 JUMP JUMPDEST DUP3 CALLVALUE PUSH2 0x3A0 JUMPI PUSH1 0x20 SWAP2 DUP3 PUSH1 0x3 NOT CALLDATASIZE ADD SLT PUSH2 0x3A0 JUMPI PUSH2 0x26B1 SWAP3 PUSH2 0x637 SWAP2 CALLDATALOAD PUSH0 MSTORE PUSH1 0x6 DUP2 MSTORE PUSH2 0x26CB DUP4 PUSH0 KECCAK256 SWAP4 PUSH1 0x7 DUP4 MSTORE DUP1 PUSH0 KECCAK256 SWAP5 PUSH1 0x8 DUP5 MSTORE PUSH2 0x26BE DUP3 PUSH0 KECCAK256 SWAP5 PUSH1 0x9 DUP2 MSTORE PUSH2 0x269D PUSH2 0x2697 PUSH2 0x2691 PUSH2 0x268B DUP8 PUSH0 KECCAK256 SWAP7 PUSH2 0x4B6D JUMP JUMPDEST SWAP11 PUSH2 0x4B6D JUMP JUMPDEST SWAP8 PUSH2 0x4B6D JUMP JUMPDEST SWAP4 PUSH2 0x4B6D JUMP JUMPDEST SWAP6 DUP5 MLOAD SWAP10 DUP11 SWAP10 PUSH1 0x80 DUP12 MSTORE PUSH1 0x80 DUP12 ADD SWAP1 PUSH2 0x4844 JUMP JUMPDEST SWAP2 DUP10 DUP4 SUB SWAP1 DUP11 ADD MSTORE PUSH2 0x4844 JUMP JUMPDEST SWAP2 DUP7 DUP4 SUB SWAP1 DUP8 ADD MSTORE PUSH2 0x4844 JUMP JUMPDEST SWAP1 DUP4 DUP3 SUB PUSH1 0x60 DUP6 ADD MSTORE PUSH2 0x4844 JUMP JUMPDEST DUP3 CALLVALUE PUSH2 0x3A0 JUMPI PUSH1 0x20 CALLDATASIZE PUSH1 0x3 NOT ADD SLT PUSH2 0x3A0 JUMPI PUSH1 0x20 SWAP1 PUSH2 0x26F6 PUSH2 0x4606 JUMP JUMPDEST PUSH0 SLOAD SWAP2 SWAP1 PUSH1 0x1 PUSH1 0x1 PUSH1 0xA0 SHL SUB DUP1 DUP5 AND SWAP2 PUSH32 0x38DF5FA0F7FEF0D515CA1F5388CB5790AC5885D5FCA8D05D9F943E563C33A4B3 SWAP2 SWAP1 PUSH2 0x2734 CALLER DUP6 EQ PUSH2 0x4C0C JUMP JUMPDEST AND SWAP5 DUP6 SWAP4 PUSH2 0x2743 DUP6 ISZERO ISZERO PUSH2 0x5181 JUMP JUMPDEST MLOAD TIMESTAMP DUP2 MSTORE LOG3 PUSH1 0x1 PUSH1 0x1 PUSH1 0xA0 SHL SUB NOT AND OR PUSH0 SSTORE STOP JUMPDEST SWAP1 POP CALLVALUE PUSH2 0x3A0 JUMPI PUSH1 0x20 DUP1 PUSH1 0x3 NOT CALLDATASIZE ADD SLT PUSH2 0x3A0 JUMPI DUP2 CALLDATALOAD SWAP3 PUSH2 0x277A PUSH2 0x426 CALLER PUSH2 0x5337 JUMP JUMPDEST CALLER PUSH0 MSTORE PUSH1 0x1 DUP3 MSTORE DUP1 PUSH0 KECCAK256 SLOAD SWAP3 DUP4 PUSH0 MSTORE PUSH1 0x10 DUP4 MSTORE DUP2 PUSH0 KECCAK256 DUP6 PUSH0 MSTORE DUP4 MSTORE PUSH1 0x1 PUSH1 0xFF DUP4 PUSH0 KECCAK256 SLOAD AND PUSH2 0x27A7 DUP2 PUSH2 0x488D JUMP JUMPDEST SUB PUSH2 0x2813 JUMPI POP SWAP1 PUSH32 0x972FD04571D170DAFA6FE5D3822DA50A1FD8596D166C4CA101DFF5FC760533E SWAP2 DUP4 PUSH0 MSTORE PUSH1 0x10 DUP3 MSTORE DUP1 PUSH0 KECCAK256 DUP6 PUSH0 MSTORE DUP3 MSTORE DUP1 PUSH0 KECCAK256 PUSH1 0x2 PUSH1 0xFF NOT DUP3 SLOAD AND OR SWAP1 SSTORE DUP4 PUSH0 MSTORE PUSH1 0x11 DUP3 MSTORE PUSH2 0x2800 DUP6 DUP3 PUSH0 KECCAK256 PUSH2 0x5B59 JUMP JUMPDEST DUP5 PUSH0 MSTORE PUSH1 0x12 DUP3 MSTORE PUSH2 0x13CC DUP5 DUP3 PUSH0 KECCAK256 PUSH2 0x5B59 JUMP JUMPDEST DUP3 PUSH1 0x64 SWAP3 MLOAD SWAP2 PUSH3 0x461BCD PUSH1 0xE5 SHL DUP4 MSTORE DUP3 ADD MSTORE PUSH1 0x1D PUSH1 0x24 DUP3 ADD MSTORE PUSH32 0x4E6F2061637469766520766F75636820666F7220746869732075736572000000 PUSH1 0x44 DUP3 ADD MSTORE REVERT JUMPDEST SWAP1 POP CALLVALUE PUSH2 0x3A0 JUMPI PUSH2 0x2864 CALLDATASIZE PUSH2 0x48AB JUMP JUMPDEST SWAP4 SWAP1 SWAP3 PUSH1 0x1 DUP1 PUSH1 0xA0 SHL SUB PUSH2 0x287C DUP2 PUSH0 SLOAD AND CALLER EQ PUSH2 0x4C0C JUMP JUMPDEST PUSH2 0x2887 DUP5 ISZERO ISZERO PUSH2 0x4C89 JUMP JUMPDEST DUP5 AND PUSH2 0x2894 DUP2 ISZERO ISZERO PUSH2 0x4F92 JUMP JUMPDEST PUSH2 0x28A0 PUSH2 0xCFC DUP8 PUSH2 0x5505 JUMP JUMPDEST PUSH0 MSTORE PUSH1 0x1 PUSH1 0x20 SWAP2 DUP2 DUP4 MSTORE PUSH2 0x28C2 DUP5 PUSH0 KECCAK256 SLOAD SWAP7 PUSH2 0x28BD DUP9 ISZERO ISZERO PUSH2 0x4C45 JUMP JUMPDEST PUSH2 0x5337 JUMP JUMPDEST ISZERO PUSH2 0x2B31 JUMPI DUP5 PUSH0 MSTORE PUSH1 0x6 DUP4 MSTORE DUP4 PUSH0 KECCAK256 SLOAD ISZERO DUP1 PUSH2 0x2B22 JUMPI JUMPDEST ISZERO PUSH2 0x2ADF JUMPI PUSH2 0x28E8 DUP7 DUP7 PUSH2 0x5426 JUMP JUMPDEST SWAP2 DUP3 PUSH0 MSTORE PUSH1 0x5 DUP5 MSTORE DUP5 PUSH0 KECCAK256 SWAP2 PUSH1 0xFF DUP3 PUSH2 0x2900 DUP6 PUSH2 0x4925 JUMP JUMPDEST SWAP5 ADD SLOAD AND SWAP2 DUP7 MLOAD SWAP2 PUSH2 0x2911 DUP4 PUSH2 0x4632 JUMP JUMPDEST DUP11 DUP4 MSTORE DUP7 DUP4 ADD SWAP1 DUP3 DUP3 MSTORE DUP7 PUSH0 MSTORE PUSH1 0x5 DUP9 MSTORE DUP9 PUSH0 KECCAK256 SWAP4 MLOAD DUP1 MLOAD SWAP2 PUSH1 0x1 PUSH1 0x1 PUSH1 0x40 SHL SUB DUP4 GT PUSH2 0x2ACC JUMPI POP PUSH2 0x2943 DUP6 SLOAD PUSH2 0x48ED JUMP JUMPDEST PUSH1 0x1F DUP2 GT PUSH2 0x2A86 JUMPI JUMPDEST POP DUP9 SWAP1 PUSH1 0x1F DUP4 GT PUSH1 0x1 EQ PUSH2 0x2A1F JUMPI PUSH2 0x2993 SWAP6 SWAP5 SWAP4 SWAP3 SWAP2 PUSH0 SWAP2 DUP4 PUSH2 0x2A14 JUMPI JUMPDEST POP POP PUSH0 NOT PUSH1 0x3 DUP4 SWAP1 SHL SHR NOT AND SWAP1 DUP4 SHL OR DUP4 SSTORE JUMPDEST MLOAD ISZERO ISZERO SWAP2 ADD SWAP1 PUSH1 0xFF DUP1 NOT DUP4 SLOAD AND SWAP2 ISZERO ISZERO AND OR SWAP1 SSTORE JUMP JUMPDEST PUSH2 0x29E7 JUMPI POP SWAP2 PUSH0 SWAP6 SWAP2 PUSH32 0xF9D17EB1340AB78960B594FF8BED1349985B800EE21199C6D5EA4A67454593AD SWAP4 DUP8 MSTORE PUSH1 0xB DUP2 MSTORE DUP7 DUP3 DUP2 KECCAK256 SSTORE PUSH2 0x29D4 DUP4 DUP8 DUP8 PUSH2 0x5D2E JUMP JUMPDEST PUSH2 0x1624 DUP3 MLOAD SWAP4 DUP4 DUP6 SWAP5 DUP6 MSTORE DUP5 ADD SWAP1 PUSH2 0x49C7 JUMP JUMPDEST SWAP6 SWAP5 SWAP4 SWAP3 POP POP DUP5 MLOAD DUP2 DUP7 ADD KECCAK256 SWAP1 DUP5 MLOAD SWAP1 DUP6 ADD KECCAK256 SUB PUSH2 0x2A01 JUMPI STOP JUMPDEST PUSH2 0x2A0F PUSH2 0x4CE SWAP5 DUP4 DUP4 PUSH2 0x545A JUMP JUMPDEST PUSH2 0x5D2E JUMP JUMPDEST ADD MLOAD SWAP1 POP PUSH0 DUP1 PUSH2 0x296A JUMP JUMPDEST SWAP1 PUSH1 0x1F NOT DUP4 AND SWAP2 DUP7 PUSH0 MSTORE DUP11 PUSH0 KECCAK256 SWAP3 PUSH0 JUMPDEST DUP13 DUP3 DUP3 LT PUSH2 0x2A72 JUMPI POP POP SWAP2 DUP7 SWAP6 SWAP5 SWAP3 SWAP2 DUP4 PUSH2 0x2993 SWAP10 SWAP9 SWAP6 SWAP4 LT PUSH2 0x2A5A JUMPI JUMPDEST POP POP POP DUP2 SHL ADD DUP4 SSTORE PUSH2 0x297D JUMP JUMPDEST ADD MLOAD PUSH0 NOT PUSH1 0xF8 DUP5 PUSH1 0x3 SHL AND SHR NOT AND SWAP1 SSTORE PUSH0 DUP1 DUP1 PUSH2 0x2A4D JUMP JUMPDEST DUP4 DUP6 ADD MLOAD DUP7 SSTORE SWAP5 DUP9 ADD SWAP5 SWAP4 DUP5 ADD SWAP4 ADD PUSH2 0x2A2F JUMP JUMPDEST DUP6 PUSH0 MSTORE DUP10 PUSH0 KECCAK256 PUSH1 0x1F DUP5 ADD PUSH1 0x5 SHR DUP2 ADD SWAP2 DUP12 DUP6 LT PUSH2 0x2AC2 JUMPI JUMPDEST PUSH1 0x1F ADD PUSH1 0x5 SHR ADD SWAP1 DUP6 SWAP1 JUMPDEST DUP3 DUP2 LT PUSH2 0x2AB7 JUMPI POP POP PUSH2 0x294C JUMP JUMPDEST PUSH0 DUP2 SSTORE ADD DUP6 SWAP1 PUSH2 0x2AA9 JUMP JUMPDEST SWAP1 SWAP2 POP DUP2 SWAP1 PUSH2 0x2A9E JUMP JUMPDEST PUSH1 0x41 SWAP1 PUSH4 0x4E487B71 PUSH1 0xE0 SHL PUSH0 MSTORE MSTORE PUSH1 0x24 PUSH0 REVERT JUMPDEST DUP4 MLOAD PUSH3 0x461BCD PUSH1 0xE5 SHL DUP2 MSTORE SWAP1 DUP2 ADD DUP4 SWAP1 MSTORE PUSH1 0x1A PUSH1 0x24 DUP3 ADD MSTORE PUSH32 0x5265636F726420616C726561647920696E697469616C697A6564000000000000 PUSH1 0x44 DUP3 ADD MSTORE PUSH1 0x64 SWAP1 REVERT JUMPDEST POP PUSH1 0x7 DUP4 MSTORE DUP4 PUSH0 KECCAK256 SLOAD ISZERO PUSH2 0x28D9 JUMP JUMPDEST DUP4 MLOAD PUSH3 0x461BCD PUSH1 0xE5 SHL DUP2 MSTORE SWAP1 DUP2 ADD DUP4 SWAP1 MSTORE PUSH1 0x18 PUSH1 0x24 DUP3 ADD MSTORE PUSH32 0x4D75737420626520616E20616374697665206D656D6265720000000000000000 PUSH1 0x44 DUP3 ADD MSTORE PUSH1 0x64 SWAP1 REVERT JUMPDEST DUP3 CALLVALUE PUSH2 0x3A0 JUMPI PUSH2 0x2B83 CALLDATASIZE PUSH2 0x4877 JUMP JUMPDEST PUSH2 0x2B98 PUSH1 0x1 DUP1 PUSH1 0xA0 SHL SUB PUSH1 0xA SLOAD AND CALLER EQ PUSH2 0x4EAA JUMP JUMPDEST DUP2 PUSH0 MSTORE PUSH1 0x20 PUSH1 0xD PUSH1 0x20 MSTORE DUP4 PUSH0 KECCAK256 SWAP3 PUSH0 JUMPDEST DUP5 SLOAD DUP2 LT ISZERO PUSH2 0x4CE JUMPI DUP1 PUSH2 0x2BBE PUSH1 0x1 SWAP3 DUP8 PUSH2 0x4A44 JUMP JUMPDEST SWAP1 SLOAD SWAP1 PUSH1 0x3 SHL SHR DUP4 PUSH0 MSTORE PUSH1 0xC DUP6 MSTORE DUP8 PUSH0 KECCAK256 DUP2 PUSH0 MSTORE DUP6 MSTORE PUSH1 0x2 DUP9 PUSH0 KECCAK256 DUP10 MLOAD SWAP1 PUSH2 0x2BE5 DUP3 PUSH2 0x4632 JUMP JUMPDEST SLOAD PUSH1 0xFF SWAP1 DUP2 DUP2 AND PUSH2 0x2BF5 DUP2 PUSH2 0x4A6D JUMP JUMPDEST DUP4 MSTORE PUSH1 0x8 SHR AND PUSH2 0x2C04 DUP2 PUSH2 0x488D JUMP JUMPDEST DUP8 DUP3 ADD MSTORE MLOAD PUSH2 0x2C12 DUP2 PUSH2 0x4A6D JUMP JUMPDEST PUSH2 0x2C1B DUP2 PUSH2 0x4A6D JUMP JUMPDEST SUB PUSH2 0x2C31 JUMPI PUSH2 0x2C2B SWAP1 DUP5 DUP8 PUSH2 0x5888 JUMP JUMPDEST ADD PUSH2 0x2BA8 JUMP JUMPDEST POP PUSH2 0x2C2B JUMP JUMPDEST DUP3 CALLVALUE PUSH2 0x3A0 JUMPI DUP1 PUSH1 0x3 NOT CALLDATASIZE ADD SLT PUSH2 0x3A0 JUMPI PUSH1 0x1 PUSH1 0x1 PUSH1 0x40 SHL SUB SWAP1 DUP3 CALLDATALOAD DUP3 DUP2 GT PUSH2 0x3A0 JUMPI CALLDATASIZE PUSH1 0x23 DUP3 ADD SLT ISZERO PUSH2 0x3A0 JUMPI DUP1 DUP5 ADD CALLDATALOAD SWAP3 DUP4 GT PUSH2 0x3A0 JUMPI PUSH1 0x24 PUSH1 0x5 SWAP2 CALLDATASIZE PUSH1 0x24 DUP7 PUSH1 0x5 SHL DUP4 ADD ADD GT PUSH2 0x3A0 JUMPI PUSH0 SLOAD PUSH1 0x1 PUSH1 0x1 PUSH1 0xA0 SHL SUB SWAP7 PUSH1 0x24 CALLDATALOAD SWAP6 SWAP2 PUSH2 0x2CA1 SWAP1 DUP10 AND CALLER EQ PUSH2 0x4C0C JUMP JUMPDEST DUP7 ISZERO PUSH2 0x2DF2 JUMPI PUSH2 0x2CB2 DUP7 ISZERO ISZERO PUSH2 0x4FD7 JUMP JUMPDEST DUP6 PUSH0 MSTORE PUSH1 0x2 SWAP4 PUSH1 0x20 SWAP4 PUSH1 0x2 DUP6 MSTORE PUSH1 0xFF DUP5 PUSH0 KECCAK256 SLOAD AND PUSH2 0x2CCF DUP2 PUSH2 0x4A6D JUMP JUMPDEST ISZERO SWAP7 PUSH0 JUMPDEST DUP11 DUP2 LT PUSH2 0x2CDC JUMPI STOP JUMPDEST DUP4 DUP2 DUP4 SHL DUP5 ADD ADD CALLDATALOAD SWAP1 DUP13 DUP3 AND SWAP2 DUP3 DUP2 SUB PUSH2 0x3A0 JUMPI DUP3 PUSH2 0x2D63 DUP14 SWAP3 PUSH2 0x2D03 PUSH1 0x1 SWAP7 ISZERO ISZERO PUSH2 0x4F92 JUMP JUMPDEST DUP3 PUSH0 MSTORE PUSH2 0x2D54 DUP12 DUP14 DUP9 SWAP1 DUP2 DUP2 MSTORE PUSH2 0x2D1D DUP4 PUSH0 KECCAK256 SLOAD ISZERO PUSH2 0x501A JUMP JUMPDEST DUP3 MLOAD SWAP3 PUSH2 0x2D29 DUP5 PUSH2 0x4632 JUMP JUMPDEST DUP9 DUP5 MSTORE DUP3 DUP3 DUP6 ADD SWAP3 DUP2 DUP5 MSTORE DUP10 PUSH0 MSTORE MSTORE PUSH0 KECCAK256 SWAP3 MLOAD DUP4 SSTORE MLOAD ISZERO ISZERO SWAP2 ADD SWAP1 PUSH1 0xFF DUP1 NOT DUP4 SLOAD AND SWAP2 ISZERO ISZERO AND OR SWAP1 SSTORE JUMP JUMPDEST DUP4 PUSH0 MSTORE PUSH1 0x3 DUP13 MSTORE DUP11 PUSH0 KECCAK256 PUSH2 0x5066 JUMP JUMPDEST DUP3 ISZERO DUP1 PUSH2 0x2DEB JUMPI JUMPDEST ISZERO PUSH2 0x2DBE JUMPI DUP2 PUSH0 MSTORE DUP11 DUP11 MSTORE DUP9 PUSH0 KECCAK256 DUP12 PUSH1 0xFF NOT DUP3 SLOAD AND OR SWAP1 SSTORE PUSH2 0x2D8D DUP9 SLOAD PUSH2 0x50B9 JUMP JUMPDEST DUP9 SSTORE PUSH32 0x39D132591EE0696DE49AB564E4A90E430C006561917DB731A2A614DD2D245591 DUP11 DUP11 MLOAD TIMESTAMP DUP2 MSTORE LOG3 JUMPDEST ADD PUSH2 0x2CD3 JUMP JUMPDEST PUSH32 0x1CC138F50384BE7770A8E4A34EECAA0D0C718BFAA1641AF49DB32532E4A5B910 DUP11 DUP11 MLOAD TIMESTAMP DUP2 MSTORE LOG3 PUSH2 0x2DB8 JUMP JUMPDEST POP DUP12 PUSH2 0x2D6B JUMP JUMPDEST PUSH1 0x20 PUSH1 0x64 SWAP3 MLOAD SWAP2 PUSH3 0x461BCD PUSH1 0xE5 SHL DUP4 MSTORE DUP3 ADD MSTORE PUSH1 0x13 PUSH1 0x24 DUP3 ADD MSTORE PUSH19 0x139BC81DD85B1B195D1CC81C1C9BDD9A591959 PUSH1 0x6A SHL PUSH1 0x44 DUP3 ADD MSTORE REVERT JUMPDEST DUP3 CALLVALUE PUSH2 0x3A0 JUMPI PUSH2 0x2E39 CALLDATASIZE PUSH2 0x4877 JUMP JUMPDEST SWAP2 SWAP1 PUSH0 MSTORE PUSH1 0x11 PUSH1 0x20 MSTORE DUP1 PUSH0 KECCAK256 DUP1 SLOAD DUP4 LT ISZERO PUSH2 0x3A0 JUMPI PUSH1 0x20 SWAP3 PUSH2 0x392 SWAP2 PUSH2 0x4A44 JUMP JUMPDEST DUP3 CALLVALUE PUSH2 0x3A0 JUMPI PUSH1 0x20 SWAP1 PUSH2 0x1AD4 PUSH2 0x2E6F CALLDATASIZE PUSH2 0x4877 JUMP JUMPDEST SWAP1 PUSH2 0x557D JUMP JUMPDEST DUP3 CALLVALUE PUSH2 0x3A0 JUMPI PUSH2 0x2E84 CALLDATASIZE PUSH2 0x4877 JUMP JUMPDEST SWAP2 SWAP1 PUSH0 MSTORE PUSH1 0x6 PUSH1 0x20 MSTORE DUP1 PUSH0 KECCAK256 DUP1 SLOAD DUP4 LT ISZERO PUSH2 0x3A0 JUMPI PUSH1 0x20 SWAP3 PUSH2 0x392 SWAP2 PUSH2 0x4A44 JUMP JUMPDEST DUP3 CALLVALUE PUSH2 0x3A0 JUMPI PUSH1 0x20 SWAP1 PUSH2 0x2EB7 CALLDATASIZE PUSH2 0x4877 JUMP JUMPDEST SWAP1 PUSH0 MSTORE PUSH1 0xC DUP4 MSTORE DUP2 PUSH0 KECCAK256 SWAP1 PUSH0 MSTORE DUP3 MSTORE DUP1 PUSH0 KECCAK256 SWAP1 PUSH1 0x2 PUSH1 0xFF DUP3 MLOAD SWAP4 PUSH2 0x2EDA DUP6 PUSH2 0x4632 JUMP JUMPDEST SLOAD DUP2 DUP2 AND PUSH2 0x2EE7 DUP2 PUSH2 0x4A6D JUMP JUMPDEST DUP6 MSTORE PUSH1 0x8 SHR AND SWAP3 DUP5 DUP2 ADD SWAP4 PUSH2 0x2EFB DUP2 PUSH2 0x488D JUMP JUMPDEST DUP5 MSTORE MLOAD PUSH2 0x2F07 DUP2 PUSH2 0x4A6D JUMP JUMPDEST PUSH2 0x2F10 DUP2 PUSH2 0x4A6D JUMP JUMPDEST EQ SWAP2 DUP3 PUSH2 0x2F21 JUMPI JUMPDEST POP MLOAD SWAP1 ISZERO ISZERO DUP2 MSTORE RETURN JUMPDEST PUSH1 0x2 SWAP2 SWAP3 POP MLOAD PUSH2 0x2F30 DUP2 PUSH2 0x488D JUMP JUMPDEST PUSH2 0x2F39 DUP2 PUSH2 0x488D JUMP JUMPDEST EQ SWAP1 DUP4 PUSH2 0x2F18 JUMP JUMPDEST DUP3 CALLVALUE PUSH2 0x3A0 JUMPI PUSH0 CALLDATASIZE PUSH1 0x3 NOT ADD SLT PUSH2 0x3A0 JUMPI PUSH32 0x0 PUSH1 0x1 PUSH1 0x1 PUSH1 0xA0 SHL SUB AND ADDRESS SUB PUSH2 0x2FAB JUMPI PUSH1 0x20 SWAP1 MLOAD PUSH32 0x360894A13BA1A3210667C828492DB98DCA3E2076CC3735A920A3CA505D382BBC DUP2 MSTORE RETURN JUMPDEST MLOAD PUSH4 0x703E46DD PUSH1 0xE1 SHL DUP2 MSTORE REVERT JUMPDEST DUP3 CALLVALUE PUSH2 0x3A0 JUMPI PUSH2 0x2FC7 CALLDATASIZE PUSH2 0x4777 JUMP JUMPDEST SWAP1 PUSH2 0x2FD4 PUSH2 0x426 CALLER PUSH2 0x5337 JUMP JUMPDEST PUSH2 0x2FE1 DUP4 MLOAD DUP4 MLOAD EQ PUSH2 0x4ADD JUMP JUMPDEST CALLER PUSH0 MSTORE PUSH1 0x1 SWAP4 PUSH1 0x20 SWAP2 DUP6 DUP4 MSTORE DUP2 PUSH0 KECCAK256 SLOAD SWAP1 PUSH1 0x1 DUP1 PUSH1 0xA0 SHL SUB AND PUSH0 MSTORE DUP2 PUSH0 KECCAK256 SLOAD SWAP1 PUSH2 0x300C DUP3 ISZERO ISZERO PUSH2 0x4B21 JUMP JUMPDEST DUP7 PUSH0 SWAP7 DUP4 DUP4 EQ SWAP2 JUMPDEST PUSH2 0x301A JUMPI STOP JUMPDEST DUP1 MLOAD DUP9 LT ISZERO PUSH2 0x4CE JUMPI DUP9 DUP9 PUSH2 0x3030 DUP3 SWAP11 DUP5 PUSH2 0x516D JUMP JUMPDEST MLOAD PUSH2 0x303B DUP3 DUP12 PUSH2 0x516D JUMP JUMPDEST MLOAD PUSH2 0x3045 DUP2 PUSH2 0x5505 JUMP JUMPDEST ISZERO PUSH2 0x3328 JUMPI PUSH2 0x3054 DUP8 DUP4 PUSH2 0x5426 JUMP JUMPDEST PUSH0 MSTORE PUSH1 0x5 DUP1 DUP12 MSTORE PUSH1 0xFF DUP1 DUP7 DUP13 PUSH0 KECCAK256 ADD SLOAD AND ISZERO PUSH2 0x331F JUMPI PUSH2 0x3074 DUP11 DUP6 PUSH2 0x5426 JUMP JUMPDEST PUSH0 MSTORE DUP2 DUP13 MSTORE DUP6 DUP12 PUSH0 KECCAK256 ADD SLOAD AND ISZERO PUSH2 0x3317 JUMPI PUSH2 0x308F DUP10 DUP5 PUSH2 0x5426 JUMP JUMPDEST PUSH0 MSTORE DUP11 MSTORE PUSH2 0x309E DUP10 PUSH0 KECCAK256 PUSH2 0x4925 JUMP JUMPDEST SWAP1 DUP9 DUP9 DUP13 DUP5 MLOAD DUP2 DUP7 ADD KECCAK256 DUP14 DUP6 MLOAD DUP4 DUP8 ADD KECCAK256 SWAP1 DUP2 DUP4 EQ PUSH2 0x31AA JUMPI PUSH2 0x30BF PUSH2 0x4CD5 JUMP JUMPDEST DUP5 DUP2 MLOAD SWAP2 ADD KECCAK256 DUP4 EQ PUSH2 0x31AA JUMPI DUP9 PUSH0 MSTORE PUSH1 0x6 DUP5 MSTORE PUSH0 KECCAK256 SLOAD ISZERO SWAP2 DUP3 ISZERO PUSH2 0x30EB PUSH2 0x30E4 PUSH2 0x4CD5 JUMP JUMPDEST DUP8 DUP13 PUSH2 0x53C8 JUMP JUMPDEST SWAP1 PUSH2 0x30FE PUSH2 0x30F7 PUSH2 0x4E5F JUMP JUMPDEST DUP9 DUP14 PUSH2 0x53C8 JUMP JUMPDEST SWAP1 PUSH2 0x310C DUP13 DUP10 PUSH2 0x8A1 PUSH2 0x4E88 JUMP JUMPDEST PUSH2 0x3114 PUSH2 0x4CD5 JUMP JUMPDEST DUP1 MLOAD SWAP1 DUP10 ADD KECCAK256 DUP7 SUB PUSH2 0x31CC JUMPI POP ISZERO PUSH2 0x31B8 JUMPI POP ISZERO PUSH2 0x31AA JUMPI JUMPDEST PUSH2 0x3135 PUSH2 0x4E5F JUMP JUMPDEST DUP5 DUP2 MLOAD SWAP2 ADD KECCAK256 EQ SWAP3 DUP4 PUSH2 0x3190 JUMPI JUMPDEST POP POP DUP2 PUSH2 0x3188 JUMPI JUMPDEST POP DUP1 PUSH2 0x3170 JUMPI JUMPDEST PUSH2 0x3166 JUMPI PUSH2 0x315F SWAP5 PUSH2 0x5607 JUMP JUMPDEST ADD SWAP8 PUSH2 0x3014 JUMP JUMPDEST POP POP POP POP POP PUSH2 0x315F JUMP JUMPDEST POP POP POP DUP3 PUSH0 MSTORE PUSH1 0x7 DUP12 MSTORE DUP9 DUP9 DUP7 DUP13 PUSH0 KECCAK256 SLOAD GT ISZERO PUSH2 0x3152 JUMP JUMPDEST SWAP1 POP PUSH0 PUSH2 0x314B JUMP JUMPDEST SWAP1 SWAP2 SWAP3 POP PUSH2 0x319C PUSH2 0x4D38 JUMP JUMPDEST DUP1 MLOAD SWAP2 ADD KECCAK256 EQ SWAP1 PUSH0 DUP16 PUSH2 0x3143 JUMP JUMPDEST POP POP POP POP POP POP POP POP POP PUSH2 0x315F JUMP JUMPDEST SWAP1 POP PUSH2 0x312D JUMPI POP POP POP POP POP POP POP POP POP PUSH2 0x315F JUMP JUMPDEST SWAP2 SWAP3 SWAP1 PUSH2 0x31D7 PUSH2 0x4E5F JUMP JUMPDEST DUP1 MLOAD SWAP1 DUP10 ADD KECCAK256 DUP7 SUB PUSH2 0x3202 JUMPI POP SWAP1 POP ISZERO SWAP1 DUP2 PUSH2 0x31F9 JUMPI JUMPDEST POP PUSH2 0x31AA JUMPI JUMPDEST PUSH2 0x312D JUMP JUMPDEST SWAP1 POP ISZERO PUSH0 PUSH2 0x31EE JUMP JUMPDEST PUSH2 0x320A PUSH2 0x4E88 JUMP JUMPDEST DUP1 MLOAD SWAP1 DUP10 ADD KECCAK256 DUP7 SUB PUSH2 0x3286 JUMPI ISZERO PUSH2 0x3252 JUMPI ISZERO SWAP2 DUP3 PUSH2 0x3249 JUMPI JUMPDEST POP DUP2 PUSH2 0x3233 JUMPI POP PUSH2 0x31AA JUMPI PUSH2 0x312D JUMP JUMPDEST SWAP1 POP DUP1 PUSH2 0x3242 JUMPI JUMPDEST ISZERO PUSH0 PUSH2 0x31EE JUMP JUMPDEST POP DUP13 PUSH2 0x323B JUMP JUMPDEST ISZERO SWAP2 POP PUSH0 PUSH2 0x3223 JUMP JUMPDEST POP SWAP1 ISZERO SWAP1 DUP2 PUSH2 0x3270 JUMPI JUMPDEST POP ISZERO PUSH2 0x31F4 JUMPI POP POP POP POP POP POP POP POP POP PUSH2 0x315F JUMP JUMPDEST SWAP1 POP DUP1 PUSH2 0x327F JUMPI JUMPDEST ISZERO PUSH0 PUSH2 0x325C JUMP JUMPDEST POP DUP13 PUSH2 0x3278 JUMP JUMPDEST PUSH2 0x328E PUSH2 0x4D38 JUMP JUMPDEST DUP9 DUP2 MLOAD SWAP2 ADD KECCAK256 DUP7 EQ PUSH2 0x32A4 JUMPI JUMPDEST POP POP POP POP PUSH2 0x312D JUMP JUMPDEST ISZERO PUSH2 0x3303 JUMPI ISZERO SWAP2 DUP3 PUSH2 0x32EB JUMPI JUMPDEST POP DUP2 PUSH2 0x32D5 JUMPI JUMPDEST POP PUSH2 0x31AA JUMPI JUMPDEST PUSH2 0x32C8 DUP7 DUP11 PUSH2 0x557D JUMP JUMPDEST PUSH2 0x31AA JUMPI PUSH0 DUP1 DUP1 DUP1 PUSH2 0x329B JUMP JUMPDEST SWAP1 POP DUP1 PUSH2 0x32E4 JUMPI JUMPDEST ISZERO PUSH0 PUSH2 0x32B8 JUMP JUMPDEST POP DUP13 PUSH2 0x32DD JUMP JUMPDEST SWAP1 SWAP2 POP DUP1 PUSH2 0x32FC JUMPI JUMPDEST ISZERO SWAP1 PUSH0 PUSH2 0x32B1 JUMP JUMPDEST POP DUP14 PUSH2 0x32F4 JUMP JUMPDEST POP POP PUSH2 0x32BE JUMPI POP POP POP POP POP POP POP POP POP PUSH2 0x315F JUMP JUMPDEST POP POP POP PUSH2 0x315F JUMP JUMPDEST POP POP POP POP PUSH2 0x315F JUMP JUMPDEST POP POP PUSH2 0x315F JUMP JUMPDEST SWAP1 POP DUP2 PUSH1 0x3 NOT CALLDATASIZE ADD SLT PUSH2 0x3A0 JUMPI PUSH2 0x3344 PUSH2 0x4606 JUMP JUMPDEST SWAP2 PUSH1 0x24 CALLDATALOAD PUSH1 0x1 PUSH1 0x1 PUSH1 0x40 SHL SUB DUP2 GT PUSH2 0x3A0 JUMPI CALLDATASIZE PUSH1 0x23 DUP3 ADD SLT ISZERO PUSH2 0x3A0 JUMPI PUSH2 0x3374 SWAP1 CALLDATASIZE SWAP1 PUSH1 0x24 DUP2 DUP7 ADD CALLDATALOAD SWAP2 ADD PUSH2 0x4714 JUMP JUMPDEST SWAP1 PUSH1 0x1 PUSH1 0x1 PUSH1 0xA0 SHL SUB PUSH32 0x0 DUP2 AND ADDRESS DUP2 EQ SWAP1 DUP2 ISZERO PUSH2 0x34FE JUMPI JUMPDEST POP PUSH2 0x34EE JUMPI PUSH2 0x33BE DUP2 PUSH0 SLOAD AND CALLER EQ PUSH2 0x4C0C JUMP JUMPDEST DUP5 AND SWAP2 DUP2 MLOAD SWAP5 PUSH4 0x52D1902D PUSH1 0xE0 SHL DUP7 MSTORE PUSH1 0x20 DUP7 DUP7 DUP2 DUP8 GAS STATICCALL PUSH0 SWAP7 DUP2 PUSH2 0x34BA JUMPI JUMPDEST POP PUSH2 0x33FA JUMPI POP POP MLOAD PUSH4 0x4C9C8CE3 PUSH1 0xE0 SHL DUP2 MSTORE SWAP2 DUP3 ADD MSTORE PUSH1 0x24 SWAP2 POP REVERT JUMPDEST DUP4 DUP6 SWAP4 DUP8 PUSH32 0x360894A13BA1A3210667C828492DB98DCA3E2076CC3735A920A3CA505D382BBC SWAP1 DUP2 DUP2 SUB PUSH2 0x34A4 JUMPI POP DUP4 EXTCODESIZE ISZERO PUSH2 0x348D JUMPI DUP1 SLOAD PUSH1 0x1 PUSH1 0x1 PUSH1 0xA0 SHL SUB NOT AND DUP4 OR SWAP1 SSTORE MLOAD SWAP1 PUSH32 0xBC7CD75A20EE27FD9ADEBAB32041F755214DBC6BFFA90CC0225B39DA2E5C2D3B PUSH0 DUP1 LOG2 DUP3 MLOAD ISZERO PUSH2 0x3477 JUMPI POP PUSH2 0x4CE SWAP3 POP PUSH2 0x5DD9 JUMP JUMPDEST SWAP2 POP POP CALLVALUE PUSH2 0x3481 JUMPI STOP JUMPDEST PUSH4 0xB398979F PUSH1 0xE0 SHL DUP2 MSTORE REVERT JUMPDEST DUP2 MLOAD PUSH4 0x4C9C8CE3 PUSH1 0xE0 SHL DUP2 MSTORE DUP1 DUP8 ADD DUP5 SWAP1 MSTORE PUSH1 0x24 SWAP1 REVERT JUMPDEST DUP7 PUSH1 0x24 SWAP2 DUP5 MLOAD SWAP2 PUSH4 0x2A875269 PUSH1 0xE2 SHL DUP4 MSTORE DUP3 ADD MSTORE REVERT JUMPDEST SWAP1 SWAP7 POP PUSH1 0x20 DUP2 RETURNDATASIZE PUSH1 0x20 GT PUSH2 0x34E6 JUMPI JUMPDEST DUP2 PUSH2 0x34D6 PUSH1 0x20 SWAP4 DUP4 PUSH2 0x467C JUMP JUMPDEST DUP2 ADD SUB SLT PUSH2 0x3A0 JUMPI MLOAD SWAP6 PUSH0 PUSH2 0x33DE JUMP JUMPDEST RETURNDATASIZE SWAP2 POP PUSH2 0x34C9 JUMP JUMPDEST DUP2 MLOAD PUSH4 0x703E46DD PUSH1 0xE1 SHL DUP2 MSTORE DUP5 SWAP1 REVERT JUMPDEST SWAP1 POP DUP2 PUSH32 0x360894A13BA1A3210667C828492DB98DCA3E2076CC3735A920A3CA505D382BBC SLOAD AND EQ ISZERO PUSH0 PUSH2 0x33AB JUMP JUMPDEST SWAP1 POP CALLVALUE PUSH2 0x3A0 JUMPI PUSH2 0x353C CALLDATASIZE PUSH2 0x4A25 JUMP JUMPDEST SWAP2 SWAP1 PUSH2 0x354A PUSH2 0x426 CALLER PUSH2 0x5337 JUMP JUMPDEST CALLER PUSH0 MSTORE PUSH1 0x1 PUSH1 0x20 MSTORE DUP4 PUSH0 KECCAK256 SLOAD SWAP2 DUP2 PUSH0 MSTORE PUSH1 0xC PUSH1 0x20 MSTORE DUP5 PUSH0 KECCAK256 DUP4 PUSH0 MSTORE PUSH1 0x20 MSTORE DUP5 PUSH0 KECCAK256 PUSH1 0xFF DUP2 SLOAD PUSH2 0x3580 PUSH1 0x2 DUP4 DUP4 AND PUSH2 0x20AE DUP2 PUSH2 0x4A6D JUMP JUMPDEST PUSH2 0x3589 DUP8 PUSH2 0x488D JUMP JUMPDEST PUSH1 0x8 SHR AND SWAP2 PUSH2 0x3597 DUP4 PUSH2 0x488D JUMP JUMPDEST DUP3 PUSH1 0xFF DUP8 AND LT ISZERO PUSH2 0x35D8 JUMPI POP PUSH32 0xB36EC3C738EF8ECD9180ADDC815304762374B76E91C2A321831D9906EA119ADE PUSH2 0x2115 DUP6 SWAP4 PUSH2 0x4CE SWAP9 PUSH2 0x2108 DUP10 DUP9 SWAP7 PUSH2 0x5127 JUMP JUMPDEST PUSH1 0x84 SWAP1 PUSH1 0x20 DUP9 MLOAD SWAP2 PUSH3 0x461BCD PUSH1 0xE5 SHL DUP4 MSTORE DUP3 ADD MSTORE PUSH1 0x23 PUSH1 0x24 DUP3 ADD MSTORE PUSH32 0x43616E206F6E6C7920646F776E677261646520746F2061206C6F776572206C65 PUSH1 0x44 DUP3 ADD MSTORE PUSH3 0x1D995B PUSH1 0xEA SHL PUSH1 0x64 DUP3 ADD MSTORE REVERT JUMPDEST DUP3 CALLVALUE PUSH2 0x3A0 JUMPI DUP1 PUSH1 0x3 NOT CALLDATASIZE ADD SLT PUSH2 0x3A0 JUMPI PUSH2 0x3640 PUSH2 0x4606 JUMP JUMPDEST SWAP2 PUSH1 0x24 CALLDATALOAD SWAP3 PUSH1 0x1 DUP1 PUSH1 0xA0 SHL SUB PUSH2 0x365A DUP2 PUSH0 SLOAD AND CALLER EQ PUSH2 0x4C0C JUMP JUMPDEST DUP2 AND SWAP3 PUSH2 0x3668 DUP5 ISZERO ISZERO PUSH2 0x4F92 JUMP JUMPDEST PUSH2 0x3673 DUP6 ISZERO ISZERO PUSH2 0x4FD7 JUMP JUMPDEST DUP4 PUSH0 MSTORE PUSH2 0x36D8 PUSH1 0x20 SWAP3 PUSH1 0x1 DUP5 MSTORE PUSH2 0x368D DUP4 PUSH0 KECCAK256 SLOAD ISZERO PUSH2 0x501A JUMP JUMPDEST PUSH2 0x36C9 DUP4 MLOAD PUSH2 0x369B DUP2 PUSH2 0x4632 JUMP JUMPDEST DUP9 DUP2 MSTORE PUSH1 0x1 DUP7 DUP3 ADD DUP2 DUP2 MSTORE DUP10 PUSH0 MSTORE DUP2 DUP9 MSTORE DUP7 PUSH0 KECCAK256 SWAP3 MLOAD DUP4 SSTORE MLOAD ISZERO ISZERO SWAP2 ADD SWAP1 PUSH1 0xFF DUP1 NOT DUP4 SLOAD AND SWAP2 ISZERO ISZERO AND OR SWAP1 SSTORE JUMP JUMPDEST DUP7 PUSH0 MSTORE PUSH1 0x3 DUP5 MSTORE DUP3 PUSH0 KECCAK256 PUSH2 0x5066 JUMP JUMPDEST DUP5 PUSH0 MSTORE PUSH1 0x2 DUP3 MSTORE PUSH1 0xFF DUP2 PUSH0 KECCAK256 SLOAD AND PUSH2 0x36EF DUP2 PUSH2 0x4A6D JUMP JUMPDEST PUSH2 0x373D JUMPI PUSH32 0x39D132591EE0696DE49AB564E4A90E430C006561917DB731A2A614DD2D245591 SWAP3 DUP6 PUSH0 MSTORE PUSH1 0x2 DUP4 MSTORE DUP2 PUSH0 KECCAK256 PUSH1 0x2 PUSH1 0xFF NOT DUP3 SLOAD AND OR SWAP1 SSTORE PUSH2 0x3734 DUP2 SLOAD PUSH2 0x50B9 JUMP JUMPDEST SWAP1 SSTORE MLOAD TIMESTAMP DUP2 MSTORE LOG3 STOP JUMPDEST PUSH32 0x1CC138F50384BE7770A8E4A34EECAA0D0C718BFAA1641AF49DB32532E4A5B910 SWAP3 POP MLOAD TIMESTAMP DUP2 MSTORE LOG3 STOP JUMPDEST DUP3 CALLVALUE PUSH2 0x3A0 JUMPI PUSH1 0x20 CALLDATASIZE PUSH1 0x3 NOT ADD SLT PUSH2 0x3A0 JUMPI PUSH1 0x20 SWAP1 PUSH2 0x1AD4 PUSH2 0x28BD PUSH2 0x4606 JUMP JUMPDEST DUP3 CALLVALUE PUSH2 0x3A0 JUMPI PUSH1 0x20 SWAP1 PUSH2 0x379C PUSH2 0x2175 CALLDATASIZE PUSH2 0x4877 JUMP JUMPDEST PUSH0 MSTORE PUSH1 0x5 DUP3 MSTORE PUSH2 0x637 DUP2 PUSH0 KECCAK256 SWAP2 DUP1 MLOAD PUSH2 0x37B4 DUP2 PUSH2 0x4632 JUMP JUMPDEST PUSH1 0xFF PUSH1 0x1 PUSH2 0x37C1 DUP7 PUSH2 0x4925 JUMP JUMPDEST SWAP6 DUP7 DUP5 MSTORE ADD SLOAD AND ISZERO ISZERO SWAP5 DUP6 SWAP2 ADD MSTORE MLOAD SWAP3 DUP4 SWAP3 DUP4 PUSH2 0x4A05 JUMP JUMPDEST DUP3 CALLVALUE PUSH2 0x3A0 JUMPI DUP1 PUSH1 0x3 NOT CALLDATASIZE ADD SLT PUSH2 0x3A0 JUMPI PUSH2 0x3800 PUSH2 0x637 SWAP3 PUSH2 0x37F9 PUSH2 0x461C JUMP JUMPDEST SWAP1 CALLDATALOAD PUSH2 0x4F1A JUMP JUMPDEST SWAP3 SWAP1 SWAP2 MLOAD SWAP3 DUP4 SWAP3 DUP4 PUSH2 0x4A05 JUMP JUMPDEST DUP3 CALLVALUE PUSH2 0x3A0 JUMPI PUSH1 0x20 CALLDATASIZE PUSH1 0x3 NOT ADD SLT PUSH2 0x3A0 JUMPI PUSH2 0x637 SWAP2 CALLDATALOAD PUSH0 MSTORE PUSH1 0x7 PUSH1 0x20 MSTORE PUSH2 0x624 DUP2 PUSH0 KECCAK256 PUSH2 0x4B6D JUMP JUMPDEST DUP3 CALLVALUE PUSH2 0x3A0 JUMPI PUSH1 0x20 SWAP1 PUSH2 0x1AD4 PUSH2 0x384B CALLDATASIZE PUSH2 0x48AB JUMP JUMPDEST SWAP2 PUSH2 0x4EEE JUMP JUMPDEST SWAP1 POP CALLVALUE PUSH2 0x3A0 JUMPI PUSH1 0x20 CALLDATASIZE PUSH1 0x3 NOT ADD SLT PUSH2 0x3A0 JUMPI CALLDATALOAD PUSH0 MSTORE PUSH1 0x5 PUSH1 0x20 MSTORE DUP1 PUSH0 KECCAK256 PUSH2 0x637 PUSH1 0xFF PUSH1 0x1 PUSH2 0x387F DUP5 PUSH2 0x4925 JUMP JUMPDEST SWAP4 ADD SLOAD AND SWAP3 MLOAD SWAP3 DUP4 SWAP3 DUP4 PUSH2 0x4A05 JUMP JUMPDEST DUP3 CALLVALUE PUSH2 0x3A0 JUMPI PUSH2 0x389D CALLDATASIZE PUSH2 0x4877 JUMP JUMPDEST PUSH2 0x38B2 PUSH1 0x1 DUP1 PUSH1 0xA0 SHL SUB PUSH1 0xA SLOAD AND CALLER EQ PUSH2 0x4EAA JUMP JUMPDEST DUP2 PUSH0 MSTORE PUSH1 0x20 SWAP1 PUSH1 0xD PUSH1 0x20 MSTORE DUP4 PUSH0 KECCAK256 SWAP4 PUSH0 JUMPDEST DUP6 SLOAD DUP2 LT ISZERO PUSH2 0x4CE JUMPI DUP1 PUSH2 0x38D9 PUSH1 0x1 SWAP3 DUP9 PUSH2 0x4A44 JUMP JUMPDEST SWAP1 SLOAD SWAP1 PUSH1 0x3 SHL SHR DUP7 PUSH0 MSTORE PUSH1 0xC DUP7 MSTORE DUP4 PUSH0 KECCAK256 DUP2 PUSH0 MSTORE DUP7 MSTORE DUP4 PUSH0 KECCAK256 SWAP1 PUSH1 0x2 DUP6 MLOAD SWAP3 PUSH2 0x3901 DUP5 PUSH2 0x4632 JUMP JUMPDEST SLOAD PUSH1 0xFF SWAP1 DUP2 DUP2 AND PUSH2 0x3911 DUP2 PUSH2 0x4A6D JUMP JUMPDEST DUP6 MSTORE PUSH1 0x8 SHR AND SWAP3 DUP9 DUP2 ADD SWAP4 PUSH2 0x3925 DUP2 PUSH2 0x488D JUMP JUMPDEST DUP5 MSTORE MLOAD PUSH2 0x3931 DUP2 PUSH2 0x4A6D JUMP JUMPDEST PUSH2 0x393A DUP2 PUSH2 0x4A6D JUMP JUMPDEST SUB PUSH2 0x395B JUMPI PUSH2 0x3955 SWAP2 MLOAD SWAP1 PUSH2 0x394E DUP3 PUSH2 0x488D JUMP JUMPDEST DUP9 DUP8 PUSH2 0x56BE JUMP JUMPDEST ADD PUSH2 0x38C3 JUMP JUMPDEST POP POP PUSH2 0x3955 JUMP JUMPDEST DUP3 CALLVALUE PUSH2 0x3A0 JUMPI PUSH1 0x20 CALLDATASIZE PUSH1 0x3 NOT ADD SLT PUSH2 0x3A0 JUMPI PUSH2 0x637 SWAP2 CALLDATALOAD PUSH0 MSTORE PUSH1 0x8 PUSH1 0x20 MSTORE PUSH2 0x624 DUP2 PUSH0 KECCAK256 PUSH2 0x4B6D JUMP JUMPDEST SWAP1 POP CALLVALUE PUSH2 0x3A0 JUMPI PUSH2 0x399B CALLDATASIZE PUSH2 0x48AB JUMP JUMPDEST SWAP2 SWAP3 SWAP1 PUSH2 0x39AA PUSH2 0x426 CALLER PUSH2 0x5337 JUMP JUMPDEST PUSH2 0x39B5 DUP5 ISZERO ISZERO PUSH2 0x4C89 JUMP JUMPDEST PUSH1 0x1 PUSH1 0x1 PUSH1 0xA0 SHL SUB AND PUSH2 0x39C9 DUP2 ISZERO ISZERO PUSH2 0x4DBB JUMP JUMPDEST PUSH2 0x39D5 PUSH2 0xCFC DUP5 PUSH2 0x5505 JUMP JUMPDEST CALLER PUSH0 MSTORE PUSH1 0x20 SWAP4 PUSH1 0x1 DUP6 MSTORE DUP6 PUSH0 KECCAK256 SLOAD SWAP2 PUSH0 MSTORE DUP6 PUSH0 KECCAK256 SLOAD SWAP3 PUSH2 0x39F6 DUP5 ISZERO ISZERO PUSH2 0x4B21 JUMP JUMPDEST DUP5 MLOAD DUP7 DUP7 ADD KECCAK256 SWAP6 PUSH2 0x3A07 DUP6 DUP5 PUSH2 0x5426 JUMP JUMPDEST DUP1 PUSH0 MSTORE PUSH1 0x5 DUP3 MSTORE PUSH2 0x3A20 PUSH1 0xFF PUSH1 0x1 DUP12 PUSH0 KECCAK256 ADD SLOAD AND PUSH2 0x4E07 JUMP JUMPDEST PUSH0 MSTORE PUSH1 0x5 DUP2 MSTORE PUSH2 0x3A31 DUP9 PUSH0 KECCAK256 PUSH2 0x4925 JUMP JUMPDEST SWAP7 DUP8 MLOAD DUP3 DUP10 ADD KECCAK256 SWAP1 DUP1 DUP3 EQ PUSH2 0x3FD8 JUMPI PUSH2 0x3A48 PUSH2 0x4CD5 JUMP JUMPDEST DUP4 DUP2 MLOAD SWAP2 ADD KECCAK256 DUP3 EQ PUSH2 0x3F63 JUMPI DUP5 PUSH0 MSTORE PUSH1 0x6 DUP4 MSTORE DUP10 PUSH0 KECCAK256 SLOAD ISZERO SWAP2 DUP3 ISZERO PUSH2 0x3A75 PUSH2 0x3A6E PUSH2 0x4CD5 JUMP JUMPDEST DUP10 DUP10 PUSH2 0x53C8 JUMP JUMPDEST SWAP1 PUSH2 0x3A88 PUSH2 0x3A81 PUSH2 0x4E5F JUMP JUMPDEST DUP11 DUP11 PUSH2 0x53C8 JUMP JUMPDEST SWAP1 PUSH2 0x3A9B PUSH2 0x3A94 PUSH2 0x4E88 JUMP JUMPDEST DUP12 DUP12 PUSH2 0x53C8 JUMP JUMPDEST DUP12 DUP12 EQ PUSH2 0x3AA6 PUSH2 0x4CD5 JUMP JUMPDEST DUP1 MLOAD SWAP1 DUP11 ADD KECCAK256 DUP8 SUB PUSH2 0x3C23 JUMPI POP POP ISZERO PUSH2 0x3BC6 JUMPI POP ISZERO PUSH2 0x3B85 JUMPI JUMPDEST PUSH2 0x3AC8 PUSH2 0x4E5F JUMP JUMPDEST DUP5 DUP2 MLOAD SWAP2 ADD KECCAK256 EQ SWAP1 DUP2 PUSH2 0x3B6E JUMPI JUMPDEST POP PUSH2 0x3AE9 JUMPI JUMPDEST POP POP POP PUSH2 0x4CE SWAP6 POP PUSH2 0x5607 JUMP JUMPDEST PUSH2 0x3AF4 JUMPI JUMPDEST DUP1 PUSH2 0x3ADC JUMP JUMPDEST DUP3 PUSH0 MSTORE PUSH1 0x7 DUP2 MSTORE PUSH1 0x1 DUP9 PUSH0 KECCAK256 SLOAD GT PUSH2 0x3AEE JUMPI DUP8 MLOAD PUSH3 0x461BCD PUSH1 0xE5 SHL DUP2 MSTORE SWAP2 DUP3 ADD MSTORE PUSH1 0x39 PUSH1 0x24 DUP3 ADD MSTORE PUSH32 0x43616E6E6F742064656D6F746520746865206C6173742061646D696E69737472 PUSH1 0x44 DUP3 ADD MSTORE PUSH32 0x61746F72207768656E206E6F206F776E65722065786973747300000000000000 PUSH1 0x64 DUP3 ADD MSTORE PUSH1 0x84 SWAP2 POP REVERT JUMPDEST SWAP1 POP PUSH2 0x3B78 PUSH2 0x4D38 JUMP JUMPDEST DUP4 DUP2 MLOAD SWAP2 ADD KECCAK256 EQ PUSH0 PUSH2 0x3AD6 JUMP JUMPDEST PUSH1 0x64 DUP6 DUP6 DUP1 DUP15 MLOAD SWAP3 PUSH3 0x461BCD PUSH1 0xE5 SHL DUP5 MSTORE DUP4 ADD MSTORE PUSH1 0x24 DUP3 ADD MSTORE PUSH32 0x4F6E6C79206F776E6572732063616E2070726F6D6F746520746F206F776E6572 PUSH1 0x44 DUP3 ADD MSTORE REVERT JUMPDEST SWAP1 POP PUSH2 0x3AC0 JUMPI DUP11 MLOAD PUSH3 0x461BCD PUSH1 0xE5 SHL DUP2 MSTORE DUP1 DUP7 ADD DUP6 SWAP1 MSTORE PUSH1 0x2B PUSH1 0x24 DUP3 ADD MSTORE PUSH32 0x4F6E6C792061646D696E6973747261746F72732063616E2070726F6D6F746520 PUSH1 0x44 DUP3 ADD MSTORE PUSH11 0x3334B939BA1037BBB732B9 PUSH1 0xA9 SHL PUSH1 0x64 DUP3 ADD MSTORE PUSH1 0x84 SWAP1 REVERT JUMPDEST SWAP1 SWAP2 PUSH2 0x3C2D PUSH2 0x4E5F JUMP JUMPDEST DUP1 MLOAD SWAP1 DUP11 ADD KECCAK256 DUP8 SUB PUSH2 0x3CAD JUMPI POP POP POP DUP2 ISZERO PUSH2 0x3CA5 JUMPI JUMPDEST POP ISZERO PUSH2 0x3C4F JUMPI JUMPDEST PUSH2 0x3AC0 JUMP JUMPDEST DUP11 MLOAD PUSH3 0x461BCD PUSH1 0xE5 SHL DUP2 MSTORE DUP1 DUP7 ADD DUP6 SWAP1 MSTORE PUSH1 0x3B PUSH1 0x24 DUP3 ADD MSTORE PUSH0 DUP1 MLOAD PUSH1 0x20 PUSH2 0x5E8B DUP4 CODECOPY DUP2 MLOAD SWAP2 MSTORE PUSH1 0x44 DUP3 ADD MSTORE PUSH32 0x616E2070726F6D6F746520746F2061646D696E6973747261746F720000000000 PUSH1 0x64 DUP3 ADD MSTORE PUSH1 0x84 SWAP1 REVERT JUMPDEST SWAP1 POP PUSH0 PUSH2 0x3C43 JUMP JUMPDEST PUSH2 0x3CB9 SWAP4 SWAP2 SWAP3 SWAP4 PUSH2 0x4E88 JUMP JUMPDEST DUP1 MLOAD SWAP1 DUP11 ADD KECCAK256 DUP8 SUB PUSH2 0x3DF8 JUMPI ISZERO PUSH2 0x3D7C JUMPI DUP4 ISZERO PUSH2 0x3D74 JUMPI JUMPDEST POP DUP3 ISZERO PUSH2 0x3D5B JUMPI JUMPDEST POP POP PUSH2 0x3AC0 JUMPI DUP11 MLOAD PUSH3 0x461BCD PUSH1 0xE5 SHL DUP2 MSTORE DUP1 DUP7 ADD DUP6 SWAP1 MSTORE PUSH1 0x5F PUSH1 0x24 DUP3 ADD MSTORE PUSH0 DUP1 MLOAD PUSH1 0x20 PUSH2 0x5E8B DUP4 CODECOPY DUP2 MLOAD SWAP2 MSTORE PUSH1 0x44 DUP3 ADD MSTORE PUSH32 0x616E206368616E6765206F746865727320746F207368617265722E2053686172 PUSH1 0x64 DUP3 ADD MSTORE PUSH32 0x6572732063616E206F6E6C792064656D6F7465207468656D73656C7665732E00 PUSH1 0x84 DUP3 ADD MSTORE PUSH1 0xA4 SWAP1 REVERT JUMPDEST SWAP1 SWAP2 POP DUP2 PUSH2 0x3D6C JUMPI JUMPDEST POP PUSH0 DUP1 PUSH2 0x3CD9 JUMP JUMPDEST SWAP1 POP PUSH0 PUSH2 0x3D64 JUMP JUMPDEST SWAP3 POP PUSH0 PUSH2 0x3CD1 JUMP JUMPDEST SWAP3 POP DUP3 ISZERO PUSH2 0x3DDF JUMPI JUMPDEST POP POP PUSH2 0x3C4A JUMPI DUP11 MLOAD PUSH3 0x461BCD PUSH1 0xE5 SHL DUP2 MSTORE DUP1 DUP7 ADD DUP6 SWAP1 MSTORE PUSH1 0x28 PUSH1 0x24 DUP3 ADD MSTORE PUSH32 0x4F6E6C792061646D696E6973747261746F72732063616E206368616E67652074 PUSH1 0x44 DUP3 ADD MSTORE PUSH8 0x379039B430B932B9 PUSH1 0xC1 SHL PUSH1 0x64 DUP3 ADD MSTORE PUSH1 0x84 SWAP1 REVERT JUMPDEST SWAP1 SWAP2 POP DUP2 PUSH2 0x3DF0 JUMPI JUMPDEST POP PUSH0 DUP1 PUSH2 0x3D85 JUMP JUMPDEST SWAP1 POP PUSH0 PUSH2 0x3DE8 JUMP JUMPDEST PUSH2 0x3E00 PUSH2 0x4D38 JUMP JUMPDEST DUP10 DUP2 MLOAD SWAP2 ADD KECCAK256 DUP8 EQ PUSH2 0x3E17 JUMPI JUMPDEST POP POP POP POP POP PUSH2 0x3AC0 JUMP JUMPDEST ISZERO PUSH2 0x3F07 JUMPI DUP4 ISZERO PUSH2 0x3EF0 JUMPI JUMPDEST POP DUP3 ISZERO PUSH2 0x3ED7 JUMPI JUMPDEST POP POP ISZERO PUSH2 0x3E50 JUMPI JUMPDEST PUSH2 0x3E46 PUSH2 0x3E40 DUP10 DUP9 PUSH2 0x557D JUMP JUMPDEST ISZERO PUSH2 0x4D5A JUMP JUMPDEST PUSH0 DUP1 DUP1 DUP1 DUP1 PUSH2 0x3E0D JUMP JUMPDEST DUP11 MLOAD PUSH3 0x461BCD PUSH1 0xE5 SHL DUP2 MSTORE DUP1 DUP7 ADD DUP6 SWAP1 MSTORE PUSH1 0x55 PUSH1 0x24 DUP3 ADD MSTORE PUSH32 0x4F6E6C79206F776E6572732063616E2064656D6F7465206F74686572732E2041 PUSH1 0x44 DUP3 ADD MSTORE PUSH32 0x646D696E6973747261746F727320616E6420736861726572732063616E206F6E PUSH1 0x64 DUP3 ADD MSTORE PUSH21 0x363C903232B6B7BA32903A3432B6B9B2B63B32B997 PUSH1 0x59 SHL PUSH1 0x84 DUP3 ADD MSTORE PUSH1 0xA4 SWAP1 REVERT JUMPDEST SWAP1 SWAP2 POP DUP2 PUSH2 0x3EE8 JUMPI JUMPDEST POP PUSH0 DUP1 PUSH2 0x3E2B JUMP JUMPDEST SWAP1 POP PUSH0 PUSH2 0x3EE0 JUMP JUMPDEST SWAP1 SWAP3 POP DUP1 PUSH2 0x3F00 JUMPI JUMPDEST SWAP2 PUSH0 PUSH2 0x3E23 JUMP JUMPDEST POP DUP2 PUSH2 0x3EF9 JUMP JUMPDEST SWAP3 POP POP POP PUSH2 0x3E33 JUMPI DUP11 MLOAD PUSH3 0x461BCD PUSH1 0xE5 SHL DUP2 MSTORE DUP1 DUP7 ADD DUP6 SWAP1 MSTORE PUSH1 0x28 PUSH1 0x24 DUP3 ADD MSTORE PUSH32 0x4F6E6C792061646D696E6973747261746F72732063616E2064656D6F74652074 PUSH1 0x44 DUP3 ADD MSTORE PUSH8 0x37903B34B2BBB2B9 PUSH1 0xC1 SHL PUSH1 0x64 DUP3 ADD MSTORE PUSH1 0x84 SWAP1 REVERT JUMPDEST DUP10 MLOAD PUSH3 0x461BCD PUSH1 0xE5 SHL DUP2 MSTORE DUP1 DUP6 ADD DUP5 SWAP1 MSTORE PUSH1 0x43 PUSH1 0x24 DUP3 ADD MSTORE PUSH32 0x4F776E6572732063616E6E6F742062652064656D6F7465642E204F776E657220 PUSH1 0x44 DUP3 ADD MSTORE PUSH32 0x6D75737420766F6C756E746172696C792072656D6F7665207468656D73656C76 PUSH1 0x64 DUP3 ADD MSTORE PUSH3 0x32B997 PUSH1 0xE9 SHL PUSH1 0x84 DUP3 ADD MSTORE PUSH1 0xA4 SWAP1 REVERT JUMPDEST DUP10 MLOAD PUSH3 0x461BCD PUSH1 0xE5 SHL DUP2 MSTORE DUP1 DUP6 ADD DUP5 SWAP1 MSTORE PUSH1 0x1C PUSH1 0x24 DUP3 ADD MSTORE PUSH32 0x54617267657420616C726561647920686173207468697320726F6C6500000000 PUSH1 0x44 DUP3 ADD MSTORE PUSH1 0x64 SWAP1 REVERT JUMPDEST DUP3 CALLVALUE PUSH2 0x3A0 JUMPI PUSH1 0x20 CALLDATASIZE PUSH1 0x3 NOT ADD SLT PUSH2 0x3A0 JUMPI PUSH1 0x20 SWAP1 PUSH2 0x1AD4 PUSH2 0x403B PUSH2 0x4606 JUMP JUMPDEST PUSH2 0x566C JUMP JUMPDEST SWAP1 POP CALLVALUE PUSH2 0x3A0 JUMPI DUP2 PUSH1 0x3 NOT CALLDATASIZE ADD SLT PUSH2 0x3A0 JUMPI DUP1 CALLDATALOAD SWAP1 PUSH1 0x24 CALLDATALOAD PUSH1 0x1 PUSH1 0x1 PUSH1 0x40 SHL SUB DUP2 GT PUSH2 0x3A0 JUMPI PUSH2 0x4073 SWAP1 CALLDATASIZE SWAP1 DUP4 ADD PUSH2 0x4759 JUMP JUMPDEST SWAP1 PUSH2 0x4080 PUSH2 0x426 CALLER PUSH2 0x5337 JUMP JUMPDEST PUSH2 0x408B DUP4 ISZERO ISZERO PUSH2 0x4C89 JUMP JUMPDEST CALLER PUSH0 MSTORE PUSH1 0x20 PUSH1 0x1 DUP2 MSTORE DUP5 PUSH0 KECCAK256 SLOAD SWAP2 PUSH2 0x40AB PUSH2 0x40A4 PUSH2 0x4CD5 JUMP JUMPDEST DUP5 DUP8 PUSH2 0x53C8 JUMP JUMPDEST ISZERO PUSH2 0x426A JUMPI DUP5 PUSH0 MSTORE PUSH1 0x6 DUP3 MSTORE PUSH1 0x1 DUP7 PUSH0 KECCAK256 SLOAD GT PUSH1 0x7 DUP4 MSTORE DUP7 PUSH0 KECCAK256 SLOAD ISZERO ISZERO DUP2 ISZERO PUSH2 0x4262 JUMPI JUMPDEST POP ISZERO PUSH2 0x4207 JUMPI DUP4 MLOAD ISZERO PUSH2 0x41A1 JUMPI PUSH2 0x40E8 PUSH2 0xCFC DUP6 PUSH2 0x5505 JUMP JUMPDEST DUP4 MLOAD SWAP1 DUP3 DUP6 ADD SWAP2 DUP3 KECCAK256 PUSH2 0x40F9 PUSH2 0x4CD5 JUMP JUMPDEST DUP5 DUP2 MLOAD SWAP2 ADD KECCAK256 EQ PUSH2 0x4143 JUMPI POP PUSH2 0x4CE SWAP6 POP DUP4 MLOAD SWAP1 KECCAK256 SWAP1 PUSH2 0x4117 PUSH2 0x4D38 JUMP JUMPDEST DUP1 MLOAD SWAP2 ADD KECCAK256 EQ PUSH2 0x4131 JUMPI JUMPDEST DUP1 PUSH2 0x412B PUSH2 0x4CD5 JUMP JUMPDEST SWAP4 PUSH2 0x5607 JUMP JUMPDEST PUSH2 0x413E PUSH2 0x3E40 DUP3 DUP6 PUSH2 0x557D JUMP JUMPDEST PUSH2 0x4122 JUMP JUMPDEST DUP7 MLOAD PUSH3 0x461BCD PUSH1 0xE5 SHL DUP2 MSTORE SWAP1 DUP2 ADD DUP4 SWAP1 MSTORE PUSH1 0x32 PUSH1 0x24 DUP3 ADD MSTORE PUSH32 0x55736520616E20656D70747920737472696E6720746F206C6561766520656E74 PUSH1 0x44 DUP3 ADD MSTORE PUSH18 0x6972656C792C206E6F7420276F776E657227 PUSH1 0x70 SHL PUSH1 0x64 DUP3 ADD MSTORE PUSH1 0x84 SWAP1 REVERT JUMPDEST POP SWAP1 SWAP4 PUSH32 0x68F37CC4A32F0B24153CE9237B344B20A9717039F90D7C24F35E5C217F03E168 SWAP3 POP PUSH2 0x41D1 DUP6 DUP6 PUSH2 0x5426 JUMP JUMPDEST PUSH2 0x41E3 PUSH2 0x41DC PUSH2 0x4CD5 JUMP JUMPDEST DUP8 DUP8 PUSH2 0x545A JUMP JUMPDEST PUSH0 MSTORE PUSH1 0x5 DUP3 MSTORE PUSH1 0x1 DUP2 PUSH0 KECCAK256 ADD PUSH1 0xFF NOT DUP2 SLOAD AND SWAP1 SSTORE PUSH1 0xB DUP3 MSTORE PUSH0 DUP2 DUP2 KECCAK256 SSTORE MLOAD TIMESTAMP DUP2 MSTORE LOG3 STOP JUMPDEST PUSH1 0x84 SWAP2 DUP7 MLOAD SWAP2 PUSH3 0x461BCD PUSH1 0xE5 SHL DUP4 MSTORE DUP3 ADD MSTORE PUSH1 0x31 PUSH1 0x24 DUP3 ADD MSTORE PUSH32 0x43616E6E6F74206C65617665206173206C617374206F776E6572207769746820 PUSH1 0x44 DUP3 ADD MSTORE PUSH17 0x6E6F2061646D696E6973747261746F7273 PUSH1 0x78 SHL PUSH1 0x64 DUP3 ADD MSTORE REVERT JUMPDEST SWAP1 POP PUSH0 PUSH2 0x40CF JUMP JUMPDEST PUSH1 0x84 SWAP2 DUP7 MLOAD SWAP2 PUSH3 0x461BCD PUSH1 0xE5 SHL DUP4 MSTORE DUP3 ADD MSTORE PUSH1 0x23 PUSH1 0x24 DUP3 ADD MSTORE PUSH32 0x596F7520617265206E6F7420616E206F776E6572206F66207468697320726563 PUSH1 0x44 DUP3 ADD MSTORE PUSH3 0x1BDC99 PUSH1 0xEA SHL PUSH1 0x64 DUP3 ADD MSTORE REVERT JUMPDEST DUP3 CALLVALUE PUSH2 0x3A0 JUMPI PUSH1 0x20 CALLDATASIZE PUSH1 0x3 NOT ADD SLT PUSH2 0x3A0 JUMPI PUSH2 0x42D1 PUSH2 0x4606 JUMP JUMPDEST PUSH0 SLOAD PUSH1 0x1 PUSH1 0x1 PUSH1 0xA0 SHL SUB SWAP2 SWAP1 PUSH2 0x42EA SWAP1 DUP4 AND CALLER EQ PUSH2 0x4C0C JUMP JUMPDEST AND DUP1 PUSH0 MSTORE PUSH1 0x1 PUSH1 0x20 MSTORE PUSH2 0x4301 DUP3 PUSH0 KECCAK256 SLOAD ISZERO ISZERO PUSH2 0x4C45 JUMP JUMPDEST DUP1 PUSH0 MSTORE PUSH1 0x1 PUSH1 0x20 MSTORE PUSH1 0xFF PUSH1 0x1 DUP4 PUSH0 KECCAK256 ADD SLOAD AND ISZERO PUSH2 0x4331 JUMPI PUSH1 0x1 SWAP3 POP PUSH0 MSTORE DUP2 PUSH1 0x20 MSTORE PUSH0 KECCAK256 ADD PUSH1 0xFF NOT DUP2 SLOAD AND SWAP1 SSTORE PUSH0 DUP1 RETURN JUMPDEST DUP2 MLOAD PUSH3 0x461BCD PUSH1 0xE5 SHL DUP2 MSTORE PUSH1 0x20 DUP2 DUP6 ADD MSTORE PUSH1 0x17 PUSH1 0x24 DUP3 ADD MSTORE PUSH32 0x57616C6C657420616C726561647920696E616374697665000000000000000000 PUSH1 0x44 DUP3 ADD MSTORE PUSH1 0x64 SWAP1 REVERT JUMPDEST DUP3 CALLVALUE PUSH2 0x3A0 JUMPI PUSH1 0x20 SWAP1 PUSH2 0x3B6 CALLDATASIZE PUSH2 0x4877 JUMP JUMPDEST DUP3 CALLVALUE PUSH2 0x3A0 JUMPI DUP1 PUSH1 0x3 NOT CALLDATASIZE ADD SLT PUSH2 0x3A0 JUMPI PUSH2 0x1AD4 PUSH1 0x20 SWAP3 PUSH2 0x43A5 PUSH2 0x461C JUMP JUMPDEST SWAP1 CALLDATALOAD PUSH2 0x4BBB JUMP JUMPDEST DUP3 CALLVALUE PUSH2 0x3A0 JUMPI PUSH1 0x20 CALLDATASIZE PUSH1 0x3 NOT ADD SLT PUSH2 0x3A0 JUMPI PUSH2 0x637 SWAP2 CALLDATALOAD PUSH0 MSTORE PUSH1 0x9 PUSH1 0x20 MSTORE PUSH2 0x624 DUP2 PUSH0 KECCAK256 PUSH2 0x4B6D JUMP JUMPDEST DUP3 CALLVALUE PUSH2 0x3A0 JUMPI PUSH2 0x43E4 CALLDATASIZE PUSH2 0x4777 JUMP JUMPDEST SWAP3 SWAP1 PUSH2 0x43F2 PUSH2 0x426 CALLER PUSH2 0x5337 JUMP JUMPDEST PUSH2 0x43FF DUP4 MLOAD DUP6 MLOAD EQ PUSH2 0x4ADD JUMP JUMPDEST CALLER PUSH0 MSTORE PUSH1 0x1 SWAP4 DUP5 SWAP4 PUSH1 0x20 SWAP1 PUSH1 0x1 DUP3 MSTORE DUP5 PUSH0 KECCAK256 SLOAD SWAP4 PUSH1 0x1 DUP1 PUSH1 0xA0 SHL SUB AND PUSH0 MSTORE DUP5 PUSH0 KECCAK256 SLOAD SWAP2 PUSH2 0x442D DUP4 ISZERO ISZERO PUSH2 0x4B21 JUMP JUMPDEST PUSH0 SWAP7 JUMPDEST PUSH2 0x4436 JUMPI STOP JUMPDEST DUP2 MLOAD DUP8 LT ISZERO PUSH2 0x4CE JUMPI DUP8 DUP8 PUSH2 0x4455 PUSH2 0x444F DUP4 SWAP11 DUP9 PUSH2 0x516D JUMP JUMPDEST MLOAD PUSH2 0x5505 JUMP JUMPDEST ISZERO PUSH2 0x4521 JUMPI PUSH2 0x4468 DUP8 PUSH2 0x73A DUP4 DUP8 PUSH2 0x516D JUMP JUMPDEST ISZERO PUSH2 0x4521 JUMPI PUSH2 0x447B DUP6 PUSH2 0x73A DUP4 DUP8 PUSH2 0x516D JUMP JUMPDEST PUSH2 0x4521 JUMPI PUSH2 0x4489 DUP2 DUP8 PUSH2 0x516D JUMP JUMPDEST MLOAD DUP4 DUP2 MLOAD SWAP2 ADD KECCAK256 PUSH2 0x44A7 PUSH2 0x449D DUP4 DUP8 PUSH2 0x516D JUMP JUMPDEST MLOAD DUP10 PUSH2 0x8A1 PUSH2 0x4CD5 JUMP JUMPDEST PUSH2 0x44BE PUSH2 0x44B4 DUP5 DUP9 PUSH2 0x516D JUMP JUMPDEST MLOAD DUP11 PUSH2 0x8A1 PUSH2 0x4E5F JUMP JUMPDEST SWAP2 PUSH2 0x44C7 PUSH2 0x4CD5 JUMP JUMPDEST DUP1 MLOAD SWAP1 DUP8 ADD KECCAK256 DUP2 SUB PUSH2 0x452E JUMPI POP SWAP1 PUSH2 0x44DF DUP4 DUP8 PUSH2 0x516D JUMP JUMPDEST MLOAD PUSH0 SWAP1 DUP2 MSTORE PUSH1 0x6 DUP7 MSTORE DUP11 SWAP1 KECCAK256 SLOAD ISZERO PUSH2 0x4526 JUMPI POP ISZERO JUMPDEST PUSH2 0x4521 JUMPI JUMPDEST PUSH2 0x451A DUP8 PUSH2 0x4507 DUP4 DUP8 PUSH2 0x516D JUMP JUMPDEST MLOAD DUP8 PUSH2 0x4513 DUP6 DUP12 PUSH2 0x516D JUMP JUMPDEST MLOAD SWAP2 PUSH2 0x5982 JUMP JUMPDEST ADD SWAP7 PUSH2 0x4430 JUMP JUMPDEST PUSH2 0x451A JUMP JUMPDEST SWAP1 POP ISZERO PUSH2 0x44F4 JUMP JUMPDEST PUSH2 0x4536 PUSH2 0x4E5F JUMP JUMPDEST DUP1 MLOAD SWAP1 DUP8 ADD KECCAK256 DUP2 SUB PUSH2 0x455F JUMPI POP ISZERO SWAP1 DUP2 PUSH2 0x4556 JUMPI JUMPDEST POP PUSH2 0x4521 JUMPI JUMPDEST PUSH2 0x44F9 JUMP JUMPDEST SWAP1 POP ISZERO DUP12 PUSH2 0x454B JUMP JUMPDEST PUSH2 0x4567 PUSH2 0x4E88 JUMP JUMPDEST DUP1 MLOAD SWAP1 DUP8 ADD KECCAK256 SUB PUSH2 0x458E JUMPI ISZERO SWAP1 DUP2 PUSH2 0x4585 JUMPI JUMPDEST POP ISZERO PUSH2 0x44F9 JUMPI PUSH2 0x451A JUMP JUMPDEST SWAP1 POP ISZERO DUP12 PUSH2 0x457A JUMP JUMPDEST PUSH2 0x45A5 PUSH2 0x459B DUP5 DUP9 PUSH2 0x516D JUMP JUMPDEST MLOAD DUP11 PUSH2 0x8A1 PUSH2 0x4E88 JUMP JUMPDEST SWAP1 ISZERO SWAP2 DUP3 PUSH2 0x45C9 JUMPI JUMPDEST POP DUP2 PUSH2 0x45C0 JUMPI JUMPDEST POP ISZERO PUSH2 0x4551 JUMPI PUSH2 0x451A JUMP JUMPDEST SWAP1 POP ISZERO DUP12 PUSH2 0x45B5 JUMP JUMPDEST ISZERO SWAP2 POP DUP13 PUSH2 0x45AE JUMP JUMPDEST DUP4 SWAP1 CALLVALUE PUSH2 0x3A0 JUMPI PUSH1 0x20 CALLDATASIZE PUSH1 0x3 NOT ADD SLT PUSH2 0x3A0 JUMPI PUSH1 0x20 SWAP2 PUSH1 0x1 PUSH1 0x1 PUSH1 0xA0 SHL SUB PUSH2 0x45F8 PUSH2 0x4606 JUMP JUMPDEST AND PUSH0 MSTORE PUSH1 0x1 DUP4 MSTORE PUSH0 KECCAK256 SLOAD DUP2 MSTORE RETURN JUMPDEST PUSH1 0x4 CALLDATALOAD SWAP1 PUSH1 0x1 PUSH1 0x1 PUSH1 0xA0 SHL SUB DUP3 AND DUP3 SUB PUSH2 0x3A0 JUMPI JUMP JUMPDEST PUSH1 0x24 CALLDATALOAD SWAP1 PUSH1 0x1 PUSH1 0x1 PUSH1 0xA0 SHL SUB DUP3 AND DUP3 SUB PUSH2 0x3A0 JUMPI JUMP JUMPDEST PUSH1 0x40 DUP2 ADD SWAP1 DUP2 LT PUSH1 0x1 PUSH1 0x1 PUSH1 0x40 SHL SUB DUP3 GT OR PUSH2 0x464D JUMPI PUSH1 0x40 MSTORE JUMP JUMPDEST PUSH4 0x4E487B71 PUSH1 0xE0 SHL PUSH0 MSTORE PUSH1 0x41 PUSH1 0x4 MSTORE PUSH1 0x24 PUSH0 REVERT JUMPDEST PUSH1 0x20 DUP2 ADD SWAP1 DUP2 LT PUSH1 0x1 PUSH1 0x1 PUSH1 0x40 SHL SUB DUP3 GT OR PUSH2 0x464D JUMPI PUSH1 0x40 MSTORE JUMP JUMPDEST SWAP1 PUSH1 0x1F DUP1 NOT SWAP2 ADD AND DUP2 ADD SWAP1 DUP2 LT PUSH1 0x1 PUSH1 0x1 PUSH1 0x40 SHL SUB DUP3 GT OR PUSH2 0x464D JUMPI PUSH1 0x40 MSTORE JUMP JUMPDEST PUSH1 0x1 PUSH1 0x1 PUSH1 0x40 SHL SUB DUP2 GT PUSH2 0x464D JUMPI PUSH1 0x5 SHL PUSH1 0x20 ADD SWAP1 JUMP JUMPDEST SWAP1 DUP1 PUSH1 0x1F DUP4 ADD SLT ISZERO PUSH2 0x3A0 JUMPI PUSH1 0x20 SWAP1 DUP3 CALLDATALOAD PUSH2 0x46CE DUP2 PUSH2 0x469D JUMP JUMPDEST SWAP4 PUSH2 0x46DC PUSH1 0x40 MLOAD SWAP6 DUP7 PUSH2 0x467C JUMP JUMPDEST DUP2 DUP6 MSTORE PUSH1 0x20 DUP1 DUP7 ADD SWAP3 PUSH1 0x5 SHL DUP3 ADD ADD SWAP3 DUP4 GT PUSH2 0x3A0 JUMPI PUSH1 0x20 ADD SWAP1 JUMPDEST DUP3 DUP3 LT PUSH2 0x4705 JUMPI POP POP POP POP SWAP1 JUMP JUMPDEST DUP2 CALLDATALOAD DUP2 MSTORE SWAP1 DUP4 ADD SWAP1 DUP4 ADD PUSH2 0x46F7 JUMP JUMPDEST SWAP3 SWAP2 SWAP3 PUSH1 0x1 PUSH1 0x1 PUSH1 0x40 SHL SUB DUP3 GT PUSH2 0x464D JUMPI PUSH1 0x40 MLOAD SWAP2 PUSH2 0x473D PUSH1 0x1F DUP3 ADD PUSH1 0x1F NOT AND PUSH1 0x20 ADD DUP5 PUSH2 0x467C JUMP JUMPDEST DUP3 SWAP5 DUP2 DUP5 MSTORE DUP2 DUP4 ADD GT PUSH2 0x3A0 JUMPI DUP3 DUP2 PUSH1 0x20 SWAP4 DUP5 PUSH0 SWAP7 ADD CALLDATACOPY ADD ADD MSTORE JUMP JUMPDEST SWAP1 DUP1 PUSH1 0x1F DUP4 ADD SLT ISZERO PUSH2 0x3A0 JUMPI DUP2 PUSH1 0x20 PUSH2 0x4774 SWAP4 CALLDATALOAD SWAP2 ADD PUSH2 0x4714 JUMP JUMPDEST SWAP1 JUMP JUMPDEST PUSH1 0x60 PUSH1 0x3 NOT DUP3 ADD SLT PUSH2 0x3A0 JUMPI PUSH1 0x1 PUSH1 0x1 PUSH1 0x40 SHL SUB SWAP2 PUSH1 0x4 CALLDATALOAD DUP4 DUP2 GT PUSH2 0x3A0 JUMPI DUP3 PUSH2 0x47A3 SWAP2 PUSH1 0x4 ADD PUSH2 0x46B4 JUMP JUMPDEST SWAP3 PUSH1 0x24 SWAP3 DUP4 CALLDATALOAD PUSH1 0x1 PUSH1 0x1 PUSH1 0xA0 SHL SUB DUP2 AND DUP2 SUB PUSH2 0x3A0 JUMPI SWAP4 PUSH1 0x44 CALLDATALOAD SWAP3 DUP1 DUP5 GT PUSH2 0x3A0 JUMPI DUP3 PUSH1 0x23 DUP6 ADD SLT ISZERO PUSH2 0x3A0 JUMPI DUP4 PUSH1 0x4 ADD CALLDATALOAD PUSH2 0x47DE DUP2 PUSH2 0x469D JUMP JUMPDEST SWAP5 PUSH2 0x47EC PUSH1 0x40 MLOAD SWAP7 DUP8 PUSH2 0x467C JUMP JUMPDEST DUP2 DUP7 MSTORE PUSH1 0x20 SWAP5 PUSH1 0x24 PUSH1 0x20 DUP9 ADD SWAP4 PUSH1 0x5 SHL DUP4 ADD ADD SWAP5 DUP2 DUP7 GT PUSH2 0x3A0 JUMPI PUSH1 0x24 DUP4 ADD SWAP4 JUMPDEST DUP7 DUP6 LT PUSH2 0x481F JUMPI POP POP POP POP POP POP POP POP SWAP1 JUMP JUMPDEST DUP5 CALLDATALOAD DUP7 DUP2 GT PUSH2 0x3A0 JUMPI DUP9 SWAP2 PUSH2 0x4839 DUP6 DUP6 DUP6 SWAP5 DUP10 ADD ADD PUSH2 0x4759 JUMP JUMPDEST DUP2 MSTORE ADD SWAP5 ADD SWAP4 PUSH2 0x480D JUMP JUMPDEST SWAP1 DUP2 MLOAD DUP1 DUP3 MSTORE PUSH1 0x20 DUP1 DUP1 SWAP4 ADD SWAP4 ADD SWAP2 PUSH0 JUMPDEST DUP3 DUP2 LT PUSH2 0x4863 JUMPI POP POP POP POP SWAP1 JUMP JUMPDEST DUP4 MLOAD DUP6 MSTORE SWAP4 DUP2 ADD SWAP4 SWAP3 DUP2 ADD SWAP3 PUSH1 0x1 ADD PUSH2 0x4855 JUMP JUMPDEST PUSH1 0x40 SWAP1 PUSH1 0x3 NOT ADD SLT PUSH2 0x3A0 JUMPI PUSH1 0x4 CALLDATALOAD SWAP1 PUSH1 0x24 CALLDATALOAD SWAP1 JUMP JUMPDEST PUSH1 0x3 GT ISZERO PUSH2 0x4897 JUMPI JUMP JUMPDEST PUSH4 0x4E487B71 PUSH1 0xE0 SHL PUSH0 MSTORE PUSH1 0x21 PUSH1 0x4 MSTORE PUSH1 0x24 PUSH0 REVERT JUMPDEST PUSH1 0x60 PUSH1 0x3 NOT DUP3 ADD SLT PUSH2 0x3A0 JUMPI PUSH1 0x4 CALLDATALOAD SWAP2 PUSH1 0x24 CALLDATALOAD PUSH1 0x1 PUSH1 0x1 PUSH1 0xA0 SHL SUB DUP2 AND DUP2 SUB PUSH2 0x3A0 JUMPI SWAP2 PUSH1 0x44 CALLDATALOAD SWAP1 PUSH1 0x1 PUSH1 0x1 PUSH1 0x40 SHL SUB DUP3 GT PUSH2 0x3A0 JUMPI PUSH2 0x4774 SWAP2 PUSH1 0x4 ADD PUSH2 0x4759 JUMP JUMPDEST SWAP1 PUSH1 0x1 DUP3 DUP2 SHR SWAP3 AND DUP1 ISZERO PUSH2 0x491B JUMPI JUMPDEST PUSH1 0x20 DUP4 LT EQ PUSH2 0x4907 JUMPI JUMP JUMPDEST PUSH4 0x4E487B71 PUSH1 0xE0 SHL PUSH0 MSTORE PUSH1 0x22 PUSH1 0x4 MSTORE PUSH1 0x24 PUSH0 REVERT JUMPDEST SWAP2 PUSH1 0x7F AND SWAP2 PUSH2 0x48FC JUMP JUMPDEST SWAP1 PUSH1 0x40 MLOAD SWAP2 DUP3 PUSH0 DUP3 SLOAD PUSH2 0x4937 DUP2 PUSH2 0x48ED JUMP JUMPDEST SWAP1 DUP2 DUP5 MSTORE PUSH1 0x20 SWAP5 PUSH1 0x1 SWAP2 PUSH1 0x1 DUP2 AND SWAP1 DUP2 PUSH0 EQ PUSH2 0x49A5 JUMPI POP PUSH1 0x1 EQ PUSH2 0x4967 JUMPI JUMPDEST POP POP POP PUSH2 0x4965 SWAP3 POP SUB DUP4 PUSH2 0x467C JUMP JUMPDEST JUMP JUMPDEST PUSH0 SWAP1 DUP2 MSTORE DUP6 DUP2 KECCAK256 SWAP6 SWAP4 POP SWAP2 SWAP1 JUMPDEST DUP2 DUP4 LT PUSH2 0x498D JUMPI POP POP PUSH2 0x4965 SWAP4 POP DUP3 ADD ADD PUSH0 DUP1 DUP1 PUSH2 0x4956 JUMP JUMPDEST DUP6 SLOAD DUP9 DUP5 ADD DUP6 ADD MSTORE SWAP5 DUP6 ADD SWAP5 DUP8 SWAP5 POP SWAP2 DUP4 ADD SWAP2 PUSH2 0x4974 JUMP JUMPDEST SWAP3 POP POP POP PUSH2 0x4965 SWAP5 SWAP3 POP PUSH1 0xFF NOT AND DUP3 DUP5 ADD MSTORE ISZERO ISZERO PUSH1 0x5 SHL DUP3 ADD ADD PUSH0 DUP1 DUP1 PUSH2 0x4956 JUMP JUMPDEST SWAP2 SWAP1 DUP3 MLOAD SWAP3 DUP4 DUP3 MSTORE PUSH0 JUMPDEST DUP5 DUP2 LT PUSH2 0x49F1 JUMPI POP POP DUP3 PUSH0 PUSH1 0x20 DUP1 SWAP5 SWAP6 DUP5 ADD ADD MSTORE PUSH1 0x1F DUP1 NOT SWAP2 ADD AND ADD ADD SWAP1 JUMP JUMPDEST PUSH1 0x20 DUP2 DUP4 ADD DUP2 ADD MLOAD DUP5 DUP4 ADD DUP3 ADD MSTORE ADD PUSH2 0x49D1 JUMP JUMPDEST SWAP1 PUSH2 0x4A1D PUSH1 0x20 SWAP2 SWAP5 SWAP4 SWAP5 PUSH1 0x40 DUP5 MSTORE PUSH1 0x40 DUP5 ADD SWAP1 PUSH2 0x49C7 JUMP JUMPDEST SWAP4 ISZERO ISZERO SWAP2 ADD MSTORE JUMP JUMPDEST PUSH1 0x40 SWAP1 PUSH1 0x3 NOT ADD SLT PUSH2 0x3A0 JUMPI PUSH1 0x4 CALLDATALOAD SWAP1 PUSH1 0x24 CALLDATALOAD PUSH1 0x3 DUP2 LT ISZERO PUSH2 0x3A0 JUMPI SWAP1 JUMP JUMPDEST DUP1 SLOAD DUP3 LT ISZERO PUSH2 0x4A59 JUMPI PUSH0 MSTORE PUSH1 0x20 PUSH0 KECCAK256 ADD SWAP1 PUSH0 SWAP1 JUMP JUMPDEST PUSH4 0x4E487B71 PUSH1 0xE0 SHL PUSH0 MSTORE PUSH1 0x32 PUSH1 0x4 MSTORE PUSH1 0x24 PUSH0 REVERT JUMPDEST PUSH1 0x5 GT ISZERO PUSH2 0x4897 JUMPI JUMP JUMPDEST PUSH1 0x40 DUP2 ADD SWAP4 SWAP3 SWAP2 PUSH1 0x20 SWAP2 SWAP1 PUSH2 0x4A8B DUP2 PUSH2 0x4A6D JUMP JUMPDEST DUP2 MSTORE PUSH2 0x4A96 DUP4 PUSH2 0x488D JUMP JUMPDEST ADD MSTORE JUMP JUMPDEST ISZERO PUSH2 0x4AA1 JUMPI JUMP JUMPDEST PUSH1 0x40 MLOAD PUSH3 0x461BCD PUSH1 0xE5 SHL DUP2 MSTORE PUSH1 0x20 PUSH1 0x4 DUP3 ADD MSTORE PUSH1 0x14 PUSH1 0x24 DUP3 ADD MSTORE PUSH20 0x2737BA1030B71030B1BA34BB329036B2B6B132B9 PUSH1 0x61 SHL PUSH1 0x44 DUP3 ADD MSTORE PUSH1 0x64 SWAP1 REVERT JUMPDEST ISZERO PUSH2 0x4AE4 JUMPI JUMP JUMPDEST PUSH1 0x40 MLOAD PUSH3 0x461BCD PUSH1 0xE5 SHL DUP2 MSTORE PUSH1 0x20 PUSH1 0x4 DUP3 ADD MSTORE PUSH1 0x15 PUSH1 0x24 DUP3 ADD MSTORE PUSH21 0x82E4E4C2F240D8CADCCEE8D040DAD2E6DAC2E8C6D PUSH1 0x5B SHL PUSH1 0x44 DUP3 ADD MSTORE PUSH1 0x64 SWAP1 REVERT JUMPDEST ISZERO PUSH2 0x4B28 JUMPI JUMP JUMPDEST PUSH1 0x40 MLOAD PUSH3 0x461BCD PUSH1 0xE5 SHL DUP2 MSTORE PUSH1 0x20 PUSH1 0x4 DUP3 ADD MSTORE PUSH1 0x1C PUSH1 0x24 DUP3 ADD MSTORE PUSH32 0x5461726765742077616C6C6574206E6F74207265676973746572656400000000 PUSH1 0x44 DUP3 ADD MSTORE PUSH1 0x64 SWAP1 REVERT JUMPDEST SWAP1 PUSH1 0x40 MLOAD SWAP2 DUP3 DUP2 SLOAD SWAP2 DUP3 DUP3 MSTORE PUSH1 0x20 SWAP3 PUSH1 0x20 DUP4 ADD SWAP2 PUSH0 MSTORE PUSH1 0x20 PUSH0 KECCAK256 SWAP4 PUSH0 SWAP1 JUMPDEST DUP3 DUP3 LT PUSH2 0x4BA1 JUMPI POP POP POP PUSH2 0x4965 SWAP3 POP SUB DUP4 PUSH2 0x467C JUMP JUMPDEST DUP6 SLOAD DUP5 MSTORE PUSH1 0x1 SWAP6 DUP7 ADD SWAP6 DUP9 SWAP6 POP SWAP4 DUP2 ADD SWAP4 SWAP1 SWAP2 ADD SWAP1 PUSH2 0x4B8B JUMP JUMPDEST PUSH1 0x1 PUSH1 0x1 PUSH1 0xA0 SHL SUB SWAP1 SWAP2 AND PUSH0 SWAP1 DUP2 MSTORE PUSH1 0x1 PUSH1 0x20 MSTORE PUSH1 0x40 SWAP1 KECCAK256 SLOAD SWAP1 DUP2 ISZERO PUSH2 0x4C06 JUMPI PUSH2 0x4BED PUSH2 0x4BE6 PUSH2 0x4CD5 JUMP JUMPDEST DUP4 DUP4 PUSH2 0x53C8 JUMP JUMPDEST SWAP2 DUP3 ISZERO PUSH2 0x4BF9 JUMPI POP POP SWAP1 JUMP JUMPDEST PUSH2 0x4774 SWAP3 POP PUSH2 0x8A1 PUSH2 0x4E5F JUMP JUMPDEST POP POP PUSH0 SWAP1 JUMP JUMPDEST ISZERO PUSH2 0x4C13 JUMPI JUMP JUMPDEST PUSH1 0x40 MLOAD PUSH3 0x461BCD PUSH1 0xE5 SHL DUP2 MSTORE PUSH1 0x20 PUSH1 0x4 DUP3 ADD MSTORE PUSH1 0xA PUSH1 0x24 DUP3 ADD MSTORE PUSH10 0x27B7363C9030B236B4B7 PUSH1 0xB1 SHL PUSH1 0x44 DUP3 ADD MSTORE PUSH1 0x64 SWAP1 REVERT JUMPDEST ISZERO PUSH2 0x4C4C JUMPI JUMP JUMPDEST PUSH1 0x40 MLOAD PUSH3 0x461BCD PUSH1 0xE5 SHL DUP2 MSTORE PUSH1 0x20 PUSH1 0x4 DUP3 ADD MSTORE PUSH1 0x15 PUSH1 0x24 DUP3 ADD MSTORE PUSH21 0x15D85B1B195D081B9BDD081C9959DA5CDD195C9959 PUSH1 0x5A SHL PUSH1 0x44 DUP3 ADD MSTORE PUSH1 0x64 SWAP1 REVERT JUMPDEST ISZERO PUSH2 0x4C90 JUMPI JUMP JUMPDEST PUSH1 0x40 MLOAD PUSH3 0x461BCD PUSH1 0xE5 SHL DUP2 MSTORE PUSH1 0x20 PUSH1 0x4 DUP3 ADD MSTORE PUSH1 0x1E PUSH1 0x24 DUP3 ADD MSTORE PUSH32 0x5265636F726420494420686173682063616E6E6F7420626520656D7074790000 PUSH1 0x44 DUP3 ADD MSTORE PUSH1 0x64 SWAP1 REVERT JUMPDEST PUSH1 0x40 MLOAD SWAP1 PUSH2 0x4CE2 DUP3 PUSH2 0x4632 JUMP JUMPDEST PUSH1 0x5 DUP3 MSTORE PUSH5 0x37BBB732B9 PUSH1 0xD9 SHL PUSH1 0x20 DUP4 ADD MSTORE JUMP JUMPDEST ISZERO PUSH2 0x4CFD JUMPI JUMP JUMPDEST PUSH1 0x40 MLOAD PUSH3 0x461BCD PUSH1 0xE5 SHL DUP2 MSTORE PUSH1 0x20 PUSH1 0x4 DUP3 ADD MSTORE PUSH1 0x13 PUSH1 0x24 DUP3 ADD MSTORE PUSH19 0x496E76616C696420726F6C6520737472696E67 PUSH1 0x68 SHL PUSH1 0x44 DUP3 ADD MSTORE PUSH1 0x64 SWAP1 REVERT JUMPDEST PUSH1 0x40 MLOAD SWAP1 PUSH2 0x4D45 DUP3 PUSH2 0x4632 JUMP JUMPDEST PUSH1 0x6 DUP3 MSTORE PUSH6 0x3B34B2BBB2B9 PUSH1 0xD1 SHL PUSH1 0x20 DUP4 ADD MSTORE JUMP JUMPDEST ISZERO PUSH2 0x4D61 JUMPI JUMP JUMPDEST PUSH1 0x40 MLOAD PUSH3 0x461BCD PUSH1 0xE5 SHL DUP2 MSTORE PUSH1 0x20 PUSH1 0x4 DUP3 ADD MSTORE PUSH1 0x2C PUSH1 0x24 DUP3 ADD MSTORE PUSH32 0x43616E6E6F742064656D6F746520616E20616374697665207375626A65637420 PUSH1 0x44 DUP3 ADD MSTORE PUSH12 0x3132B637BB9039B430B932B9 PUSH1 0xA1 SHL PUSH1 0x64 DUP3 ADD MSTORE PUSH1 0x84 SWAP1 REVERT JUMPDEST ISZERO PUSH2 0x4DC2 JUMPI JUMP JUMPDEST PUSH1 0x40 MLOAD PUSH3 0x461BCD PUSH1 0xE5 SHL DUP2 MSTORE PUSH1 0x20 PUSH1 0x4 DUP3 ADD MSTORE PUSH1 0x1D PUSH1 0x24 DUP3 ADD MSTORE PUSH32 0x57616C6C657420616464726573732063616E6E6F74206265207A65726F000000 PUSH1 0x44 DUP3 ADD MSTORE PUSH1 0x64 SWAP1 REVERT JUMPDEST ISZERO PUSH2 0x4E0E JUMPI JUMP JUMPDEST PUSH1 0x40 MLOAD PUSH3 0x461BCD PUSH1 0xE5 SHL DUP2 MSTORE PUSH1 0x20 PUSH1 0x4 DUP3 ADD MSTORE PUSH1 0x23 PUSH1 0x24 DUP3 ADD MSTORE PUSH32 0x54617267657420646F6573206E6F74206861766520616E206163746976652072 PUSH1 0x44 DUP3 ADD MSTORE PUSH3 0x6F6C65 PUSH1 0xE8 SHL PUSH1 0x64 DUP3 ADD MSTORE PUSH1 0x84 SWAP1 REVERT JUMPDEST PUSH1 0x40 MLOAD SWAP1 PUSH2 0x4E6C DUP3 PUSH2 0x4632 JUMP JUMPDEST PUSH1 0xD DUP3 MSTORE PUSH13 0x30B236B4B734B9BA3930BA37B9 PUSH1 0x99 SHL PUSH1 0x20 DUP4 ADD MSTORE JUMP JUMPDEST PUSH1 0x40 MLOAD SWAP1 PUSH2 0x4E95 DUP3 PUSH2 0x4632 JUMP JUMPDEST PUSH1 0x6 DUP3 MSTORE PUSH6 0x39B430B932B9 PUSH1 0xD1 SHL PUSH1 0x20 DUP4 ADD MSTORE JUMP JUMPDEST ISZERO PUSH2 0x4EB1 JUMPI JUMP JUMPDEST PUSH1 0x40 MLOAD PUSH3 0x461BCD PUSH1 0xE5 SHL DUP2 MSTORE PUSH1 0x20 PUSH1 0x4 DUP3 ADD MSTORE PUSH1 0x15 PUSH1 0x24 DUP3 ADD MSTORE PUSH21 0x4F6E6C79204865616C74685265636F7264436F7265 PUSH1 0x58 SHL PUSH1 0x44 DUP3 ADD MSTORE PUSH1 0x64 SWAP1 REVERT JUMPDEST SWAP2 SWAP1 PUSH1 0x1 DUP1 PUSH1 0xA0 SHL SUB AND PUSH0 MSTORE PUSH1 0x1 PUSH1 0x20 MSTORE PUSH1 0x40 PUSH0 KECCAK256 SLOAD DUP1 ISZERO PUSH2 0x4F13 JUMPI PUSH2 0x4774 SWAP3 PUSH2 0x53C8 JUMP JUMPDEST POP POP POP PUSH0 SWAP1 JUMP JUMPDEST PUSH1 0x1 PUSH1 0x1 PUSH1 0xA0 SHL SUB SWAP1 SWAP2 AND PUSH0 SWAP1 DUP2 MSTORE PUSH1 0x1 PUSH1 0x20 MSTORE PUSH1 0x40 SWAP1 KECCAK256 SLOAD SWAP1 DUP2 ISZERO PUSH2 0x4F7C JUMPI PUSH1 0x20 SWAP3 SWAP2 PUSH2 0x4F47 SWAP2 PUSH2 0x5426 JUMP JUMPDEST PUSH0 MSTORE PUSH1 0x5 DUP3 MSTORE PUSH1 0x40 PUSH0 KECCAK256 PUSH1 0x40 MLOAD PUSH2 0x4F5D DUP2 PUSH2 0x4632 JUMP JUMPDEST PUSH1 0xFF PUSH1 0x1 PUSH2 0x4F6A DUP5 PUSH2 0x4925 JUMP JUMPDEST SWAP4 DUP5 DUP5 MSTORE ADD SLOAD AND ISZERO ISZERO SWAP4 DUP5 SWAP2 ADD MSTORE SWAP2 SWAP1 JUMP JUMPDEST POP POP PUSH1 0x40 MLOAD PUSH2 0x4F8A DUP2 PUSH2 0x4661 JUMP JUMPDEST PUSH0 DUP2 MSTORE SWAP1 PUSH0 SWAP1 JUMP JUMPDEST ISZERO PUSH2 0x4F99 JUMPI JUMP JUMPDEST PUSH1 0x40 MLOAD PUSH3 0x461BCD PUSH1 0xE5 SHL DUP2 MSTORE PUSH1 0x20 PUSH1 0x4 DUP3 ADD MSTORE PUSH1 0x16 PUSH1 0x24 DUP3 ADD MSTORE PUSH22 0x496E76616C69642077616C6C65742061646472657373 PUSH1 0x50 SHL PUSH1 0x44 DUP3 ADD MSTORE PUSH1 0x64 SWAP1 REVERT JUMPDEST ISZERO PUSH2 0x4FDE JUMPI JUMP JUMPDEST PUSH1 0x40 MLOAD PUSH3 0x461BCD PUSH1 0xE5 SHL DUP2 MSTORE PUSH1 0x20 PUSH1 0x4 DUP3 ADD MSTORE PUSH1 0x14 PUSH1 0x24 DUP3 ADD MSTORE PUSH20 0x92DCECC2D8D2C840EAE6CAE440928840D0C2E6D PUSH1 0x63 SHL PUSH1 0x44 DUP3 ADD MSTORE PUSH1 0x64 SWAP1 REVERT JUMPDEST ISZERO PUSH2 0x5021 JUMPI JUMP JUMPDEST PUSH1 0x40 MLOAD PUSH3 0x461BCD PUSH1 0xE5 SHL DUP2 MSTORE PUSH1 0x20 PUSH1 0x4 DUP3 ADD MSTORE PUSH1 0x19 PUSH1 0x24 DUP3 ADD MSTORE PUSH32 0x57616C6C657420616C7265616479207265676973746572656400000000000000 PUSH1 0x44 DUP3 ADD MSTORE PUSH1 0x64 SWAP1 REVERT JUMPDEST DUP1 SLOAD PUSH1 0x1 PUSH1 0x40 SHL DUP2 LT ISZERO PUSH2 0x464D JUMPI PUSH2 0x5083 SWAP2 PUSH1 0x1 DUP3 ADD DUP2 SSTORE PUSH2 0x4A44 JUMP JUMPDEST PUSH1 0x1 DUP1 PUSH1 0xA0 SWAP5 SWAP4 SWAP5 SHL SUB DUP1 DUP5 SLOAD SWAP3 PUSH1 0x3 SHL SWAP4 AND DUP4 SHL SWAP3 SHL NOT AND OR SWAP1 SSTORE JUMP JUMPDEST SWAP1 PUSH2 0x50AB DUP2 PUSH2 0x4A6D JUMP JUMPDEST PUSH1 0xFF DUP1 NOT DUP4 SLOAD AND SWAP2 AND OR SWAP1 SSTORE JUMP JUMPDEST PUSH0 NOT DUP2 EQ PUSH2 0x50C7 JUMPI PUSH1 0x1 ADD SWAP1 JUMP JUMPDEST PUSH4 0x4E487B71 PUSH1 0xE0 SHL PUSH0 MSTORE PUSH1 0x11 PUSH1 0x4 MSTORE PUSH1 0x24 PUSH0 REVERT JUMPDEST ISZERO PUSH2 0x50E2 JUMPI JUMP JUMPDEST PUSH1 0x40 MLOAD PUSH3 0x461BCD PUSH1 0xE5 SHL DUP2 MSTORE PUSH1 0x20 PUSH1 0x4 DUP3 ADD MSTORE PUSH1 0x1E PUSH1 0x24 DUP3 ADD MSTORE PUSH32 0x4E6F2061637469766520747275737465652072656C6174696F6E736869700000 PUSH1 0x44 DUP3 ADD MSTORE PUSH1 0x64 SWAP1 REVERT JUMPDEST SWAP1 PUSH2 0x5131 DUP2 PUSH2 0x488D JUMP JUMPDEST PUSH2 0xFF00 DUP3 SLOAD SWAP2 PUSH1 0x8 SHL AND SWAP1 PUSH2 0xFF00 NOT AND OR SWAP1 SSTORE JUMP JUMPDEST PUSH1 0x60 DUP2 ADD SWAP5 SWAP4 SWAP3 PUSH1 0x40 SWAP3 PUSH2 0x5159 DUP2 PUSH2 0x488D JUMP JUMPDEST DUP3 MSTORE PUSH2 0x5164 DUP2 PUSH2 0x488D JUMP JUMPDEST PUSH1 0x20 DUP3 ADD MSTORE ADD MSTORE JUMP JUMPDEST DUP1 MLOAD DUP3 LT ISZERO PUSH2 0x4A59 JUMPI PUSH1 0x20 SWAP2 PUSH1 0x5 SHL ADD ADD SWAP1 JUMP JUMPDEST ISZERO PUSH2 0x5188 JUMPI JUMP JUMPDEST PUSH1 0x40 MLOAD PUSH3 0x461BCD PUSH1 0xE5 SHL DUP2 MSTORE PUSH1 0x20 PUSH1 0x4 DUP3 ADD MSTORE PUSH1 0xF PUSH1 0x24 DUP3 ADD MSTORE PUSH15 0x496E76616C69642061646472657373 PUSH1 0x88 SHL PUSH1 0x44 DUP3 ADD MSTORE PUSH1 0x64 SWAP1 REVERT JUMPDEST PUSH1 0x1 PUSH1 0x1 PUSH1 0xA0 SHL SUB SWAP1 SWAP2 AND PUSH0 SWAP1 DUP2 MSTORE PUSH1 0x1 PUSH1 0x20 MSTORE PUSH1 0x40 SWAP1 KECCAK256 SLOAD DUP1 ISZERO PUSH2 0x4C06 JUMPI PUSH2 0x51E7 SWAP2 PUSH2 0x5426 JUMP JUMPDEST PUSH0 MSTORE PUSH1 0x5 PUSH1 0x20 MSTORE PUSH1 0xFF PUSH1 0x1 PUSH1 0x40 PUSH0 KECCAK256 ADD SLOAD AND SWAP1 JUMP JUMPDEST DUP1 SLOAD SWAP1 PUSH0 DUP2 SSTORE DUP2 PUSH2 0x520B JUMPI POP POP JUMP JUMPDEST PUSH0 MSTORE PUSH1 0x20 PUSH0 KECCAK256 SWAP1 DUP2 ADD SWAP1 JUMPDEST DUP2 DUP2 LT PUSH2 0x5221 JUMPI POP POP JUMP JUMPDEST PUSH0 DUP2 SSTORE PUSH1 0x1 ADD PUSH2 0x5216 JUMP JUMPDEST DUP1 SLOAD SWAP1 PUSH1 0x1 PUSH1 0x40 SHL DUP3 LT ISZERO PUSH2 0x464D JUMPI DUP2 PUSH2 0x524E SWAP2 PUSH1 0x1 PUSH2 0x5264 SWAP5 ADD DUP2 SSTORE PUSH2 0x4A44 JUMP JUMPDEST DUP2 SWAP4 SWAP2 SLOAD SWAP1 PUSH1 0x3 SHL SWAP2 DUP3 SHL SWAP2 PUSH0 NOT SWAP1 SHL NOT AND OR SWAP1 JUMP JUMPDEST SWAP1 SSTORE JUMP JUMPDEST ISZERO PUSH2 0x526F JUMPI JUMP JUMPDEST PUSH1 0x40 MLOAD PUSH3 0x461BCD PUSH1 0xE5 SHL DUP2 MSTORE PUSH1 0x20 PUSH1 0x4 DUP3 ADD MSTORE PUSH1 0xF PUSH1 0x24 DUP3 ADD MSTORE PUSH15 0x496E76616C69642074727573746565 PUSH1 0x88 SHL PUSH1 0x44 DUP3 ADD MSTORE PUSH1 0x64 SWAP1 REVERT JUMPDEST ISZERO PUSH2 0x52AD JUMPI JUMP JUMPDEST PUSH1 0x40 MLOAD PUSH3 0x461BCD PUSH1 0xE5 SHL DUP2 MSTORE PUSH1 0x20 PUSH1 0x4 DUP3 ADD MSTORE PUSH1 0x17 PUSH1 0x24 DUP3 ADD MSTORE PUSH32 0x43616E6E6F74206170706F696E7420796F757273656C66000000000000000000 PUSH1 0x44 DUP3 ADD MSTORE PUSH1 0x64 SWAP1 REVERT JUMPDEST ISZERO PUSH2 0x52F9 JUMPI JUMP JUMPDEST PUSH1 0x40 MLOAD PUSH3 0x461BCD PUSH1 0xE5 SHL DUP2 MSTORE PUSH1 0x20 PUSH1 0x4 DUP3 ADD MSTORE PUSH1 0x16 PUSH1 0x24 DUP3 ADD MSTORE PUSH22 0x151C9D5CDD1959481B9BDD081C9959DA5CDD195C9959 PUSH1 0x52 SHL PUSH1 0x44 DUP3 ADD MSTORE PUSH1 0x64 SWAP1 REVERT JUMPDEST PUSH1 0x1 PUSH1 0x1 PUSH1 0xA0 SHL SUB AND PUSH0 SWAP1 DUP2 MSTORE PUSH1 0x1 PUSH1 0x20 MSTORE PUSH1 0x40 SWAP1 KECCAK256 DUP1 SLOAD SWAP1 DUP2 ISZERO SWAP1 DUP2 ISZERO PUSH2 0x53B8 JUMPI JUMPDEST POP PUSH2 0x53B3 JUMPI PUSH0 MSTORE PUSH1 0x2 PUSH1 0x20 MSTORE PUSH1 0xFF PUSH1 0x40 PUSH0 KECCAK256 SLOAD AND PUSH2 0x5377 DUP2 PUSH2 0x4A6D JUMP JUMPDEST PUSH1 0x2 DUP2 EQ SWAP1 DUP2 ISZERO PUSH2 0x539E JUMPI JUMPDEST DUP2 ISZERO PUSH2 0x538D JUMPI POP SWAP1 JUMP JUMPDEST PUSH1 0x4 SWAP2 POP PUSH2 0x539A DUP2 PUSH2 0x4A6D JUMP JUMPDEST EQ SWAP1 JUMP JUMPDEST SWAP1 POP PUSH2 0x53A9 DUP2 PUSH2 0x4A6D JUMP JUMPDEST PUSH1 0x3 DUP2 EQ SWAP1 PUSH2 0x5383 JUMP JUMPDEST POP PUSH0 SWAP1 JUMP JUMPDEST PUSH1 0xFF SWAP2 POP PUSH1 0x1 ADD SLOAD AND ISZERO PUSH0 PUSH2 0x535A JUMP JUMPDEST PUSH1 0x20 SWAP3 SWAP2 PUSH2 0x53D5 SWAP2 PUSH2 0x5426 JUMP JUMPDEST PUSH0 MSTORE PUSH1 0x5 DUP3 MSTORE PUSH1 0x40 PUSH0 KECCAK256 PUSH1 0x40 MLOAD PUSH2 0x53EB DUP2 PUSH2 0x4632 JUMP JUMPDEST PUSH1 0xFF PUSH1 0x1 PUSH2 0x53F8 DUP5 PUSH2 0x4925 JUMP JUMPDEST SWAP4 DUP5 DUP5 MSTORE ADD SLOAD AND ISZERO ISZERO SWAP4 DUP5 SWAP2 ADD MSTORE DUP3 PUSH2 0x5410 JUMPI POP POP SWAP1 JUMP JUMPDEST SWAP1 SWAP2 POP PUSH1 0x20 DUP2 MLOAD SWAP2 ADD KECCAK256 SWAP1 PUSH1 0x20 DUP2 MLOAD SWAP2 ADD KECCAK256 EQ SWAP1 JUMP JUMPDEST SWAP1 PUSH1 0x40 MLOAD SWAP1 PUSH1 0x20 DUP3 ADD SWAP3 DUP4 MSTORE PUSH1 0x40 DUP3 ADD MSTORE PUSH1 0x40 DUP2 MSTORE PUSH1 0x60 DUP2 ADD DUP2 DUP2 LT PUSH1 0x1 PUSH1 0x1 PUSH1 0x40 SHL SUB DUP3 GT OR PUSH2 0x464D JUMPI PUSH1 0x40 MSTORE MLOAD SWAP1 KECCAK256 SWAP1 JUMP JUMPDEST DUP3 MLOAD PUSH1 0x20 DUP1 SWAP5 ADD KECCAK256 PUSH2 0x546A PUSH2 0x4CD5 JUMP JUMPDEST DUP1 MLOAD SWAP1 DUP6 ADD KECCAK256 DUP2 SUB PUSH2 0x548A JUMPI POP PUSH2 0x4965 SWAP3 PUSH1 0x6 SWAP2 PUSH0 MSTORE MSTORE PUSH1 0x40 PUSH0 KECCAK256 PUSH2 0x5B59 JUMP JUMPDEST PUSH2 0x5492 PUSH2 0x4E5F JUMP JUMPDEST DUP1 MLOAD SWAP1 DUP6 ADD KECCAK256 DUP2 SUB PUSH2 0x54B2 JUMPI POP PUSH2 0x4965 SWAP3 PUSH1 0x7 SWAP2 PUSH0 MSTORE MSTORE PUSH1 0x40 PUSH0 KECCAK256 PUSH2 0x5B59 JUMP JUMPDEST PUSH2 0x54BA PUSH2 0x4E88 JUMP JUMPDEST DUP1 MLOAD SWAP1 DUP6 ADD KECCAK256 DUP2 SUB PUSH2 0x54DA JUMPI POP PUSH2 0x4965 SWAP3 PUSH1 0x8 SWAP2 PUSH0 MSTORE MSTORE PUSH1 0x40 PUSH0 KECCAK256 PUSH2 0x5B59 JUMP JUMPDEST PUSH2 0x54E2 PUSH2 0x4D38 JUMP JUMPDEST DUP5 DUP2 MLOAD SWAP2 ADD KECCAK256 EQ PUSH2 0x54F2 JUMPI POP POP POP JUMP JUMPDEST PUSH2 0x4965 SWAP3 PUSH1 0x9 SWAP2 PUSH0 MSTORE MSTORE PUSH1 0x40 PUSH0 KECCAK256 PUSH2 0x5B59 JUMP JUMPDEST PUSH1 0x20 DUP2 MLOAD SWAP2 ADD KECCAK256 PUSH2 0x5514 PUSH2 0x4CD5 JUMP JUMPDEST PUSH1 0x20 DUP2 MLOAD SWAP2 ADD KECCAK256 DUP2 EQ SWAP1 DUP2 ISZERO PUSH2 0x5564 JUMPI JUMPDEST DUP2 ISZERO PUSH2 0x554B JUMPI JUMPDEST DUP2 ISZERO PUSH2 0x5536 JUMPI POP SWAP1 JUMP JUMPDEST SWAP1 POP PUSH2 0x5540 PUSH2 0x4D38 JUMP JUMPDEST PUSH1 0x20 DUP2 MLOAD SWAP2 ADD KECCAK256 EQ SWAP1 JUMP JUMPDEST SWAP1 POP PUSH2 0x5555 PUSH2 0x4E88 JUMP JUMPDEST PUSH1 0x20 DUP2 MLOAD SWAP2 ADD KECCAK256 DUP2 EQ SWAP1 PUSH2 0x552C JUMP JUMPDEST SWAP1 POP PUSH2 0x556E PUSH2 0x4E5F JUMP JUMPDEST PUSH1 0x20 DUP2 MLOAD SWAP2 ADD KECCAK256 DUP2 EQ SWAP1 PUSH2 0x5525 JUMP JUMPDEST PUSH1 0xA SLOAD PUSH1 0x1 PUSH1 0x1 PUSH1 0xA0 SHL SUB AND SWAP2 DUP3 ISZERO PUSH2 0x4F13 JUMPI PUSH1 0x44 PUSH1 0x20 SWAP3 PUSH1 0x40 MLOAD SWAP5 DUP6 SWAP4 DUP5 SWAP3 PUSH4 0x193D8E75 PUSH1 0xE2 SHL DUP5 MSTORE PUSH1 0x4 DUP5 ADD MSTORE PUSH1 0x24 DUP4 ADD MSTORE GAS STATICCALL SWAP1 DUP2 ISZERO PUSH2 0x55FC JUMPI PUSH0 SWAP2 PUSH2 0x55C4 JUMPI POP SWAP1 JUMP JUMPDEST SWAP1 POP PUSH1 0x20 DUP2 RETURNDATASIZE PUSH1 0x20 GT PUSH2 0x55F4 JUMPI JUMPDEST DUP2 PUSH2 0x55DF PUSH1 0x20 SWAP4 DUP4 PUSH2 0x467C JUMP JUMPDEST DUP2 ADD SUB SLT PUSH2 0x3A0 JUMPI MLOAD DUP1 ISZERO ISZERO DUP2 SUB PUSH2 0x3A0 JUMPI SWAP1 JUMP JUMPDEST RETURNDATASIZE SWAP2 POP PUSH2 0x55D2 JUMP JUMPDEST PUSH1 0x40 MLOAD RETURNDATASIZE PUSH0 DUP3 RETURNDATACOPY RETURNDATASIZE SWAP1 REVERT JUMPDEST SWAP2 SWAP3 PUSH32 0x3AF67CF2057BA8EF414286FB626CD3EFB02F74996E18EFD455B39D8EC7EC460F SWAP2 SWAP5 PUSH2 0x5661 PUSH2 0x5653 SWAP3 PUSH2 0x563F DUP9 DUP3 DUP10 DUP10 PUSH2 0x5982 JUMP JUMPDEST PUSH1 0x40 MLOAD SWAP4 DUP5 SWAP4 PUSH1 0x60 DUP6 MSTORE PUSH1 0x60 DUP6 ADD SWAP1 PUSH2 0x49C7 JUMP JUMPDEST SWAP1 DUP4 DUP3 SUB PUSH1 0x20 DUP6 ADD MSTORE PUSH2 0x49C7 JUMP JUMPDEST TIMESTAMP PUSH1 0x40 DUP4 ADD MSTORE SUB SWAP1 LOG4 JUMP JUMPDEST PUSH1 0x1 PUSH1 0x1 PUSH1 0xA0 SHL SUB AND PUSH0 SWAP1 DUP2 MSTORE PUSH1 0x1 PUSH1 0x20 MSTORE PUSH1 0x40 SWAP1 KECCAK256 DUP1 SLOAD SWAP1 DUP2 ISZERO SWAP1 DUP2 ISZERO PUSH2 0x56AE JUMPI JUMPDEST POP PUSH2 0x53B3 JUMPI PUSH0 MSTORE PUSH1 0x2 PUSH1 0x20 MSTORE PUSH1 0x4 PUSH1 0xFF PUSH1 0x40 PUSH0 KECCAK256 SLOAD AND PUSH2 0x539A DUP2 PUSH2 0x4A6D JUMP JUMPDEST PUSH1 0xFF SWAP2 POP PUSH1 0x1 ADD SLOAD AND ISZERO PUSH0 PUSH2 0x568F JUMP JUMPDEST SWAP2 SWAP3 PUSH2 0x56CB SWAP1 DUP3 DUP5 PUSH2 0x5C42 JUMP JUMPDEST SWAP3 PUSH2 0x56D5 DUP5 PUSH2 0x5505 JUMP JUMPDEST ISZERO PUSH2 0x57A3 JUMPI PUSH2 0x56E4 DUP3 DUP5 PUSH2 0x5426 JUMP JUMPDEST PUSH0 MSTORE PUSH1 0x20 SWAP2 PUSH1 0x5 DUP4 MSTORE PUSH1 0x40 SWAP5 PUSH1 0xFF PUSH1 0x1 DUP8 PUSH0 KECCAK256 ADD SLOAD AND ISZERO PUSH2 0x579B JUMPI PUSH2 0x5709 DUP4 DUP7 PUSH2 0x5426 JUMP JUMPDEST PUSH0 MSTORE PUSH1 0x5 DUP5 MSTORE PUSH1 0xFF PUSH1 0x1 DUP8 PUSH0 KECCAK256 ADD SLOAD AND PUSH2 0x579B JUMPI DUP2 PUSH2 0x5729 SWAP2 DUP5 DUP8 PUSH2 0x5982 JUMP JUMPDEST DUP1 PUSH0 MSTORE PUSH1 0xF DUP4 MSTORE DUP5 PUSH0 KECCAK256 DUP3 PUSH0 MSTORE DUP4 MSTORE DUP5 PUSH0 KECCAK256 DUP5 PUSH0 MSTORE DUP4 MSTORE PUSH1 0xFF DUP6 PUSH0 KECCAK256 SLOAD AND ISZERO PUSH2 0x5754 JUMPI JUMPDEST POP POP POP POP POP JUMP JUMPDEST DUP1 PUSH0 MSTORE PUSH1 0xE DUP4 MSTORE DUP5 PUSH0 KECCAK256 DUP3 PUSH0 MSTORE DUP4 MSTORE PUSH2 0x576F DUP5 DUP7 PUSH0 KECCAK256 PUSH2 0x522C JUMP JUMPDEST PUSH0 MSTORE PUSH1 0xF DUP3 MSTORE DUP4 PUSH0 KECCAK256 SWAP1 PUSH0 MSTORE DUP2 MSTORE DUP3 PUSH0 KECCAK256 SWAP2 PUSH0 MSTORE MSTORE PUSH0 KECCAK256 PUSH1 0x1 PUSH1 0xFF NOT DUP3 SLOAD AND OR SWAP1 SSTORE PUSH0 DUP1 DUP1 DUP1 DUP1 PUSH2 0x574D JUMP JUMPDEST POP POP POP POP POP POP JUMP JUMPDEST POP POP POP POP JUMP JUMPDEST SWAP3 SWAP2 SWAP1 DUP4 PUSH0 MSTORE PUSH1 0x20 SWAP1 PUSH1 0xE DUP3 MSTORE PUSH1 0x40 SWAP1 PUSH1 0x40 PUSH0 KECCAK256 DUP2 PUSH0 MSTORE DUP4 MSTORE PUSH1 0x40 PUSH0 KECCAK256 SWAP6 PUSH0 JUMPDEST DUP8 SLOAD DUP2 LT ISZERO PUSH2 0x5874 JUMPI DUP1 PUSH2 0x57DF PUSH1 0x1 SWAP3 DUP11 PUSH2 0x4A44 JUMP JUMPDEST SWAP1 SLOAD SWAP1 PUSH1 0x3 SHL SHR PUSH2 0x57F0 DUP6 DUP3 PUSH2 0x5426 JUMP JUMPDEST PUSH0 MSTORE PUSH1 0x5 DUP1 DUP9 MSTORE PUSH1 0xFF DUP5 DUP9 PUSH0 KECCAK256 ADD SLOAD AND ISZERO PUSH2 0x586D JUMPI PUSH2 0x5810 DUP10 DUP7 DUP5 PUSH2 0x5C42 JUMP JUMPDEST SWAP1 PUSH2 0x581A DUP3 PUSH2 0x5505 JUMP JUMPDEST ISZERO PUSH2 0x5865 JUMPI PUSH2 0x5829 DUP8 DUP5 PUSH2 0x5426 JUMP JUMPDEST PUSH0 MSTORE DUP9 MSTORE PUSH2 0x5838 DUP8 PUSH0 KECCAK256 PUSH2 0x4925 JUMP JUMPDEST SWAP1 DUP7 DUP7 DUP4 MLOAD DUP12 DUP6 ADD KECCAK256 DUP4 MLOAD DUP13 DUP6 ADD KECCAK256 EQ PUSH2 0x585B JUMPI PUSH2 0x5855 SWAP5 PUSH2 0x5607 JUMP JUMPDEST ADD PUSH2 0x57C9 JUMP JUMPDEST POP POP POP POP POP PUSH2 0x5855 JUMP JUMPDEST POP POP POP PUSH2 0x5855 JUMP JUMPDEST POP POP PUSH2 0x5855 JUMP JUMPDEST POP POP POP POP POP POP SWAP1 POP JUMP JUMPDEST SWAP1 PUSH2 0x51E7 SWAP2 PUSH2 0x5426 JUMP JUMPDEST SWAP2 SWAP1 SWAP2 DUP3 PUSH0 MSTORE PUSH1 0x20 PUSH1 0xF DUP2 MSTORE PUSH1 0x40 DUP1 PUSH0 KECCAK256 DUP5 PUSH0 MSTORE DUP3 MSTORE DUP1 PUSH0 KECCAK256 DUP4 PUSH0 MSTORE DUP3 MSTORE PUSH1 0xFF DUP2 PUSH0 KECCAK256 SLOAD AND ISZERO PUSH2 0x574D JUMPI DUP5 PUSH0 MSTORE PUSH1 0xF DUP3 MSTORE DUP1 PUSH0 KECCAK256 DUP5 PUSH0 MSTORE DUP3 MSTORE DUP1 PUSH0 KECCAK256 DUP4 PUSH0 MSTORE DUP3 MSTORE DUP1 PUSH0 KECCAK256 SWAP1 PUSH1 0xFF NOT SWAP2 DUP3 DUP2 SLOAD AND SWAP1 SSTORE DUP6 PUSH0 MSTORE PUSH1 0xE DUP4 MSTORE DUP1 PUSH0 KECCAK256 DUP6 PUSH0 MSTORE DUP4 MSTORE PUSH2 0x58F2 DUP5 DUP3 PUSH0 KECCAK256 PUSH2 0x5B59 JUMP JUMPDEST PUSH2 0x58FC DUP6 DUP6 PUSH2 0x5426 JUMP JUMPDEST PUSH0 MSTORE PUSH1 0x5 DUP4 MSTORE PUSH1 0xFF PUSH1 0x1 DUP3 PUSH0 KECCAK256 ADD SLOAD AND ISZERO PUSH2 0x579B JUMPI PUSH0 DUP1 MLOAD PUSH1 0x20 PUSH2 0x5E6B DUP4 CODECOPY DUP2 MLOAD SWAP2 MSTORE SWAP3 PUSH2 0x592A DUP7 DUP7 PUSH2 0x5426 JUMP JUMPDEST SWAP3 DUP4 PUSH0 MSTORE PUSH1 0x5 DUP3 MSTORE PUSH2 0x593D DUP4 PUSH0 KECCAK256 PUSH2 0x4925 JUMP JUMPDEST SWAP4 PUSH2 0x5949 DUP6 DUP10 DUP10 PUSH2 0x545A JUMP JUMPDEST PUSH0 MSTORE PUSH1 0x5 DUP3 MSTORE PUSH1 0x1 DUP4 PUSH0 KECCAK256 ADD SWAP1 DUP2 SLOAD AND SWAP1 SSTORE PUSH1 0xB DUP2 MSTORE PUSH0 DUP3 DUP2 KECCAK256 SSTORE PUSH2 0x5977 DUP3 MLOAD SWAP4 DUP4 DUP6 SWAP5 DUP6 MSTORE DUP5 ADD SWAP1 PUSH2 0x49C7 JUMP JUMPDEST SWAP1 TIMESTAMP SWAP1 DUP4 ADD MSTORE SUB SWAP1 LOG4 JUMP JUMPDEST SWAP3 SWAP2 SWAP3 PUSH2 0x598F DUP3 DUP3 PUSH2 0x5426 JUMP JUMPDEST SWAP4 DUP5 PUSH0 MSTORE PUSH1 0x20 PUSH1 0x5 DUP2 MSTORE PUSH1 0x40 SWAP1 DUP2 PUSH0 KECCAK256 SWAP7 PUSH2 0x59A9 DUP9 PUSH2 0x4925 JUMP JUMPDEST SWAP8 PUSH1 0xFF PUSH1 0x1 DUP1 SWAP3 ADD SLOAD AND SWAP1 DUP5 MLOAD SWAP1 PUSH2 0x59C0 DUP3 PUSH2 0x4632 JUMP JUMPDEST DUP7 DUP3 MSTORE DUP5 DUP3 ADD DUP2 DUP2 MSTORE DUP5 PUSH0 MSTORE PUSH1 0x5 DUP7 MSTORE DUP7 PUSH0 KECCAK256 SWAP3 MLOAD DUP1 MLOAD SWAP1 PUSH1 0x1 PUSH1 0x1 PUSH1 0x40 SHL SUB DUP3 GT PUSH2 0x464D JUMPI PUSH2 0x59F0 DUP6 SLOAD PUSH2 0x48ED JUMP JUMPDEST PUSH1 0x1F DUP2 GT PUSH2 0x5B13 JUMPI JUMPDEST POP DUP8 SWAP1 PUSH1 0x1F DUP4 GT PUSH1 0x1 EQ PUSH2 0x5AC5 JUMPI PUSH2 0x5A3E SWAP6 SWAP5 SWAP4 SWAP3 SWAP2 PUSH0 SWAP2 DUP4 PUSH2 0x2A14 JUMPI POP POP PUSH0 NOT PUSH1 0x3 DUP4 SWAP1 SHL SHR NOT AND SWAP1 DUP4 SHL OR DUP4 SSTORE MLOAD ISZERO ISZERO SWAP2 ADD SWAP1 PUSH1 0xFF DUP1 NOT DUP4 SLOAD AND SWAP2 ISZERO ISZERO AND OR SWAP1 SSTORE JUMP JUMPDEST PUSH2 0x5A91 JUMPI PUSH32 0xF9D17EB1340AB78960B594FF8BED1349985B800EE21199C6D5EA4A67454593AD SWAP5 SWAP6 SWAP7 SWAP8 POP PUSH0 MSTORE PUSH1 0xB DUP2 MSTORE DUP7 DUP3 PUSH0 KECCAK256 SSTORE PUSH2 0x5A7E DUP4 DUP8 DUP8 PUSH2 0x5D2E JUMP JUMPDEST PUSH2 0x5977 DUP3 MLOAD SWAP4 DUP4 DUP6 SWAP5 DUP6 MSTORE DUP5 ADD SWAP1 PUSH2 0x49C7 JUMP JUMPDEST POP SWAP2 SWAP5 POP POP DUP5 MLOAD DUP2 DUP7 ADD KECCAK256 SWAP1 DUP5 MLOAD SWAP1 DUP6 ADD KECCAK256 SUB PUSH2 0x5AAE JUMPI POP POP POP POP JUMP JUMPDEST PUSH2 0x2A0F PUSH2 0x5ABC SWAP5 DUP4 DUP4 PUSH2 0x545A JUMP JUMPDEST PUSH0 DUP1 DUP1 DUP1 PUSH2 0x57A3 JUMP JUMPDEST SWAP1 PUSH1 0x1F NOT DUP4 AND SWAP2 DUP7 PUSH0 MSTORE DUP10 PUSH0 KECCAK256 SWAP3 PUSH0 JUMPDEST DUP12 DUP3 DUP3 LT PUSH2 0x5AFF JUMPI POP POP SWAP2 DUP7 SWAP6 SWAP5 SWAP3 SWAP2 DUP4 PUSH2 0x5A3E SWAP10 SWAP9 SWAP6 SWAP4 LT PUSH2 0x2A5A JUMPI POP POP POP DUP2 SHL ADD DUP4 SSTORE PUSH2 0x297D JUMP JUMPDEST DUP4 DUP6 ADD MLOAD DUP7 SSTORE SWAP5 DUP9 ADD SWAP5 SWAP4 DUP5 ADD SWAP4 ADD PUSH2 0x5AD5 JUMP JUMPDEST DUP6 PUSH0 MSTORE DUP9 PUSH0 KECCAK256 PUSH1 0x1F DUP5 ADD PUSH1 0x5 SHR DUP2 ADD SWAP2 DUP11 DUP6 LT PUSH2 0x5B4F JUMPI JUMPDEST PUSH1 0x1F ADD PUSH1 0x5 SHR ADD SWAP1 DUP6 SWAP1 JUMPDEST DUP3 DUP2 LT PUSH2 0x5B44 JUMPI POP POP PUSH2 0x59F9 JUMP JUMPDEST PUSH0 DUP2 SSTORE ADD DUP6 SWAP1 PUSH2 0x5B36 JUMP JUMPDEST SWAP1 SWAP2 POP DUP2 SWAP1 PUSH2 0x5B2B JUMP JUMPDEST PUSH0 JUMPDEST DUP2 SLOAD SWAP1 DUP2 DUP2 LT ISZERO PUSH2 0x57A3 JUMPI DUP4 SWAP2 PUSH2 0x5B72 DUP3 DUP6 PUSH2 0x4A44 JUMP JUMPDEST SWAP6 SWAP1 SLOAD PUSH1 0x3 SWAP7 DUP8 SHL SHR EQ PUSH2 0x5B8C JUMPI POP SWAP1 SWAP3 POP PUSH1 0x1 ADD PUSH2 0x5B5B JUMP JUMPDEST PUSH0 NOT SWAP3 POP DUP3 DUP2 ADD SWAP1 DUP2 GT PUSH2 0x50C7 JUMPI PUSH2 0x524E PUSH2 0x5BAA PUSH2 0x5BB7 SWAP3 DUP7 PUSH2 0x4A44 JUMP JUMPDEST SWAP1 SLOAD SWAP1 DUP8 SHL SHR SWAP3 DUP6 PUSH2 0x4A44 JUMP JUMPDEST SWAP1 SSTORE DUP2 SLOAD DUP1 ISZERO PUSH2 0x5BDC JUMPI DUP2 ADD SWAP3 PUSH2 0x5BCE DUP5 DUP5 PUSH2 0x4A44 JUMP JUMPDEST DUP2 SWAP4 SWAP2 SLOAD SWAP3 SHL SHL NOT AND SWAP1 SSTORE SSTORE JUMP JUMPDEST PUSH4 0x4E487B71 PUSH1 0xE0 SHL PUSH0 MSTORE PUSH1 0x31 PUSH1 0x4 MSTORE PUSH1 0x24 PUSH0 REVERT JUMPDEST PUSH1 0x1 PUSH1 0x1 PUSH1 0xA0 SHL SUB AND PUSH0 SWAP1 DUP2 MSTORE PUSH1 0x1 PUSH1 0x20 MSTORE PUSH1 0x40 SWAP1 KECCAK256 DUP1 SLOAD SWAP1 DUP2 ISZERO SWAP1 DUP2 ISZERO PUSH2 0x5C32 JUMPI JUMPDEST POP PUSH2 0x53B3 JUMPI PUSH0 MSTORE PUSH1 0x2 PUSH1 0x20 MSTORE PUSH1 0x3 PUSH1 0xFF PUSH1 0x40 PUSH0 KECCAK256 SLOAD AND PUSH2 0x539A DUP2 PUSH2 0x4A6D JUMP JUMPDEST PUSH1 0xFF SWAP2 POP PUSH1 0x1 ADD SLOAD AND ISZERO PUSH0 PUSH2 0x5C13 JUMP JUMPDEST SWAP1 PUSH2 0x5C4C DUP4 PUSH2 0x488D JUMP JUMPDEST DUP3 ISZERO PUSH2 0x5D23 JUMPI PUSH2 0x5C5B SWAP2 PUSH2 0x5426 JUMP JUMPDEST PUSH0 MSTORE PUSH1 0x20 SWAP1 PUSH1 0x5 DUP3 MSTORE PUSH1 0x40 PUSH0 KECCAK256 PUSH1 0xFF PUSH1 0x1 PUSH1 0x40 MLOAD SWAP3 PUSH2 0x5C79 DUP5 PUSH2 0x4632 JUMP JUMPDEST PUSH2 0x5C82 DUP2 PUSH2 0x4925 JUMP JUMPDEST DUP5 MSTORE ADD SLOAD AND ISZERO DUP1 ISZERO DUP5 DUP4 ADD MSTORE PUSH2 0x5D0D JUMPI MLOAD SWAP2 JUMPDEST DUP3 MLOAD DUP2 DUP5 ADD KECCAK256 SWAP2 PUSH2 0x5CA4 PUSH2 0x4E88 JUMP JUMPDEST DUP3 DUP2 MLOAD SWAP2 ADD KECCAK256 DUP4 EQ DUP1 ISZERO PUSH2 0x5CF7 JUMPI JUMPDEST PUSH2 0x5CEB JUMPI DUP1 PUSH2 0x5CC3 PUSH1 0x1 SWAP3 PUSH2 0x488D JUMP JUMPDEST EQ PUSH2 0x5CCD JUMPI POP POP SWAP1 JUMP JUMPDEST PUSH2 0x5CD5 PUSH2 0x4CD5 JUMP JUMPDEST DUP1 MLOAD SWAP2 ADD KECCAK256 EQ PUSH2 0x5CE2 JUMPI SWAP1 JUMP JUMPDEST POP PUSH2 0x4774 PUSH2 0x4E5F JUMP JUMPDEST POP POP POP POP PUSH2 0x4774 PUSH2 0x4D38 JUMP JUMPDEST POP PUSH2 0x5D00 PUSH2 0x4D38 JUMP JUMPDEST DUP3 DUP2 MLOAD SWAP2 ADD KECCAK256 DUP4 EQ PUSH2 0x5CB3 JUMP JUMPDEST POP PUSH1 0x40 MLOAD PUSH2 0x5D1A DUP2 PUSH2 0x4661 JUMP JUMPDEST PUSH0 DUP2 MSTORE SWAP2 PUSH2 0x5C95 JUMP JUMPDEST POP POP POP PUSH2 0x4774 PUSH2 0x4D38 JUMP JUMPDEST DUP3 MLOAD PUSH1 0x20 DUP1 SWAP5 ADD KECCAK256 PUSH2 0x5D3E PUSH2 0x4CD5 JUMP JUMPDEST DUP1 MLOAD SWAP1 DUP6 ADD KECCAK256 DUP2 SUB PUSH2 0x5D5E JUMPI POP PUSH2 0x4965 SWAP3 PUSH1 0x6 SWAP2 PUSH0 MSTORE MSTORE PUSH1 0x40 PUSH0 KECCAK256 PUSH2 0x522C JUMP JUMPDEST PUSH2 0x5D66 PUSH2 0x4E5F JUMP JUMPDEST DUP1 MLOAD SWAP1 DUP6 ADD KECCAK256 DUP2 SUB PUSH2 0x5D86 JUMPI POP PUSH2 0x4965 SWAP3 PUSH1 0x7 SWAP2 PUSH0 MSTORE MSTORE PUSH1 0x40 PUSH0 KECCAK256 PUSH2 0x522C JUMP JUMPDEST PUSH2 0x5D8E PUSH2 0x4E88 JUMP JUMPDEST DUP1 MLOAD SWAP1 DUP6 ADD KECCAK256 DUP2 SUB PUSH2 0x5DAE JUMPI POP PUSH2 0x4965 SWAP3 PUSH1 0x8 SWAP2 PUSH0 MSTORE MSTORE PUSH1 0x40 PUSH0 KECCAK256 PUSH2 0x522C JUMP JUMPDEST PUSH2 0x5DB6 PUSH2 0x4D38 JUMP JUMPDEST DUP5 DUP2 MLOAD SWAP2 ADD KECCAK256 EQ PUSH2 0x5DC6 JUMPI POP POP POP JUMP JUMPDEST PUSH2 0x4965 SWAP3 PUSH1 0x9 SWAP2 PUSH0 MSTORE MSTORE PUSH1 0x40 PUSH0 KECCAK256 PUSH2 0x522C JUMP JUMPDEST SWAP1 PUSH0 DUP1 SWAP2 PUSH1 0x20 DUP2 MLOAD SWAP2 ADD DUP5 GAS DELEGATECALL DUP1 DUP1 PUSH2 0x5E57 JUMPI JUMPDEST ISZERO PUSH2 0x5E0D JUMPI POP POP PUSH1 0x40 MLOAD RETURNDATASIZE DUP2 MSTORE RETURNDATASIZE PUSH0 PUSH1 0x20 DUP4 ADD RETURNDATACOPY PUSH1 0x20 RETURNDATASIZE DUP3 ADD ADD PUSH1 0x40 MSTORE SWAP1 JUMP JUMPDEST ISZERO PUSH2 0x5E34 JUMPI PUSH1 0x40 MLOAD PUSH4 0x9996B315 PUSH1 0xE0 SHL DUP2 MSTORE PUSH1 0x1 PUSH1 0x1 PUSH1 0xA0 SHL SUB SWAP1 SWAP2 AND PUSH1 0x4 DUP3 ADD MSTORE PUSH1 0x24 SWAP1 REVERT JUMPDEST RETURNDATASIZE ISZERO PUSH2 0x5E45 JUMPI PUSH1 0x40 MLOAD RETURNDATASIZE PUSH0 DUP3 RETURNDATACOPY RETURNDATASIZE SWAP1 REVERT JUMPDEST PUSH1 0x40 MLOAD PUSH4 0xD6BDA275 PUSH1 0xE0 SHL DUP2 MSTORE PUSH1 0x4 SWAP1 REVERT JUMPDEST POP RETURNDATASIZE ISZERO ISZERO DUP1 PUSH2 0x5DED JUMPI POP DUP2 EXTCODESIZE ISZERO ISZERO PUSH2 0x5DED JUMP INVALID 0xD0 MCOPY 0xD2 0xD3 INVALID SELFDESTRUCT DUP5 0xC 0x2E 0xCE 0xCA PUSH18 0x791388FD3D19DBBBBCFA97031F534A7DC09F 0xBF 0x1F 0x4F PUSH15 0x6C79206F776E65727320616E642061 PUSH5 0x6D696E6973 PUSH21 0x7261746F72732063A2646970667358221220FFFD11 PUSH0 PUSH25 0x3DACCB0435FCE92960B124B405FAE365FDD1F4E40CA1611BDF PUSH9 0x6B64736F6C63430008 XOR STOP CALLER "},"methodIdentifiers":{"UPGRADE_INTERFACE_VERSION()":"ad3cb1cc","acceptTrustee(bytes32)":"b8cab84b","addMember(address,bytes32)":"49df7208","addMemberBatch(address[],bytes32)":"69ac2022","admin()":"f851a440","adminsByRecord(bytes32,uint256)":"8776cd35","bootstrapDependentTrustee(bytes32,bytes32)":"e6efcd5d","changeRole(bytes32,address,string)":"29c9087a","changeRoleBatch(bytes32[],address,string[])":"51eed472","deactivateWallet(address)":"0b3ffd1d","declineTrustee(bytes32)":"f76794f1","downgradeTrusteeLevel(bytes32,uint8)":"4d3c4a7c","extendTrusteeGrantsOnAnchor(bytes32,bytes32)":"30d7265c","getAllRecordParticipants(bytes32)":"78ad8f5b","getHealthRecordCore()":"e94ed257","getRecordAdmins(bytes32)":"41a51baa","getRecordOwners(bytes32)":"c36dc9ef","getRecordRoleStats(bytes32)":"8db7edb4","getRecordSharers(bytes32)":"2ab5d8f3","getRecordViewers(bytes32)":"033e822f","getRoleDetails(bytes32,address)":"422a5bb8","getRoleDetailsByUser(bytes32,bytes32)":"43e19704","getRoleGranter(bytes32,bytes32)":"aaddc345","getTotalUsers()":"9be572f6","getTrusteeGrantedRecords(bytes32,bytes32)":"c497d840","getTrusteeRelationship(bytes32,bytes32)":"9915b91f","getTrusteesForTrustor(bytes32)":"d1f616dd","getUserForWallet(address)":"00b0c809","getUserStatus(bytes32)":"f29e007b","getVouchStatus(bytes32,bytes32)":"0a296a7b","getVouchesGiven(bytes32)":"8806e591","getVouchesReceived(bytes32)":"f50936c9","getWalletsForUser(bytes32)":"d12a7768","giveVouch(bytes32)":"db54f7b7","grantRole(bytes32,address,string)":"dde492ea","grantRoleBatch(bytes32[],address,string[])":"02ba8109","hasActiveRole(bytes32,address)":"c88c35fe","hasRole(bytes32,address,string)":"3befa410","hasVouched(bytes32,bytes32)":"dff1bea0","healthRecordCore()":"562c788e","initialize()":"8129fc1c","initializeRecordRole(bytes32,address,string)":"726d5447","isActiveMember(address)":"45ecd02f","isActiveSubject(bytes32,bytes32)":"64f639d4","isControllerOf(bytes32,bytes32)":"557ee54f","isOwnerOrAdmin(bytes32,address)":"0519e2a0","isVerifiedMember(address)":"cb261a03","isVerifiedProvider(address)":"259ed80e","ownersByRecord(bytes32,uint256)":"55816079","proposeTrustee(bytes32,uint8,bytes32[])":"dc9f9664","proxiableUUID()":"52d1902d","reactivateWallet(address)":"bb0f86d5","recordRoles(bytes32)":"33105592","retractTrusteeGrantsOnUnanchor(bytes32,bytes32)":"6fee32fa","retractVouch(bytes32)":"73c19c8d","revokeRole(bytes32,address)":"d547741f","revokeRoleBatch(bytes32[],address)":"f12b9ad3","revokeTrustee(bytes32,bytes32)":"c979c9bf","roleGrantedBy(bytes32)":"cda06c6e","setHealthRecordCore(address)":"c7155823","setUserStatus(bytes32,uint8)":"96207e02","sharersByRecord(bytes32,uint256)":"f32b10f0","totalUsers()":"bff1f9e1","transferAdmin(address)":"75829def","trusteeRelationships(bytes32,bytes32)":"7b657d07","trusteesByTrustor(bytes32,uint256)":"fdd9887e","updateTrusteeLevel(bytes32,uint8)":"ab48384a","upgradeToAndCall(address,bytes)":"4f1ef286","userStatus(bytes32)":"6b4bed97","userWallets(bytes32,uint256)":"9443cd80","viewersByRecord(bytes32,uint256)":"93ccfba8","voluntarilyLeaveOwnership(bytes32,string)":"16a19718","vouches(bytes32,bytes32)":"fc78f177","vouchesGiven(bytes32,uint256)":"68309c89","vouchesReceived(bytes32,uint256)":"96a03f8d","wallets(address)":"89b08f11"}},"storageLayout":{"storage":[{"astId":1563,"contract":"smartContracts/MemberRoleManager.sol:MemberRoleManager","label":"admin","offset":0,"slot":"0","type":"t_address"},{"astId":1755,"contract":"smartContracts/MemberRoleManager.sol:MemberRoleManager","label":"wallets","offset":0,"slot":"1","type":"t_mapping(t_address,t_struct(UserInfo)1750_storage)"},{"astId":1760,"contract":"smartContracts/MemberRoleManager.sol:MemberRoleManager","label":"userStatus","offset":0,"slot":"2","type":"t_mapping(t_bytes32,t_enum(MemberStatus)1715)"},{"astId":1765,"contract":"smartContracts/MemberRoleManager.sol:MemberRoleManager","label":"userWallets","offset":0,"slot":"3","type":"t_mapping(t_bytes32,t_array(t_address)dyn_storage)"},{"astId":1767,"contract":"smartContracts/MemberRoleManager.sol:MemberRoleManager","label":"totalUsers","offset":0,"slot":"4","type":"t_uint256"},{"astId":2397,"contract":"smartContracts/MemberRoleManager.sol:MemberRoleManager","label":"recordRoles","offset":0,"slot":"5","type":"t_mapping(t_bytes32,t_struct(RecordRole)2392_storage)"},{"astId":2402,"contract":"smartContracts/MemberRoleManager.sol:MemberRoleManager","label":"ownersByRecord","offset":0,"slot":"6","type":"t_mapping(t_bytes32,t_array(t_bytes32)dyn_storage)"},{"astId":2407,"contract":"smartContracts/MemberRoleManager.sol:MemberRoleManager","label":"adminsByRecord","offset":0,"slot":"7","type":"t_mapping(t_bytes32,t_array(t_bytes32)dyn_storage)"},{"astId":2412,"contract":"smartContracts/MemberRoleManager.sol:MemberRoleManager","label":"sharersByRecord","offset":0,"slot":"8","type":"t_mapping(t_bytes32,t_array(t_bytes32)dyn_storage)"},{"astId":2417,"contract":"smartContracts/MemberRoleManager.sol:MemberRoleManager","label":"viewersByRecord","offset":0,"slot":"9","type":"t_mapping(t_bytes32,t_array(t_bytes32)dyn_storage)"},{"astId":2420,"contract":"smartContracts/MemberRoleManager.sol:MemberRoleManager","label":"healthRecordCore","offset":0,"slot":"10","type":"t_contract(HealthRecordCoreInterface)1554"},{"astId":2424,"contract":"smartContracts/MemberRoleManager.sol:MemberRoleManager","label":"roleGrantedBy","offset":0,"slot":"11","type":"t_mapping(t_bytes32,t_bytes32)"},{"astId":4439,"contract":"smartContracts/MemberRoleManager.sol:MemberRoleManager","label":"trusteeRelationships","offset":0,"slot":"12","type":"t_mapping(t_bytes32,t_mapping(t_bytes32,t_struct(TrusteeRelationship)4432_storage))"},{"astId":4444,"contract":"smartContracts/MemberRoleManager.sol:MemberRoleManager","label":"trusteesByTrustor","offset":0,"slot":"13","type":"t_mapping(t_bytes32,t_array(t_bytes32)dyn_storage)"},{"astId":4451,"contract":"smartContracts/MemberRoleManager.sol:MemberRoleManager","label":"_trusteeGrantedRecords","offset":0,"slot":"14","type":"t_mapping(t_bytes32,t_mapping(t_bytes32,t_array(t_bytes32)dyn_storage))"},{"astId":4459,"contract":"smartContracts/MemberRoleManager.sol:MemberRoleManager","label":"_trusteeGrantedRecordSet","offset":0,"slot":"15","type":"t_mapping(t_bytes32,t_mapping(t_bytes32,t_mapping(t_bytes32,t_bool)))"},{"astId":6741,"contract":"smartContracts/MemberRoleManager.sol:MemberRoleManager","label":"vouches","offset":0,"slot":"16","type":"t_mapping(t_bytes32,t_mapping(t_bytes32,t_enum(VouchStatus)6718))"},{"astId":6746,"contract":"smartContracts/MemberRoleManager.sol:MemberRoleManager","label":"vouchesGiven","offset":0,"slot":"17","type":"t_mapping(t_bytes32,t_array(t_bytes32)dyn_storage)"},{"astId":6751,"contract":"smartContracts/MemberRoleManager.sol:MemberRoleManager","label":"vouchesReceived","offset":0,"slot":"18","type":"t_mapping(t_bytes32,t_array(t_bytes32)dyn_storage)"},{"astId":6975,"contract":"smartContracts/MemberRoleManager.sol:MemberRoleManager","label":"__gap","offset":0,"slot":"19","type":"t_array(t_uint256)50_storage"}],"types":{"t_address":{"encoding":"inplace","label":"address","numberOfBytes":"20"},"t_array(t_address)dyn_storage":{"base":"t_address","encoding":"dynamic_array","label":"address[]","numberOfBytes":"32"},"t_array(t_bytes32)dyn_storage":{"base":"t_bytes32","encoding":"dynamic_array","label":"bytes32[]","numberOfBytes":"32"},"t_array(t_uint256)50_storage":{"base":"t_uint256","encoding":"inplace","label":"uint256[50]","numberOfBytes":"1600"},"t_bool":{"encoding":"inplace","label":"bool","numberOfBytes":"1"},"t_bytes32":{"encoding":"inplace","label":"bytes32","numberOfBytes":"32"},"t_contract(HealthRecordCoreInterface)1554":{"encoding":"inplace","label":"contract HealthRecordCoreInterface","numberOfBytes":"20"},"t_enum(MemberStatus)1715":{"encoding":"inplace","label":"enum MemberRoleManager.MemberStatus","numberOfBytes":"1"},"t_enum(TrusteeLevel)4419":{"encoding":"inplace","label":"enum MemberRoleManager.TrusteeLevel","numberOfBytes":"1"},"t_enum(TrusteeStatus)4425":{"encoding":"inplace","label":"enum MemberRoleManager.TrusteeStatus","numberOfBytes":"1"},"t_enum(VouchStatus)6718":{"encoding":"inplace","label":"enum MemberRoleManager.VouchStatus","numberOfBytes":"1"},"t_mapping(t_address,t_struct(UserInfo)1750_storage)":{"encoding":"mapping","key":"t_address","label":"mapping(address => struct MemberRoleManager.UserInfo)","numberOfBytes":"32","value":"t_struct(UserInfo)1750_storage"},"t_mapping(t_bytes32,t_array(t_address)dyn_storage)":{"encoding":"mapping","key":"t_bytes32","label":"mapping(bytes32 => address[])","numberOfBytes":"32","value":"t_array(t_address)dyn_storage"},"t_mapping(t_bytes32,t_array(t_bytes32)dyn_storage)":{"encoding":"mapping","key":"t_bytes32","label":"mapping(bytes32 => bytes32[])","numberOfBytes":"32","value":"t_array(t_bytes32)dyn_storage"},"t_mapping(t_bytes32,t_bool)":{"encoding":"mapping","key":"t_bytes32","label":"mapping(bytes32 => bool)","numberOfBytes":"32","value":"t_bool"},"t_mapping(t_bytes32,t_bytes32)":{"encoding":"mapping","key":"t_bytes32","label":"mapping(bytes32 => bytes32)","numberOfBytes":"32","value":"t_bytes32"},"t_mapping(t_bytes32,t_enum(MemberStatus)1715)":{"encoding":"mapping","key":"t_bytes32","label":"mapping(bytes32 => enum MemberRoleManager.MemberStatus)","numberOfBytes":"32","value":"t_enum(MemberStatus)1715"},"t_mapping(t_bytes32,t_enum(VouchStatus)6718)":{"encoding":"mapping","key":"t_bytes32","label":"mapping(bytes32 => enum MemberRoleManager.VouchStatus)","numberOfBytes":"32","value":"t_enum(VouchStatus)6718"},"t_mapping(t_bytes32,t_mapping(t_bytes32,t_array(t_bytes32)dyn_storage))":{"encoding":"mapping","key":"t_bytes32","label":"mapping(bytes32 => mapping(bytes32 => bytes32[]))","numberOfBytes":"32","value":"t_mapping(t_bytes32,t_array(t_bytes32)dyn_storage)"},"t_mapping(t_bytes32,t_mapping(t_bytes32,t_bool))":{"encoding":"mapping","key":"t_bytes32","label":"mapping(bytes32 => mapping(bytes32 => bool))","numberOfBytes":"32","value":"t_mapping(t_bytes32,t_bool)"},"t_mapping(t_bytes32,t_mapping(t_bytes32,t_enum(VouchStatus)6718))":{"encoding":"mapping","key":"t_bytes32","label":"mapping(bytes32 => mapping(bytes32 => enum MemberRoleManager.VouchStatus))","numberOfBytes":"32","value":"t_mapping(t_bytes32,t_enum(VouchStatus)6718)"},"t_mapping(t_bytes32,t_mapping(t_bytes32,t_mapping(t_bytes32,t_bool)))":{"encoding":"mapping","key":"t_bytes32","label":"mapping(bytes32 => mapping(bytes32 => mapping(bytes32 => bool)))","numberOfBytes":"32","value":"t_mapping(t_bytes32,t_mapping(t_bytes32,t_bool))"},"t_mapping(t_bytes32,t_mapping(t_bytes32,t_struct(TrusteeRelationship)4432_storage))":{"encoding":"mapping","key":"t_bytes32","label":"mapping(bytes32 => mapping(bytes32 => struct MemberRoleManager.TrusteeRelationship))","numberOfBytes":"32","value":"t_mapping(t_bytes32,t_struct(TrusteeRelationship)4432_storage)"},"t_mapping(t_bytes32,t_struct(RecordRole)2392_storage)":{"encoding":"mapping","key":"t_bytes32","label":"mapping(bytes32 => struct MemberRoleManager.RecordRole)","numberOfBytes":"32","value":"t_struct(RecordRole)2392_storage"},"t_mapping(t_bytes32,t_struct(TrusteeRelationship)4432_storage)":{"encoding":"mapping","key":"t_bytes32","label":"mapping(bytes32 => struct MemberRoleManager.TrusteeRelationship)","numberOfBytes":"32","value":"t_struct(TrusteeRelationship)4432_storage"},"t_string_storage":{"encoding":"bytes","label":"string","numberOfBytes":"32"},"t_struct(RecordRole)2392_storage":{"encoding":"inplace","label":"struct MemberRoleManager.RecordRole","members":[{"astId":2389,"contract":"smartContracts/MemberRoleManager.sol:MemberRoleManager","label":"role","offset":0,"slot":"0","type":"t_string_storage"},{"astId":2391,"contract":"smartContracts/MemberRoleManager.sol:MemberRoleManager","label":"isActive","offset":0,"slot":"1","type":"t_bool"}],"numberOfBytes":"64"},"t_struct(TrusteeRelationship)4432_storage":{"encoding":"inplace","label":"struct MemberRoleManager.TrusteeRelationship","members":[{"astId":4428,"contract":"smartContracts/MemberRoleManager.sol:MemberRoleManager","label":"status","offset":0,"slot":"0","type":"t_enum(TrusteeStatus)4425"},{"astId":4431,"contract":"smartContracts/MemberRoleManager.sol:MemberRoleManager","label":"level","offset":1,"slot":"0","type":"t_enum(TrusteeLevel)4419"}],"numberOfBytes":"32"},"t_struct(UserInfo)1750_storage":{"encoding":"inplace","label":"struct MemberRoleManager.UserInfo","members":[{"astId":1747,"contract":"smartContracts/MemberRoleManager.sol:MemberRoleManager","label":"userIdHash","offset":0,"slot":"0","type":"t_bytes32"},{"astId":1749,"contract":"smartContracts/MemberRoleManager.sol:MemberRoleManager","label":"isWalletActive","offset":0,"slot":"1","type":"t_bool"}],"numberOfBytes":"64"},"t_uint256":{"encoding":"inplace","label":"uint256","numberOfBytes":"32"}}}}}}