{"smartContracts/HealthRecordCore.sol":{"HealthRecordCore":{"abi":[{"inputs":[],"stateMutability":"nonpayable","type":"constructor"},{"inputs":[{"internalType":"address","name":"target","type":"address"}],"name":"AddressEmptyCode","type":"error"},{"inputs":[{"internalType":"address","name":"implementation","type":"address"}],"name":"ERC1967InvalidImplementation","type":"error"},{"inputs":[],"name":"ERC1967NonPayable","type":"error"},{"inputs":[],"name":"FailedCall","type":"error"},{"inputs":[],"name":"InvalidInitialization","type":"error"},{"inputs":[],"name":"NotInitializing","type":"error"},{"inputs":[],"name":"UUPSUnauthorizedCallContext","type":"error"},{"inputs":[{"internalType":"bytes32","name":"slot","type":"bytes32"}],"name":"UUPSUnsupportedProxiableUUID","type":"error"},{"anonymous":false,"inputs":[{"indexed":true,"internalType":"address","name":"oldAdmin","type":"address"},{"indexed":true,"internalType":"address","name":"newAdmin","type":"address"},{"indexed":false,"internalType":"uint256","name":"timestamp","type":"uint256"}],"name":"AdminTransferred","type":"event"},{"anonymous":false,"inputs":[{"indexed":true,"internalType":"bytes32","name":"recordHash","type":"bytes32"},{"indexed":true,"internalType":"bytes32","name":"disputerIdHash","type":"bytes32"},{"indexed":false,"internalType":"enum HealthRecordCore.DisputeSeverity","name":"oldSeverity","type":"uint8"},{"indexed":false,"internalType":"enum HealthRecordCore.DisputeSeverity","name":"newSeverity","type":"uint8"},{"indexed":false,"internalType":"enum HealthRecordCore.DisputeCulpability","name":"oldCulpability","type":"uint8"},{"indexed":false,"internalType":"enum HealthRecordCore.DisputeCulpability","name":"newCulpability","type":"uint8"},{"indexed":false,"internalType":"uint256","name":"timestamp","type":"uint256"}],"name":"DisputeModification","type":"event"},{"anonymous":false,"inputs":[{"indexed":true,"internalType":"bytes32","name":"recordHash","type":"bytes32"},{"indexed":true,"internalType":"bytes32","name":"disputerIdHash","type":"bytes32"},{"indexed":false,"internalType":"uint256","name":"timestamp","type":"uint256"}],"name":"DisputeRetracted","type":"event"},{"anonymous":false,"inputs":[{"indexed":false,"internalType":"uint64","name":"version","type":"uint64"}],"name":"Initialized","type":"event"},{"anonymous":false,"inputs":[{"indexed":true,"internalType":"bytes32","name":"recordIdHash","type":"bytes32"},{"indexed":true,"internalType":"bytes32","name":"recordHash","type":"bytes32"},{"indexed":true,"internalType":"bytes32","name":"subjectIdHash","type":"bytes32"},{"indexed":false,"internalType":"uint256","name":"timestamp","type":"uint256"}],"name":"RecordAnchored","type":"event"},{"anonymous":false,"inputs":[{"indexed":true,"internalType":"bytes32","name":"recordHash","type":"bytes32"},{"indexed":true,"internalType":"bytes32","name":"recordIdHash","type":"bytes32"},{"indexed":true,"internalType":"bytes32","name":"disputerIdHash","type":"bytes32"},{"indexed":false,"internalType":"enum HealthRecordCore.DisputeSeverity","name":"severity","type":"uint8"},{"indexed":false,"internalType":"enum HealthRecordCore.DisputeCulpability","name":"culpability","type":"uint8"},{"indexed":false,"internalType":"uint256","name":"timestamp","type":"uint256"}],"name":"RecordDisputed","type":"event"},{"anonymous":false,"inputs":[{"indexed":true,"internalType":"bytes32","name":"recordIdHash","type":"bytes32"},{"indexed":true,"internalType":"bytes32","name":"newHash","type":"bytes32"},{"indexed":false,"internalType":"bytes32","name":"addedBy","type":"bytes32"},{"indexed":false,"internalType":"uint256","name":"timestamp","type":"uint256"}],"name":"RecordHashAdded","type":"event"},{"anonymous":false,"inputs":[{"indexed":true,"internalType":"bytes32","name":"recordIdHash","type":"bytes32"},{"indexed":true,"internalType":"bytes32","name":"recordHash","type":"bytes32"},{"indexed":false,"internalType":"uint256","name":"timestamp","type":"uint256"}],"name":"RecordHashRetracted","type":"event"},{"anonymous":false,"inputs":[{"indexed":true,"internalType":"bytes32","name":"recordIdHash","type":"bytes32"},{"indexed":true,"internalType":"bytes32","name":"subjectIdHash","type":"bytes32"},{"indexed":false,"internalType":"uint256","name":"timestamp","type":"uint256"}],"name":"RecordReanchored","type":"event"},{"anonymous":false,"inputs":[{"indexed":true,"internalType":"bytes32","name":"recordIdHash","type":"bytes32"},{"indexed":true,"internalType":"bytes32","name":"subjectIdHash","type":"bytes32"},{"indexed":false,"internalType":"uint256","name":"timestamp","type":"uint256"}],"name":"RecordUnanchored","type":"event"},{"anonymous":false,"inputs":[{"indexed":true,"internalType":"bytes32","name":"recordHash","type":"bytes32"},{"indexed":true,"internalType":"bytes32","name":"recordIdHash","type":"bytes32"},{"indexed":true,"internalType":"bytes32","name":"verifierIdHash","type":"bytes32"},{"indexed":false,"internalType":"enum HealthRecordCore.VerificationLevel","name":"level","type":"uint8"},{"indexed":false,"internalType":"uint256","name":"timestamp","type":"uint256"}],"name":"RecordVerified","type":"event"},{"anonymous":false,"inputs":[{"indexed":true,"internalType":"bytes32","name":"subjectIdHash","type":"bytes32"},{"indexed":true,"internalType":"bytes32","name":"recordIdHash","type":"bytes32"},{"indexed":true,"internalType":"bytes32","name":"reporterIdHash","type":"bytes32"},{"indexed":false,"internalType":"uint256","name":"timestamp","type":"uint256"}],"name":"UnacceptedUpdateFlagRevoked","type":"event"},{"anonymous":false,"inputs":[{"indexed":true,"internalType":"bytes32","name":"subjectIdHash","type":"bytes32"},{"indexed":true,"internalType":"bytes32","name":"recordIdHash","type":"bytes32"},{"indexed":true,"internalType":"bytes32","name":"reporterIdHash","type":"bytes32"},{"indexed":false,"internalType":"bytes32","name":"recordHash","type":"bytes32"},{"indexed":false,"internalType":"uint256","name":"timestamp","type":"uint256"}],"name":"UnacceptedUpdateFlagged","type":"event"},{"anonymous":false,"inputs":[{"indexed":true,"internalType":"address","name":"implementation","type":"address"}],"name":"Upgraded","type":"event"},{"anonymous":false,"inputs":[{"indexed":true,"internalType":"bytes32","name":"recordHash","type":"bytes32"},{"indexed":true,"internalType":"bytes32","name":"verifierIdHash","type":"bytes32"},{"indexed":false,"internalType":"enum HealthRecordCore.VerificationLevel","name":"oldLevel","type":"uint8"},{"indexed":false,"internalType":"enum HealthRecordCore.VerificationLevel","name":"newLevel","type":"uint8"},{"indexed":false,"internalType":"uint256","name":"timestamp","type":"uint256"}],"name":"VerificationLevelModified","type":"event"},{"anonymous":false,"inputs":[{"indexed":true,"internalType":"bytes32","name":"recordHash","type":"bytes32"},{"indexed":true,"internalType":"bytes32","name":"verifierIdHash","type":"bytes32"},{"indexed":false,"internalType":"uint256","name":"timestamp","type":"uint256"}],"name":"VerificationRetracted","type":"event"},{"inputs":[],"name":"UPGRADE_INTERFACE_VERSION","outputs":[{"internalType":"string","name":"","type":"string"}],"stateMutability":"view","type":"function"},{"inputs":[{"internalType":"bytes32","name":"","type":"bytes32"}],"name":"activeUnacceptedFlagCount","outputs":[{"internalType":"uint256","name":"","type":"uint256"}],"stateMutability":"view","type":"function"},{"inputs":[{"internalType":"bytes32","name":"recordIdHash","type":"bytes32"},{"internalType":"bytes32","name":"newHash","type":"bytes32"}],"name":"addRecordHash","outputs":[],"stateMutability":"nonpayable","type":"function"},{"inputs":[],"name":"admin","outputs":[{"internalType":"address","name":"","type":"address"}],"stateMutability":"view","type":"function"},{"inputs":[{"internalType":"bytes32","name":"recordIdHash","type":"bytes32"},{"internalType":"bytes32","name":"recordHash","type":"bytes32"},{"internalType":"bytes32","name":"subjectIdHash","type":"bytes32"},{"internalType":"uint8","name":"selfVerifyLevel","type":"uint8"}],"name":"anchorRecord","outputs":[],"stateMutability":"nonpayable","type":"function"},{"inputs":[{"internalType":"bytes32","name":"","type":"bytes32"},{"internalType":"bytes32","name":"","type":"bytes32"}],"name":"currentlyDisputed","outputs":[{"internalType":"bool","name":"","type":"bool"}],"stateMutability":"view","type":"function"},{"inputs":[{"internalType":"bytes32","name":"","type":"bytes32"},{"internalType":"bytes32","name":"","type":"bytes32"}],"name":"currentlyVerified","outputs":[{"internalType":"bool","name":"","type":"bool"}],"stateMutability":"view","type":"function"},{"inputs":[{"internalType":"bytes32","name":"","type":"bytes32"},{"internalType":"bytes32","name":"","type":"bytes32"}],"name":"disputeIndex","outputs":[{"internalType":"uint256","name":"","type":"uint256"}],"stateMutability":"view","type":"function"},{"inputs":[{"internalType":"bytes32","name":"recordIdHash","type":"bytes32"},{"internalType":"bytes32","name":"recordHash","type":"bytes32"},{"internalType":"uint8","name":"severity","type":"uint8"},{"internalType":"uint8","name":"culpability","type":"uint8"},{"internalType":"string","name":"notes","type":"string"}],"name":"disputeRecord","outputs":[],"stateMutability":"nonpayable","type":"function"},{"inputs":[{"internalType":"bytes32","name":"","type":"bytes32"},{"internalType":"uint256","name":"","type":"uint256"}],"name":"disputes","outputs":[{"internalType":"bytes32","name":"disputerIdHash","type":"bytes32"},{"internalType":"bytes32","name":"recordIdHash","type":"bytes32"},{"internalType":"enum HealthRecordCore.DisputeSeverity","name":"severity","type":"uint8"},{"internalType":"enum HealthRecordCore.DisputeCulpability","name":"culpability","type":"uint8"},{"internalType":"string","name":"notes","type":"string"},{"internalType":"uint256","name":"createdAt","type":"uint256"},{"internalType":"bool","name":"isActive","type":"bool"}],"stateMutability":"view","type":"function"},{"inputs":[{"internalType":"bytes32","name":"","type":"bytes32"},{"internalType":"uint256","name":"","type":"uint256"}],"name":"disputesByUser","outputs":[{"internalType":"bytes32","name":"","type":"bytes32"}],"stateMutability":"view","type":"function"},{"inputs":[{"internalType":"bytes32","name":"recordHash","type":"bytes32"}],"name":"doesHashExist","outputs":[{"internalType":"bool","name":"","type":"bool"}],"stateMutability":"view","type":"function"},{"inputs":[{"internalType":"bytes32","name":"subjectIdHash","type":"bytes32"},{"internalType":"bytes32","name":"recordIdHash","type":"bytes32"},{"internalType":"bytes32","name":"reporterIdHash","type":"bytes32"},{"internalType":"bytes32","name":"recordHash","type":"bytes32"}],"name":"flagUnacceptedUpdate","outputs":[],"stateMutability":"nonpayable","type":"function"},{"inputs":[{"internalType":"bytes32","name":"recordIdHash","type":"bytes32"}],"name":"getActiveRecordSubjects","outputs":[{"internalType":"bytes32[]","name":"","type":"bytes32[]"}],"stateMutability":"view","type":"function"},{"inputs":[{"internalType":"bytes32","name":"subjectIdHash","type":"bytes32"}],"name":"getActiveUnacceptedFlagCount","outputs":[{"internalType":"uint256","name":"","type":"uint256"}],"stateMutability":"view","type":"function"},{"inputs":[{"internalType":"bytes32","name":"recordHash","type":"bytes32"}],"name":"getDisputeStats","outputs":[{"internalType":"uint256","name":"total","type":"uint256"},{"internalType":"uint256","name":"active","type":"uint256"}],"stateMutability":"view","type":"function"},{"inputs":[{"internalType":"bytes32","name":"recordHash","type":"bytes32"}],"name":"getDisputes","outputs":[{"components":[{"internalType":"bytes32","name":"disputerIdHash","type":"bytes32"},{"internalType":"bytes32","name":"recordIdHash","type":"bytes32"},{"internalType":"enum HealthRecordCore.DisputeSeverity","name":"severity","type":"uint8"},{"internalType":"enum HealthRecordCore.DisputeCulpability","name":"culpability","type":"uint8"},{"internalType":"string","name":"notes","type":"string"},{"internalType":"uint256","name":"createdAt","type":"uint256"},{"internalType":"bool","name":"isActive","type":"bool"}],"internalType":"struct HealthRecordCore.Dispute[]","name":"","type":"tuple[]"}],"stateMutability":"view","type":"function"},{"inputs":[{"internalType":"bytes32","name":"userIdHash","type":"bytes32"}],"name":"getDisputesAgainstUser","outputs":[{"components":[{"internalType":"bytes32","name":"recordHash","type":"bytes32"},{"internalType":"bytes32","name":"disputerIdHash","type":"bytes32"},{"internalType":"enum HealthRecordCore.DisputeSeverity","name":"severity","type":"uint8"},{"internalType":"enum HealthRecordCore.DisputeCulpability","name":"culpability","type":"uint8"},{"internalType":"string","name":"notes","type":"string"},{"internalType":"uint256","name":"createdAt","type":"uint256"}],"internalType":"struct HealthRecordCore.DisputeAgainstUser[]","name":"","type":"tuple[]"}],"stateMutability":"view","type":"function"},{"inputs":[{"internalType":"bytes32","name":"recordHash","type":"bytes32"}],"name":"getRecordIdForHash","outputs":[{"internalType":"bytes32","name":"","type":"bytes32"}],"stateMutability":"view","type":"function"},{"inputs":[{"internalType":"bytes32","name":"recordIdHash","type":"bytes32"}],"name":"getRecordSubjects","outputs":[{"internalType":"bytes32[]","name":"","type":"bytes32[]"}],"stateMutability":"view","type":"function"},{"inputs":[{"internalType":"bytes32","name":"recordIdHash","type":"bytes32"}],"name":"getRecordVersionHistory","outputs":[{"internalType":"bytes32[]","name":"","type":"bytes32[]"}],"stateMutability":"view","type":"function"},{"inputs":[{"internalType":"bytes32","name":"userIdHash","type":"bytes32"}],"name":"getSubjectMedicalHistory","outputs":[{"internalType":"bytes32[]","name":"","type":"bytes32[]"}],"stateMutability":"view","type":"function"},{"inputs":[{"internalType":"bytes32","name":"recordIdHash","type":"bytes32"}],"name":"getSubjectStats","outputs":[{"internalType":"uint256","name":"total","type":"uint256"},{"internalType":"uint256","name":"active","type":"uint256"}],"stateMutability":"view","type":"function"},{"inputs":[],"name":"getTotalAnchoredRecords","outputs":[{"internalType":"uint256","name":"","type":"uint256"}],"stateMutability":"view","type":"function"},{"inputs":[{"internalType":"bytes32","name":"subjectIdHash","type":"bytes32"},{"internalType":"bytes32","name":"recordIdHash","type":"bytes32"}],"name":"getUnacceptedFlag","outputs":[{"internalType":"bool","name":"exists","type":"bool"},{"internalType":"bool","name":"isActive","type":"bool"},{"internalType":"bytes32","name":"reporterIdHash","type":"bytes32"},{"internalType":"bytes32","name":"recordHash","type":"bytes32"},{"internalType":"uint256","name":"createdAt","type":"uint256"}],"stateMutability":"view","type":"function"},{"inputs":[{"internalType":"bytes32","name":"subjectIdHash","type":"bytes32"}],"name":"getUnacceptedFlags","outputs":[{"components":[{"internalType":"bytes32","name":"recordIdHash","type":"bytes32"},{"internalType":"bytes32","name":"reporterIdHash","type":"bytes32"},{"internalType":"bytes32","name":"recordHash","type":"bytes32"},{"internalType":"uint256","name":"createdAt","type":"uint256"},{"internalType":"bool","name":"isActive","type":"bool"}],"internalType":"struct HealthRecordCore.UnacceptedFlag[]","name":"","type":"tuple[]"}],"stateMutability":"view","type":"function"},{"inputs":[{"internalType":"bytes32","name":"recordHash","type":"bytes32"},{"internalType":"bytes32","name":"userIdHash","type":"bytes32"}],"name":"getUserDispute","outputs":[{"internalType":"bool","name":"exists","type":"bool"},{"internalType":"bytes32","name":"recordIdHash","type":"bytes32"},{"internalType":"enum HealthRecordCore.DisputeSeverity","name":"severity","type":"uint8"},{"internalType":"enum HealthRecordCore.DisputeCulpability","name":"culpability","type":"uint8"},{"internalType":"string","name":"notes","type":"string"},{"internalType":"uint256","name":"createdAt","type":"uint256"},{"internalType":"bool","name":"isActive","type":"bool"}],"stateMutability":"view","type":"function"},{"inputs":[{"internalType":"bytes32","name":"userIdHash","type":"bytes32"}],"name":"getUserDisputes","outputs":[{"internalType":"bytes32[]","name":"","type":"bytes32[]"}],"stateMutability":"view","type":"function"},{"inputs":[{"internalType":"bytes32","name":"recordHash","type":"bytes32"},{"internalType":"bytes32","name":"userIdHash","type":"bytes32"}],"name":"getUserVerification","outputs":[{"internalType":"bool","name":"exists","type":"bool"},{"internalType":"bytes32","name":"recordIdHash","type":"bytes32"},{"internalType":"enum HealthRecordCore.VerificationLevel","name":"level","type":"uint8"},{"internalType":"uint256","name":"createdAt","type":"uint256"},{"internalType":"bool","name":"isActive","type":"bool"}],"stateMutability":"view","type":"function"},{"inputs":[{"internalType":"bytes32","name":"userIdHash","type":"bytes32"}],"name":"getUserVerifications","outputs":[{"internalType":"bytes32[]","name":"","type":"bytes32[]"}],"stateMutability":"view","type":"function"},{"inputs":[{"internalType":"bytes32","name":"recordHash","type":"bytes32"}],"name":"getVerificationStats","outputs":[{"internalType":"uint256","name":"total","type":"uint256"},{"internalType":"uint256","name":"active","type":"uint256"}],"stateMutability":"view","type":"function"},{"inputs":[{"internalType":"bytes32","name":"recordHash","type":"bytes32"}],"name":"getVerifications","outputs":[{"components":[{"internalType":"bytes32","name":"verifierIdHash","type":"bytes32"},{"internalType":"bytes32","name":"recordIdHash","type":"bytes32"},{"internalType":"enum HealthRecordCore.VerificationLevel","name":"level","type":"uint8"},{"internalType":"uint256","name":"createdAt","type":"uint256"},{"internalType":"bool","name":"isActive","type":"bool"}],"internalType":"struct HealthRecordCore.Verification[]","name":"","type":"tuple[]"}],"stateMutability":"view","type":"function"},{"inputs":[{"internalType":"bytes32","name":"recordIdHash","type":"bytes32"}],"name":"getVersionCount","outputs":[{"internalType":"uint256","name":"","type":"uint256"}],"stateMutability":"view","type":"function"},{"inputs":[{"internalType":"bytes32","name":"subjectIdHash","type":"bytes32"}],"name":"hasActiveUnacceptedFlags","outputs":[{"internalType":"bool","name":"","type":"bool"}],"stateMutability":"view","type":"function"},{"inputs":[{"internalType":"bytes32","name":"recordHash","type":"bytes32"},{"internalType":"bytes32","name":"userIdHash","type":"bytes32"}],"name":"hasUserDisputed","outputs":[{"internalType":"bool","name":"","type":"bool"}],"stateMutability":"view","type":"function"},{"inputs":[{"internalType":"bytes32","name":"recordHash","type":"bytes32"},{"internalType":"bytes32","name":"userIdHash","type":"bytes32"}],"name":"hasUserVerified","outputs":[{"internalType":"bool","name":"","type":"bool"}],"stateMutability":"view","type":"function"},{"inputs":[{"internalType":"address","name":"_memberRoleManager","type":"address"}],"name":"initialize","outputs":[],"stateMutability":"nonpayable","type":"function"},{"inputs":[{"internalType":"bytes32","name":"recordIdHash","type":"bytes32"},{"internalType":"bytes32","name":"userIdHash","type":"bytes32"}],"name":"isActiveSubject","outputs":[{"internalType":"bool","name":"","type":"bool"}],"stateMutability":"view","type":"function"},{"inputs":[{"internalType":"bytes32","name":"","type":"bytes32"}],"name":"isHashActive","outputs":[{"internalType":"bool","name":"","type":"bool"}],"stateMutability":"view","type":"function"},{"inputs":[{"internalType":"bytes32","name":"recordIdHash","type":"bytes32"},{"internalType":"bytes32","name":"userIdHash","type":"bytes32"}],"name":"isSubject","outputs":[{"internalType":"bool","name":"","type":"bool"}],"stateMutability":"view","type":"function"},{"inputs":[{"internalType":"bytes32","name":"","type":"bytes32"},{"internalType":"bytes32","name":"","type":"bytes32"}],"name":"isSubjectActive","outputs":[{"internalType":"bool","name":"","type":"bool"}],"stateMutability":"view","type":"function"},{"inputs":[{"internalType":"bytes32","name":"","type":"bytes32"},{"internalType":"bytes32","name":"","type":"bytes32"}],"name":"isSubjectOfRecord","outputs":[{"internalType":"bool","name":"","type":"bool"}],"stateMutability":"view","type":"function"},{"inputs":[],"name":"memberRoleManager","outputs":[{"internalType":"contract MemberRoleManagerInterface","name":"","type":"address"}],"stateMutability":"view","type":"function"},{"inputs":[{"internalType":"bytes32","name":"recordHash","type":"bytes32"},{"internalType":"uint8","name":"newSeverity","type":"uint8"},{"internalType":"uint8","name":"newCulpability","type":"uint8"}],"name":"modifyDispute","outputs":[],"stateMutability":"nonpayable","type":"function"},{"inputs":[{"internalType":"bytes32","name":"recordHash","type":"bytes32"},{"internalType":"uint8","name":"newLevel","type":"uint8"}],"name":"modifyVerificationLevel","outputs":[],"stateMutability":"nonpayable","type":"function"},{"inputs":[],"name":"proxiableUUID","outputs":[{"internalType":"bytes32","name":"","type":"bytes32"}],"stateMutability":"view","type":"function"},{"inputs":[{"internalType":"bytes32","name":"recordIdHash","type":"bytes32"},{"internalType":"bytes32","name":"subjectIdHash","type":"bytes32"}],"name":"reanchorRecord","outputs":[],"stateMutability":"nonpayable","type":"function"},{"inputs":[{"internalType":"bytes32","name":"","type":"bytes32"}],"name":"recordIdForHash","outputs":[{"internalType":"bytes32","name":"","type":"bytes32"}],"stateMutability":"view","type":"function"},{"inputs":[{"internalType":"bytes32","name":"","type":"bytes32"},{"internalType":"uint256","name":"","type":"uint256"}],"name":"recordSubjects","outputs":[{"internalType":"bytes32","name":"","type":"bytes32"}],"stateMutability":"view","type":"function"},{"inputs":[{"internalType":"bytes32","name":"","type":"bytes32"},{"internalType":"uint256","name":"","type":"uint256"}],"name":"recordVersionHistory","outputs":[{"internalType":"bytes32","name":"","type":"bytes32"}],"stateMutability":"view","type":"function"},{"inputs":[{"internalType":"bytes32","name":"recordHash","type":"bytes32"}],"name":"retractDispute","outputs":[],"stateMutability":"nonpayable","type":"function"},{"inputs":[{"internalType":"bytes32","name":"recordIdHash","type":"bytes32"},{"internalType":"bytes32","name":"recordHash","type":"bytes32"}],"name":"retractRecordHash","outputs":[],"stateMutability":"nonpayable","type":"function"},{"inputs":[{"internalType":"bytes32","name":"recordHash","type":"bytes32"}],"name":"retractVerification","outputs":[],"stateMutability":"nonpayable","type":"function"},{"inputs":[{"internalType":"bytes32","name":"subjectIdHash","type":"bytes32"},{"internalType":"bytes32","name":"recordIdHash","type":"bytes32"}],"name":"revokeUnacceptedFlag","outputs":[],"stateMutability":"nonpayable","type":"function"},{"inputs":[{"internalType":"address","name":"_memberRoleManager","type":"address"}],"name":"setMemberRoleManager","outputs":[],"stateMutability":"nonpayable","type":"function"},{"inputs":[{"internalType":"bytes32","name":"","type":"bytes32"},{"internalType":"uint256","name":"","type":"uint256"}],"name":"subjectMedicalHistory","outputs":[{"internalType":"bytes32","name":"","type":"bytes32"}],"stateMutability":"view","type":"function"},{"inputs":[],"name":"totalAnchoredRecords","outputs":[{"internalType":"uint256","name":"","type":"uint256"}],"stateMutability":"view","type":"function"},{"inputs":[],"name":"totalDisputes","outputs":[{"internalType":"uint256","name":"","type":"uint256"}],"stateMutability":"view","type":"function"},{"inputs":[],"name":"totalUnacceptedFlags","outputs":[{"internalType":"uint256","name":"","type":"uint256"}],"stateMutability":"view","type":"function"},{"inputs":[],"name":"totalVerifications","outputs":[{"internalType":"uint256","name":"","type":"uint256"}],"stateMutability":"view","type":"function"},{"inputs":[{"internalType":"address","name":"newAdmin","type":"address"}],"name":"transferAdmin","outputs":[],"stateMutability":"nonpayable","type":"function"},{"inputs":[{"internalType":"bytes32","name":"","type":"bytes32"},{"internalType":"bytes32","name":"","type":"bytes32"}],"name":"unacceptedFlagIndex","outputs":[{"internalType":"uint256","name":"","type":"uint256"}],"stateMutability":"view","type":"function"},{"inputs":[{"internalType":"bytes32","name":"","type":"bytes32"},{"internalType":"uint256","name":"","type":"uint256"}],"name":"unacceptedFlagsBySubject","outputs":[{"internalType":"bytes32","name":"recordIdHash","type":"bytes32"},{"internalType":"bytes32","name":"reporterIdHash","type":"bytes32"},{"internalType":"bytes32","name":"recordHash","type":"bytes32"},{"internalType":"uint256","name":"createdAt","type":"uint256"},{"internalType":"bool","name":"isActive","type":"bool"}],"stateMutability":"view","type":"function"},{"inputs":[{"internalType":"bytes32","name":"recordIdHash","type":"bytes32"},{"internalType":"bytes32","name":"subjectIdHash","type":"bytes32"}],"name":"unanchorRecord","outputs":[],"stateMutability":"nonpayable","type":"function"},{"inputs":[{"internalType":"address","name":"newImplementation","type":"address"},{"internalType":"bytes","name":"data","type":"bytes"}],"name":"upgradeToAndCall","outputs":[],"stateMutability":"payable","type":"function"},{"inputs":[{"internalType":"bytes32","name":"","type":"bytes32"},{"internalType":"bytes32","name":"","type":"bytes32"}],"name":"verificationIndex","outputs":[{"internalType":"uint256","name":"","type":"uint256"}],"stateMutability":"view","type":"function"},{"inputs":[{"internalType":"bytes32","name":"","type":"bytes32"},{"internalType":"uint256","name":"","type":"uint256"}],"name":"verifications","outputs":[{"internalType":"bytes32","name":"verifierIdHash","type":"bytes32"},{"internalType":"bytes32","name":"recordIdHash","type":"bytes32"},{"internalType":"enum HealthRecordCore.VerificationLevel","name":"level","type":"uint8"},{"internalType":"uint256","name":"createdAt","type":"uint256"},{"internalType":"bool","name":"isActive","type":"bool"}],"stateMutability":"view","type":"function"},{"inputs":[{"internalType":"bytes32","name":"","type":"bytes32"},{"internalType":"uint256","name":"","type":"uint256"}],"name":"verificationsByUser","outputs":[{"internalType":"bytes32","name":"","type":"bytes32"}],"stateMutability":"view","type":"function"},{"inputs":[{"internalType":"bytes32","name":"recordIdHash","type":"bytes32"},{"internalType":"bytes32","name":"recordHash","type":"bytes32"},{"internalType":"uint8","name":"level","type":"uint8"}],"name":"verifyRecord","outputs":[],"stateMutability":"nonpayable","type":"function"}],"evm":{"bytecode":{"linkReferences":{},"object":"60a08060405234620000d157306080527ff0c57e16840df040f15088dc2f81fe391c3923bec73e23a9662efc9c229c6a009081549060ff8260401c16620000c257506001600160401b036002600160401b0319828216016200007c575b604051614bda9081620000d682396080518181816125b301526126920152f35b6001600160401b031990911681179091556040519081527fc7f505b2f371ae2175ee4913f4499e1f2633a7b5936321eed1cdaeb6115181d290602090a15f80806200005c565b63f92ee8a960e01b8152600490fd5b5f80fdfe604060808152600480361015610013575f80fd5b5f9060e05f35811c90816301f6993514613b8c578163045524a214613b58578163056c925f1461386e57816308d865171461383d57816310466a671461380c5781631166c3891461375b57816315370703146137345781631cf8cbe8146137165781631ee6677014612c37578163249dda2e146136ee578163288374501461362a5781633533d58c146130555781633ce78b0514612ca05781633fa8ea8114612c6457816340ec2e9a14612c375781634244222614612bea57816342deec25146129bf578163438b17cf146128495781634f1ef286146126405781635211e3b61461261757816352d1902d1461259d5781635a3ba1fa146122da5781635d28a342146122af57816364f639d4146122515781636e95a051146120fd578163741bfc1d146120d157816375829def1461204f5781637628262e1461201e5781637b470f6a14611da457816384debbf114611d2c5781638651933514611be157816386fe96e1146119865781638a7f882c1461195a5781638fc751ee1461192e5781639afd307c146118fb5781639e3432c1146116ed578163a208f96c146116bc578163ac90c1401461169d578163ac9243361461167e578163aca5964f1461164b578163ad3cb1cc146115e0578163adcee102146115ad578163aeb2a19f14611501578163b27bb4d5146114cf578163b5e6b7a21461148e578163be4f9077146113b4578163bf5204651461134b578163c0d1606e14610f67578163c4d66de814610dc8578163c5e4ccc414610da9578163c7567dfa14610b57578163c7695bab14610aef578163d08c800d14610a86578163d19d36611461095c57508063d1e94e57146108e7578063d46e082f146108c8578063d6989f0914610897578063d9e551fc14610710578063dbc7b842146106e7578063dd0bc08214610695578063de4920f41461066c578063def0dec814610514578063dfe36843146105ad578063e08f1ac314610545578063e1628f0b14610514578063e76ba1931461049a578063f536eb2b1461042d578063f851a440146104045763fcdd526114610317575f80fd5b3461040057602090816003193601126103fc57919091358152600a82528281209081546103438161434e565b9061035086519283613ed8565b8082528482018094845285842084915b8383106103d75750505050845193808501918186525180925285850193925b82811061038c5785850386f35b909192938260a060019287518051825283810151848301528a8101516103b181613e0e565b828c0152606081810151908301526080908101511515908201520195019392910161037f565b6005886001926103ea859b98999b61416c565b81520192019201919096949396610360565b8280fd5b5080fd5b82843461040057816003193601126104005760015490516001600160a01b039091168152602090f35b5082346103fc5761043d36613df8565b939081526010602052818120908154851015610497575060a093610460916140f8565b5080549260018201549260ff6002840154926003850154940154169381519586526020860152840152606083015215156080820152f35b80fd5b5082346103fc57602091602060031936011261051057358352600760205280832092815180936020865492838152019583526020832092905b8282106104f9576104f586866104eb828b0383613ed8565b5191829182613fa1565b0390f35b8354875295860195600193840193909101906104d3565b8380fd5b8284346104005760ff8160209361052a36613df8565b908252600b8652828220908252855220541690519015158152f35b5082346103fc57602091602060031936011261051057358352601360205280832092815180936020865492838152019583526020832092905b828210610596576104f586866104eb828b0383613ed8565b83548752958601956001938401939091019061057e565b508290346103fc5760209182600319360112610510578391358452600d83528084209384546105db8161434e565b956105e884519788613ed8565b81875282528482208290868089015b84841061064d5750505050508451905b85518110156106405760c061061c8288614366565b51015161062c575b600101610607565b9261063860019161414a565b939050610624565b5082848351928352820152f35b60019160069161065c85614551565b81520192019201919087906105f7565b508290346103fc5760203660031901126103fc5760209282913581526007845220549051908152f35b8234610497576020366003190112610497576106af613f8b565b6001546001600160a01b0391906106c99083163314614111565b166106d5811515614778565b81546001600160a01b03191617815580f35b508290346103fc5760203660031901126103fc5760209282913581526012845220549051908152f35b508290346103fc57602080600319360112610510578354835162b0c80960e01b815233818501529383359390918390869060249082906001600160a01b03165afa94851561088d57869561085a575b5061076b8515156142d3565b838652600e8352818620858752835260ff8287205416156108215750907f6ce2cfa8c67a8eeddab297878ec995418cc57aa7857d4fe81c4f22c06842af0d91838652600f8252808620858752825260056107f5826107e660ff846107dd8c8581205495818d889352600d8c5220614005565b50015416614738565b868952600d8552838920614005565b500160ff1990818154169055848752600e8352818720868852835281872090815416905551428152a380f35b82606492519162461bcd60e51b83528201526015602482015274139bc8191a5cdc1d5d19481d1bc81c995d1c9858dd605a1b6044820152fd5b9094508281813d8311610886575b6108728183613ed8565b810103126108825751938661075f565b5f80fd5b503d610868565b82513d88823e3d90fd5b8284346104005760ff816020936108ad36613df8565b90825260038652828220908252855220541690519015158152f35b8284346104005781600319360112610400576020906009549051908152f35b5082346103fc576108f736613df8565b93908152600a602052818120908154851015610497575060a09361091a916140f8565b5080549260018201549260ff8060028501541692600385015494015416938151958652602086015261094b82613e0e565b840152606083015215156080820152f35b84838534610497576020918260031936011261040057358152600d8252828120918254906109898261434e565b9161099686519384613ed8565b8083528183018095855282852085915b838310610a615750505050845194818601928287525180935280860190808460051b8801019594975b8489106109dc5787870388f35b9091929394958480600192603f198b820301875289519081518152828201518382015286820151610a0c81613e0e565b87820152610a2260608084015190830190613f40565b610a39608087818501519184015287830190613f4d565b9160a0808201519083015260c0809101511515910152980194019801979190949392946109cf565b600685600192610a74859a98999a614551565b815201920192019190959493956109a6565b505082346103fc57602091602060031936011261051057358352601460205280832092815180936020865492838152019583526020832092905b828210610ad8576104f586866104eb828b0383613ed8565b835487529586019560019384019390910190610ac0565b505082346103fc576020916020600319360112610510578035845260205280832092815180936020865492838152019583526020832092905b828210610b40576104f586866104eb828b0383613ed8565b835487529586019560019384019390910190610b28565b505082346103fc57610b6836613df8565b92909160018060a01b03855416918151906345ecd02f60e01b825233818301526020918281602481885afa908115610d825790610bac918991610d8c575b50614392565b82516364461aff60e11b81528181018681523360208201528390829081906040010381885afa908115610d825790610beb918991610d55575b506143d5565b8587526006825282872054610d14578515610cdc578190602484518096819362b0c80960e01b835233908301525afa90811561088d578691610c8d575b7fa2dc124b7dcc6ee378406493edc477d456cb2e3946e74b015c868704e9f16280935085875260068152848388205584875260078152610c6a8684892061451d565b85875260088152828720805460ff1916600117905582519182524290820152a380f35b80915083813d8311610cd5575b610ca48183613ed8565b81010312610882577fa2dc124b7dcc6ee378406493edc477d456cb2e3946e74b015c868704e9f16280925190610c28565b503d610c9a565b915162461bcd60e51b8152918201526014602482015273486173682063616e6e6f7420626520656d70747960601b6044820152606490fd5b915162461bcd60e51b815291820152601e60248201527f4861736820616c726561647920626f756e6420746f2061207265636f726400006044820152606490fd5b610d759150843d8611610d7b575b610d6d8183613ed8565b81019061437a565b89610be5565b503d610d63565b84513d8a823e3d90fd5b610da39150843d8611610d7b57610d6d8183613ed8565b89610ba6565b8385346104005781600319360112610400576020906016549051908152f35b838584346103fc5760203660031901126103fc57610de4613f8b565b7ff0c57e16840df040f15088dc2f81fe391c3923bec73e23a9662efc9c229c6a009182549160ff83861c16159267ffffffffffffffff811680159081610f5f575b6001149081610f55575b159081610f4c575b50610f3c5767ffffffffffffffff198116600117855583610f1d575b506001600160a01b0316908115610ed057506bffffffffffffffffffffffff60a01b908186541617855533906001541617600155610e8f578280f35b805468ff00000000000000001916905551600181527fc7f505b2f371ae2175ee4913f4499e1f2633a7b5936321eed1cdaeb6115181d290602090a181808280f35b608490602086519162461bcd60e51b8352820152602160248201527f496e76616c6964204d656d626572526f6c654d616e61676572206164647265736044820152607360f81b6064820152fd5b68ffffffffffffffffff19166801000000000000000117845586610e53565b855163f92ee8a960e01b81528390fd5b90501588610e37565b303b159150610e2f565b859150610e25565b505091346104005760803660031901126104005760249083358235610f8a613e4c565b855484516345ecd02f60e01b815233818a0152602098926001600160a01b03929091908316908a818a81855afa9081156113415790610fcf918b916113245750614392565b86516364461aff60e11b815284810187815233602082015290918b918391908290819060400103915afa90811561131a5790611011918a916112fd57506143d5565b61101c851515614421565b61102784151561446d565b6110326044356147f6565b9385895260038a52868920858a528a5260ff878a2054166112ab5785895260028a5286892054156111c4575b988899868a526002825261107486898c2061451d565b868a5260038252878a20868b528252878a2060ff1990600182825416179055878b5260058352888b20878c5283526001898c20918254161790558482526110bd87898c2061451d565b6110c860095461414a565b6009558581887faed20eb4df1031f98b6ee943999c834d0a9a777b4aae82671c972b33c8b93750858c51428152a48882858c54168a519283809262b0c80960e01b8252338b8301525afa9283156111ba578b93611184575b50509061112e929187614a95565b86541690813b156111805786604492819587519889968795630c35c99760e21b87528601528401525af190811561117757506111675750f35b61117090613ec4565b6104975780f35b513d84823e3d90fd5b8680fd5b80929b50819493503d83116111b3575b61119e8183613ed8565b81010312610882579051899861112e5f611120565b503d611194565b89513d8d823e3d90fd5b80895260068a52868920548690801561122857036111e8579888995b90995061105e565b6064848b8a818b519362461bcd60e51b85528401528201527f486173682062656c6f6e677320746f20646966666572656e74207265636f72646044820152fd5b505060088a5260ff878a205416611275579889899a8a526006825286888b2055868a526007825261125b81898c2061451d565b808a5260088252878a20805460ff191660011790556111e0565b865162461bcd60e51b81528085018b90526011818a01527012185cda08185b1c9958591e481d5cd959607a1b6044820152606490fd5b865162461bcd60e51b81528085018b90526027818a01527f5265636f726420616c726561647920616e63686f72656420746f2074686973206044820152661cdd589a9958dd60ca1b6064820152608490fd5b61131491508b3d8d11610d7b57610d6d8183613ed8565b5f610be5565b87513d8b823e3d90fd5b61133b91508c8d3d10610d7b57610d6d8183613ed8565b5f610ba6565b88513d8c823e3d90fd5b505082346103fc57602091602060031936011261051057358352600260205280832092815180936020865492838152019583526020832092905b82821061139d576104f586866104eb828b0383613ed8565b835487529586019560019384019390910190611385565b50503461040057602090816003193601126103fc57919091358152601082528281209081546113e28161434e565b906113ef86519283613ed8565b8082528482018094845285842084915b8383106114695750505050845193808501918186525180925285850193925b82811061142b5785850386f35b835180518652808301518684015287810151888701526060808201519087015260809081015115159086015260a0909401939281019260010161141e565b60058860019261147c859b98999b6145c0565b815201920192019190969493966113ff565b8385346104005761149e36613df8565b92908152601360205281812090815484101561049757506020926114c191613fdc565b91905490519160031b1c8152f35b82858534610497576114e036613df8565b9390825260205281812090815484101561049757506020926114c191613fdc565b828585346104975761151236613df8565b91908152600d60205282812090815483101561049757509061153391614005565b509061159c82549360018401549561158e600286015460ff811660ff600561155d60038b01614056565b968a0154990154169680519a8b9a8b5260208b015261157b82613e0e565b89015260ff606089019160081c16613f40565b806080870152850190613f4d565b9160a0840152151560c08301520390f35b838534610400576115bd36613df8565b92908152601460205281812090815484101561049757506020926114c191613fdc565b828585346104975780600319360112610497575080519080820182811067ffffffffffffffff821117611638576104f59350815260058252640352e302e360dc1b602083015251918291602083526020830190613f4d565b604184634e487b7160e01b5f525260245ffd5b8385346104005761165b36613df8565b92908152600260205281812090815484101561049757506020926114c191613fdc565b8385346104005781600319360112610400576020906017549051908152f35b8385346104005781600319360112610400576020906015549051908152f35b8385346104005760ff816020936116d236613df8565b90825260058652828220908252855220541690519015158152f35b505034610400576116fd36613df8565b835485516345ecd02f60e01b815233818601526020969394926001600160a01b03929091908316908881602481855afa9081156118f157906117459189916118da5750614392565b84516364461aff60e11b8152848101878152336020820152909189918391908290819060400103915afa9081156118d057611790929161178b9189916118b957506143d5565b6147f6565b9084865260038752838620828752875260ff8487205416156118805784865260058752838620828752875260ff848720541661184c5781857f34ca5296a801df9003d17df2e6ea45b29101067ae1a058cef45a9b8995d2cdfc8899828a5260058152878a20848b528152878a20600160ff198254161790558751428152a3855416803b156118485785928360449286519788958694630c35c99760e21b865285015260248401525af190811561117757506111675750f35b8580fd5b835162461bcd60e51b8152808401889052600e60248201526d416c72656164792061637469766560901b6044820152606490fd5b835162461bcd60e51b8152808401889052601360248201527215d85cc81b995d995c8818481cdd589a9958dd606a1b6044820152606490fd5b61131491508a3d8c11610d7b57610d6d8183613ed8565b85513d89823e3d90fd5b61133b91508a3d8c11610d7b57610d6d8183613ed8565b86513d8a823e3d90fd5b8385346104005761190b36613df8565b92908152600760205281812090815484101561049757506020926114c191613fdc565b838534610400578060209261194236613df8565b908252600f8552828220908252845220549051908152f35b838534610400578060209261196e36613df8565b90825260118552828220908252845220549051908152f35b838584346103fc57816003193601126103fc5780359060ff6119a6613e2c565b1692600184101580611bd6575b6119bc906147b6565b8454815162b0c80960e01b8152338482015294906020908190879060249082906001600160a01b03165afa958615611bcc578796611b9d575b50611a018615156142d3565b848752600b8152828720868852815260ff838820541615611b5b57848752600c81528287208688528152611a4183882054868952600a83528489206140f8565b5060ff858201541615611b185760020160ff81541694611a6084613e0e565b611a6984613e0e565b611a7286613e0e565b838614611ae057509160609391611ab4827f2ceaf6828ee12b3a0561fe551f858011031c9f47cf65d027f4462777e3c63a8d9795611aaf82613e0e565b614317565b611abd82613e0e565b825193611ac981613e0e565b8452611ad482613e0e565b8301524290820152a380f35b845162461bcd60e51b81529081018390526012602482015271105b1c9958591e481d1a1a5cc81b195d995b60721b6044820152606490fd5b835162461bcd60e51b8152808601839052601f60248201527f566572696669636174696f6e20686173206265656e20726574726163746564006044820152606490fd5b8360649184519162461bcd60e51b8352820152601960248201527f4e6f20766572696669636174696f6e20746f206d6f64696679000000000000006044820152fd5b9080965081813d8311611bc5575b611bb58183613ed8565b81010312610882575194876119f5565b503d611bab565b83513d89823e3d90fd5b5060038411156119b3565b50503461040057602090816003193601126103fc573591828152600282528381208451808285829454938481520190855285852092855b87828210611d1657505050611c2f92500382613ed8565b8192825b8251811015611c7d5785845260058252868420611c508285614366565b518552825260ff8785205416611c69575b600101611c33565b93611c7560019161414a565b949050611c61565b5091611c888461434e565b93611c9587519586613ed8565b808552611ca4601f199161434e565b0136848601378092815b8351811015611d095760019087845260058352888420611cce8287614366565b518552835260ff8985205416611ce5575b01611cae565b611cef8186614366565b51611d03611cfc8861414a565b9789614366565b52611cdf565b8751806104f58882613fa1565b8554845260019586019587955093019201611c18565b50503461040057602036600319011261040057803590818352600860205260ff848420541615611d6b5760208480858581526006845220549051908152f35b606490602085519162461bcd60e51b8352820152601360248201527212185cda08191bd95cc81b9bdd08195e1a5cdd606a1b6044820152fd5b82858534610497576060366003190112610497578235602435611dc5613e3c565b9160018060a01b038454169585516345ecd02f60e01b8152338282015260209081816024818c5afa908115611fce5790611e059188916120015750614392565b86516364461aff60e11b815282810184815233602082015282908290819060400103818c5afa908115611fce5798611e4a8392899a9b6024999a91611fe457506143d5565b611e55851515614421565b611e6086151561446d565b611e7960ff891660018110159081611fd8575b506147b6565b895162b0c80960e01b8152338582015296879182905afa948515611fce578795611f9f575b50611eaa8515156142d3565b83875260068152611ebf8389892054146144b9565b838752600b8152878720858852815260ff8888205416611f5d57838752600e8152878720858852815260ff8888205416611f03575050611f00949550614934565b80f35b875162461bcd60e51b815291820152602f60248201527f43616e6e6f74207665726966792061206861736820796f75206172652061637460448201526e6976656c7920646973707574696e6760881b606482015260849150fd5b875162461bcd60e51b815291820152601a60248201527f416c726561647920766572696669656420746869732068617368000000000000604482015260649150fd5b9080955081813d8311611fc7575b611fb78183613ed8565b8101031261088257519388611e9e565b503d611fad565b88513d89823e3d90fd5b6003915011158c611e73565b611ffb9150843d8611610d7b57610d6d8183613ed8565b8c610be5565b6120189150833d8511610d7b57610d6d8183613ed8565b8a610ba6565b8385346104005760ff8160209361203436613df8565b908252600e8652828220908252855220541690519015158152f35b8385346104005760203660031901126104005760209061206d613f8b565b60015491906001600160a01b03808416917f38df5fa0f7fef0d515ca1f5388cb5790ac5885d5fca8d05d9f943e563c33a4b391906120ac338514614111565b169485936120bb851515614778565b51428152a36001600160a01b0319161760015580f35b83853461040057806020926120e536613df8565b908252600c8552828220908252845220549051908152f35b505091346104005761210e36613df8565b9061212460018060a01b03600154163314614111565b80845260206011815283852083865281528385205493841561221d575f199480860190811161220a5761216090848852601084528288206140f8565b509487860180549660ff8816156121d057600101549660ff191690558387526012835281872090815480156121bd57019055514281527f147d74bfb2412c7ed232eabeb9f52ec3783a909e5c2a94b9da2af7f2bdb18ae69190a480f35b634e487b7160e01b895260118a52602489fd5b835162461bcd60e51b8152808b018690526014602482015273119b1859c8185b1c9958591e481c995d9bdad95960621b6044820152606490fd5b634e487b7160e01b875260118852602487fd5b5162461bcd60e51b815280870191909152600e60248201526d4e6f20666c61672065786973747360901b6044820152606490fd5b838534610400579060209161226536613df8565b91909283815260038552818120838252855260ff82822054169283612290575b858484519015158152f35b60ff935082948252600586528282209082528552205416818480612285565b838584346103fc5760203660031901126103fc57602092829135815260128452205415159051908152f35b50509034610497576122eb36613df8565b825485516345ecd02f60e01b815233868201529295919360209390916001600160a01b0316908481602481855afa908115612593579061233191849161257c5750614392565b82516228cf1560e51b8152868101888152336020820152909185918391908290819060400103915afa908115612572578291612555575b501561251c57838152600683528582822054036124e257838152600880845260ff9361239960ff8585205416614738565b829588845260078252848420988551808b85829d54938481520190885285882092885b878282106124c6575050506123d39250038b613ed8565b845b8a51811015612415576123e8818c614366565b518652848452878787205416612401575b6001016123d5565b9761240d60019161414a565b9890506123f9565b508492868a60018b111561246a5750907f6640c4cae266bfafee4b79ae3b57e1391d8cf826d2b9781aa698e99ca7157c7e918486526008825280862060ff198154169055600682525f8187205551428152a380f35b82608492519162461bcd60e51b8352820152603260248201527f43616e6e6f74207265747261637420746865206c617374206163746976652076604482015271195c9cda5bdb881bd98818481c9958dbdc9960721b6064820152fd5b6001929450829193865481520194019101918d929391936123bc565b815162461bcd60e51b81528086018490526014602482015273090c2e6d05aa4cac6dee4c840dad2e6dac2e8c6d60631b6044820152606490fd5b815162461bcd60e51b8152808601849052601360248201527227b7363c9037bbb732b91037b91030b236b4b760691b6044820152606490fd5b61256c9150843d8611610d7b57610d6d8183613ed8565b5f612368565b83513d84823e3d90fd5b61133b9150863d8811610d7b57610d6d8183613ed8565b84513d85823e3d90fd5b82858534610497578060031936011261049757507f00000000000000000000000000000000000000000000000000000000000000006001600160a01b0316300361260a57602090517f360894a13ba1a3210667c828492db98dca3e2076cc3735a920a3ca505d382bbc8152f35b5163703e46dd60e11b8152fd5b838584346103fc5760203660031901126103fc5760209282913581526006845220549051908152f35b5050908260031936011261049757612656613f8b565b9260243567ffffffffffffffff81116103fc57366023820112156103fc576126879036906024818701359101613efa565b916001600160a01b037f0000000000000000000000000000000000000000000000000000000000000000811630811490811561281b575b5061280b576126d281600154163314614111565b8516928251956352d1902d60e01b87526020878781885afa809784986127d7575b5061270f578351634c9c8ce360e01b8152808701869052602490fd5b92909391957f360894a13ba1a3210667c828492db98dca3e2076cc3735a920a3ca505d382bbc908181036127c15750833b156127aa5780546001600160a01b0319168317905551907fbc7cd75a20ee27fd9adebab32041f755214dbc6bffa90cc0225b39da2e5c2d3b8680a2825115612791575061278d9250614b13565b5080f35b9150503461279e57505080f35b63b398979f60e01b8152fd5b8151634c9c8ce360e01b8152808701849052602490fd5b86602491845191632a87526960e21b8352820152fd5b9097506020813d602011612803575b816127f360209383613ed8565b810103126108825751965f6126f3565b3d91506127e6565b825163703e46dd60e11b81528590fd5b9050817f360894a13ba1a3210667c828492db98dca3e2076cc3735a920a3ca505d382bbc541614155f6126be565b838584346103fc57602080600319360112610510578354835162b0c80960e01b815233818501529383359390918390869060249082906001600160a01b03165afa94851561088d578695612990575b506128a48515156142d3565b838652600b8352818620858752835260ff82872054161561294f57907f7ec0e3ca85e47c77a1ed99ff37570ab8878cb21ced66baead633becff47a8f0e9291848752600c835281872086885283526129238261291460ff846107dd8c8581205495818d889352600a8c52206140f8565b868952600a85528389206140f8565b500160ff1990818154169055848752600b8352818720868852835281872090815416905551428152a380f35b82606492519162461bcd60e51b8352820152601a60248201527f4e6f20766572696669636174696f6e20746f20726574726163740000000000006044820152fd5b9094508281813d83116129b8575b6129a88183613ed8565b8101031261088257519386612898565b503d61299e565b50508234610882576129d036613df8565b5f5483516345ecd02f60e01b815233818701529294926020926001600160a01b03929091908316908481602481855afa908115612be05790612a18915f91612bc95750614392565b85516364461aff60e11b8152858101888152336020820152909185918391908290819060400103915afa908115612bbf57612a5e929161178b915f91612ba257506143d5565b91855f5260038152845f20835f52815260ff855f20541615612b6057855f5260058152845f20835f52815260ff855f20541615612b2957857f8aefa795ccfdf03e334bd6a4fe20e8c4f5d5202e0320dc267fde988bd5f1674f8492825f5260058152875f20845f528152875f2060ff1981541690558751428152a35f5416803b15610882575f9283604492865197889586946337f7197d60e11b865285015260248401525af1908115612b205750612b14575080f35b612b1e9150613ec4565b005b513d5f823e3d90fd5b8360649186519162461bcd60e51b83528201526012602482015271105b1c9958591e481d5b985b98da1bdc995960721b6044820152fd5b8360649186519162461bcd60e51b8352820152601c60248201527f4e6f742061207375626a656374206f662074686973207265636f7264000000006044820152fd5b612bb99150863d8811610d7b57610d6d8183613ed8565b8a610be5565b86513d5f823e3d90fd5b6120189150863d8811610d7b57610d6d8183613ed8565b87513d5f823e3d90fd5b8490346108825761158e61159c612c09612c0336613df8565b90614677565b9695989390979291949980519a8b9a15158b5260208b0152612c2a82613e0e565b8901526060880190613f40565b82853461088257602036600319011261088257602091355f526008825260ff815f20541690519015158152f35b84346108825760a090612c7f612c7936613df8565b90614601565b93949092815195151586521515602086015284015260608301526080820152f35b8483346108825760203660031901126108825780355f526013602052815f209082519182602082549182815201915f5260205f20905f5b81811061303f5750505082612ced910383613ed8565b5f905f925b8051841015612dad57612d058482614366565b515f52600d602052845f20918254612d1c8161434e565b93612d2988519586613ed8565b81855260208501905f5260205f20905f905b838210612d8f57505050505f5b8351811015612d815760c0612d5d8286614366565b510151612d6d575b600101612d48565b93612d7960019161414a565b949050612d65565b506001909401939150612cf2565b60066020600192612d9f86614551565b815201930191019091612d3b565b9250612dd0612dbb8361434e565b92612dc886519485613ed8565b80845261434e565b601f19015f5b8181106130065750505f935f5b8451811015612f6157612df68186614366565b515f52600d602052815f20908154612e0d8161434e565b92612e1a85519485613ed8565b81845260208401905f5260205f205f915b838310612f4357505050505f5b8251811015612f385760c0612e4d8285614366565b51015115612f3057612e5f8288614366565b5197612e6b8285614366565b515185612e788487614366565b510151612e8481613e0e565b6060612e908588614366565b5101516006811015612f1d57612ea68588614366565b516080015191612eb68689614366565b5160a00151938951809e612ec982613ea8565b815260200152612ed881613e0e565b8c890152612ee99060608d01614511565b60808b015260a08a0152612efc8161414a565b98612f078289614366565b52612f129087614366565b506001905b01612e38565b602189634e487b7160e01b5f525260245ffd5b600190612f17565b506001915001612de3565b60066020600192612f5385614551565b815201920192019190612e2b565b50805160208082528451818301819052600581901b83018401918601905f8486015b828210612f905785850386f35b90919293602080600192603f19898203018552875190612fee60c08351835284840151858401528c840151612fc481613e0e565b8d840152612fda60608086015190850190613f40565b608090808286015192850152830190613f4d565b9160a080910151910152960192019201909291612f83565b602090865161301481613ea8565b5f81525f838201525f8882015260605f8183015260808201525f60a082015282828701015201612dd6565b8254845260209093019260019283019201612cd7565b8285346108825760a036600319011261088257813590602492833591613079613e3c565b91613082613e4c565b67ffffffffffffffff93906084358581116108825736602382011215610882576130b49036908a818701359101613efa565b9460018060a01b035f5416938551936345ecd02f60e01b8552338286015260209485818d818a5afa9081156135db57906130f4915f9161360d5750614392565b86516364461aff60e11b81528281018b815233602082015286908290819060400103818a5afa9081156135db579161313960ff928e979695945f916135f057506143d5565b6131448c1515614421565b61314f8b151561446d565b16978560ff600195868c1015806135e5575b61316a90614244565b169761317960058a1115614287565b895162b0c80960e01b815233858201529d8e9182905afa9b8c156135db575f9c6135ac575b506131aa8c15156142d3565b895f52600686526131bf8b895f2054146144b9565b895f52600e8652875f208c5f52865260ff885f20541661356a57895f52600b8652875f208c5f52865260ff885f20541661350f57895f52600d8652875f209283549561320a8b613e0e565b60068910156134fd57918c918e9594938b519661322688613e8c565b87528987019384528b870161323a8e613e0e565b8d81526060880161324b8d82614511565b6080890194855260a089019542875260c08a01988b8a52600160401b8d10156134eb578c61327d918d82018155614005565b9a909a6134da57518a55518a8a01556132a460028a01925161329e81613e0e565b83614317565b519060068210156134c857906132b99161432f565b6003870192519081519283116134b657506132d4835461401e565b601f8111613470575b508990601f83116001146133da579461335b9460609d9b98947f19c1298d442e6dcfc61025509382dd2c8a2d96c75e684d78c38c95624674c9a99f9d9a9794806133c79d9a956005975f926133cf575b50505f19600383901b1c191690891b1790555b519084015551151591019060ff801983541691151516179055565b895f52600e8352855f208c5f528352855f209060ff19825416179055885f52600f8252845f208b5f528252845f20556014815261339a88855f2061451d565b6133a560165461414a565b6016556133b185613e0e565b8351946133bd81613e0e565b8552840190613f40565b4290820152a4005b015190505f8061332d565b90601f19831691845f528b5f20925f5b81811061345b5750947f19c1298d442e6dcfc61025509382dd2c8a2d96c75e684d78c38c95624674c9a99f9d9a60609f9d9a96956133c79d9a95829a9561335b9a958360059a10613443575b505050811b019055613340565b01515f1960f88460031b161c191690555f8080613436565b828401518555938b0193928d01928d016133ea565b835f528a5f20601f840160051c8101918c85106134ac575b601f0160051c019089905b8281106134a15750506132dd565b5f8155018990613493565b9091508190613488565b634e487b7160e01b5f90815260418752fd5b82602188634e487b7160e01b5f52525ffd5b845f8a634e487b7160e01b8252525ffd5b8460418a634e487b7160e01b5f52525ffd5b634e487b7160e01b5f90815260218552fd5b875162461bcd60e51b81528083018790526030818701527f43616e6e6f7420646973707574652061206861736820796f752061726520616360448201526f746976656c7920766572696679696e6760801b6064820152608490fd5b875162461bcd60e51b8152808301879052601a818701527f416c7265616479206469737075746564207468697320686173680000000000006044820152606490fd5b909b508581813d83116135d4575b6135c48183613ed8565b8101031261088257519a8c61319e565b503d6135ba565b88513d5f823e3d90fd5b5060038c1115613161565b6136079150893d8b11610d7b57610d6d8183613ed8565b8f610be5565b6136249150873d8911610d7b57610d6d8183613ed8565b8d610ba6565b84833461088257602090816003193601126108825735905f90825f5260028152835f209084518083838295549384815201905f52835f20925f5b858282106136d85750505061367b92500383613ed8565b8151935f5b83518110156136ca57815f5260058352865f2061369d8286614366565b515f52835260ff875f2054166136b6575b600101613680565b936136c260019161414a565b9490506136ae565b505090508351928352820152f35b8554845260019586019588955093019201613664565b82853461088257602036600319011261088257602091355f5260128252805f20549051908152f35b8434610882575f366003190112610882576020906009549051908152f35b8434610882575f366003190112610882575f5490516001600160a01b039091168152602090f35b8483346108825760209081600319360112610882575f90355f52600a8252825f209283546137888161434e565b9461379583519687613ed8565b8186525f908152848120858088015b8484106137ed57505050505083515f5b85518110156106405760806137c98288614366565b5101516137d9575b6001016137b4565b926137e560019161414a565b9390506137d1565b6001916005916137fc8561416c565b81520192019201919086906137a4565b84346108825760209061381e36613df8565b905f52600e8352815f20905f52825260ff815f20541690519015158152f35b84346108825760209061384f36613df8565b905f5260038352815f20905f52825260ff815f20541690519015158152f35b8483346108825760603660031901126108825780359061388c613e2c565b92613895613e3c565b9360ff8080921695600187101580613b4d575b6138b190614244565b16946138c06005871115614287565b5f54835162b0c80960e01b8152338682015296602094916024919086908a90849082906001600160a01b03165afa988915613b43575f99613b14575b506139088915156142d3565b875f52600e8652825f20895f52865284835f20541615613adb57875f52600f8652825f20895f528652613947835f2054895f52600d8852845f20614005565b508560058201541615613a99576002019182549786808a169960081c169561396e81613e0e565b61397781613e0e565b6139808a613e0e565b808a14801590613a6b575b15613a37578061399d6139a392613e0e565b85614317565b6006831015613a26575050613a1d9360a09693836139e7613a0f947f0fe65316e02c3dce1bca5a3132e022178971267d711982849c99758da3cfc7ed9b999661432f565b5494848616908251986139f981613e0e565b8952613a0482613e0e565b880152860190613f40565b606084019160081c16613f40565b426080820152a3005b602190634e487b7160e01b5f52525ffd5b5060106064928987519362461bcd60e51b85528401528201526f15985b1d595cc81d5b98da185b99d95960821b6044820152fd5b506006841015613a87576006871015613a87578387141561398b565b50602190634e487b7160e01b5f52525ffd5b835162461bcd60e51b8152808901889052601a818501527f4469737075746520686173206265656e207265747261637465640000000000006044820152606490fd5b825162461bcd60e51b8152808801879052601481840152734e6f206469737075746520746f206d6f6469667960601b6044820152606490fd5b9098508581813d8311613b3c575b613b2c8183613ed8565b81010312610882575197896138fc565b503d613b22565b83513d5f823e3d90fd5b5060038711156138a8565b84346108825760a090613b73613b6d36613df8565b906141b8565b9394909281519515158652602086015261094b82613e0e565b8285346108825760803660031901126108825781356024918235926044359460643591613bc460018060a01b03600154163314614111565b8415613dc4578515613d91578615613d5c57845f5260209160118352845f20875f528352845f2054613d2a57855f5260108352845f205460018101809111613d1857865f5260118452855f20885f528452855f2055855f5260108352845f208551613c2e81613e5c565b8881528481018a8152878201908782526060830192428452608081019460018652805490600160401b821015613d065790613c6e916001820181556140f8565b979097613cf55750518655516001860155516002850155516003840155519101805460ff191691151560ff169190911790557fd975a013e674f51ff6b9d1144095cbe8d88c8a4ebac520ffdce1b92eee22e99b929190845f5260128152825f20613cd8815461414a565b9055613ce560175461414a565b60175582519182524290820152a4005b634e487b7160e01b5f908152808852fd5b88604189634e487b7160e01b5f52525ffd5b50601190634e487b7160e01b5f52525ffd5b600f6064928487519362461bcd60e51b85528401528201526e105b1c9958591e48199b1859d9d959608a1b6044820152fd5b906010606492602086519362461bcd60e51b85528401528201526f24b73b30b634b210383937bb34b232b960811b6044820152fd5b90600e606492602086519362461bcd60e51b85528401528201526d125b9d985b1a59081c9958dbdc9960921b6044820152fd5b90600f606492602086519362461bcd60e51b85528401528201526e125b9d985b1a59081cdd589a9958dd608a1b6044820152fd5b6040906003190112610882576004359060243590565b60041115613e1857565b634e487b7160e01b5f52602160045260245ffd5b6024359060ff8216820361088257565b6044359060ff8216820361088257565b6064359060ff8216820361088257565b60a0810190811067ffffffffffffffff821117613e7857604052565b634e487b7160e01b5f52604160045260245ffd5b60e0810190811067ffffffffffffffff821117613e7857604052565b60c0810190811067ffffffffffffffff821117613e7857604052565b67ffffffffffffffff8111613e7857604052565b90601f8019910116810190811067ffffffffffffffff821117613e7857604052565b92919267ffffffffffffffff8211613e785760405191613f24601f8201601f191660200184613ed8565b829481845281830111610882578281602093845f960137010152565b906006821015613e185752565b91908251928382525f5b848110613f77575050825f602080949584010152601f8019910116010190565b602081830181015184830182015201613f57565b600435906001600160a01b038216820361088257565b60209060206040818301928281528551809452019301915f5b828110613fc8575050505090565b835185529381019392810192600101613fba565b8054821015613ff1575f5260205f2001905f90565b634e487b7160e01b5f52603260045260245ffd5b8054821015613ff1575f52600660205f20910201905f90565b90600182811c9216801561404c575b602083101461403857565b634e487b7160e01b5f52602260045260245ffd5b91607f169161402d565b9060405191825f82546140688161401e565b908184526020946001916001811690815f146140d65750600114614098575b50505061409692500383613ed8565b565b5f90815285812095935091905b8183106140be57505061409693508201015f8080614087565b855488840185015294850194879450918301916140a5565b9250505061409694925060ff191682840152151560051b8201015f8080614087565b8054821015613ff1575f52600560205f20910201905f90565b1561411857565b60405162461bcd60e51b815260206004820152600a60248201526927b7363c9030b236b4b760b11b6044820152606490fd5b5f1981146141585760010190565b634e487b7160e01b5f52601160045260245ffd5b9060405161417981613e5c565b608060ff6004839580548552600181015460208601528260028201541661419f81613e0e565b6040860152600381015460608601520154161515910152565b919091805f52602090600b8252604093845f20815f52835260ff855f2054161561423457816142069161420c935f52600c8552865f20905f528452855f2054905f52600a8452855f206140f8565b5061416c565b90810151928101519161421e83613e0e565b6080606083015192015115159060019493929190565b505f935083928392508291508190565b1561424b57565b60405162461bcd60e51b81526020600482015260146024820152735365766572697479206d75737420626520312d3360601b6044820152606490fd5b1561428e57565b60405162461bcd60e51b815260206004820152601760248201527f43756c706162696c697479206d75737420626520302d350000000000000000006044820152606490fd5b156142da57565b60405162461bcd60e51b815260206004820152601560248201527415d85b1b195d081b9bdd081c9959da5cdd195c9959605a1b6044820152606490fd5b9061432181613e0e565b60ff80198354169116179055565b906006811015613e185761ff0082549160081b169061ff001916179055565b67ffffffffffffffff8111613e785760051b60200190565b8051821015613ff15760209160051b010190565b90816020910312610882575180151581036108825790565b1561439957565b60405162461bcd60e51b81526020600482015260146024820152732737ba1030b71030b1ba34bb329036b2b6b132b960611b6044820152606490fd5b156143dc57565b60405162461bcd60e51b815260206004820152601860248201527f4e6f2061636365737320746f2074686973207265636f726400000000000000006044820152606490fd5b1561442857565b60405162461bcd60e51b815260206004820152601960248201527f5265636f72642049442063616e6e6f7420626520656d707479000000000000006044820152606490fd5b1561447457565b60405162461bcd60e51b815260206004820152601b60248201527f5265636f726420686173682063616e6e6f7420626520656d70747900000000006044820152606490fd5b156144c057565b60405162461bcd60e51b815260206004820152602360248201527f4861736820646f6573206e6f742062656c6f6e6720746f2074686973207265636044820152621bdc9960ea1b6064820152608490fd5b6006821015613e185752565b8054600160401b811015613e785761453a91600182018155613fdc565b819291549060031b91821b915f19901b1916179055565b9060405161455e81613e8c565b60c060ff60058395805485526001810154602086015261459b83600283015481811661458981613e0e565b604089015260081c1660608701614511565b6145a760038201614056565b6080860152600481015460a08601520154161515910152565b906040516145cd81613e5c565b608060ff60048395805485526001810154602086015260028101546040860152600381015460608601520154161515910152565b90815f52601160205260405f20905f5260205260405f2054908115614669575f52601060205260405f205f1982019182116141585761464991614643916140f8565b506145c0565b608081015160208201516040830151606090930151600194921515939192565b50505f905f905f905f905f90565b919091805f52602090600e8252604093845f20815f52835260ff855f2054161561470a57816146c5916146cb935f52600f8552865f20905f528452855f2054905f52600d8452855f20614005565b50614551565b9081015192810151916146dd83613e0e565b6060820151916006831015613e185760808101519160c060a0830151920151151590600196959493929190565b50505f925f925f925f9280519182019082821067ffffffffffffffff831117613e7857525f8152905f905f90565b1561473f57565b60405162461bcd60e51b8152602060048201526011602482015270105b1c9958591e481c995d1c9858dd1959607a1b6044820152606490fd5b1561477f57565b60405162461bcd60e51b815260206004820152600f60248201526e496e76616c6964206164647265737360881b6044820152606490fd5b156147bd57565b60405162461bcd60e51b81526020600482015260116024820152704c6576656c206d75737420626520312d3360781b6044820152606490fd5b5f5460405162b0c80960e01b81523360048201526020916001600160a01b0316908281602481855afa9081156148ec575f91614907575b506148398115156142d3565b831580156148fe575b6148f757829060446040518094819363557ee54f60e01b835288600484015260248301525afa9081156148ec575f916148cf575b5015614880575090565b6084906040519062461bcd60e51b82526004820152602260248201527f4e6f74206120636f6e74726f6c6c657220666f722074686973206964656e7469604482015261747960f01b6064820152fd5b6148e69150823d8411610d7b57610d6d8183613ed8565b5f614876565b6040513d5f823e3d90fd5b9250505090565b50808414614842565b90508281813d831161492d575b61491e8183613ed8565b8101031261088257515f61482d565b503d614914565b9192815f52602090600a8252604090815f209260ff845492169161495783613e0e565b83519461496386613e5c565b888652828601908882528587019161497a86613e0e565b8583526060880191428352608089019060018252600160401b861015613e7857856149aa916001820181556140f8565b939093614a82576149f9614a15956004947f9f44978447988782ba02b3e977811604129dc2032d4cfc97aaadacb68bea9f359c518755516001870155516149f081613e0e565b60028601614317565b51600384015551151591019060ff801983541691151516179055565b855f52600b8252835f20885f528252835f20600160ff19825416179055855f52600c8252835f20885f528252835f205560138152614a5585845f2061451d565b614a6060155461414a565b601555614a6c82613e0e565b825191614a7881613e0e565b82524290820152a4565b634e487b7160e01b5f525f60045260245ffd5b92919060ff831660018110908115614b08575b50614b0257805f5260066020528360405f205403614b0257600b60205260405f20825f5260205260ff60405f205416614b0257805f52600e60205260405f20825f5260205260ff60405f205416614b025761409693614934565b50505050565b60039150115f614aa8565b905f8091602081519101845af48080614b91575b15614b475750506040513d81523d5f602083013e60203d82010160405290565b15614b6e57604051639996b31560e01b81526001600160a01b039091166004820152602490fd5b3d15614b7f576040513d5f823e3d90fd5b60405163d6bda27560e01b8152600490fd5b503d151580614b275750813b1515614b2756fea2646970667358221220525f8d474c729a037b199f9ab8593968fdeb37f67e736eeecd8b0e2e30b71ada64736f6c63430008180033","opcodes":"PUSH1 0xA0 DUP1 PUSH1 0x40 MSTORE CALLVALUE PUSH3 0xD1 JUMPI ADDRESS PUSH1 0x80 MSTORE PUSH32 0xF0C57E16840DF040F15088DC2F81FE391C3923BEC73E23A9662EFC9C229C6A00 SWAP1 DUP2 SLOAD SWAP1 PUSH1 0xFF DUP3 PUSH1 0x40 SHR AND PUSH3 0xC2 JUMPI POP PUSH1 0x1 PUSH1 0x1 PUSH1 0x40 SHL SUB PUSH1 0x2 PUSH1 0x1 PUSH1 0x40 SHL SUB NOT DUP3 DUP3 AND ADD PUSH3 0x7C JUMPI JUMPDEST PUSH1 0x40 MLOAD PUSH2 0x4BDA SWAP1 DUP2 PUSH3 0xD6 DUP3 CODECOPY PUSH1 0x80 MLOAD DUP2 DUP2 DUP2 PUSH2 0x25B3 ADD MSTORE PUSH2 0x2692 ADD MSTORE RETURN JUMPDEST PUSH1 0x1 PUSH1 0x1 PUSH1 0x40 SHL SUB NOT SWAP1 SWAP2 AND DUP2 OR SWAP1 SWAP2 SSTORE PUSH1 0x40 MLOAD SWAP1 DUP2 MSTORE PUSH32 0xC7F505B2F371AE2175EE4913F4499E1F2633A7B5936321EED1CDAEB6115181D2 SWAP1 PUSH1 0x20 SWAP1 LOG1 PUSH0 DUP1 DUP1 PUSH3 0x5C JUMP JUMPDEST PUSH4 0xF92EE8A9 PUSH1 0xE0 SHL DUP2 MSTORE PUSH1 0x4 SWAP1 REVERT JUMPDEST PUSH0 DUP1 REVERT INVALID PUSH1 0x40 PUSH1 0x80 DUP2 MSTORE PUSH1 0x4 DUP1 CALLDATASIZE LT ISZERO PUSH2 0x13 JUMPI PUSH0 DUP1 REVERT JUMPDEST PUSH0 SWAP1 PUSH1 0xE0 PUSH0 CALLDATALOAD DUP2 SHR SWAP1 DUP2 PUSH4 0x1F69935 EQ PUSH2 0x3B8C JUMPI DUP2 PUSH4 0x45524A2 EQ PUSH2 0x3B58 JUMPI DUP2 PUSH4 0x56C925F EQ PUSH2 0x386E JUMPI DUP2 PUSH4 0x8D86517 EQ PUSH2 0x383D JUMPI DUP2 PUSH4 0x10466A67 EQ PUSH2 0x380C JUMPI DUP2 PUSH4 0x1166C389 EQ PUSH2 0x375B JUMPI DUP2 PUSH4 0x15370703 EQ PUSH2 0x3734 JUMPI DUP2 PUSH4 0x1CF8CBE8 EQ PUSH2 0x3716 JUMPI DUP2 PUSH4 0x1EE66770 EQ PUSH2 0x2C37 JUMPI DUP2 PUSH4 0x249DDA2E EQ PUSH2 0x36EE JUMPI DUP2 PUSH4 0x28837450 EQ PUSH2 0x362A JUMPI DUP2 PUSH4 0x3533D58C EQ PUSH2 0x3055 JUMPI DUP2 PUSH4 0x3CE78B05 EQ PUSH2 0x2CA0 JUMPI DUP2 PUSH4 0x3FA8EA81 EQ PUSH2 0x2C64 JUMPI DUP2 PUSH4 0x40EC2E9A EQ PUSH2 0x2C37 JUMPI DUP2 PUSH4 0x42442226 EQ PUSH2 0x2BEA JUMPI DUP2 PUSH4 0x42DEEC25 EQ PUSH2 0x29BF JUMPI DUP2 PUSH4 0x438B17CF EQ PUSH2 0x2849 JUMPI DUP2 PUSH4 0x4F1EF286 EQ PUSH2 0x2640 JUMPI DUP2 PUSH4 0x5211E3B6 EQ PUSH2 0x2617 JUMPI DUP2 PUSH4 0x52D1902D EQ PUSH2 0x259D JUMPI DUP2 PUSH4 0x5A3BA1FA EQ PUSH2 0x22DA JUMPI DUP2 PUSH4 0x5D28A342 EQ PUSH2 0x22AF JUMPI DUP2 PUSH4 0x64F639D4 EQ PUSH2 0x2251 JUMPI DUP2 PUSH4 0x6E95A051 EQ PUSH2 0x20FD JUMPI DUP2 PUSH4 0x741BFC1D EQ PUSH2 0x20D1 JUMPI DUP2 PUSH4 0x75829DEF EQ PUSH2 0x204F JUMPI DUP2 PUSH4 0x7628262E EQ PUSH2 0x201E JUMPI DUP2 PUSH4 0x7B470F6A EQ PUSH2 0x1DA4 JUMPI DUP2 PUSH4 0x84DEBBF1 EQ PUSH2 0x1D2C JUMPI DUP2 PUSH4 0x86519335 EQ PUSH2 0x1BE1 JUMPI DUP2 PUSH4 0x86FE96E1 EQ PUSH2 0x1986 JUMPI DUP2 PUSH4 0x8A7F882C EQ PUSH2 0x195A JUMPI DUP2 PUSH4 0x8FC751EE EQ PUSH2 0x192E JUMPI DUP2 PUSH4 0x9AFD307C EQ PUSH2 0x18FB JUMPI DUP2 PUSH4 0x9E3432C1 EQ PUSH2 0x16ED JUMPI DUP2 PUSH4 0xA208F96C EQ PUSH2 0x16BC JUMPI DUP2 PUSH4 0xAC90C140 EQ PUSH2 0x169D JUMPI DUP2 PUSH4 0xAC924336 EQ PUSH2 0x167E JUMPI DUP2 PUSH4 0xACA5964F EQ PUSH2 0x164B JUMPI DUP2 PUSH4 0xAD3CB1CC EQ PUSH2 0x15E0 JUMPI DUP2 PUSH4 0xADCEE102 EQ PUSH2 0x15AD JUMPI DUP2 PUSH4 0xAEB2A19F EQ PUSH2 0x1501 JUMPI DUP2 PUSH4 0xB27BB4D5 EQ PUSH2 0x14CF JUMPI DUP2 PUSH4 0xB5E6B7A2 EQ PUSH2 0x148E JUMPI DUP2 PUSH4 0xBE4F9077 EQ PUSH2 0x13B4 JUMPI DUP2 PUSH4 0xBF520465 EQ PUSH2 0x134B JUMPI DUP2 PUSH4 0xC0D1606E EQ PUSH2 0xF67 JUMPI DUP2 PUSH4 0xC4D66DE8 EQ PUSH2 0xDC8 JUMPI DUP2 PUSH4 0xC5E4CCC4 EQ PUSH2 0xDA9 JUMPI DUP2 PUSH4 0xC7567DFA EQ PUSH2 0xB57 JUMPI DUP2 PUSH4 0xC7695BAB EQ PUSH2 0xAEF JUMPI DUP2 PUSH4 0xD08C800D EQ PUSH2 0xA86 JUMPI DUP2 PUSH4 0xD19D3661 EQ PUSH2 0x95C JUMPI POP DUP1 PUSH4 0xD1E94E57 EQ PUSH2 0x8E7 JUMPI DUP1 PUSH4 0xD46E082F EQ PUSH2 0x8C8 JUMPI DUP1 PUSH4 0xD6989F09 EQ PUSH2 0x897 JUMPI DUP1 PUSH4 0xD9E551FC EQ PUSH2 0x710 JUMPI DUP1 PUSH4 0xDBC7B842 EQ PUSH2 0x6E7 JUMPI DUP1 PUSH4 0xDD0BC082 EQ PUSH2 0x695 JUMPI DUP1 PUSH4 0xDE4920F4 EQ PUSH2 0x66C JUMPI DUP1 PUSH4 0xDEF0DEC8 EQ PUSH2 0x514 JUMPI DUP1 PUSH4 0xDFE36843 EQ PUSH2 0x5AD JUMPI DUP1 PUSH4 0xE08F1AC3 EQ PUSH2 0x545 JUMPI DUP1 PUSH4 0xE1628F0B EQ PUSH2 0x514 JUMPI DUP1 PUSH4 0xE76BA193 EQ PUSH2 0x49A JUMPI DUP1 PUSH4 0xF536EB2B EQ PUSH2 0x42D JUMPI DUP1 PUSH4 0xF851A440 EQ PUSH2 0x404 JUMPI PUSH4 0xFCDD5261 EQ PUSH2 0x317 JUMPI PUSH0 DUP1 REVERT JUMPDEST CALLVALUE PUSH2 0x400 JUMPI PUSH1 0x20 SWAP1 DUP2 PUSH1 0x3 NOT CALLDATASIZE ADD SLT PUSH2 0x3FC JUMPI SWAP2 SWAP1 SWAP2 CALLDATALOAD DUP2 MSTORE PUSH1 0xA DUP3 MSTORE DUP3 DUP2 KECCAK256 SWAP1 DUP2 SLOAD PUSH2 0x343 DUP2 PUSH2 0x434E JUMP JUMPDEST SWAP1 PUSH2 0x350 DUP7 MLOAD SWAP3 DUP4 PUSH2 0x3ED8 JUMP JUMPDEST DUP1 DUP3 MSTORE DUP5 DUP3 ADD DUP1 SWAP5 DUP5 MSTORE DUP6 DUP5 KECCAK256 DUP5 SWAP2 JUMPDEST DUP4 DUP4 LT PUSH2 0x3D7 JUMPI POP POP POP POP DUP5 MLOAD SWAP4 DUP1 DUP6 ADD SWAP2 DUP2 DUP7 MSTORE MLOAD DUP1 SWAP3 MSTORE DUP6 DUP6 ADD SWAP4 SWAP3 JUMPDEST DUP3 DUP2 LT PUSH2 0x38C JUMPI DUP6 DUP6 SUB DUP7 RETURN JUMPDEST SWAP1 SWAP2 SWAP3 SWAP4 DUP3 PUSH1 0xA0 PUSH1 0x1 SWAP3 DUP8 MLOAD DUP1 MLOAD DUP3 MSTORE DUP4 DUP2 ADD MLOAD DUP5 DUP4 ADD MSTORE DUP11 DUP2 ADD MLOAD PUSH2 0x3B1 DUP2 PUSH2 0x3E0E JUMP JUMPDEST DUP3 DUP13 ADD MSTORE PUSH1 0x60 DUP2 DUP2 ADD MLOAD SWAP1 DUP4 ADD MSTORE PUSH1 0x80 SWAP1 DUP2 ADD MLOAD ISZERO ISZERO SWAP1 DUP3 ADD MSTORE ADD SWAP6 ADD SWAP4 SWAP3 SWAP2 ADD PUSH2 0x37F JUMP JUMPDEST PUSH1 0x5 DUP9 PUSH1 0x1 SWAP3 PUSH2 0x3EA DUP6 SWAP12 SWAP9 SWAP10 SWAP12 PUSH2 0x416C JUMP JUMPDEST DUP2 MSTORE ADD SWAP3 ADD SWAP3 ADD SWAP2 SWAP1 SWAP7 SWAP5 SWAP4 SWAP7 PUSH2 0x360 JUMP JUMPDEST DUP3 DUP1 REVERT JUMPDEST POP DUP1 REVERT JUMPDEST DUP3 DUP5 CALLVALUE PUSH2 0x400 JUMPI DUP2 PUSH1 0x3 NOT CALLDATASIZE ADD SLT PUSH2 0x400 JUMPI PUSH1 0x1 SLOAD SWAP1 MLOAD PUSH1 0x1 PUSH1 0x1 PUSH1 0xA0 SHL SUB SWAP1 SWAP2 AND DUP2 MSTORE PUSH1 0x20 SWAP1 RETURN JUMPDEST POP DUP3 CALLVALUE PUSH2 0x3FC JUMPI PUSH2 0x43D CALLDATASIZE PUSH2 0x3DF8 JUMP JUMPDEST SWAP4 SWAP1 DUP2 MSTORE PUSH1 0x10 PUSH1 0x20 MSTORE DUP2 DUP2 KECCAK256 SWAP1 DUP2 SLOAD DUP6 LT ISZERO PUSH2 0x497 JUMPI POP PUSH1 0xA0 SWAP4 PUSH2 0x460 SWAP2 PUSH2 0x40F8 JUMP JUMPDEST POP DUP1 SLOAD SWAP3 PUSH1 0x1 DUP3 ADD SLOAD SWAP3 PUSH1 0xFF PUSH1 0x2 DUP5 ADD SLOAD SWAP3 PUSH1 0x3 DUP6 ADD SLOAD SWAP5 ADD SLOAD AND SWAP4 DUP2 MLOAD SWAP6 DUP7 MSTORE PUSH1 0x20 DUP7 ADD MSTORE DUP5 ADD MSTORE PUSH1 0x60 DUP4 ADD MSTORE ISZERO ISZERO PUSH1 0x80 DUP3 ADD MSTORE RETURN JUMPDEST DUP1 REVERT JUMPDEST POP DUP3 CALLVALUE PUSH2 0x3FC JUMPI PUSH1 0x20 SWAP2 PUSH1 0x20 PUSH1 0x3 NOT CALLDATASIZE ADD SLT PUSH2 0x510 JUMPI CALLDATALOAD DUP4 MSTORE PUSH1 0x7 PUSH1 0x20 MSTORE DUP1 DUP4 KECCAK256 SWAP3 DUP2 MLOAD DUP1 SWAP4 PUSH1 0x20 DUP7 SLOAD SWAP3 DUP4 DUP2 MSTORE ADD SWAP6 DUP4 MSTORE PUSH1 0x20 DUP4 KECCAK256 SWAP3 SWAP1 JUMPDEST DUP3 DUP3 LT PUSH2 0x4F9 JUMPI PUSH2 0x4F5 DUP7 DUP7 PUSH2 0x4EB DUP3 DUP12 SUB DUP4 PUSH2 0x3ED8 JUMP JUMPDEST MLOAD SWAP2 DUP3 SWAP2 DUP3 PUSH2 0x3FA1 JUMP JUMPDEST SUB SWAP1 RETURN JUMPDEST DUP4 SLOAD DUP8 MSTORE SWAP6 DUP7 ADD SWAP6 PUSH1 0x1 SWAP4 DUP5 ADD SWAP4 SWAP1 SWAP2 ADD SWAP1 PUSH2 0x4D3 JUMP JUMPDEST DUP4 DUP1 REVERT JUMPDEST DUP3 DUP5 CALLVALUE PUSH2 0x400 JUMPI PUSH1 0xFF DUP2 PUSH1 0x20 SWAP4 PUSH2 0x52A CALLDATASIZE PUSH2 0x3DF8 JUMP JUMPDEST SWAP1 DUP3 MSTORE PUSH1 0xB DUP7 MSTORE DUP3 DUP3 KECCAK256 SWAP1 DUP3 MSTORE DUP6 MSTORE KECCAK256 SLOAD AND SWAP1 MLOAD SWAP1 ISZERO ISZERO DUP2 MSTORE RETURN JUMPDEST POP DUP3 CALLVALUE PUSH2 0x3FC JUMPI PUSH1 0x20 SWAP2 PUSH1 0x20 PUSH1 0x3 NOT CALLDATASIZE ADD SLT PUSH2 0x510 JUMPI CALLDATALOAD DUP4 MSTORE PUSH1 0x13 PUSH1 0x20 MSTORE DUP1 DUP4 KECCAK256 SWAP3 DUP2 MLOAD DUP1 SWAP4 PUSH1 0x20 DUP7 SLOAD SWAP3 DUP4 DUP2 MSTORE ADD SWAP6 DUP4 MSTORE PUSH1 0x20 DUP4 KECCAK256 SWAP3 SWAP1 JUMPDEST DUP3 DUP3 LT PUSH2 0x596 JUMPI PUSH2 0x4F5 DUP7 DUP7 PUSH2 0x4EB DUP3 DUP12 SUB DUP4 PUSH2 0x3ED8 JUMP JUMPDEST DUP4 SLOAD DUP8 MSTORE SWAP6 DUP7 ADD SWAP6 PUSH1 0x1 SWAP4 DUP5 ADD SWAP4 SWAP1 SWAP2 ADD SWAP1 PUSH2 0x57E JUMP JUMPDEST POP DUP3 SWAP1 CALLVALUE PUSH2 0x3FC JUMPI PUSH1 0x20 SWAP2 DUP3 PUSH1 0x3 NOT CALLDATASIZE ADD SLT PUSH2 0x510 JUMPI DUP4 SWAP2 CALLDATALOAD DUP5 MSTORE PUSH1 0xD DUP4 MSTORE DUP1 DUP5 KECCAK256 SWAP4 DUP5 SLOAD PUSH2 0x5DB DUP2 PUSH2 0x434E JUMP JUMPDEST SWAP6 PUSH2 0x5E8 DUP5 MLOAD SWAP8 DUP9 PUSH2 0x3ED8 JUMP JUMPDEST DUP2 DUP8 MSTORE DUP3 MSTORE DUP5 DUP3 KECCAK256 DUP3 SWAP1 DUP7 DUP1 DUP10 ADD JUMPDEST DUP5 DUP5 LT PUSH2 0x64D JUMPI POP POP POP POP POP DUP5 MLOAD SWAP1 JUMPDEST DUP6 MLOAD DUP2 LT ISZERO PUSH2 0x640 JUMPI PUSH1 0xC0 PUSH2 0x61C DUP3 DUP9 PUSH2 0x4366 JUMP JUMPDEST MLOAD ADD MLOAD PUSH2 0x62C JUMPI JUMPDEST PUSH1 0x1 ADD PUSH2 0x607 JUMP JUMPDEST SWAP3 PUSH2 0x638 PUSH1 0x1 SWAP2 PUSH2 0x414A JUMP JUMPDEST SWAP4 SWAP1 POP PUSH2 0x624 JUMP JUMPDEST POP DUP3 DUP5 DUP4 MLOAD SWAP3 DUP4 MSTORE DUP3 ADD MSTORE RETURN JUMPDEST PUSH1 0x1 SWAP2 PUSH1 0x6 SWAP2 PUSH2 0x65C DUP6 PUSH2 0x4551 JUMP JUMPDEST DUP2 MSTORE ADD SWAP3 ADD SWAP3 ADD SWAP2 SWAP1 DUP8 SWAP1 PUSH2 0x5F7 JUMP JUMPDEST POP DUP3 SWAP1 CALLVALUE PUSH2 0x3FC JUMPI PUSH1 0x20 CALLDATASIZE PUSH1 0x3 NOT ADD SLT PUSH2 0x3FC JUMPI PUSH1 0x20 SWAP3 DUP3 SWAP2 CALLDATALOAD DUP2 MSTORE PUSH1 0x7 DUP5 MSTORE KECCAK256 SLOAD SWAP1 MLOAD SWAP1 DUP2 MSTORE RETURN JUMPDEST DUP3 CALLVALUE PUSH2 0x497 JUMPI PUSH1 0x20 CALLDATASIZE PUSH1 0x3 NOT ADD SLT PUSH2 0x497 JUMPI PUSH2 0x6AF PUSH2 0x3F8B JUMP JUMPDEST PUSH1 0x1 SLOAD PUSH1 0x1 PUSH1 0x1 PUSH1 0xA0 SHL SUB SWAP2 SWAP1 PUSH2 0x6C9 SWAP1 DUP4 AND CALLER EQ PUSH2 0x4111 JUMP JUMPDEST AND PUSH2 0x6D5 DUP2 ISZERO ISZERO PUSH2 0x4778 JUMP JUMPDEST DUP2 SLOAD PUSH1 0x1 PUSH1 0x1 PUSH1 0xA0 SHL SUB NOT AND OR DUP2 SSTORE DUP1 RETURN JUMPDEST POP DUP3 SWAP1 CALLVALUE PUSH2 0x3FC JUMPI PUSH1 0x20 CALLDATASIZE PUSH1 0x3 NOT ADD SLT PUSH2 0x3FC JUMPI PUSH1 0x20 SWAP3 DUP3 SWAP2 CALLDATALOAD DUP2 MSTORE PUSH1 0x12 DUP5 MSTORE KECCAK256 SLOAD SWAP1 MLOAD SWAP1 DUP2 MSTORE RETURN JUMPDEST POP DUP3 SWAP1 CALLVALUE PUSH2 0x3FC JUMPI PUSH1 0x20 DUP1 PUSH1 0x3 NOT CALLDATASIZE ADD SLT PUSH2 0x510 JUMPI DUP4 SLOAD DUP4 MLOAD PUSH3 0xB0C809 PUSH1 0xE0 SHL DUP2 MSTORE CALLER DUP2 DUP6 ADD MSTORE SWAP4 DUP4 CALLDATALOAD SWAP4 SWAP1 SWAP2 DUP4 SWAP1 DUP7 SWAP1 PUSH1 0x24 SWAP1 DUP3 SWAP1 PUSH1 0x1 PUSH1 0x1 PUSH1 0xA0 SHL SUB AND GAS STATICCALL SWAP5 DUP6 ISZERO PUSH2 0x88D JUMPI DUP7 SWAP6 PUSH2 0x85A JUMPI JUMPDEST POP PUSH2 0x76B DUP6 ISZERO ISZERO PUSH2 0x42D3 JUMP JUMPDEST DUP4 DUP7 MSTORE PUSH1 0xE DUP4 MSTORE DUP2 DUP7 KECCAK256 DUP6 DUP8 MSTORE DUP4 MSTORE PUSH1 0xFF DUP3 DUP8 KECCAK256 SLOAD AND ISZERO PUSH2 0x821 JUMPI POP SWAP1 PUSH32 0x6CE2CFA8C67A8EEDDAB297878EC995418CC57AA7857D4FE81C4F22C06842AF0D SWAP2 DUP4 DUP7 MSTORE PUSH1 0xF DUP3 MSTORE DUP1 DUP7 KECCAK256 DUP6 DUP8 MSTORE DUP3 MSTORE PUSH1 0x5 PUSH2 0x7F5 DUP3 PUSH2 0x7E6 PUSH1 0xFF DUP5 PUSH2 0x7DD DUP13 DUP6 DUP2 KECCAK256 SLOAD SWAP6 DUP2 DUP14 DUP9 SWAP4 MSTORE PUSH1 0xD DUP13 MSTORE KECCAK256 PUSH2 0x4005 JUMP JUMPDEST POP ADD SLOAD AND PUSH2 0x4738 JUMP JUMPDEST DUP7 DUP10 MSTORE PUSH1 0xD DUP6 MSTORE DUP4 DUP10 KECCAK256 PUSH2 0x4005 JUMP JUMPDEST POP ADD PUSH1 0xFF NOT SWAP1 DUP2 DUP2 SLOAD AND SWAP1 SSTORE DUP5 DUP8 MSTORE PUSH1 0xE DUP4 MSTORE DUP2 DUP8 KECCAK256 DUP7 DUP9 MSTORE DUP4 MSTORE DUP2 DUP8 KECCAK256 SWAP1 DUP2 SLOAD AND SWAP1 SSTORE MLOAD TIMESTAMP DUP2 MSTORE LOG3 DUP1 RETURN JUMPDEST DUP3 PUSH1 0x64 SWAP3 MLOAD SWAP2 PUSH3 0x461BCD PUSH1 0xE5 SHL DUP4 MSTORE DUP3 ADD MSTORE PUSH1 0x15 PUSH1 0x24 DUP3 ADD MSTORE PUSH21 0x139BC8191A5CDC1D5D19481D1BC81C995D1C9858DD PUSH1 0x5A SHL PUSH1 0x44 DUP3 ADD MSTORE REVERT JUMPDEST SWAP1 SWAP5 POP DUP3 DUP2 DUP2 RETURNDATASIZE DUP4 GT PUSH2 0x886 JUMPI JUMPDEST PUSH2 0x872 DUP2 DUP4 PUSH2 0x3ED8 JUMP JUMPDEST DUP2 ADD SUB SLT PUSH2 0x882 JUMPI MLOAD SWAP4 DUP7 PUSH2 0x75F JUMP JUMPDEST PUSH0 DUP1 REVERT JUMPDEST POP RETURNDATASIZE PUSH2 0x868 JUMP JUMPDEST DUP3 MLOAD RETURNDATASIZE DUP9 DUP3 RETURNDATACOPY RETURNDATASIZE SWAP1 REVERT JUMPDEST DUP3 DUP5 CALLVALUE PUSH2 0x400 JUMPI PUSH1 0xFF DUP2 PUSH1 0x20 SWAP4 PUSH2 0x8AD CALLDATASIZE PUSH2 0x3DF8 JUMP JUMPDEST SWAP1 DUP3 MSTORE PUSH1 0x3 DUP7 MSTORE DUP3 DUP3 KECCAK256 SWAP1 DUP3 MSTORE DUP6 MSTORE KECCAK256 SLOAD AND SWAP1 MLOAD SWAP1 ISZERO ISZERO DUP2 MSTORE RETURN JUMPDEST DUP3 DUP5 CALLVALUE PUSH2 0x400 JUMPI DUP2 PUSH1 0x3 NOT CALLDATASIZE ADD SLT PUSH2 0x400 JUMPI PUSH1 0x20 SWAP1 PUSH1 0x9 SLOAD SWAP1 MLOAD SWAP1 DUP2 MSTORE RETURN JUMPDEST POP DUP3 CALLVALUE PUSH2 0x3FC JUMPI PUSH2 0x8F7 CALLDATASIZE PUSH2 0x3DF8 JUMP JUMPDEST SWAP4 SWAP1 DUP2 MSTORE PUSH1 0xA PUSH1 0x20 MSTORE DUP2 DUP2 KECCAK256 SWAP1 DUP2 SLOAD DUP6 LT ISZERO PUSH2 0x497 JUMPI POP PUSH1 0xA0 SWAP4 PUSH2 0x91A SWAP2 PUSH2 0x40F8 JUMP JUMPDEST POP DUP1 SLOAD SWAP3 PUSH1 0x1 DUP3 ADD SLOAD SWAP3 PUSH1 0xFF DUP1 PUSH1 0x2 DUP6 ADD SLOAD AND SWAP3 PUSH1 0x3 DUP6 ADD SLOAD SWAP5 ADD SLOAD AND SWAP4 DUP2 MLOAD SWAP6 DUP7 MSTORE PUSH1 0x20 DUP7 ADD MSTORE PUSH2 0x94B DUP3 PUSH2 0x3E0E JUMP JUMPDEST DUP5 ADD MSTORE PUSH1 0x60 DUP4 ADD MSTORE ISZERO ISZERO PUSH1 0x80 DUP3 ADD MSTORE RETURN JUMPDEST DUP5 DUP4 DUP6 CALLVALUE PUSH2 0x497 JUMPI PUSH1 0x20 SWAP2 DUP3 PUSH1 0x3 NOT CALLDATASIZE ADD SLT PUSH2 0x400 JUMPI CALLDATALOAD DUP2 MSTORE PUSH1 0xD DUP3 MSTORE DUP3 DUP2 KECCAK256 SWAP2 DUP3 SLOAD SWAP1 PUSH2 0x989 DUP3 PUSH2 0x434E JUMP JUMPDEST SWAP2 PUSH2 0x996 DUP7 MLOAD SWAP4 DUP5 PUSH2 0x3ED8 JUMP JUMPDEST DUP1 DUP4 MSTORE DUP2 DUP4 ADD DUP1 SWAP6 DUP6 MSTORE DUP3 DUP6 KECCAK256 DUP6 SWAP2 JUMPDEST DUP4 DUP4 LT PUSH2 0xA61 JUMPI POP POP POP POP DUP5 MLOAD SWAP5 DUP2 DUP7 ADD SWAP3 DUP3 DUP8 MSTORE MLOAD DUP1 SWAP4 MSTORE DUP1 DUP7 ADD SWAP1 DUP1 DUP5 PUSH1 0x5 SHL DUP9 ADD ADD SWAP6 SWAP5 SWAP8 JUMPDEST DUP5 DUP10 LT PUSH2 0x9DC JUMPI DUP8 DUP8 SUB DUP9 RETURN JUMPDEST SWAP1 SWAP2 SWAP3 SWAP4 SWAP5 SWAP6 DUP5 DUP1 PUSH1 0x1 SWAP3 PUSH1 0x3F NOT DUP12 DUP3 SUB ADD DUP8 MSTORE DUP10 MLOAD SWAP1 DUP2 MLOAD DUP2 MSTORE DUP3 DUP3 ADD MLOAD DUP4 DUP3 ADD MSTORE DUP7 DUP3 ADD MLOAD PUSH2 0xA0C DUP2 PUSH2 0x3E0E JUMP JUMPDEST DUP8 DUP3 ADD MSTORE PUSH2 0xA22 PUSH1 0x60 DUP1 DUP5 ADD MLOAD SWAP1 DUP4 ADD SWAP1 PUSH2 0x3F40 JUMP JUMPDEST PUSH2 0xA39 PUSH1 0x80 DUP8 DUP2 DUP6 ADD MLOAD SWAP2 DUP5 ADD MSTORE DUP8 DUP4 ADD SWAP1 PUSH2 0x3F4D JUMP JUMPDEST SWAP2 PUSH1 0xA0 DUP1 DUP3 ADD MLOAD SWAP1 DUP4 ADD MSTORE PUSH1 0xC0 DUP1 SWAP2 ADD MLOAD ISZERO ISZERO SWAP2 ADD MSTORE SWAP9 ADD SWAP5 ADD SWAP9 ADD SWAP8 SWAP2 SWAP1 SWAP5 SWAP4 SWAP3 SWAP5 PUSH2 0x9CF JUMP JUMPDEST PUSH1 0x6 DUP6 PUSH1 0x1 SWAP3 PUSH2 0xA74 DUP6 SWAP11 SWAP9 SWAP10 SWAP11 PUSH2 0x4551 JUMP JUMPDEST DUP2 MSTORE ADD SWAP3 ADD SWAP3 ADD SWAP2 SWAP1 SWAP6 SWAP5 SWAP4 SWAP6 PUSH2 0x9A6 JUMP JUMPDEST POP POP DUP3 CALLVALUE PUSH2 0x3FC JUMPI PUSH1 0x20 SWAP2 PUSH1 0x20 PUSH1 0x3 NOT CALLDATASIZE ADD SLT PUSH2 0x510 JUMPI CALLDATALOAD DUP4 MSTORE PUSH1 0x14 PUSH1 0x20 MSTORE DUP1 DUP4 KECCAK256 SWAP3 DUP2 MLOAD DUP1 SWAP4 PUSH1 0x20 DUP7 SLOAD SWAP3 DUP4 DUP2 MSTORE ADD SWAP6 DUP4 MSTORE PUSH1 0x20 DUP4 KECCAK256 SWAP3 SWAP1 JUMPDEST DUP3 DUP3 LT PUSH2 0xAD8 JUMPI PUSH2 0x4F5 DUP7 DUP7 PUSH2 0x4EB DUP3 DUP12 SUB DUP4 PUSH2 0x3ED8 JUMP JUMPDEST DUP4 SLOAD DUP8 MSTORE SWAP6 DUP7 ADD SWAP6 PUSH1 0x1 SWAP4 DUP5 ADD SWAP4 SWAP1 SWAP2 ADD SWAP1 PUSH2 0xAC0 JUMP JUMPDEST POP POP DUP3 CALLVALUE PUSH2 0x3FC JUMPI PUSH1 0x20 SWAP2 PUSH1 0x20 PUSH1 0x3 NOT CALLDATASIZE ADD SLT PUSH2 0x510 JUMPI DUP1 CALLDATALOAD DUP5 MSTORE PUSH1 0x20 MSTORE DUP1 DUP4 KECCAK256 SWAP3 DUP2 MLOAD DUP1 SWAP4 PUSH1 0x20 DUP7 SLOAD SWAP3 DUP4 DUP2 MSTORE ADD SWAP6 DUP4 MSTORE PUSH1 0x20 DUP4 KECCAK256 SWAP3 SWAP1 JUMPDEST DUP3 DUP3 LT PUSH2 0xB40 JUMPI PUSH2 0x4F5 DUP7 DUP7 PUSH2 0x4EB DUP3 DUP12 SUB DUP4 PUSH2 0x3ED8 JUMP JUMPDEST DUP4 SLOAD DUP8 MSTORE SWAP6 DUP7 ADD SWAP6 PUSH1 0x1 SWAP4 DUP5 ADD SWAP4 SWAP1 SWAP2 ADD SWAP1 PUSH2 0xB28 JUMP JUMPDEST POP POP DUP3 CALLVALUE PUSH2 0x3FC JUMPI PUSH2 0xB68 CALLDATASIZE PUSH2 0x3DF8 JUMP JUMPDEST SWAP3 SWAP1 SWAP2 PUSH1 0x1 DUP1 PUSH1 0xA0 SHL SUB DUP6 SLOAD AND SWAP2 DUP2 MLOAD SWAP1 PUSH4 0x45ECD02F PUSH1 0xE0 SHL DUP3 MSTORE CALLER DUP2 DUP4 ADD MSTORE PUSH1 0x20 SWAP2 DUP3 DUP2 PUSH1 0x24 DUP2 DUP9 GAS STATICCALL SWAP1 DUP2 ISZERO PUSH2 0xD82 JUMPI SWAP1 PUSH2 0xBAC SWAP2 DUP10 SWAP2 PUSH2 0xD8C JUMPI JUMPDEST POP PUSH2 0x4392 JUMP JUMPDEST DUP3 MLOAD PUSH4 0x64461AFF PUSH1 0xE1 SHL DUP2 MSTORE DUP2 DUP2 ADD DUP7 DUP2 MSTORE CALLER PUSH1 0x20 DUP3 ADD MSTORE DUP4 SWAP1 DUP3 SWAP1 DUP2 SWAP1 PUSH1 0x40 ADD SUB DUP2 DUP9 GAS STATICCALL SWAP1 DUP2 ISZERO PUSH2 0xD82 JUMPI SWAP1 PUSH2 0xBEB SWAP2 DUP10 SWAP2 PUSH2 0xD55 JUMPI JUMPDEST POP PUSH2 0x43D5 JUMP JUMPDEST DUP6 DUP8 MSTORE PUSH1 0x6 DUP3 MSTORE DUP3 DUP8 KECCAK256 SLOAD PUSH2 0xD14 JUMPI DUP6 ISZERO PUSH2 0xCDC JUMPI DUP2 SWAP1 PUSH1 0x24 DUP5 MLOAD DUP1 SWAP7 DUP2 SWAP4 PUSH3 0xB0C809 PUSH1 0xE0 SHL DUP4 MSTORE CALLER SWAP1 DUP4 ADD MSTORE GAS STATICCALL SWAP1 DUP2 ISZERO PUSH2 0x88D JUMPI DUP7 SWAP2 PUSH2 0xC8D JUMPI JUMPDEST PUSH32 0xA2DC124B7DCC6EE378406493EDC477D456CB2E3946E74B015C868704E9F16280 SWAP4 POP DUP6 DUP8 MSTORE PUSH1 0x6 DUP2 MSTORE DUP5 DUP4 DUP9 KECCAK256 SSTORE DUP5 DUP8 MSTORE PUSH1 0x7 DUP2 MSTORE PUSH2 0xC6A DUP7 DUP5 DUP10 KECCAK256 PUSH2 0x451D JUMP JUMPDEST DUP6 DUP8 MSTORE PUSH1 0x8 DUP2 MSTORE DUP3 DUP8 KECCAK256 DUP1 SLOAD PUSH1 0xFF NOT AND PUSH1 0x1 OR SWAP1 SSTORE DUP3 MLOAD SWAP2 DUP3 MSTORE TIMESTAMP SWAP1 DUP3 ADD MSTORE LOG3 DUP1 RETURN JUMPDEST DUP1 SWAP2 POP DUP4 DUP2 RETURNDATASIZE DUP4 GT PUSH2 0xCD5 JUMPI JUMPDEST PUSH2 0xCA4 DUP2 DUP4 PUSH2 0x3ED8 JUMP JUMPDEST DUP2 ADD SUB SLT PUSH2 0x882 JUMPI PUSH32 0xA2DC124B7DCC6EE378406493EDC477D456CB2E3946E74B015C868704E9F16280 SWAP3 MLOAD SWAP1 PUSH2 0xC28 JUMP JUMPDEST POP RETURNDATASIZE PUSH2 0xC9A JUMP JUMPDEST SWAP2 MLOAD PUSH3 0x461BCD PUSH1 0xE5 SHL DUP2 MSTORE SWAP2 DUP3 ADD MSTORE PUSH1 0x14 PUSH1 0x24 DUP3 ADD MSTORE PUSH20 0x486173682063616E6E6F7420626520656D707479 PUSH1 0x60 SHL PUSH1 0x44 DUP3 ADD MSTORE PUSH1 0x64 SWAP1 REVERT JUMPDEST SWAP2 MLOAD PUSH3 0x461BCD PUSH1 0xE5 SHL DUP2 MSTORE SWAP2 DUP3 ADD MSTORE PUSH1 0x1E PUSH1 0x24 DUP3 ADD MSTORE PUSH32 0x4861736820616C726561647920626F756E6420746F2061207265636F72640000 PUSH1 0x44 DUP3 ADD MSTORE PUSH1 0x64 SWAP1 REVERT JUMPDEST PUSH2 0xD75 SWAP2 POP DUP5 RETURNDATASIZE DUP7 GT PUSH2 0xD7B JUMPI JUMPDEST PUSH2 0xD6D DUP2 DUP4 PUSH2 0x3ED8 JUMP JUMPDEST DUP2 ADD SWAP1 PUSH2 0x437A JUMP JUMPDEST DUP10 PUSH2 0xBE5 JUMP JUMPDEST POP RETURNDATASIZE PUSH2 0xD63 JUMP JUMPDEST DUP5 MLOAD RETURNDATASIZE DUP11 DUP3 RETURNDATACOPY RETURNDATASIZE SWAP1 REVERT JUMPDEST PUSH2 0xDA3 SWAP2 POP DUP5 RETURNDATASIZE DUP7 GT PUSH2 0xD7B JUMPI PUSH2 0xD6D DUP2 DUP4 PUSH2 0x3ED8 JUMP JUMPDEST DUP10 PUSH2 0xBA6 JUMP JUMPDEST DUP4 DUP6 CALLVALUE PUSH2 0x400 JUMPI DUP2 PUSH1 0x3 NOT CALLDATASIZE ADD SLT PUSH2 0x400 JUMPI PUSH1 0x20 SWAP1 PUSH1 0x16 SLOAD SWAP1 MLOAD SWAP1 DUP2 MSTORE RETURN JUMPDEST DUP4 DUP6 DUP5 CALLVALUE PUSH2 0x3FC JUMPI PUSH1 0x20 CALLDATASIZE PUSH1 0x3 NOT ADD SLT PUSH2 0x3FC JUMPI PUSH2 0xDE4 PUSH2 0x3F8B JUMP JUMPDEST PUSH32 0xF0C57E16840DF040F15088DC2F81FE391C3923BEC73E23A9662EFC9C229C6A00 SWAP2 DUP3 SLOAD SWAP2 PUSH1 0xFF DUP4 DUP7 SHR AND ISZERO SWAP3 PUSH8 0xFFFFFFFFFFFFFFFF DUP2 AND DUP1 ISZERO SWAP1 DUP2 PUSH2 0xF5F JUMPI JUMPDEST PUSH1 0x1 EQ SWAP1 DUP2 PUSH2 0xF55 JUMPI JUMPDEST ISZERO SWAP1 DUP2 PUSH2 0xF4C JUMPI JUMPDEST POP PUSH2 0xF3C JUMPI PUSH8 0xFFFFFFFFFFFFFFFF NOT DUP2 AND PUSH1 0x1 OR DUP6 SSTORE DUP4 PUSH2 0xF1D JUMPI JUMPDEST POP PUSH1 0x1 PUSH1 0x1 PUSH1 0xA0 SHL SUB AND SWAP1 DUP2 ISZERO PUSH2 0xED0 JUMPI POP PUSH12 0xFFFFFFFFFFFFFFFFFFFFFFFF PUSH1 0xA0 SHL SWAP1 DUP2 DUP7 SLOAD AND OR DUP6 SSTORE CALLER SWAP1 PUSH1 0x1 SLOAD AND OR PUSH1 0x1 SSTORE PUSH2 0xE8F JUMPI DUP3 DUP1 RETURN JUMPDEST DUP1 SLOAD PUSH9 0xFF0000000000000000 NOT AND SWAP1 SSTORE MLOAD PUSH1 0x1 DUP2 MSTORE PUSH32 0xC7F505B2F371AE2175EE4913F4499E1F2633A7B5936321EED1CDAEB6115181D2 SWAP1 PUSH1 0x20 SWAP1 LOG1 DUP2 DUP1 DUP3 DUP1 RETURN JUMPDEST PUSH1 0x84 SWAP1 PUSH1 0x20 DUP7 MLOAD SWAP2 PUSH3 0x461BCD PUSH1 0xE5 SHL DUP4 MSTORE DUP3 ADD MSTORE PUSH1 0x21 PUSH1 0x24 DUP3 ADD MSTORE PUSH32 0x496E76616C6964204D656D626572526F6C654D616E6167657220616464726573 PUSH1 0x44 DUP3 ADD MSTORE PUSH1 0x73 PUSH1 0xF8 SHL PUSH1 0x64 DUP3 ADD MSTORE REVERT JUMPDEST PUSH9 0xFFFFFFFFFFFFFFFFFF NOT AND PUSH9 0x10000000000000001 OR DUP5 SSTORE DUP7 PUSH2 0xE53 JUMP JUMPDEST DUP6 MLOAD PUSH4 0xF92EE8A9 PUSH1 0xE0 SHL DUP2 MSTORE DUP4 SWAP1 REVERT JUMPDEST SWAP1 POP ISZERO DUP9 PUSH2 0xE37 JUMP JUMPDEST ADDRESS EXTCODESIZE ISZERO SWAP2 POP PUSH2 0xE2F JUMP JUMPDEST DUP6 SWAP2 POP PUSH2 0xE25 JUMP JUMPDEST POP POP SWAP2 CALLVALUE PUSH2 0x400 JUMPI PUSH1 0x80 CALLDATASIZE PUSH1 0x3 NOT ADD SLT PUSH2 0x400 JUMPI PUSH1 0x24 SWAP1 DUP4 CALLDATALOAD DUP3 CALLDATALOAD PUSH2 0xF8A PUSH2 0x3E4C JUMP JUMPDEST DUP6 SLOAD DUP5 MLOAD PUSH4 0x45ECD02F PUSH1 0xE0 SHL DUP2 MSTORE CALLER DUP2 DUP11 ADD MSTORE PUSH1 0x20 SWAP9 SWAP3 PUSH1 0x1 PUSH1 0x1 PUSH1 0xA0 SHL SUB SWAP3 SWAP1 SWAP2 SWAP1 DUP4 AND SWAP1 DUP11 DUP2 DUP11 DUP2 DUP6 GAS STATICCALL SWAP1 DUP2 ISZERO PUSH2 0x1341 JUMPI SWAP1 PUSH2 0xFCF SWAP2 DUP12 SWAP2 PUSH2 0x1324 JUMPI POP PUSH2 0x4392 JUMP JUMPDEST DUP7 MLOAD PUSH4 0x64461AFF PUSH1 0xE1 SHL DUP2 MSTORE DUP5 DUP2 ADD DUP8 DUP2 MSTORE CALLER PUSH1 0x20 DUP3 ADD MSTORE SWAP1 SWAP2 DUP12 SWAP2 DUP4 SWAP2 SWAP1 DUP3 SWAP1 DUP2 SWAP1 PUSH1 0x40 ADD SUB SWAP2 GAS STATICCALL SWAP1 DUP2 ISZERO PUSH2 0x131A JUMPI SWAP1 PUSH2 0x1011 SWAP2 DUP11 SWAP2 PUSH2 0x12FD JUMPI POP PUSH2 0x43D5 JUMP JUMPDEST PUSH2 0x101C DUP6 ISZERO ISZERO PUSH2 0x4421 JUMP JUMPDEST PUSH2 0x1027 DUP5 ISZERO ISZERO PUSH2 0x446D JUMP JUMPDEST PUSH2 0x1032 PUSH1 0x44 CALLDATALOAD PUSH2 0x47F6 JUMP JUMPDEST SWAP4 DUP6 DUP10 MSTORE PUSH1 0x3 DUP11 MSTORE DUP7 DUP10 KECCAK256 DUP6 DUP11 MSTORE DUP11 MSTORE PUSH1 0xFF DUP8 DUP11 KECCAK256 SLOAD AND PUSH2 0x12AB JUMPI DUP6 DUP10 MSTORE PUSH1 0x2 DUP11 MSTORE DUP7 DUP10 KECCAK256 SLOAD ISZERO PUSH2 0x11C4 JUMPI JUMPDEST SWAP9 DUP9 SWAP10 DUP7 DUP11 MSTORE PUSH1 0x2 DUP3 MSTORE PUSH2 0x1074 DUP7 DUP10 DUP13 KECCAK256 PUSH2 0x451D JUMP JUMPDEST DUP7 DUP11 MSTORE PUSH1 0x3 DUP3 MSTORE DUP8 DUP11 KECCAK256 DUP7 DUP12 MSTORE DUP3 MSTORE DUP8 DUP11 KECCAK256 PUSH1 0xFF NOT SWAP1 PUSH1 0x1 DUP3 DUP3 SLOAD AND OR SWAP1 SSTORE DUP8 DUP12 MSTORE PUSH1 0x5 DUP4 MSTORE DUP9 DUP12 KECCAK256 DUP8 DUP13 MSTORE DUP4 MSTORE PUSH1 0x1 DUP10 DUP13 KECCAK256 SWAP2 DUP3 SLOAD AND OR SWAP1 SSTORE DUP5 DUP3 MSTORE PUSH2 0x10BD DUP8 DUP10 DUP13 KECCAK256 PUSH2 0x451D JUMP JUMPDEST PUSH2 0x10C8 PUSH1 0x9 SLOAD PUSH2 0x414A JUMP JUMPDEST PUSH1 0x9 SSTORE DUP6 DUP2 DUP9 PUSH32 0xAED20EB4DF1031F98B6EE943999C834D0A9A777B4AAE82671C972B33C8B93750 DUP6 DUP13 MLOAD TIMESTAMP DUP2 MSTORE LOG4 DUP9 DUP3 DUP6 DUP13 SLOAD AND DUP11 MLOAD SWAP3 DUP4 DUP1 SWAP3 PUSH3 0xB0C809 PUSH1 0xE0 SHL DUP3 MSTORE CALLER DUP12 DUP4 ADD MSTORE GAS STATICCALL SWAP3 DUP4 ISZERO PUSH2 0x11BA JUMPI DUP12 SWAP4 PUSH2 0x1184 JUMPI JUMPDEST POP POP SWAP1 PUSH2 0x112E SWAP3 SWAP2 DUP8 PUSH2 0x4A95 JUMP JUMPDEST DUP7 SLOAD AND SWAP1 DUP2 EXTCODESIZE ISZERO PUSH2 0x1180 JUMPI DUP7 PUSH1 0x44 SWAP3 DUP2 SWAP6 DUP8 MLOAD SWAP9 DUP10 SWAP7 DUP8 SWAP6 PUSH4 0xC35C997 PUSH1 0xE2 SHL DUP8 MSTORE DUP7 ADD MSTORE DUP5 ADD MSTORE GAS CALL SWAP1 DUP2 ISZERO PUSH2 0x1177 JUMPI POP PUSH2 0x1167 JUMPI POP RETURN JUMPDEST PUSH2 0x1170 SWAP1 PUSH2 0x3EC4 JUMP JUMPDEST PUSH2 0x497 JUMPI DUP1 RETURN JUMPDEST MLOAD RETURNDATASIZE DUP5 DUP3 RETURNDATACOPY RETURNDATASIZE SWAP1 REVERT JUMPDEST DUP7 DUP1 REVERT JUMPDEST DUP1 SWAP3 SWAP12 POP DUP2 SWAP5 SWAP4 POP RETURNDATASIZE DUP4 GT PUSH2 0x11B3 JUMPI JUMPDEST PUSH2 0x119E DUP2 DUP4 PUSH2 0x3ED8 JUMP JUMPDEST DUP2 ADD SUB SLT PUSH2 0x882 JUMPI SWAP1 MLOAD DUP10 SWAP9 PUSH2 0x112E PUSH0 PUSH2 0x1120 JUMP JUMPDEST POP RETURNDATASIZE PUSH2 0x1194 JUMP JUMPDEST DUP10 MLOAD RETURNDATASIZE DUP14 DUP3 RETURNDATACOPY RETURNDATASIZE SWAP1 REVERT JUMPDEST DUP1 DUP10 MSTORE PUSH1 0x6 DUP11 MSTORE DUP7 DUP10 KECCAK256 SLOAD DUP7 SWAP1 DUP1 ISZERO PUSH2 0x1228 JUMPI SUB PUSH2 0x11E8 JUMPI SWAP9 DUP9 SWAP10 JUMPDEST SWAP1 SWAP10 POP PUSH2 0x105E JUMP JUMPDEST PUSH1 0x64 DUP5 DUP12 DUP11 DUP2 DUP12 MLOAD SWAP4 PUSH3 0x461BCD PUSH1 0xE5 SHL DUP6 MSTORE DUP5 ADD MSTORE DUP3 ADD MSTORE PUSH32 0x486173682062656C6F6E677320746F20646966666572656E74207265636F7264 PUSH1 0x44 DUP3 ADD MSTORE REVERT JUMPDEST POP POP PUSH1 0x8 DUP11 MSTORE PUSH1 0xFF DUP8 DUP11 KECCAK256 SLOAD AND PUSH2 0x1275 JUMPI SWAP9 DUP10 DUP10 SWAP11 DUP11 MSTORE PUSH1 0x6 DUP3 MSTORE DUP7 DUP9 DUP12 KECCAK256 SSTORE DUP7 DUP11 MSTORE PUSH1 0x7 DUP3 MSTORE PUSH2 0x125B DUP2 DUP10 DUP13 KECCAK256 PUSH2 0x451D JUMP JUMPDEST DUP1 DUP11 MSTORE PUSH1 0x8 DUP3 MSTORE DUP8 DUP11 KECCAK256 DUP1 SLOAD PUSH1 0xFF NOT AND PUSH1 0x1 OR SWAP1 SSTORE PUSH2 0x11E0 JUMP JUMPDEST DUP7 MLOAD PUSH3 0x461BCD PUSH1 0xE5 SHL DUP2 MSTORE DUP1 DUP6 ADD DUP12 SWAP1 MSTORE PUSH1 0x11 DUP2 DUP11 ADD MSTORE PUSH17 0x12185CDA08185B1C9958591E481D5CD959 PUSH1 0x7A SHL PUSH1 0x44 DUP3 ADD MSTORE PUSH1 0x64 SWAP1 REVERT JUMPDEST DUP7 MLOAD PUSH3 0x461BCD PUSH1 0xE5 SHL DUP2 MSTORE DUP1 DUP6 ADD DUP12 SWAP1 MSTORE PUSH1 0x27 DUP2 DUP11 ADD MSTORE PUSH32 0x5265636F726420616C726561647920616E63686F72656420746F207468697320 PUSH1 0x44 DUP3 ADD MSTORE PUSH7 0x1CDD589A9958DD PUSH1 0xCA SHL PUSH1 0x64 DUP3 ADD MSTORE PUSH1 0x84 SWAP1 REVERT JUMPDEST PUSH2 0x1314 SWAP2 POP DUP12 RETURNDATASIZE DUP14 GT PUSH2 0xD7B JUMPI PUSH2 0xD6D DUP2 DUP4 PUSH2 0x3ED8 JUMP JUMPDEST PUSH0 PUSH2 0xBE5 JUMP JUMPDEST DUP8 MLOAD RETURNDATASIZE DUP12 DUP3 RETURNDATACOPY RETURNDATASIZE SWAP1 REVERT JUMPDEST PUSH2 0x133B SWAP2 POP DUP13 DUP14 RETURNDATASIZE LT PUSH2 0xD7B JUMPI PUSH2 0xD6D DUP2 DUP4 PUSH2 0x3ED8 JUMP JUMPDEST PUSH0 PUSH2 0xBA6 JUMP JUMPDEST DUP9 MLOAD RETURNDATASIZE DUP13 DUP3 RETURNDATACOPY RETURNDATASIZE SWAP1 REVERT JUMPDEST POP POP DUP3 CALLVALUE PUSH2 0x3FC JUMPI PUSH1 0x20 SWAP2 PUSH1 0x20 PUSH1 0x3 NOT CALLDATASIZE ADD SLT PUSH2 0x510 JUMPI CALLDATALOAD DUP4 MSTORE PUSH1 0x2 PUSH1 0x20 MSTORE DUP1 DUP4 KECCAK256 SWAP3 DUP2 MLOAD DUP1 SWAP4 PUSH1 0x20 DUP7 SLOAD SWAP3 DUP4 DUP2 MSTORE ADD SWAP6 DUP4 MSTORE PUSH1 0x20 DUP4 KECCAK256 SWAP3 SWAP1 JUMPDEST DUP3 DUP3 LT PUSH2 0x139D JUMPI PUSH2 0x4F5 DUP7 DUP7 PUSH2 0x4EB DUP3 DUP12 SUB DUP4 PUSH2 0x3ED8 JUMP JUMPDEST DUP4 SLOAD DUP8 MSTORE SWAP6 DUP7 ADD SWAP6 PUSH1 0x1 SWAP4 DUP5 ADD SWAP4 SWAP1 SWAP2 ADD SWAP1 PUSH2 0x1385 JUMP JUMPDEST POP POP CALLVALUE PUSH2 0x400 JUMPI PUSH1 0x20 SWAP1 DUP2 PUSH1 0x3 NOT CALLDATASIZE ADD SLT PUSH2 0x3FC JUMPI SWAP2 SWAP1 SWAP2 CALLDATALOAD DUP2 MSTORE PUSH1 0x10 DUP3 MSTORE DUP3 DUP2 KECCAK256 SWAP1 DUP2 SLOAD PUSH2 0x13E2 DUP2 PUSH2 0x434E JUMP JUMPDEST SWAP1 PUSH2 0x13EF DUP7 MLOAD SWAP3 DUP4 PUSH2 0x3ED8 JUMP JUMPDEST DUP1 DUP3 MSTORE DUP5 DUP3 ADD DUP1 SWAP5 DUP5 MSTORE DUP6 DUP5 KECCAK256 DUP5 SWAP2 JUMPDEST DUP4 DUP4 LT PUSH2 0x1469 JUMPI POP POP POP POP DUP5 MLOAD SWAP4 DUP1 DUP6 ADD SWAP2 DUP2 DUP7 MSTORE MLOAD DUP1 SWAP3 MSTORE DUP6 DUP6 ADD SWAP4 SWAP3 JUMPDEST DUP3 DUP2 LT PUSH2 0x142B JUMPI DUP6 DUP6 SUB DUP7 RETURN JUMPDEST DUP4 MLOAD DUP1 MLOAD DUP7 MSTORE DUP1 DUP4 ADD MLOAD DUP7 DUP5 ADD MSTORE DUP8 DUP2 ADD MLOAD DUP9 DUP8 ADD MSTORE PUSH1 0x60 DUP1 DUP3 ADD MLOAD SWAP1 DUP8 ADD MSTORE PUSH1 0x80 SWAP1 DUP2 ADD MLOAD ISZERO ISZERO SWAP1 DUP7 ADD MSTORE PUSH1 0xA0 SWAP1 SWAP5 ADD SWAP4 SWAP3 DUP2 ADD SWAP3 PUSH1 0x1 ADD PUSH2 0x141E JUMP JUMPDEST PUSH1 0x5 DUP9 PUSH1 0x1 SWAP3 PUSH2 0x147C DUP6 SWAP12 SWAP9 SWAP10 SWAP12 PUSH2 0x45C0 JUMP JUMPDEST DUP2 MSTORE ADD SWAP3 ADD SWAP3 ADD SWAP2 SWAP1 SWAP7 SWAP5 SWAP4 SWAP7 PUSH2 0x13FF JUMP JUMPDEST DUP4 DUP6 CALLVALUE PUSH2 0x400 JUMPI PUSH2 0x149E CALLDATASIZE PUSH2 0x3DF8 JUMP JUMPDEST SWAP3 SWAP1 DUP2 MSTORE PUSH1 0x13 PUSH1 0x20 MSTORE DUP2 DUP2 KECCAK256 SWAP1 DUP2 SLOAD DUP5 LT ISZERO PUSH2 0x497 JUMPI POP PUSH1 0x20 SWAP3 PUSH2 0x14C1 SWAP2 PUSH2 0x3FDC JUMP JUMPDEST SWAP2 SWAP1 SLOAD SWAP1 MLOAD SWAP2 PUSH1 0x3 SHL SHR DUP2 MSTORE RETURN JUMPDEST DUP3 DUP6 DUP6 CALLVALUE PUSH2 0x497 JUMPI PUSH2 0x14E0 CALLDATASIZE PUSH2 0x3DF8 JUMP JUMPDEST SWAP4 SWAP1 DUP3 MSTORE PUSH1 0x20 MSTORE DUP2 DUP2 KECCAK256 SWAP1 DUP2 SLOAD DUP5 LT ISZERO PUSH2 0x497 JUMPI POP PUSH1 0x20 SWAP3 PUSH2 0x14C1 SWAP2 PUSH2 0x3FDC JUMP JUMPDEST DUP3 DUP6 DUP6 CALLVALUE PUSH2 0x497 JUMPI PUSH2 0x1512 CALLDATASIZE PUSH2 0x3DF8 JUMP JUMPDEST SWAP2 SWAP1 DUP2 MSTORE PUSH1 0xD PUSH1 0x20 MSTORE DUP3 DUP2 KECCAK256 SWAP1 DUP2 SLOAD DUP4 LT ISZERO PUSH2 0x497 JUMPI POP SWAP1 PUSH2 0x1533 SWAP2 PUSH2 0x4005 JUMP JUMPDEST POP SWAP1 PUSH2 0x159C DUP3 SLOAD SWAP4 PUSH1 0x1 DUP5 ADD SLOAD SWAP6 PUSH2 0x158E PUSH1 0x2 DUP7 ADD SLOAD PUSH1 0xFF DUP2 AND PUSH1 0xFF PUSH1 0x5 PUSH2 0x155D PUSH1 0x3 DUP12 ADD PUSH2 0x4056 JUMP JUMPDEST SWAP7 DUP11 ADD SLOAD SWAP10 ADD SLOAD AND SWAP7 DUP1 MLOAD SWAP11 DUP12 SWAP11 DUP12 MSTORE PUSH1 0x20 DUP12 ADD MSTORE PUSH2 0x157B DUP3 PUSH2 0x3E0E JUMP JUMPDEST DUP10 ADD MSTORE PUSH1 0xFF PUSH1 0x60 DUP10 ADD SWAP2 PUSH1 0x8 SHR AND PUSH2 0x3F40 JUMP JUMPDEST DUP1 PUSH1 0x80 DUP8 ADD MSTORE DUP6 ADD SWAP1 PUSH2 0x3F4D JUMP JUMPDEST SWAP2 PUSH1 0xA0 DUP5 ADD MSTORE ISZERO ISZERO PUSH1 0xC0 DUP4 ADD MSTORE SUB SWAP1 RETURN JUMPDEST DUP4 DUP6 CALLVALUE PUSH2 0x400 JUMPI PUSH2 0x15BD CALLDATASIZE PUSH2 0x3DF8 JUMP JUMPDEST SWAP3 SWAP1 DUP2 MSTORE PUSH1 0x14 PUSH1 0x20 MSTORE DUP2 DUP2 KECCAK256 SWAP1 DUP2 SLOAD DUP5 LT ISZERO PUSH2 0x497 JUMPI POP PUSH1 0x20 SWAP3 PUSH2 0x14C1 SWAP2 PUSH2 0x3FDC JUMP JUMPDEST DUP3 DUP6 DUP6 CALLVALUE PUSH2 0x497 JUMPI DUP1 PUSH1 0x3 NOT CALLDATASIZE ADD SLT PUSH2 0x497 JUMPI POP DUP1 MLOAD SWAP1 DUP1 DUP3 ADD DUP3 DUP2 LT PUSH8 0xFFFFFFFFFFFFFFFF DUP3 GT OR PUSH2 0x1638 JUMPI PUSH2 0x4F5 SWAP4 POP DUP2 MSTORE PUSH1 0x5 DUP3 MSTORE PUSH5 0x352E302E3 PUSH1 0xDC SHL PUSH1 0x20 DUP4 ADD MSTORE MLOAD SWAP2 DUP3 SWAP2 PUSH1 0x20 DUP4 MSTORE PUSH1 0x20 DUP4 ADD SWAP1 PUSH2 0x3F4D JUMP JUMPDEST PUSH1 0x41 DUP5 PUSH4 0x4E487B71 PUSH1 0xE0 SHL PUSH0 MSTORE MSTORE PUSH1 0x24 PUSH0 REVERT JUMPDEST DUP4 DUP6 CALLVALUE PUSH2 0x400 JUMPI PUSH2 0x165B CALLDATASIZE PUSH2 0x3DF8 JUMP JUMPDEST SWAP3 SWAP1 DUP2 MSTORE PUSH1 0x2 PUSH1 0x20 MSTORE DUP2 DUP2 KECCAK256 SWAP1 DUP2 SLOAD DUP5 LT ISZERO PUSH2 0x497 JUMPI POP PUSH1 0x20 SWAP3 PUSH2 0x14C1 SWAP2 PUSH2 0x3FDC JUMP JUMPDEST DUP4 DUP6 CALLVALUE PUSH2 0x400 JUMPI DUP2 PUSH1 0x3 NOT CALLDATASIZE ADD SLT PUSH2 0x400 JUMPI PUSH1 0x20 SWAP1 PUSH1 0x17 SLOAD SWAP1 MLOAD SWAP1 DUP2 MSTORE RETURN JUMPDEST DUP4 DUP6 CALLVALUE PUSH2 0x400 JUMPI DUP2 PUSH1 0x3 NOT CALLDATASIZE ADD SLT PUSH2 0x400 JUMPI PUSH1 0x20 SWAP1 PUSH1 0x15 SLOAD SWAP1 MLOAD SWAP1 DUP2 MSTORE RETURN JUMPDEST DUP4 DUP6 CALLVALUE PUSH2 0x400 JUMPI PUSH1 0xFF DUP2 PUSH1 0x20 SWAP4 PUSH2 0x16D2 CALLDATASIZE PUSH2 0x3DF8 JUMP JUMPDEST SWAP1 DUP3 MSTORE PUSH1 0x5 DUP7 MSTORE DUP3 DUP3 KECCAK256 SWAP1 DUP3 MSTORE DUP6 MSTORE KECCAK256 SLOAD AND SWAP1 MLOAD SWAP1 ISZERO ISZERO DUP2 MSTORE RETURN JUMPDEST POP POP CALLVALUE PUSH2 0x400 JUMPI PUSH2 0x16FD CALLDATASIZE PUSH2 0x3DF8 JUMP JUMPDEST DUP4 SLOAD DUP6 MLOAD PUSH4 0x45ECD02F PUSH1 0xE0 SHL DUP2 MSTORE CALLER DUP2 DUP7 ADD MSTORE PUSH1 0x20 SWAP7 SWAP4 SWAP5 SWAP3 PUSH1 0x1 PUSH1 0x1 PUSH1 0xA0 SHL SUB SWAP3 SWAP1 SWAP2 SWAP1 DUP4 AND SWAP1 DUP9 DUP2 PUSH1 0x24 DUP2 DUP6 GAS STATICCALL SWAP1 DUP2 ISZERO PUSH2 0x18F1 JUMPI SWAP1 PUSH2 0x1745 SWAP2 DUP10 SWAP2 PUSH2 0x18DA JUMPI POP PUSH2 0x4392 JUMP JUMPDEST DUP5 MLOAD PUSH4 0x64461AFF PUSH1 0xE1 SHL DUP2 MSTORE DUP5 DUP2 ADD DUP8 DUP2 MSTORE CALLER PUSH1 0x20 DUP3 ADD MSTORE SWAP1 SWAP2 DUP10 SWAP2 DUP4 SWAP2 SWAP1 DUP3 SWAP1 DUP2 SWAP1 PUSH1 0x40 ADD SUB SWAP2 GAS STATICCALL SWAP1 DUP2 ISZERO PUSH2 0x18D0 JUMPI PUSH2 0x1790 SWAP3 SWAP2 PUSH2 0x178B SWAP2 DUP10 SWAP2 PUSH2 0x18B9 JUMPI POP PUSH2 0x43D5 JUMP JUMPDEST PUSH2 0x47F6 JUMP JUMPDEST SWAP1 DUP5 DUP7 MSTORE PUSH1 0x3 DUP8 MSTORE DUP4 DUP7 KECCAK256 DUP3 DUP8 MSTORE DUP8 MSTORE PUSH1 0xFF DUP5 DUP8 KECCAK256 SLOAD AND ISZERO PUSH2 0x1880 JUMPI DUP5 DUP7 MSTORE PUSH1 0x5 DUP8 MSTORE DUP4 DUP7 KECCAK256 DUP3 DUP8 MSTORE DUP8 MSTORE PUSH1 0xFF DUP5 DUP8 KECCAK256 SLOAD AND PUSH2 0x184C JUMPI DUP2 DUP6 PUSH32 0x34CA5296A801DF9003D17DF2E6EA45B29101067AE1A058CEF45A9B8995D2CDFC DUP9 SWAP10 DUP3 DUP11 MSTORE PUSH1 0x5 DUP2 MSTORE DUP8 DUP11 KECCAK256 DUP5 DUP12 MSTORE DUP2 MSTORE DUP8 DUP11 KECCAK256 PUSH1 0x1 PUSH1 0xFF NOT DUP3 SLOAD AND OR SWAP1 SSTORE DUP8 MLOAD TIMESTAMP DUP2 MSTORE LOG3 DUP6 SLOAD AND DUP1 EXTCODESIZE ISZERO PUSH2 0x1848 JUMPI DUP6 SWAP3 DUP4 PUSH1 0x44 SWAP3 DUP7 MLOAD SWAP8 DUP9 SWAP6 DUP7 SWAP5 PUSH4 0xC35C997 PUSH1 0xE2 SHL DUP7 MSTORE DUP6 ADD MSTORE PUSH1 0x24 DUP5 ADD MSTORE GAS CALL SWAP1 DUP2 ISZERO PUSH2 0x1177 JUMPI POP PUSH2 0x1167 JUMPI POP RETURN JUMPDEST DUP6 DUP1 REVERT JUMPDEST DUP4 MLOAD PUSH3 0x461BCD PUSH1 0xE5 SHL DUP2 MSTORE DUP1 DUP5 ADD DUP9 SWAP1 MSTORE PUSH1 0xE PUSH1 0x24 DUP3 ADD MSTORE PUSH14 0x416C726561647920616374697665 PUSH1 0x90 SHL PUSH1 0x44 DUP3 ADD MSTORE PUSH1 0x64 SWAP1 REVERT JUMPDEST DUP4 MLOAD PUSH3 0x461BCD PUSH1 0xE5 SHL DUP2 MSTORE DUP1 DUP5 ADD DUP9 SWAP1 MSTORE PUSH1 0x13 PUSH1 0x24 DUP3 ADD MSTORE PUSH19 0x15D85CC81B995D995C8818481CDD589A9958DD PUSH1 0x6A SHL PUSH1 0x44 DUP3 ADD MSTORE PUSH1 0x64 SWAP1 REVERT JUMPDEST PUSH2 0x1314 SWAP2 POP DUP11 RETURNDATASIZE DUP13 GT PUSH2 0xD7B JUMPI PUSH2 0xD6D DUP2 DUP4 PUSH2 0x3ED8 JUMP JUMPDEST DUP6 MLOAD RETURNDATASIZE DUP10 DUP3 RETURNDATACOPY RETURNDATASIZE SWAP1 REVERT JUMPDEST PUSH2 0x133B SWAP2 POP DUP11 RETURNDATASIZE DUP13 GT PUSH2 0xD7B JUMPI PUSH2 0xD6D DUP2 DUP4 PUSH2 0x3ED8 JUMP JUMPDEST DUP7 MLOAD RETURNDATASIZE DUP11 DUP3 RETURNDATACOPY RETURNDATASIZE SWAP1 REVERT JUMPDEST DUP4 DUP6 CALLVALUE PUSH2 0x400 JUMPI PUSH2 0x190B CALLDATASIZE PUSH2 0x3DF8 JUMP JUMPDEST SWAP3 SWAP1 DUP2 MSTORE PUSH1 0x7 PUSH1 0x20 MSTORE DUP2 DUP2 KECCAK256 SWAP1 DUP2 SLOAD DUP5 LT ISZERO PUSH2 0x497 JUMPI POP PUSH1 0x20 SWAP3 PUSH2 0x14C1 SWAP2 PUSH2 0x3FDC JUMP JUMPDEST DUP4 DUP6 CALLVALUE PUSH2 0x400 JUMPI DUP1 PUSH1 0x20 SWAP3 PUSH2 0x1942 CALLDATASIZE PUSH2 0x3DF8 JUMP JUMPDEST SWAP1 DUP3 MSTORE PUSH1 0xF DUP6 MSTORE DUP3 DUP3 KECCAK256 SWAP1 DUP3 MSTORE DUP5 MSTORE KECCAK256 SLOAD SWAP1 MLOAD SWAP1 DUP2 MSTORE RETURN JUMPDEST DUP4 DUP6 CALLVALUE PUSH2 0x400 JUMPI DUP1 PUSH1 0x20 SWAP3 PUSH2 0x196E CALLDATASIZE PUSH2 0x3DF8 JUMP JUMPDEST SWAP1 DUP3 MSTORE PUSH1 0x11 DUP6 MSTORE DUP3 DUP3 KECCAK256 SWAP1 DUP3 MSTORE DUP5 MSTORE KECCAK256 SLOAD SWAP1 MLOAD SWAP1 DUP2 MSTORE RETURN JUMPDEST DUP4 DUP6 DUP5 CALLVALUE PUSH2 0x3FC JUMPI DUP2 PUSH1 0x3 NOT CALLDATASIZE ADD SLT PUSH2 0x3FC JUMPI DUP1 CALLDATALOAD SWAP1 PUSH1 0xFF PUSH2 0x19A6 PUSH2 0x3E2C JUMP JUMPDEST AND SWAP3 PUSH1 0x1 DUP5 LT ISZERO DUP1 PUSH2 0x1BD6 JUMPI JUMPDEST PUSH2 0x19BC SWAP1 PUSH2 0x47B6 JUMP JUMPDEST DUP5 SLOAD DUP2 MLOAD PUSH3 0xB0C809 PUSH1 0xE0 SHL DUP2 MSTORE CALLER DUP5 DUP3 ADD MSTORE SWAP5 SWAP1 PUSH1 0x20 SWAP1 DUP2 SWAP1 DUP8 SWAP1 PUSH1 0x24 SWAP1 DUP3 SWAP1 PUSH1 0x1 PUSH1 0x1 PUSH1 0xA0 SHL SUB AND GAS STATICCALL SWAP6 DUP7 ISZERO PUSH2 0x1BCC JUMPI DUP8 SWAP7 PUSH2 0x1B9D JUMPI JUMPDEST POP PUSH2 0x1A01 DUP7 ISZERO ISZERO PUSH2 0x42D3 JUMP JUMPDEST DUP5 DUP8 MSTORE PUSH1 0xB DUP2 MSTORE DUP3 DUP8 KECCAK256 DUP7 DUP9 MSTORE DUP2 MSTORE PUSH1 0xFF DUP4 DUP9 KECCAK256 SLOAD AND ISZERO PUSH2 0x1B5B JUMPI DUP5 DUP8 MSTORE PUSH1 0xC DUP2 MSTORE DUP3 DUP8 KECCAK256 DUP7 DUP9 MSTORE DUP2 MSTORE PUSH2 0x1A41 DUP4 DUP9 KECCAK256 SLOAD DUP7 DUP10 MSTORE PUSH1 0xA DUP4 MSTORE DUP5 DUP10 KECCAK256 PUSH2 0x40F8 JUMP JUMPDEST POP PUSH1 0xFF DUP6 DUP3 ADD SLOAD AND ISZERO PUSH2 0x1B18 JUMPI PUSH1 0x2 ADD PUSH1 0xFF DUP2 SLOAD AND SWAP5 PUSH2 0x1A60 DUP5 PUSH2 0x3E0E JUMP JUMPDEST PUSH2 0x1A69 DUP5 PUSH2 0x3E0E JUMP JUMPDEST PUSH2 0x1A72 DUP7 PUSH2 0x3E0E JUMP JUMPDEST DUP4 DUP7 EQ PUSH2 0x1AE0 JUMPI POP SWAP2 PUSH1 0x60 SWAP4 SWAP2 PUSH2 0x1AB4 DUP3 PUSH32 0x2CEAF6828EE12B3A0561FE551F858011031C9F47CF65D027F4462777E3C63A8D SWAP8 SWAP6 PUSH2 0x1AAF DUP3 PUSH2 0x3E0E JUMP JUMPDEST PUSH2 0x4317 JUMP JUMPDEST PUSH2 0x1ABD DUP3 PUSH2 0x3E0E JUMP JUMPDEST DUP3 MLOAD SWAP4 PUSH2 0x1AC9 DUP2 PUSH2 0x3E0E JUMP JUMPDEST DUP5 MSTORE PUSH2 0x1AD4 DUP3 PUSH2 0x3E0E JUMP JUMPDEST DUP4 ADD MSTORE TIMESTAMP SWAP1 DUP3 ADD MSTORE LOG3 DUP1 RETURN JUMPDEST DUP5 MLOAD PUSH3 0x461BCD PUSH1 0xE5 SHL DUP2 MSTORE SWAP1 DUP2 ADD DUP4 SWAP1 MSTORE PUSH1 0x12 PUSH1 0x24 DUP3 ADD MSTORE PUSH18 0x105B1C9958591E481D1A1A5CC81B195D995B PUSH1 0x72 SHL PUSH1 0x44 DUP3 ADD MSTORE PUSH1 0x64 SWAP1 REVERT JUMPDEST DUP4 MLOAD PUSH3 0x461BCD PUSH1 0xE5 SHL DUP2 MSTORE DUP1 DUP7 ADD DUP4 SWAP1 MSTORE PUSH1 0x1F PUSH1 0x24 DUP3 ADD MSTORE PUSH32 0x566572696669636174696F6E20686173206265656E2072657472616374656400 PUSH1 0x44 DUP3 ADD MSTORE PUSH1 0x64 SWAP1 REVERT JUMPDEST DUP4 PUSH1 0x64 SWAP2 DUP5 MLOAD SWAP2 PUSH3 0x461BCD PUSH1 0xE5 SHL DUP4 MSTORE DUP3 ADD MSTORE PUSH1 0x19 PUSH1 0x24 DUP3 ADD MSTORE PUSH32 0x4E6F20766572696669636174696F6E20746F206D6F6469667900000000000000 PUSH1 0x44 DUP3 ADD MSTORE REVERT JUMPDEST SWAP1 DUP1 SWAP7 POP DUP2 DUP2 RETURNDATASIZE DUP4 GT PUSH2 0x1BC5 JUMPI JUMPDEST PUSH2 0x1BB5 DUP2 DUP4 PUSH2 0x3ED8 JUMP JUMPDEST DUP2 ADD SUB SLT PUSH2 0x882 JUMPI MLOAD SWAP5 DUP8 PUSH2 0x19F5 JUMP JUMPDEST POP RETURNDATASIZE PUSH2 0x1BAB JUMP JUMPDEST DUP4 MLOAD RETURNDATASIZE DUP10 DUP3 RETURNDATACOPY RETURNDATASIZE SWAP1 REVERT JUMPDEST POP PUSH1 0x3 DUP5 GT ISZERO PUSH2 0x19B3 JUMP JUMPDEST POP POP CALLVALUE PUSH2 0x400 JUMPI PUSH1 0x20 SWAP1 DUP2 PUSH1 0x3 NOT CALLDATASIZE ADD SLT PUSH2 0x3FC JUMPI CALLDATALOAD SWAP2 DUP3 DUP2 MSTORE PUSH1 0x2 DUP3 MSTORE DUP4 DUP2 KECCAK256 DUP5 MLOAD DUP1 DUP3 DUP6 DUP3 SWAP5 SLOAD SWAP4 DUP5 DUP2 MSTORE ADD SWAP1 DUP6 MSTORE DUP6 DUP6 KECCAK256 SWAP3 DUP6 JUMPDEST DUP8 DUP3 DUP3 LT PUSH2 0x1D16 JUMPI POP POP POP PUSH2 0x1C2F SWAP3 POP SUB DUP3 PUSH2 0x3ED8 JUMP JUMPDEST DUP2 SWAP3 DUP3 JUMPDEST DUP3 MLOAD DUP2 LT ISZERO PUSH2 0x1C7D JUMPI DUP6 DUP5 MSTORE PUSH1 0x5 DUP3 MSTORE DUP7 DUP5 KECCAK256 PUSH2 0x1C50 DUP3 DUP6 PUSH2 0x4366 JUMP JUMPDEST MLOAD DUP6 MSTORE DUP3 MSTORE PUSH1 0xFF DUP8 DUP6 KECCAK256 SLOAD AND PUSH2 0x1C69 JUMPI JUMPDEST PUSH1 0x1 ADD PUSH2 0x1C33 JUMP JUMPDEST SWAP4 PUSH2 0x1C75 PUSH1 0x1 SWAP2 PUSH2 0x414A JUMP JUMPDEST SWAP5 SWAP1 POP PUSH2 0x1C61 JUMP JUMPDEST POP SWAP2 PUSH2 0x1C88 DUP5 PUSH2 0x434E JUMP JUMPDEST SWAP4 PUSH2 0x1C95 DUP8 MLOAD SWAP6 DUP7 PUSH2 0x3ED8 JUMP JUMPDEST DUP1 DUP6 MSTORE PUSH2 0x1CA4 PUSH1 0x1F NOT SWAP2 PUSH2 0x434E JUMP JUMPDEST ADD CALLDATASIZE DUP5 DUP7 ADD CALLDATACOPY DUP1 SWAP3 DUP2 JUMPDEST DUP4 MLOAD DUP2 LT ISZERO PUSH2 0x1D09 JUMPI PUSH1 0x1 SWAP1 DUP8 DUP5 MSTORE PUSH1 0x5 DUP4 MSTORE DUP9 DUP5 KECCAK256 PUSH2 0x1CCE DUP3 DUP8 PUSH2 0x4366 JUMP JUMPDEST MLOAD DUP6 MSTORE DUP4 MSTORE PUSH1 0xFF DUP10 DUP6 KECCAK256 SLOAD AND PUSH2 0x1CE5 JUMPI JUMPDEST ADD PUSH2 0x1CAE JUMP JUMPDEST PUSH2 0x1CEF DUP2 DUP7 PUSH2 0x4366 JUMP JUMPDEST MLOAD PUSH2 0x1D03 PUSH2 0x1CFC DUP9 PUSH2 0x414A JUMP JUMPDEST SWAP8 DUP10 PUSH2 0x4366 JUMP JUMPDEST MSTORE PUSH2 0x1CDF JUMP JUMPDEST DUP8 MLOAD DUP1 PUSH2 0x4F5 DUP9 DUP3 PUSH2 0x3FA1 JUMP JUMPDEST DUP6 SLOAD DUP5 MSTORE PUSH1 0x1 SWAP6 DUP7 ADD SWAP6 DUP8 SWAP6 POP SWAP4 ADD SWAP3 ADD PUSH2 0x1C18 JUMP JUMPDEST POP POP CALLVALUE PUSH2 0x400 JUMPI PUSH1 0x20 CALLDATASIZE PUSH1 0x3 NOT ADD SLT PUSH2 0x400 JUMPI DUP1 CALLDATALOAD SWAP1 DUP2 DUP4 MSTORE PUSH1 0x8 PUSH1 0x20 MSTORE PUSH1 0xFF DUP5 DUP5 KECCAK256 SLOAD AND ISZERO PUSH2 0x1D6B JUMPI PUSH1 0x20 DUP5 DUP1 DUP6 DUP6 DUP2 MSTORE PUSH1 0x6 DUP5 MSTORE KECCAK256 SLOAD SWAP1 MLOAD SWAP1 DUP2 MSTORE RETURN JUMPDEST PUSH1 0x64 SWAP1 PUSH1 0x20 DUP6 MLOAD SWAP2 PUSH3 0x461BCD PUSH1 0xE5 SHL DUP4 MSTORE DUP3 ADD MSTORE PUSH1 0x13 PUSH1 0x24 DUP3 ADD MSTORE PUSH19 0x12185CDA08191BD95CC81B9BDD08195E1A5CDD PUSH1 0x6A SHL PUSH1 0x44 DUP3 ADD MSTORE REVERT JUMPDEST DUP3 DUP6 DUP6 CALLVALUE PUSH2 0x497 JUMPI PUSH1 0x60 CALLDATASIZE PUSH1 0x3 NOT ADD SLT PUSH2 0x497 JUMPI DUP3 CALLDATALOAD PUSH1 0x24 CALLDATALOAD PUSH2 0x1DC5 PUSH2 0x3E3C JUMP JUMPDEST SWAP2 PUSH1 0x1 DUP1 PUSH1 0xA0 SHL SUB DUP5 SLOAD AND SWAP6 DUP6 MLOAD PUSH4 0x45ECD02F PUSH1 0xE0 SHL DUP2 MSTORE CALLER DUP3 DUP3 ADD MSTORE PUSH1 0x20 SWAP1 DUP2 DUP2 PUSH1 0x24 DUP2 DUP13 GAS STATICCALL SWAP1 DUP2 ISZERO PUSH2 0x1FCE JUMPI SWAP1 PUSH2 0x1E05 SWAP2 DUP9 SWAP2 PUSH2 0x2001 JUMPI POP PUSH2 0x4392 JUMP JUMPDEST DUP7 MLOAD PUSH4 0x64461AFF PUSH1 0xE1 SHL DUP2 MSTORE DUP3 DUP2 ADD DUP5 DUP2 MSTORE CALLER PUSH1 0x20 DUP3 ADD MSTORE DUP3 SWAP1 DUP3 SWAP1 DUP2 SWAP1 PUSH1 0x40 ADD SUB DUP2 DUP13 GAS STATICCALL SWAP1 DUP2 ISZERO PUSH2 0x1FCE JUMPI SWAP9 PUSH2 0x1E4A DUP4 SWAP3 DUP10 SWAP11 SWAP12 PUSH1 0x24 SWAP10 SWAP11 SWAP2 PUSH2 0x1FE4 JUMPI POP PUSH2 0x43D5 JUMP JUMPDEST PUSH2 0x1E55 DUP6 ISZERO ISZERO PUSH2 0x4421 JUMP JUMPDEST PUSH2 0x1E60 DUP7 ISZERO ISZERO PUSH2 0x446D JUMP JUMPDEST PUSH2 0x1E79 PUSH1 0xFF DUP10 AND PUSH1 0x1 DUP2 LT ISZERO SWAP1 DUP2 PUSH2 0x1FD8 JUMPI JUMPDEST POP PUSH2 0x47B6 JUMP JUMPDEST DUP10 MLOAD PUSH3 0xB0C809 PUSH1 0xE0 SHL DUP2 MSTORE CALLER DUP6 DUP3 ADD MSTORE SWAP7 DUP8 SWAP2 DUP3 SWAP1 GAS STATICCALL SWAP5 DUP6 ISZERO PUSH2 0x1FCE JUMPI DUP8 SWAP6 PUSH2 0x1F9F JUMPI JUMPDEST POP PUSH2 0x1EAA DUP6 ISZERO ISZERO PUSH2 0x42D3 JUMP JUMPDEST DUP4 DUP8 MSTORE PUSH1 0x6 DUP2 MSTORE PUSH2 0x1EBF DUP4 DUP10 DUP10 KECCAK256 SLOAD EQ PUSH2 0x44B9 JUMP JUMPDEST DUP4 DUP8 MSTORE PUSH1 0xB DUP2 MSTORE DUP8 DUP8 KECCAK256 DUP6 DUP9 MSTORE DUP2 MSTORE PUSH1 0xFF DUP9 DUP9 KECCAK256 SLOAD AND PUSH2 0x1F5D JUMPI DUP4 DUP8 MSTORE PUSH1 0xE DUP2 MSTORE DUP8 DUP8 KECCAK256 DUP6 DUP9 MSTORE DUP2 MSTORE PUSH1 0xFF DUP9 DUP9 KECCAK256 SLOAD AND PUSH2 0x1F03 JUMPI POP POP PUSH2 0x1F00 SWAP5 SWAP6 POP PUSH2 0x4934 JUMP JUMPDEST DUP1 RETURN JUMPDEST DUP8 MLOAD PUSH3 0x461BCD PUSH1 0xE5 SHL DUP2 MSTORE SWAP2 DUP3 ADD MSTORE PUSH1 0x2F PUSH1 0x24 DUP3 ADD MSTORE PUSH32 0x43616E6E6F74207665726966792061206861736820796F752061726520616374 PUSH1 0x44 DUP3 ADD MSTORE PUSH15 0x6976656C7920646973707574696E67 PUSH1 0x88 SHL PUSH1 0x64 DUP3 ADD MSTORE PUSH1 0x84 SWAP2 POP REVERT JUMPDEST DUP8 MLOAD PUSH3 0x461BCD PUSH1 0xE5 SHL DUP2 MSTORE SWAP2 DUP3 ADD MSTORE PUSH1 0x1A PUSH1 0x24 DUP3 ADD MSTORE PUSH32 0x416C726561647920766572696669656420746869732068617368000000000000 PUSH1 0x44 DUP3 ADD MSTORE PUSH1 0x64 SWAP2 POP REVERT JUMPDEST SWAP1 DUP1 SWAP6 POP DUP2 DUP2 RETURNDATASIZE DUP4 GT PUSH2 0x1FC7 JUMPI JUMPDEST PUSH2 0x1FB7 DUP2 DUP4 PUSH2 0x3ED8 JUMP JUMPDEST DUP2 ADD SUB SLT PUSH2 0x882 JUMPI MLOAD SWAP4 DUP9 PUSH2 0x1E9E JUMP JUMPDEST POP RETURNDATASIZE PUSH2 0x1FAD JUMP JUMPDEST DUP9 MLOAD RETURNDATASIZE DUP10 DUP3 RETURNDATACOPY RETURNDATASIZE SWAP1 REVERT JUMPDEST PUSH1 0x3 SWAP2 POP GT ISZERO DUP13 PUSH2 0x1E73 JUMP JUMPDEST PUSH2 0x1FFB SWAP2 POP DUP5 RETURNDATASIZE DUP7 GT PUSH2 0xD7B JUMPI PUSH2 0xD6D DUP2 DUP4 PUSH2 0x3ED8 JUMP JUMPDEST DUP13 PUSH2 0xBE5 JUMP JUMPDEST PUSH2 0x2018 SWAP2 POP DUP4 RETURNDATASIZE DUP6 GT PUSH2 0xD7B JUMPI PUSH2 0xD6D DUP2 DUP4 PUSH2 0x3ED8 JUMP JUMPDEST DUP11 PUSH2 0xBA6 JUMP JUMPDEST DUP4 DUP6 CALLVALUE PUSH2 0x400 JUMPI PUSH1 0xFF DUP2 PUSH1 0x20 SWAP4 PUSH2 0x2034 CALLDATASIZE PUSH2 0x3DF8 JUMP JUMPDEST SWAP1 DUP3 MSTORE PUSH1 0xE DUP7 MSTORE DUP3 DUP3 KECCAK256 SWAP1 DUP3 MSTORE DUP6 MSTORE KECCAK256 SLOAD AND SWAP1 MLOAD SWAP1 ISZERO ISZERO DUP2 MSTORE RETURN JUMPDEST DUP4 DUP6 CALLVALUE PUSH2 0x400 JUMPI PUSH1 0x20 CALLDATASIZE PUSH1 0x3 NOT ADD SLT PUSH2 0x400 JUMPI PUSH1 0x20 SWAP1 PUSH2 0x206D PUSH2 0x3F8B JUMP JUMPDEST PUSH1 0x1 SLOAD SWAP2 SWAP1 PUSH1 0x1 PUSH1 0x1 PUSH1 0xA0 SHL SUB DUP1 DUP5 AND SWAP2 PUSH32 0x38DF5FA0F7FEF0D515CA1F5388CB5790AC5885D5FCA8D05D9F943E563C33A4B3 SWAP2 SWAP1 PUSH2 0x20AC CALLER DUP6 EQ PUSH2 0x4111 JUMP JUMPDEST AND SWAP5 DUP6 SWAP4 PUSH2 0x20BB DUP6 ISZERO ISZERO PUSH2 0x4778 JUMP JUMPDEST MLOAD TIMESTAMP DUP2 MSTORE LOG3 PUSH1 0x1 PUSH1 0x1 PUSH1 0xA0 SHL SUB NOT AND OR PUSH1 0x1 SSTORE DUP1 RETURN JUMPDEST DUP4 DUP6 CALLVALUE PUSH2 0x400 JUMPI DUP1 PUSH1 0x20 SWAP3 PUSH2 0x20E5 CALLDATASIZE PUSH2 0x3DF8 JUMP JUMPDEST SWAP1 DUP3 MSTORE PUSH1 0xC DUP6 MSTORE DUP3 DUP3 KECCAK256 SWAP1 DUP3 MSTORE DUP5 MSTORE KECCAK256 SLOAD SWAP1 MLOAD SWAP1 DUP2 MSTORE RETURN JUMPDEST POP POP SWAP2 CALLVALUE PUSH2 0x400 JUMPI PUSH2 0x210E CALLDATASIZE PUSH2 0x3DF8 JUMP JUMPDEST SWAP1 PUSH2 0x2124 PUSH1 0x1 DUP1 PUSH1 0xA0 SHL SUB PUSH1 0x1 SLOAD AND CALLER EQ PUSH2 0x4111 JUMP JUMPDEST DUP1 DUP5 MSTORE PUSH1 0x20 PUSH1 0x11 DUP2 MSTORE DUP4 DUP6 KECCAK256 DUP4 DUP7 MSTORE DUP2 MSTORE DUP4 DUP6 KECCAK256 SLOAD SWAP4 DUP5 ISZERO PUSH2 0x221D JUMPI PUSH0 NOT SWAP5 DUP1 DUP7 ADD SWAP1 DUP2 GT PUSH2 0x220A JUMPI PUSH2 0x2160 SWAP1 DUP5 DUP9 MSTORE PUSH1 0x10 DUP5 MSTORE DUP3 DUP9 KECCAK256 PUSH2 0x40F8 JUMP JUMPDEST POP SWAP5 DUP8 DUP7 ADD DUP1 SLOAD SWAP7 PUSH1 0xFF DUP9 AND ISZERO PUSH2 0x21D0 JUMPI PUSH1 0x1 ADD SLOAD SWAP7 PUSH1 0xFF NOT AND SWAP1 SSTORE DUP4 DUP8 MSTORE PUSH1 0x12 DUP4 MSTORE DUP2 DUP8 KECCAK256 SWAP1 DUP2 SLOAD DUP1 ISZERO PUSH2 0x21BD JUMPI ADD SWAP1 SSTORE MLOAD TIMESTAMP DUP2 MSTORE PUSH32 0x147D74BFB2412C7ED232EABEB9F52EC3783A909E5C2A94B9DA2AF7F2BDB18AE6 SWAP2 SWAP1 LOG4 DUP1 RETURN JUMPDEST PUSH4 0x4E487B71 PUSH1 0xE0 SHL DUP10 MSTORE PUSH1 0x11 DUP11 MSTORE PUSH1 0x24 DUP10 REVERT JUMPDEST DUP4 MLOAD PUSH3 0x461BCD PUSH1 0xE5 SHL DUP2 MSTORE DUP1 DUP12 ADD DUP7 SWAP1 MSTORE PUSH1 0x14 PUSH1 0x24 DUP3 ADD MSTORE PUSH20 0x119B1859C8185B1C9958591E481C995D9BDAD959 PUSH1 0x62 SHL PUSH1 0x44 DUP3 ADD MSTORE PUSH1 0x64 SWAP1 REVERT JUMPDEST PUSH4 0x4E487B71 PUSH1 0xE0 SHL DUP8 MSTORE PUSH1 0x11 DUP9 MSTORE PUSH1 0x24 DUP8 REVERT JUMPDEST MLOAD PUSH3 0x461BCD PUSH1 0xE5 SHL DUP2 MSTORE DUP1 DUP8 ADD SWAP2 SWAP1 SWAP2 MSTORE PUSH1 0xE PUSH1 0x24 DUP3 ADD MSTORE PUSH14 0x4E6F20666C616720657869737473 PUSH1 0x90 SHL PUSH1 0x44 DUP3 ADD MSTORE PUSH1 0x64 SWAP1 REVERT JUMPDEST DUP4 DUP6 CALLVALUE PUSH2 0x400 JUMPI SWAP1 PUSH1 0x20 SWAP2 PUSH2 0x2265 CALLDATASIZE PUSH2 0x3DF8 JUMP JUMPDEST SWAP2 SWAP1 SWAP3 DUP4 DUP2 MSTORE PUSH1 0x3 DUP6 MSTORE DUP2 DUP2 KECCAK256 DUP4 DUP3 MSTORE DUP6 MSTORE PUSH1 0xFF DUP3 DUP3 KECCAK256 SLOAD AND SWAP3 DUP4 PUSH2 0x2290 JUMPI JUMPDEST DUP6 DUP5 DUP5 MLOAD SWAP1 ISZERO ISZERO DUP2 MSTORE RETURN JUMPDEST PUSH1 0xFF SWAP4 POP DUP3 SWAP5 DUP3 MSTORE PUSH1 0x5 DUP7 MSTORE DUP3 DUP3 KECCAK256 SWAP1 DUP3 MSTORE DUP6 MSTORE KECCAK256 SLOAD AND DUP2 DUP5 DUP1 PUSH2 0x2285 JUMP JUMPDEST DUP4 DUP6 DUP5 CALLVALUE PUSH2 0x3FC JUMPI PUSH1 0x20 CALLDATASIZE PUSH1 0x3 NOT ADD SLT PUSH2 0x3FC JUMPI PUSH1 0x20 SWAP3 DUP3 SWAP2 CALLDATALOAD DUP2 MSTORE PUSH1 0x12 DUP5 MSTORE KECCAK256 SLOAD ISZERO ISZERO SWAP1 MLOAD SWAP1 DUP2 MSTORE RETURN JUMPDEST POP POP SWAP1 CALLVALUE PUSH2 0x497 JUMPI PUSH2 0x22EB CALLDATASIZE PUSH2 0x3DF8 JUMP JUMPDEST DUP3 SLOAD DUP6 MLOAD PUSH4 0x45ECD02F PUSH1 0xE0 SHL DUP2 MSTORE CALLER DUP7 DUP3 ADD MSTORE SWAP3 SWAP6 SWAP2 SWAP4 PUSH1 0x20 SWAP4 SWAP1 SWAP2 PUSH1 0x1 PUSH1 0x1 PUSH1 0xA0 SHL SUB AND SWAP1 DUP5 DUP2 PUSH1 0x24 DUP2 DUP6 GAS STATICCALL SWAP1 DUP2 ISZERO PUSH2 0x2593 JUMPI SWAP1 PUSH2 0x2331 SWAP2 DUP5 SWAP2 PUSH2 0x257C JUMPI POP PUSH2 0x4392 JUMP JUMPDEST DUP3 MLOAD PUSH3 0x28CF15 PUSH1 0xE5 SHL DUP2 MSTORE DUP7 DUP2 ADD DUP9 DUP2 MSTORE CALLER PUSH1 0x20 DUP3 ADD MSTORE SWAP1 SWAP2 DUP6 SWAP2 DUP4 SWAP2 SWAP1 DUP3 SWAP1 DUP2 SWAP1 PUSH1 0x40 ADD SUB SWAP2 GAS STATICCALL SWAP1 DUP2 ISZERO PUSH2 0x2572 JUMPI DUP3 SWAP2 PUSH2 0x2555 JUMPI JUMPDEST POP ISZERO PUSH2 0x251C JUMPI DUP4 DUP2 MSTORE PUSH1 0x6 DUP4 MSTORE DUP6 DUP3 DUP3 KECCAK256 SLOAD SUB PUSH2 0x24E2 JUMPI DUP4 DUP2 MSTORE PUSH1 0x8 DUP1 DUP5 MSTORE PUSH1 0xFF SWAP4 PUSH2 0x2399 PUSH1 0xFF DUP6 DUP6 KECCAK256 SLOAD AND PUSH2 0x4738 JUMP JUMPDEST DUP3 SWAP6 DUP9 DUP5 MSTORE PUSH1 0x7 DUP3 MSTORE DUP5 DUP5 KECCAK256 SWAP9 DUP6 MLOAD DUP1 DUP12 DUP6 DUP3 SWAP14 SLOAD SWAP4 DUP5 DUP2 MSTORE ADD SWAP1 DUP9 MSTORE DUP6 DUP9 KECCAK256 SWAP3 DUP9 JUMPDEST DUP8 DUP3 DUP3 LT PUSH2 0x24C6 JUMPI POP POP POP PUSH2 0x23D3 SWAP3 POP SUB DUP12 PUSH2 0x3ED8 JUMP JUMPDEST DUP5 JUMPDEST DUP11 MLOAD DUP2 LT ISZERO PUSH2 0x2415 JUMPI PUSH2 0x23E8 DUP2 DUP13 PUSH2 0x4366 JUMP JUMPDEST MLOAD DUP7 MSTORE DUP5 DUP5 MSTORE DUP8 DUP8 DUP8 KECCAK256 SLOAD AND PUSH2 0x2401 JUMPI JUMPDEST PUSH1 0x1 ADD PUSH2 0x23D5 JUMP JUMPDEST SWAP8 PUSH2 0x240D PUSH1 0x1 SWAP2 PUSH2 0x414A JUMP JUMPDEST SWAP9 SWAP1 POP PUSH2 0x23F9 JUMP JUMPDEST POP DUP5 SWAP3 DUP7 DUP11 PUSH1 0x1 DUP12 GT ISZERO PUSH2 0x246A JUMPI POP SWAP1 PUSH32 0x6640C4CAE266BFAFEE4B79AE3B57E1391D8CF826D2B9781AA698E99CA7157C7E SWAP2 DUP5 DUP7 MSTORE PUSH1 0x8 DUP3 MSTORE DUP1 DUP7 KECCAK256 PUSH1 0xFF NOT DUP2 SLOAD AND SWAP1 SSTORE PUSH1 0x6 DUP3 MSTORE PUSH0 DUP2 DUP8 KECCAK256 SSTORE MLOAD TIMESTAMP DUP2 MSTORE LOG3 DUP1 RETURN JUMPDEST DUP3 PUSH1 0x84 SWAP3 MLOAD SWAP2 PUSH3 0x461BCD PUSH1 0xE5 SHL DUP4 MSTORE DUP3 ADD MSTORE PUSH1 0x32 PUSH1 0x24 DUP3 ADD MSTORE PUSH32 0x43616E6E6F74207265747261637420746865206C617374206163746976652076 PUSH1 0x44 DUP3 ADD MSTORE PUSH18 0x195C9CDA5BDB881BD98818481C9958DBDC99 PUSH1 0x72 SHL PUSH1 0x64 DUP3 ADD MSTORE REVERT JUMPDEST PUSH1 0x1 SWAP3 SWAP5 POP DUP3 SWAP2 SWAP4 DUP7 SLOAD DUP2 MSTORE ADD SWAP5 ADD SWAP2 ADD SWAP2 DUP14 SWAP3 SWAP4 SWAP2 SWAP4 PUSH2 0x23BC JUMP JUMPDEST DUP2 MLOAD PUSH3 0x461BCD PUSH1 0xE5 SHL DUP2 MSTORE DUP1 DUP7 ADD DUP5 SWAP1 MSTORE PUSH1 0x14 PUSH1 0x24 DUP3 ADD MSTORE PUSH20 0x90C2E6D05AA4CAC6DEE4C840DAD2E6DAC2E8C6D PUSH1 0x63 SHL PUSH1 0x44 DUP3 ADD MSTORE PUSH1 0x64 SWAP1 REVERT JUMPDEST DUP2 MLOAD PUSH3 0x461BCD PUSH1 0xE5 SHL DUP2 MSTORE DUP1 DUP7 ADD DUP5 SWAP1 MSTORE PUSH1 0x13 PUSH1 0x24 DUP3 ADD MSTORE PUSH19 0x27B7363C9037BBB732B91037B91030B236B4B7 PUSH1 0x69 SHL PUSH1 0x44 DUP3 ADD MSTORE PUSH1 0x64 SWAP1 REVERT JUMPDEST PUSH2 0x256C SWAP2 POP DUP5 RETURNDATASIZE DUP7 GT PUSH2 0xD7B JUMPI PUSH2 0xD6D DUP2 DUP4 PUSH2 0x3ED8 JUMP JUMPDEST PUSH0 PUSH2 0x2368 JUMP JUMPDEST DUP4 MLOAD RETURNDATASIZE DUP5 DUP3 RETURNDATACOPY RETURNDATASIZE SWAP1 REVERT JUMPDEST PUSH2 0x133B SWAP2 POP DUP7 RETURNDATASIZE DUP9 GT PUSH2 0xD7B JUMPI PUSH2 0xD6D DUP2 DUP4 PUSH2 0x3ED8 JUMP JUMPDEST DUP5 MLOAD RETURNDATASIZE DUP6 DUP3 RETURNDATACOPY RETURNDATASIZE SWAP1 REVERT JUMPDEST DUP3 DUP6 DUP6 CALLVALUE PUSH2 0x497 JUMPI DUP1 PUSH1 0x3 NOT CALLDATASIZE ADD SLT PUSH2 0x497 JUMPI POP PUSH32 0x0 PUSH1 0x1 PUSH1 0x1 PUSH1 0xA0 SHL SUB AND ADDRESS SUB PUSH2 0x260A JUMPI PUSH1 0x20 SWAP1 MLOAD PUSH32 0x360894A13BA1A3210667C828492DB98DCA3E2076CC3735A920A3CA505D382BBC DUP2 MSTORE RETURN JUMPDEST MLOAD PUSH4 0x703E46DD PUSH1 0xE1 SHL DUP2 MSTORE REVERT JUMPDEST DUP4 DUP6 DUP5 CALLVALUE PUSH2 0x3FC JUMPI PUSH1 0x20 CALLDATASIZE PUSH1 0x3 NOT ADD SLT PUSH2 0x3FC JUMPI PUSH1 0x20 SWAP3 DUP3 SWAP2 CALLDATALOAD DUP2 MSTORE PUSH1 0x6 DUP5 MSTORE KECCAK256 SLOAD SWAP1 MLOAD SWAP1 DUP2 MSTORE RETURN JUMPDEST POP POP SWAP1 DUP3 PUSH1 0x3 NOT CALLDATASIZE ADD SLT PUSH2 0x497 JUMPI PUSH2 0x2656 PUSH2 0x3F8B JUMP JUMPDEST SWAP3 PUSH1 0x24 CALLDATALOAD PUSH8 0xFFFFFFFFFFFFFFFF DUP2 GT PUSH2 0x3FC JUMPI CALLDATASIZE PUSH1 0x23 DUP3 ADD SLT ISZERO PUSH2 0x3FC JUMPI PUSH2 0x2687 SWAP1 CALLDATASIZE SWAP1 PUSH1 0x24 DUP2 DUP8 ADD CALLDATALOAD SWAP2 ADD PUSH2 0x3EFA JUMP JUMPDEST SWAP2 PUSH1 0x1 PUSH1 0x1 PUSH1 0xA0 SHL SUB PUSH32 0x0 DUP2 AND ADDRESS DUP2 EQ SWAP1 DUP2 ISZERO PUSH2 0x281B JUMPI JUMPDEST POP PUSH2 0x280B JUMPI PUSH2 0x26D2 DUP2 PUSH1 0x1 SLOAD AND CALLER EQ PUSH2 0x4111 JUMP JUMPDEST DUP6 AND SWAP3 DUP3 MLOAD SWAP6 PUSH4 0x52D1902D PUSH1 0xE0 SHL DUP8 MSTORE PUSH1 0x20 DUP8 DUP8 DUP2 DUP9 GAS STATICCALL DUP1 SWAP8 DUP5 SWAP9 PUSH2 0x27D7 JUMPI JUMPDEST POP PUSH2 0x270F JUMPI DUP4 MLOAD PUSH4 0x4C9C8CE3 PUSH1 0xE0 SHL DUP2 MSTORE DUP1 DUP8 ADD DUP7 SWAP1 MSTORE PUSH1 0x24 SWAP1 REVERT JUMPDEST SWAP3 SWAP1 SWAP4 SWAP2 SWAP6 PUSH32 0x360894A13BA1A3210667C828492DB98DCA3E2076CC3735A920A3CA505D382BBC SWAP1 DUP2 DUP2 SUB PUSH2 0x27C1 JUMPI POP DUP4 EXTCODESIZE ISZERO PUSH2 0x27AA JUMPI DUP1 SLOAD PUSH1 0x1 PUSH1 0x1 PUSH1 0xA0 SHL SUB NOT AND DUP4 OR SWAP1 SSTORE MLOAD SWAP1 PUSH32 0xBC7CD75A20EE27FD9ADEBAB32041F755214DBC6BFFA90CC0225B39DA2E5C2D3B DUP7 DUP1 LOG2 DUP3 MLOAD ISZERO PUSH2 0x2791 JUMPI POP PUSH2 0x278D SWAP3 POP PUSH2 0x4B13 JUMP JUMPDEST POP DUP1 RETURN JUMPDEST SWAP2 POP POP CALLVALUE PUSH2 0x279E JUMPI POP POP DUP1 RETURN JUMPDEST PUSH4 0xB398979F PUSH1 0xE0 SHL DUP2 MSTORE REVERT JUMPDEST DUP2 MLOAD PUSH4 0x4C9C8CE3 PUSH1 0xE0 SHL DUP2 MSTORE DUP1 DUP8 ADD DUP5 SWAP1 MSTORE PUSH1 0x24 SWAP1 REVERT JUMPDEST DUP7 PUSH1 0x24 SWAP2 DUP5 MLOAD SWAP2 PUSH4 0x2A875269 PUSH1 0xE2 SHL DUP4 MSTORE DUP3 ADD MSTORE REVERT JUMPDEST SWAP1 SWAP8 POP PUSH1 0x20 DUP2 RETURNDATASIZE PUSH1 0x20 GT PUSH2 0x2803 JUMPI JUMPDEST DUP2 PUSH2 0x27F3 PUSH1 0x20 SWAP4 DUP4 PUSH2 0x3ED8 JUMP JUMPDEST DUP2 ADD SUB SLT PUSH2 0x882 JUMPI MLOAD SWAP7 PUSH0 PUSH2 0x26F3 JUMP JUMPDEST RETURNDATASIZE SWAP2 POP PUSH2 0x27E6 JUMP JUMPDEST DUP3 MLOAD PUSH4 0x703E46DD PUSH1 0xE1 SHL DUP2 MSTORE DUP6 SWAP1 REVERT JUMPDEST SWAP1 POP DUP2 PUSH32 0x360894A13BA1A3210667C828492DB98DCA3E2076CC3735A920A3CA505D382BBC SLOAD AND EQ ISZERO PUSH0 PUSH2 0x26BE JUMP JUMPDEST DUP4 DUP6 DUP5 CALLVALUE PUSH2 0x3FC JUMPI PUSH1 0x20 DUP1 PUSH1 0x3 NOT CALLDATASIZE ADD SLT PUSH2 0x510 JUMPI DUP4 SLOAD DUP4 MLOAD PUSH3 0xB0C809 PUSH1 0xE0 SHL DUP2 MSTORE CALLER DUP2 DUP6 ADD MSTORE SWAP4 DUP4 CALLDATALOAD SWAP4 SWAP1 SWAP2 DUP4 SWAP1 DUP7 SWAP1 PUSH1 0x24 SWAP1 DUP3 SWAP1 PUSH1 0x1 PUSH1 0x1 PUSH1 0xA0 SHL SUB AND GAS STATICCALL SWAP5 DUP6 ISZERO PUSH2 0x88D JUMPI DUP7 SWAP6 PUSH2 0x2990 JUMPI JUMPDEST POP PUSH2 0x28A4 DUP6 ISZERO ISZERO PUSH2 0x42D3 JUMP JUMPDEST DUP4 DUP7 MSTORE PUSH1 0xB DUP4 MSTORE DUP2 DUP7 KECCAK256 DUP6 DUP8 MSTORE DUP4 MSTORE PUSH1 0xFF DUP3 DUP8 KECCAK256 SLOAD AND ISZERO PUSH2 0x294F JUMPI SWAP1 PUSH32 0x7EC0E3CA85E47C77A1ED99FF37570AB8878CB21CED66BAEAD633BECFF47A8F0E SWAP3 SWAP2 DUP5 DUP8 MSTORE PUSH1 0xC DUP4 MSTORE DUP2 DUP8 KECCAK256 DUP7 DUP9 MSTORE DUP4 MSTORE PUSH2 0x2923 DUP3 PUSH2 0x2914 PUSH1 0xFF DUP5 PUSH2 0x7DD DUP13 DUP6 DUP2 KECCAK256 SLOAD SWAP6 DUP2 DUP14 DUP9 SWAP4 MSTORE PUSH1 0xA DUP13 MSTORE KECCAK256 PUSH2 0x40F8 JUMP JUMPDEST DUP7 DUP10 MSTORE PUSH1 0xA DUP6 MSTORE DUP4 DUP10 KECCAK256 PUSH2 0x40F8 JUMP JUMPDEST POP ADD PUSH1 0xFF NOT SWAP1 DUP2 DUP2 SLOAD AND SWAP1 SSTORE DUP5 DUP8 MSTORE PUSH1 0xB DUP4 MSTORE DUP2 DUP8 KECCAK256 DUP7 DUP9 MSTORE DUP4 MSTORE DUP2 DUP8 KECCAK256 SWAP1 DUP2 SLOAD AND SWAP1 SSTORE MLOAD TIMESTAMP DUP2 MSTORE LOG3 DUP1 RETURN JUMPDEST DUP3 PUSH1 0x64 SWAP3 MLOAD SWAP2 PUSH3 0x461BCD PUSH1 0xE5 SHL DUP4 MSTORE DUP3 ADD MSTORE PUSH1 0x1A PUSH1 0x24 DUP3 ADD MSTORE PUSH32 0x4E6F20766572696669636174696F6E20746F2072657472616374000000000000 PUSH1 0x44 DUP3 ADD MSTORE REVERT JUMPDEST SWAP1 SWAP5 POP DUP3 DUP2 DUP2 RETURNDATASIZE DUP4 GT PUSH2 0x29B8 JUMPI JUMPDEST PUSH2 0x29A8 DUP2 DUP4 PUSH2 0x3ED8 JUMP JUMPDEST DUP2 ADD SUB SLT PUSH2 0x882 JUMPI MLOAD SWAP4 DUP7 PUSH2 0x2898 JUMP JUMPDEST POP RETURNDATASIZE PUSH2 0x299E JUMP JUMPDEST POP POP DUP3 CALLVALUE PUSH2 0x882 JUMPI PUSH2 0x29D0 CALLDATASIZE PUSH2 0x3DF8 JUMP JUMPDEST PUSH0 SLOAD DUP4 MLOAD PUSH4 0x45ECD02F PUSH1 0xE0 SHL DUP2 MSTORE CALLER DUP2 DUP8 ADD MSTORE SWAP3 SWAP5 SWAP3 PUSH1 0x20 SWAP3 PUSH1 0x1 PUSH1 0x1 PUSH1 0xA0 SHL SUB SWAP3 SWAP1 SWAP2 SWAP1 DUP4 AND SWAP1 DUP5 DUP2 PUSH1 0x24 DUP2 DUP6 GAS STATICCALL SWAP1 DUP2 ISZERO PUSH2 0x2BE0 JUMPI SWAP1 PUSH2 0x2A18 SWAP2 PUSH0 SWAP2 PUSH2 0x2BC9 JUMPI POP PUSH2 0x4392 JUMP JUMPDEST DUP6 MLOAD PUSH4 0x64461AFF PUSH1 0xE1 SHL DUP2 MSTORE DUP6 DUP2 ADD DUP9 DUP2 MSTORE CALLER PUSH1 0x20 DUP3 ADD MSTORE SWAP1 SWAP2 DUP6 SWAP2 DUP4 SWAP2 SWAP1 DUP3 SWAP1 DUP2 SWAP1 PUSH1 0x40 ADD SUB SWAP2 GAS STATICCALL SWAP1 DUP2 ISZERO PUSH2 0x2BBF JUMPI PUSH2 0x2A5E SWAP3 SWAP2 PUSH2 0x178B SWAP2 PUSH0 SWAP2 PUSH2 0x2BA2 JUMPI POP PUSH2 0x43D5 JUMP JUMPDEST SWAP2 DUP6 PUSH0 MSTORE PUSH1 0x3 DUP2 MSTORE DUP5 PUSH0 KECCAK256 DUP4 PUSH0 MSTORE DUP2 MSTORE PUSH1 0xFF DUP6 PUSH0 KECCAK256 SLOAD AND ISZERO PUSH2 0x2B60 JUMPI DUP6 PUSH0 MSTORE PUSH1 0x5 DUP2 MSTORE DUP5 PUSH0 KECCAK256 DUP4 PUSH0 MSTORE DUP2 MSTORE PUSH1 0xFF DUP6 PUSH0 KECCAK256 SLOAD AND ISZERO PUSH2 0x2B29 JUMPI DUP6 PUSH32 0x8AEFA795CCFDF03E334BD6A4FE20E8C4F5D5202E0320DC267FDE988BD5F1674F DUP5 SWAP3 DUP3 PUSH0 MSTORE PUSH1 0x5 DUP2 MSTORE DUP8 PUSH0 KECCAK256 DUP5 PUSH0 MSTORE DUP2 MSTORE DUP8 PUSH0 KECCAK256 PUSH1 0xFF NOT DUP2 SLOAD AND SWAP1 SSTORE DUP8 MLOAD TIMESTAMP DUP2 MSTORE LOG3 PUSH0 SLOAD AND DUP1 EXTCODESIZE ISZERO PUSH2 0x882 JUMPI PUSH0 SWAP3 DUP4 PUSH1 0x44 SWAP3 DUP7 MLOAD SWAP8 DUP9 SWAP6 DUP7 SWAP5 PUSH4 0x37F7197D PUSH1 0xE1 SHL DUP7 MSTORE DUP6 ADD MSTORE PUSH1 0x24 DUP5 ADD MSTORE GAS CALL SWAP1 DUP2 ISZERO PUSH2 0x2B20 JUMPI POP PUSH2 0x2B14 JUMPI POP DUP1 RETURN JUMPDEST PUSH2 0x2B1E SWAP2 POP PUSH2 0x3EC4 JUMP JUMPDEST STOP JUMPDEST MLOAD RETURNDATASIZE PUSH0 DUP3 RETURNDATACOPY RETURNDATASIZE SWAP1 REVERT JUMPDEST DUP4 PUSH1 0x64 SWAP2 DUP7 MLOAD SWAP2 PUSH3 0x461BCD PUSH1 0xE5 SHL DUP4 MSTORE DUP3 ADD MSTORE PUSH1 0x12 PUSH1 0x24 DUP3 ADD MSTORE PUSH18 0x105B1C9958591E481D5B985B98DA1BDC9959 PUSH1 0x72 SHL PUSH1 0x44 DUP3 ADD MSTORE REVERT JUMPDEST DUP4 PUSH1 0x64 SWAP2 DUP7 MLOAD SWAP2 PUSH3 0x461BCD PUSH1 0xE5 SHL DUP4 MSTORE DUP3 ADD MSTORE PUSH1 0x1C PUSH1 0x24 DUP3 ADD MSTORE PUSH32 0x4E6F742061207375626A656374206F662074686973207265636F726400000000 PUSH1 0x44 DUP3 ADD MSTORE REVERT JUMPDEST PUSH2 0x2BB9 SWAP2 POP DUP7 RETURNDATASIZE DUP9 GT PUSH2 0xD7B JUMPI PUSH2 0xD6D DUP2 DUP4 PUSH2 0x3ED8 JUMP JUMPDEST DUP11 PUSH2 0xBE5 JUMP JUMPDEST DUP7 MLOAD RETURNDATASIZE PUSH0 DUP3 RETURNDATACOPY RETURNDATASIZE SWAP1 REVERT JUMPDEST PUSH2 0x2018 SWAP2 POP DUP7 RETURNDATASIZE DUP9 GT PUSH2 0xD7B JUMPI PUSH2 0xD6D DUP2 DUP4 PUSH2 0x3ED8 JUMP JUMPDEST DUP8 MLOAD RETURNDATASIZE PUSH0 DUP3 RETURNDATACOPY RETURNDATASIZE SWAP1 REVERT JUMPDEST DUP5 SWAP1 CALLVALUE PUSH2 0x882 JUMPI PUSH2 0x158E PUSH2 0x159C PUSH2 0x2C09 PUSH2 0x2C03 CALLDATASIZE PUSH2 0x3DF8 JUMP JUMPDEST SWAP1 PUSH2 0x4677 JUMP JUMPDEST SWAP7 SWAP6 SWAP9 SWAP4 SWAP1 SWAP8 SWAP3 SWAP2 SWAP5 SWAP10 DUP1 MLOAD SWAP11 DUP12 SWAP11 ISZERO ISZERO DUP12 MSTORE PUSH1 0x20 DUP12 ADD MSTORE PUSH2 0x2C2A DUP3 PUSH2 0x3E0E JUMP JUMPDEST DUP10 ADD MSTORE PUSH1 0x60 DUP9 ADD SWAP1 PUSH2 0x3F40 JUMP JUMPDEST DUP3 DUP6 CALLVALUE PUSH2 0x882 JUMPI PUSH1 0x20 CALLDATASIZE PUSH1 0x3 NOT ADD SLT PUSH2 0x882 JUMPI PUSH1 0x20 SWAP2 CALLDATALOAD PUSH0 MSTORE PUSH1 0x8 DUP3 MSTORE PUSH1 0xFF DUP2 PUSH0 KECCAK256 SLOAD AND SWAP1 MLOAD SWAP1 ISZERO ISZERO DUP2 MSTORE RETURN JUMPDEST DUP5 CALLVALUE PUSH2 0x882 JUMPI PUSH1 0xA0 SWAP1 PUSH2 0x2C7F PUSH2 0x2C79 CALLDATASIZE PUSH2 0x3DF8 JUMP JUMPDEST SWAP1 PUSH2 0x4601 JUMP JUMPDEST SWAP4 SWAP5 SWAP1 SWAP3 DUP2 MLOAD SWAP6 ISZERO ISZERO DUP7 MSTORE ISZERO ISZERO PUSH1 0x20 DUP7 ADD MSTORE DUP5 ADD MSTORE PUSH1 0x60 DUP4 ADD MSTORE PUSH1 0x80 DUP3 ADD MSTORE RETURN JUMPDEST DUP5 DUP4 CALLVALUE PUSH2 0x882 JUMPI PUSH1 0x20 CALLDATASIZE PUSH1 0x3 NOT ADD SLT PUSH2 0x882 JUMPI DUP1 CALLDATALOAD PUSH0 MSTORE PUSH1 0x13 PUSH1 0x20 MSTORE DUP2 PUSH0 KECCAK256 SWAP1 DUP3 MLOAD SWAP2 DUP3 PUSH1 0x20 DUP3 SLOAD SWAP2 DUP3 DUP2 MSTORE ADD SWAP2 PUSH0 MSTORE PUSH1 0x20 PUSH0 KECCAK256 SWAP1 PUSH0 JUMPDEST DUP2 DUP2 LT PUSH2 0x303F JUMPI POP POP POP DUP3 PUSH2 0x2CED SWAP2 SUB DUP4 PUSH2 0x3ED8 JUMP JUMPDEST PUSH0 SWAP1 PUSH0 SWAP3 JUMPDEST DUP1 MLOAD DUP5 LT ISZERO PUSH2 0x2DAD JUMPI PUSH2 0x2D05 DUP5 DUP3 PUSH2 0x4366 JUMP JUMPDEST MLOAD PUSH0 MSTORE PUSH1 0xD PUSH1 0x20 MSTORE DUP5 PUSH0 KECCAK256 SWAP2 DUP3 SLOAD PUSH2 0x2D1C DUP2 PUSH2 0x434E JUMP JUMPDEST SWAP4 PUSH2 0x2D29 DUP9 MLOAD SWAP6 DUP7 PUSH2 0x3ED8 JUMP JUMPDEST DUP2 DUP6 MSTORE PUSH1 0x20 DUP6 ADD SWAP1 PUSH0 MSTORE PUSH1 0x20 PUSH0 KECCAK256 SWAP1 PUSH0 SWAP1 JUMPDEST DUP4 DUP3 LT PUSH2 0x2D8F JUMPI POP POP POP POP PUSH0 JUMPDEST DUP4 MLOAD DUP2 LT ISZERO PUSH2 0x2D81 JUMPI PUSH1 0xC0 PUSH2 0x2D5D DUP3 DUP7 PUSH2 0x4366 JUMP JUMPDEST MLOAD ADD MLOAD PUSH2 0x2D6D JUMPI JUMPDEST PUSH1 0x1 ADD PUSH2 0x2D48 JUMP JUMPDEST SWAP4 PUSH2 0x2D79 PUSH1 0x1 SWAP2 PUSH2 0x414A JUMP JUMPDEST SWAP5 SWAP1 POP PUSH2 0x2D65 JUMP JUMPDEST POP PUSH1 0x1 SWAP1 SWAP5 ADD SWAP4 SWAP2 POP PUSH2 0x2CF2 JUMP JUMPDEST PUSH1 0x6 PUSH1 0x20 PUSH1 0x1 SWAP3 PUSH2 0x2D9F DUP7 PUSH2 0x4551 JUMP JUMPDEST DUP2 MSTORE ADD SWAP4 ADD SWAP2 ADD SWAP1 SWAP2 PUSH2 0x2D3B JUMP JUMPDEST SWAP3 POP PUSH2 0x2DD0 PUSH2 0x2DBB DUP4 PUSH2 0x434E JUMP JUMPDEST SWAP3 PUSH2 0x2DC8 DUP7 MLOAD SWAP5 DUP6 PUSH2 0x3ED8 JUMP JUMPDEST DUP1 DUP5 MSTORE PUSH2 0x434E JUMP JUMPDEST PUSH1 0x1F NOT ADD PUSH0 JUMPDEST DUP2 DUP2 LT PUSH2 0x3006 JUMPI POP POP PUSH0 SWAP4 PUSH0 JUMPDEST DUP5 MLOAD DUP2 LT ISZERO PUSH2 0x2F61 JUMPI PUSH2 0x2DF6 DUP2 DUP7 PUSH2 0x4366 JUMP JUMPDEST MLOAD PUSH0 MSTORE PUSH1 0xD PUSH1 0x20 MSTORE DUP2 PUSH0 KECCAK256 SWAP1 DUP2 SLOAD PUSH2 0x2E0D DUP2 PUSH2 0x434E JUMP JUMPDEST SWAP3 PUSH2 0x2E1A DUP6 MLOAD SWAP5 DUP6 PUSH2 0x3ED8 JUMP JUMPDEST DUP2 DUP5 MSTORE PUSH1 0x20 DUP5 ADD SWAP1 PUSH0 MSTORE PUSH1 0x20 PUSH0 KECCAK256 PUSH0 SWAP2 JUMPDEST DUP4 DUP4 LT PUSH2 0x2F43 JUMPI POP POP POP POP PUSH0 JUMPDEST DUP3 MLOAD DUP2 LT ISZERO PUSH2 0x2F38 JUMPI PUSH1 0xC0 PUSH2 0x2E4D DUP3 DUP6 PUSH2 0x4366 JUMP JUMPDEST MLOAD ADD MLOAD ISZERO PUSH2 0x2F30 JUMPI PUSH2 0x2E5F DUP3 DUP9 PUSH2 0x4366 JUMP JUMPDEST MLOAD SWAP8 PUSH2 0x2E6B DUP3 DUP6 PUSH2 0x4366 JUMP JUMPDEST MLOAD MLOAD DUP6 PUSH2 0x2E78 DUP5 DUP8 PUSH2 0x4366 JUMP JUMPDEST MLOAD ADD MLOAD PUSH2 0x2E84 DUP2 PUSH2 0x3E0E JUMP JUMPDEST PUSH1 0x60 PUSH2 0x2E90 DUP6 DUP9 PUSH2 0x4366 JUMP JUMPDEST MLOAD ADD MLOAD PUSH1 0x6 DUP2 LT ISZERO PUSH2 0x2F1D JUMPI PUSH2 0x2EA6 DUP6 DUP9 PUSH2 0x4366 JUMP JUMPDEST MLOAD PUSH1 0x80 ADD MLOAD SWAP2 PUSH2 0x2EB6 DUP7 DUP10 PUSH2 0x4366 JUMP JUMPDEST MLOAD PUSH1 0xA0 ADD MLOAD SWAP4 DUP10 MLOAD DUP1 SWAP15 PUSH2 0x2EC9 DUP3 PUSH2 0x3EA8 JUMP JUMPDEST DUP2 MSTORE PUSH1 0x20 ADD MSTORE PUSH2 0x2ED8 DUP2 PUSH2 0x3E0E JUMP JUMPDEST DUP13 DUP10 ADD MSTORE PUSH2 0x2EE9 SWAP1 PUSH1 0x60 DUP14 ADD PUSH2 0x4511 JUMP JUMPDEST PUSH1 0x80 DUP12 ADD MSTORE PUSH1 0xA0 DUP11 ADD MSTORE PUSH2 0x2EFC DUP2 PUSH2 0x414A JUMP JUMPDEST SWAP9 PUSH2 0x2F07 DUP3 DUP10 PUSH2 0x4366 JUMP JUMPDEST MSTORE PUSH2 0x2F12 SWAP1 DUP8 PUSH2 0x4366 JUMP JUMPDEST POP PUSH1 0x1 SWAP1 JUMPDEST ADD PUSH2 0x2E38 JUMP JUMPDEST PUSH1 0x21 DUP10 PUSH4 0x4E487B71 PUSH1 0xE0 SHL PUSH0 MSTORE MSTORE PUSH1 0x24 PUSH0 REVERT JUMPDEST PUSH1 0x1 SWAP1 PUSH2 0x2F17 JUMP JUMPDEST POP PUSH1 0x1 SWAP2 POP ADD PUSH2 0x2DE3 JUMP JUMPDEST PUSH1 0x6 PUSH1 0x20 PUSH1 0x1 SWAP3 PUSH2 0x2F53 DUP6 PUSH2 0x4551 JUMP JUMPDEST DUP2 MSTORE ADD SWAP3 ADD SWAP3 ADD SWAP2 SWAP1 PUSH2 0x2E2B JUMP JUMPDEST POP DUP1 MLOAD PUSH1 0x20 DUP1 DUP3 MSTORE DUP5 MLOAD DUP2 DUP4 ADD DUP2 SWAP1 MSTORE PUSH1 0x5 DUP2 SWAP1 SHL DUP4 ADD DUP5 ADD SWAP2 DUP7 ADD SWAP1 PUSH0 DUP5 DUP7 ADD JUMPDEST DUP3 DUP3 LT PUSH2 0x2F90 JUMPI DUP6 DUP6 SUB DUP7 RETURN JUMPDEST SWAP1 SWAP2 SWAP3 SWAP4 PUSH1 0x20 DUP1 PUSH1 0x1 SWAP3 PUSH1 0x3F NOT DUP10 DUP3 SUB ADD DUP6 MSTORE DUP8 MLOAD SWAP1 PUSH2 0x2FEE PUSH1 0xC0 DUP4 MLOAD DUP4 MSTORE DUP5 DUP5 ADD MLOAD DUP6 DUP5 ADD MSTORE DUP13 DUP5 ADD MLOAD PUSH2 0x2FC4 DUP2 PUSH2 0x3E0E JUMP JUMPDEST DUP14 DUP5 ADD MSTORE PUSH2 0x2FDA PUSH1 0x60 DUP1 DUP7 ADD MLOAD SWAP1 DUP6 ADD SWAP1 PUSH2 0x3F40 JUMP JUMPDEST PUSH1 0x80 SWAP1 DUP1 DUP3 DUP7 ADD MLOAD SWAP3 DUP6 ADD MSTORE DUP4 ADD SWAP1 PUSH2 0x3F4D JUMP JUMPDEST SWAP2 PUSH1 0xA0 DUP1 SWAP2 ADD MLOAD SWAP2 ADD MSTORE SWAP7 ADD SWAP3 ADD SWAP3 ADD SWAP1 SWAP3 SWAP2 PUSH2 0x2F83 JUMP JUMPDEST PUSH1 0x20 SWAP1 DUP7 MLOAD PUSH2 0x3014 DUP2 PUSH2 0x3EA8 JUMP JUMPDEST PUSH0 DUP2 MSTORE PUSH0 DUP4 DUP3 ADD MSTORE PUSH0 DUP9 DUP3 ADD MSTORE PUSH1 0x60 PUSH0 DUP2 DUP4 ADD MSTORE PUSH1 0x80 DUP3 ADD MSTORE PUSH0 PUSH1 0xA0 DUP3 ADD MSTORE DUP3 DUP3 DUP8 ADD ADD MSTORE ADD PUSH2 0x2DD6 JUMP JUMPDEST DUP3 SLOAD DUP5 MSTORE PUSH1 0x20 SWAP1 SWAP4 ADD SWAP3 PUSH1 0x1 SWAP3 DUP4 ADD SWAP3 ADD PUSH2 0x2CD7 JUMP JUMPDEST DUP3 DUP6 CALLVALUE PUSH2 0x882 JUMPI PUSH1 0xA0 CALLDATASIZE PUSH1 0x3 NOT ADD SLT PUSH2 0x882 JUMPI DUP2 CALLDATALOAD SWAP1 PUSH1 0x24 SWAP3 DUP4 CALLDATALOAD SWAP2 PUSH2 0x3079 PUSH2 0x3E3C JUMP JUMPDEST SWAP2 PUSH2 0x3082 PUSH2 0x3E4C JUMP JUMPDEST PUSH8 0xFFFFFFFFFFFFFFFF SWAP4 SWAP1 PUSH1 0x84 CALLDATALOAD DUP6 DUP2 GT PUSH2 0x882 JUMPI CALLDATASIZE PUSH1 0x23 DUP3 ADD SLT ISZERO PUSH2 0x882 JUMPI PUSH2 0x30B4 SWAP1 CALLDATASIZE SWAP1 DUP11 DUP2 DUP8 ADD CALLDATALOAD SWAP2 ADD PUSH2 0x3EFA JUMP JUMPDEST SWAP5 PUSH1 0x1 DUP1 PUSH1 0xA0 SHL SUB PUSH0 SLOAD AND SWAP4 DUP6 MLOAD SWAP4 PUSH4 0x45ECD02F PUSH1 0xE0 SHL DUP6 MSTORE CALLER DUP3 DUP7 ADD MSTORE PUSH1 0x20 SWAP5 DUP6 DUP2 DUP14 DUP2 DUP11 GAS STATICCALL SWAP1 DUP2 ISZERO PUSH2 0x35DB JUMPI SWAP1 PUSH2 0x30F4 SWAP2 PUSH0 SWAP2 PUSH2 0x360D JUMPI POP PUSH2 0x4392 JUMP JUMPDEST DUP7 MLOAD PUSH4 0x64461AFF PUSH1 0xE1 SHL DUP2 MSTORE DUP3 DUP2 ADD DUP12 DUP2 MSTORE CALLER PUSH1 0x20 DUP3 ADD MSTORE DUP7 SWAP1 DUP3 SWAP1 DUP2 SWAP1 PUSH1 0x40 ADD SUB DUP2 DUP11 GAS STATICCALL SWAP1 DUP2 ISZERO PUSH2 0x35DB JUMPI SWAP2 PUSH2 0x3139 PUSH1 0xFF SWAP3 DUP15 SWAP8 SWAP7 SWAP6 SWAP5 PUSH0 SWAP2 PUSH2 0x35F0 JUMPI POP PUSH2 0x43D5 JUMP JUMPDEST PUSH2 0x3144 DUP13 ISZERO ISZERO PUSH2 0x4421 JUMP JUMPDEST PUSH2 0x314F DUP12 ISZERO ISZERO PUSH2 0x446D JUMP JUMPDEST AND SWAP8 DUP6 PUSH1 0xFF PUSH1 0x1 SWAP6 DUP7 DUP13 LT ISZERO DUP1 PUSH2 0x35E5 JUMPI JUMPDEST PUSH2 0x316A SWAP1 PUSH2 0x4244 JUMP JUMPDEST AND SWAP8 PUSH2 0x3179 PUSH1 0x5 DUP11 GT ISZERO PUSH2 0x4287 JUMP JUMPDEST DUP10 MLOAD PUSH3 0xB0C809 PUSH1 0xE0 SHL DUP2 MSTORE CALLER DUP6 DUP3 ADD MSTORE SWAP14 DUP15 SWAP2 DUP3 SWAP1 GAS STATICCALL SWAP12 DUP13 ISZERO PUSH2 0x35DB JUMPI PUSH0 SWAP13 PUSH2 0x35AC JUMPI JUMPDEST POP PUSH2 0x31AA DUP13 ISZERO ISZERO PUSH2 0x42D3 JUMP JUMPDEST DUP10 PUSH0 MSTORE PUSH1 0x6 DUP7 MSTORE PUSH2 0x31BF DUP12 DUP10 PUSH0 KECCAK256 SLOAD EQ PUSH2 0x44B9 JUMP JUMPDEST DUP10 PUSH0 MSTORE PUSH1 0xE DUP7 MSTORE DUP8 PUSH0 KECCAK256 DUP13 PUSH0 MSTORE DUP7 MSTORE PUSH1 0xFF DUP9 PUSH0 KECCAK256 SLOAD AND PUSH2 0x356A JUMPI DUP10 PUSH0 MSTORE PUSH1 0xB DUP7 MSTORE DUP8 PUSH0 KECCAK256 DUP13 PUSH0 MSTORE DUP7 MSTORE PUSH1 0xFF DUP9 PUSH0 KECCAK256 SLOAD AND PUSH2 0x350F JUMPI DUP10 PUSH0 MSTORE PUSH1 0xD DUP7 MSTORE DUP8 PUSH0 KECCAK256 SWAP3 DUP4 SLOAD SWAP6 PUSH2 0x320A DUP12 PUSH2 0x3E0E JUMP JUMPDEST PUSH1 0x6 DUP10 LT ISZERO PUSH2 0x34FD JUMPI SWAP2 DUP13 SWAP2 DUP15 SWAP6 SWAP5 SWAP4 DUP12 MLOAD SWAP7 PUSH2 0x3226 DUP9 PUSH2 0x3E8C JUMP JUMPDEST DUP8 MSTORE DUP10 DUP8 ADD SWAP4 DUP5 MSTORE DUP12 DUP8 ADD PUSH2 0x323A DUP15 PUSH2 0x3E0E JUMP JUMPDEST DUP14 DUP2 MSTORE PUSH1 0x60 DUP9 ADD PUSH2 0x324B DUP14 DUP3 PUSH2 0x4511 JUMP JUMPDEST PUSH1 0x80 DUP10 ADD SWAP5 DUP6 MSTORE PUSH1 0xA0 DUP10 ADD SWAP6 TIMESTAMP DUP8 MSTORE PUSH1 0xC0 DUP11 ADD SWAP9 DUP12 DUP11 MSTORE PUSH1 0x1 PUSH1 0x40 SHL DUP14 LT ISZERO PUSH2 0x34EB JUMPI DUP13 PUSH2 0x327D SWAP2 DUP14 DUP3 ADD DUP2 SSTORE PUSH2 0x4005 JUMP JUMPDEST SWAP11 SWAP1 SWAP11 PUSH2 0x34DA JUMPI MLOAD DUP11 SSTORE MLOAD DUP11 DUP11 ADD SSTORE PUSH2 0x32A4 PUSH1 0x2 DUP11 ADD SWAP3 MLOAD PUSH2 0x329E DUP2 PUSH2 0x3E0E JUMP JUMPDEST DUP4 PUSH2 0x4317 JUMP JUMPDEST MLOAD SWAP1 PUSH1 0x6 DUP3 LT ISZERO PUSH2 0x34C8 JUMPI SWAP1 PUSH2 0x32B9 SWAP2 PUSH2 0x432F JUMP JUMPDEST PUSH1 0x3 DUP8 ADD SWAP3 MLOAD SWAP1 DUP2 MLOAD SWAP3 DUP4 GT PUSH2 0x34B6 JUMPI POP PUSH2 0x32D4 DUP4 SLOAD PUSH2 0x401E JUMP JUMPDEST PUSH1 0x1F DUP2 GT PUSH2 0x3470 JUMPI JUMPDEST POP DUP10 SWAP1 PUSH1 0x1F DUP4 GT PUSH1 0x1 EQ PUSH2 0x33DA JUMPI SWAP5 PUSH2 0x335B SWAP5 PUSH1 0x60 SWAP14 SWAP12 SWAP9 SWAP5 PUSH32 0x19C1298D442E6DCFC61025509382DD2C8A2D96C75E684D78C38C95624674C9A9 SWAP16 SWAP14 SWAP11 SWAP8 SWAP5 DUP1 PUSH2 0x33C7 SWAP14 SWAP11 SWAP6 PUSH1 0x5 SWAP8 PUSH0 SWAP3 PUSH2 0x33CF JUMPI JUMPDEST POP POP PUSH0 NOT PUSH1 0x3 DUP4 SWAP1 SHL SHR NOT AND SWAP1 DUP10 SHL OR SWAP1 SSTORE JUMPDEST MLOAD SWAP1 DUP5 ADD SSTORE MLOAD ISZERO ISZERO SWAP2 ADD SWAP1 PUSH1 0xFF DUP1 NOT DUP4 SLOAD AND SWAP2 ISZERO ISZERO AND OR SWAP1 SSTORE JUMP JUMPDEST DUP10 PUSH0 MSTORE PUSH1 0xE DUP4 MSTORE DUP6 PUSH0 KECCAK256 DUP13 PUSH0 MSTORE DUP4 MSTORE DUP6 PUSH0 KECCAK256 SWAP1 PUSH1 0xFF NOT DUP3 SLOAD AND OR SWAP1 SSTORE DUP9 PUSH0 MSTORE PUSH1 0xF DUP3 MSTORE DUP5 PUSH0 KECCAK256 DUP12 PUSH0 MSTORE DUP3 MSTORE DUP5 PUSH0 KECCAK256 SSTORE PUSH1 0x14 DUP2 MSTORE PUSH2 0x339A DUP9 DUP6 PUSH0 KECCAK256 PUSH2 0x451D JUMP JUMPDEST PUSH2 0x33A5 PUSH1 0x16 SLOAD PUSH2 0x414A JUMP JUMPDEST PUSH1 0x16 SSTORE PUSH2 0x33B1 DUP6 PUSH2 0x3E0E JUMP JUMPDEST DUP4 MLOAD SWAP5 PUSH2 0x33BD DUP2 PUSH2 0x3E0E JUMP JUMPDEST DUP6 MSTORE DUP5 ADD SWAP1 PUSH2 0x3F40 JUMP JUMPDEST TIMESTAMP SWAP1 DUP3 ADD MSTORE LOG4 STOP JUMPDEST ADD MLOAD SWAP1 POP PUSH0 DUP1 PUSH2 0x332D JUMP JUMPDEST SWAP1 PUSH1 0x1F NOT DUP4 AND SWAP2 DUP5 PUSH0 MSTORE DUP12 PUSH0 KECCAK256 SWAP3 PUSH0 JUMPDEST DUP2 DUP2 LT PUSH2 0x345B JUMPI POP SWAP5 PUSH32 0x19C1298D442E6DCFC61025509382DD2C8A2D96C75E684D78C38C95624674C9A9 SWAP16 SWAP14 SWAP11 PUSH1 0x60 SWAP16 SWAP14 SWAP11 SWAP7 SWAP6 PUSH2 0x33C7 SWAP14 SWAP11 SWAP6 DUP3 SWAP11 SWAP6 PUSH2 0x335B SWAP11 SWAP6 DUP4 PUSH1 0x5 SWAP11 LT PUSH2 0x3443 JUMPI JUMPDEST POP POP POP DUP2 SHL ADD SWAP1 SSTORE PUSH2 0x3340 JUMP JUMPDEST ADD MLOAD PUSH0 NOT PUSH1 0xF8 DUP5 PUSH1 0x3 SHL AND SHR NOT AND SWAP1 SSTORE PUSH0 DUP1 DUP1 PUSH2 0x3436 JUMP JUMPDEST DUP3 DUP5 ADD MLOAD DUP6 SSTORE SWAP4 DUP12 ADD SWAP4 SWAP3 DUP14 ADD SWAP3 DUP14 ADD PUSH2 0x33EA JUMP JUMPDEST DUP4 PUSH0 MSTORE DUP11 PUSH0 KECCAK256 PUSH1 0x1F DUP5 ADD PUSH1 0x5 SHR DUP2 ADD SWAP2 DUP13 DUP6 LT PUSH2 0x34AC JUMPI JUMPDEST PUSH1 0x1F ADD PUSH1 0x5 SHR ADD SWAP1 DUP10 SWAP1 JUMPDEST DUP3 DUP2 LT PUSH2 0x34A1 JUMPI POP POP PUSH2 0x32DD JUMP JUMPDEST PUSH0 DUP2 SSTORE ADD DUP10 SWAP1 PUSH2 0x3493 JUMP JUMPDEST SWAP1 SWAP2 POP DUP2 SWAP1 PUSH2 0x3488 JUMP JUMPDEST PUSH4 0x4E487B71 PUSH1 0xE0 SHL PUSH0 SWAP1 DUP2 MSTORE PUSH1 0x41 DUP8 MSTORE REVERT JUMPDEST DUP3 PUSH1 0x21 DUP9 PUSH4 0x4E487B71 PUSH1 0xE0 SHL PUSH0 MSTORE MSTORE PUSH0 REVERT JUMPDEST DUP5 PUSH0 DUP11 PUSH4 0x4E487B71 PUSH1 0xE0 SHL DUP3 MSTORE MSTORE PUSH0 REVERT JUMPDEST DUP5 PUSH1 0x41 DUP11 PUSH4 0x4E487B71 PUSH1 0xE0 SHL PUSH0 MSTORE MSTORE PUSH0 REVERT JUMPDEST PUSH4 0x4E487B71 PUSH1 0xE0 SHL PUSH0 SWAP1 DUP2 MSTORE PUSH1 0x21 DUP6 MSTORE REVERT JUMPDEST DUP8 MLOAD PUSH3 0x461BCD PUSH1 0xE5 SHL DUP2 MSTORE DUP1 DUP4 ADD DUP8 SWAP1 MSTORE PUSH1 0x30 DUP2 DUP8 ADD MSTORE PUSH32 0x43616E6E6F7420646973707574652061206861736820796F7520617265206163 PUSH1 0x44 DUP3 ADD MSTORE PUSH16 0x746976656C7920766572696679696E67 PUSH1 0x80 SHL PUSH1 0x64 DUP3 ADD MSTORE PUSH1 0x84 SWAP1 REVERT JUMPDEST DUP8 MLOAD PUSH3 0x461BCD PUSH1 0xE5 SHL DUP2 MSTORE DUP1 DUP4 ADD DUP8 SWAP1 MSTORE PUSH1 0x1A DUP2 DUP8 ADD MSTORE PUSH32 0x416C726561647920646973707574656420746869732068617368000000000000 PUSH1 0x44 DUP3 ADD MSTORE PUSH1 0x64 SWAP1 REVERT JUMPDEST SWAP1 SWAP12 POP DUP6 DUP2 DUP2 RETURNDATASIZE DUP4 GT PUSH2 0x35D4 JUMPI JUMPDEST PUSH2 0x35C4 DUP2 DUP4 PUSH2 0x3ED8 JUMP JUMPDEST DUP2 ADD SUB SLT PUSH2 0x882 JUMPI MLOAD SWAP11 DUP13 PUSH2 0x319E JUMP JUMPDEST POP RETURNDATASIZE PUSH2 0x35BA JUMP JUMPDEST DUP9 MLOAD RETURNDATASIZE PUSH0 DUP3 RETURNDATACOPY RETURNDATASIZE SWAP1 REVERT JUMPDEST POP PUSH1 0x3 DUP13 GT ISZERO PUSH2 0x3161 JUMP JUMPDEST PUSH2 0x3607 SWAP2 POP DUP10 RETURNDATASIZE DUP12 GT PUSH2 0xD7B JUMPI PUSH2 0xD6D DUP2 DUP4 PUSH2 0x3ED8 JUMP JUMPDEST DUP16 PUSH2 0xBE5 JUMP JUMPDEST PUSH2 0x3624 SWAP2 POP DUP8 RETURNDATASIZE DUP10 GT PUSH2 0xD7B JUMPI PUSH2 0xD6D DUP2 DUP4 PUSH2 0x3ED8 JUMP JUMPDEST DUP14 PUSH2 0xBA6 JUMP JUMPDEST DUP5 DUP4 CALLVALUE PUSH2 0x882 JUMPI PUSH1 0x20 SWAP1 DUP2 PUSH1 0x3 NOT CALLDATASIZE ADD SLT PUSH2 0x882 JUMPI CALLDATALOAD SWAP1 PUSH0 SWAP1 DUP3 PUSH0 MSTORE PUSH1 0x2 DUP2 MSTORE DUP4 PUSH0 KECCAK256 SWAP1 DUP5 MLOAD DUP1 DUP4 DUP4 DUP3 SWAP6 SLOAD SWAP4 DUP5 DUP2 MSTORE ADD SWAP1 PUSH0 MSTORE DUP4 PUSH0 KECCAK256 SWAP3 PUSH0 JUMPDEST DUP6 DUP3 DUP3 LT PUSH2 0x36D8 JUMPI POP POP POP PUSH2 0x367B SWAP3 POP SUB DUP4 PUSH2 0x3ED8 JUMP JUMPDEST DUP2 MLOAD SWAP4 PUSH0 JUMPDEST DUP4 MLOAD DUP2 LT ISZERO PUSH2 0x36CA JUMPI DUP2 PUSH0 MSTORE PUSH1 0x5 DUP4 MSTORE DUP7 PUSH0 KECCAK256 PUSH2 0x369D DUP3 DUP7 PUSH2 0x4366 JUMP JUMPDEST MLOAD PUSH0 MSTORE DUP4 MSTORE PUSH1 0xFF DUP8 PUSH0 KECCAK256 SLOAD AND PUSH2 0x36B6 JUMPI JUMPDEST PUSH1 0x1 ADD PUSH2 0x3680 JUMP JUMPDEST SWAP4 PUSH2 0x36C2 PUSH1 0x1 SWAP2 PUSH2 0x414A JUMP JUMPDEST SWAP5 SWAP1 POP PUSH2 0x36AE JUMP JUMPDEST POP POP SWAP1 POP DUP4 MLOAD SWAP3 DUP4 MSTORE DUP3 ADD MSTORE RETURN JUMPDEST DUP6 SLOAD DUP5 MSTORE PUSH1 0x1 SWAP6 DUP7 ADD SWAP6 DUP9 SWAP6 POP SWAP4 ADD SWAP3 ADD PUSH2 0x3664 JUMP JUMPDEST DUP3 DUP6 CALLVALUE PUSH2 0x882 JUMPI PUSH1 0x20 CALLDATASIZE PUSH1 0x3 NOT ADD SLT PUSH2 0x882 JUMPI PUSH1 0x20 SWAP2 CALLDATALOAD PUSH0 MSTORE PUSH1 0x12 DUP3 MSTORE DUP1 PUSH0 KECCAK256 SLOAD SWAP1 MLOAD SWAP1 DUP2 MSTORE RETURN JUMPDEST DUP5 CALLVALUE PUSH2 0x882 JUMPI PUSH0 CALLDATASIZE PUSH1 0x3 NOT ADD SLT PUSH2 0x882 JUMPI PUSH1 0x20 SWAP1 PUSH1 0x9 SLOAD SWAP1 MLOAD SWAP1 DUP2 MSTORE RETURN JUMPDEST DUP5 CALLVALUE PUSH2 0x882 JUMPI PUSH0 CALLDATASIZE PUSH1 0x3 NOT ADD SLT PUSH2 0x882 JUMPI PUSH0 SLOAD SWAP1 MLOAD PUSH1 0x1 PUSH1 0x1 PUSH1 0xA0 SHL SUB SWAP1 SWAP2 AND DUP2 MSTORE PUSH1 0x20 SWAP1 RETURN JUMPDEST DUP5 DUP4 CALLVALUE PUSH2 0x882 JUMPI PUSH1 0x20 SWAP1 DUP2 PUSH1 0x3 NOT CALLDATASIZE ADD SLT PUSH2 0x882 JUMPI PUSH0 SWAP1 CALLDATALOAD PUSH0 MSTORE PUSH1 0xA DUP3 MSTORE DUP3 PUSH0 KECCAK256 SWAP3 DUP4 SLOAD PUSH2 0x3788 DUP2 PUSH2 0x434E JUMP JUMPDEST SWAP5 PUSH2 0x3795 DUP4 MLOAD SWAP7 DUP8 PUSH2 0x3ED8 JUMP JUMPDEST DUP2 DUP7 MSTORE PUSH0 SWAP1 DUP2 MSTORE DUP5 DUP2 KECCAK256 DUP6 DUP1 DUP9 ADD JUMPDEST DUP5 DUP5 LT PUSH2 0x37ED JUMPI POP POP POP POP POP DUP4 MLOAD PUSH0 JUMPDEST DUP6 MLOAD DUP2 LT ISZERO PUSH2 0x640 JUMPI PUSH1 0x80 PUSH2 0x37C9 DUP3 DUP9 PUSH2 0x4366 JUMP JUMPDEST MLOAD ADD MLOAD PUSH2 0x37D9 JUMPI JUMPDEST PUSH1 0x1 ADD PUSH2 0x37B4 JUMP JUMPDEST SWAP3 PUSH2 0x37E5 PUSH1 0x1 SWAP2 PUSH2 0x414A JUMP JUMPDEST SWAP4 SWAP1 POP PUSH2 0x37D1 JUMP JUMPDEST PUSH1 0x1 SWAP2 PUSH1 0x5 SWAP2 PUSH2 0x37FC DUP6 PUSH2 0x416C JUMP JUMPDEST DUP2 MSTORE ADD SWAP3 ADD SWAP3 ADD SWAP2 SWAP1 DUP7 SWAP1 PUSH2 0x37A4 JUMP JUMPDEST DUP5 CALLVALUE PUSH2 0x882 JUMPI PUSH1 0x20 SWAP1 PUSH2 0x381E CALLDATASIZE PUSH2 0x3DF8 JUMP JUMPDEST SWAP1 PUSH0 MSTORE PUSH1 0xE DUP4 MSTORE DUP2 PUSH0 KECCAK256 SWAP1 PUSH0 MSTORE DUP3 MSTORE PUSH1 0xFF DUP2 PUSH0 KECCAK256 SLOAD AND SWAP1 MLOAD SWAP1 ISZERO ISZERO DUP2 MSTORE RETURN JUMPDEST DUP5 CALLVALUE PUSH2 0x882 JUMPI PUSH1 0x20 SWAP1 PUSH2 0x384F CALLDATASIZE PUSH2 0x3DF8 JUMP JUMPDEST SWAP1 PUSH0 MSTORE PUSH1 0x3 DUP4 MSTORE DUP2 PUSH0 KECCAK256 SWAP1 PUSH0 MSTORE DUP3 MSTORE PUSH1 0xFF DUP2 PUSH0 KECCAK256 SLOAD AND SWAP1 MLOAD SWAP1 ISZERO ISZERO DUP2 MSTORE RETURN JUMPDEST DUP5 DUP4 CALLVALUE PUSH2 0x882 JUMPI PUSH1 0x60 CALLDATASIZE PUSH1 0x3 NOT ADD SLT PUSH2 0x882 JUMPI DUP1 CALLDATALOAD SWAP1 PUSH2 0x388C PUSH2 0x3E2C JUMP JUMPDEST SWAP3 PUSH2 0x3895 PUSH2 0x3E3C JUMP JUMPDEST SWAP4 PUSH1 0xFF DUP1 DUP1 SWAP3 AND SWAP6 PUSH1 0x1 DUP8 LT ISZERO DUP1 PUSH2 0x3B4D JUMPI JUMPDEST PUSH2 0x38B1 SWAP1 PUSH2 0x4244 JUMP JUMPDEST AND SWAP5 PUSH2 0x38C0 PUSH1 0x5 DUP8 GT ISZERO PUSH2 0x4287 JUMP JUMPDEST PUSH0 SLOAD DUP4 MLOAD PUSH3 0xB0C809 PUSH1 0xE0 SHL DUP2 MSTORE CALLER DUP7 DUP3 ADD MSTORE SWAP7 PUSH1 0x20 SWAP5 SWAP2 PUSH1 0x24 SWAP2 SWAP1 DUP7 SWAP1 DUP11 SWAP1 DUP5 SWAP1 DUP3 SWAP1 PUSH1 0x1 PUSH1 0x1 PUSH1 0xA0 SHL SUB AND GAS STATICCALL SWAP9 DUP10 ISZERO PUSH2 0x3B43 JUMPI PUSH0 SWAP10 PUSH2 0x3B14 JUMPI JUMPDEST POP PUSH2 0x3908 DUP10 ISZERO ISZERO PUSH2 0x42D3 JUMP JUMPDEST DUP8 PUSH0 MSTORE PUSH1 0xE DUP7 MSTORE DUP3 PUSH0 KECCAK256 DUP10 PUSH0 MSTORE DUP7 MSTORE DUP5 DUP4 PUSH0 KECCAK256 SLOAD AND ISZERO PUSH2 0x3ADB JUMPI DUP8 PUSH0 MSTORE PUSH1 0xF DUP7 MSTORE DUP3 PUSH0 KECCAK256 DUP10 PUSH0 MSTORE DUP7 MSTORE PUSH2 0x3947 DUP4 PUSH0 KECCAK256 SLOAD DUP10 PUSH0 MSTORE PUSH1 0xD DUP9 MSTORE DUP5 PUSH0 KECCAK256 PUSH2 0x4005 JUMP JUMPDEST POP DUP6 PUSH1 0x5 DUP3 ADD SLOAD AND ISZERO PUSH2 0x3A99 JUMPI PUSH1 0x2 ADD SWAP2 DUP3 SLOAD SWAP8 DUP7 DUP1 DUP11 AND SWAP10 PUSH1 0x8 SHR AND SWAP6 PUSH2 0x396E DUP2 PUSH2 0x3E0E JUMP JUMPDEST PUSH2 0x3977 DUP2 PUSH2 0x3E0E JUMP JUMPDEST PUSH2 0x3980 DUP11 PUSH2 0x3E0E JUMP JUMPDEST DUP1 DUP11 EQ DUP1 ISZERO SWAP1 PUSH2 0x3A6B JUMPI JUMPDEST ISZERO PUSH2 0x3A37 JUMPI DUP1 PUSH2 0x399D PUSH2 0x39A3 SWAP3 PUSH2 0x3E0E JUMP JUMPDEST DUP6 PUSH2 0x4317 JUMP JUMPDEST PUSH1 0x6 DUP4 LT ISZERO PUSH2 0x3A26 JUMPI POP POP PUSH2 0x3A1D SWAP4 PUSH1 0xA0 SWAP7 SWAP4 DUP4 PUSH2 0x39E7 PUSH2 0x3A0F SWAP5 PUSH32 0xFE65316E02C3DCE1BCA5A3132E022178971267D711982849C99758DA3CFC7ED SWAP12 SWAP10 SWAP7 PUSH2 0x432F JUMP JUMPDEST SLOAD SWAP5 DUP5 DUP7 AND SWAP1 DUP3 MLOAD SWAP9 PUSH2 0x39F9 DUP2 PUSH2 0x3E0E JUMP JUMPDEST DUP10 MSTORE PUSH2 0x3A04 DUP3 PUSH2 0x3E0E JUMP JUMPDEST DUP9 ADD MSTORE DUP7 ADD SWAP1 PUSH2 0x3F40 JUMP JUMPDEST PUSH1 0x60 DUP5 ADD SWAP2 PUSH1 0x8 SHR AND PUSH2 0x3F40 JUMP JUMPDEST TIMESTAMP PUSH1 0x80 DUP3 ADD MSTORE LOG3 STOP JUMPDEST PUSH1 0x21 SWAP1 PUSH4 0x4E487B71 PUSH1 0xE0 SHL PUSH0 MSTORE MSTORE PUSH0 REVERT JUMPDEST POP PUSH1 0x10 PUSH1 0x64 SWAP3 DUP10 DUP8 MLOAD SWAP4 PUSH3 0x461BCD PUSH1 0xE5 SHL DUP6 MSTORE DUP5 ADD MSTORE DUP3 ADD MSTORE PUSH16 0x15985B1D595CC81D5B98DA185B99D959 PUSH1 0x82 SHL PUSH1 0x44 DUP3 ADD MSTORE REVERT JUMPDEST POP PUSH1 0x6 DUP5 LT ISZERO PUSH2 0x3A87 JUMPI PUSH1 0x6 DUP8 LT ISZERO PUSH2 0x3A87 JUMPI DUP4 DUP8 EQ ISZERO PUSH2 0x398B JUMP JUMPDEST POP PUSH1 0x21 SWAP1 PUSH4 0x4E487B71 PUSH1 0xE0 SHL PUSH0 MSTORE MSTORE PUSH0 REVERT JUMPDEST DUP4 MLOAD PUSH3 0x461BCD PUSH1 0xE5 SHL DUP2 MSTORE DUP1 DUP10 ADD DUP9 SWAP1 MSTORE PUSH1 0x1A DUP2 DUP6 ADD MSTORE PUSH32 0x4469737075746520686173206265656E20726574726163746564000000000000 PUSH1 0x44 DUP3 ADD MSTORE PUSH1 0x64 SWAP1 REVERT JUMPDEST DUP3 MLOAD PUSH3 0x461BCD PUSH1 0xE5 SHL DUP2 MSTORE DUP1 DUP9 ADD DUP8 SWAP1 MSTORE PUSH1 0x14 DUP2 DUP5 ADD MSTORE PUSH20 0x4E6F206469737075746520746F206D6F64696679 PUSH1 0x60 SHL PUSH1 0x44 DUP3 ADD MSTORE PUSH1 0x64 SWAP1 REVERT JUMPDEST SWAP1 SWAP9 POP DUP6 DUP2 DUP2 RETURNDATASIZE DUP4 GT PUSH2 0x3B3C JUMPI JUMPDEST PUSH2 0x3B2C DUP2 DUP4 PUSH2 0x3ED8 JUMP JUMPDEST DUP2 ADD SUB SLT PUSH2 0x882 JUMPI MLOAD SWAP8 DUP10 PUSH2 0x38FC JUMP JUMPDEST POP RETURNDATASIZE PUSH2 0x3B22 JUMP JUMPDEST DUP4 MLOAD RETURNDATASIZE PUSH0 DUP3 RETURNDATACOPY RETURNDATASIZE SWAP1 REVERT JUMPDEST POP PUSH1 0x3 DUP8 GT ISZERO PUSH2 0x38A8 JUMP JUMPDEST DUP5 CALLVALUE PUSH2 0x882 JUMPI PUSH1 0xA0 SWAP1 PUSH2 0x3B73 PUSH2 0x3B6D CALLDATASIZE PUSH2 0x3DF8 JUMP JUMPDEST SWAP1 PUSH2 0x41B8 JUMP JUMPDEST SWAP4 SWAP5 SWAP1 SWAP3 DUP2 MLOAD SWAP6 ISZERO ISZERO DUP7 MSTORE PUSH1 0x20 DUP7 ADD MSTORE PUSH2 0x94B DUP3 PUSH2 0x3E0E JUMP JUMPDEST DUP3 DUP6 CALLVALUE PUSH2 0x882 JUMPI PUSH1 0x80 CALLDATASIZE PUSH1 0x3 NOT ADD SLT PUSH2 0x882 JUMPI DUP2 CALLDATALOAD PUSH1 0x24 SWAP2 DUP3 CALLDATALOAD SWAP3 PUSH1 0x44 CALLDATALOAD SWAP5 PUSH1 0x64 CALLDATALOAD SWAP2 PUSH2 0x3BC4 PUSH1 0x1 DUP1 PUSH1 0xA0 SHL SUB PUSH1 0x1 SLOAD AND CALLER EQ PUSH2 0x4111 JUMP JUMPDEST DUP5 ISZERO PUSH2 0x3DC4 JUMPI DUP6 ISZERO PUSH2 0x3D91 JUMPI DUP7 ISZERO PUSH2 0x3D5C JUMPI DUP5 PUSH0 MSTORE PUSH1 0x20 SWAP2 PUSH1 0x11 DUP4 MSTORE DUP5 PUSH0 KECCAK256 DUP8 PUSH0 MSTORE DUP4 MSTORE DUP5 PUSH0 KECCAK256 SLOAD PUSH2 0x3D2A JUMPI DUP6 PUSH0 MSTORE PUSH1 0x10 DUP4 MSTORE DUP5 PUSH0 KECCAK256 SLOAD PUSH1 0x1 DUP2 ADD DUP1 SWAP2 GT PUSH2 0x3D18 JUMPI DUP7 PUSH0 MSTORE PUSH1 0x11 DUP5 MSTORE DUP6 PUSH0 KECCAK256 DUP9 PUSH0 MSTORE DUP5 MSTORE DUP6 PUSH0 KECCAK256 SSTORE DUP6 PUSH0 MSTORE PUSH1 0x10 DUP4 MSTORE DUP5 PUSH0 KECCAK256 DUP6 MLOAD PUSH2 0x3C2E DUP2 PUSH2 0x3E5C JUMP JUMPDEST DUP9 DUP2 MSTORE DUP5 DUP2 ADD DUP11 DUP2 MSTORE DUP8 DUP3 ADD SWAP1 DUP8 DUP3 MSTORE PUSH1 0x60 DUP4 ADD SWAP3 TIMESTAMP DUP5 MSTORE PUSH1 0x80 DUP2 ADD SWAP5 PUSH1 0x1 DUP7 MSTORE DUP1 SLOAD SWAP1 PUSH1 0x1 PUSH1 0x40 SHL DUP3 LT ISZERO PUSH2 0x3D06 JUMPI SWAP1 PUSH2 0x3C6E SWAP2 PUSH1 0x1 DUP3 ADD DUP2 SSTORE PUSH2 0x40F8 JUMP JUMPDEST SWAP8 SWAP1 SWAP8 PUSH2 0x3CF5 JUMPI POP MLOAD DUP7 SSTORE MLOAD PUSH1 0x1 DUP7 ADD SSTORE MLOAD PUSH1 0x2 DUP6 ADD SSTORE MLOAD PUSH1 0x3 DUP5 ADD SSTORE MLOAD SWAP2 ADD DUP1 SLOAD PUSH1 0xFF NOT AND SWAP2 ISZERO ISZERO PUSH1 0xFF AND SWAP2 SWAP1 SWAP2 OR SWAP1 SSTORE PUSH32 0xD975A013E674F51FF6B9D1144095CBE8D88C8A4EBAC520FFDCE1B92EEE22E99B SWAP3 SWAP2 SWAP1 DUP5 PUSH0 MSTORE PUSH1 0x12 DUP2 MSTORE DUP3 PUSH0 KECCAK256 PUSH2 0x3CD8 DUP2 SLOAD PUSH2 0x414A JUMP JUMPDEST SWAP1 SSTORE PUSH2 0x3CE5 PUSH1 0x17 SLOAD PUSH2 0x414A JUMP JUMPDEST PUSH1 0x17 SSTORE DUP3 MLOAD SWAP2 DUP3 MSTORE TIMESTAMP SWAP1 DUP3 ADD MSTORE LOG4 STOP JUMPDEST PUSH4 0x4E487B71 PUSH1 0xE0 SHL PUSH0 SWAP1 DUP2 MSTORE DUP1 DUP9 MSTORE REVERT JUMPDEST DUP9 PUSH1 0x41 DUP10 PUSH4 0x4E487B71 PUSH1 0xE0 SHL PUSH0 MSTORE MSTORE PUSH0 REVERT JUMPDEST POP PUSH1 0x11 SWAP1 PUSH4 0x4E487B71 PUSH1 0xE0 SHL PUSH0 MSTORE MSTORE PUSH0 REVERT JUMPDEST PUSH1 0xF PUSH1 0x64 SWAP3 DUP5 DUP8 MLOAD SWAP4 PUSH3 0x461BCD PUSH1 0xE5 SHL DUP6 MSTORE DUP5 ADD MSTORE DUP3 ADD MSTORE PUSH15 0x105B1C9958591E48199B1859D9D959 PUSH1 0x8A SHL PUSH1 0x44 DUP3 ADD MSTORE REVERT JUMPDEST SWAP1 PUSH1 0x10 PUSH1 0x64 SWAP3 PUSH1 0x20 DUP7 MLOAD SWAP4 PUSH3 0x461BCD PUSH1 0xE5 SHL DUP6 MSTORE DUP5 ADD MSTORE DUP3 ADD MSTORE PUSH16 0x24B73B30B634B210383937BB34B232B9 PUSH1 0x81 SHL PUSH1 0x44 DUP3 ADD MSTORE REVERT JUMPDEST SWAP1 PUSH1 0xE PUSH1 0x64 SWAP3 PUSH1 0x20 DUP7 MLOAD SWAP4 PUSH3 0x461BCD PUSH1 0xE5 SHL DUP6 MSTORE DUP5 ADD MSTORE DUP3 ADD MSTORE PUSH14 0x125B9D985B1A59081C9958DBDC99 PUSH1 0x92 SHL PUSH1 0x44 DUP3 ADD MSTORE REVERT JUMPDEST SWAP1 PUSH1 0xF PUSH1 0x64 SWAP3 PUSH1 0x20 DUP7 MLOAD SWAP4 PUSH3 0x461BCD PUSH1 0xE5 SHL DUP6 MSTORE DUP5 ADD MSTORE DUP3 ADD MSTORE PUSH15 0x125B9D985B1A59081CDD589A9958DD PUSH1 0x8A SHL PUSH1 0x44 DUP3 ADD MSTORE REVERT JUMPDEST PUSH1 0x40 SWAP1 PUSH1 0x3 NOT ADD SLT PUSH2 0x882 JUMPI PUSH1 0x4 CALLDATALOAD SWAP1 PUSH1 0x24 CALLDATALOAD SWAP1 JUMP JUMPDEST PUSH1 0x4 GT ISZERO PUSH2 0x3E18 JUMPI JUMP JUMPDEST PUSH4 0x4E487B71 PUSH1 0xE0 SHL PUSH0 MSTORE PUSH1 0x21 PUSH1 0x4 MSTORE PUSH1 0x24 PUSH0 REVERT JUMPDEST PUSH1 0x24 CALLDATALOAD SWAP1 PUSH1 0xFF DUP3 AND DUP3 SUB PUSH2 0x882 JUMPI JUMP JUMPDEST PUSH1 0x44 CALLDATALOAD SWAP1 PUSH1 0xFF DUP3 AND DUP3 SUB PUSH2 0x882 JUMPI JUMP JUMPDEST PUSH1 0x64 CALLDATALOAD SWAP1 PUSH1 0xFF DUP3 AND DUP3 SUB PUSH2 0x882 JUMPI JUMP JUMPDEST PUSH1 0xA0 DUP2 ADD SWAP1 DUP2 LT PUSH8 0xFFFFFFFFFFFFFFFF DUP3 GT OR PUSH2 0x3E78 JUMPI PUSH1 0x40 MSTORE JUMP JUMPDEST PUSH4 0x4E487B71 PUSH1 0xE0 SHL PUSH0 MSTORE PUSH1 0x41 PUSH1 0x4 MSTORE PUSH1 0x24 PUSH0 REVERT JUMPDEST PUSH1 0xE0 DUP2 ADD SWAP1 DUP2 LT PUSH8 0xFFFFFFFFFFFFFFFF DUP3 GT OR PUSH2 0x3E78 JUMPI PUSH1 0x40 MSTORE JUMP JUMPDEST PUSH1 0xC0 DUP2 ADD SWAP1 DUP2 LT PUSH8 0xFFFFFFFFFFFFFFFF DUP3 GT OR PUSH2 0x3E78 JUMPI PUSH1 0x40 MSTORE JUMP JUMPDEST PUSH8 0xFFFFFFFFFFFFFFFF DUP2 GT PUSH2 0x3E78 JUMPI PUSH1 0x40 MSTORE JUMP JUMPDEST SWAP1 PUSH1 0x1F DUP1 NOT SWAP2 ADD AND DUP2 ADD SWAP1 DUP2 LT PUSH8 0xFFFFFFFFFFFFFFFF DUP3 GT OR PUSH2 0x3E78 JUMPI PUSH1 0x40 MSTORE JUMP JUMPDEST SWAP3 SWAP2 SWAP3 PUSH8 0xFFFFFFFFFFFFFFFF DUP3 GT PUSH2 0x3E78 JUMPI PUSH1 0x40 MLOAD SWAP2 PUSH2 0x3F24 PUSH1 0x1F DUP3 ADD PUSH1 0x1F NOT AND PUSH1 0x20 ADD DUP5 PUSH2 0x3ED8 JUMP JUMPDEST DUP3 SWAP5 DUP2 DUP5 MSTORE DUP2 DUP4 ADD GT PUSH2 0x882 JUMPI DUP3 DUP2 PUSH1 0x20 SWAP4 DUP5 PUSH0 SWAP7 ADD CALLDATACOPY ADD ADD MSTORE JUMP JUMPDEST SWAP1 PUSH1 0x6 DUP3 LT ISZERO PUSH2 0x3E18 JUMPI MSTORE JUMP JUMPDEST SWAP2 SWAP1 DUP3 MLOAD SWAP3 DUP4 DUP3 MSTORE PUSH0 JUMPDEST DUP5 DUP2 LT PUSH2 0x3F77 JUMPI POP POP DUP3 PUSH0 PUSH1 0x20 DUP1 SWAP5 SWAP6 DUP5 ADD ADD MSTORE PUSH1 0x1F DUP1 NOT SWAP2 ADD AND ADD ADD SWAP1 JUMP JUMPDEST PUSH1 0x20 DUP2 DUP4 ADD DUP2 ADD MLOAD DUP5 DUP4 ADD DUP3 ADD MSTORE ADD PUSH2 0x3F57 JUMP JUMPDEST PUSH1 0x4 CALLDATALOAD SWAP1 PUSH1 0x1 PUSH1 0x1 PUSH1 0xA0 SHL SUB DUP3 AND DUP3 SUB PUSH2 0x882 JUMPI JUMP JUMPDEST PUSH1 0x20 SWAP1 PUSH1 0x20 PUSH1 0x40 DUP2 DUP4 ADD SWAP3 DUP3 DUP2 MSTORE DUP6 MLOAD DUP1 SWAP5 MSTORE ADD SWAP4 ADD SWAP2 PUSH0 JUMPDEST DUP3 DUP2 LT PUSH2 0x3FC8 JUMPI POP POP POP POP SWAP1 JUMP JUMPDEST DUP4 MLOAD DUP6 MSTORE SWAP4 DUP2 ADD SWAP4 SWAP3 DUP2 ADD SWAP3 PUSH1 0x1 ADD PUSH2 0x3FBA JUMP JUMPDEST DUP1 SLOAD DUP3 LT ISZERO PUSH2 0x3FF1 JUMPI PUSH0 MSTORE PUSH1 0x20 PUSH0 KECCAK256 ADD SWAP1 PUSH0 SWAP1 JUMP JUMPDEST PUSH4 0x4E487B71 PUSH1 0xE0 SHL PUSH0 MSTORE PUSH1 0x32 PUSH1 0x4 MSTORE PUSH1 0x24 PUSH0 REVERT JUMPDEST DUP1 SLOAD DUP3 LT ISZERO PUSH2 0x3FF1 JUMPI PUSH0 MSTORE PUSH1 0x6 PUSH1 0x20 PUSH0 KECCAK256 SWAP2 MUL ADD SWAP1 PUSH0 SWAP1 JUMP JUMPDEST SWAP1 PUSH1 0x1 DUP3 DUP2 SHR SWAP3 AND DUP1 ISZERO PUSH2 0x404C JUMPI JUMPDEST PUSH1 0x20 DUP4 LT EQ PUSH2 0x4038 JUMPI JUMP JUMPDEST PUSH4 0x4E487B71 PUSH1 0xE0 SHL PUSH0 MSTORE PUSH1 0x22 PUSH1 0x4 MSTORE PUSH1 0x24 PUSH0 REVERT JUMPDEST SWAP2 PUSH1 0x7F AND SWAP2 PUSH2 0x402D JUMP JUMPDEST SWAP1 PUSH1 0x40 MLOAD SWAP2 DUP3 PUSH0 DUP3 SLOAD PUSH2 0x4068 DUP2 PUSH2 0x401E JUMP JUMPDEST SWAP1 DUP2 DUP5 MSTORE PUSH1 0x20 SWAP5 PUSH1 0x1 SWAP2 PUSH1 0x1 DUP2 AND SWAP1 DUP2 PUSH0 EQ PUSH2 0x40D6 JUMPI POP PUSH1 0x1 EQ PUSH2 0x4098 JUMPI JUMPDEST POP POP POP PUSH2 0x4096 SWAP3 POP SUB DUP4 PUSH2 0x3ED8 JUMP JUMPDEST JUMP JUMPDEST PUSH0 SWAP1 DUP2 MSTORE DUP6 DUP2 KECCAK256 SWAP6 SWAP4 POP SWAP2 SWAP1 JUMPDEST DUP2 DUP4 LT PUSH2 0x40BE JUMPI POP POP PUSH2 0x4096 SWAP4 POP DUP3 ADD ADD PUSH0 DUP1 DUP1 PUSH2 0x4087 JUMP JUMPDEST DUP6 SLOAD DUP9 DUP5 ADD DUP6 ADD MSTORE SWAP5 DUP6 ADD SWAP5 DUP8 SWAP5 POP SWAP2 DUP4 ADD SWAP2 PUSH2 0x40A5 JUMP JUMPDEST SWAP3 POP POP POP PUSH2 0x4096 SWAP5 SWAP3 POP PUSH1 0xFF NOT AND DUP3 DUP5 ADD MSTORE ISZERO ISZERO PUSH1 0x5 SHL DUP3 ADD ADD PUSH0 DUP1 DUP1 PUSH2 0x4087 JUMP JUMPDEST DUP1 SLOAD DUP3 LT ISZERO PUSH2 0x3FF1 JUMPI PUSH0 MSTORE PUSH1 0x5 PUSH1 0x20 PUSH0 KECCAK256 SWAP2 MUL ADD SWAP1 PUSH0 SWAP1 JUMP JUMPDEST ISZERO PUSH2 0x4118 JUMPI JUMP JUMPDEST PUSH1 0x40 MLOAD PUSH3 0x461BCD PUSH1 0xE5 SHL DUP2 MSTORE PUSH1 0x20 PUSH1 0x4 DUP3 ADD MSTORE PUSH1 0xA PUSH1 0x24 DUP3 ADD MSTORE PUSH10 0x27B7363C9030B236B4B7 PUSH1 0xB1 SHL PUSH1 0x44 DUP3 ADD MSTORE PUSH1 0x64 SWAP1 REVERT JUMPDEST PUSH0 NOT DUP2 EQ PUSH2 0x4158 JUMPI PUSH1 0x1 ADD SWAP1 JUMP JUMPDEST PUSH4 0x4E487B71 PUSH1 0xE0 SHL PUSH0 MSTORE PUSH1 0x11 PUSH1 0x4 MSTORE PUSH1 0x24 PUSH0 REVERT JUMPDEST SWAP1 PUSH1 0x40 MLOAD PUSH2 0x4179 DUP2 PUSH2 0x3E5C JUMP JUMPDEST PUSH1 0x80 PUSH1 0xFF PUSH1 0x4 DUP4 SWAP6 DUP1 SLOAD DUP6 MSTORE PUSH1 0x1 DUP2 ADD SLOAD PUSH1 0x20 DUP7 ADD MSTORE DUP3 PUSH1 0x2 DUP3 ADD SLOAD AND PUSH2 0x419F DUP2 PUSH2 0x3E0E JUMP JUMPDEST PUSH1 0x40 DUP7 ADD MSTORE PUSH1 0x3 DUP2 ADD SLOAD PUSH1 0x60 DUP7 ADD MSTORE ADD SLOAD AND ISZERO ISZERO SWAP2 ADD MSTORE JUMP JUMPDEST SWAP2 SWAP1 SWAP2 DUP1 PUSH0 MSTORE PUSH1 0x20 SWAP1 PUSH1 0xB DUP3 MSTORE PUSH1 0x40 SWAP4 DUP5 PUSH0 KECCAK256 DUP2 PUSH0 MSTORE DUP4 MSTORE PUSH1 0xFF DUP6 PUSH0 KECCAK256 SLOAD AND ISZERO PUSH2 0x4234 JUMPI DUP2 PUSH2 0x4206 SWAP2 PUSH2 0x420C SWAP4 PUSH0 MSTORE PUSH1 0xC DUP6 MSTORE DUP7 PUSH0 KECCAK256 SWAP1 PUSH0 MSTORE DUP5 MSTORE DUP6 PUSH0 KECCAK256 SLOAD SWAP1 PUSH0 MSTORE PUSH1 0xA DUP5 MSTORE DUP6 PUSH0 KECCAK256 PUSH2 0x40F8 JUMP JUMPDEST POP PUSH2 0x416C JUMP JUMPDEST SWAP1 DUP2 ADD MLOAD SWAP3 DUP2 ADD MLOAD SWAP2 PUSH2 0x421E DUP4 PUSH2 0x3E0E JUMP JUMPDEST PUSH1 0x80 PUSH1 0x60 DUP4 ADD MLOAD SWAP3 ADD MLOAD ISZERO ISZERO SWAP1 PUSH1 0x1 SWAP5 SWAP4 SWAP3 SWAP2 SWAP1 JUMP JUMPDEST POP PUSH0 SWAP4 POP DUP4 SWAP3 DUP4 SWAP3 POP DUP3 SWAP2 POP DUP2 SWAP1 JUMP JUMPDEST ISZERO PUSH2 0x424B JUMPI JUMP JUMPDEST PUSH1 0x40 MLOAD PUSH3 0x461BCD PUSH1 0xE5 SHL DUP2 MSTORE PUSH1 0x20 PUSH1 0x4 DUP3 ADD MSTORE PUSH1 0x14 PUSH1 0x24 DUP3 ADD MSTORE PUSH20 0x5365766572697479206D75737420626520312D33 PUSH1 0x60 SHL PUSH1 0x44 DUP3 ADD MSTORE PUSH1 0x64 SWAP1 REVERT JUMPDEST ISZERO PUSH2 0x428E JUMPI JUMP JUMPDEST PUSH1 0x40 MLOAD PUSH3 0x461BCD PUSH1 0xE5 SHL DUP2 MSTORE PUSH1 0x20 PUSH1 0x4 DUP3 ADD MSTORE PUSH1 0x17 PUSH1 0x24 DUP3 ADD MSTORE PUSH32 0x43756C706162696C697479206D75737420626520302D35000000000000000000 PUSH1 0x44 DUP3 ADD MSTORE PUSH1 0x64 SWAP1 REVERT JUMPDEST ISZERO PUSH2 0x42DA JUMPI JUMP JUMPDEST PUSH1 0x40 MLOAD PUSH3 0x461BCD PUSH1 0xE5 SHL DUP2 MSTORE PUSH1 0x20 PUSH1 0x4 DUP3 ADD MSTORE PUSH1 0x15 PUSH1 0x24 DUP3 ADD MSTORE PUSH21 0x15D85B1B195D081B9BDD081C9959DA5CDD195C9959 PUSH1 0x5A SHL PUSH1 0x44 DUP3 ADD MSTORE PUSH1 0x64 SWAP1 REVERT JUMPDEST SWAP1 PUSH2 0x4321 DUP2 PUSH2 0x3E0E JUMP JUMPDEST PUSH1 0xFF DUP1 NOT DUP4 SLOAD AND SWAP2 AND OR SWAP1 SSTORE JUMP JUMPDEST SWAP1 PUSH1 0x6 DUP2 LT ISZERO PUSH2 0x3E18 JUMPI PUSH2 0xFF00 DUP3 SLOAD SWAP2 PUSH1 0x8 SHL AND SWAP1 PUSH2 0xFF00 NOT AND OR SWAP1 SSTORE JUMP JUMPDEST PUSH8 0xFFFFFFFFFFFFFFFF DUP2 GT PUSH2 0x3E78 JUMPI PUSH1 0x5 SHL PUSH1 0x20 ADD SWAP1 JUMP JUMPDEST DUP1 MLOAD DUP3 LT ISZERO PUSH2 0x3FF1 JUMPI PUSH1 0x20 SWAP2 PUSH1 0x5 SHL ADD ADD SWAP1 JUMP JUMPDEST SWAP1 DUP2 PUSH1 0x20 SWAP2 SUB SLT PUSH2 0x882 JUMPI MLOAD DUP1 ISZERO ISZERO DUP2 SUB PUSH2 0x882 JUMPI SWAP1 JUMP JUMPDEST ISZERO PUSH2 0x4399 JUMPI JUMP JUMPDEST PUSH1 0x40 MLOAD PUSH3 0x461BCD PUSH1 0xE5 SHL DUP2 MSTORE PUSH1 0x20 PUSH1 0x4 DUP3 ADD MSTORE PUSH1 0x14 PUSH1 0x24 DUP3 ADD MSTORE PUSH20 0x2737BA1030B71030B1BA34BB329036B2B6B132B9 PUSH1 0x61 SHL PUSH1 0x44 DUP3 ADD MSTORE PUSH1 0x64 SWAP1 REVERT JUMPDEST ISZERO PUSH2 0x43DC JUMPI JUMP JUMPDEST PUSH1 0x40 MLOAD PUSH3 0x461BCD PUSH1 0xE5 SHL DUP2 MSTORE PUSH1 0x20 PUSH1 0x4 DUP3 ADD MSTORE PUSH1 0x18 PUSH1 0x24 DUP3 ADD MSTORE PUSH32 0x4E6F2061636365737320746F2074686973207265636F72640000000000000000 PUSH1 0x44 DUP3 ADD MSTORE PUSH1 0x64 SWAP1 REVERT JUMPDEST ISZERO PUSH2 0x4428 JUMPI JUMP JUMPDEST PUSH1 0x40 MLOAD PUSH3 0x461BCD PUSH1 0xE5 SHL DUP2 MSTORE PUSH1 0x20 PUSH1 0x4 DUP3 ADD MSTORE PUSH1 0x19 PUSH1 0x24 DUP3 ADD MSTORE PUSH32 0x5265636F72642049442063616E6E6F7420626520656D70747900000000000000 PUSH1 0x44 DUP3 ADD MSTORE PUSH1 0x64 SWAP1 REVERT JUMPDEST ISZERO PUSH2 0x4474 JUMPI JUMP JUMPDEST PUSH1 0x40 MLOAD PUSH3 0x461BCD PUSH1 0xE5 SHL DUP2 MSTORE PUSH1 0x20 PUSH1 0x4 DUP3 ADD MSTORE PUSH1 0x1B PUSH1 0x24 DUP3 ADD MSTORE PUSH32 0x5265636F726420686173682063616E6E6F7420626520656D7074790000000000 PUSH1 0x44 DUP3 ADD MSTORE PUSH1 0x64 SWAP1 REVERT JUMPDEST ISZERO PUSH2 0x44C0 JUMPI JUMP JUMPDEST PUSH1 0x40 MLOAD PUSH3 0x461BCD PUSH1 0xE5 SHL DUP2 MSTORE PUSH1 0x20 PUSH1 0x4 DUP3 ADD MSTORE PUSH1 0x23 PUSH1 0x24 DUP3 ADD MSTORE PUSH32 0x4861736820646F6573206E6F742062656C6F6E6720746F207468697320726563 PUSH1 0x44 DUP3 ADD MSTORE PUSH3 0x1BDC99 PUSH1 0xEA SHL PUSH1 0x64 DUP3 ADD MSTORE PUSH1 0x84 SWAP1 REVERT JUMPDEST PUSH1 0x6 DUP3 LT ISZERO PUSH2 0x3E18 JUMPI MSTORE JUMP JUMPDEST DUP1 SLOAD PUSH1 0x1 PUSH1 0x40 SHL DUP2 LT ISZERO PUSH2 0x3E78 JUMPI PUSH2 0x453A SWAP2 PUSH1 0x1 DUP3 ADD DUP2 SSTORE PUSH2 0x3FDC JUMP JUMPDEST DUP2 SWAP3 SWAP2 SLOAD SWAP1 PUSH1 0x3 SHL SWAP2 DUP3 SHL SWAP2 PUSH0 NOT SWAP1 SHL NOT AND OR SWAP1 SSTORE JUMP JUMPDEST SWAP1 PUSH1 0x40 MLOAD PUSH2 0x455E DUP2 PUSH2 0x3E8C JUMP JUMPDEST PUSH1 0xC0 PUSH1 0xFF PUSH1 0x5 DUP4 SWAP6 DUP1 SLOAD DUP6 MSTORE PUSH1 0x1 DUP2 ADD SLOAD PUSH1 0x20 DUP7 ADD MSTORE PUSH2 0x459B DUP4 PUSH1 0x2 DUP4 ADD SLOAD DUP2 DUP2 AND PUSH2 0x4589 DUP2 PUSH2 0x3E0E JUMP JUMPDEST PUSH1 0x40 DUP10 ADD MSTORE PUSH1 0x8 SHR AND PUSH1 0x60 DUP8 ADD PUSH2 0x4511 JUMP JUMPDEST PUSH2 0x45A7 PUSH1 0x3 DUP3 ADD PUSH2 0x4056 JUMP JUMPDEST PUSH1 0x80 DUP7 ADD MSTORE PUSH1 0x4 DUP2 ADD SLOAD PUSH1 0xA0 DUP7 ADD MSTORE ADD SLOAD AND ISZERO ISZERO SWAP2 ADD MSTORE JUMP JUMPDEST SWAP1 PUSH1 0x40 MLOAD PUSH2 0x45CD DUP2 PUSH2 0x3E5C JUMP JUMPDEST PUSH1 0x80 PUSH1 0xFF PUSH1 0x4 DUP4 SWAP6 DUP1 SLOAD DUP6 MSTORE PUSH1 0x1 DUP2 ADD SLOAD PUSH1 0x20 DUP7 ADD MSTORE PUSH1 0x2 DUP2 ADD SLOAD PUSH1 0x40 DUP7 ADD MSTORE PUSH1 0x3 DUP2 ADD SLOAD PUSH1 0x60 DUP7 ADD MSTORE ADD SLOAD AND ISZERO ISZERO SWAP2 ADD MSTORE JUMP JUMPDEST SWAP1 DUP2 PUSH0 MSTORE PUSH1 0x11 PUSH1 0x20 MSTORE PUSH1 0x40 PUSH0 KECCAK256 SWAP1 PUSH0 MSTORE PUSH1 0x20 MSTORE PUSH1 0x40 PUSH0 KECCAK256 SLOAD SWAP1 DUP2 ISZERO PUSH2 0x4669 JUMPI PUSH0 MSTORE PUSH1 0x10 PUSH1 0x20 MSTORE PUSH1 0x40 PUSH0 KECCAK256 PUSH0 NOT DUP3 ADD SWAP2 DUP3 GT PUSH2 0x4158 JUMPI PUSH2 0x4649 SWAP2 PUSH2 0x4643 SWAP2 PUSH2 0x40F8 JUMP JUMPDEST POP PUSH2 0x45C0 JUMP JUMPDEST PUSH1 0x80 DUP2 ADD MLOAD PUSH1 0x20 DUP3 ADD MLOAD PUSH1 0x40 DUP4 ADD MLOAD PUSH1 0x60 SWAP1 SWAP4 ADD MLOAD PUSH1 0x1 SWAP5 SWAP3 ISZERO ISZERO SWAP4 SWAP2 SWAP3 JUMP JUMPDEST POP POP PUSH0 SWAP1 PUSH0 SWAP1 PUSH0 SWAP1 PUSH0 SWAP1 PUSH0 SWAP1 JUMP JUMPDEST SWAP2 SWAP1 SWAP2 DUP1 PUSH0 MSTORE PUSH1 0x20 SWAP1 PUSH1 0xE DUP3 MSTORE PUSH1 0x40 SWAP4 DUP5 PUSH0 KECCAK256 DUP2 PUSH0 MSTORE DUP4 MSTORE PUSH1 0xFF DUP6 PUSH0 KECCAK256 SLOAD AND ISZERO PUSH2 0x470A JUMPI DUP2 PUSH2 0x46C5 SWAP2 PUSH2 0x46CB SWAP4 PUSH0 MSTORE PUSH1 0xF DUP6 MSTORE DUP7 PUSH0 KECCAK256 SWAP1 PUSH0 MSTORE DUP5 MSTORE DUP6 PUSH0 KECCAK256 SLOAD SWAP1 PUSH0 MSTORE PUSH1 0xD DUP5 MSTORE DUP6 PUSH0 KECCAK256 PUSH2 0x4005 JUMP JUMPDEST POP PUSH2 0x4551 JUMP JUMPDEST SWAP1 DUP2 ADD MLOAD SWAP3 DUP2 ADD MLOAD SWAP2 PUSH2 0x46DD DUP4 PUSH2 0x3E0E JUMP JUMPDEST PUSH1 0x60 DUP3 ADD MLOAD SWAP2 PUSH1 0x6 DUP4 LT ISZERO PUSH2 0x3E18 JUMPI PUSH1 0x80 DUP2 ADD MLOAD SWAP2 PUSH1 0xC0 PUSH1 0xA0 DUP4 ADD MLOAD SWAP3 ADD MLOAD ISZERO ISZERO SWAP1 PUSH1 0x1 SWAP7 SWAP6 SWAP5 SWAP4 SWAP3 SWAP2 SWAP1 JUMP JUMPDEST POP POP PUSH0 SWAP3 PUSH0 SWAP3 PUSH0 SWAP3 PUSH0 SWAP3 DUP1 MLOAD SWAP2 DUP3 ADD SWAP1 DUP3 DUP3 LT PUSH8 0xFFFFFFFFFFFFFFFF DUP4 GT OR PUSH2 0x3E78 JUMPI MSTORE PUSH0 DUP2 MSTORE SWAP1 PUSH0 SWAP1 PUSH0 SWAP1 JUMP JUMPDEST ISZERO PUSH2 0x473F JUMPI JUMP JUMPDEST PUSH1 0x40 MLOAD PUSH3 0x461BCD PUSH1 0xE5 SHL DUP2 MSTORE PUSH1 0x20 PUSH1 0x4 DUP3 ADD MSTORE PUSH1 0x11 PUSH1 0x24 DUP3 ADD MSTORE PUSH17 0x105B1C9958591E481C995D1C9858DD1959 PUSH1 0x7A SHL PUSH1 0x44 DUP3 ADD MSTORE PUSH1 0x64 SWAP1 REVERT JUMPDEST ISZERO PUSH2 0x477F JUMPI JUMP JUMPDEST PUSH1 0x40 MLOAD PUSH3 0x461BCD PUSH1 0xE5 SHL DUP2 MSTORE PUSH1 0x20 PUSH1 0x4 DUP3 ADD MSTORE PUSH1 0xF PUSH1 0x24 DUP3 ADD MSTORE PUSH15 0x496E76616C69642061646472657373 PUSH1 0x88 SHL PUSH1 0x44 DUP3 ADD MSTORE PUSH1 0x64 SWAP1 REVERT JUMPDEST ISZERO PUSH2 0x47BD JUMPI JUMP JUMPDEST PUSH1 0x40 MLOAD PUSH3 0x461BCD PUSH1 0xE5 SHL DUP2 MSTORE PUSH1 0x20 PUSH1 0x4 DUP3 ADD MSTORE PUSH1 0x11 PUSH1 0x24 DUP3 ADD MSTORE PUSH17 0x4C6576656C206D75737420626520312D33 PUSH1 0x78 SHL PUSH1 0x44 DUP3 ADD MSTORE PUSH1 0x64 SWAP1 REVERT JUMPDEST PUSH0 SLOAD PUSH1 0x40 MLOAD PUSH3 0xB0C809 PUSH1 0xE0 SHL DUP2 MSTORE CALLER PUSH1 0x4 DUP3 ADD MSTORE PUSH1 0x20 SWAP2 PUSH1 0x1 PUSH1 0x1 PUSH1 0xA0 SHL SUB AND SWAP1 DUP3 DUP2 PUSH1 0x24 DUP2 DUP6 GAS STATICCALL SWAP1 DUP2 ISZERO PUSH2 0x48EC JUMPI PUSH0 SWAP2 PUSH2 0x4907 JUMPI JUMPDEST POP PUSH2 0x4839 DUP2 ISZERO ISZERO PUSH2 0x42D3 JUMP JUMPDEST DUP4 ISZERO DUP1 ISZERO PUSH2 0x48FE JUMPI JUMPDEST PUSH2 0x48F7 JUMPI DUP3 SWAP1 PUSH1 0x44 PUSH1 0x40 MLOAD DUP1 SWAP5 DUP2 SWAP4 PUSH4 0x557EE54F PUSH1 0xE0 SHL DUP4 MSTORE DUP9 PUSH1 0x4 DUP5 ADD MSTORE PUSH1 0x24 DUP4 ADD MSTORE GAS STATICCALL SWAP1 DUP2 ISZERO PUSH2 0x48EC JUMPI PUSH0 SWAP2 PUSH2 0x48CF JUMPI JUMPDEST POP ISZERO PUSH2 0x4880 JUMPI POP SWAP1 JUMP JUMPDEST PUSH1 0x84 SWAP1 PUSH1 0x40 MLOAD SWAP1 PUSH3 0x461BCD PUSH1 0xE5 SHL DUP3 MSTORE PUSH1 0x4 DUP3 ADD MSTORE PUSH1 0x22 PUSH1 0x24 DUP3 ADD MSTORE PUSH32 0x4E6F74206120636F6E74726F6C6C657220666F722074686973206964656E7469 PUSH1 0x44 DUP3 ADD MSTORE PUSH2 0x7479 PUSH1 0xF0 SHL PUSH1 0x64 DUP3 ADD MSTORE REVERT JUMPDEST PUSH2 0x48E6 SWAP2 POP DUP3 RETURNDATASIZE DUP5 GT PUSH2 0xD7B JUMPI PUSH2 0xD6D DUP2 DUP4 PUSH2 0x3ED8 JUMP JUMPDEST PUSH0 PUSH2 0x4876 JUMP JUMPDEST PUSH1 0x40 MLOAD RETURNDATASIZE PUSH0 DUP3 RETURNDATACOPY RETURNDATASIZE SWAP1 REVERT JUMPDEST SWAP3 POP POP POP SWAP1 JUMP JUMPDEST POP DUP1 DUP5 EQ PUSH2 0x4842 JUMP JUMPDEST SWAP1 POP DUP3 DUP2 DUP2 RETURNDATASIZE DUP4 GT PUSH2 0x492D JUMPI JUMPDEST PUSH2 0x491E DUP2 DUP4 PUSH2 0x3ED8 JUMP JUMPDEST DUP2 ADD SUB SLT PUSH2 0x882 JUMPI MLOAD PUSH0 PUSH2 0x482D JUMP JUMPDEST POP RETURNDATASIZE PUSH2 0x4914 JUMP JUMPDEST SWAP2 SWAP3 DUP2 PUSH0 MSTORE PUSH1 0x20 SWAP1 PUSH1 0xA DUP3 MSTORE PUSH1 0x40 SWAP1 DUP2 PUSH0 KECCAK256 SWAP3 PUSH1 0xFF DUP5 SLOAD SWAP3 AND SWAP2 PUSH2 0x4957 DUP4 PUSH2 0x3E0E JUMP JUMPDEST DUP4 MLOAD SWAP5 PUSH2 0x4963 DUP7 PUSH2 0x3E5C JUMP JUMPDEST DUP9 DUP7 MSTORE DUP3 DUP7 ADD SWAP1 DUP9 DUP3 MSTORE DUP6 DUP8 ADD SWAP2 PUSH2 0x497A DUP7 PUSH2 0x3E0E JUMP JUMPDEST DUP6 DUP4 MSTORE PUSH1 0x60 DUP9 ADD SWAP2 TIMESTAMP DUP4 MSTORE PUSH1 0x80 DUP10 ADD SWAP1 PUSH1 0x1 DUP3 MSTORE PUSH1 0x1 PUSH1 0x40 SHL DUP7 LT ISZERO PUSH2 0x3E78 JUMPI DUP6 PUSH2 0x49AA SWAP2 PUSH1 0x1 DUP3 ADD DUP2 SSTORE PUSH2 0x40F8 JUMP JUMPDEST SWAP4 SWAP1 SWAP4 PUSH2 0x4A82 JUMPI PUSH2 0x49F9 PUSH2 0x4A15 SWAP6 PUSH1 0x4 SWAP5 PUSH32 0x9F44978447988782BA02B3E977811604129DC2032D4CFC97AAADACB68BEA9F35 SWAP13 MLOAD DUP8 SSTORE MLOAD PUSH1 0x1 DUP8 ADD SSTORE MLOAD PUSH2 0x49F0 DUP2 PUSH2 0x3E0E JUMP JUMPDEST PUSH1 0x2 DUP7 ADD PUSH2 0x4317 JUMP JUMPDEST MLOAD PUSH1 0x3 DUP5 ADD SSTORE MLOAD ISZERO ISZERO SWAP2 ADD SWAP1 PUSH1 0xFF DUP1 NOT DUP4 SLOAD AND SWAP2 ISZERO ISZERO AND OR SWAP1 SSTORE JUMP JUMPDEST DUP6 PUSH0 MSTORE PUSH1 0xB DUP3 MSTORE DUP4 PUSH0 KECCAK256 DUP9 PUSH0 MSTORE DUP3 MSTORE DUP4 PUSH0 KECCAK256 PUSH1 0x1 PUSH1 0xFF NOT DUP3 SLOAD AND OR SWAP1 SSTORE DUP6 PUSH0 MSTORE PUSH1 0xC DUP3 MSTORE DUP4 PUSH0 KECCAK256 DUP9 PUSH0 MSTORE DUP3 MSTORE DUP4 PUSH0 KECCAK256 SSTORE PUSH1 0x13 DUP2 MSTORE PUSH2 0x4A55 DUP6 DUP5 PUSH0 KECCAK256 PUSH2 0x451D JUMP JUMPDEST PUSH2 0x4A60 PUSH1 0x15 SLOAD PUSH2 0x414A JUMP JUMPDEST PUSH1 0x15 SSTORE PUSH2 0x4A6C DUP3 PUSH2 0x3E0E JUMP JUMPDEST DUP3 MLOAD SWAP2 PUSH2 0x4A78 DUP2 PUSH2 0x3E0E JUMP JUMPDEST DUP3 MSTORE TIMESTAMP SWAP1 DUP3 ADD MSTORE LOG4 JUMP JUMPDEST PUSH4 0x4E487B71 PUSH1 0xE0 SHL PUSH0 MSTORE PUSH0 PUSH1 0x4 MSTORE PUSH1 0x24 PUSH0 REVERT JUMPDEST SWAP3 SWAP2 SWAP1 PUSH1 0xFF DUP4 AND PUSH1 0x1 DUP2 LT SWAP1 DUP2 ISZERO PUSH2 0x4B08 JUMPI JUMPDEST POP PUSH2 0x4B02 JUMPI DUP1 PUSH0 MSTORE PUSH1 0x6 PUSH1 0x20 MSTORE DUP4 PUSH1 0x40 PUSH0 KECCAK256 SLOAD SUB PUSH2 0x4B02 JUMPI PUSH1 0xB PUSH1 0x20 MSTORE PUSH1 0x40 PUSH0 KECCAK256 DUP3 PUSH0 MSTORE PUSH1 0x20 MSTORE PUSH1 0xFF PUSH1 0x40 PUSH0 KECCAK256 SLOAD AND PUSH2 0x4B02 JUMPI DUP1 PUSH0 MSTORE PUSH1 0xE PUSH1 0x20 MSTORE PUSH1 0x40 PUSH0 KECCAK256 DUP3 PUSH0 MSTORE PUSH1 0x20 MSTORE PUSH1 0xFF PUSH1 0x40 PUSH0 KECCAK256 SLOAD AND PUSH2 0x4B02 JUMPI PUSH2 0x4096 SWAP4 PUSH2 0x4934 JUMP JUMPDEST POP POP POP POP JUMP JUMPDEST PUSH1 0x3 SWAP2 POP GT PUSH0 PUSH2 0x4AA8 JUMP JUMPDEST SWAP1 PUSH0 DUP1 SWAP2 PUSH1 0x20 DUP2 MLOAD SWAP2 ADD DUP5 GAS DELEGATECALL DUP1 DUP1 PUSH2 0x4B91 JUMPI JUMPDEST ISZERO PUSH2 0x4B47 JUMPI POP POP PUSH1 0x40 MLOAD RETURNDATASIZE DUP2 MSTORE RETURNDATASIZE PUSH0 PUSH1 0x20 DUP4 ADD RETURNDATACOPY PUSH1 0x20 RETURNDATASIZE DUP3 ADD ADD PUSH1 0x40 MSTORE SWAP1 JUMP JUMPDEST ISZERO PUSH2 0x4B6E JUMPI PUSH1 0x40 MLOAD PUSH4 0x9996B315 PUSH1 0xE0 SHL DUP2 MSTORE PUSH1 0x1 PUSH1 0x1 PUSH1 0xA0 SHL SUB SWAP1 SWAP2 AND PUSH1 0x4 DUP3 ADD MSTORE PUSH1 0x24 SWAP1 REVERT JUMPDEST RETURNDATASIZE ISZERO PUSH2 0x4B7F JUMPI PUSH1 0x40 MLOAD RETURNDATASIZE PUSH0 DUP3 RETURNDATACOPY RETURNDATASIZE SWAP1 REVERT JUMPDEST PUSH1 0x40 MLOAD PUSH4 0xD6BDA275 PUSH1 0xE0 SHL DUP2 MSTORE PUSH1 0x4 SWAP1 REVERT JUMPDEST POP RETURNDATASIZE ISZERO ISZERO DUP1 PUSH2 0x4B27 JUMPI POP DUP2 EXTCODESIZE ISZERO ISZERO PUSH2 0x4B27 JUMP INVALID LOG2 PUSH5 0x6970667358 0x22 SLT KECCAK256 MSTORE PUSH0 DUP14 SELFBALANCE 0x4C PUSH19 0x9A037B199F9AB8593968FDEB37F67E736EEECD DUP12 0xE 0x2E ADDRESS 0xB7 BYTE 0xDA PUSH5 0x736F6C6343 STOP ADDMOD XOR STOP CALLER "},"methodIdentifiers":{"UPGRADE_INTERFACE_VERSION()":"ad3cb1cc","activeUnacceptedFlagCount(bytes32)":"dbc7b842","addRecordHash(bytes32,bytes32)":"c7567dfa","admin()":"f851a440","anchorRecord(bytes32,bytes32,bytes32,uint8)":"c0d1606e","currentlyDisputed(bytes32,bytes32)":"10466a67","currentlyVerified(bytes32,bytes32)":"def0dec8","disputeIndex(bytes32,bytes32)":"8fc751ee","disputeRecord(bytes32,bytes32,uint8,uint8,string)":"3533d58c","disputes(bytes32,uint256)":"aeb2a19f","disputesByUser(bytes32,uint256)":"adcee102","doesHashExist(bytes32)":"1ee66770","flagUnacceptedUpdate(bytes32,bytes32,bytes32,bytes32)":"01f69935","getActiveRecordSubjects(bytes32)":"86519335","getActiveUnacceptedFlagCount(bytes32)":"249dda2e","getDisputeStats(bytes32)":"dfe36843","getDisputes(bytes32)":"d19d3661","getDisputesAgainstUser(bytes32)":"3ce78b05","getRecordIdForHash(bytes32)":"84debbf1","getRecordSubjects(bytes32)":"bf520465","getRecordVersionHistory(bytes32)":"e76ba193","getSubjectMedicalHistory(bytes32)":"c7695bab","getSubjectStats(bytes32)":"28837450","getTotalAnchoredRecords()":"d46e082f","getUnacceptedFlag(bytes32,bytes32)":"3fa8ea81","getUnacceptedFlags(bytes32)":"be4f9077","getUserDispute(bytes32,bytes32)":"42442226","getUserDisputes(bytes32)":"d08c800d","getUserVerification(bytes32,bytes32)":"045524a2","getUserVerifications(bytes32)":"e08f1ac3","getVerificationStats(bytes32)":"1166c389","getVerifications(bytes32)":"fcdd5261","getVersionCount(bytes32)":"de4920f4","hasActiveUnacceptedFlags(bytes32)":"5d28a342","hasUserDisputed(bytes32,bytes32)":"7628262e","hasUserVerified(bytes32,bytes32)":"e1628f0b","initialize(address)":"c4d66de8","isActiveSubject(bytes32,bytes32)":"64f639d4","isHashActive(bytes32)":"40ec2e9a","isSubject(bytes32,bytes32)":"d6989f09","isSubjectActive(bytes32,bytes32)":"a208f96c","isSubjectOfRecord(bytes32,bytes32)":"08d86517","memberRoleManager()":"15370703","modifyDispute(bytes32,uint8,uint8)":"056c925f","modifyVerificationLevel(bytes32,uint8)":"86fe96e1","proxiableUUID()":"52d1902d","reanchorRecord(bytes32,bytes32)":"9e3432c1","recordIdForHash(bytes32)":"5211e3b6","recordSubjects(bytes32,uint256)":"aca5964f","recordVersionHistory(bytes32,uint256)":"9afd307c","retractDispute(bytes32)":"d9e551fc","retractRecordHash(bytes32,bytes32)":"5a3ba1fa","retractVerification(bytes32)":"438b17cf","revokeUnacceptedFlag(bytes32,bytes32)":"6e95a051","setMemberRoleManager(address)":"dd0bc082","subjectMedicalHistory(bytes32,uint256)":"b27bb4d5","totalAnchoredRecords()":"1cf8cbe8","totalDisputes()":"c5e4ccc4","totalUnacceptedFlags()":"ac924336","totalVerifications()":"ac90c140","transferAdmin(address)":"75829def","unacceptedFlagIndex(bytes32,bytes32)":"8a7f882c","unacceptedFlagsBySubject(bytes32,uint256)":"f536eb2b","unanchorRecord(bytes32,bytes32)":"42deec25","upgradeToAndCall(address,bytes)":"4f1ef286","verificationIndex(bytes32,bytes32)":"741bfc1d","verifications(bytes32,uint256)":"d1e94e57","verificationsByUser(bytes32,uint256)":"b5e6b7a2","verifyRecord(bytes32,bytes32,uint8)":"7b470f6a"}},"storageLayout":{"storage":[{"astId":1558,"contract":"smartContracts/HealthRecordCore.sol:HealthRecordCore","label":"memberRoleManager","offset":0,"slot":"0","type":"t_contract(MemberRoleManagerInterface)1550"},{"astId":1560,"contract":"smartContracts/HealthRecordCore.sol:HealthRecordCore","label":"admin","offset":0,"slot":"1","type":"t_address"},{"astId":1858,"contract":"smartContracts/HealthRecordCore.sol:HealthRecordCore","label":"recordSubjects","offset":0,"slot":"2","type":"t_mapping(t_bytes32,t_array(t_bytes32)dyn_storage)"},{"astId":1864,"contract":"smartContracts/HealthRecordCore.sol:HealthRecordCore","label":"isSubjectOfRecord","offset":0,"slot":"3","type":"t_mapping(t_bytes32,t_mapping(t_bytes32,t_bool))"},{"astId":1869,"contract":"smartContracts/HealthRecordCore.sol:HealthRecordCore","label":"subjectMedicalHistory","offset":0,"slot":"4","type":"t_mapping(t_bytes32,t_array(t_bytes32)dyn_storage)"},{"astId":1875,"contract":"smartContracts/HealthRecordCore.sol:HealthRecordCore","label":"isSubjectActive","offset":0,"slot":"5","type":"t_mapping(t_bytes32,t_mapping(t_bytes32,t_bool))"},{"astId":1879,"contract":"smartContracts/HealthRecordCore.sol:HealthRecordCore","label":"recordIdForHash","offset":0,"slot":"6","type":"t_mapping(t_bytes32,t_bytes32)"},{"astId":1884,"contract":"smartContracts/HealthRecordCore.sol:HealthRecordCore","label":"recordVersionHistory","offset":0,"slot":"7","type":"t_mapping(t_bytes32,t_array(t_bytes32)dyn_storage)"},{"astId":1888,"contract":"smartContracts/HealthRecordCore.sol:HealthRecordCore","label":"isHashActive","offset":0,"slot":"8","type":"t_mapping(t_bytes32,t_bool)"},{"astId":1890,"contract":"smartContracts/HealthRecordCore.sol:HealthRecordCore","label":"totalAnchoredRecords","offset":0,"slot":"9","type":"t_uint256"},{"astId":2819,"contract":"smartContracts/HealthRecordCore.sol:HealthRecordCore","label":"verifications","offset":0,"slot":"10","type":"t_mapping(t_bytes32,t_array(t_struct(Verification)2769_storage)dyn_storage)"},{"astId":2825,"contract":"smartContracts/HealthRecordCore.sol:HealthRecordCore","label":"currentlyVerified","offset":0,"slot":"11","type":"t_mapping(t_bytes32,t_mapping(t_bytes32,t_bool))"},{"astId":2831,"contract":"smartContracts/HealthRecordCore.sol:HealthRecordCore","label":"verificationIndex","offset":0,"slot":"12","type":"t_mapping(t_bytes32,t_mapping(t_bytes32,t_uint256))"},{"astId":2837,"contract":"smartContracts/HealthRecordCore.sol:HealthRecordCore","label":"disputes","offset":0,"slot":"13","type":"t_mapping(t_bytes32,t_array(t_struct(Dispute)2786_storage)dyn_storage)"},{"astId":2843,"contract":"smartContracts/HealthRecordCore.sol:HealthRecordCore","label":"currentlyDisputed","offset":0,"slot":"14","type":"t_mapping(t_bytes32,t_mapping(t_bytes32,t_bool))"},{"astId":2849,"contract":"smartContracts/HealthRecordCore.sol:HealthRecordCore","label":"disputeIndex","offset":0,"slot":"15","type":"t_mapping(t_bytes32,t_mapping(t_bytes32,t_uint256))"},{"astId":2855,"contract":"smartContracts/HealthRecordCore.sol:HealthRecordCore","label":"unacceptedFlagsBySubject","offset":0,"slot":"16","type":"t_mapping(t_bytes32,t_array(t_struct(UnacceptedFlag)2797_storage)dyn_storage)"},{"astId":2861,"contract":"smartContracts/HealthRecordCore.sol:HealthRecordCore","label":"unacceptedFlagIndex","offset":0,"slot":"17","type":"t_mapping(t_bytes32,t_mapping(t_bytes32,t_uint256))"},{"astId":2865,"contract":"smartContracts/HealthRecordCore.sol:HealthRecordCore","label":"activeUnacceptedFlagCount","offset":0,"slot":"18","type":"t_mapping(t_bytes32,t_uint256)"},{"astId":2870,"contract":"smartContracts/HealthRecordCore.sol:HealthRecordCore","label":"verificationsByUser","offset":0,"slot":"19","type":"t_mapping(t_bytes32,t_array(t_bytes32)dyn_storage)"},{"astId":2875,"contract":"smartContracts/HealthRecordCore.sol:HealthRecordCore","label":"disputesByUser","offset":0,"slot":"20","type":"t_mapping(t_bytes32,t_array(t_bytes32)dyn_storage)"},{"astId":2877,"contract":"smartContracts/HealthRecordCore.sol:HealthRecordCore","label":"totalVerifications","offset":0,"slot":"21","type":"t_uint256"},{"astId":2879,"contract":"smartContracts/HealthRecordCore.sol:HealthRecordCore","label":"totalDisputes","offset":0,"slot":"22","type":"t_uint256"},{"astId":2881,"contract":"smartContracts/HealthRecordCore.sol:HealthRecordCore","label":"totalUnacceptedFlags","offset":0,"slot":"23","type":"t_uint256"},{"astId":4459,"contract":"smartContracts/HealthRecordCore.sol:HealthRecordCore","label":"__gap","offset":0,"slot":"24","type":"t_array(t_uint256)50_storage"}],"types":{"t_address":{"encoding":"inplace","label":"address","numberOfBytes":"20"},"t_array(t_bytes32)dyn_storage":{"base":"t_bytes32","encoding":"dynamic_array","label":"bytes32[]","numberOfBytes":"32"},"t_array(t_struct(Dispute)2786_storage)dyn_storage":{"base":"t_struct(Dispute)2786_storage","encoding":"dynamic_array","label":"struct HealthRecordCore.Dispute[]","numberOfBytes":"32"},"t_array(t_struct(UnacceptedFlag)2797_storage)dyn_storage":{"base":"t_struct(UnacceptedFlag)2797_storage","encoding":"dynamic_array","label":"struct HealthRecordCore.UnacceptedFlag[]","numberOfBytes":"32"},"t_array(t_struct(Verification)2769_storage)dyn_storage":{"base":"t_struct(Verification)2769_storage","encoding":"dynamic_array","label":"struct HealthRecordCore.Verification[]","numberOfBytes":"32"},"t_array(t_uint256)50_storage":{"base":"t_uint256","encoding":"inplace","label":"uint256[50]","numberOfBytes":"1600"},"t_bool":{"encoding":"inplace","label":"bool","numberOfBytes":"1"},"t_bytes32":{"encoding":"inplace","label":"bytes32","numberOfBytes":"32"},"t_contract(MemberRoleManagerInterface)1550":{"encoding":"inplace","label":"contract MemberRoleManagerInterface","numberOfBytes":"20"},"t_enum(DisputeCulpability)2757":{"encoding":"inplace","label":"enum HealthRecordCore.DisputeCulpability","numberOfBytes":"1"},"t_enum(DisputeSeverity)2750":{"encoding":"inplace","label":"enum HealthRecordCore.DisputeSeverity","numberOfBytes":"1"},"t_enum(VerificationLevel)2745":{"encoding":"inplace","label":"enum HealthRecordCore.VerificationLevel","numberOfBytes":"1"},"t_mapping(t_bytes32,t_array(t_bytes32)dyn_storage)":{"encoding":"mapping","key":"t_bytes32","label":"mapping(bytes32 => bytes32[])","numberOfBytes":"32","value":"t_array(t_bytes32)dyn_storage"},"t_mapping(t_bytes32,t_array(t_struct(Dispute)2786_storage)dyn_storage)":{"encoding":"mapping","key":"t_bytes32","label":"mapping(bytes32 => struct HealthRecordCore.Dispute[])","numberOfBytes":"32","value":"t_array(t_struct(Dispute)2786_storage)dyn_storage"},"t_mapping(t_bytes32,t_array(t_struct(UnacceptedFlag)2797_storage)dyn_storage)":{"encoding":"mapping","key":"t_bytes32","label":"mapping(bytes32 => struct HealthRecordCore.UnacceptedFlag[])","numberOfBytes":"32","value":"t_array(t_struct(UnacceptedFlag)2797_storage)dyn_storage"},"t_mapping(t_bytes32,t_array(t_struct(Verification)2769_storage)dyn_storage)":{"encoding":"mapping","key":"t_bytes32","label":"mapping(bytes32 => struct HealthRecordCore.Verification[])","numberOfBytes":"32","value":"t_array(t_struct(Verification)2769_storage)dyn_storage"},"t_mapping(t_bytes32,t_bool)":{"encoding":"mapping","key":"t_bytes32","label":"mapping(bytes32 => bool)","numberOfBytes":"32","value":"t_bool"},"t_mapping(t_bytes32,t_bytes32)":{"encoding":"mapping","key":"t_bytes32","label":"mapping(bytes32 => bytes32)","numberOfBytes":"32","value":"t_bytes32"},"t_mapping(t_bytes32,t_mapping(t_bytes32,t_bool))":{"encoding":"mapping","key":"t_bytes32","label":"mapping(bytes32 => mapping(bytes32 => bool))","numberOfBytes":"32","value":"t_mapping(t_bytes32,t_bool)"},"t_mapping(t_bytes32,t_mapping(t_bytes32,t_uint256))":{"encoding":"mapping","key":"t_bytes32","label":"mapping(bytes32 => mapping(bytes32 => uint256))","numberOfBytes":"32","value":"t_mapping(t_bytes32,t_uint256)"},"t_mapping(t_bytes32,t_uint256)":{"encoding":"mapping","key":"t_bytes32","label":"mapping(bytes32 => uint256)","numberOfBytes":"32","value":"t_uint256"},"t_string_storage":{"encoding":"bytes","label":"string","numberOfBytes":"32"},"t_struct(Dispute)2786_storage":{"encoding":"inplace","label":"struct HealthRecordCore.Dispute","members":[{"astId":2771,"contract":"smartContracts/HealthRecordCore.sol:HealthRecordCore","label":"disputerIdHash","offset":0,"slot":"0","type":"t_bytes32"},{"astId":2773,"contract":"smartContracts/HealthRecordCore.sol:HealthRecordCore","label":"recordIdHash","offset":0,"slot":"1","type":"t_bytes32"},{"astId":2776,"contract":"smartContracts/HealthRecordCore.sol:HealthRecordCore","label":"severity","offset":0,"slot":"2","type":"t_enum(DisputeSeverity)2750"},{"astId":2779,"contract":"smartContracts/HealthRecordCore.sol:HealthRecordCore","label":"culpability","offset":1,"slot":"2","type":"t_enum(DisputeCulpability)2757"},{"astId":2781,"contract":"smartContracts/HealthRecordCore.sol:HealthRecordCore","label":"notes","offset":0,"slot":"3","type":"t_string_storage"},{"astId":2783,"contract":"smartContracts/HealthRecordCore.sol:HealthRecordCore","label":"createdAt","offset":0,"slot":"4","type":"t_uint256"},{"astId":2785,"contract":"smartContracts/HealthRecordCore.sol:HealthRecordCore","label":"isActive","offset":0,"slot":"5","type":"t_bool"}],"numberOfBytes":"192"},"t_struct(UnacceptedFlag)2797_storage":{"encoding":"inplace","label":"struct HealthRecordCore.UnacceptedFlag","members":[{"astId":2788,"contract":"smartContracts/HealthRecordCore.sol:HealthRecordCore","label":"recordIdHash","offset":0,"slot":"0","type":"t_bytes32"},{"astId":2790,"contract":"smartContracts/HealthRecordCore.sol:HealthRecordCore","label":"reporterIdHash","offset":0,"slot":"1","type":"t_bytes32"},{"astId":2792,"contract":"smartContracts/HealthRecordCore.sol:HealthRecordCore","label":"recordHash","offset":0,"slot":"2","type":"t_bytes32"},{"astId":2794,"contract":"smartContracts/HealthRecordCore.sol:HealthRecordCore","label":"createdAt","offset":0,"slot":"3","type":"t_uint256"},{"astId":2796,"contract":"smartContracts/HealthRecordCore.sol:HealthRecordCore","label":"isActive","offset":0,"slot":"4","type":"t_bool"}],"numberOfBytes":"160"},"t_struct(Verification)2769_storage":{"encoding":"inplace","label":"struct HealthRecordCore.Verification","members":[{"astId":2759,"contract":"smartContracts/HealthRecordCore.sol:HealthRecordCore","label":"verifierIdHash","offset":0,"slot":"0","type":"t_bytes32"},{"astId":2761,"contract":"smartContracts/HealthRecordCore.sol:HealthRecordCore","label":"recordIdHash","offset":0,"slot":"1","type":"t_bytes32"},{"astId":2764,"contract":"smartContracts/HealthRecordCore.sol:HealthRecordCore","label":"level","offset":0,"slot":"2","type":"t_enum(VerificationLevel)2745"},{"astId":2766,"contract":"smartContracts/HealthRecordCore.sol:HealthRecordCore","label":"createdAt","offset":0,"slot":"3","type":"t_uint256"},{"astId":2768,"contract":"smartContracts/HealthRecordCore.sol:HealthRecordCore","label":"isActive","offset":0,"slot":"4","type":"t_bool"}],"numberOfBytes":"160"},"t_uint256":{"encoding":"inplace","label":"uint256","numberOfBytes":"32"}}}}}}