{
  "_format": "hh-sol-artifact-1",
  "contractName": "HealthRecordVerification",
  "sourceName": "contracts/HealthRecordVerification.sol",
  "abi": [
    {
      "anonymous": false,
      "inputs": [
        {
          "indexed": true,
          "internalType": "string",
          "name": "permissionHash",
          "type": "string"
        },
        {
          "indexed": true,
          "internalType": "address",
          "name": "owner",
          "type": "address"
        },
        {
          "indexed": true,
          "internalType": "address",
          "name": "receiver",
          "type": "address"
        },
        {
          "indexed": false,
          "internalType": "string",
          "name": "recordId",
          "type": "string"
        },
        {
          "indexed": false,
          "internalType": "uint256",
          "name": "timestamp",
          "type": "uint256"
        }
      ],
      "name": "AccessGranted",
      "type": "event"
    },
    {
      "anonymous": false,
      "inputs": [
        {
          "indexed": true,
          "internalType": "string",
          "name": "permissionHash",
          "type": "string"
        },
        {
          "indexed": true,
          "internalType": "address",
          "name": "owner",
          "type": "address"
        },
        {
          "indexed": true,
          "internalType": "address",
          "name": "receiver",
          "type": "address"
        },
        {
          "indexed": false,
          "internalType": "string",
          "name": "recordId",
          "type": "string"
        },
        {
          "indexed": false,
          "internalType": "uint256",
          "name": "timestamp",
          "type": "uint256"
        }
      ],
      "name": "AccessRevoked",
      "type": "event"
    },
    {
      "anonymous": false,
      "inputs": [
        {
          "indexed": true,
          "internalType": "string",
          "name": "recordHash",
          "type": "string"
        },
        {
          "indexed": true,
          "internalType": "address",
          "name": "medicalVerifier",
          "type": "address"
        },
        {
          "indexed": false,
          "internalType": "uint256",
          "name": "timestamp",
          "type": "uint256"
        }
      ],
      "name": "MedicalVerification",
      "type": "event"
    },
    {
      "anonymous": false,
      "inputs": [
        {
          "indexed": true,
          "internalType": "string",
          "name": "recordHash",
          "type": "string"
        },
        {
          "indexed": true,
          "internalType": "address",
          "name": "patient",
          "type": "address"
        },
        {
          "indexed": true,
          "internalType": "address",
          "name": "submitter",
          "type": "address"
        },
        {
          "indexed": false,
          "internalType": "uint256",
          "name": "timestamp",
          "type": "uint256"
        },
        {
          "indexed": false,
          "internalType": "string",
          "name": "recordId",
          "type": "string"
        }
      ],
      "name": "RecordStored",
      "type": "event"
    },
    {
      "inputs": [
        {
          "internalType": "string",
          "name": "",
          "type": "string"
        }
      ],
      "name": "accessPermissions",
      "outputs": [
        {
          "internalType": "string",
          "name": "permissionHash",
          "type": "string"
        },
        {
          "internalType": "address",
          "name": "owner",
          "type": "address"
        },
        {
          "internalType": "address",
          "name": "receiver",
          "type": "address"
        },
        {
          "internalType": "string",
          "name": "recordId",
          "type": "string"
        },
        {
          "internalType": "uint256",
          "name": "grantedAt",
          "type": "uint256"
        },
        {
          "internalType": "uint256",
          "name": "revokedAt",
          "type": "uint256"
        },
        {
          "internalType": "bool",
          "name": "isActive",
          "type": "bool"
        },
        {
          "internalType": "bool",
          "name": "exists",
          "type": "bool"
        }
      ],
      "stateMutability": "view",
      "type": "function"
    },
    {
      "inputs": [
        {
          "internalType": "uint256",
          "name": "",
          "type": "uint256"
        }
      ],
      "name": "allRecordHashes",
      "outputs": [
        {
          "internalType": "string",
          "name": "",
          "type": "string"
        }
      ],
      "stateMutability": "view",
      "type": "function"
    },
    {
      "inputs": [
        {
          "internalType": "string",
          "name": "permissionHash",
          "type": "string"
        }
      ],
      "name": "checkAccess",
      "outputs": [
        {
          "internalType": "bool",
          "name": "isActive",
          "type": "bool"
        },
        {
          "internalType": "address",
          "name": "owner",
          "type": "address"
        },
        {
          "internalType": "address",
          "name": "receiver",
          "type": "address"
        },
        {
          "internalType": "string",
          "name": "recordId",
          "type": "string"
        },
        {
          "internalType": "uint256",
          "name": "grantedAt",
          "type": "uint256"
        },
        {
          "internalType": "uint256",
          "name": "revokedAt",
          "type": "uint256"
        }
      ],
      "stateMutability": "view",
      "type": "function"
    },
    {
      "inputs": [
        {
          "internalType": "address",
          "name": "owner",
          "type": "address"
        }
      ],
      "name": "getOwnerStats",
      "outputs": [
        {
          "internalType": "uint256",
          "name": "total",
          "type": "uint256"
        },
        {
          "internalType": "uint256",
          "name": "active",
          "type": "uint256"
        }
      ],
      "stateMutability": "view",
      "type": "function"
    },
    {
      "inputs": [
        {
          "internalType": "address",
          "name": "patientAddress",
          "type": "address"
        }
      ],
      "name": "getPatientRecords",
      "outputs": [
        {
          "internalType": "string[]",
          "name": "",
          "type": "string[]"
        }
      ],
      "stateMutability": "view",
      "type": "function"
    },
    {
      "inputs": [
        {
          "internalType": "address",
          "name": "patientAddress",
          "type": "address"
        }
      ],
      "name": "getPatientStats",
      "outputs": [
        {
          "internalType": "uint256",
          "name": "total",
          "type": "uint256"
        },
        {
          "internalType": "uint256",
          "name": "verified",
          "type": "uint256"
        }
      ],
      "stateMutability": "view",
      "type": "function"
    },
    {
      "inputs": [
        {
          "internalType": "address",
          "name": "owner",
          "type": "address"
        }
      ],
      "name": "getPermissionsByOwner",
      "outputs": [
        {
          "internalType": "string[]",
          "name": "",
          "type": "string[]"
        }
      ],
      "stateMutability": "view",
      "type": "function"
    },
    {
      "inputs": [
        {
          "internalType": "address",
          "name": "receiver",
          "type": "address"
        }
      ],
      "name": "getPermissionsByReceiver",
      "outputs": [
        {
          "internalType": "string[]",
          "name": "",
          "type": "string[]"
        }
      ],
      "stateMutability": "view",
      "type": "function"
    },
    {
      "inputs": [
        {
          "internalType": "uint256",
          "name": "index",
          "type": "uint256"
        }
      ],
      "name": "getRecordByIndex",
      "outputs": [
        {
          "internalType": "string",
          "name": "",
          "type": "string"
        }
      ],
      "stateMutability": "view",
      "type": "function"
    },
    {
      "inputs": [],
      "name": "getTotalPermissions",
      "outputs": [
        {
          "internalType": "uint256",
          "name": "",
          "type": "uint256"
        }
      ],
      "stateMutability": "view",
      "type": "function"
    },
    {
      "inputs": [],
      "name": "getTotalRecords",
      "outputs": [
        {
          "internalType": "uint256",
          "name": "",
          "type": "uint256"
        }
      ],
      "stateMutability": "view",
      "type": "function"
    },
    {
      "inputs": [
        {
          "internalType": "address",
          "name": "verifierAddress",
          "type": "address"
        }
      ],
      "name": "getVerifierRecords",
      "outputs": [
        {
          "internalType": "string[]",
          "name": "",
          "type": "string[]"
        }
      ],
      "stateMutability": "view",
      "type": "function"
    },
    {
      "inputs": [
        {
          "internalType": "string",
          "name": "permissionHash",
          "type": "string"
        },
        {
          "internalType": "string",
          "name": "recordId",
          "type": "string"
        },
        {
          "internalType": "address",
          "name": "receiver",
          "type": "address"
        }
      ],
      "name": "grantAccess",
      "outputs": [],
      "stateMutability": "nonpayable",
      "type": "function"
    },
    {
      "inputs": [
        {
          "internalType": "address",
          "name": "",
          "type": "address"
        },
        {
          "internalType": "uint256",
          "name": "",
          "type": "uint256"
        }
      ],
      "name": "permissionsByOwner",
      "outputs": [
        {
          "internalType": "string",
          "name": "",
          "type": "string"
        }
      ],
      "stateMutability": "view",
      "type": "function"
    },
    {
      "inputs": [
        {
          "internalType": "address",
          "name": "",
          "type": "address"
        },
        {
          "internalType": "uint256",
          "name": "",
          "type": "uint256"
        }
      ],
      "name": "permissionsByReceiver",
      "outputs": [
        {
          "internalType": "string",
          "name": "",
          "type": "string"
        }
      ],
      "stateMutability": "view",
      "type": "function"
    },
    {
      "inputs": [
        {
          "internalType": "string",
          "name": "",
          "type": "string"
        }
      ],
      "name": "recordVerifications",
      "outputs": [
        {
          "internalType": "string",
          "name": "recordHash",
          "type": "string"
        },
        {
          "internalType": "address",
          "name": "patient",
          "type": "address"
        },
        {
          "internalType": "address",
          "name": "submitter",
          "type": "address"
        },
        {
          "internalType": "address",
          "name": "medicalVerifier",
          "type": "address"
        },
        {
          "internalType": "uint256",
          "name": "timestamp",
          "type": "uint256"
        },
        {
          "internalType": "string",
          "name": "recordId",
          "type": "string"
        },
        {
          "internalType": "bool",
          "name": "exists",
          "type": "bool"
        },
        {
          "internalType": "bool",
          "name": "isVerified",
          "type": "bool"
        }
      ],
      "stateMutability": "view",
      "type": "function"
    },
    {
      "inputs": [
        {
          "internalType": "address",
          "name": "",
          "type": "address"
        },
        {
          "internalType": "uint256",
          "name": "",
          "type": "uint256"
        }
      ],
      "name": "recordsByPatient",
      "outputs": [
        {
          "internalType": "string",
          "name": "",
          "type": "string"
        }
      ],
      "stateMutability": "view",
      "type": "function"
    },
    {
      "inputs": [
        {
          "internalType": "address",
          "name": "",
          "type": "address"
        },
        {
          "internalType": "uint256",
          "name": "",
          "type": "uint256"
        }
      ],
      "name": "recordsByVerifier",
      "outputs": [
        {
          "internalType": "string",
          "name": "",
          "type": "string"
        }
      ],
      "stateMutability": "view",
      "type": "function"
    },
    {
      "inputs": [
        {
          "internalType": "string",
          "name": "permissionHash",
          "type": "string"
        }
      ],
      "name": "revokeAccess",
      "outputs": [],
      "stateMutability": "nonpayable",
      "type": "function"
    },
    {
      "inputs": [
        {
          "internalType": "string",
          "name": "recordHash",
          "type": "string"
        },
        {
          "internalType": "string",
          "name": "recordId",
          "type": "string"
        },
        {
          "internalType": "address",
          "name": "patientAddress",
          "type": "address"
        }
      ],
      "name": "storeRecordHash",
      "outputs": [],
      "stateMutability": "nonpayable",
      "type": "function"
    },
    {
      "inputs": [],
      "name": "totalPermissions",
      "outputs": [
        {
          "internalType": "uint256",
          "name": "",
          "type": "uint256"
        }
      ],
      "stateMutability": "view",
      "type": "function"
    },
    {
      "inputs": [],
      "name": "totalRecords",
      "outputs": [
        {
          "internalType": "uint256",
          "name": "",
          "type": "uint256"
        }
      ],
      "stateMutability": "view",
      "type": "function"
    },
    {
      "inputs": [
        {
          "internalType": "string",
          "name": "recordHash",
          "type": "string"
        }
      ],
      "name": "verifyMedicalRecord",
      "outputs": [],
      "stateMutability": "nonpayable",
      "type": "function"
    },
    {
      "inputs": [
        {
          "internalType": "string",
          "name": "recordHash",
          "type": "string"
        }
      ],
      "name": "verifyRecordExists",
      "outputs": [
        {
          "internalType": "bool",
          "name": "exists",
          "type": "bool"
        },
        {
          "internalType": "address",
          "name": "patient",
          "type": "address"
        },
        {
          "internalType": "address",
          "name": "submitter",
          "type": "address"
        },
        {
          "internalType": "address",
          "name": "medicalVerifier",
          "type": "address"
        },
        {
          "internalType": "uint256",
          "name": "timestamp",
          "type": "uint256"
        },
        {
          "internalType": "string",
          "name": "recordId",
          "type": "string"
        },
        {
          "internalType": "bool",
          "name": "isVerified",
          "type": "bool"
        }
      ],
      "stateMutability": "view",
      "type": "function"
    }
  ],
  "bytecode": "0x608060405234801561001057600080fd5b50612508806100206000396000f3fe608060405234801561001057600080fd5b50600436106101585760003560e01c806351b7c9a5116100c3578063d764ffe01161007c578063d764ffe014610308578063e1c627c41461031b578063f25b7f451461032e578063f6cc55f914610341578063f8270d7014610366578063fb310c591461037957600080fd5b806351b7c9a5146102815780637f4bbb3914610294578063a67bfbda146102a7578063b9c37565146102ba578063bed6e79e146102cd578063c9eca86b146102e057600080fd5b80633129ec67116101155780633129ec67146101dd5780633738ec4e14610203578063378115341461022a5780633935b076146102325780633aaaaf88146102475780634dccc7d81461026e57600080fd5b8063071849001461015d5780630aeacb5e14610186578063125f89741461019857806318bd4847146101a15780631d0429fa146101c15780632ec1ca8a146101d4575b600080fd5b61017061016b366004611e51565b61038c565b60405161017d9190611eba565b60405180910390f35b6002545b60405190815260200161017d565b61018a60025481565b6101b46101af366004611ef0565b610438565b60405161017d9190611f0b565b6101b46101cf366004611ef0565b610527565b61018a60085481565b6101f06101eb366004612010565b61060b565b60405161017d979695949392919061204d565b610216610211366004612010565b6107ff565b60405161017d9897969594939291906120a6565b60085461018a565b610245610240366004612111565b610975565b005b61025a610255366004612010565b610d1f565b60405161017d989796959493929190612185565b61017061027c3660046121ee565b610e94565b61017061028f3660046121ee565b610ecc565b6101706102a23660046121ee565b610ee8565b6102456102b5366004612111565b610f04565b6101b46102c8366004611ef0565b61124c565b6101706102db3660046121ee565b611330565b6102f36102ee366004611ef0565b61134c565b6040805192835260208301919091520161017d565b6102f3610316366004611ef0565b6114bb565b610170610329366004611e51565b61161d565b6101b461033c366004611ef0565b611714565b61035461034f366004612010565b6117f8565b60405161017d96959493929190612218565b610245610374366004612010565b6119e7565b610245610387366004612010565b611c01565b6001818154811061039c57600080fd5b9060005260206000200160009150905080546103b790612261565b80601f01602080910402602001604051908101604052809291908181526020018280546103e390612261565b80156104305780601f1061040557610100808354040283529160200191610430565b820191906000526020600020905b81548152906001019060200180831161041357829003601f168201915b505050505081565b6001600160a01b0381166000908152600360209081526040808320805482518185028101850190935280835260609492939192909184015b8282101561051c57838290600052602060002001805461048f90612261565b80601f01602080910402602001604051908101604052809291908181526020018280546104bb90612261565b80156105085780601f106104dd57610100808354040283529160200191610508565b820191906000526020600020905b8154815290600101906020018083116104eb57829003601f168201915b505050505081526020019060010190610470565b505050509050919050565b6001600160a01b0381166000908152600460209081526040808320805482518185028101850190935280835260609492939192909184015b8282101561051c57838290600052602060002001805461057e90612261565b80601f01602080910402602001604051908101604052809291908181526020018280546105aa90612261565b80156105f75780601f106105cc576101008083540402835291602001916105f7565b820191906000526020600020905b8154815290600101906020018083116105da57829003601f168201915b50505050508152602001906001019061055f565b60008060008060006060600080600089604051610628919061229b565b90815260200160405180910390206040518061010001604052908160008201805461065290612261565b80601f016020809104026020016040519081016040528092919081815260200182805461067e90612261565b80156106cb5780601f106106a0576101008083540402835291602001916106cb565b820191906000526020600020905b8154815290600101906020018083116106ae57829003601f168201915b505050918352505060018201546001600160a01b03908116602083015260028301548116604083015260038301541660608201526004820154608082015260058201805460a09092019161071e90612261565b80601f016020809104026020016040519081016040528092919081815260200182805461074a90612261565b80156107975780601f1061076c57610100808354040283529160200191610797565b820191906000526020600020905b81548152906001019060200180831161077a57829003601f168201915b50505091835250506006919091015460ff808216151560208085019190915261010090920416151560409283015260c083015190830151918301516060840151608085015160a086015160e090960151939f949e50919c509a50985091965090945092505050565b805160208183018101805160008252928201919093012091528054819061082590612261565b80601f016020809104026020016040519081016040528092919081815260200182805461085190612261565b801561089e5780601f106108735761010080835404028352916020019161089e565b820191906000526020600020905b81548152906001019060200180831161088157829003601f168201915b505050600184015460028501546003860154600487015460058801805497986001600160a01b039586169894861697509290941694509290916108e090612261565b80601f016020809104026020016040519081016040528092919081815260200182805461090c90612261565b80156109595780601f1061092e57610100808354040283529160200191610959565b820191906000526020600020905b81548152906001019060200180831161093c57829003601f168201915b5050506006909301549192505060ff8082169161010090041688565b60008351116109cb5760405162461bcd60e51b815260206004820152601f60248201527f5065726d697373696f6e20686173682063616e6e6f7420626520656d7074790060448201526064015b60405180910390fd5b6000825111610a185760405162461bcd60e51b81526020600482015260196024820152785265636f72642049442063616e6e6f7420626520656d70747960381b60448201526064016109c2565b6001600160a01b038116610a6e5760405162461bcd60e51b815260206004820152601f60248201527f526563656976657220616464726573732063616e6e6f74206265207a65726f0060448201526064016109c2565b336001600160a01b03821603610ac65760405162461bcd60e51b815260206004820152601a60248201527f43616e6e6f74207368617265207769746820796f757273656c6600000000000060448201526064016109c2565b600583604051610ad6919061229b565b9081526040519081900360200190206006015460ff6101009091041615610b3f5760405162461bcd60e51b815260206004820152601960248201527f5065726d697373696f6e20616c7265616479206578697374730000000000000060448201526064016109c2565b60408051610100810182528481523360208201526001600160a01b0383168183015260608101849052426080820152600060a0820152600160c0820181905260e08201529051600590610b9390869061229b565b90815260405190819003602001902081518190610bb09082612306565b5060208201516001820180546001600160a01b039283166001600160a01b031991821617909155604084015160028401805491909316911617905560608201516003820190610bff9082612306565b506080820151600482015560a0820151600582015560c08201516006918201805460e09094015115156101000261ff00199215159290921661ffff199094169390931717909155336000908152602091825260408120805460018101825590825291902001610c6e8482612306565b506001600160a01b038116600090815260076020908152604082208054600181018255908352912001610ca18482612306565b5060088054906000610cb2836123c6565b9190505550806001600160a01b0316336001600160a01b031684604051610cd9919061229b565b60405180910390207f4e9b2250dc310298285671060eeb083837adb673cedb4fcff8837a53196e885f8542604051610d129291906123ed565b60405180910390a4505050565b8051602081830181018051600582529282019190930120915280548190610d4590612261565b80601f0160208091040260200160405190810160405280929190818152602001828054610d7190612261565b8015610dbe5780601f10610d9357610100808354040283529160200191610dbe565b820191906000526020600020905b815481529060010190602001808311610da157829003601f168201915b5050506001840154600285015460038601805495966001600160a01b0393841696929093169450919250610df190612261565b80601f0160208091040260200160405190810160405280929190818152602001828054610e1d90612261565b8015610e6a5780601f10610e3f57610100808354040283529160200191610e6a565b820191906000526020600020905b815481529060010190602001808311610e4d57829003601f168201915b50505050600483015460058401546006909401549293909290915060ff8082169161010090041688565b60036020528160005260406000208181548110610eb057600080fd5b906000526020600020016000915091505080546103b790612261565b60046020528160005260406000208181548110610eb057600080fd5b60066020528160005260406000208181548110610eb057600080fd5b6000835111610f4c5760405162461bcd60e51b8152602060048201526014602482015273486173682063616e6e6f7420626520656d70747960601b60448201526064016109c2565b6000825111610f995760405162461bcd60e51b81526020600482015260196024820152785265636f72642049442063616e6e6f7420626520656d70747960381b60448201526064016109c2565b6001600160a01b038116610fef5760405162461bcd60e51b815260206004820152601e60248201527f50617469656e7420616464726573732063616e6e6f74206265207a65726f000060448201526064016109c2565b600083604051610fff919061229b565b9081526040519081900360200190206006015460ff16156110585760405162461bcd60e51b81526020600482015260136024820152724861736820616c72656164792065786973747360681b60448201526064016109c2565b60408051610100810182528481526001600160a01b0383166020820152338183015260006060820181905242608083015260a08201859052600160c083015260e0820181905291519091906110ae90869061229b565b908152604051908190036020019020815181906110cb9082612306565b5060208201516001820180546001600160a01b039283166001600160a01b031991821617909155604084015160028401805491841691831691909117905560608401516003840180549190931691161790556080820151600482015560a0820151600582019061113b9082612306565b5060c08201516006909101805460e09093015115156101000261ff00199215159290921661ffff19909316929092171790556001805480820182556000919091527fb10e2d527612073b26eecdfd717e6a320cf44b4afac2b0732d9fcbe2b7fa0cf6016111a88482612306565b506001600160a01b0381166000908152600360209081526040822080546001810182559083529120016111db8482612306565b50600280549060006111ec836123c6565b9190505550336001600160a01b0316816001600160a01b031684604051611213919061229b565b60405180910390207f0a02da2c8c2c43d0c74d06b4471a32c2d1effe774535a6a33cbca7c37f5ef27d4286604051610d1292919061240f565b6001600160a01b0381166000908152600660209081526040808320805482518185028101850190935280835260609492939192909184015b8282101561051c5783829060005260206000200180546112a390612261565b80601f01602080910402602001604051908101604052809291908181526020018280546112cf90612261565b801561131c5780601f106112f15761010080835404028352916020019161131c565b820191906000526020600020905b8154815290600101906020018083116112ff57829003601f168201915b505050505081526020019060010190611284565b60076020528160005260406000208181548110610eb057600080fd5b6001600160a01b0381166000908152600360209081526040808320805482518185028101850190935280835284938493929190849084015b828210156114305783829060005260206000200180546113a390612261565b80601f01602080910402602001604051908101604052809291908181526020018280546113cf90612261565b801561141c5780601f106113f15761010080835404028352916020019161141c565b820191906000526020600020905b8154815290600101906020018083116113ff57829003601f168201915b505050505081526020019060010190611384565b505050509050805192506000915060005b81518110156114b457600082828151811061145e5761145e612428565b6020026020010151604051611473919061229b565b9081526040519081900360200190206006015460ff61010090910416156114a2578261149e816123c6565b9350505b806114ac816123c6565b915050611441565b5050915091565b6001600160a01b0381166000908152600660209081526040808320805482518185028101850190935280835284938493929190849084015b8282101561159f57838290600052602060002001805461151290612261565b80601f016020809104026020016040519081016040528092919081815260200182805461153e90612261565b801561158b5780601f106115605761010080835404028352916020019161158b565b820191906000526020600020905b81548152906001019060200180831161156e57829003601f168201915b5050505050815260200190600101906114f3565b505050509050805192506000915060005b81518110156114b45760058282815181106115cd576115cd612428565b60200260200101516040516115e2919061229b565b9081526040519081900360200190206006015460ff161561160b5782611607816123c6565b9350505b80611615816123c6565b9150506115b0565b60015460609082106116675760405162461bcd60e51b8152602060048201526013602482015272496e646578206f7574206f6620626f756e647360681b60448201526064016109c2565b6001828154811061167a5761167a612428565b90600052602060002001805461168f90612261565b80601f01602080910402602001604051908101604052809291908181526020018280546116bb90612261565b80156117085780601f106116dd57610100808354040283529160200191611708565b820191906000526020600020905b8154815290600101906020018083116116eb57829003601f168201915b50505050509050919050565b6001600160a01b0381166000908152600760209081526040808320805482518185028101850190935280835260609492939192909184015b8282101561051c57838290600052602060002001805461176b90612261565b80601f016020809104026020016040519081016040528092919081815260200182805461179790612261565b80156117e45780601f106117b9576101008083540402835291602001916117e4565b820191906000526020600020905b8154815290600101906020018083116117c757829003601f168201915b50505050508152602001906001019061174c565b600080600060606000806000600588604051611814919061229b565b90815260200160405180910390206040518061010001604052908160008201805461183e90612261565b80601f016020809104026020016040519081016040528092919081815260200182805461186a90612261565b80156118b75780601f1061188c576101008083540402835291602001916118b7565b820191906000526020600020905b81548152906001019060200180831161189a57829003601f168201915b505050918352505060018201546001600160a01b03908116602083015260028301541660408201526003820180546060909201916118f490612261565b80601f016020809104026020016040519081016040528092919081815260200182805461192090612261565b801561196d5780601f106119425761010080835404028352916020019161196d565b820191906000526020600020905b81548152906001019060200180831161195057829003601f168201915b50505091835250506004820154602080830191909152600583015460408084019190915260069093015460ff808216151560608086019190915261010090920416151560809384015260c08501519185015193850151908501519285015160a090950151919d939c509a5090985091965090945092505050565b6000816040516119f7919061229b565b9081526040519081900360200190206006015460ff16611a515760405162461bcd60e51b8152602060048201526015602482015274149958dbdc9908191bd95cc81b9bdd08195e1a5cdd605a1b60448201526064016109c2565b600081604051611a61919061229b565b9081526040519081900360200190206006015460ff6101009091041615611abd5760405162461bcd60e51b815260206004820152601060248201526f105b1c9958591e481d995c9a599a595960821b60448201526064016109c2565b33611b0a5760405162461bcd60e51b815260206004820152601860248201527f496e76616c69642076657269666965722061646472657373000000000000000060448201526064016109c2565b33600082604051611b1b919061229b565b908152602001604051809103902060030160006101000a8154816001600160a01b0302191690836001600160a01b031602179055506001600082604051611b62919061229b565b9081526040805160209281900383019020600601805461ff0019166101009415159490940293909317909255336000908152600482529182208054600181018255908352912001611bb38282612306565b506040513390611bc490839061229b565b604051908190038120428252907f0f30367277b86406bb5f6c9a4ca56804041da4392fccce6627dd28ad8ef1ed809060200160405180910390a350565b600581604051611c11919061229b565b9081526040519081900360200190206006015460ff61010090910416611c795760405162461bcd60e51b815260206004820152601960248201527f5065726d697373696f6e20646f6573206e6f742065786973740000000000000060448201526064016109c2565b336001600160a01b0316600582604051611c93919061229b565b908152604051908190036020019020600101546001600160a01b031614611cf45760405162461bcd60e51b81526020600482015260156024820152744f6e6c79206f776e65722063616e207265766f6b6560581b60448201526064016109c2565b600581604051611d04919061229b565b9081526040519081900360200190206006015460ff16611d585760405162461bcd60e51b815260206004820152600f60248201526e105b1c9958591e481c995d9bdad959608a1b60448201526064016109c2565b6000600582604051611d6a919061229b565b908152604051908190036020018120600601805492151560ff19909316929092179091554290600590611d9e90849061229b565b908152602001604051809103902060050181905550600581604051611dc3919061229b565b908152604051908190036020018120600201546001600160a01b0316903390611ded90849061229b565b60405180910390207f24303533397c7c9c44f2c956200064d35c3459320ddcc9efeea95e384763bceb600585604051611e26919061229b565b908152602001604051809103902060030142604051611e4692919061243e565b60405180910390a450565b600060208284031215611e6357600080fd5b5035919050565b60005b83811015611e85578181015183820152602001611e6d565b50506000910152565b60008151808452611ea6816020860160208601611e6a565b601f01601f19169290920160200192915050565b602081526000611ecd6020830184611e8e565b9392505050565b80356001600160a01b0381168114611eeb57600080fd5b919050565b600060208284031215611f0257600080fd5b611ecd82611ed4565b6000602080830181845280855180835260408601915060408160051b870101925083870160005b82811015611f6057603f19888603018452611f4e858351611e8e565b94509285019290850190600101611f32565b5092979650505050505050565b634e487b7160e01b600052604160045260246000fd5b600082601f830112611f9457600080fd5b813567ffffffffffffffff80821115611faf57611faf611f6d565b604051601f8301601f19908116603f01168101908282118183101715611fd757611fd7611f6d565b81604052838152866020858801011115611ff057600080fd5b836020870160208301376000602085830101528094505050505092915050565b60006020828403121561202257600080fd5b813567ffffffffffffffff81111561203957600080fd5b61204584828501611f83565b949350505050565b87151581526001600160a01b0387811660208301528681166040830152851660608201526080810184905260e060a0820181905260009061209090830185611e8e565b905082151560c083015298975050505050505050565b60006101008083526120ba8184018c611e8e565b6001600160a01b038b811660208601528a81166040860152891660608501526080840188905283810360a085015290506120f48187611e8e565b94151560c0840152505090151560e0909101529695505050505050565b60008060006060848603121561212657600080fd5b833567ffffffffffffffff8082111561213e57600080fd5b61214a87838801611f83565b9450602086013591508082111561216057600080fd5b5061216d86828701611f83565b92505061217c60408501611ed4565b90509250925092565b60006101008083526121998184018c611e8e565b6001600160a01b038b811660208601528a166040850152838103606085015290506121c48189611e8e565b6080840197909752505060a081019390935290151560c0830152151560e090910152949350505050565b6000806040838503121561220157600080fd5b61220a83611ed4565b946020939093013593505050565b86151581526001600160a01b0386811660208301528516604082015260c06060820181905260009061224c90830186611e8e565b60808301949094525060a00152949350505050565b600181811c9082168061227557607f821691505b60208210810361229557634e487b7160e01b600052602260045260246000fd5b50919050565b600082516122ad818460208701611e6a565b9190910192915050565b601f82111561230157600081815260208120601f850160051c810160208610156122de5750805b601f850160051c820191505b818110156122fd578281556001016122ea565b5050505b505050565b815167ffffffffffffffff81111561232057612320611f6d565b6123348161232e8454612261565b846122b7565b602080601f83116001811461236957600084156123515750858301515b600019600386901b1c1916600185901b1785556122fd565b600085815260208120601f198616915b8281101561239857888601518255948401946001909101908401612379565b50858210156123b65787850151600019600388901b60f8161c191681555b5050505050600190811b01905550565b6000600182016123e657634e487b7160e01b600052601160045260246000fd5b5060010190565b6040815260006124006040830185611e8e565b90508260208301529392505050565b8281526040602082015260006120456040830184611e8e565b634e487b7160e01b600052603260045260246000fd5b60408152600080845461245081612261565b8060408601526060600180841660008114612472576001811461248c576124bd565b60ff1985168884015283151560051b8801830195506124bd565b8960005260208060002060005b868110156124b45781548b8201870152908401908201612499565b8a018501975050505b5050505050602092909201929092529291505056fea264697066735822122058faef34610f571567848747f5fc2cdb033dbe297e45edf05356cb57525f5a0e64736f6c63430008130033",
  "linkReferences": {},
  "deployedLinkReferences": {}
}