{
  "_format": "hh-sol-artifact-1",
  "contractName": "HealthRecordVerification",
  "sourceName": "contracts/HealthRecordVerification.sol",
  "abi": [
    {
      "anonymous": false,
      "inputs": [
        {
          "indexed": true,
          "internalType": "string",
          "name": "recordHash",
          "type": "string"
        },
        {
          "indexed": true,
          "internalType": "address",
          "name": "submitter",
          "type": "address"
        },
        {
          "indexed": false,
          "internalType": "uint256",
          "name": "timestamp",
          "type": "uint256"
        },
        {
          "indexed": false,
          "internalType": "string",
          "name": "recordId",
          "type": "string"
        }
      ],
      "name": "RecordStored",
      "type": "event"
    },
    {
      "inputs": [
        {
          "internalType": "uint256",
          "name": "",
          "type": "uint256"
        }
      ],
      "name": "allRecordHashes",
      "outputs": [
        {
          "internalType": "string",
          "name": "",
          "type": "string"
        }
      ],
      "stateMutability": "view",
      "type": "function"
    },
    {
      "inputs": [
        {
          "internalType": "uint256",
          "name": "index",
          "type": "uint256"
        }
      ],
      "name": "getRecordByIndex",
      "outputs": [
        {
          "internalType": "string",
          "name": "",
          "type": "string"
        }
      ],
      "stateMutability": "view",
      "type": "function"
    },
    {
      "inputs": [],
      "name": "getTotalRecords",
      "outputs": [
        {
          "internalType": "uint256",
          "name": "",
          "type": "uint256"
        }
      ],
      "stateMutability": "view",
      "type": "function"
    },
    {
      "inputs": [
        {
          "internalType": "string",
          "name": "",
          "type": "string"
        }
      ],
      "name": "recordVerifications",
      "outputs": [
        {
          "internalType": "string",
          "name": "recordHash",
          "type": "string"
        },
        {
          "internalType": "address",
          "name": "submitter",
          "type": "address"
        },
        {
          "internalType": "uint256",
          "name": "timestamp",
          "type": "uint256"
        },
        {
          "internalType": "string",
          "name": "recordId",
          "type": "string"
        },
        {
          "internalType": "bool",
          "name": "exists",
          "type": "bool"
        }
      ],
      "stateMutability": "view",
      "type": "function"
    },
    {
      "inputs": [
        {
          "internalType": "string",
          "name": "recordHash",
          "type": "string"
        },
        {
          "internalType": "string",
          "name": "recordId",
          "type": "string"
        }
      ],
      "name": "storeRecordHash",
      "outputs": [],
      "stateMutability": "nonpayable",
      "type": "function"
    },
    {
      "inputs": [],
      "name": "totalRecords",
      "outputs": [
        {
          "internalType": "uint256",
          "name": "",
          "type": "uint256"
        }
      ],
      "stateMutability": "view",
      "type": "function"
    },
    {
      "inputs": [
        {
          "internalType": "string",
          "name": "recordHash",
          "type": "string"
        }
      ],
      "name": "verifyRecordExists",
      "outputs": [
        {
          "internalType": "bool",
          "name": "exists",
          "type": "bool"
        },
        {
          "internalType": "address",
          "name": "submitter",
          "type": "address"
        },
        {
          "internalType": "uint256",
          "name": "timestamp",
          "type": "uint256"
        },
        {
          "internalType": "string",
          "name": "recordId",
          "type": "string"
        }
      ],
      "stateMutability": "view",
      "type": "function"
    }
  ],
  "bytecode": "0x608060405234801561001057600080fd5b50610c7f806100206000396000f3fe608060405234801561001057600080fd5b506004361061007d5760003560e01c80631eb025641161005b5780631eb02564146100c65780633129ec67146100db5780633738ec4e146100fe578063e1c627c41461012257600080fd5b806307184900146100825780630aeacb5e146100ab578063125f8974146100bd575b600080fd5b61009561009036600461083e565b610135565b6040516100a291906108a7565b60405180910390f35b6002545b6040519081526020016100a2565b6100af60025481565b6100d96100d4366004610964565b6101e1565b005b6100ee6100e93660046109c8565b610442565b6040516100a29493929190610a05565b61011161010c3660046109c8565b6105ed565b6040516100a2959493929190610a3e565b61009561013036600461083e565b610747565b6001818154811061014557600080fd5b90600052602060002001600091509050805461016090610a8e565b80601f016020809104026020016040519081016040528092919081815260200182805461018c90610a8e565b80156101d95780601f106101ae576101008083540402835291602001916101d9565b820191906000526020600020905b8154815290600101906020018083116101bc57829003601f168201915b505050505081565b600082511161022e5760405162461bcd60e51b8152602060048201526014602482015273486173682063616e6e6f7420626520656d70747960601b60448201526064015b60405180910390fd5b600081511161027f5760405162461bcd60e51b815260206004820152601960248201527f5265636f72642049442063616e6e6f7420626520656d707479000000000000006044820152606401610225565b60008260405161028f9190610ac8565b9081526040519081900360200190206004015460ff16156102e85760405162461bcd60e51b81526020600482015260136024820152724861736820616c72656164792065786973747360681b6044820152606401610225565b6040805160a08101825283815233602082015242818301526060810183905260016080820152905160009061031e908590610ac8565b9081526040519081900360200190208151819061033b9082610b33565b5060208201516001820180546001600160a01b0319166001600160a01b0390921691909117905560408201516002820155606082015160038201906103809082610b33565b50608091909101516004909101805460ff19169115159190911790556001805480820182556000919091527fb10e2d527612073b26eecdfd717e6a320cf44b4afac2b0732d9fcbe2b7fa0cf6016103d78382610b33565b50600280549060006103e883610bf3565b909155505060405133906103fd908490610ac8565b60405180910390207f5893fc095b080c4b8c835fb3b6c8370d3b3e41e31783bbe45263b579f998fa0a4284604051610436929190610c1a565b60405180910390a35050565b600080600060606000808660405161045a9190610ac8565b90815260200160405180910390206040518060a001604052908160008201805461048390610a8e565b80601f01602080910402602001604051908101604052809291908181526020018280546104af90610a8e565b80156104fc5780601f106104d1576101008083540402835291602001916104fc565b820191906000526020600020905b8154815290600101906020018083116104df57829003601f168201915b505050918352505060018201546001600160a01b031660208201526002820154604082015260038201805460609092019161053690610a8e565b80601f016020809104026020016040519081016040528092919081815260200182805461056290610a8e565b80156105af5780601f10610584576101008083540402835291602001916105af565b820191906000526020600020905b81548152906001019060200180831161059257829003601f168201915b50505091835250506004919091015460ff16151560209182015260808201519082015160408301516060909301519199909850919650945092505050565b805160208183018101805160008252928201919093012091528054819061061390610a8e565b80601f016020809104026020016040519081016040528092919081815260200182805461063f90610a8e565b801561068c5780601f106106615761010080835404028352916020019161068c565b820191906000526020600020905b81548152906001019060200180831161066f57829003601f168201915b505050506001830154600284015460038501805494956001600160a01b0390931694919350906106bb90610a8e565b80601f01602080910402602001604051908101604052809291908181526020018280546106e790610a8e565b80156107345780601f1061070957610100808354040283529160200191610734565b820191906000526020600020905b81548152906001019060200180831161071757829003601f168201915b5050506004909301549192505060ff1685565b60015460609082106107915760405162461bcd60e51b8152602060048201526013602482015272496e646578206f7574206f6620626f756e647360681b6044820152606401610225565b600182815481106107a4576107a4610c33565b9060005260206000200180546107b990610a8e565b80601f01602080910402602001604051908101604052809291908181526020018280546107e590610a8e565b80156108325780601f1061080757610100808354040283529160200191610832565b820191906000526020600020905b81548152906001019060200180831161081557829003601f168201915b50505050509050919050565b60006020828403121561085057600080fd5b5035919050565b60005b8381101561087257818101518382015260200161085a565b50506000910152565b60008151808452610893816020860160208601610857565b601f01601f19169290920160200192915050565b6020815260006108ba602083018461087b565b9392505050565b634e487b7160e01b600052604160045260246000fd5b600082601f8301126108e857600080fd5b813567ffffffffffffffff80821115610903576109036108c1565b604051601f8301601f19908116603f0116810190828211818310171561092b5761092b6108c1565b8160405283815286602085880101111561094457600080fd5b836020870160208301376000602085830101528094505050505092915050565b6000806040838503121561097757600080fd5b823567ffffffffffffffff8082111561098f57600080fd5b61099b868387016108d7565b935060208501359150808211156109b157600080fd5b506109be858286016108d7565b9150509250929050565b6000602082840312156109da57600080fd5b813567ffffffffffffffff8111156109f157600080fd5b6109fd848285016108d7565b949350505050565b841515815260018060a01b0384166020820152826040820152608060608201526000610a34608083018461087b565b9695505050505050565b60a081526000610a5160a083018861087b565b6001600160a01b0387166020840152604083018690528281036060840152610a79818661087b565b91505082151560808301529695505050505050565b600181811c90821680610aa257607f821691505b602082108103610ac257634e487b7160e01b600052602260045260246000fd5b50919050565b60008251610ada818460208701610857565b9190910192915050565b601f821115610b2e57600081815260208120601f850160051c81016020861015610b0b5750805b601f850160051c820191505b81811015610b2a57828155600101610b17565b5050505b505050565b815167ffffffffffffffff811115610b4d57610b4d6108c1565b610b6181610b5b8454610a8e565b84610ae4565b602080601f831160018114610b965760008415610b7e5750858301515b600019600386901b1c1916600185901b178555610b2a565b600085815260208120601f198616915b82811015610bc557888601518255948401946001909101908401610ba6565b5085821015610be35787850151600019600388901b60f8161c191681555b5050505050600190811b01905550565b600060018201610c1357634e487b7160e01b600052601160045260246000fd5b5060010190565b8281526040602082015260006109fd604083018461087b565b634e487b7160e01b600052603260045260246000fdfea264697066735822122083ef9368611457c241b87d3602768aeaaca0f6db68d4805a8ace7db8e48b4fcb64736f6c63430008130033",
  "linkReferences": {},
  "deployedLinkReferences": {}
}