{
  "_format": "hh-sol-artifact-1",
  "contractName": "MemberRoleManager",
  "sourceName": "contracts/MemberRoleManager.sol",
  "abi": [
    {
      "inputs": [],
      "stateMutability": "nonpayable",
      "type": "constructor"
    },
    {
      "anonymous": false,
      "inputs": [
        {
          "indexed": true,
          "internalType": "address",
          "name": "oldAdmin",
          "type": "address"
        },
        {
          "indexed": true,
          "internalType": "address",
          "name": "newAdmin",
          "type": "address"
        },
        {
          "indexed": false,
          "internalType": "uint256",
          "name": "timestamp",
          "type": "uint256"
        }
      ],
      "name": "AdminTransferred",
      "type": "event"
    },
    {
      "anonymous": false,
      "inputs": [
        {
          "indexed": true,
          "internalType": "address",
          "name": "userWallet",
          "type": "address"
        },
        {
          "indexed": true,
          "internalType": "bytes32",
          "name": "userIdHash",
          "type": "bytes32"
        },
        {
          "indexed": false,
          "internalType": "uint256",
          "name": "timestamp",
          "type": "uint256"
        }
      ],
      "name": "MemberRegistered",
      "type": "event"
    },
    {
      "anonymous": false,
      "inputs": [
        {
          "indexed": true,
          "internalType": "address",
          "name": "userWallet",
          "type": "address"
        },
        {
          "indexed": false,
          "internalType": "enum MemberRoleManager.MemberStatus",
          "name": "oldStatus",
          "type": "uint8"
        },
        {
          "indexed": false,
          "internalType": "enum MemberRoleManager.MemberStatus",
          "name": "newStatus",
          "type": "uint8"
        },
        {
          "indexed": true,
          "internalType": "address",
          "name": "changedBy",
          "type": "address"
        },
        {
          "indexed": false,
          "internalType": "uint256",
          "name": "timestamp",
          "type": "uint256"
        }
      ],
      "name": "MemberStatusChanged",
      "type": "event"
    },
    {
      "anonymous": false,
      "inputs": [
        {
          "indexed": true,
          "internalType": "string",
          "name": "recordId",
          "type": "string"
        },
        {
          "indexed": true,
          "internalType": "address",
          "name": "owner",
          "type": "address"
        },
        {
          "indexed": false,
          "internalType": "uint256",
          "name": "timestamp",
          "type": "uint256"
        }
      ],
      "name": "OwnerVoluntarilyLeft",
      "type": "event"
    },
    {
      "anonymous": false,
      "inputs": [
        {
          "indexed": true,
          "internalType": "string",
          "name": "recordId",
          "type": "string"
        },
        {
          "indexed": true,
          "internalType": "address",
          "name": "user",
          "type": "address"
        },
        {
          "indexed": false,
          "internalType": "string",
          "name": "oldRole",
          "type": "string"
        },
        {
          "indexed": false,
          "internalType": "string",
          "name": "newRole",
          "type": "string"
        },
        {
          "indexed": true,
          "internalType": "address",
          "name": "changedBy",
          "type": "address"
        },
        {
          "indexed": false,
          "internalType": "uint256",
          "name": "timestamp",
          "type": "uint256"
        }
      ],
      "name": "RoleChanged",
      "type": "event"
    },
    {
      "anonymous": false,
      "inputs": [
        {
          "indexed": true,
          "internalType": "string",
          "name": "recordId",
          "type": "string"
        },
        {
          "indexed": true,
          "internalType": "address",
          "name": "user",
          "type": "address"
        },
        {
          "indexed": false,
          "internalType": "string",
          "name": "role",
          "type": "string"
        },
        {
          "indexed": true,
          "internalType": "address",
          "name": "grantedBy",
          "type": "address"
        },
        {
          "indexed": false,
          "internalType": "uint256",
          "name": "timestamp",
          "type": "uint256"
        }
      ],
      "name": "RoleGranted",
      "type": "event"
    },
    {
      "anonymous": false,
      "inputs": [
        {
          "indexed": true,
          "internalType": "string",
          "name": "recordId",
          "type": "string"
        },
        {
          "indexed": true,
          "internalType": "address",
          "name": "user",
          "type": "address"
        },
        {
          "indexed": false,
          "internalType": "string",
          "name": "role",
          "type": "string"
        },
        {
          "indexed": true,
          "internalType": "address",
          "name": "revokedBy",
          "type": "address"
        },
        {
          "indexed": false,
          "internalType": "uint256",
          "name": "timestamp",
          "type": "uint256"
        }
      ],
      "name": "RoleRevoked",
      "type": "event"
    },
    {
      "inputs": [
        {
          "internalType": "address",
          "name": "userWallet",
          "type": "address"
        },
        {
          "internalType": "bytes32",
          "name": "userIdHash",
          "type": "bytes32"
        }
      ],
      "name": "addMember",
      "outputs": [],
      "stateMutability": "nonpayable",
      "type": "function"
    },
    {
      "inputs": [],
      "name": "admin",
      "outputs": [
        {
          "internalType": "address",
          "name": "",
          "type": "address"
        }
      ],
      "stateMutability": "view",
      "type": "function"
    },
    {
      "inputs": [
        {
          "internalType": "string",
          "name": "",
          "type": "string"
        },
        {
          "internalType": "uint256",
          "name": "",
          "type": "uint256"
        }
      ],
      "name": "adminsByRecord",
      "outputs": [
        {
          "internalType": "address",
          "name": "",
          "type": "address"
        }
      ],
      "stateMutability": "view",
      "type": "function"
    },
    {
      "inputs": [
        {
          "internalType": "string",
          "name": "recordId",
          "type": "string"
        },
        {
          "internalType": "address",
          "name": "user",
          "type": "address"
        },
        {
          "internalType": "string",
          "name": "newRole",
          "type": "string"
        }
      ],
      "name": "changeRole",
      "outputs": [],
      "stateMutability": "nonpayable",
      "type": "function"
    },
    {
      "inputs": [
        {
          "internalType": "address",
          "name": "user",
          "type": "address"
        }
      ],
      "name": "getMember",
      "outputs": [
        {
          "internalType": "bytes32",
          "name": "userIdHash",
          "type": "bytes32"
        },
        {
          "internalType": "enum MemberRoleManager.MemberStatus",
          "name": "status",
          "type": "uint8"
        },
        {
          "internalType": "uint256",
          "name": "joinedAt",
          "type": "uint256"
        }
      ],
      "stateMutability": "view",
      "type": "function"
    },
    {
      "inputs": [
        {
          "internalType": "string",
          "name": "recordId",
          "type": "string"
        }
      ],
      "name": "getRecordAdmins",
      "outputs": [
        {
          "internalType": "address[]",
          "name": "",
          "type": "address[]"
        }
      ],
      "stateMutability": "view",
      "type": "function"
    },
    {
      "inputs": [
        {
          "internalType": "string",
          "name": "recordId",
          "type": "string"
        }
      ],
      "name": "getRecordOwners",
      "outputs": [
        {
          "internalType": "address[]",
          "name": "",
          "type": "address[]"
        }
      ],
      "stateMutability": "view",
      "type": "function"
    },
    {
      "inputs": [
        {
          "internalType": "string",
          "name": "recordId",
          "type": "string"
        }
      ],
      "name": "getRecordRoleStats",
      "outputs": [
        {
          "internalType": "uint256",
          "name": "ownerCount",
          "type": "uint256"
        },
        {
          "internalType": "uint256",
          "name": "adminCount",
          "type": "uint256"
        },
        {
          "internalType": "uint256",
          "name": "viewerCount",
          "type": "uint256"
        }
      ],
      "stateMutability": "view",
      "type": "function"
    },
    {
      "inputs": [
        {
          "internalType": "string",
          "name": "recordId",
          "type": "string"
        }
      ],
      "name": "getRecordViewers",
      "outputs": [
        {
          "internalType": "address[]",
          "name": "",
          "type": "address[]"
        }
      ],
      "stateMutability": "view",
      "type": "function"
    },
    {
      "inputs": [
        {
          "internalType": "address",
          "name": "user",
          "type": "address"
        }
      ],
      "name": "getRecordsByUser",
      "outputs": [
        {
          "internalType": "string[]",
          "name": "",
          "type": "string[]"
        }
      ],
      "stateMutability": "view",
      "type": "function"
    },
    {
      "inputs": [
        {
          "internalType": "string",
          "name": "recordId",
          "type": "string"
        },
        {
          "internalType": "address",
          "name": "user",
          "type": "address"
        }
      ],
      "name": "getRoleDetails",
      "outputs": [
        {
          "internalType": "string",
          "name": "role",
          "type": "string"
        },
        {
          "internalType": "uint256",
          "name": "grantedAt",
          "type": "uint256"
        },
        {
          "internalType": "uint256",
          "name": "lastModified",
          "type": "uint256"
        },
        {
          "internalType": "address",
          "name": "grantedBy",
          "type": "address"
        },
        {
          "internalType": "bool",
          "name": "isActive",
          "type": "bool"
        }
      ],
      "stateMutability": "view",
      "type": "function"
    },
    {
      "inputs": [],
      "name": "getTotalRoles",
      "outputs": [
        {
          "internalType": "uint256",
          "name": "",
          "type": "uint256"
        }
      ],
      "stateMutability": "view",
      "type": "function"
    },
    {
      "inputs": [
        {
          "internalType": "bytes32",
          "name": "userIdHash",
          "type": "bytes32"
        }
      ],
      "name": "getWalletByUserIdHash",
      "outputs": [
        {
          "internalType": "address",
          "name": "",
          "type": "address"
        }
      ],
      "stateMutability": "view",
      "type": "function"
    },
    {
      "inputs": [
        {
          "internalType": "string",
          "name": "recordId",
          "type": "string"
        },
        {
          "internalType": "address",
          "name": "user",
          "type": "address"
        },
        {
          "internalType": "string",
          "name": "role",
          "type": "string"
        }
      ],
      "name": "grantRole",
      "outputs": [],
      "stateMutability": "nonpayable",
      "type": "function"
    },
    {
      "inputs": [
        {
          "internalType": "string",
          "name": "recordId",
          "type": "string"
        },
        {
          "internalType": "address",
          "name": "user",
          "type": "address"
        }
      ],
      "name": "hasActiveRole",
      "outputs": [
        {
          "internalType": "bool",
          "name": "",
          "type": "bool"
        }
      ],
      "stateMutability": "view",
      "type": "function"
    },
    {
      "inputs": [
        {
          "internalType": "string",
          "name": "recordId",
          "type": "string"
        },
        {
          "internalType": "address",
          "name": "user",
          "type": "address"
        },
        {
          "internalType": "string",
          "name": "role",
          "type": "string"
        }
      ],
      "name": "hasRole",
      "outputs": [
        {
          "internalType": "bool",
          "name": "",
          "type": "bool"
        }
      ],
      "stateMutability": "view",
      "type": "function"
    },
    {
      "inputs": [
        {
          "internalType": "string",
          "name": "recordId",
          "type": "string"
        },
        {
          "internalType": "address",
          "name": "firstAdmin",
          "type": "address"
        }
      ],
      "name": "initializeRecordRole",
      "outputs": [],
      "stateMutability": "nonpayable",
      "type": "function"
    },
    {
      "inputs": [
        {
          "internalType": "address",
          "name": "user",
          "type": "address"
        }
      ],
      "name": "isActiveMember",
      "outputs": [
        {
          "internalType": "bool",
          "name": "",
          "type": "bool"
        }
      ],
      "stateMutability": "view",
      "type": "function"
    },
    {
      "inputs": [
        {
          "internalType": "string",
          "name": "recordId",
          "type": "string"
        },
        {
          "internalType": "address",
          "name": "user",
          "type": "address"
        }
      ],
      "name": "isOwnerOrAdmin",
      "outputs": [
        {
          "internalType": "bool",
          "name": "",
          "type": "bool"
        }
      ],
      "stateMutability": "view",
      "type": "function"
    },
    {
      "inputs": [
        {
          "internalType": "address",
          "name": "user",
          "type": "address"
        }
      ],
      "name": "isVerifiedMember",
      "outputs": [
        {
          "internalType": "bool",
          "name": "",
          "type": "bool"
        }
      ],
      "stateMutability": "view",
      "type": "function"
    },
    {
      "inputs": [
        {
          "internalType": "address",
          "name": "",
          "type": "address"
        }
      ],
      "name": "members",
      "outputs": [
        {
          "internalType": "address",
          "name": "userWallet",
          "type": "address"
        },
        {
          "internalType": "bytes32",
          "name": "userIdHash",
          "type": "bytes32"
        },
        {
          "internalType": "enum MemberRoleManager.MemberStatus",
          "name": "status",
          "type": "uint8"
        },
        {
          "internalType": "uint256",
          "name": "joinedAt",
          "type": "uint256"
        }
      ],
      "stateMutability": "view",
      "type": "function"
    },
    {
      "inputs": [
        {
          "internalType": "string",
          "name": "",
          "type": "string"
        },
        {
          "internalType": "uint256",
          "name": "",
          "type": "uint256"
        }
      ],
      "name": "ownersByRecord",
      "outputs": [
        {
          "internalType": "address",
          "name": "",
          "type": "address"
        }
      ],
      "stateMutability": "view",
      "type": "function"
    },
    {
      "inputs": [
        {
          "internalType": "bytes32",
          "name": "",
          "type": "bytes32"
        }
      ],
      "name": "recordRoles",
      "outputs": [
        {
          "internalType": "string",
          "name": "recordId",
          "type": "string"
        },
        {
          "internalType": "address",
          "name": "user",
          "type": "address"
        },
        {
          "internalType": "string",
          "name": "role",
          "type": "string"
        },
        {
          "internalType": "uint256",
          "name": "grantedAt",
          "type": "uint256"
        },
        {
          "internalType": "uint256",
          "name": "lastModified",
          "type": "uint256"
        },
        {
          "internalType": "address",
          "name": "grantedBy",
          "type": "address"
        },
        {
          "internalType": "bool",
          "name": "isActive",
          "type": "bool"
        }
      ],
      "stateMutability": "view",
      "type": "function"
    },
    {
      "inputs": [
        {
          "internalType": "address",
          "name": "",
          "type": "address"
        },
        {
          "internalType": "uint256",
          "name": "",
          "type": "uint256"
        }
      ],
      "name": "recordsByUser",
      "outputs": [
        {
          "internalType": "string",
          "name": "",
          "type": "string"
        }
      ],
      "stateMutability": "view",
      "type": "function"
    },
    {
      "inputs": [
        {
          "internalType": "string",
          "name": "recordId",
          "type": "string"
        },
        {
          "internalType": "address",
          "name": "user",
          "type": "address"
        }
      ],
      "name": "revokeRole",
      "outputs": [],
      "stateMutability": "nonpayable",
      "type": "function"
    },
    {
      "inputs": [
        {
          "internalType": "address",
          "name": "userWallet",
          "type": "address"
        },
        {
          "internalType": "enum MemberRoleManager.MemberStatus",
          "name": "newStatus",
          "type": "uint8"
        }
      ],
      "name": "setMemberStatus",
      "outputs": [],
      "stateMutability": "nonpayable",
      "type": "function"
    },
    {
      "inputs": [],
      "name": "totalMembers",
      "outputs": [
        {
          "internalType": "uint256",
          "name": "",
          "type": "uint256"
        }
      ],
      "stateMutability": "view",
      "type": "function"
    },
    {
      "inputs": [],
      "name": "totalRoles",
      "outputs": [
        {
          "internalType": "uint256",
          "name": "",
          "type": "uint256"
        }
      ],
      "stateMutability": "view",
      "type": "function"
    },
    {
      "inputs": [
        {
          "internalType": "address",
          "name": "newAdmin",
          "type": "address"
        }
      ],
      "name": "transferAdmin",
      "outputs": [],
      "stateMutability": "nonpayable",
      "type": "function"
    },
    {
      "inputs": [
        {
          "internalType": "bytes32",
          "name": "",
          "type": "bytes32"
        }
      ],
      "name": "userIdHashToAddress",
      "outputs": [
        {
          "internalType": "address",
          "name": "",
          "type": "address"
        }
      ],
      "stateMutability": "view",
      "type": "function"
    },
    {
      "inputs": [
        {
          "internalType": "string",
          "name": "",
          "type": "string"
        },
        {
          "internalType": "uint256",
          "name": "",
          "type": "uint256"
        }
      ],
      "name": "viewersByRecord",
      "outputs": [
        {
          "internalType": "address",
          "name": "",
          "type": "address"
        }
      ],
      "stateMutability": "view",
      "type": "function"
    },
    {
      "inputs": [
        {
          "internalType": "string",
          "name": "recordId",
          "type": "string"
        }
      ],
      "name": "voluntarilyRemoveOwnOwnership",
      "outputs": [],
      "stateMutability": "nonpayable",
      "type": "function"
    }
  ],
  "bytecode": "0x608060405234801561001057600080fd5b50600080546001600160a01b03191633179055613d77806100326000396000f3fe608060405234801561001057600080fd5b50600436106101f05760003560e01c806375829def1161010f578063b55aefcc116100a2578063daa9dc2311610071578063daa9dc23146104f9578063e965bfb71461050c578063eb2bbf251461051f578063f851a4401461054357600080fd5b8063b55aefcc146104ad578063bb20b172146104c0578063cabdd23f146104d3578063cb261a03146104e657600080fd5b80639020666b116100de5780639020666b1461044b578063970ee5b914610474578063a0ca13c314610487578063aa85bf3f1461049a57600080fd5b806375829def1461041357806376e92559146104265780637798e7801461042f578063790e118c1461044257600080fd5b806341d8bde311610187578063510b300311610156578063510b3003146103ba57806357ac40c3146103cd5780636e715743146103ed578063731f21a01461040057600080fd5b806341d8bde31461035257806345ecd02f1461038057806349df7208146103935780634b6feb7c146103a857600080fd5b80631a95aca5116101c35780631a95aca5146102d75780632ada2596146102f757806333105592146103195780633dd1e8fc1461033f57600080fd5b806308ae4b0c146101f557806309012a86146102535780630c6de840146102945780631435b558146102b4575b600080fd5b61023a610203366004613443565b600160208190526000918252604090912080549181015460028201546003909201546001600160a01b0390931692909160ff169084565b60405161024a9493929190613496565b60405180910390f35b61027c6102613660046134c9565b6000908152600260205260409020546001600160a01b031690565b6040516001600160a01b03909116815260200161024a565b6102a76102a23660046134e2565b610556565b60405161024a919061355c565b6102c76102c2366004613612565b61060f565b604051901515815260200161024a565b6102ea6102e5366004613660565b610624565b60405161024a9190613695565b61030a610305366004613443565b61069e565b60405161024a939291906136e2565b61032c6103273660046134c9565b610737565b60405161024a9796959493929190613704565b6102ea61034d366004613660565b6108a1565b610365610360366004613660565b6108b3565b6040805193845260208401929092529082015260600161024a565b6102c761038e366004613443565b610924565b6103a66103a13660046134e2565b610982565b005b6009545b60405190815260200161024a565b6102ea6103c8366004613660565b610bd5565b6103e06103db366004613443565b610be7565b60405161024a9190613764565b6103a66103fb3660046137c6565b610cd6565b6103a661040e366004613612565b610e84565b6103a6610421366004613443565b611471565b6103ac60035481565b6103a661043d366004613612565b611549565b6103ac60095481565b61027c6104593660046134c9565b6002602052600090815260409020546001600160a01b031681565b61027c610482366004613801565b61174c565b6102c7610495366004613612565b611793565b6103a66104a8366004613660565b61179f565b61027c6104bb366004613801565b6119d2565b6103a66104ce366004613846565b6119fd565b6102c76104e1366004613846565b611fbf565b6102c76104f4366004613443565b611fd4565b6103a6610507366004613846565b61200c565b61027c61051a366004613801565b6129d4565b61053261052d366004613612565b6129ff565b60405161024a9594939291906138ba565b60005461027c906001600160a01b031681565b6008602052816000526040600020818154811061057257600080fd5b9060005260206000200160009150915050805461058e906138fc565b80601f01602080910402602001604051908101604052809291908181526020018280546105ba906138fc565b80156106075780601f106105dc57610100808354040283529160200191610607565b820191906000526020600020905b8154815290600101906020018083116105ea57829003601f168201915b505050505081565b600061061b8383612bfd565b90505b92915050565b60606005826040516106369190613936565b908152604080519182900360209081018320805480830285018301909352828452919083018282801561069257602002820191906000526020600020905b81546001600160a01b03168152600190910190602001808311610674575b50505050509050919050565b6001600160a01b038082166000908152600160208181526040808420815160808101835281549096168652928301549185019190915260028083015493948594859485949293909284019160ff16908111156106fc576106fc61345e565b600281111561070d5761070d61345e565b81526003919091015460209182015281015160408201516060909201519097919650945092505050565b600460205260009081526040902080548190610752906138fc565b80601f016020809104026020016040519081016040528092919081815260200182805461077e906138fc565b80156107cb5780601f106107a0576101008083540402835291602001916107cb565b820191906000526020600020905b8154815290600101906020018083116107ae57829003601f168201915b505050600184015460028501805494956001600160a01b039092169491935091506107f5906138fc565b80601f0160208091040260200160405190810160405280929190818152602001828054610821906138fc565b801561086e5780601f106108435761010080835404028352916020019161086e565b820191906000526020600020905b81548152906001019060200180831161085157829003601f168201915b5050505060038301546004840154600590940154929390929091506001600160a01b03811690600160a01b900460ff1687565b60606006826040516106369190613936565b60008060006005846040516108c89190613936565b90815260405190819003602001812054906006906108e7908790613936565b9081526040519081900360200181205490600790610906908890613936565b90815260405190819003602001902054919450925090509193909250565b6000806001600160a01b038316600090815260016020526040902060029081015460ff16908111156109585761095861345e565b1415801561061e5750506001600160a01b0316600090815260016020526040902060030154151590565b6000546001600160a01b031633146109b55760405162461bcd60e51b81526004016109ac90613952565b60405180910390fd5b6001600160a01b038216610a045760405162461bcd60e51b8152602060048201526016602482015275496e76616c69642077616c6c6574206164647265737360501b60448201526064016109ac565b6001600160a01b03821660009081526001602052604090206003015415610a605760405162461bcd60e51b815260206004820152601060248201526f20b63932b0b23c90309036b2b6b132b960811b60448201526064016109ac565b6000818152600260205260409020546001600160a01b031615610ac55760405162461bcd60e51b815260206004820152601a60248201527f5573657220494420616c7265616479207265676973746572656400000000000060448201526064016109ac565b604080516080810182526001600160a01b038481168083526020808401868152600185870181815242606088015260009485529281905295909220845181546001600160a01b03191694169390931783559051828501555160028083018054949593949293909260ff1916918490811115610b4257610b4261345e565b021790555060609190910151600391820155600082815260026020526040812080546001600160a01b0319166001600160a01b03861617905581549190610b888361398c565b919050555080826001600160a01b03167f39d132591ee0696de49ab564e4a90e430c006561917db731a2a614dd2d24559142604051610bc991815260200190565b60405180910390a35050565b60606007826040516106369190613936565b6001600160a01b0381166000908152600860209081526040808320805482518185028101850190935280835260609492939192909184015b82821015610ccb578382906000526020600020018054610c3e906138fc565b80601f0160208091040260200160405190810160405280929190818152602001828054610c6a906138fc565b8015610cb75780601f10610c8c57610100808354040283529160200191610cb7565b820191906000526020600020905b815481529060010190602001808311610c9a57829003601f168201915b505050505081526020019060010190610c1f565b505050509050919050565b6000546001600160a01b03163314610d005760405162461bcd60e51b81526004016109ac90613952565b6001600160a01b0382166000908152600160205260408120600301549003610d595760405162461bcd60e51b815260206004820152600c60248201526b2737ba10309036b2b6b132b960a11b60448201526064016109ac565b6001600160a01b038216600090815260016020526040902060029081015460ff16908290811115610d8c57610d8c61345e565b816002811115610d9e57610d9e61345e565b03610de15760405162461bcd60e51b8152602060048201526013602482015272416c726561647920746869732073746174757360681b60448201526064016109ac565b8160016000856001600160a01b03166001600160a01b0316815260200190815260200160002060020160006101000a81548160ff02191690836002811115610e2b57610e2b61345e565b0217905550336001600160a01b0316836001600160a01b03167f08df6fe77900a7f74a03489f6be278308324a06574c9d8a65c1dae5381c3881d838542604051610e77939291906139a5565b60405180910390a3505050565b6000825111610ea55760405162461bcd60e51b81526004016109ac906139c0565b6001600160a01b038116610ecb5760405162461bcd60e51b81526004016109ac906139f7565b60008282604051602001610ee0929190613a2e565b6040516020818303038152906040528051906020012090506000600460008381526020019081526020016000206040518060e0016040529081600082018054610f28906138fc565b80601f0160208091040260200160405190810160405280929190818152602001828054610f54906138fc565b8015610fa15780601f10610f7657610100808354040283529160200191610fa1565b820191906000526020600020905b815481529060010190602001808311610f8457829003601f168201915b505050918352505060018201546001600160a01b03166020820152600282018054604090920191610fd1906138fc565b80601f0160208091040260200160405190810160405280929190818152602001828054610ffd906138fc565b801561104a5780601f1061101f5761010080835404028352916020019161104a565b820191906000526020600020905b81548152906001019060200180831161102d57829003601f168201915b505050918352505060038201546020820152600482015460408201526005909101546001600160a01b0381166060830152600160a01b900460ff16151560809091015260c08101519091506110b15760405162461bcd60e51b81526004016109ac90613a65565b60408082015180516020808301919091208351808501909452600584526437bbb732b960d91b939091019290925290600080516020613ce283398151915281016111755760405162461bcd60e51b815260206004820152604960248201527f4f776e6572732063616e6e6f74206265207265766f6b65642e204f776e65722060448201527f6d7573742075736520766f6c756e746172696c7952656d6f76654f776e4f776e60648201526832b939b434b814149760b91b608482015260a4016109ac565b336001600160a01b03861614806112d7576111908733612c4d565b6111e25760405162461bcd60e51b815260206004820152602f6024820152600080516020613ca283398151915260448201526e616e207265766f6b6520726f6c657360881b60648201526084016109ac565b600061120c88336040518060400160405280600581526020016437bbb732b960d91b815250612ca9565b9050806112d55760408051808201909152600d81526c30b236b4b734b9ba3930ba37b960991b602090910152600080516020613d02833981519152831480156112d35760008060058b6040516112629190613936565b9081526040519081900360200190205411905080156112d15760405162461bcd60e51b815260206004820152602560248201527f4f6e6c79206f776e6572732063616e207265766f6b652061646d696e6973747260448201526461746f727360d81b60648201526084016109ac565b505b505b505b60408051808201909152600d81526c30b236b4b734b9ba3930ba37b960991b602090910152600080516020613d2283398151915282016113de57600060016006896040516113259190613936565b90815260200160405180910390208054905011905060008060058a60405161134d9190613936565b9081526040519081900360200190205411905081806113695750805b6113db5760405162461bcd60e51b815260206004820152603960248201527f43616e6e6f74207265766f6b65206c6173742061646d696e6973747261746f7260448201527f20776974686f757420616e206f776e65722070726573656e740000000000000060648201526084016109ac565b50505b6113e9878785612e9b565b60008581526004602081905260409182902060058101805460ff60a01b19169055429101555133906001600160a01b03881690611427908a90613936565b60405180910390207f4a3687fcb71d47fa2e61f904671324e749c46ad50a2236d66943ab0ab659bbb38642604051611460929190613aa6565b60405180910390a450505050505050565b6000546001600160a01b0316331461149b5760405162461bcd60e51b81526004016109ac90613952565b6001600160a01b0381166114e35760405162461bcd60e51b815260206004820152600f60248201526e496e76616c6964206164647265737360881b60448201526064016109ac565b6000546040514281526001600160a01b038381169216907f38df5fa0f7fef0d515ca1f5388cb5790ac5885d5fca8d05d9f943e563c33a4b39060200160405180910390a3600080546001600160a01b0319166001600160a01b0392909216919091179055565b6000546001600160a01b031633146115735760405162461bcd60e51b81526004016109ac90613952565b60008251116115945760405162461bcd60e51b81526004016109ac906139c0565b6001600160a01b0381166115dc5760405162461bcd60e51b815260206004820152600f60248201526e496e76616c6964206164647265737360881b60448201526064016109ac565b6001600160a01b038116600090815260016020526040812060029081015460ff169081111561160d5761160d61345e565b1415801561163557506001600160a01b03811660009081526001602052604090206003015415155b6116815760405162461bcd60e51b815260206004820152601860248201527f4d75737420626520616e20616374697665206d656d626572000000000000000060448201526064016109ac565b6005826040516116919190613936565b908152604051908190036020019020541580156116cb57506006826040516116b99190613936565b90815260405190819003602001902054155b6117175760405162461bcd60e51b815260206004820152601a60248201527f5265636f726420616c726561647920696e697469616c697a656400000000000060448201526064016109ac565b61174882826040518060400160405280600d81526020016c30b236b4b734b9ba3930ba37b960991b81525033612f9d565b5050565b8151602081840181018051600582529282019185019190912091905280548290811061177757600080fd5b6000918252602090912001546001600160a01b03169150829050565b600061061b8383612c4d565b60008151116117c05760405162461bcd60e51b81526004016109ac906139c0565b6117e881336040518060400160405280600581526020016437bbb732b960d91b815250612ca9565b6118405760405162461bcd60e51b815260206004820152602360248201527f596f7520617265206e6f7420616e206f776e6572206f662074686973207265636044820152621bdc9960ea1b60648201526084016109ac565b600060016005836040516118549190613936565b90815260200160405180910390208054905011905060008060068460405161187c9190613936565b9081526040519081900360200190205411905081806118985750805b61190a5760405162461bcd60e51b815260206004820152603b60248201527f43616e6e6f742072656d6f766520796f757273656c66206173206c617374206f60448201527f776e65722077697468206e6f2061646d696e6973747261746f7273000000000060648201526084016109ac565b6000833360405160200161191f929190613a2e565b60405160208183030381529060405280519060200120905061195f84336040518060400160405280600581526020016437bbb732b960d91b815250612e9b565b60008181526004602081905260409182902060058101805460ff60a01b1916905542910155513390611992908690613936565b604051908190038120428252907fcf5e8e3b738fc92454ce623ca55f54d14fdd7beea3859deb72f5171ad234092d9060200160405180910390a350505050565b8151602081840181018051600782529282019185019190912091905280548290811061177757600080fd5b33600090815260016020526040812060029081015460ff1690811115611a2557611a2561345e565b14158015611a4457503360009081526001602052604090206003015415155b611a875760405162461bcd60e51b81526020600482015260146024820152732737ba1030b71030b1ba34bb329036b2b6b132b960611b60448201526064016109ac565b6000835111611aa85760405162461bcd60e51b81526004016109ac906139c0565b6001600160a01b038216611ace5760405162461bcd60e51b81526004016109ac906139f7565b805160208083019190912060408051808201909152600581526437bbb732b960d91b9201919091527f02016836a56b71f0d02689e69e326f4f4c1b9057164ef592671cf0d37c8040c0811480611b56575060408051808201909152600d81526c30b236b4b734b9ba3930ba37b960991b602090910152600080516020613d0283398151915281145b80611b9e57506040805180820190915260068152653b34b2bbb2b960d11b6020909101527f120310a1203e5851b63a4d0b2c5643d3fba07783d2b04d7222298a1ed22e1e0d81145b611bba5760405162461bcd60e51b81526004016109ac90613ac8565b60008433604051602001611bcf929190613a2e565b60408051808303601f19018152918152815160209283012060008181526004909352912060050154909150600160a01b900460ff16611c505760405162461bcd60e51b815260206004820181905260248201527f596f752068617665206e6f20726f6c6520666f722074686973207265636f726460448201526064016109ac565b600080600587604051611c639190613936565b9081526020016040518091039020805490501190506000611ca287336040518060400160405280600581526020016437bbb732b960d91b815250612ca9565b90506000611cd688336040518060400160405280600d81526020016c30b236b4b734b9ba3930ba37b960991b815250612ca9565b60408051808201909152600581526437bbb732b960d91b6020909101529050600080516020613ce28339815191528501611dc1578215611d625781611d5d5760405162461bcd60e51b815260206004820181905260248201527f4f6e6c79206f776e6572732063616e206772616e74206f776e657220726f6c6560448201526064016109ac565b611ef7565b80611d5d5760405162461bcd60e51b815260206004820152602960248201527f4f6e6c792061646d696e6973747261746f72732063616e206772616e742066696044820152683939ba1037bbb732b960b91b60648201526084016109ac565b60408051808201909152600d81526c30b236b4b734b9ba3930ba37b960991b602090910152600080516020613d228339815191528501611e64578180611e045750805b611d5d5760405162461bcd60e51b815260206004820152603b6024820152600080516020613ca283398151915260448201527f616e206772616e742061646d696e6973747261746f7220726f6c65000000000060648201526084016109ac565b6040805180820190915260068152653b34b2bbb2b960d11b602090910152600080516020613cc28339815191528501611ef7578180611ea05750805b611ef75760405162461bcd60e51b81526020600482015260346024820152600080516020613ca2833981519152604482015273616e206772616e742076696577657220726f6c6560601b60648201526084016109ac565b60008888604051602001611f0c929190613a2e565b60408051808303601f19018152918152815160209283012060008181526004909352912060050154909150600160a01b900460ff1615611fa85760405162461bcd60e51b815260206004820152603160248201527f5573657220616c726561647920686173206120726f6c652e20557365206368616044820152701b99d9549bdb194a0a481a5b9cdd195859607a1b60648201526084016109ac565b611fb489898933612f9d565b505050505050505050565b6000611fcc848484612ca9565b949350505050565b6001600160a01b038116600090815260016020526040812060029081015460ff16818111156120055761200561345e565b1492915050565b33600090815260016020526040812060029081015460ff16908111156120345761203461345e565b1415801561205357503360009081526001602052604090206003015415155b6120965760405162461bcd60e51b81526020600482015260146024820152732737ba1030b71030b1ba34bb329036b2b6b132b960611b60448201526064016109ac565b60008351116120b75760405162461bcd60e51b81526004016109ac906139c0565b6001600160a01b0382166120dd5760405162461bcd60e51b81526004016109ac906139f7565b805160208083019190912060408051808201909152600581526437bbb732b960d91b9201919091527f02016836a56b71f0d02689e69e326f4f4c1b9057164ef592671cf0d37c8040c0811480612165575060408051808201909152600d81526c30b236b4b734b9ba3930ba37b960991b602090910152600080516020613d0283398151915281145b806121ad57506040805180820190915260068152653b34b2bbb2b960d11b6020909101527f120310a1203e5851b63a4d0b2c5643d3fba07783d2b04d7222298a1ed22e1e0d81145b6121c95760405162461bcd60e51b81526004016109ac90613ac8565b600084846040516020016121de929190613a2e565b6040516020818303038152906040528051906020012090506000600460008381526020019081526020016000206040518060e0016040529081600082018054612226906138fc565b80601f0160208091040260200160405190810160405280929190818152602001828054612252906138fc565b801561229f5780601f106122745761010080835404028352916020019161229f565b820191906000526020600020905b81548152906001019060200180831161228257829003601f168201915b505050918352505060018201546001600160a01b031660208201526002820180546040909201916122cf906138fc565b80601f01602080910402602001604051908101604052809291908181526020018280546122fb906138fc565b80156123485780601f1061231d57610100808354040283529160200191612348565b820191906000526020600020905b81548152906001019060200180831161232b57829003601f168201915b505050918352505060038201546020820152600482015460408201526005909101546001600160a01b0381166060830152600160a01b900460ff16151560809091015260c08101519091506123af5760405162461bcd60e51b81526004016109ac90613a65565b60408101518051602082012084810361240a5760405162461bcd60e51b815260206004820152601a60248201527f5573657220616c726561647920686173207468697320726f6c6500000000000060448201526064016109ac565b60408051808201909152600581526437bbb732b960d91b602090910152600080516020613ce283398151915281016124b65760405162461bcd60e51b815260206004820152604360248201527f4f776e6572732063616e6e6f742062652064656d6f7465642e204f776e65722060448201527f6d75737420766f6c756e746172696c792072656d6f7665207468656d73656c7660648201526232b99760e91b608482015260a4016109ac565b60008060058a6040516124c99190613936565b90815260200160405180910390208054905011905060006125088a336040518060400160405280600581526020016437bbb732b960d91b815250612ca9565b9050600061253c8b336040518060400160405280600d81526020016c30b236b4b734b9ba3930ba37b960991b815250612ca9565b60408051808201909152600581526437bbb732b960d91b6020909101529050336001600160a01b038b1614600080516020613ce283398151915289016126355783156125d457826125cf5760405162461bcd60e51b815260206004820181905260248201527f4f6e6c79206f776e6572732063616e2070726f6d6f746520746f206f776e657260448201526064016109ac565b612804565b816125cf5760405162461bcd60e51b815260206004820152602b60248201527f4f6e6c792061646d696e6973747261746f72732063616e2070726f6d6f74652060448201526a3334b939ba1037bbb732b960a91b60648201526084016109ac565b60408051808201909152600d81526c30b236b4b734b9ba3930ba37b960991b602090910152600080516020613d2283398151915289016126d85782806126785750815b6125cf5760405162461bcd60e51b815260206004820152603b6024820152600080516020613ca283398151915260448201527f616e2070726f6d6f746520746f2061646d696e6973747261746f72000000000060648201526084016109ac565b6040805180820190915260068152653b34b2bbb2b960d11b602090910152600080516020613cc283398151915289016128045783156127a657828061272257508180156127225750805b6125cf5760405162461bcd60e51b815260206004820152604960248201527f4f6e6c79206f776e6572732063616e2064656d6f7465206f74686572732e204160448201527f646d696e6973747261746f72732063616e206f6e6c792064656d6f746520746860648201526832b6b9b2b63b32b99760b91b608482015260a4016109ac565b816128045760405162461bcd60e51b815260206004820152602860248201527f4f6e6c792061646d696e6973747261746f72732063616e2064656d6f7465207460448201526737903b34b2bbb2b960c11b60648201526084016109ac565b60408051808201909152600d81526c30b236b4b734b9ba3930ba37b960991b602090910152600080516020613d028339815191528514801561288357506040805180820190915260068152653b34b2bbb2b960d11b6020909101527f120310a1203e5851b63a4d0b2c5643d3fba07783d2b04d7222298a1ed22e1e0d89145b15612922578361292257600160068d60405161289f9190613936565b90815260405190819003602001902054116129225760405162461bcd60e51b815260206004820152603960248201527f43616e6e6f742064656d6f746520746865206c6173742061646d696e6973747260448201527f61746f72207768656e206e6f206f776e6572206578697374730000000000000060648201526084016109ac565b61292d8c8c88612e9b565b6129388c8c8c6131bc565b60008881526004602052604090206002016129538b82613b6c565b50600088815260046020819052604091829020429101555133906001600160a01b038d1690612983908f90613936565b60405180910390207fa9b92b2b183a6569cac9b7675bea182897aa18a7ca2a6fb370a6f5825633961c898e426040516129be93929190613c2c565b60405180910390a4505050505050505050505050565b8151602081840181018051600682529282019185019190912091905280548290811061177757600080fd5b606060008060008060008787604051602001612a1c929190613a2e565b6040516020818303038152906040528051906020012090506000600460008381526020019081526020016000206040518060e0016040529081600082018054612a64906138fc565b80601f0160208091040260200160405190810160405280929190818152602001828054612a90906138fc565b8015612add5780601f10612ab257610100808354040283529160200191612add565b820191906000526020600020905b815481529060010190602001808311612ac057829003601f168201915b505050918352505060018201546001600160a01b03166020820152600282018054604090920191612b0d906138fc565b80601f0160208091040260200160405190810160405280929190818152602001828054612b39906138fc565b8015612b865780601f10612b5b57610100808354040283529160200191612b86565b820191906000526020600020905b815481529060010190602001808311612b6957829003601f168201915b50505091835250506003820154602082015260048201546040808301919091526005909201546001600160a01b038116606080840191909152600160a01b90910460ff16151560809283015291830151918301519083015160a084015160c090940151929d919c509a509198509650945050505050565b6000808383604051602001612c13929190613a2e565b60408051808303601f19018152918152815160209283012060009081526004909252902060050154600160a01b900460ff16949350505050565b6000612c7783836040518060400160405280600581526020016437bbb732b960d91b815250612ca9565b8061061b575061061b83836040518060400160405280600d81526020016c30b236b4b734b9ba3930ba37b960991b8152505b6000808484604051602001612cbf929190613a2e565b6040516020818303038152906040528051906020012090506000600460008381526020019081526020016000206040518060e0016040529081600082018054612d07906138fc565b80601f0160208091040260200160405190810160405280929190818152602001828054612d33906138fc565b8015612d805780601f10612d5557610100808354040283529160200191612d80565b820191906000526020600020905b815481529060010190602001808311612d6357829003601f168201915b505050918352505060018201546001600160a01b03166020820152600282018054604090920191612db0906138fc565b80601f0160208091040260200160405190810160405280929190818152602001828054612ddc906138fc565b8015612e295780601f10612dfe57610100808354040283529160200191612e29565b820191906000526020600020905b815481529060010190602001808311612e0c57829003601f168201915b505050918352505060038201546020820152600482015460408201526005909101546001600160a01b0381166060830152600160a01b900460ff16151560809091015260c08101519091508015612e9157508380519060200120816040015180519060200120145b9695505050505050565b805160208083019190912060408051808201909152600581526437bbb732b960d91b920191909152600080516020613ce28339815191528101612f0457612eff600585604051612eeb9190613936565b908152602001604051809103902084613319565b612f97565b60408051808201909152600d81526c30b236b4b734b9ba3930ba37b960991b602090910152600080516020613d228339815191528101612f5157612eff600685604051612eeb9190613936565b6040805180820190915260068152653b34b2bbb2b960d11b602090910152600080516020613cc28339815191528101612f9757612f97600785604051612eeb9190613936565b50505050565b60008484604051602001612fb2929190613a2e565b60408051808303601f1901815282825280516020918201206000818152600483528390206005015460e0850184528985526001600160a01b03891692850192909252918301869052909250600160a01b900460ff16906060810182613017574261302a565b6000848152600460205260409020600301545b8152426020808301919091526001600160a01b038616604080840191909152600160609093019290925260008581526004909152208151819061306d9082613b6c565b5060208201516001820180546001600160a01b0319166001600160a01b03909216919091179055604082015160028201906130a89082613b6c565b50606082015160038201556080820151600482015560a08201516005909101805460c0909301511515600160a01b026001600160a81b03199093166001600160a01b039092169190911791909117905580613151576131088686866131bc565b6001600160a01b03851660009081526008602090815260408220805460018101825590835291200161313a8782613b6c565b506009805490600061314b8361398c565b91905055505b826001600160a01b0316856001600160a01b0316876040516131739190613936565b60405180910390207fb11bb86c7a250ec130229577f2dfa0480d10122b9b1c02fb81df81959f1a791187426040516131ac929190613aa6565b60405180910390a4505050505050565b805160208083019190912060408051808201909152600581526437bbb732b960d91b920191909152600080516020613ce28339815191528101613248576005846040516132099190613936565b90815260405160209181900382019020805460018101825560009182529190200180546001600160a01b0319166001600160a01b038516179055612f97565b60408051808201909152600d81526c30b236b4b734b9ba3930ba37b960991b602090910152600080516020613d228339815191528101613292576006846040516132099190613936565b6040805180820190915260068152653b34b2bbb2b960d11b602090910152600080516020613cc28339815191528101612f97576007846040516132d59190613936565b908152604051908190036020908101909120805460018101825560009182529190200180546001600160a01b0385166001600160a01b031990911617905550505050565b60005b825481101561342257816001600160a01b031683828154811061334157613341613c62565b6000918252602090912001546001600160a01b031603613410578254839061336b90600190613c78565b8154811061337b5761337b613c62565b9060005260206000200160009054906101000a90046001600160a01b03168382815481106133ab576133ab613c62565b9060005260206000200160006101000a8154816001600160a01b0302191690836001600160a01b03160217905550828054806133e9576133e9613c8b565b600082815260209020810160001990810180546001600160a01b0319169055019055505050565b8061341a8161398c565b91505061331c565b505050565b80356001600160a01b038116811461343e57600080fd5b919050565b60006020828403121561345557600080fd5b61061b82613427565b634e487b7160e01b600052602160045260246000fd5b6003811061349257634e487b7160e01b600052602160045260246000fd5b9052565b6001600160a01b038516815260208101849052608081016134ba6040830185613474565b82606083015295945050505050565b6000602082840312156134db57600080fd5b5035919050565b600080604083850312156134f557600080fd5b6134fe83613427565b946020939093013593505050565b60005b8381101561352757818101518382015260200161350f565b50506000910152565b6000815180845261354881602086016020860161350c565b601f01601f19169290920160200192915050565b60208152600061061b6020830184613530565b634e487b7160e01b600052604160045260246000fd5b600082601f83011261359657600080fd5b813567ffffffffffffffff808211156135b1576135b161356f565b604051601f8301601f19908116603f011681019082821181831017156135d9576135d961356f565b816040528381528660208588010111156135f257600080fd5b836020870160208301376000602085830101528094505050505092915050565b6000806040838503121561362557600080fd5b823567ffffffffffffffff81111561363c57600080fd5b61364885828601613585565b92505061365760208401613427565b90509250929050565b60006020828403121561367257600080fd5b813567ffffffffffffffff81111561368957600080fd5b611fcc84828501613585565b6020808252825182820181905260009190848201906040850190845b818110156136d65783516001600160a01b0316835292840192918401916001016136b1565b50909695505050505050565b838152606081016136f66020830185613474565b826040830152949350505050565b60e08152600061371760e083018a613530565b6001600160a01b0389811660208501528382036040850152613739828a613530565b6060850198909852608084019690965250509190921660a082015290151560c0909101529392505050565b6000602080830181845280855180835260408601915060408160051b870101925083870160005b828110156137b957603f198886030184526137a7858351613530565b9450928501929085019060010161378b565b5092979650505050505050565b600080604083850312156137d957600080fd5b6137e283613427565b91506020830135600381106137f657600080fd5b809150509250929050565b6000806040838503121561381457600080fd5b823567ffffffffffffffff81111561382b57600080fd5b61383785828601613585565b95602094909401359450505050565b60008060006060848603121561385b57600080fd5b833567ffffffffffffffff8082111561387357600080fd5b61387f87838801613585565b945061388d60208701613427565b935060408601359150808211156138a357600080fd5b506138b086828701613585565b9150509250925092565b60a0815260006138cd60a0830188613530565b60208301969096525060408101939093526001600160a01b039190911660608301521515608090910152919050565b600181811c9082168061391057607f821691505b60208210810361393057634e487b7160e01b600052602260045260246000fd5b50919050565b6000825161394881846020870161350c565b9190910192915050565b6020808252600a908201526927b7363c9030b236b4b760b11b604082015260600190565b634e487b7160e01b600052601160045260246000fd5b60006001820161399e5761399e613976565b5060010190565b606081016139b38286613474565b6136f66020830185613474565b60208082526019908201527f5265636f72642049442063616e6e6f7420626520656d70747900000000000000604082015260600190565b6020808252601b908201527f5573657220616464726573732063616e6e6f74206265207a65726f0000000000604082015260600190565b60008351613a4081846020880161350c565b60609390931b6bffffffffffffffffffffffff19169190920190815260140192915050565b60208082526021908201527f5573657220646f6573206e6f74206861766520616e2061637469766520726f6c6040820152606560f81b606082015260800190565b604081526000613ab96040830185613530565b90508260208301529392505050565b60208082526036908201527f496e76616c696420726f6c652e204d7573742062653a206f776e65722c20616460408201527536b4b734b9ba3930ba37b9161037b9103b34b2bbb2b960511b606082015260800190565b601f82111561342257600081815260208120601f850160051c81016020861015613b455750805b601f850160051c820191505b81811015613b6457828155600101613b51565b505050505050565b815167ffffffffffffffff811115613b8657613b8661356f565b613b9a81613b9484546138fc565b84613b1e565b602080601f831160018114613bcf5760008415613bb75750858301515b600019600386901b1c1916600185901b178555613b64565b600085815260208120601f198616915b82811015613bfe57888601518255948401946001909101908401613bdf565b5085821015613c1c5787850151600019600388901b60f8161c191681555b5050505050600190811b01905550565b606081526000613c3f6060830186613530565b8281036020840152613c518186613530565b915050826040830152949350505050565b634e487b7160e01b600052603260045260246000fd5b8181038181111561061e5761061e613976565b634e487b7160e01b600052603160045260246000fdfe4f6e6c79206f776e65727320616e642061646d696e6973747261746f72732063edfcef5edfc1a7ae49c5b2f4d3a9bc2c045f887c2d4fb28dddd675e12dd1e1f3fdfe97c95a948e0f2fd9761961cd90b0b3e46fa8e9b10a6d98e30f2c837fbf40b9f092e3b1ecc5f16749a6a275c159ead9cf216a95a0b902d2f260f98f91b9a0460f6d1c4e133a0e98b6595d8a3ea6152630de956a5f46fd2d0d9f06706e4660a2646970667358221220a499a361c34358002496e4a254ff8f78163684b4ff4accaffd7f10bb6849582164736f6c63430008130033",
  "linkReferences": {},
  "deployedLinkReferences": {}
}