{
  "_format": "hh-sol-artifact-1",
  "contractName": "MemberRoleManager",
  "sourceName": "contracts/MemberRoleManager.sol",
  "abi": [
    {
      "inputs": [],
      "stateMutability": "nonpayable",
      "type": "constructor"
    },
    {
      "anonymous": false,
      "inputs": [
        {
          "indexed": true,
          "internalType": "address",
          "name": "oldAdmin",
          "type": "address"
        },
        {
          "indexed": true,
          "internalType": "address",
          "name": "newAdmin",
          "type": "address"
        },
        {
          "indexed": false,
          "internalType": "uint256",
          "name": "timestamp",
          "type": "uint256"
        }
      ],
      "name": "AdminTransferred",
      "type": "event"
    },
    {
      "anonymous": false,
      "inputs": [
        {
          "indexed": true,
          "internalType": "address",
          "name": "wallet",
          "type": "address"
        },
        {
          "indexed": true,
          "internalType": "bytes32",
          "name": "userIdHash",
          "type": "bytes32"
        },
        {
          "indexed": false,
          "internalType": "uint256",
          "name": "timestamp",
          "type": "uint256"
        }
      ],
      "name": "MemberRegistered",
      "type": "event"
    },
    {
      "anonymous": false,
      "inputs": [
        {
          "indexed": true,
          "internalType": "bytes32",
          "name": "userIdHash",
          "type": "bytes32"
        },
        {
          "indexed": false,
          "internalType": "enum MemberRoleManager.MemberStatus",
          "name": "oldStatus",
          "type": "uint8"
        },
        {
          "indexed": false,
          "internalType": "enum MemberRoleManager.MemberStatus",
          "name": "newStatus",
          "type": "uint8"
        },
        {
          "indexed": true,
          "internalType": "address",
          "name": "changedBy",
          "type": "address"
        },
        {
          "indexed": false,
          "internalType": "uint256",
          "name": "timestamp",
          "type": "uint256"
        }
      ],
      "name": "MemberStatusChanged",
      "type": "event"
    },
    {
      "anonymous": false,
      "inputs": [
        {
          "indexed": true,
          "internalType": "string",
          "name": "recordId",
          "type": "string"
        },
        {
          "indexed": true,
          "internalType": "bytes32",
          "name": "userIdHash",
          "type": "bytes32"
        },
        {
          "indexed": false,
          "internalType": "uint256",
          "name": "timestamp",
          "type": "uint256"
        }
      ],
      "name": "OwnershipVoluntarilyLeft",
      "type": "event"
    },
    {
      "anonymous": false,
      "inputs": [
        {
          "indexed": true,
          "internalType": "string",
          "name": "recordId",
          "type": "string"
        },
        {
          "indexed": true,
          "internalType": "bytes32",
          "name": "targetIdHash",
          "type": "bytes32"
        },
        {
          "indexed": false,
          "internalType": "string",
          "name": "oldRole",
          "type": "string"
        },
        {
          "indexed": false,
          "internalType": "string",
          "name": "newRole",
          "type": "string"
        },
        {
          "indexed": true,
          "internalType": "bytes32",
          "name": "userIdHash",
          "type": "bytes32"
        },
        {
          "indexed": false,
          "internalType": "uint256",
          "name": "timestamp",
          "type": "uint256"
        }
      ],
      "name": "RoleChanged",
      "type": "event"
    },
    {
      "anonymous": false,
      "inputs": [
        {
          "indexed": true,
          "internalType": "string",
          "name": "recordId",
          "type": "string"
        },
        {
          "indexed": true,
          "internalType": "bytes32",
          "name": "targetIdHash",
          "type": "bytes32"
        },
        {
          "indexed": false,
          "internalType": "string",
          "name": "role",
          "type": "string"
        },
        {
          "indexed": true,
          "internalType": "bytes32",
          "name": "userIdHash",
          "type": "bytes32"
        },
        {
          "indexed": false,
          "internalType": "uint256",
          "name": "timestamp",
          "type": "uint256"
        }
      ],
      "name": "RoleGranted",
      "type": "event"
    },
    {
      "anonymous": false,
      "inputs": [
        {
          "indexed": true,
          "internalType": "string",
          "name": "recordId",
          "type": "string"
        },
        {
          "indexed": true,
          "internalType": "bytes32",
          "name": "targetIdHash",
          "type": "bytes32"
        },
        {
          "indexed": false,
          "internalType": "string",
          "name": "role",
          "type": "string"
        },
        {
          "indexed": true,
          "internalType": "bytes32",
          "name": "userIdHash",
          "type": "bytes32"
        },
        {
          "indexed": false,
          "internalType": "uint256",
          "name": "timestamp",
          "type": "uint256"
        }
      ],
      "name": "RoleRevoked",
      "type": "event"
    },
    {
      "anonymous": false,
      "inputs": [
        {
          "indexed": true,
          "internalType": "address",
          "name": "wallet",
          "type": "address"
        },
        {
          "indexed": true,
          "internalType": "bytes32",
          "name": "userIdHash",
          "type": "bytes32"
        },
        {
          "indexed": false,
          "internalType": "uint256",
          "name": "timestamp",
          "type": "uint256"
        }
      ],
      "name": "WalletLinked",
      "type": "event"
    },
    {
      "inputs": [
        {
          "internalType": "address",
          "name": "wallet",
          "type": "address"
        },
        {
          "internalType": "bytes32",
          "name": "userIdHash",
          "type": "bytes32"
        }
      ],
      "name": "addMember",
      "outputs": [],
      "stateMutability": "nonpayable",
      "type": "function"
    },
    {
      "inputs": [],
      "name": "admin",
      "outputs": [
        {
          "internalType": "address",
          "name": "",
          "type": "address"
        }
      ],
      "stateMutability": "view",
      "type": "function"
    },
    {
      "inputs": [
        {
          "internalType": "string",
          "name": "",
          "type": "string"
        },
        {
          "internalType": "uint256",
          "name": "",
          "type": "uint256"
        }
      ],
      "name": "adminsByRecord",
      "outputs": [
        {
          "internalType": "bytes32",
          "name": "",
          "type": "bytes32"
        }
      ],
      "stateMutability": "view",
      "type": "function"
    },
    {
      "inputs": [
        {
          "internalType": "string",
          "name": "recordId",
          "type": "string"
        },
        {
          "internalType": "address",
          "name": "targetWallet",
          "type": "address"
        },
        {
          "internalType": "string",
          "name": "newRole",
          "type": "string"
        }
      ],
      "name": "changeRole",
      "outputs": [],
      "stateMutability": "nonpayable",
      "type": "function"
    },
    {
      "inputs": [
        {
          "internalType": "address",
          "name": "wallet",
          "type": "address"
        }
      ],
      "name": "deactivateWallet",
      "outputs": [],
      "stateMutability": "nonpayable",
      "type": "function"
    },
    {
      "inputs": [],
      "name": "getAllUsers",
      "outputs": [
        {
          "internalType": "bytes32[]",
          "name": "",
          "type": "bytes32[]"
        }
      ],
      "stateMutability": "view",
      "type": "function"
    },
    {
      "inputs": [
        {
          "internalType": "string",
          "name": "recordId",
          "type": "string"
        }
      ],
      "name": "getRecordAdmins",
      "outputs": [
        {
          "internalType": "bytes32[]",
          "name": "",
          "type": "bytes32[]"
        }
      ],
      "stateMutability": "view",
      "type": "function"
    },
    {
      "inputs": [
        {
          "internalType": "string",
          "name": "recordId",
          "type": "string"
        }
      ],
      "name": "getRecordOwners",
      "outputs": [
        {
          "internalType": "bytes32[]",
          "name": "",
          "type": "bytes32[]"
        }
      ],
      "stateMutability": "view",
      "type": "function"
    },
    {
      "inputs": [
        {
          "internalType": "string",
          "name": "recordId",
          "type": "string"
        }
      ],
      "name": "getRecordRoleStats",
      "outputs": [
        {
          "internalType": "uint256",
          "name": "ownerCount",
          "type": "uint256"
        },
        {
          "internalType": "uint256",
          "name": "adminCount",
          "type": "uint256"
        },
        {
          "internalType": "uint256",
          "name": "viewerCount",
          "type": "uint256"
        }
      ],
      "stateMutability": "view",
      "type": "function"
    },
    {
      "inputs": [
        {
          "internalType": "string",
          "name": "recordId",
          "type": "string"
        }
      ],
      "name": "getRecordViewers",
      "outputs": [
        {
          "internalType": "bytes32[]",
          "name": "",
          "type": "bytes32[]"
        }
      ],
      "stateMutability": "view",
      "type": "function"
    },
    {
      "inputs": [
        {
          "internalType": "bytes32",
          "name": "userIdHash",
          "type": "bytes32"
        }
      ],
      "name": "getRecordsByUser",
      "outputs": [
        {
          "internalType": "string[]",
          "name": "",
          "type": "string[]"
        }
      ],
      "stateMutability": "view",
      "type": "function"
    },
    {
      "inputs": [
        {
          "internalType": "string",
          "name": "recordId",
          "type": "string"
        },
        {
          "internalType": "address",
          "name": "wallet",
          "type": "address"
        }
      ],
      "name": "getRoleDetails",
      "outputs": [
        {
          "internalType": "string",
          "name": "role",
          "type": "string"
        },
        {
          "internalType": "bool",
          "name": "isActive",
          "type": "bool"
        }
      ],
      "stateMutability": "view",
      "type": "function"
    },
    {
      "inputs": [
        {
          "internalType": "string",
          "name": "recordId",
          "type": "string"
        },
        {
          "internalType": "bytes32",
          "name": "userIdHash",
          "type": "bytes32"
        }
      ],
      "name": "getRoleDetailsByUser",
      "outputs": [
        {
          "internalType": "string",
          "name": "role",
          "type": "string"
        },
        {
          "internalType": "bool",
          "name": "isActive",
          "type": "bool"
        }
      ],
      "stateMutability": "view",
      "type": "function"
    },
    {
      "inputs": [],
      "name": "getTotalRoles",
      "outputs": [
        {
          "internalType": "uint256",
          "name": "",
          "type": "uint256"
        }
      ],
      "stateMutability": "view",
      "type": "function"
    },
    {
      "inputs": [],
      "name": "getTotalUsers",
      "outputs": [
        {
          "internalType": "uint256",
          "name": "",
          "type": "uint256"
        }
      ],
      "stateMutability": "view",
      "type": "function"
    },
    {
      "inputs": [
        {
          "internalType": "address",
          "name": "wallet",
          "type": "address"
        }
      ],
      "name": "getUserForWallet",
      "outputs": [
        {
          "internalType": "bytes32",
          "name": "",
          "type": "bytes32"
        }
      ],
      "stateMutability": "view",
      "type": "function"
    },
    {
      "inputs": [
        {
          "internalType": "bytes32",
          "name": "userIdHash",
          "type": "bytes32"
        }
      ],
      "name": "getUserStatus",
      "outputs": [
        {
          "internalType": "enum MemberRoleManager.MemberStatus",
          "name": "status",
          "type": "uint8"
        }
      ],
      "stateMutability": "view",
      "type": "function"
    },
    {
      "inputs": [
        {
          "internalType": "bytes32",
          "name": "userIdHash",
          "type": "bytes32"
        }
      ],
      "name": "getWalletsForUser",
      "outputs": [
        {
          "internalType": "address[]",
          "name": "",
          "type": "address[]"
        }
      ],
      "stateMutability": "view",
      "type": "function"
    },
    {
      "inputs": [
        {
          "internalType": "string",
          "name": "recordId",
          "type": "string"
        },
        {
          "internalType": "address",
          "name": "targetWallet",
          "type": "address"
        },
        {
          "internalType": "string",
          "name": "role",
          "type": "string"
        }
      ],
      "name": "grantRole",
      "outputs": [],
      "stateMutability": "nonpayable",
      "type": "function"
    },
    {
      "inputs": [
        {
          "internalType": "string",
          "name": "recordId",
          "type": "string"
        },
        {
          "internalType": "address",
          "name": "wallet",
          "type": "address"
        }
      ],
      "name": "hasActiveRole",
      "outputs": [
        {
          "internalType": "bool",
          "name": "",
          "type": "bool"
        }
      ],
      "stateMutability": "view",
      "type": "function"
    },
    {
      "inputs": [
        {
          "internalType": "string",
          "name": "recordId",
          "type": "string"
        },
        {
          "internalType": "address",
          "name": "wallet",
          "type": "address"
        },
        {
          "internalType": "string",
          "name": "role",
          "type": "string"
        }
      ],
      "name": "hasRole",
      "outputs": [
        {
          "internalType": "bool",
          "name": "",
          "type": "bool"
        }
      ],
      "stateMutability": "view",
      "type": "function"
    },
    {
      "inputs": [
        {
          "internalType": "string",
          "name": "recordId",
          "type": "string"
        },
        {
          "internalType": "address",
          "name": "targetWallet",
          "type": "address"
        },
        {
          "internalType": "string",
          "name": "role",
          "type": "string"
        }
      ],
      "name": "initializeRecordRole",
      "outputs": [],
      "stateMutability": "nonpayable",
      "type": "function"
    },
    {
      "inputs": [
        {
          "internalType": "address",
          "name": "wallet",
          "type": "address"
        }
      ],
      "name": "isActiveMember",
      "outputs": [
        {
          "internalType": "bool",
          "name": "",
          "type": "bool"
        }
      ],
      "stateMutability": "view",
      "type": "function"
    },
    {
      "inputs": [
        {
          "internalType": "string",
          "name": "recordId",
          "type": "string"
        },
        {
          "internalType": "address",
          "name": "wallet",
          "type": "address"
        }
      ],
      "name": "isOwnerOrAdmin",
      "outputs": [
        {
          "internalType": "bool",
          "name": "",
          "type": "bool"
        }
      ],
      "stateMutability": "view",
      "type": "function"
    },
    {
      "inputs": [
        {
          "internalType": "address",
          "name": "wallet",
          "type": "address"
        }
      ],
      "name": "isVerifiedMember",
      "outputs": [
        {
          "internalType": "bool",
          "name": "",
          "type": "bool"
        }
      ],
      "stateMutability": "view",
      "type": "function"
    },
    {
      "inputs": [
        {
          "internalType": "string",
          "name": "",
          "type": "string"
        },
        {
          "internalType": "uint256",
          "name": "",
          "type": "uint256"
        }
      ],
      "name": "ownersByRecord",
      "outputs": [
        {
          "internalType": "bytes32",
          "name": "",
          "type": "bytes32"
        }
      ],
      "stateMutability": "view",
      "type": "function"
    },
    {
      "inputs": [
        {
          "internalType": "address",
          "name": "wallet",
          "type": "address"
        }
      ],
      "name": "reactivateWallet",
      "outputs": [],
      "stateMutability": "nonpayable",
      "type": "function"
    },
    {
      "inputs": [
        {
          "internalType": "bytes32",
          "name": "",
          "type": "bytes32"
        }
      ],
      "name": "recordRoles",
      "outputs": [
        {
          "internalType": "string",
          "name": "role",
          "type": "string"
        },
        {
          "internalType": "bool",
          "name": "isActive",
          "type": "bool"
        }
      ],
      "stateMutability": "view",
      "type": "function"
    },
    {
      "inputs": [
        {
          "internalType": "bytes32",
          "name": "",
          "type": "bytes32"
        },
        {
          "internalType": "uint256",
          "name": "",
          "type": "uint256"
        }
      ],
      "name": "recordsByUser",
      "outputs": [
        {
          "internalType": "string",
          "name": "",
          "type": "string"
        }
      ],
      "stateMutability": "view",
      "type": "function"
    },
    {
      "inputs": [
        {
          "internalType": "string",
          "name": "recordId",
          "type": "string"
        },
        {
          "internalType": "address",
          "name": "targetWallet",
          "type": "address"
        }
      ],
      "name": "revokeRole",
      "outputs": [],
      "stateMutability": "nonpayable",
      "type": "function"
    },
    {
      "inputs": [
        {
          "internalType": "bytes32",
          "name": "userIdHash",
          "type": "bytes32"
        },
        {
          "internalType": "enum MemberRoleManager.MemberStatus",
          "name": "newStatus",
          "type": "uint8"
        }
      ],
      "name": "setUserStatus",
      "outputs": [],
      "stateMutability": "nonpayable",
      "type": "function"
    },
    {
      "inputs": [],
      "name": "totalRoles",
      "outputs": [
        {
          "internalType": "uint256",
          "name": "",
          "type": "uint256"
        }
      ],
      "stateMutability": "view",
      "type": "function"
    },
    {
      "inputs": [],
      "name": "totalUsers",
      "outputs": [
        {
          "internalType": "uint256",
          "name": "",
          "type": "uint256"
        }
      ],
      "stateMutability": "view",
      "type": "function"
    },
    {
      "inputs": [
        {
          "internalType": "address",
          "name": "newAdmin",
          "type": "address"
        }
      ],
      "name": "transferAdmin",
      "outputs": [],
      "stateMutability": "nonpayable",
      "type": "function"
    },
    {
      "inputs": [
        {
          "internalType": "uint256",
          "name": "",
          "type": "uint256"
        }
      ],
      "name": "userList",
      "outputs": [
        {
          "internalType": "bytes32",
          "name": "",
          "type": "bytes32"
        }
      ],
      "stateMutability": "view",
      "type": "function"
    },
    {
      "inputs": [
        {
          "internalType": "bytes32",
          "name": "",
          "type": "bytes32"
        }
      ],
      "name": "userStatus",
      "outputs": [
        {
          "internalType": "enum MemberRoleManager.MemberStatus",
          "name": "",
          "type": "uint8"
        }
      ],
      "stateMutability": "view",
      "type": "function"
    },
    {
      "inputs": [
        {
          "internalType": "bytes32",
          "name": "",
          "type": "bytes32"
        },
        {
          "internalType": "uint256",
          "name": "",
          "type": "uint256"
        }
      ],
      "name": "userWallets",
      "outputs": [
        {
          "internalType": "address",
          "name": "",
          "type": "address"
        }
      ],
      "stateMutability": "view",
      "type": "function"
    },
    {
      "inputs": [
        {
          "internalType": "string",
          "name": "",
          "type": "string"
        },
        {
          "internalType": "uint256",
          "name": "",
          "type": "uint256"
        }
      ],
      "name": "viewersByRecord",
      "outputs": [
        {
          "internalType": "bytes32",
          "name": "",
          "type": "bytes32"
        }
      ],
      "stateMutability": "view",
      "type": "function"
    },
    {
      "inputs": [
        {
          "internalType": "string",
          "name": "recordId",
          "type": "string"
        }
      ],
      "name": "voluntarilyLeaveOwnership",
      "outputs": [],
      "stateMutability": "nonpayable",
      "type": "function"
    },
    {
      "inputs": [
        {
          "internalType": "address",
          "name": "",
          "type": "address"
        }
      ],
      "name": "wallets",
      "outputs": [
        {
          "internalType": "bytes32",
          "name": "userIdHash",
          "type": "bytes32"
        },
        {
          "internalType": "bool",
          "name": "isWalletActive",
          "type": "bool"
        }
      ],
      "stateMutability": "view",
      "type": "function"
    }
  ],
  "bytecode": "0x6080806040523461002857600080546001600160a01b031916331790556130da908161002e8239f35b600080fdfe608060408181526004918236101561001657600080fd5b600090813560e01c908162b0c8091461215b575080630b3ffd1d1461209c5780631435b558146120805780631a95aca514611ff95780633310559214611fbb5780633575c39114611d055780633dd1e8fc14611c7e57806341d8bde314611bdb57806345ecd02f14611bb557806349df7208146119465780634b6feb7c1461137f578063510b3003146118ad5780636544b05b146117be5780636b4bed9714610277578063731f21a01461144c57806375829def1461139e578063790e118c1461137f57806389b08f11146113385780639443cd80146112ef57806396207e021461118b578063970ee5b9146111545780639be572f614610c765780639f4216e814611107578063a0ca13c3146110eb578063b55aefcc146110b4578063bb0f86d514610ffd578063bb20b17214610c95578063bff1f9e114610c76578063cabdd23f14610c5a578063cb261a0314610c2b578063d12a776814610b7a578063daa9dc23146105fc578063e2842d791461057b578063e965bfb714610522578063eb2bbf25146104f8578063ed8d7b3714610327578063ee4e5828146102a9578063f29e007b14610277578063f851a4401461024b5763fa7a6bcc146101db57600080fd5b34610248576101e936612493565b908252600a60205282822080548210156102445790610207916124a9565b9390936102325761022e8361021b86612309565b90519182916020835260208301906123d1565b0390f35b634e487b7160e01b8252819052602490fd5b8280fd5b80fd5b509034610273578160031936011261027357905490516001600160a01b039091168152602090f35b5080fd5b5091346102445760203660031901126102445760ff826020946102a7933581526002865220541691518092612470565bf35b50913461024457816003193601126102445780356001600160401b038111610323576020936102eb6102e261022e9486943691016121fc565b60243590612d45565b815260068552209180516102fe816121aa565b60ff600161030b86612309565b958684520154161515948591015251928392836123f6565b8380fd5b50919034610244576020806003193601126103235782356001600160401b0381116104f45761035990369085016121fc565b610365815115156125cc565b33855260018252828520549361038361037c6127f1565b8684612d80565b156104a55783516103c18460018551938281818901966103a481838a6123ae565b8101600781520301902054119287518093819288519283916123ae565b81016008815203019020541515811561049d575b50156104405750906104378261040c867f3bb3693064733b9a7d6d41bee69f302fcbefbe827ea4011400530c9ba9cb49c395612d45565b61041e6104176127f1565b8884612de0565b875260068352848720600101805460ff1916905561283b565b9251428152a380f35b835162461bcd60e51b8152908101839052603160248201527f43616e6e6f74206c65617665206173206c617374206f776e65722077697468206044820152706e6f2061646d696e6973747261746f727360781b6064820152608490fd5b9050386103d5565b835162461bcd60e51b8152908101839052602360248201527f596f7520617265206e6f7420616e206f776e6572206f662074686973207265636044820152621bdc9960ea1b6064820152608490fd5b8480fd5b5090346102735761022e9061051561050f36612252565b90612941565b92909151928392836123f6565b5090346102735760209161054c610538366124d7565b9490818551938285809451938492016123ae565b81016008815203019020908154841015610248575060209261056d916124a9565b91905490519160031b1c8152f35b5090346102735781600319360112610273578051918284549081815260208091019583527f8a35acfbc15ff81a39ae7d344fd709f28e8600b4aa8c65c6b64bfe7fe36bd19b92905b8282106105e55761022e86866105db828b03836121db565b5191829182612293565b8354875295860195600193840193909101906105c3565b5091346102445761060c36612416565b91929061062061061b33612a36565b6128ad565b61062c845115156125cc565b6001600160a01b031693610641851515612701565b61065261064d846129de565b61265d565b33865260206001815281872054958752818720549461067286151561274d565b845182860120936106838783612d45565b808a526006845261069c60ff6001878d20015416612799565b8952600683526106ad848a20612309565b94855184870120818114610b37576106c36127f1565b8581519101208114610ac2578551918451928681818801956106e68183896123ae565b810160078152030190205415918b831561071b61070b6107046127f1565b848b612d80565b92610714612812565b908a612d80565b906107246127f1565b8051908b0120850361091e57156108c1575015610880575b610744612812565b878151910120149081610869575b506107c7575b505050916107bb7fea2c9ebe68919ddf880b3221d8d508d908163d0973e8b79df108f5d110d0c633949261079a856107958b8a8c6107ae9a612bc9565b61283b565b9683519586956060875260608701906123d1565b91858303908601526123d1565b9042908301520390a480f35b6107d2575b80610758565b6107e98460019287518093819288519283916123ae565b8101600881520301902054111561080057806107cc565b835162461bcd60e51b8152908101839052603960248201527f43616e6e6f742064656d6f746520746865206c6173742061646d696e6973747260448201527f61746f72207768656e206e6f206f776e657220657869737473000000000000006064820152608490fd5b90506108736128f0565b8681519101201438610752565b60648588808b519262461bcd60e51b845283015260248201527f4f6e6c79206f776e6572732063616e2070726f6d6f746520746f206f776e65726044820152fd5b905061073c57875162461bcd60e51b8152808601889052602b60248201527f4f6e6c792061646d696e6973747261746f72732063616e2070726f6d6f74652060448201526a3334b939ba1037bbb732b960a91b6064820152608490fd5b610926612812565b8051908b0120850361099e57508115610996575b5061073c57875162461bcd60e51b8152808601889052603b602482015260008051602061308583398151915260448201527f616e2070726f6d6f746520746f2061646d696e6973747261746f7200000000006064820152608490fd5b90503861093a565b6109a66128f0565b8a815191012085146109bb575b50505061073c565b15610a68578115610a51575b50156109d6575b3880806109b3565b875162461bcd60e51b8152808601889052604960248201527f4f6e6c79206f776e6572732063616e2064656d6f7465206f74686572732e204160448201527f646d696e6973747261746f72732063616e206f6e6c792064656d6f746520746860648201526832b6b9b2b63b32b99760b91b608482015260a490fd5b905080610a5f575b386109c7565b508a8c14610a59565b90506109ce57875162461bcd60e51b8152808601889052602860248201527f4f6e6c792061646d696e6973747261746f72732063616e2064656d6f7465207460448201526737903b34b2bbb2b960c11b6064820152608490fd5b855162461bcd60e51b8152808401869052604360248201527f4f776e6572732063616e6e6f742062652064656d6f7465642e204f776e65722060448201527f6d75737420766f6c756e746172696c792072656d6f7665207468656d73656c7660648201526232b99760e91b608482015260a490fd5b855162461bcd60e51b8152808401869052601c60248201527f54617267657420616c726561647920686173207468697320726f6c65000000006044820152606490fd5b5082903461024857602091826003193601126102735792919235815260038352818120908251808584549182815201908194845286842090845b818110610c0e5750505081610bca9103826121db565b83519485948186019282875251809352850193925b828110610bee57505050500390f35b83516001600160a01b031685528695509381019392810192600101610bdf565b82546001600160a01b031684529288019260019283019201610bb4565b50903461027357602036600319011261027357602090610c51610c4c61218f565b612ea8565b90519015158152f35b50903461027357602090610c51610c7036612416565b91612912565b5090346102735781600319360112610273576020906005549051908152f35b50823461027357610ca536612416565b919290610cb461061b33612a36565b610cc0845115156125cc565b6001600160a01b031692610cd5841515612701565b610ce161064d846129de565b33855260209160018352868620549486528686205492610d0284151561274d565b845181860120610d128785612d45565b88526006825260ff60018a8a2001541615610fbc57885182818651610d3a8183858b016123ae565b8101600781520301902054151590610d5a610d536127f1565b8987612d80565b91610d6d610d66612812565b8a88612d80565b91610d766127f1565b8051908601208103610eb7575015610e5d575015610e1b575b610d998484612d45565b87526006815260ff6001898920015416610dbd575050610dba949550612bc9565b80f35b875162461bcd60e51b815291820152603360248201527f54617267657420616c726561647920686173206120726f6c652e2055736520636044820152721a185b99d9549bdb194a0a481a5b9cdd195859606a1b606482015260849150fd5b875162461bcd60e51b815291820181905260248201527f4f6e6c79206f776e6572732063616e206772616e74206f776e657220726f6c65604482015260649150fd5b9050610d8f57875162461bcd60e51b815291820152602960248201527f4f6e6c792061646d696e6973747261746f72732063616e206772616e742066696044820152683939ba1037bbb732b960b91b606482015260849150fd5b9050610ec1612812565b8051908501208103610f3857508115610f30575b50610d8f57875162461bcd60e51b815291820152603b602482015260008051602061308583398151915260448201527f616e206772616e742061646d696e6973747261746f7220726f6c650000000000606482015260849150fd5b905089610ed5565b610f406128f0565b84815191012014610f53575b5050610d8f565b8115610fb4575b5015610f67578880610f4c565b875162461bcd60e51b81529182015260346024820152600080516020613085833981519152604482015273616e206772616e742076696577657220726f6c6560601b606482015260849150fd5b905089610f5a565b60648383808c519262461bcd60e51b845283015260248201527f596f752068617665206e6f20726f6c6520666f722074686973207265636f72646044820152fd5b509190346102445760203660031901126102445761101961218f565b83546001600160a01b0391906110329083163314612508565b168084526001928360205261104b838620541515612541565b8185528360205260ff8484872001541661107957508352602082905282208101805460ff1916909117905580f35b606490602084519162461bcd60e51b8352820152601560248201527457616c6c657420616c72656164792061637469766560581b6044820152fd5b509034610273576020916110ca610538366124d7565b81016009815203019020908154841015610248575060209261056d916124a9565b50903461027357602090610c5161110136612252565b9061285b565b50913461024457602036600319011261024457803590805482101561032357602093527f8a35acfbc15ff81a39ae7d344fd709f28e8600b4aa8c65c6b64bfe7fe36bd19b01549051908152f35b5090346102735760209161116a610538366124d7565b81016007815203019020908154841015610248575060209261056d916124a9565b50919034610244578060031936011261024457813590602435838110156104f4576111c060018060a01b038654163314612508565b82855260206002815260ff8387205416858110156112dc57156112a4578386526002815260ff838720541694808610156112915782861461125a57509061122c918487526002815283872060ff1981541660ff841617905561122484518097612470565b850190612470565b42908301527ff6277c6ee46649823db9a5c531db3112b4340c67179cae1932ba3420dcc37cc760603393a380f35b60649184519162461bcd60e51b83528201526013602482015272416c726561647920746869732073746174757360681b6044820152fd5b634e487b7160e01b875260219052602486fd5b8460649184519162461bcd60e51b83528201526013602482015272155cd95c881b9bdd081c9959da5cdd195c9959606a1b6044820152fd5b634e487b7160e01b875260218652602487fd5b509034610273576112ff36612493565b9290815260036020528181209081548410156102485750602092611322916124a9565b60018060a01b0391549060031b1c169051908152f35b509034610273576020366003190112610273579081906001600160a01b0361135e61218f565b16815260016020522060ff6001825492015416825191825215156020820152f35b509034610273578160031936011261027357602090600b549051908152f35b50919034610244576020366003190112610244576113ba61218f565b8354916001600160a01b03808416926113d4338514612508565b169384156114185750907f38df5fa0f7fef0d515ca1f5388cb5790ac5885d5fca8d05d9f943e563c33a4b36020859351428152a36001600160a01b03191617815580f35b6020606492519162461bcd60e51b8352820152600f60248201526e496e76616c6964206164647265737360881b6044820152fd5b509190346102445761145d36612252565b61146b8293925115156125cc565b6001600160a01b031692611480841515612701565b338552602091600183528086205494865280862054936114a185151561274d565b6114ab8582612d45565b808852600685526114c460ff6001858b20015416612799565b808852600685526114d6838920612309565b938451868601206114e56127f1565b878151910120811461174757878903611631575b611501612812565b8781519101201461156e575b508161155a9161154186897f938e21a28464db5f9b9e24d1a58e038899de364f69dba20c154ee6fd4cd86def989796612de0565b895260068652828920600101805460ff1916905561283b565b936107bb82519383859485528401906123d1565b83516115a78760018651938281818a019661158a81838a6123ae565b8101600881520301902054119287518093819289519283916123ae565b810160078152030190205415158115611629575b5061150d57835162461bcd60e51b8152908101869052603960248201527f43616e6e6f74207265766f6b65206c6173742061646d696e6973747261746f7260448201527f20776974686f757420616e206f776e65722070726573656e74000000000000006064820152608490fd5b9050386115bb565b61164361163c6127f1565b8a86612d80565b8015611736575b156116ed5761165a61163c6127f1565b15611665575b6114f9565b61166d612812565b87815191012081036114f95784518781865161168c8183858b016123ae565b81016007815203019020541561166057845162461bcd60e51b8152808301889052602560248201527f4f6e6c79206f776e6572732063616e207265766f6b652061646d696e6973747260448201526461746f727360d81b6064820152608490fd5b845162461bcd60e51b8152808301889052602f602482015260008051602061308583398151915260448201526e616e207265766f6b6520726f6c657360881b6064820152608490fd5b5061174261163c612812565b61164a565b845162461bcd60e51b8152808301889052604560248201527f4f776e6572732063616e6e6f74206265207265766f6b65642e204f776e65722060448201527f6d7573742075736520766f6c756e746172696c794c656176654f776e6572736860648201526434b814149760d91b608482015260a490fd5b50823461027357602090816003193601126102445780358352600a8252838320918254916001600160401b03831161189a57509290845190611805858260051b01836121db565b8082528482018094845285842084915b83831061187657505050508451938085019181865251809252858501958260051b8601019392955b82871061184a5785850386f35b909192938280611866600193603f198a820301865288516123d1565b960192019601959291909261183d565b6001888192611888859b98999b612309565b81520192019201919096949396611815565b634e487b7160e01b855260419052602484fd5b509190346102445760209182600319360112610323578035906001600160401b0382116104f4576118e584916118f7933691016121fc565b818451938285809451938492016123ae565b810160098152030190209281518093808654928381520195835280832092905b82821061192f5761022e86866105db828b03836121db565b835487529586019560019384019390910190611917565b50913461024457816003193601126102445761196061218f565b9160249081359360018060a01b03809161197e828954163314612508565b169361198b851515612618565b8515611b7c5784875260019360209480865284892054611b3a576119e085516119b3816121aa565b898152828882018181528a8d52818a52888d209251835551151591019060ff801983541691151516179055565b87895260038652848920938454600160401b9586821015611b285790611a0a9184820181556124a9565b819291549060031b918a831b921b19161790558789526002865260ff858a20541683811015611b1657611ae75787895260028652848920600260ff19825416179055825493841015611ad5578301808355831015611ac457507f39d132591ee0696de49ab564e4a90e430c006561917db731a2a614dd2d245591939291869188527f8a35acfbc15ff81a39ae7d344fd709f28e8600b4aa8c65c6b64bfe7fe36bd19b0155611ab96005546126dc565b60055551428152a380f35b634e487b7160e01b88526032825287fd5b50634e487b7160e01b88526041825287fd5b50505050907f1cc138f50384be7770a8e4a34eecaa0d0c718bfaa1641af49db32532e4a5b9109151428152a380f35b634e487b7160e01b8a5260218452828afd5b634e487b7160e01b8c5260418652848cfd5b845162461bcd60e51b81528084018790526019818401527f57616c6c657420616c72656164792072656769737465726564000000000000006044820152606490fd5b606490601485602086519362461bcd60e51b855284015282015273092dcecc2d8d2c840eae6cae440928840d0c2e6d60631b6044820152fd5b50903461027357602036600319011261027357602090610c51611bd661218f565b612a36565b50346102485760209081600319360112610248578335906001600160401b0382116102485750606093611c10913691016121fc565b91805192611c6583825195818181860198611c2c81838c6123ae565b810160078152030190205495845182818651611c498183876123ae565b81016008815203019020549385519384928392519283916123ae565b8101600981520301902054928251948552840152820152f35b509190346102445760209182600319360112610323578035906001600160401b0382116104f4576118e58491611cb6933691016121fc565b810160088152030190209281518093808654928381520195835280832092905b828210611cee5761022e86866105db828b03836121db565b835487529586019560019384019390910190611cd6565b50823461027357611d1536612416565b9092919460018060a01b03611d2e818754163314612508565b611d3a875115156125cc565b8416611d47811515612618565b611d5361064d846129de565b855260209260018452611d6f8287205495611bd6871515612541565b15611f7a578151848851918181818c0194611d8b8183886123ae565b8101600781520301902054159182611f52575b505015611f1157611daf8588612d45565b808752600685528685611e1486600187852095611dfe89611dcf89612309565b97600660ff868b51159c01541698835197611de9896121aa565b88528088019587875283525220935184612ab7565b51151591019060ff801983541691151516179055565b611ed25750611e2484878a612f01565b611e45575b50906000805160206130658339815191529161155a869761283b565b95848652600a8452818620805490600160401b821015611ebf5790611e6f916001820181556124a9565b611ead5786975081611e9560008051602061306583398151915295949361155a93612ab7565b611ea0600b546126dc565b600b559750509091611e29565b634e487b7160e01b8752868852602487fd5b634e487b7160e01b885260418952602488fd5b9697939594925050508451818601209084519085012003611ef5575b5050505080f35b611f03611f08948383612de0565b612f01565b81808080611eee565b83606492519162461bcd60e51b8352820152601a60248201527f5265636f726420616c726561647920696e697469616c697a65640000000000006044820152fd5b611f6792508451809381928c519283916123ae565b8101600881520301902054158489611d9e565b83606492519162461bcd60e51b8352820152601860248201527f4d75737420626520616e20616374697665206d656d62657200000000000000006044820152fd5b5091346102445760203660031901126102445791819235815260066020522061022e60ff6001611fea84612309565b930154169251928392836123f6565b509190346102445760209182600319360112610323578035906001600160401b0382116104f4576118e58491612031933691016121fc565b810160078152030190209281518093808654928381520195835280832092905b8282106120695761022e86866105db828b03836121db565b835487529586019560019384019390910190612051565b50903461027357602090610c5161209636612252565b90612585565b509134610244576020366003190112610244576120b761218f565b83546001600160a01b0391906120d09083163314612508565b169081845260016020526120e8838520541515612541565b818452600160205260ff600184862001541615612118575082526001602081905290822001805460ff1916905580f35b606490602084519162461bcd60e51b8352820152601760248201527f57616c6c657420616c726561647920696e6163746976650000000000000000006044820152fd5b90508234610244576020366003190112610244576020926001600160a01b0361218261218f565b1681526001845220548152f35b600435906001600160a01b03821682036121a557565b600080fd5b604081019081106001600160401b038211176121c557604052565b634e487b7160e01b600052604160045260246000fd5b90601f801991011681019081106001600160401b038211176121c557604052565b81601f820112156121a5578035906001600160401b0382116121c55760405192612230601f8401601f1916602001856121db565b828452602083830101116121a557816000926020809301838601378301015290565b60406003198201126121a557600435906001600160401b0382116121a55761227c916004016121fc565b906024356001600160a01b03811681036121a55790565b602090602060408183019282815285518094520193019160005b8281106122bb575050505090565b8351855293810193928101926001016122ad565b90600182811c921680156122ff575b60208310146122e957565b634e487b7160e01b600052602260045260246000fd5b91607f16916122de565b9060405191826000825461231c816122cf565b9081845260209460019160018116908160001461238c575060011461234d575b50505061234b925003836121db565b565b600090815285812095935091905b81831061237457505061234b935082010138808061233c565b8554888401850152948501948794509183019161235b565b9250505061234b94925060ff191682840152151560051b82010138808061233c565b60005b8381106123c15750506000910152565b81810151838201526020016123b1565b906020916123ea815180928185528580860191016123ae565b601f01601f1916010190565b9061240e6020919493946040845260408401906123d1565b931515910152565b60606003198201126121a5576001600160401b03916004358381116121a55782612442916004016121fc565b926024356001600160a01b03811681036121a557926044359182116121a55761246d916004016121fc565b90565b90600482101561247d5752565b634e487b7160e01b600052602160045260246000fd5b60409060031901126121a5576004359060243590565b80548210156124c15760005260206000200190600090565b634e487b7160e01b600052603260045260246000fd5b60406003198201126121a557600435906001600160401b0382116121a557612501916004016121fc565b9060243590565b1561250f57565b60405162461bcd60e51b815260206004820152600a60248201526927b7363c9030b236b4b760b11b6044820152606490fd5b1561254857565b60405162461bcd60e51b815260206004820152601560248201527415d85b1b195d081b9bdd081c9959da5cdd195c9959605a1b6044820152606490fd5b6001600160a01b0390911660009081526001602052604090205480156125c5576125ae91612d45565b600052600660205260ff6001604060002001541690565b5050600090565b156125d357565b60405162461bcd60e51b815260206004820152601960248201527f5265636f72642049442063616e6e6f7420626520656d707479000000000000006044820152606490fd5b1561261f57565b60405162461bcd60e51b8152602060048201526016602482015275496e76616c69642077616c6c6574206164647265737360501b6044820152606490fd5b1561266457565b60405162461bcd60e51b8152602060048201526013602482015272496e76616c696420726f6c6520737472696e6760681b6044820152606490fd5b805490600160401b8210156121c557816126c19160016126d8940181556124a9565b819391549060031b91821b91600019901b19161790565b9055565b60001981146126eb5760010190565b634e487b7160e01b600052601160045260246000fd5b1561270857565b60405162461bcd60e51b815260206004820152601d60248201527f57616c6c657420616464726573732063616e6e6f74206265207a65726f0000006044820152606490fd5b1561275457565b60405162461bcd60e51b815260206004820152601c60248201527f5461726765742077616c6c6574206e6f742072656769737465726564000000006044820152606490fd5b156127a057565b60405162461bcd60e51b815260206004820152602360248201527f54617267657420646f6573206e6f74206861766520616e2061637469766520726044820152626f6c6560e81b6064820152608490fd5b604051906127fe826121aa565b600582526437bbb732b960d91b6020830152565b6040519061281f826121aa565b600d82526c30b236b4b734b9ba3930ba37b960991b6020830152565b612853906020604051928284809451938492016123ae565b810103902090565b6001600160a01b039091166000908152600160205260409020549081156125c55761288e6128876127f1565b8383612d80565b91821561289a57505090565b61246d92506128a7612812565b91612d80565b156128b457565b60405162461bcd60e51b81526020600482015260146024820152732737ba1030b71030b1ba34bb329036b2b6b132b960611b6044820152606490fd5b604051906128fd826121aa565b60068252653b34b2bbb2b960d11b6020830152565b919060018060a01b0316600052600160205260406000205480156129395761246d92612d80565b505050600090565b6001600160a01b0390911660009081526001602052604081205490929181156129a55792612973604092602095612d45565b81526006845220604051612986816121aa565b60ff600161299384612309565b93848452015416151593849101529190565b5050604051602081018181106001600160401b038211176129ca576040528281529190565b634e487b7160e01b84526041600452602484fd5b602081519101206129ed6127f1565b602081519101208114908115612a1d575b8115612a08575090565b9050612a126128f0565b602081519101201490565b9050612a27612812565b602081519101208114906129fe565b6001600160a01b031660009081526001602052604081208054908115908115612aa7575b50612aa3578152600260205260ff604082205416906004821015612a8f575060018114159081612a88575090565b9050151590565b634e487b7160e01b81526021600452602490fd5b5090565b60ff915060010154161538612a5a565b91909182516001600160401b0381116121c557612ad482546122cf565b601f8111612b7f575b50602080601f8311600114612b1a575081929394600092612b0f575b50508160011b916000199060031b1c1916179055565b015190503880612af9565b90601f19831695846000526020600020926000905b888210612b6757505083600195969710612b4e575b505050811b019055565b015160001960f88460031b161c19169055388080612b44565b80600185968294968601518155019501930190612b2f565b6000836000526020600020601f840160051c81019260208510612bbf575b601f0160051c01915b828110612bb4575050612add565b818155600101612ba6565b9092508290612b9d565b9091612bd58383612d45565b6000928184526020936006855260409283822090612bf282612309565b90612c2e60ff600184511595015416916001885191612c10836121aa565b8a83528b830190828252885260068c52611dfe8a8920935184612ab7565b612d0c5750612c3e858885612f01565b612c7d575b5090612c5e600080516020613065833981519152939261283b565b93612c7282519383859485528401906123d1565b9042908301520390a4565b858152600a8552828120805490600160401b821015612cf85790612ca6916001820181556124a9565b919091612ce4575081612ccd600080516020613065833981519152959493612c5e93612ab7565b612cd8600b546126dc565b600b5591929350612c43565b634e487b7160e01b81526004819052602490fd5b634e487b7160e01b83526041600452602483fd5b9750505091939290508451818601209084519085012003612d2e575b50505050565b611f03612d3c948383612de0565b38808080612d28565b90612d7a6040805180936020612d6481840197888151938492016123ae565b82019060208201520360208101845201826121db565b51902090565b60209291612d8d91612d45565b600052600682526040600020604051612da5816121aa565b60ff6001612db284612309565b938484520154161515938491015282612dca57505090565b9091506020815191012090602081519101201490565b8251602080940120612df06127f1565b8051908501208103612e27575082612e189161234b94604051938285809451938492016123ae565b81016007815203019020612fc9565b612e2f612812565b8051908501208103612e66575082612e579161234b94604051938285809451938492016123ae565b81016008815203019020612fc9565b612e6e6128f0565b84815191012014612e7e57505050565b82612e999161234b94604051938285809451938492016123ae565b81016009815203019020612fc9565b6001600160a01b031660009081526001602052604081208054908115908115612ef1575b50612aa3578152600260205260ff604082205416906004821015612a8f575060031490565b60ff915060010154161538612ecc565b8251602080940120612f116127f1565b8051908501208103612f48575082612f399161234b94604051938285809451938492016123ae565b8101600781520301902061269f565b612f50612812565b8051908501208103612f87575082612f789161234b94604051938285809451938492016123ae565b8101600881520301902061269f565b612f8f6128f0565b84815191012014612f9f57505050565b82612fba9161234b94604051938285809451938492016123ae565b8101600981520301902061269f565b60005b81549081811015612d28578391612fe382856124a9565b959054600396871b1c14612ffd5750909250600101612fcc565b60001992508281019081116126eb576126c161301c61302992866124a9565b905490871b1c92856124a9565b90558154801561304e5781019261304084846124a9565b81939154921b1b1916905555565b634e487b7160e01b600052603160045260246000fdfe2a27f0a20e4df4738f3a8e2449b014d439e7ce0a97ee5860771c25cbafa1cfeb4f6e6c79206f776e65727320616e642061646d696e6973747261746f72732063a2646970667358221220470ea9bae3cae9a7a171f74a43fa035d5b01ee63ead6963b6d5b8e0e1df72d3f64736f6c63430008170033",
  "linkReferences": {},
  "deployedLinkReferences": {}
}