{
  "_format": "hh-sol-artifact-1",
  "contractName": "MemberRoleManager",
  "sourceName": "contracts/MemberRoleManager.sol",
  "abi": [
    {
      "inputs": [],
      "stateMutability": "nonpayable",
      "type": "constructor"
    },
    {
      "inputs": [
        {
          "internalType": "address",
          "name": "target",
          "type": "address"
        }
      ],
      "name": "AddressEmptyCode",
      "type": "error"
    },
    {
      "inputs": [
        {
          "internalType": "address",
          "name": "implementation",
          "type": "address"
        }
      ],
      "name": "ERC1967InvalidImplementation",
      "type": "error"
    },
    {
      "inputs": [],
      "name": "ERC1967NonPayable",
      "type": "error"
    },
    {
      "inputs": [],
      "name": "FailedInnerCall",
      "type": "error"
    },
    {
      "inputs": [],
      "name": "InvalidInitialization",
      "type": "error"
    },
    {
      "inputs": [],
      "name": "NotInitializing",
      "type": "error"
    },
    {
      "inputs": [],
      "name": "UUPSUnauthorizedCallContext",
      "type": "error"
    },
    {
      "inputs": [
        {
          "internalType": "bytes32",
          "name": "slot",
          "type": "bytes32"
        }
      ],
      "name": "UUPSUnsupportedProxiableUUID",
      "type": "error"
    },
    {
      "anonymous": false,
      "inputs": [
        {
          "indexed": true,
          "internalType": "address",
          "name": "oldAdmin",
          "type": "address"
        },
        {
          "indexed": true,
          "internalType": "address",
          "name": "newAdmin",
          "type": "address"
        },
        {
          "indexed": false,
          "internalType": "uint256",
          "name": "timestamp",
          "type": "uint256"
        }
      ],
      "name": "AdminTransferred",
      "type": "event"
    },
    {
      "anonymous": false,
      "inputs": [
        {
          "indexed": true,
          "internalType": "address",
          "name": "newAddress",
          "type": "address"
        },
        {
          "indexed": false,
          "internalType": "uint256",
          "name": "timestamp",
          "type": "uint256"
        }
      ],
      "name": "HealthRecordCoreUpdated",
      "type": "event"
    },
    {
      "anonymous": false,
      "inputs": [
        {
          "indexed": false,
          "internalType": "uint64",
          "name": "version",
          "type": "uint64"
        }
      ],
      "name": "Initialized",
      "type": "event"
    },
    {
      "anonymous": false,
      "inputs": [
        {
          "indexed": true,
          "internalType": "address",
          "name": "wallet",
          "type": "address"
        },
        {
          "indexed": true,
          "internalType": "bytes32",
          "name": "userIdHash",
          "type": "bytes32"
        },
        {
          "indexed": false,
          "internalType": "uint256",
          "name": "timestamp",
          "type": "uint256"
        }
      ],
      "name": "MemberRegistered",
      "type": "event"
    },
    {
      "anonymous": false,
      "inputs": [
        {
          "indexed": true,
          "internalType": "bytes32",
          "name": "userIdHash",
          "type": "bytes32"
        },
        {
          "indexed": false,
          "internalType": "enum MemberRoleManager.MemberStatus",
          "name": "oldStatus",
          "type": "uint8"
        },
        {
          "indexed": false,
          "internalType": "enum MemberRoleManager.MemberStatus",
          "name": "newStatus",
          "type": "uint8"
        },
        {
          "indexed": true,
          "internalType": "address",
          "name": "changedBy",
          "type": "address"
        },
        {
          "indexed": false,
          "internalType": "uint256",
          "name": "timestamp",
          "type": "uint256"
        }
      ],
      "name": "MemberStatusChanged",
      "type": "event"
    },
    {
      "anonymous": false,
      "inputs": [
        {
          "indexed": true,
          "internalType": "string",
          "name": "recordId",
          "type": "string"
        },
        {
          "indexed": true,
          "internalType": "bytes32",
          "name": "userIdHash",
          "type": "bytes32"
        },
        {
          "indexed": false,
          "internalType": "uint256",
          "name": "timestamp",
          "type": "uint256"
        }
      ],
      "name": "OwnershipVoluntarilyLeft",
      "type": "event"
    },
    {
      "anonymous": false,
      "inputs": [
        {
          "indexed": true,
          "internalType": "string",
          "name": "recordId",
          "type": "string"
        },
        {
          "indexed": true,
          "internalType": "bytes32",
          "name": "targetIdHash",
          "type": "bytes32"
        },
        {
          "indexed": false,
          "internalType": "string",
          "name": "oldRole",
          "type": "string"
        },
        {
          "indexed": false,
          "internalType": "string",
          "name": "newRole",
          "type": "string"
        },
        {
          "indexed": true,
          "internalType": "bytes32",
          "name": "userIdHash",
          "type": "bytes32"
        },
        {
          "indexed": false,
          "internalType": "uint256",
          "name": "timestamp",
          "type": "uint256"
        }
      ],
      "name": "RoleChanged",
      "type": "event"
    },
    {
      "anonymous": false,
      "inputs": [
        {
          "indexed": true,
          "internalType": "string",
          "name": "recordId",
          "type": "string"
        },
        {
          "indexed": true,
          "internalType": "bytes32",
          "name": "targetIdHash",
          "type": "bytes32"
        },
        {
          "indexed": false,
          "internalType": "string",
          "name": "role",
          "type": "string"
        },
        {
          "indexed": true,
          "internalType": "bytes32",
          "name": "userIdHash",
          "type": "bytes32"
        },
        {
          "indexed": false,
          "internalType": "uint256",
          "name": "timestamp",
          "type": "uint256"
        }
      ],
      "name": "RoleGranted",
      "type": "event"
    },
    {
      "anonymous": false,
      "inputs": [
        {
          "indexed": true,
          "internalType": "string",
          "name": "recordId",
          "type": "string"
        },
        {
          "indexed": true,
          "internalType": "bytes32",
          "name": "targetIdHash",
          "type": "bytes32"
        },
        {
          "indexed": false,
          "internalType": "string",
          "name": "role",
          "type": "string"
        },
        {
          "indexed": true,
          "internalType": "bytes32",
          "name": "userIdHash",
          "type": "bytes32"
        },
        {
          "indexed": false,
          "internalType": "uint256",
          "name": "timestamp",
          "type": "uint256"
        }
      ],
      "name": "RoleRevoked",
      "type": "event"
    },
    {
      "anonymous": false,
      "inputs": [
        {
          "indexed": true,
          "internalType": "address",
          "name": "implementation",
          "type": "address"
        }
      ],
      "name": "Upgraded",
      "type": "event"
    },
    {
      "anonymous": false,
      "inputs": [
        {
          "indexed": true,
          "internalType": "address",
          "name": "wallet",
          "type": "address"
        },
        {
          "indexed": true,
          "internalType": "bytes32",
          "name": "userIdHash",
          "type": "bytes32"
        },
        {
          "indexed": false,
          "internalType": "uint256",
          "name": "timestamp",
          "type": "uint256"
        }
      ],
      "name": "WalletLinked",
      "type": "event"
    },
    {
      "inputs": [],
      "name": "UPGRADE_INTERFACE_VERSION",
      "outputs": [
        {
          "internalType": "string",
          "name": "",
          "type": "string"
        }
      ],
      "stateMutability": "view",
      "type": "function"
    },
    {
      "inputs": [
        {
          "internalType": "address",
          "name": "wallet",
          "type": "address"
        },
        {
          "internalType": "bytes32",
          "name": "userIdHash",
          "type": "bytes32"
        }
      ],
      "name": "addMember",
      "outputs": [],
      "stateMutability": "nonpayable",
      "type": "function"
    },
    {
      "inputs": [],
      "name": "admin",
      "outputs": [
        {
          "internalType": "address",
          "name": "",
          "type": "address"
        }
      ],
      "stateMutability": "view",
      "type": "function"
    },
    {
      "inputs": [
        {
          "internalType": "string",
          "name": "",
          "type": "string"
        },
        {
          "internalType": "uint256",
          "name": "",
          "type": "uint256"
        }
      ],
      "name": "adminsByRecord",
      "outputs": [
        {
          "internalType": "bytes32",
          "name": "",
          "type": "bytes32"
        }
      ],
      "stateMutability": "view",
      "type": "function"
    },
    {
      "inputs": [
        {
          "internalType": "string",
          "name": "recordId",
          "type": "string"
        },
        {
          "internalType": "address",
          "name": "targetWallet",
          "type": "address"
        },
        {
          "internalType": "string",
          "name": "newRole",
          "type": "string"
        }
      ],
      "name": "changeRole",
      "outputs": [],
      "stateMutability": "nonpayable",
      "type": "function"
    },
    {
      "inputs": [
        {
          "internalType": "address",
          "name": "wallet",
          "type": "address"
        }
      ],
      "name": "deactivateWallet",
      "outputs": [],
      "stateMutability": "nonpayable",
      "type": "function"
    },
    {
      "inputs": [],
      "name": "getAllUsers",
      "outputs": [
        {
          "internalType": "bytes32[]",
          "name": "",
          "type": "bytes32[]"
        }
      ],
      "stateMutability": "view",
      "type": "function"
    },
    {
      "inputs": [],
      "name": "getHealthRecordCore",
      "outputs": [
        {
          "internalType": "address",
          "name": "",
          "type": "address"
        }
      ],
      "stateMutability": "view",
      "type": "function"
    },
    {
      "inputs": [
        {
          "internalType": "string",
          "name": "recordId",
          "type": "string"
        }
      ],
      "name": "getRecordAdmins",
      "outputs": [
        {
          "internalType": "bytes32[]",
          "name": "",
          "type": "bytes32[]"
        }
      ],
      "stateMutability": "view",
      "type": "function"
    },
    {
      "inputs": [
        {
          "internalType": "string",
          "name": "recordId",
          "type": "string"
        }
      ],
      "name": "getRecordOwners",
      "outputs": [
        {
          "internalType": "bytes32[]",
          "name": "",
          "type": "bytes32[]"
        }
      ],
      "stateMutability": "view",
      "type": "function"
    },
    {
      "inputs": [
        {
          "internalType": "string",
          "name": "recordId",
          "type": "string"
        }
      ],
      "name": "getRecordRoleStats",
      "outputs": [
        {
          "internalType": "uint256",
          "name": "ownerCount",
          "type": "uint256"
        },
        {
          "internalType": "uint256",
          "name": "adminCount",
          "type": "uint256"
        },
        {
          "internalType": "uint256",
          "name": "viewerCount",
          "type": "uint256"
        }
      ],
      "stateMutability": "view",
      "type": "function"
    },
    {
      "inputs": [
        {
          "internalType": "string",
          "name": "recordId",
          "type": "string"
        }
      ],
      "name": "getRecordViewers",
      "outputs": [
        {
          "internalType": "bytes32[]",
          "name": "",
          "type": "bytes32[]"
        }
      ],
      "stateMutability": "view",
      "type": "function"
    },
    {
      "inputs": [
        {
          "internalType": "bytes32",
          "name": "userIdHash",
          "type": "bytes32"
        }
      ],
      "name": "getRecordsByUser",
      "outputs": [
        {
          "internalType": "string[]",
          "name": "",
          "type": "string[]"
        }
      ],
      "stateMutability": "view",
      "type": "function"
    },
    {
      "inputs": [
        {
          "internalType": "string",
          "name": "recordId",
          "type": "string"
        },
        {
          "internalType": "address",
          "name": "wallet",
          "type": "address"
        }
      ],
      "name": "getRoleDetails",
      "outputs": [
        {
          "internalType": "string",
          "name": "role",
          "type": "string"
        },
        {
          "internalType": "bool",
          "name": "isActive",
          "type": "bool"
        }
      ],
      "stateMutability": "view",
      "type": "function"
    },
    {
      "inputs": [
        {
          "internalType": "string",
          "name": "recordId",
          "type": "string"
        },
        {
          "internalType": "bytes32",
          "name": "userIdHash",
          "type": "bytes32"
        }
      ],
      "name": "getRoleDetailsByUser",
      "outputs": [
        {
          "internalType": "string",
          "name": "role",
          "type": "string"
        },
        {
          "internalType": "bool",
          "name": "isActive",
          "type": "bool"
        }
      ],
      "stateMutability": "view",
      "type": "function"
    },
    {
      "inputs": [
        {
          "internalType": "string",
          "name": "recordId",
          "type": "string"
        },
        {
          "internalType": "bytes32",
          "name": "userIdHash",
          "type": "bytes32"
        }
      ],
      "name": "getRoleGranter",
      "outputs": [
        {
          "internalType": "bytes32",
          "name": "",
          "type": "bytes32"
        }
      ],
      "stateMutability": "view",
      "type": "function"
    },
    {
      "inputs": [],
      "name": "getTotalRoles",
      "outputs": [
        {
          "internalType": "uint256",
          "name": "",
          "type": "uint256"
        }
      ],
      "stateMutability": "view",
      "type": "function"
    },
    {
      "inputs": [],
      "name": "getTotalUsers",
      "outputs": [
        {
          "internalType": "uint256",
          "name": "",
          "type": "uint256"
        }
      ],
      "stateMutability": "view",
      "type": "function"
    },
    {
      "inputs": [
        {
          "internalType": "address",
          "name": "wallet",
          "type": "address"
        }
      ],
      "name": "getUserForWallet",
      "outputs": [
        {
          "internalType": "bytes32",
          "name": "",
          "type": "bytes32"
        }
      ],
      "stateMutability": "view",
      "type": "function"
    },
    {
      "inputs": [
        {
          "internalType": "bytes32",
          "name": "userIdHash",
          "type": "bytes32"
        }
      ],
      "name": "getUserStatus",
      "outputs": [
        {
          "internalType": "enum MemberRoleManager.MemberStatus",
          "name": "status",
          "type": "uint8"
        }
      ],
      "stateMutability": "view",
      "type": "function"
    },
    {
      "inputs": [
        {
          "internalType": "bytes32",
          "name": "userIdHash",
          "type": "bytes32"
        }
      ],
      "name": "getWalletsForUser",
      "outputs": [
        {
          "internalType": "address[]",
          "name": "",
          "type": "address[]"
        }
      ],
      "stateMutability": "view",
      "type": "function"
    },
    {
      "inputs": [
        {
          "internalType": "string",
          "name": "recordId",
          "type": "string"
        },
        {
          "internalType": "address",
          "name": "targetWallet",
          "type": "address"
        },
        {
          "internalType": "string",
          "name": "role",
          "type": "string"
        }
      ],
      "name": "grantRole",
      "outputs": [],
      "stateMutability": "nonpayable",
      "type": "function"
    },
    {
      "inputs": [
        {
          "internalType": "string",
          "name": "recordId",
          "type": "string"
        },
        {
          "internalType": "address",
          "name": "wallet",
          "type": "address"
        }
      ],
      "name": "hasActiveRole",
      "outputs": [
        {
          "internalType": "bool",
          "name": "",
          "type": "bool"
        }
      ],
      "stateMutability": "view",
      "type": "function"
    },
    {
      "inputs": [
        {
          "internalType": "string",
          "name": "recordId",
          "type": "string"
        },
        {
          "internalType": "address",
          "name": "wallet",
          "type": "address"
        },
        {
          "internalType": "string",
          "name": "role",
          "type": "string"
        }
      ],
      "name": "hasRole",
      "outputs": [
        {
          "internalType": "bool",
          "name": "",
          "type": "bool"
        }
      ],
      "stateMutability": "view",
      "type": "function"
    },
    {
      "inputs": [],
      "name": "healthRecordCore",
      "outputs": [
        {
          "internalType": "contract HealthRecordCoreInterface",
          "name": "",
          "type": "address"
        }
      ],
      "stateMutability": "view",
      "type": "function"
    },
    {
      "inputs": [],
      "name": "initialize",
      "outputs": [],
      "stateMutability": "nonpayable",
      "type": "function"
    },
    {
      "inputs": [
        {
          "internalType": "string",
          "name": "recordId",
          "type": "string"
        },
        {
          "internalType": "address",
          "name": "targetWallet",
          "type": "address"
        },
        {
          "internalType": "string",
          "name": "role",
          "type": "string"
        }
      ],
      "name": "initializeRecordRole",
      "outputs": [],
      "stateMutability": "nonpayable",
      "type": "function"
    },
    {
      "inputs": [
        {
          "internalType": "address",
          "name": "wallet",
          "type": "address"
        }
      ],
      "name": "isActiveMember",
      "outputs": [
        {
          "internalType": "bool",
          "name": "",
          "type": "bool"
        }
      ],
      "stateMutability": "view",
      "type": "function"
    },
    {
      "inputs": [
        {
          "internalType": "string",
          "name": "recordId",
          "type": "string"
        },
        {
          "internalType": "bytes32",
          "name": "userIdHash",
          "type": "bytes32"
        }
      ],
      "name": "isActiveSubject",
      "outputs": [
        {
          "internalType": "bool",
          "name": "",
          "type": "bool"
        }
      ],
      "stateMutability": "view",
      "type": "function"
    },
    {
      "inputs": [
        {
          "internalType": "string",
          "name": "recordId",
          "type": "string"
        },
        {
          "internalType": "address",
          "name": "wallet",
          "type": "address"
        }
      ],
      "name": "isOwnerOrAdmin",
      "outputs": [
        {
          "internalType": "bool",
          "name": "",
          "type": "bool"
        }
      ],
      "stateMutability": "view",
      "type": "function"
    },
    {
      "inputs": [
        {
          "internalType": "address",
          "name": "wallet",
          "type": "address"
        }
      ],
      "name": "isVerifiedMember",
      "outputs": [
        {
          "internalType": "bool",
          "name": "",
          "type": "bool"
        }
      ],
      "stateMutability": "view",
      "type": "function"
    },
    {
      "inputs": [
        {
          "internalType": "address",
          "name": "wallet",
          "type": "address"
        }
      ],
      "name": "isVerifiedProvider",
      "outputs": [
        {
          "internalType": "bool",
          "name": "",
          "type": "bool"
        }
      ],
      "stateMutability": "view",
      "type": "function"
    },
    {
      "inputs": [
        {
          "internalType": "string",
          "name": "",
          "type": "string"
        },
        {
          "internalType": "uint256",
          "name": "",
          "type": "uint256"
        }
      ],
      "name": "ownersByRecord",
      "outputs": [
        {
          "internalType": "bytes32",
          "name": "",
          "type": "bytes32"
        }
      ],
      "stateMutability": "view",
      "type": "function"
    },
    {
      "inputs": [],
      "name": "proxiableUUID",
      "outputs": [
        {
          "internalType": "bytes32",
          "name": "",
          "type": "bytes32"
        }
      ],
      "stateMutability": "view",
      "type": "function"
    },
    {
      "inputs": [
        {
          "internalType": "address",
          "name": "wallet",
          "type": "address"
        }
      ],
      "name": "reactivateWallet",
      "outputs": [],
      "stateMutability": "nonpayable",
      "type": "function"
    },
    {
      "inputs": [
        {
          "internalType": "bytes32",
          "name": "",
          "type": "bytes32"
        }
      ],
      "name": "recordRoles",
      "outputs": [
        {
          "internalType": "string",
          "name": "role",
          "type": "string"
        },
        {
          "internalType": "bool",
          "name": "isActive",
          "type": "bool"
        }
      ],
      "stateMutability": "view",
      "type": "function"
    },
    {
      "inputs": [
        {
          "internalType": "bytes32",
          "name": "",
          "type": "bytes32"
        },
        {
          "internalType": "uint256",
          "name": "",
          "type": "uint256"
        }
      ],
      "name": "recordsByUser",
      "outputs": [
        {
          "internalType": "string",
          "name": "",
          "type": "string"
        }
      ],
      "stateMutability": "view",
      "type": "function"
    },
    {
      "inputs": [
        {
          "internalType": "string",
          "name": "recordId",
          "type": "string"
        },
        {
          "internalType": "address",
          "name": "targetWallet",
          "type": "address"
        }
      ],
      "name": "revokeRole",
      "outputs": [],
      "stateMutability": "nonpayable",
      "type": "function"
    },
    {
      "inputs": [
        {
          "internalType": "bytes32",
          "name": "",
          "type": "bytes32"
        }
      ],
      "name": "roleGrantedBy",
      "outputs": [
        {
          "internalType": "bytes32",
          "name": "",
          "type": "bytes32"
        }
      ],
      "stateMutability": "view",
      "type": "function"
    },
    {
      "inputs": [
        {
          "internalType": "address",
          "name": "_healthRecordCore",
          "type": "address"
        }
      ],
      "name": "setHealthRecordCore",
      "outputs": [],
      "stateMutability": "nonpayable",
      "type": "function"
    },
    {
      "inputs": [
        {
          "internalType": "bytes32",
          "name": "userIdHash",
          "type": "bytes32"
        },
        {
          "internalType": "enum MemberRoleManager.MemberStatus",
          "name": "newStatus",
          "type": "uint8"
        }
      ],
      "name": "setUserStatus",
      "outputs": [],
      "stateMutability": "nonpayable",
      "type": "function"
    },
    {
      "inputs": [],
      "name": "totalRoles",
      "outputs": [
        {
          "internalType": "uint256",
          "name": "",
          "type": "uint256"
        }
      ],
      "stateMutability": "view",
      "type": "function"
    },
    {
      "inputs": [],
      "name": "totalUsers",
      "outputs": [
        {
          "internalType": "uint256",
          "name": "",
          "type": "uint256"
        }
      ],
      "stateMutability": "view",
      "type": "function"
    },
    {
      "inputs": [
        {
          "internalType": "address",
          "name": "newAdmin",
          "type": "address"
        }
      ],
      "name": "transferAdmin",
      "outputs": [],
      "stateMutability": "nonpayable",
      "type": "function"
    },
    {
      "inputs": [
        {
          "internalType": "address",
          "name": "newImplementation",
          "type": "address"
        },
        {
          "internalType": "bytes",
          "name": "data",
          "type": "bytes"
        }
      ],
      "name": "upgradeToAndCall",
      "outputs": [],
      "stateMutability": "payable",
      "type": "function"
    },
    {
      "inputs": [
        {
          "internalType": "uint256",
          "name": "",
          "type": "uint256"
        }
      ],
      "name": "userList",
      "outputs": [
        {
          "internalType": "bytes32",
          "name": "",
          "type": "bytes32"
        }
      ],
      "stateMutability": "view",
      "type": "function"
    },
    {
      "inputs": [
        {
          "internalType": "bytes32",
          "name": "",
          "type": "bytes32"
        }
      ],
      "name": "userStatus",
      "outputs": [
        {
          "internalType": "enum MemberRoleManager.MemberStatus",
          "name": "",
          "type": "uint8"
        }
      ],
      "stateMutability": "view",
      "type": "function"
    },
    {
      "inputs": [
        {
          "internalType": "bytes32",
          "name": "",
          "type": "bytes32"
        },
        {
          "internalType": "uint256",
          "name": "",
          "type": "uint256"
        }
      ],
      "name": "userWallets",
      "outputs": [
        {
          "internalType": "address",
          "name": "",
          "type": "address"
        }
      ],
      "stateMutability": "view",
      "type": "function"
    },
    {
      "inputs": [
        {
          "internalType": "string",
          "name": "",
          "type": "string"
        },
        {
          "internalType": "uint256",
          "name": "",
          "type": "uint256"
        }
      ],
      "name": "viewersByRecord",
      "outputs": [
        {
          "internalType": "bytes32",
          "name": "",
          "type": "bytes32"
        }
      ],
      "stateMutability": "view",
      "type": "function"
    },
    {
      "inputs": [
        {
          "internalType": "string",
          "name": "recordId",
          "type": "string"
        }
      ],
      "name": "voluntarilyLeaveOwnership",
      "outputs": [],
      "stateMutability": "nonpayable",
      "type": "function"
    },
    {
      "inputs": [
        {
          "internalType": "address",
          "name": "",
          "type": "address"
        }
      ],
      "name": "wallets",
      "outputs": [
        {
          "internalType": "bytes32",
          "name": "userIdHash",
          "type": "bytes32"
        },
        {
          "internalType": "bool",
          "name": "isWalletActive",
          "type": "bool"
        }
      ],
      "stateMutability": "view",
      "type": "function"
    }
  ],
  "bytecode": "0x60a08060405234620000d157306080527ff0c57e16840df040f15088dc2f81fe391c3923bec73e23a9662efc9c229c6a009081549060ff8260401c16620000c257506001600160401b036002600160401b0319828216016200007c575b604051613a409081620000d78239608051818181611d9c0152611ee90152f35b6001600160401b031990911681179091556040519081527fc7f505b2f371ae2175ee4913f4499e1f2633a7b5936321eed1cdaeb6115181d290602090a13880806200005c565b63f92ee8a960e01b8152600490fd5b600080fdfe608060408181526004918236101561001657600080fd5b600090813560e01c908162b0c8091461292d575080630b3ffd1d1461286e5780631435b558146128525780631a95aca5146127cb578063259ed80e146127a557806333105592146127675780633575c391146124a05780633dd1e8fc1461241957806341d8bde31461237657806345ecd02f1461235057806349df7208146120e05780634b6feb7c146117945780634f1ef28614611e99578063510b300314611e0057806352d1902d14611d88578063562c788e146106005780636544b05b14611c99578063679084e914611c735780636b4bed9714610315578063731f21a01461183357806375829def146117b3578063790e118c146117945780638129fc1c1461165657806389b08f111461160f5780639443cd80146115c657806396207e021461145f578063970ee5b9146114285780639be572f614610dd35780639f4216e8146113db578063a0ca13c3146113bf578063ad3cb1cc1461137a578063b55aefcc14611343578063bb0f86d51461128c578063bb20b17214610df2578063bff1f9e114610dd3578063c715582314610d55578063cabdd23f14610d39578063cb261a0314610d13578063cda06c6e14610ceb578063d12a776814610c3a578063daa9dc23146106aa578063e2842d7914610629578063e94ed25714610600578063e965bfb7146105a7578063eb2bbf251461057d578063ed8d7b371461039f578063ee4e582814610347578063f29e007b14610315578063f3ac2bea146102f0578063f851a440146102c45763fa7a6bcc1461025457600080fd5b346102c15761026236612cc8565b908252600a60205282822080548210156102bd579061028091612cde565b9390936102ab576102a78361029486612b10565b9051918291602083526020830190612bd8565b0390f35b634e487b7160e01b8252819052602490fd5b8280fd5b80fd5b5090346102ec57816003193601126102ec57905490516001600160a01b039091168152602090f35b5080fd5b5090346102ec5760209061030c61030636612c74565b9061372d565b90519015158152f35b5091346102bd5760203660031901126102bd5760ff82602094610345933581526002865220541691518092612ca5565bf35b5090346102ec576102a78160209361036761036136612c74565b906135ca565b8152600685522091805161037a8161297c565b60ff600161038786612b10565b95868452015416151594859101525192839283612bfd565b509190346102bd576020806003193601126105795782356001600160401b038111610575576103d19036908501612a3b565b6103dd81511515612dd0565b3385526001825282852054936103fb6103f4612ff5565b8684613605565b1561052657835161043984600185519382818189019661041c81838a612bb5565b810160078152030190205411928751809381928851928391612bb5565b81016008815203019020541515811561051e575b50156104c15750906104b882610484867f3bb3693064733b9a7d6d41bee69f302fcbefbe827ea4011400530c9ba9cb49c3956135ca565b61049661048f612ff5565b8884613665565b87526006835260018588200160ff198154169055600d83528685812055613061565b9251428152a380f35b835162461bcd60e51b8152908101839052603160248201527f43616e6e6f74206c65617665206173206c617374206f776e65722077697468206044820152706e6f2061646d696e6973747261746f727360781b6064820152608490fd5b90503861044d565b835162461bcd60e51b8152908101839052602360248201527f596f7520617265206e6f7420616e206f776e6572206f662074686973207265636044820152621bdc9960ea1b6064820152608490fd5b8480fd5b8380fd5b5090346102ec576102a79061059a61059436612a59565b90613183565b9290915192839283612bfd565b5090346102ec576020916105d16105bd36612c74565b949081855193828580945193849201612bb5565b810160088152030190209081548410156102c157506020926105f291612cde565b91905490519160031b1c8152f35b5090346102ec57816003193601126102ec57600c5490516001600160a01b039091168152602090f35b5090346102ec57816003193601126102ec578051918284549081815260208091019583527f8a35acfbc15ff81a39ae7d344fd709f28e8600b4aa8c65c6b64bfe7fe36bd19b92905b828210610693576102a78686610689828b03836129c8565b5191829182612a9a565b835487529586019560019384019390910190610671565b5091346102bd576106ba36612c1d565b9192906106ce6106c9336132c5565b613111565b6106da84511515612dd0565b6001600160a01b0316936106ef851515612f05565b6107006106fb8461326d565b612e61565b338652602060018152818720549587528187205494610720861515612f51565b8451828601209361073187836135ca565b808a526006845261074a60ff6001878d20015416612f9d565b89526006835261075b848a20612b10565b94855184870120818114610bf757610771612ff5565b8581519101208114610b8257855191845192868181880195610794818389612bb5565b810160078152030190205415918b83156107c96107b96107b2612ff5565b848b613605565b926107c2613016565b908a613605565b906107d2612ff5565b8051908b012085036109cc571561096f57501561092e575b6107f2613016565b878151910120149081610917575b50610875575b505050916108697fea2c9ebe68919ddf880b3221d8d508d908163d0973e8b79df108f5d110d0c6339492610848856108438b8a8c61085c9a613440565b613061565b968351958695606087526060870190612bd8565b9185830390860152612bd8565b9042908301520390a480f35b610880575b80610806565b610897846001928751809381928851928391612bb5565b810160088152030190205411156108ae578061087a565b835162461bcd60e51b8152908101839052603960248201527f43616e6e6f742064656d6f746520746865206c6173742061646d696e6973747260448201527f61746f72207768656e206e6f206f776e657220657869737473000000000000006064820152608490fd5b905061092161303f565b8681519101201438610800565b60648588808b519262461bcd60e51b845283015260248201527f4f6e6c79206f776e6572732063616e2070726f6d6f746520746f206f776e65726044820152fd5b90506107ea57875162461bcd60e51b8152808601889052602b60248201527f4f6e6c792061646d696e6973747261746f72732063616e2070726f6d6f74652060448201526a3334b939ba1037bbb732b960a91b6064820152608490fd5b6109d4613016565b8051908b01208503610a5e57508115610a56575b506107ea57875162461bcd60e51b8152808601889052603b60248201527f4f6e6c79206f776e65727320616e642061646d696e6973747261746f7273206360448201527f616e2070726f6d6f746520746f2061646d696e6973747261746f7200000000006064820152608490fd5b9050386109e8565b610a6661303f565b8a81519101208514610a7b575b5050506107ea565b15610b28578115610b11575b5015610a96575b388080610a73565b875162461bcd60e51b8152808601889052604960248201527f4f6e6c79206f776e6572732063616e2064656d6f7465206f74686572732e204160448201527f646d696e6973747261746f72732063616e206f6e6c792064656d6f746520746860648201526832b6b9b2b63b32b99760b91b608482015260a490fd5b905080610b1f575b38610a87565b508a8c14610b19565b9050610a8e57875162461bcd60e51b8152808601889052602860248201527f4f6e6c792061646d696e6973747261746f72732063616e2064656d6f7465207460448201526737903b34b2bbb2b960c11b6064820152608490fd5b855162461bcd60e51b8152808401869052604360248201527f4f776e6572732063616e6e6f742062652064656d6f7465642e204f776e65722060448201527f6d75737420766f6c756e746172696c792072656d6f7665207468656d73656c7660648201526232b99760e91b608482015260a490fd5b855162461bcd60e51b8152808401869052601c60248201527f54617267657420616c726561647920686173207468697320726f6c65000000006044820152606490fd5b508290346102c157602091826003193601126102ec5792919235815260038352818120908251808584549182815201908194845286842090845b818110610cce5750505081610c8a9103826129c8565b83519485948186019282875251809352850193925b828110610cae57505050500390f35b83516001600160a01b031685528695509381019392810192600101610c9f565b82546001600160a01b031684529288019260019283019201610c74565b5091346102bd5760203660031901126102bd576020928291358152600d845220549051908152f35b5090346102ec5760203660031901126102ec5760209061030c610d34612961565b6137cb565b5090346102ec5760209061030c610d4f36612c1d565b91613154565b5090346102ec5760203660031901126102ec577fce59ad7d6dabe8a7533ed7d9bd07d276a046ac7ac9a8e8e8971da4b81104a28b6020610d93612961565b84546001600160a01b039190610dac9083163314612d0c565b1692610db9841515613081565b600c80546001600160a01b0319168517905551428152a280f35b5090346102ec57816003193601126102ec576020906005549051908152f35b5082346102ec57610e0236612c1d565b919290610e116106c9336132c5565b610e1d84511515612dd0565b6001600160a01b031692610e32841515612f05565b610e3e6106fb8461326d565b33855260209160018352868620549486528686205492610e5f841515612f51565b845181860120610e6f87856135ca565b88526006825260ff60018a8a200154161561124b57885182818651610e978183858b01612bb5565b8101600781520301902054151590610eb7610eb0612ff5565b8987613605565b91610eca610ec3613016565b8a88613605565b91610ed58a8861372d565b90610ede612ff5565b805190870120810361102057505015610fc6575015610f84575b610f0284846135ca565b87526006815260ff6001898920015416610f26575050610f23949550613440565b80f35b875162461bcd60e51b815291820152603360248201527f54617267657420616c726561647920686173206120726f6c652e2055736520636044820152721a185b99d9549bdb194a0a481a5b9cdd195859606a1b606482015260849150fd5b875162461bcd60e51b815291820181905260248201527f4f6e6c79206f776e6572732063616e206772616e74206f776e657220726f6c65604482015260649150fd5b9050610ef857875162461bcd60e51b815291820152602960248201527f4f6e6c792061646d696e6973747261746f72732063616e206772616e742066696044820152683939ba1037bbb732b960b91b606482015260849150fd5b90915061102b613016565b80519086012081036110b557505081156110ad575b50610ef857875162461bcd60e51b815291820152603b60248201527f4f6e6c79206f776e65727320616e642061646d696e6973747261746f7273206360448201527f616e206772616e742061646d696e6973747261746f7220726f6c650000000000606482015260849150fd5b905089611040565b6110c093919361303f565b858151910120146110d4575b505050610ef8565b80159081611244575b801561123d575b156111d457826111cc575b50816111c3575b50611104575b8880806110cc565b61110e86846135ca565b87526006815287872060ff60018a51926111278461297c565b61113081612b10565b8452015416158015838301526111af57515b516110fc57875162461bcd60e51b815291820152603c60248201527f5375626a656374206d757374206861766520616e2061637469766520726f6c6560448201527f20746f206772616e7420766965776572207065726d697373696f6e7300000000606482015260849150fd5b5087516111bb816129ad565b878152611142565b905015896110f6565b91508a6110ef565b8a5162461bcd60e51b8152808601859052603e60248201527f4f6e6c79206f776e6572732c2061646d696e6973747261746f72732c206f722060448201527f7375626a656374732063616e206772616e742076696577657220726f6c6500006064820152608490fd5b50826110e4565b50816110dd565b60648383808c519262461bcd60e51b845283015260248201527f596f752068617665206e6f20726f6c6520666f722074686973207265636f72646044820152fd5b509190346102bd5760203660031901126102bd576112a8612961565b83546001600160a01b0391906112c19083163314612d0c565b16808452600192836020526112da838620541515612d45565b8185528360205260ff8484872001541661130857508352602082905282208101805460ff1916909117905580f35b606490602084519162461bcd60e51b8352820152601560248201527457616c6c657420616c72656164792061637469766560581b6044820152fd5b5090346102ec576020916113596105bd36612c74565b810160098152030190209081548410156102c157506020926105f291612cde565b5090346102ec57816003193601126102ec5780516102a79161139b8261297c565b60058252640352e302e360dc1b602083015251918291602083526020830190612bd8565b5090346102ec5760209061030c6113d536612a59565b906130bf565b5091346102bd5760203660031901126102bd57803590805482101561057957602093527f8a35acfbc15ff81a39ae7d344fd709f28e8600b4aa8c65c6b64bfe7fe36bd19b01549051908152f35b5090346102ec5760209161143e6105bd36612c74565b810160078152030190209081548410156102c157506020926105f291612cde565b509190346102bd57806003193601126102bd5781359060243560058110156105755761149560018060a01b038654163314612d0c565b82855260206002815260ff838720541660058110156115b3571561157b578386526002815260ff838720541694600586101561156857828614611531575090611503918487526002815283872060ff1981541660ff84161790556114fb84518097612ca5565b850190612ca5565b42908301527ff6277c6ee46649823db9a5c531db3112b4340c67179cae1932ba3420dcc37cc760603393a380f35b60649184519162461bcd60e51b83528201526013602482015272416c726561647920746869732073746174757360681b6044820152fd5b634e487b7160e01b875260219052602486fd5b8460649184519162461bcd60e51b83528201526013602482015272155cd95c881b9bdd081c9959da5cdd195c9959606a1b6044820152fd5b634e487b7160e01b875260218652602487fd5b5090346102ec576115d636612cc8565b9290815260036020528181209081548410156102c157506020926115f991612cde565b60018060a01b0391549060031b1c169051908152f35b5090346102ec5760203660031901126102ec579081906001600160a01b03611635612961565b16815260016020522060ff6001825492015416825191825215156020820152f35b5091346102bd57826003193601126102bd577ff0c57e16840df040f15088dc2f81fe391c3923bec73e23a9662efc9c229c6a0091825460ff81831c1615906001600160401b0381168015908161178c575b6001149081611782575b159081611779575b5061176a5767ffffffffffffffff19811660011785558161174b575b5083549260ff84841c161561173d575084546001600160a01b031916331785556116fd578380f35b7fc7f505b2f371ae2175ee4913f4499e1f2633a7b5936321eed1cdaeb6115181d29260209268ff0000000000000000191690555160018152a13880808380f35b8251631afcd79f60e31b8152fd5b68ffffffffffffffffff191668010000000000000001178455386116d5565b50505163f92ee8a960e01b8152fd5b905015386116b9565b303b1591506116b1565b8391506116a7565b5090346102ec57816003193601126102ec57602090600b549051908152f35b5090346102ec5760203660031901126102ec576020906117d1612961565b835491906001600160a01b03808416917f38df5fa0f7fef0d515ca1f5388cb5790ac5885d5fca8d05d9f943e563c33a4b3919061180f338514612d0c565b1694859361181e851515613081565b51428152a36001600160a01b03191617815580f35b509190346102bd5761184436612a59565b611852829392511515612dd0565b6001600160a01b031692611867841515612f05565b33855260209160018352808620549486528086205493611888851515612f51565b61189285826135ca565b808852600685526118ab60ff6001858b20015416612f9d565b808852600685526118bd838920612b10565b938451868601206118cc612ff5565b8781519101208114611bfc57878903611a21575b6118e8613016565b8781519101201461195e575b508161194a9161192886897f938e21a28464db5f9b9e24d1a58e038899de364f69dba20c154ee6fd4cd86def989796613665565b8952600686526001838a200160ff198154169055600d86528883812055613061565b936108698251938385948552840190612bd8565b83516119978760018651938281818a019661197a81838a612bb5565b810160088152030190205411928751809381928951928391612bb5565b810160078152030190205415158115611a19575b506118f457835162461bcd60e51b8152908101869052603960248201527f43616e6e6f74207265766f6b65206c6173742061646d696e6973747261746f7260448201527f20776974686f757420616e206f776e65722070726573656e74000000000000006064820152608490fd5b9050386119ab565b611a33611a2c612ff5565b8a86613605565b611a45611a3e613016565b8b87613605565b848c52600d89528a878d20541490611a5b61303f565b8051908b01208403611afb578215611af3575b508115611aeb575b5015611a82575b6118e0565b845162461bcd60e51b8152808301889052603e60248201527f4f6e6c79206f776e6572732c2061646d696e6973747261746f72732c206f722060448201527f746865206772616e7465722063616e207265766f6b65207669657765727300006064820152608490fd5b905038611a76565b915038611a6e565b821592915082611bf4575b5015611b9957156118e057611b19613016565b8781519101208103611a7d57845187818651611b388183858b01612bb5565b810160078152030190205415611a7d57845162461bcd60e51b8152808301889052602560248201527f4f6e6c79206f776e6572732063616e207265766f6b652061646d696e6973747260448201526461746f727360d81b6064820152608490fd5b855162461bcd60e51b8152808401899052602f60248201527f4f6e6c79206f776e65727320616e642061646d696e6973747261746f7273206360448201526e616e207265766f6b6520726f6c657360881b6064820152608490fd5b905038611b06565b845162461bcd60e51b8152808301889052604560248201527f4f776e6572732063616e6e6f74206265207265766f6b65642e204f776e65722060448201527f6d7573742075736520766f6c756e746172696c794c656176654f776e6572736860648201526434b814149760d91b608482015260a490fd5b5090346102ec5780602092611c8a61036136612c74565b8152600d845220549051908152f35b5082346102ec57602090816003193601126102bd5780358352600a8252838320918254916001600160401b038311611d7557509290845190611ce0858260051b01836129c8565b8082528482018094845285842084915b838310611d5157505050508451938085019181865251809252858501958260051b8601019392955b828710611d255785850386f35b909192938280611d41600193603f198a82030186528851612bd8565b9601920196019592919092611d18565b6001888192611d63859b98999b612b10565b81520192019201919096949396611cf0565b634e487b7160e01b855260419052602484fd5b50346102c157806003193601126102c157507f00000000000000000000000000000000000000000000000000000000000000006001600160a01b03163003611df357602090517f360894a13ba1a3210667c828492db98dca3e2076cc3735a920a3ca505d382bbc8152f35b5163703e46dd60e11b8152fd5b509190346102bd5760209182600319360112610579578035906001600160401b03821161057557611e388491611e4a93369101612a3b565b81845193828580945193849201612bb5565b810160098152030190209281518093808654928381520195835280832092905b828210611e82576102a78686610689828b03836129c8565b835487529586019560019384019390910190611e6a565b509190806003193601126102bd57611eaf612961565b906024356001600160401b038111610575573660238201121561057557611edf9036906024818701359101612a04565b6001600160a01b037f000000000000000000000000000000000000000000000000000000000000000081163081149081156120b2575b506120a257611f28818754163314612d0c565b82516352d1902d60e01b81529084169360209182818881895afa88918161206f575b50611f66578451634c9c8ce360e01b8152808801879052602490fd5b7f360894a13ba1a3210667c828492db98dca3e2076cc3735a920a3ca505d382bbc969295919396908181036120595750833b156120425780546001600160a01b0319168217905583518792917fbc7cd75a20ee27fd9adebab32041f755214dbc6bffa90cc0225b39da2e5c2d3b8480a286511561202557505080858561201797519101845af4913d1561201b573d612009612000826129e9565b925192836129c8565b81528581943d92013e613987565b5080f35b5060609250613987565b945094505050503461203657505080f35b63b398979f60e01b8152fd5b8451634c9c8ce360e01b8152808401839052602490fd5b83602491875191632a87526960e21b8352820152fd5b9091508381813d831161209b575b61208781836129c8565b8101031261209757519038611f4a565b8880fd5b503d61207d565b825163703e46dd60e11b81528590fd5b9050817f360894a13ba1a3210667c828492db98dca3e2076cc3735a920a3ca505d382bbc5416141538611f15565b5091346102bd57816003193601126102bd576120fa612961565b9160249081359360018060a01b038091612118828954163314612d0c565b1693612125851515612e1c565b851561231757848752600193602094808652848920546122d55761217a855161214d8161297c565b898152828882018181528a8d52818a52888d209251835551151591019060ff801983541691151516179055565b87895260038652848920938454600160401b95868210156122c357906121a4918482018155612cde565b819291549060031b918a831b921b19161790558789526002865260ff858a20541660058110156122b1576122825787895260028652848920600260ff1982541617905582549384101561227057830180835583101561225f57507f39d132591ee0696de49ab564e4a90e430c006561917db731a2a614dd2d245591939291869188527f8a35acfbc15ff81a39ae7d344fd709f28e8600b4aa8c65c6b64bfe7fe36bd19b0155612254600554612ee0565b60055551428152a380f35b634e487b7160e01b88526032825287fd5b50634e487b7160e01b88526041825287fd5b50505050907f1cc138f50384be7770a8e4a34eecaa0d0c718bfaa1641af49db32532e4a5b9109151428152a380f35b634e487b7160e01b8a5260218452828afd5b634e487b7160e01b8c5260418652848cfd5b845162461bcd60e51b81528084018790526019818401527f57616c6c657420616c72656164792072656769737465726564000000000000006044820152606490fd5b606490601485602086519362461bcd60e51b855284015282015273092dcecc2d8d2c840eae6cae440928840d0c2e6d60631b6044820152fd5b5090346102ec5760203660031901126102ec5760209061030c612371612961565b6132c5565b50346102c157602090816003193601126102c1578335906001600160401b0382116102c157506060936123ab91369101612a3b565b91805192612400838251958181818601986123c781838c612bb5565b8101600781520301902054958451828186516123e4818387612bb5565b8101600881520301902054938551938492839251928391612bb5565b8101600981520301902054928251948552840152820152f35b509190346102bd5760209182600319360112610579578035906001600160401b03821161057557611e38849161245193369101612a3b565b810160088152030190209281518093808654928381520195835280832092905b828210612489576102a78686610689828b03836129c8565b835487529586019560019384019390910190612471565b5082346102ec576124b036612c1d565b9092919460018060a01b036124c9818754163314612d0c565b6124d587511515612dd0565b84166124e2811515612e1c565b6124ee6106fb8461326d565b85526020926001845261250a8287205495612371871515612d45565b15612726578151848851918181818c0194612526818388612bb5565b81016007815203019020541591826126fe575b5050156126bd5761254a85886135ca565b808752600685528287209061255e82612b10565b9060ff600183511594015416906125b18a60018a61259b8a8051946125828661297c565b8d8652600684870194868652898352522093518461332e565b51151591019060ff801983541691151516179055565b8952600d875288858120551560001461267e57506125d084878a613824565b6125f1575b50906000805160206139eb8339815191529161194a8697613061565b95848652600a8452818620805490600160401b82101561266b579061261b91600182018155612cde565b61265957869750816126416000805160206139eb83398151915295949361194a9361332e565b61264c600b54612ee0565b600b5597505090916125d5565b634e487b7160e01b8752868852602487fd5b634e487b7160e01b885260418952602488fd5b96979395949250505084518186012090845190850120036126a1575b5050505080f35b6126af6126b4948383613665565b613824565b8180808061269a565b83606492519162461bcd60e51b8352820152601a60248201527f5265636f726420616c726561647920696e697469616c697a65640000000000006044820152fd5b61271392508451809381928c51928391612bb5565b8101600881520301902054158489612539565b83606492519162461bcd60e51b8352820152601860248201527f4d75737420626520616e20616374697665206d656d62657200000000000000006044820152fd5b5091346102bd5760203660031901126102bd579181923581526006602052206102a760ff600161279684612b10565b93015416925192839283612bfd565b5090346102ec5760203660031901126102ec5760209061030c6127c6612961565b6131fc565b509190346102bd5760209182600319360112610579578035906001600160401b03821161057557611e38849161280393369101612a3b565b810160078152030190209281518093808654928381520195835280832092905b82821061283b576102a78686610689828b03836129c8565b835487529586019560019384019390910190612823565b5090346102ec5760209061030c61286836612a59565b90612d89565b5091346102bd5760203660031901126102bd57612889612961565b83546001600160a01b0391906128a29083163314612d0c565b169081845260016020526128ba838520541515612d45565b818452600160205260ff6001848620015416156128ea575082526001602081905290822001805460ff1916905580f35b606490602084519162461bcd60e51b8352820152601760248201527f57616c6c657420616c726561647920696e6163746976650000000000000000006044820152fd5b905082346102bd5760203660031901126102bd576020926001600160a01b03612954612961565b1681526001845220548152f35b600435906001600160a01b038216820361297757565b600080fd5b604081019081106001600160401b0382111761299757604052565b634e487b7160e01b600052604160045260246000fd5b602081019081106001600160401b0382111761299757604052565b90601f801991011681019081106001600160401b0382111761299757604052565b6001600160401b03811161299757601f01601f191660200190565b929192612a10826129e9565b91612a1e60405193846129c8565b829481845281830111612977578281602093846000960137010152565b9080601f8301121561297757816020612a5693359101612a04565b90565b604060031982011261297757600435906001600160401b03821161297757612a8391600401612a3b565b906024356001600160a01b03811681036129775790565b602090602060408183019282815285518094520193019160005b828110612ac2575050505090565b835185529381019392810192600101612ab4565b90600182811c92168015612b06575b6020831014612af057565b634e487b7160e01b600052602260045260246000fd5b91607f1691612ae5565b90604051918260008254612b2381612ad6565b90818452602094600191600181169081600014612b935750600114612b54575b505050612b52925003836129c8565b565b600090815285812095935091905b818310612b7b575050612b529350820101388080612b43565b85548884018501529485019487945091830191612b62565b92505050612b5294925060ff191682840152151560051b820101388080612b43565b60005b838110612bc85750506000910152565b8181015183820152602001612bb8565b90602091612bf181518092818552858086019101612bb5565b601f01601f1916010190565b90612c15602091949394604084526040840190612bd8565b931515910152565b6060600319820112612977576001600160401b03916004358381116129775782612c4991600401612a3b565b926024356001600160a01b0381168103612977579260443591821161297757612a5691600401612a3b565b604060031982011261297757600435906001600160401b03821161297757612c9e91600401612a3b565b9060243590565b906005821015612cb25752565b634e487b7160e01b600052602160045260246000fd5b6040906003190112612977576004359060243590565b8054821015612cf65760005260206000200190600090565b634e487b7160e01b600052603260045260246000fd5b15612d1357565b60405162461bcd60e51b815260206004820152600a60248201526927b7363c9030b236b4b760b11b6044820152606490fd5b15612d4c57565b60405162461bcd60e51b815260206004820152601560248201527415d85b1b195d081b9bdd081c9959da5cdd195c9959605a1b6044820152606490fd5b6001600160a01b039091166000908152600160205260409020548015612dc957612db2916135ca565b600052600660205260ff6001604060002001541690565b5050600090565b15612dd757565b60405162461bcd60e51b815260206004820152601960248201527f5265636f72642049442063616e6e6f7420626520656d707479000000000000006044820152606490fd5b15612e2357565b60405162461bcd60e51b8152602060048201526016602482015275496e76616c69642077616c6c6574206164647265737360501b6044820152606490fd5b15612e6857565b60405162461bcd60e51b8152602060048201526013602482015272496e76616c696420726f6c6520737472696e6760681b6044820152606490fd5b805490600160401b8210156129975781612ec5916001612edc94018155612cde565b819391549060031b91821b91600019901b19161790565b9055565b6000198114612eef5760010190565b634e487b7160e01b600052601160045260246000fd5b15612f0c57565b60405162461bcd60e51b815260206004820152601d60248201527f57616c6c657420616464726573732063616e6e6f74206265207a65726f0000006044820152606490fd5b15612f5857565b60405162461bcd60e51b815260206004820152601c60248201527f5461726765742077616c6c6574206e6f742072656769737465726564000000006044820152606490fd5b15612fa457565b60405162461bcd60e51b815260206004820152602360248201527f54617267657420646f6573206e6f74206861766520616e2061637469766520726044820152626f6c6560e81b6064820152608490fd5b604051906130028261297c565b600582526437bbb732b960d91b6020830152565b604051906130238261297c565b600d82526c30b236b4b734b9ba3930ba37b960991b6020830152565b6040519061304c8261297c565b60068252653b34b2bbb2b960d11b6020830152565b61307990602060405192828480945193849201612bb5565b810103902090565b1561308857565b60405162461bcd60e51b815260206004820152600f60248201526e496e76616c6964206164647265737360881b6044820152606490fd5b6001600160a01b03909116600090815260016020526040902054908115612dc9576130f26130eb612ff5565b8383613605565b9182156130fe57505090565b612a56925061310b613016565b91613605565b1561311857565b60405162461bcd60e51b81526020600482015260146024820152732737ba1030b71030b1ba34bb329036b2b6b132b960611b6044820152606490fd5b919060018060a01b03166000526001602052604060002054801561317b57612a5692613605565b505050600090565b6001600160a01b0390911660009081526001602052604081205490929181156131e757926131b56040926020956135ca565b815260068452206040516131c88161297c565b60ff60016131d584612b10565b93848452015416151593849101529190565b50506040516131f5816129ad565b8281529190565b6001600160a01b03166000908152600160205260408120805490811590811561325d575b50613259578152600260205260ff604082205416906005821015613245575060041490565b634e487b7160e01b81526021600452602490fd5b5090565b60ff915060010154161538613220565b6020815191012061327c612ff5565b6020815191012081149081156132ac575b8115613297575090565b90506132a161303f565b602081519101201490565b90506132b6613016565b6020815191012081149061328d565b6001600160a01b03166000908152600160205260408120805490811590811561331e575b50613259578152600260205260ff604082205416906005821015613245575060018114159081613317575090565b9050151590565b60ff9150600101541615386132e9565b91909182516001600160401b0381116129975761334b8254612ad6565b601f81116133f6575b50602080601f8311600114613391575081929394600092613386575b50508160011b916000199060031b1c1916179055565b015190503880613370565b90601f19831695846000526020600020926000905b8882106133de575050836001959697106133c5575b505050811b019055565b015160001960f88460031b161c191690553880806133bb565b806001859682949686015181550195019301906133a6565b6000836000526020600020601f840160051c81019260208510613436575b601f0160051c01915b82811061342b575050613354565b81815560010161341d565b9092508290613414565b909161344c83836135ca565b600092818452602093600685526040928382209061346982612b10565b9060ff600183511594015416906134a487516134848161297c565b89815260018b820181815284895260068d5261259b8b8a2093518461332e565b8452600d885289868520551560001461359157506134c3858885613824565b613502575b50906134e36000805160206139eb8339815191529392613061565b936134f78251938385948552840190612bd8565b9042908301520390a4565b858152600a8552828120805490600160401b82101561357d579061352b91600182018155612cde565b9190916135695750816135526000805160206139eb8339815191529594936134e39361332e565b61355d600b54612ee0565b600b55919293506134c8565b634e487b7160e01b81526004819052602490fd5b634e487b7160e01b83526041600452602483fd5b97505050919392905084518186012090845190850120036135b3575b50505050565b6126af6135c1948383613665565b388080806135ad565b906135ff60408051809360206135e98184019788815193849201612bb5565b82019060208201520360208101845201826129c8565b51902090565b60209291613612916135ca565b60005260068252604060002060405161362a8161297c565b60ff600161363784612b10565b93848452015416151593849101528261364f57505090565b9091506020815191012090602081519101201490565b8251602080940120613675612ff5565b80519085012081036136ac57508261369d91612b529460405193828580945193849201612bb5565b810160078152030190206138ec565b6136b4613016565b80519085012081036136eb5750826136dc91612b529460405193828580945193849201612bb5565b810160088152030190206138ec565b6136f361303f565b8481519101201461370357505050565b8261371e91612b529460405193828580945193849201612bb5565b810160098152030190206138ec565b600c546001600160a01b031690811561317b5760209161376b916040518095819482936379d615f560e11b8452604060048501526044840190612bd8565b90602483015203915afa9081156137bf57600091613787575090565b6020813d6020116137b7575b816137a0602093836129c8565b810103126102ec57519081151582036102c1575090565b3d9150613793565b6040513d6000823e3d90fd5b6001600160a01b031660009081526001602052604081208054908115908115613814575b50613259578152600260205260ff604082205416906005821015613245575060031490565b60ff9150600101541615386137ef565b8251602080940120613834612ff5565b805190850120810361386b57508261385c91612b529460405193828580945193849201612bb5565b81016007815203019020612ea3565b613873613016565b80519085012081036138aa57508261389b91612b529460405193828580945193849201612bb5565b81016008815203019020612ea3565b6138b261303f565b848151910120146138c257505050565b826138dd91612b529460405193828580945193849201612bb5565b81016009815203019020612ea3565b60005b815490818110156135ad5783916139068285612cde565b959054600396871b1c1461392057509092506001016138ef565b6000199250828101908111612eef57612ec561393f61394c9286612cde565b905490871b1c9285612cde565b905581548015613971578101926139638484612cde565b81939154921b1b1916905555565b634e487b7160e01b600052603160045260246000fd5b906139ae575080511561399c57805190602001fd5b604051630a12f52160e11b8152600490fd5b815115806139e1575b6139bf575090565b604051639996b31560e01b81526001600160a01b039091166004820152602490fd5b50803b156139b756fe2a27f0a20e4df4738f3a8e2449b014d439e7ce0a97ee5860771c25cbafa1cfeba26469706673582212206663e6d836f7c9a777281dcb8e766571329bc9fb6f8349d8aa0da8f6b7bb3f1164736f6c63430008170033",
  "linkReferences": {},
  "deployedLinkReferences": {}
}