{
  "_format": "hh-sol-artifact-1",
  "contractName": "MemberRoleManager",
  "sourceName": "contracts/MemberRoleManager.sol",
  "abi": [
    {
      "inputs": [],
      "stateMutability": "nonpayable",
      "type": "constructor"
    },
    {
      "inputs": [
        {
          "internalType": "address",
          "name": "target",
          "type": "address"
        }
      ],
      "name": "AddressEmptyCode",
      "type": "error"
    },
    {
      "inputs": [
        {
          "internalType": "address",
          "name": "implementation",
          "type": "address"
        }
      ],
      "name": "ERC1967InvalidImplementation",
      "type": "error"
    },
    {
      "inputs": [],
      "name": "ERC1967NonPayable",
      "type": "error"
    },
    {
      "inputs": [],
      "name": "FailedInnerCall",
      "type": "error"
    },
    {
      "inputs": [],
      "name": "InvalidInitialization",
      "type": "error"
    },
    {
      "inputs": [],
      "name": "NotInitializing",
      "type": "error"
    },
    {
      "inputs": [],
      "name": "UUPSUnauthorizedCallContext",
      "type": "error"
    },
    {
      "inputs": [
        {
          "internalType": "bytes32",
          "name": "slot",
          "type": "bytes32"
        }
      ],
      "name": "UUPSUnsupportedProxiableUUID",
      "type": "error"
    },
    {
      "anonymous": false,
      "inputs": [
        {
          "indexed": true,
          "internalType": "address",
          "name": "oldAdmin",
          "type": "address"
        },
        {
          "indexed": true,
          "internalType": "address",
          "name": "newAdmin",
          "type": "address"
        },
        {
          "indexed": false,
          "internalType": "uint256",
          "name": "timestamp",
          "type": "uint256"
        }
      ],
      "name": "AdminTransferred",
      "type": "event"
    },
    {
      "anonymous": false,
      "inputs": [
        {
          "indexed": false,
          "internalType": "uint64",
          "name": "version",
          "type": "uint64"
        }
      ],
      "name": "Initialized",
      "type": "event"
    },
    {
      "anonymous": false,
      "inputs": [
        {
          "indexed": true,
          "internalType": "address",
          "name": "wallet",
          "type": "address"
        },
        {
          "indexed": true,
          "internalType": "bytes32",
          "name": "userIdHash",
          "type": "bytes32"
        },
        {
          "indexed": false,
          "internalType": "uint256",
          "name": "timestamp",
          "type": "uint256"
        }
      ],
      "name": "MemberRegistered",
      "type": "event"
    },
    {
      "anonymous": false,
      "inputs": [
        {
          "indexed": true,
          "internalType": "bytes32",
          "name": "userIdHash",
          "type": "bytes32"
        },
        {
          "indexed": false,
          "internalType": "enum MemberRoleManager.MemberStatus",
          "name": "oldStatus",
          "type": "uint8"
        },
        {
          "indexed": false,
          "internalType": "enum MemberRoleManager.MemberStatus",
          "name": "newStatus",
          "type": "uint8"
        },
        {
          "indexed": true,
          "internalType": "address",
          "name": "changedBy",
          "type": "address"
        },
        {
          "indexed": false,
          "internalType": "uint256",
          "name": "timestamp",
          "type": "uint256"
        }
      ],
      "name": "MemberStatusChanged",
      "type": "event"
    },
    {
      "anonymous": false,
      "inputs": [
        {
          "indexed": true,
          "internalType": "string",
          "name": "recordId",
          "type": "string"
        },
        {
          "indexed": true,
          "internalType": "bytes32",
          "name": "userIdHash",
          "type": "bytes32"
        },
        {
          "indexed": false,
          "internalType": "uint256",
          "name": "timestamp",
          "type": "uint256"
        }
      ],
      "name": "OwnershipVoluntarilyLeft",
      "type": "event"
    },
    {
      "anonymous": false,
      "inputs": [
        {
          "indexed": true,
          "internalType": "string",
          "name": "recordId",
          "type": "string"
        },
        {
          "indexed": true,
          "internalType": "bytes32",
          "name": "targetIdHash",
          "type": "bytes32"
        },
        {
          "indexed": false,
          "internalType": "string",
          "name": "oldRole",
          "type": "string"
        },
        {
          "indexed": false,
          "internalType": "string",
          "name": "newRole",
          "type": "string"
        },
        {
          "indexed": true,
          "internalType": "bytes32",
          "name": "userIdHash",
          "type": "bytes32"
        },
        {
          "indexed": false,
          "internalType": "uint256",
          "name": "timestamp",
          "type": "uint256"
        }
      ],
      "name": "RoleChanged",
      "type": "event"
    },
    {
      "anonymous": false,
      "inputs": [
        {
          "indexed": true,
          "internalType": "string",
          "name": "recordId",
          "type": "string"
        },
        {
          "indexed": true,
          "internalType": "bytes32",
          "name": "targetIdHash",
          "type": "bytes32"
        },
        {
          "indexed": false,
          "internalType": "string",
          "name": "role",
          "type": "string"
        },
        {
          "indexed": true,
          "internalType": "bytes32",
          "name": "userIdHash",
          "type": "bytes32"
        },
        {
          "indexed": false,
          "internalType": "uint256",
          "name": "timestamp",
          "type": "uint256"
        }
      ],
      "name": "RoleGranted",
      "type": "event"
    },
    {
      "anonymous": false,
      "inputs": [
        {
          "indexed": true,
          "internalType": "string",
          "name": "recordId",
          "type": "string"
        },
        {
          "indexed": true,
          "internalType": "bytes32",
          "name": "targetIdHash",
          "type": "bytes32"
        },
        {
          "indexed": false,
          "internalType": "string",
          "name": "role",
          "type": "string"
        },
        {
          "indexed": true,
          "internalType": "bytes32",
          "name": "userIdHash",
          "type": "bytes32"
        },
        {
          "indexed": false,
          "internalType": "uint256",
          "name": "timestamp",
          "type": "uint256"
        }
      ],
      "name": "RoleRevoked",
      "type": "event"
    },
    {
      "anonymous": false,
      "inputs": [
        {
          "indexed": true,
          "internalType": "address",
          "name": "implementation",
          "type": "address"
        }
      ],
      "name": "Upgraded",
      "type": "event"
    },
    {
      "anonymous": false,
      "inputs": [
        {
          "indexed": true,
          "internalType": "address",
          "name": "wallet",
          "type": "address"
        },
        {
          "indexed": true,
          "internalType": "bytes32",
          "name": "userIdHash",
          "type": "bytes32"
        },
        {
          "indexed": false,
          "internalType": "uint256",
          "name": "timestamp",
          "type": "uint256"
        }
      ],
      "name": "WalletLinked",
      "type": "event"
    },
    {
      "inputs": [],
      "name": "UPGRADE_INTERFACE_VERSION",
      "outputs": [
        {
          "internalType": "string",
          "name": "",
          "type": "string"
        }
      ],
      "stateMutability": "view",
      "type": "function"
    },
    {
      "inputs": [
        {
          "internalType": "address",
          "name": "wallet",
          "type": "address"
        },
        {
          "internalType": "bytes32",
          "name": "userIdHash",
          "type": "bytes32"
        }
      ],
      "name": "addMember",
      "outputs": [],
      "stateMutability": "nonpayable",
      "type": "function"
    },
    {
      "inputs": [],
      "name": "admin",
      "outputs": [
        {
          "internalType": "address",
          "name": "",
          "type": "address"
        }
      ],
      "stateMutability": "view",
      "type": "function"
    },
    {
      "inputs": [
        {
          "internalType": "string",
          "name": "",
          "type": "string"
        },
        {
          "internalType": "uint256",
          "name": "",
          "type": "uint256"
        }
      ],
      "name": "adminsByRecord",
      "outputs": [
        {
          "internalType": "bytes32",
          "name": "",
          "type": "bytes32"
        }
      ],
      "stateMutability": "view",
      "type": "function"
    },
    {
      "inputs": [
        {
          "internalType": "string",
          "name": "recordId",
          "type": "string"
        },
        {
          "internalType": "address",
          "name": "targetWallet",
          "type": "address"
        },
        {
          "internalType": "string",
          "name": "newRole",
          "type": "string"
        }
      ],
      "name": "changeRole",
      "outputs": [],
      "stateMutability": "nonpayable",
      "type": "function"
    },
    {
      "inputs": [
        {
          "internalType": "address",
          "name": "wallet",
          "type": "address"
        }
      ],
      "name": "deactivateWallet",
      "outputs": [],
      "stateMutability": "nonpayable",
      "type": "function"
    },
    {
      "inputs": [],
      "name": "getAllUsers",
      "outputs": [
        {
          "internalType": "bytes32[]",
          "name": "",
          "type": "bytes32[]"
        }
      ],
      "stateMutability": "view",
      "type": "function"
    },
    {
      "inputs": [
        {
          "internalType": "string",
          "name": "recordId",
          "type": "string"
        }
      ],
      "name": "getRecordAdmins",
      "outputs": [
        {
          "internalType": "bytes32[]",
          "name": "",
          "type": "bytes32[]"
        }
      ],
      "stateMutability": "view",
      "type": "function"
    },
    {
      "inputs": [
        {
          "internalType": "string",
          "name": "recordId",
          "type": "string"
        }
      ],
      "name": "getRecordOwners",
      "outputs": [
        {
          "internalType": "bytes32[]",
          "name": "",
          "type": "bytes32[]"
        }
      ],
      "stateMutability": "view",
      "type": "function"
    },
    {
      "inputs": [
        {
          "internalType": "string",
          "name": "recordId",
          "type": "string"
        }
      ],
      "name": "getRecordRoleStats",
      "outputs": [
        {
          "internalType": "uint256",
          "name": "ownerCount",
          "type": "uint256"
        },
        {
          "internalType": "uint256",
          "name": "adminCount",
          "type": "uint256"
        },
        {
          "internalType": "uint256",
          "name": "viewerCount",
          "type": "uint256"
        }
      ],
      "stateMutability": "view",
      "type": "function"
    },
    {
      "inputs": [
        {
          "internalType": "string",
          "name": "recordId",
          "type": "string"
        }
      ],
      "name": "getRecordViewers",
      "outputs": [
        {
          "internalType": "bytes32[]",
          "name": "",
          "type": "bytes32[]"
        }
      ],
      "stateMutability": "view",
      "type": "function"
    },
    {
      "inputs": [
        {
          "internalType": "bytes32",
          "name": "userIdHash",
          "type": "bytes32"
        }
      ],
      "name": "getRecordsByUser",
      "outputs": [
        {
          "internalType": "string[]",
          "name": "",
          "type": "string[]"
        }
      ],
      "stateMutability": "view",
      "type": "function"
    },
    {
      "inputs": [
        {
          "internalType": "string",
          "name": "recordId",
          "type": "string"
        },
        {
          "internalType": "address",
          "name": "wallet",
          "type": "address"
        }
      ],
      "name": "getRoleDetails",
      "outputs": [
        {
          "internalType": "string",
          "name": "role",
          "type": "string"
        },
        {
          "internalType": "bool",
          "name": "isActive",
          "type": "bool"
        }
      ],
      "stateMutability": "view",
      "type": "function"
    },
    {
      "inputs": [
        {
          "internalType": "string",
          "name": "recordId",
          "type": "string"
        },
        {
          "internalType": "bytes32",
          "name": "userIdHash",
          "type": "bytes32"
        }
      ],
      "name": "getRoleDetailsByUser",
      "outputs": [
        {
          "internalType": "string",
          "name": "role",
          "type": "string"
        },
        {
          "internalType": "bool",
          "name": "isActive",
          "type": "bool"
        }
      ],
      "stateMutability": "view",
      "type": "function"
    },
    {
      "inputs": [],
      "name": "getTotalRoles",
      "outputs": [
        {
          "internalType": "uint256",
          "name": "",
          "type": "uint256"
        }
      ],
      "stateMutability": "view",
      "type": "function"
    },
    {
      "inputs": [],
      "name": "getTotalUsers",
      "outputs": [
        {
          "internalType": "uint256",
          "name": "",
          "type": "uint256"
        }
      ],
      "stateMutability": "view",
      "type": "function"
    },
    {
      "inputs": [
        {
          "internalType": "address",
          "name": "wallet",
          "type": "address"
        }
      ],
      "name": "getUserForWallet",
      "outputs": [
        {
          "internalType": "bytes32",
          "name": "",
          "type": "bytes32"
        }
      ],
      "stateMutability": "view",
      "type": "function"
    },
    {
      "inputs": [
        {
          "internalType": "bytes32",
          "name": "userIdHash",
          "type": "bytes32"
        }
      ],
      "name": "getUserStatus",
      "outputs": [
        {
          "internalType": "enum MemberRoleManager.MemberStatus",
          "name": "status",
          "type": "uint8"
        }
      ],
      "stateMutability": "view",
      "type": "function"
    },
    {
      "inputs": [
        {
          "internalType": "bytes32",
          "name": "userIdHash",
          "type": "bytes32"
        }
      ],
      "name": "getWalletsForUser",
      "outputs": [
        {
          "internalType": "address[]",
          "name": "",
          "type": "address[]"
        }
      ],
      "stateMutability": "view",
      "type": "function"
    },
    {
      "inputs": [
        {
          "internalType": "string",
          "name": "recordId",
          "type": "string"
        },
        {
          "internalType": "address",
          "name": "targetWallet",
          "type": "address"
        },
        {
          "internalType": "string",
          "name": "role",
          "type": "string"
        }
      ],
      "name": "grantRole",
      "outputs": [],
      "stateMutability": "nonpayable",
      "type": "function"
    },
    {
      "inputs": [
        {
          "internalType": "string",
          "name": "recordId",
          "type": "string"
        },
        {
          "internalType": "address",
          "name": "wallet",
          "type": "address"
        }
      ],
      "name": "hasActiveRole",
      "outputs": [
        {
          "internalType": "bool",
          "name": "",
          "type": "bool"
        }
      ],
      "stateMutability": "view",
      "type": "function"
    },
    {
      "inputs": [
        {
          "internalType": "string",
          "name": "recordId",
          "type": "string"
        },
        {
          "internalType": "address",
          "name": "wallet",
          "type": "address"
        },
        {
          "internalType": "string",
          "name": "role",
          "type": "string"
        }
      ],
      "name": "hasRole",
      "outputs": [
        {
          "internalType": "bool",
          "name": "",
          "type": "bool"
        }
      ],
      "stateMutability": "view",
      "type": "function"
    },
    {
      "inputs": [],
      "name": "initialize",
      "outputs": [],
      "stateMutability": "nonpayable",
      "type": "function"
    },
    {
      "inputs": [
        {
          "internalType": "string",
          "name": "recordId",
          "type": "string"
        },
        {
          "internalType": "address",
          "name": "targetWallet",
          "type": "address"
        },
        {
          "internalType": "string",
          "name": "role",
          "type": "string"
        }
      ],
      "name": "initializeRecordRole",
      "outputs": [],
      "stateMutability": "nonpayable",
      "type": "function"
    },
    {
      "inputs": [
        {
          "internalType": "address",
          "name": "wallet",
          "type": "address"
        }
      ],
      "name": "isActiveMember",
      "outputs": [
        {
          "internalType": "bool",
          "name": "",
          "type": "bool"
        }
      ],
      "stateMutability": "view",
      "type": "function"
    },
    {
      "inputs": [
        {
          "internalType": "string",
          "name": "recordId",
          "type": "string"
        },
        {
          "internalType": "address",
          "name": "wallet",
          "type": "address"
        }
      ],
      "name": "isOwnerOrAdmin",
      "outputs": [
        {
          "internalType": "bool",
          "name": "",
          "type": "bool"
        }
      ],
      "stateMutability": "view",
      "type": "function"
    },
    {
      "inputs": [
        {
          "internalType": "address",
          "name": "wallet",
          "type": "address"
        }
      ],
      "name": "isVerifiedMember",
      "outputs": [
        {
          "internalType": "bool",
          "name": "",
          "type": "bool"
        }
      ],
      "stateMutability": "view",
      "type": "function"
    },
    {
      "inputs": [
        {
          "internalType": "address",
          "name": "wallet",
          "type": "address"
        }
      ],
      "name": "isVerifiedProvider",
      "outputs": [
        {
          "internalType": "bool",
          "name": "",
          "type": "bool"
        }
      ],
      "stateMutability": "view",
      "type": "function"
    },
    {
      "inputs": [
        {
          "internalType": "string",
          "name": "",
          "type": "string"
        },
        {
          "internalType": "uint256",
          "name": "",
          "type": "uint256"
        }
      ],
      "name": "ownersByRecord",
      "outputs": [
        {
          "internalType": "bytes32",
          "name": "",
          "type": "bytes32"
        }
      ],
      "stateMutability": "view",
      "type": "function"
    },
    {
      "inputs": [],
      "name": "proxiableUUID",
      "outputs": [
        {
          "internalType": "bytes32",
          "name": "",
          "type": "bytes32"
        }
      ],
      "stateMutability": "view",
      "type": "function"
    },
    {
      "inputs": [
        {
          "internalType": "address",
          "name": "wallet",
          "type": "address"
        }
      ],
      "name": "reactivateWallet",
      "outputs": [],
      "stateMutability": "nonpayable",
      "type": "function"
    },
    {
      "inputs": [
        {
          "internalType": "bytes32",
          "name": "",
          "type": "bytes32"
        }
      ],
      "name": "recordRoles",
      "outputs": [
        {
          "internalType": "string",
          "name": "role",
          "type": "string"
        },
        {
          "internalType": "bool",
          "name": "isActive",
          "type": "bool"
        }
      ],
      "stateMutability": "view",
      "type": "function"
    },
    {
      "inputs": [
        {
          "internalType": "bytes32",
          "name": "",
          "type": "bytes32"
        },
        {
          "internalType": "uint256",
          "name": "",
          "type": "uint256"
        }
      ],
      "name": "recordsByUser",
      "outputs": [
        {
          "internalType": "string",
          "name": "",
          "type": "string"
        }
      ],
      "stateMutability": "view",
      "type": "function"
    },
    {
      "inputs": [
        {
          "internalType": "string",
          "name": "recordId",
          "type": "string"
        },
        {
          "internalType": "address",
          "name": "targetWallet",
          "type": "address"
        }
      ],
      "name": "revokeRole",
      "outputs": [],
      "stateMutability": "nonpayable",
      "type": "function"
    },
    {
      "inputs": [
        {
          "internalType": "bytes32",
          "name": "userIdHash",
          "type": "bytes32"
        },
        {
          "internalType": "enum MemberRoleManager.MemberStatus",
          "name": "newStatus",
          "type": "uint8"
        }
      ],
      "name": "setUserStatus",
      "outputs": [],
      "stateMutability": "nonpayable",
      "type": "function"
    },
    {
      "inputs": [],
      "name": "totalRoles",
      "outputs": [
        {
          "internalType": "uint256",
          "name": "",
          "type": "uint256"
        }
      ],
      "stateMutability": "view",
      "type": "function"
    },
    {
      "inputs": [],
      "name": "totalUsers",
      "outputs": [
        {
          "internalType": "uint256",
          "name": "",
          "type": "uint256"
        }
      ],
      "stateMutability": "view",
      "type": "function"
    },
    {
      "inputs": [
        {
          "internalType": "address",
          "name": "newAdmin",
          "type": "address"
        }
      ],
      "name": "transferAdmin",
      "outputs": [],
      "stateMutability": "nonpayable",
      "type": "function"
    },
    {
      "inputs": [
        {
          "internalType": "address",
          "name": "newImplementation",
          "type": "address"
        },
        {
          "internalType": "bytes",
          "name": "data",
          "type": "bytes"
        }
      ],
      "name": "upgradeToAndCall",
      "outputs": [],
      "stateMutability": "payable",
      "type": "function"
    },
    {
      "inputs": [
        {
          "internalType": "uint256",
          "name": "",
          "type": "uint256"
        }
      ],
      "name": "userList",
      "outputs": [
        {
          "internalType": "bytes32",
          "name": "",
          "type": "bytes32"
        }
      ],
      "stateMutability": "view",
      "type": "function"
    },
    {
      "inputs": [
        {
          "internalType": "bytes32",
          "name": "",
          "type": "bytes32"
        }
      ],
      "name": "userStatus",
      "outputs": [
        {
          "internalType": "enum MemberRoleManager.MemberStatus",
          "name": "",
          "type": "uint8"
        }
      ],
      "stateMutability": "view",
      "type": "function"
    },
    {
      "inputs": [
        {
          "internalType": "bytes32",
          "name": "",
          "type": "bytes32"
        },
        {
          "internalType": "uint256",
          "name": "",
          "type": "uint256"
        }
      ],
      "name": "userWallets",
      "outputs": [
        {
          "internalType": "address",
          "name": "",
          "type": "address"
        }
      ],
      "stateMutability": "view",
      "type": "function"
    },
    {
      "inputs": [
        {
          "internalType": "string",
          "name": "",
          "type": "string"
        },
        {
          "internalType": "uint256",
          "name": "",
          "type": "uint256"
        }
      ],
      "name": "viewersByRecord",
      "outputs": [
        {
          "internalType": "bytes32",
          "name": "",
          "type": "bytes32"
        }
      ],
      "stateMutability": "view",
      "type": "function"
    },
    {
      "inputs": [
        {
          "internalType": "string",
          "name": "recordId",
          "type": "string"
        }
      ],
      "name": "voluntarilyLeaveOwnership",
      "outputs": [],
      "stateMutability": "nonpayable",
      "type": "function"
    },
    {
      "inputs": [
        {
          "internalType": "address",
          "name": "",
          "type": "address"
        }
      ],
      "name": "wallets",
      "outputs": [
        {
          "internalType": "bytes32",
          "name": "userIdHash",
          "type": "bytes32"
        },
        {
          "internalType": "bool",
          "name": "isWalletActive",
          "type": "bool"
        }
      ],
      "stateMutability": "view",
      "type": "function"
    }
  ],
  "bytecode": "0x60a08060405234620000d157306080527ff0c57e16840df040f15088dc2f81fe391c3923bec73e23a9662efc9c229c6a009081549060ff8260401c16620000c257506001600160401b036002600160401b0319828216016200007c575b6040516139359081620000d78239608051818181611c350152611d7d0152f35b6001600160401b031990911681179091556040519081527fc7f505b2f371ae2175ee4913f4499e1f2633a7b5936321eed1cdaeb6115181d290602090a13880806200005c565b63f92ee8a960e01b8152600490fd5b600080fdfe608060408181526004918236101561001657600080fd5b600090813560e01c908162b0c8091461283d575080630b3ffd1d146127805780631435b558146127645780631a95aca5146126dc578063259ed80e146126b657806333105592146126785780633575c391146123985780633dd1e8fc1461231057806341d8bde31461226c57806345ecd02f1461224657806349df720814611fc85780634b6feb7c146116815780634f1ef28614611d2b578063510b300314611c9157806352d1902d14611c195780636544b05b14611b295780636b4bed97146102ac578063731f21a01461176a57806375829def146116a0578063790e118c146116815780638129fc1c1461150357806389b08f11146114bd5780639443cd801461147357806396207e02146112f7578063970ee5b9146112c05780639be572f614610d335780639f4216e814611273578063a0ca13c314611257578063ad3cb1cc146111fa578063b55aefcc146111c3578063bb0f86d514611106578063bb20b17214610d52578063bff1f9e114610d33578063cabdd23f14610d17578063cb261a0314610ce8578063d12a776814610c37578063daa9dc2314610657578063e2842d79146105d6578063e965bfb71461057d578063eb2bbf2514610553578063ed8d7b371461035d578063ee4e5828146102de578063f29e007b146102ac578063f851a440146102825763fa7a6bcc1461021257600080fd5b3461027f5761022036612b91565b908252600a602052828220805482101561027b579061023e91612ba7565b939093610269576102658361025286612a09565b9051918291602083526020830190612ad1565b0390f35b9080602492634e487b7160e01b825252fd5b8280fd5b80fd5b5090346102a857816003193601126102a8576001600160a01b0360209254169051908152f35b5080fd5b50913461027b57602036600319011261027b5760ff826020946102dc933581526002865220541691518092612b6e565bf35b50913461027b578160031936011261027b57803567ffffffffffffffff811161035957602093610321610318610265948694369101612933565b6024359061354d565b815260068552209180516103348161288c565b60ff600161034186612a09565b95868452015416151594859101525192839283612af6565b8380fd5b5091903461027b5760208060031936011261035957823567ffffffffffffffff811161054f576103909036908501612933565b61039c81511515612ce2565b3385526001825282852054936103ba6103b3612f31565b8684613588565b156104e75783516103f88460018551938281818901966103db81838a612aae565b810160078152030190205411928751809381928851928391612aae565b8101600881520301902054151581156104df575b501561047757509061046e82610443867f3bb3693064733b9a7d6d41bee69f302fcbefbe827ea4011400530c9ba9cb49c39561354d565b61045561044e612f31565b88846135e8565b875260068352848720600101805460ff19169055612fa3565b9251428152a380f35b6084908385519162461bcd60e51b8352820152603160248201527f43616e6e6f74206c65617665206173206c617374206f776e657220776974682060448201527f6e6f2061646d696e6973747261746f72730000000000000000000000000000006064820152fd5b90503861040c565b6084908385519162461bcd60e51b8352820152602360248201527f596f7520617265206e6f7420616e206f776e6572206f6620746869732072656360448201527f6f726400000000000000000000000000000000000000000000000000000000006064820152fd5b8480fd5b5090346102a8576102659061057061056a36612951565b906130c7565b9290915192839283612af6565b5090346102a8576020916105a761059336612bd5565b949081855193828580945193849201612aae565b8101600881520301902090815484101561027f57506020926105c891612ba7565b91905490519160031b1c8152f35b5090346102a857816003193601126102a8578051918284549081815260208091019583527f8a35acfbc15ff81a39ae7d344fd709f28e8600b4aa8c65c6b64bfe7fe36bd19b92905b828210610640576102658686610636828b03836128be565b5191829182612993565b83548752958601956001938401939091019061061e565b50913461027b576001600160a01b039061067036612b16565b929193906106856106803361322d565b613013565b61069185511515612ce2565b169361069e851515612e2a565b6106af6106aa846131d5565b612d78565b3386526020600181528187205495875281872054946106cf861515612e75565b845182860120936106e0878361354d565b808a52600684526106f960ff6001878d20015416612ec0565b89526006835261070a848a20612a09565b94855184870120818114610bf557610720612f31565b8581519101208114610b6757855191845192868181880195610743818389612aae565b810160078152030190205415918b8315610778610768610761612f31565b848b613588565b92610771612f6a565b908a613588565b90610781612f31565b8051908b0120850361098b571561091d5750156108dc575b6107a1612f6a565b8781519101201490816108c5575b50610824575b505050916108187fea2c9ebe68919ddf880b3221d8d508d908163d0973e8b79df108f5d110d0c63394926107f7856107f28b8a8c61080b9a6133a9565b612fa3565b968351958695606087526060870190612ad1565b9185830390860152612ad1565b9042908301520390a480f35b61082f575b806107b5565b610846846001928751809381928851928391612aae565b8101600881520301902054111561085d5780610829565b6084908385519162461bcd60e51b8352820152603960248201527f43616e6e6f742064656d6f746520746865206c6173742061646d696e6973747260448201527f61746f72207768656e206e6f206f776e657220657869737473000000000000006064820152fd5b90506108cf61305e565b86815191012014386107af565b60648588808b519262461bcd60e51b845283015260248201527f4f6e6c79206f776e6572732063616e2070726f6d6f746520746f206f776e65726044820152fd5b905061079957608485888a519162461bcd60e51b8352820152602b60248201527f4f6e6c792061646d696e6973747261746f72732063616e2070726f6d6f74652060448201527f6669727374206f776e65720000000000000000000000000000000000000000006064820152fd5b610993612f6a565b8051908b01208503610a1c57508115610a14575b5061079957608485888a519162461bcd60e51b8352820152603b60248201527f4f6e6c79206f776e65727320616e642061646d696e6973747261746f7273206360448201527f616e2070726f6d6f746520746f2061646d696e6973747261746f7200000000006064820152fd5b9050386109a7565b610a2461305e565b8a81519101208514610a39575b505050610799565b15610af9578115610ae2575b5015610a54575b388080610a31565b60a485888a519162461bcd60e51b8352820152604960248201527f4f6e6c79206f776e6572732063616e2064656d6f7465206f74686572732e204160448201527f646d696e6973747261746f72732063616e206f6e6c792064656d6f746520746860648201527f656d73656c7665732e00000000000000000000000000000000000000000000006084820152fd5b905080610af0575b38610a45565b508a8c14610aea565b9050610a4c57608485888a519162461bcd60e51b8352820152602860248201527f4f6e6c792061646d696e6973747261746f72732063616e2064656d6f7465207460448201527f6f207669657765720000000000000000000000000000000000000000000000006064820152fd5b60a4838688519162461bcd60e51b8352820152604360248201527f4f776e6572732063616e6e6f742062652064656d6f7465642e204f776e65722060448201527f6d75737420766f6c756e746172696c792072656d6f7665207468656d73656c7660648201527f65732e00000000000000000000000000000000000000000000000000000000006084820152fd5b6064838688519162461bcd60e51b8352820152601c60248201527f54617267657420616c726561647920686173207468697320726f6c65000000006044820152fd5b5082903461027f57602091826003193601126102a85792919235815260038352818120908251808584549182815201908194845286842090845b818110610ccb5750505081610c879103826128be565b83519485948186019282875251809352850193925b828110610cab57505050500390f35b83516001600160a01b031685528695509381019392810192600101610c9c565b82546001600160a01b031684529288019260019283019201610c71565b5090346102a85760203660031901126102a857602090610d0e610d09612871565b6136b0565b90519015158152f35b5090346102a857602090610d0e610d2d36612b16565b91613097565b5090346102a857816003193601126102a8576020906005549051908152f35b5082346102a8576001600160a01b0390610d6b36612b16565b92919390610d7b6106803361322d565b610d8785511515612ce2565b1692610d94841515612e2a565b610da06106aa846131d5565b33855260209160018352868620549486528686205492610dc1841515612e75565b845181860120610dd1878561354d565b88526006825260ff60018a8a20015416156110c557885182818651610df98183858b01612aae565b8101600781520301902054151590610e19610e12612f31565b8987613588565b91610e2c610e25612f6a565b8a88613588565b91610e35612f31565b8051908601208103610f93575015610f25575015610ee4575b610e58848461354d565b87526006815260ff6001898920015416610e7c575050610e799495506133a9565b80f35b6084925087519162461bcd60e51b8352820152603360248201527f54617267657420616c726561647920686173206120726f6c652e20557365206360448201527f68616e6765526f6c65282920696e7374656164000000000000000000000000006064820152fd5b606492508088519262461bcd60e51b845283015260248201527f4f6e6c79206f776e6572732063616e206772616e74206f776e657220726f6c656044820152fd5b9050610e4e576084925087519162461bcd60e51b8352820152602960248201527f4f6e6c792061646d696e6973747261746f72732063616e206772616e7420666960448201527f727374206f776e657200000000000000000000000000000000000000000000006064820152fd5b9050610f9d612f6a565b80519085012081036110265750811561101e575b50610e4e576084925087519162461bcd60e51b8352820152603b60248201527f4f6e6c79206f776e65727320616e642061646d696e6973747261746f7273206360448201527f616e206772616e742061646d696e6973747261746f7220726f6c6500000000006064820152fd5b905089610fb1565b61102e61305e565b84815191012014611041575b5050610e4e565b81156110bd575b501561105557888061103a565b6084925087519162461bcd60e51b8352820152603460248201527f4f6e6c79206f776e65727320616e642061646d696e6973747261746f7273206360448201527f616e206772616e742076696577657220726f6c650000000000000000000000006064820152fd5b905089611048565b60648383808c519262461bcd60e51b845283015260248201527f596f752068617665206e6f20726f6c6520666f722074686973207265636f72646044820152fd5b5091903461027b57602036600319011261027b57611122612871565b6001600160a01b0390611139828654163314612c07565b1680845260019283602052611152838620541515612c52565b8185528360205260ff8484872001541661118057508352602082905282208101805460ff1916909117905580f35b606490602084519162461bcd60e51b8352820152601560248201527f57616c6c657420616c72656164792061637469766500000000000000000000006044820152fd5b5090346102a8576020916111d961059336612bd5565b8101600981520301902090815484101561027f57506020926105c891612ba7565b5090346102a857816003193601126102a85780516102659161121b8261288c565b600582527f352e302e30000000000000000000000000000000000000000000000000000000602083015251918291602083526020830190612ad1565b5090346102a857602090610d0e61126d36612951565b90612fc3565b50913461027b57602036600319011261027b57803590805482101561035957602093527f8a35acfbc15ff81a39ae7d344fd709f28e8600b4aa8c65c6b64bfe7fe36bd19b01549051908152f35b5090346102a8576020916112d661059336612bd5565b8101600781520301902090815484101561027f57506020926105c891612ba7565b5091903461027b578060031936011261027b57813590602435600581101561054f5761132e6001600160a01b038654163314612c07565b82855260206002815260ff83872054166005811015611460571561141e578386526002815260ff838720541694600586101561140b578286146113ca57509061139c918487526002815283872060ff1981541660ff841617905561139484518097612b6e565b850190612b6e565b42908301527ff6277c6ee46649823db9a5c531db3112b4340c67179cae1932ba3420dcc37cc760603393a380f35b60649184519162461bcd60e51b8352820152601360248201527f416c7265616479207468697320737461747573000000000000000000000000006044820152fd5b866021602492634e487b7160e01b835252fd5b8460649184519162461bcd60e51b8352820152601360248201527f55736572206e6f742072656769737465726564000000000000000000000000006044820152fd5b602487602188634e487b7160e01b835252fd5b5090346102a85761148336612b91565b92908152600360205281812090815484101561027f57506114ae6020936001600160a01b0392612ba7565b90549060031b1c169051908152f35b5090346102a85760203660031901126102a85780916001600160a01b036114e2612871565b16815260016020522060ff6001825492015416825191825215156020820152f35b50913461027b578260031936011261027b577ff0c57e16840df040f15088dc2f81fe391c3923bec73e23a9662efc9c229c6a0091825460ff81831c16159067ffffffffffffffff811680159081611679575b600114908161166f575b159081611666575b5061163e5767ffffffffffffffff19811660011785558161161f575b5083549260ff84841c16156115f857503373ffffffffffffffffffffffffffffffffffffffff198654161785556115b8578380f35b7fc7f505b2f371ae2175ee4913f4499e1f2633a7b5936321eed1cdaeb6115181d29260209268ff0000000000000000191690555160018152a13880808380f35b82517fd7e6bcf8000000000000000000000000000000000000000000000000000000008152fd5b68ffffffffffffffffff19166801000000000000000117845538611583565b5050517ff92ee8a9000000000000000000000000000000000000000000000000000000008152fd5b90501538611567565b303b15915061155f565b839150611555565b5090346102a857816003193601126102a857602090600b549051908152f35b5082346102a85760203660031901126102a8576116bb612871565b8254906001600160a01b03808316916116d5833314612c07565b169283156117275750908273ffffffffffffffffffffffffffffffffffffffff19927f38df5fa0f7fef0d515ca1f5388cb5790ac5885d5fca8d05d9f943e563c33a4b360208851428152a31617815580f35b606490602087519162461bcd60e51b8352820152600f60248201527f496e76616c6964206164647265737300000000000000000000000000000000006044820152fd5b5091903461027b576001600160a01b039061178436612951565b611792829492511515612ce2565b169261179f841515612e2a565b338552602091600183528086205494865280862054936117c0851515612e75565b6117ca858261354d565b808852600685526117e360ff6001858b20015416612ec0565b808852600685526117f5838920612a09565b93845186860120611804612f31565b8781519101208114611a9b5787890361194f575b611820612f6a565b8781519101201461188d575b50816118799161186086897f938e21a28464db5f9b9e24d1a58e038899de364f69dba20c154ee6fd4cd86def9897966135e8565b895260068652828920600101805460ff19169055612fa3565b936108188251938385948552840190612ad1565b83516118c68760018651938281818a01966118a981838a612aae565b810160088152030190205411928751809381928951928391612aae565b810160078152030190205415158115611947575b5061182c576084908685519162461bcd60e51b8352820152603960248201527f43616e6e6f74207265766f6b65206c6173742061646d696e6973747261746f7260448201527f20776974686f757420616e206f776e65722070726573656e74000000000000006064820152fd5b9050386118da565b61196161195a612f31565b8a86613588565b8015611a8a575b15611a225761197861195a612f31565b15611983575b611818565b61198b612f6a565b8781519101208103611818578451878186516119aa8183858b01612aae565b81016007815203019020541561197e576084828887519162461bcd60e51b8352820152602560248201527f4f6e6c79206f776e6572732063616e207265766f6b652061646d696e6973747260448201527f61746f72730000000000000000000000000000000000000000000000000000006064820152fd5b6084828887519162461bcd60e51b8352820152602f60248201527f4f6e6c79206f776e65727320616e642061646d696e6973747261746f7273206360448201527f616e207265766f6b6520726f6c657300000000000000000000000000000000006064820152fd5b50611a9661195a612f6a565b611968565b60a4828887519162461bcd60e51b8352820152604560248201527f4f776e6572732063616e6e6f74206265207265766f6b65642e204f776e65722060448201527f6d7573742075736520766f6c756e746172696c794c656176654f776e6572736860648201527f697028292e0000000000000000000000000000000000000000000000000000006084820152fd5b5082346102a8576020908160031936011261027b5780358352600a82528383209182549167ffffffffffffffff8311611c0657509290845190611b71858260051b01836128be565b8082528482018094845285842084915b838310611be257505050508451938085019181865251809252858501958260051b8601019392955b828710611bb65785850386f35b909192938280611bd2600193603f198a82030186528851612ad1565b9601920196019592919092611ba9565b6001888192611bf4859b98999b612a09565b81520192019201919096949396611b81565b846041602492634e487b7160e01b835252fd5b503461027f578060031936011261027f57506001600160a01b037f0000000000000000000000000000000000000000000000000000000000000000163003611c8457602090517f360894a13ba1a3210667c828492db98dca3e2076cc3735a920a3ca505d382bbc8152f35b5163703e46dd60e11b8152fd5b5091903461027b57602091826003193601126103595780359067ffffffffffffffff821161054f57611cca8491611cdc93369101612933565b81845193828580945193849201612aae565b810160098152030190209281518093808654928381520195835280832092905b828210611d14576102658686610636828b03836128be565b835487529586019560019384019390910190611cfc565b5091908060031936011261027b57611d41612871565b9060243567ffffffffffffffff811161054f573660238201121561054f57611d7290369060248187013591016128fc565b6001600160a01b03807f000000000000000000000000000000000000000000000000000000000000000016803014908115611f9a575b50611f8b57611dbb818754163314612c07565b8316928251907f52d1902d00000000000000000000000000000000000000000000000000000000825260209182818881895afa889181611f58575b50611e115760248787875191634c9c8ce360e01b8352820152fd5b7f360894a13ba1a3210667c828492db98dca3e2076cc3735a920a3ca505d382bbc96929591939690818103611f295750833b15611f1357805473ffffffffffffffffffffffffffffffffffffffff19168217905583518792917fbc7cd75a20ee27fd9adebab32041f755214dbc6bffa90cc0225b39da2e5c2d3b8480a2865115611edd575050808585611ecf97519101845af4913d15611ed3573d611ec1611eb8826128e0565b925192836128be565b81528581943d92013e61386c565b5080f35b506060925061386c565b9450945050505034611eee57505080f35b7fb398979f000000000000000000000000000000000000000000000000000000008152fd5b60248383875191634c9c8ce360e01b8352820152fd5b836024918751917faa1d49a4000000000000000000000000000000000000000000000000000000008352820152fd5b9091508381813d8311611f84575b611f7081836128be565b81010312611f8057519038611df6565b8880fd5b503d611f66565b84835163703e46dd60e11b8152fd5b9050817f360894a13ba1a3210667c828492db98dca3e2076cc3735a920a3ca505d382bbc5416141538611da8565b50913461027b578160031936011261027b57611fe2612871565b916024908135936001600160a01b038091612001828954163314612c07565b169361200e851515612d2d565b851561220457848752600193602094808652848920546121c35761206385516120368161288c565b898152828882018181528a8d52818a52888d209251835551151591019060ff801983541691151516179055565b878952600386528489209384546801000000000000000095868210156121b15790612092918482018155612ba7565b819291549060031b918a831b921b19161790558789526002865260ff858a205416600581101561219f576121705787895260028652848920600260ff1982541617905582549384101561215e57830180835583101561214d57507f39d132591ee0696de49ab564e4a90e430c006561917db731a2a614dd2d245591939291869188527f8a35acfbc15ff81a39ae7d344fd709f28e8600b4aa8c65c6b64bfe7fe36bd19b0155612142600554612e05565b60055551428152a380f35b87603283634e487b7160e01b835252fd5b5087604183634e487b7160e01b835252fd5b50505050907f1cc138f50384be7770a8e4a34eecaa0d0c718bfaa1641af49db32532e4a5b9109151428152a380f35b828a602186634e487b7160e01b835252fd5b848c604188634e487b7160e01b835252fd5b6064836019848989519362461bcd60e51b85528401528201527f57616c6c657420616c72656164792072656769737465726564000000000000006044820152fd5b606490601485602086519362461bcd60e51b85528401528201527f496e76616c6964207573657220494420686173680000000000000000000000006044820152fd5b5090346102a85760203660031901126102a857602090610d0e612267612871565b61322d565b503461027f576020908160031936011261027f5783359067ffffffffffffffff821161027f57506060936122a291369101612933565b918051926122f7838251958181818601986122be81838c612aae565b8101600781520301902054958451828186516122db818387612aae565b8101600881520301902054938551938492839251928391612aae565b8101600981520301902054928251948552840152820152f35b5091903461027b57602091826003193601126103595780359067ffffffffffffffff821161054f57611cca849161234993369101612933565b810160088152030190209281518093808654928381520195835280832092905b828210612381576102658686610636828b03836128be565b835487529586019560019384019390910190612369565b5082346102a8576123a836612b16565b909291946001600160a01b036123c2818754163314612c07565b6123ce87511515612ce2565b84166123db811515612d2d565b6123e76106aa846131d5565b8552602092600184526124038287205495612267871515612c52565b15612637578151848851918181818c019461241f818388612aae565b810160078152030190205415918261260f575b5050156125ce57612443858861354d565b8087526006855286856124a8866001878520956124928961246389612a09565b97600660ff868b51159c0154169883519761247d8961288c565b88528088019587875283525220935184613296565b51151591019060ff801983541691151516179055565b61258f57506124b884878a613709565b6124eb575b50907f2a27f0a20e4df4738f3a8e2449b014d439e7ce0a97ee5860771c25cbafa1cfeb916118798697612fa3565b95848652600a84528186208054906801000000000000000082101561257c579061251a91600182018155612ba7565b61256a57869750816125527f2a27f0a20e4df4738f3a8e2449b014d439e7ce0a97ee5860771c25cbafa1cfeb95949361187993613296565b61255d600b54612e05565b600b5597505090916124bd565b602487808a634e487b7160e01b825252fd5b60248860418b634e487b7160e01b835252fd5b96979395949250505084518186012090845190850120036125b2575b5050505080f35b6125c06125c59483836135e8565b613709565b818080806125ab565b83606492519162461bcd60e51b8352820152601a60248201527f5265636f726420616c726561647920696e697469616c697a65640000000000006044820152fd5b61262492508451809381928c51928391612aae565b8101600881520301902054158489612432565b83606492519162461bcd60e51b8352820152601860248201527f4d75737420626520616e20616374697665206d656d62657200000000000000006044820152fd5b50913461027b57602036600319011261027b5791819235815260066020522061026560ff60016126a784612a09565b93015416925192839283612af6565b5090346102a85760203660031901126102a857602090610d0e6126d7612871565b613164565b5091903461027b57602091826003193601126103595780359067ffffffffffffffff821161054f57611cca849161271593369101612933565b810160078152030190209281518093808654928381520195835280832092905b82821061274d576102658686610636828b03836128be565b835487529586019560019384019390910190612735565b5090346102a857602090610d0e61277a36612951565b90612c9d565b50913461027b57602036600319011261027b5761279b612871565b6001600160a01b03906127b2828654163314612c07565b169081845260016020526127ca838520541515612c52565b818452600160205260ff6001848620015416156127fa575082526001602081905290822001805460ff1916905580f35b606490602084519162461bcd60e51b8352820152601760248201527f57616c6c657420616c726561647920696e6163746976650000000000000000006044820152fd5b9050823461027b57602036600319011261027b576020926001600160a01b03612864612871565b1681526001845220548152f35b600435906001600160a01b038216820361288757565b600080fd5b6040810190811067ffffffffffffffff8211176128a857604052565b634e487b7160e01b600052604160045260246000fd5b90601f8019910116810190811067ffffffffffffffff8211176128a857604052565b67ffffffffffffffff81116128a857601f01601f191660200190565b929192612908826128e0565b9161291660405193846128be565b829481845281830111612887578281602093846000960137010152565b9080601f830112156128875781602061294e933591016128fc565b90565b6040600319820112612887576004359067ffffffffffffffff82116128875761297c91600401612933565b906024356001600160a01b03811681036128875790565b602090602060408183019282815285518094520193019160005b8281106129bb575050505090565b8351855293810193928101926001016129ad565b90600182811c921680156129ff575b60208310146129e957565b634e487b7160e01b600052602260045260246000fd5b91607f16916129de565b90604051918260008254612a1c816129cf565b90818452602094600191600181169081600014612a8c5750600114612a4d575b505050612a4b925003836128be565b565b600090815285812095935091905b818310612a74575050612a4b9350820101388080612a3c565b85548884018501529485019487945091830191612a5b565b92505050612a4b94925060ff191682840152151560051b820101388080612a3c565b60005b838110612ac15750506000910152565b8181015183820152602001612ab1565b90602091612aea81518092818552858086019101612aae565b601f01601f1916010190565b90612b0e602091949394604084526040840190612ad1565b931515910152565b60606003198201126128875767ffffffffffffffff916004358381116128875782612b4391600401612933565b926024356001600160a01b038116810361288757926044359182116128875761294e91600401612933565b906005821015612b7b5752565b634e487b7160e01b600052602160045260246000fd5b6040906003190112612887576004359060243590565b8054821015612bbf5760005260206000200190600090565b634e487b7160e01b600052603260045260246000fd5b6040600319820112612887576004359067ffffffffffffffff821161288757612c0091600401612933565b9060243590565b15612c0e57565b606460405162461bcd60e51b815260206004820152600a60248201527f4f6e6c792061646d696e000000000000000000000000000000000000000000006044820152fd5b15612c5957565b606460405162461bcd60e51b815260206004820152601560248201527f57616c6c6574206e6f74207265676973746572656400000000000000000000006044820152fd5b906001600160a01b031660005260016020526040600020548015612cdb57612cc49161354d565b600052600660205260ff6001604060002001541690565b5050600090565b15612ce957565b606460405162461bcd60e51b815260206004820152601960248201527f5265636f72642049442063616e6e6f7420626520656d707479000000000000006044820152fd5b15612d3457565b606460405162461bcd60e51b815260206004820152601660248201527f496e76616c69642077616c6c65742061646472657373000000000000000000006044820152fd5b15612d7f57565b606460405162461bcd60e51b815260206004820152601360248201527f496e76616c696420726f6c6520737472696e67000000000000000000000000006044820152fd5b805490680100000000000000008210156128a85781612dea916001612e0194018155612ba7565b819391549060031b91821b91600019901b19161790565b9055565b6000198114612e145760010190565b634e487b7160e01b600052601160045260246000fd5b15612e3157565b606460405162461bcd60e51b815260206004820152601d60248201527f57616c6c657420616464726573732063616e6e6f74206265207a65726f0000006044820152fd5b15612e7c57565b606460405162461bcd60e51b815260206004820152601c60248201527f5461726765742077616c6c6574206e6f742072656769737465726564000000006044820152fd5b15612ec757565b608460405162461bcd60e51b815260206004820152602360248201527f54617267657420646f6573206e6f74206861766520616e20616374697665207260448201527f6f6c6500000000000000000000000000000000000000000000000000000000006064820152fd5b60405190612f3e8261288c565b600582527f6f776e65720000000000000000000000000000000000000000000000000000006020830152565b60405190612f778261288c565b600d82527f61646d696e6973747261746f72000000000000000000000000000000000000006020830152565b612fbb90602060405192828480945193849201612aae565b810103902090565b906001600160a01b03166000526001602052604060002054908115612cdb57612ff4612fed612f31565b8383613588565b91821561300057505090565b61294e925061300d612f6a565b91613588565b1561301a57565b606460405162461bcd60e51b815260206004820152601460248201527f4e6f7420616e20616374697665206d656d6265720000000000000000000000006044820152fd5b6040519061306b8261288c565b600682527f76696577657200000000000000000000000000000000000000000000000000006020830152565b91906001600160a01b0316600052600160205260406000205480156130bf5761294e92613588565b505050600090565b9190916001600160a01b036000931683526001602052604083205490811561312a57926130f860409260209561354d565b8152600684522060405161310b8161288c565b60ff600161311884612a09565b93848452015416151593849101529190565b50506040516020810181811067ffffffffffffffff821117613150576040528281529190565b602484634e487b7160e01b81526041600452fd5b6001600160a01b0360009116815260016020526040812080549081159081156131c5575b506131c1578152600260205260ff6040822054169060058210156131ad575060041490565b80634e487b7160e01b602492526021600452fd5b5090565b60ff915060010154161538613188565b602081519101206131e4612f31565b602081519101208114908115613214575b81156131ff575090565b905061320961305e565b602081519101201490565b905061321e612f6a565b602081519101208114906131f5565b6001600160a01b036000911681526001602052604081208054908115908115613286575b506131c1578152600260205260ff6040822054169060058210156131ad57506001811415908161327f575090565b9050151590565b60ff915060010154161538613251565b919091825167ffffffffffffffff81116128a8576132b482546129cf565b601f811161335f575b50602080601f83116001146132fa5750819293946000926132ef575b50508160011b916000199060031b1c1916179055565b0151905038806132d9565b90601f19831695846000526020600020926000905b8882106133475750508360019596971061332e575b505050811b019055565b015160001960f88460031b161c19169055388080613324565b8060018596829496860151815501950193019061330f565b6000836000526020600020601f840160051c8101926020851061339f575b601f0160051c01915b8281106133945750506132bd565b818155600101613386565b909250829061337d565b90916133b5838361354d565b60009281845260209360068552604092838220906133d282612a09565b9061340e60ff6001845115950154169160018851916133f08361288c565b8a83528b830190828252885260068c526124928a8920935184613296565b613514575061341e858885613709565b61346f575b50906134507f2a27f0a20e4df4738f3a8e2449b014d439e7ce0a97ee5860771c25cbafa1cfeb9392612fa3565b936134648251938385948552840190612ad1565b9042908301520390a4565b858152600a855282812080549068010000000000000000821015613500579061349d91600182018155612ba7565b9190916134ed5750816134d67f2a27f0a20e4df4738f3a8e2449b014d439e7ce0a97ee5860771c25cbafa1cfeb95949361345093613296565b6134e1600b54612e05565b600b5591929350613423565b80634e487b7160e01b6024925280600452fd5b602483634e487b7160e01b81526041600452fd5b9750505091939290508451818601209084519085012003613536575b50505050565b6125c06135449483836135e8565b38808080613530565b90613582604080518093602061356c8184019788815193849201612aae565b82019060208201520360208101845201826128be565b51902090565b602092916135959161354d565b6000526006825260406000206040516135ad8161288c565b60ff60016135ba84612a09565b9384845201541615159384910152826135d257505090565b9091506020815191012090602081519101201490565b82516020809401206135f8612f31565b805190850120810361362f57508261362091612a4b9460405193828580945193849201612aae565b810160078152030190206137d1565b613637612f6a565b805190850120810361366e57508261365f91612a4b9460405193828580945193849201612aae565b810160088152030190206137d1565b61367661305e565b8481519101201461368657505050565b826136a191612a4b9460405193828580945193849201612aae565b810160098152030190206137d1565b6001600160a01b0360009116815260016020526040812080549081159081156136f9575b506131c1578152600260205260ff6040822054169060058210156131ad575060031490565b60ff9150600101541615386136d4565b8251602080940120613719612f31565b805190850120810361375057508261374191612a4b9460405193828580945193849201612aae565b81016007815203019020612dc3565b613758612f6a565b805190850120810361378f57508261378091612a4b9460405193828580945193849201612aae565b81016008815203019020612dc3565b61379761305e565b848151910120146137a757505050565b826137c291612a4b9460405193828580945193849201612aae565b81016009815203019020612dc3565b60005b815490818110156135305783916137eb8285612ba7565b959054600396871b1c1461380557509092506001016137d4565b6000199250828101908111612e1457612dea6138246138319286612ba7565b905490871b1c9285612ba7565b905581548015613856578101926138488484612ba7565b81939154921b1b1916905555565b634e487b7160e01b600052603160045260246000fd5b906138ab575080511561388157805190602001fd5b60046040517f1425ea42000000000000000000000000000000000000000000000000000000008152fd5b815115806138f6575b6138bc575090565b6024906001600160a01b03604051917f9996b315000000000000000000000000000000000000000000000000000000008352166004820152fd5b50803b156138b456fea264697066735822122098602cbf63996c5a26b3e8831a6852a152a9e1a5a0bb5b6e611d0e325dcaf11964736f6c63430008170033",
  "linkReferences": {},
  "deployedLinkReferences": {}
}