{
  "_format": "hh-sol-artifact-1",
  "contractName": "MemberRoleManager",
  "sourceName": "contracts/MemberRoleManager.sol",
  "abi": [
    {
      "inputs": [],
      "stateMutability": "nonpayable",
      "type": "constructor"
    },
    {
      "inputs": [
        {
          "internalType": "address",
          "name": "target",
          "type": "address"
        }
      ],
      "name": "AddressEmptyCode",
      "type": "error"
    },
    {
      "inputs": [
        {
          "internalType": "address",
          "name": "implementation",
          "type": "address"
        }
      ],
      "name": "ERC1967InvalidImplementation",
      "type": "error"
    },
    {
      "inputs": [],
      "name": "ERC1967NonPayable",
      "type": "error"
    },
    {
      "inputs": [],
      "name": "FailedInnerCall",
      "type": "error"
    },
    {
      "inputs": [],
      "name": "InvalidInitialization",
      "type": "error"
    },
    {
      "inputs": [],
      "name": "NotInitializing",
      "type": "error"
    },
    {
      "inputs": [],
      "name": "UUPSUnauthorizedCallContext",
      "type": "error"
    },
    {
      "inputs": [
        {
          "internalType": "bytes32",
          "name": "slot",
          "type": "bytes32"
        }
      ],
      "name": "UUPSUnsupportedProxiableUUID",
      "type": "error"
    },
    {
      "anonymous": false,
      "inputs": [
        {
          "indexed": true,
          "internalType": "address",
          "name": "oldAdmin",
          "type": "address"
        },
        {
          "indexed": true,
          "internalType": "address",
          "name": "newAdmin",
          "type": "address"
        },
        {
          "indexed": false,
          "internalType": "uint256",
          "name": "timestamp",
          "type": "uint256"
        }
      ],
      "name": "AdminTransferred",
      "type": "event"
    },
    {
      "anonymous": false,
      "inputs": [
        {
          "indexed": false,
          "internalType": "uint64",
          "name": "version",
          "type": "uint64"
        }
      ],
      "name": "Initialized",
      "type": "event"
    },
    {
      "anonymous": false,
      "inputs": [
        {
          "indexed": true,
          "internalType": "address",
          "name": "wallet",
          "type": "address"
        },
        {
          "indexed": true,
          "internalType": "bytes32",
          "name": "userIdHash",
          "type": "bytes32"
        },
        {
          "indexed": false,
          "internalType": "uint256",
          "name": "timestamp",
          "type": "uint256"
        }
      ],
      "name": "MemberRegistered",
      "type": "event"
    },
    {
      "anonymous": false,
      "inputs": [
        {
          "indexed": true,
          "internalType": "bytes32",
          "name": "userIdHash",
          "type": "bytes32"
        },
        {
          "indexed": false,
          "internalType": "enum MemberRoleManager.MemberStatus",
          "name": "oldStatus",
          "type": "uint8"
        },
        {
          "indexed": false,
          "internalType": "enum MemberRoleManager.MemberStatus",
          "name": "newStatus",
          "type": "uint8"
        },
        {
          "indexed": true,
          "internalType": "address",
          "name": "changedBy",
          "type": "address"
        },
        {
          "indexed": false,
          "internalType": "uint256",
          "name": "timestamp",
          "type": "uint256"
        }
      ],
      "name": "MemberStatusChanged",
      "type": "event"
    },
    {
      "anonymous": false,
      "inputs": [
        {
          "indexed": true,
          "internalType": "string",
          "name": "recordId",
          "type": "string"
        },
        {
          "indexed": true,
          "internalType": "bytes32",
          "name": "userIdHash",
          "type": "bytes32"
        },
        {
          "indexed": false,
          "internalType": "uint256",
          "name": "timestamp",
          "type": "uint256"
        }
      ],
      "name": "OwnershipVoluntarilyLeft",
      "type": "event"
    },
    {
      "anonymous": false,
      "inputs": [
        {
          "indexed": true,
          "internalType": "string",
          "name": "recordId",
          "type": "string"
        },
        {
          "indexed": true,
          "internalType": "bytes32",
          "name": "targetIdHash",
          "type": "bytes32"
        },
        {
          "indexed": false,
          "internalType": "string",
          "name": "oldRole",
          "type": "string"
        },
        {
          "indexed": false,
          "internalType": "string",
          "name": "newRole",
          "type": "string"
        },
        {
          "indexed": true,
          "internalType": "bytes32",
          "name": "userIdHash",
          "type": "bytes32"
        },
        {
          "indexed": false,
          "internalType": "uint256",
          "name": "timestamp",
          "type": "uint256"
        }
      ],
      "name": "RoleChanged",
      "type": "event"
    },
    {
      "anonymous": false,
      "inputs": [
        {
          "indexed": true,
          "internalType": "string",
          "name": "recordId",
          "type": "string"
        },
        {
          "indexed": true,
          "internalType": "bytes32",
          "name": "targetIdHash",
          "type": "bytes32"
        },
        {
          "indexed": false,
          "internalType": "string",
          "name": "role",
          "type": "string"
        },
        {
          "indexed": true,
          "internalType": "bytes32",
          "name": "userIdHash",
          "type": "bytes32"
        },
        {
          "indexed": false,
          "internalType": "uint256",
          "name": "timestamp",
          "type": "uint256"
        }
      ],
      "name": "RoleGranted",
      "type": "event"
    },
    {
      "anonymous": false,
      "inputs": [
        {
          "indexed": true,
          "internalType": "string",
          "name": "recordId",
          "type": "string"
        },
        {
          "indexed": true,
          "internalType": "bytes32",
          "name": "targetIdHash",
          "type": "bytes32"
        },
        {
          "indexed": false,
          "internalType": "string",
          "name": "role",
          "type": "string"
        },
        {
          "indexed": true,
          "internalType": "bytes32",
          "name": "userIdHash",
          "type": "bytes32"
        },
        {
          "indexed": false,
          "internalType": "uint256",
          "name": "timestamp",
          "type": "uint256"
        }
      ],
      "name": "RoleRevoked",
      "type": "event"
    },
    {
      "anonymous": false,
      "inputs": [
        {
          "indexed": true,
          "internalType": "address",
          "name": "implementation",
          "type": "address"
        }
      ],
      "name": "Upgraded",
      "type": "event"
    },
    {
      "anonymous": false,
      "inputs": [
        {
          "indexed": true,
          "internalType": "address",
          "name": "wallet",
          "type": "address"
        },
        {
          "indexed": true,
          "internalType": "bytes32",
          "name": "userIdHash",
          "type": "bytes32"
        },
        {
          "indexed": false,
          "internalType": "uint256",
          "name": "timestamp",
          "type": "uint256"
        }
      ],
      "name": "WalletLinked",
      "type": "event"
    },
    {
      "inputs": [],
      "name": "UPGRADE_INTERFACE_VERSION",
      "outputs": [
        {
          "internalType": "string",
          "name": "",
          "type": "string"
        }
      ],
      "stateMutability": "view",
      "type": "function"
    },
    {
      "inputs": [
        {
          "internalType": "address",
          "name": "wallet",
          "type": "address"
        },
        {
          "internalType": "bytes32",
          "name": "userIdHash",
          "type": "bytes32"
        }
      ],
      "name": "addMember",
      "outputs": [],
      "stateMutability": "nonpayable",
      "type": "function"
    },
    {
      "inputs": [],
      "name": "admin",
      "outputs": [
        {
          "internalType": "address",
          "name": "",
          "type": "address"
        }
      ],
      "stateMutability": "view",
      "type": "function"
    },
    {
      "inputs": [
        {
          "internalType": "string",
          "name": "",
          "type": "string"
        },
        {
          "internalType": "uint256",
          "name": "",
          "type": "uint256"
        }
      ],
      "name": "adminsByRecord",
      "outputs": [
        {
          "internalType": "bytes32",
          "name": "",
          "type": "bytes32"
        }
      ],
      "stateMutability": "view",
      "type": "function"
    },
    {
      "inputs": [
        {
          "internalType": "string",
          "name": "recordId",
          "type": "string"
        },
        {
          "internalType": "address",
          "name": "targetWallet",
          "type": "address"
        },
        {
          "internalType": "string",
          "name": "newRole",
          "type": "string"
        }
      ],
      "name": "changeRole",
      "outputs": [],
      "stateMutability": "nonpayable",
      "type": "function"
    },
    {
      "inputs": [
        {
          "internalType": "address",
          "name": "wallet",
          "type": "address"
        }
      ],
      "name": "deactivateWallet",
      "outputs": [],
      "stateMutability": "nonpayable",
      "type": "function"
    },
    {
      "inputs": [],
      "name": "getAllUsers",
      "outputs": [
        {
          "internalType": "bytes32[]",
          "name": "",
          "type": "bytes32[]"
        }
      ],
      "stateMutability": "view",
      "type": "function"
    },
    {
      "inputs": [
        {
          "internalType": "string",
          "name": "recordId",
          "type": "string"
        }
      ],
      "name": "getRecordAdmins",
      "outputs": [
        {
          "internalType": "bytes32[]",
          "name": "",
          "type": "bytes32[]"
        }
      ],
      "stateMutability": "view",
      "type": "function"
    },
    {
      "inputs": [
        {
          "internalType": "string",
          "name": "recordId",
          "type": "string"
        }
      ],
      "name": "getRecordOwners",
      "outputs": [
        {
          "internalType": "bytes32[]",
          "name": "",
          "type": "bytes32[]"
        }
      ],
      "stateMutability": "view",
      "type": "function"
    },
    {
      "inputs": [
        {
          "internalType": "string",
          "name": "recordId",
          "type": "string"
        }
      ],
      "name": "getRecordRoleStats",
      "outputs": [
        {
          "internalType": "uint256",
          "name": "ownerCount",
          "type": "uint256"
        },
        {
          "internalType": "uint256",
          "name": "adminCount",
          "type": "uint256"
        },
        {
          "internalType": "uint256",
          "name": "viewerCount",
          "type": "uint256"
        }
      ],
      "stateMutability": "view",
      "type": "function"
    },
    {
      "inputs": [
        {
          "internalType": "string",
          "name": "recordId",
          "type": "string"
        }
      ],
      "name": "getRecordViewers",
      "outputs": [
        {
          "internalType": "bytes32[]",
          "name": "",
          "type": "bytes32[]"
        }
      ],
      "stateMutability": "view",
      "type": "function"
    },
    {
      "inputs": [
        {
          "internalType": "bytes32",
          "name": "userIdHash",
          "type": "bytes32"
        }
      ],
      "name": "getRecordsByUser",
      "outputs": [
        {
          "internalType": "string[]",
          "name": "",
          "type": "string[]"
        }
      ],
      "stateMutability": "view",
      "type": "function"
    },
    {
      "inputs": [
        {
          "internalType": "string",
          "name": "recordId",
          "type": "string"
        },
        {
          "internalType": "address",
          "name": "wallet",
          "type": "address"
        }
      ],
      "name": "getRoleDetails",
      "outputs": [
        {
          "internalType": "string",
          "name": "role",
          "type": "string"
        },
        {
          "internalType": "bool",
          "name": "isActive",
          "type": "bool"
        }
      ],
      "stateMutability": "view",
      "type": "function"
    },
    {
      "inputs": [
        {
          "internalType": "string",
          "name": "recordId",
          "type": "string"
        },
        {
          "internalType": "bytes32",
          "name": "userIdHash",
          "type": "bytes32"
        }
      ],
      "name": "getRoleDetailsByUser",
      "outputs": [
        {
          "internalType": "string",
          "name": "role",
          "type": "string"
        },
        {
          "internalType": "bool",
          "name": "isActive",
          "type": "bool"
        }
      ],
      "stateMutability": "view",
      "type": "function"
    },
    {
      "inputs": [],
      "name": "getTotalRoles",
      "outputs": [
        {
          "internalType": "uint256",
          "name": "",
          "type": "uint256"
        }
      ],
      "stateMutability": "view",
      "type": "function"
    },
    {
      "inputs": [],
      "name": "getTotalUsers",
      "outputs": [
        {
          "internalType": "uint256",
          "name": "",
          "type": "uint256"
        }
      ],
      "stateMutability": "view",
      "type": "function"
    },
    {
      "inputs": [
        {
          "internalType": "address",
          "name": "wallet",
          "type": "address"
        }
      ],
      "name": "getUserForWallet",
      "outputs": [
        {
          "internalType": "bytes32",
          "name": "",
          "type": "bytes32"
        }
      ],
      "stateMutability": "view",
      "type": "function"
    },
    {
      "inputs": [
        {
          "internalType": "bytes32",
          "name": "userIdHash",
          "type": "bytes32"
        }
      ],
      "name": "getUserStatus",
      "outputs": [
        {
          "internalType": "enum MemberRoleManager.MemberStatus",
          "name": "status",
          "type": "uint8"
        }
      ],
      "stateMutability": "view",
      "type": "function"
    },
    {
      "inputs": [
        {
          "internalType": "bytes32",
          "name": "userIdHash",
          "type": "bytes32"
        }
      ],
      "name": "getWalletsForUser",
      "outputs": [
        {
          "internalType": "address[]",
          "name": "",
          "type": "address[]"
        }
      ],
      "stateMutability": "view",
      "type": "function"
    },
    {
      "inputs": [
        {
          "internalType": "string",
          "name": "recordId",
          "type": "string"
        },
        {
          "internalType": "address",
          "name": "targetWallet",
          "type": "address"
        },
        {
          "internalType": "string",
          "name": "role",
          "type": "string"
        }
      ],
      "name": "grantRole",
      "outputs": [],
      "stateMutability": "nonpayable",
      "type": "function"
    },
    {
      "inputs": [
        {
          "internalType": "string",
          "name": "recordId",
          "type": "string"
        },
        {
          "internalType": "address",
          "name": "wallet",
          "type": "address"
        }
      ],
      "name": "hasActiveRole",
      "outputs": [
        {
          "internalType": "bool",
          "name": "",
          "type": "bool"
        }
      ],
      "stateMutability": "view",
      "type": "function"
    },
    {
      "inputs": [
        {
          "internalType": "string",
          "name": "recordId",
          "type": "string"
        },
        {
          "internalType": "address",
          "name": "wallet",
          "type": "address"
        },
        {
          "internalType": "string",
          "name": "role",
          "type": "string"
        }
      ],
      "name": "hasRole",
      "outputs": [
        {
          "internalType": "bool",
          "name": "",
          "type": "bool"
        }
      ],
      "stateMutability": "view",
      "type": "function"
    },
    {
      "inputs": [],
      "name": "initialize",
      "outputs": [],
      "stateMutability": "nonpayable",
      "type": "function"
    },
    {
      "inputs": [
        {
          "internalType": "string",
          "name": "recordId",
          "type": "string"
        },
        {
          "internalType": "address",
          "name": "targetWallet",
          "type": "address"
        },
        {
          "internalType": "string",
          "name": "role",
          "type": "string"
        }
      ],
      "name": "initializeRecordRole",
      "outputs": [],
      "stateMutability": "nonpayable",
      "type": "function"
    },
    {
      "inputs": [
        {
          "internalType": "address",
          "name": "wallet",
          "type": "address"
        }
      ],
      "name": "isActiveMember",
      "outputs": [
        {
          "internalType": "bool",
          "name": "",
          "type": "bool"
        }
      ],
      "stateMutability": "view",
      "type": "function"
    },
    {
      "inputs": [
        {
          "internalType": "string",
          "name": "recordId",
          "type": "string"
        },
        {
          "internalType": "address",
          "name": "wallet",
          "type": "address"
        }
      ],
      "name": "isOwnerOrAdmin",
      "outputs": [
        {
          "internalType": "bool",
          "name": "",
          "type": "bool"
        }
      ],
      "stateMutability": "view",
      "type": "function"
    },
    {
      "inputs": [
        {
          "internalType": "address",
          "name": "wallet",
          "type": "address"
        }
      ],
      "name": "isVerifiedMember",
      "outputs": [
        {
          "internalType": "bool",
          "name": "",
          "type": "bool"
        }
      ],
      "stateMutability": "view",
      "type": "function"
    },
    {
      "inputs": [
        {
          "internalType": "address",
          "name": "wallet",
          "type": "address"
        }
      ],
      "name": "isVerifiedProvider",
      "outputs": [
        {
          "internalType": "bool",
          "name": "",
          "type": "bool"
        }
      ],
      "stateMutability": "view",
      "type": "function"
    },
    {
      "inputs": [
        {
          "internalType": "string",
          "name": "",
          "type": "string"
        },
        {
          "internalType": "uint256",
          "name": "",
          "type": "uint256"
        }
      ],
      "name": "ownersByRecord",
      "outputs": [
        {
          "internalType": "bytes32",
          "name": "",
          "type": "bytes32"
        }
      ],
      "stateMutability": "view",
      "type": "function"
    },
    {
      "inputs": [],
      "name": "proxiableUUID",
      "outputs": [
        {
          "internalType": "bytes32",
          "name": "",
          "type": "bytes32"
        }
      ],
      "stateMutability": "view",
      "type": "function"
    },
    {
      "inputs": [
        {
          "internalType": "address",
          "name": "wallet",
          "type": "address"
        }
      ],
      "name": "reactivateWallet",
      "outputs": [],
      "stateMutability": "nonpayable",
      "type": "function"
    },
    {
      "inputs": [
        {
          "internalType": "bytes32",
          "name": "",
          "type": "bytes32"
        }
      ],
      "name": "recordRoles",
      "outputs": [
        {
          "internalType": "string",
          "name": "role",
          "type": "string"
        },
        {
          "internalType": "bool",
          "name": "isActive",
          "type": "bool"
        }
      ],
      "stateMutability": "view",
      "type": "function"
    },
    {
      "inputs": [
        {
          "internalType": "bytes32",
          "name": "",
          "type": "bytes32"
        },
        {
          "internalType": "uint256",
          "name": "",
          "type": "uint256"
        }
      ],
      "name": "recordsByUser",
      "outputs": [
        {
          "internalType": "string",
          "name": "",
          "type": "string"
        }
      ],
      "stateMutability": "view",
      "type": "function"
    },
    {
      "inputs": [
        {
          "internalType": "string",
          "name": "recordId",
          "type": "string"
        },
        {
          "internalType": "address",
          "name": "targetWallet",
          "type": "address"
        }
      ],
      "name": "revokeRole",
      "outputs": [],
      "stateMutability": "nonpayable",
      "type": "function"
    },
    {
      "inputs": [
        {
          "internalType": "bytes32",
          "name": "userIdHash",
          "type": "bytes32"
        },
        {
          "internalType": "enum MemberRoleManager.MemberStatus",
          "name": "newStatus",
          "type": "uint8"
        }
      ],
      "name": "setUserStatus",
      "outputs": [],
      "stateMutability": "nonpayable",
      "type": "function"
    },
    {
      "inputs": [],
      "name": "totalRoles",
      "outputs": [
        {
          "internalType": "uint256",
          "name": "",
          "type": "uint256"
        }
      ],
      "stateMutability": "view",
      "type": "function"
    },
    {
      "inputs": [],
      "name": "totalUsers",
      "outputs": [
        {
          "internalType": "uint256",
          "name": "",
          "type": "uint256"
        }
      ],
      "stateMutability": "view",
      "type": "function"
    },
    {
      "inputs": [
        {
          "internalType": "address",
          "name": "newAdmin",
          "type": "address"
        }
      ],
      "name": "transferAdmin",
      "outputs": [],
      "stateMutability": "nonpayable",
      "type": "function"
    },
    {
      "inputs": [
        {
          "internalType": "address",
          "name": "newImplementation",
          "type": "address"
        },
        {
          "internalType": "bytes",
          "name": "data",
          "type": "bytes"
        }
      ],
      "name": "upgradeToAndCall",
      "outputs": [],
      "stateMutability": "payable",
      "type": "function"
    },
    {
      "inputs": [
        {
          "internalType": "uint256",
          "name": "",
          "type": "uint256"
        }
      ],
      "name": "userList",
      "outputs": [
        {
          "internalType": "bytes32",
          "name": "",
          "type": "bytes32"
        }
      ],
      "stateMutability": "view",
      "type": "function"
    },
    {
      "inputs": [
        {
          "internalType": "bytes32",
          "name": "",
          "type": "bytes32"
        }
      ],
      "name": "userStatus",
      "outputs": [
        {
          "internalType": "enum MemberRoleManager.MemberStatus",
          "name": "",
          "type": "uint8"
        }
      ],
      "stateMutability": "view",
      "type": "function"
    },
    {
      "inputs": [
        {
          "internalType": "bytes32",
          "name": "",
          "type": "bytes32"
        },
        {
          "internalType": "uint256",
          "name": "",
          "type": "uint256"
        }
      ],
      "name": "userWallets",
      "outputs": [
        {
          "internalType": "address",
          "name": "",
          "type": "address"
        }
      ],
      "stateMutability": "view",
      "type": "function"
    },
    {
      "inputs": [
        {
          "internalType": "string",
          "name": "",
          "type": "string"
        },
        {
          "internalType": "uint256",
          "name": "",
          "type": "uint256"
        }
      ],
      "name": "viewersByRecord",
      "outputs": [
        {
          "internalType": "bytes32",
          "name": "",
          "type": "bytes32"
        }
      ],
      "stateMutability": "view",
      "type": "function"
    },
    {
      "inputs": [
        {
          "internalType": "string",
          "name": "recordId",
          "type": "string"
        }
      ],
      "name": "voluntarilyLeaveOwnership",
      "outputs": [],
      "stateMutability": "nonpayable",
      "type": "function"
    },
    {
      "inputs": [
        {
          "internalType": "address",
          "name": "",
          "type": "address"
        }
      ],
      "name": "wallets",
      "outputs": [
        {
          "internalType": "bytes32",
          "name": "userIdHash",
          "type": "bytes32"
        },
        {
          "internalType": "bool",
          "name": "isWalletActive",
          "type": "bool"
        }
      ],
      "stateMutability": "view",
      "type": "function"
    }
  ],
  "bytecode": "0x60a08060405234620000d157306080527ff0c57e16840df040f15088dc2f81fe391c3923bec73e23a9662efc9c229c6a009081549060ff8260401c16620000c257506001600160401b036002600160401b0319828216016200007c575b6040516136509081620000d78239608051818181611a7e0152611bcb0152f35b6001600160401b031990911681179091556040519081527fc7f505b2f371ae2175ee4913f4499e1f2633a7b5936321eed1cdaeb6115181d290602090a13880806200005c565b63f92ee8a960e01b8152600490fd5b600080fdfe608060408181526004918236101561001657600080fd5b600090813560e01c908162b0c809146125fe575080630b3ffd1d1461253f5780631435b558146125235780631a95aca51461249c578063259ed80e1461247657806333105592146124385780633575c391146121825780633dd1e8fc146120fb57806341d8bde31461205857806345ecd02f1461203257806349df720814611dc25780634b6feb7c1461153c5780634f1ef28614611b7b578063510b300314611ae257806352d1902d14611a6a5780636544b05b1461197b5780636b4bed97146102ae578063731f21a01461160957806375829def1461155b578063790e118c1461153c5780638129fc1c146113fe57806389b08f11146113b75780639443cd801461136e57806396207e0214611207578063970ee5b9146111d05780639be572f614610cad5780639f4216e814611183578063a0ca13c314611167578063ad3cb1cc14611122578063b55aefcc146110eb578063bb0f86d514611034578063bb20b17214610ccc578063bff1f9e114610cad578063cabdd23f14610c91578063cb261a0314610c62578063d12a776814610bb1578063daa9dc2314610633578063e2842d79146105b2578063e965bfb714610559578063eb2bbf251461052f578063ed8d7b371461035e578063ee4e5828146102e0578063f29e007b146102ae578063f851a440146102825763fa7a6bcc1461021257600080fd5b3461027f576102203661294d565b908252600a602052828220805482101561027b579061023e91612963565b9390936102695761026583610252866127c6565b905191829160208352602083019061288e565b0390f35b634e487b7160e01b8252819052602490fd5b8280fd5b80fd5b5090346102aa57816003193601126102aa57905490516001600160a01b039091168152602090f35b5080fd5b50913461027b57602036600319011261027b5760ff826020946102de93358152600286522054169151809261292a565bf35b50913461027b578160031936011261027b5780356001600160401b03811161035a576020936103226103196102659486943691016126f1565b60243590613258565b815260068552209180516103358161264d565b60ff6001610342866127c6565b958684520154161515948591015251928392836128b3565b8380fd5b5091903461027b5760208060031936011261035a5782356001600160401b03811161052b5761039090369085016126f1565b61039c81511515612a86565b3385526001825282852054936103ba6103b3612cab565b8684613293565b156104dc5783516103f88460018551938281818901966103db81838a61286b565b81016007815203019020541192875180938192885192839161286b565b8101600881520301902054151581156104d4575b501561047757509061046e82610443867f3bb3693064733b9a7d6d41bee69f302fcbefbe827ea4011400530c9ba9cb49c395613258565b61045561044e612cab565b88846132f3565b875260068352848720600101805460ff19169055612cf5565b9251428152a380f35b835162461bcd60e51b8152908101839052603160248201527f43616e6e6f74206c65617665206173206c617374206f776e65722077697468206044820152706e6f2061646d696e6973747261746f727360781b6064820152608490fd5b90503861040c565b835162461bcd60e51b8152908101839052602360248201527f596f7520617265206e6f7420616e206f776e6572206f662074686973207265636044820152621bdc9960ea1b6064820152608490fd5b8480fd5b5090346102aa576102659061054c6105463661270f565b90612dfb565b92909151928392836128b3565b5090346102aa5760209161058361056f36612991565b94908185519382858094519384920161286b565b8101600881520301902090815484101561027f57506020926105a491612963565b91905490519160031b1c8152f35b5090346102aa57816003193601126102aa578051918284549081815260208091019583527f8a35acfbc15ff81a39ae7d344fd709f28e8600b4aa8c65c6b64bfe7fe36bd19b92905b82821061061c576102658686610612828b038361267e565b5191829182612750565b8354875295860195600193840193909101906105fa565b50913461027b57610643366128d3565b91929061065761065233612f61565b612d67565b61066384511515612a86565b6001600160a01b031693610678851515612bbb565b61068961068484612f09565b612b17565b3386526020600181528187205495875281872054946106a9861515612c07565b845182860120936106ba8783613258565b808a52600684526106d360ff6001878d20015416612c53565b8952600683526106e4848a206127c6565b94855184870120818114610b6e576106fa612cab565b8581519101208114610af95785519184519286818188019561071d81838961286b565b810160078152030190205415918b831561075261074261073b612cab565b848b613293565b9261074b612ccc565b908a613293565b9061075b612cab565b8051908b0120850361095557156108f85750156108b7575b61077b612ccc565b8781519101201490816108a0575b506107fe575b505050916107f27fea2c9ebe68919ddf880b3221d8d508d908163d0973e8b79df108f5d110d0c63394926107d1856107cc8b8a8c6107e59a6130dc565b612cf5565b96835195869560608752606087019061288e565b918583039086015261288e565b9042908301520390a480f35b610809575b8061078f565b61082084600192875180938192885192839161286b565b810160088152030190205411156108375780610803565b835162461bcd60e51b8152908101839052603960248201527f43616e6e6f742064656d6f746520746865206c6173742061646d696e6973747260448201527f61746f72207768656e206e6f206f776e657220657869737473000000000000006064820152608490fd5b90506108aa612daa565b8681519101201438610789565b60648588808b519262461bcd60e51b845283015260248201527f4f6e6c79206f776e6572732063616e2070726f6d6f746520746f206f776e65726044820152fd5b905061077357875162461bcd60e51b8152808601889052602b60248201527f4f6e6c792061646d696e6973747261746f72732063616e2070726f6d6f74652060448201526a3334b939ba1037bbb732b960a91b6064820152608490fd5b61095d612ccc565b8051908b012085036109d5575081156109cd575b5061077357875162461bcd60e51b8152808601889052603b60248201526000805160206135fb83398151915260448201527f616e2070726f6d6f746520746f2061646d696e6973747261746f7200000000006064820152608490fd5b905038610971565b6109dd612daa565b8a815191012085146109f2575b505050610773565b15610a9f578115610a88575b5015610a0d575b3880806109ea565b875162461bcd60e51b8152808601889052604960248201527f4f6e6c79206f776e6572732063616e2064656d6f7465206f74686572732e204160448201527f646d696e6973747261746f72732063616e206f6e6c792064656d6f746520746860648201526832b6b9b2b63b32b99760b91b608482015260a490fd5b905080610a96575b386109fe565b508a8c14610a90565b9050610a0557875162461bcd60e51b8152808601889052602860248201527f4f6e6c792061646d696e6973747261746f72732063616e2064656d6f7465207460448201526737903b34b2bbb2b960c11b6064820152608490fd5b855162461bcd60e51b8152808401869052604360248201527f4f776e6572732063616e6e6f742062652064656d6f7465642e204f776e65722060448201527f6d75737420766f6c756e746172696c792072656d6f7665207468656d73656c7660648201526232b99760e91b608482015260a490fd5b855162461bcd60e51b8152808401869052601c60248201527f54617267657420616c726561647920686173207468697320726f6c65000000006044820152606490fd5b5082903461027f57602091826003193601126102aa5792919235815260038352818120908251808584549182815201908194845286842090845b818110610c455750505081610c0191038261267e565b83519485948186019282875251809352850193925b828110610c2557505050500390f35b83516001600160a01b031685528695509381019392810192600101610c16565b82546001600160a01b031684529288019260019283019201610beb565b5090346102aa5760203660031901126102aa57602090610c88610c83612632565b6133bb565b90519015158152f35b5090346102aa57602090610c88610ca7366128d3565b91612dcc565b5090346102aa57816003193601126102aa576020906005549051908152f35b5082346102aa57610cdc366128d3565b919290610ceb61065233612f61565b610cf784511515612a86565b6001600160a01b031692610d0c841515612bbb565b610d1861068484612f09565b33855260209160018352868620549486528686205492610d39841515612c07565b845181860120610d498785613258565b88526006825260ff60018a8a2001541615610ff357885182818651610d718183858b0161286b565b8101600781520301902054151590610d91610d8a612cab565b8987613293565b91610da4610d9d612ccc565b8a88613293565b91610dad612cab565b8051908601208103610eee575015610e94575015610e52575b610dd08484613258565b87526006815260ff6001898920015416610df4575050610df19495506130dc565b80f35b875162461bcd60e51b815291820152603360248201527f54617267657420616c726561647920686173206120726f6c652e2055736520636044820152721a185b99d9549bdb194a0a481a5b9cdd195859606a1b606482015260849150fd5b875162461bcd60e51b815291820181905260248201527f4f6e6c79206f776e6572732063616e206772616e74206f776e657220726f6c65604482015260649150fd5b9050610dc657875162461bcd60e51b815291820152602960248201527f4f6e6c792061646d696e6973747261746f72732063616e206772616e742066696044820152683939ba1037bbb732b960b91b606482015260849150fd5b9050610ef8612ccc565b8051908501208103610f6f57508115610f67575b50610dc657875162461bcd60e51b815291820152603b60248201526000805160206135fb83398151915260448201527f616e206772616e742061646d696e6973747261746f7220726f6c650000000000606482015260849150fd5b905089610f0c565b610f77612daa565b84815191012014610f8a575b5050610dc6565b8115610feb575b5015610f9e578880610f83565b875162461bcd60e51b815291820152603460248201526000805160206135fb833981519152604482015273616e206772616e742076696577657220726f6c6560601b606482015260849150fd5b905089610f91565b60648383808c519262461bcd60e51b845283015260248201527f596f752068617665206e6f20726f6c6520666f722074686973207265636f72646044820152fd5b5091903461027b57602036600319011261027b57611050612632565b83546001600160a01b03919061106990831633146129c2565b16808452600192836020526110828386205415156129fb565b8185528360205260ff848487200154166110b057508352602082905282208101805460ff1916909117905580f35b606490602084519162461bcd60e51b8352820152601560248201527457616c6c657420616c72656164792061637469766560581b6044820152fd5b5090346102aa5760209161110161056f36612991565b8101600981520301902090815484101561027f57506020926105a491612963565b5090346102aa57816003193601126102aa578051610265916111438261264d565b60058252640352e302e360dc1b60208301525191829160208352602083019061288e565b5090346102aa57602090610c8861117d3661270f565b90612d15565b50913461027b57602036600319011261027b57803590805482101561035a57602093527f8a35acfbc15ff81a39ae7d344fd709f28e8600b4aa8c65c6b64bfe7fe36bd19b01549051908152f35b5090346102aa576020916111e661056f36612991565b8101600781520301902090815484101561027f57506020926105a491612963565b5091903461027b578060031936011261027b57813590602435600581101561052b5761123d60018060a01b0386541633146129c2565b82855260206002815260ff8387205416600581101561135b5715611323578386526002815260ff8387205416946005861015611310578286146112d95750906112ab918487526002815283872060ff1981541660ff84161790556112a38451809761292a565b85019061292a565b42908301527ff6277c6ee46649823db9a5c531db3112b4340c67179cae1932ba3420dcc37cc760603393a380f35b60649184519162461bcd60e51b83528201526013602482015272416c726561647920746869732073746174757360681b6044820152fd5b634e487b7160e01b875260219052602486fd5b8460649184519162461bcd60e51b83528201526013602482015272155cd95c881b9bdd081c9959da5cdd195c9959606a1b6044820152fd5b634e487b7160e01b875260218652602487fd5b5090346102aa5761137e3661294d565b92908152600360205281812090815484101561027f57506020926113a191612963565b60018060a01b0391549060031b1c169051908152f35b5090346102aa5760203660031901126102aa579081906001600160a01b036113dd612632565b16815260016020522060ff6001825492015416825191825215156020820152f35b50913461027b578260031936011261027b577ff0c57e16840df040f15088dc2f81fe391c3923bec73e23a9662efc9c229c6a0091825460ff81831c1615906001600160401b03811680159081611534575b600114908161152a575b159081611521575b506115125767ffffffffffffffff1981166001178555816114f3575b5083549260ff84841c16156114e5575084546001600160a01b031916331785556114a5578380f35b7fc7f505b2f371ae2175ee4913f4499e1f2633a7b5936321eed1cdaeb6115181d29260209268ff0000000000000000191690555160018152a13880808380f35b8251631afcd79f60e31b8152fd5b68ffffffffffffffffff1916680100000000000000011784553861147d565b50505163f92ee8a960e01b8152fd5b90501538611461565b303b159150611459565b83915061144f565b5090346102aa57816003193601126102aa57602090600b549051908152f35b5091903461027b57602036600319011261027b57611577612632565b8354916001600160a01b03808416926115913385146129c2565b169384156115d55750907f38df5fa0f7fef0d515ca1f5388cb5790ac5885d5fca8d05d9f943e563c33a4b36020859351428152a36001600160a01b03191617815580f35b6020606492519162461bcd60e51b8352820152600f60248201526e496e76616c6964206164647265737360881b6044820152fd5b5091903461027b5761161a3661270f565b611628829392511515612a86565b6001600160a01b03169261163d841515612bbb565b3385526020916001835280862054948652808620549361165e851515612c07565b6116688582613258565b8088526006855261168160ff6001858b20015416612c53565b808852600685526116938389206127c6565b938451868601206116a2612cab565b8781519101208114611904578789036117ee575b6116be612ccc565b8781519101201461172b575b5081611717916116fe86897f938e21a28464db5f9b9e24d1a58e038899de364f69dba20c154ee6fd4cd86def9897966132f3565b895260068652828920600101805460ff19169055612cf5565b936107f2825193838594855284019061288e565b83516117648760018651938281818a019661174781838a61286b565b81016008815203019020541192875180938192895192839161286b565b8101600781520301902054151581156117e6575b506116ca57835162461bcd60e51b8152908101869052603960248201527f43616e6e6f74207265766f6b65206c6173742061646d696e6973747261746f7260448201527f20776974686f757420616e206f776e65722070726573656e74000000000000006064820152608490fd5b905038611778565b6118006117f9612cab565b8a86613293565b80156118f3575b156118aa576118176117f9612cab565b15611822575b6116b6565b61182a612ccc565b87815191012081036116b6578451878186516118498183858b0161286b565b81016007815203019020541561181d57845162461bcd60e51b8152808301889052602560248201527f4f6e6c79206f776e6572732063616e207265766f6b652061646d696e6973747260448201526461746f727360d81b6064820152608490fd5b845162461bcd60e51b8152808301889052602f60248201526000805160206135fb83398151915260448201526e616e207265766f6b6520726f6c657360881b6064820152608490fd5b506118ff6117f9612ccc565b611807565b845162461bcd60e51b8152808301889052604560248201527f4f776e6572732063616e6e6f74206265207265766f6b65642e204f776e65722060448201527f6d7573742075736520766f6c756e746172696c794c656176654f776e6572736860648201526434b814149760d91b608482015260a490fd5b5082346102aa576020908160031936011261027b5780358352600a8252838320918254916001600160401b038311611a57575092908451906119c2858260051b018361267e565b8082528482018094845285842084915b838310611a3357505050508451938085019181865251809252858501958260051b8601019392955b828710611a075785850386f35b909192938280611a23600193603f198a8203018652885161288e565b96019201960195929190926119fa565b6001888192611a45859b98999b6127c6565b815201920192019190969493966119d2565b634e487b7160e01b855260419052602484fd5b503461027f578060031936011261027f57507f00000000000000000000000000000000000000000000000000000000000000006001600160a01b03163003611ad557602090517f360894a13ba1a3210667c828492db98dca3e2076cc3735a920a3ca505d382bbc8152f35b5163703e46dd60e11b8152fd5b5091903461027b576020918260031936011261035a578035906001600160401b03821161052b57611b1a8491611b2c933691016126f1565b8184519382858094519384920161286b565b810160098152030190209281518093808654928381520195835280832092905b828210611b64576102658686610612828b038361267e565b835487529586019560019384019390910190611b4c565b5091908060031936011261027b57611b91612632565b906024356001600160401b03811161052b573660238201121561052b57611bc190369060248187013591016126ba565b6001600160a01b037f00000000000000000000000000000000000000000000000000000000000000008116308114908115611d94575b50611d8457611c0a8187541633146129c2565b82516352d1902d60e01b81529084169360209182818881895afa889181611d51575b50611c48578451634c9c8ce360e01b8152808801879052602490fd5b7f360894a13ba1a3210667c828492db98dca3e2076cc3735a920a3ca505d382bbc96929591939690818103611d3b5750833b15611d245780546001600160a01b0319168217905583518792917fbc7cd75a20ee27fd9adebab32041f755214dbc6bffa90cc0225b39da2e5c2d3b8480a2865115611d07575050808585611cf997519101845af4913d15611cfd573d611ceb611ce28261269f565b9251928361267e565b81528581943d92013e613577565b5080f35b5060609250613577565b9450945050505034611d1857505080f35b63b398979f60e01b8152fd5b8451634c9c8ce360e01b8152808401839052602490fd5b83602491875191632a87526960e21b8352820152fd5b9091508381813d8311611d7d575b611d69818361267e565b81010312611d7957519038611c2c565b8880fd5b503d611d5f565b825163703e46dd60e11b81528590fd5b9050817f360894a13ba1a3210667c828492db98dca3e2076cc3735a920a3ca505d382bbc5416141538611bf7565b50913461027b578160031936011261027b57611ddc612632565b9160249081359360018060a01b038091611dfa8289541633146129c2565b1693611e07851515612ad2565b8515611ff95784875260019360209480865284892054611fb757611e5c8551611e2f8161264d565b898152828882018181528a8d52818a52888d209251835551151591019060ff801983541691151516179055565b87895260038652848920938454600160401b9586821015611fa55790611e86918482018155612963565b819291549060031b918a831b921b19161790558789526002865260ff858a2054166005811015611f9357611f645787895260028652848920600260ff19825416179055825493841015611f52578301808355831015611f4157507f39d132591ee0696de49ab564e4a90e430c006561917db731a2a614dd2d245591939291869188527f8a35acfbc15ff81a39ae7d344fd709f28e8600b4aa8c65c6b64bfe7fe36bd19b0155611f36600554612b96565b60055551428152a380f35b634e487b7160e01b88526032825287fd5b50634e487b7160e01b88526041825287fd5b50505050907f1cc138f50384be7770a8e4a34eecaa0d0c718bfaa1641af49db32532e4a5b9109151428152a380f35b634e487b7160e01b8a5260218452828afd5b634e487b7160e01b8c5260418652848cfd5b845162461bcd60e51b81528084018790526019818401527f57616c6c657420616c72656164792072656769737465726564000000000000006044820152606490fd5b606490601485602086519362461bcd60e51b855284015282015273092dcecc2d8d2c840eae6cae440928840d0c2e6d60631b6044820152fd5b5090346102aa5760203660031901126102aa57602090610c88612053612632565b612f61565b503461027f576020908160031936011261027f578335906001600160401b03821161027f575060609361208d913691016126f1565b918051926120e2838251958181818601986120a981838c61286b565b8101600781520301902054958451828186516120c681838761286b565b810160088152030190205493855193849283925192839161286b565b8101600981520301902054928251948552840152820152f35b5091903461027b576020918260031936011261035a578035906001600160401b03821161052b57611b1a8491612133933691016126f1565b810160088152030190209281518093808654928381520195835280832092905b82821061216b576102658686610612828b038361267e565b835487529586019560019384019390910190612153565b5082346102aa57612192366128d3565b9092919460018060a01b036121ab8187541633146129c2565b6121b787511515612a86565b84166121c4811515612ad2565b6121d061068484612f09565b8552602092600184526121ec82872054956120538715156129fb565b156123f7578151848851918181818c019461220881838861286b565b81016007815203019020541591826123cf575b50501561238e5761222c8588613258565b8087526006855286856122918660018785209561227b8961224c896127c6565b97600660ff868b51159c015416988351976122668961264d565b88528088019587875283525220935184612fca565b51151591019060ff801983541691151516179055565b61234f57506122a184878a613414565b6122c2575b50906000805160206135db833981519152916117178697612cf5565b95848652600a8452818620805490600160401b82101561233c57906122ec91600182018155612963565b61232a57869750816123126000805160206135db83398151915295949361171793612fca565b61231d600b54612b96565b600b5597505090916122a6565b634e487b7160e01b8752868852602487fd5b634e487b7160e01b885260418952602488fd5b9697939594925050508451818601209084519085012003612372575b5050505080f35b6123806123859483836132f3565b613414565b8180808061236b565b83606492519162461bcd60e51b8352820152601a60248201527f5265636f726420616c726561647920696e697469616c697a65640000000000006044820152fd5b6123e492508451809381928c5192839161286b565b810160088152030190205415848961221b565b83606492519162461bcd60e51b8352820152601860248201527f4d75737420626520616e20616374697665206d656d62657200000000000000006044820152fd5b50913461027b57602036600319011261027b5791819235815260066020522061026560ff6001612467846127c6565b930154169251928392836128b3565b5090346102aa5760203660031901126102aa57602090610c88612497612632565b612e98565b5091903461027b576020918260031936011261035a578035906001600160401b03821161052b57611b1a84916124d4933691016126f1565b810160078152030190209281518093808654928381520195835280832092905b82821061250c576102658686610612828b038361267e565b8354875295860195600193840193909101906124f4565b5090346102aa57602090610c886125393661270f565b90612a3f565b50913461027b57602036600319011261027b5761255a612632565b83546001600160a01b03919061257390831633146129c2565b1690818452600160205261258b8385205415156129fb565b818452600160205260ff6001848620015416156125bb575082526001602081905290822001805460ff1916905580f35b606490602084519162461bcd60e51b8352820152601760248201527f57616c6c657420616c726561647920696e6163746976650000000000000000006044820152fd5b9050823461027b57602036600319011261027b576020926001600160a01b03612625612632565b1681526001845220548152f35b600435906001600160a01b038216820361264857565b600080fd5b604081019081106001600160401b0382111761266857604052565b634e487b7160e01b600052604160045260246000fd5b90601f801991011681019081106001600160401b0382111761266857604052565b6001600160401b03811161266857601f01601f191660200190565b9291926126c68261269f565b916126d4604051938461267e565b829481845281830111612648578281602093846000960137010152565b9080601f830112156126485781602061270c933591016126ba565b90565b604060031982011261264857600435906001600160401b03821161264857612739916004016126f1565b906024356001600160a01b03811681036126485790565b602090602060408183019282815285518094520193019160005b828110612778575050505090565b83518552938101939281019260010161276a565b90600182811c921680156127bc575b60208310146127a657565b634e487b7160e01b600052602260045260246000fd5b91607f169161279b565b906040519182600082546127d98161278c565b90818452602094600191600181169081600014612849575060011461280a575b5050506128089250038361267e565b565b600090815285812095935091905b81831061283157505061280893508201013880806127f9565b85548884018501529485019487945091830191612818565b9250505061280894925060ff191682840152151560051b8201013880806127f9565b60005b83811061287e5750506000910152565b818101518382015260200161286e565b906020916128a78151809281855285808601910161286b565b601f01601f1916010190565b906128cb60209194939460408452604084019061288e565b931515910152565b6060600319820112612648576001600160401b039160043583811161264857826128ff916004016126f1565b926024356001600160a01b038116810361264857926044359182116126485761270c916004016126f1565b9060058210156129375752565b634e487b7160e01b600052602160045260246000fd5b6040906003190112612648576004359060243590565b805482101561297b5760005260206000200190600090565b634e487b7160e01b600052603260045260246000fd5b604060031982011261264857600435906001600160401b038211612648576129bb916004016126f1565b9060243590565b156129c957565b60405162461bcd60e51b815260206004820152600a60248201526927b7363c9030b236b4b760b11b6044820152606490fd5b15612a0257565b60405162461bcd60e51b815260206004820152601560248201527415d85b1b195d081b9bdd081c9959da5cdd195c9959605a1b6044820152606490fd5b6001600160a01b039091166000908152600160205260409020548015612a7f57612a6891613258565b600052600660205260ff6001604060002001541690565b5050600090565b15612a8d57565b60405162461bcd60e51b815260206004820152601960248201527f5265636f72642049442063616e6e6f7420626520656d707479000000000000006044820152606490fd5b15612ad957565b60405162461bcd60e51b8152602060048201526016602482015275496e76616c69642077616c6c6574206164647265737360501b6044820152606490fd5b15612b1e57565b60405162461bcd60e51b8152602060048201526013602482015272496e76616c696420726f6c6520737472696e6760681b6044820152606490fd5b805490600160401b8210156126685781612b7b916001612b9294018155612963565b819391549060031b91821b91600019901b19161790565b9055565b6000198114612ba55760010190565b634e487b7160e01b600052601160045260246000fd5b15612bc257565b60405162461bcd60e51b815260206004820152601d60248201527f57616c6c657420616464726573732063616e6e6f74206265207a65726f0000006044820152606490fd5b15612c0e57565b60405162461bcd60e51b815260206004820152601c60248201527f5461726765742077616c6c6574206e6f742072656769737465726564000000006044820152606490fd5b15612c5a57565b60405162461bcd60e51b815260206004820152602360248201527f54617267657420646f6573206e6f74206861766520616e2061637469766520726044820152626f6c6560e81b6064820152608490fd5b60405190612cb88261264d565b600582526437bbb732b960d91b6020830152565b60405190612cd98261264d565b600d82526c30b236b4b734b9ba3930ba37b960991b6020830152565b612d0d9060206040519282848094519384920161286b565b810103902090565b6001600160a01b03909116600090815260016020526040902054908115612a7f57612d48612d41612cab565b8383613293565b918215612d5457505090565b61270c9250612d61612ccc565b91613293565b15612d6e57565b60405162461bcd60e51b81526020600482015260146024820152732737ba1030b71030b1ba34bb329036b2b6b132b960611b6044820152606490fd5b60405190612db78261264d565b60068252653b34b2bbb2b960d11b6020830152565b919060018060a01b031660005260016020526040600020548015612df35761270c92613293565b505050600090565b6001600160a01b039091166000908152600160205260408120549092918115612e5f5792612e2d604092602095613258565b81526006845220604051612e408161264d565b60ff6001612e4d846127c6565b93848452015416151593849101529190565b5050604051602081018181106001600160401b03821117612e84576040528281529190565b634e487b7160e01b84526041600452602484fd5b6001600160a01b031660009081526001602052604081208054908115908115612ef9575b50612ef5578152600260205260ff604082205416906005821015612ee1575060041490565b634e487b7160e01b81526021600452602490fd5b5090565b60ff915060010154161538612ebc565b60208151910120612f18612cab565b602081519101208114908115612f48575b8115612f33575090565b9050612f3d612daa565b602081519101201490565b9050612f52612ccc565b60208151910120811490612f29565b6001600160a01b031660009081526001602052604081208054908115908115612fba575b50612ef5578152600260205260ff604082205416906005821015612ee1575060018114159081612fb3575090565b9050151590565b60ff915060010154161538612f85565b91909182516001600160401b03811161266857612fe7825461278c565b601f8111613092575b50602080601f831160011461302d575081929394600092613022575b50508160011b916000199060031b1c1916179055565b01519050388061300c565b90601f19831695846000526020600020926000905b88821061307a57505083600195969710613061575b505050811b019055565b015160001960f88460031b161c19169055388080613057565b80600185968294968601518155019501930190613042565b6000836000526020600020601f840160051c810192602085106130d2575b601f0160051c01915b8281106130c7575050612ff0565b8181556001016130b9565b90925082906130b0565b90916130e88383613258565b6000928184526020936006855260409283822090613105826127c6565b9061314160ff6001845115950154169160018851916131238361264d565b8a83528b830190828252885260068c5261227b8a8920935184612fca565b61321f5750613151858885613414565b613190575b50906131716000805160206135db8339815191529392612cf5565b93613185825193838594855284019061288e565b9042908301520390a4565b858152600a8552828120805490600160401b82101561320b57906131b991600182018155612963565b9190916131f75750816131e06000805160206135db83398151915295949361317193612fca565b6131eb600b54612b96565b600b5591929350613156565b634e487b7160e01b81526004819052602490fd5b634e487b7160e01b83526041600452602483fd5b9750505091939290508451818601209084519085012003613241575b50505050565b61238061324f9483836132f3565b3880808061323b565b9061328d6040805180936020613277818401978881519384920161286b565b820190602082015203602081018452018261267e565b51902090565b602092916132a091613258565b6000526006825260406000206040516132b88161264d565b60ff60016132c5846127c6565b9384845201541615159384910152826132dd57505090565b9091506020815191012090602081519101201490565b8251602080940120613303612cab565b805190850120810361333a57508261332b91612808946040519382858094519384920161286b565b810160078152030190206134dc565b613342612ccc565b805190850120810361337957508261336a91612808946040519382858094519384920161286b565b810160088152030190206134dc565b613381612daa565b8481519101201461339157505050565b826133ac91612808946040519382858094519384920161286b565b810160098152030190206134dc565b6001600160a01b031660009081526001602052604081208054908115908115613404575b50612ef5578152600260205260ff604082205416906005821015612ee1575060031490565b60ff9150600101541615386133df565b8251602080940120613424612cab565b805190850120810361345b57508261344c91612808946040519382858094519384920161286b565b81016007815203019020612b59565b613463612ccc565b805190850120810361349a57508261348b91612808946040519382858094519384920161286b565b81016008815203019020612b59565b6134a2612daa565b848151910120146134b257505050565b826134cd91612808946040519382858094519384920161286b565b81016009815203019020612b59565b60005b8154908181101561323b5783916134f68285612963565b959054600396871b1c1461351057509092506001016134df565b6000199250828101908111612ba557612b7b61352f61353c9286612963565b905490871b1c9285612963565b905581548015613561578101926135538484612963565b81939154921b1b1916905555565b634e487b7160e01b600052603160045260246000fd5b9061359e575080511561358c57805190602001fd5b604051630a12f52160e11b8152600490fd5b815115806135d1575b6135af575090565b604051639996b31560e01b81526001600160a01b039091166004820152602490fd5b50803b156135a756fe2a27f0a20e4df4738f3a8e2449b014d439e7ce0a97ee5860771c25cbafa1cfeb4f6e6c79206f776e65727320616e642061646d696e6973747261746f72732063a2646970667358221220da45537cb85a94095ff8351c0f64d445798794a47bca7dfc0e78966026ea637264736f6c63430008170033",
  "linkReferences": {},
  "deployedLinkReferences": {}
}