{
  "_format": "hh-sol-artifact-1",
  "contractName": "MemberRoleManager",
  "sourceName": "contracts/MemberRoleManager.sol",
  "abi": [
    {
      "inputs": [],
      "stateMutability": "nonpayable",
      "type": "constructor"
    },
    {
      "anonymous": false,
      "inputs": [
        {
          "indexed": true,
          "internalType": "address",
          "name": "oldAdmin",
          "type": "address"
        },
        {
          "indexed": true,
          "internalType": "address",
          "name": "newAdmin",
          "type": "address"
        },
        {
          "indexed": false,
          "internalType": "uint256",
          "name": "timestamp",
          "type": "uint256"
        }
      ],
      "name": "AdminTransferred",
      "type": "event"
    },
    {
      "anonymous": false,
      "inputs": [
        {
          "indexed": true,
          "internalType": "address",
          "name": "userWallet",
          "type": "address"
        },
        {
          "indexed": true,
          "internalType": "bytes32",
          "name": "userIdHash",
          "type": "bytes32"
        },
        {
          "indexed": false,
          "internalType": "uint256",
          "name": "timestamp",
          "type": "uint256"
        }
      ],
      "name": "MemberRegistered",
      "type": "event"
    },
    {
      "anonymous": false,
      "inputs": [
        {
          "indexed": true,
          "internalType": "address",
          "name": "userWallet",
          "type": "address"
        },
        {
          "indexed": false,
          "internalType": "enum MemberRoleManager.MemberStatus",
          "name": "oldStatus",
          "type": "uint8"
        },
        {
          "indexed": false,
          "internalType": "enum MemberRoleManager.MemberStatus",
          "name": "newStatus",
          "type": "uint8"
        },
        {
          "indexed": true,
          "internalType": "address",
          "name": "changedBy",
          "type": "address"
        },
        {
          "indexed": false,
          "internalType": "uint256",
          "name": "timestamp",
          "type": "uint256"
        }
      ],
      "name": "MemberStatusChanged",
      "type": "event"
    },
    {
      "anonymous": false,
      "inputs": [
        {
          "indexed": true,
          "internalType": "string",
          "name": "recordId",
          "type": "string"
        },
        {
          "indexed": true,
          "internalType": "address",
          "name": "owner",
          "type": "address"
        },
        {
          "indexed": false,
          "internalType": "uint256",
          "name": "timestamp",
          "type": "uint256"
        }
      ],
      "name": "OwnerVoluntarilyLeft",
      "type": "event"
    },
    {
      "anonymous": false,
      "inputs": [
        {
          "indexed": true,
          "internalType": "string",
          "name": "recordId",
          "type": "string"
        },
        {
          "indexed": true,
          "internalType": "address",
          "name": "user",
          "type": "address"
        },
        {
          "indexed": false,
          "internalType": "string",
          "name": "oldRole",
          "type": "string"
        },
        {
          "indexed": false,
          "internalType": "string",
          "name": "newRole",
          "type": "string"
        },
        {
          "indexed": true,
          "internalType": "address",
          "name": "changedBy",
          "type": "address"
        },
        {
          "indexed": false,
          "internalType": "uint256",
          "name": "timestamp",
          "type": "uint256"
        }
      ],
      "name": "RoleChanged",
      "type": "event"
    },
    {
      "anonymous": false,
      "inputs": [
        {
          "indexed": true,
          "internalType": "string",
          "name": "recordId",
          "type": "string"
        },
        {
          "indexed": true,
          "internalType": "address",
          "name": "user",
          "type": "address"
        },
        {
          "indexed": false,
          "internalType": "string",
          "name": "role",
          "type": "string"
        },
        {
          "indexed": true,
          "internalType": "address",
          "name": "grantedBy",
          "type": "address"
        },
        {
          "indexed": false,
          "internalType": "uint256",
          "name": "timestamp",
          "type": "uint256"
        }
      ],
      "name": "RoleGranted",
      "type": "event"
    },
    {
      "anonymous": false,
      "inputs": [
        {
          "indexed": true,
          "internalType": "string",
          "name": "recordId",
          "type": "string"
        },
        {
          "indexed": true,
          "internalType": "address",
          "name": "user",
          "type": "address"
        },
        {
          "indexed": false,
          "internalType": "string",
          "name": "role",
          "type": "string"
        },
        {
          "indexed": true,
          "internalType": "address",
          "name": "revokedBy",
          "type": "address"
        },
        {
          "indexed": false,
          "internalType": "uint256",
          "name": "timestamp",
          "type": "uint256"
        }
      ],
      "name": "RoleRevoked",
      "type": "event"
    },
    {
      "inputs": [
        {
          "internalType": "address",
          "name": "userWallet",
          "type": "address"
        },
        {
          "internalType": "bytes32",
          "name": "userIdHash",
          "type": "bytes32"
        }
      ],
      "name": "addMember",
      "outputs": [],
      "stateMutability": "nonpayable",
      "type": "function"
    },
    {
      "inputs": [],
      "name": "admin",
      "outputs": [
        {
          "internalType": "address",
          "name": "",
          "type": "address"
        }
      ],
      "stateMutability": "view",
      "type": "function"
    },
    {
      "inputs": [
        {
          "internalType": "string",
          "name": "",
          "type": "string"
        },
        {
          "internalType": "uint256",
          "name": "",
          "type": "uint256"
        }
      ],
      "name": "adminsByRecord",
      "outputs": [
        {
          "internalType": "address",
          "name": "",
          "type": "address"
        }
      ],
      "stateMutability": "view",
      "type": "function"
    },
    {
      "inputs": [
        {
          "internalType": "string",
          "name": "recordId",
          "type": "string"
        },
        {
          "internalType": "address",
          "name": "user",
          "type": "address"
        },
        {
          "internalType": "string",
          "name": "newRole",
          "type": "string"
        }
      ],
      "name": "changeRole",
      "outputs": [],
      "stateMutability": "nonpayable",
      "type": "function"
    },
    {
      "inputs": [],
      "name": "getAllMembers",
      "outputs": [
        {
          "internalType": "address[]",
          "name": "",
          "type": "address[]"
        }
      ],
      "stateMutability": "view",
      "type": "function"
    },
    {
      "inputs": [
        {
          "internalType": "address",
          "name": "user",
          "type": "address"
        }
      ],
      "name": "getMember",
      "outputs": [
        {
          "internalType": "bytes32",
          "name": "userIdHash",
          "type": "bytes32"
        },
        {
          "internalType": "enum MemberRoleManager.MemberStatus",
          "name": "status",
          "type": "uint8"
        },
        {
          "internalType": "uint256",
          "name": "joinedAt",
          "type": "uint256"
        }
      ],
      "stateMutability": "view",
      "type": "function"
    },
    {
      "inputs": [
        {
          "internalType": "string",
          "name": "recordId",
          "type": "string"
        }
      ],
      "name": "getRecordAdmins",
      "outputs": [
        {
          "internalType": "address[]",
          "name": "",
          "type": "address[]"
        }
      ],
      "stateMutability": "view",
      "type": "function"
    },
    {
      "inputs": [
        {
          "internalType": "string",
          "name": "recordId",
          "type": "string"
        }
      ],
      "name": "getRecordOwners",
      "outputs": [
        {
          "internalType": "address[]",
          "name": "",
          "type": "address[]"
        }
      ],
      "stateMutability": "view",
      "type": "function"
    },
    {
      "inputs": [
        {
          "internalType": "string",
          "name": "recordId",
          "type": "string"
        }
      ],
      "name": "getRecordRoleStats",
      "outputs": [
        {
          "internalType": "uint256",
          "name": "ownerCount",
          "type": "uint256"
        },
        {
          "internalType": "uint256",
          "name": "adminCount",
          "type": "uint256"
        },
        {
          "internalType": "uint256",
          "name": "viewerCount",
          "type": "uint256"
        }
      ],
      "stateMutability": "view",
      "type": "function"
    },
    {
      "inputs": [
        {
          "internalType": "string",
          "name": "recordId",
          "type": "string"
        }
      ],
      "name": "getRecordViewers",
      "outputs": [
        {
          "internalType": "address[]",
          "name": "",
          "type": "address[]"
        }
      ],
      "stateMutability": "view",
      "type": "function"
    },
    {
      "inputs": [
        {
          "internalType": "address",
          "name": "user",
          "type": "address"
        }
      ],
      "name": "getRecordsByUser",
      "outputs": [
        {
          "internalType": "string[]",
          "name": "",
          "type": "string[]"
        }
      ],
      "stateMutability": "view",
      "type": "function"
    },
    {
      "inputs": [
        {
          "internalType": "string",
          "name": "recordId",
          "type": "string"
        },
        {
          "internalType": "address",
          "name": "user",
          "type": "address"
        }
      ],
      "name": "getRoleDetails",
      "outputs": [
        {
          "internalType": "string",
          "name": "role",
          "type": "string"
        },
        {
          "internalType": "uint256",
          "name": "grantedAt",
          "type": "uint256"
        },
        {
          "internalType": "uint256",
          "name": "lastModified",
          "type": "uint256"
        },
        {
          "internalType": "address",
          "name": "grantedBy",
          "type": "address"
        },
        {
          "internalType": "bool",
          "name": "isActive",
          "type": "bool"
        }
      ],
      "stateMutability": "view",
      "type": "function"
    },
    {
      "inputs": [],
      "name": "getTotalRoles",
      "outputs": [
        {
          "internalType": "uint256",
          "name": "",
          "type": "uint256"
        }
      ],
      "stateMutability": "view",
      "type": "function"
    },
    {
      "inputs": [
        {
          "internalType": "bytes32",
          "name": "userIdHash",
          "type": "bytes32"
        }
      ],
      "name": "getWalletByUserIdHash",
      "outputs": [
        {
          "internalType": "address",
          "name": "",
          "type": "address"
        }
      ],
      "stateMutability": "view",
      "type": "function"
    },
    {
      "inputs": [
        {
          "internalType": "string",
          "name": "recordId",
          "type": "string"
        },
        {
          "internalType": "address",
          "name": "user",
          "type": "address"
        },
        {
          "internalType": "string",
          "name": "role",
          "type": "string"
        }
      ],
      "name": "grantRole",
      "outputs": [],
      "stateMutability": "nonpayable",
      "type": "function"
    },
    {
      "inputs": [
        {
          "internalType": "string",
          "name": "recordId",
          "type": "string"
        },
        {
          "internalType": "address",
          "name": "user",
          "type": "address"
        }
      ],
      "name": "hasActiveRole",
      "outputs": [
        {
          "internalType": "bool",
          "name": "",
          "type": "bool"
        }
      ],
      "stateMutability": "view",
      "type": "function"
    },
    {
      "inputs": [
        {
          "internalType": "string",
          "name": "recordId",
          "type": "string"
        },
        {
          "internalType": "address",
          "name": "user",
          "type": "address"
        },
        {
          "internalType": "string",
          "name": "role",
          "type": "string"
        }
      ],
      "name": "hasRole",
      "outputs": [
        {
          "internalType": "bool",
          "name": "",
          "type": "bool"
        }
      ],
      "stateMutability": "view",
      "type": "function"
    },
    {
      "inputs": [
        {
          "internalType": "string",
          "name": "recordId",
          "type": "string"
        },
        {
          "internalType": "address",
          "name": "firstAdmin",
          "type": "address"
        }
      ],
      "name": "initializeRecordRole",
      "outputs": [],
      "stateMutability": "nonpayable",
      "type": "function"
    },
    {
      "inputs": [
        {
          "internalType": "address",
          "name": "user",
          "type": "address"
        }
      ],
      "name": "isActiveMember",
      "outputs": [
        {
          "internalType": "bool",
          "name": "",
          "type": "bool"
        }
      ],
      "stateMutability": "view",
      "type": "function"
    },
    {
      "inputs": [
        {
          "internalType": "string",
          "name": "recordId",
          "type": "string"
        },
        {
          "internalType": "address",
          "name": "user",
          "type": "address"
        }
      ],
      "name": "isOwnerOrAdmin",
      "outputs": [
        {
          "internalType": "bool",
          "name": "",
          "type": "bool"
        }
      ],
      "stateMutability": "view",
      "type": "function"
    },
    {
      "inputs": [
        {
          "internalType": "address",
          "name": "user",
          "type": "address"
        }
      ],
      "name": "isVerifiedMember",
      "outputs": [
        {
          "internalType": "bool",
          "name": "",
          "type": "bool"
        }
      ],
      "stateMutability": "view",
      "type": "function"
    },
    {
      "inputs": [
        {
          "internalType": "uint256",
          "name": "",
          "type": "uint256"
        }
      ],
      "name": "memberList",
      "outputs": [
        {
          "internalType": "address",
          "name": "",
          "type": "address"
        }
      ],
      "stateMutability": "view",
      "type": "function"
    },
    {
      "inputs": [
        {
          "internalType": "address",
          "name": "",
          "type": "address"
        }
      ],
      "name": "members",
      "outputs": [
        {
          "internalType": "address",
          "name": "userWallet",
          "type": "address"
        },
        {
          "internalType": "bytes32",
          "name": "userIdHash",
          "type": "bytes32"
        },
        {
          "internalType": "enum MemberRoleManager.MemberStatus",
          "name": "status",
          "type": "uint8"
        },
        {
          "internalType": "uint256",
          "name": "joinedAt",
          "type": "uint256"
        }
      ],
      "stateMutability": "view",
      "type": "function"
    },
    {
      "inputs": [
        {
          "internalType": "string",
          "name": "",
          "type": "string"
        },
        {
          "internalType": "uint256",
          "name": "",
          "type": "uint256"
        }
      ],
      "name": "ownersByRecord",
      "outputs": [
        {
          "internalType": "address",
          "name": "",
          "type": "address"
        }
      ],
      "stateMutability": "view",
      "type": "function"
    },
    {
      "inputs": [
        {
          "internalType": "bytes32",
          "name": "",
          "type": "bytes32"
        }
      ],
      "name": "recordRoles",
      "outputs": [
        {
          "internalType": "string",
          "name": "recordId",
          "type": "string"
        },
        {
          "internalType": "address",
          "name": "user",
          "type": "address"
        },
        {
          "internalType": "string",
          "name": "role",
          "type": "string"
        },
        {
          "internalType": "uint256",
          "name": "grantedAt",
          "type": "uint256"
        },
        {
          "internalType": "uint256",
          "name": "lastModified",
          "type": "uint256"
        },
        {
          "internalType": "address",
          "name": "grantedBy",
          "type": "address"
        },
        {
          "internalType": "bool",
          "name": "isActive",
          "type": "bool"
        }
      ],
      "stateMutability": "view",
      "type": "function"
    },
    {
      "inputs": [
        {
          "internalType": "address",
          "name": "",
          "type": "address"
        },
        {
          "internalType": "uint256",
          "name": "",
          "type": "uint256"
        }
      ],
      "name": "recordsByUser",
      "outputs": [
        {
          "internalType": "string",
          "name": "",
          "type": "string"
        }
      ],
      "stateMutability": "view",
      "type": "function"
    },
    {
      "inputs": [
        {
          "internalType": "string",
          "name": "recordId",
          "type": "string"
        },
        {
          "internalType": "address",
          "name": "user",
          "type": "address"
        }
      ],
      "name": "revokeRole",
      "outputs": [],
      "stateMutability": "nonpayable",
      "type": "function"
    },
    {
      "inputs": [
        {
          "internalType": "address",
          "name": "userWallet",
          "type": "address"
        },
        {
          "internalType": "enum MemberRoleManager.MemberStatus",
          "name": "newStatus",
          "type": "uint8"
        }
      ],
      "name": "setMemberStatus",
      "outputs": [],
      "stateMutability": "nonpayable",
      "type": "function"
    },
    {
      "inputs": [],
      "name": "totalMembers",
      "outputs": [
        {
          "internalType": "uint256",
          "name": "",
          "type": "uint256"
        }
      ],
      "stateMutability": "view",
      "type": "function"
    },
    {
      "inputs": [],
      "name": "totalRoles",
      "outputs": [
        {
          "internalType": "uint256",
          "name": "",
          "type": "uint256"
        }
      ],
      "stateMutability": "view",
      "type": "function"
    },
    {
      "inputs": [
        {
          "internalType": "address",
          "name": "newAdmin",
          "type": "address"
        }
      ],
      "name": "transferAdmin",
      "outputs": [],
      "stateMutability": "nonpayable",
      "type": "function"
    },
    {
      "inputs": [
        {
          "internalType": "bytes32",
          "name": "",
          "type": "bytes32"
        }
      ],
      "name": "userIdHashToAddress",
      "outputs": [
        {
          "internalType": "address",
          "name": "",
          "type": "address"
        }
      ],
      "stateMutability": "view",
      "type": "function"
    },
    {
      "inputs": [
        {
          "internalType": "string",
          "name": "",
          "type": "string"
        },
        {
          "internalType": "uint256",
          "name": "",
          "type": "uint256"
        }
      ],
      "name": "viewersByRecord",
      "outputs": [
        {
          "internalType": "address",
          "name": "",
          "type": "address"
        }
      ],
      "stateMutability": "view",
      "type": "function"
    },
    {
      "inputs": [
        {
          "internalType": "string",
          "name": "recordId",
          "type": "string"
        }
      ],
      "name": "voluntarilyRemoveOwnOwnership",
      "outputs": [],
      "stateMutability": "nonpayable",
      "type": "function"
    }
  ],
  "bytecode": "0x608060405234801561001057600080fd5b50600080546001600160a01b03191633179055613e82806100326000396000f3fe608060405234801561001057600080fd5b50600436106102065760003560e01c806376e925591161011a578063b307fc6d116100ad578063cb261a031161007c578063cb261a0314610517578063daa9dc231461052a578063e965bfb71461053d578063eb2bbf2514610550578063f851a4401461057457600080fd5b8063b307fc6d146104cb578063b55aefcc146104de578063bb20b172146104f1578063cabdd23f1461050457600080fd5b80639020666b116100e95780639020666b14610469578063970ee5b914610492578063a0ca13c3146104a5578063aa85bf3f146104b857600080fd5b806376e925591461043c5780637798e78014610445578063790e118c146104585780637c0f6b351461046157600080fd5b806341d8bde31161019d578063510b30031161016c578063510b3003146103d057806357ac40c3146103e35780636e71574314610403578063731f21a01461041657806375829def1461042957600080fd5b806341d8bde31461036857806345ecd02f1461039657806349df7208146103a95780634b6feb7c146103be57600080fd5b80631a95aca5116101d95780631a95aca5146102ed5780632ada25961461030d578063331055921461032f5780633dd1e8fc1461035557600080fd5b806308ae4b0c1461020b57806309012a86146102695780630c6de840146102aa5780631435b558146102ca575b600080fd5b61025061021936600461354e565b600160208190526000918252604090912080549181015460028201546003909201546001600160a01b0390931692909160ff169084565b60405161026094939291906135a1565b60405180910390f35b6102926102773660046135d4565b6000908152600260205260409020546001600160a01b031690565b6040516001600160a01b039091168152602001610260565b6102bd6102b83660046135ed565b610587565b6040516102609190613667565b6102dd6102d836600461371d565b610640565b6040519015158152602001610260565b6103006102fb36600461376b565b610655565b60405161026091906137a0565b61032061031b36600461354e565b6106cf565b604051610260939291906137ed565b61034261033d3660046135d4565b610768565b604051610260979695949392919061380f565b61030061036336600461376b565b6108d2565b61037b61037636600461376b565b6108e4565b60408051938452602084019290925290820152606001610260565b6102dd6103a436600461354e565b610955565b6103bc6103b73660046135ed565b6109b3565b005b600a545b604051908152602001610260565b6103006103de36600461376b565b610c43565b6103f66103f136600461354e565b610c55565b604051610260919061386f565b6103bc6104113660046138d1565b610d44565b6103bc61042436600461371d565b610ef2565b6103bc61043736600461354e565b6114e1565b6103c260045481565b6103bc61045336600461371d565b6115b9565b6103c2600a5481565b6103006117bc565b6102926104773660046135d4565b6002602052600090815260409020546001600160a01b031681565b6102926104a036600461390c565b61181e565b6102dd6104b336600461371d565b611865565b6103bc6104c636600461376b565b611871565b6102926104d93660046135d4565b611aa6565b6102926104ec36600461390c565b611ad0565b6103bc6104ff366004613951565b611afb565b6102dd610512366004613951565b6120cb565b6102dd61052536600461354e565b6120e0565b6103bc610538366004613951565b612118565b61029261054b36600461390c565b612ae1565b61056361055e36600461371d565b612b0c565b6040516102609594939291906139c5565b600054610292906001600160a01b031681565b600960205281600052604060002081815481106105a357600080fd5b906000526020600020016000915091505080546105bf90613a07565b80601f01602080910402602001604051908101604052809291908181526020018280546105eb90613a07565b80156106385780601f1061060d57610100808354040283529160200191610638565b820191906000526020600020905b81548152906001019060200180831161061b57829003601f168201915b505050505081565b600061064c8383612d0a565b90505b92915050565b60606006826040516106679190613a41565b90815260408051918290036020908101832080548083028501830190935282845291908301828280156106c357602002820191906000526020600020905b81546001600160a01b031681526001909101906020018083116106a5575b50505050509050919050565b6001600160a01b038082166000908152600160208181526040808420815160808101835281549096168652928301549185019190915260028083015493948594859485949293909284019160ff169081111561072d5761072d613569565b600281111561073e5761073e613569565b81526003919091015460209182015281015160408201516060909201519097919650945092505050565b60056020526000908152604090208054819061078390613a07565b80601f01602080910402602001604051908101604052809291908181526020018280546107af90613a07565b80156107fc5780601f106107d1576101008083540402835291602001916107fc565b820191906000526020600020905b8154815290600101906020018083116107df57829003601f168201915b505050600184015460028501805494956001600160a01b0390921694919350915061082690613a07565b80601f016020809104026020016040519081016040528092919081815260200182805461085290613a07565b801561089f5780601f106108745761010080835404028352916020019161089f565b820191906000526020600020905b81548152906001019060200180831161088257829003601f168201915b5050505060038301546004840154600590940154929390929091506001600160a01b03811690600160a01b900460ff1687565b60606007826040516106679190613a41565b60008060006006846040516108f99190613a41565b9081526040519081900360200181205490600790610918908790613a41565b9081526040519081900360200181205490600890610937908890613a41565b90815260405190819003602001902054919450925090509193909250565b6000806001600160a01b038316600090815260016020526040902060029081015460ff169081111561098957610989613569565b1415801561064f5750506001600160a01b0316600090815260016020526040902060030154151590565b6000546001600160a01b031633146109e65760405162461bcd60e51b81526004016109dd90613a5d565b60405180910390fd5b6001600160a01b038216610a355760405162461bcd60e51b8152602060048201526016602482015275496e76616c69642077616c6c6574206164647265737360501b60448201526064016109dd565b6001600160a01b03821660009081526001602052604090206003015415610a915760405162461bcd60e51b815260206004820152601060248201526f20b63932b0b23c90309036b2b6b132b960811b60448201526064016109dd565b6000818152600260205260409020546001600160a01b031615610af65760405162461bcd60e51b815260206004820152601a60248201527f5573657220494420616c7265616479207265676973746572656400000000000060448201526064016109dd565b604080516080810182526001600160a01b038481168083526020808401868152600185870181815242606088015260009485529281905295909220845181546001600160a01b03191694169390931783559051828501555160028083018054949593949293909260ff1916918490811115610b7357610b73613569565b021790555060609190910151600391820155600082815260026020526040812080546001600160a01b0386166001600160a01b0319918216811790925583546001810185559383527fc2575a0e9e593c00f959f8c92f12db2869c3395a3b0502d05e2516446f71f85b9093018054909316179091556004805491610bf683613a97565b919050555080826001600160a01b03167f39d132591ee0696de49ab564e4a90e430c006561917db731a2a614dd2d24559142604051610c3791815260200190565b60405180910390a35050565b60606008826040516106679190613a41565b6001600160a01b0381166000908152600960209081526040808320805482518185028101850190935280835260609492939192909184015b82821015610d39578382906000526020600020018054610cac90613a07565b80601f0160208091040260200160405190810160405280929190818152602001828054610cd890613a07565b8015610d255780601f10610cfa57610100808354040283529160200191610d25565b820191906000526020600020905b815481529060010190602001808311610d0857829003601f168201915b505050505081526020019060010190610c8d565b505050509050919050565b6000546001600160a01b03163314610d6e5760405162461bcd60e51b81526004016109dd90613a5d565b6001600160a01b0382166000908152600160205260408120600301549003610dc75760405162461bcd60e51b815260206004820152600c60248201526b2737ba10309036b2b6b132b960a11b60448201526064016109dd565b6001600160a01b038216600090815260016020526040902060029081015460ff16908290811115610dfa57610dfa613569565b816002811115610e0c57610e0c613569565b03610e4f5760405162461bcd60e51b8152602060048201526013602482015272416c726561647920746869732073746174757360681b60448201526064016109dd565b8160016000856001600160a01b03166001600160a01b0316815260200190815260200160002060020160006101000a81548160ff02191690836002811115610e9957610e99613569565b0217905550336001600160a01b0316836001600160a01b03167f08df6fe77900a7f74a03489f6be278308324a06574c9d8a65c1dae5381c3881d838542604051610ee593929190613ab0565b60405180910390a3505050565b6000825111610f135760405162461bcd60e51b81526004016109dd90613acb565b6001600160a01b038116610f395760405162461bcd60e51b81526004016109dd90613b02565b60008282604051602001610f4e929190613b39565b6040516020818303038152906040528051906020012090506000600560008381526020019081526020016000206040518060e0016040529081600082018054610f9690613a07565b80601f0160208091040260200160405190810160405280929190818152602001828054610fc290613a07565b801561100f5780601f10610fe45761010080835404028352916020019161100f565b820191906000526020600020905b815481529060010190602001808311610ff257829003601f168201915b505050918352505060018201546001600160a01b0316602082015260028201805460409092019161103f90613a07565b80601f016020809104026020016040519081016040528092919081815260200182805461106b90613a07565b80156110b85780601f1061108d576101008083540402835291602001916110b8565b820191906000526020600020905b81548152906001019060200180831161109b57829003601f168201915b505050918352505060038201546020820152600482015460408201526005909101546001600160a01b0381166060830152600160a01b900460ff16151560809091015260c081015190915061111f5760405162461bcd60e51b81526004016109dd90613b70565b60408082015180516020808301919091208351808501909452600584526437bbb732b960d91b939091019290925290600080516020613ded83398151915281016111e35760405162461bcd60e51b815260206004820152604960248201527f4f776e6572732063616e6e6f74206265207265766f6b65642e204f776e65722060448201527f6d7573742075736520766f6c756e746172696c7952656d6f76654f776e4f776e60648201526832b939b434b814149760b91b608482015260a4016109dd565b336001600160a01b0386161480611345576111fe8733612d58565b6112505760405162461bcd60e51b815260206004820152602f6024820152600080516020613dad83398151915260448201526e616e207265766f6b6520726f6c657360881b60648201526084016109dd565b600061127a88336040518060400160405280600581526020016437bbb732b960d91b815250612db4565b9050806113435760408051808201909152600d81526c30b236b4b734b9ba3930ba37b960991b602090910152600080516020613e0d833981519152831480156113415760008060068b6040516112d09190613a41565b90815260405190819003602001902054119050801561133f5760405162461bcd60e51b815260206004820152602560248201527f4f6e6c79206f776e6572732063616e207265766f6b652061646d696e6973747260448201526461746f727360d81b60648201526084016109dd565b505b505b505b60408051808201909152600d81526c30b236b4b734b9ba3930ba37b960991b602090910152600080516020613e2d833981519152820161144c57600060016007896040516113939190613a41565b90815260200160405180910390208054905011905060008060068a6040516113bb9190613a41565b9081526040519081900360200190205411905081806113d75750805b6114495760405162461bcd60e51b815260206004820152603960248201527f43616e6e6f74207265766f6b65206c6173742061646d696e6973747261746f7260448201527f20776974686f757420616e206f776e65722070726573656e740000000000000060648201526084016109dd565b50505b611457878785612fa6565b600085815260056020819052604091829020908101805460ff60a01b19169055426004909101555133906001600160a01b03881690611497908a90613a41565b60405180910390207f4a3687fcb71d47fa2e61f904671324e749c46ad50a2236d66943ab0ab659bbb386426040516114d0929190613bb1565b60405180910390a450505050505050565b6000546001600160a01b0316331461150b5760405162461bcd60e51b81526004016109dd90613a5d565b6001600160a01b0381166115535760405162461bcd60e51b815260206004820152600f60248201526e496e76616c6964206164647265737360881b60448201526064016109dd565b6000546040514281526001600160a01b038381169216907f38df5fa0f7fef0d515ca1f5388cb5790ac5885d5fca8d05d9f943e563c33a4b39060200160405180910390a3600080546001600160a01b0319166001600160a01b0392909216919091179055565b6000546001600160a01b031633146115e35760405162461bcd60e51b81526004016109dd90613a5d565b60008251116116045760405162461bcd60e51b81526004016109dd90613acb565b6001600160a01b03811661164c5760405162461bcd60e51b815260206004820152600f60248201526e496e76616c6964206164647265737360881b60448201526064016109dd565b6001600160a01b038116600090815260016020526040812060029081015460ff169081111561167d5761167d613569565b141580156116a557506001600160a01b03811660009081526001602052604090206003015415155b6116f15760405162461bcd60e51b815260206004820152601860248201527f4d75737420626520616e20616374697665206d656d626572000000000000000060448201526064016109dd565b6006826040516117019190613a41565b9081526040519081900360200190205415801561173b57506007826040516117299190613a41565b90815260405190819003602001902054155b6117875760405162461bcd60e51b815260206004820152601a60248201527f5265636f726420616c726561647920696e697469616c697a656400000000000060448201526064016109dd565b6117b882826040518060400160405280600d81526020016c30b236b4b734b9ba3930ba37b960991b815250336130a8565b5050565b6060600380548060200260200160405190810160405280929190818152602001828054801561181457602002820191906000526020600020905b81546001600160a01b031681526001909101906020018083116117f6575b5050505050905090565b8151602081840181018051600682529282019185019190912091905280548290811061184957600080fd5b6000918252602090912001546001600160a01b03169150829050565b600061064c8383612d58565b60008151116118925760405162461bcd60e51b81526004016109dd90613acb565b6118ba81336040518060400160405280600581526020016437bbb732b960d91b815250612db4565b6119125760405162461bcd60e51b815260206004820152602360248201527f596f7520617265206e6f7420616e206f776e6572206f662074686973207265636044820152621bdc9960ea1b60648201526084016109dd565b600060016006836040516119269190613a41565b90815260200160405180910390208054905011905060008060078460405161194e9190613a41565b90815260405190819003602001902054119050818061196a5750805b6119dc5760405162461bcd60e51b815260206004820152603b60248201527f43616e6e6f742072656d6f766520796f757273656c66206173206c617374206f60448201527f776e65722077697468206e6f2061646d696e6973747261746f7273000000000060648201526084016109dd565b600083336040516020016119f1929190613b39565b604051602081830303815290604052805190602001209050611a3184336040518060400160405280600581526020016437bbb732b960d91b815250612fa6565b600081815260056020819052604091829020908101805460ff60a01b1916905542600490910155513390611a66908690613a41565b604051908190038120428252907fcf5e8e3b738fc92454ce623ca55f54d14fdd7beea3859deb72f5171ad234092d9060200160405180910390a350505050565b60038181548110611ab657600080fd5b6000918252602090912001546001600160a01b0316905081565b8151602081840181018051600882529282019185019190912091905280548290811061184957600080fd5b33600090815260016020526040812060029081015460ff1690811115611b2357611b23613569565b14158015611b4257503360009081526001602052604090206003015415155b611b855760405162461bcd60e51b81526020600482015260146024820152732737ba1030b71030b1ba34bb329036b2b6b132b960611b60448201526064016109dd565b6000835111611ba65760405162461bcd60e51b81526004016109dd90613acb565b6001600160a01b038216611bcc5760405162461bcd60e51b81526004016109dd90613b02565b805160208083019190912060408051808201909152600581526437bbb732b960d91b9201919091527f02016836a56b71f0d02689e69e326f4f4c1b9057164ef592671cf0d37c8040c0811480611c54575060408051808201909152600d81526c30b236b4b734b9ba3930ba37b960991b602090910152600080516020613e0d83398151915281145b80611c9c57506040805180820190915260068152653b34b2bbb2b960d11b6020909101527f120310a1203e5851b63a4d0b2c5643d3fba07783d2b04d7222298a1ed22e1e0d81145b611cb85760405162461bcd60e51b81526004016109dd90613bd3565b60008433604051602001611ccd929190613b39565b6040516020818303038152906040528051906020012090506005600082815260200190815260200160002060050160149054906101000a900460ff16611d555760405162461bcd60e51b815260206004820181905260248201527f596f752068617665206e6f20726f6c6520666f722074686973207265636f726460448201526064016109dd565b600080600687604051611d689190613a41565b9081526020016040518091039020805490501190506000611da787336040518060400160405280600581526020016437bbb732b960d91b815250612db4565b90506000611ddb88336040518060400160405280600d81526020016c30b236b4b734b9ba3930ba37b960991b815250612db4565b60408051808201909152600581526437bbb732b960d91b6020909101529050600080516020613ded8339815191528501611ec6578215611e675781611e625760405162461bcd60e51b815260206004820181905260248201527f4f6e6c79206f776e6572732063616e206772616e74206f776e657220726f6c6560448201526064016109dd565b611ffc565b80611e625760405162461bcd60e51b815260206004820152602960248201527f4f6e6c792061646d696e6973747261746f72732063616e206772616e742066696044820152683939ba1037bbb732b960b91b60648201526084016109dd565b60408051808201909152600d81526c30b236b4b734b9ba3930ba37b960991b602090910152600080516020613e2d8339815191528501611f69578180611f095750805b611e625760405162461bcd60e51b815260206004820152603b6024820152600080516020613dad83398151915260448201527f616e206772616e742061646d696e6973747261746f7220726f6c65000000000060648201526084016109dd565b6040805180820190915260068152653b34b2bbb2b960d11b602090910152600080516020613dcd8339815191528501611ffc578180611fa55750805b611ffc5760405162461bcd60e51b81526020600482015260346024820152600080516020613dad833981519152604482015273616e206772616e742076696577657220726f6c6560601b60648201526084016109dd565b60008888604051602001612011929190613b39565b6040516020818303038152906040528051906020012090506005600082815260200190815260200160002060050160149054906101000a900460ff16156120b45760405162461bcd60e51b815260206004820152603160248201527f5573657220616c726561647920686173206120726f6c652e20557365206368616044820152701b99d9549bdb194a0a481a5b9cdd195859607a1b60648201526084016109dd565b6120c0898989336130a8565b505050505050505050565b60006120d8848484612db4565b949350505050565b6001600160a01b038116600090815260016020526040812060029081015460ff168181111561211157612111613569565b1492915050565b33600090815260016020526040812060029081015460ff169081111561214057612140613569565b1415801561215f57503360009081526001602052604090206003015415155b6121a25760405162461bcd60e51b81526020600482015260146024820152732737ba1030b71030b1ba34bb329036b2b6b132b960611b60448201526064016109dd565b60008351116121c35760405162461bcd60e51b81526004016109dd90613acb565b6001600160a01b0382166121e95760405162461bcd60e51b81526004016109dd90613b02565b805160208083019190912060408051808201909152600581526437bbb732b960d91b9201919091527f02016836a56b71f0d02689e69e326f4f4c1b9057164ef592671cf0d37c8040c0811480612271575060408051808201909152600d81526c30b236b4b734b9ba3930ba37b960991b602090910152600080516020613e0d83398151915281145b806122b957506040805180820190915260068152653b34b2bbb2b960d11b6020909101527f120310a1203e5851b63a4d0b2c5643d3fba07783d2b04d7222298a1ed22e1e0d81145b6122d55760405162461bcd60e51b81526004016109dd90613bd3565b600084846040516020016122ea929190613b39565b6040516020818303038152906040528051906020012090506000600560008381526020019081526020016000206040518060e001604052908160008201805461233290613a07565b80601f016020809104026020016040519081016040528092919081815260200182805461235e90613a07565b80156123ab5780601f10612380576101008083540402835291602001916123ab565b820191906000526020600020905b81548152906001019060200180831161238e57829003601f168201915b505050918352505060018201546001600160a01b031660208201526002820180546040909201916123db90613a07565b80601f016020809104026020016040519081016040528092919081815260200182805461240790613a07565b80156124545780601f1061242957610100808354040283529160200191612454565b820191906000526020600020905b81548152906001019060200180831161243757829003601f168201915b505050918352505060038201546020820152600482015460408201526005909101546001600160a01b0381166060830152600160a01b900460ff16151560809091015260c08101519091506124bb5760405162461bcd60e51b81526004016109dd90613b70565b6040810151805160208201208481036125165760405162461bcd60e51b815260206004820152601a60248201527f5573657220616c726561647920686173207468697320726f6c6500000000000060448201526064016109dd565b60408051808201909152600581526437bbb732b960d91b602090910152600080516020613ded83398151915281016125c25760405162461bcd60e51b815260206004820152604360248201527f4f776e6572732063616e6e6f742062652064656d6f7465642e204f776e65722060448201527f6d75737420766f6c756e746172696c792072656d6f7665207468656d73656c7660648201526232b99760e91b608482015260a4016109dd565b60008060068a6040516125d59190613a41565b90815260200160405180910390208054905011905060006126148a336040518060400160405280600581526020016437bbb732b960d91b815250612db4565b905060006126488b336040518060400160405280600d81526020016c30b236b4b734b9ba3930ba37b960991b815250612db4565b60408051808201909152600581526437bbb732b960d91b6020909101529050336001600160a01b038b1614600080516020613ded83398151915289016127415783156126e057826126db5760405162461bcd60e51b815260206004820181905260248201527f4f6e6c79206f776e6572732063616e2070726f6d6f746520746f206f776e657260448201526064016109dd565b612910565b816126db5760405162461bcd60e51b815260206004820152602b60248201527f4f6e6c792061646d696e6973747261746f72732063616e2070726f6d6f74652060448201526a3334b939ba1037bbb732b960a91b60648201526084016109dd565b60408051808201909152600d81526c30b236b4b734b9ba3930ba37b960991b602090910152600080516020613e2d83398151915289016127e45782806127845750815b6126db5760405162461bcd60e51b815260206004820152603b6024820152600080516020613dad83398151915260448201527f616e2070726f6d6f746520746f2061646d696e6973747261746f72000000000060648201526084016109dd565b6040805180820190915260068152653b34b2bbb2b960d11b602090910152600080516020613dcd83398151915289016129105783156128b257828061282e575081801561282e5750805b6126db5760405162461bcd60e51b815260206004820152604960248201527f4f6e6c79206f776e6572732063616e2064656d6f7465206f74686572732e204160448201527f646d696e6973747261746f72732063616e206f6e6c792064656d6f746520746860648201526832b6b9b2b63b32b99760b91b608482015260a4016109dd565b816129105760405162461bcd60e51b815260206004820152602860248201527f4f6e6c792061646d696e6973747261746f72732063616e2064656d6f7465207460448201526737903b34b2bbb2b960c11b60648201526084016109dd565b60408051808201909152600d81526c30b236b4b734b9ba3930ba37b960991b602090910152600080516020613e0d8339815191528514801561298f57506040805180820190915260068152653b34b2bbb2b960d11b6020909101527f120310a1203e5851b63a4d0b2c5643d3fba07783d2b04d7222298a1ed22e1e0d89145b15612a2e5783612a2e57600160078d6040516129ab9190613a41565b9081526040519081900360200190205411612a2e5760405162461bcd60e51b815260206004820152603960248201527f43616e6e6f742064656d6f746520746865206c6173742061646d696e6973747260448201527f61746f72207768656e206e6f206f776e6572206578697374730000000000000060648201526084016109dd565b612a398c8c88612fa6565b612a448c8c8c6132c7565b6000888152600560205260409020600201612a5f8b82613c77565b5060008881526005602052604090819020426004909101555133906001600160a01b038d1690612a90908f90613a41565b60405180910390207fa9b92b2b183a6569cac9b7675bea182897aa18a7ca2a6fb370a6f5825633961c898e42604051612acb93929190613d37565b60405180910390a4505050505050505050505050565b8151602081840181018051600782529282019185019190912091905280548290811061184957600080fd5b606060008060008060008787604051602001612b29929190613b39565b6040516020818303038152906040528051906020012090506000600560008381526020019081526020016000206040518060e0016040529081600082018054612b7190613a07565b80601f0160208091040260200160405190810160405280929190818152602001828054612b9d90613a07565b8015612bea5780601f10612bbf57610100808354040283529160200191612bea565b820191906000526020600020905b815481529060010190602001808311612bcd57829003601f168201915b505050918352505060018201546001600160a01b03166020820152600282018054604090920191612c1a90613a07565b80601f0160208091040260200160405190810160405280929190818152602001828054612c4690613a07565b8015612c935780601f10612c6857610100808354040283529160200191612c93565b820191906000526020600020905b815481529060010190602001808311612c7657829003601f168201915b50505091835250506003820154602082015260048201546040808301919091526005909201546001600160a01b038116606080840191909152600160a01b90910460ff16151560809283015291830151918301519083015160a084015160c090940151929d919c509a509198509650945050505050565b6000808383604051602001612d20929190613b39565b60408051808303601f1901815291815281516020928301206000908152600592839052200154600160a01b900460ff16949350505050565b6000612d8283836040518060400160405280600581526020016437bbb732b960d91b815250612db4565b8061064c575061064c83836040518060400160405280600d81526020016c30b236b4b734b9ba3930ba37b960991b8152505b6000808484604051602001612dca929190613b39565b6040516020818303038152906040528051906020012090506000600560008381526020019081526020016000206040518060e0016040529081600082018054612e1290613a07565b80601f0160208091040260200160405190810160405280929190818152602001828054612e3e90613a07565b8015612e8b5780601f10612e6057610100808354040283529160200191612e8b565b820191906000526020600020905b815481529060010190602001808311612e6e57829003601f168201915b505050918352505060018201546001600160a01b03166020820152600282018054604090920191612ebb90613a07565b80601f0160208091040260200160405190810160405280929190818152602001828054612ee790613a07565b8015612f345780601f10612f0957610100808354040283529160200191612f34565b820191906000526020600020905b815481529060010190602001808311612f1757829003601f168201915b505050918352505060038201546020820152600482015460408201526005909101546001600160a01b0381166060830152600160a01b900460ff16151560809091015260c08101519091508015612f9c57508380519060200120816040015180519060200120145b9695505050505050565b805160208083019190912060408051808201909152600581526437bbb732b960d91b920191909152600080516020613ded833981519152810161300f5761300a600685604051612ff69190613a41565b908152602001604051809103902084613424565b6130a2565b60408051808201909152600d81526c30b236b4b734b9ba3930ba37b960991b602090910152600080516020613e2d833981519152810161305c5761300a600785604051612ff69190613a41565b6040805180820190915260068152653b34b2bbb2b960d11b602090910152600080516020613dcd83398151915281016130a2576130a2600885604051612ff69190613a41565b50505050565b600084846040516020016130bd929190613b39565b60408051808303601f1901815282825280516020918201206000818152600580845290849020015460e0850184528985526001600160a01b03891692850192909252918301869052909250600160a01b900460ff169060608101826131225742613135565b6000848152600560205260409020600301545b8152426020808301919091526001600160a01b03861660408084019190915260016060909301929092526000858152600590915220815181906131789082613c77565b5060208201516001820180546001600160a01b0319166001600160a01b03909216919091179055604082015160028201906131b39082613c77565b50606082015160038201556080820151600482015560a08201516005909101805460c0909301511515600160a01b026001600160a81b03199093166001600160a01b03909216919091179190911790558061325c576132138686866132c7565b6001600160a01b0385166000908152600960209081526040822080546001810182559083529120016132458782613c77565b50600a805490600061325683613a97565b91905055505b826001600160a01b0316856001600160a01b03168760405161327e9190613a41565b60405180910390207fb11bb86c7a250ec130229577f2dfa0480d10122b9b1c02fb81df81959f1a791187426040516132b7929190613bb1565b60405180910390a4505050505050565b805160208083019190912060408051808201909152600581526437bbb732b960d91b920191909152600080516020613ded8339815191528101613353576006846040516133149190613a41565b90815260405160209181900382019020805460018101825560009182529190200180546001600160a01b0319166001600160a01b0385161790556130a2565b60408051808201909152600d81526c30b236b4b734b9ba3930ba37b960991b602090910152600080516020613e2d833981519152810161339d576007846040516133149190613a41565b6040805180820190915260068152653b34b2bbb2b960d11b602090910152600080516020613dcd83398151915281016130a2576008846040516133e09190613a41565b908152604051908190036020908101909120805460018101825560009182529190200180546001600160a01b0385166001600160a01b031990911617905550505050565b60005b825481101561352d57816001600160a01b031683828154811061344c5761344c613d6d565b6000918252602090912001546001600160a01b03160361351b578254839061347690600190613d83565b8154811061348657613486613d6d565b9060005260206000200160009054906101000a90046001600160a01b03168382815481106134b6576134b6613d6d565b9060005260206000200160006101000a8154816001600160a01b0302191690836001600160a01b03160217905550828054806134f4576134f4613d96565b600082815260209020810160001990810180546001600160a01b0319169055019055505050565b8061352581613a97565b915050613427565b505050565b80356001600160a01b038116811461354957600080fd5b919050565b60006020828403121561356057600080fd5b61064c82613532565b634e487b7160e01b600052602160045260246000fd5b6003811061359d57634e487b7160e01b600052602160045260246000fd5b9052565b6001600160a01b038516815260208101849052608081016135c5604083018561357f565b82606083015295945050505050565b6000602082840312156135e657600080fd5b5035919050565b6000806040838503121561360057600080fd5b61360983613532565b946020939093013593505050565b60005b8381101561363257818101518382015260200161361a565b50506000910152565b60008151808452613653816020860160208601613617565b601f01601f19169290920160200192915050565b60208152600061064c602083018461363b565b634e487b7160e01b600052604160045260246000fd5b600082601f8301126136a157600080fd5b813567ffffffffffffffff808211156136bc576136bc61367a565b604051601f8301601f19908116603f011681019082821181831017156136e4576136e461367a565b816040528381528660208588010111156136fd57600080fd5b836020870160208301376000602085830101528094505050505092915050565b6000806040838503121561373057600080fd5b823567ffffffffffffffff81111561374757600080fd5b61375385828601613690565b92505061376260208401613532565b90509250929050565b60006020828403121561377d57600080fd5b813567ffffffffffffffff81111561379457600080fd5b6120d884828501613690565b6020808252825182820181905260009190848201906040850190845b818110156137e15783516001600160a01b0316835292840192918401916001016137bc565b50909695505050505050565b83815260608101613801602083018561357f565b826040830152949350505050565b60e08152600061382260e083018a61363b565b6001600160a01b0389811660208501528382036040850152613844828a61363b565b6060850198909852608084019690965250509190921660a082015290151560c0909101529392505050565b6000602080830181845280855180835260408601915060408160051b870101925083870160005b828110156138c457603f198886030184526138b285835161363b565b94509285019290850190600101613896565b5092979650505050505050565b600080604083850312156138e457600080fd5b6138ed83613532565b915060208301356003811061390157600080fd5b809150509250929050565b6000806040838503121561391f57600080fd5b823567ffffffffffffffff81111561393657600080fd5b61394285828601613690565b95602094909401359450505050565b60008060006060848603121561396657600080fd5b833567ffffffffffffffff8082111561397e57600080fd5b61398a87838801613690565b945061399860208701613532565b935060408601359150808211156139ae57600080fd5b506139bb86828701613690565b9150509250925092565b60a0815260006139d860a083018861363b565b60208301969096525060408101939093526001600160a01b039190911660608301521515608090910152919050565b600181811c90821680613a1b57607f821691505b602082108103613a3b57634e487b7160e01b600052602260045260246000fd5b50919050565b60008251613a53818460208701613617565b9190910192915050565b6020808252600a908201526927b7363c9030b236b4b760b11b604082015260600190565b634e487b7160e01b600052601160045260246000fd5b600060018201613aa957613aa9613a81565b5060010190565b60608101613abe828661357f565b613801602083018561357f565b60208082526019908201527f5265636f72642049442063616e6e6f7420626520656d70747900000000000000604082015260600190565b6020808252601b908201527f5573657220616464726573732063616e6e6f74206265207a65726f0000000000604082015260600190565b60008351613b4b818460208801613617565b60609390931b6bffffffffffffffffffffffff19169190920190815260140192915050565b60208082526021908201527f5573657220646f6573206e6f74206861766520616e2061637469766520726f6c6040820152606560f81b606082015260800190565b604081526000613bc4604083018561363b565b90508260208301529392505050565b60208082526036908201527f496e76616c696420726f6c652e204d7573742062653a206f776e65722c20616460408201527536b4b734b9ba3930ba37b9161037b9103b34b2bbb2b960511b606082015260800190565b601f82111561352d57600081815260208120601f850160051c81016020861015613c505750805b601f850160051c820191505b81811015613c6f57828155600101613c5c565b505050505050565b815167ffffffffffffffff811115613c9157613c9161367a565b613ca581613c9f8454613a07565b84613c29565b602080601f831160018114613cda5760008415613cc25750858301515b600019600386901b1c1916600185901b178555613c6f565b600085815260208120601f198616915b82811015613d0957888601518255948401946001909101908401613cea565b5085821015613d275787850151600019600388901b60f8161c191681555b5050505050600190811b01905550565b606081526000613d4a606083018661363b565b8281036020840152613d5c818661363b565b915050826040830152949350505050565b634e487b7160e01b600052603260045260246000fd5b8181038181111561064f5761064f613a81565b634e487b7160e01b600052603160045260246000fdfe4f6e6c79206f776e65727320616e642061646d696e6973747261746f72732063edfcef5edfc1a7ae49c5b2f4d3a9bc2c045f887c2d4fb28dddd675e12dd1e1f3fdfe97c95a948e0f2fd9761961cd90b0b3e46fa8e9b10a6d98e30f2c837fbf40b9f092e3b1ecc5f16749a6a275c159ead9cf216a95a0b902d2f260f98f91b9a0460f6d1c4e133a0e98b6595d8a3ea6152630de956a5f46fd2d0d9f06706e4660a26469706673582212200daea6f270f69e2649fc22c3960d369fd25b6e4aa5bfcc549312293f18bc452f64736f6c63430008130033",
  "linkReferences": {},
  "deployedLinkReferences": {}
}